{
  "abi": [
    {
      "constant": true,
      "inputs": [],
      "name": "ZERO_BYTES32",
      "outputs": [
        {
          "name": "",
          "type": "bytes32"
        }
      ],
      "payable": false,
      "stateMutability": "view",
      "type": "function"
    },
    {
      "constant": false,
      "inputs": [
        {
          "components": [
            {
              "name": "transition",
              "type": "bytes"
            },
            {
              "components": [
                {
                  "name": "blockNumber",
                  "type": "uint256"
                },
                {
                  "name": "transitionIndex",
                  "type": "uint256"
                },
                {
                  "name": "siblings",
                  "type": "bytes32[]"
                }
              ],
              "name": "inclusionProof",
              "type": "tuple"
            }
          ],
          "name": "_preStateIncludedTransition",
          "type": "tuple"
        },
        {
          "components": [
            {
              "name": "transition",
              "type": "bytes"
            },
            {
              "components": [
                {
                  "name": "blockNumber",
                  "type": "uint256"
                },
                {
                  "name": "transitionIndex",
                  "type": "uint256"
                },
                {
                  "name": "siblings",
                  "type": "bytes32[]"
                }
              ],
              "name": "inclusionProof",
              "type": "tuple"
            }
          ],
          "name": "_invalidIncludedTransition",
          "type": "tuple"
        },
        {
          "components": [
            {
              "components": [
                {
                  "name": "slotIndex",
                  "type": "uint32"
                },
                {
                  "components": [
                    {
                      "name": "pubkey",
                      "type": "address"
                    },
                    {
                      "name": "balances",
                      "type": "uint32[2]"
                    }
                  ],
                  "name": "value",
                  "type": "tuple"
                }
              ],
              "name": "storageSlot",
              "type": "tuple"
            },
            {
              "name": "siblings",
              "type": "bytes32[]"
            }
          ],
          "name": "_transitionStorageSlots",
          "type": "tuple[2]"
        }
      ],
      "name": "proveTransitionInvalid",
      "outputs": [],
      "payable": false,
      "stateMutability": "nonpayable",
      "type": "function"
    },
    {
      "constant": true,
      "inputs": [
        {
          "components": [
            {
              "name": "transition",
              "type": "bytes"
            },
            {
              "components": [
                {
                  "name": "blockNumber",
                  "type": "uint256"
                },
                {
                  "name": "transitionIndex",
                  "type": "uint256"
                },
                {
                  "name": "siblings",
                  "type": "bytes32[]"
                }
              ],
              "name": "inclusionProof",
              "type": "tuple"
            }
          ],
          "name": "_includedTransition",
          "type": "tuple"
        }
      ],
      "name": "checkTransitionInclusion",
      "outputs": [
        {
          "name": "",
          "type": "bool"
        }
      ],
      "payable": false,
      "stateMutability": "view",
      "type": "function"
    },
    {
      "constant": false,
      "inputs": [
        {
          "name": "_preStateTransition",
          "type": "bytes"
        },
        {
          "name": "_invalidTransition",
          "type": "bytes"
        }
      ],
      "name": "getStateRootsAndStorageSlots",
      "outputs": [
        {
          "name": "",
          "type": "bool"
        },
        {
          "name": "",
          "type": "bytes32"
        },
        {
          "name": "",
          "type": "bytes32"
        },
        {
          "name": "",
          "type": "uint32[2]"
        }
      ],
      "payable": false,
      "stateMutability": "nonpayable",
      "type": "function"
    },
    {
      "constant": false,
      "inputs": [
        {
          "components": [
            {
              "name": "transition",
              "type": "bytes"
            },
            {
              "components": [
                {
                  "name": "blockNumber",
                  "type": "uint256"
                },
                {
                  "name": "transitionIndex",
                  "type": "uint256"
                },
                {
                  "name": "siblings",
                  "type": "bytes32[]"
                }
              ],
              "name": "inclusionProof",
              "type": "tuple"
            }
          ],
          "name": "_transition0",
          "type": "tuple"
        },
        {
          "components": [
            {
              "name": "transition",
              "type": "bytes"
            },
            {
              "components": [
                {
                  "name": "blockNumber",
                  "type": "uint256"
                },
                {
                  "name": "transitionIndex",
                  "type": "uint256"
                },
                {
                  "name": "siblings",
                  "type": "bytes32[]"
                }
              ],
              "name": "inclusionProof",
              "type": "tuple"
            }
          ],
          "name": "_transition1",
          "type": "tuple"
        }
      ],
      "name": "verifySequentialTransitions",
      "outputs": [
        {
          "name": "",
          "type": "bool"
        }
      ],
      "payable": false,
      "stateMutability": "nonpayable",
      "type": "function"
    },
    {
      "constant": false,
      "inputs": [
        {
          "name": "_block",
          "type": "bytes[]"
        }
      ],
      "name": "submitBlock",
      "outputs": [
        {
          "name": "",
          "type": "bytes32"
        }
      ],
      "payable": false,
      "stateMutability": "nonpayable",
      "type": "function"
    },
    {
      "constant": true,
      "inputs": [
        {
          "name": "_transition",
          "type": "bytes"
        }
      ],
      "name": "getTransitionHash",
      "outputs": [
        {
          "name": "",
          "type": "bytes32"
        }
      ],
      "payable": false,
      "stateMutability": "pure",
      "type": "function"
    },
    {
      "constant": true,
      "inputs": [
        {
          "name": "",
          "type": "uint256"
        }
      ],
      "name": "blocks",
      "outputs": [
        {
          "name": "rootHash",
          "type": "bytes32"
        },
        {
          "name": "blockSize",
          "type": "uint256"
        }
      ],
      "payable": false,
      "stateMutability": "view",
      "type": "function"
    },
    {
      "constant": true,
      "inputs": [
        {
          "components": [
            {
              "name": "pubkey",
              "type": "address"
            },
            {
              "name": "balances",
              "type": "uint32[2]"
            }
          ],
          "name": "_storage",
          "type": "tuple"
        }
      ],
      "name": "getStorageBytes",
      "outputs": [
        {
          "name": "",
          "type": "bytes"
        }
      ],
      "payable": false,
      "stateMutability": "view",
      "type": "function"
    },
    {
      "inputs": [
        {
          "name": "_transitionEvaluatorAddress",
          "type": "address"
        },
        {
          "name": "_rollupMerkleUtilsAddress",
          "type": "address"
        }
      ],
      "payable": false,
      "stateMutability": "nonpayable",
      "type": "constructor"
    },
    {
      "anonymous": false,
      "inputs": [
        {
          "indexed": false,
          "name": "success",
          "type": "bool"
        },
        {
          "indexed": false,
          "name": "returnData",
          "type": "bytes"
        }
      ],
      "name": "DecodedTransition",
      "type": "event"
    },
    {
      "anonymous": false,
      "inputs": [
        {
          "indexed": false,
          "name": "block",
          "type": "bytes[]"
        },
        {
          "indexed": false,
          "name": "blockNumber",
          "type": "uint256"
        }
      ],
      "name": "NewRollupBlock",
      "type": "event"
    }
  ],
  "evm": {
    "bytecode": {
      "linkReferences": {},
      "object": "60806040526000801b60035560405180606001604052806003548152602001600354815260200160035481525060049060036200003e9291906200010f565b506000600755600160085560026009556020600a553480156200006057600080fd5b5060405162002ee038038062002ee0833981810160405262000086919081019062000193565b816000806101000a81548173ffffffffffffffffffffffffffffffffffffffff021916908373ffffffffffffffffffffffffffffffffffffffff16021790555080600160006101000a81548173ffffffffffffffffffffffffffffffffffffffff021916908373ffffffffffffffffffffffffffffffffffffffff160217905550505062000222565b826003810192821562000141579160200282015b828111156200014057825182559160200191906001019062000123565b5b50905062000150919062000154565b5090565b6200017991905b80821115620001755760008160009055506001016200015b565b5090565b90565b6000815190506200018d8162000208565b92915050565b60008060408385031215620001a757600080fd5b6000620001b7858286016200017c565b9250506020620001ca858286016200017c565b9150509250929050565b6000620001e182620001e8565b9050919050565b600073ffffffffffffffffffffffffffffffffffffffff82169050919050565b6200021381620001d4565b81146200021f57600080fd5b50565b612cae80620002326000396000f3fe608060405234801561001057600080fd5b50600436106100935760003560e01c8063ceb7aeb011610066578063ceb7aeb014610135578063d3250f3b14610165578063d866ba6f14610195578063f25b3f99146101c5578063feddf0ac146101f657610093565b8063069321b0146100985780633a51368c146100b65780639a14f166146100d2578063bc128da914610102575b600080fd5b6100a0610226565b6040516100ad91906125e9565b60405180910390f35b6100d060048036036100cb9190810190611bfe565b61022c565b005b6100ec60048036036100e79190810190611b51565b6107fc565b6040516100f99190612559565b60405180910390f35b61011c60048036036101179190810190611ae5565b6108fb565b60405161012c9493929190612574565b60405180910390f35b61014f600480360361014a9190810190611b92565b610cb1565b60405161015c9190612559565b60405180910390f35b61017f600480360361017a91908101906119d1565b610ed7565b60405161018c91906125e9565b60405180910390f35b6101af60048036036101aa9190810190611aa4565b61103b565b6040516101bc91906125e9565b60405180910390f35b6101df60048036036101da9190810190611cbe565b61104c565b6040516101ed929190612657565b60405180910390f35b610210600480360361020b9190810190611c95565b61107d565b60405161021d91906126a9565b60405180910390f35b60035481565b6060836000015190506060836000015190506102488585610cb1565b506000806000610256611296565b61026086866108fb565b9350935093509350836102895761027e886020015160000151611188565b5050505050506107f7565b8060006002811061029657fe5b602002015163ffffffff16876000600281106102ae57fe5b6020020151600001516000015163ffffffff1614610301576040517f08c379a00000000000000000000000000000000000000000000000000000000081526004016102f8906127e1565b60405180910390fd5b8060016002811061030e57fe5b602002015163ffffffff168760016002811061032657fe5b6020020151600001516000015163ffffffff1614610379576040517f08c379a000000000000000000000000000000000000000000000000000000000815260040161037090612741565b60405180910390fd5b600160009054906101000a900473ffffffffffffffffffffffffffffffffffffffff1673ffffffffffffffffffffffffffffffffffffffff16635c22b6d984600a546040518363ffffffff1660e01b81526004016103d8929190612657565b600060405180830381600087803b1580156103f257600080fd5b505af1158015610406573d6000803e3d6000fd5b5050505060008090505b600281101561043f5761043288826002811061042857fe5b60200201516111da565b8080600101915050610410565b506104486112b8565b8760006002811061045557fe5b6020020151600001518160006002811061046b57fe5b60200201819052508760016002811061048057fe5b6020020151600001518160016002811061049657fe5b602002018190525060606000809054906101000a900473ffffffffffffffffffffffffffffffffffffffff1673ffffffffffffffffffffffffffffffffffffffff166000809054906101000a900473ffffffffffffffffffffffffffffffffffffffff1673ffffffffffffffffffffffffffffffffffffffff16633f7948a5905060e01b888460405160240161052d9291906126cb565b604051602081830303815290604052907bffffffffffffffffffffffffffffffffffffffffffffffffffffffff19166020820180517bffffffffffffffffffffffffffffffffffffffffffffffffffffffff8381831617835250505050604051610597919061249a565b6000604051808303816000865af19150503d80600081146105d4576040519150601f19603f3d011682016040523d82523d6000602084013e6105d9565b606091505b50809250819750505085610605576105f88a6020015160000151611188565b50505050505050506107f7565b61060d6112e6565b8180602001905161062191908101906119a8565b905060008090505b60028110156106f657600160009054906101000a900473ffffffffffffffffffffffffffffffffffffffff1673ffffffffffffffffffffffffffffffffffffffff1663272684b583836002811061067c57fe5b60200201518d846002811061068d57fe5b602002015160000151600001516040518363ffffffff1660e01b81526004016106b7929190612680565b600060405180830381600087803b1580156106d157600080fd5b505af11580156106e5573d6000803e3d6000fd5b505050508080600101915050610629565b50600160009054906101000a900473ffffffffffffffffffffffffffffffffffffffff1673ffffffffffffffffffffffffffffffffffffffff16635ca1e1656040518163ffffffff1660e01b815260040160206040518083038186803b15801561075f57600080fd5b505afa158015610773573d6000803e3d6000fd5b505050506040513d601f19601f820116820180604052506107979190810190611a3f565b85146107bc576107ae8b6020015160000151611188565b5050505050505050506107f7565b6040517f08c379a00000000000000000000000000000000000000000000000000000000081526004016107ee90612821565b60405180910390fd5b505050565b60008060028360200151600001518154811061081457fe5b90600052602060002090600202016000015490506000600160009054906101000a900473ffffffffffffffffffffffffffffffffffffffff1673ffffffffffffffffffffffffffffffffffffffff166330d90a768386600001518760200151602001518860200151604001516040518563ffffffff1660e01b815260040161089f9493929190612604565b60206040518083038186803b1580156108b757600080fd5b505afa1580156108cb573d6000803e3d6000fd5b505050506040513d601f19601f820116820180604052506108ef9190810190611a16565b90508092505050919050565b6000806000610908611296565b60006060600080610917611296565b61091f611296565b6000809054906101000a900473ffffffffffffffffffffffffffffffffffffffff1673ffffffffffffffffffffffffffffffffffffffff166000809054906101000a900473ffffffffffffffffffffffffffffffffffffffff1673ffffffffffffffffffffffffffffffffffffffff1663bdce7919905060e01b8d6040516024016109aa91906126a9565b604051602081830303815290604052907bffffffffffffffffffffffffffffffffffffffffffffffffffffffff19166020820180517bffffffffffffffffffffffffffffffffffffffffffffffffffffffff8381831617835250505050604051610a14919061249a565b6000604051808303816000865af19150503d8060008114610a51576040519150601f19603f3d011682016040523d82523d6000602084013e610a56565b606091505b5080965081975050507f5fd450ece0a49d6fc2b885a337c2ad8a37c3fbf9b4fc5b6afb8b0f94a5d2cee38686604051610a909291906125b9565b60405180910390a185610ad8576040517f08c379a0000000000000000000000000000000000000000000000000000000008152600401610acf90612781565b60405180910390fd5b84806020019051610aec9190810190611a68565b80905080935081955050506000809054906101000a900473ffffffffffffffffffffffffffffffffffffffff1673ffffffffffffffffffffffffffffffffffffffff166000809054906101000a900473ffffffffffffffffffffffffffffffffffffffff1673ffffffffffffffffffffffffffffffffffffffff1663bdce7919905060e01b8c604051602401610b8291906126a9565b604051602081830303815290604052907bffffffffffffffffffffffffffffffffffffffffffffffffffffffff19166020820180517bffffffffffffffffffffffffffffffffffffffffffffffffffffffff8381831617835250505050604051610bec919061249a565b6000604051808303816000865af19150503d8060008114610c29576040519150601f19603f3d011682016040523d82523d6000602084013e610c2e565b606091505b5080965081975050507f5fd450ece0a49d6fc2b885a337c2ad8a37c3fbf9b4fc5b6afb8b0f94a5d2cee38686604051610c689291906125b9565b60405180910390a18515610c965784806020019051610c8a9190810190611a68565b80905080925081945050505b85848483995099509950995050505050505092959194509250565b6000610cbc836107fc565b610cfb576040517f08c379a0000000000000000000000000000000000000000000000000000000008152600401610cf2906127c1565b60405180910390fd5b610d04826107fc565b610d43576040517f08c379a0000000000000000000000000000000000000000000000000000000008152600401610d3a906127a1565b60405180910390fd5b8160200151600001518360200151600001511415610db95760018260200151602001510383602001516020015114610db0576040517f08c379a0000000000000000000000000000000000000000000000000000000008152600401610da790612841565b60405180910390fd5b60019050610ed1565b60018260200151600001510383602001516000015114610e0e576040517f08c379a0000000000000000000000000000000000000000000000000000000008152600401610e0590612801565b60405180910390fd5b6001600284602001516000015181548110610e2557fe5b9060005260206000209060020201600101540383602001516020015114610e81576040517f08c379a0000000000000000000000000000000000000000000000000000000008152600401610e7890612761565b60405180910390fd5b600082602001516020015114610ecc576040517f08c379a0000000000000000000000000000000000000000000000000000000008152600401610ec390612861565b60405180910390fd5b600190505b92915050565b600080600160009054906101000a900473ffffffffffffffffffffffffffffffffffffffff1673ffffffffffffffffffffffffffffffffffffffff166340ff34ef85856040518363ffffffff1660e01b8152600401610f37929190612503565b60206040518083038186803b158015610f4f57600080fd5b505afa158015610f63573d6000803e3d6000fd5b505050506040513d601f19601f82011682018060405250610f879190810190611a3f565b9050610f91611308565b60405180604001604052808381526020018686905081525090506002819080600181540180825580915050906001820390600052602060002090600202016000909192909190915060008201518160000155602082015181600101555050507fe6a728cf739c94a7ce1eae684da3d74934e160650f47aa6dd39f70dfe005aadf858560028054905060405161102893929190612527565b60405180910390a1819250505092915050565b600081805190602001209050919050565b6002818154811061105957fe5b90600052602060002090600202016000915090508060000154908060010154905082565b6060600073ffffffffffffffffffffffffffffffffffffffff16826000015173ffffffffffffffffffffffffffffffffffffffff161480156110da5750600082602001516000600281106110cd57fe5b602002015163ffffffff16145b80156111015750600082602001516001600281106110f457fe5b602002015163ffffffff16145b1561112e57600060405160200161111891906124b1565b6040516020818303038152906040529050611183565b8160000151826020015160006002811061114457fe5b6020020151836020015160016002811061115a57fe5b6020020151604051602001611171939291906124cc565b60405160208183030381529060405290505b919050565b60008190505b6002805490508110156111d657600281815481106111a857fe5b906000526020600020906002020160008082016000905560018201600090555050808060010191505061118e565b5050565b60606111ed82600001516020015161107d565b9050600160009054906101000a900473ffffffffffffffffffffffffffffffffffffffff1673ffffffffffffffffffffffffffffffffffffffff16634359356d8284600001516000015163ffffffff1685602001516040518463ffffffff1660e01b8152600401611260939291906126fc565b600060405180830381600087803b15801561127a57600080fd5b505af115801561128e573d6000803e3d6000fd5b505050505050565b6040518060400160405280600290602082028038833980820191505090505090565b6040518061010001604052806002905b6112d0611325565b8152602001906001900390816112c85790505090565b6040518060400160405280600290602082028038833980820191505090505090565b604051806040016040528060008019168152602001600081525090565b6040518060800160405280600063ffffffff16815260200161134561134b565b81525090565b6040518060600160405280600073ffffffffffffffffffffffffffffffffffffffff16815260200161137b611381565b81525090565b6040518060400160405280600290602082028038833980820191505090505090565b6000813590506113b281612bf8565b92915050565b600082601f8301126113c957600080fd5b60026113dc6113d7826128ae565b612881565b915081838560208402820111156113f257600080fd5b60005b8381101561142257816114088882611670565b8452602084019350602083019250506001810190506113f5565b5050505092915050565b600082601f83011261143d57600080fd5b813561145061144b826128d0565b612881565b9150818183526020840193506020810190508385602084028201111561147557600080fd5b60005b838110156114a5578161148b888261165b565b845260208401935060208301925050600181019050611478565b5050505092915050565b60008083601f8401126114c157600080fd5b8235905067ffffffffffffffff8111156114da57600080fd5b6020830191508360208202830111156114f257600080fd5b9250929050565b600082601f83011261150a57600080fd5b600261151d611518826128f8565b612881565b9150818360005b83811015611554578135860161153a888261172d565b845260208401935060208301925050600181019050611524565b5050505092915050565b600082601f83011261156f57600080fd5b600261158261157d8261291a565b612881565b9150818385602084028201111561159857600080fd5b60005b838110156115c857816115ae888261197e565b84526020840193506020830192505060018101905061159b565b5050505092915050565b600082601f8301126115e357600080fd5b60026115f66115f18261291a565b612881565b9150818385602084028201111561160c57600080fd5b60005b8381101561163c57816116228882611993565b84526020840193506020830192505060018101905061160f565b5050505092915050565b60008151905061165581612c0f565b92915050565b60008135905061166a81612c26565b92915050565b60008151905061167f81612c26565b92915050565b600082601f83011261169657600080fd5b81356116a96116a48261293c565b612881565b915080825260208301602083018583830111156116c557600080fd5b6116d0838284612b9b565b50505092915050565b600082601f8301126116ea57600080fd5b81356116fd6116f882612968565b612881565b9150808252602083016020830185838301111561171957600080fd5b611724838284612b9b565b50505092915050565b600060a0828403121561173f57600080fd5b6117496040612881565b905060006117598482850161180d565b600083015250608082013567ffffffffffffffff81111561177957600080fd5b6117858482850161142c565b60208301525092915050565b6000604082840312156117a357600080fd5b6117ad6040612881565b9050600082013567ffffffffffffffff8111156117c957600080fd5b6117d584828501611685565b600083015250602082013567ffffffffffffffff8111156117f557600080fd5b611801848285016118f1565b60208301525092915050565b60006080828403121561181f57600080fd5b6118296040612881565b905060006118398482850161197e565b600083015250602061184d84828501611859565b60208301525092915050565b60006060828403121561186b57600080fd5b6118756040612881565b90506000611885848285016113a3565b60008301525060206118998482850161155e565b60208301525092915050565b6000606082840312156118b757600080fd5b6118c16040612881565b905060006118d1848285016113a3565b60008301525060206118e58482850161155e565b60208301525092915050565b60006060828403121561190357600080fd5b61190d6060612881565b9050600061191d84828501611969565b600083015250602061193184828501611969565b602083015250604082013567ffffffffffffffff81111561195157600080fd5b61195d8482850161142c565b60408301525092915050565b60008135905061197881612c3d565b92915050565b60008135905061198d81612c54565b92915050565b6000815190506119a281612c54565b92915050565b6000604082840312156119ba57600080fd5b60006119c8848285016113b8565b91505092915050565b600080602083850312156119e457600080fd5b600083013567ffffffffffffffff8111156119fe57600080fd5b611a0a858286016114af565b92509250509250929050565b600060208284031215611a2857600080fd5b6000611a3684828501611646565b91505092915050565b600060208284031215611a5157600080fd5b6000611a5f84828501611670565b91505092915050565b60008060608385031215611a7b57600080fd5b6000611a8985828601611670565b9250506020611a9a858286016115d2565b9150509250929050565b600060208284031215611ab657600080fd5b600082013567ffffffffffffffff811115611ad057600080fd5b611adc848285016116d9565b91505092915050565b60008060408385031215611af857600080fd5b600083013567ffffffffffffffff811115611b1257600080fd5b611b1e858286016116d9565b925050602083013567ffffffffffffffff811115611b3b57600080fd5b611b47858286016116d9565b9150509250929050565b600060208284031215611b6357600080fd5b600082013567ffffffffffffffff811115611b7d57600080fd5b611b8984828501611791565b91505092915050565b60008060408385031215611ba557600080fd5b600083013567ffffffffffffffff811115611bbf57600080fd5b611bcb85828601611791565b925050602083013567ffffffffffffffff811115611be857600080fd5b611bf485828601611791565b9150509250929050565b600080600060608486031215611c1357600080fd5b600084013567ffffffffffffffff811115611c2d57600080fd5b611c3986828701611791565b935050602084013567ffffffffffffffff811115611c5657600080fd5b611c6286828701611791565b925050604084013567ffffffffffffffff811115611c7f57600080fd5b611c8b868287016114f9565b9150509250925092565b600060608284031215611ca757600080fd5b6000611cb5848285016118a5565b91505092915050565b600060208284031215611cd057600080fd5b6000611cde84828501611969565b91505092915050565b6000611cf38383611f4b565b60208301905092915050565b6000611d0c848484611f69565b90509392505050565b6000611d2183836123e9565b60808301905092915050565b6000611d39838361247c565b60208301905092915050565b611d4e81612b27565b82525050565b611d5d81612b27565b82525050565b6000611d6e826129cc565b611d788185612a4f565b9350611d8383612994565b8060005b83811015611db4578151611d9b8882611ce7565b9750611da683612a0e565b925050600181019050611d87565b5085935050505092915050565b6000611dcd8385612a60565b935083602084028501611ddf846129a4565b8060005b87811015611e25578484038952611dfa8284612ad0565b611e05868284611cff565b9550611e1084612a1b565b935060208b019a505050600181019050611de3565b50829750879450505050509392505050565b611e40816129d7565b611e4a8184612a71565b9250611e55826129ae565b8060005b83811015611e86578151611e6d8782611d15565b9650611e7883612a28565b925050600181019050611e59565b505050505050565b611e97816129ed565b611ea18184612a87565b9250611eac826129c2565b8060005b83811015611edd578151611ec48782611d2d565b9650611ecf83612a42565b925050600181019050611eb0565b505050505050565b611eee816129e2565b611ef88184612a7c565b9250611f03826129b8565b8060005b83811015611f34578151611f1b8782611d2d565b9650611f2683612a35565b925050600181019050611f07565b505050505050565b611f4581612b39565b82525050565b611f5481612b45565b82525050565b611f6381612b45565b82525050565b6000611f758385612a92565b9350611f82838584612b9b565b611f8b83612be7565b840190509392505050565b6000611fa182612a03565b611fab8185612aa3565b9350611fbb818560208601612baa565b611fc481612be7565b840191505092915050565b6000611fda82612a03565b611fe48185612ab4565b9350611ff4818560208601612baa565b80840191505092915050565b600061200b826129f8565b6120158185612aa3565b9350612025818560208601612baa565b61202e81612be7565b840191505092915050565b6000612046603083612abf565b91507f5365636f6e6420737570706c6965642073746f7261676520736c6f7420696e6460008301527f657820697320696e636f727265637421000000000000000000000000000000006020830152604082019050919050565b60006120ac602783612abf565b91507f5f7472616e736974696f6e30206d757374206265206c61737420696e2069747360008301527f20626c6f636b2e000000000000000000000000000000000000000000000000006020830152604082019050919050565b6000612112604083612abf565b91507f496620746865207072655374617465526f6f7420697320696e76616c69642c2060008301527f7468656e2070726f7665207468617420696e76616c696420696e7374656164216020830152604082019050919050565b6000612178602783612abf565b91507f546865207365636f6e64207472616e736974696f6e206d75737420626520696e60008301527f636c7564656421000000000000000000000000000000000000000000000000006020830152604082019050919050565b60006121de602683612abf565b91507f546865206669727374207472616e736974696f6e206d75737420626520696e6360008301527f6c756465642100000000000000000000000000000000000000000000000000006020830152604082019050919050565b6000612244602f83612abf565b91507f466972737420737570706c6965642073746f7261676520736c6f7420696e646560008301527f7820697320696e636f72726563742100000000000000000000000000000000006020830152604082019050919050565b60006122aa602a83612abf565b91507f426c6f636b73206d757374206265206f6e6520616674657220616e6f7468657260008301527f206f7220657175616c2e000000000000000000000000000000000000000000006020830152604082019050919050565b6000612310601283612abf565b91507f4e6f2066726175642064657465637465642100000000000000000000000000006000830152602082019050919050565b6000612350601f83612abf565b91507f5472616e736974696f6e73206d7573742062652073657175656e7469616c21006000830152602082019050919050565b6000612390602883612abf565b91507f5f7472616e736974696f6e30206d75737420626520666972737420696e20697460008301527f7320626c6f636b2e0000000000000000000000000000000000000000000000006020830152604082019050919050565b6080820160008201516123ff600085018261247c565b5060208201516124126020850182612418565b50505050565b60608201600082015161242e6000850182611d45565b5060208201516124416020850182611ee5565b50505050565b61245081612b6f565b82525050565b61246761246282612b6f565b612bdd565b82525050565b61247681612b89565b82525050565b61248581612b79565b82525050565b61249481612b79565b82525050565b60006124a68284611fcf565b915081905092915050565b60006124bd8284612456565b60208201915081905092915050565b60006060820190506124e16000830186611d54565b6124ee602083018561248b565b6124fb604083018461248b565b949350505050565b6000602082019050818103600083015261251e818486611dc1565b90509392505050565b60006040820190508181036000830152612542818587611dc1565b90506125516020830184612447565b949350505050565b600060208201905061256e6000830184611f3c565b92915050565b600060a0820190506125896000830187611f3c565b6125966020830186611f5a565b6125a36040830185611f5a565b6125b06060830184611e8e565b95945050505050565b60006040820190506125ce6000830185611f3c565b81810360208301526125e08184611f96565b90509392505050565b60006020820190506125fe6000830184611f5a565b92915050565b60006080820190506126196000830187611f5a565b818103602083015261262b8186612000565b905061263a6040830185612447565b818103606083015261264c8184611d63565b905095945050505050565b600060408201905061266c6000830185611f5a565b6126796020830184612447565b9392505050565b60006040820190506126956000830185611f5a565b6126a2602083018461246d565b9392505050565b600060208201905081810360008301526126c38184611f96565b905092915050565b60006101208201905081810360008301526126e68185611f96565b90506126f56020830184611e37565b9392505050565b600060608201905081810360008301526127168186611f96565b90506127256020830185612447565b81810360408301526127378184611d63565b9050949350505050565b6000602082019050818103600083015261275a81612039565b9050919050565b6000602082019050818103600083015261277a8161209f565b9050919050565b6000602082019050818103600083015261279a81612105565b9050919050565b600060208201905081810360008301526127ba8161216b565b9050919050565b600060208201905081810360008301526127da816121d1565b9050919050565b600060208201905081810360008301526127fa81612237565b9050919050565b6000602082019050818103600083015261281a8161229d565b9050919050565b6000602082019050818103600083015261283a81612303565b9050919050565b6000602082019050818103600083015261285a81612343565b9050919050565b6000602082019050818103600083015261287a81612383565b9050919050565b6000604051905081810181811067ffffffffffffffff821117156128a457600080fd5b8060405250919050565b600067ffffffffffffffff8211156128c557600080fd5b602082029050919050565b600067ffffffffffffffff8211156128e757600080fd5b602082029050602081019050919050565b600067ffffffffffffffff82111561290f57600080fd5b602082029050919050565b600067ffffffffffffffff82111561293157600080fd5b602082029050919050565b600067ffffffffffffffff82111561295357600080fd5b601f19601f8301169050602081019050919050565b600067ffffffffffffffff82111561297f57600080fd5b601f19601f8301169050602081019050919050565b6000819050602082019050919050565b6000819050919050565b6000819050919050565b6000819050919050565b6000819050919050565b600081519050919050565b600060029050919050565b600060029050919050565b600060029050919050565b600081519050919050565b600081519050919050565b6000602082019050919050565b6000602082019050919050565b6000602082019050919050565b6000602082019050919050565b6000602082019050919050565b600082825260208201905092915050565b600082825260208201905092915050565b600081905092915050565b600081905092915050565b600081905092915050565b600082825260208201905092915050565b600082825260208201905092915050565b600081905092915050565b600082825260208201905092915050565b60008083356001602003843603038112612ae957600080fd5b83810192508235915060208301925067ffffffffffffffff821115612b0d57600080fd5b600182023603841315612b1f57600080fd5b509250929050565b6000612b3282612b4f565b9050919050565b60008115159050919050565b6000819050919050565b600073ffffffffffffffffffffffffffffffffffffffff82169050919050565b6000819050919050565b600063ffffffff82169050919050565b6000612b9482612b79565b9050919050565b82818337600083830152505050565b60005b83811015612bc8578082015181840152602081019050612bad565b83811115612bd7576000848401525b50505050565b6000819050919050565b6000601f19601f8301169050919050565b612c0181612b27565b8114612c0c57600080fd5b50565b612c1881612b39565b8114612c2357600080fd5b50565b612c2f81612b45565b8114612c3a57600080fd5b50565b612c4681612b6f565b8114612c5157600080fd5b50565b612c5d81612b79565b8114612c6857600080fd5b5056fea365627a7a723058205d92ea48967c258706641d7154d85ef8276b42bb914582728c369362605bcd356c6578706572696d656e74616cf564736f6c63430005090040",
      "opcodes": "PUSH1 0x80 PUSH1 0x40 MSTORE PUSH1 0x0 DUP1 SHL PUSH1 0x3 SSTORE PUSH1 0x40 MLOAD DUP1 PUSH1 0x60 ADD PUSH1 0x40 MSTORE DUP1 PUSH1 0x3 SLOAD DUP2 MSTORE PUSH1 0x20 ADD PUSH1 0x3 SLOAD DUP2 MSTORE PUSH1 0x20 ADD PUSH1 0x3 SLOAD DUP2 MSTORE POP PUSH1 0x4 SWAP1 PUSH1 0x3 PUSH3 0x3E SWAP3 SWAP2 SWAP1 PUSH3 0x10F JUMP JUMPDEST POP PUSH1 0x0 PUSH1 0x7 SSTORE PUSH1 0x1 PUSH1 0x8 SSTORE PUSH1 0x2 PUSH1 0x9 SSTORE PUSH1 0x20 PUSH1 0xA SSTORE CALLVALUE DUP1 ISZERO PUSH3 0x60 JUMPI PUSH1 0x0 DUP1 REVERT JUMPDEST POP PUSH1 0x40 MLOAD PUSH3 0x2EE0 CODESIZE SUB DUP1 PUSH3 0x2EE0 DUP4 CODECOPY DUP2 DUP2 ADD PUSH1 0x40 MSTORE PUSH3 0x86 SWAP2 SWAP1 DUP2 ADD SWAP1 PUSH3 0x193 JUMP JUMPDEST DUP2 PUSH1 0x0 DUP1 PUSH2 0x100 EXP DUP2 SLOAD DUP2 PUSH20 0xFFFFFFFFFFFFFFFFFFFFFFFFFFFFFFFFFFFFFFFF MUL NOT AND SWAP1 DUP4 PUSH20 0xFFFFFFFFFFFFFFFFFFFFFFFFFFFFFFFFFFFFFFFF AND MUL OR SWAP1 SSTORE POP DUP1 PUSH1 0x1 PUSH1 0x0 PUSH2 0x100 EXP DUP2 SLOAD DUP2 PUSH20 0xFFFFFFFFFFFFFFFFFFFFFFFFFFFFFFFFFFFFFFFF MUL NOT AND SWAP1 DUP4 PUSH20 0xFFFFFFFFFFFFFFFFFFFFFFFFFFFFFFFFFFFFFFFF AND MUL OR SWAP1 SSTORE POP POP POP PUSH3 0x222 JUMP JUMPDEST DUP3 PUSH1 0x3 DUP2 ADD SWAP3 DUP3 ISZERO PUSH3 0x141 JUMPI SWAP2 PUSH1 0x20 MUL DUP3 ADD JUMPDEST DUP3 DUP2 GT ISZERO PUSH3 0x140 JUMPI DUP3 MLOAD DUP3 SSTORE SWAP2 PUSH1 0x20 ADD SWAP2 SWAP1 PUSH1 0x1 ADD SWAP1 PUSH3 0x123 JUMP JUMPDEST JUMPDEST POP SWAP1 POP PUSH3 0x150 SWAP2 SWAP1 PUSH3 0x154 JUMP JUMPDEST POP SWAP1 JUMP JUMPDEST PUSH3 0x179 SWAP2 SWAP1 JUMPDEST DUP1 DUP3 GT ISZERO PUSH3 0x175 JUMPI PUSH1 0x0 DUP2 PUSH1 0x0 SWAP1 SSTORE POP PUSH1 0x1 ADD PUSH3 0x15B JUMP JUMPDEST POP SWAP1 JUMP JUMPDEST SWAP1 JUMP JUMPDEST PUSH1 0x0 DUP2 MLOAD SWAP1 POP PUSH3 0x18D DUP2 PUSH3 0x208 JUMP JUMPDEST SWAP3 SWAP2 POP POP JUMP JUMPDEST PUSH1 0x0 DUP1 PUSH1 0x40 DUP4 DUP6 SUB SLT ISZERO PUSH3 0x1A7 JUMPI PUSH1 0x0 DUP1 REVERT JUMPDEST PUSH1 0x0 PUSH3 0x1B7 DUP6 DUP3 DUP7 ADD PUSH3 0x17C JUMP JUMPDEST SWAP3 POP POP PUSH1 0x20 PUSH3 0x1CA DUP6 DUP3 DUP7 ADD PUSH3 0x17C JUMP JUMPDEST SWAP2 POP POP SWAP3 POP SWAP3 SWAP1 POP JUMP JUMPDEST PUSH1 0x0 PUSH3 0x1E1 DUP3 PUSH3 0x1E8 JUMP JUMPDEST SWAP1 POP SWAP2 SWAP1 POP JUMP JUMPDEST PUSH1 0x0 PUSH20 0xFFFFFFFFFFFFFFFFFFFFFFFFFFFFFFFFFFFFFFFF DUP3 AND SWAP1 POP SWAP2 SWAP1 POP JUMP JUMPDEST PUSH3 0x213 DUP2 PUSH3 0x1D4 JUMP JUMPDEST DUP2 EQ PUSH3 0x21F JUMPI PUSH1 0x0 DUP1 REVERT JUMPDEST POP JUMP JUMPDEST PUSH2 0x2CAE DUP1 PUSH3 0x232 PUSH1 0x0 CODECOPY PUSH1 0x0 RETURN INVALID PUSH1 0x80 PUSH1 0x40 MSTORE CALLVALUE DUP1 ISZERO PUSH2 0x10 JUMPI PUSH1 0x0 DUP1 REVERT JUMPDEST POP PUSH1 0x4 CALLDATASIZE LT PUSH2 0x93 JUMPI PUSH1 0x0 CALLDATALOAD PUSH1 0xE0 SHR DUP1 PUSH4 0xCEB7AEB0 GT PUSH2 0x66 JUMPI DUP1 PUSH4 0xCEB7AEB0 EQ PUSH2 0x135 JUMPI DUP1 PUSH4 0xD3250F3B EQ PUSH2 0x165 JUMPI DUP1 PUSH4 0xD866BA6F EQ PUSH2 0x195 JUMPI DUP1 PUSH4 0xF25B3F99 EQ PUSH2 0x1C5 JUMPI DUP1 PUSH4 0xFEDDF0AC EQ PUSH2 0x1F6 JUMPI PUSH2 0x93 JUMP JUMPDEST DUP1 PUSH4 0x69321B0 EQ PUSH2 0x98 JUMPI DUP1 PUSH4 0x3A51368C EQ PUSH2 0xB6 JUMPI DUP1 PUSH4 0x9A14F166 EQ PUSH2 0xD2 JUMPI DUP1 PUSH4 0xBC128DA9 EQ PUSH2 0x102 JUMPI JUMPDEST PUSH1 0x0 DUP1 REVERT JUMPDEST PUSH2 0xA0 PUSH2 0x226 JUMP JUMPDEST PUSH1 0x40 MLOAD PUSH2 0xAD SWAP2 SWAP1 PUSH2 0x25E9 JUMP JUMPDEST PUSH1 0x40 MLOAD DUP1 SWAP2 SUB SWAP1 RETURN JUMPDEST PUSH2 0xD0 PUSH1 0x4 DUP1 CALLDATASIZE SUB PUSH2 0xCB SWAP2 SWAP1 DUP2 ADD SWAP1 PUSH2 0x1BFE JUMP JUMPDEST PUSH2 0x22C JUMP JUMPDEST STOP JUMPDEST PUSH2 0xEC PUSH1 0x4 DUP1 CALLDATASIZE SUB PUSH2 0xE7 SWAP2 SWAP1 DUP2 ADD SWAP1 PUSH2 0x1B51 JUMP JUMPDEST PUSH2 0x7FC JUMP JUMPDEST PUSH1 0x40 MLOAD PUSH2 0xF9 SWAP2 SWAP1 PUSH2 0x2559 JUMP JUMPDEST PUSH1 0x40 MLOAD DUP1 SWAP2 SUB SWAP1 RETURN JUMPDEST PUSH2 0x11C PUSH1 0x4 DUP1 CALLDATASIZE SUB PUSH2 0x117 SWAP2 SWAP1 DUP2 ADD SWAP1 PUSH2 0x1AE5 JUMP JUMPDEST PUSH2 0x8FB JUMP JUMPDEST PUSH1 0x40 MLOAD PUSH2 0x12C SWAP5 SWAP4 SWAP3 SWAP2 SWAP1 PUSH2 0x2574 JUMP JUMPDEST PUSH1 0x40 MLOAD DUP1 SWAP2 SUB SWAP1 RETURN JUMPDEST PUSH2 0x14F PUSH1 0x4 DUP1 CALLDATASIZE SUB PUSH2 0x14A SWAP2 SWAP1 DUP2 ADD SWAP1 PUSH2 0x1B92 JUMP JUMPDEST PUSH2 0xCB1 JUMP JUMPDEST PUSH1 0x40 MLOAD PUSH2 0x15C SWAP2 SWAP1 PUSH2 0x2559 JUMP JUMPDEST PUSH1 0x40 MLOAD DUP1 SWAP2 SUB SWAP1 RETURN JUMPDEST PUSH2 0x17F PUSH1 0x4 DUP1 CALLDATASIZE SUB PUSH2 0x17A SWAP2 SWAP1 DUP2 ADD SWAP1 PUSH2 0x19D1 JUMP JUMPDEST PUSH2 0xED7 JUMP JUMPDEST PUSH1 0x40 MLOAD PUSH2 0x18C SWAP2 SWAP1 PUSH2 0x25E9 JUMP JUMPDEST PUSH1 0x40 MLOAD DUP1 SWAP2 SUB SWAP1 RETURN JUMPDEST PUSH2 0x1AF PUSH1 0x4 DUP1 CALLDATASIZE SUB PUSH2 0x1AA SWAP2 SWAP1 DUP2 ADD SWAP1 PUSH2 0x1AA4 JUMP JUMPDEST PUSH2 0x103B JUMP JUMPDEST PUSH1 0x40 MLOAD PUSH2 0x1BC SWAP2 SWAP1 PUSH2 0x25E9 JUMP JUMPDEST PUSH1 0x40 MLOAD DUP1 SWAP2 SUB SWAP1 RETURN JUMPDEST PUSH2 0x1DF PUSH1 0x4 DUP1 CALLDATASIZE SUB PUSH2 0x1DA SWAP2 SWAP1 DUP2 ADD SWAP1 PUSH2 0x1CBE JUMP JUMPDEST PUSH2 0x104C JUMP JUMPDEST PUSH1 0x40 MLOAD PUSH2 0x1ED SWAP3 SWAP2 SWAP1 PUSH2 0x2657 JUMP JUMPDEST PUSH1 0x40 MLOAD DUP1 SWAP2 SUB SWAP1 RETURN JUMPDEST PUSH2 0x210 PUSH1 0x4 DUP1 CALLDATASIZE SUB PUSH2 0x20B SWAP2 SWAP1 DUP2 ADD SWAP1 PUSH2 0x1C95 JUMP JUMPDEST PUSH2 0x107D JUMP JUMPDEST PUSH1 0x40 MLOAD PUSH2 0x21D SWAP2 SWAP1 PUSH2 0x26A9 JUMP JUMPDEST PUSH1 0x40 MLOAD DUP1 SWAP2 SUB SWAP1 RETURN JUMPDEST PUSH1 0x3 SLOAD DUP2 JUMP JUMPDEST PUSH1 0x60 DUP4 PUSH1 0x0 ADD MLOAD SWAP1 POP PUSH1 0x60 DUP4 PUSH1 0x0 ADD MLOAD SWAP1 POP PUSH2 0x248 DUP6 DUP6 PUSH2 0xCB1 JUMP JUMPDEST POP PUSH1 0x0 DUP1 PUSH1 0x0 PUSH2 0x256 PUSH2 0x1296 JUMP JUMPDEST PUSH2 0x260 DUP7 DUP7 PUSH2 0x8FB JUMP JUMPDEST SWAP4 POP SWAP4 POP SWAP4 POP SWAP4 POP DUP4 PUSH2 0x289 JUMPI PUSH2 0x27E DUP9 PUSH1 0x20 ADD MLOAD PUSH1 0x0 ADD MLOAD PUSH2 0x1188 JUMP JUMPDEST POP POP POP POP POP POP PUSH2 0x7F7 JUMP JUMPDEST DUP1 PUSH1 0x0 PUSH1 0x2 DUP2 LT PUSH2 0x296 JUMPI INVALID JUMPDEST PUSH1 0x20 MUL ADD MLOAD PUSH4 0xFFFFFFFF AND DUP8 PUSH1 0x0 PUSH1 0x2 DUP2 LT PUSH2 0x2AE JUMPI INVALID JUMPDEST PUSH1 0x20 MUL ADD MLOAD PUSH1 0x0 ADD MLOAD PUSH1 0x0 ADD MLOAD PUSH4 0xFFFFFFFF AND EQ PUSH2 0x301 JUMPI PUSH1 0x40 MLOAD PUSH32 0x8C379A000000000000000000000000000000000000000000000000000000000 DUP2 MSTORE PUSH1 0x4 ADD PUSH2 0x2F8 SWAP1 PUSH2 0x27E1 JUMP JUMPDEST PUSH1 0x40 MLOAD DUP1 SWAP2 SUB SWAP1 REVERT JUMPDEST DUP1 PUSH1 0x1 PUSH1 0x2 DUP2 LT PUSH2 0x30E JUMPI INVALID JUMPDEST PUSH1 0x20 MUL ADD MLOAD PUSH4 0xFFFFFFFF AND DUP8 PUSH1 0x1 PUSH1 0x2 DUP2 LT PUSH2 0x326 JUMPI INVALID JUMPDEST PUSH1 0x20 MUL ADD MLOAD PUSH1 0x0 ADD MLOAD PUSH1 0x0 ADD MLOAD PUSH4 0xFFFFFFFF AND EQ PUSH2 0x379 JUMPI PUSH1 0x40 MLOAD PUSH32 0x8C379A000000000000000000000000000000000000000000000000000000000 DUP2 MSTORE PUSH1 0x4 ADD PUSH2 0x370 SWAP1 PUSH2 0x2741 JUMP JUMPDEST PUSH1 0x40 MLOAD DUP1 SWAP2 SUB SWAP1 REVERT JUMPDEST PUSH1 0x1 PUSH1 0x0 SWAP1 SLOAD SWAP1 PUSH2 0x100 EXP SWAP1 DIV PUSH20 0xFFFFFFFFFFFFFFFFFFFFFFFFFFFFFFFFFFFFFFFF AND PUSH20 0xFFFFFFFFFFFFFFFFFFFFFFFFFFFFFFFFFFFFFFFF AND PUSH4 0x5C22B6D9 DUP5 PUSH1 0xA SLOAD PUSH1 0x40 MLOAD DUP4 PUSH4 0xFFFFFFFF AND PUSH1 0xE0 SHL DUP2 MSTORE PUSH1 0x4 ADD PUSH2 0x3D8 SWAP3 SWAP2 SWAP1 PUSH2 0x2657 JUMP JUMPDEST PUSH1 0x0 PUSH1 0x40 MLOAD DUP1 DUP4 SUB DUP2 PUSH1 0x0 DUP8 DUP1 EXTCODESIZE ISZERO DUP1 ISZERO PUSH2 0x3F2 JUMPI PUSH1 0x0 DUP1 REVERT JUMPDEST POP GAS CALL ISZERO DUP1 ISZERO PUSH2 0x406 JUMPI RETURNDATASIZE PUSH1 0x0 DUP1 RETURNDATACOPY RETURNDATASIZE PUSH1 0x0 REVERT JUMPDEST POP POP POP POP PUSH1 0x0 DUP1 SWAP1 POP JUMPDEST PUSH1 0x2 DUP2 LT ISZERO PUSH2 0x43F JUMPI PUSH2 0x432 DUP9 DUP3 PUSH1 0x2 DUP2 LT PUSH2 0x428 JUMPI INVALID JUMPDEST PUSH1 0x20 MUL ADD MLOAD PUSH2 0x11DA JUMP JUMPDEST DUP1 DUP1 PUSH1 0x1 ADD SWAP2 POP POP PUSH2 0x410 JUMP JUMPDEST POP PUSH2 0x448 PUSH2 0x12B8 JUMP JUMPDEST DUP8 PUSH1 0x0 PUSH1 0x2 DUP2 LT PUSH2 0x455 JUMPI INVALID JUMPDEST PUSH1 0x20 MUL ADD MLOAD PUSH1 0x0 ADD MLOAD DUP2 PUSH1 0x0 PUSH1 0x2 DUP2 LT PUSH2 0x46B JUMPI INVALID JUMPDEST PUSH1 0x20 MUL ADD DUP2 SWAP1 MSTORE POP DUP8 PUSH1 0x1 PUSH1 0x2 DUP2 LT PUSH2 0x480 JUMPI INVALID JUMPDEST PUSH1 0x20 MUL ADD MLOAD PUSH1 0x0 ADD MLOAD DUP2 PUSH1 0x1 PUSH1 0x2 DUP2 LT PUSH2 0x496 JUMPI INVALID JUMPDEST PUSH1 0x20 MUL ADD DUP2 SWAP1 MSTORE POP PUSH1 0x60 PUSH1 0x0 DUP1 SWAP1 SLOAD SWAP1 PUSH2 0x100 EXP SWAP1 DIV PUSH20 0xFFFFFFFFFFFFFFFFFFFFFFFFFFFFFFFFFFFFFFFF AND PUSH20 0xFFFFFFFFFFFFFFFFFFFFFFFFFFFFFFFFFFFFFFFF AND PUSH1 0x0 DUP1 SWAP1 SLOAD SWAP1 PUSH2 0x100 EXP SWAP1 DIV PUSH20 0xFFFFFFFFFFFFFFFFFFFFFFFFFFFFFFFFFFFFFFFF AND PUSH20 0xFFFFFFFFFFFFFFFFFFFFFFFFFFFFFFFFFFFFFFFF AND PUSH4 0x3F7948A5 SWAP1 POP PUSH1 0xE0 SHL DUP9 DUP5 PUSH1 0x40 MLOAD PUSH1 0x24 ADD PUSH2 0x52D SWAP3 SWAP2 SWAP1 PUSH2 0x26CB JUMP JUMPDEST PUSH1 0x40 MLOAD PUSH1 0x20 DUP2 DUP4 SUB SUB DUP2 MSTORE SWAP1 PUSH1 0x40 MSTORE SWAP1 PUSH28 0xFFFFFFFFFFFFFFFFFFFFFFFFFFFFFFFFFFFFFFFFFFFFFFFFFFFFFFFF NOT AND PUSH1 0x20 DUP3 ADD DUP1 MLOAD PUSH28 0xFFFFFFFFFFFFFFFFFFFFFFFFFFFFFFFFFFFFFFFFFFFFFFFFFFFFFFFF DUP4 DUP2 DUP4 AND OR DUP4 MSTORE POP POP POP POP PUSH1 0x40 MLOAD PUSH2 0x597 SWAP2 SWAP1 PUSH2 0x249A JUMP JUMPDEST PUSH1 0x0 PUSH1 0x40 MLOAD DUP1 DUP4 SUB DUP2 PUSH1 0x0 DUP7 GAS CALL SWAP2 POP POP RETURNDATASIZE DUP1 PUSH1 0x0 DUP2 EQ PUSH2 0x5D4 JUMPI PUSH1 0x40 MLOAD SWAP2 POP PUSH1 0x1F NOT PUSH1 0x3F RETURNDATASIZE ADD AND DUP3 ADD PUSH1 0x40 MSTORE RETURNDATASIZE DUP3 MSTORE RETURNDATASIZE PUSH1 0x0 PUSH1 0x20 DUP5 ADD RETURNDATACOPY PUSH2 0x5D9 JUMP JUMPDEST PUSH1 0x60 SWAP2 POP JUMPDEST POP DUP1 SWAP3 POP DUP2 SWAP8 POP POP POP DUP6 PUSH2 0x605 JUMPI PUSH2 0x5F8 DUP11 PUSH1 0x20 ADD MLOAD PUSH1 0x0 ADD MLOAD PUSH2 0x1188 JUMP JUMPDEST POP POP POP POP POP POP POP POP PUSH2 0x7F7 JUMP JUMPDEST PUSH2 0x60D PUSH2 0x12E6 JUMP JUMPDEST DUP2 DUP1 PUSH1 0x20 ADD SWAP1 MLOAD PUSH2 0x621 SWAP2 SWAP1 DUP2 ADD SWAP1 PUSH2 0x19A8 JUMP JUMPDEST SWAP1 POP PUSH1 0x0 DUP1 SWAP1 POP JUMPDEST PUSH1 0x2 DUP2 LT ISZERO PUSH2 0x6F6 JUMPI PUSH1 0x1 PUSH1 0x0 SWAP1 SLOAD SWAP1 PUSH2 0x100 EXP SWAP1 DIV PUSH20 0xFFFFFFFFFFFFFFFFFFFFFFFFFFFFFFFFFFFFFFFF AND PUSH20 0xFFFFFFFFFFFFFFFFFFFFFFFFFFFFFFFFFFFFFFFF AND PUSH4 0x272684B5 DUP4 DUP4 PUSH1 0x2 DUP2 LT PUSH2 0x67C JUMPI INVALID JUMPDEST PUSH1 0x20 MUL ADD MLOAD DUP14 DUP5 PUSH1 0x2 DUP2 LT PUSH2 0x68D JUMPI INVALID JUMPDEST PUSH1 0x20 MUL ADD MLOAD PUSH1 0x0 ADD MLOAD PUSH1 0x0 ADD MLOAD PUSH1 0x40 MLOAD DUP4 PUSH4 0xFFFFFFFF AND PUSH1 0xE0 SHL DUP2 MSTORE PUSH1 0x4 ADD PUSH2 0x6B7 SWAP3 SWAP2 SWAP1 PUSH2 0x2680 JUMP JUMPDEST PUSH1 0x0 PUSH1 0x40 MLOAD DUP1 DUP4 SUB DUP2 PUSH1 0x0 DUP8 DUP1 EXTCODESIZE ISZERO DUP1 ISZERO PUSH2 0x6D1 JUMPI PUSH1 0x0 DUP1 REVERT JUMPDEST POP GAS CALL ISZERO DUP1 ISZERO PUSH2 0x6E5 JUMPI RETURNDATASIZE PUSH1 0x0 DUP1 RETURNDATACOPY RETURNDATASIZE PUSH1 0x0 REVERT JUMPDEST POP POP POP POP DUP1 DUP1 PUSH1 0x1 ADD SWAP2 POP POP PUSH2 0x629 JUMP JUMPDEST POP PUSH1 0x1 PUSH1 0x0 SWAP1 SLOAD SWAP1 PUSH2 0x100 EXP SWAP1 DIV PUSH20 0xFFFFFFFFFFFFFFFFFFFFFFFFFFFFFFFFFFFFFFFF AND PUSH20 0xFFFFFFFFFFFFFFFFFFFFFFFFFFFFFFFFFFFFFFFF AND PUSH4 0x5CA1E165 PUSH1 0x40 MLOAD DUP2 PUSH4 0xFFFFFFFF AND PUSH1 0xE0 SHL DUP2 MSTORE PUSH1 0x4 ADD PUSH1 0x20 PUSH1 0x40 MLOAD DUP1 DUP4 SUB DUP2 DUP7 DUP1 EXTCODESIZE ISZERO DUP1 ISZERO PUSH2 0x75F JUMPI PUSH1 0x0 DUP1 REVERT JUMPDEST POP GAS STATICCALL ISZERO DUP1 ISZERO PUSH2 0x773 JUMPI RETURNDATASIZE PUSH1 0x0 DUP1 RETURNDATACOPY RETURNDATASIZE PUSH1 0x0 REVERT JUMPDEST POP POP POP POP PUSH1 0x40 MLOAD RETURNDATASIZE PUSH1 0x1F NOT PUSH1 0x1F DUP3 ADD AND DUP3 ADD DUP1 PUSH1 0x40 MSTORE POP PUSH2 0x797 SWAP2 SWAP1 DUP2 ADD SWAP1 PUSH2 0x1A3F JUMP JUMPDEST DUP6 EQ PUSH2 0x7BC JUMPI PUSH2 0x7AE DUP12 PUSH1 0x20 ADD MLOAD PUSH1 0x0 ADD MLOAD PUSH2 0x1188 JUMP JUMPDEST POP POP POP POP POP POP POP POP POP PUSH2 0x7F7 JUMP JUMPDEST PUSH1 0x40 MLOAD PUSH32 0x8C379A000000000000000000000000000000000000000000000000000000000 DUP2 MSTORE PUSH1 0x4 ADD PUSH2 0x7EE SWAP1 PUSH2 0x2821 JUMP JUMPDEST PUSH1 0x40 MLOAD DUP1 SWAP2 SUB SWAP1 REVERT JUMPDEST POP POP POP JUMP JUMPDEST PUSH1 0x0 DUP1 PUSH1 0x2 DUP4 PUSH1 0x20 ADD MLOAD PUSH1 0x0 ADD MLOAD DUP2 SLOAD DUP2 LT PUSH2 0x814 JUMPI INVALID JUMPDEST SWAP1 PUSH1 0x0 MSTORE PUSH1 0x20 PUSH1 0x0 KECCAK256 SWAP1 PUSH1 0x2 MUL ADD PUSH1 0x0 ADD SLOAD SWAP1 POP PUSH1 0x0 PUSH1 0x1 PUSH1 0x0 SWAP1 SLOAD SWAP1 PUSH2 0x100 EXP SWAP1 DIV PUSH20 0xFFFFFFFFFFFFFFFFFFFFFFFFFFFFFFFFFFFFFFFF AND PUSH20 0xFFFFFFFFFFFFFFFFFFFFFFFFFFFFFFFFFFFFFFFF AND PUSH4 0x30D90A76 DUP4 DUP7 PUSH1 0x0 ADD MLOAD DUP8 PUSH1 0x20 ADD MLOAD PUSH1 0x20 ADD MLOAD DUP9 PUSH1 0x20 ADD MLOAD PUSH1 0x40 ADD MLOAD PUSH1 0x40 MLOAD DUP6 PUSH4 0xFFFFFFFF AND PUSH1 0xE0 SHL DUP2 MSTORE PUSH1 0x4 ADD PUSH2 0x89F SWAP5 SWAP4 SWAP3 SWAP2 SWAP1 PUSH2 0x2604 JUMP JUMPDEST PUSH1 0x20 PUSH1 0x40 MLOAD DUP1 DUP4 SUB DUP2 DUP7 DUP1 EXTCODESIZE ISZERO DUP1 ISZERO PUSH2 0x8B7 JUMPI PUSH1 0x0 DUP1 REVERT JUMPDEST POP GAS STATICCALL ISZERO DUP1 ISZERO PUSH2 0x8CB JUMPI RETURNDATASIZE PUSH1 0x0 DUP1 RETURNDATACOPY RETURNDATASIZE PUSH1 0x0 REVERT JUMPDEST POP POP POP POP PUSH1 0x40 MLOAD RETURNDATASIZE PUSH1 0x1F NOT PUSH1 0x1F DUP3 ADD AND DUP3 ADD DUP1 PUSH1 0x40 MSTORE POP PUSH2 0x8EF SWAP2 SWAP1 DUP2 ADD SWAP1 PUSH2 0x1A16 JUMP JUMPDEST SWAP1 POP DUP1 SWAP3 POP POP POP SWAP2 SWAP1 POP JUMP JUMPDEST PUSH1 0x0 DUP1 PUSH1 0x0 PUSH2 0x908 PUSH2 0x1296 JUMP JUMPDEST PUSH1 0x0 PUSH1 0x60 PUSH1 0x0 DUP1 PUSH2 0x917 PUSH2 0x1296 JUMP JUMPDEST PUSH2 0x91F PUSH2 0x1296 JUMP JUMPDEST PUSH1 0x0 DUP1 SWAP1 SLOAD SWAP1 PUSH2 0x100 EXP SWAP1 DIV PUSH20 0xFFFFFFFFFFFFFFFFFFFFFFFFFFFFFFFFFFFFFFFF AND PUSH20 0xFFFFFFFFFFFFFFFFFFFFFFFFFFFFFFFFFFFFFFFF AND PUSH1 0x0 DUP1 SWAP1 SLOAD SWAP1 PUSH2 0x100 EXP SWAP1 DIV PUSH20 0xFFFFFFFFFFFFFFFFFFFFFFFFFFFFFFFFFFFFFFFF AND PUSH20 0xFFFFFFFFFFFFFFFFFFFFFFFFFFFFFFFFFFFFFFFF AND PUSH4 0xBDCE7919 SWAP1 POP PUSH1 0xE0 SHL DUP14 PUSH1 0x40 MLOAD PUSH1 0x24 ADD PUSH2 0x9AA SWAP2 SWAP1 PUSH2 0x26A9 JUMP JUMPDEST PUSH1 0x40 MLOAD PUSH1 0x20 DUP2 DUP4 SUB SUB DUP2 MSTORE SWAP1 PUSH1 0x40 MSTORE SWAP1 PUSH28 0xFFFFFFFFFFFFFFFFFFFFFFFFFFFFFFFFFFFFFFFFFFFFFFFFFFFFFFFF NOT AND PUSH1 0x20 DUP3 ADD DUP1 MLOAD PUSH28 0xFFFFFFFFFFFFFFFFFFFFFFFFFFFFFFFFFFFFFFFFFFFFFFFFFFFFFFFF DUP4 DUP2 DUP4 AND OR DUP4 MSTORE POP POP POP POP PUSH1 0x40 MLOAD PUSH2 0xA14 SWAP2 SWAP1 PUSH2 0x249A JUMP JUMPDEST PUSH1 0x0 PUSH1 0x40 MLOAD DUP1 DUP4 SUB DUP2 PUSH1 0x0 DUP7 GAS CALL SWAP2 POP POP RETURNDATASIZE DUP1 PUSH1 0x0 DUP2 EQ PUSH2 0xA51 JUMPI PUSH1 0x40 MLOAD SWAP2 POP PUSH1 0x1F NOT PUSH1 0x3F RETURNDATASIZE ADD AND DUP3 ADD PUSH1 0x40 MSTORE RETURNDATASIZE DUP3 MSTORE RETURNDATASIZE PUSH1 0x0 PUSH1 0x20 DUP5 ADD RETURNDATACOPY PUSH2 0xA56 JUMP JUMPDEST PUSH1 0x60 SWAP2 POP JUMPDEST POP DUP1 SWAP7 POP DUP2 SWAP8 POP POP POP PUSH32 0x5FD450ECE0A49D6FC2B885A337C2AD8A37C3FBF9B4FC5B6AFB8B0F94A5D2CEE3 DUP7 DUP7 PUSH1 0x40 MLOAD PUSH2 0xA90 SWAP3 SWAP2 SWAP1 PUSH2 0x25B9 JUMP JUMPDEST PUSH1 0x40 MLOAD DUP1 SWAP2 SUB SWAP1 LOG1 DUP6 PUSH2 0xAD8 JUMPI PUSH1 0x40 MLOAD PUSH32 0x8C379A000000000000000000000000000000000000000000000000000000000 DUP2 MSTORE PUSH1 0x4 ADD PUSH2 0xACF SWAP1 PUSH2 0x2781 JUMP JUMPDEST PUSH1 0x40 MLOAD DUP1 SWAP2 SUB SWAP1 REVERT JUMPDEST DUP5 DUP1 PUSH1 0x20 ADD SWAP1 MLOAD PUSH2 0xAEC SWAP2 SWAP1 DUP2 ADD SWAP1 PUSH2 0x1A68 JUMP JUMPDEST DUP1 SWAP1 POP DUP1 SWAP4 POP DUP2 SWAP6 POP POP POP PUSH1 0x0 DUP1 SWAP1 SLOAD SWAP1 PUSH2 0x100 EXP SWAP1 DIV PUSH20 0xFFFFFFFFFFFFFFFFFFFFFFFFFFFFFFFFFFFFFFFF AND PUSH20 0xFFFFFFFFFFFFFFFFFFFFFFFFFFFFFFFFFFFFFFFF AND PUSH1 0x0 DUP1 SWAP1 SLOAD SWAP1 PUSH2 0x100 EXP SWAP1 DIV PUSH20 0xFFFFFFFFFFFFFFFFFFFFFFFFFFFFFFFFFFFFFFFF AND PUSH20 0xFFFFFFFFFFFFFFFFFFFFFFFFFFFFFFFFFFFFFFFF AND PUSH4 0xBDCE7919 SWAP1 POP PUSH1 0xE0 SHL DUP13 PUSH1 0x40 MLOAD PUSH1 0x24 ADD PUSH2 0xB82 SWAP2 SWAP1 PUSH2 0x26A9 JUMP JUMPDEST PUSH1 0x40 MLOAD PUSH1 0x20 DUP2 DUP4 SUB SUB DUP2 MSTORE SWAP1 PUSH1 0x40 MSTORE SWAP1 PUSH28 0xFFFFFFFFFFFFFFFFFFFFFFFFFFFFFFFFFFFFFFFFFFFFFFFFFFFFFFFF NOT AND PUSH1 0x20 DUP3 ADD DUP1 MLOAD PUSH28 0xFFFFFFFFFFFFFFFFFFFFFFFFFFFFFFFFFFFFFFFFFFFFFFFFFFFFFFFF DUP4 DUP2 DUP4 AND OR DUP4 MSTORE POP POP POP POP PUSH1 0x40 MLOAD PUSH2 0xBEC SWAP2 SWAP1 PUSH2 0x249A JUMP JUMPDEST PUSH1 0x0 PUSH1 0x40 MLOAD DUP1 DUP4 SUB DUP2 PUSH1 0x0 DUP7 GAS CALL SWAP2 POP POP RETURNDATASIZE DUP1 PUSH1 0x0 DUP2 EQ PUSH2 0xC29 JUMPI PUSH1 0x40 MLOAD SWAP2 POP PUSH1 0x1F NOT PUSH1 0x3F RETURNDATASIZE ADD AND DUP3 ADD PUSH1 0x40 MSTORE RETURNDATASIZE DUP3 MSTORE RETURNDATASIZE PUSH1 0x0 PUSH1 0x20 DUP5 ADD RETURNDATACOPY PUSH2 0xC2E JUMP JUMPDEST PUSH1 0x60 SWAP2 POP JUMPDEST POP DUP1 SWAP7 POP DUP2 SWAP8 POP POP POP PUSH32 0x5FD450ECE0A49D6FC2B885A337C2AD8A37C3FBF9B4FC5B6AFB8B0F94A5D2CEE3 DUP7 DUP7 PUSH1 0x40 MLOAD PUSH2 0xC68 SWAP3 SWAP2 SWAP1 PUSH2 0x25B9 JUMP JUMPDEST PUSH1 0x40 MLOAD DUP1 SWAP2 SUB SWAP1 LOG1 DUP6 ISZERO PUSH2 0xC96 JUMPI DUP5 DUP1 PUSH1 0x20 ADD SWAP1 MLOAD PUSH2 0xC8A SWAP2 SWAP1 DUP2 ADD SWAP1 PUSH2 0x1A68 JUMP JUMPDEST DUP1 SWAP1 POP DUP1 SWAP3 POP DUP2 SWAP5 POP POP POP JUMPDEST DUP6 DUP5 DUP5 DUP4 SWAP10 POP SWAP10 POP SWAP10 POP SWAP10 POP POP POP POP POP POP POP SWAP3 SWAP6 SWAP2 SWAP5 POP SWAP3 POP JUMP JUMPDEST PUSH1 0x0 PUSH2 0xCBC DUP4 PUSH2 0x7FC JUMP JUMPDEST PUSH2 0xCFB JUMPI PUSH1 0x40 MLOAD PUSH32 0x8C379A000000000000000000000000000000000000000000000000000000000 DUP2 MSTORE PUSH1 0x4 ADD PUSH2 0xCF2 SWAP1 PUSH2 0x27C1 JUMP JUMPDEST PUSH1 0x40 MLOAD DUP1 SWAP2 SUB SWAP1 REVERT JUMPDEST PUSH2 0xD04 DUP3 PUSH2 0x7FC JUMP JUMPDEST PUSH2 0xD43 JUMPI PUSH1 0x40 MLOAD PUSH32 0x8C379A000000000000000000000000000000000000000000000000000000000 DUP2 MSTORE PUSH1 0x4 ADD PUSH2 0xD3A SWAP1 PUSH2 0x27A1 JUMP JUMPDEST PUSH1 0x40 MLOAD DUP1 SWAP2 SUB SWAP1 REVERT JUMPDEST DUP2 PUSH1 0x20 ADD MLOAD PUSH1 0x0 ADD MLOAD DUP4 PUSH1 0x20 ADD MLOAD PUSH1 0x0 ADD MLOAD EQ ISZERO PUSH2 0xDB9 JUMPI PUSH1 0x1 DUP3 PUSH1 0x20 ADD MLOAD PUSH1 0x20 ADD MLOAD SUB DUP4 PUSH1 0x20 ADD MLOAD PUSH1 0x20 ADD MLOAD EQ PUSH2 0xDB0 JUMPI PUSH1 0x40 MLOAD PUSH32 0x8C379A000000000000000000000000000000000000000000000000000000000 DUP2 MSTORE PUSH1 0x4 ADD PUSH2 0xDA7 SWAP1 PUSH2 0x2841 JUMP JUMPDEST PUSH1 0x40 MLOAD DUP1 SWAP2 SUB SWAP1 REVERT JUMPDEST PUSH1 0x1 SWAP1 POP PUSH2 0xED1 JUMP JUMPDEST PUSH1 0x1 DUP3 PUSH1 0x20 ADD MLOAD PUSH1 0x0 ADD MLOAD SUB DUP4 PUSH1 0x20 ADD MLOAD PUSH1 0x0 ADD MLOAD EQ PUSH2 0xE0E JUMPI PUSH1 0x40 MLOAD PUSH32 0x8C379A000000000000000000000000000000000000000000000000000000000 DUP2 MSTORE PUSH1 0x4 ADD PUSH2 0xE05 SWAP1 PUSH2 0x2801 JUMP JUMPDEST PUSH1 0x40 MLOAD DUP1 SWAP2 SUB SWAP1 REVERT JUMPDEST PUSH1 0x1 PUSH1 0x2 DUP5 PUSH1 0x20 ADD MLOAD PUSH1 0x0 ADD MLOAD DUP2 SLOAD DUP2 LT PUSH2 0xE25 JUMPI INVALID JUMPDEST SWAP1 PUSH1 0x0 MSTORE PUSH1 0x20 PUSH1 0x0 KECCAK256 SWAP1 PUSH1 0x2 MUL ADD PUSH1 0x1 ADD SLOAD SUB DUP4 PUSH1 0x20 ADD MLOAD PUSH1 0x20 ADD MLOAD EQ PUSH2 0xE81 JUMPI PUSH1 0x40 MLOAD PUSH32 0x8C379A000000000000000000000000000000000000000000000000000000000 DUP2 MSTORE PUSH1 0x4 ADD PUSH2 0xE78 SWAP1 PUSH2 0x2761 JUMP JUMPDEST PUSH1 0x40 MLOAD DUP1 SWAP2 SUB SWAP1 REVERT JUMPDEST PUSH1 0x0 DUP3 PUSH1 0x20 ADD MLOAD PUSH1 0x20 ADD MLOAD EQ PUSH2 0xECC JUMPI PUSH1 0x40 MLOAD PUSH32 0x8C379A000000000000000000000000000000000000000000000000000000000 DUP2 MSTORE PUSH1 0x4 ADD PUSH2 0xEC3 SWAP1 PUSH2 0x2861 JUMP JUMPDEST PUSH1 0x40 MLOAD DUP1 SWAP2 SUB SWAP1 REVERT JUMPDEST PUSH1 0x1 SWAP1 POP JUMPDEST SWAP3 SWAP2 POP POP JUMP JUMPDEST PUSH1 0x0 DUP1 PUSH1 0x1 PUSH1 0x0 SWAP1 SLOAD SWAP1 PUSH2 0x100 EXP SWAP1 DIV PUSH20 0xFFFFFFFFFFFFFFFFFFFFFFFFFFFFFFFFFFFFFFFF AND PUSH20 0xFFFFFFFFFFFFFFFFFFFFFFFFFFFFFFFFFFFFFFFF AND PUSH4 0x40FF34EF DUP6 DUP6 PUSH1 0x40 MLOAD DUP4 PUSH4 0xFFFFFFFF AND PUSH1 0xE0 SHL DUP2 MSTORE PUSH1 0x4 ADD PUSH2 0xF37 SWAP3 SWAP2 SWAP1 PUSH2 0x2503 JUMP JUMPDEST PUSH1 0x20 PUSH1 0x40 MLOAD DUP1 DUP4 SUB DUP2 DUP7 DUP1 EXTCODESIZE ISZERO DUP1 ISZERO PUSH2 0xF4F JUMPI PUSH1 0x0 DUP1 REVERT JUMPDEST POP GAS STATICCALL ISZERO DUP1 ISZERO PUSH2 0xF63 JUMPI RETURNDATASIZE PUSH1 0x0 DUP1 RETURNDATACOPY RETURNDATASIZE PUSH1 0x0 REVERT JUMPDEST POP POP POP POP PUSH1 0x40 MLOAD RETURNDATASIZE PUSH1 0x1F NOT PUSH1 0x1F DUP3 ADD AND DUP3 ADD DUP1 PUSH1 0x40 MSTORE POP PUSH2 0xF87 SWAP2 SWAP1 DUP2 ADD SWAP1 PUSH2 0x1A3F JUMP JUMPDEST SWAP1 POP PUSH2 0xF91 PUSH2 0x1308 JUMP JUMPDEST PUSH1 0x40 MLOAD DUP1 PUSH1 0x40 ADD PUSH1 0x40 MSTORE DUP1 DUP4 DUP2 MSTORE PUSH1 0x20 ADD DUP7 DUP7 SWAP1 POP DUP2 MSTORE POP SWAP1 POP PUSH1 0x2 DUP2 SWAP1 DUP1 PUSH1 0x1 DUP2 SLOAD ADD DUP1 DUP3 SSTORE DUP1 SWAP2 POP POP SWAP1 PUSH1 0x1 DUP3 SUB SWAP1 PUSH1 0x0 MSTORE PUSH1 0x20 PUSH1 0x0 KECCAK256 SWAP1 PUSH1 0x2 MUL ADD PUSH1 0x0 SWAP1 SWAP2 SWAP3 SWAP1 SWAP2 SWAP1 SWAP2 POP PUSH1 0x0 DUP3 ADD MLOAD DUP2 PUSH1 0x0 ADD SSTORE PUSH1 0x20 DUP3 ADD MLOAD DUP2 PUSH1 0x1 ADD SSTORE POP POP POP PUSH32 0xE6A728CF739C94A7CE1EAE684DA3D74934E160650F47AA6DD39F70DFE005AADF DUP6 DUP6 PUSH1 0x2 DUP1 SLOAD SWAP1 POP PUSH1 0x40 MLOAD PUSH2 0x1028 SWAP4 SWAP3 SWAP2 SWAP1 PUSH2 0x2527 JUMP JUMPDEST PUSH1 0x40 MLOAD DUP1 SWAP2 SUB SWAP1 LOG1 DUP2 SWAP3 POP POP POP SWAP3 SWAP2 POP POP JUMP JUMPDEST PUSH1 0x0 DUP2 DUP1 MLOAD SWAP1 PUSH1 0x20 ADD KECCAK256 SWAP1 POP SWAP2 SWAP1 POP JUMP JUMPDEST PUSH1 0x2 DUP2 DUP2 SLOAD DUP2 LT PUSH2 0x1059 JUMPI INVALID JUMPDEST SWAP1 PUSH1 0x0 MSTORE PUSH1 0x20 PUSH1 0x0 KECCAK256 SWAP1 PUSH1 0x2 MUL ADD PUSH1 0x0 SWAP2 POP SWAP1 POP DUP1 PUSH1 0x0 ADD SLOAD SWAP1 DUP1 PUSH1 0x1 ADD SLOAD SWAP1 POP DUP3 JUMP JUMPDEST PUSH1 0x60 PUSH1 0x0 PUSH20 0xFFFFFFFFFFFFFFFFFFFFFFFFFFFFFFFFFFFFFFFF AND DUP3 PUSH1 0x0 ADD MLOAD PUSH20 0xFFFFFFFFFFFFFFFFFFFFFFFFFFFFFFFFFFFFFFFF AND EQ DUP1 ISZERO PUSH2 0x10DA JUMPI POP PUSH1 0x0 DUP3 PUSH1 0x20 ADD MLOAD PUSH1 0x0 PUSH1 0x2 DUP2 LT PUSH2 0x10CD JUMPI INVALID JUMPDEST PUSH1 0x20 MUL ADD MLOAD PUSH4 0xFFFFFFFF AND EQ JUMPDEST DUP1 ISZERO PUSH2 0x1101 JUMPI POP PUSH1 0x0 DUP3 PUSH1 0x20 ADD MLOAD PUSH1 0x1 PUSH1 0x2 DUP2 LT PUSH2 0x10F4 JUMPI INVALID JUMPDEST PUSH1 0x20 MUL ADD MLOAD PUSH4 0xFFFFFFFF AND EQ JUMPDEST ISZERO PUSH2 0x112E JUMPI PUSH1 0x0 PUSH1 0x40 MLOAD PUSH1 0x20 ADD PUSH2 0x1118 SWAP2 SWAP1 PUSH2 0x24B1 JUMP JUMPDEST PUSH1 0x40 MLOAD PUSH1 0x20 DUP2 DUP4 SUB SUB DUP2 MSTORE SWAP1 PUSH1 0x40 MSTORE SWAP1 POP PUSH2 0x1183 JUMP JUMPDEST DUP2 PUSH1 0x0 ADD MLOAD DUP3 PUSH1 0x20 ADD MLOAD PUSH1 0x0 PUSH1 0x2 DUP2 LT PUSH2 0x1144 JUMPI INVALID JUMPDEST PUSH1 0x20 MUL ADD MLOAD DUP4 PUSH1 0x20 ADD MLOAD PUSH1 0x1 PUSH1 0x2 DUP2 LT PUSH2 0x115A JUMPI INVALID JUMPDEST PUSH1 0x20 MUL ADD MLOAD PUSH1 0x40 MLOAD PUSH1 0x20 ADD PUSH2 0x1171 SWAP4 SWAP3 SWAP2 SWAP1 PUSH2 0x24CC JUMP JUMPDEST PUSH1 0x40 MLOAD PUSH1 0x20 DUP2 DUP4 SUB SUB DUP2 MSTORE SWAP1 PUSH1 0x40 MSTORE SWAP1 POP JUMPDEST SWAP2 SWAP1 POP JUMP JUMPDEST PUSH1 0x0 DUP2 SWAP1 POP JUMPDEST PUSH1 0x2 DUP1 SLOAD SWAP1 POP DUP2 LT ISZERO PUSH2 0x11D6 JUMPI PUSH1 0x2 DUP2 DUP2 SLOAD DUP2 LT PUSH2 0x11A8 JUMPI INVALID JUMPDEST SWAP1 PUSH1 0x0 MSTORE PUSH1 0x20 PUSH1 0x0 KECCAK256 SWAP1 PUSH1 0x2 MUL ADD PUSH1 0x0 DUP1 DUP3 ADD PUSH1 0x0 SWAP1 SSTORE PUSH1 0x1 DUP3 ADD PUSH1 0x0 SWAP1 SSTORE POP POP DUP1 DUP1 PUSH1 0x1 ADD SWAP2 POP POP PUSH2 0x118E JUMP JUMPDEST POP POP JUMP JUMPDEST PUSH1 0x60 PUSH2 0x11ED DUP3 PUSH1 0x0 ADD MLOAD PUSH1 0x20 ADD MLOAD PUSH2 0x107D JUMP JUMPDEST SWAP1 POP PUSH1 0x1 PUSH1 0x0 SWAP1 SLOAD SWAP1 PUSH2 0x100 EXP SWAP1 DIV PUSH20 0xFFFFFFFFFFFFFFFFFFFFFFFFFFFFFFFFFFFFFFFF AND PUSH20 0xFFFFFFFFFFFFFFFFFFFFFFFFFFFFFFFFFFFFFFFF AND PUSH4 0x4359356D DUP3 DUP5 PUSH1 0x0 ADD MLOAD PUSH1 0x0 ADD MLOAD PUSH4 0xFFFFFFFF AND DUP6 PUSH1 0x20 ADD MLOAD PUSH1 0x40 MLOAD DUP5 PUSH4 0xFFFFFFFF AND PUSH1 0xE0 SHL DUP2 MSTORE PUSH1 0x4 ADD PUSH2 0x1260 SWAP4 SWAP3 SWAP2 SWAP1 PUSH2 0x26FC JUMP JUMPDEST PUSH1 0x0 PUSH1 0x40 MLOAD DUP1 DUP4 SUB DUP2 PUSH1 0x0 DUP8 DUP1 EXTCODESIZE ISZERO DUP1 ISZERO PUSH2 0x127A JUMPI PUSH1 0x0 DUP1 REVERT JUMPDEST POP GAS CALL ISZERO DUP1 ISZERO PUSH2 0x128E JUMPI RETURNDATASIZE PUSH1 0x0 DUP1 RETURNDATACOPY RETURNDATASIZE PUSH1 0x0 REVERT JUMPDEST POP POP POP POP POP POP JUMP JUMPDEST PUSH1 0x40 MLOAD DUP1 PUSH1 0x40 ADD PUSH1 0x40 MSTORE DUP1 PUSH1 0x2 SWAP1 PUSH1 0x20 DUP3 MUL DUP1 CODESIZE DUP4 CODECOPY DUP1 DUP3 ADD SWAP2 POP POP SWAP1 POP POP SWAP1 JUMP JUMPDEST PUSH1 0x40 MLOAD DUP1 PUSH2 0x100 ADD PUSH1 0x40 MSTORE DUP1 PUSH1 0x2 SWAP1 JUMPDEST PUSH2 0x12D0 PUSH2 0x1325 JUMP JUMPDEST DUP2 MSTORE PUSH1 0x20 ADD SWAP1 PUSH1 0x1 SWAP1 SUB SWAP1 DUP2 PUSH2 0x12C8 JUMPI SWAP1 POP POP SWAP1 JUMP JUMPDEST PUSH1 0x40 MLOAD DUP1 PUSH1 0x40 ADD PUSH1 0x40 MSTORE DUP1 PUSH1 0x2 SWAP1 PUSH1 0x20 DUP3 MUL DUP1 CODESIZE DUP4 CODECOPY DUP1 DUP3 ADD SWAP2 POP POP SWAP1 POP POP SWAP1 JUMP JUMPDEST PUSH1 0x40 MLOAD DUP1 PUSH1 0x40 ADD PUSH1 0x40 MSTORE DUP1 PUSH1 0x0 DUP1 NOT AND DUP2 MSTORE PUSH1 0x20 ADD PUSH1 0x0 DUP2 MSTORE POP SWAP1 JUMP JUMPDEST PUSH1 0x40 MLOAD DUP1 PUSH1 0x80 ADD PUSH1 0x40 MSTORE DUP1 PUSH1 0x0 PUSH4 0xFFFFFFFF AND DUP2 MSTORE PUSH1 0x20 ADD PUSH2 0x1345 PUSH2 0x134B JUMP JUMPDEST DUP2 MSTORE POP SWAP1 JUMP JUMPDEST PUSH1 0x40 MLOAD DUP1 PUSH1 0x60 ADD PUSH1 0x40 MSTORE DUP1 PUSH1 0x0 PUSH20 0xFFFFFFFFFFFFFFFFFFFFFFFFFFFFFFFFFFFFFFFF AND DUP2 MSTORE PUSH1 0x20 ADD PUSH2 0x137B PUSH2 0x1381 JUMP JUMPDEST DUP2 MSTORE POP SWAP1 JUMP JUMPDEST PUSH1 0x40 MLOAD DUP1 PUSH1 0x40 ADD PUSH1 0x40 MSTORE DUP1 PUSH1 0x2 SWAP1 PUSH1 0x20 DUP3 MUL DUP1 CODESIZE DUP4 CODECOPY DUP1 DUP3 ADD SWAP2 POP POP SWAP1 POP POP SWAP1 JUMP JUMPDEST PUSH1 0x0 DUP2 CALLDATALOAD SWAP1 POP PUSH2 0x13B2 DUP2 PUSH2 0x2BF8 JUMP JUMPDEST SWAP3 SWAP2 POP POP JUMP JUMPDEST PUSH1 0x0 DUP3 PUSH1 0x1F DUP4 ADD SLT PUSH2 0x13C9 JUMPI PUSH1 0x0 DUP1 REVERT JUMPDEST PUSH1 0x2 PUSH2 0x13DC PUSH2 0x13D7 DUP3 PUSH2 0x28AE JUMP JUMPDEST PUSH2 0x2881 JUMP JUMPDEST SWAP2 POP DUP2 DUP4 DUP6 PUSH1 0x20 DUP5 MUL DUP3 ADD GT ISZERO PUSH2 0x13F2 JUMPI PUSH1 0x0 DUP1 REVERT JUMPDEST PUSH1 0x0 JUMPDEST DUP4 DUP2 LT ISZERO PUSH2 0x1422 JUMPI DUP2 PUSH2 0x1408 DUP9 DUP3 PUSH2 0x1670 JUMP JUMPDEST DUP5 MSTORE PUSH1 0x20 DUP5 ADD SWAP4 POP PUSH1 0x20 DUP4 ADD SWAP3 POP POP PUSH1 0x1 DUP2 ADD SWAP1 POP PUSH2 0x13F5 JUMP JUMPDEST POP POP POP POP SWAP3 SWAP2 POP POP JUMP JUMPDEST PUSH1 0x0 DUP3 PUSH1 0x1F DUP4 ADD SLT PUSH2 0x143D JUMPI PUSH1 0x0 DUP1 REVERT JUMPDEST DUP2 CALLDATALOAD PUSH2 0x1450 PUSH2 0x144B DUP3 PUSH2 0x28D0 JUMP JUMPDEST PUSH2 0x2881 JUMP JUMPDEST SWAP2 POP DUP2 DUP2 DUP4 MSTORE PUSH1 0x20 DUP5 ADD SWAP4 POP PUSH1 0x20 DUP2 ADD SWAP1 POP DUP4 DUP6 PUSH1 0x20 DUP5 MUL DUP3 ADD GT ISZERO PUSH2 0x1475 JUMPI PUSH1 0x0 DUP1 REVERT JUMPDEST PUSH1 0x0 JUMPDEST DUP4 DUP2 LT ISZERO PUSH2 0x14A5 JUMPI DUP2 PUSH2 0x148B DUP9 DUP3 PUSH2 0x165B JUMP JUMPDEST DUP5 MSTORE PUSH1 0x20 DUP5 ADD SWAP4 POP PUSH1 0x20 DUP4 ADD SWAP3 POP POP PUSH1 0x1 DUP2 ADD SWAP1 POP PUSH2 0x1478 JUMP JUMPDEST POP POP POP POP SWAP3 SWAP2 POP POP JUMP JUMPDEST PUSH1 0x0 DUP1 DUP4 PUSH1 0x1F DUP5 ADD SLT PUSH2 0x14C1 JUMPI PUSH1 0x0 DUP1 REVERT JUMPDEST DUP3 CALLDATALOAD SWAP1 POP PUSH8 0xFFFFFFFFFFFFFFFF DUP2 GT ISZERO PUSH2 0x14DA JUMPI PUSH1 0x0 DUP1 REVERT JUMPDEST PUSH1 0x20 DUP4 ADD SWAP2 POP DUP4 PUSH1 0x20 DUP3 MUL DUP4 ADD GT ISZERO PUSH2 0x14F2 JUMPI PUSH1 0x0 DUP1 REVERT JUMPDEST SWAP3 POP SWAP3 SWAP1 POP JUMP JUMPDEST PUSH1 0x0 DUP3 PUSH1 0x1F DUP4 ADD SLT PUSH2 0x150A JUMPI PUSH1 0x0 DUP1 REVERT JUMPDEST PUSH1 0x2 PUSH2 0x151D PUSH2 0x1518 DUP3 PUSH2 0x28F8 JUMP JUMPDEST PUSH2 0x2881 JUMP JUMPDEST SWAP2 POP DUP2 DUP4 PUSH1 0x0 JUMPDEST DUP4 DUP2 LT ISZERO PUSH2 0x1554 JUMPI DUP2 CALLDATALOAD DUP7 ADD PUSH2 0x153A DUP9 DUP3 PUSH2 0x172D JUMP JUMPDEST DUP5 MSTORE PUSH1 0x20 DUP5 ADD SWAP4 POP PUSH1 0x20 DUP4 ADD SWAP3 POP POP PUSH1 0x1 DUP2 ADD SWAP1 POP PUSH2 0x1524 JUMP JUMPDEST POP POP POP POP SWAP3 SWAP2 POP POP JUMP JUMPDEST PUSH1 0x0 DUP3 PUSH1 0x1F DUP4 ADD SLT PUSH2 0x156F JUMPI PUSH1 0x0 DUP1 REVERT JUMPDEST PUSH1 0x2 PUSH2 0x1582 PUSH2 0x157D DUP3 PUSH2 0x291A JUMP JUMPDEST PUSH2 0x2881 JUMP JUMPDEST SWAP2 POP DUP2 DUP4 DUP6 PUSH1 0x20 DUP5 MUL DUP3 ADD GT ISZERO PUSH2 0x1598 JUMPI PUSH1 0x0 DUP1 REVERT JUMPDEST PUSH1 0x0 JUMPDEST DUP4 DUP2 LT ISZERO PUSH2 0x15C8 JUMPI DUP2 PUSH2 0x15AE DUP9 DUP3 PUSH2 0x197E JUMP JUMPDEST DUP5 MSTORE PUSH1 0x20 DUP5 ADD SWAP4 POP PUSH1 0x20 DUP4 ADD SWAP3 POP POP PUSH1 0x1 DUP2 ADD SWAP1 POP PUSH2 0x159B JUMP JUMPDEST POP POP POP POP SWAP3 SWAP2 POP POP JUMP JUMPDEST PUSH1 0x0 DUP3 PUSH1 0x1F DUP4 ADD SLT PUSH2 0x15E3 JUMPI PUSH1 0x0 DUP1 REVERT JUMPDEST PUSH1 0x2 PUSH2 0x15F6 PUSH2 0x15F1 DUP3 PUSH2 0x291A JUMP JUMPDEST PUSH2 0x2881 JUMP JUMPDEST SWAP2 POP DUP2 DUP4 DUP6 PUSH1 0x20 DUP5 MUL DUP3 ADD GT ISZERO PUSH2 0x160C JUMPI PUSH1 0x0 DUP1 REVERT JUMPDEST PUSH1 0x0 JUMPDEST DUP4 DUP2 LT ISZERO PUSH2 0x163C JUMPI DUP2 PUSH2 0x1622 DUP9 DUP3 PUSH2 0x1993 JUMP JUMPDEST DUP5 MSTORE PUSH1 0x20 DUP5 ADD SWAP4 POP PUSH1 0x20 DUP4 ADD SWAP3 POP POP PUSH1 0x1 DUP2 ADD SWAP1 POP PUSH2 0x160F JUMP JUMPDEST POP POP POP POP SWAP3 SWAP2 POP POP JUMP JUMPDEST PUSH1 0x0 DUP2 MLOAD SWAP1 POP PUSH2 0x1655 DUP2 PUSH2 0x2C0F JUMP JUMPDEST SWAP3 SWAP2 POP POP JUMP JUMPDEST PUSH1 0x0 DUP2 CALLDATALOAD SWAP1 POP PUSH2 0x166A DUP2 PUSH2 0x2C26 JUMP JUMPDEST SWAP3 SWAP2 POP POP JUMP JUMPDEST PUSH1 0x0 DUP2 MLOAD SWAP1 POP PUSH2 0x167F DUP2 PUSH2 0x2C26 JUMP JUMPDEST SWAP3 SWAP2 POP POP JUMP JUMPDEST PUSH1 0x0 DUP3 PUSH1 0x1F DUP4 ADD SLT PUSH2 0x1696 JUMPI PUSH1 0x0 DUP1 REVERT JUMPDEST DUP2 CALLDATALOAD PUSH2 0x16A9 PUSH2 0x16A4 DUP3 PUSH2 0x293C JUMP JUMPDEST PUSH2 0x2881 JUMP JUMPDEST SWAP2 POP DUP1 DUP3 MSTORE PUSH1 0x20 DUP4 ADD PUSH1 0x20 DUP4 ADD DUP6 DUP4 DUP4 ADD GT ISZERO PUSH2 0x16C5 JUMPI PUSH1 0x0 DUP1 REVERT JUMPDEST PUSH2 0x16D0 DUP4 DUP3 DUP5 PUSH2 0x2B9B JUMP JUMPDEST POP POP POP SWAP3 SWAP2 POP POP JUMP JUMPDEST PUSH1 0x0 DUP3 PUSH1 0x1F DUP4 ADD SLT PUSH2 0x16EA JUMPI PUSH1 0x0 DUP1 REVERT JUMPDEST DUP2 CALLDATALOAD PUSH2 0x16FD PUSH2 0x16F8 DUP3 PUSH2 0x2968 JUMP JUMPDEST PUSH2 0x2881 JUMP JUMPDEST SWAP2 POP DUP1 DUP3 MSTORE PUSH1 0x20 DUP4 ADD PUSH1 0x20 DUP4 ADD DUP6 DUP4 DUP4 ADD GT ISZERO PUSH2 0x1719 JUMPI PUSH1 0x0 DUP1 REVERT JUMPDEST PUSH2 0x1724 DUP4 DUP3 DUP5 PUSH2 0x2B9B JUMP JUMPDEST POP POP POP SWAP3 SWAP2 POP POP JUMP JUMPDEST PUSH1 0x0 PUSH1 0xA0 DUP3 DUP5 SUB SLT ISZERO PUSH2 0x173F JUMPI PUSH1 0x0 DUP1 REVERT JUMPDEST PUSH2 0x1749 PUSH1 0x40 PUSH2 0x2881 JUMP JUMPDEST SWAP1 POP PUSH1 0x0 PUSH2 0x1759 DUP5 DUP3 DUP6 ADD PUSH2 0x180D JUMP JUMPDEST PUSH1 0x0 DUP4 ADD MSTORE POP PUSH1 0x80 DUP3 ADD CALLDATALOAD PUSH8 0xFFFFFFFFFFFFFFFF DUP2 GT ISZERO PUSH2 0x1779 JUMPI PUSH1 0x0 DUP1 REVERT JUMPDEST PUSH2 0x1785 DUP5 DUP3 DUP6 ADD PUSH2 0x142C JUMP JUMPDEST PUSH1 0x20 DUP4 ADD MSTORE POP SWAP3 SWAP2 POP POP JUMP JUMPDEST PUSH1 0x0 PUSH1 0x40 DUP3 DUP5 SUB SLT ISZERO PUSH2 0x17A3 JUMPI PUSH1 0x0 DUP1 REVERT JUMPDEST PUSH2 0x17AD PUSH1 0x40 PUSH2 0x2881 JUMP JUMPDEST SWAP1 POP PUSH1 0x0 DUP3 ADD CALLDATALOAD PUSH8 0xFFFFFFFFFFFFFFFF DUP2 GT ISZERO PUSH2 0x17C9 JUMPI PUSH1 0x0 DUP1 REVERT JUMPDEST PUSH2 0x17D5 DUP5 DUP3 DUP6 ADD PUSH2 0x1685 JUMP JUMPDEST PUSH1 0x0 DUP4 ADD MSTORE POP PUSH1 0x20 DUP3 ADD CALLDATALOAD PUSH8 0xFFFFFFFFFFFFFFFF DUP2 GT ISZERO PUSH2 0x17F5 JUMPI PUSH1 0x0 DUP1 REVERT JUMPDEST PUSH2 0x1801 DUP5 DUP3 DUP6 ADD PUSH2 0x18F1 JUMP JUMPDEST PUSH1 0x20 DUP4 ADD MSTORE POP SWAP3 SWAP2 POP POP JUMP JUMPDEST PUSH1 0x0 PUSH1 0x80 DUP3 DUP5 SUB SLT ISZERO PUSH2 0x181F JUMPI PUSH1 0x0 DUP1 REVERT JUMPDEST PUSH2 0x1829 PUSH1 0x40 PUSH2 0x2881 JUMP JUMPDEST SWAP1 POP PUSH1 0x0 PUSH2 0x1839 DUP5 DUP3 DUP6 ADD PUSH2 0x197E JUMP JUMPDEST PUSH1 0x0 DUP4 ADD MSTORE POP PUSH1 0x20 PUSH2 0x184D DUP5 DUP3 DUP6 ADD PUSH2 0x1859 JUMP JUMPDEST PUSH1 0x20 DUP4 ADD MSTORE POP SWAP3 SWAP2 POP POP JUMP JUMPDEST PUSH1 0x0 PUSH1 0x60 DUP3 DUP5 SUB SLT ISZERO PUSH2 0x186B JUMPI PUSH1 0x0 DUP1 REVERT JUMPDEST PUSH2 0x1875 PUSH1 0x40 PUSH2 0x2881 JUMP JUMPDEST SWAP1 POP PUSH1 0x0 PUSH2 0x1885 DUP5 DUP3 DUP6 ADD PUSH2 0x13A3 JUMP JUMPDEST PUSH1 0x0 DUP4 ADD MSTORE POP PUSH1 0x20 PUSH2 0x1899 DUP5 DUP3 DUP6 ADD PUSH2 0x155E JUMP JUMPDEST PUSH1 0x20 DUP4 ADD MSTORE POP SWAP3 SWAP2 POP POP JUMP JUMPDEST PUSH1 0x0 PUSH1 0x60 DUP3 DUP5 SUB SLT ISZERO PUSH2 0x18B7 JUMPI PUSH1 0x0 DUP1 REVERT JUMPDEST PUSH2 0x18C1 PUSH1 0x40 PUSH2 0x2881 JUMP JUMPDEST SWAP1 POP PUSH1 0x0 PUSH2 0x18D1 DUP5 DUP3 DUP6 ADD PUSH2 0x13A3 JUMP JUMPDEST PUSH1 0x0 DUP4 ADD MSTORE POP PUSH1 0x20 PUSH2 0x18E5 DUP5 DUP3 DUP6 ADD PUSH2 0x155E JUMP JUMPDEST PUSH1 0x20 DUP4 ADD MSTORE POP SWAP3 SWAP2 POP POP JUMP JUMPDEST PUSH1 0x0 PUSH1 0x60 DUP3 DUP5 SUB SLT ISZERO PUSH2 0x1903 JUMPI PUSH1 0x0 DUP1 REVERT JUMPDEST PUSH2 0x190D PUSH1 0x60 PUSH2 0x2881 JUMP JUMPDEST SWAP1 POP PUSH1 0x0 PUSH2 0x191D DUP5 DUP3 DUP6 ADD PUSH2 0x1969 JUMP JUMPDEST PUSH1 0x0 DUP4 ADD MSTORE POP PUSH1 0x20 PUSH2 0x1931 DUP5 DUP3 DUP6 ADD PUSH2 0x1969 JUMP JUMPDEST PUSH1 0x20 DUP4 ADD MSTORE POP PUSH1 0x40 DUP3 ADD CALLDATALOAD PUSH8 0xFFFFFFFFFFFFFFFF DUP2 GT ISZERO PUSH2 0x1951 JUMPI PUSH1 0x0 DUP1 REVERT JUMPDEST PUSH2 0x195D DUP5 DUP3 DUP6 ADD PUSH2 0x142C JUMP JUMPDEST PUSH1 0x40 DUP4 ADD MSTORE POP SWAP3 SWAP2 POP POP JUMP JUMPDEST PUSH1 0x0 DUP2 CALLDATALOAD SWAP1 POP PUSH2 0x1978 DUP2 PUSH2 0x2C3D JUMP JUMPDEST SWAP3 SWAP2 POP POP JUMP JUMPDEST PUSH1 0x0 DUP2 CALLDATALOAD SWAP1 POP PUSH2 0x198D DUP2 PUSH2 0x2C54 JUMP JUMPDEST SWAP3 SWAP2 POP POP JUMP JUMPDEST PUSH1 0x0 DUP2 MLOAD SWAP1 POP PUSH2 0x19A2 DUP2 PUSH2 0x2C54 JUMP JUMPDEST SWAP3 SWAP2 POP POP JUMP JUMPDEST PUSH1 0x0 PUSH1 0x40 DUP3 DUP5 SUB SLT ISZERO PUSH2 0x19BA JUMPI PUSH1 0x0 DUP1 REVERT JUMPDEST PUSH1 0x0 PUSH2 0x19C8 DUP5 DUP3 DUP6 ADD PUSH2 0x13B8 JUMP JUMPDEST SWAP2 POP POP SWAP3 SWAP2 POP POP JUMP JUMPDEST PUSH1 0x0 DUP1 PUSH1 0x20 DUP4 DUP6 SUB SLT ISZERO PUSH2 0x19E4 JUMPI PUSH1 0x0 DUP1 REVERT JUMPDEST PUSH1 0x0 DUP4 ADD CALLDATALOAD PUSH8 0xFFFFFFFFFFFFFFFF DUP2 GT ISZERO PUSH2 0x19FE JUMPI PUSH1 0x0 DUP1 REVERT JUMPDEST PUSH2 0x1A0A DUP6 DUP3 DUP7 ADD PUSH2 0x14AF JUMP JUMPDEST SWAP3 POP SWAP3 POP POP SWAP3 POP SWAP3 SWAP1 POP JUMP JUMPDEST PUSH1 0x0 PUSH1 0x20 DUP3 DUP5 SUB SLT ISZERO PUSH2 0x1A28 JUMPI PUSH1 0x0 DUP1 REVERT JUMPDEST PUSH1 0x0 PUSH2 0x1A36 DUP5 DUP3 DUP6 ADD PUSH2 0x1646 JUMP JUMPDEST SWAP2 POP POP SWAP3 SWAP2 POP POP JUMP JUMPDEST PUSH1 0x0 PUSH1 0x20 DUP3 DUP5 SUB SLT ISZERO PUSH2 0x1A51 JUMPI PUSH1 0x0 DUP1 REVERT JUMPDEST PUSH1 0x0 PUSH2 0x1A5F DUP5 DUP3 DUP6 ADD PUSH2 0x1670 JUMP JUMPDEST SWAP2 POP POP SWAP3 SWAP2 POP POP JUMP JUMPDEST PUSH1 0x0 DUP1 PUSH1 0x60 DUP4 DUP6 SUB SLT ISZERO PUSH2 0x1A7B JUMPI PUSH1 0x0 DUP1 REVERT JUMPDEST PUSH1 0x0 PUSH2 0x1A89 DUP6 DUP3 DUP7 ADD PUSH2 0x1670 JUMP JUMPDEST SWAP3 POP POP PUSH1 0x20 PUSH2 0x1A9A DUP6 DUP3 DUP7 ADD PUSH2 0x15D2 JUMP JUMPDEST SWAP2 POP POP SWAP3 POP SWAP3 SWAP1 POP JUMP JUMPDEST PUSH1 0x0 PUSH1 0x20 DUP3 DUP5 SUB SLT ISZERO PUSH2 0x1AB6 JUMPI PUSH1 0x0 DUP1 REVERT JUMPDEST PUSH1 0x0 DUP3 ADD CALLDATALOAD PUSH8 0xFFFFFFFFFFFFFFFF DUP2 GT ISZERO PUSH2 0x1AD0 JUMPI PUSH1 0x0 DUP1 REVERT JUMPDEST PUSH2 0x1ADC DUP5 DUP3 DUP6 ADD PUSH2 0x16D9 JUMP JUMPDEST SWAP2 POP POP SWAP3 SWAP2 POP POP JUMP JUMPDEST PUSH1 0x0 DUP1 PUSH1 0x40 DUP4 DUP6 SUB SLT ISZERO PUSH2 0x1AF8 JUMPI PUSH1 0x0 DUP1 REVERT JUMPDEST PUSH1 0x0 DUP4 ADD CALLDATALOAD PUSH8 0xFFFFFFFFFFFFFFFF DUP2 GT ISZERO PUSH2 0x1B12 JUMPI PUSH1 0x0 DUP1 REVERT JUMPDEST PUSH2 0x1B1E DUP6 DUP3 DUP7 ADD PUSH2 0x16D9 JUMP JUMPDEST SWAP3 POP POP PUSH1 0x20 DUP4 ADD CALLDATALOAD PUSH8 0xFFFFFFFFFFFFFFFF DUP2 GT ISZERO PUSH2 0x1B3B JUMPI PUSH1 0x0 DUP1 REVERT JUMPDEST PUSH2 0x1B47 DUP6 DUP3 DUP7 ADD PUSH2 0x16D9 JUMP JUMPDEST SWAP2 POP POP SWAP3 POP SWAP3 SWAP1 POP JUMP JUMPDEST PUSH1 0x0 PUSH1 0x20 DUP3 DUP5 SUB SLT ISZERO PUSH2 0x1B63 JUMPI PUSH1 0x0 DUP1 REVERT JUMPDEST PUSH1 0x0 DUP3 ADD CALLDATALOAD PUSH8 0xFFFFFFFFFFFFFFFF DUP2 GT ISZERO PUSH2 0x1B7D JUMPI PUSH1 0x0 DUP1 REVERT JUMPDEST PUSH2 0x1B89 DUP5 DUP3 DUP6 ADD PUSH2 0x1791 JUMP JUMPDEST SWAP2 POP POP SWAP3 SWAP2 POP POP JUMP JUMPDEST PUSH1 0x0 DUP1 PUSH1 0x40 DUP4 DUP6 SUB SLT ISZERO PUSH2 0x1BA5 JUMPI PUSH1 0x0 DUP1 REVERT JUMPDEST PUSH1 0x0 DUP4 ADD CALLDATALOAD PUSH8 0xFFFFFFFFFFFFFFFF DUP2 GT ISZERO PUSH2 0x1BBF JUMPI PUSH1 0x0 DUP1 REVERT JUMPDEST PUSH2 0x1BCB DUP6 DUP3 DUP7 ADD PUSH2 0x1791 JUMP JUMPDEST SWAP3 POP POP PUSH1 0x20 DUP4 ADD CALLDATALOAD PUSH8 0xFFFFFFFFFFFFFFFF DUP2 GT ISZERO PUSH2 0x1BE8 JUMPI PUSH1 0x0 DUP1 REVERT JUMPDEST PUSH2 0x1BF4 DUP6 DUP3 DUP7 ADD PUSH2 0x1791 JUMP JUMPDEST SWAP2 POP POP SWAP3 POP SWAP3 SWAP1 POP JUMP JUMPDEST PUSH1 0x0 DUP1 PUSH1 0x0 PUSH1 0x60 DUP5 DUP7 SUB SLT ISZERO PUSH2 0x1C13 JUMPI PUSH1 0x0 DUP1 REVERT JUMPDEST PUSH1 0x0 DUP5 ADD CALLDATALOAD PUSH8 0xFFFFFFFFFFFFFFFF DUP2 GT ISZERO PUSH2 0x1C2D JUMPI PUSH1 0x0 DUP1 REVERT JUMPDEST PUSH2 0x1C39 DUP7 DUP3 DUP8 ADD PUSH2 0x1791 JUMP JUMPDEST SWAP4 POP POP PUSH1 0x20 DUP5 ADD CALLDATALOAD PUSH8 0xFFFFFFFFFFFFFFFF DUP2 GT ISZERO PUSH2 0x1C56 JUMPI PUSH1 0x0 DUP1 REVERT JUMPDEST PUSH2 0x1C62 DUP7 DUP3 DUP8 ADD PUSH2 0x1791 JUMP JUMPDEST SWAP3 POP POP PUSH1 0x40 DUP5 ADD CALLDATALOAD PUSH8 0xFFFFFFFFFFFFFFFF DUP2 GT ISZERO PUSH2 0x1C7F JUMPI PUSH1 0x0 DUP1 REVERT JUMPDEST PUSH2 0x1C8B DUP7 DUP3 DUP8 ADD PUSH2 0x14F9 JUMP JUMPDEST SWAP2 POP POP SWAP3 POP SWAP3 POP SWAP3 JUMP JUMPDEST PUSH1 0x0 PUSH1 0x60 DUP3 DUP5 SUB SLT ISZERO PUSH2 0x1CA7 JUMPI PUSH1 0x0 DUP1 REVERT JUMPDEST PUSH1 0x0 PUSH2 0x1CB5 DUP5 DUP3 DUP6 ADD PUSH2 0x18A5 JUMP JUMPDEST SWAP2 POP POP SWAP3 SWAP2 POP POP JUMP JUMPDEST PUSH1 0x0 PUSH1 0x20 DUP3 DUP5 SUB SLT ISZERO PUSH2 0x1CD0 JUMPI PUSH1 0x0 DUP1 REVERT JUMPDEST PUSH1 0x0 PUSH2 0x1CDE DUP5 DUP3 DUP6 ADD PUSH2 0x1969 JUMP JUMPDEST SWAP2 POP POP SWAP3 SWAP2 POP POP JUMP JUMPDEST PUSH1 0x0 PUSH2 0x1CF3 DUP4 DUP4 PUSH2 0x1F4B JUMP JUMPDEST PUSH1 0x20 DUP4 ADD SWAP1 POP SWAP3 SWAP2 POP POP JUMP JUMPDEST PUSH1 0x0 PUSH2 0x1D0C DUP5 DUP5 DUP5 PUSH2 0x1F69 JUMP JUMPDEST SWAP1 POP SWAP4 SWAP3 POP POP POP JUMP JUMPDEST PUSH1 0x0 PUSH2 0x1D21 DUP4 DUP4 PUSH2 0x23E9 JUMP JUMPDEST PUSH1 0x80 DUP4 ADD SWAP1 POP SWAP3 SWAP2 POP POP JUMP JUMPDEST PUSH1 0x0 PUSH2 0x1D39 DUP4 DUP4 PUSH2 0x247C JUMP JUMPDEST PUSH1 0x20 DUP4 ADD SWAP1 POP SWAP3 SWAP2 POP POP JUMP JUMPDEST PUSH2 0x1D4E DUP2 PUSH2 0x2B27 JUMP JUMPDEST DUP3 MSTORE POP POP JUMP JUMPDEST PUSH2 0x1D5D DUP2 PUSH2 0x2B27 JUMP JUMPDEST DUP3 MSTORE POP POP JUMP JUMPDEST PUSH1 0x0 PUSH2 0x1D6E DUP3 PUSH2 0x29CC JUMP JUMPDEST PUSH2 0x1D78 DUP2 DUP6 PUSH2 0x2A4F JUMP JUMPDEST SWAP4 POP PUSH2 0x1D83 DUP4 PUSH2 0x2994 JUMP JUMPDEST DUP1 PUSH1 0x0 JUMPDEST DUP4 DUP2 LT ISZERO PUSH2 0x1DB4 JUMPI DUP2 MLOAD PUSH2 0x1D9B DUP9 DUP3 PUSH2 0x1CE7 JUMP JUMPDEST SWAP8 POP PUSH2 0x1DA6 DUP4 PUSH2 0x2A0E JUMP JUMPDEST SWAP3 POP POP PUSH1 0x1 DUP2 ADD SWAP1 POP PUSH2 0x1D87 JUMP JUMPDEST POP DUP6 SWAP4 POP POP POP POP SWAP3 SWAP2 POP POP JUMP JUMPDEST PUSH1 0x0 PUSH2 0x1DCD DUP4 DUP6 PUSH2 0x2A60 JUMP JUMPDEST SWAP4 POP DUP4 PUSH1 0x20 DUP5 MUL DUP6 ADD PUSH2 0x1DDF DUP5 PUSH2 0x29A4 JUMP JUMPDEST DUP1 PUSH1 0x0 JUMPDEST DUP8 DUP2 LT ISZERO PUSH2 0x1E25 JUMPI DUP5 DUP5 SUB DUP10 MSTORE PUSH2 0x1DFA DUP3 DUP5 PUSH2 0x2AD0 JUMP JUMPDEST PUSH2 0x1E05 DUP7 DUP3 DUP5 PUSH2 0x1CFF JUMP JUMPDEST SWAP6 POP PUSH2 0x1E10 DUP5 PUSH2 0x2A1B JUMP JUMPDEST SWAP4 POP PUSH1 0x20 DUP12 ADD SWAP11 POP POP POP PUSH1 0x1 DUP2 ADD SWAP1 POP PUSH2 0x1DE3 JUMP JUMPDEST POP DUP3 SWAP8 POP DUP8 SWAP5 POP POP POP POP POP SWAP4 SWAP3 POP POP POP JUMP JUMPDEST PUSH2 0x1E40 DUP2 PUSH2 0x29D7 JUMP JUMPDEST PUSH2 0x1E4A DUP2 DUP5 PUSH2 0x2A71 JUMP JUMPDEST SWAP3 POP PUSH2 0x1E55 DUP3 PUSH2 0x29AE JUMP JUMPDEST DUP1 PUSH1 0x0 JUMPDEST DUP4 DUP2 LT ISZERO PUSH2 0x1E86 JUMPI DUP2 MLOAD PUSH2 0x1E6D DUP8 DUP3 PUSH2 0x1D15 JUMP JUMPDEST SWAP7 POP PUSH2 0x1E78 DUP4 PUSH2 0x2A28 JUMP JUMPDEST SWAP3 POP POP PUSH1 0x1 DUP2 ADD SWAP1 POP PUSH2 0x1E59 JUMP JUMPDEST POP POP POP POP POP POP JUMP JUMPDEST PUSH2 0x1E97 DUP2 PUSH2 0x29ED JUMP JUMPDEST PUSH2 0x1EA1 DUP2 DUP5 PUSH2 0x2A87 JUMP JUMPDEST SWAP3 POP PUSH2 0x1EAC DUP3 PUSH2 0x29C2 JUMP JUMPDEST DUP1 PUSH1 0x0 JUMPDEST DUP4 DUP2 LT ISZERO PUSH2 0x1EDD JUMPI DUP2 MLOAD PUSH2 0x1EC4 DUP8 DUP3 PUSH2 0x1D2D JUMP JUMPDEST SWAP7 POP PUSH2 0x1ECF DUP4 PUSH2 0x2A42 JUMP JUMPDEST SWAP3 POP POP PUSH1 0x1 DUP2 ADD SWAP1 POP PUSH2 0x1EB0 JUMP JUMPDEST POP POP POP POP POP POP JUMP JUMPDEST PUSH2 0x1EEE DUP2 PUSH2 0x29E2 JUMP JUMPDEST PUSH2 0x1EF8 DUP2 DUP5 PUSH2 0x2A7C JUMP JUMPDEST SWAP3 POP PUSH2 0x1F03 DUP3 PUSH2 0x29B8 JUMP JUMPDEST DUP1 PUSH1 0x0 JUMPDEST DUP4 DUP2 LT ISZERO PUSH2 0x1F34 JUMPI DUP2 MLOAD PUSH2 0x1F1B DUP8 DUP3 PUSH2 0x1D2D JUMP JUMPDEST SWAP7 POP PUSH2 0x1F26 DUP4 PUSH2 0x2A35 JUMP JUMPDEST SWAP3 POP POP PUSH1 0x1 DUP2 ADD SWAP1 POP PUSH2 0x1F07 JUMP JUMPDEST POP POP POP POP POP POP JUMP JUMPDEST PUSH2 0x1F45 DUP2 PUSH2 0x2B39 JUMP JUMPDEST DUP3 MSTORE POP POP JUMP JUMPDEST PUSH2 0x1F54 DUP2 PUSH2 0x2B45 JUMP JUMPDEST DUP3 MSTORE POP POP JUMP JUMPDEST PUSH2 0x1F63 DUP2 PUSH2 0x2B45 JUMP JUMPDEST DUP3 MSTORE POP POP JUMP JUMPDEST PUSH1 0x0 PUSH2 0x1F75 DUP4 DUP6 PUSH2 0x2A92 JUMP JUMPDEST SWAP4 POP PUSH2 0x1F82 DUP4 DUP6 DUP5 PUSH2 0x2B9B JUMP JUMPDEST PUSH2 0x1F8B DUP4 PUSH2 0x2BE7 JUMP JUMPDEST DUP5 ADD SWAP1 POP SWAP4 SWAP3 POP POP POP JUMP JUMPDEST PUSH1 0x0 PUSH2 0x1FA1 DUP3 PUSH2 0x2A03 JUMP JUMPDEST PUSH2 0x1FAB DUP2 DUP6 PUSH2 0x2AA3 JUMP JUMPDEST SWAP4 POP PUSH2 0x1FBB DUP2 DUP6 PUSH1 0x20 DUP7 ADD PUSH2 0x2BAA JUMP JUMPDEST PUSH2 0x1FC4 DUP2 PUSH2 0x2BE7 JUMP JUMPDEST DUP5 ADD SWAP2 POP POP SWAP3 SWAP2 POP POP JUMP JUMPDEST PUSH1 0x0 PUSH2 0x1FDA DUP3 PUSH2 0x2A03 JUMP JUMPDEST PUSH2 0x1FE4 DUP2 DUP6 PUSH2 0x2AB4 JUMP JUMPDEST SWAP4 POP PUSH2 0x1FF4 DUP2 DUP6 PUSH1 0x20 DUP7 ADD PUSH2 0x2BAA JUMP JUMPDEST DUP1 DUP5 ADD SWAP2 POP POP SWAP3 SWAP2 POP POP JUMP JUMPDEST PUSH1 0x0 PUSH2 0x200B DUP3 PUSH2 0x29F8 JUMP JUMPDEST PUSH2 0x2015 DUP2 DUP6 PUSH2 0x2AA3 JUMP JUMPDEST SWAP4 POP PUSH2 0x2025 DUP2 DUP6 PUSH1 0x20 DUP7 ADD PUSH2 0x2BAA JUMP JUMPDEST PUSH2 0x202E DUP2 PUSH2 0x2BE7 JUMP JUMPDEST DUP5 ADD SWAP2 POP POP SWAP3 SWAP2 POP POP JUMP JUMPDEST PUSH1 0x0 PUSH2 0x2046 PUSH1 0x30 DUP4 PUSH2 0x2ABF JUMP JUMPDEST SWAP2 POP PUSH32 0x5365636F6E6420737570706C6965642073746F7261676520736C6F7420696E64 PUSH1 0x0 DUP4 ADD MSTORE PUSH32 0x657820697320696E636F72726563742100000000000000000000000000000000 PUSH1 0x20 DUP4 ADD MSTORE PUSH1 0x40 DUP3 ADD SWAP1 POP SWAP2 SWAP1 POP JUMP JUMPDEST PUSH1 0x0 PUSH2 0x20AC PUSH1 0x27 DUP4 PUSH2 0x2ABF JUMP JUMPDEST SWAP2 POP PUSH32 0x5F7472616E736974696F6E30206D757374206265206C61737420696E20697473 PUSH1 0x0 DUP4 ADD MSTORE PUSH32 0x20626C6F636B2E00000000000000000000000000000000000000000000000000 PUSH1 0x20 DUP4 ADD MSTORE PUSH1 0x40 DUP3 ADD SWAP1 POP SWAP2 SWAP1 POP JUMP JUMPDEST PUSH1 0x0 PUSH2 0x2112 PUSH1 0x40 DUP4 PUSH2 0x2ABF JUMP JUMPDEST SWAP2 POP PUSH32 0x496620746865207072655374617465526F6F7420697320696E76616C69642C20 PUSH1 0x0 DUP4 ADD MSTORE PUSH32 0x7468656E2070726F7665207468617420696E76616C696420696E737465616421 PUSH1 0x20 DUP4 ADD MSTORE PUSH1 0x40 DUP3 ADD SWAP1 POP SWAP2 SWAP1 POP JUMP JUMPDEST PUSH1 0x0 PUSH2 0x2178 PUSH1 0x27 DUP4 PUSH2 0x2ABF JUMP JUMPDEST SWAP2 POP PUSH32 0x546865207365636F6E64207472616E736974696F6E206D75737420626520696E PUSH1 0x0 DUP4 ADD MSTORE PUSH32 0x636C756465642100000000000000000000000000000000000000000000000000 PUSH1 0x20 DUP4 ADD MSTORE PUSH1 0x40 DUP3 ADD SWAP1 POP SWAP2 SWAP1 POP JUMP JUMPDEST PUSH1 0x0 PUSH2 0x21DE PUSH1 0x26 DUP4 PUSH2 0x2ABF JUMP JUMPDEST SWAP2 POP PUSH32 0x546865206669727374207472616E736974696F6E206D75737420626520696E63 PUSH1 0x0 DUP4 ADD MSTORE PUSH32 0x6C75646564210000000000000000000000000000000000000000000000000000 PUSH1 0x20 DUP4 ADD MSTORE PUSH1 0x40 DUP3 ADD SWAP1 POP SWAP2 SWAP1 POP JUMP JUMPDEST PUSH1 0x0 PUSH2 0x2244 PUSH1 0x2F DUP4 PUSH2 0x2ABF JUMP JUMPDEST SWAP2 POP PUSH32 0x466972737420737570706C6965642073746F7261676520736C6F7420696E6465 PUSH1 0x0 DUP4 ADD MSTORE PUSH32 0x7820697320696E636F7272656374210000000000000000000000000000000000 PUSH1 0x20 DUP4 ADD MSTORE PUSH1 0x40 DUP3 ADD SWAP1 POP SWAP2 SWAP1 POP JUMP JUMPDEST PUSH1 0x0 PUSH2 0x22AA PUSH1 0x2A DUP4 PUSH2 0x2ABF JUMP JUMPDEST SWAP2 POP PUSH32 0x426C6F636B73206D757374206265206F6E6520616674657220616E6F74686572 PUSH1 0x0 DUP4 ADD MSTORE PUSH32 0x206F7220657175616C2E00000000000000000000000000000000000000000000 PUSH1 0x20 DUP4 ADD MSTORE PUSH1 0x40 DUP3 ADD SWAP1 POP SWAP2 SWAP1 POP JUMP JUMPDEST PUSH1 0x0 PUSH2 0x2310 PUSH1 0x12 DUP4 PUSH2 0x2ABF JUMP JUMPDEST SWAP2 POP PUSH32 0x4E6F206672617564206465746563746564210000000000000000000000000000 PUSH1 0x0 DUP4 ADD MSTORE PUSH1 0x20 DUP3 ADD SWAP1 POP SWAP2 SWAP1 POP JUMP JUMPDEST PUSH1 0x0 PUSH2 0x2350 PUSH1 0x1F DUP4 PUSH2 0x2ABF JUMP JUMPDEST SWAP2 POP PUSH32 0x5472616E736974696F6E73206D7573742062652073657175656E7469616C2100 PUSH1 0x0 DUP4 ADD MSTORE PUSH1 0x20 DUP3 ADD SWAP1 POP SWAP2 SWAP1 POP JUMP JUMPDEST PUSH1 0x0 PUSH2 0x2390 PUSH1 0x28 DUP4 PUSH2 0x2ABF JUMP JUMPDEST SWAP2 POP PUSH32 0x5F7472616E736974696F6E30206D75737420626520666972737420696E206974 PUSH1 0x0 DUP4 ADD MSTORE PUSH32 0x7320626C6F636B2E000000000000000000000000000000000000000000000000 PUSH1 0x20 DUP4 ADD MSTORE PUSH1 0x40 DUP3 ADD SWAP1 POP SWAP2 SWAP1 POP JUMP JUMPDEST PUSH1 0x80 DUP3 ADD PUSH1 0x0 DUP3 ADD MLOAD PUSH2 0x23FF PUSH1 0x0 DUP6 ADD DUP3 PUSH2 0x247C JUMP JUMPDEST POP PUSH1 0x20 DUP3 ADD MLOAD PUSH2 0x2412 PUSH1 0x20 DUP6 ADD DUP3 PUSH2 0x2418 JUMP JUMPDEST POP POP POP POP JUMP JUMPDEST PUSH1 0x60 DUP3 ADD PUSH1 0x0 DUP3 ADD MLOAD PUSH2 0x242E PUSH1 0x0 DUP6 ADD DUP3 PUSH2 0x1D45 JUMP JUMPDEST POP PUSH1 0x20 DUP3 ADD MLOAD PUSH2 0x2441 PUSH1 0x20 DUP6 ADD DUP3 PUSH2 0x1EE5 JUMP JUMPDEST POP POP POP POP JUMP JUMPDEST PUSH2 0x2450 DUP2 PUSH2 0x2B6F JUMP JUMPDEST DUP3 MSTORE POP POP JUMP JUMPDEST PUSH2 0x2467 PUSH2 0x2462 DUP3 PUSH2 0x2B6F JUMP JUMPDEST PUSH2 0x2BDD JUMP JUMPDEST DUP3 MSTORE POP POP JUMP JUMPDEST PUSH2 0x2476 DUP2 PUSH2 0x2B89 JUMP JUMPDEST DUP3 MSTORE POP POP JUMP JUMPDEST PUSH2 0x2485 DUP2 PUSH2 0x2B79 JUMP JUMPDEST DUP3 MSTORE POP POP JUMP JUMPDEST PUSH2 0x2494 DUP2 PUSH2 0x2B79 JUMP JUMPDEST DUP3 MSTORE POP POP JUMP JUMPDEST PUSH1 0x0 PUSH2 0x24A6 DUP3 DUP5 PUSH2 0x1FCF JUMP JUMPDEST SWAP2 POP DUP2 SWAP1 POP SWAP3 SWAP2 POP POP JUMP JUMPDEST PUSH1 0x0 PUSH2 0x24BD DUP3 DUP5 PUSH2 0x2456 JUMP JUMPDEST PUSH1 0x20 DUP3 ADD SWAP2 POP DUP2 SWAP1 POP SWAP3 SWAP2 POP POP JUMP JUMPDEST PUSH1 0x0 PUSH1 0x60 DUP3 ADD SWAP1 POP PUSH2 0x24E1 PUSH1 0x0 DUP4 ADD DUP7 PUSH2 0x1D54 JUMP JUMPDEST PUSH2 0x24EE PUSH1 0x20 DUP4 ADD DUP6 PUSH2 0x248B JUMP JUMPDEST PUSH2 0x24FB PUSH1 0x40 DUP4 ADD DUP5 PUSH2 0x248B JUMP JUMPDEST SWAP5 SWAP4 POP POP POP POP JUMP JUMPDEST PUSH1 0x0 PUSH1 0x20 DUP3 ADD SWAP1 POP DUP2 DUP2 SUB PUSH1 0x0 DUP4 ADD MSTORE PUSH2 0x251E DUP2 DUP5 DUP7 PUSH2 0x1DC1 JUMP JUMPDEST SWAP1 POP SWAP4 SWAP3 POP POP POP JUMP JUMPDEST PUSH1 0x0 PUSH1 0x40 DUP3 ADD SWAP1 POP DUP2 DUP2 SUB PUSH1 0x0 DUP4 ADD MSTORE PUSH2 0x2542 DUP2 DUP6 DUP8 PUSH2 0x1DC1 JUMP JUMPDEST SWAP1 POP PUSH2 0x2551 PUSH1 0x20 DUP4 ADD DUP5 PUSH2 0x2447 JUMP JUMPDEST SWAP5 SWAP4 POP POP POP POP JUMP JUMPDEST PUSH1 0x0 PUSH1 0x20 DUP3 ADD SWAP1 POP PUSH2 0x256E PUSH1 0x0 DUP4 ADD DUP5 PUSH2 0x1F3C JUMP JUMPDEST SWAP3 SWAP2 POP POP JUMP JUMPDEST PUSH1 0x0 PUSH1 0xA0 DUP3 ADD SWAP1 POP PUSH2 0x2589 PUSH1 0x0 DUP4 ADD DUP8 PUSH2 0x1F3C JUMP JUMPDEST PUSH2 0x2596 PUSH1 0x20 DUP4 ADD DUP7 PUSH2 0x1F5A JUMP JUMPDEST PUSH2 0x25A3 PUSH1 0x40 DUP4 ADD DUP6 PUSH2 0x1F5A JUMP JUMPDEST PUSH2 0x25B0 PUSH1 0x60 DUP4 ADD DUP5 PUSH2 0x1E8E JUMP JUMPDEST SWAP6 SWAP5 POP POP POP POP POP JUMP JUMPDEST PUSH1 0x0 PUSH1 0x40 DUP3 ADD SWAP1 POP PUSH2 0x25CE PUSH1 0x0 DUP4 ADD DUP6 PUSH2 0x1F3C JUMP JUMPDEST DUP2 DUP2 SUB PUSH1 0x20 DUP4 ADD MSTORE PUSH2 0x25E0 DUP2 DUP5 PUSH2 0x1F96 JUMP JUMPDEST SWAP1 POP SWAP4 SWAP3 POP POP POP JUMP JUMPDEST PUSH1 0x0 PUSH1 0x20 DUP3 ADD SWAP1 POP PUSH2 0x25FE PUSH1 0x0 DUP4 ADD DUP5 PUSH2 0x1F5A JUMP JUMPDEST SWAP3 SWAP2 POP POP JUMP JUMPDEST PUSH1 0x0 PUSH1 0x80 DUP3 ADD SWAP1 POP PUSH2 0x2619 PUSH1 0x0 DUP4 ADD DUP8 PUSH2 0x1F5A JUMP JUMPDEST DUP2 DUP2 SUB PUSH1 0x20 DUP4 ADD MSTORE PUSH2 0x262B DUP2 DUP7 PUSH2 0x2000 JUMP JUMPDEST SWAP1 POP PUSH2 0x263A PUSH1 0x40 DUP4 ADD DUP6 PUSH2 0x2447 JUMP JUMPDEST DUP2 DUP2 SUB PUSH1 0x60 DUP4 ADD MSTORE PUSH2 0x264C DUP2 DUP5 PUSH2 0x1D63 JUMP JUMPDEST SWAP1 POP SWAP6 SWAP5 POP POP POP POP POP JUMP JUMPDEST PUSH1 0x0 PUSH1 0x40 DUP3 ADD SWAP1 POP PUSH2 0x266C PUSH1 0x0 DUP4 ADD DUP6 PUSH2 0x1F5A JUMP JUMPDEST PUSH2 0x2679 PUSH1 0x20 DUP4 ADD DUP5 PUSH2 0x2447 JUMP JUMPDEST SWAP4 SWAP3 POP POP POP JUMP JUMPDEST PUSH1 0x0 PUSH1 0x40 DUP3 ADD SWAP1 POP PUSH2 0x2695 PUSH1 0x0 DUP4 ADD DUP6 PUSH2 0x1F5A JUMP JUMPDEST PUSH2 0x26A2 PUSH1 0x20 DUP4 ADD DUP5 PUSH2 0x246D JUMP JUMPDEST SWAP4 SWAP3 POP POP POP JUMP JUMPDEST PUSH1 0x0 PUSH1 0x20 DUP3 ADD SWAP1 POP DUP2 DUP2 SUB PUSH1 0x0 DUP4 ADD MSTORE PUSH2 0x26C3 DUP2 DUP5 PUSH2 0x1F96 JUMP JUMPDEST SWAP1 POP SWAP3 SWAP2 POP POP JUMP JUMPDEST PUSH1 0x0 PUSH2 0x120 DUP3 ADD SWAP1 POP DUP2 DUP2 SUB PUSH1 0x0 DUP4 ADD MSTORE PUSH2 0x26E6 DUP2 DUP6 PUSH2 0x1F96 JUMP JUMPDEST SWAP1 POP PUSH2 0x26F5 PUSH1 0x20 DUP4 ADD DUP5 PUSH2 0x1E37 JUMP JUMPDEST SWAP4 SWAP3 POP POP POP JUMP JUMPDEST PUSH1 0x0 PUSH1 0x60 DUP3 ADD SWAP1 POP DUP2 DUP2 SUB PUSH1 0x0 DUP4 ADD MSTORE PUSH2 0x2716 DUP2 DUP7 PUSH2 0x1F96 JUMP JUMPDEST SWAP1 POP PUSH2 0x2725 PUSH1 0x20 DUP4 ADD DUP6 PUSH2 0x2447 JUMP JUMPDEST DUP2 DUP2 SUB PUSH1 0x40 DUP4 ADD MSTORE PUSH2 0x2737 DUP2 DUP5 PUSH2 0x1D63 JUMP JUMPDEST SWAP1 POP SWAP5 SWAP4 POP POP POP POP JUMP JUMPDEST PUSH1 0x0 PUSH1 0x20 DUP3 ADD SWAP1 POP DUP2 DUP2 SUB PUSH1 0x0 DUP4 ADD MSTORE PUSH2 0x275A DUP2 PUSH2 0x2039 JUMP JUMPDEST SWAP1 POP SWAP2 SWAP1 POP JUMP JUMPDEST PUSH1 0x0 PUSH1 0x20 DUP3 ADD SWAP1 POP DUP2 DUP2 SUB PUSH1 0x0 DUP4 ADD MSTORE PUSH2 0x277A DUP2 PUSH2 0x209F JUMP JUMPDEST SWAP1 POP SWAP2 SWAP1 POP JUMP JUMPDEST PUSH1 0x0 PUSH1 0x20 DUP3 ADD SWAP1 POP DUP2 DUP2 SUB PUSH1 0x0 DUP4 ADD MSTORE PUSH2 0x279A DUP2 PUSH2 0x2105 JUMP JUMPDEST SWAP1 POP SWAP2 SWAP1 POP JUMP JUMPDEST PUSH1 0x0 PUSH1 0x20 DUP3 ADD SWAP1 POP DUP2 DUP2 SUB PUSH1 0x0 DUP4 ADD MSTORE PUSH2 0x27BA DUP2 PUSH2 0x216B JUMP JUMPDEST SWAP1 POP SWAP2 SWAP1 POP JUMP JUMPDEST PUSH1 0x0 PUSH1 0x20 DUP3 ADD SWAP1 POP DUP2 DUP2 SUB PUSH1 0x0 DUP4 ADD MSTORE PUSH2 0x27DA DUP2 PUSH2 0x21D1 JUMP JUMPDEST SWAP1 POP SWAP2 SWAP1 POP JUMP JUMPDEST PUSH1 0x0 PUSH1 0x20 DUP3 ADD SWAP1 POP DUP2 DUP2 SUB PUSH1 0x0 DUP4 ADD MSTORE PUSH2 0x27FA DUP2 PUSH2 0x2237 JUMP JUMPDEST SWAP1 POP SWAP2 SWAP1 POP JUMP JUMPDEST PUSH1 0x0 PUSH1 0x20 DUP3 ADD SWAP1 POP DUP2 DUP2 SUB PUSH1 0x0 DUP4 ADD MSTORE PUSH2 0x281A DUP2 PUSH2 0x229D JUMP JUMPDEST SWAP1 POP SWAP2 SWAP1 POP JUMP JUMPDEST PUSH1 0x0 PUSH1 0x20 DUP3 ADD SWAP1 POP DUP2 DUP2 SUB PUSH1 0x0 DUP4 ADD MSTORE PUSH2 0x283A DUP2 PUSH2 0x2303 JUMP JUMPDEST SWAP1 POP SWAP2 SWAP1 POP JUMP JUMPDEST PUSH1 0x0 PUSH1 0x20 DUP3 ADD SWAP1 POP DUP2 DUP2 SUB PUSH1 0x0 DUP4 ADD MSTORE PUSH2 0x285A DUP2 PUSH2 0x2343 JUMP JUMPDEST SWAP1 POP SWAP2 SWAP1 POP JUMP JUMPDEST PUSH1 0x0 PUSH1 0x20 DUP3 ADD SWAP1 POP DUP2 DUP2 SUB PUSH1 0x0 DUP4 ADD MSTORE PUSH2 0x287A DUP2 PUSH2 0x2383 JUMP JUMPDEST SWAP1 POP SWAP2 SWAP1 POP JUMP JUMPDEST PUSH1 0x0 PUSH1 0x40 MLOAD SWAP1 POP DUP2 DUP2 ADD DUP2 DUP2 LT PUSH8 0xFFFFFFFFFFFFFFFF DUP3 GT OR ISZERO PUSH2 0x28A4 JUMPI PUSH1 0x0 DUP1 REVERT JUMPDEST DUP1 PUSH1 0x40 MSTORE POP SWAP2 SWAP1 POP JUMP JUMPDEST PUSH1 0x0 PUSH8 0xFFFFFFFFFFFFFFFF DUP3 GT ISZERO PUSH2 0x28C5 JUMPI PUSH1 0x0 DUP1 REVERT JUMPDEST PUSH1 0x20 DUP3 MUL SWAP1 POP SWAP2 SWAP1 POP JUMP JUMPDEST PUSH1 0x0 PUSH8 0xFFFFFFFFFFFFFFFF DUP3 GT ISZERO PUSH2 0x28E7 JUMPI PUSH1 0x0 DUP1 REVERT JUMPDEST PUSH1 0x20 DUP3 MUL SWAP1 POP PUSH1 0x20 DUP2 ADD SWAP1 POP SWAP2 SWAP1 POP JUMP JUMPDEST PUSH1 0x0 PUSH8 0xFFFFFFFFFFFFFFFF DUP3 GT ISZERO PUSH2 0x290F JUMPI PUSH1 0x0 DUP1 REVERT JUMPDEST PUSH1 0x20 DUP3 MUL SWAP1 POP SWAP2 SWAP1 POP JUMP JUMPDEST PUSH1 0x0 PUSH8 0xFFFFFFFFFFFFFFFF DUP3 GT ISZERO PUSH2 0x2931 JUMPI PUSH1 0x0 DUP1 REVERT JUMPDEST PUSH1 0x20 DUP3 MUL SWAP1 POP SWAP2 SWAP1 POP JUMP JUMPDEST PUSH1 0x0 PUSH8 0xFFFFFFFFFFFFFFFF DUP3 GT ISZERO PUSH2 0x2953 JUMPI PUSH1 0x0 DUP1 REVERT JUMPDEST PUSH1 0x1F NOT PUSH1 0x1F DUP4 ADD AND SWAP1 POP PUSH1 0x20 DUP2 ADD SWAP1 POP SWAP2 SWAP1 POP JUMP JUMPDEST PUSH1 0x0 PUSH8 0xFFFFFFFFFFFFFFFF DUP3 GT ISZERO PUSH2 0x297F JUMPI PUSH1 0x0 DUP1 REVERT JUMPDEST PUSH1 0x1F NOT PUSH1 0x1F DUP4 ADD AND SWAP1 POP PUSH1 0x20 DUP2 ADD SWAP1 POP SWAP2 SWAP1 POP JUMP JUMPDEST PUSH1 0x0 DUP2 SWAP1 POP PUSH1 0x20 DUP3 ADD SWAP1 POP SWAP2 SWAP1 POP JUMP JUMPDEST PUSH1 0x0 DUP2 SWAP1 POP SWAP2 SWAP1 POP JUMP JUMPDEST PUSH1 0x0 DUP2 SWAP1 POP SWAP2 SWAP1 POP JUMP JUMPDEST PUSH1 0x0 DUP2 SWAP1 POP SWAP2 SWAP1 POP JUMP JUMPDEST PUSH1 0x0 DUP2 SWAP1 POP SWAP2 SWAP1 POP JUMP JUMPDEST PUSH1 0x0 DUP2 MLOAD SWAP1 POP SWAP2 SWAP1 POP JUMP JUMPDEST PUSH1 0x0 PUSH1 0x2 SWAP1 POP SWAP2 SWAP1 POP JUMP JUMPDEST PUSH1 0x0 PUSH1 0x2 SWAP1 POP SWAP2 SWAP1 POP JUMP JUMPDEST PUSH1 0x0 PUSH1 0x2 SWAP1 POP SWAP2 SWAP1 POP JUMP JUMPDEST PUSH1 0x0 DUP2 MLOAD SWAP1 POP SWAP2 SWAP1 POP JUMP JUMPDEST PUSH1 0x0 DUP2 MLOAD SWAP1 POP SWAP2 SWAP1 POP JUMP JUMPDEST PUSH1 0x0 PUSH1 0x20 DUP3 ADD SWAP1 POP SWAP2 SWAP1 POP JUMP JUMPDEST PUSH1 0x0 PUSH1 0x20 DUP3 ADD SWAP1 POP SWAP2 SWAP1 POP JUMP JUMPDEST PUSH1 0x0 PUSH1 0x20 DUP3 ADD SWAP1 POP SWAP2 SWAP1 POP JUMP JUMPDEST PUSH1 0x0 PUSH1 0x20 DUP3 ADD SWAP1 POP SWAP2 SWAP1 POP JUMP JUMPDEST PUSH1 0x0 PUSH1 0x20 DUP3 ADD SWAP1 POP SWAP2 SWAP1 POP JUMP JUMPDEST PUSH1 0x0 DUP3 DUP3 MSTORE PUSH1 0x20 DUP3 ADD SWAP1 POP SWAP3 SWAP2 POP POP JUMP JUMPDEST PUSH1 0x0 DUP3 DUP3 MSTORE PUSH1 0x20 DUP3 ADD SWAP1 POP SWAP3 SWAP2 POP POP JUMP JUMPDEST PUSH1 0x0 DUP2 SWAP1 POP SWAP3 SWAP2 POP POP JUMP JUMPDEST PUSH1 0x0 DUP2 SWAP1 POP SWAP3 SWAP2 POP POP JUMP JUMPDEST PUSH1 0x0 DUP2 SWAP1 POP SWAP3 SWAP2 POP POP JUMP JUMPDEST PUSH1 0x0 DUP3 DUP3 MSTORE PUSH1 0x20 DUP3 ADD SWAP1 POP SWAP3 SWAP2 POP POP JUMP JUMPDEST PUSH1 0x0 DUP3 DUP3 MSTORE PUSH1 0x20 DUP3 ADD SWAP1 POP SWAP3 SWAP2 POP POP JUMP JUMPDEST PUSH1 0x0 DUP2 SWAP1 POP SWAP3 SWAP2 POP POP JUMP JUMPDEST PUSH1 0x0 DUP3 DUP3 MSTORE PUSH1 0x20 DUP3 ADD SWAP1 POP SWAP3 SWAP2 POP POP JUMP JUMPDEST PUSH1 0x0 DUP1 DUP4 CALLDATALOAD PUSH1 0x1 PUSH1 0x20 SUB DUP5 CALLDATASIZE SUB SUB DUP2 SLT PUSH2 0x2AE9 JUMPI PUSH1 0x0 DUP1 REVERT JUMPDEST DUP4 DUP2 ADD SWAP3 POP DUP3 CALLDATALOAD SWAP2 POP PUSH1 0x20 DUP4 ADD SWAP3 POP PUSH8 0xFFFFFFFFFFFFFFFF DUP3 GT ISZERO PUSH2 0x2B0D JUMPI PUSH1 0x0 DUP1 REVERT JUMPDEST PUSH1 0x1 DUP3 MUL CALLDATASIZE SUB DUP5 SGT ISZERO PUSH2 0x2B1F JUMPI PUSH1 0x0 DUP1 REVERT JUMPDEST POP SWAP3 POP SWAP3 SWAP1 POP JUMP JUMPDEST PUSH1 0x0 PUSH2 0x2B32 DUP3 PUSH2 0x2B4F JUMP JUMPDEST SWAP1 POP SWAP2 SWAP1 POP JUMP JUMPDEST PUSH1 0x0 DUP2 ISZERO ISZERO SWAP1 POP SWAP2 SWAP1 POP JUMP JUMPDEST PUSH1 0x0 DUP2 SWAP1 POP SWAP2 SWAP1 POP JUMP JUMPDEST PUSH1 0x0 PUSH20 0xFFFFFFFFFFFFFFFFFFFFFFFFFFFFFFFFFFFFFFFF DUP3 AND SWAP1 POP SWAP2 SWAP1 POP JUMP JUMPDEST PUSH1 0x0 DUP2 SWAP1 POP SWAP2 SWAP1 POP JUMP JUMPDEST PUSH1 0x0 PUSH4 0xFFFFFFFF DUP3 AND SWAP1 POP SWAP2 SWAP1 POP JUMP JUMPDEST PUSH1 0x0 PUSH2 0x2B94 DUP3 PUSH2 0x2B79 JUMP JUMPDEST SWAP1 POP SWAP2 SWAP1 POP JUMP JUMPDEST DUP3 DUP2 DUP4 CALLDATACOPY PUSH1 0x0 DUP4 DUP4 ADD MSTORE POP POP POP JUMP JUMPDEST PUSH1 0x0 JUMPDEST DUP4 DUP2 LT ISZERO PUSH2 0x2BC8 JUMPI DUP1 DUP3 ADD MLOAD DUP2 DUP5 ADD MSTORE PUSH1 0x20 DUP2 ADD SWAP1 POP PUSH2 0x2BAD JUMP JUMPDEST DUP4 DUP2 GT ISZERO PUSH2 0x2BD7 JUMPI PUSH1 0x0 DUP5 DUP5 ADD MSTORE JUMPDEST POP POP POP POP JUMP JUMPDEST PUSH1 0x0 DUP2 SWAP1 POP SWAP2 SWAP1 POP JUMP JUMPDEST PUSH1 0x0 PUSH1 0x1F NOT PUSH1 0x1F DUP4 ADD AND SWAP1 POP SWAP2 SWAP1 POP JUMP JUMPDEST PUSH2 0x2C01 DUP2 PUSH2 0x2B27 JUMP JUMPDEST DUP2 EQ PUSH2 0x2C0C JUMPI PUSH1 0x0 DUP1 REVERT JUMPDEST POP JUMP JUMPDEST PUSH2 0x2C18 DUP2 PUSH2 0x2B39 JUMP JUMPDEST DUP2 EQ PUSH2 0x2C23 JUMPI PUSH1 0x0 DUP1 REVERT JUMPDEST POP JUMP JUMPDEST PUSH2 0x2C2F DUP2 PUSH2 0x2B45 JUMP JUMPDEST DUP2 EQ PUSH2 0x2C3A JUMPI PUSH1 0x0 DUP1 REVERT JUMPDEST POP JUMP JUMPDEST PUSH2 0x2C46 DUP2 PUSH2 0x2B6F JUMP JUMPDEST DUP2 EQ PUSH2 0x2C51 JUMPI PUSH1 0x0 DUP1 REVERT JUMPDEST POP JUMP JUMPDEST PUSH2 0x2C5D DUP2 PUSH2 0x2B79 JUMP JUMPDEST DUP2 EQ PUSH2 0x2C68 JUMPI PUSH1 0x0 DUP1 REVERT JUMPDEST POP JUMP INVALID LOG3 PUSH6 0x627A7A723058 KECCAK256 0x5d SWAP3 0xea 0x48 SWAP7 PUSH29 0x258706641D7154D85EF8276B42BB914582728C369362605BCD356C6578 PUSH17 0x6572696D656E74616CF564736F6C634300 SDIV MULMOD STOP BLOCKHASH "
    }
  },
  "interface": [
    {
      "constant": true,
      "inputs": [],
      "name": "ZERO_BYTES32",
      "outputs": [
        {
          "name": "",
          "type": "bytes32"
        }
      ],
      "payable": false,
      "stateMutability": "view",
      "type": "function"
    },
    {
      "constant": false,
      "inputs": [
        {
          "components": [
            {
              "name": "transition",
              "type": "bytes"
            },
            {
              "components": [
                {
                  "name": "blockNumber",
                  "type": "uint256"
                },
                {
                  "name": "transitionIndex",
                  "type": "uint256"
                },
                {
                  "name": "siblings",
                  "type": "bytes32[]"
                }
              ],
              "name": "inclusionProof",
              "type": "tuple"
            }
          ],
          "name": "_preStateIncludedTransition",
          "type": "tuple"
        },
        {
          "components": [
            {
              "name": "transition",
              "type": "bytes"
            },
            {
              "components": [
                {
                  "name": "blockNumber",
                  "type": "uint256"
                },
                {
                  "name": "transitionIndex",
                  "type": "uint256"
                },
                {
                  "name": "siblings",
                  "type": "bytes32[]"
                }
              ],
              "name": "inclusionProof",
              "type": "tuple"
            }
          ],
          "name": "_invalidIncludedTransition",
          "type": "tuple"
        },
        {
          "components": [
            {
              "components": [
                {
                  "name": "slotIndex",
                  "type": "uint32"
                },
                {
                  "components": [
                    {
                      "name": "pubkey",
                      "type": "address"
                    },
                    {
                      "name": "balances",
                      "type": "uint32[2]"
                    }
                  ],
                  "name": "value",
                  "type": "tuple"
                }
              ],
              "name": "storageSlot",
              "type": "tuple"
            },
            {
              "name": "siblings",
              "type": "bytes32[]"
            }
          ],
          "name": "_transitionStorageSlots",
          "type": "tuple[2]"
        }
      ],
      "name": "proveTransitionInvalid",
      "outputs": [],
      "payable": false,
      "stateMutability": "nonpayable",
      "type": "function"
    },
    {
      "constant": true,
      "inputs": [
        {
          "components": [
            {
              "name": "transition",
              "type": "bytes"
            },
            {
              "components": [
                {
                  "name": "blockNumber",
                  "type": "uint256"
                },
                {
                  "name": "transitionIndex",
                  "type": "uint256"
                },
                {
                  "name": "siblings",
                  "type": "bytes32[]"
                }
              ],
              "name": "inclusionProof",
              "type": "tuple"
            }
          ],
          "name": "_includedTransition",
          "type": "tuple"
        }
      ],
      "name": "checkTransitionInclusion",
      "outputs": [
        {
          "name": "",
          "type": "bool"
        }
      ],
      "payable": false,
      "stateMutability": "view",
      "type": "function"
    },
    {
      "constant": false,
      "inputs": [
        {
          "name": "_preStateTransition",
          "type": "bytes"
        },
        {
          "name": "_invalidTransition",
          "type": "bytes"
        }
      ],
      "name": "getStateRootsAndStorageSlots",
      "outputs": [
        {
          "name": "",
          "type": "bool"
        },
        {
          "name": "",
          "type": "bytes32"
        },
        {
          "name": "",
          "type": "bytes32"
        },
        {
          "name": "",
          "type": "uint32[2]"
        }
      ],
      "payable": false,
      "stateMutability": "nonpayable",
      "type": "function"
    },
    {
      "constant": false,
      "inputs": [
        {
          "components": [
            {
              "name": "transition",
              "type": "bytes"
            },
            {
              "components": [
                {
                  "name": "blockNumber",
                  "type": "uint256"
                },
                {
                  "name": "transitionIndex",
                  "type": "uint256"
                },
                {
                  "name": "siblings",
                  "type": "bytes32[]"
                }
              ],
              "name": "inclusionProof",
              "type": "tuple"
            }
          ],
          "name": "_transition0",
          "type": "tuple"
        },
        {
          "components": [
            {
              "name": "transition",
              "type": "bytes"
            },
            {
              "components": [
                {
                  "name": "blockNumber",
                  "type": "uint256"
                },
                {
                  "name": "transitionIndex",
                  "type": "uint256"
                },
                {
                  "name": "siblings",
                  "type": "bytes32[]"
                }
              ],
              "name": "inclusionProof",
              "type": "tuple"
            }
          ],
          "name": "_transition1",
          "type": "tuple"
        }
      ],
      "name": "verifySequentialTransitions",
      "outputs": [
        {
          "name": "",
          "type": "bool"
        }
      ],
      "payable": false,
      "stateMutability": "nonpayable",
      "type": "function"
    },
    {
      "constant": false,
      "inputs": [
        {
          "name": "_block",
          "type": "bytes[]"
        }
      ],
      "name": "submitBlock",
      "outputs": [
        {
          "name": "",
          "type": "bytes32"
        }
      ],
      "payable": false,
      "stateMutability": "nonpayable",
      "type": "function"
    },
    {
      "constant": true,
      "inputs": [
        {
          "name": "_transition",
          "type": "bytes"
        }
      ],
      "name": "getTransitionHash",
      "outputs": [
        {
          "name": "",
          "type": "bytes32"
        }
      ],
      "payable": false,
      "stateMutability": "pure",
      "type": "function"
    },
    {
      "constant": true,
      "inputs": [
        {
          "name": "",
          "type": "uint256"
        }
      ],
      "name": "blocks",
      "outputs": [
        {
          "name": "rootHash",
          "type": "bytes32"
        },
        {
          "name": "blockSize",
          "type": "uint256"
        }
      ],
      "payable": false,
      "stateMutability": "view",
      "type": "function"
    },
    {
      "constant": true,
      "inputs": [
        {
          "components": [
            {
              "name": "pubkey",
              "type": "address"
            },
            {
              "name": "balances",
              "type": "uint32[2]"
            }
          ],
          "name": "_storage",
          "type": "tuple"
        }
      ],
      "name": "getStorageBytes",
      "outputs": [
        {
          "name": "",
          "type": "bytes"
        }
      ],
      "payable": false,
      "stateMutability": "view",
      "type": "function"
    },
    {
      "inputs": [
        {
          "name": "_transitionEvaluatorAddress",
          "type": "address"
        },
        {
          "name": "_rollupMerkleUtilsAddress",
          "type": "address"
        }
      ],
      "payable": false,
      "stateMutability": "nonpayable",
      "type": "constructor"
    },
    {
      "anonymous": false,
      "inputs": [
        {
          "indexed": false,
          "name": "success",
          "type": "bool"
        },
        {
          "indexed": false,
          "name": "returnData",
          "type": "bytes"
        }
      ],
      "name": "DecodedTransition",
      "type": "event"
    },
    {
      "anonymous": false,
      "inputs": [
        {
          "indexed": false,
          "name": "block",
          "type": "bytes[]"
        },
        {
          "indexed": false,
          "name": "blockNumber",
          "type": "uint256"
        }
      ],
      "name": "NewRollupBlock",
      "type": "event"
    }
  ]
}