{
  "_format": "hh-sol-artifact-1",
  "contractName": "OVM_StateTransitionerFactory",
  "sourceName": "contracts/optimistic-ethereum/OVM/verification/OVM_StateTransitionerFactory.sol",
  "abi": [
    {
      "inputs": [
        {
          "internalType": "address",
          "name": "_libAddressManager",
          "type": "address"
        }
      ],
      "stateMutability": "nonpayable",
      "type": "constructor"
    },
    {
      "inputs": [
        {
          "internalType": "address",
          "name": "_libAddressManager",
          "type": "address"
        },
        {
          "internalType": "uint256",
          "name": "_stateTransitionIndex",
          "type": "uint256"
        },
        {
          "internalType": "bytes32",
          "name": "_preStateRoot",
          "type": "bytes32"
        },
        {
          "internalType": "bytes32",
          "name": "_transactionHash",
          "type": "bytes32"
        }
      ],
      "name": "create",
      "outputs": [
        {
          "internalType": "contract iOVM_StateTransitioner",
          "name": "",
          "type": "address"
        }
      ],
      "stateMutability": "nonpayable",
      "type": "function"
    },
    {
      "inputs": [],
      "name": "libAddressManager",
      "outputs": [
        {
          "internalType": "contract Lib_AddressManager",
          "name": "",
          "type": "address"
        }
      ],
      "stateMutability": "view",
      "type": "function"
    },
    {
      "inputs": [
        {
          "internalType": "string",
          "name": "_name",
          "type": "string"
        }
      ],
      "name": "resolve",
      "outputs": [
        {
          "internalType": "address",
          "name": "",
          "type": "address"
        }
      ],
      "stateMutability": "view",
      "type": "function"
    }
  ],
  "bytecode": "0x608060405234801561001057600080fd5b50604051614a8f380380614a8f8339818101604052602081101561003357600080fd5b5051600080546001600160a01b039092166001600160a01b0319909216919091179055614a2a806100656000396000f3fe608060405234801561001057600080fd5b50600436106100415760003560e01c806322d1470214610046578063299ca4781461009a578063461a4478146100a2575b600080fd5b61007e6004803603608081101561005c57600080fd5b506001600160a01b038135169060208101359060408101359060600135610148565b604080516001600160a01b039092168252519081900360200190f35b61007e610229565b61007e600480360360208110156100b857600080fd5b8101906020810181356401000000008111156100d357600080fd5b8201836020820111156100e557600080fd5b8035906020019184600183028401116401000000008311171561010757600080fd5b91908080601f016020809104026020016040519081016040528093929190818152602001838380828437600092019190915250929550610238945050505050565b600061017c6040518060400160405280601181526020017027ab26afa33930bab22b32b934b334b2b960791b815250610238565b6001600160a01b0316336001600160a01b0316146101cb5760405162461bcd60e51b81526004018080602001828103825260318152602001806149c46031913960400191505060405180910390fd5b848484846040516101db90610314565b80856001600160a01b03168152602001848152602001838152602001828152602001945050505050604051809103906000f08015801561021f573d6000803e3d6000fd5b5095945050505050565b6000546001600160a01b031681565b6000805460405163bf40fac160e01b81526020600482018181528551602484015285516001600160a01b039094169363bf40fac19387938392604490920191908501908083838b5b83811015610298578181015183820152602001610280565b50505050905090810190601f1680156102c55780820380516001836020036101000a031916815260200191505b509250505060206040518083038186803b1580156102e257600080fd5b505afa1580156102f6573d6000803e3d6000fd5b505050506040513d602081101561030c57600080fd5b505192915050565b6146a2806103228339019056fe60806040523480156200001157600080fd5b50604051620046a2380380620046a2833981016040819052620000349162000232565b600080546001600160a01b0319166001600160a01b038616179055600583905560028290556003829055600681905560408051808201909152601781527f4f564d5f53746174654d616e61676572466163746f72790000000000000000006020820152620000a29062000150565b6001600160a01b0316639ed93318306040518263ffffffff1660e01b8152600401620000cf919062000299565b602060405180830381600087803b158015620000ea57600080fd5b505af1158015620000ff573d6000803e3d6000fd5b505050506040513d601f19601f8201168201806040525081019062000125919062000273565b600180546001600160a01b0319166001600160a01b039290921691909117905550620002c692505050565b6000805460405163bf40fac160e01b81526020600482018181528551602484015285516001600160a01b039094169363bf40fac19387938392604490920191908501908083838b5b83811015620001b257818101518382015260200162000198565b50505050905090810190601f168015620001e05780820380516001836020036101000a031916815260200191505b509250505060206040518083038186803b158015620001fe57600080fd5b505afa15801562000213573d6000803e3d6000fd5b505050506040513d60208110156200022a57600080fd5b505192915050565b6000806000806080858703121562000248578384fd5b84516200025581620002ad565b60208601516040870151606090970151919890975090945092505050565b60006020828403121562000285578081fd5b81516200029281620002ad565b9392505050565b6001600160a01b0391909116815260200190565b6001600160a01b0381168114620002c357600080fd5b50565b6143cc80620002d66000396000f3fe608060405234801561001057600080fd5b50600436106100cf5760003560e01c8063845fe7a31161008c578063b2fa1c9e11610066578063b2fa1c9e14610185578063b52805711461019a578063b9194310146101a2578063c1c618b8146101b5576100cf565b8063845fe7a314610155578063a244316a14610168578063b1c9fe6e14610170576100cf565b8063299ca478146100d45780632e1ac36c146100f25780632eb1375814610107578063461a44781461011a578063732f960b1461012d578063805e9d3014610140575b600080fd5b6100dc6101bd565b6040516100e99190613d6b565b60405180910390f35b610105610100366004613a30565b6101cc565b005b610105610115366004613a70565b610565565b6100dc610128366004613aef565b6108a1565b61010561013b366004613bb3565b61097f565b610148610c4a565b6040516100e99190613cc4565b610105610163366004613a30565b610c50565b610105610f7c565b610178611103565b6040516100e99190613e1d565b61018d61110c565b6040516100e99190613e12565b6100dc611127565b6101056101b03660046139d1565b611136565b610148611450565b6000546001600160a01b031681565b60018060045460ff1660028111156101e057fe5b146102065760405162461bcd60e51b81526004016101fd9061416e565b60405180910390fd5b60025460065460005a6001546040516363b285f960e11b81529192506001600160a01b03169063c7650bf290610242908a908a90600401613d7f565b602060405180830381600087803b15801561025c57600080fd5b505af1158015610270573d6000803e3d6000fd5b505050506040513d601f19601f820116820180604052508101906102949190613abd565b15156001146102b55760405162461bcd60e51b81526004016101fd90613f19565b60015460405163fbcbc0f160e01b81526000916001600160a01b03169063fbcbc0f1906102e6908b90600401613d6b565b60c06040518083038186803b1580156102fe57600080fd5b505afa158015610312573d6000803e3d6000fd5b505050506040513d601f19601f820116820180604052508101906103369190613b34565b600154604051631aaf392f60e01b81529192506000916001600160a01b0390911690631aaf392f9061036e908c908c90600401613d7f565b60206040518083038186803b15801561038657600080fd5b505afa15801561039a573d6000803e3d6000fd5b505050506040513d601f19601f820116820180604052508101906103be9190613ad7565b90506103ff886040516020016103d49190613cc4565b6040516020818303038152906040526103f46103ef84611456565b61149f565b898560400151611509565b6040808401919091526001549051638f3b964760e01b81526001600160a01b0390911690638f3b964790610439908c908690600401613db9565b600060405180830381600087803b15801561045357600080fd5b505af1158015610467573d6000803e3d6000fd5b505050507f3e3ed1a676a2754a041b49bf752e0f167c8753495e36c320fe01d1ef7476253c898960405161049c929190613d7f565b60405180910390a1505060005a820390506104dd6040518060400160405280600f81526020016e27ab26afa137b73226b0b730b3b2b960891b8152506108a1565b6001600160a01b0316631e16e92f858533856040518563ffffffff1660e01b815260040180858152602001848152602001836001600160a01b03168152602001828152602001945050505050600060405180830381600087803b15801561054357600080fd5b505af1158015610557573d6000803e3d6000fd5b505050505050505050505050565b60018060045460ff16600281111561057957fe5b146105965760405162461bcd60e51b81526004016101fd9061416e565b60025460065460005a9050600160009054906101000a90046001600160a01b03166001600160a01b03166399056ba96040518163ffffffff1660e01b815260040160206040518083038186803b1580156105ef57600080fd5b505afa158015610603573d6000803e3d6000fd5b505050506040513d601f19601f820116820180604052508101906106279190613ad7565b156106445760405162461bcd60e51b81526004016101fd90613ffa565b600154604051630b38106960e11b81526001600160a01b039091169063167020d290610674908990600401613d6b565b602060405180830381600087803b15801561068e57600080fd5b505af11580156106a2573d6000803e3d6000fd5b505050506040513d601f19601f820116820180604052508101906106c69190613abd565b15156001146106e75760405162461bcd60e51b81526004016101fd906140b4565b60015460405163fbcbc0f160e01b81526000916001600160a01b03169063fbcbc0f190610718908a90600401613d6b565b60c06040518083038186803b15801561073057600080fd5b505afa158015610744573d6000803e3d6000fd5b505050506040513d601f19601f820116820180604052508101906107689190613b34565b90506107a78760405160200161077e9190613ca7565b60405160208183030381529060405261079e6107998461152f565b61156f565b88600354611509565b6003556040517fcec9ef675d775706a02b43afe48af52c5019bc50f99582e3208c6ff55d59c008906107da908990613d6b565b60405180910390a15060005a8203905061081a6040518060400160405280600f81526020016e27ab26afa137b73226b0b730b3b2b960891b8152506108a1565b6001600160a01b0316631e16e92f858533856040518563ffffffff1660e01b815260040180858152602001848152602001836001600160a01b03168152602001828152602001945050505050600060405180830381600087803b15801561088057600080fd5b505af1158015610894573d6000803e3d6000fd5b5050505050505050505050565b6000805460405163bf40fac160e01b81526020600482018181528551602484015285516001600160a01b039094169363bf40fac19387938392604490920191908501908083838b5b838110156109015781810151838201526020016108e9565b50505050905090810190601f16801561092e5780820380516001836020036101000a031916815260200191505b509250505060206040518083038186803b15801561094b57600080fd5b505afa15801561095f573d6000803e3d6000fd5b505050506040513d602081101561097557600080fd5b505190505b919050565b60008060045460ff16600281111561099357fe5b146109b05760405162461bcd60e51b81526004016101fd9061416e565b60025460065460005a90506006546109c786611678565b146109e45760405162461bcd60e51b81526004016101fd906141bf565b6103e88560a0015161040802816109f757fe5b04620186a0015a1015610a1c5760405162461bcd60e51b81526004016101fd90614057565b6000610a536040518060400160405280601481526020017327ab26afa2bc32b1baba34b7b726b0b730b3b2b960611b8152506108a1565b600154604051631381ba4d60e01b81529192506001600160a01b031690631381ba4d90610a84908490600401613d6b565b600060405180830381600087803b158015610a9e57600080fd5b505af1158015610ab2573d6000803e3d6000fd5b5050600154604051639be3ad6760e01b81526001600160a01b038086169450639be3ad679350610ae9928b92911690600401614253565b600060405180830381600087803b158015610b0357600080fd5b505af1158015610b17573d6000803e3d6000fd5b5050600154604051631381ba4d60e01b81526001600160a01b039091169250631381ba4d9150610b4c90600090600401613d6b565b600060405180830381600087803b158015610b6657600080fd5b505af1158015610b7a573d6000803e3d6000fd5b50506004805460ff191660011790555060009150505a82039050610bc46040518060400160405280600f81526020016e27ab26afa137b73226b0b730b3b2b960891b8152506108a1565b6001600160a01b0316631e16e92f858533856040518563ffffffff1660e01b815260040180858152602001848152602001836001600160a01b03168152602001828152602001945050505050600060405180830381600087803b158015610c2a57600080fd5b505af1158015610c3e573d6000803e3d6000fd5b50505050505050505050565b60025490565b60008060045460ff166002811115610c6457fe5b14610c815760405162461bcd60e51b81526004016101fd9061416e565b60025460065460005a600154604051630ad2267960e01b81529192506001600160a01b031690630ad2267990610cbd908a908a90600401613d7f565b60206040518083038186803b158015610cd557600080fd5b505afa158015610ce9573d6000803e3d6000fd5b505050506040513d601f19601f82011682018060405250810190610d0d9190613abd565b15610d2a5760405162461bcd60e51b81526004016101fd90613e31565b60015460405163c8e40fbf60e01b81526001600160a01b039091169063c8e40fbf90610d5a908a90600401613d6b565b60206040518083038186803b158015610d7257600080fd5b505afa158015610d86573d6000803e3d6000fd5b505050506040513d601f19601f82011682018060405250810190610daa9190613abd565b1515600114610dcb5760405162461bcd60e51b81526004016101fd906141f6565b60015460405163136e2d8960e11b81526000916001600160a01b0316906326dc5b1290610dfc908b90600401613d6b565b60206040518083038186803b158015610e1457600080fd5b505afa158015610e28573d6000803e3d6000fd5b505050506040513d601f19601f82011682018060405250810190610e4c9190613ad7565b905060007f56e81f171bcc55a6ff8345e692c0f86e5b48e01b996cadc001622fb5e363b421821415610e8057506000610edd565b600080610ead8a604051602001610e979190613cc4565b6040516020818303038152906040528a86611691565b909250905060018215151415610ed557610ece610ec9826116ba565b6116cd565b9250610eda565b600092505b50505b600154604051635c17d62960e01b81526001600160a01b0390911690635c17d62990610f11908c908c908690600401613d98565b600060405180830381600087803b158015610f2b57600080fd5b505af1158015610f3f573d6000803e3d6000fd5b50505050505060005a820390506104dd6040518060400160405280600f81526020016e27ab26afa137b73226b0b730b3b2b960891b8152506108a1565b60018060045460ff166002811115610f9057fe5b14610fad5760405162461bcd60e51b81526004016101fd9061416e565b600160009054906101000a90046001600160a01b03166001600160a01b031663d7bd4a2a6040518163ffffffff1660e01b815260040160206040518083038186803b158015610ffb57600080fd5b505afa15801561100f573d6000803e3d6000fd5b505050506040513d601f19601f820116820180604052508101906110339190613ad7565b156110505760405162461bcd60e51b81526004016101fd90613ebc565b600160009054906101000a90046001600160a01b03166001600160a01b03166399056ba96040518163ffffffff1660e01b815260040160206040518083038186803b15801561109e57600080fd5b505afa1580156110b2573d6000803e3d6000fd5b505050506040513d601f19601f820116820180604052508101906110d69190613ad7565b156110f35760405162461bcd60e51b81526004016101fd90614111565b506004805460ff19166002179055565b60045460ff1681565b6000600260045460ff16600281111561112157fe5b14905090565b6001546001600160a01b031681565b60008060045460ff16600281111561114a57fe5b146111675760405162461bcd60e51b81526004016101fd9061416e565b60025460065460005a60015460405163c8e40fbf60e01b81529192506001600160a01b03169063c8e40fbf906111a1908a90600401613d6b565b60206040518083038186803b1580156111b957600080fd5b505afa1580156111cd573d6000803e3d6000fd5b505050506040513d601f19601f820116820180604052508101906111f19190613abd565b15801561127b57506001546040516307a1294560e01b81526001600160a01b03909116906307a1294590611229908a90600401613d6b565b60206040518083038186803b15801561124157600080fd5b505afa158015611255573d6000803e3d6000fd5b505050506040513d601f19601f820116820180604052508101906112799190613abd565b155b6112975760405162461bcd60e51b81526004016101fd90613e76565b6000806112c6896040516020016112ae9190613ca7565b60405160208183030381529060405288600254611691565b9092509050600182151514156113e75760006112e1826116fc565b606081015190915089907fc5d2460186f7233c927e7db2dcc703c0e500b653ca82273b7bfad8045d85a470141561131a57506000611345565b81606001516113288261178e565b146113455760405162461bcd60e51b81526004016101fd90613f77565b6001546040805160c08101825284518152602080860151908201528482015181830152606080860151908201526001600160a01b038481166080830152600060a08301529151638f3b964760e01b81529190921691638f3b9647916113ae918f91600401613db9565b600060405180830381600087803b1580156113c857600080fd5b505af11580156113dc573d6000803e3d6000fd5b505050505050611417565b600154604051630d631c9d60e31b81526001600160a01b0390911690636b18e4e890610f11908c90600401613d6b565b505060005a820390506104dd6040518060400160405280600f81526020016e27ab26afa137b73226b0b730b3b2b960891b8152506108a1565b60035490565b6060806000805b6020811085821a151615611477576001918201910161145d565b5060405191506040820160405283600882021b60208301528060200382525080915050919050565b606080825160011480156114c757506080836000815181106114bd57fe5b016020015160f81c105b156114d3575081611503565b6114df83516080611792565b836040516020016114f1929190613ccd565b60405160208183030381529060405290505b92915050565b600080611515866118e1565b905061152381868686611911565b9150505b949350505050565b6115376138dc565b604051806080016040528083600001518152602001836020015181526020018360400151815260200183606001518152509050919050565b60408051600480825260a0820190925260609160009190816020015b606081526020019060019003908161158b57505083519091506115b1906103ef90611456565b816000815181106115be57fe5b60200260200101819052506115dc6103ef846020015160001b611456565b816001815181106115e957fe5b6020026020010181905250611620836040015160405160200161160c9190613cc4565b60405160208183030381529060405261149f565b8160028151811061162d57fe5b6020026020010181905250611650836060015160405160200161160c9190613cc4565b8160038151811061165d57fe5b6020026020010181905250611671816119ad565b9392505050565b6000611683826119f1565b805190602001209050919050565b6000606060006116a0866118e1565b90506116ad818686611a2c565b9250925050935093915050565b60606115036116c883611aff565b611b24565b60008060006020845111156116e35760206116e6565b83515b6020858101519190036008021c92505050919050565b6117046138dc565b600061170f83611bb3565b905060405180608001604052806117398360008151811061172c57fe5b6020026020010151611bc6565b815260200161174e8360018151811061172c57fe5b81526020016117708360028151811061176357fe5b6020026020010151611bcd565b81526020016117858360038151811061176357fe5b90529392505050565b3f90565b60608060388410156117ec576040805160018082528183019092529060208201818036833701905050905082840160f81b816000815181106117d057fe5b60200101906001600160f81b031916908160001a905350611671565b600060015b8086816117fa57fe5b041561180f57600190910190610100026117f1565b816001016001600160401b038111801561182857600080fd5b506040519080825280601f01601f191660200182016040528015611853576020820181803683370190505b50925084820160370160f81b8360008151811061186c57fe5b60200101906001600160f81b031916908160001a905350600190505b8181116118d8576101008183036101000a87816118a157fe5b04816118a957fe5b0660f81b8382815181106118b957fe5b60200101906001600160f81b031916908160001a905350600101611888565b50509392505050565b606081805190602001206040516020016118fb9190613cc4565b6040516020818303038152906040529050919050565b6040805180820190915260018152600160ff1b60209091015260007f56e81f171bcc55a6ff8345e692c0f86e5b48e01b996cadc001622fb5e363b4218214156119655761195e8585611cc7565b9050611527565b600061197084611ceb565b9050600080611980838987611dc1565b5091509150600061199484848b858c612167565b90506119a0818a612545565b9998505050505050505050565b606060006119ba8361269e565b90506119c8815160c0611792565b816040516020016119da929190613ccd565b604051602081830303815290604052915050919050565b6060816000015182602001518360400151846060015185608001518660a001518760c001516040516020016118fb9796959493929190613cfc565b600060606000611a3b85611ceb565b90506000806000611a4d848a89611dc1565b81519295509093509150158080611a615750815b611ab2576040805162461bcd60e51b815260206004820152601a60248201527f50726f76696465642070726f6f6620697320696e76616c69642e000000000000604482015290519081900360640190fd5b600081611ace5760405180602001604052806000815250611aed565b611aed866001870381518110611ae057fe5b60200260200101516127a7565b919b919a509098505050505050505050565b611b07613903565b506040805180820190915281518152602082810190820152919050565b60606000806000611b34856127c3565b919450925090506000816001811115611b4957fe5b14611b9b576040805162461bcd60e51b815260206004820152601860248201527f496e76616c696420524c502062797465732076616c75652e0000000000000000604482015290519081900360640190fd5b611baa85602001518484612aec565b95945050505050565b6060611503611bc183611aff565b612b99565b6000611503825b6000602182600001511115611c29576040805162461bcd60e51b815260206004820152601a60248201527f496e76616c696420524c5020627974657333322076616c75652e000000000000604482015290519081900360640190fd5b6000806000611c37856127c3565b919450925090506000816001811115611c4c57fe5b14611c9e576040805162461bcd60e51b815260206004820152601a60248201527f496e76616c696420524c5020627974657333322076616c75652e000000000000604482015290519081900360640190fd5b602080860151840180519091841015611cbd5760208490036101000a90045b9695505050505050565b6000611cdb611cd584612d0f565b83612e0b565b5180516020909101209392505050565b60606000611cf883611bb3565b9050600081516001600160401b0381118015611d1357600080fd5b50604051908082528060200260200182016040528015611d4d57816020015b611d3a61391d565b815260200190600190039081611d325790505b50905060005b8251811015611db9576000611d7a848381518110611d6d57fe5b6020026020010151611b24565b90506040518060400160405280828152602001611d9683611bb3565b815250838381518110611da557fe5b602090810291909101015250600101611d53565b509392505050565b60006060818080611dd187612d0f565b905085600080611ddf61391d565b60005b8c5181101561213f578c8181518110611df757fe5b6020026020010151915082840193506001870196508360001415611e6b57815180516020909101208514611e66576040805162461bcd60e51b8152602060048201526011602482015270092dcecc2d8d2c840e4dedee840d0c2e6d607b1b604482015290519081900360640190fd5b611f32565b815151602011611ed257815180516020909101208514611e66576040805162461bcd60e51b815260206004820152601b60248201527f496e76616c6964206c6172676520696e7465726e616c20686173680000000000604482015290519081900360640190fd5b84611ee08360000151612e9f565b14611f32576040805162461bcd60e51b815260206004820152601a60248201527f496e76616c696420696e7465726e616c206e6f64652068617368000000000000604482015290519081900360640190fd5b60208201515160111415611fa1578551841415611f4e5761213f565b6000868581518110611f5c57fe5b602001015160f81c60f81b60f81c9050600083602001518260ff1681518110611f8157fe5b60200260200101519050611f9481612ecb565b9650600194505050612137565b600282602001515114156120ea576000611fba83612f01565b9050600081600081518110611fcb57fe5b016020015160f81c9050600181166002036000611feb8460ff8416612f1f565b90506000611ff98b8a612f1f565b905060006120078383612f4c565b905060ff85166002148061201e575060ff85166003145b15612050578083511480156120335750808251145b1561203d57988901985b50600160ff1b995061213f945050505050565b60ff85161580612063575060ff85166001145b156120b357825181146120835750600160ff1b995061213f945050505050565b6120a4886020015160018151811061209757fe5b6020026020010151612ecb565b9a509750612137945050505050565b60405162461bcd60e51b81526004018080602001828103825260268152602001806143716026913960400191505060405180910390fd5b6040805162461bcd60e51b815260206004820152601d60248201527f526563656976656420616e20756e706172736561626c65206e6f64652e000000604482015290519081900360640190fd5b600101611de2565b50600160ff1b8414866121528786612f1f565b909e909d50909b509950505050505050505050565b60606000839050600087600188038151811061217f57fe5b60200260200101519050600061219482612fb2565b6040805160038082526080820190925291925060009190816020015b6121b861391d565b8152602001906001900390816121b057905050905060008060028460028111156121de57fe5b14156122a8578b51600090156122635760005b60018e510381101561226157600061221b8f838151811061220e57fe5b6020026020010151612fb2565b600281111561222657fe5b141561223757600190910190612259565b6122538e828151811061224657fe5b6020026020010151613088565b51820191505b6001016121f1565b505b61226c86613088565b5161229061227988613088565b61228b6122858f612d0f565b85612f1f565b612f4c565b14801561229c57508651155b156122a657600191505b505b80156122e2576122c06122ba86613088565b89612e0b565b8383815181106122cc57fe5b6020026020010181905250600182019150612526565b60008460028111156122f057fe5b141561235957855161232857612306858961309b565b83838151811061231257fe5b6020026020010181905250600182019150612354565b8483838151811061233557fe5b60200260200101819052506001820191506122c06122ba876001612f1f565b612526565b600061236486613088565b905060006123728289612f4c565b905080156123d3576000612388836000846130e6565b905061239c816123978d613236565b613277565b8686815181106123a857fe5b60200260200101819052506001850194506123c38383612f1f565b92506123cf8983612f1f565b9850505b60006123dd6132bb565b9050825160001415612402576123fb816123f68a6127a7565b61309b565b905061249a565b60008360008151811061241157fe5b016020015160f81c9050612426846001612f1f565b9350600288600281111561243657fe5b14156124715760006124508561244b8c6127a7565b612e0b565b905061246983836124648460000151613236565b613348565b925050612498565b835115612487576000612450856123978c6127a7565b61249582826124648c6127a7565b91505b505b88516124cf576124aa818c61309b565b9050808686815181106124b957fe5b6020026020010181905250600185019450612522565b6124da896001612f1f565b9850808686815181106124e957fe5b6020026020010181905250600185019450612504898c612e0b565b86868151811061251057fe5b60200260200101819052506001850194505b5050505b6125358c60018d0385856133a1565b9c9b505050505050505050505050565b60008061255183612d0f565b905061255b61391d565b84516000906060905b80156126895787600182038151811061257957fe5b6020026020010151935061258c84612fb2565b9250600283600281111561259c57fe5b14156125c75760006125ad85613088565b90506125bf86600083518951036130e6565b955050612673565b60018360028111156125d557fe5b14156126155760006125e685613088565b90506125f886600083518951036130e6565b83519096501561260f5761260c8584613483565b94505b50612673565b600083600281111561262357fe5b1415612673578151156126735760008560018751038151811061264257fe5b602001015160f81c60f81b60f81c905061266286600060018951036130e6565b955061266f858285613348565b9450505b835161267e90613236565b915060001901612564565b50509051805160209091012095945050505050565b60608151600014156126bf575060408051600081526020810190915261097a565b6000805b83518110156126f2578381815181106126d857fe5b6020026020010151518201915080806001019150506126c3565b6000826001600160401b038111801561270a57600080fd5b506040519080825280601f01601f191660200182016040528015612735576020820181803683370190505b50600092509050602081015b855183101561279e57600086848151811061275857fe5b6020026020010151905060006020820190506127768382845161352f565b87858151811061278257fe5b6020026020010151518301925050508280600101935050612741565b50949350505050565b60208101518051606091611503916000198101908110611d6d57fe5b600080600080846000015111612820576040805162461bcd60e51b815260206004820152601860248201527f524c50206974656d2063616e6e6f74206265206e756c6c2e0000000000000000604482015290519081900360640190fd5b6020840151805160001a607f8111612845576000600160009450945094505050612ae5565b60b781116128ba578551607f1982019081106128a8576040805162461bcd60e51b815260206004820152601960248201527f496e76616c696420524c502073686f727420737472696e672e00000000000000604482015290519081900360640190fd5b60019550935060009250612ae5915050565b60bf811161299e57855160b619820190811061291d576040805162461bcd60e51b815260206004820152601f60248201527f496e76616c696420524c50206c6f6e6720737472696e67206c656e6774682e00604482015290519081900360640190fd5b6000816020036101000a6001850151049050808201886000015111612989576040805162461bcd60e51b815260206004820152601860248201527f496e76616c696420524c50206c6f6e6720737472696e672e0000000000000000604482015290519081900360640190fd5b60019091019550935060009250612ae5915050565b60f78111612a1257855160bf198201908110612a01576040805162461bcd60e51b815260206004820152601760248201527f496e76616c696420524c502073686f7274206c6973742e000000000000000000604482015290519081900360640190fd5b600195509350849250612ae5915050565b855160f6198201908110612a6d576040805162461bcd60e51b815260206004820152601d60248201527f496e76616c696420524c50206c6f6e67206c697374206c656e6774682e000000604482015290519081900360640190fd5b6000816020036101000a6001850151049050808201886000015111612ad2576040805162461bcd60e51b815260206004820152601660248201527524b73b30b634b210292628103637b733903634b9ba1760511b604482015290519081900360640190fd5b6001918201965094509250612ae5915050565b9193909250565b60606000826001600160401b0381118015612b0657600080fd5b506040519080825280601f01601f191660200182016040528015612b31576020820181803683370190505b509050805160001415612b45579050611671565b8484016020820160005b60208604811015612b70578251825260209283019290910190600101612b4f565b5080519151601f959095166020036101000a600019019182169119909416179092525092915050565b6060600080612ba7846127c3565b91935090915060019050816001811115612bbd57fe5b14612c0f576040805162461bcd60e51b815260206004820152601760248201527f496e76616c696420524c50206c6973742076616c75652e000000000000000000604482015290519081900360640190fd5b6040805160208082526104208201909252600091816020015b612c30613903565b815260200190600190039081612c285790505090506000835b8651811015612d045760208210612c915760405162461bcd60e51b815260040180806020018281038252602a815260200180614347602a913960400191505060405180910390fd5b600080612cbd6040518060400160405280858c60000151038152602001858c60200151018152506127c3565b509150915060405180604001604052808383018152602001848b6020015101815250858581518110612ceb57fe5b6020908102919091010152600193909301920101612c49565b508152949350505050565b6060600082516002026001600160401b0381118015612d2d57600080fd5b506040519080825280601f01601f191660200182016040528015612d58576020820181803683370190505b50905060005b8351811015612e04576004848281518110612d7557fe5b602001015160f81c60f81b6001600160f81b031916901c828260020281518110612d9b57fe5b60200101906001600160f81b031916908160001a9053506010848281518110612dc057fe5b016020015160f81c81612dcf57fe5b0660f81b828260020260010181518110612de557fe5b60200101906001600160f81b031916908160001a905350600101612d5e565b5092915050565b612e1361391d565b60408051600280825260608201909252600091816020015b6060815260200190600190039081612e2b5790505090506000612e4f856001613573565b9050612e5d6103ef826136ca565b82600081518110612e6a57fe5b6020026020010181905250612e7e8461149f565b82600181518110612e8b57fe5b6020026020010181905250611baa8261379a565b6000602082511015612eb65750602081015161097a565b81806020019051602081101561097557600080fd5b60006060602083600001511015612eec57612ee5836137c9565b9050612ef8565b612ef583611b24565b90505b61167181612e9f565b6060611503612f1a8360200151600081518110611d6d57fe5b612d0f565b606082518210612f3e5750604080516020810190915260008152611503565b6116718383848651036130e6565b6000805b808451118015612f605750808351115b8015612fa55750828181518110612f7357fe5b602001015160f81c60f81b6001600160f81b031916848281518110612f9457fe5b01602001516001600160f81b031916145b1561167157600101612f50565b60208101515160009060111415612fcb5750600061097a565b60028260200151511415613047576000612fe483612f01565b9050600081600081518110612ff557fe5b016020015160f81c90506002811480613011575060ff81166003145b156130215760029250505061097a565b60ff81161580613034575060ff81166001145b156130445760019250505061097a565b50505b6040805162461bcd60e51b8152602060048201526011602482015270496e76616c6964206e6f6465207479706560781b604482015290519081900360640190fd5b606061150361309683612f01565b6137d4565b6130a361391d565b60006130ae8361149f565b90506130b981611aff565b6020850151805160001981019081106130ce57fe5b6020026020010181905250611527846020015161381d565b60608182601f011015613131576040805162461bcd60e51b815260206004820152600e60248201526d736c6963655f6f766572666c6f7760901b604482015290519081900360640190fd5b828284011015613179576040805162461bcd60e51b815260206004820152600e60248201526d736c6963655f6f766572666c6f7760901b604482015290519081900360640190fd5b818301845110156131c5576040805162461bcd60e51b8152602060048201526011602482015270736c6963655f6f75744f66426f756e647360781b604482015290519081900360640190fd5b6060821580156131e4576040519150600082526020820160405261279e565b6040519150601f8416801560200281840101858101878315602002848b0101015b8183101561321d578051835260209283019201613205565b5050858452601f01601f19166040525050949350505050565b606060208251101561324957508061097a565b818051906020012060405160200180828152602001915050604051602081830303815290604052905061097a565b61327f61391d565b60408051600280825260608201909252600091816020015b60608152602001906001900390816132975790505090506000612e4f856000613573565b6132c361391d565b6040805160118082526102408201909252600091816020015b60608152602001906001900390816132dc57905050905060005b815181101561333857604051806040016040528060018152602001600160ff1b81525082828151811061332557fe5b60209081029190910101526001016132f6565b506133428161379a565b91505090565b61335061391d565b60006020835110613369576133648361149f565b61336b565b825b905061337681611aff565b85602001518560ff168151811061338957fe5b6020026020010181905250611baa856020015161381d565b606060008285016001600160401b03811180156133bd57600080fd5b506040519080825280602002602001820160405280156133f757816020015b6133e461391d565b8152602001906001900390816133dc5790505b50905060005b858110156134385786818151811061341157fe5b602002602001015182828151811061342557fe5b60209081029190910101526001016133fd565b5060005b838110156134795784818151811061345057fe5b6020026020010151828783018151811061346657fe5b602090810291909101015260010161343c565b5095945050505050565b61348b61391d565b60408051600280825260608201909252600091816020015b60608152602001906001900390816134a357905050905060006134cf6134c886613088565b6000613573565b90506134dd6103ef826136ca565b826000815181106134ea57fe5b602002602001018190525060208451101561351d57838260018151811061350d57fe5b6020026020010181905250613526565b612e7e8461149f565b611baa8261379a565b8282825b60208110613552578151835260209283019290910190601f1901613533565b905182516020929092036101000a6000190180199091169116179052505050565b6060600082613583576000613586565b60025b90506000600285518161359557fe5b06905060008160020360ff166001600160401b03811180156135b657600080fd5b506040519080825280601f01601f1916602001820160405280156135e1576020820181803683370190505b50905081830160f81b816000815181106135f757fe5b60200101906001600160f81b031916908160001a90535080866040516020018083805190602001908083835b602083106136425780518252601f199092019160209182019101613623565b51815160209384036101000a600019018019909216911617905285519190930192850191508083835b6020831061368a5780518252601f19909201916020918201910161366b565b6001836020036101000a03801982511681845116808217855250505050505090500192505050604051602081830303815290604052935050505092915050565b6060600060028351816136d957fe5b046001600160401b03811180156136ef57600080fd5b506040519080825280601f01601f19166020018201604052801561371a576020820181803683370190505b50905060005b8151811015612e045783816002026001018151811061373b57fe5b602001015160f81c60f81b600485836002028151811061375757fe5b602001015160f81c60f81b6001600160f81b031916901b1782828151811061377b57fe5b60200101906001600160f81b031916908160001a905350600101613720565b6137a261391d565b60006137ad836119ad565b9050604051806040016040528082815260200161178583611bb3565b6060611503826138c6565b60606002826000815181106137e557fe5b016020015160f81c816137f457fe5b0660ff16600014156138125761380b826002612f1f565b905061097a565b61380b826001612f1f565b61382561391d565b600082516001600160401b038111801561383e57600080fd5b5060405190808252806020026020018201604052801561387257816020015b606081526020019060019003908161385d5790505b50905060005b83518110156138bc5761389d84828151811061389057fe5b60200260200101516137c9565b8282815181106138a957fe5b6020908102919091010152600101613878565b506116718161379a565b6060611503826020015160008460000151612aec565b60408051608081018252600080825260208201819052918101829052606081019190915290565b604051806040016040528060008152602001600081525090565b604051806040016040528060608152602001606081525090565b60006001600160401b0383111561394a57fe5b61395d601f8401601f19166020016142db565b905082815283838301111561397157600080fd5b828260208301376000602084830101529392505050565b803561097a8161432e565b8051801515811461097a57600080fd5b600082601f8301126139b3578081fd5b61167183833560208501613937565b80356002811061097a57600080fd5b6000806000606084860312156139e5578283fd5b83356139f08161432e565b92506020840135613a008161432e565b915060408401356001600160401b03811115613a1a578182fd5b613a26868287016139a3565b9150509250925092565b600080600060608486031215613a44578283fd5b8335613a4f8161432e565b92506020840135915060408401356001600160401b03811115613a1a578182fd5b60008060408385031215613a82578182fd5b8235613a8d8161432e565b915060208301356001600160401b03811115613aa7578182fd5b613ab3858286016139a3565b9150509250929050565b600060208284031215613ace578081fd5b61167182613993565b600060208284031215613ae8578081fd5b5051919050565b600060208284031215613b00578081fd5b81356001600160401b03811115613b15578182fd5b8201601f81018413613b25578182fd5b61152784823560208401613937565b600060c08284031215613b45578081fd5b60405160c081018181106001600160401b0382111715613b6157fe5b8060405250825181526020830151602082015260408301516040820152606083015160608201526080830151613b968161432e565b6080820152613ba760a08401613993565b60a08201529392505050565b600060208284031215613bc4578081fd5b81356001600160401b0380821115613bda578283fd5b9083019060e08286031215613bed578283fd5b613bf760e06142db565b8235815260208301356020820152613c11604084016139c2565b6040820152613c2260608401613988565b6060820152613c3360808401613988565b608082015260a083013560a082015260c083013582811115613c53578485fd5b613c5f878286016139a3565b60c08301525095945050505050565b6001600160a01b03169052565b60008151808452613c938160208601602086016142fe565b601f01601f19169290920160200192915050565b60609190911b6bffffffffffffffffffffffff1916815260140190565b90815260200190565b60008351613cdf8184602088016142fe565b835190830190613cf38183602088016142fe565b01949350505050565b600088825287602083015260028710613d1157fe5b8660f81b60408301526bffffffffffffffffffffffff19808760601b166041840152808660601b166055840152508360698301528251613d588160898501602087016142fe565b9190910160890198975050505050505050565b6001600160a01b0391909116815260200190565b6001600160a01b03929092168252602082015260400190565b6001600160a01b039390931683526020830191909152604082015260600190565b600060e08201905060018060a01b038085168352835160208401526020840151604084015260408401516060840152606084015160808401528060808501511660a08401525060a0830151151560c08301529392505050565b901515815260200190565b6020810160038310613e2b57fe5b91905290565b60208082526025908201527f53746f7261676520736c6f742068617320616c7265616479206265656e20707260408201526437bb32b71760d91b606082015260800190565b60208082526026908201527f4163636f756e742073746174652068617320616c7265616479206265656e20706040820152653937bb32b71760d11b606082015260800190565b6020808252603e908201527f416c6c206163636f756e7473206d75737420626520636f6d6d6974746564206260408201527f65666f726520636f6d706c6574696e672061207472616e736974696f6e2e0000606082015260800190565b602080825260409082018190527f53746f7261676520736c6f742076616c7565207761736e2774206368616e6765908201527f64206f722068617320616c7265616479206265656e20636f6d6d69747465642e606082015260800190565b6020808252605b908201527f4f564d5f53746174655472616e736974696f6e65723a2050726f76696465642060408201527f4c3120636f6e747261637420636f6465206861736820646f6573206e6f74206d60608201527f61746368204c3220636f6e747261637420636f646520686173682e0000000000608082015260a00190565b6020808252603f908201527f416c6c2073746f72616765206d75737420626520636f6d6d697474656420626560408201527f666f726520636f6d6d697474696e67206163636f756e74207374617465732e00606082015260800190565b60208082526038908201527f4e6f7420656e6f7567682067617320746f2065786563757465207472616e736160408201527f6374696f6e2064657465726d696e6973746963616c6c792e0000000000000000606082015260800190565b6020808252603b908201527f4163636f756e74207374617465207761736e2774206368616e676564206f722060408201527f68617320616c7265616479206265656e20636f6d6d69747465642e0000000000606082015260800190565b6020808252603d908201527f416c6c2073746f72616765206d75737420626520636f6d6d697474656420626560408201527f666f726520636f6d706c6574696e672061207472616e736974696f6e2e000000606082015260800190565b60208082526031908201527f46756e6374696f6e206d7573742062652063616c6c656420647572696e67207460408201527034329031b7b93932b1ba10383430b9b29760791b606082015260800190565b6020808252601d908201527f496e76616c6964207472616e73616374696f6e2070726f76696465642e000000604082015260600190565b60208082526038908201527f436f6e7472616374206d757374206265207665726966696564206265666f726560408201527f2070726f76696e6720612073746f7261676520736c6f742e0000000000000000606082015260800190565b600060408252835160408301526020840151606083015260408401516002811061427957fe5b60808381019190915260608501516001600160a01b031660a08401528401516142a560c0840182613c6e565b5060a084015160e083015260c084015160e06101008401526142cb610120840182613c7b565b9150506116716020830184613c6e565b6040518181016001600160401b03811182821017156142f657fe5b604052919050565b60005b83811015614319578181015183820152602001614301565b83811115614328576000848401525b50505050565b6001600160a01b038116811461434357600080fd5b5056fe50726f766964656420524c50206c6973742065786365656473206d6178206c697374206c656e6774682e52656365697665642061206e6f6465207769746820616e20756e6b6e6f776e20707265666978a264697066735822122051b8b6564576ec57c2cbc871349f9a40f949ed901b915b4d4535b38d923c270e64736f6c634300070600334372656174652063616e206f6e6c7920626520646f6e6520627920746865204f564d5f467261756456657269666965722ea264697066735822122082e8c9d2e3a5ce99b8066dd4a4327756ef0e3a13b07baeea28bd02d7048733f764736f6c63430007060033",
  "linkReferences": {},
  "deployedLinkReferences": {}
}