{
  "_format": "hh-sol-artifact-1",
  "contractName": "TestLib_RingBuffer",
  "sourceName": "contracts/test-libraries/utils/TestLib_RingBuffer.sol",
  "abi": [
    {
      "inputs": [
        {
          "internalType": "uint256",
          "name": "_index",
          "type": "uint256"
        }
      ],
      "name": "get",
      "outputs": [
        {
          "internalType": "bytes32",
          "name": "",
          "type": "bytes32"
        }
      ],
      "stateMutability": "view",
      "type": "function"
    },
    {
      "inputs": [
        {
          "internalType": "bytes32",
          "name": "_value",
          "type": "bytes32"
        },
        {
          "internalType": "bytes27",
          "name": "_extraData",
          "type": "bytes27"
        }
      ],
      "name": "push",
      "outputs": [],
      "stateMutability": "nonpayable",
      "type": "function"
    }
  ],
  "bytecode": "0x60806040523480156100195760008061001661001f565b50505b5061008a565b632a2a7adb598160e01b8152600481016020815285602082015260005b8681101561005757808601518282016040015260200161003c565b506020828760640184336000905af158600e01573d6000803e3d6000fd5b3d6001141558600a015760016000f35b505050565b610764806100996000396000f3fe6080604052348015610019576000806100166105a9565b50505b506004361061003f5760003560e01c80632015276c1461004d5780639507d39a14610062575b60008061004a6105a9565b50505b61006061005b3660046106ef565b61008b565b005b61007561007036600461073a565b61009b565b604051610082919061075b565b60405180910390f35b610097600083836100ad565b5050565b60006100a7818361020c565b92915050565b60006100b88461045a565b905060006100d58260400151869067ffffffffffffffff166104fc565b9050806100e0610614565b6100f457601080826100f0610674565b5050505b806100fd610614565b826080015183510364ffffffffff16106101a4578460060161011d610614565b826080015164ffffffffff1610156101835781604001805160010167ffffffffffffffff169052608082015164ffffffffff166060830152815164ffffffffff16608083015261017c6040830151869067ffffffffffffffff166104fc565b90506101a4565b60028160008282610192610614565b0292505081906101a0610674565b5050505b6000826080015183510364ffffffffff1690508482600101600083815260200190815260200160002081906101d7610674565b50505082600001805160010164ffffffffff16905264ffffffffff1984166020840152610204868461051c565b505050505050565b6000806102188461045a565b9050805164ffffffffff1683106102755760405162461bcd60e51b815260206004820152601460248201527324b73232bc1037baba1037b3103137bab732399760611b6044820152606401604051809103906102726105a9565b50505b60006102908260400151869067ffffffffffffffff166104fc565b905060006102b8836040015160010167ffffffffffffffff16876104fc90919063ffffffff16565b9050826080015164ffffffffff16851061035c576000836080015164ffffffffff1686039050826102e7610614565b81106103395760405162461bcd60e51b815260206004820152601460248201527324b73232bc1037baba1037b3103137bab732399760611b6044820152606401604051809103906103366105a9565b50505b60008181526001840160205260409020610351610614565b9450505050506100a7565b600085846080015164ffffffffff16039050836060015164ffffffffff16846080015164ffffffffff16116103d75760405162461bcd60e51b815260206004820152601460248201527324b73232bc1037baba1037b3103137bab732399760611b6044820152606401604051809103906103d46105a9565b50505b816103e0610614565b8111156104335760405162461bcd60e51b815260206004820152601460248201527324b73232bc1037baba1037b3103137bab732399760611b6044820152606401604051809103906104306105a9565b50505b6001820160008284610443610614565b038152602001908152602001600020610351610614565b6104626106c2565b60008261046d610614565b905060008360010161047d610614565b905064ffffffffff8281169064ffffffffff1984169067ffffffffffffffff841690604085811c821691606887901c16905160a08101604090815264ffffffffff968716825264ffffffffff19909516602082015267ffffffffffffffff90931693830193909352831660608201529116608082015292505050919050565b600060028206156105105782600401610515565b826002015b9392505050565b6000808083519050600084602001518281179450905060006040860151905060008660600151905060008760800151606881901b604084901b851717965090508689610566610614565b1461057a5786808a610576610674565b5050505b8589600101610587610614565b1461059e57858060018b0161059a610674565b5050505b505050505050505050565b632a2a7adb598160e01b8152600481016020815285602082015260005b868110156105e15780860151828201604001526020016105c6565b506020828760640184336000905af158600e01573d6000803e3d6000fd5b3d6001141558600a015760016000f35b505050565b6303daa959598160e01b8152836004820152602081602483336000905af158600e01573d6000803e3d6000fd5b3d6001141558600a015760016000f35b8051935060005b604081101561066f57600082820152602001610658565b505050565b6322bd64c0598160e01b8152836004820152846024820152600081604483336000905af158600e01573d6000803e3d6000fd5b3d6001141558600a015760016000f35b600081526020610658565b60405160a08101604090815260008083526020830181905290820181905260608201819052608082015290565b6000806040838503121561070a5781826107076105a9565b50505b82359150602083013564ffffffffff198116811461072f57818261072c6105a9565b50505b809150509250929050565b6000602082840312156107545780816107516105a9565b50505b5035919050565b9081526020019056",
  "linkReferences": {},
  "deployedLinkReferences": {}
}