{
  "_format": "hh-sol-artifact-1",
  "contractName": "OVM_DeployerWhitelist",
  "sourceName": "contracts/optimistic-ethereum/OVM/predeploys/OVM_DeployerWhitelist.sol",
  "abi": [
    {
      "inputs": [],
      "name": "allowArbitraryDeployment",
      "outputs": [
        {
          "internalType": "bool",
          "name": "",
          "type": "bool"
        }
      ],
      "stateMutability": "view",
      "type": "function"
    },
    {
      "inputs": [],
      "name": "enableArbitraryContractDeployment",
      "outputs": [],
      "stateMutability": "nonpayable",
      "type": "function"
    },
    {
      "inputs": [
        {
          "internalType": "address",
          "name": "_owner",
          "type": "address"
        },
        {
          "internalType": "bool",
          "name": "_allowArbitraryDeployment",
          "type": "bool"
        }
      ],
      "name": "initialize",
      "outputs": [],
      "stateMutability": "nonpayable",
      "type": "function"
    },
    {
      "inputs": [],
      "name": "initialized",
      "outputs": [
        {
          "internalType": "bool",
          "name": "",
          "type": "bool"
        }
      ],
      "stateMutability": "view",
      "type": "function"
    },
    {
      "inputs": [
        {
          "internalType": "address",
          "name": "_deployer",
          "type": "address"
        }
      ],
      "name": "isDeployerAllowed",
      "outputs": [
        {
          "internalType": "bool",
          "name": "",
          "type": "bool"
        }
      ],
      "stateMutability": "nonpayable",
      "type": "function"
    },
    {
      "inputs": [],
      "name": "owner",
      "outputs": [
        {
          "internalType": "address",
          "name": "",
          "type": "address"
        }
      ],
      "stateMutability": "view",
      "type": "function"
    },
    {
      "inputs": [
        {
          "internalType": "bool",
          "name": "_allowArbitraryDeployment",
          "type": "bool"
        }
      ],
      "name": "setAllowArbitraryDeployment",
      "outputs": [],
      "stateMutability": "nonpayable",
      "type": "function"
    },
    {
      "inputs": [
        {
          "internalType": "address",
          "name": "_owner",
          "type": "address"
        }
      ],
      "name": "setOwner",
      "outputs": [],
      "stateMutability": "nonpayable",
      "type": "function"
    },
    {
      "inputs": [
        {
          "internalType": "address",
          "name": "_deployer",
          "type": "address"
        },
        {
          "internalType": "bool",
          "name": "_isWhitelisted",
          "type": "bool"
        }
      ],
      "name": "setWhitelistedDeployer",
      "outputs": [],
      "stateMutability": "nonpayable",
      "type": "function"
    },
    {
      "inputs": [
        {
          "internalType": "address",
          "name": "",
          "type": "address"
        }
      ],
      "name": "whitelist",
      "outputs": [
        {
          "internalType": "bool",
          "name": "",
          "type": "bool"
        }
      ],
      "stateMutability": "view",
      "type": "function"
    }
  ],
  "bytecode": "0x608060405234801561001057600080fd5b506104ef806100206000396000f3fe608060405234801561001057600080fd5b506004361061009e5760003560e01c80638da5cb5b116100665780638da5cb5b1461014b5780639b19251a1461016f578063b1540a0114610195578063bdc7b54f146101bb578063d533887a146101c35761009e565b806308fd6322146100a357806313af4035146100d3578063158ef93e146100f9578063400ada75146101155780637ec630dd14610143575b600080fd5b6100d1600480360360408110156100b957600080fd5b506001600160a01b03813516906020013515156101e2565b005b6100d1600480360360208110156100e957600080fd5b50356001600160a01b031661025c565b6101016102d5565b604080519115158252519081900360200190f35b6100d16004803603604081101561012b57600080fd5b506001600160a01b03813516906020013515156102de565b610101610330565b61015361033e565b604080516001600160a01b039092168252519081900360200190f35b6101016004803603602081101561018557600080fd5b50356001600160a01b0316610353565b610101600480360360208110156101ab57600080fd5b50356001600160a01b0316610368565b6100d16103b1565b6100d1600480360360208110156101d957600080fd5b50351515610416565b6000546201000090046001600160a01b031633146102315760405162461bcd60e51b815260040180806020018281038252603a815260200180610480603a913960400191505060405180910390fd5b6001600160a01b03919091166000908152600160205260409020805460ff1916911515919091179055565b6000546201000090046001600160a01b031633146102ab5760405162461bcd60e51b815260040180806020018281038252603a815260200180610480603a913960400191505060405180910390fd5b600080546001600160a01b03909216620100000262010000600160b01b0319909216919091179055565b60005460ff1681565b60005460ff161515600114156102f35761032c565b60008054600160ff199091161761ff001916610100831515021762010000600160b01b031916620100006001600160a01b038516021790555b5050565b600054610100900460ff1681565b6000546201000090046001600160a01b031681565b60016020526000908152604090205460ff1681565b6000805460ff161580610388575060005460ff6101009091041615156001145b806103ab57506001600160a01b03821660009081526001602052604090205460ff165b92915050565b6000546201000090046001600160a01b031633146104005760405162461bcd60e51b815260040180806020018281038252603a815260200180610480603a913960400191505060405180910390fd5b61040a6001610416565b610414600061025c565b565b6000546201000090046001600160a01b031633146104655760405162461bcd60e51b815260040180806020018281038252603a815260200180610480603a913960400191505060405180910390fd5b600080549115156101000261ff001990921691909117905556fe46756e6374696f6e2063616e206f6e6c792062652063616c6c656420627920746865206f776e6572206f66207468697320636f6e74726163742ea2646970667358221220ab92debd964f9e50bdf9d2754b5ad6904a7e58c662e56aa9d3dedda8c5c92d4f64736f6c63430007060033",
  "linkReferences": {},
  "deployedLinkReferences": {}
}