{
  "abi": [
    {
      "inputs": [
        {
          "internalType": "contract AttestationStation",
          "name": "_attestationStation",
          "type": "address"
        },
        {
          "internalType": "address",
          "name": "_allowlistAttestor",
          "type": "address"
        },
        {
          "internalType": "address",
          "name": "_coinbaseQuestAttestor",
          "type": "address"
        },
        {
          "internalType": "address",
          "name": "_optimistInviter",
          "type": "address"
        }
      ],
      "stateMutability": "nonpayable",
      "type": "constructor"
    },
    {
      "inputs": [],
      "name": "ALLOWLIST_ATTESTOR",
      "outputs": [
        {
          "internalType": "address",
          "name": "",
          "type": "address"
        }
      ],
      "stateMutability": "view",
      "type": "function"
    },
    {
      "inputs": [],
      "name": "ATTESTATION_STATION",
      "outputs": [
        {
          "internalType": "contract AttestationStation",
          "name": "",
          "type": "address"
        }
      ],
      "stateMutability": "view",
      "type": "function"
    },
    {
      "inputs": [],
      "name": "COINBASE_QUEST_ATTESTOR",
      "outputs": [
        {
          "internalType": "address",
          "name": "",
          "type": "address"
        }
      ],
      "stateMutability": "view",
      "type": "function"
    },
    {
      "inputs": [],
      "name": "COINBASE_QUEST_ELIGIBLE_ATTESTATION_KEY",
      "outputs": [
        {
          "internalType": "bytes32",
          "name": "",
          "type": "bytes32"
        }
      ],
      "stateMutability": "view",
      "type": "function"
    },
    {
      "inputs": [],
      "name": "OPTIMIST_CAN_MINT_ATTESTATION_KEY",
      "outputs": [
        {
          "internalType": "bytes32",
          "name": "",
          "type": "bytes32"
        }
      ],
      "stateMutability": "view",
      "type": "function"
    },
    {
      "inputs": [],
      "name": "OPTIMIST_INVITER",
      "outputs": [
        {
          "internalType": "address",
          "name": "",
          "type": "address"
        }
      ],
      "stateMutability": "view",
      "type": "function"
    },
    {
      "inputs": [
        {
          "internalType": "address",
          "name": "_claimer",
          "type": "address"
        }
      ],
      "name": "isAllowedToMint",
      "outputs": [
        {
          "internalType": "bool",
          "name": "",
          "type": "bool"
        }
      ],
      "stateMutability": "view",
      "type": "function"
    },
    {
      "inputs": [],
      "name": "version",
      "outputs": [
        {
          "internalType": "string",
          "name": "",
          "type": "string"
        }
      ],
      "stateMutability": "view",
      "type": "function"
    }
  ],
  "bytecode": {
    "object": "0x61016060405234801561001157600080fd5b506040516108e33803806108e38339810160408190526100309161007c565b6001608052600060a081905260c0526001600160a01b0393841660e0529183166101005282166101205216610140526100db565b6001600160a01b038116811461007957600080fd5b50565b6000806000806080858703121561009257600080fd5b845161009d81610064565b60208601519094506100ae81610064565b60408601519093506100bf81610064565b60608601519092506100d081610064565b939692955090935050565b60805160a05160c05160e0516101005161012051610140516107936101506000396000818161010e0152610329015260008181609201526102e201526000818161018b01526102a101526000818161016401526104ab0152600061025001526000610227015260006101fe01526107936000f3fe608060405234801561001057600080fd5b50600436106100885760003560e01c8063819f7e841161005b578063819f7e8414610130578063db083d711461015f578063db3c316314610186578063e7bd804e146101ad57600080fd5b80633ac52df71461008d5780634813d8a6146100d157806354fd4d50146100f45780635e4f489a14610109575b600080fd5b6100b47f000000000000000000000000000000000000000000000000000000000000000081565b6040516001600160a01b0390911681526020015b60405180910390f35b6100e46100df366004610524565b6101c8565b60405190151581526020016100c8565b6100fc6101f7565b6040516100c89190610584565b6100b47f000000000000000000000000000000000000000000000000000000000000000081565b61015176636f696e626173652e71756573742d656c696769626c6560481b81565b6040519081526020016100c8565b6100b47f000000000000000000000000000000000000000000000000000000000000000081565b6100b47f000000000000000000000000000000000000000000000000000000000000000081565b610151701bdc1d1a5b5a5cdd0b98d85b8b5b5a5b9d607a1b81565b60006101d38261029a565b806101e257506101e2826102db565b806101f157506101f182610322565b92915050565b60606102227f000000000000000000000000000000000000000000000000000000000000000061036f565b61024b7f000000000000000000000000000000000000000000000000000000000000000061036f565b6102747f000000000000000000000000000000000000000000000000000000000000000061036f565b604051602001610286939291906105b7565b604051602081830303815290604052905090565b60006101f17f000000000000000000000000000000000000000000000000000000000000000083701bdc1d1a5b5a5cdd0b98d85b8b5b5a5b9d607a1b610478565b60006101f17f00000000000000000000000000000000000000000000000000000000000000008376636f696e626173652e71756573742d656c696769626c6560481b610478565b60006101f17f0000000000000000000000000000000000000000000000000000000000000000837f6f7074696d6973742e63616e2d6d696e742d66726f6d2d696e76697465000000610478565b6060816000036103965750506040805180820190915260018152600360fc1b602082015290565b8160005b81156103c057806103aa81610627565b91506103b99050600a83610656565b915061039a565b60008167ffffffffffffffff8111156103db576103db61066a565b6040519080825280601f01601f191660200182016040528015610405576020820181803683370190505b5090505b84156104705761041a600183610680565b9150610427600a86610697565b6104329060306106ab565b60f81b818381518110610447576104476106c3565b60200101906001600160f81b031916908160001a905350610469600a86610656565b9450610409565b949350505050565b6040516329b42cb560e01b81526001600160a01b03848116600483015283811660248301526044820183905260009182917f000000000000000000000000000000000000000000000000000000000000000016906329b42cb590606401600060405180830381865afa1580156104f2573d6000803e3d6000fd5b505050506040513d6000823e601f3d908101601f1916820160405261051a91908101906106d9565b5111949350505050565b60006020828403121561053657600080fd5b81356001600160a01b038116811461054d57600080fd5b9392505050565b60005b8381101561056f578181015183820152602001610557565b8381111561057e576000848401525b50505050565b60208152600082518060208401526105a3816040850160208701610554565b601f01601f19169190910160400192915050565b600084516105c9818460208901610554565b8083019050601760f91b80825285516105e9816001850160208a01610554565b60019201918201528351610604816002840160208801610554565b0160020195945050505050565b634e487b7160e01b600052601160045260246000fd5b60006001820161063957610639610611565b5060010190565b634e487b7160e01b600052601260045260246000fd5b60008261066557610665610640565b500490565b634e487b7160e01b600052604160045260246000fd5b60008282101561069257610692610611565b500390565b6000826106a6576106a6610640565b500690565b600082198211156106be576106be610611565b500190565b634e487b7160e01b600052603260045260246000fd5b6000602082840312156106eb57600080fd5b815167ffffffffffffffff8082111561070357600080fd5b818401915084601f83011261071757600080fd5b8151818111156107295761072961066a565b604051601f8201601f19908116603f011681019083821181831017156107515761075161066a565b8160405282815287602084870101111561076a57600080fd5b61077b836020830160208801610554565b97965050505050505056fea164736f6c634300080f000a",
    "linkReferences": {}
  },
  "methodIdentifiers": {
    "ALLOWLIST_ATTESTOR()": "db3c3163",
    "ATTESTATION_STATION()": "db083d71",
    "COINBASE_QUEST_ATTESTOR()": "3ac52df7",
    "COINBASE_QUEST_ELIGIBLE_ATTESTATION_KEY()": "819f7e84",
    "OPTIMIST_CAN_MINT_ATTESTATION_KEY()": "e7bd804e",
    "OPTIMIST_INVITER()": "5e4f489a",
    "isAllowedToMint(address)": "4813d8a6",
    "version()": "54fd4d50"
  },
  "id": 54
}