{
  "_format": "hh-sol-artifact-1",
  "contractName": "ERC721Mock",
  "sourceName": "contracts/ERC721Mock.sol",
  "abi": [
    {
      "inputs": [
        {
          "internalType": "string",
          "name": "name",
          "type": "string"
        },
        {
          "internalType": "string",
          "name": "symbol",
          "type": "string"
        },
        {
          "internalType": "uint256",
          "name": "tID_start",
          "type": "uint256"
        },
        {
          "internalType": "string",
          "name": "baseURI",
          "type": "string"
        }
      ],
      "stateMutability": "nonpayable",
      "type": "constructor"
    },
    {
      "anonymous": false,
      "inputs": [
        {
          "indexed": true,
          "internalType": "address",
          "name": "owner",
          "type": "address"
        },
        {
          "indexed": true,
          "internalType": "address",
          "name": "approved",
          "type": "address"
        },
        {
          "indexed": true,
          "internalType": "uint256",
          "name": "tokenId",
          "type": "uint256"
        }
      ],
      "name": "Approval",
      "type": "event"
    },
    {
      "anonymous": false,
      "inputs": [
        {
          "indexed": true,
          "internalType": "address",
          "name": "owner",
          "type": "address"
        },
        {
          "indexed": true,
          "internalType": "address",
          "name": "operator",
          "type": "address"
        },
        {
          "indexed": false,
          "internalType": "bool",
          "name": "approved",
          "type": "bool"
        }
      ],
      "name": "ApprovalForAll",
      "type": "event"
    },
    {
      "anonymous": false,
      "inputs": [
        {
          "indexed": true,
          "internalType": "address",
          "name": "previousOwner",
          "type": "address"
        },
        {
          "indexed": true,
          "internalType": "address",
          "name": "newOwner",
          "type": "address"
        }
      ],
      "name": "OwnershipTransferred",
      "type": "event"
    },
    {
      "anonymous": false,
      "inputs": [
        {
          "indexed": true,
          "internalType": "address",
          "name": "from",
          "type": "address"
        },
        {
          "indexed": true,
          "internalType": "address",
          "name": "to",
          "type": "address"
        },
        {
          "indexed": true,
          "internalType": "uint256",
          "name": "tokenId",
          "type": "uint256"
        }
      ],
      "name": "Transfer",
      "type": "event"
    },
    {
      "inputs": [
        {
          "internalType": "address",
          "name": "to",
          "type": "address"
        },
        {
          "internalType": "uint256",
          "name": "tokenId",
          "type": "uint256"
        }
      ],
      "name": "approve",
      "outputs": [],
      "stateMutability": "nonpayable",
      "type": "function"
    },
    {
      "inputs": [
        {
          "internalType": "address",
          "name": "owner",
          "type": "address"
        }
      ],
      "name": "balanceOf",
      "outputs": [
        {
          "internalType": "uint256",
          "name": "",
          "type": "uint256"
        }
      ],
      "stateMutability": "view",
      "type": "function"
    },
    {
      "inputs": [],
      "name": "baseURI",
      "outputs": [
        {
          "internalType": "string",
          "name": "",
          "type": "string"
        }
      ],
      "stateMutability": "view",
      "type": "function"
    },
    {
      "inputs": [
        {
          "internalType": "uint256",
          "name": "tokenId",
          "type": "uint256"
        }
      ],
      "name": "burn",
      "outputs": [],
      "stateMutability": "nonpayable",
      "type": "function"
    },
    {
      "inputs": [
        {
          "internalType": "uint256",
          "name": "tokenId",
          "type": "uint256"
        }
      ],
      "name": "exists",
      "outputs": [
        {
          "internalType": "bool",
          "name": "",
          "type": "bool"
        }
      ],
      "stateMutability": "view",
      "type": "function"
    },
    {
      "inputs": [
        {
          "internalType": "uint256",
          "name": "tokenId",
          "type": "uint256"
        }
      ],
      "name": "getApproved",
      "outputs": [
        {
          "internalType": "address",
          "name": "",
          "type": "address"
        }
      ],
      "stateMutability": "view",
      "type": "function"
    },
    {
      "inputs": [],
      "name": "getLastTID",
      "outputs": [
        {
          "internalType": "uint256",
          "name": "",
          "type": "uint256"
        }
      ],
      "stateMutability": "view",
      "type": "function"
    },
    {
      "inputs": [],
      "name": "getName",
      "outputs": [
        {
          "internalType": "string",
          "name": "",
          "type": "string"
        }
      ],
      "stateMutability": "view",
      "type": "function"
    },
    {
      "inputs": [],
      "name": "getSymbol",
      "outputs": [
        {
          "internalType": "string",
          "name": "",
          "type": "string"
        }
      ],
      "stateMutability": "view",
      "type": "function"
    },
    {
      "inputs": [
        {
          "internalType": "uint256",
          "name": "tokenId",
          "type": "uint256"
        }
      ],
      "name": "getTokenURI",
      "outputs": [
        {
          "internalType": "string",
          "name": "",
          "type": "string"
        }
      ],
      "stateMutability": "view",
      "type": "function"
    },
    {
      "inputs": [
        {
          "internalType": "address",
          "name": "owner",
          "type": "address"
        },
        {
          "internalType": "address",
          "name": "operator",
          "type": "address"
        }
      ],
      "name": "isApprovedForAll",
      "outputs": [
        {
          "internalType": "bool",
          "name": "",
          "type": "bool"
        }
      ],
      "stateMutability": "view",
      "type": "function"
    },
    {
      "inputs": [
        {
          "internalType": "address",
          "name": "to",
          "type": "address"
        },
        {
          "internalType": "uint256",
          "name": "tokenId",
          "type": "uint256"
        }
      ],
      "name": "mint",
      "outputs": [],
      "stateMutability": "nonpayable",
      "type": "function"
    },
    {
      "inputs": [
        {
          "internalType": "address",
          "name": "recipient",
          "type": "address"
        },
        {
          "internalType": "string",
          "name": "tokenURI",
          "type": "string"
        }
      ],
      "name": "mintNFT",
      "outputs": [
        {
          "internalType": "uint256",
          "name": "",
          "type": "uint256"
        }
      ],
      "stateMutability": "nonpayable",
      "type": "function"
    },
    {
      "inputs": [],
      "name": "name",
      "outputs": [
        {
          "internalType": "string",
          "name": "",
          "type": "string"
        }
      ],
      "stateMutability": "view",
      "type": "function"
    },
    {
      "inputs": [],
      "name": "owner",
      "outputs": [
        {
          "internalType": "address",
          "name": "",
          "type": "address"
        }
      ],
      "stateMutability": "view",
      "type": "function"
    },
    {
      "inputs": [
        {
          "internalType": "uint256",
          "name": "tokenId",
          "type": "uint256"
        }
      ],
      "name": "ownerOf",
      "outputs": [
        {
          "internalType": "address",
          "name": "",
          "type": "address"
        }
      ],
      "stateMutability": "view",
      "type": "function"
    },
    {
      "inputs": [],
      "name": "renounceOwnership",
      "outputs": [],
      "stateMutability": "nonpayable",
      "type": "function"
    },
    {
      "inputs": [
        {
          "internalType": "address",
          "name": "to",
          "type": "address"
        },
        {
          "internalType": "uint256",
          "name": "tokenId",
          "type": "uint256"
        },
        {
          "internalType": "bytes",
          "name": "_data",
          "type": "bytes"
        }
      ],
      "name": "safeMint",
      "outputs": [],
      "stateMutability": "nonpayable",
      "type": "function"
    },
    {
      "inputs": [
        {
          "internalType": "address",
          "name": "to",
          "type": "address"
        },
        {
          "internalType": "uint256",
          "name": "tokenId",
          "type": "uint256"
        }
      ],
      "name": "safeMint",
      "outputs": [],
      "stateMutability": "nonpayable",
      "type": "function"
    },
    {
      "inputs": [
        {
          "internalType": "address",
          "name": "from",
          "type": "address"
        },
        {
          "internalType": "address",
          "name": "to",
          "type": "address"
        },
        {
          "internalType": "uint256",
          "name": "tokenId",
          "type": "uint256"
        }
      ],
      "name": "safeTransferFrom",
      "outputs": [],
      "stateMutability": "nonpayable",
      "type": "function"
    },
    {
      "inputs": [
        {
          "internalType": "address",
          "name": "from",
          "type": "address"
        },
        {
          "internalType": "address",
          "name": "to",
          "type": "address"
        },
        {
          "internalType": "uint256",
          "name": "tokenId",
          "type": "uint256"
        },
        {
          "internalType": "bytes",
          "name": "_data",
          "type": "bytes"
        }
      ],
      "name": "safeTransferFrom",
      "outputs": [],
      "stateMutability": "nonpayable",
      "type": "function"
    },
    {
      "inputs": [
        {
          "internalType": "address",
          "name": "operator",
          "type": "address"
        },
        {
          "internalType": "bool",
          "name": "approved",
          "type": "bool"
        }
      ],
      "name": "setApprovalForAll",
      "outputs": [],
      "stateMutability": "nonpayable",
      "type": "function"
    },
    {
      "inputs": [
        {
          "internalType": "string",
          "name": "newBaseURI",
          "type": "string"
        }
      ],
      "name": "setBaseURI",
      "outputs": [],
      "stateMutability": "nonpayable",
      "type": "function"
    },
    {
      "inputs": [
        {
          "internalType": "uint256",
          "name": "tokenId",
          "type": "uint256"
        },
        {
          "internalType": "string",
          "name": "_tokenURI",
          "type": "string"
        }
      ],
      "name": "setTokenURI",
      "outputs": [],
      "stateMutability": "nonpayable",
      "type": "function"
    },
    {
      "inputs": [
        {
          "internalType": "bytes4",
          "name": "interfaceId",
          "type": "bytes4"
        }
      ],
      "name": "supportsInterface",
      "outputs": [
        {
          "internalType": "bool",
          "name": "",
          "type": "bool"
        }
      ],
      "stateMutability": "view",
      "type": "function"
    },
    {
      "inputs": [],
      "name": "symbol",
      "outputs": [
        {
          "internalType": "string",
          "name": "",
          "type": "string"
        }
      ],
      "stateMutability": "view",
      "type": "function"
    },
    {
      "inputs": [
        {
          "internalType": "uint256",
          "name": "index",
          "type": "uint256"
        }
      ],
      "name": "tokenByIndex",
      "outputs": [
        {
          "internalType": "uint256",
          "name": "",
          "type": "uint256"
        }
      ],
      "stateMutability": "view",
      "type": "function"
    },
    {
      "inputs": [
        {
          "internalType": "address",
          "name": "owner",
          "type": "address"
        },
        {
          "internalType": "uint256",
          "name": "index",
          "type": "uint256"
        }
      ],
      "name": "tokenOfOwnerByIndex",
      "outputs": [
        {
          "internalType": "uint256",
          "name": "",
          "type": "uint256"
        }
      ],
      "stateMutability": "view",
      "type": "function"
    },
    {
      "inputs": [
        {
          "internalType": "uint256",
          "name": "tokenId",
          "type": "uint256"
        }
      ],
      "name": "tokenURI",
      "outputs": [
        {
          "internalType": "string",
          "name": "",
          "type": "string"
        }
      ],
      "stateMutability": "view",
      "type": "function"
    },
    {
      "inputs": [],
      "name": "totalSupply",
      "outputs": [
        {
          "internalType": "uint256",
          "name": "",
          "type": "uint256"
        }
      ],
      "stateMutability": "view",
      "type": "function"
    },
    {
      "inputs": [
        {
          "internalType": "address",
          "name": "from",
          "type": "address"
        },
        {
          "internalType": "address",
          "name": "to",
          "type": "address"
        },
        {
          "internalType": "uint256",
          "name": "tokenId",
          "type": "uint256"
        }
      ],
      "name": "transferFrom",
      "outputs": [],
      "stateMutability": "nonpayable",
      "type": "function"
    },
    {
      "inputs": [
        {
          "internalType": "address",
          "name": "newOwner",
          "type": "address"
        }
      ],
      "name": "transferOwnership",
      "outputs": [],
      "stateMutability": "nonpayable",
      "type": "function"
    }
  ],
  "bytecode": "0x60806040523480156200001c5760008062000019620005d2565b50505b506040516200471738038062004717833981810160405260808110156200004d576000806200004a620005d2565b50505b8101908080516040519392919084640100000000821115620000795760008062000076620005d2565b50505b838201915060208201858111156200009b5760008062000098620005d2565b50505b8251866001820283011164010000000082111715620000c457600080620000c1620005d2565b50505b8083526020830192505050908051906020019080838360005b83811015620000fa578082015181840152602081019050620000dd565b50505050905090810190601f168015620001285780820380516001836020036101000a031916815260200191505b5060405260200180516040519392919084640100000000821115620001575760008062000154620005d2565b50505b83820191506020820185811115620001795760008062000176620005d2565b50505b8251866001820283011164010000000082111715620001a2576000806200019f620005d2565b50505b8083526020830192505050908051906020019080838360005b83811015620001d8578082015181840152602081019050620001bb565b50505050905090810190601f168015620002065780820380516001836020036101000a031916815260200191505b5060405260200180519060200190929190805160405193929190846401000000008211156200023f576000806200023c620005d2565b50505b8382019150602082018581111562000261576000806200025e620005d2565b50505b82518660018202830111640100000000821117156200028a5760008062000287620005d2565b50505b8083526020830192505050908051906020019080838360005b83811015620002c0578082015181840152602081019050620002a3565b50505050905090810190601f168015620002ee5780820380516001836020036101000a031916815260200191505b5060405250505083836000620003096200047c60201b60201c565b9050806000806101000a816200031e62000642565b8173ffffffffffffffffffffffffffffffffffffffff021916908373ffffffffffffffffffffffffffffffffffffffff160217906200035c620006a7565b5050508073ffffffffffffffffffffffffffffffffffffffff16600073ffffffffffffffffffffffffffffffffffffffff167f8be0079c531659141344cd1fd0a4f28419497f9722a3daafe3b4186f6b6457e060405160405180910390a350620003d36301ffc9a760e01b6200048e60201b60201c565b8160079080519060200190620003eb9291906200070e565b508060089080519060200190620004049291906200070e565b506200041d6380ac58cd60e01b6200048e60201b60201c565b62000435635b5e139f60e01b6200048e60201b60201c565b6200044d63780e9d6360e01b6200048e60201b60201c565b50506200046081620005b660201b60201c565b81600b81906200046f620006a7565b5050505050505062000863565b60005a62000489620007da565b905090565b63ffffffff60e01b817bffffffffffffffffffffffffffffffffffffffffffffffffffffffff1916141562000536576040517f08c379a000000000000000000000000000000000000000000000000000000000815260040180806020018281038252601c8152602001807f4552433136353a20696e76616c696420696e74657266616365206964000000008152506020019150506040518091039062000533620005d2565b50505b6001806000837bffffffffffffffffffffffffffffffffffffffffffffffffffffffff19167bffffffffffffffffffffffffffffffffffffffffffffffffffffffff1916815260200190815260200160002060006101000a816200059962000642565b8160ff02191690831515021790620005b0620006a7565b50505050565b80600a9080519060200190620005ce9291906200070e565b5050565b632a2a7adb598160e01b8152600481016020815285602082015260005b868110156200060f578086015181604084010152602081019050620005ef565b506020828760640184336000905af158600e01573d6000803e3d6000fd5b3d6001141558600a015760016000f35b505050565b6303daa959598160e01b8152836004820152602081602483336000905af158600e01573d6000803e3d6000fd5b3d6001141558600a015760016000f35b8051935060005b6040811015620006a25760008183015260208101905062000686565b505050565b6322bd64c0598160e01b8152836004820152846024820152600081604483336000905af158600e01573d6000803e3d6000fd5b3d6001141558600a015760016000f35b60005b60408110156200070957600081830152602081019050620006ed565b505050565b82806200071a62000642565b600181600116156101000203166002900490600052602060002090601f0160209004810192826200075a5760008562000752620006a7565b5050620007c7565b82601f106200078057805160ff1916838001178562000778620006a7565b5050620007c7565b8280016001018562000791620006a7565b50508215620007c7579182015b82811115620007c657825182620007b4620006a7565b5050916020019190600101906200079e565b5b509050620007d6919062000839565b5090565b6373509064598160e01b8152602081600483336000905af158600e01573d6000803e3d6000fd5b3d6001141558600a015760016000f35b8051935060005b6040811015620008345760008183015260208101905062000818565b505050565b5b808211156200085f5760008160009062000853620006a7565b5050506001016200083a565b5090565b613ea480620008736000396000f3fe6080604052348015610019576000806100166137fd565b50505b50600436106101f95760003560e01c806355f804b311610118578063a1448194116100ab578063dd690c931161007a578063dd690c9314610f1f578063e985e9c514610f3d578063eacabe1414610fc0578063f2fde38b146110d3576101f9565b8063a144819414610c96578063a22cb46514610ced578063b88d4fde14610d46578063c87b56dd14610e6f576101f9565b8063715018a6116100e7578063715018a614610acc5780638832e6e314610ad65780638da5cb5b14610bdf57806395d89b4114610c13576101f9565b806355f804b3146108ea5780636352211e146109875780636c0360eb146109e857806370a0823114610a6b576101f9565b806323b872dd1161019057806342842e0e1161015f57806342842e0e146107a457806342966c681461081b5780634f558e79146108525780634f6ccce71461089f576101f9565b806323b872dd146105bb5780632f745c59146106325780633bb3a24d1461069d57806340c10f191461074d576101f9565b806315070401116101cc57806315070401146103ae578063162094c41461043157806317d7de7c1461051a57806318160ddd1461059d576101f9565b806301ffc9a71461020757806306fdde0314610273578063081812fc146102f6578063095ea7b314610357575b6000806102046137fd565b50505b61025b60048036036020811015610226576000806102236137fd565b50505b8101908080357bffffffffffffffffffffffffffffffffffffffffffffffffffffffff19169060200190929190505050611120565b60405180821515815260200191505060405180910390f35b61027b61118f565b6040518080602001828103825283818151815260200191508051906020019080838360005b838110156102bb5780820151818401526020810190506102a0565b50505050905090810190601f1680156102e85780820380516001836020036101000a031916815260200191505b509250505060405180910390f35b61032b60048036036020811015610315576000806103126137fd565b50505b810190808035906020019092919050505061124d565b604051808273ffffffffffffffffffffffffffffffffffffffff16815260200191505060405180910390f35b6103ac60048036036040811015610376576000806103736137fd565b50505b81019080803573ffffffffffffffffffffffffffffffffffffffff169060200190929190803590602001909291905050506112f8565b005b6103b661144e565b6040518080602001828103825283818151815260200191508051906020019080838360005b838110156103f65780820151818401526020810190506103db565b50505050905090810190601f1680156104235780820380516001836020036101000a031916815260200191505b509250505060405180910390f35b610518600480360360408110156104505760008061044d6137fd565b50505b8101908080359060200190929190803590602001906401000000008111156104805760008061047d6137fd565b50505b82018360208201111561049b576000806104986137fd565b50505b803590602001918460018302840111640100000000831117156104c6576000806104c36137fd565b50505b91908080601f016020809104026020016040519081016040528093929190818152602001838380828437600081840152601f19601f82011690508083019250505050505050919291929050505061145d565b005b61052261146b565b6040518080602001828103825283818151815260200191508051906020019080838360005b83811015610562578082015181840152602081019050610547565b50505050905090810190601f16801561058f5780820380516001836020036101000a031916815260200191505b509250505060405180910390f35b6105a561147a565b6040518082815260200191505060405180910390f35b610630600480360360608110156105da576000806105d76137fd565b50505b81019080803573ffffffffffffffffffffffffffffffffffffffff169060200190929190803573ffffffffffffffffffffffffffffffffffffffff1690602001909291908035906020019092919050505061148b565b005b610687600480360360408110156106515760008061064e6137fd565b50505b81019080803573ffffffffffffffffffffffffffffffffffffffff1690602001909291908035906020019092919050505061150a565b6040518082815260200191505060405180910390f35b6106d2600480360360208110156106bc576000806106b96137fd565b50505b8101908080359060200190929190505050611565565b6040518080602001828103825283818151815260200191508051906020019080838360005b838110156107125780820151818401526020810190506106f7565b50505050905090810190601f16801561073f5780820380516001836020036101000a031916815260200191505b509250505060405180910390f35b6107a26004803603604081101561076c576000806107696137fd565b50505b81019080803573ffffffffffffffffffffffffffffffffffffffff16906020019092919080359060200190929190505050611577565b005b610819600480360360608110156107c3576000806107c06137fd565b50505b81019080803573ffffffffffffffffffffffffffffffffffffffff169060200190929190803573ffffffffffffffffffffffffffffffffffffffff16906020019092919080359060200190929190505050611585565b005b6108506004803603602081101561083a576000806108376137fd565b50505b81019080803590602001909291905050506115a5565b005b610887600480360360208110156108715760008061086e6137fd565b50505b81019080803590602001909291905050506115b1565b60405180821515815260200191505060405180910390f35b6108d4600480360360208110156108be576000806108bb6137fd565b50505b81019080803590602001909291905050506115c3565b6040518082815260200191505060405180910390f35b61098560048036036020811015610909576000806109066137fd565b50505b810190808035906020019064010000000081111561092f5760008061092c6137fd565b50505b82018360208201111561094a576000806109476137fd565b50505b80359060200191846001830284011164010000000083111715610975576000806109726137fd565b50505b90919293919293905050506115e6565b005b6109bc600480360360208110156109a6576000806109a36137fd565b50505b8101908080359060200190929190505050611637565b604051808273ffffffffffffffffffffffffffffffffffffffff16815260200191505060405180910390f35b6109f061166e565b6040518080602001828103825283818151815260200191508051906020019080838360005b83811015610a30578082015181840152602081019050610a15565b50505050905090810190601f168015610a5d5780820380516001836020036101000a031916815260200191505b509250505060405180910390f35b610ab660048036036020811015610a8a57600080610a876137fd565b50505b81019080803573ffffffffffffffffffffffffffffffffffffffff16906020019092919050505061167d565b6040518082815260200191505060405180910390f35b610ad461175b565b005b610bdd60048036036060811015610af557600080610af26137fd565b50505b81019080803573ffffffffffffffffffffffffffffffffffffffff1690602001909291908035906020019092919080359060200190640100000000811115610b4557600080610b426137fd565b50505b820183602082011115610b6057600080610b5d6137fd565b50505b80359060200191846001830284011164010000000083111715610b8b57600080610b886137fd565b50505b91908080601f016020809104026020016040519081016040528093929190818152602001838380828437600081840152601f19601f8201169050808301925050505050505091929192905050506118e8565b005b610be76118f8565b604051808273ffffffffffffffffffffffffffffffffffffffff16815260200191505060405180910390f35b610c1b611928565b6040518080602001828103825283818151815260200191508051906020019080838360005b83811015610c5b578082015181840152602081019050610c40565b50505050905090810190601f168015610c885780820380516001836020036101000a031916815260200191505b509250505060405180910390f35b610ceb60048036036040811015610cb557600080610cb26137fd565b50505b81019080803573ffffffffffffffffffffffffffffffffffffffff169060200190929190803590602001909291905050506119e6565b005b610d4460048036036040811015610d0c57600080610d096137fd565b50505b81019080803573ffffffffffffffffffffffffffffffffffffffff1690602001909291908035151590602001909291905050506119f4565b005b610e6d60048036036080811015610d6557600080610d626137fd565b50505b81019080803573ffffffffffffffffffffffffffffffffffffffff169060200190929190803573ffffffffffffffffffffffffffffffffffffffff1690602001909291908035906020019092919080359060200190640100000000811115610dd557600080610dd26137fd565b50505b820183602082011115610df057600080610ded6137fd565b50505b80359060200191846001830284011164010000000083111715610e1b57600080610e186137fd565b50505b91908080601f016020809104026020016040519081016040528093929190818152602001838380828437600081840152601f19601f820116905080830192505050505050509192919290505050611bc3565b005b610ea460048036036020811015610e8e57600080610e8b6137fd565b50505b8101908080359060200190929190505050611c44565b6040518080602001828103825283818151815260200191508051906020019080838360005b83811015610ee4578082015181840152602081019050610ec9565b50505050905090810190601f168015610f115780820380516001836020036101000a031916815260200191505b509250505060405180910390f35b610f27611d82565b6040518082815260200191505060405180910390f35b610fa860048036036040811015610f5c57600080610f596137fd565b50505b81019080803573ffffffffffffffffffffffffffffffffffffffff169060200190929190803573ffffffffffffffffffffffffffffffffffffffff169060200190929190505050611d93565b60405180821515815260200191505060405180910390f35b6110bd60048036036040811015610fdf57600080610fdc6137fd565b50505b81019080803573ffffffffffffffffffffffffffffffffffffffff16906020019092919080359060200190640100000000811115611025576000806110226137fd565b50505b8201836020820111156110405760008061103d6137fd565b50505b8035906020019184600183028401116401000000008311171561106b576000806110686137fd565b50505b91908080601f016020809104026020016040519081016040528093929190818152602001838380828437600081840152601f19601f820116905080830192505050505050509192919290505050611e2e565b6040518082815260200191505060405180910390f35b61111e600480360360208110156110f2576000806110ef6137fd565b50505b81019080803573ffffffffffffffffffffffffffffffffffffffff169060200190929190505050611f41565b005b600060016000837bffffffffffffffffffffffffffffffffffffffffffffffffffffffff19167bffffffffffffffffffffffffffffffffffffffffffffffffffffffff1916815260200190815260200160002060009061117e61386b565b906101000a900460ff169050919050565b606060078061119c61386b565b600181600116156101000203166002900480601f016020809104026020016040519081016040528092919081815260200182806111d761386b565b600181600116156101000203166002900480156112435780601f1061121157610100808361120361386b565b040283529160200191611243565b820191906000526020600020905b8161122861386b565b8152906001019060200180831161121f57829003601f168201915b5050505050905090565b60006112588261215c565b6112b6576040517f08c379a000000000000000000000000000000000000000000000000000000000815260040180806020018281038252602c815260200180613da2602c9139604001915050604051809103906112b36137fd565b50505b600560008381526020019081526020016000206000906112d461386b565b906101000a900473ffffffffffffffffffffffffffffffffffffffff169050919050565b600061130382611637565b90508073ffffffffffffffffffffffffffffffffffffffff168373ffffffffffffffffffffffffffffffffffffffff161415611393576040517f08c379a0000000000000000000000000000000000000000000000000000000008152600401808060200182810382526021815260200180613e5260219139604001915050604051809103906113906137fd565b50505b8073ffffffffffffffffffffffffffffffffffffffff166113b2612179565b73ffffffffffffffffffffffffffffffffffffffff1614806113e157506113e0816113db612179565b611d93565b5b61143f576040517f08c379a0000000000000000000000000000000000000000000000000000000008152600401808060200182810382526038815260200180613cf5603891396040019150506040518091039061143c6137fd565b50505b6114498383612189565b505050565b6060611458611928565b905090565b6114678282612252565b5050565b606061147561118f565b905090565b600061148660036122e5565b905090565b61149c611496612179565b826122fa565b6114fa576040517f08c379a0000000000000000000000000000000000000000000000000000000008152600401808060200182810382526031815260200180613e7360319139604001915050604051809103906114f76137fd565b50505b6115058383836123f7565b505050565b600061155d82600260008673ffffffffffffffffffffffffffffffffffffffff1673ffffffffffffffffffffffffffffffffffffffff16815260200190815260200160002061264c90919063ffffffff16565b905092915050565b606061157082611c44565b9050919050565b6115818282612666565b5050565b6115a083838360405180602001604052806000815250611bc3565b505050565b6115ae8161286c565b50565b60006115bc8261215c565b9050919050565b6000806115da8360036129ad90919063ffffffff16565b50905080915050919050565b61163382828080601f016020809104026020016040519081016040528093929190818152602001838380828437600081840152601f19601f820116905080830192505050505050506129d9565b5050565b600061166782604051806060016040528060298152602001613d576029913960036129f39092919063ffffffff16565b9050919050565b606061167861166e565b905090565b60008073ffffffffffffffffffffffffffffffffffffffff168273ffffffffffffffffffffffffffffffffffffffff16141561170d576040517f08c379a000000000000000000000000000000000000000000000000000000000815260040180806020018281038252602a815260200180613d2d602a91396040019150506040518091039061170a6137fd565b50505b611754600260008473ffffffffffffffffffffffffffffffffffffffff1673ffffffffffffffffffffffffffffffffffffffff168152602001908152602001600020612a12565b9050919050565b611763612179565b73ffffffffffffffffffffffffffffffffffffffff166117816118f8565b73ffffffffffffffffffffffffffffffffffffffff1614611813576040517f08c379a00000000000000000000000000000000000000000000000000000000081526004018080602001828103825260208152602001807f4f776e61626c653a2063616c6c6572206973206e6f7420746865206f776e6572815250602001915050604051809103906118106137fd565b50505b600073ffffffffffffffffffffffffffffffffffffffff1660008061183661386b565b906101000a900473ffffffffffffffffffffffffffffffffffffffff1673ffffffffffffffffffffffffffffffffffffffff167f8be0079c531659141344cd1fd0a4f28419497f9722a3daafe3b4186f6b6457e060405160405180910390a360008060006101000a816118a761386b565b8173ffffffffffffffffffffffffffffffffffffffff021916908373ffffffffffffffffffffffffffffffffffffffff160217906118e36138ce565b505050565b6118f3838383612a27565b505050565b60008060009061190661386b565b906101000a900473ffffffffffffffffffffffffffffffffffffffff16905090565b606060088061193561386b565b600181600116156101000203166002900480601f0160208091040260200160405190810160405280929190818152602001828061197061386b565b600181600116156101000203166002900480156119dc5780601f106119aa57610100808361199c61386b565b0402835291602001916119dc565b820191906000526020600020905b816119c161386b565b815290600101906020018083116119b857829003601f168201915b5050505050905090565b6119f08282612aa1565b5050565b6119fc612179565b73ffffffffffffffffffffffffffffffffffffffff168273ffffffffffffffffffffffffffffffffffffffff161415611aa6576040517f08c379a00000000000000000000000000000000000000000000000000000000081526004018080602001828103825260198152602001807f4552433732313a20617070726f766520746f2063616c6c65720000000000000081525060200191505060405180910390611aa36137fd565b50505b8060066000611ab3612179565b73ffffffffffffffffffffffffffffffffffffffff1673ffffffffffffffffffffffffffffffffffffffff16815260200190815260200160002060008473ffffffffffffffffffffffffffffffffffffffff1673ffffffffffffffffffffffffffffffffffffffff16815260200190815260200160002060006101000a81611b3961386b565b8160ff02191690831515021790611b4e6138ce565b5050508173ffffffffffffffffffffffffffffffffffffffff16611b70612179565b73ffffffffffffffffffffffffffffffffffffffff167f17307eab39ab6107e8899845ad3d59bd9653f200f220920489ca2b5937696c318360405180821515815260200191505060405180910390a35050565b611bd4611bce612179565b836122fa565b611c32576040517f08c379a0000000000000000000000000000000000000000000000000000000008152600401808060200182810382526031815260200180613e736031913960400191505060405180910390611c2f6137fd565b50505b611c3e84848484612abf565b50505050565b6060611c4f8261215c565b611cad576040517f08c379a000000000000000000000000000000000000000000000000000000000815260040180806020018281038252602f815260200180613e23602f913960400191505060405180910390611caa6137fd565b50505b60006009600084815260200190815260200160002080611ccb61386b565b600181600116156101000203166002900480601f01602080910402602001604051908101604052809291908181526020018280611d0661386b565b60018160011615610100020316600290048015611d725780601f10611d40576101008083611d3261386b565b040283529160200191611d72565b820191906000526020600020905b81611d5761386b565b81529060010190602001808311611d4e57829003601f168201915b5050505050905080915050919050565b6000600b611d8e61386b565b905090565b6000600660008473ffffffffffffffffffffffffffffffffffffffff1673ffffffffffffffffffffffffffffffffffffffff16815260200190815260200160002060008373ffffffffffffffffffffffffffffffffffffffff1673ffffffffffffffffffffffffffffffffffffffff168152602001908152602001600020600090611e1c61386b565b906101000a900460ff16905092915050565b6000611e38612179565b73ffffffffffffffffffffffffffffffffffffffff16611e566118f8565b73ffffffffffffffffffffffffffffffffffffffff1614611ee8576040517f08c379a00000000000000000000000000000000000000000000000000000000081526004018080602001828103825260208152602001807f4f776e61626c653a2063616c6c6572206973206e6f7420746865206f776e657281525060200191505060405180910390611ee56137fd565b50505b611efb83600b611ef661386b565b611577565b611f0e600b611f0861386b565b8361145d565b6001600b60008282611f1e61386b565b019250508190611f2c6138ce565b505050600b611f3961386b565b905092915050565b611f49612179565b73ffffffffffffffffffffffffffffffffffffffff16611f676118f8565b73ffffffffffffffffffffffffffffffffffffffff1614611ff9576040517f08c379a00000000000000000000000000000000000000000000000000000000081526004018080602001828103825260208152602001807f4f776e61626c653a2063616c6c6572206973206e6f7420746865206f776e657281525060200191505060405180910390611ff66137fd565b50505b600073ffffffffffffffffffffffffffffffffffffffff168173ffffffffffffffffffffffffffffffffffffffff161415612088576040517f08c379a0000000000000000000000000000000000000000000000000000000008152600401808060200182810382526026815260200180613c7f60269139604001915050604051809103906120856137fd565b50505b8073ffffffffffffffffffffffffffffffffffffffff166000806120aa61386b565b906101000a900473ffffffffffffffffffffffffffffffffffffffff1673ffffffffffffffffffffffffffffffffffffffff167f8be0079c531659141344cd1fd0a4f28419497f9722a3daafe3b4186f6b6457e060405160405180910390a3806000806101000a8161211a61386b565b8173ffffffffffffffffffffffffffffffffffffffff021916908373ffffffffffffffffffffffffffffffffffffffff160217906121566138ce565b50505050565b6000612172826003612b3a90919063ffffffff16565b9050919050565b60005a612184613933565b905090565b816005600083815260200190815260200160002060006101000a816121ac61386b565b8173ffffffffffffffffffffffffffffffffffffffff021916908373ffffffffffffffffffffffffffffffffffffffff160217906121e86138ce565b505050808273ffffffffffffffffffffffffffffffffffffffff1661220c83611637565b73ffffffffffffffffffffffffffffffffffffffff167f8c5be1e5ebec7d5bd14f71427d1e84f3dd0314c0f7b2291e5b200ac8c7c3b92560405160405180910390a45050565b61225b8261215c565b6122b9576040517f08c379a000000000000000000000000000000000000000000000000000000000815260040180806020018281038252602c815260200180613dce602c9139604001915050604051809103906122b66137fd565b50505b806009600084815260200190815260200160002090805190602001906122e0929190613990565b505050565b60006122f382600001612b54565b9050919050565b60006123058261215c565b612363576040517f08c379a000000000000000000000000000000000000000000000000000000000815260040180806020018281038252602c815260200180613cc9602c9139604001915050604051809103906123606137fd565b50505b600061236e83611637565b90508073ffffffffffffffffffffffffffffffffffffffff168473ffffffffffffffffffffffffffffffffffffffff1614806123dd57508373ffffffffffffffffffffffffffffffffffffffff166123c58461124d565b73ffffffffffffffffffffffffffffffffffffffff16145b806123ee57506123ed8185611d93565b5b91505092915050565b8273ffffffffffffffffffffffffffffffffffffffff1661241782611637565b73ffffffffffffffffffffffffffffffffffffffff161461248c576040517f08c379a0000000000000000000000000000000000000000000000000000000008152600401808060200182810382526029815260200180613dfa60299139604001915050604051809103906124896137fd565b50505b600073ffffffffffffffffffffffffffffffffffffffff168273ffffffffffffffffffffffffffffffffffffffff16141561251b576040517f08c379a0000000000000000000000000000000000000000000000000000000008152600401808060200182810382526024815260200180613ca560249139604001915050604051809103906125186137fd565b50505b612526838383612b6c565b612531600082612189565b61258281600260008673ffffffffffffffffffffffffffffffffffffffff1673ffffffffffffffffffffffffffffffffffffffff168152602001908152602001600020612b7190919063ffffffff16565b506125d481600260008573ffffffffffffffffffffffffffffffffffffffff1673ffffffffffffffffffffffffffffffffffffffff168152602001908152602001600020612b8b90919063ffffffff16565b506125eb81836003612ba59092919063ffffffff16565b50808273ffffffffffffffffffffffffffffffffffffffff168473ffffffffffffffffffffffffffffffffffffffff167fddf252ad1be2c89b69c2b068fc378daa952ba7f163c4a11628f55a4df523b3ef60405160405180910390a4505050565b600061265b8360000183612bda565b60001c905092915050565b600073ffffffffffffffffffffffffffffffffffffffff168273ffffffffffffffffffffffffffffffffffffffff161415612712576040517f08c379a00000000000000000000000000000000000000000000000000000000081526004018080602001828103825260208152602001807f4552433732313a206d696e7420746f20746865207a65726f20616464726573738152506020019150506040518091039061270f6137fd565b50505b61271b8161215c565b15612797576040517f08c379a000000000000000000000000000000000000000000000000000000000815260040180806020018281038252601c8152602001807f4552433732313a20746f6b656e20616c7265616479206d696e74656400000000815250602001915050604051809103906127946137fd565b50505b6127a360008383612b6c565b6127f481600260008573ffffffffffffffffffffffffffffffffffffffff1673ffffffffffffffffffffffffffffffffffffffff168152602001908152602001600020612b8b90919063ffffffff16565b5061280b81836003612ba59092919063ffffffff16565b50808273ffffffffffffffffffffffffffffffffffffffff16600073ffffffffffffffffffffffffffffffffffffffff167fddf252ad1be2c89b69c2b068fc378daa952ba7f163c4a11628f55a4df523b3ef60405160405180910390a45050565b600061287782611637565b905061288581600084612b6c565b612890600083612189565b600060096000848152602001908152602001600020806128ae61386b565b60018160011615610100020316600290049050146128e6576009600083815260200190815260200160002060006128e59190613a49565b5b61293782600260008473ffffffffffffffffffffffffffffffffffffffff1673ffffffffffffffffffffffffffffffffffffffff168152602001908152602001600020612b7190919063ffffffff16565b5061294c826003612c7b90919063ffffffff16565b5081600073ffffffffffffffffffffffffffffffffffffffff168273ffffffffffffffffffffffffffffffffffffffff167fddf252ad1be2c89b69c2b068fc378daa952ba7f163c4a11628f55a4df523b3ef60405160405180910390a45050565b6000806000806129c08660000186612c95565b915091508160001c8160001c9350935050509250929050565b80600a90805190602001906129ef929190613990565b5050565b6000612a06846000018460001b84612d53565b60001c90509392505050565b6000612a2082600001612e67565b9050919050565b612a318383612666565b612a3e6000848484612e7f565b612a9c576040517f08c379a0000000000000000000000000000000000000000000000000000000008152600401808060200182810382526032815260200180613c4d6032913960400191505060405180910390612a996137fd565b50505b505050565b612abb828260405180602001604052806000815250612a27565b5050565b612aca8484846123f7565b612ad684848484612e7f565b612b34576040517f08c379a0000000000000000000000000000000000000000000000000000000008152600401808060200182810382526032815260200180613c4d6032913960400191505060405180910390612b316137fd565b50505b50505050565b6000612b4c836000018360001b6130a1565b905092915050565b60008160000180612b6361386b565b90509050919050565b505050565b6000612b83836000018360001b6130cb565b905092915050565b6000612b9d836000018360001b61320a565b905092915050565b6000612bd1846000018460001b8473ffffffffffffffffffffffffffffffffffffffff1660001b6132a3565b90509392505050565b6000818360000180612bea61386b565b905011612c4b576040517f08c379a0000000000000000000000000000000000000000000000000000000008152600401808060200182810382526022815260200180613c2b6022913960400191505060405180910390612c486137fd565b50505b826000018281612c5961386b565b8110612c6157fe5b90600052602060002001612c7361386b565b905092915050565b6000612c8d836000018360001b6133c8565b905092915050565b600080828460000180612ca661386b565b905011612d07576040517f08c379a0000000000000000000000000000000000000000000000000000000008152600401808060200182810382526022815260200180613d806022913960400191505060405180910390612d046137fd565b50505b6000846000018481612d1761386b565b8110612d1f57fe5b9060005260206000209060020201905080600001612d3b61386b565b81600101612d4761386b565b92509250509250929050565b600080846001016000858152602001908152602001600020612d7361386b565b905060008114158390612e2a576040517f08c379a00000000000000000000000000000000000000000000000000000000081526004018080602001828103825283818151815260200191508051906020019080838360005b83811015612de6578082015181840152602081019050612dcb565b50505050905090810190601f168015612e135780820380516001836020036101000a031916815260200191505b509250505060405180910390612e276137fd565b50505b50846000016001820381612e3c61386b565b8110612e4457fe5b9060005260206000209060020201600101612e5d61386b565b9150509392505050565b60008160000180612e7661386b565b90509050919050565b6000612ea08473ffffffffffffffffffffffffffffffffffffffff16613558565b612ead5760019050613099565b600061301763150b7a0260e01b612ec2612179565b888787604051602401808573ffffffffffffffffffffffffffffffffffffffff1681526020018473ffffffffffffffffffffffffffffffffffffffff16815260200183815260200180602001828103825283818151815260200191508051906020019080838360005b83811015612f46578082015181840152602081019050612f2b565b50505050905090810190601f168015612f735780820380516001836020036101000a031916815260200191505b5095505050505050604051602081830303815290604052907bffffffffffffffffffffffffffffffffffffffffffffffffffffffff19166020820180517bffffffffffffffffffffffffffffffffffffffffffffffffffffffff8381831617835250505050604051806060016040528060328152602001613c4d603291398773ffffffffffffffffffffffffffffffffffffffff166135729092919063ffffffff16565b90506000818060200190516020811015613039576000806130366137fd565b50505b8101908080519060200190929190505050905063150b7a0260e01b7bffffffffffffffffffffffffffffffffffffffffffffffffffffffff1916817bffffffffffffffffffffffffffffffffffffffffffffffffffffffff191614925050505b949350505050565b6000808360010160008481526020019081526020016000206130c161386b565b1415905092915050565b6000808360010160008481526020019081526020016000206130eb61386b565b9050600081146131fe57600060018203905060006001866000018061310e61386b565b9050039050600086600001828161312361386b565b811061312b57fe5b9060005260206000200161313d61386b565b90508087600001848161314e61386b565b811061315657fe5b90600052602060002001819061316a6138ce565b5050506001830187600101600083815260200190815260200160002081906131906138ce565b50505086600001806131a061386b565b806131a757fe5b600190038181906000526020600020016000906131c26138ce565b5050906131cd6138ce565b50508660010160008781526020019081526020016000206000906131ef6138ce565b50506001945050505050613204565b60009150505b92915050565b6000613216838361358a565b613298578260000182908060018161322c61386b565b0180826132376138ce565b505080915050600190039060005260206000200160009091909190915061325c6138ce565b5050826000018061326b61386b565b9050836001016000848152602001908152602001600020819061328c6138ce565b5050506001905061329d565b600090505b92915050565b6000808460010160008581526020019081526020016000206132c361386b565b90506000811415613383578460000160405180604001604052808681526020018581525090806001816132f461386b565b0180826132ff6138ce565b5050809150506001900390600052602060002090600202016000909190919091506000820151816000016133316138ce565b50506020820151816001016133446138ce565b50505050846000018061335561386b565b905085600101600086815260200190815260200160002081906133766138ce565b50505060019150506133c1565b8285600001600183038161339561386b565b811061339d57fe5b906000526020600020906002020160010181906133b86138ce565b50505060009150505b9392505050565b6000808360010160008481526020019081526020016000206133e861386b565b90506000811461354c57600060018203905060006001866000018061340b61386b565b9050039050600086600001828161342061386b565b811061342857fe5b906000526020600020906002020190508087600001848161344761386b565b811061344f57fe5b90600052602060002090600202016000820161346961386b565b816000016134756138ce565b50506001820161348361386b565b8160010161348f6138ce565b505090505060018301876001016000836000016134aa61386b565b815260200190815260200160002081906134c26138ce565b50505086600001806134d261386b565b806134d957fe5b600190038181906000526020600020906002020160008082016000906134fd6138ce565b50506001820160009061350e6138ce565b505050509061351b6138ce565b505086600101600087815260200190815260200160002060009061353d6138ce565b50506001945050505050613552565b60009150505b92915050565b60008082613564613aa1565b905060008111915050919050565b606061358184846000856135b4565b90509392505050565b6000808360010160008481526020019081526020016000206135aa61386b565b1415905092915050565b60606135bf85613558565b61363a576040517f08c379a000000000000000000000000000000000000000000000000000000000815260040180806020018281038252601d8152602001807f416464726573733a2063616c6c20746f206e6f6e2d636f6e7472616374000000815250602001915050604051809103906136376137fd565b50505b6000808673ffffffffffffffffffffffffffffffffffffffff1685876040518082805190602001908083835b602083106136895780518252602082019150602081019050602083039250613666565b6001836020036101000a03801982511681845116808217855250505050505090500191505060006040518083038185875a6136c2613b04565b505050505050925050503d80600081146136f8576040519150601f19603f3d011682016040523d82523d6000602084013e6136fd565b606091505b509150915061370d828286613719565b92505050949350505050565b60608315613729578290506137f6565b60008351111561374a57825180846020016137426137fd565b5050506137f5565b816040517f08c379a00000000000000000000000000000000000000000000000000000000081526004018080602001828103825283818151815260200191508051906020019080838360005b838110156137b1578082015181840152602081019050613796565b50505050905090810190601f1680156137de5780820380516001836020036101000a031916815260200191505b5092505050604051809103906137f26137fd565b50505b5b9392505050565b632a2a7adb598160e01b8152600481016020815285602082015260005b8681101561383857808601518160408401015260208101905061381a565b506020828760640184336000905af158600e01573d6000803e3d6000fd5b3d6001141558600a015760016000f35b505050565b6303daa959598160e01b8152836004820152602081602483336000905af158600e01573d6000803e3d6000fd5b3d6001141558600a015760016000f35b8051935060005b60408110156138c9576000818301526020810190506138af565b505050565b6322bd64c0598160e01b8152836004820152846024820152600081604483336000905af158600e01573d6000803e3d6000fd5b3d6001141558600a015760016000f35b60005b604081101561392e57600081830152602081019050613914565b505050565b6373509064598160e01b8152602081600483336000905af158600e01573d6000803e3d6000fd5b3d6001141558600a015760016000f35b8051935060005b604081101561398b57600081830152602081019050613971565b505050565b828061399a61386b565b600181600116156101000203166002900490600052602060002090601f0160209004810192826139d6576000856139cf6138ce565b5050613a38565b82601f106139f857805160ff191683800117856139f16138ce565b5050613a38565b82800160010185613a076138ce565b50508215613a38579182015b82811115613a3757825182613a266138ce565b505091602001919060010190613a13565b5b509050613a459190613c04565b5090565b5080613a5361386b565b6001816001161561010002031660029004600082613a6f6138ce565b505080601f10613a7f5750613a9e565b601f016020900490600052602060002090810190613a9d9190613c04565b5b50565b638435035b598160e01b8152836004820152602081602483336000905af158600e01573d6000803e3d6000fd5b3d6001141558600a015760016000f35b8051935060005b6040811015613aff57600081830152602081019050613ae5565b505050565b6385979f76598160e01b8152613b43565b600081905081831115613b26578290505b92915050565b600081905081831015613b3d578290505b92915050565b836004820152846024820152606060448201528760648201526084810160005b89811015613b7e578089015181830152602081019050613b63565b506060828a60a40184336000905af158600e01573d6000803e3d6000fd5b3d6001141558600a015760016000f35b815160408301513d6000853e8c8c82606087013350600060045af15059613bd38e3d613b2c565b8d01613bdf8187613b15565b5b82811015613bf75760008152602081019050613be0565b50839e5050505050505050565b5b80821115613c2657600081600090613c1b6138ce565b505050600101613c05565b509056fe456e756d657261626c655365743a20696e646578206f7574206f6620626f756e64734552433732313a207472616e7366657220746f206e6f6e20455243373231526563656976657220696d706c656d656e7465724f776e61626c653a206e6577206f776e657220697320746865207a65726f20616464726573734552433732313a207472616e7366657220746f20746865207a65726f20616464726573734552433732313a206f70657261746f7220717565727920666f72206e6f6e6578697374656e7420746f6b656e4552433732313a20617070726f76652063616c6c6572206973206e6f74206f776e6572206e6f7220617070726f76656420666f7220616c6c4552433732313a2062616c616e636520717565727920666f7220746865207a65726f20616464726573734552433732313a206f776e657220717565727920666f72206e6f6e6578697374656e7420746f6b656e456e756d657261626c654d61703a20696e646578206f7574206f6620626f756e64734552433732313a20617070726f76656420717565727920666f72206e6f6e6578697374656e7420746f6b656e4552433732314d657461646174613a2055524920736574206f66206e6f6e6578697374656e7420746f6b656e4552433732313a207472616e73666572206f6620746f6b656e2074686174206973206e6f74206f776e4552433732314d657461646174613a2055524920717565727920666f72206e6f6e6578697374656e7420746f6b656e4552433732313a20617070726f76616c20746f2063757272656e74206f776e65724552433732313a207472616e736665722063616c6c6572206973206e6f74206f776e6572206e6f7220617070726f766564",
  "linkReferences": {},
  "deployedLinkReferences": {}
}