{
  "abi": [
    {
      "inputs": [
        {
          "internalType": "contract L2OutputOracle",
          "name": "_l2Oracle",
          "type": "address"
        },
        {
          "internalType": "address",
          "name": "_guardian",
          "type": "address"
        },
        {
          "internalType": "bool",
          "name": "_paused",
          "type": "bool"
        },
        {
          "internalType": "contract SystemConfig",
          "name": "_config",
          "type": "address"
        }
      ],
      "stateMutability": "nonpayable",
      "type": "constructor"
    },
    {
      "anonymous": false,
      "inputs": [
        {
          "indexed": false,
          "internalType": "uint8",
          "name": "version",
          "type": "uint8"
        }
      ],
      "name": "Initialized",
      "type": "event"
    },
    {
      "anonymous": false,
      "inputs": [
        {
          "indexed": false,
          "internalType": "address",
          "name": "account",
          "type": "address"
        }
      ],
      "name": "Paused",
      "type": "event"
    },
    {
      "anonymous": false,
      "inputs": [
        {
          "indexed": true,
          "internalType": "address",
          "name": "from",
          "type": "address"
        },
        {
          "indexed": true,
          "internalType": "address",
          "name": "to",
          "type": "address"
        },
        {
          "indexed": true,
          "internalType": "uint256",
          "name": "version",
          "type": "uint256"
        },
        {
          "indexed": false,
          "internalType": "bytes",
          "name": "opaqueData",
          "type": "bytes"
        }
      ],
      "name": "TransactionDeposited",
      "type": "event"
    },
    {
      "anonymous": false,
      "inputs": [
        {
          "indexed": false,
          "internalType": "address",
          "name": "account",
          "type": "address"
        }
      ],
      "name": "Unpaused",
      "type": "event"
    },
    {
      "anonymous": false,
      "inputs": [
        {
          "indexed": true,
          "internalType": "bytes32",
          "name": "withdrawalHash",
          "type": "bytes32"
        },
        {
          "indexed": false,
          "internalType": "bool",
          "name": "success",
          "type": "bool"
        }
      ],
      "name": "WithdrawalFinalized",
      "type": "event"
    },
    {
      "anonymous": false,
      "inputs": [
        {
          "indexed": true,
          "internalType": "bytes32",
          "name": "withdrawalHash",
          "type": "bytes32"
        },
        {
          "indexed": true,
          "internalType": "address",
          "name": "from",
          "type": "address"
        },
        {
          "indexed": true,
          "internalType": "address",
          "name": "to",
          "type": "address"
        }
      ],
      "name": "WithdrawalProven",
      "type": "event"
    },
    {
      "inputs": [],
      "name": "GUARDIAN",
      "outputs": [
        {
          "internalType": "address",
          "name": "",
          "type": "address"
        }
      ],
      "stateMutability": "view",
      "type": "function"
    },
    {
      "inputs": [],
      "name": "L2_ORACLE",
      "outputs": [
        {
          "internalType": "contract L2OutputOracle",
          "name": "",
          "type": "address"
        }
      ],
      "stateMutability": "view",
      "type": "function"
    },
    {
      "inputs": [],
      "name": "SYSTEM_CONFIG",
      "outputs": [
        {
          "internalType": "contract SystemConfig",
          "name": "",
          "type": "address"
        }
      ],
      "stateMutability": "view",
      "type": "function"
    },
    {
      "inputs": [
        {
          "internalType": "address",
          "name": "_to",
          "type": "address"
        },
        {
          "internalType": "uint256",
          "name": "_value",
          "type": "uint256"
        },
        {
          "internalType": "uint64",
          "name": "_gasLimit",
          "type": "uint64"
        },
        {
          "internalType": "bool",
          "name": "_isCreation",
          "type": "bool"
        },
        {
          "internalType": "bytes",
          "name": "_data",
          "type": "bytes"
        }
      ],
      "name": "depositTransaction",
      "outputs": [],
      "stateMutability": "payable",
      "type": "function"
    },
    {
      "inputs": [],
      "name": "donateETH",
      "outputs": [],
      "stateMutability": "payable",
      "type": "function"
    },
    {
      "inputs": [
        {
          "components": [
            {
              "internalType": "uint256",
              "name": "nonce",
              "type": "uint256"
            },
            {
              "internalType": "address",
              "name": "sender",
              "type": "address"
            },
            {
              "internalType": "address",
              "name": "target",
              "type": "address"
            },
            {
              "internalType": "uint256",
              "name": "value",
              "type": "uint256"
            },
            {
              "internalType": "uint256",
              "name": "gasLimit",
              "type": "uint256"
            },
            {
              "internalType": "bytes",
              "name": "data",
              "type": "bytes"
            }
          ],
          "internalType": "struct Types.WithdrawalTransaction",
          "name": "_tx",
          "type": "tuple"
        }
      ],
      "name": "finalizeWithdrawalTransaction",
      "outputs": [],
      "stateMutability": "nonpayable",
      "type": "function"
    },
    {
      "inputs": [
        {
          "internalType": "bytes32",
          "name": "",
          "type": "bytes32"
        }
      ],
      "name": "finalizedWithdrawals",
      "outputs": [
        {
          "internalType": "bool",
          "name": "",
          "type": "bool"
        }
      ],
      "stateMutability": "view",
      "type": "function"
    },
    {
      "inputs": [
        {
          "internalType": "bool",
          "name": "_paused",
          "type": "bool"
        }
      ],
      "name": "initialize",
      "outputs": [],
      "stateMutability": "nonpayable",
      "type": "function"
    },
    {
      "inputs": [
        {
          "internalType": "uint256",
          "name": "_l2OutputIndex",
          "type": "uint256"
        }
      ],
      "name": "isOutputFinalized",
      "outputs": [
        {
          "internalType": "bool",
          "name": "",
          "type": "bool"
        }
      ],
      "stateMutability": "view",
      "type": "function"
    },
    {
      "inputs": [],
      "name": "l2Sender",
      "outputs": [
        {
          "internalType": "address",
          "name": "",
          "type": "address"
        }
      ],
      "stateMutability": "view",
      "type": "function"
    },
    {
      "inputs": [
        {
          "internalType": "uint64",
          "name": "_byteCount",
          "type": "uint64"
        }
      ],
      "name": "minimumGasLimit",
      "outputs": [
        {
          "internalType": "uint64",
          "name": "",
          "type": "uint64"
        }
      ],
      "stateMutability": "pure",
      "type": "function"
    },
    {
      "inputs": [],
      "name": "params",
      "outputs": [
        {
          "internalType": "uint128",
          "name": "prevBaseFee",
          "type": "uint128"
        },
        {
          "internalType": "uint64",
          "name": "prevBoughtGas",
          "type": "uint64"
        },
        {
          "internalType": "uint64",
          "name": "prevBlockNum",
          "type": "uint64"
        }
      ],
      "stateMutability": "view",
      "type": "function"
    },
    {
      "inputs": [],
      "name": "pause",
      "outputs": [],
      "stateMutability": "nonpayable",
      "type": "function"
    },
    {
      "inputs": [],
      "name": "paused",
      "outputs": [
        {
          "internalType": "bool",
          "name": "",
          "type": "bool"
        }
      ],
      "stateMutability": "view",
      "type": "function"
    },
    {
      "inputs": [
        {
          "components": [
            {
              "internalType": "uint256",
              "name": "nonce",
              "type": "uint256"
            },
            {
              "internalType": "address",
              "name": "sender",
              "type": "address"
            },
            {
              "internalType": "address",
              "name": "target",
              "type": "address"
            },
            {
              "internalType": "uint256",
              "name": "value",
              "type": "uint256"
            },
            {
              "internalType": "uint256",
              "name": "gasLimit",
              "type": "uint256"
            },
            {
              "internalType": "bytes",
              "name": "data",
              "type": "bytes"
            }
          ],
          "internalType": "struct Types.WithdrawalTransaction",
          "name": "_tx",
          "type": "tuple"
        },
        {
          "internalType": "uint256",
          "name": "_l2OutputIndex",
          "type": "uint256"
        },
        {
          "components": [
            {
              "internalType": "bytes32",
              "name": "version",
              "type": "bytes32"
            },
            {
              "internalType": "bytes32",
              "name": "stateRoot",
              "type": "bytes32"
            },
            {
              "internalType": "bytes32",
              "name": "messagePasserStorageRoot",
              "type": "bytes32"
            },
            {
              "internalType": "bytes32",
              "name": "latestBlockhash",
              "type": "bytes32"
            }
          ],
          "internalType": "struct Types.OutputRootProof",
          "name": "_outputRootProof",
          "type": "tuple"
        },
        {
          "internalType": "bytes[]",
          "name": "_withdrawalProof",
          "type": "bytes[]"
        }
      ],
      "name": "proveWithdrawalTransaction",
      "outputs": [],
      "stateMutability": "nonpayable",
      "type": "function"
    },
    {
      "inputs": [
        {
          "internalType": "bytes32",
          "name": "",
          "type": "bytes32"
        }
      ],
      "name": "provenWithdrawals",
      "outputs": [
        {
          "internalType": "bytes32",
          "name": "outputRoot",
          "type": "bytes32"
        },
        {
          "internalType": "uint128",
          "name": "timestamp",
          "type": "uint128"
        },
        {
          "internalType": "uint128",
          "name": "l2OutputIndex",
          "type": "uint128"
        }
      ],
      "stateMutability": "view",
      "type": "function"
    },
    {
      "inputs": [],
      "name": "unpause",
      "outputs": [],
      "stateMutability": "nonpayable",
      "type": "function"
    },
    {
      "inputs": [],
      "name": "version",
      "outputs": [
        {
          "internalType": "string",
          "name": "",
          "type": "string"
        }
      ],
      "stateMutability": "view",
      "type": "function"
    },
    {
      "stateMutability": "payable",
      "type": "receive"
    }
  ],
  "address": "0x7A163eb6Df3EEBbf817A7A9769F53FB2a441D47E",
  "args": [
    "0x5e76821C3c1AbB9fD6E310224804556C61D860e0",
    "0xcE10372313Ca39Fbf75A09e7f4c0E57F070259f4",
    "true",
    "0x886B187C3D293B1449A3A0F23Ca9e2269E0f2664"
  ],
  "bytecode": "0x6101406040523480156200001257600080fd5b50604051620059c8380380620059c8833981016040819052620000359162000296565b6001608052600760a052600260c0526001600160a01b0380851660e052838116610120528116610100526200006a8262000074565b5050505062000302565b600054610100900460ff1615808015620000955750600054600160ff909116105b80620000c55750620000b230620001cb60201b62001c891760201c565b158015620000c5575060005460ff166001145b6200012e5760405162461bcd60e51b815260206004820152602e60248201527f496e697469616c697a61626c653a20636f6e747261637420697320616c72656160448201526d191e481a5b9a5d1a585b1a5e995960921b60648201526084015b60405180910390fd5b6000805460ff19166001179055801562000152576000805461ff0019166101001790555b603280546001600160a01b03191661dead1790556035805483151560ff1990911617905562000180620001da565b8015620001c7576000805461ff0019169055604051600181527f7f26b83ff96e1f2b6a682f133852f6798a09c465da95921460cefb38474024989060200160405180910390a15b5050565b6001600160a01b03163b151590565b600054610100900460ff16620002475760405162461bcd60e51b815260206004820152602b60248201527f496e697469616c697a61626c653a20636f6e7472616374206973206e6f74206960448201526a6e697469616c697a696e6760a81b606482015260840162000125565b60408051606081018252633b9aca0080825260006020830152436001600160401b031691909201819052600160c01b0217600155565b6001600160a01b03811681146200029357600080fd5b50565b60008060008060808587031215620002ad57600080fd5b8451620002ba816200027d565b6020860151909450620002cd816200027d565b60408601519093508015158114620002e457600080fd5b6060860151909250620002f7816200027d565b939692955090935050565b60805160a05160c05160e051610100516101205161563762000391600039600081816102690152818161079d01526110a00152600081816104c801526123d701526000818161016a01528181610a0601528181610be701528181610ffc015281816113b60152818161162801526121c301526000610f6701526000610f3e01526000610f1501526156376000f3fe60806040526004361061012c5760003560e01c80638c3152e9116100a5578063cff0ab9611610074578063e965084c11610059578063e965084c14610417578063e9e05c42146104a3578063f0498750146104b657600080fd5b8063cff0ab9614610356578063d53a822f146103f757600080fd5b80638c3152e9146102a05780639bf62d82146102c0578063a14238e7146102ed578063a35d99df1461031d57600080fd5b80635c975abb116100fc578063724c184c116100e1578063724c184c146102575780638456cb591461028b5780638b4c40b01461015157600080fd5b80635c975abb1461020d5780636dbffb781461023757600080fd5b80621c2ff6146101585780633f4ba83a146101b65780634870496f146101cb57806354fd4d50146101eb57600080fd5b36610153576101513334620186a06000604051806020016040528060008152506104ea565b005b600080fd5b34801561016457600080fd5b5061018c7f000000000000000000000000000000000000000000000000000000000000000081565b60405173ffffffffffffffffffffffffffffffffffffffff90911681526020015b60405180910390f35b3480156101c257600080fd5b50610151610785565b3480156101d757600080fd5b506101516101e6366004614be9565b6108a8565b3480156101f757600080fd5b50610200610f0e565b6040516101ad9190614d3f565b34801561021957600080fd5b506035546102279060ff1681565b60405190151581526020016101ad565b34801561024357600080fd5b50610227610252366004614d52565b610fb1565b34801561026357600080fd5b5061018c7f000000000000000000000000000000000000000000000000000000000000000081565b34801561029757600080fd5b50610151611088565b3480156102ac57600080fd5b506101516102bb366004614d6b565b6111a8565b3480156102cc57600080fd5b5060325461018c9073ffffffffffffffffffffffffffffffffffffffff1681565b3480156102f957600080fd5b50610227610308366004614d52565b60336020526000908152604090205460ff1681565b34801561032957600080fd5b5061033d610338366004614db8565b611a83565b60405167ffffffffffffffff90911681526020016101ad565b34801561036257600080fd5b506001546103be906fffffffffffffffffffffffffffffffff81169067ffffffffffffffff7001000000000000000000000000000000008204811691780100000000000000000000000000000000000000000000000090041683565b604080516fffffffffffffffffffffffffffffffff909416845267ffffffffffffffff92831660208501529116908201526060016101ad565b34801561040357600080fd5b50610151610412366004614de3565b611a9c565b34801561042357600080fd5b50610475610432366004614d52565b603460205260009081526040902080546001909101546fffffffffffffffffffffffffffffffff8082169170010000000000000000000000000000000090041683565b604080519384526fffffffffffffffffffffffffffffffff92831660208501529116908201526060016101ad565b6101516104b1366004614dfe565b6104ea565b3480156104c257600080fd5b5061018c7f000000000000000000000000000000000000000000000000000000000000000081565b8260005a905083156105a15773ffffffffffffffffffffffffffffffffffffffff8716156105a157604080517f08c379a00000000000000000000000000000000000000000000000000000000081526020600482015260248101919091527f4f7074696d69736d506f7274616c3a206d7573742073656e6420746f2061646460448201527f72657373283029207768656e206372656174696e67206120636f6e747261637460648201526084015b60405180910390fd5b6105ab8351611a83565b67ffffffffffffffff168567ffffffffffffffff16101561064e576040517f08c379a000000000000000000000000000000000000000000000000000000000815260206004820152602360248201527f4f7074696d69736d506f7274616c3a20676173206c696d697420746f6f20736d60448201527f616c6c00000000000000000000000000000000000000000000000000000000006064820152608401610598565b6201d4c0835111156106bc576040517f08c379a000000000000000000000000000000000000000000000000000000000815260206004820152601e60248201527f4f7074696d69736d506f7274616c3a206461746120746f6f206c6172676500006044820152606401610598565b333281146106dd575033731111000000000000000000000000000000001111015b600034888888886040516020016106f8959493929190614e77565b604051602081830303815290604052905060008973ffffffffffffffffffffffffffffffffffffffff168373ffffffffffffffffffffffffffffffffffffffff167fb3813568d9991fc951961fcb4c784893574240a28925604d09fc577c55bb7c32846040516107689190614d3f565b60405180910390a4505061077c8282611ca5565b50505050505050565b3373ffffffffffffffffffffffffffffffffffffffff7f0000000000000000000000000000000000000000000000000000000000000000161461084a576040517f08c379a000000000000000000000000000000000000000000000000000000000815260206004820152602960248201527f4f7074696d69736d506f7274616c3a206f6e6c7920677561726469616e20636160448201527f6e20756e706175736500000000000000000000000000000000000000000000006064820152608401610598565b603580547fffffffffffffffffffffffffffffffffffffffffffffffffffffffffffffff001690556040513381527f5db9ee0a495bf2e6ff9c91a7834c1ba4fdd244a5e8aa4e537bd38aeae4b073aa906020015b60405180910390a1565b60355460ff1615610915576040517f08c379a000000000000000000000000000000000000000000000000000000000815260206004820152601660248201527f4f7074696d69736d506f7274616c3a20706175736564000000000000000000006044820152606401610598565b3073ffffffffffffffffffffffffffffffffffffffff16856040015173ffffffffffffffffffffffffffffffffffffffff16036109d4576040517f08c379a000000000000000000000000000000000000000000000000000000000815260206004820152603f60248201527f4f7074696d69736d506f7274616c3a20796f752063616e6e6f742073656e642060448201527f6d6573736167657320746f2074686520706f7274616c20636f6e7472616374006064820152608401610598565b6040517fa25ae557000000000000000000000000000000000000000000000000000000008152600481018590526000907f000000000000000000000000000000000000000000000000000000000000000073ffffffffffffffffffffffffffffffffffffffff169063a25ae55790602401606060405180830381865afa158015610a62573d6000803e3d6000fd5b505050506040513d601f19601f82011682018060405250810190610a869190614efc565b519050610aa0610a9b36869003860186614f61565b611fd2565b8114610b2e576040517f08c379a000000000000000000000000000000000000000000000000000000000815260206004820152602960248201527f4f7074696d69736d506f7274616c3a20696e76616c6964206f7574707574207260448201527f6f6f742070726f6f6600000000000000000000000000000000000000000000006064820152608401610598565b6000610b398761202e565b6000818152603460209081526040918290208251606081018452815481526001909101546fffffffffffffffffffffffffffffffff8082169383018490527001000000000000000000000000000000009091041692810192909252919250901580610c6b5750805160408083015190517fa25ae5570000000000000000000000000000000000000000000000000000000081526fffffffffffffffffffffffffffffffff90911660048201527f000000000000000000000000000000000000000000000000000000000000000073ffffffffffffffffffffffffffffffffffffffff169063a25ae55790602401606060405180830381865afa158015610c43573d6000803e3d6000fd5b505050506040513d601f19601f82011682018060405250810190610c679190614efc565b5114155b610cf7576040517f08c379a000000000000000000000000000000000000000000000000000000000815260206004820152603760248201527f4f7074696d69736d506f7274616c3a207769746864726177616c20686173682060448201527f68617320616c7265616479206265656e2070726f76656e0000000000000000006064820152608401610598565b60408051602081018490526000918101829052606001604080517fffffffffffffffffffffffffffffffffffffffffffffffffffffffffffffffe081840301815282825280516020918201209083018190529250610dc09101604080517fffffffffffffffffffffffffffffffffffffffffffffffffffffffffffffffe0818403018152828201909152600182527f0100000000000000000000000000000000000000000000000000000000000000602083015290610db6888a614fc7565b8a6040013561205e565b610e4c576040517f08c379a000000000000000000000000000000000000000000000000000000000815260206004820152603260248201527f4f7074696d69736d506f7274616c3a20696e76616c696420776974686472617760448201527f616c20696e636c7573696f6e2070726f6f6600000000000000000000000000006064820152608401610598565b604080516060810182528581526fffffffffffffffffffffffffffffffff42811660208084019182528c831684860190815260008981526034835286812095518655925190518416700100000000000000000000000000000000029316929092176001909301929092558b830151908c0151925173ffffffffffffffffffffffffffffffffffffffff918216939091169186917f67a6208cfcc0801d50f6cbe764733f4fddf66ac0b04442061a8a8c0cb6b63f629190a4505050505050505050565b6060610f397f0000000000000000000000000000000000000000000000000000000000000000612082565b610f627f0000000000000000000000000000000000000000000000000000000000000000612082565b610f8b7f0000000000000000000000000000000000000000000000000000000000000000612082565b604051602001610f9d9392919061504b565b604051602081830303815290604052905090565b6040517fa25ae557000000000000000000000000000000000000000000000000000000008152600481018290526000906110829073ffffffffffffffffffffffffffffffffffffffff7f0000000000000000000000000000000000000000000000000000000000000000169063a25ae55790602401606060405180830381865afa158015611043573d6000803e3d6000fd5b505050506040513d601f19601f820116820180604052508101906110679190614efc565b602001516fffffffffffffffffffffffffffffffff166121bf565b92915050565b3373ffffffffffffffffffffffffffffffffffffffff7f0000000000000000000000000000000000000000000000000000000000000000161461114d576040517f08c379a000000000000000000000000000000000000000000000000000000000815260206004820152602760248201527f4f7074696d69736d506f7274616c3a206f6e6c7920677561726469616e20636160448201527f6e207061757365000000000000000000000000000000000000000000000000006064820152608401610598565b603580547fffffffffffffffffffffffffffffffffffffffffffffffffffffffffffffff001660011790556040513381527f62e78cea01bee320cd4e420270b5ea74000d11b0c9f74754ebdbfc544b05a2589060200161089e565b60355460ff1615611215576040517f08c379a000000000000000000000000000000000000000000000000000000000815260206004820152601660248201527f4f7074696d69736d506f7274616c3a20706175736564000000000000000000006044820152606401610598565b60325473ffffffffffffffffffffffffffffffffffffffff1661dead146112be576040517f08c379a000000000000000000000000000000000000000000000000000000000815260206004820152603f60248201527f4f7074696d69736d506f7274616c3a2063616e206f6e6c79207472696767657260448201527f206f6e65207769746864726177616c20706572207472616e73616374696f6e006064820152608401610598565b60006112c98261202e565b60008181526034602090815260408083208151606081018352815481526001909101546fffffffffffffffffffffffffffffffff808216948301859052700100000000000000000000000000000000909104169181019190915292935090036113b4576040517f08c379a000000000000000000000000000000000000000000000000000000000815260206004820152603260248201527f4f7074696d69736d506f7274616c3a207769746864726177616c20686173206e60448201527f6f74206265656e2070726f76656e2079657400000000000000000000000000006064820152608401610598565b7f000000000000000000000000000000000000000000000000000000000000000073ffffffffffffffffffffffffffffffffffffffff1663887862726040518163ffffffff1660e01b8152600401602060405180830381865afa15801561141f573d6000803e3d6000fd5b505050506040513d601f19601f8201168201806040525081019061144391906150c1565b81602001516fffffffffffffffffffffffffffffffff16101561150e576040517f08c379a000000000000000000000000000000000000000000000000000000000815260206004820152604b60248201527f4f7074696d69736d506f7274616c3a207769746864726177616c2074696d657360448201527f74616d70206c657373207468616e204c32204f7261636c65207374617274696e60648201527f672074696d657374616d70000000000000000000000000000000000000000000608482015260a401610598565b61152d81602001516fffffffffffffffffffffffffffffffff166121bf565b6115df576040517f08c379a000000000000000000000000000000000000000000000000000000000815260206004820152604560248201527f4f7074696d69736d506f7274616c3a2070726f76656e2077697468647261776160448201527f6c2066696e616c697a6174696f6e20706572696f6420686173206e6f7420656c60648201527f6170736564000000000000000000000000000000000000000000000000000000608482015260a401610598565b60408181015190517fa25ae5570000000000000000000000000000000000000000000000000000000081526fffffffffffffffffffffffffffffffff90911660048201526000907f000000000000000000000000000000000000000000000000000000000000000073ffffffffffffffffffffffffffffffffffffffff169063a25ae55790602401606060405180830381865afa158015611684573d6000803e3d6000fd5b505050506040513d601f19601f820116820180604052508101906116a89190614efc565b8251815191925014611762576040517f08c379a000000000000000000000000000000000000000000000000000000000815260206004820152604960248201527f4f7074696d69736d506f7274616c3a206f757470757420726f6f742070726f7660448201527f656e206973206e6f74207468652073616d652061732063757272656e74206f7560648201527f7470757420726f6f740000000000000000000000000000000000000000000000608482015260a401610598565b61178181602001516fffffffffffffffffffffffffffffffff166121bf565b611833576040517f08c379a000000000000000000000000000000000000000000000000000000000815260206004820152604360248201527f4f7074696d69736d506f7274616c3a206f75747075742070726f706f73616c2060448201527f66696e616c697a6174696f6e20706572696f6420686173206e6f7420656c617060648201527f7365640000000000000000000000000000000000000000000000000000000000608482015260a401610598565b60008381526033602052604090205460ff16156118d2576040517f08c379a000000000000000000000000000000000000000000000000000000000815260206004820152603560248201527f4f7074696d69736d506f7274616c3a207769746864726177616c20686173206160448201527f6c7265616479206265656e2066696e616c697a656400000000000000000000006064820152608401610598565b600083815260336020908152604080832080547fffffffffffffffffffffffffffffffffffffffffffffffffffffffffffffff00166001179055908601516032805473ffffffffffffffffffffffffffffffffffffffff9092167fffffffffffffffffffffffff00000000000000000000000000000000000000009092169190911790558501516080860151606087015160a088015161197493929190612262565b603280547fffffffffffffffffffffffff00000000000000000000000000000000000000001661dead17905560405190915084907fdb5c7652857aa163daadd670e116628fb42e869d8ac4251ef8971d9e5727df1b906119d990841515815260200190565b60405180910390a2801580156119ef5750326001145b15611a7c576040517f08c379a000000000000000000000000000000000000000000000000000000000815260206004820152602160248201527f4f7074696d69736d506f7274616c3a207769746864726177616c206661696c6560448201527f64000000000000000000000000000000000000000000000000000000000000006064820152608401610598565b5050505050565b6000611a90826010615109565b61108290615208615139565b600054610100900460ff1615808015611abc5750600054600160ff909116105b80611ad65750303b158015611ad6575060005460ff166001145b611b62576040517f08c379a000000000000000000000000000000000000000000000000000000000815260206004820152602e60248201527f496e697469616c697a61626c653a20636f6e747261637420697320616c72656160448201527f647920696e697469616c697a65640000000000000000000000000000000000006064820152608401610598565b600080547fffffffffffffffffffffffffffffffffffffffffffffffffffffffffffffff001660011790558015611bc057600080547fffffffffffffffffffffffffffffffffffffffffffffffffffffffffffff00ff166101001790555b603280547fffffffffffffffffffffffff00000000000000000000000000000000000000001661dead179055603580548315157fffffffffffffffffffffffffffffffffffffffffffffffffffffffffffffff00909116179055611c226122c0565b8015611c8557600080547fffffffffffffffffffffffffffffffffffffffffffffffffffffffffffff00ff169055604051600181527f7f26b83ff96e1f2b6a682f133852f6798a09c465da95921460cefb38474024989060200160405180910390a15b5050565b73ffffffffffffffffffffffffffffffffffffffff163b151590565b600154600090611cdb907801000000000000000000000000000000000000000000000000900467ffffffffffffffff1643615165565b90506000611ce76123a3565b90506000816020015160ff16826000015163ffffffff16611d0891906151ab565b90508215611e3f57600154600090611d3f908390700100000000000000000000000000000000900467ffffffffffffffff16615213565b90506000836040015160ff1683611d569190615287565b600154611d769084906fffffffffffffffffffffffffffffffff16615287565b611d8091906151ab565b600154909150600090611dd190611daa9084906fffffffffffffffffffffffffffffffff16615343565b866060015163ffffffff168760a001516fffffffffffffffffffffffffffffffff16612469565b90506001861115611e0057611dfd611daa82876040015160ff1660018a611df89190615165565b612488565b90505b6fffffffffffffffffffffffffffffffff16780100000000000000000000000000000000000000000000000067ffffffffffffffff4316021760015550505b60018054869190601090611e72908490700100000000000000000000000000000000900467ffffffffffffffff16615139565b92506101000a81548167ffffffffffffffff021916908367ffffffffffffffff160217905550816000015163ffffffff16600160000160109054906101000a900467ffffffffffffffff1667ffffffffffffffff161315611f55576040517f08c379a000000000000000000000000000000000000000000000000000000000815260206004820152603e60248201527f5265736f757263654d65746572696e673a2063616e6e6f7420627579206d6f7260448201527f6520676173207468616e20617661696c61626c6520676173206c696d697400006064820152608401610598565b600154600090611f81906fffffffffffffffffffffffffffffffff1667ffffffffffffffff88166153b7565b90506000611f9348633b9aca006124dd565b611f9d90836153f4565b905060005a611fac9088615165565b905080821115611fc857611fc8611fc38284615165565b6124f4565b5050505050505050565b60008160000151826020015183604001518460600151604051602001612011949392919093845260208401929092526040830152606082015260800190565b604051602081830303815290604052805190602001209050919050565b80516020808301516040808501516060860151608087015160a08801519351600097612011979096959101615408565b60008061206a86612522565b905061207881868686612554565b9695505050505050565b6060816000036120c557505060408051808201909152600181527f3000000000000000000000000000000000000000000000000000000000000000602082015290565b8160005b81156120ef57806120d98161545f565b91506120e89050600a836153f4565b91506120c9565b60008167ffffffffffffffff81111561210a5761210a614a0f565b6040519080825280601f01601f191660200182016040528015612134576020820181803683370190505b5090505b84156121b757612149600183615165565b9150612156600a86615497565b6121619060306154ab565b60f81b818381518110612176576121766154c3565b60200101907effffffffffffffffffffffffffffffffffffffffffffffffffffffffffffff1916908160001a9053506121b0600a866153f4565b9450612138565b949350505050565b60007f000000000000000000000000000000000000000000000000000000000000000073ffffffffffffffffffffffffffffffffffffffff1663f4daa2916040518163ffffffff1660e01b8152600401602060405180830381865afa15801561222c573d6000803e3d6000fd5b505050506040513d601f19601f8201168201806040525081019061225091906150c1565b61225a90836154ab565b421192915050565b6000806000612272866000612584565b9050806122a8576308c379a06000526020805278185361666543616c6c3a204e6f7420656e6f756768206761736058526064601cfd5b600080855160208701888b5af1979650505050505050565b600054610100900460ff16612357576040517f08c379a000000000000000000000000000000000000000000000000000000000815260206004820152602b60248201527f496e697469616c697a61626c653a20636f6e7472616374206973206e6f74206960448201527f6e697469616c697a696e670000000000000000000000000000000000000000006064820152608401610598565b60408051606081018252633b9aca00808252600060208301524367ffffffffffffffff169190920181905278010000000000000000000000000000000000000000000000000217600155565b6040805160c081018252600080825260208201819052918101829052606081018290526080810182905260a08101919091527f000000000000000000000000000000000000000000000000000000000000000073ffffffffffffffffffffffffffffffffffffffff1663cc731b026040518163ffffffff1660e01b815260040160c060405180830381865afa158015612440573d6000803e3d6000fd5b505050506040513d601f19601f820116820180604052508101906124649190615517565b905090565b600061247e61247885856125a2565b836125b2565b90505b9392505050565b6000670de0b6b3a76400006124c96124a085836151ab565b6124b290670de0b6b3a7640000615213565b6124c485670de0b6b3a7640000615287565b6125c1565b6124d39086615287565b61247e91906151ab565b6000818310156124ed5781612481565b5090919050565b6000805a90505b825a6125079083615165565b101561251d576125168261545f565b91506124fb565b505050565b6060818051906020012060405160200161253e91815260200190565b6040516020818303038152906040529050919050565b600061257b846125658786866125f2565b8051602091820120825192909101919091201490565b95945050505050565b600080603f83619c4001026040850201603f5a021015949350505050565b6000818312156124ed5781612481565b60008183126124ed5781612481565b6000612481670de0b6b3a7640000836125d98661307a565b6125e39190615287565b6125ed91906151ab565b6132be565b6060600084511161265f576040517f08c379a000000000000000000000000000000000000000000000000000000000815260206004820152601560248201527f4d65726b6c65547269653a20656d707479206b657900000000000000000000006044820152606401610598565b600061266a846134fd565b90506000612677866135ec565b905060008460405160200161268e91815260200190565b60405160208183030381529060405290506000805b8451811015612ff15760008582815181106126c0576126c06154c3565b60200260200101519050845183111561275b576040517f08c379a000000000000000000000000000000000000000000000000000000000815260206004820152602e60248201527f4d65726b6c65547269653a206b657920696e646578206578636565647320746f60448201527f74616c206b6579206c656e6774680000000000000000000000000000000000006064820152608401610598565b8260000361281457805180516020918201206040516127a99261278392910190815260200190565b604051602081830303815290604052858051602091820120825192909101919091201490565b61280f576040517f08c379a000000000000000000000000000000000000000000000000000000000815260206004820152601d60248201527f4d65726b6c65547269653a20696e76616c696420726f6f7420686173680000006044820152606401610598565b61296b565b8051516020116128ca578051805160209182012060405161283e9261278392910190815260200190565b61280f576040517f08c379a000000000000000000000000000000000000000000000000000000000815260206004820152602760248201527f4d65726b6c65547269653a20696e76616c6964206c6172676520696e7465726e60448201527f616c2068617368000000000000000000000000000000000000000000000000006064820152608401610598565b80518451602080870191909120825191909201201461296b576040517f08c379a000000000000000000000000000000000000000000000000000000000815260206004820152602660248201527f4d65726b6c65547269653a20696e76616c696420696e7465726e616c206e6f6460448201527f65206861736800000000000000000000000000000000000000000000000000006064820152608401610598565b612977601060016154ab565b81602001515103612b585784518303612af05760006129b382602001516010815181106129a6576129a66154c3565b602002602001015161364f565b90506000815111612a46576040517f08c379a000000000000000000000000000000000000000000000000000000000815260206004820152603b60248201527f4d65726b6c65547269653a2076616c7565206c656e677468206d75737420626560448201527f2067726561746572207468616e207a65726f20286272616e63682900000000006064820152608401610598565b60018751612a549190615165565b8314612ae2576040517f08c379a000000000000000000000000000000000000000000000000000000000815260206004820152603a60248201527f4d65726b6c65547269653a2076616c7565206e6f6465206d757374206265206c60448201527f617374206e6f646520696e2070726f6f6620286272616e6368290000000000006064820152608401610598565b965061248195505050505050565b6000858481518110612b0457612b046154c3565b602001015160f81c60f81b60f81c9050600082602001518260ff1681518110612b2f57612b2f6154c3565b60200260200101519050612b42816137af565b9550612b4f6001866154ab565b94505050612fde565b600281602001515103612f56576000612b70826137d4565b9050600081600081518110612b8757612b876154c3565b016020015160f81c90506000612b9e6002836155b6565b612ba99060026155d8565b90506000612bba848360ff166137f8565b90506000612bc88a896137f8565b90506000612bd6838361382e565b905080835114612c68576040517f08c379a000000000000000000000000000000000000000000000000000000000815260206004820152603a60248201527f4d65726b6c65547269653a20706174682072656d61696e646572206d7573742060448201527f736861726520616c6c206e6962626c65732077697468206b65790000000000006064820152608401610598565b60ff851660021480612c7d575060ff85166003145b15612e715780825114612d12576040517f08c379a000000000000000000000000000000000000000000000000000000000815260206004820152603d60248201527f4d65726b6c65547269653a206b65792072656d61696e646572206d757374206260448201527f65206964656e746963616c20746f20706174682072656d61696e6465720000006064820152608401610598565b6000612d2e88602001516001815181106129a6576129a66154c3565b90506000815111612dc1576040517f08c379a000000000000000000000000000000000000000000000000000000000815260206004820152603960248201527f4d65726b6c65547269653a2076616c7565206c656e677468206d75737420626560448201527f2067726561746572207468616e207a65726f20286c65616629000000000000006064820152608401610598565b60018d51612dcf9190615165565b8914612e5d576040517f08c379a000000000000000000000000000000000000000000000000000000000815260206004820152603860248201527f4d65726b6c65547269653a2076616c7565206e6f6465206d757374206265206c60448201527f617374206e6f646520696e2070726f6f6620286c6561662900000000000000006064820152608401610598565b9c506124819b505050505050505050505050565b60ff85161580612e84575060ff85166001145b15612ec357612eb08760200151600181518110612ea357612ea36154c3565b60200260200101516137af565b9950612ebc818a6154ab565b9850612f4b565b6040517f08c379a000000000000000000000000000000000000000000000000000000000815260206004820152603260248201527f4d65726b6c65547269653a2072656365697665642061206e6f6465207769746860448201527f20616e20756e6b6e6f776e2070726566697800000000000000000000000000006064820152608401610598565b505050505050612fde565b6040517f08c379a000000000000000000000000000000000000000000000000000000000815260206004820152602860248201527f4d65726b6c65547269653a20726563656976656420616e20756e70617273656160448201527f626c65206e6f64650000000000000000000000000000000000000000000000006064820152608401610598565b5080612fe98161545f565b9150506126a3565b506040517f08c379a000000000000000000000000000000000000000000000000000000000815260206004820152602560248201527f4d65726b6c65547269653a2072616e206f7574206f662070726f6f6620656c6560448201527f6d656e74730000000000000000000000000000000000000000000000000000006064820152608401610598565b60008082136130e5576040517f08c379a000000000000000000000000000000000000000000000000000000000815260206004820152600960248201527f554e444546494e454400000000000000000000000000000000000000000000006044820152606401610598565b600060606130f2846138dd565b03609f8181039490941b90931c6c465772b2bbbb5f824b15207a3081018102606090811d6d0388eaa27412d5aca026815d636e018202811d6d0df99ac502031bf953eff472fdcc018202811d6d13cdffb29d51d99322bdff5f2211018202811d6d0a0f742023def783a307a986912e018202811d6d01920d8043ca89b5239253284e42018202811d6c0b7a86d7375468fac667a0a527016c29508e458543d8aa4df2abee7883018302821d6d0139601a2efabe717e604cbb4894018302821d6d02247f7a7b6594320649aa03aba1018302821d7fffffffffffffffffffffffffffffffffffffff73c0c716a594e00d54e3c4cbc9018302821d7ffffffffffffffffffffffffffffffffffffffdc7b88c420e53a9890533129f6f01830290911d7fffffffffffffffffffffffffffffffffffffff465fda27eb4d63ded474e5f832019091027ffffffffffffffff5f6af8f7b3396644f18e157960000000000000000000000000105711340daa0d5f769dba1915cef59f0815a5506027d0267a36c0c95b3975ab3ee5b203a7614a3f75373f047d803ae7b6687f2b393909302929092017d57115e47018c7177eebf7cd370a3356a1b7863008a5ae8028c72b88642840160ae1d92915050565b60007ffffffffffffffffffffffffffffffffffffffffffffffffdb731c958f34d94c182136132ef57506000919050565b680755bf798b4a1bf1e58212613361576040517f08c379a000000000000000000000000000000000000000000000000000000000815260206004820152600c60248201527f4558505f4f564552464c4f5700000000000000000000000000000000000000006044820152606401610598565b6503782dace9d9604e83901b059150600060606bb17217f7d1cf79abc9e3b39884821b056b80000000000000000000000001901d6bb17217f7d1cf79abc9e3b39881029093037fffffffffffffffffffffffffffffffffffffffdbf3ccf1604d263450f02a550481018102606090811d6d0277594991cfc85f6e2461837cd9018202811d7fffffffffffffffffffffffffffffffffffffe5adedaa1cb095af9e4da10e363c018202811d6db1bbb201f443cf962f1a1d3db4a5018202811d7ffffffffffffffffffffffffffffffffffffd38dc772608b0ae56cce01296c0eb018202811d6e05180bb14799ab47a8a8cb2a527d57016d02d16720577bd19bf614176fe9ea6c10fe68e7fd37d0007b713f765084018402831d9081019084017ffffffffffffffffffffffffffffffffffffffe2c69812cf03b0763fd454a8f7e010290911d6e0587f503bb6ea29d25fcb7401964500190910279d835ebba824c98fb31b83b2ca45c000000000000000000000000010574029d9dc38563c32e5c2f6dc192ee70ef65f9978af30260c3939093039290921c92915050565b805160609060008167ffffffffffffffff81111561351d5761351d614a0f565b60405190808252806020026020018201604052801561356257816020015b604080518082019091526060808252602082015281526020019060019003908161353b5790505b50905060005b828110156135e457604051806040016040528086838151811061358d5761358d6154c3565b602002602001015181526020016135bc8784815181106135af576135af6154c3565b60200260200101516139b3565b8152508282815181106135d1576135d16154c3565b6020908102919091010152600101613568565b509392505050565b606080604051905082518060011b603f8101601f1916830160405280835250602084016020830160005b83811015613644578060011b82018184015160001a8060041c8253600f811660018301535050600101613616565b509295945050505050565b6060600080600061365f856139c6565b91945092509050600081600181111561367a5761367a6155fb565b14613707576040517f08c379a000000000000000000000000000000000000000000000000000000000815260206004820152603960248201527f524c505265616465723a206465636f646564206974656d207479706520666f7260448201527f206279746573206973206e6f7420612064617461206974656d000000000000006064820152608401610598565b61371182846154ab565b8551146137a0576040517f08c379a000000000000000000000000000000000000000000000000000000000815260206004820152603460248201527f524c505265616465723a2062797465732076616c756520636f6e7461696e732060448201527f616e20696e76616c69642072656d61696e6465720000000000000000000000006064820152608401610598565b61257b85602001518484614433565b606060208260000151106137cb576137c68261364f565b611082565b611082826144d4565b60606110826137f383602001516000815181106129a6576129a66154c3565b6135ec565b6060825182106138175750604080516020810190915260008152611082565b61248183838486516138299190615165565b6144ea565b60008060008351855110613843578351613846565b84515b90505b80821080156138cd5750838281518110613865576138656154c3565b602001015160f81c60f81b7effffffffffffffffffffffffffffffffffffffffffffffffffffffffffffff19168583815181106138a4576138a46154c3565b01602001517fff0000000000000000000000000000000000000000000000000000000000000016145b156135e457816001019150613849565b6000808211613948576040517f08c379a000000000000000000000000000000000000000000000000000000000815260206004820152600960248201527f554e444546494e454400000000000000000000000000000000000000000000006044820152606401610598565b5060016fffffffffffffffffffffffffffffffff821160071b82811c67ffffffffffffffff1060061b1782811c63ffffffff1060051b1782811c61ffff1060041b1782811c60ff10600390811b90911783811c600f1060021b1783811c909110821b1791821c111790565b60606110826139c1836146c2565b6147ab565b600080600080846000015111613a84576040517f08c379a000000000000000000000000000000000000000000000000000000000815260206004820152604a60248201527f524c505265616465723a206c656e677468206f6620616e20524c50206974656d60448201527f206d7573742062652067726561746572207468616e207a65726f20746f20626560648201527f206465636f6461626c6500000000000000000000000000000000000000000000608482015260a401610598565b6020840151805160001a607f8111613aa957600060016000945094509450505061442c565b60b78111613cb7576000613abe608083615165565b905080876000015111613b79576040517f08c379a000000000000000000000000000000000000000000000000000000000815260206004820152604e60248201527f524c505265616465723a206c656e677468206f6620636f6e74656e74206d757360448201527f742062652067726561746572207468616e20737472696e67206c656e6774682060648201527f2873686f727420737472696e6729000000000000000000000000000000000000608482015260a401610598565b6001838101517fff00000000000000000000000000000000000000000000000000000000000000169082141580613bf257507f80000000000000000000000000000000000000000000000000000000000000007fff00000000000000000000000000000000000000000000000000000000000000821610155b613ca4576040517f08c379a000000000000000000000000000000000000000000000000000000000815260206004820152604d60248201527f524c505265616465723a20696e76616c6964207072656669782c2073696e676c60448201527f652062797465203c203078383020617265206e6f74207072656669786564202860648201527f73686f727420737472696e672900000000000000000000000000000000000000608482015260a401610598565b506001955093506000925061442c915050565b60bf8111614005576000613ccc60b783615165565b905080876000015111613d87576040517f08c379a000000000000000000000000000000000000000000000000000000000815260206004820152605160248201527f524c505265616465723a206c656e677468206f6620636f6e74656e74206d757360448201527f74206265203e207468616e206c656e677468206f6620737472696e67206c656e60648201527f67746820286c6f6e6720737472696e6729000000000000000000000000000000608482015260a401610598565b60018301517fff00000000000000000000000000000000000000000000000000000000000000166000819003613e65576040517f08c379a000000000000000000000000000000000000000000000000000000000815260206004820152604a60248201527f524c505265616465723a206c656e677468206f6620636f6e74656e74206d757360448201527f74206e6f74206861766520616e79206c656164696e67207a65726f7320286c6f60648201527f6e6720737472696e672900000000000000000000000000000000000000000000608482015260a401610598565b600184015160088302610100031c60378111613f29576040517f08c379a000000000000000000000000000000000000000000000000000000000815260206004820152604860248201527f524c505265616465723a206c656e677468206f6620636f6e74656e74206d757360448201527f742062652067726561746572207468616e20353520627974657320286c6f6e6760648201527f20737472696e6729000000000000000000000000000000000000000000000000608482015260a401610598565b613f3381846154ab565b895111613fe8576040517f08c379a000000000000000000000000000000000000000000000000000000000815260206004820152604c60248201527f524c505265616465723a206c656e677468206f6620636f6e74656e74206d757360448201527f742062652067726561746572207468616e20746f74616c206c656e677468202860648201527f6c6f6e6720737472696e67290000000000000000000000000000000000000000608482015260a401610598565b613ff38360016154ab565b975095506000945061442c9350505050565b60f781116140e657600061401a60c083615165565b9050808760000151116140d5576040517f08c379a000000000000000000000000000000000000000000000000000000000815260206004820152604a60248201527f524c505265616465723a206c656e677468206f6620636f6e74656e74206d757360448201527f742062652067726561746572207468616e206c697374206c656e67746820287360648201527f686f7274206c6973742900000000000000000000000000000000000000000000608482015260a401610598565b60019550935084925061442c915050565b60006140f360f783615165565b9050808760000151116141ae576040517f08c379a000000000000000000000000000000000000000000000000000000000815260206004820152604d60248201527f524c505265616465723a206c656e677468206f6620636f6e74656e74206d757360448201527f74206265203e207468616e206c656e677468206f66206c697374206c656e677460648201527f6820286c6f6e67206c6973742900000000000000000000000000000000000000608482015260a401610598565b60018301517fff0000000000000000000000000000000000000000000000000000000000000016600081900361428c576040517f08c379a000000000000000000000000000000000000000000000000000000000815260206004820152604860248201527f524c505265616465723a206c656e677468206f6620636f6e74656e74206d757360448201527f74206e6f74206861766520616e79206c656164696e67207a65726f7320286c6f60648201527f6e67206c69737429000000000000000000000000000000000000000000000000608482015260a401610598565b600184015160088302610100031c60378111614350576040517f08c379a000000000000000000000000000000000000000000000000000000000815260206004820152604660248201527f524c505265616465723a206c656e677468206f6620636f6e74656e74206d757360448201527f742062652067726561746572207468616e20353520627974657320286c6f6e6760648201527f206c697374290000000000000000000000000000000000000000000000000000608482015260a401610598565b61435a81846154ab565b89511161440f576040517f08c379a000000000000000000000000000000000000000000000000000000000815260206004820152604a60248201527f524c505265616465723a206c656e677468206f6620636f6e74656e74206d757360448201527f742062652067726561746572207468616e20746f74616c206c656e677468202860648201527f6c6f6e67206c6973742900000000000000000000000000000000000000000000608482015260a401610598565b61441a8360016154ab565b975095506001945061442c9350505050565b9193909250565b606060008267ffffffffffffffff81111561445057614450614a0f565b6040519080825280601f01601f19166020018201604052801561447a576020820181803683370190505b5090508260000361448c579050612481565b600061449885876154ab565b90506020820160005b858110156144b95782810151828201526020016144a1565b858111156144c8576000868301525b50919695505050505050565b6060611082826020015160008460000151614433565b60608182601f011015614559576040517f08c379a000000000000000000000000000000000000000000000000000000000815260206004820152600e60248201527f736c6963655f6f766572666c6f770000000000000000000000000000000000006044820152606401610598565b8282840110156145c5576040517f08c379a000000000000000000000000000000000000000000000000000000000815260206004820152600e60248201527f736c6963655f6f766572666c6f770000000000000000000000000000000000006044820152606401610598565b81830184511015614632576040517f08c379a000000000000000000000000000000000000000000000000000000000815260206004820152601160248201527f736c6963655f6f75744f66426f756e64730000000000000000000000000000006044820152606401610598565b60608215801561465157604051915060008252602082016040526146b9565b6040519150601f8416801560200281840101858101878315602002848b0101015b8183101561468a578051835260209283019201614672565b5050858452601f017fffffffffffffffffffffffffffffffffffffffffffffffffffffffffffffffe016604052505b50949350505050565b6040805180820190915260008082526020820152600082511161478d576040517f08c379a000000000000000000000000000000000000000000000000000000000815260206004820152604a60248201527f524c505265616465723a206c656e677468206f6620616e20524c50206974656d60448201527f206d7573742062652067726561746572207468616e207a65726f20746f20626560648201527f206465636f6461626c6500000000000000000000000000000000000000000000608482015260a401610598565b50604080518082019091528151815260209182019181019190915290565b606060008060006147bb856139c6565b9194509250905060018160018111156147d6576147d66155fb565b14614863576040517f08c379a000000000000000000000000000000000000000000000000000000000815260206004820152603860248201527f524c505265616465723a206465636f646564206974656d207479706520666f7260448201527f206c697374206973206e6f742061206c697374206974656d00000000000000006064820152608401610598565b845161486f83856154ab565b146148fc576040517f08c379a000000000000000000000000000000000000000000000000000000000815260206004820152603260248201527f524c505265616465723a206c697374206974656d2068617320616e20696e766160448201527f6c696420646174612072656d61696e64657200000000000000000000000000006064820152608401610598565b6040805160208082526104208201909252600091816020015b60408051808201909152600080825260208201528152602001906001900390816149155790505090506000845b8751811015614a03576000806149886040518060400160405280858d6000015161496c9190615165565b8152602001858d6020015161498191906154ab565b90526139c6565b5091509150604051806040016040528083836149a491906154ab565b8152602001848c602001516149b991906154ab565b8152508585815181106149ce576149ce6154c3565b60209081029190910101526149e46001856154ab565b93506149f081836154ab565b6149fa90846154ab565b92505050614942565b50815295945050505050565b7f4e487b7100000000000000000000000000000000000000000000000000000000600052604160045260246000fd5b604051601f82017fffffffffffffffffffffffffffffffffffffffffffffffffffffffffffffffe016810167ffffffffffffffff81118282101715614a8557614a85614a0f565b604052919050565b803573ffffffffffffffffffffffffffffffffffffffff81168114614ab157600080fd5b919050565b600082601f830112614ac757600080fd5b813567ffffffffffffffff811115614ae157614ae1614a0f565b614b1260207fffffffffffffffffffffffffffffffffffffffffffffffffffffffffffffffe0601f84011601614a3e565b818152846020838601011115614b2757600080fd5b816020850160208301376000918101602001919091529392505050565b600060c08284031215614b5657600080fd5b60405160c0810167ffffffffffffffff8282108183111715614b7a57614b7a614a0f565b8160405282935084358352614b9160208601614a8d565b6020840152614ba260408601614a8d565b6040840152606085013560608401526080850135608084015260a0850135915080821115614bcf57600080fd5b50614bdc85828601614ab6565b60a0830152505092915050565b600080600080600085870360e0811215614c0257600080fd5b863567ffffffffffffffff80821115614c1a57600080fd5b614c268a838b01614b44565b97506020890135965060807fffffffffffffffffffffffffffffffffffffffffffffffffffffffffffffffc084011215614c5f57600080fd5b60408901955060c0890135925080831115614c7957600080fd5b828901925089601f840112614c8d57600080fd5b8235915080821115614c9e57600080fd5b508860208260051b8401011115614cb457600080fd5b959894975092955050506020019190565b60005b83811015614ce0578181015183820152602001614cc8565b83811115614cef576000848401525b50505050565b60008151808452614d0d816020860160208601614cc5565b601f017fffffffffffffffffffffffffffffffffffffffffffffffffffffffffffffffe0169290920160200192915050565b6020815260006124816020830184614cf5565b600060208284031215614d6457600080fd5b5035919050565b600060208284031215614d7d57600080fd5b813567ffffffffffffffff811115614d9457600080fd5b6121b784828501614b44565b803567ffffffffffffffff81168114614ab157600080fd5b600060208284031215614dca57600080fd5b61248182614da0565b80358015158114614ab157600080fd5b600060208284031215614df557600080fd5b61248182614dd3565b600080600080600060a08688031215614e1657600080fd5b614e1f86614a8d565b945060208601359350614e3460408701614da0565b9250614e4260608701614dd3565b9150608086013567ffffffffffffffff811115614e5e57600080fd5b614e6a88828901614ab6565b9150509295509295909350565b8581528460208201527fffffffffffffffff0000000000000000000000000000000000000000000000008460c01b16604082015282151560f81b604882015260008251614ecb816049850160208701614cc5565b919091016049019695505050505050565b80516fffffffffffffffffffffffffffffffff81168114614ab157600080fd5b600060608284031215614f0e57600080fd5b6040516060810181811067ffffffffffffffff82111715614f3157614f31614a0f565b60405282518152614f4460208401614edc565b6020820152614f5560408401614edc565b60408201529392505050565b600060808284031215614f7357600080fd5b6040516080810181811067ffffffffffffffff82111715614f9657614f96614a0f565b8060405250823581526020830135602082015260408301356040820152606083013560608201528091505092915050565b600067ffffffffffffffff80841115614fe257614fe2614a0f565b8360051b6020614ff3818301614a3e565b86815291850191818101903684111561500b57600080fd5b865b8481101561503f578035868111156150255760008081fd5b61503136828b01614ab6565b84525091830191830161500d565b50979650505050505050565b6000845161505d818460208901614cc5565b80830190507f2e000000000000000000000000000000000000000000000000000000000000008082528551615099816001850160208a01614cc5565b600192019182015283516150b4816002840160208801614cc5565b0160020195945050505050565b6000602082840312156150d357600080fd5b5051919050565b7f4e487b7100000000000000000000000000000000000000000000000000000000600052601160045260246000fd5b600067ffffffffffffffff80831681851681830481118215151615615130576151306150da565b02949350505050565b600067ffffffffffffffff80831681851680830382111561515c5761515c6150da565b01949350505050565b600082821015615177576151776150da565b500390565b7f4e487b7100000000000000000000000000000000000000000000000000000000600052601260045260246000fd5b6000826151ba576151ba61517c565b7fffffffffffffffffffffffffffffffffffffffffffffffffffffffffffffffff83147f80000000000000000000000000000000000000000000000000000000000000008314161561520e5761520e6150da565b500590565b6000808312837f80000000000000000000000000000000000000000000000000000000000000000183128115161561524d5761524d6150da565b837f7fffffffffffffffffffffffffffffffffffffffffffffffffffffffffffffff018313811615615281576152816150da565b50500390565b60007f7fffffffffffffffffffffffffffffffffffffffffffffffffffffffffffffff6000841360008413858304851182821616156152c8576152c86150da565b7f80000000000000000000000000000000000000000000000000000000000000006000871286820588128184161615615303576153036150da565b6000871292508782058712848416161561531f5761531f6150da565b87850587128184161615615335576153356150da565b505050929093029392505050565b6000808212827f7fffffffffffffffffffffffffffffffffffffffffffffffffffffffffffffff0384138115161561537d5761537d6150da565b827f80000000000000000000000000000000000000000000000000000000000000000384128116156153b1576153b16150da565b50500190565b6000817fffffffffffffffffffffffffffffffffffffffffffffffffffffffffffffffff04831182151516156153ef576153ef6150da565b500290565b6000826154035761540361517c565b500490565b868152600073ffffffffffffffffffffffffffffffffffffffff808816602084015280871660408401525084606083015283608083015260c060a083015261545360c0830184614cf5565b98975050505050505050565b60007fffffffffffffffffffffffffffffffffffffffffffffffffffffffffffffffff8203615490576154906150da565b5060010190565b6000826154a6576154a661517c565b500690565b600082198211156154be576154be6150da565b500190565b7f4e487b7100000000000000000000000000000000000000000000000000000000600052603260045260246000fd5b805163ffffffff81168114614ab157600080fd5b805160ff81168114614ab157600080fd5b600060c0828403121561552957600080fd5b60405160c0810181811067ffffffffffffffff8211171561554c5761554c614a0f565b604052615558836154f2565b815261556660208401615506565b602082015261557760408401615506565b6040820152615588606084016154f2565b6060820152615599608084016154f2565b60808201526155aa60a08401614edc565b60a08201529392505050565b600060ff8316806155c9576155c961517c565b8060ff84160691505092915050565b600060ff821660ff8416808210156155f2576155f26150da565b90039392505050565b7f4e487b7100000000000000000000000000000000000000000000000000000000600052602160045260246000fdfea164736f6c634300080f000a",
  "devdoc": {
    "version": 1,
    "kind": "dev",
    "methods": {
      "constructor": {
        "params": {
          "_config": "Address of the SystemConfig contract.",
          "_guardian": "Address that can pause withdrawals.",
          "_l2Oracle": "Address of the L2OutputOracle contract.",
          "_paused": "Sets the contract's pausability state."
        }
      },
      "depositTransaction(address,uint256,uint64,bool,bytes)": {
        "params": {
          "_data": "Data to trigger the recipient with.",
          "_gasLimit": "Amount of L2 gas to purchase by burning gas on L1.",
          "_isCreation": "Whether or not the transaction is a contract creation.",
          "_to": "Target address on L2.",
          "_value": "ETH value to send to the recipient."
        }
      },
      "finalizeWithdrawalTransaction((uint256,address,address,uint256,uint256,bytes))": {
        "params": {
          "_tx": "Withdrawal transaction to finalize."
        }
      },
      "isOutputFinalized(uint256)": {
        "params": {
          "_l2OutputIndex": "Index of the L2 output to check."
        },
        "returns": {
          "_0": "Whether or not the output is finalized."
        }
      },
      "minimumGasLimit(uint64)": {
        "params": {
          "_byteCount": "Number of bytes in the calldata."
        },
        "returns": {
          "_0": "The minimum gas limit for a deposit."
        }
      },
      "proveWithdrawalTransaction((uint256,address,address,uint256,uint256,bytes),uint256,(bytes32,bytes32,bytes32,bytes32),bytes[])": {
        "params": {
          "_l2OutputIndex": "L2 output index to prove against.",
          "_outputRootProof": "Inclusion proof of the L2ToL1MessagePasser contract's storage root.",
          "_tx": "Withdrawal transaction to finalize.",
          "_withdrawalProof": "Inclusion proof of the withdrawal in L2ToL1MessagePasser contract."
        }
      },
      "version()": {
        "returns": {
          "_0": "Semver contract version as a string."
        }
      }
    },
    "events": {
      "Paused(address)": {
        "params": {
          "account": "Address of the account triggering the pause."
        }
      },
      "TransactionDeposited(address,address,uint256,bytes)": {
        "params": {
          "from": "Address that triggered the deposit transaction.",
          "opaqueData": "ABI encoded deposit data to be parsed off-chain.",
          "to": "Address that the deposit transaction is directed to.",
          "version": "Version of this deposit transaction event."
        }
      },
      "Unpaused(address)": {
        "params": {
          "account": "Address of the account triggering the unpause."
        }
      },
      "WithdrawalFinalized(bytes32,bool)": {
        "params": {
          "success": "Whether the withdrawal transaction was successful.",
          "withdrawalHash": "Hash of the withdrawal transaction."
        }
      },
      "WithdrawalProven(bytes32,address,address)": {
        "params": {
          "from": "Address that triggered the withdrawal transaction.",
          "to": "Address that the withdrawal transaction is directed to.",
          "withdrawalHash": "Hash of the withdrawal transaction."
        }
      }
    }
  },
  "numDeployments": 0,
  "solcInputHash": "0x0000000000000000000000000000000000000000000000000000000000000000",
  "storageLayout": {
    "storage": [
      {
        "astId": 59224,
        "contract": "contracts/L1/OptimismPortal.sol:OptimismPortal",
        "label": "_initialized",
        "offset": 0,
        "slot": "0",
        "type": "t_uint8"
      },
      {
        "astId": 59227,
        "contract": "contracts/L1/OptimismPortal.sol:OptimismPortal",
        "label": "_initializing",
        "offset": 1,
        "slot": "0",
        "type": "t_bool"
      },
      {
        "astId": 1949,
        "contract": "contracts/L1/OptimismPortal.sol:OptimismPortal",
        "label": "params",
        "offset": 0,
        "slot": "1",
        "type": "t_struct(ResourceParams)1932_storage"
      },
      {
        "astId": 1954,
        "contract": "contracts/L1/OptimismPortal.sol:OptimismPortal",
        "label": "__gap",
        "offset": 0,
        "slot": "2",
        "type": "t_array(t_uint256)48_storage"
      },
      {
        "astId": 1293,
        "contract": "contracts/L1/OptimismPortal.sol:OptimismPortal",
        "label": "l2Sender",
        "offset": 0,
        "slot": "50",
        "type": "t_address"
      },
      {
        "astId": 1298,
        "contract": "contracts/L1/OptimismPortal.sol:OptimismPortal",
        "label": "finalizedWithdrawals",
        "offset": 0,
        "slot": "51",
        "type": "t_mapping(t_bytes32,t_bool)"
      },
      {
        "astId": 1304,
        "contract": "contracts/L1/OptimismPortal.sol:OptimismPortal",
        "label": "provenWithdrawals",
        "offset": 0,
        "slot": "52",
        "type": "t_mapping(t_bytes32,t_struct(ProvenWithdrawal)1271_storage)"
      },
      {
        "astId": 1307,
        "contract": "contracts/L1/OptimismPortal.sol:OptimismPortal",
        "label": "paused",
        "offset": 0,
        "slot": "53",
        "type": "t_bool"
      }
    ],
    "types": {
      "t_address": {
        "encoding": "inplace",
        "label": "address",
        "numberOfBytes": "20"
      },
      "t_array(t_uint256)48_storage": {
        "encoding": "inplace",
        "label": "uint256[48]",
        "numberOfBytes": "1536",
        "base": "t_uint256"
      },
      "t_bool": {
        "encoding": "inplace",
        "label": "bool",
        "numberOfBytes": "1"
      },
      "t_bytes32": {
        "encoding": "inplace",
        "label": "bytes32",
        "numberOfBytes": "32"
      },
      "t_mapping(t_bytes32,t_bool)": {
        "encoding": "mapping",
        "key": "t_bytes32",
        "label": "mapping(bytes32 => bool)",
        "numberOfBytes": "32",
        "value": "t_bool"
      },
      "t_mapping(t_bytes32,t_struct(ProvenWithdrawal)1271_storage)": {
        "encoding": "mapping",
        "key": "t_bytes32",
        "label": "mapping(bytes32 => struct OptimismPortal.ProvenWithdrawal)",
        "numberOfBytes": "32",
        "value": "t_struct(ProvenWithdrawal)1271_storage"
      },
      "t_struct(ProvenWithdrawal)1271_storage": {
        "encoding": "inplace",
        "label": "struct OptimismPortal.ProvenWithdrawal",
        "numberOfBytes": "64",
        "members": [
          {
            "astId": 1266,
            "contract": "contracts/L1/OptimismPortal.sol:OptimismPortal",
            "label": "outputRoot",
            "offset": 0,
            "slot": "0",
            "type": "t_bytes32"
          },
          {
            "astId": 1268,
            "contract": "contracts/L1/OptimismPortal.sol:OptimismPortal",
            "label": "timestamp",
            "offset": 0,
            "slot": "1",
            "type": "t_uint128"
          },
          {
            "astId": 1270,
            "contract": "contracts/L1/OptimismPortal.sol:OptimismPortal",
            "label": "l2OutputIndex",
            "offset": 16,
            "slot": "1",
            "type": "t_uint128"
          }
        ]
      },
      "t_struct(ResourceParams)1932_storage": {
        "encoding": "inplace",
        "label": "struct ResourceMetering.ResourceParams",
        "numberOfBytes": "32",
        "members": [
          {
            "astId": 1927,
            "contract": "contracts/L1/OptimismPortal.sol:OptimismPortal",
            "label": "prevBaseFee",
            "offset": 0,
            "slot": "0",
            "type": "t_uint128"
          },
          {
            "astId": 1929,
            "contract": "contracts/L1/OptimismPortal.sol:OptimismPortal",
            "label": "prevBoughtGas",
            "offset": 16,
            "slot": "0",
            "type": "t_uint64"
          },
          {
            "astId": 1931,
            "contract": "contracts/L1/OptimismPortal.sol:OptimismPortal",
            "label": "prevBlockNum",
            "offset": 24,
            "slot": "0",
            "type": "t_uint64"
          }
        ]
      },
      "t_uint128": {
        "encoding": "inplace",
        "label": "uint128",
        "numberOfBytes": "16"
      },
      "t_uint256": {
        "encoding": "inplace",
        "label": "uint256",
        "numberOfBytes": "32"
      },
      "t_uint64": {
        "encoding": "inplace",
        "label": "uint64",
        "numberOfBytes": "8"
      },
      "t_uint8": {
        "encoding": "inplace",
        "label": "uint8",
        "numberOfBytes": "1"
      }
    }
  },
  "transactionHash": "0x90beef59214dc55d61ccd956a9bfeb230aadb19e0b06bc47c816b9b3acfe26ef",
  "userdoc": {
    "version": 1,
    "kind": "user",
    "methods": {
      "GUARDIAN()": {
        "notice": "Address that has the ability to pause and unpause withdrawals."
      },
      "L2_ORACLE()": {
        "notice": "Address of the L2OutputOracle contract."
      },
      "SYSTEM_CONFIG()": {
        "notice": "Address of the SystemConfig contract."
      },
      "constructor": {
        "notice": "Constructs the OptimismPortal contract."
      },
      "depositTransaction(address,uint256,uint64,bool,bytes)": {
        "notice": "Accepts deposits of ETH and data, and emits a TransactionDeposited event for use in         deriving deposit transactions. Note that if a deposit is made by a contract, its         address will be aliased when retrieved using `tx.origin` or `msg.sender`. Consider         using the CrossDomainMessenger contracts for a simpler developer experience."
      },
      "donateETH()": {
        "notice": "Accepts ETH value without triggering a deposit to L2.         This function mainly exists for the sake of the migration between the legacy         Optimism system and Bedrock."
      },
      "finalizeWithdrawalTransaction((uint256,address,address,uint256,uint256,bytes))": {
        "notice": "Finalizes a withdrawal transaction."
      },
      "finalizedWithdrawals(bytes32)": {
        "notice": "A list of withdrawal hashes which have been successfully finalized."
      },
      "initialize(bool)": {
        "notice": "Initializer."
      },
      "isOutputFinalized(uint256)": {
        "notice": "Determine if a given output is finalized.         Reverts if the call to L2_ORACLE.getL2Output reverts.         Returns a boolean otherwise."
      },
      "l2Sender()": {
        "notice": "Address of the L2 account which initiated a withdrawal in this transaction.         If the of this variable is the default L2 sender address, then we are NOT inside of         a call to finalizeWithdrawalTransaction."
      },
      "minimumGasLimit(uint64)": {
        "notice": "Computes the minimum gas limit for a deposit.         The minimum gas limit linearly increases based on the size of the calldata.         This is to prevent users from creating L2 resource usage without paying for it.         This function can be used when interacting with the portal to ensure forwards         compatibility."
      },
      "params()": {
        "notice": "EIP-1559 style gas parameters."
      },
      "pause()": {
        "notice": "Pauses withdrawals."
      },
      "paused()": {
        "notice": "Determines if cross domain messaging is paused.         When set to true, withdrawals are paused.         This may be removed in the future."
      },
      "proveWithdrawalTransaction((uint256,address,address,uint256,uint256,bytes),uint256,(bytes32,bytes32,bytes32,bytes32),bytes[])": {
        "notice": "Proves a withdrawal transaction."
      },
      "provenWithdrawals(bytes32)": {
        "notice": "A mapping of withdrawal hashes to `ProvenWithdrawal` data."
      },
      "unpause()": {
        "notice": "Unpauses withdrawals."
      },
      "version()": {
        "notice": "Returns the full semver contract version."
      }
    },
    "events": {
      "Paused(address)": {
        "notice": "Emitted when the pause is triggered."
      },
      "TransactionDeposited(address,address,uint256,bytes)": {
        "notice": "Emitted when a transaction is deposited from L1 to L2.         The parameters of this event are read by the rollup node and used to derive deposit         transactions on L2."
      },
      "Unpaused(address)": {
        "notice": "Emitted when the pause is lifted."
      },
      "WithdrawalFinalized(bytes32,bool)": {
        "notice": "Emitted when a withdrawal transaction is finalized."
      },
      "WithdrawalProven(bytes32,address,address)": {
        "notice": "Emitted when a withdrawal transaction is proven."
      }
    },
    "notice": "The OptimismPortal is a low-level contract responsible for passing messages between L1         and L2. Messages sent directly to the OptimismPortal have no form of replayability.         Users are encouraged to use the L1CrossDomainMessenger for a higher-level interface."
  }
}