{
  "_format": "hh-sol-artifact-1",
  "contractName": "HelloWorld",
  "sourceName": "contracts/HelloWorld.sol",
  "abi": [
    {
      "inputs": [],
      "stateMutability": "nonpayable",
      "type": "constructor"
    },
    {
      "inputs": [],
      "name": "gm",
      "outputs": [
        {
          "internalType": "uint256",
          "name": "",
          "type": "uint256"
        }
      ],
      "stateMutability": "nonpayable",
      "type": "function"
    },
    {
      "inputs": [],
      "name": "time",
      "outputs": [
        {
          "internalType": "uint256",
          "name": "",
          "type": "uint256"
        }
      ],
      "stateMutability": "view",
      "type": "function"
    }
  ],
  "bytecode": "0x608060405234801561001057600080fd5b504260008190555060ed806100266000396000f3fe6080604052348015600f57600080fd5b506004361060325760003560e01c806316ada547146037578063c0129d43146051575b600080fd5b603d606b565b60405160489190609e565b60405180910390f35b60576071565b60405160629190609e565b60405180910390f35b60005481565b6000806000549050426000819055508091505090565b6000819050919050565b6098816087565b82525050565b600060208201905060b160008301846091565b9291505056fea2646970667358221220880ac624623135a410271b0c719fe0f86b85ff1eb258d2f766c58f2e87907b8864736f6c634300080f0033",
  "linkReferences": {},
  "deployedLinkReferences": {}
}