{
  "address": "0xc85A1133a231eB43E7c3284D5FF69499A94AC663",
  "abi": [
    {
      "inputs": [
        {
          "internalType": "contract OptimismPortal",
          "name": "_portal",
          "type": "address"
        }
      ],
      "stateMutability": "nonpayable",
      "type": "constructor"
    },
    {
      "anonymous": false,
      "inputs": [
        {
          "indexed": true,
          "internalType": "bytes32",
          "name": "msgHash",
          "type": "bytes32"
        }
      ],
      "name": "FailedRelayedMessage",
      "type": "event"
    },
    {
      "anonymous": false,
      "inputs": [
        {
          "indexed": false,
          "internalType": "uint8",
          "name": "version",
          "type": "uint8"
        }
      ],
      "name": "Initialized",
      "type": "event"
    },
    {
      "anonymous": false,
      "inputs": [
        {
          "indexed": true,
          "internalType": "address",
          "name": "previousOwner",
          "type": "address"
        },
        {
          "indexed": true,
          "internalType": "address",
          "name": "newOwner",
          "type": "address"
        }
      ],
      "name": "OwnershipTransferred",
      "type": "event"
    },
    {
      "anonymous": false,
      "inputs": [
        {
          "indexed": false,
          "internalType": "address",
          "name": "account",
          "type": "address"
        }
      ],
      "name": "Paused",
      "type": "event"
    },
    {
      "anonymous": false,
      "inputs": [
        {
          "indexed": true,
          "internalType": "bytes32",
          "name": "msgHash",
          "type": "bytes32"
        }
      ],
      "name": "RelayedMessage",
      "type": "event"
    },
    {
      "anonymous": false,
      "inputs": [
        {
          "indexed": true,
          "internalType": "address",
          "name": "target",
          "type": "address"
        },
        {
          "indexed": false,
          "internalType": "address",
          "name": "sender",
          "type": "address"
        },
        {
          "indexed": false,
          "internalType": "bytes",
          "name": "message",
          "type": "bytes"
        },
        {
          "indexed": false,
          "internalType": "uint256",
          "name": "messageNonce",
          "type": "uint256"
        },
        {
          "indexed": false,
          "internalType": "uint256",
          "name": "gasLimit",
          "type": "uint256"
        }
      ],
      "name": "SentMessage",
      "type": "event"
    },
    {
      "anonymous": false,
      "inputs": [
        {
          "indexed": true,
          "internalType": "address",
          "name": "sender",
          "type": "address"
        },
        {
          "indexed": false,
          "internalType": "uint256",
          "name": "value",
          "type": "uint256"
        }
      ],
      "name": "SentMessageExtension1",
      "type": "event"
    },
    {
      "anonymous": false,
      "inputs": [
        {
          "indexed": false,
          "internalType": "address",
          "name": "account",
          "type": "address"
        }
      ],
      "name": "Unpaused",
      "type": "event"
    },
    {
      "inputs": [],
      "name": "MESSAGE_VERSION",
      "outputs": [
        {
          "internalType": "uint16",
          "name": "",
          "type": "uint16"
        }
      ],
      "stateMutability": "view",
      "type": "function"
    },
    {
      "inputs": [],
      "name": "MIN_GAS_CALLDATA_OVERHEAD",
      "outputs": [
        {
          "internalType": "uint64",
          "name": "",
          "type": "uint64"
        }
      ],
      "stateMutability": "view",
      "type": "function"
    },
    {
      "inputs": [],
      "name": "MIN_GAS_CONSTANT_OVERHEAD",
      "outputs": [
        {
          "internalType": "uint64",
          "name": "",
          "type": "uint64"
        }
      ],
      "stateMutability": "view",
      "type": "function"
    },
    {
      "inputs": [],
      "name": "MIN_GAS_DYNAMIC_OVERHEAD_DENOMINATOR",
      "outputs": [
        {
          "internalType": "uint64",
          "name": "",
          "type": "uint64"
        }
      ],
      "stateMutability": "view",
      "type": "function"
    },
    {
      "inputs": [],
      "name": "MIN_GAS_DYNAMIC_OVERHEAD_NUMERATOR",
      "outputs": [
        {
          "internalType": "uint64",
          "name": "",
          "type": "uint64"
        }
      ],
      "stateMutability": "view",
      "type": "function"
    },
    {
      "inputs": [],
      "name": "OTHER_MESSENGER",
      "outputs": [
        {
          "internalType": "address",
          "name": "",
          "type": "address"
        }
      ],
      "stateMutability": "view",
      "type": "function"
    },
    {
      "inputs": [],
      "name": "PORTAL",
      "outputs": [
        {
          "internalType": "contract OptimismPortal",
          "name": "",
          "type": "address"
        }
      ],
      "stateMutability": "view",
      "type": "function"
    },
    {
      "inputs": [
        {
          "internalType": "bytes",
          "name": "_message",
          "type": "bytes"
        },
        {
          "internalType": "uint32",
          "name": "_minGasLimit",
          "type": "uint32"
        }
      ],
      "name": "baseGas",
      "outputs": [
        {
          "internalType": "uint64",
          "name": "",
          "type": "uint64"
        }
      ],
      "stateMutability": "pure",
      "type": "function"
    },
    {
      "inputs": [
        {
          "internalType": "bytes32",
          "name": "",
          "type": "bytes32"
        }
      ],
      "name": "failedMessages",
      "outputs": [
        {
          "internalType": "bool",
          "name": "",
          "type": "bool"
        }
      ],
      "stateMutability": "view",
      "type": "function"
    },
    {
      "inputs": [
        {
          "internalType": "address",
          "name": "_owner",
          "type": "address"
        }
      ],
      "name": "initialize",
      "outputs": [],
      "stateMutability": "nonpayable",
      "type": "function"
    },
    {
      "inputs": [],
      "name": "messageNonce",
      "outputs": [
        {
          "internalType": "uint256",
          "name": "",
          "type": "uint256"
        }
      ],
      "stateMutability": "view",
      "type": "function"
    },
    {
      "inputs": [],
      "name": "owner",
      "outputs": [
        {
          "internalType": "address",
          "name": "",
          "type": "address"
        }
      ],
      "stateMutability": "view",
      "type": "function"
    },
    {
      "inputs": [],
      "name": "pause",
      "outputs": [],
      "stateMutability": "nonpayable",
      "type": "function"
    },
    {
      "inputs": [],
      "name": "paused",
      "outputs": [
        {
          "internalType": "bool",
          "name": "",
          "type": "bool"
        }
      ],
      "stateMutability": "view",
      "type": "function"
    },
    {
      "inputs": [
        {
          "internalType": "uint256",
          "name": "_nonce",
          "type": "uint256"
        },
        {
          "internalType": "address",
          "name": "_sender",
          "type": "address"
        },
        {
          "internalType": "address",
          "name": "_target",
          "type": "address"
        },
        {
          "internalType": "uint256",
          "name": "_value",
          "type": "uint256"
        },
        {
          "internalType": "uint256",
          "name": "_minGasLimit",
          "type": "uint256"
        },
        {
          "internalType": "bytes",
          "name": "_message",
          "type": "bytes"
        }
      ],
      "name": "relayMessage",
      "outputs": [],
      "stateMutability": "payable",
      "type": "function"
    },
    {
      "inputs": [],
      "name": "renounceOwnership",
      "outputs": [],
      "stateMutability": "nonpayable",
      "type": "function"
    },
    {
      "inputs": [
        {
          "internalType": "address",
          "name": "_target",
          "type": "address"
        },
        {
          "internalType": "bytes",
          "name": "_message",
          "type": "bytes"
        },
        {
          "internalType": "uint32",
          "name": "_minGasLimit",
          "type": "uint32"
        }
      ],
      "name": "sendMessage",
      "outputs": [],
      "stateMutability": "payable",
      "type": "function"
    },
    {
      "inputs": [
        {
          "internalType": "bytes32",
          "name": "",
          "type": "bytes32"
        }
      ],
      "name": "successfulMessages",
      "outputs": [
        {
          "internalType": "bool",
          "name": "",
          "type": "bool"
        }
      ],
      "stateMutability": "view",
      "type": "function"
    },
    {
      "inputs": [
        {
          "internalType": "address",
          "name": "newOwner",
          "type": "address"
        }
      ],
      "name": "transferOwnership",
      "outputs": [],
      "stateMutability": "nonpayable",
      "type": "function"
    },
    {
      "inputs": [],
      "name": "unpause",
      "outputs": [],
      "stateMutability": "nonpayable",
      "type": "function"
    },
    {
      "inputs": [],
      "name": "version",
      "outputs": [
        {
          "internalType": "string",
          "name": "",
          "type": "string"
        }
      ],
      "stateMutability": "view",
      "type": "function"
    },
    {
      "inputs": [],
      "name": "xDomainMessageSender",
      "outputs": [
        {
          "internalType": "address",
          "name": "",
          "type": "address"
        }
      ],
      "stateMutability": "view",
      "type": "function"
    }
  ],
  "transactionHash": "0x0e3af0f9f68add8d400498e33ba2a64d7b65e2193b234500a75b5b499493c61c",
  "args": [
    "0x83a242F8481D4F8a605Aa82BA9D42BA574054258"
  ],
  "numDeployments": 1,
  "solcInputHash": "46b1d8460586c4660b2379cf0ba282ef",
  "bytecode": "0x6101206040523480156200001257600080fd5b5060405162002c3c38038062002c3c83398101604081905262000035916200046a565b734200000000000000000000000000000000000007608052600160a052600060c081905260e08190526001600160a01b0382166101005262000077906200007e565b506200049c565b600054600160a81b900460ff1615808015620000a757506000546001600160a01b90910460ff16105b80620000de5750620000c430620001d760201b6200143b1760201c565b158015620000de5750600054600160a01b900460ff166001145b620001475760405162461bcd60e51b815260206004820152602e60248201527f496e697469616c697a61626c653a20636f6e747261637420697320616c72656160448201526d191e481a5b9a5d1a585b1a5e995960921b60648201526084015b60405180910390fd5b6000805460ff60a01b1916600160a01b179055801562000175576000805460ff60a81b1916600160a81b1790555b6200017f620001e6565b6200018a8262000282565b8015620001d3576000805460ff60a81b19169055604051600181527f7f26b83ff96e1f2b6a682f133852f6798a09c465da95921460cefb38474024989060200160405180910390a15b5050565b6001600160a01b03163b151590565b600054600160a81b900460ff16620002445760405162461bcd60e51b815260206004820152602b602482015260008051602062002c1c83398151915260448201526a6e697469616c697a696e6760a81b60648201526084016200013e565b60cc80546001600160a01b03191661dead17905562000262620002d4565b6200026c62000332565b620002766200039b565b6200028062000405565b565b603380546001600160a01b038381166001600160a01b0319831681179093556040519116919082907f8be0079c531659141344cd1fd0a4f28419497f9722a3daafe3b4186f6b6457e090600090a35050565b600054600160a81b900460ff16620002805760405162461bcd60e51b815260206004820152602b602482015260008051602062002c1c83398151915260448201526a6e697469616c697a696e6760a81b60648201526084016200013e565b600054600160a81b900460ff16620003905760405162461bcd60e51b815260206004820152602b602482015260008051602062002c1c83398151915260448201526a6e697469616c697a696e6760a81b60648201526084016200013e565b620002803362000282565b600054600160a81b900460ff16620003f95760405162461bcd60e51b815260206004820152602b602482015260008051602062002c1c83398151915260448201526a6e697469616c697a696e6760a81b60648201526084016200013e565b6065805460ff19169055565b600054600160a81b900460ff16620004635760405162461bcd60e51b815260206004820152602b602482015260008051602062002c1c83398151915260448201526a6e697469616c697a696e6760a81b60648201526084016200013e565b6001609755565b6000602082840312156200047d57600080fd5b81516001600160a01b03811681146200049557600080fd5b9392505050565b60805160a05160c05160e051610100516127116200050b600039600081816101d501528181611494015281816119d101528181611a320152611afe015260006107860152600061075d0152600061073401526000818161035d015281816104bc01526119fb01526127116000f3fe6080604052600436106101755760003560e01c80637dea7cc3116100cb578063b1b1b2091161007f578063d764ad0b11610059578063d764ad0b1461041f578063ecc7042814610432578063f2fde38b1461049757600080fd5b8063b1b1b209146103af578063b28ade25146103df578063c4d66de8146103ff57600080fd5b80638da5cb5b116100b05780638da5cb5b146103205780639fce812c1461034b578063a4e7f8bd1461037f57600080fd5b80637dea7cc3146102f45780638456cb591461030b57600080fd5b80633f4ba83a1161012d5780635c975abb116101075780635c975abb146102a65780636e296e45146102ca578063715018a6146102df57600080fd5b80633f4ba83a146102475780633f827a5a1461025c57806354fd4d501461028457600080fd5b80630ff754ea1161015e5780630ff754ea146101c35780632828d7e81461021c5780633dbb202b1461023257600080fd5b8063028f85f71461017a5780630c568498146101ad575b600080fd5b34801561018657600080fd5b5061018f601081565b60405167ffffffffffffffff90911681526020015b60405180910390f35b3480156101b957600080fd5b5061018f6103e881565b3480156101cf57600080fd5b506101f77f000000000000000000000000000000000000000000000000000000000000000081565b60405173ffffffffffffffffffffffffffffffffffffffff90911681526020016101a4565b34801561022857600080fd5b5061018f6103f881565b61024561024036600461207a565b6104b7565b005b34801561025357600080fd5b5061024561071b565b34801561026857600080fd5b50610271600181565b60405161ffff90911681526020016101a4565b34801561029057600080fd5b5061029961072d565b6040516101a4919061215b565b3480156102b257600080fd5b5060655460ff165b60405190151581526020016101a4565b3480156102d657600080fd5b506101f76107d0565b3480156102eb57600080fd5b506102456108bc565b34801561030057600080fd5b5061018f62030d4081565b34801561031757600080fd5b506102456108ce565b34801561032c57600080fd5b5060335473ffffffffffffffffffffffffffffffffffffffff166101f7565b34801561035757600080fd5b506101f77f000000000000000000000000000000000000000000000000000000000000000081565b34801561038b57600080fd5b506102ba61039a366004612175565b60ce6020526000908152604090205460ff1681565b3480156103bb57600080fd5b506102ba6103ca366004612175565b60cb6020526000908152604090205460ff1681565b3480156103eb57600080fd5b5061018f6103fa36600461218e565b6108de565b34801561040b57600080fd5b5061024561041a3660046121e2565b61092a565b61024561042d3660046121ff565b610b31565b34801561043e57600080fd5b5061048960cd547dffffffffffffffffffffffffffffffffffffffffffffffffffffffffffff167e010000000000000000000000000000000000000000000000000000000000001790565b6040519081526020016101a4565b3480156104a357600080fd5b506102456104b23660046121e2565b611384565b6105f07f00000000000000000000000000000000000000000000000000000000000000006104e68585856108de565b347fd764ad0b0000000000000000000000000000000000000000000000000000000061055260cd547dffffffffffffffffffffffffffffffffffffffffffffffffffffffffffff167e010000000000000000000000000000000000000000000000000000000000001790565b338a34898c8c60405160240161056e97969594939291906122ce565b604080517fffffffffffffffffffffffffffffffffffffffffffffffffffffffffffffffe08184030181529190526020810180517bffffffffffffffffffffffffffffffffffffffffffffffffffffffff167fffffffff0000000000000000000000000000000000000000000000000000000090931692909217909152611457565b8373ffffffffffffffffffffffffffffffffffffffff167fcb0f7ffd78f9aee47a248fae8db181db6eee833039123e026dcbff529522e52a33858561067560cd547dffffffffffffffffffffffffffffffffffffffffffffffffffffffffffff167e010000000000000000000000000000000000000000000000000000000000001790565b8660405161068795949392919061232d565b60405180910390a260405134815233907f8ebb2ec2465bdb2a06a66fc37a0963af8a2a6a1479d81d56fdb8cbb98096d5469060200160405180910390a2505060cd80547dffffffffffffffffffffffffffffffffffffffffffffffffffffffffffff808216600101167fffff0000000000000000000000000000000000000000000000000000000000009091161790555050565b61072361150c565b61072b61158d565b565b60606107587f000000000000000000000000000000000000000000000000000000000000000061160a565b6107817f000000000000000000000000000000000000000000000000000000000000000061160a565b6107aa7f000000000000000000000000000000000000000000000000000000000000000061160a565b6040516020016107bc9392919061237b565b604051602081830303815290604052905090565b60cc5460009073ffffffffffffffffffffffffffffffffffffffff167fffffffffffffffffffffffffffffffffffffffffffffffffffffffffffff21530161089f576040517f08c379a000000000000000000000000000000000000000000000000000000000815260206004820152603560248201527f43726f7373446f6d61696e4d657373656e6765723a2078446f6d61696e4d657360448201527f7361676553656e646572206973206e6f7420736574000000000000000000000060648201526084015b60405180910390fd5b5060cc5473ffffffffffffffffffffffffffffffffffffffff1690565b6108c461150c565b61072b600061173f565b6108d661150c565b61072b6117b6565b600062030d406108ef601085612420565b6103e86109046103f863ffffffff8716612420565b61090e919061247f565b61091891906124a6565b61092291906124a6565b949350505050565b6000547501000000000000000000000000000000000000000000900460ff1615808015610975575060005460017401000000000000000000000000000000000000000090910460ff16105b806109a75750303b1580156109a7575060005474010000000000000000000000000000000000000000900460ff166001145b610a33576040517f08c379a000000000000000000000000000000000000000000000000000000000815260206004820152602e60248201527f496e697469616c697a61626c653a20636f6e747261637420697320616c72656160448201527f647920696e697469616c697a65640000000000000000000000000000000000006064820152608401610896565b600080547fffffffffffffffffffffff00ffffffffffffffffffffffffffffffffffffffff16740100000000000000000000000000000000000000001790558015610ab957600080547fffffffffffffffffffff00ffffffffffffffffffffffffffffffffffffffffff1675010000000000000000000000000000000000000000001790555b610ac1611811565b610aca8261173f565b8015610b2d57600080547fffffffffffffffffffff00ffffffffffffffffffffffffffffffffffffffffff169055604051600181527f7f26b83ff96e1f2b6a682f133852f6798a09c465da95921460cefb38474024989060200160405180910390a15b5050565b600260975403610b9d576040517f08c379a000000000000000000000000000000000000000000000000000000000815260206004820152601f60248201527f5265656e7472616e637947756172643a207265656e7472616e742063616c6c006044820152606401610896565b6002609755610baa611908565b60f087901c60028110610c65576040517f08c379a000000000000000000000000000000000000000000000000000000000815260206004820152604d60248201527f43726f7373446f6d61696e4d657373656e6765723a206f6e6c7920766572736960448201527f6f6e2030206f722031206d657373616765732061726520737570706f7274656460648201527f20617420746869732074696d6500000000000000000000000000000000000000608482015260a401610896565b8061ffff16600003610d5a576000610cb6878986868080601f0160208091040260200160405190810160405280939291908181526020018383808284376000920191909152508f9250611975915050565b600081815260cb602052604090205490915060ff1615610d58576040517f08c379a000000000000000000000000000000000000000000000000000000000815260206004820152603760248201527f43726f7373446f6d61696e4d657373656e6765723a206c65676163792077697460448201527f6864726177616c20616c72656164792072656c617965640000000000000000006064820152608401610896565b505b6000610da0898989898989898080601f01602080910402602001604051908101604052809392919081815260200183838082843760009201919091525061199492505050565b9050610daa6119b7565b15610de257853414610dbe57610dbe6124d2565b600081815260ce602052604090205460ff1615610ddd57610ddd6124d2565b610f34565b3415610e96576040517f08c379a000000000000000000000000000000000000000000000000000000000815260206004820152605060248201527f43726f7373446f6d61696e4d657373656e6765723a2076616c7565206d75737460448201527f206265207a65726f20756e6c657373206d6573736167652069732066726f6d2060648201527f612073797374656d206164647265737300000000000000000000000000000000608482015260a401610896565b600081815260ce602052604090205460ff16610f34576040517f08c379a000000000000000000000000000000000000000000000000000000000815260206004820152603060248201527f43726f7373446f6d61696e4d657373656e6765723a206d65737361676520636160448201527f6e6e6f74206265207265706c61796564000000000000000000000000000000006064820152608401610896565b610f3d87611adb565b15610ff0576040517f08c379a000000000000000000000000000000000000000000000000000000000815260206004820152604360248201527f43726f7373446f6d61696e4d657373656e6765723a2063616e6e6f742073656e60448201527f64206d65737361676520746f20626c6f636b65642073797374656d206164647260648201527f6573730000000000000000000000000000000000000000000000000000000000608482015260a401610896565b600081815260cb602052604090205460ff161561108f576040517f08c379a000000000000000000000000000000000000000000000000000000000815260206004820152603660248201527f43726f7373446f6d61696e4d657373656e6765723a206d65737361676520686160448201527f7320616c7265616479206265656e2072656c61796564000000000000000000006064820152608401610896565b61109b61afc886612501565b5a101561112a576040517f08c379a000000000000000000000000000000000000000000000000000000000815260206004820152603760248201527f43726f7373446f6d61696e4d657373656e6765723a20696e737566666963696560448201527f6e742067617320746f2072656c6179206d6573736167650000000000000000006064820152608401610896565b60cc80547fffffffffffffffffffffffff00000000000000000000000000000000000000001673ffffffffffffffffffffffffffffffffffffffff8a1617905560006111c68861117e61138861afc8612519565b5a6111899190612519565b8988888080601f016020809104026020016040519081016040528093929190818152602001838380828437600092019190915250611b5292505050565b60cc80547fffffffffffffffffffffffff00000000000000000000000000000000000000001661dead179055905080151560010361126157600082815260cb602052604080822080547fffffffffffffffffffffffffffffffffffffffffffffffffffffffffffffff001660011790555183917f4641df4a962071e12719d8c8c8e5ac7fc4d97b927346a3d7a335b1f7517e133c91a261136e565b600082815260ce602052604080822080547fffffffffffffffffffffffffffffffffffffffffffffffffffffffffffffff001660011790555183917f99d0e048484baa1b1540b1367cb128acd7ab2946d1ed91ec10e3c85e4bf51b8f91a27fffffffffffffffffffffffffffffffffffffffffffffffffffffffffffffffff320161136e576040517f08c379a000000000000000000000000000000000000000000000000000000000815260206004820152602d60248201527f43726f7373446f6d61696e4d657373656e6765723a206661696c656420746f2060448201527f72656c6179206d657373616765000000000000000000000000000000000000006064820152608401610896565b505060016097555050505050505050565b905090565b61138c61150c565b73ffffffffffffffffffffffffffffffffffffffff811661142f576040517f08c379a000000000000000000000000000000000000000000000000000000000815260206004820152602660248201527f4f776e61626c653a206e6577206f776e657220697320746865207a65726f206160448201527f64647265737300000000000000000000000000000000000000000000000000006064820152608401610896565b6114388161173f565b50565b73ffffffffffffffffffffffffffffffffffffffff163b151590565b6040517fe9e05c4200000000000000000000000000000000000000000000000000000000815273ffffffffffffffffffffffffffffffffffffffff7f0000000000000000000000000000000000000000000000000000000000000000169063e9e05c429084906114d4908890839089906000908990600401612530565b6000604051808303818588803b1580156114ed57600080fd5b505af1158015611501573d6000803e3d6000fd5b505050505050505050565b60335473ffffffffffffffffffffffffffffffffffffffff16331461072b576040517f08c379a000000000000000000000000000000000000000000000000000000000815260206004820181905260248201527f4f776e61626c653a2063616c6c6572206973206e6f7420746865206f776e65726044820152606401610896565b611595611b6c565b606580547fffffffffffffffffffffffffffffffffffffffffffffffffffffffffffffff001690557f5db9ee0a495bf2e6ff9c91a7834c1ba4fdd244a5e8aa4e537bd38aeae4b073aa335b60405173ffffffffffffffffffffffffffffffffffffffff909116815260200160405180910390a1565b60608160000361164d57505060408051808201909152600181527f3000000000000000000000000000000000000000000000000000000000000000602082015290565b8160005b8115611677578061166181612588565b91506116709050600a836125c0565b9150611651565b60008167ffffffffffffffff811115611692576116926125d4565b6040519080825280601f01601f1916602001820160405280156116bc576020820181803683370190505b5090505b8415610922576116d1600183612519565b91506116de600a86612603565b6116e9906030612501565b60f81b8183815181106116fe576116fe612617565b60200101907effffffffffffffffffffffffffffffffffffffffffffffffffffffffffffff1916908160001a905350611738600a866125c0565b94506116c0565b6033805473ffffffffffffffffffffffffffffffffffffffff8381167fffffffffffffffffffffffff0000000000000000000000000000000000000000831681179093556040519116919082907f8be0079c531659141344cd1fd0a4f28419497f9722a3daafe3b4186f6b6457e090600090a35050565b6117be611908565b606580547fffffffffffffffffffffffffffffffffffffffffffffffffffffffffffffff001660011790557f62e78cea01bee320cd4e420270b5ea74000d11b0c9f74754ebdbfc544b05a2586115e03390565b6000547501000000000000000000000000000000000000000000900460ff166118bc576040517f08c379a000000000000000000000000000000000000000000000000000000000815260206004820152602b60248201527f496e697469616c697a61626c653a20636f6e7472616374206973206e6f74206960448201527f6e697469616c697a696e670000000000000000000000000000000000000000006064820152608401610896565b60cc80547fffffffffffffffffffffffff00000000000000000000000000000000000000001661dead1790556118f0611bd8565b6118f8611c83565b611900611d37565b61072b611e0c565b60655460ff161561072b576040517f08c379a000000000000000000000000000000000000000000000000000000000815260206004820152601060248201527f5061757361626c653a20706175736564000000000000000000000000000000006044820152606401610896565b600061198385858585611ebe565b805190602001209050949350505050565b60006119a4878787878787611f57565b8051906020012090509695505050505050565b60003373ffffffffffffffffffffffffffffffffffffffff7f00000000000000000000000000000000000000000000000000000000000000001614801561137f57507f000000000000000000000000000000000000000000000000000000000000000073ffffffffffffffffffffffffffffffffffffffff167f000000000000000000000000000000000000000000000000000000000000000073ffffffffffffffffffffffffffffffffffffffff16639bf62d826040518163ffffffff1660e01b8152600401602060405180830381865afa158015611a9b573d6000803e3d6000fd5b505050506040513d601f19601f82011682018060405250810190611abf9190612646565b73ffffffffffffffffffffffffffffffffffffffff1614905090565b600073ffffffffffffffffffffffffffffffffffffffff8216301480611b4c57507f000000000000000000000000000000000000000000000000000000000000000073ffffffffffffffffffffffffffffffffffffffff168273ffffffffffffffffffffffffffffffffffffffff16145b92915050565b600080600080845160208601878a8af19695505050505050565b60655460ff1661072b576040517f08c379a000000000000000000000000000000000000000000000000000000000815260206004820152601460248201527f5061757361626c653a206e6f74207061757365640000000000000000000000006044820152606401610896565b6000547501000000000000000000000000000000000000000000900460ff1661072b576040517f08c379a000000000000000000000000000000000000000000000000000000000815260206004820152602b60248201527f496e697469616c697a61626c653a20636f6e7472616374206973206e6f74206960448201527f6e697469616c697a696e670000000000000000000000000000000000000000006064820152608401610896565b6000547501000000000000000000000000000000000000000000900460ff16611d2e576040517f08c379a000000000000000000000000000000000000000000000000000000000815260206004820152602b60248201527f496e697469616c697a61626c653a20636f6e7472616374206973206e6f74206960448201527f6e697469616c697a696e670000000000000000000000000000000000000000006064820152608401610896565b61072b3361173f565b6000547501000000000000000000000000000000000000000000900460ff16611de2576040517f08c379a000000000000000000000000000000000000000000000000000000000815260206004820152602b60248201527f496e697469616c697a61626c653a20636f6e7472616374206973206e6f74206960448201527f6e697469616c697a696e670000000000000000000000000000000000000000006064820152608401610896565b606580547fffffffffffffffffffffffffffffffffffffffffffffffffffffffffffffff00169055565b6000547501000000000000000000000000000000000000000000900460ff16611eb7576040517f08c379a000000000000000000000000000000000000000000000000000000000815260206004820152602b60248201527f496e697469616c697a61626c653a20636f6e7472616374206973206e6f74206960448201527f6e697469616c697a696e670000000000000000000000000000000000000000006064820152608401610896565b6001609755565b606084848484604051602401611ed79493929190612663565b604080517fffffffffffffffffffffffffffffffffffffffffffffffffffffffffffffffe08184030181529190526020810180517bffffffffffffffffffffffffffffffffffffffffffffffffffffffff167fcbd4ece9000000000000000000000000000000000000000000000000000000001790529050949350505050565b6060868686868686604051602401611f74969594939291906126ad565b604080517fffffffffffffffffffffffffffffffffffffffffffffffffffffffffffffffe08184030181529190526020810180517bffffffffffffffffffffffffffffffffffffffffffffffffffffffff167fd764ad0b0000000000000000000000000000000000000000000000000000000017905290509695505050505050565b73ffffffffffffffffffffffffffffffffffffffff8116811461143857600080fd5b60008083601f84011261202a57600080fd5b50813567ffffffffffffffff81111561204257600080fd5b60208301915083602082850101111561205a57600080fd5b9250929050565b803563ffffffff8116811461207557600080fd5b919050565b6000806000806060858703121561209057600080fd5b843561209b81611ff6565b9350602085013567ffffffffffffffff8111156120b757600080fd5b6120c387828801612018565b90945092506120d6905060408601612061565b905092959194509250565b60005b838110156120fc5781810151838201526020016120e4565b8381111561210b576000848401525b50505050565b600081518084526121298160208601602086016120e1565b601f017fffffffffffffffffffffffffffffffffffffffffffffffffffffffffffffffe0169290920160200192915050565b60208152600061216e6020830184612111565b9392505050565b60006020828403121561218757600080fd5b5035919050565b6000806000604084860312156121a357600080fd5b833567ffffffffffffffff8111156121ba57600080fd5b6121c686828701612018565b90945092506121d9905060208501612061565b90509250925092565b6000602082840312156121f457600080fd5b813561216e81611ff6565b600080600080600080600060c0888a03121561221a57600080fd5b87359650602088013561222c81611ff6565b9550604088013561223c81611ff6565b9450606088013593506080880135925060a088013567ffffffffffffffff81111561226657600080fd5b6122728a828b01612018565b989b979a50959850939692959293505050565b8183528181602085013750600060208284010152600060207fffffffffffffffffffffffffffffffffffffffffffffffffffffffffffffffe0601f840116840101905092915050565b878152600073ffffffffffffffffffffffffffffffffffffffff808916602084015280881660408401525085606083015263ffffffff8516608083015260c060a083015261232060c083018486612285565b9998505050505050505050565b73ffffffffffffffffffffffffffffffffffffffff8616815260806020820152600061235d608083018688612285565b905083604083015263ffffffff831660608301529695505050505050565b6000845161238d8184602089016120e1565b80830190507f2e0000000000000000000000000000000000000000000000000000000000000080825285516123c9816001850160208a016120e1565b600192019182015283516123e48160028401602088016120e1565b0160020195945050505050565b7f4e487b7100000000000000000000000000000000000000000000000000000000600052601160045260246000fd5b600067ffffffffffffffff80831681851681830481118215151615612447576124476123f1565b02949350505050565b7f4e487b7100000000000000000000000000000000000000000000000000000000600052601260045260246000fd5b600067ffffffffffffffff8084168061249a5761249a612450565b92169190910492915050565b600067ffffffffffffffff8083168185168083038211156124c9576124c96123f1565b01949350505050565b7f4e487b7100000000000000000000000000000000000000000000000000000000600052600160045260246000fd5b60008219821115612514576125146123f1565b500190565b60008282101561252b5761252b6123f1565b500390565b73ffffffffffffffffffffffffffffffffffffffff8616815284602082015267ffffffffffffffff84166040820152821515606082015260a06080820152600061257d60a0830184612111565b979650505050505050565b60007fffffffffffffffffffffffffffffffffffffffffffffffffffffffffffffffff82036125b9576125b96123f1565b5060010190565b6000826125cf576125cf612450565b500490565b7f4e487b7100000000000000000000000000000000000000000000000000000000600052604160045260246000fd5b60008261261257612612612450565b500690565b7f4e487b7100000000000000000000000000000000000000000000000000000000600052603260045260246000fd5b60006020828403121561265857600080fd5b815161216e81611ff6565b600073ffffffffffffffffffffffffffffffffffffffff80871683528086166020840152506080604083015261269c6080830185612111565b905082606083015295945050505050565b868152600073ffffffffffffffffffffffffffffffffffffffff808816602084015280871660408401525084606083015283608083015260c060a08301526126f860c0830184612111565b9897505050505050505056fea164736f6c634300080f000a496e697469616c697a61626c653a20636f6e7472616374206973206e6f742069",
  "devdoc": {
    "version": 1,
    "kind": "dev",
    "methods": {
      "baseGas(bytes,uint32)": {
        "params": {
          "_message": "Message to compute the amount of required gas for.",
          "_minGasLimit": "Minimum desired gas limit when message goes to target."
        },
        "returns": {
          "_0": "Amount of gas required to guarantee message receipt."
        }
      },
      "constructor": {
        "params": {
          "_portal": "Address of the OptimismPortal contract on this network."
        }
      },
      "initialize(address)": {
        "params": {
          "_owner": "Address of the initial owner of this contract."
        }
      },
      "messageNonce()": {
        "returns": {
          "_0": "Nonce of the next message to be sent, with added message version."
        }
      },
      "owner()": {
        "details": "Returns the address of the current owner."
      },
      "paused()": {
        "details": "Returns true if the contract is paused, and false otherwise."
      },
      "relayMessage(uint256,address,address,uint256,uint256,bytes)": {
        "params": {
          "_message": "Message to send to the target.",
          "_minGasLimit": "Minimum amount of gas that the message can be executed with.",
          "_nonce": "Nonce of the message being relayed.",
          "_sender": "Address of the user who sent the message.",
          "_target": "Address that the message is targeted at.",
          "_value": "ETH value to send with the message."
        }
      },
      "renounceOwnership()": {
        "details": "Leaves the contract without owner. It will not be possible to call `onlyOwner` functions anymore. Can only be called by the current owner. NOTE: Renouncing ownership will leave the contract without an owner, thereby removing any functionality that is only available to the owner."
      },
      "sendMessage(address,bytes,uint32)": {
        "params": {
          "_message": "Message to trigger the target address with.",
          "_minGasLimit": "Minimum gas limit that the message can be executed with.",
          "_target": "Target contract or wallet address."
        }
      },
      "transferOwnership(address)": {
        "details": "Transfers ownership of the contract to a new account (`newOwner`). Can only be called by the current owner."
      },
      "version()": {
        "returns": {
          "_0": "Semver contract version as a string."
        }
      },
      "xDomainMessageSender()": {
        "returns": {
          "_0": "Address of the sender of the currently executing message on the other chain."
        }
      }
    }
  },
  "userdoc": {
    "version": 1,
    "kind": "user",
    "methods": {
      "MESSAGE_VERSION()": {
        "notice": "Current message version identifier."
      },
      "MIN_GAS_CALLDATA_OVERHEAD()": {
        "notice": "Extra gas added to base gas for each byte of calldata in a message."
      },
      "MIN_GAS_CONSTANT_OVERHEAD()": {
        "notice": "Constant overhead added to the base gas for a message."
      },
      "MIN_GAS_DYNAMIC_OVERHEAD_DENOMINATOR()": {
        "notice": "Denominator for dynamic overhead added to the base gas for a message."
      },
      "MIN_GAS_DYNAMIC_OVERHEAD_NUMERATOR()": {
        "notice": "Numerator for dynamic overhead added to the base gas for a message."
      },
      "OTHER_MESSENGER()": {
        "notice": "Address of the paired CrossDomainMessenger contract on the other chain."
      },
      "PORTAL()": {
        "notice": "Address of the OptimismPortal."
      },
      "baseGas(bytes,uint32)": {
        "notice": "Computes the amount of gas required to guarantee that a given message will be         received on the other chain without running out of gas. Guaranteeing that a message         will not run out of gas is important because this ensures that a message can always         be replayed on the other chain if it fails to execute completely."
      },
      "failedMessages(bytes32)": {
        "notice": "Mapping of message hashes to a boolean if and only if the message has failed to be         executed at least once. A message will not be present in this mapping if it         successfully executed on the first attempt."
      },
      "initialize(address)": {
        "notice": "Initializer."
      },
      "messageNonce()": {
        "notice": "Retrieves the next message nonce. Message version will be added to the upper two         bytes of the message nonce. Message version allows us to treat messages as having         different structures."
      },
      "pause()": {
        "notice": "Allows the owner of this contract to temporarily pause message relaying. Backup         security mechanism just in case. Owner should be the same as the upgrade wallet to         maintain the security model of the system as a whole."
      },
      "relayMessage(uint256,address,address,uint256,uint256,bytes)": {
        "notice": "Relays a message that was sent by the other CrossDomainMessenger contract. Can only         be executed via cross-chain call from the other messenger OR if the message was         already received once and is currently being replayed."
      },
      "sendMessage(address,bytes,uint32)": {
        "notice": "Sends a message to some target address on the other chain. Note that if the call         always reverts, then the message will be unrelayable, and any ETH sent will be         permanently locked. The same will occur if the target on the other chain is         considered unsafe (see the _isUnsafeTarget() function)."
      },
      "successfulMessages(bytes32)": {
        "notice": "Mapping of message hashes to boolean receipt values. Note that a message will only         be present in this mapping if it has successfully been relayed on this chain, and         can therefore not be relayed again."
      },
      "unpause()": {
        "notice": "Allows the owner of this contract to resume message relaying once paused."
      },
      "version()": {
        "notice": "Returns the full semver contract version."
      },
      "xDomainMessageSender()": {
        "notice": "Retrieves the address of the contract or wallet that initiated the currently         executing message on the other chain. Will throw an error if there is no message         currently being executed. Allows the recipient of a call to see who triggered it."
      }
    },
    "events": {
      "FailedRelayedMessage(bytes32)": {
        "notice": "Emitted whenever a message fails to be relayed on this chain."
      },
      "RelayedMessage(bytes32)": {
        "notice": "Emitted whenever a message is successfully relayed on this chain."
      },
      "SentMessage(address,address,bytes,uint256,uint256)": {
        "notice": "Emitted whenever a message is sent to the other chain."
      },
      "SentMessageExtension1(address,uint256)": {
        "notice": "Additional event data to emit, required as of Bedrock. Cannot be merged with the         SentMessage event without breaking the ABI of this contract, this is good enough."
      }
    },
    "notice": "The L1CrossDomainMessenger is a message passing interface between L1 and L2 responsible         for sending and receiving data on the L1 side. Users are encouraged to use this         interface instead of interacting with lower-level contracts directly."
  },
  "storageLayout": {
    "storage": [
      {
        "astId": 38304,
        "contract": "contracts/L1/L1CrossDomainMessenger.sol:L1CrossDomainMessenger",
        "label": "spacer_0_0_20",
        "offset": 0,
        "slot": "0",
        "type": "t_address"
      },
      {
        "astId": 41495,
        "contract": "contracts/L1/L1CrossDomainMessenger.sol:L1CrossDomainMessenger",
        "label": "_initialized",
        "offset": 20,
        "slot": "0",
        "type": "t_uint8"
      },
      {
        "astId": 41498,
        "contract": "contracts/L1/L1CrossDomainMessenger.sol:L1CrossDomainMessenger",
        "label": "_initializing",
        "offset": 21,
        "slot": "0",
        "type": "t_bool"
      },
      {
        "astId": 42109,
        "contract": "contracts/L1/L1CrossDomainMessenger.sol:L1CrossDomainMessenger",
        "label": "__gap",
        "offset": 0,
        "slot": "1",
        "type": "t_array(t_uint256)50_storage"
      },
      {
        "astId": 41367,
        "contract": "contracts/L1/L1CrossDomainMessenger.sol:L1CrossDomainMessenger",
        "label": "_owner",
        "offset": 0,
        "slot": "51",
        "type": "t_address"
      },
      {
        "astId": 41487,
        "contract": "contracts/L1/L1CrossDomainMessenger.sol:L1CrossDomainMessenger",
        "label": "__gap",
        "offset": 0,
        "slot": "52",
        "type": "t_array(t_uint256)49_storage"
      },
      {
        "astId": 41660,
        "contract": "contracts/L1/L1CrossDomainMessenger.sol:L1CrossDomainMessenger",
        "label": "_paused",
        "offset": 0,
        "slot": "101",
        "type": "t_bool"
      },
      {
        "astId": 41765,
        "contract": "contracts/L1/L1CrossDomainMessenger.sol:L1CrossDomainMessenger",
        "label": "__gap",
        "offset": 0,
        "slot": "102",
        "type": "t_array(t_uint256)49_storage"
      },
      {
        "astId": 41780,
        "contract": "contracts/L1/L1CrossDomainMessenger.sol:L1CrossDomainMessenger",
        "label": "_status",
        "offset": 0,
        "slot": "151",
        "type": "t_uint256"
      },
      {
        "astId": 41824,
        "contract": "contracts/L1/L1CrossDomainMessenger.sol:L1CrossDomainMessenger",
        "label": "__gap",
        "offset": 0,
        "slot": "152",
        "type": "t_array(t_uint256)49_storage"
      },
      {
        "astId": 38352,
        "contract": "contracts/L1/L1CrossDomainMessenger.sol:L1CrossDomainMessenger",
        "label": "spacer_201_0_32",
        "offset": 0,
        "slot": "201",
        "type": "t_mapping(t_bytes32,t_bool)"
      },
      {
        "astId": 38357,
        "contract": "contracts/L1/L1CrossDomainMessenger.sol:L1CrossDomainMessenger",
        "label": "spacer_202_0_32",
        "offset": 0,
        "slot": "202",
        "type": "t_mapping(t_bytes32,t_bool)"
      },
      {
        "astId": 38362,
        "contract": "contracts/L1/L1CrossDomainMessenger.sol:L1CrossDomainMessenger",
        "label": "successfulMessages",
        "offset": 0,
        "slot": "203",
        "type": "t_mapping(t_bytes32,t_bool)"
      },
      {
        "astId": 38365,
        "contract": "contracts/L1/L1CrossDomainMessenger.sol:L1CrossDomainMessenger",
        "label": "xDomainMsgSender",
        "offset": 0,
        "slot": "204",
        "type": "t_address"
      },
      {
        "astId": 38368,
        "contract": "contracts/L1/L1CrossDomainMessenger.sol:L1CrossDomainMessenger",
        "label": "msgNonce",
        "offset": 0,
        "slot": "205",
        "type": "t_uint240"
      },
      {
        "astId": 38373,
        "contract": "contracts/L1/L1CrossDomainMessenger.sol:L1CrossDomainMessenger",
        "label": "failedMessages",
        "offset": 0,
        "slot": "206",
        "type": "t_mapping(t_bytes32,t_bool)"
      },
      {
        "astId": 38378,
        "contract": "contracts/L1/L1CrossDomainMessenger.sol:L1CrossDomainMessenger",
        "label": "__gap",
        "offset": 0,
        "slot": "207",
        "type": "t_array(t_uint256)42_storage"
      }
    ],
    "types": {
      "t_address": {
        "encoding": "inplace",
        "label": "address",
        "numberOfBytes": "20"
      },
      "t_array(t_uint256)42_storage": {
        "encoding": "inplace",
        "label": "uint256[42]",
        "numberOfBytes": "1344",
        "base": "t_uint256"
      },
      "t_array(t_uint256)49_storage": {
        "encoding": "inplace",
        "label": "uint256[49]",
        "numberOfBytes": "1568",
        "base": "t_uint256"
      },
      "t_array(t_uint256)50_storage": {
        "encoding": "inplace",
        "label": "uint256[50]",
        "numberOfBytes": "1600",
        "base": "t_uint256"
      },
      "t_bool": {
        "encoding": "inplace",
        "label": "bool",
        "numberOfBytes": "1"
      },
      "t_bytes32": {
        "encoding": "inplace",
        "label": "bytes32",
        "numberOfBytes": "32"
      },
      "t_mapping(t_bytes32,t_bool)": {
        "encoding": "mapping",
        "key": "t_bytes32",
        "label": "mapping(bytes32 => bool)",
        "numberOfBytes": "32",
        "value": "t_bool"
      },
      "t_uint240": {
        "encoding": "inplace",
        "label": "uint240",
        "numberOfBytes": "30"
      },
      "t_uint256": {
        "encoding": "inplace",
        "label": "uint256",
        "numberOfBytes": "32"
      },
      "t_uint8": {
        "encoding": "inplace",
        "label": "uint8",
        "numberOfBytes": "1"
      }
    }
  }
}