{
  "address": "0x69D67c1caa8D0717DffA6d2e5B1f7F19926e5EF0",
  "abi": [
    {
      "inputs": [
        {
          "internalType": "address",
          "name": "_bridge",
          "type": "address"
        },
        {
          "internalType": "uint256",
          "name": "_remoteChainId",
          "type": "uint256"
        }
      ],
      "stateMutability": "nonpayable",
      "type": "constructor"
    },
    {
      "anonymous": false,
      "inputs": [
        {
          "indexed": true,
          "internalType": "address",
          "name": "localToken",
          "type": "address"
        },
        {
          "indexed": true,
          "internalType": "address",
          "name": "remoteToken",
          "type": "address"
        },
        {
          "indexed": false,
          "internalType": "address",
          "name": "deployer",
          "type": "address"
        }
      ],
      "name": "OptimismMintableERC721Created",
      "type": "event"
    },
    {
      "inputs": [],
      "name": "bridge",
      "outputs": [
        {
          "internalType": "address",
          "name": "",
          "type": "address"
        }
      ],
      "stateMutability": "view",
      "type": "function"
    },
    {
      "inputs": [
        {
          "internalType": "address",
          "name": "_remoteToken",
          "type": "address"
        },
        {
          "internalType": "string",
          "name": "_name",
          "type": "string"
        },
        {
          "internalType": "string",
          "name": "_symbol",
          "type": "string"
        }
      ],
      "name": "createOptimismMintableERC721",
      "outputs": [
        {
          "internalType": "address",
          "name": "",
          "type": "address"
        }
      ],
      "stateMutability": "nonpayable",
      "type": "function"
    },
    {
      "inputs": [
        {
          "internalType": "address",
          "name": "",
          "type": "address"
        }
      ],
      "name": "isOptimismMintableERC721",
      "outputs": [
        {
          "internalType": "bool",
          "name": "",
          "type": "bool"
        }
      ],
      "stateMutability": "view",
      "type": "function"
    },
    {
      "inputs": [],
      "name": "remoteChainId",
      "outputs": [
        {
          "internalType": "uint256",
          "name": "",
          "type": "uint256"
        }
      ],
      "stateMutability": "view",
      "type": "function"
    },
    {
      "inputs": [],
      "name": "version",
      "outputs": [
        {
          "internalType": "string",
          "name": "",
          "type": "string"
        }
      ],
      "stateMutability": "view",
      "type": "function"
    }
  ],
  "transactionHash": "0xffa94dd9f5a43e9dd4c20f1f9335e6a392fcd6066fa70738808432d926b31a68",
  "args": [
    "0x4200000000000000000000000000000000000014",
    1
  ],
  "numDeployments": 1,
  "solcInputHash": "ab9b77493f35e63b7a63fb2fa8d618b4",
  "bytecode": "0x61012060405234801561001157600080fd5b506040516139b33803806139b38339810160408190526100309161014d565b6001608052600060a081905260c0526001600160a01b0382166100c05760405162461bcd60e51b815260206004820152603a60248201527f4f7074696d69736d4d696e7461626c65455243373231466163746f72793a206260448201527f72696467652063616e6e6f74206265206164647265737328302900000000000060648201526084015b60405180910390fd5b806000036101365760405162461bcd60e51b815260206004820152603d60248201527f4f7074696d69736d4d696e7461626c65455243373231466163746f72793a207260448201527f656d6f746520636861696e2069642063616e6e6f74206265207a65726f00000060648201526084016100b7565b6001600160a01b0390911660e05261010052610187565b6000806040838503121561016057600080fd5b82516001600160a01b038116811461017757600080fd5b6020939093015192949293505050565b60805160a05160c05160e051610100516137da6101d960003960008181610138015261030a01526000818161011001526102e9015260006101c70152600061019c0152600061017101526137da6000f3fe60806040523480156200001157600080fd5b50600436106200006f5760003560e01c8063d97df6521162000056578063d97df65214620000cd578063e78cea92146200010a578063e9518196146200013257600080fd5b806354fd4d5014620000745780635572acae1462000096575b600080fd5b6200007e62000169565b6040516200008d9190620005dc565b60405180910390f35b620000bc620000a736600462000622565b60006020819052908152604090205460ff1681565b60405190151581526020016200008d565b620000e4620000de36600462000722565b62000214565b60405173ffffffffffffffffffffffffffffffffffffffff90911681526020016200008d565b620000e47f000000000000000000000000000000000000000000000000000000000000000081565b6200015a7f000000000000000000000000000000000000000000000000000000000000000081565b6040519081526020016200008d565b6060620001967f0000000000000000000000000000000000000000000000000000000000000000620003fa565b620001c17f0000000000000000000000000000000000000000000000000000000000000000620003fa565b620001ec7f0000000000000000000000000000000000000000000000000000000000000000620003fa565b60405160200162000200939291906200079f565b604051602081830303815290604052905090565b600073ffffffffffffffffffffffffffffffffffffffff8416620002e5576040517f08c379a0000000000000000000000000000000000000000000000000000000008152602060048201526044602482018190527f4f7074696d69736d4d696e7461626c65455243373231466163746f72793a204c908201527f3120746f6b656e20616464726573732063616e6e6f742062652061646472657360648201527f7328302900000000000000000000000000000000000000000000000000000000608482015260a40160405180910390fd5b60007f00000000000000000000000000000000000000000000000000000000000000007f00000000000000000000000000000000000000000000000000000000000000008686866040516200033a906200054f565b6200034a9594939291906200081b565b604051809103906000f08015801562000367573d6000803e3d6000fd5b5073ffffffffffffffffffffffffffffffffffffffff8181166000818152602081815260409182902080547fffffffffffffffffffffffffffffffffffffffffffffffffffffffffffffff0016600117905590513381529394509188169290917fe72783bb8e0ca31286b85278da59684dd814df9762a52f0837f89edd1483b299910160405180910390a3949350505050565b6060816000036200043e57505060408051808201909152600181527f3000000000000000000000000000000000000000000000000000000000000000602082015290565b8160005b81156200046e57806200045581620008ab565b9150620004669050600a8362000915565b915062000442565b60008167ffffffffffffffff8111156200048c576200048c62000640565b6040519080825280601f01601f191660200182016040528015620004b7576020820181803683370190505b5090505b84156200054757620004cf6001836200092c565b9150620004de600a8662000946565b620004eb9060306200095d565b60f81b81838151811062000503576200050362000978565b60200101907effffffffffffffffffffffffffffffffffffffffffffffffffffffffffffff1916908160001a9053506200053f600a8662000915565b9450620004bb565b949350505050565b612dfd80620009a883390190565b60005b838110156200057a57818101518382015260200162000560565b838111156200058a576000848401525b50505050565b60008151808452620005aa8160208601602086016200055d565b601f017fffffffffffffffffffffffffffffffffffffffffffffffffffffffffffffffe0169290920160200192915050565b602081526000620005f1602083018462000590565b9392505050565b803573ffffffffffffffffffffffffffffffffffffffff811681146200061d57600080fd5b919050565b6000602082840312156200063557600080fd5b620005f182620005f8565b7f4e487b7100000000000000000000000000000000000000000000000000000000600052604160045260246000fd5b600082601f8301126200068157600080fd5b813567ffffffffffffffff808211156200069f576200069f62000640565b604051601f83017fffffffffffffffffffffffffffffffffffffffffffffffffffffffffffffffe0908116603f01168101908282118183101715620006e857620006e862000640565b816040528381528660208588010111156200070257600080fd5b836020870160208301376000602085830101528094505050505092915050565b6000806000606084860312156200073857600080fd5b6200074384620005f8565b9250602084013567ffffffffffffffff808211156200076157600080fd5b6200076f878388016200066f565b935060408601359150808211156200078657600080fd5b5062000795868287016200066f565b9150509250925092565b60008451620007b38184602089016200055d565b80830190507f2e000000000000000000000000000000000000000000000000000000000000008082528551620007f1816001850160208a016200055d565b600192019182015283516200080e8160028401602088016200055d565b0160020195945050505050565b600073ffffffffffffffffffffffffffffffffffffffff808816835286602084015280861660408401525060a060608301526200085c60a083018562000590565b828103608084015262000870818562000590565b98975050505050505050565b7f4e487b7100000000000000000000000000000000000000000000000000000000600052601160045260246000fd5b60007fffffffffffffffffffffffffffffffffffffffffffffffffffffffffffffffff8203620008df57620008df6200087c565b5060010190565b7f4e487b7100000000000000000000000000000000000000000000000000000000600052601260045260246000fd5b600082620009275762000927620008e6565b500490565b6000828210156200094157620009416200087c565b500390565b600082620009585762000958620008e6565b500690565b600082198211156200097357620009736200087c565b500190565b7f4e487b7100000000000000000000000000000000000000000000000000000000600052603260045260246000fdfe60e06040523480156200001157600080fd5b5060405162002dfd38038062002dfd83398101604081905262000034916200062d565b8181600062000044838262000756565b50600162000053828262000756565b5050506001600160a01b038516620000d85760405162461bcd60e51b815260206004820152603360248201527f4f7074696d69736d4d696e7461626c654552433732313a20627269646765206360448201527f616e6e6f7420626520616464726573732830290000000000000000000000000060648201526084015b60405180910390fd5b83600003620001505760405162461bcd60e51b815260206004820152603660248201527f4f7074696d69736d4d696e7461626c654552433732313a2072656d6f7465206360448201527f6861696e2069642063616e6e6f74206265207a65726f000000000000000000006064820152608401620000cf565b6001600160a01b038316620001ce5760405162461bcd60e51b815260206004820152603960248201527f4f7074696d69736d4d696e7461626c654552433732313a2072656d6f7465207460448201527f6f6b656e2063616e6e6f742062652061646472657373283029000000000000006064820152608401620000cf565b60808490526001600160a01b0383811660a081905290861660c0526200020290601462000256602090811b62000dd217901c565b62000218856200041660201b62000ffb1760201c565b6040516020016200022b92919062000822565b604051602081830303815290604052600a90816200024a919062000756565b50505050505062000993565b6060600062000267836002620008ac565b62000274906002620008ce565b6001600160401b038111156200028e576200028e62000553565b6040519080825280601f01601f191660200182016040528015620002b9576020820181803683370190505b509050600360fc1b81600081518110620002d757620002d7620008e9565b60200101906001600160f81b031916908160001a905350600f60fb1b81600181518110620003095762000309620008e9565b60200101906001600160f81b031916908160001a90535060006200032f846002620008ac565b6200033c906001620008ce565b90505b6001811115620003be576f181899199a1a9b1b9c1cb0b131b232b360811b85600f1660108110620003745762000374620008e9565b1a60f81b8282815181106200038d576200038d620008e9565b60200101906001600160f81b031916908160001a90535060049490941c93620003b681620008ff565b90506200033f565b5083156200040f5760405162461bcd60e51b815260206004820181905260248201527f537472696e67733a20686578206c656e67746820696e73756666696369656e746044820152606401620000cf565b9392505050565b6060816000036200043e5750506040805180820190915260018152600360fc1b602082015290565b8160005b81156200046e5780620004558162000919565b9150620004669050600a836200094b565b915062000442565b6000816001600160401b038111156200048b576200048b62000553565b6040519080825280601f01601f191660200182016040528015620004b6576020820181803683370190505b5090505b84156200052e57620004ce60018362000962565b9150620004dd600a866200097c565b620004ea906030620008ce565b60f81b818381518110620005025762000502620008e9565b60200101906001600160f81b031916908160001a90535062000526600a866200094b565b9450620004ba565b949350505050565b80516001600160a01b03811681146200054e57600080fd5b919050565b634e487b7160e01b600052604160045260246000fd5b60005b83811015620005865781810151838201526020016200056c565b8381111562000596576000848401525b50505050565b600082601f830112620005ae57600080fd5b81516001600160401b0380821115620005cb57620005cb62000553565b604051601f8301601f19908116603f01168101908282118183101715620005f657620005f662000553565b816040528381528660208588010111156200061057600080fd5b6200062384602083016020890162000569565b9695505050505050565b600080600080600060a086880312156200064657600080fd5b620006518662000536565b945060208601519350620006686040870162000536565b60608701519093506001600160401b03808211156200068657600080fd5b6200069489838a016200059c565b93506080880151915080821115620006ab57600080fd5b50620006ba888289016200059c565b9150509295509295909350565b600181811c90821680620006dc57607f821691505b602082108103620006fd57634e487b7160e01b600052602260045260246000fd5b50919050565b601f8211156200075157600081815260208120601f850160051c810160208610156200072c5750805b601f850160051c820191505b818110156200074d5782815560010162000738565b5050505b505050565b81516001600160401b0381111562000772576200077262000553565b6200078a81620007838454620006c7565b8462000703565b602080601f831160018114620007c25760008415620007a95750858301515b600019600386901b1c1916600185901b1785556200074d565b600085815260208120601f198616915b82811015620007f357888601518255948401946001909101908401620007d2565b5085821015620008125787850151600019600388901b60f8161c191681555b5050505050600190811b01905550565b6832ba3432b932bab69d60b91b8152600083516200084881600985016020880162000569565b600160fe1b60099184019182015283516200086b81600a84016020880162000569565b712f746f6b656e5552493f75696e743235363d60701b600a9290910191820152601c01949350505050565b634e487b7160e01b600052601160045260246000fd5b6000816000190483118215151615620008c957620008c962000896565b500290565b60008219821115620008e457620008e462000896565b500190565b634e487b7160e01b600052603260045260246000fd5b60008162000911576200091162000896565b506000190190565b6000600182016200092e576200092e62000896565b5060010190565b634e487b7160e01b600052601260045260246000fd5b6000826200095d576200095d62000935565b500490565b60008282101562000977576200097762000896565b500390565b6000826200098e576200098e62000935565b500690565b60805160a05160c05161242c620009d160003960008181610323015281816109f80152610ae6015260006102fc0152600061034a015261242c6000f3fe608060405234801561001057600080fd5b50600436106101825760003560e01c806395d89b41116100d8578063c87b56dd1161008c578063e78cea9211610066578063e78cea921461031e578063e951819614610345578063e985e9c51461036c57600080fd5b8063c87b56dd146102dc578063d547cfb7146102ef578063d6c0b2c4146102f757600080fd5b8063a1448194116100bd578063a1448194146102a3578063a22cb465146102b6578063b88d4fde146102c957600080fd5b806395d89b41146102885780639dc29fac1461029057600080fd5b806323b872dd1161013a5780634f6ccce7116101145780634f6ccce71461024f5780636352211e1461026257806370a082311461027557600080fd5b806323b872dd146102165780632f745c591461022957806342842e0e1461023c57600080fd5b8063081812fc1161016b578063081812fc146101c4578063095ea7b3146101ef57806318160ddd1461020457600080fd5b806301ffc9a71461018757806306fdde03146101af575b600080fd5b61019a610195366004611e6a565b6103a8565b60405190151581526020015b60405180910390f35b6101b7610457565b6040516101a69190611efd565b6101d76101d2366004611f10565b6104e9565b6040516001600160a01b0390911681526020016101a6565b6102026101fd366004611f45565b610594565b005b6008545b6040519081526020016101a6565b610202610224366004611f6f565b6106c5565b610208610237366004611f45565b61074c565b61020261024a366004611f6f565b6107f4565b61020861025d366004611f10565b61080f565b6101d7610270366004611f10565b6108b3565b610208610283366004611fab565b610944565b6101b76109de565b61020261029e366004611f45565b6109ed565b6102026102b1366004611f45565b610adb565b6102026102c4366004611fc6565b610bbe565b6102026102d7366004612031565b610bcd565b6101b76102ea366004611f10565b610c5b565b6101b7610d44565b6101d77f000000000000000000000000000000000000000000000000000000000000000081565b6101d77f000000000000000000000000000000000000000000000000000000000000000081565b6102087f000000000000000000000000000000000000000000000000000000000000000081565b61019a61037a36600461212b565b6001600160a01b03918216600090815260056020908152604080832093909416825291909152205460ff1690565b60007f01ffc9a7000000000000000000000000000000000000000000000000000000007fe49bc7f8000000000000000000000000000000000000000000000000000000007fffffffff00000000000000000000000000000000000000000000000000000000841682148061044057507fffffffff00000000000000000000000000000000000000000000000000000000848116908216145b8061044f575061044f84611130565b949350505050565b6060600080546104669061215e565b80601f01602080910402602001604051908101604052809291908181526020018280546104929061215e565b80156104df5780601f106104b4576101008083540402835291602001916104df565b820191906000526020600020905b8154815290600101906020018083116104c257829003601f168201915b5050505050905090565b6000818152600260205260408120546001600160a01b03166105785760405162461bcd60e51b815260206004820152602c60248201527f4552433732313a20617070726f76656420717565727920666f72206e6f6e657860448201527f697374656e7420746f6b656e000000000000000000000000000000000000000060648201526084015b60405180910390fd5b506000908152600460205260409020546001600160a01b031690565b600061059f826108b3565b9050806001600160a01b0316836001600160a01b0316036106285760405162461bcd60e51b815260206004820152602160248201527f4552433732313a20617070726f76616c20746f2063757272656e74206f776e6560448201527f7200000000000000000000000000000000000000000000000000000000000000606482015260840161056f565b336001600160a01b03821614806106445750610644813361037a565b6106b65760405162461bcd60e51b815260206004820152603860248201527f4552433732313a20617070726f76652063616c6c6572206973206e6f74206f7760448201527f6e6572206e6f7220617070726f76656420666f7220616c6c0000000000000000606482015260840161056f565b6106c08383611186565b505050565b6106cf338261120c565b6107415760405162461bcd60e51b815260206004820152603160248201527f4552433732313a207472616e736665722063616c6c6572206973206e6f74206f60448201527f776e6572206e6f7220617070726f766564000000000000000000000000000000606482015260840161056f565b6106c0838383611313565b600061075783610944565b82106107cb5760405162461bcd60e51b815260206004820152602b60248201527f455243373231456e756d657261626c653a206f776e657220696e646578206f7560448201527f74206f6620626f756e6473000000000000000000000000000000000000000000606482015260840161056f565b506001600160a01b03919091166000908152600660209081526040808320938352929052205490565b6106c083838360405180602001604052806000815250610bcd565b600061081a60085490565b821061088e5760405162461bcd60e51b815260206004820152602c60248201527f455243373231456e756d657261626c653a20676c6f62616c20696e646578206f60448201527f7574206f6620626f756e64730000000000000000000000000000000000000000606482015260840161056f565b600882815481106108a1576108a16121b1565b90600052602060002001549050919050565b6000818152600260205260408120546001600160a01b03168061093e5760405162461bcd60e51b815260206004820152602960248201527f4552433732313a206f776e657220717565727920666f72206e6f6e657869737460448201527f656e7420746f6b656e0000000000000000000000000000000000000000000000606482015260840161056f565b92915050565b60006001600160a01b0382166109c25760405162461bcd60e51b815260206004820152602a60248201527f4552433732313a2062616c616e636520717565727920666f7220746865207a6560448201527f726f206164647265737300000000000000000000000000000000000000000000606482015260840161056f565b506001600160a01b031660009081526003602052604090205490565b6060600180546104669061215e565b336001600160a01b037f00000000000000000000000000000000000000000000000000000000000000001614610a8b5760405162461bcd60e51b815260206004820152603a60248201527f4f7074696d69736d4d696e7461626c654552433732313a206f6e6c792062726960448201527f6467652063616e2063616c6c20746869732066756e6374696f6e000000000000606482015260840161056f565b610a9481611503565b816001600160a01b03167fcc16f5dbb4873280815c1ee09dbd06736cffcc184412cf7a71a0fdb75d397ca582604051610acf91815260200190565b60405180910390a25050565b336001600160a01b037f00000000000000000000000000000000000000000000000000000000000000001614610b795760405162461bcd60e51b815260206004820152603a60248201527f4f7074696d69736d4d696e7461626c654552433732313a206f6e6c792062726960448201527f6467652063616e2063616c6c20746869732066756e6374696f6e000000000000606482015260840161056f565b610b8382826115c2565b816001600160a01b03167f0f6798a560793a54c3bcfe86a93cde1e73087d944c0ea20544137d412139688582604051610acf91815260200190565b610bc93383836115dc565b5050565b610bd7338361120c565b610c495760405162461bcd60e51b815260206004820152603160248201527f4552433732313a207472616e736665722063616c6c6572206973206e6f74206f60448201527f776e6572206e6f7220617070726f766564000000000000000000000000000000606482015260840161056f565b610c55848484846116c8565b50505050565b6000818152600260205260409020546060906001600160a01b0316610ce85760405162461bcd60e51b815260206004820152602f60248201527f4552433732314d657461646174613a2055524920717565727920666f72206e6f60448201527f6e6578697374656e7420746f6b656e0000000000000000000000000000000000606482015260840161056f565b6000610cf2611751565b90506000815111610d125760405180602001604052806000815250610d3d565b80610d1c84610ffb565b604051602001610d2d9291906121e0565b6040516020818303038152906040525b9392505050565b600a8054610d519061215e565b80601f0160208091040260200160405190810160405280929190818152602001828054610d7d9061215e565b8015610dca5780601f10610d9f57610100808354040283529160200191610dca565b820191906000526020600020905b815481529060010190602001808311610dad57829003601f168201915b505050505081565b60606000610de183600261223e565b610dec90600261227b565b67ffffffffffffffff811115610e0457610e04612002565b6040519080825280601f01601f191660200182016040528015610e2e576020820181803683370190505b5090507f300000000000000000000000000000000000000000000000000000000000000081600081518110610e6557610e656121b1565b60200101907effffffffffffffffffffffffffffffffffffffffffffffffffffffffffffff1916908160001a9053507f780000000000000000000000000000000000000000000000000000000000000081600181518110610ec857610ec86121b1565b60200101907effffffffffffffffffffffffffffffffffffffffffffffffffffffffffffff1916908160001a9053506000610f0484600261223e565b610f0f90600161227b565b90505b6001811115610fac577f303132333435363738396162636465660000000000000000000000000000000085600f1660108110610f5057610f506121b1565b1a60f81b828281518110610f6657610f666121b1565b60200101907effffffffffffffffffffffffffffffffffffffffffffffffffffffffffffff1916908160001a90535060049490941c93610fa581612293565b9050610f12565b508315610d3d5760405162461bcd60e51b815260206004820181905260248201527f537472696e67733a20686578206c656e67746820696e73756666696369656e74604482015260640161056f565b60608160000361103e57505060408051808201909152600181527f3000000000000000000000000000000000000000000000000000000000000000602082015290565b8160005b81156110685780611052816122c8565b91506110619050600a8361232f565b9150611042565b60008167ffffffffffffffff81111561108357611083612002565b6040519080825280601f01601f1916602001820160405280156110ad576020820181803683370190505b5090505b841561044f576110c2600183612343565b91506110cf600a8661235a565b6110da90603061227b565b60f81b8183815181106110ef576110ef6121b1565b60200101907effffffffffffffffffffffffffffffffffffffffffffffffffffffffffffff1916908160001a905350611129600a8661232f565b94506110b1565b60007fffffffff0000000000000000000000000000000000000000000000000000000082167f780e9d6300000000000000000000000000000000000000000000000000000000148061093e575061093e82611760565b600081815260046020526040902080547fffffffffffffffffffffffff0000000000000000000000000000000000000000166001600160a01b03841690811790915581906111d3826108b3565b6001600160a01b03167f8c5be1e5ebec7d5bd14f71427d1e84f3dd0314c0f7b2291e5b200ac8c7c3b92560405160405180910390a45050565b6000818152600260205260408120546001600160a01b03166112965760405162461bcd60e51b815260206004820152602c60248201527f4552433732313a206f70657261746f7220717565727920666f72206e6f6e657860448201527f697374656e7420746f6b656e0000000000000000000000000000000000000000606482015260840161056f565b60006112a1836108b3565b9050806001600160a01b0316846001600160a01b031614806112e857506001600160a01b0380821660009081526005602090815260408083209388168352929052205460ff165b8061044f5750836001600160a01b0316611301846104e9565b6001600160a01b031614949350505050565b826001600160a01b0316611326826108b3565b6001600160a01b0316146113a25760405162461bcd60e51b815260206004820152602560248201527f4552433732313a207472616e736665722066726f6d20696e636f72726563742060448201527f6f776e6572000000000000000000000000000000000000000000000000000000606482015260840161056f565b6001600160a01b03821661141d5760405162461bcd60e51b8152602060048201526024808201527f4552433732313a207472616e7366657220746f20746865207a65726f2061646460448201527f7265737300000000000000000000000000000000000000000000000000000000606482015260840161056f565b611428838383611843565b611433600082611186565b6001600160a01b038316600090815260036020526040812080546001929061145c908490612343565b90915550506001600160a01b038216600090815260036020526040812080546001929061148a90849061227b565b909155505060008181526002602052604080822080547fffffffffffffffffffffffff0000000000000000000000000000000000000000166001600160a01b0386811691821790925591518493918716917fddf252ad1be2c89b69c2b068fc378daa952ba7f163c4a11628f55a4df523b3ef91a4505050565b600061150e826108b3565b905061151c81600084611843565b611527600083611186565b6001600160a01b0381166000908152600360205260408120805460019290611550908490612343565b909155505060008281526002602052604080822080547fffffffffffffffffffffffff0000000000000000000000000000000000000000169055518391906001600160a01b038416907fddf252ad1be2c89b69c2b068fc378daa952ba7f163c4a11628f55a4df523b3ef908390a45050565b610bc98282604051806020016040528060008152506118fb565b816001600160a01b0316836001600160a01b03160361163d5760405162461bcd60e51b815260206004820152601960248201527f4552433732313a20617070726f766520746f2063616c6c657200000000000000604482015260640161056f565b6001600160a01b0383811660008181526005602090815260408083209487168084529482529182902080547fffffffffffffffffffffffffffffffffffffffffffffffffffffffffffffff001686151590811790915591519182527f17307eab39ab6107e8899845ad3d59bd9653f200f220920489ca2b5937696c31910160405180910390a3505050565b6116d3848484611313565b6116df84848484611984565b610c555760405162461bcd60e51b815260206004820152603260248201527f4552433732313a207472616e7366657220746f206e6f6e20455243373231526560448201527f63656976657220696d706c656d656e7465720000000000000000000000000000606482015260840161056f565b6060600a80546104669061215e565b60007fffffffff0000000000000000000000000000000000000000000000000000000082167f80ac58cd0000000000000000000000000000000000000000000000000000000014806117f357507fffffffff0000000000000000000000000000000000000000000000000000000082167f5b5e139f00000000000000000000000000000000000000000000000000000000145b8061093e57507f01ffc9a7000000000000000000000000000000000000000000000000000000007fffffffff0000000000000000000000000000000000000000000000000000000083161461093e565b6001600160a01b03831661189e5761189981600880546000838152600960205260408120829055600182018355919091527ff3f7a9fe364faab93b216da50a3214154f22a0a2b415b23a84c8169e8b636ee30155565b6118c1565b816001600160a01b0316836001600160a01b0316146118c1576118c18382611b43565b6001600160a01b0382166118d8576106c081611be0565b826001600160a01b0316826001600160a01b0316146106c0576106c08282611c8f565b6119058383611cd3565b6119126000848484611984565b6106c05760405162461bcd60e51b815260206004820152603260248201527f4552433732313a207472616e7366657220746f206e6f6e20455243373231526560448201527f63656976657220696d706c656d656e7465720000000000000000000000000000606482015260840161056f565b60006001600160a01b0384163b15611b38576040517f150b7a020000000000000000000000000000000000000000000000000000000081526001600160a01b0385169063150b7a02906119e190339089908890889060040161236e565b6020604051808303816000875af1925050508015611a3a575060408051601f3d9081017fffffffffffffffffffffffffffffffffffffffffffffffffffffffffffffffe0168201909252611a37918101906123aa565b60015b611aed573d808015611a68576040519150601f19603f3d011682016040523d82523d6000602084013e611a6d565b606091505b508051600003611ae55760405162461bcd60e51b815260206004820152603260248201527f4552433732313a207472616e7366657220746f206e6f6e20455243373231526560448201527f63656976657220696d706c656d656e7465720000000000000000000000000000606482015260840161056f565b805181602001fd5b7fffffffff00000000000000000000000000000000000000000000000000000000167f150b7a020000000000000000000000000000000000000000000000000000000014905061044f565b506001949350505050565b60006001611b5084610944565b611b5a9190612343565b600083815260076020526040902054909150808214611bad576001600160a01b03841660009081526006602090815260408083208584528252808320548484528184208190558352600790915290208190555b5060009182526007602090815260408084208490556001600160a01b039094168352600681528383209183525290812055565b600854600090611bf290600190612343565b60008381526009602052604081205460088054939450909284908110611c1a57611c1a6121b1565b906000526020600020015490508060088381548110611c3b57611c3b6121b1565b6000918252602080832090910192909255828152600990915260408082208490558582528120556008805480611c7357611c736123c7565b6001900381819060005260206000200160009055905550505050565b6000611c9a83610944565b6001600160a01b039093166000908152600660209081526040808320868452825280832085905593825260079052919091209190915550565b6001600160a01b038216611d295760405162461bcd60e51b815260206004820181905260248201527f4552433732313a206d696e7420746f20746865207a65726f2061646472657373604482015260640161056f565b6000818152600260205260409020546001600160a01b031615611d8e5760405162461bcd60e51b815260206004820152601c60248201527f4552433732313a20746f6b656e20616c7265616479206d696e74656400000000604482015260640161056f565b611d9a60008383611843565b6001600160a01b0382166000908152600360205260408120805460019290611dc390849061227b565b909155505060008181526002602052604080822080547fffffffffffffffffffffffff0000000000000000000000000000000000000000166001600160a01b03861690811790915590518392907fddf252ad1be2c89b69c2b068fc378daa952ba7f163c4a11628f55a4df523b3ef908290a45050565b7fffffffff0000000000000000000000000000000000000000000000000000000081168114611e6757600080fd5b50565b600060208284031215611e7c57600080fd5b8135610d3d81611e39565b60005b83811015611ea2578181015183820152602001611e8a565b83811115610c555750506000910152565b60008151808452611ecb816020860160208601611e87565b601f017fffffffffffffffffffffffffffffffffffffffffffffffffffffffffffffffe0169290920160200192915050565b602081526000610d3d6020830184611eb3565b600060208284031215611f2257600080fd5b5035919050565b80356001600160a01b0381168114611f4057600080fd5b919050565b60008060408385031215611f5857600080fd5b611f6183611f29565b946020939093013593505050565b600080600060608486031215611f8457600080fd5b611f8d84611f29565b9250611f9b60208501611f29565b9150604084013590509250925092565b600060208284031215611fbd57600080fd5b610d3d82611f29565b60008060408385031215611fd957600080fd5b611fe283611f29565b915060208301358015158114611ff757600080fd5b809150509250929050565b7f4e487b7100000000000000000000000000000000000000000000000000000000600052604160045260246000fd5b6000806000806080858703121561204757600080fd5b61205085611f29565b935061205e60208601611f29565b925060408501359150606085013567ffffffffffffffff8082111561208257600080fd5b818701915087601f83011261209657600080fd5b8135818111156120a8576120a8612002565b604051601f82017fffffffffffffffffffffffffffffffffffffffffffffffffffffffffffffffe0908116603f011681019083821181831017156120ee576120ee612002565b816040528281528a602084870101111561210757600080fd5b82602086016020830137600060208483010152809550505050505092959194509250565b6000806040838503121561213e57600080fd5b61214783611f29565b915061215560208401611f29565b90509250929050565b600181811c9082168061217257607f821691505b6020821081036121ab577f4e487b7100000000000000000000000000000000000000000000000000000000600052602260045260246000fd5b50919050565b7f4e487b7100000000000000000000000000000000000000000000000000000000600052603260045260246000fd5b600083516121f2818460208801611e87565b835190830190612206818360208801611e87565b01949350505050565b7f4e487b7100000000000000000000000000000000000000000000000000000000600052601160045260246000fd5b6000817fffffffffffffffffffffffffffffffffffffffffffffffffffffffffffffffff04831182151516156122765761227661220f565b500290565b6000821982111561228e5761228e61220f565b500190565b6000816122a2576122a261220f565b507fffffffffffffffffffffffffffffffffffffffffffffffffffffffffffffffff0190565b60007fffffffffffffffffffffffffffffffffffffffffffffffffffffffffffffffff82036122f9576122f961220f565b5060010190565b7f4e487b7100000000000000000000000000000000000000000000000000000000600052601260045260246000fd5b60008261233e5761233e612300565b500490565b6000828210156123555761235561220f565b500390565b60008261236957612369612300565b500690565b60006001600160a01b038087168352808616602084015250836040830152608060608301526123a06080830184611eb3565b9695505050505050565b6000602082840312156123bc57600080fd5b8151610d3d81611e39565b7f4e487b7100000000000000000000000000000000000000000000000000000000600052603160045260246000fdfea2646970667358221220091cfc6e67938e5e9e61881af7ded22673b926104a9d05247aaec2f673e28e7364736f6c634300080f0033a2646970667358221220e0ec23cedfe5d74b2d927547b5882cd7e2b775e04cdebb66d2280c7da8786df664736f6c634300080f0033",
  "devdoc": {
    "events": {
      "OptimismMintableERC721Created(address,address,address)": {
        "params": {
          "deployer": "Address of the initiator of the deployment",
          "localToken": "Address of the token on the this domain.",
          "remoteToken": "Address of the token on the remote domain."
        }
      }
    },
    "kind": "dev",
    "methods": {
      "constructor": {
        "custom:semver": "1.0.0",
        "params": {
          "_bridge": "Address of the ERC721 bridge on this network."
        }
      },
      "createOptimismMintableERC721(address,string,string)": {
        "params": {
          "_name": "ERC721 name.",
          "_remoteToken": "Address of the corresponding token on the other domain.",
          "_symbol": "ERC721 symbol."
        }
      },
      "version()": {
        "returns": {
          "_0": "Semver contract version as a string."
        }
      }
    },
    "title": "OptimismMintableERC721Factory",
    "version": 1
  },
  "userdoc": {
    "events": {
      "OptimismMintableERC721Created(address,address,address)": {
        "notice": "Emitted whenever a new OptimismMintableERC721 contract is created."
      }
    },
    "kind": "user",
    "methods": {
      "bridge()": {
        "notice": "Address of the ERC721 bridge on this network."
      },
      "createOptimismMintableERC721(address,string,string)": {
        "notice": "Creates an instance of the standard ERC721."
      },
      "isOptimismMintableERC721(address)": {
        "notice": "Tracks addresses created by this factory."
      },
      "remoteChainId()": {
        "notice": "Chain ID for the remote network."
      },
      "version()": {
        "notice": "Returns the full semver contract version."
      }
    },
    "notice": "Factory contract for creating OptimismMintableERC721 contracts.",
    "version": 1
  },
  "storageLayout": {
    "storage": [
      {
        "astId": 8543,
        "contract": "contracts/universal/op-erc721/OptimismMintableERC721Factory.sol:OptimismMintableERC721Factory",
        "label": "isOptimismMintableERC721",
        "offset": 0,
        "slot": "0",
        "type": "t_mapping(t_address,t_bool)"
      }
    ],
    "types": {
      "t_address": {
        "encoding": "inplace",
        "label": "address",
        "numberOfBytes": "20"
      },
      "t_bool": {
        "encoding": "inplace",
        "label": "bool",
        "numberOfBytes": "1"
      },
      "t_mapping(t_address,t_bool)": {
        "encoding": "mapping",
        "key": "t_address",
        "label": "mapping(address => bool)",
        "numberOfBytes": "32",
        "value": "t_bool"
      }
    }
  }
}