{
  "_format": "hh-sol-artifact-1",
  "contractName": "TestLib_RLPWriter",
  "sourceName": "contracts/test-libraries/rlp/TestLib_RLPWriter.sol",
  "abi": [
    {
      "inputs": [
        {
          "internalType": "address",
          "name": "_in",
          "type": "address"
        }
      ],
      "name": "writeAddress",
      "outputs": [
        {
          "internalType": "bytes",
          "name": "_out",
          "type": "bytes"
        }
      ],
      "stateMutability": "pure",
      "type": "function"
    },
    {
      "inputs": [
        {
          "internalType": "address",
          "name": "_in",
          "type": "address"
        }
      ],
      "name": "writeAddressWithTaintedMemory",
      "outputs": [
        {
          "internalType": "bytes",
          "name": "_out",
          "type": "bytes"
        }
      ],
      "stateMutability": "nonpayable",
      "type": "function"
    },
    {
      "inputs": [
        {
          "internalType": "bool",
          "name": "_in",
          "type": "bool"
        }
      ],
      "name": "writeBool",
      "outputs": [
        {
          "internalType": "bytes",
          "name": "_out",
          "type": "bytes"
        }
      ],
      "stateMutability": "pure",
      "type": "function"
    },
    {
      "inputs": [
        {
          "internalType": "bytes",
          "name": "_in",
          "type": "bytes"
        }
      ],
      "name": "writeBytes",
      "outputs": [
        {
          "internalType": "bytes",
          "name": "_out",
          "type": "bytes"
        }
      ],
      "stateMutability": "pure",
      "type": "function"
    },
    {
      "inputs": [
        {
          "internalType": "bytes[]",
          "name": "_in",
          "type": "bytes[]"
        }
      ],
      "name": "writeList",
      "outputs": [
        {
          "internalType": "bytes",
          "name": "_out",
          "type": "bytes"
        }
      ],
      "stateMutability": "pure",
      "type": "function"
    },
    {
      "inputs": [
        {
          "internalType": "string",
          "name": "_in",
          "type": "string"
        }
      ],
      "name": "writeString",
      "outputs": [
        {
          "internalType": "bytes",
          "name": "_out",
          "type": "bytes"
        }
      ],
      "stateMutability": "pure",
      "type": "function"
    },
    {
      "inputs": [
        {
          "internalType": "uint256",
          "name": "_in",
          "type": "uint256"
        }
      ],
      "name": "writeUint",
      "outputs": [
        {
          "internalType": "bytes",
          "name": "_out",
          "type": "bytes"
        }
      ],
      "stateMutability": "pure",
      "type": "function"
    }
  ],
  "bytecode": "0x60806040523480156100195760008061001661001f565b50505b5061008a565b632a2a7adb598160e01b8152600481016020815285602082015260005b8681101561005757808601518282016040015260200161003c565b506020828760640184336000905af158600e01573d6000803e3d6000fd5b3d6001141558600a015760016000f35b505050565b61149f806100996000396000f3fe6080604052348015610019576000806100166106f5565b50505b50600436106100865760003560e01c80637932db75116100645780637932db75146100e357806397563ac8146100f65780639e5c65b714610109578063dd2062021461011c57610086565b80633c5cee26146100945780633cbd1712146100bd5780635e25d23f146100d0575b6000806100916106f5565b50505b6100a76100a2366004610962565b61012f565b6040516100b49190610ab3565b60405180910390f35b6100a76100cb366004610a3f565b610142565b6100a76100de366004610878565b61014d565b6100a76100f1366004610991565b610158565b6100a7610104366004610878565b610163565b6100a76101173660046108ae565b6101aa565b6100a761012a3660046109de565b6101b5565b606061013a826101c0565b90505b919050565b606061013a82610232565b606061013a82610245565b606061013a8261026b565b606060405161017190610760565b60405180910390600061018261076d565b50508015801561019f573d6000803e3d600061019c6106f5565b50505b505061013a82610245565b606061013a826102d4565b606061013a82610158565b606060006001604051818152601f19601f83011681016020016040529080156101f0576020820181803683370190505b5090508261020257600160ff1b610208565b600160f81b5b8160008151811061021557fe5b60200101906001600160f81b031916908160001a90535092915050565b606061013a61024083610318565b61026b565b606061013a8260405160200161025b9190610a60565b6040516020818303038152906040525b60608082516001148015610293575060808360008151811061028957fe5b602001015160f81c105b1561029f57508161013a565b6102ab8351608061042a565b836040516020016102bd929190610a7d565b604051602081830303815290604052905092915050565b606060006102e183610594565b90506102ef815160c061042a565b81604051602001610301929190610a7d565b604051602081830303815290604052915050919050565b606060008260405160200161032d9190610aaa565b604051602081830303815290604052905060005b60208110156103775781818151811061035657fe5b60200101516001600160f81b0319161561036f57610377565b600101610341565b60008160200367ffffffffffffffff8111801561039c576000806103996106f5565b50505b50604051818152601f19601f83011681016020016040529080156103c7576020820181803683370190505b50905060005b81518110156104215760018301928490815181106103e757fe5b60200101516001600160f81b03191682828151811061040257fe5b60200101906001600160f81b031916908160001a9053506001016103cd565b50949350505050565b6060806038841015610494576001604051818152601f19601f8301168101602001604052908015610462576020820181803683370190505b50905082840160f81b8160008151811061047857fe5b60200101906001600160f81b031916908160001a90535061058d565b600060015b8086816104a257fe5b04156104b75760019091019061010002610499565b8160010167ffffffffffffffff811180156104da576000806104d76106f5565b50505b50604051818152601f19601f8301168101602001604052908015610505576020820181803683370190505b50925084820160370160f81b8360008151811061051e57fe5b60200101906001600160f81b031916908160001a905350600190505b81811161058a576101008183036101000a878161055357fe5b048161055b57fe5b0660f81b83828151811061056b57fe5b60200101906001600160f81b031916908160001a90535060010161053a565b50505b9392505050565b606081516105d0576000604051818152601f19601f83011681016020016040529080156105c8576020820181803683370190505b50905061013d565b6000805b83518110156105fe578381815181106105e957fe5b602002602001015151909101906001016105d4565b60008267ffffffffffffffff811180156106205760008061061d6106f5565b50505b50604051818152601f19601f830116810160200160405290801561064b576020820181803683370190505b50600092509050602081015b855183101561042157600086848151811061066e57fe5b6020026020010151905060208101610688838284516106af565b87858151811061069457fe5b60200260200101515160019095019490920191506106579050565b8282825b602081106106d357815183526020928301929190910190601f19016106b3565b60001960208290036101000a0180198351168185511617909352505050505050565b632a2a7adb598160e01b8152600481016020815285602082015260005b8681101561072d578086015182820160400152602001610712565b506020828760640184336000905af158600e01573d6000803e3d6000fd5b3d6001141558600a015760016000f35b505050565b61096080610b3f83390190565b6314aa2ff7598160e01b8152600481016020815286602082015260005b878110156107a557808701518282016040015260200161078a565b506020828860640184336000905af158600e01573d6000803e3d6000fd5b3d6001141558600a015760016000f35b8151965059825b818110156107ee57600081526020016107da565b5050505050565b600067ffffffffffffffff83111561080957fe5b61081c601f8401601f1916602001610ae6565b9050828152838383011115610839576000806108366106f5565b50505b828260208301376000602084830101529392505050565b600082601f8301126108695780816108666106f5565b50505b61058d838335602085016107f5565b60006020828403121561089257808161088f6106f5565b50505b81356001600160a01b038116811461058d57818261058a6106f5565b600060208083850312156108c95781826108c66106f5565b50505b823567ffffffffffffffff808211156108e95783846108e66106f5565b50505b818501915085601f8301126109055783846109026106f5565b50505b81358181111561091157fe5b61091e8485830201610ae6565b8181528481019250838501865b83811015610954576109428a888435890101610850565b8552938601939086019060010161092b565b509098975050505050505050565b60006020828403121561097c5780816109796106f5565b50505b8135801515811461058d57818261058a6106f5565b6000602082840312156109ab5780816109a86106f5565b50505b813567ffffffffffffffff8111156109ca5781826109c76106f5565b50505b6109d684828501610850565b949350505050565b6000602082840312156109f85780816109f56106f5565b50505b813567ffffffffffffffff811115610a17578182610a146106f5565b50505b8201601f81018413610a30578182610a2d6106f5565b50505b6109d6848235602084016107f5565b600060208284031215610a59578081610a566106f5565b50505b5035919050565b60609190911b6bffffffffffffffffffffffff1916815260140190565b60008351610a8f818460208801610b0e565b82018351610aa1818360208801610b0e565b01949350505050565b90815260200190565b6000602082528251806020840152610ad2816040850160208701610b0e565b601f01601f19169190910160400192915050565b6000604051905081810181811067ffffffffffffffff82111715610b0657fe5b604052919050565b60005b83811015610b29578082015183820152602001610b11565b83811115610b38576000848401525b5050505056fe60806040523480156100195760008061001661001f565b50505b5061008a565b632a2a7adb598160e01b8152600481016020815285602082015260005b8681101561005757808601518282016040015260200161003c565b506020828760640184336000905af158600e01573d6000803e3d6000fd5b3d6001141558600a015760016000f35b505050565b6108c7806100996000396000f3fe608060405234801561001957600080610016610768565b50505b50600436106100a75760003560e01c806340c10f191161006f57806340c10f19146101f457806370a082311461022b57806395d89b411461025a578063a9059cbb14610262578063dd62ed3e14610297576100a7565b806306fdde03146100b5578063095ea7b31461013457806318160ddd1461017d57806323b872dd14610197578063313ce567146101d6575b6000806100b2610768565b50505b6100bd6102ce565b60405160208082528190810183818151815260200191508051906020019080838360005b838110156100f95780820151838201526020016100e1565b50505050905090810190601f1680156101265780820380516001836020036101000a031916815260200191505b509250505060405180910390f35b6101696004803603604081101561015357600080610150610768565b50505b506001600160a01b0381351690602001356102ec565b604051901515815260200160405180910390f35b61018561030b565b60405190815260200160405180910390f35b610169600480360360608110156101b6576000806101b3610768565b50505b506001600160a01b03813581169160208101359091169060400135610318565b6101de610428565b60405160ff909116815260200160405180910390f35b6102296004803603604081101561021357600080610210610768565b50505b506001600160a01b03813516906020013561042d565b005b6101856004803603602081101561024a57600080610247610768565b50505b50356001600160a01b03166104dd565b6100bd6104f5565b610169600480360360408110156102815760008061027e610768565b50505b506001600160a01b038135169060200135610512565b610185600480360360408110156102b6576000806102b3610768565b50505b506001600160a01b0381358116916020013516610527565b60405160408082019052600481526315195cdd60e21b602082015281565b60006103015a6102fa6107d3565b848461054d565b5060015b92915050565b600061031561082d565b81565b6001600160a01b038316600090815260026020526000196040822060005a61033e6107d3565b6001600160a01b03166001600160a01b0316815260200190815260200160002061036661082d565b14610413576001600160a01b038416600090815260026020526103c29083906040902060005a6103946107d3565b6001600160a01b03166001600160a01b031681526020019081526020016000206103bc61082d565b906105d9565b6001600160a01b038516600090815260026020526040902060005a6103e56107d3565b6001600160a01b03166001600160a01b03168152602001908152602001600020819061040f610879565b5050505b61041e848484610636565b5060019392505050565b601281565b61044181600061043b61082d565b90610718565b80600061044c610879565b5050506001600160a01b038216600090815260016020526104759082906040902061043b61082d565b6001600160a01b03831660009081526001602052604090208190610497610879565b5050506001600160a01b03821660007fddf252ad1be2c89b69c2b068fc378daa952ba7f163c4a11628f55a4df523b3ef8360405190815260200160405180910390a35050565b6001602052806000526040600020905061031561082d565b6040516040808201905260038152621514d560ea1b602082015281565b60006103015a6105206107d3565b8484610636565b60026020528160005260406000206020528060005260406000209150610315905061082d565b6001600160a01b038316600090815260026020528190604090206001600160a01b038416600090815260209190915260409020819061058a610879565b505050816001600160a01b0316836001600160a01b03167f8c5be1e5ebec7d5bd14f71427d1e84f3dd0314c0f7b2291e5b200ac8c7c3b9258360405190815260200160405180910390a3505050565b808203828111156103055760405162461bcd60e51b815260206004820152601560248201527464732d6d6174682d7375622d756e646572666c6f7760581b60448201526064016040518091039061062e610768565b505092915050565b6001600160a01b0383166000908152600160205261065c908290604090206103bc61082d565b6001600160a01b0384166000908152600160205260409020819061067e610879565b5050506001600160a01b038216600090815260016020526106a79082906040902061043b61082d565b6001600160a01b038316600090815260016020526040902081906106c9610879565b505050816001600160a01b0316836001600160a01b03167fddf252ad1be2c89b69c2b068fc378daa952ba7f163c4a11628f55a4df523b3ef8360405190815260200160405180910390a3505050565b808201828110156103055760405162461bcd60e51b815260206004820152601460248201527364732d6d6174682d6164642d6f766572666c6f7760601b60448201526064016040518091039061062e5b632a2a7adb598160e01b8152600481016020815285602082015260005b868110156107a0578086015182820160400152602001610785565b506020828760640184336000905af158600e01573d6000803e3d6000fd5b3d6001141558600a015760016000f35b505050565b6373509064598160e01b8152602081600483336000905af158600e01573d6000803e3d6000fd5b3d6001141558600a015760016000f35b8051935060005b604081101561082857600082820152602001610811565b505050565b6303daa959598160e01b8152836004820152602081602483336000905af158600e01573d6000803e3d6000fd5b3d6001141558600a015760016000f35b80516000825293506020610811565b6322bd64c0598160e01b8152836004820152846024820152600081604483336000905af158600e01573d6000803e3d6000fd5b3d6001141558600a015760016000f35b60008152602061081156",
  "linkReferences": {},
  "deployedLinkReferences": {}
}