{
  "address": "0x8468e3B58Cc7B34ab07ca5b80CB234e271435120",
  "abi": [
    {
      "inputs": [
        {
          "internalType": "address",
          "name": "_libAddressManager",
          "type": "address"
        },
        {
          "internalType": "uint256",
          "name": "_forceInclusionPeriodSeconds",
          "type": "uint256"
        },
        {
          "internalType": "uint256",
          "name": "_forceInclusionPeriodBlocks",
          "type": "uint256"
        },
        {
          "internalType": "uint256",
          "name": "_maxTransactionGasLimit",
          "type": "uint256"
        }
      ],
      "stateMutability": "nonpayable",
      "type": "constructor"
    },
    {
      "anonymous": false,
      "inputs": [
        {
          "indexed": false,
          "internalType": "uint256",
          "name": "_startingQueueIndex",
          "type": "uint256"
        },
        {
          "indexed": false,
          "internalType": "uint256",
          "name": "_numQueueElements",
          "type": "uint256"
        },
        {
          "indexed": false,
          "internalType": "uint256",
          "name": "_totalElements",
          "type": "uint256"
        }
      ],
      "name": "QueueBatchAppended",
      "type": "event"
    },
    {
      "anonymous": false,
      "inputs": [
        {
          "indexed": false,
          "internalType": "uint256",
          "name": "_startingQueueIndex",
          "type": "uint256"
        },
        {
          "indexed": false,
          "internalType": "uint256",
          "name": "_numQueueElements",
          "type": "uint256"
        },
        {
          "indexed": false,
          "internalType": "uint256",
          "name": "_totalElements",
          "type": "uint256"
        }
      ],
      "name": "SequencerBatchAppended",
      "type": "event"
    },
    {
      "anonymous": false,
      "inputs": [
        {
          "indexed": true,
          "internalType": "uint256",
          "name": "_batchIndex",
          "type": "uint256"
        },
        {
          "indexed": false,
          "internalType": "bytes32",
          "name": "_batchRoot",
          "type": "bytes32"
        },
        {
          "indexed": false,
          "internalType": "uint256",
          "name": "_batchSize",
          "type": "uint256"
        },
        {
          "indexed": false,
          "internalType": "uint256",
          "name": "_prevTotalElements",
          "type": "uint256"
        },
        {
          "indexed": false,
          "internalType": "bytes",
          "name": "_extraData",
          "type": "bytes"
        }
      ],
      "name": "TransactionBatchAppended",
      "type": "event"
    },
    {
      "anonymous": false,
      "inputs": [
        {
          "indexed": false,
          "internalType": "address",
          "name": "_l1TxOrigin",
          "type": "address"
        },
        {
          "indexed": false,
          "internalType": "address",
          "name": "_target",
          "type": "address"
        },
        {
          "indexed": false,
          "internalType": "uint256",
          "name": "_gasLimit",
          "type": "uint256"
        },
        {
          "indexed": false,
          "internalType": "bytes",
          "name": "_data",
          "type": "bytes"
        },
        {
          "indexed": false,
          "internalType": "uint256",
          "name": "_queueIndex",
          "type": "uint256"
        },
        {
          "indexed": false,
          "internalType": "uint256",
          "name": "_timestamp",
          "type": "uint256"
        }
      ],
      "name": "TransactionEnqueued",
      "type": "event"
    },
    {
      "inputs": [],
      "name": "L2_GAS_DISCOUNT_DIVISOR",
      "outputs": [
        {
          "internalType": "uint256",
          "name": "",
          "type": "uint256"
        }
      ],
      "stateMutability": "view",
      "type": "function"
    },
    {
      "inputs": [],
      "name": "MAX_ROLLUP_TX_SIZE",
      "outputs": [
        {
          "internalType": "uint256",
          "name": "",
          "type": "uint256"
        }
      ],
      "stateMutability": "view",
      "type": "function"
    },
    {
      "inputs": [],
      "name": "MIN_ROLLUP_TX_GAS",
      "outputs": [
        {
          "internalType": "uint256",
          "name": "",
          "type": "uint256"
        }
      ],
      "stateMutability": "view",
      "type": "function"
    },
    {
      "inputs": [
        {
          "internalType": "uint256",
          "name": "_numQueuedTransactions",
          "type": "uint256"
        }
      ],
      "name": "appendQueueBatch",
      "outputs": [],
      "stateMutability": "nonpayable",
      "type": "function"
    },
    {
      "inputs": [],
      "name": "appendSequencerBatch",
      "outputs": [],
      "stateMutability": "nonpayable",
      "type": "function"
    },
    {
      "inputs": [],
      "name": "batches",
      "outputs": [
        {
          "internalType": "contract iOVM_ChainStorageContainer",
          "name": "",
          "type": "address"
        }
      ],
      "stateMutability": "view",
      "type": "function"
    },
    {
      "inputs": [
        {
          "internalType": "address",
          "name": "_target",
          "type": "address"
        },
        {
          "internalType": "uint256",
          "name": "_gasLimit",
          "type": "uint256"
        },
        {
          "internalType": "bytes",
          "name": "_data",
          "type": "bytes"
        }
      ],
      "name": "enqueue",
      "outputs": [],
      "stateMutability": "nonpayable",
      "type": "function"
    },
    {
      "inputs": [],
      "name": "forceInclusionPeriodBlocks",
      "outputs": [
        {
          "internalType": "uint256",
          "name": "",
          "type": "uint256"
        }
      ],
      "stateMutability": "view",
      "type": "function"
    },
    {
      "inputs": [],
      "name": "forceInclusionPeriodSeconds",
      "outputs": [
        {
          "internalType": "uint256",
          "name": "",
          "type": "uint256"
        }
      ],
      "stateMutability": "view",
      "type": "function"
    },
    {
      "inputs": [],
      "name": "getNextQueueIndex",
      "outputs": [
        {
          "internalType": "uint40",
          "name": "",
          "type": "uint40"
        }
      ],
      "stateMutability": "view",
      "type": "function"
    },
    {
      "inputs": [],
      "name": "getNumPendingQueueElements",
      "outputs": [
        {
          "internalType": "uint40",
          "name": "",
          "type": "uint40"
        }
      ],
      "stateMutability": "view",
      "type": "function"
    },
    {
      "inputs": [
        {
          "internalType": "uint256",
          "name": "_index",
          "type": "uint256"
        }
      ],
      "name": "getQueueElement",
      "outputs": [
        {
          "components": [
            {
              "internalType": "bytes32",
              "name": "queueRoot",
              "type": "bytes32"
            },
            {
              "internalType": "uint40",
              "name": "timestamp",
              "type": "uint40"
            },
            {
              "internalType": "uint40",
              "name": "blockNumber",
              "type": "uint40"
            }
          ],
          "internalType": "struct Lib_OVMCodec.QueueElement",
          "name": "_element",
          "type": "tuple"
        }
      ],
      "stateMutability": "view",
      "type": "function"
    },
    {
      "inputs": [],
      "name": "getQueueLength",
      "outputs": [
        {
          "internalType": "uint40",
          "name": "",
          "type": "uint40"
        }
      ],
      "stateMutability": "view",
      "type": "function"
    },
    {
      "inputs": [],
      "name": "getTotalBatches",
      "outputs": [
        {
          "internalType": "uint256",
          "name": "_totalBatches",
          "type": "uint256"
        }
      ],
      "stateMutability": "view",
      "type": "function"
    },
    {
      "inputs": [],
      "name": "getTotalElements",
      "outputs": [
        {
          "internalType": "uint256",
          "name": "_totalElements",
          "type": "uint256"
        }
      ],
      "stateMutability": "view",
      "type": "function"
    },
    {
      "inputs": [],
      "name": "maxTransactionGasLimit",
      "outputs": [
        {
          "internalType": "uint256",
          "name": "",
          "type": "uint256"
        }
      ],
      "stateMutability": "view",
      "type": "function"
    },
    {
      "inputs": [],
      "name": "queue",
      "outputs": [
        {
          "internalType": "contract iOVM_ChainStorageContainer",
          "name": "",
          "type": "address"
        }
      ],
      "stateMutability": "view",
      "type": "function"
    },
    {
      "inputs": [
        {
          "internalType": "string",
          "name": "_name",
          "type": "string"
        }
      ],
      "name": "resolve",
      "outputs": [
        {
          "internalType": "address",
          "name": "_contract",
          "type": "address"
        }
      ],
      "stateMutability": "view",
      "type": "function"
    },
    {
      "inputs": [
        {
          "components": [
            {
              "internalType": "uint256",
              "name": "timestamp",
              "type": "uint256"
            },
            {
              "internalType": "uint256",
              "name": "blockNumber",
              "type": "uint256"
            },
            {
              "internalType": "enum Lib_OVMCodec.QueueOrigin",
              "name": "l1QueueOrigin",
              "type": "uint8"
            },
            {
              "internalType": "address",
              "name": "l1TxOrigin",
              "type": "address"
            },
            {
              "internalType": "address",
              "name": "entrypoint",
              "type": "address"
            },
            {
              "internalType": "uint256",
              "name": "gasLimit",
              "type": "uint256"
            },
            {
              "internalType": "bytes",
              "name": "data",
              "type": "bytes"
            }
          ],
          "internalType": "struct Lib_OVMCodec.Transaction",
          "name": "_transaction",
          "type": "tuple"
        },
        {
          "components": [
            {
              "internalType": "bool",
              "name": "isSequenced",
              "type": "bool"
            },
            {
              "internalType": "uint256",
              "name": "queueIndex",
              "type": "uint256"
            },
            {
              "internalType": "uint256",
              "name": "timestamp",
              "type": "uint256"
            },
            {
              "internalType": "uint256",
              "name": "blockNumber",
              "type": "uint256"
            },
            {
              "internalType": "bytes",
              "name": "txData",
              "type": "bytes"
            }
          ],
          "internalType": "struct Lib_OVMCodec.TransactionChainElement",
          "name": "_txChainElement",
          "type": "tuple"
        },
        {
          "components": [
            {
              "internalType": "uint256",
              "name": "batchIndex",
              "type": "uint256"
            },
            {
              "internalType": "bytes32",
              "name": "batchRoot",
              "type": "bytes32"
            },
            {
              "internalType": "uint256",
              "name": "batchSize",
              "type": "uint256"
            },
            {
              "internalType": "uint256",
              "name": "prevTotalElements",
              "type": "uint256"
            },
            {
              "internalType": "bytes",
              "name": "extraData",
              "type": "bytes"
            }
          ],
          "internalType": "struct Lib_OVMCodec.ChainBatchHeader",
          "name": "_batchHeader",
          "type": "tuple"
        },
        {
          "components": [
            {
              "internalType": "uint256",
              "name": "index",
              "type": "uint256"
            },
            {
              "internalType": "bytes32[]",
              "name": "siblings",
              "type": "bytes32[]"
            }
          ],
          "internalType": "struct Lib_OVMCodec.ChainInclusionProof",
          "name": "_inclusionProof",
          "type": "tuple"
        }
      ],
      "name": "verifyTransaction",
      "outputs": [
        {
          "internalType": "bool",
          "name": "",
          "type": "bool"
        }
      ],
      "stateMutability": "view",
      "type": "function"
    }
  ],
  "transactionHash": "0x46e0f66d5260cc1973f9cf40fa80ed213c1f7d58420d3560b47ff81b28902d4d",
  "args": [
    "0xE630cdf302880783364334455C8352fE0aB5b748",
    2592000,
    172800,
    9000000
  ],
  "solcInputHash": "cebcb515c1a9c570d96e0b8f6fd237e2",
  "bytecode": "0x60806040523480156200001157600080fd5b50604051620031a8380380620031a8833981016040819052620000349162000067565b600080546001600160a01b0319166001600160a01b039590951694909417909355600191909155600255600355620000b2565b600080600080608085870312156200007d578384fd5b84516001600160a01b038116811462000094578485fd5b60208601516040870151606090970151919890975090945092505050565b6130e680620000c26000396000f3fe608060405234801561001057600080fd5b50600436106101215760003560e01c80638d38c6c1116100ad578063d0f8934411610071578063d0f893441461020e578063e10d29ee14610216578063e561dddc1461021e578063f722b41a14610226578063facdc5da1461022e57610121565b80638d38c6c1146101e6578063b8f77005146101ee578063c139eb15146101f6578063c2cf696f146101fe578063cfdf677e1461020657610121565b80636fee07e0116100f45780636fee07e0146101a457806378f4b2f2146101b95780637a167a8a146101c15780637aa63a86146101d6578063876ed5cb146101de57610121565b8063138387a4146101265780632a7f18be14610144578063461a4478146101645780634de569ce14610184575b600080fd5b61012e610241565b60405161013b9190612eb2565b60405180910390f35b610157610152366004612346565b610247565b60405161013b9190612e84565b6101776101723660046121d9565b610394565b60405161013b91906123a9565b61019761019236600461221f565b610470565b60405161013b9190612442565b6101b76101b2366004612146565b6104aa565b005b61012e6106cd565b6101c96106d4565b60405161013b9190612ee2565b61012e6106e9565b61012e610704565b61012e61070a565b6101c9610710565b61012e610799565b61012e61079f565b6101776107a4565b6101b76107cc565b610177610bb3565b61012e610bd6565b6101c9610c50565b6101b761023c366004612346565b610c68565b60025481565b61024f611e97565b60028202600061025d610bb3565b6001600160a01b0316639507d39a836040518263ffffffff1660e01b81526004016102889190612ee2565b60206040518083038186803b1580156102a057600080fd5b505afa1580156102b4573d6000803e3d6000fd5b505050506040513d601f19601f820116820180604052508101906102d891906121c1565b905060006102e4610bb3565b6001600160a01b0316639507d39a846001016040518263ffffffff1660e01b81526004016103129190612ee2565b60206040518083038186803b15801561032a57600080fd5b505afa15801561033e573d6000803e3d6000fd5b505050506040513d601f19601f8201168201806040525081019061036291906121c1565b6040805160608101825293845264ffffffffff808316602086015260289290921c90911690830152509150505b919050565b6000805460405163bf40fac160e01b81526020600482018181528551602484015285516001600160a01b039094169363bf40fac19387938392604490920191908501908083838b5b838110156103f45781810151838201526020016103dc565b50505050905090810190601f1680156104215780820380516001836020036101000a031916815260200191505b509250505060206040518083038186803b15801561043e57600080fd5b505afa158015610452573d6000803e3d6000fd5b505050506040513d602081101561046857600080fd5b505192915050565b82516000901515600114156104925761048b85858585610dcb565b90506104a2565b61048b8585602001518585610f96565b949350505050565b612710815111156104d65760405162461bcd60e51b81526004016104cd9061255e565b60405180910390fd5b6003548211156104f85760405162461bcd60e51b81526004016104cd90612764565b620186a082101561051b5760405162461bcd60e51b81526004016104cd90612946565b6020820460005a90508181116105435760405162461bcd60e51b81526004016104cd90612bc0565b60005b825a8303101561055857600101610546565b60003387878760405160200161057194939291906123bd565b60408051601f19818403018152919052805160209091012090504360281b4217610599610bb3565b6001600160a01b031663d41c021883836040518363ffffffff1660e01b81526004016105c692919061249b565b600060405180830381600087803b1580156105e057600080fd5b505af11580156105f4573d6000803e3d6000fd5b5050505060006002610604610bb3565b6001600160a01b0316631f7b6d326040518163ffffffff1660e01b815260040160206040518083038186803b15801561063c57600080fd5b505afa158015610650573d6000803e3d6000fd5b505050506040513d601f19601f8201168201806040525081019061067491906121c1565b8161067b57fe5b0490507f4b388aecf9fa6cc92253704e5975a6129a4f735bdbd99567df4ed0094ee4ceb5338a8a8a60018603426040516106ba969594939291906123fa565b60405180910390a1505050505050505050565b620186a081565b6000806106df61106b565b5090935050505090565b6000806106f461106b565b50505064ffffffffff1692915050565b61271081565b60035481565b6000600261071c610bb3565b6001600160a01b0316631f7b6d326040518163ffffffff1660e01b815260040160206040518083038186803b15801561075457600080fd5b505afa158015610768573d6000803e3d6000fd5b505050506040513d601f19601f8201168201806040525081019061078c91906121c1565b8161079357fe5b04905090565b60015481565b602081565b60006107c760405180606001604052806025815260200161305860259139610394565b905090565b60043560d81c60093560e890811c90600c35901c6107e86106e9565b8364ffffffffff161461080d5760405162461bcd60e51b81526004016104cd90612a6b565b61083b6040518060400160405280600d81526020016c27ab26afa9b2b8bab2b731b2b960991b815250610394565b6001600160a01b0316336001600160a01b03161461086b5760405162461bcd60e51b81526004016104cd90612ac8565b60008162ffffff16116108905760405162461bcd60e51b81526004016104cd906127c1565b60008262ffffff16116108b55760405162461bcd60e51b81526004016104cd90612d15565b600f601062ffffff831602013664ffffffffff82168110156108e95760405162461bcd60e51b81526004016104cd90612d9c565b60006108f3610710565b905060008562ffffff1667ffffffffffffffff8111801561091357600080fd5b5060405190808252806020026020018201604052801561093d578160200160208202803683370190505b509050600080600061094d6106d4565b9050610957611eb7565b60005b8962ffffff168163ffffffff161015610a8a57600061097e8263ffffffff16611119565b905063ffffffff82166109945761099481611169565b61099f838286611236565b80925060005b835163ffffffff82161015610a00578a3560e81c6109cb8564ffffffffff8e1683611346565b898963ffffffff16815181106109dd57fe5b60209081029190910101529a909a016003019960019687019695860195016109a5565b5060005b83602001518163ffffffff161015610a80578864ffffffffff168564ffffffffff1610610a435760405162461bcd60e51b81526004016104cd90612dde565b610a538564ffffffffff166113d0565b888863ffffffff1681518110610a6557fe5b60209081029190910101526001968701969485019401610a04565b505060010161095a565b50610a948161141b565b8764ffffffffff168714610aba5760405162461bcd60e51b81526004016104cd90612809565b8962ffffff168463ffffffff1614610ae45760405162461bcd60e51b81526004016104cd90612857565b6000838b62ffffff160363ffffffff169050600080836020015160001415610b1757505060408201516060830151610b3e565b6000610b2c6001870364ffffffffff16610247565b90508060200151925080604001519150505b610b5f610b4a89611463565b8e62ffffff168564ffffffffff168585611893565b7f602f1aeac0ca2e7a13e281a9ef0ad7838542712ce16780fa2ecffd351f05f89983860384610b8c6106e9565b604051610b9b93929190612ef4565b60405180910390a15050505050505050505050505050565b60006107c7604051806060016040528060238152602001612f3b60239139610394565b6000610be06107a4565b6001600160a01b0316631f7b6d326040518163ffffffff1660e01b815260040160206040518083038186803b158015610c1857600080fd5b505afa158015610c2c573d6000803e3d6000fd5b505050506040513d601f19601f820116820180604052508101906107c791906121c1565b6000610c5a6106d4565b610c62610710565b03905090565b60405162461bcd60e51b81526004016104cd906124ce565b83811015610d4557610cb66040518060400160405280600d81526020016c27ab26afa9b2b8bab2b731b2b960991b815250610394565b6001600160a01b0316336001600160a01b031614610d12576000610ce08364ffffffffff16610247565b905042600154826020015164ffffffffff160110610d105760405162461bcd60e51b81526004016104cd906129f8565b505b610d228264ffffffffff166113d0565b838281518110610d2e57fe5b602090810291909101015260019182019101610c80565b506000610d5b6001830364ffffffffff16610247565b9050610d7a610d6984611463565b858684602001518560400151611893565b7f64d7f508348c70dea42d5302a393987e4abc20e45954ab3f9d320207751956f0848364ffffffffff160385610dae6106e9565b604051610dbd93929190612ebb565b60405180910390a150505050565b600080610e036040518060400160405280601481526020017327ab26afa2bc32b1baba34b7b726b0b730b3b2b960611b815250610394565b90506000816001600160a01b0316631c4712a76040518163ffffffff1660e01b815260040160206040518083038186803b158015610e4057600080fd5b505afa158015610e54573d6000803e3d6000fd5b505050506040513d601f19601f82011682018060405250810190610e7891906121c1565b90506000610e8587611a4d565b9050610e92818787611ae6565b610eae5760405162461bcd60e51b81526004016104cd9061268d565b86606001518860200151148015610ec9575060408701518851145b8015610f0a5750610ef1604051806060016040528060228152602001612f5e60229139610394565b6001600160a01b031688608001516001600160a01b0316145b8015610f195750818860a00151145b8015610f30575060608801516001600160a01b0316155b8015610f4b5750600088604001516001811115610f4957fe5b145b8015610f6c57508660800151805190602001208860c0015180519060200120145b610f885760405162461bcd60e51b81526004016104cd9061272d565b506001979650505050505050565b600080610fa2856113d0565b9050610faf818585611ae6565b610fcb5760405162461bcd60e51b81526004016104cd90612c60565b6000866060015187608001518860a001518960c00151604051602001610ff494939291906123bd565b604051602081830303815290604052805190602001209050600061101787610247565b80519091508214801561103557508751602082015164ffffffffff16145b801561104f57508760200151816040015164ffffffffff16145b610f885760405162461bcd60e51b81526004016104cd90612b15565b600080600080600061107b6107a4565b6001600160a01b031663ccf8f9696040518163ffffffff1660e01b815260040160206040518083038186803b1580156110b357600080fd5b505afa1580156110c7573d6000803e3d6000fd5b505050506040513d601f19601f820116820180604052508101906110eb919061219b565b64ffffffffff602882901c811697605083901c82169750607883901c8216965060a09290921c169350915050565b611121611eb7565b5060408051608081018252601092909202600f81013560e890811c84526012820135901c6020840152601581013560d890811c92840192909252601a0135901c606082015290565b60006111736106e9565b11156111e35760008061118461106b565b9350935050508064ffffffffff16836060015110156111b55760405162461bcd60e51b81526004016104cd906126db565b8164ffffffffff16836040015110156111e05760405162461bcd60e51b81526004016104cd906125bb565b50505b42600154826040015101101561120b5760405162461bcd60e51b81526004016104cd90612d56565b4360025482606001510110156112335760405162461bcd60e51b81526004016104cd90612515565b50565b82604001518260400151101561125e5760405162461bcd60e51b81526004016104cd90612c0b565b8260600151826060015110156112865760405162461bcd60e51b81526004016104cd90612e27565b600081611291610710565b0364ffffffffff1611156113415760006112b18264ffffffffff16610247565b9050600154816020015164ffffffffff160142106112e15760405162461bcd60e51b81526004016104cd9061260a565b806020015164ffffffffff16836040015111156113105760405162461bcd60e51b81526004016104cd9061298f565b806040015164ffffffffff168360600151111561133f5760405162461bcd60e51b81526004016104cd90612caa565b505b505050565b6000808260410167ffffffffffffffff8111801561136357600080fd5b506040519080825280601f01601f19166020018201604052801561138e576020820181803683370190505b50604086015160608701519192509060006020840160018153836001820152826021820152866003890160418301376041870190209450505050509392505050565b60006114156040518060a00160405280600015158152602001848152602001600081526020016000815260200160405180602001604052806000815250815250611bd7565b92915050565b428160400151111561143f5760405162461bcd60e51b81526004016104cd90612b7b565b43816060015111156112335760405162461bcd60e51b81526004016104cd906128c7565b6000808251116114a45760405162461bcd60e51b815260040180806020018281038252603481526020018061307d6034913960400191505060405180910390fd5b81516114c657816000815181106114b757fe5b6020026020010151905061038f565b60408051610200810182527f290decd9548b62a8d60345a988386fc84ba6bc95484008f6362f93160ef3e56381527f633dc4d7da7256660a892f8f1604a44b5432649cc8ec5cb3ced4c4e6ac94dd1d60208201527f890740a8eb06ce9be422cb8da5cdafc2b58c0a5e24036c578de2a433c828ff7d818301527f3b8ec09e026fdc305365dfc94e189a81b38c7597b3d941c279f042e8206e0bd86060808301919091527fecd50eee38e386bd62be9bedb990706951b65fe053bd9d8a521af753d139e2da60808301527fdefff6d330bb5403f63b14f33b578274160de3a50df4efecf0e0db73bcdd3da560a08301527f617bdd11f7c0a11f49db22f629387a12da7596f9d1704d7465177c63d88ec7d760c08301527f292c23a9aa1d8bea7e2435e555a4a60e379a5a35f3f452bae60121073fb6eead60e08301527fe1cea92ed99acdcb045a6726b2f87107e8a61620a232cf4d7d5b5766b3952e106101008301527f7ad66c0a68c72cb89e4fb4303841966e4062a76ab97451e3b9fb526a5ceb7f826101208301527fe026cc5a4aed3c22a58cbd3d2ac754c9352c5436f638042dca99034e836365166101408301527f3d04cffd8b46a874edf5cfae63077de85f849a660426697b06a829c70dd1409c6101608301527fad676aa337a485e4728a0b240d92b3ef7b3c372d06d189322bfd5f61f1e7203e6101808301527fa2fca4a49658f9fab7aa63289c91b7c7b6c832a6d0e69334ff5b0a3483d09dab6101a08301527f4ebfd9cd7bca2505f7bef59cc1c12ecc708fff26ae4af19abe852afe9e20c8626101c08301527f2def10d13dd169f550f578bda343d9717a138562e0093b380a1120789d53cf106101e083015282518381529081018352909160009190602082018180368337505085519192506000918291508180805b600184111561186f5750506002820460018084161460005b828110156117eb578a816002028151811061179257fe5b602002602001015196508a81600202600101815181106117ae57fe5b6020026020010151955086602089015285604089015287805190602001208b82815181106117d857fe5b602090810291909101015260010161177b565b50801561184e5789600185038151811061180157fe5b6020026020010151955087836010811061181757fe5b602002015160001b945085602088015284604088015286805190602001208a838151811061184157fe5b6020026020010181815250505b8061185a57600061185d565b60015b60ff1682019350600190920191611763565b8960008151811061187c57fe5b602002602001015198505050505050505050919050565b6000806000806118a161106b565b935093509350935060006040518060a001604052806118be6107a4565b6001600160a01b0316631f7b6d326040518163ffffffff1660e01b815260040160206040518083038186803b1580156118f657600080fd5b505afa15801561190a573d6000803e3d6000fd5b505050506040513d601f19601f8201168201806040525081019061192e91906121c1565b81526020018b81526020018a81526020018664ffffffffff16815260200160405180602001604052806000815250815250905080600001517f127186556e7be68c7e31263195225b4de02820707889540969f62c05cf73525e82602001518360400151846060015185608001516040516119ab94939291906124a9565b60405180910390a260006119be82611c1f565b905060006119d6836040015188018b88018b8b611c48565b90506119e06107a4565b6001600160a01b0316632015276c83836040518363ffffffff1660e01b8152600401611a0d929190612485565b600060405180830381600087803b158015611a2757600080fd5b505af1158015611a3b573d6000803e3d6000fd5b50505050505050505050505050505050565b6080810151805160009190826041820167ffffffffffffffff81118015611a7357600080fd5b506040519080825280601f01601f191660200182016040528015611a9e576020820181803683370190505b5060408601516060870151919250906000602084016001815383600182015282602182015285604182018760208a0160045afa50604190950190942095505050505050919050565b6000611af06107a4565b8351604051634a83e9cd60e11b81526001600160a01b039290921691639507d39a91611b1e91600401612ed1565b60206040518083038186803b158015611b3657600080fd5b505afa158015611b4a573d6000803e3d6000fd5b505050506040513d601f19601f82011682018060405250810190611b6e91906121c1565b611b7784611c1f565b14611b945760405162461bcd60e51b81526004016104cd90612b4c565b611bb1836020015185846000015185602001518760400151611c67565b611bcd5760405162461bcd60e51b81526004016104cd9061290f565b5060019392505050565b8051602080830151604080850151606086015160808701519251600096611c0296909594910161244d565b604051602081830303815290604052805190602001209050919050565b60008160200151826040015183606001518460800151604051602001611c0294939291906124a9565b602892831b9390931760509190911b1760789290921b91909117901b90565b6000808211611ca75760405162461bcd60e51b8152600401808060200182810382526037815260200180612fd46037913960400191505060405180910390fd5b818410611ce55760405162461bcd60e51b8152600401808060200182810382526024815260200180612f806024913960400191505060405180910390fd5b611cee82611dec565b835114611d2c5760405162461bcd60e51b815260040180806020018281038252604d81526020018061300b604d913960600191505060405180910390fd5b8460005b8451811015611ddf578560011660011415611d8e57848181518110611d5157fe5b6020026020010151826040516020018083815260200182815260200192505050604051602081830303815290604052805190602001209150611dd3565b81858281518110611d9b57fe5b602002602001015160405160200180838152602001828152602001925050506040516020818303038152906040528051906020012091505b600195861c9501611d30565b5090951495945050505050565b6000808211611e2c5760405162461bcd60e51b8152600401808060200182810382526030815260200180612fa46030913960400191505060405180910390fd5b8160011415611e3d5750600061038f565b81600060805b60018160ff1610611e81578060ff1660018260ff166001901b03901b8316600014611e765760ff811692831c9291909101905b60011c607f16611e43565b506001811b8414611e90576001015b9392505050565b604080516060810182526000808252602082018190529181019190915290565b6040518060800160405280600081526020016000815260200160008152602001600081525090565b600067ffffffffffffffff831115611ef357fe5b611f06601f8401601f1916602001612f16565b9050828152838383011115611f1a57600080fd5b828260208301376000602084830101529392505050565b80356001600160a01b038116811461038f57600080fd5b600082601f830112611f58578081fd5b611e9083833560208501611edf565b80356002811061038f57600080fd5b600060a08284031215611f87578081fd5b60405160a0810167ffffffffffffffff8282108183111715611fa557fe5b81604052829350843583526020850135602084015260408501356040840152606085013560608401526080850135915080821115611fe257600080fd5b50611fef85828601611f48565b6080830152505092915050565b60006040828403121561200d578081fd5b6040516040810167ffffffffffffffff828210818311171561202b57fe5b816040528293508435835260209150818501358181111561204b57600080fd5b8501601f8101871361205c57600080fd5b80358281111561206857fe5b8381029250612078848401612f16565b8181528481019083860185850187018b101561209357600080fd5b600095505b838610156120b6578035835260019590950194918601918601612098565b5080868801525050505050505092915050565b600060a082840312156120da578081fd5b60405160a0810167ffffffffffffffff82821081831117156120f857fe5b8160405282935084359150811515821461211157600080fd5b8183526020850135602084015260408501356040840152606085013560608401526080850135915080821115611fe257600080fd5b60008060006060848603121561215a578283fd5b61216384611f31565b925060208401359150604084013567ffffffffffffffff811115612185578182fd5b61219186828701611f48565b9150509250925092565b6000602082840312156121ac578081fd5b815164ffffffffff1981168114611e90578182fd5b6000602082840312156121d2578081fd5b5051919050565b6000602082840312156121ea578081fd5b813567ffffffffffffffff811115612200578182fd5b8201601f81018413612210578182fd5b6104a284823560208401611edf565b60008060008060808587031215612234578081fd5b843567ffffffffffffffff8082111561224b578283fd5b9086019060e0828903121561225e578283fd5b61226860e0612f16565b823581526020830135602082015261228260408401611f67565b604082015261229360608401611f31565b60608201526122a460808401611f31565b608082015260a083013560a082015260c0830135828111156122c4578485fd5b6122d08a828601611f48565b60c083015250955060208701359150808211156122eb578283fd5b6122f7888389016120c9565b9450604087013591508082111561230c578283fd5b61231888838901611f76565b9350606087013591508082111561232d578283fd5b5061233a87828801611ffc565b91505092959194509250565b600060208284031215612357578081fd5b5035919050565b60008151808452815b8181101561238357602081850181015186830182015201612367565b818111156123945782602083870101525b50601f01601f19169290920160200192915050565b6001600160a01b0391909116815260200190565b6001600160a01b03858116825284166020820152604081018390526080606082018190526000906123f09083018461235e565b9695505050505050565b6001600160a01b038781168252861660208201526040810185905260c06060820181905260009061242d9083018661235e565b60808301949094525060a00152949350505050565b901515815260200190565b6000861515825285602083015284604083015283606083015260a0608083015261247a60a083018461235e565b979650505050505050565b91825264ffffffffff1916602082015260400190565b918252602082015260400190565b6000858252846020830152836040830152608060608301526123f0608083018461235e565b60208082526027908201527f617070656e64517565756542617463682069732063757272656e746c7920646960408201526639b0b13632b21760c91b606082015260800190565b60208082526029908201527f436f6e7465787420626c6f636b206e756d62657220746f6f2066617220696e206040820152683a3432903830b9ba1760b91b606082015260800190565b6020808252603d908201527f5472616e73616374696f6e20646174612073697a652065786365656473206d6160408201527f78696d756d20666f7220726f6c6c7570207472616e73616374696f6e2e000000606082015260800190565b6020808252602f908201527f436f6e746578742074696d657374616d70206973206c6f776572207468616e2060408201526e3630b9ba1039bab136b4ba3a32b21760891b606082015260800190565b6020808252605b908201527f50726576696f75736c7920656e7175657565642062617463686573206861766560408201527f206578706972656420616e64206d75737420626520617070656e64656420626560608201527f666f72652061206e65772073657175656e6365722062617463682e0000000000608082015260a00190565b6020808252602e908201527f496e76616c69642053657175656e636572207472616e73616374696f6e20696e60408201526d31b63ab9b4b7b710383937b7b31760911b606082015260800190565b60208082526032908201527f436f6e7465787420626c6f636b206e756d626572206973206c6f77657220746860408201527130b7103630b9ba1039bab136b4ba3a32b21760711b606082015260800190565b6020808252601e908201527f496e76616c69642053657175656e636572207472616e73616374696f6e2e0000604082015260600190565b6020808252603d908201527f5472616e73616374696f6e20676173206c696d69742065786365656473206d6160408201527f78696d756d20666f7220726f6c6c7570207472616e73616374696f6e2e000000606082015260800190565b60208082526028908201527f4d7573742070726f76696465206174206c65617374206f6e652062617463682060408201526731b7b73a32bc3a1760c11b606082015260800190565b6020808252602e908201527f4e6f7420616c6c2073657175656e636572207472616e73616374696f6e73207760408201526d32b93290383937b1b2b9b9b2b21760911b606082015260800190565b6020808252604a908201527f41637475616c207472616e73616374696f6e20696e64657820646f6573206e6f60408201527f74206d6174636820657870656374656420746f74616c20656c656d656e7473206060820152693a379030b83832b7321760b11b608082015260a00190565b60208082526028908201527f436f6e7465787420626c6f636b206e756d6265722069732066726f6d2074686560408201526710333aba3ab9329760c11b606082015260800190565b60208082526018908201527f496e76616c696420696e636c7573696f6e2070726f6f662e0000000000000000604082015260600190565b60208082526029908201527f5472616e73616374696f6e20676173206c696d697420746f6f206c6f7720746f6040820152681032b738bab2bab29760b91b606082015260800190565b60208082526043908201527f53657175656e636572207472616e73616374696f6e2074696d657374616d702060408201527f657863656564732074686174206f66206e65787420717565756520656c656d65606082015262373a1760e91b608082015260a00190565b6020808252604d908201527f5175657565207472616e73616374696f6e732063616e6e6f742062652073756260408201527f6d697474656420647572696e67207468652073657175656e63657220696e636c60608201526c3ab9b4b7b7103832b934b7b21760991b608082015260a00190565b6020808252603d908201527f41637475616c20626174636820737461727420696e64657820646f6573206e6f60408201527f74206d6174636820657870656374656420737461727420696e6465782e000000606082015260800190565b6020808252602d908201527f46756e6374696f6e2063616e206f6e6c792062652063616c6c6564206279207460408201526c34329029b2b8bab2b731b2b91760991b606082015260800190565b6020808252601a908201527f496e76616c6964205175657565207472616e73616374696f6e2e000000000000604082015260600190565b60208082526015908201527424b73b30b634b2103130ba31b4103432b0b232b91760591b604082015260600190565b60208082526025908201527f436f6e746578742074696d657374616d702069732066726f6d207468652066756040820152643a3ab9329760d91b606082015260800190565b6020808252602b908201527f496e73756666696369656e742067617320666f72204c322072617465206c696d60408201526a34ba34b73390313ab9371760a91b606082015260800190565b60208082526035908201527f436f6e746578742074696d657374616d702076616c756573206d757374206d6f6040820152743737ba37b734b1b0b6363c9034b731b932b0b9b29760591b606082015260800190565b6020808252602a908201527f496e76616c6964205175657565207472616e73616374696f6e20696e636c757360408201526934b7b710383937b7b31760b11b606082015260800190565b60208082526045908201527f53657175656e636572207472616e73616374696f6e20626c6f636b4e756d626560408201527f7220657863656564732074686174206f66206e65787420717565756520656c6560608201526436b2b73a1760d91b608082015260a00190565b60208082526021908201527f4d75737420617070656e64206174206c65617374206f6e6520656c656d656e746040820152601760f91b606082015260800190565b60208082526026908201527f436f6e746578742074696d657374616d7020746f6f2066617220696e20746865604082015265103830b9ba1760d11b606082015260800190565b60208082526022908201527f4e6f7420656e6f756768204261746368436f6e74657874732070726f76696465604082015261321760f11b606082015260800190565b60208082526029908201527f4e6f7420656e6f75676820717565756564207472616e73616374696f6e732074604082015268379030b83832b7321760b91b606082015260800190565b60208082526037908201527f436f6e7465787420626c6f636b4e756d6265722076616c756573206d7573742060408201527f6d6f6e6f746f6e6963616c6c7920696e6372656173652e000000000000000000606082015260800190565b8151815260208083015164ffffffffff90811691830191909152604092830151169181019190915260600190565b90815260200190565b9283526020830191909152604082015260600190565b63ffffffff91909116815260200190565b64ffffffffff91909116815260200190565b64ffffffffff9384168152919092166020820152604081019190915260600190565b60405181810167ffffffffffffffff81118282101715612f3257fe5b60405291905056fe4f564d5f436861696e53746f72616765436f6e7461696e65723a4354433a71756575654f564d5f4465636f6d7072657373696f6e507265636f6d70696c65416464726573734c69625f4d65726b6c65547265653a20496e646578206f7574206f6620626f756e64732e4c69625f4d65726b6c65547265653a2043616e6e6f7420636f6d70757465206365696c286c6f675f3229206f6620302e4c69625f4d65726b6c65547265653a20546f74616c206c6561766573206d7573742062652067726561746572207468616e207a65726f2e4c69625f4d65726b6c65547265653a20546f74616c207369626c696e677320646f6573206e6f7420636f72726563746c7920636f72726573706f6e6420746f20746f74616c206c65617665732e4f564d5f436861696e53746f72616765436f6e7461696e65723a4354433a626174636865734c69625f4d65726b6c65547265653a204d7573742070726f76696465206174206c65617374206f6e65206c65616620686173682ea26469706673582212203512ca678bca74305bf6a879ce3d6142d5a90f38111948470b55a07a416cec5964736f6c63430007060033",
  "devdoc": {
    "kind": "dev",
    "methods": {
      "appendQueueBatch(uint256)": {
        "params": {
          "_numQueuedTransactions": "Number of transactions to append."
        }
      },
      "appendSequencerBatch()": {
        "details": "This function uses a custom encoding scheme for efficiency reasons. .param _shouldStartAtElement Specific batch we expect to start appending to. .param _totalElementsToAppend Total number of batch elements we expect to append. .param _contexts Array of batch contexts. .param _transactionDataFields Array of raw transaction data."
      },
      "batches()": {
        "returns": {
          "_0": "Reference to the batch storage container."
        }
      },
      "enqueue(address,uint256,bytes)": {
        "params": {
          "_data": "Transaction data.",
          "_gasLimit": "Gas limit for the given transaction.",
          "_target": "Target contract to send the transaction to."
        }
      },
      "getNextQueueIndex()": {
        "returns": {
          "_0": "Index for the next queue element."
        }
      },
      "getNumPendingQueueElements()": {
        "returns": {
          "_0": "Length of the queue."
        }
      },
      "getQueueElement(uint256)": {
        "params": {
          "_index": "Index of the queue element to access."
        },
        "returns": {
          "_element": "Queue element at the given index."
        }
      },
      "getQueueLength()": {
        "returns": {
          "_0": "Length of the queue."
        }
      },
      "getTotalBatches()": {
        "returns": {
          "_totalBatches": "Total submitted batches."
        }
      },
      "getTotalElements()": {
        "returns": {
          "_totalElements": "Total submitted elements."
        }
      },
      "queue()": {
        "returns": {
          "_0": "Reference to the queue storage container."
        }
      },
      "verifyTransaction((uint256,uint256,uint8,address,address,uint256,bytes),(bool,uint256,uint256,uint256,bytes),(uint256,bytes32,uint256,uint256,bytes),(uint256,bytes32[]))": {
        "params": {
          "_batchHeader": "Header of the batch the transaction was included in.",
          "_inclusionProof": "Inclusion proof for the provided transaction chain element.",
          "_transaction": "Transaction to verify.",
          "_txChainElement": "Transaction chain element corresponding to the transaction."
        },
        "returns": {
          "_0": "True if the transaction exists in the CTC, false if not."
        }
      }
    },
    "title": "OVM_CanonicalTransactionChain",
    "version": 1
  },
  "userdoc": {
    "kind": "user",
    "methods": {
      "appendQueueBatch(uint256)": {
        "notice": "Appends a given number of queued transactions as a single batch."
      },
      "appendSequencerBatch()": {
        "notice": "Allows the sequencer to append a batch of transactions."
      },
      "batches()": {
        "notice": "Accesses the batch storage container."
      },
      "enqueue(address,uint256,bytes)": {
        "notice": "Adds a transaction to the queue."
      },
      "getNextQueueIndex()": {
        "notice": "Returns the index of the next element to be enqueued."
      },
      "getNumPendingQueueElements()": {
        "notice": "Get the number of queue elements which have not yet been included."
      },
      "getQueueElement(uint256)": {
        "notice": "Gets the queue element at a particular index."
      },
      "getQueueLength()": {
        "notice": "Retrieves the length of the queue, including both pending and canonical transactions."
      },
      "getTotalBatches()": {
        "notice": "Retrieves the total number of batches submitted."
      },
      "getTotalElements()": {
        "notice": "Retrieves the total number of elements submitted."
      },
      "queue()": {
        "notice": "Accesses the queue storage container."
      },
      "verifyTransaction((uint256,uint256,uint8,address,address,uint256,bytes),(bool,uint256,uint256,uint256,bytes),(uint256,bytes32,uint256,uint256,bytes),(uint256,bytes32[]))": {
        "notice": "Verifies whether a transaction is included in the chain."
      }
    },
    "version": 1
  },
  "storageLayout": {
    "storage": [
      {
        "astId": 11707,
        "contract": "contracts/optimistic-ethereum/OVM/chain/OVM_CanonicalTransactionChain.sol:OVM_CanonicalTransactionChain",
        "label": "libAddressManager",
        "offset": 0,
        "slot": "0",
        "type": "t_contract(Lib_AddressManager)11700"
      },
      {
        "astId": 1388,
        "contract": "contracts/optimistic-ethereum/OVM/chain/OVM_CanonicalTransactionChain.sol:OVM_CanonicalTransactionChain",
        "label": "forceInclusionPeriodSeconds",
        "offset": 0,
        "slot": "1",
        "type": "t_uint256"
      },
      {
        "astId": 1390,
        "contract": "contracts/optimistic-ethereum/OVM/chain/OVM_CanonicalTransactionChain.sol:OVM_CanonicalTransactionChain",
        "label": "forceInclusionPeriodBlocks",
        "offset": 0,
        "slot": "2",
        "type": "t_uint256"
      },
      {
        "astId": 1392,
        "contract": "contracts/optimistic-ethereum/OVM/chain/OVM_CanonicalTransactionChain.sol:OVM_CanonicalTransactionChain",
        "label": "maxTransactionGasLimit",
        "offset": 0,
        "slot": "3",
        "type": "t_uint256"
      }
    ],
    "types": {
      "t_contract(Lib_AddressManager)11700": {
        "encoding": "inplace",
        "label": "contract Lib_AddressManager",
        "numberOfBytes": "20"
      },
      "t_uint256": {
        "encoding": "inplace",
        "label": "uint256",
        "numberOfBytes": "32"
      }
    }
  }
}