{
  "address": "0x40c9067ec8087EcF101FC10d2673636955b81A32",
  "abi": [
    {
      "inputs": [],
      "stateMutability": "nonpayable",
      "type": "constructor"
    },
    {
      "anonymous": false,
      "inputs": [
        {
          "indexed": true,
          "internalType": "address",
          "name": "_from",
          "type": "address"
        },
        {
          "indexed": false,
          "internalType": "address",
          "name": "_to",
          "type": "address"
        },
        {
          "indexed": false,
          "internalType": "uint256",
          "name": "_amount",
          "type": "uint256"
        }
      ],
      "name": "DepositInitiated",
      "type": "event"
    },
    {
      "anonymous": false,
      "inputs": [
        {
          "indexed": true,
          "internalType": "address",
          "name": "_to",
          "type": "address"
        },
        {
          "indexed": false,
          "internalType": "uint256",
          "name": "_amount",
          "type": "uint256"
        }
      ],
      "name": "WithdrawalFinalized",
      "type": "event"
    },
    {
      "inputs": [],
      "name": "deposit",
      "outputs": [],
      "stateMutability": "payable",
      "type": "function"
    },
    {
      "inputs": [
        {
          "internalType": "address",
          "name": "_to",
          "type": "address"
        }
      ],
      "name": "depositTo",
      "outputs": [],
      "stateMutability": "payable",
      "type": "function"
    },
    {
      "inputs": [],
      "name": "donateETH",
      "outputs": [],
      "stateMutability": "payable",
      "type": "function"
    },
    {
      "inputs": [
        {
          "internalType": "address",
          "name": "_to",
          "type": "address"
        },
        {
          "internalType": "uint256",
          "name": "_amount",
          "type": "uint256"
        }
      ],
      "name": "finalizeWithdrawal",
      "outputs": [],
      "stateMutability": "nonpayable",
      "type": "function"
    },
    {
      "inputs": [],
      "name": "getFinalizeDepositL2Gas",
      "outputs": [
        {
          "internalType": "uint32",
          "name": "",
          "type": "uint32"
        }
      ],
      "stateMutability": "view",
      "type": "function"
    },
    {
      "inputs": [
        {
          "internalType": "address",
          "name": "_libAddressManager",
          "type": "address"
        },
        {
          "internalType": "address",
          "name": "_ovmEth",
          "type": "address"
        }
      ],
      "name": "initialize",
      "outputs": [],
      "stateMutability": "nonpayable",
      "type": "function"
    },
    {
      "inputs": [],
      "name": "libAddressManager",
      "outputs": [
        {
          "internalType": "contract Lib_AddressManager",
          "name": "",
          "type": "address"
        }
      ],
      "stateMutability": "view",
      "type": "function"
    },
    {
      "inputs": [],
      "name": "messenger",
      "outputs": [
        {
          "internalType": "address",
          "name": "",
          "type": "address"
        }
      ],
      "stateMutability": "view",
      "type": "function"
    },
    {
      "inputs": [
        {
          "internalType": "address payable",
          "name": "_to",
          "type": "address"
        }
      ],
      "name": "migrateEth",
      "outputs": [],
      "stateMutability": "nonpayable",
      "type": "function"
    },
    {
      "inputs": [],
      "name": "ovmEth",
      "outputs": [
        {
          "internalType": "address",
          "name": "",
          "type": "address"
        }
      ],
      "stateMutability": "view",
      "type": "function"
    },
    {
      "inputs": [
        {
          "internalType": "string",
          "name": "_name",
          "type": "string"
        }
      ],
      "name": "resolve",
      "outputs": [
        {
          "internalType": "address",
          "name": "",
          "type": "address"
        }
      ],
      "stateMutability": "view",
      "type": "function"
    },
    {
      "stateMutability": "payable",
      "type": "receive"
    }
  ],
  "transactionHash": "0xac7e6ccfa141ea21c7b61df91f8fa959c3511a03620f9454eb30127db36d4728",
  "args": [],
  "solcInputHash": "f2bdab652d5102f5f11e78dae866798d",
  "bytecode": "0x608060405234801561001057600080fd5b50600080546001600160a01b0319908116909155600180549091169055610b978061003c6000396000f3fe6080604052600436106100a05760003560e01c8063485cc95511610064578063485cc95514610158578063490b5b78146101785780638b4c40b01461018d578063b760faf914610195578063d0e30db0146101a8578063f4f7b41a146101b0576100b1565b80631273a090146100b6578063175dc507146100e1578063299ca478146101015780633cb747bf14610123578063461a447814610138576100b1565b366100b1576100af33336101d0565b005b600080fd5b3480156100c257600080fd5b506100cb610284565b6040516100d89190610abc565b60405180910390f35b3480156100ed57600080fd5b506100af6100fc366004610845565b61028b565b34801561010d57600080fd5b50610116610399565b6040516100d891906109b5565b34801561012f57600080fd5b506101166103a8565b34801561014457600080fd5b506101166101533660046108e7565b6103b7565b34801561016457600080fd5b506100af610173366004610884565b610491565b34801561018457600080fd5b50610116610530565b6100af61053f565b6100af6101a3366004610845565b610541565b6100af61054e565b3480156101bc57600080fd5b506100af6101cb3660046108bc565b610558565b6000638d6e9a5b60e01b82346040516024016101ed9291906109c9565b60408051601f198184030181529190526020810180516001600160e01b03166001600160e01b03199093169290921790915260025490915061023c906001600160a01b03168262124f806106b9565b826001600160a01b03167ff531653a5819e21265de50358610d55dbe6594c61605b209dfa4280d277938c183346040516102779291906109c9565b60405180910390a2505050565b62124f8081565b60015460408051638da5cb5b60e01b815290516000926001600160a01b031691638da5cb5b916004808301926020929190829003018186803b1580156102d057600080fd5b505afa1580156102e4573d6000803e3d6000fd5b505050506040513d601f19601f820116820180604052508101906103089190610868565b9050336001600160a01b0382161461033b5760405162461bcd60e51b8152600401610332906109e2565b60405180910390fd5b6000479050826001600160a01b0316638b4c40b0826040518263ffffffff1660e01b81526004016000604051808303818588803b15801561037b57600080fd5b505af115801561038f573d6000803e3d6000fd5b5050505050505050565b6001546001600160a01b031681565b6000546001600160a01b031681565b60015460405163bf40fac160e01b81526020600482018181528451602484015284516000946001600160a01b03169363bf40fac1938793928392604401918501908083838b5b838110156104155781810151838201526020016103fd565b50505050905090810190601f1680156104425780820380516001836020036101000a031916815260200191505b509250505060206040518083038186803b15801561045f57600080fd5b505afa158015610473573d6000803e3d6000fd5b505050506040513d602081101561048957600080fd5b505192915050565b6001546001600160a01b0316156104ba5760405162461bcd60e51b815260040161033290610a6d565b600180546001600160a01b038085166001600160a01b03199283161790925560028054928416929091169190911790556040805160608101909152602180825261050c9190610b4160208301396103b7565b600080546001600160a01b0319166001600160a01b03929092169190911790555050565b6002546001600160a01b031681565b565b61054b33826101d0565b50565b61053f33336101d0565b6002546001600160a01b031661056c6107a4565b6001600160a01b0316336001600160a01b0316146105bb5760405162461bcd60e51b815260040180806020018281038252602e815260200180610ae3602e913960400191505060405180910390fd5b806001600160a01b03166105cd6107a4565b6001600160a01b0316636e296e456040518163ffffffff1660e01b815260040160206040518083038186803b15801561060557600080fd5b505afa158015610619573d6000803e3d6000fd5b505050506040513d602081101561062f57600080fd5b50516001600160a01b0316146106765760405162461bcd60e51b8152600401808060200182810382526030815260200180610b116030913960400191505060405180910390fd5b61068083836107b3565b826001600160a01b03167f9e5c4f9f4e46b8629d3dda85f43a69194f50254404a72dc62b9e932d9c94eda8836040516102779190610ab3565b6106c16107a4565b6001600160a01b0316633dbb202b8484846040518463ffffffff1660e01b815260040180846001600160a01b03168152602001806020018363ffffffff168152602001828103825284818151815260200191508051906020019080838360005b83811015610739578181015183820152602001610721565b50505050905090810190601f1680156107665780820380516001836020036101000a031916815260200191505b50945050505050600060405180830381600087803b15801561078757600080fd5b505af115801561079b573d6000803e3d6000fd5b50505050505050565b6000546001600160a01b031690565b604080516000808252602082019092526001600160a01b0384169083906040516107dd919061097c565b60006040518083038185875af1925050503d806000811461081a576040519150601f19603f3d011682016040523d82523d6000602084013e61081f565b606091505b50509050806108405760405162461bcd60e51b815260040161033290610a19565b505050565b600060208284031215610856578081fd5b813561086181610acd565b9392505050565b600060208284031215610879578081fd5b815161086181610acd565b60008060408385031215610896578081fd5b82356108a181610acd565b915060208301356108b181610acd565b809150509250929050565b600080604083850312156108ce578182fd5b82356108d981610acd565b946020939093013593505050565b600060208083850312156108f9578182fd5b823567ffffffffffffffff80821115610910578384fd5b818501915085601f830112610923578384fd5b81358181111561092f57fe5b604051601f8201601f191681018501838111828210171561094c57fe5b6040528181528382018501881015610962578586fd5b818585018683013790810190930193909352509392505050565b60008251815b8181101561099c5760208186018101518583015201610982565b818111156109aa5782828501525b509190910192915050565b6001600160a01b0391909116815260200190565b6001600160a01b03929092168252602082015260400190565b6020808252601e908201527f4f6e6c7920746865206f776e65722063616e206d696772617465204554480000604082015260600190565b60208082526034908201527f5472616e7366657248656c7065723a3a736166655472616e736665724554483a60408201527308115512081d1c985b9cd9995c8819985a5b195960621b606082015260800190565b60208082526026908201527f436f6e74726163742068617320616c7265616479206265656e20696e697469616040820152653634bd32b21760d11b606082015260800190565b90815260200190565b63ffffffff91909116815260200190565b6001600160a01b038116811461054b57600080fdfe4f564d5f58434841494e3a206d657373656e67657220636f6e747261637420756e61757468656e746963617465644f564d5f58434841494e3a2077726f6e672073656e646572206f662063726f73732d646f6d61696e206d65737361676550726f78795f5f4f564d5f4c3143726f7373446f6d61696e4d657373656e676572a26469706673582212206941c23a3d320250801ba2fad4fc6bf0aa38a77f09cc5358b9733f6cce18c7a264736f6c63430007060033",
  "devdoc": {
    "details": "The L1 ETH Gateway is a contract which stores deposited ETH that is in use on L2. Compiler used: solc Runtime target: EVM",
    "kind": "dev",
    "methods": {
      "deposit()": {
        "details": "deposit an amount of the ETH to the caller's balance on L2"
      },
      "depositTo(address)": {
        "details": "deposit an amount of ETH to a recipients's balance on L2",
        "params": {
          "_to": "L2 address to credit the withdrawal to"
        }
      },
      "donateETH()": {
        "details": "Adds ETH balance to the account. This is meant to allow for ETH to be migrated from an old gateway to a new gateway"
      },
      "finalizeWithdrawal(address,uint256)": {
        "details": "Complete a withdrawal from L2 to L1, and credit funds to the recipient's balance of the L1 ETH token. Since only the xDomainMessenger can call this function, it will never be called before the withdrawal is finalized.",
        "params": {
          "_amount": "Amount of the ETH to withdraw",
          "_to": "L1 address to credit the withdrawal to"
        }
      },
      "initialize(address,address)": {
        "params": {
          "_libAddressManager": "Address manager for this OE deployment",
          "_ovmEth": "L2 OVM_ETH implementation of iOVM_DepositedToken"
        }
      },
      "migrateEth(address)": {
        "details": "Migrates entire ETH balance to another gateway",
        "params": {
          "_to": "Gateway Proxy address to migrate ETH to"
        }
      },
      "resolve(string)": {
        "params": {
          "_name": "Name to resolve an address for."
        },
        "returns": {
          "_0": "Address associated with the given name."
        }
      }
    },
    "title": "OVM_L1ETHGateway",
    "version": 1
  },
  "userdoc": {
    "kind": "user",
    "methods": {
      "resolve(string)": {
        "notice": "Resolves the address associated with a given name."
      }
    },
    "version": 1
  },
  "storageLayout": {
    "storage": [
      {
        "astId": 12044,
        "contract": "contracts/optimistic-ethereum/OVM/bridge/tokens/OVM_L1ETHGateway.sol:OVM_L1ETHGateway",
        "label": "messenger",
        "offset": 0,
        "slot": "0",
        "type": "t_address"
      },
      {
        "astId": 12856,
        "contract": "contracts/optimistic-ethereum/OVM/bridge/tokens/OVM_L1ETHGateway.sol:OVM_L1ETHGateway",
        "label": "libAddressManager",
        "offset": 0,
        "slot": "1",
        "type": "t_contract(Lib_AddressManager)12849"
      },
      {
        "astId": 2661,
        "contract": "contracts/optimistic-ethereum/OVM/bridge/tokens/OVM_L1ETHGateway.sol:OVM_L1ETHGateway",
        "label": "ovmEth",
        "offset": 0,
        "slot": "2",
        "type": "t_address"
      }
    ],
    "types": {
      "t_address": {
        "encoding": "inplace",
        "label": "address",
        "numberOfBytes": "20"
      },
      "t_contract(Lib_AddressManager)12849": {
        "encoding": "inplace",
        "label": "contract Lib_AddressManager",
        "numberOfBytes": "20"
      }
    }
  }
}