{
  "address": "0xfe1F9Cf28ecDb12110aa8086e6FD343EA06035cC",
  "abi": [
    {
      "inputs": [
        {
          "internalType": "bytes",
          "name": "_bytecode",
          "type": "bytes"
        }
      ],
      "name": "isBytecodeSafe",
      "outputs": [
        {
          "internalType": "bool",
          "name": "",
          "type": "bool"
        }
      ],
      "stateMutability": "pure",
      "type": "function"
    }
  ],
  "transactionHash": "0xc470369bd3f0b9544e40c2d859fa0345ffc8f1e87a242e8abf6a56eb5698c71f",
  "args": [],
  "solcInputHash": "ef3f334bac4d7e77d91b457a0d89ab0a",
  "bytecode": "0x608060405234801561001057600080fd5b50610373806100206000396000f3fe608060405234801561001057600080fd5b506004361061002b5760003560e01c8063a44eb59a14610030575b600080fd5b6100d66004803603602081101561004657600080fd5b81019060208101813564010000000081111561006157600080fd5b82018360208201111561007357600080fd5b8035906020019184600183028401116401000000008311171561009557600080fd5b91908080601f0160208091040260200160405190810160405280939291908181526020018383808284376000920191909152509295506100ea945050505050565b604080519115158252519081900360200190f35b60408051610100810182527e0101010101010101010101000000000101010101010101010101010101000081526b010101010101000000010100600160f81b016020808301919091526f0101010100000001010101010000000092820192909252630203040560e01b60608201527f0101010101010101010101010101010101010101010101010101010101010101608082015264010101010160d81b60a0820152600060c0820181905260e0820181905283519092741fffffffff000000000f8f000063f000013fff0ffe916a40000000000000000000026117ff60f31b039163ffffffff60601b1991870181019087015b8051600081811a880151811a82811a890151821a0182811a890151821a0182811a890151821a0182811a890151821a0182811a89015190911a01918201911a6001811b86811661032057808516610239575001605d1901610326565b80861661027e575b8280600101935050825160001a915081605b141561025e57610279565b6001821b851661027157918101605e1901915b838310610241575b610320565b816033141561030f578251602084015160d81c673350600060045af160c083901c14156102b057600885019450610306565b817f336000905af158600e01573d6000803e3d6000fd5b3d6001141558600a0157601480156102e357508064016000f35b145b156102f357602585019450610306565b60009a5050505050505050505050610338565b50505050610326565b600098505050505050505050610338565b50506001015b8181106101dd57600196505050505050505b91905056fea26469706673582212209a836b268dcf58167a9f65bb872e3ddb5bd93b231f6b456f1c5e6d75b92a746364736f6c63430007060033",
  "devdoc": {
    "details": "The Safety Checker verifies that contracts deployed on L2 do not contain any \"unsafe\" operations. An operation is considered unsafe if it would access state variables which are specific to the environment (ie. L1 or L2) in which it is executed, as this could be used to \"escape the sandbox\" of the OVM, resulting in non-deterministic fraud proofs. That is, an attacker would be able to \"prove fraud\" on an honestly applied transaction. Note that a \"safe\" contract requires opcodes to appear in a particular pattern; omission of \"unsafe\" opcodes is necessary, but not sufficient. Compiler used: solc Runtime target: EVM",
    "kind": "dev",
    "methods": {
      "isBytecodeSafe(bytes)": {
        "params": {
          "_bytecode": "The bytecode to safety check."
        },
        "returns": {
          "_0": "`true` if the bytecode is safe, `false` otherwise."
        }
      }
    },
    "title": "OVM_SafetyChecker",
    "version": 1
  },
  "userdoc": {
    "kind": "user",
    "methods": {
      "isBytecodeSafe(bytes)": {
        "notice": "Returns whether or not all of the provided bytecode is safe."
      }
    },
    "version": 1
  },
  "storageLayout": {
    "storage": [],
    "types": null
  }
}