{
  "address": "0xEd93C5c21c502bB52b4D77240fA9a5d38472304d",
  "abi": [
    {
      "inputs": [
        {
          "internalType": "address",
          "name": "_libAddressManager",
          "type": "address"
        },
        {
          "components": [
            {
              "internalType": "uint256",
              "name": "minTransactionGasLimit",
              "type": "uint256"
            },
            {
              "internalType": "uint256",
              "name": "maxTransactionGasLimit",
              "type": "uint256"
            },
            {
              "internalType": "uint256",
              "name": "maxGasPerQueuePerEpoch",
              "type": "uint256"
            },
            {
              "internalType": "uint256",
              "name": "secondsPerEpoch",
              "type": "uint256"
            }
          ],
          "internalType": "struct iOVM_ExecutionManager.GasMeterConfig",
          "name": "_gasMeterConfig",
          "type": "tuple"
        },
        {
          "components": [
            {
              "internalType": "uint256",
              "name": "ovmCHAINID",
              "type": "uint256"
            }
          ],
          "internalType": "struct iOVM_ExecutionManager.GlobalContext",
          "name": "_globalContext",
          "type": "tuple"
        }
      ],
      "stateMutability": "nonpayable",
      "type": "constructor"
    },
    {
      "inputs": [],
      "name": "getMaxTransactionGasLimit",
      "outputs": [
        {
          "internalType": "uint256",
          "name": "_maxTransactionGasLimit",
          "type": "uint256"
        }
      ],
      "stateMutability": "view",
      "type": "function"
    },
    {
      "inputs": [],
      "name": "libAddressManager",
      "outputs": [
        {
          "internalType": "contract Lib_AddressManager",
          "name": "",
          "type": "address"
        }
      ],
      "stateMutability": "view",
      "type": "function"
    },
    {
      "inputs": [],
      "name": "ovmADDRESS",
      "outputs": [
        {
          "internalType": "address",
          "name": "_ADDRESS",
          "type": "address"
        }
      ],
      "stateMutability": "view",
      "type": "function"
    },
    {
      "inputs": [
        {
          "internalType": "uint256",
          "name": "_gasLimit",
          "type": "uint256"
        },
        {
          "internalType": "address",
          "name": "_address",
          "type": "address"
        },
        {
          "internalType": "bytes",
          "name": "_calldata",
          "type": "bytes"
        }
      ],
      "name": "ovmCALL",
      "outputs": [
        {
          "internalType": "bool",
          "name": "_success",
          "type": "bool"
        },
        {
          "internalType": "bytes",
          "name": "_returndata",
          "type": "bytes"
        }
      ],
      "stateMutability": "nonpayable",
      "type": "function"
    },
    {
      "inputs": [],
      "name": "ovmCALLER",
      "outputs": [
        {
          "internalType": "address",
          "name": "_CALLER",
          "type": "address"
        }
      ],
      "stateMutability": "view",
      "type": "function"
    },
    {
      "inputs": [],
      "name": "ovmCHAINID",
      "outputs": [
        {
          "internalType": "uint256",
          "name": "_CHAINID",
          "type": "uint256"
        }
      ],
      "stateMutability": "view",
      "type": "function"
    },
    {
      "inputs": [
        {
          "internalType": "bytes",
          "name": "_bytecode",
          "type": "bytes"
        }
      ],
      "name": "ovmCREATE",
      "outputs": [
        {
          "internalType": "address",
          "name": "",
          "type": "address"
        },
        {
          "internalType": "bytes",
          "name": "",
          "type": "bytes"
        }
      ],
      "stateMutability": "nonpayable",
      "type": "function"
    },
    {
      "inputs": [
        {
          "internalType": "bytes",
          "name": "_bytecode",
          "type": "bytes"
        },
        {
          "internalType": "bytes32",
          "name": "_salt",
          "type": "bytes32"
        }
      ],
      "name": "ovmCREATE2",
      "outputs": [
        {
          "internalType": "address",
          "name": "",
          "type": "address"
        },
        {
          "internalType": "bytes",
          "name": "",
          "type": "bytes"
        }
      ],
      "stateMutability": "nonpayable",
      "type": "function"
    },
    {
      "inputs": [
        {
          "internalType": "bytes32",
          "name": "_messageHash",
          "type": "bytes32"
        },
        {
          "internalType": "uint8",
          "name": "_v",
          "type": "uint8"
        },
        {
          "internalType": "bytes32",
          "name": "_r",
          "type": "bytes32"
        },
        {
          "internalType": "bytes32",
          "name": "_s",
          "type": "bytes32"
        }
      ],
      "name": "ovmCREATEEOA",
      "outputs": [],
      "stateMutability": "nonpayable",
      "type": "function"
    },
    {
      "inputs": [
        {
          "internalType": "uint256",
          "name": "_gasLimit",
          "type": "uint256"
        },
        {
          "internalType": "address",
          "name": "_address",
          "type": "address"
        },
        {
          "internalType": "bytes",
          "name": "_calldata",
          "type": "bytes"
        }
      ],
      "name": "ovmDELEGATECALL",
      "outputs": [
        {
          "internalType": "bool",
          "name": "_success",
          "type": "bool"
        },
        {
          "internalType": "bytes",
          "name": "_returndata",
          "type": "bytes"
        }
      ],
      "stateMutability": "nonpayable",
      "type": "function"
    },
    {
      "inputs": [
        {
          "internalType": "address",
          "name": "_contract",
          "type": "address"
        },
        {
          "internalType": "uint256",
          "name": "_offset",
          "type": "uint256"
        },
        {
          "internalType": "uint256",
          "name": "_length",
          "type": "uint256"
        }
      ],
      "name": "ovmEXTCODECOPY",
      "outputs": [
        {
          "internalType": "bytes",
          "name": "_code",
          "type": "bytes"
        }
      ],
      "stateMutability": "nonpayable",
      "type": "function"
    },
    {
      "inputs": [
        {
          "internalType": "address",
          "name": "_contract",
          "type": "address"
        }
      ],
      "name": "ovmEXTCODEHASH",
      "outputs": [
        {
          "internalType": "bytes32",
          "name": "_EXTCODEHASH",
          "type": "bytes32"
        }
      ],
      "stateMutability": "nonpayable",
      "type": "function"
    },
    {
      "inputs": [
        {
          "internalType": "address",
          "name": "_contract",
          "type": "address"
        }
      ],
      "name": "ovmEXTCODESIZE",
      "outputs": [
        {
          "internalType": "uint256",
          "name": "_EXTCODESIZE",
          "type": "uint256"
        }
      ],
      "stateMutability": "nonpayable",
      "type": "function"
    },
    {
      "inputs": [],
      "name": "ovmGASLIMIT",
      "outputs": [
        {
          "internalType": "uint256",
          "name": "_GASLIMIT",
          "type": "uint256"
        }
      ],
      "stateMutability": "view",
      "type": "function"
    },
    {
      "inputs": [],
      "name": "ovmGETNONCE",
      "outputs": [
        {
          "internalType": "uint256",
          "name": "_nonce",
          "type": "uint256"
        }
      ],
      "stateMutability": "nonpayable",
      "type": "function"
    },
    {
      "inputs": [],
      "name": "ovmINCREMENTNONCE",
      "outputs": [],
      "stateMutability": "nonpayable",
      "type": "function"
    },
    {
      "inputs": [],
      "name": "ovmL1QUEUEORIGIN",
      "outputs": [
        {
          "internalType": "enum Lib_OVMCodec.QueueOrigin",
          "name": "_queueOrigin",
          "type": "uint8"
        }
      ],
      "stateMutability": "view",
      "type": "function"
    },
    {
      "inputs": [],
      "name": "ovmL1TXORIGIN",
      "outputs": [
        {
          "internalType": "address",
          "name": "_l1TxOrigin",
          "type": "address"
        }
      ],
      "stateMutability": "view",
      "type": "function"
    },
    {
      "inputs": [],
      "name": "ovmNUMBER",
      "outputs": [
        {
          "internalType": "uint256",
          "name": "_NUMBER",
          "type": "uint256"
        }
      ],
      "stateMutability": "view",
      "type": "function"
    },
    {
      "inputs": [
        {
          "internalType": "bytes",
          "name": "_data",
          "type": "bytes"
        }
      ],
      "name": "ovmREVERT",
      "outputs": [],
      "stateMutability": "nonpayable",
      "type": "function"
    },
    {
      "inputs": [
        {
          "internalType": "bytes32",
          "name": "_key",
          "type": "bytes32"
        }
      ],
      "name": "ovmSLOAD",
      "outputs": [
        {
          "internalType": "bytes32",
          "name": "_value",
          "type": "bytes32"
        }
      ],
      "stateMutability": "nonpayable",
      "type": "function"
    },
    {
      "inputs": [
        {
          "internalType": "bytes32",
          "name": "_key",
          "type": "bytes32"
        },
        {
          "internalType": "bytes32",
          "name": "_value",
          "type": "bytes32"
        }
      ],
      "name": "ovmSSTORE",
      "outputs": [],
      "stateMutability": "nonpayable",
      "type": "function"
    },
    {
      "inputs": [
        {
          "internalType": "uint256",
          "name": "_gasLimit",
          "type": "uint256"
        },
        {
          "internalType": "address",
          "name": "_address",
          "type": "address"
        },
        {
          "internalType": "bytes",
          "name": "_calldata",
          "type": "bytes"
        }
      ],
      "name": "ovmSTATICCALL",
      "outputs": [
        {
          "internalType": "bool",
          "name": "_success",
          "type": "bool"
        },
        {
          "internalType": "bytes",
          "name": "_returndata",
          "type": "bytes"
        }
      ],
      "stateMutability": "nonpayable",
      "type": "function"
    },
    {
      "inputs": [],
      "name": "ovmTIMESTAMP",
      "outputs": [
        {
          "internalType": "uint256",
          "name": "_TIMESTAMP",
          "type": "uint256"
        }
      ],
      "stateMutability": "view",
      "type": "function"
    },
    {
      "inputs": [
        {
          "internalType": "string",
          "name": "_name",
          "type": "string"
        }
      ],
      "name": "resolve",
      "outputs": [
        {
          "internalType": "address",
          "name": "_contract",
          "type": "address"
        }
      ],
      "stateMutability": "view",
      "type": "function"
    },
    {
      "inputs": [
        {
          "components": [
            {
              "internalType": "uint256",
              "name": "timestamp",
              "type": "uint256"
            },
            {
              "internalType": "uint256",
              "name": "blockNumber",
              "type": "uint256"
            },
            {
              "internalType": "enum Lib_OVMCodec.QueueOrigin",
              "name": "l1QueueOrigin",
              "type": "uint8"
            },
            {
              "internalType": "address",
              "name": "l1TxOrigin",
              "type": "address"
            },
            {
              "internalType": "address",
              "name": "entrypoint",
              "type": "address"
            },
            {
              "internalType": "uint256",
              "name": "gasLimit",
              "type": "uint256"
            },
            {
              "internalType": "bytes",
              "name": "data",
              "type": "bytes"
            }
          ],
          "internalType": "struct Lib_OVMCodec.Transaction",
          "name": "_transaction",
          "type": "tuple"
        },
        {
          "internalType": "address",
          "name": "_ovmStateManager",
          "type": "address"
        }
      ],
      "name": "run",
      "outputs": [],
      "stateMutability": "nonpayable",
      "type": "function"
    },
    {
      "inputs": [
        {
          "internalType": "uint256",
          "name": "_gasLimit",
          "type": "uint256"
        },
        {
          "internalType": "bytes",
          "name": "_creationCode",
          "type": "bytes"
        },
        {
          "internalType": "address",
          "name": "_address",
          "type": "address"
        }
      ],
      "name": "safeCREATE",
      "outputs": [],
      "stateMutability": "nonpayable",
      "type": "function"
    },
    {
      "inputs": [
        {
          "components": [
            {
              "internalType": "uint256",
              "name": "timestamp",
              "type": "uint256"
            },
            {
              "internalType": "uint256",
              "name": "blockNumber",
              "type": "uint256"
            },
            {
              "internalType": "enum Lib_OVMCodec.QueueOrigin",
              "name": "l1QueueOrigin",
              "type": "uint8"
            },
            {
              "internalType": "address",
              "name": "l1TxOrigin",
              "type": "address"
            },
            {
              "internalType": "address",
              "name": "entrypoint",
              "type": "address"
            },
            {
              "internalType": "uint256",
              "name": "gasLimit",
              "type": "uint256"
            },
            {
              "internalType": "bytes",
              "name": "data",
              "type": "bytes"
            }
          ],
          "internalType": "struct Lib_OVMCodec.Transaction",
          "name": "_transaction",
          "type": "tuple"
        },
        {
          "internalType": "address",
          "name": "_from",
          "type": "address"
        },
        {
          "internalType": "contract iOVM_StateManager",
          "name": "_ovmStateManager",
          "type": "address"
        }
      ],
      "name": "simulateMessage",
      "outputs": [
        {
          "internalType": "bool",
          "name": "",
          "type": "bool"
        },
        {
          "internalType": "bytes",
          "name": "",
          "type": "bytes"
        }
      ],
      "stateMutability": "nonpayable",
      "type": "function"
    }
  ],
  "transactionHash": "0x5e986b048e3fc50a6186604f8048c310d4bcf7790dc790a41bf6eb337c8d4d48",
  "args": [
    "0xd3EeD86464Ff13B4BFD81a3bB1e753b7ceBA3A39",
    {
      "minTransactionGasLimit": 50000,
      "maxTransactionGasLimit": 9000000,
      "maxGasPerQueuePerEpoch": 250000000,
      "secondsPerEpoch": 0
    },
    {
      "ovmCHAINID": 10
    }
  ],
  "solcInputHash": "43ee6bb8ef92595aa6d0e22a6c464dff",
  "bytecode": "0x60806040523480156200001157600080fd5b5060405162003cdf38038062003cdf833981016040819052620000349162000292565b600080546001600160a01b0319166001600160a01b03851617905560408051808201909152601181527027ab26afa9b0b332ba3ca1b432b1b5b2b960791b60208201526200008290620000d7565b600180546001600160a01b0319166001600160a01b039290921691909117905581516003556020820151600455604082015160055560608201516006558051600755620000ce620001b9565b50505062000337565b6000805460405163bf40fac160e01b81526020600482018181528551602484015285516001600160a01b039094169363bf40fac19387938392604490920191908501908083838b5b83811015620001395781810151838201526020016200011f565b50505050905090810190601f168015620001675780820380516001836020036101000a031916815260200191505b509250505060206040518083038186803b1580156200018557600080fd5b505afa1580156200019a573d6000803e3d6000fd5b505050506040513d6020811015620001b157600080fd5b505192915050565b600d80546001600160a01b031990811673defa017defa017defa017defa017defa017defa09081179092557fdefa017defa017defa017defa017defa017defa017defa017defa017defa017d6009819055600a819055600b819055600c8190556008805460ff191690556010819055600e8054831684179055600f8054831690931760ff60a01b1916909255601191909155600280549091169055565b60006020828403121562000268578081fd5b604051602081016001600160401b03811182821017156200028557fe5b6040529151825250919050565b600080600083850360c0811215620002a8578384fd5b84516001600160a01b0381168114620002bf578485fd5b93506080601f1982011215620002d3578283fd5b50604051608081016001600160401b0381118282101715620002f157fe5b806040525060208501518152604085015160208201526060850151604082015260808501516060820152809250506200032e8560a0860162000256565b90509250925092565b61399880620003476000396000f3fe60806040523480156200001157600080fd5b5060043610620001f05760003560e01c80637cebbe94116200011157806399ccd98b11620000a5578063bdbf8c36116200007b578063bdbf8c361462000402578063c1fb2ea2146200040c578063fcb6829b1462000416578063ffe73914146200042d57620001f0565b806399ccd98b14620003ca5780639be3ad6714620003e15780639dc9dc9314620003f857620001f0565b806385979f7611620000e757806385979f7614620003885780638bb42e15146200039f5780639058025614620003b6578063996d79a514620003c057620001f0565b80637cebbe9414620003405780638435035b146200034a5780638540661f146200036157620001f0565b8063299ca47811620001895780635a98c361116200015f5780635a98c36114620002ef5780637350906414620002f9578063741a33eb1462000303578063746c32f1146200031a57620001f0565b8063299ca47814620002a85780632a2a7adb14620002c1578063461a447814620002d857620001f0565b80631c4712a711620001cb5780631c4712a7146200026457806320160f3a146200026e57806322bd64c0146200027857806324749d5c146200029157620001f0565b806303daa95914620001f5578063101185a4146200022457806314aa2ff7146200023d575b600080fd5b6200020c620002063660046200287b565b62000444565b6040516200021b919062002cd8565b60405180910390f35b6200022e6200048e565b6040516200021b919062002dc9565b620002546200024e36600462002912565b62000497565b6040516200021b92919062002d53565b6200020c6200053e565b6200020c62000544565b6200028f62000289366004620028ad565b6200054a565b005b6200020c620002a2366004620027e4565b620005b5565b620002b2620005d4565b6040516200021b919062002ce1565b6200028f620002d236600462002912565b620005e3565b620002b2620002e936600462002a3d565b620005f3565b6200020c620006d5565b620002b2620006db565b6200028f62000314366004620028cf565b620006ea565b620003316200032b36600462002822565b62000875565b6040516200021b919062002db4565b6200028f620008ae565b6200020c6200035b366004620027e4565b6200090f565b620003786200037236600462002b45565b62000926565b6040516200021b92919062002d79565b620003786200039936600462002b45565b620009a3565b62000378620003b036600462002adc565b620009f4565b6200020c62000ad4565b620002b262000ada565b62000254620003db36600462002950565b62000ae9565b6200028f620003f236600462002a87565b62000b89565b620002b262000cd3565b6200020c62000ce2565b6200020c62000ce8565b6200028f6200042736600462002ba1565b62000d03565b620003786200043e36600462002b45565b62000f18565b6000619c4060005a905060006200045a62000ada565b905062000468818662000f6b565b93505060005a82039050808310156200048657601080548483030190555b505050919050565b60085460ff1690565b600f5460009060609060ff600160a01b90910416151560011415620004c257620004c260066200100a565b619c4060005a90506000620004d662000ada565b9050620004e38162001025565b6000620004fb82620004f584620010b4565b62001147565b9050620005098188620011e3565b95509550505060005a82039050808310156200052d57601080548401905562000536565b60108054820190555b505050915091565b60045490565b600b5490565b600f5460ff600160a01b909104161515600114156200056f576200056f60066200100a565b61ea6060005a905060006200058362000ada565b90506200059281868662001274565b5060005a8203905080831015620005ae57601080548483030190555b5050505050565b6000620005cc620005c68362001300565b62001393565b90505b919050565b6000546001600160a01b031681565b620005f060018262001397565b50565b6000805460405163bf40fac160e01b81526020600482018181528551602484015285516001600160a01b039094169363bf40fac19387938392604490920191908501908083838b5b83811015620006555781810151838201526020016200063b565b50505050905090810190601f168015620006835780820380516001836020036101000a031916815260200191505b509250505060206040518083038186803b158015620006a157600080fd5b505afa158015620006b6573d6000803e3d6000fd5b505050506040513d6020811015620006cd57600080fd5b505192915050565b600a5490565b600e546001600160a01b031690565b600f5460ff600160a01b909104161515600114156200070f576200070f60066200100a565b600060018585601b0185856040516000815260200160405260405162000739949392919062002d96565b6020604051602081039080840390855afa1580156200075c573d6000803e3d6000fd5b5050604051601f1901519150506001600160a01b0381166200079c576200079c6040518060600160405280603881526020016200387a60389139620005e3565b620007a781620013af565b620007b357506200086f565b620007be8162001442565b600f80546001600160a01b038381166001600160a01b03198316179092556040519116906000906003602160991b0190620007f990620026af565b62000805919062002ce1565b604051809103906000f08015801562000822573d6000803e3d6000fd5b50600f80546001600160a01b0319166001600160a01b03851617905590506200085e83826200085181620014af565b80519060200120620014c9565b6200086b8360006200150a565b5050505b50505050565b60606000826001146200088957826200088c565b60025b9050620008a56200089d8662001300565b858362001581565b95945050505050565b600f5460ff600160a01b90910416151560011415620008d357620008d360066200100a565b6000620008df62000ada565b90506000620008ee82620010b4565b9050808160010111156200090b576200090b82826001016200150a565b5050565b6000620005cc620009208362001300565b620015a3565b600060606201388060005a60408051606081018252600f546001600160a01b039081168252891660208201526001918101919091529091506200096c81898989620015a7565b945094505060005a82039050808310156200098f57601080548401905562000998565b60108054820190555b505050935093915050565b60006060620186a060005a60408051606081018252600f5460ff600160a01b8204161515928201929092526001600160a01b03918216815290881660208201529091506200096c81898989620015a7565b60006060331562000a0457600080fd5b600280546001600160a01b0319166001600160a01b03851617905562000a2a8562001640565b600019601155600f80546001600160a01b0319166001600160a01b038681169190911790915560808601511615801562000aad5760008062000a708860c0015162000497565b90925090506001600160a01b03821662000a935760009450925062000acc915050565b600162000aa083620014af565b9450945050505062000acc565b62000ac68660a0015187608001518860c00151620009a3565b92509250505b935093915050565b60075490565b600f546001600160a01b031690565b600f5460009060609060ff600160a01b9091041615156001141562000b145762000b1460066200100a565b619c4060005a9050600062000b2862000ada565b905062000b358162001025565b600062000b44828989620016b5565b905062000b528189620011e3565b95509550505060005a820390508083101562000b7657601080548401905562000b7f565b60108054820190555b5050509250929050565b600a547fdefa017defa017defa017defa017defa017defa017defa017defa017defa017d1462000bb9576200090b565b600280546001600160a01b0319166001600160a01b038381169190911791829055604051630d15d41560e41b815291169063d15d41509062000c0090339060040162002ce1565b60206040518083038186803b15801562000c1957600080fd5b505afa15801562000c2e573d6000803e3d6000fd5b505050506040513d601f19601f8201168201806040525081019062000c54919062002859565b62000c7c5760405162461bcd60e51b815260040162000c739062002e4e565b60405180910390fd5b62000c878262001640565b62000c9282620016ff565b62000ca75762000ca162001761565b6200090b565b62000cc76003600001548360a001510383608001518460c00151620009a3565b50506200090b62001761565b600d546001600160a01b031690565b60095490565b600062000cfe62000cf862000ada565b620010b4565b905090565b33301462000d115762000f13565b62000d1c81620013af565b62000d515762000d51600562000d4b6040518060600160405280603481526020016200392860349139620017fe565b62001397565b6001546040516352275acd60e11b81526001600160a01b039091169063a44eb59a9062000d8390859060040162002db4565b60206040518083038186803b15801562000d9c57600080fd5b505afa15801562000db1573d6000803e3d6000fd5b505050506040513d601f19601f8201168201806040525081019062000dd7919062002859565b62000e065762000e06600462000d4b6040518060a0016040528060768152602001620038b260769139620017fe565b62000e118162001442565b600062000e1e8362001843565b90506001600160a01b03811662000e39573d6000803e3d6000fd5b600062000e4682620014af565b6001546040516352275acd60e11b81529192506001600160a01b03169063a44eb59a9062000e7990849060040162002db4565b60206040518083038186803b15801562000e9257600080fd5b505afa15801562000ea7573d6000803e3d6000fd5b505050506040513d601f19601f8201168201806040525081019062000ecd919062002859565b62000efc5762000efc600462000d4b6040518060600160405280603081526020016200395c60309139620017fe565b620005ae838362000f0d8562001393565b620014c9565b505050565b60006060619c4060005a60408051606081018252600e546001600160a01b039081168252600f549081166020830152600160a01b900460ff161515918101919091529091506200096c81898989620015a7565b600062000f79838362001854565b600254604051631aaf392f60e01b81526001600160a01b0390911690631aaf392f9062000fad908690869060040162002d19565b60206040518083038186803b15801562000fc657600080fd5b505afa15801562000fdb573d6000803e3d6000fd5b505050506040513d601f19601f8201168201806040525081019062001001919062002894565b90505b92915050565b620005f0816040518060200160405280600081525062001397565b600080620010785a6002602160991b018560405160240162001048919062002ce1565b60408051601f198184030181529190526020810180516001600160e01b031663b1540a0160e01b179052620009a3565b9150915060008180602001905181019062001094919062002859565b9050801580620010a2575082155b156200086f576200086f60076200100a565b6000620010c182620019a4565b60025460405163d126199f60e01b81526001600160a01b039091169063d126199f90620010f390859060040162002ce1565b60206040518083038186803b1580156200110c57600080fd5b505afa15801562001121573d6000803e3d6000fd5b505050506040513d601f19601f82011682018060405250810190620005cc919062002894565b60408051600280825260608201909252600091829190816020015b606081526020019060019003908162001162579050509050620011858462001b03565b816000815181106200119357fe5b6020026020010181905250620011a98362001b31565b81600181518110620011b757fe5b60200260200101819052506000620011cf8262001b48565b9050620008a5818051906020012062001b92565b600060606200120c620011f562000ada565b6200120362000cf862000ada565b6001016200150a565b60408051606081018252600f5460ff600160a01b8204161515928201929092526001600160a01b039182168152908516602082015260008062001254835a8989600162001b95565b91509150816200126657600062001268565b865b97909650945050505050565b8062001281848462000f6b565b14156200128e5762000f13565b6200129a838362001e28565b600254604051635c17d62960e01b81526001600160a01b0390911690635c17d62990620012d09086908690869060040162002d32565b600060405180830381600087803b158015620012eb57600080fd5b505af11580156200086b573d6000803e3d6000fd5b60006200130d82620019a4565b600254604051637c8ee70360e01b81526001600160a01b0390911690637c8ee703906200133f90859060040162002ce1565b60206040518083038186803b1580156200135857600080fd5b505afa1580156200136d573d6000803e3d6000fd5b505050506040513d601f19601f82011682018060405250810190620005cc919062002803565b3f90565b6000620013a5838362001f49565b9050805160208201fd5b6000620013bc82620019a4565b6002546040516307a1294560e01b81526001600160a01b03909116906307a1294590620013ee90859060040162002ce1565b60206040518083038186803b1580156200140757600080fd5b505afa1580156200141c573d6000803e3d6000fd5b505050506040513d601f19601f82011682018060405250810190620005cc919062002859565b6200144d81620019a4565b600254604051637e78a4d160e11b81526001600160a01b039091169063fcf149a2906200147f90849060040162002ce1565b600060405180830381600087803b1580156200149a57600080fd5b505af1158015620005ae573d6000803e3d6000fd5b6060620005cc826000620014c385620015a3565b62001581565b620014d48362001ffc565b6002546040516368510af960e11b81526001600160a01b039091169063d0a215f290620012d09086908690869060040162002cf5565b620015158262001ffc565b6002546040516374855dc360e11b81526001600160a01b039091169063e90abb869062001549908590859060040162002d19565b600060405180830381600087803b1580156200156457600080fd5b505af115801562001579573d6000803e3d6000fd5b505050505050565b60606040519050602082018101604052818152818360208301863c9392505050565b3b90565b6000606073ffffffffffffffffffffffffffffffffffff0000841673deaddeaddeaddeaddeaddeaddeaddeaddead00001415620015f857505060408051602081019091526000815260019062001637565b60006064856001600160a01b0316106200161d57620016178562001300565b6200161f565b845b90506200163187878387600062001b95565b92509250505b94509492505050565b80516009556020810151600a5560a0810151600c5560408101516008805460ff1916600183818111156200167057fe5b02179055506060810151600d80546001600160a01b0319166001600160a01b03909216919091179055600554600b5560a0810151620016af906200211a565b60115550565b60008060ff60f81b85848680519060200120604051602001620016dc949392919062002c4e565b604051602081830303815290604052805190602001209050620008a58162001b92565b60007fdefa017defa017defa017defa017defa017defa017defa017defa017defa017d826020015114156200173757506000620005cf565b6200174b8260a0015183604001516200212f565b6200175957506000620005cf565b506001919050565b600d80546001600160a01b031990811673defa017defa017defa017defa017defa017defa09081179092557fdefa017defa017defa017defa017defa017defa017defa017defa017defa017d6009819055600a819055600b819055600c8190556008805460ff191690556010819055600e8054831684179055600f8054831690931760ff60a01b1916909255601191909155600280549091169055565b60608160405160240162001813919062002db4565b60408051601f198184030181529190526020810180516001600160e01b031662461bcd60e51b1790529050919050565b60008151602083016000f092915050565b6175305a10156200186b576200186b60006200100a565b600254604051630ad2267960e01b81526001600160a01b0390911690630ad22679906200189f908590859060040162002d19565b60206040518083038186803b158015620018b857600080fd5b505afa158015620018cd573d6000803e3d6000fd5b505050506040513d601f19601f82011682018060405250810190620018f3919062002859565b62001904576200190460036200100a565b600254604051632bcdee1960e21b81526000916001600160a01b03169063af37b8649062001939908690869060040162002d19565b602060405180830381600087803b1580156200195457600080fd5b505af115801562001969573d6000803e3d6000fd5b505050506040513d601f19601f820116820180604052508101906200198f919062002859565b90508062000f135762000f13614e2062002163565b6175305a1015620019bb57620019bb60006200100a565b60025460405163c8e40fbf60e01b81526001600160a01b039091169063c8e40fbf90620019ed90849060040162002ce1565b60206040518083038186803b15801562001a0657600080fd5b505afa15801562001a1b573d6000803e3d6000fd5b505050506040513d601f19601f8201168201806040525081019062001a41919062002859565b62001a525762001a5260036200100a565b600254604051633ecdecc760e21b81526000916001600160a01b03169063fb37b31c9062001a8590859060040162002ce1565b602060405180830381600087803b15801562001aa057600080fd5b505af115801562001ab5573d6000803e3d6000fd5b505050506040513d601f19601f8201168201806040525081019062001adb919062002859565b9050806200090b576200090b617530606462001afb620009208662001300565b020162002163565b6060620005cc8260405160200162001b1c919062002c31565b60405160208183030381529060405262002186565b6060620005cc62001b4283620021e0565b62002186565b6060600062001b5783620022f1565b905062001b67815160c0620023fe565b8160405160200162001b7b92919062002ca5565b604051602081830303815290604052915050919050565b90565b6040805160608082018352600e546001600160a01b039081168352600f549081166020840152600160a01b900460ff161515928201929092526000919062001bde81896200255b565b601154600062001bee896200211a565b6011819055905060006060871562001cb257604051309063fcb6829b60e01b9062001c22908e908d908f9060240162002eba565b60408051601f198184030181529181526020820180516001600160e01b03166001600160e01b031990941693909317909252905162001c62919062002c87565b6000604051808303816000865af19150503d806000811462001ca1576040519150601f19603f3d011682016040523d82523d6000602084013e62001ca6565b606091505b50909250905062001d19565b896001600160a01b03168b8a60405162001ccd919062002c87565b60006040518083038160008787f1925050503d806000811462001d0d576040519150601f19603f3d011682016040523d82523d6000602084013e62001d12565b606091505b5090925090505b62001d258c866200255b565b6011548262001e105760008060008062001d3f8662002612565b92965090945092509050600384600781111562001d5857fe5b141562001d6a5762001d6a846200100a565b600184600781111562001d7957fe5b148062001d925750600484600781111562001d9057fe5b145b8062001daa5750600684600781111562001da857fe5b145b8062001dc25750600784600781111562001dc057fe5b145b1562001dce5760108290555b600184600781111562001ddd57fe5b148062001de757508c5b1562001df65780955062001e09565b6040518060200160405280600081525095505b5090925050505b90920390920360115590999098509650505050505050565b62001e34828262001854565b60025460405163af3dc01160e01b81526000916001600160a01b03169063af3dc0119062001e69908690869060040162002d19565b602060405180830381600087803b15801562001e8457600080fd5b505af115801562001e99573d6000803e3d6000fd5b505050506040513d601f19601f8201168201806040525081019062001ebf919062002859565b90508062000f135762001ed28362001ffc565b600260009054906101000a90046001600160a01b03166001600160a01b031663c3fd9b256040518163ffffffff1660e01b8152600401600060405180830381600087803b15801562001f2357600080fd5b505af115801562001f38573d6000803e3d6000fd5b5050505062000f13614e2062002163565b6060600083600781111562001f5a57fe5b141562001f77575060408051602081019091526000815262001004565b600383600781111562001f8657fe5b141562001fc85760408051602080820183526000808352925162001fb1938793909283920162002dde565b604051602081830303815290604052905062001004565b60115460105460405162001fe59286929091869060200162002e1e565b604051602081830303815290604052905092915050565b6200200781620019a4565b60025460405163011b1f7960e41b81526000916001600160a01b0316906311b1f790906200203a90859060040162002ce1565b602060405180830381600087803b1580156200205557600080fd5b505af11580156200206a573d6000803e3d6000fd5b505050506040513d601f19601f8201168201806040525081019062002090919062002859565b9050806200090b57600260009054906101000a90046001600160a01b03166001600160a01b03166333f943056040518163ffffffff1660e01b8152600401600060405180830381600087803b158015620020e957600080fd5b505af1158015620020fe573d6000803e3d6000fd5b505050506200090b617530606462001afb620009208662001300565b60005a82106200212b575a620005cc565b5090565b600454600090831115620021465750600062001004565b6003548310156200215a5750600062001004565b50600192915050565b6011548111156200217a576200217a60026200100a565b60118054919091039055565b60608082516001148015620021b05750608083600081518110620021a657fe5b016020015160f81c105b15620021be575081620005cc565b620021cc83516080620023fe565b8360405160200162001fe592919062002ca5565b6060600082604051602001620021f7919062002cd8565b604051602081830303815290604052905060005b602081101562002246578181815181106200222257fe5b01602001516001600160f81b031916156200223d5762002246565b6001016200220b565b6000816020036001600160401b03811180156200226257600080fd5b506040519080825280601f01601f1916602001820160405280156200228e576020820181803683370190505b50905060005b8151811015620022e8578351600184019385918110620022b057fe5b602001015160f81c60f81b828281518110620022c857fe5b60200101906001600160f81b031916908160001a90535060010162002294565b50949350505050565b6060815160001415620023145750604080516000815260208101909152620005cf565b6000805b83518110156200234a578381815181106200232f57fe5b60200260200101515182019150808060010191505062002318565b6000826001600160401b03811180156200236357600080fd5b506040519080825280601f01601f1916602001820160405280156200238f576020820181803683370190505b50600092509050602081015b8551831015620022e8576000868481518110620023b457fe5b602002602001015190506000602082019050620023d48382845162002669565b878581518110620023e157fe5b60200260200101515183019250505082806001019350506200239b565b60608060388410156200245b576040805160018082528183019092529060208201818036833701905050905082840160f81b816000815181106200243e57fe5b60200101906001600160f81b031916908160001a90535062001001565b600060015b8086816200246a57fe5b041562002481576001909101906101000262002460565b816001016001600160401b03811180156200249b57600080fd5b506040519080825280601f01601f191660200182016040528015620024c7576020820181803683370190505b50925084820160370160f81b83600081518110620024e157fe5b60200101906001600160f81b031916908160001a905350600190505b81811162002552576101008183036101000a87816200251857fe5b04816200252157fe5b0660f81b8382815181106200253257fe5b60200101906001600160f81b031916908160001a905350600101620024fd565b50509392505050565b805182516001600160a01b0390811691161462002594578051600e80546001600160a01b0319166001600160a01b039092169190911790555b80602001516001600160a01b031682602001516001600160a01b031614620025db576020810151600f80546001600160a01b0319166001600160a01b039092169190911790555b8060400151151582604001511515146200090b5760400151600f8054911515600160a01b0260ff60a01b1990921691909117905550565b6000806000606084516000141562002643575050604080516020810190915260008082529250829150819062002662565b8480602001905181019062002659919062002996565b93509350935093505b9193509193565b8282825b602081106200268e578151835260209283019290910190601f19016200266d565b905182516020929092036101000a6000190180199091169116179052505050565b6109018062002f7983390190565b6000620026d4620026ce8462002f11565b62002eed565b9050828152838383011115620026e957600080fd5b828260208301376000602084830101529392505050565b8035620005cf8162002f62565b600082601f8301126200271e578081fd5b6200100183833560208501620026bd565b803560028110620005cf57600080fd5b600060e0828403121562002751578081fd5b6200275d60e062002eed565b905081358152602082013560208201526200277b604083016200272f565b60408201526200278e6060830162002700565b6060820152620027a16080830162002700565b608082015260a082013560a082015260c08201356001600160401b03811115620027ca57600080fd5b620027d8848285016200270d565b60c08301525092915050565b600060208284031215620027f6578081fd5b8135620010018162002f62565b60006020828403121562002815578081fd5b8151620010018162002f62565b60008060006060848603121562002837578182fd5b8335620028448162002f62565b95602085013595506040909401359392505050565b6000602082840312156200286b578081fd5b8151801515811462001001578182fd5b6000602082840312156200288d578081fd5b5035919050565b600060208284031215620028a6578081fd5b5051919050565b60008060408385031215620028c0578182fd5b50508035926020909101359150565b60008060008060808587031215620028e5578081fd5b84359350602085013560ff81168114620028fd578182fd5b93969395505050506040820135916060013590565b60006020828403121562002924578081fd5b81356001600160401b038111156200293a578182fd5b62002948848285016200270d565b949350505050565b6000806040838503121562002963578182fd5b82356001600160401b0381111562002979578283fd5b62002987858286016200270d565b95602094909401359450505050565b60008060008060808587031215620029ac578182fd5b845160088110620029bb578283fd5b80945050602085015192506040850151915060608501516001600160401b03811115620029e6578182fd5b8501601f81018713620029f7578182fd5b805162002a08620026ce8262002f11565b81815288602083850101111562002a1d578384fd5b62002a3082602083016020860162002f33565b9598949750929550505050565b60006020828403121562002a4f578081fd5b81356001600160401b0381111562002a65578182fd5b8201601f8101841362002a76578182fd5b6200294884823560208401620026bd565b6000806040838503121562002a9a578182fd5b82356001600160401b0381111562002ab0578283fd5b62002abe858286016200273f565b925050602083013562002ad18162002f62565b809150509250929050565b60008060006060848603121562002af1578081fd5b83356001600160401b0381111562002b07578182fd5b62002b15868287016200273f565b935050602084013562002b288162002f62565b9150604084013562002b3a8162002f62565b809150509250925092565b60008060006060848603121562002b5a578081fd5b83359250602084013562002b6e8162002f62565b915060408401356001600160401b0381111562002b89578182fd5b62002b97868287016200270d565b9150509250925092565b60008060006060848603121562002bb6578081fd5b8335925060208401356001600160401b0381111562002bd3578182fd5b62002be1868287016200270d565b925050604084013562002b3a8162002f62565b6000815180845262002c0e81602086016020860162002f33565b601f01601f19169290920160200192915050565b6008811062002c2d57fe5b9052565b60609190911b6bffffffffffffffffffffffff1916815260140190565b6001600160f81b031994909416845260609290921b6bffffffffffffffffffffffff191660018401526015830152603582015260550190565b6000825162002c9b81846020870162002f33565b9190910192915050565b6000835162002cb981846020880162002f33565b83519083019062002ccf81836020880162002f33565b01949350505050565b90815260200190565b6001600160a01b0391909116815260200190565b6001600160a01b039384168152919092166020820152604081019190915260600190565b6001600160a01b03929092168252602082015260400190565b6001600160a01b039390931683526020830191909152604082015260600190565b6001600160a01b0383168152604060208201819052600090620029489083018462002bf4565b600083151582526040602083015262002948604083018462002bf4565b93845260ff9290921660208401526040830152606082015260800190565b60006020825262001001602083018462002bf4565b602081016002831062002dd857fe5b91905290565b600062002dec828762002c22565b60ff8516602083015260ff841660408301526080606083015262002e14608083018462002bf4565b9695505050505050565b600062002e2c828762002c22565b8460208301528360408301526080606083015262002e14608083018462002bf4565b60208082526046908201527f4f6e6c792061757468656e746963617465642061646472657373657320696e2060408201527f6f766d53746174654d616e616765722063616e2063616c6c20746869732066756060820152653731ba34b7b760d11b608082015260a00190565b60008482526060602083015262002ed5606083018562002bf4565b905060018060a01b0383166040830152949350505050565b6040518181016001600160401b038111828210171562002f0957fe5b604052919050565b60006001600160401b0382111562002f2557fe5b50601f01601f191660200190565b60005b8381101562002f5057818101518382015260200162002f36565b838111156200086f5750506000910152565b6001600160a01b0381168114620005f057600080fdfe608060405234801561001057600080fd5b506040516109013803806109018339818101604052602081101561003357600080fd5b505161003e81610044565b506101d9565b61008d7fdeaddeaddeaddeaddeaddeaddeaddeaddeaddeaddeaddeaddeaddeaddeaddead60001b61007e8361009060201b6103ca1760201c565b61009c60201b6103d61760201c565b50565b6001600160a01b031690565b604080516024810184905260448082018490528251808303909101815260649091019091526020810180516001600160e01b03908116628af59360e61b179091526100e891906100ed16565b505050565b60606100f95a836100ff565b92915050565b60606000339050600080826001600160a01b031686866040518082805190602001908083835b602083106101445780518252601f199092019160209182019101610125565b6001836020036101000a03801982511681845116808217855250505050505090500191505060006040518083038160008787f1925050503d80600081146101a7576040519150601f19603f3d011682016040523d82523d6000602084013e6101ac565b606091505b509092509050816101bf57805160208201fd5b8051600114156101cf5760016000f35b92506100f9915050565b610719806101e86000396000f3fe608060405234801561001057600080fd5b50600436106100365760003560e01c80630900f010146100a1578063aaf10f42146100c9575b6000806100825a6100456100ed565b6000368080601f01602080910402602001604051908101604052809392919081815260200183838082843760009201919091525061012592505050565b91509150811561009457805160208201f35b61009d816102c8565b5050005b6100c7600480360360208110156100b757600080fd5b50356001600160a01b031661037a565b005b6100d16100ed565b604080516001600160a01b039092168252519081900360200190f35b600061012061011b7fdeaddeaddeaddeaddeaddeaddeaddeaddeaddeaddeaddeaddeaddeaddeaddead610422565b610488565b905090565b6000606060006101ed86868660405160240180848152602001836001600160a01b0316815260200180602001828103825283818151815260200191508051906020019080838360005b8381101561018657818101518382015260200161016e565b50505050905090810190601f1680156101b35780820380516001836020036101000a031916815260200191505b5060408051601f198184030181529190526020810180516001600160e01b03166001620631bb60e21b0319179052945061048b9350505050565b905080806020019051604081101561020457600080fd5b81516020830180516040519294929383019291908464010000000082111561022b57600080fd5b90830190602082018581111561024057600080fd5b825164010000000081118282018810171561025a57600080fd5b82525081516020918201929091019080838360005b8381101561028757818101518382015260200161026f565b50505050905090810190601f1680156102b45780820380516001836020036101000a031916815260200191505b506040525050509250925050935093915050565b6103766102d48261049d565b6040516024018080602001828103825283818151815260200191508051906020019080838360005b838110156103145781810151838201526020016102fc565b50505050905090810190601f1680156103415780820380516001836020036101000a031916815260200191505b5060408051601f198184030181529190526020810180516001600160e01b0316632a2a7adb60e01b179052925061048b915050565b5050565b6103be6103856104e0565b6001600160a01b0316610396610536565b6001600160a01b0316146040518060600160405280603281526020016106db6032913961056d565b6103c78161057b565b50565b6001600160a01b031690565b604080516024810184905260448082018490528251808303909101815260649091019091526020810180516001600160e01b0316628af59360e61b17905261041d9061048b565b505050565b6040805160248082018490528251808303909101815260449091019091526020810180516001600160e01b03166303daa95960e01b17905260009081906104689061048b565b905080806020019051602081101561047f57600080fd5b50519392505050565b90565b60606104975a836105ad565b92915050565b6060816040516024016104b09190610687565b60408051601f198184030181529190526020810180516001600160e01b031662461bcd60e51b1790529050919050565b6040805160048152602481019091526020810180516001600160e01b0316631cd4241960e21b17905260009081906105179061048b565b905080806020019051602081101561052e57600080fd5b505191505090565b6040805160048152602481019091526020810180516001600160e01b031663996d79a560e01b17905260009081906105179061048b565b8161037657610376816102c8565b6103c77fdeaddeaddeaddeaddeaddeaddeaddeaddeaddeaddeaddeaddeaddeaddeaddead6105a8836103ca565b6103d6565b60606000339050600080826001600160a01b031686866040518082805190602001908083835b602083106105f25780518252601f1990920191602091820191016105d3565b6001836020036101000a03801982511681845116808217855250505050505090500191505060006040518083038160008787f1925050503d8060008114610655576040519150601f19603f3d011682016040523d82523d6000602084013e61065a565b606091505b5090925090508161066d57805160208201fd5b80516001141561067d5760016000f35b9250610497915050565b6000602080835283518082850152825b818110156106b357858101830151858201604001528201610697565b818111156106c45783604083870101525b50601f01601f191692909201604001939250505056fe454f41732063616e206f6e6c792075706772616465207468656972206f776e20454f4120696d706c656d656e746174696f6ea164736f6c6343000706000a5369676e61747572652070726f766964656420666f7220454f4120636f6e7472616374206372656174696f6e20697320696e76616c69642e436f6e7472616374206372656174696f6e20636f646520636f6e7461696e7320756e73616665206f70636f6465732e2044696420796f75207573652074686520726967687420636f6d70696c6572206f72207061737320616e20756e7361666520636f6e7374727563746f7220617267756d656e743f4120636f6e74726163742068617320616c7265616479206265656e206465706c6f79656420746f20746869732061646472657373436f6e7374727563746f7220617474656d7074656420746f206465706c6f7920756e736166652062797465636f64652ea164736f6c6343000706000a",
  "devdoc": {
    "details": "The Execution Manager (EM) is the core of our OVM implementation, and provides a sandboxed environment allowing us to execute OVM transactions deterministically on either Layer 1 or Layer 2. The EM's run() function is the first function called during the execution of any transaction on L2. For each context-dependent EVM operation the EM has a function which implements a corresponding OVM operation, which will read state from the State Manager contract. The EM relies on the Safety Checker to verify that code deployed to Layer 2 does not contain any context-dependent operations. Compiler used: solc Runtime target: EVM",
    "kind": "dev",
    "methods": {
      "constructor": {
        "params": {
          "_libAddressManager": "Address of the Address Manager."
        }
      },
      "ovmADDRESS()": {
        "returns": {
          "_ADDRESS": "Active ADDRESS within the current message context."
        }
      },
      "ovmCALL(uint256,address,bytes)": {
        "params": {
          "_address": "Address of the contract to call.",
          "_calldata": "Data to send along with the call.",
          "_gasLimit": "Amount of gas to be passed into this call."
        },
        "returns": {
          "_returndata": "Data returned by the call.",
          "_success": "Whether or not the call returned (rather than reverted)."
        }
      },
      "ovmCALLER()": {
        "returns": {
          "_CALLER": "Address of the CALLER within the current message context."
        }
      },
      "ovmCHAINID()": {
        "returns": {
          "_CHAINID": "Value of the chain's CHAINID within the global context."
        }
      },
      "ovmCREATE(bytes)": {
        "params": {
          "_bytecode": "Code to be used to CREATE a new contract."
        },
        "returns": {
          "_0": "Address of the created contract.",
          "_1": "Revert data, if and only if the creation threw an exception."
        }
      },
      "ovmCREATE2(bytes,bytes32)": {
        "params": {
          "_bytecode": "Code to be used to CREATE2 a new contract.",
          "_salt": "Value used to determine the contract's address."
        },
        "returns": {
          "_0": "Address of the created contract.",
          "_1": "Revert data, if and only if the creation threw an exception."
        }
      },
      "ovmCREATEEOA(bytes32,uint8,bytes32,bytes32)": {
        "details": "Essentially functions like ovmCREATE or ovmCREATE2, but we can bypass a lot of checks      because the contract we're creating is trusted (no need to do safety checking or to      handle unexpected reverts). Doesn't need to return an address because the address is      assumed to be the user's actual address.",
        "params": {
          "_messageHash": "Hash of a message signed by some user, for verification.",
          "_r": "Signature `r` parameter.",
          "_s": "Signature `s` parameter.",
          "_v": "Signature `v` parameter."
        }
      },
      "ovmDELEGATECALL(uint256,address,bytes)": {
        "params": {
          "_address": "Address of the contract to call.",
          "_calldata": "Data to send along with the call.",
          "_gasLimit": "Amount of gas to be passed into this call."
        },
        "returns": {
          "_returndata": "Data returned by the call.",
          "_success": "Whether or not the call returned (rather than reverted)."
        }
      },
      "ovmEXTCODECOPY(address,uint256,uint256)": {
        "params": {
          "_contract": "Address of the contract to copy code from.",
          "_length": "Total number of bytes to copy from the contract's code.",
          "_offset": "Offset in bytes from the start of contract code to copy beyond."
        },
        "returns": {
          "_code": "Bytes of code copied from the requested contract."
        }
      },
      "ovmEXTCODEHASH(address)": {
        "params": {
          "_contract": "Address of the contract to query the hash of."
        },
        "returns": {
          "_EXTCODEHASH": "Hash of the requested contract."
        }
      },
      "ovmEXTCODESIZE(address)": {
        "params": {
          "_contract": "Address of the contract to query the size of."
        },
        "returns": {
          "_EXTCODESIZE": "Size of the requested contract in bytes."
        }
      },
      "ovmGASLIMIT()": {
        "returns": {
          "_GASLIMIT": "Value of the block's GASLIMIT within the transaction context."
        }
      },
      "ovmGETNONCE()": {
        "returns": {
          "_nonce": "Nonce of the current contract."
        }
      },
      "ovmL1QUEUEORIGIN()": {
        "returns": {
          "_queueOrigin": "Address of the ovmL1QUEUEORIGIN within the current message context."
        }
      },
      "ovmL1TXORIGIN()": {
        "returns": {
          "_l1TxOrigin": "Address of the account which sent the tx into L2 from L1."
        }
      },
      "ovmNUMBER()": {
        "returns": {
          "_NUMBER": "Value of the NUMBER within the transaction context."
        }
      },
      "ovmREVERT(bytes)": {
        "params": {
          "_data": "Bytes data to pass along with the REVERT."
        }
      },
      "ovmSLOAD(bytes32)": {
        "params": {
          "_key": "32 byte key of the storage slot to load."
        },
        "returns": {
          "_value": "32 byte value of the requested storage slot."
        }
      },
      "ovmSSTORE(bytes32,bytes32)": {
        "params": {
          "_key": "32 byte key of the storage slot to set.",
          "_value": "32 byte value for the storage slot."
        }
      },
      "ovmSTATICCALL(uint256,address,bytes)": {
        "params": {
          "_address": "Address of the contract to call.",
          "_calldata": "Data to send along with the call.",
          "_gasLimit": "Amount of gas to be passed into this call."
        },
        "returns": {
          "_returndata": "Data returned by the call.",
          "_success": "Whether or not the call returned (rather than reverted)."
        }
      },
      "ovmTIMESTAMP()": {
        "returns": {
          "_TIMESTAMP": "Value of the TIMESTAMP within the transaction context."
        }
      },
      "run((uint256,uint256,uint8,address,address,uint256,bytes),address)": {
        "params": {
          "_ovmStateManager": "iOVM_StateManager implementation providing account state.",
          "_transaction": "Transaction data to be executed."
        }
      },
      "safeCREATE(uint256,bytes,address)": {
        "params": {
          "_address": "OVM address being deployed to.",
          "_creationCode": "Code to pass into CREATE for deployment.",
          "_gasLimit": "Amount of gas to be passed into this creation."
        }
      },
      "simulateMessage((uint256,uint256,uint8,address,address,uint256,bytes),address,address)": {
        "params": {
          "_from": "the OVM account the simulated call should be from.",
          "_transaction": "the message transaction to simulate."
        }
      }
    },
    "title": "OVM_ExecutionManager",
    "version": 1
  },
  "userdoc": {
    "kind": "user",
    "methods": {
      "ovmADDRESS()": {
        "notice": "Overrides ADDRESS."
      },
      "ovmCALL(uint256,address,bytes)": {
        "notice": "Overrides CALL."
      },
      "ovmCALLER()": {
        "notice": "Overrides CALLER."
      },
      "ovmCHAINID()": {
        "notice": "Overrides CHAINID."
      },
      "ovmCREATE(bytes)": {
        "notice": "Overrides CREATE."
      },
      "ovmCREATE2(bytes,bytes32)": {
        "notice": "Overrides CREATE2."
      },
      "ovmCREATEEOA(bytes32,uint8,bytes32,bytes32)": {
        "notice": "Creates a new EOA contract account, for account abstraction."
      },
      "ovmDELEGATECALL(uint256,address,bytes)": {
        "notice": "Overrides DELEGATECALL."
      },
      "ovmEXTCODECOPY(address,uint256,uint256)": {
        "notice": "Overrides EXTCODECOPY."
      },
      "ovmEXTCODEHASH(address)": {
        "notice": "Overrides EXTCODEHASH."
      },
      "ovmEXTCODESIZE(address)": {
        "notice": "Overrides EXTCODESIZE."
      },
      "ovmGASLIMIT()": {
        "notice": "Overrides GASLIMIT."
      },
      "ovmGETNONCE()": {
        "notice": "Retrieves the nonce of the current ovmADDRESS."
      },
      "ovmINCREMENTNONCE()": {
        "notice": "Bumps the nonce of the current ovmADDRESS by one."
      },
      "ovmL1QUEUEORIGIN()": {
        "notice": "Specifies from which L1 rollup queue this transaction originated from."
      },
      "ovmL1TXORIGIN()": {
        "notice": "Specifies which L1 account, if any, sent this transaction by calling enqueue()."
      },
      "ovmNUMBER()": {
        "notice": "Overrides NUMBER."
      },
      "ovmREVERT(bytes)": {
        "notice": "Overrides REVERT."
      },
      "ovmSLOAD(bytes32)": {
        "notice": "Overrides SLOAD."
      },
      "ovmSSTORE(bytes32,bytes32)": {
        "notice": "Overrides SSTORE."
      },
      "ovmSTATICCALL(uint256,address,bytes)": {
        "notice": "Overrides STATICCALL."
      },
      "ovmTIMESTAMP()": {
        "notice": "Overrides TIMESTAMP."
      },
      "run((uint256,uint256,uint8,address,address,uint256,bytes),address)": {
        "notice": "Starts the execution of a transaction via the OVM_ExecutionManager."
      },
      "safeCREATE(uint256,bytes,address)": {
        "notice": "Handles the creation-specific safety measures required for OVM contract deployment. This function sanitizes the return types for creation messages to match calls (bool, bytes), by being an external function which the EM can call, that mimics the success/fail case of the CREATE. This allows for consistent handling of both types of messages in _handleExternalMessage(). Having this step occur as a separate call frame also allows us to easily revert the  contract deployment in the event that the code is unsafe. "
      },
      "simulateMessage((uint256,uint256,uint8,address,address,uint256,bytes),address,address)": {
        "notice": "Unreachable helper function for simulating eth_calls with an OVM message context. This function will throw an exception in all cases other than when used as a custom entrypoint in L2 Geth to simulate eth_call."
      }
    },
    "version": 1
  },
  "storageLayout": {
    "storage": [
      {
        "astId": 12554,
        "contract": "contracts/optimistic-ethereum/OVM/execution/OVM_ExecutionManager.sol:OVM_ExecutionManager",
        "label": "libAddressManager",
        "offset": 0,
        "slot": "0",
        "type": "t_contract(Lib_AddressManager)12547"
      },
      {
        "astId": 4494,
        "contract": "contracts/optimistic-ethereum/OVM/execution/OVM_ExecutionManager.sol:OVM_ExecutionManager",
        "label": "ovmSafetyChecker",
        "offset": 0,
        "slot": "1",
        "type": "t_contract(iOVM_SafetyChecker)11062"
      },
      {
        "astId": 4496,
        "contract": "contracts/optimistic-ethereum/OVM/execution/OVM_ExecutionManager.sol:OVM_ExecutionManager",
        "label": "ovmStateManager",
        "offset": 0,
        "slot": "2",
        "type": "t_contract(iOVM_StateManager)11294"
      },
      {
        "astId": 4498,
        "contract": "contracts/optimistic-ethereum/OVM/execution/OVM_ExecutionManager.sol:OVM_ExecutionManager",
        "label": "gasMeterConfig",
        "offset": 0,
        "slot": "3",
        "type": "t_struct(GasMeterConfig)10847_storage"
      },
      {
        "astId": 4500,
        "contract": "contracts/optimistic-ethereum/OVM/execution/OVM_ExecutionManager.sol:OVM_ExecutionManager",
        "label": "globalContext",
        "offset": 0,
        "slot": "7",
        "type": "t_struct(GlobalContext)10850_storage"
      },
      {
        "astId": 4502,
        "contract": "contracts/optimistic-ethereum/OVM/execution/OVM_ExecutionManager.sol:OVM_ExecutionManager",
        "label": "transactionContext",
        "offset": 0,
        "slot": "8",
        "type": "t_struct(TransactionContext)10863_storage"
      },
      {
        "astId": 4504,
        "contract": "contracts/optimistic-ethereum/OVM/execution/OVM_ExecutionManager.sol:OVM_ExecutionManager",
        "label": "messageContext",
        "offset": 0,
        "slot": "14",
        "type": "t_struct(MessageContext)10873_storage"
      },
      {
        "astId": 4506,
        "contract": "contracts/optimistic-ethereum/OVM/execution/OVM_ExecutionManager.sol:OVM_ExecutionManager",
        "label": "transactionRecord",
        "offset": 0,
        "slot": "16",
        "type": "t_struct(TransactionRecord)10866_storage"
      },
      {
        "astId": 4508,
        "contract": "contracts/optimistic-ethereum/OVM/execution/OVM_ExecutionManager.sol:OVM_ExecutionManager",
        "label": "messageRecord",
        "offset": 0,
        "slot": "17",
        "type": "t_struct(MessageRecord)10876_storage"
      }
    ],
    "types": {
      "t_address": {
        "encoding": "inplace",
        "label": "address",
        "numberOfBytes": "20"
      },
      "t_bool": {
        "encoding": "inplace",
        "label": "bool",
        "numberOfBytes": "1"
      },
      "t_contract(Lib_AddressManager)12547": {
        "encoding": "inplace",
        "label": "contract Lib_AddressManager",
        "numberOfBytes": "20"
      },
      "t_contract(iOVM_SafetyChecker)11062": {
        "encoding": "inplace",
        "label": "contract iOVM_SafetyChecker",
        "numberOfBytes": "20"
      },
      "t_contract(iOVM_StateManager)11294": {
        "encoding": "inplace",
        "label": "contract iOVM_StateManager",
        "numberOfBytes": "20"
      },
      "t_enum(QueueOrigin)11860": {
        "encoding": "inplace",
        "label": "enum Lib_OVMCodec.QueueOrigin",
        "numberOfBytes": "1"
      },
      "t_struct(GasMeterConfig)10847_storage": {
        "encoding": "inplace",
        "label": "struct iOVM_ExecutionManager.GasMeterConfig",
        "members": [
          {
            "astId": 10840,
            "contract": "contracts/optimistic-ethereum/OVM/execution/OVM_ExecutionManager.sol:OVM_ExecutionManager",
            "label": "minTransactionGasLimit",
            "offset": 0,
            "slot": "0",
            "type": "t_uint256"
          },
          {
            "astId": 10842,
            "contract": "contracts/optimistic-ethereum/OVM/execution/OVM_ExecutionManager.sol:OVM_ExecutionManager",
            "label": "maxTransactionGasLimit",
            "offset": 0,
            "slot": "1",
            "type": "t_uint256"
          },
          {
            "astId": 10844,
            "contract": "contracts/optimistic-ethereum/OVM/execution/OVM_ExecutionManager.sol:OVM_ExecutionManager",
            "label": "maxGasPerQueuePerEpoch",
            "offset": 0,
            "slot": "2",
            "type": "t_uint256"
          },
          {
            "astId": 10846,
            "contract": "contracts/optimistic-ethereum/OVM/execution/OVM_ExecutionManager.sol:OVM_ExecutionManager",
            "label": "secondsPerEpoch",
            "offset": 0,
            "slot": "3",
            "type": "t_uint256"
          }
        ],
        "numberOfBytes": "128"
      },
      "t_struct(GlobalContext)10850_storage": {
        "encoding": "inplace",
        "label": "struct iOVM_ExecutionManager.GlobalContext",
        "members": [
          {
            "astId": 10849,
            "contract": "contracts/optimistic-ethereum/OVM/execution/OVM_ExecutionManager.sol:OVM_ExecutionManager",
            "label": "ovmCHAINID",
            "offset": 0,
            "slot": "0",
            "type": "t_uint256"
          }
        ],
        "numberOfBytes": "32"
      },
      "t_struct(MessageContext)10873_storage": {
        "encoding": "inplace",
        "label": "struct iOVM_ExecutionManager.MessageContext",
        "members": [
          {
            "astId": 10868,
            "contract": "contracts/optimistic-ethereum/OVM/execution/OVM_ExecutionManager.sol:OVM_ExecutionManager",
            "label": "ovmCALLER",
            "offset": 0,
            "slot": "0",
            "type": "t_address"
          },
          {
            "astId": 10870,
            "contract": "contracts/optimistic-ethereum/OVM/execution/OVM_ExecutionManager.sol:OVM_ExecutionManager",
            "label": "ovmADDRESS",
            "offset": 0,
            "slot": "1",
            "type": "t_address"
          },
          {
            "astId": 10872,
            "contract": "contracts/optimistic-ethereum/OVM/execution/OVM_ExecutionManager.sol:OVM_ExecutionManager",
            "label": "isStatic",
            "offset": 20,
            "slot": "1",
            "type": "t_bool"
          }
        ],
        "numberOfBytes": "64"
      },
      "t_struct(MessageRecord)10876_storage": {
        "encoding": "inplace",
        "label": "struct iOVM_ExecutionManager.MessageRecord",
        "members": [
          {
            "astId": 10875,
            "contract": "contracts/optimistic-ethereum/OVM/execution/OVM_ExecutionManager.sol:OVM_ExecutionManager",
            "label": "nuisanceGasLeft",
            "offset": 0,
            "slot": "0",
            "type": "t_uint256"
          }
        ],
        "numberOfBytes": "32"
      },
      "t_struct(TransactionContext)10863_storage": {
        "encoding": "inplace",
        "label": "struct iOVM_ExecutionManager.TransactionContext",
        "members": [
          {
            "astId": 10852,
            "contract": "contracts/optimistic-ethereum/OVM/execution/OVM_ExecutionManager.sol:OVM_ExecutionManager",
            "label": "ovmL1QUEUEORIGIN",
            "offset": 0,
            "slot": "0",
            "type": "t_enum(QueueOrigin)11860"
          },
          {
            "astId": 10854,
            "contract": "contracts/optimistic-ethereum/OVM/execution/OVM_ExecutionManager.sol:OVM_ExecutionManager",
            "label": "ovmTIMESTAMP",
            "offset": 0,
            "slot": "1",
            "type": "t_uint256"
          },
          {
            "astId": 10856,
            "contract": "contracts/optimistic-ethereum/OVM/execution/OVM_ExecutionManager.sol:OVM_ExecutionManager",
            "label": "ovmNUMBER",
            "offset": 0,
            "slot": "2",
            "type": "t_uint256"
          },
          {
            "astId": 10858,
            "contract": "contracts/optimistic-ethereum/OVM/execution/OVM_ExecutionManager.sol:OVM_ExecutionManager",
            "label": "ovmGASLIMIT",
            "offset": 0,
            "slot": "3",
            "type": "t_uint256"
          },
          {
            "astId": 10860,
            "contract": "contracts/optimistic-ethereum/OVM/execution/OVM_ExecutionManager.sol:OVM_ExecutionManager",
            "label": "ovmTXGASLIMIT",
            "offset": 0,
            "slot": "4",
            "type": "t_uint256"
          },
          {
            "astId": 10862,
            "contract": "contracts/optimistic-ethereum/OVM/execution/OVM_ExecutionManager.sol:OVM_ExecutionManager",
            "label": "ovmL1TXORIGIN",
            "offset": 0,
            "slot": "5",
            "type": "t_address"
          }
        ],
        "numberOfBytes": "192"
      },
      "t_struct(TransactionRecord)10866_storage": {
        "encoding": "inplace",
        "label": "struct iOVM_ExecutionManager.TransactionRecord",
        "members": [
          {
            "astId": 10865,
            "contract": "contracts/optimistic-ethereum/OVM/execution/OVM_ExecutionManager.sol:OVM_ExecutionManager",
            "label": "ovmGasRefund",
            "offset": 0,
            "slot": "0",
            "type": "t_uint256"
          }
        ],
        "numberOfBytes": "32"
      },
      "t_uint256": {
        "encoding": "inplace",
        "label": "uint256",
        "numberOfBytes": "32"
      }
    }
  }
}