{
  "address": "0x52ec2F3d7C5977A8E558C8D9C6000B615098E8fC",
  "abi": [
    {
      "inputs": [
        {
          "internalType": "uint256",
          "name": "_minDepositAmount",
          "type": "uint256"
        },
        {
          "internalType": "uint256",
          "name": "_maxDepositAmount",
          "type": "uint256"
        },
        {
          "internalType": "uint256",
          "name": "_maxBalance",
          "type": "uint256"
        }
      ],
      "stateMutability": "nonpayable",
      "type": "constructor"
    },
    {
      "anonymous": false,
      "inputs": [
        {
          "indexed": true,
          "internalType": "address",
          "name": "owner",
          "type": "address"
        },
        {
          "indexed": false,
          "internalType": "uint256",
          "name": "balance",
          "type": "uint256"
        }
      ],
      "name": "BalanceWithdrawn",
      "type": "event"
    },
    {
      "anonymous": false,
      "inputs": [
        {
          "indexed": true,
          "internalType": "uint256",
          "name": "depositId",
          "type": "uint256"
        },
        {
          "indexed": true,
          "internalType": "address",
          "name": "emitter",
          "type": "address"
        },
        {
          "indexed": true,
          "internalType": "uint256",
          "name": "amount",
          "type": "uint256"
        }
      ],
      "name": "EtherReceived",
      "type": "event"
    },
    {
      "anonymous": false,
      "inputs": [
        {
          "indexed": false,
          "internalType": "uint256",
          "name": "previousBalance",
          "type": "uint256"
        },
        {
          "indexed": false,
          "internalType": "uint256",
          "name": "newBalance",
          "type": "uint256"
        }
      ],
      "name": "MaxBalanceSet",
      "type": "event"
    },
    {
      "anonymous": false,
      "inputs": [
        {
          "indexed": false,
          "internalType": "uint256",
          "name": "previousAmount",
          "type": "uint256"
        },
        {
          "indexed": false,
          "internalType": "uint256",
          "name": "newAmount",
          "type": "uint256"
        }
      ],
      "name": "MaxDepositAmountSet",
      "type": "event"
    },
    {
      "anonymous": false,
      "inputs": [
        {
          "indexed": false,
          "internalType": "uint256",
          "name": "previousAmount",
          "type": "uint256"
        },
        {
          "indexed": false,
          "internalType": "uint256",
          "name": "newAmount",
          "type": "uint256"
        }
      ],
      "name": "MinDepositAmountSet",
      "type": "event"
    },
    {
      "anonymous": false,
      "inputs": [
        {
          "indexed": true,
          "internalType": "address",
          "name": "previousOwner",
          "type": "address"
        },
        {
          "indexed": true,
          "internalType": "address",
          "name": "newOwner",
          "type": "address"
        }
      ],
      "name": "OwnershipTransferred",
      "type": "event"
    },
    {
      "inputs": [],
      "name": "maxBalance",
      "outputs": [
        {
          "internalType": "uint256",
          "name": "",
          "type": "uint256"
        }
      ],
      "stateMutability": "view",
      "type": "function"
    },
    {
      "inputs": [],
      "name": "maxDepositAmount",
      "outputs": [
        {
          "internalType": "uint256",
          "name": "",
          "type": "uint256"
        }
      ],
      "stateMutability": "view",
      "type": "function"
    },
    {
      "inputs": [],
      "name": "minDepositAmount",
      "outputs": [
        {
          "internalType": "uint256",
          "name": "",
          "type": "uint256"
        }
      ],
      "stateMutability": "view",
      "type": "function"
    },
    {
      "inputs": [],
      "name": "owner",
      "outputs": [
        {
          "internalType": "address",
          "name": "",
          "type": "address"
        }
      ],
      "stateMutability": "view",
      "type": "function"
    },
    {
      "inputs": [],
      "name": "renounceOwnership",
      "outputs": [],
      "stateMutability": "nonpayable",
      "type": "function"
    },
    {
      "inputs": [
        {
          "internalType": "uint256",
          "name": "_maxDepositAmount",
          "type": "uint256"
        }
      ],
      "name": "setMaxAmount",
      "outputs": [],
      "stateMutability": "nonpayable",
      "type": "function"
    },
    {
      "inputs": [
        {
          "internalType": "uint256",
          "name": "_maxBalance",
          "type": "uint256"
        }
      ],
      "name": "setMaxBalance",
      "outputs": [],
      "stateMutability": "nonpayable",
      "type": "function"
    },
    {
      "inputs": [
        {
          "internalType": "uint256",
          "name": "_minDepositAmount",
          "type": "uint256"
        }
      ],
      "name": "setMinAmount",
      "outputs": [],
      "stateMutability": "nonpayable",
      "type": "function"
    },
    {
      "inputs": [],
      "name": "totalDeposits",
      "outputs": [
        {
          "internalType": "uint256",
          "name": "",
          "type": "uint256"
        }
      ],
      "stateMutability": "view",
      "type": "function"
    },
    {
      "inputs": [
        {
          "internalType": "address",
          "name": "newOwner",
          "type": "address"
        }
      ],
      "name": "transferOwnership",
      "outputs": [],
      "stateMutability": "nonpayable",
      "type": "function"
    },
    {
      "inputs": [],
      "name": "withdrawBalance",
      "outputs": [],
      "stateMutability": "nonpayable",
      "type": "function"
    },
    {
      "stateMutability": "payable",
      "type": "receive"
    }
  ],
  "transactionHash": "0xb63a08a31db0fb45bf48836d0941dd30b094870905f838ee3c3ff237374edeaf",
  "args": [
    "100000000000000",
    "1000000000000000000",
    "1000000000000000000000"
  ],
  "solcInputHash": "ad04ab9565e42a9370aa7f055041028d",
  "bytecode": "0x608060405234801561001057600080fd5b50604051610b4a380380610b4a83398101604081905261002f91610153565b61003833610103565b6001839055600282905560038190556000600481905560408051918252602082018590527f65779d3ca560e9bdec52d08ed75431a84df87cb7796f0e51965f6efc0f556c0f910160405180910390a16040805160008152602081018490527fb1e6cc560df1786578fd4d1fe6e046f089a0c3be401e999b51a5112437911797910160405180910390a16040805160008152602081018390527f185c6391e7218e85de8a9346fc72024a0f88e1f04c186e6351230b93976ad50b910160405180910390a1505050610181565b600080546001600160a01b038381166001600160a01b0319831681178455604051919092169283917f8be0079c531659141344cd1fd0a4f28419497f9722a3daafe3b4186f6b6457e09190a35050565b60008060006060848603121561016857600080fd5b8351925060208401519150604084015190509250925092565b6109ba806101906000396000f3fe6080604052600436106100c05760003560e01c80637d882097116100745780638ed832711161004e5780638ed83271146103445780639d51d9b71461035a578063f2fde38b1461037a57600080fd5b80637d882097146102d9578063897b0637146102ef5780638da5cb5b1461030f57600080fd5b8063645006ca116100a5578063645006ca14610285578063715018a6146102ae57806373ad468a146102c357600080fd5b80634fe47f701461024e5780635fd8c7101461027057600080fd5b3661024957600154341015610136576040517f08c379a000000000000000000000000000000000000000000000000000000000815260206004820152601b60248201527f4465706f73697420616d6f756e7420697320746f6f20736d616c6c000000000060448201526064015b60405180910390fd5b6002543411156101a2576040517f08c379a000000000000000000000000000000000000000000000000000000000815260206004820152601960248201527f4465706f73697420616d6f756e7420697320746f6f2062696700000000000000604482015260640161012d565b60035447111561020e576040517f08c379a000000000000000000000000000000000000000000000000000000000815260206004820152601d60248201527f436f6e7472616374206d61782062616c616e6365206578636565646564000000604482015260640161012d565b600454604051349133917f2d27851832fcac28a0d4af1344f01fed7ffcfd15171c14c564a0c42aa57ae5c090600090a4600480546001019055005b600080fd5b34801561025a57600080fd5b5061026e61026936600461092e565b61039a565b005b34801561027c57600080fd5b5061026e61045c565b34801561029157600080fd5b5061029b60015481565b6040519081526020015b60405180910390f35b3480156102ba57600080fd5b5061026e610578565b3480156102cf57600080fd5b5061029b60035481565b3480156102e557600080fd5b5061029b60045481565b3480156102fb57600080fd5b5061026e61030a36600461092e565b610605565b34801561031b57600080fd5b5060005460405173ffffffffffffffffffffffffffffffffffffffff90911681526020016102a5565b34801561035057600080fd5b5061029b60025481565b34801561036657600080fd5b5061026e61037536600461092e565b6106c7565b34801561038657600080fd5b5061026e610395366004610947565b610789565b60005473ffffffffffffffffffffffffffffffffffffffff16331461041b576040517f08c379a000000000000000000000000000000000000000000000000000000000815260206004820181905260248201527f4f776e61626c653a2063616c6c6572206973206e6f7420746865206f776e6572604482015260640161012d565b60025460408051918252602082018390527fb1e6cc560df1786578fd4d1fe6e046f089a0c3be401e999b51a5112437911797910160405180910390a1600255565b60005473ffffffffffffffffffffffffffffffffffffffff1633146104dd576040517f08c379a000000000000000000000000000000000000000000000000000000000815260206004820181905260248201527f4f776e61626c653a2063616c6c6572206973206e6f7420746865206f776e6572604482015260640161012d565b6000546040805147808252915173ffffffffffffffffffffffffffffffffffffffff9093169283917fddc398b321237a8d40ac914388309c2f52a08c134e4dc4ce61e32f57cb7d80f1919081900360200190a260405173ffffffffffffffffffffffffffffffffffffffff83169082156108fc029083906000818181858888f19350505050158015610573573d6000803e3d6000fd5b505050565b60005473ffffffffffffffffffffffffffffffffffffffff1633146105f9576040517f08c379a000000000000000000000000000000000000000000000000000000000815260206004820181905260248201527f4f776e61626c653a2063616c6c6572206973206e6f7420746865206f776e6572604482015260640161012d565b61060360006108b9565b565b60005473ffffffffffffffffffffffffffffffffffffffff163314610686576040517f08c379a000000000000000000000000000000000000000000000000000000000815260206004820181905260248201527f4f776e61626c653a2063616c6c6572206973206e6f7420746865206f776e6572604482015260640161012d565b60015460408051918252602082018390527f65779d3ca560e9bdec52d08ed75431a84df87cb7796f0e51965f6efc0f556c0f910160405180910390a1600155565b60005473ffffffffffffffffffffffffffffffffffffffff163314610748576040517f08c379a000000000000000000000000000000000000000000000000000000000815260206004820181905260248201527f4f776e61626c653a2063616c6c6572206973206e6f7420746865206f776e6572604482015260640161012d565b60035460408051918252602082018390527f185c6391e7218e85de8a9346fc72024a0f88e1f04c186e6351230b93976ad50b910160405180910390a1600355565b60005473ffffffffffffffffffffffffffffffffffffffff16331461080a576040517f08c379a000000000000000000000000000000000000000000000000000000000815260206004820181905260248201527f4f776e61626c653a2063616c6c6572206973206e6f7420746865206f776e6572604482015260640161012d565b73ffffffffffffffffffffffffffffffffffffffff81166108ad576040517f08c379a000000000000000000000000000000000000000000000000000000000815260206004820152602660248201527f4f776e61626c653a206e6577206f776e657220697320746865207a65726f206160448201527f6464726573730000000000000000000000000000000000000000000000000000606482015260840161012d565b6108b6816108b9565b50565b6000805473ffffffffffffffffffffffffffffffffffffffff8381167fffffffffffffffffffffffff0000000000000000000000000000000000000000831681178455604051919092169283917f8be0079c531659141344cd1fd0a4f28419497f9722a3daafe3b4186f6b6457e09190a35050565b60006020828403121561094057600080fd5b5035919050565b60006020828403121561095957600080fd5b813573ffffffffffffffffffffffffffffffffffffffff8116811461097d57600080fd5b939250505056fea2646970667358221220b610d8106720e33f96db31f8c5c4f9cecb50144a2cf1e4049ac0216cd47d0eff64736f6c63430008090033",
  "devdoc": {
    "events": {
      "BalanceWithdrawn(address,uint256)": {
        "params": {
          "balance": "The current contract balance paid to the owner.",
          "owner": "The current owner and recipient of the funds."
        }
      },
      "EtherReceived(uint256,address,uint256)": {
        "params": {
          "amount": "The amount deposited by the payer.",
          "depositId": "A unique sequencer number identifying the deposit.",
          "emitter": "The sending address of the payer."
        }
      },
      "MaxBalanceSet(uint256,uint256)": {
        "params": {
          "newBalance": "The new maximum contract balance.",
          "previousBalance": "The previous maximum contract balance."
        }
      },
      "MaxDepositAmountSet(uint256,uint256)": {
        "params": {
          "newAmount": "The new maximum deposit amount.",
          "previousAmount": "The previous maximum deposit amount."
        }
      },
      "MinDepositAmountSet(uint256,uint256)": {
        "params": {
          "newAmount": "The new minimum deposit amount.",
          "previousAmount": "The previous minimum deposit amount."
        }
      }
    },
    "kind": "dev",
    "methods": {
      "constructor": {
        "params": {
          "_maxBalance": "The initial maximum contract balance.",
          "_maxDepositAmount": "The initial maximum deposit amount.",
          "_minDepositAmount": "The initial minimum deposit amount."
        }
      },
      "owner()": {
        "details": "Returns the address of the current owner."
      },
      "renounceOwnership()": {
        "details": "Leaves the contract without owner. It will not be possible to call `onlyOwner` functions anymore. Can only be called by the current owner. NOTE: Renouncing ownership will leave the contract without an owner, thereby removing any functionality that is only available to the owner."
      },
      "setMaxAmount(uint256)": {
        "params": {
          "_maxDepositAmount": "The new maximum deposit amount."
        }
      },
      "setMaxBalance(uint256)": {
        "params": {
          "_maxBalance": "The new maximum contract balance."
        }
      },
      "setMinAmount(uint256)": {
        "params": {
          "_minDepositAmount": "The new minimum deposit amount."
        }
      },
      "transferOwnership(address)": {
        "details": "Transfers ownership of the contract to a new account (`newOwner`). Can only be called by the current owner."
      }
    },
    "title": "TeleportrDeposit Shout out to 0xclem for providing the inspiration for this contract: https://github.com/0xclem/teleportr/blob/main/contracts/BridgeDeposit.sol",
    "version": 1
  },
  "userdoc": {
    "events": {
      "BalanceWithdrawn(address,uint256)": {
        "notice": "Emitted any time the balance is withdrawn by the owner."
      },
      "EtherReceived(uint256,address,uint256)": {
        "notice": "Emitted any time a successful deposit is received."
      },
      "MaxBalanceSet(uint256,uint256)": {
        "notice": "Emitted any time the contract maximum balance is set."
      },
      "MaxDepositAmountSet(uint256,uint256)": {
        "notice": "Emitted any time the maximum deposit amount is set."
      },
      "MinDepositAmountSet(uint256,uint256)": {
        "notice": "Emitted any time the minimum deposit amount is set."
      }
    },
    "kind": "user",
    "methods": {
      "constructor": {
        "notice": "Initializes a new TeleportrDeposit contract."
      },
      "maxBalance()": {
        "notice": "The maximum balance the contract can hold after a receive."
      },
      "maxDepositAmount()": {
        "notice": "The maximum amount that be deposited in a receive."
      },
      "minDepositAmount()": {
        "notice": "The minimum amount that be deposited in a receive."
      },
      "setMaxAmount(uint256)": {
        "notice": "Sets the maximum amount that can be deposited in a receive."
      },
      "setMaxBalance(uint256)": {
        "notice": "Sets the maximum balance the contract can hold after a receive."
      },
      "setMinAmount(uint256)": {
        "notice": "Sets the minimum amount that can be deposited in a receive."
      },
      "totalDeposits()": {
        "notice": "The total number of successful deposits received."
      },
      "withdrawBalance()": {
        "notice": "Sends the contract's current balance to the owner."
      }
    },
    "version": 1
  },
  "storageLayout": {
    "storage": [
      {
        "astId": 393,
        "contract": "contracts/L1/teleportr/TeleportrDeposit.sol:TeleportrDeposit",
        "label": "_owner",
        "offset": 0,
        "slot": "0",
        "type": "t_address"
      },
      {
        "astId": 5028,
        "contract": "contracts/L1/teleportr/TeleportrDeposit.sol:TeleportrDeposit",
        "label": "minDepositAmount",
        "offset": 0,
        "slot": "1",
        "type": "t_uint256"
      },
      {
        "astId": 5031,
        "contract": "contracts/L1/teleportr/TeleportrDeposit.sol:TeleportrDeposit",
        "label": "maxDepositAmount",
        "offset": 0,
        "slot": "2",
        "type": "t_uint256"
      },
      {
        "astId": 5034,
        "contract": "contracts/L1/teleportr/TeleportrDeposit.sol:TeleportrDeposit",
        "label": "maxBalance",
        "offset": 0,
        "slot": "3",
        "type": "t_uint256"
      },
      {
        "astId": 5037,
        "contract": "contracts/L1/teleportr/TeleportrDeposit.sol:TeleportrDeposit",
        "label": "totalDeposits",
        "offset": 0,
        "slot": "4",
        "type": "t_uint256"
      }
    ],
    "types": {
      "t_address": {
        "encoding": "inplace",
        "label": "address",
        "numberOfBytes": "20"
      },
      "t_uint256": {
        "encoding": "inplace",
        "label": "uint256",
        "numberOfBytes": "32"
      }
    }
  }
}