{
	"abi": [
		{
			"inputs": [
				{
					"internalType": "address",
					"name": "_owner",
					"type": "address"
				},
				{
					"internalType": "contract EternalStorage",
					"name": "_eternalStorage",
					"type": "address"
				}
			],
			"payable": false,
			"stateMutability": "nonpayable",
			"type": "constructor"
		},
		{
			"anonymous": false,
			"inputs": [
				{
					"indexed": true,
					"internalType": "address",
					"name": "authoriser",
					"type": "address"
				},
				{
					"indexed": false,
					"internalType": "address",
					"name": "delegate",
					"type": "address"
				},
				{
					"indexed": false,
					"internalType": "bytes32",
					"name": "action",
					"type": "bytes32"
				}
			],
			"name": "Approval",
			"type": "event"
		},
		{
			"anonymous": false,
			"inputs": [
				{
					"indexed": false,
					"internalType": "address",
					"name": "newEternalStorage",
					"type": "address"
				}
			],
			"name": "EternalStorageUpdated",
			"type": "event"
		},
		{
			"anonymous": false,
			"inputs": [
				{
					"indexed": false,
					"internalType": "address",
					"name": "oldOwner",
					"type": "address"
				},
				{
					"indexed": false,
					"internalType": "address",
					"name": "newOwner",
					"type": "address"
				}
			],
			"name": "OwnerChanged",
			"type": "event"
		},
		{
			"anonymous": false,
			"inputs": [
				{
					"indexed": false,
					"internalType": "address",
					"name": "newOwner",
					"type": "address"
				}
			],
			"name": "OwnerNominated",
			"type": "event"
		},
		{
			"anonymous": false,
			"inputs": [
				{
					"indexed": true,
					"internalType": "address",
					"name": "authoriser",
					"type": "address"
				},
				{
					"indexed": false,
					"internalType": "address",
					"name": "delegate",
					"type": "address"
				},
				{
					"indexed": false,
					"internalType": "bytes32",
					"name": "action",
					"type": "bytes32"
				}
			],
			"name": "WithdrawApproval",
			"type": "event"
		},
		{
			"constant": true,
			"inputs": [],
			"name": "APPROVE_ALL",
			"outputs": [
				{
					"internalType": "bytes32",
					"name": "",
					"type": "bytes32"
				}
			],
			"payable": false,
			"stateMutability": "view",
			"type": "function"
		},
		{
			"constant": true,
			"inputs": [],
			"name": "BURN_FOR_ADDRESS",
			"outputs": [
				{
					"internalType": "bytes32",
					"name": "",
					"type": "bytes32"
				}
			],
			"payable": false,
			"stateMutability": "view",
			"type": "function"
		},
		{
			"constant": true,
			"inputs": [],
			"name": "CLAIM_FOR_ADDRESS",
			"outputs": [
				{
					"internalType": "bytes32",
					"name": "",
					"type": "bytes32"
				}
			],
			"payable": false,
			"stateMutability": "view",
			"type": "function"
		},
		{
			"constant": true,
			"inputs": [],
			"name": "EXCHANGE_FOR_ADDRESS",
			"outputs": [
				{
					"internalType": "bytes32",
					"name": "",
					"type": "bytes32"
				}
			],
			"payable": false,
			"stateMutability": "view",
			"type": "function"
		},
		{
			"constant": true,
			"inputs": [],
			"name": "ISSUE_FOR_ADDRESS",
			"outputs": [
				{
					"internalType": "bytes32",
					"name": "",
					"type": "bytes32"
				}
			],
			"payable": false,
			"stateMutability": "view",
			"type": "function"
		},
		{
			"constant": false,
			"inputs": [],
			"name": "acceptOwnership",
			"outputs": [],
			"payable": false,
			"stateMutability": "nonpayable",
			"type": "function"
		},
		{
			"constant": false,
			"inputs": [
				{
					"internalType": "address",
					"name": "delegate",
					"type": "address"
				}
			],
			"name": "approveAllDelegatePowers",
			"outputs": [],
			"payable": false,
			"stateMutability": "nonpayable",
			"type": "function"
		},
		{
			"constant": false,
			"inputs": [
				{
					"internalType": "address",
					"name": "delegate",
					"type": "address"
				}
			],
			"name": "approveBurnOnBehalf",
			"outputs": [],
			"payable": false,
			"stateMutability": "nonpayable",
			"type": "function"
		},
		{
			"constant": false,
			"inputs": [
				{
					"internalType": "address",
					"name": "delegate",
					"type": "address"
				}
			],
			"name": "approveClaimOnBehalf",
			"outputs": [],
			"payable": false,
			"stateMutability": "nonpayable",
			"type": "function"
		},
		{
			"constant": false,
			"inputs": [
				{
					"internalType": "address",
					"name": "delegate",
					"type": "address"
				}
			],
			"name": "approveExchangeOnBehalf",
			"outputs": [],
			"payable": false,
			"stateMutability": "nonpayable",
			"type": "function"
		},
		{
			"constant": false,
			"inputs": [
				{
					"internalType": "address",
					"name": "delegate",
					"type": "address"
				}
			],
			"name": "approveIssueOnBehalf",
			"outputs": [],
			"payable": false,
			"stateMutability": "nonpayable",
			"type": "function"
		},
		{
			"constant": true,
			"inputs": [
				{
					"internalType": "address",
					"name": "authoriser",
					"type": "address"
				},
				{
					"internalType": "address",
					"name": "delegate",
					"type": "address"
				}
			],
			"name": "approvedAll",
			"outputs": [
				{
					"internalType": "bool",
					"name": "",
					"type": "bool"
				}
			],
			"payable": false,
			"stateMutability": "view",
			"type": "function"
		},
		{
			"constant": true,
			"inputs": [
				{
					"internalType": "address",
					"name": "authoriser",
					"type": "address"
				},
				{
					"internalType": "address",
					"name": "delegate",
					"type": "address"
				}
			],
			"name": "canBurnFor",
			"outputs": [
				{
					"internalType": "bool",
					"name": "",
					"type": "bool"
				}
			],
			"payable": false,
			"stateMutability": "view",
			"type": "function"
		},
		{
			"constant": true,
			"inputs": [
				{
					"internalType": "address",
					"name": "authoriser",
					"type": "address"
				},
				{
					"internalType": "address",
					"name": "delegate",
					"type": "address"
				}
			],
			"name": "canClaimFor",
			"outputs": [
				{
					"internalType": "bool",
					"name": "",
					"type": "bool"
				}
			],
			"payable": false,
			"stateMutability": "view",
			"type": "function"
		},
		{
			"constant": true,
			"inputs": [
				{
					"internalType": "address",
					"name": "authoriser",
					"type": "address"
				},
				{
					"internalType": "address",
					"name": "delegate",
					"type": "address"
				}
			],
			"name": "canExchangeFor",
			"outputs": [
				{
					"internalType": "bool",
					"name": "",
					"type": "bool"
				}
			],
			"payable": false,
			"stateMutability": "view",
			"type": "function"
		},
		{
			"constant": true,
			"inputs": [
				{
					"internalType": "address",
					"name": "authoriser",
					"type": "address"
				},
				{
					"internalType": "address",
					"name": "delegate",
					"type": "address"
				}
			],
			"name": "canIssueFor",
			"outputs": [
				{
					"internalType": "bool",
					"name": "",
					"type": "bool"
				}
			],
			"payable": false,
			"stateMutability": "view",
			"type": "function"
		},
		{
			"constant": true,
			"inputs": [],
			"name": "eternalStorage",
			"outputs": [
				{
					"internalType": "contract EternalStorage",
					"name": "",
					"type": "address"
				}
			],
			"payable": false,
			"stateMutability": "view",
			"type": "function"
		},
		{
			"constant": false,
			"inputs": [
				{
					"internalType": "address",
					"name": "_owner",
					"type": "address"
				}
			],
			"name": "nominateNewOwner",
			"outputs": [],
			"payable": false,
			"stateMutability": "nonpayable",
			"type": "function"
		},
		{
			"constant": true,
			"inputs": [],
			"name": "nominatedOwner",
			"outputs": [
				{
					"internalType": "address",
					"name": "",
					"type": "address"
				}
			],
			"payable": false,
			"stateMutability": "view",
			"type": "function"
		},
		{
			"constant": true,
			"inputs": [],
			"name": "owner",
			"outputs": [
				{
					"internalType": "address",
					"name": "",
					"type": "address"
				}
			],
			"payable": false,
			"stateMutability": "view",
			"type": "function"
		},
		{
			"constant": false,
			"inputs": [
				{
					"internalType": "address",
					"name": "delegate",
					"type": "address"
				}
			],
			"name": "removeAllDelegatePowers",
			"outputs": [],
			"payable": false,
			"stateMutability": "nonpayable",
			"type": "function"
		},
		{
			"constant": false,
			"inputs": [
				{
					"internalType": "address",
					"name": "delegate",
					"type": "address"
				}
			],
			"name": "removeBurnOnBehalf",
			"outputs": [],
			"payable": false,
			"stateMutability": "nonpayable",
			"type": "function"
		},
		{
			"constant": false,
			"inputs": [
				{
					"internalType": "address",
					"name": "delegate",
					"type": "address"
				}
			],
			"name": "removeClaimOnBehalf",
			"outputs": [],
			"payable": false,
			"stateMutability": "nonpayable",
			"type": "function"
		},
		{
			"constant": false,
			"inputs": [
				{
					"internalType": "address",
					"name": "delegate",
					"type": "address"
				}
			],
			"name": "removeExchangeOnBehalf",
			"outputs": [],
			"payable": false,
			"stateMutability": "nonpayable",
			"type": "function"
		},
		{
			"constant": false,
			"inputs": [
				{
					"internalType": "address",
					"name": "delegate",
					"type": "address"
				}
			],
			"name": "removeIssueOnBehalf",
			"outputs": [],
			"payable": false,
			"stateMutability": "nonpayable",
			"type": "function"
		},
		{
			"constant": false,
			"inputs": [
				{
					"internalType": "contract EternalStorage",
					"name": "_eternalStorage",
					"type": "address"
				}
			],
			"name": "setEternalStorage",
			"outputs": [],
			"payable": false,
			"stateMutability": "nonpayable",
			"type": "function"
		}
	],
	"evm": {
		"bytecode": {
			"linkReferences": {},
			"object": "60806040526040518060a001604052807f417070726f7665416c6c0000000000000000000000000000000000000000000081526020017f4275726e466f724164647265737300000000000000000000000000000000000081526020017f4973737565466f7241646472657373000000000000000000000000000000000081526020017f436c61696d466f7241646472657373000000000000000000000000000000000081526020017f45786368616e6765466f724164647265737300000000000000000000000000008152506002906005620000dd929190620002b2565b50348015620000eb57600080fd5b5060405162001e4238038062001e42833981810160405260408110156200011157600080fd5b81019080805190602001909291908051906020019092919050505081600073ffffffffffffffffffffffffffffffffffffffff168173ffffffffffffffffffffffffffffffffffffffff1614156200016857600080fd5b806000806101000a816200017b62000302565b8173ffffffffffffffffffffffffffffffffffffffff021916908373ffffffffffffffffffffffffffffffffffffffff16021790620001b96200033a565b5050507fb532073b38c83145e3e5135377a08bf9aab55bc0fd7c1179cd4fb995d2a5159c600082604051808373ffffffffffffffffffffffffffffffffffffffff1673ffffffffffffffffffffffffffffffffffffffff1681526020018273ffffffffffffffffffffffffffffffffffffffff1673ffffffffffffffffffffffffffffffffffffffff1681526020019250505060405180910390a15080600760006101000a816200026962000302565b8173ffffffffffffffffffffffffffffffffffffffff021916908373ffffffffffffffffffffffffffffffffffffffff16021790620002a76200033a565b5050505050620003a7565b8260058101928215620002ef579160200282015b82811115620002ee57825182620002dc6200033a565b505091602001919060010190620002c6565b5b509050620002fe919062000374565b5090565b6320966208620800008160e01b81528360048201526020816024836000335af160008114156200033157600080fd5b81519450505050565b6328dcb2a0620800008160e01b81528360048201528460248201526000816044836000335af160008114156200036f57600080fd5b505050565b620003a491905b80821115620003a057600081600090620003946200033a565b5050506001016200037b565b5090565b90565b611a8b80620003b76000396000f3fe608060405234801561001057600080fd5b506004361061018e5760003560e01c80638da5cb5b116100de578063b5bb561911610097578063c5e17ab011610071578063c5e17ab0146107d7578063d8eeb7c1146107f5578063e32b3f5214610813578063faf431bb146108315761018e565b8063b5bb56191461070b578063b9156efa1461074f578063bc87acbf146107935761018e565b80638da5cb5b1461055557806398ff9c541461059f5780639c79ce35146105e95780639cbc2ebe1461062d5780639f61d3361461064b578063b42e0f151461068f5761018e565b8063447fbc631161014b5780636c8bc9fe116101255780636c8bc9fe146104475780636f95200b1461048b57806379ba5097146104cf5780637d3f0ba2146104d95761018e565b8063447fbc631461037557806353a47bb7146103b957806359cec3d6146104035761018e565b806304872617146101935780631627540c1461020f57806321f4ae57146102535780632c70aecf146102cf5780634180e5b5146102ed578063431ce54014610331575b600080fd5b6101f5600480360360408110156101a957600080fd5b81019080803573ffffffffffffffffffffffffffffffffffffffff169060200190929190803573ffffffffffffffffffffffffffffffffffffffff1690602001909291905050506108ad565b604051808215151515815260200191505060405180910390f35b6102516004803603602081101561022557600080fd5b81019080803573ffffffffffffffffffffffffffffffffffffffff1690602001909291905050506108e2565b005b6102b56004803603604081101561026957600080fd5b81019080803573ffffffffffffffffffffffffffffffffffffffff169060200190929190803573ffffffffffffffffffffffffffffffffffffffff169060200190929190505050610a01565b604051808215151515815260200191505060405180910390f35b6102d7610a36565b6040518082815260200191505060405180910390f35b61032f6004803603602081101561030357600080fd5b81019080803573ffffffffffffffffffffffffffffffffffffffff169060200190929190505050610a5a565b005b6103736004803603602081101561034757600080fd5b81019080803573ffffffffffffffffffffffffffffffffffffffff169060200190929190505050610a90565b005b6103b76004803603602081101561038b57600080fd5b81019080803573ffffffffffffffffffffffffffffffffffffffff169060200190929190505050610ac6565b005b6103c1610afc565b604051808273ffffffffffffffffffffffffffffffffffffffff1673ffffffffffffffffffffffffffffffffffffffff16815260200191505060405180910390f35b6104456004803603602081101561041957600080fd5b81019080803573ffffffffffffffffffffffffffffffffffffffff169060200190929190505050610b29565b005b6104896004803603602081101561045d57600080fd5b81019080803573ffffffffffffffffffffffffffffffffffffffff169060200190929190505050610b5f565b005b6104cd600480360360208110156104a157600080fd5b81019080803573ffffffffffffffffffffffffffffffffffffffff169060200190929190505050610b95565b005b6104d7610bdd565b005b61053b600480360360408110156104ef57600080fd5b81019080803573ffffffffffffffffffffffffffffffffffffffff169060200190929190803573ffffffffffffffffffffffffffffffffffffffff169060200190929190505050610dfb565b604051808215151515815260200191505060405180910390f35b61055d610e30565b604051808273ffffffffffffffffffffffffffffffffffffffff1673ffffffffffffffffffffffffffffffffffffffff16815260200191505060405180910390f35b6105a7610e5c565b604051808273ffffffffffffffffffffffffffffffffffffffff1673ffffffffffffffffffffffffffffffffffffffff16815260200191505060405180910390f35b61062b600480360360208110156105ff57600080fd5b81019080803573ffffffffffffffffffffffffffffffffffffffff169060200190929190505050610e89565b005b610635610ebf565b6040518082815260200191505060405180910390f35b61068d6004803603602081101561066157600080fd5b81019080803573ffffffffffffffffffffffffffffffffffffffff169060200190929190505050610ee3565b005b6106f1600480360360408110156106a557600080fd5b81019080803573ffffffffffffffffffffffffffffffffffffffff169060200190929190803573ffffffffffffffffffffffffffffffffffffffff169060200190929190505050610f19565b604051808215151515815260200191505060405180910390f35b61074d6004803603602081101561072157600080fd5b81019080803573ffffffffffffffffffffffffffffffffffffffff169060200190929190505050611015565b005b6107916004803603602081101561076557600080fd5b81019080803573ffffffffffffffffffffffffffffffffffffffff1690602001909291905050506111e3565b005b6107d5600480360360208110156107a957600080fd5b81019080803573ffffffffffffffffffffffffffffffffffffffff169060200190929190505050611219565b005b6107df61124f565b6040518082815260200191505060405180910390f35b6107fd611273565b6040518082815260200191505060405180910390f35b61081b611297565b6040518082815260200191505060405180910390f35b6108936004803603604081101561084757600080fd5b81019080803573ffffffffffffffffffffffffffffffffffffffff169060200190929190803573ffffffffffffffffffffffffffffffffffffffff1690602001909291905050506112bb565b604051808215151515815260200191505060405180910390f35b60006108da7f4973737565466f7241646472657373000000000000000000000000000000000084846112f0565b905092915050565b600080906108ee611880565b906101000a900473ffffffffffffffffffffffffffffffffffffffff1673ffffffffffffffffffffffffffffffffffffffff165a61092a6118b7565b73ffffffffffffffffffffffffffffffffffffffff161461094a57600080fd5b80600160006101000a8161095c611880565b8173ffffffffffffffffffffffffffffffffffffffff021916908373ffffffffffffffffffffffffffffffffffffffff160217906109986118e8565b5050507f906a1c6bd7e3091ea86693dd029a831c19049ce77f1dce2ce0bab1cacbabce2281604051808273ffffffffffffffffffffffffffffffffffffffff1673ffffffffffffffffffffffffffffffffffffffff16815260200191505060405180910390a150565b6000610a2e7f436c61696d466f7241646472657373000000000000000000000000000000000084846112f0565b905092915050565b7f4973737565466f7241646472657373000000000000000000000000000000000081565b610a8d7f436c61696d466f724164647265737300000000000000000000000000000000005a610a876118b7565b836113e6565b50565b610ac37f4973737565466f724164647265737300000000000000000000000000000000005a610abd6118b7565b836115cf565b50565b610af97f45786368616e6765466f724164647265737300000000000000000000000000005a610af36118b7565b836113e6565b50565b6001600090610b09611880565b906101000a900473ffffffffffffffffffffffffffffffffffffffff1681565b610b5c7f4275726e466f72416464726573730000000000000000000000000000000000005a610b566118b7565b836115cf565b50565b610b927f436c61696d466f724164647265737300000000000000000000000000000000005a610b8c6118b7565b836115cf565b50565b60008090505b6005811015610bd957610bcc60028260058110610bb457fe5b01610bbd611880565b5a610bc66118b7565b846115cf565b8080600101915050610b9b565b5050565b6001600090610bea611880565b906101000a900473ffffffffffffffffffffffffffffffffffffffff1673ffffffffffffffffffffffffffffffffffffffff165a610c266118b7565b73ffffffffffffffffffffffffffffffffffffffff1614610c4657600080fd5b7fb532073b38c83145e3e5135377a08bf9aab55bc0fd7c1179cd4fb995d2a5159c60008090610c73611880565b906101000a900473ffffffffffffffffffffffffffffffffffffffff166001600090610c9d611880565b906101000a900473ffffffffffffffffffffffffffffffffffffffff16604051808373ffffffffffffffffffffffffffffffffffffffff1673ffffffffffffffffffffffffffffffffffffffff1681526020018273ffffffffffffffffffffffffffffffffffffffff1673ffffffffffffffffffffffffffffffffffffffff1681526020019250505060405180910390a16001600090610d3b611880565b906101000a900473ffffffffffffffffffffffffffffffffffffffff166000806101000a81610d68611880565b8173ffffffffffffffffffffffffffffffffffffffff021916908373ffffffffffffffffffffffffffffffffffffffff16021790610da46118e8565b5050506000600160006101000a81610dba611880565b8173ffffffffffffffffffffffffffffffffffffffff021916908373ffffffffffffffffffffffffffffffffffffffff16021790610df66118e8565b505050565b6000610e287f4275726e466f724164647265737300000000000000000000000000000000000084846112f0565b905092915050565b60008090610e3c611880565b906101000a900473ffffffffffffffffffffffffffffffffffffffff1681565b6007600090610e69611880565b906101000a900473ffffffffffffffffffffffffffffffffffffffff1681565b610ebc7f4275726e466f72416464726573730000000000000000000000000000000000005a610eb66118b7565b836113e6565b50565b7f417070726f7665416c6c0000000000000000000000000000000000000000000081565b610f167f4973737565466f724164647265737300000000000000000000000000000000005a610f106118b7565b836113e6565b50565b60006007600090610f28611880565b906101000a900473ffffffffffffffffffffffffffffffffffffffff1673ffffffffffffffffffffffffffffffffffffffff166317e7dd22610f8b7f417070726f7665416c6c0000000000000000000000000000000000000000000086866117e0565b6040518263ffffffff1660e01b8152600401808281526020019150506020604051808303818680610fba611921565b158015610fc657600080fd5b505a610fd0611958565b5050505050158015610fe6573d6000803e3d6000fd5b505050506040513d6020811015610ffc57600080fd5b8101908080519060200190929190505050905092915050565b60008090611021611880565b906101000a900473ffffffffffffffffffffffffffffffffffffffff1673ffffffffffffffffffffffffffffffffffffffff165a61105d6118b7565b73ffffffffffffffffffffffffffffffffffffffff161461107d57600080fd5b600073ffffffffffffffffffffffffffffffffffffffff168173ffffffffffffffffffffffffffffffffffffffff161415611103576040517f08c379a0000000000000000000000000000000000000000000000000000000008152600401808060200182810382526026815260200180611a0b6026913960400191505060405180910390fd5b80600760006101000a81611115611880565b8173ffffffffffffffffffffffffffffffffffffffff021916908373ffffffffffffffffffffffffffffffffffffffff160217906111516118e8565b5050507fe3ebe3d58e84fbd094152babb730cf99a14b47f65ed04f35a3bd6356f8161a176007600090611182611880565b906101000a900473ffffffffffffffffffffffffffffffffffffffff16604051808273ffffffffffffffffffffffffffffffffffffffff1673ffffffffffffffffffffffffffffffffffffffff16815260200191505060405180910390a150565b6112167f45786368616e6765466f724164647265737300000000000000000000000000005a6112106118b7565b836115cf565b50565b61124c7f417070726f7665416c6c000000000000000000000000000000000000000000005a6112466118b7565b836113e6565b50565b7f436c61696d466f7241646472657373000000000000000000000000000000000081565b7f45786368616e6765466f7241646472657373000000000000000000000000000081565b7f4275726e466f724164647265737300000000000000000000000000000000000081565b60006112e87f45786368616e6765466f7241646472657373000000000000000000000000000084846112f0565b905092915050565b60006112fc8383610f19565b1561130a57600190506113df565b6007600090611317611880565b906101000a900473ffffffffffffffffffffffffffffffffffffffff1673ffffffffffffffffffffffffffffffffffffffff166317e7dd2261135a8686866117e0565b6040518263ffffffff1660e01b8152600401808281526020019150506020604051808303818680611389611921565b15801561139557600080fd5b505a61139f611958565b50505050501580156113b5573d6000803e3d6000fd5b505050506040513d60208110156113cb57600080fd5b810190808051906020019092919050505090505b9392505050565b600073ffffffffffffffffffffffffffffffffffffffff168173ffffffffffffffffffffffffffffffffffffffff161415611489576040517f08c379a000000000000000000000000000000000000000000000000000000000815260040180806020018281038252601c8152602001807f43616e27742064656c656761746520746f20616464726573732830290000000081525060200191505060405180910390fd5b6007600090611496611880565b906101000a900473ffffffffffffffffffffffffffffffffffffffff1673ffffffffffffffffffffffffffffffffffffffff16633eba9ed26114d98585856117e0565b60016040518363ffffffff1660e01b815260040180838152602001821515151581526020019250505060006040518083038160008780611517611921565b15801561152357600080fd5b505a61152d6119b1565b505050505050158015611544573d6000803e3d6000fd5b505050508173ffffffffffffffffffffffffffffffffffffffff167f36a9e0c1da9cdc6d8f4bd4cb261f9ad6a45eb1641a557ead7530fbeff9a263368285604051808373ffffffffffffffffffffffffffffffffffffffff1673ffffffffffffffffffffffffffffffffffffffff1681526020018281526020019250505060405180910390a2505050565b60076000906115dc611880565b906101000a900473ffffffffffffffffffffffffffffffffffffffff1673ffffffffffffffffffffffffffffffffffffffff166317e7dd2261161f8585856117e0565b6040518263ffffffff1660e01b815260040180828152602001915050602060405180830381868061164e611921565b15801561165a57600080fd5b505a611664611958565b505050505015801561167a573d6000803e3d6000fd5b505050506040513d602081101561169057600080fd5b8101908080519060200190929190505050156117db5760076000906116b3611880565b906101000a900473ffffffffffffffffffffffffffffffffffffffff1673ffffffffffffffffffffffffffffffffffffffff16633cc1635c6116f68585856117e0565b6040518263ffffffff1660e01b81526004018082815260200191505060006040518083038160008780611727611921565b15801561173357600080fd5b505a61173d6119b1565b505050505050158015611754573d6000803e3d6000fd5b505050508173ffffffffffffffffffffffffffffffffffffffff167f7e8dc09322ac82342d9dbfd49eb6497fa7ab69ac444f3763a9b8e16530342f418285604051808373ffffffffffffffffffffffffffffffffffffffff1673ffffffffffffffffffffffffffffffffffffffff1681526020018281526020019250505060405180910390a25b505050565b6000838383604051602001808481526020018373ffffffffffffffffffffffffffffffffffffffff1673ffffffffffffffffffffffffffffffffffffffff1660601b81526014018273ffffffffffffffffffffffffffffffffffffffff1673ffffffffffffffffffffffffffffffffffffffff1660601b815260140193505050506040516020818303038152906040528051906020012090509392505050565b6320966208620800008160e01b81528360048201526020816024836000335af160008114156118ae57600080fd5b81519450505050565b6373509064620800008160e01b81526020816004836000335af160008114156118df57600080fd5b81519450505050565b6328dcb2a0620800008160e01b81528360048201528460248201526000816044836000335af1600081141561191c57600080fd5b505050565b63c3382d0f620800008160e01b81528360048201526020816024836000335af1600081141561194f57600080fd5b81519450505050565b63fbb0f79d620800008160e01b815284600482015260005b8781101561198e578087015181602484010152602081019050611970565b50888888602401836000335af160008114156119a957600080fd5b809950505050565b634c6d7c84620800008160e01b815284600482015260005b888110156119e75780880151816024840101526020810190506119c9565b50898989602401836000335af16000811415611a0257600080fd5b809a5050505056fe43616e27742073657420657465726e616c53746f7261676520746f2061646472657373283029a265627a7a723158206f26401b920b7f1f45d7960d0f4a22e097f16440ea92e2a8f273fbf985b3a9f264736f6c637828302e352e31362d646576656c6f702e323032302e372e32392b636f6d6d69742e36326536346536370058",
			"opcodes": "PUSH1 0x80 PUSH1 0x40 MSTORE PUSH1 0x40 MLOAD DUP1 PUSH1 0xA0 ADD PUSH1 0x40 MSTORE DUP1 PUSH32 0x417070726F7665416C6C00000000000000000000000000000000000000000000 DUP2 MSTORE PUSH1 0x20 ADD PUSH32 0x4275726E466F7241646472657373000000000000000000000000000000000000 DUP2 MSTORE PUSH1 0x20 ADD PUSH32 0x4973737565466F72416464726573730000000000000000000000000000000000 DUP2 MSTORE PUSH1 0x20 ADD PUSH32 0x436C61696D466F72416464726573730000000000000000000000000000000000 DUP2 MSTORE PUSH1 0x20 ADD PUSH32 0x45786368616E6765466F72416464726573730000000000000000000000000000 DUP2 MSTORE POP PUSH1 0x2 SWAP1 PUSH1 0x5 PUSH3 0xDD SWAP3 SWAP2 SWAP1 PUSH3 0x2B2 JUMP JUMPDEST POP CALLVALUE DUP1 ISZERO PUSH3 0xEB JUMPI PUSH1 0x0 DUP1 REVERT JUMPDEST POP PUSH1 0x40 MLOAD PUSH3 0x1E42 CODESIZE SUB DUP1 PUSH3 0x1E42 DUP4 CODECOPY DUP2 DUP2 ADD PUSH1 0x40 MSTORE PUSH1 0x40 DUP2 LT ISZERO PUSH3 0x111 JUMPI PUSH1 0x0 DUP1 REVERT JUMPDEST DUP2 ADD SWAP1 DUP1 DUP1 MLOAD SWAP1 PUSH1 0x20 ADD SWAP1 SWAP3 SWAP2 SWAP1 DUP1 MLOAD SWAP1 PUSH1 0x20 ADD SWAP1 SWAP3 SWAP2 SWAP1 POP POP POP DUP2 PUSH1 0x0 PUSH20 0xFFFFFFFFFFFFFFFFFFFFFFFFFFFFFFFFFFFFFFFF AND DUP2 PUSH20 0xFFFFFFFFFFFFFFFFFFFFFFFFFFFFFFFFFFFFFFFF AND EQ ISZERO PUSH3 0x168 JUMPI PUSH1 0x0 DUP1 REVERT JUMPDEST DUP1 PUSH1 0x0 DUP1 PUSH2 0x100 EXP DUP2 PUSH3 0x17B PUSH3 0x302 JUMP JUMPDEST DUP2 PUSH20 0xFFFFFFFFFFFFFFFFFFFFFFFFFFFFFFFFFFFFFFFF MUL NOT AND SWAP1 DUP4 PUSH20 0xFFFFFFFFFFFFFFFFFFFFFFFFFFFFFFFFFFFFFFFF AND MUL OR SWAP1 PUSH3 0x1B9 PUSH3 0x33A JUMP JUMPDEST POP POP POP PUSH32 0xB532073B38C83145E3E5135377A08BF9AAB55BC0FD7C1179CD4FB995D2A5159C PUSH1 0x0 DUP3 PUSH1 0x40 MLOAD DUP1 DUP4 PUSH20 0xFFFFFFFFFFFFFFFFFFFFFFFFFFFFFFFFFFFFFFFF AND PUSH20 0xFFFFFFFFFFFFFFFFFFFFFFFFFFFFFFFFFFFFFFFF AND DUP2 MSTORE PUSH1 0x20 ADD DUP3 PUSH20 0xFFFFFFFFFFFFFFFFFFFFFFFFFFFFFFFFFFFFFFFF AND PUSH20 0xFFFFFFFFFFFFFFFFFFFFFFFFFFFFFFFFFFFFFFFF AND DUP2 MSTORE PUSH1 0x20 ADD SWAP3 POP POP POP PUSH1 0x40 MLOAD DUP1 SWAP2 SUB SWAP1 LOG1 POP DUP1 PUSH1 0x7 PUSH1 0x0 PUSH2 0x100 EXP DUP2 PUSH3 0x269 PUSH3 0x302 JUMP JUMPDEST DUP2 PUSH20 0xFFFFFFFFFFFFFFFFFFFFFFFFFFFFFFFFFFFFFFFF MUL NOT AND SWAP1 DUP4 PUSH20 0xFFFFFFFFFFFFFFFFFFFFFFFFFFFFFFFFFFFFFFFF AND MUL OR SWAP1 PUSH3 0x2A7 PUSH3 0x33A JUMP JUMPDEST POP POP POP POP POP PUSH3 0x3A7 JUMP JUMPDEST DUP3 PUSH1 0x5 DUP2 ADD SWAP3 DUP3 ISZERO PUSH3 0x2EF JUMPI SWAP2 PUSH1 0x20 MUL DUP3 ADD JUMPDEST DUP3 DUP2 GT ISZERO PUSH3 0x2EE JUMPI DUP3 MLOAD DUP3 PUSH3 0x2DC PUSH3 0x33A JUMP JUMPDEST POP POP SWAP2 PUSH1 0x20 ADD SWAP2 SWAP1 PUSH1 0x1 ADD SWAP1 PUSH3 0x2C6 JUMP JUMPDEST JUMPDEST POP SWAP1 POP PUSH3 0x2FE SWAP2 SWAP1 PUSH3 0x374 JUMP JUMPDEST POP SWAP1 JUMP JUMPDEST PUSH4 0x20966208 PUSH3 0x80000 DUP2 PUSH1 0xE0 SHL DUP2 MSTORE DUP4 PUSH1 0x4 DUP3 ADD MSTORE PUSH1 0x20 DUP2 PUSH1 0x24 DUP4 PUSH1 0x0 CALLER GAS CALL PUSH1 0x0 DUP2 EQ ISZERO PUSH3 0x331 JUMPI PUSH1 0x0 DUP1 REVERT JUMPDEST DUP2 MLOAD SWAP5 POP POP POP POP JUMP JUMPDEST PUSH4 0x28DCB2A0 PUSH3 0x80000 DUP2 PUSH1 0xE0 SHL DUP2 MSTORE DUP4 PUSH1 0x4 DUP3 ADD MSTORE DUP5 PUSH1 0x24 DUP3 ADD MSTORE PUSH1 0x0 DUP2 PUSH1 0x44 DUP4 PUSH1 0x0 CALLER GAS CALL PUSH1 0x0 DUP2 EQ ISZERO PUSH3 0x36F JUMPI PUSH1 0x0 DUP1 REVERT JUMPDEST POP POP POP JUMP JUMPDEST PUSH3 0x3A4 SWAP2 SWAP1 JUMPDEST DUP1 DUP3 GT ISZERO PUSH3 0x3A0 JUMPI PUSH1 0x0 DUP2 PUSH1 0x0 SWAP1 PUSH3 0x394 PUSH3 0x33A JUMP JUMPDEST POP POP POP PUSH1 0x1 ADD PUSH3 0x37B JUMP JUMPDEST POP SWAP1 JUMP JUMPDEST SWAP1 JUMP JUMPDEST PUSH2 0x1A8B DUP1 PUSH3 0x3B7 PUSH1 0x0 CODECOPY PUSH1 0x0 RETURN INVALID PUSH1 0x80 PUSH1 0x40 MSTORE CALLVALUE DUP1 ISZERO PUSH2 0x10 JUMPI PUSH1 0x0 DUP1 REVERT JUMPDEST POP PUSH1 0x4 CALLDATASIZE LT PUSH2 0x18E JUMPI PUSH1 0x0 CALLDATALOAD PUSH1 0xE0 SHR DUP1 PUSH4 0x8DA5CB5B GT PUSH2 0xDE JUMPI DUP1 PUSH4 0xB5BB5619 GT PUSH2 0x97 JUMPI DUP1 PUSH4 0xC5E17AB0 GT PUSH2 0x71 JUMPI DUP1 PUSH4 0xC5E17AB0 EQ PUSH2 0x7D7 JUMPI DUP1 PUSH4 0xD8EEB7C1 EQ PUSH2 0x7F5 JUMPI DUP1 PUSH4 0xE32B3F52 EQ PUSH2 0x813 JUMPI DUP1 PUSH4 0xFAF431BB EQ PUSH2 0x831 JUMPI PUSH2 0x18E JUMP JUMPDEST DUP1 PUSH4 0xB5BB5619 EQ PUSH2 0x70B JUMPI DUP1 PUSH4 0xB9156EFA EQ PUSH2 0x74F JUMPI DUP1 PUSH4 0xBC87ACBF EQ PUSH2 0x793 JUMPI PUSH2 0x18E JUMP JUMPDEST DUP1 PUSH4 0x8DA5CB5B EQ PUSH2 0x555 JUMPI DUP1 PUSH4 0x98FF9C54 EQ PUSH2 0x59F JUMPI DUP1 PUSH4 0x9C79CE35 EQ PUSH2 0x5E9 JUMPI DUP1 PUSH4 0x9CBC2EBE EQ PUSH2 0x62D JUMPI DUP1 PUSH4 0x9F61D336 EQ PUSH2 0x64B JUMPI DUP1 PUSH4 0xB42E0F15 EQ PUSH2 0x68F JUMPI PUSH2 0x18E JUMP JUMPDEST DUP1 PUSH4 0x447FBC63 GT PUSH2 0x14B JUMPI DUP1 PUSH4 0x6C8BC9FE GT PUSH2 0x125 JUMPI DUP1 PUSH4 0x6C8BC9FE EQ PUSH2 0x447 JUMPI DUP1 PUSH4 0x6F95200B EQ PUSH2 0x48B JUMPI DUP1 PUSH4 0x79BA5097 EQ PUSH2 0x4CF JUMPI DUP1 PUSH4 0x7D3F0BA2 EQ PUSH2 0x4D9 JUMPI PUSH2 0x18E JUMP JUMPDEST DUP1 PUSH4 0x447FBC63 EQ PUSH2 0x375 JUMPI DUP1 PUSH4 0x53A47BB7 EQ PUSH2 0x3B9 JUMPI DUP1 PUSH4 0x59CEC3D6 EQ PUSH2 0x403 JUMPI PUSH2 0x18E JUMP JUMPDEST DUP1 PUSH4 0x4872617 EQ PUSH2 0x193 JUMPI DUP1 PUSH4 0x1627540C EQ PUSH2 0x20F JUMPI DUP1 PUSH4 0x21F4AE57 EQ PUSH2 0x253 JUMPI DUP1 PUSH4 0x2C70AECF EQ PUSH2 0x2CF JUMPI DUP1 PUSH4 0x4180E5B5 EQ PUSH2 0x2ED JUMPI DUP1 PUSH4 0x431CE540 EQ PUSH2 0x331 JUMPI JUMPDEST PUSH1 0x0 DUP1 REVERT JUMPDEST PUSH2 0x1F5 PUSH1 0x4 DUP1 CALLDATASIZE SUB PUSH1 0x40 DUP2 LT ISZERO PUSH2 0x1A9 JUMPI PUSH1 0x0 DUP1 REVERT JUMPDEST DUP2 ADD SWAP1 DUP1 DUP1 CALLDATALOAD PUSH20 0xFFFFFFFFFFFFFFFFFFFFFFFFFFFFFFFFFFFFFFFF AND SWAP1 PUSH1 0x20 ADD SWAP1 SWAP3 SWAP2 SWAP1 DUP1 CALLDATALOAD PUSH20 0xFFFFFFFFFFFFFFFFFFFFFFFFFFFFFFFFFFFFFFFF AND SWAP1 PUSH1 0x20 ADD SWAP1 SWAP3 SWAP2 SWAP1 POP POP POP PUSH2 0x8AD JUMP JUMPDEST PUSH1 0x40 MLOAD DUP1 DUP3 ISZERO ISZERO ISZERO ISZERO DUP2 MSTORE PUSH1 0x20 ADD SWAP2 POP POP PUSH1 0x40 MLOAD DUP1 SWAP2 SUB SWAP1 RETURN JUMPDEST PUSH2 0x251 PUSH1 0x4 DUP1 CALLDATASIZE SUB PUSH1 0x20 DUP2 LT ISZERO PUSH2 0x225 JUMPI PUSH1 0x0 DUP1 REVERT JUMPDEST DUP2 ADD SWAP1 DUP1 DUP1 CALLDATALOAD PUSH20 0xFFFFFFFFFFFFFFFFFFFFFFFFFFFFFFFFFFFFFFFF AND SWAP1 PUSH1 0x20 ADD SWAP1 SWAP3 SWAP2 SWAP1 POP POP POP PUSH2 0x8E2 JUMP JUMPDEST STOP JUMPDEST PUSH2 0x2B5 PUSH1 0x4 DUP1 CALLDATASIZE SUB PUSH1 0x40 DUP2 LT ISZERO PUSH2 0x269 JUMPI PUSH1 0x0 DUP1 REVERT JUMPDEST DUP2 ADD SWAP1 DUP1 DUP1 CALLDATALOAD PUSH20 0xFFFFFFFFFFFFFFFFFFFFFFFFFFFFFFFFFFFFFFFF AND SWAP1 PUSH1 0x20 ADD SWAP1 SWAP3 SWAP2 SWAP1 DUP1 CALLDATALOAD PUSH20 0xFFFFFFFFFFFFFFFFFFFFFFFFFFFFFFFFFFFFFFFF AND SWAP1 PUSH1 0x20 ADD SWAP1 SWAP3 SWAP2 SWAP1 POP POP POP PUSH2 0xA01 JUMP JUMPDEST PUSH1 0x40 MLOAD DUP1 DUP3 ISZERO ISZERO ISZERO ISZERO DUP2 MSTORE PUSH1 0x20 ADD SWAP2 POP POP PUSH1 0x40 MLOAD DUP1 SWAP2 SUB SWAP1 RETURN JUMPDEST PUSH2 0x2D7 PUSH2 0xA36 JUMP JUMPDEST PUSH1 0x40 MLOAD DUP1 DUP3 DUP2 MSTORE PUSH1 0x20 ADD SWAP2 POP POP PUSH1 0x40 MLOAD DUP1 SWAP2 SUB SWAP1 RETURN JUMPDEST PUSH2 0x32F PUSH1 0x4 DUP1 CALLDATASIZE SUB PUSH1 0x20 DUP2 LT ISZERO PUSH2 0x303 JUMPI PUSH1 0x0 DUP1 REVERT JUMPDEST DUP2 ADD SWAP1 DUP1 DUP1 CALLDATALOAD PUSH20 0xFFFFFFFFFFFFFFFFFFFFFFFFFFFFFFFFFFFFFFFF AND SWAP1 PUSH1 0x20 ADD SWAP1 SWAP3 SWAP2 SWAP1 POP POP POP PUSH2 0xA5A JUMP JUMPDEST STOP JUMPDEST PUSH2 0x373 PUSH1 0x4 DUP1 CALLDATASIZE SUB PUSH1 0x20 DUP2 LT ISZERO PUSH2 0x347 JUMPI PUSH1 0x0 DUP1 REVERT JUMPDEST DUP2 ADD SWAP1 DUP1 DUP1 CALLDATALOAD PUSH20 0xFFFFFFFFFFFFFFFFFFFFFFFFFFFFFFFFFFFFFFFF AND SWAP1 PUSH1 0x20 ADD SWAP1 SWAP3 SWAP2 SWAP1 POP POP POP PUSH2 0xA90 JUMP JUMPDEST STOP JUMPDEST PUSH2 0x3B7 PUSH1 0x4 DUP1 CALLDATASIZE SUB PUSH1 0x20 DUP2 LT ISZERO PUSH2 0x38B JUMPI PUSH1 0x0 DUP1 REVERT JUMPDEST DUP2 ADD SWAP1 DUP1 DUP1 CALLDATALOAD PUSH20 0xFFFFFFFFFFFFFFFFFFFFFFFFFFFFFFFFFFFFFFFF AND SWAP1 PUSH1 0x20 ADD SWAP1 SWAP3 SWAP2 SWAP1 POP POP POP PUSH2 0xAC6 JUMP JUMPDEST STOP JUMPDEST PUSH2 0x3C1 PUSH2 0xAFC JUMP JUMPDEST PUSH1 0x40 MLOAD DUP1 DUP3 PUSH20 0xFFFFFFFFFFFFFFFFFFFFFFFFFFFFFFFFFFFFFFFF AND PUSH20 0xFFFFFFFFFFFFFFFFFFFFFFFFFFFFFFFFFFFFFFFF AND DUP2 MSTORE PUSH1 0x20 ADD SWAP2 POP POP PUSH1 0x40 MLOAD DUP1 SWAP2 SUB SWAP1 RETURN JUMPDEST PUSH2 0x445 PUSH1 0x4 DUP1 CALLDATASIZE SUB PUSH1 0x20 DUP2 LT ISZERO PUSH2 0x419 JUMPI PUSH1 0x0 DUP1 REVERT JUMPDEST DUP2 ADD SWAP1 DUP1 DUP1 CALLDATALOAD PUSH20 0xFFFFFFFFFFFFFFFFFFFFFFFFFFFFFFFFFFFFFFFF AND SWAP1 PUSH1 0x20 ADD SWAP1 SWAP3 SWAP2 SWAP1 POP POP POP PUSH2 0xB29 JUMP JUMPDEST STOP JUMPDEST PUSH2 0x489 PUSH1 0x4 DUP1 CALLDATASIZE SUB PUSH1 0x20 DUP2 LT ISZERO PUSH2 0x45D JUMPI PUSH1 0x0 DUP1 REVERT JUMPDEST DUP2 ADD SWAP1 DUP1 DUP1 CALLDATALOAD PUSH20 0xFFFFFFFFFFFFFFFFFFFFFFFFFFFFFFFFFFFFFFFF AND SWAP1 PUSH1 0x20 ADD SWAP1 SWAP3 SWAP2 SWAP1 POP POP POP PUSH2 0xB5F JUMP JUMPDEST STOP JUMPDEST PUSH2 0x4CD PUSH1 0x4 DUP1 CALLDATASIZE SUB PUSH1 0x20 DUP2 LT ISZERO PUSH2 0x4A1 JUMPI PUSH1 0x0 DUP1 REVERT JUMPDEST DUP2 ADD SWAP1 DUP1 DUP1 CALLDATALOAD PUSH20 0xFFFFFFFFFFFFFFFFFFFFFFFFFFFFFFFFFFFFFFFF AND SWAP1 PUSH1 0x20 ADD SWAP1 SWAP3 SWAP2 SWAP1 POP POP POP PUSH2 0xB95 JUMP JUMPDEST STOP JUMPDEST PUSH2 0x4D7 PUSH2 0xBDD JUMP JUMPDEST STOP JUMPDEST PUSH2 0x53B PUSH1 0x4 DUP1 CALLDATASIZE SUB PUSH1 0x40 DUP2 LT ISZERO PUSH2 0x4EF JUMPI PUSH1 0x0 DUP1 REVERT JUMPDEST DUP2 ADD SWAP1 DUP1 DUP1 CALLDATALOAD PUSH20 0xFFFFFFFFFFFFFFFFFFFFFFFFFFFFFFFFFFFFFFFF AND SWAP1 PUSH1 0x20 ADD SWAP1 SWAP3 SWAP2 SWAP1 DUP1 CALLDATALOAD PUSH20 0xFFFFFFFFFFFFFFFFFFFFFFFFFFFFFFFFFFFFFFFF AND SWAP1 PUSH1 0x20 ADD SWAP1 SWAP3 SWAP2 SWAP1 POP POP POP PUSH2 0xDFB JUMP JUMPDEST PUSH1 0x40 MLOAD DUP1 DUP3 ISZERO ISZERO ISZERO ISZERO DUP2 MSTORE PUSH1 0x20 ADD SWAP2 POP POP PUSH1 0x40 MLOAD DUP1 SWAP2 SUB SWAP1 RETURN JUMPDEST PUSH2 0x55D PUSH2 0xE30 JUMP JUMPDEST PUSH1 0x40 MLOAD DUP1 DUP3 PUSH20 0xFFFFFFFFFFFFFFFFFFFFFFFFFFFFFFFFFFFFFFFF AND PUSH20 0xFFFFFFFFFFFFFFFFFFFFFFFFFFFFFFFFFFFFFFFF AND DUP2 MSTORE PUSH1 0x20 ADD SWAP2 POP POP PUSH1 0x40 MLOAD DUP1 SWAP2 SUB SWAP1 RETURN JUMPDEST PUSH2 0x5A7 PUSH2 0xE5C JUMP JUMPDEST PUSH1 0x40 MLOAD DUP1 DUP3 PUSH20 0xFFFFFFFFFFFFFFFFFFFFFFFFFFFFFFFFFFFFFFFF AND PUSH20 0xFFFFFFFFFFFFFFFFFFFFFFFFFFFFFFFFFFFFFFFF AND DUP2 MSTORE PUSH1 0x20 ADD SWAP2 POP POP PUSH1 0x40 MLOAD DUP1 SWAP2 SUB SWAP1 RETURN JUMPDEST PUSH2 0x62B PUSH1 0x4 DUP1 CALLDATASIZE SUB PUSH1 0x20 DUP2 LT ISZERO PUSH2 0x5FF JUMPI PUSH1 0x0 DUP1 REVERT JUMPDEST DUP2 ADD SWAP1 DUP1 DUP1 CALLDATALOAD PUSH20 0xFFFFFFFFFFFFFFFFFFFFFFFFFFFFFFFFFFFFFFFF AND SWAP1 PUSH1 0x20 ADD SWAP1 SWAP3 SWAP2 SWAP1 POP POP POP PUSH2 0xE89 JUMP JUMPDEST STOP JUMPDEST PUSH2 0x635 PUSH2 0xEBF JUMP JUMPDEST PUSH1 0x40 MLOAD DUP1 DUP3 DUP2 MSTORE PUSH1 0x20 ADD SWAP2 POP POP PUSH1 0x40 MLOAD DUP1 SWAP2 SUB SWAP1 RETURN JUMPDEST PUSH2 0x68D PUSH1 0x4 DUP1 CALLDATASIZE SUB PUSH1 0x20 DUP2 LT ISZERO PUSH2 0x661 JUMPI PUSH1 0x0 DUP1 REVERT JUMPDEST DUP2 ADD SWAP1 DUP1 DUP1 CALLDATALOAD PUSH20 0xFFFFFFFFFFFFFFFFFFFFFFFFFFFFFFFFFFFFFFFF AND SWAP1 PUSH1 0x20 ADD SWAP1 SWAP3 SWAP2 SWAP1 POP POP POP PUSH2 0xEE3 JUMP JUMPDEST STOP JUMPDEST PUSH2 0x6F1 PUSH1 0x4 DUP1 CALLDATASIZE SUB PUSH1 0x40 DUP2 LT ISZERO PUSH2 0x6A5 JUMPI PUSH1 0x0 DUP1 REVERT JUMPDEST DUP2 ADD SWAP1 DUP1 DUP1 CALLDATALOAD PUSH20 0xFFFFFFFFFFFFFFFFFFFFFFFFFFFFFFFFFFFFFFFF AND SWAP1 PUSH1 0x20 ADD SWAP1 SWAP3 SWAP2 SWAP1 DUP1 CALLDATALOAD PUSH20 0xFFFFFFFFFFFFFFFFFFFFFFFFFFFFFFFFFFFFFFFF AND SWAP1 PUSH1 0x20 ADD SWAP1 SWAP3 SWAP2 SWAP1 POP POP POP PUSH2 0xF19 JUMP JUMPDEST PUSH1 0x40 MLOAD DUP1 DUP3 ISZERO ISZERO ISZERO ISZERO DUP2 MSTORE PUSH1 0x20 ADD SWAP2 POP POP PUSH1 0x40 MLOAD DUP1 SWAP2 SUB SWAP1 RETURN JUMPDEST PUSH2 0x74D PUSH1 0x4 DUP1 CALLDATASIZE SUB PUSH1 0x20 DUP2 LT ISZERO PUSH2 0x721 JUMPI PUSH1 0x0 DUP1 REVERT JUMPDEST DUP2 ADD SWAP1 DUP1 DUP1 CALLDATALOAD PUSH20 0xFFFFFFFFFFFFFFFFFFFFFFFFFFFFFFFFFFFFFFFF AND SWAP1 PUSH1 0x20 ADD SWAP1 SWAP3 SWAP2 SWAP1 POP POP POP PUSH2 0x1015 JUMP JUMPDEST STOP JUMPDEST PUSH2 0x791 PUSH1 0x4 DUP1 CALLDATASIZE SUB PUSH1 0x20 DUP2 LT ISZERO PUSH2 0x765 JUMPI PUSH1 0x0 DUP1 REVERT JUMPDEST DUP2 ADD SWAP1 DUP1 DUP1 CALLDATALOAD PUSH20 0xFFFFFFFFFFFFFFFFFFFFFFFFFFFFFFFFFFFFFFFF AND SWAP1 PUSH1 0x20 ADD SWAP1 SWAP3 SWAP2 SWAP1 POP POP POP PUSH2 0x11E3 JUMP JUMPDEST STOP JUMPDEST PUSH2 0x7D5 PUSH1 0x4 DUP1 CALLDATASIZE SUB PUSH1 0x20 DUP2 LT ISZERO PUSH2 0x7A9 JUMPI PUSH1 0x0 DUP1 REVERT JUMPDEST DUP2 ADD SWAP1 DUP1 DUP1 CALLDATALOAD PUSH20 0xFFFFFFFFFFFFFFFFFFFFFFFFFFFFFFFFFFFFFFFF AND SWAP1 PUSH1 0x20 ADD SWAP1 SWAP3 SWAP2 SWAP1 POP POP POP PUSH2 0x1219 JUMP JUMPDEST STOP JUMPDEST PUSH2 0x7DF PUSH2 0x124F JUMP JUMPDEST PUSH1 0x40 MLOAD DUP1 DUP3 DUP2 MSTORE PUSH1 0x20 ADD SWAP2 POP POP PUSH1 0x40 MLOAD DUP1 SWAP2 SUB SWAP1 RETURN JUMPDEST PUSH2 0x7FD PUSH2 0x1273 JUMP JUMPDEST PUSH1 0x40 MLOAD DUP1 DUP3 DUP2 MSTORE PUSH1 0x20 ADD SWAP2 POP POP PUSH1 0x40 MLOAD DUP1 SWAP2 SUB SWAP1 RETURN JUMPDEST PUSH2 0x81B PUSH2 0x1297 JUMP JUMPDEST PUSH1 0x40 MLOAD DUP1 DUP3 DUP2 MSTORE PUSH1 0x20 ADD SWAP2 POP POP PUSH1 0x40 MLOAD DUP1 SWAP2 SUB SWAP1 RETURN JUMPDEST PUSH2 0x893 PUSH1 0x4 DUP1 CALLDATASIZE SUB PUSH1 0x40 DUP2 LT ISZERO PUSH2 0x847 JUMPI PUSH1 0x0 DUP1 REVERT JUMPDEST DUP2 ADD SWAP1 DUP1 DUP1 CALLDATALOAD PUSH20 0xFFFFFFFFFFFFFFFFFFFFFFFFFFFFFFFFFFFFFFFF AND SWAP1 PUSH1 0x20 ADD SWAP1 SWAP3 SWAP2 SWAP1 DUP1 CALLDATALOAD PUSH20 0xFFFFFFFFFFFFFFFFFFFFFFFFFFFFFFFFFFFFFFFF AND SWAP1 PUSH1 0x20 ADD SWAP1 SWAP3 SWAP2 SWAP1 POP POP POP PUSH2 0x12BB JUMP JUMPDEST PUSH1 0x40 MLOAD DUP1 DUP3 ISZERO ISZERO ISZERO ISZERO DUP2 MSTORE PUSH1 0x20 ADD SWAP2 POP POP PUSH1 0x40 MLOAD DUP1 SWAP2 SUB SWAP1 RETURN JUMPDEST PUSH1 0x0 PUSH2 0x8DA PUSH32 0x4973737565466F72416464726573730000000000000000000000000000000000 DUP5 DUP5 PUSH2 0x12F0 JUMP JUMPDEST SWAP1 POP SWAP3 SWAP2 POP POP JUMP JUMPDEST PUSH1 0x0 DUP1 SWAP1 PUSH2 0x8EE PUSH2 0x1880 JUMP JUMPDEST SWAP1 PUSH2 0x100 EXP SWAP1 DIV PUSH20 0xFFFFFFFFFFFFFFFFFFFFFFFFFFFFFFFFFFFFFFFF AND PUSH20 0xFFFFFFFFFFFFFFFFFFFFFFFFFFFFFFFFFFFFFFFF AND GAS PUSH2 0x92A PUSH2 0x18B7 JUMP JUMPDEST PUSH20 0xFFFFFFFFFFFFFFFFFFFFFFFFFFFFFFFFFFFFFFFF AND EQ PUSH2 0x94A JUMPI PUSH1 0x0 DUP1 REVERT JUMPDEST DUP1 PUSH1 0x1 PUSH1 0x0 PUSH2 0x100 EXP DUP2 PUSH2 0x95C PUSH2 0x1880 JUMP JUMPDEST DUP2 PUSH20 0xFFFFFFFFFFFFFFFFFFFFFFFFFFFFFFFFFFFFFFFF MUL NOT AND SWAP1 DUP4 PUSH20 0xFFFFFFFFFFFFFFFFFFFFFFFFFFFFFFFFFFFFFFFF AND MUL OR SWAP1 PUSH2 0x998 PUSH2 0x18E8 JUMP JUMPDEST POP POP POP PUSH32 0x906A1C6BD7E3091EA86693DD029A831C19049CE77F1DCE2CE0BAB1CACBABCE22 DUP2 PUSH1 0x40 MLOAD DUP1 DUP3 PUSH20 0xFFFFFFFFFFFFFFFFFFFFFFFFFFFFFFFFFFFFFFFF AND PUSH20 0xFFFFFFFFFFFFFFFFFFFFFFFFFFFFFFFFFFFFFFFF AND DUP2 MSTORE PUSH1 0x20 ADD SWAP2 POP POP PUSH1 0x40 MLOAD DUP1 SWAP2 SUB SWAP1 LOG1 POP JUMP JUMPDEST PUSH1 0x0 PUSH2 0xA2E PUSH32 0x436C61696D466F72416464726573730000000000000000000000000000000000 DUP5 DUP5 PUSH2 0x12F0 JUMP JUMPDEST SWAP1 POP SWAP3 SWAP2 POP POP JUMP JUMPDEST PUSH32 0x4973737565466F72416464726573730000000000000000000000000000000000 DUP2 JUMP JUMPDEST PUSH2 0xA8D PUSH32 0x436C61696D466F72416464726573730000000000000000000000000000000000 GAS PUSH2 0xA87 PUSH2 0x18B7 JUMP JUMPDEST DUP4 PUSH2 0x13E6 JUMP JUMPDEST POP JUMP JUMPDEST PUSH2 0xAC3 PUSH32 0x4973737565466F72416464726573730000000000000000000000000000000000 GAS PUSH2 0xABD PUSH2 0x18B7 JUMP JUMPDEST DUP4 PUSH2 0x15CF JUMP JUMPDEST POP JUMP JUMPDEST PUSH2 0xAF9 PUSH32 0x45786368616E6765466F72416464726573730000000000000000000000000000 GAS PUSH2 0xAF3 PUSH2 0x18B7 JUMP JUMPDEST DUP4 PUSH2 0x13E6 JUMP JUMPDEST POP JUMP JUMPDEST PUSH1 0x1 PUSH1 0x0 SWAP1 PUSH2 0xB09 PUSH2 0x1880 JUMP JUMPDEST SWAP1 PUSH2 0x100 EXP SWAP1 DIV PUSH20 0xFFFFFFFFFFFFFFFFFFFFFFFFFFFFFFFFFFFFFFFF AND DUP2 JUMP JUMPDEST PUSH2 0xB5C PUSH32 0x4275726E466F7241646472657373000000000000000000000000000000000000 GAS PUSH2 0xB56 PUSH2 0x18B7 JUMP JUMPDEST DUP4 PUSH2 0x15CF JUMP JUMPDEST POP JUMP JUMPDEST PUSH2 0xB92 PUSH32 0x436C61696D466F72416464726573730000000000000000000000000000000000 GAS PUSH2 0xB8C PUSH2 0x18B7 JUMP JUMPDEST DUP4 PUSH2 0x15CF JUMP JUMPDEST POP JUMP JUMPDEST PUSH1 0x0 DUP1 SWAP1 POP JUMPDEST PUSH1 0x5 DUP2 LT ISZERO PUSH2 0xBD9 JUMPI PUSH2 0xBCC PUSH1 0x2 DUP3 PUSH1 0x5 DUP2 LT PUSH2 0xBB4 JUMPI INVALID JUMPDEST ADD PUSH2 0xBBD PUSH2 0x1880 JUMP JUMPDEST GAS PUSH2 0xBC6 PUSH2 0x18B7 JUMP JUMPDEST DUP5 PUSH2 0x15CF JUMP JUMPDEST DUP1 DUP1 PUSH1 0x1 ADD SWAP2 POP POP PUSH2 0xB9B JUMP JUMPDEST POP POP JUMP JUMPDEST PUSH1 0x1 PUSH1 0x0 SWAP1 PUSH2 0xBEA PUSH2 0x1880 JUMP JUMPDEST SWAP1 PUSH2 0x100 EXP SWAP1 DIV PUSH20 0xFFFFFFFFFFFFFFFFFFFFFFFFFFFFFFFFFFFFFFFF AND PUSH20 0xFFFFFFFFFFFFFFFFFFFFFFFFFFFFFFFFFFFFFFFF AND GAS PUSH2 0xC26 PUSH2 0x18B7 JUMP JUMPDEST PUSH20 0xFFFFFFFFFFFFFFFFFFFFFFFFFFFFFFFFFFFFFFFF AND EQ PUSH2 0xC46 JUMPI PUSH1 0x0 DUP1 REVERT JUMPDEST PUSH32 0xB532073B38C83145E3E5135377A08BF9AAB55BC0FD7C1179CD4FB995D2A5159C PUSH1 0x0 DUP1 SWAP1 PUSH2 0xC73 PUSH2 0x1880 JUMP JUMPDEST SWAP1 PUSH2 0x100 EXP SWAP1 DIV PUSH20 0xFFFFFFFFFFFFFFFFFFFFFFFFFFFFFFFFFFFFFFFF AND PUSH1 0x1 PUSH1 0x0 SWAP1 PUSH2 0xC9D PUSH2 0x1880 JUMP JUMPDEST SWAP1 PUSH2 0x100 EXP SWAP1 DIV PUSH20 0xFFFFFFFFFFFFFFFFFFFFFFFFFFFFFFFFFFFFFFFF AND PUSH1 0x40 MLOAD DUP1 DUP4 PUSH20 0xFFFFFFFFFFFFFFFFFFFFFFFFFFFFFFFFFFFFFFFF AND PUSH20 0xFFFFFFFFFFFFFFFFFFFFFFFFFFFFFFFFFFFFFFFF AND DUP2 MSTORE PUSH1 0x20 ADD DUP3 PUSH20 0xFFFFFFFFFFFFFFFFFFFFFFFFFFFFFFFFFFFFFFFF AND PUSH20 0xFFFFFFFFFFFFFFFFFFFFFFFFFFFFFFFFFFFFFFFF AND DUP2 MSTORE PUSH1 0x20 ADD SWAP3 POP POP POP PUSH1 0x40 MLOAD DUP1 SWAP2 SUB SWAP1 LOG1 PUSH1 0x1 PUSH1 0x0 SWAP1 PUSH2 0xD3B PUSH2 0x1880 JUMP JUMPDEST SWAP1 PUSH2 0x100 EXP SWAP1 DIV PUSH20 0xFFFFFFFFFFFFFFFFFFFFFFFFFFFFFFFFFFFFFFFF AND PUSH1 0x0 DUP1 PUSH2 0x100 EXP DUP2 PUSH2 0xD68 PUSH2 0x1880 JUMP JUMPDEST DUP2 PUSH20 0xFFFFFFFFFFFFFFFFFFFFFFFFFFFFFFFFFFFFFFFF MUL NOT AND SWAP1 DUP4 PUSH20 0xFFFFFFFFFFFFFFFFFFFFFFFFFFFFFFFFFFFFFFFF AND MUL OR SWAP1 PUSH2 0xDA4 PUSH2 0x18E8 JUMP JUMPDEST POP POP POP PUSH1 0x0 PUSH1 0x1 PUSH1 0x0 PUSH2 0x100 EXP DUP2 PUSH2 0xDBA PUSH2 0x1880 JUMP JUMPDEST DUP2 PUSH20 0xFFFFFFFFFFFFFFFFFFFFFFFFFFFFFFFFFFFFFFFF MUL NOT AND SWAP1 DUP4 PUSH20 0xFFFFFFFFFFFFFFFFFFFFFFFFFFFFFFFFFFFFFFFF AND MUL OR SWAP1 PUSH2 0xDF6 PUSH2 0x18E8 JUMP JUMPDEST POP POP POP JUMP JUMPDEST PUSH1 0x0 PUSH2 0xE28 PUSH32 0x4275726E466F7241646472657373000000000000000000000000000000000000 DUP5 DUP5 PUSH2 0x12F0 JUMP JUMPDEST SWAP1 POP SWAP3 SWAP2 POP POP JUMP JUMPDEST PUSH1 0x0 DUP1 SWAP1 PUSH2 0xE3C PUSH2 0x1880 JUMP JUMPDEST SWAP1 PUSH2 0x100 EXP SWAP1 DIV PUSH20 0xFFFFFFFFFFFFFFFFFFFFFFFFFFFFFFFFFFFFFFFF AND DUP2 JUMP JUMPDEST PUSH1 0x7 PUSH1 0x0 SWAP1 PUSH2 0xE69 PUSH2 0x1880 JUMP JUMPDEST SWAP1 PUSH2 0x100 EXP SWAP1 DIV PUSH20 0xFFFFFFFFFFFFFFFFFFFFFFFFFFFFFFFFFFFFFFFF AND DUP2 JUMP JUMPDEST PUSH2 0xEBC PUSH32 0x4275726E466F7241646472657373000000000000000000000000000000000000 GAS PUSH2 0xEB6 PUSH2 0x18B7 JUMP JUMPDEST DUP4 PUSH2 0x13E6 JUMP JUMPDEST POP JUMP JUMPDEST PUSH32 0x417070726F7665416C6C00000000000000000000000000000000000000000000 DUP2 JUMP JUMPDEST PUSH2 0xF16 PUSH32 0x4973737565466F72416464726573730000000000000000000000000000000000 GAS PUSH2 0xF10 PUSH2 0x18B7 JUMP JUMPDEST DUP4 PUSH2 0x13E6 JUMP JUMPDEST POP JUMP JUMPDEST PUSH1 0x0 PUSH1 0x7 PUSH1 0x0 SWAP1 PUSH2 0xF28 PUSH2 0x1880 JUMP JUMPDEST SWAP1 PUSH2 0x100 EXP SWAP1 DIV PUSH20 0xFFFFFFFFFFFFFFFFFFFFFFFFFFFFFFFFFFFFFFFF AND PUSH20 0xFFFFFFFFFFFFFFFFFFFFFFFFFFFFFFFFFFFFFFFF AND PUSH4 0x17E7DD22 PUSH2 0xF8B PUSH32 0x417070726F7665416C6C00000000000000000000000000000000000000000000 DUP7 DUP7 PUSH2 0x17E0 JUMP JUMPDEST PUSH1 0x40 MLOAD DUP3 PUSH4 0xFFFFFFFF AND PUSH1 0xE0 SHL DUP2 MSTORE PUSH1 0x4 ADD DUP1 DUP3 DUP2 MSTORE PUSH1 0x20 ADD SWAP2 POP POP PUSH1 0x20 PUSH1 0x40 MLOAD DUP1 DUP4 SUB DUP2 DUP7 DUP1 PUSH2 0xFBA PUSH2 0x1921 JUMP JUMPDEST ISZERO DUP1 ISZERO PUSH2 0xFC6 JUMPI PUSH1 0x0 DUP1 REVERT JUMPDEST POP GAS PUSH2 0xFD0 PUSH2 0x1958 JUMP JUMPDEST POP POP POP POP POP ISZERO DUP1 ISZERO PUSH2 0xFE6 JUMPI RETURNDATASIZE PUSH1 0x0 DUP1 RETURNDATACOPY RETURNDATASIZE PUSH1 0x0 REVERT JUMPDEST POP POP POP POP PUSH1 0x40 MLOAD RETURNDATASIZE PUSH1 0x20 DUP2 LT ISZERO PUSH2 0xFFC JUMPI PUSH1 0x0 DUP1 REVERT JUMPDEST DUP2 ADD SWAP1 DUP1 DUP1 MLOAD SWAP1 PUSH1 0x20 ADD SWAP1 SWAP3 SWAP2 SWAP1 POP POP POP SWAP1 POP SWAP3 SWAP2 POP POP JUMP JUMPDEST PUSH1 0x0 DUP1 SWAP1 PUSH2 0x1021 PUSH2 0x1880 JUMP JUMPDEST SWAP1 PUSH2 0x100 EXP SWAP1 DIV PUSH20 0xFFFFFFFFFFFFFFFFFFFFFFFFFFFFFFFFFFFFFFFF AND PUSH20 0xFFFFFFFFFFFFFFFFFFFFFFFFFFFFFFFFFFFFFFFF AND GAS PUSH2 0x105D PUSH2 0x18B7 JUMP JUMPDEST PUSH20 0xFFFFFFFFFFFFFFFFFFFFFFFFFFFFFFFFFFFFFFFF AND EQ PUSH2 0x107D JUMPI PUSH1 0x0 DUP1 REVERT JUMPDEST PUSH1 0x0 PUSH20 0xFFFFFFFFFFFFFFFFFFFFFFFFFFFFFFFFFFFFFFFF AND DUP2 PUSH20 0xFFFFFFFFFFFFFFFFFFFFFFFFFFFFFFFFFFFFFFFF AND EQ ISZERO PUSH2 0x1103 JUMPI PUSH1 0x40 MLOAD PUSH32 0x8C379A000000000000000000000000000000000000000000000000000000000 DUP2 MSTORE PUSH1 0x4 ADD DUP1 DUP1 PUSH1 0x20 ADD DUP3 DUP2 SUB DUP3 MSTORE PUSH1 0x26 DUP2 MSTORE PUSH1 0x20 ADD DUP1 PUSH2 0x1A0B PUSH1 0x26 SWAP2 CODECOPY PUSH1 0x40 ADD SWAP2 POP POP PUSH1 0x40 MLOAD DUP1 SWAP2 SUB SWAP1 REVERT JUMPDEST DUP1 PUSH1 0x7 PUSH1 0x0 PUSH2 0x100 EXP DUP2 PUSH2 0x1115 PUSH2 0x1880 JUMP JUMPDEST DUP2 PUSH20 0xFFFFFFFFFFFFFFFFFFFFFFFFFFFFFFFFFFFFFFFF MUL NOT AND SWAP1 DUP4 PUSH20 0xFFFFFFFFFFFFFFFFFFFFFFFFFFFFFFFFFFFFFFFF AND MUL OR SWAP1 PUSH2 0x1151 PUSH2 0x18E8 JUMP JUMPDEST POP POP POP PUSH32 0xE3EBE3D58E84FBD094152BABB730CF99A14B47F65ED04F35A3BD6356F8161A17 PUSH1 0x7 PUSH1 0x0 SWAP1 PUSH2 0x1182 PUSH2 0x1880 JUMP JUMPDEST SWAP1 PUSH2 0x100 EXP SWAP1 DIV PUSH20 0xFFFFFFFFFFFFFFFFFFFFFFFFFFFFFFFFFFFFFFFF AND PUSH1 0x40 MLOAD DUP1 DUP3 PUSH20 0xFFFFFFFFFFFFFFFFFFFFFFFFFFFFFFFFFFFFFFFF AND PUSH20 0xFFFFFFFFFFFFFFFFFFFFFFFFFFFFFFFFFFFFFFFF AND DUP2 MSTORE PUSH1 0x20 ADD SWAP2 POP POP PUSH1 0x40 MLOAD DUP1 SWAP2 SUB SWAP1 LOG1 POP JUMP JUMPDEST PUSH2 0x1216 PUSH32 0x45786368616E6765466F72416464726573730000000000000000000000000000 GAS PUSH2 0x1210 PUSH2 0x18B7 JUMP JUMPDEST DUP4 PUSH2 0x15CF JUMP JUMPDEST POP JUMP JUMPDEST PUSH2 0x124C PUSH32 0x417070726F7665416C6C00000000000000000000000000000000000000000000 GAS PUSH2 0x1246 PUSH2 0x18B7 JUMP JUMPDEST DUP4 PUSH2 0x13E6 JUMP JUMPDEST POP JUMP JUMPDEST PUSH32 0x436C61696D466F72416464726573730000000000000000000000000000000000 DUP2 JUMP JUMPDEST PUSH32 0x45786368616E6765466F72416464726573730000000000000000000000000000 DUP2 JUMP JUMPDEST PUSH32 0x4275726E466F7241646472657373000000000000000000000000000000000000 DUP2 JUMP JUMPDEST PUSH1 0x0 PUSH2 0x12E8 PUSH32 0x45786368616E6765466F72416464726573730000000000000000000000000000 DUP5 DUP5 PUSH2 0x12F0 JUMP JUMPDEST SWAP1 POP SWAP3 SWAP2 POP POP JUMP JUMPDEST PUSH1 0x0 PUSH2 0x12FC DUP4 DUP4 PUSH2 0xF19 JUMP JUMPDEST ISZERO PUSH2 0x130A JUMPI PUSH1 0x1 SWAP1 POP PUSH2 0x13DF JUMP JUMPDEST PUSH1 0x7 PUSH1 0x0 SWAP1 PUSH2 0x1317 PUSH2 0x1880 JUMP JUMPDEST SWAP1 PUSH2 0x100 EXP SWAP1 DIV PUSH20 0xFFFFFFFFFFFFFFFFFFFFFFFFFFFFFFFFFFFFFFFF AND PUSH20 0xFFFFFFFFFFFFFFFFFFFFFFFFFFFFFFFFFFFFFFFF AND PUSH4 0x17E7DD22 PUSH2 0x135A DUP7 DUP7 DUP7 PUSH2 0x17E0 JUMP JUMPDEST PUSH1 0x40 MLOAD DUP3 PUSH4 0xFFFFFFFF AND PUSH1 0xE0 SHL DUP2 MSTORE PUSH1 0x4 ADD DUP1 DUP3 DUP2 MSTORE PUSH1 0x20 ADD SWAP2 POP POP PUSH1 0x20 PUSH1 0x40 MLOAD DUP1 DUP4 SUB DUP2 DUP7 DUP1 PUSH2 0x1389 PUSH2 0x1921 JUMP JUMPDEST ISZERO DUP1 ISZERO PUSH2 0x1395 JUMPI PUSH1 0x0 DUP1 REVERT JUMPDEST POP GAS PUSH2 0x139F PUSH2 0x1958 JUMP JUMPDEST POP POP POP POP POP ISZERO DUP1 ISZERO PUSH2 0x13B5 JUMPI RETURNDATASIZE PUSH1 0x0 DUP1 RETURNDATACOPY RETURNDATASIZE PUSH1 0x0 REVERT JUMPDEST POP POP POP POP PUSH1 0x40 MLOAD RETURNDATASIZE PUSH1 0x20 DUP2 LT ISZERO PUSH2 0x13CB JUMPI PUSH1 0x0 DUP1 REVERT JUMPDEST DUP2 ADD SWAP1 DUP1 DUP1 MLOAD SWAP1 PUSH1 0x20 ADD SWAP1 SWAP3 SWAP2 SWAP1 POP POP POP SWAP1 POP JUMPDEST SWAP4 SWAP3 POP POP POP JUMP JUMPDEST PUSH1 0x0 PUSH20 0xFFFFFFFFFFFFFFFFFFFFFFFFFFFFFFFFFFFFFFFF AND DUP2 PUSH20 0xFFFFFFFFFFFFFFFFFFFFFFFFFFFFFFFFFFFFFFFF AND EQ ISZERO PUSH2 0x1489 JUMPI PUSH1 0x40 MLOAD PUSH32 0x8C379A000000000000000000000000000000000000000000000000000000000 DUP2 MSTORE PUSH1 0x4 ADD DUP1 DUP1 PUSH1 0x20 ADD DUP3 DUP2 SUB DUP3 MSTORE PUSH1 0x1C DUP2 MSTORE PUSH1 0x20 ADD DUP1 PUSH32 0x43616E27742064656C656761746520746F206164647265737328302900000000 DUP2 MSTORE POP PUSH1 0x20 ADD SWAP2 POP POP PUSH1 0x40 MLOAD DUP1 SWAP2 SUB SWAP1 REVERT JUMPDEST PUSH1 0x7 PUSH1 0x0 SWAP1 PUSH2 0x1496 PUSH2 0x1880 JUMP JUMPDEST SWAP1 PUSH2 0x100 EXP SWAP1 DIV PUSH20 0xFFFFFFFFFFFFFFFFFFFFFFFFFFFFFFFFFFFFFFFF AND PUSH20 0xFFFFFFFFFFFFFFFFFFFFFFFFFFFFFFFFFFFFFFFF AND PUSH4 0x3EBA9ED2 PUSH2 0x14D9 DUP6 DUP6 DUP6 PUSH2 0x17E0 JUMP JUMPDEST PUSH1 0x1 PUSH1 0x40 MLOAD DUP4 PUSH4 0xFFFFFFFF AND PUSH1 0xE0 SHL DUP2 MSTORE PUSH1 0x4 ADD DUP1 DUP4 DUP2 MSTORE PUSH1 0x20 ADD DUP3 ISZERO ISZERO ISZERO ISZERO DUP2 MSTORE PUSH1 0x20 ADD SWAP3 POP POP POP PUSH1 0x0 PUSH1 0x40 MLOAD DUP1 DUP4 SUB DUP2 PUSH1 0x0 DUP8 DUP1 PUSH2 0x1517 PUSH2 0x1921 JUMP JUMPDEST ISZERO DUP1 ISZERO PUSH2 0x1523 JUMPI PUSH1 0x0 DUP1 REVERT JUMPDEST POP GAS PUSH2 0x152D PUSH2 0x19B1 JUMP JUMPDEST POP POP POP POP POP POP ISZERO DUP1 ISZERO PUSH2 0x1544 JUMPI RETURNDATASIZE PUSH1 0x0 DUP1 RETURNDATACOPY RETURNDATASIZE PUSH1 0x0 REVERT JUMPDEST POP POP POP POP DUP2 PUSH20 0xFFFFFFFFFFFFFFFFFFFFFFFFFFFFFFFFFFFFFFFF AND PUSH32 0x36A9E0C1DA9CDC6D8F4BD4CB261F9AD6A45EB1641A557EAD7530FBEFF9A26336 DUP3 DUP6 PUSH1 0x40 MLOAD DUP1 DUP4 PUSH20 0xFFFFFFFFFFFFFFFFFFFFFFFFFFFFFFFFFFFFFFFF AND PUSH20 0xFFFFFFFFFFFFFFFFFFFFFFFFFFFFFFFFFFFFFFFF AND DUP2 MSTORE PUSH1 0x20 ADD DUP3 DUP2 MSTORE PUSH1 0x20 ADD SWAP3 POP POP POP PUSH1 0x40 MLOAD DUP1 SWAP2 SUB SWAP1 LOG2 POP POP POP JUMP JUMPDEST PUSH1 0x7 PUSH1 0x0 SWAP1 PUSH2 0x15DC PUSH2 0x1880 JUMP JUMPDEST SWAP1 PUSH2 0x100 EXP SWAP1 DIV PUSH20 0xFFFFFFFFFFFFFFFFFFFFFFFFFFFFFFFFFFFFFFFF AND PUSH20 0xFFFFFFFFFFFFFFFFFFFFFFFFFFFFFFFFFFFFFFFF AND PUSH4 0x17E7DD22 PUSH2 0x161F DUP6 DUP6 DUP6 PUSH2 0x17E0 JUMP JUMPDEST PUSH1 0x40 MLOAD DUP3 PUSH4 0xFFFFFFFF AND PUSH1 0xE0 SHL DUP2 MSTORE PUSH1 0x4 ADD DUP1 DUP3 DUP2 MSTORE PUSH1 0x20 ADD SWAP2 POP POP PUSH1 0x20 PUSH1 0x40 MLOAD DUP1 DUP4 SUB DUP2 DUP7 DUP1 PUSH2 0x164E PUSH2 0x1921 JUMP JUMPDEST ISZERO DUP1 ISZERO PUSH2 0x165A JUMPI PUSH1 0x0 DUP1 REVERT JUMPDEST POP GAS PUSH2 0x1664 PUSH2 0x1958 JUMP JUMPDEST POP POP POP POP POP ISZERO DUP1 ISZERO PUSH2 0x167A JUMPI RETURNDATASIZE PUSH1 0x0 DUP1 RETURNDATACOPY RETURNDATASIZE PUSH1 0x0 REVERT JUMPDEST POP POP POP POP PUSH1 0x40 MLOAD RETURNDATASIZE PUSH1 0x20 DUP2 LT ISZERO PUSH2 0x1690 JUMPI PUSH1 0x0 DUP1 REVERT JUMPDEST DUP2 ADD SWAP1 DUP1 DUP1 MLOAD SWAP1 PUSH1 0x20 ADD SWAP1 SWAP3 SWAP2 SWAP1 POP POP POP ISZERO PUSH2 0x17DB JUMPI PUSH1 0x7 PUSH1 0x0 SWAP1 PUSH2 0x16B3 PUSH2 0x1880 JUMP JUMPDEST SWAP1 PUSH2 0x100 EXP SWAP1 DIV PUSH20 0xFFFFFFFFFFFFFFFFFFFFFFFFFFFFFFFFFFFFFFFF AND PUSH20 0xFFFFFFFFFFFFFFFFFFFFFFFFFFFFFFFFFFFFFFFF AND PUSH4 0x3CC1635C PUSH2 0x16F6 DUP6 DUP6 DUP6 PUSH2 0x17E0 JUMP JUMPDEST PUSH1 0x40 MLOAD DUP3 PUSH4 0xFFFFFFFF AND PUSH1 0xE0 SHL DUP2 MSTORE PUSH1 0x4 ADD DUP1 DUP3 DUP2 MSTORE PUSH1 0x20 ADD SWAP2 POP POP PUSH1 0x0 PUSH1 0x40 MLOAD DUP1 DUP4 SUB DUP2 PUSH1 0x0 DUP8 DUP1 PUSH2 0x1727 PUSH2 0x1921 JUMP JUMPDEST ISZERO DUP1 ISZERO PUSH2 0x1733 JUMPI PUSH1 0x0 DUP1 REVERT JUMPDEST POP GAS PUSH2 0x173D PUSH2 0x19B1 JUMP JUMPDEST POP POP POP POP POP POP ISZERO DUP1 ISZERO PUSH2 0x1754 JUMPI RETURNDATASIZE PUSH1 0x0 DUP1 RETURNDATACOPY RETURNDATASIZE PUSH1 0x0 REVERT JUMPDEST POP POP POP POP DUP2 PUSH20 0xFFFFFFFFFFFFFFFFFFFFFFFFFFFFFFFFFFFFFFFF AND PUSH32 0x7E8DC09322AC82342D9DBFD49EB6497FA7AB69AC444F3763A9B8E16530342F41 DUP3 DUP6 PUSH1 0x40 MLOAD DUP1 DUP4 PUSH20 0xFFFFFFFFFFFFFFFFFFFFFFFFFFFFFFFFFFFFFFFF AND PUSH20 0xFFFFFFFFFFFFFFFFFFFFFFFFFFFFFFFFFFFFFFFF AND DUP2 MSTORE PUSH1 0x20 ADD DUP3 DUP2 MSTORE PUSH1 0x20 ADD SWAP3 POP POP POP PUSH1 0x40 MLOAD DUP1 SWAP2 SUB SWAP1 LOG2 JUMPDEST POP POP POP JUMP JUMPDEST PUSH1 0x0 DUP4 DUP4 DUP4 PUSH1 0x40 MLOAD PUSH1 0x20 ADD DUP1 DUP5 DUP2 MSTORE PUSH1 0x20 ADD DUP4 PUSH20 0xFFFFFFFFFFFFFFFFFFFFFFFFFFFFFFFFFFFFFFFF AND PUSH20 0xFFFFFFFFFFFFFFFFFFFFFFFFFFFFFFFFFFFFFFFF AND PUSH1 0x60 SHL DUP2 MSTORE PUSH1 0x14 ADD DUP3 PUSH20 0xFFFFFFFFFFFFFFFFFFFFFFFFFFFFFFFFFFFFFFFF AND PUSH20 0xFFFFFFFFFFFFFFFFFFFFFFFFFFFFFFFFFFFFFFFF AND PUSH1 0x60 SHL DUP2 MSTORE PUSH1 0x14 ADD SWAP4 POP POP POP POP PUSH1 0x40 MLOAD PUSH1 0x20 DUP2 DUP4 SUB SUB DUP2 MSTORE SWAP1 PUSH1 0x40 MSTORE DUP1 MLOAD SWAP1 PUSH1 0x20 ADD KECCAK256 SWAP1 POP SWAP4 SWAP3 POP POP POP JUMP JUMPDEST PUSH4 0x20966208 PUSH3 0x80000 DUP2 PUSH1 0xE0 SHL DUP2 MSTORE DUP4 PUSH1 0x4 DUP3 ADD MSTORE PUSH1 0x20 DUP2 PUSH1 0x24 DUP4 PUSH1 0x0 CALLER GAS CALL PUSH1 0x0 DUP2 EQ ISZERO PUSH2 0x18AE JUMPI PUSH1 0x0 DUP1 REVERT JUMPDEST DUP2 MLOAD SWAP5 POP POP POP POP JUMP JUMPDEST PUSH4 0x73509064 PUSH3 0x80000 DUP2 PUSH1 0xE0 SHL DUP2 MSTORE PUSH1 0x20 DUP2 PUSH1 0x4 DUP4 PUSH1 0x0 CALLER GAS CALL PUSH1 0x0 DUP2 EQ ISZERO PUSH2 0x18DF JUMPI PUSH1 0x0 DUP1 REVERT JUMPDEST DUP2 MLOAD SWAP5 POP POP POP POP JUMP JUMPDEST PUSH4 0x28DCB2A0 PUSH3 0x80000 DUP2 PUSH1 0xE0 SHL DUP2 MSTORE DUP4 PUSH1 0x4 DUP3 ADD MSTORE DUP5 PUSH1 0x24 DUP3 ADD MSTORE PUSH1 0x0 DUP2 PUSH1 0x44 DUP4 PUSH1 0x0 CALLER GAS CALL PUSH1 0x0 DUP2 EQ ISZERO PUSH2 0x191C JUMPI PUSH1 0x0 DUP1 REVERT JUMPDEST POP POP POP JUMP JUMPDEST PUSH4 0xC3382D0F PUSH3 0x80000 DUP2 PUSH1 0xE0 SHL DUP2 MSTORE DUP4 PUSH1 0x4 DUP3 ADD MSTORE PUSH1 0x20 DUP2 PUSH1 0x24 DUP4 PUSH1 0x0 CALLER GAS CALL PUSH1 0x0 DUP2 EQ ISZERO PUSH2 0x194F JUMPI PUSH1 0x0 DUP1 REVERT JUMPDEST DUP2 MLOAD SWAP5 POP POP POP POP JUMP JUMPDEST PUSH4 0xFBB0F79D PUSH3 0x80000 DUP2 PUSH1 0xE0 SHL DUP2 MSTORE DUP5 PUSH1 0x4 DUP3 ADD MSTORE PUSH1 0x0 JUMPDEST DUP8 DUP2 LT ISZERO PUSH2 0x198E JUMPI DUP1 DUP8 ADD MLOAD DUP2 PUSH1 0x24 DUP5 ADD ADD MSTORE PUSH1 0x20 DUP2 ADD SWAP1 POP PUSH2 0x1970 JUMP JUMPDEST POP DUP9 DUP9 DUP9 PUSH1 0x24 ADD DUP4 PUSH1 0x0 CALLER GAS CALL PUSH1 0x0 DUP2 EQ ISZERO PUSH2 0x19A9 JUMPI PUSH1 0x0 DUP1 REVERT JUMPDEST DUP1 SWAP10 POP POP POP POP JUMP JUMPDEST PUSH4 0x4C6D7C84 PUSH3 0x80000 DUP2 PUSH1 0xE0 SHL DUP2 MSTORE DUP5 PUSH1 0x4 DUP3 ADD MSTORE PUSH1 0x0 JUMPDEST DUP9 DUP2 LT ISZERO PUSH2 0x19E7 JUMPI DUP1 DUP9 ADD MLOAD DUP2 PUSH1 0x24 DUP5 ADD ADD MSTORE PUSH1 0x20 DUP2 ADD SWAP1 POP PUSH2 0x19C9 JUMP JUMPDEST POP DUP10 DUP10 DUP10 PUSH1 0x24 ADD DUP4 PUSH1 0x0 CALLER GAS CALL PUSH1 0x0 DUP2 EQ ISZERO PUSH2 0x1A02 JUMPI PUSH1 0x0 DUP1 REVERT JUMPDEST DUP1 SWAP11 POP POP POP POP JUMP INVALID NUMBER PUSH2 0x6E27 PUSH21 0x2073657420657465726E616C53746F726167652074 PUSH16 0x2061646472657373283029A265627A7A PUSH19 0x3158206F26401B920B7F1F45D7960D0F4A22E0 SWAP8 CALL PUSH5 0x40EA92E2A8 CALLCODE PUSH20 0xFBF985B3A9F264736F6C637828302E352E31362D PUSH5 0x6576656C6F PUSH17 0x2E323032302E372E32392B636F6D6D6974 0x2E CALLDATASIZE ORIGIN PUSH6 0x363465363700 PC "
		}
	}
}