{
	"abi": [
		{
			"inputs": [
				{
					"internalType": "address",
					"name": "_owner",
					"type": "address"
				},
				{
					"internalType": "address payable",
					"name": "_fundsWallet",
					"type": "address"
				},
				{
					"internalType": "address",
					"name": "_resolver",
					"type": "address"
				}
			],
			"payable": false,
			"stateMutability": "nonpayable",
			"type": "constructor"
		},
		{
			"anonymous": false,
			"inputs": [
				{
					"indexed": true,
					"internalType": "address",
					"name": "fromAddress",
					"type": "address"
				},
				{
					"indexed": true,
					"internalType": "address",
					"name": "toAddress",
					"type": "address"
				},
				{
					"indexed": false,
					"internalType": "uint256",
					"name": "fromETHAmount",
					"type": "uint256"
				},
				{
					"indexed": false,
					"internalType": "uint256",
					"name": "toAmount",
					"type": "uint256"
				},
				{
					"indexed": true,
					"internalType": "uint256",
					"name": "depositIndex",
					"type": "uint256"
				}
			],
			"name": "ClearedDeposit",
			"type": "event"
		},
		{
			"anonymous": false,
			"inputs": [
				{
					"indexed": false,
					"internalType": "string",
					"name": "fromCurrency",
					"type": "string"
				},
				{
					"indexed": false,
					"internalType": "uint256",
					"name": "fromAmount",
					"type": "uint256"
				},
				{
					"indexed": false,
					"internalType": "string",
					"name": "toCurrency",
					"type": "string"
				},
				{
					"indexed": false,
					"internalType": "uint256",
					"name": "toAmount",
					"type": "uint256"
				}
			],
			"name": "Exchange",
			"type": "event"
		},
		{
			"anonymous": false,
			"inputs": [
				{
					"indexed": false,
					"internalType": "address",
					"name": "newFundsWallet",
					"type": "address"
				}
			],
			"name": "FundsWalletUpdated",
			"type": "event"
		},
		{
			"anonymous": false,
			"inputs": [
				{
					"indexed": false,
					"internalType": "uint256",
					"name": "amount",
					"type": "uint256"
				}
			],
			"name": "MaxEthPurchaseUpdated",
			"type": "event"
		},
		{
			"anonymous": false,
			"inputs": [
				{
					"indexed": false,
					"internalType": "uint256",
					"name": "amount",
					"type": "uint256"
				}
			],
			"name": "MinimumDepositAmountUpdated",
			"type": "event"
		},
		{
			"anonymous": false,
			"inputs": [
				{
					"indexed": true,
					"internalType": "address",
					"name": "receiver",
					"type": "address"
				},
				{
					"indexed": false,
					"internalType": "uint256",
					"name": "amount",
					"type": "uint256"
				}
			],
			"name": "NonPayableContract",
			"type": "event"
		},
		{
			"anonymous": false,
			"inputs": [
				{
					"indexed": false,
					"internalType": "address",
					"name": "oldOwner",
					"type": "address"
				},
				{
					"indexed": false,
					"internalType": "address",
					"name": "newOwner",
					"type": "address"
				}
			],
			"name": "OwnerChanged",
			"type": "event"
		},
		{
			"anonymous": false,
			"inputs": [
				{
					"indexed": false,
					"internalType": "address",
					"name": "newOwner",
					"type": "address"
				}
			],
			"name": "OwnerNominated",
			"type": "event"
		},
		{
			"anonymous": false,
			"inputs": [
				{
					"indexed": false,
					"internalType": "bool",
					"name": "isPaused",
					"type": "bool"
				}
			],
			"name": "PauseChanged",
			"type": "event"
		},
		{
			"anonymous": false,
			"inputs": [
				{
					"indexed": false,
					"internalType": "address",
					"name": "newBeneficiary",
					"type": "address"
				}
			],
			"name": "SelfDestructBeneficiaryUpdated",
			"type": "event"
		},
		{
			"anonymous": false,
			"inputs": [
				{
					"indexed": false,
					"internalType": "uint256",
					"name": "selfDestructDelay",
					"type": "uint256"
				}
			],
			"name": "SelfDestructInitiated",
			"type": "event"
		},
		{
			"anonymous": false,
			"inputs": [],
			"name": "SelfDestructTerminated",
			"type": "event"
		},
		{
			"anonymous": false,
			"inputs": [
				{
					"indexed": false,
					"internalType": "address",
					"name": "beneficiary",
					"type": "address"
				}
			],
			"name": "SelfDestructed",
			"type": "event"
		},
		{
			"anonymous": false,
			"inputs": [
				{
					"indexed": true,
					"internalType": "address",
					"name": "user",
					"type": "address"
				},
				{
					"indexed": false,
					"internalType": "uint256",
					"name": "amount",
					"type": "uint256"
				},
				{
					"indexed": true,
					"internalType": "uint256",
					"name": "depositIndex",
					"type": "uint256"
				}
			],
			"name": "SynthDeposit",
			"type": "event"
		},
		{
			"anonymous": false,
			"inputs": [
				{
					"indexed": false,
					"internalType": "address",
					"name": "user",
					"type": "address"
				},
				{
					"indexed": false,
					"internalType": "uint256",
					"name": "amount",
					"type": "uint256"
				},
				{
					"indexed": false,
					"internalType": "uint256",
					"name": "minimum",
					"type": "uint256"
				}
			],
			"name": "SynthDepositNotAccepted",
			"type": "event"
		},
		{
			"anonymous": false,
			"inputs": [
				{
					"indexed": true,
					"internalType": "address",
					"name": "user",
					"type": "address"
				},
				{
					"indexed": false,
					"internalType": "uint256",
					"name": "amount",
					"type": "uint256"
				},
				{
					"indexed": true,
					"internalType": "uint256",
					"name": "depositIndex",
					"type": "uint256"
				}
			],
			"name": "SynthDepositRemoved",
			"type": "event"
		},
		{
			"anonymous": false,
			"inputs": [
				{
					"indexed": false,
					"internalType": "address",
					"name": "user",
					"type": "address"
				},
				{
					"indexed": false,
					"internalType": "uint256",
					"name": "amount",
					"type": "uint256"
				}
			],
			"name": "SynthWithdrawal",
			"type": "event"
		},
		{
			"payable": true,
			"stateMutability": "payable",
			"type": "fallback"
		},
		{
			"constant": true,
			"inputs": [],
			"name": "MAX_ADDRESSES_FROM_RESOLVER",
			"outputs": [
				{
					"internalType": "uint256",
					"name": "",
					"type": "uint256"
				}
			],
			"payable": false,
			"stateMutability": "view",
			"type": "function"
		},
		{
			"constant": true,
			"inputs": [],
			"name": "SELFDESTRUCT_DELAY",
			"outputs": [
				{
					"internalType": "uint256",
					"name": "",
					"type": "uint256"
				}
			],
			"payable": false,
			"stateMutability": "view",
			"type": "function"
		},
		{
			"constant": false,
			"inputs": [],
			"name": "acceptOwnership",
			"outputs": [],
			"payable": false,
			"stateMutability": "nonpayable",
			"type": "function"
		},
		{
			"constant": true,
			"inputs": [],
			"name": "depositEndIndex",
			"outputs": [
				{
					"internalType": "uint256",
					"name": "",
					"type": "uint256"
				}
			],
			"payable": false,
			"stateMutability": "view",
			"type": "function"
		},
		{
			"constant": true,
			"inputs": [],
			"name": "depositStartIndex",
			"outputs": [
				{
					"internalType": "uint256",
					"name": "",
					"type": "uint256"
				}
			],
			"payable": false,
			"stateMutability": "view",
			"type": "function"
		},
		{
			"constant": false,
			"inputs": [
				{
					"internalType": "uint256",
					"name": "amount",
					"type": "uint256"
				}
			],
			"name": "depositSynths",
			"outputs": [],
			"payable": false,
			"stateMutability": "nonpayable",
			"type": "function"
		},
		{
			"constant": true,
			"inputs": [
				{
					"internalType": "uint256",
					"name": "",
					"type": "uint256"
				}
			],
			"name": "deposits",
			"outputs": [
				{
					"internalType": "address payable",
					"name": "user",
					"type": "address"
				},
				{
					"internalType": "uint256",
					"name": "amount",
					"type": "uint256"
				}
			],
			"payable": false,
			"stateMutability": "view",
			"type": "function"
		},
		{
			"constant": false,
			"inputs": [],
			"name": "exchangeEtherForSNX",
			"outputs": [
				{
					"internalType": "uint256",
					"name": "",
					"type": "uint256"
				}
			],
			"payable": true,
			"stateMutability": "payable",
			"type": "function"
		},
		{
			"constant": false,
			"inputs": [
				{
					"internalType": "uint256",
					"name": "guaranteedEtherRate",
					"type": "uint256"
				},
				{
					"internalType": "uint256",
					"name": "guaranteedSynthetixRate",
					"type": "uint256"
				}
			],
			"name": "exchangeEtherForSNXAtRate",
			"outputs": [
				{
					"internalType": "uint256",
					"name": "",
					"type": "uint256"
				}
			],
			"payable": true,
			"stateMutability": "payable",
			"type": "function"
		},
		{
			"constant": false,
			"inputs": [],
			"name": "exchangeEtherForSynths",
			"outputs": [
				{
					"internalType": "uint256",
					"name": "",
					"type": "uint256"
				}
			],
			"payable": true,
			"stateMutability": "payable",
			"type": "function"
		},
		{
			"constant": false,
			"inputs": [
				{
					"internalType": "uint256",
					"name": "guaranteedRate",
					"type": "uint256"
				}
			],
			"name": "exchangeEtherForSynthsAtRate",
			"outputs": [
				{
					"internalType": "uint256",
					"name": "",
					"type": "uint256"
				}
			],
			"payable": true,
			"stateMutability": "payable",
			"type": "function"
		},
		{
			"constant": false,
			"inputs": [
				{
					"internalType": "uint256",
					"name": "synthAmount",
					"type": "uint256"
				}
			],
			"name": "exchangeSynthsForSNX",
			"outputs": [
				{
					"internalType": "uint256",
					"name": "",
					"type": "uint256"
				}
			],
			"payable": false,
			"stateMutability": "nonpayable",
			"type": "function"
		},
		{
			"constant": false,
			"inputs": [
				{
					"internalType": "uint256",
					"name": "synthAmount",
					"type": "uint256"
				},
				{
					"internalType": "uint256",
					"name": "guaranteedRate",
					"type": "uint256"
				}
			],
			"name": "exchangeSynthsForSNXAtRate",
			"outputs": [
				{
					"internalType": "uint256",
					"name": "",
					"type": "uint256"
				}
			],
			"payable": false,
			"stateMutability": "nonpayable",
			"type": "function"
		},
		{
			"constant": true,
			"inputs": [],
			"name": "fundsWallet",
			"outputs": [
				{
					"internalType": "address payable",
					"name": "",
					"type": "address"
				}
			],
			"payable": false,
			"stateMutability": "view",
			"type": "function"
		},
		{
			"constant": true,
			"inputs": [],
			"name": "getResolverAddressesRequired",
			"outputs": [
				{
					"internalType": "bytes32[24]",
					"name": "addressesRequired",
					"type": "bytes32[24]"
				}
			],
			"payable": false,
			"stateMutability": "view",
			"type": "function"
		},
		{
			"constant": false,
			"inputs": [],
			"name": "initiateSelfDestruct",
			"outputs": [],
			"payable": false,
			"stateMutability": "nonpayable",
			"type": "function"
		},
		{
			"constant": true,
			"inputs": [],
			"name": "initiationTime",
			"outputs": [
				{
					"internalType": "uint256",
					"name": "",
					"type": "uint256"
				}
			],
			"payable": false,
			"stateMutability": "view",
			"type": "function"
		},
		{
			"constant": true,
			"inputs": [
				{
					"internalType": "contract AddressResolver",
					"name": "_resolver",
					"type": "address"
				}
			],
			"name": "isResolverCached",
			"outputs": [
				{
					"internalType": "bool",
					"name": "",
					"type": "bool"
				}
			],
			"payable": false,
			"stateMutability": "view",
			"type": "function"
		},
		{
			"constant": true,
			"inputs": [],
			"name": "lastPauseTime",
			"outputs": [
				{
					"internalType": "uint256",
					"name": "",
					"type": "uint256"
				}
			],
			"payable": false,
			"stateMutability": "view",
			"type": "function"
		},
		{
			"constant": true,
			"inputs": [],
			"name": "maxEthPurchase",
			"outputs": [
				{
					"internalType": "uint256",
					"name": "",
					"type": "uint256"
				}
			],
			"payable": false,
			"stateMutability": "view",
			"type": "function"
		},
		{
			"constant": true,
			"inputs": [],
			"name": "minimumDepositAmount",
			"outputs": [
				{
					"internalType": "uint256",
					"name": "",
					"type": "uint256"
				}
			],
			"payable": false,
			"stateMutability": "view",
			"type": "function"
		},
		{
			"constant": false,
			"inputs": [
				{
					"internalType": "address",
					"name": "_owner",
					"type": "address"
				}
			],
			"name": "nominateNewOwner",
			"outputs": [],
			"payable": false,
			"stateMutability": "nonpayable",
			"type": "function"
		},
		{
			"constant": true,
			"inputs": [],
			"name": "nominatedOwner",
			"outputs": [
				{
					"internalType": "address",
					"name": "",
					"type": "address"
				}
			],
			"payable": false,
			"stateMutability": "view",
			"type": "function"
		},
		{
			"constant": true,
			"inputs": [],
			"name": "owner",
			"outputs": [
				{
					"internalType": "address",
					"name": "",
					"type": "address"
				}
			],
			"payable": false,
			"stateMutability": "view",
			"type": "function"
		},
		{
			"constant": true,
			"inputs": [],
			"name": "paused",
			"outputs": [
				{
					"internalType": "bool",
					"name": "",
					"type": "bool"
				}
			],
			"payable": false,
			"stateMutability": "view",
			"type": "function"
		},
		{
			"constant": true,
			"inputs": [],
			"name": "resolver",
			"outputs": [
				{
					"internalType": "contract AddressResolver",
					"name": "",
					"type": "address"
				}
			],
			"payable": false,
			"stateMutability": "view",
			"type": "function"
		},
		{
			"constant": true,
			"inputs": [
				{
					"internalType": "uint256",
					"name": "",
					"type": "uint256"
				}
			],
			"name": "resolverAddressesRequired",
			"outputs": [
				{
					"internalType": "bytes32",
					"name": "",
					"type": "bytes32"
				}
			],
			"payable": false,
			"stateMutability": "view",
			"type": "function"
		},
		{
			"constant": false,
			"inputs": [],
			"name": "selfDestruct",
			"outputs": [],
			"payable": false,
			"stateMutability": "nonpayable",
			"type": "function"
		},
		{
			"constant": true,
			"inputs": [],
			"name": "selfDestructBeneficiary",
			"outputs": [
				{
					"internalType": "address",
					"name": "",
					"type": "address"
				}
			],
			"payable": false,
			"stateMutability": "view",
			"type": "function"
		},
		{
			"constant": true,
			"inputs": [],
			"name": "selfDestructInitiated",
			"outputs": [
				{
					"internalType": "bool",
					"name": "",
					"type": "bool"
				}
			],
			"payable": false,
			"stateMutability": "view",
			"type": "function"
		},
		{
			"constant": false,
			"inputs": [
				{
					"internalType": "address payable",
					"name": "_fundsWallet",
					"type": "address"
				}
			],
			"name": "setFundsWallet",
			"outputs": [],
			"payable": false,
			"stateMutability": "nonpayable",
			"type": "function"
		},
		{
			"constant": false,
			"inputs": [
				{
					"internalType": "uint256",
					"name": "_maxEthPurchase",
					"type": "uint256"
				}
			],
			"name": "setMaxEthPurchase",
			"outputs": [],
			"payable": false,
			"stateMutability": "nonpayable",
			"type": "function"
		},
		{
			"constant": false,
			"inputs": [
				{
					"internalType": "uint256",
					"name": "_amount",
					"type": "uint256"
				}
			],
			"name": "setMinimumDepositAmount",
			"outputs": [],
			"payable": false,
			"stateMutability": "nonpayable",
			"type": "function"
		},
		{
			"constant": false,
			"inputs": [
				{
					"internalType": "bool",
					"name": "_paused",
					"type": "bool"
				}
			],
			"name": "setPaused",
			"outputs": [],
			"payable": false,
			"stateMutability": "nonpayable",
			"type": "function"
		},
		{
			"constant": false,
			"inputs": [
				{
					"internalType": "contract AddressResolver",
					"name": "_resolver",
					"type": "address"
				}
			],
			"name": "setResolverAndSyncCache",
			"outputs": [],
			"payable": false,
			"stateMutability": "nonpayable",
			"type": "function"
		},
		{
			"constant": false,
			"inputs": [
				{
					"internalType": "address payable",
					"name": "_beneficiary",
					"type": "address"
				}
			],
			"name": "setSelfDestructBeneficiary",
			"outputs": [],
			"payable": false,
			"stateMutability": "nonpayable",
			"type": "function"
		},
		{
			"constant": true,
			"inputs": [
				{
					"internalType": "address",
					"name": "",
					"type": "address"
				}
			],
			"name": "smallDeposits",
			"outputs": [
				{
					"internalType": "uint256",
					"name": "",
					"type": "uint256"
				}
			],
			"payable": false,
			"stateMutability": "view",
			"type": "function"
		},
		{
			"constant": true,
			"inputs": [
				{
					"internalType": "uint256",
					"name": "amount",
					"type": "uint256"
				}
			],
			"name": "synthetixReceivedForEther",
			"outputs": [
				{
					"internalType": "uint256",
					"name": "",
					"type": "uint256"
				}
			],
			"payable": false,
			"stateMutability": "view",
			"type": "function"
		},
		{
			"constant": true,
			"inputs": [
				{
					"internalType": "uint256",
					"name": "amount",
					"type": "uint256"
				}
			],
			"name": "synthetixReceivedForSynths",
			"outputs": [
				{
					"internalType": "uint256",
					"name": "",
					"type": "uint256"
				}
			],
			"payable": false,
			"stateMutability": "view",
			"type": "function"
		},
		{
			"constant": true,
			"inputs": [
				{
					"internalType": "uint256",
					"name": "amount",
					"type": "uint256"
				}
			],
			"name": "synthsReceivedForEther",
			"outputs": [
				{
					"internalType": "uint256",
					"name": "",
					"type": "uint256"
				}
			],
			"payable": false,
			"stateMutability": "view",
			"type": "function"
		},
		{
			"constant": false,
			"inputs": [],
			"name": "terminateSelfDestruct",
			"outputs": [],
			"payable": false,
			"stateMutability": "nonpayable",
			"type": "function"
		},
		{
			"constant": true,
			"inputs": [],
			"name": "totalSellableDeposits",
			"outputs": [
				{
					"internalType": "uint256",
					"name": "",
					"type": "uint256"
				}
			],
			"payable": false,
			"stateMutability": "view",
			"type": "function"
		},
		{
			"constant": false,
			"inputs": [],
			"name": "withdrawMyDepositedSynths",
			"outputs": [],
			"payable": false,
			"stateMutability": "nonpayable",
			"type": "function"
		},
		{
			"constant": false,
			"inputs": [
				{
					"internalType": "uint256",
					"name": "amount",
					"type": "uint256"
				}
			],
			"name": "withdrawSynthetix",
			"outputs": [],
			"payable": false,
			"stateMutability": "nonpayable",
			"type": "function"
		}
	],
	"evm": {
		"bytecode": {
			"linkReferences": {
				"Depot.sol": {
					"SafeDecimalMath": [
						{
							"length": 20,
							"start": 6
						},
						{
							"length": 20,
							"start": 176
						},
						{
							"length": 20,
							"start": 20172
						}
					]
				}
			},
			"object": "608060405273__$5b1a0139898c1861867d128118276f8f0f$__63907af6c06040518163ffffffff1660e01b8152600401602060405180830381868062000045620008fc565b1580156200005257600080fd5b505a6200005e62000934565b505050505015801562000075573d6000803e3d6000fd5b505050506040513d60208110156200008c57600080fd5b8101908080519060200190929190505050603202600f620000ac62000990565b505073__$5b1a0139898c1861867d128118276f8f0f$__63907af6c06040518163ffffffff1660e01b81526004016020604051808303818680620000ef620008fc565b158015620000fc57600080fd5b505a6200010862000934565b50505050501580156200011f573d6000803e3d6000fd5b505050506040513d60208110156200013657600080fd5b81019080805190602001909291905050506101f40260106200015762000990565b505060405180606001604052807f53796e746873555344000000000000000000000000000000000000000000000081526020017f45786368616e676552617465730000000000000000000000000000000000000081526020017f53796e74686574697800000000000000000000000000000000000000000000008152506012906003620001e6929190620009ca565b50348015620001f457600080fd5b5060405162006d0838038062006d08833981810160405260608110156200021a57600080fd5b8101908080519060200190929190805190602001909291908051906020019092919050505080601260188060200260405190810160405280929190826018801562000284576020028201915b816200027162000a1a565b8152602001906001019080831162000266575b505050505084600073ffffffffffffffffffffffffffffffffffffffff168173ffffffffffffffffffffffffffffffffffffffff1614156200032e576040517f08c379a00000000000000000000000000000000000000000000000000000000081526004018080602001828103825260198152602001807f4f776e657220616464726573732063616e6e6f7420626520300000000000000081525060200191505060405180910390fd5b806000806101000a816200034162000a1a565b8173ffffffffffffffffffffffffffffffffffffffff021916908373ffffffffffffffffffffffffffffffffffffffff160217906200037f62000990565b5050507fb532073b38c83145e3e5135377a08bf9aab55bc0fd7c1179cd4fb995d2a5159c600082604051808373ffffffffffffffffffffffffffffffffffffffff1673ffffffffffffffffffffffffffffffffffffffff1681526020018273ffffffffffffffffffffffffffffffffffffffff1673ffffffffffffffffffffffffffffffffffffffff1681526020019250505060405180910390a150600073ffffffffffffffffffffffffffffffffffffffff16600080906200044162000a1a565b906101000a900473ffffffffffffffffffffffffffffffffffffffff1673ffffffffffffffffffffffffffffffffffffffff161415620004e9576040517f08c379a00000000000000000000000000000000000000000000000000000000081526004018080602001828103825260118152602001807f4f776e6572206d7573742062652073657400000000000000000000000000000081525060200191505060405180910390fd5b60008090620004f762000a1a565b906101000a900473ffffffffffffffffffffffffffffffffffffffff16600360016101000a816200052762000a1a565b8173ffffffffffffffffffffffffffffffffffffffff021916908373ffffffffffffffffffffffffffffffffffffffff160217906200056562000990565b5050507fd5da63a0b864b315bc04128dedbc93888c8529ee6cf47ce664dc204339228c53600080906200059762000a1a565b906101000a900473ffffffffffffffffffffffffffffffffffffffff16604051808273ffffffffffffffffffffffffffffffffffffffff1673ffffffffffffffffffffffffffffffffffffffff16815260200191505060405180910390a1600073ffffffffffffffffffffffffffffffffffffffff16600080906200061b62000a1a565b906101000a900473ffffffffffffffffffffffffffffffffffffffff1673ffffffffffffffffffffffffffffffffffffffff161415620006c3576040517f08c379a00000000000000000000000000000000000000000000000000000000081526004018080602001828103825260118152602001807f4f776e6572206d7573742062652073657400000000000000000000000000000081525060200191505060405180910390fd5b600160068190620006d362000990565b505050600073ffffffffffffffffffffffffffffffffffffffff1660008090620006fc62000a1a565b906101000a900473ffffffffffffffffffffffffffffffffffffffff1673ffffffffffffffffffffffffffffffffffffffff161415620007a4576040517f08c379a00000000000000000000000000000000000000000000000000000000081526004018080602001828103825260118152602001807f4f776e6572206d7573742062652073657400000000000000000000000000000081525060200191505060405180910390fd5b60008090505b601881101562000846576000801b828260188110620007c557fe5b60200201511462000832576009828260188110620007df57fe5b60200201519080600181620007f362000a1a565b0180826200080062000990565b505080915050906001820390600052602060002001600090919290919091506200082962000990565b50505062000838565b62000846565b8080600101915050620007aa565b5081600760006101000a816200085b62000a1a565b8173ffffffffffffffffffffffffffffffffffffffff021916908373ffffffffffffffffffffffffffffffffffffffff160217906200089962000990565b505050505081600a60006101000a81620008b262000a1a565b8173ffffffffffffffffffffffffffffffffffffffff021916908373ffffffffffffffffffffffffffffffffffffffff16021790620008f062000990565b50505050505062000a85565b63c3382d0f620800008160e01b81528360048201526020816024836000335af160008114156200092b57600080fd5b81519450505050565b6345e97ddb620800008160e01b815284600482015260005b878110156200096c5780870151816024840101526020810190506200094c565b50888888602401836000335af160008114156200098857600080fd5b809950505050565b6328dcb2a0620800008160e01b81528360048201528460248201526000816044836000335af16000811415620009c557600080fd5b505050565b826018810192821562000a07579160200282015b8281111562000a0657825182620009f462000990565b505091602001919060010190620009de565b5b50905062000a16919062000a52565b5090565b6320966208620800008160e01b81528360048201526020816024836000335af1600081141562000a4957600080fd5b81519450505050565b62000a8291905b8082111562000a7e5760008160009062000a7262000990565b50505060010162000a59565b5090565b90565b6162738062000a956000396000f3fe6080604052600436106102675760003560e01c806391b4ded911610144578063bb7df172116100b6578063c8d889f21161007a578063c8d889f214610e22578063dc8fa6c214610e71578063e3235c9114610eac578063e6d76a7614610ed7578063f852d39314610f12578063fd12167f14610f6157610267565b8063bb7df17214610cc5578063bd32aa4414610d00578063c58aaae614610d17578063c6abb7c714610d6e578063c6c9d82814610dd357610267565b8063aab483d611610108578063aab483d614610b02578063ab49848c14610b3d578063b02c43d014610b90578063b0c2cb9614610c12578063b1338cc414610c6b578063b8225dec14610c9657610267565b806391b4ded9146109fa5780639342c0eb14610a255780639cb8a26a14610a71578063a3d8829b14610a88578063a461fc8214610ad757610267565b80633278c960116101dd578063631e1444116101a1578063631e14441461089057806364e39b87146108f95780636d5ab4a91461094a57806379ba50971461097557806381b797dc1461098c5780638da5cb5b146109a357610267565b80633278c960146107775780633be99e6f1461078e5780634d0387fb146107df57806353a47bb71461080a5780635c975abb1461086157610267565b80631627540c1161022f5780631627540c146105f857806316c38b3c1461064957806317c70de4146106865780631f930115146106b157806320714f88146106cf5780632194f3a21461072057610267565b806302279438146104c757806304f3bcec146104e5578063080c279a1461053c5780630c928bc2146105675780630c928f05146105a9575b6001600660008282610277615dfb565b019250508190610285615e32565b50505060006006610294615dfb565b90507f45544800000000000000000000000000000000000000000000000000000000006102bf610f8c565b73ffffffffffffffffffffffffffffffffffffffff16629919c0826040518263ffffffff1660e01b8152600401808281526020019150506020604051808303818680610309615e6b565b15801561031557600080fd5b505a61031f615ea2565b5050505050158015610335573d6000803e3d6000fd5b505050506040513d602081101561034b57600080fd5b8101908080519060200190929190505050156103cf576040517f08c379a00000000000000000000000000000000000000000000000000000000081526004018080602001828103825260198152602001807f52617465207374616c65206f72206e6f7420612073796e74680000000000000081525060200191505060405180910390fd5b60056000906103dc615dfb565b906101000a900460ff161561043c576040517f08c379a000000000000000000000000000000000000000000000000000000000815260040180806020018281038252603c8152602001806161b8603c913960400191505060405180910390fd5b610444610ff2565b50506006610450615dfb565b81146104c4576040517f08c379a000000000000000000000000000000000000000000000000000000000815260040180806020018281038252601f8152602001807f5265656e7472616e637947756172643a207265656e7472616e742063616c6c0081525060200191505060405180910390fd5b50005b6104cf611d35565b6040518082815260200191505060405180910390f35b3480156104f157600080fd5b506104fa612025565b604051808273ffffffffffffffffffffffffffffffffffffffff1673ffffffffffffffffffffffffffffffffffffffff16815260200191505060405180910390f35b34801561054857600080fd5b50610551612052565b6040518082815260200191505060405180910390f35b6105936004803603602081101561057d57600080fd5b810190808035906020019092919050505061205f565b6040518082815260200191505060405180910390f35b3480156105b557600080fd5b506105e2600480360360208110156105cc57600080fd5b8101908080359060200190929190505050612334565b6040518082815260200191505060405180910390f35b34801561060457600080fd5b506106476004803603602081101561061b57600080fd5b81019080803573ffffffffffffffffffffffffffffffffffffffff169060200190929190505050612415565b005b34801561065557600080fd5b506106846004803603602081101561066c57600080fd5b81019080803515159060200190929190505050612580565b005b34801561069257600080fd5b5061069b61270f565b6040518082815260200191505060405180910390f35b6106b961271c565b6040518082815260200191505060405180910390f35b3480156106db57600080fd5b5061071e600480360360208110156106f257600080fd5b81019080803573ffffffffffffffffffffffffffffffffffffffff169060200190929190505050612980565b005b34801561072c57600080fd5b50610735612b8e565b604051808273ffffffffffffffffffffffffffffffffffffffff1673ffffffffffffffffffffffffffffffffffffffff16815260200191505060405180910390f35b34801561078357600080fd5b5061078c612bbb565b005b34801561079a57600080fd5b506107dd600480360360208110156107b157600080fd5b81019080803573ffffffffffffffffffffffffffffffffffffffff169060200190929190505050612cd9565b005b3480156107eb57600080fd5b506107f4612f96565b6040518082815260200191505060405180910390f35b34801561081657600080fd5b5061081f612fa3565b604051808273ffffffffffffffffffffffffffffffffffffffff1673ffffffffffffffffffffffffffffffffffffffff16815260200191505060405180910390f35b34801561086d57600080fd5b50610876612fd0565b604051808215151515815260200191505060405180910390f35b34801561089c57600080fd5b506108df600480360360208110156108b357600080fd5b81019080803573ffffffffffffffffffffffffffffffffffffffff169060200190929190505050612fea565b604051808215151515815260200191505060405180910390f35b34801561090557600080fd5b506109486004803603602081101561091c57600080fd5b81019080803573ffffffffffffffffffffffffffffffffffffffff169060200190929190505050613260565b005b34801561095657600080fd5b5061095f6133f4565b6040518082815260200191505060405180910390f35b34801561098157600080fd5b5061098a613401565b005b34801561099857600080fd5b506109a161366b565b005b3480156109af57600080fd5b506109b8613add565b604051808273ffffffffffffffffffffffffffffffffffffffff1673ffffffffffffffffffffffffffffffffffffffff16815260200191505060405180910390f35b348015610a0657600080fd5b50610a0f613b09565b6040518082815260200191505060405180910390f35b610a5b60048036036040811015610a3b57600080fd5b810190808035906020019092919080359060200190929190505050613b16565b6040518082815260200191505060405180910390f35b348015610a7d57600080fd5b50610a86614043565b005b348015610a9457600080fd5b50610ac160048036036020811015610aab57600080fd5b8101908080359060200190929190505050614299565b6040518082815260200191505060405180910390f35b348015610ae357600080fd5b50610aec61437a565b6040518082815260200191505060405180910390f35b348015610b0e57600080fd5b50610b3b60048036036020811015610b2557600080fd5b8101908080359060200190929190505050614381565b005b348015610b4957600080fd5b50610b52614571565b6040518082601860200280838360005b83811015610b7d578082015181840152602081019050610b62565b5050505090500191505060405180910390f35b348015610b9c57600080fd5b50610bc960048036036020811015610bb357600080fd5b81019080803590602001909291905050506145df565b604051808373ffffffffffffffffffffffffffffffffffffffff1673ffffffffffffffffffffffffffffffffffffffff1681526020018281526020019250505060405180910390f35b348015610c1e57600080fd5b50610c5560048036036040811015610c3557600080fd5b810190808035906020019092919080359060200190929190505050614631565b6040518082815260200191505060405180910390f35b348015610c7757600080fd5b50610c80614908565b6040518082815260200191505060405180910390f35b348015610ca257600080fd5b50610cab614915565b604051808215151515815260200191505060405180910390f35b348015610cd157600080fd5b50610cfe60048036036020811015610ce857600080fd5b810190808035906020019092919050505061492f565b005b348015610d0c57600080fd5b50610d15614a36565b005b348015610d2357600080fd5b50610d2c614b69565b604051808273ffffffffffffffffffffffffffffffffffffffff1673ffffffffffffffffffffffffffffffffffffffff16815260200191505060405180910390f35b348015610d7a57600080fd5b50610dbd60048036036020811015610d9157600080fd5b81019080803573ffffffffffffffffffffffffffffffffffffffff169060200190929190505050614b96565b6040518082815260200191505060405180910390f35b348015610ddf57600080fd5b50610e0c60048036036020811015610df657600080fd5b8101908080359060200190929190505050614bb5565b6040518082815260200191505060405180910390f35b348015610e2e57600080fd5b50610e5b60048036036020811015610e4557600080fd5b8101908080359060200190929190505050614be4565b6040518082815260200191505060405180910390f35b348015610e7d57600080fd5b50610eaa60048036036020811015610e9457600080fd5b8101908080359060200190929190505050614cd2565b005b348015610eb857600080fd5b50610ec16150e1565b6040518082815260200191505060405180910390f35b348015610ee357600080fd5b50610f1060048036036020811015610efa57600080fd5b81019080803590602001909291905050506150e6565b005b348015610f1e57600080fd5b50610f4b60048036036020811015610f3557600080fd5b81019080803590602001909291905050506152a3565b6040518082815260200191505060405180910390f35b348015610f6d57600080fd5b50610f7661545c565b6040518082815260200191505060405180910390f35b6000610fed7f45786368616e67655261746573000000000000000000000000000000000000006040518060400160405280601d81526020017f4d697373696e672045786368616e676552617465732061646472657373000000815250615469565b905090565b60006010610ffe615dfb565b341115611056576040517f08c379a00000000000000000000000000000000000000000000000000000000081526004018080602001828103825260258152602001806161636025913960400191505060405180910390fd5b600080611131611064610f8c565b73ffffffffffffffffffffffffffffffffffffffff1663ac82f6087f45544800000000000000000000000000000000000000000000000000000000006040518263ffffffff1660e01b81526004018082815260200191505060206040518083038186806110cf615e6b565b1580156110db57600080fd5b505a6110e5615ea2565b50505050501580156110fb573d6000803e3d6000fd5b505050506040513d602081101561111157600080fd5b81019080805190602001909291905050503461558c90919063ffffffff16565b905060008190506000600c611144615dfb565b90505b60008211801561115f5750600d61115c615dfb565b81105b15611b1b5761116c615efb565b600b60008381526020019081526020016000206040518060400160405290816000820160009061119a615dfb565b906101000a900473ffffffffffffffffffffffffffffffffffffffff1673ffffffffffffffffffffffffffffffffffffffff1673ffffffffffffffffffffffffffffffffffffffff168152602001600182016111f4615dfb565b815250509050600073ffffffffffffffffffffffffffffffffffffffff16816000015173ffffffffffffffffffffffffffffffffffffffff161415611264576112506001600c611242615dfb565b6155b990919063ffffffff16565b600c819061125c615e32565b505050611b0d565b82816020015111156116c857600061128984836020015161564190919063ffffffff16565b90506040518060400160405280836000015173ffffffffffffffffffffffffffffffffffffffff16815260200182815250600b600085815260200190815260200160002060008201518160000160006101000a816112e5615dfb565b8173ffffffffffffffffffffffffffffffffffffffff021916908373ffffffffffffffffffffffffffffffffffffffff16021790611321615e32565b505050602082015181600101611335615e32565b505090505061135684600e611348615dfb565b61564190919063ffffffff16565b600e8190611362615e32565b50505061143d611370610f8c565b73ffffffffffffffffffffffffffffffffffffffff1663ac82f6087f45544800000000000000000000000000000000000000000000000000000000006040518263ffffffff1660e01b81526004018082815260200191505060206040518083038186806113db615e6b565b1580156113e757600080fd5b505a6113f1615ea2565b5050505050158015611407573d6000803e3d6000fd5b505050506040513d602081101561141d57600080fd5b8101908080519060200190929190505050856156ca90919063ffffffff16565b9550816000015173ffffffffffffffffffffffffffffffffffffffff166108fc87908115029060405160006040518083038185888861147a615f2b565b505050505050935050505061155d57600a600090611496615dfb565b906101000a900473ffffffffffffffffffffffffffffffffffffffff1673ffffffffffffffffffffffffffffffffffffffff166108fc8790811502906040516000604051808303818588886114e9615f2b565b5050505050509350505050158015611505573d6000803e3d6000fd5b50816000015173ffffffffffffffffffffffffffffffffffffffff167ff2435d3901399daa085f8b58d2409fff9b83ce4ca97c1f144b532f5a08b1c96c876040518082815260200191505060405180910390a26115d8565b82826000015173ffffffffffffffffffffffffffffffffffffffff165a611582615f84565b73ffffffffffffffffffffffffffffffffffffffff167f6d957e9e816107f67cb7118461e3c259e96896f80223c9af2972596c2fdd401c8988604051808381526020018281526020019250505060405180910390a45b6115e0615700565b73ffffffffffffffffffffffffffffffffffffffff1663a9059cbb5a611604615f84565b866040518363ffffffff1660e01b8152600401808373ffffffffffffffffffffffffffffffffffffffff1673ffffffffffffffffffffffffffffffffffffffff1681526020018281526020019250505060206040518083038160008780611669615e6b565b15801561167557600080fd5b505a61167f615f2b565b505050505050158015611696573d6000803e3d6000fd5b505050506040513d60208110156116ac57600080fd5b8101908080519060200190929190505050506000935050611b0c565b82816020015111611b0b57600b6000838152602001908152602001600020600080820160006101000a816116fa615dfb565b9073ffffffffffffffffffffffffffffffffffffffff0219169061171c615e32565b50506001820160009061172d615e32565b5050505061174e6001600c611740615dfb565b6155b990919063ffffffff16565b600c819061175a615e32565b50505061177d8160200151600e61176f615dfb565b61564190919063ffffffff16565b600e8190611789615e32565b505050611868611797610f8c565b73ffffffffffffffffffffffffffffffffffffffff1663ac82f6087f45544800000000000000000000000000000000000000000000000000000000006040518263ffffffff1660e01b8152600401808281526020019150506020604051808303818680611802615e6b565b15801561180e57600080fd5b505a611818615ea2565b505050505015801561182e573d6000803e3d6000fd5b505050506040513d602081101561184457600080fd5b810190808051906020019092919050505082602001516156ca90919063ffffffff16565b9450806000015173ffffffffffffffffffffffffffffffffffffffff166108fc8690811502906040516000604051808303818588886118a5615f2b565b505050505050935050505061198857600a6000906118c1615dfb565b906101000a900473ffffffffffffffffffffffffffffffffffffffff1673ffffffffffffffffffffffffffffffffffffffff166108fc869081150290604051600060405180830381858888611914615f2b565b5050505050509350505050158015611930573d6000803e3d6000fd5b50806000015173ffffffffffffffffffffffffffffffffffffffff167ff2435d3901399daa085f8b58d2409fff9b83ce4ca97c1f144b532f5a08b1c96c866040518082815260200191505060405180910390a2611a07565b81816000015173ffffffffffffffffffffffffffffffffffffffff165a6119ad615f84565b73ffffffffffffffffffffffffffffffffffffffff167f6d957e9e816107f67cb7118461e3c259e96896f80223c9af2972596c2fdd401c888560200151604051808381526020018281526020019250505060405180910390a45b611a0f615700565b73ffffffffffffffffffffffffffffffffffffffff1663a9059cbb5a611a33615f84565b83602001516040518363ffffffff1660e01b8152600401808373ffffffffffffffffffffffffffffffffffffffff1673ffffffffffffffffffffffffffffffffffffffff1681526020018281526020019250505060206040518083038160008780611a9c615e6b565b158015611aa857600080fd5b505a611ab2615f2b565b505050505050158015611ac9573d6000803e3d6000fd5b505050506040513d6020811015611adf57600080fd5b810190808051906020019092919050505050611b0881602001518461564190919063ffffffff16565b92505b5b5b508080600101915050611147565b506000811115611c59575a611b2e615f84565b73ffffffffffffffffffffffffffffffffffffffff166108fc611c1f611b52610f8c565b73ffffffffffffffffffffffffffffffffffffffff1663ac82f6087f45544800000000000000000000000000000000000000000000000000000000006040518263ffffffff1660e01b8152600401808281526020019150506020604051808303818680611bbd615e6b565b158015611bc957600080fd5b505a611bd3615ea2565b5050505050158015611be9573d6000803e3d6000fd5b505050506040513d6020811015611bff57600080fd5b8101908080519060200190929190505050846156ca90919063ffffffff16565b9081150290604051600060405180830381858888611c3b615f2b565b5050505050509350505050158015611c57573d6000803e3d6000fd5b505b6000611c6e828461564190919063ffffffff16565b90506000811115611d2b577fdb1741ffc6844b04a9284bb6337fb0ccfe543a493ef0ac8e725242201e93d4bd3482604051808060200184815260200180602001848152602001838103835260038152602001807f4554480000000000000000000000000000000000000000000000000000000000815250602001838103825260048152602001807f735553440000000000000000000000000000000000000000000000000000000081525060200194505050505060405180910390a15b8094505050505090565b60007f534e580000000000000000000000000000000000000000000000000000000000611d60610f8c565b73ffffffffffffffffffffffffffffffffffffffff16629919c0826040518263ffffffff1660e01b8152600401808281526020019150506020604051808303818680611daa615e6b565b158015611db657600080fd5b505a611dc0615ea2565b5050505050158015611dd6573d6000803e3d6000fd5b505050506040513d6020811015611dec57600080fd5b810190808051906020019092919050505015611e70576040517f08c379a00000000000000000000000000000000000000000000000000000000081526004018080602001828103825260198152602001807f52617465207374616c65206f72206e6f7420612073796e74680000000000000081525060200191505060405180910390fd5b7f4554480000000000000000000000000000000000000000000000000000000000611e99610f8c565b73ffffffffffffffffffffffffffffffffffffffff16629919c0826040518263ffffffff1660e01b8152600401808281526020019150506020604051808303818680611ee3615e6b565b158015611eef57600080fd5b505a611ef9615ea2565b5050505050158015611f0f573d6000803e3d6000fd5b505050506040513d6020811015611f2557600080fd5b810190808051906020019092919050505015611fa9576040517f08c379a00000000000000000000000000000000000000000000000000000000081526004018080602001828103825260198152602001807f52617465207374616c65206f72206e6f7420612073796e74680000000000000081525060200191505060405180910390fd5b6005600090611fb6615dfb565b906101000a900460ff1615612016576040517f08c379a000000000000000000000000000000000000000000000000000000000815260040180806020018281038252603c8152602001806161b8603c913960400191505060405180910390fd5b61201e615766565b9250505090565b6007600090612032615dfb565b906101000a900473ffffffffffffffffffffffffffffffffffffffff1681565b600f61205c615dfb565b81565b60007f455448000000000000000000000000000000000000000000000000000000000061208a610f8c565b73ffffffffffffffffffffffffffffffffffffffff16629919c0826040518263ffffffff1660e01b81526004018082815260200191505060206040518083038186806120d4615e6b565b1580156120e057600080fd5b505a6120ea615ea2565b5050505050158015612100573d6000803e3d6000fd5b505050506040513d602081101561211657600080fd5b81019080805190602001909291905050501561219a576040517f08c379a00000000000000000000000000000000000000000000000000000000081526004018080602001828103825260198152602001807f52617465207374616c65206f72206e6f7420612073796e74680000000000000081525060200191505060405180910390fd5b60056000906121a7615dfb565b906101000a900460ff1615612207576040517f08c379a000000000000000000000000000000000000000000000000000000000815260040180806020018281038252603c8152602001806161b8603c913960400191505060405180910390fd5b61220f610f8c565b73ffffffffffffffffffffffffffffffffffffffff1663ac82f6087f45544800000000000000000000000000000000000000000000000000000000006040518263ffffffff1660e01b815260040180828152602001915050602060405180830381868061227a615e6b565b15801561228657600080fd5b505a612290615ea2565b50505050501580156122a6573d6000803e3d6000fd5b505050506040513d60208110156122bc57600080fd5b81019080805190602001909291905050508314612324576040517f08c379a00000000000000000000000000000000000000000000000000000000081526004018080602001828103825260258152602001806161f46025913960400191505060405180910390fd5b61232c610ff2565b915050919050565b600061240e612341610f8c565b73ffffffffffffffffffffffffffffffffffffffff1663ac82f6087f45544800000000000000000000000000000000000000000000000000000000006040518263ffffffff1660e01b81526004018082815260200191505060206040518083038186806123ac615e6b565b1580156123b857600080fd5b505a6123c2615ea2565b50505050501580156123d8573d6000803e3d6000fd5b505050506040513d60208110156123ee57600080fd5b81019080805190602001909291905050508361558c90919063ffffffff16565b9050919050565b60008090612421615dfb565b906101000a900473ffffffffffffffffffffffffffffffffffffffff1673ffffffffffffffffffffffffffffffffffffffff165a61245d615f84565b73ffffffffffffffffffffffffffffffffffffffff16146124c9576040517f08c379a000000000000000000000000000000000000000000000000000000000815260040180806020018281038252602f815260200180616113602f913960400191505060405180910390fd5b80600160006101000a816124db615dfb565b8173ffffffffffffffffffffffffffffffffffffffff021916908373ffffffffffffffffffffffffffffffffffffffff16021790612517615e32565b5050507f906a1c6bd7e3091ea86693dd029a831c19049ce77f1dce2ce0bab1cacbabce2281604051808273ffffffffffffffffffffffffffffffffffffffff1673ffffffffffffffffffffffffffffffffffffffff16815260200191505060405180910390a150565b6000809061258c615dfb565b906101000a900473ffffffffffffffffffffffffffffffffffffffff1673ffffffffffffffffffffffffffffffffffffffff165a6125c8615f84565b73ffffffffffffffffffffffffffffffffffffffff1614612634576040517f08c379a000000000000000000000000000000000000000000000000000000000815260040180806020018281038252602f815260200180616113602f913960400191505060405180910390fd5b6005600090612641615dfb565b906101000a900460ff161515811515141561265b5761270c565b80600560006101000a8161266d615dfb565b8160ff02191690831515021790612682615e32565b5050506005600090612692615dfb565b906101000a900460ff16156126ba575a6126aa615fb5565b600481906126b6615e32565b5050505b7f8fb6c181ee25a520cf3dd6565006ef91229fcfe5a989566c2a3b8c115570cec560056000906126e8615dfb565b906101000a900460ff16604051808215151515815260200191505060405180910390a15b50565b6002612719615dfb565b81565b6000600160066000828261272e615dfb565b01925050819061273c615e32565b5050506000600661274b615dfb565b90507f4554480000000000000000000000000000000000000000000000000000000000612776610f8c565b73ffffffffffffffffffffffffffffffffffffffff16629919c0826040518263ffffffff1660e01b81526004018082815260200191505060206040518083038186806127c0615e6b565b1580156127cc57600080fd5b505a6127d6615ea2565b50505050501580156127ec573d6000803e3d6000fd5b505050506040513d602081101561280257600080fd5b810190808051906020019092919050505015612886576040517f08c379a00000000000000000000000000000000000000000000000000000000081526004018080602001828103825260198152602001807f52617465207374616c65206f72206e6f7420612073796e74680000000000000081525060200191505060405180910390fd5b6005600090612893615dfb565b906101000a900460ff16156128f3576040517f08c379a000000000000000000000000000000000000000000000000000000000815260040180806020018281038252603c8152602001806161b8603c913960400191505060405180910390fd5b6128fb610ff2565b9250506006612908615dfb565b811461297c576040517f08c379a000000000000000000000000000000000000000000000000000000000815260040180806020018281038252601f8152602001807f5265656e7472616e637947756172643a207265656e7472616e742063616c6c0081525060200191505060405180910390fd5b5090565b6000809061298c615dfb565b906101000a900473ffffffffffffffffffffffffffffffffffffffff1673ffffffffffffffffffffffffffffffffffffffff165a6129c8615f84565b73ffffffffffffffffffffffffffffffffffffffff1614612a34576040517f08c379a000000000000000000000000000000000000000000000000000000000815260040180806020018281038252602f815260200180616113602f913960400191505060405180910390fd5b600073ffffffffffffffffffffffffffffffffffffffff168173ffffffffffffffffffffffffffffffffffffffff161415612ad7576040517f08c379a000000000000000000000000000000000000000000000000000000000815260040180806020018281038252601c8152602001807f42656e6566696369617279206d757374206e6f74206265207a65726f0000000081525060200191505060405180910390fd5b80600360016101000a81612ae9615dfb565b8173ffffffffffffffffffffffffffffffffffffffff021916908373ffffffffffffffffffffffffffffffffffffffff16021790612b25615e32565b5050507fd5da63a0b864b315bc04128dedbc93888c8529ee6cf47ce664dc204339228c5381604051808273ffffffffffffffffffffffffffffffffffffffff1673ffffffffffffffffffffffffffffffffffffffff16815260200191505060405180910390a150565b600a600090612b9b615dfb565b906101000a900473ffffffffffffffffffffffffffffffffffffffff1681565b60008090612bc7615dfb565b906101000a900473ffffffffffffffffffffffffffffffffffffffff1673ffffffffffffffffffffffffffffffffffffffff165a612c03615f84565b73ffffffffffffffffffffffffffffffffffffffff1614612c6f576040517f08c379a000000000000000000000000000000000000000000000000000000000815260040180806020018281038252602f815260200180616113602f913960400191505060405180910390fd5b600060028190612c7d615e32565b5050506000600360006101000a81612c93615dfb565b8160ff02191690831515021790612ca8615e32565b5050507f6adcc7125002935e0aa31697538ebbd65cfddf20431eb6ecdcfc3e238bfd082c60405160405180910390a1565b60008090612ce5615dfb565b906101000a900473ffffffffffffffffffffffffffffffffffffffff1673ffffffffffffffffffffffffffffffffffffffff165a612d21615f84565b73ffffffffffffffffffffffffffffffffffffffff1614612d8d576040517f08c379a000000000000000000000000000000000000000000000000000000000815260040180806020018281038252602f815260200180616113602f913960400191505060405180910390fd5b80600760006101000a81612d9f615dfb565b8173ffffffffffffffffffffffffffffffffffffffff021916908373ffffffffffffffffffffffffffffffffffffffff16021790612ddb615e32565b50505060008090505b600980612def615dfb565b9050811015612f9257600060098281612e06615dfb565b8110612e0e57fe5b90600052602060002001612e20615dfb565b90506007600090612e2f615dfb565b906101000a900473ffffffffffffffffffffffffffffffffffffffff1673ffffffffffffffffffffffffffffffffffffffff1663dacb2d01826040518263ffffffff1660e01b81526004018082815260200180602001828103825260178152602001807f5265736f6c766572206d697373696e6720746172676574000000000000000000815250602001925050506020604051808303818680612ed0615e6b565b158015612edc57600080fd5b505a612ee6615ea2565b5050505050158015612efc573d6000803e3d6000fd5b505050506040513d6020811015612f1257600080fd5b81019080805190602001909291905050506008600083815260200190815260200160002060006101000a81612f45615dfb565b8173ffffffffffffffffffffffffffffffffffffffff021916908373ffffffffffffffffffffffffffffffffffffffff16021790612f81615e32565b505050508080600101915050612de4565b5050565b600e612fa0615dfb565b81565b6001600090612fb0615dfb565b906101000a900473ffffffffffffffffffffffffffffffffffffffff1681565b6005600090612fdd615dfb565b906101000a900460ff1681565b60008173ffffffffffffffffffffffffffffffffffffffff166007600090613010615dfb565b906101000a900473ffffffffffffffffffffffffffffffffffffffff1673ffffffffffffffffffffffffffffffffffffffff1614613051576000905061325b565b60008090505b600980613062615dfb565b905081101561325557600060098281613079615dfb565b811061308157fe5b90600052602060002001613093615dfb565b9050600860008281526020019081526020016000206000906130b3615dfb565b906101000a900473ffffffffffffffffffffffffffffffffffffffff1673ffffffffffffffffffffffffffffffffffffffff1660076000906130f3615dfb565b906101000a900473ffffffffffffffffffffffffffffffffffffffff1673ffffffffffffffffffffffffffffffffffffffff166321f8a721836040518263ffffffff1660e01b815260040180828152602001915050602060405180830381868061315b615e6b565b15801561316757600080fd5b505a613171615ea2565b5050505050158015613187573d6000803e3d6000fd5b505050506040513d602081101561319d57600080fd5b810190808051906020019092919050505073ffffffffffffffffffffffffffffffffffffffff161415806132375750600073ffffffffffffffffffffffffffffffffffffffff1660086000838152602001908152602001600020600090613202615dfb565b906101000a900473ffffffffffffffffffffffffffffffffffffffff1673ffffffffffffffffffffffffffffffffffffffff16145b156132475760009250505061325b565b508080600101915050613057565b50600190505b919050565b6000809061326c615dfb565b906101000a900473ffffffffffffffffffffffffffffffffffffffff1673ffffffffffffffffffffffffffffffffffffffff165a6132a8615f84565b73ffffffffffffffffffffffffffffffffffffffff1614613314576040517f08c379a000000000000000000000000000000000000000000000000000000000815260040180806020018281038252602f815260200180616113602f913960400191505060405180910390fd5b80600a60006101000a81613326615dfb565b8173ffffffffffffffffffffffffffffffffffffffff021916908373ffffffffffffffffffffffffffffffffffffffff16021790613362615e32565b5050507f4deb077bf9c4bc824cc2c989e01a5e53b0a4ecc44c5039d46abc9ffc88f8a050600a600090613393615dfb565b906101000a900473ffffffffffffffffffffffffffffffffffffffff16604051808273ffffffffffffffffffffffffffffffffffffffff1673ffffffffffffffffffffffffffffffffffffffff16815260200191505060405180910390a150565b600c6133fe615dfb565b81565b600160009061340e615dfb565b906101000a900473ffffffffffffffffffffffffffffffffffffffff1673ffffffffffffffffffffffffffffffffffffffff165a61344a615f84565b73ffffffffffffffffffffffffffffffffffffffff16146134b6576040517f08c379a000000000000000000000000000000000000000000000000000000000815260040180806020018281038252603581526020018061608e6035913960400191505060405180910390fd5b7fb532073b38c83145e3e5135377a08bf9aab55bc0fd7c1179cd4fb995d2a5159c600080906134e3615dfb565b906101000a900473ffffffffffffffffffffffffffffffffffffffff16600160009061350d615dfb565b906101000a900473ffffffffffffffffffffffffffffffffffffffff16604051808373ffffffffffffffffffffffffffffffffffffffff1673ffffffffffffffffffffffffffffffffffffffff1681526020018273ffffffffffffffffffffffffffffffffffffffff1673ffffffffffffffffffffffffffffffffffffffff1681526020019250505060405180910390a160016000906135ab615dfb565b906101000a900473ffffffffffffffffffffffffffffffffffffffff166000806101000a816135d8615dfb565b8173ffffffffffffffffffffffffffffffffffffffff021916908373ffffffffffffffffffffffffffffffffffffffff16021790613614615e32565b5050506000600160006101000a8161362a615dfb565b8173ffffffffffffffffffffffffffffffffffffffff021916908373ffffffffffffffffffffffffffffffffffffffff16021790613666615e32565b505050565b60008090506000600c61367c615dfb565b90505b600d613689615dfb565b81101561384357613698615efb565b600b6000838152602001908152602001600020604051806040016040529081600082016000906136c6615dfb565b906101000a900473ffffffffffffffffffffffffffffffffffffffff1673ffffffffffffffffffffffffffffffffffffffff1673ffffffffffffffffffffffffffffffffffffffff16815260200160018201613720615dfb565b8152505090505a61372f615f84565b73ffffffffffffffffffffffffffffffffffffffff16816000015173ffffffffffffffffffffffffffffffffffffffff1614156138355761377d8160200151846155b990919063ffffffff16565b9250600b6000838152602001908152602001600020600080820160006101000a816137a6615dfb565b9073ffffffffffffffffffffffffffffffffffffffff021916906137c8615e32565b5050600182016000906137d9615e32565b5050505081816000015173ffffffffffffffffffffffffffffffffffffffff167f3aa2b18eace5e5727a4ab525921b9b0a1ca1afdb0f96b599e3ab2d76cb5e7f7283602001516040518082815260200191505060405180910390a35b50808060010191505061367f565b5061386081600e613852615dfb565b61564190919063ffffffff16565b600e819061386c615e32565b5050506138d0601160005a61387f615f84565b73ffffffffffffffffffffffffffffffffffffffff1673ffffffffffffffffffffffffffffffffffffffff1681526020019081526020016000206138c1615dfb565b826155b990919063ffffffff16565b90506000601160005a6138e1615f84565b73ffffffffffffffffffffffffffffffffffffffff1673ffffffffffffffffffffffffffffffffffffffff1681526020019081526020016000208190613925615e32565b50505060008111613981576040517f08c379a00000000000000000000000000000000000000000000000000000000081526004018080602001828103825260218152602001806160f26021913960400191505060405180910390fd5b613989615700565b73ffffffffffffffffffffffffffffffffffffffff1663a9059cbb5a6139ad615f84565b836040518363ffffffff1660e01b8152600401808373ffffffffffffffffffffffffffffffffffffffff1673ffffffffffffffffffffffffffffffffffffffff1681526020018281526020019250505060206040518083038160008780613a12615e6b565b158015613a1e57600080fd5b505a613a28615f2b565b505050505050158015613a3f573d6000803e3d6000fd5b505050506040513d6020811015613a5557600080fd5b8101908080519060200190929190505050507faf6ec623f558c7b3527ff6c9c09432c7d81a3d38bd2e1eaaee2efe7aac23c28b5a613a91615f84565b82604051808373ffffffffffffffffffffffffffffffffffffffff1673ffffffffffffffffffffffffffffffffffffffff1681526020018281526020019250505060405180910390a150565b60008090613ae9615dfb565b906101000a900473ffffffffffffffffffffffffffffffffffffffff1681565b6004613b13615dfb565b81565b60007f534e580000000000000000000000000000000000000000000000000000000000613b41610f8c565b73ffffffffffffffffffffffffffffffffffffffff16629919c0826040518263ffffffff1660e01b8152600401808281526020019150506020604051808303818680613b8b615e6b565b158015613b9757600080fd5b505a613ba1615ea2565b5050505050158015613bb7573d6000803e3d6000fd5b505050506040513d6020811015613bcd57600080fd5b810190808051906020019092919050505015613c51576040517f08c379a00000000000000000000000000000000000000000000000000000000081526004018080602001828103825260198152602001807f52617465207374616c65206f72206e6f7420612073796e74680000000000000081525060200191505060405180910390fd5b7f4554480000000000000000000000000000000000000000000000000000000000613c7a610f8c565b73ffffffffffffffffffffffffffffffffffffffff16629919c0826040518263ffffffff1660e01b8152600401808281526020019150506020604051808303818680613cc4615e6b565b158015613cd057600080fd5b505a613cda615ea2565b5050505050158015613cf0573d6000803e3d6000fd5b505050506040513d6020811015613d0657600080fd5b810190808051906020019092919050505015613d8a576040517f08c379a00000000000000000000000000000000000000000000000000000000081526004018080602001828103825260198152602001807f52617465207374616c65206f72206e6f7420612073796e74680000000000000081525060200191505060405180910390fd5b6005600090613d97615dfb565b906101000a900460ff1615613df7576040517f08c379a000000000000000000000000000000000000000000000000000000000815260040180806020018281038252603c8152602001806161b8603c913960400191505060405180910390fd5b613dff610f8c565b73ffffffffffffffffffffffffffffffffffffffff1663ac82f6087f45544800000000000000000000000000000000000000000000000000000000006040518263ffffffff1660e01b8152600401808281526020019150506020604051808303818680613e6a615e6b565b158015613e7657600080fd5b505a613e80615ea2565b5050505050158015613e96573d6000803e3d6000fd5b505050506040513d6020811015613eac57600080fd5b81019080805190602001909291905050508514613f14576040517f08c379a000000000000000000000000000000000000000000000000000000000815260040180806020018281038252602b815260200180616063602b913960400191505060405180910390fd5b613f1c610f8c565b73ffffffffffffffffffffffffffffffffffffffff1663ac82f6087f534e5800000000000000000000000000000000000000000000000000000000006040518263ffffffff1660e01b8152600401808281526020019150506020604051808303818680613f87615e6b565b158015613f9357600080fd5b505a613f9d615ea2565b5050505050158015613fb3573d6000803e3d6000fd5b505050506040513d6020811015613fc957600080fd5b81019080805190602001909291905050508414614031576040517f08c379a000000000000000000000000000000000000000000000000000000000815260040180806020018281038252602f8152602001806160c3602f913960400191505060405180910390fd5b614039615766565b9250505092915050565b6000809061404f615dfb565b906101000a900473ffffffffffffffffffffffffffffffffffffffff1673ffffffffffffffffffffffffffffffffffffffff165a61408b615f84565b73ffffffffffffffffffffffffffffffffffffffff16146140f7576040517f08c379a000000000000000000000000000000000000000000000000000000000815260040180806020018281038252602f815260200180616113602f913960400191505060405180910390fd5b6003600090614104615dfb565b906101000a900460ff16614180576040517f08c379a000000000000000000000000000000000000000000000000000000000815260040180806020018281038252601f8152602001807f53656c66204465737472756374206e6f742079657420696e697469617465640081525060200191505060405180910390fd5b5a614189615fb5565b6224ea006002614197615dfb565b011061420b576040517f08c379a000000000000000000000000000000000000000000000000000000000815260040180806020018281038252601b8152602001807f53656c662064657374727563742064656c6179206e6f74206d6574000000000081525060200191505060405180910390fd5b7f8a09e1677ced846cb537dc2b172043bd05a1a81ad7e0033a7ef8ba762df990b76003600190614239615dfb565b906101000a900473ffffffffffffffffffffffffffffffffffffffff16604051808273ffffffffffffffffffffffffffffffffffffffff1673ffffffffffffffffffffffffffffffffffffffff16815260200191505060405180910390a1565b60006143736142a6610f8c565b73ffffffffffffffffffffffffffffffffffffffff1663ac82f6087f534e5800000000000000000000000000000000000000000000000000000000006040518263ffffffff1660e01b8152600401808281526020019150506020604051808303818680614311615e6b565b15801561431d57600080fd5b505a614327615ea2565b505050505015801561433d573d6000803e3d6000fd5b505050506040513d602081101561435357600080fd5b8101908080519060200190929190505050836156ca90919063ffffffff16565b9050919050565b6224ea0081565b6000809061438d615dfb565b906101000a900473ffffffffffffffffffffffffffffffffffffffff1673ffffffffffffffffffffffffffffffffffffffff165a6143c9615f84565b73ffffffffffffffffffffffffffffffffffffffff1614614435576040517f08c379a000000000000000000000000000000000000000000000000000000000815260040180806020018281038252602f815260200180616113602f913960400191505060405180910390fd5b73__$5b1a0139898c1861867d128118276f8f0f$__63907af6c06040518163ffffffff1660e01b81526004016020604051808303818680614474615e6b565b15801561448057600080fd5b505a61448a615fe6565b50505050501580156144a0573d6000803e3d6000fd5b505050506040513d60208110156144b657600080fd5b8101908080519060200190929190505050811161451e576040517f08c379a00000000000000000000000000000000000000000000000000000000081526004018080602001828103825260308152602001806161886030913960400191505060405180910390fd5b80600f819061452b615e32565b5050507fa39eacd162ee82c70b2b030a1bc8fe89adcccc61122fad4821a8772dbcc54267600f614559615dfb565b6040518082815260200191505060405180910390a150565b61457961603f565b60008090505b60098061458a615dfb565b90508110156145db576009818161459f615dfb565b81106145a757fe5b906000526020600020016145b9615dfb565b8282601881106145c557fe5b602002018181525050808060010191505061457f565b5090565b600b60205280600052604060002060009150905080600001600090614602615dfb565b906101000a900473ffffffffffffffffffffffffffffffffffffffff16908060010161462c615dfb565b905082565b60007f534e58000000000000000000000000000000000000000000000000000000000061465c610f8c565b73ffffffffffffffffffffffffffffffffffffffff16629919c0826040518263ffffffff1660e01b81526004018082815260200191505060206040518083038186806146a6615e6b565b1580156146b257600080fd5b505a6146bc615ea2565b50505050501580156146d2573d6000803e3d6000fd5b505050506040513d60208110156146e857600080fd5b81019080805190602001909291905050501561476c576040517f08c379a00000000000000000000000000000000000000000000000000000000081526004018080602001828103825260198152602001807f52617465207374616c65206f72206e6f7420612073796e74680000000000000081525060200191505060405180910390fd5b6005600090614779615dfb565b906101000a900460ff16156147d9576040517f08c379a000000000000000000000000000000000000000000000000000000000815260040180806020018281038252603c8152602001806161b8603c913960400191505060405180910390fd5b6147e1610f8c565b73ffffffffffffffffffffffffffffffffffffffff1663ac82f6087f534e5800000000000000000000000000000000000000000000000000000000006040518263ffffffff1660e01b815260040180828152602001915050602060405180830381868061484c615e6b565b15801561485857600080fd5b505a614862615ea2565b5050505050158015614878573d6000803e3d6000fd5b505050506040513d602081101561488e57600080fd5b810190808051906020019092919050505083146148f6576040517f08c379a00000000000000000000000000000000000000000000000000000000081526004018080602001828103825260258152602001806161f46025913960400191505060405180910390fd5b6148ff8461598f565b91505092915050565b6010614912615dfb565b81565b6003600090614922615dfb565b906101000a900460ff1681565b6000809061493b615dfb565b906101000a900473ffffffffffffffffffffffffffffffffffffffff1673ffffffffffffffffffffffffffffffffffffffff165a614977615f84565b73ffffffffffffffffffffffffffffffffffffffff16146149e3576040517f08c379a000000000000000000000000000000000000000000000000000000000815260040180806020018281038252602f815260200180616113602f913960400191505060405180910390fd5b80601081906149f0615e32565b5050507fdc2be810a133e01cb21a41082f15b2863d96f9fe79d1f84d7e2d5b810c5c82436010614a1e615dfb565b6040518082815260200191505060405180910390a150565b60008090614a42615dfb565b906101000a900473ffffffffffffffffffffffffffffffffffffffff1673ffffffffffffffffffffffffffffffffffffffff165a614a7e615f84565b73ffffffffffffffffffffffffffffffffffffffff1614614aea576040517f08c379a000000000000000000000000000000000000000000000000000000000815260040180806020018281038252602f815260200180616113602f913960400191505060405180910390fd5b5a614af3615fb5565b60028190614aff615e32565b5050506001600360006101000a81614b15615dfb565b8160ff02191690831515021790614b2a615e32565b5050507fcbd94ca75b8dc45c9d80c77e851670e78843c0d75180cb81db3e2158228fa9a66224ea006040518082815260200191505060405180910390a1565b6003600190614b76615dfb565b906101000a900473ffffffffffffffffffffffffffffffffffffffff1681565b6011602052806000526040600020600091509050614bb2615dfb565b81565b60098181614bc1615dfb565b8110614bc957fe5b90600052602060002001600091509050614be1615dfb565b81565b600080614cbf614bf2610f8c565b73ffffffffffffffffffffffffffffffffffffffff1663ac82f6087f45544800000000000000000000000000000000000000000000000000000000006040518263ffffffff1660e01b8152600401808281526020019150506020604051808303818680614c5d615e6b565b158015614c6957600080fd5b505a614c73615ea2565b5050505050158015614c89573d6000803e3d6000fd5b505050506040513d6020811015614c9f57600080fd5b81019080805190602001909291905050508461558c90919063ffffffff16565b9050614cca81614299565b915050919050565b614cda615700565b73ffffffffffffffffffffffffffffffffffffffff166323b872dd5a614cfe615f84565b5a63996d79a5620800008160e01b81526020816004836000335af16000811415614d2757600080fd5b81519350505050846040518463ffffffff1660e01b8152600401808473ffffffffffffffffffffffffffffffffffffffff1673ffffffffffffffffffffffffffffffffffffffff1681526020018373ffffffffffffffffffffffffffffffffffffffff1673ffffffffffffffffffffffffffffffffffffffff168152602001828152602001935050505060206040518083038160008780614dc6615e6b565b158015614dd257600080fd5b505a614ddc615f2b565b505050505050158015614df3573d6000803e3d6000fd5b505050506040513d6020811015614e0957600080fd5b810190808051906020019092919050505050600f614e25615dfb565b811015614f6a57614e8d81601160005a614e3d615f84565b73ffffffffffffffffffffffffffffffffffffffff1673ffffffffffffffffffffffffffffffffffffffff168152602001908152602001600020614e7f615dfb565b6155b990919063ffffffff16565b601160005a614e9a615f84565b73ffffffffffffffffffffffffffffffffffffffff1673ffffffffffffffffffffffffffffffffffffffff1681526020019081526020016000208190614ede615e32565b5050507fbc3a12638d840d60760c64b39c73985a6498cf6eb8176f124995b0e07236cbd25a614f0b615f84565b82600f614f16615dfb565b604051808473ffffffffffffffffffffffffffffffffffffffff1673ffffffffffffffffffffffffffffffffffffffff168152602001838152602001828152602001935050505060405180910390a16150de565b60405180604001604052805a614f7e615f84565b73ffffffffffffffffffffffffffffffffffffffff16815260200182815250600b6000600d614fab615dfb565b815260200190815260200160002060008201518160000160006101000a81614fd1615dfb565b8173ffffffffffffffffffffffffffffffffffffffff021916908373ffffffffffffffffffffffffffffffffffffffff1602179061500d615e32565b505050602082015181600101615021615e32565b5050905050600d615030615dfb565b5a615039615f84565b73ffffffffffffffffffffffffffffffffffffffff167fd9acabe6e09d178728ba5c366661c5be0621b4770f216305b059ec175b37e0b4836040518082815260200191505060405180910390a36150a36001600d615095615dfb565b6155b990919063ffffffff16565b600d81906150af615e32565b5050506150ce81600e6150c0615dfb565b6155b990919063ffffffff16565b600e81906150da615e32565b5050505b50565b601881565b600080906150f2615dfb565b906101000a900473ffffffffffffffffffffffffffffffffffffffff1673ffffffffffffffffffffffffffffffffffffffff165a61512e615f84565b73ffffffffffffffffffffffffffffffffffffffff161461519a576040517f08c379a000000000000000000000000000000000000000000000000000000000815260040180806020018281038252602f815260200180616113602f913960400191505060405180910390fd5b6151a2615c80565b73ffffffffffffffffffffffffffffffffffffffff1663a9059cbb600080906151c9615dfb565b906101000a900473ffffffffffffffffffffffffffffffffffffffff16836040518363ffffffff1660e01b8152600401808373ffffffffffffffffffffffffffffffffffffffff1673ffffffffffffffffffffffffffffffffffffffff168152602001828152602001925050506020604051808303816000878061524b615e6b565b15801561525757600080fd5b505a615261615f2b565b505050505050158015615278573d6000803e3d6000fd5b505050506040513d602081101561528e57600080fd5b81019080805190602001909291905050505050565b60007f534e5800000000000000000000000000000000000000000000000000000000006152ce610f8c565b73ffffffffffffffffffffffffffffffffffffffff16629919c0826040518263ffffffff1660e01b8152600401808281526020019150506020604051808303818680615318615e6b565b15801561532457600080fd5b505a61532e615ea2565b5050505050158015615344573d6000803e3d6000fd5b505050506040513d602081101561535a57600080fd5b8101908080519060200190929190505050156153de576040517f08c379a00000000000000000000000000000000000000000000000000000000081526004018080602001828103825260198152602001807f52617465207374616c65206f72206e6f7420612073796e74680000000000000081525060200191505060405180910390fd5b60056000906153eb615dfb565b906101000a900460ff161561544b576040517f08c379a000000000000000000000000000000000000000000000000000000000815260040180806020018281038252603c8152602001806161b8603c913960400191505060405180910390fd5b6154548361598f565b915050919050565b600d615466615dfb565b81565b6000806008600085815260200190815260200160002060009061548a615dfb565b906101000a900473ffffffffffffffffffffffffffffffffffffffff169050600073ffffffffffffffffffffffffffffffffffffffff168173ffffffffffffffffffffffffffffffffffffffff1614158390615581576040517f08c379a00000000000000000000000000000000000000000000000000000000081526004018080602001828103825283818151815260200191508051906020019080838360005b8381101561554657808201518184015260208101905061552b565b50505050905090810190601f1680156155735780820380516001836020036101000a031916815260200191505b509250505060405180910390fd5b508091505092915050565b6000601260ff16600a0a6155a98385615ce690919063ffffffff16565b816155b057fe5b04905092915050565b600080828401905083811015615637576040517f08c379a000000000000000000000000000000000000000000000000000000000815260040180806020018281038252601b8152602001807f536166654d6174683a206164646974696f6e206f766572666c6f77000000000081525060200191505060405180910390fd5b8091505092915050565b6000828211156156b9576040517f08c379a000000000000000000000000000000000000000000000000000000000815260040180806020018281038252601e8152602001807f536166654d6174683a207375627472616374696f6e206f766572666c6f77000081525060200191505060405180910390fd5b600082840390508091505092915050565b60006156f8826156ea601260ff16600a0a86615ce690919063ffffffff16565b615d6c90919063ffffffff16565b905092915050565b60006157617f53796e74687355534400000000000000000000000000000000000000000000006040518060400160405280601981526020017f4d697373696e672053796e746873555344206164647265737300000000000000815250615469565b905090565b60008061577234614be4565b9050600a600090615781615dfb565b906101000a900473ffffffffffffffffffffffffffffffffffffffff1673ffffffffffffffffffffffffffffffffffffffff166108fc3490811502906040516000604051808303818588886157d4615f2b565b50505050505093505050501580156157f0573d6000803e3d6000fd5b506157f9615c80565b73ffffffffffffffffffffffffffffffffffffffff1663a9059cbb5a61581d615f84565b836040518363ffffffff1660e01b8152600401808373ffffffffffffffffffffffffffffffffffffffff1673ffffffffffffffffffffffffffffffffffffffff1681526020018281526020019250505060206040518083038160008780615882615e6b565b15801561588e57600080fd5b505a615898615f2b565b5050505050501580156158af573d6000803e3d6000fd5b505050506040513d60208110156158c557600080fd5b8101908080519060200190929190505050507fdb1741ffc6844b04a9284bb6337fb0ccfe543a493ef0ac8e725242201e93d4bd3482604051808060200184815260200180602001848152602001838103835260038152602001807f4554480000000000000000000000000000000000000000000000000000000000815250602001838103825260038152602001807f534e58000000000000000000000000000000000000000000000000000000000081525060200194505050505060405180910390a18091505090565b60008061599b83614299565b90506159a5615700565b73ffffffffffffffffffffffffffffffffffffffff166323b872dd5a6159c9615f84565b600a6000906159d6615dfb565b906101000a900473ffffffffffffffffffffffffffffffffffffffff16866040518463ffffffff1660e01b8152600401808473ffffffffffffffffffffffffffffffffffffffff1673ffffffffffffffffffffffffffffffffffffffff1681526020018373ffffffffffffffffffffffffffffffffffffffff1673ffffffffffffffffffffffffffffffffffffffff168152602001828152602001935050505060206040518083038160008780615a8b615e6b565b158015615a9757600080fd5b505a615aa1615f2b565b505050505050158015615ab8573d6000803e3d6000fd5b505050506040513d6020811015615ace57600080fd5b810190808051906020019092919050505050615ae8615c80565b73ffffffffffffffffffffffffffffffffffffffff1663a9059cbb5a615b0c615f84565b836040518363ffffffff1660e01b8152600401808373ffffffffffffffffffffffffffffffffffffffff1673ffffffffffffffffffffffffffffffffffffffff1681526020018281526020019250505060206040518083038160008780615b71615e6b565b158015615b7d57600080fd5b505a615b87615f2b565b505050505050158015615b9e573d6000803e3d6000fd5b505050506040513d6020811015615bb457600080fd5b8101908080519060200190929190505050507fdb1741ffc6844b04a9284bb6337fb0ccfe543a493ef0ac8e725242201e93d4bd8382604051808060200184815260200180602001848152602001838103835260048152602001807f7355534400000000000000000000000000000000000000000000000000000000815250602001838103825260038152602001807f534e58000000000000000000000000000000000000000000000000000000000081525060200194505050505060405180910390a180915050919050565b6000615ce17f53796e74686574697800000000000000000000000000000000000000000000006040518060400160405280601981526020017f4d697373696e672053796e746865746978206164647265737300000000000000815250615469565b905090565b600080831415615cf95760009050615d66565b6000828402905082848281615d0a57fe5b0414615d61576040517f08c379a00000000000000000000000000000000000000000000000000000000081526004018080602001828103825260218152602001806161426021913960400191505060405180910390fd5b809150505b92915050565b6000808211615de3576040517f08c379a000000000000000000000000000000000000000000000000000000000815260040180806020018281038252601a8152602001807f536166654d6174683a206469766973696f6e206279207a65726f00000000000081525060200191505060405180910390fd5b6000828481615dee57fe5b0490508091505092915050565b6320966208620800008160e01b81528360048201526020816024836000335af16000811415615e2957600080fd5b81519450505050565b6328dcb2a0620800008160e01b81528360048201528460248201526000816044836000335af16000811415615e6657600080fd5b505050565b63c3382d0f620800008160e01b81528360048201526020816024836000335af16000811415615e9957600080fd5b81519450505050565b63fbb0f79d620800008160e01b815284600482015260005b87811015615ed8578087015181602484010152602081019050615eba565b50888888602401836000335af16000811415615ef357600080fd5b809950505050565b6040518060400160405280600073ffffffffffffffffffffffffffffffffffffffff168152602001600081525090565b634c6d7c84620800008160e01b815284600482015260005b88811015615f61578088015181602484010152602081019050615f43565b50898989602401836000335af16000811415615f7c57600080fd5b809a50505050565b6373509064620800008160e01b81526020816004836000335af16000811415615fac57600080fd5b81519450505050565b63bdbf8c36620800008160e01b81526020816004836000335af16000811415615fdd57600080fd5b81519450505050565b6345e97ddb620800008160e01b815284600482015260005b8781101561601c578087015181602484010152602081019050615ffe565b50888888602401836000335af1600081141561603757600080fd5b809950505050565b60405180610300016040528060189060208202803883398082019150509050509056fe47756172616e74656564206574686572207261746520776f756c64206e6f74206265207265636569766564596f75206d757374206265206e6f6d696e61746564206265666f726520796f752063616e20616363657074206f776e65727368697047756172616e746565642073796e746865746978207261746520776f756c64206e6f74206265207265636569766564596f752068617665206e6f206465706f7369747320746f2077697468647261772e4f6e6c792074686520636f6e7472616374206f776e6572206d617920706572666f726d207468697320616374696f6e536166654d6174683a206d756c7469706c69636174696f6e206f766572666c6f7745544820616d6f756e742061626f7665206d61784574685075726368617365206c696d69744d696e696d756d206465706f73697420616d6f756e74206d7573742062652067726561746572207468616e20554e49545468697320616374696f6e2063616e6e6f7420626520706572666f726d6564207768696c652074686520636f6e74726163742069732070617573656447756172616e74656564207261746520776f756c64206e6f74206265207265636569766564a265627a7a7231582076e151bc427d0c6c5e875781eb4fb8714a7ad4b1738cda10e24d9ca9e3d7d7cf64736f6c637828302e352e31362d646576656c6f702e323032302e372e32392b636f6d6d69742e36326536346536370058",
			"opcodes": "PUSH1 0x80 PUSH1 0x40 MSTORE PUSH20 0x0 PUSH4 0x907AF6C0 PUSH1 0x40 MLOAD DUP2 PUSH4 0xFFFFFFFF AND PUSH1 0xE0 SHL DUP2 MSTORE PUSH1 0x4 ADD PUSH1 0x20 PUSH1 0x40 MLOAD DUP1 DUP4 SUB DUP2 DUP7 DUP1 PUSH3 0x45 PUSH3 0x8FC JUMP JUMPDEST ISZERO DUP1 ISZERO PUSH3 0x52 JUMPI PUSH1 0x0 DUP1 REVERT JUMPDEST POP GAS PUSH3 0x5E PUSH3 0x934 JUMP JUMPDEST POP POP POP POP POP ISZERO DUP1 ISZERO PUSH3 0x75 JUMPI RETURNDATASIZE PUSH1 0x0 DUP1 RETURNDATACOPY RETURNDATASIZE PUSH1 0x0 REVERT JUMPDEST POP POP POP POP PUSH1 0x40 MLOAD RETURNDATASIZE PUSH1 0x20 DUP2 LT ISZERO PUSH3 0x8C JUMPI PUSH1 0x0 DUP1 REVERT JUMPDEST DUP2 ADD SWAP1 DUP1 DUP1 MLOAD SWAP1 PUSH1 0x20 ADD SWAP1 SWAP3 SWAP2 SWAP1 POP POP POP PUSH1 0x32 MUL PUSH1 0xF PUSH3 0xAC PUSH3 0x990 JUMP JUMPDEST POP POP PUSH20 0x0 PUSH4 0x907AF6C0 PUSH1 0x40 MLOAD DUP2 PUSH4 0xFFFFFFFF AND PUSH1 0xE0 SHL DUP2 MSTORE PUSH1 0x4 ADD PUSH1 0x20 PUSH1 0x40 MLOAD DUP1 DUP4 SUB DUP2 DUP7 DUP1 PUSH3 0xEF PUSH3 0x8FC JUMP JUMPDEST ISZERO DUP1 ISZERO PUSH3 0xFC JUMPI PUSH1 0x0 DUP1 REVERT JUMPDEST POP GAS PUSH3 0x108 PUSH3 0x934 JUMP JUMPDEST POP POP POP POP POP ISZERO DUP1 ISZERO PUSH3 0x11F JUMPI RETURNDATASIZE PUSH1 0x0 DUP1 RETURNDATACOPY RETURNDATASIZE PUSH1 0x0 REVERT JUMPDEST POP POP POP POP PUSH1 0x40 MLOAD RETURNDATASIZE PUSH1 0x20 DUP2 LT ISZERO PUSH3 0x136 JUMPI PUSH1 0x0 DUP1 REVERT JUMPDEST DUP2 ADD SWAP1 DUP1 DUP1 MLOAD SWAP1 PUSH1 0x20 ADD SWAP1 SWAP3 SWAP2 SWAP1 POP POP POP PUSH2 0x1F4 MUL PUSH1 0x10 PUSH3 0x157 PUSH3 0x990 JUMP JUMPDEST POP POP PUSH1 0x40 MLOAD DUP1 PUSH1 0x60 ADD PUSH1 0x40 MSTORE DUP1 PUSH32 0x53796E7468735553440000000000000000000000000000000000000000000000 DUP2 MSTORE PUSH1 0x20 ADD PUSH32 0x45786368616E6765526174657300000000000000000000000000000000000000 DUP2 MSTORE PUSH1 0x20 ADD PUSH32 0x53796E7468657469780000000000000000000000000000000000000000000000 DUP2 MSTORE POP PUSH1 0x12 SWAP1 PUSH1 0x3 PUSH3 0x1E6 SWAP3 SWAP2 SWAP1 PUSH3 0x9CA JUMP JUMPDEST POP CALLVALUE DUP1 ISZERO PUSH3 0x1F4 JUMPI PUSH1 0x0 DUP1 REVERT JUMPDEST POP PUSH1 0x40 MLOAD PUSH3 0x6D08 CODESIZE SUB DUP1 PUSH3 0x6D08 DUP4 CODECOPY DUP2 DUP2 ADD PUSH1 0x40 MSTORE PUSH1 0x60 DUP2 LT ISZERO PUSH3 0x21A JUMPI PUSH1 0x0 DUP1 REVERT JUMPDEST DUP2 ADD SWAP1 DUP1 DUP1 MLOAD SWAP1 PUSH1 0x20 ADD SWAP1 SWAP3 SWAP2 SWAP1 DUP1 MLOAD SWAP1 PUSH1 0x20 ADD SWAP1 SWAP3 SWAP2 SWAP1 DUP1 MLOAD SWAP1 PUSH1 0x20 ADD SWAP1 SWAP3 SWAP2 SWAP1 POP POP POP DUP1 PUSH1 0x12 PUSH1 0x18 DUP1 PUSH1 0x20 MUL PUSH1 0x40 MLOAD SWAP1 DUP2 ADD PUSH1 0x40 MSTORE DUP1 SWAP3 SWAP2 SWAP1 DUP3 PUSH1 0x18 DUP1 ISZERO PUSH3 0x284 JUMPI PUSH1 0x20 MUL DUP3 ADD SWAP2 JUMPDEST DUP2 PUSH3 0x271 PUSH3 0xA1A JUMP JUMPDEST DUP2 MSTORE PUSH1 0x20 ADD SWAP1 PUSH1 0x1 ADD SWAP1 DUP1 DUP4 GT PUSH3 0x266 JUMPI JUMPDEST POP POP POP POP POP DUP5 PUSH1 0x0 PUSH20 0xFFFFFFFFFFFFFFFFFFFFFFFFFFFFFFFFFFFFFFFF AND DUP2 PUSH20 0xFFFFFFFFFFFFFFFFFFFFFFFFFFFFFFFFFFFFFFFF AND EQ ISZERO PUSH3 0x32E JUMPI PUSH1 0x40 MLOAD PUSH32 0x8C379A000000000000000000000000000000000000000000000000000000000 DUP2 MSTORE PUSH1 0x4 ADD DUP1 DUP1 PUSH1 0x20 ADD DUP3 DUP2 SUB DUP3 MSTORE PUSH1 0x19 DUP2 MSTORE PUSH1 0x20 ADD DUP1 PUSH32 0x4F776E657220616464726573732063616E6E6F74206265203000000000000000 DUP2 MSTORE POP PUSH1 0x20 ADD SWAP2 POP POP PUSH1 0x40 MLOAD DUP1 SWAP2 SUB SWAP1 REVERT JUMPDEST DUP1 PUSH1 0x0 DUP1 PUSH2 0x100 EXP DUP2 PUSH3 0x341 PUSH3 0xA1A JUMP JUMPDEST DUP2 PUSH20 0xFFFFFFFFFFFFFFFFFFFFFFFFFFFFFFFFFFFFFFFF MUL NOT AND SWAP1 DUP4 PUSH20 0xFFFFFFFFFFFFFFFFFFFFFFFFFFFFFFFFFFFFFFFF AND MUL OR SWAP1 PUSH3 0x37F PUSH3 0x990 JUMP JUMPDEST POP POP POP PUSH32 0xB532073B38C83145E3E5135377A08BF9AAB55BC0FD7C1179CD4FB995D2A5159C PUSH1 0x0 DUP3 PUSH1 0x40 MLOAD DUP1 DUP4 PUSH20 0xFFFFFFFFFFFFFFFFFFFFFFFFFFFFFFFFFFFFFFFF AND PUSH20 0xFFFFFFFFFFFFFFFFFFFFFFFFFFFFFFFFFFFFFFFF AND DUP2 MSTORE PUSH1 0x20 ADD DUP3 PUSH20 0xFFFFFFFFFFFFFFFFFFFFFFFFFFFFFFFFFFFFFFFF AND PUSH20 0xFFFFFFFFFFFFFFFFFFFFFFFFFFFFFFFFFFFFFFFF AND DUP2 MSTORE PUSH1 0x20 ADD SWAP3 POP POP POP PUSH1 0x40 MLOAD DUP1 SWAP2 SUB SWAP1 LOG1 POP PUSH1 0x0 PUSH20 0xFFFFFFFFFFFFFFFFFFFFFFFFFFFFFFFFFFFFFFFF AND PUSH1 0x0 DUP1 SWAP1 PUSH3 0x441 PUSH3 0xA1A JUMP JUMPDEST SWAP1 PUSH2 0x100 EXP SWAP1 DIV PUSH20 0xFFFFFFFFFFFFFFFFFFFFFFFFFFFFFFFFFFFFFFFF AND PUSH20 0xFFFFFFFFFFFFFFFFFFFFFFFFFFFFFFFFFFFFFFFF AND EQ ISZERO PUSH3 0x4E9 JUMPI PUSH1 0x40 MLOAD PUSH32 0x8C379A000000000000000000000000000000000000000000000000000000000 DUP2 MSTORE PUSH1 0x4 ADD DUP1 DUP1 PUSH1 0x20 ADD DUP3 DUP2 SUB DUP3 MSTORE PUSH1 0x11 DUP2 MSTORE PUSH1 0x20 ADD DUP1 PUSH32 0x4F776E6572206D75737420626520736574000000000000000000000000000000 DUP2 MSTORE POP PUSH1 0x20 ADD SWAP2 POP POP PUSH1 0x40 MLOAD DUP1 SWAP2 SUB SWAP1 REVERT JUMPDEST PUSH1 0x0 DUP1 SWAP1 PUSH3 0x4F7 PUSH3 0xA1A JUMP JUMPDEST SWAP1 PUSH2 0x100 EXP SWAP1 DIV PUSH20 0xFFFFFFFFFFFFFFFFFFFFFFFFFFFFFFFFFFFFFFFF AND PUSH1 0x3 PUSH1 0x1 PUSH2 0x100 EXP DUP2 PUSH3 0x527 PUSH3 0xA1A JUMP JUMPDEST DUP2 PUSH20 0xFFFFFFFFFFFFFFFFFFFFFFFFFFFFFFFFFFFFFFFF MUL NOT AND SWAP1 DUP4 PUSH20 0xFFFFFFFFFFFFFFFFFFFFFFFFFFFFFFFFFFFFFFFF AND MUL OR SWAP1 PUSH3 0x565 PUSH3 0x990 JUMP JUMPDEST POP POP POP PUSH32 0xD5DA63A0B864B315BC04128DEDBC93888C8529EE6CF47CE664DC204339228C53 PUSH1 0x0 DUP1 SWAP1 PUSH3 0x597 PUSH3 0xA1A JUMP JUMPDEST SWAP1 PUSH2 0x100 EXP SWAP1 DIV PUSH20 0xFFFFFFFFFFFFFFFFFFFFFFFFFFFFFFFFFFFFFFFF AND PUSH1 0x40 MLOAD DUP1 DUP3 PUSH20 0xFFFFFFFFFFFFFFFFFFFFFFFFFFFFFFFFFFFFFFFF AND PUSH20 0xFFFFFFFFFFFFFFFFFFFFFFFFFFFFFFFFFFFFFFFF AND DUP2 MSTORE PUSH1 0x20 ADD SWAP2 POP POP PUSH1 0x40 MLOAD DUP1 SWAP2 SUB SWAP1 LOG1 PUSH1 0x0 PUSH20 0xFFFFFFFFFFFFFFFFFFFFFFFFFFFFFFFFFFFFFFFF AND PUSH1 0x0 DUP1 SWAP1 PUSH3 0x61B PUSH3 0xA1A JUMP JUMPDEST SWAP1 PUSH2 0x100 EXP SWAP1 DIV PUSH20 0xFFFFFFFFFFFFFFFFFFFFFFFFFFFFFFFFFFFFFFFF AND PUSH20 0xFFFFFFFFFFFFFFFFFFFFFFFFFFFFFFFFFFFFFFFF AND EQ ISZERO PUSH3 0x6C3 JUMPI PUSH1 0x40 MLOAD PUSH32 0x8C379A000000000000000000000000000000000000000000000000000000000 DUP2 MSTORE PUSH1 0x4 ADD DUP1 DUP1 PUSH1 0x20 ADD DUP3 DUP2 SUB DUP3 MSTORE PUSH1 0x11 DUP2 MSTORE PUSH1 0x20 ADD DUP1 PUSH32 0x4F776E6572206D75737420626520736574000000000000000000000000000000 DUP2 MSTORE POP PUSH1 0x20 ADD SWAP2 POP POP PUSH1 0x40 MLOAD DUP1 SWAP2 SUB SWAP1 REVERT JUMPDEST PUSH1 0x1 PUSH1 0x6 DUP2 SWAP1 PUSH3 0x6D3 PUSH3 0x990 JUMP JUMPDEST POP POP POP PUSH1 0x0 PUSH20 0xFFFFFFFFFFFFFFFFFFFFFFFFFFFFFFFFFFFFFFFF AND PUSH1 0x0 DUP1 SWAP1 PUSH3 0x6FC PUSH3 0xA1A JUMP JUMPDEST SWAP1 PUSH2 0x100 EXP SWAP1 DIV PUSH20 0xFFFFFFFFFFFFFFFFFFFFFFFFFFFFFFFFFFFFFFFF AND PUSH20 0xFFFFFFFFFFFFFFFFFFFFFFFFFFFFFFFFFFFFFFFF AND EQ ISZERO PUSH3 0x7A4 JUMPI PUSH1 0x40 MLOAD PUSH32 0x8C379A000000000000000000000000000000000000000000000000000000000 DUP2 MSTORE PUSH1 0x4 ADD DUP1 DUP1 PUSH1 0x20 ADD DUP3 DUP2 SUB DUP3 MSTORE PUSH1 0x11 DUP2 MSTORE PUSH1 0x20 ADD DUP1 PUSH32 0x4F776E6572206D75737420626520736574000000000000000000000000000000 DUP2 MSTORE POP PUSH1 0x20 ADD SWAP2 POP POP PUSH1 0x40 MLOAD DUP1 SWAP2 SUB SWAP1 REVERT JUMPDEST PUSH1 0x0 DUP1 SWAP1 POP JUMPDEST PUSH1 0x18 DUP2 LT ISZERO PUSH3 0x846 JUMPI PUSH1 0x0 DUP1 SHL DUP3 DUP3 PUSH1 0x18 DUP2 LT PUSH3 0x7C5 JUMPI INVALID JUMPDEST PUSH1 0x20 MUL ADD MLOAD EQ PUSH3 0x832 JUMPI PUSH1 0x9 DUP3 DUP3 PUSH1 0x18 DUP2 LT PUSH3 0x7DF JUMPI INVALID JUMPDEST PUSH1 0x20 MUL ADD MLOAD SWAP1 DUP1 PUSH1 0x1 DUP2 PUSH3 0x7F3 PUSH3 0xA1A JUMP JUMPDEST ADD DUP1 DUP3 PUSH3 0x800 PUSH3 0x990 JUMP JUMPDEST POP POP DUP1 SWAP2 POP POP SWAP1 PUSH1 0x1 DUP3 SUB SWAP1 PUSH1 0x0 MSTORE PUSH1 0x20 PUSH1 0x0 KECCAK256 ADD PUSH1 0x0 SWAP1 SWAP2 SWAP3 SWAP1 SWAP2 SWAP1 SWAP2 POP PUSH3 0x829 PUSH3 0x990 JUMP JUMPDEST POP POP POP PUSH3 0x838 JUMP JUMPDEST PUSH3 0x846 JUMP JUMPDEST DUP1 DUP1 PUSH1 0x1 ADD SWAP2 POP POP PUSH3 0x7AA JUMP JUMPDEST POP DUP2 PUSH1 0x7 PUSH1 0x0 PUSH2 0x100 EXP DUP2 PUSH3 0x85B PUSH3 0xA1A JUMP JUMPDEST DUP2 PUSH20 0xFFFFFFFFFFFFFFFFFFFFFFFFFFFFFFFFFFFFFFFF MUL NOT AND SWAP1 DUP4 PUSH20 0xFFFFFFFFFFFFFFFFFFFFFFFFFFFFFFFFFFFFFFFF AND MUL OR SWAP1 PUSH3 0x899 PUSH3 0x990 JUMP JUMPDEST POP POP POP POP POP DUP2 PUSH1 0xA PUSH1 0x0 PUSH2 0x100 EXP DUP2 PUSH3 0x8B2 PUSH3 0xA1A JUMP JUMPDEST DUP2 PUSH20 0xFFFFFFFFFFFFFFFFFFFFFFFFFFFFFFFFFFFFFFFF MUL NOT AND SWAP1 DUP4 PUSH20 0xFFFFFFFFFFFFFFFFFFFFFFFFFFFFFFFFFFFFFFFF AND MUL OR SWAP1 PUSH3 0x8F0 PUSH3 0x990 JUMP JUMPDEST POP POP POP POP POP POP PUSH3 0xA85 JUMP JUMPDEST PUSH4 0xC3382D0F PUSH3 0x80000 DUP2 PUSH1 0xE0 SHL DUP2 MSTORE DUP4 PUSH1 0x4 DUP3 ADD MSTORE PUSH1 0x20 DUP2 PUSH1 0x24 DUP4 PUSH1 0x0 CALLER GAS CALL PUSH1 0x0 DUP2 EQ ISZERO PUSH3 0x92B JUMPI PUSH1 0x0 DUP1 REVERT JUMPDEST DUP2 MLOAD SWAP5 POP POP POP POP JUMP JUMPDEST PUSH4 0x45E97DDB PUSH3 0x80000 DUP2 PUSH1 0xE0 SHL DUP2 MSTORE DUP5 PUSH1 0x4 DUP3 ADD MSTORE PUSH1 0x0 JUMPDEST DUP8 DUP2 LT ISZERO PUSH3 0x96C JUMPI DUP1 DUP8 ADD MLOAD DUP2 PUSH1 0x24 DUP5 ADD ADD MSTORE PUSH1 0x20 DUP2 ADD SWAP1 POP PUSH3 0x94C JUMP JUMPDEST POP DUP9 DUP9 DUP9 PUSH1 0x24 ADD DUP4 PUSH1 0x0 CALLER GAS CALL PUSH1 0x0 DUP2 EQ ISZERO PUSH3 0x988 JUMPI PUSH1 0x0 DUP1 REVERT JUMPDEST DUP1 SWAP10 POP POP POP POP JUMP JUMPDEST PUSH4 0x28DCB2A0 PUSH3 0x80000 DUP2 PUSH1 0xE0 SHL DUP2 MSTORE DUP4 PUSH1 0x4 DUP3 ADD MSTORE DUP5 PUSH1 0x24 DUP3 ADD MSTORE PUSH1 0x0 DUP2 PUSH1 0x44 DUP4 PUSH1 0x0 CALLER GAS CALL PUSH1 0x0 DUP2 EQ ISZERO PUSH3 0x9C5 JUMPI PUSH1 0x0 DUP1 REVERT JUMPDEST POP POP POP JUMP JUMPDEST DUP3 PUSH1 0x18 DUP2 ADD SWAP3 DUP3 ISZERO PUSH3 0xA07 JUMPI SWAP2 PUSH1 0x20 MUL DUP3 ADD JUMPDEST DUP3 DUP2 GT ISZERO PUSH3 0xA06 JUMPI DUP3 MLOAD DUP3 PUSH3 0x9F4 PUSH3 0x990 JUMP JUMPDEST POP POP SWAP2 PUSH1 0x20 ADD SWAP2 SWAP1 PUSH1 0x1 ADD SWAP1 PUSH3 0x9DE JUMP JUMPDEST JUMPDEST POP SWAP1 POP PUSH3 0xA16 SWAP2 SWAP1 PUSH3 0xA52 JUMP JUMPDEST POP SWAP1 JUMP JUMPDEST PUSH4 0x20966208 PUSH3 0x80000 DUP2 PUSH1 0xE0 SHL DUP2 MSTORE DUP4 PUSH1 0x4 DUP3 ADD MSTORE PUSH1 0x20 DUP2 PUSH1 0x24 DUP4 PUSH1 0x0 CALLER GAS CALL PUSH1 0x0 DUP2 EQ ISZERO PUSH3 0xA49 JUMPI PUSH1 0x0 DUP1 REVERT JUMPDEST DUP2 MLOAD SWAP5 POP POP POP POP JUMP JUMPDEST PUSH3 0xA82 SWAP2 SWAP1 JUMPDEST DUP1 DUP3 GT ISZERO PUSH3 0xA7E JUMPI PUSH1 0x0 DUP2 PUSH1 0x0 SWAP1 PUSH3 0xA72 PUSH3 0x990 JUMP JUMPDEST POP POP POP PUSH1 0x1 ADD PUSH3 0xA59 JUMP JUMPDEST POP SWAP1 JUMP JUMPDEST SWAP1 JUMP JUMPDEST PUSH2 0x6273 DUP1 PUSH3 0xA95 PUSH1 0x0 CODECOPY PUSH1 0x0 RETURN INVALID PUSH1 0x80 PUSH1 0x40 MSTORE PUSH1 0x4 CALLDATASIZE LT PUSH2 0x267 JUMPI PUSH1 0x0 CALLDATALOAD PUSH1 0xE0 SHR DUP1 PUSH4 0x91B4DED9 GT PUSH2 0x144 JUMPI DUP1 PUSH4 0xBB7DF172 GT PUSH2 0xB6 JUMPI DUP1 PUSH4 0xC8D889F2 GT PUSH2 0x7A JUMPI DUP1 PUSH4 0xC8D889F2 EQ PUSH2 0xE22 JUMPI DUP1 PUSH4 0xDC8FA6C2 EQ PUSH2 0xE71 JUMPI DUP1 PUSH4 0xE3235C91 EQ PUSH2 0xEAC JUMPI DUP1 PUSH4 0xE6D76A76 EQ PUSH2 0xED7 JUMPI DUP1 PUSH4 0xF852D393 EQ PUSH2 0xF12 JUMPI DUP1 PUSH4 0xFD12167F EQ PUSH2 0xF61 JUMPI PUSH2 0x267 JUMP JUMPDEST DUP1 PUSH4 0xBB7DF172 EQ PUSH2 0xCC5 JUMPI DUP1 PUSH4 0xBD32AA44 EQ PUSH2 0xD00 JUMPI DUP1 PUSH4 0xC58AAAE6 EQ PUSH2 0xD17 JUMPI DUP1 PUSH4 0xC6ABB7C7 EQ PUSH2 0xD6E JUMPI DUP1 PUSH4 0xC6C9D828 EQ PUSH2 0xDD3 JUMPI PUSH2 0x267 JUMP JUMPDEST DUP1 PUSH4 0xAAB483D6 GT PUSH2 0x108 JUMPI DUP1 PUSH4 0xAAB483D6 EQ PUSH2 0xB02 JUMPI DUP1 PUSH4 0xAB49848C EQ PUSH2 0xB3D JUMPI DUP1 PUSH4 0xB02C43D0 EQ PUSH2 0xB90 JUMPI DUP1 PUSH4 0xB0C2CB96 EQ PUSH2 0xC12 JUMPI DUP1 PUSH4 0xB1338CC4 EQ PUSH2 0xC6B JUMPI DUP1 PUSH4 0xB8225DEC EQ PUSH2 0xC96 JUMPI PUSH2 0x267 JUMP JUMPDEST DUP1 PUSH4 0x91B4DED9 EQ PUSH2 0x9FA JUMPI DUP1 PUSH4 0x9342C0EB EQ PUSH2 0xA25 JUMPI DUP1 PUSH4 0x9CB8A26A EQ PUSH2 0xA71 JUMPI DUP1 PUSH4 0xA3D8829B EQ PUSH2 0xA88 JUMPI DUP1 PUSH4 0xA461FC82 EQ PUSH2 0xAD7 JUMPI PUSH2 0x267 JUMP JUMPDEST DUP1 PUSH4 0x3278C960 GT PUSH2 0x1DD JUMPI DUP1 PUSH4 0x631E1444 GT PUSH2 0x1A1 JUMPI DUP1 PUSH4 0x631E1444 EQ PUSH2 0x890 JUMPI DUP1 PUSH4 0x64E39B87 EQ PUSH2 0x8F9 JUMPI DUP1 PUSH4 0x6D5AB4A9 EQ PUSH2 0x94A JUMPI DUP1 PUSH4 0x79BA5097 EQ PUSH2 0x975 JUMPI DUP1 PUSH4 0x81B797DC EQ PUSH2 0x98C JUMPI DUP1 PUSH4 0x8DA5CB5B EQ PUSH2 0x9A3 JUMPI PUSH2 0x267 JUMP JUMPDEST DUP1 PUSH4 0x3278C960 EQ PUSH2 0x777 JUMPI DUP1 PUSH4 0x3BE99E6F EQ PUSH2 0x78E JUMPI DUP1 PUSH4 0x4D0387FB EQ PUSH2 0x7DF JUMPI DUP1 PUSH4 0x53A47BB7 EQ PUSH2 0x80A JUMPI DUP1 PUSH4 0x5C975ABB EQ PUSH2 0x861 JUMPI PUSH2 0x267 JUMP JUMPDEST DUP1 PUSH4 0x1627540C GT PUSH2 0x22F JUMPI DUP1 PUSH4 0x1627540C EQ PUSH2 0x5F8 JUMPI DUP1 PUSH4 0x16C38B3C EQ PUSH2 0x649 JUMPI DUP1 PUSH4 0x17C70DE4 EQ PUSH2 0x686 JUMPI DUP1 PUSH4 0x1F930115 EQ PUSH2 0x6B1 JUMPI DUP1 PUSH4 0x20714F88 EQ PUSH2 0x6CF JUMPI DUP1 PUSH4 0x2194F3A2 EQ PUSH2 0x720 JUMPI PUSH2 0x267 JUMP JUMPDEST DUP1 PUSH4 0x2279438 EQ PUSH2 0x4C7 JUMPI DUP1 PUSH4 0x4F3BCEC EQ PUSH2 0x4E5 JUMPI DUP1 PUSH4 0x80C279A EQ PUSH2 0x53C JUMPI DUP1 PUSH4 0xC928BC2 EQ PUSH2 0x567 JUMPI DUP1 PUSH4 0xC928F05 EQ PUSH2 0x5A9 JUMPI JUMPDEST PUSH1 0x1 PUSH1 0x6 PUSH1 0x0 DUP3 DUP3 PUSH2 0x277 PUSH2 0x5DFB JUMP JUMPDEST ADD SWAP3 POP POP DUP2 SWAP1 PUSH2 0x285 PUSH2 0x5E32 JUMP JUMPDEST POP POP POP PUSH1 0x0 PUSH1 0x6 PUSH2 0x294 PUSH2 0x5DFB JUMP JUMPDEST SWAP1 POP PUSH32 0x4554480000000000000000000000000000000000000000000000000000000000 PUSH2 0x2BF PUSH2 0xF8C JUMP JUMPDEST PUSH20 0xFFFFFFFFFFFFFFFFFFFFFFFFFFFFFFFFFFFFFFFF AND PUSH3 0x9919C0 DUP3 PUSH1 0x40 MLOAD DUP3 PUSH4 0xFFFFFFFF AND PUSH1 0xE0 SHL DUP2 MSTORE PUSH1 0x4 ADD DUP1 DUP3 DUP2 MSTORE PUSH1 0x20 ADD SWAP2 POP POP PUSH1 0x20 PUSH1 0x40 MLOAD DUP1 DUP4 SUB DUP2 DUP7 DUP1 PUSH2 0x309 PUSH2 0x5E6B JUMP JUMPDEST ISZERO DUP1 ISZERO PUSH2 0x315 JUMPI PUSH1 0x0 DUP1 REVERT JUMPDEST POP GAS PUSH2 0x31F PUSH2 0x5EA2 JUMP JUMPDEST POP POP POP POP POP ISZERO DUP1 ISZERO PUSH2 0x335 JUMPI RETURNDATASIZE PUSH1 0x0 DUP1 RETURNDATACOPY RETURNDATASIZE PUSH1 0x0 REVERT JUMPDEST POP POP POP POP PUSH1 0x40 MLOAD RETURNDATASIZE PUSH1 0x20 DUP2 LT ISZERO PUSH2 0x34B JUMPI PUSH1 0x0 DUP1 REVERT JUMPDEST DUP2 ADD SWAP1 DUP1 DUP1 MLOAD SWAP1 PUSH1 0x20 ADD SWAP1 SWAP3 SWAP2 SWAP1 POP POP POP ISZERO PUSH2 0x3CF JUMPI PUSH1 0x40 MLOAD PUSH32 0x8C379A000000000000000000000000000000000000000000000000000000000 DUP2 MSTORE PUSH1 0x4 ADD DUP1 DUP1 PUSH1 0x20 ADD DUP3 DUP2 SUB DUP3 MSTORE PUSH1 0x19 DUP2 MSTORE PUSH1 0x20 ADD DUP1 PUSH32 0x52617465207374616C65206F72206E6F7420612073796E746800000000000000 DUP2 MSTORE POP PUSH1 0x20 ADD SWAP2 POP POP PUSH1 0x40 MLOAD DUP1 SWAP2 SUB SWAP1 REVERT JUMPDEST PUSH1 0x5 PUSH1 0x0 SWAP1 PUSH2 0x3DC PUSH2 0x5DFB JUMP JUMPDEST SWAP1 PUSH2 0x100 EXP SWAP1 DIV PUSH1 0xFF AND ISZERO PUSH2 0x43C JUMPI PUSH1 0x40 MLOAD PUSH32 0x8C379A000000000000000000000000000000000000000000000000000000000 DUP2 MSTORE PUSH1 0x4 ADD DUP1 DUP1 PUSH1 0x20 ADD DUP3 DUP2 SUB DUP3 MSTORE PUSH1 0x3C DUP2 MSTORE PUSH1 0x20 ADD DUP1 PUSH2 0x61B8 PUSH1 0x3C SWAP2 CODECOPY PUSH1 0x40 ADD SWAP2 POP POP PUSH1 0x40 MLOAD DUP1 SWAP2 SUB SWAP1 REVERT JUMPDEST PUSH2 0x444 PUSH2 0xFF2 JUMP JUMPDEST POP POP PUSH1 0x6 PUSH2 0x450 PUSH2 0x5DFB JUMP JUMPDEST DUP2 EQ PUSH2 0x4C4 JUMPI PUSH1 0x40 MLOAD PUSH32 0x8C379A000000000000000000000000000000000000000000000000000000000 DUP2 MSTORE PUSH1 0x4 ADD DUP1 DUP1 PUSH1 0x20 ADD DUP3 DUP2 SUB DUP3 MSTORE PUSH1 0x1F DUP2 MSTORE PUSH1 0x20 ADD DUP1 PUSH32 0x5265656E7472616E637947756172643A207265656E7472616E742063616C6C00 DUP2 MSTORE POP PUSH1 0x20 ADD SWAP2 POP POP PUSH1 0x40 MLOAD DUP1 SWAP2 SUB SWAP1 REVERT JUMPDEST POP STOP JUMPDEST PUSH2 0x4CF PUSH2 0x1D35 JUMP JUMPDEST PUSH1 0x40 MLOAD DUP1 DUP3 DUP2 MSTORE PUSH1 0x20 ADD SWAP2 POP POP PUSH1 0x40 MLOAD DUP1 SWAP2 SUB SWAP1 RETURN JUMPDEST CALLVALUE DUP1 ISZERO PUSH2 0x4F1 JUMPI PUSH1 0x0 DUP1 REVERT JUMPDEST POP PUSH2 0x4FA PUSH2 0x2025 JUMP JUMPDEST PUSH1 0x40 MLOAD DUP1 DUP3 PUSH20 0xFFFFFFFFFFFFFFFFFFFFFFFFFFFFFFFFFFFFFFFF AND PUSH20 0xFFFFFFFFFFFFFFFFFFFFFFFFFFFFFFFFFFFFFFFF AND DUP2 MSTORE PUSH1 0x20 ADD SWAP2 POP POP PUSH1 0x40 MLOAD DUP1 SWAP2 SUB SWAP1 RETURN JUMPDEST CALLVALUE DUP1 ISZERO PUSH2 0x548 JUMPI PUSH1 0x0 DUP1 REVERT JUMPDEST POP PUSH2 0x551 PUSH2 0x2052 JUMP JUMPDEST PUSH1 0x40 MLOAD DUP1 DUP3 DUP2 MSTORE PUSH1 0x20 ADD SWAP2 POP POP PUSH1 0x40 MLOAD DUP1 SWAP2 SUB SWAP1 RETURN JUMPDEST PUSH2 0x593 PUSH1 0x4 DUP1 CALLDATASIZE SUB PUSH1 0x20 DUP2 LT ISZERO PUSH2 0x57D JUMPI PUSH1 0x0 DUP1 REVERT JUMPDEST DUP2 ADD SWAP1 DUP1 DUP1 CALLDATALOAD SWAP1 PUSH1 0x20 ADD SWAP1 SWAP3 SWAP2 SWAP1 POP POP POP PUSH2 0x205F JUMP JUMPDEST PUSH1 0x40 MLOAD DUP1 DUP3 DUP2 MSTORE PUSH1 0x20 ADD SWAP2 POP POP PUSH1 0x40 MLOAD DUP1 SWAP2 SUB SWAP1 RETURN JUMPDEST CALLVALUE DUP1 ISZERO PUSH2 0x5B5 JUMPI PUSH1 0x0 DUP1 REVERT JUMPDEST POP PUSH2 0x5E2 PUSH1 0x4 DUP1 CALLDATASIZE SUB PUSH1 0x20 DUP2 LT ISZERO PUSH2 0x5CC JUMPI PUSH1 0x0 DUP1 REVERT JUMPDEST DUP2 ADD SWAP1 DUP1 DUP1 CALLDATALOAD SWAP1 PUSH1 0x20 ADD SWAP1 SWAP3 SWAP2 SWAP1 POP POP POP PUSH2 0x2334 JUMP JUMPDEST PUSH1 0x40 MLOAD DUP1 DUP3 DUP2 MSTORE PUSH1 0x20 ADD SWAP2 POP POP PUSH1 0x40 MLOAD DUP1 SWAP2 SUB SWAP1 RETURN JUMPDEST CALLVALUE DUP1 ISZERO PUSH2 0x604 JUMPI PUSH1 0x0 DUP1 REVERT JUMPDEST POP PUSH2 0x647 PUSH1 0x4 DUP1 CALLDATASIZE SUB PUSH1 0x20 DUP2 LT ISZERO PUSH2 0x61B JUMPI PUSH1 0x0 DUP1 REVERT JUMPDEST DUP2 ADD SWAP1 DUP1 DUP1 CALLDATALOAD PUSH20 0xFFFFFFFFFFFFFFFFFFFFFFFFFFFFFFFFFFFFFFFF AND SWAP1 PUSH1 0x20 ADD SWAP1 SWAP3 SWAP2 SWAP1 POP POP POP PUSH2 0x2415 JUMP JUMPDEST STOP JUMPDEST CALLVALUE DUP1 ISZERO PUSH2 0x655 JUMPI PUSH1 0x0 DUP1 REVERT JUMPDEST POP PUSH2 0x684 PUSH1 0x4 DUP1 CALLDATASIZE SUB PUSH1 0x20 DUP2 LT ISZERO PUSH2 0x66C JUMPI PUSH1 0x0 DUP1 REVERT JUMPDEST DUP2 ADD SWAP1 DUP1 DUP1 CALLDATALOAD ISZERO ISZERO SWAP1 PUSH1 0x20 ADD SWAP1 SWAP3 SWAP2 SWAP1 POP POP POP PUSH2 0x2580 JUMP JUMPDEST STOP JUMPDEST CALLVALUE DUP1 ISZERO PUSH2 0x692 JUMPI PUSH1 0x0 DUP1 REVERT JUMPDEST POP PUSH2 0x69B PUSH2 0x270F JUMP JUMPDEST PUSH1 0x40 MLOAD DUP1 DUP3 DUP2 MSTORE PUSH1 0x20 ADD SWAP2 POP POP PUSH1 0x40 MLOAD DUP1 SWAP2 SUB SWAP1 RETURN JUMPDEST PUSH2 0x6B9 PUSH2 0x271C JUMP JUMPDEST PUSH1 0x40 MLOAD DUP1 DUP3 DUP2 MSTORE PUSH1 0x20 ADD SWAP2 POP POP PUSH1 0x40 MLOAD DUP1 SWAP2 SUB SWAP1 RETURN JUMPDEST CALLVALUE DUP1 ISZERO PUSH2 0x6DB JUMPI PUSH1 0x0 DUP1 REVERT JUMPDEST POP PUSH2 0x71E PUSH1 0x4 DUP1 CALLDATASIZE SUB PUSH1 0x20 DUP2 LT ISZERO PUSH2 0x6F2 JUMPI PUSH1 0x0 DUP1 REVERT JUMPDEST DUP2 ADD SWAP1 DUP1 DUP1 CALLDATALOAD PUSH20 0xFFFFFFFFFFFFFFFFFFFFFFFFFFFFFFFFFFFFFFFF AND SWAP1 PUSH1 0x20 ADD SWAP1 SWAP3 SWAP2 SWAP1 POP POP POP PUSH2 0x2980 JUMP JUMPDEST STOP JUMPDEST CALLVALUE DUP1 ISZERO PUSH2 0x72C JUMPI PUSH1 0x0 DUP1 REVERT JUMPDEST POP PUSH2 0x735 PUSH2 0x2B8E JUMP JUMPDEST PUSH1 0x40 MLOAD DUP1 DUP3 PUSH20 0xFFFFFFFFFFFFFFFFFFFFFFFFFFFFFFFFFFFFFFFF AND PUSH20 0xFFFFFFFFFFFFFFFFFFFFFFFFFFFFFFFFFFFFFFFF AND DUP2 MSTORE PUSH1 0x20 ADD SWAP2 POP POP PUSH1 0x40 MLOAD DUP1 SWAP2 SUB SWAP1 RETURN JUMPDEST CALLVALUE DUP1 ISZERO PUSH2 0x783 JUMPI PUSH1 0x0 DUP1 REVERT JUMPDEST POP PUSH2 0x78C PUSH2 0x2BBB JUMP JUMPDEST STOP JUMPDEST CALLVALUE DUP1 ISZERO PUSH2 0x79A JUMPI PUSH1 0x0 DUP1 REVERT JUMPDEST POP PUSH2 0x7DD PUSH1 0x4 DUP1 CALLDATASIZE SUB PUSH1 0x20 DUP2 LT ISZERO PUSH2 0x7B1 JUMPI PUSH1 0x0 DUP1 REVERT JUMPDEST DUP2 ADD SWAP1 DUP1 DUP1 CALLDATALOAD PUSH20 0xFFFFFFFFFFFFFFFFFFFFFFFFFFFFFFFFFFFFFFFF AND SWAP1 PUSH1 0x20 ADD SWAP1 SWAP3 SWAP2 SWAP1 POP POP POP PUSH2 0x2CD9 JUMP JUMPDEST STOP JUMPDEST CALLVALUE DUP1 ISZERO PUSH2 0x7EB JUMPI PUSH1 0x0 DUP1 REVERT JUMPDEST POP PUSH2 0x7F4 PUSH2 0x2F96 JUMP JUMPDEST PUSH1 0x40 MLOAD DUP1 DUP3 DUP2 MSTORE PUSH1 0x20 ADD SWAP2 POP POP PUSH1 0x40 MLOAD DUP1 SWAP2 SUB SWAP1 RETURN JUMPDEST CALLVALUE DUP1 ISZERO PUSH2 0x816 JUMPI PUSH1 0x0 DUP1 REVERT JUMPDEST POP PUSH2 0x81F PUSH2 0x2FA3 JUMP JUMPDEST PUSH1 0x40 MLOAD DUP1 DUP3 PUSH20 0xFFFFFFFFFFFFFFFFFFFFFFFFFFFFFFFFFFFFFFFF AND PUSH20 0xFFFFFFFFFFFFFFFFFFFFFFFFFFFFFFFFFFFFFFFF AND DUP2 MSTORE PUSH1 0x20 ADD SWAP2 POP POP PUSH1 0x40 MLOAD DUP1 SWAP2 SUB SWAP1 RETURN JUMPDEST CALLVALUE DUP1 ISZERO PUSH2 0x86D JUMPI PUSH1 0x0 DUP1 REVERT JUMPDEST POP PUSH2 0x876 PUSH2 0x2FD0 JUMP JUMPDEST PUSH1 0x40 MLOAD DUP1 DUP3 ISZERO ISZERO ISZERO ISZERO DUP2 MSTORE PUSH1 0x20 ADD SWAP2 POP POP PUSH1 0x40 MLOAD DUP1 SWAP2 SUB SWAP1 RETURN JUMPDEST CALLVALUE DUP1 ISZERO PUSH2 0x89C JUMPI PUSH1 0x0 DUP1 REVERT JUMPDEST POP PUSH2 0x8DF PUSH1 0x4 DUP1 CALLDATASIZE SUB PUSH1 0x20 DUP2 LT ISZERO PUSH2 0x8B3 JUMPI PUSH1 0x0 DUP1 REVERT JUMPDEST DUP2 ADD SWAP1 DUP1 DUP1 CALLDATALOAD PUSH20 0xFFFFFFFFFFFFFFFFFFFFFFFFFFFFFFFFFFFFFFFF AND SWAP1 PUSH1 0x20 ADD SWAP1 SWAP3 SWAP2 SWAP1 POP POP POP PUSH2 0x2FEA JUMP JUMPDEST PUSH1 0x40 MLOAD DUP1 DUP3 ISZERO ISZERO ISZERO ISZERO DUP2 MSTORE PUSH1 0x20 ADD SWAP2 POP POP PUSH1 0x40 MLOAD DUP1 SWAP2 SUB SWAP1 RETURN JUMPDEST CALLVALUE DUP1 ISZERO PUSH2 0x905 JUMPI PUSH1 0x0 DUP1 REVERT JUMPDEST POP PUSH2 0x948 PUSH1 0x4 DUP1 CALLDATASIZE SUB PUSH1 0x20 DUP2 LT ISZERO PUSH2 0x91C JUMPI PUSH1 0x0 DUP1 REVERT JUMPDEST DUP2 ADD SWAP1 DUP1 DUP1 CALLDATALOAD PUSH20 0xFFFFFFFFFFFFFFFFFFFFFFFFFFFFFFFFFFFFFFFF AND SWAP1 PUSH1 0x20 ADD SWAP1 SWAP3 SWAP2 SWAP1 POP POP POP PUSH2 0x3260 JUMP JUMPDEST STOP JUMPDEST CALLVALUE DUP1 ISZERO PUSH2 0x956 JUMPI PUSH1 0x0 DUP1 REVERT JUMPDEST POP PUSH2 0x95F PUSH2 0x33F4 JUMP JUMPDEST PUSH1 0x40 MLOAD DUP1 DUP3 DUP2 MSTORE PUSH1 0x20 ADD SWAP2 POP POP PUSH1 0x40 MLOAD DUP1 SWAP2 SUB SWAP1 RETURN JUMPDEST CALLVALUE DUP1 ISZERO PUSH2 0x981 JUMPI PUSH1 0x0 DUP1 REVERT JUMPDEST POP PUSH2 0x98A PUSH2 0x3401 JUMP JUMPDEST STOP JUMPDEST CALLVALUE DUP1 ISZERO PUSH2 0x998 JUMPI PUSH1 0x0 DUP1 REVERT JUMPDEST POP PUSH2 0x9A1 PUSH2 0x366B JUMP JUMPDEST STOP JUMPDEST CALLVALUE DUP1 ISZERO PUSH2 0x9AF JUMPI PUSH1 0x0 DUP1 REVERT JUMPDEST POP PUSH2 0x9B8 PUSH2 0x3ADD JUMP JUMPDEST PUSH1 0x40 MLOAD DUP1 DUP3 PUSH20 0xFFFFFFFFFFFFFFFFFFFFFFFFFFFFFFFFFFFFFFFF AND PUSH20 0xFFFFFFFFFFFFFFFFFFFFFFFFFFFFFFFFFFFFFFFF AND DUP2 MSTORE PUSH1 0x20 ADD SWAP2 POP POP PUSH1 0x40 MLOAD DUP1 SWAP2 SUB SWAP1 RETURN JUMPDEST CALLVALUE DUP1 ISZERO PUSH2 0xA06 JUMPI PUSH1 0x0 DUP1 REVERT JUMPDEST POP PUSH2 0xA0F PUSH2 0x3B09 JUMP JUMPDEST PUSH1 0x40 MLOAD DUP1 DUP3 DUP2 MSTORE PUSH1 0x20 ADD SWAP2 POP POP PUSH1 0x40 MLOAD DUP1 SWAP2 SUB SWAP1 RETURN JUMPDEST PUSH2 0xA5B PUSH1 0x4 DUP1 CALLDATASIZE SUB PUSH1 0x40 DUP2 LT ISZERO PUSH2 0xA3B JUMPI PUSH1 0x0 DUP1 REVERT JUMPDEST DUP2 ADD SWAP1 DUP1 DUP1 CALLDATALOAD SWAP1 PUSH1 0x20 ADD SWAP1 SWAP3 SWAP2 SWAP1 DUP1 CALLDATALOAD SWAP1 PUSH1 0x20 ADD SWAP1 SWAP3 SWAP2 SWAP1 POP POP POP PUSH2 0x3B16 JUMP JUMPDEST PUSH1 0x40 MLOAD DUP1 DUP3 DUP2 MSTORE PUSH1 0x20 ADD SWAP2 POP POP PUSH1 0x40 MLOAD DUP1 SWAP2 SUB SWAP1 RETURN JUMPDEST CALLVALUE DUP1 ISZERO PUSH2 0xA7D JUMPI PUSH1 0x0 DUP1 REVERT JUMPDEST POP PUSH2 0xA86 PUSH2 0x4043 JUMP JUMPDEST STOP JUMPDEST CALLVALUE DUP1 ISZERO PUSH2 0xA94 JUMPI PUSH1 0x0 DUP1 REVERT JUMPDEST POP PUSH2 0xAC1 PUSH1 0x4 DUP1 CALLDATASIZE SUB PUSH1 0x20 DUP2 LT ISZERO PUSH2 0xAAB JUMPI PUSH1 0x0 DUP1 REVERT JUMPDEST DUP2 ADD SWAP1 DUP1 DUP1 CALLDATALOAD SWAP1 PUSH1 0x20 ADD SWAP1 SWAP3 SWAP2 SWAP1 POP POP POP PUSH2 0x4299 JUMP JUMPDEST PUSH1 0x40 MLOAD DUP1 DUP3 DUP2 MSTORE PUSH1 0x20 ADD SWAP2 POP POP PUSH1 0x40 MLOAD DUP1 SWAP2 SUB SWAP1 RETURN JUMPDEST CALLVALUE DUP1 ISZERO PUSH2 0xAE3 JUMPI PUSH1 0x0 DUP1 REVERT JUMPDEST POP PUSH2 0xAEC PUSH2 0x437A JUMP JUMPDEST PUSH1 0x40 MLOAD DUP1 DUP3 DUP2 MSTORE PUSH1 0x20 ADD SWAP2 POP POP PUSH1 0x40 MLOAD DUP1 SWAP2 SUB SWAP1 RETURN JUMPDEST CALLVALUE DUP1 ISZERO PUSH2 0xB0E JUMPI PUSH1 0x0 DUP1 REVERT JUMPDEST POP PUSH2 0xB3B PUSH1 0x4 DUP1 CALLDATASIZE SUB PUSH1 0x20 DUP2 LT ISZERO PUSH2 0xB25 JUMPI PUSH1 0x0 DUP1 REVERT JUMPDEST DUP2 ADD SWAP1 DUP1 DUP1 CALLDATALOAD SWAP1 PUSH1 0x20 ADD SWAP1 SWAP3 SWAP2 SWAP1 POP POP POP PUSH2 0x4381 JUMP JUMPDEST STOP JUMPDEST CALLVALUE DUP1 ISZERO PUSH2 0xB49 JUMPI PUSH1 0x0 DUP1 REVERT JUMPDEST POP PUSH2 0xB52 PUSH2 0x4571 JUMP JUMPDEST PUSH1 0x40 MLOAD DUP1 DUP3 PUSH1 0x18 PUSH1 0x20 MUL DUP1 DUP4 DUP4 PUSH1 0x0 JUMPDEST DUP4 DUP2 LT ISZERO PUSH2 0xB7D JUMPI DUP1 DUP3 ADD MLOAD DUP2 DUP5 ADD MSTORE PUSH1 0x20 DUP2 ADD SWAP1 POP PUSH2 0xB62 JUMP JUMPDEST POP POP POP POP SWAP1 POP ADD SWAP2 POP POP PUSH1 0x40 MLOAD DUP1 SWAP2 SUB SWAP1 RETURN JUMPDEST CALLVALUE DUP1 ISZERO PUSH2 0xB9C JUMPI PUSH1 0x0 DUP1 REVERT JUMPDEST POP PUSH2 0xBC9 PUSH1 0x4 DUP1 CALLDATASIZE SUB PUSH1 0x20 DUP2 LT ISZERO PUSH2 0xBB3 JUMPI PUSH1 0x0 DUP1 REVERT JUMPDEST DUP2 ADD SWAP1 DUP1 DUP1 CALLDATALOAD SWAP1 PUSH1 0x20 ADD SWAP1 SWAP3 SWAP2 SWAP1 POP POP POP PUSH2 0x45DF JUMP JUMPDEST PUSH1 0x40 MLOAD DUP1 DUP4 PUSH20 0xFFFFFFFFFFFFFFFFFFFFFFFFFFFFFFFFFFFFFFFF AND PUSH20 0xFFFFFFFFFFFFFFFFFFFFFFFFFFFFFFFFFFFFFFFF AND DUP2 MSTORE PUSH1 0x20 ADD DUP3 DUP2 MSTORE PUSH1 0x20 ADD SWAP3 POP POP POP PUSH1 0x40 MLOAD DUP1 SWAP2 SUB SWAP1 RETURN JUMPDEST CALLVALUE DUP1 ISZERO PUSH2 0xC1E JUMPI PUSH1 0x0 DUP1 REVERT JUMPDEST POP PUSH2 0xC55 PUSH1 0x4 DUP1 CALLDATASIZE SUB PUSH1 0x40 DUP2 LT ISZERO PUSH2 0xC35 JUMPI PUSH1 0x0 DUP1 REVERT JUMPDEST DUP2 ADD SWAP1 DUP1 DUP1 CALLDATALOAD SWAP1 PUSH1 0x20 ADD SWAP1 SWAP3 SWAP2 SWAP1 DUP1 CALLDATALOAD SWAP1 PUSH1 0x20 ADD SWAP1 SWAP3 SWAP2 SWAP1 POP POP POP PUSH2 0x4631 JUMP JUMPDEST PUSH1 0x40 MLOAD DUP1 DUP3 DUP2 MSTORE PUSH1 0x20 ADD SWAP2 POP POP PUSH1 0x40 MLOAD DUP1 SWAP2 SUB SWAP1 RETURN JUMPDEST CALLVALUE DUP1 ISZERO PUSH2 0xC77 JUMPI PUSH1 0x0 DUP1 REVERT JUMPDEST POP PUSH2 0xC80 PUSH2 0x4908 JUMP JUMPDEST PUSH1 0x40 MLOAD DUP1 DUP3 DUP2 MSTORE PUSH1 0x20 ADD SWAP2 POP POP PUSH1 0x40 MLOAD DUP1 SWAP2 SUB SWAP1 RETURN JUMPDEST CALLVALUE DUP1 ISZERO PUSH2 0xCA2 JUMPI PUSH1 0x0 DUP1 REVERT JUMPDEST POP PUSH2 0xCAB PUSH2 0x4915 JUMP JUMPDEST PUSH1 0x40 MLOAD DUP1 DUP3 ISZERO ISZERO ISZERO ISZERO DUP2 MSTORE PUSH1 0x20 ADD SWAP2 POP POP PUSH1 0x40 MLOAD DUP1 SWAP2 SUB SWAP1 RETURN JUMPDEST CALLVALUE DUP1 ISZERO PUSH2 0xCD1 JUMPI PUSH1 0x0 DUP1 REVERT JUMPDEST POP PUSH2 0xCFE PUSH1 0x4 DUP1 CALLDATASIZE SUB PUSH1 0x20 DUP2 LT ISZERO PUSH2 0xCE8 JUMPI PUSH1 0x0 DUP1 REVERT JUMPDEST DUP2 ADD SWAP1 DUP1 DUP1 CALLDATALOAD SWAP1 PUSH1 0x20 ADD SWAP1 SWAP3 SWAP2 SWAP1 POP POP POP PUSH2 0x492F JUMP JUMPDEST STOP JUMPDEST CALLVALUE DUP1 ISZERO PUSH2 0xD0C JUMPI PUSH1 0x0 DUP1 REVERT JUMPDEST POP PUSH2 0xD15 PUSH2 0x4A36 JUMP JUMPDEST STOP JUMPDEST CALLVALUE DUP1 ISZERO PUSH2 0xD23 JUMPI PUSH1 0x0 DUP1 REVERT JUMPDEST POP PUSH2 0xD2C PUSH2 0x4B69 JUMP JUMPDEST PUSH1 0x40 MLOAD DUP1 DUP3 PUSH20 0xFFFFFFFFFFFFFFFFFFFFFFFFFFFFFFFFFFFFFFFF AND PUSH20 0xFFFFFFFFFFFFFFFFFFFFFFFFFFFFFFFFFFFFFFFF AND DUP2 MSTORE PUSH1 0x20 ADD SWAP2 POP POP PUSH1 0x40 MLOAD DUP1 SWAP2 SUB SWAP1 RETURN JUMPDEST CALLVALUE DUP1 ISZERO PUSH2 0xD7A JUMPI PUSH1 0x0 DUP1 REVERT JUMPDEST POP PUSH2 0xDBD PUSH1 0x4 DUP1 CALLDATASIZE SUB PUSH1 0x20 DUP2 LT ISZERO PUSH2 0xD91 JUMPI PUSH1 0x0 DUP1 REVERT JUMPDEST DUP2 ADD SWAP1 DUP1 DUP1 CALLDATALOAD PUSH20 0xFFFFFFFFFFFFFFFFFFFFFFFFFFFFFFFFFFFFFFFF AND SWAP1 PUSH1 0x20 ADD SWAP1 SWAP3 SWAP2 SWAP1 POP POP POP PUSH2 0x4B96 JUMP JUMPDEST PUSH1 0x40 MLOAD DUP1 DUP3 DUP2 MSTORE PUSH1 0x20 ADD SWAP2 POP POP PUSH1 0x40 MLOAD DUP1 SWAP2 SUB SWAP1 RETURN JUMPDEST CALLVALUE DUP1 ISZERO PUSH2 0xDDF JUMPI PUSH1 0x0 DUP1 REVERT JUMPDEST POP PUSH2 0xE0C PUSH1 0x4 DUP1 CALLDATASIZE SUB PUSH1 0x20 DUP2 LT ISZERO PUSH2 0xDF6 JUMPI PUSH1 0x0 DUP1 REVERT JUMPDEST DUP2 ADD SWAP1 DUP1 DUP1 CALLDATALOAD SWAP1 PUSH1 0x20 ADD SWAP1 SWAP3 SWAP2 SWAP1 POP POP POP PUSH2 0x4BB5 JUMP JUMPDEST PUSH1 0x40 MLOAD DUP1 DUP3 DUP2 MSTORE PUSH1 0x20 ADD SWAP2 POP POP PUSH1 0x40 MLOAD DUP1 SWAP2 SUB SWAP1 RETURN JUMPDEST CALLVALUE DUP1 ISZERO PUSH2 0xE2E JUMPI PUSH1 0x0 DUP1 REVERT JUMPDEST POP PUSH2 0xE5B PUSH1 0x4 DUP1 CALLDATASIZE SUB PUSH1 0x20 DUP2 LT ISZERO PUSH2 0xE45 JUMPI PUSH1 0x0 DUP1 REVERT JUMPDEST DUP2 ADD SWAP1 DUP1 DUP1 CALLDATALOAD SWAP1 PUSH1 0x20 ADD SWAP1 SWAP3 SWAP2 SWAP1 POP POP POP PUSH2 0x4BE4 JUMP JUMPDEST PUSH1 0x40 MLOAD DUP1 DUP3 DUP2 MSTORE PUSH1 0x20 ADD SWAP2 POP POP PUSH1 0x40 MLOAD DUP1 SWAP2 SUB SWAP1 RETURN JUMPDEST CALLVALUE DUP1 ISZERO PUSH2 0xE7D JUMPI PUSH1 0x0 DUP1 REVERT JUMPDEST POP PUSH2 0xEAA PUSH1 0x4 DUP1 CALLDATASIZE SUB PUSH1 0x20 DUP2 LT ISZERO PUSH2 0xE94 JUMPI PUSH1 0x0 DUP1 REVERT JUMPDEST DUP2 ADD SWAP1 DUP1 DUP1 CALLDATALOAD SWAP1 PUSH1 0x20 ADD SWAP1 SWAP3 SWAP2 SWAP1 POP POP POP PUSH2 0x4CD2 JUMP JUMPDEST STOP JUMPDEST CALLVALUE DUP1 ISZERO PUSH2 0xEB8 JUMPI PUSH1 0x0 DUP1 REVERT JUMPDEST POP PUSH2 0xEC1 PUSH2 0x50E1 JUMP JUMPDEST PUSH1 0x40 MLOAD DUP1 DUP3 DUP2 MSTORE PUSH1 0x20 ADD SWAP2 POP POP PUSH1 0x40 MLOAD DUP1 SWAP2 SUB SWAP1 RETURN JUMPDEST CALLVALUE DUP1 ISZERO PUSH2 0xEE3 JUMPI PUSH1 0x0 DUP1 REVERT JUMPDEST POP PUSH2 0xF10 PUSH1 0x4 DUP1 CALLDATASIZE SUB PUSH1 0x20 DUP2 LT ISZERO PUSH2 0xEFA JUMPI PUSH1 0x0 DUP1 REVERT JUMPDEST DUP2 ADD SWAP1 DUP1 DUP1 CALLDATALOAD SWAP1 PUSH1 0x20 ADD SWAP1 SWAP3 SWAP2 SWAP1 POP POP POP PUSH2 0x50E6 JUMP JUMPDEST STOP JUMPDEST CALLVALUE DUP1 ISZERO PUSH2 0xF1E JUMPI PUSH1 0x0 DUP1 REVERT JUMPDEST POP PUSH2 0xF4B PUSH1 0x4 DUP1 CALLDATASIZE SUB PUSH1 0x20 DUP2 LT ISZERO PUSH2 0xF35 JUMPI PUSH1 0x0 DUP1 REVERT JUMPDEST DUP2 ADD SWAP1 DUP1 DUP1 CALLDATALOAD SWAP1 PUSH1 0x20 ADD SWAP1 SWAP3 SWAP2 SWAP1 POP POP POP PUSH2 0x52A3 JUMP JUMPDEST PUSH1 0x40 MLOAD DUP1 DUP3 DUP2 MSTORE PUSH1 0x20 ADD SWAP2 POP POP PUSH1 0x40 MLOAD DUP1 SWAP2 SUB SWAP1 RETURN JUMPDEST CALLVALUE DUP1 ISZERO PUSH2 0xF6D JUMPI PUSH1 0x0 DUP1 REVERT JUMPDEST POP PUSH2 0xF76 PUSH2 0x545C JUMP JUMPDEST PUSH1 0x40 MLOAD DUP1 DUP3 DUP2 MSTORE PUSH1 0x20 ADD SWAP2 POP POP PUSH1 0x40 MLOAD DUP1 SWAP2 SUB SWAP1 RETURN JUMPDEST PUSH1 0x0 PUSH2 0xFED PUSH32 0x45786368616E6765526174657300000000000000000000000000000000000000 PUSH1 0x40 MLOAD DUP1 PUSH1 0x40 ADD PUSH1 0x40 MSTORE DUP1 PUSH1 0x1D DUP2 MSTORE PUSH1 0x20 ADD PUSH32 0x4D697373696E672045786368616E676552617465732061646472657373000000 DUP2 MSTORE POP PUSH2 0x5469 JUMP JUMPDEST SWAP1 POP SWAP1 JUMP JUMPDEST PUSH1 0x0 PUSH1 0x10 PUSH2 0xFFE PUSH2 0x5DFB JUMP JUMPDEST CALLVALUE GT ISZERO PUSH2 0x1056 JUMPI PUSH1 0x40 MLOAD PUSH32 0x8C379A000000000000000000000000000000000000000000000000000000000 DUP2 MSTORE PUSH1 0x4 ADD DUP1 DUP1 PUSH1 0x20 ADD DUP3 DUP2 SUB DUP3 MSTORE PUSH1 0x25 DUP2 MSTORE PUSH1 0x20 ADD DUP1 PUSH2 0x6163 PUSH1 0x25 SWAP2 CODECOPY PUSH1 0x40 ADD SWAP2 POP POP PUSH1 0x40 MLOAD DUP1 SWAP2 SUB SWAP1 REVERT JUMPDEST PUSH1 0x0 DUP1 PUSH2 0x1131 PUSH2 0x1064 PUSH2 0xF8C JUMP JUMPDEST PUSH20 0xFFFFFFFFFFFFFFFFFFFFFFFFFFFFFFFFFFFFFFFF AND PUSH4 0xAC82F608 PUSH32 0x4554480000000000000000000000000000000000000000000000000000000000 PUSH1 0x40 MLOAD DUP3 PUSH4 0xFFFFFFFF AND PUSH1 0xE0 SHL DUP2 MSTORE PUSH1 0x4 ADD DUP1 DUP3 DUP2 MSTORE PUSH1 0x20 ADD SWAP2 POP POP PUSH1 0x20 PUSH1 0x40 MLOAD DUP1 DUP4 SUB DUP2 DUP7 DUP1 PUSH2 0x10CF PUSH2 0x5E6B JUMP JUMPDEST ISZERO DUP1 ISZERO PUSH2 0x10DB JUMPI PUSH1 0x0 DUP1 REVERT JUMPDEST POP GAS PUSH2 0x10E5 PUSH2 0x5EA2 JUMP JUMPDEST POP POP POP POP POP ISZERO DUP1 ISZERO PUSH2 0x10FB JUMPI RETURNDATASIZE PUSH1 0x0 DUP1 RETURNDATACOPY RETURNDATASIZE PUSH1 0x0 REVERT JUMPDEST POP POP POP POP PUSH1 0x40 MLOAD RETURNDATASIZE PUSH1 0x20 DUP2 LT ISZERO PUSH2 0x1111 JUMPI PUSH1 0x0 DUP1 REVERT JUMPDEST DUP2 ADD SWAP1 DUP1 DUP1 MLOAD SWAP1 PUSH1 0x20 ADD SWAP1 SWAP3 SWAP2 SWAP1 POP POP POP CALLVALUE PUSH2 0x558C SWAP1 SWAP2 SWAP1 PUSH4 0xFFFFFFFF AND JUMP JUMPDEST SWAP1 POP PUSH1 0x0 DUP2 SWAP1 POP PUSH1 0x0 PUSH1 0xC PUSH2 0x1144 PUSH2 0x5DFB JUMP JUMPDEST SWAP1 POP JUMPDEST PUSH1 0x0 DUP3 GT DUP1 ISZERO PUSH2 0x115F JUMPI POP PUSH1 0xD PUSH2 0x115C PUSH2 0x5DFB JUMP JUMPDEST DUP2 LT JUMPDEST ISZERO PUSH2 0x1B1B JUMPI PUSH2 0x116C PUSH2 0x5EFB JUMP JUMPDEST PUSH1 0xB PUSH1 0x0 DUP4 DUP2 MSTORE PUSH1 0x20 ADD SWAP1 DUP2 MSTORE PUSH1 0x20 ADD PUSH1 0x0 KECCAK256 PUSH1 0x40 MLOAD DUP1 PUSH1 0x40 ADD PUSH1 0x40 MSTORE SWAP1 DUP2 PUSH1 0x0 DUP3 ADD PUSH1 0x0 SWAP1 PUSH2 0x119A PUSH2 0x5DFB JUMP JUMPDEST SWAP1 PUSH2 0x100 EXP SWAP1 DIV PUSH20 0xFFFFFFFFFFFFFFFFFFFFFFFFFFFFFFFFFFFFFFFF AND PUSH20 0xFFFFFFFFFFFFFFFFFFFFFFFFFFFFFFFFFFFFFFFF AND PUSH20 0xFFFFFFFFFFFFFFFFFFFFFFFFFFFFFFFFFFFFFFFF AND DUP2 MSTORE PUSH1 0x20 ADD PUSH1 0x1 DUP3 ADD PUSH2 0x11F4 PUSH2 0x5DFB JUMP JUMPDEST DUP2 MSTORE POP POP SWAP1 POP PUSH1 0x0 PUSH20 0xFFFFFFFFFFFFFFFFFFFFFFFFFFFFFFFFFFFFFFFF AND DUP2 PUSH1 0x0 ADD MLOAD PUSH20 0xFFFFFFFFFFFFFFFFFFFFFFFFFFFFFFFFFFFFFFFF AND EQ ISZERO PUSH2 0x1264 JUMPI PUSH2 0x1250 PUSH1 0x1 PUSH1 0xC PUSH2 0x1242 PUSH2 0x5DFB JUMP JUMPDEST PUSH2 0x55B9 SWAP1 SWAP2 SWAP1 PUSH4 0xFFFFFFFF AND JUMP JUMPDEST PUSH1 0xC DUP2 SWAP1 PUSH2 0x125C PUSH2 0x5E32 JUMP JUMPDEST POP POP POP PUSH2 0x1B0D JUMP JUMPDEST DUP3 DUP2 PUSH1 0x20 ADD MLOAD GT ISZERO PUSH2 0x16C8 JUMPI PUSH1 0x0 PUSH2 0x1289 DUP5 DUP4 PUSH1 0x20 ADD MLOAD PUSH2 0x5641 SWAP1 SWAP2 SWAP1 PUSH4 0xFFFFFFFF AND JUMP JUMPDEST SWAP1 POP PUSH1 0x40 MLOAD DUP1 PUSH1 0x40 ADD PUSH1 0x40 MSTORE DUP1 DUP4 PUSH1 0x0 ADD MLOAD PUSH20 0xFFFFFFFFFFFFFFFFFFFFFFFFFFFFFFFFFFFFFFFF AND DUP2 MSTORE PUSH1 0x20 ADD DUP3 DUP2 MSTORE POP PUSH1 0xB PUSH1 0x0 DUP6 DUP2 MSTORE PUSH1 0x20 ADD SWAP1 DUP2 MSTORE PUSH1 0x20 ADD PUSH1 0x0 KECCAK256 PUSH1 0x0 DUP3 ADD MLOAD DUP2 PUSH1 0x0 ADD PUSH1 0x0 PUSH2 0x100 EXP DUP2 PUSH2 0x12E5 PUSH2 0x5DFB JUMP JUMPDEST DUP2 PUSH20 0xFFFFFFFFFFFFFFFFFFFFFFFFFFFFFFFFFFFFFFFF MUL NOT AND SWAP1 DUP4 PUSH20 0xFFFFFFFFFFFFFFFFFFFFFFFFFFFFFFFFFFFFFFFF AND MUL OR SWAP1 PUSH2 0x1321 PUSH2 0x5E32 JUMP JUMPDEST POP POP POP PUSH1 0x20 DUP3 ADD MLOAD DUP2 PUSH1 0x1 ADD PUSH2 0x1335 PUSH2 0x5E32 JUMP JUMPDEST POP POP SWAP1 POP POP PUSH2 0x1356 DUP5 PUSH1 0xE PUSH2 0x1348 PUSH2 0x5DFB JUMP JUMPDEST PUSH2 0x5641 SWAP1 SWAP2 SWAP1 PUSH4 0xFFFFFFFF AND JUMP JUMPDEST PUSH1 0xE DUP2 SWAP1 PUSH2 0x1362 PUSH2 0x5E32 JUMP JUMPDEST POP POP POP PUSH2 0x143D PUSH2 0x1370 PUSH2 0xF8C JUMP JUMPDEST PUSH20 0xFFFFFFFFFFFFFFFFFFFFFFFFFFFFFFFFFFFFFFFF AND PUSH4 0xAC82F608 PUSH32 0x4554480000000000000000000000000000000000000000000000000000000000 PUSH1 0x40 MLOAD DUP3 PUSH4 0xFFFFFFFF AND PUSH1 0xE0 SHL DUP2 MSTORE PUSH1 0x4 ADD DUP1 DUP3 DUP2 MSTORE PUSH1 0x20 ADD SWAP2 POP POP PUSH1 0x20 PUSH1 0x40 MLOAD DUP1 DUP4 SUB DUP2 DUP7 DUP1 PUSH2 0x13DB PUSH2 0x5E6B JUMP JUMPDEST ISZERO DUP1 ISZERO PUSH2 0x13E7 JUMPI PUSH1 0x0 DUP1 REVERT JUMPDEST POP GAS PUSH2 0x13F1 PUSH2 0x5EA2 JUMP JUMPDEST POP POP POP POP POP ISZERO DUP1 ISZERO PUSH2 0x1407 JUMPI RETURNDATASIZE PUSH1 0x0 DUP1 RETURNDATACOPY RETURNDATASIZE PUSH1 0x0 REVERT JUMPDEST POP POP POP POP PUSH1 0x40 MLOAD RETURNDATASIZE PUSH1 0x20 DUP2 LT ISZERO PUSH2 0x141D JUMPI PUSH1 0x0 DUP1 REVERT JUMPDEST DUP2 ADD SWAP1 DUP1 DUP1 MLOAD SWAP1 PUSH1 0x20 ADD SWAP1 SWAP3 SWAP2 SWAP1 POP POP POP DUP6 PUSH2 0x56CA SWAP1 SWAP2 SWAP1 PUSH4 0xFFFFFFFF AND JUMP JUMPDEST SWAP6 POP DUP2 PUSH1 0x0 ADD MLOAD PUSH20 0xFFFFFFFFFFFFFFFFFFFFFFFFFFFFFFFFFFFFFFFF AND PUSH2 0x8FC DUP8 SWAP1 DUP2 ISZERO MUL SWAP1 PUSH1 0x40 MLOAD PUSH1 0x0 PUSH1 0x40 MLOAD DUP1 DUP4 SUB DUP2 DUP6 DUP9 DUP9 PUSH2 0x147A PUSH2 0x5F2B JUMP JUMPDEST POP POP POP POP POP POP SWAP4 POP POP POP POP PUSH2 0x155D JUMPI PUSH1 0xA PUSH1 0x0 SWAP1 PUSH2 0x1496 PUSH2 0x5DFB JUMP JUMPDEST SWAP1 PUSH2 0x100 EXP SWAP1 DIV PUSH20 0xFFFFFFFFFFFFFFFFFFFFFFFFFFFFFFFFFFFFFFFF AND PUSH20 0xFFFFFFFFFFFFFFFFFFFFFFFFFFFFFFFFFFFFFFFF AND PUSH2 0x8FC DUP8 SWAP1 DUP2 ISZERO MUL SWAP1 PUSH1 0x40 MLOAD PUSH1 0x0 PUSH1 0x40 MLOAD DUP1 DUP4 SUB DUP2 DUP6 DUP9 DUP9 PUSH2 0x14E9 PUSH2 0x5F2B JUMP JUMPDEST POP POP POP POP POP POP SWAP4 POP POP POP POP ISZERO DUP1 ISZERO PUSH2 0x1505 JUMPI RETURNDATASIZE PUSH1 0x0 DUP1 RETURNDATACOPY RETURNDATASIZE PUSH1 0x0 REVERT JUMPDEST POP DUP2 PUSH1 0x0 ADD MLOAD PUSH20 0xFFFFFFFFFFFFFFFFFFFFFFFFFFFFFFFFFFFFFFFF AND PUSH32 0xF2435D3901399DAA085F8B58D2409FFF9B83CE4CA97C1F144B532F5A08B1C96C DUP8 PUSH1 0x40 MLOAD DUP1 DUP3 DUP2 MSTORE PUSH1 0x20 ADD SWAP2 POP POP PUSH1 0x40 MLOAD DUP1 SWAP2 SUB SWAP1 LOG2 PUSH2 0x15D8 JUMP JUMPDEST DUP3 DUP3 PUSH1 0x0 ADD MLOAD PUSH20 0xFFFFFFFFFFFFFFFFFFFFFFFFFFFFFFFFFFFFFFFF AND GAS PUSH2 0x1582 PUSH2 0x5F84 JUMP JUMPDEST PUSH20 0xFFFFFFFFFFFFFFFFFFFFFFFFFFFFFFFFFFFFFFFF AND PUSH32 0x6D957E9E816107F67CB7118461E3C259E96896F80223C9AF2972596C2FDD401C DUP10 DUP9 PUSH1 0x40 MLOAD DUP1 DUP4 DUP2 MSTORE PUSH1 0x20 ADD DUP3 DUP2 MSTORE PUSH1 0x20 ADD SWAP3 POP POP POP PUSH1 0x40 MLOAD DUP1 SWAP2 SUB SWAP1 LOG4 JUMPDEST PUSH2 0x15E0 PUSH2 0x5700 JUMP JUMPDEST PUSH20 0xFFFFFFFFFFFFFFFFFFFFFFFFFFFFFFFFFFFFFFFF AND PUSH4 0xA9059CBB GAS PUSH2 0x1604 PUSH2 0x5F84 JUMP JUMPDEST DUP7 PUSH1 0x40 MLOAD DUP4 PUSH4 0xFFFFFFFF AND PUSH1 0xE0 SHL DUP2 MSTORE PUSH1 0x4 ADD DUP1 DUP4 PUSH20 0xFFFFFFFFFFFFFFFFFFFFFFFFFFFFFFFFFFFFFFFF AND PUSH20 0xFFFFFFFFFFFFFFFFFFFFFFFFFFFFFFFFFFFFFFFF AND DUP2 MSTORE PUSH1 0x20 ADD DUP3 DUP2 MSTORE PUSH1 0x20 ADD SWAP3 POP POP POP PUSH1 0x20 PUSH1 0x40 MLOAD DUP1 DUP4 SUB DUP2 PUSH1 0x0 DUP8 DUP1 PUSH2 0x1669 PUSH2 0x5E6B JUMP JUMPDEST ISZERO DUP1 ISZERO PUSH2 0x1675 JUMPI PUSH1 0x0 DUP1 REVERT JUMPDEST POP GAS PUSH2 0x167F PUSH2 0x5F2B JUMP JUMPDEST POP POP POP POP POP POP ISZERO DUP1 ISZERO PUSH2 0x1696 JUMPI RETURNDATASIZE PUSH1 0x0 DUP1 RETURNDATACOPY RETURNDATASIZE PUSH1 0x0 REVERT JUMPDEST POP POP POP POP PUSH1 0x40 MLOAD RETURNDATASIZE PUSH1 0x20 DUP2 LT ISZERO PUSH2 0x16AC JUMPI PUSH1 0x0 DUP1 REVERT JUMPDEST DUP2 ADD SWAP1 DUP1 DUP1 MLOAD SWAP1 PUSH1 0x20 ADD SWAP1 SWAP3 SWAP2 SWAP1 POP POP POP POP PUSH1 0x0 SWAP4 POP POP PUSH2 0x1B0C JUMP JUMPDEST DUP3 DUP2 PUSH1 0x20 ADD MLOAD GT PUSH2 0x1B0B JUMPI PUSH1 0xB PUSH1 0x0 DUP4 DUP2 MSTORE PUSH1 0x20 ADD SWAP1 DUP2 MSTORE PUSH1 0x20 ADD PUSH1 0x0 KECCAK256 PUSH1 0x0 DUP1 DUP3 ADD PUSH1 0x0 PUSH2 0x100 EXP DUP2 PUSH2 0x16FA PUSH2 0x5DFB JUMP JUMPDEST SWAP1 PUSH20 0xFFFFFFFFFFFFFFFFFFFFFFFFFFFFFFFFFFFFFFFF MUL NOT AND SWAP1 PUSH2 0x171C PUSH2 0x5E32 JUMP JUMPDEST POP POP PUSH1 0x1 DUP3 ADD PUSH1 0x0 SWAP1 PUSH2 0x172D PUSH2 0x5E32 JUMP JUMPDEST POP POP POP POP PUSH2 0x174E PUSH1 0x1 PUSH1 0xC PUSH2 0x1740 PUSH2 0x5DFB JUMP JUMPDEST PUSH2 0x55B9 SWAP1 SWAP2 SWAP1 PUSH4 0xFFFFFFFF AND JUMP JUMPDEST PUSH1 0xC DUP2 SWAP1 PUSH2 0x175A PUSH2 0x5E32 JUMP JUMPDEST POP POP POP PUSH2 0x177D DUP2 PUSH1 0x20 ADD MLOAD PUSH1 0xE PUSH2 0x176F PUSH2 0x5DFB JUMP JUMPDEST PUSH2 0x5641 SWAP1 SWAP2 SWAP1 PUSH4 0xFFFFFFFF AND JUMP JUMPDEST PUSH1 0xE DUP2 SWAP1 PUSH2 0x1789 PUSH2 0x5E32 JUMP JUMPDEST POP POP POP PUSH2 0x1868 PUSH2 0x1797 PUSH2 0xF8C JUMP JUMPDEST PUSH20 0xFFFFFFFFFFFFFFFFFFFFFFFFFFFFFFFFFFFFFFFF AND PUSH4 0xAC82F608 PUSH32 0x4554480000000000000000000000000000000000000000000000000000000000 PUSH1 0x40 MLOAD DUP3 PUSH4 0xFFFFFFFF AND PUSH1 0xE0 SHL DUP2 MSTORE PUSH1 0x4 ADD DUP1 DUP3 DUP2 MSTORE PUSH1 0x20 ADD SWAP2 POP POP PUSH1 0x20 PUSH1 0x40 MLOAD DUP1 DUP4 SUB DUP2 DUP7 DUP1 PUSH2 0x1802 PUSH2 0x5E6B JUMP JUMPDEST ISZERO DUP1 ISZERO PUSH2 0x180E JUMPI PUSH1 0x0 DUP1 REVERT JUMPDEST POP GAS PUSH2 0x1818 PUSH2 0x5EA2 JUMP JUMPDEST POP POP POP POP POP ISZERO DUP1 ISZERO PUSH2 0x182E JUMPI RETURNDATASIZE PUSH1 0x0 DUP1 RETURNDATACOPY RETURNDATASIZE PUSH1 0x0 REVERT JUMPDEST POP POP POP POP PUSH1 0x40 MLOAD RETURNDATASIZE PUSH1 0x20 DUP2 LT ISZERO PUSH2 0x1844 JUMPI PUSH1 0x0 DUP1 REVERT JUMPDEST DUP2 ADD SWAP1 DUP1 DUP1 MLOAD SWAP1 PUSH1 0x20 ADD SWAP1 SWAP3 SWAP2 SWAP1 POP POP POP DUP3 PUSH1 0x20 ADD MLOAD PUSH2 0x56CA SWAP1 SWAP2 SWAP1 PUSH4 0xFFFFFFFF AND JUMP JUMPDEST SWAP5 POP DUP1 PUSH1 0x0 ADD MLOAD PUSH20 0xFFFFFFFFFFFFFFFFFFFFFFFFFFFFFFFFFFFFFFFF AND PUSH2 0x8FC DUP7 SWAP1 DUP2 ISZERO MUL SWAP1 PUSH1 0x40 MLOAD PUSH1 0x0 PUSH1 0x40 MLOAD DUP1 DUP4 SUB DUP2 DUP6 DUP9 DUP9 PUSH2 0x18A5 PUSH2 0x5F2B JUMP JUMPDEST POP POP POP POP POP POP SWAP4 POP POP POP POP PUSH2 0x1988 JUMPI PUSH1 0xA PUSH1 0x0 SWAP1 PUSH2 0x18C1 PUSH2 0x5DFB JUMP JUMPDEST SWAP1 PUSH2 0x100 EXP SWAP1 DIV PUSH20 0xFFFFFFFFFFFFFFFFFFFFFFFFFFFFFFFFFFFFFFFF AND PUSH20 0xFFFFFFFFFFFFFFFFFFFFFFFFFFFFFFFFFFFFFFFF AND PUSH2 0x8FC DUP7 SWAP1 DUP2 ISZERO MUL SWAP1 PUSH1 0x40 MLOAD PUSH1 0x0 PUSH1 0x40 MLOAD DUP1 DUP4 SUB DUP2 DUP6 DUP9 DUP9 PUSH2 0x1914 PUSH2 0x5F2B JUMP JUMPDEST POP POP POP POP POP POP SWAP4 POP POP POP POP ISZERO DUP1 ISZERO PUSH2 0x1930 JUMPI RETURNDATASIZE PUSH1 0x0 DUP1 RETURNDATACOPY RETURNDATASIZE PUSH1 0x0 REVERT JUMPDEST POP DUP1 PUSH1 0x0 ADD MLOAD PUSH20 0xFFFFFFFFFFFFFFFFFFFFFFFFFFFFFFFFFFFFFFFF AND PUSH32 0xF2435D3901399DAA085F8B58D2409FFF9B83CE4CA97C1F144B532F5A08B1C96C DUP7 PUSH1 0x40 MLOAD DUP1 DUP3 DUP2 MSTORE PUSH1 0x20 ADD SWAP2 POP POP PUSH1 0x40 MLOAD DUP1 SWAP2 SUB SWAP1 LOG2 PUSH2 0x1A07 JUMP JUMPDEST DUP2 DUP2 PUSH1 0x0 ADD MLOAD PUSH20 0xFFFFFFFFFFFFFFFFFFFFFFFFFFFFFFFFFFFFFFFF AND GAS PUSH2 0x19AD PUSH2 0x5F84 JUMP JUMPDEST PUSH20 0xFFFFFFFFFFFFFFFFFFFFFFFFFFFFFFFFFFFFFFFF AND PUSH32 0x6D957E9E816107F67CB7118461E3C259E96896F80223C9AF2972596C2FDD401C DUP9 DUP6 PUSH1 0x20 ADD MLOAD PUSH1 0x40 MLOAD DUP1 DUP4 DUP2 MSTORE PUSH1 0x20 ADD DUP3 DUP2 MSTORE PUSH1 0x20 ADD SWAP3 POP POP POP PUSH1 0x40 MLOAD DUP1 SWAP2 SUB SWAP1 LOG4 JUMPDEST PUSH2 0x1A0F PUSH2 0x5700 JUMP JUMPDEST PUSH20 0xFFFFFFFFFFFFFFFFFFFFFFFFFFFFFFFFFFFFFFFF AND PUSH4 0xA9059CBB GAS PUSH2 0x1A33 PUSH2 0x5F84 JUMP JUMPDEST DUP4 PUSH1 0x20 ADD MLOAD PUSH1 0x40 MLOAD DUP4 PUSH4 0xFFFFFFFF AND PUSH1 0xE0 SHL DUP2 MSTORE PUSH1 0x4 ADD DUP1 DUP4 PUSH20 0xFFFFFFFFFFFFFFFFFFFFFFFFFFFFFFFFFFFFFFFF AND PUSH20 0xFFFFFFFFFFFFFFFFFFFFFFFFFFFFFFFFFFFFFFFF AND DUP2 MSTORE PUSH1 0x20 ADD DUP3 DUP2 MSTORE PUSH1 0x20 ADD SWAP3 POP POP POP PUSH1 0x20 PUSH1 0x40 MLOAD DUP1 DUP4 SUB DUP2 PUSH1 0x0 DUP8 DUP1 PUSH2 0x1A9C PUSH2 0x5E6B JUMP JUMPDEST ISZERO DUP1 ISZERO PUSH2 0x1AA8 JUMPI PUSH1 0x0 DUP1 REVERT JUMPDEST POP GAS PUSH2 0x1AB2 PUSH2 0x5F2B JUMP JUMPDEST POP POP POP POP POP POP ISZERO DUP1 ISZERO PUSH2 0x1AC9 JUMPI RETURNDATASIZE PUSH1 0x0 DUP1 RETURNDATACOPY RETURNDATASIZE PUSH1 0x0 REVERT JUMPDEST POP POP POP POP PUSH1 0x40 MLOAD RETURNDATASIZE PUSH1 0x20 DUP2 LT ISZERO PUSH2 0x1ADF JUMPI PUSH1 0x0 DUP1 REVERT JUMPDEST DUP2 ADD SWAP1 DUP1 DUP1 MLOAD SWAP1 PUSH1 0x20 ADD SWAP1 SWAP3 SWAP2 SWAP1 POP POP POP POP PUSH2 0x1B08 DUP2 PUSH1 0x20 ADD MLOAD DUP5 PUSH2 0x5641 SWAP1 SWAP2 SWAP1 PUSH4 0xFFFFFFFF AND JUMP JUMPDEST SWAP3 POP JUMPDEST JUMPDEST JUMPDEST POP DUP1 DUP1 PUSH1 0x1 ADD SWAP2 POP POP PUSH2 0x1147 JUMP JUMPDEST POP PUSH1 0x0 DUP2 GT ISZERO PUSH2 0x1C59 JUMPI GAS PUSH2 0x1B2E PUSH2 0x5F84 JUMP JUMPDEST PUSH20 0xFFFFFFFFFFFFFFFFFFFFFFFFFFFFFFFFFFFFFFFF AND PUSH2 0x8FC PUSH2 0x1C1F PUSH2 0x1B52 PUSH2 0xF8C JUMP JUMPDEST PUSH20 0xFFFFFFFFFFFFFFFFFFFFFFFFFFFFFFFFFFFFFFFF AND PUSH4 0xAC82F608 PUSH32 0x4554480000000000000000000000000000000000000000000000000000000000 PUSH1 0x40 MLOAD DUP3 PUSH4 0xFFFFFFFF AND PUSH1 0xE0 SHL DUP2 MSTORE PUSH1 0x4 ADD DUP1 DUP3 DUP2 MSTORE PUSH1 0x20 ADD SWAP2 POP POP PUSH1 0x20 PUSH1 0x40 MLOAD DUP1 DUP4 SUB DUP2 DUP7 DUP1 PUSH2 0x1BBD PUSH2 0x5E6B JUMP JUMPDEST ISZERO DUP1 ISZERO PUSH2 0x1BC9 JUMPI PUSH1 0x0 DUP1 REVERT JUMPDEST POP GAS PUSH2 0x1BD3 PUSH2 0x5EA2 JUMP JUMPDEST POP POP POP POP POP ISZERO DUP1 ISZERO PUSH2 0x1BE9 JUMPI RETURNDATASIZE PUSH1 0x0 DUP1 RETURNDATACOPY RETURNDATASIZE PUSH1 0x0 REVERT JUMPDEST POP POP POP POP PUSH1 0x40 MLOAD RETURNDATASIZE PUSH1 0x20 DUP2 LT ISZERO PUSH2 0x1BFF JUMPI PUSH1 0x0 DUP1 REVERT JUMPDEST DUP2 ADD SWAP1 DUP1 DUP1 MLOAD SWAP1 PUSH1 0x20 ADD SWAP1 SWAP3 SWAP2 SWAP1 POP POP POP DUP5 PUSH2 0x56CA SWAP1 SWAP2 SWAP1 PUSH4 0xFFFFFFFF AND JUMP JUMPDEST SWAP1 DUP2 ISZERO MUL SWAP1 PUSH1 0x40 MLOAD PUSH1 0x0 PUSH1 0x40 MLOAD DUP1 DUP4 SUB DUP2 DUP6 DUP9 DUP9 PUSH2 0x1C3B PUSH2 0x5F2B JUMP JUMPDEST POP POP POP POP POP POP SWAP4 POP POP POP POP ISZERO DUP1 ISZERO PUSH2 0x1C57 JUMPI RETURNDATASIZE PUSH1 0x0 DUP1 RETURNDATACOPY RETURNDATASIZE PUSH1 0x0 REVERT JUMPDEST POP JUMPDEST PUSH1 0x0 PUSH2 0x1C6E DUP3 DUP5 PUSH2 0x5641 SWAP1 SWAP2 SWAP1 PUSH4 0xFFFFFFFF AND JUMP JUMPDEST SWAP1 POP PUSH1 0x0 DUP2 GT ISZERO PUSH2 0x1D2B JUMPI PUSH32 0xDB1741FFC6844B04A9284BB6337FB0CCFE543A493EF0AC8E725242201E93D4BD CALLVALUE DUP3 PUSH1 0x40 MLOAD DUP1 DUP1 PUSH1 0x20 ADD DUP5 DUP2 MSTORE PUSH1 0x20 ADD DUP1 PUSH1 0x20 ADD DUP5 DUP2 MSTORE PUSH1 0x20 ADD DUP4 DUP2 SUB DUP4 MSTORE PUSH1 0x3 DUP2 MSTORE PUSH1 0x20 ADD DUP1 PUSH32 0x4554480000000000000000000000000000000000000000000000000000000000 DUP2 MSTORE POP PUSH1 0x20 ADD DUP4 DUP2 SUB DUP3 MSTORE PUSH1 0x4 DUP2 MSTORE PUSH1 0x20 ADD DUP1 PUSH32 0x7355534400000000000000000000000000000000000000000000000000000000 DUP2 MSTORE POP PUSH1 0x20 ADD SWAP5 POP POP POP POP POP PUSH1 0x40 MLOAD DUP1 SWAP2 SUB SWAP1 LOG1 JUMPDEST DUP1 SWAP5 POP POP POP POP POP SWAP1 JUMP JUMPDEST PUSH1 0x0 PUSH32 0x534E580000000000000000000000000000000000000000000000000000000000 PUSH2 0x1D60 PUSH2 0xF8C JUMP JUMPDEST PUSH20 0xFFFFFFFFFFFFFFFFFFFFFFFFFFFFFFFFFFFFFFFF AND PUSH3 0x9919C0 DUP3 PUSH1 0x40 MLOAD DUP3 PUSH4 0xFFFFFFFF AND PUSH1 0xE0 SHL DUP2 MSTORE PUSH1 0x4 ADD DUP1 DUP3 DUP2 MSTORE PUSH1 0x20 ADD SWAP2 POP POP PUSH1 0x20 PUSH1 0x40 MLOAD DUP1 DUP4 SUB DUP2 DUP7 DUP1 PUSH2 0x1DAA PUSH2 0x5E6B JUMP JUMPDEST ISZERO DUP1 ISZERO PUSH2 0x1DB6 JUMPI PUSH1 0x0 DUP1 REVERT JUMPDEST POP GAS PUSH2 0x1DC0 PUSH2 0x5EA2 JUMP JUMPDEST POP POP POP POP POP ISZERO DUP1 ISZERO PUSH2 0x1DD6 JUMPI RETURNDATASIZE PUSH1 0x0 DUP1 RETURNDATACOPY RETURNDATASIZE PUSH1 0x0 REVERT JUMPDEST POP POP POP POP PUSH1 0x40 MLOAD RETURNDATASIZE PUSH1 0x20 DUP2 LT ISZERO PUSH2 0x1DEC JUMPI PUSH1 0x0 DUP1 REVERT JUMPDEST DUP2 ADD SWAP1 DUP1 DUP1 MLOAD SWAP1 PUSH1 0x20 ADD SWAP1 SWAP3 SWAP2 SWAP1 POP POP POP ISZERO PUSH2 0x1E70 JUMPI PUSH1 0x40 MLOAD PUSH32 0x8C379A000000000000000000000000000000000000000000000000000000000 DUP2 MSTORE PUSH1 0x4 ADD DUP1 DUP1 PUSH1 0x20 ADD DUP3 DUP2 SUB DUP3 MSTORE PUSH1 0x19 DUP2 MSTORE PUSH1 0x20 ADD DUP1 PUSH32 0x52617465207374616C65206F72206E6F7420612073796E746800000000000000 DUP2 MSTORE POP PUSH1 0x20 ADD SWAP2 POP POP PUSH1 0x40 MLOAD DUP1 SWAP2 SUB SWAP1 REVERT JUMPDEST PUSH32 0x4554480000000000000000000000000000000000000000000000000000000000 PUSH2 0x1E99 PUSH2 0xF8C JUMP JUMPDEST PUSH20 0xFFFFFFFFFFFFFFFFFFFFFFFFFFFFFFFFFFFFFFFF AND PUSH3 0x9919C0 DUP3 PUSH1 0x40 MLOAD DUP3 PUSH4 0xFFFFFFFF AND PUSH1 0xE0 SHL DUP2 MSTORE PUSH1 0x4 ADD DUP1 DUP3 DUP2 MSTORE PUSH1 0x20 ADD SWAP2 POP POP PUSH1 0x20 PUSH1 0x40 MLOAD DUP1 DUP4 SUB DUP2 DUP7 DUP1 PUSH2 0x1EE3 PUSH2 0x5E6B JUMP JUMPDEST ISZERO DUP1 ISZERO PUSH2 0x1EEF JUMPI PUSH1 0x0 DUP1 REVERT JUMPDEST POP GAS PUSH2 0x1EF9 PUSH2 0x5EA2 JUMP JUMPDEST POP POP POP POP POP ISZERO DUP1 ISZERO PUSH2 0x1F0F JUMPI RETURNDATASIZE PUSH1 0x0 DUP1 RETURNDATACOPY RETURNDATASIZE PUSH1 0x0 REVERT JUMPDEST POP POP POP POP PUSH1 0x40 MLOAD RETURNDATASIZE PUSH1 0x20 DUP2 LT ISZERO PUSH2 0x1F25 JUMPI PUSH1 0x0 DUP1 REVERT JUMPDEST DUP2 ADD SWAP1 DUP1 DUP1 MLOAD SWAP1 PUSH1 0x20 ADD SWAP1 SWAP3 SWAP2 SWAP1 POP POP POP ISZERO PUSH2 0x1FA9 JUMPI PUSH1 0x40 MLOAD PUSH32 0x8C379A000000000000000000000000000000000000000000000000000000000 DUP2 MSTORE PUSH1 0x4 ADD DUP1 DUP1 PUSH1 0x20 ADD DUP3 DUP2 SUB DUP3 MSTORE PUSH1 0x19 DUP2 MSTORE PUSH1 0x20 ADD DUP1 PUSH32 0x52617465207374616C65206F72206E6F7420612073796E746800000000000000 DUP2 MSTORE POP PUSH1 0x20 ADD SWAP2 POP POP PUSH1 0x40 MLOAD DUP1 SWAP2 SUB SWAP1 REVERT JUMPDEST PUSH1 0x5 PUSH1 0x0 SWAP1 PUSH2 0x1FB6 PUSH2 0x5DFB JUMP JUMPDEST SWAP1 PUSH2 0x100 EXP SWAP1 DIV PUSH1 0xFF AND ISZERO PUSH2 0x2016 JUMPI PUSH1 0x40 MLOAD PUSH32 0x8C379A000000000000000000000000000000000000000000000000000000000 DUP2 MSTORE PUSH1 0x4 ADD DUP1 DUP1 PUSH1 0x20 ADD DUP3 DUP2 SUB DUP3 MSTORE PUSH1 0x3C DUP2 MSTORE PUSH1 0x20 ADD DUP1 PUSH2 0x61B8 PUSH1 0x3C SWAP2 CODECOPY PUSH1 0x40 ADD SWAP2 POP POP PUSH1 0x40 MLOAD DUP1 SWAP2 SUB SWAP1 REVERT JUMPDEST PUSH2 0x201E PUSH2 0x5766 JUMP JUMPDEST SWAP3 POP POP POP SWAP1 JUMP JUMPDEST PUSH1 0x7 PUSH1 0x0 SWAP1 PUSH2 0x2032 PUSH2 0x5DFB JUMP JUMPDEST SWAP1 PUSH2 0x100 EXP SWAP1 DIV PUSH20 0xFFFFFFFFFFFFFFFFFFFFFFFFFFFFFFFFFFFFFFFF AND DUP2 JUMP JUMPDEST PUSH1 0xF PUSH2 0x205C PUSH2 0x5DFB JUMP JUMPDEST DUP2 JUMP JUMPDEST PUSH1 0x0 PUSH32 0x4554480000000000000000000000000000000000000000000000000000000000 PUSH2 0x208A PUSH2 0xF8C JUMP JUMPDEST PUSH20 0xFFFFFFFFFFFFFFFFFFFFFFFFFFFFFFFFFFFFFFFF AND PUSH3 0x9919C0 DUP3 PUSH1 0x40 MLOAD DUP3 PUSH4 0xFFFFFFFF AND PUSH1 0xE0 SHL DUP2 MSTORE PUSH1 0x4 ADD DUP1 DUP3 DUP2 MSTORE PUSH1 0x20 ADD SWAP2 POP POP PUSH1 0x20 PUSH1 0x40 MLOAD DUP1 DUP4 SUB DUP2 DUP7 DUP1 PUSH2 0x20D4 PUSH2 0x5E6B JUMP JUMPDEST ISZERO DUP1 ISZERO PUSH2 0x20E0 JUMPI PUSH1 0x0 DUP1 REVERT JUMPDEST POP GAS PUSH2 0x20EA PUSH2 0x5EA2 JUMP JUMPDEST POP POP POP POP POP ISZERO DUP1 ISZERO PUSH2 0x2100 JUMPI RETURNDATASIZE PUSH1 0x0 DUP1 RETURNDATACOPY RETURNDATASIZE PUSH1 0x0 REVERT JUMPDEST POP POP POP POP PUSH1 0x40 MLOAD RETURNDATASIZE PUSH1 0x20 DUP2 LT ISZERO PUSH2 0x2116 JUMPI PUSH1 0x0 DUP1 REVERT JUMPDEST DUP2 ADD SWAP1 DUP1 DUP1 MLOAD SWAP1 PUSH1 0x20 ADD SWAP1 SWAP3 SWAP2 SWAP1 POP POP POP ISZERO PUSH2 0x219A JUMPI PUSH1 0x40 MLOAD PUSH32 0x8C379A000000000000000000000000000000000000000000000000000000000 DUP2 MSTORE PUSH1 0x4 ADD DUP1 DUP1 PUSH1 0x20 ADD DUP3 DUP2 SUB DUP3 MSTORE PUSH1 0x19 DUP2 MSTORE PUSH1 0x20 ADD DUP1 PUSH32 0x52617465207374616C65206F72206E6F7420612073796E746800000000000000 DUP2 MSTORE POP PUSH1 0x20 ADD SWAP2 POP POP PUSH1 0x40 MLOAD DUP1 SWAP2 SUB SWAP1 REVERT JUMPDEST PUSH1 0x5 PUSH1 0x0 SWAP1 PUSH2 0x21A7 PUSH2 0x5DFB JUMP JUMPDEST SWAP1 PUSH2 0x100 EXP SWAP1 DIV PUSH1 0xFF AND ISZERO PUSH2 0x2207 JUMPI PUSH1 0x40 MLOAD PUSH32 0x8C379A000000000000000000000000000000000000000000000000000000000 DUP2 MSTORE PUSH1 0x4 ADD DUP1 DUP1 PUSH1 0x20 ADD DUP3 DUP2 SUB DUP3 MSTORE PUSH1 0x3C DUP2 MSTORE PUSH1 0x20 ADD DUP1 PUSH2 0x61B8 PUSH1 0x3C SWAP2 CODECOPY PUSH1 0x40 ADD SWAP2 POP POP PUSH1 0x40 MLOAD DUP1 SWAP2 SUB SWAP1 REVERT JUMPDEST PUSH2 0x220F PUSH2 0xF8C JUMP JUMPDEST PUSH20 0xFFFFFFFFFFFFFFFFFFFFFFFFFFFFFFFFFFFFFFFF AND PUSH4 0xAC82F608 PUSH32 0x4554480000000000000000000000000000000000000000000000000000000000 PUSH1 0x40 MLOAD DUP3 PUSH4 0xFFFFFFFF AND PUSH1 0xE0 SHL DUP2 MSTORE PUSH1 0x4 ADD DUP1 DUP3 DUP2 MSTORE PUSH1 0x20 ADD SWAP2 POP POP PUSH1 0x20 PUSH1 0x40 MLOAD DUP1 DUP4 SUB DUP2 DUP7 DUP1 PUSH2 0x227A PUSH2 0x5E6B JUMP JUMPDEST ISZERO DUP1 ISZERO PUSH2 0x2286 JUMPI PUSH1 0x0 DUP1 REVERT JUMPDEST POP GAS PUSH2 0x2290 PUSH2 0x5EA2 JUMP JUMPDEST POP POP POP POP POP ISZERO DUP1 ISZERO PUSH2 0x22A6 JUMPI RETURNDATASIZE PUSH1 0x0 DUP1 RETURNDATACOPY RETURNDATASIZE PUSH1 0x0 REVERT JUMPDEST POP POP POP POP PUSH1 0x40 MLOAD RETURNDATASIZE PUSH1 0x20 DUP2 LT ISZERO PUSH2 0x22BC JUMPI PUSH1 0x0 DUP1 REVERT JUMPDEST DUP2 ADD SWAP1 DUP1 DUP1 MLOAD SWAP1 PUSH1 0x20 ADD SWAP1 SWAP3 SWAP2 SWAP1 POP POP POP DUP4 EQ PUSH2 0x2324 JUMPI PUSH1 0x40 MLOAD PUSH32 0x8C379A000000000000000000000000000000000000000000000000000000000 DUP2 MSTORE PUSH1 0x4 ADD DUP1 DUP1 PUSH1 0x20 ADD DUP3 DUP2 SUB DUP3 MSTORE PUSH1 0x25 DUP2 MSTORE PUSH1 0x20 ADD DUP1 PUSH2 0x61F4 PUSH1 0x25 SWAP2 CODECOPY PUSH1 0x40 ADD SWAP2 POP POP PUSH1 0x40 MLOAD DUP1 SWAP2 SUB SWAP1 REVERT JUMPDEST PUSH2 0x232C PUSH2 0xFF2 JUMP JUMPDEST SWAP2 POP POP SWAP2 SWAP1 POP JUMP JUMPDEST PUSH1 0x0 PUSH2 0x240E PUSH2 0x2341 PUSH2 0xF8C JUMP JUMPDEST PUSH20 0xFFFFFFFFFFFFFFFFFFFFFFFFFFFFFFFFFFFFFFFF AND PUSH4 0xAC82F608 PUSH32 0x4554480000000000000000000000000000000000000000000000000000000000 PUSH1 0x40 MLOAD DUP3 PUSH4 0xFFFFFFFF AND PUSH1 0xE0 SHL DUP2 MSTORE PUSH1 0x4 ADD DUP1 DUP3 DUP2 MSTORE PUSH1 0x20 ADD SWAP2 POP POP PUSH1 0x20 PUSH1 0x40 MLOAD DUP1 DUP4 SUB DUP2 DUP7 DUP1 PUSH2 0x23AC PUSH2 0x5E6B JUMP JUMPDEST ISZERO DUP1 ISZERO PUSH2 0x23B8 JUMPI PUSH1 0x0 DUP1 REVERT JUMPDEST POP GAS PUSH2 0x23C2 PUSH2 0x5EA2 JUMP JUMPDEST POP POP POP POP POP ISZERO DUP1 ISZERO PUSH2 0x23D8 JUMPI RETURNDATASIZE PUSH1 0x0 DUP1 RETURNDATACOPY RETURNDATASIZE PUSH1 0x0 REVERT JUMPDEST POP POP POP POP PUSH1 0x40 MLOAD RETURNDATASIZE PUSH1 0x20 DUP2 LT ISZERO PUSH2 0x23EE JUMPI PUSH1 0x0 DUP1 REVERT JUMPDEST DUP2 ADD SWAP1 DUP1 DUP1 MLOAD SWAP1 PUSH1 0x20 ADD SWAP1 SWAP3 SWAP2 SWAP1 POP POP POP DUP4 PUSH2 0x558C SWAP1 SWAP2 SWAP1 PUSH4 0xFFFFFFFF AND JUMP JUMPDEST SWAP1 POP SWAP2 SWAP1 POP JUMP JUMPDEST PUSH1 0x0 DUP1 SWAP1 PUSH2 0x2421 PUSH2 0x5DFB JUMP JUMPDEST SWAP1 PUSH2 0x100 EXP SWAP1 DIV PUSH20 0xFFFFFFFFFFFFFFFFFFFFFFFFFFFFFFFFFFFFFFFF AND PUSH20 0xFFFFFFFFFFFFFFFFFFFFFFFFFFFFFFFFFFFFFFFF AND GAS PUSH2 0x245D PUSH2 0x5F84 JUMP JUMPDEST PUSH20 0xFFFFFFFFFFFFFFFFFFFFFFFFFFFFFFFFFFFFFFFF AND EQ PUSH2 0x24C9 JUMPI PUSH1 0x40 MLOAD PUSH32 0x8C379A000000000000000000000000000000000000000000000000000000000 DUP2 MSTORE PUSH1 0x4 ADD DUP1 DUP1 PUSH1 0x20 ADD DUP3 DUP2 SUB DUP3 MSTORE PUSH1 0x2F DUP2 MSTORE PUSH1 0x20 ADD DUP1 PUSH2 0x6113 PUSH1 0x2F SWAP2 CODECOPY PUSH1 0x40 ADD SWAP2 POP POP PUSH1 0x40 MLOAD DUP1 SWAP2 SUB SWAP1 REVERT JUMPDEST DUP1 PUSH1 0x1 PUSH1 0x0 PUSH2 0x100 EXP DUP2 PUSH2 0x24DB PUSH2 0x5DFB JUMP JUMPDEST DUP2 PUSH20 0xFFFFFFFFFFFFFFFFFFFFFFFFFFFFFFFFFFFFFFFF MUL NOT AND SWAP1 DUP4 PUSH20 0xFFFFFFFFFFFFFFFFFFFFFFFFFFFFFFFFFFFFFFFF AND MUL OR SWAP1 PUSH2 0x2517 PUSH2 0x5E32 JUMP JUMPDEST POP POP POP PUSH32 0x906A1C6BD7E3091EA86693DD029A831C19049CE77F1DCE2CE0BAB1CACBABCE22 DUP2 PUSH1 0x40 MLOAD DUP1 DUP3 PUSH20 0xFFFFFFFFFFFFFFFFFFFFFFFFFFFFFFFFFFFFFFFF AND PUSH20 0xFFFFFFFFFFFFFFFFFFFFFFFFFFFFFFFFFFFFFFFF AND DUP2 MSTORE PUSH1 0x20 ADD SWAP2 POP POP PUSH1 0x40 MLOAD DUP1 SWAP2 SUB SWAP1 LOG1 POP JUMP JUMPDEST PUSH1 0x0 DUP1 SWAP1 PUSH2 0x258C PUSH2 0x5DFB JUMP JUMPDEST SWAP1 PUSH2 0x100 EXP SWAP1 DIV PUSH20 0xFFFFFFFFFFFFFFFFFFFFFFFFFFFFFFFFFFFFFFFF AND PUSH20 0xFFFFFFFFFFFFFFFFFFFFFFFFFFFFFFFFFFFFFFFF AND GAS PUSH2 0x25C8 PUSH2 0x5F84 JUMP JUMPDEST PUSH20 0xFFFFFFFFFFFFFFFFFFFFFFFFFFFFFFFFFFFFFFFF AND EQ PUSH2 0x2634 JUMPI PUSH1 0x40 MLOAD PUSH32 0x8C379A000000000000000000000000000000000000000000000000000000000 DUP2 MSTORE PUSH1 0x4 ADD DUP1 DUP1 PUSH1 0x20 ADD DUP3 DUP2 SUB DUP3 MSTORE PUSH1 0x2F DUP2 MSTORE PUSH1 0x20 ADD DUP1 PUSH2 0x6113 PUSH1 0x2F SWAP2 CODECOPY PUSH1 0x40 ADD SWAP2 POP POP PUSH1 0x40 MLOAD DUP1 SWAP2 SUB SWAP1 REVERT JUMPDEST PUSH1 0x5 PUSH1 0x0 SWAP1 PUSH2 0x2641 PUSH2 0x5DFB JUMP JUMPDEST SWAP1 PUSH2 0x100 EXP SWAP1 DIV PUSH1 0xFF AND ISZERO ISZERO DUP2 ISZERO ISZERO EQ ISZERO PUSH2 0x265B JUMPI PUSH2 0x270C JUMP JUMPDEST DUP1 PUSH1 0x5 PUSH1 0x0 PUSH2 0x100 EXP DUP2 PUSH2 0x266D PUSH2 0x5DFB JUMP JUMPDEST DUP2 PUSH1 0xFF MUL NOT AND SWAP1 DUP4 ISZERO ISZERO MUL OR SWAP1 PUSH2 0x2682 PUSH2 0x5E32 JUMP JUMPDEST POP POP POP PUSH1 0x5 PUSH1 0x0 SWAP1 PUSH2 0x2692 PUSH2 0x5DFB JUMP JUMPDEST SWAP1 PUSH2 0x100 EXP SWAP1 DIV PUSH1 0xFF AND ISZERO PUSH2 0x26BA JUMPI GAS PUSH2 0x26AA PUSH2 0x5FB5 JUMP JUMPDEST PUSH1 0x4 DUP2 SWAP1 PUSH2 0x26B6 PUSH2 0x5E32 JUMP JUMPDEST POP POP POP JUMPDEST PUSH32 0x8FB6C181EE25A520CF3DD6565006EF91229FCFE5A989566C2A3B8C115570CEC5 PUSH1 0x5 PUSH1 0x0 SWAP1 PUSH2 0x26E8 PUSH2 0x5DFB JUMP JUMPDEST SWAP1 PUSH2 0x100 EXP SWAP1 DIV PUSH1 0xFF AND PUSH1 0x40 MLOAD DUP1 DUP3 ISZERO ISZERO ISZERO ISZERO DUP2 MSTORE PUSH1 0x20 ADD SWAP2 POP POP PUSH1 0x40 MLOAD DUP1 SWAP2 SUB SWAP1 LOG1 JUMPDEST POP JUMP JUMPDEST PUSH1 0x2 PUSH2 0x2719 PUSH2 0x5DFB JUMP JUMPDEST DUP2 JUMP JUMPDEST PUSH1 0x0 PUSH1 0x1 PUSH1 0x6 PUSH1 0x0 DUP3 DUP3 PUSH2 0x272E PUSH2 0x5DFB JUMP JUMPDEST ADD SWAP3 POP POP DUP2 SWAP1 PUSH2 0x273C PUSH2 0x5E32 JUMP JUMPDEST POP POP POP PUSH1 0x0 PUSH1 0x6 PUSH2 0x274B PUSH2 0x5DFB JUMP JUMPDEST SWAP1 POP PUSH32 0x4554480000000000000000000000000000000000000000000000000000000000 PUSH2 0x2776 PUSH2 0xF8C JUMP JUMPDEST PUSH20 0xFFFFFFFFFFFFFFFFFFFFFFFFFFFFFFFFFFFFFFFF AND PUSH3 0x9919C0 DUP3 PUSH1 0x40 MLOAD DUP3 PUSH4 0xFFFFFFFF AND PUSH1 0xE0 SHL DUP2 MSTORE PUSH1 0x4 ADD DUP1 DUP3 DUP2 MSTORE PUSH1 0x20 ADD SWAP2 POP POP PUSH1 0x20 PUSH1 0x40 MLOAD DUP1 DUP4 SUB DUP2 DUP7 DUP1 PUSH2 0x27C0 PUSH2 0x5E6B JUMP JUMPDEST ISZERO DUP1 ISZERO PUSH2 0x27CC JUMPI PUSH1 0x0 DUP1 REVERT JUMPDEST POP GAS PUSH2 0x27D6 PUSH2 0x5EA2 JUMP JUMPDEST POP POP POP POP POP ISZERO DUP1 ISZERO PUSH2 0x27EC JUMPI RETURNDATASIZE PUSH1 0x0 DUP1 RETURNDATACOPY RETURNDATASIZE PUSH1 0x0 REVERT JUMPDEST POP POP POP POP PUSH1 0x40 MLOAD RETURNDATASIZE PUSH1 0x20 DUP2 LT ISZERO PUSH2 0x2802 JUMPI PUSH1 0x0 DUP1 REVERT JUMPDEST DUP2 ADD SWAP1 DUP1 DUP1 MLOAD SWAP1 PUSH1 0x20 ADD SWAP1 SWAP3 SWAP2 SWAP1 POP POP POP ISZERO PUSH2 0x2886 JUMPI PUSH1 0x40 MLOAD PUSH32 0x8C379A000000000000000000000000000000000000000000000000000000000 DUP2 MSTORE PUSH1 0x4 ADD DUP1 DUP1 PUSH1 0x20 ADD DUP3 DUP2 SUB DUP3 MSTORE PUSH1 0x19 DUP2 MSTORE PUSH1 0x20 ADD DUP1 PUSH32 0x52617465207374616C65206F72206E6F7420612073796E746800000000000000 DUP2 MSTORE POP PUSH1 0x20 ADD SWAP2 POP POP PUSH1 0x40 MLOAD DUP1 SWAP2 SUB SWAP1 REVERT JUMPDEST PUSH1 0x5 PUSH1 0x0 SWAP1 PUSH2 0x2893 PUSH2 0x5DFB JUMP JUMPDEST SWAP1 PUSH2 0x100 EXP SWAP1 DIV PUSH1 0xFF AND ISZERO PUSH2 0x28F3 JUMPI PUSH1 0x40 MLOAD PUSH32 0x8C379A000000000000000000000000000000000000000000000000000000000 DUP2 MSTORE PUSH1 0x4 ADD DUP1 DUP1 PUSH1 0x20 ADD DUP3 DUP2 SUB DUP3 MSTORE PUSH1 0x3C DUP2 MSTORE PUSH1 0x20 ADD DUP1 PUSH2 0x61B8 PUSH1 0x3C SWAP2 CODECOPY PUSH1 0x40 ADD SWAP2 POP POP PUSH1 0x40 MLOAD DUP1 SWAP2 SUB SWAP1 REVERT JUMPDEST PUSH2 0x28FB PUSH2 0xFF2 JUMP JUMPDEST SWAP3 POP POP PUSH1 0x6 PUSH2 0x2908 PUSH2 0x5DFB JUMP JUMPDEST DUP2 EQ PUSH2 0x297C JUMPI PUSH1 0x40 MLOAD PUSH32 0x8C379A000000000000000000000000000000000000000000000000000000000 DUP2 MSTORE PUSH1 0x4 ADD DUP1 DUP1 PUSH1 0x20 ADD DUP3 DUP2 SUB DUP3 MSTORE PUSH1 0x1F DUP2 MSTORE PUSH1 0x20 ADD DUP1 PUSH32 0x5265656E7472616E637947756172643A207265656E7472616E742063616C6C00 DUP2 MSTORE POP PUSH1 0x20 ADD SWAP2 POP POP PUSH1 0x40 MLOAD DUP1 SWAP2 SUB SWAP1 REVERT JUMPDEST POP SWAP1 JUMP JUMPDEST PUSH1 0x0 DUP1 SWAP1 PUSH2 0x298C PUSH2 0x5DFB JUMP JUMPDEST SWAP1 PUSH2 0x100 EXP SWAP1 DIV PUSH20 0xFFFFFFFFFFFFFFFFFFFFFFFFFFFFFFFFFFFFFFFF AND PUSH20 0xFFFFFFFFFFFFFFFFFFFFFFFFFFFFFFFFFFFFFFFF AND GAS PUSH2 0x29C8 PUSH2 0x5F84 JUMP JUMPDEST PUSH20 0xFFFFFFFFFFFFFFFFFFFFFFFFFFFFFFFFFFFFFFFF AND EQ PUSH2 0x2A34 JUMPI PUSH1 0x40 MLOAD PUSH32 0x8C379A000000000000000000000000000000000000000000000000000000000 DUP2 MSTORE PUSH1 0x4 ADD DUP1 DUP1 PUSH1 0x20 ADD DUP3 DUP2 SUB DUP3 MSTORE PUSH1 0x2F DUP2 MSTORE PUSH1 0x20 ADD DUP1 PUSH2 0x6113 PUSH1 0x2F SWAP2 CODECOPY PUSH1 0x40 ADD SWAP2 POP POP PUSH1 0x40 MLOAD DUP1 SWAP2 SUB SWAP1 REVERT JUMPDEST PUSH1 0x0 PUSH20 0xFFFFFFFFFFFFFFFFFFFFFFFFFFFFFFFFFFFFFFFF AND DUP2 PUSH20 0xFFFFFFFFFFFFFFFFFFFFFFFFFFFFFFFFFFFFFFFF AND EQ ISZERO PUSH2 0x2AD7 JUMPI PUSH1 0x40 MLOAD PUSH32 0x8C379A000000000000000000000000000000000000000000000000000000000 DUP2 MSTORE PUSH1 0x4 ADD DUP1 DUP1 PUSH1 0x20 ADD DUP3 DUP2 SUB DUP3 MSTORE PUSH1 0x1C DUP2 MSTORE PUSH1 0x20 ADD DUP1 PUSH32 0x42656E6566696369617279206D757374206E6F74206265207A65726F00000000 DUP2 MSTORE POP PUSH1 0x20 ADD SWAP2 POP POP PUSH1 0x40 MLOAD DUP1 SWAP2 SUB SWAP1 REVERT JUMPDEST DUP1 PUSH1 0x3 PUSH1 0x1 PUSH2 0x100 EXP DUP2 PUSH2 0x2AE9 PUSH2 0x5DFB JUMP JUMPDEST DUP2 PUSH20 0xFFFFFFFFFFFFFFFFFFFFFFFFFFFFFFFFFFFFFFFF MUL NOT AND SWAP1 DUP4 PUSH20 0xFFFFFFFFFFFFFFFFFFFFFFFFFFFFFFFFFFFFFFFF AND MUL OR SWAP1 PUSH2 0x2B25 PUSH2 0x5E32 JUMP JUMPDEST POP POP POP PUSH32 0xD5DA63A0B864B315BC04128DEDBC93888C8529EE6CF47CE664DC204339228C53 DUP2 PUSH1 0x40 MLOAD DUP1 DUP3 PUSH20 0xFFFFFFFFFFFFFFFFFFFFFFFFFFFFFFFFFFFFFFFF AND PUSH20 0xFFFFFFFFFFFFFFFFFFFFFFFFFFFFFFFFFFFFFFFF AND DUP2 MSTORE PUSH1 0x20 ADD SWAP2 POP POP PUSH1 0x40 MLOAD DUP1 SWAP2 SUB SWAP1 LOG1 POP JUMP JUMPDEST PUSH1 0xA PUSH1 0x0 SWAP1 PUSH2 0x2B9B PUSH2 0x5DFB JUMP JUMPDEST SWAP1 PUSH2 0x100 EXP SWAP1 DIV PUSH20 0xFFFFFFFFFFFFFFFFFFFFFFFFFFFFFFFFFFFFFFFF AND DUP2 JUMP JUMPDEST PUSH1 0x0 DUP1 SWAP1 PUSH2 0x2BC7 PUSH2 0x5DFB JUMP JUMPDEST SWAP1 PUSH2 0x100 EXP SWAP1 DIV PUSH20 0xFFFFFFFFFFFFFFFFFFFFFFFFFFFFFFFFFFFFFFFF AND PUSH20 0xFFFFFFFFFFFFFFFFFFFFFFFFFFFFFFFFFFFFFFFF AND GAS PUSH2 0x2C03 PUSH2 0x5F84 JUMP JUMPDEST PUSH20 0xFFFFFFFFFFFFFFFFFFFFFFFFFFFFFFFFFFFFFFFF AND EQ PUSH2 0x2C6F JUMPI PUSH1 0x40 MLOAD PUSH32 0x8C379A000000000000000000000000000000000000000000000000000000000 DUP2 MSTORE PUSH1 0x4 ADD DUP1 DUP1 PUSH1 0x20 ADD DUP3 DUP2 SUB DUP3 MSTORE PUSH1 0x2F DUP2 MSTORE PUSH1 0x20 ADD DUP1 PUSH2 0x6113 PUSH1 0x2F SWAP2 CODECOPY PUSH1 0x40 ADD SWAP2 POP POP PUSH1 0x40 MLOAD DUP1 SWAP2 SUB SWAP1 REVERT JUMPDEST PUSH1 0x0 PUSH1 0x2 DUP2 SWAP1 PUSH2 0x2C7D PUSH2 0x5E32 JUMP JUMPDEST POP POP POP PUSH1 0x0 PUSH1 0x3 PUSH1 0x0 PUSH2 0x100 EXP DUP2 PUSH2 0x2C93 PUSH2 0x5DFB JUMP JUMPDEST DUP2 PUSH1 0xFF MUL NOT AND SWAP1 DUP4 ISZERO ISZERO MUL OR SWAP1 PUSH2 0x2CA8 PUSH2 0x5E32 JUMP JUMPDEST POP POP POP PUSH32 0x6ADCC7125002935E0AA31697538EBBD65CFDDF20431EB6ECDCFC3E238BFD082C PUSH1 0x40 MLOAD PUSH1 0x40 MLOAD DUP1 SWAP2 SUB SWAP1 LOG1 JUMP JUMPDEST PUSH1 0x0 DUP1 SWAP1 PUSH2 0x2CE5 PUSH2 0x5DFB JUMP JUMPDEST SWAP1 PUSH2 0x100 EXP SWAP1 DIV PUSH20 0xFFFFFFFFFFFFFFFFFFFFFFFFFFFFFFFFFFFFFFFF AND PUSH20 0xFFFFFFFFFFFFFFFFFFFFFFFFFFFFFFFFFFFFFFFF AND GAS PUSH2 0x2D21 PUSH2 0x5F84 JUMP JUMPDEST PUSH20 0xFFFFFFFFFFFFFFFFFFFFFFFFFFFFFFFFFFFFFFFF AND EQ PUSH2 0x2D8D JUMPI PUSH1 0x40 MLOAD PUSH32 0x8C379A000000000000000000000000000000000000000000000000000000000 DUP2 MSTORE PUSH1 0x4 ADD DUP1 DUP1 PUSH1 0x20 ADD DUP3 DUP2 SUB DUP3 MSTORE PUSH1 0x2F DUP2 MSTORE PUSH1 0x20 ADD DUP1 PUSH2 0x6113 PUSH1 0x2F SWAP2 CODECOPY PUSH1 0x40 ADD SWAP2 POP POP PUSH1 0x40 MLOAD DUP1 SWAP2 SUB SWAP1 REVERT JUMPDEST DUP1 PUSH1 0x7 PUSH1 0x0 PUSH2 0x100 EXP DUP2 PUSH2 0x2D9F PUSH2 0x5DFB JUMP JUMPDEST DUP2 PUSH20 0xFFFFFFFFFFFFFFFFFFFFFFFFFFFFFFFFFFFFFFFF MUL NOT AND SWAP1 DUP4 PUSH20 0xFFFFFFFFFFFFFFFFFFFFFFFFFFFFFFFFFFFFFFFF AND MUL OR SWAP1 PUSH2 0x2DDB PUSH2 0x5E32 JUMP JUMPDEST POP POP POP PUSH1 0x0 DUP1 SWAP1 POP JUMPDEST PUSH1 0x9 DUP1 PUSH2 0x2DEF PUSH2 0x5DFB JUMP JUMPDEST SWAP1 POP DUP2 LT ISZERO PUSH2 0x2F92 JUMPI PUSH1 0x0 PUSH1 0x9 DUP3 DUP2 PUSH2 0x2E06 PUSH2 0x5DFB JUMP JUMPDEST DUP2 LT PUSH2 0x2E0E JUMPI INVALID JUMPDEST SWAP1 PUSH1 0x0 MSTORE PUSH1 0x20 PUSH1 0x0 KECCAK256 ADD PUSH2 0x2E20 PUSH2 0x5DFB JUMP JUMPDEST SWAP1 POP PUSH1 0x7 PUSH1 0x0 SWAP1 PUSH2 0x2E2F PUSH2 0x5DFB JUMP JUMPDEST SWAP1 PUSH2 0x100 EXP SWAP1 DIV PUSH20 0xFFFFFFFFFFFFFFFFFFFFFFFFFFFFFFFFFFFFFFFF AND PUSH20 0xFFFFFFFFFFFFFFFFFFFFFFFFFFFFFFFFFFFFFFFF AND PUSH4 0xDACB2D01 DUP3 PUSH1 0x40 MLOAD DUP3 PUSH4 0xFFFFFFFF AND PUSH1 0xE0 SHL DUP2 MSTORE PUSH1 0x4 ADD DUP1 DUP3 DUP2 MSTORE PUSH1 0x20 ADD DUP1 PUSH1 0x20 ADD DUP3 DUP2 SUB DUP3 MSTORE PUSH1 0x17 DUP2 MSTORE PUSH1 0x20 ADD DUP1 PUSH32 0x5265736F6C766572206D697373696E6720746172676574000000000000000000 DUP2 MSTORE POP PUSH1 0x20 ADD SWAP3 POP POP POP PUSH1 0x20 PUSH1 0x40 MLOAD DUP1 DUP4 SUB DUP2 DUP7 DUP1 PUSH2 0x2ED0 PUSH2 0x5E6B JUMP JUMPDEST ISZERO DUP1 ISZERO PUSH2 0x2EDC JUMPI PUSH1 0x0 DUP1 REVERT JUMPDEST POP GAS PUSH2 0x2EE6 PUSH2 0x5EA2 JUMP JUMPDEST POP POP POP POP POP ISZERO DUP1 ISZERO PUSH2 0x2EFC JUMPI RETURNDATASIZE PUSH1 0x0 DUP1 RETURNDATACOPY RETURNDATASIZE PUSH1 0x0 REVERT JUMPDEST POP POP POP POP PUSH1 0x40 MLOAD RETURNDATASIZE PUSH1 0x20 DUP2 LT ISZERO PUSH2 0x2F12 JUMPI PUSH1 0x0 DUP1 REVERT JUMPDEST DUP2 ADD SWAP1 DUP1 DUP1 MLOAD SWAP1 PUSH1 0x20 ADD SWAP1 SWAP3 SWAP2 SWAP1 POP POP POP PUSH1 0x8 PUSH1 0x0 DUP4 DUP2 MSTORE PUSH1 0x20 ADD SWAP1 DUP2 MSTORE PUSH1 0x20 ADD PUSH1 0x0 KECCAK256 PUSH1 0x0 PUSH2 0x100 EXP DUP2 PUSH2 0x2F45 PUSH2 0x5DFB JUMP JUMPDEST DUP2 PUSH20 0xFFFFFFFFFFFFFFFFFFFFFFFFFFFFFFFFFFFFFFFF MUL NOT AND SWAP1 DUP4 PUSH20 0xFFFFFFFFFFFFFFFFFFFFFFFFFFFFFFFFFFFFFFFF AND MUL OR SWAP1 PUSH2 0x2F81 PUSH2 0x5E32 JUMP JUMPDEST POP POP POP POP DUP1 DUP1 PUSH1 0x1 ADD SWAP2 POP POP PUSH2 0x2DE4 JUMP JUMPDEST POP POP JUMP JUMPDEST PUSH1 0xE PUSH2 0x2FA0 PUSH2 0x5DFB JUMP JUMPDEST DUP2 JUMP JUMPDEST PUSH1 0x1 PUSH1 0x0 SWAP1 PUSH2 0x2FB0 PUSH2 0x5DFB JUMP JUMPDEST SWAP1 PUSH2 0x100 EXP SWAP1 DIV PUSH20 0xFFFFFFFFFFFFFFFFFFFFFFFFFFFFFFFFFFFFFFFF AND DUP2 JUMP JUMPDEST PUSH1 0x5 PUSH1 0x0 SWAP1 PUSH2 0x2FDD PUSH2 0x5DFB JUMP JUMPDEST SWAP1 PUSH2 0x100 EXP SWAP1 DIV PUSH1 0xFF AND DUP2 JUMP JUMPDEST PUSH1 0x0 DUP2 PUSH20 0xFFFFFFFFFFFFFFFFFFFFFFFFFFFFFFFFFFFFFFFF AND PUSH1 0x7 PUSH1 0x0 SWAP1 PUSH2 0x3010 PUSH2 0x5DFB JUMP JUMPDEST SWAP1 PUSH2 0x100 EXP SWAP1 DIV PUSH20 0xFFFFFFFFFFFFFFFFFFFFFFFFFFFFFFFFFFFFFFFF AND PUSH20 0xFFFFFFFFFFFFFFFFFFFFFFFFFFFFFFFFFFFFFFFF AND EQ PUSH2 0x3051 JUMPI PUSH1 0x0 SWAP1 POP PUSH2 0x325B JUMP JUMPDEST PUSH1 0x0 DUP1 SWAP1 POP JUMPDEST PUSH1 0x9 DUP1 PUSH2 0x3062 PUSH2 0x5DFB JUMP JUMPDEST SWAP1 POP DUP2 LT ISZERO PUSH2 0x3255 JUMPI PUSH1 0x0 PUSH1 0x9 DUP3 DUP2 PUSH2 0x3079 PUSH2 0x5DFB JUMP JUMPDEST DUP2 LT PUSH2 0x3081 JUMPI INVALID JUMPDEST SWAP1 PUSH1 0x0 MSTORE PUSH1 0x20 PUSH1 0x0 KECCAK256 ADD PUSH2 0x3093 PUSH2 0x5DFB JUMP JUMPDEST SWAP1 POP PUSH1 0x8 PUSH1 0x0 DUP3 DUP2 MSTORE PUSH1 0x20 ADD SWAP1 DUP2 MSTORE PUSH1 0x20 ADD PUSH1 0x0 KECCAK256 PUSH1 0x0 SWAP1 PUSH2 0x30B3 PUSH2 0x5DFB JUMP JUMPDEST SWAP1 PUSH2 0x100 EXP SWAP1 DIV PUSH20 0xFFFFFFFFFFFFFFFFFFFFFFFFFFFFFFFFFFFFFFFF AND PUSH20 0xFFFFFFFFFFFFFFFFFFFFFFFFFFFFFFFFFFFFFFFF AND PUSH1 0x7 PUSH1 0x0 SWAP1 PUSH2 0x30F3 PUSH2 0x5DFB JUMP JUMPDEST SWAP1 PUSH2 0x100 EXP SWAP1 DIV PUSH20 0xFFFFFFFFFFFFFFFFFFFFFFFFFFFFFFFFFFFFFFFF AND PUSH20 0xFFFFFFFFFFFFFFFFFFFFFFFFFFFFFFFFFFFFFFFF AND PUSH4 0x21F8A721 DUP4 PUSH1 0x40 MLOAD DUP3 PUSH4 0xFFFFFFFF AND PUSH1 0xE0 SHL DUP2 MSTORE PUSH1 0x4 ADD DUP1 DUP3 DUP2 MSTORE PUSH1 0x20 ADD SWAP2 POP POP PUSH1 0x20 PUSH1 0x40 MLOAD DUP1 DUP4 SUB DUP2 DUP7 DUP1 PUSH2 0x315B PUSH2 0x5E6B JUMP JUMPDEST ISZERO DUP1 ISZERO PUSH2 0x3167 JUMPI PUSH1 0x0 DUP1 REVERT JUMPDEST POP GAS PUSH2 0x3171 PUSH2 0x5EA2 JUMP JUMPDEST POP POP POP POP POP ISZERO DUP1 ISZERO PUSH2 0x3187 JUMPI RETURNDATASIZE PUSH1 0x0 DUP1 RETURNDATACOPY RETURNDATASIZE PUSH1 0x0 REVERT JUMPDEST POP POP POP POP PUSH1 0x40 MLOAD RETURNDATASIZE PUSH1 0x20 DUP2 LT ISZERO PUSH2 0x319D JUMPI PUSH1 0x0 DUP1 REVERT JUMPDEST DUP2 ADD SWAP1 DUP1 DUP1 MLOAD SWAP1 PUSH1 0x20 ADD SWAP1 SWAP3 SWAP2 SWAP1 POP POP POP PUSH20 0xFFFFFFFFFFFFFFFFFFFFFFFFFFFFFFFFFFFFFFFF AND EQ ISZERO DUP1 PUSH2 0x3237 JUMPI POP PUSH1 0x0 PUSH20 0xFFFFFFFFFFFFFFFFFFFFFFFFFFFFFFFFFFFFFFFF AND PUSH1 0x8 PUSH1 0x0 DUP4 DUP2 MSTORE PUSH1 0x20 ADD SWAP1 DUP2 MSTORE PUSH1 0x20 ADD PUSH1 0x0 KECCAK256 PUSH1 0x0 SWAP1 PUSH2 0x3202 PUSH2 0x5DFB JUMP JUMPDEST SWAP1 PUSH2 0x100 EXP SWAP1 DIV PUSH20 0xFFFFFFFFFFFFFFFFFFFFFFFFFFFFFFFFFFFFFFFF AND PUSH20 0xFFFFFFFFFFFFFFFFFFFFFFFFFFFFFFFFFFFFFFFF AND EQ JUMPDEST ISZERO PUSH2 0x3247 JUMPI PUSH1 0x0 SWAP3 POP POP POP PUSH2 0x325B JUMP JUMPDEST POP DUP1 DUP1 PUSH1 0x1 ADD SWAP2 POP POP PUSH2 0x3057 JUMP JUMPDEST POP PUSH1 0x1 SWAP1 POP JUMPDEST SWAP2 SWAP1 POP JUMP JUMPDEST PUSH1 0x0 DUP1 SWAP1 PUSH2 0x326C PUSH2 0x5DFB JUMP JUMPDEST SWAP1 PUSH2 0x100 EXP SWAP1 DIV PUSH20 0xFFFFFFFFFFFFFFFFFFFFFFFFFFFFFFFFFFFFFFFF AND PUSH20 0xFFFFFFFFFFFFFFFFFFFFFFFFFFFFFFFFFFFFFFFF AND GAS PUSH2 0x32A8 PUSH2 0x5F84 JUMP JUMPDEST PUSH20 0xFFFFFFFFFFFFFFFFFFFFFFFFFFFFFFFFFFFFFFFF AND EQ PUSH2 0x3314 JUMPI PUSH1 0x40 MLOAD PUSH32 0x8C379A000000000000000000000000000000000000000000000000000000000 DUP2 MSTORE PUSH1 0x4 ADD DUP1 DUP1 PUSH1 0x20 ADD DUP3 DUP2 SUB DUP3 MSTORE PUSH1 0x2F DUP2 MSTORE PUSH1 0x20 ADD DUP1 PUSH2 0x6113 PUSH1 0x2F SWAP2 CODECOPY PUSH1 0x40 ADD SWAP2 POP POP PUSH1 0x40 MLOAD DUP1 SWAP2 SUB SWAP1 REVERT JUMPDEST DUP1 PUSH1 0xA PUSH1 0x0 PUSH2 0x100 EXP DUP2 PUSH2 0x3326 PUSH2 0x5DFB JUMP JUMPDEST DUP2 PUSH20 0xFFFFFFFFFFFFFFFFFFFFFFFFFFFFFFFFFFFFFFFF MUL NOT AND SWAP1 DUP4 PUSH20 0xFFFFFFFFFFFFFFFFFFFFFFFFFFFFFFFFFFFFFFFF AND MUL OR SWAP1 PUSH2 0x3362 PUSH2 0x5E32 JUMP JUMPDEST POP POP POP PUSH32 0x4DEB077BF9C4BC824CC2C989E01A5E53B0A4ECC44C5039D46ABC9FFC88F8A050 PUSH1 0xA PUSH1 0x0 SWAP1 PUSH2 0x3393 PUSH2 0x5DFB JUMP JUMPDEST SWAP1 PUSH2 0x100 EXP SWAP1 DIV PUSH20 0xFFFFFFFFFFFFFFFFFFFFFFFFFFFFFFFFFFFFFFFF AND PUSH1 0x40 MLOAD DUP1 DUP3 PUSH20 0xFFFFFFFFFFFFFFFFFFFFFFFFFFFFFFFFFFFFFFFF AND PUSH20 0xFFFFFFFFFFFFFFFFFFFFFFFFFFFFFFFFFFFFFFFF AND DUP2 MSTORE PUSH1 0x20 ADD SWAP2 POP POP PUSH1 0x40 MLOAD DUP1 SWAP2 SUB SWAP1 LOG1 POP JUMP JUMPDEST PUSH1 0xC PUSH2 0x33FE PUSH2 0x5DFB JUMP JUMPDEST DUP2 JUMP JUMPDEST PUSH1 0x1 PUSH1 0x0 SWAP1 PUSH2 0x340E PUSH2 0x5DFB JUMP JUMPDEST SWAP1 PUSH2 0x100 EXP SWAP1 DIV PUSH20 0xFFFFFFFFFFFFFFFFFFFFFFFFFFFFFFFFFFFFFFFF AND PUSH20 0xFFFFFFFFFFFFFFFFFFFFFFFFFFFFFFFFFFFFFFFF AND GAS PUSH2 0x344A PUSH2 0x5F84 JUMP JUMPDEST PUSH20 0xFFFFFFFFFFFFFFFFFFFFFFFFFFFFFFFFFFFFFFFF AND EQ PUSH2 0x34B6 JUMPI PUSH1 0x40 MLOAD PUSH32 0x8C379A000000000000000000000000000000000000000000000000000000000 DUP2 MSTORE PUSH1 0x4 ADD DUP1 DUP1 PUSH1 0x20 ADD DUP3 DUP2 SUB DUP3 MSTORE PUSH1 0x35 DUP2 MSTORE PUSH1 0x20 ADD DUP1 PUSH2 0x608E PUSH1 0x35 SWAP2 CODECOPY PUSH1 0x40 ADD SWAP2 POP POP PUSH1 0x40 MLOAD DUP1 SWAP2 SUB SWAP1 REVERT JUMPDEST PUSH32 0xB532073B38C83145E3E5135377A08BF9AAB55BC0FD7C1179CD4FB995D2A5159C PUSH1 0x0 DUP1 SWAP1 PUSH2 0x34E3 PUSH2 0x5DFB JUMP JUMPDEST SWAP1 PUSH2 0x100 EXP SWAP1 DIV PUSH20 0xFFFFFFFFFFFFFFFFFFFFFFFFFFFFFFFFFFFFFFFF AND PUSH1 0x1 PUSH1 0x0 SWAP1 PUSH2 0x350D PUSH2 0x5DFB JUMP JUMPDEST SWAP1 PUSH2 0x100 EXP SWAP1 DIV PUSH20 0xFFFFFFFFFFFFFFFFFFFFFFFFFFFFFFFFFFFFFFFF AND PUSH1 0x40 MLOAD DUP1 DUP4 PUSH20 0xFFFFFFFFFFFFFFFFFFFFFFFFFFFFFFFFFFFFFFFF AND PUSH20 0xFFFFFFFFFFFFFFFFFFFFFFFFFFFFFFFFFFFFFFFF AND DUP2 MSTORE PUSH1 0x20 ADD DUP3 PUSH20 0xFFFFFFFFFFFFFFFFFFFFFFFFFFFFFFFFFFFFFFFF AND PUSH20 0xFFFFFFFFFFFFFFFFFFFFFFFFFFFFFFFFFFFFFFFF AND DUP2 MSTORE PUSH1 0x20 ADD SWAP3 POP POP POP PUSH1 0x40 MLOAD DUP1 SWAP2 SUB SWAP1 LOG1 PUSH1 0x1 PUSH1 0x0 SWAP1 PUSH2 0x35AB PUSH2 0x5DFB JUMP JUMPDEST SWAP1 PUSH2 0x100 EXP SWAP1 DIV PUSH20 0xFFFFFFFFFFFFFFFFFFFFFFFFFFFFFFFFFFFFFFFF AND PUSH1 0x0 DUP1 PUSH2 0x100 EXP DUP2 PUSH2 0x35D8 PUSH2 0x5DFB JUMP JUMPDEST DUP2 PUSH20 0xFFFFFFFFFFFFFFFFFFFFFFFFFFFFFFFFFFFFFFFF MUL NOT AND SWAP1 DUP4 PUSH20 0xFFFFFFFFFFFFFFFFFFFFFFFFFFFFFFFFFFFFFFFF AND MUL OR SWAP1 PUSH2 0x3614 PUSH2 0x5E32 JUMP JUMPDEST POP POP POP PUSH1 0x0 PUSH1 0x1 PUSH1 0x0 PUSH2 0x100 EXP DUP2 PUSH2 0x362A PUSH2 0x5DFB JUMP JUMPDEST DUP2 PUSH20 0xFFFFFFFFFFFFFFFFFFFFFFFFFFFFFFFFFFFFFFFF MUL NOT AND SWAP1 DUP4 PUSH20 0xFFFFFFFFFFFFFFFFFFFFFFFFFFFFFFFFFFFFFFFF AND MUL OR SWAP1 PUSH2 0x3666 PUSH2 0x5E32 JUMP JUMPDEST POP POP POP JUMP JUMPDEST PUSH1 0x0 DUP1 SWAP1 POP PUSH1 0x0 PUSH1 0xC PUSH2 0x367C PUSH2 0x5DFB JUMP JUMPDEST SWAP1 POP JUMPDEST PUSH1 0xD PUSH2 0x3689 PUSH2 0x5DFB JUMP JUMPDEST DUP2 LT ISZERO PUSH2 0x3843 JUMPI PUSH2 0x3698 PUSH2 0x5EFB JUMP JUMPDEST PUSH1 0xB PUSH1 0x0 DUP4 DUP2 MSTORE PUSH1 0x20 ADD SWAP1 DUP2 MSTORE PUSH1 0x20 ADD PUSH1 0x0 KECCAK256 PUSH1 0x40 MLOAD DUP1 PUSH1 0x40 ADD PUSH1 0x40 MSTORE SWAP1 DUP2 PUSH1 0x0 DUP3 ADD PUSH1 0x0 SWAP1 PUSH2 0x36C6 PUSH2 0x5DFB JUMP JUMPDEST SWAP1 PUSH2 0x100 EXP SWAP1 DIV PUSH20 0xFFFFFFFFFFFFFFFFFFFFFFFFFFFFFFFFFFFFFFFF AND PUSH20 0xFFFFFFFFFFFFFFFFFFFFFFFFFFFFFFFFFFFFFFFF AND PUSH20 0xFFFFFFFFFFFFFFFFFFFFFFFFFFFFFFFFFFFFFFFF AND DUP2 MSTORE PUSH1 0x20 ADD PUSH1 0x1 DUP3 ADD PUSH2 0x3720 PUSH2 0x5DFB JUMP JUMPDEST DUP2 MSTORE POP POP SWAP1 POP GAS PUSH2 0x372F PUSH2 0x5F84 JUMP JUMPDEST PUSH20 0xFFFFFFFFFFFFFFFFFFFFFFFFFFFFFFFFFFFFFFFF AND DUP2 PUSH1 0x0 ADD MLOAD PUSH20 0xFFFFFFFFFFFFFFFFFFFFFFFFFFFFFFFFFFFFFFFF AND EQ ISZERO PUSH2 0x3835 JUMPI PUSH2 0x377D DUP2 PUSH1 0x20 ADD MLOAD DUP5 PUSH2 0x55B9 SWAP1 SWAP2 SWAP1 PUSH4 0xFFFFFFFF AND JUMP JUMPDEST SWAP3 POP PUSH1 0xB PUSH1 0x0 DUP4 DUP2 MSTORE PUSH1 0x20 ADD SWAP1 DUP2 MSTORE PUSH1 0x20 ADD PUSH1 0x0 KECCAK256 PUSH1 0x0 DUP1 DUP3 ADD PUSH1 0x0 PUSH2 0x100 EXP DUP2 PUSH2 0x37A6 PUSH2 0x5DFB JUMP JUMPDEST SWAP1 PUSH20 0xFFFFFFFFFFFFFFFFFFFFFFFFFFFFFFFFFFFFFFFF MUL NOT AND SWAP1 PUSH2 0x37C8 PUSH2 0x5E32 JUMP JUMPDEST POP POP PUSH1 0x1 DUP3 ADD PUSH1 0x0 SWAP1 PUSH2 0x37D9 PUSH2 0x5E32 JUMP JUMPDEST POP POP POP POP DUP2 DUP2 PUSH1 0x0 ADD MLOAD PUSH20 0xFFFFFFFFFFFFFFFFFFFFFFFFFFFFFFFFFFFFFFFF AND PUSH32 0x3AA2B18EACE5E5727A4AB525921B9B0A1CA1AFDB0F96B599E3AB2D76CB5E7F72 DUP4 PUSH1 0x20 ADD MLOAD PUSH1 0x40 MLOAD DUP1 DUP3 DUP2 MSTORE PUSH1 0x20 ADD SWAP2 POP POP PUSH1 0x40 MLOAD DUP1 SWAP2 SUB SWAP1 LOG3 JUMPDEST POP DUP1 DUP1 PUSH1 0x1 ADD SWAP2 POP POP PUSH2 0x367F JUMP JUMPDEST POP PUSH2 0x3860 DUP2 PUSH1 0xE PUSH2 0x3852 PUSH2 0x5DFB JUMP JUMPDEST PUSH2 0x5641 SWAP1 SWAP2 SWAP1 PUSH4 0xFFFFFFFF AND JUMP JUMPDEST PUSH1 0xE DUP2 SWAP1 PUSH2 0x386C PUSH2 0x5E32 JUMP JUMPDEST POP POP POP PUSH2 0x38D0 PUSH1 0x11 PUSH1 0x0 GAS PUSH2 0x387F PUSH2 0x5F84 JUMP JUMPDEST PUSH20 0xFFFFFFFFFFFFFFFFFFFFFFFFFFFFFFFFFFFFFFFF AND PUSH20 0xFFFFFFFFFFFFFFFFFFFFFFFFFFFFFFFFFFFFFFFF AND DUP2 MSTORE PUSH1 0x20 ADD SWAP1 DUP2 MSTORE PUSH1 0x20 ADD PUSH1 0x0 KECCAK256 PUSH2 0x38C1 PUSH2 0x5DFB JUMP JUMPDEST DUP3 PUSH2 0x55B9 SWAP1 SWAP2 SWAP1 PUSH4 0xFFFFFFFF AND JUMP JUMPDEST SWAP1 POP PUSH1 0x0 PUSH1 0x11 PUSH1 0x0 GAS PUSH2 0x38E1 PUSH2 0x5F84 JUMP JUMPDEST PUSH20 0xFFFFFFFFFFFFFFFFFFFFFFFFFFFFFFFFFFFFFFFF AND PUSH20 0xFFFFFFFFFFFFFFFFFFFFFFFFFFFFFFFFFFFFFFFF AND DUP2 MSTORE PUSH1 0x20 ADD SWAP1 DUP2 MSTORE PUSH1 0x20 ADD PUSH1 0x0 KECCAK256 DUP2 SWAP1 PUSH2 0x3925 PUSH2 0x5E32 JUMP JUMPDEST POP POP POP PUSH1 0x0 DUP2 GT PUSH2 0x3981 JUMPI PUSH1 0x40 MLOAD PUSH32 0x8C379A000000000000000000000000000000000000000000000000000000000 DUP2 MSTORE PUSH1 0x4 ADD DUP1 DUP1 PUSH1 0x20 ADD DUP3 DUP2 SUB DUP3 MSTORE PUSH1 0x21 DUP2 MSTORE PUSH1 0x20 ADD DUP1 PUSH2 0x60F2 PUSH1 0x21 SWAP2 CODECOPY PUSH1 0x40 ADD SWAP2 POP POP PUSH1 0x40 MLOAD DUP1 SWAP2 SUB SWAP1 REVERT JUMPDEST PUSH2 0x3989 PUSH2 0x5700 JUMP JUMPDEST PUSH20 0xFFFFFFFFFFFFFFFFFFFFFFFFFFFFFFFFFFFFFFFF AND PUSH4 0xA9059CBB GAS PUSH2 0x39AD PUSH2 0x5F84 JUMP JUMPDEST DUP4 PUSH1 0x40 MLOAD DUP4 PUSH4 0xFFFFFFFF AND PUSH1 0xE0 SHL DUP2 MSTORE PUSH1 0x4 ADD DUP1 DUP4 PUSH20 0xFFFFFFFFFFFFFFFFFFFFFFFFFFFFFFFFFFFFFFFF AND PUSH20 0xFFFFFFFFFFFFFFFFFFFFFFFFFFFFFFFFFFFFFFFF AND DUP2 MSTORE PUSH1 0x20 ADD DUP3 DUP2 MSTORE PUSH1 0x20 ADD SWAP3 POP POP POP PUSH1 0x20 PUSH1 0x40 MLOAD DUP1 DUP4 SUB DUP2 PUSH1 0x0 DUP8 DUP1 PUSH2 0x3A12 PUSH2 0x5E6B JUMP JUMPDEST ISZERO DUP1 ISZERO PUSH2 0x3A1E JUMPI PUSH1 0x0 DUP1 REVERT JUMPDEST POP GAS PUSH2 0x3A28 PUSH2 0x5F2B JUMP JUMPDEST POP POP POP POP POP POP ISZERO DUP1 ISZERO PUSH2 0x3A3F JUMPI RETURNDATASIZE PUSH1 0x0 DUP1 RETURNDATACOPY RETURNDATASIZE PUSH1 0x0 REVERT JUMPDEST POP POP POP POP PUSH1 0x40 MLOAD RETURNDATASIZE PUSH1 0x20 DUP2 LT ISZERO PUSH2 0x3A55 JUMPI PUSH1 0x0 DUP1 REVERT JUMPDEST DUP2 ADD SWAP1 DUP1 DUP1 MLOAD SWAP1 PUSH1 0x20 ADD SWAP1 SWAP3 SWAP2 SWAP1 POP POP POP POP PUSH32 0xAF6EC623F558C7B3527FF6C9C09432C7D81A3D38BD2E1EAAEE2EFE7AAC23C28B GAS PUSH2 0x3A91 PUSH2 0x5F84 JUMP JUMPDEST DUP3 PUSH1 0x40 MLOAD DUP1 DUP4 PUSH20 0xFFFFFFFFFFFFFFFFFFFFFFFFFFFFFFFFFFFFFFFF AND PUSH20 0xFFFFFFFFFFFFFFFFFFFFFFFFFFFFFFFFFFFFFFFF AND DUP2 MSTORE PUSH1 0x20 ADD DUP3 DUP2 MSTORE PUSH1 0x20 ADD SWAP3 POP POP POP PUSH1 0x40 MLOAD DUP1 SWAP2 SUB SWAP1 LOG1 POP JUMP JUMPDEST PUSH1 0x0 DUP1 SWAP1 PUSH2 0x3AE9 PUSH2 0x5DFB JUMP JUMPDEST SWAP1 PUSH2 0x100 EXP SWAP1 DIV PUSH20 0xFFFFFFFFFFFFFFFFFFFFFFFFFFFFFFFFFFFFFFFF AND DUP2 JUMP JUMPDEST PUSH1 0x4 PUSH2 0x3B13 PUSH2 0x5DFB JUMP JUMPDEST DUP2 JUMP JUMPDEST PUSH1 0x0 PUSH32 0x534E580000000000000000000000000000000000000000000000000000000000 PUSH2 0x3B41 PUSH2 0xF8C JUMP JUMPDEST PUSH20 0xFFFFFFFFFFFFFFFFFFFFFFFFFFFFFFFFFFFFFFFF AND PUSH3 0x9919C0 DUP3 PUSH1 0x40 MLOAD DUP3 PUSH4 0xFFFFFFFF AND PUSH1 0xE0 SHL DUP2 MSTORE PUSH1 0x4 ADD DUP1 DUP3 DUP2 MSTORE PUSH1 0x20 ADD SWAP2 POP POP PUSH1 0x20 PUSH1 0x40 MLOAD DUP1 DUP4 SUB DUP2 DUP7 DUP1 PUSH2 0x3B8B PUSH2 0x5E6B JUMP JUMPDEST ISZERO DUP1 ISZERO PUSH2 0x3B97 JUMPI PUSH1 0x0 DUP1 REVERT JUMPDEST POP GAS PUSH2 0x3BA1 PUSH2 0x5EA2 JUMP JUMPDEST POP POP POP POP POP ISZERO DUP1 ISZERO PUSH2 0x3BB7 JUMPI RETURNDATASIZE PUSH1 0x0 DUP1 RETURNDATACOPY RETURNDATASIZE PUSH1 0x0 REVERT JUMPDEST POP POP POP POP PUSH1 0x40 MLOAD RETURNDATASIZE PUSH1 0x20 DUP2 LT ISZERO PUSH2 0x3BCD JUMPI PUSH1 0x0 DUP1 REVERT JUMPDEST DUP2 ADD SWAP1 DUP1 DUP1 MLOAD SWAP1 PUSH1 0x20 ADD SWAP1 SWAP3 SWAP2 SWAP1 POP POP POP ISZERO PUSH2 0x3C51 JUMPI PUSH1 0x40 MLOAD PUSH32 0x8C379A000000000000000000000000000000000000000000000000000000000 DUP2 MSTORE PUSH1 0x4 ADD DUP1 DUP1 PUSH1 0x20 ADD DUP3 DUP2 SUB DUP3 MSTORE PUSH1 0x19 DUP2 MSTORE PUSH1 0x20 ADD DUP1 PUSH32 0x52617465207374616C65206F72206E6F7420612073796E746800000000000000 DUP2 MSTORE POP PUSH1 0x20 ADD SWAP2 POP POP PUSH1 0x40 MLOAD DUP1 SWAP2 SUB SWAP1 REVERT JUMPDEST PUSH32 0x4554480000000000000000000000000000000000000000000000000000000000 PUSH2 0x3C7A PUSH2 0xF8C JUMP JUMPDEST PUSH20 0xFFFFFFFFFFFFFFFFFFFFFFFFFFFFFFFFFFFFFFFF AND PUSH3 0x9919C0 DUP3 PUSH1 0x40 MLOAD DUP3 PUSH4 0xFFFFFFFF AND PUSH1 0xE0 SHL DUP2 MSTORE PUSH1 0x4 ADD DUP1 DUP3 DUP2 MSTORE PUSH1 0x20 ADD SWAP2 POP POP PUSH1 0x20 PUSH1 0x40 MLOAD DUP1 DUP4 SUB DUP2 DUP7 DUP1 PUSH2 0x3CC4 PUSH2 0x5E6B JUMP JUMPDEST ISZERO DUP1 ISZERO PUSH2 0x3CD0 JUMPI PUSH1 0x0 DUP1 REVERT JUMPDEST POP GAS PUSH2 0x3CDA PUSH2 0x5EA2 JUMP JUMPDEST POP POP POP POP POP ISZERO DUP1 ISZERO PUSH2 0x3CF0 JUMPI RETURNDATASIZE PUSH1 0x0 DUP1 RETURNDATACOPY RETURNDATASIZE PUSH1 0x0 REVERT JUMPDEST POP POP POP POP PUSH1 0x40 MLOAD RETURNDATASIZE PUSH1 0x20 DUP2 LT ISZERO PUSH2 0x3D06 JUMPI PUSH1 0x0 DUP1 REVERT JUMPDEST DUP2 ADD SWAP1 DUP1 DUP1 MLOAD SWAP1 PUSH1 0x20 ADD SWAP1 SWAP3 SWAP2 SWAP1 POP POP POP ISZERO PUSH2 0x3D8A JUMPI PUSH1 0x40 MLOAD PUSH32 0x8C379A000000000000000000000000000000000000000000000000000000000 DUP2 MSTORE PUSH1 0x4 ADD DUP1 DUP1 PUSH1 0x20 ADD DUP3 DUP2 SUB DUP3 MSTORE PUSH1 0x19 DUP2 MSTORE PUSH1 0x20 ADD DUP1 PUSH32 0x52617465207374616C65206F72206E6F7420612073796E746800000000000000 DUP2 MSTORE POP PUSH1 0x20 ADD SWAP2 POP POP PUSH1 0x40 MLOAD DUP1 SWAP2 SUB SWAP1 REVERT JUMPDEST PUSH1 0x5 PUSH1 0x0 SWAP1 PUSH2 0x3D97 PUSH2 0x5DFB JUMP JUMPDEST SWAP1 PUSH2 0x100 EXP SWAP1 DIV PUSH1 0xFF AND ISZERO PUSH2 0x3DF7 JUMPI PUSH1 0x40 MLOAD PUSH32 0x8C379A000000000000000000000000000000000000000000000000000000000 DUP2 MSTORE PUSH1 0x4 ADD DUP1 DUP1 PUSH1 0x20 ADD DUP3 DUP2 SUB DUP3 MSTORE PUSH1 0x3C DUP2 MSTORE PUSH1 0x20 ADD DUP1 PUSH2 0x61B8 PUSH1 0x3C SWAP2 CODECOPY PUSH1 0x40 ADD SWAP2 POP POP PUSH1 0x40 MLOAD DUP1 SWAP2 SUB SWAP1 REVERT JUMPDEST PUSH2 0x3DFF PUSH2 0xF8C JUMP JUMPDEST PUSH20 0xFFFFFFFFFFFFFFFFFFFFFFFFFFFFFFFFFFFFFFFF AND PUSH4 0xAC82F608 PUSH32 0x4554480000000000000000000000000000000000000000000000000000000000 PUSH1 0x40 MLOAD DUP3 PUSH4 0xFFFFFFFF AND PUSH1 0xE0 SHL DUP2 MSTORE PUSH1 0x4 ADD DUP1 DUP3 DUP2 MSTORE PUSH1 0x20 ADD SWAP2 POP POP PUSH1 0x20 PUSH1 0x40 MLOAD DUP1 DUP4 SUB DUP2 DUP7 DUP1 PUSH2 0x3E6A PUSH2 0x5E6B JUMP JUMPDEST ISZERO DUP1 ISZERO PUSH2 0x3E76 JUMPI PUSH1 0x0 DUP1 REVERT JUMPDEST POP GAS PUSH2 0x3E80 PUSH2 0x5EA2 JUMP JUMPDEST POP POP POP POP POP ISZERO DUP1 ISZERO PUSH2 0x3E96 JUMPI RETURNDATASIZE PUSH1 0x0 DUP1 RETURNDATACOPY RETURNDATASIZE PUSH1 0x0 REVERT JUMPDEST POP POP POP POP PUSH1 0x40 MLOAD RETURNDATASIZE PUSH1 0x20 DUP2 LT ISZERO PUSH2 0x3EAC JUMPI PUSH1 0x0 DUP1 REVERT JUMPDEST DUP2 ADD SWAP1 DUP1 DUP1 MLOAD SWAP1 PUSH1 0x20 ADD SWAP1 SWAP3 SWAP2 SWAP1 POP POP POP DUP6 EQ PUSH2 0x3F14 JUMPI PUSH1 0x40 MLOAD PUSH32 0x8C379A000000000000000000000000000000000000000000000000000000000 DUP2 MSTORE PUSH1 0x4 ADD DUP1 DUP1 PUSH1 0x20 ADD DUP3 DUP2 SUB DUP3 MSTORE PUSH1 0x2B DUP2 MSTORE PUSH1 0x20 ADD DUP1 PUSH2 0x6063 PUSH1 0x2B SWAP2 CODECOPY PUSH1 0x40 ADD SWAP2 POP POP PUSH1 0x40 MLOAD DUP1 SWAP2 SUB SWAP1 REVERT JUMPDEST PUSH2 0x3F1C PUSH2 0xF8C JUMP JUMPDEST PUSH20 0xFFFFFFFFFFFFFFFFFFFFFFFFFFFFFFFFFFFFFFFF AND PUSH4 0xAC82F608 PUSH32 0x534E580000000000000000000000000000000000000000000000000000000000 PUSH1 0x40 MLOAD DUP3 PUSH4 0xFFFFFFFF AND PUSH1 0xE0 SHL DUP2 MSTORE PUSH1 0x4 ADD DUP1 DUP3 DUP2 MSTORE PUSH1 0x20 ADD SWAP2 POP POP PUSH1 0x20 PUSH1 0x40 MLOAD DUP1 DUP4 SUB DUP2 DUP7 DUP1 PUSH2 0x3F87 PUSH2 0x5E6B JUMP JUMPDEST ISZERO DUP1 ISZERO PUSH2 0x3F93 JUMPI PUSH1 0x0 DUP1 REVERT JUMPDEST POP GAS PUSH2 0x3F9D PUSH2 0x5EA2 JUMP JUMPDEST POP POP POP POP POP ISZERO DUP1 ISZERO PUSH2 0x3FB3 JUMPI RETURNDATASIZE PUSH1 0x0 DUP1 RETURNDATACOPY RETURNDATASIZE PUSH1 0x0 REVERT JUMPDEST POP POP POP POP PUSH1 0x40 MLOAD RETURNDATASIZE PUSH1 0x20 DUP2 LT ISZERO PUSH2 0x3FC9 JUMPI PUSH1 0x0 DUP1 REVERT JUMPDEST DUP2 ADD SWAP1 DUP1 DUP1 MLOAD SWAP1 PUSH1 0x20 ADD SWAP1 SWAP3 SWAP2 SWAP1 POP POP POP DUP5 EQ PUSH2 0x4031 JUMPI PUSH1 0x40 MLOAD PUSH32 0x8C379A000000000000000000000000000000000000000000000000000000000 DUP2 MSTORE PUSH1 0x4 ADD DUP1 DUP1 PUSH1 0x20 ADD DUP3 DUP2 SUB DUP3 MSTORE PUSH1 0x2F DUP2 MSTORE PUSH1 0x20 ADD DUP1 PUSH2 0x60C3 PUSH1 0x2F SWAP2 CODECOPY PUSH1 0x40 ADD SWAP2 POP POP PUSH1 0x40 MLOAD DUP1 SWAP2 SUB SWAP1 REVERT JUMPDEST PUSH2 0x4039 PUSH2 0x5766 JUMP JUMPDEST SWAP3 POP POP POP SWAP3 SWAP2 POP POP JUMP JUMPDEST PUSH1 0x0 DUP1 SWAP1 PUSH2 0x404F PUSH2 0x5DFB JUMP JUMPDEST SWAP1 PUSH2 0x100 EXP SWAP1 DIV PUSH20 0xFFFFFFFFFFFFFFFFFFFFFFFFFFFFFFFFFFFFFFFF AND PUSH20 0xFFFFFFFFFFFFFFFFFFFFFFFFFFFFFFFFFFFFFFFF AND GAS PUSH2 0x408B PUSH2 0x5F84 JUMP JUMPDEST PUSH20 0xFFFFFFFFFFFFFFFFFFFFFFFFFFFFFFFFFFFFFFFF AND EQ PUSH2 0x40F7 JUMPI PUSH1 0x40 MLOAD PUSH32 0x8C379A000000000000000000000000000000000000000000000000000000000 DUP2 MSTORE PUSH1 0x4 ADD DUP1 DUP1 PUSH1 0x20 ADD DUP3 DUP2 SUB DUP3 MSTORE PUSH1 0x2F DUP2 MSTORE PUSH1 0x20 ADD DUP1 PUSH2 0x6113 PUSH1 0x2F SWAP2 CODECOPY PUSH1 0x40 ADD SWAP2 POP POP PUSH1 0x40 MLOAD DUP1 SWAP2 SUB SWAP1 REVERT JUMPDEST PUSH1 0x3 PUSH1 0x0 SWAP1 PUSH2 0x4104 PUSH2 0x5DFB JUMP JUMPDEST SWAP1 PUSH2 0x100 EXP SWAP1 DIV PUSH1 0xFF AND PUSH2 0x4180 JUMPI PUSH1 0x40 MLOAD PUSH32 0x8C379A000000000000000000000000000000000000000000000000000000000 DUP2 MSTORE PUSH1 0x4 ADD DUP1 DUP1 PUSH1 0x20 ADD DUP3 DUP2 SUB DUP3 MSTORE PUSH1 0x1F DUP2 MSTORE PUSH1 0x20 ADD DUP1 PUSH32 0x53656C66204465737472756374206E6F742079657420696E6974696174656400 DUP2 MSTORE POP PUSH1 0x20 ADD SWAP2 POP POP PUSH1 0x40 MLOAD DUP1 SWAP2 SUB SWAP1 REVERT JUMPDEST GAS PUSH2 0x4189 PUSH2 0x5FB5 JUMP JUMPDEST PUSH3 0x24EA00 PUSH1 0x2 PUSH2 0x4197 PUSH2 0x5DFB JUMP JUMPDEST ADD LT PUSH2 0x420B JUMPI PUSH1 0x40 MLOAD PUSH32 0x8C379A000000000000000000000000000000000000000000000000000000000 DUP2 MSTORE PUSH1 0x4 ADD DUP1 DUP1 PUSH1 0x20 ADD DUP3 DUP2 SUB DUP3 MSTORE PUSH1 0x1B DUP2 MSTORE PUSH1 0x20 ADD DUP1 PUSH32 0x53656C662064657374727563742064656C6179206E6F74206D65740000000000 DUP2 MSTORE POP PUSH1 0x20 ADD SWAP2 POP POP PUSH1 0x40 MLOAD DUP1 SWAP2 SUB SWAP1 REVERT JUMPDEST PUSH32 0x8A09E1677CED846CB537DC2B172043BD05A1A81AD7E0033A7EF8BA762DF990B7 PUSH1 0x3 PUSH1 0x1 SWAP1 PUSH2 0x4239 PUSH2 0x5DFB JUMP JUMPDEST SWAP1 PUSH2 0x100 EXP SWAP1 DIV PUSH20 0xFFFFFFFFFFFFFFFFFFFFFFFFFFFFFFFFFFFFFFFF AND PUSH1 0x40 MLOAD DUP1 DUP3 PUSH20 0xFFFFFFFFFFFFFFFFFFFFFFFFFFFFFFFFFFFFFFFF AND PUSH20 0xFFFFFFFFFFFFFFFFFFFFFFFFFFFFFFFFFFFFFFFF AND DUP2 MSTORE PUSH1 0x20 ADD SWAP2 POP POP PUSH1 0x40 MLOAD DUP1 SWAP2 SUB SWAP1 LOG1 JUMP JUMPDEST PUSH1 0x0 PUSH2 0x4373 PUSH2 0x42A6 PUSH2 0xF8C JUMP JUMPDEST PUSH20 0xFFFFFFFFFFFFFFFFFFFFFFFFFFFFFFFFFFFFFFFF AND PUSH4 0xAC82F608 PUSH32 0x534E580000000000000000000000000000000000000000000000000000000000 PUSH1 0x40 MLOAD DUP3 PUSH4 0xFFFFFFFF AND PUSH1 0xE0 SHL DUP2 MSTORE PUSH1 0x4 ADD DUP1 DUP3 DUP2 MSTORE PUSH1 0x20 ADD SWAP2 POP POP PUSH1 0x20 PUSH1 0x40 MLOAD DUP1 DUP4 SUB DUP2 DUP7 DUP1 PUSH2 0x4311 PUSH2 0x5E6B JUMP JUMPDEST ISZERO DUP1 ISZERO PUSH2 0x431D JUMPI PUSH1 0x0 DUP1 REVERT JUMPDEST POP GAS PUSH2 0x4327 PUSH2 0x5EA2 JUMP JUMPDEST POP POP POP POP POP ISZERO DUP1 ISZERO PUSH2 0x433D JUMPI RETURNDATASIZE PUSH1 0x0 DUP1 RETURNDATACOPY RETURNDATASIZE PUSH1 0x0 REVERT JUMPDEST POP POP POP POP PUSH1 0x40 MLOAD RETURNDATASIZE PUSH1 0x20 DUP2 LT ISZERO PUSH2 0x4353 JUMPI PUSH1 0x0 DUP1 REVERT JUMPDEST DUP2 ADD SWAP1 DUP1 DUP1 MLOAD SWAP1 PUSH1 0x20 ADD SWAP1 SWAP3 SWAP2 SWAP1 POP POP POP DUP4 PUSH2 0x56CA SWAP1 SWAP2 SWAP1 PUSH4 0xFFFFFFFF AND JUMP JUMPDEST SWAP1 POP SWAP2 SWAP1 POP JUMP JUMPDEST PUSH3 0x24EA00 DUP2 JUMP JUMPDEST PUSH1 0x0 DUP1 SWAP1 PUSH2 0x438D PUSH2 0x5DFB JUMP JUMPDEST SWAP1 PUSH2 0x100 EXP SWAP1 DIV PUSH20 0xFFFFFFFFFFFFFFFFFFFFFFFFFFFFFFFFFFFFFFFF AND PUSH20 0xFFFFFFFFFFFFFFFFFFFFFFFFFFFFFFFFFFFFFFFF AND GAS PUSH2 0x43C9 PUSH2 0x5F84 JUMP JUMPDEST PUSH20 0xFFFFFFFFFFFFFFFFFFFFFFFFFFFFFFFFFFFFFFFF AND EQ PUSH2 0x4435 JUMPI PUSH1 0x40 MLOAD PUSH32 0x8C379A000000000000000000000000000000000000000000000000000000000 DUP2 MSTORE PUSH1 0x4 ADD DUP1 DUP1 PUSH1 0x20 ADD DUP3 DUP2 SUB DUP3 MSTORE PUSH1 0x2F DUP2 MSTORE PUSH1 0x20 ADD DUP1 PUSH2 0x6113 PUSH1 0x2F SWAP2 CODECOPY PUSH1 0x40 ADD SWAP2 POP POP PUSH1 0x40 MLOAD DUP1 SWAP2 SUB SWAP1 REVERT JUMPDEST PUSH20 0x0 PUSH4 0x907AF6C0 PUSH1 0x40 MLOAD DUP2 PUSH4 0xFFFFFFFF AND PUSH1 0xE0 SHL DUP2 MSTORE PUSH1 0x4 ADD PUSH1 0x20 PUSH1 0x40 MLOAD DUP1 DUP4 SUB DUP2 DUP7 DUP1 PUSH2 0x4474 PUSH2 0x5E6B JUMP JUMPDEST ISZERO DUP1 ISZERO PUSH2 0x4480 JUMPI PUSH1 0x0 DUP1 REVERT JUMPDEST POP GAS PUSH2 0x448A PUSH2 0x5FE6 JUMP JUMPDEST POP POP POP POP POP ISZERO DUP1 ISZERO PUSH2 0x44A0 JUMPI RETURNDATASIZE PUSH1 0x0 DUP1 RETURNDATACOPY RETURNDATASIZE PUSH1 0x0 REVERT JUMPDEST POP POP POP POP PUSH1 0x40 MLOAD RETURNDATASIZE PUSH1 0x20 DUP2 LT ISZERO PUSH2 0x44B6 JUMPI PUSH1 0x0 DUP1 REVERT JUMPDEST DUP2 ADD SWAP1 DUP1 DUP1 MLOAD SWAP1 PUSH1 0x20 ADD SWAP1 SWAP3 SWAP2 SWAP1 POP POP POP DUP2 GT PUSH2 0x451E JUMPI PUSH1 0x40 MLOAD PUSH32 0x8C379A000000000000000000000000000000000000000000000000000000000 DUP2 MSTORE PUSH1 0x4 ADD DUP1 DUP1 PUSH1 0x20 ADD DUP3 DUP2 SUB DUP3 MSTORE PUSH1 0x30 DUP2 MSTORE PUSH1 0x20 ADD DUP1 PUSH2 0x6188 PUSH1 0x30 SWAP2 CODECOPY PUSH1 0x40 ADD SWAP2 POP POP PUSH1 0x40 MLOAD DUP1 SWAP2 SUB SWAP1 REVERT JUMPDEST DUP1 PUSH1 0xF DUP2 SWAP1 PUSH2 0x452B PUSH2 0x5E32 JUMP JUMPDEST POP POP POP PUSH32 0xA39EACD162EE82C70B2B030A1BC8FE89ADCCCC61122FAD4821A8772DBCC54267 PUSH1 0xF PUSH2 0x4559 PUSH2 0x5DFB JUMP JUMPDEST PUSH1 0x40 MLOAD DUP1 DUP3 DUP2 MSTORE PUSH1 0x20 ADD SWAP2 POP POP PUSH1 0x40 MLOAD DUP1 SWAP2 SUB SWAP1 LOG1 POP JUMP JUMPDEST PUSH2 0x4579 PUSH2 0x603F JUMP JUMPDEST PUSH1 0x0 DUP1 SWAP1 POP JUMPDEST PUSH1 0x9 DUP1 PUSH2 0x458A PUSH2 0x5DFB JUMP JUMPDEST SWAP1 POP DUP2 LT ISZERO PUSH2 0x45DB JUMPI PUSH1 0x9 DUP2 DUP2 PUSH2 0x459F PUSH2 0x5DFB JUMP JUMPDEST DUP2 LT PUSH2 0x45A7 JUMPI INVALID JUMPDEST SWAP1 PUSH1 0x0 MSTORE PUSH1 0x20 PUSH1 0x0 KECCAK256 ADD PUSH2 0x45B9 PUSH2 0x5DFB JUMP JUMPDEST DUP3 DUP3 PUSH1 0x18 DUP2 LT PUSH2 0x45C5 JUMPI INVALID JUMPDEST PUSH1 0x20 MUL ADD DUP2 DUP2 MSTORE POP POP DUP1 DUP1 PUSH1 0x1 ADD SWAP2 POP POP PUSH2 0x457F JUMP JUMPDEST POP SWAP1 JUMP JUMPDEST PUSH1 0xB PUSH1 0x20 MSTORE DUP1 PUSH1 0x0 MSTORE PUSH1 0x40 PUSH1 0x0 KECCAK256 PUSH1 0x0 SWAP2 POP SWAP1 POP DUP1 PUSH1 0x0 ADD PUSH1 0x0 SWAP1 PUSH2 0x4602 PUSH2 0x5DFB JUMP JUMPDEST SWAP1 PUSH2 0x100 EXP SWAP1 DIV PUSH20 0xFFFFFFFFFFFFFFFFFFFFFFFFFFFFFFFFFFFFFFFF AND SWAP1 DUP1 PUSH1 0x1 ADD PUSH2 0x462C PUSH2 0x5DFB JUMP JUMPDEST SWAP1 POP DUP3 JUMP JUMPDEST PUSH1 0x0 PUSH32 0x534E580000000000000000000000000000000000000000000000000000000000 PUSH2 0x465C PUSH2 0xF8C JUMP JUMPDEST PUSH20 0xFFFFFFFFFFFFFFFFFFFFFFFFFFFFFFFFFFFFFFFF AND PUSH3 0x9919C0 DUP3 PUSH1 0x40 MLOAD DUP3 PUSH4 0xFFFFFFFF AND PUSH1 0xE0 SHL DUP2 MSTORE PUSH1 0x4 ADD DUP1 DUP3 DUP2 MSTORE PUSH1 0x20 ADD SWAP2 POP POP PUSH1 0x20 PUSH1 0x40 MLOAD DUP1 DUP4 SUB DUP2 DUP7 DUP1 PUSH2 0x46A6 PUSH2 0x5E6B JUMP JUMPDEST ISZERO DUP1 ISZERO PUSH2 0x46B2 JUMPI PUSH1 0x0 DUP1 REVERT JUMPDEST POP GAS PUSH2 0x46BC PUSH2 0x5EA2 JUMP JUMPDEST POP POP POP POP POP ISZERO DUP1 ISZERO PUSH2 0x46D2 JUMPI RETURNDATASIZE PUSH1 0x0 DUP1 RETURNDATACOPY RETURNDATASIZE PUSH1 0x0 REVERT JUMPDEST POP POP POP POP PUSH1 0x40 MLOAD RETURNDATASIZE PUSH1 0x20 DUP2 LT ISZERO PUSH2 0x46E8 JUMPI PUSH1 0x0 DUP1 REVERT JUMPDEST DUP2 ADD SWAP1 DUP1 DUP1 MLOAD SWAP1 PUSH1 0x20 ADD SWAP1 SWAP3 SWAP2 SWAP1 POP POP POP ISZERO PUSH2 0x476C JUMPI PUSH1 0x40 MLOAD PUSH32 0x8C379A000000000000000000000000000000000000000000000000000000000 DUP2 MSTORE PUSH1 0x4 ADD DUP1 DUP1 PUSH1 0x20 ADD DUP3 DUP2 SUB DUP3 MSTORE PUSH1 0x19 DUP2 MSTORE PUSH1 0x20 ADD DUP1 PUSH32 0x52617465207374616C65206F72206E6F7420612073796E746800000000000000 DUP2 MSTORE POP PUSH1 0x20 ADD SWAP2 POP POP PUSH1 0x40 MLOAD DUP1 SWAP2 SUB SWAP1 REVERT JUMPDEST PUSH1 0x5 PUSH1 0x0 SWAP1 PUSH2 0x4779 PUSH2 0x5DFB JUMP JUMPDEST SWAP1 PUSH2 0x100 EXP SWAP1 DIV PUSH1 0xFF AND ISZERO PUSH2 0x47D9 JUMPI PUSH1 0x40 MLOAD PUSH32 0x8C379A000000000000000000000000000000000000000000000000000000000 DUP2 MSTORE PUSH1 0x4 ADD DUP1 DUP1 PUSH1 0x20 ADD DUP3 DUP2 SUB DUP3 MSTORE PUSH1 0x3C DUP2 MSTORE PUSH1 0x20 ADD DUP1 PUSH2 0x61B8 PUSH1 0x3C SWAP2 CODECOPY PUSH1 0x40 ADD SWAP2 POP POP PUSH1 0x40 MLOAD DUP1 SWAP2 SUB SWAP1 REVERT JUMPDEST PUSH2 0x47E1 PUSH2 0xF8C JUMP JUMPDEST PUSH20 0xFFFFFFFFFFFFFFFFFFFFFFFFFFFFFFFFFFFFFFFF AND PUSH4 0xAC82F608 PUSH32 0x534E580000000000000000000000000000000000000000000000000000000000 PUSH1 0x40 MLOAD DUP3 PUSH4 0xFFFFFFFF AND PUSH1 0xE0 SHL DUP2 MSTORE PUSH1 0x4 ADD DUP1 DUP3 DUP2 MSTORE PUSH1 0x20 ADD SWAP2 POP POP PUSH1 0x20 PUSH1 0x40 MLOAD DUP1 DUP4 SUB DUP2 DUP7 DUP1 PUSH2 0x484C PUSH2 0x5E6B JUMP JUMPDEST ISZERO DUP1 ISZERO PUSH2 0x4858 JUMPI PUSH1 0x0 DUP1 REVERT JUMPDEST POP GAS PUSH2 0x4862 PUSH2 0x5EA2 JUMP JUMPDEST POP POP POP POP POP ISZERO DUP1 ISZERO PUSH2 0x4878 JUMPI RETURNDATASIZE PUSH1 0x0 DUP1 RETURNDATACOPY RETURNDATASIZE PUSH1 0x0 REVERT JUMPDEST POP POP POP POP PUSH1 0x40 MLOAD RETURNDATASIZE PUSH1 0x20 DUP2 LT ISZERO PUSH2 0x488E JUMPI PUSH1 0x0 DUP1 REVERT JUMPDEST DUP2 ADD SWAP1 DUP1 DUP1 MLOAD SWAP1 PUSH1 0x20 ADD SWAP1 SWAP3 SWAP2 SWAP1 POP POP POP DUP4 EQ PUSH2 0x48F6 JUMPI PUSH1 0x40 MLOAD PUSH32 0x8C379A000000000000000000000000000000000000000000000000000000000 DUP2 MSTORE PUSH1 0x4 ADD DUP1 DUP1 PUSH1 0x20 ADD DUP3 DUP2 SUB DUP3 MSTORE PUSH1 0x25 DUP2 MSTORE PUSH1 0x20 ADD DUP1 PUSH2 0x61F4 PUSH1 0x25 SWAP2 CODECOPY PUSH1 0x40 ADD SWAP2 POP POP PUSH1 0x40 MLOAD DUP1 SWAP2 SUB SWAP1 REVERT JUMPDEST PUSH2 0x48FF DUP5 PUSH2 0x598F JUMP JUMPDEST SWAP2 POP POP SWAP3 SWAP2 POP POP JUMP JUMPDEST PUSH1 0x10 PUSH2 0x4912 PUSH2 0x5DFB JUMP JUMPDEST DUP2 JUMP JUMPDEST PUSH1 0x3 PUSH1 0x0 SWAP1 PUSH2 0x4922 PUSH2 0x5DFB JUMP JUMPDEST SWAP1 PUSH2 0x100 EXP SWAP1 DIV PUSH1 0xFF AND DUP2 JUMP JUMPDEST PUSH1 0x0 DUP1 SWAP1 PUSH2 0x493B PUSH2 0x5DFB JUMP JUMPDEST SWAP1 PUSH2 0x100 EXP SWAP1 DIV PUSH20 0xFFFFFFFFFFFFFFFFFFFFFFFFFFFFFFFFFFFFFFFF AND PUSH20 0xFFFFFFFFFFFFFFFFFFFFFFFFFFFFFFFFFFFFFFFF AND GAS PUSH2 0x4977 PUSH2 0x5F84 JUMP JUMPDEST PUSH20 0xFFFFFFFFFFFFFFFFFFFFFFFFFFFFFFFFFFFFFFFF AND EQ PUSH2 0x49E3 JUMPI PUSH1 0x40 MLOAD PUSH32 0x8C379A000000000000000000000000000000000000000000000000000000000 DUP2 MSTORE PUSH1 0x4 ADD DUP1 DUP1 PUSH1 0x20 ADD DUP3 DUP2 SUB DUP3 MSTORE PUSH1 0x2F DUP2 MSTORE PUSH1 0x20 ADD DUP1 PUSH2 0x6113 PUSH1 0x2F SWAP2 CODECOPY PUSH1 0x40 ADD SWAP2 POP POP PUSH1 0x40 MLOAD DUP1 SWAP2 SUB SWAP1 REVERT JUMPDEST DUP1 PUSH1 0x10 DUP2 SWAP1 PUSH2 0x49F0 PUSH2 0x5E32 JUMP JUMPDEST POP POP POP PUSH32 0xDC2BE810A133E01CB21A41082F15B2863D96F9FE79D1F84D7E2D5B810C5C8243 PUSH1 0x10 PUSH2 0x4A1E PUSH2 0x5DFB JUMP JUMPDEST PUSH1 0x40 MLOAD DUP1 DUP3 DUP2 MSTORE PUSH1 0x20 ADD SWAP2 POP POP PUSH1 0x40 MLOAD DUP1 SWAP2 SUB SWAP1 LOG1 POP JUMP JUMPDEST PUSH1 0x0 DUP1 SWAP1 PUSH2 0x4A42 PUSH2 0x5DFB JUMP JUMPDEST SWAP1 PUSH2 0x100 EXP SWAP1 DIV PUSH20 0xFFFFFFFFFFFFFFFFFFFFFFFFFFFFFFFFFFFFFFFF AND PUSH20 0xFFFFFFFFFFFFFFFFFFFFFFFFFFFFFFFFFFFFFFFF AND GAS PUSH2 0x4A7E PUSH2 0x5F84 JUMP JUMPDEST PUSH20 0xFFFFFFFFFFFFFFFFFFFFFFFFFFFFFFFFFFFFFFFF AND EQ PUSH2 0x4AEA JUMPI PUSH1 0x40 MLOAD PUSH32 0x8C379A000000000000000000000000000000000000000000000000000000000 DUP2 MSTORE PUSH1 0x4 ADD DUP1 DUP1 PUSH1 0x20 ADD DUP3 DUP2 SUB DUP3 MSTORE PUSH1 0x2F DUP2 MSTORE PUSH1 0x20 ADD DUP1 PUSH2 0x6113 PUSH1 0x2F SWAP2 CODECOPY PUSH1 0x40 ADD SWAP2 POP POP PUSH1 0x40 MLOAD DUP1 SWAP2 SUB SWAP1 REVERT JUMPDEST GAS PUSH2 0x4AF3 PUSH2 0x5FB5 JUMP JUMPDEST PUSH1 0x2 DUP2 SWAP1 PUSH2 0x4AFF PUSH2 0x5E32 JUMP JUMPDEST POP POP POP PUSH1 0x1 PUSH1 0x3 PUSH1 0x0 PUSH2 0x100 EXP DUP2 PUSH2 0x4B15 PUSH2 0x5DFB JUMP JUMPDEST DUP2 PUSH1 0xFF MUL NOT AND SWAP1 DUP4 ISZERO ISZERO MUL OR SWAP1 PUSH2 0x4B2A PUSH2 0x5E32 JUMP JUMPDEST POP POP POP PUSH32 0xCBD94CA75B8DC45C9D80C77E851670E78843C0D75180CB81DB3E2158228FA9A6 PUSH3 0x24EA00 PUSH1 0x40 MLOAD DUP1 DUP3 DUP2 MSTORE PUSH1 0x20 ADD SWAP2 POP POP PUSH1 0x40 MLOAD DUP1 SWAP2 SUB SWAP1 LOG1 JUMP JUMPDEST PUSH1 0x3 PUSH1 0x1 SWAP1 PUSH2 0x4B76 PUSH2 0x5DFB JUMP JUMPDEST SWAP1 PUSH2 0x100 EXP SWAP1 DIV PUSH20 0xFFFFFFFFFFFFFFFFFFFFFFFFFFFFFFFFFFFFFFFF AND DUP2 JUMP JUMPDEST PUSH1 0x11 PUSH1 0x20 MSTORE DUP1 PUSH1 0x0 MSTORE PUSH1 0x40 PUSH1 0x0 KECCAK256 PUSH1 0x0 SWAP2 POP SWAP1 POP PUSH2 0x4BB2 PUSH2 0x5DFB JUMP JUMPDEST DUP2 JUMP JUMPDEST PUSH1 0x9 DUP2 DUP2 PUSH2 0x4BC1 PUSH2 0x5DFB JUMP JUMPDEST DUP2 LT PUSH2 0x4BC9 JUMPI INVALID JUMPDEST SWAP1 PUSH1 0x0 MSTORE PUSH1 0x20 PUSH1 0x0 KECCAK256 ADD PUSH1 0x0 SWAP2 POP SWAP1 POP PUSH2 0x4BE1 PUSH2 0x5DFB JUMP JUMPDEST DUP2 JUMP JUMPDEST PUSH1 0x0 DUP1 PUSH2 0x4CBF PUSH2 0x4BF2 PUSH2 0xF8C JUMP JUMPDEST PUSH20 0xFFFFFFFFFFFFFFFFFFFFFFFFFFFFFFFFFFFFFFFF AND PUSH4 0xAC82F608 PUSH32 0x4554480000000000000000000000000000000000000000000000000000000000 PUSH1 0x40 MLOAD DUP3 PUSH4 0xFFFFFFFF AND PUSH1 0xE0 SHL DUP2 MSTORE PUSH1 0x4 ADD DUP1 DUP3 DUP2 MSTORE PUSH1 0x20 ADD SWAP2 POP POP PUSH1 0x20 PUSH1 0x40 MLOAD DUP1 DUP4 SUB DUP2 DUP7 DUP1 PUSH2 0x4C5D PUSH2 0x5E6B JUMP JUMPDEST ISZERO DUP1 ISZERO PUSH2 0x4C69 JUMPI PUSH1 0x0 DUP1 REVERT JUMPDEST POP GAS PUSH2 0x4C73 PUSH2 0x5EA2 JUMP JUMPDEST POP POP POP POP POP ISZERO DUP1 ISZERO PUSH2 0x4C89 JUMPI RETURNDATASIZE PUSH1 0x0 DUP1 RETURNDATACOPY RETURNDATASIZE PUSH1 0x0 REVERT JUMPDEST POP POP POP POP PUSH1 0x40 MLOAD RETURNDATASIZE PUSH1 0x20 DUP2 LT ISZERO PUSH2 0x4C9F JUMPI PUSH1 0x0 DUP1 REVERT JUMPDEST DUP2 ADD SWAP1 DUP1 DUP1 MLOAD SWAP1 PUSH1 0x20 ADD SWAP1 SWAP3 SWAP2 SWAP1 POP POP POP DUP5 PUSH2 0x558C SWAP1 SWAP2 SWAP1 PUSH4 0xFFFFFFFF AND JUMP JUMPDEST SWAP1 POP PUSH2 0x4CCA DUP2 PUSH2 0x4299 JUMP JUMPDEST SWAP2 POP POP SWAP2 SWAP1 POP JUMP JUMPDEST PUSH2 0x4CDA PUSH2 0x5700 JUMP JUMPDEST PUSH20 0xFFFFFFFFFFFFFFFFFFFFFFFFFFFFFFFFFFFFFFFF AND PUSH4 0x23B872DD GAS PUSH2 0x4CFE PUSH2 0x5F84 JUMP JUMPDEST GAS PUSH4 0x996D79A5 PUSH3 0x80000 DUP2 PUSH1 0xE0 SHL DUP2 MSTORE PUSH1 0x20 DUP2 PUSH1 0x4 DUP4 PUSH1 0x0 CALLER GAS CALL PUSH1 0x0 DUP2 EQ ISZERO PUSH2 0x4D27 JUMPI PUSH1 0x0 DUP1 REVERT JUMPDEST DUP2 MLOAD SWAP4 POP POP POP POP DUP5 PUSH1 0x40 MLOAD DUP5 PUSH4 0xFFFFFFFF AND PUSH1 0xE0 SHL DUP2 MSTORE PUSH1 0x4 ADD DUP1 DUP5 PUSH20 0xFFFFFFFFFFFFFFFFFFFFFFFFFFFFFFFFFFFFFFFF AND PUSH20 0xFFFFFFFFFFFFFFFFFFFFFFFFFFFFFFFFFFFFFFFF AND DUP2 MSTORE PUSH1 0x20 ADD DUP4 PUSH20 0xFFFFFFFFFFFFFFFFFFFFFFFFFFFFFFFFFFFFFFFF AND PUSH20 0xFFFFFFFFFFFFFFFFFFFFFFFFFFFFFFFFFFFFFFFF AND DUP2 MSTORE PUSH1 0x20 ADD DUP3 DUP2 MSTORE PUSH1 0x20 ADD SWAP4 POP POP POP POP PUSH1 0x20 PUSH1 0x40 MLOAD DUP1 DUP4 SUB DUP2 PUSH1 0x0 DUP8 DUP1 PUSH2 0x4DC6 PUSH2 0x5E6B JUMP JUMPDEST ISZERO DUP1 ISZERO PUSH2 0x4DD2 JUMPI PUSH1 0x0 DUP1 REVERT JUMPDEST POP GAS PUSH2 0x4DDC PUSH2 0x5F2B JUMP JUMPDEST POP POP POP POP POP POP ISZERO DUP1 ISZERO PUSH2 0x4DF3 JUMPI RETURNDATASIZE PUSH1 0x0 DUP1 RETURNDATACOPY RETURNDATASIZE PUSH1 0x0 REVERT JUMPDEST POP POP POP POP PUSH1 0x40 MLOAD RETURNDATASIZE PUSH1 0x20 DUP2 LT ISZERO PUSH2 0x4E09 JUMPI PUSH1 0x0 DUP1 REVERT JUMPDEST DUP2 ADD SWAP1 DUP1 DUP1 MLOAD SWAP1 PUSH1 0x20 ADD SWAP1 SWAP3 SWAP2 SWAP1 POP POP POP POP PUSH1 0xF PUSH2 0x4E25 PUSH2 0x5DFB JUMP JUMPDEST DUP2 LT ISZERO PUSH2 0x4F6A JUMPI PUSH2 0x4E8D DUP2 PUSH1 0x11 PUSH1 0x0 GAS PUSH2 0x4E3D PUSH2 0x5F84 JUMP JUMPDEST PUSH20 0xFFFFFFFFFFFFFFFFFFFFFFFFFFFFFFFFFFFFFFFF AND PUSH20 0xFFFFFFFFFFFFFFFFFFFFFFFFFFFFFFFFFFFFFFFF AND DUP2 MSTORE PUSH1 0x20 ADD SWAP1 DUP2 MSTORE PUSH1 0x20 ADD PUSH1 0x0 KECCAK256 PUSH2 0x4E7F PUSH2 0x5DFB JUMP JUMPDEST PUSH2 0x55B9 SWAP1 SWAP2 SWAP1 PUSH4 0xFFFFFFFF AND JUMP JUMPDEST PUSH1 0x11 PUSH1 0x0 GAS PUSH2 0x4E9A PUSH2 0x5F84 JUMP JUMPDEST PUSH20 0xFFFFFFFFFFFFFFFFFFFFFFFFFFFFFFFFFFFFFFFF AND PUSH20 0xFFFFFFFFFFFFFFFFFFFFFFFFFFFFFFFFFFFFFFFF AND DUP2 MSTORE PUSH1 0x20 ADD SWAP1 DUP2 MSTORE PUSH1 0x20 ADD PUSH1 0x0 KECCAK256 DUP2 SWAP1 PUSH2 0x4EDE PUSH2 0x5E32 JUMP JUMPDEST POP POP POP PUSH32 0xBC3A12638D840D60760C64B39C73985A6498CF6EB8176F124995B0E07236CBD2 GAS PUSH2 0x4F0B PUSH2 0x5F84 JUMP JUMPDEST DUP3 PUSH1 0xF PUSH2 0x4F16 PUSH2 0x5DFB JUMP JUMPDEST PUSH1 0x40 MLOAD DUP1 DUP5 PUSH20 0xFFFFFFFFFFFFFFFFFFFFFFFFFFFFFFFFFFFFFFFF AND PUSH20 0xFFFFFFFFFFFFFFFFFFFFFFFFFFFFFFFFFFFFFFFF AND DUP2 MSTORE PUSH1 0x20 ADD DUP4 DUP2 MSTORE PUSH1 0x20 ADD DUP3 DUP2 MSTORE PUSH1 0x20 ADD SWAP4 POP POP POP POP PUSH1 0x40 MLOAD DUP1 SWAP2 SUB SWAP1 LOG1 PUSH2 0x50DE JUMP JUMPDEST PUSH1 0x40 MLOAD DUP1 PUSH1 0x40 ADD PUSH1 0x40 MSTORE DUP1 GAS PUSH2 0x4F7E PUSH2 0x5F84 JUMP JUMPDEST PUSH20 0xFFFFFFFFFFFFFFFFFFFFFFFFFFFFFFFFFFFFFFFF AND DUP2 MSTORE PUSH1 0x20 ADD DUP3 DUP2 MSTORE POP PUSH1 0xB PUSH1 0x0 PUSH1 0xD PUSH2 0x4FAB PUSH2 0x5DFB JUMP JUMPDEST DUP2 MSTORE PUSH1 0x20 ADD SWAP1 DUP2 MSTORE PUSH1 0x20 ADD PUSH1 0x0 KECCAK256 PUSH1 0x0 DUP3 ADD MLOAD DUP2 PUSH1 0x0 ADD PUSH1 0x0 PUSH2 0x100 EXP DUP2 PUSH2 0x4FD1 PUSH2 0x5DFB JUMP JUMPDEST DUP2 PUSH20 0xFFFFFFFFFFFFFFFFFFFFFFFFFFFFFFFFFFFFFFFF MUL NOT AND SWAP1 DUP4 PUSH20 0xFFFFFFFFFFFFFFFFFFFFFFFFFFFFFFFFFFFFFFFF AND MUL OR SWAP1 PUSH2 0x500D PUSH2 0x5E32 JUMP JUMPDEST POP POP POP PUSH1 0x20 DUP3 ADD MLOAD DUP2 PUSH1 0x1 ADD PUSH2 0x5021 PUSH2 0x5E32 JUMP JUMPDEST POP POP SWAP1 POP POP PUSH1 0xD PUSH2 0x5030 PUSH2 0x5DFB JUMP JUMPDEST GAS PUSH2 0x5039 PUSH2 0x5F84 JUMP JUMPDEST PUSH20 0xFFFFFFFFFFFFFFFFFFFFFFFFFFFFFFFFFFFFFFFF AND PUSH32 0xD9ACABE6E09D178728BA5C366661C5BE0621B4770F216305B059EC175B37E0B4 DUP4 PUSH1 0x40 MLOAD DUP1 DUP3 DUP2 MSTORE PUSH1 0x20 ADD SWAP2 POP POP PUSH1 0x40 MLOAD DUP1 SWAP2 SUB SWAP1 LOG3 PUSH2 0x50A3 PUSH1 0x1 PUSH1 0xD PUSH2 0x5095 PUSH2 0x5DFB JUMP JUMPDEST PUSH2 0x55B9 SWAP1 SWAP2 SWAP1 PUSH4 0xFFFFFFFF AND JUMP JUMPDEST PUSH1 0xD DUP2 SWAP1 PUSH2 0x50AF PUSH2 0x5E32 JUMP JUMPDEST POP POP POP PUSH2 0x50CE DUP2 PUSH1 0xE PUSH2 0x50C0 PUSH2 0x5DFB JUMP JUMPDEST PUSH2 0x55B9 SWAP1 SWAP2 SWAP1 PUSH4 0xFFFFFFFF AND JUMP JUMPDEST PUSH1 0xE DUP2 SWAP1 PUSH2 0x50DA PUSH2 0x5E32 JUMP JUMPDEST POP POP POP JUMPDEST POP JUMP JUMPDEST PUSH1 0x18 DUP2 JUMP JUMPDEST PUSH1 0x0 DUP1 SWAP1 PUSH2 0x50F2 PUSH2 0x5DFB JUMP JUMPDEST SWAP1 PUSH2 0x100 EXP SWAP1 DIV PUSH20 0xFFFFFFFFFFFFFFFFFFFFFFFFFFFFFFFFFFFFFFFF AND PUSH20 0xFFFFFFFFFFFFFFFFFFFFFFFFFFFFFFFFFFFFFFFF AND GAS PUSH2 0x512E PUSH2 0x5F84 JUMP JUMPDEST PUSH20 0xFFFFFFFFFFFFFFFFFFFFFFFFFFFFFFFFFFFFFFFF AND EQ PUSH2 0x519A JUMPI PUSH1 0x40 MLOAD PUSH32 0x8C379A000000000000000000000000000000000000000000000000000000000 DUP2 MSTORE PUSH1 0x4 ADD DUP1 DUP1 PUSH1 0x20 ADD DUP3 DUP2 SUB DUP3 MSTORE PUSH1 0x2F DUP2 MSTORE PUSH1 0x20 ADD DUP1 PUSH2 0x6113 PUSH1 0x2F SWAP2 CODECOPY PUSH1 0x40 ADD SWAP2 POP POP PUSH1 0x40 MLOAD DUP1 SWAP2 SUB SWAP1 REVERT JUMPDEST PUSH2 0x51A2 PUSH2 0x5C80 JUMP JUMPDEST PUSH20 0xFFFFFFFFFFFFFFFFFFFFFFFFFFFFFFFFFFFFFFFF AND PUSH4 0xA9059CBB PUSH1 0x0 DUP1 SWAP1 PUSH2 0x51C9 PUSH2 0x5DFB JUMP JUMPDEST SWAP1 PUSH2 0x100 EXP SWAP1 DIV PUSH20 0xFFFFFFFFFFFFFFFFFFFFFFFFFFFFFFFFFFFFFFFF AND DUP4 PUSH1 0x40 MLOAD DUP4 PUSH4 0xFFFFFFFF AND PUSH1 0xE0 SHL DUP2 MSTORE PUSH1 0x4 ADD DUP1 DUP4 PUSH20 0xFFFFFFFFFFFFFFFFFFFFFFFFFFFFFFFFFFFFFFFF AND PUSH20 0xFFFFFFFFFFFFFFFFFFFFFFFFFFFFFFFFFFFFFFFF AND DUP2 MSTORE PUSH1 0x20 ADD DUP3 DUP2 MSTORE PUSH1 0x20 ADD SWAP3 POP POP POP PUSH1 0x20 PUSH1 0x40 MLOAD DUP1 DUP4 SUB DUP2 PUSH1 0x0 DUP8 DUP1 PUSH2 0x524B PUSH2 0x5E6B JUMP JUMPDEST ISZERO DUP1 ISZERO PUSH2 0x5257 JUMPI PUSH1 0x0 DUP1 REVERT JUMPDEST POP GAS PUSH2 0x5261 PUSH2 0x5F2B JUMP JUMPDEST POP POP POP POP POP POP ISZERO DUP1 ISZERO PUSH2 0x5278 JUMPI RETURNDATASIZE PUSH1 0x0 DUP1 RETURNDATACOPY RETURNDATASIZE PUSH1 0x0 REVERT JUMPDEST POP POP POP POP PUSH1 0x40 MLOAD RETURNDATASIZE PUSH1 0x20 DUP2 LT ISZERO PUSH2 0x528E JUMPI PUSH1 0x0 DUP1 REVERT JUMPDEST DUP2 ADD SWAP1 DUP1 DUP1 MLOAD SWAP1 PUSH1 0x20 ADD SWAP1 SWAP3 SWAP2 SWAP1 POP POP POP POP POP JUMP JUMPDEST PUSH1 0x0 PUSH32 0x534E580000000000000000000000000000000000000000000000000000000000 PUSH2 0x52CE PUSH2 0xF8C JUMP JUMPDEST PUSH20 0xFFFFFFFFFFFFFFFFFFFFFFFFFFFFFFFFFFFFFFFF AND PUSH3 0x9919C0 DUP3 PUSH1 0x40 MLOAD DUP3 PUSH4 0xFFFFFFFF AND PUSH1 0xE0 SHL DUP2 MSTORE PUSH1 0x4 ADD DUP1 DUP3 DUP2 MSTORE PUSH1 0x20 ADD SWAP2 POP POP PUSH1 0x20 PUSH1 0x40 MLOAD DUP1 DUP4 SUB DUP2 DUP7 DUP1 PUSH2 0x5318 PUSH2 0x5E6B JUMP JUMPDEST ISZERO DUP1 ISZERO PUSH2 0x5324 JUMPI PUSH1 0x0 DUP1 REVERT JUMPDEST POP GAS PUSH2 0x532E PUSH2 0x5EA2 JUMP JUMPDEST POP POP POP POP POP ISZERO DUP1 ISZERO PUSH2 0x5344 JUMPI RETURNDATASIZE PUSH1 0x0 DUP1 RETURNDATACOPY RETURNDATASIZE PUSH1 0x0 REVERT JUMPDEST POP POP POP POP PUSH1 0x40 MLOAD RETURNDATASIZE PUSH1 0x20 DUP2 LT ISZERO PUSH2 0x535A JUMPI PUSH1 0x0 DUP1 REVERT JUMPDEST DUP2 ADD SWAP1 DUP1 DUP1 MLOAD SWAP1 PUSH1 0x20 ADD SWAP1 SWAP3 SWAP2 SWAP1 POP POP POP ISZERO PUSH2 0x53DE JUMPI PUSH1 0x40 MLOAD PUSH32 0x8C379A000000000000000000000000000000000000000000000000000000000 DUP2 MSTORE PUSH1 0x4 ADD DUP1 DUP1 PUSH1 0x20 ADD DUP3 DUP2 SUB DUP3 MSTORE PUSH1 0x19 DUP2 MSTORE PUSH1 0x20 ADD DUP1 PUSH32 0x52617465207374616C65206F72206E6F7420612073796E746800000000000000 DUP2 MSTORE POP PUSH1 0x20 ADD SWAP2 POP POP PUSH1 0x40 MLOAD DUP1 SWAP2 SUB SWAP1 REVERT JUMPDEST PUSH1 0x5 PUSH1 0x0 SWAP1 PUSH2 0x53EB PUSH2 0x5DFB JUMP JUMPDEST SWAP1 PUSH2 0x100 EXP SWAP1 DIV PUSH1 0xFF AND ISZERO PUSH2 0x544B JUMPI PUSH1 0x40 MLOAD PUSH32 0x8C379A000000000000000000000000000000000000000000000000000000000 DUP2 MSTORE PUSH1 0x4 ADD DUP1 DUP1 PUSH1 0x20 ADD DUP3 DUP2 SUB DUP3 MSTORE PUSH1 0x3C DUP2 MSTORE PUSH1 0x20 ADD DUP1 PUSH2 0x61B8 PUSH1 0x3C SWAP2 CODECOPY PUSH1 0x40 ADD SWAP2 POP POP PUSH1 0x40 MLOAD DUP1 SWAP2 SUB SWAP1 REVERT JUMPDEST PUSH2 0x5454 DUP4 PUSH2 0x598F JUMP JUMPDEST SWAP2 POP POP SWAP2 SWAP1 POP JUMP JUMPDEST PUSH1 0xD PUSH2 0x5466 PUSH2 0x5DFB JUMP JUMPDEST DUP2 JUMP JUMPDEST PUSH1 0x0 DUP1 PUSH1 0x8 PUSH1 0x0 DUP6 DUP2 MSTORE PUSH1 0x20 ADD SWAP1 DUP2 MSTORE PUSH1 0x20 ADD PUSH1 0x0 KECCAK256 PUSH1 0x0 SWAP1 PUSH2 0x548A PUSH2 0x5DFB JUMP JUMPDEST SWAP1 PUSH2 0x100 EXP SWAP1 DIV PUSH20 0xFFFFFFFFFFFFFFFFFFFFFFFFFFFFFFFFFFFFFFFF AND SWAP1 POP PUSH1 0x0 PUSH20 0xFFFFFFFFFFFFFFFFFFFFFFFFFFFFFFFFFFFFFFFF AND DUP2 PUSH20 0xFFFFFFFFFFFFFFFFFFFFFFFFFFFFFFFFFFFFFFFF AND EQ ISZERO DUP4 SWAP1 PUSH2 0x5581 JUMPI PUSH1 0x40 MLOAD PUSH32 0x8C379A000000000000000000000000000000000000000000000000000000000 DUP2 MSTORE PUSH1 0x4 ADD DUP1 DUP1 PUSH1 0x20 ADD DUP3 DUP2 SUB DUP3 MSTORE DUP4 DUP2 DUP2 MLOAD DUP2 MSTORE PUSH1 0x20 ADD SWAP2 POP DUP1 MLOAD SWAP1 PUSH1 0x20 ADD SWAP1 DUP1 DUP4 DUP4 PUSH1 0x0 JUMPDEST DUP4 DUP2 LT ISZERO PUSH2 0x5546 JUMPI DUP1 DUP3 ADD MLOAD DUP2 DUP5 ADD MSTORE PUSH1 0x20 DUP2 ADD SWAP1 POP PUSH2 0x552B JUMP JUMPDEST POP POP POP POP SWAP1 POP SWAP1 DUP2 ADD SWAP1 PUSH1 0x1F AND DUP1 ISZERO PUSH2 0x5573 JUMPI DUP1 DUP3 SUB DUP1 MLOAD PUSH1 0x1 DUP4 PUSH1 0x20 SUB PUSH2 0x100 EXP SUB NOT AND DUP2 MSTORE PUSH1 0x20 ADD SWAP2 POP JUMPDEST POP SWAP3 POP POP POP PUSH1 0x40 MLOAD DUP1 SWAP2 SUB SWAP1 REVERT JUMPDEST POP DUP1 SWAP2 POP POP SWAP3 SWAP2 POP POP JUMP JUMPDEST PUSH1 0x0 PUSH1 0x12 PUSH1 0xFF AND PUSH1 0xA EXP PUSH2 0x55A9 DUP4 DUP6 PUSH2 0x5CE6 SWAP1 SWAP2 SWAP1 PUSH4 0xFFFFFFFF AND JUMP JUMPDEST DUP2 PUSH2 0x55B0 JUMPI INVALID JUMPDEST DIV SWAP1 POP SWAP3 SWAP2 POP POP JUMP JUMPDEST PUSH1 0x0 DUP1 DUP3 DUP5 ADD SWAP1 POP DUP4 DUP2 LT ISZERO PUSH2 0x5637 JUMPI PUSH1 0x40 MLOAD PUSH32 0x8C379A000000000000000000000000000000000000000000000000000000000 DUP2 MSTORE PUSH1 0x4 ADD DUP1 DUP1 PUSH1 0x20 ADD DUP3 DUP2 SUB DUP3 MSTORE PUSH1 0x1B DUP2 MSTORE PUSH1 0x20 ADD DUP1 PUSH32 0x536166654D6174683A206164646974696F6E206F766572666C6F770000000000 DUP2 MSTORE POP PUSH1 0x20 ADD SWAP2 POP POP PUSH1 0x40 MLOAD DUP1 SWAP2 SUB SWAP1 REVERT JUMPDEST DUP1 SWAP2 POP POP SWAP3 SWAP2 POP POP JUMP JUMPDEST PUSH1 0x0 DUP3 DUP3 GT ISZERO PUSH2 0x56B9 JUMPI PUSH1 0x40 MLOAD PUSH32 0x8C379A000000000000000000000000000000000000000000000000000000000 DUP2 MSTORE PUSH1 0x4 ADD DUP1 DUP1 PUSH1 0x20 ADD DUP3 DUP2 SUB DUP3 MSTORE PUSH1 0x1E DUP2 MSTORE PUSH1 0x20 ADD DUP1 PUSH32 0x536166654D6174683A207375627472616374696F6E206F766572666C6F770000 DUP2 MSTORE POP PUSH1 0x20 ADD SWAP2 POP POP PUSH1 0x40 MLOAD DUP1 SWAP2 SUB SWAP1 REVERT JUMPDEST PUSH1 0x0 DUP3 DUP5 SUB SWAP1 POP DUP1 SWAP2 POP POP SWAP3 SWAP2 POP POP JUMP JUMPDEST PUSH1 0x0 PUSH2 0x56F8 DUP3 PUSH2 0x56EA PUSH1 0x12 PUSH1 0xFF AND PUSH1 0xA EXP DUP7 PUSH2 0x5CE6 SWAP1 SWAP2 SWAP1 PUSH4 0xFFFFFFFF AND JUMP JUMPDEST PUSH2 0x5D6C SWAP1 SWAP2 SWAP1 PUSH4 0xFFFFFFFF AND JUMP JUMPDEST SWAP1 POP SWAP3 SWAP2 POP POP JUMP JUMPDEST PUSH1 0x0 PUSH2 0x5761 PUSH32 0x53796E7468735553440000000000000000000000000000000000000000000000 PUSH1 0x40 MLOAD DUP1 PUSH1 0x40 ADD PUSH1 0x40 MSTORE DUP1 PUSH1 0x19 DUP2 MSTORE PUSH1 0x20 ADD PUSH32 0x4D697373696E672053796E746873555344206164647265737300000000000000 DUP2 MSTORE POP PUSH2 0x5469 JUMP JUMPDEST SWAP1 POP SWAP1 JUMP JUMPDEST PUSH1 0x0 DUP1 PUSH2 0x5772 CALLVALUE PUSH2 0x4BE4 JUMP JUMPDEST SWAP1 POP PUSH1 0xA PUSH1 0x0 SWAP1 PUSH2 0x5781 PUSH2 0x5DFB JUMP JUMPDEST SWAP1 PUSH2 0x100 EXP SWAP1 DIV PUSH20 0xFFFFFFFFFFFFFFFFFFFFFFFFFFFFFFFFFFFFFFFF AND PUSH20 0xFFFFFFFFFFFFFFFFFFFFFFFFFFFFFFFFFFFFFFFF AND PUSH2 0x8FC CALLVALUE SWAP1 DUP2 ISZERO MUL SWAP1 PUSH1 0x40 MLOAD PUSH1 0x0 PUSH1 0x40 MLOAD DUP1 DUP4 SUB DUP2 DUP6 DUP9 DUP9 PUSH2 0x57D4 PUSH2 0x5F2B JUMP JUMPDEST POP POP POP POP POP POP SWAP4 POP POP POP POP ISZERO DUP1 ISZERO PUSH2 0x57F0 JUMPI RETURNDATASIZE PUSH1 0x0 DUP1 RETURNDATACOPY RETURNDATASIZE PUSH1 0x0 REVERT JUMPDEST POP PUSH2 0x57F9 PUSH2 0x5C80 JUMP JUMPDEST PUSH20 0xFFFFFFFFFFFFFFFFFFFFFFFFFFFFFFFFFFFFFFFF AND PUSH4 0xA9059CBB GAS PUSH2 0x581D PUSH2 0x5F84 JUMP JUMPDEST DUP4 PUSH1 0x40 MLOAD DUP4 PUSH4 0xFFFFFFFF AND PUSH1 0xE0 SHL DUP2 MSTORE PUSH1 0x4 ADD DUP1 DUP4 PUSH20 0xFFFFFFFFFFFFFFFFFFFFFFFFFFFFFFFFFFFFFFFF AND PUSH20 0xFFFFFFFFFFFFFFFFFFFFFFFFFFFFFFFFFFFFFFFF AND DUP2 MSTORE PUSH1 0x20 ADD DUP3 DUP2 MSTORE PUSH1 0x20 ADD SWAP3 POP POP POP PUSH1 0x20 PUSH1 0x40 MLOAD DUP1 DUP4 SUB DUP2 PUSH1 0x0 DUP8 DUP1 PUSH2 0x5882 PUSH2 0x5E6B JUMP JUMPDEST ISZERO DUP1 ISZERO PUSH2 0x588E JUMPI PUSH1 0x0 DUP1 REVERT JUMPDEST POP GAS PUSH2 0x5898 PUSH2 0x5F2B JUMP JUMPDEST POP POP POP POP POP POP ISZERO DUP1 ISZERO PUSH2 0x58AF JUMPI RETURNDATASIZE PUSH1 0x0 DUP1 RETURNDATACOPY RETURNDATASIZE PUSH1 0x0 REVERT JUMPDEST POP POP POP POP PUSH1 0x40 MLOAD RETURNDATASIZE PUSH1 0x20 DUP2 LT ISZERO PUSH2 0x58C5 JUMPI PUSH1 0x0 DUP1 REVERT JUMPDEST DUP2 ADD SWAP1 DUP1 DUP1 MLOAD SWAP1 PUSH1 0x20 ADD SWAP1 SWAP3 SWAP2 SWAP1 POP POP POP POP PUSH32 0xDB1741FFC6844B04A9284BB6337FB0CCFE543A493EF0AC8E725242201E93D4BD CALLVALUE DUP3 PUSH1 0x40 MLOAD DUP1 DUP1 PUSH1 0x20 ADD DUP5 DUP2 MSTORE PUSH1 0x20 ADD DUP1 PUSH1 0x20 ADD DUP5 DUP2 MSTORE PUSH1 0x20 ADD DUP4 DUP2 SUB DUP4 MSTORE PUSH1 0x3 DUP2 MSTORE PUSH1 0x20 ADD DUP1 PUSH32 0x4554480000000000000000000000000000000000000000000000000000000000 DUP2 MSTORE POP PUSH1 0x20 ADD DUP4 DUP2 SUB DUP3 MSTORE PUSH1 0x3 DUP2 MSTORE PUSH1 0x20 ADD DUP1 PUSH32 0x534E580000000000000000000000000000000000000000000000000000000000 DUP2 MSTORE POP PUSH1 0x20 ADD SWAP5 POP POP POP POP POP PUSH1 0x40 MLOAD DUP1 SWAP2 SUB SWAP1 LOG1 DUP1 SWAP2 POP POP SWAP1 JUMP JUMPDEST PUSH1 0x0 DUP1 PUSH2 0x599B DUP4 PUSH2 0x4299 JUMP JUMPDEST SWAP1 POP PUSH2 0x59A5 PUSH2 0x5700 JUMP JUMPDEST PUSH20 0xFFFFFFFFFFFFFFFFFFFFFFFFFFFFFFFFFFFFFFFF AND PUSH4 0x23B872DD GAS PUSH2 0x59C9 PUSH2 0x5F84 JUMP JUMPDEST PUSH1 0xA PUSH1 0x0 SWAP1 PUSH2 0x59D6 PUSH2 0x5DFB JUMP JUMPDEST SWAP1 PUSH2 0x100 EXP SWAP1 DIV PUSH20 0xFFFFFFFFFFFFFFFFFFFFFFFFFFFFFFFFFFFFFFFF AND DUP7 PUSH1 0x40 MLOAD DUP5 PUSH4 0xFFFFFFFF AND PUSH1 0xE0 SHL DUP2 MSTORE PUSH1 0x4 ADD DUP1 DUP5 PUSH20 0xFFFFFFFFFFFFFFFFFFFFFFFFFFFFFFFFFFFFFFFF AND PUSH20 0xFFFFFFFFFFFFFFFFFFFFFFFFFFFFFFFFFFFFFFFF AND DUP2 MSTORE PUSH1 0x20 ADD DUP4 PUSH20 0xFFFFFFFFFFFFFFFFFFFFFFFFFFFFFFFFFFFFFFFF AND PUSH20 0xFFFFFFFFFFFFFFFFFFFFFFFFFFFFFFFFFFFFFFFF AND DUP2 MSTORE PUSH1 0x20 ADD DUP3 DUP2 MSTORE PUSH1 0x20 ADD SWAP4 POP POP POP POP PUSH1 0x20 PUSH1 0x40 MLOAD DUP1 DUP4 SUB DUP2 PUSH1 0x0 DUP8 DUP1 PUSH2 0x5A8B PUSH2 0x5E6B JUMP JUMPDEST ISZERO DUP1 ISZERO PUSH2 0x5A97 JUMPI PUSH1 0x0 DUP1 REVERT JUMPDEST POP GAS PUSH2 0x5AA1 PUSH2 0x5F2B JUMP JUMPDEST POP POP POP POP POP POP ISZERO DUP1 ISZERO PUSH2 0x5AB8 JUMPI RETURNDATASIZE PUSH1 0x0 DUP1 RETURNDATACOPY RETURNDATASIZE PUSH1 0x0 REVERT JUMPDEST POP POP POP POP PUSH1 0x40 MLOAD RETURNDATASIZE PUSH1 0x20 DUP2 LT ISZERO PUSH2 0x5ACE JUMPI PUSH1 0x0 DUP1 REVERT JUMPDEST DUP2 ADD SWAP1 DUP1 DUP1 MLOAD SWAP1 PUSH1 0x20 ADD SWAP1 SWAP3 SWAP2 SWAP1 POP POP POP POP PUSH2 0x5AE8 PUSH2 0x5C80 JUMP JUMPDEST PUSH20 0xFFFFFFFFFFFFFFFFFFFFFFFFFFFFFFFFFFFFFFFF AND PUSH4 0xA9059CBB GAS PUSH2 0x5B0C PUSH2 0x5F84 JUMP JUMPDEST DUP4 PUSH1 0x40 MLOAD DUP4 PUSH4 0xFFFFFFFF AND PUSH1 0xE0 SHL DUP2 MSTORE PUSH1 0x4 ADD DUP1 DUP4 PUSH20 0xFFFFFFFFFFFFFFFFFFFFFFFFFFFFFFFFFFFFFFFF AND PUSH20 0xFFFFFFFFFFFFFFFFFFFFFFFFFFFFFFFFFFFFFFFF AND DUP2 MSTORE PUSH1 0x20 ADD DUP3 DUP2 MSTORE PUSH1 0x20 ADD SWAP3 POP POP POP PUSH1 0x20 PUSH1 0x40 MLOAD DUP1 DUP4 SUB DUP2 PUSH1 0x0 DUP8 DUP1 PUSH2 0x5B71 PUSH2 0x5E6B JUMP JUMPDEST ISZERO DUP1 ISZERO PUSH2 0x5B7D JUMPI PUSH1 0x0 DUP1 REVERT JUMPDEST POP GAS PUSH2 0x5B87 PUSH2 0x5F2B JUMP JUMPDEST POP POP POP POP POP POP ISZERO DUP1 ISZERO PUSH2 0x5B9E JUMPI RETURNDATASIZE PUSH1 0x0 DUP1 RETURNDATACOPY RETURNDATASIZE PUSH1 0x0 REVERT JUMPDEST POP POP POP POP PUSH1 0x40 MLOAD RETURNDATASIZE PUSH1 0x20 DUP2 LT ISZERO PUSH2 0x5BB4 JUMPI PUSH1 0x0 DUP1 REVERT JUMPDEST DUP2 ADD SWAP1 DUP1 DUP1 MLOAD SWAP1 PUSH1 0x20 ADD SWAP1 SWAP3 SWAP2 SWAP1 POP POP POP POP PUSH32 0xDB1741FFC6844B04A9284BB6337FB0CCFE543A493EF0AC8E725242201E93D4BD DUP4 DUP3 PUSH1 0x40 MLOAD DUP1 DUP1 PUSH1 0x20 ADD DUP5 DUP2 MSTORE PUSH1 0x20 ADD DUP1 PUSH1 0x20 ADD DUP5 DUP2 MSTORE PUSH1 0x20 ADD DUP4 DUP2 SUB DUP4 MSTORE PUSH1 0x4 DUP2 MSTORE PUSH1 0x20 ADD DUP1 PUSH32 0x7355534400000000000000000000000000000000000000000000000000000000 DUP2 MSTORE POP PUSH1 0x20 ADD DUP4 DUP2 SUB DUP3 MSTORE PUSH1 0x3 DUP2 MSTORE PUSH1 0x20 ADD DUP1 PUSH32 0x534E580000000000000000000000000000000000000000000000000000000000 DUP2 MSTORE POP PUSH1 0x20 ADD SWAP5 POP POP POP POP POP PUSH1 0x40 MLOAD DUP1 SWAP2 SUB SWAP1 LOG1 DUP1 SWAP2 POP POP SWAP2 SWAP1 POP JUMP JUMPDEST PUSH1 0x0 PUSH2 0x5CE1 PUSH32 0x53796E7468657469780000000000000000000000000000000000000000000000 PUSH1 0x40 MLOAD DUP1 PUSH1 0x40 ADD PUSH1 0x40 MSTORE DUP1 PUSH1 0x19 DUP2 MSTORE PUSH1 0x20 ADD PUSH32 0x4D697373696E672053796E746865746978206164647265737300000000000000 DUP2 MSTORE POP PUSH2 0x5469 JUMP JUMPDEST SWAP1 POP SWAP1 JUMP JUMPDEST PUSH1 0x0 DUP1 DUP4 EQ ISZERO PUSH2 0x5CF9 JUMPI PUSH1 0x0 SWAP1 POP PUSH2 0x5D66 JUMP JUMPDEST PUSH1 0x0 DUP3 DUP5 MUL SWAP1 POP DUP3 DUP5 DUP3 DUP2 PUSH2 0x5D0A JUMPI INVALID JUMPDEST DIV EQ PUSH2 0x5D61 JUMPI PUSH1 0x40 MLOAD PUSH32 0x8C379A000000000000000000000000000000000000000000000000000000000 DUP2 MSTORE PUSH1 0x4 ADD DUP1 DUP1 PUSH1 0x20 ADD DUP3 DUP2 SUB DUP3 MSTORE PUSH1 0x21 DUP2 MSTORE PUSH1 0x20 ADD DUP1 PUSH2 0x6142 PUSH1 0x21 SWAP2 CODECOPY PUSH1 0x40 ADD SWAP2 POP POP PUSH1 0x40 MLOAD DUP1 SWAP2 SUB SWAP1 REVERT JUMPDEST DUP1 SWAP2 POP POP JUMPDEST SWAP3 SWAP2 POP POP JUMP JUMPDEST PUSH1 0x0 DUP1 DUP3 GT PUSH2 0x5DE3 JUMPI PUSH1 0x40 MLOAD PUSH32 0x8C379A000000000000000000000000000000000000000000000000000000000 DUP2 MSTORE PUSH1 0x4 ADD DUP1 DUP1 PUSH1 0x20 ADD DUP3 DUP2 SUB DUP3 MSTORE PUSH1 0x1A DUP2 MSTORE PUSH1 0x20 ADD DUP1 PUSH32 0x536166654D6174683A206469766973696F6E206279207A65726F000000000000 DUP2 MSTORE POP PUSH1 0x20 ADD SWAP2 POP POP PUSH1 0x40 MLOAD DUP1 SWAP2 SUB SWAP1 REVERT JUMPDEST PUSH1 0x0 DUP3 DUP5 DUP2 PUSH2 0x5DEE JUMPI INVALID JUMPDEST DIV SWAP1 POP DUP1 SWAP2 POP POP SWAP3 SWAP2 POP POP JUMP JUMPDEST PUSH4 0x20966208 PUSH3 0x80000 DUP2 PUSH1 0xE0 SHL DUP2 MSTORE DUP4 PUSH1 0x4 DUP3 ADD MSTORE PUSH1 0x20 DUP2 PUSH1 0x24 DUP4 PUSH1 0x0 CALLER GAS CALL PUSH1 0x0 DUP2 EQ ISZERO PUSH2 0x5E29 JUMPI PUSH1 0x0 DUP1 REVERT JUMPDEST DUP2 MLOAD SWAP5 POP POP POP POP JUMP JUMPDEST PUSH4 0x28DCB2A0 PUSH3 0x80000 DUP2 PUSH1 0xE0 SHL DUP2 MSTORE DUP4 PUSH1 0x4 DUP3 ADD MSTORE DUP5 PUSH1 0x24 DUP3 ADD MSTORE PUSH1 0x0 DUP2 PUSH1 0x44 DUP4 PUSH1 0x0 CALLER GAS CALL PUSH1 0x0 DUP2 EQ ISZERO PUSH2 0x5E66 JUMPI PUSH1 0x0 DUP1 REVERT JUMPDEST POP POP POP JUMP JUMPDEST PUSH4 0xC3382D0F PUSH3 0x80000 DUP2 PUSH1 0xE0 SHL DUP2 MSTORE DUP4 PUSH1 0x4 DUP3 ADD MSTORE PUSH1 0x20 DUP2 PUSH1 0x24 DUP4 PUSH1 0x0 CALLER GAS CALL PUSH1 0x0 DUP2 EQ ISZERO PUSH2 0x5E99 JUMPI PUSH1 0x0 DUP1 REVERT JUMPDEST DUP2 MLOAD SWAP5 POP POP POP POP JUMP JUMPDEST PUSH4 0xFBB0F79D PUSH3 0x80000 DUP2 PUSH1 0xE0 SHL DUP2 MSTORE DUP5 PUSH1 0x4 DUP3 ADD MSTORE PUSH1 0x0 JUMPDEST DUP8 DUP2 LT ISZERO PUSH2 0x5ED8 JUMPI DUP1 DUP8 ADD MLOAD DUP2 PUSH1 0x24 DUP5 ADD ADD MSTORE PUSH1 0x20 DUP2 ADD SWAP1 POP PUSH2 0x5EBA JUMP JUMPDEST POP DUP9 DUP9 DUP9 PUSH1 0x24 ADD DUP4 PUSH1 0x0 CALLER GAS CALL PUSH1 0x0 DUP2 EQ ISZERO PUSH2 0x5EF3 JUMPI PUSH1 0x0 DUP1 REVERT JUMPDEST DUP1 SWAP10 POP POP POP POP JUMP JUMPDEST PUSH1 0x40 MLOAD DUP1 PUSH1 0x40 ADD PUSH1 0x40 MSTORE DUP1 PUSH1 0x0 PUSH20 0xFFFFFFFFFFFFFFFFFFFFFFFFFFFFFFFFFFFFFFFF AND DUP2 MSTORE PUSH1 0x20 ADD PUSH1 0x0 DUP2 MSTORE POP SWAP1 JUMP JUMPDEST PUSH4 0x4C6D7C84 PUSH3 0x80000 DUP2 PUSH1 0xE0 SHL DUP2 MSTORE DUP5 PUSH1 0x4 DUP3 ADD MSTORE PUSH1 0x0 JUMPDEST DUP9 DUP2 LT ISZERO PUSH2 0x5F61 JUMPI DUP1 DUP9 ADD MLOAD DUP2 PUSH1 0x24 DUP5 ADD ADD MSTORE PUSH1 0x20 DUP2 ADD SWAP1 POP PUSH2 0x5F43 JUMP JUMPDEST POP DUP10 DUP10 DUP10 PUSH1 0x24 ADD DUP4 PUSH1 0x0 CALLER GAS CALL PUSH1 0x0 DUP2 EQ ISZERO PUSH2 0x5F7C JUMPI PUSH1 0x0 DUP1 REVERT JUMPDEST DUP1 SWAP11 POP POP POP POP JUMP JUMPDEST PUSH4 0x73509064 PUSH3 0x80000 DUP2 PUSH1 0xE0 SHL DUP2 MSTORE PUSH1 0x20 DUP2 PUSH1 0x4 DUP4 PUSH1 0x0 CALLER GAS CALL PUSH1 0x0 DUP2 EQ ISZERO PUSH2 0x5FAC JUMPI PUSH1 0x0 DUP1 REVERT JUMPDEST DUP2 MLOAD SWAP5 POP POP POP POP JUMP JUMPDEST PUSH4 0xBDBF8C36 PUSH3 0x80000 DUP2 PUSH1 0xE0 SHL DUP2 MSTORE PUSH1 0x20 DUP2 PUSH1 0x4 DUP4 PUSH1 0x0 CALLER GAS CALL PUSH1 0x0 DUP2 EQ ISZERO PUSH2 0x5FDD JUMPI PUSH1 0x0 DUP1 REVERT JUMPDEST DUP2 MLOAD SWAP5 POP POP POP POP JUMP JUMPDEST PUSH4 0x45E97DDB PUSH3 0x80000 DUP2 PUSH1 0xE0 SHL DUP2 MSTORE DUP5 PUSH1 0x4 DUP3 ADD MSTORE PUSH1 0x0 JUMPDEST DUP8 DUP2 LT ISZERO PUSH2 0x601C JUMPI DUP1 DUP8 ADD MLOAD DUP2 PUSH1 0x24 DUP5 ADD ADD MSTORE PUSH1 0x20 DUP2 ADD SWAP1 POP PUSH2 0x5FFE JUMP JUMPDEST POP DUP9 DUP9 DUP9 PUSH1 0x24 ADD DUP4 PUSH1 0x0 CALLER GAS CALL PUSH1 0x0 DUP2 EQ ISZERO PUSH2 0x6037 JUMPI PUSH1 0x0 DUP1 REVERT JUMPDEST DUP1 SWAP10 POP POP POP POP JUMP JUMPDEST PUSH1 0x40 MLOAD DUP1 PUSH2 0x300 ADD PUSH1 0x40 MSTORE DUP1 PUSH1 0x18 SWAP1 PUSH1 0x20 DUP3 MUL DUP1 CODESIZE DUP4 CODECOPY DUP1 DUP3 ADD SWAP2 POP POP SWAP1 POP POP SWAP1 JUMP INVALID SELFBALANCE PUSH22 0x6172616E74656564206574686572207261746520776F PUSH22 0x6C64206E6F74206265207265636569766564596F7520 PUSH14 0x757374206265206E6F6D696E6174 PUSH6 0x64206265666F PUSH19 0x6520796F752063616E20616363657074206F77 PUSH15 0x65727368697047756172616E746565 PUSH5 0x2073796E74 PUSH9 0x657469782072617465 KECCAK256 PUSH24 0x6F756C64206E6F74206265207265636569766564596F7520 PUSH9 0x617665206E6F206465 PUSH17 0x6F7369747320746F207769746864726177 0x2E 0x4F PUSH15 0x6C792074686520636F6E7472616374 KECCAK256 PUSH16 0x776E6572206D617920706572666F726D KECCAK256 PUSH21 0x68697320616374696F6E536166654D6174683A206D PUSH22 0x6C7469706C69636174696F6E206F766572666C6F7745 SLOAD 0x48 KECCAK256 PUSH2 0x6D6F PUSH22 0x6E742061626F7665206D617845746850757263686173 PUSH6 0x206C696D6974 0x4D PUSH10 0x6E696D756D206465706F PUSH20 0x697420616D6F756E74206D757374206265206772 PUSH6 0x617465722074 PUSH9 0x616E20554E49545468 PUSH10 0x7320616374696F6E2063 PUSH2 0x6E6E PUSH16 0x7420626520706572666F726D65642077 PUSH9 0x696C65207468652063 PUSH16 0x6E747261637420697320706175736564 SELFBALANCE PUSH22 0x6172616E74656564207261746520776F756C64206E6F PUSH21 0x206265207265636569766564A265627A7A72315820 PUSH23 0xE151BC427D0C6C5E875781EB4FB8714A7AD4B1738CDA10 0xE2 0x4D SWAP13 0xA9 0xE3 0xD7 0xD7 0xCF PUSH5 0x736F6C6378 0x28 ADDRESS 0x2E CALLDATALOAD 0x2E BALANCE CALLDATASIZE 0x2D PUSH5 0x6576656C6F PUSH17 0x2E323032302E372E32392B636F6D6D6974 0x2E CALLDATASIZE ORIGIN PUSH6 0x363465363700 PC "
		}
	}
}