{
	"abi": [
		{
			"inputs": [
				{
					"internalType": "address",
					"name": "_owner",
					"type": "address"
				},
				{
					"internalType": "address",
					"name": "_resolver",
					"type": "address"
				}
			],
			"payable": false,
			"stateMutability": "nonpayable",
			"type": "constructor"
		},
		{
			"anonymous": false,
			"inputs": [
				{
					"indexed": false,
					"internalType": "uint256",
					"name": "loanLimit",
					"type": "uint256"
				}
			],
			"name": "AccountLoanLimitUpdated",
			"type": "event"
		},
		{
			"anonymous": false,
			"inputs": [
				{
					"indexed": false,
					"internalType": "uint256",
					"name": "ratio",
					"type": "uint256"
				}
			],
			"name": "CollateralizationRatioUpdated",
			"type": "event"
		},
		{
			"anonymous": false,
			"inputs": [
				{
					"indexed": false,
					"internalType": "uint256",
					"name": "interestRate",
					"type": "uint256"
				}
			],
			"name": "InterestRateUpdated",
			"type": "event"
		},
		{
			"anonymous": false,
			"inputs": [
				{
					"indexed": false,
					"internalType": "uint256",
					"name": "issueFeeRate",
					"type": "uint256"
				}
			],
			"name": "IssueFeeRateUpdated",
			"type": "event"
		},
		{
			"anonymous": false,
			"inputs": [
				{
					"indexed": false,
					"internalType": "uint256",
					"name": "issueLimit",
					"type": "uint256"
				}
			],
			"name": "IssueLimitUpdated",
			"type": "event"
		},
		{
			"anonymous": false,
			"inputs": [
				{
					"indexed": true,
					"internalType": "address",
					"name": "account",
					"type": "address"
				},
				{
					"indexed": false,
					"internalType": "uint256",
					"name": "loanID",
					"type": "uint256"
				},
				{
					"indexed": false,
					"internalType": "uint256",
					"name": "feesPaid",
					"type": "uint256"
				}
			],
			"name": "LoanClosed",
			"type": "event"
		},
		{
			"anonymous": false,
			"inputs": [
				{
					"indexed": true,
					"internalType": "address",
					"name": "account",
					"type": "address"
				},
				{
					"indexed": false,
					"internalType": "uint256",
					"name": "loanID",
					"type": "uint256"
				},
				{
					"indexed": false,
					"internalType": "uint256",
					"name": "amount",
					"type": "uint256"
				}
			],
			"name": "LoanCreated",
			"type": "event"
		},
		{
			"anonymous": false,
			"inputs": [
				{
					"indexed": true,
					"internalType": "address",
					"name": "account",
					"type": "address"
				},
				{
					"indexed": false,
					"internalType": "uint256",
					"name": "loanID",
					"type": "uint256"
				},
				{
					"indexed": false,
					"internalType": "address",
					"name": "liquidator",
					"type": "address"
				}
			],
			"name": "LoanLiquidated",
			"type": "event"
		},
		{
			"anonymous": false,
			"inputs": [
				{
					"indexed": false,
					"internalType": "bool",
					"name": "loanLiquidationOpen",
					"type": "bool"
				}
			],
			"name": "LoanLiquidationOpenUpdated",
			"type": "event"
		},
		{
			"anonymous": false,
			"inputs": [
				{
					"indexed": false,
					"internalType": "uint256",
					"name": "minLoanSize",
					"type": "uint256"
				}
			],
			"name": "MinLoanSizeUpdated",
			"type": "event"
		},
		{
			"anonymous": false,
			"inputs": [
				{
					"indexed": false,
					"internalType": "address",
					"name": "oldOwner",
					"type": "address"
				},
				{
					"indexed": false,
					"internalType": "address",
					"name": "newOwner",
					"type": "address"
				}
			],
			"name": "OwnerChanged",
			"type": "event"
		},
		{
			"anonymous": false,
			"inputs": [
				{
					"indexed": false,
					"internalType": "address",
					"name": "newOwner",
					"type": "address"
				}
			],
			"name": "OwnerNominated",
			"type": "event"
		},
		{
			"anonymous": false,
			"inputs": [
				{
					"indexed": false,
					"internalType": "bool",
					"name": "isPaused",
					"type": "bool"
				}
			],
			"name": "PauseChanged",
			"type": "event"
		},
		{
			"constant": true,
			"inputs": [],
			"name": "MAX_ADDRESSES_FROM_RESOLVER",
			"outputs": [
				{
					"internalType": "uint256",
					"name": "",
					"type": "uint256"
				}
			],
			"payable": false,
			"stateMutability": "view",
			"type": "function"
		},
		{
			"constant": false,
			"inputs": [],
			"name": "acceptOwnership",
			"outputs": [],
			"payable": false,
			"stateMutability": "nonpayable",
			"type": "function"
		},
		{
			"constant": true,
			"inputs": [],
			"name": "accountLoanLimit",
			"outputs": [
				{
					"internalType": "uint256",
					"name": "",
					"type": "uint256"
				}
			],
			"payable": false,
			"stateMutability": "view",
			"type": "function"
		},
		{
			"constant": true,
			"inputs": [
				{
					"internalType": "address",
					"name": "",
					"type": "address"
				}
			],
			"name": "accountOpenLoanCounter",
			"outputs": [
				{
					"internalType": "uint256",
					"name": "",
					"type": "uint256"
				}
			],
			"payable": false,
			"stateMutability": "view",
			"type": "function"
		},
		{
			"constant": true,
			"inputs": [
				{
					"internalType": "address",
					"name": "",
					"type": "address"
				},
				{
					"internalType": "uint256",
					"name": "",
					"type": "uint256"
				}
			],
			"name": "accountsSynthLoans",
			"outputs": [
				{
					"internalType": "address",
					"name": "account",
					"type": "address"
				},
				{
					"internalType": "uint256",
					"name": "collateralAmount",
					"type": "uint256"
				},
				{
					"internalType": "uint256",
					"name": "loanAmount",
					"type": "uint256"
				},
				{
					"internalType": "uint256",
					"name": "timeCreated",
					"type": "uint256"
				},
				{
					"internalType": "uint256",
					"name": "loanID",
					"type": "uint256"
				},
				{
					"internalType": "uint256",
					"name": "timeClosed",
					"type": "uint256"
				}
			],
			"payable": false,
			"stateMutability": "view",
			"type": "function"
		},
		{
			"constant": true,
			"inputs": [
				{
					"internalType": "uint256",
					"name": "_loanAmount",
					"type": "uint256"
				},
				{
					"internalType": "uint256",
					"name": "_seconds",
					"type": "uint256"
				}
			],
			"name": "accruedInterestOnLoan",
			"outputs": [
				{
					"internalType": "uint256",
					"name": "interestAmount",
					"type": "uint256"
				}
			],
			"payable": false,
			"stateMutability": "view",
			"type": "function"
		},
		{
			"constant": true,
			"inputs": [
				{
					"internalType": "address",
					"name": "_account",
					"type": "address"
				},
				{
					"internalType": "uint256",
					"name": "_loanID",
					"type": "uint256"
				}
			],
			"name": "calculateMintingFee",
			"outputs": [
				{
					"internalType": "uint256",
					"name": "",
					"type": "uint256"
				}
			],
			"payable": false,
			"stateMutability": "view",
			"type": "function"
		},
		{
			"constant": false,
			"inputs": [
				{
					"internalType": "uint256",
					"name": "loanID",
					"type": "uint256"
				}
			],
			"name": "closeLoan",
			"outputs": [],
			"payable": false,
			"stateMutability": "nonpayable",
			"type": "function"
		},
		{
			"constant": true,
			"inputs": [
				{
					"internalType": "uint256",
					"name": "loanAmount",
					"type": "uint256"
				}
			],
			"name": "collateralAmountForLoan",
			"outputs": [
				{
					"internalType": "uint256",
					"name": "",
					"type": "uint256"
				}
			],
			"payable": false,
			"stateMutability": "view",
			"type": "function"
		},
		{
			"constant": true,
			"inputs": [],
			"name": "collateralizationRatio",
			"outputs": [
				{
					"internalType": "uint256",
					"name": "",
					"type": "uint256"
				}
			],
			"payable": false,
			"stateMutability": "view",
			"type": "function"
		},
		{
			"constant": true,
			"inputs": [
				{
					"internalType": "address",
					"name": "_account",
					"type": "address"
				},
				{
					"internalType": "uint256",
					"name": "_loanID",
					"type": "uint256"
				}
			],
			"name": "currentInterestOnLoan",
			"outputs": [
				{
					"internalType": "uint256",
					"name": "",
					"type": "uint256"
				}
			],
			"payable": false,
			"stateMutability": "view",
			"type": "function"
		},
		{
			"constant": true,
			"inputs": [],
			"name": "getContractInfo",
			"outputs": [
				{
					"internalType": "uint256",
					"name": "_collateralizationRatio",
					"type": "uint256"
				},
				{
					"internalType": "uint256",
					"name": "_issuanceRatio",
					"type": "uint256"
				},
				{
					"internalType": "uint256",
					"name": "_interestRate",
					"type": "uint256"
				},
				{
					"internalType": "uint256",
					"name": "_interestPerSecond",
					"type": "uint256"
				},
				{
					"internalType": "uint256",
					"name": "_issueFeeRate",
					"type": "uint256"
				},
				{
					"internalType": "uint256",
					"name": "_issueLimit",
					"type": "uint256"
				},
				{
					"internalType": "uint256",
					"name": "_minLoanSize",
					"type": "uint256"
				},
				{
					"internalType": "uint256",
					"name": "_totalIssuedSynths",
					"type": "uint256"
				},
				{
					"internalType": "uint256",
					"name": "_totalLoansCreated",
					"type": "uint256"
				},
				{
					"internalType": "uint256",
					"name": "_totalOpenLoanCount",
					"type": "uint256"
				},
				{
					"internalType": "uint256",
					"name": "_ethBalance",
					"type": "uint256"
				},
				{
					"internalType": "uint256",
					"name": "_liquidationDeadline",
					"type": "uint256"
				},
				{
					"internalType": "bool",
					"name": "_loanLiquidationOpen",
					"type": "bool"
				}
			],
			"payable": false,
			"stateMutability": "view",
			"type": "function"
		},
		{
			"constant": true,
			"inputs": [
				{
					"internalType": "address",
					"name": "_account",
					"type": "address"
				},
				{
					"internalType": "uint256",
					"name": "_loanID",
					"type": "uint256"
				}
			],
			"name": "getLoan",
			"outputs": [
				{
					"internalType": "address",
					"name": "account",
					"type": "address"
				},
				{
					"internalType": "uint256",
					"name": "collateralAmount",
					"type": "uint256"
				},
				{
					"internalType": "uint256",
					"name": "loanAmount",
					"type": "uint256"
				},
				{
					"internalType": "uint256",
					"name": "timeCreated",
					"type": "uint256"
				},
				{
					"internalType": "uint256",
					"name": "loanID",
					"type": "uint256"
				},
				{
					"internalType": "uint256",
					"name": "timeClosed",
					"type": "uint256"
				},
				{
					"internalType": "uint256",
					"name": "interest",
					"type": "uint256"
				},
				{
					"internalType": "uint256",
					"name": "totalFees",
					"type": "uint256"
				}
			],
			"payable": false,
			"stateMutability": "view",
			"type": "function"
		},
		{
			"constant": true,
			"inputs": [],
			"name": "getResolverAddressesRequired",
			"outputs": [
				{
					"internalType": "bytes32[24]",
					"name": "addressesRequired",
					"type": "bytes32[24]"
				}
			],
			"payable": false,
			"stateMutability": "view",
			"type": "function"
		},
		{
			"constant": true,
			"inputs": [],
			"name": "interestPerSecond",
			"outputs": [
				{
					"internalType": "uint256",
					"name": "",
					"type": "uint256"
				}
			],
			"payable": false,
			"stateMutability": "view",
			"type": "function"
		},
		{
			"constant": true,
			"inputs": [],
			"name": "interestRate",
			"outputs": [
				{
					"internalType": "uint256",
					"name": "",
					"type": "uint256"
				}
			],
			"payable": false,
			"stateMutability": "view",
			"type": "function"
		},
		{
			"constant": true,
			"inputs": [
				{
					"internalType": "contract AddressResolver",
					"name": "_resolver",
					"type": "address"
				}
			],
			"name": "isResolverCached",
			"outputs": [
				{
					"internalType": "bool",
					"name": "",
					"type": "bool"
				}
			],
			"payable": false,
			"stateMutability": "view",
			"type": "function"
		},
		{
			"constant": true,
			"inputs": [],
			"name": "issuanceRatio",
			"outputs": [
				{
					"internalType": "uint256",
					"name": "",
					"type": "uint256"
				}
			],
			"payable": false,
			"stateMutability": "view",
			"type": "function"
		},
		{
			"constant": true,
			"inputs": [],
			"name": "issueFeeRate",
			"outputs": [
				{
					"internalType": "uint256",
					"name": "",
					"type": "uint256"
				}
			],
			"payable": false,
			"stateMutability": "view",
			"type": "function"
		},
		{
			"constant": true,
			"inputs": [],
			"name": "issueLimit",
			"outputs": [
				{
					"internalType": "uint256",
					"name": "",
					"type": "uint256"
				}
			],
			"payable": false,
			"stateMutability": "view",
			"type": "function"
		},
		{
			"constant": true,
			"inputs": [],
			"name": "lastPauseTime",
			"outputs": [
				{
					"internalType": "uint256",
					"name": "",
					"type": "uint256"
				}
			],
			"payable": false,
			"stateMutability": "view",
			"type": "function"
		},
		{
			"constant": false,
			"inputs": [
				{
					"internalType": "address",
					"name": "_loanCreatorsAddress",
					"type": "address"
				},
				{
					"internalType": "uint256",
					"name": "_loanID",
					"type": "uint256"
				}
			],
			"name": "liquidateUnclosedLoan",
			"outputs": [],
			"payable": false,
			"stateMutability": "nonpayable",
			"type": "function"
		},
		{
			"constant": true,
			"inputs": [],
			"name": "liquidationDeadline",
			"outputs": [
				{
					"internalType": "uint256",
					"name": "",
					"type": "uint256"
				}
			],
			"payable": false,
			"stateMutability": "view",
			"type": "function"
		},
		{
			"constant": true,
			"inputs": [
				{
					"internalType": "uint256",
					"name": "collateralAmount",
					"type": "uint256"
				}
			],
			"name": "loanAmountFromCollateral",
			"outputs": [
				{
					"internalType": "uint256",
					"name": "",
					"type": "uint256"
				}
			],
			"payable": false,
			"stateMutability": "view",
			"type": "function"
		},
		{
			"constant": true,
			"inputs": [
				{
					"internalType": "address",
					"name": "_account",
					"type": "address"
				},
				{
					"internalType": "uint256",
					"name": "_loanID",
					"type": "uint256"
				}
			],
			"name": "loanLifeSpan",
			"outputs": [
				{
					"internalType": "uint256",
					"name": "loanLifeSpanResult",
					"type": "uint256"
				}
			],
			"payable": false,
			"stateMutability": "view",
			"type": "function"
		},
		{
			"constant": true,
			"inputs": [],
			"name": "loanLiquidationOpen",
			"outputs": [
				{
					"internalType": "bool",
					"name": "",
					"type": "bool"
				}
			],
			"payable": false,
			"stateMutability": "view",
			"type": "function"
		},
		{
			"constant": true,
			"inputs": [],
			"name": "minLoanSize",
			"outputs": [
				{
					"internalType": "uint256",
					"name": "",
					"type": "uint256"
				}
			],
			"payable": false,
			"stateMutability": "view",
			"type": "function"
		},
		{
			"constant": false,
			"inputs": [
				{
					"internalType": "address",
					"name": "_owner",
					"type": "address"
				}
			],
			"name": "nominateNewOwner",
			"outputs": [],
			"payable": false,
			"stateMutability": "nonpayable",
			"type": "function"
		},
		{
			"constant": true,
			"inputs": [],
			"name": "nominatedOwner",
			"outputs": [
				{
					"internalType": "address",
					"name": "",
					"type": "address"
				}
			],
			"payable": false,
			"stateMutability": "view",
			"type": "function"
		},
		{
			"constant": false,
			"inputs": [],
			"name": "openLoan",
			"outputs": [
				{
					"internalType": "uint256",
					"name": "loanID",
					"type": "uint256"
				}
			],
			"payable": true,
			"stateMutability": "payable",
			"type": "function"
		},
		{
			"constant": true,
			"inputs": [
				{
					"internalType": "address",
					"name": "_account",
					"type": "address"
				}
			],
			"name": "openLoanIDsByAccount",
			"outputs": [
				{
					"internalType": "uint256[]",
					"name": "",
					"type": "uint256[]"
				}
			],
			"payable": false,
			"stateMutability": "view",
			"type": "function"
		},
		{
			"constant": true,
			"inputs": [],
			"name": "owner",
			"outputs": [
				{
					"internalType": "address",
					"name": "",
					"type": "address"
				}
			],
			"payable": false,
			"stateMutability": "view",
			"type": "function"
		},
		{
			"constant": true,
			"inputs": [],
			"name": "paused",
			"outputs": [
				{
					"internalType": "bool",
					"name": "",
					"type": "bool"
				}
			],
			"payable": false,
			"stateMutability": "view",
			"type": "function"
		},
		{
			"constant": true,
			"inputs": [],
			"name": "resolver",
			"outputs": [
				{
					"internalType": "contract AddressResolver",
					"name": "",
					"type": "address"
				}
			],
			"payable": false,
			"stateMutability": "view",
			"type": "function"
		},
		{
			"constant": true,
			"inputs": [
				{
					"internalType": "uint256",
					"name": "",
					"type": "uint256"
				}
			],
			"name": "resolverAddressesRequired",
			"outputs": [
				{
					"internalType": "bytes32",
					"name": "",
					"type": "bytes32"
				}
			],
			"payable": false,
			"stateMutability": "view",
			"type": "function"
		},
		{
			"constant": false,
			"inputs": [
				{
					"internalType": "uint256",
					"name": "_loanLimit",
					"type": "uint256"
				}
			],
			"name": "setAccountLoanLimit",
			"outputs": [],
			"payable": false,
			"stateMutability": "nonpayable",
			"type": "function"
		},
		{
			"constant": false,
			"inputs": [
				{
					"internalType": "uint256",
					"name": "ratio",
					"type": "uint256"
				}
			],
			"name": "setCollateralizationRatio",
			"outputs": [],
			"payable": false,
			"stateMutability": "nonpayable",
			"type": "function"
		},
		{
			"constant": false,
			"inputs": [
				{
					"internalType": "uint256",
					"name": "_interestRate",
					"type": "uint256"
				}
			],
			"name": "setInterestRate",
			"outputs": [],
			"payable": false,
			"stateMutability": "nonpayable",
			"type": "function"
		},
		{
			"constant": false,
			"inputs": [
				{
					"internalType": "uint256",
					"name": "_issueFeeRate",
					"type": "uint256"
				}
			],
			"name": "setIssueFeeRate",
			"outputs": [],
			"payable": false,
			"stateMutability": "nonpayable",
			"type": "function"
		},
		{
			"constant": false,
			"inputs": [
				{
					"internalType": "uint256",
					"name": "_issueLimit",
					"type": "uint256"
				}
			],
			"name": "setIssueLimit",
			"outputs": [],
			"payable": false,
			"stateMutability": "nonpayable",
			"type": "function"
		},
		{
			"constant": false,
			"inputs": [
				{
					"internalType": "bool",
					"name": "_loanLiquidationOpen",
					"type": "bool"
				}
			],
			"name": "setLoanLiquidationOpen",
			"outputs": [],
			"payable": false,
			"stateMutability": "nonpayable",
			"type": "function"
		},
		{
			"constant": false,
			"inputs": [
				{
					"internalType": "uint256",
					"name": "_minLoanSize",
					"type": "uint256"
				}
			],
			"name": "setMinLoanSize",
			"outputs": [],
			"payable": false,
			"stateMutability": "nonpayable",
			"type": "function"
		},
		{
			"constant": false,
			"inputs": [
				{
					"internalType": "bool",
					"name": "_paused",
					"type": "bool"
				}
			],
			"name": "setPaused",
			"outputs": [],
			"payable": false,
			"stateMutability": "nonpayable",
			"type": "function"
		},
		{
			"constant": false,
			"inputs": [
				{
					"internalType": "contract AddressResolver",
					"name": "_resolver",
					"type": "address"
				}
			],
			"name": "setResolverAndSyncCache",
			"outputs": [],
			"payable": false,
			"stateMutability": "nonpayable",
			"type": "function"
		},
		{
			"constant": true,
			"inputs": [],
			"name": "totalIssuedSynths",
			"outputs": [
				{
					"internalType": "uint256",
					"name": "",
					"type": "uint256"
				}
			],
			"payable": false,
			"stateMutability": "view",
			"type": "function"
		},
		{
			"constant": true,
			"inputs": [],
			"name": "totalLoansCreated",
			"outputs": [
				{
					"internalType": "uint256",
					"name": "",
					"type": "uint256"
				}
			],
			"payable": false,
			"stateMutability": "view",
			"type": "function"
		},
		{
			"constant": true,
			"inputs": [],
			"name": "totalOpenLoanCount",
			"outputs": [
				{
					"internalType": "uint256",
					"name": "",
					"type": "uint256"
				}
			],
			"payable": false,
			"stateMutability": "view",
			"type": "function"
		}
	],
	"evm": {
		"bytecode": {
			"linkReferences": {
				"EtherCollateral.sol": {
					"SafeDecimalMath": [
						{
							"length": 20,
							"start": 8
						},
						{
							"length": 20,
							"start": 178
						},
						{
							"length": 20,
							"start": 415
						},
						{
							"length": 20,
							"start": 597
						},
						{
							"length": 20,
							"start": 767
						},
						{
							"length": 20,
							"start": 10696
						}
					]
				}
			},
			"object": "6080604052607d73__$09231a05ed34b6851f1018822ecfa0dcb8$__63907af6c06040518163ffffffff1660e01b815260040160206040518083038186806200004762000a4b565b1580156200005457600080fd5b505a6200006062000a83565b505050505015801562000077573d6000803e3d6000fd5b505050506040513d60208110156200008e57600080fd5b8101908080519060200190929190505050026008620000ac62000adf565b5050606473__$09231a05ed34b6851f1018822ecfa0dcb8$__63907af6c06040518163ffffffff1660e01b81526004016020604051808303818680620000f162000a4b565b158015620000fe57600080fd5b505a6200010a62000a83565b505050505015801562000121573d6000803e3d6000fd5b505050506040513d60208110156200013857600080fd5b8101908080519060200190929190505050600502816200015457fe5b0460096200016162000adf565b50506200018c6301e1338060096200017862000b19565b620009ba60201b62003bf11790919060201c565b600a6200019862000adf565b50506103e873__$09231a05ed34b6851f1018822ecfa0dcb8$__63907af6c06040518163ffffffff1660e01b81526004016020604051808303818680620001de62000a4b565b158015620001eb57600080fd5b505a620001f762000a83565b50505050501580156200020e573d6000803e3d6000fd5b505050506040513d60208110156200022557600080fd5b8101908080519060200190929190505050600502816200024157fe5b04600b6200024e62000adf565b505061138873__$09231a05ed34b6851f1018822ecfa0dcb8$__63907af6c06040518163ffffffff1660e01b815260040160206040518083038186806200029462000a4b565b158015620002a157600080fd5b505a620002ad62000a83565b5050505050158015620002c4573d6000803e3d6000fd5b505050506040513d6020811015620002db57600080fd5b810190808051906020019092919050505002600c620002f962000adf565b5050600173__$09231a05ed34b6851f1018822ecfa0dcb8$__63907af6c06040518163ffffffff1660e01b815260040160206040518083038186806200033e62000a4b565b1580156200034b57600080fd5b505a6200035762000a83565b50505050501580156200036e573d6000803e3d6000fd5b505050506040513d60208110156200038557600080fd5b810190808051906020019092919050505002600d620003a362000adf565b50506032600e620003b362000adf565b50506000600f60006101000a81620003ca62000b19565b8160ff02191690831515021790620003e162000adf565b5050506040518060a001604052807f53797374656d537461747573000000000000000000000000000000000000000081526020017f53796e746873455448000000000000000000000000000000000000000000000081526020017f53796e746873555344000000000000000000000000000000000000000000000081526020017f4465706f7400000000000000000000000000000000000000000000000000000081526020017f45786368616e67655261746573000000000000000000000000000000000000008152506016906005620004bd92919062000b51565b50348015620004cb57600080fd5b5060405162005e7d38038062005e7d83398181016040526040811015620004f157600080fd5b81019080805190602001909291908051906020019092919050505080601660188060200260405190810160405280929190826018801562000551576020028201915b816200053e62000b19565b8152602001906001019080831162000533575b505050505083600073ffffffffffffffffffffffffffffffffffffffff168173ffffffffffffffffffffffffffffffffffffffff161415620005fb576040517f08c379a00000000000000000000000000000000000000000000000000000000081526004018080602001828103825260198152602001807f4f776e657220616464726573732063616e6e6f7420626520300000000000000081525060200191505060405180910390fd5b806000806101000a816200060e62000b19565b8173ffffffffffffffffffffffffffffffffffffffff021916908373ffffffffffffffffffffffffffffffffffffffff160217906200064c62000adf565b5050507fb532073b38c83145e3e5135377a08bf9aab55bc0fd7c1179cd4fb995d2a5159c600082604051808373ffffffffffffffffffffffffffffffffffffffff1673ffffffffffffffffffffffffffffffffffffffff1681526020018273ffffffffffffffffffffffffffffffffffffffff1673ffffffffffffffffffffffffffffffffffffffff1681526020019250505060405180910390a150600073ffffffffffffffffffffffffffffffffffffffff16600080906200070e62000b19565b906101000a900473ffffffffffffffffffffffffffffffffffffffff1673ffffffffffffffffffffffffffffffffffffffff161415620007b6576040517f08c379a00000000000000000000000000000000000000000000000000000000081526004018080602001828103825260118152602001807f4f776e6572206d7573742062652073657400000000000000000000000000000081525060200191505060405180910390fd5b600160048190620007c662000adf565b505050600073ffffffffffffffffffffffffffffffffffffffff1660008090620007ef62000b19565b906101000a900473ffffffffffffffffffffffffffffffffffffffff1673ffffffffffffffffffffffffffffffffffffffff16141562000897576040517f08c379a00000000000000000000000000000000000000000000000000000000081526004018080602001828103825260118152602001807f4f776e6572206d7573742062652073657400000000000000000000000000000081525060200191505060405180910390fd5b60008090505b601881101562000939576000801b828260188110620008b857fe5b60200201511462000925576007828260188110620008d257fe5b60200201519080600181620008e662000b19565b018082620008f362000adf565b505080915050906001820390600052602060002001600090919290919091506200091c62000adf565b5050506200092b565b62000939565b80806001019150506200089d565b5081600560006101000a816200094e62000b19565b8173ffffffffffffffffffffffffffffffffffffffff021916908373ffffffffffffffffffffffffffffffffffffffff160217906200098c62000adf565b505050505062794a005a620009a062000ba1565b0160108190620009af62000adf565b505050505062000c06565b600080821162000a32576040517f08c379a000000000000000000000000000000000000000000000000000000000815260040180806020018281038252601a8152602001807f536166654d6174683a206469766973696f6e206279207a65726f00000000000081525060200191505060405180910390fd5b600082848162000a3e57fe5b0490508091505092915050565b63c3382d0f620800008160e01b81528360048201526020816024836000335af1600081141562000a7a57600080fd5b81519450505050565b6345e97ddb620800008160e01b815284600482015260005b8781101562000abb57808701518160248401015260208101905062000a9b565b50888888602401836000335af1600081141562000ad757600080fd5b809950505050565b6328dcb2a0620800008160e01b81528360048201528460248201526000816044836000335af1600081141562000b1457600080fd5b505050565b6320966208620800008160e01b81528360048201526020816024836000335af1600081141562000b4857600080fd5b81519450505050565b826018810192821562000b8e579160200282015b8281111562000b8d5782518262000b7b62000adf565b50509160200191906001019062000b65565b5b50905062000b9d919062000bd3565b5090565b63bdbf8c36620800008160e01b81526020816004836000335af1600081141562000bca57600080fd5b81519450505050565b62000c0391905b8082111562000bff5760008160009062000bf362000adf565b50505060010162000bda565b5090565b90565b6152678062000c166000396000f3fe6080604052600436106102885760003560e01c80638c4638691161015a578063c6c9d828116100c1578063e3c1e58c1161007a578063e3c1e58c14610ec0578063e40108ed14610eef578063e5829d2014610f1a578063ee5f3f5c14610f55578063eea8f5da14610f80578063f53dfb8414610fab57610288565b8063c6c9d82814610d5a578063cf09b4ae14610da9578063d05951a014610dd4578063dcaf9c4414610e0f578063e220a81114610e3a578063e3235c9114610e9557610288565b8063a2e1734211610113578063a2e1734214610b4d578063a76cdfa514610ba6578063aa754a2a14610be1578063ab49848c14610c9f578063b410a03414610cf2578063bb8c6d6c14610d1d57610288565b80638c463869146109165780638da5cb5b146109855780638fdc8f3b146109dc57806391b4ded914610a2b5780639f7d568814610a56578063a1c5158614610a8157610288565b80634f069f66116101fe578063631e1444116101b7578063631e14441461075b5780636b231938146107c457806379ba5097146107e25780637c3a00fd146107f95780637cc1f8671461082457806389c937de146108a757610288565b80634f069f66146105e957806350e3b2e71461062457806353a47bb71461065f5780635c975abb146106b65780635d1a2229146106e55780635f84f3021461072057610288565b806323aa7f0f1161025057806323aa7f0f1461040257806327cff2e51461042d5780632f2bf15b1461049c578063361e2086146105425780633be99e6f1461056d5780634189bb49146105be57610288565b806304f3bcec1461028d578063089f7fb4146102e45780631474b279146103495780631627540c1461037457806316c38b3c146103c5575b600080fd5b34801561029957600080fd5b506102a2610ffa565b604051808273ffffffffffffffffffffffffffffffffffffffff1673ffffffffffffffffffffffffffffffffffffffff16815260200191505060405180910390f35b3480156102f057600080fd5b506103336004803603602081101561030757600080fd5b81019080803573ffffffffffffffffffffffffffffffffffffffff169060200190929190505050611027565b6040518082815260200191505060405180910390f35b34801561035557600080fd5b5061035e611046565b6040518082815260200191505060405180910390f35b34801561038057600080fd5b506103c36004803603602081101561039757600080fd5b81019080803573ffffffffffffffffffffffffffffffffffffffff169060200190929190505050611053565b005b3480156103d157600080fd5b50610400600480360360208110156103e857600080fd5b810190808035151590602001909291905050506111be565b005b34801561040e57600080fd5b5061041761134d565b6040518082815260200191505060405180910390f35b34801561043957600080fd5b506104866004803603604081101561045057600080fd5b81019080803573ffffffffffffffffffffffffffffffffffffffff1690602001909291908035906020019092919050505061135a565b6040518082815260200191505060405180910390f35b3480156104a857600080fd5b506104eb600480360360208110156104bf57600080fd5b81019080803573ffffffffffffffffffffffffffffffffffffffff169060200190929190505050611382565b6040518080602001828103825283818151815260200191508051906020019060200280838360005b8381101561052e578082015181840152602081019050610513565b505050509050019250505060405180910390f35b34801561054e57600080fd5b5061055761160d565b6040518082815260200191505060405180910390f35b34801561057957600080fd5b506105bc6004803603602081101561059057600080fd5b81019080803573ffffffffffffffffffffffffffffffffffffffff16906020019092919050505061161a565b005b3480156105ca57600080fd5b506105d36118d7565b6040518082815260200191505060405180910390f35b3480156105f557600080fd5b506106226004803603602081101561060c57600080fd5b81019080803590602001909291905050506118e4565b005b34801561063057600080fd5b5061065d6004803603602081101561064757600080fd5b81019080803590602001909291905050506119eb565b005b34801561066b57600080fd5b50610674611af2565b604051808273ffffffffffffffffffffffffffffffffffffffff1673ffffffffffffffffffffffffffffffffffffffff16815260200191505060405180910390f35b3480156106c257600080fd5b506106cb611b1f565b604051808215151515815260200191505060405180910390f35b3480156106f157600080fd5b5061071e6004803603602081101561070857600080fd5b8101908080359060200190929190505050611b39565b005b34801561072c57600080fd5b506107596004803603602081101561074357600080fd5b8101908080359060200190929190505050611ca0565b005b34801561076757600080fd5b506107aa6004803603602081101561077e57600080fd5b81019080803573ffffffffffffffffffffffffffffffffffffffff169060200190929190505050611f13565b604051808215151515815260200191505060405180910390f35b6107cc612189565b6040518082815260200191505060405180910390f35b3480156107ee57600080fd5b506107f7612977565b005b34801561080557600080fd5b5061080e612be1565b6040518082815260200191505060405180910390f35b34801561083057600080fd5b50610839612bee565b604051808e81526020018d81526020018c81526020018b81526020018a8152602001898152602001888152602001878152602001868152602001858152602001848152602001838152602001821515151581526020019d505050505050505050505050505060405180910390f35b3480156108b357600080fd5b50610900600480360360408110156108ca57600080fd5b81019080803573ffffffffffffffffffffffffffffffffffffffff16906020019092919080359060200190929190505050612caf565b6040518082815260200191505060405180910390f35b34801561092257600080fd5b5061096f6004803603604081101561093957600080fd5b81019080803573ffffffffffffffffffffffffffffffffffffffff16906020019092919080359060200190929190505050612cea565b6040518082815260200191505060405180910390f35b34801561099157600080fd5b5061099a612d12565b604051808273ffffffffffffffffffffffffffffffffffffffff1673ffffffffffffffffffffffffffffffffffffffff16815260200191505060405180910390f35b3480156109e857600080fd5b50610a15600480360360208110156109ff57600080fd5b8101908080359060200190929190505050612d3e565b6040518082815260200191505060405180910390f35b348015610a3757600080fd5b50610a40612d61565b6040518082815260200191505060405180910390f35b348015610a6257600080fd5b50610a6b612d6e565b6040518082815260200191505060405180910390f35b348015610a8d57600080fd5b50610ada60048036036040811015610aa457600080fd5b81019080803573ffffffffffffffffffffffffffffffffffffffff16906020019092919080359060200190929190505050612d7b565b604051808973ffffffffffffffffffffffffffffffffffffffff1673ffffffffffffffffffffffffffffffffffffffff1681526020018881526020018781526020018681526020018581526020018481526020018381526020018281526020019850505050505050505060405180910390f35b348015610b5957600080fd5b50610b9060048036036040811015610b7057600080fd5b810190808035906020019092919080359060200190929190505050612e08565b6040518082815260200191505060405180910390f35b348015610bb257600080fd5b50610bdf60048036036020811015610bc957600080fd5b8101908080359060200190929190505050612e40565b005b348015610bed57600080fd5b50610c3a60048036036040811015610c0457600080fd5b81019080803573ffffffffffffffffffffffffffffffffffffffff16906020019092919080359060200190929190505050612f47565b604051808773ffffffffffffffffffffffffffffffffffffffff1673ffffffffffffffffffffffffffffffffffffffff168152602001868152602001858152602001848152602001838152602001828152602001965050505050505060405180910390f35b348015610cab57600080fd5b50610cb4612fee565b6040518082601860200280838360005b83811015610cdf578082015181840152602081019050610cc4565b5050505090500191505060405180910390f35b348015610cfe57600080fd5b50610d0761305c565b6040518082815260200191505060405180910390f35b348015610d2957600080fd5b50610d5860048036036020811015610d4057600080fd5b81019080803515159060200190929190505050613088565b005b348015610d6657600080fd5b50610d9360048036036020811015610d7d57600080fd5b8101908080359060200190929190505050613240565b6040518082815260200191505060405180910390f35b348015610db557600080fd5b50610dbe61326f565b6040518082815260200191505060405180910390f35b348015610de057600080fd5b50610e0d60048036036020811015610df757600080fd5b810190808035906020019092919050505061327c565b005b348015610e1b57600080fd5b50610e24613477565b6040518082815260200191505060405180910390f35b348015610e4657600080fd5b50610e9360048036036040811015610e5d57600080fd5b81019080803573ffffffffffffffffffffffffffffffffffffffff16906020019092919080359060200190929190505050613484565b005b348015610ea157600080fd5b50610eaa61378b565b6040518082815260200191505060405180910390f35b348015610ecc57600080fd5b50610ed5613790565b604051808215151515815260200191505060405180910390f35b348015610efb57600080fd5b50610f046137aa565b6040518082815260200191505060405180910390f35b348015610f2657600080fd5b50610f5360048036036020811015610f3d57600080fd5b81019080803590602001909291905050506137b7565b005b348015610f6157600080fd5b50610f6a6139b3565b6040518082815260200191505060405180910390f35b348015610f8c57600080fd5b50610f956139c0565b6040518082815260200191505060405180910390f35b348015610fb757600080fd5b50610fe460048036036020811015610fce57600080fd5b81019080803590602001909291905050506139cd565b6040518082815260200191505060405180910390f35b6005600090611007614d4e565b906101000a900473ffffffffffffffffffffffffffffffffffffffff1681565b6015602052806000526040600020600091509050611043614d4e565b81565b600e611050614d4e565b81565b6000809061105f614d4e565b906101000a900473ffffffffffffffffffffffffffffffffffffffff1673ffffffffffffffffffffffffffffffffffffffff165a61109b614d85565b73ffffffffffffffffffffffffffffffffffffffff1614611107576040517f08c379a000000000000000000000000000000000000000000000000000000000815260040180806020018281038252602f815260200180615071602f913960400191505060405180910390fd5b80600160006101000a81611119614d4e565b8173ffffffffffffffffffffffffffffffffffffffff021916908373ffffffffffffffffffffffffffffffffffffffff16021790611155614db6565b5050507f906a1c6bd7e3091ea86693dd029a831c19049ce77f1dce2ce0bab1cacbabce2281604051808273ffffffffffffffffffffffffffffffffffffffff1673ffffffffffffffffffffffffffffffffffffffff16815260200191505060405180910390a150565b600080906111ca614d4e565b906101000a900473ffffffffffffffffffffffffffffffffffffffff1673ffffffffffffffffffffffffffffffffffffffff165a611206614d85565b73ffffffffffffffffffffffffffffffffffffffff1614611272576040517f08c379a000000000000000000000000000000000000000000000000000000000815260040180806020018281038252602f815260200180615071602f913960400191505060405180910390fd5b600360009061127f614d4e565b906101000a900460ff16151581151514156112995761134a565b80600360006101000a816112ab614d4e565b8160ff021916908315150217906112c0614db6565b50505060036000906112d0614d4e565b906101000a900460ff16156112f8575a6112e8614def565b600281906112f4614db6565b5050505b7f8fb6c181ee25a520cf3dd6565006ef91229fcfe5a989566c2a3b8c115570cec56003600090611326614d4e565b906101000a900460ff16604051808215151515815260200191505060405180910390a15b50565b6012611357614d4e565b81565b6000611364614e20565b61136e8484613a0d565b905061137981613bc8565b91505092915050565b606080601460008473ffffffffffffffffffffffffffffffffffffffff1673ffffffffffffffffffffffffffffffffffffffff168152602001908152602001600020806113cd614d4e565b80602002602001604051908101604052809291908181526020016000905b828210156114cf57838290600052602060002090600602016040518060c00160405290816000820160009061141e614d4e565b906101000a900473ffffffffffffffffffffffffffffffffffffffff1673ffffffffffffffffffffffffffffffffffffffff1673ffffffffffffffffffffffffffffffffffffffff16815260200160018201611478614d4e565b815260200160028201611489614d4e565b81526020016003820161149a614d4e565b8152602001600482016114ab614d4e565b8152602001600582016114bc614d4e565b81525050815260200190600101906113eb565b505050509050606081516040519080825280602002602001820160405280156115075781602001602082028038833980820191505090505b509050600080905060008090505b835181101561158457600084828151811061152c57fe5b602002602001015160a0015114156115775783818151811061154a57fe5b60200260200101516080015183838151811061156257fe5b60200260200101818152505081806001019250505b8080600101915050611515565b506060816040519080825280602002602001820160405280156115b65781602001602082028038833980820191505090505b50905060008090505b82811015611600578381815181106115d357fe5b60200260200101518282815181106115e757fe5b60200260200101818152505080806001019150506115bf565b5080945050505050919050565b600b611617614d4e565b81565b60008090611626614d4e565b906101000a900473ffffffffffffffffffffffffffffffffffffffff1673ffffffffffffffffffffffffffffffffffffffff165a611662614d85565b73ffffffffffffffffffffffffffffffffffffffff16146116ce576040517f08c379a000000000000000000000000000000000000000000000000000000000815260040180806020018281038252602f815260200180615071602f913960400191505060405180910390fd5b80600560006101000a816116e0614d4e565b8173ffffffffffffffffffffffffffffffffffffffff021916908373ffffffffffffffffffffffffffffffffffffffff1602179061171c614db6565b50505060008090505b600780611730614d4e565b90508110156118d357600060078281611747614d4e565b811061174f57fe5b90600052602060002001611761614d4e565b90506005600090611770614d4e565b906101000a900473ffffffffffffffffffffffffffffffffffffffff1673ffffffffffffffffffffffffffffffffffffffff1663dacb2d01826040518263ffffffff1660e01b81526004018082815260200180602001828103825260178152602001807f5265736f6c766572206d697373696e6720746172676574000000000000000000815250602001925050506020604051808303818680611811614e6c565b15801561181d57600080fd5b505a611827614ea3565b505050505015801561183d573d6000803e3d6000fd5b505050506040513d602081101561185357600080fd5b81019080805190602001909291905050506006600083815260200190815260200160002060006101000a81611886614d4e565b8173ffffffffffffffffffffffffffffffffffffffff021916908373ffffffffffffffffffffffffffffffffffffffff160217906118c2614db6565b505050508080600101915050611725565b5050565b60136118e1614d4e565b81565b600080906118f0614d4e565b906101000a900473ffffffffffffffffffffffffffffffffffffffff1673ffffffffffffffffffffffffffffffffffffffff165a61192c614d85565b73ffffffffffffffffffffffffffffffffffffffff1614611998576040517f08c379a000000000000000000000000000000000000000000000000000000000815260040180806020018281038252602f815260200180615071602f913960400191505060405180910390fd5b80600c81906119a5614db6565b5050507fbb72ce8874020b3b98429d653df927cac6618ac1932384b1446bf04bf9a1b7e5600c6119d3614d4e565b6040518082815260200191505060405180910390a150565b600080906119f7614d4e565b906101000a900473ffffffffffffffffffffffffffffffffffffffff1673ffffffffffffffffffffffffffffffffffffffff165a611a33614d85565b73ffffffffffffffffffffffffffffffffffffffff1614611a9f576040517f08c379a000000000000000000000000000000000000000000000000000000000815260040180806020018281038252602f815260200180615071602f913960400191505060405180910390fd5b80600d8190611aac614db6565b5050507f8640e538c9503bd8d11554fc26280efe867c12195c0eee0aeede5f4a8d528839600d611ada614d4e565b6040518082815260200191505060405180910390a150565b6001600090611aff614d4e565b906101000a900473ffffffffffffffffffffffffffffffffffffffff1681565b6003600090611b2c614d4e565b906101000a900460ff1681565b60008090611b45614d4e565b906101000a900473ffffffffffffffffffffffffffffffffffffffff1673ffffffffffffffffffffffffffffffffffffffff165a611b81614d85565b73ffffffffffffffffffffffffffffffffffffffff1614611bed576040517f08c379a000000000000000000000000000000000000000000000000000000000815260040180806020018281038252602f815260200180615071602f913960400191505060405180910390fd5b60006103e89050808210611c4c576040517f08c379a00000000000000000000000000000000000000000000000000000000081526004018080602001828103825260258152602001806150076025913960400191505060405180910390fd5b81600e8190611c59614db6565b5050507f59822dc2d999f6f0618e8b0db5cfc8496084574c769b09609d9b5f4394a310b6600e611c87614d4e565b6040518082815260200191505060405180910390a15050565b60008090611cac614d4e565b906101000a900473ffffffffffffffffffffffffffffffffffffffff1673ffffffffffffffffffffffffffffffffffffffff165a611ce8614d85565b73ffffffffffffffffffffffffffffffffffffffff1614611d54576040517f08c379a000000000000000000000000000000000000000000000000000000000815260040180806020018281038252602f815260200180615071602f913960400191505060405180910390fd5b6301e133808111611db0576040517f08c379a00000000000000000000000000000000000000000000000000000000081526004018080602001828103825260378152602001806151d66037913960400191505060405180910390fd5b73__$09231a05ed34b6851f1018822ecfa0dcb8$__63907af6c06040518163ffffffff1660e01b81526004016020604051808303818680611def614e6c565b158015611dfb57600080fd5b505a611e05614efc565b5050505050158015611e1b573d6000803e3d6000fd5b505050506040513d6020811015611e3157600080fd5b8101908080519060200190929190505050811115611e9a576040517f08c379a000000000000000000000000000000000000000000000000000000000815260040180806020018281038252602581526020018061513b6025913960400191505060405180910390fd5b8060098190611ea7614db6565b505050611ec16301e1338082613bf190919063ffffffff16565b600a8190611ecd614db6565b5050507fa90e14be5aa57b910aa6dc16c31ff1b5cda380ae25a793b0d3f74df6131a7d746009611efb614d4e565b6040518082815260200191505060405180910390a150565b60008173ffffffffffffffffffffffffffffffffffffffff166005600090611f39614d4e565b906101000a900473ffffffffffffffffffffffffffffffffffffffff1673ffffffffffffffffffffffffffffffffffffffff1614611f7a5760009050612184565b60008090505b600780611f8b614d4e565b905081101561217e57600060078281611fa2614d4e565b8110611faa57fe5b90600052602060002001611fbc614d4e565b905060066000828152602001908152602001600020600090611fdc614d4e565b906101000a900473ffffffffffffffffffffffffffffffffffffffff1673ffffffffffffffffffffffffffffffffffffffff16600560009061201c614d4e565b906101000a900473ffffffffffffffffffffffffffffffffffffffff1673ffffffffffffffffffffffffffffffffffffffff166321f8a721836040518263ffffffff1660e01b8152600401808281526020019150506020604051808303818680612084614e6c565b15801561209057600080fd5b505a61209a614ea3565b50505050501580156120b0573d6000803e3d6000fd5b505050506040513d60208110156120c657600080fd5b810190808051906020019092919050505073ffffffffffffffffffffffffffffffffffffffff161415806121605750600073ffffffffffffffffffffffffffffffffffffffff166006600083815260200190815260200160002060009061212b614d4e565b906101000a900473ffffffffffffffffffffffffffffffffffffffff1673ffffffffffffffffffffffffffffffffffffffff16145b1561217057600092505050612184565b508080600101915050611f80565b50600190505b919050565b60006003600090612198614d4e565b906101000a900460ff16156121f8576040517f08c379a000000000000000000000000000000000000000000000000000000000815260040180806020018281038252603c8152602001806150ff603c913960400191505060405180910390fd5b6001600460008282612208614d4e565b019250508190612216614db6565b50505060006004612225614d4e565b905061222f613c80565b73ffffffffffffffffffffffffffffffffffffffff16629919c06040518163ffffffff1660e01b815260040180807f734554480000000000000000000000000000000000000000000000000000000081525060200190506020604051808303818680612299614e6c565b1580156122a557600080fd5b505a6122af614ea3565b50505050501580156122c5573d6000803e3d6000fd5b505050506040513d60208110156122db57600080fd5b81019080805190602001909291905050501561235f576040517f08c379a000000000000000000000000000000000000000000000000000000000815260040180806020018281038252601d8152602001807f426c6f636b656420617320734554482072617465206973207374616c6500000081525060200191505060405180910390fd5b612367613ce6565b73ffffffffffffffffffffffffffffffffffffffff16637c3125416040518163ffffffff1660e01b815260040160006040518083038186806123a7614e6c565b1580156123b357600080fd5b505a6123bd614ea3565b50505050501580156123d3573d6000803e3d6000fd5b50505050600d6123e1614d4e565b341015612439576040517f08c379a000000000000000000000000000000000000000000000000000000000815260040180806020018281038252603e8152602001806150c1603e913960400191505060405180910390fd5b60001515600f60009061244a614d4e565b906101000a900460ff161515146124c9576040517f08c379a000000000000000000000000000000000000000000000000000000000815260040180806020018281038252601e8152602001807f4c6f616e7320617265206e6f77206265696e67206c697175696461746564000081525060200191505060405180910390fd5b600e6124d3614d4e565b601460005a6124e0614d85565b73ffffffffffffffffffffffffffffffffffffffff1673ffffffffffffffffffffffffffffffffffffffff16815260200190815260200160002080612523614d4e565b90501061257b576040517f08c379a000000000000000000000000000000000000000000000000000000000815260040180806020018281038252602281526020018061502c6022913960400191505060405180910390fd5b600061258634612d3e565b9050600c612592614d4e565b6125ae8260116125a0614d4e565b613d4c90919063ffffffff16565b10612604576040517f08c379a000000000000000000000000000000000000000000000000000000000815260040180806020018281038252602381526020018061504e6023913960400191505060405180910390fd5b61260c613dd4565b9250612616614e20565b6040518060c001604052805a61262a614d85565b73ffffffffffffffffffffffffffffffffffffffff1681526020013481526020018381526020015a61265a614def565b815260200185815260200160008152509050601460005a612679614d85565b73ffffffffffffffffffffffffffffffffffffffff1673ffffffffffffffffffffffffffffffffffffffff1681526020019081526020016000208190806001816126c1614d4e565b0180826126cc614db6565b505080915050906001820390600052602060002090600602016000909192909190915060008201518160000160006101000a81612707614d4e565b8173ffffffffffffffffffffffffffffffffffffffff021916908373ffffffffffffffffffffffffffffffffffffffff16021790612743614db6565b505050602082015181600101612757614db6565b505060408201518160020161276a614db6565b505060608201518160030161277d614db6565b5050608082015181600401612790614db6565b505060a0820151816005016127a3614db6565b50505050506127c48260116127b6614d4e565b613d4c90919063ffffffff16565b601181906127d0614db6565b5050506127db613e3d565b73ffffffffffffffffffffffffffffffffffffffff1663867904b45a6127ff614d85565b846040518363ffffffff1660e01b8152600401808373ffffffffffffffffffffffffffffffffffffffff1673ffffffffffffffffffffffffffffffffffffffff1681526020018281526020019250505060006040518083038160008780612864614e6c565b15801561287057600080fd5b505a61287a614f55565b505050505050158015612891573d6000803e3d6000fd5b505050505a61289e614d85565b73ffffffffffffffffffffffffffffffffffffffff167f58d170de3a12438e22d81380f353b2fcac86f0a708a1374deaa5c6322a95992f8584604051808381526020018281526020019250505060405180910390a2505060046128ff614d4e565b8114612973576040517f08c379a000000000000000000000000000000000000000000000000000000000815260040180806020018281038252601f8152602001807f5265656e7472616e637947756172643a207265656e7472616e742063616c6c0081525060200191505060405180910390fd5b5090565b6001600090612984614d4e565b906101000a900473ffffffffffffffffffffffffffffffffffffffff1673ffffffffffffffffffffffffffffffffffffffff165a6129c0614d85565b73ffffffffffffffffffffffffffffffffffffffff1614612a2c576040517f08c379a0000000000000000000000000000000000000000000000000000000008152600401808060200182810382526035815260200180614fd26035913960400191505060405180910390fd5b7fb532073b38c83145e3e5135377a08bf9aab55bc0fd7c1179cd4fb995d2a5159c60008090612a59614d4e565b906101000a900473ffffffffffffffffffffffffffffffffffffffff166001600090612a83614d4e565b906101000a900473ffffffffffffffffffffffffffffffffffffffff16604051808373ffffffffffffffffffffffffffffffffffffffff1673ffffffffffffffffffffffffffffffffffffffff1681526020018273ffffffffffffffffffffffffffffffffffffffff1673ffffffffffffffffffffffffffffffffffffffff1681526020019250505060405180910390a16001600090612b21614d4e565b906101000a900473ffffffffffffffffffffffffffffffffffffffff166000806101000a81612b4e614d4e565b8173ffffffffffffffffffffffffffffffffffffffff021916908373ffffffffffffffffffffffffffffffffffffffff16021790612b8a614db6565b5050506000600160006101000a81612ba0614d4e565b8173ffffffffffffffffffffffffffffffffffffffff021916908373ffffffffffffffffffffffffffffffffffffffff16021790612bdc614db6565b505050565b6009612beb614d4e565b81565b60008060008060008060008060008060008060006008612c0c614d4e565b9c50612c1661305c565b9b506009612c22614d4e565b9a50600a612c2e614d4e565b9950600b612c3a614d4e565b9850600c612c46614d4e565b9750600d612c52614d4e565b96506011612c5e614d4e565b95506012612c6a614d4e565b94506013612c76614d4e565b93504792506010612c85614d4e565b9150600f600090612c94614d4e565b906101000a900460ff169050909192939495969798999a9b9c565b6000612cb9614e20565b612cc38484613a0d565b90506000612cd082613ea3565b9050612ce0826040015182612e08565b9250505092915050565b6000612cf4614e20565b612cfe8484613a0d565b9050612d0981613ea3565b91505092915050565b60008090612d1e614d4e565b906101000a900473ffffffffffffffffffffffffffffffffffffffff1681565b6000612d5a612d4b61305c565b83613efd90919063ffffffff16565b9050919050565b6002612d6b614d4e565b81565b6010612d78614d4e565b81565b600080600080600080600080612d8f614e20565b612d998b8b613a0d565b905080600001519850806020015197508060400151965080606001519550806080015194508060a001519350612ddb8160400151612dd683613ea3565b612e08565b9250612df8612de982613bc8565b84613d4c90919063ffffffff16565b9150509295985092959890939650565b6000612e38612e2983600a612e1b614d4e565b613f2a90919063ffffffff16565b84613fb090919063ffffffff16565b905092915050565b60008090612e4c614d4e565b906101000a900473ffffffffffffffffffffffffffffffffffffffff1673ffffffffffffffffffffffffffffffffffffffff165a612e88614d85565b73ffffffffffffffffffffffffffffffffffffffff1614612ef4576040517f08c379a000000000000000000000000000000000000000000000000000000000815260040180806020018281038252602f815260200180615071602f913960400191505060405180910390fd5b80600b8190612f01614db6565b5050507fe7bd72551c54d568cd97b00dc52d2787b5c5d4f0070d3582c1e8ba25141f799c600b612f2f614d4e565b6040518082815260200191505060405180910390a150565b60146020528160005260406000208181612f5f614d4e565b8110612f6757fe5b90600052602060002090600602016000915091505080600001600090612f8b614d4e565b906101000a900473ffffffffffffffffffffffffffffffffffffffff169080600101612fb5614d4e565b9080600201612fc2614d4e565b9080600301612fcf614d4e565b9080600401612fdc614d4e565b9080600501612fe9614d4e565b905086565b612ff6614fae565b60008090505b600780613007614d4e565b9050811015613058576007818161301c614d4e565b811061302457fe5b90600052602060002001613036614d4e565b82826018811061304257fe5b6020020181815250508080600101915050612ffc565b5090565b6000613083600861306b614d4e565b68056bc75e2d63100000613fcc90919063ffffffff16565b905090565b60008090613094614d4e565b906101000a900473ffffffffffffffffffffffffffffffffffffffff1673ffffffffffffffffffffffffffffffffffffffff165a6130d0614d85565b73ffffffffffffffffffffffffffffffffffffffff161461313c576040517f08c379a000000000000000000000000000000000000000000000000000000000815260040180806020018281038252602f815260200180615071602f913960400191505060405180910390fd5b6010613146614d4e565b5a61314f614def565b116131c2576040517f08c379a000000000000000000000000000000000000000000000000000000000815260040180806020018281038252601b8152602001807f4265666f7265206c69717569646174696f6e20646561646c696e65000000000081525060200191505060405180910390fd5b80600f60006101000a816131d4614d4e565b8160ff021916908315150217906131e9614db6565b5050507faa52cf15c1fbb778214c66f64726e141551158858d1c06ca0392c6c5869c8567600f60009061321a614d4e565b906101000a900460ff16604051808215151515815260200191505060405180910390a150565b6007818161324c614d4e565b811061325457fe5b9060005260206000200160009150905061326c614d4e565b81565b600d613279614d4e565b81565b600160046000828261328c614d4e565b01925050819061329a614db6565b505050600060046132a9614d4e565b90506132b3613c80565b73ffffffffffffffffffffffffffffffffffffffff16629919c06040518163ffffffff1660e01b815260040180807f73455448000000000000000000000000000000000000000000000000000000008152506020019050602060405180830381868061331d614e6c565b15801561332957600080fd5b505a613333614ea3565b5050505050158015613349573d6000803e3d6000fd5b505050506040513d602081101561335f57600080fd5b8101908080519060200190929190505050156133e3576040517f08c379a000000000000000000000000000000000000000000000000000000000815260040180806020018281038252601d8152602001807f426c6f636b656420617320734554482072617465206973207374616c6500000081525060200191505060405180910390fd5b6133f55a6133ef614d85565b83613fe8565b60046133ff614d4e565b8114613473576040517f08c379a000000000000000000000000000000000000000000000000000000000815260040180806020018281038252601f8152602001807f5265656e7472616e637947756172643a207265656e7472616e742063616c6c0081525060200191505060405180910390fd5b5050565b6008613481614d4e565b81565b6001600460008282613494614d4e565b0192505081906134a2614db6565b505050600060046134b1614d4e565b90506134bb613c80565b73ffffffffffffffffffffffffffffffffffffffff16629919c06040518163ffffffff1660e01b815260040180807f734554480000000000000000000000000000000000000000000000000000000081525060200190506020604051808303818680613525614e6c565b15801561353157600080fd5b505a61353b614ea3565b5050505050158015613551573d6000803e3d6000fd5b505050506040513d602081101561356757600080fd5b8101908080519060200190929190505050156135eb576040517f08c379a000000000000000000000000000000000000000000000000000000000815260040180806020018281038252601d8152602001807f426c6f636b656420617320734554482072617465206973207374616c6500000081525060200191505060405180910390fd5b600f6000906135f8614d4e565b906101000a900460ff16613674576040517f08c379a00000000000000000000000000000000000000000000000000000000081526004018080602001828103825260178152602001807f4c69717569646174696f6e206973206e6f74206f70656e00000000000000000081525060200191505060405180910390fd5b61367e8383613fe8565b8273ffffffffffffffffffffffffffffffffffffffff167fde21b2a43b0a2c2109c049fb1e4bb8653fd67d0ffd74fdcb662db381f1eeab38835a6136c0614d85565b604051808381526020018273ffffffffffffffffffffffffffffffffffffffff1673ffffffffffffffffffffffffffffffffffffffff1681526020019250505060405180910390a26004613712614d4e565b8114613786576040517f08c379a000000000000000000000000000000000000000000000000000000000815260040180806020018281038252601f8152602001807f5265656e7472616e637947756172643a207265656e7472616e742063616c6c0081525060200191505060405180910390fd5b505050565b601881565b600f60009061379d614d4e565b906101000a900460ff1681565b600a6137b4614d4e565b81565b600080906137c3614d4e565b906101000a900473ffffffffffffffffffffffffffffffffffffffff1673ffffffffffffffffffffffffffffffffffffffff165a6137ff614d85565b73ffffffffffffffffffffffffffffffffffffffff161461386b576040517f08c379a000000000000000000000000000000000000000000000000000000000815260040180806020018281038252602f815260200180615071602f913960400191505060405180910390fd5b683635c9adc5dea000008111156138ea576040517f08c379a00000000000000000000000000000000000000000000000000000000081526004018080602001828103825260088152602001807f546f6f206869676800000000000000000000000000000000000000000000000081525060200191505060405180910390fd5b68056bc75e2d63100000811015613969576040517f08c379a00000000000000000000000000000000000000000000000000000000081526004018080602001828103825260078152602001807f546f6f206c6f770000000000000000000000000000000000000000000000000081525060200191505060405180910390fd5b8060088190613976614db6565b5050507ffb0ebe8c7316e6a251494c38876d13d9a3a029273fce7964c12aa2ce07869530816040518082815260200191505060405180910390a150565b60116139bd614d4e565b81565b600c6139ca614d4e565b81565b6000613a066139f768056bc75e2d6310000060086139e9614d4e565b613fcc90919063ffffffff16565b83613efd90919063ffffffff16565b9050919050565b613a15614e20565b6060601460008573ffffffffffffffffffffffffffffffffffffffff1673ffffffffffffffffffffffffffffffffffffffff16815260200190815260200160002080613a5f614d4e565b80602002602001604051908101604052809291908181526020016000905b82821015613b6157838290600052602060002090600602016040518060c001604052908160008201600090613ab0614d4e565b906101000a900473ffffffffffffffffffffffffffffffffffffffff1673ffffffffffffffffffffffffffffffffffffffff1673ffffffffffffffffffffffffffffffffffffffff16815260200160018201613b0a614d4e565b815260200160028201613b1b614d4e565b815260200160038201613b2c614d4e565b815260200160048201613b3d614d4e565b815260200160058201613b4e614d4e565b8152505081526020019060010190613a7d565b50505050905060008090505b8151811015613bbf5783828281518110613b8357fe5b6020026020010151608001511415613bb257818181518110613ba157fe5b602002602001015192505050613bc2565b8080600101915050613b6d565b50505b92915050565b6000613bea600b613bd7614d4e565b8360400151613fb090919063ffffffff16565b9050919050565b6000808211613c68576040517f08c379a000000000000000000000000000000000000000000000000000000000815260040180806020018281038252601a8152602001807f536166654d6174683a206469766973696f6e206279207a65726f00000000000081525060200191505060405180910390fd5b6000828481613c7357fe5b0490508091505092915050565b6000613ce17f45786368616e67655261746573000000000000000000000000000000000000006040518060400160405280601d81526020017f4d697373696e672045786368616e676552617465732061646472657373000000815250614912565b905090565b6000613d477f53797374656d53746174757300000000000000000000000000000000000000006040518060400160405280601c81526020017f4d697373696e672053797374656d537461747573206164647265737300000000815250614912565b905090565b600080828401905083811015613dca576040517f08c379a000000000000000000000000000000000000000000000000000000000815260040180806020018281038252601b8152602001807f536166654d6174683a206164646974696f6e206f766572666c6f77000000000081525060200191505060405180910390fd5b8091505092915050565b6000613df360016013613de5614d4e565b613d4c90919063ffffffff16565b60138190613dff614db6565b505050613e1f60016012613e11614d4e565b613d4c90919063ffffffff16565b60128190613e2b614db6565b5050506012613e38614d4e565b905090565b6000613e9e7f53796e74687345544800000000000000000000000000000000000000000000006040518060400160405280601981526020017f4d697373696e672053796e746873455448206164647265737300000000000000815250614912565b905090565b60008060008360a0015111905080613ed957613ed483606001515a613ec6614def565b614a3590919063ffffffff16565b613ef5565b613ef483606001518460a00151614a3590919063ffffffff16565b5b915050919050565b6000601260ff16600a0a613f1a8385613f2a90919063ffffffff16565b81613f2157fe5b04905092915050565b600080831415613f3d5760009050613faa565b6000828402905082848281613f4e57fe5b0414613fa5576040517f08c379a00000000000000000000000000000000000000000000000000000000081526004018080602001828103825260218152602001806150a06021913960400191505060405180910390fd5b809150505b92915050565b6000613fc48383601260ff16600a0a614abe565b905092915050565b6000613fe08383601260ff16600a0a614b17565b905092915050565b613ff0613ce6565b73ffffffffffffffffffffffffffffffffffffffff16637c3125416040518163ffffffff1660e01b81526004016000604051808303818680614030614e6c565b15801561403c57600080fd5b505a614046614ea3565b505050505015801561405c573d6000803e3d6000fd5b50505050614068614e20565b6140728383613a0d565b905060008160800151116140ee576040517f08c379a00000000000000000000000000000000000000000000000000000000081526004018080602001828103825260138152602001807f4c6f616e20646f6573206e6f742065786973740000000000000000000000000081525060200191505060405180910390fd5b60008160a0015114614168576040517f08c379a00000000000000000000000000000000000000000000000000000000081526004018080602001828103825260138152602001807f4c6f616e20616c726561647920636c6f7365640000000000000000000000000081525060200191505060405180910390fd5b8060400151614175613e3d565b73ffffffffffffffffffffffffffffffffffffffff166370a082315a614199614d85565b6040518263ffffffff1660e01b8152600401808273ffffffffffffffffffffffffffffffffffffffff1673ffffffffffffffffffffffffffffffffffffffff16815260200191505060206040518083038186806141f4614e6c565b15801561420057600080fd5b505a61420a614ea3565b5050505050158015614220573d6000803e3d6000fd5b505050506040513d602081101561423657600080fd5b8101908080519060200190929190505050101561429e576040517f08c379a000000000000000000000000000000000000000000000000000000000815260040180806020018281038252603e815260200180615198603e913960400191505060405180910390fd5b6142a781614b72565b6142c7816040015160116142b9614d4e565b614a3590919063ffffffff16565b601181906142d3614db6565b50505060006142ee82604001516142e984613ea3565b612e08565b905060006142fb83613bc8565b905060006143128284613d4c90919063ffffffff16565b905061431c613e3d565b73ffffffffffffffffffffffffffffffffffffffff16639dc29fac5a614340614d85565b86604001516040518363ffffffff1660e01b8152600401808373ffffffffffffffffffffffffffffffffffffffff1673ffffffffffffffffffffffffffffffffffffffff16815260200182815260200192505050600060405180830381600087806143a9614e6c565b1580156143b557600080fd5b505a6143bf614f55565b5050505050501580156143d6573d6000803e3d6000fd5b505050506143e2614c82565b73ffffffffffffffffffffffffffffffffffffffff16630c928f05826040518263ffffffff1660e01b815260040180828152602001915050602060405180830381868061442d614e6c565b15801561443957600080fd5b505a614443614ea3565b5050505050158015614459573d6000803e3d6000fd5b505050506040513d602081101561446f57600080fd5b8101908080519060200190929190505050614488614ce8565b73ffffffffffffffffffffffffffffffffffffffff166370a082316144ab614c82565b6040518263ffffffff1660e01b8152600401808273ffffffffffffffffffffffffffffffffffffffff1673ffffffffffffffffffffffffffffffffffffffff1681526020019150506020604051808303818680614506614e6c565b15801561451257600080fd5b505a61451c614ea3565b5050505050158015614532573d6000803e3d6000fd5b505050506040513d602081101561454857600080fd5b810190808051906020019092919050505010156145b0576040517f08c379a00000000000000000000000000000000000000000000000000000000081526004018080602001828103825260388152602001806151606038913960400191505060405180910390fd5b6145b8614c82565b73ffffffffffffffffffffffffffffffffffffffff16631f930115826040518263ffffffff1660e01b81526004016020604051808303818588806145fa614e6c565b15801561460657600080fd5b505a614610614f55565b505050505050158015614627573d6000803e3d6000fd5b50505050506040513d602081101561463e57600080fd5b810190808051906020019092919050505050614658614ce8565b73ffffffffffffffffffffffffffffffffffffffff1663a9059cbb73feefeefeefeefeefeefeefeefeefeefeefeefeef614690614ce8565b73ffffffffffffffffffffffffffffffffffffffff166370a082315a63996d79a5620800008160e01b81526020816004836000335af160008114156146d457600080fd5b815193505050506040518263ffffffff1660e01b8152600401808273ffffffffffffffffffffffffffffffffffffffff1673ffffffffffffffffffffffffffffffffffffffff1681526020019150506020604051808303818680614736614e6c565b15801561474257600080fd5b505a61474c614ea3565b5050505050158015614762573d6000803e3d6000fd5b505050506040513d602081101561477857600080fd5b81019080805190602001909291905050506040518363ffffffff1660e01b8152600401808373ffffffffffffffffffffffffffffffffffffffff1673ffffffffffffffffffffffffffffffffffffffff16815260200182815260200192505050602060405180830381600087806147ed614e6c565b1580156147f957600080fd5b505a614803614f55565b50505050505015801561481a573d6000803e3d6000fd5b505050506040513d602081101561483057600080fd5b8101908080519060200190929190505050505a61484b614d85565b73ffffffffffffffffffffffffffffffffffffffff166108fc61487b838760200151614a3590919063ffffffff16565b9081150290604051600060405180830381858888614897614f55565b50505050505093505050501580156148b3573d6000803e3d6000fd5b508573ffffffffffffffffffffffffffffffffffffffff167f3cc9f5d298758bad94536f27fa6a3033c2793e0a387a2d78e72550a3b8dacf1e8683604051808381526020018281526020019250505060405180910390a2505050505050565b60008060066000858152602001908152602001600020600090614933614d4e565b906101000a900473ffffffffffffffffffffffffffffffffffffffff169050600073ffffffffffffffffffffffffffffffffffffffff168173ffffffffffffffffffffffffffffffffffffffff1614158390614a2a576040517f08c379a00000000000000000000000000000000000000000000000000000000081526004018080602001828103825283818151815260200191508051906020019080838360005b838110156149ef5780820151818401526020810190506149d4565b50505050905090810190601f168015614a1c5780820380516001836020036101000a031916815260200191505b509250505060405180910390fd5b508091505092915050565b600082821115614aad576040517f08c379a000000000000000000000000000000000000000000000000000000000815260040180806020018281038252601e8152602001807f536166654d6174683a207375627472616374696f6e206f766572666c6f77000081525060200191505060405180910390fd5b600082840390508091505092915050565b600080600a8381614acb57fe5b04614adf8587613f2a90919063ffffffff16565b81614ae657fe5b0490506005600a8281614af557fe5b0610614b0257600a810190505b600a8181614b0c57fe5b049150509392505050565b600080614b4284614b34600a860288613f2a90919063ffffffff16565b613bf190919063ffffffff16565b90506005600a8281614b5057fe5b0610614b5d57600a810190505b600a8181614b6757fe5b049150509392505050565b600060146000836000015173ffffffffffffffffffffffffffffffffffffffff1673ffffffffffffffffffffffffffffffffffffffff168152602001908152602001600020905060008090505b8180614bc9614d4e565b9050811015614c51578260800151828281614be2614d4e565b8110614bea57fe5b9060005260206000209060060201600401614c03614d4e565b1415614c44575a614c12614def565b828281614c1d614d4e565b8110614c2557fe5b90600052602060002090600602016005018190614c40614db6565b5050505b8080600101915050614bbf565b50614c6f60016013614c61614d4e565b614a3590919063ffffffff16565b60138190614c7b614db6565b5050505050565b6000614ce37f4465706f740000000000000000000000000000000000000000000000000000006040518060400160405280601581526020017f4d697373696e67204465706f7420616464726573730000000000000000000000815250614912565b905090565b6000614d497f53796e74687355534400000000000000000000000000000000000000000000006040518060400160405280601981526020017f4d697373696e672053796e746873555344206164647265737300000000000000815250614912565b905090565b6320966208620800008160e01b81528360048201526020816024836000335af16000811415614d7c57600080fd5b81519450505050565b6373509064620800008160e01b81526020816004836000335af16000811415614dad57600080fd5b81519450505050565b6328dcb2a0620800008160e01b81528360048201528460248201526000816044836000335af16000811415614dea57600080fd5b505050565b63bdbf8c36620800008160e01b81526020816004836000335af16000811415614e1757600080fd5b81519450505050565b6040518060c00160405280600073ffffffffffffffffffffffffffffffffffffffff16815260200160008152602001600081526020016000815260200160008152602001600081525090565b63c3382d0f620800008160e01b81528360048201526020816024836000335af16000811415614e9a57600080fd5b81519450505050565b63fbb0f79d620800008160e01b815284600482015260005b87811015614ed9578087015181602484010152602081019050614ebb565b50888888602401836000335af16000811415614ef457600080fd5b809950505050565b6345e97ddb620800008160e01b815284600482015260005b87811015614f32578087015181602484010152602081019050614f14565b50888888602401836000335af16000811415614f4d57600080fd5b809950505050565b634c6d7c84620800008160e01b815284600482015260005b88811015614f8b578088015181602484010152602081019050614f6d565b50898989602401836000335af16000811415614fa657600080fd5b809a50505050565b60405180610300016040528060189060208202803883398082019150509050509056fe596f75206d757374206265206e6f6d696e61746564206265666f726520796f752063616e20616363657074206f776e6572736869704f776e65722063616e6e6f742073657420686967686572207468616e20484152445f43415045616368206163636f756e74206973206c696d74656420746f203530206c6f616e734c6f616e20416d6f756e7420657863656564732074686520737570706c79206361702e4f6e6c792074686520636f6e7472616374206f776e6572206d617920706572666f726d207468697320616374696f6e536166654d6174683a206d756c7469706c69636174696f6e206f766572666c6f774e6f7420656e6f7567682045544820746f206372656174652074686973206c6f616e2e20506c656173652073656520746865206d696e4c6f616e53697a655468697320616374696f6e2063616e6e6f7420626520706572666f726d6564207768696c652074686520636f6e747261637420697320706175736564496e7465726573742063616e6e6f74206265206d6f7265207468616e2031303025204150525468652073555344204465706f7420646f6573206e6f74206861766520656e6f756768207355534420746f2062757920666f722066656573596f7520646f206e6f742068617665207468652072657175697265642053796e74682062616c616e636520746f20636c6f73652074686973206c6f616e2e496e74657265737420726174652063616e6e6f74206265206c657373207468617420746865205345434f4e44535f494e5f415f59454152a265627a7a7231582061b9f2c87dd48ddc6edf60387c34c8787dbd7a5c289123d21be5cac73d4ac3b164736f6c637828302e352e31362d646576656c6f702e323032302e372e32392b636f6d6d69742e36326536346536370058",
			"opcodes": "PUSH1 0x80 PUSH1 0x40 MSTORE PUSH1 0x7D PUSH20 0x0 PUSH4 0x907AF6C0 PUSH1 0x40 MLOAD DUP2 PUSH4 0xFFFFFFFF AND PUSH1 0xE0 SHL DUP2 MSTORE PUSH1 0x4 ADD PUSH1 0x20 PUSH1 0x40 MLOAD DUP1 DUP4 SUB DUP2 DUP7 DUP1 PUSH3 0x47 PUSH3 0xA4B JUMP JUMPDEST ISZERO DUP1 ISZERO PUSH3 0x54 JUMPI PUSH1 0x0 DUP1 REVERT JUMPDEST POP GAS PUSH3 0x60 PUSH3 0xA83 JUMP JUMPDEST POP POP POP POP POP ISZERO DUP1 ISZERO PUSH3 0x77 JUMPI RETURNDATASIZE PUSH1 0x0 DUP1 RETURNDATACOPY RETURNDATASIZE PUSH1 0x0 REVERT JUMPDEST POP POP POP POP PUSH1 0x40 MLOAD RETURNDATASIZE PUSH1 0x20 DUP2 LT ISZERO PUSH3 0x8E JUMPI PUSH1 0x0 DUP1 REVERT JUMPDEST DUP2 ADD SWAP1 DUP1 DUP1 MLOAD SWAP1 PUSH1 0x20 ADD SWAP1 SWAP3 SWAP2 SWAP1 POP POP POP MUL PUSH1 0x8 PUSH3 0xAC PUSH3 0xADF JUMP JUMPDEST POP POP PUSH1 0x64 PUSH20 0x0 PUSH4 0x907AF6C0 PUSH1 0x40 MLOAD DUP2 PUSH4 0xFFFFFFFF AND PUSH1 0xE0 SHL DUP2 MSTORE PUSH1 0x4 ADD PUSH1 0x20 PUSH1 0x40 MLOAD DUP1 DUP4 SUB DUP2 DUP7 DUP1 PUSH3 0xF1 PUSH3 0xA4B JUMP JUMPDEST ISZERO DUP1 ISZERO PUSH3 0xFE JUMPI PUSH1 0x0 DUP1 REVERT JUMPDEST POP GAS PUSH3 0x10A PUSH3 0xA83 JUMP JUMPDEST POP POP POP POP POP ISZERO DUP1 ISZERO PUSH3 0x121 JUMPI RETURNDATASIZE PUSH1 0x0 DUP1 RETURNDATACOPY RETURNDATASIZE PUSH1 0x0 REVERT JUMPDEST POP POP POP POP PUSH1 0x40 MLOAD RETURNDATASIZE PUSH1 0x20 DUP2 LT ISZERO PUSH3 0x138 JUMPI PUSH1 0x0 DUP1 REVERT JUMPDEST DUP2 ADD SWAP1 DUP1 DUP1 MLOAD SWAP1 PUSH1 0x20 ADD SWAP1 SWAP3 SWAP2 SWAP1 POP POP POP PUSH1 0x5 MUL DUP2 PUSH3 0x154 JUMPI INVALID JUMPDEST DIV PUSH1 0x9 PUSH3 0x161 PUSH3 0xADF JUMP JUMPDEST POP POP PUSH3 0x18C PUSH4 0x1E13380 PUSH1 0x9 PUSH3 0x178 PUSH3 0xB19 JUMP JUMPDEST PUSH3 0x9BA PUSH1 0x20 SHL PUSH3 0x3BF1 OR SWAP1 SWAP2 SWAP1 PUSH1 0x20 SHR JUMP JUMPDEST PUSH1 0xA PUSH3 0x198 PUSH3 0xADF JUMP JUMPDEST POP POP PUSH2 0x3E8 PUSH20 0x0 PUSH4 0x907AF6C0 PUSH1 0x40 MLOAD DUP2 PUSH4 0xFFFFFFFF AND PUSH1 0xE0 SHL DUP2 MSTORE PUSH1 0x4 ADD PUSH1 0x20 PUSH1 0x40 MLOAD DUP1 DUP4 SUB DUP2 DUP7 DUP1 PUSH3 0x1DE PUSH3 0xA4B JUMP JUMPDEST ISZERO DUP1 ISZERO PUSH3 0x1EB JUMPI PUSH1 0x0 DUP1 REVERT JUMPDEST POP GAS PUSH3 0x1F7 PUSH3 0xA83 JUMP JUMPDEST POP POP POP POP POP ISZERO DUP1 ISZERO PUSH3 0x20E JUMPI RETURNDATASIZE PUSH1 0x0 DUP1 RETURNDATACOPY RETURNDATASIZE PUSH1 0x0 REVERT JUMPDEST POP POP POP POP PUSH1 0x40 MLOAD RETURNDATASIZE PUSH1 0x20 DUP2 LT ISZERO PUSH3 0x225 JUMPI PUSH1 0x0 DUP1 REVERT JUMPDEST DUP2 ADD SWAP1 DUP1 DUP1 MLOAD SWAP1 PUSH1 0x20 ADD SWAP1 SWAP3 SWAP2 SWAP1 POP POP POP PUSH1 0x5 MUL DUP2 PUSH3 0x241 JUMPI INVALID JUMPDEST DIV PUSH1 0xB PUSH3 0x24E PUSH3 0xADF JUMP JUMPDEST POP POP PUSH2 0x1388 PUSH20 0x0 PUSH4 0x907AF6C0 PUSH1 0x40 MLOAD DUP2 PUSH4 0xFFFFFFFF AND PUSH1 0xE0 SHL DUP2 MSTORE PUSH1 0x4 ADD PUSH1 0x20 PUSH1 0x40 MLOAD DUP1 DUP4 SUB DUP2 DUP7 DUP1 PUSH3 0x294 PUSH3 0xA4B JUMP JUMPDEST ISZERO DUP1 ISZERO PUSH3 0x2A1 JUMPI PUSH1 0x0 DUP1 REVERT JUMPDEST POP GAS PUSH3 0x2AD PUSH3 0xA83 JUMP JUMPDEST POP POP POP POP POP ISZERO DUP1 ISZERO PUSH3 0x2C4 JUMPI RETURNDATASIZE PUSH1 0x0 DUP1 RETURNDATACOPY RETURNDATASIZE PUSH1 0x0 REVERT JUMPDEST POP POP POP POP PUSH1 0x40 MLOAD RETURNDATASIZE PUSH1 0x20 DUP2 LT ISZERO PUSH3 0x2DB JUMPI PUSH1 0x0 DUP1 REVERT JUMPDEST DUP2 ADD SWAP1 DUP1 DUP1 MLOAD SWAP1 PUSH1 0x20 ADD SWAP1 SWAP3 SWAP2 SWAP1 POP POP POP MUL PUSH1 0xC PUSH3 0x2F9 PUSH3 0xADF JUMP JUMPDEST POP POP PUSH1 0x1 PUSH20 0x0 PUSH4 0x907AF6C0 PUSH1 0x40 MLOAD DUP2 PUSH4 0xFFFFFFFF AND PUSH1 0xE0 SHL DUP2 MSTORE PUSH1 0x4 ADD PUSH1 0x20 PUSH1 0x40 MLOAD DUP1 DUP4 SUB DUP2 DUP7 DUP1 PUSH3 0x33E PUSH3 0xA4B JUMP JUMPDEST ISZERO DUP1 ISZERO PUSH3 0x34B JUMPI PUSH1 0x0 DUP1 REVERT JUMPDEST POP GAS PUSH3 0x357 PUSH3 0xA83 JUMP JUMPDEST POP POP POP POP POP ISZERO DUP1 ISZERO PUSH3 0x36E JUMPI RETURNDATASIZE PUSH1 0x0 DUP1 RETURNDATACOPY RETURNDATASIZE PUSH1 0x0 REVERT JUMPDEST POP POP POP POP PUSH1 0x40 MLOAD RETURNDATASIZE PUSH1 0x20 DUP2 LT ISZERO PUSH3 0x385 JUMPI PUSH1 0x0 DUP1 REVERT JUMPDEST DUP2 ADD SWAP1 DUP1 DUP1 MLOAD SWAP1 PUSH1 0x20 ADD SWAP1 SWAP3 SWAP2 SWAP1 POP POP POP MUL PUSH1 0xD PUSH3 0x3A3 PUSH3 0xADF JUMP JUMPDEST POP POP PUSH1 0x32 PUSH1 0xE PUSH3 0x3B3 PUSH3 0xADF JUMP JUMPDEST POP POP PUSH1 0x0 PUSH1 0xF PUSH1 0x0 PUSH2 0x100 EXP DUP2 PUSH3 0x3CA PUSH3 0xB19 JUMP JUMPDEST DUP2 PUSH1 0xFF MUL NOT AND SWAP1 DUP4 ISZERO ISZERO MUL OR SWAP1 PUSH3 0x3E1 PUSH3 0xADF JUMP JUMPDEST POP POP POP PUSH1 0x40 MLOAD DUP1 PUSH1 0xA0 ADD PUSH1 0x40 MSTORE DUP1 PUSH32 0x53797374656D5374617475730000000000000000000000000000000000000000 DUP2 MSTORE PUSH1 0x20 ADD PUSH32 0x53796E7468734554480000000000000000000000000000000000000000000000 DUP2 MSTORE PUSH1 0x20 ADD PUSH32 0x53796E7468735553440000000000000000000000000000000000000000000000 DUP2 MSTORE PUSH1 0x20 ADD PUSH32 0x4465706F74000000000000000000000000000000000000000000000000000000 DUP2 MSTORE PUSH1 0x20 ADD PUSH32 0x45786368616E6765526174657300000000000000000000000000000000000000 DUP2 MSTORE POP PUSH1 0x16 SWAP1 PUSH1 0x5 PUSH3 0x4BD SWAP3 SWAP2 SWAP1 PUSH3 0xB51 JUMP JUMPDEST POP CALLVALUE DUP1 ISZERO PUSH3 0x4CB JUMPI PUSH1 0x0 DUP1 REVERT JUMPDEST POP PUSH1 0x40 MLOAD PUSH3 0x5E7D CODESIZE SUB DUP1 PUSH3 0x5E7D DUP4 CODECOPY DUP2 DUP2 ADD PUSH1 0x40 MSTORE PUSH1 0x40 DUP2 LT ISZERO PUSH3 0x4F1 JUMPI PUSH1 0x0 DUP1 REVERT JUMPDEST DUP2 ADD SWAP1 DUP1 DUP1 MLOAD SWAP1 PUSH1 0x20 ADD SWAP1 SWAP3 SWAP2 SWAP1 DUP1 MLOAD SWAP1 PUSH1 0x20 ADD SWAP1 SWAP3 SWAP2 SWAP1 POP POP POP DUP1 PUSH1 0x16 PUSH1 0x18 DUP1 PUSH1 0x20 MUL PUSH1 0x40 MLOAD SWAP1 DUP2 ADD PUSH1 0x40 MSTORE DUP1 SWAP3 SWAP2 SWAP1 DUP3 PUSH1 0x18 DUP1 ISZERO PUSH3 0x551 JUMPI PUSH1 0x20 MUL DUP3 ADD SWAP2 JUMPDEST DUP2 PUSH3 0x53E PUSH3 0xB19 JUMP JUMPDEST DUP2 MSTORE PUSH1 0x20 ADD SWAP1 PUSH1 0x1 ADD SWAP1 DUP1 DUP4 GT PUSH3 0x533 JUMPI JUMPDEST POP POP POP POP POP DUP4 PUSH1 0x0 PUSH20 0xFFFFFFFFFFFFFFFFFFFFFFFFFFFFFFFFFFFFFFFF AND DUP2 PUSH20 0xFFFFFFFFFFFFFFFFFFFFFFFFFFFFFFFFFFFFFFFF AND EQ ISZERO PUSH3 0x5FB JUMPI PUSH1 0x40 MLOAD PUSH32 0x8C379A000000000000000000000000000000000000000000000000000000000 DUP2 MSTORE PUSH1 0x4 ADD DUP1 DUP1 PUSH1 0x20 ADD DUP3 DUP2 SUB DUP3 MSTORE PUSH1 0x19 DUP2 MSTORE PUSH1 0x20 ADD DUP1 PUSH32 0x4F776E657220616464726573732063616E6E6F74206265203000000000000000 DUP2 MSTORE POP PUSH1 0x20 ADD SWAP2 POP POP PUSH1 0x40 MLOAD DUP1 SWAP2 SUB SWAP1 REVERT JUMPDEST DUP1 PUSH1 0x0 DUP1 PUSH2 0x100 EXP DUP2 PUSH3 0x60E PUSH3 0xB19 JUMP JUMPDEST DUP2 PUSH20 0xFFFFFFFFFFFFFFFFFFFFFFFFFFFFFFFFFFFFFFFF MUL NOT AND SWAP1 DUP4 PUSH20 0xFFFFFFFFFFFFFFFFFFFFFFFFFFFFFFFFFFFFFFFF AND MUL OR SWAP1 PUSH3 0x64C PUSH3 0xADF JUMP JUMPDEST POP POP POP PUSH32 0xB532073B38C83145E3E5135377A08BF9AAB55BC0FD7C1179CD4FB995D2A5159C PUSH1 0x0 DUP3 PUSH1 0x40 MLOAD DUP1 DUP4 PUSH20 0xFFFFFFFFFFFFFFFFFFFFFFFFFFFFFFFFFFFFFFFF AND PUSH20 0xFFFFFFFFFFFFFFFFFFFFFFFFFFFFFFFFFFFFFFFF AND DUP2 MSTORE PUSH1 0x20 ADD DUP3 PUSH20 0xFFFFFFFFFFFFFFFFFFFFFFFFFFFFFFFFFFFFFFFF AND PUSH20 0xFFFFFFFFFFFFFFFFFFFFFFFFFFFFFFFFFFFFFFFF AND DUP2 MSTORE PUSH1 0x20 ADD SWAP3 POP POP POP PUSH1 0x40 MLOAD DUP1 SWAP2 SUB SWAP1 LOG1 POP PUSH1 0x0 PUSH20 0xFFFFFFFFFFFFFFFFFFFFFFFFFFFFFFFFFFFFFFFF AND PUSH1 0x0 DUP1 SWAP1 PUSH3 0x70E PUSH3 0xB19 JUMP JUMPDEST SWAP1 PUSH2 0x100 EXP SWAP1 DIV PUSH20 0xFFFFFFFFFFFFFFFFFFFFFFFFFFFFFFFFFFFFFFFF AND PUSH20 0xFFFFFFFFFFFFFFFFFFFFFFFFFFFFFFFFFFFFFFFF AND EQ ISZERO PUSH3 0x7B6 JUMPI PUSH1 0x40 MLOAD PUSH32 0x8C379A000000000000000000000000000000000000000000000000000000000 DUP2 MSTORE PUSH1 0x4 ADD DUP1 DUP1 PUSH1 0x20 ADD DUP3 DUP2 SUB DUP3 MSTORE PUSH1 0x11 DUP2 MSTORE PUSH1 0x20 ADD DUP1 PUSH32 0x4F776E6572206D75737420626520736574000000000000000000000000000000 DUP2 MSTORE POP PUSH1 0x20 ADD SWAP2 POP POP PUSH1 0x40 MLOAD DUP1 SWAP2 SUB SWAP1 REVERT JUMPDEST PUSH1 0x1 PUSH1 0x4 DUP2 SWAP1 PUSH3 0x7C6 PUSH3 0xADF JUMP JUMPDEST POP POP POP PUSH1 0x0 PUSH20 0xFFFFFFFFFFFFFFFFFFFFFFFFFFFFFFFFFFFFFFFF AND PUSH1 0x0 DUP1 SWAP1 PUSH3 0x7EF PUSH3 0xB19 JUMP JUMPDEST SWAP1 PUSH2 0x100 EXP SWAP1 DIV PUSH20 0xFFFFFFFFFFFFFFFFFFFFFFFFFFFFFFFFFFFFFFFF AND PUSH20 0xFFFFFFFFFFFFFFFFFFFFFFFFFFFFFFFFFFFFFFFF AND EQ ISZERO PUSH3 0x897 JUMPI PUSH1 0x40 MLOAD PUSH32 0x8C379A000000000000000000000000000000000000000000000000000000000 DUP2 MSTORE PUSH1 0x4 ADD DUP1 DUP1 PUSH1 0x20 ADD DUP3 DUP2 SUB DUP3 MSTORE PUSH1 0x11 DUP2 MSTORE PUSH1 0x20 ADD DUP1 PUSH32 0x4F776E6572206D75737420626520736574000000000000000000000000000000 DUP2 MSTORE POP PUSH1 0x20 ADD SWAP2 POP POP PUSH1 0x40 MLOAD DUP1 SWAP2 SUB SWAP1 REVERT JUMPDEST PUSH1 0x0 DUP1 SWAP1 POP JUMPDEST PUSH1 0x18 DUP2 LT ISZERO PUSH3 0x939 JUMPI PUSH1 0x0 DUP1 SHL DUP3 DUP3 PUSH1 0x18 DUP2 LT PUSH3 0x8B8 JUMPI INVALID JUMPDEST PUSH1 0x20 MUL ADD MLOAD EQ PUSH3 0x925 JUMPI PUSH1 0x7 DUP3 DUP3 PUSH1 0x18 DUP2 LT PUSH3 0x8D2 JUMPI INVALID JUMPDEST PUSH1 0x20 MUL ADD MLOAD SWAP1 DUP1 PUSH1 0x1 DUP2 PUSH3 0x8E6 PUSH3 0xB19 JUMP JUMPDEST ADD DUP1 DUP3 PUSH3 0x8F3 PUSH3 0xADF JUMP JUMPDEST POP POP DUP1 SWAP2 POP POP SWAP1 PUSH1 0x1 DUP3 SUB SWAP1 PUSH1 0x0 MSTORE PUSH1 0x20 PUSH1 0x0 KECCAK256 ADD PUSH1 0x0 SWAP1 SWAP2 SWAP3 SWAP1 SWAP2 SWAP1 SWAP2 POP PUSH3 0x91C PUSH3 0xADF JUMP JUMPDEST POP POP POP PUSH3 0x92B JUMP JUMPDEST PUSH3 0x939 JUMP JUMPDEST DUP1 DUP1 PUSH1 0x1 ADD SWAP2 POP POP PUSH3 0x89D JUMP JUMPDEST POP DUP2 PUSH1 0x5 PUSH1 0x0 PUSH2 0x100 EXP DUP2 PUSH3 0x94E PUSH3 0xB19 JUMP JUMPDEST DUP2 PUSH20 0xFFFFFFFFFFFFFFFFFFFFFFFFFFFFFFFFFFFFFFFF MUL NOT AND SWAP1 DUP4 PUSH20 0xFFFFFFFFFFFFFFFFFFFFFFFFFFFFFFFFFFFFFFFF AND MUL OR SWAP1 PUSH3 0x98C PUSH3 0xADF JUMP JUMPDEST POP POP POP POP POP PUSH3 0x794A00 GAS PUSH3 0x9A0 PUSH3 0xBA1 JUMP JUMPDEST ADD PUSH1 0x10 DUP2 SWAP1 PUSH3 0x9AF PUSH3 0xADF JUMP JUMPDEST POP POP POP POP POP PUSH3 0xC06 JUMP JUMPDEST PUSH1 0x0 DUP1 DUP3 GT PUSH3 0xA32 JUMPI PUSH1 0x40 MLOAD PUSH32 0x8C379A000000000000000000000000000000000000000000000000000000000 DUP2 MSTORE PUSH1 0x4 ADD DUP1 DUP1 PUSH1 0x20 ADD DUP3 DUP2 SUB DUP3 MSTORE PUSH1 0x1A DUP2 MSTORE PUSH1 0x20 ADD DUP1 PUSH32 0x536166654D6174683A206469766973696F6E206279207A65726F000000000000 DUP2 MSTORE POP PUSH1 0x20 ADD SWAP2 POP POP PUSH1 0x40 MLOAD DUP1 SWAP2 SUB SWAP1 REVERT JUMPDEST PUSH1 0x0 DUP3 DUP5 DUP2 PUSH3 0xA3E JUMPI INVALID JUMPDEST DIV SWAP1 POP DUP1 SWAP2 POP POP SWAP3 SWAP2 POP POP JUMP JUMPDEST PUSH4 0xC3382D0F PUSH3 0x80000 DUP2 PUSH1 0xE0 SHL DUP2 MSTORE DUP4 PUSH1 0x4 DUP3 ADD MSTORE PUSH1 0x20 DUP2 PUSH1 0x24 DUP4 PUSH1 0x0 CALLER GAS CALL PUSH1 0x0 DUP2 EQ ISZERO PUSH3 0xA7A JUMPI PUSH1 0x0 DUP1 REVERT JUMPDEST DUP2 MLOAD SWAP5 POP POP POP POP JUMP JUMPDEST PUSH4 0x45E97DDB PUSH3 0x80000 DUP2 PUSH1 0xE0 SHL DUP2 MSTORE DUP5 PUSH1 0x4 DUP3 ADD MSTORE PUSH1 0x0 JUMPDEST DUP8 DUP2 LT ISZERO PUSH3 0xABB JUMPI DUP1 DUP8 ADD MLOAD DUP2 PUSH1 0x24 DUP5 ADD ADD MSTORE PUSH1 0x20 DUP2 ADD SWAP1 POP PUSH3 0xA9B JUMP JUMPDEST POP DUP9 DUP9 DUP9 PUSH1 0x24 ADD DUP4 PUSH1 0x0 CALLER GAS CALL PUSH1 0x0 DUP2 EQ ISZERO PUSH3 0xAD7 JUMPI PUSH1 0x0 DUP1 REVERT JUMPDEST DUP1 SWAP10 POP POP POP POP JUMP JUMPDEST PUSH4 0x28DCB2A0 PUSH3 0x80000 DUP2 PUSH1 0xE0 SHL DUP2 MSTORE DUP4 PUSH1 0x4 DUP3 ADD MSTORE DUP5 PUSH1 0x24 DUP3 ADD MSTORE PUSH1 0x0 DUP2 PUSH1 0x44 DUP4 PUSH1 0x0 CALLER GAS CALL PUSH1 0x0 DUP2 EQ ISZERO PUSH3 0xB14 JUMPI PUSH1 0x0 DUP1 REVERT JUMPDEST POP POP POP JUMP JUMPDEST PUSH4 0x20966208 PUSH3 0x80000 DUP2 PUSH1 0xE0 SHL DUP2 MSTORE DUP4 PUSH1 0x4 DUP3 ADD MSTORE PUSH1 0x20 DUP2 PUSH1 0x24 DUP4 PUSH1 0x0 CALLER GAS CALL PUSH1 0x0 DUP2 EQ ISZERO PUSH3 0xB48 JUMPI PUSH1 0x0 DUP1 REVERT JUMPDEST DUP2 MLOAD SWAP5 POP POP POP POP JUMP JUMPDEST DUP3 PUSH1 0x18 DUP2 ADD SWAP3 DUP3 ISZERO PUSH3 0xB8E JUMPI SWAP2 PUSH1 0x20 MUL DUP3 ADD JUMPDEST DUP3 DUP2 GT ISZERO PUSH3 0xB8D JUMPI DUP3 MLOAD DUP3 PUSH3 0xB7B PUSH3 0xADF JUMP JUMPDEST POP POP SWAP2 PUSH1 0x20 ADD SWAP2 SWAP1 PUSH1 0x1 ADD SWAP1 PUSH3 0xB65 JUMP JUMPDEST JUMPDEST POP SWAP1 POP PUSH3 0xB9D SWAP2 SWAP1 PUSH3 0xBD3 JUMP JUMPDEST POP SWAP1 JUMP JUMPDEST PUSH4 0xBDBF8C36 PUSH3 0x80000 DUP2 PUSH1 0xE0 SHL DUP2 MSTORE PUSH1 0x20 DUP2 PUSH1 0x4 DUP4 PUSH1 0x0 CALLER GAS CALL PUSH1 0x0 DUP2 EQ ISZERO PUSH3 0xBCA JUMPI PUSH1 0x0 DUP1 REVERT JUMPDEST DUP2 MLOAD SWAP5 POP POP POP POP JUMP JUMPDEST PUSH3 0xC03 SWAP2 SWAP1 JUMPDEST DUP1 DUP3 GT ISZERO PUSH3 0xBFF JUMPI PUSH1 0x0 DUP2 PUSH1 0x0 SWAP1 PUSH3 0xBF3 PUSH3 0xADF JUMP JUMPDEST POP POP POP PUSH1 0x1 ADD PUSH3 0xBDA JUMP JUMPDEST POP SWAP1 JUMP JUMPDEST SWAP1 JUMP JUMPDEST PUSH2 0x5267 DUP1 PUSH3 0xC16 PUSH1 0x0 CODECOPY PUSH1 0x0 RETURN INVALID PUSH1 0x80 PUSH1 0x40 MSTORE PUSH1 0x4 CALLDATASIZE LT PUSH2 0x288 JUMPI PUSH1 0x0 CALLDATALOAD PUSH1 0xE0 SHR DUP1 PUSH4 0x8C463869 GT PUSH2 0x15A JUMPI DUP1 PUSH4 0xC6C9D828 GT PUSH2 0xC1 JUMPI DUP1 PUSH4 0xE3C1E58C GT PUSH2 0x7A JUMPI DUP1 PUSH4 0xE3C1E58C EQ PUSH2 0xEC0 JUMPI DUP1 PUSH4 0xE40108ED EQ PUSH2 0xEEF JUMPI DUP1 PUSH4 0xE5829D20 EQ PUSH2 0xF1A JUMPI DUP1 PUSH4 0xEE5F3F5C EQ PUSH2 0xF55 JUMPI DUP1 PUSH4 0xEEA8F5DA EQ PUSH2 0xF80 JUMPI DUP1 PUSH4 0xF53DFB84 EQ PUSH2 0xFAB JUMPI PUSH2 0x288 JUMP JUMPDEST DUP1 PUSH4 0xC6C9D828 EQ PUSH2 0xD5A JUMPI DUP1 PUSH4 0xCF09B4AE EQ PUSH2 0xDA9 JUMPI DUP1 PUSH4 0xD05951A0 EQ PUSH2 0xDD4 JUMPI DUP1 PUSH4 0xDCAF9C44 EQ PUSH2 0xE0F JUMPI DUP1 PUSH4 0xE220A811 EQ PUSH2 0xE3A JUMPI DUP1 PUSH4 0xE3235C91 EQ PUSH2 0xE95 JUMPI PUSH2 0x288 JUMP JUMPDEST DUP1 PUSH4 0xA2E17342 GT PUSH2 0x113 JUMPI DUP1 PUSH4 0xA2E17342 EQ PUSH2 0xB4D JUMPI DUP1 PUSH4 0xA76CDFA5 EQ PUSH2 0xBA6 JUMPI DUP1 PUSH4 0xAA754A2A EQ PUSH2 0xBE1 JUMPI DUP1 PUSH4 0xAB49848C EQ PUSH2 0xC9F JUMPI DUP1 PUSH4 0xB410A034 EQ PUSH2 0xCF2 JUMPI DUP1 PUSH4 0xBB8C6D6C EQ PUSH2 0xD1D JUMPI PUSH2 0x288 JUMP JUMPDEST DUP1 PUSH4 0x8C463869 EQ PUSH2 0x916 JUMPI DUP1 PUSH4 0x8DA5CB5B EQ PUSH2 0x985 JUMPI DUP1 PUSH4 0x8FDC8F3B EQ PUSH2 0x9DC JUMPI DUP1 PUSH4 0x91B4DED9 EQ PUSH2 0xA2B JUMPI DUP1 PUSH4 0x9F7D5688 EQ PUSH2 0xA56 JUMPI DUP1 PUSH4 0xA1C51586 EQ PUSH2 0xA81 JUMPI PUSH2 0x288 JUMP JUMPDEST DUP1 PUSH4 0x4F069F66 GT PUSH2 0x1FE JUMPI DUP1 PUSH4 0x631E1444 GT PUSH2 0x1B7 JUMPI DUP1 PUSH4 0x631E1444 EQ PUSH2 0x75B JUMPI DUP1 PUSH4 0x6B231938 EQ PUSH2 0x7C4 JUMPI DUP1 PUSH4 0x79BA5097 EQ PUSH2 0x7E2 JUMPI DUP1 PUSH4 0x7C3A00FD EQ PUSH2 0x7F9 JUMPI DUP1 PUSH4 0x7CC1F867 EQ PUSH2 0x824 JUMPI DUP1 PUSH4 0x89C937DE EQ PUSH2 0x8A7 JUMPI PUSH2 0x288 JUMP JUMPDEST DUP1 PUSH4 0x4F069F66 EQ PUSH2 0x5E9 JUMPI DUP1 PUSH4 0x50E3B2E7 EQ PUSH2 0x624 JUMPI DUP1 PUSH4 0x53A47BB7 EQ PUSH2 0x65F JUMPI DUP1 PUSH4 0x5C975ABB EQ PUSH2 0x6B6 JUMPI DUP1 PUSH4 0x5D1A2229 EQ PUSH2 0x6E5 JUMPI DUP1 PUSH4 0x5F84F302 EQ PUSH2 0x720 JUMPI PUSH2 0x288 JUMP JUMPDEST DUP1 PUSH4 0x23AA7F0F GT PUSH2 0x250 JUMPI DUP1 PUSH4 0x23AA7F0F EQ PUSH2 0x402 JUMPI DUP1 PUSH4 0x27CFF2E5 EQ PUSH2 0x42D JUMPI DUP1 PUSH4 0x2F2BF15B EQ PUSH2 0x49C JUMPI DUP1 PUSH4 0x361E2086 EQ PUSH2 0x542 JUMPI DUP1 PUSH4 0x3BE99E6F EQ PUSH2 0x56D JUMPI DUP1 PUSH4 0x4189BB49 EQ PUSH2 0x5BE JUMPI PUSH2 0x288 JUMP JUMPDEST DUP1 PUSH4 0x4F3BCEC EQ PUSH2 0x28D JUMPI DUP1 PUSH4 0x89F7FB4 EQ PUSH2 0x2E4 JUMPI DUP1 PUSH4 0x1474B279 EQ PUSH2 0x349 JUMPI DUP1 PUSH4 0x1627540C EQ PUSH2 0x374 JUMPI DUP1 PUSH4 0x16C38B3C EQ PUSH2 0x3C5 JUMPI JUMPDEST PUSH1 0x0 DUP1 REVERT JUMPDEST CALLVALUE DUP1 ISZERO PUSH2 0x299 JUMPI PUSH1 0x0 DUP1 REVERT JUMPDEST POP PUSH2 0x2A2 PUSH2 0xFFA JUMP JUMPDEST PUSH1 0x40 MLOAD DUP1 DUP3 PUSH20 0xFFFFFFFFFFFFFFFFFFFFFFFFFFFFFFFFFFFFFFFF AND PUSH20 0xFFFFFFFFFFFFFFFFFFFFFFFFFFFFFFFFFFFFFFFF AND DUP2 MSTORE PUSH1 0x20 ADD SWAP2 POP POP PUSH1 0x40 MLOAD DUP1 SWAP2 SUB SWAP1 RETURN JUMPDEST CALLVALUE DUP1 ISZERO PUSH2 0x2F0 JUMPI PUSH1 0x0 DUP1 REVERT JUMPDEST POP PUSH2 0x333 PUSH1 0x4 DUP1 CALLDATASIZE SUB PUSH1 0x20 DUP2 LT ISZERO PUSH2 0x307 JUMPI PUSH1 0x0 DUP1 REVERT JUMPDEST DUP2 ADD SWAP1 DUP1 DUP1 CALLDATALOAD PUSH20 0xFFFFFFFFFFFFFFFFFFFFFFFFFFFFFFFFFFFFFFFF AND SWAP1 PUSH1 0x20 ADD SWAP1 SWAP3 SWAP2 SWAP1 POP POP POP PUSH2 0x1027 JUMP JUMPDEST PUSH1 0x40 MLOAD DUP1 DUP3 DUP2 MSTORE PUSH1 0x20 ADD SWAP2 POP POP PUSH1 0x40 MLOAD DUP1 SWAP2 SUB SWAP1 RETURN JUMPDEST CALLVALUE DUP1 ISZERO PUSH2 0x355 JUMPI PUSH1 0x0 DUP1 REVERT JUMPDEST POP PUSH2 0x35E PUSH2 0x1046 JUMP JUMPDEST PUSH1 0x40 MLOAD DUP1 DUP3 DUP2 MSTORE PUSH1 0x20 ADD SWAP2 POP POP PUSH1 0x40 MLOAD DUP1 SWAP2 SUB SWAP1 RETURN JUMPDEST CALLVALUE DUP1 ISZERO PUSH2 0x380 JUMPI PUSH1 0x0 DUP1 REVERT JUMPDEST POP PUSH2 0x3C3 PUSH1 0x4 DUP1 CALLDATASIZE SUB PUSH1 0x20 DUP2 LT ISZERO PUSH2 0x397 JUMPI PUSH1 0x0 DUP1 REVERT JUMPDEST DUP2 ADD SWAP1 DUP1 DUP1 CALLDATALOAD PUSH20 0xFFFFFFFFFFFFFFFFFFFFFFFFFFFFFFFFFFFFFFFF AND SWAP1 PUSH1 0x20 ADD SWAP1 SWAP3 SWAP2 SWAP1 POP POP POP PUSH2 0x1053 JUMP JUMPDEST STOP JUMPDEST CALLVALUE DUP1 ISZERO PUSH2 0x3D1 JUMPI PUSH1 0x0 DUP1 REVERT JUMPDEST POP PUSH2 0x400 PUSH1 0x4 DUP1 CALLDATASIZE SUB PUSH1 0x20 DUP2 LT ISZERO PUSH2 0x3E8 JUMPI PUSH1 0x0 DUP1 REVERT JUMPDEST DUP2 ADD SWAP1 DUP1 DUP1 CALLDATALOAD ISZERO ISZERO SWAP1 PUSH1 0x20 ADD SWAP1 SWAP3 SWAP2 SWAP1 POP POP POP PUSH2 0x11BE JUMP JUMPDEST STOP JUMPDEST CALLVALUE DUP1 ISZERO PUSH2 0x40E JUMPI PUSH1 0x0 DUP1 REVERT JUMPDEST POP PUSH2 0x417 PUSH2 0x134D JUMP JUMPDEST PUSH1 0x40 MLOAD DUP1 DUP3 DUP2 MSTORE PUSH1 0x20 ADD SWAP2 POP POP PUSH1 0x40 MLOAD DUP1 SWAP2 SUB SWAP1 RETURN JUMPDEST CALLVALUE DUP1 ISZERO PUSH2 0x439 JUMPI PUSH1 0x0 DUP1 REVERT JUMPDEST POP PUSH2 0x486 PUSH1 0x4 DUP1 CALLDATASIZE SUB PUSH1 0x40 DUP2 LT ISZERO PUSH2 0x450 JUMPI PUSH1 0x0 DUP1 REVERT JUMPDEST DUP2 ADD SWAP1 DUP1 DUP1 CALLDATALOAD PUSH20 0xFFFFFFFFFFFFFFFFFFFFFFFFFFFFFFFFFFFFFFFF AND SWAP1 PUSH1 0x20 ADD SWAP1 SWAP3 SWAP2 SWAP1 DUP1 CALLDATALOAD SWAP1 PUSH1 0x20 ADD SWAP1 SWAP3 SWAP2 SWAP1 POP POP POP PUSH2 0x135A JUMP JUMPDEST PUSH1 0x40 MLOAD DUP1 DUP3 DUP2 MSTORE PUSH1 0x20 ADD SWAP2 POP POP PUSH1 0x40 MLOAD DUP1 SWAP2 SUB SWAP1 RETURN JUMPDEST CALLVALUE DUP1 ISZERO PUSH2 0x4A8 JUMPI PUSH1 0x0 DUP1 REVERT JUMPDEST POP PUSH2 0x4EB PUSH1 0x4 DUP1 CALLDATASIZE SUB PUSH1 0x20 DUP2 LT ISZERO PUSH2 0x4BF JUMPI PUSH1 0x0 DUP1 REVERT JUMPDEST DUP2 ADD SWAP1 DUP1 DUP1 CALLDATALOAD PUSH20 0xFFFFFFFFFFFFFFFFFFFFFFFFFFFFFFFFFFFFFFFF AND SWAP1 PUSH1 0x20 ADD SWAP1 SWAP3 SWAP2 SWAP1 POP POP POP PUSH2 0x1382 JUMP JUMPDEST PUSH1 0x40 MLOAD DUP1 DUP1 PUSH1 0x20 ADD DUP3 DUP2 SUB DUP3 MSTORE DUP4 DUP2 DUP2 MLOAD DUP2 MSTORE PUSH1 0x20 ADD SWAP2 POP DUP1 MLOAD SWAP1 PUSH1 0x20 ADD SWAP1 PUSH1 0x20 MUL DUP1 DUP4 DUP4 PUSH1 0x0 JUMPDEST DUP4 DUP2 LT ISZERO PUSH2 0x52E JUMPI DUP1 DUP3 ADD MLOAD DUP2 DUP5 ADD MSTORE PUSH1 0x20 DUP2 ADD SWAP1 POP PUSH2 0x513 JUMP JUMPDEST POP POP POP POP SWAP1 POP ADD SWAP3 POP POP POP PUSH1 0x40 MLOAD DUP1 SWAP2 SUB SWAP1 RETURN JUMPDEST CALLVALUE DUP1 ISZERO PUSH2 0x54E JUMPI PUSH1 0x0 DUP1 REVERT JUMPDEST POP PUSH2 0x557 PUSH2 0x160D JUMP JUMPDEST PUSH1 0x40 MLOAD DUP1 DUP3 DUP2 MSTORE PUSH1 0x20 ADD SWAP2 POP POP PUSH1 0x40 MLOAD DUP1 SWAP2 SUB SWAP1 RETURN JUMPDEST CALLVALUE DUP1 ISZERO PUSH2 0x579 JUMPI PUSH1 0x0 DUP1 REVERT JUMPDEST POP PUSH2 0x5BC PUSH1 0x4 DUP1 CALLDATASIZE SUB PUSH1 0x20 DUP2 LT ISZERO PUSH2 0x590 JUMPI PUSH1 0x0 DUP1 REVERT JUMPDEST DUP2 ADD SWAP1 DUP1 DUP1 CALLDATALOAD PUSH20 0xFFFFFFFFFFFFFFFFFFFFFFFFFFFFFFFFFFFFFFFF AND SWAP1 PUSH1 0x20 ADD SWAP1 SWAP3 SWAP2 SWAP1 POP POP POP PUSH2 0x161A JUMP JUMPDEST STOP JUMPDEST CALLVALUE DUP1 ISZERO PUSH2 0x5CA JUMPI PUSH1 0x0 DUP1 REVERT JUMPDEST POP PUSH2 0x5D3 PUSH2 0x18D7 JUMP JUMPDEST PUSH1 0x40 MLOAD DUP1 DUP3 DUP2 MSTORE PUSH1 0x20 ADD SWAP2 POP POP PUSH1 0x40 MLOAD DUP1 SWAP2 SUB SWAP1 RETURN JUMPDEST CALLVALUE DUP1 ISZERO PUSH2 0x5F5 JUMPI PUSH1 0x0 DUP1 REVERT JUMPDEST POP PUSH2 0x622 PUSH1 0x4 DUP1 CALLDATASIZE SUB PUSH1 0x20 DUP2 LT ISZERO PUSH2 0x60C JUMPI PUSH1 0x0 DUP1 REVERT JUMPDEST DUP2 ADD SWAP1 DUP1 DUP1 CALLDATALOAD SWAP1 PUSH1 0x20 ADD SWAP1 SWAP3 SWAP2 SWAP1 POP POP POP PUSH2 0x18E4 JUMP JUMPDEST STOP JUMPDEST CALLVALUE DUP1 ISZERO PUSH2 0x630 JUMPI PUSH1 0x0 DUP1 REVERT JUMPDEST POP PUSH2 0x65D PUSH1 0x4 DUP1 CALLDATASIZE SUB PUSH1 0x20 DUP2 LT ISZERO PUSH2 0x647 JUMPI PUSH1 0x0 DUP1 REVERT JUMPDEST DUP2 ADD SWAP1 DUP1 DUP1 CALLDATALOAD SWAP1 PUSH1 0x20 ADD SWAP1 SWAP3 SWAP2 SWAP1 POP POP POP PUSH2 0x19EB JUMP JUMPDEST STOP JUMPDEST CALLVALUE DUP1 ISZERO PUSH2 0x66B JUMPI PUSH1 0x0 DUP1 REVERT JUMPDEST POP PUSH2 0x674 PUSH2 0x1AF2 JUMP JUMPDEST PUSH1 0x40 MLOAD DUP1 DUP3 PUSH20 0xFFFFFFFFFFFFFFFFFFFFFFFFFFFFFFFFFFFFFFFF AND PUSH20 0xFFFFFFFFFFFFFFFFFFFFFFFFFFFFFFFFFFFFFFFF AND DUP2 MSTORE PUSH1 0x20 ADD SWAP2 POP POP PUSH1 0x40 MLOAD DUP1 SWAP2 SUB SWAP1 RETURN JUMPDEST CALLVALUE DUP1 ISZERO PUSH2 0x6C2 JUMPI PUSH1 0x0 DUP1 REVERT JUMPDEST POP PUSH2 0x6CB PUSH2 0x1B1F JUMP JUMPDEST PUSH1 0x40 MLOAD DUP1 DUP3 ISZERO ISZERO ISZERO ISZERO DUP2 MSTORE PUSH1 0x20 ADD SWAP2 POP POP PUSH1 0x40 MLOAD DUP1 SWAP2 SUB SWAP1 RETURN JUMPDEST CALLVALUE DUP1 ISZERO PUSH2 0x6F1 JUMPI PUSH1 0x0 DUP1 REVERT JUMPDEST POP PUSH2 0x71E PUSH1 0x4 DUP1 CALLDATASIZE SUB PUSH1 0x20 DUP2 LT ISZERO PUSH2 0x708 JUMPI PUSH1 0x0 DUP1 REVERT JUMPDEST DUP2 ADD SWAP1 DUP1 DUP1 CALLDATALOAD SWAP1 PUSH1 0x20 ADD SWAP1 SWAP3 SWAP2 SWAP1 POP POP POP PUSH2 0x1B39 JUMP JUMPDEST STOP JUMPDEST CALLVALUE DUP1 ISZERO PUSH2 0x72C JUMPI PUSH1 0x0 DUP1 REVERT JUMPDEST POP PUSH2 0x759 PUSH1 0x4 DUP1 CALLDATASIZE SUB PUSH1 0x20 DUP2 LT ISZERO PUSH2 0x743 JUMPI PUSH1 0x0 DUP1 REVERT JUMPDEST DUP2 ADD SWAP1 DUP1 DUP1 CALLDATALOAD SWAP1 PUSH1 0x20 ADD SWAP1 SWAP3 SWAP2 SWAP1 POP POP POP PUSH2 0x1CA0 JUMP JUMPDEST STOP JUMPDEST CALLVALUE DUP1 ISZERO PUSH2 0x767 JUMPI PUSH1 0x0 DUP1 REVERT JUMPDEST POP PUSH2 0x7AA PUSH1 0x4 DUP1 CALLDATASIZE SUB PUSH1 0x20 DUP2 LT ISZERO PUSH2 0x77E JUMPI PUSH1 0x0 DUP1 REVERT JUMPDEST DUP2 ADD SWAP1 DUP1 DUP1 CALLDATALOAD PUSH20 0xFFFFFFFFFFFFFFFFFFFFFFFFFFFFFFFFFFFFFFFF AND SWAP1 PUSH1 0x20 ADD SWAP1 SWAP3 SWAP2 SWAP1 POP POP POP PUSH2 0x1F13 JUMP JUMPDEST PUSH1 0x40 MLOAD DUP1 DUP3 ISZERO ISZERO ISZERO ISZERO DUP2 MSTORE PUSH1 0x20 ADD SWAP2 POP POP PUSH1 0x40 MLOAD DUP1 SWAP2 SUB SWAP1 RETURN JUMPDEST PUSH2 0x7CC PUSH2 0x2189 JUMP JUMPDEST PUSH1 0x40 MLOAD DUP1 DUP3 DUP2 MSTORE PUSH1 0x20 ADD SWAP2 POP POP PUSH1 0x40 MLOAD DUP1 SWAP2 SUB SWAP1 RETURN JUMPDEST CALLVALUE DUP1 ISZERO PUSH2 0x7EE JUMPI PUSH1 0x0 DUP1 REVERT JUMPDEST POP PUSH2 0x7F7 PUSH2 0x2977 JUMP JUMPDEST STOP JUMPDEST CALLVALUE DUP1 ISZERO PUSH2 0x805 JUMPI PUSH1 0x0 DUP1 REVERT JUMPDEST POP PUSH2 0x80E PUSH2 0x2BE1 JUMP JUMPDEST PUSH1 0x40 MLOAD DUP1 DUP3 DUP2 MSTORE PUSH1 0x20 ADD SWAP2 POP POP PUSH1 0x40 MLOAD DUP1 SWAP2 SUB SWAP1 RETURN JUMPDEST CALLVALUE DUP1 ISZERO PUSH2 0x830 JUMPI PUSH1 0x0 DUP1 REVERT JUMPDEST POP PUSH2 0x839 PUSH2 0x2BEE JUMP JUMPDEST PUSH1 0x40 MLOAD DUP1 DUP15 DUP2 MSTORE PUSH1 0x20 ADD DUP14 DUP2 MSTORE PUSH1 0x20 ADD DUP13 DUP2 MSTORE PUSH1 0x20 ADD DUP12 DUP2 MSTORE PUSH1 0x20 ADD DUP11 DUP2 MSTORE PUSH1 0x20 ADD DUP10 DUP2 MSTORE PUSH1 0x20 ADD DUP9 DUP2 MSTORE PUSH1 0x20 ADD DUP8 DUP2 MSTORE PUSH1 0x20 ADD DUP7 DUP2 MSTORE PUSH1 0x20 ADD DUP6 DUP2 MSTORE PUSH1 0x20 ADD DUP5 DUP2 MSTORE PUSH1 0x20 ADD DUP4 DUP2 MSTORE PUSH1 0x20 ADD DUP3 ISZERO ISZERO ISZERO ISZERO DUP2 MSTORE PUSH1 0x20 ADD SWAP14 POP POP POP POP POP POP POP POP POP POP POP POP POP POP PUSH1 0x40 MLOAD DUP1 SWAP2 SUB SWAP1 RETURN JUMPDEST CALLVALUE DUP1 ISZERO PUSH2 0x8B3 JUMPI PUSH1 0x0 DUP1 REVERT JUMPDEST POP PUSH2 0x900 PUSH1 0x4 DUP1 CALLDATASIZE SUB PUSH1 0x40 DUP2 LT ISZERO PUSH2 0x8CA JUMPI PUSH1 0x0 DUP1 REVERT JUMPDEST DUP2 ADD SWAP1 DUP1 DUP1 CALLDATALOAD PUSH20 0xFFFFFFFFFFFFFFFFFFFFFFFFFFFFFFFFFFFFFFFF AND SWAP1 PUSH1 0x20 ADD SWAP1 SWAP3 SWAP2 SWAP1 DUP1 CALLDATALOAD SWAP1 PUSH1 0x20 ADD SWAP1 SWAP3 SWAP2 SWAP1 POP POP POP PUSH2 0x2CAF JUMP JUMPDEST PUSH1 0x40 MLOAD DUP1 DUP3 DUP2 MSTORE PUSH1 0x20 ADD SWAP2 POP POP PUSH1 0x40 MLOAD DUP1 SWAP2 SUB SWAP1 RETURN JUMPDEST CALLVALUE DUP1 ISZERO PUSH2 0x922 JUMPI PUSH1 0x0 DUP1 REVERT JUMPDEST POP PUSH2 0x96F PUSH1 0x4 DUP1 CALLDATASIZE SUB PUSH1 0x40 DUP2 LT ISZERO PUSH2 0x939 JUMPI PUSH1 0x0 DUP1 REVERT JUMPDEST DUP2 ADD SWAP1 DUP1 DUP1 CALLDATALOAD PUSH20 0xFFFFFFFFFFFFFFFFFFFFFFFFFFFFFFFFFFFFFFFF AND SWAP1 PUSH1 0x20 ADD SWAP1 SWAP3 SWAP2 SWAP1 DUP1 CALLDATALOAD SWAP1 PUSH1 0x20 ADD SWAP1 SWAP3 SWAP2 SWAP1 POP POP POP PUSH2 0x2CEA JUMP JUMPDEST PUSH1 0x40 MLOAD DUP1 DUP3 DUP2 MSTORE PUSH1 0x20 ADD SWAP2 POP POP PUSH1 0x40 MLOAD DUP1 SWAP2 SUB SWAP1 RETURN JUMPDEST CALLVALUE DUP1 ISZERO PUSH2 0x991 JUMPI PUSH1 0x0 DUP1 REVERT JUMPDEST POP PUSH2 0x99A PUSH2 0x2D12 JUMP JUMPDEST PUSH1 0x40 MLOAD DUP1 DUP3 PUSH20 0xFFFFFFFFFFFFFFFFFFFFFFFFFFFFFFFFFFFFFFFF AND PUSH20 0xFFFFFFFFFFFFFFFFFFFFFFFFFFFFFFFFFFFFFFFF AND DUP2 MSTORE PUSH1 0x20 ADD SWAP2 POP POP PUSH1 0x40 MLOAD DUP1 SWAP2 SUB SWAP1 RETURN JUMPDEST CALLVALUE DUP1 ISZERO PUSH2 0x9E8 JUMPI PUSH1 0x0 DUP1 REVERT JUMPDEST POP PUSH2 0xA15 PUSH1 0x4 DUP1 CALLDATASIZE SUB PUSH1 0x20 DUP2 LT ISZERO PUSH2 0x9FF JUMPI PUSH1 0x0 DUP1 REVERT JUMPDEST DUP2 ADD SWAP1 DUP1 DUP1 CALLDATALOAD SWAP1 PUSH1 0x20 ADD SWAP1 SWAP3 SWAP2 SWAP1 POP POP POP PUSH2 0x2D3E JUMP JUMPDEST PUSH1 0x40 MLOAD DUP1 DUP3 DUP2 MSTORE PUSH1 0x20 ADD SWAP2 POP POP PUSH1 0x40 MLOAD DUP1 SWAP2 SUB SWAP1 RETURN JUMPDEST CALLVALUE DUP1 ISZERO PUSH2 0xA37 JUMPI PUSH1 0x0 DUP1 REVERT JUMPDEST POP PUSH2 0xA40 PUSH2 0x2D61 JUMP JUMPDEST PUSH1 0x40 MLOAD DUP1 DUP3 DUP2 MSTORE PUSH1 0x20 ADD SWAP2 POP POP PUSH1 0x40 MLOAD DUP1 SWAP2 SUB SWAP1 RETURN JUMPDEST CALLVALUE DUP1 ISZERO PUSH2 0xA62 JUMPI PUSH1 0x0 DUP1 REVERT JUMPDEST POP PUSH2 0xA6B PUSH2 0x2D6E JUMP JUMPDEST PUSH1 0x40 MLOAD DUP1 DUP3 DUP2 MSTORE PUSH1 0x20 ADD SWAP2 POP POP PUSH1 0x40 MLOAD DUP1 SWAP2 SUB SWAP1 RETURN JUMPDEST CALLVALUE DUP1 ISZERO PUSH2 0xA8D JUMPI PUSH1 0x0 DUP1 REVERT JUMPDEST POP PUSH2 0xADA PUSH1 0x4 DUP1 CALLDATASIZE SUB PUSH1 0x40 DUP2 LT ISZERO PUSH2 0xAA4 JUMPI PUSH1 0x0 DUP1 REVERT JUMPDEST DUP2 ADD SWAP1 DUP1 DUP1 CALLDATALOAD PUSH20 0xFFFFFFFFFFFFFFFFFFFFFFFFFFFFFFFFFFFFFFFF AND SWAP1 PUSH1 0x20 ADD SWAP1 SWAP3 SWAP2 SWAP1 DUP1 CALLDATALOAD SWAP1 PUSH1 0x20 ADD SWAP1 SWAP3 SWAP2 SWAP1 POP POP POP PUSH2 0x2D7B JUMP JUMPDEST PUSH1 0x40 MLOAD DUP1 DUP10 PUSH20 0xFFFFFFFFFFFFFFFFFFFFFFFFFFFFFFFFFFFFFFFF AND PUSH20 0xFFFFFFFFFFFFFFFFFFFFFFFFFFFFFFFFFFFFFFFF AND DUP2 MSTORE PUSH1 0x20 ADD DUP9 DUP2 MSTORE PUSH1 0x20 ADD DUP8 DUP2 MSTORE PUSH1 0x20 ADD DUP7 DUP2 MSTORE PUSH1 0x20 ADD DUP6 DUP2 MSTORE PUSH1 0x20 ADD DUP5 DUP2 MSTORE PUSH1 0x20 ADD DUP4 DUP2 MSTORE PUSH1 0x20 ADD DUP3 DUP2 MSTORE PUSH1 0x20 ADD SWAP9 POP POP POP POP POP POP POP POP POP PUSH1 0x40 MLOAD DUP1 SWAP2 SUB SWAP1 RETURN JUMPDEST CALLVALUE DUP1 ISZERO PUSH2 0xB59 JUMPI PUSH1 0x0 DUP1 REVERT JUMPDEST POP PUSH2 0xB90 PUSH1 0x4 DUP1 CALLDATASIZE SUB PUSH1 0x40 DUP2 LT ISZERO PUSH2 0xB70 JUMPI PUSH1 0x0 DUP1 REVERT JUMPDEST DUP2 ADD SWAP1 DUP1 DUP1 CALLDATALOAD SWAP1 PUSH1 0x20 ADD SWAP1 SWAP3 SWAP2 SWAP1 DUP1 CALLDATALOAD SWAP1 PUSH1 0x20 ADD SWAP1 SWAP3 SWAP2 SWAP1 POP POP POP PUSH2 0x2E08 JUMP JUMPDEST PUSH1 0x40 MLOAD DUP1 DUP3 DUP2 MSTORE PUSH1 0x20 ADD SWAP2 POP POP PUSH1 0x40 MLOAD DUP1 SWAP2 SUB SWAP1 RETURN JUMPDEST CALLVALUE DUP1 ISZERO PUSH2 0xBB2 JUMPI PUSH1 0x0 DUP1 REVERT JUMPDEST POP PUSH2 0xBDF PUSH1 0x4 DUP1 CALLDATASIZE SUB PUSH1 0x20 DUP2 LT ISZERO PUSH2 0xBC9 JUMPI PUSH1 0x0 DUP1 REVERT JUMPDEST DUP2 ADD SWAP1 DUP1 DUP1 CALLDATALOAD SWAP1 PUSH1 0x20 ADD SWAP1 SWAP3 SWAP2 SWAP1 POP POP POP PUSH2 0x2E40 JUMP JUMPDEST STOP JUMPDEST CALLVALUE DUP1 ISZERO PUSH2 0xBED JUMPI PUSH1 0x0 DUP1 REVERT JUMPDEST POP PUSH2 0xC3A PUSH1 0x4 DUP1 CALLDATASIZE SUB PUSH1 0x40 DUP2 LT ISZERO PUSH2 0xC04 JUMPI PUSH1 0x0 DUP1 REVERT JUMPDEST DUP2 ADD SWAP1 DUP1 DUP1 CALLDATALOAD PUSH20 0xFFFFFFFFFFFFFFFFFFFFFFFFFFFFFFFFFFFFFFFF AND SWAP1 PUSH1 0x20 ADD SWAP1 SWAP3 SWAP2 SWAP1 DUP1 CALLDATALOAD SWAP1 PUSH1 0x20 ADD SWAP1 SWAP3 SWAP2 SWAP1 POP POP POP PUSH2 0x2F47 JUMP JUMPDEST PUSH1 0x40 MLOAD DUP1 DUP8 PUSH20 0xFFFFFFFFFFFFFFFFFFFFFFFFFFFFFFFFFFFFFFFF AND PUSH20 0xFFFFFFFFFFFFFFFFFFFFFFFFFFFFFFFFFFFFFFFF AND DUP2 MSTORE PUSH1 0x20 ADD DUP7 DUP2 MSTORE PUSH1 0x20 ADD DUP6 DUP2 MSTORE PUSH1 0x20 ADD DUP5 DUP2 MSTORE PUSH1 0x20 ADD DUP4 DUP2 MSTORE PUSH1 0x20 ADD DUP3 DUP2 MSTORE PUSH1 0x20 ADD SWAP7 POP POP POP POP POP POP POP PUSH1 0x40 MLOAD DUP1 SWAP2 SUB SWAP1 RETURN JUMPDEST CALLVALUE DUP1 ISZERO PUSH2 0xCAB JUMPI PUSH1 0x0 DUP1 REVERT JUMPDEST POP PUSH2 0xCB4 PUSH2 0x2FEE JUMP JUMPDEST PUSH1 0x40 MLOAD DUP1 DUP3 PUSH1 0x18 PUSH1 0x20 MUL DUP1 DUP4 DUP4 PUSH1 0x0 JUMPDEST DUP4 DUP2 LT ISZERO PUSH2 0xCDF JUMPI DUP1 DUP3 ADD MLOAD DUP2 DUP5 ADD MSTORE PUSH1 0x20 DUP2 ADD SWAP1 POP PUSH2 0xCC4 JUMP JUMPDEST POP POP POP POP SWAP1 POP ADD SWAP2 POP POP PUSH1 0x40 MLOAD DUP1 SWAP2 SUB SWAP1 RETURN JUMPDEST CALLVALUE DUP1 ISZERO PUSH2 0xCFE JUMPI PUSH1 0x0 DUP1 REVERT JUMPDEST POP PUSH2 0xD07 PUSH2 0x305C JUMP JUMPDEST PUSH1 0x40 MLOAD DUP1 DUP3 DUP2 MSTORE PUSH1 0x20 ADD SWAP2 POP POP PUSH1 0x40 MLOAD DUP1 SWAP2 SUB SWAP1 RETURN JUMPDEST CALLVALUE DUP1 ISZERO PUSH2 0xD29 JUMPI PUSH1 0x0 DUP1 REVERT JUMPDEST POP PUSH2 0xD58 PUSH1 0x4 DUP1 CALLDATASIZE SUB PUSH1 0x20 DUP2 LT ISZERO PUSH2 0xD40 JUMPI PUSH1 0x0 DUP1 REVERT JUMPDEST DUP2 ADD SWAP1 DUP1 DUP1 CALLDATALOAD ISZERO ISZERO SWAP1 PUSH1 0x20 ADD SWAP1 SWAP3 SWAP2 SWAP1 POP POP POP PUSH2 0x3088 JUMP JUMPDEST STOP JUMPDEST CALLVALUE DUP1 ISZERO PUSH2 0xD66 JUMPI PUSH1 0x0 DUP1 REVERT JUMPDEST POP PUSH2 0xD93 PUSH1 0x4 DUP1 CALLDATASIZE SUB PUSH1 0x20 DUP2 LT ISZERO PUSH2 0xD7D JUMPI PUSH1 0x0 DUP1 REVERT JUMPDEST DUP2 ADD SWAP1 DUP1 DUP1 CALLDATALOAD SWAP1 PUSH1 0x20 ADD SWAP1 SWAP3 SWAP2 SWAP1 POP POP POP PUSH2 0x3240 JUMP JUMPDEST PUSH1 0x40 MLOAD DUP1 DUP3 DUP2 MSTORE PUSH1 0x20 ADD SWAP2 POP POP PUSH1 0x40 MLOAD DUP1 SWAP2 SUB SWAP1 RETURN JUMPDEST CALLVALUE DUP1 ISZERO PUSH2 0xDB5 JUMPI PUSH1 0x0 DUP1 REVERT JUMPDEST POP PUSH2 0xDBE PUSH2 0x326F JUMP JUMPDEST PUSH1 0x40 MLOAD DUP1 DUP3 DUP2 MSTORE PUSH1 0x20 ADD SWAP2 POP POP PUSH1 0x40 MLOAD DUP1 SWAP2 SUB SWAP1 RETURN JUMPDEST CALLVALUE DUP1 ISZERO PUSH2 0xDE0 JUMPI PUSH1 0x0 DUP1 REVERT JUMPDEST POP PUSH2 0xE0D PUSH1 0x4 DUP1 CALLDATASIZE SUB PUSH1 0x20 DUP2 LT ISZERO PUSH2 0xDF7 JUMPI PUSH1 0x0 DUP1 REVERT JUMPDEST DUP2 ADD SWAP1 DUP1 DUP1 CALLDATALOAD SWAP1 PUSH1 0x20 ADD SWAP1 SWAP3 SWAP2 SWAP1 POP POP POP PUSH2 0x327C JUMP JUMPDEST STOP JUMPDEST CALLVALUE DUP1 ISZERO PUSH2 0xE1B JUMPI PUSH1 0x0 DUP1 REVERT JUMPDEST POP PUSH2 0xE24 PUSH2 0x3477 JUMP JUMPDEST PUSH1 0x40 MLOAD DUP1 DUP3 DUP2 MSTORE PUSH1 0x20 ADD SWAP2 POP POP PUSH1 0x40 MLOAD DUP1 SWAP2 SUB SWAP1 RETURN JUMPDEST CALLVALUE DUP1 ISZERO PUSH2 0xE46 JUMPI PUSH1 0x0 DUP1 REVERT JUMPDEST POP PUSH2 0xE93 PUSH1 0x4 DUP1 CALLDATASIZE SUB PUSH1 0x40 DUP2 LT ISZERO PUSH2 0xE5D JUMPI PUSH1 0x0 DUP1 REVERT JUMPDEST DUP2 ADD SWAP1 DUP1 DUP1 CALLDATALOAD PUSH20 0xFFFFFFFFFFFFFFFFFFFFFFFFFFFFFFFFFFFFFFFF AND SWAP1 PUSH1 0x20 ADD SWAP1 SWAP3 SWAP2 SWAP1 DUP1 CALLDATALOAD SWAP1 PUSH1 0x20 ADD SWAP1 SWAP3 SWAP2 SWAP1 POP POP POP PUSH2 0x3484 JUMP JUMPDEST STOP JUMPDEST CALLVALUE DUP1 ISZERO PUSH2 0xEA1 JUMPI PUSH1 0x0 DUP1 REVERT JUMPDEST POP PUSH2 0xEAA PUSH2 0x378B JUMP JUMPDEST PUSH1 0x40 MLOAD DUP1 DUP3 DUP2 MSTORE PUSH1 0x20 ADD SWAP2 POP POP PUSH1 0x40 MLOAD DUP1 SWAP2 SUB SWAP1 RETURN JUMPDEST CALLVALUE DUP1 ISZERO PUSH2 0xECC JUMPI PUSH1 0x0 DUP1 REVERT JUMPDEST POP PUSH2 0xED5 PUSH2 0x3790 JUMP JUMPDEST PUSH1 0x40 MLOAD DUP1 DUP3 ISZERO ISZERO ISZERO ISZERO DUP2 MSTORE PUSH1 0x20 ADD SWAP2 POP POP PUSH1 0x40 MLOAD DUP1 SWAP2 SUB SWAP1 RETURN JUMPDEST CALLVALUE DUP1 ISZERO PUSH2 0xEFB JUMPI PUSH1 0x0 DUP1 REVERT JUMPDEST POP PUSH2 0xF04 PUSH2 0x37AA JUMP JUMPDEST PUSH1 0x40 MLOAD DUP1 DUP3 DUP2 MSTORE PUSH1 0x20 ADD SWAP2 POP POP PUSH1 0x40 MLOAD DUP1 SWAP2 SUB SWAP1 RETURN JUMPDEST CALLVALUE DUP1 ISZERO PUSH2 0xF26 JUMPI PUSH1 0x0 DUP1 REVERT JUMPDEST POP PUSH2 0xF53 PUSH1 0x4 DUP1 CALLDATASIZE SUB PUSH1 0x20 DUP2 LT ISZERO PUSH2 0xF3D JUMPI PUSH1 0x0 DUP1 REVERT JUMPDEST DUP2 ADD SWAP1 DUP1 DUP1 CALLDATALOAD SWAP1 PUSH1 0x20 ADD SWAP1 SWAP3 SWAP2 SWAP1 POP POP POP PUSH2 0x37B7 JUMP JUMPDEST STOP JUMPDEST CALLVALUE DUP1 ISZERO PUSH2 0xF61 JUMPI PUSH1 0x0 DUP1 REVERT JUMPDEST POP PUSH2 0xF6A PUSH2 0x39B3 JUMP JUMPDEST PUSH1 0x40 MLOAD DUP1 DUP3 DUP2 MSTORE PUSH1 0x20 ADD SWAP2 POP POP PUSH1 0x40 MLOAD DUP1 SWAP2 SUB SWAP1 RETURN JUMPDEST CALLVALUE DUP1 ISZERO PUSH2 0xF8C JUMPI PUSH1 0x0 DUP1 REVERT JUMPDEST POP PUSH2 0xF95 PUSH2 0x39C0 JUMP JUMPDEST PUSH1 0x40 MLOAD DUP1 DUP3 DUP2 MSTORE PUSH1 0x20 ADD SWAP2 POP POP PUSH1 0x40 MLOAD DUP1 SWAP2 SUB SWAP1 RETURN JUMPDEST CALLVALUE DUP1 ISZERO PUSH2 0xFB7 JUMPI PUSH1 0x0 DUP1 REVERT JUMPDEST POP PUSH2 0xFE4 PUSH1 0x4 DUP1 CALLDATASIZE SUB PUSH1 0x20 DUP2 LT ISZERO PUSH2 0xFCE JUMPI PUSH1 0x0 DUP1 REVERT JUMPDEST DUP2 ADD SWAP1 DUP1 DUP1 CALLDATALOAD SWAP1 PUSH1 0x20 ADD SWAP1 SWAP3 SWAP2 SWAP1 POP POP POP PUSH2 0x39CD JUMP JUMPDEST PUSH1 0x40 MLOAD DUP1 DUP3 DUP2 MSTORE PUSH1 0x20 ADD SWAP2 POP POP PUSH1 0x40 MLOAD DUP1 SWAP2 SUB SWAP1 RETURN JUMPDEST PUSH1 0x5 PUSH1 0x0 SWAP1 PUSH2 0x1007 PUSH2 0x4D4E JUMP JUMPDEST SWAP1 PUSH2 0x100 EXP SWAP1 DIV PUSH20 0xFFFFFFFFFFFFFFFFFFFFFFFFFFFFFFFFFFFFFFFF AND DUP2 JUMP JUMPDEST PUSH1 0x15 PUSH1 0x20 MSTORE DUP1 PUSH1 0x0 MSTORE PUSH1 0x40 PUSH1 0x0 KECCAK256 PUSH1 0x0 SWAP2 POP SWAP1 POP PUSH2 0x1043 PUSH2 0x4D4E JUMP JUMPDEST DUP2 JUMP JUMPDEST PUSH1 0xE PUSH2 0x1050 PUSH2 0x4D4E JUMP JUMPDEST DUP2 JUMP JUMPDEST PUSH1 0x0 DUP1 SWAP1 PUSH2 0x105F PUSH2 0x4D4E JUMP JUMPDEST SWAP1 PUSH2 0x100 EXP SWAP1 DIV PUSH20 0xFFFFFFFFFFFFFFFFFFFFFFFFFFFFFFFFFFFFFFFF AND PUSH20 0xFFFFFFFFFFFFFFFFFFFFFFFFFFFFFFFFFFFFFFFF AND GAS PUSH2 0x109B PUSH2 0x4D85 JUMP JUMPDEST PUSH20 0xFFFFFFFFFFFFFFFFFFFFFFFFFFFFFFFFFFFFFFFF AND EQ PUSH2 0x1107 JUMPI PUSH1 0x40 MLOAD PUSH32 0x8C379A000000000000000000000000000000000000000000000000000000000 DUP2 MSTORE PUSH1 0x4 ADD DUP1 DUP1 PUSH1 0x20 ADD DUP3 DUP2 SUB DUP3 MSTORE PUSH1 0x2F DUP2 MSTORE PUSH1 0x20 ADD DUP1 PUSH2 0x5071 PUSH1 0x2F SWAP2 CODECOPY PUSH1 0x40 ADD SWAP2 POP POP PUSH1 0x40 MLOAD DUP1 SWAP2 SUB SWAP1 REVERT JUMPDEST DUP1 PUSH1 0x1 PUSH1 0x0 PUSH2 0x100 EXP DUP2 PUSH2 0x1119 PUSH2 0x4D4E JUMP JUMPDEST DUP2 PUSH20 0xFFFFFFFFFFFFFFFFFFFFFFFFFFFFFFFFFFFFFFFF MUL NOT AND SWAP1 DUP4 PUSH20 0xFFFFFFFFFFFFFFFFFFFFFFFFFFFFFFFFFFFFFFFF AND MUL OR SWAP1 PUSH2 0x1155 PUSH2 0x4DB6 JUMP JUMPDEST POP POP POP PUSH32 0x906A1C6BD7E3091EA86693DD029A831C19049CE77F1DCE2CE0BAB1CACBABCE22 DUP2 PUSH1 0x40 MLOAD DUP1 DUP3 PUSH20 0xFFFFFFFFFFFFFFFFFFFFFFFFFFFFFFFFFFFFFFFF AND PUSH20 0xFFFFFFFFFFFFFFFFFFFFFFFFFFFFFFFFFFFFFFFF AND DUP2 MSTORE PUSH1 0x20 ADD SWAP2 POP POP PUSH1 0x40 MLOAD DUP1 SWAP2 SUB SWAP1 LOG1 POP JUMP JUMPDEST PUSH1 0x0 DUP1 SWAP1 PUSH2 0x11CA PUSH2 0x4D4E JUMP JUMPDEST SWAP1 PUSH2 0x100 EXP SWAP1 DIV PUSH20 0xFFFFFFFFFFFFFFFFFFFFFFFFFFFFFFFFFFFFFFFF AND PUSH20 0xFFFFFFFFFFFFFFFFFFFFFFFFFFFFFFFFFFFFFFFF AND GAS PUSH2 0x1206 PUSH2 0x4D85 JUMP JUMPDEST PUSH20 0xFFFFFFFFFFFFFFFFFFFFFFFFFFFFFFFFFFFFFFFF AND EQ PUSH2 0x1272 JUMPI PUSH1 0x40 MLOAD PUSH32 0x8C379A000000000000000000000000000000000000000000000000000000000 DUP2 MSTORE PUSH1 0x4 ADD DUP1 DUP1 PUSH1 0x20 ADD DUP3 DUP2 SUB DUP3 MSTORE PUSH1 0x2F DUP2 MSTORE PUSH1 0x20 ADD DUP1 PUSH2 0x5071 PUSH1 0x2F SWAP2 CODECOPY PUSH1 0x40 ADD SWAP2 POP POP PUSH1 0x40 MLOAD DUP1 SWAP2 SUB SWAP1 REVERT JUMPDEST PUSH1 0x3 PUSH1 0x0 SWAP1 PUSH2 0x127F PUSH2 0x4D4E JUMP JUMPDEST SWAP1 PUSH2 0x100 EXP SWAP1 DIV PUSH1 0xFF AND ISZERO ISZERO DUP2 ISZERO ISZERO EQ ISZERO PUSH2 0x1299 JUMPI PUSH2 0x134A JUMP JUMPDEST DUP1 PUSH1 0x3 PUSH1 0x0 PUSH2 0x100 EXP DUP2 PUSH2 0x12AB PUSH2 0x4D4E JUMP JUMPDEST DUP2 PUSH1 0xFF MUL NOT AND SWAP1 DUP4 ISZERO ISZERO MUL OR SWAP1 PUSH2 0x12C0 PUSH2 0x4DB6 JUMP JUMPDEST POP POP POP PUSH1 0x3 PUSH1 0x0 SWAP1 PUSH2 0x12D0 PUSH2 0x4D4E JUMP JUMPDEST SWAP1 PUSH2 0x100 EXP SWAP1 DIV PUSH1 0xFF AND ISZERO PUSH2 0x12F8 JUMPI GAS PUSH2 0x12E8 PUSH2 0x4DEF JUMP JUMPDEST PUSH1 0x2 DUP2 SWAP1 PUSH2 0x12F4 PUSH2 0x4DB6 JUMP JUMPDEST POP POP POP JUMPDEST PUSH32 0x8FB6C181EE25A520CF3DD6565006EF91229FCFE5A989566C2A3B8C115570CEC5 PUSH1 0x3 PUSH1 0x0 SWAP1 PUSH2 0x1326 PUSH2 0x4D4E JUMP JUMPDEST SWAP1 PUSH2 0x100 EXP SWAP1 DIV PUSH1 0xFF AND PUSH1 0x40 MLOAD DUP1 DUP3 ISZERO ISZERO ISZERO ISZERO DUP2 MSTORE PUSH1 0x20 ADD SWAP2 POP POP PUSH1 0x40 MLOAD DUP1 SWAP2 SUB SWAP1 LOG1 JUMPDEST POP JUMP JUMPDEST PUSH1 0x12 PUSH2 0x1357 PUSH2 0x4D4E JUMP JUMPDEST DUP2 JUMP JUMPDEST PUSH1 0x0 PUSH2 0x1364 PUSH2 0x4E20 JUMP JUMPDEST PUSH2 0x136E DUP5 DUP5 PUSH2 0x3A0D JUMP JUMPDEST SWAP1 POP PUSH2 0x1379 DUP2 PUSH2 0x3BC8 JUMP JUMPDEST SWAP2 POP POP SWAP3 SWAP2 POP POP JUMP JUMPDEST PUSH1 0x60 DUP1 PUSH1 0x14 PUSH1 0x0 DUP5 PUSH20 0xFFFFFFFFFFFFFFFFFFFFFFFFFFFFFFFFFFFFFFFF AND PUSH20 0xFFFFFFFFFFFFFFFFFFFFFFFFFFFFFFFFFFFFFFFF AND DUP2 MSTORE PUSH1 0x20 ADD SWAP1 DUP2 MSTORE PUSH1 0x20 ADD PUSH1 0x0 KECCAK256 DUP1 PUSH2 0x13CD PUSH2 0x4D4E JUMP JUMPDEST DUP1 PUSH1 0x20 MUL PUSH1 0x20 ADD PUSH1 0x40 MLOAD SWAP1 DUP2 ADD PUSH1 0x40 MSTORE DUP1 SWAP3 SWAP2 SWAP1 DUP2 DUP2 MSTORE PUSH1 0x20 ADD PUSH1 0x0 SWAP1 JUMPDEST DUP3 DUP3 LT ISZERO PUSH2 0x14CF JUMPI DUP4 DUP3 SWAP1 PUSH1 0x0 MSTORE PUSH1 0x20 PUSH1 0x0 KECCAK256 SWAP1 PUSH1 0x6 MUL ADD PUSH1 0x40 MLOAD DUP1 PUSH1 0xC0 ADD PUSH1 0x40 MSTORE SWAP1 DUP2 PUSH1 0x0 DUP3 ADD PUSH1 0x0 SWAP1 PUSH2 0x141E PUSH2 0x4D4E JUMP JUMPDEST SWAP1 PUSH2 0x100 EXP SWAP1 DIV PUSH20 0xFFFFFFFFFFFFFFFFFFFFFFFFFFFFFFFFFFFFFFFF AND PUSH20 0xFFFFFFFFFFFFFFFFFFFFFFFFFFFFFFFFFFFFFFFF AND PUSH20 0xFFFFFFFFFFFFFFFFFFFFFFFFFFFFFFFFFFFFFFFF AND DUP2 MSTORE PUSH1 0x20 ADD PUSH1 0x1 DUP3 ADD PUSH2 0x1478 PUSH2 0x4D4E JUMP JUMPDEST DUP2 MSTORE PUSH1 0x20 ADD PUSH1 0x2 DUP3 ADD PUSH2 0x1489 PUSH2 0x4D4E JUMP JUMPDEST DUP2 MSTORE PUSH1 0x20 ADD PUSH1 0x3 DUP3 ADD PUSH2 0x149A PUSH2 0x4D4E JUMP JUMPDEST DUP2 MSTORE PUSH1 0x20 ADD PUSH1 0x4 DUP3 ADD PUSH2 0x14AB PUSH2 0x4D4E JUMP JUMPDEST DUP2 MSTORE PUSH1 0x20 ADD PUSH1 0x5 DUP3 ADD PUSH2 0x14BC PUSH2 0x4D4E JUMP JUMPDEST DUP2 MSTORE POP POP DUP2 MSTORE PUSH1 0x20 ADD SWAP1 PUSH1 0x1 ADD SWAP1 PUSH2 0x13EB JUMP JUMPDEST POP POP POP POP SWAP1 POP PUSH1 0x60 DUP2 MLOAD PUSH1 0x40 MLOAD SWAP1 DUP1 DUP3 MSTORE DUP1 PUSH1 0x20 MUL PUSH1 0x20 ADD DUP3 ADD PUSH1 0x40 MSTORE DUP1 ISZERO PUSH2 0x1507 JUMPI DUP2 PUSH1 0x20 ADD PUSH1 0x20 DUP3 MUL DUP1 CODESIZE DUP4 CODECOPY DUP1 DUP3 ADD SWAP2 POP POP SWAP1 POP JUMPDEST POP SWAP1 POP PUSH1 0x0 DUP1 SWAP1 POP PUSH1 0x0 DUP1 SWAP1 POP JUMPDEST DUP4 MLOAD DUP2 LT ISZERO PUSH2 0x1584 JUMPI PUSH1 0x0 DUP5 DUP3 DUP2 MLOAD DUP2 LT PUSH2 0x152C JUMPI INVALID JUMPDEST PUSH1 0x20 MUL PUSH1 0x20 ADD ADD MLOAD PUSH1 0xA0 ADD MLOAD EQ ISZERO PUSH2 0x1577 JUMPI DUP4 DUP2 DUP2 MLOAD DUP2 LT PUSH2 0x154A JUMPI INVALID JUMPDEST PUSH1 0x20 MUL PUSH1 0x20 ADD ADD MLOAD PUSH1 0x80 ADD MLOAD DUP4 DUP4 DUP2 MLOAD DUP2 LT PUSH2 0x1562 JUMPI INVALID JUMPDEST PUSH1 0x20 MUL PUSH1 0x20 ADD ADD DUP2 DUP2 MSTORE POP POP DUP2 DUP1 PUSH1 0x1 ADD SWAP3 POP POP JUMPDEST DUP1 DUP1 PUSH1 0x1 ADD SWAP2 POP POP PUSH2 0x1515 JUMP JUMPDEST POP PUSH1 0x60 DUP2 PUSH1 0x40 MLOAD SWAP1 DUP1 DUP3 MSTORE DUP1 PUSH1 0x20 MUL PUSH1 0x20 ADD DUP3 ADD PUSH1 0x40 MSTORE DUP1 ISZERO PUSH2 0x15B6 JUMPI DUP2 PUSH1 0x20 ADD PUSH1 0x20 DUP3 MUL DUP1 CODESIZE DUP4 CODECOPY DUP1 DUP3 ADD SWAP2 POP POP SWAP1 POP JUMPDEST POP SWAP1 POP PUSH1 0x0 DUP1 SWAP1 POP JUMPDEST DUP3 DUP2 LT ISZERO PUSH2 0x1600 JUMPI DUP4 DUP2 DUP2 MLOAD DUP2 LT PUSH2 0x15D3 JUMPI INVALID JUMPDEST PUSH1 0x20 MUL PUSH1 0x20 ADD ADD MLOAD DUP3 DUP3 DUP2 MLOAD DUP2 LT PUSH2 0x15E7 JUMPI INVALID JUMPDEST PUSH1 0x20 MUL PUSH1 0x20 ADD ADD DUP2 DUP2 MSTORE POP POP DUP1 DUP1 PUSH1 0x1 ADD SWAP2 POP POP PUSH2 0x15BF JUMP JUMPDEST POP DUP1 SWAP5 POP POP POP POP POP SWAP2 SWAP1 POP JUMP JUMPDEST PUSH1 0xB PUSH2 0x1617 PUSH2 0x4D4E JUMP JUMPDEST DUP2 JUMP JUMPDEST PUSH1 0x0 DUP1 SWAP1 PUSH2 0x1626 PUSH2 0x4D4E JUMP JUMPDEST SWAP1 PUSH2 0x100 EXP SWAP1 DIV PUSH20 0xFFFFFFFFFFFFFFFFFFFFFFFFFFFFFFFFFFFFFFFF AND PUSH20 0xFFFFFFFFFFFFFFFFFFFFFFFFFFFFFFFFFFFFFFFF AND GAS PUSH2 0x1662 PUSH2 0x4D85 JUMP JUMPDEST PUSH20 0xFFFFFFFFFFFFFFFFFFFFFFFFFFFFFFFFFFFFFFFF AND EQ PUSH2 0x16CE JUMPI PUSH1 0x40 MLOAD PUSH32 0x8C379A000000000000000000000000000000000000000000000000000000000 DUP2 MSTORE PUSH1 0x4 ADD DUP1 DUP1 PUSH1 0x20 ADD DUP3 DUP2 SUB DUP3 MSTORE PUSH1 0x2F DUP2 MSTORE PUSH1 0x20 ADD DUP1 PUSH2 0x5071 PUSH1 0x2F SWAP2 CODECOPY PUSH1 0x40 ADD SWAP2 POP POP PUSH1 0x40 MLOAD DUP1 SWAP2 SUB SWAP1 REVERT JUMPDEST DUP1 PUSH1 0x5 PUSH1 0x0 PUSH2 0x100 EXP DUP2 PUSH2 0x16E0 PUSH2 0x4D4E JUMP JUMPDEST DUP2 PUSH20 0xFFFFFFFFFFFFFFFFFFFFFFFFFFFFFFFFFFFFFFFF MUL NOT AND SWAP1 DUP4 PUSH20 0xFFFFFFFFFFFFFFFFFFFFFFFFFFFFFFFFFFFFFFFF AND MUL OR SWAP1 PUSH2 0x171C PUSH2 0x4DB6 JUMP JUMPDEST POP POP POP PUSH1 0x0 DUP1 SWAP1 POP JUMPDEST PUSH1 0x7 DUP1 PUSH2 0x1730 PUSH2 0x4D4E JUMP JUMPDEST SWAP1 POP DUP2 LT ISZERO PUSH2 0x18D3 JUMPI PUSH1 0x0 PUSH1 0x7 DUP3 DUP2 PUSH2 0x1747 PUSH2 0x4D4E JUMP JUMPDEST DUP2 LT PUSH2 0x174F JUMPI INVALID JUMPDEST SWAP1 PUSH1 0x0 MSTORE PUSH1 0x20 PUSH1 0x0 KECCAK256 ADD PUSH2 0x1761 PUSH2 0x4D4E JUMP JUMPDEST SWAP1 POP PUSH1 0x5 PUSH1 0x0 SWAP1 PUSH2 0x1770 PUSH2 0x4D4E JUMP JUMPDEST SWAP1 PUSH2 0x100 EXP SWAP1 DIV PUSH20 0xFFFFFFFFFFFFFFFFFFFFFFFFFFFFFFFFFFFFFFFF AND PUSH20 0xFFFFFFFFFFFFFFFFFFFFFFFFFFFFFFFFFFFFFFFF AND PUSH4 0xDACB2D01 DUP3 PUSH1 0x40 MLOAD DUP3 PUSH4 0xFFFFFFFF AND PUSH1 0xE0 SHL DUP2 MSTORE PUSH1 0x4 ADD DUP1 DUP3 DUP2 MSTORE PUSH1 0x20 ADD DUP1 PUSH1 0x20 ADD DUP3 DUP2 SUB DUP3 MSTORE PUSH1 0x17 DUP2 MSTORE PUSH1 0x20 ADD DUP1 PUSH32 0x5265736F6C766572206D697373696E6720746172676574000000000000000000 DUP2 MSTORE POP PUSH1 0x20 ADD SWAP3 POP POP POP PUSH1 0x20 PUSH1 0x40 MLOAD DUP1 DUP4 SUB DUP2 DUP7 DUP1 PUSH2 0x1811 PUSH2 0x4E6C JUMP JUMPDEST ISZERO DUP1 ISZERO PUSH2 0x181D JUMPI PUSH1 0x0 DUP1 REVERT JUMPDEST POP GAS PUSH2 0x1827 PUSH2 0x4EA3 JUMP JUMPDEST POP POP POP POP POP ISZERO DUP1 ISZERO PUSH2 0x183D JUMPI RETURNDATASIZE PUSH1 0x0 DUP1 RETURNDATACOPY RETURNDATASIZE PUSH1 0x0 REVERT JUMPDEST POP POP POP POP PUSH1 0x40 MLOAD RETURNDATASIZE PUSH1 0x20 DUP2 LT ISZERO PUSH2 0x1853 JUMPI PUSH1 0x0 DUP1 REVERT JUMPDEST DUP2 ADD SWAP1 DUP1 DUP1 MLOAD SWAP1 PUSH1 0x20 ADD SWAP1 SWAP3 SWAP2 SWAP1 POP POP POP PUSH1 0x6 PUSH1 0x0 DUP4 DUP2 MSTORE PUSH1 0x20 ADD SWAP1 DUP2 MSTORE PUSH1 0x20 ADD PUSH1 0x0 KECCAK256 PUSH1 0x0 PUSH2 0x100 EXP DUP2 PUSH2 0x1886 PUSH2 0x4D4E JUMP JUMPDEST DUP2 PUSH20 0xFFFFFFFFFFFFFFFFFFFFFFFFFFFFFFFFFFFFFFFF MUL NOT AND SWAP1 DUP4 PUSH20 0xFFFFFFFFFFFFFFFFFFFFFFFFFFFFFFFFFFFFFFFF AND MUL OR SWAP1 PUSH2 0x18C2 PUSH2 0x4DB6 JUMP JUMPDEST POP POP POP POP DUP1 DUP1 PUSH1 0x1 ADD SWAP2 POP POP PUSH2 0x1725 JUMP JUMPDEST POP POP JUMP JUMPDEST PUSH1 0x13 PUSH2 0x18E1 PUSH2 0x4D4E JUMP JUMPDEST DUP2 JUMP JUMPDEST PUSH1 0x0 DUP1 SWAP1 PUSH2 0x18F0 PUSH2 0x4D4E JUMP JUMPDEST SWAP1 PUSH2 0x100 EXP SWAP1 DIV PUSH20 0xFFFFFFFFFFFFFFFFFFFFFFFFFFFFFFFFFFFFFFFF AND PUSH20 0xFFFFFFFFFFFFFFFFFFFFFFFFFFFFFFFFFFFFFFFF AND GAS PUSH2 0x192C PUSH2 0x4D85 JUMP JUMPDEST PUSH20 0xFFFFFFFFFFFFFFFFFFFFFFFFFFFFFFFFFFFFFFFF AND EQ PUSH2 0x1998 JUMPI PUSH1 0x40 MLOAD PUSH32 0x8C379A000000000000000000000000000000000000000000000000000000000 DUP2 MSTORE PUSH1 0x4 ADD DUP1 DUP1 PUSH1 0x20 ADD DUP3 DUP2 SUB DUP3 MSTORE PUSH1 0x2F DUP2 MSTORE PUSH1 0x20 ADD DUP1 PUSH2 0x5071 PUSH1 0x2F SWAP2 CODECOPY PUSH1 0x40 ADD SWAP2 POP POP PUSH1 0x40 MLOAD DUP1 SWAP2 SUB SWAP1 REVERT JUMPDEST DUP1 PUSH1 0xC DUP2 SWAP1 PUSH2 0x19A5 PUSH2 0x4DB6 JUMP JUMPDEST POP POP POP PUSH32 0xBB72CE8874020B3B98429D653DF927CAC6618AC1932384B1446BF04BF9A1B7E5 PUSH1 0xC PUSH2 0x19D3 PUSH2 0x4D4E JUMP JUMPDEST PUSH1 0x40 MLOAD DUP1 DUP3 DUP2 MSTORE PUSH1 0x20 ADD SWAP2 POP POP PUSH1 0x40 MLOAD DUP1 SWAP2 SUB SWAP1 LOG1 POP JUMP JUMPDEST PUSH1 0x0 DUP1 SWAP1 PUSH2 0x19F7 PUSH2 0x4D4E JUMP JUMPDEST SWAP1 PUSH2 0x100 EXP SWAP1 DIV PUSH20 0xFFFFFFFFFFFFFFFFFFFFFFFFFFFFFFFFFFFFFFFF AND PUSH20 0xFFFFFFFFFFFFFFFFFFFFFFFFFFFFFFFFFFFFFFFF AND GAS PUSH2 0x1A33 PUSH2 0x4D85 JUMP JUMPDEST PUSH20 0xFFFFFFFFFFFFFFFFFFFFFFFFFFFFFFFFFFFFFFFF AND EQ PUSH2 0x1A9F JUMPI PUSH1 0x40 MLOAD PUSH32 0x8C379A000000000000000000000000000000000000000000000000000000000 DUP2 MSTORE PUSH1 0x4 ADD DUP1 DUP1 PUSH1 0x20 ADD DUP3 DUP2 SUB DUP3 MSTORE PUSH1 0x2F DUP2 MSTORE PUSH1 0x20 ADD DUP1 PUSH2 0x5071 PUSH1 0x2F SWAP2 CODECOPY PUSH1 0x40 ADD SWAP2 POP POP PUSH1 0x40 MLOAD DUP1 SWAP2 SUB SWAP1 REVERT JUMPDEST DUP1 PUSH1 0xD DUP2 SWAP1 PUSH2 0x1AAC PUSH2 0x4DB6 JUMP JUMPDEST POP POP POP PUSH32 0x8640E538C9503BD8D11554FC26280EFE867C12195C0EEE0AEEDE5F4A8D528839 PUSH1 0xD PUSH2 0x1ADA PUSH2 0x4D4E JUMP JUMPDEST PUSH1 0x40 MLOAD DUP1 DUP3 DUP2 MSTORE PUSH1 0x20 ADD SWAP2 POP POP PUSH1 0x40 MLOAD DUP1 SWAP2 SUB SWAP1 LOG1 POP JUMP JUMPDEST PUSH1 0x1 PUSH1 0x0 SWAP1 PUSH2 0x1AFF PUSH2 0x4D4E JUMP JUMPDEST SWAP1 PUSH2 0x100 EXP SWAP1 DIV PUSH20 0xFFFFFFFFFFFFFFFFFFFFFFFFFFFFFFFFFFFFFFFF AND DUP2 JUMP JUMPDEST PUSH1 0x3 PUSH1 0x0 SWAP1 PUSH2 0x1B2C PUSH2 0x4D4E JUMP JUMPDEST SWAP1 PUSH2 0x100 EXP SWAP1 DIV PUSH1 0xFF AND DUP2 JUMP JUMPDEST PUSH1 0x0 DUP1 SWAP1 PUSH2 0x1B45 PUSH2 0x4D4E JUMP JUMPDEST SWAP1 PUSH2 0x100 EXP SWAP1 DIV PUSH20 0xFFFFFFFFFFFFFFFFFFFFFFFFFFFFFFFFFFFFFFFF AND PUSH20 0xFFFFFFFFFFFFFFFFFFFFFFFFFFFFFFFFFFFFFFFF AND GAS PUSH2 0x1B81 PUSH2 0x4D85 JUMP JUMPDEST PUSH20 0xFFFFFFFFFFFFFFFFFFFFFFFFFFFFFFFFFFFFFFFF AND EQ PUSH2 0x1BED JUMPI PUSH1 0x40 MLOAD PUSH32 0x8C379A000000000000000000000000000000000000000000000000000000000 DUP2 MSTORE PUSH1 0x4 ADD DUP1 DUP1 PUSH1 0x20 ADD DUP3 DUP2 SUB DUP3 MSTORE PUSH1 0x2F DUP2 MSTORE PUSH1 0x20 ADD DUP1 PUSH2 0x5071 PUSH1 0x2F SWAP2 CODECOPY PUSH1 0x40 ADD SWAP2 POP POP PUSH1 0x40 MLOAD DUP1 SWAP2 SUB SWAP1 REVERT JUMPDEST PUSH1 0x0 PUSH2 0x3E8 SWAP1 POP DUP1 DUP3 LT PUSH2 0x1C4C JUMPI PUSH1 0x40 MLOAD PUSH32 0x8C379A000000000000000000000000000000000000000000000000000000000 DUP2 MSTORE PUSH1 0x4 ADD DUP1 DUP1 PUSH1 0x20 ADD DUP3 DUP2 SUB DUP3 MSTORE PUSH1 0x25 DUP2 MSTORE PUSH1 0x20 ADD DUP1 PUSH2 0x5007 PUSH1 0x25 SWAP2 CODECOPY PUSH1 0x40 ADD SWAP2 POP POP PUSH1 0x40 MLOAD DUP1 SWAP2 SUB SWAP1 REVERT JUMPDEST DUP2 PUSH1 0xE DUP2 SWAP1 PUSH2 0x1C59 PUSH2 0x4DB6 JUMP JUMPDEST POP POP POP PUSH32 0x59822DC2D999F6F0618E8B0DB5CFC8496084574C769B09609D9B5F4394A310B6 PUSH1 0xE PUSH2 0x1C87 PUSH2 0x4D4E JUMP JUMPDEST PUSH1 0x40 MLOAD DUP1 DUP3 DUP2 MSTORE PUSH1 0x20 ADD SWAP2 POP POP PUSH1 0x40 MLOAD DUP1 SWAP2 SUB SWAP1 LOG1 POP POP JUMP JUMPDEST PUSH1 0x0 DUP1 SWAP1 PUSH2 0x1CAC PUSH2 0x4D4E JUMP JUMPDEST SWAP1 PUSH2 0x100 EXP SWAP1 DIV PUSH20 0xFFFFFFFFFFFFFFFFFFFFFFFFFFFFFFFFFFFFFFFF AND PUSH20 0xFFFFFFFFFFFFFFFFFFFFFFFFFFFFFFFFFFFFFFFF AND GAS PUSH2 0x1CE8 PUSH2 0x4D85 JUMP JUMPDEST PUSH20 0xFFFFFFFFFFFFFFFFFFFFFFFFFFFFFFFFFFFFFFFF AND EQ PUSH2 0x1D54 JUMPI PUSH1 0x40 MLOAD PUSH32 0x8C379A000000000000000000000000000000000000000000000000000000000 DUP2 MSTORE PUSH1 0x4 ADD DUP1 DUP1 PUSH1 0x20 ADD DUP3 DUP2 SUB DUP3 MSTORE PUSH1 0x2F DUP2 MSTORE PUSH1 0x20 ADD DUP1 PUSH2 0x5071 PUSH1 0x2F SWAP2 CODECOPY PUSH1 0x40 ADD SWAP2 POP POP PUSH1 0x40 MLOAD DUP1 SWAP2 SUB SWAP1 REVERT JUMPDEST PUSH4 0x1E13380 DUP2 GT PUSH2 0x1DB0 JUMPI PUSH1 0x40 MLOAD PUSH32 0x8C379A000000000000000000000000000000000000000000000000000000000 DUP2 MSTORE PUSH1 0x4 ADD DUP1 DUP1 PUSH1 0x20 ADD DUP3 DUP2 SUB DUP3 MSTORE PUSH1 0x37 DUP2 MSTORE PUSH1 0x20 ADD DUP1 PUSH2 0x51D6 PUSH1 0x37 SWAP2 CODECOPY PUSH1 0x40 ADD SWAP2 POP POP PUSH1 0x40 MLOAD DUP1 SWAP2 SUB SWAP1 REVERT JUMPDEST PUSH20 0x0 PUSH4 0x907AF6C0 PUSH1 0x40 MLOAD DUP2 PUSH4 0xFFFFFFFF AND PUSH1 0xE0 SHL DUP2 MSTORE PUSH1 0x4 ADD PUSH1 0x20 PUSH1 0x40 MLOAD DUP1 DUP4 SUB DUP2 DUP7 DUP1 PUSH2 0x1DEF PUSH2 0x4E6C JUMP JUMPDEST ISZERO DUP1 ISZERO PUSH2 0x1DFB JUMPI PUSH1 0x0 DUP1 REVERT JUMPDEST POP GAS PUSH2 0x1E05 PUSH2 0x4EFC JUMP JUMPDEST POP POP POP POP POP ISZERO DUP1 ISZERO PUSH2 0x1E1B JUMPI RETURNDATASIZE PUSH1 0x0 DUP1 RETURNDATACOPY RETURNDATASIZE PUSH1 0x0 REVERT JUMPDEST POP POP POP POP PUSH1 0x40 MLOAD RETURNDATASIZE PUSH1 0x20 DUP2 LT ISZERO PUSH2 0x1E31 JUMPI PUSH1 0x0 DUP1 REVERT JUMPDEST DUP2 ADD SWAP1 DUP1 DUP1 MLOAD SWAP1 PUSH1 0x20 ADD SWAP1 SWAP3 SWAP2 SWAP1 POP POP POP DUP2 GT ISZERO PUSH2 0x1E9A JUMPI PUSH1 0x40 MLOAD PUSH32 0x8C379A000000000000000000000000000000000000000000000000000000000 DUP2 MSTORE PUSH1 0x4 ADD DUP1 DUP1 PUSH1 0x20 ADD DUP3 DUP2 SUB DUP3 MSTORE PUSH1 0x25 DUP2 MSTORE PUSH1 0x20 ADD DUP1 PUSH2 0x513B PUSH1 0x25 SWAP2 CODECOPY PUSH1 0x40 ADD SWAP2 POP POP PUSH1 0x40 MLOAD DUP1 SWAP2 SUB SWAP1 REVERT JUMPDEST DUP1 PUSH1 0x9 DUP2 SWAP1 PUSH2 0x1EA7 PUSH2 0x4DB6 JUMP JUMPDEST POP POP POP PUSH2 0x1EC1 PUSH4 0x1E13380 DUP3 PUSH2 0x3BF1 SWAP1 SWAP2 SWAP1 PUSH4 0xFFFFFFFF AND JUMP JUMPDEST PUSH1 0xA DUP2 SWAP1 PUSH2 0x1ECD PUSH2 0x4DB6 JUMP JUMPDEST POP POP POP PUSH32 0xA90E14BE5AA57B910AA6DC16C31FF1B5CDA380AE25A793B0D3F74DF6131A7D74 PUSH1 0x9 PUSH2 0x1EFB PUSH2 0x4D4E JUMP JUMPDEST PUSH1 0x40 MLOAD DUP1 DUP3 DUP2 MSTORE PUSH1 0x20 ADD SWAP2 POP POP PUSH1 0x40 MLOAD DUP1 SWAP2 SUB SWAP1 LOG1 POP JUMP JUMPDEST PUSH1 0x0 DUP2 PUSH20 0xFFFFFFFFFFFFFFFFFFFFFFFFFFFFFFFFFFFFFFFF AND PUSH1 0x5 PUSH1 0x0 SWAP1 PUSH2 0x1F39 PUSH2 0x4D4E JUMP JUMPDEST SWAP1 PUSH2 0x100 EXP SWAP1 DIV PUSH20 0xFFFFFFFFFFFFFFFFFFFFFFFFFFFFFFFFFFFFFFFF AND PUSH20 0xFFFFFFFFFFFFFFFFFFFFFFFFFFFFFFFFFFFFFFFF AND EQ PUSH2 0x1F7A JUMPI PUSH1 0x0 SWAP1 POP PUSH2 0x2184 JUMP JUMPDEST PUSH1 0x0 DUP1 SWAP1 POP JUMPDEST PUSH1 0x7 DUP1 PUSH2 0x1F8B PUSH2 0x4D4E JUMP JUMPDEST SWAP1 POP DUP2 LT ISZERO PUSH2 0x217E JUMPI PUSH1 0x0 PUSH1 0x7 DUP3 DUP2 PUSH2 0x1FA2 PUSH2 0x4D4E JUMP JUMPDEST DUP2 LT PUSH2 0x1FAA JUMPI INVALID JUMPDEST SWAP1 PUSH1 0x0 MSTORE PUSH1 0x20 PUSH1 0x0 KECCAK256 ADD PUSH2 0x1FBC PUSH2 0x4D4E JUMP JUMPDEST SWAP1 POP PUSH1 0x6 PUSH1 0x0 DUP3 DUP2 MSTORE PUSH1 0x20 ADD SWAP1 DUP2 MSTORE PUSH1 0x20 ADD PUSH1 0x0 KECCAK256 PUSH1 0x0 SWAP1 PUSH2 0x1FDC PUSH2 0x4D4E JUMP JUMPDEST SWAP1 PUSH2 0x100 EXP SWAP1 DIV PUSH20 0xFFFFFFFFFFFFFFFFFFFFFFFFFFFFFFFFFFFFFFFF AND PUSH20 0xFFFFFFFFFFFFFFFFFFFFFFFFFFFFFFFFFFFFFFFF AND PUSH1 0x5 PUSH1 0x0 SWAP1 PUSH2 0x201C PUSH2 0x4D4E JUMP JUMPDEST SWAP1 PUSH2 0x100 EXP SWAP1 DIV PUSH20 0xFFFFFFFFFFFFFFFFFFFFFFFFFFFFFFFFFFFFFFFF AND PUSH20 0xFFFFFFFFFFFFFFFFFFFFFFFFFFFFFFFFFFFFFFFF AND PUSH4 0x21F8A721 DUP4 PUSH1 0x40 MLOAD DUP3 PUSH4 0xFFFFFFFF AND PUSH1 0xE0 SHL DUP2 MSTORE PUSH1 0x4 ADD DUP1 DUP3 DUP2 MSTORE PUSH1 0x20 ADD SWAP2 POP POP PUSH1 0x20 PUSH1 0x40 MLOAD DUP1 DUP4 SUB DUP2 DUP7 DUP1 PUSH2 0x2084 PUSH2 0x4E6C JUMP JUMPDEST ISZERO DUP1 ISZERO PUSH2 0x2090 JUMPI PUSH1 0x0 DUP1 REVERT JUMPDEST POP GAS PUSH2 0x209A PUSH2 0x4EA3 JUMP JUMPDEST POP POP POP POP POP ISZERO DUP1 ISZERO PUSH2 0x20B0 JUMPI RETURNDATASIZE PUSH1 0x0 DUP1 RETURNDATACOPY RETURNDATASIZE PUSH1 0x0 REVERT JUMPDEST POP POP POP POP PUSH1 0x40 MLOAD RETURNDATASIZE PUSH1 0x20 DUP2 LT ISZERO PUSH2 0x20C6 JUMPI PUSH1 0x0 DUP1 REVERT JUMPDEST DUP2 ADD SWAP1 DUP1 DUP1 MLOAD SWAP1 PUSH1 0x20 ADD SWAP1 SWAP3 SWAP2 SWAP1 POP POP POP PUSH20 0xFFFFFFFFFFFFFFFFFFFFFFFFFFFFFFFFFFFFFFFF AND EQ ISZERO DUP1 PUSH2 0x2160 JUMPI POP PUSH1 0x0 PUSH20 0xFFFFFFFFFFFFFFFFFFFFFFFFFFFFFFFFFFFFFFFF AND PUSH1 0x6 PUSH1 0x0 DUP4 DUP2 MSTORE PUSH1 0x20 ADD SWAP1 DUP2 MSTORE PUSH1 0x20 ADD PUSH1 0x0 KECCAK256 PUSH1 0x0 SWAP1 PUSH2 0x212B PUSH2 0x4D4E JUMP JUMPDEST SWAP1 PUSH2 0x100 EXP SWAP1 DIV PUSH20 0xFFFFFFFFFFFFFFFFFFFFFFFFFFFFFFFFFFFFFFFF AND PUSH20 0xFFFFFFFFFFFFFFFFFFFFFFFFFFFFFFFFFFFFFFFF AND EQ JUMPDEST ISZERO PUSH2 0x2170 JUMPI PUSH1 0x0 SWAP3 POP POP POP PUSH2 0x2184 JUMP JUMPDEST POP DUP1 DUP1 PUSH1 0x1 ADD SWAP2 POP POP PUSH2 0x1F80 JUMP JUMPDEST POP PUSH1 0x1 SWAP1 POP JUMPDEST SWAP2 SWAP1 POP JUMP JUMPDEST PUSH1 0x0 PUSH1 0x3 PUSH1 0x0 SWAP1 PUSH2 0x2198 PUSH2 0x4D4E JUMP JUMPDEST SWAP1 PUSH2 0x100 EXP SWAP1 DIV PUSH1 0xFF AND ISZERO PUSH2 0x21F8 JUMPI PUSH1 0x40 MLOAD PUSH32 0x8C379A000000000000000000000000000000000000000000000000000000000 DUP2 MSTORE PUSH1 0x4 ADD DUP1 DUP1 PUSH1 0x20 ADD DUP3 DUP2 SUB DUP3 MSTORE PUSH1 0x3C DUP2 MSTORE PUSH1 0x20 ADD DUP1 PUSH2 0x50FF PUSH1 0x3C SWAP2 CODECOPY PUSH1 0x40 ADD SWAP2 POP POP PUSH1 0x40 MLOAD DUP1 SWAP2 SUB SWAP1 REVERT JUMPDEST PUSH1 0x1 PUSH1 0x4 PUSH1 0x0 DUP3 DUP3 PUSH2 0x2208 PUSH2 0x4D4E JUMP JUMPDEST ADD SWAP3 POP POP DUP2 SWAP1 PUSH2 0x2216 PUSH2 0x4DB6 JUMP JUMPDEST POP POP POP PUSH1 0x0 PUSH1 0x4 PUSH2 0x2225 PUSH2 0x4D4E JUMP JUMPDEST SWAP1 POP PUSH2 0x222F PUSH2 0x3C80 JUMP JUMPDEST PUSH20 0xFFFFFFFFFFFFFFFFFFFFFFFFFFFFFFFFFFFFFFFF AND PUSH3 0x9919C0 PUSH1 0x40 MLOAD DUP2 PUSH4 0xFFFFFFFF AND PUSH1 0xE0 SHL DUP2 MSTORE PUSH1 0x4 ADD DUP1 DUP1 PUSH32 0x7345544800000000000000000000000000000000000000000000000000000000 DUP2 MSTORE POP PUSH1 0x20 ADD SWAP1 POP PUSH1 0x20 PUSH1 0x40 MLOAD DUP1 DUP4 SUB DUP2 DUP7 DUP1 PUSH2 0x2299 PUSH2 0x4E6C JUMP JUMPDEST ISZERO DUP1 ISZERO PUSH2 0x22A5 JUMPI PUSH1 0x0 DUP1 REVERT JUMPDEST POP GAS PUSH2 0x22AF PUSH2 0x4EA3 JUMP JUMPDEST POP POP POP POP POP ISZERO DUP1 ISZERO PUSH2 0x22C5 JUMPI RETURNDATASIZE PUSH1 0x0 DUP1 RETURNDATACOPY RETURNDATASIZE PUSH1 0x0 REVERT JUMPDEST POP POP POP POP PUSH1 0x40 MLOAD RETURNDATASIZE PUSH1 0x20 DUP2 LT ISZERO PUSH2 0x22DB JUMPI PUSH1 0x0 DUP1 REVERT JUMPDEST DUP2 ADD SWAP1 DUP1 DUP1 MLOAD SWAP1 PUSH1 0x20 ADD SWAP1 SWAP3 SWAP2 SWAP1 POP POP POP ISZERO PUSH2 0x235F JUMPI PUSH1 0x40 MLOAD PUSH32 0x8C379A000000000000000000000000000000000000000000000000000000000 DUP2 MSTORE PUSH1 0x4 ADD DUP1 DUP1 PUSH1 0x20 ADD DUP3 DUP2 SUB DUP3 MSTORE PUSH1 0x1D DUP2 MSTORE PUSH1 0x20 ADD DUP1 PUSH32 0x426C6F636B656420617320734554482072617465206973207374616C65000000 DUP2 MSTORE POP PUSH1 0x20 ADD SWAP2 POP POP PUSH1 0x40 MLOAD DUP1 SWAP2 SUB SWAP1 REVERT JUMPDEST PUSH2 0x2367 PUSH2 0x3CE6 JUMP JUMPDEST PUSH20 0xFFFFFFFFFFFFFFFFFFFFFFFFFFFFFFFFFFFFFFFF AND PUSH4 0x7C312541 PUSH1 0x40 MLOAD DUP2 PUSH4 0xFFFFFFFF AND PUSH1 0xE0 SHL DUP2 MSTORE PUSH1 0x4 ADD PUSH1 0x0 PUSH1 0x40 MLOAD DUP1 DUP4 SUB DUP2 DUP7 DUP1 PUSH2 0x23A7 PUSH2 0x4E6C JUMP JUMPDEST ISZERO DUP1 ISZERO PUSH2 0x23B3 JUMPI PUSH1 0x0 DUP1 REVERT JUMPDEST POP GAS PUSH2 0x23BD PUSH2 0x4EA3 JUMP JUMPDEST POP POP POP POP POP ISZERO DUP1 ISZERO PUSH2 0x23D3 JUMPI RETURNDATASIZE PUSH1 0x0 DUP1 RETURNDATACOPY RETURNDATASIZE PUSH1 0x0 REVERT JUMPDEST POP POP POP POP PUSH1 0xD PUSH2 0x23E1 PUSH2 0x4D4E JUMP JUMPDEST CALLVALUE LT ISZERO PUSH2 0x2439 JUMPI PUSH1 0x40 MLOAD PUSH32 0x8C379A000000000000000000000000000000000000000000000000000000000 DUP2 MSTORE PUSH1 0x4 ADD DUP1 DUP1 PUSH1 0x20 ADD DUP3 DUP2 SUB DUP3 MSTORE PUSH1 0x3E DUP2 MSTORE PUSH1 0x20 ADD DUP1 PUSH2 0x50C1 PUSH1 0x3E SWAP2 CODECOPY PUSH1 0x40 ADD SWAP2 POP POP PUSH1 0x40 MLOAD DUP1 SWAP2 SUB SWAP1 REVERT JUMPDEST PUSH1 0x0 ISZERO ISZERO PUSH1 0xF PUSH1 0x0 SWAP1 PUSH2 0x244A PUSH2 0x4D4E JUMP JUMPDEST SWAP1 PUSH2 0x100 EXP SWAP1 DIV PUSH1 0xFF AND ISZERO ISZERO EQ PUSH2 0x24C9 JUMPI PUSH1 0x40 MLOAD PUSH32 0x8C379A000000000000000000000000000000000000000000000000000000000 DUP2 MSTORE PUSH1 0x4 ADD DUP1 DUP1 PUSH1 0x20 ADD DUP3 DUP2 SUB DUP3 MSTORE PUSH1 0x1E DUP2 MSTORE PUSH1 0x20 ADD DUP1 PUSH32 0x4C6F616E7320617265206E6F77206265696E67206C6971756964617465640000 DUP2 MSTORE POP PUSH1 0x20 ADD SWAP2 POP POP PUSH1 0x40 MLOAD DUP1 SWAP2 SUB SWAP1 REVERT JUMPDEST PUSH1 0xE PUSH2 0x24D3 PUSH2 0x4D4E JUMP JUMPDEST PUSH1 0x14 PUSH1 0x0 GAS PUSH2 0x24E0 PUSH2 0x4D85 JUMP JUMPDEST PUSH20 0xFFFFFFFFFFFFFFFFFFFFFFFFFFFFFFFFFFFFFFFF AND PUSH20 0xFFFFFFFFFFFFFFFFFFFFFFFFFFFFFFFFFFFFFFFF AND DUP2 MSTORE PUSH1 0x20 ADD SWAP1 DUP2 MSTORE PUSH1 0x20 ADD PUSH1 0x0 KECCAK256 DUP1 PUSH2 0x2523 PUSH2 0x4D4E JUMP JUMPDEST SWAP1 POP LT PUSH2 0x257B JUMPI PUSH1 0x40 MLOAD PUSH32 0x8C379A000000000000000000000000000000000000000000000000000000000 DUP2 MSTORE PUSH1 0x4 ADD DUP1 DUP1 PUSH1 0x20 ADD DUP3 DUP2 SUB DUP3 MSTORE PUSH1 0x22 DUP2 MSTORE PUSH1 0x20 ADD DUP1 PUSH2 0x502C PUSH1 0x22 SWAP2 CODECOPY PUSH1 0x40 ADD SWAP2 POP POP PUSH1 0x40 MLOAD DUP1 SWAP2 SUB SWAP1 REVERT JUMPDEST PUSH1 0x0 PUSH2 0x2586 CALLVALUE PUSH2 0x2D3E JUMP JUMPDEST SWAP1 POP PUSH1 0xC PUSH2 0x2592 PUSH2 0x4D4E JUMP JUMPDEST PUSH2 0x25AE DUP3 PUSH1 0x11 PUSH2 0x25A0 PUSH2 0x4D4E JUMP JUMPDEST PUSH2 0x3D4C SWAP1 SWAP2 SWAP1 PUSH4 0xFFFFFFFF AND JUMP JUMPDEST LT PUSH2 0x2604 JUMPI PUSH1 0x40 MLOAD PUSH32 0x8C379A000000000000000000000000000000000000000000000000000000000 DUP2 MSTORE PUSH1 0x4 ADD DUP1 DUP1 PUSH1 0x20 ADD DUP3 DUP2 SUB DUP3 MSTORE PUSH1 0x23 DUP2 MSTORE PUSH1 0x20 ADD DUP1 PUSH2 0x504E PUSH1 0x23 SWAP2 CODECOPY PUSH1 0x40 ADD SWAP2 POP POP PUSH1 0x40 MLOAD DUP1 SWAP2 SUB SWAP1 REVERT JUMPDEST PUSH2 0x260C PUSH2 0x3DD4 JUMP JUMPDEST SWAP3 POP PUSH2 0x2616 PUSH2 0x4E20 JUMP JUMPDEST PUSH1 0x40 MLOAD DUP1 PUSH1 0xC0 ADD PUSH1 0x40 MSTORE DUP1 GAS PUSH2 0x262A PUSH2 0x4D85 JUMP JUMPDEST PUSH20 0xFFFFFFFFFFFFFFFFFFFFFFFFFFFFFFFFFFFFFFFF AND DUP2 MSTORE PUSH1 0x20 ADD CALLVALUE DUP2 MSTORE PUSH1 0x20 ADD DUP4 DUP2 MSTORE PUSH1 0x20 ADD GAS PUSH2 0x265A PUSH2 0x4DEF JUMP JUMPDEST DUP2 MSTORE PUSH1 0x20 ADD DUP6 DUP2 MSTORE PUSH1 0x20 ADD PUSH1 0x0 DUP2 MSTORE POP SWAP1 POP PUSH1 0x14 PUSH1 0x0 GAS PUSH2 0x2679 PUSH2 0x4D85 JUMP JUMPDEST PUSH20 0xFFFFFFFFFFFFFFFFFFFFFFFFFFFFFFFFFFFFFFFF AND PUSH20 0xFFFFFFFFFFFFFFFFFFFFFFFFFFFFFFFFFFFFFFFF AND DUP2 MSTORE PUSH1 0x20 ADD SWAP1 DUP2 MSTORE PUSH1 0x20 ADD PUSH1 0x0 KECCAK256 DUP2 SWAP1 DUP1 PUSH1 0x1 DUP2 PUSH2 0x26C1 PUSH2 0x4D4E JUMP JUMPDEST ADD DUP1 DUP3 PUSH2 0x26CC PUSH2 0x4DB6 JUMP JUMPDEST POP POP DUP1 SWAP2 POP POP SWAP1 PUSH1 0x1 DUP3 SUB SWAP1 PUSH1 0x0 MSTORE PUSH1 0x20 PUSH1 0x0 KECCAK256 SWAP1 PUSH1 0x6 MUL ADD PUSH1 0x0 SWAP1 SWAP2 SWAP3 SWAP1 SWAP2 SWAP1 SWAP2 POP PUSH1 0x0 DUP3 ADD MLOAD DUP2 PUSH1 0x0 ADD PUSH1 0x0 PUSH2 0x100 EXP DUP2 PUSH2 0x2707 PUSH2 0x4D4E JUMP JUMPDEST DUP2 PUSH20 0xFFFFFFFFFFFFFFFFFFFFFFFFFFFFFFFFFFFFFFFF MUL NOT AND SWAP1 DUP4 PUSH20 0xFFFFFFFFFFFFFFFFFFFFFFFFFFFFFFFFFFFFFFFF AND MUL OR SWAP1 PUSH2 0x2743 PUSH2 0x4DB6 JUMP JUMPDEST POP POP POP PUSH1 0x20 DUP3 ADD MLOAD DUP2 PUSH1 0x1 ADD PUSH2 0x2757 PUSH2 0x4DB6 JUMP JUMPDEST POP POP PUSH1 0x40 DUP3 ADD MLOAD DUP2 PUSH1 0x2 ADD PUSH2 0x276A PUSH2 0x4DB6 JUMP JUMPDEST POP POP PUSH1 0x60 DUP3 ADD MLOAD DUP2 PUSH1 0x3 ADD PUSH2 0x277D PUSH2 0x4DB6 JUMP JUMPDEST POP POP PUSH1 0x80 DUP3 ADD MLOAD DUP2 PUSH1 0x4 ADD PUSH2 0x2790 PUSH2 0x4DB6 JUMP JUMPDEST POP POP PUSH1 0xA0 DUP3 ADD MLOAD DUP2 PUSH1 0x5 ADD PUSH2 0x27A3 PUSH2 0x4DB6 JUMP JUMPDEST POP POP POP POP POP PUSH2 0x27C4 DUP3 PUSH1 0x11 PUSH2 0x27B6 PUSH2 0x4D4E JUMP JUMPDEST PUSH2 0x3D4C SWAP1 SWAP2 SWAP1 PUSH4 0xFFFFFFFF AND JUMP JUMPDEST PUSH1 0x11 DUP2 SWAP1 PUSH2 0x27D0 PUSH2 0x4DB6 JUMP JUMPDEST POP POP POP PUSH2 0x27DB PUSH2 0x3E3D JUMP JUMPDEST PUSH20 0xFFFFFFFFFFFFFFFFFFFFFFFFFFFFFFFFFFFFFFFF AND PUSH4 0x867904B4 GAS PUSH2 0x27FF PUSH2 0x4D85 JUMP JUMPDEST DUP5 PUSH1 0x40 MLOAD DUP4 PUSH4 0xFFFFFFFF AND PUSH1 0xE0 SHL DUP2 MSTORE PUSH1 0x4 ADD DUP1 DUP4 PUSH20 0xFFFFFFFFFFFFFFFFFFFFFFFFFFFFFFFFFFFFFFFF AND PUSH20 0xFFFFFFFFFFFFFFFFFFFFFFFFFFFFFFFFFFFFFFFF AND DUP2 MSTORE PUSH1 0x20 ADD DUP3 DUP2 MSTORE PUSH1 0x20 ADD SWAP3 POP POP POP PUSH1 0x0 PUSH1 0x40 MLOAD DUP1 DUP4 SUB DUP2 PUSH1 0x0 DUP8 DUP1 PUSH2 0x2864 PUSH2 0x4E6C JUMP JUMPDEST ISZERO DUP1 ISZERO PUSH2 0x2870 JUMPI PUSH1 0x0 DUP1 REVERT JUMPDEST POP GAS PUSH2 0x287A PUSH2 0x4F55 JUMP JUMPDEST POP POP POP POP POP POP ISZERO DUP1 ISZERO PUSH2 0x2891 JUMPI RETURNDATASIZE PUSH1 0x0 DUP1 RETURNDATACOPY RETURNDATASIZE PUSH1 0x0 REVERT JUMPDEST POP POP POP POP GAS PUSH2 0x289E PUSH2 0x4D85 JUMP JUMPDEST PUSH20 0xFFFFFFFFFFFFFFFFFFFFFFFFFFFFFFFFFFFFFFFF AND PUSH32 0x58D170DE3A12438E22D81380F353B2FCAC86F0A708A1374DEAA5C6322A95992F DUP6 DUP5 PUSH1 0x40 MLOAD DUP1 DUP4 DUP2 MSTORE PUSH1 0x20 ADD DUP3 DUP2 MSTORE PUSH1 0x20 ADD SWAP3 POP POP POP PUSH1 0x40 MLOAD DUP1 SWAP2 SUB SWAP1 LOG2 POP POP PUSH1 0x4 PUSH2 0x28FF PUSH2 0x4D4E JUMP JUMPDEST DUP2 EQ PUSH2 0x2973 JUMPI PUSH1 0x40 MLOAD PUSH32 0x8C379A000000000000000000000000000000000000000000000000000000000 DUP2 MSTORE PUSH1 0x4 ADD DUP1 DUP1 PUSH1 0x20 ADD DUP3 DUP2 SUB DUP3 MSTORE PUSH1 0x1F DUP2 MSTORE PUSH1 0x20 ADD DUP1 PUSH32 0x5265656E7472616E637947756172643A207265656E7472616E742063616C6C00 DUP2 MSTORE POP PUSH1 0x20 ADD SWAP2 POP POP PUSH1 0x40 MLOAD DUP1 SWAP2 SUB SWAP1 REVERT JUMPDEST POP SWAP1 JUMP JUMPDEST PUSH1 0x1 PUSH1 0x0 SWAP1 PUSH2 0x2984 PUSH2 0x4D4E JUMP JUMPDEST SWAP1 PUSH2 0x100 EXP SWAP1 DIV PUSH20 0xFFFFFFFFFFFFFFFFFFFFFFFFFFFFFFFFFFFFFFFF AND PUSH20 0xFFFFFFFFFFFFFFFFFFFFFFFFFFFFFFFFFFFFFFFF AND GAS PUSH2 0x29C0 PUSH2 0x4D85 JUMP JUMPDEST PUSH20 0xFFFFFFFFFFFFFFFFFFFFFFFFFFFFFFFFFFFFFFFF AND EQ PUSH2 0x2A2C JUMPI PUSH1 0x40 MLOAD PUSH32 0x8C379A000000000000000000000000000000000000000000000000000000000 DUP2 MSTORE PUSH1 0x4 ADD DUP1 DUP1 PUSH1 0x20 ADD DUP3 DUP2 SUB DUP3 MSTORE PUSH1 0x35 DUP2 MSTORE PUSH1 0x20 ADD DUP1 PUSH2 0x4FD2 PUSH1 0x35 SWAP2 CODECOPY PUSH1 0x40 ADD SWAP2 POP POP PUSH1 0x40 MLOAD DUP1 SWAP2 SUB SWAP1 REVERT JUMPDEST PUSH32 0xB532073B38C83145E3E5135377A08BF9AAB55BC0FD7C1179CD4FB995D2A5159C PUSH1 0x0 DUP1 SWAP1 PUSH2 0x2A59 PUSH2 0x4D4E JUMP JUMPDEST SWAP1 PUSH2 0x100 EXP SWAP1 DIV PUSH20 0xFFFFFFFFFFFFFFFFFFFFFFFFFFFFFFFFFFFFFFFF AND PUSH1 0x1 PUSH1 0x0 SWAP1 PUSH2 0x2A83 PUSH2 0x4D4E JUMP JUMPDEST SWAP1 PUSH2 0x100 EXP SWAP1 DIV PUSH20 0xFFFFFFFFFFFFFFFFFFFFFFFFFFFFFFFFFFFFFFFF AND PUSH1 0x40 MLOAD DUP1 DUP4 PUSH20 0xFFFFFFFFFFFFFFFFFFFFFFFFFFFFFFFFFFFFFFFF AND PUSH20 0xFFFFFFFFFFFFFFFFFFFFFFFFFFFFFFFFFFFFFFFF AND DUP2 MSTORE PUSH1 0x20 ADD DUP3 PUSH20 0xFFFFFFFFFFFFFFFFFFFFFFFFFFFFFFFFFFFFFFFF AND PUSH20 0xFFFFFFFFFFFFFFFFFFFFFFFFFFFFFFFFFFFFFFFF AND DUP2 MSTORE PUSH1 0x20 ADD SWAP3 POP POP POP PUSH1 0x40 MLOAD DUP1 SWAP2 SUB SWAP1 LOG1 PUSH1 0x1 PUSH1 0x0 SWAP1 PUSH2 0x2B21 PUSH2 0x4D4E JUMP JUMPDEST SWAP1 PUSH2 0x100 EXP SWAP1 DIV PUSH20 0xFFFFFFFFFFFFFFFFFFFFFFFFFFFFFFFFFFFFFFFF AND PUSH1 0x0 DUP1 PUSH2 0x100 EXP DUP2 PUSH2 0x2B4E PUSH2 0x4D4E JUMP JUMPDEST DUP2 PUSH20 0xFFFFFFFFFFFFFFFFFFFFFFFFFFFFFFFFFFFFFFFF MUL NOT AND SWAP1 DUP4 PUSH20 0xFFFFFFFFFFFFFFFFFFFFFFFFFFFFFFFFFFFFFFFF AND MUL OR SWAP1 PUSH2 0x2B8A PUSH2 0x4DB6 JUMP JUMPDEST POP POP POP PUSH1 0x0 PUSH1 0x1 PUSH1 0x0 PUSH2 0x100 EXP DUP2 PUSH2 0x2BA0 PUSH2 0x4D4E JUMP JUMPDEST DUP2 PUSH20 0xFFFFFFFFFFFFFFFFFFFFFFFFFFFFFFFFFFFFFFFF MUL NOT AND SWAP1 DUP4 PUSH20 0xFFFFFFFFFFFFFFFFFFFFFFFFFFFFFFFFFFFFFFFF AND MUL OR SWAP1 PUSH2 0x2BDC PUSH2 0x4DB6 JUMP JUMPDEST POP POP POP JUMP JUMPDEST PUSH1 0x9 PUSH2 0x2BEB PUSH2 0x4D4E JUMP JUMPDEST DUP2 JUMP JUMPDEST PUSH1 0x0 DUP1 PUSH1 0x0 DUP1 PUSH1 0x0 DUP1 PUSH1 0x0 DUP1 PUSH1 0x0 DUP1 PUSH1 0x0 DUP1 PUSH1 0x0 PUSH1 0x8 PUSH2 0x2C0C PUSH2 0x4D4E JUMP JUMPDEST SWAP13 POP PUSH2 0x2C16 PUSH2 0x305C JUMP JUMPDEST SWAP12 POP PUSH1 0x9 PUSH2 0x2C22 PUSH2 0x4D4E JUMP JUMPDEST SWAP11 POP PUSH1 0xA PUSH2 0x2C2E PUSH2 0x4D4E JUMP JUMPDEST SWAP10 POP PUSH1 0xB PUSH2 0x2C3A PUSH2 0x4D4E JUMP JUMPDEST SWAP9 POP PUSH1 0xC PUSH2 0x2C46 PUSH2 0x4D4E JUMP JUMPDEST SWAP8 POP PUSH1 0xD PUSH2 0x2C52 PUSH2 0x4D4E JUMP JUMPDEST SWAP7 POP PUSH1 0x11 PUSH2 0x2C5E PUSH2 0x4D4E JUMP JUMPDEST SWAP6 POP PUSH1 0x12 PUSH2 0x2C6A PUSH2 0x4D4E JUMP JUMPDEST SWAP5 POP PUSH1 0x13 PUSH2 0x2C76 PUSH2 0x4D4E JUMP JUMPDEST SWAP4 POP SELFBALANCE SWAP3 POP PUSH1 0x10 PUSH2 0x2C85 PUSH2 0x4D4E JUMP JUMPDEST SWAP2 POP PUSH1 0xF PUSH1 0x0 SWAP1 PUSH2 0x2C94 PUSH2 0x4D4E JUMP JUMPDEST SWAP1 PUSH2 0x100 EXP SWAP1 DIV PUSH1 0xFF AND SWAP1 POP SWAP1 SWAP2 SWAP3 SWAP4 SWAP5 SWAP6 SWAP7 SWAP8 SWAP9 SWAP10 SWAP11 SWAP12 SWAP13 JUMP JUMPDEST PUSH1 0x0 PUSH2 0x2CB9 PUSH2 0x4E20 JUMP JUMPDEST PUSH2 0x2CC3 DUP5 DUP5 PUSH2 0x3A0D JUMP JUMPDEST SWAP1 POP PUSH1 0x0 PUSH2 0x2CD0 DUP3 PUSH2 0x3EA3 JUMP JUMPDEST SWAP1 POP PUSH2 0x2CE0 DUP3 PUSH1 0x40 ADD MLOAD DUP3 PUSH2 0x2E08 JUMP JUMPDEST SWAP3 POP POP POP SWAP3 SWAP2 POP POP JUMP JUMPDEST PUSH1 0x0 PUSH2 0x2CF4 PUSH2 0x4E20 JUMP JUMPDEST PUSH2 0x2CFE DUP5 DUP5 PUSH2 0x3A0D JUMP JUMPDEST SWAP1 POP PUSH2 0x2D09 DUP2 PUSH2 0x3EA3 JUMP JUMPDEST SWAP2 POP POP SWAP3 SWAP2 POP POP JUMP JUMPDEST PUSH1 0x0 DUP1 SWAP1 PUSH2 0x2D1E PUSH2 0x4D4E JUMP JUMPDEST SWAP1 PUSH2 0x100 EXP SWAP1 DIV PUSH20 0xFFFFFFFFFFFFFFFFFFFFFFFFFFFFFFFFFFFFFFFF AND DUP2 JUMP JUMPDEST PUSH1 0x0 PUSH2 0x2D5A PUSH2 0x2D4B PUSH2 0x305C JUMP JUMPDEST DUP4 PUSH2 0x3EFD SWAP1 SWAP2 SWAP1 PUSH4 0xFFFFFFFF AND JUMP JUMPDEST SWAP1 POP SWAP2 SWAP1 POP JUMP JUMPDEST PUSH1 0x2 PUSH2 0x2D6B PUSH2 0x4D4E JUMP JUMPDEST DUP2 JUMP JUMPDEST PUSH1 0x10 PUSH2 0x2D78 PUSH2 0x4D4E JUMP JUMPDEST DUP2 JUMP JUMPDEST PUSH1 0x0 DUP1 PUSH1 0x0 DUP1 PUSH1 0x0 DUP1 PUSH1 0x0 DUP1 PUSH2 0x2D8F PUSH2 0x4E20 JUMP JUMPDEST PUSH2 0x2D99 DUP12 DUP12 PUSH2 0x3A0D JUMP JUMPDEST SWAP1 POP DUP1 PUSH1 0x0 ADD MLOAD SWAP9 POP DUP1 PUSH1 0x20 ADD MLOAD SWAP8 POP DUP1 PUSH1 0x40 ADD MLOAD SWAP7 POP DUP1 PUSH1 0x60 ADD MLOAD SWAP6 POP DUP1 PUSH1 0x80 ADD MLOAD SWAP5 POP DUP1 PUSH1 0xA0 ADD MLOAD SWAP4 POP PUSH2 0x2DDB DUP2 PUSH1 0x40 ADD MLOAD PUSH2 0x2DD6 DUP4 PUSH2 0x3EA3 JUMP JUMPDEST PUSH2 0x2E08 JUMP JUMPDEST SWAP3 POP PUSH2 0x2DF8 PUSH2 0x2DE9 DUP3 PUSH2 0x3BC8 JUMP JUMPDEST DUP5 PUSH2 0x3D4C SWAP1 SWAP2 SWAP1 PUSH4 0xFFFFFFFF AND JUMP JUMPDEST SWAP2 POP POP SWAP3 SWAP6 SWAP9 POP SWAP3 SWAP6 SWAP9 SWAP1 SWAP4 SWAP7 POP JUMP JUMPDEST PUSH1 0x0 PUSH2 0x2E38 PUSH2 0x2E29 DUP4 PUSH1 0xA PUSH2 0x2E1B PUSH2 0x4D4E JUMP JUMPDEST PUSH2 0x3F2A SWAP1 SWAP2 SWAP1 PUSH4 0xFFFFFFFF AND JUMP JUMPDEST DUP5 PUSH2 0x3FB0 SWAP1 SWAP2 SWAP1 PUSH4 0xFFFFFFFF AND JUMP JUMPDEST SWAP1 POP SWAP3 SWAP2 POP POP JUMP JUMPDEST PUSH1 0x0 DUP1 SWAP1 PUSH2 0x2E4C PUSH2 0x4D4E JUMP JUMPDEST SWAP1 PUSH2 0x100 EXP SWAP1 DIV PUSH20 0xFFFFFFFFFFFFFFFFFFFFFFFFFFFFFFFFFFFFFFFF AND PUSH20 0xFFFFFFFFFFFFFFFFFFFFFFFFFFFFFFFFFFFFFFFF AND GAS PUSH2 0x2E88 PUSH2 0x4D85 JUMP JUMPDEST PUSH20 0xFFFFFFFFFFFFFFFFFFFFFFFFFFFFFFFFFFFFFFFF AND EQ PUSH2 0x2EF4 JUMPI PUSH1 0x40 MLOAD PUSH32 0x8C379A000000000000000000000000000000000000000000000000000000000 DUP2 MSTORE PUSH1 0x4 ADD DUP1 DUP1 PUSH1 0x20 ADD DUP3 DUP2 SUB DUP3 MSTORE PUSH1 0x2F DUP2 MSTORE PUSH1 0x20 ADD DUP1 PUSH2 0x5071 PUSH1 0x2F SWAP2 CODECOPY PUSH1 0x40 ADD SWAP2 POP POP PUSH1 0x40 MLOAD DUP1 SWAP2 SUB SWAP1 REVERT JUMPDEST DUP1 PUSH1 0xB DUP2 SWAP1 PUSH2 0x2F01 PUSH2 0x4DB6 JUMP JUMPDEST POP POP POP PUSH32 0xE7BD72551C54D568CD97B00DC52D2787B5C5D4F0070D3582C1E8BA25141F799C PUSH1 0xB PUSH2 0x2F2F PUSH2 0x4D4E JUMP JUMPDEST PUSH1 0x40 MLOAD DUP1 DUP3 DUP2 MSTORE PUSH1 0x20 ADD SWAP2 POP POP PUSH1 0x40 MLOAD DUP1 SWAP2 SUB SWAP1 LOG1 POP JUMP JUMPDEST PUSH1 0x14 PUSH1 0x20 MSTORE DUP2 PUSH1 0x0 MSTORE PUSH1 0x40 PUSH1 0x0 KECCAK256 DUP2 DUP2 PUSH2 0x2F5F PUSH2 0x4D4E JUMP JUMPDEST DUP2 LT PUSH2 0x2F67 JUMPI INVALID JUMPDEST SWAP1 PUSH1 0x0 MSTORE PUSH1 0x20 PUSH1 0x0 KECCAK256 SWAP1 PUSH1 0x6 MUL ADD PUSH1 0x0 SWAP2 POP SWAP2 POP POP DUP1 PUSH1 0x0 ADD PUSH1 0x0 SWAP1 PUSH2 0x2F8B PUSH2 0x4D4E JUMP JUMPDEST SWAP1 PUSH2 0x100 EXP SWAP1 DIV PUSH20 0xFFFFFFFFFFFFFFFFFFFFFFFFFFFFFFFFFFFFFFFF AND SWAP1 DUP1 PUSH1 0x1 ADD PUSH2 0x2FB5 PUSH2 0x4D4E JUMP JUMPDEST SWAP1 DUP1 PUSH1 0x2 ADD PUSH2 0x2FC2 PUSH2 0x4D4E JUMP JUMPDEST SWAP1 DUP1 PUSH1 0x3 ADD PUSH2 0x2FCF PUSH2 0x4D4E JUMP JUMPDEST SWAP1 DUP1 PUSH1 0x4 ADD PUSH2 0x2FDC PUSH2 0x4D4E JUMP JUMPDEST SWAP1 DUP1 PUSH1 0x5 ADD PUSH2 0x2FE9 PUSH2 0x4D4E JUMP JUMPDEST SWAP1 POP DUP7 JUMP JUMPDEST PUSH2 0x2FF6 PUSH2 0x4FAE JUMP JUMPDEST PUSH1 0x0 DUP1 SWAP1 POP JUMPDEST PUSH1 0x7 DUP1 PUSH2 0x3007 PUSH2 0x4D4E JUMP JUMPDEST SWAP1 POP DUP2 LT ISZERO PUSH2 0x3058 JUMPI PUSH1 0x7 DUP2 DUP2 PUSH2 0x301C PUSH2 0x4D4E JUMP JUMPDEST DUP2 LT PUSH2 0x3024 JUMPI INVALID JUMPDEST SWAP1 PUSH1 0x0 MSTORE PUSH1 0x20 PUSH1 0x0 KECCAK256 ADD PUSH2 0x3036 PUSH2 0x4D4E JUMP JUMPDEST DUP3 DUP3 PUSH1 0x18 DUP2 LT PUSH2 0x3042 JUMPI INVALID JUMPDEST PUSH1 0x20 MUL ADD DUP2 DUP2 MSTORE POP POP DUP1 DUP1 PUSH1 0x1 ADD SWAP2 POP POP PUSH2 0x2FFC JUMP JUMPDEST POP SWAP1 JUMP JUMPDEST PUSH1 0x0 PUSH2 0x3083 PUSH1 0x8 PUSH2 0x306B PUSH2 0x4D4E JUMP JUMPDEST PUSH9 0x56BC75E2D63100000 PUSH2 0x3FCC SWAP1 SWAP2 SWAP1 PUSH4 0xFFFFFFFF AND JUMP JUMPDEST SWAP1 POP SWAP1 JUMP JUMPDEST PUSH1 0x0 DUP1 SWAP1 PUSH2 0x3094 PUSH2 0x4D4E JUMP JUMPDEST SWAP1 PUSH2 0x100 EXP SWAP1 DIV PUSH20 0xFFFFFFFFFFFFFFFFFFFFFFFFFFFFFFFFFFFFFFFF AND PUSH20 0xFFFFFFFFFFFFFFFFFFFFFFFFFFFFFFFFFFFFFFFF AND GAS PUSH2 0x30D0 PUSH2 0x4D85 JUMP JUMPDEST PUSH20 0xFFFFFFFFFFFFFFFFFFFFFFFFFFFFFFFFFFFFFFFF AND EQ PUSH2 0x313C JUMPI PUSH1 0x40 MLOAD PUSH32 0x8C379A000000000000000000000000000000000000000000000000000000000 DUP2 MSTORE PUSH1 0x4 ADD DUP1 DUP1 PUSH1 0x20 ADD DUP3 DUP2 SUB DUP3 MSTORE PUSH1 0x2F DUP2 MSTORE PUSH1 0x20 ADD DUP1 PUSH2 0x5071 PUSH1 0x2F SWAP2 CODECOPY PUSH1 0x40 ADD SWAP2 POP POP PUSH1 0x40 MLOAD DUP1 SWAP2 SUB SWAP1 REVERT JUMPDEST PUSH1 0x10 PUSH2 0x3146 PUSH2 0x4D4E JUMP JUMPDEST GAS PUSH2 0x314F PUSH2 0x4DEF JUMP JUMPDEST GT PUSH2 0x31C2 JUMPI PUSH1 0x40 MLOAD PUSH32 0x8C379A000000000000000000000000000000000000000000000000000000000 DUP2 MSTORE PUSH1 0x4 ADD DUP1 DUP1 PUSH1 0x20 ADD DUP3 DUP2 SUB DUP3 MSTORE PUSH1 0x1B DUP2 MSTORE PUSH1 0x20 ADD DUP1 PUSH32 0x4265666F7265206C69717569646174696F6E20646561646C696E650000000000 DUP2 MSTORE POP PUSH1 0x20 ADD SWAP2 POP POP PUSH1 0x40 MLOAD DUP1 SWAP2 SUB SWAP1 REVERT JUMPDEST DUP1 PUSH1 0xF PUSH1 0x0 PUSH2 0x100 EXP DUP2 PUSH2 0x31D4 PUSH2 0x4D4E JUMP JUMPDEST DUP2 PUSH1 0xFF MUL NOT AND SWAP1 DUP4 ISZERO ISZERO MUL OR SWAP1 PUSH2 0x31E9 PUSH2 0x4DB6 JUMP JUMPDEST POP POP POP PUSH32 0xAA52CF15C1FBB778214C66F64726E141551158858D1C06CA0392C6C5869C8567 PUSH1 0xF PUSH1 0x0 SWAP1 PUSH2 0x321A PUSH2 0x4D4E JUMP JUMPDEST SWAP1 PUSH2 0x100 EXP SWAP1 DIV PUSH1 0xFF AND PUSH1 0x40 MLOAD DUP1 DUP3 ISZERO ISZERO ISZERO ISZERO DUP2 MSTORE PUSH1 0x20 ADD SWAP2 POP POP PUSH1 0x40 MLOAD DUP1 SWAP2 SUB SWAP1 LOG1 POP JUMP JUMPDEST PUSH1 0x7 DUP2 DUP2 PUSH2 0x324C PUSH2 0x4D4E JUMP JUMPDEST DUP2 LT PUSH2 0x3254 JUMPI INVALID JUMPDEST SWAP1 PUSH1 0x0 MSTORE PUSH1 0x20 PUSH1 0x0 KECCAK256 ADD PUSH1 0x0 SWAP2 POP SWAP1 POP PUSH2 0x326C PUSH2 0x4D4E JUMP JUMPDEST DUP2 JUMP JUMPDEST PUSH1 0xD PUSH2 0x3279 PUSH2 0x4D4E JUMP JUMPDEST DUP2 JUMP JUMPDEST PUSH1 0x1 PUSH1 0x4 PUSH1 0x0 DUP3 DUP3 PUSH2 0x328C PUSH2 0x4D4E JUMP JUMPDEST ADD SWAP3 POP POP DUP2 SWAP1 PUSH2 0x329A PUSH2 0x4DB6 JUMP JUMPDEST POP POP POP PUSH1 0x0 PUSH1 0x4 PUSH2 0x32A9 PUSH2 0x4D4E JUMP JUMPDEST SWAP1 POP PUSH2 0x32B3 PUSH2 0x3C80 JUMP JUMPDEST PUSH20 0xFFFFFFFFFFFFFFFFFFFFFFFFFFFFFFFFFFFFFFFF AND PUSH3 0x9919C0 PUSH1 0x40 MLOAD DUP2 PUSH4 0xFFFFFFFF AND PUSH1 0xE0 SHL DUP2 MSTORE PUSH1 0x4 ADD DUP1 DUP1 PUSH32 0x7345544800000000000000000000000000000000000000000000000000000000 DUP2 MSTORE POP PUSH1 0x20 ADD SWAP1 POP PUSH1 0x20 PUSH1 0x40 MLOAD DUP1 DUP4 SUB DUP2 DUP7 DUP1 PUSH2 0x331D PUSH2 0x4E6C JUMP JUMPDEST ISZERO DUP1 ISZERO PUSH2 0x3329 JUMPI PUSH1 0x0 DUP1 REVERT JUMPDEST POP GAS PUSH2 0x3333 PUSH2 0x4EA3 JUMP JUMPDEST POP POP POP POP POP ISZERO DUP1 ISZERO PUSH2 0x3349 JUMPI RETURNDATASIZE PUSH1 0x0 DUP1 RETURNDATACOPY RETURNDATASIZE PUSH1 0x0 REVERT JUMPDEST POP POP POP POP PUSH1 0x40 MLOAD RETURNDATASIZE PUSH1 0x20 DUP2 LT ISZERO PUSH2 0x335F JUMPI PUSH1 0x0 DUP1 REVERT JUMPDEST DUP2 ADD SWAP1 DUP1 DUP1 MLOAD SWAP1 PUSH1 0x20 ADD SWAP1 SWAP3 SWAP2 SWAP1 POP POP POP ISZERO PUSH2 0x33E3 JUMPI PUSH1 0x40 MLOAD PUSH32 0x8C379A000000000000000000000000000000000000000000000000000000000 DUP2 MSTORE PUSH1 0x4 ADD DUP1 DUP1 PUSH1 0x20 ADD DUP3 DUP2 SUB DUP3 MSTORE PUSH1 0x1D DUP2 MSTORE PUSH1 0x20 ADD DUP1 PUSH32 0x426C6F636B656420617320734554482072617465206973207374616C65000000 DUP2 MSTORE POP PUSH1 0x20 ADD SWAP2 POP POP PUSH1 0x40 MLOAD DUP1 SWAP2 SUB SWAP1 REVERT JUMPDEST PUSH2 0x33F5 GAS PUSH2 0x33EF PUSH2 0x4D85 JUMP JUMPDEST DUP4 PUSH2 0x3FE8 JUMP JUMPDEST PUSH1 0x4 PUSH2 0x33FF PUSH2 0x4D4E JUMP JUMPDEST DUP2 EQ PUSH2 0x3473 JUMPI PUSH1 0x40 MLOAD PUSH32 0x8C379A000000000000000000000000000000000000000000000000000000000 DUP2 MSTORE PUSH1 0x4 ADD DUP1 DUP1 PUSH1 0x20 ADD DUP3 DUP2 SUB DUP3 MSTORE PUSH1 0x1F DUP2 MSTORE PUSH1 0x20 ADD DUP1 PUSH32 0x5265656E7472616E637947756172643A207265656E7472616E742063616C6C00 DUP2 MSTORE POP PUSH1 0x20 ADD SWAP2 POP POP PUSH1 0x40 MLOAD DUP1 SWAP2 SUB SWAP1 REVERT JUMPDEST POP POP JUMP JUMPDEST PUSH1 0x8 PUSH2 0x3481 PUSH2 0x4D4E JUMP JUMPDEST DUP2 JUMP JUMPDEST PUSH1 0x1 PUSH1 0x4 PUSH1 0x0 DUP3 DUP3 PUSH2 0x3494 PUSH2 0x4D4E JUMP JUMPDEST ADD SWAP3 POP POP DUP2 SWAP1 PUSH2 0x34A2 PUSH2 0x4DB6 JUMP JUMPDEST POP POP POP PUSH1 0x0 PUSH1 0x4 PUSH2 0x34B1 PUSH2 0x4D4E JUMP JUMPDEST SWAP1 POP PUSH2 0x34BB PUSH2 0x3C80 JUMP JUMPDEST PUSH20 0xFFFFFFFFFFFFFFFFFFFFFFFFFFFFFFFFFFFFFFFF AND PUSH3 0x9919C0 PUSH1 0x40 MLOAD DUP2 PUSH4 0xFFFFFFFF AND PUSH1 0xE0 SHL DUP2 MSTORE PUSH1 0x4 ADD DUP1 DUP1 PUSH32 0x7345544800000000000000000000000000000000000000000000000000000000 DUP2 MSTORE POP PUSH1 0x20 ADD SWAP1 POP PUSH1 0x20 PUSH1 0x40 MLOAD DUP1 DUP4 SUB DUP2 DUP7 DUP1 PUSH2 0x3525 PUSH2 0x4E6C JUMP JUMPDEST ISZERO DUP1 ISZERO PUSH2 0x3531 JUMPI PUSH1 0x0 DUP1 REVERT JUMPDEST POP GAS PUSH2 0x353B PUSH2 0x4EA3 JUMP JUMPDEST POP POP POP POP POP ISZERO DUP1 ISZERO PUSH2 0x3551 JUMPI RETURNDATASIZE PUSH1 0x0 DUP1 RETURNDATACOPY RETURNDATASIZE PUSH1 0x0 REVERT JUMPDEST POP POP POP POP PUSH1 0x40 MLOAD RETURNDATASIZE PUSH1 0x20 DUP2 LT ISZERO PUSH2 0x3567 JUMPI PUSH1 0x0 DUP1 REVERT JUMPDEST DUP2 ADD SWAP1 DUP1 DUP1 MLOAD SWAP1 PUSH1 0x20 ADD SWAP1 SWAP3 SWAP2 SWAP1 POP POP POP ISZERO PUSH2 0x35EB JUMPI PUSH1 0x40 MLOAD PUSH32 0x8C379A000000000000000000000000000000000000000000000000000000000 DUP2 MSTORE PUSH1 0x4 ADD DUP1 DUP1 PUSH1 0x20 ADD DUP3 DUP2 SUB DUP3 MSTORE PUSH1 0x1D DUP2 MSTORE PUSH1 0x20 ADD DUP1 PUSH32 0x426C6F636B656420617320734554482072617465206973207374616C65000000 DUP2 MSTORE POP PUSH1 0x20 ADD SWAP2 POP POP PUSH1 0x40 MLOAD DUP1 SWAP2 SUB SWAP1 REVERT JUMPDEST PUSH1 0xF PUSH1 0x0 SWAP1 PUSH2 0x35F8 PUSH2 0x4D4E JUMP JUMPDEST SWAP1 PUSH2 0x100 EXP SWAP1 DIV PUSH1 0xFF AND PUSH2 0x3674 JUMPI PUSH1 0x40 MLOAD PUSH32 0x8C379A000000000000000000000000000000000000000000000000000000000 DUP2 MSTORE PUSH1 0x4 ADD DUP1 DUP1 PUSH1 0x20 ADD DUP3 DUP2 SUB DUP3 MSTORE PUSH1 0x17 DUP2 MSTORE PUSH1 0x20 ADD DUP1 PUSH32 0x4C69717569646174696F6E206973206E6F74206F70656E000000000000000000 DUP2 MSTORE POP PUSH1 0x20 ADD SWAP2 POP POP PUSH1 0x40 MLOAD DUP1 SWAP2 SUB SWAP1 REVERT JUMPDEST PUSH2 0x367E DUP4 DUP4 PUSH2 0x3FE8 JUMP JUMPDEST DUP3 PUSH20 0xFFFFFFFFFFFFFFFFFFFFFFFFFFFFFFFFFFFFFFFF AND PUSH32 0xDE21B2A43B0A2C2109C049FB1E4BB8653FD67D0FFD74FDCB662DB381F1EEAB38 DUP4 GAS PUSH2 0x36C0 PUSH2 0x4D85 JUMP JUMPDEST PUSH1 0x40 MLOAD DUP1 DUP4 DUP2 MSTORE PUSH1 0x20 ADD DUP3 PUSH20 0xFFFFFFFFFFFFFFFFFFFFFFFFFFFFFFFFFFFFFFFF AND PUSH20 0xFFFFFFFFFFFFFFFFFFFFFFFFFFFFFFFFFFFFFFFF AND DUP2 MSTORE PUSH1 0x20 ADD SWAP3 POP POP POP PUSH1 0x40 MLOAD DUP1 SWAP2 SUB SWAP1 LOG2 PUSH1 0x4 PUSH2 0x3712 PUSH2 0x4D4E JUMP JUMPDEST DUP2 EQ PUSH2 0x3786 JUMPI PUSH1 0x40 MLOAD PUSH32 0x8C379A000000000000000000000000000000000000000000000000000000000 DUP2 MSTORE PUSH1 0x4 ADD DUP1 DUP1 PUSH1 0x20 ADD DUP3 DUP2 SUB DUP3 MSTORE PUSH1 0x1F DUP2 MSTORE PUSH1 0x20 ADD DUP1 PUSH32 0x5265656E7472616E637947756172643A207265656E7472616E742063616C6C00 DUP2 MSTORE POP PUSH1 0x20 ADD SWAP2 POP POP PUSH1 0x40 MLOAD DUP1 SWAP2 SUB SWAP1 REVERT JUMPDEST POP POP POP JUMP JUMPDEST PUSH1 0x18 DUP2 JUMP JUMPDEST PUSH1 0xF PUSH1 0x0 SWAP1 PUSH2 0x379D PUSH2 0x4D4E JUMP JUMPDEST SWAP1 PUSH2 0x100 EXP SWAP1 DIV PUSH1 0xFF AND DUP2 JUMP JUMPDEST PUSH1 0xA PUSH2 0x37B4 PUSH2 0x4D4E JUMP JUMPDEST DUP2 JUMP JUMPDEST PUSH1 0x0 DUP1 SWAP1 PUSH2 0x37C3 PUSH2 0x4D4E JUMP JUMPDEST SWAP1 PUSH2 0x100 EXP SWAP1 DIV PUSH20 0xFFFFFFFFFFFFFFFFFFFFFFFFFFFFFFFFFFFFFFFF AND PUSH20 0xFFFFFFFFFFFFFFFFFFFFFFFFFFFFFFFFFFFFFFFF AND GAS PUSH2 0x37FF PUSH2 0x4D85 JUMP JUMPDEST PUSH20 0xFFFFFFFFFFFFFFFFFFFFFFFFFFFFFFFFFFFFFFFF AND EQ PUSH2 0x386B JUMPI PUSH1 0x40 MLOAD PUSH32 0x8C379A000000000000000000000000000000000000000000000000000000000 DUP2 MSTORE PUSH1 0x4 ADD DUP1 DUP1 PUSH1 0x20 ADD DUP3 DUP2 SUB DUP3 MSTORE PUSH1 0x2F DUP2 MSTORE PUSH1 0x20 ADD DUP1 PUSH2 0x5071 PUSH1 0x2F SWAP2 CODECOPY PUSH1 0x40 ADD SWAP2 POP POP PUSH1 0x40 MLOAD DUP1 SWAP2 SUB SWAP1 REVERT JUMPDEST PUSH9 0x3635C9ADC5DEA00000 DUP2 GT ISZERO PUSH2 0x38EA JUMPI PUSH1 0x40 MLOAD PUSH32 0x8C379A000000000000000000000000000000000000000000000000000000000 DUP2 MSTORE PUSH1 0x4 ADD DUP1 DUP1 PUSH1 0x20 ADD DUP3 DUP2 SUB DUP3 MSTORE PUSH1 0x8 DUP2 MSTORE PUSH1 0x20 ADD DUP1 PUSH32 0x546F6F2068696768000000000000000000000000000000000000000000000000 DUP2 MSTORE POP PUSH1 0x20 ADD SWAP2 POP POP PUSH1 0x40 MLOAD DUP1 SWAP2 SUB SWAP1 REVERT JUMPDEST PUSH9 0x56BC75E2D63100000 DUP2 LT ISZERO PUSH2 0x3969 JUMPI PUSH1 0x40 MLOAD PUSH32 0x8C379A000000000000000000000000000000000000000000000000000000000 DUP2 MSTORE PUSH1 0x4 ADD DUP1 DUP1 PUSH1 0x20 ADD DUP3 DUP2 SUB DUP3 MSTORE PUSH1 0x7 DUP2 MSTORE PUSH1 0x20 ADD DUP1 PUSH32 0x546F6F206C6F7700000000000000000000000000000000000000000000000000 DUP2 MSTORE POP PUSH1 0x20 ADD SWAP2 POP POP PUSH1 0x40 MLOAD DUP1 SWAP2 SUB SWAP1 REVERT JUMPDEST DUP1 PUSH1 0x8 DUP2 SWAP1 PUSH2 0x3976 PUSH2 0x4DB6 JUMP JUMPDEST POP POP POP PUSH32 0xFB0EBE8C7316E6A251494C38876D13D9A3A029273FCE7964C12AA2CE07869530 DUP2 PUSH1 0x40 MLOAD DUP1 DUP3 DUP2 MSTORE PUSH1 0x20 ADD SWAP2 POP POP PUSH1 0x40 MLOAD DUP1 SWAP2 SUB SWAP1 LOG1 POP JUMP JUMPDEST PUSH1 0x11 PUSH2 0x39BD PUSH2 0x4D4E JUMP JUMPDEST DUP2 JUMP JUMPDEST PUSH1 0xC PUSH2 0x39CA PUSH2 0x4D4E JUMP JUMPDEST DUP2 JUMP JUMPDEST PUSH1 0x0 PUSH2 0x3A06 PUSH2 0x39F7 PUSH9 0x56BC75E2D63100000 PUSH1 0x8 PUSH2 0x39E9 PUSH2 0x4D4E JUMP JUMPDEST PUSH2 0x3FCC SWAP1 SWAP2 SWAP1 PUSH4 0xFFFFFFFF AND JUMP JUMPDEST DUP4 PUSH2 0x3EFD SWAP1 SWAP2 SWAP1 PUSH4 0xFFFFFFFF AND JUMP JUMPDEST SWAP1 POP SWAP2 SWAP1 POP JUMP JUMPDEST PUSH2 0x3A15 PUSH2 0x4E20 JUMP JUMPDEST PUSH1 0x60 PUSH1 0x14 PUSH1 0x0 DUP6 PUSH20 0xFFFFFFFFFFFFFFFFFFFFFFFFFFFFFFFFFFFFFFFF AND PUSH20 0xFFFFFFFFFFFFFFFFFFFFFFFFFFFFFFFFFFFFFFFF AND DUP2 MSTORE PUSH1 0x20 ADD SWAP1 DUP2 MSTORE PUSH1 0x20 ADD PUSH1 0x0 KECCAK256 DUP1 PUSH2 0x3A5F PUSH2 0x4D4E JUMP JUMPDEST DUP1 PUSH1 0x20 MUL PUSH1 0x20 ADD PUSH1 0x40 MLOAD SWAP1 DUP2 ADD PUSH1 0x40 MSTORE DUP1 SWAP3 SWAP2 SWAP1 DUP2 DUP2 MSTORE PUSH1 0x20 ADD PUSH1 0x0 SWAP1 JUMPDEST DUP3 DUP3 LT ISZERO PUSH2 0x3B61 JUMPI DUP4 DUP3 SWAP1 PUSH1 0x0 MSTORE PUSH1 0x20 PUSH1 0x0 KECCAK256 SWAP1 PUSH1 0x6 MUL ADD PUSH1 0x40 MLOAD DUP1 PUSH1 0xC0 ADD PUSH1 0x40 MSTORE SWAP1 DUP2 PUSH1 0x0 DUP3 ADD PUSH1 0x0 SWAP1 PUSH2 0x3AB0 PUSH2 0x4D4E JUMP JUMPDEST SWAP1 PUSH2 0x100 EXP SWAP1 DIV PUSH20 0xFFFFFFFFFFFFFFFFFFFFFFFFFFFFFFFFFFFFFFFF AND PUSH20 0xFFFFFFFFFFFFFFFFFFFFFFFFFFFFFFFFFFFFFFFF AND PUSH20 0xFFFFFFFFFFFFFFFFFFFFFFFFFFFFFFFFFFFFFFFF AND DUP2 MSTORE PUSH1 0x20 ADD PUSH1 0x1 DUP3 ADD PUSH2 0x3B0A PUSH2 0x4D4E JUMP JUMPDEST DUP2 MSTORE PUSH1 0x20 ADD PUSH1 0x2 DUP3 ADD PUSH2 0x3B1B PUSH2 0x4D4E JUMP JUMPDEST DUP2 MSTORE PUSH1 0x20 ADD PUSH1 0x3 DUP3 ADD PUSH2 0x3B2C PUSH2 0x4D4E JUMP JUMPDEST DUP2 MSTORE PUSH1 0x20 ADD PUSH1 0x4 DUP3 ADD PUSH2 0x3B3D PUSH2 0x4D4E JUMP JUMPDEST DUP2 MSTORE PUSH1 0x20 ADD PUSH1 0x5 DUP3 ADD PUSH2 0x3B4E PUSH2 0x4D4E JUMP JUMPDEST DUP2 MSTORE POP POP DUP2 MSTORE PUSH1 0x20 ADD SWAP1 PUSH1 0x1 ADD SWAP1 PUSH2 0x3A7D JUMP JUMPDEST POP POP POP POP SWAP1 POP PUSH1 0x0 DUP1 SWAP1 POP JUMPDEST DUP2 MLOAD DUP2 LT ISZERO PUSH2 0x3BBF JUMPI DUP4 DUP3 DUP3 DUP2 MLOAD DUP2 LT PUSH2 0x3B83 JUMPI INVALID JUMPDEST PUSH1 0x20 MUL PUSH1 0x20 ADD ADD MLOAD PUSH1 0x80 ADD MLOAD EQ ISZERO PUSH2 0x3BB2 JUMPI DUP2 DUP2 DUP2 MLOAD DUP2 LT PUSH2 0x3BA1 JUMPI INVALID JUMPDEST PUSH1 0x20 MUL PUSH1 0x20 ADD ADD MLOAD SWAP3 POP POP POP PUSH2 0x3BC2 JUMP JUMPDEST DUP1 DUP1 PUSH1 0x1 ADD SWAP2 POP POP PUSH2 0x3B6D JUMP JUMPDEST POP POP JUMPDEST SWAP3 SWAP2 POP POP JUMP JUMPDEST PUSH1 0x0 PUSH2 0x3BEA PUSH1 0xB PUSH2 0x3BD7 PUSH2 0x4D4E JUMP JUMPDEST DUP4 PUSH1 0x40 ADD MLOAD PUSH2 0x3FB0 SWAP1 SWAP2 SWAP1 PUSH4 0xFFFFFFFF AND JUMP JUMPDEST SWAP1 POP SWAP2 SWAP1 POP JUMP JUMPDEST PUSH1 0x0 DUP1 DUP3 GT PUSH2 0x3C68 JUMPI PUSH1 0x40 MLOAD PUSH32 0x8C379A000000000000000000000000000000000000000000000000000000000 DUP2 MSTORE PUSH1 0x4 ADD DUP1 DUP1 PUSH1 0x20 ADD DUP3 DUP2 SUB DUP3 MSTORE PUSH1 0x1A DUP2 MSTORE PUSH1 0x20 ADD DUP1 PUSH32 0x536166654D6174683A206469766973696F6E206279207A65726F000000000000 DUP2 MSTORE POP PUSH1 0x20 ADD SWAP2 POP POP PUSH1 0x40 MLOAD DUP1 SWAP2 SUB SWAP1 REVERT JUMPDEST PUSH1 0x0 DUP3 DUP5 DUP2 PUSH2 0x3C73 JUMPI INVALID JUMPDEST DIV SWAP1 POP DUP1 SWAP2 POP POP SWAP3 SWAP2 POP POP JUMP JUMPDEST PUSH1 0x0 PUSH2 0x3CE1 PUSH32 0x45786368616E6765526174657300000000000000000000000000000000000000 PUSH1 0x40 MLOAD DUP1 PUSH1 0x40 ADD PUSH1 0x40 MSTORE DUP1 PUSH1 0x1D DUP2 MSTORE PUSH1 0x20 ADD PUSH32 0x4D697373696E672045786368616E676552617465732061646472657373000000 DUP2 MSTORE POP PUSH2 0x4912 JUMP JUMPDEST SWAP1 POP SWAP1 JUMP JUMPDEST PUSH1 0x0 PUSH2 0x3D47 PUSH32 0x53797374656D5374617475730000000000000000000000000000000000000000 PUSH1 0x40 MLOAD DUP1 PUSH1 0x40 ADD PUSH1 0x40 MSTORE DUP1 PUSH1 0x1C DUP2 MSTORE PUSH1 0x20 ADD PUSH32 0x4D697373696E672053797374656D537461747573206164647265737300000000 DUP2 MSTORE POP PUSH2 0x4912 JUMP JUMPDEST SWAP1 POP SWAP1 JUMP JUMPDEST PUSH1 0x0 DUP1 DUP3 DUP5 ADD SWAP1 POP DUP4 DUP2 LT ISZERO PUSH2 0x3DCA JUMPI PUSH1 0x40 MLOAD PUSH32 0x8C379A000000000000000000000000000000000000000000000000000000000 DUP2 MSTORE PUSH1 0x4 ADD DUP1 DUP1 PUSH1 0x20 ADD DUP3 DUP2 SUB DUP3 MSTORE PUSH1 0x1B DUP2 MSTORE PUSH1 0x20 ADD DUP1 PUSH32 0x536166654D6174683A206164646974696F6E206F766572666C6F770000000000 DUP2 MSTORE POP PUSH1 0x20 ADD SWAP2 POP POP PUSH1 0x40 MLOAD DUP1 SWAP2 SUB SWAP1 REVERT JUMPDEST DUP1 SWAP2 POP POP SWAP3 SWAP2 POP POP JUMP JUMPDEST PUSH1 0x0 PUSH2 0x3DF3 PUSH1 0x1 PUSH1 0x13 PUSH2 0x3DE5 PUSH2 0x4D4E JUMP JUMPDEST PUSH2 0x3D4C SWAP1 SWAP2 SWAP1 PUSH4 0xFFFFFFFF AND JUMP JUMPDEST PUSH1 0x13 DUP2 SWAP1 PUSH2 0x3DFF PUSH2 0x4DB6 JUMP JUMPDEST POP POP POP PUSH2 0x3E1F PUSH1 0x1 PUSH1 0x12 PUSH2 0x3E11 PUSH2 0x4D4E JUMP JUMPDEST PUSH2 0x3D4C SWAP1 SWAP2 SWAP1 PUSH4 0xFFFFFFFF AND JUMP JUMPDEST PUSH1 0x12 DUP2 SWAP1 PUSH2 0x3E2B PUSH2 0x4DB6 JUMP JUMPDEST POP POP POP PUSH1 0x12 PUSH2 0x3E38 PUSH2 0x4D4E JUMP JUMPDEST SWAP1 POP SWAP1 JUMP JUMPDEST PUSH1 0x0 PUSH2 0x3E9E PUSH32 0x53796E7468734554480000000000000000000000000000000000000000000000 PUSH1 0x40 MLOAD DUP1 PUSH1 0x40 ADD PUSH1 0x40 MSTORE DUP1 PUSH1 0x19 DUP2 MSTORE PUSH1 0x20 ADD PUSH32 0x4D697373696E672053796E746873455448206164647265737300000000000000 DUP2 MSTORE POP PUSH2 0x4912 JUMP JUMPDEST SWAP1 POP SWAP1 JUMP JUMPDEST PUSH1 0x0 DUP1 PUSH1 0x0 DUP4 PUSH1 0xA0 ADD MLOAD GT SWAP1 POP DUP1 PUSH2 0x3ED9 JUMPI PUSH2 0x3ED4 DUP4 PUSH1 0x60 ADD MLOAD GAS PUSH2 0x3EC6 PUSH2 0x4DEF JUMP JUMPDEST PUSH2 0x4A35 SWAP1 SWAP2 SWAP1 PUSH4 0xFFFFFFFF AND JUMP JUMPDEST PUSH2 0x3EF5 JUMP JUMPDEST PUSH2 0x3EF4 DUP4 PUSH1 0x60 ADD MLOAD DUP5 PUSH1 0xA0 ADD MLOAD PUSH2 0x4A35 SWAP1 SWAP2 SWAP1 PUSH4 0xFFFFFFFF AND JUMP JUMPDEST JUMPDEST SWAP2 POP POP SWAP2 SWAP1 POP JUMP JUMPDEST PUSH1 0x0 PUSH1 0x12 PUSH1 0xFF AND PUSH1 0xA EXP PUSH2 0x3F1A DUP4 DUP6 PUSH2 0x3F2A SWAP1 SWAP2 SWAP1 PUSH4 0xFFFFFFFF AND JUMP JUMPDEST DUP2 PUSH2 0x3F21 JUMPI INVALID JUMPDEST DIV SWAP1 POP SWAP3 SWAP2 POP POP JUMP JUMPDEST PUSH1 0x0 DUP1 DUP4 EQ ISZERO PUSH2 0x3F3D JUMPI PUSH1 0x0 SWAP1 POP PUSH2 0x3FAA JUMP JUMPDEST PUSH1 0x0 DUP3 DUP5 MUL SWAP1 POP DUP3 DUP5 DUP3 DUP2 PUSH2 0x3F4E JUMPI INVALID JUMPDEST DIV EQ PUSH2 0x3FA5 JUMPI PUSH1 0x40 MLOAD PUSH32 0x8C379A000000000000000000000000000000000000000000000000000000000 DUP2 MSTORE PUSH1 0x4 ADD DUP1 DUP1 PUSH1 0x20 ADD DUP3 DUP2 SUB DUP3 MSTORE PUSH1 0x21 DUP2 MSTORE PUSH1 0x20 ADD DUP1 PUSH2 0x50A0 PUSH1 0x21 SWAP2 CODECOPY PUSH1 0x40 ADD SWAP2 POP POP PUSH1 0x40 MLOAD DUP1 SWAP2 SUB SWAP1 REVERT JUMPDEST DUP1 SWAP2 POP POP JUMPDEST SWAP3 SWAP2 POP POP JUMP JUMPDEST PUSH1 0x0 PUSH2 0x3FC4 DUP4 DUP4 PUSH1 0x12 PUSH1 0xFF AND PUSH1 0xA EXP PUSH2 0x4ABE JUMP JUMPDEST SWAP1 POP SWAP3 SWAP2 POP POP JUMP JUMPDEST PUSH1 0x0 PUSH2 0x3FE0 DUP4 DUP4 PUSH1 0x12 PUSH1 0xFF AND PUSH1 0xA EXP PUSH2 0x4B17 JUMP JUMPDEST SWAP1 POP SWAP3 SWAP2 POP POP JUMP JUMPDEST PUSH2 0x3FF0 PUSH2 0x3CE6 JUMP JUMPDEST PUSH20 0xFFFFFFFFFFFFFFFFFFFFFFFFFFFFFFFFFFFFFFFF AND PUSH4 0x7C312541 PUSH1 0x40 MLOAD DUP2 PUSH4 0xFFFFFFFF AND PUSH1 0xE0 SHL DUP2 MSTORE PUSH1 0x4 ADD PUSH1 0x0 PUSH1 0x40 MLOAD DUP1 DUP4 SUB DUP2 DUP7 DUP1 PUSH2 0x4030 PUSH2 0x4E6C JUMP JUMPDEST ISZERO DUP1 ISZERO PUSH2 0x403C JUMPI PUSH1 0x0 DUP1 REVERT JUMPDEST POP GAS PUSH2 0x4046 PUSH2 0x4EA3 JUMP JUMPDEST POP POP POP POP POP ISZERO DUP1 ISZERO PUSH2 0x405C JUMPI RETURNDATASIZE PUSH1 0x0 DUP1 RETURNDATACOPY RETURNDATASIZE PUSH1 0x0 REVERT JUMPDEST POP POP POP POP PUSH2 0x4068 PUSH2 0x4E20 JUMP JUMPDEST PUSH2 0x4072 DUP4 DUP4 PUSH2 0x3A0D JUMP JUMPDEST SWAP1 POP PUSH1 0x0 DUP2 PUSH1 0x80 ADD MLOAD GT PUSH2 0x40EE JUMPI PUSH1 0x40 MLOAD PUSH32 0x8C379A000000000000000000000000000000000000000000000000000000000 DUP2 MSTORE PUSH1 0x4 ADD DUP1 DUP1 PUSH1 0x20 ADD DUP3 DUP2 SUB DUP3 MSTORE PUSH1 0x13 DUP2 MSTORE PUSH1 0x20 ADD DUP1 PUSH32 0x4C6F616E20646F6573206E6F7420657869737400000000000000000000000000 DUP2 MSTORE POP PUSH1 0x20 ADD SWAP2 POP POP PUSH1 0x40 MLOAD DUP1 SWAP2 SUB SWAP1 REVERT JUMPDEST PUSH1 0x0 DUP2 PUSH1 0xA0 ADD MLOAD EQ PUSH2 0x4168 JUMPI PUSH1 0x40 MLOAD PUSH32 0x8C379A000000000000000000000000000000000000000000000000000000000 DUP2 MSTORE PUSH1 0x4 ADD DUP1 DUP1 PUSH1 0x20 ADD DUP3 DUP2 SUB DUP3 MSTORE PUSH1 0x13 DUP2 MSTORE PUSH1 0x20 ADD DUP1 PUSH32 0x4C6F616E20616C726561647920636C6F73656400000000000000000000000000 DUP2 MSTORE POP PUSH1 0x20 ADD SWAP2 POP POP PUSH1 0x40 MLOAD DUP1 SWAP2 SUB SWAP1 REVERT JUMPDEST DUP1 PUSH1 0x40 ADD MLOAD PUSH2 0x4175 PUSH2 0x3E3D JUMP JUMPDEST PUSH20 0xFFFFFFFFFFFFFFFFFFFFFFFFFFFFFFFFFFFFFFFF AND PUSH4 0x70A08231 GAS PUSH2 0x4199 PUSH2 0x4D85 JUMP JUMPDEST PUSH1 0x40 MLOAD DUP3 PUSH4 0xFFFFFFFF AND PUSH1 0xE0 SHL DUP2 MSTORE PUSH1 0x4 ADD DUP1 DUP3 PUSH20 0xFFFFFFFFFFFFFFFFFFFFFFFFFFFFFFFFFFFFFFFF AND PUSH20 0xFFFFFFFFFFFFFFFFFFFFFFFFFFFFFFFFFFFFFFFF AND DUP2 MSTORE PUSH1 0x20 ADD SWAP2 POP POP PUSH1 0x20 PUSH1 0x40 MLOAD DUP1 DUP4 SUB DUP2 DUP7 DUP1 PUSH2 0x41F4 PUSH2 0x4E6C JUMP JUMPDEST ISZERO DUP1 ISZERO PUSH2 0x4200 JUMPI PUSH1 0x0 DUP1 REVERT JUMPDEST POP GAS PUSH2 0x420A PUSH2 0x4EA3 JUMP JUMPDEST POP POP POP POP POP ISZERO DUP1 ISZERO PUSH2 0x4220 JUMPI RETURNDATASIZE PUSH1 0x0 DUP1 RETURNDATACOPY RETURNDATASIZE PUSH1 0x0 REVERT JUMPDEST POP POP POP POP PUSH1 0x40 MLOAD RETURNDATASIZE PUSH1 0x20 DUP2 LT ISZERO PUSH2 0x4236 JUMPI PUSH1 0x0 DUP1 REVERT JUMPDEST DUP2 ADD SWAP1 DUP1 DUP1 MLOAD SWAP1 PUSH1 0x20 ADD SWAP1 SWAP3 SWAP2 SWAP1 POP POP POP LT ISZERO PUSH2 0x429E JUMPI PUSH1 0x40 MLOAD PUSH32 0x8C379A000000000000000000000000000000000000000000000000000000000 DUP2 MSTORE PUSH1 0x4 ADD DUP1 DUP1 PUSH1 0x20 ADD DUP3 DUP2 SUB DUP3 MSTORE PUSH1 0x3E DUP2 MSTORE PUSH1 0x20 ADD DUP1 PUSH2 0x5198 PUSH1 0x3E SWAP2 CODECOPY PUSH1 0x40 ADD SWAP2 POP POP PUSH1 0x40 MLOAD DUP1 SWAP2 SUB SWAP1 REVERT JUMPDEST PUSH2 0x42A7 DUP2 PUSH2 0x4B72 JUMP JUMPDEST PUSH2 0x42C7 DUP2 PUSH1 0x40 ADD MLOAD PUSH1 0x11 PUSH2 0x42B9 PUSH2 0x4D4E JUMP JUMPDEST PUSH2 0x4A35 SWAP1 SWAP2 SWAP1 PUSH4 0xFFFFFFFF AND JUMP JUMPDEST PUSH1 0x11 DUP2 SWAP1 PUSH2 0x42D3 PUSH2 0x4DB6 JUMP JUMPDEST POP POP POP PUSH1 0x0 PUSH2 0x42EE DUP3 PUSH1 0x40 ADD MLOAD PUSH2 0x42E9 DUP5 PUSH2 0x3EA3 JUMP JUMPDEST PUSH2 0x2E08 JUMP JUMPDEST SWAP1 POP PUSH1 0x0 PUSH2 0x42FB DUP4 PUSH2 0x3BC8 JUMP JUMPDEST SWAP1 POP PUSH1 0x0 PUSH2 0x4312 DUP3 DUP5 PUSH2 0x3D4C SWAP1 SWAP2 SWAP1 PUSH4 0xFFFFFFFF AND JUMP JUMPDEST SWAP1 POP PUSH2 0x431C PUSH2 0x3E3D JUMP JUMPDEST PUSH20 0xFFFFFFFFFFFFFFFFFFFFFFFFFFFFFFFFFFFFFFFF AND PUSH4 0x9DC29FAC GAS PUSH2 0x4340 PUSH2 0x4D85 JUMP JUMPDEST DUP7 PUSH1 0x40 ADD MLOAD PUSH1 0x40 MLOAD DUP4 PUSH4 0xFFFFFFFF AND PUSH1 0xE0 SHL DUP2 MSTORE PUSH1 0x4 ADD DUP1 DUP4 PUSH20 0xFFFFFFFFFFFFFFFFFFFFFFFFFFFFFFFFFFFFFFFF AND PUSH20 0xFFFFFFFFFFFFFFFFFFFFFFFFFFFFFFFFFFFFFFFF AND DUP2 MSTORE PUSH1 0x20 ADD DUP3 DUP2 MSTORE PUSH1 0x20 ADD SWAP3 POP POP POP PUSH1 0x0 PUSH1 0x40 MLOAD DUP1 DUP4 SUB DUP2 PUSH1 0x0 DUP8 DUP1 PUSH2 0x43A9 PUSH2 0x4E6C JUMP JUMPDEST ISZERO DUP1 ISZERO PUSH2 0x43B5 JUMPI PUSH1 0x0 DUP1 REVERT JUMPDEST POP GAS PUSH2 0x43BF PUSH2 0x4F55 JUMP JUMPDEST POP POP POP POP POP POP ISZERO DUP1 ISZERO PUSH2 0x43D6 JUMPI RETURNDATASIZE PUSH1 0x0 DUP1 RETURNDATACOPY RETURNDATASIZE PUSH1 0x0 REVERT JUMPDEST POP POP POP POP PUSH2 0x43E2 PUSH2 0x4C82 JUMP JUMPDEST PUSH20 0xFFFFFFFFFFFFFFFFFFFFFFFFFFFFFFFFFFFFFFFF AND PUSH4 0xC928F05 DUP3 PUSH1 0x40 MLOAD DUP3 PUSH4 0xFFFFFFFF AND PUSH1 0xE0 SHL DUP2 MSTORE PUSH1 0x4 ADD DUP1 DUP3 DUP2 MSTORE PUSH1 0x20 ADD SWAP2 POP POP PUSH1 0x20 PUSH1 0x40 MLOAD DUP1 DUP4 SUB DUP2 DUP7 DUP1 PUSH2 0x442D PUSH2 0x4E6C JUMP JUMPDEST ISZERO DUP1 ISZERO PUSH2 0x4439 JUMPI PUSH1 0x0 DUP1 REVERT JUMPDEST POP GAS PUSH2 0x4443 PUSH2 0x4EA3 JUMP JUMPDEST POP POP POP POP POP ISZERO DUP1 ISZERO PUSH2 0x4459 JUMPI RETURNDATASIZE PUSH1 0x0 DUP1 RETURNDATACOPY RETURNDATASIZE PUSH1 0x0 REVERT JUMPDEST POP POP POP POP PUSH1 0x40 MLOAD RETURNDATASIZE PUSH1 0x20 DUP2 LT ISZERO PUSH2 0x446F JUMPI PUSH1 0x0 DUP1 REVERT JUMPDEST DUP2 ADD SWAP1 DUP1 DUP1 MLOAD SWAP1 PUSH1 0x20 ADD SWAP1 SWAP3 SWAP2 SWAP1 POP POP POP PUSH2 0x4488 PUSH2 0x4CE8 JUMP JUMPDEST PUSH20 0xFFFFFFFFFFFFFFFFFFFFFFFFFFFFFFFFFFFFFFFF AND PUSH4 0x70A08231 PUSH2 0x44AB PUSH2 0x4C82 JUMP JUMPDEST PUSH1 0x40 MLOAD DUP3 PUSH4 0xFFFFFFFF AND PUSH1 0xE0 SHL DUP2 MSTORE PUSH1 0x4 ADD DUP1 DUP3 PUSH20 0xFFFFFFFFFFFFFFFFFFFFFFFFFFFFFFFFFFFFFFFF AND PUSH20 0xFFFFFFFFFFFFFFFFFFFFFFFFFFFFFFFFFFFFFFFF AND DUP2 MSTORE PUSH1 0x20 ADD SWAP2 POP POP PUSH1 0x20 PUSH1 0x40 MLOAD DUP1 DUP4 SUB DUP2 DUP7 DUP1 PUSH2 0x4506 PUSH2 0x4E6C JUMP JUMPDEST ISZERO DUP1 ISZERO PUSH2 0x4512 JUMPI PUSH1 0x0 DUP1 REVERT JUMPDEST POP GAS PUSH2 0x451C PUSH2 0x4EA3 JUMP JUMPDEST POP POP POP POP POP ISZERO DUP1 ISZERO PUSH2 0x4532 JUMPI RETURNDATASIZE PUSH1 0x0 DUP1 RETURNDATACOPY RETURNDATASIZE PUSH1 0x0 REVERT JUMPDEST POP POP POP POP PUSH1 0x40 MLOAD RETURNDATASIZE PUSH1 0x20 DUP2 LT ISZERO PUSH2 0x4548 JUMPI PUSH1 0x0 DUP1 REVERT JUMPDEST DUP2 ADD SWAP1 DUP1 DUP1 MLOAD SWAP1 PUSH1 0x20 ADD SWAP1 SWAP3 SWAP2 SWAP1 POP POP POP LT ISZERO PUSH2 0x45B0 JUMPI PUSH1 0x40 MLOAD PUSH32 0x8C379A000000000000000000000000000000000000000000000000000000000 DUP2 MSTORE PUSH1 0x4 ADD DUP1 DUP1 PUSH1 0x20 ADD DUP3 DUP2 SUB DUP3 MSTORE PUSH1 0x38 DUP2 MSTORE PUSH1 0x20 ADD DUP1 PUSH2 0x5160 PUSH1 0x38 SWAP2 CODECOPY PUSH1 0x40 ADD SWAP2 POP POP PUSH1 0x40 MLOAD DUP1 SWAP2 SUB SWAP1 REVERT JUMPDEST PUSH2 0x45B8 PUSH2 0x4C82 JUMP JUMPDEST PUSH20 0xFFFFFFFFFFFFFFFFFFFFFFFFFFFFFFFFFFFFFFFF AND PUSH4 0x1F930115 DUP3 PUSH1 0x40 MLOAD DUP3 PUSH4 0xFFFFFFFF AND PUSH1 0xE0 SHL DUP2 MSTORE PUSH1 0x4 ADD PUSH1 0x20 PUSH1 0x40 MLOAD DUP1 DUP4 SUB DUP2 DUP6 DUP9 DUP1 PUSH2 0x45FA PUSH2 0x4E6C JUMP JUMPDEST ISZERO DUP1 ISZERO PUSH2 0x4606 JUMPI PUSH1 0x0 DUP1 REVERT JUMPDEST POP GAS PUSH2 0x4610 PUSH2 0x4F55 JUMP JUMPDEST POP POP POP POP POP POP ISZERO DUP1 ISZERO PUSH2 0x4627 JUMPI RETURNDATASIZE PUSH1 0x0 DUP1 RETURNDATACOPY RETURNDATASIZE PUSH1 0x0 REVERT JUMPDEST POP POP POP POP POP PUSH1 0x40 MLOAD RETURNDATASIZE PUSH1 0x20 DUP2 LT ISZERO PUSH2 0x463E JUMPI PUSH1 0x0 DUP1 REVERT JUMPDEST DUP2 ADD SWAP1 DUP1 DUP1 MLOAD SWAP1 PUSH1 0x20 ADD SWAP1 SWAP3 SWAP2 SWAP1 POP POP POP POP PUSH2 0x4658 PUSH2 0x4CE8 JUMP JUMPDEST PUSH20 0xFFFFFFFFFFFFFFFFFFFFFFFFFFFFFFFFFFFFFFFF AND PUSH4 0xA9059CBB PUSH20 0xFEEFEEFEEFEEFEEFEEFEEFEEFEEFEEFEEFEEFEEF PUSH2 0x4690 PUSH2 0x4CE8 JUMP JUMPDEST PUSH20 0xFFFFFFFFFFFFFFFFFFFFFFFFFFFFFFFFFFFFFFFF AND PUSH4 0x70A08231 GAS PUSH4 0x996D79A5 PUSH3 0x80000 DUP2 PUSH1 0xE0 SHL DUP2 MSTORE PUSH1 0x20 DUP2 PUSH1 0x4 DUP4 PUSH1 0x0 CALLER GAS CALL PUSH1 0x0 DUP2 EQ ISZERO PUSH2 0x46D4 JUMPI PUSH1 0x0 DUP1 REVERT JUMPDEST DUP2 MLOAD SWAP4 POP POP POP POP PUSH1 0x40 MLOAD DUP3 PUSH4 0xFFFFFFFF AND PUSH1 0xE0 SHL DUP2 MSTORE PUSH1 0x4 ADD DUP1 DUP3 PUSH20 0xFFFFFFFFFFFFFFFFFFFFFFFFFFFFFFFFFFFFFFFF AND PUSH20 0xFFFFFFFFFFFFFFFFFFFFFFFFFFFFFFFFFFFFFFFF AND DUP2 MSTORE PUSH1 0x20 ADD SWAP2 POP POP PUSH1 0x20 PUSH1 0x40 MLOAD DUP1 DUP4 SUB DUP2 DUP7 DUP1 PUSH2 0x4736 PUSH2 0x4E6C JUMP JUMPDEST ISZERO DUP1 ISZERO PUSH2 0x4742 JUMPI PUSH1 0x0 DUP1 REVERT JUMPDEST POP GAS PUSH2 0x474C PUSH2 0x4EA3 JUMP JUMPDEST POP POP POP POP POP ISZERO DUP1 ISZERO PUSH2 0x4762 JUMPI RETURNDATASIZE PUSH1 0x0 DUP1 RETURNDATACOPY RETURNDATASIZE PUSH1 0x0 REVERT JUMPDEST POP POP POP POP PUSH1 0x40 MLOAD RETURNDATASIZE PUSH1 0x20 DUP2 LT ISZERO PUSH2 0x4778 JUMPI PUSH1 0x0 DUP1 REVERT JUMPDEST DUP2 ADD SWAP1 DUP1 DUP1 MLOAD SWAP1 PUSH1 0x20 ADD SWAP1 SWAP3 SWAP2 SWAP1 POP POP POP PUSH1 0x40 MLOAD DUP4 PUSH4 0xFFFFFFFF AND PUSH1 0xE0 SHL DUP2 MSTORE PUSH1 0x4 ADD DUP1 DUP4 PUSH20 0xFFFFFFFFFFFFFFFFFFFFFFFFFFFFFFFFFFFFFFFF AND PUSH20 0xFFFFFFFFFFFFFFFFFFFFFFFFFFFFFFFFFFFFFFFF AND DUP2 MSTORE PUSH1 0x20 ADD DUP3 DUP2 MSTORE PUSH1 0x20 ADD SWAP3 POP POP POP PUSH1 0x20 PUSH1 0x40 MLOAD DUP1 DUP4 SUB DUP2 PUSH1 0x0 DUP8 DUP1 PUSH2 0x47ED PUSH2 0x4E6C JUMP JUMPDEST ISZERO DUP1 ISZERO PUSH2 0x47F9 JUMPI PUSH1 0x0 DUP1 REVERT JUMPDEST POP GAS PUSH2 0x4803 PUSH2 0x4F55 JUMP JUMPDEST POP POP POP POP POP POP ISZERO DUP1 ISZERO PUSH2 0x481A JUMPI RETURNDATASIZE PUSH1 0x0 DUP1 RETURNDATACOPY RETURNDATASIZE PUSH1 0x0 REVERT JUMPDEST POP POP POP POP PUSH1 0x40 MLOAD RETURNDATASIZE PUSH1 0x20 DUP2 LT ISZERO PUSH2 0x4830 JUMPI PUSH1 0x0 DUP1 REVERT JUMPDEST DUP2 ADD SWAP1 DUP1 DUP1 MLOAD SWAP1 PUSH1 0x20 ADD SWAP1 SWAP3 SWAP2 SWAP1 POP POP POP POP GAS PUSH2 0x484B PUSH2 0x4D85 JUMP JUMPDEST PUSH20 0xFFFFFFFFFFFFFFFFFFFFFFFFFFFFFFFFFFFFFFFF AND PUSH2 0x8FC PUSH2 0x487B DUP4 DUP8 PUSH1 0x20 ADD MLOAD PUSH2 0x4A35 SWAP1 SWAP2 SWAP1 PUSH4 0xFFFFFFFF AND JUMP JUMPDEST SWAP1 DUP2 ISZERO MUL SWAP1 PUSH1 0x40 MLOAD PUSH1 0x0 PUSH1 0x40 MLOAD DUP1 DUP4 SUB DUP2 DUP6 DUP9 DUP9 PUSH2 0x4897 PUSH2 0x4F55 JUMP JUMPDEST POP POP POP POP POP POP SWAP4 POP POP POP POP ISZERO DUP1 ISZERO PUSH2 0x48B3 JUMPI RETURNDATASIZE PUSH1 0x0 DUP1 RETURNDATACOPY RETURNDATASIZE PUSH1 0x0 REVERT JUMPDEST POP DUP6 PUSH20 0xFFFFFFFFFFFFFFFFFFFFFFFFFFFFFFFFFFFFFFFF AND PUSH32 0x3CC9F5D298758BAD94536F27FA6A3033C2793E0A387A2D78E72550A3B8DACF1E DUP7 DUP4 PUSH1 0x40 MLOAD DUP1 DUP4 DUP2 MSTORE PUSH1 0x20 ADD DUP3 DUP2 MSTORE PUSH1 0x20 ADD SWAP3 POP POP POP PUSH1 0x40 MLOAD DUP1 SWAP2 SUB SWAP1 LOG2 POP POP POP POP POP POP JUMP JUMPDEST PUSH1 0x0 DUP1 PUSH1 0x6 PUSH1 0x0 DUP6 DUP2 MSTORE PUSH1 0x20 ADD SWAP1 DUP2 MSTORE PUSH1 0x20 ADD PUSH1 0x0 KECCAK256 PUSH1 0x0 SWAP1 PUSH2 0x4933 PUSH2 0x4D4E JUMP JUMPDEST SWAP1 PUSH2 0x100 EXP SWAP1 DIV PUSH20 0xFFFFFFFFFFFFFFFFFFFFFFFFFFFFFFFFFFFFFFFF AND SWAP1 POP PUSH1 0x0 PUSH20 0xFFFFFFFFFFFFFFFFFFFFFFFFFFFFFFFFFFFFFFFF AND DUP2 PUSH20 0xFFFFFFFFFFFFFFFFFFFFFFFFFFFFFFFFFFFFFFFF AND EQ ISZERO DUP4 SWAP1 PUSH2 0x4A2A JUMPI PUSH1 0x40 MLOAD PUSH32 0x8C379A000000000000000000000000000000000000000000000000000000000 DUP2 MSTORE PUSH1 0x4 ADD DUP1 DUP1 PUSH1 0x20 ADD DUP3 DUP2 SUB DUP3 MSTORE DUP4 DUP2 DUP2 MLOAD DUP2 MSTORE PUSH1 0x20 ADD SWAP2 POP DUP1 MLOAD SWAP1 PUSH1 0x20 ADD SWAP1 DUP1 DUP4 DUP4 PUSH1 0x0 JUMPDEST DUP4 DUP2 LT ISZERO PUSH2 0x49EF JUMPI DUP1 DUP3 ADD MLOAD DUP2 DUP5 ADD MSTORE PUSH1 0x20 DUP2 ADD SWAP1 POP PUSH2 0x49D4 JUMP JUMPDEST POP POP POP POP SWAP1 POP SWAP1 DUP2 ADD SWAP1 PUSH1 0x1F AND DUP1 ISZERO PUSH2 0x4A1C JUMPI DUP1 DUP3 SUB DUP1 MLOAD PUSH1 0x1 DUP4 PUSH1 0x20 SUB PUSH2 0x100 EXP SUB NOT AND DUP2 MSTORE PUSH1 0x20 ADD SWAP2 POP JUMPDEST POP SWAP3 POP POP POP PUSH1 0x40 MLOAD DUP1 SWAP2 SUB SWAP1 REVERT JUMPDEST POP DUP1 SWAP2 POP POP SWAP3 SWAP2 POP POP JUMP JUMPDEST PUSH1 0x0 DUP3 DUP3 GT ISZERO PUSH2 0x4AAD JUMPI PUSH1 0x40 MLOAD PUSH32 0x8C379A000000000000000000000000000000000000000000000000000000000 DUP2 MSTORE PUSH1 0x4 ADD DUP1 DUP1 PUSH1 0x20 ADD DUP3 DUP2 SUB DUP3 MSTORE PUSH1 0x1E DUP2 MSTORE PUSH1 0x20 ADD DUP1 PUSH32 0x536166654D6174683A207375627472616374696F6E206F766572666C6F770000 DUP2 MSTORE POP PUSH1 0x20 ADD SWAP2 POP POP PUSH1 0x40 MLOAD DUP1 SWAP2 SUB SWAP1 REVERT JUMPDEST PUSH1 0x0 DUP3 DUP5 SUB SWAP1 POP DUP1 SWAP2 POP POP SWAP3 SWAP2 POP POP JUMP JUMPDEST PUSH1 0x0 DUP1 PUSH1 0xA DUP4 DUP2 PUSH2 0x4ACB JUMPI INVALID JUMPDEST DIV PUSH2 0x4ADF DUP6 DUP8 PUSH2 0x3F2A SWAP1 SWAP2 SWAP1 PUSH4 0xFFFFFFFF AND JUMP JUMPDEST DUP2 PUSH2 0x4AE6 JUMPI INVALID JUMPDEST DIV SWAP1 POP PUSH1 0x5 PUSH1 0xA DUP3 DUP2 PUSH2 0x4AF5 JUMPI INVALID JUMPDEST MOD LT PUSH2 0x4B02 JUMPI PUSH1 0xA DUP2 ADD SWAP1 POP JUMPDEST PUSH1 0xA DUP2 DUP2 PUSH2 0x4B0C JUMPI INVALID JUMPDEST DIV SWAP2 POP POP SWAP4 SWAP3 POP POP POP JUMP JUMPDEST PUSH1 0x0 DUP1 PUSH2 0x4B42 DUP5 PUSH2 0x4B34 PUSH1 0xA DUP7 MUL DUP9 PUSH2 0x3F2A SWAP1 SWAP2 SWAP1 PUSH4 0xFFFFFFFF AND JUMP JUMPDEST PUSH2 0x3BF1 SWAP1 SWAP2 SWAP1 PUSH4 0xFFFFFFFF AND JUMP JUMPDEST SWAP1 POP PUSH1 0x5 PUSH1 0xA DUP3 DUP2 PUSH2 0x4B50 JUMPI INVALID JUMPDEST MOD LT PUSH2 0x4B5D JUMPI PUSH1 0xA DUP2 ADD SWAP1 POP JUMPDEST PUSH1 0xA DUP2 DUP2 PUSH2 0x4B67 JUMPI INVALID JUMPDEST DIV SWAP2 POP POP SWAP4 SWAP3 POP POP POP JUMP JUMPDEST PUSH1 0x0 PUSH1 0x14 PUSH1 0x0 DUP4 PUSH1 0x0 ADD MLOAD PUSH20 0xFFFFFFFFFFFFFFFFFFFFFFFFFFFFFFFFFFFFFFFF AND PUSH20 0xFFFFFFFFFFFFFFFFFFFFFFFFFFFFFFFFFFFFFFFF AND DUP2 MSTORE PUSH1 0x20 ADD SWAP1 DUP2 MSTORE PUSH1 0x20 ADD PUSH1 0x0 KECCAK256 SWAP1 POP PUSH1 0x0 DUP1 SWAP1 POP JUMPDEST DUP2 DUP1 PUSH2 0x4BC9 PUSH2 0x4D4E JUMP JUMPDEST SWAP1 POP DUP2 LT ISZERO PUSH2 0x4C51 JUMPI DUP3 PUSH1 0x80 ADD MLOAD DUP3 DUP3 DUP2 PUSH2 0x4BE2 PUSH2 0x4D4E JUMP JUMPDEST DUP2 LT PUSH2 0x4BEA JUMPI INVALID JUMPDEST SWAP1 PUSH1 0x0 MSTORE PUSH1 0x20 PUSH1 0x0 KECCAK256 SWAP1 PUSH1 0x6 MUL ADD PUSH1 0x4 ADD PUSH2 0x4C03 PUSH2 0x4D4E JUMP JUMPDEST EQ ISZERO PUSH2 0x4C44 JUMPI GAS PUSH2 0x4C12 PUSH2 0x4DEF JUMP JUMPDEST DUP3 DUP3 DUP2 PUSH2 0x4C1D PUSH2 0x4D4E JUMP JUMPDEST DUP2 LT PUSH2 0x4C25 JUMPI INVALID JUMPDEST SWAP1 PUSH1 0x0 MSTORE PUSH1 0x20 PUSH1 0x0 KECCAK256 SWAP1 PUSH1 0x6 MUL ADD PUSH1 0x5 ADD DUP2 SWAP1 PUSH2 0x4C40 PUSH2 0x4DB6 JUMP JUMPDEST POP POP POP JUMPDEST DUP1 DUP1 PUSH1 0x1 ADD SWAP2 POP POP PUSH2 0x4BBF JUMP JUMPDEST POP PUSH2 0x4C6F PUSH1 0x1 PUSH1 0x13 PUSH2 0x4C61 PUSH2 0x4D4E JUMP JUMPDEST PUSH2 0x4A35 SWAP1 SWAP2 SWAP1 PUSH4 0xFFFFFFFF AND JUMP JUMPDEST PUSH1 0x13 DUP2 SWAP1 PUSH2 0x4C7B PUSH2 0x4DB6 JUMP JUMPDEST POP POP POP POP POP JUMP JUMPDEST PUSH1 0x0 PUSH2 0x4CE3 PUSH32 0x4465706F74000000000000000000000000000000000000000000000000000000 PUSH1 0x40 MLOAD DUP1 PUSH1 0x40 ADD PUSH1 0x40 MSTORE DUP1 PUSH1 0x15 DUP2 MSTORE PUSH1 0x20 ADD PUSH32 0x4D697373696E67204465706F7420616464726573730000000000000000000000 DUP2 MSTORE POP PUSH2 0x4912 JUMP JUMPDEST SWAP1 POP SWAP1 JUMP JUMPDEST PUSH1 0x0 PUSH2 0x4D49 PUSH32 0x53796E7468735553440000000000000000000000000000000000000000000000 PUSH1 0x40 MLOAD DUP1 PUSH1 0x40 ADD PUSH1 0x40 MSTORE DUP1 PUSH1 0x19 DUP2 MSTORE PUSH1 0x20 ADD PUSH32 0x4D697373696E672053796E746873555344206164647265737300000000000000 DUP2 MSTORE POP PUSH2 0x4912 JUMP JUMPDEST SWAP1 POP SWAP1 JUMP JUMPDEST PUSH4 0x20966208 PUSH3 0x80000 DUP2 PUSH1 0xE0 SHL DUP2 MSTORE DUP4 PUSH1 0x4 DUP3 ADD MSTORE PUSH1 0x20 DUP2 PUSH1 0x24 DUP4 PUSH1 0x0 CALLER GAS CALL PUSH1 0x0 DUP2 EQ ISZERO PUSH2 0x4D7C JUMPI PUSH1 0x0 DUP1 REVERT JUMPDEST DUP2 MLOAD SWAP5 POP POP POP POP JUMP JUMPDEST PUSH4 0x73509064 PUSH3 0x80000 DUP2 PUSH1 0xE0 SHL DUP2 MSTORE PUSH1 0x20 DUP2 PUSH1 0x4 DUP4 PUSH1 0x0 CALLER GAS CALL PUSH1 0x0 DUP2 EQ ISZERO PUSH2 0x4DAD JUMPI PUSH1 0x0 DUP1 REVERT JUMPDEST DUP2 MLOAD SWAP5 POP POP POP POP JUMP JUMPDEST PUSH4 0x28DCB2A0 PUSH3 0x80000 DUP2 PUSH1 0xE0 SHL DUP2 MSTORE DUP4 PUSH1 0x4 DUP3 ADD MSTORE DUP5 PUSH1 0x24 DUP3 ADD MSTORE PUSH1 0x0 DUP2 PUSH1 0x44 DUP4 PUSH1 0x0 CALLER GAS CALL PUSH1 0x0 DUP2 EQ ISZERO PUSH2 0x4DEA JUMPI PUSH1 0x0 DUP1 REVERT JUMPDEST POP POP POP JUMP JUMPDEST PUSH4 0xBDBF8C36 PUSH3 0x80000 DUP2 PUSH1 0xE0 SHL DUP2 MSTORE PUSH1 0x20 DUP2 PUSH1 0x4 DUP4 PUSH1 0x0 CALLER GAS CALL PUSH1 0x0 DUP2 EQ ISZERO PUSH2 0x4E17 JUMPI PUSH1 0x0 DUP1 REVERT JUMPDEST DUP2 MLOAD SWAP5 POP POP POP POP JUMP JUMPDEST PUSH1 0x40 MLOAD DUP1 PUSH1 0xC0 ADD PUSH1 0x40 MSTORE DUP1 PUSH1 0x0 PUSH20 0xFFFFFFFFFFFFFFFFFFFFFFFFFFFFFFFFFFFFFFFF AND DUP2 MSTORE PUSH1 0x20 ADD PUSH1 0x0 DUP2 MSTORE PUSH1 0x20 ADD PUSH1 0x0 DUP2 MSTORE PUSH1 0x20 ADD PUSH1 0x0 DUP2 MSTORE PUSH1 0x20 ADD PUSH1 0x0 DUP2 MSTORE PUSH1 0x20 ADD PUSH1 0x0 DUP2 MSTORE POP SWAP1 JUMP JUMPDEST PUSH4 0xC3382D0F PUSH3 0x80000 DUP2 PUSH1 0xE0 SHL DUP2 MSTORE DUP4 PUSH1 0x4 DUP3 ADD MSTORE PUSH1 0x20 DUP2 PUSH1 0x24 DUP4 PUSH1 0x0 CALLER GAS CALL PUSH1 0x0 DUP2 EQ ISZERO PUSH2 0x4E9A JUMPI PUSH1 0x0 DUP1 REVERT JUMPDEST DUP2 MLOAD SWAP5 POP POP POP POP JUMP JUMPDEST PUSH4 0xFBB0F79D PUSH3 0x80000 DUP2 PUSH1 0xE0 SHL DUP2 MSTORE DUP5 PUSH1 0x4 DUP3 ADD MSTORE PUSH1 0x0 JUMPDEST DUP8 DUP2 LT ISZERO PUSH2 0x4ED9 JUMPI DUP1 DUP8 ADD MLOAD DUP2 PUSH1 0x24 DUP5 ADD ADD MSTORE PUSH1 0x20 DUP2 ADD SWAP1 POP PUSH2 0x4EBB JUMP JUMPDEST POP DUP9 DUP9 DUP9 PUSH1 0x24 ADD DUP4 PUSH1 0x0 CALLER GAS CALL PUSH1 0x0 DUP2 EQ ISZERO PUSH2 0x4EF4 JUMPI PUSH1 0x0 DUP1 REVERT JUMPDEST DUP1 SWAP10 POP POP POP POP JUMP JUMPDEST PUSH4 0x45E97DDB PUSH3 0x80000 DUP2 PUSH1 0xE0 SHL DUP2 MSTORE DUP5 PUSH1 0x4 DUP3 ADD MSTORE PUSH1 0x0 JUMPDEST DUP8 DUP2 LT ISZERO PUSH2 0x4F32 JUMPI DUP1 DUP8 ADD MLOAD DUP2 PUSH1 0x24 DUP5 ADD ADD MSTORE PUSH1 0x20 DUP2 ADD SWAP1 POP PUSH2 0x4F14 JUMP JUMPDEST POP DUP9 DUP9 DUP9 PUSH1 0x24 ADD DUP4 PUSH1 0x0 CALLER GAS CALL PUSH1 0x0 DUP2 EQ ISZERO PUSH2 0x4F4D JUMPI PUSH1 0x0 DUP1 REVERT JUMPDEST DUP1 SWAP10 POP POP POP POP JUMP JUMPDEST PUSH4 0x4C6D7C84 PUSH3 0x80000 DUP2 PUSH1 0xE0 SHL DUP2 MSTORE DUP5 PUSH1 0x4 DUP3 ADD MSTORE PUSH1 0x0 JUMPDEST DUP9 DUP2 LT ISZERO PUSH2 0x4F8B JUMPI DUP1 DUP9 ADD MLOAD DUP2 PUSH1 0x24 DUP5 ADD ADD MSTORE PUSH1 0x20 DUP2 ADD SWAP1 POP PUSH2 0x4F6D JUMP JUMPDEST POP DUP10 DUP10 DUP10 PUSH1 0x24 ADD DUP4 PUSH1 0x0 CALLER GAS CALL PUSH1 0x0 DUP2 EQ ISZERO PUSH2 0x4FA6 JUMPI PUSH1 0x0 DUP1 REVERT JUMPDEST DUP1 SWAP11 POP POP POP POP JUMP JUMPDEST PUSH1 0x40 MLOAD DUP1 PUSH2 0x300 ADD PUSH1 0x40 MSTORE DUP1 PUSH1 0x18 SWAP1 PUSH1 0x20 DUP3 MUL DUP1 CODESIZE DUP4 CODECOPY DUP1 DUP3 ADD SWAP2 POP POP SWAP1 POP POP SWAP1 JUMP INVALID MSIZE PUSH16 0x75206D757374206265206E6F6D696E61 PUSH21 0x6564206265666F726520796F752063616E20616363 PUSH6 0x7074206F776E PUSH6 0x72736869704F PUSH24 0x6E65722063616E6E6F742073657420686967686572207468 PUSH2 0x6E20 0x48 COINBASE MSTORE DIFFICULTY 0x5F NUMBER COINBASE POP GASLIMIT PUSH2 0x6368 KECCAK256 PUSH2 0x6363 PUSH16 0x756E74206973206C696D74656420746F KECCAK256 CALLDATALOAD ADDRESS KECCAK256 PUSH13 0x6F616E734C6F616E20416D6F75 PUSH15 0x742065786365656473207468652073 PUSH22 0x70706C79206361702E4F6E6C792074686520636F6E74 PUSH19 0x616374206F776E6572206D617920706572666F PUSH19 0x6D207468697320616374696F6E536166654D61 PUSH21 0x683A206D756C7469706C69636174696F6E206F7665 PUSH19 0x666C6F774E6F7420656E6F7567682045544820 PUSH21 0x6F206372656174652074686973206C6F616E2E2050 PUSH13 0x65617365207365652074686520 PUSH14 0x696E4C6F616E53697A6554686973 KECCAK256 PUSH2 0x6374 PUSH10 0x6F6E2063616E6E6F7420 PUSH3 0x652070 PUSH6 0x72666F726D65 PUSH5 0x207768696C PUSH6 0x207468652063 PUSH16 0x6E747261637420697320706175736564 0x49 PUSH15 0x7465726573742063616E6E6F742062 PUSH6 0x206D6F726520 PUSH21 0x68616E203130302520415052546865207355534420 DIFFICULTY PUSH6 0x706F7420646F PUSH6 0x73206E6F7420 PUSH9 0x61766520656E6F7567 PUSH9 0x207355534420746F20 PUSH3 0x757920 PUSH7 0x6F722066656573 MSIZE PUSH16 0x7520646F206E6F742068617665207468 PUSH6 0x207265717569 PUSH19 0x65642053796E74682062616C616E636520746F KECCAK256 PUSH4 0x6C6F7365 KECCAK256 PUSH21 0x686973206C6F616E2E496E74657265737420726174 PUSH6 0x2063616E6E6F PUSH21 0x206265206C65737320746861742074686520534543 0x4F 0x4E DIFFICULTY MSTORE8 0x5F 0x49 0x4E 0x5F COINBASE 0x5F MSIZE GASLIMIT COINBASE MSTORE LOG2 PUSH6 0x627A7A723158 KECCAK256 PUSH2 0xB9F2 0xC8 PUSH30 0xD48DDC6EDF60387C34C8787DBD7A5C289123D21BE5CAC73D4AC3B164736F PUSH13 0x637828302E352E31362D646576 PUSH6 0x6C6F702E3230 ORIGIN ADDRESS 0x2E CALLDATACOPY 0x2E ORIGIN CODECOPY 0x2B PUSH4 0x6F6D6D69 PUSH21 0x2E3632653634653637005800000000000000000000 "
		}
	}
}