{
	"abi": [
		{
			"inputs": [
				{
					"internalType": "address",
					"name": "_owner",
					"type": "address"
				},
				{
					"internalType": "address",
					"name": "_associatedContract",
					"type": "address"
				}
			],
			"payable": false,
			"stateMutability": "nonpayable",
			"type": "constructor"
		},
		{
			"anonymous": false,
			"inputs": [
				{
					"indexed": false,
					"internalType": "address",
					"name": "associatedContract",
					"type": "address"
				}
			],
			"name": "AssociatedContractUpdated",
			"type": "event"
		},
		{
			"anonymous": false,
			"inputs": [
				{
					"indexed": false,
					"internalType": "address",
					"name": "oldOwner",
					"type": "address"
				},
				{
					"indexed": false,
					"internalType": "address",
					"name": "newOwner",
					"type": "address"
				}
			],
			"name": "OwnerChanged",
			"type": "event"
		},
		{
			"anonymous": false,
			"inputs": [
				{
					"indexed": false,
					"internalType": "address",
					"name": "newOwner",
					"type": "address"
				}
			],
			"name": "OwnerNominated",
			"type": "event"
		},
		{
			"constant": false,
			"inputs": [],
			"name": "acceptOwnership",
			"outputs": [],
			"payable": false,
			"stateMutability": "nonpayable",
			"type": "function"
		},
		{
			"constant": false,
			"inputs": [
				{
					"internalType": "address",
					"name": "account",
					"type": "address"
				},
				{
					"internalType": "bytes32",
					"name": "src",
					"type": "bytes32"
				},
				{
					"internalType": "uint256",
					"name": "amount",
					"type": "uint256"
				},
				{
					"internalType": "bytes32",
					"name": "dest",
					"type": "bytes32"
				},
				{
					"internalType": "uint256",
					"name": "amountReceived",
					"type": "uint256"
				},
				{
					"internalType": "uint256",
					"name": "exchangeFeeRate",
					"type": "uint256"
				},
				{
					"internalType": "uint256",
					"name": "timestamp",
					"type": "uint256"
				},
				{
					"internalType": "uint256",
					"name": "roundIdForSrc",
					"type": "uint256"
				},
				{
					"internalType": "uint256",
					"name": "roundIdForDest",
					"type": "uint256"
				}
			],
			"name": "appendExchangeEntry",
			"outputs": [],
			"payable": false,
			"stateMutability": "nonpayable",
			"type": "function"
		},
		{
			"constant": true,
			"inputs": [],
			"name": "associatedContract",
			"outputs": [
				{
					"internalType": "address",
					"name": "",
					"type": "address"
				}
			],
			"payable": false,
			"stateMutability": "view",
			"type": "function"
		},
		{
			"constant": true,
			"inputs": [
				{
					"internalType": "address",
					"name": "",
					"type": "address"
				},
				{
					"internalType": "bytes32",
					"name": "",
					"type": "bytes32"
				},
				{
					"internalType": "uint256",
					"name": "",
					"type": "uint256"
				}
			],
			"name": "exchanges",
			"outputs": [
				{
					"internalType": "bytes32",
					"name": "src",
					"type": "bytes32"
				},
				{
					"internalType": "uint256",
					"name": "amount",
					"type": "uint256"
				},
				{
					"internalType": "bytes32",
					"name": "dest",
					"type": "bytes32"
				},
				{
					"internalType": "uint256",
					"name": "amountReceived",
					"type": "uint256"
				},
				{
					"internalType": "uint256",
					"name": "exchangeFeeRate",
					"type": "uint256"
				},
				{
					"internalType": "uint256",
					"name": "timestamp",
					"type": "uint256"
				},
				{
					"internalType": "uint256",
					"name": "roundIdForSrc",
					"type": "uint256"
				},
				{
					"internalType": "uint256",
					"name": "roundIdForDest",
					"type": "uint256"
				}
			],
			"payable": false,
			"stateMutability": "view",
			"type": "function"
		},
		{
			"constant": true,
			"inputs": [
				{
					"internalType": "address",
					"name": "account",
					"type": "address"
				},
				{
					"internalType": "bytes32",
					"name": "currencyKey",
					"type": "bytes32"
				},
				{
					"internalType": "uint256",
					"name": "index",
					"type": "uint256"
				}
			],
			"name": "getEntryAt",
			"outputs": [
				{
					"internalType": "bytes32",
					"name": "src",
					"type": "bytes32"
				},
				{
					"internalType": "uint256",
					"name": "amount",
					"type": "uint256"
				},
				{
					"internalType": "bytes32",
					"name": "dest",
					"type": "bytes32"
				},
				{
					"internalType": "uint256",
					"name": "amountReceived",
					"type": "uint256"
				},
				{
					"internalType": "uint256",
					"name": "exchangeFeeRate",
					"type": "uint256"
				},
				{
					"internalType": "uint256",
					"name": "timestamp",
					"type": "uint256"
				},
				{
					"internalType": "uint256",
					"name": "roundIdForSrc",
					"type": "uint256"
				},
				{
					"internalType": "uint256",
					"name": "roundIdForDest",
					"type": "uint256"
				}
			],
			"payable": false,
			"stateMutability": "view",
			"type": "function"
		},
		{
			"constant": true,
			"inputs": [
				{
					"internalType": "address",
					"name": "account",
					"type": "address"
				},
				{
					"internalType": "bytes32",
					"name": "currencyKey",
					"type": "bytes32"
				}
			],
			"name": "getLengthOfEntries",
			"outputs": [
				{
					"internalType": "uint256",
					"name": "",
					"type": "uint256"
				}
			],
			"payable": false,
			"stateMutability": "view",
			"type": "function"
		},
		{
			"constant": true,
			"inputs": [
				{
					"internalType": "address",
					"name": "account",
					"type": "address"
				},
				{
					"internalType": "bytes32",
					"name": "currencyKey",
					"type": "bytes32"
				}
			],
			"name": "getMaxTimestamp",
			"outputs": [
				{
					"internalType": "uint256",
					"name": "",
					"type": "uint256"
				}
			],
			"payable": false,
			"stateMutability": "view",
			"type": "function"
		},
		{
			"constant": true,
			"inputs": [],
			"name": "maxEntriesInQueue",
			"outputs": [
				{
					"internalType": "uint256",
					"name": "",
					"type": "uint256"
				}
			],
			"payable": false,
			"stateMutability": "view",
			"type": "function"
		},
		{
			"constant": false,
			"inputs": [
				{
					"internalType": "address",
					"name": "_owner",
					"type": "address"
				}
			],
			"name": "nominateNewOwner",
			"outputs": [],
			"payable": false,
			"stateMutability": "nonpayable",
			"type": "function"
		},
		{
			"constant": true,
			"inputs": [],
			"name": "nominatedOwner",
			"outputs": [
				{
					"internalType": "address",
					"name": "",
					"type": "address"
				}
			],
			"payable": false,
			"stateMutability": "view",
			"type": "function"
		},
		{
			"constant": true,
			"inputs": [],
			"name": "owner",
			"outputs": [
				{
					"internalType": "address",
					"name": "",
					"type": "address"
				}
			],
			"payable": false,
			"stateMutability": "view",
			"type": "function"
		},
		{
			"constant": false,
			"inputs": [
				{
					"internalType": "address",
					"name": "account",
					"type": "address"
				},
				{
					"internalType": "bytes32",
					"name": "currencyKey",
					"type": "bytes32"
				}
			],
			"name": "removeEntries",
			"outputs": [],
			"payable": false,
			"stateMutability": "nonpayable",
			"type": "function"
		},
		{
			"constant": false,
			"inputs": [
				{
					"internalType": "address",
					"name": "_associatedContract",
					"type": "address"
				}
			],
			"name": "setAssociatedContract",
			"outputs": [],
			"payable": false,
			"stateMutability": "nonpayable",
			"type": "function"
		},
		{
			"constant": false,
			"inputs": [
				{
					"internalType": "uint256",
					"name": "_maxEntriesInQueue",
					"type": "uint256"
				}
			],
			"name": "setMaxEntriesInQueue",
			"outputs": [],
			"payable": false,
			"stateMutability": "nonpayable",
			"type": "function"
		}
	],
	"evm": {
		"bytecode": {
			"linkReferences": {},
			"object": "6080604052600c6004620000126200031b565b50503480156200002157600080fd5b50604051620017aa380380620017aa833981810160405260408110156200004757600080fd5b8101908080519060200190929190805190602001909291905050508082600073ffffffffffffffffffffffffffffffffffffffff168173ffffffffffffffffffffffffffffffffffffffff1614156200009f57600080fd5b806000806101000a81620000b262000355565b8173ffffffffffffffffffffffffffffffffffffffff021916908373ffffffffffffffffffffffffffffffffffffffff16021790620000f06200031b565b5050507fb532073b38c83145e3e5135377a08bf9aab55bc0fd7c1179cd4fb995d2a5159c600082604051808373ffffffffffffffffffffffffffffffffffffffff1673ffffffffffffffffffffffffffffffffffffffff1681526020018273ffffffffffffffffffffffffffffffffffffffff1673ffffffffffffffffffffffffffffffffffffffff1681526020019250505060405180910390a150600073ffffffffffffffffffffffffffffffffffffffff1660008090620001b262000355565b906101000a900473ffffffffffffffffffffffffffffffffffffffff1673ffffffffffffffffffffffffffffffffffffffff1614156200025a576040517f08c379a00000000000000000000000000000000000000000000000000000000081526004018080602001828103825260118152602001807f4f776e6572206d7573742062652073657400000000000000000000000000000081525060200191505060405180910390fd5b80600260006101000a816200026e62000355565b8173ffffffffffffffffffffffffffffffffffffffff021916908373ffffffffffffffffffffffffffffffffffffffff16021790620002ac6200031b565b5050507f73f20cff579e8a4086fa607db83867595f1b6a798e718c0bfa0b94a404128e0381604051808273ffffffffffffffffffffffffffffffffffffffff1673ffffffffffffffffffffffffffffffffffffffff16815260200191505060405180910390a15050506200038d565b6328dcb2a0620800008160e01b81528360048201528460248201526000816044836000335af160008114156200035057600080fd5b505050565b6320966208620800008160e01b81528360048201526020816024836000335af160008114156200038457600080fd5b81519450505050565b61140d806200039d6000396000f3fe608060405234801561001057600080fd5b50600436106100ea5760003560e01c806379ba50971161008c578063b44e975311610066578063b44e97531461044c578063cd8b94dc146104ae578063d0d3d62a146104dc578063f1406dc81461052a576100ea565b806379ba5097146103ae5780638da5cb5b146103b8578063aefc4ccb14610402576100ea565b80633ca9d85c116100c85780633ca9d85c146101ee57806352f445ca1461028357806353a47bb7146102c75780636e13fe7614610311576100ea565b80630d40d0cf146100ef57806315987eb61461010d5780631627540c146101aa575b600080fd5b6100f761058c565b6040518082815260200191505060405180910390f35b6101636004803603606081101561012357600080fd5b81019080803573ffffffffffffffffffffffffffffffffffffffff1690602001909291908035906020019092919080359060200190929190505050610599565b604051808981526020018881526020018781526020018681526020018581526020018481526020018381526020018281526020019850505050505050505060405180910390f35b6101ec600480360360208110156101c057600080fd5b81019080803573ffffffffffffffffffffffffffffffffffffffff169060200190929190505050610697565b005b610281600480360361012081101561020557600080fd5b81019080803573ffffffffffffffffffffffffffffffffffffffff16906020019092919080359060200190929190803590602001909291908035906020019092919080359060200190929190803590602001909291908035906020019092919080359060200190929190803590602001909291905050506107b6565b005b6102c56004803603602081101561029957600080fd5b81019080803573ffffffffffffffffffffffffffffffffffffffff169060200190929190505050610aae565b005b6102cf610bcd565b604051808273ffffffffffffffffffffffffffffffffffffffff1673ffffffffffffffffffffffffffffffffffffffff16815260200191505060405180910390f35b6103676004803603606081101561032757600080fd5b81019080803573ffffffffffffffffffffffffffffffffffffffff1690602001909291908035906020019092919080359060200190929190505050610bfa565b604051808981526020018881526020018781526020018681526020018581526020018481526020018381526020018281526020019850505050505050505060405180910390f35b6103b6610ca8565b005b6103c0610ec6565b604051808273ffffffffffffffffffffffffffffffffffffffff1673ffffffffffffffffffffffffffffffffffffffff16815260200191505060405180910390f35b61040a610ef2565b604051808273ffffffffffffffffffffffffffffffffffffffff1673ffffffffffffffffffffffffffffffffffffffff16815260200191505060405180910390f35b6104986004803603604081101561046257600080fd5b81019080803573ffffffffffffffffffffffffffffffffffffffff16906020019092919080359060200190929190505050610f1f565b6040518082815260200191505060405180910390f35b6104da600480360360208110156104c457600080fd5b8101908080359060200190929190505050610f84565b005b610528600480360360408110156104f257600080fd5b81019080803573ffffffffffffffffffffffffffffffffffffffff16906020019092919080359060200190929190505050610fff565b005b6105766004803603604081101561054057600080fd5b81019080803573ffffffffffffffffffffffffffffffffffffffff16906020019092919080359060200190929190505050611114565b6040518082815260200191505060405180910390f35b6004610596611202565b81565b6000806000806000806000806000600360008d73ffffffffffffffffffffffffffffffffffffffff1673ffffffffffffffffffffffffffffffffffffffff16815260200190815260200160002060008c81526020019081526020016000208a81610601611202565b811061060957fe5b9060005260206000209060080201905080600001610625611202565b81600101610631611202565b8260020161063d611202565b83600301610649611202565b84600401610655611202565b85600501610661611202565b8660060161066d611202565b87600701610679611202565b98509850985098509850985098509850509397509397509397509397565b600080906106a3611202565b906101000a900473ffffffffffffffffffffffffffffffffffffffff1673ffffffffffffffffffffffffffffffffffffffff165a6106df611239565b73ffffffffffffffffffffffffffffffffffffffff16146106ff57600080fd5b80600160006101000a81610711611202565b8173ffffffffffffffffffffffffffffffffffffffff021916908373ffffffffffffffffffffffffffffffffffffffff1602179061074d61126a565b5050507f906a1c6bd7e3091ea86693dd029a831c19049ce77f1dce2ce0bab1cacbabce2281604051808273ffffffffffffffffffffffffffffffffffffffff1673ffffffffffffffffffffffffffffffffffffffff16815260200191505060405180910390a150565b60026000906107c3611202565b906101000a900473ffffffffffffffffffffffffffffffffffffffff1673ffffffffffffffffffffffffffffffffffffffff165a6107ff611239565b73ffffffffffffffffffffffffffffffffffffffff161461086b576040517f08c379a000000000000000000000000000000000000000000000000000000000815260040180806020018281038252603481526020018061137f6034913960400191505060405180910390fd5b6004610875611202565b600360008b73ffffffffffffffffffffffffffffffffffffffff1673ffffffffffffffffffffffffffffffffffffffff1681526020019081526020016000206000888152602001908152602001600020806108ce611202565b905010610943576040517f08c379a00000000000000000000000000000000000000000000000000000000081526004018080602001828103825260188152602001807f4d6178207175657565206c656e6774682072656163686564000000000000000081525060200191505060405180910390fd5b600360008a73ffffffffffffffffffffffffffffffffffffffff1673ffffffffffffffffffffffffffffffffffffffff16815260200190815260200160002060008781526020019081526020016000206040518061010001604052808a81526020018981526020018881526020018781526020018681526020018581526020018481526020018381525090806001816109da611202565b0180826109e561126a565b5050809150509060018203906000526020600020906008020160009091929091909150600082015181600001610a1961126a565b5050602082015181600101610a2c61126a565b5050604082015181600201610a3f61126a565b5050606082015181600301610a5261126a565b5050608082015181600401610a6561126a565b505060a082015181600501610a7861126a565b505060c082015181600601610a8b61126a565b505060e082015181600701610a9e61126a565b5050505050505050505050505050565b60008090610aba611202565b906101000a900473ffffffffffffffffffffffffffffffffffffffff1673ffffffffffffffffffffffffffffffffffffffff165a610af6611239565b73ffffffffffffffffffffffffffffffffffffffff1614610b1657600080fd5b80600260006101000a81610b28611202565b8173ffffffffffffffffffffffffffffffffffffffff021916908373ffffffffffffffffffffffffffffffffffffffff16021790610b6461126a565b5050507f73f20cff579e8a4086fa607db83867595f1b6a798e718c0bfa0b94a404128e0381604051808273ffffffffffffffffffffffffffffffffffffffff1673ffffffffffffffffffffffffffffffffffffffff16815260200191505060405180910390a150565b6001600090610bda611202565b906101000a900473ffffffffffffffffffffffffffffffffffffffff1681565b60036020528260005260406000206020528160005260406000208181610c1e611202565b8110610c2657fe5b9060005260206000209060080201600092509250505080600001610c48611202565b9080600101610c55611202565b9080600201610c62611202565b9080600301610c6f611202565b9080600401610c7c611202565b9080600501610c89611202565b9080600601610c96611202565b9080600701610ca3611202565b905088565b6001600090610cb5611202565b906101000a900473ffffffffffffffffffffffffffffffffffffffff1673ffffffffffffffffffffffffffffffffffffffff165a610cf1611239565b73ffffffffffffffffffffffffffffffffffffffff1614610d1157600080fd5b7fb532073b38c83145e3e5135377a08bf9aab55bc0fd7c1179cd4fb995d2a5159c60008090610d3e611202565b906101000a900473ffffffffffffffffffffffffffffffffffffffff166001600090610d68611202565b906101000a900473ffffffffffffffffffffffffffffffffffffffff16604051808373ffffffffffffffffffffffffffffffffffffffff1673ffffffffffffffffffffffffffffffffffffffff1681526020018273ffffffffffffffffffffffffffffffffffffffff1673ffffffffffffffffffffffffffffffffffffffff1681526020019250505060405180910390a16001600090610e06611202565b906101000a900473ffffffffffffffffffffffffffffffffffffffff166000806101000a81610e33611202565b8173ffffffffffffffffffffffffffffffffffffffff021916908373ffffffffffffffffffffffffffffffffffffffff16021790610e6f61126a565b5050506000600160006101000a81610e85611202565b8173ffffffffffffffffffffffffffffffffffffffff021916908373ffffffffffffffffffffffffffffffffffffffff16021790610ec161126a565b505050565b60008090610ed2611202565b906101000a900473ffffffffffffffffffffffffffffffffffffffff1681565b6002600090610eff611202565b906101000a900473ffffffffffffffffffffffffffffffffffffffff1681565b6000600360008473ffffffffffffffffffffffffffffffffffffffff1673ffffffffffffffffffffffffffffffffffffffff168152602001908152602001600020600083815260200190815260200160002080610f7a611202565b9050905092915050565b60008090610f90611202565b906101000a900473ffffffffffffffffffffffffffffffffffffffff1673ffffffffffffffffffffffffffffffffffffffff165a610fcc611239565b73ffffffffffffffffffffffffffffffffffffffff1614610fec57600080fd5b8060048190610ff961126a565b50505050565b600260009061100c611202565b906101000a900473ffffffffffffffffffffffffffffffffffffffff1673ffffffffffffffffffffffffffffffffffffffff165a611048611239565b73ffffffffffffffffffffffffffffffffffffffff16146110b4576040517f08c379a000000000000000000000000000000000000000000000000000000000815260040180806020018281038252603481526020018061137f6034913960400191505060405180910390fd5b600360008373ffffffffffffffffffffffffffffffffffffffff1673ffffffffffffffffffffffffffffffffffffffff1681526020019081526020016000206000828152602001908152602001600020600061111091906112a3565b5050565b600080600360008573ffffffffffffffffffffffffffffffffffffffff1673ffffffffffffffffffffffffffffffffffffffff16815260200190815260200160002060008481526020019081526020016000209050600080905060008090505b828061117e611202565b90508110156111f65781838281611193611202565b811061119b57fe5b90600052602060002090600802016005016111b4611202565b11156111e9578281816111c5611202565b81106111cd57fe5b90600052602060002090600802016005016111e6611202565b91505b8080600101915050611174565b50809250505092915050565b6320966208620800008160e01b81528360048201526020816024836000335af1600081141561123057600080fd5b81519450505050565b6373509064620800008160e01b81526020816004836000335af1600081141561126157600080fd5b81519450505050565b6328dcb2a0620800008160e01b81528360048201528460248201526000816044836000335af1600081141561129e57600080fd5b505050565b50806112ad611202565b6000826112b861126a565b5050600802906000526020600020908101906112d491906112d7565b50565b61137b91905b808211156113775760008082016000906112f561126a565b50506001820160009061130661126a565b50506002820160009061131761126a565b50506003820160009061132861126a565b50506004820160009061133961126a565b50506005820160009061134a61126a565b50506006820160009061135b61126a565b50506007820160009061136c61126a565b5050506008016112dd565b5090565b9056fe4f6e6c7920746865206173736f63696174656420636f6e74726163742063616e20706572666f726d207468697320616374696f6ea265627a7a72315820829ee0d6839f89650602cbd42bf82dc323583c8f836782cbceff9718c130acfe64736f6c637828302e352e31362d646576656c6f702e323032302e372e32392b636f6d6d69742e36326536346536370058",
			"opcodes": "PUSH1 0x80 PUSH1 0x40 MSTORE PUSH1 0xC PUSH1 0x4 PUSH3 0x12 PUSH3 0x31B JUMP JUMPDEST POP POP CALLVALUE DUP1 ISZERO PUSH3 0x21 JUMPI PUSH1 0x0 DUP1 REVERT JUMPDEST POP PUSH1 0x40 MLOAD PUSH3 0x17AA CODESIZE SUB DUP1 PUSH3 0x17AA DUP4 CODECOPY DUP2 DUP2 ADD PUSH1 0x40 MSTORE PUSH1 0x40 DUP2 LT ISZERO PUSH3 0x47 JUMPI PUSH1 0x0 DUP1 REVERT JUMPDEST DUP2 ADD SWAP1 DUP1 DUP1 MLOAD SWAP1 PUSH1 0x20 ADD SWAP1 SWAP3 SWAP2 SWAP1 DUP1 MLOAD SWAP1 PUSH1 0x20 ADD SWAP1 SWAP3 SWAP2 SWAP1 POP POP POP DUP1 DUP3 PUSH1 0x0 PUSH20 0xFFFFFFFFFFFFFFFFFFFFFFFFFFFFFFFFFFFFFFFF AND DUP2 PUSH20 0xFFFFFFFFFFFFFFFFFFFFFFFFFFFFFFFFFFFFFFFF AND EQ ISZERO PUSH3 0x9F JUMPI PUSH1 0x0 DUP1 REVERT JUMPDEST DUP1 PUSH1 0x0 DUP1 PUSH2 0x100 EXP DUP2 PUSH3 0xB2 PUSH3 0x355 JUMP JUMPDEST DUP2 PUSH20 0xFFFFFFFFFFFFFFFFFFFFFFFFFFFFFFFFFFFFFFFF MUL NOT AND SWAP1 DUP4 PUSH20 0xFFFFFFFFFFFFFFFFFFFFFFFFFFFFFFFFFFFFFFFF AND MUL OR SWAP1 PUSH3 0xF0 PUSH3 0x31B JUMP JUMPDEST POP POP POP PUSH32 0xB532073B38C83145E3E5135377A08BF9AAB55BC0FD7C1179CD4FB995D2A5159C PUSH1 0x0 DUP3 PUSH1 0x40 MLOAD DUP1 DUP4 PUSH20 0xFFFFFFFFFFFFFFFFFFFFFFFFFFFFFFFFFFFFFFFF AND PUSH20 0xFFFFFFFFFFFFFFFFFFFFFFFFFFFFFFFFFFFFFFFF AND DUP2 MSTORE PUSH1 0x20 ADD DUP3 PUSH20 0xFFFFFFFFFFFFFFFFFFFFFFFFFFFFFFFFFFFFFFFF AND PUSH20 0xFFFFFFFFFFFFFFFFFFFFFFFFFFFFFFFFFFFFFFFF AND DUP2 MSTORE PUSH1 0x20 ADD SWAP3 POP POP POP PUSH1 0x40 MLOAD DUP1 SWAP2 SUB SWAP1 LOG1 POP PUSH1 0x0 PUSH20 0xFFFFFFFFFFFFFFFFFFFFFFFFFFFFFFFFFFFFFFFF AND PUSH1 0x0 DUP1 SWAP1 PUSH3 0x1B2 PUSH3 0x355 JUMP JUMPDEST SWAP1 PUSH2 0x100 EXP SWAP1 DIV PUSH20 0xFFFFFFFFFFFFFFFFFFFFFFFFFFFFFFFFFFFFFFFF AND PUSH20 0xFFFFFFFFFFFFFFFFFFFFFFFFFFFFFFFFFFFFFFFF AND EQ ISZERO PUSH3 0x25A JUMPI PUSH1 0x40 MLOAD PUSH32 0x8C379A000000000000000000000000000000000000000000000000000000000 DUP2 MSTORE PUSH1 0x4 ADD DUP1 DUP1 PUSH1 0x20 ADD DUP3 DUP2 SUB DUP3 MSTORE PUSH1 0x11 DUP2 MSTORE PUSH1 0x20 ADD DUP1 PUSH32 0x4F776E6572206D75737420626520736574000000000000000000000000000000 DUP2 MSTORE POP PUSH1 0x20 ADD SWAP2 POP POP PUSH1 0x40 MLOAD DUP1 SWAP2 SUB SWAP1 REVERT JUMPDEST DUP1 PUSH1 0x2 PUSH1 0x0 PUSH2 0x100 EXP DUP2 PUSH3 0x26E PUSH3 0x355 JUMP JUMPDEST DUP2 PUSH20 0xFFFFFFFFFFFFFFFFFFFFFFFFFFFFFFFFFFFFFFFF MUL NOT AND SWAP1 DUP4 PUSH20 0xFFFFFFFFFFFFFFFFFFFFFFFFFFFFFFFFFFFFFFFF AND MUL OR SWAP1 PUSH3 0x2AC PUSH3 0x31B JUMP JUMPDEST POP POP POP PUSH32 0x73F20CFF579E8A4086FA607DB83867595F1B6A798E718C0BFA0B94A404128E03 DUP2 PUSH1 0x40 MLOAD DUP1 DUP3 PUSH20 0xFFFFFFFFFFFFFFFFFFFFFFFFFFFFFFFFFFFFFFFF AND PUSH20 0xFFFFFFFFFFFFFFFFFFFFFFFFFFFFFFFFFFFFFFFF AND DUP2 MSTORE PUSH1 0x20 ADD SWAP2 POP POP PUSH1 0x40 MLOAD DUP1 SWAP2 SUB SWAP1 LOG1 POP POP POP PUSH3 0x38D JUMP JUMPDEST PUSH4 0x28DCB2A0 PUSH3 0x80000 DUP2 PUSH1 0xE0 SHL DUP2 MSTORE DUP4 PUSH1 0x4 DUP3 ADD MSTORE DUP5 PUSH1 0x24 DUP3 ADD MSTORE PUSH1 0x0 DUP2 PUSH1 0x44 DUP4 PUSH1 0x0 CALLER GAS CALL PUSH1 0x0 DUP2 EQ ISZERO PUSH3 0x350 JUMPI PUSH1 0x0 DUP1 REVERT JUMPDEST POP POP POP JUMP JUMPDEST PUSH4 0x20966208 PUSH3 0x80000 DUP2 PUSH1 0xE0 SHL DUP2 MSTORE DUP4 PUSH1 0x4 DUP3 ADD MSTORE PUSH1 0x20 DUP2 PUSH1 0x24 DUP4 PUSH1 0x0 CALLER GAS CALL PUSH1 0x0 DUP2 EQ ISZERO PUSH3 0x384 JUMPI PUSH1 0x0 DUP1 REVERT JUMPDEST DUP2 MLOAD SWAP5 POP POP POP POP JUMP JUMPDEST PUSH2 0x140D DUP1 PUSH3 0x39D PUSH1 0x0 CODECOPY PUSH1 0x0 RETURN INVALID PUSH1 0x80 PUSH1 0x40 MSTORE CALLVALUE DUP1 ISZERO PUSH2 0x10 JUMPI PUSH1 0x0 DUP1 REVERT JUMPDEST POP PUSH1 0x4 CALLDATASIZE LT PUSH2 0xEA JUMPI PUSH1 0x0 CALLDATALOAD PUSH1 0xE0 SHR DUP1 PUSH4 0x79BA5097 GT PUSH2 0x8C JUMPI DUP1 PUSH4 0xB44E9753 GT PUSH2 0x66 JUMPI DUP1 PUSH4 0xB44E9753 EQ PUSH2 0x44C JUMPI DUP1 PUSH4 0xCD8B94DC EQ PUSH2 0x4AE JUMPI DUP1 PUSH4 0xD0D3D62A EQ PUSH2 0x4DC JUMPI DUP1 PUSH4 0xF1406DC8 EQ PUSH2 0x52A JUMPI PUSH2 0xEA JUMP JUMPDEST DUP1 PUSH4 0x79BA5097 EQ PUSH2 0x3AE JUMPI DUP1 PUSH4 0x8DA5CB5B EQ PUSH2 0x3B8 JUMPI DUP1 PUSH4 0xAEFC4CCB EQ PUSH2 0x402 JUMPI PUSH2 0xEA JUMP JUMPDEST DUP1 PUSH4 0x3CA9D85C GT PUSH2 0xC8 JUMPI DUP1 PUSH4 0x3CA9D85C EQ PUSH2 0x1EE JUMPI DUP1 PUSH4 0x52F445CA EQ PUSH2 0x283 JUMPI DUP1 PUSH4 0x53A47BB7 EQ PUSH2 0x2C7 JUMPI DUP1 PUSH4 0x6E13FE76 EQ PUSH2 0x311 JUMPI PUSH2 0xEA JUMP JUMPDEST DUP1 PUSH4 0xD40D0CF EQ PUSH2 0xEF JUMPI DUP1 PUSH4 0x15987EB6 EQ PUSH2 0x10D JUMPI DUP1 PUSH4 0x1627540C EQ PUSH2 0x1AA JUMPI JUMPDEST PUSH1 0x0 DUP1 REVERT JUMPDEST PUSH2 0xF7 PUSH2 0x58C JUMP JUMPDEST PUSH1 0x40 MLOAD DUP1 DUP3 DUP2 MSTORE PUSH1 0x20 ADD SWAP2 POP POP PUSH1 0x40 MLOAD DUP1 SWAP2 SUB SWAP1 RETURN JUMPDEST PUSH2 0x163 PUSH1 0x4 DUP1 CALLDATASIZE SUB PUSH1 0x60 DUP2 LT ISZERO PUSH2 0x123 JUMPI PUSH1 0x0 DUP1 REVERT JUMPDEST DUP2 ADD SWAP1 DUP1 DUP1 CALLDATALOAD PUSH20 0xFFFFFFFFFFFFFFFFFFFFFFFFFFFFFFFFFFFFFFFF AND SWAP1 PUSH1 0x20 ADD SWAP1 SWAP3 SWAP2 SWAP1 DUP1 CALLDATALOAD SWAP1 PUSH1 0x20 ADD SWAP1 SWAP3 SWAP2 SWAP1 DUP1 CALLDATALOAD SWAP1 PUSH1 0x20 ADD SWAP1 SWAP3 SWAP2 SWAP1 POP POP POP PUSH2 0x599 JUMP JUMPDEST PUSH1 0x40 MLOAD DUP1 DUP10 DUP2 MSTORE PUSH1 0x20 ADD DUP9 DUP2 MSTORE PUSH1 0x20 ADD DUP8 DUP2 MSTORE PUSH1 0x20 ADD DUP7 DUP2 MSTORE PUSH1 0x20 ADD DUP6 DUP2 MSTORE PUSH1 0x20 ADD DUP5 DUP2 MSTORE PUSH1 0x20 ADD DUP4 DUP2 MSTORE PUSH1 0x20 ADD DUP3 DUP2 MSTORE PUSH1 0x20 ADD SWAP9 POP POP POP POP POP POP POP POP POP PUSH1 0x40 MLOAD DUP1 SWAP2 SUB SWAP1 RETURN JUMPDEST PUSH2 0x1EC PUSH1 0x4 DUP1 CALLDATASIZE SUB PUSH1 0x20 DUP2 LT ISZERO PUSH2 0x1C0 JUMPI PUSH1 0x0 DUP1 REVERT JUMPDEST DUP2 ADD SWAP1 DUP1 DUP1 CALLDATALOAD PUSH20 0xFFFFFFFFFFFFFFFFFFFFFFFFFFFFFFFFFFFFFFFF AND SWAP1 PUSH1 0x20 ADD SWAP1 SWAP3 SWAP2 SWAP1 POP POP POP PUSH2 0x697 JUMP JUMPDEST STOP JUMPDEST PUSH2 0x281 PUSH1 0x4 DUP1 CALLDATASIZE SUB PUSH2 0x120 DUP2 LT ISZERO PUSH2 0x205 JUMPI PUSH1 0x0 DUP1 REVERT JUMPDEST DUP2 ADD SWAP1 DUP1 DUP1 CALLDATALOAD PUSH20 0xFFFFFFFFFFFFFFFFFFFFFFFFFFFFFFFFFFFFFFFF AND SWAP1 PUSH1 0x20 ADD SWAP1 SWAP3 SWAP2 SWAP1 DUP1 CALLDATALOAD SWAP1 PUSH1 0x20 ADD SWAP1 SWAP3 SWAP2 SWAP1 DUP1 CALLDATALOAD SWAP1 PUSH1 0x20 ADD SWAP1 SWAP3 SWAP2 SWAP1 DUP1 CALLDATALOAD SWAP1 PUSH1 0x20 ADD SWAP1 SWAP3 SWAP2 SWAP1 DUP1 CALLDATALOAD SWAP1 PUSH1 0x20 ADD SWAP1 SWAP3 SWAP2 SWAP1 DUP1 CALLDATALOAD SWAP1 PUSH1 0x20 ADD SWAP1 SWAP3 SWAP2 SWAP1 DUP1 CALLDATALOAD SWAP1 PUSH1 0x20 ADD SWAP1 SWAP3 SWAP2 SWAP1 DUP1 CALLDATALOAD SWAP1 PUSH1 0x20 ADD SWAP1 SWAP3 SWAP2 SWAP1 DUP1 CALLDATALOAD SWAP1 PUSH1 0x20 ADD SWAP1 SWAP3 SWAP2 SWAP1 POP POP POP PUSH2 0x7B6 JUMP JUMPDEST STOP JUMPDEST PUSH2 0x2C5 PUSH1 0x4 DUP1 CALLDATASIZE SUB PUSH1 0x20 DUP2 LT ISZERO PUSH2 0x299 JUMPI PUSH1 0x0 DUP1 REVERT JUMPDEST DUP2 ADD SWAP1 DUP1 DUP1 CALLDATALOAD PUSH20 0xFFFFFFFFFFFFFFFFFFFFFFFFFFFFFFFFFFFFFFFF AND SWAP1 PUSH1 0x20 ADD SWAP1 SWAP3 SWAP2 SWAP1 POP POP POP PUSH2 0xAAE JUMP JUMPDEST STOP JUMPDEST PUSH2 0x2CF PUSH2 0xBCD JUMP JUMPDEST PUSH1 0x40 MLOAD DUP1 DUP3 PUSH20 0xFFFFFFFFFFFFFFFFFFFFFFFFFFFFFFFFFFFFFFFF AND PUSH20 0xFFFFFFFFFFFFFFFFFFFFFFFFFFFFFFFFFFFFFFFF AND DUP2 MSTORE PUSH1 0x20 ADD SWAP2 POP POP PUSH1 0x40 MLOAD DUP1 SWAP2 SUB SWAP1 RETURN JUMPDEST PUSH2 0x367 PUSH1 0x4 DUP1 CALLDATASIZE SUB PUSH1 0x60 DUP2 LT ISZERO PUSH2 0x327 JUMPI PUSH1 0x0 DUP1 REVERT JUMPDEST DUP2 ADD SWAP1 DUP1 DUP1 CALLDATALOAD PUSH20 0xFFFFFFFFFFFFFFFFFFFFFFFFFFFFFFFFFFFFFFFF AND SWAP1 PUSH1 0x20 ADD SWAP1 SWAP3 SWAP2 SWAP1 DUP1 CALLDATALOAD SWAP1 PUSH1 0x20 ADD SWAP1 SWAP3 SWAP2 SWAP1 DUP1 CALLDATALOAD SWAP1 PUSH1 0x20 ADD SWAP1 SWAP3 SWAP2 SWAP1 POP POP POP PUSH2 0xBFA JUMP JUMPDEST PUSH1 0x40 MLOAD DUP1 DUP10 DUP2 MSTORE PUSH1 0x20 ADD DUP9 DUP2 MSTORE PUSH1 0x20 ADD DUP8 DUP2 MSTORE PUSH1 0x20 ADD DUP7 DUP2 MSTORE PUSH1 0x20 ADD DUP6 DUP2 MSTORE PUSH1 0x20 ADD DUP5 DUP2 MSTORE PUSH1 0x20 ADD DUP4 DUP2 MSTORE PUSH1 0x20 ADD DUP3 DUP2 MSTORE PUSH1 0x20 ADD SWAP9 POP POP POP POP POP POP POP POP POP PUSH1 0x40 MLOAD DUP1 SWAP2 SUB SWAP1 RETURN JUMPDEST PUSH2 0x3B6 PUSH2 0xCA8 JUMP JUMPDEST STOP JUMPDEST PUSH2 0x3C0 PUSH2 0xEC6 JUMP JUMPDEST PUSH1 0x40 MLOAD DUP1 DUP3 PUSH20 0xFFFFFFFFFFFFFFFFFFFFFFFFFFFFFFFFFFFFFFFF AND PUSH20 0xFFFFFFFFFFFFFFFFFFFFFFFFFFFFFFFFFFFFFFFF AND DUP2 MSTORE PUSH1 0x20 ADD SWAP2 POP POP PUSH1 0x40 MLOAD DUP1 SWAP2 SUB SWAP1 RETURN JUMPDEST PUSH2 0x40A PUSH2 0xEF2 JUMP JUMPDEST PUSH1 0x40 MLOAD DUP1 DUP3 PUSH20 0xFFFFFFFFFFFFFFFFFFFFFFFFFFFFFFFFFFFFFFFF AND PUSH20 0xFFFFFFFFFFFFFFFFFFFFFFFFFFFFFFFFFFFFFFFF AND DUP2 MSTORE PUSH1 0x20 ADD SWAP2 POP POP PUSH1 0x40 MLOAD DUP1 SWAP2 SUB SWAP1 RETURN JUMPDEST PUSH2 0x498 PUSH1 0x4 DUP1 CALLDATASIZE SUB PUSH1 0x40 DUP2 LT ISZERO PUSH2 0x462 JUMPI PUSH1 0x0 DUP1 REVERT JUMPDEST DUP2 ADD SWAP1 DUP1 DUP1 CALLDATALOAD PUSH20 0xFFFFFFFFFFFFFFFFFFFFFFFFFFFFFFFFFFFFFFFF AND SWAP1 PUSH1 0x20 ADD SWAP1 SWAP3 SWAP2 SWAP1 DUP1 CALLDATALOAD SWAP1 PUSH1 0x20 ADD SWAP1 SWAP3 SWAP2 SWAP1 POP POP POP PUSH2 0xF1F JUMP JUMPDEST PUSH1 0x40 MLOAD DUP1 DUP3 DUP2 MSTORE PUSH1 0x20 ADD SWAP2 POP POP PUSH1 0x40 MLOAD DUP1 SWAP2 SUB SWAP1 RETURN JUMPDEST PUSH2 0x4DA PUSH1 0x4 DUP1 CALLDATASIZE SUB PUSH1 0x20 DUP2 LT ISZERO PUSH2 0x4C4 JUMPI PUSH1 0x0 DUP1 REVERT JUMPDEST DUP2 ADD SWAP1 DUP1 DUP1 CALLDATALOAD SWAP1 PUSH1 0x20 ADD SWAP1 SWAP3 SWAP2 SWAP1 POP POP POP PUSH2 0xF84 JUMP JUMPDEST STOP JUMPDEST PUSH2 0x528 PUSH1 0x4 DUP1 CALLDATASIZE SUB PUSH1 0x40 DUP2 LT ISZERO PUSH2 0x4F2 JUMPI PUSH1 0x0 DUP1 REVERT JUMPDEST DUP2 ADD SWAP1 DUP1 DUP1 CALLDATALOAD PUSH20 0xFFFFFFFFFFFFFFFFFFFFFFFFFFFFFFFFFFFFFFFF AND SWAP1 PUSH1 0x20 ADD SWAP1 SWAP3 SWAP2 SWAP1 DUP1 CALLDATALOAD SWAP1 PUSH1 0x20 ADD SWAP1 SWAP3 SWAP2 SWAP1 POP POP POP PUSH2 0xFFF JUMP JUMPDEST STOP JUMPDEST PUSH2 0x576 PUSH1 0x4 DUP1 CALLDATASIZE SUB PUSH1 0x40 DUP2 LT ISZERO PUSH2 0x540 JUMPI PUSH1 0x0 DUP1 REVERT JUMPDEST DUP2 ADD SWAP1 DUP1 DUP1 CALLDATALOAD PUSH20 0xFFFFFFFFFFFFFFFFFFFFFFFFFFFFFFFFFFFFFFFF AND SWAP1 PUSH1 0x20 ADD SWAP1 SWAP3 SWAP2 SWAP1 DUP1 CALLDATALOAD SWAP1 PUSH1 0x20 ADD SWAP1 SWAP3 SWAP2 SWAP1 POP POP POP PUSH2 0x1114 JUMP JUMPDEST PUSH1 0x40 MLOAD DUP1 DUP3 DUP2 MSTORE PUSH1 0x20 ADD SWAP2 POP POP PUSH1 0x40 MLOAD DUP1 SWAP2 SUB SWAP1 RETURN JUMPDEST PUSH1 0x4 PUSH2 0x596 PUSH2 0x1202 JUMP JUMPDEST DUP2 JUMP JUMPDEST PUSH1 0x0 DUP1 PUSH1 0x0 DUP1 PUSH1 0x0 DUP1 PUSH1 0x0 DUP1 PUSH1 0x0 PUSH1 0x3 PUSH1 0x0 DUP14 PUSH20 0xFFFFFFFFFFFFFFFFFFFFFFFFFFFFFFFFFFFFFFFF AND PUSH20 0xFFFFFFFFFFFFFFFFFFFFFFFFFFFFFFFFFFFFFFFF AND DUP2 MSTORE PUSH1 0x20 ADD SWAP1 DUP2 MSTORE PUSH1 0x20 ADD PUSH1 0x0 KECCAK256 PUSH1 0x0 DUP13 DUP2 MSTORE PUSH1 0x20 ADD SWAP1 DUP2 MSTORE PUSH1 0x20 ADD PUSH1 0x0 KECCAK256 DUP11 DUP2 PUSH2 0x601 PUSH2 0x1202 JUMP JUMPDEST DUP2 LT PUSH2 0x609 JUMPI INVALID JUMPDEST SWAP1 PUSH1 0x0 MSTORE PUSH1 0x20 PUSH1 0x0 KECCAK256 SWAP1 PUSH1 0x8 MUL ADD SWAP1 POP DUP1 PUSH1 0x0 ADD PUSH2 0x625 PUSH2 0x1202 JUMP JUMPDEST DUP2 PUSH1 0x1 ADD PUSH2 0x631 PUSH2 0x1202 JUMP JUMPDEST DUP3 PUSH1 0x2 ADD PUSH2 0x63D PUSH2 0x1202 JUMP JUMPDEST DUP4 PUSH1 0x3 ADD PUSH2 0x649 PUSH2 0x1202 JUMP JUMPDEST DUP5 PUSH1 0x4 ADD PUSH2 0x655 PUSH2 0x1202 JUMP JUMPDEST DUP6 PUSH1 0x5 ADD PUSH2 0x661 PUSH2 0x1202 JUMP JUMPDEST DUP7 PUSH1 0x6 ADD PUSH2 0x66D PUSH2 0x1202 JUMP JUMPDEST DUP8 PUSH1 0x7 ADD PUSH2 0x679 PUSH2 0x1202 JUMP JUMPDEST SWAP9 POP SWAP9 POP SWAP9 POP SWAP9 POP SWAP9 POP SWAP9 POP SWAP9 POP SWAP9 POP POP SWAP4 SWAP8 POP SWAP4 SWAP8 POP SWAP4 SWAP8 POP SWAP4 SWAP8 JUMP JUMPDEST PUSH1 0x0 DUP1 SWAP1 PUSH2 0x6A3 PUSH2 0x1202 JUMP JUMPDEST SWAP1 PUSH2 0x100 EXP SWAP1 DIV PUSH20 0xFFFFFFFFFFFFFFFFFFFFFFFFFFFFFFFFFFFFFFFF AND PUSH20 0xFFFFFFFFFFFFFFFFFFFFFFFFFFFFFFFFFFFFFFFF AND GAS PUSH2 0x6DF PUSH2 0x1239 JUMP JUMPDEST PUSH20 0xFFFFFFFFFFFFFFFFFFFFFFFFFFFFFFFFFFFFFFFF AND EQ PUSH2 0x6FF JUMPI PUSH1 0x0 DUP1 REVERT JUMPDEST DUP1 PUSH1 0x1 PUSH1 0x0 PUSH2 0x100 EXP DUP2 PUSH2 0x711 PUSH2 0x1202 JUMP JUMPDEST DUP2 PUSH20 0xFFFFFFFFFFFFFFFFFFFFFFFFFFFFFFFFFFFFFFFF MUL NOT AND SWAP1 DUP4 PUSH20 0xFFFFFFFFFFFFFFFFFFFFFFFFFFFFFFFFFFFFFFFF AND MUL OR SWAP1 PUSH2 0x74D PUSH2 0x126A JUMP JUMPDEST POP POP POP PUSH32 0x906A1C6BD7E3091EA86693DD029A831C19049CE77F1DCE2CE0BAB1CACBABCE22 DUP2 PUSH1 0x40 MLOAD DUP1 DUP3 PUSH20 0xFFFFFFFFFFFFFFFFFFFFFFFFFFFFFFFFFFFFFFFF AND PUSH20 0xFFFFFFFFFFFFFFFFFFFFFFFFFFFFFFFFFFFFFFFF AND DUP2 MSTORE PUSH1 0x20 ADD SWAP2 POP POP PUSH1 0x40 MLOAD DUP1 SWAP2 SUB SWAP1 LOG1 POP JUMP JUMPDEST PUSH1 0x2 PUSH1 0x0 SWAP1 PUSH2 0x7C3 PUSH2 0x1202 JUMP JUMPDEST SWAP1 PUSH2 0x100 EXP SWAP1 DIV PUSH20 0xFFFFFFFFFFFFFFFFFFFFFFFFFFFFFFFFFFFFFFFF AND PUSH20 0xFFFFFFFFFFFFFFFFFFFFFFFFFFFFFFFFFFFFFFFF AND GAS PUSH2 0x7FF PUSH2 0x1239 JUMP JUMPDEST PUSH20 0xFFFFFFFFFFFFFFFFFFFFFFFFFFFFFFFFFFFFFFFF AND EQ PUSH2 0x86B JUMPI PUSH1 0x40 MLOAD PUSH32 0x8C379A000000000000000000000000000000000000000000000000000000000 DUP2 MSTORE PUSH1 0x4 ADD DUP1 DUP1 PUSH1 0x20 ADD DUP3 DUP2 SUB DUP3 MSTORE PUSH1 0x34 DUP2 MSTORE PUSH1 0x20 ADD DUP1 PUSH2 0x137F PUSH1 0x34 SWAP2 CODECOPY PUSH1 0x40 ADD SWAP2 POP POP PUSH1 0x40 MLOAD DUP1 SWAP2 SUB SWAP1 REVERT JUMPDEST PUSH1 0x4 PUSH2 0x875 PUSH2 0x1202 JUMP JUMPDEST PUSH1 0x3 PUSH1 0x0 DUP12 PUSH20 0xFFFFFFFFFFFFFFFFFFFFFFFFFFFFFFFFFFFFFFFF AND PUSH20 0xFFFFFFFFFFFFFFFFFFFFFFFFFFFFFFFFFFFFFFFF AND DUP2 MSTORE PUSH1 0x20 ADD SWAP1 DUP2 MSTORE PUSH1 0x20 ADD PUSH1 0x0 KECCAK256 PUSH1 0x0 DUP9 DUP2 MSTORE PUSH1 0x20 ADD SWAP1 DUP2 MSTORE PUSH1 0x20 ADD PUSH1 0x0 KECCAK256 DUP1 PUSH2 0x8CE PUSH2 0x1202 JUMP JUMPDEST SWAP1 POP LT PUSH2 0x943 JUMPI PUSH1 0x40 MLOAD PUSH32 0x8C379A000000000000000000000000000000000000000000000000000000000 DUP2 MSTORE PUSH1 0x4 ADD DUP1 DUP1 PUSH1 0x20 ADD DUP3 DUP2 SUB DUP3 MSTORE PUSH1 0x18 DUP2 MSTORE PUSH1 0x20 ADD DUP1 PUSH32 0x4D6178207175657565206C656E67746820726561636865640000000000000000 DUP2 MSTORE POP PUSH1 0x20 ADD SWAP2 POP POP PUSH1 0x40 MLOAD DUP1 SWAP2 SUB SWAP1 REVERT JUMPDEST PUSH1 0x3 PUSH1 0x0 DUP11 PUSH20 0xFFFFFFFFFFFFFFFFFFFFFFFFFFFFFFFFFFFFFFFF AND PUSH20 0xFFFFFFFFFFFFFFFFFFFFFFFFFFFFFFFFFFFFFFFF AND DUP2 MSTORE PUSH1 0x20 ADD SWAP1 DUP2 MSTORE PUSH1 0x20 ADD PUSH1 0x0 KECCAK256 PUSH1 0x0 DUP8 DUP2 MSTORE PUSH1 0x20 ADD SWAP1 DUP2 MSTORE PUSH1 0x20 ADD PUSH1 0x0 KECCAK256 PUSH1 0x40 MLOAD DUP1 PUSH2 0x100 ADD PUSH1 0x40 MSTORE DUP1 DUP11 DUP2 MSTORE PUSH1 0x20 ADD DUP10 DUP2 MSTORE PUSH1 0x20 ADD DUP9 DUP2 MSTORE PUSH1 0x20 ADD DUP8 DUP2 MSTORE PUSH1 0x20 ADD DUP7 DUP2 MSTORE PUSH1 0x20 ADD DUP6 DUP2 MSTORE PUSH1 0x20 ADD DUP5 DUP2 MSTORE PUSH1 0x20 ADD DUP4 DUP2 MSTORE POP SWAP1 DUP1 PUSH1 0x1 DUP2 PUSH2 0x9DA PUSH2 0x1202 JUMP JUMPDEST ADD DUP1 DUP3 PUSH2 0x9E5 PUSH2 0x126A JUMP JUMPDEST POP POP DUP1 SWAP2 POP POP SWAP1 PUSH1 0x1 DUP3 SUB SWAP1 PUSH1 0x0 MSTORE PUSH1 0x20 PUSH1 0x0 KECCAK256 SWAP1 PUSH1 0x8 MUL ADD PUSH1 0x0 SWAP1 SWAP2 SWAP3 SWAP1 SWAP2 SWAP1 SWAP2 POP PUSH1 0x0 DUP3 ADD MLOAD DUP2 PUSH1 0x0 ADD PUSH2 0xA19 PUSH2 0x126A JUMP JUMPDEST POP POP PUSH1 0x20 DUP3 ADD MLOAD DUP2 PUSH1 0x1 ADD PUSH2 0xA2C PUSH2 0x126A JUMP JUMPDEST POP POP PUSH1 0x40 DUP3 ADD MLOAD DUP2 PUSH1 0x2 ADD PUSH2 0xA3F PUSH2 0x126A JUMP JUMPDEST POP POP PUSH1 0x60 DUP3 ADD MLOAD DUP2 PUSH1 0x3 ADD PUSH2 0xA52 PUSH2 0x126A JUMP JUMPDEST POP POP PUSH1 0x80 DUP3 ADD MLOAD DUP2 PUSH1 0x4 ADD PUSH2 0xA65 PUSH2 0x126A JUMP JUMPDEST POP POP PUSH1 0xA0 DUP3 ADD MLOAD DUP2 PUSH1 0x5 ADD PUSH2 0xA78 PUSH2 0x126A JUMP JUMPDEST POP POP PUSH1 0xC0 DUP3 ADD MLOAD DUP2 PUSH1 0x6 ADD PUSH2 0xA8B PUSH2 0x126A JUMP JUMPDEST POP POP PUSH1 0xE0 DUP3 ADD MLOAD DUP2 PUSH1 0x7 ADD PUSH2 0xA9E PUSH2 0x126A JUMP JUMPDEST POP POP POP POP POP POP POP POP POP POP POP POP POP POP JUMP JUMPDEST PUSH1 0x0 DUP1 SWAP1 PUSH2 0xABA PUSH2 0x1202 JUMP JUMPDEST SWAP1 PUSH2 0x100 EXP SWAP1 DIV PUSH20 0xFFFFFFFFFFFFFFFFFFFFFFFFFFFFFFFFFFFFFFFF AND PUSH20 0xFFFFFFFFFFFFFFFFFFFFFFFFFFFFFFFFFFFFFFFF AND GAS PUSH2 0xAF6 PUSH2 0x1239 JUMP JUMPDEST PUSH20 0xFFFFFFFFFFFFFFFFFFFFFFFFFFFFFFFFFFFFFFFF AND EQ PUSH2 0xB16 JUMPI PUSH1 0x0 DUP1 REVERT JUMPDEST DUP1 PUSH1 0x2 PUSH1 0x0 PUSH2 0x100 EXP DUP2 PUSH2 0xB28 PUSH2 0x1202 JUMP JUMPDEST DUP2 PUSH20 0xFFFFFFFFFFFFFFFFFFFFFFFFFFFFFFFFFFFFFFFF MUL NOT AND SWAP1 DUP4 PUSH20 0xFFFFFFFFFFFFFFFFFFFFFFFFFFFFFFFFFFFFFFFF AND MUL OR SWAP1 PUSH2 0xB64 PUSH2 0x126A JUMP JUMPDEST POP POP POP PUSH32 0x73F20CFF579E8A4086FA607DB83867595F1B6A798E718C0BFA0B94A404128E03 DUP2 PUSH1 0x40 MLOAD DUP1 DUP3 PUSH20 0xFFFFFFFFFFFFFFFFFFFFFFFFFFFFFFFFFFFFFFFF AND PUSH20 0xFFFFFFFFFFFFFFFFFFFFFFFFFFFFFFFFFFFFFFFF AND DUP2 MSTORE PUSH1 0x20 ADD SWAP2 POP POP PUSH1 0x40 MLOAD DUP1 SWAP2 SUB SWAP1 LOG1 POP JUMP JUMPDEST PUSH1 0x1 PUSH1 0x0 SWAP1 PUSH2 0xBDA PUSH2 0x1202 JUMP JUMPDEST SWAP1 PUSH2 0x100 EXP SWAP1 DIV PUSH20 0xFFFFFFFFFFFFFFFFFFFFFFFFFFFFFFFFFFFFFFFF AND DUP2 JUMP JUMPDEST PUSH1 0x3 PUSH1 0x20 MSTORE DUP3 PUSH1 0x0 MSTORE PUSH1 0x40 PUSH1 0x0 KECCAK256 PUSH1 0x20 MSTORE DUP2 PUSH1 0x0 MSTORE PUSH1 0x40 PUSH1 0x0 KECCAK256 DUP2 DUP2 PUSH2 0xC1E PUSH2 0x1202 JUMP JUMPDEST DUP2 LT PUSH2 0xC26 JUMPI INVALID JUMPDEST SWAP1 PUSH1 0x0 MSTORE PUSH1 0x20 PUSH1 0x0 KECCAK256 SWAP1 PUSH1 0x8 MUL ADD PUSH1 0x0 SWAP3 POP SWAP3 POP POP POP DUP1 PUSH1 0x0 ADD PUSH2 0xC48 PUSH2 0x1202 JUMP JUMPDEST SWAP1 DUP1 PUSH1 0x1 ADD PUSH2 0xC55 PUSH2 0x1202 JUMP JUMPDEST SWAP1 DUP1 PUSH1 0x2 ADD PUSH2 0xC62 PUSH2 0x1202 JUMP JUMPDEST SWAP1 DUP1 PUSH1 0x3 ADD PUSH2 0xC6F PUSH2 0x1202 JUMP JUMPDEST SWAP1 DUP1 PUSH1 0x4 ADD PUSH2 0xC7C PUSH2 0x1202 JUMP JUMPDEST SWAP1 DUP1 PUSH1 0x5 ADD PUSH2 0xC89 PUSH2 0x1202 JUMP JUMPDEST SWAP1 DUP1 PUSH1 0x6 ADD PUSH2 0xC96 PUSH2 0x1202 JUMP JUMPDEST SWAP1 DUP1 PUSH1 0x7 ADD PUSH2 0xCA3 PUSH2 0x1202 JUMP JUMPDEST SWAP1 POP DUP9 JUMP JUMPDEST PUSH1 0x1 PUSH1 0x0 SWAP1 PUSH2 0xCB5 PUSH2 0x1202 JUMP JUMPDEST SWAP1 PUSH2 0x100 EXP SWAP1 DIV PUSH20 0xFFFFFFFFFFFFFFFFFFFFFFFFFFFFFFFFFFFFFFFF AND PUSH20 0xFFFFFFFFFFFFFFFFFFFFFFFFFFFFFFFFFFFFFFFF AND GAS PUSH2 0xCF1 PUSH2 0x1239 JUMP JUMPDEST PUSH20 0xFFFFFFFFFFFFFFFFFFFFFFFFFFFFFFFFFFFFFFFF AND EQ PUSH2 0xD11 JUMPI PUSH1 0x0 DUP1 REVERT JUMPDEST PUSH32 0xB532073B38C83145E3E5135377A08BF9AAB55BC0FD7C1179CD4FB995D2A5159C PUSH1 0x0 DUP1 SWAP1 PUSH2 0xD3E PUSH2 0x1202 JUMP JUMPDEST SWAP1 PUSH2 0x100 EXP SWAP1 DIV PUSH20 0xFFFFFFFFFFFFFFFFFFFFFFFFFFFFFFFFFFFFFFFF AND PUSH1 0x1 PUSH1 0x0 SWAP1 PUSH2 0xD68 PUSH2 0x1202 JUMP JUMPDEST SWAP1 PUSH2 0x100 EXP SWAP1 DIV PUSH20 0xFFFFFFFFFFFFFFFFFFFFFFFFFFFFFFFFFFFFFFFF AND PUSH1 0x40 MLOAD DUP1 DUP4 PUSH20 0xFFFFFFFFFFFFFFFFFFFFFFFFFFFFFFFFFFFFFFFF AND PUSH20 0xFFFFFFFFFFFFFFFFFFFFFFFFFFFFFFFFFFFFFFFF AND DUP2 MSTORE PUSH1 0x20 ADD DUP3 PUSH20 0xFFFFFFFFFFFFFFFFFFFFFFFFFFFFFFFFFFFFFFFF AND PUSH20 0xFFFFFFFFFFFFFFFFFFFFFFFFFFFFFFFFFFFFFFFF AND DUP2 MSTORE PUSH1 0x20 ADD SWAP3 POP POP POP PUSH1 0x40 MLOAD DUP1 SWAP2 SUB SWAP1 LOG1 PUSH1 0x1 PUSH1 0x0 SWAP1 PUSH2 0xE06 PUSH2 0x1202 JUMP JUMPDEST SWAP1 PUSH2 0x100 EXP SWAP1 DIV PUSH20 0xFFFFFFFFFFFFFFFFFFFFFFFFFFFFFFFFFFFFFFFF AND PUSH1 0x0 DUP1 PUSH2 0x100 EXP DUP2 PUSH2 0xE33 PUSH2 0x1202 JUMP JUMPDEST DUP2 PUSH20 0xFFFFFFFFFFFFFFFFFFFFFFFFFFFFFFFFFFFFFFFF MUL NOT AND SWAP1 DUP4 PUSH20 0xFFFFFFFFFFFFFFFFFFFFFFFFFFFFFFFFFFFFFFFF AND MUL OR SWAP1 PUSH2 0xE6F PUSH2 0x126A JUMP JUMPDEST POP POP POP PUSH1 0x0 PUSH1 0x1 PUSH1 0x0 PUSH2 0x100 EXP DUP2 PUSH2 0xE85 PUSH2 0x1202 JUMP JUMPDEST DUP2 PUSH20 0xFFFFFFFFFFFFFFFFFFFFFFFFFFFFFFFFFFFFFFFF MUL NOT AND SWAP1 DUP4 PUSH20 0xFFFFFFFFFFFFFFFFFFFFFFFFFFFFFFFFFFFFFFFF AND MUL OR SWAP1 PUSH2 0xEC1 PUSH2 0x126A JUMP JUMPDEST POP POP POP JUMP JUMPDEST PUSH1 0x0 DUP1 SWAP1 PUSH2 0xED2 PUSH2 0x1202 JUMP JUMPDEST SWAP1 PUSH2 0x100 EXP SWAP1 DIV PUSH20 0xFFFFFFFFFFFFFFFFFFFFFFFFFFFFFFFFFFFFFFFF AND DUP2 JUMP JUMPDEST PUSH1 0x2 PUSH1 0x0 SWAP1 PUSH2 0xEFF PUSH2 0x1202 JUMP JUMPDEST SWAP1 PUSH2 0x100 EXP SWAP1 DIV PUSH20 0xFFFFFFFFFFFFFFFFFFFFFFFFFFFFFFFFFFFFFFFF AND DUP2 JUMP JUMPDEST PUSH1 0x0 PUSH1 0x3 PUSH1 0x0 DUP5 PUSH20 0xFFFFFFFFFFFFFFFFFFFFFFFFFFFFFFFFFFFFFFFF AND PUSH20 0xFFFFFFFFFFFFFFFFFFFFFFFFFFFFFFFFFFFFFFFF AND DUP2 MSTORE PUSH1 0x20 ADD SWAP1 DUP2 MSTORE PUSH1 0x20 ADD PUSH1 0x0 KECCAK256 PUSH1 0x0 DUP4 DUP2 MSTORE PUSH1 0x20 ADD SWAP1 DUP2 MSTORE PUSH1 0x20 ADD PUSH1 0x0 KECCAK256 DUP1 PUSH2 0xF7A PUSH2 0x1202 JUMP JUMPDEST SWAP1 POP SWAP1 POP SWAP3 SWAP2 POP POP JUMP JUMPDEST PUSH1 0x0 DUP1 SWAP1 PUSH2 0xF90 PUSH2 0x1202 JUMP JUMPDEST SWAP1 PUSH2 0x100 EXP SWAP1 DIV PUSH20 0xFFFFFFFFFFFFFFFFFFFFFFFFFFFFFFFFFFFFFFFF AND PUSH20 0xFFFFFFFFFFFFFFFFFFFFFFFFFFFFFFFFFFFFFFFF AND GAS PUSH2 0xFCC PUSH2 0x1239 JUMP JUMPDEST PUSH20 0xFFFFFFFFFFFFFFFFFFFFFFFFFFFFFFFFFFFFFFFF AND EQ PUSH2 0xFEC JUMPI PUSH1 0x0 DUP1 REVERT JUMPDEST DUP1 PUSH1 0x4 DUP2 SWAP1 PUSH2 0xFF9 PUSH2 0x126A JUMP JUMPDEST POP POP POP POP JUMP JUMPDEST PUSH1 0x2 PUSH1 0x0 SWAP1 PUSH2 0x100C PUSH2 0x1202 JUMP JUMPDEST SWAP1 PUSH2 0x100 EXP SWAP1 DIV PUSH20 0xFFFFFFFFFFFFFFFFFFFFFFFFFFFFFFFFFFFFFFFF AND PUSH20 0xFFFFFFFFFFFFFFFFFFFFFFFFFFFFFFFFFFFFFFFF AND GAS PUSH2 0x1048 PUSH2 0x1239 JUMP JUMPDEST PUSH20 0xFFFFFFFFFFFFFFFFFFFFFFFFFFFFFFFFFFFFFFFF AND EQ PUSH2 0x10B4 JUMPI PUSH1 0x40 MLOAD PUSH32 0x8C379A000000000000000000000000000000000000000000000000000000000 DUP2 MSTORE PUSH1 0x4 ADD DUP1 DUP1 PUSH1 0x20 ADD DUP3 DUP2 SUB DUP3 MSTORE PUSH1 0x34 DUP2 MSTORE PUSH1 0x20 ADD DUP1 PUSH2 0x137F PUSH1 0x34 SWAP2 CODECOPY PUSH1 0x40 ADD SWAP2 POP POP PUSH1 0x40 MLOAD DUP1 SWAP2 SUB SWAP1 REVERT JUMPDEST PUSH1 0x3 PUSH1 0x0 DUP4 PUSH20 0xFFFFFFFFFFFFFFFFFFFFFFFFFFFFFFFFFFFFFFFF AND PUSH20 0xFFFFFFFFFFFFFFFFFFFFFFFFFFFFFFFFFFFFFFFF AND DUP2 MSTORE PUSH1 0x20 ADD SWAP1 DUP2 MSTORE PUSH1 0x20 ADD PUSH1 0x0 KECCAK256 PUSH1 0x0 DUP3 DUP2 MSTORE PUSH1 0x20 ADD SWAP1 DUP2 MSTORE PUSH1 0x20 ADD PUSH1 0x0 KECCAK256 PUSH1 0x0 PUSH2 0x1110 SWAP2 SWAP1 PUSH2 0x12A3 JUMP JUMPDEST POP POP JUMP JUMPDEST PUSH1 0x0 DUP1 PUSH1 0x3 PUSH1 0x0 DUP6 PUSH20 0xFFFFFFFFFFFFFFFFFFFFFFFFFFFFFFFFFFFFFFFF AND PUSH20 0xFFFFFFFFFFFFFFFFFFFFFFFFFFFFFFFFFFFFFFFF AND DUP2 MSTORE PUSH1 0x20 ADD SWAP1 DUP2 MSTORE PUSH1 0x20 ADD PUSH1 0x0 KECCAK256 PUSH1 0x0 DUP5 DUP2 MSTORE PUSH1 0x20 ADD SWAP1 DUP2 MSTORE PUSH1 0x20 ADD PUSH1 0x0 KECCAK256 SWAP1 POP PUSH1 0x0 DUP1 SWAP1 POP PUSH1 0x0 DUP1 SWAP1 POP JUMPDEST DUP3 DUP1 PUSH2 0x117E PUSH2 0x1202 JUMP JUMPDEST SWAP1 POP DUP2 LT ISZERO PUSH2 0x11F6 JUMPI DUP2 DUP4 DUP3 DUP2 PUSH2 0x1193 PUSH2 0x1202 JUMP JUMPDEST DUP2 LT PUSH2 0x119B JUMPI INVALID JUMPDEST SWAP1 PUSH1 0x0 MSTORE PUSH1 0x20 PUSH1 0x0 KECCAK256 SWAP1 PUSH1 0x8 MUL ADD PUSH1 0x5 ADD PUSH2 0x11B4 PUSH2 0x1202 JUMP JUMPDEST GT ISZERO PUSH2 0x11E9 JUMPI DUP3 DUP2 DUP2 PUSH2 0x11C5 PUSH2 0x1202 JUMP JUMPDEST DUP2 LT PUSH2 0x11CD JUMPI INVALID JUMPDEST SWAP1 PUSH1 0x0 MSTORE PUSH1 0x20 PUSH1 0x0 KECCAK256 SWAP1 PUSH1 0x8 MUL ADD PUSH1 0x5 ADD PUSH2 0x11E6 PUSH2 0x1202 JUMP JUMPDEST SWAP2 POP JUMPDEST DUP1 DUP1 PUSH1 0x1 ADD SWAP2 POP POP PUSH2 0x1174 JUMP JUMPDEST POP DUP1 SWAP3 POP POP POP SWAP3 SWAP2 POP POP JUMP JUMPDEST PUSH4 0x20966208 PUSH3 0x80000 DUP2 PUSH1 0xE0 SHL DUP2 MSTORE DUP4 PUSH1 0x4 DUP3 ADD MSTORE PUSH1 0x20 DUP2 PUSH1 0x24 DUP4 PUSH1 0x0 CALLER GAS CALL PUSH1 0x0 DUP2 EQ ISZERO PUSH2 0x1230 JUMPI PUSH1 0x0 DUP1 REVERT JUMPDEST DUP2 MLOAD SWAP5 POP POP POP POP JUMP JUMPDEST PUSH4 0x73509064 PUSH3 0x80000 DUP2 PUSH1 0xE0 SHL DUP2 MSTORE PUSH1 0x20 DUP2 PUSH1 0x4 DUP4 PUSH1 0x0 CALLER GAS CALL PUSH1 0x0 DUP2 EQ ISZERO PUSH2 0x1261 JUMPI PUSH1 0x0 DUP1 REVERT JUMPDEST DUP2 MLOAD SWAP5 POP POP POP POP JUMP JUMPDEST PUSH4 0x28DCB2A0 PUSH3 0x80000 DUP2 PUSH1 0xE0 SHL DUP2 MSTORE DUP4 PUSH1 0x4 DUP3 ADD MSTORE DUP5 PUSH1 0x24 DUP3 ADD MSTORE PUSH1 0x0 DUP2 PUSH1 0x44 DUP4 PUSH1 0x0 CALLER GAS CALL PUSH1 0x0 DUP2 EQ ISZERO PUSH2 0x129E JUMPI PUSH1 0x0 DUP1 REVERT JUMPDEST POP POP POP JUMP JUMPDEST POP DUP1 PUSH2 0x12AD PUSH2 0x1202 JUMP JUMPDEST PUSH1 0x0 DUP3 PUSH2 0x12B8 PUSH2 0x126A JUMP JUMPDEST POP POP PUSH1 0x8 MUL SWAP1 PUSH1 0x0 MSTORE PUSH1 0x20 PUSH1 0x0 KECCAK256 SWAP1 DUP2 ADD SWAP1 PUSH2 0x12D4 SWAP2 SWAP1 PUSH2 0x12D7 JUMP JUMPDEST POP JUMP JUMPDEST PUSH2 0x137B SWAP2 SWAP1 JUMPDEST DUP1 DUP3 GT ISZERO PUSH2 0x1377 JUMPI PUSH1 0x0 DUP1 DUP3 ADD PUSH1 0x0 SWAP1 PUSH2 0x12F5 PUSH2 0x126A JUMP JUMPDEST POP POP PUSH1 0x1 DUP3 ADD PUSH1 0x0 SWAP1 PUSH2 0x1306 PUSH2 0x126A JUMP JUMPDEST POP POP PUSH1 0x2 DUP3 ADD PUSH1 0x0 SWAP1 PUSH2 0x1317 PUSH2 0x126A JUMP JUMPDEST POP POP PUSH1 0x3 DUP3 ADD PUSH1 0x0 SWAP1 PUSH2 0x1328 PUSH2 0x126A JUMP JUMPDEST POP POP PUSH1 0x4 DUP3 ADD PUSH1 0x0 SWAP1 PUSH2 0x1339 PUSH2 0x126A JUMP JUMPDEST POP POP PUSH1 0x5 DUP3 ADD PUSH1 0x0 SWAP1 PUSH2 0x134A PUSH2 0x126A JUMP JUMPDEST POP POP PUSH1 0x6 DUP3 ADD PUSH1 0x0 SWAP1 PUSH2 0x135B PUSH2 0x126A JUMP JUMPDEST POP POP PUSH1 0x7 DUP3 ADD PUSH1 0x0 SWAP1 PUSH2 0x136C PUSH2 0x126A JUMP JUMPDEST POP POP POP PUSH1 0x8 ADD PUSH2 0x12DD JUMP JUMPDEST POP SWAP1 JUMP JUMPDEST SWAP1 JUMP INVALID 0x4F PUSH15 0x6C7920746865206173736F63696174 PUSH6 0x6420636F6E74 PUSH19 0x6163742063616E20706572666F726D20746869 PUSH20 0x20616374696F6EA265627A7A72315820829EE0D6 DUP4 SWAP16 DUP10 PUSH6 0x602CBD42BF8 0x2D 0xC3 0x23 PC EXTCODECOPY DUP16 DUP4 PUSH8 0x82CBCEFF9718C130 0xAC INVALID PUSH5 0x736F6C6378 0x28 ADDRESS 0x2E CALLDATALOAD 0x2E BALANCE CALLDATASIZE 0x2D PUSH5 0x6576656C6F PUSH17 0x2E323032302E372E32392B636F6D6D6974 0x2E CALLDATASIZE ORIGIN PUSH6 0x363465363700 PC "
		}
	}
}