{
	"abi": [
		{
			"constant": true,
			"inputs": [],
			"name": "PRECISE_UNIT",
			"outputs": [
				{
					"internalType": "uint256",
					"name": "",
					"type": "uint256"
				}
			],
			"payable": false,
			"stateMutability": "view",
			"type": "function"
		},
		{
			"constant": true,
			"inputs": [],
			"name": "UNIT",
			"outputs": [
				{
					"internalType": "uint256",
					"name": "",
					"type": "uint256"
				}
			],
			"payable": false,
			"stateMutability": "view",
			"type": "function"
		},
		{
			"constant": true,
			"inputs": [],
			"name": "decimals",
			"outputs": [
				{
					"internalType": "uint8",
					"name": "",
					"type": "uint8"
				}
			],
			"payable": false,
			"stateMutability": "view",
			"type": "function"
		},
		{
			"constant": true,
			"inputs": [],
			"name": "highPrecisionDecimals",
			"outputs": [
				{
					"internalType": "uint8",
					"name": "",
					"type": "uint8"
				}
			],
			"payable": false,
			"stateMutability": "view",
			"type": "function"
		},
		{
			"constant": true,
			"inputs": [],
			"name": "preciseUnit",
			"outputs": [
				{
					"internalType": "uint256",
					"name": "",
					"type": "uint256"
				}
			],
			"payable": false,
			"stateMutability": "pure",
			"type": "function"
		},
		{
			"constant": true,
			"inputs": [],
			"name": "unit",
			"outputs": [
				{
					"internalType": "uint256",
					"name": "",
					"type": "uint256"
				}
			],
			"payable": false,
			"stateMutability": "pure",
			"type": "function"
		}
	],
	"evm": {
		"bytecode": {
			"linkReferences": {},
			"object": "6101f9610055600b82828239805160001a60731461001957fe5b5a63996d79a5620800008160e01b81526020816004836000335af1600081141561004257600080fd5b81519350505050600052607381538281f3fe7300000000000000000000000000000000000000005a63996d79a5620800008160e01b81526020816004836000335af1600081141561003d57600080fd5b815193505050501460806040526004361061009b5760003560e01c8063313ce567146100a0578063864029e7146100c4578063907af6c0146100e25780639d8e217714610100578063d5e5e6e61461011e578063def4419d1461013c575b600080fd5b6100a8610160565b604051808260ff1660ff16815260200191505060405180910390f35b6100cc610165565b6040518082815260200191505060405180910390f35b6100ea610170565b6040518082815260200191505060405180910390f35b61010861017f565b6040518082815260200191505060405180910390f35b61012661018a565b6040518082815260200191505060405180910390f35b610144610199565b604051808260ff1660ff16815260200191505060405180910390f35b601281565b601b60ff16600a0a81565b6000601260ff16600a0a905090565b601260ff16600a0a81565b6000601b60ff16600a0a905090565b601b8156fea265627a7a72315820cafcfbcc0dedc25dc59b159a64724dcef3c78e63e8236dd304022b0100e0735764736f6c637828302e352e31362d646576656c6f702e323032302e372e32392b636f6d6d69742e36326536346536370058",
			"opcodes": "PUSH2 0x1F9 PUSH2 0x55 PUSH1 0xB DUP3 DUP3 DUP3 CODECOPY DUP1 MLOAD PUSH1 0x0 BYTE PUSH1 0x73 EQ PUSH2 0x19 JUMPI INVALID JUMPDEST GAS PUSH4 0x996D79A5 PUSH3 0x80000 DUP2 PUSH1 0xE0 SHL DUP2 MSTORE PUSH1 0x20 DUP2 PUSH1 0x4 DUP4 PUSH1 0x0 CALLER GAS CALL PUSH1 0x0 DUP2 EQ ISZERO PUSH2 0x42 JUMPI PUSH1 0x0 DUP1 REVERT JUMPDEST DUP2 MLOAD SWAP4 POP POP POP POP PUSH1 0x0 MSTORE PUSH1 0x73 DUP2 MSTORE8 DUP3 DUP2 RETURN INVALID PUSH20 0x0 GAS PUSH4 0x996D79A5 PUSH3 0x80000 DUP2 PUSH1 0xE0 SHL DUP2 MSTORE PUSH1 0x20 DUP2 PUSH1 0x4 DUP4 PUSH1 0x0 CALLER GAS CALL PUSH1 0x0 DUP2 EQ ISZERO PUSH2 0x3D JUMPI PUSH1 0x0 DUP1 REVERT JUMPDEST DUP2 MLOAD SWAP4 POP POP POP POP EQ PUSH1 0x80 PUSH1 0x40 MSTORE PUSH1 0x4 CALLDATASIZE LT PUSH2 0x9B JUMPI PUSH1 0x0 CALLDATALOAD PUSH1 0xE0 SHR DUP1 PUSH4 0x313CE567 EQ PUSH2 0xA0 JUMPI DUP1 PUSH4 0x864029E7 EQ PUSH2 0xC4 JUMPI DUP1 PUSH4 0x907AF6C0 EQ PUSH2 0xE2 JUMPI DUP1 PUSH4 0x9D8E2177 EQ PUSH2 0x100 JUMPI DUP1 PUSH4 0xD5E5E6E6 EQ PUSH2 0x11E JUMPI DUP1 PUSH4 0xDEF4419D EQ PUSH2 0x13C JUMPI JUMPDEST PUSH1 0x0 DUP1 REVERT JUMPDEST PUSH2 0xA8 PUSH2 0x160 JUMP JUMPDEST PUSH1 0x40 MLOAD DUP1 DUP3 PUSH1 0xFF AND PUSH1 0xFF AND DUP2 MSTORE PUSH1 0x20 ADD SWAP2 POP POP PUSH1 0x40 MLOAD DUP1 SWAP2 SUB SWAP1 RETURN JUMPDEST PUSH2 0xCC PUSH2 0x165 JUMP JUMPDEST PUSH1 0x40 MLOAD DUP1 DUP3 DUP2 MSTORE PUSH1 0x20 ADD SWAP2 POP POP PUSH1 0x40 MLOAD DUP1 SWAP2 SUB SWAP1 RETURN JUMPDEST PUSH2 0xEA PUSH2 0x170 JUMP JUMPDEST PUSH1 0x40 MLOAD DUP1 DUP3 DUP2 MSTORE PUSH1 0x20 ADD SWAP2 POP POP PUSH1 0x40 MLOAD DUP1 SWAP2 SUB SWAP1 RETURN JUMPDEST PUSH2 0x108 PUSH2 0x17F JUMP JUMPDEST PUSH1 0x40 MLOAD DUP1 DUP3 DUP2 MSTORE PUSH1 0x20 ADD SWAP2 POP POP PUSH1 0x40 MLOAD DUP1 SWAP2 SUB SWAP1 RETURN JUMPDEST PUSH2 0x126 PUSH2 0x18A JUMP JUMPDEST PUSH1 0x40 MLOAD DUP1 DUP3 DUP2 MSTORE PUSH1 0x20 ADD SWAP2 POP POP PUSH1 0x40 MLOAD DUP1 SWAP2 SUB SWAP1 RETURN JUMPDEST PUSH2 0x144 PUSH2 0x199 JUMP JUMPDEST PUSH1 0x40 MLOAD DUP1 DUP3 PUSH1 0xFF AND PUSH1 0xFF AND DUP2 MSTORE PUSH1 0x20 ADD SWAP2 POP POP PUSH1 0x40 MLOAD DUP1 SWAP2 SUB SWAP1 RETURN JUMPDEST PUSH1 0x12 DUP2 JUMP JUMPDEST PUSH1 0x1B PUSH1 0xFF AND PUSH1 0xA EXP DUP2 JUMP JUMPDEST PUSH1 0x0 PUSH1 0x12 PUSH1 0xFF AND PUSH1 0xA EXP SWAP1 POP SWAP1 JUMP JUMPDEST PUSH1 0x12 PUSH1 0xFF AND PUSH1 0xA EXP DUP2 JUMP JUMPDEST PUSH1 0x0 PUSH1 0x1B PUSH1 0xFF AND PUSH1 0xA EXP SWAP1 POP SWAP1 JUMP JUMPDEST PUSH1 0x1B DUP2 JUMP INVALID LOG2 PUSH6 0x627A7A723158 KECCAK256 0xCA 0xFC 0xFB 0xCC 0xD 0xED 0xC2 0x5D 0xC5 SWAP12 ISZERO SWAP11 PUSH5 0x724DCEF3C7 DUP15 PUSH4 0xE8236DD3 DIV MUL 0x2B ADD STOP 0xE0 PUSH20 0x5764736F6C637828302E352E31362D646576656C PUSH16 0x702E323032302E372E32392B636F6D6D PUSH10 0x742E3632653634653637 STOP PC "
		}
	}
}