{
	"abi": [
		{
			"inputs": [
				{
					"internalType": "address",
					"name": "_owner",
					"type": "address"
				},
				{
					"internalType": "address",
					"name": "_rewardsDistribution",
					"type": "address"
				},
				{
					"internalType": "address",
					"name": "_rewardsToken",
					"type": "address"
				},
				{
					"internalType": "address",
					"name": "_stakingToken",
					"type": "address"
				}
			],
			"payable": false,
			"stateMutability": "nonpayable",
			"type": "constructor"
		},
		{
			"anonymous": false,
			"inputs": [
				{
					"indexed": false,
					"internalType": "address",
					"name": "oldOwner",
					"type": "address"
				},
				{
					"indexed": false,
					"internalType": "address",
					"name": "newOwner",
					"type": "address"
				}
			],
			"name": "OwnerChanged",
			"type": "event"
		},
		{
			"anonymous": false,
			"inputs": [
				{
					"indexed": false,
					"internalType": "address",
					"name": "newOwner",
					"type": "address"
				}
			],
			"name": "OwnerNominated",
			"type": "event"
		},
		{
			"anonymous": false,
			"inputs": [
				{
					"indexed": false,
					"internalType": "bool",
					"name": "isPaused",
					"type": "bool"
				}
			],
			"name": "PauseChanged",
			"type": "event"
		},
		{
			"anonymous": false,
			"inputs": [
				{
					"indexed": false,
					"internalType": "address",
					"name": "token",
					"type": "address"
				},
				{
					"indexed": false,
					"internalType": "uint256",
					"name": "amount",
					"type": "uint256"
				}
			],
			"name": "Recovered",
			"type": "event"
		},
		{
			"anonymous": false,
			"inputs": [
				{
					"indexed": false,
					"internalType": "uint256",
					"name": "reward",
					"type": "uint256"
				}
			],
			"name": "RewardAdded",
			"type": "event"
		},
		{
			"anonymous": false,
			"inputs": [
				{
					"indexed": true,
					"internalType": "address",
					"name": "user",
					"type": "address"
				},
				{
					"indexed": false,
					"internalType": "uint256",
					"name": "reward",
					"type": "uint256"
				}
			],
			"name": "RewardPaid",
			"type": "event"
		},
		{
			"anonymous": false,
			"inputs": [
				{
					"indexed": false,
					"internalType": "uint256",
					"name": "newDuration",
					"type": "uint256"
				}
			],
			"name": "RewardsDurationUpdated",
			"type": "event"
		},
		{
			"anonymous": false,
			"inputs": [
				{
					"indexed": true,
					"internalType": "address",
					"name": "user",
					"type": "address"
				},
				{
					"indexed": false,
					"internalType": "uint256",
					"name": "amount",
					"type": "uint256"
				}
			],
			"name": "Staked",
			"type": "event"
		},
		{
			"anonymous": false,
			"inputs": [
				{
					"indexed": true,
					"internalType": "address",
					"name": "user",
					"type": "address"
				},
				{
					"indexed": false,
					"internalType": "uint256",
					"name": "amount",
					"type": "uint256"
				}
			],
			"name": "Withdrawn",
			"type": "event"
		},
		{
			"constant": false,
			"inputs": [],
			"name": "acceptOwnership",
			"outputs": [],
			"payable": false,
			"stateMutability": "nonpayable",
			"type": "function"
		},
		{
			"constant": true,
			"inputs": [
				{
					"internalType": "address",
					"name": "account",
					"type": "address"
				}
			],
			"name": "balanceOf",
			"outputs": [
				{
					"internalType": "uint256",
					"name": "",
					"type": "uint256"
				}
			],
			"payable": false,
			"stateMutability": "view",
			"type": "function"
		},
		{
			"constant": true,
			"inputs": [
				{
					"internalType": "address",
					"name": "account",
					"type": "address"
				}
			],
			"name": "earned",
			"outputs": [
				{
					"internalType": "uint256",
					"name": "",
					"type": "uint256"
				}
			],
			"payable": false,
			"stateMutability": "view",
			"type": "function"
		},
		{
			"constant": false,
			"inputs": [],
			"name": "exit",
			"outputs": [],
			"payable": false,
			"stateMutability": "nonpayable",
			"type": "function"
		},
		{
			"constant": false,
			"inputs": [],
			"name": "getReward",
			"outputs": [],
			"payable": false,
			"stateMutability": "nonpayable",
			"type": "function"
		},
		{
			"constant": true,
			"inputs": [],
			"name": "getRewardForDuration",
			"outputs": [
				{
					"internalType": "uint256",
					"name": "",
					"type": "uint256"
				}
			],
			"payable": false,
			"stateMutability": "view",
			"type": "function"
		},
		{
			"constant": true,
			"inputs": [],
			"name": "lastPauseTime",
			"outputs": [
				{
					"internalType": "uint256",
					"name": "",
					"type": "uint256"
				}
			],
			"payable": false,
			"stateMutability": "view",
			"type": "function"
		},
		{
			"constant": true,
			"inputs": [],
			"name": "lastTimeRewardApplicable",
			"outputs": [
				{
					"internalType": "uint256",
					"name": "",
					"type": "uint256"
				}
			],
			"payable": false,
			"stateMutability": "view",
			"type": "function"
		},
		{
			"constant": true,
			"inputs": [],
			"name": "lastUpdateTime",
			"outputs": [
				{
					"internalType": "uint256",
					"name": "",
					"type": "uint256"
				}
			],
			"payable": false,
			"stateMutability": "view",
			"type": "function"
		},
		{
			"constant": false,
			"inputs": [
				{
					"internalType": "address",
					"name": "_owner",
					"type": "address"
				}
			],
			"name": "nominateNewOwner",
			"outputs": [],
			"payable": false,
			"stateMutability": "nonpayable",
			"type": "function"
		},
		{
			"constant": true,
			"inputs": [],
			"name": "nominatedOwner",
			"outputs": [
				{
					"internalType": "address",
					"name": "",
					"type": "address"
				}
			],
			"payable": false,
			"stateMutability": "view",
			"type": "function"
		},
		{
			"constant": false,
			"inputs": [
				{
					"internalType": "uint256",
					"name": "reward",
					"type": "uint256"
				}
			],
			"name": "notifyRewardAmount",
			"outputs": [],
			"payable": false,
			"stateMutability": "nonpayable",
			"type": "function"
		},
		{
			"constant": true,
			"inputs": [],
			"name": "owner",
			"outputs": [
				{
					"internalType": "address",
					"name": "",
					"type": "address"
				}
			],
			"payable": false,
			"stateMutability": "view",
			"type": "function"
		},
		{
			"constant": true,
			"inputs": [],
			"name": "paused",
			"outputs": [
				{
					"internalType": "bool",
					"name": "",
					"type": "bool"
				}
			],
			"payable": false,
			"stateMutability": "view",
			"type": "function"
		},
		{
			"constant": true,
			"inputs": [],
			"name": "periodFinish",
			"outputs": [
				{
					"internalType": "uint256",
					"name": "",
					"type": "uint256"
				}
			],
			"payable": false,
			"stateMutability": "view",
			"type": "function"
		},
		{
			"constant": false,
			"inputs": [
				{
					"internalType": "address",
					"name": "tokenAddress",
					"type": "address"
				},
				{
					"internalType": "uint256",
					"name": "tokenAmount",
					"type": "uint256"
				}
			],
			"name": "recoverERC20",
			"outputs": [],
			"payable": false,
			"stateMutability": "nonpayable",
			"type": "function"
		},
		{
			"constant": true,
			"inputs": [],
			"name": "rewardPerToken",
			"outputs": [
				{
					"internalType": "uint256",
					"name": "",
					"type": "uint256"
				}
			],
			"payable": false,
			"stateMutability": "view",
			"type": "function"
		},
		{
			"constant": true,
			"inputs": [],
			"name": "rewardPerTokenStored",
			"outputs": [
				{
					"internalType": "uint256",
					"name": "",
					"type": "uint256"
				}
			],
			"payable": false,
			"stateMutability": "view",
			"type": "function"
		},
		{
			"constant": true,
			"inputs": [],
			"name": "rewardRate",
			"outputs": [
				{
					"internalType": "uint256",
					"name": "",
					"type": "uint256"
				}
			],
			"payable": false,
			"stateMutability": "view",
			"type": "function"
		},
		{
			"constant": true,
			"inputs": [
				{
					"internalType": "address",
					"name": "",
					"type": "address"
				}
			],
			"name": "rewards",
			"outputs": [
				{
					"internalType": "uint256",
					"name": "",
					"type": "uint256"
				}
			],
			"payable": false,
			"stateMutability": "view",
			"type": "function"
		},
		{
			"constant": true,
			"inputs": [],
			"name": "rewardsDistribution",
			"outputs": [
				{
					"internalType": "address",
					"name": "",
					"type": "address"
				}
			],
			"payable": false,
			"stateMutability": "view",
			"type": "function"
		},
		{
			"constant": true,
			"inputs": [],
			"name": "rewardsDuration",
			"outputs": [
				{
					"internalType": "uint256",
					"name": "",
					"type": "uint256"
				}
			],
			"payable": false,
			"stateMutability": "view",
			"type": "function"
		},
		{
			"constant": true,
			"inputs": [],
			"name": "rewardsToken",
			"outputs": [
				{
					"internalType": "contract IERC20",
					"name": "",
					"type": "address"
				}
			],
			"payable": false,
			"stateMutability": "view",
			"type": "function"
		},
		{
			"constant": false,
			"inputs": [
				{
					"internalType": "bool",
					"name": "_paused",
					"type": "bool"
				}
			],
			"name": "setPaused",
			"outputs": [],
			"payable": false,
			"stateMutability": "nonpayable",
			"type": "function"
		},
		{
			"constant": false,
			"inputs": [
				{
					"internalType": "address",
					"name": "_rewardsDistribution",
					"type": "address"
				}
			],
			"name": "setRewardsDistribution",
			"outputs": [],
			"payable": false,
			"stateMutability": "nonpayable",
			"type": "function"
		},
		{
			"constant": false,
			"inputs": [
				{
					"internalType": "uint256",
					"name": "_rewardsDuration",
					"type": "uint256"
				}
			],
			"name": "setRewardsDuration",
			"outputs": [],
			"payable": false,
			"stateMutability": "nonpayable",
			"type": "function"
		},
		{
			"constant": false,
			"inputs": [
				{
					"internalType": "uint256",
					"name": "amount",
					"type": "uint256"
				}
			],
			"name": "stake",
			"outputs": [],
			"payable": false,
			"stateMutability": "nonpayable",
			"type": "function"
		},
		{
			"constant": true,
			"inputs": [],
			"name": "stakingToken",
			"outputs": [
				{
					"internalType": "contract IERC20",
					"name": "",
					"type": "address"
				}
			],
			"payable": false,
			"stateMutability": "view",
			"type": "function"
		},
		{
			"constant": true,
			"inputs": [],
			"name": "totalSupply",
			"outputs": [
				{
					"internalType": "uint256",
					"name": "",
					"type": "uint256"
				}
			],
			"payable": false,
			"stateMutability": "view",
			"type": "function"
		},
		{
			"constant": true,
			"inputs": [
				{
					"internalType": "address",
					"name": "",
					"type": "address"
				}
			],
			"name": "userRewardPerTokenPaid",
			"outputs": [
				{
					"internalType": "uint256",
					"name": "",
					"type": "uint256"
				}
			],
			"payable": false,
			"stateMutability": "view",
			"type": "function"
		},
		{
			"constant": false,
			"inputs": [
				{
					"internalType": "uint256",
					"name": "amount",
					"type": "uint256"
				}
			],
			"name": "withdraw",
			"outputs": [],
			"payable": false,
			"stateMutability": "nonpayable",
			"type": "function"
		}
	],
	"evm": {
		"bytecode": {
			"linkReferences": {},
			"object": "6080604052600060076200001262000414565b5050600060086200002262000414565b505062093a8060096200003462000414565b50503480156200004357600080fd5b506040516200379a3803806200379a833981810160405260808110156200006957600080fd5b810190808051906020019092919080519060200190929190805190602001909291908051906020019092919050505083600073ffffffffffffffffffffffffffffffffffffffff168173ffffffffffffffffffffffffffffffffffffffff1614156200013d576040517f08c379a00000000000000000000000000000000000000000000000000000000081526004018080602001828103825260198152602001807f4f776e657220616464726573732063616e6e6f7420626520300000000000000081525060200191505060405180910390fd5b806000806101000a81620001506200044e565b8173ffffffffffffffffffffffffffffffffffffffff021916908373ffffffffffffffffffffffffffffffffffffffff160217906200018e62000414565b5050507fb532073b38c83145e3e5135377a08bf9aab55bc0fd7c1179cd4fb995d2a5159c600082604051808373ffffffffffffffffffffffffffffffffffffffff1673ffffffffffffffffffffffffffffffffffffffff1681526020018273ffffffffffffffffffffffffffffffffffffffff1673ffffffffffffffffffffffffffffffffffffffff1681526020019250505060405180910390a1506001600381906200023a62000414565b505050600073ffffffffffffffffffffffffffffffffffffffff1660008090620002636200044e565b906101000a900473ffffffffffffffffffffffffffffffffffffffff1673ffffffffffffffffffffffffffffffffffffffff1614156200030b576040517f08c379a00000000000000000000000000000000000000000000000000000000081526004018080602001828103825260118152602001807f4f776e6572206d7573742062652073657400000000000000000000000000000081525060200191505060405180910390fd5b81600560016101000a816200031f6200044e565b8173ffffffffffffffffffffffffffffffffffffffff021916908373ffffffffffffffffffffffffffffffffffffffff160217906200035d62000414565b50505080600660006101000a81620003746200044e565b8173ffffffffffffffffffffffffffffffffffffffff021916908373ffffffffffffffffffffffffffffffffffffffff16021790620003b262000414565b50505082600260006101000a81620003c96200044e565b8173ffffffffffffffffffffffffffffffffffffffff021916908373ffffffffffffffffffffffffffffffffffffffff160217906200040762000414565b5050505050505062000486565b6328dcb2a0620800008160e01b81528360048201528460248201526000816044836000335af160008114156200044957600080fd5b505050565b6320966208620800008160e01b81528360048201526020816024836000335af160008114156200047d57600080fd5b81519450505050565b61330480620004966000396000f3fe608060405234801561001057600080fd5b50600436106101e45760003560e01c806372f702f31161010f578063a694fc3a116100a2578063d1af0c7d11610071578063d1af0c7d14610755578063df136d651461079f578063e9fad8ee146107bd578063ebe2b12b146107c7576101e4565b8063a694fc3a146106bd578063c8f33c91146106eb578063cc1a378f14610709578063cd3daf9d14610737576101e4565b80638980f11f116100de5780638980f11f146105af5780638b876347146105fd5780638da5cb5b1461065557806391b4ded91461069f576101e4565b806372f702f31461051f57806379ba5097146105695780637b0a47ee1461057357806380faa57d14610591576101e4565b80632e1a7d4d116101875780633fc6df6e116101565780633fc6df6e1461041157806353a47bb71461045b5780635c975abb146104a557806370a08231146104c7576101e4565b80632e1a7d4d1461038d578063386a9525146103bb5780633c6b16ab146103d95780633d18b91214610407576101e4565b806316c38b3c116101c357806316c38b3c146102dd57806318160ddd1461030d578063197621431461032b5780631c1f78eb1461036f576101e4565b80628cc262146101e95780630700037d146102415780631627540c14610299575b600080fd5b61022b600480360360208110156101ff57600080fd5b81019080803573ffffffffffffffffffffffffffffffffffffffff1690602001909291905050506107e5565b6040518082815260200191505060405180910390f35b6102836004803603602081101561025757600080fd5b81019080803573ffffffffffffffffffffffffffffffffffffffff169060200190929190505050610918565b6040518082815260200191505060405180910390f35b6102db600480360360208110156102af57600080fd5b81019080803573ffffffffffffffffffffffffffffffffffffffff169060200190929190505050610937565b005b61030b600480360360208110156102f357600080fd5b81019080803515159060200190929190505050610aa2565b005b610315610c31565b6040518082815260200191505060405180910390f35b61036d6004803603602081101561034157600080fd5b81019080803573ffffffffffffffffffffffffffffffffffffffff169060200190929190505050610c42565b005b610377610d4a565b6040518082815260200191505060405180910390f35b6103b9600480360360208110156103a357600080fd5b8101908080359060200190929190505050610d76565b005b6103c3611147565b6040518082815260200191505060405180910390f35b610405600480360360208110156103ef57600080fd5b8101908080359060200190929190505050611154565b005b61040f611631565b005b61041961195f565b604051808273ffffffffffffffffffffffffffffffffffffffff1673ffffffffffffffffffffffffffffffffffffffff16815260200191505060405180910390f35b61046361198c565b604051808273ffffffffffffffffffffffffffffffffffffffff1673ffffffffffffffffffffffffffffffffffffffff16815260200191505060405180910390f35b6104ad6119b9565b604051808215151515815260200191505060405180910390f35b610509600480360360208110156104dd57600080fd5b81019080803573ffffffffffffffffffffffffffffffffffffffff1690602001909291905050506119d3565b6040518082815260200191505060405180910390f35b610527611a23565b604051808273ffffffffffffffffffffffffffffffffffffffff1673ffffffffffffffffffffffffffffffffffffffff16815260200191505060405180910390f35b610571611a50565b005b61057b611cba565b6040518082815260200191505060405180910390f35b610599611cc7565b6040518082815260200191505060405180910390f35b6105fb600480360360408110156105c557600080fd5b81019080803573ffffffffffffffffffffffffffffffffffffffff16906020019092919080359060200190929190505050611ce9565b005b61063f6004803603602081101561061357600080fd5b81019080803573ffffffffffffffffffffffffffffffffffffffff169060200190929190505050612114565b6040518082815260200191505060405180910390f35b61065d612133565b604051808273ffffffffffffffffffffffffffffffffffffffff1673ffffffffffffffffffffffffffffffffffffffff16815260200191505060405180910390f35b6106a761215f565b6040518082815260200191505060405180910390f35b6106e9600480360360208110156106d357600080fd5b810190808035906020019092919050505061216c565b005b6106f36125db565b6040518082815260200191505060405180910390f35b6107356004803603602081101561071f57600080fd5b81019080803590602001909291905050506125e8565b005b61073f61276c565b6040518082815260200191505060405180910390f35b61075d612824565b604051808273ffffffffffffffffffffffffffffffffffffffff1673ffffffffffffffffffffffffffffffffffffffff16815260200191505060405180910390f35b6107a7612851565b6040518082815260200191505060405180910390f35b6107c561285e565b005b6107cf6128bf565b6040518082815260200191505060405180910390f35b6000610911600d60008473ffffffffffffffffffffffffffffffffffffffff1673ffffffffffffffffffffffffffffffffffffffff168152602001908152602001600020610831612f54565b610903670de0b6b3a76400006108f56108a0600c60008973ffffffffffffffffffffffffffffffffffffffff1673ffffffffffffffffffffffffffffffffffffffff16815260200190815260200160002061088a612f54565b61089261276c565b6128cc90919063ffffffff16565b600f60008973ffffffffffffffffffffffffffffffffffffffff1673ffffffffffffffffffffffffffffffffffffffff1681526020019081526020016000206108e7612f54565b61295590919063ffffffff16565b6129db90919063ffffffff16565b612a6a90919063ffffffff16565b9050919050565b600d602052806000526040600020600091509050610934612f54565b81565b60008090610943612f54565b906101000a900473ffffffffffffffffffffffffffffffffffffffff1673ffffffffffffffffffffffffffffffffffffffff165a61097f612f8b565b73ffffffffffffffffffffffffffffffffffffffff16146109eb576040517f08c379a000000000000000000000000000000000000000000000000000000000815260040180806020018281038252602f81526020018061319d602f913960400191505060405180910390fd5b80600160006101000a816109fd612f54565b8173ffffffffffffffffffffffffffffffffffffffff021916908373ffffffffffffffffffffffffffffffffffffffff16021790610a39612fbc565b5050507f906a1c6bd7e3091ea86693dd029a831c19049ce77f1dce2ce0bab1cacbabce2281604051808273ffffffffffffffffffffffffffffffffffffffff1673ffffffffffffffffffffffffffffffffffffffff16815260200191505060405180910390a150565b60008090610aae612f54565b906101000a900473ffffffffffffffffffffffffffffffffffffffff1673ffffffffffffffffffffffffffffffffffffffff165a610aea612f8b565b73ffffffffffffffffffffffffffffffffffffffff1614610b56576040517f08c379a000000000000000000000000000000000000000000000000000000000815260040180806020018281038252602f81526020018061319d602f913960400191505060405180910390fd5b6005600090610b63612f54565b906101000a900460ff1615158115151415610b7d57610c2e565b80600560006101000a81610b8f612f54565b8160ff02191690831515021790610ba4612fbc565b5050506005600090610bb4612f54565b906101000a900460ff1615610bdc575a610bcc612ff5565b60048190610bd8612fbc565b5050505b7f8fb6c181ee25a520cf3dd6565006ef91229fcfe5a989566c2a3b8c115570cec56005600090610c0a612f54565b906101000a900460ff16604051808215151515815260200191505060405180910390a15b50565b6000600e610c3d612f54565b905090565b60008090610c4e612f54565b906101000a900473ffffffffffffffffffffffffffffffffffffffff1673ffffffffffffffffffffffffffffffffffffffff165a610c8a612f8b565b73ffffffffffffffffffffffffffffffffffffffff1614610cf6576040517f08c379a000000000000000000000000000000000000000000000000000000000815260040180806020018281038252602f81526020018061319d602f913960400191505060405180910390fd5b80600260006101000a81610d08612f54565b8173ffffffffffffffffffffffffffffffffffffffff021916908373ffffffffffffffffffffffffffffffffffffffff16021790610d44612fbc565b50505050565b6000610d716009610d59612f54565b6008610d63612f54565b61295590919063ffffffff16565b905090565b6001600360008282610d86612f54565b019250508190610d94612fbc565b50505060006003610da3612f54565b90505a610dae612f8b565b610db661276c565b600b8190610dc2612fbc565b505050610dcd611cc7565b600a8190610dd9612fbc565b505050600073ffffffffffffffffffffffffffffffffffffffff168173ffffffffffffffffffffffffffffffffffffffff1614610ebc57610e19816107e5565b600d60008373ffffffffffffffffffffffffffffffffffffffff1673ffffffffffffffffffffffffffffffffffffffff1681526020019081526020016000208190610e62612fbc565b505050600b610e6f612f54565b600c60008373ffffffffffffffffffffffffffffffffffffffff1673ffffffffffffffffffffffffffffffffffffffff1681526020019081526020016000208190610eb8612fbc565b5050505b60008311610f32576040517f08c379a00000000000000000000000000000000000000000000000000000000081526004018080602001828103825260118152602001807f43616e6e6f74207769746864726177203000000000000000000000000000000081525060200191505060405180910390fd5b610f4e83600e610f40612f54565b6128cc90919063ffffffff16565b600e8190610f5a612fbc565b505050610fbe83600f60005a610f6e612f8b565b73ffffffffffffffffffffffffffffffffffffffff1673ffffffffffffffffffffffffffffffffffffffff168152602001908152602001600020610fb0612f54565b6128cc90919063ffffffff16565b600f60005a610fcb612f8b565b73ffffffffffffffffffffffffffffffffffffffff1673ffffffffffffffffffffffffffffffffffffffff168152602001908152602001600020819061100f612fbc565b50505061106e5a61101e612f8b565b84600660009061102c612f54565b906101000a900473ffffffffffffffffffffffffffffffffffffffff1673ffffffffffffffffffffffffffffffffffffffff16612af29092919063ffffffff16565b5a611077612f8b565b73ffffffffffffffffffffffffffffffffffffffff167f7084f5476618d8e60b11ef0d7d3f06914655adb8793e28ff7f018d4c76d505d5846040518082815260200191505060405180910390a25060036110cf612f54565b8114611143576040517f08c379a000000000000000000000000000000000000000000000000000000000815260040180806020018281038252601f8152602001807f5265656e7472616e637947756172643a207265656e7472616e742063616c6c0081525060200191505060405180910390fd5b5050565b6009611151612f54565b81565b6002600090611161612f54565b906101000a900473ffffffffffffffffffffffffffffffffffffffff1673ffffffffffffffffffffffffffffffffffffffff165a61119d612f8b565b73ffffffffffffffffffffffffffffffffffffffff1614611209576040517f08c379a000000000000000000000000000000000000000000000000000000000815260040180806020018281038252602a815260200180613256602a913960400191505060405180910390fd5b600061121361276c565b600b819061121f612fbc565b50505061122a611cc7565b600a8190611236612fbc565b505050600073ffffffffffffffffffffffffffffffffffffffff168173ffffffffffffffffffffffffffffffffffffffff161461131957611276816107e5565b600d60008373ffffffffffffffffffffffffffffffffffffffff1673ffffffffffffffffffffffffffffffffffffffff16815260200190815260200160002081906112bf612fbc565b505050600b6112cc612f54565b600c60008373ffffffffffffffffffffffffffffffffffffffff1673ffffffffffffffffffffffffffffffffffffffff1681526020019081526020016000208190611315612fbc565b5050505b6007611323612f54565b5a61132c612ff5565b106113615761134d600961133e612f54565b836129db90919063ffffffff16565b60088190611359612fbc565b5050506113e9565b60006113875a61136f612ff5565b6007611379612f54565b6128cc90919063ffffffff16565b905060006113a76008611398612f54565b8361295590919063ffffffff16565b90506113d760096113b6612f54565b6113c98387612a6a90919063ffffffff16565b6129db90919063ffffffff16565b600881906113e3612fbc565b50505050505b600060056001906113f8612f54565b906101000a900473ffffffffffffffffffffffffffffffffffffffff1673ffffffffffffffffffffffffffffffffffffffff166370a082315a63996d79a5620800008160e01b81526020816004836000335af1600081141561145957600080fd5b815193505050506040518263ffffffff1660e01b8152600401808273ffffffffffffffffffffffffffffffffffffffff1673ffffffffffffffffffffffffffffffffffffffff16815260200191505060206040518083038186806114bb613026565b1580156114c757600080fd5b505a6114d161305d565b50505050501580156114e7573d6000803e3d6000fd5b505050506040513d60208110156114fd57600080fd5b8101908080519060200190929190505050905061152c600961151d612f54565b826129db90919063ffffffff16565b6008611536612f54565b11156115aa576040517f08c379a00000000000000000000000000000000000000000000000000000000081526004018080602001828103825260188152602001807f50726f76696465642072657761726420746f6f2068696768000000000000000081525060200191505060405180910390fd5b5a6115b3612ff5565b600a81906115bf612fbc565b5050506115e660096115cf612f54565b5a6115d8612ff5565b612a6a90919063ffffffff16565b600781906115f2612fbc565b5050507fde88a922e0d3b88b24e9623efeb464919c6bf9f66857a65e2bfcf2ce87a9433d836040518082815260200191505060405180910390a1505050565b6001600360008282611641612f54565b01925050819061164f612fbc565b5050506000600361165e612f54565b90505a611669612f8b565b61167161276c565b600b819061167d612fbc565b505050611688611cc7565b600a8190611694612fbc565b505050600073ffffffffffffffffffffffffffffffffffffffff168173ffffffffffffffffffffffffffffffffffffffff1614611777576116d4816107e5565b600d60008373ffffffffffffffffffffffffffffffffffffffff1673ffffffffffffffffffffffffffffffffffffffff168152602001908152602001600020819061171d612fbc565b505050600b61172a612f54565b600c60008373ffffffffffffffffffffffffffffffffffffffff1673ffffffffffffffffffffffffffffffffffffffff1681526020019081526020016000208190611773612fbc565b5050505b6000600d60005a611786612f8b565b73ffffffffffffffffffffffffffffffffffffffff1673ffffffffffffffffffffffffffffffffffffffff1681526020019081526020016000206117c8612f54565b905060008111156118dc576000600d60005a6117e2612f8b565b73ffffffffffffffffffffffffffffffffffffffff1673ffffffffffffffffffffffffffffffffffffffff1681526020019081526020016000208190611826612fbc565b5050506118855a611835612f8b565b826005600190611843612f54565b906101000a900473ffffffffffffffffffffffffffffffffffffffff1673ffffffffffffffffffffffffffffffffffffffff16612af29092919063ffffffff16565b5a61188e612f8b565b73ffffffffffffffffffffffffffffffffffffffff167fe2403640ba68fed3a2f88b7557551d1993f84b99bb10ff833f0cf8db0c5e0486826040518082815260200191505060405180910390a25b505060036118e8612f54565b811461195c576040517f08c379a000000000000000000000000000000000000000000000000000000000815260040180806020018281038252601f8152602001807f5265656e7472616e637947756172643a207265656e7472616e742063616c6c0081525060200191505060405180910390fd5b50565b600260009061196c612f54565b906101000a900473ffffffffffffffffffffffffffffffffffffffff1681565b6001600090611999612f54565b906101000a900473ffffffffffffffffffffffffffffffffffffffff1681565b60056000906119c6612f54565b906101000a900460ff1681565b6000600f60008373ffffffffffffffffffffffffffffffffffffffff1673ffffffffffffffffffffffffffffffffffffffff168152602001908152602001600020611a1c612f54565b9050919050565b6006600090611a30612f54565b906101000a900473ffffffffffffffffffffffffffffffffffffffff1681565b6001600090611a5d612f54565b906101000a900473ffffffffffffffffffffffffffffffffffffffff1673ffffffffffffffffffffffffffffffffffffffff165a611a99612f8b565b73ffffffffffffffffffffffffffffffffffffffff1614611b05576040517f08c379a00000000000000000000000000000000000000000000000000000000081526004018080602001828103825260358152602001806131686035913960400191505060405180910390fd5b7fb532073b38c83145e3e5135377a08bf9aab55bc0fd7c1179cd4fb995d2a5159c60008090611b32612f54565b906101000a900473ffffffffffffffffffffffffffffffffffffffff166001600090611b5c612f54565b906101000a900473ffffffffffffffffffffffffffffffffffffffff16604051808373ffffffffffffffffffffffffffffffffffffffff1673ffffffffffffffffffffffffffffffffffffffff1681526020018273ffffffffffffffffffffffffffffffffffffffff1673ffffffffffffffffffffffffffffffffffffffff1681526020019250505060405180910390a16001600090611bfa612f54565b906101000a900473ffffffffffffffffffffffffffffffffffffffff166000806101000a81611c27612f54565b8173ffffffffffffffffffffffffffffffffffffffff021916908373ffffffffffffffffffffffffffffffffffffffff16021790611c63612fbc565b5050506000600160006101000a81611c79612f54565b8173ffffffffffffffffffffffffffffffffffffffff021916908373ffffffffffffffffffffffffffffffffffffffff16021790611cb5612fbc565b505050565b6008611cc4612f54565b81565b6000611ce45a611cd5612ff5565b6007611cdf612f54565b612bc3565b905090565b60008090611cf5612f54565b906101000a900473ffffffffffffffffffffffffffffffffffffffff1673ffffffffffffffffffffffffffffffffffffffff165a611d31612f8b565b73ffffffffffffffffffffffffffffffffffffffff1614611d9d576040517f08c379a000000000000000000000000000000000000000000000000000000000815260040180806020018281038252602f81526020018061319d602f913960400191505060405180910390fd5b60008273ffffffffffffffffffffffffffffffffffffffff166395d89b416040518163ffffffff1660e01b81526004016000604051808303818680611de0613026565b158015611dec57600080fd5b505a611df661305d565b5050505050158015611e0c573d6000803e3d6000fd5b505050506040513d6000823e3d601f19601f820116820180604052506020811015611e3657600080fd5b8101908080516040519392919084640100000000821115611e5657600080fd5b83820191506020820185811115611e6c57600080fd5b8251866001820283011164010000000082111715611e8957600080fd5b8083526020830192505050908051906020019080838360005b83811015611ebd578082015181840152602081019050611ea2565b50505050905090810190601f168015611eea5780820380516001836020036101000a031916815260200191505b50604052505050805190602001206040518060400160405280600381526020017f534e580000000000000000000000000000000000000000000000000000000000815250805190602001201490506006600090611f45612f54565b906101000a900473ffffffffffffffffffffffffffffffffffffffff1673ffffffffffffffffffffffffffffffffffffffff168373ffffffffffffffffffffffffffffffffffffffff1614158015611ff257506005600190611fa5612f54565b906101000a900473ffffffffffffffffffffffffffffffffffffffff1673ffffffffffffffffffffffffffffffffffffffff168373ffffffffffffffffffffffffffffffffffffffff1614155b8015611ffc575080155b612051576040517f08c379a000000000000000000000000000000000000000000000000000000000815260040180806020018281038252602d815260200180613229602d913960400191505060405180910390fd5b6120a460008090612060612f54565b906101000a900473ffffffffffffffffffffffffffffffffffffffff16838573ffffffffffffffffffffffffffffffffffffffff16612af29092919063ffffffff16565b7f8c1256b8896378cd5044f80c202f9772b9d77dc85c8a6eb51967210b09bfaa288383604051808373ffffffffffffffffffffffffffffffffffffffff1673ffffffffffffffffffffffffffffffffffffffff1681526020018281526020019250505060405180910390a1505050565b600c602052806000526040600020600091509050612130612f54565b81565b6000809061213f612f54565b906101000a900473ffffffffffffffffffffffffffffffffffffffff1681565b6004612169612f54565b81565b600160036000828261217c612f54565b01925050819061218a612fbc565b50505060006003612199612f54565b905060056000906121a8612f54565b906101000a900460ff1615612208576040517f08c379a000000000000000000000000000000000000000000000000000000000815260040180806020018281038252603c8152602001806131ed603c913960400191505060405180910390fd5b5a612211612f8b565b61221961276c565b600b8190612225612fbc565b505050612230611cc7565b600a819061223c612fbc565b505050600073ffffffffffffffffffffffffffffffffffffffff168173ffffffffffffffffffffffffffffffffffffffff161461231f5761227c816107e5565b600d60008373ffffffffffffffffffffffffffffffffffffffff1673ffffffffffffffffffffffffffffffffffffffff16815260200190815260200160002081906122c5612fbc565b505050600b6122d2612f54565b600c60008373ffffffffffffffffffffffffffffffffffffffff1673ffffffffffffffffffffffffffffffffffffffff168152602001908152602001600020819061231b612fbc565b5050505b60008311612395576040517f08c379a000000000000000000000000000000000000000000000000000000000815260040180806020018281038252600e8152602001807f43616e6e6f74207374616b65203000000000000000000000000000000000000081525060200191505060405180910390fd5b6123b183600e6123a3612f54565b612a6a90919063ffffffff16565b600e81906123bd612fbc565b50505061242183600f60005a6123d1612f8b565b73ffffffffffffffffffffffffffffffffffffffff1673ffffffffffffffffffffffffffffffffffffffff168152602001908152602001600020612413612f54565b612a6a90919063ffffffff16565b600f60005a61242e612f8b565b73ffffffffffffffffffffffffffffffffffffffff1673ffffffffffffffffffffffffffffffffffffffff1681526020019081526020016000208190612472612fbc565b5050506125025a612481612f8b565b5a63996d79a5620800008160e01b81526020816004836000335af160008114156124aa57600080fd5b815193505050508560066000906124bf612f54565b906101000a900473ffffffffffffffffffffffffffffffffffffffff1673ffffffffffffffffffffffffffffffffffffffff16612bdc909392919063ffffffff16565b5a61250b612f8b565b73ffffffffffffffffffffffffffffffffffffffff167f9e71bc8eea02a63969f509818f2dafb9254532904319f9dbda79b67bd34a5f3d846040518082815260200191505060405180910390a2506003612563612f54565b81146125d7576040517f08c379a000000000000000000000000000000000000000000000000000000000815260040180806020018281038252601f8152602001807f5265656e7472616e637947756172643a207265656e7472616e742063616c6c0081525060200191505060405180910390fd5b5050565b600a6125e5612f54565b81565b600080906125f4612f54565b906101000a900473ffffffffffffffffffffffffffffffffffffffff1673ffffffffffffffffffffffffffffffffffffffff165a612630612f8b565b73ffffffffffffffffffffffffffffffffffffffff161461269c576040517f08c379a000000000000000000000000000000000000000000000000000000000815260040180806020018281038252602f81526020018061319d602f913960400191505060405180910390fd5b600060076126a8612f54565b14806126c4575060076126b9612f54565b5a6126c2612ff5565b115b612719576040517f08c379a00000000000000000000000000000000000000000000000000000000081526004018080602001828103825260588152602001806131106058913960600191505060405180910390fd5b8060098190612726612fbc565b5050507ffb46ca5a5e06d4540d6387b930a7c978bce0db5f449ec6b3f5d07c6e1d44f2d36009612754612f54565b6040518082815260200191505060405180910390a150565b600080600e612779612f54565b141561279057600b612789612f54565b9050612821565b61281e612806600e6127a0612f54565b6127f8670de0b6b3a76400006127ea60086127b9612f54565b6127dc600a6127c6612f54565b6127ce611cc7565b6128cc90919063ffffffff16565b61295590919063ffffffff16565b61295590919063ffffffff16565b6129db90919063ffffffff16565b600b612810612f54565b612a6a90919063ffffffff16565b90505b90565b6005600190612831612f54565b906101000a900473ffffffffffffffffffffffffffffffffffffffff1681565b600b61285b612f54565b81565b6128b5600f60005a61286e612f8b565b73ffffffffffffffffffffffffffffffffffffffff1673ffffffffffffffffffffffffffffffffffffffff1681526020019081526020016000206128b0612f54565b610d76565b6128bd611631565b565b60076128c9612f54565b81565b600082821115612944576040517f08c379a000000000000000000000000000000000000000000000000000000000815260040180806020018281038252601e8152602001807f536166654d6174683a207375627472616374696f6e206f766572666c6f77000081525060200191505060405180910390fd5b600082840390508091505092915050565b60008083141561296857600090506129d5565b600082840290508284828161297957fe5b04146129d0576040517f08c379a00000000000000000000000000000000000000000000000000000000081526004018080602001828103825260218152602001806131cc6021913960400191505060405180910390fd5b809150505b92915050565b6000808211612a52576040517f08c379a000000000000000000000000000000000000000000000000000000000815260040180806020018281038252601a8152602001807f536166654d6174683a206469766973696f6e206279207a65726f00000000000081525060200191505060405180910390fd5b6000828481612a5d57fe5b0490508091505092915050565b600080828401905083811015612ae8576040517f08c379a000000000000000000000000000000000000000000000000000000000815260040180806020018281038252601b8152602001807f536166654d6174683a206164646974696f6e206f766572666c6f77000000000081525060200191505060405180910390fd5b8091505092915050565b612bbe838473ffffffffffffffffffffffffffffffffffffffff1663a9059cbb905060e01b8484604051602401808373ffffffffffffffffffffffffffffffffffffffff1673ffffffffffffffffffffffffffffffffffffffff16815260200182815260200192505050604051602081830303815290604052907bffffffffffffffffffffffffffffffffffffffffffffffffffffffff19166020820180517bffffffffffffffffffffffffffffffffffffffffffffffffffffffff8381831617835250505050612ce2565b505050565b6000818310612bd25781612bd4565b825b905092915050565b612cdc848573ffffffffffffffffffffffffffffffffffffffff166323b872dd905060e01b858585604051602401808473ffffffffffffffffffffffffffffffffffffffff1673ffffffffffffffffffffffffffffffffffffffff1681526020018373ffffffffffffffffffffffffffffffffffffffff1673ffffffffffffffffffffffffffffffffffffffff1681526020018281526020019350505050604051602081830303815290604052907bffffffffffffffffffffffffffffffffffffffffffffffffffffffff19166020820180517bffffffffffffffffffffffffffffffffffffffffffffffffffffffff8381831617835250505050612ce2565b50505050565b612d018273ffffffffffffffffffffffffffffffffffffffff16612f3a565b612d73576040517f08c379a000000000000000000000000000000000000000000000000000000000815260040180806020018281038252601f8152602001807f5361666545524332303a2063616c6c20746f206e6f6e2d636f6e74726163740081525060200191505060405180910390fd5b600060608373ffffffffffffffffffffffffffffffffffffffff16836040518082805190602001908083835b60208310612dc25780518252602082019150602081019050602083039250612d9f565b6001836020036101000a0380198251168184511680821785525050505050509050019150506000604051808303816000865a612dfc6130b6565b5050505050509150503d8060008114612e31576040519150601f19603f3d011682016040523d82523d6000602084013e612e36565b606091505b509150915081612eae576040517f08c379a00000000000000000000000000000000000000000000000000000000081526004018080602001828103825260208152602001807f5361666545524332303a206c6f772d6c6576656c2063616c6c206661696c656481525060200191505060405180910390fd5b600081511115612f3457808060200190516020811015612ecd57600080fd5b8101908080519060200190929190505050612f33576040517f08c379a000000000000000000000000000000000000000000000000000000000815260040180806020018281038252602a815260200180613280602a913960400191505060405180910390fd5b5b50505050565b60008082612f46613026565b905060008111915050919050565b6320966208620800008160e01b81528360048201526020816024836000335af16000811415612f8257600080fd5b81519450505050565b6373509064620800008160e01b81526020816004836000335af16000811415612fb357600080fd5b81519450505050565b6328dcb2a0620800008160e01b81528360048201528460248201526000816044836000335af16000811415612ff057600080fd5b505050565b63bdbf8c36620800008160e01b81526020816004836000335af1600081141561301d57600080fd5b81519450505050565b63c3382d0f620800008160e01b81528360048201526020816024836000335af1600081141561305457600080fd5b81519450505050565b63fbb0f79d620800008160e01b815284600482015260005b87811015613093578087015181602484010152602081019050613075565b50888888602401836000335af160008114156130ae57600080fd5b809950505050565b634c6d7c84620800008160e01b815284600482015260005b888110156130ec5780880151816024840101526020810190506130ce565b50898989602401836000335af1600081141561310757600080fd5b809a5050505056fe50726576696f7573207265776172647320706572696f64206d75737420626520636f6d706c657465206265666f7265206368616e67696e6720746865206475726174696f6e20666f7220746865206e657720706572696f64596f75206d757374206265206e6f6d696e61746564206265666f726520796f752063616e20616363657074206f776e6572736869704f6e6c792074686520636f6e7472616374206f776e6572206d617920706572666f726d207468697320616374696f6e536166654d6174683a206d756c7469706c69636174696f6e206f766572666c6f775468697320616374696f6e2063616e6e6f7420626520706572666f726d6564207768696c652074686520636f6e74726163742069732070617573656443616e6e6f7420776974686472617720746865207374616b696e67206f72207265776172647320746f6b656e7343616c6c6572206973206e6f742052657761726473446973747269627574696f6e20636f6e74726163745361666545524332303a204552433230206f7065726174696f6e20646964206e6f742073756363656564a265627a7a72315820f508f13bff3933bdfc600eab2426de046dec31671d0be723c230011519af939164736f6c637828302e352e31362d646576656c6f702e323032302e372e32392b636f6d6d69742e36326536346536370058",
			"opcodes": "PUSH1 0x80 PUSH1 0x40 MSTORE PUSH1 0x0 PUSH1 0x7 PUSH3 0x12 PUSH3 0x414 JUMP JUMPDEST POP POP PUSH1 0x0 PUSH1 0x8 PUSH3 0x22 PUSH3 0x414 JUMP JUMPDEST POP POP PUSH3 0x93A80 PUSH1 0x9 PUSH3 0x34 PUSH3 0x414 JUMP JUMPDEST POP POP CALLVALUE DUP1 ISZERO PUSH3 0x43 JUMPI PUSH1 0x0 DUP1 REVERT JUMPDEST POP PUSH1 0x40 MLOAD PUSH3 0x379A CODESIZE SUB DUP1 PUSH3 0x379A DUP4 CODECOPY DUP2 DUP2 ADD PUSH1 0x40 MSTORE PUSH1 0x80 DUP2 LT ISZERO PUSH3 0x69 JUMPI PUSH1 0x0 DUP1 REVERT JUMPDEST DUP2 ADD SWAP1 DUP1 DUP1 MLOAD SWAP1 PUSH1 0x20 ADD SWAP1 SWAP3 SWAP2 SWAP1 DUP1 MLOAD SWAP1 PUSH1 0x20 ADD SWAP1 SWAP3 SWAP2 SWAP1 DUP1 MLOAD SWAP1 PUSH1 0x20 ADD SWAP1 SWAP3 SWAP2 SWAP1 DUP1 MLOAD SWAP1 PUSH1 0x20 ADD SWAP1 SWAP3 SWAP2 SWAP1 POP POP POP DUP4 PUSH1 0x0 PUSH20 0xFFFFFFFFFFFFFFFFFFFFFFFFFFFFFFFFFFFFFFFF AND DUP2 PUSH20 0xFFFFFFFFFFFFFFFFFFFFFFFFFFFFFFFFFFFFFFFF AND EQ ISZERO PUSH3 0x13D JUMPI PUSH1 0x40 MLOAD PUSH32 0x8C379A000000000000000000000000000000000000000000000000000000000 DUP2 MSTORE PUSH1 0x4 ADD DUP1 DUP1 PUSH1 0x20 ADD DUP3 DUP2 SUB DUP3 MSTORE PUSH1 0x19 DUP2 MSTORE PUSH1 0x20 ADD DUP1 PUSH32 0x4F776E657220616464726573732063616E6E6F74206265203000000000000000 DUP2 MSTORE POP PUSH1 0x20 ADD SWAP2 POP POP PUSH1 0x40 MLOAD DUP1 SWAP2 SUB SWAP1 REVERT JUMPDEST DUP1 PUSH1 0x0 DUP1 PUSH2 0x100 EXP DUP2 PUSH3 0x150 PUSH3 0x44E JUMP JUMPDEST DUP2 PUSH20 0xFFFFFFFFFFFFFFFFFFFFFFFFFFFFFFFFFFFFFFFF MUL NOT AND SWAP1 DUP4 PUSH20 0xFFFFFFFFFFFFFFFFFFFFFFFFFFFFFFFFFFFFFFFF AND MUL OR SWAP1 PUSH3 0x18E PUSH3 0x414 JUMP JUMPDEST POP POP POP PUSH32 0xB532073B38C83145E3E5135377A08BF9AAB55BC0FD7C1179CD4FB995D2A5159C PUSH1 0x0 DUP3 PUSH1 0x40 MLOAD DUP1 DUP4 PUSH20 0xFFFFFFFFFFFFFFFFFFFFFFFFFFFFFFFFFFFFFFFF AND PUSH20 0xFFFFFFFFFFFFFFFFFFFFFFFFFFFFFFFFFFFFFFFF AND DUP2 MSTORE PUSH1 0x20 ADD DUP3 PUSH20 0xFFFFFFFFFFFFFFFFFFFFFFFFFFFFFFFFFFFFFFFF AND PUSH20 0xFFFFFFFFFFFFFFFFFFFFFFFFFFFFFFFFFFFFFFFF AND DUP2 MSTORE PUSH1 0x20 ADD SWAP3 POP POP POP PUSH1 0x40 MLOAD DUP1 SWAP2 SUB SWAP1 LOG1 POP PUSH1 0x1 PUSH1 0x3 DUP2 SWAP1 PUSH3 0x23A PUSH3 0x414 JUMP JUMPDEST POP POP POP PUSH1 0x0 PUSH20 0xFFFFFFFFFFFFFFFFFFFFFFFFFFFFFFFFFFFFFFFF AND PUSH1 0x0 DUP1 SWAP1 PUSH3 0x263 PUSH3 0x44E JUMP JUMPDEST SWAP1 PUSH2 0x100 EXP SWAP1 DIV PUSH20 0xFFFFFFFFFFFFFFFFFFFFFFFFFFFFFFFFFFFFFFFF AND PUSH20 0xFFFFFFFFFFFFFFFFFFFFFFFFFFFFFFFFFFFFFFFF AND EQ ISZERO PUSH3 0x30B JUMPI PUSH1 0x40 MLOAD PUSH32 0x8C379A000000000000000000000000000000000000000000000000000000000 DUP2 MSTORE PUSH1 0x4 ADD DUP1 DUP1 PUSH1 0x20 ADD DUP3 DUP2 SUB DUP3 MSTORE PUSH1 0x11 DUP2 MSTORE PUSH1 0x20 ADD DUP1 PUSH32 0x4F776E6572206D75737420626520736574000000000000000000000000000000 DUP2 MSTORE POP PUSH1 0x20 ADD SWAP2 POP POP PUSH1 0x40 MLOAD DUP1 SWAP2 SUB SWAP1 REVERT JUMPDEST DUP2 PUSH1 0x5 PUSH1 0x1 PUSH2 0x100 EXP DUP2 PUSH3 0x31F PUSH3 0x44E JUMP JUMPDEST DUP2 PUSH20 0xFFFFFFFFFFFFFFFFFFFFFFFFFFFFFFFFFFFFFFFF MUL NOT AND SWAP1 DUP4 PUSH20 0xFFFFFFFFFFFFFFFFFFFFFFFFFFFFFFFFFFFFFFFF AND MUL OR SWAP1 PUSH3 0x35D PUSH3 0x414 JUMP JUMPDEST POP POP POP DUP1 PUSH1 0x6 PUSH1 0x0 PUSH2 0x100 EXP DUP2 PUSH3 0x374 PUSH3 0x44E JUMP JUMPDEST DUP2 PUSH20 0xFFFFFFFFFFFFFFFFFFFFFFFFFFFFFFFFFFFFFFFF MUL NOT AND SWAP1 DUP4 PUSH20 0xFFFFFFFFFFFFFFFFFFFFFFFFFFFFFFFFFFFFFFFF AND MUL OR SWAP1 PUSH3 0x3B2 PUSH3 0x414 JUMP JUMPDEST POP POP POP DUP3 PUSH1 0x2 PUSH1 0x0 PUSH2 0x100 EXP DUP2 PUSH3 0x3C9 PUSH3 0x44E JUMP JUMPDEST DUP2 PUSH20 0xFFFFFFFFFFFFFFFFFFFFFFFFFFFFFFFFFFFFFFFF MUL NOT AND SWAP1 DUP4 PUSH20 0xFFFFFFFFFFFFFFFFFFFFFFFFFFFFFFFFFFFFFFFF AND MUL OR SWAP1 PUSH3 0x407 PUSH3 0x414 JUMP JUMPDEST POP POP POP POP POP POP POP PUSH3 0x486 JUMP JUMPDEST PUSH4 0x28DCB2A0 PUSH3 0x80000 DUP2 PUSH1 0xE0 SHL DUP2 MSTORE DUP4 PUSH1 0x4 DUP3 ADD MSTORE DUP5 PUSH1 0x24 DUP3 ADD MSTORE PUSH1 0x0 DUP2 PUSH1 0x44 DUP4 PUSH1 0x0 CALLER GAS CALL PUSH1 0x0 DUP2 EQ ISZERO PUSH3 0x449 JUMPI PUSH1 0x0 DUP1 REVERT JUMPDEST POP POP POP JUMP JUMPDEST PUSH4 0x20966208 PUSH3 0x80000 DUP2 PUSH1 0xE0 SHL DUP2 MSTORE DUP4 PUSH1 0x4 DUP3 ADD MSTORE PUSH1 0x20 DUP2 PUSH1 0x24 DUP4 PUSH1 0x0 CALLER GAS CALL PUSH1 0x0 DUP2 EQ ISZERO PUSH3 0x47D JUMPI PUSH1 0x0 DUP1 REVERT JUMPDEST DUP2 MLOAD SWAP5 POP POP POP POP JUMP JUMPDEST PUSH2 0x3304 DUP1 PUSH3 0x496 PUSH1 0x0 CODECOPY PUSH1 0x0 RETURN INVALID PUSH1 0x80 PUSH1 0x40 MSTORE CALLVALUE DUP1 ISZERO PUSH2 0x10 JUMPI PUSH1 0x0 DUP1 REVERT JUMPDEST POP PUSH1 0x4 CALLDATASIZE LT PUSH2 0x1E4 JUMPI PUSH1 0x0 CALLDATALOAD PUSH1 0xE0 SHR DUP1 PUSH4 0x72F702F3 GT PUSH2 0x10F JUMPI DUP1 PUSH4 0xA694FC3A GT PUSH2 0xA2 JUMPI DUP1 PUSH4 0xD1AF0C7D GT PUSH2 0x71 JUMPI DUP1 PUSH4 0xD1AF0C7D EQ PUSH2 0x755 JUMPI DUP1 PUSH4 0xDF136D65 EQ PUSH2 0x79F JUMPI DUP1 PUSH4 0xE9FAD8EE EQ PUSH2 0x7BD JUMPI DUP1 PUSH4 0xEBE2B12B EQ PUSH2 0x7C7 JUMPI PUSH2 0x1E4 JUMP JUMPDEST DUP1 PUSH4 0xA694FC3A EQ PUSH2 0x6BD JUMPI DUP1 PUSH4 0xC8F33C91 EQ PUSH2 0x6EB JUMPI DUP1 PUSH4 0xCC1A378F EQ PUSH2 0x709 JUMPI DUP1 PUSH4 0xCD3DAF9D EQ PUSH2 0x737 JUMPI PUSH2 0x1E4 JUMP JUMPDEST DUP1 PUSH4 0x8980F11F GT PUSH2 0xDE JUMPI DUP1 PUSH4 0x8980F11F EQ PUSH2 0x5AF JUMPI DUP1 PUSH4 0x8B876347 EQ PUSH2 0x5FD JUMPI DUP1 PUSH4 0x8DA5CB5B EQ PUSH2 0x655 JUMPI DUP1 PUSH4 0x91B4DED9 EQ PUSH2 0x69F JUMPI PUSH2 0x1E4 JUMP JUMPDEST DUP1 PUSH4 0x72F702F3 EQ PUSH2 0x51F JUMPI DUP1 PUSH4 0x79BA5097 EQ PUSH2 0x569 JUMPI DUP1 PUSH4 0x7B0A47EE EQ PUSH2 0x573 JUMPI DUP1 PUSH4 0x80FAA57D EQ PUSH2 0x591 JUMPI PUSH2 0x1E4 JUMP JUMPDEST DUP1 PUSH4 0x2E1A7D4D GT PUSH2 0x187 JUMPI DUP1 PUSH4 0x3FC6DF6E GT PUSH2 0x156 JUMPI DUP1 PUSH4 0x3FC6DF6E EQ PUSH2 0x411 JUMPI DUP1 PUSH4 0x53A47BB7 EQ PUSH2 0x45B JUMPI DUP1 PUSH4 0x5C975ABB EQ PUSH2 0x4A5 JUMPI DUP1 PUSH4 0x70A08231 EQ PUSH2 0x4C7 JUMPI PUSH2 0x1E4 JUMP JUMPDEST DUP1 PUSH4 0x2E1A7D4D EQ PUSH2 0x38D JUMPI DUP1 PUSH4 0x386A9525 EQ PUSH2 0x3BB JUMPI DUP1 PUSH4 0x3C6B16AB EQ PUSH2 0x3D9 JUMPI DUP1 PUSH4 0x3D18B912 EQ PUSH2 0x407 JUMPI PUSH2 0x1E4 JUMP JUMPDEST DUP1 PUSH4 0x16C38B3C GT PUSH2 0x1C3 JUMPI DUP1 PUSH4 0x16C38B3C EQ PUSH2 0x2DD JUMPI DUP1 PUSH4 0x18160DDD EQ PUSH2 0x30D JUMPI DUP1 PUSH4 0x19762143 EQ PUSH2 0x32B JUMPI DUP1 PUSH4 0x1C1F78EB EQ PUSH2 0x36F JUMPI PUSH2 0x1E4 JUMP JUMPDEST DUP1 PUSH3 0x8CC262 EQ PUSH2 0x1E9 JUMPI DUP1 PUSH4 0x700037D EQ PUSH2 0x241 JUMPI DUP1 PUSH4 0x1627540C EQ PUSH2 0x299 JUMPI JUMPDEST PUSH1 0x0 DUP1 REVERT JUMPDEST PUSH2 0x22B PUSH1 0x4 DUP1 CALLDATASIZE SUB PUSH1 0x20 DUP2 LT ISZERO PUSH2 0x1FF JUMPI PUSH1 0x0 DUP1 REVERT JUMPDEST DUP2 ADD SWAP1 DUP1 DUP1 CALLDATALOAD PUSH20 0xFFFFFFFFFFFFFFFFFFFFFFFFFFFFFFFFFFFFFFFF AND SWAP1 PUSH1 0x20 ADD SWAP1 SWAP3 SWAP2 SWAP1 POP POP POP PUSH2 0x7E5 JUMP JUMPDEST PUSH1 0x40 MLOAD DUP1 DUP3 DUP2 MSTORE PUSH1 0x20 ADD SWAP2 POP POP PUSH1 0x40 MLOAD DUP1 SWAP2 SUB SWAP1 RETURN JUMPDEST PUSH2 0x283 PUSH1 0x4 DUP1 CALLDATASIZE SUB PUSH1 0x20 DUP2 LT ISZERO PUSH2 0x257 JUMPI PUSH1 0x0 DUP1 REVERT JUMPDEST DUP2 ADD SWAP1 DUP1 DUP1 CALLDATALOAD PUSH20 0xFFFFFFFFFFFFFFFFFFFFFFFFFFFFFFFFFFFFFFFF AND SWAP1 PUSH1 0x20 ADD SWAP1 SWAP3 SWAP2 SWAP1 POP POP POP PUSH2 0x918 JUMP JUMPDEST PUSH1 0x40 MLOAD DUP1 DUP3 DUP2 MSTORE PUSH1 0x20 ADD SWAP2 POP POP PUSH1 0x40 MLOAD DUP1 SWAP2 SUB SWAP1 RETURN JUMPDEST PUSH2 0x2DB PUSH1 0x4 DUP1 CALLDATASIZE SUB PUSH1 0x20 DUP2 LT ISZERO PUSH2 0x2AF JUMPI PUSH1 0x0 DUP1 REVERT JUMPDEST DUP2 ADD SWAP1 DUP1 DUP1 CALLDATALOAD PUSH20 0xFFFFFFFFFFFFFFFFFFFFFFFFFFFFFFFFFFFFFFFF AND SWAP1 PUSH1 0x20 ADD SWAP1 SWAP3 SWAP2 SWAP1 POP POP POP PUSH2 0x937 JUMP JUMPDEST STOP JUMPDEST PUSH2 0x30B PUSH1 0x4 DUP1 CALLDATASIZE SUB PUSH1 0x20 DUP2 LT ISZERO PUSH2 0x2F3 JUMPI PUSH1 0x0 DUP1 REVERT JUMPDEST DUP2 ADD SWAP1 DUP1 DUP1 CALLDATALOAD ISZERO ISZERO SWAP1 PUSH1 0x20 ADD SWAP1 SWAP3 SWAP2 SWAP1 POP POP POP PUSH2 0xAA2 JUMP JUMPDEST STOP JUMPDEST PUSH2 0x315 PUSH2 0xC31 JUMP JUMPDEST PUSH1 0x40 MLOAD DUP1 DUP3 DUP2 MSTORE PUSH1 0x20 ADD SWAP2 POP POP PUSH1 0x40 MLOAD DUP1 SWAP2 SUB SWAP1 RETURN JUMPDEST PUSH2 0x36D PUSH1 0x4 DUP1 CALLDATASIZE SUB PUSH1 0x20 DUP2 LT ISZERO PUSH2 0x341 JUMPI PUSH1 0x0 DUP1 REVERT JUMPDEST DUP2 ADD SWAP1 DUP1 DUP1 CALLDATALOAD PUSH20 0xFFFFFFFFFFFFFFFFFFFFFFFFFFFFFFFFFFFFFFFF AND SWAP1 PUSH1 0x20 ADD SWAP1 SWAP3 SWAP2 SWAP1 POP POP POP PUSH2 0xC42 JUMP JUMPDEST STOP JUMPDEST PUSH2 0x377 PUSH2 0xD4A JUMP JUMPDEST PUSH1 0x40 MLOAD DUP1 DUP3 DUP2 MSTORE PUSH1 0x20 ADD SWAP2 POP POP PUSH1 0x40 MLOAD DUP1 SWAP2 SUB SWAP1 RETURN JUMPDEST PUSH2 0x3B9 PUSH1 0x4 DUP1 CALLDATASIZE SUB PUSH1 0x20 DUP2 LT ISZERO PUSH2 0x3A3 JUMPI PUSH1 0x0 DUP1 REVERT JUMPDEST DUP2 ADD SWAP1 DUP1 DUP1 CALLDATALOAD SWAP1 PUSH1 0x20 ADD SWAP1 SWAP3 SWAP2 SWAP1 POP POP POP PUSH2 0xD76 JUMP JUMPDEST STOP JUMPDEST PUSH2 0x3C3 PUSH2 0x1147 JUMP JUMPDEST PUSH1 0x40 MLOAD DUP1 DUP3 DUP2 MSTORE PUSH1 0x20 ADD SWAP2 POP POP PUSH1 0x40 MLOAD DUP1 SWAP2 SUB SWAP1 RETURN JUMPDEST PUSH2 0x405 PUSH1 0x4 DUP1 CALLDATASIZE SUB PUSH1 0x20 DUP2 LT ISZERO PUSH2 0x3EF JUMPI PUSH1 0x0 DUP1 REVERT JUMPDEST DUP2 ADD SWAP1 DUP1 DUP1 CALLDATALOAD SWAP1 PUSH1 0x20 ADD SWAP1 SWAP3 SWAP2 SWAP1 POP POP POP PUSH2 0x1154 JUMP JUMPDEST STOP JUMPDEST PUSH2 0x40F PUSH2 0x1631 JUMP JUMPDEST STOP JUMPDEST PUSH2 0x419 PUSH2 0x195F JUMP JUMPDEST PUSH1 0x40 MLOAD DUP1 DUP3 PUSH20 0xFFFFFFFFFFFFFFFFFFFFFFFFFFFFFFFFFFFFFFFF AND PUSH20 0xFFFFFFFFFFFFFFFFFFFFFFFFFFFFFFFFFFFFFFFF AND DUP2 MSTORE PUSH1 0x20 ADD SWAP2 POP POP PUSH1 0x40 MLOAD DUP1 SWAP2 SUB SWAP1 RETURN JUMPDEST PUSH2 0x463 PUSH2 0x198C JUMP JUMPDEST PUSH1 0x40 MLOAD DUP1 DUP3 PUSH20 0xFFFFFFFFFFFFFFFFFFFFFFFFFFFFFFFFFFFFFFFF AND PUSH20 0xFFFFFFFFFFFFFFFFFFFFFFFFFFFFFFFFFFFFFFFF AND DUP2 MSTORE PUSH1 0x20 ADD SWAP2 POP POP PUSH1 0x40 MLOAD DUP1 SWAP2 SUB SWAP1 RETURN JUMPDEST PUSH2 0x4AD PUSH2 0x19B9 JUMP JUMPDEST PUSH1 0x40 MLOAD DUP1 DUP3 ISZERO ISZERO ISZERO ISZERO DUP2 MSTORE PUSH1 0x20 ADD SWAP2 POP POP PUSH1 0x40 MLOAD DUP1 SWAP2 SUB SWAP1 RETURN JUMPDEST PUSH2 0x509 PUSH1 0x4 DUP1 CALLDATASIZE SUB PUSH1 0x20 DUP2 LT ISZERO PUSH2 0x4DD JUMPI PUSH1 0x0 DUP1 REVERT JUMPDEST DUP2 ADD SWAP1 DUP1 DUP1 CALLDATALOAD PUSH20 0xFFFFFFFFFFFFFFFFFFFFFFFFFFFFFFFFFFFFFFFF AND SWAP1 PUSH1 0x20 ADD SWAP1 SWAP3 SWAP2 SWAP1 POP POP POP PUSH2 0x19D3 JUMP JUMPDEST PUSH1 0x40 MLOAD DUP1 DUP3 DUP2 MSTORE PUSH1 0x20 ADD SWAP2 POP POP PUSH1 0x40 MLOAD DUP1 SWAP2 SUB SWAP1 RETURN JUMPDEST PUSH2 0x527 PUSH2 0x1A23 JUMP JUMPDEST PUSH1 0x40 MLOAD DUP1 DUP3 PUSH20 0xFFFFFFFFFFFFFFFFFFFFFFFFFFFFFFFFFFFFFFFF AND PUSH20 0xFFFFFFFFFFFFFFFFFFFFFFFFFFFFFFFFFFFFFFFF AND DUP2 MSTORE PUSH1 0x20 ADD SWAP2 POP POP PUSH1 0x40 MLOAD DUP1 SWAP2 SUB SWAP1 RETURN JUMPDEST PUSH2 0x571 PUSH2 0x1A50 JUMP JUMPDEST STOP JUMPDEST PUSH2 0x57B PUSH2 0x1CBA JUMP JUMPDEST PUSH1 0x40 MLOAD DUP1 DUP3 DUP2 MSTORE PUSH1 0x20 ADD SWAP2 POP POP PUSH1 0x40 MLOAD DUP1 SWAP2 SUB SWAP1 RETURN JUMPDEST PUSH2 0x599 PUSH2 0x1CC7 JUMP JUMPDEST PUSH1 0x40 MLOAD DUP1 DUP3 DUP2 MSTORE PUSH1 0x20 ADD SWAP2 POP POP PUSH1 0x40 MLOAD DUP1 SWAP2 SUB SWAP1 RETURN JUMPDEST PUSH2 0x5FB PUSH1 0x4 DUP1 CALLDATASIZE SUB PUSH1 0x40 DUP2 LT ISZERO PUSH2 0x5C5 JUMPI PUSH1 0x0 DUP1 REVERT JUMPDEST DUP2 ADD SWAP1 DUP1 DUP1 CALLDATALOAD PUSH20 0xFFFFFFFFFFFFFFFFFFFFFFFFFFFFFFFFFFFFFFFF AND SWAP1 PUSH1 0x20 ADD SWAP1 SWAP3 SWAP2 SWAP1 DUP1 CALLDATALOAD SWAP1 PUSH1 0x20 ADD SWAP1 SWAP3 SWAP2 SWAP1 POP POP POP PUSH2 0x1CE9 JUMP JUMPDEST STOP JUMPDEST PUSH2 0x63F PUSH1 0x4 DUP1 CALLDATASIZE SUB PUSH1 0x20 DUP2 LT ISZERO PUSH2 0x613 JUMPI PUSH1 0x0 DUP1 REVERT JUMPDEST DUP2 ADD SWAP1 DUP1 DUP1 CALLDATALOAD PUSH20 0xFFFFFFFFFFFFFFFFFFFFFFFFFFFFFFFFFFFFFFFF AND SWAP1 PUSH1 0x20 ADD SWAP1 SWAP3 SWAP2 SWAP1 POP POP POP PUSH2 0x2114 JUMP JUMPDEST PUSH1 0x40 MLOAD DUP1 DUP3 DUP2 MSTORE PUSH1 0x20 ADD SWAP2 POP POP PUSH1 0x40 MLOAD DUP1 SWAP2 SUB SWAP1 RETURN JUMPDEST PUSH2 0x65D PUSH2 0x2133 JUMP JUMPDEST PUSH1 0x40 MLOAD DUP1 DUP3 PUSH20 0xFFFFFFFFFFFFFFFFFFFFFFFFFFFFFFFFFFFFFFFF AND PUSH20 0xFFFFFFFFFFFFFFFFFFFFFFFFFFFFFFFFFFFFFFFF AND DUP2 MSTORE PUSH1 0x20 ADD SWAP2 POP POP PUSH1 0x40 MLOAD DUP1 SWAP2 SUB SWAP1 RETURN JUMPDEST PUSH2 0x6A7 PUSH2 0x215F JUMP JUMPDEST PUSH1 0x40 MLOAD DUP1 DUP3 DUP2 MSTORE PUSH1 0x20 ADD SWAP2 POP POP PUSH1 0x40 MLOAD DUP1 SWAP2 SUB SWAP1 RETURN JUMPDEST PUSH2 0x6E9 PUSH1 0x4 DUP1 CALLDATASIZE SUB PUSH1 0x20 DUP2 LT ISZERO PUSH2 0x6D3 JUMPI PUSH1 0x0 DUP1 REVERT JUMPDEST DUP2 ADD SWAP1 DUP1 DUP1 CALLDATALOAD SWAP1 PUSH1 0x20 ADD SWAP1 SWAP3 SWAP2 SWAP1 POP POP POP PUSH2 0x216C JUMP JUMPDEST STOP JUMPDEST PUSH2 0x6F3 PUSH2 0x25DB JUMP JUMPDEST PUSH1 0x40 MLOAD DUP1 DUP3 DUP2 MSTORE PUSH1 0x20 ADD SWAP2 POP POP PUSH1 0x40 MLOAD DUP1 SWAP2 SUB SWAP1 RETURN JUMPDEST PUSH2 0x735 PUSH1 0x4 DUP1 CALLDATASIZE SUB PUSH1 0x20 DUP2 LT ISZERO PUSH2 0x71F JUMPI PUSH1 0x0 DUP1 REVERT JUMPDEST DUP2 ADD SWAP1 DUP1 DUP1 CALLDATALOAD SWAP1 PUSH1 0x20 ADD SWAP1 SWAP3 SWAP2 SWAP1 POP POP POP PUSH2 0x25E8 JUMP JUMPDEST STOP JUMPDEST PUSH2 0x73F PUSH2 0x276C JUMP JUMPDEST PUSH1 0x40 MLOAD DUP1 DUP3 DUP2 MSTORE PUSH1 0x20 ADD SWAP2 POP POP PUSH1 0x40 MLOAD DUP1 SWAP2 SUB SWAP1 RETURN JUMPDEST PUSH2 0x75D PUSH2 0x2824 JUMP JUMPDEST PUSH1 0x40 MLOAD DUP1 DUP3 PUSH20 0xFFFFFFFFFFFFFFFFFFFFFFFFFFFFFFFFFFFFFFFF AND PUSH20 0xFFFFFFFFFFFFFFFFFFFFFFFFFFFFFFFFFFFFFFFF AND DUP2 MSTORE PUSH1 0x20 ADD SWAP2 POP POP PUSH1 0x40 MLOAD DUP1 SWAP2 SUB SWAP1 RETURN JUMPDEST PUSH2 0x7A7 PUSH2 0x2851 JUMP JUMPDEST PUSH1 0x40 MLOAD DUP1 DUP3 DUP2 MSTORE PUSH1 0x20 ADD SWAP2 POP POP PUSH1 0x40 MLOAD DUP1 SWAP2 SUB SWAP1 RETURN JUMPDEST PUSH2 0x7C5 PUSH2 0x285E JUMP JUMPDEST STOP JUMPDEST PUSH2 0x7CF PUSH2 0x28BF JUMP JUMPDEST PUSH1 0x40 MLOAD DUP1 DUP3 DUP2 MSTORE PUSH1 0x20 ADD SWAP2 POP POP PUSH1 0x40 MLOAD DUP1 SWAP2 SUB SWAP1 RETURN JUMPDEST PUSH1 0x0 PUSH2 0x911 PUSH1 0xD PUSH1 0x0 DUP5 PUSH20 0xFFFFFFFFFFFFFFFFFFFFFFFFFFFFFFFFFFFFFFFF AND PUSH20 0xFFFFFFFFFFFFFFFFFFFFFFFFFFFFFFFFFFFFFFFF AND DUP2 MSTORE PUSH1 0x20 ADD SWAP1 DUP2 MSTORE PUSH1 0x20 ADD PUSH1 0x0 KECCAK256 PUSH2 0x831 PUSH2 0x2F54 JUMP JUMPDEST PUSH2 0x903 PUSH8 0xDE0B6B3A7640000 PUSH2 0x8F5 PUSH2 0x8A0 PUSH1 0xC PUSH1 0x0 DUP10 PUSH20 0xFFFFFFFFFFFFFFFFFFFFFFFFFFFFFFFFFFFFFFFF AND PUSH20 0xFFFFFFFFFFFFFFFFFFFFFFFFFFFFFFFFFFFFFFFF AND DUP2 MSTORE PUSH1 0x20 ADD SWAP1 DUP2 MSTORE PUSH1 0x20 ADD PUSH1 0x0 KECCAK256 PUSH2 0x88A PUSH2 0x2F54 JUMP JUMPDEST PUSH2 0x892 PUSH2 0x276C JUMP JUMPDEST PUSH2 0x28CC SWAP1 SWAP2 SWAP1 PUSH4 0xFFFFFFFF AND JUMP JUMPDEST PUSH1 0xF PUSH1 0x0 DUP10 PUSH20 0xFFFFFFFFFFFFFFFFFFFFFFFFFFFFFFFFFFFFFFFF AND PUSH20 0xFFFFFFFFFFFFFFFFFFFFFFFFFFFFFFFFFFFFFFFF AND DUP2 MSTORE PUSH1 0x20 ADD SWAP1 DUP2 MSTORE PUSH1 0x20 ADD PUSH1 0x0 KECCAK256 PUSH2 0x8E7 PUSH2 0x2F54 JUMP JUMPDEST PUSH2 0x2955 SWAP1 SWAP2 SWAP1 PUSH4 0xFFFFFFFF AND JUMP JUMPDEST PUSH2 0x29DB SWAP1 SWAP2 SWAP1 PUSH4 0xFFFFFFFF AND JUMP JUMPDEST PUSH2 0x2A6A SWAP1 SWAP2 SWAP1 PUSH4 0xFFFFFFFF AND JUMP JUMPDEST SWAP1 POP SWAP2 SWAP1 POP JUMP JUMPDEST PUSH1 0xD PUSH1 0x20 MSTORE DUP1 PUSH1 0x0 MSTORE PUSH1 0x40 PUSH1 0x0 KECCAK256 PUSH1 0x0 SWAP2 POP SWAP1 POP PUSH2 0x934 PUSH2 0x2F54 JUMP JUMPDEST DUP2 JUMP JUMPDEST PUSH1 0x0 DUP1 SWAP1 PUSH2 0x943 PUSH2 0x2F54 JUMP JUMPDEST SWAP1 PUSH2 0x100 EXP SWAP1 DIV PUSH20 0xFFFFFFFFFFFFFFFFFFFFFFFFFFFFFFFFFFFFFFFF AND PUSH20 0xFFFFFFFFFFFFFFFFFFFFFFFFFFFFFFFFFFFFFFFF AND GAS PUSH2 0x97F PUSH2 0x2F8B JUMP JUMPDEST PUSH20 0xFFFFFFFFFFFFFFFFFFFFFFFFFFFFFFFFFFFFFFFF AND EQ PUSH2 0x9EB JUMPI PUSH1 0x40 MLOAD PUSH32 0x8C379A000000000000000000000000000000000000000000000000000000000 DUP2 MSTORE PUSH1 0x4 ADD DUP1 DUP1 PUSH1 0x20 ADD DUP3 DUP2 SUB DUP3 MSTORE PUSH1 0x2F DUP2 MSTORE PUSH1 0x20 ADD DUP1 PUSH2 0x319D PUSH1 0x2F SWAP2 CODECOPY PUSH1 0x40 ADD SWAP2 POP POP PUSH1 0x40 MLOAD DUP1 SWAP2 SUB SWAP1 REVERT JUMPDEST DUP1 PUSH1 0x1 PUSH1 0x0 PUSH2 0x100 EXP DUP2 PUSH2 0x9FD PUSH2 0x2F54 JUMP JUMPDEST DUP2 PUSH20 0xFFFFFFFFFFFFFFFFFFFFFFFFFFFFFFFFFFFFFFFF MUL NOT AND SWAP1 DUP4 PUSH20 0xFFFFFFFFFFFFFFFFFFFFFFFFFFFFFFFFFFFFFFFF AND MUL OR SWAP1 PUSH2 0xA39 PUSH2 0x2FBC JUMP JUMPDEST POP POP POP PUSH32 0x906A1C6BD7E3091EA86693DD029A831C19049CE77F1DCE2CE0BAB1CACBABCE22 DUP2 PUSH1 0x40 MLOAD DUP1 DUP3 PUSH20 0xFFFFFFFFFFFFFFFFFFFFFFFFFFFFFFFFFFFFFFFF AND PUSH20 0xFFFFFFFFFFFFFFFFFFFFFFFFFFFFFFFFFFFFFFFF AND DUP2 MSTORE PUSH1 0x20 ADD SWAP2 POP POP PUSH1 0x40 MLOAD DUP1 SWAP2 SUB SWAP1 LOG1 POP JUMP JUMPDEST PUSH1 0x0 DUP1 SWAP1 PUSH2 0xAAE PUSH2 0x2F54 JUMP JUMPDEST SWAP1 PUSH2 0x100 EXP SWAP1 DIV PUSH20 0xFFFFFFFFFFFFFFFFFFFFFFFFFFFFFFFFFFFFFFFF AND PUSH20 0xFFFFFFFFFFFFFFFFFFFFFFFFFFFFFFFFFFFFFFFF AND GAS PUSH2 0xAEA PUSH2 0x2F8B JUMP JUMPDEST PUSH20 0xFFFFFFFFFFFFFFFFFFFFFFFFFFFFFFFFFFFFFFFF AND EQ PUSH2 0xB56 JUMPI PUSH1 0x40 MLOAD PUSH32 0x8C379A000000000000000000000000000000000000000000000000000000000 DUP2 MSTORE PUSH1 0x4 ADD DUP1 DUP1 PUSH1 0x20 ADD DUP3 DUP2 SUB DUP3 MSTORE PUSH1 0x2F DUP2 MSTORE PUSH1 0x20 ADD DUP1 PUSH2 0x319D PUSH1 0x2F SWAP2 CODECOPY PUSH1 0x40 ADD SWAP2 POP POP PUSH1 0x40 MLOAD DUP1 SWAP2 SUB SWAP1 REVERT JUMPDEST PUSH1 0x5 PUSH1 0x0 SWAP1 PUSH2 0xB63 PUSH2 0x2F54 JUMP JUMPDEST SWAP1 PUSH2 0x100 EXP SWAP1 DIV PUSH1 0xFF AND ISZERO ISZERO DUP2 ISZERO ISZERO EQ ISZERO PUSH2 0xB7D JUMPI PUSH2 0xC2E JUMP JUMPDEST DUP1 PUSH1 0x5 PUSH1 0x0 PUSH2 0x100 EXP DUP2 PUSH2 0xB8F PUSH2 0x2F54 JUMP JUMPDEST DUP2 PUSH1 0xFF MUL NOT AND SWAP1 DUP4 ISZERO ISZERO MUL OR SWAP1 PUSH2 0xBA4 PUSH2 0x2FBC JUMP JUMPDEST POP POP POP PUSH1 0x5 PUSH1 0x0 SWAP1 PUSH2 0xBB4 PUSH2 0x2F54 JUMP JUMPDEST SWAP1 PUSH2 0x100 EXP SWAP1 DIV PUSH1 0xFF AND ISZERO PUSH2 0xBDC JUMPI GAS PUSH2 0xBCC PUSH2 0x2FF5 JUMP JUMPDEST PUSH1 0x4 DUP2 SWAP1 PUSH2 0xBD8 PUSH2 0x2FBC JUMP JUMPDEST POP POP POP JUMPDEST PUSH32 0x8FB6C181EE25A520CF3DD6565006EF91229FCFE5A989566C2A3B8C115570CEC5 PUSH1 0x5 PUSH1 0x0 SWAP1 PUSH2 0xC0A PUSH2 0x2F54 JUMP JUMPDEST SWAP1 PUSH2 0x100 EXP SWAP1 DIV PUSH1 0xFF AND PUSH1 0x40 MLOAD DUP1 DUP3 ISZERO ISZERO ISZERO ISZERO DUP2 MSTORE PUSH1 0x20 ADD SWAP2 POP POP PUSH1 0x40 MLOAD DUP1 SWAP2 SUB SWAP1 LOG1 JUMPDEST POP JUMP JUMPDEST PUSH1 0x0 PUSH1 0xE PUSH2 0xC3D PUSH2 0x2F54 JUMP JUMPDEST SWAP1 POP SWAP1 JUMP JUMPDEST PUSH1 0x0 DUP1 SWAP1 PUSH2 0xC4E PUSH2 0x2F54 JUMP JUMPDEST SWAP1 PUSH2 0x100 EXP SWAP1 DIV PUSH20 0xFFFFFFFFFFFFFFFFFFFFFFFFFFFFFFFFFFFFFFFF AND PUSH20 0xFFFFFFFFFFFFFFFFFFFFFFFFFFFFFFFFFFFFFFFF AND GAS PUSH2 0xC8A PUSH2 0x2F8B JUMP JUMPDEST PUSH20 0xFFFFFFFFFFFFFFFFFFFFFFFFFFFFFFFFFFFFFFFF AND EQ PUSH2 0xCF6 JUMPI PUSH1 0x40 MLOAD PUSH32 0x8C379A000000000000000000000000000000000000000000000000000000000 DUP2 MSTORE PUSH1 0x4 ADD DUP1 DUP1 PUSH1 0x20 ADD DUP3 DUP2 SUB DUP3 MSTORE PUSH1 0x2F DUP2 MSTORE PUSH1 0x20 ADD DUP1 PUSH2 0x319D PUSH1 0x2F SWAP2 CODECOPY PUSH1 0x40 ADD SWAP2 POP POP PUSH1 0x40 MLOAD DUP1 SWAP2 SUB SWAP1 REVERT JUMPDEST DUP1 PUSH1 0x2 PUSH1 0x0 PUSH2 0x100 EXP DUP2 PUSH2 0xD08 PUSH2 0x2F54 JUMP JUMPDEST DUP2 PUSH20 0xFFFFFFFFFFFFFFFFFFFFFFFFFFFFFFFFFFFFFFFF MUL NOT AND SWAP1 DUP4 PUSH20 0xFFFFFFFFFFFFFFFFFFFFFFFFFFFFFFFFFFFFFFFF AND MUL OR SWAP1 PUSH2 0xD44 PUSH2 0x2FBC JUMP JUMPDEST POP POP POP POP JUMP JUMPDEST PUSH1 0x0 PUSH2 0xD71 PUSH1 0x9 PUSH2 0xD59 PUSH2 0x2F54 JUMP JUMPDEST PUSH1 0x8 PUSH2 0xD63 PUSH2 0x2F54 JUMP JUMPDEST PUSH2 0x2955 SWAP1 SWAP2 SWAP1 PUSH4 0xFFFFFFFF AND JUMP JUMPDEST SWAP1 POP SWAP1 JUMP JUMPDEST PUSH1 0x1 PUSH1 0x3 PUSH1 0x0 DUP3 DUP3 PUSH2 0xD86 PUSH2 0x2F54 JUMP JUMPDEST ADD SWAP3 POP POP DUP2 SWAP1 PUSH2 0xD94 PUSH2 0x2FBC JUMP JUMPDEST POP POP POP PUSH1 0x0 PUSH1 0x3 PUSH2 0xDA3 PUSH2 0x2F54 JUMP JUMPDEST SWAP1 POP GAS PUSH2 0xDAE PUSH2 0x2F8B JUMP JUMPDEST PUSH2 0xDB6 PUSH2 0x276C JUMP JUMPDEST PUSH1 0xB DUP2 SWAP1 PUSH2 0xDC2 PUSH2 0x2FBC JUMP JUMPDEST POP POP POP PUSH2 0xDCD PUSH2 0x1CC7 JUMP JUMPDEST PUSH1 0xA DUP2 SWAP1 PUSH2 0xDD9 PUSH2 0x2FBC JUMP JUMPDEST POP POP POP PUSH1 0x0 PUSH20 0xFFFFFFFFFFFFFFFFFFFFFFFFFFFFFFFFFFFFFFFF AND DUP2 PUSH20 0xFFFFFFFFFFFFFFFFFFFFFFFFFFFFFFFFFFFFFFFF AND EQ PUSH2 0xEBC JUMPI PUSH2 0xE19 DUP2 PUSH2 0x7E5 JUMP JUMPDEST PUSH1 0xD PUSH1 0x0 DUP4 PUSH20 0xFFFFFFFFFFFFFFFFFFFFFFFFFFFFFFFFFFFFFFFF AND PUSH20 0xFFFFFFFFFFFFFFFFFFFFFFFFFFFFFFFFFFFFFFFF AND DUP2 MSTORE PUSH1 0x20 ADD SWAP1 DUP2 MSTORE PUSH1 0x20 ADD PUSH1 0x0 KECCAK256 DUP2 SWAP1 PUSH2 0xE62 PUSH2 0x2FBC JUMP JUMPDEST POP POP POP PUSH1 0xB PUSH2 0xE6F PUSH2 0x2F54 JUMP JUMPDEST PUSH1 0xC PUSH1 0x0 DUP4 PUSH20 0xFFFFFFFFFFFFFFFFFFFFFFFFFFFFFFFFFFFFFFFF AND PUSH20 0xFFFFFFFFFFFFFFFFFFFFFFFFFFFFFFFFFFFFFFFF AND DUP2 MSTORE PUSH1 0x20 ADD SWAP1 DUP2 MSTORE PUSH1 0x20 ADD PUSH1 0x0 KECCAK256 DUP2 SWAP1 PUSH2 0xEB8 PUSH2 0x2FBC JUMP JUMPDEST POP POP POP JUMPDEST PUSH1 0x0 DUP4 GT PUSH2 0xF32 JUMPI PUSH1 0x40 MLOAD PUSH32 0x8C379A000000000000000000000000000000000000000000000000000000000 DUP2 MSTORE PUSH1 0x4 ADD DUP1 DUP1 PUSH1 0x20 ADD DUP3 DUP2 SUB DUP3 MSTORE PUSH1 0x11 DUP2 MSTORE PUSH1 0x20 ADD DUP1 PUSH32 0x43616E6E6F742077697468647261772030000000000000000000000000000000 DUP2 MSTORE POP PUSH1 0x20 ADD SWAP2 POP POP PUSH1 0x40 MLOAD DUP1 SWAP2 SUB SWAP1 REVERT JUMPDEST PUSH2 0xF4E DUP4 PUSH1 0xE PUSH2 0xF40 PUSH2 0x2F54 JUMP JUMPDEST PUSH2 0x28CC SWAP1 SWAP2 SWAP1 PUSH4 0xFFFFFFFF AND JUMP JUMPDEST PUSH1 0xE DUP2 SWAP1 PUSH2 0xF5A PUSH2 0x2FBC JUMP JUMPDEST POP POP POP PUSH2 0xFBE DUP4 PUSH1 0xF PUSH1 0x0 GAS PUSH2 0xF6E PUSH2 0x2F8B JUMP JUMPDEST PUSH20 0xFFFFFFFFFFFFFFFFFFFFFFFFFFFFFFFFFFFFFFFF AND PUSH20 0xFFFFFFFFFFFFFFFFFFFFFFFFFFFFFFFFFFFFFFFF AND DUP2 MSTORE PUSH1 0x20 ADD SWAP1 DUP2 MSTORE PUSH1 0x20 ADD PUSH1 0x0 KECCAK256 PUSH2 0xFB0 PUSH2 0x2F54 JUMP JUMPDEST PUSH2 0x28CC SWAP1 SWAP2 SWAP1 PUSH4 0xFFFFFFFF AND JUMP JUMPDEST PUSH1 0xF PUSH1 0x0 GAS PUSH2 0xFCB PUSH2 0x2F8B JUMP JUMPDEST PUSH20 0xFFFFFFFFFFFFFFFFFFFFFFFFFFFFFFFFFFFFFFFF AND PUSH20 0xFFFFFFFFFFFFFFFFFFFFFFFFFFFFFFFFFFFFFFFF AND DUP2 MSTORE PUSH1 0x20 ADD SWAP1 DUP2 MSTORE PUSH1 0x20 ADD PUSH1 0x0 KECCAK256 DUP2 SWAP1 PUSH2 0x100F PUSH2 0x2FBC JUMP JUMPDEST POP POP POP PUSH2 0x106E GAS PUSH2 0x101E PUSH2 0x2F8B JUMP JUMPDEST DUP5 PUSH1 0x6 PUSH1 0x0 SWAP1 PUSH2 0x102C PUSH2 0x2F54 JUMP JUMPDEST SWAP1 PUSH2 0x100 EXP SWAP1 DIV PUSH20 0xFFFFFFFFFFFFFFFFFFFFFFFFFFFFFFFFFFFFFFFF AND PUSH20 0xFFFFFFFFFFFFFFFFFFFFFFFFFFFFFFFFFFFFFFFF AND PUSH2 0x2AF2 SWAP1 SWAP3 SWAP2 SWAP1 PUSH4 0xFFFFFFFF AND JUMP JUMPDEST GAS PUSH2 0x1077 PUSH2 0x2F8B JUMP JUMPDEST PUSH20 0xFFFFFFFFFFFFFFFFFFFFFFFFFFFFFFFFFFFFFFFF AND PUSH32 0x7084F5476618D8E60B11EF0D7D3F06914655ADB8793E28FF7F018D4C76D505D5 DUP5 PUSH1 0x40 MLOAD DUP1 DUP3 DUP2 MSTORE PUSH1 0x20 ADD SWAP2 POP POP PUSH1 0x40 MLOAD DUP1 SWAP2 SUB SWAP1 LOG2 POP PUSH1 0x3 PUSH2 0x10CF PUSH2 0x2F54 JUMP JUMPDEST DUP2 EQ PUSH2 0x1143 JUMPI PUSH1 0x40 MLOAD PUSH32 0x8C379A000000000000000000000000000000000000000000000000000000000 DUP2 MSTORE PUSH1 0x4 ADD DUP1 DUP1 PUSH1 0x20 ADD DUP3 DUP2 SUB DUP3 MSTORE PUSH1 0x1F DUP2 MSTORE PUSH1 0x20 ADD DUP1 PUSH32 0x5265656E7472616E637947756172643A207265656E7472616E742063616C6C00 DUP2 MSTORE POP PUSH1 0x20 ADD SWAP2 POP POP PUSH1 0x40 MLOAD DUP1 SWAP2 SUB SWAP1 REVERT JUMPDEST POP POP JUMP JUMPDEST PUSH1 0x9 PUSH2 0x1151 PUSH2 0x2F54 JUMP JUMPDEST DUP2 JUMP JUMPDEST PUSH1 0x2 PUSH1 0x0 SWAP1 PUSH2 0x1161 PUSH2 0x2F54 JUMP JUMPDEST SWAP1 PUSH2 0x100 EXP SWAP1 DIV PUSH20 0xFFFFFFFFFFFFFFFFFFFFFFFFFFFFFFFFFFFFFFFF AND PUSH20 0xFFFFFFFFFFFFFFFFFFFFFFFFFFFFFFFFFFFFFFFF AND GAS PUSH2 0x119D PUSH2 0x2F8B JUMP JUMPDEST PUSH20 0xFFFFFFFFFFFFFFFFFFFFFFFFFFFFFFFFFFFFFFFF AND EQ PUSH2 0x1209 JUMPI PUSH1 0x40 MLOAD PUSH32 0x8C379A000000000000000000000000000000000000000000000000000000000 DUP2 MSTORE PUSH1 0x4 ADD DUP1 DUP1 PUSH1 0x20 ADD DUP3 DUP2 SUB DUP3 MSTORE PUSH1 0x2A DUP2 MSTORE PUSH1 0x20 ADD DUP1 PUSH2 0x3256 PUSH1 0x2A SWAP2 CODECOPY PUSH1 0x40 ADD SWAP2 POP POP PUSH1 0x40 MLOAD DUP1 SWAP2 SUB SWAP1 REVERT JUMPDEST PUSH1 0x0 PUSH2 0x1213 PUSH2 0x276C JUMP JUMPDEST PUSH1 0xB DUP2 SWAP1 PUSH2 0x121F PUSH2 0x2FBC JUMP JUMPDEST POP POP POP PUSH2 0x122A PUSH2 0x1CC7 JUMP JUMPDEST PUSH1 0xA DUP2 SWAP1 PUSH2 0x1236 PUSH2 0x2FBC JUMP JUMPDEST POP POP POP PUSH1 0x0 PUSH20 0xFFFFFFFFFFFFFFFFFFFFFFFFFFFFFFFFFFFFFFFF AND DUP2 PUSH20 0xFFFFFFFFFFFFFFFFFFFFFFFFFFFFFFFFFFFFFFFF AND EQ PUSH2 0x1319 JUMPI PUSH2 0x1276 DUP2 PUSH2 0x7E5 JUMP JUMPDEST PUSH1 0xD PUSH1 0x0 DUP4 PUSH20 0xFFFFFFFFFFFFFFFFFFFFFFFFFFFFFFFFFFFFFFFF AND PUSH20 0xFFFFFFFFFFFFFFFFFFFFFFFFFFFFFFFFFFFFFFFF AND DUP2 MSTORE PUSH1 0x20 ADD SWAP1 DUP2 MSTORE PUSH1 0x20 ADD PUSH1 0x0 KECCAK256 DUP2 SWAP1 PUSH2 0x12BF PUSH2 0x2FBC JUMP JUMPDEST POP POP POP PUSH1 0xB PUSH2 0x12CC PUSH2 0x2F54 JUMP JUMPDEST PUSH1 0xC PUSH1 0x0 DUP4 PUSH20 0xFFFFFFFFFFFFFFFFFFFFFFFFFFFFFFFFFFFFFFFF AND PUSH20 0xFFFFFFFFFFFFFFFFFFFFFFFFFFFFFFFFFFFFFFFF AND DUP2 MSTORE PUSH1 0x20 ADD SWAP1 DUP2 MSTORE PUSH1 0x20 ADD PUSH1 0x0 KECCAK256 DUP2 SWAP1 PUSH2 0x1315 PUSH2 0x2FBC JUMP JUMPDEST POP POP POP JUMPDEST PUSH1 0x7 PUSH2 0x1323 PUSH2 0x2F54 JUMP JUMPDEST GAS PUSH2 0x132C PUSH2 0x2FF5 JUMP JUMPDEST LT PUSH2 0x1361 JUMPI PUSH2 0x134D PUSH1 0x9 PUSH2 0x133E PUSH2 0x2F54 JUMP JUMPDEST DUP4 PUSH2 0x29DB SWAP1 SWAP2 SWAP1 PUSH4 0xFFFFFFFF AND JUMP JUMPDEST PUSH1 0x8 DUP2 SWAP1 PUSH2 0x1359 PUSH2 0x2FBC JUMP JUMPDEST POP POP POP PUSH2 0x13E9 JUMP JUMPDEST PUSH1 0x0 PUSH2 0x1387 GAS PUSH2 0x136F PUSH2 0x2FF5 JUMP JUMPDEST PUSH1 0x7 PUSH2 0x1379 PUSH2 0x2F54 JUMP JUMPDEST PUSH2 0x28CC SWAP1 SWAP2 SWAP1 PUSH4 0xFFFFFFFF AND JUMP JUMPDEST SWAP1 POP PUSH1 0x0 PUSH2 0x13A7 PUSH1 0x8 PUSH2 0x1398 PUSH2 0x2F54 JUMP JUMPDEST DUP4 PUSH2 0x2955 SWAP1 SWAP2 SWAP1 PUSH4 0xFFFFFFFF AND JUMP JUMPDEST SWAP1 POP PUSH2 0x13D7 PUSH1 0x9 PUSH2 0x13B6 PUSH2 0x2F54 JUMP JUMPDEST PUSH2 0x13C9 DUP4 DUP8 PUSH2 0x2A6A SWAP1 SWAP2 SWAP1 PUSH4 0xFFFFFFFF AND JUMP JUMPDEST PUSH2 0x29DB SWAP1 SWAP2 SWAP1 PUSH4 0xFFFFFFFF AND JUMP JUMPDEST PUSH1 0x8 DUP2 SWAP1 PUSH2 0x13E3 PUSH2 0x2FBC JUMP JUMPDEST POP POP POP POP POP JUMPDEST PUSH1 0x0 PUSH1 0x5 PUSH1 0x1 SWAP1 PUSH2 0x13F8 PUSH2 0x2F54 JUMP JUMPDEST SWAP1 PUSH2 0x100 EXP SWAP1 DIV PUSH20 0xFFFFFFFFFFFFFFFFFFFFFFFFFFFFFFFFFFFFFFFF AND PUSH20 0xFFFFFFFFFFFFFFFFFFFFFFFFFFFFFFFFFFFFFFFF AND PUSH4 0x70A08231 GAS PUSH4 0x996D79A5 PUSH3 0x80000 DUP2 PUSH1 0xE0 SHL DUP2 MSTORE PUSH1 0x20 DUP2 PUSH1 0x4 DUP4 PUSH1 0x0 CALLER GAS CALL PUSH1 0x0 DUP2 EQ ISZERO PUSH2 0x1459 JUMPI PUSH1 0x0 DUP1 REVERT JUMPDEST DUP2 MLOAD SWAP4 POP POP POP POP PUSH1 0x40 MLOAD DUP3 PUSH4 0xFFFFFFFF AND PUSH1 0xE0 SHL DUP2 MSTORE PUSH1 0x4 ADD DUP1 DUP3 PUSH20 0xFFFFFFFFFFFFFFFFFFFFFFFFFFFFFFFFFFFFFFFF AND PUSH20 0xFFFFFFFFFFFFFFFFFFFFFFFFFFFFFFFFFFFFFFFF AND DUP2 MSTORE PUSH1 0x20 ADD SWAP2 POP POP PUSH1 0x20 PUSH1 0x40 MLOAD DUP1 DUP4 SUB DUP2 DUP7 DUP1 PUSH2 0x14BB PUSH2 0x3026 JUMP JUMPDEST ISZERO DUP1 ISZERO PUSH2 0x14C7 JUMPI PUSH1 0x0 DUP1 REVERT JUMPDEST POP GAS PUSH2 0x14D1 PUSH2 0x305D JUMP JUMPDEST POP POP POP POP POP ISZERO DUP1 ISZERO PUSH2 0x14E7 JUMPI RETURNDATASIZE PUSH1 0x0 DUP1 RETURNDATACOPY RETURNDATASIZE PUSH1 0x0 REVERT JUMPDEST POP POP POP POP PUSH1 0x40 MLOAD RETURNDATASIZE PUSH1 0x20 DUP2 LT ISZERO PUSH2 0x14FD JUMPI PUSH1 0x0 DUP1 REVERT JUMPDEST DUP2 ADD SWAP1 DUP1 DUP1 MLOAD SWAP1 PUSH1 0x20 ADD SWAP1 SWAP3 SWAP2 SWAP1 POP POP POP SWAP1 POP PUSH2 0x152C PUSH1 0x9 PUSH2 0x151D PUSH2 0x2F54 JUMP JUMPDEST DUP3 PUSH2 0x29DB SWAP1 SWAP2 SWAP1 PUSH4 0xFFFFFFFF AND JUMP JUMPDEST PUSH1 0x8 PUSH2 0x1536 PUSH2 0x2F54 JUMP JUMPDEST GT ISZERO PUSH2 0x15AA JUMPI PUSH1 0x40 MLOAD PUSH32 0x8C379A000000000000000000000000000000000000000000000000000000000 DUP2 MSTORE PUSH1 0x4 ADD DUP1 DUP1 PUSH1 0x20 ADD DUP3 DUP2 SUB DUP3 MSTORE PUSH1 0x18 DUP2 MSTORE PUSH1 0x20 ADD DUP1 PUSH32 0x50726F76696465642072657761726420746F6F20686967680000000000000000 DUP2 MSTORE POP PUSH1 0x20 ADD SWAP2 POP POP PUSH1 0x40 MLOAD DUP1 SWAP2 SUB SWAP1 REVERT JUMPDEST GAS PUSH2 0x15B3 PUSH2 0x2FF5 JUMP JUMPDEST PUSH1 0xA DUP2 SWAP1 PUSH2 0x15BF PUSH2 0x2FBC JUMP JUMPDEST POP POP POP PUSH2 0x15E6 PUSH1 0x9 PUSH2 0x15CF PUSH2 0x2F54 JUMP JUMPDEST GAS PUSH2 0x15D8 PUSH2 0x2FF5 JUMP JUMPDEST PUSH2 0x2A6A SWAP1 SWAP2 SWAP1 PUSH4 0xFFFFFFFF AND JUMP JUMPDEST PUSH1 0x7 DUP2 SWAP1 PUSH2 0x15F2 PUSH2 0x2FBC JUMP JUMPDEST POP POP POP PUSH32 0xDE88A922E0D3B88B24E9623EFEB464919C6BF9F66857A65E2BFCF2CE87A9433D DUP4 PUSH1 0x40 MLOAD DUP1 DUP3 DUP2 MSTORE PUSH1 0x20 ADD SWAP2 POP POP PUSH1 0x40 MLOAD DUP1 SWAP2 SUB SWAP1 LOG1 POP POP POP JUMP JUMPDEST PUSH1 0x1 PUSH1 0x3 PUSH1 0x0 DUP3 DUP3 PUSH2 0x1641 PUSH2 0x2F54 JUMP JUMPDEST ADD SWAP3 POP POP DUP2 SWAP1 PUSH2 0x164F PUSH2 0x2FBC JUMP JUMPDEST POP POP POP PUSH1 0x0 PUSH1 0x3 PUSH2 0x165E PUSH2 0x2F54 JUMP JUMPDEST SWAP1 POP GAS PUSH2 0x1669 PUSH2 0x2F8B JUMP JUMPDEST PUSH2 0x1671 PUSH2 0x276C JUMP JUMPDEST PUSH1 0xB DUP2 SWAP1 PUSH2 0x167D PUSH2 0x2FBC JUMP JUMPDEST POP POP POP PUSH2 0x1688 PUSH2 0x1CC7 JUMP JUMPDEST PUSH1 0xA DUP2 SWAP1 PUSH2 0x1694 PUSH2 0x2FBC JUMP JUMPDEST POP POP POP PUSH1 0x0 PUSH20 0xFFFFFFFFFFFFFFFFFFFFFFFFFFFFFFFFFFFFFFFF AND DUP2 PUSH20 0xFFFFFFFFFFFFFFFFFFFFFFFFFFFFFFFFFFFFFFFF AND EQ PUSH2 0x1777 JUMPI PUSH2 0x16D4 DUP2 PUSH2 0x7E5 JUMP JUMPDEST PUSH1 0xD PUSH1 0x0 DUP4 PUSH20 0xFFFFFFFFFFFFFFFFFFFFFFFFFFFFFFFFFFFFFFFF AND PUSH20 0xFFFFFFFFFFFFFFFFFFFFFFFFFFFFFFFFFFFFFFFF AND DUP2 MSTORE PUSH1 0x20 ADD SWAP1 DUP2 MSTORE PUSH1 0x20 ADD PUSH1 0x0 KECCAK256 DUP2 SWAP1 PUSH2 0x171D PUSH2 0x2FBC JUMP JUMPDEST POP POP POP PUSH1 0xB PUSH2 0x172A PUSH2 0x2F54 JUMP JUMPDEST PUSH1 0xC PUSH1 0x0 DUP4 PUSH20 0xFFFFFFFFFFFFFFFFFFFFFFFFFFFFFFFFFFFFFFFF AND PUSH20 0xFFFFFFFFFFFFFFFFFFFFFFFFFFFFFFFFFFFFFFFF AND DUP2 MSTORE PUSH1 0x20 ADD SWAP1 DUP2 MSTORE PUSH1 0x20 ADD PUSH1 0x0 KECCAK256 DUP2 SWAP1 PUSH2 0x1773 PUSH2 0x2FBC JUMP JUMPDEST POP POP POP JUMPDEST PUSH1 0x0 PUSH1 0xD PUSH1 0x0 GAS PUSH2 0x1786 PUSH2 0x2F8B JUMP JUMPDEST PUSH20 0xFFFFFFFFFFFFFFFFFFFFFFFFFFFFFFFFFFFFFFFF AND PUSH20 0xFFFFFFFFFFFFFFFFFFFFFFFFFFFFFFFFFFFFFFFF AND DUP2 MSTORE PUSH1 0x20 ADD SWAP1 DUP2 MSTORE PUSH1 0x20 ADD PUSH1 0x0 KECCAK256 PUSH2 0x17C8 PUSH2 0x2F54 JUMP JUMPDEST SWAP1 POP PUSH1 0x0 DUP2 GT ISZERO PUSH2 0x18DC JUMPI PUSH1 0x0 PUSH1 0xD PUSH1 0x0 GAS PUSH2 0x17E2 PUSH2 0x2F8B JUMP JUMPDEST PUSH20 0xFFFFFFFFFFFFFFFFFFFFFFFFFFFFFFFFFFFFFFFF AND PUSH20 0xFFFFFFFFFFFFFFFFFFFFFFFFFFFFFFFFFFFFFFFF AND DUP2 MSTORE PUSH1 0x20 ADD SWAP1 DUP2 MSTORE PUSH1 0x20 ADD PUSH1 0x0 KECCAK256 DUP2 SWAP1 PUSH2 0x1826 PUSH2 0x2FBC JUMP JUMPDEST POP POP POP PUSH2 0x1885 GAS PUSH2 0x1835 PUSH2 0x2F8B JUMP JUMPDEST DUP3 PUSH1 0x5 PUSH1 0x1 SWAP1 PUSH2 0x1843 PUSH2 0x2F54 JUMP JUMPDEST SWAP1 PUSH2 0x100 EXP SWAP1 DIV PUSH20 0xFFFFFFFFFFFFFFFFFFFFFFFFFFFFFFFFFFFFFFFF AND PUSH20 0xFFFFFFFFFFFFFFFFFFFFFFFFFFFFFFFFFFFFFFFF AND PUSH2 0x2AF2 SWAP1 SWAP3 SWAP2 SWAP1 PUSH4 0xFFFFFFFF AND JUMP JUMPDEST GAS PUSH2 0x188E PUSH2 0x2F8B JUMP JUMPDEST PUSH20 0xFFFFFFFFFFFFFFFFFFFFFFFFFFFFFFFFFFFFFFFF AND PUSH32 0xE2403640BA68FED3A2F88B7557551D1993F84B99BB10FF833F0CF8DB0C5E0486 DUP3 PUSH1 0x40 MLOAD DUP1 DUP3 DUP2 MSTORE PUSH1 0x20 ADD SWAP2 POP POP PUSH1 0x40 MLOAD DUP1 SWAP2 SUB SWAP1 LOG2 JUMPDEST POP POP PUSH1 0x3 PUSH2 0x18E8 PUSH2 0x2F54 JUMP JUMPDEST DUP2 EQ PUSH2 0x195C JUMPI PUSH1 0x40 MLOAD PUSH32 0x8C379A000000000000000000000000000000000000000000000000000000000 DUP2 MSTORE PUSH1 0x4 ADD DUP1 DUP1 PUSH1 0x20 ADD DUP3 DUP2 SUB DUP3 MSTORE PUSH1 0x1F DUP2 MSTORE PUSH1 0x20 ADD DUP1 PUSH32 0x5265656E7472616E637947756172643A207265656E7472616E742063616C6C00 DUP2 MSTORE POP PUSH1 0x20 ADD SWAP2 POP POP PUSH1 0x40 MLOAD DUP1 SWAP2 SUB SWAP1 REVERT JUMPDEST POP JUMP JUMPDEST PUSH1 0x2 PUSH1 0x0 SWAP1 PUSH2 0x196C PUSH2 0x2F54 JUMP JUMPDEST SWAP1 PUSH2 0x100 EXP SWAP1 DIV PUSH20 0xFFFFFFFFFFFFFFFFFFFFFFFFFFFFFFFFFFFFFFFF AND DUP2 JUMP JUMPDEST PUSH1 0x1 PUSH1 0x0 SWAP1 PUSH2 0x1999 PUSH2 0x2F54 JUMP JUMPDEST SWAP1 PUSH2 0x100 EXP SWAP1 DIV PUSH20 0xFFFFFFFFFFFFFFFFFFFFFFFFFFFFFFFFFFFFFFFF AND DUP2 JUMP JUMPDEST PUSH1 0x5 PUSH1 0x0 SWAP1 PUSH2 0x19C6 PUSH2 0x2F54 JUMP JUMPDEST SWAP1 PUSH2 0x100 EXP SWAP1 DIV PUSH1 0xFF AND DUP2 JUMP JUMPDEST PUSH1 0x0 PUSH1 0xF PUSH1 0x0 DUP4 PUSH20 0xFFFFFFFFFFFFFFFFFFFFFFFFFFFFFFFFFFFFFFFF AND PUSH20 0xFFFFFFFFFFFFFFFFFFFFFFFFFFFFFFFFFFFFFFFF AND DUP2 MSTORE PUSH1 0x20 ADD SWAP1 DUP2 MSTORE PUSH1 0x20 ADD PUSH1 0x0 KECCAK256 PUSH2 0x1A1C PUSH2 0x2F54 JUMP JUMPDEST SWAP1 POP SWAP2 SWAP1 POP JUMP JUMPDEST PUSH1 0x6 PUSH1 0x0 SWAP1 PUSH2 0x1A30 PUSH2 0x2F54 JUMP JUMPDEST SWAP1 PUSH2 0x100 EXP SWAP1 DIV PUSH20 0xFFFFFFFFFFFFFFFFFFFFFFFFFFFFFFFFFFFFFFFF AND DUP2 JUMP JUMPDEST PUSH1 0x1 PUSH1 0x0 SWAP1 PUSH2 0x1A5D PUSH2 0x2F54 JUMP JUMPDEST SWAP1 PUSH2 0x100 EXP SWAP1 DIV PUSH20 0xFFFFFFFFFFFFFFFFFFFFFFFFFFFFFFFFFFFFFFFF AND PUSH20 0xFFFFFFFFFFFFFFFFFFFFFFFFFFFFFFFFFFFFFFFF AND GAS PUSH2 0x1A99 PUSH2 0x2F8B JUMP JUMPDEST PUSH20 0xFFFFFFFFFFFFFFFFFFFFFFFFFFFFFFFFFFFFFFFF AND EQ PUSH2 0x1B05 JUMPI PUSH1 0x40 MLOAD PUSH32 0x8C379A000000000000000000000000000000000000000000000000000000000 DUP2 MSTORE PUSH1 0x4 ADD DUP1 DUP1 PUSH1 0x20 ADD DUP3 DUP2 SUB DUP3 MSTORE PUSH1 0x35 DUP2 MSTORE PUSH1 0x20 ADD DUP1 PUSH2 0x3168 PUSH1 0x35 SWAP2 CODECOPY PUSH1 0x40 ADD SWAP2 POP POP PUSH1 0x40 MLOAD DUP1 SWAP2 SUB SWAP1 REVERT JUMPDEST PUSH32 0xB532073B38C83145E3E5135377A08BF9AAB55BC0FD7C1179CD4FB995D2A5159C PUSH1 0x0 DUP1 SWAP1 PUSH2 0x1B32 PUSH2 0x2F54 JUMP JUMPDEST SWAP1 PUSH2 0x100 EXP SWAP1 DIV PUSH20 0xFFFFFFFFFFFFFFFFFFFFFFFFFFFFFFFFFFFFFFFF AND PUSH1 0x1 PUSH1 0x0 SWAP1 PUSH2 0x1B5C PUSH2 0x2F54 JUMP JUMPDEST SWAP1 PUSH2 0x100 EXP SWAP1 DIV PUSH20 0xFFFFFFFFFFFFFFFFFFFFFFFFFFFFFFFFFFFFFFFF AND PUSH1 0x40 MLOAD DUP1 DUP4 PUSH20 0xFFFFFFFFFFFFFFFFFFFFFFFFFFFFFFFFFFFFFFFF AND PUSH20 0xFFFFFFFFFFFFFFFFFFFFFFFFFFFFFFFFFFFFFFFF AND DUP2 MSTORE PUSH1 0x20 ADD DUP3 PUSH20 0xFFFFFFFFFFFFFFFFFFFFFFFFFFFFFFFFFFFFFFFF AND PUSH20 0xFFFFFFFFFFFFFFFFFFFFFFFFFFFFFFFFFFFFFFFF AND DUP2 MSTORE PUSH1 0x20 ADD SWAP3 POP POP POP PUSH1 0x40 MLOAD DUP1 SWAP2 SUB SWAP1 LOG1 PUSH1 0x1 PUSH1 0x0 SWAP1 PUSH2 0x1BFA PUSH2 0x2F54 JUMP JUMPDEST SWAP1 PUSH2 0x100 EXP SWAP1 DIV PUSH20 0xFFFFFFFFFFFFFFFFFFFFFFFFFFFFFFFFFFFFFFFF AND PUSH1 0x0 DUP1 PUSH2 0x100 EXP DUP2 PUSH2 0x1C27 PUSH2 0x2F54 JUMP JUMPDEST DUP2 PUSH20 0xFFFFFFFFFFFFFFFFFFFFFFFFFFFFFFFFFFFFFFFF MUL NOT AND SWAP1 DUP4 PUSH20 0xFFFFFFFFFFFFFFFFFFFFFFFFFFFFFFFFFFFFFFFF AND MUL OR SWAP1 PUSH2 0x1C63 PUSH2 0x2FBC JUMP JUMPDEST POP POP POP PUSH1 0x0 PUSH1 0x1 PUSH1 0x0 PUSH2 0x100 EXP DUP2 PUSH2 0x1C79 PUSH2 0x2F54 JUMP JUMPDEST DUP2 PUSH20 0xFFFFFFFFFFFFFFFFFFFFFFFFFFFFFFFFFFFFFFFF MUL NOT AND SWAP1 DUP4 PUSH20 0xFFFFFFFFFFFFFFFFFFFFFFFFFFFFFFFFFFFFFFFF AND MUL OR SWAP1 PUSH2 0x1CB5 PUSH2 0x2FBC JUMP JUMPDEST POP POP POP JUMP JUMPDEST PUSH1 0x8 PUSH2 0x1CC4 PUSH2 0x2F54 JUMP JUMPDEST DUP2 JUMP JUMPDEST PUSH1 0x0 PUSH2 0x1CE4 GAS PUSH2 0x1CD5 PUSH2 0x2FF5 JUMP JUMPDEST PUSH1 0x7 PUSH2 0x1CDF PUSH2 0x2F54 JUMP JUMPDEST PUSH2 0x2BC3 JUMP JUMPDEST SWAP1 POP SWAP1 JUMP JUMPDEST PUSH1 0x0 DUP1 SWAP1 PUSH2 0x1CF5 PUSH2 0x2F54 JUMP JUMPDEST SWAP1 PUSH2 0x100 EXP SWAP1 DIV PUSH20 0xFFFFFFFFFFFFFFFFFFFFFFFFFFFFFFFFFFFFFFFF AND PUSH20 0xFFFFFFFFFFFFFFFFFFFFFFFFFFFFFFFFFFFFFFFF AND GAS PUSH2 0x1D31 PUSH2 0x2F8B JUMP JUMPDEST PUSH20 0xFFFFFFFFFFFFFFFFFFFFFFFFFFFFFFFFFFFFFFFF AND EQ PUSH2 0x1D9D JUMPI PUSH1 0x40 MLOAD PUSH32 0x8C379A000000000000000000000000000000000000000000000000000000000 DUP2 MSTORE PUSH1 0x4 ADD DUP1 DUP1 PUSH1 0x20 ADD DUP3 DUP2 SUB DUP3 MSTORE PUSH1 0x2F DUP2 MSTORE PUSH1 0x20 ADD DUP1 PUSH2 0x319D PUSH1 0x2F SWAP2 CODECOPY PUSH1 0x40 ADD SWAP2 POP POP PUSH1 0x40 MLOAD DUP1 SWAP2 SUB SWAP1 REVERT JUMPDEST PUSH1 0x0 DUP3 PUSH20 0xFFFFFFFFFFFFFFFFFFFFFFFFFFFFFFFFFFFFFFFF AND PUSH4 0x95D89B41 PUSH1 0x40 MLOAD DUP2 PUSH4 0xFFFFFFFF AND PUSH1 0xE0 SHL DUP2 MSTORE PUSH1 0x4 ADD PUSH1 0x0 PUSH1 0x40 MLOAD DUP1 DUP4 SUB DUP2 DUP7 DUP1 PUSH2 0x1DE0 PUSH2 0x3026 JUMP JUMPDEST ISZERO DUP1 ISZERO PUSH2 0x1DEC JUMPI PUSH1 0x0 DUP1 REVERT JUMPDEST POP GAS PUSH2 0x1DF6 PUSH2 0x305D JUMP JUMPDEST POP POP POP POP POP ISZERO DUP1 ISZERO PUSH2 0x1E0C JUMPI RETURNDATASIZE PUSH1 0x0 DUP1 RETURNDATACOPY RETURNDATASIZE PUSH1 0x0 REVERT JUMPDEST POP POP POP POP PUSH1 0x40 MLOAD RETURNDATASIZE PUSH1 0x0 DUP3 RETURNDATACOPY RETURNDATASIZE PUSH1 0x1F NOT PUSH1 0x1F DUP3 ADD AND DUP3 ADD DUP1 PUSH1 0x40 MSTORE POP PUSH1 0x20 DUP2 LT ISZERO PUSH2 0x1E36 JUMPI PUSH1 0x0 DUP1 REVERT JUMPDEST DUP2 ADD SWAP1 DUP1 DUP1 MLOAD PUSH1 0x40 MLOAD SWAP4 SWAP3 SWAP2 SWAP1 DUP5 PUSH5 0x100000000 DUP3 GT ISZERO PUSH2 0x1E56 JUMPI PUSH1 0x0 DUP1 REVERT JUMPDEST DUP4 DUP3 ADD SWAP2 POP PUSH1 0x20 DUP3 ADD DUP6 DUP2 GT ISZERO PUSH2 0x1E6C JUMPI PUSH1 0x0 DUP1 REVERT JUMPDEST DUP3 MLOAD DUP7 PUSH1 0x1 DUP3 MUL DUP4 ADD GT PUSH5 0x100000000 DUP3 GT OR ISZERO PUSH2 0x1E89 JUMPI PUSH1 0x0 DUP1 REVERT JUMPDEST DUP1 DUP4 MSTORE PUSH1 0x20 DUP4 ADD SWAP3 POP POP POP SWAP1 DUP1 MLOAD SWAP1 PUSH1 0x20 ADD SWAP1 DUP1 DUP4 DUP4 PUSH1 0x0 JUMPDEST DUP4 DUP2 LT ISZERO PUSH2 0x1EBD JUMPI DUP1 DUP3 ADD MLOAD DUP2 DUP5 ADD MSTORE PUSH1 0x20 DUP2 ADD SWAP1 POP PUSH2 0x1EA2 JUMP JUMPDEST POP POP POP POP SWAP1 POP SWAP1 DUP2 ADD SWAP1 PUSH1 0x1F AND DUP1 ISZERO PUSH2 0x1EEA JUMPI DUP1 DUP3 SUB DUP1 MLOAD PUSH1 0x1 DUP4 PUSH1 0x20 SUB PUSH2 0x100 EXP SUB NOT AND DUP2 MSTORE PUSH1 0x20 ADD SWAP2 POP JUMPDEST POP PUSH1 0x40 MSTORE POP POP POP DUP1 MLOAD SWAP1 PUSH1 0x20 ADD KECCAK256 PUSH1 0x40 MLOAD DUP1 PUSH1 0x40 ADD PUSH1 0x40 MSTORE DUP1 PUSH1 0x3 DUP2 MSTORE PUSH1 0x20 ADD PUSH32 0x534E580000000000000000000000000000000000000000000000000000000000 DUP2 MSTORE POP DUP1 MLOAD SWAP1 PUSH1 0x20 ADD KECCAK256 EQ SWAP1 POP PUSH1 0x6 PUSH1 0x0 SWAP1 PUSH2 0x1F45 PUSH2 0x2F54 JUMP JUMPDEST SWAP1 PUSH2 0x100 EXP SWAP1 DIV PUSH20 0xFFFFFFFFFFFFFFFFFFFFFFFFFFFFFFFFFFFFFFFF AND PUSH20 0xFFFFFFFFFFFFFFFFFFFFFFFFFFFFFFFFFFFFFFFF AND DUP4 PUSH20 0xFFFFFFFFFFFFFFFFFFFFFFFFFFFFFFFFFFFFFFFF AND EQ ISZERO DUP1 ISZERO PUSH2 0x1FF2 JUMPI POP PUSH1 0x5 PUSH1 0x1 SWAP1 PUSH2 0x1FA5 PUSH2 0x2F54 JUMP JUMPDEST SWAP1 PUSH2 0x100 EXP SWAP1 DIV PUSH20 0xFFFFFFFFFFFFFFFFFFFFFFFFFFFFFFFFFFFFFFFF AND PUSH20 0xFFFFFFFFFFFFFFFFFFFFFFFFFFFFFFFFFFFFFFFF AND DUP4 PUSH20 0xFFFFFFFFFFFFFFFFFFFFFFFFFFFFFFFFFFFFFFFF AND EQ ISZERO JUMPDEST DUP1 ISZERO PUSH2 0x1FFC JUMPI POP DUP1 ISZERO JUMPDEST PUSH2 0x2051 JUMPI PUSH1 0x40 MLOAD PUSH32 0x8C379A000000000000000000000000000000000000000000000000000000000 DUP2 MSTORE PUSH1 0x4 ADD DUP1 DUP1 PUSH1 0x20 ADD DUP3 DUP2 SUB DUP3 MSTORE PUSH1 0x2D DUP2 MSTORE PUSH1 0x20 ADD DUP1 PUSH2 0x3229 PUSH1 0x2D SWAP2 CODECOPY PUSH1 0x40 ADD SWAP2 POP POP PUSH1 0x40 MLOAD DUP1 SWAP2 SUB SWAP1 REVERT JUMPDEST PUSH2 0x20A4 PUSH1 0x0 DUP1 SWAP1 PUSH2 0x2060 PUSH2 0x2F54 JUMP JUMPDEST SWAP1 PUSH2 0x100 EXP SWAP1 DIV PUSH20 0xFFFFFFFFFFFFFFFFFFFFFFFFFFFFFFFFFFFFFFFF AND DUP4 DUP6 PUSH20 0xFFFFFFFFFFFFFFFFFFFFFFFFFFFFFFFFFFFFFFFF AND PUSH2 0x2AF2 SWAP1 SWAP3 SWAP2 SWAP1 PUSH4 0xFFFFFFFF AND JUMP JUMPDEST PUSH32 0x8C1256B8896378CD5044F80C202F9772B9D77DC85C8A6EB51967210B09BFAA28 DUP4 DUP4 PUSH1 0x40 MLOAD DUP1 DUP4 PUSH20 0xFFFFFFFFFFFFFFFFFFFFFFFFFFFFFFFFFFFFFFFF AND PUSH20 0xFFFFFFFFFFFFFFFFFFFFFFFFFFFFFFFFFFFFFFFF AND DUP2 MSTORE PUSH1 0x20 ADD DUP3 DUP2 MSTORE PUSH1 0x20 ADD SWAP3 POP POP POP PUSH1 0x40 MLOAD DUP1 SWAP2 SUB SWAP1 LOG1 POP POP POP JUMP JUMPDEST PUSH1 0xC PUSH1 0x20 MSTORE DUP1 PUSH1 0x0 MSTORE PUSH1 0x40 PUSH1 0x0 KECCAK256 PUSH1 0x0 SWAP2 POP SWAP1 POP PUSH2 0x2130 PUSH2 0x2F54 JUMP JUMPDEST DUP2 JUMP JUMPDEST PUSH1 0x0 DUP1 SWAP1 PUSH2 0x213F PUSH2 0x2F54 JUMP JUMPDEST SWAP1 PUSH2 0x100 EXP SWAP1 DIV PUSH20 0xFFFFFFFFFFFFFFFFFFFFFFFFFFFFFFFFFFFFFFFF AND DUP2 JUMP JUMPDEST PUSH1 0x4 PUSH2 0x2169 PUSH2 0x2F54 JUMP JUMPDEST DUP2 JUMP JUMPDEST PUSH1 0x1 PUSH1 0x3 PUSH1 0x0 DUP3 DUP3 PUSH2 0x217C PUSH2 0x2F54 JUMP JUMPDEST ADD SWAP3 POP POP DUP2 SWAP1 PUSH2 0x218A PUSH2 0x2FBC JUMP JUMPDEST POP POP POP PUSH1 0x0 PUSH1 0x3 PUSH2 0x2199 PUSH2 0x2F54 JUMP JUMPDEST SWAP1 POP PUSH1 0x5 PUSH1 0x0 SWAP1 PUSH2 0x21A8 PUSH2 0x2F54 JUMP JUMPDEST SWAP1 PUSH2 0x100 EXP SWAP1 DIV PUSH1 0xFF AND ISZERO PUSH2 0x2208 JUMPI PUSH1 0x40 MLOAD PUSH32 0x8C379A000000000000000000000000000000000000000000000000000000000 DUP2 MSTORE PUSH1 0x4 ADD DUP1 DUP1 PUSH1 0x20 ADD DUP3 DUP2 SUB DUP3 MSTORE PUSH1 0x3C DUP2 MSTORE PUSH1 0x20 ADD DUP1 PUSH2 0x31ED PUSH1 0x3C SWAP2 CODECOPY PUSH1 0x40 ADD SWAP2 POP POP PUSH1 0x40 MLOAD DUP1 SWAP2 SUB SWAP1 REVERT JUMPDEST GAS PUSH2 0x2211 PUSH2 0x2F8B JUMP JUMPDEST PUSH2 0x2219 PUSH2 0x276C JUMP JUMPDEST PUSH1 0xB DUP2 SWAP1 PUSH2 0x2225 PUSH2 0x2FBC JUMP JUMPDEST POP POP POP PUSH2 0x2230 PUSH2 0x1CC7 JUMP JUMPDEST PUSH1 0xA DUP2 SWAP1 PUSH2 0x223C PUSH2 0x2FBC JUMP JUMPDEST POP POP POP PUSH1 0x0 PUSH20 0xFFFFFFFFFFFFFFFFFFFFFFFFFFFFFFFFFFFFFFFF AND DUP2 PUSH20 0xFFFFFFFFFFFFFFFFFFFFFFFFFFFFFFFFFFFFFFFF AND EQ PUSH2 0x231F JUMPI PUSH2 0x227C DUP2 PUSH2 0x7E5 JUMP JUMPDEST PUSH1 0xD PUSH1 0x0 DUP4 PUSH20 0xFFFFFFFFFFFFFFFFFFFFFFFFFFFFFFFFFFFFFFFF AND PUSH20 0xFFFFFFFFFFFFFFFFFFFFFFFFFFFFFFFFFFFFFFFF AND DUP2 MSTORE PUSH1 0x20 ADD SWAP1 DUP2 MSTORE PUSH1 0x20 ADD PUSH1 0x0 KECCAK256 DUP2 SWAP1 PUSH2 0x22C5 PUSH2 0x2FBC JUMP JUMPDEST POP POP POP PUSH1 0xB PUSH2 0x22D2 PUSH2 0x2F54 JUMP JUMPDEST PUSH1 0xC PUSH1 0x0 DUP4 PUSH20 0xFFFFFFFFFFFFFFFFFFFFFFFFFFFFFFFFFFFFFFFF AND PUSH20 0xFFFFFFFFFFFFFFFFFFFFFFFFFFFFFFFFFFFFFFFF AND DUP2 MSTORE PUSH1 0x20 ADD SWAP1 DUP2 MSTORE PUSH1 0x20 ADD PUSH1 0x0 KECCAK256 DUP2 SWAP1 PUSH2 0x231B PUSH2 0x2FBC JUMP JUMPDEST POP POP POP JUMPDEST PUSH1 0x0 DUP4 GT PUSH2 0x2395 JUMPI PUSH1 0x40 MLOAD PUSH32 0x8C379A000000000000000000000000000000000000000000000000000000000 DUP2 MSTORE PUSH1 0x4 ADD DUP1 DUP1 PUSH1 0x20 ADD DUP3 DUP2 SUB DUP3 MSTORE PUSH1 0xE DUP2 MSTORE PUSH1 0x20 ADD DUP1 PUSH32 0x43616E6E6F74207374616B652030000000000000000000000000000000000000 DUP2 MSTORE POP PUSH1 0x20 ADD SWAP2 POP POP PUSH1 0x40 MLOAD DUP1 SWAP2 SUB SWAP1 REVERT JUMPDEST PUSH2 0x23B1 DUP4 PUSH1 0xE PUSH2 0x23A3 PUSH2 0x2F54 JUMP JUMPDEST PUSH2 0x2A6A SWAP1 SWAP2 SWAP1 PUSH4 0xFFFFFFFF AND JUMP JUMPDEST PUSH1 0xE DUP2 SWAP1 PUSH2 0x23BD PUSH2 0x2FBC JUMP JUMPDEST POP POP POP PUSH2 0x2421 DUP4 PUSH1 0xF PUSH1 0x0 GAS PUSH2 0x23D1 PUSH2 0x2F8B JUMP JUMPDEST PUSH20 0xFFFFFFFFFFFFFFFFFFFFFFFFFFFFFFFFFFFFFFFF AND PUSH20 0xFFFFFFFFFFFFFFFFFFFFFFFFFFFFFFFFFFFFFFFF AND DUP2 MSTORE PUSH1 0x20 ADD SWAP1 DUP2 MSTORE PUSH1 0x20 ADD PUSH1 0x0 KECCAK256 PUSH2 0x2413 PUSH2 0x2F54 JUMP JUMPDEST PUSH2 0x2A6A SWAP1 SWAP2 SWAP1 PUSH4 0xFFFFFFFF AND JUMP JUMPDEST PUSH1 0xF PUSH1 0x0 GAS PUSH2 0x242E PUSH2 0x2F8B JUMP JUMPDEST PUSH20 0xFFFFFFFFFFFFFFFFFFFFFFFFFFFFFFFFFFFFFFFF AND PUSH20 0xFFFFFFFFFFFFFFFFFFFFFFFFFFFFFFFFFFFFFFFF AND DUP2 MSTORE PUSH1 0x20 ADD SWAP1 DUP2 MSTORE PUSH1 0x20 ADD PUSH1 0x0 KECCAK256 DUP2 SWAP1 PUSH2 0x2472 PUSH2 0x2FBC JUMP JUMPDEST POP POP POP PUSH2 0x2502 GAS PUSH2 0x2481 PUSH2 0x2F8B JUMP JUMPDEST GAS PUSH4 0x996D79A5 PUSH3 0x80000 DUP2 PUSH1 0xE0 SHL DUP2 MSTORE PUSH1 0x20 DUP2 PUSH1 0x4 DUP4 PUSH1 0x0 CALLER GAS CALL PUSH1 0x0 DUP2 EQ ISZERO PUSH2 0x24AA JUMPI PUSH1 0x0 DUP1 REVERT JUMPDEST DUP2 MLOAD SWAP4 POP POP POP POP DUP6 PUSH1 0x6 PUSH1 0x0 SWAP1 PUSH2 0x24BF PUSH2 0x2F54 JUMP JUMPDEST SWAP1 PUSH2 0x100 EXP SWAP1 DIV PUSH20 0xFFFFFFFFFFFFFFFFFFFFFFFFFFFFFFFFFFFFFFFF AND PUSH20 0xFFFFFFFFFFFFFFFFFFFFFFFFFFFFFFFFFFFFFFFF AND PUSH2 0x2BDC SWAP1 SWAP4 SWAP3 SWAP2 SWAP1 PUSH4 0xFFFFFFFF AND JUMP JUMPDEST GAS PUSH2 0x250B PUSH2 0x2F8B JUMP JUMPDEST PUSH20 0xFFFFFFFFFFFFFFFFFFFFFFFFFFFFFFFFFFFFFFFF AND PUSH32 0x9E71BC8EEA02A63969F509818F2DAFB9254532904319F9DBDA79B67BD34A5F3D DUP5 PUSH1 0x40 MLOAD DUP1 DUP3 DUP2 MSTORE PUSH1 0x20 ADD SWAP2 POP POP PUSH1 0x40 MLOAD DUP1 SWAP2 SUB SWAP1 LOG2 POP PUSH1 0x3 PUSH2 0x2563 PUSH2 0x2F54 JUMP JUMPDEST DUP2 EQ PUSH2 0x25D7 JUMPI PUSH1 0x40 MLOAD PUSH32 0x8C379A000000000000000000000000000000000000000000000000000000000 DUP2 MSTORE PUSH1 0x4 ADD DUP1 DUP1 PUSH1 0x20 ADD DUP3 DUP2 SUB DUP3 MSTORE PUSH1 0x1F DUP2 MSTORE PUSH1 0x20 ADD DUP1 PUSH32 0x5265656E7472616E637947756172643A207265656E7472616E742063616C6C00 DUP2 MSTORE POP PUSH1 0x20 ADD SWAP2 POP POP PUSH1 0x40 MLOAD DUP1 SWAP2 SUB SWAP1 REVERT JUMPDEST POP POP JUMP JUMPDEST PUSH1 0xA PUSH2 0x25E5 PUSH2 0x2F54 JUMP JUMPDEST DUP2 JUMP JUMPDEST PUSH1 0x0 DUP1 SWAP1 PUSH2 0x25F4 PUSH2 0x2F54 JUMP JUMPDEST SWAP1 PUSH2 0x100 EXP SWAP1 DIV PUSH20 0xFFFFFFFFFFFFFFFFFFFFFFFFFFFFFFFFFFFFFFFF AND PUSH20 0xFFFFFFFFFFFFFFFFFFFFFFFFFFFFFFFFFFFFFFFF AND GAS PUSH2 0x2630 PUSH2 0x2F8B JUMP JUMPDEST PUSH20 0xFFFFFFFFFFFFFFFFFFFFFFFFFFFFFFFFFFFFFFFF AND EQ PUSH2 0x269C JUMPI PUSH1 0x40 MLOAD PUSH32 0x8C379A000000000000000000000000000000000000000000000000000000000 DUP2 MSTORE PUSH1 0x4 ADD DUP1 DUP1 PUSH1 0x20 ADD DUP3 DUP2 SUB DUP3 MSTORE PUSH1 0x2F DUP2 MSTORE PUSH1 0x20 ADD DUP1 PUSH2 0x319D PUSH1 0x2F SWAP2 CODECOPY PUSH1 0x40 ADD SWAP2 POP POP PUSH1 0x40 MLOAD DUP1 SWAP2 SUB SWAP1 REVERT JUMPDEST PUSH1 0x0 PUSH1 0x7 PUSH2 0x26A8 PUSH2 0x2F54 JUMP JUMPDEST EQ DUP1 PUSH2 0x26C4 JUMPI POP PUSH1 0x7 PUSH2 0x26B9 PUSH2 0x2F54 JUMP JUMPDEST GAS PUSH2 0x26C2 PUSH2 0x2FF5 JUMP JUMPDEST GT JUMPDEST PUSH2 0x2719 JUMPI PUSH1 0x40 MLOAD PUSH32 0x8C379A000000000000000000000000000000000000000000000000000000000 DUP2 MSTORE PUSH1 0x4 ADD DUP1 DUP1 PUSH1 0x20 ADD DUP3 DUP2 SUB DUP3 MSTORE PUSH1 0x58 DUP2 MSTORE PUSH1 0x20 ADD DUP1 PUSH2 0x3110 PUSH1 0x58 SWAP2 CODECOPY PUSH1 0x60 ADD SWAP2 POP POP PUSH1 0x40 MLOAD DUP1 SWAP2 SUB SWAP1 REVERT JUMPDEST DUP1 PUSH1 0x9 DUP2 SWAP1 PUSH2 0x2726 PUSH2 0x2FBC JUMP JUMPDEST POP POP POP PUSH32 0xFB46CA5A5E06D4540D6387B930A7C978BCE0DB5F449EC6B3F5D07C6E1D44F2D3 PUSH1 0x9 PUSH2 0x2754 PUSH2 0x2F54 JUMP JUMPDEST PUSH1 0x40 MLOAD DUP1 DUP3 DUP2 MSTORE PUSH1 0x20 ADD SWAP2 POP POP PUSH1 0x40 MLOAD DUP1 SWAP2 SUB SWAP1 LOG1 POP JUMP JUMPDEST PUSH1 0x0 DUP1 PUSH1 0xE PUSH2 0x2779 PUSH2 0x2F54 JUMP JUMPDEST EQ ISZERO PUSH2 0x2790 JUMPI PUSH1 0xB PUSH2 0x2789 PUSH2 0x2F54 JUMP JUMPDEST SWAP1 POP PUSH2 0x2821 JUMP JUMPDEST PUSH2 0x281E PUSH2 0x2806 PUSH1 0xE PUSH2 0x27A0 PUSH2 0x2F54 JUMP JUMPDEST PUSH2 0x27F8 PUSH8 0xDE0B6B3A7640000 PUSH2 0x27EA PUSH1 0x8 PUSH2 0x27B9 PUSH2 0x2F54 JUMP JUMPDEST PUSH2 0x27DC PUSH1 0xA PUSH2 0x27C6 PUSH2 0x2F54 JUMP JUMPDEST PUSH2 0x27CE PUSH2 0x1CC7 JUMP JUMPDEST PUSH2 0x28CC SWAP1 SWAP2 SWAP1 PUSH4 0xFFFFFFFF AND JUMP JUMPDEST PUSH2 0x2955 SWAP1 SWAP2 SWAP1 PUSH4 0xFFFFFFFF AND JUMP JUMPDEST PUSH2 0x2955 SWAP1 SWAP2 SWAP1 PUSH4 0xFFFFFFFF AND JUMP JUMPDEST PUSH2 0x29DB SWAP1 SWAP2 SWAP1 PUSH4 0xFFFFFFFF AND JUMP JUMPDEST PUSH1 0xB PUSH2 0x2810 PUSH2 0x2F54 JUMP JUMPDEST PUSH2 0x2A6A SWAP1 SWAP2 SWAP1 PUSH4 0xFFFFFFFF AND JUMP JUMPDEST SWAP1 POP JUMPDEST SWAP1 JUMP JUMPDEST PUSH1 0x5 PUSH1 0x1 SWAP1 PUSH2 0x2831 PUSH2 0x2F54 JUMP JUMPDEST SWAP1 PUSH2 0x100 EXP SWAP1 DIV PUSH20 0xFFFFFFFFFFFFFFFFFFFFFFFFFFFFFFFFFFFFFFFF AND DUP2 JUMP JUMPDEST PUSH1 0xB PUSH2 0x285B PUSH2 0x2F54 JUMP JUMPDEST DUP2 JUMP JUMPDEST PUSH2 0x28B5 PUSH1 0xF PUSH1 0x0 GAS PUSH2 0x286E PUSH2 0x2F8B JUMP JUMPDEST PUSH20 0xFFFFFFFFFFFFFFFFFFFFFFFFFFFFFFFFFFFFFFFF AND PUSH20 0xFFFFFFFFFFFFFFFFFFFFFFFFFFFFFFFFFFFFFFFF AND DUP2 MSTORE PUSH1 0x20 ADD SWAP1 DUP2 MSTORE PUSH1 0x20 ADD PUSH1 0x0 KECCAK256 PUSH2 0x28B0 PUSH2 0x2F54 JUMP JUMPDEST PUSH2 0xD76 JUMP JUMPDEST PUSH2 0x28BD PUSH2 0x1631 JUMP JUMPDEST JUMP JUMPDEST PUSH1 0x7 PUSH2 0x28C9 PUSH2 0x2F54 JUMP JUMPDEST DUP2 JUMP JUMPDEST PUSH1 0x0 DUP3 DUP3 GT ISZERO PUSH2 0x2944 JUMPI PUSH1 0x40 MLOAD PUSH32 0x8C379A000000000000000000000000000000000000000000000000000000000 DUP2 MSTORE PUSH1 0x4 ADD DUP1 DUP1 PUSH1 0x20 ADD DUP3 DUP2 SUB DUP3 MSTORE PUSH1 0x1E DUP2 MSTORE PUSH1 0x20 ADD DUP1 PUSH32 0x536166654D6174683A207375627472616374696F6E206F766572666C6F770000 DUP2 MSTORE POP PUSH1 0x20 ADD SWAP2 POP POP PUSH1 0x40 MLOAD DUP1 SWAP2 SUB SWAP1 REVERT JUMPDEST PUSH1 0x0 DUP3 DUP5 SUB SWAP1 POP DUP1 SWAP2 POP POP SWAP3 SWAP2 POP POP JUMP JUMPDEST PUSH1 0x0 DUP1 DUP4 EQ ISZERO PUSH2 0x2968 JUMPI PUSH1 0x0 SWAP1 POP PUSH2 0x29D5 JUMP JUMPDEST PUSH1 0x0 DUP3 DUP5 MUL SWAP1 POP DUP3 DUP5 DUP3 DUP2 PUSH2 0x2979 JUMPI INVALID JUMPDEST DIV EQ PUSH2 0x29D0 JUMPI PUSH1 0x40 MLOAD PUSH32 0x8C379A000000000000000000000000000000000000000000000000000000000 DUP2 MSTORE PUSH1 0x4 ADD DUP1 DUP1 PUSH1 0x20 ADD DUP3 DUP2 SUB DUP3 MSTORE PUSH1 0x21 DUP2 MSTORE PUSH1 0x20 ADD DUP1 PUSH2 0x31CC PUSH1 0x21 SWAP2 CODECOPY PUSH1 0x40 ADD SWAP2 POP POP PUSH1 0x40 MLOAD DUP1 SWAP2 SUB SWAP1 REVERT JUMPDEST DUP1 SWAP2 POP POP JUMPDEST SWAP3 SWAP2 POP POP JUMP JUMPDEST PUSH1 0x0 DUP1 DUP3 GT PUSH2 0x2A52 JUMPI PUSH1 0x40 MLOAD PUSH32 0x8C379A000000000000000000000000000000000000000000000000000000000 DUP2 MSTORE PUSH1 0x4 ADD DUP1 DUP1 PUSH1 0x20 ADD DUP3 DUP2 SUB DUP3 MSTORE PUSH1 0x1A DUP2 MSTORE PUSH1 0x20 ADD DUP1 PUSH32 0x536166654D6174683A206469766973696F6E206279207A65726F000000000000 DUP2 MSTORE POP PUSH1 0x20 ADD SWAP2 POP POP PUSH1 0x40 MLOAD DUP1 SWAP2 SUB SWAP1 REVERT JUMPDEST PUSH1 0x0 DUP3 DUP5 DUP2 PUSH2 0x2A5D JUMPI INVALID JUMPDEST DIV SWAP1 POP DUP1 SWAP2 POP POP SWAP3 SWAP2 POP POP JUMP JUMPDEST PUSH1 0x0 DUP1 DUP3 DUP5 ADD SWAP1 POP DUP4 DUP2 LT ISZERO PUSH2 0x2AE8 JUMPI PUSH1 0x40 MLOAD PUSH32 0x8C379A000000000000000000000000000000000000000000000000000000000 DUP2 MSTORE PUSH1 0x4 ADD DUP1 DUP1 PUSH1 0x20 ADD DUP3 DUP2 SUB DUP3 MSTORE PUSH1 0x1B DUP2 MSTORE PUSH1 0x20 ADD DUP1 PUSH32 0x536166654D6174683A206164646974696F6E206F766572666C6F770000000000 DUP2 MSTORE POP PUSH1 0x20 ADD SWAP2 POP POP PUSH1 0x40 MLOAD DUP1 SWAP2 SUB SWAP1 REVERT JUMPDEST DUP1 SWAP2 POP POP SWAP3 SWAP2 POP POP JUMP JUMPDEST PUSH2 0x2BBE DUP4 DUP5 PUSH20 0xFFFFFFFFFFFFFFFFFFFFFFFFFFFFFFFFFFFFFFFF AND PUSH4 0xA9059CBB SWAP1 POP PUSH1 0xE0 SHL DUP5 DUP5 PUSH1 0x40 MLOAD PUSH1 0x24 ADD DUP1 DUP4 PUSH20 0xFFFFFFFFFFFFFFFFFFFFFFFFFFFFFFFFFFFFFFFF AND PUSH20 0xFFFFFFFFFFFFFFFFFFFFFFFFFFFFFFFFFFFFFFFF AND DUP2 MSTORE PUSH1 0x20 ADD DUP3 DUP2 MSTORE PUSH1 0x20 ADD SWAP3 POP POP POP PUSH1 0x40 MLOAD PUSH1 0x20 DUP2 DUP4 SUB SUB DUP2 MSTORE SWAP1 PUSH1 0x40 MSTORE SWAP1 PUSH28 0xFFFFFFFFFFFFFFFFFFFFFFFFFFFFFFFFFFFFFFFFFFFFFFFFFFFFFFFF NOT AND PUSH1 0x20 DUP3 ADD DUP1 MLOAD PUSH28 0xFFFFFFFFFFFFFFFFFFFFFFFFFFFFFFFFFFFFFFFFFFFFFFFFFFFFFFFF DUP4 DUP2 DUP4 AND OR DUP4 MSTORE POP POP POP POP PUSH2 0x2CE2 JUMP JUMPDEST POP POP POP JUMP JUMPDEST PUSH1 0x0 DUP2 DUP4 LT PUSH2 0x2BD2 JUMPI DUP2 PUSH2 0x2BD4 JUMP JUMPDEST DUP3 JUMPDEST SWAP1 POP SWAP3 SWAP2 POP POP JUMP JUMPDEST PUSH2 0x2CDC DUP5 DUP6 PUSH20 0xFFFFFFFFFFFFFFFFFFFFFFFFFFFFFFFFFFFFFFFF AND PUSH4 0x23B872DD SWAP1 POP PUSH1 0xE0 SHL DUP6 DUP6 DUP6 PUSH1 0x40 MLOAD PUSH1 0x24 ADD DUP1 DUP5 PUSH20 0xFFFFFFFFFFFFFFFFFFFFFFFFFFFFFFFFFFFFFFFF AND PUSH20 0xFFFFFFFFFFFFFFFFFFFFFFFFFFFFFFFFFFFFFFFF AND DUP2 MSTORE PUSH1 0x20 ADD DUP4 PUSH20 0xFFFFFFFFFFFFFFFFFFFFFFFFFFFFFFFFFFFFFFFF AND PUSH20 0xFFFFFFFFFFFFFFFFFFFFFFFFFFFFFFFFFFFFFFFF AND DUP2 MSTORE PUSH1 0x20 ADD DUP3 DUP2 MSTORE PUSH1 0x20 ADD SWAP4 POP POP POP POP PUSH1 0x40 MLOAD PUSH1 0x20 DUP2 DUP4 SUB SUB DUP2 MSTORE SWAP1 PUSH1 0x40 MSTORE SWAP1 PUSH28 0xFFFFFFFFFFFFFFFFFFFFFFFFFFFFFFFFFFFFFFFFFFFFFFFFFFFFFFFF NOT AND PUSH1 0x20 DUP3 ADD DUP1 MLOAD PUSH28 0xFFFFFFFFFFFFFFFFFFFFFFFFFFFFFFFFFFFFFFFFFFFFFFFFFFFFFFFF DUP4 DUP2 DUP4 AND OR DUP4 MSTORE POP POP POP POP PUSH2 0x2CE2 JUMP JUMPDEST POP POP POP POP JUMP JUMPDEST PUSH2 0x2D01 DUP3 PUSH20 0xFFFFFFFFFFFFFFFFFFFFFFFFFFFFFFFFFFFFFFFF AND PUSH2 0x2F3A JUMP JUMPDEST PUSH2 0x2D73 JUMPI PUSH1 0x40 MLOAD PUSH32 0x8C379A000000000000000000000000000000000000000000000000000000000 DUP2 MSTORE PUSH1 0x4 ADD DUP1 DUP1 PUSH1 0x20 ADD DUP3 DUP2 SUB DUP3 MSTORE PUSH1 0x1F DUP2 MSTORE PUSH1 0x20 ADD DUP1 PUSH32 0x5361666545524332303A2063616C6C20746F206E6F6E2D636F6E747261637400 DUP2 MSTORE POP PUSH1 0x20 ADD SWAP2 POP POP PUSH1 0x40 MLOAD DUP1 SWAP2 SUB SWAP1 REVERT JUMPDEST PUSH1 0x0 PUSH1 0x60 DUP4 PUSH20 0xFFFFFFFFFFFFFFFFFFFFFFFFFFFFFFFFFFFFFFFF AND DUP4 PUSH1 0x40 MLOAD DUP1 DUP3 DUP1 MLOAD SWAP1 PUSH1 0x20 ADD SWAP1 DUP1 DUP4 DUP4 JUMPDEST PUSH1 0x20 DUP4 LT PUSH2 0x2DC2 JUMPI DUP1 MLOAD DUP3 MSTORE PUSH1 0x20 DUP3 ADD SWAP2 POP PUSH1 0x20 DUP2 ADD SWAP1 POP PUSH1 0x20 DUP4 SUB SWAP3 POP PUSH2 0x2D9F JUMP JUMPDEST PUSH1 0x1 DUP4 PUSH1 0x20 SUB PUSH2 0x100 EXP SUB DUP1 NOT DUP3 MLOAD AND DUP2 DUP5 MLOAD AND DUP1 DUP3 OR DUP6 MSTORE POP POP POP POP POP POP SWAP1 POP ADD SWAP2 POP POP PUSH1 0x0 PUSH1 0x40 MLOAD DUP1 DUP4 SUB DUP2 PUSH1 0x0 DUP7 GAS PUSH2 0x2DFC PUSH2 0x30B6 JUMP JUMPDEST POP POP POP POP POP POP SWAP2 POP POP RETURNDATASIZE DUP1 PUSH1 0x0 DUP2 EQ PUSH2 0x2E31 JUMPI PUSH1 0x40 MLOAD SWAP2 POP PUSH1 0x1F NOT PUSH1 0x3F RETURNDATASIZE ADD AND DUP3 ADD PUSH1 0x40 MSTORE RETURNDATASIZE DUP3 MSTORE RETURNDATASIZE PUSH1 0x0 PUSH1 0x20 DUP5 ADD RETURNDATACOPY PUSH2 0x2E36 JUMP JUMPDEST PUSH1 0x60 SWAP2 POP JUMPDEST POP SWAP2 POP SWAP2 POP DUP2 PUSH2 0x2EAE JUMPI PUSH1 0x40 MLOAD PUSH32 0x8C379A000000000000000000000000000000000000000000000000000000000 DUP2 MSTORE PUSH1 0x4 ADD DUP1 DUP1 PUSH1 0x20 ADD DUP3 DUP2 SUB DUP3 MSTORE PUSH1 0x20 DUP2 MSTORE PUSH1 0x20 ADD DUP1 PUSH32 0x5361666545524332303A206C6F772D6C6576656C2063616C6C206661696C6564 DUP2 MSTORE POP PUSH1 0x20 ADD SWAP2 POP POP PUSH1 0x40 MLOAD DUP1 SWAP2 SUB SWAP1 REVERT JUMPDEST PUSH1 0x0 DUP2 MLOAD GT ISZERO PUSH2 0x2F34 JUMPI DUP1 DUP1 PUSH1 0x20 ADD SWAP1 MLOAD PUSH1 0x20 DUP2 LT ISZERO PUSH2 0x2ECD JUMPI PUSH1 0x0 DUP1 REVERT JUMPDEST DUP2 ADD SWAP1 DUP1 DUP1 MLOAD SWAP1 PUSH1 0x20 ADD SWAP1 SWAP3 SWAP2 SWAP1 POP POP POP PUSH2 0x2F33 JUMPI PUSH1 0x40 MLOAD PUSH32 0x8C379A000000000000000000000000000000000000000000000000000000000 DUP2 MSTORE PUSH1 0x4 ADD DUP1 DUP1 PUSH1 0x20 ADD DUP3 DUP2 SUB DUP3 MSTORE PUSH1 0x2A DUP2 MSTORE PUSH1 0x20 ADD DUP1 PUSH2 0x3280 PUSH1 0x2A SWAP2 CODECOPY PUSH1 0x40 ADD SWAP2 POP POP PUSH1 0x40 MLOAD DUP1 SWAP2 SUB SWAP1 REVERT JUMPDEST JUMPDEST POP POP POP POP JUMP JUMPDEST PUSH1 0x0 DUP1 DUP3 PUSH2 0x2F46 PUSH2 0x3026 JUMP JUMPDEST SWAP1 POP PUSH1 0x0 DUP2 GT SWAP2 POP POP SWAP2 SWAP1 POP JUMP JUMPDEST PUSH4 0x20966208 PUSH3 0x80000 DUP2 PUSH1 0xE0 SHL DUP2 MSTORE DUP4 PUSH1 0x4 DUP3 ADD MSTORE PUSH1 0x20 DUP2 PUSH1 0x24 DUP4 PUSH1 0x0 CALLER GAS CALL PUSH1 0x0 DUP2 EQ ISZERO PUSH2 0x2F82 JUMPI PUSH1 0x0 DUP1 REVERT JUMPDEST DUP2 MLOAD SWAP5 POP POP POP POP JUMP JUMPDEST PUSH4 0x73509064 PUSH3 0x80000 DUP2 PUSH1 0xE0 SHL DUP2 MSTORE PUSH1 0x20 DUP2 PUSH1 0x4 DUP4 PUSH1 0x0 CALLER GAS CALL PUSH1 0x0 DUP2 EQ ISZERO PUSH2 0x2FB3 JUMPI PUSH1 0x0 DUP1 REVERT JUMPDEST DUP2 MLOAD SWAP5 POP POP POP POP JUMP JUMPDEST PUSH4 0x28DCB2A0 PUSH3 0x80000 DUP2 PUSH1 0xE0 SHL DUP2 MSTORE DUP4 PUSH1 0x4 DUP3 ADD MSTORE DUP5 PUSH1 0x24 DUP3 ADD MSTORE PUSH1 0x0 DUP2 PUSH1 0x44 DUP4 PUSH1 0x0 CALLER GAS CALL PUSH1 0x0 DUP2 EQ ISZERO PUSH2 0x2FF0 JUMPI PUSH1 0x0 DUP1 REVERT JUMPDEST POP POP POP JUMP JUMPDEST PUSH4 0xBDBF8C36 PUSH3 0x80000 DUP2 PUSH1 0xE0 SHL DUP2 MSTORE PUSH1 0x20 DUP2 PUSH1 0x4 DUP4 PUSH1 0x0 CALLER GAS CALL PUSH1 0x0 DUP2 EQ ISZERO PUSH2 0x301D JUMPI PUSH1 0x0 DUP1 REVERT JUMPDEST DUP2 MLOAD SWAP5 POP POP POP POP JUMP JUMPDEST PUSH4 0xC3382D0F PUSH3 0x80000 DUP2 PUSH1 0xE0 SHL DUP2 MSTORE DUP4 PUSH1 0x4 DUP3 ADD MSTORE PUSH1 0x20 DUP2 PUSH1 0x24 DUP4 PUSH1 0x0 CALLER GAS CALL PUSH1 0x0 DUP2 EQ ISZERO PUSH2 0x3054 JUMPI PUSH1 0x0 DUP1 REVERT JUMPDEST DUP2 MLOAD SWAP5 POP POP POP POP JUMP JUMPDEST PUSH4 0xFBB0F79D PUSH3 0x80000 DUP2 PUSH1 0xE0 SHL DUP2 MSTORE DUP5 PUSH1 0x4 DUP3 ADD MSTORE PUSH1 0x0 JUMPDEST DUP8 DUP2 LT ISZERO PUSH2 0x3093 JUMPI DUP1 DUP8 ADD MLOAD DUP2 PUSH1 0x24 DUP5 ADD ADD MSTORE PUSH1 0x20 DUP2 ADD SWAP1 POP PUSH2 0x3075 JUMP JUMPDEST POP DUP9 DUP9 DUP9 PUSH1 0x24 ADD DUP4 PUSH1 0x0 CALLER GAS CALL PUSH1 0x0 DUP2 EQ ISZERO PUSH2 0x30AE JUMPI PUSH1 0x0 DUP1 REVERT JUMPDEST DUP1 SWAP10 POP POP POP POP JUMP JUMPDEST PUSH4 0x4C6D7C84 PUSH3 0x80000 DUP2 PUSH1 0xE0 SHL DUP2 MSTORE DUP5 PUSH1 0x4 DUP3 ADD MSTORE PUSH1 0x0 JUMPDEST DUP9 DUP2 LT ISZERO PUSH2 0x30EC JUMPI DUP1 DUP9 ADD MLOAD DUP2 PUSH1 0x24 DUP5 ADD ADD MSTORE PUSH1 0x20 DUP2 ADD SWAP1 POP PUSH2 0x30CE JUMP JUMPDEST POP DUP10 DUP10 DUP10 PUSH1 0x24 ADD DUP4 PUSH1 0x0 CALLER GAS CALL PUSH1 0x0 DUP2 EQ ISZERO PUSH2 0x3107 JUMPI PUSH1 0x0 DUP1 REVERT JUMPDEST DUP1 SWAP11 POP POP POP POP JUMP INVALID POP PUSH19 0x6576696F757320726577617264732070657269 PUSH16 0x64206D75737420626520636F6D706C65 PUSH21 0x65206265666F7265206368616E67696E6720746865 KECCAK256 PUSH5 0x7572617469 PUSH16 0x6E20666F7220746865206E6577207065 PUSH19 0x696F64596F75206D757374206265206E6F6D69 PUSH15 0x61746564206265666F726520796F75 KECCAK256 PUSH4 0x616E2061 PUSH4 0x63657074 KECCAK256 PUSH16 0x776E6572736869704F6E6C7920746865 KECCAK256 PUSH4 0x6F6E7472 PUSH2 0x6374 KECCAK256 PUSH16 0x776E6572206D617920706572666F726D KECCAK256 PUSH21 0x68697320616374696F6E536166654D6174683A206D PUSH22 0x6C7469706C69636174696F6E206F766572666C6F7754 PUSH9 0x697320616374696F6E KECCAK256 PUSH4 0x616E6E6F PUSH21 0x20626520706572666F726D6564207768696C652074 PUSH9 0x6520636F6E74726163 PUSH21 0x2069732070617573656443616E6E6F742077697468 PUSH5 0x7261772074 PUSH9 0x65207374616B696E67 KECCAK256 PUSH16 0x72207265776172647320746F6B656E73 NUMBER PUSH2 0x6C6C PUSH6 0x72206973206E PUSH16 0x74205265776172647344697374726962 PUSH22 0x74696F6E20636F6E7472616374536166654552433230 GASPRICE KECCAK256 GASLIMIT MSTORE NUMBER ORIGIN ADDRESS KECCAK256 PUSH16 0x7065726174696F6E20646964206E6F74 KECCAK256 PUSH20 0x756363656564A265627A7A72315820F508F13BFF CODECOPY CALLER 0xBD 0xFC PUSH1 0xE 0xAB 0x24 0x26 0xDE DIV PUSH14 0xEC31671D0BE723C230011519AF93 SWAP2 PUSH5 0x736F6C6378 0x28 ADDRESS 0x2E CALLDATALOAD 0x2E BALANCE CALLDATASIZE 0x2D PUSH5 0x6576656C6F PUSH17 0x2E323032302E372E32392B636F6D6D6974 0x2E CALLDATASIZE ORIGIN PUSH6 0x363465363700 PC "
		}
	}
}