{
	"abi": [
		{
			"inputs": [
				{
					"internalType": "address",
					"name": "_owner",
					"type": "address"
				}
			],
			"payable": false,
			"stateMutability": "nonpayable",
			"type": "constructor"
		},
		{
			"anonymous": false,
			"inputs": [
				{
					"indexed": true,
					"internalType": "bytes32",
					"name": "section",
					"type": "bytes32"
				},
				{
					"indexed": true,
					"internalType": "address",
					"name": "account",
					"type": "address"
				},
				{
					"indexed": false,
					"internalType": "bool",
					"name": "canSuspend",
					"type": "bool"
				},
				{
					"indexed": false,
					"internalType": "bool",
					"name": "canResume",
					"type": "bool"
				}
			],
			"name": "AccessControlUpdated",
			"type": "event"
		},
		{
			"anonymous": false,
			"inputs": [
				{
					"indexed": false,
					"internalType": "uint256",
					"name": "reason",
					"type": "uint256"
				}
			],
			"name": "ExchangeResumed",
			"type": "event"
		},
		{
			"anonymous": false,
			"inputs": [
				{
					"indexed": false,
					"internalType": "uint256",
					"name": "reason",
					"type": "uint256"
				}
			],
			"name": "ExchangeSuspended",
			"type": "event"
		},
		{
			"anonymous": false,
			"inputs": [
				{
					"indexed": false,
					"internalType": "uint256",
					"name": "reason",
					"type": "uint256"
				}
			],
			"name": "IssuanceResumed",
			"type": "event"
		},
		{
			"anonymous": false,
			"inputs": [
				{
					"indexed": false,
					"internalType": "uint256",
					"name": "reason",
					"type": "uint256"
				}
			],
			"name": "IssuanceSuspended",
			"type": "event"
		},
		{
			"anonymous": false,
			"inputs": [
				{
					"indexed": false,
					"internalType": "address",
					"name": "oldOwner",
					"type": "address"
				},
				{
					"indexed": false,
					"internalType": "address",
					"name": "newOwner",
					"type": "address"
				}
			],
			"name": "OwnerChanged",
			"type": "event"
		},
		{
			"anonymous": false,
			"inputs": [
				{
					"indexed": false,
					"internalType": "address",
					"name": "newOwner",
					"type": "address"
				}
			],
			"name": "OwnerNominated",
			"type": "event"
		},
		{
			"anonymous": false,
			"inputs": [
				{
					"indexed": false,
					"internalType": "bytes32",
					"name": "currencyKey",
					"type": "bytes32"
				},
				{
					"indexed": false,
					"internalType": "uint256",
					"name": "reason",
					"type": "uint256"
				}
			],
			"name": "SynthResumed",
			"type": "event"
		},
		{
			"anonymous": false,
			"inputs": [
				{
					"indexed": false,
					"internalType": "bytes32",
					"name": "currencyKey",
					"type": "bytes32"
				},
				{
					"indexed": false,
					"internalType": "uint256",
					"name": "reason",
					"type": "uint256"
				}
			],
			"name": "SynthSuspended",
			"type": "event"
		},
		{
			"anonymous": false,
			"inputs": [
				{
					"indexed": false,
					"internalType": "uint256",
					"name": "reason",
					"type": "uint256"
				}
			],
			"name": "SystemResumed",
			"type": "event"
		},
		{
			"anonymous": false,
			"inputs": [
				{
					"indexed": false,
					"internalType": "uint256",
					"name": "reason",
					"type": "uint256"
				}
			],
			"name": "SystemSuspended",
			"type": "event"
		},
		{
			"constant": true,
			"inputs": [],
			"name": "SECTION_EXCHANGE",
			"outputs": [
				{
					"internalType": "bytes32",
					"name": "",
					"type": "bytes32"
				}
			],
			"payable": false,
			"stateMutability": "view",
			"type": "function"
		},
		{
			"constant": true,
			"inputs": [],
			"name": "SECTION_ISSUANCE",
			"outputs": [
				{
					"internalType": "bytes32",
					"name": "",
					"type": "bytes32"
				}
			],
			"payable": false,
			"stateMutability": "view",
			"type": "function"
		},
		{
			"constant": true,
			"inputs": [],
			"name": "SECTION_SYNTH",
			"outputs": [
				{
					"internalType": "bytes32",
					"name": "",
					"type": "bytes32"
				}
			],
			"payable": false,
			"stateMutability": "view",
			"type": "function"
		},
		{
			"constant": true,
			"inputs": [],
			"name": "SECTION_SYSTEM",
			"outputs": [
				{
					"internalType": "bytes32",
					"name": "",
					"type": "bytes32"
				}
			],
			"payable": false,
			"stateMutability": "view",
			"type": "function"
		},
		{
			"constant": true,
			"inputs": [],
			"name": "SUSPENSION_REASON_UPGRADE",
			"outputs": [
				{
					"internalType": "uint248",
					"name": "",
					"type": "uint248"
				}
			],
			"payable": false,
			"stateMutability": "view",
			"type": "function"
		},
		{
			"constant": false,
			"inputs": [],
			"name": "acceptOwnership",
			"outputs": [],
			"payable": false,
			"stateMutability": "nonpayable",
			"type": "function"
		},
		{
			"constant": true,
			"inputs": [
				{
					"internalType": "bytes32",
					"name": "",
					"type": "bytes32"
				},
				{
					"internalType": "address",
					"name": "",
					"type": "address"
				}
			],
			"name": "accessControl",
			"outputs": [
				{
					"internalType": "bool",
					"name": "canSuspend",
					"type": "bool"
				},
				{
					"internalType": "bool",
					"name": "canResume",
					"type": "bool"
				}
			],
			"payable": false,
			"stateMutability": "view",
			"type": "function"
		},
		{
			"constant": true,
			"inputs": [],
			"name": "exchangeSuspension",
			"outputs": [
				{
					"internalType": "bool",
					"name": "suspended",
					"type": "bool"
				},
				{
					"internalType": "uint248",
					"name": "reason",
					"type": "uint248"
				}
			],
			"payable": false,
			"stateMutability": "view",
			"type": "function"
		},
		{
			"constant": true,
			"inputs": [
				{
					"internalType": "bytes32[]",
					"name": "synths",
					"type": "bytes32[]"
				}
			],
			"name": "getSynthSuspensions",
			"outputs": [
				{
					"internalType": "bool[]",
					"name": "suspensions",
					"type": "bool[]"
				},
				{
					"internalType": "uint256[]",
					"name": "reasons",
					"type": "uint256[]"
				}
			],
			"payable": false,
			"stateMutability": "view",
			"type": "function"
		},
		{
			"constant": true,
			"inputs": [],
			"name": "isSystemUpgrading",
			"outputs": [
				{
					"internalType": "bool",
					"name": "",
					"type": "bool"
				}
			],
			"payable": false,
			"stateMutability": "view",
			"type": "function"
		},
		{
			"constant": true,
			"inputs": [],
			"name": "issuanceSuspension",
			"outputs": [
				{
					"internalType": "bool",
					"name": "suspended",
					"type": "bool"
				},
				{
					"internalType": "uint248",
					"name": "reason",
					"type": "uint248"
				}
			],
			"payable": false,
			"stateMutability": "view",
			"type": "function"
		},
		{
			"constant": false,
			"inputs": [
				{
					"internalType": "address",
					"name": "_owner",
					"type": "address"
				}
			],
			"name": "nominateNewOwner",
			"outputs": [],
			"payable": false,
			"stateMutability": "nonpayable",
			"type": "function"
		},
		{
			"constant": true,
			"inputs": [],
			"name": "nominatedOwner",
			"outputs": [
				{
					"internalType": "address",
					"name": "",
					"type": "address"
				}
			],
			"payable": false,
			"stateMutability": "view",
			"type": "function"
		},
		{
			"constant": true,
			"inputs": [],
			"name": "owner",
			"outputs": [
				{
					"internalType": "address",
					"name": "",
					"type": "address"
				}
			],
			"payable": false,
			"stateMutability": "view",
			"type": "function"
		},
		{
			"constant": true,
			"inputs": [],
			"name": "requireExchangeActive",
			"outputs": [],
			"payable": false,
			"stateMutability": "view",
			"type": "function"
		},
		{
			"constant": true,
			"inputs": [],
			"name": "requireIssuanceActive",
			"outputs": [],
			"payable": false,
			"stateMutability": "view",
			"type": "function"
		},
		{
			"constant": true,
			"inputs": [
				{
					"internalType": "bytes32",
					"name": "currencyKey",
					"type": "bytes32"
				}
			],
			"name": "requireSynthActive",
			"outputs": [],
			"payable": false,
			"stateMutability": "view",
			"type": "function"
		},
		{
			"constant": true,
			"inputs": [
				{
					"internalType": "bytes32",
					"name": "sourceCurrencyKey",
					"type": "bytes32"
				},
				{
					"internalType": "bytes32",
					"name": "destinationCurrencyKey",
					"type": "bytes32"
				}
			],
			"name": "requireSynthsActive",
			"outputs": [],
			"payable": false,
			"stateMutability": "view",
			"type": "function"
		},
		{
			"constant": true,
			"inputs": [],
			"name": "requireSystemActive",
			"outputs": [],
			"payable": false,
			"stateMutability": "view",
			"type": "function"
		},
		{
			"constant": false,
			"inputs": [],
			"name": "resumeExchange",
			"outputs": [],
			"payable": false,
			"stateMutability": "nonpayable",
			"type": "function"
		},
		{
			"constant": false,
			"inputs": [],
			"name": "resumeIssuance",
			"outputs": [],
			"payable": false,
			"stateMutability": "nonpayable",
			"type": "function"
		},
		{
			"constant": false,
			"inputs": [
				{
					"internalType": "bytes32",
					"name": "currencyKey",
					"type": "bytes32"
				}
			],
			"name": "resumeSynth",
			"outputs": [],
			"payable": false,
			"stateMutability": "nonpayable",
			"type": "function"
		},
		{
			"constant": false,
			"inputs": [],
			"name": "resumeSystem",
			"outputs": [],
			"payable": false,
			"stateMutability": "nonpayable",
			"type": "function"
		},
		{
			"constant": false,
			"inputs": [
				{
					"internalType": "uint256",
					"name": "reason",
					"type": "uint256"
				}
			],
			"name": "suspendExchange",
			"outputs": [],
			"payable": false,
			"stateMutability": "nonpayable",
			"type": "function"
		},
		{
			"constant": false,
			"inputs": [
				{
					"internalType": "uint256",
					"name": "reason",
					"type": "uint256"
				}
			],
			"name": "suspendIssuance",
			"outputs": [],
			"payable": false,
			"stateMutability": "nonpayable",
			"type": "function"
		},
		{
			"constant": false,
			"inputs": [
				{
					"internalType": "bytes32",
					"name": "currencyKey",
					"type": "bytes32"
				},
				{
					"internalType": "uint256",
					"name": "reason",
					"type": "uint256"
				}
			],
			"name": "suspendSynth",
			"outputs": [],
			"payable": false,
			"stateMutability": "nonpayable",
			"type": "function"
		},
		{
			"constant": false,
			"inputs": [
				{
					"internalType": "uint256",
					"name": "reason",
					"type": "uint256"
				}
			],
			"name": "suspendSystem",
			"outputs": [],
			"payable": false,
			"stateMutability": "nonpayable",
			"type": "function"
		},
		{
			"constant": true,
			"inputs": [
				{
					"internalType": "bytes32",
					"name": "",
					"type": "bytes32"
				}
			],
			"name": "synthSuspension",
			"outputs": [
				{
					"internalType": "bool",
					"name": "suspended",
					"type": "bool"
				},
				{
					"internalType": "uint248",
					"name": "reason",
					"type": "uint248"
				}
			],
			"payable": false,
			"stateMutability": "view",
			"type": "function"
		},
		{
			"constant": true,
			"inputs": [],
			"name": "systemSuspension",
			"outputs": [
				{
					"internalType": "bool",
					"name": "suspended",
					"type": "bool"
				},
				{
					"internalType": "uint248",
					"name": "reason",
					"type": "uint248"
				}
			],
			"payable": false,
			"stateMutability": "view",
			"type": "function"
		},
		{
			"constant": false,
			"inputs": [
				{
					"internalType": "bytes32",
					"name": "section",
					"type": "bytes32"
				},
				{
					"internalType": "address",
					"name": "account",
					"type": "address"
				},
				{
					"internalType": "bool",
					"name": "canSuspend",
					"type": "bool"
				},
				{
					"internalType": "bool",
					"name": "canResume",
					"type": "bool"
				}
			],
			"name": "updateAccessControl",
			"outputs": [],
			"payable": false,
			"stateMutability": "nonpayable",
			"type": "function"
		}
	],
	"evm": {
		"bytecode": {
			"linkReferences": {},
			"object": "60806040523480156200001157600080fd5b5060405162002aa338038062002aa3833981810160405260208110156200003757600080fd5b810190808051906020019092919050505080600073ffffffffffffffffffffffffffffffffffffffff168173ffffffffffffffffffffffffffffffffffffffff1614156200008457600080fd5b806000806101000a8162000097620004c6565b8173ffffffffffffffffffffffffffffffffffffffff021916908373ffffffffffffffffffffffffffffffffffffffff16021790620000d5620004fe565b5050507fb532073b38c83145e3e5135377a08bf9aab55bc0fd7c1179cd4fb995d2a5159c600082604051808373ffffffffffffffffffffffffffffffffffffffff1673ffffffffffffffffffffffffffffffffffffffff1681526020018273ffffffffffffffffffffffffffffffffffffffff1673ffffffffffffffffffffffffffffffffffffffff1681526020019250505060405180910390a150620001a67f53797374656d0000000000000000000000000000000000000000000000000000826001806200024c60201b60201c565b620001db7f49737375616e6365000000000000000000000000000000000000000000000000826001806200024c60201b60201c565b620002107f45786368616e6765000000000000000000000000000000000000000000000000826001806200024c60201b60201c565b620002457f53796e7468000000000000000000000000000000000000000000000000000000826001806200024c60201b60201c565b5062000538565b7f53797374656d00000000000000000000000000000000000000000000000000008414806200029a57507f49737375616e636500000000000000000000000000000000000000000000000084145b80620002c557507f45786368616e676500000000000000000000000000000000000000000000000084145b80620002f057507f53796e746800000000000000000000000000000000000000000000000000000084145b62000363576040517f08c379a00000000000000000000000000000000000000000000000000000000081526004018080602001828103825260188152602001807f496e76616c69642073656374696f6e20737570706c696564000000000000000081525060200191505060405180910390fd5b816002600086815260200190815260200160002060008573ffffffffffffffffffffffffffffffffffffffff1673ffffffffffffffffffffffffffffffffffffffff16815260200190815260200160002060000160006101000a81620003c8620004c6565b8160ff02191690831515021790620003df620004fe565b505050806002600086815260200190815260200160002060008573ffffffffffffffffffffffffffffffffffffffff1673ffffffffffffffffffffffffffffffffffffffff16815260200190815260200160002060000160016101000a8162000447620004c6565b8160ff021916908315150217906200045e620004fe565b5050508273ffffffffffffffffffffffffffffffffffffffff16847f95bad30f8fe717e4a02906d7b05a6f90698c7135cd053e5b6d5239146b4c40d184846040518083151515158152602001821515151581526020019250505060405180910390a350505050565b6320966208620800008160e01b81528360048201526020816024836000335af16000811415620004f557600080fd5b81519450505050565b6328dcb2a0620800008160e01b81528360048201528460248201526000816044836000335af160008114156200053357600080fd5b505050565b61255b80620005486000396000f3fe608060405234801561001057600080fd5b50600436106101da5760003560e01c806367a280b2116101045780639f8a95ba116100a2578063f161620711610071578063f161620714610859578063f405f65a14610877578063f44d1e0b14610881578063f8b4b0841461089f576101da565b80639f8a95ba1461067d578063abc0bb6e146106dd578063b9a4986914610715578063e470df581461082b576101da565b806379ba5097116100de57806379ba5097146105f15780637c312541146105fb5780638da5cb5b1461060557806394c79f741461064f576101da565b806367a280b21461054e5780637118d431146105585780637243bc2c14610562576101da565b80632dd8afdb1161017c57806348bf19711161014b57806348bf1971146104485780634abdb44d146104ae57806353a47bb7146104cc5780636132eba414610516576101da565b80632dd8afdb1461035f5780632e8d0b9e146103ca578063396e258e146103ec57806342a28e211461041a576101da565b80631588e817116101b85780631588e817146102115780631627540c1461023f57806320f2bf00146102835780632366245e146102f4576101da565b8063086dabd1146101df57806312bde514146101e9578063157c51d314610207575b600080fd5b6101e761090a565b005b6101f1610914565b6040518082815260200191505060405180910390f35b61020f610938565b005b61023d6004803603602081101561022757600080fd5b8101908080359060200190929190505050610a8b565b005b6102816004803603602081101561025557600080fd5b81019080803573ffffffffffffffffffffffffffffffffffffffff169060200190929190505050610b86565b005b6102cf6004803603604081101561029957600080fd5b8101908080359060200190929190803573ffffffffffffffffffffffffffffffffffffffff169060200190929190505050610ca5565b6040518083151515158152602001821515151581526020019250505060405180910390f35b6102fc610cfe565b6040518083151515158152602001827effffffffffffffffffffffffffffffffffffffffffffffffffffffffffffff167effffffffffffffffffffffffffffffffffffffffffffffffffffffffffffff1681526020019250505060405180910390f35b610367610d56565b6040518083151515158152602001827effffffffffffffffffffffffffffffffffffffffffffffffffffffffffffff167effffffffffffffffffffffffffffffffffffffffffffffffffffffffffffff1681526020019250505060405180910390f35b6103d2610dae565b604051808215151515815260200191505060405180910390f35b6104186004803603602081101561040257600080fd5b8101908080359060200190929190505050610e54565b005b6104466004803603602081101561043057600080fd5b8101908080359060200190929190505050610f4f565b005b6104ac6004803603608081101561045e57600080fd5b8101908080359060200190929190803573ffffffffffffffffffffffffffffffffffffffff169060200190929190803515159060200190929190803515159060200190929190505050610fdb565b005b6104b6611055565b6040518082815260200191505060405180910390f35b6104d4611079565b604051808273ffffffffffffffffffffffffffffffffffffffff1673ffffffffffffffffffffffffffffffffffffffff16815260200191505060405180910390f35b61054c6004803603604081101561052c57600080fd5b8101908080359060200190929190803590602001909291905050506110a6565b005b610556611167565b005b6105606112ba565b005b61058e6004803603602081101561057857600080fd5b8101908080359060200190929190505050611334565b6040518083151515158152602001827effffffffffffffffffffffffffffffffffffffffffffffffffffffffffffff167effffffffffffffffffffffffffffffffffffffffffffffffffffffffffffff1681526020019250505060405180910390f35b6105f961139e565b005b6106036115bc565b005b61060d611636565b604051808273ffffffffffffffffffffffffffffffffffffffff1673ffffffffffffffffffffffffffffffffffffffff16815260200191505060405180910390f35b61067b6004803603602081101561066557600080fd5b8101908080359060200190929190505050611662565b005b6106856117b2565b60405180827effffffffffffffffffffffffffffffffffffffffffffffffffffffffffffff167effffffffffffffffffffffffffffffffffffffffffffffffffffffffffffff16815260200191505060405180910390f35b610713600480360360408110156106f357600080fd5b8101908080359060200190929190803590602001909291905050506117b7565b005b61078c6004803603602081101561072b57600080fd5b810190808035906020019064010000000081111561074857600080fd5b82018360208201111561075a57600080fd5b8035906020019184602083028401116401000000008311171561077c57600080fd5b90919293919293905050506118dd565b604051808060200180602001838103835285818151815260200191508051906020019060200280838360005b838110156107d35780820151818401526020810190506107b8565b50505050905001838103825284818151815260200191508051906020019060200280838360005b838110156108155780820151818401526020810190506107fa565b5050505090500194505050505060405180910390f35b6108576004803603602081101561084157600080fd5b8101908080359060200190929190505050611a5f565b005b610861611bb2565b6040518082815260200191505060405180910390f35b61087f611bd6565b005b610889611d29565b6040518082815260200191505060405180910390f35b6108a7611d4d565b6040518083151515158152602001827effffffffffffffffffffffffffffffffffffffffffffffffffffffffffffff167effffffffffffffffffffffffffffffffffffffffffffffffffffffffffffff1681526020019250505060405180910390f35b610912611da5565b565b7f53797374656d000000000000000000000000000000000000000000000000000081565b6109617f53797374656d0000000000000000000000000000000000000000000000000000611f22565b6000600360000160006101000a81610977612320565b8160ff0219169083151502179061098c612357565b5050507fb392a95118344e8edff8eff56183afb4bb0240310c406a0fc1217d2755c66d8f60036000016001906109c0612320565b906101000a90047effffffffffffffffffffffffffffffffffffffffffffffffffffffffffffff167effffffffffffffffffffffffffffffffffffffffffffffffffffffffffffff166040518082815260200191505060405180910390a16000600360000160016101000a81610a34612320565b817effffffffffffffffffffffffffffffffffffffffffffffffffffffffffffff02191690837effffffffffffffffffffffffffffffffffffffffffffffffffffffffffffff16021790610a86612357565b505050565b610ab47f45786368616e6765000000000000000000000000000000000000000000000000611fea565b6001600560000160006101000a81610aca612320565b8160ff02191690831515021790610adf612357565b50505080600560000160016101000a81610af7612320565b817effffffffffffffffffffffffffffffffffffffffffffffffffffffffffffff02191690837effffffffffffffffffffffffffffffffffffffffffffffffffffffffffffff16021790610b49612357565b5050507f078773069a9216cdb6acaa7b184785f12f62048c7ce8b7ede1bad6785de16b22816040518082815260200191505060405180910390a150565b60008090610b92612320565b906101000a900473ffffffffffffffffffffffffffffffffffffffff1673ffffffffffffffffffffffffffffffffffffffff165a610bce612390565b73ffffffffffffffffffffffffffffffffffffffff1614610bee57600080fd5b80600160006101000a81610c00612320565b8173ffffffffffffffffffffffffffffffffffffffff021916908373ffffffffffffffffffffffffffffffffffffffff16021790610c3c612357565b5050507f906a1c6bd7e3091ea86693dd029a831c19049ce77f1dce2ce0bab1cacbabce2281604051808273ffffffffffffffffffffffffffffffffffffffff1673ffffffffffffffffffffffffffffffffffffffff16815260200191505060405180910390a150565b60026020528160005260406000206020528060005260406000206000915091505080600001600090610cd5612320565b906101000a900460ff169080600001600190610cef612320565b906101000a900460ff16905082565b600480600001600090610d0f612320565b906101000a900460ff169080600001600190610d29612320565b906101000a90047effffffffffffffffffffffffffffffffffffffffffffffffffffffffffffff16905082565b600380600001600090610d67612320565b906101000a900460ff169080600001600190610d81612320565b906101000a90047effffffffffffffffffffffffffffffffffffffffffffffffffffffffffffff16905082565b60006003600001600090610dc0612320565b906101000a900460ff168015610e4f575060017effffffffffffffffffffffffffffffffffffffffffffffffffffffffffffff166003600001600190610e04612320565b906101000a90047effffffffffffffffffffffffffffffffffffffffffffffffffffffffffffff167effffffffffffffffffffffffffffffffffffffffffffffffffffffffffffff16145b905090565b610e7d7f49737375616e6365000000000000000000000000000000000000000000000000611fea565b6001600460000160006101000a81610e93612320565b8160ff02191690831515021790610ea8612357565b50505080600460000160016101000a81610ec0612320565b817effffffffffffffffffffffffffffffffffffffffffffffffffffffffffffff02191690837effffffffffffffffffffffffffffffffffffffffffffffffffffffffffffff16021790610f12612357565b5050507fee8bf45d6e3141aa521ae4f0d05dfefe0327a3f23a9fbae6a64680458b34ebb8816040518082815260200191505060405180910390a150565b610f57611da5565b60066000828152602001908152602001600020600001600090610f78612320565b906101000a900460ff1615610fd8576040517f08c379a00000000000000000000000000000000000000000000000000000000081526004018080602001828103825260288152602001806124d96028913960400191505060405180910390fd5b50565b60008090610fe7612320565b906101000a900473ffffffffffffffffffffffffffffffffffffffff1673ffffffffffffffffffffffffffffffffffffffff165a611023612390565b73ffffffffffffffffffffffffffffffffffffffff161461104357600080fd5b61104f848484846120b2565b50505050565b7f49737375616e636500000000000000000000000000000000000000000000000081565b6001600090611086612320565b906101000a900473ffffffffffffffffffffffffffffffffffffffff1681565b6110ae611da5565b600660008381526020019081526020016000206000016000906110cf612320565b906101000a900460ff1615801561110e575060066000828152602001908152602001600020600001600090611102612320565b906101000a900460ff16155b611163576040517f08c379a00000000000000000000000000000000000000000000000000000000081526004018080602001828103825260368152602001806123c26036913960400191505060405180910390fd5b5050565b6111907f49737375616e6365000000000000000000000000000000000000000000000000611f22565b6000600460000160006101000a816111a6612320565b8160ff021916908315150217906111bb612357565b5050507f0f1a80395faba9a11017f830db5f90ad6525a1621dbfb2cbc2b6679ba571683760046000016001906111ef612320565b906101000a90047effffffffffffffffffffffffffffffffffffffffffffffffffffffffffffff167effffffffffffffffffffffffffffffffffffffffffffffffffffffffffffff166040518082815260200191505060405180910390a16000600460000160016101000a81611263612320565b817effffffffffffffffffffffffffffffffffffffffffffffffffffffffffffff02191690837effffffffffffffffffffffffffffffffffffffffffffffffffffffffffffff160217906112b5612357565b505050565b6112c2611da5565b60056000016000906112d2612320565b906101000a900460ff1615611332576040517f08c379a000000000000000000000000000000000000000000000000000000000815260040180806020018281038252602b815260200180612423602b913960400191505060405180910390fd5b565b600660205280600052604060002060009150905080600001600090611357612320565b906101000a900460ff169080600001600190611371612320565b906101000a90047effffffffffffffffffffffffffffffffffffffffffffffffffffffffffffff16905082565b60016000906113ab612320565b906101000a900473ffffffffffffffffffffffffffffffffffffffff1673ffffffffffffffffffffffffffffffffffffffff165a6113e7612390565b73ffffffffffffffffffffffffffffffffffffffff161461140757600080fd5b7fb532073b38c83145e3e5135377a08bf9aab55bc0fd7c1179cd4fb995d2a5159c60008090611434612320565b906101000a900473ffffffffffffffffffffffffffffffffffffffff16600160009061145e612320565b906101000a900473ffffffffffffffffffffffffffffffffffffffff16604051808373ffffffffffffffffffffffffffffffffffffffff1673ffffffffffffffffffffffffffffffffffffffff1681526020018273ffffffffffffffffffffffffffffffffffffffff1673ffffffffffffffffffffffffffffffffffffffff1681526020019250505060405180910390a160016000906114fc612320565b906101000a900473ffffffffffffffffffffffffffffffffffffffff166000806101000a81611529612320565b8173ffffffffffffffffffffffffffffffffffffffff021916908373ffffffffffffffffffffffffffffffffffffffff16021790611565612357565b5050506000600160006101000a8161157b612320565b8173ffffffffffffffffffffffffffffffffffffffff021916908373ffffffffffffffffffffffffffffffffffffffff160217906115b7612357565b505050565b6115c4611da5565b60046000016000906115d4612320565b906101000a900460ff1615611634576040517f08c379a000000000000000000000000000000000000000000000000000000000815260040180806020018281038252602b8152602001806123f8602b913960400191505060405180910390fd5b565b60008090611642612320565b906101000a900473ffffffffffffffffffffffffffffffffffffffff1681565b61168b7f53796e7468000000000000000000000000000000000000000000000000000000611f22565b7f691b6c9654fa1f01847f7e98a061557ca10378bb9670782b60ed13891703d22081600660008481526020019081526020016000206000016001906116ce612320565b906101000a90047effffffffffffffffffffffffffffffffffffffffffffffffffffffffffffff167effffffffffffffffffffffffffffffffffffffffffffffffffffffffffffff16604051808381526020018281526020019250505060405180910390a160066000828152602001908152602001600020600080820160006101000a8161175a612320565b9060ff02191690611769612357565b50506000820160016101000a8161177e612320565b907effffffffffffffffffffffffffffffffffffffffffffffffffffffffffffff021916906117ab612357565b5050505050565b600181565b6117e07f53796e7468000000000000000000000000000000000000000000000000000000611fea565b60016006600084815260200190815260200160002060000160006101000a81611807612320565b8160ff0219169083151502179061181c612357565b505050806006600084815260200190815260200160002060000160016101000a81611845612320565b817effffffffffffffffffffffffffffffffffffffffffffffffffffffffffffff02191690837effffffffffffffffffffffffffffffffffffffffffffffffffffffffffffff16021790611897612357565b5050507f9cca506f9028bbcc0d976db0eaf80dfe6a6d7cadd99024edd88f690e1eda55418282604051808381526020018281526020019250505060405180910390a15050565b606080838390506040519080825280602002602001820160405280156119125781602001602082028038833980820191505090505b509150838390506040519080825280602002602001820160405280156119475781602001602082028038833980820191505090505b50905060008090505b84849050811015611a57576006600086868481811061196b57fe5b90506020020135815260200190815260200160002060000160009061198e612320565b906101000a900460ff168382815181106119a457fe5b602002602001019015159081151581525050600660008686848181106119c657fe5b9050602002013581526020019081526020016000206000016001906119e9612320565b906101000a90047effffffffffffffffffffffffffffffffffffffffffffffffffffffffffffff167effffffffffffffffffffffffffffffffffffffffffffffffffffffffffffff16828281518110611a3e57fe5b6020026020010181815250508080600101915050611950565b509250929050565b611a887f53797374656d0000000000000000000000000000000000000000000000000000611fea565b6001600360000160006101000a81611a9e612320565b8160ff02191690831515021790611ab3612357565b50505080600360000160016101000a81611acb612320565b817effffffffffffffffffffffffffffffffffffffffffffffffffffffffffffff02191690837effffffffffffffffffffffffffffffffffffffffffffffffffffffffffffff16021790611b1d612357565b5050507f86b7ed06c3a2c3763514d475ced33f9ac8b1bb8f028ded18de0100b7678f3c4f6003600001600190611b51612320565b906101000a90047effffffffffffffffffffffffffffffffffffffffffffffffffffffffffffff1660405180827effffffffffffffffffffffffffffffffffffffffffffffffffffffffffffff16815260200191505060405180910390a150565b7f45786368616e676500000000000000000000000000000000000000000000000081565b611bff7f45786368616e6765000000000000000000000000000000000000000000000000611f22565b6000600560000160006101000a81611c15612320565b8160ff02191690831515021790611c2a612357565b5050507f07966fe79d35c7abf1f3b2ad9970ea24cae0f11406e283e848e3e6608ae3c2146005600001600190611c5e612320565b906101000a90047effffffffffffffffffffffffffffffffffffffffffffffffffffffffffffff167effffffffffffffffffffffffffffffffffffffffffffffffffffffffffffff166040518082815260200191505060405180910390a16000600560000160016101000a81611cd2612320565b817effffffffffffffffffffffffffffffffffffffffffffffffffffffffffffff02191690837effffffffffffffffffffffffffffffffffffffffffffffffffffffffffffff16021790611d24612357565b505050565b7f53796e746800000000000000000000000000000000000000000000000000000081565b600580600001600090611d5e612320565b906101000a900460ff169080600001600190611d78612320565b906101000a90047effffffffffffffffffffffffffffffffffffffffffffffffffffffffffffff16905082565b6003600001600090611db5612320565b906101000a900460ff161560017effffffffffffffffffffffffffffffffffffffffffffffffffffffffffffff166003600001600190611df3612320565b906101000a90047effffffffffffffffffffffffffffffffffffffffffffffffffffffffffffff167effffffffffffffffffffffffffffffffffffffffffffffffffffffffffffff1614611e5f576040518060600160405280602c815260200161246f602c9139611e79565b6040518060600160405280603e815260200161249b603e91395b90611f1f576040517f08c379a00000000000000000000000000000000000000000000000000000000081526004018080602001828103825283818151815260200191508051906020019080838360005b83811015611ee4578082015181840152602081019050611ec9565b50505050905090810190601f168015611f115780820380516001836020036101000a031916815260200191505b509250505060405180910390fd5b50565b6002600082815260200190815260200160002060005a611f40612390565b73ffffffffffffffffffffffffffffffffffffffff1673ffffffffffffffffffffffffffffffffffffffff168152602001908152602001600020600001600190611f88612320565b906101000a900460ff16611fe7576040517f08c379a000000000000000000000000000000000000000000000000000000000815260040180806020018281038252602181526020018061244e6021913960400191505060405180910390fd5b50565b6002600082815260200190815260200160002060005a612008612390565b73ffffffffffffffffffffffffffffffffffffffff1673ffffffffffffffffffffffffffffffffffffffff168152602001908152602001600020600001600090612050612320565b906101000a900460ff166120af576040517f08c379a000000000000000000000000000000000000000000000000000000000815260040180806020018281038252602181526020018061244e6021913960400191505060405180910390fd5b50565b7f53797374656d00000000000000000000000000000000000000000000000000008414806120ff57507f49737375616e636500000000000000000000000000000000000000000000000084145b8061212957507f45786368616e676500000000000000000000000000000000000000000000000084145b8061215357507f53796e746800000000000000000000000000000000000000000000000000000084145b6121c5576040517f08c379a00000000000000000000000000000000000000000000000000000000081526004018080602001828103825260188152602001807f496e76616c69642073656374696f6e20737570706c696564000000000000000081525060200191505060405180910390fd5b816002600086815260200190815260200160002060008573ffffffffffffffffffffffffffffffffffffffff1673ffffffffffffffffffffffffffffffffffffffff16815260200190815260200160002060000160006101000a81612228612320565b8160ff0219169083151502179061223d612357565b505050806002600086815260200190815260200160002060008573ffffffffffffffffffffffffffffffffffffffff1673ffffffffffffffffffffffffffffffffffffffff16815260200190815260200160002060000160016101000a816122a3612320565b8160ff021916908315150217906122b8612357565b5050508273ffffffffffffffffffffffffffffffffffffffff16847f95bad30f8fe717e4a02906d7b05a6f90698c7135cd053e5b6d5239146b4c40d184846040518083151515158152602001821515151581526020019250505060405180910390a350505050565b6320966208620800008160e01b81528360048201526020816024836000335af1600081141561234e57600080fd5b81519450505050565b6328dcb2a0620800008160e01b81528360048201528460248201526000816044836000335af1600081141561238b57600080fd5b505050565b6373509064620800008160e01b81526020816004836000335af160008114156123b857600080fd5b8151945050505056fe4f6e65206f72206d6f72652073796e746873206172652073757370656e6465642e204f7065726174696f6e2070726f6869626974656449737375616e63652069732073757370656e6465642e204f7065726174696f6e2070726f6869626974656445786368616e67652069732073757370656e6465642e204f7065726174696f6e2070726f686962697465645265737472696374656420746f2061636365737320636f6e74726f6c206c69737453796e7468657469782069732073757370656e6465642e204f7065726174696f6e2070726f6869626974656453796e7468657469782069732073757370656e6465642c207570677261646520696e2070726f67726573732e2e2e20706c65617365207374616e6420627953796e74682069732073757370656e6465642e204f7065726174696f6e2070726f68696269746564a265627a7a72315820f3471485c4b86d3495bea888d2ddb8820a977d8fcf75319210fe4199286780e664736f6c637828302e352e31362d646576656c6f702e323032302e372e32392b636f6d6d69742e36326536346536370058",
			"opcodes": "PUSH1 0x80 PUSH1 0x40 MSTORE CALLVALUE DUP1 ISZERO PUSH3 0x11 JUMPI PUSH1 0x0 DUP1 REVERT JUMPDEST POP PUSH1 0x40 MLOAD PUSH3 0x2AA3 CODESIZE SUB DUP1 PUSH3 0x2AA3 DUP4 CODECOPY DUP2 DUP2 ADD PUSH1 0x40 MSTORE PUSH1 0x20 DUP2 LT ISZERO PUSH3 0x37 JUMPI PUSH1 0x0 DUP1 REVERT JUMPDEST DUP2 ADD SWAP1 DUP1 DUP1 MLOAD SWAP1 PUSH1 0x20 ADD SWAP1 SWAP3 SWAP2 SWAP1 POP POP POP DUP1 PUSH1 0x0 PUSH20 0xFFFFFFFFFFFFFFFFFFFFFFFFFFFFFFFFFFFFFFFF AND DUP2 PUSH20 0xFFFFFFFFFFFFFFFFFFFFFFFFFFFFFFFFFFFFFFFF AND EQ ISZERO PUSH3 0x84 JUMPI PUSH1 0x0 DUP1 REVERT JUMPDEST DUP1 PUSH1 0x0 DUP1 PUSH2 0x100 EXP DUP2 PUSH3 0x97 PUSH3 0x4C6 JUMP JUMPDEST DUP2 PUSH20 0xFFFFFFFFFFFFFFFFFFFFFFFFFFFFFFFFFFFFFFFF MUL NOT AND SWAP1 DUP4 PUSH20 0xFFFFFFFFFFFFFFFFFFFFFFFFFFFFFFFFFFFFFFFF AND MUL OR SWAP1 PUSH3 0xD5 PUSH3 0x4FE JUMP JUMPDEST POP POP POP PUSH32 0xB532073B38C83145E3E5135377A08BF9AAB55BC0FD7C1179CD4FB995D2A5159C PUSH1 0x0 DUP3 PUSH1 0x40 MLOAD DUP1 DUP4 PUSH20 0xFFFFFFFFFFFFFFFFFFFFFFFFFFFFFFFFFFFFFFFF AND PUSH20 0xFFFFFFFFFFFFFFFFFFFFFFFFFFFFFFFFFFFFFFFF AND DUP2 MSTORE PUSH1 0x20 ADD DUP3 PUSH20 0xFFFFFFFFFFFFFFFFFFFFFFFFFFFFFFFFFFFFFFFF AND PUSH20 0xFFFFFFFFFFFFFFFFFFFFFFFFFFFFFFFFFFFFFFFF AND DUP2 MSTORE PUSH1 0x20 ADD SWAP3 POP POP POP PUSH1 0x40 MLOAD DUP1 SWAP2 SUB SWAP1 LOG1 POP PUSH3 0x1A6 PUSH32 0x53797374656D0000000000000000000000000000000000000000000000000000 DUP3 PUSH1 0x1 DUP1 PUSH3 0x24C PUSH1 0x20 SHL PUSH1 0x20 SHR JUMP JUMPDEST PUSH3 0x1DB PUSH32 0x49737375616E6365000000000000000000000000000000000000000000000000 DUP3 PUSH1 0x1 DUP1 PUSH3 0x24C PUSH1 0x20 SHL PUSH1 0x20 SHR JUMP JUMPDEST PUSH3 0x210 PUSH32 0x45786368616E6765000000000000000000000000000000000000000000000000 DUP3 PUSH1 0x1 DUP1 PUSH3 0x24C PUSH1 0x20 SHL PUSH1 0x20 SHR JUMP JUMPDEST PUSH3 0x245 PUSH32 0x53796E7468000000000000000000000000000000000000000000000000000000 DUP3 PUSH1 0x1 DUP1 PUSH3 0x24C PUSH1 0x20 SHL PUSH1 0x20 SHR JUMP JUMPDEST POP PUSH3 0x538 JUMP JUMPDEST PUSH32 0x53797374656D0000000000000000000000000000000000000000000000000000 DUP5 EQ DUP1 PUSH3 0x29A JUMPI POP PUSH32 0x49737375616E6365000000000000000000000000000000000000000000000000 DUP5 EQ JUMPDEST DUP1 PUSH3 0x2C5 JUMPI POP PUSH32 0x45786368616E6765000000000000000000000000000000000000000000000000 DUP5 EQ JUMPDEST DUP1 PUSH3 0x2F0 JUMPI POP PUSH32 0x53796E7468000000000000000000000000000000000000000000000000000000 DUP5 EQ JUMPDEST PUSH3 0x363 JUMPI PUSH1 0x40 MLOAD PUSH32 0x8C379A000000000000000000000000000000000000000000000000000000000 DUP2 MSTORE PUSH1 0x4 ADD DUP1 DUP1 PUSH1 0x20 ADD DUP3 DUP2 SUB DUP3 MSTORE PUSH1 0x18 DUP2 MSTORE PUSH1 0x20 ADD DUP1 PUSH32 0x496E76616C69642073656374696F6E20737570706C6965640000000000000000 DUP2 MSTORE POP PUSH1 0x20 ADD SWAP2 POP POP PUSH1 0x40 MLOAD DUP1 SWAP2 SUB SWAP1 REVERT JUMPDEST DUP2 PUSH1 0x2 PUSH1 0x0 DUP7 DUP2 MSTORE PUSH1 0x20 ADD SWAP1 DUP2 MSTORE PUSH1 0x20 ADD PUSH1 0x0 KECCAK256 PUSH1 0x0 DUP6 PUSH20 0xFFFFFFFFFFFFFFFFFFFFFFFFFFFFFFFFFFFFFFFF AND PUSH20 0xFFFFFFFFFFFFFFFFFFFFFFFFFFFFFFFFFFFFFFFF AND DUP2 MSTORE PUSH1 0x20 ADD SWAP1 DUP2 MSTORE PUSH1 0x20 ADD PUSH1 0x0 KECCAK256 PUSH1 0x0 ADD PUSH1 0x0 PUSH2 0x100 EXP DUP2 PUSH3 0x3C8 PUSH3 0x4C6 JUMP JUMPDEST DUP2 PUSH1 0xFF MUL NOT AND SWAP1 DUP4 ISZERO ISZERO MUL OR SWAP1 PUSH3 0x3DF PUSH3 0x4FE JUMP JUMPDEST POP POP POP DUP1 PUSH1 0x2 PUSH1 0x0 DUP7 DUP2 MSTORE PUSH1 0x20 ADD SWAP1 DUP2 MSTORE PUSH1 0x20 ADD PUSH1 0x0 KECCAK256 PUSH1 0x0 DUP6 PUSH20 0xFFFFFFFFFFFFFFFFFFFFFFFFFFFFFFFFFFFFFFFF AND PUSH20 0xFFFFFFFFFFFFFFFFFFFFFFFFFFFFFFFFFFFFFFFF AND DUP2 MSTORE PUSH1 0x20 ADD SWAP1 DUP2 MSTORE PUSH1 0x20 ADD PUSH1 0x0 KECCAK256 PUSH1 0x0 ADD PUSH1 0x1 PUSH2 0x100 EXP DUP2 PUSH3 0x447 PUSH3 0x4C6 JUMP JUMPDEST DUP2 PUSH1 0xFF MUL NOT AND SWAP1 DUP4 ISZERO ISZERO MUL OR SWAP1 PUSH3 0x45E PUSH3 0x4FE JUMP JUMPDEST POP POP POP DUP3 PUSH20 0xFFFFFFFFFFFFFFFFFFFFFFFFFFFFFFFFFFFFFFFF AND DUP5 PUSH32 0x95BAD30F8FE717E4A02906D7B05A6F90698C7135CD053E5B6D5239146B4C40D1 DUP5 DUP5 PUSH1 0x40 MLOAD DUP1 DUP4 ISZERO ISZERO ISZERO ISZERO DUP2 MSTORE PUSH1 0x20 ADD DUP3 ISZERO ISZERO ISZERO ISZERO DUP2 MSTORE PUSH1 0x20 ADD SWAP3 POP POP POP PUSH1 0x40 MLOAD DUP1 SWAP2 SUB SWAP1 LOG3 POP POP POP POP JUMP JUMPDEST PUSH4 0x20966208 PUSH3 0x80000 DUP2 PUSH1 0xE0 SHL DUP2 MSTORE DUP4 PUSH1 0x4 DUP3 ADD MSTORE PUSH1 0x20 DUP2 PUSH1 0x24 DUP4 PUSH1 0x0 CALLER GAS CALL PUSH1 0x0 DUP2 EQ ISZERO PUSH3 0x4F5 JUMPI PUSH1 0x0 DUP1 REVERT JUMPDEST DUP2 MLOAD SWAP5 POP POP POP POP JUMP JUMPDEST PUSH4 0x28DCB2A0 PUSH3 0x80000 DUP2 PUSH1 0xE0 SHL DUP2 MSTORE DUP4 PUSH1 0x4 DUP3 ADD MSTORE DUP5 PUSH1 0x24 DUP3 ADD MSTORE PUSH1 0x0 DUP2 PUSH1 0x44 DUP4 PUSH1 0x0 CALLER GAS CALL PUSH1 0x0 DUP2 EQ ISZERO PUSH3 0x533 JUMPI PUSH1 0x0 DUP1 REVERT JUMPDEST POP POP POP JUMP JUMPDEST PUSH2 0x255B DUP1 PUSH3 0x548 PUSH1 0x0 CODECOPY PUSH1 0x0 RETURN INVALID PUSH1 0x80 PUSH1 0x40 MSTORE CALLVALUE DUP1 ISZERO PUSH2 0x10 JUMPI PUSH1 0x0 DUP1 REVERT JUMPDEST POP PUSH1 0x4 CALLDATASIZE LT PUSH2 0x1DA JUMPI PUSH1 0x0 CALLDATALOAD PUSH1 0xE0 SHR DUP1 PUSH4 0x67A280B2 GT PUSH2 0x104 JUMPI DUP1 PUSH4 0x9F8A95BA GT PUSH2 0xA2 JUMPI DUP1 PUSH4 0xF1616207 GT PUSH2 0x71 JUMPI DUP1 PUSH4 0xF1616207 EQ PUSH2 0x859 JUMPI DUP1 PUSH4 0xF405F65A EQ PUSH2 0x877 JUMPI DUP1 PUSH4 0xF44D1E0B EQ PUSH2 0x881 JUMPI DUP1 PUSH4 0xF8B4B084 EQ PUSH2 0x89F JUMPI PUSH2 0x1DA JUMP JUMPDEST DUP1 PUSH4 0x9F8A95BA EQ PUSH2 0x67D JUMPI DUP1 PUSH4 0xABC0BB6E EQ PUSH2 0x6DD JUMPI DUP1 PUSH4 0xB9A49869 EQ PUSH2 0x715 JUMPI DUP1 PUSH4 0xE470DF58 EQ PUSH2 0x82B JUMPI PUSH2 0x1DA JUMP JUMPDEST DUP1 PUSH4 0x79BA5097 GT PUSH2 0xDE JUMPI DUP1 PUSH4 0x79BA5097 EQ PUSH2 0x5F1 JUMPI DUP1 PUSH4 0x7C312541 EQ PUSH2 0x5FB JUMPI DUP1 PUSH4 0x8DA5CB5B EQ PUSH2 0x605 JUMPI DUP1 PUSH4 0x94C79F74 EQ PUSH2 0x64F JUMPI PUSH2 0x1DA JUMP JUMPDEST DUP1 PUSH4 0x67A280B2 EQ PUSH2 0x54E JUMPI DUP1 PUSH4 0x7118D431 EQ PUSH2 0x558 JUMPI DUP1 PUSH4 0x7243BC2C EQ PUSH2 0x562 JUMPI PUSH2 0x1DA JUMP JUMPDEST DUP1 PUSH4 0x2DD8AFDB GT PUSH2 0x17C JUMPI DUP1 PUSH4 0x48BF1971 GT PUSH2 0x14B JUMPI DUP1 PUSH4 0x48BF1971 EQ PUSH2 0x448 JUMPI DUP1 PUSH4 0x4ABDB44D EQ PUSH2 0x4AE JUMPI DUP1 PUSH4 0x53A47BB7 EQ PUSH2 0x4CC JUMPI DUP1 PUSH4 0x6132EBA4 EQ PUSH2 0x516 JUMPI PUSH2 0x1DA JUMP JUMPDEST DUP1 PUSH4 0x2DD8AFDB EQ PUSH2 0x35F JUMPI DUP1 PUSH4 0x2E8D0B9E EQ PUSH2 0x3CA JUMPI DUP1 PUSH4 0x396E258E EQ PUSH2 0x3EC JUMPI DUP1 PUSH4 0x42A28E21 EQ PUSH2 0x41A JUMPI PUSH2 0x1DA JUMP JUMPDEST DUP1 PUSH4 0x1588E817 GT PUSH2 0x1B8 JUMPI DUP1 PUSH4 0x1588E817 EQ PUSH2 0x211 JUMPI DUP1 PUSH4 0x1627540C EQ PUSH2 0x23F JUMPI DUP1 PUSH4 0x20F2BF00 EQ PUSH2 0x283 JUMPI DUP1 PUSH4 0x2366245E EQ PUSH2 0x2F4 JUMPI PUSH2 0x1DA JUMP JUMPDEST DUP1 PUSH4 0x86DABD1 EQ PUSH2 0x1DF JUMPI DUP1 PUSH4 0x12BDE514 EQ PUSH2 0x1E9 JUMPI DUP1 PUSH4 0x157C51D3 EQ PUSH2 0x207 JUMPI JUMPDEST PUSH1 0x0 DUP1 REVERT JUMPDEST PUSH2 0x1E7 PUSH2 0x90A JUMP JUMPDEST STOP JUMPDEST PUSH2 0x1F1 PUSH2 0x914 JUMP JUMPDEST PUSH1 0x40 MLOAD DUP1 DUP3 DUP2 MSTORE PUSH1 0x20 ADD SWAP2 POP POP PUSH1 0x40 MLOAD DUP1 SWAP2 SUB SWAP1 RETURN JUMPDEST PUSH2 0x20F PUSH2 0x938 JUMP JUMPDEST STOP JUMPDEST PUSH2 0x23D PUSH1 0x4 DUP1 CALLDATASIZE SUB PUSH1 0x20 DUP2 LT ISZERO PUSH2 0x227 JUMPI PUSH1 0x0 DUP1 REVERT JUMPDEST DUP2 ADD SWAP1 DUP1 DUP1 CALLDATALOAD SWAP1 PUSH1 0x20 ADD SWAP1 SWAP3 SWAP2 SWAP1 POP POP POP PUSH2 0xA8B JUMP JUMPDEST STOP JUMPDEST PUSH2 0x281 PUSH1 0x4 DUP1 CALLDATASIZE SUB PUSH1 0x20 DUP2 LT ISZERO PUSH2 0x255 JUMPI PUSH1 0x0 DUP1 REVERT JUMPDEST DUP2 ADD SWAP1 DUP1 DUP1 CALLDATALOAD PUSH20 0xFFFFFFFFFFFFFFFFFFFFFFFFFFFFFFFFFFFFFFFF AND SWAP1 PUSH1 0x20 ADD SWAP1 SWAP3 SWAP2 SWAP1 POP POP POP PUSH2 0xB86 JUMP JUMPDEST STOP JUMPDEST PUSH2 0x2CF PUSH1 0x4 DUP1 CALLDATASIZE SUB PUSH1 0x40 DUP2 LT ISZERO PUSH2 0x299 JUMPI PUSH1 0x0 DUP1 REVERT JUMPDEST DUP2 ADD SWAP1 DUP1 DUP1 CALLDATALOAD SWAP1 PUSH1 0x20 ADD SWAP1 SWAP3 SWAP2 SWAP1 DUP1 CALLDATALOAD PUSH20 0xFFFFFFFFFFFFFFFFFFFFFFFFFFFFFFFFFFFFFFFF AND SWAP1 PUSH1 0x20 ADD SWAP1 SWAP3 SWAP2 SWAP1 POP POP POP PUSH2 0xCA5 JUMP JUMPDEST PUSH1 0x40 MLOAD DUP1 DUP4 ISZERO ISZERO ISZERO ISZERO DUP2 MSTORE PUSH1 0x20 ADD DUP3 ISZERO ISZERO ISZERO ISZERO DUP2 MSTORE PUSH1 0x20 ADD SWAP3 POP POP POP PUSH1 0x40 MLOAD DUP1 SWAP2 SUB SWAP1 RETURN JUMPDEST PUSH2 0x2FC PUSH2 0xCFE JUMP JUMPDEST PUSH1 0x40 MLOAD DUP1 DUP4 ISZERO ISZERO ISZERO ISZERO DUP2 MSTORE PUSH1 0x20 ADD DUP3 PUSH31 0xFFFFFFFFFFFFFFFFFFFFFFFFFFFFFFFFFFFFFFFFFFFFFFFFFFFFFFFFFFFFFF AND PUSH31 0xFFFFFFFFFFFFFFFFFFFFFFFFFFFFFFFFFFFFFFFFFFFFFFFFFFFFFFFFFFFFFF AND DUP2 MSTORE PUSH1 0x20 ADD SWAP3 POP POP POP PUSH1 0x40 MLOAD DUP1 SWAP2 SUB SWAP1 RETURN JUMPDEST PUSH2 0x367 PUSH2 0xD56 JUMP JUMPDEST PUSH1 0x40 MLOAD DUP1 DUP4 ISZERO ISZERO ISZERO ISZERO DUP2 MSTORE PUSH1 0x20 ADD DUP3 PUSH31 0xFFFFFFFFFFFFFFFFFFFFFFFFFFFFFFFFFFFFFFFFFFFFFFFFFFFFFFFFFFFFFF AND PUSH31 0xFFFFFFFFFFFFFFFFFFFFFFFFFFFFFFFFFFFFFFFFFFFFFFFFFFFFFFFFFFFFFF AND DUP2 MSTORE PUSH1 0x20 ADD SWAP3 POP POP POP PUSH1 0x40 MLOAD DUP1 SWAP2 SUB SWAP1 RETURN JUMPDEST PUSH2 0x3D2 PUSH2 0xDAE JUMP JUMPDEST PUSH1 0x40 MLOAD DUP1 DUP3 ISZERO ISZERO ISZERO ISZERO DUP2 MSTORE PUSH1 0x20 ADD SWAP2 POP POP PUSH1 0x40 MLOAD DUP1 SWAP2 SUB SWAP1 RETURN JUMPDEST PUSH2 0x418 PUSH1 0x4 DUP1 CALLDATASIZE SUB PUSH1 0x20 DUP2 LT ISZERO PUSH2 0x402 JUMPI PUSH1 0x0 DUP1 REVERT JUMPDEST DUP2 ADD SWAP1 DUP1 DUP1 CALLDATALOAD SWAP1 PUSH1 0x20 ADD SWAP1 SWAP3 SWAP2 SWAP1 POP POP POP PUSH2 0xE54 JUMP JUMPDEST STOP JUMPDEST PUSH2 0x446 PUSH1 0x4 DUP1 CALLDATASIZE SUB PUSH1 0x20 DUP2 LT ISZERO PUSH2 0x430 JUMPI PUSH1 0x0 DUP1 REVERT JUMPDEST DUP2 ADD SWAP1 DUP1 DUP1 CALLDATALOAD SWAP1 PUSH1 0x20 ADD SWAP1 SWAP3 SWAP2 SWAP1 POP POP POP PUSH2 0xF4F JUMP JUMPDEST STOP JUMPDEST PUSH2 0x4AC PUSH1 0x4 DUP1 CALLDATASIZE SUB PUSH1 0x80 DUP2 LT ISZERO PUSH2 0x45E JUMPI PUSH1 0x0 DUP1 REVERT JUMPDEST DUP2 ADD SWAP1 DUP1 DUP1 CALLDATALOAD SWAP1 PUSH1 0x20 ADD SWAP1 SWAP3 SWAP2 SWAP1 DUP1 CALLDATALOAD PUSH20 0xFFFFFFFFFFFFFFFFFFFFFFFFFFFFFFFFFFFFFFFF AND SWAP1 PUSH1 0x20 ADD SWAP1 SWAP3 SWAP2 SWAP1 DUP1 CALLDATALOAD ISZERO ISZERO SWAP1 PUSH1 0x20 ADD SWAP1 SWAP3 SWAP2 SWAP1 DUP1 CALLDATALOAD ISZERO ISZERO SWAP1 PUSH1 0x20 ADD SWAP1 SWAP3 SWAP2 SWAP1 POP POP POP PUSH2 0xFDB JUMP JUMPDEST STOP JUMPDEST PUSH2 0x4B6 PUSH2 0x1055 JUMP JUMPDEST PUSH1 0x40 MLOAD DUP1 DUP3 DUP2 MSTORE PUSH1 0x20 ADD SWAP2 POP POP PUSH1 0x40 MLOAD DUP1 SWAP2 SUB SWAP1 RETURN JUMPDEST PUSH2 0x4D4 PUSH2 0x1079 JUMP JUMPDEST PUSH1 0x40 MLOAD DUP1 DUP3 PUSH20 0xFFFFFFFFFFFFFFFFFFFFFFFFFFFFFFFFFFFFFFFF AND PUSH20 0xFFFFFFFFFFFFFFFFFFFFFFFFFFFFFFFFFFFFFFFF AND DUP2 MSTORE PUSH1 0x20 ADD SWAP2 POP POP PUSH1 0x40 MLOAD DUP1 SWAP2 SUB SWAP1 RETURN JUMPDEST PUSH2 0x54C PUSH1 0x4 DUP1 CALLDATASIZE SUB PUSH1 0x40 DUP2 LT ISZERO PUSH2 0x52C JUMPI PUSH1 0x0 DUP1 REVERT JUMPDEST DUP2 ADD SWAP1 DUP1 DUP1 CALLDATALOAD SWAP1 PUSH1 0x20 ADD SWAP1 SWAP3 SWAP2 SWAP1 DUP1 CALLDATALOAD SWAP1 PUSH1 0x20 ADD SWAP1 SWAP3 SWAP2 SWAP1 POP POP POP PUSH2 0x10A6 JUMP JUMPDEST STOP JUMPDEST PUSH2 0x556 PUSH2 0x1167 JUMP JUMPDEST STOP JUMPDEST PUSH2 0x560 PUSH2 0x12BA JUMP JUMPDEST STOP JUMPDEST PUSH2 0x58E PUSH1 0x4 DUP1 CALLDATASIZE SUB PUSH1 0x20 DUP2 LT ISZERO PUSH2 0x578 JUMPI PUSH1 0x0 DUP1 REVERT JUMPDEST DUP2 ADD SWAP1 DUP1 DUP1 CALLDATALOAD SWAP1 PUSH1 0x20 ADD SWAP1 SWAP3 SWAP2 SWAP1 POP POP POP PUSH2 0x1334 JUMP JUMPDEST PUSH1 0x40 MLOAD DUP1 DUP4 ISZERO ISZERO ISZERO ISZERO DUP2 MSTORE PUSH1 0x20 ADD DUP3 PUSH31 0xFFFFFFFFFFFFFFFFFFFFFFFFFFFFFFFFFFFFFFFFFFFFFFFFFFFFFFFFFFFFFF AND PUSH31 0xFFFFFFFFFFFFFFFFFFFFFFFFFFFFFFFFFFFFFFFFFFFFFFFFFFFFFFFFFFFFFF AND DUP2 MSTORE PUSH1 0x20 ADD SWAP3 POP POP POP PUSH1 0x40 MLOAD DUP1 SWAP2 SUB SWAP1 RETURN JUMPDEST PUSH2 0x5F9 PUSH2 0x139E JUMP JUMPDEST STOP JUMPDEST PUSH2 0x603 PUSH2 0x15BC JUMP JUMPDEST STOP JUMPDEST PUSH2 0x60D PUSH2 0x1636 JUMP JUMPDEST PUSH1 0x40 MLOAD DUP1 DUP3 PUSH20 0xFFFFFFFFFFFFFFFFFFFFFFFFFFFFFFFFFFFFFFFF AND PUSH20 0xFFFFFFFFFFFFFFFFFFFFFFFFFFFFFFFFFFFFFFFF AND DUP2 MSTORE PUSH1 0x20 ADD SWAP2 POP POP PUSH1 0x40 MLOAD DUP1 SWAP2 SUB SWAP1 RETURN JUMPDEST PUSH2 0x67B PUSH1 0x4 DUP1 CALLDATASIZE SUB PUSH1 0x20 DUP2 LT ISZERO PUSH2 0x665 JUMPI PUSH1 0x0 DUP1 REVERT JUMPDEST DUP2 ADD SWAP1 DUP1 DUP1 CALLDATALOAD SWAP1 PUSH1 0x20 ADD SWAP1 SWAP3 SWAP2 SWAP1 POP POP POP PUSH2 0x1662 JUMP JUMPDEST STOP JUMPDEST PUSH2 0x685 PUSH2 0x17B2 JUMP JUMPDEST PUSH1 0x40 MLOAD DUP1 DUP3 PUSH31 0xFFFFFFFFFFFFFFFFFFFFFFFFFFFFFFFFFFFFFFFFFFFFFFFFFFFFFFFFFFFFFF AND PUSH31 0xFFFFFFFFFFFFFFFFFFFFFFFFFFFFFFFFFFFFFFFFFFFFFFFFFFFFFFFFFFFFFF AND DUP2 MSTORE PUSH1 0x20 ADD SWAP2 POP POP PUSH1 0x40 MLOAD DUP1 SWAP2 SUB SWAP1 RETURN JUMPDEST PUSH2 0x713 PUSH1 0x4 DUP1 CALLDATASIZE SUB PUSH1 0x40 DUP2 LT ISZERO PUSH2 0x6F3 JUMPI PUSH1 0x0 DUP1 REVERT JUMPDEST DUP2 ADD SWAP1 DUP1 DUP1 CALLDATALOAD SWAP1 PUSH1 0x20 ADD SWAP1 SWAP3 SWAP2 SWAP1 DUP1 CALLDATALOAD SWAP1 PUSH1 0x20 ADD SWAP1 SWAP3 SWAP2 SWAP1 POP POP POP PUSH2 0x17B7 JUMP JUMPDEST STOP JUMPDEST PUSH2 0x78C PUSH1 0x4 DUP1 CALLDATASIZE SUB PUSH1 0x20 DUP2 LT ISZERO PUSH2 0x72B JUMPI PUSH1 0x0 DUP1 REVERT JUMPDEST DUP2 ADD SWAP1 DUP1 DUP1 CALLDATALOAD SWAP1 PUSH1 0x20 ADD SWAP1 PUSH5 0x100000000 DUP2 GT ISZERO PUSH2 0x748 JUMPI PUSH1 0x0 DUP1 REVERT JUMPDEST DUP3 ADD DUP4 PUSH1 0x20 DUP3 ADD GT ISZERO PUSH2 0x75A JUMPI PUSH1 0x0 DUP1 REVERT JUMPDEST DUP1 CALLDATALOAD SWAP1 PUSH1 0x20 ADD SWAP2 DUP5 PUSH1 0x20 DUP4 MUL DUP5 ADD GT PUSH5 0x100000000 DUP4 GT OR ISZERO PUSH2 0x77C JUMPI PUSH1 0x0 DUP1 REVERT JUMPDEST SWAP1 SWAP2 SWAP3 SWAP4 SWAP2 SWAP3 SWAP4 SWAP1 POP POP POP PUSH2 0x18DD JUMP JUMPDEST PUSH1 0x40 MLOAD DUP1 DUP1 PUSH1 0x20 ADD DUP1 PUSH1 0x20 ADD DUP4 DUP2 SUB DUP4 MSTORE DUP6 DUP2 DUP2 MLOAD DUP2 MSTORE PUSH1 0x20 ADD SWAP2 POP DUP1 MLOAD SWAP1 PUSH1 0x20 ADD SWAP1 PUSH1 0x20 MUL DUP1 DUP4 DUP4 PUSH1 0x0 JUMPDEST DUP4 DUP2 LT ISZERO PUSH2 0x7D3 JUMPI DUP1 DUP3 ADD MLOAD DUP2 DUP5 ADD MSTORE PUSH1 0x20 DUP2 ADD SWAP1 POP PUSH2 0x7B8 JUMP JUMPDEST POP POP POP POP SWAP1 POP ADD DUP4 DUP2 SUB DUP3 MSTORE DUP5 DUP2 DUP2 MLOAD DUP2 MSTORE PUSH1 0x20 ADD SWAP2 POP DUP1 MLOAD SWAP1 PUSH1 0x20 ADD SWAP1 PUSH1 0x20 MUL DUP1 DUP4 DUP4 PUSH1 0x0 JUMPDEST DUP4 DUP2 LT ISZERO PUSH2 0x815 JUMPI DUP1 DUP3 ADD MLOAD DUP2 DUP5 ADD MSTORE PUSH1 0x20 DUP2 ADD SWAP1 POP PUSH2 0x7FA JUMP JUMPDEST POP POP POP POP SWAP1 POP ADD SWAP5 POP POP POP POP POP PUSH1 0x40 MLOAD DUP1 SWAP2 SUB SWAP1 RETURN JUMPDEST PUSH2 0x857 PUSH1 0x4 DUP1 CALLDATASIZE SUB PUSH1 0x20 DUP2 LT ISZERO PUSH2 0x841 JUMPI PUSH1 0x0 DUP1 REVERT JUMPDEST DUP2 ADD SWAP1 DUP1 DUP1 CALLDATALOAD SWAP1 PUSH1 0x20 ADD SWAP1 SWAP3 SWAP2 SWAP1 POP POP POP PUSH2 0x1A5F JUMP JUMPDEST STOP JUMPDEST PUSH2 0x861 PUSH2 0x1BB2 JUMP JUMPDEST PUSH1 0x40 MLOAD DUP1 DUP3 DUP2 MSTORE PUSH1 0x20 ADD SWAP2 POP POP PUSH1 0x40 MLOAD DUP1 SWAP2 SUB SWAP1 RETURN JUMPDEST PUSH2 0x87F PUSH2 0x1BD6 JUMP JUMPDEST STOP JUMPDEST PUSH2 0x889 PUSH2 0x1D29 JUMP JUMPDEST PUSH1 0x40 MLOAD DUP1 DUP3 DUP2 MSTORE PUSH1 0x20 ADD SWAP2 POP POP PUSH1 0x40 MLOAD DUP1 SWAP2 SUB SWAP1 RETURN JUMPDEST PUSH2 0x8A7 PUSH2 0x1D4D JUMP JUMPDEST PUSH1 0x40 MLOAD DUP1 DUP4 ISZERO ISZERO ISZERO ISZERO DUP2 MSTORE PUSH1 0x20 ADD DUP3 PUSH31 0xFFFFFFFFFFFFFFFFFFFFFFFFFFFFFFFFFFFFFFFFFFFFFFFFFFFFFFFFFFFFFF AND PUSH31 0xFFFFFFFFFFFFFFFFFFFFFFFFFFFFFFFFFFFFFFFFFFFFFFFFFFFFFFFFFFFFFF AND DUP2 MSTORE PUSH1 0x20 ADD SWAP3 POP POP POP PUSH1 0x40 MLOAD DUP1 SWAP2 SUB SWAP1 RETURN JUMPDEST PUSH2 0x912 PUSH2 0x1DA5 JUMP JUMPDEST JUMP JUMPDEST PUSH32 0x53797374656D0000000000000000000000000000000000000000000000000000 DUP2 JUMP JUMPDEST PUSH2 0x961 PUSH32 0x53797374656D0000000000000000000000000000000000000000000000000000 PUSH2 0x1F22 JUMP JUMPDEST PUSH1 0x0 PUSH1 0x3 PUSH1 0x0 ADD PUSH1 0x0 PUSH2 0x100 EXP DUP2 PUSH2 0x977 PUSH2 0x2320 JUMP JUMPDEST DUP2 PUSH1 0xFF MUL NOT AND SWAP1 DUP4 ISZERO ISZERO MUL OR SWAP1 PUSH2 0x98C PUSH2 0x2357 JUMP JUMPDEST POP POP POP PUSH32 0xB392A95118344E8EDFF8EFF56183AFB4BB0240310C406A0FC1217D2755C66D8F PUSH1 0x3 PUSH1 0x0 ADD PUSH1 0x1 SWAP1 PUSH2 0x9C0 PUSH2 0x2320 JUMP JUMPDEST SWAP1 PUSH2 0x100 EXP SWAP1 DIV PUSH31 0xFFFFFFFFFFFFFFFFFFFFFFFFFFFFFFFFFFFFFFFFFFFFFFFFFFFFFFFFFFFFFF AND PUSH31 0xFFFFFFFFFFFFFFFFFFFFFFFFFFFFFFFFFFFFFFFFFFFFFFFFFFFFFFFFFFFFFF AND PUSH1 0x40 MLOAD DUP1 DUP3 DUP2 MSTORE PUSH1 0x20 ADD SWAP2 POP POP PUSH1 0x40 MLOAD DUP1 SWAP2 SUB SWAP1 LOG1 PUSH1 0x0 PUSH1 0x3 PUSH1 0x0 ADD PUSH1 0x1 PUSH2 0x100 EXP DUP2 PUSH2 0xA34 PUSH2 0x2320 JUMP JUMPDEST DUP2 PUSH31 0xFFFFFFFFFFFFFFFFFFFFFFFFFFFFFFFFFFFFFFFFFFFFFFFFFFFFFFFFFFFFFF MUL NOT AND SWAP1 DUP4 PUSH31 0xFFFFFFFFFFFFFFFFFFFFFFFFFFFFFFFFFFFFFFFFFFFFFFFFFFFFFFFFFFFFFF AND MUL OR SWAP1 PUSH2 0xA86 PUSH2 0x2357 JUMP JUMPDEST POP POP POP JUMP JUMPDEST PUSH2 0xAB4 PUSH32 0x45786368616E6765000000000000000000000000000000000000000000000000 PUSH2 0x1FEA JUMP JUMPDEST PUSH1 0x1 PUSH1 0x5 PUSH1 0x0 ADD PUSH1 0x0 PUSH2 0x100 EXP DUP2 PUSH2 0xACA PUSH2 0x2320 JUMP JUMPDEST DUP2 PUSH1 0xFF MUL NOT AND SWAP1 DUP4 ISZERO ISZERO MUL OR SWAP1 PUSH2 0xADF PUSH2 0x2357 JUMP JUMPDEST POP POP POP DUP1 PUSH1 0x5 PUSH1 0x0 ADD PUSH1 0x1 PUSH2 0x100 EXP DUP2 PUSH2 0xAF7 PUSH2 0x2320 JUMP JUMPDEST DUP2 PUSH31 0xFFFFFFFFFFFFFFFFFFFFFFFFFFFFFFFFFFFFFFFFFFFFFFFFFFFFFFFFFFFFFF MUL NOT AND SWAP1 DUP4 PUSH31 0xFFFFFFFFFFFFFFFFFFFFFFFFFFFFFFFFFFFFFFFFFFFFFFFFFFFFFFFFFFFFFF AND MUL OR SWAP1 PUSH2 0xB49 PUSH2 0x2357 JUMP JUMPDEST POP POP POP PUSH32 0x78773069A9216CDB6ACAA7B184785F12F62048C7CE8B7EDE1BAD6785DE16B22 DUP2 PUSH1 0x40 MLOAD DUP1 DUP3 DUP2 MSTORE PUSH1 0x20 ADD SWAP2 POP POP PUSH1 0x40 MLOAD DUP1 SWAP2 SUB SWAP1 LOG1 POP JUMP JUMPDEST PUSH1 0x0 DUP1 SWAP1 PUSH2 0xB92 PUSH2 0x2320 JUMP JUMPDEST SWAP1 PUSH2 0x100 EXP SWAP1 DIV PUSH20 0xFFFFFFFFFFFFFFFFFFFFFFFFFFFFFFFFFFFFFFFF AND PUSH20 0xFFFFFFFFFFFFFFFFFFFFFFFFFFFFFFFFFFFFFFFF AND GAS PUSH2 0xBCE PUSH2 0x2390 JUMP JUMPDEST PUSH20 0xFFFFFFFFFFFFFFFFFFFFFFFFFFFFFFFFFFFFFFFF AND EQ PUSH2 0xBEE JUMPI PUSH1 0x0 DUP1 REVERT JUMPDEST DUP1 PUSH1 0x1 PUSH1 0x0 PUSH2 0x100 EXP DUP2 PUSH2 0xC00 PUSH2 0x2320 JUMP JUMPDEST DUP2 PUSH20 0xFFFFFFFFFFFFFFFFFFFFFFFFFFFFFFFFFFFFFFFF MUL NOT AND SWAP1 DUP4 PUSH20 0xFFFFFFFFFFFFFFFFFFFFFFFFFFFFFFFFFFFFFFFF AND MUL OR SWAP1 PUSH2 0xC3C PUSH2 0x2357 JUMP JUMPDEST POP POP POP PUSH32 0x906A1C6BD7E3091EA86693DD029A831C19049CE77F1DCE2CE0BAB1CACBABCE22 DUP2 PUSH1 0x40 MLOAD DUP1 DUP3 PUSH20 0xFFFFFFFFFFFFFFFFFFFFFFFFFFFFFFFFFFFFFFFF AND PUSH20 0xFFFFFFFFFFFFFFFFFFFFFFFFFFFFFFFFFFFFFFFF AND DUP2 MSTORE PUSH1 0x20 ADD SWAP2 POP POP PUSH1 0x40 MLOAD DUP1 SWAP2 SUB SWAP1 LOG1 POP JUMP JUMPDEST PUSH1 0x2 PUSH1 0x20 MSTORE DUP2 PUSH1 0x0 MSTORE PUSH1 0x40 PUSH1 0x0 KECCAK256 PUSH1 0x20 MSTORE DUP1 PUSH1 0x0 MSTORE PUSH1 0x40 PUSH1 0x0 KECCAK256 PUSH1 0x0 SWAP2 POP SWAP2 POP POP DUP1 PUSH1 0x0 ADD PUSH1 0x0 SWAP1 PUSH2 0xCD5 PUSH2 0x2320 JUMP JUMPDEST SWAP1 PUSH2 0x100 EXP SWAP1 DIV PUSH1 0xFF AND SWAP1 DUP1 PUSH1 0x0 ADD PUSH1 0x1 SWAP1 PUSH2 0xCEF PUSH2 0x2320 JUMP JUMPDEST SWAP1 PUSH2 0x100 EXP SWAP1 DIV PUSH1 0xFF AND SWAP1 POP DUP3 JUMP JUMPDEST PUSH1 0x4 DUP1 PUSH1 0x0 ADD PUSH1 0x0 SWAP1 PUSH2 0xD0F PUSH2 0x2320 JUMP JUMPDEST SWAP1 PUSH2 0x100 EXP SWAP1 DIV PUSH1 0xFF AND SWAP1 DUP1 PUSH1 0x0 ADD PUSH1 0x1 SWAP1 PUSH2 0xD29 PUSH2 0x2320 JUMP JUMPDEST SWAP1 PUSH2 0x100 EXP SWAP1 DIV PUSH31 0xFFFFFFFFFFFFFFFFFFFFFFFFFFFFFFFFFFFFFFFFFFFFFFFFFFFFFFFFFFFFFF AND SWAP1 POP DUP3 JUMP JUMPDEST PUSH1 0x3 DUP1 PUSH1 0x0 ADD PUSH1 0x0 SWAP1 PUSH2 0xD67 PUSH2 0x2320 JUMP JUMPDEST SWAP1 PUSH2 0x100 EXP SWAP1 DIV PUSH1 0xFF AND SWAP1 DUP1 PUSH1 0x0 ADD PUSH1 0x1 SWAP1 PUSH2 0xD81 PUSH2 0x2320 JUMP JUMPDEST SWAP1 PUSH2 0x100 EXP SWAP1 DIV PUSH31 0xFFFFFFFFFFFFFFFFFFFFFFFFFFFFFFFFFFFFFFFFFFFFFFFFFFFFFFFFFFFFFF AND SWAP1 POP DUP3 JUMP JUMPDEST PUSH1 0x0 PUSH1 0x3 PUSH1 0x0 ADD PUSH1 0x0 SWAP1 PUSH2 0xDC0 PUSH2 0x2320 JUMP JUMPDEST SWAP1 PUSH2 0x100 EXP SWAP1 DIV PUSH1 0xFF AND DUP1 ISZERO PUSH2 0xE4F JUMPI POP PUSH1 0x1 PUSH31 0xFFFFFFFFFFFFFFFFFFFFFFFFFFFFFFFFFFFFFFFFFFFFFFFFFFFFFFFFFFFFFF AND PUSH1 0x3 PUSH1 0x0 ADD PUSH1 0x1 SWAP1 PUSH2 0xE04 PUSH2 0x2320 JUMP JUMPDEST SWAP1 PUSH2 0x100 EXP SWAP1 DIV PUSH31 0xFFFFFFFFFFFFFFFFFFFFFFFFFFFFFFFFFFFFFFFFFFFFFFFFFFFFFFFFFFFFFF AND PUSH31 0xFFFFFFFFFFFFFFFFFFFFFFFFFFFFFFFFFFFFFFFFFFFFFFFFFFFFFFFFFFFFFF AND EQ JUMPDEST SWAP1 POP SWAP1 JUMP JUMPDEST PUSH2 0xE7D PUSH32 0x49737375616E6365000000000000000000000000000000000000000000000000 PUSH2 0x1FEA JUMP JUMPDEST PUSH1 0x1 PUSH1 0x4 PUSH1 0x0 ADD PUSH1 0x0 PUSH2 0x100 EXP DUP2 PUSH2 0xE93 PUSH2 0x2320 JUMP JUMPDEST DUP2 PUSH1 0xFF MUL NOT AND SWAP1 DUP4 ISZERO ISZERO MUL OR SWAP1 PUSH2 0xEA8 PUSH2 0x2357 JUMP JUMPDEST POP POP POP DUP1 PUSH1 0x4 PUSH1 0x0 ADD PUSH1 0x1 PUSH2 0x100 EXP DUP2 PUSH2 0xEC0 PUSH2 0x2320 JUMP JUMPDEST DUP2 PUSH31 0xFFFFFFFFFFFFFFFFFFFFFFFFFFFFFFFFFFFFFFFFFFFFFFFFFFFFFFFFFFFFFF MUL NOT AND SWAP1 DUP4 PUSH31 0xFFFFFFFFFFFFFFFFFFFFFFFFFFFFFFFFFFFFFFFFFFFFFFFFFFFFFFFFFFFFFF AND MUL OR SWAP1 PUSH2 0xF12 PUSH2 0x2357 JUMP JUMPDEST POP POP POP PUSH32 0xEE8BF45D6E3141AA521AE4F0D05DFEFE0327A3F23A9FBAE6A64680458B34EBB8 DUP2 PUSH1 0x40 MLOAD DUP1 DUP3 DUP2 MSTORE PUSH1 0x20 ADD SWAP2 POP POP PUSH1 0x40 MLOAD DUP1 SWAP2 SUB SWAP1 LOG1 POP JUMP JUMPDEST PUSH2 0xF57 PUSH2 0x1DA5 JUMP JUMPDEST PUSH1 0x6 PUSH1 0x0 DUP3 DUP2 MSTORE PUSH1 0x20 ADD SWAP1 DUP2 MSTORE PUSH1 0x20 ADD PUSH1 0x0 KECCAK256 PUSH1 0x0 ADD PUSH1 0x0 SWAP1 PUSH2 0xF78 PUSH2 0x2320 JUMP JUMPDEST SWAP1 PUSH2 0x100 EXP SWAP1 DIV PUSH1 0xFF AND ISZERO PUSH2 0xFD8 JUMPI PUSH1 0x40 MLOAD PUSH32 0x8C379A000000000000000000000000000000000000000000000000000000000 DUP2 MSTORE PUSH1 0x4 ADD DUP1 DUP1 PUSH1 0x20 ADD DUP3 DUP2 SUB DUP3 MSTORE PUSH1 0x28 DUP2 MSTORE PUSH1 0x20 ADD DUP1 PUSH2 0x24D9 PUSH1 0x28 SWAP2 CODECOPY PUSH1 0x40 ADD SWAP2 POP POP PUSH1 0x40 MLOAD DUP1 SWAP2 SUB SWAP1 REVERT JUMPDEST POP JUMP JUMPDEST PUSH1 0x0 DUP1 SWAP1 PUSH2 0xFE7 PUSH2 0x2320 JUMP JUMPDEST SWAP1 PUSH2 0x100 EXP SWAP1 DIV PUSH20 0xFFFFFFFFFFFFFFFFFFFFFFFFFFFFFFFFFFFFFFFF AND PUSH20 0xFFFFFFFFFFFFFFFFFFFFFFFFFFFFFFFFFFFFFFFF AND GAS PUSH2 0x1023 PUSH2 0x2390 JUMP JUMPDEST PUSH20 0xFFFFFFFFFFFFFFFFFFFFFFFFFFFFFFFFFFFFFFFF AND EQ PUSH2 0x1043 JUMPI PUSH1 0x0 DUP1 REVERT JUMPDEST PUSH2 0x104F DUP5 DUP5 DUP5 DUP5 PUSH2 0x20B2 JUMP JUMPDEST POP POP POP POP JUMP JUMPDEST PUSH32 0x49737375616E6365000000000000000000000000000000000000000000000000 DUP2 JUMP JUMPDEST PUSH1 0x1 PUSH1 0x0 SWAP1 PUSH2 0x1086 PUSH2 0x2320 JUMP JUMPDEST SWAP1 PUSH2 0x100 EXP SWAP1 DIV PUSH20 0xFFFFFFFFFFFFFFFFFFFFFFFFFFFFFFFFFFFFFFFF AND DUP2 JUMP JUMPDEST PUSH2 0x10AE PUSH2 0x1DA5 JUMP JUMPDEST PUSH1 0x6 PUSH1 0x0 DUP4 DUP2 MSTORE PUSH1 0x20 ADD SWAP1 DUP2 MSTORE PUSH1 0x20 ADD PUSH1 0x0 KECCAK256 PUSH1 0x0 ADD PUSH1 0x0 SWAP1 PUSH2 0x10CF PUSH2 0x2320 JUMP JUMPDEST SWAP1 PUSH2 0x100 EXP SWAP1 DIV PUSH1 0xFF AND ISZERO DUP1 ISZERO PUSH2 0x110E JUMPI POP PUSH1 0x6 PUSH1 0x0 DUP3 DUP2 MSTORE PUSH1 0x20 ADD SWAP1 DUP2 MSTORE PUSH1 0x20 ADD PUSH1 0x0 KECCAK256 PUSH1 0x0 ADD PUSH1 0x0 SWAP1 PUSH2 0x1102 PUSH2 0x2320 JUMP JUMPDEST SWAP1 PUSH2 0x100 EXP SWAP1 DIV PUSH1 0xFF AND ISZERO JUMPDEST PUSH2 0x1163 JUMPI PUSH1 0x40 MLOAD PUSH32 0x8C379A000000000000000000000000000000000000000000000000000000000 DUP2 MSTORE PUSH1 0x4 ADD DUP1 DUP1 PUSH1 0x20 ADD DUP3 DUP2 SUB DUP3 MSTORE PUSH1 0x36 DUP2 MSTORE PUSH1 0x20 ADD DUP1 PUSH2 0x23C2 PUSH1 0x36 SWAP2 CODECOPY PUSH1 0x40 ADD SWAP2 POP POP PUSH1 0x40 MLOAD DUP1 SWAP2 SUB SWAP1 REVERT JUMPDEST POP POP JUMP JUMPDEST PUSH2 0x1190 PUSH32 0x49737375616E6365000000000000000000000000000000000000000000000000 PUSH2 0x1F22 JUMP JUMPDEST PUSH1 0x0 PUSH1 0x4 PUSH1 0x0 ADD PUSH1 0x0 PUSH2 0x100 EXP DUP2 PUSH2 0x11A6 PUSH2 0x2320 JUMP JUMPDEST DUP2 PUSH1 0xFF MUL NOT AND SWAP1 DUP4 ISZERO ISZERO MUL OR SWAP1 PUSH2 0x11BB PUSH2 0x2357 JUMP JUMPDEST POP POP POP PUSH32 0xF1A80395FABA9A11017F830DB5F90AD6525A1621DBFB2CBC2B6679BA5716837 PUSH1 0x4 PUSH1 0x0 ADD PUSH1 0x1 SWAP1 PUSH2 0x11EF PUSH2 0x2320 JUMP JUMPDEST SWAP1 PUSH2 0x100 EXP SWAP1 DIV PUSH31 0xFFFFFFFFFFFFFFFFFFFFFFFFFFFFFFFFFFFFFFFFFFFFFFFFFFFFFFFFFFFFFF AND PUSH31 0xFFFFFFFFFFFFFFFFFFFFFFFFFFFFFFFFFFFFFFFFFFFFFFFFFFFFFFFFFFFFFF AND PUSH1 0x40 MLOAD DUP1 DUP3 DUP2 MSTORE PUSH1 0x20 ADD SWAP2 POP POP PUSH1 0x40 MLOAD DUP1 SWAP2 SUB SWAP1 LOG1 PUSH1 0x0 PUSH1 0x4 PUSH1 0x0 ADD PUSH1 0x1 PUSH2 0x100 EXP DUP2 PUSH2 0x1263 PUSH2 0x2320 JUMP JUMPDEST DUP2 PUSH31 0xFFFFFFFFFFFFFFFFFFFFFFFFFFFFFFFFFFFFFFFFFFFFFFFFFFFFFFFFFFFFFF MUL NOT AND SWAP1 DUP4 PUSH31 0xFFFFFFFFFFFFFFFFFFFFFFFFFFFFFFFFFFFFFFFFFFFFFFFFFFFFFFFFFFFFFF AND MUL OR SWAP1 PUSH2 0x12B5 PUSH2 0x2357 JUMP JUMPDEST POP POP POP JUMP JUMPDEST PUSH2 0x12C2 PUSH2 0x1DA5 JUMP JUMPDEST PUSH1 0x5 PUSH1 0x0 ADD PUSH1 0x0 SWAP1 PUSH2 0x12D2 PUSH2 0x2320 JUMP JUMPDEST SWAP1 PUSH2 0x100 EXP SWAP1 DIV PUSH1 0xFF AND ISZERO PUSH2 0x1332 JUMPI PUSH1 0x40 MLOAD PUSH32 0x8C379A000000000000000000000000000000000000000000000000000000000 DUP2 MSTORE PUSH1 0x4 ADD DUP1 DUP1 PUSH1 0x20 ADD DUP3 DUP2 SUB DUP3 MSTORE PUSH1 0x2B DUP2 MSTORE PUSH1 0x20 ADD DUP1 PUSH2 0x2423 PUSH1 0x2B SWAP2 CODECOPY PUSH1 0x40 ADD SWAP2 POP POP PUSH1 0x40 MLOAD DUP1 SWAP2 SUB SWAP1 REVERT JUMPDEST JUMP JUMPDEST PUSH1 0x6 PUSH1 0x20 MSTORE DUP1 PUSH1 0x0 MSTORE PUSH1 0x40 PUSH1 0x0 KECCAK256 PUSH1 0x0 SWAP2 POP SWAP1 POP DUP1 PUSH1 0x0 ADD PUSH1 0x0 SWAP1 PUSH2 0x1357 PUSH2 0x2320 JUMP JUMPDEST SWAP1 PUSH2 0x100 EXP SWAP1 DIV PUSH1 0xFF AND SWAP1 DUP1 PUSH1 0x0 ADD PUSH1 0x1 SWAP1 PUSH2 0x1371 PUSH2 0x2320 JUMP JUMPDEST SWAP1 PUSH2 0x100 EXP SWAP1 DIV PUSH31 0xFFFFFFFFFFFFFFFFFFFFFFFFFFFFFFFFFFFFFFFFFFFFFFFFFFFFFFFFFFFFFF AND SWAP1 POP DUP3 JUMP JUMPDEST PUSH1 0x1 PUSH1 0x0 SWAP1 PUSH2 0x13AB PUSH2 0x2320 JUMP JUMPDEST SWAP1 PUSH2 0x100 EXP SWAP1 DIV PUSH20 0xFFFFFFFFFFFFFFFFFFFFFFFFFFFFFFFFFFFFFFFF AND PUSH20 0xFFFFFFFFFFFFFFFFFFFFFFFFFFFFFFFFFFFFFFFF AND GAS PUSH2 0x13E7 PUSH2 0x2390 JUMP JUMPDEST PUSH20 0xFFFFFFFFFFFFFFFFFFFFFFFFFFFFFFFFFFFFFFFF AND EQ PUSH2 0x1407 JUMPI PUSH1 0x0 DUP1 REVERT JUMPDEST PUSH32 0xB532073B38C83145E3E5135377A08BF9AAB55BC0FD7C1179CD4FB995D2A5159C PUSH1 0x0 DUP1 SWAP1 PUSH2 0x1434 PUSH2 0x2320 JUMP JUMPDEST SWAP1 PUSH2 0x100 EXP SWAP1 DIV PUSH20 0xFFFFFFFFFFFFFFFFFFFFFFFFFFFFFFFFFFFFFFFF AND PUSH1 0x1 PUSH1 0x0 SWAP1 PUSH2 0x145E PUSH2 0x2320 JUMP JUMPDEST SWAP1 PUSH2 0x100 EXP SWAP1 DIV PUSH20 0xFFFFFFFFFFFFFFFFFFFFFFFFFFFFFFFFFFFFFFFF AND PUSH1 0x40 MLOAD DUP1 DUP4 PUSH20 0xFFFFFFFFFFFFFFFFFFFFFFFFFFFFFFFFFFFFFFFF AND PUSH20 0xFFFFFFFFFFFFFFFFFFFFFFFFFFFFFFFFFFFFFFFF AND DUP2 MSTORE PUSH1 0x20 ADD DUP3 PUSH20 0xFFFFFFFFFFFFFFFFFFFFFFFFFFFFFFFFFFFFFFFF AND PUSH20 0xFFFFFFFFFFFFFFFFFFFFFFFFFFFFFFFFFFFFFFFF AND DUP2 MSTORE PUSH1 0x20 ADD SWAP3 POP POP POP PUSH1 0x40 MLOAD DUP1 SWAP2 SUB SWAP1 LOG1 PUSH1 0x1 PUSH1 0x0 SWAP1 PUSH2 0x14FC PUSH2 0x2320 JUMP JUMPDEST SWAP1 PUSH2 0x100 EXP SWAP1 DIV PUSH20 0xFFFFFFFFFFFFFFFFFFFFFFFFFFFFFFFFFFFFFFFF AND PUSH1 0x0 DUP1 PUSH2 0x100 EXP DUP2 PUSH2 0x1529 PUSH2 0x2320 JUMP JUMPDEST DUP2 PUSH20 0xFFFFFFFFFFFFFFFFFFFFFFFFFFFFFFFFFFFFFFFF MUL NOT AND SWAP1 DUP4 PUSH20 0xFFFFFFFFFFFFFFFFFFFFFFFFFFFFFFFFFFFFFFFF AND MUL OR SWAP1 PUSH2 0x1565 PUSH2 0x2357 JUMP JUMPDEST POP POP POP PUSH1 0x0 PUSH1 0x1 PUSH1 0x0 PUSH2 0x100 EXP DUP2 PUSH2 0x157B PUSH2 0x2320 JUMP JUMPDEST DUP2 PUSH20 0xFFFFFFFFFFFFFFFFFFFFFFFFFFFFFFFFFFFFFFFF MUL NOT AND SWAP1 DUP4 PUSH20 0xFFFFFFFFFFFFFFFFFFFFFFFFFFFFFFFFFFFFFFFF AND MUL OR SWAP1 PUSH2 0x15B7 PUSH2 0x2357 JUMP JUMPDEST POP POP POP JUMP JUMPDEST PUSH2 0x15C4 PUSH2 0x1DA5 JUMP JUMPDEST PUSH1 0x4 PUSH1 0x0 ADD PUSH1 0x0 SWAP1 PUSH2 0x15D4 PUSH2 0x2320 JUMP JUMPDEST SWAP1 PUSH2 0x100 EXP SWAP1 DIV PUSH1 0xFF AND ISZERO PUSH2 0x1634 JUMPI PUSH1 0x40 MLOAD PUSH32 0x8C379A000000000000000000000000000000000000000000000000000000000 DUP2 MSTORE PUSH1 0x4 ADD DUP1 DUP1 PUSH1 0x20 ADD DUP3 DUP2 SUB DUP3 MSTORE PUSH1 0x2B DUP2 MSTORE PUSH1 0x20 ADD DUP1 PUSH2 0x23F8 PUSH1 0x2B SWAP2 CODECOPY PUSH1 0x40 ADD SWAP2 POP POP PUSH1 0x40 MLOAD DUP1 SWAP2 SUB SWAP1 REVERT JUMPDEST JUMP JUMPDEST PUSH1 0x0 DUP1 SWAP1 PUSH2 0x1642 PUSH2 0x2320 JUMP JUMPDEST SWAP1 PUSH2 0x100 EXP SWAP1 DIV PUSH20 0xFFFFFFFFFFFFFFFFFFFFFFFFFFFFFFFFFFFFFFFF AND DUP2 JUMP JUMPDEST PUSH2 0x168B PUSH32 0x53796E7468000000000000000000000000000000000000000000000000000000 PUSH2 0x1F22 JUMP JUMPDEST PUSH32 0x691B6C9654FA1F01847F7E98A061557CA10378BB9670782B60ED13891703D220 DUP2 PUSH1 0x6 PUSH1 0x0 DUP5 DUP2 MSTORE PUSH1 0x20 ADD SWAP1 DUP2 MSTORE PUSH1 0x20 ADD PUSH1 0x0 KECCAK256 PUSH1 0x0 ADD PUSH1 0x1 SWAP1 PUSH2 0x16CE PUSH2 0x2320 JUMP JUMPDEST SWAP1 PUSH2 0x100 EXP SWAP1 DIV PUSH31 0xFFFFFFFFFFFFFFFFFFFFFFFFFFFFFFFFFFFFFFFFFFFFFFFFFFFFFFFFFFFFFF AND PUSH31 0xFFFFFFFFFFFFFFFFFFFFFFFFFFFFFFFFFFFFFFFFFFFFFFFFFFFFFFFFFFFFFF AND PUSH1 0x40 MLOAD DUP1 DUP4 DUP2 MSTORE PUSH1 0x20 ADD DUP3 DUP2 MSTORE PUSH1 0x20 ADD SWAP3 POP POP POP PUSH1 0x40 MLOAD DUP1 SWAP2 SUB SWAP1 LOG1 PUSH1 0x6 PUSH1 0x0 DUP3 DUP2 MSTORE PUSH1 0x20 ADD SWAP1 DUP2 MSTORE PUSH1 0x20 ADD PUSH1 0x0 KECCAK256 PUSH1 0x0 DUP1 DUP3 ADD PUSH1 0x0 PUSH2 0x100 EXP DUP2 PUSH2 0x175A PUSH2 0x2320 JUMP JUMPDEST SWAP1 PUSH1 0xFF MUL NOT AND SWAP1 PUSH2 0x1769 PUSH2 0x2357 JUMP JUMPDEST POP POP PUSH1 0x0 DUP3 ADD PUSH1 0x1 PUSH2 0x100 EXP DUP2 PUSH2 0x177E PUSH2 0x2320 JUMP JUMPDEST SWAP1 PUSH31 0xFFFFFFFFFFFFFFFFFFFFFFFFFFFFFFFFFFFFFFFFFFFFFFFFFFFFFFFFFFFFFF MUL NOT AND SWAP1 PUSH2 0x17AB PUSH2 0x2357 JUMP JUMPDEST POP POP POP POP POP JUMP JUMPDEST PUSH1 0x1 DUP2 JUMP JUMPDEST PUSH2 0x17E0 PUSH32 0x53796E7468000000000000000000000000000000000000000000000000000000 PUSH2 0x1FEA JUMP JUMPDEST PUSH1 0x1 PUSH1 0x6 PUSH1 0x0 DUP5 DUP2 MSTORE PUSH1 0x20 ADD SWAP1 DUP2 MSTORE PUSH1 0x20 ADD PUSH1 0x0 KECCAK256 PUSH1 0x0 ADD PUSH1 0x0 PUSH2 0x100 EXP DUP2 PUSH2 0x1807 PUSH2 0x2320 JUMP JUMPDEST DUP2 PUSH1 0xFF MUL NOT AND SWAP1 DUP4 ISZERO ISZERO MUL OR SWAP1 PUSH2 0x181C PUSH2 0x2357 JUMP JUMPDEST POP POP POP DUP1 PUSH1 0x6 PUSH1 0x0 DUP5 DUP2 MSTORE PUSH1 0x20 ADD SWAP1 DUP2 MSTORE PUSH1 0x20 ADD PUSH1 0x0 KECCAK256 PUSH1 0x0 ADD PUSH1 0x1 PUSH2 0x100 EXP DUP2 PUSH2 0x1845 PUSH2 0x2320 JUMP JUMPDEST DUP2 PUSH31 0xFFFFFFFFFFFFFFFFFFFFFFFFFFFFFFFFFFFFFFFFFFFFFFFFFFFFFFFFFFFFFF MUL NOT AND SWAP1 DUP4 PUSH31 0xFFFFFFFFFFFFFFFFFFFFFFFFFFFFFFFFFFFFFFFFFFFFFFFFFFFFFFFFFFFFFF AND MUL OR SWAP1 PUSH2 0x1897 PUSH2 0x2357 JUMP JUMPDEST POP POP POP PUSH32 0x9CCA506F9028BBCC0D976DB0EAF80DFE6A6D7CADD99024EDD88F690E1EDA5541 DUP3 DUP3 PUSH1 0x40 MLOAD DUP1 DUP4 DUP2 MSTORE PUSH1 0x20 ADD DUP3 DUP2 MSTORE PUSH1 0x20 ADD SWAP3 POP POP POP PUSH1 0x40 MLOAD DUP1 SWAP2 SUB SWAP1 LOG1 POP POP JUMP JUMPDEST PUSH1 0x60 DUP1 DUP4 DUP4 SWAP1 POP PUSH1 0x40 MLOAD SWAP1 DUP1 DUP3 MSTORE DUP1 PUSH1 0x20 MUL PUSH1 0x20 ADD DUP3 ADD PUSH1 0x40 MSTORE DUP1 ISZERO PUSH2 0x1912 JUMPI DUP2 PUSH1 0x20 ADD PUSH1 0x20 DUP3 MUL DUP1 CODESIZE DUP4 CODECOPY DUP1 DUP3 ADD SWAP2 POP POP SWAP1 POP JUMPDEST POP SWAP2 POP DUP4 DUP4 SWAP1 POP PUSH1 0x40 MLOAD SWAP1 DUP1 DUP3 MSTORE DUP1 PUSH1 0x20 MUL PUSH1 0x20 ADD DUP3 ADD PUSH1 0x40 MSTORE DUP1 ISZERO PUSH2 0x1947 JUMPI DUP2 PUSH1 0x20 ADD PUSH1 0x20 DUP3 MUL DUP1 CODESIZE DUP4 CODECOPY DUP1 DUP3 ADD SWAP2 POP POP SWAP1 POP JUMPDEST POP SWAP1 POP PUSH1 0x0 DUP1 SWAP1 POP JUMPDEST DUP5 DUP5 SWAP1 POP DUP2 LT ISZERO PUSH2 0x1A57 JUMPI PUSH1 0x6 PUSH1 0x0 DUP7 DUP7 DUP5 DUP2 DUP2 LT PUSH2 0x196B JUMPI INVALID JUMPDEST SWAP1 POP PUSH1 0x20 MUL ADD CALLDATALOAD DUP2 MSTORE PUSH1 0x20 ADD SWAP1 DUP2 MSTORE PUSH1 0x20 ADD PUSH1 0x0 KECCAK256 PUSH1 0x0 ADD PUSH1 0x0 SWAP1 PUSH2 0x198E PUSH2 0x2320 JUMP JUMPDEST SWAP1 PUSH2 0x100 EXP SWAP1 DIV PUSH1 0xFF AND DUP4 DUP3 DUP2 MLOAD DUP2 LT PUSH2 0x19A4 JUMPI INVALID JUMPDEST PUSH1 0x20 MUL PUSH1 0x20 ADD ADD SWAP1 ISZERO ISZERO SWAP1 DUP2 ISZERO ISZERO DUP2 MSTORE POP POP PUSH1 0x6 PUSH1 0x0 DUP7 DUP7 DUP5 DUP2 DUP2 LT PUSH2 0x19C6 JUMPI INVALID JUMPDEST SWAP1 POP PUSH1 0x20 MUL ADD CALLDATALOAD DUP2 MSTORE PUSH1 0x20 ADD SWAP1 DUP2 MSTORE PUSH1 0x20 ADD PUSH1 0x0 KECCAK256 PUSH1 0x0 ADD PUSH1 0x1 SWAP1 PUSH2 0x19E9 PUSH2 0x2320 JUMP JUMPDEST SWAP1 PUSH2 0x100 EXP SWAP1 DIV PUSH31 0xFFFFFFFFFFFFFFFFFFFFFFFFFFFFFFFFFFFFFFFFFFFFFFFFFFFFFFFFFFFFFF AND PUSH31 0xFFFFFFFFFFFFFFFFFFFFFFFFFFFFFFFFFFFFFFFFFFFFFFFFFFFFFFFFFFFFFF AND DUP3 DUP3 DUP2 MLOAD DUP2 LT PUSH2 0x1A3E JUMPI INVALID JUMPDEST PUSH1 0x20 MUL PUSH1 0x20 ADD ADD DUP2 DUP2 MSTORE POP POP DUP1 DUP1 PUSH1 0x1 ADD SWAP2 POP POP PUSH2 0x1950 JUMP JUMPDEST POP SWAP3 POP SWAP3 SWAP1 POP JUMP JUMPDEST PUSH2 0x1A88 PUSH32 0x53797374656D0000000000000000000000000000000000000000000000000000 PUSH2 0x1FEA JUMP JUMPDEST PUSH1 0x1 PUSH1 0x3 PUSH1 0x0 ADD PUSH1 0x0 PUSH2 0x100 EXP DUP2 PUSH2 0x1A9E PUSH2 0x2320 JUMP JUMPDEST DUP2 PUSH1 0xFF MUL NOT AND SWAP1 DUP4 ISZERO ISZERO MUL OR SWAP1 PUSH2 0x1AB3 PUSH2 0x2357 JUMP JUMPDEST POP POP POP DUP1 PUSH1 0x3 PUSH1 0x0 ADD PUSH1 0x1 PUSH2 0x100 EXP DUP2 PUSH2 0x1ACB PUSH2 0x2320 JUMP JUMPDEST DUP2 PUSH31 0xFFFFFFFFFFFFFFFFFFFFFFFFFFFFFFFFFFFFFFFFFFFFFFFFFFFFFFFFFFFFFF MUL NOT AND SWAP1 DUP4 PUSH31 0xFFFFFFFFFFFFFFFFFFFFFFFFFFFFFFFFFFFFFFFFFFFFFFFFFFFFFFFFFFFFFF AND MUL OR SWAP1 PUSH2 0x1B1D PUSH2 0x2357 JUMP JUMPDEST POP POP POP PUSH32 0x86B7ED06C3A2C3763514D475CED33F9AC8B1BB8F028DED18DE0100B7678F3C4F PUSH1 0x3 PUSH1 0x0 ADD PUSH1 0x1 SWAP1 PUSH2 0x1B51 PUSH2 0x2320 JUMP JUMPDEST SWAP1 PUSH2 0x100 EXP SWAP1 DIV PUSH31 0xFFFFFFFFFFFFFFFFFFFFFFFFFFFFFFFFFFFFFFFFFFFFFFFFFFFFFFFFFFFFFF AND PUSH1 0x40 MLOAD DUP1 DUP3 PUSH31 0xFFFFFFFFFFFFFFFFFFFFFFFFFFFFFFFFFFFFFFFFFFFFFFFFFFFFFFFFFFFFFF AND DUP2 MSTORE PUSH1 0x20 ADD SWAP2 POP POP PUSH1 0x40 MLOAD DUP1 SWAP2 SUB SWAP1 LOG1 POP JUMP JUMPDEST PUSH32 0x45786368616E6765000000000000000000000000000000000000000000000000 DUP2 JUMP JUMPDEST PUSH2 0x1BFF PUSH32 0x45786368616E6765000000000000000000000000000000000000000000000000 PUSH2 0x1F22 JUMP JUMPDEST PUSH1 0x0 PUSH1 0x5 PUSH1 0x0 ADD PUSH1 0x0 PUSH2 0x100 EXP DUP2 PUSH2 0x1C15 PUSH2 0x2320 JUMP JUMPDEST DUP2 PUSH1 0xFF MUL NOT AND SWAP1 DUP4 ISZERO ISZERO MUL OR SWAP1 PUSH2 0x1C2A PUSH2 0x2357 JUMP JUMPDEST POP POP POP PUSH32 0x7966FE79D35C7ABF1F3B2AD9970EA24CAE0F11406E283E848E3E6608AE3C214 PUSH1 0x5 PUSH1 0x0 ADD PUSH1 0x1 SWAP1 PUSH2 0x1C5E PUSH2 0x2320 JUMP JUMPDEST SWAP1 PUSH2 0x100 EXP SWAP1 DIV PUSH31 0xFFFFFFFFFFFFFFFFFFFFFFFFFFFFFFFFFFFFFFFFFFFFFFFFFFFFFFFFFFFFFF AND PUSH31 0xFFFFFFFFFFFFFFFFFFFFFFFFFFFFFFFFFFFFFFFFFFFFFFFFFFFFFFFFFFFFFF AND PUSH1 0x40 MLOAD DUP1 DUP3 DUP2 MSTORE PUSH1 0x20 ADD SWAP2 POP POP PUSH1 0x40 MLOAD DUP1 SWAP2 SUB SWAP1 LOG1 PUSH1 0x0 PUSH1 0x5 PUSH1 0x0 ADD PUSH1 0x1 PUSH2 0x100 EXP DUP2 PUSH2 0x1CD2 PUSH2 0x2320 JUMP JUMPDEST DUP2 PUSH31 0xFFFFFFFFFFFFFFFFFFFFFFFFFFFFFFFFFFFFFFFFFFFFFFFFFFFFFFFFFFFFFF MUL NOT AND SWAP1 DUP4 PUSH31 0xFFFFFFFFFFFFFFFFFFFFFFFFFFFFFFFFFFFFFFFFFFFFFFFFFFFFFFFFFFFFFF AND MUL OR SWAP1 PUSH2 0x1D24 PUSH2 0x2357 JUMP JUMPDEST POP POP POP JUMP JUMPDEST PUSH32 0x53796E7468000000000000000000000000000000000000000000000000000000 DUP2 JUMP JUMPDEST PUSH1 0x5 DUP1 PUSH1 0x0 ADD PUSH1 0x0 SWAP1 PUSH2 0x1D5E PUSH2 0x2320 JUMP JUMPDEST SWAP1 PUSH2 0x100 EXP SWAP1 DIV PUSH1 0xFF AND SWAP1 DUP1 PUSH1 0x0 ADD PUSH1 0x1 SWAP1 PUSH2 0x1D78 PUSH2 0x2320 JUMP JUMPDEST SWAP1 PUSH2 0x100 EXP SWAP1 DIV PUSH31 0xFFFFFFFFFFFFFFFFFFFFFFFFFFFFFFFFFFFFFFFFFFFFFFFFFFFFFFFFFFFFFF AND SWAP1 POP DUP3 JUMP JUMPDEST PUSH1 0x3 PUSH1 0x0 ADD PUSH1 0x0 SWAP1 PUSH2 0x1DB5 PUSH2 0x2320 JUMP JUMPDEST SWAP1 PUSH2 0x100 EXP SWAP1 DIV PUSH1 0xFF AND ISZERO PUSH1 0x1 PUSH31 0xFFFFFFFFFFFFFFFFFFFFFFFFFFFFFFFFFFFFFFFFFFFFFFFFFFFFFFFFFFFFFF AND PUSH1 0x3 PUSH1 0x0 ADD PUSH1 0x1 SWAP1 PUSH2 0x1DF3 PUSH2 0x2320 JUMP JUMPDEST SWAP1 PUSH2 0x100 EXP SWAP1 DIV PUSH31 0xFFFFFFFFFFFFFFFFFFFFFFFFFFFFFFFFFFFFFFFFFFFFFFFFFFFFFFFFFFFFFF AND PUSH31 0xFFFFFFFFFFFFFFFFFFFFFFFFFFFFFFFFFFFFFFFFFFFFFFFFFFFFFFFFFFFFFF AND EQ PUSH2 0x1E5F JUMPI PUSH1 0x40 MLOAD DUP1 PUSH1 0x60 ADD PUSH1 0x40 MSTORE DUP1 PUSH1 0x2C DUP2 MSTORE PUSH1 0x20 ADD PUSH2 0x246F PUSH1 0x2C SWAP2 CODECOPY PUSH2 0x1E79 JUMP JUMPDEST PUSH1 0x40 MLOAD DUP1 PUSH1 0x60 ADD PUSH1 0x40 MSTORE DUP1 PUSH1 0x3E DUP2 MSTORE PUSH1 0x20 ADD PUSH2 0x249B PUSH1 0x3E SWAP2 CODECOPY JUMPDEST SWAP1 PUSH2 0x1F1F JUMPI PUSH1 0x40 MLOAD PUSH32 0x8C379A000000000000000000000000000000000000000000000000000000000 DUP2 MSTORE PUSH1 0x4 ADD DUP1 DUP1 PUSH1 0x20 ADD DUP3 DUP2 SUB DUP3 MSTORE DUP4 DUP2 DUP2 MLOAD DUP2 MSTORE PUSH1 0x20 ADD SWAP2 POP DUP1 MLOAD SWAP1 PUSH1 0x20 ADD SWAP1 DUP1 DUP4 DUP4 PUSH1 0x0 JUMPDEST DUP4 DUP2 LT ISZERO PUSH2 0x1EE4 JUMPI DUP1 DUP3 ADD MLOAD DUP2 DUP5 ADD MSTORE PUSH1 0x20 DUP2 ADD SWAP1 POP PUSH2 0x1EC9 JUMP JUMPDEST POP POP POP POP SWAP1 POP SWAP1 DUP2 ADD SWAP1 PUSH1 0x1F AND DUP1 ISZERO PUSH2 0x1F11 JUMPI DUP1 DUP3 SUB DUP1 MLOAD PUSH1 0x1 DUP4 PUSH1 0x20 SUB PUSH2 0x100 EXP SUB NOT AND DUP2 MSTORE PUSH1 0x20 ADD SWAP2 POP JUMPDEST POP SWAP3 POP POP POP PUSH1 0x40 MLOAD DUP1 SWAP2 SUB SWAP1 REVERT JUMPDEST POP JUMP JUMPDEST PUSH1 0x2 PUSH1 0x0 DUP3 DUP2 MSTORE PUSH1 0x20 ADD SWAP1 DUP2 MSTORE PUSH1 0x20 ADD PUSH1 0x0 KECCAK256 PUSH1 0x0 GAS PUSH2 0x1F40 PUSH2 0x2390 JUMP JUMPDEST PUSH20 0xFFFFFFFFFFFFFFFFFFFFFFFFFFFFFFFFFFFFFFFF AND PUSH20 0xFFFFFFFFFFFFFFFFFFFFFFFFFFFFFFFFFFFFFFFF AND DUP2 MSTORE PUSH1 0x20 ADD SWAP1 DUP2 MSTORE PUSH1 0x20 ADD PUSH1 0x0 KECCAK256 PUSH1 0x0 ADD PUSH1 0x1 SWAP1 PUSH2 0x1F88 PUSH2 0x2320 JUMP JUMPDEST SWAP1 PUSH2 0x100 EXP SWAP1 DIV PUSH1 0xFF AND PUSH2 0x1FE7 JUMPI PUSH1 0x40 MLOAD PUSH32 0x8C379A000000000000000000000000000000000000000000000000000000000 DUP2 MSTORE PUSH1 0x4 ADD DUP1 DUP1 PUSH1 0x20 ADD DUP3 DUP2 SUB DUP3 MSTORE PUSH1 0x21 DUP2 MSTORE PUSH1 0x20 ADD DUP1 PUSH2 0x244E PUSH1 0x21 SWAP2 CODECOPY PUSH1 0x40 ADD SWAP2 POP POP PUSH1 0x40 MLOAD DUP1 SWAP2 SUB SWAP1 REVERT JUMPDEST POP JUMP JUMPDEST PUSH1 0x2 PUSH1 0x0 DUP3 DUP2 MSTORE PUSH1 0x20 ADD SWAP1 DUP2 MSTORE PUSH1 0x20 ADD PUSH1 0x0 KECCAK256 PUSH1 0x0 GAS PUSH2 0x2008 PUSH2 0x2390 JUMP JUMPDEST PUSH20 0xFFFFFFFFFFFFFFFFFFFFFFFFFFFFFFFFFFFFFFFF AND PUSH20 0xFFFFFFFFFFFFFFFFFFFFFFFFFFFFFFFFFFFFFFFF AND DUP2 MSTORE PUSH1 0x20 ADD SWAP1 DUP2 MSTORE PUSH1 0x20 ADD PUSH1 0x0 KECCAK256 PUSH1 0x0 ADD PUSH1 0x0 SWAP1 PUSH2 0x2050 PUSH2 0x2320 JUMP JUMPDEST SWAP1 PUSH2 0x100 EXP SWAP1 DIV PUSH1 0xFF AND PUSH2 0x20AF JUMPI PUSH1 0x40 MLOAD PUSH32 0x8C379A000000000000000000000000000000000000000000000000000000000 DUP2 MSTORE PUSH1 0x4 ADD DUP1 DUP1 PUSH1 0x20 ADD DUP3 DUP2 SUB DUP3 MSTORE PUSH1 0x21 DUP2 MSTORE PUSH1 0x20 ADD DUP1 PUSH2 0x244E PUSH1 0x21 SWAP2 CODECOPY PUSH1 0x40 ADD SWAP2 POP POP PUSH1 0x40 MLOAD DUP1 SWAP2 SUB SWAP1 REVERT JUMPDEST POP JUMP JUMPDEST PUSH32 0x53797374656D0000000000000000000000000000000000000000000000000000 DUP5 EQ DUP1 PUSH2 0x20FF JUMPI POP PUSH32 0x49737375616E6365000000000000000000000000000000000000000000000000 DUP5 EQ JUMPDEST DUP1 PUSH2 0x2129 JUMPI POP PUSH32 0x45786368616E6765000000000000000000000000000000000000000000000000 DUP5 EQ JUMPDEST DUP1 PUSH2 0x2153 JUMPI POP PUSH32 0x53796E7468000000000000000000000000000000000000000000000000000000 DUP5 EQ JUMPDEST PUSH2 0x21C5 JUMPI PUSH1 0x40 MLOAD PUSH32 0x8C379A000000000000000000000000000000000000000000000000000000000 DUP2 MSTORE PUSH1 0x4 ADD DUP1 DUP1 PUSH1 0x20 ADD DUP3 DUP2 SUB DUP3 MSTORE PUSH1 0x18 DUP2 MSTORE PUSH1 0x20 ADD DUP1 PUSH32 0x496E76616C69642073656374696F6E20737570706C6965640000000000000000 DUP2 MSTORE POP PUSH1 0x20 ADD SWAP2 POP POP PUSH1 0x40 MLOAD DUP1 SWAP2 SUB SWAP1 REVERT JUMPDEST DUP2 PUSH1 0x2 PUSH1 0x0 DUP7 DUP2 MSTORE PUSH1 0x20 ADD SWAP1 DUP2 MSTORE PUSH1 0x20 ADD PUSH1 0x0 KECCAK256 PUSH1 0x0 DUP6 PUSH20 0xFFFFFFFFFFFFFFFFFFFFFFFFFFFFFFFFFFFFFFFF AND PUSH20 0xFFFFFFFFFFFFFFFFFFFFFFFFFFFFFFFFFFFFFFFF AND DUP2 MSTORE PUSH1 0x20 ADD SWAP1 DUP2 MSTORE PUSH1 0x20 ADD PUSH1 0x0 KECCAK256 PUSH1 0x0 ADD PUSH1 0x0 PUSH2 0x100 EXP DUP2 PUSH2 0x2228 PUSH2 0x2320 JUMP JUMPDEST DUP2 PUSH1 0xFF MUL NOT AND SWAP1 DUP4 ISZERO ISZERO MUL OR SWAP1 PUSH2 0x223D PUSH2 0x2357 JUMP JUMPDEST POP POP POP DUP1 PUSH1 0x2 PUSH1 0x0 DUP7 DUP2 MSTORE PUSH1 0x20 ADD SWAP1 DUP2 MSTORE PUSH1 0x20 ADD PUSH1 0x0 KECCAK256 PUSH1 0x0 DUP6 PUSH20 0xFFFFFFFFFFFFFFFFFFFFFFFFFFFFFFFFFFFFFFFF AND PUSH20 0xFFFFFFFFFFFFFFFFFFFFFFFFFFFFFFFFFFFFFFFF AND DUP2 MSTORE PUSH1 0x20 ADD SWAP1 DUP2 MSTORE PUSH1 0x20 ADD PUSH1 0x0 KECCAK256 PUSH1 0x0 ADD PUSH1 0x1 PUSH2 0x100 EXP DUP2 PUSH2 0x22A3 PUSH2 0x2320 JUMP JUMPDEST DUP2 PUSH1 0xFF MUL NOT AND SWAP1 DUP4 ISZERO ISZERO MUL OR SWAP1 PUSH2 0x22B8 PUSH2 0x2357 JUMP JUMPDEST POP POP POP DUP3 PUSH20 0xFFFFFFFFFFFFFFFFFFFFFFFFFFFFFFFFFFFFFFFF AND DUP5 PUSH32 0x95BAD30F8FE717E4A02906D7B05A6F90698C7135CD053E5B6D5239146B4C40D1 DUP5 DUP5 PUSH1 0x40 MLOAD DUP1 DUP4 ISZERO ISZERO ISZERO ISZERO DUP2 MSTORE PUSH1 0x20 ADD DUP3 ISZERO ISZERO ISZERO ISZERO DUP2 MSTORE PUSH1 0x20 ADD SWAP3 POP POP POP PUSH1 0x40 MLOAD DUP1 SWAP2 SUB SWAP1 LOG3 POP POP POP POP JUMP JUMPDEST PUSH4 0x20966208 PUSH3 0x80000 DUP2 PUSH1 0xE0 SHL DUP2 MSTORE DUP4 PUSH1 0x4 DUP3 ADD MSTORE PUSH1 0x20 DUP2 PUSH1 0x24 DUP4 PUSH1 0x0 CALLER GAS CALL PUSH1 0x0 DUP2 EQ ISZERO PUSH2 0x234E JUMPI PUSH1 0x0 DUP1 REVERT JUMPDEST DUP2 MLOAD SWAP5 POP POP POP POP JUMP JUMPDEST PUSH4 0x28DCB2A0 PUSH3 0x80000 DUP2 PUSH1 0xE0 SHL DUP2 MSTORE DUP4 PUSH1 0x4 DUP3 ADD MSTORE DUP5 PUSH1 0x24 DUP3 ADD MSTORE PUSH1 0x0 DUP2 PUSH1 0x44 DUP4 PUSH1 0x0 CALLER GAS CALL PUSH1 0x0 DUP2 EQ ISZERO PUSH2 0x238B JUMPI PUSH1 0x0 DUP1 REVERT JUMPDEST POP POP POP JUMP JUMPDEST PUSH4 0x73509064 PUSH3 0x80000 DUP2 PUSH1 0xE0 SHL DUP2 MSTORE PUSH1 0x20 DUP2 PUSH1 0x4 DUP4 PUSH1 0x0 CALLER GAS CALL PUSH1 0x0 DUP2 EQ ISZERO PUSH2 0x23B8 JUMPI PUSH1 0x0 DUP1 REVERT JUMPDEST DUP2 MLOAD SWAP5 POP POP POP POP JUMP INVALID 0x4F PUSH15 0x65206F72206D6F72652073796E7468 PUSH20 0x206172652073757370656E6465642E204F706572 PUSH2 0x7469 PUSH16 0x6E2070726F6869626974656449737375 PUSH2 0x6E63 PUSH6 0x206973207375 PUSH20 0x70656E6465642E204F7065726174696F6E207072 PUSH16 0x6869626974656445786368616E676520 PUSH10 0x732073757370656E6465 PUSH5 0x2E204F7065 PUSH19 0x6174696F6E2070726F68696269746564526573 PUSH21 0x72696374656420746F2061636365737320636F6E74 PUSH19 0x6F6C206C69737453796E746865746978206973 KECCAK256 PUSH20 0x757370656E6465642E204F7065726174696F6E20 PUSH17 0x726F6869626974656453796E7468657469 PUSH25 0x2069732073757370656E6465642C207570677261646520696E KECCAK256 PUSH17 0x726F67726573732E2E2E20706C65617365 KECCAK256 PUSH20 0x74616E6420627953796E74682069732073757370 PUSH6 0x6E6465642E20 0x4F PUSH17 0x65726174696F6E2070726F686962697465 PUSH5 0xA265627A7A PUSH19 0x315820F3471485C4B86D3495BEA888D2DDB882 EXP SWAP8 PUSH30 0x8FCF75319210FE4199286780E664736F6C637828302E352E31362D646576 PUSH6 0x6C6F702E3230 ORIGIN ADDRESS 0x2E CALLDATACOPY 0x2E ORIGIN CODECOPY 0x2B PUSH4 0x6F6D6D69 PUSH21 0x2E3632653634653637005800000000000000000000 "
		}
	}
}