{
  "address": "0x63D0D3E6971FDA3bd2223B81AF7e47CFB2244F56",
  "abi": [
    {
      "type": "constructor",
      "inputs": [
        {
          "name": "_messenger",
          "type": "address",
          "internalType": "address"
        }
      ],
      "stateMutability": "nonpayable"
    },
    {
      "type": "function",
      "name": "MESSENGER",
      "inputs": [],
      "outputs": [
        {
          "name": "",
          "type": "address",
          "internalType": "contract CrossDomainMessenger"
        }
      ],
      "stateMutability": "view"
    },
    {
      "type": "function",
      "name": "OTHER_BRIDGE",
      "inputs": [],
      "outputs": [
        {
          "name": "",
          "type": "address",
          "internalType": "address"
        }
      ],
      "stateMutability": "view"
    },
    {
      "type": "function",
      "name": "bridgeERC721",
      "inputs": [
        {
          "name": "_localToken",
          "type": "address",
          "internalType": "address"
        },
        {
          "name": "_remoteToken",
          "type": "address",
          "internalType": "address"
        },
        {
          "name": "_tokenId",
          "type": "uint256",
          "internalType": "uint256"
        },
        {
          "name": "_minGasLimit",
          "type": "uint32",
          "internalType": "uint32"
        },
        {
          "name": "_extraData",
          "type": "bytes",
          "internalType": "bytes"
        }
      ],
      "outputs": [],
      "stateMutability": "nonpayable"
    },
    {
      "type": "function",
      "name": "bridgeERC721To",
      "inputs": [
        {
          "name": "_localToken",
          "type": "address",
          "internalType": "address"
        },
        {
          "name": "_remoteToken",
          "type": "address",
          "internalType": "address"
        },
        {
          "name": "_to",
          "type": "address",
          "internalType": "address"
        },
        {
          "name": "_tokenId",
          "type": "uint256",
          "internalType": "uint256"
        },
        {
          "name": "_minGasLimit",
          "type": "uint32",
          "internalType": "uint32"
        },
        {
          "name": "_extraData",
          "type": "bytes",
          "internalType": "bytes"
        }
      ],
      "outputs": [],
      "stateMutability": "nonpayable"
    },
    {
      "type": "function",
      "name": "deposits",
      "inputs": [
        {
          "name": "",
          "type": "address",
          "internalType": "address"
        },
        {
          "name": "",
          "type": "address",
          "internalType": "address"
        },
        {
          "name": "",
          "type": "uint256",
          "internalType": "uint256"
        }
      ],
      "outputs": [
        {
          "name": "",
          "type": "bool",
          "internalType": "bool"
        }
      ],
      "stateMutability": "view"
    },
    {
      "type": "function",
      "name": "finalizeBridgeERC721",
      "inputs": [
        {
          "name": "_localToken",
          "type": "address",
          "internalType": "address"
        },
        {
          "name": "_remoteToken",
          "type": "address",
          "internalType": "address"
        },
        {
          "name": "_from",
          "type": "address",
          "internalType": "address"
        },
        {
          "name": "_to",
          "type": "address",
          "internalType": "address"
        },
        {
          "name": "_tokenId",
          "type": "uint256",
          "internalType": "uint256"
        },
        {
          "name": "_extraData",
          "type": "bytes",
          "internalType": "bytes"
        }
      ],
      "outputs": [],
      "stateMutability": "nonpayable"
    },
    {
      "type": "function",
      "name": "initialize",
      "inputs": [
        {
          "name": "_superchainConfig",
          "type": "address",
          "internalType": "contract SuperchainConfig"
        }
      ],
      "outputs": [],
      "stateMutability": "nonpayable"
    },
    {
      "type": "function",
      "name": "messenger",
      "inputs": [],
      "outputs": [
        {
          "name": "",
          "type": "address",
          "internalType": "contract CrossDomainMessenger"
        }
      ],
      "stateMutability": "view"
    },
    {
      "type": "function",
      "name": "otherBridge",
      "inputs": [],
      "outputs": [
        {
          "name": "",
          "type": "address",
          "internalType": "address"
        }
      ],
      "stateMutability": "view"
    },
    {
      "type": "function",
      "name": "paused",
      "inputs": [],
      "outputs": [
        {
          "name": "",
          "type": "bool",
          "internalType": "bool"
        }
      ],
      "stateMutability": "view"
    },
    {
      "type": "function",
      "name": "superchainConfig",
      "inputs": [],
      "outputs": [
        {
          "name": "",
          "type": "address",
          "internalType": "contract SuperchainConfig"
        }
      ],
      "stateMutability": "view"
    },
    {
      "type": "function",
      "name": "version",
      "inputs": [],
      "outputs": [
        {
          "name": "",
          "type": "string",
          "internalType": "string"
        }
      ],
      "stateMutability": "view"
    },
    {
      "type": "event",
      "name": "ERC721BridgeFinalized",
      "inputs": [
        {
          "name": "localToken",
          "type": "address",
          "indexed": true,
          "internalType": "address"
        },
        {
          "name": "remoteToken",
          "type": "address",
          "indexed": true,
          "internalType": "address"
        },
        {
          "name": "from",
          "type": "address",
          "indexed": true,
          "internalType": "address"
        },
        {
          "name": "to",
          "type": "address",
          "indexed": false,
          "internalType": "address"
        },
        {
          "name": "tokenId",
          "type": "uint256",
          "indexed": false,
          "internalType": "uint256"
        },
        {
          "name": "extraData",
          "type": "bytes",
          "indexed": false,
          "internalType": "bytes"
        }
      ],
      "anonymous": false
    },
    {
      "type": "event",
      "name": "ERC721BridgeInitiated",
      "inputs": [
        {
          "name": "localToken",
          "type": "address",
          "indexed": true,
          "internalType": "address"
        },
        {
          "name": "remoteToken",
          "type": "address",
          "indexed": true,
          "internalType": "address"
        },
        {
          "name": "from",
          "type": "address",
          "indexed": true,
          "internalType": "address"
        },
        {
          "name": "to",
          "type": "address",
          "indexed": false,
          "internalType": "address"
        },
        {
          "name": "tokenId",
          "type": "uint256",
          "indexed": false,
          "internalType": "uint256"
        },
        {
          "name": "extraData",
          "type": "bytes",
          "indexed": false,
          "internalType": "bytes"
        }
      ],
      "anonymous": false
    },
    {
      "type": "event",
      "name": "Initialized",
      "inputs": [
        {
          "name": "version",
          "type": "uint8",
          "indexed": false,
          "internalType": "uint8"
        }
      ],
      "anonymous": false
    }
  ],
  "transactionHash": "0xdae2692ba1110ca246f6db8011af4139a7151b5ff9c41236aa2793580c62433f",
  "args": [
    "0x9253E76E2fA3f72aF18e08914b3528F725779495"
  ],
  "numDeployments": 1,
  "bytecode": "0x60c06040523480156200001157600080fd5b506040516200168a3803806200168a83398101604081905262000034916200029f565b807342000000000000000000000000000000000000146001600160a01b038216620000bb5760405162461bcd60e51b815260206004820152602c60248201527f4552433732314272696467653a206d657373656e6765722063616e6e6f74206260448201526b65206164647265737328302960a01b60648201526084015b60405180910390fd5b6001600160a01b0381166200012b5760405162461bcd60e51b815260206004820152602f60248201527f4552433732314272696467653a206f74686572206272696467652063616e6e6f60448201526e74206265206164647265737328302960881b6064820152608401620000b2565b6001600160a01b039182166080521660a05262000149600062000150565b50620002d1565b600054610100900460ff1615808015620001715750600054600160ff909116105b80620001a157506200018e306200029060201b62000b5c1760201c565b158015620001a1575060005460ff166001145b620002065760405162461bcd60e51b815260206004820152602e60248201527f496e697469616c697a61626c653a20636f6e747261637420697320616c72656160448201526d191e481a5b9a5d1a585b1a5e995960921b6064820152608401620000b2565b6000805460ff1916600117905580156200022a576000805461ff0019166101001790555b603280546001600160a01b0319166001600160a01b03841617905580156200028c576000805461ff0019169055604051600181527f7f26b83ff96e1f2b6a682f133852f6798a09c465da95921460cefb38474024989060200160405180910390a15b5050565b6001600160a01b03163b151590565b600060208284031215620002b257600080fd5b81516001600160a01b0381168114620002ca57600080fd5b9392505050565b60805160a051611362620003286000396000818161020b0152818161027c015281816104270152610e0401526000818161013a01528181610232015281816103fd0152818161045e0152610dd501526113626000f3fe608060405234801561001057600080fd5b50600436106100d45760003560e01c8063761f449311610081578063aa5574521161005b578063aa55745214610254578063c4d66de814610267578063c89701a21461027a57600080fd5b8063761f4493146101f35780637f46ddb214610206578063927ede2d1461022d57600080fd5b806354fd4d50116100b257806354fd4d501461015e5780635c975abb146101a75780635d93a3fc146101bf57600080fd5b806335e80ab3146100d95780633687011a146101235780633cb747bf14610138575b600080fd5b6032546100f99073ffffffffffffffffffffffffffffffffffffffff1681565b60405173ffffffffffffffffffffffffffffffffffffffff90911681526020015b60405180910390f35b610136610131366004610f76565b6102a0565b005b7f00000000000000000000000000000000000000000000000000000000000000006100f9565b61019a6040518060400160405280600581526020017f322e302e3000000000000000000000000000000000000000000000000000000081525081565b60405161011a9190611064565b6101af61034c565b604051901515815260200161011a565b6101af6101cd36600461107e565b603160209081526000938452604080852082529284528284209052825290205460ff1681565b6101366102013660046110bf565b6103e5565b6100f97f000000000000000000000000000000000000000000000000000000000000000081565b6100f97f000000000000000000000000000000000000000000000000000000000000000081565b610136610262366004611157565b6108d5565b6101366102753660046111ce565b610991565b7f00000000000000000000000000000000000000000000000000000000000000006100f9565b333b15610334576040517f08c379a000000000000000000000000000000000000000000000000000000000815260206004820152602d60248201527f4552433732314272696467653a206163636f756e74206973206e6f742065787460448201527f65726e616c6c79206f776e65640000000000000000000000000000000000000060648201526084015b60405180910390fd5b6103448686333388888888610b78565b505050505050565b603254604080517f5c975abb000000000000000000000000000000000000000000000000000000008152905160009273ffffffffffffffffffffffffffffffffffffffff1691635c975abb9160048083019260209291908290030181865afa1580156103bc573d6000803e3d6000fd5b505050506040513d601f19601f820116820180604052508101906103e091906111eb565b905090565b3373ffffffffffffffffffffffffffffffffffffffff7f00000000000000000000000000000000000000000000000000000000000000001614801561050357507f000000000000000000000000000000000000000000000000000000000000000073ffffffffffffffffffffffffffffffffffffffff167f000000000000000000000000000000000000000000000000000000000000000073ffffffffffffffffffffffffffffffffffffffff16636e296e456040518163ffffffff1660e01b8152600401602060405180830381865afa1580156104c7573d6000803e3d6000fd5b505050506040513d601f19601f820116820180604052508101906104eb919061120d565b73ffffffffffffffffffffffffffffffffffffffff16145b61058f576040517f08c379a000000000000000000000000000000000000000000000000000000000815260206004820152603f60248201527f4552433732314272696467653a2066756e6374696f6e2063616e206f6e6c792060448201527f62652063616c6c65642066726f6d20746865206f746865722062726964676500606482015260840161032b565b61059761034c565b156105fe576040517f08c379a000000000000000000000000000000000000000000000000000000000815260206004820152601660248201527f4c314552433732314272696467653a2070617573656400000000000000000000604482015260640161032b565b3073ffffffffffffffffffffffffffffffffffffffff8816036106a3576040517f08c379a000000000000000000000000000000000000000000000000000000000815260206004820152602a60248201527f4c314552433732314272696467653a206c6f63616c20746f6b656e2063616e6e60448201527f6f742062652073656c6600000000000000000000000000000000000000000000606482015260840161032b565b73ffffffffffffffffffffffffffffffffffffffff8088166000908152603160209081526040808320938a1683529281528282208683529052205460ff161515600114610772576040517f08c379a000000000000000000000000000000000000000000000000000000000815260206004820152603960248201527f4c314552433732314272696467653a20546f6b656e204944206973206e6f742060448201527f657363726f77656420696e20746865204c312042726964676500000000000000606482015260840161032b565b73ffffffffffffffffffffffffffffffffffffffff87811660008181526031602090815260408083208b8616845282528083208884529091529081902080547fffffffffffffffffffffffffffffffffffffffffffffffffffffffffffffff00169055517f42842e0e000000000000000000000000000000000000000000000000000000008152306004820152918616602483015260448201859052906342842e0e90606401600060405180830381600087803b15801561083257600080fd5b505af1158015610846573d6000803e3d6000fd5b505050508473ffffffffffffffffffffffffffffffffffffffff168673ffffffffffffffffffffffffffffffffffffffff168873ffffffffffffffffffffffffffffffffffffffff167f1f39bf6707b5d608453e0ae4c067b562bcc4c85c0f562ef5d2c774d2e7f131ac878787876040516108c49493929190611273565b60405180910390a450505050505050565b73ffffffffffffffffffffffffffffffffffffffff8516610978576040517f08c379a000000000000000000000000000000000000000000000000000000000815260206004820152603060248201527f4552433732314272696467653a206e667420726563697069656e742063616e6e60448201527f6f74206265206164647265737328302900000000000000000000000000000000606482015260840161032b565b6109888787338888888888610b78565b50505050505050565b600054610100900460ff16158080156109b15750600054600160ff909116105b806109cb5750303b1580156109cb575060005460ff166001145b610a57576040517f08c379a000000000000000000000000000000000000000000000000000000000815260206004820152602e60248201527f496e697469616c697a61626c653a20636f6e747261637420697320616c72656160448201527f647920696e697469616c697a6564000000000000000000000000000000000000606482015260840161032b565b600080547fffffffffffffffffffffffffffffffffffffffffffffffffffffffffffffff001660011790558015610ab557600080547fffffffffffffffffffffffffffffffffffffffffffffffffffffffffffff00ff166101001790555b603280547fffffffffffffffffffffffff00000000000000000000000000000000000000001673ffffffffffffffffffffffffffffffffffffffff84161790558015610b5857600080547fffffffffffffffffffffffffffffffffffffffffffffffffffffffffffff00ff169055604051600181527f7f26b83ff96e1f2b6a682f133852f6798a09c465da95921460cefb38474024989060200160405180910390a15b5050565b73ffffffffffffffffffffffffffffffffffffffff163b151590565b73ffffffffffffffffffffffffffffffffffffffff8716610c1b576040517f08c379a000000000000000000000000000000000000000000000000000000000815260206004820152603160248201527f4c314552433732314272696467653a2072656d6f746520746f6b656e2063616e60448201527f6e6f742062652061646472657373283029000000000000000000000000000000606482015260840161032b565b600063761f449360e01b888a8989898888604051602401610c4297969594939291906112b3565b604080517fffffffffffffffffffffffffffffffffffffffffffffffffffffffffffffffe0818403018152918152602080830180517bffffffffffffffffffffffffffffffffffffffffffffffffffffffff167fffffffff00000000000000000000000000000000000000000000000000000000959095169490941790935273ffffffffffffffffffffffffffffffffffffffff8c81166000818152603186528381208e8416825286528381208b82529095529382902080547fffffffffffffffffffffffffffffffffffffffffffffffffffffffffffffff0016600117905590517f23b872dd000000000000000000000000000000000000000000000000000000008152908a166004820152306024820152604481018890529092506323b872dd90606401600060405180830381600087803b158015610d8257600080fd5b505af1158015610d96573d6000803e3d6000fd5b50506040517f3dbb202b00000000000000000000000000000000000000000000000000000000815273ffffffffffffffffffffffffffffffffffffffff7f0000000000000000000000000000000000000000000000000000000000000000169250633dbb202b9150610e30907f00000000000000000000000000000000000000000000000000000000000000009085908990600401611310565b600060405180830381600087803b158015610e4a57600080fd5b505af1158015610e5e573d6000803e3d6000fd5b505050508673ffffffffffffffffffffffffffffffffffffffff168873ffffffffffffffffffffffffffffffffffffffff168a73ffffffffffffffffffffffffffffffffffffffff167fb7460e2a880f256ebef3406116ff3eee0cee51ebccdc2a40698f87ebb2e9c1a589898888604051610edc9493929190611273565b60405180910390a4505050505050505050565b73ffffffffffffffffffffffffffffffffffffffff81168114610f1157600080fd5b50565b803563ffffffff81168114610f2857600080fd5b919050565b60008083601f840112610f3f57600080fd5b50813567ffffffffffffffff811115610f5757600080fd5b602083019150836020828501011115610f6f57600080fd5b9250929050565b60008060008060008060a08789031215610f8f57600080fd5b8635610f9a81610eef565b95506020870135610faa81610eef565b945060408701359350610fbf60608801610f14565b9250608087013567ffffffffffffffff811115610fdb57600080fd5b610fe789828a01610f2d565b979a9699509497509295939492505050565b6000815180845260005b8181101561101f57602081850181015186830182015201611003565b81811115611031576000602083870101525b50601f017fffffffffffffffffffffffffffffffffffffffffffffffffffffffffffffffe0169290920160200192915050565b6020815260006110776020830184610ff9565b9392505050565b60008060006060848603121561109357600080fd5b833561109e81610eef565b925060208401356110ae81610eef565b929592945050506040919091013590565b600080600080600080600060c0888a0312156110da57600080fd5b87356110e581610eef565b965060208801356110f581610eef565b9550604088013561110581610eef565b9450606088013561111581610eef565b93506080880135925060a088013567ffffffffffffffff81111561113857600080fd5b6111448a828b01610f2d565b989b979a50959850939692959293505050565b600080600080600080600060c0888a03121561117257600080fd5b873561117d81610eef565b9650602088013561118d81610eef565b9550604088013561119d81610eef565b9450606088013593506111b260808901610f14565b925060a088013567ffffffffffffffff81111561113857600080fd5b6000602082840312156111e057600080fd5b813561107781610eef565b6000602082840312156111fd57600080fd5b8151801515811461107757600080fd5b60006020828403121561121f57600080fd5b815161107781610eef565b8183528181602085013750600060208284010152600060207fffffffffffffffffffffffffffffffffffffffffffffffffffffffffffffffe0601f840116840101905092915050565b73ffffffffffffffffffffffffffffffffffffffff851681528360208201526060604082015260006112a960608301848661122a565b9695505050505050565b600073ffffffffffffffffffffffffffffffffffffffff808a1683528089166020840152808816604084015280871660608401525084608083015260c060a083015261130360c08301848661122a565b9998505050505050505050565b73ffffffffffffffffffffffffffffffffffffffff8416815260606020820152600061133f6060830185610ff9565b905063ffffffff8316604083015294935050505056fea164736f6c634300080f000a"
}