{
  "address": "0x5501754cdCbC5E1A1c5Bf438fDF44682BC5E29B3",
  "abi": [
    {
      "type": "constructor",
      "inputs": [
        {
          "name": "_submissionInterval",
          "type": "uint256",
          "internalType": "uint256"
        },
        {
          "name": "_l2BlockTime",
          "type": "uint256",
          "internalType": "uint256"
        },
        {
          "name": "_startingBlockNumber",
          "type": "uint256",
          "internalType": "uint256"
        },
        {
          "name": "_startingTimestamp",
          "type": "uint256",
          "internalType": "uint256"
        },
        {
          "name": "_proposer",
          "type": "address",
          "internalType": "address"
        },
        {
          "name": "_challenger",
          "type": "address",
          "internalType": "address"
        },
        {
          "name": "_finalizationPeriodSeconds",
          "type": "uint256",
          "internalType": "uint256"
        }
      ],
      "stateMutability": "nonpayable"
    },
    {
      "type": "function",
      "name": "CHALLENGER",
      "inputs": [],
      "outputs": [
        {
          "name": "",
          "type": "address",
          "internalType": "address"
        }
      ],
      "stateMutability": "view"
    },
    {
      "type": "function",
      "name": "FINALIZATION_PERIOD_SECONDS",
      "inputs": [],
      "outputs": [
        {
          "name": "",
          "type": "uint256",
          "internalType": "uint256"
        }
      ],
      "stateMutability": "view"
    },
    {
      "type": "function",
      "name": "L2_BLOCK_TIME",
      "inputs": [],
      "outputs": [
        {
          "name": "",
          "type": "uint256",
          "internalType": "uint256"
        }
      ],
      "stateMutability": "view"
    },
    {
      "type": "function",
      "name": "PROPOSER",
      "inputs": [],
      "outputs": [
        {
          "name": "",
          "type": "address",
          "internalType": "address"
        }
      ],
      "stateMutability": "view"
    },
    {
      "type": "function",
      "name": "SUBMISSION_INTERVAL",
      "inputs": [],
      "outputs": [
        {
          "name": "",
          "type": "uint256",
          "internalType": "uint256"
        }
      ],
      "stateMutability": "view"
    },
    {
      "type": "function",
      "name": "challenger",
      "inputs": [],
      "outputs": [
        {
          "name": "",
          "type": "address",
          "internalType": "address"
        }
      ],
      "stateMutability": "view"
    },
    {
      "type": "function",
      "name": "computeL2Timestamp",
      "inputs": [
        {
          "name": "_l2BlockNumber",
          "type": "uint256",
          "internalType": "uint256"
        }
      ],
      "outputs": [
        {
          "name": "",
          "type": "uint256",
          "internalType": "uint256"
        }
      ],
      "stateMutability": "view"
    },
    {
      "type": "function",
      "name": "deleteL2Outputs",
      "inputs": [
        {
          "name": "_l2OutputIndex",
          "type": "uint256",
          "internalType": "uint256"
        }
      ],
      "outputs": [],
      "stateMutability": "nonpayable"
    },
    {
      "type": "function",
      "name": "finalizationPeriodSeconds",
      "inputs": [],
      "outputs": [
        {
          "name": "",
          "type": "uint256",
          "internalType": "uint256"
        }
      ],
      "stateMutability": "view"
    },
    {
      "type": "function",
      "name": "getL2Output",
      "inputs": [
        {
          "name": "_l2OutputIndex",
          "type": "uint256",
          "internalType": "uint256"
        }
      ],
      "outputs": [
        {
          "name": "",
          "type": "tuple",
          "internalType": "struct Types.OutputProposal",
          "components": [
            {
              "name": "outputRoot",
              "type": "bytes32",
              "internalType": "bytes32"
            },
            {
              "name": "timestamp",
              "type": "uint128",
              "internalType": "uint128"
            },
            {
              "name": "l2BlockNumber",
              "type": "uint128",
              "internalType": "uint128"
            }
          ]
        }
      ],
      "stateMutability": "view"
    },
    {
      "type": "function",
      "name": "getL2OutputAfter",
      "inputs": [
        {
          "name": "_l2BlockNumber",
          "type": "uint256",
          "internalType": "uint256"
        }
      ],
      "outputs": [
        {
          "name": "",
          "type": "tuple",
          "internalType": "struct Types.OutputProposal",
          "components": [
            {
              "name": "outputRoot",
              "type": "bytes32",
              "internalType": "bytes32"
            },
            {
              "name": "timestamp",
              "type": "uint128",
              "internalType": "uint128"
            },
            {
              "name": "l2BlockNumber",
              "type": "uint128",
              "internalType": "uint128"
            }
          ]
        }
      ],
      "stateMutability": "view"
    },
    {
      "type": "function",
      "name": "getL2OutputIndexAfter",
      "inputs": [
        {
          "name": "_l2BlockNumber",
          "type": "uint256",
          "internalType": "uint256"
        }
      ],
      "outputs": [
        {
          "name": "",
          "type": "uint256",
          "internalType": "uint256"
        }
      ],
      "stateMutability": "view"
    },
    {
      "type": "function",
      "name": "initialize",
      "inputs": [
        {
          "name": "_startingBlockNumber",
          "type": "uint256",
          "internalType": "uint256"
        },
        {
          "name": "_startingTimestamp",
          "type": "uint256",
          "internalType": "uint256"
        }
      ],
      "outputs": [],
      "stateMutability": "nonpayable"
    },
    {
      "type": "function",
      "name": "l2BlockTime",
      "inputs": [],
      "outputs": [
        {
          "name": "",
          "type": "uint256",
          "internalType": "uint256"
        }
      ],
      "stateMutability": "view"
    },
    {
      "type": "function",
      "name": "latestBlockNumber",
      "inputs": [],
      "outputs": [
        {
          "name": "",
          "type": "uint256",
          "internalType": "uint256"
        }
      ],
      "stateMutability": "view"
    },
    {
      "type": "function",
      "name": "latestOutputIndex",
      "inputs": [],
      "outputs": [
        {
          "name": "",
          "type": "uint256",
          "internalType": "uint256"
        }
      ],
      "stateMutability": "view"
    },
    {
      "type": "function",
      "name": "nextBlockNumber",
      "inputs": [],
      "outputs": [
        {
          "name": "",
          "type": "uint256",
          "internalType": "uint256"
        }
      ],
      "stateMutability": "view"
    },
    {
      "type": "function",
      "name": "nextOutputIndex",
      "inputs": [],
      "outputs": [
        {
          "name": "",
          "type": "uint256",
          "internalType": "uint256"
        }
      ],
      "stateMutability": "view"
    },
    {
      "type": "function",
      "name": "proposeL2Output",
      "inputs": [
        {
          "name": "_outputRoot",
          "type": "bytes32",
          "internalType": "bytes32"
        },
        {
          "name": "_l2BlockNumber",
          "type": "uint256",
          "internalType": "uint256"
        },
        {
          "name": "_l1BlockHash",
          "type": "bytes32",
          "internalType": "bytes32"
        },
        {
          "name": "_l1BlockNumber",
          "type": "uint256",
          "internalType": "uint256"
        }
      ],
      "outputs": [],
      "stateMutability": "payable"
    },
    {
      "type": "function",
      "name": "proposer",
      "inputs": [],
      "outputs": [
        {
          "name": "",
          "type": "address",
          "internalType": "address"
        }
      ],
      "stateMutability": "view"
    },
    {
      "type": "function",
      "name": "startingBlockNumber",
      "inputs": [],
      "outputs": [
        {
          "name": "",
          "type": "uint256",
          "internalType": "uint256"
        }
      ],
      "stateMutability": "view"
    },
    {
      "type": "function",
      "name": "startingTimestamp",
      "inputs": [],
      "outputs": [
        {
          "name": "",
          "type": "uint256",
          "internalType": "uint256"
        }
      ],
      "stateMutability": "view"
    },
    {
      "type": "function",
      "name": "submissionInterval",
      "inputs": [],
      "outputs": [
        {
          "name": "",
          "type": "uint256",
          "internalType": "uint256"
        }
      ],
      "stateMutability": "view"
    },
    {
      "type": "function",
      "name": "version",
      "inputs": [],
      "outputs": [
        {
          "name": "",
          "type": "string",
          "internalType": "string"
        }
      ],
      "stateMutability": "view"
    },
    {
      "type": "event",
      "name": "Initialized",
      "inputs": [
        {
          "name": "version",
          "type": "uint8",
          "indexed": false,
          "internalType": "uint8"
        }
      ],
      "anonymous": false
    },
    {
      "type": "event",
      "name": "OutputProposed",
      "inputs": [
        {
          "name": "outputRoot",
          "type": "bytes32",
          "indexed": true,
          "internalType": "bytes32"
        },
        {
          "name": "l2OutputIndex",
          "type": "uint256",
          "indexed": true,
          "internalType": "uint256"
        },
        {
          "name": "l2BlockNumber",
          "type": "uint256",
          "indexed": true,
          "internalType": "uint256"
        },
        {
          "name": "l1Timestamp",
          "type": "uint256",
          "indexed": false,
          "internalType": "uint256"
        }
      ],
      "anonymous": false
    },
    {
      "type": "event",
      "name": "OutputsDeleted",
      "inputs": [
        {
          "name": "prevNextOutputIndex",
          "type": "uint256",
          "indexed": true,
          "internalType": "uint256"
        },
        {
          "name": "newNextOutputIndex",
          "type": "uint256",
          "indexed": true,
          "internalType": "uint256"
        }
      ],
      "anonymous": false
    }
  ],
  "transactionHash": "0x86f0f6e3ffe28ca2d8407a882ffc66dc4f31b6c3413123cd04418444e1d7ea76",
  "args": [
    120,
    2,
    0,
    0,
    "0xc5125722937c0fea053c602261238bf9f3b2450f",
    "0x17070B4AF21625106E7971983Aa524f59EA40c57",
    12
  ],
  "numDeployments": 1,
  "bytecode": "0x6101206040523480156200001257600080fd5b506040516200198438038062001984833981016040819052620000359162000347565b60008611620000b15760405162461bcd60e51b815260206004820152603460248201527f4c324f75747075744f7261636c653a204c3220626c6f636b2074696d65206d7560448201527f73742062652067726561746572207468616e203000000000000000000000000060648201526084015b60405180910390fd5b60008711620001295760405162461bcd60e51b815260206004820152603a60248201527f4c324f75747075744f7261636c653a207375626d697373696f6e20696e74657260448201527f76616c206d7573742062652067726561746572207468616e20300000000000006064820152608401620000a8565b608087905260a08690526001600160a01b0380841660e052821660c05261010081905262000158858562000165565b50505050505050620003af565b600054610100900460ff1615808015620001865750600054600160ff909116105b80620001b65750620001a3306200031b60201b6200133c1760201c565b158015620001b6575060005460ff166001145b6200021b5760405162461bcd60e51b815260206004820152602e60248201527f496e697469616c697a61626c653a20636f6e747261637420697320616c72656160448201526d191e481a5b9a5d1a585b1a5e995960921b6064820152608401620000a8565b6000805460ff1916600117905580156200023f576000805461ff0019166101001790555b42821115620002c55760405162461bcd60e51b8152602060048201526044602482018190527f4c324f75747075744f7261636c653a207374617274696e67204c322074696d65908201527f7374616d70206d757374206265206c657373207468616e2063757272656e742060648201526374696d6560e01b608482015260a401620000a8565b60028290556001839055801562000316576000805461ff0019169055604051600181527f7f26b83ff96e1f2b6a682f133852f6798a09c465da95921460cefb38474024989060200160405180910390a15b505050565b6001600160a01b03163b151590565b80516001600160a01b03811681146200034257600080fd5b919050565b600080600080600080600060e0888a0312156200036357600080fd5b875196506020880151955060408801519450606088015193506200038a608089016200032a565b92506200039a60a089016200032a565b915060c0880151905092959891949750929550565b60805160a05160c05160e0516101005161154a6200043a600039600081816104ad0152818161058b01526109c90152600081816104460152818161047c0152610b3901526000818161022e0152818161030501526108630152600081816101a1015281816103a401526110700152600081816101fd0152818161053501526110be015261154a6000f3fe60806040526004361061018a5760003560e01c806393991af3116100d6578063cf8e5cf01161007f578063e1a41bcf11610059578063e1a41bcf14610526578063e4a3011614610559578063f4daa2911461057957600080fd5b8063cf8e5cf0146104d1578063d1de856c146104f1578063dcec33481461051157600080fd5b8063a8e4fb90116100b0578063a8e4fb9014610437578063bffa7f0f1461046a578063ce5db8d61461049e57600080fd5b806393991af3146103955780639aaab648146103c8578063a25ae557146103db57600080fd5b80636abcf563116101385780637f006420116101125780637f0064201461033d578063887862721461035d57806389c44cbb1461037357600080fd5b80636abcf563146102de5780636b4d98dd146102f357806370872aa51461032757600080fd5b8063534db0e211610169578063534db0e21461021f57806354fd4d501461027357806369f16eec146102c957600080fd5b80622134cc1461018f5780634599c788146101d6578063529933df146101eb575b600080fd5b34801561019b57600080fd5b506101c37f000000000000000000000000000000000000000000000000000000000000000081565b6040519081526020015b60405180910390f35b3480156101e257600080fd5b506101c36105ad565b3480156101f757600080fd5b506101c37f000000000000000000000000000000000000000000000000000000000000000081565b34801561022b57600080fd5b507f00000000000000000000000000000000000000000000000000000000000000005b60405173ffffffffffffffffffffffffffffffffffffffff90911681526020016101cd565b34801561027f57600080fd5b506102bc6040518060400160405280600581526020017f312e372e3000000000000000000000000000000000000000000000000000000081525081565b6040516101cd9190611358565b3480156102d557600080fd5b506101c3610620565b3480156102ea57600080fd5b506003546101c3565b3480156102ff57600080fd5b5061024e7f000000000000000000000000000000000000000000000000000000000000000081565b34801561033357600080fd5b506101c360015481565b34801561034957600080fd5b506101c36103583660046113cb565b610632565b34801561036957600080fd5b506101c360025481565b34801561037f57600080fd5b5061039361038e3660046113cb565b61084b565b005b3480156103a157600080fd5b507f00000000000000000000000000000000000000000000000000000000000000006101c3565b6103936103d63660046113e4565b610b21565b3480156103e757600080fd5b506103fb6103f63660046113cb565b610fa0565b60408051825181526020808401516fffffffffffffffffffffffffffffffff9081169183019190915292820151909216908201526060016101cd565b34801561044357600080fd5b507f000000000000000000000000000000000000000000000000000000000000000061024e565b34801561047657600080fd5b5061024e7f000000000000000000000000000000000000000000000000000000000000000081565b3480156104aa57600080fd5b507f00000000000000000000000000000000000000000000000000000000000000006101c3565b3480156104dd57600080fd5b506103fb6104ec3660046113cb565b611034565b3480156104fd57600080fd5b506101c361050c3660046113cb565b61106c565b34801561051d57600080fd5b506101c36110ba565b34801561053257600080fd5b507f00000000000000000000000000000000000000000000000000000000000000006101c3565b34801561056557600080fd5b50610393610574366004611416565b6110ef565b34801561058557600080fd5b506101c37f000000000000000000000000000000000000000000000000000000000000000081565b6003546000901561061757600380546105c890600190611467565b815481106105d8576105d861147e565b600091825260209091206002909102016001015470010000000000000000000000000000000090046fffffffffffffffffffffffffffffffff16919050565b6001545b905090565b60035460009061061b90600190611467565b600061063c6105ad565b8211156106f6576040517f08c379a000000000000000000000000000000000000000000000000000000000815260206004820152604860248201527f4c324f75747075744f7261636c653a2063616e6e6f7420676574206f7574707560448201527f7420666f72206120626c6f636b207468617420686173206e6f74206265656e2060648201527f70726f706f736564000000000000000000000000000000000000000000000000608482015260a4015b60405180910390fd5b6003546107ab576040517f08c379a000000000000000000000000000000000000000000000000000000000815260206004820152604660248201527f4c324f75747075744f7261636c653a2063616e6e6f7420676574206f7574707560448201527f74206173206e6f206f7574707574732068617665206265656e2070726f706f7360648201527f6564207965740000000000000000000000000000000000000000000000000000608482015260a4016106ed565b6003546000905b8082101561084457600060026107c883856114ad565b6107d291906114c5565b905084600382815481106107e8576107e861147e565b600091825260209091206002909102016001015470010000000000000000000000000000000090046fffffffffffffffffffffffffffffffff16101561083a576108338160016114ad565b925061083e565b8091505b506107b2565b5092915050565b3373ffffffffffffffffffffffffffffffffffffffff7f00000000000000000000000000000000000000000000000000000000000000001614610910576040517f08c379a000000000000000000000000000000000000000000000000000000000815260206004820152603e60248201527f4c324f75747075744f7261636c653a206f6e6c7920746865206368616c6c656e60448201527f67657220616464726573732063616e2064656c657465206f757470757473000060648201526084016106ed565b60035481106109c7576040517f08c379a000000000000000000000000000000000000000000000000000000000815260206004820152604360248201527f4c324f75747075744f7261636c653a2063616e6e6f742064656c657465206f7560448201527f747075747320616674657220746865206c6174657374206f757470757420696e60648201527f6465780000000000000000000000000000000000000000000000000000000000608482015260a4016106ed565b7f0000000000000000000000000000000000000000000000000000000000000000600382815481106109fb576109fb61147e565b6000918252602090912060016002909202010154610a2b906fffffffffffffffffffffffffffffffff1642611467565b10610ade576040517f08c379a000000000000000000000000000000000000000000000000000000000815260206004820152604660248201527f4c324f75747075744f7261636c653a2063616e6e6f742064656c657465206f7560448201527f74707574732074686174206861766520616c7265616479206265656e2066696e60648201527f616c697a65640000000000000000000000000000000000000000000000000000608482015260a4016106ed565b6000610ae960035490565b90508160035581817f4ee37ac2c786ec85e87592d3c5c8a1dd66f8496dda3f125d9ea8ca5f657629b660405160405180910390a35050565b3373ffffffffffffffffffffffffffffffffffffffff7f00000000000000000000000000000000000000000000000000000000000000001614610c0c576040517f08c379a000000000000000000000000000000000000000000000000000000000815260206004820152604160248201527f4c324f75747075744f7261636c653a206f6e6c79207468652070726f706f736560448201527f7220616464726573732063616e2070726f706f7365206e6577206f757470757460648201527f7300000000000000000000000000000000000000000000000000000000000000608482015260a4016106ed565b610c146110ba565b8314610cc8576040517f08c379a000000000000000000000000000000000000000000000000000000000815260206004820152604860248201527f4c324f75747075744f7261636c653a20626c6f636b206e756d626572206d757360448201527f7420626520657175616c20746f206e65787420657870656374656420626c6f6360648201527f6b206e756d626572000000000000000000000000000000000000000000000000608482015260a4016106ed565b42610cd28461106c565b10610d5f576040517f08c379a000000000000000000000000000000000000000000000000000000000815260206004820152603660248201527f4c324f75747075744f7261636c653a2063616e6e6f742070726f706f7365204c60448201527f32206f757470757420696e20746865206675747572650000000000000000000060648201526084016106ed565b83610dec576040517f08c379a000000000000000000000000000000000000000000000000000000000815260206004820152603a60248201527f4c324f75747075744f7261636c653a204c32206f75747075742070726f706f7360448201527f616c2063616e6e6f7420626520746865207a65726f206861736800000000000060648201526084016106ed565b8115610ea85781814014610ea8576040517f08c379a000000000000000000000000000000000000000000000000000000000815260206004820152604960248201527f4c324f75747075744f7261636c653a20626c6f636b206861736820646f65732060448201527f6e6f74206d61746368207468652068617368206174207468652065787065637460648201527f6564206865696768740000000000000000000000000000000000000000000000608482015260a4016106ed565b82610eb260035490565b857fa7aaf2512769da4e444e3de247be2564225c2e7a8f74cfe528e46e17d24868e242604051610ee491815260200190565b60405180910390a45050604080516060810182529283526fffffffffffffffffffffffffffffffff4281166020850190815292811691840191825260038054600181018255600091909152935160029094027fc2575a0e9e593c00f959f8c92f12db2869c3395a3b0502d05e2516446f71f85b810194909455915190518216700100000000000000000000000000000000029116177fc2575a0e9e593c00f959f8c92f12db2869c3395a3b0502d05e2516446f71f85c90910155565b604080516060810182526000808252602082018190529181019190915260038281548110610fd057610fd061147e565b600091825260209182902060408051606081018252600290930290910180548352600101546fffffffffffffffffffffffffffffffff8082169484019490945270010000000000000000000000000000000090049092169181019190915292915050565b6040805160608101825260008082526020820181905291810191909152600361105c83610632565b81548110610fd057610fd061147e565b60007f00000000000000000000000000000000000000000000000000000000000000006001548361109d9190611467565b6110a79190611500565b6002546110b491906114ad565b92915050565b60007f00000000000000000000000000000000000000000000000000000000000000006110e56105ad565b61061b91906114ad565b600054610100900460ff161580801561110f5750600054600160ff909116105b806111295750303b158015611129575060005460ff166001145b6111b5576040517f08c379a000000000000000000000000000000000000000000000000000000000815260206004820152602e60248201527f496e697469616c697a61626c653a20636f6e747261637420697320616c72656160448201527f647920696e697469616c697a656400000000000000000000000000000000000060648201526084016106ed565b600080547fffffffffffffffffffffffffffffffffffffffffffffffffffffffffffffff00166001179055801561121357600080547fffffffffffffffffffffffffffffffffffffffffffffffffffffffffffff00ff166101001790555b428211156112ca576040517f08c379a0000000000000000000000000000000000000000000000000000000008152602060048201526044602482018190527f4c324f75747075744f7261636c653a207374617274696e67204c322074696d65908201527f7374616d70206d757374206265206c657373207468616e2063757272656e742060648201527f74696d6500000000000000000000000000000000000000000000000000000000608482015260a4016106ed565b60028290556001839055801561133757600080547fffffffffffffffffffffffffffffffffffffffffffffffffffffffffffff00ff169055604051600181527f7f26b83ff96e1f2b6a682f133852f6798a09c465da95921460cefb38474024989060200160405180910390a15b505050565b73ffffffffffffffffffffffffffffffffffffffff163b151590565b600060208083528351808285015260005b8181101561138557858101830151858201604001528201611369565b81811115611397576000604083870101525b50601f017fffffffffffffffffffffffffffffffffffffffffffffffffffffffffffffffe016929092016040019392505050565b6000602082840312156113dd57600080fd5b5035919050565b600080600080608085870312156113fa57600080fd5b5050823594602084013594506040840135936060013592509050565b6000806040838503121561142957600080fd5b50508035926020909101359150565b7f4e487b7100000000000000000000000000000000000000000000000000000000600052601160045260246000fd5b60008282101561147957611479611438565b500390565b7f4e487b7100000000000000000000000000000000000000000000000000000000600052603260045260246000fd5b600082198211156114c0576114c0611438565b500190565b6000826114fb577f4e487b7100000000000000000000000000000000000000000000000000000000600052601260045260246000fd5b500490565b6000817fffffffffffffffffffffffffffffffffffffffffffffffffffffffffffffffff048311821515161561153857611538611438565b50029056fea164736f6c634300080f000a"
}