{
  "address": "0x7dfF7B590bfD5215EEE96B0e3A6560828094A1Cc",
  "abi": [
    {
      "type": "constructor",
      "inputs": [],
      "stateMutability": "nonpayable"
    },
    {
      "type": "function",
      "name": "EXIT_1_NO_RETURN_STEP",
      "inputs": [],
      "outputs": [
        {
          "name": "",
          "type": "uint8",
          "internalType": "uint8"
        }
      ],
      "stateMutability": "view"
    },
    {
      "type": "function",
      "name": "PROXY_TRANSFER_STEP",
      "inputs": [],
      "outputs": [
        {
          "name": "",
          "type": "uint8",
          "internalType": "uint8"
        }
      ],
      "stateMutability": "view"
    },
    {
      "type": "function",
      "name": "config",
      "inputs": [],
      "outputs": [
        {
          "name": "globalConfig",
          "type": "tuple",
          "internalType": "struct SystemDictator.GlobalConfig",
          "components": [
            {
              "name": "addressManager",
              "type": "address",
              "internalType": "contract AddressManager"
            },
            {
              "name": "proxyAdmin",
              "type": "address",
              "internalType": "contract ProxyAdmin"
            },
            {
              "name": "superchainConfig",
              "type": "address",
              "internalType": "contract SuperchainConfig"
            },
            {
              "name": "controller",
              "type": "address",
              "internalType": "address"
            },
            {
              "name": "finalOwner",
              "type": "address",
              "internalType": "address"
            }
          ]
        },
        {
          "name": "proxyAddressConfig",
          "type": "tuple",
          "internalType": "struct SystemDictator.ProxyAddressConfig",
          "components": [
            {
              "name": "l2OutputOracleProxy",
              "type": "address",
              "internalType": "address"
            },
            {
              "name": "optimismPortalProxy",
              "type": "address",
              "internalType": "address"
            },
            {
              "name": "l1CrossDomainMessengerProxy",
              "type": "address",
              "internalType": "address"
            },
            {
              "name": "l1StandardBridgeProxy",
              "type": "address",
              "internalType": "address"
            },
            {
              "name": "optimismMintableERC20FactoryProxy",
              "type": "address",
              "internalType": "address"
            },
            {
              "name": "l1ERC721BridgeProxy",
              "type": "address",
              "internalType": "address"
            },
            {
              "name": "systemConfigProxy",
              "type": "address",
              "internalType": "address"
            },
            {
              "name": "protocolVersionsProxy",
              "type": "address",
              "internalType": "address"
            }
          ]
        },
        {
          "name": "implementationAddressConfig",
          "type": "tuple",
          "internalType": "struct SystemDictator.ImplementationAddressConfig",
          "components": [
            {
              "name": "l2OutputOracleImpl",
              "type": "address",
              "internalType": "contract L2OutputOracle"
            },
            {
              "name": "optimismPortalImpl",
              "type": "address",
              "internalType": "contract OptimismPortal"
            },
            {
              "name": "l1CrossDomainMessengerImpl",
              "type": "address",
              "internalType": "contract L1CrossDomainMessenger"
            },
            {
              "name": "l1StandardBridgeImpl",
              "type": "address",
              "internalType": "contract L1StandardBridge"
            },
            {
              "name": "optimismMintableERC20FactoryImpl",
              "type": "address",
              "internalType": "contract OptimismMintableERC20Factory"
            },
            {
              "name": "l1ERC721BridgeImpl",
              "type": "address",
              "internalType": "contract L1ERC721Bridge"
            },
            {
              "name": "portalSenderImpl",
              "type": "address",
              "internalType": "contract PortalSender"
            },
            {
              "name": "systemConfigImpl",
              "type": "address",
              "internalType": "contract SystemConfig"
            },
            {
              "name": "protocolVersionsImpl",
              "type": "address",
              "internalType": "contract ProtocolVersions"
            }
          ]
        },
        {
          "name": "systemConfigConfig",
          "type": "tuple",
          "internalType": "struct SystemDictator.SystemConfigConfig",
          "components": [
            {
              "name": "owner",
              "type": "address",
              "internalType": "address"
            },
            {
              "name": "overhead",
              "type": "uint256",
              "internalType": "uint256"
            },
            {
              "name": "scalar",
              "type": "uint256",
              "internalType": "uint256"
            },
            {
              "name": "batcherHash",
              "type": "bytes32",
              "internalType": "bytes32"
            },
            {
              "name": "gasLimit",
              "type": "uint64",
              "internalType": "uint64"
            },
            {
              "name": "unsafeBlockSigner",
              "type": "address",
              "internalType": "address"
            },
            {
              "name": "resourceConfig",
              "type": "tuple",
              "internalType": "struct ResourceMetering.ResourceConfig",
              "components": [
                {
                  "name": "maxResourceLimit",
                  "type": "uint32",
                  "internalType": "uint32"
                },
                {
                  "name": "elasticityMultiplier",
                  "type": "uint8",
                  "internalType": "uint8"
                },
                {
                  "name": "baseFeeMaxChangeDenominator",
                  "type": "uint8",
                  "internalType": "uint8"
                },
                {
                  "name": "minimumBaseFee",
                  "type": "uint32",
                  "internalType": "uint32"
                },
                {
                  "name": "systemTxMaxGas",
                  "type": "uint32",
                  "internalType": "uint32"
                },
                {
                  "name": "maximumBaseFee",
                  "type": "uint128",
                  "internalType": "uint128"
                }
              ]
            },
            {
              "name": "opnodeStartBlock",
              "type": "uint256",
              "internalType": "uint256"
            },
            {
              "name": "batchInbox",
              "type": "address",
              "internalType": "address"
            },
            {
              "name": "systemConfigAddressConfig",
              "type": "tuple",
              "internalType": "struct SystemConfig.Addresses",
              "components": [
                {
                  "name": "l1CrossDomainMessenger",
                  "type": "address",
                  "internalType": "address"
                },
                {
                  "name": "l1ERC721Bridge",
                  "type": "address",
                  "internalType": "address"
                },
                {
                  "name": "l1StandardBridge",
                  "type": "address",
                  "internalType": "address"
                },
                {
                  "name": "l2OutputOracle",
                  "type": "address",
                  "internalType": "address"
                },
                {
                  "name": "optimismPortal",
                  "type": "address",
                  "internalType": "address"
                },
                {
                  "name": "optimismMintableERC20Factory",
                  "type": "address",
                  "internalType": "address"
                }
              ]
            }
          ]
        },
        {
          "name": "protocolVersionConfig",
          "type": "tuple",
          "internalType": "struct SystemDictator.ProtocolVersionConfig",
          "components": [
            {
              "name": "requiredProtocolVersion",
              "type": "uint256",
              "internalType": "ProtocolVersion"
            },
            {
              "name": "recommendedProtocolVersion",
              "type": "uint256",
              "internalType": "ProtocolVersion"
            }
          ]
        }
      ],
      "stateMutability": "view"
    },
    {
      "type": "function",
      "name": "currentStep",
      "inputs": [],
      "outputs": [
        {
          "name": "",
          "type": "uint8",
          "internalType": "uint8"
        }
      ],
      "stateMutability": "view"
    },
    {
      "type": "function",
      "name": "dynamicConfigSet",
      "inputs": [],
      "outputs": [
        {
          "name": "",
          "type": "bool",
          "internalType": "bool"
        }
      ],
      "stateMutability": "view"
    },
    {
      "type": "function",
      "name": "exit1",
      "inputs": [],
      "outputs": [],
      "stateMutability": "nonpayable"
    },
    {
      "type": "function",
      "name": "exited",
      "inputs": [],
      "outputs": [
        {
          "name": "",
          "type": "bool",
          "internalType": "bool"
        }
      ],
      "stateMutability": "view"
    },
    {
      "type": "function",
      "name": "finalize",
      "inputs": [],
      "outputs": [],
      "stateMutability": "nonpayable"
    },
    {
      "type": "function",
      "name": "finalized",
      "inputs": [],
      "outputs": [
        {
          "name": "",
          "type": "bool",
          "internalType": "bool"
        }
      ],
      "stateMutability": "view"
    },
    {
      "type": "function",
      "name": "initialize",
      "inputs": [
        {
          "name": "_config",
          "type": "tuple",
          "internalType": "struct SystemDictator.DeployConfig",
          "components": [
            {
              "name": "globalConfig",
              "type": "tuple",
              "internalType": "struct SystemDictator.GlobalConfig",
              "components": [
                {
                  "name": "addressManager",
                  "type": "address",
                  "internalType": "contract AddressManager"
                },
                {
                  "name": "proxyAdmin",
                  "type": "address",
                  "internalType": "contract ProxyAdmin"
                },
                {
                  "name": "superchainConfig",
                  "type": "address",
                  "internalType": "contract SuperchainConfig"
                },
                {
                  "name": "controller",
                  "type": "address",
                  "internalType": "address"
                },
                {
                  "name": "finalOwner",
                  "type": "address",
                  "internalType": "address"
                }
              ]
            },
            {
              "name": "proxyAddressConfig",
              "type": "tuple",
              "internalType": "struct SystemDictator.ProxyAddressConfig",
              "components": [
                {
                  "name": "l2OutputOracleProxy",
                  "type": "address",
                  "internalType": "address"
                },
                {
                  "name": "optimismPortalProxy",
                  "type": "address",
                  "internalType": "address"
                },
                {
                  "name": "l1CrossDomainMessengerProxy",
                  "type": "address",
                  "internalType": "address"
                },
                {
                  "name": "l1StandardBridgeProxy",
                  "type": "address",
                  "internalType": "address"
                },
                {
                  "name": "optimismMintableERC20FactoryProxy",
                  "type": "address",
                  "internalType": "address"
                },
                {
                  "name": "l1ERC721BridgeProxy",
                  "type": "address",
                  "internalType": "address"
                },
                {
                  "name": "systemConfigProxy",
                  "type": "address",
                  "internalType": "address"
                },
                {
                  "name": "protocolVersionsProxy",
                  "type": "address",
                  "internalType": "address"
                }
              ]
            },
            {
              "name": "implementationAddressConfig",
              "type": "tuple",
              "internalType": "struct SystemDictator.ImplementationAddressConfig",
              "components": [
                {
                  "name": "l2OutputOracleImpl",
                  "type": "address",
                  "internalType": "contract L2OutputOracle"
                },
                {
                  "name": "optimismPortalImpl",
                  "type": "address",
                  "internalType": "contract OptimismPortal"
                },
                {
                  "name": "l1CrossDomainMessengerImpl",
                  "type": "address",
                  "internalType": "contract L1CrossDomainMessenger"
                },
                {
                  "name": "l1StandardBridgeImpl",
                  "type": "address",
                  "internalType": "contract L1StandardBridge"
                },
                {
                  "name": "optimismMintableERC20FactoryImpl",
                  "type": "address",
                  "internalType": "contract OptimismMintableERC20Factory"
                },
                {
                  "name": "l1ERC721BridgeImpl",
                  "type": "address",
                  "internalType": "contract L1ERC721Bridge"
                },
                {
                  "name": "portalSenderImpl",
                  "type": "address",
                  "internalType": "contract PortalSender"
                },
                {
                  "name": "systemConfigImpl",
                  "type": "address",
                  "internalType": "contract SystemConfig"
                },
                {
                  "name": "protocolVersionsImpl",
                  "type": "address",
                  "internalType": "contract ProtocolVersions"
                }
              ]
            },
            {
              "name": "systemConfigConfig",
              "type": "tuple",
              "internalType": "struct SystemDictator.SystemConfigConfig",
              "components": [
                {
                  "name": "owner",
                  "type": "address",
                  "internalType": "address"
                },
                {
                  "name": "overhead",
                  "type": "uint256",
                  "internalType": "uint256"
                },
                {
                  "name": "scalar",
                  "type": "uint256",
                  "internalType": "uint256"
                },
                {
                  "name": "batcherHash",
                  "type": "bytes32",
                  "internalType": "bytes32"
                },
                {
                  "name": "gasLimit",
                  "type": "uint64",
                  "internalType": "uint64"
                },
                {
                  "name": "unsafeBlockSigner",
                  "type": "address",
                  "internalType": "address"
                },
                {
                  "name": "resourceConfig",
                  "type": "tuple",
                  "internalType": "struct ResourceMetering.ResourceConfig",
                  "components": [
                    {
                      "name": "maxResourceLimit",
                      "type": "uint32",
                      "internalType": "uint32"
                    },
                    {
                      "name": "elasticityMultiplier",
                      "type": "uint8",
                      "internalType": "uint8"
                    },
                    {
                      "name": "baseFeeMaxChangeDenominator",
                      "type": "uint8",
                      "internalType": "uint8"
                    },
                    {
                      "name": "minimumBaseFee",
                      "type": "uint32",
                      "internalType": "uint32"
                    },
                    {
                      "name": "systemTxMaxGas",
                      "type": "uint32",
                      "internalType": "uint32"
                    },
                    {
                      "name": "maximumBaseFee",
                      "type": "uint128",
                      "internalType": "uint128"
                    }
                  ]
                },
                {
                  "name": "opnodeStartBlock",
                  "type": "uint256",
                  "internalType": "uint256"
                },
                {
                  "name": "batchInbox",
                  "type": "address",
                  "internalType": "address"
                },
                {
                  "name": "systemConfigAddressConfig",
                  "type": "tuple",
                  "internalType": "struct SystemConfig.Addresses",
                  "components": [
                    {
                      "name": "l1CrossDomainMessenger",
                      "type": "address",
                      "internalType": "address"
                    },
                    {
                      "name": "l1ERC721Bridge",
                      "type": "address",
                      "internalType": "address"
                    },
                    {
                      "name": "l1StandardBridge",
                      "type": "address",
                      "internalType": "address"
                    },
                    {
                      "name": "l2OutputOracle",
                      "type": "address",
                      "internalType": "address"
                    },
                    {
                      "name": "optimismPortal",
                      "type": "address",
                      "internalType": "address"
                    },
                    {
                      "name": "optimismMintableERC20Factory",
                      "type": "address",
                      "internalType": "address"
                    }
                  ]
                }
              ]
            },
            {
              "name": "protocolVersionConfig",
              "type": "tuple",
              "internalType": "struct SystemDictator.ProtocolVersionConfig",
              "components": [
                {
                  "name": "requiredProtocolVersion",
                  "type": "uint256",
                  "internalType": "ProtocolVersion"
                },
                {
                  "name": "recommendedProtocolVersion",
                  "type": "uint256",
                  "internalType": "ProtocolVersion"
                }
              ]
            }
          ]
        }
      ],
      "outputs": [],
      "stateMutability": "nonpayable"
    },
    {
      "type": "function",
      "name": "l2OutputOracleDynamicConfig",
      "inputs": [],
      "outputs": [
        {
          "name": "l2OutputOracleStartingBlockNumber",
          "type": "uint256",
          "internalType": "uint256"
        },
        {
          "name": "l2OutputOracleStartingTimestamp",
          "type": "uint256",
          "internalType": "uint256"
        },
        {
          "name": "l2OutputOracleProposer",
          "type": "address",
          "internalType": "address"
        },
        {
          "name": "l2OutputOracleChallenger",
          "type": "address",
          "internalType": "address"
        }
      ],
      "stateMutability": "view"
    },
    {
      "type": "function",
      "name": "oldL1CrossDomainMessenger",
      "inputs": [],
      "outputs": [
        {
          "name": "",
          "type": "address",
          "internalType": "address"
        }
      ],
      "stateMutability": "view"
    },
    {
      "type": "function",
      "name": "optimismPortalDynamicConfig",
      "inputs": [],
      "outputs": [
        {
          "name": "l2OutputOracle",
          "type": "address",
          "internalType": "address"
        },
        {
          "name": "portalGuardian",
          "type": "address",
          "internalType": "address"
        },
        {
          "name": "systemConfig",
          "type": "address",
          "internalType": "address"
        },
        {
          "name": "paused",
          "type": "bool",
          "internalType": "bool"
        }
      ],
      "stateMutability": "view"
    },
    {
      "type": "function",
      "name": "owner",
      "inputs": [],
      "outputs": [
        {
          "name": "",
          "type": "address",
          "internalType": "address"
        }
      ],
      "stateMutability": "view"
    },
    {
      "type": "function",
      "name": "phase1",
      "inputs": [],
      "outputs": [],
      "stateMutability": "nonpayable"
    },
    {
      "type": "function",
      "name": "phase2",
      "inputs": [],
      "outputs": [],
      "stateMutability": "nonpayable"
    },
    {
      "type": "function",
      "name": "renounceOwnership",
      "inputs": [],
      "outputs": [],
      "stateMutability": "nonpayable"
    },
    {
      "type": "function",
      "name": "step1",
      "inputs": [],
      "outputs": [],
      "stateMutability": "nonpayable"
    },
    {
      "type": "function",
      "name": "step2",
      "inputs": [],
      "outputs": [],
      "stateMutability": "nonpayable"
    },
    {
      "type": "function",
      "name": "step3",
      "inputs": [],
      "outputs": [],
      "stateMutability": "nonpayable"
    },
    {
      "type": "function",
      "name": "step4",
      "inputs": [],
      "outputs": [],
      "stateMutability": "nonpayable"
    },
    {
      "type": "function",
      "name": "step5",
      "inputs": [],
      "outputs": [],
      "stateMutability": "nonpayable"
    },
    {
      "type": "function",
      "name": "transferOwnership",
      "inputs": [
        {
          "name": "newOwner",
          "type": "address",
          "internalType": "address"
        }
      ],
      "outputs": [],
      "stateMutability": "nonpayable"
    },
    {
      "type": "function",
      "name": "updateDynamicConfig",
      "inputs": [
        {
          "name": "_l2OutputOracleDynamicConfig",
          "type": "tuple",
          "internalType": "struct SystemDictator.L2OutputOracleDynamicConfig",
          "components": [
            {
              "name": "l2OutputOracleStartingBlockNumber",
              "type": "uint256",
              "internalType": "uint256"
            },
            {
              "name": "l2OutputOracleStartingTimestamp",
              "type": "uint256",
              "internalType": "uint256"
            },
            {
              "name": "l2OutputOracleProposer",
              "type": "address",
              "internalType": "address"
            },
            {
              "name": "l2OutputOracleChallenger",
              "type": "address",
              "internalType": "address"
            }
          ]
        },
        {
          "name": "_optimismPortalDynamicConfig",
          "type": "tuple",
          "internalType": "struct SystemDictator.OptimismPortalDynamicConfig",
          "components": [
            {
              "name": "l2OutputOracle",
              "type": "address",
              "internalType": "address"
            },
            {
              "name": "portalGuardian",
              "type": "address",
              "internalType": "address"
            },
            {
              "name": "systemConfig",
              "type": "address",
              "internalType": "address"
            },
            {
              "name": "paused",
              "type": "bool",
              "internalType": "bool"
            }
          ]
        }
      ],
      "outputs": [],
      "stateMutability": "nonpayable"
    },
    {
      "type": "event",
      "name": "Initialized",
      "inputs": [
        {
          "name": "version",
          "type": "uint8",
          "indexed": false,
          "internalType": "uint8"
        }
      ],
      "anonymous": false
    },
    {
      "type": "event",
      "name": "OwnershipTransferred",
      "inputs": [
        {
          "name": "previousOwner",
          "type": "address",
          "indexed": true,
          "internalType": "address"
        },
        {
          "name": "newOwner",
          "type": "address",
          "indexed": true,
          "internalType": "address"
        }
      ],
      "anonymous": false
    }
  ],
  "transactionHash": "0x2027cda99c0e91abb33503ba44d51fb4955fb0403fbf6a17af286e7606642707",
  "args": [],
  "numDeployments": 1,
  "bytecode": "0x60806040523480156200001157600080fd5b506000620000296200018560201b620047cf1760201c565b604080516101408082018352600060a080840182815260c080860184905260e080870185905261010080880186905261012080890187905293885288518082018a528681526020818101889052818b01889052606080830189905260808084018a90528389018a90528387018a90528386018a9052828c01939093528b518088018d528981528083018a9052808d018a90528082018a90528084018a90528089018a90528087018a90528086018a90528085018a90528b8d01528b51998a018c52888a52898201899052898c018990528981018990528983018990528988018990528986018d9052600019948a019490945291880187905289519384018a52868452838201879052838a0187905283830187905283810187905294830186905292860191909152850193909352845180860190955281855291840181905290820192909252919250906200017d90620001fc565b505062000bae565b6040805160c081018252600080825260208201819052918101829052606081018290526080810182905260a0810191909152506040805160c0810182526301312d008152600a6020820152600891810191909152633b9aca006060820152620f424060808201526001600160801b0360a082015290565b600054610100900460ff16158080156200021d5750600054600160ff909116105b806200024d57506200023a3062000a7e60201b6200484f1760201c565b1580156200024d575060005460ff166001145b620002b65760405162461bcd60e51b815260206004820152602e60248201527f496e697469616c697a61626c653a20636f6e747261637420697320616c72656160448201526d191e481a5b9a5d1a585b1a5e995960921b60648201526084015b60405180910390fd5b6000805460ff191660011790558015620002da576000805461ff0019166101001790555b81606560008201518160000160008201518160000160006101000a8154816001600160a01b0302191690836001600160a01b0316021790555060208201518160010160006101000a8154816001600160a01b0302191690836001600160a01b0316021790555060408201518160020160006101000a8154816001600160a01b0302191690836001600160a01b0316021790555060608201518160030160006101000a8154816001600160a01b0302191690836001600160a01b0316021790555060808201518160040160006101000a8154816001600160a01b0302191690836001600160a01b03160217905550505060208201518160050160008201518160000160006101000a8154816001600160a01b0302191690836001600160a01b0316021790555060208201518160010160006101000a8154816001600160a01b0302191690836001600160a01b0316021790555060408201518160020160006101000a8154816001600160a01b0302191690836001600160a01b0316021790555060608201518160030160006101000a8154816001600160a01b0302191690836001600160a01b0316021790555060808201518160040160006101000a8154816001600160a01b0302191690836001600160a01b0316021790555060a08201518160050160006101000a8154816001600160a01b0302191690836001600160a01b0316021790555060c08201518160060160006101000a8154816001600160a01b0302191690836001600160a01b0316021790555060e08201518160070160006101000a8154816001600160a01b0302191690836001600160a01b031602179055505050604082015181600d0160008201518160000160006101000a8154816001600160a01b0302191690836001600160a01b0316021790555060208201518160010160006101000a8154816001600160a01b0302191690836001600160a01b0316021790555060408201518160020160006101000a8154816001600160a01b0302191690836001600160a01b0316021790555060608201518160030160006101000a8154816001600160a01b0302191690836001600160a01b0316021790555060808201518160040160006101000a8154816001600160a01b0302191690836001600160a01b0316021790555060a08201518160050160006101000a8154816001600160a01b0302191690836001600160a01b0316021790555060c08201518160060160006101000a8154816001600160a01b0302191690836001600160a01b0316021790555060e08201518160070160006101000a8154816001600160a01b0302191690836001600160a01b031602179055506101008201518160080160006101000a8154816001600160a01b0302191690836001600160a01b03160217905550505060608201518160160160008201518160000160006101000a8154816001600160a01b0302191690836001600160a01b0316021790555060208201518160010155604082015181600201556060820151816003015560808201518160040160006101000a8154816001600160401b0302191690836001600160401b0316021790555060a08201518160040160086101000a8154816001600160a01b0302191690836001600160a01b0316021790555060c08201518160050160008201518160000160006101000a81548163ffffffff021916908363ffffffff16021790555060208201518160000160046101000a81548160ff021916908360ff16021790555060408201518160000160056101000a81548160ff021916908360ff16021790555060608201518160000160066101000a81548163ffffffff021916908363ffffffff160217905550608082015181600001600a6101000a81548163ffffffff021916908363ffffffff16021790555060a082015181600001600e6101000a8154816001600160801b0302191690836001600160801b03160217905550505060e082015181600601556101008201518160070160006101000a8154816001600160a01b0302191690836001600160a01b031602179055506101208201518160080160008201518160000160006101000a8154816001600160a01b0302191690836001600160a01b0316021790555060208201518160010160006101000a8154816001600160a01b0302191690836001600160a01b0316021790555060408201518160020160006101000a8154816001600160a01b0302191690836001600160a01b0316021790555060608201518160030160006101000a8154816001600160a01b0302191690836001600160a01b0316021790555060808201518160040160006101000a8154816001600160a01b0302191690836001600160a01b0316021790555060a08201518160050160006101000a8154816001600160a01b0302191690836001600160a01b0316021790555050505050608082015181602401600082015181600001556020820151816001015550509050506001609260006101000a81548160ff021916908360ff16021790555062000a1c62000a8d60201b60201c565b60685462000a33906001600160a01b031662000af5565b801562000a7a576000805461ff0019169055604051600181527f7f26b83ff96e1f2b6a682f133852f6798a09c465da95921460cefb38474024989060200160405180910390a15b5050565b6001600160a01b03163b151590565b600054610100900460ff1662000ae95760405162461bcd60e51b815260206004820152602b6024820152600080516020620069b483398151915260448201526a6e697469616c697a696e6760a81b6064820152608401620002ad565b62000af362000b47565b565b603380546001600160a01b038381166001600160a01b0319831681179093556040519116919082907f8be0079c531659141344cd1fd0a4f28419497f9722a3daafe3b4186f6b6457e090600090a35050565b600054610100900460ff1662000ba35760405162461bcd60e51b815260206004820152602b6024820152600080516020620069b483398151915260448201526a6e697469616c697a696e6760a81b6064820152608401620002ad565b62000af33362000af5565b615df68062000bbe6000396000f3fe608060405234801561001057600080fd5b50600436106101985760003560e01c80638f4ed333116100e3578063d7efbb301161008c578063f2fde38b11610066578063f2fde38b14611044578063fb5d737614611057578063fe6b1ddf1461105f57600080fd5b8063d7efbb3014610fa7578063df4ec24914611034578063e7c562291461103c57600080fd5b8063cf03c22d116100bd578063cf03c22d14610f6f578063d40a71fb14610f97578063d4deb3b614610f9f57600080fd5b80638f4ed33314610f41578063b3f05b9714610f49578063b735fe3d14610f5c57600080fd5b8063715018a61161014557806389cb73431161011f57806389cb734314610edd5780638b583ae314610eef5780638da5cb5b14610f0257600080fd5b8063715018a61461026a57806379502c55146102725780637d1d95a614610ed557600080fd5b80634fb4bcec116101765780634fb4bcec146102315780635bc34f71146102395780635ce6c3271461024657600080fd5b8063204c881c1461019d578063289c6af71461020d5780634bb278f314610227575b600080fd5b608b54608c54608d54608e546101cc93929173ffffffffffffffffffffffffffffffffffffffff908116911684565b60408051948552602085019390935273ffffffffffffffffffffffffffffffffffffffff918216928401929092521660608201526080015b60405180910390f35b610215600381565b60405160ff9091168152602001610204565b61022f611067565b005b61022f6112cc565b6092546102159060ff1681565b60925461025a906301000000900460ff1681565b6040519015158152602001610204565b61022f61264c565b610ec46065806000016040518060a00160405290816000820160009054906101000a900473ffffffffffffffffffffffffffffffffffffffff1673ffffffffffffffffffffffffffffffffffffffff1673ffffffffffffffffffffffffffffffffffffffff1681526020016001820160009054906101000a900473ffffffffffffffffffffffffffffffffffffffff1673ffffffffffffffffffffffffffffffffffffffff1673ffffffffffffffffffffffffffffffffffffffff1681526020016002820160009054906101000a900473ffffffffffffffffffffffffffffffffffffffff1673ffffffffffffffffffffffffffffffffffffffff1673ffffffffffffffffffffffffffffffffffffffff1681526020016003820160009054906101000a900473ffffffffffffffffffffffffffffffffffffffff1673ffffffffffffffffffffffffffffffffffffffff1673ffffffffffffffffffffffffffffffffffffffff1681526020016004820160009054906101000a900473ffffffffffffffffffffffffffffffffffffffff1673ffffffffffffffffffffffffffffffffffffffff1673ffffffffffffffffffffffffffffffffffffffff16815250509080600501604051806101000160405290816000820160009054906101000a900473ffffffffffffffffffffffffffffffffffffffff1673ffffffffffffffffffffffffffffffffffffffff1673ffffffffffffffffffffffffffffffffffffffff1681526020016001820160009054906101000a900473ffffffffffffffffffffffffffffffffffffffff1673ffffffffffffffffffffffffffffffffffffffff1673ffffffffffffffffffffffffffffffffffffffff1681526020016002820160009054906101000a900473ffffffffffffffffffffffffffffffffffffffff1673ffffffffffffffffffffffffffffffffffffffff1673ffffffffffffffffffffffffffffffffffffffff1681526020016003820160009054906101000a900473ffffffffffffffffffffffffffffffffffffffff1673ffffffffffffffffffffffffffffffffffffffff1673ffffffffffffffffffffffffffffffffffffffff1681526020016004820160009054906101000a900473ffffffffffffffffffffffffffffffffffffffff1673ffffffffffffffffffffffffffffffffffffffff1673ffffffffffffffffffffffffffffffffffffffff1681526020016005820160009054906101000a900473ffffffffffffffffffffffffffffffffffffffff1673ffffffffffffffffffffffffffffffffffffffff1673ffffffffffffffffffffffffffffffffffffffff1681526020016006820160009054906101000a900473ffffffffffffffffffffffffffffffffffffffff1673ffffffffffffffffffffffffffffffffffffffff1673ffffffffffffffffffffffffffffffffffffffff1681526020016007820160009054906101000a900473ffffffffffffffffffffffffffffffffffffffff1673ffffffffffffffffffffffffffffffffffffffff1673ffffffffffffffffffffffffffffffffffffffff16815250509080600d01604051806101200160405290816000820160009054906101000a900473ffffffffffffffffffffffffffffffffffffffff1673ffffffffffffffffffffffffffffffffffffffff1673ffffffffffffffffffffffffffffffffffffffff1681526020016001820160009054906101000a900473ffffffffffffffffffffffffffffffffffffffff1673ffffffffffffffffffffffffffffffffffffffff1673ffffffffffffffffffffffffffffffffffffffff1681526020016002820160009054906101000a900473ffffffffffffffffffffffffffffffffffffffff1673ffffffffffffffffffffffffffffffffffffffff1673ffffffffffffffffffffffffffffffffffffffff1681526020016003820160009054906101000a900473ffffffffffffffffffffffffffffffffffffffff1673ffffffffffffffffffffffffffffffffffffffff1673ffffffffffffffffffffffffffffffffffffffff1681526020016004820160009054906101000a900473ffffffffffffffffffffffffffffffffffffffff1673ffffffffffffffffffffffffffffffffffffffff1673ffffffffffffffffffffffffffffffffffffffff1681526020016005820160009054906101000a900473ffffffffffffffffffffffffffffffffffffffff1673ffffffffffffffffffffffffffffffffffffffff1673ffffffffffffffffffffffffffffffffffffffff1681526020016006820160009054906101000a900473ffffffffffffffffffffffffffffffffffffffff1673ffffffffffffffffffffffffffffffffffffffff1673ffffffffffffffffffffffffffffffffffffffff1681526020016007820160009054906101000a900473ffffffffffffffffffffffffffffffffffffffff1673ffffffffffffffffffffffffffffffffffffffff1673ffffffffffffffffffffffffffffffffffffffff1681526020016008820160009054906101000a900473ffffffffffffffffffffffffffffffffffffffff1673ffffffffffffffffffffffffffffffffffffffff1673ffffffffffffffffffffffffffffffffffffffff16815250509080601601604051806101400160405290816000820160009054906101000a900473ffffffffffffffffffffffffffffffffffffffff1673ffffffffffffffffffffffffffffffffffffffff1673ffffffffffffffffffffffffffffffffffffffff1681526020016001820154815260200160028201548152602001600382015481526020016004820160009054906101000a900467ffffffffffffffff1667ffffffffffffffff1667ffffffffffffffff1681526020016004820160089054906101000a900473ffffffffffffffffffffffffffffffffffffffff1673ffffffffffffffffffffffffffffffffffffffff1673ffffffffffffffffffffffffffffffffffffffff168152602001600582016040518060c00160405290816000820160009054906101000a900463ffffffff1663ffffffff1663ffffffff1681526020016000820160049054906101000a900460ff1660ff1660ff1681526020016000820160059054906101000a900460ff1660ff1660ff1681526020016000820160069054906101000a900463ffffffff1663ffffffff1663ffffffff16815260200160008201600a9054906101000a900463ffffffff1663ffffffff1663ffffffff16815260200160008201600e9054906101000a90046fffffffffffffffffffffffffffffffff166fffffffffffffffffffffffffffffffff166fffffffffffffffffffffffffffffffff16815250508152602001600682015481526020016007820160009054906101000a900473ffffffffffffffffffffffffffffffffffffffff1673ffffffffffffffffffffffffffffffffffffffff1673ffffffffffffffffffffffffffffffffffffffff168152602001600882016040518060c00160405290816000820160009054906101000a900473ffffffffffffffffffffffffffffffffffffffff1673ffffffffffffffffffffffffffffffffffffffff1673ffffffffffffffffffffffffffffffffffffffff1681526020016001820160009054906101000a900473ffffffffffffffffffffffffffffffffffffffff1673ffffffffffffffffffffffffffffffffffffffff1673ffffffffffffffffffffffffffffffffffffffff1681526020016002820160009054906101000a900473ffffffffffffffffffffffffffffffffffffffff1673ffffffffffffffffffffffffffffffffffffffff1673ffffffffffffffffffffffffffffffffffffffff1681526020016003820160009054906101000a900473ffffffffffffffffffffffffffffffffffffffff1673ffffffffffffffffffffffffffffffffffffffff1673ffffffffffffffffffffffffffffffffffffffff1681526020016004820160009054906101000a900473ffffffffffffffffffffffffffffffffffffffff1673ffffffffffffffffffffffffffffffffffffffff1673ffffffffffffffffffffffffffffffffffffffff1681526020016005820160009054906101000a900473ffffffffffffffffffffffffffffffffffffffff1673ffffffffffffffffffffffffffffffffffffffff1673ffffffffffffffffffffffffffffffffffffffff168152505081525050908060240160405180604001604052908160008201548152602001600182015481525050905085565b604051610204959493929190614d2c565b610215600481565b60925461025a90610100900460ff1681565b61022f610efd366004615068565b612660565b60335473ffffffffffffffffffffffffffffffffffffffff165b60405173ffffffffffffffffffffffffffffffffffffffff9091168152602001610204565b61022f612778565b60925461025a9062010000900460ff1681565b61022f610f6a366004615596565b612afb565b609254610f1c90640100000000900473ffffffffffffffffffffffffffffffffffffffff1681565b61022f61371c565b61022f613c5e565b608f54609054609154610ff29273ffffffffffffffffffffffffffffffffffffffff908116928116919081169074010000000000000000000000000000000000000000900460ff1684565b604051610204949392919073ffffffffffffffffffffffffffffffffffffffff9485168152928416602084015292166040820152901515606082015260800190565b61022f613c86565b61022f614218565b61022f611052366004615681565b614230565b61022f6142e7565b61022f6145b2565b61106f61486b565b6066546069546040517ff2fde38b00000000000000000000000000000000000000000000000000000000815273ffffffffffffffffffffffffffffffffffffffff918216600482015291169063f2fde38b90602401600060405180830381600087803b1580156110de57600080fd5b505af11580156110f2573d6000803e3d6000fd5b5050609254600460ff90911611915061129d9050576065546069546040517ff2fde38b00000000000000000000000000000000000000000000000000000000815273ffffffffffffffffffffffffffffffffffffffff918216600482015291169063f2fde38b90602401600060405180830381600087803b15801561117657600080fd5b505af115801561118a573d6000803e3d6000fd5b5050606d546069546040517f13af403500000000000000000000000000000000000000000000000000000000815273ffffffffffffffffffffffffffffffffffffffff9182166004820152911692506313af40359150602401600060405180830381600087803b1580156111fd57600080fd5b505af1158015611211573d6000803e3d6000fd5b5050606f546069546040517f8f28397000000000000000000000000000000000000000000000000000000000815273ffffffffffffffffffffffffffffffffffffffff918216600482015291169250638f2839709150602401600060405180830381600087803b15801561128457600080fd5b505af1158015611298573d6000803e3d6000fd5b505050505b609280547fffffffffffffffffffffffffffffffffffffffffffffffffffffffffff00ffff1662010000179055565b6112d461486b565b60925460059062010000900460ff161561134f576040517f08c379a000000000000000000000000000000000000000000000000000000000815260206004820152601160248201527f416c72656164792066696e616c697a656400000000000000000000000000000060448201526064015b60405180910390fd5b6092546301000000900460ff16156113c3576040517f08c379a000000000000000000000000000000000000000000000000000000000815260206004820152600e60248201527f416c7265616479206578697465640000000000000000000000000000000000006044820152606401611346565b60925460ff828116911614611434576040517f08c379a000000000000000000000000000000000000000000000000000000000815260206004820152600e60248201527f496e636f727265637420737465700000000000000000000000000000000000006044820152606401611346565b609254610100900460ff166114cb576040517f08c379a000000000000000000000000000000000000000000000000000000000815260206004820152602c60248201527f44796e616d6963206f7261636c6520636f6e666967206973206e6f742079657460448201527f20696e697469616c697a656400000000000000000000000000000000000000006064820152608401611346565b606654606a54607254608b54608c546040516024810192909252604482015273ffffffffffffffffffffffffffffffffffffffff93841693639623609d938116921690606401604080517fffffffffffffffffffffffffffffffffffffffffffffffffffffffffffffffe08184030181529181526020820180517bffffffffffffffffffffffffffffffffffffffffffffffffffffffff167fe4a3011600000000000000000000000000000000000000000000000000000000179052517fffffffff0000000000000000000000000000000000000000000000000000000060e086901b1681526115c09392919060040161571b565b600060405180830381600087803b1580156115da57600080fd5b505af11580156115ee573d6000803e3d6000fd5b5050606654606b5460735460675460405173ffffffffffffffffffffffffffffffffffffffff91821660248201529381169550639623609d945091821692911690604401604080517fffffffffffffffffffffffffffffffffffffffffffffffffffffffffffffffe08184030181529181526020820180517bffffffffffffffffffffffffffffffffffffffffffffffffffffffff167fc4d66de800000000000000000000000000000000000000000000000000000000179052517fffffffff0000000000000000000000000000000000000000000000000000000060e086901b1681526116e19392919060040161571b565b600060405180830381600087803b1580156116fb57600080fd5b505af115801561170f573d6000803e3d6000fd5b5050606654606c546074546040517f99a88ec400000000000000000000000000000000000000000000000000000000815273ffffffffffffffffffffffffffffffffffffffff92831660048201529082166024820152911692506399a88ec49150604401600060405180830381600087803b15801561178d57600080fd5b505af11580156117a1573d6000803e3d6000fd5b5050606c546067546040517fc4d66de800000000000000000000000000000000000000000000000000000000815273ffffffffffffffffffffffffffffffffffffffff91821660048201529116925063c4d66de89150602401600060405180830381600087803b15801561181457600080fd5b505af1925050508015611825575060015b6119825761183161575d565b806308c379a0036118f85750611845615779565b8061185057506118fa565b7f7a2a4e26842155ea933fe6eb6e3137eb5a296dcdf55721c552be7b4c3cc23759816040516020016118829190615821565b6040516020818303038152906040528051906020012014816040516020016118aa919061583d565b604051602081830303815290604052906118f1576040517f08c379a000000000000000000000000000000000000000000000000000000000815260040161134691906158a8565b5050611982565b505b6040517f08c379a000000000000000000000000000000000000000000000000000000000815260206004820152602f60248201527f556e6578706563746564206572726f7220696e697469616c697a696e67204c3160448201527f58444d20286e6f20726561736f6e2900000000000000000000000000000000006064820152608401611346565b606654606d546078546040805160048082526024820183526020820180517bffffffffffffffffffffffffffffffffffffffffffffffffffffffff167fed88c68e0000000000000000000000000000000000000000000000000000000017905291517f9623609d00000000000000000000000000000000000000000000000000000000815273ffffffffffffffffffffffffffffffffffffffff95861695639623609d95611a389590821694911692910161571b565b600060405180830381600087803b158015611a5257600080fd5b505af1158015611a66573d6000803e3d6000fd5b5050606654606d546075546040517f99a88ec400000000000000000000000000000000000000000000000000000000815273ffffffffffffffffffffffffffffffffffffffff92831660048201529082166024820152911692506399a88ec49150604401600060405180830381600087803b158015611ae457600080fd5b505af1158015611af8573d6000803e3d6000fd5b5050606654606e546076546040517f99a88ec400000000000000000000000000000000000000000000000000000000815273ffffffffffffffffffffffffffffffffffffffff92831660048201529082166024820152911692506399a88ec49150604401600060405180830381600087803b158015611b7657600080fd5b505af1158015611b8a573d6000803e3d6000fd5b5050606654606f546077546040517f99a88ec400000000000000000000000000000000000000000000000000000000815273ffffffffffffffffffffffffffffffffffffffff92831660048201529082166024820152911692506399a88ec49150604401600060405180830381600087803b158015611c0857600080fd5b505af1158015611c1c573d6000803e3d6000fd5b5050606654607154607a546040517f99a88ec400000000000000000000000000000000000000000000000000000000815273ffffffffffffffffffffffffffffffffffffffff92831660048201529082166024820152911692506399a88ec49150604401600060405180830381600087803b158015611c9a57600080fd5b505af1158015611cae573d6000803e3d6000fd5b5050606d546067546040517fc4d66de800000000000000000000000000000000000000000000000000000000815273ffffffffffffffffffffffffffffffffffffffff91821660048201529116925063c4d66de89150602401600060405180830381600087803b158015611d2157600080fd5b505af1925050508015611d32575060015b611e8f57611d3e61575d565b806308c379a003611e055750611d52615779565b80611d5d5750611e07565b7f7a2a4e26842155ea933fe6eb6e3137eb5a296dcdf55721c552be7b4c3cc2375981604051602001611d8f9190615821565b604051602081830303815290604052805190602001201481604051602001611db791906158bb565b60405160208183030381529060405290611dfe576040517f08c379a000000000000000000000000000000000000000000000000000000000815260040161134691906158a8565b5050611e8f565b505b6040517f08c379a000000000000000000000000000000000000000000000000000000000815260206004820152602e60248201527f556e6578706563746564206572726f7220696e697469616c697a696e67204c3160448201527f534220286e6f20726561736f6e290000000000000000000000000000000000006064820152608401611346565b606d546067546040517fe23754da00000000000000000000000000000000000000000000000000000000815273ffffffffffffffffffffffffffffffffffffffff918216600482015291169063e23754da90602401600060405180830381600087803b158015611efe57600080fd5b505af1925050508015611f0f575060015b61206c57611f1b61575d565b806308c379a003611fe25750611f2f615779565b80611f3a5750611fe4565b7f4fbaa7e98e32928bd420bc39465f06e05abac62baa90bf4053a4ef877dfdd90181604051602001611f6c9190615821565b604051602081830303815290604052805190602001201481604051602001611f949190615926565b60405160208183030381529060405290611fdb576040517f08c379a000000000000000000000000000000000000000000000000000000000815260040161134691906158a8565b505061206c565b505b6040517f08c379a000000000000000000000000000000000000000000000000000000000815260206004820152603a60248201527f556e6578706563746564206572726f722073657474696e67207375706572636860448201527f61696e436f6e666967204c31534220286e6f20726561736f6e290000000000006064820152608401611346565b606f546067546040517fc4d66de800000000000000000000000000000000000000000000000000000000815273ffffffffffffffffffffffffffffffffffffffff918216600482015291169063c4d66de890602401600060405180830381600087803b1580156120db57600080fd5b505af19250505080156120ec575060015b612249576120f861575d565b806308c379a0036121bf575061210c615779565b8061211757506121c1565b7f7a2a4e26842155ea933fe6eb6e3137eb5a296dcdf55721c552be7b4c3cc23759816040516020016121499190615821565b6040516020818303038152906040528051906020012014816040516020016121719190615991565b604051602081830303815290604052906121b8576040517f08c379a000000000000000000000000000000000000000000000000000000000815260040161134691906158a8565b5050612249565b505b6040517f08c379a000000000000000000000000000000000000000000000000000000000815260206004820152603860248201527f556e6578706563746564206572726f7220696e697469616c697a696e67204c3160448201527f45524337323142726964676520286e6f20726561736f6e2900000000000000006064820152608401611346565b607154606654608954608a546040517f7a1ac61e00000000000000000000000000000000000000000000000000000000815273ffffffffffffffffffffffffffffffffffffffff938416600482015260248101929092526044820152911690637a1ac61e90606401600060405180830381600087803b1580156122cb57600080fd5b505af19250505080156122dc575060015b612439576122e861575d565b806308c379a0036123af57506122fc615779565b8061230757506123b1565b7f7a2a4e26842155ea933fe6eb6e3137eb5a296dcdf55721c552be7b4c3cc23759816040516020016123399190615821565b60405160208183030381529060405280519060200120148160405160200161236191906159fc565b604051602081830303815290604052906123a8576040517f08c379a000000000000000000000000000000000000000000000000000000000815260040161134691906158a8565b5050612439565b505b6040517f08c379a000000000000000000000000000000000000000000000000000000000815260206004820152603a60248201527f556e6578706563746564206572726f7220696e697469616c697a696e6720507260448201527f6f746f636f6c56657273696f6e7320286e6f20726561736f6e290000000000006064820152608401611346565b6067546090546040517f400ada7500000000000000000000000000000000000000000000000000000000815273ffffffffffffffffffffffffffffffffffffffff91821660048201526000602482015291169063400ada7590604401600060405180830381600087803b1580156124af57600080fd5b505af19250505080156124c0575060015b61261d576124cc61575d565b806308c379a00361259357506124e0615779565b806124eb5750612595565b7f7a2a4e26842155ea933fe6eb6e3137eb5a296dcdf55721c552be7b4c3cc237598160405160200161251d9190615821565b60405160208183030381529060405280519060200120148160405160200161254591906159fc565b6040516020818303038152906040529061258c576040517f08c379a000000000000000000000000000000000000000000000000000000000815260040161134691906158a8565b505061261d565b505b6040517f08c379a000000000000000000000000000000000000000000000000000000000815260206004820152603a60248201527f556e6578706563746564206572726f7220696e697469616c697a696e6720537560448201527f706572636861696e436f6e66696720286e6f20726561736f6e290000000000006064820152608401611346565b6092805460ff1690600061263083615a89565b91906101000a81548160ff021916908360ff1602179055505050565b61265461486b565b61265e60006148ec565b565b61266861486b565b8151608b55602080830151608c55604080840151608d805473ffffffffffffffffffffffffffffffffffffffff9283167fffffffffffffffffffffffff000000000000000000000000000000000000000091821617909155606095860151608e80549184169183169190911790558451608f805491841691831691909117905592840151609080549183169190941617909255820151609180549390940151151574010000000000000000000000000000000000000000027fffffffffffffffffffffff000000000000000000000000000000000000000000909316911617179055609280547fffffffffffffffffffffffffffffffffffffffffffffffffffffffffffff00ff16610100179055565b61278061486b565b60925460029062010000900460ff16156127f6576040517f08c379a000000000000000000000000000000000000000000000000000000000815260206004820152601160248201527f416c72656164792066696e616c697a65640000000000000000000000000000006044820152606401611346565b6092546301000000900460ff161561286a576040517f08c379a000000000000000000000000000000000000000000000000000000000815260206004820152600e60248201527f416c7265616479206578697465640000000000000000000000000000000000006044820152606401611346565b60925460ff8281169116146128db576040517f08c379a000000000000000000000000000000000000000000000000000000000815260206004820152600e60248201527f496e636f727265637420737465700000000000000000000000000000000000006044820152606401611346565b6065546040517fbf40fac100000000000000000000000000000000000000000000000000000000815273ffffffffffffffffffffffffffffffffffffffff9091169063bf40fac19061292f90600401615aa8565b602060405180830381865afa15801561294c573d6000803e3d6000fd5b505050506040513d601f19601f820116820180604052508101906129709190615aeb565b609280547fffffffffffffffff0000000000000000000000000000000000000000ffffffff1664010000000073ffffffffffffffffffffffffffffffffffffffff938416021790556065546040517f9b2ea4bd000000000000000000000000000000000000000000000000000000008152911690639b2ea4bd906129f990600090600401615b08565b600060405180830381600087803b158015612a1357600080fd5b505af1158015612a27573d6000803e3d6000fd5b5050606554604080517f9b2ea4bd0000000000000000000000000000000000000000000000000000000081526004810191909152601160448201527f44544c5f534855544f46465f424c4f434b000000000000000000000000000000606482015273ffffffffffffffffffffffffffffffffffffffff43811660248301529091169250639b2ea4bd91506084015b600060405180830381600087803b158015612acf57600080fd5b505af1158015612ae3573d6000803e3d6000fd5b50506092805460ff1692509050600061263083615a89565b600054610100900460ff1615808015612b1b5750600054600160ff909116105b80612b355750303b158015612b35575060005460ff166001145b612bc1576040517f08c379a000000000000000000000000000000000000000000000000000000000815260206004820152602e60248201527f496e697469616c697a61626c653a20636f6e747261637420697320616c72656160448201527f647920696e697469616c697a65640000000000000000000000000000000000006064820152608401611346565b600080547fffffffffffffffffffffffffffffffffffffffffffffffffffffffffffffff001660011790558015612c1f57600080547fffffffffffffffffffffffffffffffffffffffffffffffffffffffffffff00ff166101001790555b81606560008201518160000160008201518160000160006101000a81548173ffffffffffffffffffffffffffffffffffffffff021916908373ffffffffffffffffffffffffffffffffffffffff16021790555060208201518160010160006101000a81548173ffffffffffffffffffffffffffffffffffffffff021916908373ffffffffffffffffffffffffffffffffffffffff16021790555060408201518160020160006101000a81548173ffffffffffffffffffffffffffffffffffffffff021916908373ffffffffffffffffffffffffffffffffffffffff16021790555060608201518160030160006101000a81548173ffffffffffffffffffffffffffffffffffffffff021916908373ffffffffffffffffffffffffffffffffffffffff16021790555060808201518160040160006101000a81548173ffffffffffffffffffffffffffffffffffffffff021916908373ffffffffffffffffffffffffffffffffffffffff160217905550505060208201518160050160008201518160000160006101000a81548173ffffffffffffffffffffffffffffffffffffffff021916908373ffffffffffffffffffffffffffffffffffffffff16021790555060208201518160010160006101000a81548173ffffffffffffffffffffffffffffffffffffffff021916908373ffffffffffffffffffffffffffffffffffffffff16021790555060408201518160020160006101000a81548173ffffffffffffffffffffffffffffffffffffffff021916908373ffffffffffffffffffffffffffffffffffffffff16021790555060608201518160030160006101000a81548173ffffffffffffffffffffffffffffffffffffffff021916908373ffffffffffffffffffffffffffffffffffffffff16021790555060808201518160040160006101000a81548173ffffffffffffffffffffffffffffffffffffffff021916908373ffffffffffffffffffffffffffffffffffffffff16021790555060a08201518160050160006101000a81548173ffffffffffffffffffffffffffffffffffffffff021916908373ffffffffffffffffffffffffffffffffffffffff16021790555060c08201518160060160006101000a81548173ffffffffffffffffffffffffffffffffffffffff021916908373ffffffffffffffffffffffffffffffffffffffff16021790555060e08201518160070160006101000a81548173ffffffffffffffffffffffffffffffffffffffff021916908373ffffffffffffffffffffffffffffffffffffffff1602179055505050604082015181600d0160008201518160000160006101000a81548173ffffffffffffffffffffffffffffffffffffffff021916908373ffffffffffffffffffffffffffffffffffffffff16021790555060208201518160010160006101000a81548173ffffffffffffffffffffffffffffffffffffffff021916908373ffffffffffffffffffffffffffffffffffffffff16021790555060408201518160020160006101000a81548173ffffffffffffffffffffffffffffffffffffffff021916908373ffffffffffffffffffffffffffffffffffffffff16021790555060608201518160030160006101000a81548173ffffffffffffffffffffffffffffffffffffffff021916908373ffffffffffffffffffffffffffffffffffffffff16021790555060808201518160040160006101000a81548173ffffffffffffffffffffffffffffffffffffffff021916908373ffffffffffffffffffffffffffffffffffffffff16021790555060a08201518160050160006101000a81548173ffffffffffffffffffffffffffffffffffffffff021916908373ffffffffffffffffffffffffffffffffffffffff16021790555060c08201518160060160006101000a81548173ffffffffffffffffffffffffffffffffffffffff021916908373ffffffffffffffffffffffffffffffffffffffff16021790555060e08201518160070160006101000a81548173ffffffffffffffffffffffffffffffffffffffff021916908373ffffffffffffffffffffffffffffffffffffffff1602179055506101008201518160080160006101000a81548173ffffffffffffffffffffffffffffffffffffffff021916908373ffffffffffffffffffffffffffffffffffffffff160217905550505060608201518160160160008201518160000160006101000a81548173ffffffffffffffffffffffffffffffffffffffff021916908373ffffffffffffffffffffffffffffffffffffffff16021790555060208201518160010155604082015181600201556060820151816003015560808201518160040160006101000a81548167ffffffffffffffff021916908367ffffffffffffffff16021790555060a08201518160040160086101000a81548173ffffffffffffffffffffffffffffffffffffffff021916908373ffffffffffffffffffffffffffffffffffffffff16021790555060c08201518160050160008201518160000160006101000a81548163ffffffff021916908363ffffffff16021790555060208201518160000160046101000a81548160ff021916908360ff16021790555060408201518160000160056101000a81548160ff021916908360ff16021790555060608201518160000160066101000a81548163ffffffff021916908363ffffffff160217905550608082015181600001600a6101000a81548163ffffffff021916908363ffffffff16021790555060a082015181600001600e6101000a8154816fffffffffffffffffffffffffffffffff02191690836fffffffffffffffffffffffffffffffff160217905550505060e082015181600601556101008201518160070160006101000a81548173ffffffffffffffffffffffffffffffffffffffff021916908373ffffffffffffffffffffffffffffffffffffffff1602179055506101208201518160080160008201518160000160006101000a81548173ffffffffffffffffffffffffffffffffffffffff021916908373ffffffffffffffffffffffffffffffffffffffff16021790555060208201518160010160006101000a81548173ffffffffffffffffffffffffffffffffffffffff021916908373ffffffffffffffffffffffffffffffffffffffff16021790555060408201518160020160006101000a81548173ffffffffffffffffffffffffffffffffffffffff021916908373ffffffffffffffffffffffffffffffffffffffff16021790555060608201518160030160006101000a81548173ffffffffffffffffffffffffffffffffffffffff021916908373ffffffffffffffffffffffffffffffffffffffff16021790555060808201518160040160006101000a81548173ffffffffffffffffffffffffffffffffffffffff021916908373ffffffffffffffffffffffffffffffffffffffff16021790555060a08201518160050160006101000a81548173ffffffffffffffffffffffffffffffffffffffff021916908373ffffffffffffffffffffffffffffffffffffffff16021790555050505050608082015181602401600082015181600001556020820151816001015550509050506001609260006101000a81548160ff021916908360ff160217905550613693614963565b6068546136b59073ffffffffffffffffffffffffffffffffffffffff166148ec565b801561371857600080547fffffffffffffffffffffffffffffffffffffffffffffffffffffffffffff00ff169055604051600181527f7f26b83ff96e1f2b6a682f133852f6798a09c465da95921460cefb38474024989060200160405180910390a15b5050565b61372461486b565b60925460019062010000900460ff161561379a576040517f08c379a000000000000000000000000000000000000000000000000000000000815260206004820152601160248201527f416c72656164792066696e616c697a65640000000000000000000000000000006044820152606401611346565b6092546301000000900460ff161561380e576040517f08c379a000000000000000000000000000000000000000000000000000000000815260206004820152600e60248201527f416c7265616479206578697465640000000000000000000000000000000000006044820152606401611346565b60925460ff82811691161461387f576040517f08c379a000000000000000000000000000000000000000000000000000000000815260206004820152600e60248201527f496e636f727265637420737465700000000000000000000000000000000000006044820152606401611346565b6066546065546040517f0652b57a00000000000000000000000000000000000000000000000000000000815273ffffffffffffffffffffffffffffffffffffffff9182166004820152911690630652b57a90602401600060405180830381600087803b1580156138ee57600080fd5b505af1158015613902573d6000803e3d6000fd5b5050606654606c546040517f8d52d4a000000000000000000000000000000000000000000000000000000000815273ffffffffffffffffffffffffffffffffffffffff9283169450638d52d4a093506139649290911690600290600401615b69565b600060405180830381600087803b15801561397e57600080fd5b505af1158015613992573d6000803e3d6000fd5b5050606654606c546040517f860f7cda00000000000000000000000000000000000000000000000000000000815273ffffffffffffffffffffffffffffffffffffffff928316945063860f7cda93506139f19290911690600401615bca565b600060405180830381600087803b158015613a0b57600080fd5b505af1158015613a1f573d6000803e3d6000fd5b5050606654606d546040517f8d52d4a000000000000000000000000000000000000000000000000000000000815273ffffffffffffffffffffffffffffffffffffffff9283169450638d52d4a09350613a819290911690600190600401615b69565b600060405180830381600087803b158015613a9b57600080fd5b505af1158015613aaf573d6000803e3d6000fd5b5050606654607054607954607b54607c54607d54607e54607f5473ffffffffffffffffffffffffffffffffffffffff9788169950639623609d985095871696948516959385169492939192909167ffffffffffffffff8116916801000000000000000090910416613b996040805160c081018252600080825260208201819052918101829052606081018290526080810182905260a0810191909152506040805160c0810182526301312d008152600a6020820152600891810191909152633b9aca006060820152620f424060808201526fffffffffffffffffffffffffffffffff60a082015290565b604051602401613baf9796959493929190615c23565b604080517fffffffffffffffffffffffffffffffffffffffffffffffffffffffffffffffe08184030181529181526020820180517bffffffffffffffffffffffffffffffffffffffffffffffffffffffff167ff975e92500000000000000000000000000000000000000000000000000000000179052517fffffffff0000000000000000000000000000000000000000000000000000000060e086901b168152612ab59392919060040161571b565b613c6661486b565b613c6e613c86565b613c766142e7565b613c7e6112cc565b61265e611067565b613c8e61486b565b60925460039062010000900460ff1615613d04576040517f08c379a000000000000000000000000000000000000000000000000000000000815260206004820152601160248201527f416c72656164792066696e616c697a65640000000000000000000000000000006044820152606401611346565b6092546301000000900460ff1615613d78576040517f08c379a000000000000000000000000000000000000000000000000000000000815260206004820152600e60248201527f416c7265616479206578697465640000000000000000000000000000000000006044820152606401611346565b60925460ff828116911614613de9576040517f08c379a000000000000000000000000000000000000000000000000000000000815260206004820152600e60248201527f496e636f727265637420737465700000000000000000000000000000000000006044820152606401611346565b60006040518061022001604052806040518060400160405280601d81526020017f4f564d5f43616e6f6e6963616c5472616e73616374696f6e436861696e00000081525081526020016040518060400160405280601a81526020017f4f564d5f4c3243726f7373446f6d61696e4d657373656e6765720000000000008152508152602001604051806060016040528060228152602001615d806022913981526020016040518060400160405280600d81526020017f4f564d5f53657175656e6365720000000000000000000000000000000000000081525081526020016040518060400160405280600c81526020017f4f564d5f50726f706f73657200000000000000000000000000000000000000008152508152602001604051806060016040528060258152602001615da2602591398152602001604051806060016040528060238152602001615dc7602391398152604080518082018252601d81527f4f564d5f43616e6f6e6963616c5472616e73616374696f6e436861696e0000006020828101919091528084019190915281518083018352601881527f4f564d5f5374617465436f6d6d69746d656e74436861696e0000000000000000818301528284015281518083018352600f81527f4f564d5f426f6e644d616e61676572000000000000000000000000000000000081830152606084015281518083018352601481527f4f564d5f457865637574696f6e4d616e616765720000000000000000000000008183015260808401528151808301835260118082527f4f564d5f467261756456657269666965720000000000000000000000000000008284015260a085019190915282518084018452601781527f4f564d5f53746174654d616e61676572466163746f72790000000000000000008184015260c085015282518084018452601c81527f4f564d5f53746174655472616e736974696f6e6572466163746f7279000000008184015260e0850152825180840184529081527f4f564d5f536166657479436865636b65720000000000000000000000000000008183015261010084015281518083018352601981527f4f564d5f4c314d756c74694d65737361676552656c6179657200000000000000818301526101208401528151808301909252600b82527f426f6e644d616e616765720000000000000000000000000000000000000000009082015261014090910152905060005b60118110156142035760655473ffffffffffffffffffffffffffffffffffffffff16639b2ea4bd83836011811061419a5761419a615ce0565b602002015160006040518363ffffffff1660e01b81526004016141be929190615d0f565b600060405180830381600087803b1580156141d857600080fd5b505af11580156141ec573d6000803e3d6000fd5b5050505080806141fb90615d47565b915050614161565b50506092805460ff1690600061263083615a89565b61422061486b565b61422861371c565b61265e612778565b61423861486b565b73ffffffffffffffffffffffffffffffffffffffff81166142db576040517f08c379a000000000000000000000000000000000000000000000000000000000815260206004820152602660248201527f4f776e61626c653a206e6577206f776e657220697320746865207a65726f206160448201527f64647265737300000000000000000000000000000000000000000000000000006064820152608401611346565b6142e4816148ec565b50565b6142ef61486b565b60925460049062010000900460ff1615614365576040517f08c379a000000000000000000000000000000000000000000000000000000000815260206004820152601160248201527f416c72656164792066696e616c697a65640000000000000000000000000000006044820152606401611346565b6092546301000000900460ff16156143d9576040517f08c379a000000000000000000000000000000000000000000000000000000000815260206004820152600e60248201527f416c7265616479206578697465640000000000000000000000000000000000006044820152606401611346565b60925460ff82811691161461444a576040517f08c379a000000000000000000000000000000000000000000000000000000000815260206004820152600e60248201527f496e636f727265637420737465700000000000000000000000000000000000006044820152606401611346565b6065546066546040517ff2fde38b00000000000000000000000000000000000000000000000000000000815273ffffffffffffffffffffffffffffffffffffffff918216600482015291169063f2fde38b90602401600060405180830381600087803b1580156144b957600080fd5b505af11580156144cd573d6000803e3d6000fd5b5050606d546066546040517f13af403500000000000000000000000000000000000000000000000000000000815273ffffffffffffffffffffffffffffffffffffffff9182166004820152911692506313af40359150602401600060405180830381600087803b15801561454057600080fd5b505af1158015614554573d6000803e3d6000fd5b5050606f546066546040517f8f28397000000000000000000000000000000000000000000000000000000000815273ffffffffffffffffffffffffffffffffffffffff918216600482015291169250638f2839709150602401612ab5565b6145ba61486b565b60925460ff1660031461464f576040517f08c379a000000000000000000000000000000000000000000000000000000000815260206004820152602860248201527f63616e206f6e6c79206578697431206265666f7265207374657020332069732060448201527f65786563757465640000000000000000000000000000000000000000000000006064820152608401611346565b6065546092546040517f9b2ea4bd00000000000000000000000000000000000000000000000000000000815273ffffffffffffffffffffffffffffffffffffffff92831692639b2ea4bd926146b39264010000000090910490911690600401615b08565b600060405180830381600087803b1580156146cd57600080fd5b505af11580156146e1573d6000803e3d6000fd5b5050606554604080517f9b2ea4bd0000000000000000000000000000000000000000000000000000000081526004810191909152601160448201527f44544c5f534855544f46465f424c4f434b00000000000000000000000000000060648201526000602482015273ffffffffffffffffffffffffffffffffffffffff9091169250639b2ea4bd9150608401600060405180830381600087803b15801561478757600080fd5b505af115801561479b573d6000803e3d6000fd5b5050609280547fffffffffffffffffffffffffffffffffffffffffffffffffffffffff00ffffff1663010000001790555050565b6040805160c081018252600080825260208201819052918101829052606081018290526080810182905260a0810191909152506040805160c0810182526301312d008152600a6020820152600891810191909152633b9aca006060820152620f424060808201526fffffffffffffffffffffffffffffffff60a082015290565b73ffffffffffffffffffffffffffffffffffffffff163b151590565b60335473ffffffffffffffffffffffffffffffffffffffff16331461265e576040517f08c379a000000000000000000000000000000000000000000000000000000000815260206004820181905260248201527f4f776e61626c653a2063616c6c6572206973206e6f7420746865206f776e65726044820152606401611346565b6033805473ffffffffffffffffffffffffffffffffffffffff8381167fffffffffffffffffffffffff0000000000000000000000000000000000000000831681179093556040519116919082907f8be0079c531659141344cd1fd0a4f28419497f9722a3daafe3b4186f6b6457e090600090a35050565b600054610100900460ff166149fa576040517f08c379a000000000000000000000000000000000000000000000000000000000815260206004820152602b60248201527f496e697469616c697a61626c653a20636f6e7472616374206973206e6f74206960448201527f6e697469616c697a696e670000000000000000000000000000000000000000006064820152608401611346565b61265e600054610100900460ff16614a94576040517f08c379a000000000000000000000000000000000000000000000000000000000815260206004820152602b60248201527f496e697469616c697a61626c653a20636f6e7472616374206973206e6f74206960448201527f6e697469616c697a696e670000000000000000000000000000000000000000006064820152608401611346565b61265e336148ec565b73ffffffffffffffffffffffffffffffffffffffff808251168352806020830151166020840152806040830151166040840152506060810151614af8606084018273ffffffffffffffffffffffffffffffffffffffff169052565b506080810151614b20608084018273ffffffffffffffffffffffffffffffffffffffff169052565b5060a0810151614b4860a084018273ffffffffffffffffffffffffffffffffffffffff169052565b5060c0810151614b7060c084018273ffffffffffffffffffffffffffffffffffffffff169052565b5060e0810151614b9860e084018273ffffffffffffffffffffffffffffffffffffffff169052565b506101008181015173ffffffffffffffffffffffffffffffffffffffff8116848301525b50505050565b805173ffffffffffffffffffffffffffffffffffffffff1682526020810151602083015260408101516040830152606081015160608301526080810151614c15608084018267ffffffffffffffff169052565b5060a0810151614c3d60a084018273ffffffffffffffffffffffffffffffffffffffff169052565b5060c0810151614ca960c084018263ffffffff80825116835260ff602083015116602084015260ff6040830151166040840152806060830151166060840152806080830151166080840152506fffffffffffffffffffffffffffffffff60a08201511660a08301525050565b5060e081015161018083015261010081015173ffffffffffffffffffffffffffffffffffffffff9081166101a084015261012090910151805182166101c0840152602081015182166101e084015260408101518216610200840152606081015182166102208401526080810151821661024084015260a001511661026090910152565b60006105808201905073ffffffffffffffffffffffffffffffffffffffff8088511683528060208901511660208401528060408901511660408401528060608901511660608401528060808901511660808401528087511660a08401528060208801511660c08401528060408801511660e084015280606088015116610100840152806080880151166101208401525060a0860151614de461014084018273ffffffffffffffffffffffffffffffffffffffff169052565b5060c086015173ffffffffffffffffffffffffffffffffffffffff90811661016084015260e087015116610180830152614e226101a0830186614a9d565b614e306102c0830185614bc2565b825161054083015260208301516105608301529695505050505050565b6080810181811067ffffffffffffffff82111715614e94577f4e487b7100000000000000000000000000000000000000000000000000000000600052604160045260246000fd5b60405250565b60c0810181811067ffffffffffffffff82111715614e94577f4e487b7100000000000000000000000000000000000000000000000000000000600052604160045260246000fd5b60a0810181811067ffffffffffffffff82111715614e94577f4e487b7100000000000000000000000000000000000000000000000000000000600052604160045260246000fd5b7fffffffffffffffffffffffffffffffffffffffffffffffffffffffffffffffe0601f830116810181811067ffffffffffffffff82111715614f93577f4e487b7100000000000000000000000000000000000000000000000000000000600052604160045260246000fd5b6040525050565b604051610120810167ffffffffffffffff81118282101715614fe5577f4e487b7100000000000000000000000000000000000000000000000000000000600052604160045260246000fd5b60405290565b604051610140810167ffffffffffffffff81118282101715614fe5577f4e487b7100000000000000000000000000000000000000000000000000000000600052604160045260246000fd5b73ffffffffffffffffffffffffffffffffffffffff811681146142e457600080fd5b803561506381615036565b919050565b60008082840361010081121561507d57600080fd5b608081121561508b57600080fd5b60405161509781614e4d565b843581526020850135602082015260408501356150b381615036565b604082015260608501356150c681615036565b6060820152925060807fffffffffffffffffffffffffffffffffffffffffffffffffffffffffffffff80820112156150fd57600080fd5b5060405161510a81614e4d565b608084013561511881615036565b815260a084013561512881615036565b602082015260c084013561513b81615036565b604082015260e0840135801515811461515357600080fd5b6060820152919491935090915050565b600061010080838503121561517757600080fd5b6040519081019067ffffffffffffffff821181831017156151c1577f4e487b7100000000000000000000000000000000000000000000000000000000600052604160045260246000fd5b816040528092506151d184615058565b81526151df60208501615058565b60208201526151f060408501615058565b604082015261520160608501615058565b606082015261521260808501615058565b608082015261522360a08501615058565b60a082015261523460c08501615058565b60c082015261524560e08501615058565b60e0820152505092915050565b6000610120828403121561526557600080fd5b61526d614f9a565b905061527882615058565b815261528660208301615058565b602082015261529760408301615058565b60408201526152a860608301615058565b60608201526152b960808301615058565b60808201526152ca60a08301615058565b60a08201526152db60c08301615058565b60c08201526152ec60e08301615058565b60e08201526101006152ff818401615058565b9082015292915050565b803567ffffffffffffffff8116811461506357600080fd5b803563ffffffff8116811461506357600080fd5b803560ff8116811461506357600080fd5b600060c0828403121561535857600080fd5b60405161536481614e9a565b80915061537083615321565b815261537e60208401615335565b602082015261538f60408401615335565b60408201526153a060608401615321565b60608201526153b160808401615321565b608082015260a08301356fffffffffffffffffffffffffffffffff811681146153d957600080fd5b60a0919091015292915050565b600060c082840312156153f857600080fd5b60405161540481614e9a565b809150823561541281615036565b8152602083013561542281615036565b6020820152604083013561543581615036565b6040820152606083013561544881615036565b6060820152608083013561545b81615036565b608082015260a08301356153d981615036565b6000610280828403121561548157600080fd5b615489614feb565b905061549482615058565b81526020820135602082015260408201356040820152606082013560608201526154c060808301615309565b60808201526154d160a08301615058565b60a08201526154e38360c08401615346565b60c082015261018082013560e08201526155006101a08301615058565b610100820152615514836101c084016153e6565b61012082015292915050565b60006040828403121561553257600080fd5b6040516040810181811067ffffffffffffffff8211171561557c577f4e487b7100000000000000000000000000000000000000000000000000000000600052604160045260246000fd5b604052823581526020928301359281019290925250919050565b60008183036105808112156155aa57600080fd5b6040516155b681614ee1565b60a08212156155c457600080fd5b60405191506155d282614ee1565b83356155dd81615036565b825260208401356155ed81615036565b6020830152604084013561560081615036565b6040830152606084013561561381615036565b6060830152608084013561562681615036565b608083015281815261563b8560a08601615163565b602082015261564e856101a08601615252565b6040820152615661856102c0860161546e565b6060820152615674856105408601615520565b6080820152949350505050565b60006020828403121561569357600080fd5b813561569e81615036565b9392505050565b60005b838110156156c05781810151838201526020016156a8565b83811115614bbc5750506000910152565b600081518084526156e98160208601602086016156a5565b601f017fffffffffffffffffffffffffffffffffffffffffffffffffffffffffffffffe0169290920160200192915050565b600073ffffffffffffffffffffffffffffffffffffffff80861683528085166020840152506060604083015261575460608301846156d1565b95945050505050565b600060033d11156157765760046000803e5060005160e01c5b90565b600060443d10156157875790565b6040517ffffffffffffffffffffffffffffffffffffffffffffffffffffffffffffffffc803d016004833e81513d67ffffffffffffffff81602484011181841117156157d557505050505090565b82850191508151818111156157ed5750505050505090565b843d87010160208285010111156158075750505050505090565b61581660208286010187614f28565b509095945050505050565b600082516158338184602087016156a5565b9190910192915050565b7f556e6578706563746564206572726f7220696e697469616c697a696e67204c3181527f58444d3a2000000000000000000000000000000000000000000000000000000060208201526000825161589b8160258501602087016156a5565b9190910160250192915050565b60208152600061569e60208301846156d1565b7f556e6578706563746564206572726f7220696e697469616c697a696e67204c3181527f53423a20000000000000000000000000000000000000000000000000000000006020820152600082516159198160248501602087016156a5565b9190910160240192915050565b7f556e6578706563746564206572726f722073657474696e67207375706572636881527f61696e436f6e666967204c3153423a20000000000000000000000000000000006020820152600082516159848160308501602087016156a5565b9190910160300192915050565b7f556e6578706563746564206572726f7220696e697469616c697a696e67204c3181527f4552433732314272696467653a200000000000000000000000000000000000006020820152600082516159ef81602e8501602087016156a5565b91909101602e0192915050565b7f556e6578706563746564206572726f7220696e697469616c697a696e6720507281527f6f746f636f6c56657273696f6e733a20000000000000000000000000000000006020820152600082516159848160308501602087016156a5565b7f4e487b7100000000000000000000000000000000000000000000000000000000600052601160045260246000fd5b600060ff821660ff8103615a9f57615a9f615a5a565b60010192915050565b602081526000615ae560208301601a81527f4f564d5f4c3143726f7373446f6d61696e4d657373656e676572000000000000602082015260400190565b92915050565b600060208284031215615afd57600080fd5b815161569e81615036565b604081526000615b4560408301601a81527f4f564d5f4c3143726f7373446f6d61696e4d657373656e676572000000000000602082015260400190565b905073ffffffffffffffffffffffffffffffffffffffff8316602083015292915050565b73ffffffffffffffffffffffffffffffffffffffff831681526040810160038310615bbd577f4e487b7100000000000000000000000000000000000000000000000000000000600052602160045260246000fd5b8260208301529392505050565b73ffffffffffffffffffffffffffffffffffffffff8216815260406020820152600061569e60408301601a81527f4f564d5f4c3143726f7373446f6d61696e4d657373656e676572000000000000602082015260400190565b73ffffffffffffffffffffffffffffffffffffffff888116825260208201889052604082018790526060820186905267ffffffffffffffff85166080830152831660a08201526101808101615cd460c083018463ffffffff80825116835260ff602083015116602084015260ff6040830151166040840152806060830151166060840152806080830151166080840152506fffffffffffffffffffffffffffffffff60a08201511660a08301525050565b98975050505050505050565b7f4e487b7100000000000000000000000000000000000000000000000000000000600052603260045260246000fd5b604081526000615d2260408301856156d1565b905073ffffffffffffffffffffffffffffffffffffffff831660208301529392505050565b60007fffffffffffffffffffffffffffffffffffffffffffffffffffffffffffffffff8203615d7857615d78615a5a565b506001019056fe4f564d5f4465636f6d7072657373696f6e507265636f6d70696c65416464726573734f564d5f436861696e53746f72616765436f6e7461696e65722d4354432d626174636865734f564d5f436861696e53746f72616765436f6e7461696e65722d4354432d7175657565a164736f6c634300080f000a496e697469616c697a61626c653a20636f6e7472616374206973206e6f742069"
}