{
  "_format": "hh-sol-artifact-1",
  "contractName": "L2Message",
  "sourceName": "contracts/Message/L2Message.sol",
  "abi": [
    {
      "inputs": [
        {
          "internalType": "address",
          "name": "_l2CrossDomainMessenger",
          "type": "address"
        }
      ],
      "stateMutability": "nonpayable",
      "type": "constructor"
    },
    {
      "anonymous": false,
      "inputs": [
        {
          "indexed": false,
          "internalType": "string",
          "name": "_message",
          "type": "string"
        }
      ],
      "name": "ReceiveL1Message",
      "type": "event"
    },
    {
      "inputs": [
        {
          "internalType": "address",
          "name": "_L1MessageAddress",
          "type": "address"
        }
      ],
      "name": "init",
      "outputs": [],
      "stateMutability": "nonpayable",
      "type": "function"
    },
    {
      "inputs": [],
      "name": "messenger",
      "outputs": [
        {
          "internalType": "address",
          "name": "",
          "type": "address"
        }
      ],
      "stateMutability": "view",
      "type": "function"
    },
    {
      "inputs": [
        {
          "internalType": "string",
          "name": "_message",
          "type": "string"
        }
      ],
      "name": "receiveL1Message",
      "outputs": [],
      "stateMutability": "nonpayable",
      "type": "function"
    },
    {
      "inputs": [],
      "name": "sendMessageL2ToL1",
      "outputs": [],
      "stateMutability": "nonpayable",
      "type": "function"
    }
  ],
  "bytecode": "0x608060405234801561001057600080fd5b5060405161084a38038061084a8339818101604052602081101561003357600080fd5b810190808051906020019092919050505080806000806101000a81548173ffffffffffffffffffffffffffffffffffffffff021916908373ffffffffffffffffffffffffffffffffffffffff16021790555050506107b4806100966000396000f3fe608060405234801561001057600080fd5b506004361061004c5760003560e01c806319ab453c146100515780633cb747bf1461009557806356d2d7af146100c9578063d630acf414610184575b600080fd5b6100936004803603602081101561006757600080fd5b81019080803573ffffffffffffffffffffffffffffffffffffffff16906020019092919050505061018e565b005b61009d6101d2565b604051808273ffffffffffffffffffffffffffffffffffffffff16815260200191505060405180910390f35b610182600480360360208110156100df57600080fd5b81019080803590602001906401000000008111156100fc57600080fd5b82018360208201111561010e57600080fd5b8035906020019184600183028401116401000000008311171561013057600080fd5b91908080601f016020809104026020016040519081016040528093929190818152602001838380828437600081840152601f19601f8201169050808301925050505050505091929192905050506101f6565b005b61018c610466565b005b80600160006101000a81548173ffffffffffffffffffffffffffffffffffffffff021916908373ffffffffffffffffffffffffffffffffffffffff16021790555050565b60008054906101000a900473ffffffffffffffffffffffffffffffffffffffff1681565b600160009054906101000a900473ffffffffffffffffffffffffffffffffffffffff16610221610544565b73ffffffffffffffffffffffffffffffffffffffff163373ffffffffffffffffffffffffffffffffffffffff16146102a4576040517f08c379a000000000000000000000000000000000000000000000000000000000815260040180806020018281038252602e815260200180610721602e913960400191505060405180910390fd5b8073ffffffffffffffffffffffffffffffffffffffff166102c3610544565b73ffffffffffffffffffffffffffffffffffffffff16636e296e456040518163ffffffff1660e01b815260040160206040518083038186803b15801561030857600080fd5b505afa15801561031c573d6000803e3d6000fd5b505050506040513d602081101561033257600080fd5b810190808051906020019092919050505073ffffffffffffffffffffffffffffffffffffffff16146103af576040517f08c379a000000000000000000000000000000000000000000000000000000000815260040180806020018281038252603081526020018061074f6030913960400191505060405180910390fd5b81600290805190602001906103c5929190610675565b507f31ce201957b6b0c971f2700b4785ae8d2577932c8ebb2dd7bac0018332f3f41a826040518080602001828103825283818151815260200191508051906020019080838360005b8381101561042857808201518184015260208101905061040d565b50505050905090810190601f1680156104555780820380516001836020036101000a031916815260200191505b509250505060405180910390a15050565b60006386d4fe0060e01b60405160240180806020018281038252600d8152602001807f6d65737361676546726f6d4c3200000000000000000000000000000000000000815250602001915050604051602081830303815290604052907bffffffffffffffffffffffffffffffffffffffffffffffffffffffff19166020820180517bffffffffffffffffffffffffffffffffffffffffffffffffffffffff83818316178352505050509050610541600160009054906101000a900473ffffffffffffffffffffffffffffffffffffffff1682620186a061056d565b50565b60008060009054906101000a900473ffffffffffffffffffffffffffffffffffffffff16905090565b610575610544565b73ffffffffffffffffffffffffffffffffffffffff16633dbb202b8484846040518463ffffffff1660e01b8152600401808473ffffffffffffffffffffffffffffffffffffffff168152602001806020018363ffffffff168152602001828103825284818151815260200191508051906020019080838360005b8381101561060a5780820151818401526020810190506105ef565b50505050905090810190601f1680156106375780820380516001836020036101000a031916815260200191505b50945050505050600060405180830381600087803b15801561065857600080fd5b505af115801561066c573d6000803e3d6000fd5b50505050505050565b828054600181600116156101000203166002900490600052602060002090601f0160209004810192826106ab57600085556106f2565b82601f106106c457805160ff19168380011785556106f2565b828001600101855582156106f2579182015b828111156106f15782518255916020019190600101906106d6565b5b5090506106ff9190610703565b5090565b5b8082111561071c576000816000905550600101610704565b509056fe4f564d5f58434841494e3a206d657373656e67657220636f6e747261637420756e61757468656e746963617465644f564d5f58434841494e3a2077726f6e672073656e646572206f662063726f73732d646f6d61696e206d657373616765a26469706673582212209d28e310ac67f5534eef6832b885dd44ddc9b3f2aa9e9fd612d9b5c62de8cd2764736f6c63430007060033",
  "linkReferences": {},
  "deployedLinkReferences": {}
}