{
  "_format": "hh-sol-artifact-1",
  "contractName": "OVM_CanonicalTransactionChain",
  "sourceName": "contracts/optimistic-ethereum/OVM/chain/OVM_CanonicalTransactionChain.sol",
  "abi": [
    {
      "inputs": [
        {
          "internalType": "address",
          "name": "_libAddressManager",
          "type": "address"
        },
        {
          "internalType": "uint256",
          "name": "_forceInclusionPeriodSeconds",
          "type": "uint256"
        },
        {
          "internalType": "uint256",
          "name": "_forceInclusionPeriodBlocks",
          "type": "uint256"
        },
        {
          "internalType": "uint256",
          "name": "_maxTransactionGasLimit",
          "type": "uint256"
        }
      ],
      "stateMutability": "nonpayable",
      "type": "constructor"
    },
    {
      "anonymous": false,
      "inputs": [
        {
          "indexed": false,
          "internalType": "uint256",
          "name": "_startingQueueIndex",
          "type": "uint256"
        },
        {
          "indexed": false,
          "internalType": "uint256",
          "name": "_numQueueElements",
          "type": "uint256"
        },
        {
          "indexed": false,
          "internalType": "uint256",
          "name": "_totalElements",
          "type": "uint256"
        }
      ],
      "name": "QueueBatchAppended",
      "type": "event"
    },
    {
      "anonymous": false,
      "inputs": [
        {
          "indexed": false,
          "internalType": "uint256",
          "name": "_startingQueueIndex",
          "type": "uint256"
        },
        {
          "indexed": false,
          "internalType": "uint256",
          "name": "_numQueueElements",
          "type": "uint256"
        },
        {
          "indexed": false,
          "internalType": "uint256",
          "name": "_totalElements",
          "type": "uint256"
        }
      ],
      "name": "SequencerBatchAppended",
      "type": "event"
    },
    {
      "anonymous": false,
      "inputs": [
        {
          "indexed": true,
          "internalType": "uint256",
          "name": "_batchIndex",
          "type": "uint256"
        },
        {
          "indexed": false,
          "internalType": "bytes32",
          "name": "_batchRoot",
          "type": "bytes32"
        },
        {
          "indexed": false,
          "internalType": "uint256",
          "name": "_batchSize",
          "type": "uint256"
        },
        {
          "indexed": false,
          "internalType": "uint256",
          "name": "_prevTotalElements",
          "type": "uint256"
        },
        {
          "indexed": false,
          "internalType": "bytes",
          "name": "_extraData",
          "type": "bytes"
        }
      ],
      "name": "TransactionBatchAppended",
      "type": "event"
    },
    {
      "anonymous": false,
      "inputs": [
        {
          "indexed": false,
          "internalType": "address",
          "name": "_l1TxOrigin",
          "type": "address"
        },
        {
          "indexed": false,
          "internalType": "address",
          "name": "_target",
          "type": "address"
        },
        {
          "indexed": false,
          "internalType": "uint256",
          "name": "_gasLimit",
          "type": "uint256"
        },
        {
          "indexed": false,
          "internalType": "bytes",
          "name": "_data",
          "type": "bytes"
        },
        {
          "indexed": false,
          "internalType": "uint256",
          "name": "_queueIndex",
          "type": "uint256"
        },
        {
          "indexed": false,
          "internalType": "uint256",
          "name": "_timestamp",
          "type": "uint256"
        }
      ],
      "name": "TransactionEnqueued",
      "type": "event"
    },
    {
      "inputs": [],
      "name": "L2_GAS_DISCOUNT_DIVISOR",
      "outputs": [
        {
          "internalType": "uint256",
          "name": "",
          "type": "uint256"
        }
      ],
      "stateMutability": "view",
      "type": "function"
    },
    {
      "inputs": [],
      "name": "MAX_ROLLUP_TX_SIZE",
      "outputs": [
        {
          "internalType": "uint256",
          "name": "",
          "type": "uint256"
        }
      ],
      "stateMutability": "view",
      "type": "function"
    },
    {
      "inputs": [],
      "name": "MIN_ROLLUP_TX_GAS",
      "outputs": [
        {
          "internalType": "uint256",
          "name": "",
          "type": "uint256"
        }
      ],
      "stateMutability": "view",
      "type": "function"
    },
    {
      "inputs": [
        {
          "internalType": "uint256",
          "name": "",
          "type": "uint256"
        }
      ],
      "name": "appendQueueBatch",
      "outputs": [],
      "stateMutability": "pure",
      "type": "function"
    },
    {
      "inputs": [],
      "name": "appendSequencerBatch",
      "outputs": [],
      "stateMutability": "nonpayable",
      "type": "function"
    },
    {
      "inputs": [],
      "name": "batches",
      "outputs": [
        {
          "internalType": "contract iOVM_ChainStorageContainer",
          "name": "",
          "type": "address"
        }
      ],
      "stateMutability": "view",
      "type": "function"
    },
    {
      "inputs": [
        {
          "internalType": "address",
          "name": "_target",
          "type": "address"
        },
        {
          "internalType": "uint256",
          "name": "_gasLimit",
          "type": "uint256"
        },
        {
          "internalType": "bytes",
          "name": "_data",
          "type": "bytes"
        }
      ],
      "name": "enqueue",
      "outputs": [],
      "stateMutability": "nonpayable",
      "type": "function"
    },
    {
      "inputs": [],
      "name": "forceInclusionPeriodBlocks",
      "outputs": [
        {
          "internalType": "uint256",
          "name": "",
          "type": "uint256"
        }
      ],
      "stateMutability": "view",
      "type": "function"
    },
    {
      "inputs": [],
      "name": "forceInclusionPeriodSeconds",
      "outputs": [
        {
          "internalType": "uint256",
          "name": "",
          "type": "uint256"
        }
      ],
      "stateMutability": "view",
      "type": "function"
    },
    {
      "inputs": [],
      "name": "getLastBlockNumber",
      "outputs": [
        {
          "internalType": "uint40",
          "name": "",
          "type": "uint40"
        }
      ],
      "stateMutability": "view",
      "type": "function"
    },
    {
      "inputs": [],
      "name": "getLastTimestamp",
      "outputs": [
        {
          "internalType": "uint40",
          "name": "",
          "type": "uint40"
        }
      ],
      "stateMutability": "view",
      "type": "function"
    },
    {
      "inputs": [],
      "name": "getNextQueueIndex",
      "outputs": [
        {
          "internalType": "uint40",
          "name": "",
          "type": "uint40"
        }
      ],
      "stateMutability": "view",
      "type": "function"
    },
    {
      "inputs": [],
      "name": "getNumPendingQueueElements",
      "outputs": [
        {
          "internalType": "uint40",
          "name": "",
          "type": "uint40"
        }
      ],
      "stateMutability": "view",
      "type": "function"
    },
    {
      "inputs": [
        {
          "internalType": "uint256",
          "name": "_index",
          "type": "uint256"
        }
      ],
      "name": "getQueueElement",
      "outputs": [
        {
          "components": [
            {
              "internalType": "bytes32",
              "name": "transactionHash",
              "type": "bytes32"
            },
            {
              "internalType": "uint40",
              "name": "timestamp",
              "type": "uint40"
            },
            {
              "internalType": "uint40",
              "name": "blockNumber",
              "type": "uint40"
            }
          ],
          "internalType": "struct Lib_OVMCodec.QueueElement",
          "name": "_element",
          "type": "tuple"
        }
      ],
      "stateMutability": "view",
      "type": "function"
    },
    {
      "inputs": [],
      "name": "getQueueLength",
      "outputs": [
        {
          "internalType": "uint40",
          "name": "",
          "type": "uint40"
        }
      ],
      "stateMutability": "view",
      "type": "function"
    },
    {
      "inputs": [],
      "name": "getTotalBatches",
      "outputs": [
        {
          "internalType": "uint256",
          "name": "_totalBatches",
          "type": "uint256"
        }
      ],
      "stateMutability": "view",
      "type": "function"
    },
    {
      "inputs": [],
      "name": "getTotalElements",
      "outputs": [
        {
          "internalType": "uint256",
          "name": "_totalElements",
          "type": "uint256"
        }
      ],
      "stateMutability": "view",
      "type": "function"
    },
    {
      "inputs": [],
      "name": "libAddressManager",
      "outputs": [
        {
          "internalType": "contract Lib_AddressManager",
          "name": "",
          "type": "address"
        }
      ],
      "stateMutability": "view",
      "type": "function"
    },
    {
      "inputs": [],
      "name": "maxTransactionGasLimit",
      "outputs": [
        {
          "internalType": "uint256",
          "name": "",
          "type": "uint256"
        }
      ],
      "stateMutability": "view",
      "type": "function"
    },
    {
      "inputs": [],
      "name": "queue",
      "outputs": [
        {
          "internalType": "contract iOVM_ChainStorageContainer",
          "name": "",
          "type": "address"
        }
      ],
      "stateMutability": "view",
      "type": "function"
    },
    {
      "inputs": [
        {
          "internalType": "string",
          "name": "_name",
          "type": "string"
        }
      ],
      "name": "resolve",
      "outputs": [
        {
          "internalType": "address",
          "name": "",
          "type": "address"
        }
      ],
      "stateMutability": "view",
      "type": "function"
    },
    {
      "inputs": [
        {
          "components": [
            {
              "internalType": "uint256",
              "name": "timestamp",
              "type": "uint256"
            },
            {
              "internalType": "uint256",
              "name": "blockNumber",
              "type": "uint256"
            },
            {
              "internalType": "enum Lib_OVMCodec.QueueOrigin",
              "name": "l1QueueOrigin",
              "type": "uint8"
            },
            {
              "internalType": "address",
              "name": "l1TxOrigin",
              "type": "address"
            },
            {
              "internalType": "address",
              "name": "entrypoint",
              "type": "address"
            },
            {
              "internalType": "uint256",
              "name": "gasLimit",
              "type": "uint256"
            },
            {
              "internalType": "bytes",
              "name": "data",
              "type": "bytes"
            }
          ],
          "internalType": "struct Lib_OVMCodec.Transaction",
          "name": "_transaction",
          "type": "tuple"
        },
        {
          "components": [
            {
              "internalType": "bool",
              "name": "isSequenced",
              "type": "bool"
            },
            {
              "internalType": "uint256",
              "name": "queueIndex",
              "type": "uint256"
            },
            {
              "internalType": "uint256",
              "name": "timestamp",
              "type": "uint256"
            },
            {
              "internalType": "uint256",
              "name": "blockNumber",
              "type": "uint256"
            },
            {
              "internalType": "bytes",
              "name": "txData",
              "type": "bytes"
            }
          ],
          "internalType": "struct Lib_OVMCodec.TransactionChainElement",
          "name": "_txChainElement",
          "type": "tuple"
        },
        {
          "components": [
            {
              "internalType": "uint256",
              "name": "batchIndex",
              "type": "uint256"
            },
            {
              "internalType": "bytes32",
              "name": "batchRoot",
              "type": "bytes32"
            },
            {
              "internalType": "uint256",
              "name": "batchSize",
              "type": "uint256"
            },
            {
              "internalType": "uint256",
              "name": "prevTotalElements",
              "type": "uint256"
            },
            {
              "internalType": "bytes",
              "name": "extraData",
              "type": "bytes"
            }
          ],
          "internalType": "struct Lib_OVMCodec.ChainBatchHeader",
          "name": "_batchHeader",
          "type": "tuple"
        },
        {
          "components": [
            {
              "internalType": "uint256",
              "name": "index",
              "type": "uint256"
            },
            {
              "internalType": "bytes32[]",
              "name": "siblings",
              "type": "bytes32[]"
            }
          ],
          "internalType": "struct Lib_OVMCodec.ChainInclusionProof",
          "name": "_inclusionProof",
          "type": "tuple"
        }
      ],
      "name": "verifyTransaction",
      "outputs": [
        {
          "internalType": "bool",
          "name": "",
          "type": "bool"
        }
      ],
      "stateMutability": "view",
      "type": "function"
    }
  ],
  "bytecode": "0x60806040523480156200001157600080fd5b506040516200315338038062003153833981016040819052620000349162000067565b600080546001600160a01b0319166001600160a01b039590951694909417909355600191909155600255600355620000b2565b600080600080608085870312156200007d578384fd5b84516001600160a01b038116811462000094578485fd5b60208601516040870151606090970151919890975090945092505050565b61309180620000c26000396000f3fe608060405234801561001057600080fd5b50600436106101425760003560e01c8063876ed5cb116100b8578063cfdf677e1161007c578063cfdf677e1461023f578063d0f8934414610247578063e10d29ee1461024f578063e561dddc14610257578063f722b41a1461025f578063facdc5da1461026757610142565b8063876ed5cb146102175780638d38c6c11461021f578063b8f7700514610227578063c139eb151461022f578063c2cf696f1461023757610142565b80634de569ce1161010a5780634de569ce146101c25780635ae6256d146101e25780636fee07e0146101ea57806378f4b2f2146101ff5780637a167a8a146102075780637aa63a861461020f57610142565b8063138387a414610147578063299ca478146101655780632a7f18be1461017a578063378997701461019a578063461a4478146101af575b600080fd5b61014f61027a565b60405161015c91906124c7565b60405180910390f35b61016d610280565b60405161015c91906123eb565b61018d610188366004612388565b61028f565b60405161015c9190612e4e565b6101a26102b0565b60405161015c9190612e8d565b61016d6101bd36600461221b565b6102c4565b6101d56101d0366004612261565b6103a0565b60405161015c9190612484565b6101a26103da565b6101fd6101f8366004612188565b6103ee565b005b61014f61066d565b6101a2610674565b61014f610689565b61014f6106a4565b61014f6106aa565b6101a26106b0565b61014f6106c7565b61014f6106cd565b61016d6106d2565b6101fd6106f5565b61016d610b69565b61014f610b8c565b6101a2610c06565b6101fd610275366004612388565b610c1e565b60025481565b6000546001600160a01b031681565b610297611ed9565b6102a8826102a3610b69565b610c36565b90505b919050565b6000806102bb610d76565b50935050505090565b6000805460405163bf40fac160e01b81526020600482018181528551602484015285516001600160a01b039094169363bf40fac19387938392604490920191908501908083838b5b8381101561032457818101518382015260200161030c565b50505050905090810190601f1680156103515780820380516001836020036101000a031916815260200191505b509250505060206040518083038186803b15801561036e57600080fd5b505afa158015610382573d6000803e3d6000fd5b505050506040513d602081101561039857600080fd5b505192915050565b82516000901515600114156103c2576103bb85858585610e24565b90506103d2565b6103bb8585602001518585610fef565b949350505050565b6000806103e5610d76565b94505050505090565b61c3508151111561041a5760405162461bcd60e51b81526004016104119061259b565b60405180910390fd5b60035482111561043c5760405162461bcd60e51b8152600401610411906127a1565b620186a082101561045f5760405162461bcd60e51b815260040161041190612983565b6020820460005a90508181116104875760405162461bcd60e51b815260040161041190612b8a565b60005b825a8303101561049c5760010161048a565b6000338787876040516020016104b594939291906123ff565b60408051601f19818403018152919052805160209091012090504360281b421760006104df610b69565b60405163b298e36b60e01b81529091506001600160a01b0382169063b298e36b9061050e9086906004016124c7565b600060405180830381600087803b15801561052857600080fd5b505af115801561053c573d6000803e3d6000fd5b505060405163b298e36b60e01b81526001600160a01b038416925063b298e36b915061056c9085906004016124c7565b600060405180830381600087803b15801561058657600080fd5b505af115801561059a573d6000803e3d6000fd5b50505050600060016002836001600160a01b0316631f7b6d326040518163ffffffff1660e01b815260040160206040518083038186803b1580156105dd57600080fd5b505afa1580156105f1573d6000803e3d6000fd5b505050506040513d601f19601f820116820180604052508101906106159190612203565b8161061c57fe5b040390507f4b388aecf9fa6cc92253704e5975a6129a4f735bdbd99567df4ed0094ee4ceb5338b8b8b85426040516106599695949392919061243c565b60405180910390a150505050505050505050565b620186a081565b60008061067f610d76565b5090935050505090565b600080610694610d76565b50505064ffffffffff1692915050565b61c35081565b60035481565b60006106c26106bd610b69565b6110c4565b905090565b60015481565b602081565b60006106c2604051806060016040528060258152602001613003602591396102c4565b60043560d81c60093560e890811c90600c35901c610711610689565b8364ffffffffff16146107365760405162461bcd60e51b815260040161041190612a35565b6107646040518060400160405280600d81526020016c27ab26afa9b2b8bab2b731b2b960991b8152506102c4565b6001600160a01b0316336001600160a01b0316146107945760405162461bcd60e51b815260040161041190612a92565b60008162ffffff16116107b95760405162461bcd60e51b8152600401610411906127fe565b60008262ffffff16116107de5760405162461bcd60e51b815260040161041190612cdf565b600f601062ffffff8316020164ffffffffff81163610156108115760405162461bcd60e51b815260040161041190612d66565b600061081b610b69565b90506000610828826110c4565b9050600062ffffff8616368161083a57fe5b0460020267ffffffffffffffff8111801561085457600080fd5b506040519080825280601f01601f19166020018201604052801561087f576020820181803683370190505b50905060008662ffffff1667ffffffffffffffff811180156108a057600080fd5b506040519080825280602002602001820160405280156108ca578160200160208202803683370190505b50905060008060006108da610674565b90506108e4611ef9565b60005b8a62ffffff168163ffffffff161015610a3b57600061090b8263ffffffff16611147565b905063ffffffff82166109215761092181611197565b61092d8382868d611264565b80925060005b835163ffffffff821610156109b1578b3560e81c61c3508111156109695760405162461bcd60e51b81526004016104119061259b565b61097c858e64ffffffffff16838d6112cf565b898963ffffffff168151811061098e57fe5b60209081029190910101529b909b016003019a6001968701969586019501610933565b5060005b83602001518163ffffffff161015610a31578964ffffffffff168564ffffffffff16106109f45760405162461bcd60e51b815260040161041190612da8565b610a048564ffffffffff16611363565b888863ffffffff1681518110610a1657fe5b602090810291909101015260019687019694850194016109b5565b50506001016108e7565b50610a488183898b6113a8565b3664ffffffffff8a1614610a6e5760405162461bcd60e51b815260040161041190612846565b8a62ffffff168463ffffffff1614610a985760405162461bcd60e51b815260040161041190612894565b6000838c62ffffff160363ffffffff169050600080836020015160001415610acb57505060408201516060830151610af3565b6000610ae16001870364ffffffffff168d610c36565b90508060200151925080604001519150505b610b14610aff8961141b565b8f62ffffff168564ffffffffff16858561184f565b7f602f1aeac0ca2e7a13e281a9ef0ad7838542712ce16780fa2ecffd351f05f89983860384610b41610689565b604051610b5093929190612e9f565b60405180910390a1505050505050505050505050505050565b60006106c2604051806060016040528060238152602001612ee6602391396102c4565b6000610b966106d2565b6001600160a01b0316631f7b6d326040518163ffffffff1660e01b815260040160206040518083038186803b158015610bce57600080fd5b505afa158015610be2573d6000803e3d6000fd5b505050506040513d601f19601f820116820180604052508101906106c29190612203565b6000610c10610674565b610c186106b0565b03905090565b60405162461bcd60e51b81526004016104119061250b565b610c3e611ed9565b604051634a83e9cd60e11b815260028402906000906001600160a01b03851690639507d39a90610c72908590600401612e8d565b60206040518083038186803b158015610c8a57600080fd5b505afa158015610c9e573d6000803e3d6000fd5b505050506040513d601f19601f82011682018060405250810190610cc29190612203565b90506000846001600160a01b0316639507d39a846001016040518263ffffffff1660e01b8152600401610cf59190612e8d565b60206040518083038186803b158015610d0d57600080fd5b505afa158015610d21573d6000803e3d6000fd5b505050506040513d601f19601f82011682018060405250810190610d459190612203565b6040805160608101825293845264ffffffffff828116602086015260289290921c9091169083015250949350505050565b6000806000806000610d866106d2565b6001600160a01b031663ccf8f9696040518163ffffffff1660e01b815260040160206040518083038186803b158015610dbe57600080fd5b505afa158015610dd2573d6000803e3d6000fd5b505050506040513d601f19601f82011682018060405250810190610df691906121dd565b64ffffffffff602882901c811697605083901c82169750607883901c8216965060a09290921c169350915050565b600080610e5c6040518060400160405280601481526020017327ab26afa2bc32b1baba34b7b726b0b730b3b2b960611b8152506102c4565b90506000816001600160a01b0316631c4712a76040518163ffffffff1660e01b815260040160206040518083038186803b158015610e9957600080fd5b505afa158015610ead573d6000803e3d6000fd5b505050506040513d601f19601f82011682018060405250810190610ed19190612203565b90506000610ede87611a02565b9050610eeb818787611a9b565b610f075760405162461bcd60e51b8152600401610411906126ca565b86606001518860200151148015610f22575060408701518851145b8015610f635750610f4a604051806060016040528060228152602001612f09602291396102c4565b6001600160a01b031688608001516001600160a01b0316145b8015610f725750818860a00151145b8015610f89575060608801516001600160a01b0316155b8015610fa45750600088604001516001811115610fa257fe5b145b8015610fc557508660800151805190602001208860c0015180519060200120145b610fe15760405162461bcd60e51b81526004016104119061276a565b506001979650505050505050565b600080610ffb85611363565b9050611008818585611a9b565b6110245760405162461bcd60e51b815260040161041190612c2a565b6000866060015187608001518860a001518960c0015160405160200161104d94939291906123ff565b60405160208183030381529060405280519060200120905060006110708761028f565b80519091508214801561108e57508751602082015164ffffffffff16145b80156110a857508760200151816040015164ffffffffff16145b610fe15760405162461bcd60e51b815260040161041190612adf565b60006002826001600160a01b0316631f7b6d326040518163ffffffff1660e01b815260040160206040518083038186803b15801561110157600080fd5b505afa158015611115573d6000803e3d6000fd5b505050506040513d601f19601f820116820180604052508101906111399190612203565b8161114057fe5b0492915050565b61114f611ef9565b5060408051608081018252601092909202600f81013560e890811c84526012820135901c6020840152601581013560d890811c92840192909252601a0135901c606082015290565b60006111a1610689565b1115611211576000806111b2610d76565b9350935050508064ffffffffff16836060015110156111e35760405162461bcd60e51b815260040161041190612718565b8164ffffffffff168360400151101561120e5760405162461bcd60e51b8152600401610411906125f8565b50505b4260015482604001510110156112395760405162461bcd60e51b815260040161041190612d20565b4360025482606001510110156112615760405162461bcd60e51b815260040161041190612552565b50565b83604001518360400151101561128c5760405162461bcd60e51b815260040161041190612bd5565b8360600151836060015110156112b45760405162461bcd60e51b815260040161041190612df1565b6020830151156112c9576112c9838383611b8c565b50505050565b60008151836041011115611326578260410167ffffffffffffffff811180156112f757600080fd5b506040519080825280601f01601f191660200182016040528015611322576020820181803683370190505b5091505b6040850151606086015160006020850160018153836001820152826021820152866003890160418301376041870190209350505050949350505050565b60006102a86040518060a00160405280600015158152602001848152602001600081526020016000815260200160405180602001604052806000815250815250611c2d565b600083830364ffffffffff161180156113c357506020840151155b156113d3576113d3848483611b8c565b42846040015111156113f75760405162461bcd60e51b815260040161041190612b45565b43846060015111156112c95760405162461bcd60e51b815260040161041190612904565b60008082511161145c5760405162461bcd60e51b81526004018080602001828103825260348152602001806130286034913960400191505060405180910390fd5b815160011415611482578160008151811061147357fe5b602002602001015190506102ab565b60408051610200810182527f290decd9548b62a8d60345a988386fc84ba6bc95484008f6362f93160ef3e56381527f633dc4d7da7256660a892f8f1604a44b5432649cc8ec5cb3ced4c4e6ac94dd1d60208201527f890740a8eb06ce9be422cb8da5cdafc2b58c0a5e24036c578de2a433c828ff7d818301527f3b8ec09e026fdc305365dfc94e189a81b38c7597b3d941c279f042e8206e0bd86060808301919091527fecd50eee38e386bd62be9bedb990706951b65fe053bd9d8a521af753d139e2da60808301527fdefff6d330bb5403f63b14f33b578274160de3a50df4efecf0e0db73bcdd3da560a08301527f617bdd11f7c0a11f49db22f629387a12da7596f9d1704d7465177c63d88ec7d760c08301527f292c23a9aa1d8bea7e2435e555a4a60e379a5a35f3f452bae60121073fb6eead60e08301527fe1cea92ed99acdcb045a6726b2f87107e8a61620a232cf4d7d5b5766b3952e106101008301527f7ad66c0a68c72cb89e4fb4303841966e4062a76ab97451e3b9fb526a5ceb7f826101208301527fe026cc5a4aed3c22a58cbd3d2ac754c9352c5436f638042dca99034e836365166101408301527f3d04cffd8b46a874edf5cfae63077de85f849a660426697b06a829c70dd1409c6101608301527fad676aa337a485e4728a0b240d92b3ef7b3c372d06d189322bfd5f61f1e7203e6101808301527fa2fca4a49658f9fab7aa63289c91b7c7b6c832a6d0e69334ff5b0a3483d09dab6101a08301527f4ebfd9cd7bca2505f7bef59cc1c12ecc708fff26ae4af19abe852afe9e20c8626101c08301527f2def10d13dd169f550f578bda343d9717a138562e0093b380a1120789d53cf106101e083015282518381529081018352909160009190602082018180368337505085519192506000918291508180805b600184111561182b5750506002820460018084161460005b828110156117a7578a816002028151811061174e57fe5b602002602001015196508a816002026001018151811061176a57fe5b6020026020010151955086602089015285604089015287805190602001208b828151811061179457fe5b6020908102919091010152600101611737565b50801561180a578960018503815181106117bd57fe5b602002602001015195508783601081106117d357fe5b602002015160001b945085602088015284604088015286805190602001208a83815181106117fd57fe5b6020026020010181815250505b80611816576000611819565b60015b60ff168201935060019092019161171f565b8960008151811061183857fe5b602002602001015198505050505050505050919050565b60006118596106d2565b9050600080611866610d76565b50509150915060006040518060a00160405280856001600160a01b0316631f7b6d326040518163ffffffff1660e01b815260040160206040518083038186803b1580156118b257600080fd5b505afa1580156118c6573d6000803e3d6000fd5b505050506040513d601f19601f820116820180604052508101906118ea9190612203565b81526020018a81526020018981526020018464ffffffffff16815260200160405180602001604052806000815250815250905080600001517f127186556e7be68c7e31263195225b4de02820707889540969f62c05cf73525e826020015183604001518460600151856080015160405161196794939291906124e6565b60405180910390a2600061197a82611c75565b90506000611992836040015186018a86018a8a611c9e565b60405163080549db60e21b81529091506001600160a01b03871690632015276c906119c390859085906004016124d0565b600060405180830381600087803b1580156119dd57600080fd5b505af11580156119f1573d6000803e3d6000fd5b505050505050505050505050505050565b6080810151805160009190826041820167ffffffffffffffff81118015611a2857600080fd5b506040519080825280601f01601f191660200182016040528015611a53576020820181803683370190505b5060408601516060870151919250906000602084016001815383600182015282602182015285604182018760208a0160045afa50604190950190942095505050505050919050565b6000611aa56106d2565b8351604051634a83e9cd60e11b81526001600160a01b039290921691639507d39a91611ad391600401612e7c565b60206040518083038186803b158015611aeb57600080fd5b505afa158015611aff573d6000803e3d6000fd5b505050506040513d601f19601f82011682018060405250810190611b239190612203565b611b2c84611c75565b14611b495760405162461bcd60e51b815260040161041190612b16565b611b66836020015185846000015185602001518760400151611cbd565b611b825760405162461bcd60e51b81526004016104119061294c565b5060019392505050565b6000611b9f8364ffffffffff1683610c36565b9050600154816020015164ffffffffff16014210611bcf5760405162461bcd60e51b815260040161041190612647565b806020015164ffffffffff1684604001511115611bfe5760405162461bcd60e51b8152600401610411906129cc565b806040015164ffffffffff16846060015111156112c95760405162461bcd60e51b815260040161041190612c74565b8051602080830151604080850151606086015160808701519251600096611c5896909594910161248f565b604051602081830303815290604052805190602001209050919050565b60008160200151826040015183606001518460800151604051602001611c5894939291906124e6565b602892831b9390931760509190911b1760789290921b91909117901b90565b6000808211611cfd5760405162461bcd60e51b8152600401808060200182810382526037815260200180612f7f6037913960400191505060405180910390fd5b818410611d3b5760405162461bcd60e51b8152600401808060200182810382526024815260200180612f2b6024913960400191505060405180910390fd5b611d4482611e42565b835114611d825760405162461bcd60e51b815260040180806020018281038252604d815260200180612fb6604d913960600191505060405180910390fd5b8460005b8451811015611e35578560011660011415611de457848181518110611da757fe5b6020026020010151826040516020018083815260200182815260200192505050604051602081830303815290604052805190602001209150611e29565b81858281518110611df157fe5b602002602001015160405160200180838152602001828152602001925050506040516020818303038152906040528051906020012091505b600195861c9501611d86565b5090951495945050505050565b6000808211611e825760405162461bcd60e51b8152600401808060200182810382526030815260200180612f4f6030913960400191505060405180910390fd5b8160011415611e93575060006102ab565b81600060805b60018110611ec3576000196001821b01811b831615611ebb5791821c91908101905b60011c611e99565b506001811b8414611ed2576001015b9392505050565b604080516060810182526000808252602082018190529181019190915290565b6040518060800160405280600081526020016000815260200160008152602001600081525090565b600067ffffffffffffffff831115611f3557fe5b611f48601f8401601f1916602001612ec1565b9050828152838383011115611f5c57600080fd5b828260208301376000602084830101529392505050565b80356001600160a01b03811681146102ab57600080fd5b600082601f830112611f9a578081fd5b611ed283833560208501611f21565b8035600281106102ab57600080fd5b600060a08284031215611fc9578081fd5b60405160a0810167ffffffffffffffff8282108183111715611fe757fe5b8160405282935084358352602085013560208401526040850135604084015260608501356060840152608085013591508082111561202457600080fd5b5061203185828601611f8a565b6080830152505092915050565b60006040828403121561204f578081fd5b6040516040810167ffffffffffffffff828210818311171561206d57fe5b816040528293508435835260209150818501358181111561208d57600080fd5b8501601f8101871361209e57600080fd5b8035828111156120aa57fe5b83810292506120ba848401612ec1565b8181528481019083860185850187018b10156120d557600080fd5b600095505b838610156120f85780358352600195909501949186019186016120da565b5080868801525050505050505092915050565b600060a0828403121561211c578081fd5b60405160a0810167ffffffffffffffff828210818311171561213a57fe5b8160405282935084359150811515821461215357600080fd5b818352602085013560208401526040850135604084015260608501356060840152608085013591508082111561202457600080fd5b60008060006060848603121561219c578283fd5b6121a584611f73565b925060208401359150604084013567ffffffffffffffff8111156121c7578182fd5b6121d386828701611f8a565b9150509250925092565b6000602082840312156121ee578081fd5b815164ffffffffff1981168114611ed2578182fd5b600060208284031215612214578081fd5b5051919050565b60006020828403121561222c578081fd5b813567ffffffffffffffff811115612242578182fd5b8201601f81018413612252578182fd5b6103d284823560208401611f21565b60008060008060808587031215612276578081fd5b843567ffffffffffffffff8082111561228d578283fd5b9086019060e082890312156122a0578283fd5b6122aa60e0612ec1565b82358152602083013560208201526122c460408401611fa9565b60408201526122d560608401611f73565b60608201526122e660808401611f73565b608082015260a083013560a082015260c083013582811115612306578485fd5b6123128a828601611f8a565b60c0830152509550602087013591508082111561232d578283fd5b6123398883890161210b565b9450604087013591508082111561234e578283fd5b61235a88838901611fb8565b9350606087013591508082111561236f578283fd5b5061237c8782880161203e565b91505092959194509250565b600060208284031215612399578081fd5b5035919050565b60008151808452815b818110156123c5576020818501810151868301820152016123a9565b818111156123d65782602083870101525b50601f01601f19169290920160200192915050565b6001600160a01b0391909116815260200190565b6001600160a01b0385811682528416602082015260408101839052608060608201819052600090612432908301846123a0565b9695505050505050565b6001600160a01b038781168252861660208201526040810185905260c06060820181905260009061246f908301866123a0565b60808301949094525060a00152949350505050565b901515815260200190565b6000861515825285602083015284604083015283606083015260a060808301526124bc60a08301846123a0565b979650505050505050565b90815260200190565b91825264ffffffffff1916602082015260400190565b60008582528460208301528360408301526080606083015261243260808301846123a0565b60208082526027908201527f617070656e64517565756542617463682069732063757272656e746c7920646960408201526639b0b13632b21760c91b606082015260800190565b60208082526029908201527f436f6e7465787420626c6f636b206e756d62657220746f6f2066617220696e206040820152683a3432903830b9ba1760b91b606082015260800190565b6020808252603d908201527f5472616e73616374696f6e20646174612073697a652065786365656473206d6160408201527f78696d756d20666f7220726f6c6c7570207472616e73616374696f6e2e000000606082015260800190565b6020808252602f908201527f436f6e746578742074696d657374616d70206973206c6f776572207468616e2060408201526e3630b9ba1039bab136b4ba3a32b21760891b606082015260800190565b6020808252605b908201527f50726576696f75736c7920656e7175657565642062617463686573206861766560408201527f206578706972656420616e64206d75737420626520617070656e64656420626560608201527f666f72652061206e65772073657175656e6365722062617463682e0000000000608082015260a00190565b6020808252602e908201527f496e76616c69642053657175656e636572207472616e73616374696f6e20696e60408201526d31b63ab9b4b7b710383937b7b31760911b606082015260800190565b60208082526032908201527f436f6e7465787420626c6f636b206e756d626572206973206c6f77657220746860408201527130b7103630b9ba1039bab136b4ba3a32b21760711b606082015260800190565b6020808252601e908201527f496e76616c69642053657175656e636572207472616e73616374696f6e2e0000604082015260600190565b6020808252603d908201527f5472616e73616374696f6e20676173206c696d69742065786365656473206d6160408201527f78696d756d20666f7220726f6c6c7570207472616e73616374696f6e2e000000606082015260800190565b60208082526028908201527f4d7573742070726f76696465206174206c65617374206f6e652062617463682060408201526731b7b73a32bc3a1760c11b606082015260800190565b6020808252602e908201527f4e6f7420616c6c2073657175656e636572207472616e73616374696f6e73207760408201526d32b93290383937b1b2b9b9b2b21760911b606082015260800190565b6020808252604a908201527f41637475616c207472616e73616374696f6e20696e64657820646f6573206e6f60408201527f74206d6174636820657870656374656420746f74616c20656c656d656e7473206060820152693a379030b83832b7321760b11b608082015260a00190565b60208082526028908201527f436f6e7465787420626c6f636b206e756d6265722069732066726f6d2074686560408201526710333aba3ab9329760c11b606082015260800190565b60208082526018908201527f496e76616c696420696e636c7573696f6e2070726f6f662e0000000000000000604082015260600190565b60208082526029908201527f5472616e73616374696f6e20676173206c696d697420746f6f206c6f7720746f6040820152681032b738bab2bab29760b91b606082015260800190565b60208082526043908201527f53657175656e636572207472616e73616374696f6e2074696d657374616d702060408201527f657863656564732074686174206f66206e65787420717565756520656c656d65606082015262373a1760e91b608082015260a00190565b6020808252603d908201527f41637475616c20626174636820737461727420696e64657820646f6573206e6f60408201527f74206d6174636820657870656374656420737461727420696e6465782e000000606082015260800190565b6020808252602d908201527f46756e6374696f6e2063616e206f6e6c792062652063616c6c6564206279207460408201526c34329029b2b8bab2b731b2b91760991b606082015260800190565b6020808252601a908201527f496e76616c6964205175657565207472616e73616374696f6e2e000000000000604082015260600190565b60208082526015908201527424b73b30b634b2103130ba31b4103432b0b232b91760591b604082015260600190565b60208082526025908201527f436f6e746578742074696d657374616d702069732066726f6d207468652066756040820152643a3ab9329760d91b606082015260800190565b6020808252602b908201527f496e73756666696369656e742067617320666f72204c322072617465206c696d60408201526a34ba34b73390313ab9371760a91b606082015260800190565b60208082526035908201527f436f6e746578742074696d657374616d702076616c756573206d757374206d6f6040820152743737ba37b734b1b0b6363c9034b731b932b0b9b29760591b606082015260800190565b6020808252602a908201527f496e76616c6964205175657565207472616e73616374696f6e20696e636c757360408201526934b7b710383937b7b31760b11b606082015260800190565b60208082526045908201527f53657175656e636572207472616e73616374696f6e20626c6f636b4e756d626560408201527f7220657863656564732074686174206f66206e65787420717565756520656c6560608201526436b2b73a1760d91b608082015260a00190565b60208082526021908201527f4d75737420617070656e64206174206c65617374206f6e6520656c656d656e746040820152601760f91b606082015260800190565b60208082526026908201527f436f6e746578742074696d657374616d7020746f6f2066617220696e20746865604082015265103830b9ba1760d11b606082015260800190565b60208082526022908201527f4e6f7420656e6f756768204261746368436f6e74657874732070726f76696465604082015261321760f11b606082015260800190565b60208082526029908201527f4e6f7420656e6f75676820717565756564207472616e73616374696f6e732074604082015268379030b83832b7321760b91b606082015260800190565b60208082526037908201527f436f6e7465787420626c6f636b4e756d6265722076616c756573206d7573742060408201527f6d6f6e6f746f6e6963616c6c7920696e6372656173652e000000000000000000606082015260800190565b8151815260208083015164ffffffffff90811691830191909152604092830151169181019190915260600190565b63ffffffff91909116815260200190565b64ffffffffff91909116815260200190565b64ffffffffff9384168152919092166020820152604081019190915260600190565b60405181810167ffffffffffffffff81118282101715612edd57fe5b60405291905056fe4f564d5f436861696e53746f72616765436f6e7461696e65723a4354433a71756575654f564d5f4465636f6d7072657373696f6e507265636f6d70696c65416464726573734c69625f4d65726b6c65547265653a20496e646578206f7574206f6620626f756e64732e4c69625f4d65726b6c65547265653a2043616e6e6f7420636f6d70757465206365696c286c6f675f3229206f6620302e4c69625f4d65726b6c65547265653a20546f74616c206c6561766573206d7573742062652067726561746572207468616e207a65726f2e4c69625f4d65726b6c65547265653a20546f74616c207369626c696e677320646f6573206e6f7420636f72726563746c7920636f72726573706f6e6420746f20746f74616c206c65617665732e4f564d5f436861696e53746f72616765436f6e7461696e65723a4354433a626174636865734c69625f4d65726b6c65547265653a204d7573742070726f76696465206174206c65617374206f6e65206c65616620686173682ea264697066735822122075b5ec7ba54a945537aaed2f240b09b715442bb19a8b3d9213a72583274e5c4b64736f6c63430007060033",
  "linkReferences": {},
  "deployedLinkReferences": {}
}