{
  "abi": [
    {
      "inputs": [
        {
          "internalType": "address",
          "name": "_admin",
          "type": "address"
        }
      ],
      "stateMutability": "nonpayable",
      "type": "constructor"
    },
    {
      "anonymous": false,
      "inputs": [
        {
          "indexed": true,
          "internalType": "string",
          "name": "authModule",
          "type": "string"
        },
        {
          "indexed": true,
          "internalType": "bytes32",
          "name": "userId",
          "type": "bytes32"
        },
        {
          "indexed": false,
          "internalType": "uint256",
          "name": "amount",
          "type": "uint256"
        },
        {
          "indexed": true,
          "internalType": "address",
          "name": "recipient",
          "type": "address"
        }
      ],
      "name": "Drip",
      "type": "event"
    },
    {
      "inputs": [],
      "name": "ADMIN",
      "outputs": [
        {
          "internalType": "address",
          "name": "",
          "type": "address"
        }
      ],
      "stateMutability": "view",
      "type": "function"
    },
    {
      "inputs": [
        {
          "internalType": "contract IFaucetAuthModule",
          "name": "_module",
          "type": "address"
        },
        {
          "components": [
            {
              "internalType": "string",
              "name": "name",
              "type": "string"
            },
            {
              "internalType": "bool",
              "name": "enabled",
              "type": "bool"
            },
            {
              "internalType": "uint256",
              "name": "ttl",
              "type": "uint256"
            },
            {
              "internalType": "uint256",
              "name": "amount",
              "type": "uint256"
            }
          ],
          "internalType": "struct Faucet.ModuleConfig",
          "name": "_config",
          "type": "tuple"
        }
      ],
      "name": "configure",
      "outputs": [],
      "stateMutability": "nonpayable",
      "type": "function"
    },
    {
      "inputs": [
        {
          "components": [
            {
              "internalType": "address payable",
              "name": "recipient",
              "type": "address"
            },
            {
              "internalType": "bytes32",
              "name": "nonce",
              "type": "bytes32"
            }
          ],
          "internalType": "struct Faucet.DripParameters",
          "name": "_params",
          "type": "tuple"
        },
        {
          "components": [
            {
              "internalType": "contract IFaucetAuthModule",
              "name": "module",
              "type": "address"
            },
            {
              "internalType": "bytes32",
              "name": "id",
              "type": "bytes32"
            },
            {
              "internalType": "bytes",
              "name": "proof",
              "type": "bytes"
            }
          ],
          "internalType": "struct Faucet.AuthParameters",
          "name": "_auth",
          "type": "tuple"
        }
      ],
      "name": "drip",
      "outputs": [],
      "stateMutability": "nonpayable",
      "type": "function"
    },
    {
      "inputs": [
        {
          "internalType": "contract IFaucetAuthModule",
          "name": "",
          "type": "address"
        }
      ],
      "name": "modules",
      "outputs": [
        {
          "internalType": "string",
          "name": "name",
          "type": "string"
        },
        {
          "internalType": "bool",
          "name": "enabled",
          "type": "bool"
        },
        {
          "internalType": "uint256",
          "name": "ttl",
          "type": "uint256"
        },
        {
          "internalType": "uint256",
          "name": "amount",
          "type": "uint256"
        }
      ],
      "stateMutability": "view",
      "type": "function"
    },
    {
      "inputs": [
        {
          "internalType": "bytes32",
          "name": "",
          "type": "bytes32"
        },
        {
          "internalType": "bytes32",
          "name": "",
          "type": "bytes32"
        }
      ],
      "name": "nonces",
      "outputs": [
        {
          "internalType": "bool",
          "name": "",
          "type": "bool"
        }
      ],
      "stateMutability": "view",
      "type": "function"
    },
    {
      "inputs": [
        {
          "internalType": "contract IFaucetAuthModule",
          "name": "",
          "type": "address"
        },
        {
          "internalType": "bytes32",
          "name": "",
          "type": "bytes32"
        }
      ],
      "name": "timeouts",
      "outputs": [
        {
          "internalType": "uint256",
          "name": "",
          "type": "uint256"
        }
      ],
      "stateMutability": "view",
      "type": "function"
    },
    {
      "inputs": [
        {
          "internalType": "address payable",
          "name": "_recipient",
          "type": "address"
        },
        {
          "internalType": "uint256",
          "name": "_amount",
          "type": "uint256"
        }
      ],
      "name": "withdraw",
      "outputs": [],
      "stateMutability": "nonpayable",
      "type": "function"
    },
    {
      "stateMutability": "payable",
      "type": "receive"
    }
  ],
  "bytecode": {
    "object": "0x60a060405234801561001057600080fd5b50604051610f2f380380610f2f83398101604081905261002f91610040565b6001600160a01b0316608052610070565b60006020828403121561005257600080fd5b81516001600160a01b038116811461006957600080fd5b9392505050565b608051610e9661009960003960008181610104015281816101ff01526107c20152610e966000f3fe6080604052600436106100745760003560e01c806338757bfd1161004e57806338757bfd1461013e578063a8ee49fe14610184578063b960bc2b146101b4578063f3fef3a3146101d457600080fd5b80631cb81b88146100805780631d5d26bc146100a25780632a0acc6a146100f257600080fd5b3661007b57005b600080fd5b34801561008c57600080fd5b506100a061009b36600461096d565b6101f4565b005b3480156100ae57600080fd5b506100dd6100bd366004610a2e565b600260209081526000928352604080842090915290825290205460ff1681565b60405190151581526020015b60405180910390f35b3480156100fe57600080fd5b506101267f000000000000000000000000000000000000000000000000000000000000000081565b6040516001600160a01b0390911681526020016100e9565b34801561014a57600080fd5b50610176610159366004610a50565b600160209081526000928352604080842090915290825290205481565b6040519081526020016100e9565b34801561019057600080fd5b506101a461019f366004610a7c565b6102a1565b6040516100e99493929190610af8565b3480156101c057600080fd5b506100a06101cf366004610b27565b610357565b3480156101e057600080fd5b506100a06101ef366004610a50565b6107b7565b336001600160a01b037f000000000000000000000000000000000000000000000000000000000000000016146102455760405162461bcd60e51b815260040161023c90610c01565b60405180910390fd5b6001600160a01b03821660009081526020819052604090208151829190819061026e9082610cd6565b50602082015160018201805460ff1916911515919091179055604082015160028201556060909101516003909101555050565b6000602081905290815260409020805481906102bc90610c4d565b80601f01602080910402602001604051908101604052809291908181526020018280546102e890610c4d565b80156103355780601f1061030a57610100808354040283529160200191610335565b820191906000526020600020905b81548152906001019060200180831161031857829003601f168201915b5050505060018301546002840154600390940154929360ff9091169290915084565b80516001600160a01b031660009081526020819052604080822081516080810190925280548290829061038990610c4d565b80601f01602080910402602001604051908101604052809291908181526020018280546103b590610c4d565b80156104025780601f106103d757610100808354040283529160200191610402565b820191906000526020600020905b8154815290600101906020018083116103e557829003601f168201915b5050509183525050600182015460ff161515602080830191909152600283015460408301526003909201546060909101528101519091506104ab5760405162461bcd60e51b815260206004820152603c60248201527f4661756365743a2070726f76696465642061757468206d6f64756c652069732060448201527f6e6f7420737570706f7274656420627920746869732066617563657400000000606482015260840161023c565b6020808301516000908152600282526040808220868401518352909252205460ff16156105265760405162461bcd60e51b815260206004820152602360248201527f4661756365743a206e6f6e63652068617320616c7265616479206265656e20756044820152621cd95960ea1b606482015260840161023c565b81516001600160a01b0316600090815260016020908152604080832082860151845290915290205442116105c25760405162461bcd60e51b815260206004820152603f60248201527f4661756365743a20617574682063616e6e6f742062652075736564207965742060448201527f626563617573652074696d656f757420686173206e6f7420656c617073656400606482015260840161023c565b815160208301516040808501519051637aa18ffd60e11b81526001600160a01b039093169263f5431ffa926105fb928892600401610d96565b602060405180830381865afa158015610618573d6000803e3d6000fd5b505050506040513d601f19601f8201168201806040525081019061063c9190610dd1565b6106b0576040805162461bcd60e51b81526020600482015260248101919091527f4661756365743a206472697020706172616d657465727320636f756c64206e6f60448201527f74206265207665726966696564206279207365637572697479206d6f64756c65606482015260840161023c565b60408101516106bf9042610dee565b82516001600160a01b0316600090815260016020818152604080842082880180518652908352818520959095559351835260028152838320878201518452905290829020805460ff1916909117905560608201518451915190919061072390610840565b6001600160a01b0390911681526020016040518091039082f0905080158015610750573d6000803e3d6000fd5b50508251602083015182516040516001600160a01b03909316926107749190610e14565b60405190819003812060608501518252907f2cebdf1cc706a50e1b28bf2fc5cfbd7204747a3b82439b85721a474df3a355a49060200160405180910390a4505050565b336001600160a01b037f000000000000000000000000000000000000000000000000000000000000000016146107ff5760405162461bcd60e51b815260040161023c90610c01565b808260405161080d90610840565b6001600160a01b0390911681526020016040518091039082f090508015801561083a573d6000803e3d6000fd5b50505050565b605980610e3183390190565b6001600160a01b038116811461086157600080fd5b50565b634e487b7160e01b600052604160045260246000fd5b6040516080810167ffffffffffffffff8111828210171561089d5761089d610864565b60405290565b6040805190810167ffffffffffffffff8111828210171561089d5761089d610864565b6040516060810167ffffffffffffffff8111828210171561089d5761089d610864565b600067ffffffffffffffff8084111561090457610904610864565b604051601f8501601f19908116603f0116810190828211818310171561092c5761092c610864565b8160405280935085815286868601111561094557600080fd5b858560208301376000602087830101525050509392505050565b801515811461086157600080fd5b6000806040838503121561098057600080fd5b823561098b8161084c565b9150602083013567ffffffffffffffff808211156109a857600080fd5b90840190608082870312156109bc57600080fd5b6109c461087a565b8235828111156109d357600080fd5b83019150601f820187136109e657600080fd5b6109f5878335602085016108e9565b815260208301359150610a078261095f565b81602082015260408301356040820152606083013560608201528093505050509250929050565b60008060408385031215610a4157600080fd5b50508035926020909101359150565b60008060408385031215610a6357600080fd5b8235610a6e8161084c565b946020939093013593505050565b600060208284031215610a8e57600080fd5b8135610a998161084c565b9392505050565b60005b83811015610abb578181015183820152602001610aa3565b8381111561083a5750506000910152565b60008151808452610ae4816020860160208601610aa0565b601f01601f19169290920160200192915050565b608081526000610b0b6080830187610acc565b9415156020830152506040810192909252606090910152919050565b6000808284036060811215610b3b57600080fd5b6040811215610b4957600080fd5b50610b526108a3565b8335610b5d8161084c565b8152602084810135908201529150604083013567ffffffffffffffff80821115610b8657600080fd5b9084019060608287031215610b9a57600080fd5b610ba26108c6565b8235610bad8161084c565b815260208381013590820152604083013582811115610bcb57600080fd5b80840193505086601f840112610be057600080fd5b610bef878435602086016108e9565b60408201528093505050509250929050565b6020808252602c908201527f4661756365743a2066756e6374696f6e2063616e206f6e6c792062652063616c60408201526b3632b210313c9030b236b4b760a11b606082015260800190565b600181811c90821680610c6157607f821691505b602082108103610c8157634e487b7160e01b600052602260045260246000fd5b50919050565b601f821115610cd157600081815260208120601f850160051c81016020861015610cae5750805b601f850160051c820191505b81811015610ccd57828155600101610cba565b5050505b505050565b815167ffffffffffffffff811115610cf057610cf0610864565b610d0481610cfe8454610c4d565b84610c87565b602080601f831160018114610d395760008415610d215750858301515b600019600386901b1c1916600185901b178555610ccd565b600085815260208120601f198616915b82811015610d6857888601518255948401946001909101908401610d49565b5085821015610d865787850151600019600388901b60f8161c191681555b5050505050600190811b01905550565b60018060a01b03845116815260208401516020820152826040820152608060608201526000610dc86080830184610acc565b95945050505050565b600060208284031215610de357600080fd5b8151610a998161095f565b60008219821115610e0f57634e487b7160e01b600052601160045260246000fd5b500190565b60008251610e26818460208701610aa0565b919091019291505056fe608060405260405160593803806059833981016040819052601e91602a565b806001600160a01b0316ff5b600060208284031215603b57600080fd5b81516001600160a01b0381168114605157600080fd5b939250505056fea164736f6c634300080f000a",
    "linkReferences": {}
  },
  "methodIdentifiers": {
    "ADMIN()": "2a0acc6a",
    "configure(address,(string,bool,uint256,uint256))": "1cb81b88",
    "drip((address,bytes32),(address,bytes32,bytes))": "b960bc2b",
    "modules(address)": "a8ee49fe",
    "nonces(bytes32,bytes32)": "1d5d26bc",
    "timeouts(address,bytes32)": "38757bfd",
    "withdraw(address,uint256)": "f3fef3a3"
  },
  "id": 49
}