{
  "_format": "hh-sol-artifact-1",
  "contractName": "Lib_AddressManager",
  "sourceName": "contracts/optimistic-ethereum/libraries/resolver/Lib_AddressManager.sol",
  "abi": [
    {
      "anonymous": false,
      "inputs": [
        {
          "indexed": false,
          "internalType": "string",
          "name": "_name",
          "type": "string"
        },
        {
          "indexed": false,
          "internalType": "address",
          "name": "_newAddress",
          "type": "address"
        }
      ],
      "name": "AddressSet",
      "type": "event"
    },
    {
      "anonymous": false,
      "inputs": [
        {
          "indexed": true,
          "internalType": "address",
          "name": "previousOwner",
          "type": "address"
        },
        {
          "indexed": true,
          "internalType": "address",
          "name": "newOwner",
          "type": "address"
        }
      ],
      "name": "OwnershipTransferred",
      "type": "event"
    },
    {
      "inputs": [
        {
          "internalType": "string",
          "name": "_name",
          "type": "string"
        }
      ],
      "name": "getAddress",
      "outputs": [
        {
          "internalType": "address",
          "name": "",
          "type": "address"
        }
      ],
      "stateMutability": "view",
      "type": "function"
    },
    {
      "inputs": [],
      "name": "owner",
      "outputs": [
        {
          "internalType": "address",
          "name": "",
          "type": "address"
        }
      ],
      "stateMutability": "view",
      "type": "function"
    },
    {
      "inputs": [],
      "name": "renounceOwnership",
      "outputs": [],
      "stateMutability": "nonpayable",
      "type": "function"
    },
    {
      "inputs": [
        {
          "internalType": "string",
          "name": "_name",
          "type": "string"
        },
        {
          "internalType": "address",
          "name": "_address",
          "type": "address"
        }
      ],
      "name": "setAddress",
      "outputs": [],
      "stateMutability": "nonpayable",
      "type": "function"
    },
    {
      "inputs": [
        {
          "internalType": "address",
          "name": "newOwner",
          "type": "address"
        }
      ],
      "name": "transferOwnership",
      "outputs": [],
      "stateMutability": "nonpayable",
      "type": "function"
    }
  ],
  "bytecode": "0x6080604052348015610019576000806100166100a7565b50505b506000610024610097565b9050806000600181610034610112565b816001600160a01b0302191690836001600160a01b0316021790610056610172565b5050506001600160a01b03811660007f8be0079c531659141344cd1fd0a4f28419497f9722a3daafe3b4186f6b6457e060405160405180910390a350610206565b60005a6100a26101c0565b905090565b632a2a7adb598160e01b8152600481016020815285602082015260005b868110156100df5780860151828201604001526020016100c4565b506020828760640184336000905af158600e01573d6000803e3d6000fd5b3d6001141558600a015760016000f35b505050565b6303daa959598160e01b8152836004820152602081602483336000905af158600e01573d6000803e3d6000fd5b3d6001141558600a015760016000f35b8051935060005b604081101561016d57600082820152602001610156565b505050565b6322bd64c0598160e01b8152836004820152846024820152600081604483336000905af158600e01573d6000803e3d6000fd5b3d6001141558600a015760016000f35b600081526020610156565b6373509064598160e01b8152602081600483336000905af158600e01573d6000803e3d6000fd5b3d6001141558600a015760016000f35b80516000825293506020610156565b61089f806102156000396000f3fe60806040523480156100195760008061001661071e565b50505b50600436106100605760003560e01c8063715018a61461006e5780638da5cb5b146100785780639b2ea4bd1461009c578063bf40fac114610170578063f2fde38b14610239575b60008061006b61071e565b50505b610076610268565b005b61008061036a565b6040516001600160a01b03909116815260200160405180910390f35b610076600480360360408110156100bb576000806100b861071e565b50505b8101906020810181356401000000008111156100df576000806100dc61071e565b50505b8201836020820111156100fa576000806100f761071e565b50505b803590602001918460018302840111640100000000831117156101255760008061012261071e565b50505b91908080601f0160208091040260200160405190810160405281815292919060208401838380828437600092019190915250929550505090356001600160a01b0316915061038b9050565b6100806004803603602081101561018f5760008061018c61071e565b50505b8101906020810181356401000000008111156101b3576000806101b061071e565b50505b8201836020820111156101ce576000806101cb61071e565b50505b803590602001918460018302840111640100000000831117156101f9576000806101f661071e565b50505b91908080601f0160208091040260200160405190810160405281815292919060208401838380828437600092019190915250929550610500945050505050565b610076600480360360208110156102585760008061025561071e565b50505b50356001600160a01b031661053f565b610270610699565b6001600160a01b031661028161036a565b6001600160a01b0316146102e45760405162461bcd60e51b815260206004820181905260248201527f4f776e61626c653a2063616c6c6572206973206e6f7420746865206f776e65726044820152606401604051809103906102e161071e565b50505b600080806102f0610789565b906101000a90046001600160a01b03166001600160a01b03167f8be0079c531659141344cd1fd0a4f28419497f9722a3daafe3b4186f6b6457e060405160405180910390a3600080600181610343610789565b816001600160a01b0302191690836001600160a01b03160217906103656107e4565b505050565b60008080610376610789565b906101000a90046001600160a01b0316905090565b610393610699565b6001600160a01b03166103a461036a565b6001600160a01b0316146104075760405162461bcd60e51b815260206004820181905260248201527f4f776e61626c653a2063616c6c6572206973206e6f7420746865206f776e657260448201526064016040518091039061040461071e565b50505b8060016000610415856106a9565b815260200190815260200160002060018161042e610789565b816001600160a01b0302191690836001600160a01b03160217906104506107e4565b5050507f188466739ff00cc68bfb2367d23ae4b855264264fe1624caa8884399af23454c82826040516001600160a01b038216602082015260408082528190810184818151815260200191508051906020019080838360005b838110156104c15780820151838201526020016104a9565b50505050905090810190601f1680156104ee5780820380516001836020036101000a031916815260200191505b50935050505060405180910390a15050565b60006001600061050f846106a9565b8152602001908152602001600020600090610528610789565b906101000a90046001600160a01b03169050919050565b610547610699565b6001600160a01b031661055861036a565b6001600160a01b0316146105bb5760405162461bcd60e51b815260206004820181905260248201527f4f776e61626c653a2063616c6c6572206973206e6f7420746865206f776e65726044820152606401604051809103906105b861071e565b50505b6001600160a01b0381166106095760405162461bcd60e51b8152600401808060200182810382526026815260200180610879602691396040019150506040518091039061060661071e565b50505b806001600160a01b031660008061061e610789565b906101000a90046001600160a01b03166001600160a01b03167f8be0079c531659141344cd1fd0a4f28419497f9722a3daafe3b4186f6b6457e060405160405180910390a3806000600181610671610789565b816001600160a01b0302191690836001600160a01b03160217906106936107e4565b50505050565b60005a6106a4610832565b905090565b6000816040516020018082805190602001908083835b602083106106de5780518252601f1990920191602091820191016106bf565b6001836020036101000a03801982511681845116179092525050509190910192506040915050516020818303038152906040528051906020012092915050565b632a2a7adb598160e01b8152600481016020815285602082015260005b8681101561075657808601518282016040015260200161073b565b506020828760640184336000905af158600e01573d6000803e3d6000fd5b3d6001141558600a015760016000f35b505050565b6303daa959598160e01b8152836004820152602081602483336000905af158600e01573d6000803e3d6000fd5b3d6001141558600a015760016000f35b8051935060005b6040811015610365576000828201526020016107cd565b6322bd64c0598160e01b8152836004820152846024820152600081604483336000905af158600e01573d6000803e3d6000fd5b3d6001141558600a015760016000f35b6000815260206107cd565b6373509064598160e01b8152602081600483336000905af158600e01573d6000803e3d6000fd5b3d6001141558600a015760016000f35b805160008252935060206107cd56fe4f776e61626c653a206e6577206f776e657220697320746865207a65726f2061646472657373",
  "linkReferences": {},
  "deployedLinkReferences": {}
}