{
  "address": "0x7c2d4c855141f06700a4a5EE49FC7D77758ECa43",
  "abi": [
    {
      "inputs": [
        {
          "internalType": "address",
          "name": "_messenger",
          "type": "address"
        },
        {
          "internalType": "address",
          "name": "_otherBridge",
          "type": "address"
        }
      ],
      "stateMutability": "nonpayable",
      "type": "constructor"
    },
    {
      "anonymous": false,
      "inputs": [
        {
          "indexed": true,
          "internalType": "address",
          "name": "localToken",
          "type": "address"
        },
        {
          "indexed": true,
          "internalType": "address",
          "name": "remoteToken",
          "type": "address"
        },
        {
          "indexed": true,
          "internalType": "address",
          "name": "from",
          "type": "address"
        },
        {
          "indexed": false,
          "internalType": "address",
          "name": "to",
          "type": "address"
        },
        {
          "indexed": false,
          "internalType": "uint256",
          "name": "tokenId",
          "type": "uint256"
        },
        {
          "indexed": false,
          "internalType": "bytes",
          "name": "extraData",
          "type": "bytes"
        }
      ],
      "name": "ERC721BridgeFinalized",
      "type": "event"
    },
    {
      "anonymous": false,
      "inputs": [
        {
          "indexed": true,
          "internalType": "address",
          "name": "localToken",
          "type": "address"
        },
        {
          "indexed": true,
          "internalType": "address",
          "name": "remoteToken",
          "type": "address"
        },
        {
          "indexed": true,
          "internalType": "address",
          "name": "from",
          "type": "address"
        },
        {
          "indexed": false,
          "internalType": "address",
          "name": "to",
          "type": "address"
        },
        {
          "indexed": false,
          "internalType": "uint256",
          "name": "tokenId",
          "type": "uint256"
        },
        {
          "indexed": false,
          "internalType": "bytes",
          "name": "extraData",
          "type": "bytes"
        }
      ],
      "name": "ERC721BridgeInitiated",
      "type": "event"
    },
    {
      "anonymous": false,
      "inputs": [
        {
          "indexed": false,
          "internalType": "uint8",
          "name": "version",
          "type": "uint8"
        }
      ],
      "name": "Initialized",
      "type": "event"
    },
    {
      "anonymous": false,
      "inputs": [
        {
          "indexed": true,
          "internalType": "address",
          "name": "previousOwner",
          "type": "address"
        },
        {
          "indexed": true,
          "internalType": "address",
          "name": "newOwner",
          "type": "address"
        }
      ],
      "name": "OwnershipTransferred",
      "type": "event"
    },
    {
      "inputs": [],
      "name": "MAJOR_VERSION",
      "outputs": [
        {
          "internalType": "uint256",
          "name": "",
          "type": "uint256"
        }
      ],
      "stateMutability": "view",
      "type": "function"
    },
    {
      "inputs": [],
      "name": "MINOR_VERSION",
      "outputs": [
        {
          "internalType": "uint256",
          "name": "",
          "type": "uint256"
        }
      ],
      "stateMutability": "view",
      "type": "function"
    },
    {
      "inputs": [],
      "name": "PATCH_VERSION",
      "outputs": [
        {
          "internalType": "uint256",
          "name": "",
          "type": "uint256"
        }
      ],
      "stateMutability": "view",
      "type": "function"
    },
    {
      "inputs": [
        {
          "internalType": "address",
          "name": "_localToken",
          "type": "address"
        },
        {
          "internalType": "address",
          "name": "_remoteToken",
          "type": "address"
        },
        {
          "internalType": "uint256",
          "name": "_tokenId",
          "type": "uint256"
        },
        {
          "internalType": "uint32",
          "name": "_minGasLimit",
          "type": "uint32"
        },
        {
          "internalType": "bytes",
          "name": "_extraData",
          "type": "bytes"
        }
      ],
      "name": "bridgeERC721",
      "outputs": [],
      "stateMutability": "nonpayable",
      "type": "function"
    },
    {
      "inputs": [
        {
          "internalType": "address",
          "name": "_localToken",
          "type": "address"
        },
        {
          "internalType": "address",
          "name": "_remoteToken",
          "type": "address"
        },
        {
          "internalType": "address",
          "name": "_to",
          "type": "address"
        },
        {
          "internalType": "uint256",
          "name": "_tokenId",
          "type": "uint256"
        },
        {
          "internalType": "uint32",
          "name": "_minGasLimit",
          "type": "uint32"
        },
        {
          "internalType": "bytes",
          "name": "_extraData",
          "type": "bytes"
        }
      ],
      "name": "bridgeERC721To",
      "outputs": [],
      "stateMutability": "nonpayable",
      "type": "function"
    },
    {
      "inputs": [
        {
          "internalType": "address",
          "name": "",
          "type": "address"
        },
        {
          "internalType": "address",
          "name": "",
          "type": "address"
        },
        {
          "internalType": "uint256",
          "name": "",
          "type": "uint256"
        }
      ],
      "name": "deposits",
      "outputs": [
        {
          "internalType": "bool",
          "name": "",
          "type": "bool"
        }
      ],
      "stateMutability": "view",
      "type": "function"
    },
    {
      "inputs": [
        {
          "internalType": "address",
          "name": "_localToken",
          "type": "address"
        },
        {
          "internalType": "address",
          "name": "_remoteToken",
          "type": "address"
        },
        {
          "internalType": "address",
          "name": "_from",
          "type": "address"
        },
        {
          "internalType": "address",
          "name": "_to",
          "type": "address"
        },
        {
          "internalType": "uint256",
          "name": "_tokenId",
          "type": "uint256"
        },
        {
          "internalType": "bytes",
          "name": "_extraData",
          "type": "bytes"
        }
      ],
      "name": "finalizeBridgeERC721",
      "outputs": [],
      "stateMutability": "nonpayable",
      "type": "function"
    },
    {
      "inputs": [
        {
          "internalType": "address",
          "name": "_messenger",
          "type": "address"
        },
        {
          "internalType": "address",
          "name": "_otherBridge",
          "type": "address"
        }
      ],
      "name": "initialize",
      "outputs": [],
      "stateMutability": "nonpayable",
      "type": "function"
    },
    {
      "inputs": [],
      "name": "messenger",
      "outputs": [
        {
          "internalType": "address",
          "name": "",
          "type": "address"
        }
      ],
      "stateMutability": "view",
      "type": "function"
    },
    {
      "inputs": [],
      "name": "otherBridge",
      "outputs": [
        {
          "internalType": "address",
          "name": "",
          "type": "address"
        }
      ],
      "stateMutability": "view",
      "type": "function"
    },
    {
      "inputs": [],
      "name": "owner",
      "outputs": [
        {
          "internalType": "address",
          "name": "",
          "type": "address"
        }
      ],
      "stateMutability": "view",
      "type": "function"
    },
    {
      "inputs": [],
      "name": "renounceOwnership",
      "outputs": [],
      "stateMutability": "nonpayable",
      "type": "function"
    },
    {
      "inputs": [
        {
          "internalType": "address",
          "name": "newOwner",
          "type": "address"
        }
      ],
      "name": "transferOwnership",
      "outputs": [],
      "stateMutability": "nonpayable",
      "type": "function"
    }
  ],
  "transactionHash": "0x4dbc72e324d8986993923efa70597dd1a7bea0674e8bf3b52e09b88a7be198ea",
  "args": [
    "0x0000000000000000000000000000000000000000",
    "0x0000000000000000000000000000000000000000"
  ],
  "numDeployments": 2,
  "solcInputHash": "c6fd6c61d1988656e270189e3651a1e1",
  "bytecode": "0x60e06040523480156200001157600080fd5b50604051620019ee380380620019ee83398101604081905262000034916200038a565b6000608081905260a0819052600160c05280546001600160a01b03191690556200005f828262000067565b5050620003c2565b60006200007560016200011a565b9050801562000092576000805460ff60a81b1916600160a81b1790555b600080546001600160a01b038086166001600160a01b0319928316179092556065805492851692909116919091179055620000cc62000244565b801562000115576000805460ff60a81b19169055604051600181527f7f26b83ff96e1f2b6a682f133852f6798a09c465da95921460cefb38474024989060200160405180910390a15b505050565b60008054600160a81b900460ff1615620001b5578160ff1660011480156200015557506200015330620002ae60201b62000ab31760201c565b155b620001ad5760405162461bcd60e51b815260206004820152602e6024820152600080516020620019ae83398151915260448201526d191e481a5b9a5d1a585b1a5e995960921b60648201526084015b60405180910390fd5b506000919050565b60005460ff808416600160a01b90920416106200021b5760405162461bcd60e51b815260206004820152602e6024820152600080516020620019ae83398151915260448201526d191e481a5b9a5d1a585b1a5e995960921b6064820152608401620001a4565b506000805460ff909216600160a01b0260ff60a01b19909216919091179055600190565b919050565b600054600160a81b900460ff16620002a25760405162461bcd60e51b815260206004820152602b6024820152600080516020620019ce83398151915260448201526a6e697469616c697a696e6760a81b6064820152608401620001a4565b620002ac620002bd565b565b6001600160a01b03163b151590565b600054600160a81b900460ff166200031b5760405162461bcd60e51b815260206004820152602b6024820152600080516020620019ce83398151915260448201526a6e697469616c697a696e6760a81b6064820152608401620001a4565b620002ac33603380546001600160a01b038381166001600160a01b0319831681179093556040519116919082907f8be0079c531659141344cd1fd0a4f28419497f9722a3daafe3b4186f6b6457e090600090a35050565b80516001600160a01b03811681146200023f57600080fd5b600080604083850312156200039e57600080fd5b620003a98362000372565b9150620003b96020840162000372565b90509250929050565b60805160a05160c0516115bc620003f2600039600061019f015260006102400152600061027a01526115bc6000f3fe608060405234801561001057600080fd5b50600436106100df5760003560e01c8063761f44931161008c578063c89701a211610066578063c89701a21461021b578063c8b915311461023b578063f2fde38b14610262578063f786becd1461027557600080fd5b8063761f4493146101d75780638da5cb5b146101ea578063aa5574521461020857600080fd5b80635d93a3fc116100bd5780635d93a3fc146101565780636bf2606a1461019a578063715018a6146101cf57600080fd5b80633687011a146100e45780633cb747bf146100f9578063485cc95514610143575b600080fd5b6100f76100f23660046111b4565b61029c565b005b6000546101199073ffffffffffffffffffffffffffffffffffffffff1681565b60405173ffffffffffffffffffffffffffffffffffffffff90911681526020015b60405180910390f35b6100f7610151366004611237565b610348565b61018a610164366004611270565b606660209081526000938452604080852082529284528284209052825290205460ff1681565b604051901515815260200161013a565b6101c17f000000000000000000000000000000000000000000000000000000000000000081565b60405190815260200161013a565b6100f7610462565b6100f76101e53660046112b1565b6104ef565b60335473ffffffffffffffffffffffffffffffffffffffff16610119565b6100f7610216366004611349565b61096a565b6065546101199073ffffffffffffffffffffffffffffffffffffffff1681565b6101c17f000000000000000000000000000000000000000000000000000000000000000081565b6100f76102703660046113c0565b610983565b6101c17f000000000000000000000000000000000000000000000000000000000000000081565b333b15610330576040517f08c379a000000000000000000000000000000000000000000000000000000000815260206004820152602f60248201527f4c314552433732314272696467653a206163636f756e74206973206e6f74206560448201527f787465726e616c6c79206f776e6564000000000000000000000000000000000060648201526084015b60405180910390fd5b6103408686333388888888610acf565b505050505050565b60006103546001610d00565b9050801561039d57600080547fffffffffffffffffffff00ffffffffffffffffffffffffffffffffffffffffff1675010000000000000000000000000000000000000000001790555b6000805473ffffffffffffffffffffffffffffffffffffffff8086167fffffffffffffffffffffffff00000000000000000000000000000000000000009283161790925560658054928516929091169190911790556103fa610ecf565b801561045d57600080547fffffffffffffffffffff00ffffffffffffffffffffffffffffffffffffffffff169055604051600181527f7f26b83ff96e1f2b6a682f133852f6798a09c465da95921460cefb38474024989060200160405180910390a15b505050565b60335473ffffffffffffffffffffffffffffffffffffffff1633146104e3576040517f08c379a000000000000000000000000000000000000000000000000000000000815260206004820181905260248201527f4f776e61626c653a2063616c6c6572206973206e6f7420746865206f776e65726044820152606401610327565b6104ed6000610f82565b565b60655473ffffffffffffffffffffffffffffffffffffffff1661052760005473ffffffffffffffffffffffffffffffffffffffff1690565b73ffffffffffffffffffffffffffffffffffffffff163373ffffffffffffffffffffffffffffffffffffffff16146105e1576040517f08c379a000000000000000000000000000000000000000000000000000000000815260206004820152602e60248201527f4f564d5f58434841494e3a206d657373656e67657220636f6e7472616374207560448201527f6e61757468656e746963617465640000000000000000000000000000000000006064820152608401610327565b8073ffffffffffffffffffffffffffffffffffffffff1661061760005473ffffffffffffffffffffffffffffffffffffffff1690565b73ffffffffffffffffffffffffffffffffffffffff16636e296e456040518163ffffffff1660e01b815260040160206040518083038186803b15801561065c57600080fd5b505afa158015610670573d6000803e3d6000fd5b505050506040513d601f19601f8201168201806040525081019061069491906113e4565b73ffffffffffffffffffffffffffffffffffffffff1614610737576040517f08c379a000000000000000000000000000000000000000000000000000000000815260206004820152603060248201527f4f564d5f58434841494e3a2077726f6e672073656e646572206f662063726f7360448201527f732d646f6d61696e206d657373616765000000000000000000000000000000006064820152608401610327565b73ffffffffffffffffffffffffffffffffffffffff8089166000908152606660209081526040808320938b1683529281528282208783529052205460ff161515600114610806576040517f08c379a000000000000000000000000000000000000000000000000000000000815260206004820152602960248201527f546f6b656e204944206973206e6f7420657363726f77656420696e207468652060448201527f4c312042726964676500000000000000000000000000000000000000000000006064820152608401610327565b73ffffffffffffffffffffffffffffffffffffffff88811660008181526066602090815260408083208c8616845282528083208984529091529081902080547fffffffffffffffffffffffffffffffffffffffffffffffffffffffffffffff00169055517f23b872dd000000000000000000000000000000000000000000000000000000008152306004820152918716602483015260448201869052906323b872dd90606401600060405180830381600087803b1580156108c657600080fd5b505af11580156108da573d6000803e3d6000fd5b505050508573ffffffffffffffffffffffffffffffffffffffff168773ffffffffffffffffffffffffffffffffffffffff168973ffffffffffffffffffffffffffffffffffffffff167f1f39bf6707b5d608453e0ae4c067b562bcc4c85c0f562ef5d2c774d2e7f131ac88888888604051610958949392919061144a565b60405180910390a45050505050505050565b61097a8787338888888888610acf565b50505050505050565b60335473ffffffffffffffffffffffffffffffffffffffff163314610a04576040517f08c379a000000000000000000000000000000000000000000000000000000000815260206004820181905260248201527f4f776e61626c653a2063616c6c6572206973206e6f7420746865206f776e65726044820152606401610327565b73ffffffffffffffffffffffffffffffffffffffff8116610aa7576040517f08c379a000000000000000000000000000000000000000000000000000000000815260206004820152602660248201527f4f776e61626c653a206e6577206f776e657220697320746865207a65726f206160448201527f64647265737300000000000000000000000000000000000000000000000000006064820152608401610327565b610ab081610f82565b50565b73ffffffffffffffffffffffffffffffffffffffff163b151590565b600063761f449360e01b888a8989898888604051602401610af6979695949392919061148a565b604080517fffffffffffffffffffffffffffffffffffffffffffffffffffffffffffffffe0818403018152918152602080830180517bffffffffffffffffffffffffffffffffffffffffffffffffffffffff167fffffffff00000000000000000000000000000000000000000000000000000000959095169490941790935273ffffffffffffffffffffffffffffffffffffffff8c81166000818152606686528381208e8416825286528381208b82529095529382902080547fffffffffffffffffffffffffffffffffffffffffffffffffffffffffffffff0016600117905590517f23b872dd000000000000000000000000000000000000000000000000000000008152908a166004820152306024820152604481018890529092506323b872dd90606401600060405180830381600087803b158015610c3657600080fd5b505af1158015610c4a573d6000803e3d6000fd5b5050606554610c73925073ffffffffffffffffffffffffffffffffffffffff1690508583610ff9565b8673ffffffffffffffffffffffffffffffffffffffff168873ffffffffffffffffffffffffffffffffffffffff168a73ffffffffffffffffffffffffffffffffffffffff167fb7460e2a880f256ebef3406116ff3eee0cee51ebccdc2a40698f87ebb2e9c1a589898888604051610ced949392919061144a565b60405180910390a4505050505050505050565b600080547501000000000000000000000000000000000000000000900460ff1615610dcb578160ff166001148015610d375750303b155b610dc3576040517f08c379a000000000000000000000000000000000000000000000000000000000815260206004820152602e60248201527f496e697469616c697a61626c653a20636f6e747261637420697320616c72656160448201527f647920696e697469616c697a65640000000000000000000000000000000000006064820152608401610327565b506000919050565b60005460ff808416740100000000000000000000000000000000000000009092041610610e7a576040517f08c379a000000000000000000000000000000000000000000000000000000000815260206004820152602e60248201527f496e697469616c697a61626c653a20636f6e747261637420697320616c72656160448201527f647920696e697469616c697a65640000000000000000000000000000000000006064820152608401610327565b506000805460ff90921674010000000000000000000000000000000000000000027fffffffffffffffffffffff00ffffffffffffffffffffffffffffffffffffffff909216919091179055600190565b919050565b6000547501000000000000000000000000000000000000000000900460ff16610f7a576040517f08c379a000000000000000000000000000000000000000000000000000000000815260206004820152602b60248201527f496e697469616c697a61626c653a20636f6e7472616374206973206e6f74206960448201527f6e697469616c697a696e670000000000000000000000000000000000000000006064820152608401610327565b6104ed611081565b6033805473ffffffffffffffffffffffffffffffffffffffff8381167fffffffffffffffffffffffff0000000000000000000000000000000000000000831681179093556040519116919082907f8be0079c531659141344cd1fd0a4f28419497f9722a3daafe3b4186f6b6457e090600090a35050565b6000546040517f3dbb202b00000000000000000000000000000000000000000000000000000000815273ffffffffffffffffffffffffffffffffffffffff90911690633dbb202b90611053908690859087906004016114e7565b600060405180830381600087803b15801561106d57600080fd5b505af115801561097a573d6000803e3d6000fd5b6000547501000000000000000000000000000000000000000000900460ff1661112c576040517f08c379a000000000000000000000000000000000000000000000000000000000815260206004820152602b60248201527f496e697469616c697a61626c653a20636f6e7472616374206973206e6f74206960448201527f6e697469616c697a696e670000000000000000000000000000000000000000006064820152608401610327565b6104ed33610f82565b73ffffffffffffffffffffffffffffffffffffffff81168114610ab057600080fd5b803563ffffffff81168114610eca57600080fd5b60008083601f84011261117d57600080fd5b50813567ffffffffffffffff81111561119557600080fd5b6020830191508360208285010111156111ad57600080fd5b9250929050565b60008060008060008060a087890312156111cd57600080fd5b86356111d881611135565b955060208701356111e881611135565b9450604087013593506111fd60608801611157565b9250608087013567ffffffffffffffff81111561121957600080fd5b61122589828a0161116b565b979a9699509497509295939492505050565b6000806040838503121561124a57600080fd5b823561125581611135565b9150602083013561126581611135565b809150509250929050565b60008060006060848603121561128557600080fd5b833561129081611135565b925060208401356112a081611135565b929592945050506040919091013590565b600080600080600080600060c0888a0312156112cc57600080fd5b87356112d781611135565b965060208801356112e781611135565b955060408801356112f781611135565b9450606088013561130781611135565b93506080880135925060a088013567ffffffffffffffff81111561132a57600080fd5b6113368a828b0161116b565b989b979a50959850939692959293505050565b600080600080600080600060c0888a03121561136457600080fd5b873561136f81611135565b9650602088013561137f81611135565b9550604088013561138f81611135565b9450606088013593506113a460808901611157565b925060a088013567ffffffffffffffff81111561132a57600080fd5b6000602082840312156113d257600080fd5b81356113dd81611135565b9392505050565b6000602082840312156113f657600080fd5b81516113dd81611135565b8183528181602085013750600060208284010152600060207fffffffffffffffffffffffffffffffffffffffffffffffffffffffffffffffe0601f840116840101905092915050565b73ffffffffffffffffffffffffffffffffffffffff85168152836020820152606060408201526000611480606083018486611401565b9695505050505050565b600073ffffffffffffffffffffffffffffffffffffffff808a1683528089166020840152808816604084015280871660608401525084608083015260c060a08301526114da60c083018486611401565b9998505050505050505050565b73ffffffffffffffffffffffffffffffffffffffff8416815260006020606081840152845180606085015260005b8181101561153157868101830151858201608001528201611515565b81811115611543576000608083870101525b5063ffffffff9490941660408401525050601f919091017fffffffffffffffffffffffffffffffffffffffffffffffffffffffffffffffe016016080019291505056fea264697066735822122001f259e477011e9a3b3e9ffde836b6b6428967d06f46521c3ba349cab110889464736f6c63430008090033496e697469616c697a61626c653a20636f6e747261637420697320616c726561496e697469616c697a61626c653a20636f6e7472616374206973206e6f742069",
  "devdoc": {
    "events": {
      "ERC721BridgeFinalized(address,address,address,address,uint256,bytes)": {
        "params": {
          "extraData": "Extra data for use on the client-side.",
          "from": "Address that initiated bridging action.",
          "localToken": "Address of the token on this domain.",
          "remoteToken": "Address of the token on the remote domain.",
          "to": "Address to receive the token.",
          "tokenId": "ID of the specific token deposited."
        }
      },
      "ERC721BridgeInitiated(address,address,address,address,uint256,bytes)": {
        "params": {
          "extraData": "Extra data for use on the client-side.",
          "from": "Address that initiated bridging action.",
          "localToken": "Address of the token on this domain.",
          "remoteToken": "Address of the token on the remote domain.",
          "to": "Address to receive the token.",
          "tokenId": "ID of the specific token deposited."
        }
      }
    },
    "kind": "dev",
    "methods": {
      "bridgeERC721(address,address,uint256,uint32,bytes)": {
        "params": {
          "_extraData": "Optional data to forward to L2. Data supplied here will not be used to                     execute any code on L2 and is only emitted as extra data for the                     convenience of off-chain tooling.",
          "_localToken": "Address of the ERC721 on this domain.",
          "_minGasLimit": "Minimum gas limit for the bridge message on the other domain.",
          "_remoteToken": "Address of the ERC721 on the remote domain.",
          "_tokenId": "Token ID to bridge."
        }
      },
      "bridgeERC721To(address,address,address,uint256,uint32,bytes)": {
        "params": {
          "_extraData": "Optional data to forward to L2. Data supplied here will not be used to                     execute any code on L2 and is only emitted as extra data for the                     convenience of off-chain tooling.",
          "_localToken": "Address of the ERC721 on this domain.",
          "_minGasLimit": "Minimum gas limit for the bridge message on the other domain.",
          "_remoteToken": "Address of the ERC721 on the remote domain.",
          "_to": "Address to receive the token on the other domain.",
          "_tokenId": "Token ID to bridge."
        }
      },
      "constructor": {
        "params": {
          "_messenger": "Address of the CrossDomainMessenger on this network.",
          "_otherBridge": "Address of the ERC721 bridge on the other network."
        }
      },
      "finalizeBridgeERC721(address,address,address,address,uint256,bytes)": {
        "params": {
          "_extraData": "Optional data to forward to L2. Data supplied here will not be used to                     execute any code on L2 and is only emitted as extra data for the                     convenience of off-chain tooling.",
          "_from": "Address that triggered the bridge on the other domain.",
          "_localToken": "Address of the ERC721 token on this domain.",
          "_remoteToken": "Address of the ERC721 token on the other domain.",
          "_to": "Address to receive the token on this domain.",
          "_tokenId": "ID of the token being deposited."
        }
      },
      "initialize(address,address)": {
        "params": {
          "_messenger": "Address of the CrossDomainMessenger on this network.",
          "_otherBridge": "Address of the ERC721 bridge on the other network."
        }
      },
      "owner()": {
        "details": "Returns the address of the current owner."
      },
      "renounceOwnership()": {
        "details": "Leaves the contract without owner. It will not be possible to call `onlyOwner` functions anymore. Can only be called by the current owner. NOTE: Renouncing ownership will leave the contract without an owner, thereby removing any functionality that is only available to the owner."
      },
      "transferOwnership(address)": {
        "details": "Transfers ownership of the contract to a new account (`newOwner`). Can only be called by the current owner."
      }
    },
    "title": "L1ERC721Bridge",
    "version": 1
  },
  "userdoc": {
    "events": {
      "ERC721BridgeFinalized(address,address,address,address,uint256,bytes)": {
        "notice": "Emitted when an ERC721 bridge from the other network is finalized."
      },
      "ERC721BridgeInitiated(address,address,address,address,uint256,bytes)": {
        "notice": "Emitted when an ERC721 bridge to the other network is initiated."
      }
    },
    "kind": "user",
    "methods": {
      "MAJOR_VERSION()": {
        "notice": "Contract version number (major)."
      },
      "MINOR_VERSION()": {
        "notice": "Contract version number (minor)."
      },
      "PATCH_VERSION()": {
        "notice": "Contract version number (patch)."
      },
      "bridgeERC721(address,address,uint256,uint32,bytes)": {
        "notice": "Initiates a bridge of an NFT to the caller's account on L2."
      },
      "bridgeERC721To(address,address,address,uint256,uint32,bytes)": {
        "notice": "Initiates a bridge of an NFT to some recipient's account on L2."
      },
      "deposits(address,address,uint256)": {
        "notice": "Mapping of L1 token to L2 token to ID to boolean, indicating if the given L1 token         by ID was deposited for a given L2 token."
      },
      "finalizeBridgeERC721(address,address,address,address,uint256,bytes)": {
        "notice": "Completes an ERC721 bridge from the other domain and sends the ERC721 token to the         recipient on this domain."
      },
      "otherBridge()": {
        "notice": "Address of the bridge on the other network."
      }
    },
    "notice": "The L1 ERC721 bridge is a contract which works together with the L2 ERC721 bridge to         make it possible to transfer ERC721 tokens between Optimism and Ethereum. This contract         acts as an escrow for ERC721 tokens deposted into L2.",
    "version": 1
  },
  "storageLayout": {
    "storage": [
      {
        "astId": 1119,
        "contract": "contracts/L1/messaging/L1ERC721Bridge.sol:L1ERC721Bridge",
        "label": "messenger",
        "offset": 0,
        "slot": "0",
        "type": "t_address"
      },
      {
        "astId": 1361,
        "contract": "contracts/L1/messaging/L1ERC721Bridge.sol:L1ERC721Bridge",
        "label": "_initialized",
        "offset": 20,
        "slot": "0",
        "type": "t_uint8"
      },
      {
        "astId": 1364,
        "contract": "contracts/L1/messaging/L1ERC721Bridge.sol:L1ERC721Bridge",
        "label": "_initializing",
        "offset": 21,
        "slot": "0",
        "type": "t_bool"
      },
      {
        "astId": 1780,
        "contract": "contracts/L1/messaging/L1ERC721Bridge.sol:L1ERC721Bridge",
        "label": "__gap",
        "offset": 0,
        "slot": "1",
        "type": "t_array(t_uint256)50_storage"
      },
      {
        "astId": 1241,
        "contract": "contracts/L1/messaging/L1ERC721Bridge.sol:L1ERC721Bridge",
        "label": "_owner",
        "offset": 0,
        "slot": "51",
        "type": "t_address"
      },
      {
        "astId": 1353,
        "contract": "contracts/L1/messaging/L1ERC721Bridge.sol:L1ERC721Bridge",
        "label": "__gap",
        "offset": 0,
        "slot": "52",
        "type": "t_array(t_uint256)49_storage"
      },
      {
        "astId": 5106,
        "contract": "contracts/L1/messaging/L1ERC721Bridge.sol:L1ERC721Bridge",
        "label": "otherBridge",
        "offset": 0,
        "slot": "101",
        "type": "t_address"
      },
      {
        "astId": 5115,
        "contract": "contracts/L1/messaging/L1ERC721Bridge.sol:L1ERC721Bridge",
        "label": "deposits",
        "offset": 0,
        "slot": "102",
        "type": "t_mapping(t_address,t_mapping(t_address,t_mapping(t_uint256,t_bool)))"
      }
    ],
    "types": {
      "t_address": {
        "encoding": "inplace",
        "label": "address",
        "numberOfBytes": "20"
      },
      "t_array(t_uint256)49_storage": {
        "base": "t_uint256",
        "encoding": "inplace",
        "label": "uint256[49]",
        "numberOfBytes": "1568"
      },
      "t_array(t_uint256)50_storage": {
        "base": "t_uint256",
        "encoding": "inplace",
        "label": "uint256[50]",
        "numberOfBytes": "1600"
      },
      "t_bool": {
        "encoding": "inplace",
        "label": "bool",
        "numberOfBytes": "1"
      },
      "t_mapping(t_address,t_mapping(t_address,t_mapping(t_uint256,t_bool)))": {
        "encoding": "mapping",
        "key": "t_address",
        "label": "mapping(address => mapping(address => mapping(uint256 => bool)))",
        "numberOfBytes": "32",
        "value": "t_mapping(t_address,t_mapping(t_uint256,t_bool))"
      },
      "t_mapping(t_address,t_mapping(t_uint256,t_bool))": {
        "encoding": "mapping",
        "key": "t_address",
        "label": "mapping(address => mapping(uint256 => bool))",
        "numberOfBytes": "32",
        "value": "t_mapping(t_uint256,t_bool)"
      },
      "t_mapping(t_uint256,t_bool)": {
        "encoding": "mapping",
        "key": "t_uint256",
        "label": "mapping(uint256 => bool)",
        "numberOfBytes": "32",
        "value": "t_bool"
      },
      "t_uint256": {
        "encoding": "inplace",
        "label": "uint256",
        "numberOfBytes": "32"
      },
      "t_uint8": {
        "encoding": "inplace",
        "label": "uint8",
        "numberOfBytes": "1"
      }
    }
  }
}