{
  "_format": "hh-sol-artifact-1",
  "contractName": "OVM_L2CrossDomainMessenger",
  "sourceName": "contracts/optimistic-ethereum/OVM/bridge/messaging/OVM_L2CrossDomainMessenger.sol",
  "abi": [
    {
      "inputs": [
        {
          "internalType": "address",
          "name": "_libAddressManager",
          "type": "address"
        }
      ],
      "stateMutability": "nonpayable",
      "type": "constructor"
    },
    {
      "anonymous": false,
      "inputs": [
        {
          "indexed": false,
          "internalType": "bytes32",
          "name": "msgHash",
          "type": "bytes32"
        }
      ],
      "name": "FailedRelayedMessage",
      "type": "event"
    },
    {
      "anonymous": false,
      "inputs": [
        {
          "indexed": false,
          "internalType": "bytes32",
          "name": "msgHash",
          "type": "bytes32"
        }
      ],
      "name": "RelayedMessage",
      "type": "event"
    },
    {
      "anonymous": false,
      "inputs": [
        {
          "indexed": false,
          "internalType": "bytes",
          "name": "message",
          "type": "bytes"
        }
      ],
      "name": "SentMessage",
      "type": "event"
    },
    {
      "inputs": [],
      "name": "libAddressManager",
      "outputs": [
        {
          "internalType": "contract Lib_AddressManager",
          "name": "",
          "type": "address"
        }
      ],
      "stateMutability": "view",
      "type": "function"
    },
    {
      "inputs": [],
      "name": "messageNonce",
      "outputs": [
        {
          "internalType": "uint256",
          "name": "",
          "type": "uint256"
        }
      ],
      "stateMutability": "view",
      "type": "function"
    },
    {
      "inputs": [
        {
          "internalType": "address",
          "name": "_target",
          "type": "address"
        },
        {
          "internalType": "address",
          "name": "_sender",
          "type": "address"
        },
        {
          "internalType": "bytes",
          "name": "_message",
          "type": "bytes"
        },
        {
          "internalType": "uint256",
          "name": "_messageNonce",
          "type": "uint256"
        }
      ],
      "name": "relayMessage",
      "outputs": [],
      "stateMutability": "nonpayable",
      "type": "function"
    },
    {
      "inputs": [
        {
          "internalType": "bytes32",
          "name": "",
          "type": "bytes32"
        }
      ],
      "name": "relayedMessages",
      "outputs": [
        {
          "internalType": "bool",
          "name": "",
          "type": "bool"
        }
      ],
      "stateMutability": "view",
      "type": "function"
    },
    {
      "inputs": [
        {
          "internalType": "string",
          "name": "_name",
          "type": "string"
        }
      ],
      "name": "resolve",
      "outputs": [
        {
          "internalType": "address",
          "name": "",
          "type": "address"
        }
      ],
      "stateMutability": "view",
      "type": "function"
    },
    {
      "inputs": [
        {
          "internalType": "address",
          "name": "_target",
          "type": "address"
        },
        {
          "internalType": "bytes",
          "name": "_message",
          "type": "bytes"
        },
        {
          "internalType": "uint32",
          "name": "_gasLimit",
          "type": "uint32"
        }
      ],
      "name": "sendMessage",
      "outputs": [],
      "stateMutability": "nonpayable",
      "type": "function"
    },
    {
      "inputs": [
        {
          "internalType": "bytes32",
          "name": "",
          "type": "bytes32"
        }
      ],
      "name": "sentMessages",
      "outputs": [
        {
          "internalType": "bool",
          "name": "",
          "type": "bool"
        }
      ],
      "stateMutability": "view",
      "type": "function"
    },
    {
      "inputs": [
        {
          "internalType": "bytes32",
          "name": "",
          "type": "bytes32"
        }
      ],
      "name": "successfulMessages",
      "outputs": [
        {
          "internalType": "bool",
          "name": "",
          "type": "bool"
        }
      ],
      "stateMutability": "view",
      "type": "function"
    },
    {
      "inputs": [],
      "name": "xDomainMessageSender",
      "outputs": [
        {
          "internalType": "address",
          "name": "",
          "type": "address"
        }
      ],
      "stateMutability": "view",
      "type": "function"
    }
  ],
  "bytecode": "0x6080604052600480546001600160a01b03191661dead17905534801561002457600080fd5b50604051610cce380380610cce8339810160408190526100439161006d565b600580546001600160a01b0319166001600160a01b0392909216919091179055600160065561009b565b60006020828403121561007e578081fd5b81516001600160a01b0381168114610094578182fd5b9392505050565b610c24806100aa6000396000f3fe608060405234801561001057600080fd5b50600436106100935760003560e01c80636e296e45116100665780636e296e45146100fe57806382e3702d14610106578063b1b1b20914610119578063cbd4ece91461012c578063ecc704281461013f57610093565b806321d800ec14610098578063299ca478146100c15780633dbb202b146100d6578063461a4478146100eb575b600080fd5b6100ab6100a6366004610978565b610154565b6040516100b89190610ab6565b60405180910390f35b6100c9610169565b6040516100b89190610a65565b6100e96100e436600461090e565b610178565b005b6100c96100f9366004610990565b610207565b6100c96102e1565b6100ab610114366004610978565b61032a565b6100ab610127366004610978565b61033f565b6100e961013a3660046108a6565b610354565b610147610618565b6040516100b89190610ac1565b60006020819052908152604090205460ff1681565b6005546001600160a01b031681565b600061018884338560035461061e565b60038054600190810190915581516020808401919091206000908152600290915260409020805460ff1916909117905590506101ca8163ffffffff841661066b565b7f0ee9ffdb2334d78de97ffb066b23a352a4d35180cefb36589d663fbb1eb6f326816040516101f99190610aca565b60405180910390a150505050565b60055460405163bf40fac160e01b81526020600482018181528451602484015284516000946001600160a01b03169363bf40fac1938793928392604401918501908083838b5b8381101561026557818101518382015260200161024d565b50505050905090810190601f1680156102925780820380516001836020036101000a031916815260200191505b509250505060206040518083038186803b1580156102af57600080fd5b505afa1580156102c3573d6000803e3d6000fd5b505050506040513d60208110156102d957600080fd5b505192915050565b6004546000906001600160a01b031661dead141561031a5760405162461bcd60e51b815260040161031190610add565b60405180910390fd5b506004546001600160a01b031690565b60026020526000908152604090205460ff1681565b60016020526000908152604090205460ff1681565b600260065414156103ac576040805162461bcd60e51b815260206004820152601f60248201527f5265656e7472616e637947756172643a207265656e7472616e742063616c6c00604482015290519081900360640190fd5b60026006556103b9610704565b15156001146103da5760405162461bcd60e51b815260040161031190610b5f565b60006103e88585858561061e565b8051602080830191909120600081815260019092526040909120549192509060ff16156104275760405162461bcd60e51b815260040161031190610b14565b61045f6040518060400160405280601781526020017627ab26afa6192a37a618a6b2b9b9b0b3b2a830b9b9b2b960491b815250610207565b6001600160a01b0316866001600160a01b0316141561049a576000908152600160208190526040909120805460ff191690911790555061060d565b600480546001600160a01b0319166001600160a01b03878116919091179091556040516000918816906104ce908790610a0a565b6000604051808303816000865af19150503d806000811461050b576040519150601f19603f3d011682016040523d82523d6000602084013e610510565b606091505b5050600480546001600160a01b03191661dead17905590508015156001141561058b57600082815260016020819052604091829020805460ff19169091179055517f4641df4a962071e12719d8c8c8e5ac7fc4d97b927346a3d7a335b1f7517e133c9061057e908490610ac1565b60405180910390a16105c3565b7f99d0e048484baa1b1540b1367cb128acd7ab2946d1ed91ec10e3c85e4bf51b8f826040516105ba9190610ac1565b60405180910390a15b60008333436040516020016105da93929190610a26565b60408051601f1981840301815291815281516020928301206000908152918290529020805460ff19166001179055505050505b505060016006555050565b60035481565b6060848484846040516024016106379493929190610a79565b60408051601f198184030181529190526020810180516001600160e01b031663cbd4ece960e01b1790529050949350505050565b6106a36040518060400160405280601781526020017627ab26afa6192a37a618a6b2b9b9b0b3b2a830b9b9b2b960491b815250610207565b6001600160a01b031663cafa81dc836040518263ffffffff1660e01b81526004016106ce9190610aca565b600060405180830381600087803b1580156106e857600080fd5b505af11580156106fc573d6000803e3d6000fd5b505050505050565b60006107446040518060400160405280601a81526020017f4f564d5f4c3143726f7373446f6d61696e4d657373656e676572000000000000815250610207565b6001600160a01b03166107816040518060400160405280601381526020017227ab26afa618a6b2b9b9b0b3b2a9b2b73232b960691b815250610207565b6001600160a01b031663d20341066040518163ffffffff1660e01b815260040160206040518083038186803b1580156107b957600080fd5b505afa1580156107cd573d6000803e3d6000fd5b505050506040513d601f19601f820116820180604052508101906107f1919061088a565b6001600160a01b031614905090565b600067ffffffffffffffff8084111561081557fe5b604051601f8501601f19168101602001828111828210171561083357fe5b60405284815291508183850186101561084b57600080fd5b8484602083013760006020868301015250509392505050565b600082601f830112610874578081fd5b61088383833560208501610800565b9392505050565b60006020828403121561089b578081fd5b815161088381610bd6565b600080600080608085870312156108bb578283fd5b84356108c681610bd6565b935060208501356108d681610bd6565b9250604085013567ffffffffffffffff8111156108f1578283fd5b6108fd87828801610864565b949793965093946060013593505050565b600080600060608486031215610922578283fd5b833561092d81610bd6565b9250602084013567ffffffffffffffff811115610948578283fd5b61095486828701610864565b925050604084013563ffffffff8116811461096d578182fd5b809150509250925092565b600060208284031215610989578081fd5b5035919050565b6000602082840312156109a1578081fd5b813567ffffffffffffffff8111156109b7578182fd5b8201601f810184136109c7578182fd5b6109d684823560208401610800565b949350505050565b600081518084526109f6816020860160208601610ba6565b601f01601f19169290920160200192915050565b60008251610a1c818460208701610ba6565b9190910192915050565b60008451610a38818460208901610ba6565b60609490941b6bffffffffffffffffffffffff191691909301908152601481019190915260340192915050565b6001600160a01b0391909116815260200190565b6001600160a01b03858116825284166020820152608060408201819052600090610aa5908301856109de565b905082606083015295945050505050565b901515815260200190565b90815260200190565b60006020825261088360208301846109de565b6020808252601f908201527f78446f6d61696e4d65737361676553656e646572206973206e6f742073657400604082015260600190565b6020808252602b908201527f50726f7669646564206d6573736167652068617320616c72656164792062656560408201526a37103932b1b2b4bb32b21760a91b606082015260800190565b60208082526027908201527f50726f7669646564206d65737361676520636f756c64206e6f742062652076656040820152663934b334b2b21760c91b606082015260800190565b60005b83811015610bc1578181015183820152602001610ba9565b83811115610bd0576000848401525b50505050565b6001600160a01b0381168114610beb57600080fd5b5056fea26469706673582212200098e266f664fe847014bbc2da2ca562a437cb26741a738abc2e137204e71b7864736f6c63430007060033",
  "linkReferences": {},
  "deployedLinkReferences": {}
}