{
  "_format": "hh-sol-artifact-1",
  "contractName": "OVM_SafetyChecker",
  "sourceName": "contracts/optimistic-ethereum/OVM/execution/OVM_SafetyChecker.sol",
  "abi": [
    {
      "inputs": [
        {
          "internalType": "bytes",
          "name": "_bytecode",
          "type": "bytes"
        }
      ],
      "name": "isBytecodeSafe",
      "outputs": [
        {
          "internalType": "bool",
          "name": "",
          "type": "bool"
        }
      ],
      "stateMutability": "pure",
      "type": "function"
    }
  ],
  "bytecode": "0x60806040523480156100195760008061001661001f565b50505b5061008a565b632a2a7adb598160e01b8152600481016020815285602082015260005b8681101561005757808601518282016040015260200161003c565b506020828760640184336000905af158600e01573d6000803e3d6000fd5b3d6001141558600a015760016000f35b505050565b6103f0806100996000396000f3fe608060405234801561001957600080610016610385565b50505b50600436106100345760003560e01c8063a44eb59a14610042575b60008061003f610385565b50505b61010b600480360360208110156100615760008061005e610385565b50505b81019060208101813564010000000081111561008557600080610082610385565b50505b8201836020820111156100a05760008061009d610385565b50505b803590602001918460018302840111640100000000831117156100cb576000806100c8610385565b50505b91908080601f016020809104026020016040519081016040528181529291906020840183838082843760009201919091525092955061011f945050505050565b604051901515815260200160405180910390f35b600080604051610100810160409081527e0101010101010101010101000000000101010101010101010101010101000082526b010101010101000000010100600160f81b016020808401919091526f0101010100000001010101010000000091830191909152630203040560e01b60608301527f0101010101010101010101010101010101010101010101010101010101010101608083015264010101010160d81b60a0830152600060c0830181905260e08301819052919250741fffffffff000000000f8f000063f000013fff0ffe916a40000000000000000000026117ff60f31b039163ffffffff60601b19919087018751810191505b600081518060001a88015160001a81811a89015160001a0181811a89015160001a0181811a89015160001a0181811a89015160001a0181811a89015160001a01928301921a90506001811b8681166103685780851661027c575001605d190161036e565b8086166102bf575b600190920191825160001a915081605b141561029f576102ba565b6001821b85166102b257918101605e1901915b838310610284575b610368565b81603314156103575760008084519150602085015160d81c905060c082901c673350600060045af114156102f85760088501945061034e565b817f336000905af158600e01573d6000803e3d6000fd5b3d6001141558600a01576014801561032b57508064016000f35b145b1561033b5760258501945061034e565b60009a5050505050505050505050610380565b5050505061036e565b600098505050505050505050610380565b50506001015b81811061021857600196505050505050505b919050565b632a2a7adb598160e01b8152600481016020815285602082015260005b868110156103bd5780860151828201604001526020016103a2565b506020828760640184336000905af158600e01573d6000803e3d6000fd5b3d6001141558600a015760016000f35b50505056",
  "linkReferences": {},
  "deployedLinkReferences": {}
}