{
  "address": "0x77e244ec49014cFb9c4572453568eCC3AbB70A2d",
  "abi": [
    {
      "inputs": [
        {
          "internalType": "address",
          "name": "_libAddressManager",
          "type": "address"
        }
      ],
      "stateMutability": "nonpayable",
      "type": "constructor"
    },
    {
      "inputs": [
        {
          "internalType": "address",
          "name": "_who",
          "type": "address"
        }
      ],
      "name": "claim",
      "outputs": [],
      "stateMutability": "nonpayable",
      "type": "function"
    },
    {
      "inputs": [],
      "name": "deposit",
      "outputs": [],
      "stateMutability": "nonpayable",
      "type": "function"
    },
    {
      "inputs": [
        {
          "internalType": "bytes32",
          "name": "_preStateRoot",
          "type": "bytes32"
        },
        {
          "internalType": "address",
          "name": "_publisher",
          "type": "address"
        },
        {
          "internalType": "uint256",
          "name": "_timestamp",
          "type": "uint256"
        }
      ],
      "name": "finalize",
      "outputs": [],
      "stateMutability": "nonpayable",
      "type": "function"
    },
    {
      "inputs": [],
      "name": "finalizeWithdrawal",
      "outputs": [],
      "stateMutability": "nonpayable",
      "type": "function"
    },
    {
      "inputs": [
        {
          "internalType": "bytes32",
          "name": "",
          "type": "bytes32"
        },
        {
          "internalType": "address",
          "name": "",
          "type": "address"
        }
      ],
      "name": "getGasSpent",
      "outputs": [
        {
          "internalType": "uint256",
          "name": "",
          "type": "uint256"
        }
      ],
      "stateMutability": "pure",
      "type": "function"
    },
    {
      "inputs": [
        {
          "internalType": "address",
          "name": "_who",
          "type": "address"
        }
      ],
      "name": "isCollateralized",
      "outputs": [
        {
          "internalType": "bool",
          "name": "",
          "type": "bool"
        }
      ],
      "stateMutability": "view",
      "type": "function"
    },
    {
      "inputs": [],
      "name": "libAddressManager",
      "outputs": [
        {
          "internalType": "contract Lib_AddressManager",
          "name": "",
          "type": "address"
        }
      ],
      "stateMutability": "view",
      "type": "function"
    },
    {
      "inputs": [
        {
          "internalType": "bytes32",
          "name": "_preStateRoot",
          "type": "bytes32"
        },
        {
          "internalType": "bytes32",
          "name": "_txHash",
          "type": "bytes32"
        },
        {
          "internalType": "address",
          "name": "_who",
          "type": "address"
        },
        {
          "internalType": "uint256",
          "name": "_gasSpent",
          "type": "uint256"
        }
      ],
      "name": "recordGasSpent",
      "outputs": [],
      "stateMutability": "nonpayable",
      "type": "function"
    },
    {
      "inputs": [
        {
          "internalType": "string",
          "name": "_name",
          "type": "string"
        }
      ],
      "name": "resolve",
      "outputs": [
        {
          "internalType": "address",
          "name": "_contract",
          "type": "address"
        }
      ],
      "stateMutability": "view",
      "type": "function"
    },
    {
      "inputs": [],
      "name": "startWithdrawal",
      "outputs": [],
      "stateMutability": "nonpayable",
      "type": "function"
    }
  ],
  "transactionHash": "0xfa0ce06133a8e92441053bbf890354b29e2b0002c362bd186e7ddc118a0c415c",
  "args": [
    "0xFaf27b24ba54C6910C12CFF5C9453C0e8D634e05"
  ],
  "solcInputHash": "03aed03b958b1d37f90bd88d0f56dd85",
  "bytecode": "0x608060405234801561001057600080fd5b5060405161043e38038061043e8339818101604052602081101561003357600080fd5b5051600080546001600160a01b039092166001600160a01b03199092169190911790556103d9806100656000396000f3fe608060405234801561001057600080fd5b506004361061009e5760003560e01c8063abfbbe1311610066578063abfbbe1314610207578063bc2f8dd814610239578063c5b6aa2f14610239578063d0e30db014610239578063dc6453dc146102415761009e565b806302ad4d2a146100a35780631e16e92f146100dd5780631e83409a14610117578063299ca4781461013d578063461a447814610161575b600080fd5b6100c9600480360360208110156100b957600080fd5b50356001600160a01b031661027f565b604080519115158252519081900360200190f35b610115600480360360808110156100f357600080fd5b508035906020810135906001600160a01b0360408201351690606001356102c9565b005b6101156004803603602081101561012d57600080fd5b50356001600160a01b03166102cf565b6101456102d2565b604080516001600160a01b039092168252519081900360200190f35b6101456004803603602081101561017757600080fd5b81019060208101813564010000000081111561019257600080fd5b8201836020820111156101a457600080fd5b803590602001918460018302840111640100000000831117156101c657600080fd5b91908080601f0160208091040260200160405190810160405280939291908181526020018383808284376000920191909152509295506102e1945050505050565b6101156004803603606081101561021d57600080fd5b508035906001600160a01b0360208201351690604001356103bd565b6101156103c2565b61026d6004803603604081101561025757600080fd5b50803590602001356001600160a01b03166103c4565b60408051918252519081900360200190f35b60006102ae6040518060400160405280600c81526020016b27ab26afa83937b837b9b2b960a11b8152506102e1565b6001600160a01b0316826001600160a01b0316149050919050565b50505050565b50565b6000546001600160a01b031681565b6000805460405163bf40fac160e01b81526020600482018181528551602484015285516001600160a01b039094169363bf40fac19387938392604490920191908501908083838b5b83811015610341578181015183820152602001610329565b50505050905090810190601f16801561036e5780820380516001836020036101000a031916815260200191505b509250505060206040518083038186803b15801561038b57600080fd5b505afa15801561039f573d6000803e3d6000fd5b505050506040513d60208110156103b557600080fd5b505192915050565b505050565b565b60009291505056fea164736f6c6343000706000a",
  "devdoc": {
    "kind": "dev",
    "methods": {},
    "title": "mockOVM_BondManager",
    "version": 1
  },
  "userdoc": {
    "kind": "user",
    "methods": {},
    "version": 1
  },
  "storageLayout": {
    "storage": [
      {
        "astId": 12526,
        "contract": "contracts/optimistic-ethereum/mockOVM/verification/mockOVM_BondManager.sol:mockOVM_BondManager",
        "label": "libAddressManager",
        "offset": 0,
        "slot": "0",
        "type": "t_contract(Lib_AddressManager)12519"
      }
    ],
    "types": {
      "t_contract(Lib_AddressManager)12519": {
        "encoding": "inplace",
        "label": "contract Lib_AddressManager",
        "numberOfBytes": "20"
      }
    }
  }
}