{
  "_format": "hh-sol-artifact-1",
  "contractName": "L2LiquidityPool",
  "sourceName": "contracts/LP/L2LiquidityPool.sol",
  "abi": [
    {
      "inputs": [
        {
          "internalType": "address",
          "name": "_l2CrossDomainMessenger",
          "type": "address"
        }
      ],
      "stateMutability": "nonpayable",
      "type": "constructor"
    },
    {
      "anonymous": false,
      "inputs": [
        {
          "indexed": false,
          "internalType": "address",
          "name": "sender",
          "type": "address"
        },
        {
          "indexed": false,
          "internalType": "uint256",
          "name": "amount",
          "type": "uint256"
        },
        {
          "indexed": false,
          "internalType": "address",
          "name": "tokenAddress",
          "type": "address"
        }
      ],
      "name": "AddLiquidity",
      "type": "event"
    },
    {
      "anonymous": false,
      "inputs": [
        {
          "indexed": false,
          "internalType": "address",
          "name": "sender",
          "type": "address"
        },
        {
          "indexed": false,
          "internalType": "uint256",
          "name": "receivedAmount",
          "type": "uint256"
        },
        {
          "indexed": false,
          "internalType": "uint256",
          "name": "userRewardFee",
          "type": "uint256"
        },
        {
          "indexed": false,
          "internalType": "uint256",
          "name": "ownerRewardFee",
          "type": "uint256"
        },
        {
          "indexed": false,
          "internalType": "uint256",
          "name": "totalFee",
          "type": "uint256"
        },
        {
          "indexed": false,
          "internalType": "address",
          "name": "tokenAddress",
          "type": "address"
        }
      ],
      "name": "ClientDepositL2",
      "type": "event"
    },
    {
      "anonymous": false,
      "inputs": [
        {
          "indexed": false,
          "internalType": "address",
          "name": "sender",
          "type": "address"
        },
        {
          "indexed": false,
          "internalType": "uint256",
          "name": "amount",
          "type": "uint256"
        },
        {
          "indexed": false,
          "internalType": "address",
          "name": "tokenAddress",
          "type": "address"
        }
      ],
      "name": "ClientPayL2",
      "type": "event"
    },
    {
      "anonymous": false,
      "inputs": [
        {
          "indexed": false,
          "internalType": "address",
          "name": "sender",
          "type": "address"
        },
        {
          "indexed": false,
          "internalType": "address",
          "name": "receiver",
          "type": "address"
        },
        {
          "indexed": false,
          "internalType": "uint256",
          "name": "amount",
          "type": "uint256"
        },
        {
          "indexed": false,
          "internalType": "address",
          "name": "tokenAddress",
          "type": "address"
        }
      ],
      "name": "OwnerRecoverFee",
      "type": "event"
    },
    {
      "anonymous": false,
      "inputs": [
        {
          "indexed": true,
          "internalType": "address",
          "name": "previousOwner",
          "type": "address"
        },
        {
          "indexed": true,
          "internalType": "address",
          "name": "newOwner",
          "type": "address"
        }
      ],
      "name": "OwnershipTransferred",
      "type": "event"
    },
    {
      "anonymous": false,
      "inputs": [
        {
          "indexed": false,
          "internalType": "address",
          "name": "sender",
          "type": "address"
        },
        {
          "indexed": false,
          "internalType": "address",
          "name": "receiver",
          "type": "address"
        },
        {
          "indexed": false,
          "internalType": "uint256",
          "name": "amount",
          "type": "uint256"
        },
        {
          "indexed": false,
          "internalType": "address",
          "name": "tokenAddress",
          "type": "address"
        }
      ],
      "name": "WithdrawLiquidity",
      "type": "event"
    },
    {
      "anonymous": false,
      "inputs": [
        {
          "indexed": false,
          "internalType": "address",
          "name": "sender",
          "type": "address"
        },
        {
          "indexed": false,
          "internalType": "address",
          "name": "receiver",
          "type": "address"
        },
        {
          "indexed": false,
          "internalType": "uint256",
          "name": "amount",
          "type": "uint256"
        },
        {
          "indexed": false,
          "internalType": "address",
          "name": "tokenAddress",
          "type": "address"
        }
      ],
      "name": "WithdrawReward",
      "type": "event"
    },
    {
      "inputs": [
        {
          "internalType": "uint256",
          "name": "_amount",
          "type": "uint256"
        },
        {
          "internalType": "address",
          "name": "_tokenAddress",
          "type": "address"
        }
      ],
      "name": "addLiquidity",
      "outputs": [],
      "stateMutability": "nonpayable",
      "type": "function"
    },
    {
      "inputs": [
        {
          "internalType": "uint256",
          "name": "_amount",
          "type": "uint256"
        },
        {
          "internalType": "address",
          "name": "_tokenAddress",
          "type": "address"
        }
      ],
      "name": "clientDepositL2",
      "outputs": [],
      "stateMutability": "nonpayable",
      "type": "function"
    },
    {
      "inputs": [
        {
          "internalType": "address",
          "name": "_to",
          "type": "address"
        },
        {
          "internalType": "uint256",
          "name": "_amount",
          "type": "uint256"
        },
        {
          "internalType": "address",
          "name": "_tokenAddress",
          "type": "address"
        }
      ],
      "name": "clientPayL2",
      "outputs": [],
      "stateMutability": "nonpayable",
      "type": "function"
    },
    {
      "inputs": [],
      "name": "getFinalizeDepositL1Gas",
      "outputs": [
        {
          "internalType": "uint32",
          "name": "",
          "type": "uint32"
        }
      ],
      "stateMutability": "view",
      "type": "function"
    },
    {
      "inputs": [
        {
          "internalType": "uint256",
          "name": "_userRewardFeeRate",
          "type": "uint256"
        },
        {
          "internalType": "uint256",
          "name": "_ownerRewardFeeRate",
          "type": "uint256"
        },
        {
          "internalType": "address",
          "name": "_L1LiquidityPoolAddress",
          "type": "address"
        }
      ],
      "name": "init",
      "outputs": [],
      "stateMutability": "nonpayable",
      "type": "function"
    },
    {
      "inputs": [],
      "name": "messenger",
      "outputs": [
        {
          "internalType": "address",
          "name": "",
          "type": "address"
        }
      ],
      "stateMutability": "view",
      "type": "function"
    },
    {
      "inputs": [],
      "name": "owner",
      "outputs": [
        {
          "internalType": "address",
          "name": "",
          "type": "address"
        }
      ],
      "stateMutability": "view",
      "type": "function"
    },
    {
      "inputs": [
        {
          "internalType": "uint256",
          "name": "_amount",
          "type": "uint256"
        },
        {
          "internalType": "address",
          "name": "_tokenAddress",
          "type": "address"
        },
        {
          "internalType": "address",
          "name": "_to",
          "type": "address"
        }
      ],
      "name": "ownerRecoverFee",
      "outputs": [],
      "stateMutability": "nonpayable",
      "type": "function"
    },
    {
      "inputs": [],
      "name": "ownerRewardFeeRate",
      "outputs": [
        {
          "internalType": "uint256",
          "name": "",
          "type": "uint256"
        }
      ],
      "stateMutability": "view",
      "type": "function"
    },
    {
      "inputs": [
        {
          "internalType": "address",
          "name": "",
          "type": "address"
        }
      ],
      "name": "poolInfo",
      "outputs": [
        {
          "internalType": "address",
          "name": "l1TokenAddress",
          "type": "address"
        },
        {
          "internalType": "address",
          "name": "l2TokenAddress",
          "type": "address"
        },
        {
          "internalType": "uint256",
          "name": "userDepositAmount",
          "type": "uint256"
        },
        {
          "internalType": "uint256",
          "name": "lastAccUserReward",
          "type": "uint256"
        },
        {
          "internalType": "uint256",
          "name": "accUserReward",
          "type": "uint256"
        },
        {
          "internalType": "uint256",
          "name": "accUserRewardPerShare",
          "type": "uint256"
        },
        {
          "internalType": "uint256",
          "name": "accOwnerReward",
          "type": "uint256"
        },
        {
          "internalType": "uint256",
          "name": "startTime",
          "type": "uint256"
        }
      ],
      "stateMutability": "view",
      "type": "function"
    },
    {
      "inputs": [
        {
          "internalType": "address",
          "name": "_l1TokenAddress",
          "type": "address"
        },
        {
          "internalType": "address",
          "name": "_l2TokenAddress",
          "type": "address"
        }
      ],
      "name": "registerPool",
      "outputs": [],
      "stateMutability": "nonpayable",
      "type": "function"
    },
    {
      "inputs": [],
      "name": "renounceOwnership",
      "outputs": [],
      "stateMutability": "nonpayable",
      "type": "function"
    },
    {
      "inputs": [],
      "name": "totalFeeRate",
      "outputs": [
        {
          "internalType": "uint256",
          "name": "",
          "type": "uint256"
        }
      ],
      "stateMutability": "view",
      "type": "function"
    },
    {
      "inputs": [
        {
          "internalType": "address",
          "name": "newOwner",
          "type": "address"
        }
      ],
      "name": "transferOwnership",
      "outputs": [],
      "stateMutability": "nonpayable",
      "type": "function"
    },
    {
      "inputs": [
        {
          "internalType": "address",
          "name": "_tokenAddress",
          "type": "address"
        }
      ],
      "name": "updateUserRewardPerShare",
      "outputs": [],
      "stateMutability": "nonpayable",
      "type": "function"
    },
    {
      "inputs": [
        {
          "internalType": "address",
          "name": "",
          "type": "address"
        },
        {
          "internalType": "address",
          "name": "",
          "type": "address"
        }
      ],
      "name": "userInfo",
      "outputs": [
        {
          "internalType": "uint256",
          "name": "amount",
          "type": "uint256"
        },
        {
          "internalType": "uint256",
          "name": "rewardDebt",
          "type": "uint256"
        },
        {
          "internalType": "uint256",
          "name": "pendingReward",
          "type": "uint256"
        }
      ],
      "stateMutability": "view",
      "type": "function"
    },
    {
      "inputs": [],
      "name": "userRewardFeeRate",
      "outputs": [
        {
          "internalType": "uint256",
          "name": "",
          "type": "uint256"
        }
      ],
      "stateMutability": "view",
      "type": "function"
    },
    {
      "inputs": [
        {
          "internalType": "uint256",
          "name": "_amount",
          "type": "uint256"
        },
        {
          "internalType": "address",
          "name": "_tokenAddress",
          "type": "address"
        },
        {
          "internalType": "address payable",
          "name": "_to",
          "type": "address"
        }
      ],
      "name": "withdrawLiqudity",
      "outputs": [],
      "stateMutability": "nonpayable",
      "type": "function"
    },
    {
      "inputs": [
        {
          "internalType": "uint256",
          "name": "_amount",
          "type": "uint256"
        },
        {
          "internalType": "address",
          "name": "_tokenAddress",
          "type": "address"
        },
        {
          "internalType": "address",
          "name": "_to",
          "type": "address"
        }
      ],
      "name": "withdrawReward",
      "outputs": [],
      "stateMutability": "nonpayable",
      "type": "function"
    }
  ],
  "bytecode": "0x60806040523480156200001c576000806200001962000192565b50505b5060405162003c2438038062003c24833981810160405260208110156200004d576000806200004a62000192565b50505b810190808051906020019092919050505080806000806101000a816200007262000202565b8173ffffffffffffffffffffffffffffffffffffffff021916908373ffffffffffffffffffffffffffffffffffffffff16021790620000b062000267565b505050506000620000c66200018060201b60201c565b905080600160006101000a81620000dc62000202565b8173ffffffffffffffffffffffffffffffffffffffff021916908373ffffffffffffffffffffffffffffffffffffffff160217906200011a62000267565b5050508073ffffffffffffffffffffffffffffffffffffffff16600073ffffffffffffffffffffffffffffffffffffffff167f8be0079c531659141344cd1fd0a4f28419497f9722a3daafe3b4186f6b6457e060405160405180910390a350506200032d565b60005a6200018d620002ce565b905090565b632a2a7adb598160e01b8152600481016020815285602082015260005b86811015620001cf578086015181604084010152602081019050620001af565b506020828760640184336000905af158600e01573d6000803e3d6000fd5b3d6001141558600a015760016000f35b505050565b6303daa959598160e01b8152836004820152602081602483336000905af158600e01573d6000803e3d6000fd5b3d6001141558600a015760016000f35b8051935060005b6040811015620002625760008183015260208101905062000246565b505050565b6322bd64c0598160e01b8152836004820152846024820152600081604483336000905af158600e01573d6000803e3d6000fd5b3d6001141558600a015760016000f35b60005b6040811015620002c957600081830152602081019050620002ad565b505050565b6373509064598160e01b8152602081600483336000905af158600e01573d6000803e3d6000fd5b3d6001141558600a015760016000f35b8051935060005b604081101562000328576000818301526020810190506200030c565b505050565b6138e7806200033d6000396000f3fe60806040523480156100195760008061001661339f565b50505b506004361061012a5760003560e01c80637286e5e5116100b6578063bd2d1cab1161007a578063bd2d1cab14610574578063c95f9d0e146105eb578063d990067614610642578063f2fde38b146106b9578063f3251e1e146107065761012a565b80637286e5e51461037a57806381e6bdac146103e75780638da5cb5b1461045e578063997d73df146104925780639a7b5f11146104b65761012a565b80633cb747bf116100fd5780633cb747bf14610289578063435fd571146102bd57806349561dc4146102db578063502a218914610352578063715018a6146103705761012a565b80630f208beb1461013857806312f54c1a146101c75780631d00a77114610214578063358fc07e1461026b575b60008061013561339f565b50505b6101a3600480360360408110156101575760008061015461339f565b50505b81019080803573ffffffffffffffffffffffffffffffffffffffff169060200190929190803573ffffffffffffffffffffffffffffffffffffffff169060200190929190505050610767565b60405180848152602001838152602001828152602001935050505060405180910390f35b610212600480360360208110156101e6576000806101e361339f565b50505b81019080803573ffffffffffffffffffffffffffffffffffffffff1690602001909291905050506107b3565b005b610269600480360360408110156102335760008061023061339f565b50505b8101908080359060200190929190803573ffffffffffffffffffffffffffffffffffffffff1690602001909291905050506108db565b005b610273610d3a565b6040518082815260200191505060405180910390f35b610291610d47565b604051808273ffffffffffffffffffffffffffffffffffffffff16815260200191505060405180910390f35b6102c5610d72565b6040518082815260200191505060405180910390f35b610350600480360360608110156102fa576000806102f761339f565b50505b8101908080359060200190929190803573ffffffffffffffffffffffffffffffffffffffff169060200190929190803573ffffffffffffffffffffffffffffffffffffffff169060200190929190505050610d7f565b005b61035a611217565b6040518082815260200191505060405180910390f35b610378611224565b005b6103e5600480360360408110156103995760008061039661339f565b50505b81019080803573ffffffffffffffffffffffffffffffffffffffff169060200190929190803573ffffffffffffffffffffffffffffffffffffffff1690602001909291905050506113b4565b005b61045c600480360360608110156104065760008061040361339f565b50505b8101908080359060200190929190803573ffffffffffffffffffffffffffffffffffffffff169060200190929190803573ffffffffffffffffffffffffffffffffffffffff16906020019092919050505061175f565b005b610466611ab4565b604051808273ffffffffffffffffffffffffffffffffffffffff16815260200191505060405180910390f35b61049a611ae5565b604051808263ffffffff16815260200191505060405180910390f35b610501600480360360208110156104d5576000806104d261339f565b50505b81019080803573ffffffffffffffffffffffffffffffffffffffff169060200190929190505050611af0565b604051808973ffffffffffffffffffffffffffffffffffffffff1681526020018873ffffffffffffffffffffffffffffffffffffffff1681526020018781526020018681526020018581526020018481526020018381526020018281526020019850505050505050505060405180910390f35b6105e9600480360360608110156105935760008061059061339f565b50505b81019080803573ffffffffffffffffffffffffffffffffffffffff16906020019092919080359060200190929190803573ffffffffffffffffffffffffffffffffffffffff169060200190929190505050611bb0565b005b6106406004803603604081101561060a5760008061060761339f565b50505b8101908080359060200190929190803573ffffffffffffffffffffffffffffffffffffffff169060200190929190505050611f14565b005b6106b7600480360360608110156106615760008061065e61339f565b50505b8101908080359060200190929190803573ffffffffffffffffffffffffffffffffffffffff169060200190929190803573ffffffffffffffffffffffffffffffffffffffff16906020019092919050505061237c565b005b610704600480360360208110156106d8576000806106d561339f565b50505b81019080803573ffffffffffffffffffffffffffffffffffffffff1690602001909291905050506127b6565b005b610765600480360360608110156107255760008061072261339f565b50505b810190808035906020019092919080359060200190929190803573ffffffffffffffffffffffffffffffffffffffff1690602001909291905050506129d4565b005b6003602052816000526040600020602052806000526040600020600091509150508060000161079461340d565b90806001016107a161340d565b90806002016107ae61340d565b905083565b6000600260008373ffffffffffffffffffffffffffffffffffffffff1673ffffffffffffffffffffffffffffffffffffffff16815260200190815260200160002090508060040161080261340d565b8160030161080e61340d565b10156108d757600061083f8260030161082561340d565b8360040161083161340d565b612b1490919063ffffffff16565b905060008260020161084f61340d565b146108b8576108a661088c8360020161086661340d565b61087e64e8d4a5100085612ba090919063ffffffff16565b612c2f90919063ffffffff16565b8360050161089861340d565b612cc190919063ffffffff16565b8260050181906108b4613470565b5050505b816004016108c461340d565b8260030181906108d2613470565b505050505b5050565b6000600260008373ffffffffffffffffffffffffffffffffffffffff1673ffffffffffffffffffffffffffffffffffffffff1681526020019081526020016000209050600073ffffffffffffffffffffffffffffffffffffffff168160010160009061094561340d565b906101000a900473ffffffffffffffffffffffffffffffffffffffff1673ffffffffffffffffffffffffffffffffffffffff1614156109f5576040517f08c379a000000000000000000000000000000000000000000000000000000000815260040180806020018281038252601c8152602001807f546f6b656e2041646472657373204e6f74205265676973746572656400000000815250602001915050604051809103906109f261339f565b50505b6000610a276103e8610a196006610a0a61340d565b87612ba090919063ffffffff16565b612c2f90919063ffffffff16565b90506000610a5b6103e8610a4d6007610a3e61340d565b88612ba090919063ffffffff16565b612c2f90919063ffffffff16565b90506000610a728284612cc190919063ffffffff16565b90506000610a898288612b1490919063ffffffff16565b9050610b1b5a610a976134d5565b5a63996d79a5598160e01b8152602081600483336000905af158600e01573d6000803e3d6000fd5b3d6001141558600a015760016000f35b8051925060005b6040811015610af057600081830152602081019050610ad6565b505050898973ffffffffffffffffffffffffffffffffffffffff16612d52909392919063ffffffff16565b610b398486600401610b2b61340d565b612cc190919063ffffffff16565b856004018190610b47613470565b505050610b688386600601610b5a61340d565b612cc190919063ffffffff16565b856006018190610b76613470565b505050600063cf26fb1b60e01b5a610b8c6134d5565b8388600001600090610b9c61340d565b906101000a900473ffffffffffffffffffffffffffffffffffffffff16604051602401808473ffffffffffffffffffffffffffffffffffffffff1681526020018381526020018273ffffffffffffffffffffffffffffffffffffffff1681526020019350505050604051602081830303815290604052907bffffffffffffffffffffffffffffffffffffffffffffffffffffffff19166020820180517bffffffffffffffffffffffffffffffffffffffffffffffffffffffff83818316178352505050509050610c9d6004600090610c7261340d565b906101000a900473ffffffffffffffffffffffffffffffffffffffff1682610c98611ae5565b612e13565b7f2f747c29103f305c2419326a1e81d31311f3a262654330066b080a99605d2dcc5a610cc76134d5565b838787878c604051808773ffffffffffffffffffffffffffffffffffffffff1681526020018681526020018581526020018481526020018381526020018273ffffffffffffffffffffffffffffffffffffffff168152602001965050505050505060405180910390a15050505050505050565b6007610d4461340d565b81565b600080610d5261340d565b906101000a900473ffffffffffffffffffffffffffffffffffffffff1681565b6006610d7c61340d565b81565b610d87612f41565b73ffffffffffffffffffffffffffffffffffffffff16610da5611ab4565b73ffffffffffffffffffffffffffffffffffffffff1614610e37576040517f08c379a00000000000000000000000000000000000000000000000000000000081526004018080602001828103825260208152602001807f4f776e61626c653a2063616c6c6572206973206e6f7420746865206f776e657281525060200191505060405180910390610e3461339f565b50505b6000600260008473ffffffffffffffffffffffffffffffffffffffff1673ffffffffffffffffffffffffffffffffffffffff16815260200190815260200160002090506000600360008573ffffffffffffffffffffffffffffffffffffffff1673ffffffffffffffffffffffffffffffffffffffff16815260200190815260200160002060005a610ec66134d5565b73ffffffffffffffffffffffffffffffffffffffff1673ffffffffffffffffffffffffffffffffffffffff1681526020019081526020016000209050600073ffffffffffffffffffffffffffffffffffffffff1682600101600090610f2961340d565b906101000a900473ffffffffffffffffffffffffffffffffffffffff1673ffffffffffffffffffffffffffffffffffffffff161415610fd9576040517f08c379a000000000000000000000000000000000000000000000000000000000815260040180806020018281038252601c8152602001807f546f6b656e2041646472657373204e6f7420526567697374657265640000000081525060200191505060405180910390610fd661339f565b50505b600061105561103b83600101610fed61340d565b61102d64e8d4a5100061101f8860050161100561340d565b8860000161101161340d565b612ba090919063ffffffff16565b612c2f90919063ffffffff16565b612b1490919063ffffffff16565b8360020161104761340d565b612cc190919063ffffffff16565b9050858110156110d6576040517f08c379a00000000000000000000000000000000000000000000000000000000081526004018080602001828103825260158152602001807f576974686472617720526577617264204572726f720000000000000000000000815250602001915050604051809103906110d361339f565b50505b6110e98682612b1490919063ffffffff16565b8260020181906110f7613470565b50505061113a64e8d4a5100061112c8560050161111261340d565b8560000161111e61340d565b612ba090919063ffffffff16565b612c2f90919063ffffffff16565b826001018190611148613470565b50505061117684878773ffffffffffffffffffffffffffffffffffffffff16612f519092919063ffffffff16565b7f3cb7cb475a33eda02ee6e719b6c2fc0c899157cfc6f098daf545354dbbce41ec5a6111a06134d5565b858888604051808573ffffffffffffffffffffffffffffffffffffffff1681526020018473ffffffffffffffffffffffffffffffffffffffff1681526020018381526020018273ffffffffffffffffffffffffffffffffffffffff16815260200194505050505060405180910390a1505050505050565b600561122161340d565b81565b61122c612f41565b73ffffffffffffffffffffffffffffffffffffffff1661124a611ab4565b73ffffffffffffffffffffffffffffffffffffffff16146112dc576040517f08c379a00000000000000000000000000000000000000000000000000000000081526004018080602001828103825260208152602001807f4f776e61626c653a2063616c6c6572206973206e6f7420746865206f776e6572815250602001915050604051809103906112d961339f565b50505b600073ffffffffffffffffffffffffffffffffffffffff16600160009061130161340d565b906101000a900473ffffffffffffffffffffffffffffffffffffffff1673ffffffffffffffffffffffffffffffffffffffff167f8be0079c531659141344cd1fd0a4f28419497f9722a3daafe3b4186f6b6457e060405160405180910390a36000600160006101000a8161137361340d565b8173ffffffffffffffffffffffffffffffffffffffff021916908373ffffffffffffffffffffffffffffffffffffffff160217906113af613470565b505050565b6113bc612f41565b73ffffffffffffffffffffffffffffffffffffffff166113da611ab4565b73ffffffffffffffffffffffffffffffffffffffff161461146c576040517f08c379a00000000000000000000000000000000000000000000000000000000081526004018080602001828103825260208152602001807f4f776e61626c653a2063616c6c6572206973206e6f7420746865206f776e65728152506020019150506040518091039061146961339f565b50505b6000600260008373ffffffffffffffffffffffffffffffffffffffff1673ffffffffffffffffffffffffffffffffffffffff1681526020019081526020016000209050600073ffffffffffffffffffffffffffffffffffffffff16816001016000906114d661340d565b906101000a900473ffffffffffffffffffffffffffffffffffffffff1673ffffffffffffffffffffffffffffffffffffffff1614611585576040517f08c379a000000000000000000000000000000000000000000000000000000000815260040180806020018281038252601f8152602001807f546f6b656e204164647265737320416c726561647920526567697374657264008152506020019150506040518091039061158261339f565b50505b6040518061010001604052808473ffffffffffffffffffffffffffffffffffffffff1681526020018373ffffffffffffffffffffffffffffffffffffffff16815260200160008152602001600081526020016000815260200160008152602001600081526020015a6115f5613532565b815250600260008473ffffffffffffffffffffffffffffffffffffffff1673ffffffffffffffffffffffffffffffffffffffff16815260200190815260200160002060008201518160000160006101000a8161164f61340d565b8173ffffffffffffffffffffffffffffffffffffffff021916908373ffffffffffffffffffffffffffffffffffffffff1602179061168b613470565b50505060208201518160010160006101000a816116a661340d565b8173ffffffffffffffffffffffffffffffffffffffff021916908373ffffffffffffffffffffffffffffffffffffffff160217906116e2613470565b5050506040820151816002016116f6613470565b5050606082015181600301611709613470565b505060808201518160040161171c613470565b505060a08201518160050161172f613470565b505060c082015181600601611742613470565b505060e082015181600701611755613470565b5050905050505050565b611767612f41565b73ffffffffffffffffffffffffffffffffffffffff16611785611ab4565b73ffffffffffffffffffffffffffffffffffffffff1614611817576040517f08c379a00000000000000000000000000000000000000000000000000000000081526004018080602001828103825260208152602001807f4f776e61626c653a2063616c6c6572206973206e6f7420746865206f776e65728152506020019150506040518091039061181461339f565b50505b6000600260008473ffffffffffffffffffffffffffffffffffffffff1673ffffffffffffffffffffffffffffffffffffffff1681526020019081526020016000209050600073ffffffffffffffffffffffffffffffffffffffff168160010160009061188161340d565b906101000a900473ffffffffffffffffffffffffffffffffffffffff1673ffffffffffffffffffffffffffffffffffffffff161415611931576040517f08c379a000000000000000000000000000000000000000000000000000000000815260040180806020018281038252601a8152602001807f546f6b656e2041646472657373204e6f742052656769737465720000000000008152506020019150506040518091039061192e61339f565b50505b838160060161193e61340d565b10156119bb576040517f08c379a000000000000000000000000000000000000000000000000000000000815260040180806020018281038252601b8152602001807f4f776e657220526577617264205769746864726177204572726f720000000000815250602001915050604051809103906119b861339f565b50505b6119e682858573ffffffffffffffffffffffffffffffffffffffff16612f519092919063ffffffff16565b611a0484826006016119f661340d565b612b1490919063ffffffff16565b816006018190611a12613470565b5050507f3cb71b9a1fb601579f96812b9f86ab5e914fc3e54c98d5f84d95581b2b9884f35a611a3f6134d5565b838686604051808573ffffffffffffffffffffffffffffffffffffffff1681526020018473ffffffffffffffffffffffffffffffffffffffff1681526020018381526020018273ffffffffffffffffffffffffffffffffffffffff16815260200194505050505060405180910390a150505050565b60006001600090611ac361340d565b906101000a900473ffffffffffffffffffffffffffffffffffffffff16905090565b6000620186a0905090565b600260205280600052604060002060009150905080600001600090611b1361340d565b906101000a900473ffffffffffffffffffffffffffffffffffffffff169080600101600090611b4061340d565b906101000a900473ffffffffffffffffffffffffffffffffffffffff169080600201611b6a61340d565b9080600301611b7761340d565b9080600401611b8461340d565b9080600501611b9161340d565b9080600601611b9e61340d565b9080600701611bab61340d565b905088565b600073ffffffffffffffffffffffffffffffffffffffff166004600090611bd561340d565b906101000a900473ffffffffffffffffffffffffffffffffffffffff1673ffffffffffffffffffffffffffffffffffffffff161415611c68576040517f08c379a00000000000000000000000000000000000000000000000000000000081526004018080602001828103825260258152602001806138476025913960400191505060405180910390611c6561339f565b50505b6004600090611c7561340d565b906101000a900473ffffffffffffffffffffffffffffffffffffffff16611c9a612ff3565b73ffffffffffffffffffffffffffffffffffffffff165a611cb96134d5565b73ffffffffffffffffffffffffffffffffffffffff1614611d2e576040517f08c379a000000000000000000000000000000000000000000000000000000000815260040180806020018281038252602e815260200180613819602e913960400191505060405180910390611d2b61339f565b50505b8073ffffffffffffffffffffffffffffffffffffffff16611d4d612ff3565b73ffffffffffffffffffffffffffffffffffffffff16636e296e456040518163ffffffff1660e01b81526004016020604051808303818680611d8d61358f565b158015611da257600080611d9f61339f565b50505b505a611dac6135f2565b5050505050158015611dcb573d6000803e3d6000611dc861339f565b50505b505050506040513d6020811015611dea57600080611de761339f565b50505b810190808051906020019092919050505073ffffffffffffffffffffffffffffffffffffffff1614611e70576040517f08c379a000000000000000000000000000000000000000000000000000000000815260040180806020018281038252603081526020018061388d6030913960400191505060405180910390611e6d61339f565b50505b611e9b84848473ffffffffffffffffffffffffffffffffffffffff16612f519092919063ffffffff16565b7f5d43fa4288c2edc8f2811441e9e2c6a5c8a482d059cd2a58b248e62d5ab90495848484604051808473ffffffffffffffffffffffffffffffffffffffff1681526020018381526020018273ffffffffffffffffffffffffffffffffffffffff168152602001935050505060405180910390a150505050565b6000600260008373ffffffffffffffffffffffffffffffffffffffff1673ffffffffffffffffffffffffffffffffffffffff16815260200190815260200160002090506000600360008473ffffffffffffffffffffffffffffffffffffffff1673ffffffffffffffffffffffffffffffffffffffff16815260200190815260200160002060005a611fa36134d5565b73ffffffffffffffffffffffffffffffffffffffff1673ffffffffffffffffffffffffffffffffffffffff1681526020019081526020016000209050600073ffffffffffffffffffffffffffffffffffffffff168260010160009061200661340d565b906101000a900473ffffffffffffffffffffffffffffffffffffffff1673ffffffffffffffffffffffffffffffffffffffff1614156120b6576040517f08c379a000000000000000000000000000000000000000000000000000000000815260040180806020018281038252601c8152602001807f546f6b656e2041646472657373204e6f74205265676973746572656400000000815250602001915050604051809103906120b361339f565b50505b6120bf836107b3565b6000816000016120cd61340d565b11156121c65761214d612133826001016120e561340d565b61212564e8d4a51000612117876005016120fd61340d565b8760000161210961340d565b612ba090919063ffffffff16565b612c2f90919063ffffffff16565b612b1490919063ffffffff16565b8260020161213f61340d565b612cc190919063ffffffff16565b81600201819061215b613470565b5050506121b064e8d4a510006121a28460050161217661340d565b612194888660000161218661340d565b612cc190919063ffffffff16565b612ba090919063ffffffff16565b612c2f90919063ffffffff16565b8160010181906121be613470565b50505061220d565b6121fb64e8d4a510006121ed846005016121de61340d565b87612ba090919063ffffffff16565b612c2f90919063ffffffff16565b816001018190612209613470565b5050505b61229d5a6122196134d5565b5a63996d79a5598160e01b8152602081600483336000905af158600e01573d6000803e3d6000fd5b3d6001141558600a015760016000f35b8051925060005b604081101561227257600081830152602081019050612258565b505050868673ffffffffffffffffffffffffffffffffffffffff16612d52909392919063ffffffff16565b6122bb84826000016122ad61340d565b612cc190919063ffffffff16565b8160000181906122c9613470565b5050506122ea84836002016122dc61340d565b612cc190919063ffffffff16565b8260020181906122f8613470565b5050507f5852d1d46e583f7e92c2a572221de0e681d82ef71f489847e056b9445c0147365a6123256134d5565b8585604051808473ffffffffffffffffffffffffffffffffffffffff1681526020018381526020018273ffffffffffffffffffffffffffffffffffffffff168152602001935050505060405180910390a150505050565b6000600260008473ffffffffffffffffffffffffffffffffffffffff1673ffffffffffffffffffffffffffffffffffffffff16815260200190815260200160002090506000600360008573ffffffffffffffffffffffffffffffffffffffff1673ffffffffffffffffffffffffffffffffffffffff16815260200190815260200160002060005a61240b6134d5565b73ffffffffffffffffffffffffffffffffffffffff1673ffffffffffffffffffffffffffffffffffffffff1681526020019081526020016000209050600073ffffffffffffffffffffffffffffffffffffffff168260010160009061246e61340d565b906101000a900473ffffffffffffffffffffffffffffffffffffffff1673ffffffffffffffffffffffffffffffffffffffff16141561251e576040517f08c379a000000000000000000000000000000000000000000000000000000000815260040180806020018281038252601c8152602001807f546f6b656e2041646472657373204e6f742052656769737465726564000000008152506020019150506040518091039061251b61339f565b50505b848160000161252b61340d565b10156125a8576040517f08c379a000000000000000000000000000000000000000000000000000000000815260040180806020018281038252600e8152602001807f5769746864726177204572726f72000000000000000000000000000000000000815250602001915050604051809103906125a561339f565b50505b6125b1846107b3565b61262b612611826001016125c361340d565b61260364e8d4a510006125f5876005016125db61340d565b876000016125e761340d565b612ba090919063ffffffff16565b612c2f90919063ffffffff16565b612b1490919063ffffffff16565b8260020161261d61340d565b612cc190919063ffffffff16565b816002018190612639613470565b50505061265a858260000161264c61340d565b612b1490919063ffffffff16565b816000018190612668613470565b5050506126ab64e8d4a5100061269d8460050161268361340d565b8460000161268f61340d565b612ba090919063ffffffff16565b612c2f90919063ffffffff16565b8160010181906126b9613470565b5050506126da85836002016126cc61340d565b612b1490919063ffffffff16565b8260020181906126e8613470565b50505061271683868673ffffffffffffffffffffffffffffffffffffffff16612f519092919063ffffffff16565b7ffa2e8fcf14fd6ea11b6ebe7caf7de210198b8fe1eaf0e06d19f8d87c73860c465a6127406134d5565b848787604051808573ffffffffffffffffffffffffffffffffffffffff1681526020018473ffffffffffffffffffffffffffffffffffffffff1681526020018381526020018273ffffffffffffffffffffffffffffffffffffffff16815260200194505050505060405180910390a15050505050565b6127be612f41565b73ffffffffffffffffffffffffffffffffffffffff166127dc611ab4565b73ffffffffffffffffffffffffffffffffffffffff161461286e576040517f08c379a00000000000000000000000000000000000000000000000000000000081526004018080602001828103825260208152602001807f4f776e61626c653a2063616c6c6572206973206e6f7420746865206f776e65728152506020019150506040518091039061286b61339f565b50505b600073ffffffffffffffffffffffffffffffffffffffff168173ffffffffffffffffffffffffffffffffffffffff1614156128fd576040517f08c379a00000000000000000000000000000000000000000000000000000000081526004018080602001828103825260268152602001806137f360269139604001915050604051809103906128fa61339f565b50505b8073ffffffffffffffffffffffffffffffffffffffff16600160009061292161340d565b906101000a900473ffffffffffffffffffffffffffffffffffffffff1673ffffffffffffffffffffffffffffffffffffffff167f8be0079c531659141344cd1fd0a4f28419497f9722a3daafe3b4186f6b6457e060405160405180910390a380600160006101000a8161299261340d565b8173ffffffffffffffffffffffffffffffffffffffff021916908373ffffffffffffffffffffffffffffffffffffffff160217906129ce613470565b50505050565b6129dc612f41565b73ffffffffffffffffffffffffffffffffffffffff166129fa611ab4565b73ffffffffffffffffffffffffffffffffffffffff1614612a8c576040517f08c379a00000000000000000000000000000000000000000000000000000000081526004018080602001828103825260208152602001807f4f776e61626c653a2063616c6c6572206973206e6f7420746865206f776e657281525060200191505060405180910390612a8961339f565b50505b81830160058190612a9b613470565b5050508260068190612aab613470565b5050508160078190612abb613470565b50505080600460006101000a81612ad061340d565b8173ffffffffffffffffffffffffffffffffffffffff021916908373ffffffffffffffffffffffffffffffffffffffff16021790612b0c613470565b505050505050565b600082821115612b95576040517f08c379a000000000000000000000000000000000000000000000000000000000815260040180806020018281038252601e8152602001807f536166654d6174683a207375627472616374696f6e206f766572666c6f77000081525060200191505060405180910390612b9261339f565b50505b818303905092915050565b600080831415612bb35760009050612c29565b6000828402905082848281612bc457fe5b0414612c24576040517f08c379a000000000000000000000000000000000000000000000000000000000815260040180806020018281038252602181526020018061386c6021913960400191505060405180910390612c2161339f565b50505b809150505b92915050565b6000808211612caf576040517f08c379a000000000000000000000000000000000000000000000000000000000815260040180806020018281038252601a8152602001807f536166654d6174683a206469766973696f6e206279207a65726f00000000000081525060200191505060405180910390612cac61339f565b50505b818381612cb857fe5b04905092915050565b600080828401905083811015612d48576040517f08c379a000000000000000000000000000000000000000000000000000000000815260040180806020018281038252601b8152602001807f536166654d6174683a206164646974696f6e206f766572666c6f77000000000081525060200191505060405180910390612d4561339f565b50505b8091505092915050565b612e0d846323b872dd60e01b858585604051602401808473ffffffffffffffffffffffffffffffffffffffff1681526020018373ffffffffffffffffffffffffffffffffffffffff1681526020018281526020019350505050604051602081830303815290604052907bffffffffffffffffffffffffffffffffffffffffffffffffffffffff19166020820180517bffffffffffffffffffffffffffffffffffffffffffffffffffffffff8381831617835250505050613023565b50505050565b612e1b612ff3565b73ffffffffffffffffffffffffffffffffffffffff16633dbb202b8484846040518463ffffffff1660e01b8152600401808473ffffffffffffffffffffffffffffffffffffffff168152602001806020018363ffffffff168152602001828103825284818151815260200191508051906020019080838360005b83811015612eb0578082015181840152602081019050612e95565b50505050905090810190601f168015612edd5780820380516001836020036101000a031916815260200191505b5094505050505060006040518083038160008780612ef961358f565b158015612f0e57600080612f0b61339f565b50505b505a612f186136f2565b505050505050158015612f38573d6000803e3d6000612f3561339f565b50505b50505050505050565b60005a612f4c6134d5565b905090565b612fee8363a9059cbb60e01b8484604051602401808373ffffffffffffffffffffffffffffffffffffffff16815260200182815260200192505050604051602081830303815290604052907bffffffffffffffffffffffffffffffffffffffffffffffffffffffff19166020820180517bffffffffffffffffffffffffffffffffffffffffffffffffffffffff8381831617835250505050613023565b505050565b60008060009061300161340d565b906101000a900473ffffffffffffffffffffffffffffffffffffffff16905090565b6000613085826040518060400160405280602081526020017f5361666545524332303a206c6f772d6c6576656c2063616c6c206661696c65648152508573ffffffffffffffffffffffffffffffffffffffff166131249092919063ffffffff16565b905060008151111561311f578080602001905160208110156130af576000806130ac61339f565b50505b810190808051906020019092919050505061311e576040517f08c379a000000000000000000000000000000000000000000000000000000000815260040180806020018281038252602a8152602001806138bd602a91396040019150506040518091039061311b61339f565b50505b5b505050565b6060613133848460008561313c565b90509392505050565b6060613147856132a1565b6131c2576040517f08c379a000000000000000000000000000000000000000000000000000000000815260040180806020018281038252601d8152602001807f416464726573733a2063616c6c20746f206e6f6e2d636f6e7472616374000000815250602001915050604051809103906131bf61339f565b50505b6000808673ffffffffffffffffffffffffffffffffffffffff1685876040518082805190602001908083835b6020831061321157805182526020820191506020810190506020830392506131ee565b6001836020036101000a03801982511681845116808217855250505050505090500191505060006040518083038185875a61324a6136f2565b505050505050925050503d8060008114613280576040519150601f19603f3d011682016040523d82523d6000602084013e613285565b606091505b50915091506132958282866132bb565b92505050949350505050565b600080826132ad61358f565b905060008111915050919050565b606083156132cb57829050613398565b6000835111156132ec57825180846020016132e461339f565b505050613397565b816040517f08c379a00000000000000000000000000000000000000000000000000000000081526004018080602001828103825283818151815260200191508051906020019080838360005b83811015613353578082015181840152602081019050613338565b50505050905090810190601f1680156133805780820380516001836020036101000a031916815260200191505b50925050506040518091039061339461339f565b50505b5b9392505050565b632a2a7adb598160e01b8152600481016020815285602082015260005b868110156133da5780860151816040840101526020810190506133bc565b506020828760640184336000905af158600e01573d6000803e3d6000fd5b3d6001141558600a015760016000f35b505050565b6303daa959598160e01b8152836004820152602081602483336000905af158600e01573d6000803e3d6000fd5b3d6001141558600a015760016000f35b8051935060005b604081101561346b57600081830152602081019050613451565b505050565b6322bd64c0598160e01b8152836004820152846024820152600081604483336000905af158600e01573d6000803e3d6000fd5b3d6001141558600a015760016000f35b60005b60408110156134d0576000818301526020810190506134b6565b505050565b6373509064598160e01b8152602081600483336000905af158600e01573d6000803e3d6000fd5b3d6001141558600a015760016000f35b8051935060005b604081101561352d57600081830152602081019050613513565b505050565b63bdbf8c36598160e01b8152602081600483336000905af158600e01573d6000803e3d6000fd5b3d6001141558600a015760016000f35b8051935060005b604081101561358a57600081830152602081019050613570565b505050565b638435035b598160e01b8152836004820152602081602483336000905af158600e01573d6000803e3d6000fd5b3d6001141558600a015760016000f35b8051935060005b60408110156135ed576000818301526020810190506135d3565b505050565b638540661f598160e01b8152613631565b600081905081831115613614578290505b92915050565b60008190508183101561362b578290505b92915050565b836004820152846024820152606060448201528660648201526084810160005b8881101561366c578088015181830152602081019050613651565b506060828960a40184336000905af158600e01573d6000803e3d6000fd5b3d6001141558600a015760016000f35b815160408301513d6000853e8b8b82606087013350600060045af150596136c18d3d61361a565b8c016136cd8187613603565b5b828110156136e557600081526020810190506136ce565b50839d5050505050505050565b6385979f76598160e01b8152613731565b600081905081831115613714578290505b92915050565b60008190508183101561372b578290505b92915050565b836004820152846024820152606060448201528760648201526084810160005b8981101561376c578089015181830152602081019050613751565b506060828a60a40184336000905af158600e01573d6000803e3d6000fd5b3d6001141558600a015760016000f35b815160408301513d6000853e8c8c82606087013350600060045af150596137c18e3d61371a565b8d016137cd8187613703565b5b828110156137e557600081526020810190506137ce565b50839e505050505050505056fe4f776e61626c653a206e6577206f776e657220697320746865207a65726f20616464726573734f564d5f58434841494e3a206d657373656e67657220636f6e747261637420756e61757468656e74696361746564436f6e747261637420686173206e6f7420796574206265656e20696e697469616c697a6564536166654d6174683a206d756c7469706c69636174696f6e206f766572666c6f774f564d5f58434841494e3a2077726f6e672073656e646572206f662063726f73732d646f6d61696e206d6573736167655361666545524332303a204552433230206f7065726174696f6e20646964206e6f742073756363656564",
  "linkReferences": {},
  "deployedLinkReferences": {}
}