{
  "_format": "hh-sol-artifact-1",
  "contractName": "L1LiquidityPool",
  "sourceName": "contracts/LP/L1LiquidityPool.sol",
  "abi": [
    {
      "inputs": [],
      "stateMutability": "nonpayable",
      "type": "constructor"
    },
    {
      "anonymous": false,
      "inputs": [
        {
          "indexed": false,
          "internalType": "address",
          "name": "sender",
          "type": "address"
        },
        {
          "indexed": false,
          "internalType": "uint256",
          "name": "amount",
          "type": "uint256"
        },
        {
          "indexed": false,
          "internalType": "address",
          "name": "tokenAddress",
          "type": "address"
        }
      ],
      "name": "AddLiquidity",
      "type": "event"
    },
    {
      "anonymous": false,
      "inputs": [
        {
          "indexed": false,
          "internalType": "address",
          "name": "sender",
          "type": "address"
        },
        {
          "indexed": false,
          "internalType": "uint256",
          "name": "receivedAmount",
          "type": "uint256"
        },
        {
          "indexed": false,
          "internalType": "address",
          "name": "tokenAddress",
          "type": "address"
        }
      ],
      "name": "ClientDepositL1",
      "type": "event"
    },
    {
      "anonymous": false,
      "inputs": [
        {
          "indexed": false,
          "internalType": "address",
          "name": "sender",
          "type": "address"
        },
        {
          "indexed": false,
          "internalType": "uint256",
          "name": "amount",
          "type": "uint256"
        },
        {
          "indexed": false,
          "internalType": "uint256",
          "name": "userRewardFee",
          "type": "uint256"
        },
        {
          "indexed": false,
          "internalType": "uint256",
          "name": "ownerRewardFee",
          "type": "uint256"
        },
        {
          "indexed": false,
          "internalType": "uint256",
          "name": "totalFee",
          "type": "uint256"
        },
        {
          "indexed": false,
          "internalType": "address",
          "name": "tokenAddress",
          "type": "address"
        }
      ],
      "name": "ClientPayL1",
      "type": "event"
    },
    {
      "anonymous": false,
      "inputs": [
        {
          "indexed": false,
          "internalType": "address",
          "name": "sender",
          "type": "address"
        },
        {
          "indexed": false,
          "internalType": "uint256",
          "name": "amount",
          "type": "uint256"
        },
        {
          "indexed": false,
          "internalType": "uint256",
          "name": "userRewardFee",
          "type": "uint256"
        },
        {
          "indexed": false,
          "internalType": "uint256",
          "name": "ownerRewardFee",
          "type": "uint256"
        },
        {
          "indexed": false,
          "internalType": "uint256",
          "name": "totalFee",
          "type": "uint256"
        },
        {
          "indexed": false,
          "internalType": "address",
          "name": "tokenAddress",
          "type": "address"
        }
      ],
      "name": "ClientPayL1Settlement",
      "type": "event"
    },
    {
      "anonymous": false,
      "inputs": [
        {
          "indexed": false,
          "internalType": "address",
          "name": "sender",
          "type": "address"
        },
        {
          "indexed": false,
          "internalType": "address",
          "name": "receiver",
          "type": "address"
        },
        {
          "indexed": false,
          "internalType": "uint256",
          "name": "amount",
          "type": "uint256"
        },
        {
          "indexed": false,
          "internalType": "address",
          "name": "tokenAddress",
          "type": "address"
        }
      ],
      "name": "OwnerRecoverFee",
      "type": "event"
    },
    {
      "anonymous": false,
      "inputs": [
        {
          "indexed": false,
          "internalType": "address",
          "name": "sender",
          "type": "address"
        },
        {
          "indexed": false,
          "internalType": "address",
          "name": "receiver",
          "type": "address"
        },
        {
          "indexed": false,
          "internalType": "uint256",
          "name": "amount",
          "type": "uint256"
        },
        {
          "indexed": false,
          "internalType": "address",
          "name": "tokenAddress",
          "type": "address"
        }
      ],
      "name": "WithdrawLiquidity",
      "type": "event"
    },
    {
      "anonymous": false,
      "inputs": [
        {
          "indexed": false,
          "internalType": "address",
          "name": "sender",
          "type": "address"
        },
        {
          "indexed": false,
          "internalType": "address",
          "name": "receiver",
          "type": "address"
        },
        {
          "indexed": false,
          "internalType": "uint256",
          "name": "amount",
          "type": "uint256"
        },
        {
          "indexed": false,
          "internalType": "address",
          "name": "tokenAddress",
          "type": "address"
        }
      ],
      "name": "WithdrawReward",
      "type": "event"
    },
    {
      "inputs": [],
      "name": "L2LiquidityPoolAddress",
      "outputs": [
        {
          "internalType": "address",
          "name": "",
          "type": "address"
        }
      ],
      "stateMutability": "view",
      "type": "function"
    },
    {
      "inputs": [],
      "name": "SAFE_GAS_STIPEND",
      "outputs": [
        {
          "internalType": "uint256",
          "name": "",
          "type": "uint256"
        }
      ],
      "stateMutability": "view",
      "type": "function"
    },
    {
      "inputs": [],
      "name": "SETTLEMENT_L2_GAS",
      "outputs": [
        {
          "internalType": "uint32",
          "name": "",
          "type": "uint32"
        }
      ],
      "stateMutability": "view",
      "type": "function"
    },
    {
      "inputs": [
        {
          "internalType": "uint256",
          "name": "_amount",
          "type": "uint256"
        },
        {
          "internalType": "address",
          "name": "_tokenAddress",
          "type": "address"
        }
      ],
      "name": "addLiquidity",
      "outputs": [],
      "stateMutability": "payable",
      "type": "function"
    },
    {
      "inputs": [
        {
          "internalType": "uint256",
          "name": "_amount",
          "type": "uint256"
        },
        {
          "internalType": "address",
          "name": "_tokenAddress",
          "type": "address"
        }
      ],
      "name": "clientDepositL1",
      "outputs": [],
      "stateMutability": "payable",
      "type": "function"
    },
    {
      "inputs": [
        {
          "internalType": "address payable",
          "name": "_to",
          "type": "address"
        },
        {
          "internalType": "uint256",
          "name": "_amount",
          "type": "uint256"
        },
        {
          "internalType": "address",
          "name": "_tokenAddress",
          "type": "address"
        }
      ],
      "name": "clientPayL1",
      "outputs": [],
      "stateMutability": "nonpayable",
      "type": "function"
    },
    {
      "inputs": [
        {
          "internalType": "address payable",
          "name": "_to",
          "type": "address"
        },
        {
          "internalType": "uint256",
          "name": "_amount",
          "type": "uint256"
        },
        {
          "internalType": "address",
          "name": "_tokenAddress",
          "type": "address"
        }
      ],
      "name": "clientPayL1Settlement",
      "outputs": [],
      "stateMutability": "nonpayable",
      "type": "function"
    },
    {
      "inputs": [
        {
          "internalType": "uint256",
          "name": "_userRewardFeeRate",
          "type": "uint256"
        },
        {
          "internalType": "uint256",
          "name": "_ownerRewardFeeRate",
          "type": "uint256"
        }
      ],
      "name": "configureFee",
      "outputs": [],
      "stateMutability": "nonpayable",
      "type": "function"
    },
    {
      "inputs": [
        {
          "internalType": "uint32",
          "name": "_l2GasFee",
          "type": "uint32"
        },
        {
          "internalType": "uint256",
          "name": "_safeGas",
          "type": "uint256"
        }
      ],
      "name": "configureGas",
      "outputs": [],
      "stateMutability": "nonpayable",
      "type": "function"
    },
    {
      "inputs": [
        {
          "internalType": "address",
          "name": "_l1CrossDomainMessenger",
          "type": "address"
        },
        {
          "internalType": "address",
          "name": "_l1CrossDomainMessengerFast",
          "type": "address"
        },
        {
          "internalType": "address",
          "name": "_L2LiquidityPoolAddress",
          "type": "address"
        }
      ],
      "name": "initialize",
      "outputs": [],
      "stateMutability": "nonpayable",
      "type": "function"
    },
    {
      "inputs": [],
      "name": "l1CrossDomainMessenger",
      "outputs": [
        {
          "internalType": "address",
          "name": "",
          "type": "address"
        }
      ],
      "stateMutability": "view",
      "type": "function"
    },
    {
      "inputs": [],
      "name": "owner",
      "outputs": [
        {
          "internalType": "address",
          "name": "",
          "type": "address"
        }
      ],
      "stateMutability": "view",
      "type": "function"
    },
    {
      "inputs": [
        {
          "internalType": "uint256",
          "name": "_amount",
          "type": "uint256"
        },
        {
          "internalType": "address",
          "name": "_tokenAddress",
          "type": "address"
        },
        {
          "internalType": "address",
          "name": "_to",
          "type": "address"
        }
      ],
      "name": "ownerRecoverFee",
      "outputs": [],
      "stateMutability": "nonpayable",
      "type": "function"
    },
    {
      "inputs": [],
      "name": "ownerRewardFeeRate",
      "outputs": [
        {
          "internalType": "uint256",
          "name": "",
          "type": "uint256"
        }
      ],
      "stateMutability": "view",
      "type": "function"
    },
    {
      "inputs": [
        {
          "internalType": "address",
          "name": "",
          "type": "address"
        }
      ],
      "name": "poolInfo",
      "outputs": [
        {
          "internalType": "address",
          "name": "l1TokenAddress",
          "type": "address"
        },
        {
          "internalType": "address",
          "name": "l2TokenAddress",
          "type": "address"
        },
        {
          "internalType": "uint256",
          "name": "userDepositAmount",
          "type": "uint256"
        },
        {
          "internalType": "uint256",
          "name": "lastAccUserReward",
          "type": "uint256"
        },
        {
          "internalType": "uint256",
          "name": "accUserReward",
          "type": "uint256"
        },
        {
          "internalType": "uint256",
          "name": "accUserRewardPerShare",
          "type": "uint256"
        },
        {
          "internalType": "uint256",
          "name": "accOwnerReward",
          "type": "uint256"
        },
        {
          "internalType": "uint256",
          "name": "startTime",
          "type": "uint256"
        }
      ],
      "stateMutability": "view",
      "type": "function"
    },
    {
      "inputs": [
        {
          "internalType": "address",
          "name": "_l1TokenAddress",
          "type": "address"
        },
        {
          "internalType": "address",
          "name": "_l2TokenAddress",
          "type": "address"
        }
      ],
      "name": "registerPool",
      "outputs": [],
      "stateMutability": "nonpayable",
      "type": "function"
    },
    {
      "inputs": [],
      "name": "relayerMessenger",
      "outputs": [
        {
          "internalType": "address",
          "name": "",
          "type": "address"
        }
      ],
      "stateMutability": "view",
      "type": "function"
    },
    {
      "inputs": [],
      "name": "senderMessenger",
      "outputs": [
        {
          "internalType": "address",
          "name": "",
          "type": "address"
        }
      ],
      "stateMutability": "view",
      "type": "function"
    },
    {
      "inputs": [
        {
          "internalType": "address",
          "name": "_newOwner",
          "type": "address"
        }
      ],
      "name": "transferOwnership",
      "outputs": [],
      "stateMutability": "nonpayable",
      "type": "function"
    },
    {
      "inputs": [
        {
          "internalType": "address",
          "name": "_tokenAddress",
          "type": "address"
        }
      ],
      "name": "updateUserRewardPerShare",
      "outputs": [],
      "stateMutability": "nonpayable",
      "type": "function"
    },
    {
      "inputs": [
        {
          "internalType": "address",
          "name": "",
          "type": "address"
        },
        {
          "internalType": "address",
          "name": "",
          "type": "address"
        }
      ],
      "name": "userInfo",
      "outputs": [
        {
          "internalType": "uint256",
          "name": "amount",
          "type": "uint256"
        },
        {
          "internalType": "uint256",
          "name": "rewardDebt",
          "type": "uint256"
        },
        {
          "internalType": "uint256",
          "name": "pendingReward",
          "type": "uint256"
        }
      ],
      "stateMutability": "view",
      "type": "function"
    },
    {
      "inputs": [],
      "name": "userRewardFeeRate",
      "outputs": [
        {
          "internalType": "uint256",
          "name": "",
          "type": "uint256"
        }
      ],
      "stateMutability": "view",
      "type": "function"
    },
    {
      "inputs": [
        {
          "internalType": "uint256",
          "name": "_amount",
          "type": "uint256"
        },
        {
          "internalType": "address",
          "name": "_tokenAddress",
          "type": "address"
        },
        {
          "internalType": "address payable",
          "name": "_to",
          "type": "address"
        }
      ],
      "name": "withdrawLiquidity",
      "outputs": [],
      "stateMutability": "nonpayable",
      "type": "function"
    },
    {
      "inputs": [
        {
          "internalType": "uint256",
          "name": "_amount",
          "type": "uint256"
        },
        {
          "internalType": "address",
          "name": "_tokenAddress",
          "type": "address"
        },
        {
          "internalType": "address",
          "name": "_to",
          "type": "address"
        }
      ],
      "name": "withdrawReward",
      "outputs": [],
      "stateMutability": "nonpayable",
      "type": "function"
    }
  ],
  "bytecode": "0x608060405234801561001057600080fd5b50600080816000806101000a81548173ffffffffffffffffffffffffffffffffffffffff021916908373ffffffffffffffffffffffffffffffffffffffff16021790555080600160006101000a81548173ffffffffffffffffffffffffffffffffffffffff021916908373ffffffffffffffffffffffffffffffffffffffff160217905550505061402c806100a66000396000f3fe60806040526004361061014b5760003560e01c806381e6bdac116100b6578063cf26fb1b1161006f578063cf26fb1b14610464578063d04a966a1461048d578063d1dd871a146104b8578063f2fde38b146104e1578063f64b5f441461050a578063f72e5aa0146105265761014b565b806381e6bdac1461035c5780638da5cb5b146103855780639a7b5f11146103b0578063a7119869146103f4578063c0c53b8b1461041f578063c95f9d0e146104485761014b565b8063508e01c411610108578063508e01c414610260578063513f31321461028b57806353174cc1146102b657806368be42ca146102df5780637286e5e514610308578063818c021e146103315761014b565b80630f208beb1461015057806312f54c1a1461018f578063358fc07e146101b8578063369fd102146101e3578063435fd5711461020c57806349561dc414610237575b600080fd5b34801561015c57600080fd5b50610177600480360381019061017291906135dc565b610551565b60405161018693929190613def565b60405180910390f35b34801561019b57600080fd5b506101b660048036038101906101b19190613564565b610588565b005b3480156101c457600080fd5b506101cd610666565b6040516101da9190613dd4565b60405180910390f35b3480156101ef57600080fd5b5061020a600480360381019061020591906137a6565b61066c565b005b34801561021857600080fd5b50610221610813565b60405161022e9190613dd4565b60405180910390f35b34801561024357600080fd5b5061025e600480360381019061025991906136cc565b610819565b005b34801561026c57600080fd5b50610275610bc5565b6040516102829190613ac2565b60405180910390f35b34801561029757600080fd5b506102a0610be9565b6040516102ad9190613dd4565b60405180910390f35b3480156102c257600080fd5b506102dd60048036038101906102d8919061358d565b610bef565b005b3480156102eb57600080fd5b506103066004803603810190610301919061371b565b611013565b005b34801561031457600080fd5b5061032f600480360381019061032a91906135dc565b6113f2565b005b34801561033d57600080fd5b5061034661172d565b6040516103539190613ac2565b60405180910390f35b34801561036857600080fd5b50610383600480360381019061037e91906136cc565b611753565b005b34801561039157600080fd5b5061039a611ad2565b6040516103a79190613ac2565b60405180910390f35b3480156103bc57600080fd5b506103d760048036038101906103d29190613564565b611af8565b6040516103eb989796959493929190613c36565b60405180910390f35b34801561040057600080fd5b50610409611b80565b6040516104169190613ac2565b60405180910390f35b34801561042b57600080fd5b5061044660048036038101906104419190613618565b611ba6565b005b610462600480360381019061045d9190613690565b611e43565b005b34801561047057600080fd5b5061048b6004803603810190610486919061358d565b61218f565b005b34801561049957600080fd5b506104a261278d565b6040516104af9190613e26565b60405180910390f35b3480156104c457600080fd5b506104df60048036038101906104da919061376a565b6127a3565b005b3480156104ed57600080fd5b5061050860048036038101906105039190613564565b612930565b005b610524600480360381019061051f9190613690565b612a5d565b005b34801561053257600080fd5b5061053b612cc8565b6040516105489190613ac2565b60405180910390f35b6003602052816000526040600020602052806000526040600020600091509150508060000154908060010154908060020154905083565b6000600260008373ffffffffffffffffffffffffffffffffffffffff1673ffffffffffffffffffffffffffffffffffffffff16815260200190815260200160002090508060040154816003015410156106625760006105f882600301548360040154612cee90919063ffffffff16565b905060008260020154146106535761064a610637836002015461062964e8d4a5100085612d7190919063ffffffff16565b612df790919063ffffffff16565b8360050154612e8090919063ffffffff16565b82600501819055505b81600401548260030181905550505b5050565b60075481565b600460009054906101000a900473ffffffffffffffffffffffffffffffffffffffff1673ffffffffffffffffffffffffffffffffffffffff163373ffffffffffffffffffffffffffffffffffffffff1614806107165750600073ffffffffffffffffffffffffffffffffffffffff16600460009054906101000a900473ffffffffffffffffffffffffffffffffffffffff1673ffffffffffffffffffffffffffffffffffffffff16145b610755576040517f08c379a000000000000000000000000000000000000000000000000000000000815260040161074c90613d94565b60405180910390fd5b600073ffffffffffffffffffffffffffffffffffffffff16600560009054906101000a900473ffffffffffffffffffffffffffffffffffffffff1673ffffffffffffffffffffffffffffffffffffffff1614156107e7576040517f08c379a00000000000000000000000000000000000000000000000000000000081526004016107de90613d54565b60405180910390fd5b81600860006101000a81548163ffffffff021916908363ffffffff160217905550806009819055505050565b60065481565b6000600260008473ffffffffffffffffffffffffffffffffffffffff1673ffffffffffffffffffffffffffffffffffffffff16815260200190815260200160002090506000600360008573ffffffffffffffffffffffffffffffffffffffff1673ffffffffffffffffffffffffffffffffffffffff16815260200190815260200160002060003373ffffffffffffffffffffffffffffffffffffffff1673ffffffffffffffffffffffffffffffffffffffff1681526020019081526020016000209050600073ffffffffffffffffffffffffffffffffffffffff168260010160009054906101000a900473ffffffffffffffffffffffffffffffffffffffff1673ffffffffffffffffffffffffffffffffffffffff161415610970576040517f08c379a000000000000000000000000000000000000000000000000000000000815260040161096790613d14565b60405180910390fd5b60006109d06109bd83600101546109af64e8d4a510006109a188600501548860000154612d7190919063ffffffff16565b612df790919063ffffffff16565b612cee90919063ffffffff16565b8360020154612e8090919063ffffffff16565b905085811015610a15576040517f08c379a0000000000000000000000000000000000000000000000000000000008152600401610a0c90613d74565b60405180910390fd5b610a288682612cee90919063ffffffff16565b8260020181905550610a6264e8d4a51000610a5485600501548560000154612d7190919063ffffffff16565b612df790919063ffffffff16565b8260010181905550600073ffffffffffffffffffffffffffffffffffffffff168573ffffffffffffffffffffffffffffffffffffffff1614610ace57610ac984878773ffffffffffffffffffffffffffffffffffffffff16612f089092919063ffffffff16565b610b80565b60008473ffffffffffffffffffffffffffffffffffffffff1660095488604051610af790613aad565b600060405180830381858888f193505050503d8060008114610b35576040519150601f19603f3d011682016040523d82523d6000602084013e610b3a565b606091505b5050905080610b7e576040517f08c379a0000000000000000000000000000000000000000000000000000000008152600401610b7590613d34565b60405180910390fd5b505b7f3cb7cb475a33eda02ee6e719b6c2fc0c899157cfc6f098daf545354dbbce41ec33858888604051610bb59493929190613b22565b60405180910390a1505050505050565b60008054906101000a900473ffffffffffffffffffffffffffffffffffffffff1681565b60095481565b600560009054906101000a900473ffffffffffffffffffffffffffffffffffffffff16610c1a612faa565b73ffffffffffffffffffffffffffffffffffffffff163373ffffffffffffffffffffffffffffffffffffffff1614610c9d576040517f08c379a000000000000000000000000000000000000000000000000000000000815260040180806020018281038252602e815260200180613f4e602e913960400191505060405180910390fd5b8073ffffffffffffffffffffffffffffffffffffffff16610cbc612faa565b73ffffffffffffffffffffffffffffffffffffffff16636e296e456040518163ffffffff1660e01b815260040160206040518083038186803b158015610d0157600080fd5b505afa158015610d15573d6000803e3d6000fd5b505050506040513d6020811015610d2b57600080fd5b810190808051906020019092919050505073ffffffffffffffffffffffffffffffffffffffff1614610da8576040517f08c379a0000000000000000000000000000000000000000000000000000000008152600401808060200182810382526030815260200180613f9d6030913960400191505060405180910390fd5b6000600260008473ffffffffffffffffffffffffffffffffffffffff1673ffffffffffffffffffffffffffffffffffffffff16815260200190815260200160002090506000610e166103e8610e0860065488612d7190919063ffffffff16565b612df790919063ffffffff16565b90506000610e436103e8610e3560075489612d7190919063ffffffff16565b612df790919063ffffffff16565b90506000610e5a8284612e8090919063ffffffff16565b90506000610e718289612cee90919063ffffffff16565b9050610e8a848660040154612e8090919063ffffffff16565b8560040181905550610ea9838660060154612e8090919063ffffffff16565b8560060181905550600073ffffffffffffffffffffffffffffffffffffffff168773ffffffffffffffffffffffffffffffffffffffff1614610f1557610f1089828973ffffffffffffffffffffffffffffffffffffffff16612f089092919063ffffffff16565b610fc7565b60008973ffffffffffffffffffffffffffffffffffffffff1660095483604051610f3e90613aad565b600060405180830381858888f193505050503d8060008114610f7c576040519150601f19603f3d011682016040523d82523d6000602084013e610f81565b606091505b5050905080610fc5576040517f08c379a0000000000000000000000000000000000000000000000000000000008152600401610fbc90613d34565b60405180910390fd5b505b7fe42a885e97ef72aed483b57141e41f9d64499b43411f58b60a0e07fcdb6e824a89828686868c60405161100096959493929190613bd5565b60405180910390a1505050505050505050565b6000600260008473ffffffffffffffffffffffffffffffffffffffff1673ffffffffffffffffffffffffffffffffffffffff16815260200190815260200160002090506000600360008573ffffffffffffffffffffffffffffffffffffffff1673ffffffffffffffffffffffffffffffffffffffff16815260200190815260200160002060003373ffffffffffffffffffffffffffffffffffffffff1673ffffffffffffffffffffffffffffffffffffffff1681526020019081526020016000209050600073ffffffffffffffffffffffffffffffffffffffff168260010160009054906101000a900473ffffffffffffffffffffffffffffffffffffffff1673ffffffffffffffffffffffffffffffffffffffff16141561116a576040517f08c379a000000000000000000000000000000000000000000000000000000000815260040161116190613d14565b60405180910390fd5b84816000015410156111b1576040517f08c379a00000000000000000000000000000000000000000000000000000000081526004016111a890613cf4565b60405180910390fd5b6111ba84610588565b61121861120582600101546111f764e8d4a510006111e987600501548760000154612d7190919063ffffffff16565b612df790919063ffffffff16565b612cee90919063ffffffff16565b8260020154612e8090919063ffffffff16565b8160020181905550611237858260000154612cee90919063ffffffff16565b816000018190555061127164e8d4a5100061126384600501548460000154612d7190919063ffffffff16565b612df790919063ffffffff16565b8160010181905550611290858360020154612cee90919063ffffffff16565b8260020181905550600073ffffffffffffffffffffffffffffffffffffffff168473ffffffffffffffffffffffffffffffffffffffff16146112fc576112f783868673ffffffffffffffffffffffffffffffffffffffff16612f089092919063ffffffff16565b6113ae565b60008373ffffffffffffffffffffffffffffffffffffffff166009548760405161132590613aad565b600060405180830381858888f193505050503d8060008114611363576040519150601f19603f3d011682016040523d82523d6000602084013e611368565b606091505b50509050806113ac576040517f08c379a00000000000000000000000000000000000000000000000000000000081526004016113a390613d34565b60405180910390fd5b505b7ffa2e8fcf14fd6ea11b6ebe7caf7de210198b8fe1eaf0e06d19f8d87c73860c46338487876040516113e39493929190613add565b60405180910390a15050505050565b600460009054906101000a900473ffffffffffffffffffffffffffffffffffffffff1673ffffffffffffffffffffffffffffffffffffffff163373ffffffffffffffffffffffffffffffffffffffff16148061149c5750600073ffffffffffffffffffffffffffffffffffffffff16600460009054906101000a900473ffffffffffffffffffffffffffffffffffffffff1673ffffffffffffffffffffffffffffffffffffffff16145b6114db576040517f08c379a00000000000000000000000000000000000000000000000000000000081526004016114d290613d94565b60405180910390fd5b6000600260008473ffffffffffffffffffffffffffffffffffffffff1673ffffffffffffffffffffffffffffffffffffffff1681526020019081526020016000209050600073ffffffffffffffffffffffffffffffffffffffff168160010160009054906101000a900473ffffffffffffffffffffffffffffffffffffffff1673ffffffffffffffffffffffffffffffffffffffff16146115b1576040517f08c379a00000000000000000000000000000000000000000000000000000000081526004016115a890613db4565b60405180910390fd5b6040518061010001604052808473ffffffffffffffffffffffffffffffffffffffff1681526020018373ffffffffffffffffffffffffffffffffffffffff168152602001600081526020016000815260200160008152602001600081526020016000815260200142815250600260008573ffffffffffffffffffffffffffffffffffffffff1673ffffffffffffffffffffffffffffffffffffffff16815260200190815260200160002060008201518160000160006101000a81548173ffffffffffffffffffffffffffffffffffffffff021916908373ffffffffffffffffffffffffffffffffffffffff16021790555060208201518160010160006101000a81548173ffffffffffffffffffffffffffffffffffffffff021916908373ffffffffffffffffffffffffffffffffffffffff16021790555060408201518160020155606082015181600301556080820151816004015560a0820151816005015560c0820151816006015560e08201518160070155905050505050565b600160009054906101000a900473ffffffffffffffffffffffffffffffffffffffff1681565b600460009054906101000a900473ffffffffffffffffffffffffffffffffffffffff1673ffffffffffffffffffffffffffffffffffffffff163373ffffffffffffffffffffffffffffffffffffffff1614806117fd5750600073ffffffffffffffffffffffffffffffffffffffff16600460009054906101000a900473ffffffffffffffffffffffffffffffffffffffff1673ffffffffffffffffffffffffffffffffffffffff16145b61183c576040517f08c379a000000000000000000000000000000000000000000000000000000000815260040161183390613d94565b60405180910390fd5b6000600260008473ffffffffffffffffffffffffffffffffffffffff1673ffffffffffffffffffffffffffffffffffffffff1681526020019081526020016000209050600073ffffffffffffffffffffffffffffffffffffffff168160010160009054906101000a900473ffffffffffffffffffffffffffffffffffffffff1673ffffffffffffffffffffffffffffffffffffffff161415611913576040517f08c379a000000000000000000000000000000000000000000000000000000000815260040161190a90613d14565b60405180910390fd5b838160060154101561195a576040517f08c379a000000000000000000000000000000000000000000000000000000000815260040161195190613cb4565b60405180910390fd5b611971848260060154612cee90919063ffffffff16565b8160060181905550600073ffffffffffffffffffffffffffffffffffffffff168373ffffffffffffffffffffffffffffffffffffffff16146119dd576119d882858573ffffffffffffffffffffffffffffffffffffffff16612f089092919063ffffffff16565b611a8f565b60008273ffffffffffffffffffffffffffffffffffffffff1660095486604051611a0690613aad565b600060405180830381858888f193505050503d8060008114611a44576040519150601f19603f3d011682016040523d82523d6000602084013e611a49565b606091505b5050905080611a8d576040517f08c379a0000000000000000000000000000000000000000000000000000000008152600401611a8490613d34565b60405180910390fd5b505b7f3cb71b9a1fb601579f96812b9f86ab5e914fc3e54c98d5f84d95581b2b9884f333838686604051611ac49493929190613b22565b60405180910390a150505050565b600460009054906101000a900473ffffffffffffffffffffffffffffffffffffffff1681565b60026020528060005260406000206000915090508060000160009054906101000a900473ffffffffffffffffffffffffffffffffffffffff16908060010160009054906101000a900473ffffffffffffffffffffffffffffffffffffffff16908060020154908060030154908060040154908060050154908060060154908060070154905088565b600a60009054906101000a900473ffffffffffffffffffffffffffffffffffffffff1681565b600460009054906101000a900473ffffffffffffffffffffffffffffffffffffffff1673ffffffffffffffffffffffffffffffffffffffff163373ffffffffffffffffffffffffffffffffffffffff161480611c505750600073ffffffffffffffffffffffffffffffffffffffff16600460009054906101000a900473ffffffffffffffffffffffffffffffffffffffff1673ffffffffffffffffffffffffffffffffffffffff16145b611c8f576040517f08c379a0000000000000000000000000000000000000000000000000000000008152600401611c8690613d94565b60405180910390fd5b600073ffffffffffffffffffffffffffffffffffffffff16600560009054906101000a900473ffffffffffffffffffffffffffffffffffffffff1673ffffffffffffffffffffffffffffffffffffffff1614611d20576040517f08c379a0000000000000000000000000000000000000000000000000000000008152600401611d1790613cd4565b60405180910390fd5b826000806101000a81548173ffffffffffffffffffffffffffffffffffffffff021916908373ffffffffffffffffffffffffffffffffffffffff16021790555081600160006101000a81548173ffffffffffffffffffffffffffffffffffffffff021916908373ffffffffffffffffffffffffffffffffffffffff16021790555080600560006101000a81548173ffffffffffffffffffffffffffffffffffffffff021916908373ffffffffffffffffffffffffffffffffffffffff16021790555033600460006101000a81548173ffffffffffffffffffffffffffffffffffffffff021916908373ffffffffffffffffffffffffffffffffffffffff160217905550611e2f6023600f6127a3565b611e3e62155cc06108fc61066c565b505050565b60003414611e5357349150600090505b6000600260008373ffffffffffffffffffffffffffffffffffffffff1673ffffffffffffffffffffffffffffffffffffffff16815260200190815260200160002090506000600360008473ffffffffffffffffffffffffffffffffffffffff1673ffffffffffffffffffffffffffffffffffffffff16815260200190815260200160002060003373ffffffffffffffffffffffffffffffffffffffff1673ffffffffffffffffffffffffffffffffffffffff1681526020019081526020016000209050600073ffffffffffffffffffffffffffffffffffffffff168260010160009054906101000a900473ffffffffffffffffffffffffffffffffffffffff1673ffffffffffffffffffffffffffffffffffffffff161415611faa576040517f08c379a0000000000000000000000000000000000000000000000000000000008152600401611fa190613d14565b60405180910390fd5b611fb383610588565b6000816000015411156120775761201e61200b8260010154611ffd64e8d4a51000611fef87600501548760000154612d7190919063ffffffff16565b612df790919063ffffffff16565b612cee90919063ffffffff16565b8260020154612e8090919063ffffffff16565b816002018190555061206a64e8d4a5100061205c846005015461204e888660000154612e8090919063ffffffff16565b612d7190919063ffffffff16565b612df790919063ffffffff16565b81600101819055506120ae565b6120a564e8d4a51000612097846005015487612d7190919063ffffffff16565b612df790919063ffffffff16565b81600101819055505b600073ffffffffffffffffffffffffffffffffffffffff168373ffffffffffffffffffffffffffffffffffffffff16146121105761210f3330868673ffffffffffffffffffffffffffffffffffffffff16612fd4909392919063ffffffff16565b5b612127848260000154612e8090919063ffffffff16565b8160000181905550612146848360020154612e8090919063ffffffff16565b82600201819055507f5852d1d46e583f7e92c2a572221de0e681d82ef71f489847e056b9445c01473633858560405161218193929190613b9e565b60405180910390a150505050565b600560009054906101000a900473ffffffffffffffffffffffffffffffffffffffff166121ba612faa565b73ffffffffffffffffffffffffffffffffffffffff163373ffffffffffffffffffffffffffffffffffffffff161461223d576040517f08c379a000000000000000000000000000000000000000000000000000000000815260040180806020018281038252602e815260200180613f4e602e913960400191505060405180910390fd5b8073ffffffffffffffffffffffffffffffffffffffff1661225c612faa565b73ffffffffffffffffffffffffffffffffffffffff16636e296e456040518163ffffffff1660e01b815260040160206040518083038186803b1580156122a157600080fd5b505afa1580156122b5573d6000803e3d6000fd5b505050506040513d60208110156122cb57600080fd5b810190808051906020019092919050505073ffffffffffffffffffffffffffffffffffffffff1614612348576040517f08c379a0000000000000000000000000000000000000000000000000000000008152600401808060200182810382526030815260200180613f9d6030913960400191505060405180910390fd5b600080600260008573ffffffffffffffffffffffffffffffffffffffff1673ffffffffffffffffffffffffffffffffffffffff168152602001908152602001600020905060006123b76103e86123a960065489612d7190919063ffffffff16565b612df790919063ffffffff16565b905060006123e46103e86123d66007548a612d7190919063ffffffff16565b612df790919063ffffffff16565b905060006123fb8284612e8090919063ffffffff16565b90506000612412828a612cee90919063ffffffff16565b9050600073ffffffffffffffffffffffffffffffffffffffff168873ffffffffffffffffffffffffffffffffffffffff1614612550578773ffffffffffffffffffffffffffffffffffffffff166370a08231306040518263ffffffff1660e01b81526004016124819190613ac2565b60206040518083038186803b15801561249957600080fd5b505afa1580156124ad573d6000803e3d6000fd5b505050506040513d601f19601f820116820180604052508101906124d19190613667565b8111156124e1576001955061254b565b6124f8848660040154612e8090919063ffffffff16565b8560040181905550612517838660060154612e8090919063ffffffff16565b856006018190555061254a8a828a73ffffffffffffffffffffffffffffffffffffffff16612f089092919063ffffffff16565b5b612652565b478111156125615760019550612651565b612578848660040154612e8090919063ffffffff16565b8560040181905550612597838660060154612e8090919063ffffffff16565b856006018190555060008a73ffffffffffffffffffffffffffffffffffffffff16600954836040516125c890613aad565b600060405180830381858888f193505050503d8060008114612606576040519150601f19603f3d011682016040523d82523d6000602084013e61260b565b606091505b505090508061264f576040517f08c379a000000000000000000000000000000000000000000000000000000000815260040161264690613d34565b60405180910390fd5b505b5b851561273f57600063650a767b60e01b8b8b8860010160009054906101000a900473ffffffffffffffffffffffffffffffffffffffff1660405160240161269b93929190613b67565b604051602081830303815290604052907bffffffffffffffffffffffffffffffffffffffffffffffffffffffff19166020820180517bffffffffffffffffffffffffffffffffffffffffffffffffffffffff83818316178352505050509050612739600560009054906101000a900473ffffffffffffffffffffffffffffffffffffffff16600860009054906101000a900463ffffffff1683613095565b50612781565b7ffe1f8646fcb202e48551fbfd19085116c64b291c60cede7dce3665a57c05e3818a828686868d60405161277896959493929190613bd5565b60405180910390a15b50505050505050505050565b600860009054906101000a900463ffffffff1681565b600460009054906101000a900473ffffffffffffffffffffffffffffffffffffffff1673ffffffffffffffffffffffffffffffffffffffff163373ffffffffffffffffffffffffffffffffffffffff16148061284d5750600073ffffffffffffffffffffffffffffffffffffffff16600460009054906101000a900473ffffffffffffffffffffffffffffffffffffffff1673ffffffffffffffffffffffffffffffffffffffff16145b61288c576040517f08c379a000000000000000000000000000000000000000000000000000000000815260040161288390613d94565b60405180910390fd5b600073ffffffffffffffffffffffffffffffffffffffff16600560009054906101000a900473ffffffffffffffffffffffffffffffffffffffff1673ffffffffffffffffffffffffffffffffffffffff16141561291e576040517f08c379a000000000000000000000000000000000000000000000000000000000815260040161291590613d54565b60405180910390fd5b81600681905550806007819055505050565b600460009054906101000a900473ffffffffffffffffffffffffffffffffffffffff1673ffffffffffffffffffffffffffffffffffffffff163373ffffffffffffffffffffffffffffffffffffffff1614806129da5750600073ffffffffffffffffffffffffffffffffffffffff16600460009054906101000a900473ffffffffffffffffffffffffffffffffffffffff1673ffffffffffffffffffffffffffffffffffffffff16145b612a19576040517f08c379a0000000000000000000000000000000000000000000000000000000008152600401612a1090613d94565b60405180910390fd5b80600460006101000a81548173ffffffffffffffffffffffffffffffffffffffff021916908373ffffffffffffffffffffffffffffffffffffffff16021790555050565b60003414612a6d57349150600090505b6000600260008373ffffffffffffffffffffffffffffffffffffffff1673ffffffffffffffffffffffffffffffffffffffff1681526020019081526020016000209050600073ffffffffffffffffffffffffffffffffffffffff168160010160009054906101000a900473ffffffffffffffffffffffffffffffffffffffff1673ffffffffffffffffffffffffffffffffffffffff161415612b44576040517f08c379a0000000000000000000000000000000000000000000000000000000008152600401612b3b90613d14565b60405180910390fd5b600073ffffffffffffffffffffffffffffffffffffffff168273ffffffffffffffffffffffffffffffffffffffff1614612ba657612ba53330858573ffffffffffffffffffffffffffffffffffffffff16612fd4909392919063ffffffff16565b5b600063bd2d1cab60e01b33858460010160009054906101000a900473ffffffffffffffffffffffffffffffffffffffff16604051602401612be993929190613b67565b604051602081830303815290604052907bffffffffffffffffffffffffffffffffffffffffffffffffffffffff19166020820180517bffffffffffffffffffffffffffffffffffffffffffffffffffffffff83818316178352505050509050612c87600560009054906101000a900473ffffffffffffffffffffffffffffffffffffffff16600860009054906101000a900463ffffffff1683613095565b7f860e25c3d48fb81f0b272550dd125a5a6ab20ee7511dd3e250d04964bd37a7a9338585604051612cba93929190613b9e565b60405180910390a150505050565b600560009054906101000a900473ffffffffffffffffffffffffffffffffffffffff1681565b600082821115612d66576040517f08c379a000000000000000000000000000000000000000000000000000000000815260040180806020018281038252601e8152602001807f536166654d6174683a207375627472616374696f6e206f766572666c6f77000081525060200191505060405180910390fd5b818303905092915050565b600080831415612d845760009050612df1565b6000828402905082848281612d9557fe5b0414612dec576040517f08c379a0000000000000000000000000000000000000000000000000000000008152600401808060200182810382526021815260200180613f7c6021913960400191505060405180910390fd5b809150505b92915050565b6000808211612e6e576040517f08c379a000000000000000000000000000000000000000000000000000000000815260040180806020018281038252601a8152602001807f536166654d6174683a206469766973696f6e206279207a65726f00000000000081525060200191505060405180910390fd5b818381612e7757fe5b04905092915050565b600080828401905083811015612efe576040517f08c379a000000000000000000000000000000000000000000000000000000000815260040180806020018281038252601b8152602001807f536166654d6174683a206164646974696f6e206f766572666c6f77000000000081525060200191505060405180910390fd5b8091505092915050565b612fa58363a9059cbb60e01b8484604051602401808373ffffffffffffffffffffffffffffffffffffffff16815260200182815260200192505050604051602081830303815290604052907bffffffffffffffffffffffffffffffffffffffffffffffffffffffff19166020820180517bffffffffffffffffffffffffffffffffffffffffffffffffffffffff838183161783525050505061319d565b505050565b6000600160009054906101000a900473ffffffffffffffffffffffffffffffffffffffff16905090565b61308f846323b872dd60e01b858585604051602401808473ffffffffffffffffffffffffffffffffffffffff1681526020018373ffffffffffffffffffffffffffffffffffffffff1681526020018281526020019350505050604051602081830303815290604052907bffffffffffffffffffffffffffffffffffffffffffffffffffffffff19166020820180517bffffffffffffffffffffffffffffffffffffffffffffffffffffffff838183161783525050505061319d565b50505050565b61309d61328c565b73ffffffffffffffffffffffffffffffffffffffff16633dbb202b8483856040518463ffffffff1660e01b8152600401808473ffffffffffffffffffffffffffffffffffffffff168152602001806020018363ffffffff168152602001828103825284818151815260200191508051906020019080838360005b83811015613132578082015181840152602081019050613117565b50505050905090810190601f16801561315f5780820380516001836020036101000a031916815260200191505b50945050505050600060405180830381600087803b15801561318057600080fd5b505af1158015613194573d6000803e3d6000fd5b50505050505050565b60006131ff826040518060400160405280602081526020017f5361666545524332303a206c6f772d6c6576656c2063616c6c206661696c65648152508573ffffffffffffffffffffffffffffffffffffffff166132b59092919063ffffffff16565b90506000815111156132875780806020019051602081101561322057600080fd5b8101908080519060200190929190505050613286576040517f08c379a000000000000000000000000000000000000000000000000000000000815260040180806020018281038252602a815260200180613fcd602a913960400191505060405180910390fd5b5b505050565b60008060009054906101000a900473ffffffffffffffffffffffffffffffffffffffff16905090565b60606132c484846000856132cd565b90509392505050565b60606132d88561341c565b61334a576040517f08c379a000000000000000000000000000000000000000000000000000000000815260040180806020018281038252601d8152602001807f416464726573733a2063616c6c20746f206e6f6e2d636f6e747261637400000081525060200191505060405180910390fd5b6000808673ffffffffffffffffffffffffffffffffffffffff1685876040518082805190602001908083835b602083106133995780518252602082019150602081019050602083039250613376565b6001836020036101000a03801982511681845116808217855250505050505090500191505060006040518083038185875af1925050503d80600081146133fb576040519150601f19603f3d011682016040523d82523d6000602084013e613400565b606091505b509150915061341082828661342f565b92505050949350505050565b600080823b905060008111915050919050565b6060831561343f578290506134f4565b6000835111156134525782518084602001fd5b816040517f08c379a00000000000000000000000000000000000000000000000000000000081526004018080602001828103825283818151815260200191508051906020019080838360005b838110156134b957808201518184015260208101905061349e565b50505050905090810190601f1680156134e65780820380516001836020036101000a031916815260200191505b509250505060405180910390fd5b9392505050565b60008135905061350a81613ef1565b92915050565b60008135905061351f81613f08565b92915050565b60008135905061353481613f1f565b92915050565b60008151905061354981613f1f565b92915050565b60008135905061355e81613f36565b92915050565b60006020828403121561357657600080fd5b6000613584848285016134fb565b91505092915050565b6000806000606084860312156135a257600080fd5b60006135b086828701613510565b93505060206135c186828701613525565b92505060406135d2868287016134fb565b9150509250925092565b600080604083850312156135ef57600080fd5b60006135fd858286016134fb565b925050602061360e858286016134fb565b9150509250929050565b60008060006060848603121561362d57600080fd5b600061363b868287016134fb565b935050602061364c868287016134fb565b925050604061365d868287016134fb565b9150509250925092565b60006020828403121561367957600080fd5b60006136878482850161353a565b91505092915050565b600080604083850312156136a357600080fd5b60006136b185828601613525565b92505060206136c2858286016134fb565b9150509250929050565b6000806000606084860312156136e157600080fd5b60006136ef86828701613525565b9350506020613700868287016134fb565b9250506040613711868287016134fb565b9150509250925092565b60008060006060848603121561373057600080fd5b600061373e86828701613525565b935050602061374f868287016134fb565b925050604061376086828701613510565b9150509250925092565b6000806040838503121561377d57600080fd5b600061378b85828601613525565b925050602061379c85828601613525565b9150509250929050565b600080604083850312156137b957600080fd5b60006137c78582860161354f565b92505060206137d885828601613525565b9150509250929050565b6137eb81613ebb565b82525050565b6137fa81613e6f565b82525050565b61380981613e5d565b82525050565b600061381c601b83613e4c565b91507f4f776e657220526577617264205769746864726177204572726f7200000000006000830152602082019050919050565b600061385c601d83613e4c565b91507f436f6e747261637420686173206265656e20696e697469616c697a65640000006000830152602082019050919050565b600061389c600e83613e4c565b91507f5769746864726177204572726f720000000000000000000000000000000000006000830152602082019050919050565b60006138dc601a83613e4c565b91507f546f6b656e2041646472657373204e6f742052656769737465720000000000006000830152602082019050919050565b600061391c601483613e4c565b91507f4661696c656420746f2073656e642045746865720000000000000000000000006000830152602082019050919050565b600061395c602583613e4c565b91507f436f6e747261637420686173206e6f7420796574206265656e20696e6974696160008301527f6c697a65640000000000000000000000000000000000000000000000000000006020830152604082019050919050565b60006139c2601583613e4c565b91507f576974686472617720526577617264204572726f7200000000000000000000006000830152602082019050919050565b6000613a02601783613e4c565b91507f63616c6c6572206973206e6f7420746865206f776e65720000000000000000006000830152602082019050919050565b6000613a42600083613e41565b9150600082019050919050565b6000613a5c602083613e4c565b91507f546f6b656e204164647265737320416c726561647920526567697374657265646000830152602082019050919050565b613a9881613ea1565b82525050565b613aa781613eab565b82525050565b6000613ab882613a35565b9150819050919050565b6000602082019050613ad76000830184613800565b92915050565b6000608082019050613af260008301876137e2565b613aff60208301866137e2565b613b0c6040830185613a8f565b613b196060830184613800565b95945050505050565b6000608082019050613b3760008301876137e2565b613b446020830186613800565b613b516040830185613a8f565b613b5e6060830184613800565b95945050505050565b6000606082019050613b7c60008301866137f1565b613b896020830185613a8f565b613b966040830184613800565b949350505050565b6000606082019050613bb360008301866137e2565b613bc06020830185613a8f565b613bcd6040830184613800565b949350505050565b600060c082019050613bea60008301896137e2565b613bf76020830188613a8f565b613c046040830187613a8f565b613c116060830186613a8f565b613c1e6080830185613a8f565b613c2b60a0830184613800565b979650505050505050565b600061010082019050613c4c600083018b613800565b613c59602083018a613800565b613c666040830189613a8f565b613c736060830188613a8f565b613c806080830187613a8f565b613c8d60a0830186613a8f565b613c9a60c0830185613a8f565b613ca760e0830184613a8f565b9998505050505050505050565b60006020820190508181036000830152613ccd8161380f565b9050919050565b60006020820190508181036000830152613ced8161384f565b9050919050565b60006020820190508181036000830152613d0d8161388f565b9050919050565b60006020820190508181036000830152613d2d816138cf565b9050919050565b60006020820190508181036000830152613d4d8161390f565b9050919050565b60006020820190508181036000830152613d6d8161394f565b9050919050565b60006020820190508181036000830152613d8d816139b5565b9050919050565b60006020820190508181036000830152613dad816139f5565b9050919050565b60006020820190508181036000830152613dcd81613a4f565b9050919050565b6000602082019050613de96000830184613a8f565b92915050565b6000606082019050613e046000830186613a8f565b613e116020830185613a8f565b613e1e6040830184613a8f565b949350505050565b6000602082019050613e3b6000830184613a9e565b92915050565b600081905092915050565b600082825260208201905092915050565b6000613e6882613e81565b9050919050565b6000613e7a82613e81565b9050919050565b600073ffffffffffffffffffffffffffffffffffffffff82169050919050565b6000819050919050565b600063ffffffff82169050919050565b6000613ec682613ecd565b9050919050565b6000613ed882613edf565b9050919050565b6000613eea82613e81565b9050919050565b613efa81613e5d565b8114613f0557600080fd5b50565b613f1181613e6f565b8114613f1c57600080fd5b50565b613f2881613ea1565b8114613f3357600080fd5b50565b613f3f81613eab565b8114613f4a57600080fd5b5056fe4f564d5f58434841494e3a206d657373656e67657220636f6e747261637420756e61757468656e74696361746564536166654d6174683a206d756c7469706c69636174696f6e206f766572666c6f774f564d5f58434841494e3a2077726f6e672073656e646572206f662063726f73732d646f6d61696e206d6573736167655361666545524332303a204552433230206f7065726174696f6e20646964206e6f742073756363656564a2646970667358221220ebb4af045e255ddeb697fec7fd2ef645188e1f97e233bc9aaf49d082fe75296b64736f6c63430007060033",
  "linkReferences": {},
  "deployedLinkReferences": {}
}