{
  "_format": "hh-sol-artifact-1",
  "contractName": "OVM_L1ERC20Gateway",
  "sourceName": "contracts/optimistic-ethereum/OVM/bridge/tokens/OVM_L1ERC20Gateway.sol",
  "abi": [
    {
      "inputs": [
        {
          "internalType": "contract iOVM_ERC20",
          "name": "_l1ERC20",
          "type": "address"
        },
        {
          "internalType": "address",
          "name": "_l2DepositedERC20",
          "type": "address"
        },
        {
          "internalType": "address",
          "name": "_l1messenger",
          "type": "address"
        }
      ],
      "stateMutability": "nonpayable",
      "type": "constructor"
    },
    {
      "anonymous": false,
      "inputs": [
        {
          "indexed": true,
          "internalType": "address",
          "name": "_from",
          "type": "address"
        },
        {
          "indexed": false,
          "internalType": "address",
          "name": "_to",
          "type": "address"
        },
        {
          "indexed": false,
          "internalType": "uint256",
          "name": "_amount",
          "type": "uint256"
        }
      ],
      "name": "DepositInitiated",
      "type": "event"
    },
    {
      "anonymous": false,
      "inputs": [
        {
          "indexed": true,
          "internalType": "address",
          "name": "_to",
          "type": "address"
        },
        {
          "indexed": false,
          "internalType": "uint256",
          "name": "_amount",
          "type": "uint256"
        }
      ],
      "name": "WithdrawalFinalized",
      "type": "event"
    },
    {
      "inputs": [
        {
          "internalType": "uint256",
          "name": "_amount",
          "type": "uint256"
        }
      ],
      "name": "deposit",
      "outputs": [],
      "stateMutability": "nonpayable",
      "type": "function"
    },
    {
      "inputs": [
        {
          "internalType": "address",
          "name": "_to",
          "type": "address"
        },
        {
          "internalType": "uint256",
          "name": "_amount",
          "type": "uint256"
        }
      ],
      "name": "depositTo",
      "outputs": [],
      "stateMutability": "nonpayable",
      "type": "function"
    },
    {
      "inputs": [
        {
          "internalType": "address",
          "name": "_to",
          "type": "address"
        },
        {
          "internalType": "uint256",
          "name": "_amount",
          "type": "uint256"
        }
      ],
      "name": "finalizeWithdrawal",
      "outputs": [],
      "stateMutability": "nonpayable",
      "type": "function"
    },
    {
      "inputs": [],
      "name": "getFinalizeDepositL2Gas",
      "outputs": [
        {
          "internalType": "uint32",
          "name": "",
          "type": "uint32"
        }
      ],
      "stateMutability": "view",
      "type": "function"
    },
    {
      "inputs": [],
      "name": "l1ERC20",
      "outputs": [
        {
          "internalType": "contract iOVM_ERC20",
          "name": "",
          "type": "address"
        }
      ],
      "stateMutability": "view",
      "type": "function"
    },
    {
      "inputs": [],
      "name": "l2DepositedToken",
      "outputs": [
        {
          "internalType": "address",
          "name": "",
          "type": "address"
        }
      ],
      "stateMutability": "view",
      "type": "function"
    },
    {
      "inputs": [],
      "name": "messenger",
      "outputs": [
        {
          "internalType": "address",
          "name": "",
          "type": "address"
        }
      ],
      "stateMutability": "view",
      "type": "function"
    }
  ],
  "bytecode": "0x608060405234801561001057600080fd5b506040516107eb3803806107eb83398101604081905261002f91610072565b600080546001600160a01b03199081166001600160a01b0393841617909155600180548216938316939093179092556002805490921692169190911790556100d6565b600080600060608486031215610086578283fd5b8351610091816100be565b60208501519093506100a2816100be565b60408501519092506100b3816100be565b809150509250925092565b6001600160a01b03811681146100d357600080fd5b50565b610706806100e56000396000f3fe608060405234801561001057600080fd5b506004361061007d5760003560e01c80633cb747bf1161005b5780633cb747bf146100bd578063b6b55f25146100c5578063f4f7b41a146100da578063ffaad6a5146100ed5761007d565b80630439f40b146100825780631273a090146100a057806332b5e32e146100b5575b600080fd5b61008a610100565b6040516100979190610607565b60405180910390f35b6100a861010f565b6040516100979190610661565b61008a610116565b61008a610125565b6100d86100d33660046105ef565b610134565b005b6100d86100e8366004610592565b610142565b6100d86100fb366004610592565b6102b0565b6001546001600160a01b031681565b62124f8090565b6002546001600160a01b031681565b6000546001600160a01b031681565b61013f3333836102bf565b50565b6001546001600160a01b0316610156610383565b6001600160a01b0316336001600160a01b0316146101a55760405162461bcd60e51b815260040180806020018281038252602e815260200180610673602e913960400191505060405180910390fd5b806001600160a01b03166101b7610383565b6001600160a01b0316636e296e456040518163ffffffff1660e01b815260040160206040518083038186803b1580156101ef57600080fd5b505afa158015610203573d6000803e3d6000fd5b505050506040513d602081101561021957600080fd5b50516001600160a01b0316146102605760405162461bcd60e51b81526004018080602001828103825260308152602001806106a16030913960400191505060405180910390fd5b61026a8383610392565b826001600160a01b03167f9e5c4f9f4e46b8629d3dda85f43a69194f50254404a72dc62b9e932d9c94eda8836040516102a39190610658565b60405180910390a2505050565b6102bb3383836102bf565b5050565b6102ca83838361041b565b6000638d6e9a5b60e01b83836040516024016102e792919061063f565b60408051601f198184030181529190526020810180516001600160e01b03166001600160e01b03199093169290921790915260015490915061033a906001600160a01b03168261033561010f565b6104a7565b836001600160a01b03167ff531653a5819e21265de50358610d55dbe6594c61605b209dfa4280d277938c1848460405161037592919061063f565b60405180910390a250505050565b6000546001600160a01b031690565b60025460405163a9059cbb60e01b81526001600160a01b039091169063a9059cbb906103c4908590859060040161063f565b602060405180830381600087803b1580156103de57600080fd5b505af11580156103f2573d6000803e3d6000fd5b505050506040513d601f19601f8201168201806040525081019061041691906105c8565b505050565b6002546040516323b872dd60e01b81526001600160a01b03909116906323b872dd9061044f9086903090869060040161061b565b602060405180830381600087803b15801561046957600080fd5b505af115801561047d573d6000803e3d6000fd5b505050506040513d601f19601f820116820180604052508101906104a191906105c8565b50505050565b6104af610383565b6001600160a01b0316633dbb202b8484846040518463ffffffff1660e01b815260040180846001600160a01b03168152602001806020018363ffffffff168152602001828103825284818151815260200191508051906020019080838360005b8381101561052757818101518382015260200161050f565b50505050905090810190601f1680156105545780820380516001836020036101000a031916815260200191505b50945050505050600060405180830381600087803b15801561057557600080fd5b505af1158015610589573d6000803e3d6000fd5b50505050505050565b600080604083850312156105a4578182fd5b82356001600160a01b03811681146105ba578283fd5b946020939093013593505050565b6000602082840312156105d9578081fd5b815180151581146105e8578182fd5b9392505050565b600060208284031215610600578081fd5b5035919050565b6001600160a01b0391909116815260200190565b6001600160a01b039384168152919092166020820152604081019190915260600190565b6001600160a01b03929092168252602082015260400190565b90815260200190565b63ffffffff9190911681526020019056fe4f564d5f58434841494e3a206d657373656e67657220636f6e747261637420756e61757468656e746963617465644f564d5f58434841494e3a2077726f6e672073656e646572206f662063726f73732d646f6d61696e206d657373616765a26469706673582212209c71f5fabdce8ac1b10f990b85b1408cc09286cd920235f2fe32bf8c35fa4c8564736f6c63430007060033",
  "linkReferences": {},
  "deployedLinkReferences": {}
}