{
  "address": "0x8F4b61483c457648a6AA8e27135e6B9bC2fF35FB",
  "abi": [
    {
      "inputs": [
        {
          "components": [
            {
              "components": [
                {
                  "internalType": "contract AddressManager",
                  "name": "addressManager",
                  "type": "address"
                },
                {
                  "internalType": "contract ProxyAdmin",
                  "name": "proxyAdmin",
                  "type": "address"
                },
                {
                  "internalType": "address",
                  "name": "controller",
                  "type": "address"
                },
                {
                  "internalType": "address",
                  "name": "finalOwner",
                  "type": "address"
                }
              ],
              "internalType": "struct BaseSystemDictator.GlobalConfig",
              "name": "globalConfig",
              "type": "tuple"
            },
            {
              "components": [
                {
                  "internalType": "address",
                  "name": "l2OutputOracleProxy",
                  "type": "address"
                },
                {
                  "internalType": "address",
                  "name": "optimismPortalProxy",
                  "type": "address"
                },
                {
                  "internalType": "address",
                  "name": "l1CrossDomainMessengerProxy",
                  "type": "address"
                },
                {
                  "internalType": "address",
                  "name": "l1StandardBridgeProxy",
                  "type": "address"
                },
                {
                  "internalType": "address",
                  "name": "optimismMintableERC20FactoryProxy",
                  "type": "address"
                },
                {
                  "internalType": "address",
                  "name": "l1ERC721BridgeProxy",
                  "type": "address"
                },
                {
                  "internalType": "address",
                  "name": "systemConfigProxy",
                  "type": "address"
                }
              ],
              "internalType": "struct BaseSystemDictator.ProxyAddressConfig",
              "name": "proxyAddressConfig",
              "type": "tuple"
            },
            {
              "components": [
                {
                  "internalType": "contract L2OutputOracle",
                  "name": "l2OutputOracleImpl",
                  "type": "address"
                },
                {
                  "internalType": "contract OptimismPortal",
                  "name": "optimismPortalImpl",
                  "type": "address"
                },
                {
                  "internalType": "contract L1CrossDomainMessenger",
                  "name": "l1CrossDomainMessengerImpl",
                  "type": "address"
                },
                {
                  "internalType": "contract L1StandardBridge",
                  "name": "l1StandardBridgeImpl",
                  "type": "address"
                },
                {
                  "internalType": "contract OptimismMintableERC20Factory",
                  "name": "optimismMintableERC20FactoryImpl",
                  "type": "address"
                },
                {
                  "internalType": "contract L1ERC721Bridge",
                  "name": "l1ERC721BridgeImpl",
                  "type": "address"
                },
                {
                  "internalType": "contract PortalSender",
                  "name": "portalSenderImpl",
                  "type": "address"
                },
                {
                  "internalType": "contract SystemConfig",
                  "name": "systemConfigImpl",
                  "type": "address"
                }
              ],
              "internalType": "struct BaseSystemDictator.ImplementationAddressConfig",
              "name": "implementationAddressConfig",
              "type": "tuple"
            },
            {
              "components": [
                {
                  "internalType": "address",
                  "name": "owner",
                  "type": "address"
                },
                {
                  "internalType": "uint256",
                  "name": "overhead",
                  "type": "uint256"
                },
                {
                  "internalType": "uint256",
                  "name": "scalar",
                  "type": "uint256"
                },
                {
                  "internalType": "bytes32",
                  "name": "batcherHash",
                  "type": "bytes32"
                },
                {
                  "internalType": "uint64",
                  "name": "gasLimit",
                  "type": "uint64"
                }
              ],
              "internalType": "struct BaseSystemDictator.SystemConfigConfig",
              "name": "systemConfigConfig",
              "type": "tuple"
            }
          ],
          "internalType": "struct BaseSystemDictator.DeployConfig",
          "name": "_config",
          "type": "tuple"
        }
      ],
      "stateMutability": "nonpayable",
      "type": "constructor"
    },
    {
      "anonymous": false,
      "inputs": [
        {
          "indexed": true,
          "internalType": "address",
          "name": "previousOwner",
          "type": "address"
        },
        {
          "indexed": true,
          "internalType": "address",
          "name": "newOwner",
          "type": "address"
        }
      ],
      "name": "OwnershipTransferred",
      "type": "event"
    },
    {
      "inputs": [],
      "name": "EXIT_1_NO_RETURN_STEP",
      "outputs": [
        {
          "internalType": "uint8",
          "name": "",
          "type": "uint8"
        }
      ],
      "stateMutability": "view",
      "type": "function"
    },
    {
      "inputs": [],
      "name": "PROXY_TRANSFER_STEP",
      "outputs": [
        {
          "internalType": "uint8",
          "name": "",
          "type": "uint8"
        }
      ],
      "stateMutability": "view",
      "type": "function"
    },
    {
      "inputs": [],
      "name": "config",
      "outputs": [
        {
          "components": [
            {
              "internalType": "contract AddressManager",
              "name": "addressManager",
              "type": "address"
            },
            {
              "internalType": "contract ProxyAdmin",
              "name": "proxyAdmin",
              "type": "address"
            },
            {
              "internalType": "address",
              "name": "controller",
              "type": "address"
            },
            {
              "internalType": "address",
              "name": "finalOwner",
              "type": "address"
            }
          ],
          "internalType": "struct BaseSystemDictator.GlobalConfig",
          "name": "globalConfig",
          "type": "tuple"
        },
        {
          "components": [
            {
              "internalType": "address",
              "name": "l2OutputOracleProxy",
              "type": "address"
            },
            {
              "internalType": "address",
              "name": "optimismPortalProxy",
              "type": "address"
            },
            {
              "internalType": "address",
              "name": "l1CrossDomainMessengerProxy",
              "type": "address"
            },
            {
              "internalType": "address",
              "name": "l1StandardBridgeProxy",
              "type": "address"
            },
            {
              "internalType": "address",
              "name": "optimismMintableERC20FactoryProxy",
              "type": "address"
            },
            {
              "internalType": "address",
              "name": "l1ERC721BridgeProxy",
              "type": "address"
            },
            {
              "internalType": "address",
              "name": "systemConfigProxy",
              "type": "address"
            }
          ],
          "internalType": "struct BaseSystemDictator.ProxyAddressConfig",
          "name": "proxyAddressConfig",
          "type": "tuple"
        },
        {
          "components": [
            {
              "internalType": "contract L2OutputOracle",
              "name": "l2OutputOracleImpl",
              "type": "address"
            },
            {
              "internalType": "contract OptimismPortal",
              "name": "optimismPortalImpl",
              "type": "address"
            },
            {
              "internalType": "contract L1CrossDomainMessenger",
              "name": "l1CrossDomainMessengerImpl",
              "type": "address"
            },
            {
              "internalType": "contract L1StandardBridge",
              "name": "l1StandardBridgeImpl",
              "type": "address"
            },
            {
              "internalType": "contract OptimismMintableERC20Factory",
              "name": "optimismMintableERC20FactoryImpl",
              "type": "address"
            },
            {
              "internalType": "contract L1ERC721Bridge",
              "name": "l1ERC721BridgeImpl",
              "type": "address"
            },
            {
              "internalType": "contract PortalSender",
              "name": "portalSenderImpl",
              "type": "address"
            },
            {
              "internalType": "contract SystemConfig",
              "name": "systemConfigImpl",
              "type": "address"
            }
          ],
          "internalType": "struct BaseSystemDictator.ImplementationAddressConfig",
          "name": "implementationAddressConfig",
          "type": "tuple"
        },
        {
          "components": [
            {
              "internalType": "address",
              "name": "owner",
              "type": "address"
            },
            {
              "internalType": "uint256",
              "name": "overhead",
              "type": "uint256"
            },
            {
              "internalType": "uint256",
              "name": "scalar",
              "type": "uint256"
            },
            {
              "internalType": "bytes32",
              "name": "batcherHash",
              "type": "bytes32"
            },
            {
              "internalType": "uint64",
              "name": "gasLimit",
              "type": "uint64"
            }
          ],
          "internalType": "struct BaseSystemDictator.SystemConfigConfig",
          "name": "systemConfigConfig",
          "type": "tuple"
        }
      ],
      "stateMutability": "view",
      "type": "function"
    },
    {
      "inputs": [],
      "name": "currentStep",
      "outputs": [
        {
          "internalType": "uint8",
          "name": "",
          "type": "uint8"
        }
      ],
      "stateMutability": "view",
      "type": "function"
    },
    {
      "inputs": [],
      "name": "dynamicConfigSet",
      "outputs": [
        {
          "internalType": "bool",
          "name": "",
          "type": "bool"
        }
      ],
      "stateMutability": "view",
      "type": "function"
    },
    {
      "inputs": [],
      "name": "exit1",
      "outputs": [],
      "stateMutability": "nonpayable",
      "type": "function"
    },
    {
      "inputs": [],
      "name": "finalize",
      "outputs": [],
      "stateMutability": "nonpayable",
      "type": "function"
    },
    {
      "inputs": [],
      "name": "finalized",
      "outputs": [
        {
          "internalType": "bool",
          "name": "",
          "type": "bool"
        }
      ],
      "stateMutability": "view",
      "type": "function"
    },
    {
      "inputs": [],
      "name": "l2OutputOracleDynamicConfig",
      "outputs": [
        {
          "internalType": "uint256",
          "name": "l2OutputOracleStartingBlockNumber",
          "type": "uint256"
        },
        {
          "internalType": "uint256",
          "name": "l2OutputOracleStartingTimestamp",
          "type": "uint256"
        }
      ],
      "stateMutability": "view",
      "type": "function"
    },
    {
      "inputs": [],
      "name": "oldL1CrossDomainMessenger",
      "outputs": [
        {
          "internalType": "address",
          "name": "",
          "type": "address"
        }
      ],
      "stateMutability": "view",
      "type": "function"
    },
    {
      "inputs": [],
      "name": "owner",
      "outputs": [
        {
          "internalType": "address",
          "name": "",
          "type": "address"
        }
      ],
      "stateMutability": "view",
      "type": "function"
    },
    {
      "inputs": [],
      "name": "renounceOwnership",
      "outputs": [],
      "stateMutability": "nonpayable",
      "type": "function"
    },
    {
      "inputs": [],
      "name": "step1",
      "outputs": [],
      "stateMutability": "nonpayable",
      "type": "function"
    },
    {
      "inputs": [],
      "name": "step2",
      "outputs": [],
      "stateMutability": "nonpayable",
      "type": "function"
    },
    {
      "inputs": [],
      "name": "step3",
      "outputs": [],
      "stateMutability": "nonpayable",
      "type": "function"
    },
    {
      "inputs": [],
      "name": "step4",
      "outputs": [],
      "stateMutability": "nonpayable",
      "type": "function"
    },
    {
      "inputs": [],
      "name": "step5",
      "outputs": [],
      "stateMutability": "nonpayable",
      "type": "function"
    },
    {
      "inputs": [],
      "name": "step6",
      "outputs": [],
      "stateMutability": "nonpayable",
      "type": "function"
    },
    {
      "inputs": [
        {
          "internalType": "address",
          "name": "newOwner",
          "type": "address"
        }
      ],
      "name": "transferOwnership",
      "outputs": [],
      "stateMutability": "nonpayable",
      "type": "function"
    },
    {
      "inputs": [
        {
          "components": [
            {
              "internalType": "uint256",
              "name": "l2OutputOracleStartingBlockNumber",
              "type": "uint256"
            },
            {
              "internalType": "uint256",
              "name": "l2OutputOracleStartingTimestamp",
              "type": "uint256"
            }
          ],
          "internalType": "struct BaseSystemDictator.L2OutputOracleDynamicConfig",
          "name": "_l2OutputOracleDynamicConfig",
          "type": "tuple"
        }
      ],
      "name": "updateL2OutputOracleDynamicConfig",
      "outputs": [],
      "stateMutability": "nonpayable",
      "type": "function"
    }
  ],
  "transactionHash": "0x0d2f8ada2ae011fbd5b408f33f2f3754afd4f3e4f9db22acec2077317e89e1aa",
  "args": [
    {
      "globalConfig": {
        "proxyAdmin": "0x943C138278A112211afbF5B65ab8A3ecDF926bA0",
        "controller": "0xf80267194936da1E98dB10bcE06F3147D580a62e",
        "finalOwner": "0xf80267194936da1E98dB10bcE06F3147D580a62e",
        "addressManager": "0xa6f73589243a6A7a9023b1Fa0651b1d89c177111"
      },
      "proxyAddressConfig": {
        "l2OutputOracleProxy": "0x074EEbc2a1a57c336ab2AAc84a67126a4209A4d9",
        "optimismPortalProxy": "0x13f10997bAE149fd835f1C92f2b09110D55dA5Cc",
        "l1CrossDomainMessengerProxy": "0x5086d1eEF304eb5284A0f6720f79403b4e9bE294",
        "l1StandardBridgeProxy": "0x636Af16bf2f682dD3109e60102b8E1A089FedAa8",
        "optimismMintableERC20FactoryProxy": "0x566c68a0e70aE9914D375EeD8e836683E0DcDcaA",
        "l1ERC721BridgeProxy": "0x8DD330DdE8D9898d43b4dc840Da27A07dF91b3c9",
        "systemConfigProxy": "0x38C9413440284FBC7948E48F519091e523f94263"
      },
      "implementationAddressConfig": {
        "l2OutputOracleImpl": "0x94726795a2F5039232cdC39E84F31B97C8900D18",
        "optimismPortalImpl": "0x8E6b9aD25b73f5646f031134cA50E820910D42d7",
        "l1CrossDomainMessengerImpl": "0x457CC635f423b0A497Af7EF0bB54D9EB31a955df",
        "l1StandardBridgeImpl": "0xcFef4433924eD617B68749f7e861D06F226486Aa",
        "optimismMintableERC20FactoryImpl": "0x66c4dE656769Dcb0d8a003f61a41dEB85f33EdCe",
        "l1ERC721BridgeImpl": "0x2fBFa09Db7f33b7a8fBCEEf80C75DA48E6B8c550",
        "portalSenderImpl": "0xa349a7ACd380C84Cb78981Fa86892a51C93fE262",
        "systemConfigImpl": "0xF1fd117d20400fE15B5498a354D230917A2C3d2F"
      },
      "systemConfigConfig": {
        "owner": "0xa0Ee7A142d267C1f36714E4a8F75612F20a79720",
        "overhead": 2100,
        "scalar": 6,
        "batcherHash": "0x000000000000000000000000a11d2b908470e17923fff184d48269bebbd9b2a5",
        "gasLimit": "0xe4e1c0"
      }
    }
  ],
  "numDeployments": 1,
  "solcInputHash": "bd91eccc411ffe1fc0c5b26ed34ad8c2",
  "bytecode": "0x6080604052601b805460ff191660011790553480156200001e57600080fd5b50604051620030db380380620030db83398101604081905262000041916200054d565b806200004d3362000235565b80518051600180546001600160a01b03199081166001600160a01b0393841617909155602080840151600280548416918516919091179055604080850151600380548516918616918217905560609586015160048054861691871691909117905582870151805160058054871691881691909117905580840151600680548716918816919091179055808301516007805487169188169190911790558087015160088054871691881691909117905560808082015160098054881691891691909117905560a080830151600a80548916918a1691909117905560c092830151600b80548916918a16919091179055848a01518051600c80548a16918b1691909117905580870151600d80548a16918b1691909117905580860151600e80548a16918b16919091179055808a0151600f80548a16918b1691909117905580830151601080548a16918b1691909117905590810151601180548916918a169190911790559182015160128054881691891691909117905560e0909101516013805487169188169190911790558688015180516014805490971697169690961790945591840151601555830151601655928201516017550151601880546001600160401b0319166001600160401b039092169190911790556200022d9062000235565b50506200061e565b600080546001600160a01b038381166001600160a01b0319831681178455604051919092169283917f8be0079c531659141344cd1fd0a4f28419497f9722a3daafe3b4186f6b6457e09190a35050565b604051608081016001600160401b0381118282101715620002b657634e487b7160e01b600052604160045260246000fd5b60405290565b6001600160a01b0381168114620002d257600080fd5b50565b8051620002e281620002bc565b919050565b600060e08284031215620002fa57600080fd5b60405160e081016001600160401b03811182821017156200032b57634e487b7160e01b600052604160045260246000fd5b806040525080915082516200034081620002bc565b815260208301516200035281620002bc565b602082015260408301516200036781620002bc565b604082015260608301516200037c81620002bc565b60608201526200038f60808401620002d5565b6080820152620003a260a08401620002d5565b60a0820152620003b560c08401620002d5565b60c08201525092915050565b6000610100808385031215620003d657600080fd5b604051908101906001600160401b03821181831017156200040757634e487b7160e01b600052604160045260246000fd5b81604052809250835191506200041d82620002bc565b8181526200042e60208501620002d5565b60208201526200044160408501620002d5565b60408201526200045460608501620002d5565b60608201526200046760808501620002d5565b60808201526200047a60a08501620002d5565b60a08201526200048d60c08501620002d5565b60c0820152620004a060e08501620002d5565b60e0820152505092915050565b600060a08284031215620004c057600080fd5b60405160a081016001600160401b038082118383101715620004f257634e487b7160e01b600052604160045260246000fd5b81604052829350845191506200050882620002bc565b8183526020850151602084015260408501516040840152606085015160608401526080850151915080821682146200053f57600080fd5b506080919091015292915050565b60008183036103008112156200056257600080fd5b6200056c62000285565b60808212156200057b57600080fd5b6200058562000285565b915083516200059481620002bc565b82526020840151620005a681620002bc565b60208301526040840151620005bb81620002bc565b60408301526060840151620005d081620002bc565b6060830152818152620005e78560808601620002e7565b6020820152620005fc856101608601620003c1565b604082015262000611856102608601620004ad565b6060820152949350505050565b612aad806200062e6000396000f3fe608060405234801561001057600080fd5b506004361061016c5760003560e01c80638da5cb5b116100cd578063df4ec24911610081578063f2fde38b11610066578063f2fde38b146103f9578063fb5d73761461040c578063fe6b1ddf1461041457600080fd5b8063df4ec249146103e9578063eb7c6f72146103f157600080fd5b8063b3f05b97116100b2578063b3f05b97146103a7578063cf03c22d146103ba578063d40a71fb146103e157600080fd5b80638da5cb5b146103605780638f4ed3331461039f57600080fd5b80635bc34f711161012457806379502c551161010957806379502c55146101ed5780637d1d95a61461033657806389cb73431461033e57600080fd5b80635bc34f71146101d8578063715018a6146101e557600080fd5b806345f003641161015557806345f00364146101b35780634bb278f3146101c85780634fb4bcec146101d057600080fd5b8063204c881c14610171578063289c6af714610199575b600080fd5b601954601a5461017f919082565b604080519283526020830191909152015b60405180910390f35b6101a1600381565b60405160ff9091168152602001610190565b6101c66101c136600461235e565b61041c565b005b6101c661045e565b6101c661075e565b601b546101a19060ff1681565b6101c6611205565b604080516080808201835260015473ffffffffffffffffffffffffffffffffffffffff908116835260025481166020808501919091526003548216848601526004548216606080860191909152855160e0808201885260055485168252600654851682850152600754851682890152600854851682840152600954851682870152600a54851660a080840191909152600b54861660c080850191909152895161010081018b52600c5488168152600d54881681880152600e548816818c0152600f548816818701526010548816818a015260115488168184015260125488169181019190915260135487169281019290925288519081018952601454909516855260155493850193909352601654968401969096526017549083015260185467ffffffffffffffff169282019290925261032693919084565b60405161019094939291906123d4565b6101a1600481565b601b5461035090610100900460ff1681565b6040519015158152602001610190565b60005473ffffffffffffffffffffffffffffffffffffffff165b60405173ffffffffffffffffffffffffffffffffffffffff9091168152602001610190565b6101c6611219565b601b546103509062010000900460ff1681565b601b5461037a906301000000900473ffffffffffffffffffffffffffffffffffffffff1681565b6101c66114ab565b6101c661174b565b6101c6611c19565b6101c661040736600461259d565b611d24565b6101c6611ddb565b6101c6611fe2565b6104246121f6565b805160195560200151601a55601b80547fffffffffffffffffffffffffffffffffffffffffffffffffffffffffffff00ff16610100179055565b6104666121f6565b600754600480546040517ff2fde38b00000000000000000000000000000000000000000000000000000000815273ffffffffffffffffffffffffffffffffffffffff918216928101929092529091169063f2fde38b90602401600060405180830381600087803b1580156104d957600080fd5b505af11580156104ed573d6000803e3d6000fd5b5050600254600480546040517ff2fde38b00000000000000000000000000000000000000000000000000000000815273ffffffffffffffffffffffffffffffffffffffff91821692810192909252909116925063f2fde38b9150602401600060405180830381600087803b15801561056457600080fd5b505af1158015610578573d6000803e3d6000fd5b5050601b54600460ff90911611915061072f905057600154600480546040517ff2fde38b00000000000000000000000000000000000000000000000000000000815273ffffffffffffffffffffffffffffffffffffffff918216928101929092529091169063f2fde38b90602401600060405180830381600087803b15801561060057600080fd5b505af1158015610614573d6000803e3d6000fd5b5050600854600480546040517f13af403500000000000000000000000000000000000000000000000000000000815273ffffffffffffffffffffffffffffffffffffffff9182169281019290925290911692506313af40359150602401600060405180830381600087803b15801561068b57600080fd5b505af115801561069f573d6000803e3d6000fd5b5050600a54600480546040517f8f28397000000000000000000000000000000000000000000000000000000000815273ffffffffffffffffffffffffffffffffffffffff918216928101929092529091169250638f2839709150602401600060405180830381600087803b15801561071657600080fd5b505af115801561072a573d6000803e3d6000fd5b505050505b601b80547fffffffffffffffffffffffffffffffffffffffffffffffffffffffffff00ffff1662010000179055565b6107666121f6565b601b5460059060ff168114610802576040517f08c379a000000000000000000000000000000000000000000000000000000000815260206004820152602260248201527f4261736553797374656d4469637461746f723a20696e636f727265637420737460448201527f657000000000000000000000000000000000000000000000000000000000000060648201526084015b60405180910390fd5b601b54610100900460ff166108bf576040517f08c379a000000000000000000000000000000000000000000000000000000000815260206004820152604560248201527f4d6967726174696f6e53797374656d4469637461746f723a2064796e616d696360448201527f206f7261636c6520636f6e666967206973206e6f742079657420696e6974696160648201527f6c697a6564000000000000000000000000000000000000000000000000000000608482015260a4016107f9565b600254600554600c54601954601a546040516024810192909252604482015273ffffffffffffffffffffffffffffffffffffffff93841693639623609d938116921690606401604080517fffffffffffffffffffffffffffffffffffffffffffffffffffffffffffffffe08184030181529181526020820180517bffffffffffffffffffffffffffffffffffffffffffffffffffffffff167fe4a3011600000000000000000000000000000000000000000000000000000000179052517fffffffff0000000000000000000000000000000000000000000000000000000060e086901b1681526109b493929190600401612637565b600060405180830381600087803b1580156109ce57600080fd5b505af11580156109e2573d6000803e3d6000fd5b5050600254600654600d546040805160048082526024820183526020820180517bffffffffffffffffffffffffffffffffffffffffffffffffffffffff167f8129fc1c0000000000000000000000000000000000000000000000000000000017905291517f9623609d00000000000000000000000000000000000000000000000000000000815273ffffffffffffffffffffffffffffffffffffffff9586169750639623609d9650610a9f95948516949390931692909101612637565b600060405180830381600087803b158015610ab957600080fd5b505af1158015610acd573d6000803e3d6000fd5b5050600254600754600e546040517f99a88ec400000000000000000000000000000000000000000000000000000000815273ffffffffffffffffffffffffffffffffffffffff92831660048201529082166024820152911692506399a88ec49150604401600060405180830381600087803b158015610b4b57600080fd5b505af1158015610b5f573d6000803e3d6000fd5b50506007546040517fc4d66de800000000000000000000000000000000000000000000000000000000815230600482015273ffffffffffffffffffffffffffffffffffffffff909116925063c4d66de89150602401600060405180830381600087803b158015610bce57600080fd5b505af1925050508015610bdf575060015b610d6257610beb612670565b806308c379a003610cb25750610bff61268c565b80610c0a5750610cb4565b7f7a2a4e26842155ea933fe6eb6e3137eb5a296dcdf55721c552be7b4c3cc2375981604051602001610c3c9190612734565b604051602081830303815290604052805190602001201481604051602001610c649190612750565b60405160208183030381529060405290610cab576040517f08c379a00000000000000000000000000000000000000000000000000000000081526004016107f991906127bb565b5050610d62565b505b6040517f08c379a000000000000000000000000000000000000000000000000000000000815260206004820152604860248201527f4d6967726174696f6e53797374656d4469637461746f723a20756e657870656360448201527f746564206572726f7220696e697469616c697a696e67204c3158444d20286e6f60648201527f20726561736f6e29000000000000000000000000000000000000000000000000608482015260a4016107f9565b6002546008546012546040805160048082526024820183526020820180517bffffffffffffffffffffffffffffffffffffffffffffffffffffffff167fed88c68e0000000000000000000000000000000000000000000000000000000017905291517f9623609d00000000000000000000000000000000000000000000000000000000815273ffffffffffffffffffffffffffffffffffffffff95861695639623609d95610e1895908216949116929101612637565b600060405180830381600087803b158015610e3257600080fd5b505af1158015610e46573d6000803e3d6000fd5b5050600254600854600f546040517f99a88ec400000000000000000000000000000000000000000000000000000000815273ffffffffffffffffffffffffffffffffffffffff92831660048201529082166024820152911692506399a88ec49150604401600060405180830381600087803b158015610ec457600080fd5b505af1158015610ed8573d6000803e3d6000fd5b50506002546009546010546040517f99a88ec400000000000000000000000000000000000000000000000000000000815273ffffffffffffffffffffffffffffffffffffffff92831660048201529082166024820152911692506399a88ec49150604401600060405180830381600087803b158015610f5657600080fd5b505af1158015610f6a573d6000803e3d6000fd5b5050600254600a546011546040517f99a88ec400000000000000000000000000000000000000000000000000000000815273ffffffffffffffffffffffffffffffffffffffff92831660048201529082166024820152911692506399a88ec49150604401600060405180830381600087803b158015610fe857600080fd5b505af1158015610ffc573d6000803e3d6000fd5b5050600254600b5460135460145460155460165460175460185460405173ffffffffffffffffffffffffffffffffffffffff958616602482015260448101949094526064840192909252608483015267ffffffffffffffff1660a48201529381169550639623609d94509182169291169060c401604080517fffffffffffffffffffffffffffffffffffffffffffffffffffffffffffffffe08184030181529181526020820180517bffffffffffffffffffffffffffffffffffffffffffffffffffffffff167f70bde19c00000000000000000000000000000000000000000000000000000000179052517fffffffff0000000000000000000000000000000000000000000000000000000060e086901b16815261111f93929190600401612637565b600060405180830381600087803b15801561113957600080fd5b505af115801561114d573d6000803e3d6000fd5b5050600754604080517f8456cb59000000000000000000000000000000000000000000000000000000008152905173ffffffffffffffffffffffffffffffffffffffff9092169350638456cb59925060048181019260009290919082900301818387803b1580156111bd57600080fd5b505af11580156111d1573d6000803e3d6000fd5b5050601b805460ff169250905060006111e9836127fd565b91906101000a81548160ff021916908360ff1602179055505050565b61120d6121f6565b6112176000612277565b565b6112216121f6565b601b5460029060ff1681146112b8576040517f08c379a000000000000000000000000000000000000000000000000000000000815260206004820152602260248201527f4261736553797374656d4469637461746f723a20696e636f727265637420737460448201527f657000000000000000000000000000000000000000000000000000000000000060648201526084016107f9565b6001546040517fbf40fac100000000000000000000000000000000000000000000000000000000815273ffffffffffffffffffffffffffffffffffffffff9091169063bf40fac19061130c9060040161281c565b602060405180830381865afa158015611329573d6000803e3d6000fd5b505050506040513d601f19601f8201168201806040525081019061134d919061285f565b601b80547fffffffffffffffffff0000000000000000000000000000000000000000ffffff16630100000073ffffffffffffffffffffffffffffffffffffffff938416021790556001546040517f9b2ea4bd000000000000000000000000000000000000000000000000000000008152911690639b2ea4bd906113d59060009060040161287c565b600060405180830381600087803b1580156113ef57600080fd5b505af1158015611403573d6000803e3d6000fd5b5050600154604080517f9b2ea4bd0000000000000000000000000000000000000000000000000000000081526004810191909152601160448201527f44544c5f534855544f46465f424c4f434b000000000000000000000000000000606482015273ffffffffffffffffffffffffffffffffffffffff43811660248301529091169250639b2ea4bd91506084015b600060405180830381600087803b1580156111bd57600080fd5b6114b36121f6565b601b5460019060ff16811461154a576040517f08c379a000000000000000000000000000000000000000000000000000000000815260206004820152602260248201527f4261736553797374656d4469637461746f723a20696e636f727265637420737460448201527f657000000000000000000000000000000000000000000000000000000000000060648201526084016107f9565b6002546001546040517f0652b57a00000000000000000000000000000000000000000000000000000000815273ffffffffffffffffffffffffffffffffffffffff9182166004820152911690630652b57a90602401600060405180830381600087803b1580156115b957600080fd5b505af11580156115cd573d6000803e3d6000fd5b5050600280546007546040517f8d52d4a000000000000000000000000000000000000000000000000000000000815273ffffffffffffffffffffffffffffffffffffffff9283169550638d52d4a0945061162e9391909216916004016128dd565b600060405180830381600087803b15801561164857600080fd5b505af115801561165c573d6000803e3d6000fd5b50506002546007546040517f860f7cda00000000000000000000000000000000000000000000000000000000815273ffffffffffffffffffffffffffffffffffffffff928316945063860f7cda93506116bb929091169060040161293e565b600060405180830381600087803b1580156116d557600080fd5b505af11580156116e9573d6000803e3d6000fd5b50506002546008546040517f8d52d4a000000000000000000000000000000000000000000000000000000000815273ffffffffffffffffffffffffffffffffffffffff9283169450638d52d4a0935061149192909116906001906004016128dd565b6117536121f6565b601b5460039060ff1681146117ea576040517f08c379a000000000000000000000000000000000000000000000000000000000815260206004820152602260248201527f4261736553797374656d4469637461746f723a20696e636f727265637420737460448201527f657000000000000000000000000000000000000000000000000000000000000060648201526084016107f9565b60006040518061022001604052806040518060400160405280601d81526020017f4f564d5f43616e6f6e6963616c5472616e73616374696f6e436861696e00000081525081526020016040518060400160405280601a81526020017f4f564d5f4c3243726f7373446f6d61696e4d657373656e6765720000000000008152508152602001604051806060016040528060228152602001612a376022913981526020016040518060400160405280600d81526020017f4f564d5f53657175656e6365720000000000000000000000000000000000000081525081526020016040518060400160405280600c81526020017f4f564d5f50726f706f73657200000000000000000000000000000000000000008152508152602001604051806060016040528060258152602001612a59602591398152602001604051806060016040528060238152602001612a7e602391398152604080518082018252601d81527f4f564d5f43616e6f6e6963616c5472616e73616374696f6e436861696e0000006020828101919091528084019190915281518083018352601881527f4f564d5f5374617465436f6d6d69746d656e74436861696e0000000000000000818301528284015281518083018352600f81527f4f564d5f426f6e644d616e61676572000000000000000000000000000000000081830152606084015281518083018352601481527f4f564d5f457865637574696f6e4d616e616765720000000000000000000000008183015260808401528151808301835260118082527f4f564d5f467261756456657269666965720000000000000000000000000000008284015260a085019190915282518084018452601781527f4f564d5f53746174654d616e61676572466163746f72790000000000000000008184015260c085015282518084018452601c81527f4f564d5f53746174655472616e736974696f6e6572466163746f7279000000008184015260e0850152825180840184529081527f4f564d5f536166657479436865636b65720000000000000000000000000000008183015261010084015281518083018352601981527f4f564d5f4c314d756c74694d65737361676552656c6179657200000000000000818301526101208401528151808301909252600b82527f426f6e644d616e616765720000000000000000000000000000000000000000009082015261014090910152905060005b6011811015611c045760015473ffffffffffffffffffffffffffffffffffffffff16639b2ea4bd838360118110611b9b57611b9b612997565b602002015160006040518363ffffffff1660e01b8152600401611bbf9291906129c6565b600060405180830381600087803b158015611bd957600080fd5b505af1158015611bed573d6000803e3d6000fd5b505050508080611bfc906129fe565b915050611b62565b5050601b805460ff169060006111e9836127fd565b611c216121f6565b601b5460069060ff168114611cb8576040517f08c379a000000000000000000000000000000000000000000000000000000000815260206004820152602260248201527f4261736553797374656d4469637461746f723a20696e636f727265637420737460448201527f657000000000000000000000000000000000000000000000000000000000000060648201526084016107f9565b600754604080517f3f4ba83a000000000000000000000000000000000000000000000000000000008152905173ffffffffffffffffffffffffffffffffffffffff90921691633f4ba83a9160048181019260009290919082900301818387803b1580156111bd57600080fd5b611d2c6121f6565b73ffffffffffffffffffffffffffffffffffffffff8116611dcf576040517f08c379a000000000000000000000000000000000000000000000000000000000815260206004820152602660248201527f4f776e61626c653a206e6577206f776e657220697320746865207a65726f206160448201527f646472657373000000000000000000000000000000000000000000000000000060648201526084016107f9565b611dd881612277565b50565b611de36121f6565b601b5460049060ff168114611e7a576040517f08c379a000000000000000000000000000000000000000000000000000000000815260206004820152602260248201527f4261736553797374656d4469637461746f723a20696e636f727265637420737460448201527f657000000000000000000000000000000000000000000000000000000000000060648201526084016107f9565b6001546002546040517ff2fde38b00000000000000000000000000000000000000000000000000000000815273ffffffffffffffffffffffffffffffffffffffff918216600482015291169063f2fde38b90602401600060405180830381600087803b158015611ee957600080fd5b505af1158015611efd573d6000803e3d6000fd5b50506008546002546040517f13af403500000000000000000000000000000000000000000000000000000000815273ffffffffffffffffffffffffffffffffffffffff9182166004820152911692506313af40359150602401600060405180830381600087803b158015611f7057600080fd5b505af1158015611f84573d6000803e3d6000fd5b5050600a546002546040517f8f28397000000000000000000000000000000000000000000000000000000000815273ffffffffffffffffffffffffffffffffffffffff918216600482015291169250638f2839709150602401611491565b611fea6121f6565b601b5460ff166003146120a5576040517f08c379a000000000000000000000000000000000000000000000000000000000815260206004820152604160248201527f4d6967726174696f6e53797374656d4469637461746f723a2063616e206f6e6c60448201527f79206578697431206265666f726520737465702033206973206578656375746560648201527f6400000000000000000000000000000000000000000000000000000000000000608482015260a4016107f9565b600154601b546040517f9b2ea4bd00000000000000000000000000000000000000000000000000000000815273ffffffffffffffffffffffffffffffffffffffff92831692639b2ea4bd926121089263010000009091049091169060040161287c565b600060405180830381600087803b15801561212257600080fd5b505af1158015612136573d6000803e3d6000fd5b5050600154604080517f9b2ea4bd0000000000000000000000000000000000000000000000000000000081526004810191909152601160448201527f44544c5f534855544f46465f424c4f434b00000000000000000000000000000060648201526000602482015273ffffffffffffffffffffffffffffffffffffffff9091169250639b2ea4bd9150608401600060405180830381600087803b1580156121dc57600080fd5b505af11580156121f0573d6000803e3d6000fd5b50505050565b60005473ffffffffffffffffffffffffffffffffffffffff163314611217576040517f08c379a000000000000000000000000000000000000000000000000000000000815260206004820181905260248201527f4f776e61626c653a2063616c6c6572206973206e6f7420746865206f776e657260448201526064016107f9565b6000805473ffffffffffffffffffffffffffffffffffffffff8381167fffffffffffffffffffffffff0000000000000000000000000000000000000000831681178455604051919092169283917f8be0079c531659141344cd1fd0a4f28419497f9722a3daafe3b4186f6b6457e09190a35050565b7fffffffffffffffffffffffffffffffffffffffffffffffffffffffffffffffe0601f830116810181811067ffffffffffffffff82111715612357577f4e487b7100000000000000000000000000000000000000000000000000000000600052604160045260246000fd5b6040525050565b60006040828403121561237057600080fd5b6040516040810181811067ffffffffffffffff821117156123ba577f4e487b7100000000000000000000000000000000000000000000000000000000600052604160045260246000fd5b604052823581526020928301359281019290925250919050565b60006103008201905073ffffffffffffffffffffffffffffffffffffffff8087511683528060208801511660208401528060408801511660408401528060608801511660608401528086511660808401528060208701511660a08401528060408701511660c08401528060608701511660e0840152806080870151166101008401525060a085015161247f61012084018273ffffffffffffffffffffffffffffffffffffffff169052565b5060c085015173ffffffffffffffffffffffffffffffffffffffff811661014084015250835173ffffffffffffffffffffffffffffffffffffffff90811661016084015260208501518116610180840152604085015181166101a0840152606085015181166101c0840152608085015181166101e084015260a0850151811661020084015260c0850151811661022084015260e085015116610240830152825173ffffffffffffffffffffffffffffffffffffffff16610260830152602083015161028083015260408301516102a083015260608301516102c0830152608083015167ffffffffffffffff166102e08301525b95945050505050565b73ffffffffffffffffffffffffffffffffffffffff81168114611dd857600080fd5b6000602082840312156125af57600080fd5b81356125ba8161257b565b9392505050565b60005b838110156125dc5781810151838201526020016125c4565b838111156121f05750506000910152565b600081518084526126058160208601602086016125c1565b601f017fffffffffffffffffffffffffffffffffffffffffffffffffffffffffffffffe0169290920160200192915050565b600073ffffffffffffffffffffffffffffffffffffffff80861683528085166020840152506060604083015261257260608301846125ed565b600060033d11156126895760046000803e5060005160e01c5b90565b600060443d101561269a5790565b6040517ffffffffffffffffffffffffffffffffffffffffffffffffffffffffffffffffc803d016004833e81513d67ffffffffffffffff81602484011181841117156126e857505050505090565b82850191508151818111156127005750505050505090565b843d870101602082850101111561271a5750505050505090565b612729602082860101876122ec565b509095945050505050565b600082516127468184602087016125c1565b9190910192915050565b7f4d6967726174696f6e53797374656d4469637461746f723a20756e657870656381527f746564206572726f7220696e697469616c697a696e67204c3158444d3a2000006020820152600082516127ae81603e8501602087016125c1565b91909101603e0192915050565b6020815260006125ba60208301846125ed565b7f4e487b7100000000000000000000000000000000000000000000000000000000600052601160045260246000fd5b600060ff821660ff8103612813576128136127ce565b60010192915050565b60208152600061285960208301601a81527f4f564d5f4c3143726f7373446f6d61696e4d657373656e676572000000000000602082015260400190565b92915050565b60006020828403121561287157600080fd5b81516125ba8161257b565b6040815260006128b960408301601a81527f4f564d5f4c3143726f7373446f6d61696e4d657373656e676572000000000000602082015260400190565b905073ffffffffffffffffffffffffffffffffffffffff8316602083015292915050565b73ffffffffffffffffffffffffffffffffffffffff831681526040810160038310612931577f4e487b7100000000000000000000000000000000000000000000000000000000600052602160045260246000fd5b8260208301529392505050565b73ffffffffffffffffffffffffffffffffffffffff821681526040602082015260006125ba60408301601a81527f4f564d5f4c3143726f7373446f6d61696e4d657373656e676572000000000000602082015260400190565b7f4e487b7100000000000000000000000000000000000000000000000000000000600052603260045260246000fd5b6040815260006129d960408301856125ed565b905073ffffffffffffffffffffffffffffffffffffffff831660208301529392505050565b60007fffffffffffffffffffffffffffffffffffffffffffffffffffffffffffffffff8203612a2f57612a2f6127ce565b506001019056fe4f564d5f4465636f6d7072657373696f6e507265636f6d70696c65416464726573734f564d5f436861696e53746f72616765436f6e7461696e65722d4354432d626174636865734f564d5f436861696e53746f72616765436f6e7461696e65722d4354432d7175657565a164736f6c634300080f000a",
  "devdoc": {
    "version": 1,
    "kind": "dev",
    "methods": {
      "constructor": {
        "params": {
          "_config": "System configuration."
        }
      },
      "owner()": {
        "details": "Returns the address of the current owner."
      },
      "renounceOwnership()": {
        "details": "Leaves the contract without owner. It will not be possible to call `onlyOwner` functions anymore. Can only be called by the current owner. NOTE: Renouncing ownership will leave the contract without an owner, thereby removing any functionality that is only available to the owner."
      },
      "transferOwnership(address)": {
        "details": "Transfers ownership of the contract to a new account (`newOwner`). Can only be called by the current owner."
      },
      "updateL2OutputOracleDynamicConfig((uint256,uint256))": {
        "params": {
          "_l2OutputOracleDynamicConfig": "Dynamic L2OutputOracle config."
        }
      }
    },
    "title": "MigrationSystemDictator"
  },
  "userdoc": {
    "version": 1,
    "kind": "user",
    "methods": {
      "EXIT_1_NO_RETURN_STEP()": {
        "notice": "Step after which exit 1 can no longer be used."
      },
      "PROXY_TRANSFER_STEP()": {
        "notice": "Step where proxy ownership is transferred."
      },
      "config()": {
        "notice": "System configuration."
      },
      "currentStep()": {
        "notice": "Current step;"
      },
      "dynamicConfigSet()": {
        "notice": "Whether or not dynamic config has been set."
      },
      "exit1()": {
        "notice": "First exit point, can only be called before step 3 is executed."
      },
      "finalize()": {
        "notice": "Tranfers admin ownership to the final owner."
      },
      "finalized()": {
        "notice": "Whether or not the deployment is finalized."
      },
      "l2OutputOracleDynamicConfig()": {
        "notice": "Dynamic configuration for the L2OutputOracle."
      },
      "oldL1CrossDomainMessenger()": {
        "notice": "Address of the old L1CrossDomainMessenger implementation."
      },
      "step1()": {
        "notice": "Configures the ProxyAdmin contract."
      },
      "step2()": {
        "notice": "Pauses the system by shutting down the L1CrossDomainMessenger and setting the         deposit halt flag to tell the Sequencer's DTL to stop accepting deposits."
      },
      "step3()": {
        "notice": "Removes deprecated addresses from the AddressManager."
      },
      "step4()": {
        "notice": "Transfers system ownership to the ProxyAdmin."
      },
      "step5()": {
        "notice": "Upgrades and initializes proxy contracts."
      },
      "step6()": {
        "notice": "Unpauses the system at which point the system should be fully operational."
      },
      "updateL2OutputOracleDynamicConfig((uint256,uint256))": {
        "notice": "Allows the owner to update dynamic L2OutputOracle config."
      }
    },
    "notice": "The MigrationSystemDictator is responsible for coordinating the migration and         initialization of an existing deployment of the Optimism System. We expect that all         proxies and implementations already be deployed before this contract is used."
  },
  "storageLayout": {
    "storage": [
      {
        "astId": 9753,
        "contract": "contracts/deployment/MigrationSystemDictator.sol:MigrationSystemDictator",
        "label": "_owner",
        "offset": 0,
        "slot": "0",
        "type": "t_address"
      },
      {
        "astId": 2443,
        "contract": "contracts/deployment/MigrationSystemDictator.sol:MigrationSystemDictator",
        "label": "config",
        "offset": 0,
        "slot": "1",
        "type": "t_struct(DeployConfig)2439_storage"
      },
      {
        "astId": 2447,
        "contract": "contracts/deployment/MigrationSystemDictator.sol:MigrationSystemDictator",
        "label": "l2OutputOracleDynamicConfig",
        "offset": 0,
        "slot": "25",
        "type": "t_struct(L2OutputOracleDynamicConfig)2415_storage"
      },
      {
        "astId": 2451,
        "contract": "contracts/deployment/MigrationSystemDictator.sol:MigrationSystemDictator",
        "label": "currentStep",
        "offset": 0,
        "slot": "27",
        "type": "t_uint8"
      },
      {
        "astId": 2454,
        "contract": "contracts/deployment/MigrationSystemDictator.sol:MigrationSystemDictator",
        "label": "dynamicConfigSet",
        "offset": 1,
        "slot": "27",
        "type": "t_bool"
      },
      {
        "astId": 2544,
        "contract": "contracts/deployment/MigrationSystemDictator.sol:MigrationSystemDictator",
        "label": "finalized",
        "offset": 2,
        "slot": "27",
        "type": "t_bool"
      },
      {
        "astId": 2547,
        "contract": "contracts/deployment/MigrationSystemDictator.sol:MigrationSystemDictator",
        "label": "oldL1CrossDomainMessenger",
        "offset": 3,
        "slot": "27",
        "type": "t_address"
      }
    ],
    "types": {
      "t_address": {
        "encoding": "inplace",
        "label": "address",
        "numberOfBytes": "20"
      },
      "t_bool": {
        "encoding": "inplace",
        "label": "bool",
        "numberOfBytes": "1"
      },
      "t_bytes32": {
        "encoding": "inplace",
        "label": "bytes32",
        "numberOfBytes": "32"
      },
      "t_contract(AddressManager)3347": {
        "encoding": "inplace",
        "label": "contract AddressManager",
        "numberOfBytes": "20"
      },
      "t_contract(L1CrossDomainMessenger)135": {
        "encoding": "inplace",
        "label": "contract L1CrossDomainMessenger",
        "numberOfBytes": "20"
      },
      "t_contract(L1ERC721Bridge)335": {
        "encoding": "inplace",
        "label": "contract L1ERC721Bridge",
        "numberOfBytes": "20"
      },
      "t_contract(L1StandardBridge)663": {
        "encoding": "inplace",
        "label": "contract L1StandardBridge",
        "numberOfBytes": "20"
      },
      "t_contract(L2OutputOracle)1088": {
        "encoding": "inplace",
        "label": "contract L2OutputOracle",
        "numberOfBytes": "20"
      },
      "t_contract(OptimismMintableERC20Factory)7410": {
        "encoding": "inplace",
        "label": "contract OptimismMintableERC20Factory",
        "numberOfBytes": "20"
      },
      "t_contract(OptimismPortal)1641": {
        "encoding": "inplace",
        "label": "contract OptimismPortal",
        "numberOfBytes": "20"
      },
      "t_contract(PortalSender)3259": {
        "encoding": "inplace",
        "label": "contract PortalSender",
        "numberOfBytes": "20"
      },
      "t_contract(ProxyAdmin)8116": {
        "encoding": "inplace",
        "label": "contract ProxyAdmin",
        "numberOfBytes": "20"
      },
      "t_contract(SystemConfig)2130": {
        "encoding": "inplace",
        "label": "contract SystemConfig",
        "numberOfBytes": "20"
      },
      "t_struct(DeployConfig)2439_storage": {
        "encoding": "inplace",
        "label": "struct BaseSystemDictator.DeployConfig",
        "numberOfBytes": "768",
        "members": [
          {
            "astId": 2429,
            "contract": "contracts/deployment/MigrationSystemDictator.sol:MigrationSystemDictator",
            "label": "globalConfig",
            "offset": 0,
            "slot": "0",
            "type": "t_struct(GlobalConfig)2370_storage"
          },
          {
            "astId": 2432,
            "contract": "contracts/deployment/MigrationSystemDictator.sol:MigrationSystemDictator",
            "label": "proxyAddressConfig",
            "offset": 0,
            "slot": "4",
            "type": "t_struct(ProxyAddressConfig)2385_storage"
          },
          {
            "astId": 2435,
            "contract": "contracts/deployment/MigrationSystemDictator.sol:MigrationSystemDictator",
            "label": "implementationAddressConfig",
            "offset": 0,
            "slot": "11",
            "type": "t_struct(ImplementationAddressConfig)2410_storage"
          },
          {
            "astId": 2438,
            "contract": "contracts/deployment/MigrationSystemDictator.sol:MigrationSystemDictator",
            "label": "systemConfigConfig",
            "offset": 0,
            "slot": "19",
            "type": "t_struct(SystemConfigConfig)2426_storage"
          }
        ]
      },
      "t_struct(GlobalConfig)2370_storage": {
        "encoding": "inplace",
        "label": "struct BaseSystemDictator.GlobalConfig",
        "numberOfBytes": "128",
        "members": [
          {
            "astId": 2362,
            "contract": "contracts/deployment/MigrationSystemDictator.sol:MigrationSystemDictator",
            "label": "addressManager",
            "offset": 0,
            "slot": "0",
            "type": "t_contract(AddressManager)3347"
          },
          {
            "astId": 2365,
            "contract": "contracts/deployment/MigrationSystemDictator.sol:MigrationSystemDictator",
            "label": "proxyAdmin",
            "offset": 0,
            "slot": "1",
            "type": "t_contract(ProxyAdmin)8116"
          },
          {
            "astId": 2367,
            "contract": "contracts/deployment/MigrationSystemDictator.sol:MigrationSystemDictator",
            "label": "controller",
            "offset": 0,
            "slot": "2",
            "type": "t_address"
          },
          {
            "astId": 2369,
            "contract": "contracts/deployment/MigrationSystemDictator.sol:MigrationSystemDictator",
            "label": "finalOwner",
            "offset": 0,
            "slot": "3",
            "type": "t_address"
          }
        ]
      },
      "t_struct(ImplementationAddressConfig)2410_storage": {
        "encoding": "inplace",
        "label": "struct BaseSystemDictator.ImplementationAddressConfig",
        "numberOfBytes": "256",
        "members": [
          {
            "astId": 2388,
            "contract": "contracts/deployment/MigrationSystemDictator.sol:MigrationSystemDictator",
            "label": "l2OutputOracleImpl",
            "offset": 0,
            "slot": "0",
            "type": "t_contract(L2OutputOracle)1088"
          },
          {
            "astId": 2391,
            "contract": "contracts/deployment/MigrationSystemDictator.sol:MigrationSystemDictator",
            "label": "optimismPortalImpl",
            "offset": 0,
            "slot": "1",
            "type": "t_contract(OptimismPortal)1641"
          },
          {
            "astId": 2394,
            "contract": "contracts/deployment/MigrationSystemDictator.sol:MigrationSystemDictator",
            "label": "l1CrossDomainMessengerImpl",
            "offset": 0,
            "slot": "2",
            "type": "t_contract(L1CrossDomainMessenger)135"
          },
          {
            "astId": 2397,
            "contract": "contracts/deployment/MigrationSystemDictator.sol:MigrationSystemDictator",
            "label": "l1StandardBridgeImpl",
            "offset": 0,
            "slot": "3",
            "type": "t_contract(L1StandardBridge)663"
          },
          {
            "astId": 2400,
            "contract": "contracts/deployment/MigrationSystemDictator.sol:MigrationSystemDictator",
            "label": "optimismMintableERC20FactoryImpl",
            "offset": 0,
            "slot": "4",
            "type": "t_contract(OptimismMintableERC20Factory)7410"
          },
          {
            "astId": 2403,
            "contract": "contracts/deployment/MigrationSystemDictator.sol:MigrationSystemDictator",
            "label": "l1ERC721BridgeImpl",
            "offset": 0,
            "slot": "5",
            "type": "t_contract(L1ERC721Bridge)335"
          },
          {
            "astId": 2406,
            "contract": "contracts/deployment/MigrationSystemDictator.sol:MigrationSystemDictator",
            "label": "portalSenderImpl",
            "offset": 0,
            "slot": "6",
            "type": "t_contract(PortalSender)3259"
          },
          {
            "astId": 2409,
            "contract": "contracts/deployment/MigrationSystemDictator.sol:MigrationSystemDictator",
            "label": "systemConfigImpl",
            "offset": 0,
            "slot": "7",
            "type": "t_contract(SystemConfig)2130"
          }
        ]
      },
      "t_struct(L2OutputOracleDynamicConfig)2415_storage": {
        "encoding": "inplace",
        "label": "struct BaseSystemDictator.L2OutputOracleDynamicConfig",
        "numberOfBytes": "64",
        "members": [
          {
            "astId": 2412,
            "contract": "contracts/deployment/MigrationSystemDictator.sol:MigrationSystemDictator",
            "label": "l2OutputOracleStartingBlockNumber",
            "offset": 0,
            "slot": "0",
            "type": "t_uint256"
          },
          {
            "astId": 2414,
            "contract": "contracts/deployment/MigrationSystemDictator.sol:MigrationSystemDictator",
            "label": "l2OutputOracleStartingTimestamp",
            "offset": 0,
            "slot": "1",
            "type": "t_uint256"
          }
        ]
      },
      "t_struct(ProxyAddressConfig)2385_storage": {
        "encoding": "inplace",
        "label": "struct BaseSystemDictator.ProxyAddressConfig",
        "numberOfBytes": "224",
        "members": [
          {
            "astId": 2372,
            "contract": "contracts/deployment/MigrationSystemDictator.sol:MigrationSystemDictator",
            "label": "l2OutputOracleProxy",
            "offset": 0,
            "slot": "0",
            "type": "t_address"
          },
          {
            "astId": 2374,
            "contract": "contracts/deployment/MigrationSystemDictator.sol:MigrationSystemDictator",
            "label": "optimismPortalProxy",
            "offset": 0,
            "slot": "1",
            "type": "t_address"
          },
          {
            "astId": 2376,
            "contract": "contracts/deployment/MigrationSystemDictator.sol:MigrationSystemDictator",
            "label": "l1CrossDomainMessengerProxy",
            "offset": 0,
            "slot": "2",
            "type": "t_address"
          },
          {
            "astId": 2378,
            "contract": "contracts/deployment/MigrationSystemDictator.sol:MigrationSystemDictator",
            "label": "l1StandardBridgeProxy",
            "offset": 0,
            "slot": "3",
            "type": "t_address"
          },
          {
            "astId": 2380,
            "contract": "contracts/deployment/MigrationSystemDictator.sol:MigrationSystemDictator",
            "label": "optimismMintableERC20FactoryProxy",
            "offset": 0,
            "slot": "4",
            "type": "t_address"
          },
          {
            "astId": 2382,
            "contract": "contracts/deployment/MigrationSystemDictator.sol:MigrationSystemDictator",
            "label": "l1ERC721BridgeProxy",
            "offset": 0,
            "slot": "5",
            "type": "t_address"
          },
          {
            "astId": 2384,
            "contract": "contracts/deployment/MigrationSystemDictator.sol:MigrationSystemDictator",
            "label": "systemConfigProxy",
            "offset": 0,
            "slot": "6",
            "type": "t_address"
          }
        ]
      },
      "t_struct(SystemConfigConfig)2426_storage": {
        "encoding": "inplace",
        "label": "struct BaseSystemDictator.SystemConfigConfig",
        "numberOfBytes": "160",
        "members": [
          {
            "astId": 2417,
            "contract": "contracts/deployment/MigrationSystemDictator.sol:MigrationSystemDictator",
            "label": "owner",
            "offset": 0,
            "slot": "0",
            "type": "t_address"
          },
          {
            "astId": 2419,
            "contract": "contracts/deployment/MigrationSystemDictator.sol:MigrationSystemDictator",
            "label": "overhead",
            "offset": 0,
            "slot": "1",
            "type": "t_uint256"
          },
          {
            "astId": 2421,
            "contract": "contracts/deployment/MigrationSystemDictator.sol:MigrationSystemDictator",
            "label": "scalar",
            "offset": 0,
            "slot": "2",
            "type": "t_uint256"
          },
          {
            "astId": 2423,
            "contract": "contracts/deployment/MigrationSystemDictator.sol:MigrationSystemDictator",
            "label": "batcherHash",
            "offset": 0,
            "slot": "3",
            "type": "t_bytes32"
          },
          {
            "astId": 2425,
            "contract": "contracts/deployment/MigrationSystemDictator.sol:MigrationSystemDictator",
            "label": "gasLimit",
            "offset": 0,
            "slot": "4",
            "type": "t_uint64"
          }
        ]
      },
      "t_uint256": {
        "encoding": "inplace",
        "label": "uint256",
        "numberOfBytes": "32"
      },
      "t_uint64": {
        "encoding": "inplace",
        "label": "uint64",
        "numberOfBytes": "8"
      },
      "t_uint8": {
        "encoding": "inplace",
        "label": "uint8",
        "numberOfBytes": "1"
      }
    }
  }
}