{
  "address": "0x7a95E4E235a98578BAdF016A84526f2C44d780a3",
  "abi": [
    {
      "inputs": [
        {
          "internalType": "contract OptimismPortal",
          "name": "_portal",
          "type": "address"
        }
      ],
      "stateMutability": "nonpayable",
      "type": "constructor"
    },
    {
      "inputs": [],
      "name": "PORTAL",
      "outputs": [
        {
          "internalType": "contract OptimismPortal",
          "name": "",
          "type": "address"
        }
      ],
      "stateMutability": "view",
      "type": "function"
    },
    {
      "inputs": [],
      "name": "donate",
      "outputs": [],
      "stateMutability": "nonpayable",
      "type": "function"
    }
  ],
  "transactionHash": "0x732aa579ce42bb379e196a67afff433bb5cd8515b8666491daedd27cf654958e",
  "args": [
    "0x0BADcE63972cc4A4bA35FEADB6b81C96e7842153"
  ],
  "numDeployments": 1,
  "solcInputHash": "fa365344aaa25c50c515beb2cd778af4",
  "bytecode": "0x60a060405234801561001057600080fd5b506040516101b53803806101b583398101604081905261002f91610040565b6001600160a01b0316608052610070565b60006020828403121561005257600080fd5b81516001600160a01b038116811461006957600080fd5b9392505050565b6080516101256100906000396000818160400152609701526101256000f3fe608060405234801561001057600080fd5b50600436106100365760003560e01c80630ff754ea1461003b578063ed88c68e1461008b575b600080fd5b6100627f000000000000000000000000000000000000000000000000000000000000000081565b60405173ffffffffffffffffffffffffffffffffffffffff909116815260200160405180910390f35b610093610095565b005b7f000000000000000000000000000000000000000000000000000000000000000073ffffffffffffffffffffffffffffffffffffffff16638b4c40b0476040518263ffffffff1660e01b81526004016000604051808303818588803b1580156100fd57600080fd5b505af1158015610111573d6000803e3d6000fd5b505050505056fea164736f6c634300080f000a",
  "devdoc": {
    "version": 1,
    "kind": "dev",
    "methods": {
      "constructor": {
        "params": {
          "_portal": "Address of the OptimismPortal contract."
        }
      }
    },
    "title": "PortalSender"
  },
  "userdoc": {
    "version": 1,
    "kind": "user",
    "methods": {
      "PORTAL()": {
        "notice": "Address of the OptimismPortal contract."
      },
      "donate()": {
        "notice": "Sends balance of this contract to the OptimismPortal."
      }
    },
    "notice": "The PortalSender is a simple intermediate contract that will transfer the balance of the         L1StandardBridge to the OptimismPortal during the Bedrock migration."
  }
}