{
  "abi": [
    {
      "type": "constructor",
      "inputs": [],
      "stateMutability": "nonpayable"
    },
    {
      "type": "receive",
      "stateMutability": "payable"
    },
    {
      "type": "function",
      "name": "depositTransaction",
      "inputs": [
        {
          "name": "_to",
          "type": "address",
          "internalType": "address"
        },
        {
          "name": "_value",
          "type": "uint256",
          "internalType": "uint256"
        },
        {
          "name": "_gasLimit",
          "type": "uint64",
          "internalType": "uint64"
        },
        {
          "name": "_isCreation",
          "type": "bool",
          "internalType": "bool"
        },
        {
          "name": "_data",
          "type": "bytes",
          "internalType": "bytes"
        }
      ],
      "outputs": [],
      "stateMutability": "payable"
    },
    {
      "type": "function",
      "name": "donateETH",
      "inputs": [],
      "outputs": [],
      "stateMutability": "payable"
    },
    {
      "type": "function",
      "name": "finalizeWithdrawalTransaction",
      "inputs": [
        {
          "name": "_tx",
          "type": "tuple",
          "internalType": "struct Types.WithdrawalTransaction",
          "components": [
            {
              "name": "nonce",
              "type": "uint256",
              "internalType": "uint256"
            },
            {
              "name": "sender",
              "type": "address",
              "internalType": "address"
            },
            {
              "name": "target",
              "type": "address",
              "internalType": "address"
            },
            {
              "name": "value",
              "type": "uint256",
              "internalType": "uint256"
            },
            {
              "name": "gasLimit",
              "type": "uint256",
              "internalType": "uint256"
            },
            {
              "name": "data",
              "type": "bytes",
              "internalType": "bytes"
            }
          ]
        }
      ],
      "outputs": [],
      "stateMutability": "nonpayable"
    },
    {
      "type": "function",
      "name": "finalizedWithdrawals",
      "inputs": [
        {
          "name": "",
          "type": "bytes32",
          "internalType": "bytes32"
        }
      ],
      "outputs": [
        {
          "name": "",
          "type": "bool",
          "internalType": "bool"
        }
      ],
      "stateMutability": "view"
    },
    {
      "type": "function",
      "name": "guardian",
      "inputs": [],
      "outputs": [
        {
          "name": "",
          "type": "address",
          "internalType": "address"
        }
      ],
      "stateMutability": "view"
    },
    {
      "type": "function",
      "name": "initialize",
      "inputs": [
        {
          "name": "_l2Oracle",
          "type": "address",
          "internalType": "contract L2OutputOracle"
        },
        {
          "name": "_systemConfig",
          "type": "address",
          "internalType": "contract SystemConfig"
        },
        {
          "name": "_superchainConfig",
          "type": "address",
          "internalType": "contract SuperchainConfig"
        }
      ],
      "outputs": [],
      "stateMutability": "nonpayable"
    },
    {
      "type": "function",
      "name": "isOutputFinalized",
      "inputs": [
        {
          "name": "_l2OutputIndex",
          "type": "uint256",
          "internalType": "uint256"
        }
      ],
      "outputs": [
        {
          "name": "",
          "type": "bool",
          "internalType": "bool"
        }
      ],
      "stateMutability": "view"
    },
    {
      "type": "function",
      "name": "l2Oracle",
      "inputs": [],
      "outputs": [
        {
          "name": "",
          "type": "address",
          "internalType": "contract L2OutputOracle"
        }
      ],
      "stateMutability": "view"
    },
    {
      "type": "function",
      "name": "l2Sender",
      "inputs": [],
      "outputs": [
        {
          "name": "",
          "type": "address",
          "internalType": "address"
        }
      ],
      "stateMutability": "view"
    },
    {
      "type": "function",
      "name": "minimumGasLimit",
      "inputs": [
        {
          "name": "_byteCount",
          "type": "uint64",
          "internalType": "uint64"
        }
      ],
      "outputs": [
        {
          "name": "",
          "type": "uint64",
          "internalType": "uint64"
        }
      ],
      "stateMutability": "pure"
    },
    {
      "type": "function",
      "name": "params",
      "inputs": [],
      "outputs": [
        {
          "name": "prevBaseFee",
          "type": "uint128",
          "internalType": "uint128"
        },
        {
          "name": "prevBoughtGas",
          "type": "uint64",
          "internalType": "uint64"
        },
        {
          "name": "prevBlockNum",
          "type": "uint64",
          "internalType": "uint64"
        }
      ],
      "stateMutability": "view"
    },
    {
      "type": "function",
      "name": "paused",
      "inputs": [],
      "outputs": [
        {
          "name": "paused_",
          "type": "bool",
          "internalType": "bool"
        }
      ],
      "stateMutability": "view"
    },
    {
      "type": "function",
      "name": "proveWithdrawalTransaction",
      "inputs": [
        {
          "name": "_tx",
          "type": "tuple",
          "internalType": "struct Types.WithdrawalTransaction",
          "components": [
            {
              "name": "nonce",
              "type": "uint256",
              "internalType": "uint256"
            },
            {
              "name": "sender",
              "type": "address",
              "internalType": "address"
            },
            {
              "name": "target",
              "type": "address",
              "internalType": "address"
            },
            {
              "name": "value",
              "type": "uint256",
              "internalType": "uint256"
            },
            {
              "name": "gasLimit",
              "type": "uint256",
              "internalType": "uint256"
            },
            {
              "name": "data",
              "type": "bytes",
              "internalType": "bytes"
            }
          ]
        },
        {
          "name": "_l2OutputIndex",
          "type": "uint256",
          "internalType": "uint256"
        },
        {
          "name": "_outputRootProof",
          "type": "tuple",
          "internalType": "struct Types.OutputRootProof",
          "components": [
            {
              "name": "version",
              "type": "bytes32",
              "internalType": "bytes32"
            },
            {
              "name": "stateRoot",
              "type": "bytes32",
              "internalType": "bytes32"
            },
            {
              "name": "messagePasserStorageRoot",
              "type": "bytes32",
              "internalType": "bytes32"
            },
            {
              "name": "latestBlockhash",
              "type": "bytes32",
              "internalType": "bytes32"
            }
          ]
        },
        {
          "name": "_withdrawalProof",
          "type": "bytes[]",
          "internalType": "bytes[]"
        }
      ],
      "outputs": [],
      "stateMutability": "nonpayable"
    },
    {
      "type": "function",
      "name": "provenWithdrawals",
      "inputs": [
        {
          "name": "",
          "type": "bytes32",
          "internalType": "bytes32"
        }
      ],
      "outputs": [
        {
          "name": "outputRoot",
          "type": "bytes32",
          "internalType": "bytes32"
        },
        {
          "name": "timestamp",
          "type": "uint128",
          "internalType": "uint128"
        },
        {
          "name": "l2OutputIndex",
          "type": "uint128",
          "internalType": "uint128"
        }
      ],
      "stateMutability": "view"
    },
    {
      "type": "function",
      "name": "superchainConfig",
      "inputs": [],
      "outputs": [
        {
          "name": "",
          "type": "address",
          "internalType": "contract SuperchainConfig"
        }
      ],
      "stateMutability": "view"
    },
    {
      "type": "function",
      "name": "systemConfig",
      "inputs": [],
      "outputs": [
        {
          "name": "",
          "type": "address",
          "internalType": "contract SystemConfig"
        }
      ],
      "stateMutability": "view"
    },
    {
      "type": "function",
      "name": "version",
      "inputs": [],
      "outputs": [
        {
          "name": "",
          "type": "string",
          "internalType": "string"
        }
      ],
      "stateMutability": "view"
    },
    {
      "type": "event",
      "name": "Initialized",
      "inputs": [
        {
          "name": "version",
          "type": "uint8",
          "indexed": false,
          "internalType": "uint8"
        }
      ],
      "anonymous": false
    },
    {
      "type": "event",
      "name": "TransactionDeposited",
      "inputs": [
        {
          "name": "from",
          "type": "address",
          "indexed": true,
          "internalType": "address"
        },
        {
          "name": "to",
          "type": "address",
          "indexed": true,
          "internalType": "address"
        },
        {
          "name": "version",
          "type": "uint256",
          "indexed": true,
          "internalType": "uint256"
        },
        {
          "name": "opaqueData",
          "type": "bytes",
          "indexed": false,
          "internalType": "bytes"
        }
      ],
      "anonymous": false
    },
    {
      "type": "event",
      "name": "WithdrawalFinalized",
      "inputs": [
        {
          "name": "withdrawalHash",
          "type": "bytes32",
          "indexed": true,
          "internalType": "bytes32"
        },
        {
          "name": "success",
          "type": "bool",
          "indexed": false,
          "internalType": "bool"
        }
      ],
      "anonymous": false
    },
    {
      "type": "event",
      "name": "WithdrawalProven",
      "inputs": [
        {
          "name": "withdrawalHash",
          "type": "bytes32",
          "indexed": true,
          "internalType": "bytes32"
        },
        {
          "name": "from",
          "type": "address",
          "indexed": true,
          "internalType": "address"
        },
        {
          "name": "to",
          "type": "address",
          "indexed": true,
          "internalType": "address"
        }
      ],
      "anonymous": false
    },
    {
      "type": "error",
      "name": "BadTarget",
      "inputs": []
    },
    {
      "type": "error",
      "name": "CallPaused",
      "inputs": []
    },
    {
      "type": "error",
      "name": "GasEstimation",
      "inputs": []
    },
    {
      "type": "error",
      "name": "LargeCalldata",
      "inputs": []
    },
    {
      "type": "error",
      "name": "OutOfGas",
      "inputs": []
    },
    {
      "type": "error",
      "name": "SmallGasLimit",
      "inputs": []
    }
  ],
  "bytecode": {
    "object": "0x60806040523480156200001157600080fd5b50620000206000808062000026565b6200028f565b600054610100900460ff1615808015620000475750600054600160ff909116105b806200007757506200006430620001c160201b6200191f1760201c565b15801562000077575060005460ff166001145b620000e05760405162461bcd60e51b815260206004820152602e60248201527f496e697469616c697a61626c653a20636f6e747261637420697320616c72656160448201526d191e481a5b9a5d1a585b1a5e995960921b60648201526084015b60405180910390fd5b6000805460ff19166001179055801562000104576000805461ff0019166101001790555b603680546001600160a01b03199081166001600160a01b03878116919091179092556037805490911685831617905560358054610100600160a81b03191661010085841602179055603254166200016a57603280546001600160a01b03191661dead1790555b62000174620001d0565b8015620001bb576000805461ff0019169055604051600181527f7f26b83ff96e1f2b6a682f133852f6798a09c465da95921460cefb38474024989060200160405180910390a15b50505050565b6001600160a01b03163b151590565b600054610100900460ff166200023d5760405162461bcd60e51b815260206004820152602b60248201527f496e697469616c697a61626c653a20636f6e7472616374206973206e6f74206960448201526a6e697469616c697a696e6760a81b6064820152608401620000d7565b600154600160c01b90046001600160401b03166000036200028d5760408051606081018252633b9aca0080825260006020830152436001600160401b031691909201819052600160c01b02176001555b565b615142806200029f6000396000f3fe6080604052600436106101125760003560e01c80638c3152e9116100a5578063a35d99df11610074578063cff0ab9611610059578063cff0ab961461039a578063e965084c1461043b578063e9e05c42146104c757600080fd5b8063a35d99df14610341578063c0c53b8b1461037a57600080fd5b80638c3152e9146102975780639b5f694a146102b75780639bf62d82146102e4578063a14238e71461031157600080fd5b806354fd4d50116100e157806354fd4d50146101fc5780635c975abb146102525780636dbffb78146102775780638b4c40b01461013757600080fd5b806333d7e2bd1461013e57806335e80ab314610195578063452a9320146101c75780634870496f146101dc57600080fd5b36610139576101373334620186a06000604051806020016040528060008152506104d5565b005b600080fd5b34801561014a57600080fd5b5060375461016b9073ffffffffffffffffffffffffffffffffffffffff1681565b60405173ffffffffffffffffffffffffffffffffffffffff90911681526020015b60405180910390f35b3480156101a157600080fd5b5060355461016b90610100900473ffffffffffffffffffffffffffffffffffffffff1681565b3480156101d357600080fd5b5061016b610692565b3480156101e857600080fd5b506101376101f7366004614709565b61072a565b34801561020857600080fd5b506102456040518060400160405280600581526020017f322e362e3000000000000000000000000000000000000000000000000000000081525081565b60405161018c919061485b565b34801561025e57600080fd5b50610267610d2d565b604051901515815260200161018c565b34801561028357600080fd5b5061026761029236600461486e565b610dc0565b3480156102a357600080fd5b506101376102b2366004614887565b610e7d565b3480156102c357600080fd5b5060365461016b9073ffffffffffffffffffffffffffffffffffffffff1681565b3480156102f057600080fd5b5060325461016b9073ffffffffffffffffffffffffffffffffffffffff1681565b34801561031d57600080fd5b5061026761032c36600461486e565b60336020526000908152604090205460ff1681565b34801561034d57600080fd5b5061036161035c3660046148e1565b6116b8565b60405167ffffffffffffffff909116815260200161018c565b34801561038657600080fd5b506101376103953660046148fc565b6116d1565b3480156103a657600080fd5b50600154610402906fffffffffffffffffffffffffffffffff81169067ffffffffffffffff7001000000000000000000000000000000008204811691780100000000000000000000000000000000000000000000000090041683565b604080516fffffffffffffffffffffffffffffffff909416845267ffffffffffffffff928316602085015291169082015260600161018c565b34801561044757600080fd5b5061049961045636600461486e565b603460205260009081526040902080546001909101546fffffffffffffffffffffffffffffffff8082169170010000000000000000000000000000000090041683565b604080519384526fffffffffffffffffffffffffffffffff928316602085015291169082015260600161018c565b6101376104d5366004614955565b8260005a90508380156104fd575073ffffffffffffffffffffffffffffffffffffffff871615155b15610534576040517f13496fda00000000000000000000000000000000000000000000000000000000815260040160405180910390fd5b61053e83516116b8565b67ffffffffffffffff168567ffffffffffffffff16101561058b576040517f4929b80800000000000000000000000000000000000000000000000000000000815260040160405180910390fd5b6201d4c0835111156105c9576040517f73052b0f00000000000000000000000000000000000000000000000000000000815260040160405180910390fd5b333281146105ea575033731111000000000000000000000000000000001111015b600034888888886040516020016106059594939291906149d2565b604051602081830303815290604052905060008973ffffffffffffffffffffffffffffffffffffffff168373ffffffffffffffffffffffffffffffffffffffff167fb3813568d9991fc951961fcb4c784893574240a28925604d09fc577c55bb7c3284604051610675919061485b565b60405180910390a45050610689828261193b565b50505050505050565b6000603560019054906101000a900473ffffffffffffffffffffffffffffffffffffffff1673ffffffffffffffffffffffffffffffffffffffff1663452a93206040518163ffffffff1660e01b8152600401602060405180830381865afa158015610701573d6000803e3d6000fd5b505050506040513d601f19601f820116820180604052508101906107259190614a37565b905090565b610732610d2d565b15610769576040517ff480973e00000000000000000000000000000000000000000000000000000000815260040160405180910390fd5b3073ffffffffffffffffffffffffffffffffffffffff16856040015173ffffffffffffffffffffffffffffffffffffffff160361082d576040517f08c379a000000000000000000000000000000000000000000000000000000000815260206004820152603f60248201527f4f7074696d69736d506f7274616c3a20796f752063616e6e6f742073656e642060448201527f6d6573736167657320746f2074686520706f7274616c20636f6e74726163740060648201526084015b60405180910390fd5b6036546040517fa25ae5570000000000000000000000000000000000000000000000000000000081526004810186905260009173ffffffffffffffffffffffffffffffffffffffff169063a25ae55790602401606060405180830381865afa15801561089d573d6000803e3d6000fd5b505050506040513d601f19601f820116820180604052508101906108c19190614a74565b5190506108db6108d636869003860186614ad9565b611c12565b8114610969576040517f08c379a000000000000000000000000000000000000000000000000000000000815260206004820152602960248201527f4f7074696d69736d506f7274616c3a20696e76616c6964206f7574707574207260448201527f6f6f742070726f6f6600000000000000000000000000000000000000000000006064820152608401610824565b600061097487611c6e565b6000818152603460209081526040918290208251606081018452815481526001909101546fffffffffffffffffffffffffffffffff8082169383018490527001000000000000000000000000000000009091041692810192909252919250901580610a8a5750805160365460408084015190517fa25ae5570000000000000000000000000000000000000000000000000000000081526fffffffffffffffffffffffffffffffff909116600482015273ffffffffffffffffffffffffffffffffffffffff9091169063a25ae55790602401606060405180830381865afa158015610a62573d6000803e3d6000fd5b505050506040513d601f19601f82011682018060405250810190610a869190614a74565b5114155b610b16576040517f08c379a000000000000000000000000000000000000000000000000000000000815260206004820152603760248201527f4f7074696d69736d506f7274616c3a207769746864726177616c20686173682060448201527f68617320616c7265616479206265656e2070726f76656e0000000000000000006064820152608401610824565b60408051602081018490526000918101829052606001604080517fffffffffffffffffffffffffffffffffffffffffffffffffffffffffffffffe081840301815282825280516020918201209083018190529250610bdf9101604080517fffffffffffffffffffffffffffffffffffffffffffffffffffffffffffffffe0818403018152828201909152600182527f0100000000000000000000000000000000000000000000000000000000000000602083015290610bd5888a614b3f565b8a60400135611c9e565b610c6b576040517f08c379a000000000000000000000000000000000000000000000000000000000815260206004820152603260248201527f4f7074696d69736d506f7274616c3a20696e76616c696420776974686472617760448201527f616c20696e636c7573696f6e2070726f6f6600000000000000000000000000006064820152608401610824565b604080516060810182528581526fffffffffffffffffffffffffffffffff42811660208084019182528c831684860190815260008981526034835286812095518655925190518416700100000000000000000000000000000000029316929092176001909301929092558b830151908c0151925173ffffffffffffffffffffffffffffffffffffffff918216939091169186917f67a6208cfcc0801d50f6cbe764733f4fddf66ac0b04442061a8a8c0cb6b63f629190a4505050505050505050565b6000603560019054906101000a900473ffffffffffffffffffffffffffffffffffffffff1673ffffffffffffffffffffffffffffffffffffffff16635c975abb6040518163ffffffff1660e01b8152600401602060405180830381865afa158015610d9c573d6000803e3d6000fd5b505050506040513d601f19601f820116820180604052508101906107259190614bc3565b6036546040517fa25ae55700000000000000000000000000000000000000000000000000000000815260048101839052600091610e759173ffffffffffffffffffffffffffffffffffffffff9091169063a25ae55790602401606060405180830381865afa158015610e36573d6000803e3d6000fd5b505050506040513d601f19601f82011682018060405250810190610e5a9190614a74565b602001516fffffffffffffffffffffffffffffffff16611cc2565b92915050565b565b610e85610d2d565b15610ebc576040517ff480973e00000000000000000000000000000000000000000000000000000000815260040160405180910390fd5b60325473ffffffffffffffffffffffffffffffffffffffff1661dead14610f65576040517f08c379a000000000000000000000000000000000000000000000000000000000815260206004820152603f60248201527f4f7074696d69736d506f7274616c3a2063616e206f6e6c79207472696767657260448201527f206f6e65207769746864726177616c20706572207472616e73616374696f6e006064820152608401610824565b6000610f7082611c6e565b60008181526034602090815260408083208151606081018352815481526001909101546fffffffffffffffffffffffffffffffff8082169483018590527001000000000000000000000000000000009091041691810191909152929350900361105b576040517f08c379a000000000000000000000000000000000000000000000000000000000815260206004820152603260248201527f4f7074696d69736d506f7274616c3a207769746864726177616c20686173206e60448201527f6f74206265656e2070726f76656e2079657400000000000000000000000000006064820152608401610824565b603660009054906101000a900473ffffffffffffffffffffffffffffffffffffffff1673ffffffffffffffffffffffffffffffffffffffff1663887862726040518163ffffffff1660e01b8152600401602060405180830381865afa1580156110c8573d6000803e3d6000fd5b505050506040513d601f19601f820116820180604052508101906110ec9190614be0565b81602001516fffffffffffffffffffffffffffffffff1610156111b7576040517f08c379a000000000000000000000000000000000000000000000000000000000815260206004820152604b60248201527f4f7074696d69736d506f7274616c3a207769746864726177616c2074696d657360448201527f74616d70206c657373207468616e204c32204f7261636c65207374617274696e60648201527f672074696d657374616d70000000000000000000000000000000000000000000608482015260a401610824565b6111d681602001516fffffffffffffffffffffffffffffffff16611cc2565b611288576040517f08c379a000000000000000000000000000000000000000000000000000000000815260206004820152604560248201527f4f7074696d69736d506f7274616c3a2070726f76656e2077697468647261776160448201527f6c2066696e616c697a6174696f6e20706572696f6420686173206e6f7420656c60648201527f6170736564000000000000000000000000000000000000000000000000000000608482015260a401610824565b60365460408281015190517fa25ae5570000000000000000000000000000000000000000000000000000000081526fffffffffffffffffffffffffffffffff909116600482015260009173ffffffffffffffffffffffffffffffffffffffff169063a25ae55790602401606060405180830381865afa15801561130f573d6000803e3d6000fd5b505050506040513d601f19601f820116820180604052508101906113339190614a74565b82518151919250146113ed576040517f08c379a000000000000000000000000000000000000000000000000000000000815260206004820152604960248201527f4f7074696d69736d506f7274616c3a206f757470757420726f6f742070726f7660448201527f656e206973206e6f74207468652073616d652061732063757272656e74206f7560648201527f7470757420726f6f740000000000000000000000000000000000000000000000608482015260a401610824565b61140c81602001516fffffffffffffffffffffffffffffffff16611cc2565b6114be576040517f08c379a000000000000000000000000000000000000000000000000000000000815260206004820152604360248201527f4f7074696d69736d506f7274616c3a206f75747075742070726f706f73616c2060448201527f66696e616c697a6174696f6e20706572696f6420686173206e6f7420656c617060648201527f7365640000000000000000000000000000000000000000000000000000000000608482015260a401610824565b60008381526033602052604090205460ff161561155d576040517f08c379a000000000000000000000000000000000000000000000000000000000815260206004820152603560248201527f4f7074696d69736d506f7274616c3a207769746864726177616c20686173206160448201527f6c7265616479206265656e2066696e616c697a656400000000000000000000006064820152608401610824565b600083815260336020908152604080832080547fffffffffffffffffffffffffffffffffffffffffffffffffffffffffffffff00166001179055908601516032805473ffffffffffffffffffffffffffffffffffffffff9092167fffffffffffffffffffffffff00000000000000000000000000000000000000009092169190911790558501516080860151606087015160a08801516115ff93929190611d68565b603280547fffffffffffffffffffffffff00000000000000000000000000000000000000001661dead17905560405190915084907fdb5c7652857aa163daadd670e116628fb42e869d8ac4251ef8971d9e5727df1b9061166490841515815260200190565b60405180910390a28015801561167a5750326001145b156116b1576040517feeae4ed300000000000000000000000000000000000000000000000000000000815260040160405180910390fd5b5050505050565b60006116c5826010614c28565b610e7590615208614c58565b600054610100900460ff16158080156116f15750600054600160ff909116105b8061170b5750303b15801561170b575060005460ff166001145b611797576040517f08c379a000000000000000000000000000000000000000000000000000000000815260206004820152602e60248201527f496e697469616c697a61626c653a20636f6e747261637420697320616c72656160448201527f647920696e697469616c697a65640000000000000000000000000000000000006064820152608401610824565b600080547fffffffffffffffffffffffffffffffffffffffffffffffffffffffffffffff0016600117905580156117f557600080547fffffffffffffffffffffffffffffffffffffffffffffffffffffffffffff00ff166101001790555b603680547fffffffffffffffffffffffff000000000000000000000000000000000000000090811673ffffffffffffffffffffffffffffffffffffffff8781169190911790925560378054909116858316179055603580547fffffffffffffffffffffff0000000000000000000000000000000000000000ff1661010085841602179055603254166118ae57603280547fffffffffffffffffffffffff00000000000000000000000000000000000000001661dead1790555b6118b6611dc6565b801561191957600080547fffffffffffffffffffffffffffffffffffffffffffffffffffffffffffff00ff169055604051600181527f7f26b83ff96e1f2b6a682f133852f6798a09c465da95921460cefb38474024989060200160405180910390a15b50505050565b73ffffffffffffffffffffffffffffffffffffffff163b151590565b600154600090611971907801000000000000000000000000000000000000000000000000900467ffffffffffffffff1643614c84565b9050600061197d611ed9565b90506000816020015160ff16826000015163ffffffff1661199e9190614cca565b90508215611ad5576001546000906119d5908390700100000000000000000000000000000000900467ffffffffffffffff16614d32565b90506000836040015160ff16836119ec9190614da6565b600154611a0c9084906fffffffffffffffffffffffffffffffff16614da6565b611a169190614cca565b600154909150600090611a6790611a409084906fffffffffffffffffffffffffffffffff16614e62565b866060015163ffffffff168760a001516fffffffffffffffffffffffffffffffff16611f9a565b90506001861115611a9657611a93611a4082876040015160ff1660018a611a8e9190614c84565b611fb9565b90505b6fffffffffffffffffffffffffffffffff16780100000000000000000000000000000000000000000000000067ffffffffffffffff4316021760015550505b60018054869190601090611b08908490700100000000000000000000000000000000900467ffffffffffffffff16614c58565b92506101000a81548167ffffffffffffffff021916908367ffffffffffffffff160217905550816000015163ffffffff16600160000160109054906101000a900467ffffffffffffffff1667ffffffffffffffff161315611b95576040517f77ebef4d00000000000000000000000000000000000000000000000000000000815260040160405180910390fd5b600154600090611bc1906fffffffffffffffffffffffffffffffff1667ffffffffffffffff8816614ed6565b90506000611bd348633b9aca0061200e565b611bdd9083614f13565b905060005a611bec9088614c84565b905080821115611c0857611c08611c038284614c84565b612025565b5050505050505050565b60008160000151826020015183604001518460600151604051602001611c51949392919093845260208401929092526040830152606082015260800190565b604051602081830303815290604052805190602001209050919050565b80516020808301516040808501516060860151608087015160a08801519351600097611c51979096959101614f27565b600080611caa86612053565b9050611cb881868686612085565b9695505050505050565b603654604080517ff4daa291000000000000000000000000000000000000000000000000000000008152905160009273ffffffffffffffffffffffffffffffffffffffff169163f4daa2919160048083019260209291908290030181865afa158015611d32573d6000803e3d6000fd5b505050506040513d601f19601f82011682018060405250810190611d569190614be0565b611d609083614f7e565b421192915050565b6000806000611d788660006120b5565b905080611dae576308c379a06000526020805278185361666543616c6c3a204e6f7420656e6f756768206761736058526064601cfd5b600080855160208701888b5af1979650505050505050565b600054610100900460ff16611e5d576040517f08c379a000000000000000000000000000000000000000000000000000000000815260206004820152602b60248201527f496e697469616c697a61626c653a20636f6e7472616374206973206e6f74206960448201527f6e697469616c697a696e670000000000000000000000000000000000000000006064820152608401610824565b6001547801000000000000000000000000000000000000000000000000900467ffffffffffffffff16600003610e7b5760408051606081018252633b9aca00808252600060208301524367ffffffffffffffff169190920181905278010000000000000000000000000000000000000000000000000217600155565b6040805160c08082018352600080835260208301819052828401819052606083018190526080830181905260a083015260375483517fcc731b020000000000000000000000000000000000000000000000000000000081529351929373ffffffffffffffffffffffffffffffffffffffff9091169263cc731b02926004808401939192918290030181865afa158015611f76573d6000803e3d6000fd5b505050506040513d601f19601f820116820180604052508101906107259190614fbb565b6000611faf611fa985856120d3565b836120e3565b90505b9392505050565b6000670de0b6b3a7640000611ffa611fd18583614cca565b611fe390670de0b6b3a7640000614d32565b611ff585670de0b6b3a7640000614da6565b6120f2565b6120049086614da6565b611faf9190614cca565b60008183101561201e5781611fb2565b5090919050565b6000805a90505b825a6120389083614c84565b101561204e576120478261505a565b915061202c565b505050565b6060818051906020012060405160200161206f91815260200190565b6040516020818303038152906040529050919050565b60006120ac84612096878686612123565b8051602091820120825192909101919091201490565b95945050505050565b600080603f83619c4001026040850201603f5a021015949350505050565b60008183121561201e5781611fb2565b600081831261201e5781611fb2565b6000611fb2670de0b6b3a76400008361210a86612ba1565b6121149190614da6565b61211e9190614cca565b612de5565b60606000845111612190576040517f08c379a000000000000000000000000000000000000000000000000000000000815260206004820152601560248201527f4d65726b6c65547269653a20656d707479206b657900000000000000000000006044820152606401610824565b600061219b84613024565b905060006121a886613110565b90506000846040516020016121bf91815260200190565b60405160208183030381529060405290506000805b8451811015612b185760008582815181106121f1576121f1615092565b60200260200101519050845183111561228c576040517f08c379a000000000000000000000000000000000000000000000000000000000815260206004820152602e60248201527f4d65726b6c65547269653a206b657920696e646578206578636565647320746f60448201527f74616c206b6579206c656e6774680000000000000000000000000000000000006064820152608401610824565b8260000361234557805180516020918201206040516122da926122b492910190815260200190565b604051602081830303815290604052858051602091820120825192909101919091201490565b612340576040517f08c379a000000000000000000000000000000000000000000000000000000000815260206004820152601d60248201527f4d65726b6c65547269653a20696e76616c696420726f6f7420686173680000006044820152606401610824565b61249c565b8051516020116123fb578051805160209182012060405161236f926122b492910190815260200190565b612340576040517f08c379a000000000000000000000000000000000000000000000000000000000815260206004820152602760248201527f4d65726b6c65547269653a20696e76616c6964206c6172676520696e7465726e60448201527f616c2068617368000000000000000000000000000000000000000000000000006064820152608401610824565b80518451602080870191909120825191909201201461249c576040517f08c379a000000000000000000000000000000000000000000000000000000000815260206004820152602660248201527f4d65726b6c65547269653a20696e76616c696420696e7465726e616c206e6f6460448201527f65206861736800000000000000000000000000000000000000000000000000006064820152608401610824565b6124a860106001614f7e565b81602001515103612684578451830361261c576124e281602001516010815181106124d5576124d5615092565b6020026020010151613173565b96506000875111612575576040517f08c379a000000000000000000000000000000000000000000000000000000000815260206004820152603b60248201527f4d65726b6c65547269653a2076616c7565206c656e677468206d75737420626560448201527f2067726561746572207468616e207a65726f20286272616e63682900000000006064820152608401610824565b600186516125839190614c84565b8214612611576040517f08c379a000000000000000000000000000000000000000000000000000000000815260206004820152603a60248201527f4d65726b6c65547269653a2076616c7565206e6f6465206d757374206265206c60448201527f617374206e6f646520696e2070726f6f6620286272616e6368290000000000006064820152608401610824565b505050505050611fb2565b600085848151811061263057612630615092565b602001015160f81c60f81b60f81c9050600082602001518260ff168151811061265b5761265b615092565b6020026020010151905061266e816132d3565b955061267b600186614f7e565b94505050612b05565b600281602001515103612a7d57600061269c826132f8565b90506000816000815181106126b3576126b3615092565b016020015160f81c905060006126ca6002836150c1565b6126d59060026150e3565b905060006126e6848360ff1661331c565b905060006126f48a8961331c565b905060006127028383613352565b905080835114612794576040517f08c379a000000000000000000000000000000000000000000000000000000000815260206004820152603a60248201527f4d65726b6c65547269653a20706174682072656d61696e646572206d7573742060448201527f736861726520616c6c206e6962626c65732077697468206b65790000000000006064820152608401610824565b60ff8516600214806127a9575060ff85166003145b15612998578082511461283e576040517f08c379a000000000000000000000000000000000000000000000000000000000815260206004820152603d60248201527f4d65726b6c65547269653a206b65792072656d61696e646572206d757374206260448201527f65206964656e746963616c20746f20706174682072656d61696e6465720000006064820152608401610824565b61285887602001516001815181106124d5576124d5615092565b9c5060008d51116128eb576040517f08c379a000000000000000000000000000000000000000000000000000000000815260206004820152603960248201527f4d65726b6c65547269653a2076616c7565206c656e677468206d75737420626560448201527f2067726561746572207468616e207a65726f20286c65616629000000000000006064820152608401610824565b60018c516128f99190614c84565b8814612987576040517f08c379a000000000000000000000000000000000000000000000000000000000815260206004820152603860248201527f4d65726b6c65547269653a2076616c7565206e6f6465206d757374206265206c60448201527f617374206e6f646520696e2070726f6f6620286c6561662900000000000000006064820152608401610824565b505050505050505050505050611fb2565b60ff851615806129ab575060ff85166001145b156129ea576129d787602001516001815181106129ca576129ca615092565b60200260200101516132d3565b99506129e3818a614f7e565b9850612a72565b6040517f08c379a000000000000000000000000000000000000000000000000000000000815260206004820152603260248201527f4d65726b6c65547269653a2072656365697665642061206e6f6465207769746860448201527f20616e20756e6b6e6f776e2070726566697800000000000000000000000000006064820152608401610824565b505050505050612b05565b6040517f08c379a000000000000000000000000000000000000000000000000000000000815260206004820152602860248201527f4d65726b6c65547269653a20726563656976656420616e20756e70617273656160448201527f626c65206e6f64650000000000000000000000000000000000000000000000006064820152608401610824565b5080612b108161505a565b9150506121d4565b506040517f08c379a000000000000000000000000000000000000000000000000000000000815260206004820152602560248201527f4d65726b6c65547269653a2072616e206f7574206f662070726f6f6620656c6560448201527f6d656e74730000000000000000000000000000000000000000000000000000006064820152608401610824565b6000808213612c0c576040517f08c379a000000000000000000000000000000000000000000000000000000000815260206004820152600960248201527f554e444546494e454400000000000000000000000000000000000000000000006044820152606401610824565b60006060612c1984613406565b03609f8181039490941b90931c6c465772b2bbbb5f824b15207a3081018102606090811d6d0388eaa27412d5aca026815d636e018202811d6d0df99ac502031bf953eff472fdcc018202811d6d13cdffb29d51d99322bdff5f2211018202811d6d0a0f742023def783a307a986912e018202811d6d01920d8043ca89b5239253284e42018202811d6c0b7a86d7375468fac667a0a527016c29508e458543d8aa4df2abee7883018302821d6d0139601a2efabe717e604cbb4894018302821d6d02247f7a7b6594320649aa03aba1018302821d7fffffffffffffffffffffffffffffffffffffff73c0c716a594e00d54e3c4cbc9018302821d7ffffffffffffffffffffffffffffffffffffffdc7b88c420e53a9890533129f6f01830290911d7fffffffffffffffffffffffffffffffffffffff465fda27eb4d63ded474e5f832019091027ffffffffffffffff5f6af8f7b3396644f18e157960000000000000000000000000105711340daa0d5f769dba1915cef59f0815a5506027d0267a36c0c95b3975ab3ee5b203a7614a3f75373f047d803ae7b6687f2b393909302929092017d57115e47018c7177eebf7cd370a3356a1b7863008a5ae8028c72b88642840160ae1d92915050565b60007ffffffffffffffffffffffffffffffffffffffffffffffffdb731c958f34d94c18213612e1657506000919050565b680755bf798b4a1bf1e58212612e88576040517f08c379a000000000000000000000000000000000000000000000000000000000815260206004820152600c60248201527f4558505f4f564552464c4f5700000000000000000000000000000000000000006044820152606401610824565b6503782dace9d9604e83901b059150600060606bb17217f7d1cf79abc9e3b39884821b056b80000000000000000000000001901d6bb17217f7d1cf79abc9e3b39881029093037fffffffffffffffffffffffffffffffffffffffdbf3ccf1604d263450f02a550481018102606090811d6d0277594991cfc85f6e2461837cd9018202811d7fffffffffffffffffffffffffffffffffffffe5adedaa1cb095af9e4da10e363c018202811d6db1bbb201f443cf962f1a1d3db4a5018202811d7ffffffffffffffffffffffffffffffffffffd38dc772608b0ae56cce01296c0eb018202811d6e05180bb14799ab47a8a8cb2a527d57016d02d16720577bd19bf614176fe9ea6c10fe68e7fd37d0007b713f765084018402831d9081019084017ffffffffffffffffffffffffffffffffffffffe2c69812cf03b0763fd454a8f7e010290911d6e0587f503bb6ea29d25fcb7401964500190910279d835ebba824c98fb31b83b2ca45c000000000000000000000000010574029d9dc38563c32e5c2f6dc192ee70ef65f9978af30260c3939093039290921c92915050565b80516060908067ffffffffffffffff81111561304257613042614529565b60405190808252806020026020018201604052801561308757816020015b60408051808201909152606080825260208201528152602001906001900390816130605790505b50915060005b818110156131095760405180604001604052808583815181106130b2576130b2615092565b602002602001015181526020016130e18684815181106130d4576130d4615092565b60200260200101516134dc565b8152508382815181106130f6576130f6615092565b602090810291909101015260010161308d565b5050919050565b606080604051905082518060011b603f8101601f1916830160405280835250602084016020830160005b83811015613168578060011b82018184015160001a8060041c8253600f81166001830153505060010161313a565b509295945050505050565b60606000806000613183856134ef565b91945092509050600081600181111561319e5761319e615106565b1461322b576040517f08c379a000000000000000000000000000000000000000000000000000000000815260206004820152603960248201527f524c505265616465723a206465636f646564206974656d207479706520666f7260448201527f206279746573206973206e6f7420612064617461206974656d000000000000006064820152608401610824565b6132358284614f7e565b8551146132c4576040517f08c379a000000000000000000000000000000000000000000000000000000000815260206004820152603460248201527f524c505265616465723a2062797465732076616c756520636f6e7461696e732060448201527f616e20696e76616c69642072656d61696e6465720000000000000000000000006064820152608401610824565b6120ac85602001518484613f5c565b606060208260000151106132ef576132ea82613173565b610e75565b610e7582613ff0565b6060610e7561331783602001516000815181106124d5576124d5615092565b613110565b60608251821061333b5750604080516020810190915260008152610e75565b611fb2838384865161334d9190614c84565b614006565b6000808251845110613365578251613368565b83515b90505b80821080156133ef575082828151811061338757613387615092565b602001015160f81c60f81b7effffffffffffffffffffffffffffffffffffffffffffffffffffffffffffff19168483815181106133c6576133c6615092565b01602001517fff0000000000000000000000000000000000000000000000000000000000000016145b156133ff5781600101915061336b565b5092915050565b6000808211613471576040517f08c379a000000000000000000000000000000000000000000000000000000000815260206004820152600960248201527f554e444546494e454400000000000000000000000000000000000000000000006044820152606401610824565b5060016fffffffffffffffffffffffffffffffff821160071b82811c67ffffffffffffffff1060061b1782811c63ffffffff1060051b1782811c61ffff1060041b1782811c60ff10600390811b90911783811c600f1060021b1783811c909110821b1791821c111790565b6060610e756134ea836141de565b6142c7565b6000806000808460000151116135ad576040517f08c379a000000000000000000000000000000000000000000000000000000000815260206004820152604a60248201527f524c505265616465723a206c656e677468206f6620616e20524c50206974656d60448201527f206d7573742062652067726561746572207468616e207a65726f20746f20626560648201527f206465636f6461626c6500000000000000000000000000000000000000000000608482015260a401610824565b6020840151805160001a607f81116135d2576000600160009450945094505050613f55565b60b781116137e05760006135e7608083614c84565b9050808760000151116136a2576040517f08c379a000000000000000000000000000000000000000000000000000000000815260206004820152604e60248201527f524c505265616465723a206c656e677468206f6620636f6e74656e74206d757360448201527f742062652067726561746572207468616e20737472696e67206c656e6774682060648201527f2873686f727420737472696e6729000000000000000000000000000000000000608482015260a401610824565b6001838101517fff0000000000000000000000000000000000000000000000000000000000000016908214158061371b57507f80000000000000000000000000000000000000000000000000000000000000007fff00000000000000000000000000000000000000000000000000000000000000821610155b6137cd576040517f08c379a000000000000000000000000000000000000000000000000000000000815260206004820152604d60248201527f524c505265616465723a20696e76616c6964207072656669782c2073696e676c60448201527f652062797465203c203078383020617265206e6f74207072656669786564202860648201527f73686f727420737472696e672900000000000000000000000000000000000000608482015260a401610824565b5060019550935060009250613f55915050565b60bf8111613b2e5760006137f560b783614c84565b9050808760000151116138b0576040517f08c379a000000000000000000000000000000000000000000000000000000000815260206004820152605160248201527f524c505265616465723a206c656e677468206f6620636f6e74656e74206d757360448201527f74206265203e207468616e206c656e677468206f6620737472696e67206c656e60648201527f67746820286c6f6e6720737472696e6729000000000000000000000000000000608482015260a401610824565b60018301517fff0000000000000000000000000000000000000000000000000000000000000016600081900361398e576040517f08c379a000000000000000000000000000000000000000000000000000000000815260206004820152604a60248201527f524c505265616465723a206c656e677468206f6620636f6e74656e74206d757360448201527f74206e6f74206861766520616e79206c656164696e67207a65726f7320286c6f60648201527f6e6720737472696e672900000000000000000000000000000000000000000000608482015260a401610824565b600184015160088302610100031c60378111613a52576040517f08c379a000000000000000000000000000000000000000000000000000000000815260206004820152604860248201527f524c505265616465723a206c656e677468206f6620636f6e74656e74206d757360448201527f742062652067726561746572207468616e20353520627974657320286c6f6e6760648201527f20737472696e6729000000000000000000000000000000000000000000000000608482015260a401610824565b613a5c8184614f7e565b895111613b11576040517f08c379a000000000000000000000000000000000000000000000000000000000815260206004820152604c60248201527f524c505265616465723a206c656e677468206f6620636f6e74656e74206d757360448201527f742062652067726561746572207468616e20746f74616c206c656e677468202860648201527f6c6f6e6720737472696e67290000000000000000000000000000000000000000608482015260a401610824565b613b1c836001614f7e565b9750955060009450613f559350505050565b60f78111613c0f576000613b4360c083614c84565b905080876000015111613bfe576040517f08c379a000000000000000000000000000000000000000000000000000000000815260206004820152604a60248201527f524c505265616465723a206c656e677468206f6620636f6e74656e74206d757360448201527f742062652067726561746572207468616e206c697374206c656e67746820287360648201527f686f7274206c6973742900000000000000000000000000000000000000000000608482015260a401610824565b600195509350849250613f55915050565b6000613c1c60f783614c84565b905080876000015111613cd7576040517f08c379a000000000000000000000000000000000000000000000000000000000815260206004820152604d60248201527f524c505265616465723a206c656e677468206f6620636f6e74656e74206d757360448201527f74206265203e207468616e206c656e677468206f66206c697374206c656e677460648201527f6820286c6f6e67206c6973742900000000000000000000000000000000000000608482015260a401610824565b60018301517fff00000000000000000000000000000000000000000000000000000000000000166000819003613db5576040517f08c379a000000000000000000000000000000000000000000000000000000000815260206004820152604860248201527f524c505265616465723a206c656e677468206f6620636f6e74656e74206d757360448201527f74206e6f74206861766520616e79206c656164696e67207a65726f7320286c6f60648201527f6e67206c69737429000000000000000000000000000000000000000000000000608482015260a401610824565b600184015160088302610100031c60378111613e79576040517f08c379a000000000000000000000000000000000000000000000000000000000815260206004820152604660248201527f524c505265616465723a206c656e677468206f6620636f6e74656e74206d757360448201527f742062652067726561746572207468616e20353520627974657320286c6f6e6760648201527f206c697374290000000000000000000000000000000000000000000000000000608482015260a401610824565b613e838184614f7e565b895111613f38576040517f08c379a000000000000000000000000000000000000000000000000000000000815260206004820152604a60248201527f524c505265616465723a206c656e677468206f6620636f6e74656e74206d757360448201527f742062652067726561746572207468616e20746f74616c206c656e677468202860648201527f6c6f6e67206c6973742900000000000000000000000000000000000000000000608482015260a401610824565b613f43836001614f7e565b9750955060019450613f559350505050565b9193909250565b60608167ffffffffffffffff811115613f7757613f77614529565b6040519080825280601f01601f191660200182016040528015613fa1576020820181803683370190505b5090508115611fb2576000613fb68486614f7e565b90506020820160005b84811015613fd7578281015182820152602001613fbf565b84811115613fe6576000858301525b5050509392505050565b6060610e75826020015160008460000151613f5c565b60608182601f011015614075576040517f08c379a000000000000000000000000000000000000000000000000000000000815260206004820152600e60248201527f736c6963655f6f766572666c6f770000000000000000000000000000000000006044820152606401610824565b8282840110156140e1576040517f08c379a000000000000000000000000000000000000000000000000000000000815260206004820152600e60248201527f736c6963655f6f766572666c6f770000000000000000000000000000000000006044820152606401610824565b8183018451101561414e576040517f08c379a000000000000000000000000000000000000000000000000000000000815260206004820152601160248201527f736c6963655f6f75744f66426f756e64730000000000000000000000000000006044820152606401610824565b60608215801561416d57604051915060008252602082016040526141d5565b6040519150601f8416801560200281840101858101878315602002848b0101015b818310156141a657805183526020928301920161418e565b5050858452601f017fffffffffffffffffffffffffffffffffffffffffffffffffffffffffffffffe016604052505b50949350505050565b604080518082019091526000808252602082015260008251116142a9576040517f08c379a000000000000000000000000000000000000000000000000000000000815260206004820152604a60248201527f524c505265616465723a206c656e677468206f6620616e20524c50206974656d60448201527f206d7573742062652067726561746572207468616e207a65726f20746f20626560648201527f206465636f6461626c6500000000000000000000000000000000000000000000608482015260a401610824565b50604080518082019091528151815260209182019181019190915290565b606060008060006142d7856134ef565b9194509250905060018160018111156142f2576142f2615106565b1461437f576040517f08c379a000000000000000000000000000000000000000000000000000000000815260206004820152603860248201527f524c505265616465723a206465636f646564206974656d207479706520666f7260448201527f206c697374206973206e6f742061206c697374206974656d00000000000000006064820152608401610824565b845161438b8385614f7e565b14614418576040517f08c379a000000000000000000000000000000000000000000000000000000000815260206004820152603260248201527f524c505265616465723a206c697374206974656d2068617320616e20696e766160448201527f6c696420646174612072656d61696e64657200000000000000000000000000006064820152608401610824565b604080516020808252610420820190925290816020015b604080518082019091526000808252602082015281526020019060019003908161442f5790505093506000835b865181101561451d576000806144a26040518060400160405280858c600001516144869190614c84565b8152602001858c6020015161449b9190614f7e565b90526134ef565b5091509150604051806040016040528083836144be9190614f7e565b8152602001848b602001516144d39190614f7e565b8152508885815181106144e8576144e8615092565b60209081029190910101526144fe600185614f7e565b935061450a8183614f7e565b6145149084614f7e565b9250505061445c565b50845250919392505050565b7f4e487b7100000000000000000000000000000000000000000000000000000000600052604160045260246000fd5b604051601f82017fffffffffffffffffffffffffffffffffffffffffffffffffffffffffffffffe016810167ffffffffffffffff8111828210171561459f5761459f614529565b604052919050565b73ffffffffffffffffffffffffffffffffffffffff811681146145c957600080fd5b50565b600082601f8301126145dd57600080fd5b813567ffffffffffffffff8111156145f7576145f7614529565b61462860207fffffffffffffffffffffffffffffffffffffffffffffffffffffffffffffffe0601f84011601614558565b81815284602083860101111561463d57600080fd5b816020850160208301376000918101602001919091529392505050565b600060c0828403121561466c57600080fd5b60405160c0810167ffffffffffffffff828210818311171561469057614690614529565b8160405282935084358352602085013591506146ab826145a7565b816020840152604085013591506146c1826145a7565b816040840152606085013560608401526080850135608084015260a08501359150808211156146ef57600080fd5b506146fc858286016145cc565b60a0830152505092915050565b600080600080600085870360e081121561472257600080fd5b863567ffffffffffffffff8082111561473a57600080fd5b6147468a838b0161465a565b97506020890135965060807fffffffffffffffffffffffffffffffffffffffffffffffffffffffffffffffc08401121561477f57600080fd5b60408901955060c089013592508083111561479957600080fd5b828901925089601f8401126147ad57600080fd5b82359150808211156147be57600080fd5b508860208260051b84010111156147d457600080fd5b959894975092955050506020019190565b60005b838110156148005781810151838201526020016147e8565b838111156119195750506000910152565b600081518084526148298160208601602086016147e5565b601f017fffffffffffffffffffffffffffffffffffffffffffffffffffffffffffffffe0169290920160200192915050565b602081526000611fb26020830184614811565b60006020828403121561488057600080fd5b5035919050565b60006020828403121561489957600080fd5b813567ffffffffffffffff8111156148b057600080fd5b6148bc8482850161465a565b949350505050565b803567ffffffffffffffff811681146148dc57600080fd5b919050565b6000602082840312156148f357600080fd5b611fb2826148c4565b60008060006060848603121561491157600080fd5b833561491c816145a7565b9250602084013561492c816145a7565b9150604084013561493c816145a7565b809150509250925092565b80151581146145c957600080fd5b600080600080600060a0868803121561496d57600080fd5b8535614978816145a7565b94506020860135935061498d604087016148c4565b9250606086013561499d81614947565b9150608086013567ffffffffffffffff8111156149b957600080fd5b6149c5888289016145cc565b9150509295509295909350565b8581528460208201527fffffffffffffffff0000000000000000000000000000000000000000000000008460c01b16604082015282151560f81b604882015260008251614a268160498501602087016147e5565b919091016049019695505050505050565b600060208284031215614a4957600080fd5b8151611fb2816145a7565b80516fffffffffffffffffffffffffffffffff811681146148dc57600080fd5b600060608284031215614a8657600080fd5b6040516060810181811067ffffffffffffffff82111715614aa957614aa9614529565b60405282518152614abc60208401614a54565b6020820152614acd60408401614a54565b60408201529392505050565b600060808284031215614aeb57600080fd5b6040516080810181811067ffffffffffffffff82111715614b0e57614b0e614529565b8060405250823581526020830135602082015260408301356040820152606083013560608201528091505092915050565b600067ffffffffffffffff80841115614b5a57614b5a614529565b8360051b6020614b6b818301614558565b868152918501918181019036841115614b8357600080fd5b865b84811015614bb757803586811115614b9d5760008081fd5b614ba936828b016145cc565b845250918301918301614b85565b50979650505050505050565b600060208284031215614bd557600080fd5b8151611fb281614947565b600060208284031215614bf257600080fd5b5051919050565b7f4e487b7100000000000000000000000000000000000000000000000000000000600052601160045260246000fd5b600067ffffffffffffffff80831681851681830481118215151615614c4f57614c4f614bf9565b02949350505050565b600067ffffffffffffffff808316818516808303821115614c7b57614c7b614bf9565b01949350505050565b600082821015614c9657614c96614bf9565b500390565b7f4e487b7100000000000000000000000000000000000000000000000000000000600052601260045260246000fd5b600082614cd957614cd9614c9b565b7fffffffffffffffffffffffffffffffffffffffffffffffffffffffffffffffff83147f800000000000000000000000000000000000000000000000000000000000000083141615614d2d57614d2d614bf9565b500590565b6000808312837f800000000000000000000000000000000000000000000000000000000000000001831281151615614d6c57614d6c614bf9565b837f7fffffffffffffffffffffffffffffffffffffffffffffffffffffffffffffff018313811615614da057614da0614bf9565b50500390565b60007f7fffffffffffffffffffffffffffffffffffffffffffffffffffffffffffffff600084136000841385830485118282161615614de757614de7614bf9565b7f80000000000000000000000000000000000000000000000000000000000000006000871286820588128184161615614e2257614e22614bf9565b60008712925087820587128484161615614e3e57614e3e614bf9565b87850587128184161615614e5457614e54614bf9565b505050929093029392505050565b6000808212827f7fffffffffffffffffffffffffffffffffffffffffffffffffffffffffffffff03841381151615614e9c57614e9c614bf9565b827f8000000000000000000000000000000000000000000000000000000000000000038412811615614ed057614ed0614bf9565b50500190565b6000817fffffffffffffffffffffffffffffffffffffffffffffffffffffffffffffffff0483118215151615614f0e57614f0e614bf9565b500290565b600082614f2257614f22614c9b565b500490565b868152600073ffffffffffffffffffffffffffffffffffffffff808816602084015280871660408401525084606083015283608083015260c060a0830152614f7260c0830184614811565b98975050505050505050565b60008219821115614f9157614f91614bf9565b500190565b805163ffffffff811681146148dc57600080fd5b805160ff811681146148dc57600080fd5b600060c08284031215614fcd57600080fd5b60405160c0810181811067ffffffffffffffff82111715614ff057614ff0614529565b604052614ffc83614f96565b815261500a60208401614faa565b602082015261501b60408401614faa565b604082015261502c60608401614f96565b606082015261503d60808401614f96565b608082015261504e60a08401614a54565b60a08201529392505050565b60007fffffffffffffffffffffffffffffffffffffffffffffffffffffffffffffffff820361508b5761508b614bf9565b5060010190565b7f4e487b7100000000000000000000000000000000000000000000000000000000600052603260045260246000fd5b600060ff8316806150d4576150d4614c9b565b8060ff84160691505092915050565b600060ff821660ff8416808210156150fd576150fd614bf9565b90039392505050565b7f4e487b7100000000000000000000000000000000000000000000000000000000600052602160045260246000fdfea164736f6c634300080f000a",
    "linkReferences": {}
  },
  "methodIdentifiers": {
    "depositTransaction(address,uint256,uint64,bool,bytes)": "e9e05c42",
    "donateETH()": "8b4c40b0",
    "finalizeWithdrawalTransaction((uint256,address,address,uint256,uint256,bytes))": "8c3152e9",
    "finalizedWithdrawals(bytes32)": "a14238e7",
    "guardian()": "452a9320",
    "initialize(address,address,address)": "c0c53b8b",
    "isOutputFinalized(uint256)": "6dbffb78",
    "l2Oracle()": "9b5f694a",
    "l2Sender()": "9bf62d82",
    "minimumGasLimit(uint64)": "a35d99df",
    "params()": "cff0ab96",
    "paused()": "5c975abb",
    "proveWithdrawalTransaction((uint256,address,address,uint256,uint256,bytes),uint256,(bytes32,bytes32,bytes32,bytes32),bytes[])": "4870496f",
    "provenWithdrawals(bytes32)": "e965084c",
    "superchainConfig()": "35e80ab3",
    "systemConfig()": "33d7e2bd",
    "version()": "54fd4d50"
  },
  "storageLayout": {
    "storage": [
      {
        "astId": 43796,
        "contract": "src/L1/OptimismPortal.sol:OptimismPortal",
        "label": "_initialized",
        "offset": 0,
        "slot": "0",
        "type": "t_uint8"
      },
      {
        "astId": 43799,
        "contract": "src/L1/OptimismPortal.sol:OptimismPortal",
        "label": "_initializing",
        "offset": 1,
        "slot": "0",
        "type": "t_bool"
      },
      {
        "astId": 68030,
        "contract": "src/L1/OptimismPortal.sol:OptimismPortal",
        "label": "params",
        "offset": 0,
        "slot": "1",
        "type": "t_struct(ResourceParams)68013_storage"
      },
      {
        "astId": 68035,
        "contract": "src/L1/OptimismPortal.sol:OptimismPortal",
        "label": "__gap",
        "offset": 0,
        "slot": "2",
        "type": "t_array(t_uint256)48_storage"
      },
      {
        "astId": 66241,
        "contract": "src/L1/OptimismPortal.sol:OptimismPortal",
        "label": "l2Sender",
        "offset": 0,
        "slot": "50",
        "type": "t_address"
      },
      {
        "astId": 66246,
        "contract": "src/L1/OptimismPortal.sol:OptimismPortal",
        "label": "finalizedWithdrawals",
        "offset": 0,
        "slot": "51",
        "type": "t_mapping(t_bytes32,t_bool)"
      },
      {
        "astId": 66252,
        "contract": "src/L1/OptimismPortal.sol:OptimismPortal",
        "label": "provenWithdrawals",
        "offset": 0,
        "slot": "52",
        "type": "t_mapping(t_bytes32,t_struct(ProvenWithdrawal)66230_storage)"
      },
      {
        "astId": 66255,
        "contract": "src/L1/OptimismPortal.sol:OptimismPortal",
        "label": "spacer_53_0_1",
        "offset": 0,
        "slot": "53",
        "type": "t_bool"
      },
      {
        "astId": 66259,
        "contract": "src/L1/OptimismPortal.sol:OptimismPortal",
        "label": "superchainConfig",
        "offset": 1,
        "slot": "53",
        "type": "t_contract(SuperchainConfig)68561"
      },
      {
        "astId": 66263,
        "contract": "src/L1/OptimismPortal.sol:OptimismPortal",
        "label": "l2Oracle",
        "offset": 0,
        "slot": "54",
        "type": "t_contract(L2OutputOracle)66187"
      },
      {
        "astId": 66267,
        "contract": "src/L1/OptimismPortal.sol:OptimismPortal",
        "label": "systemConfig",
        "offset": 0,
        "slot": "55",
        "type": "t_contract(SystemConfig)69375"
      }
    ],
    "types": {
      "t_address": {
        "encoding": "inplace",
        "label": "address",
        "numberOfBytes": "20"
      },
      "t_array(t_uint256)48_storage": {
        "encoding": "inplace",
        "label": "uint256[48]",
        "numberOfBytes": "1536",
        "base": "t_uint256"
      },
      "t_bool": {
        "encoding": "inplace",
        "label": "bool",
        "numberOfBytes": "1"
      },
      "t_bytes32": {
        "encoding": "inplace",
        "label": "bytes32",
        "numberOfBytes": "32"
      },
      "t_contract(L2OutputOracle)66187": {
        "encoding": "inplace",
        "label": "contract L2OutputOracle",
        "numberOfBytes": "20"
      },
      "t_contract(SuperchainConfig)68561": {
        "encoding": "inplace",
        "label": "contract SuperchainConfig",
        "numberOfBytes": "20"
      },
      "t_contract(SystemConfig)69375": {
        "encoding": "inplace",
        "label": "contract SystemConfig",
        "numberOfBytes": "20"
      },
      "t_mapping(t_bytes32,t_bool)": {
        "encoding": "mapping",
        "key": "t_bytes32",
        "label": "mapping(bytes32 => bool)",
        "numberOfBytes": "32",
        "value": "t_bool"
      },
      "t_mapping(t_bytes32,t_struct(ProvenWithdrawal)66230_storage)": {
        "encoding": "mapping",
        "key": "t_bytes32",
        "label": "mapping(bytes32 => struct OptimismPortal.ProvenWithdrawal)",
        "numberOfBytes": "32",
        "value": "t_struct(ProvenWithdrawal)66230_storage"
      },
      "t_struct(ProvenWithdrawal)66230_storage": {
        "encoding": "inplace",
        "label": "struct OptimismPortal.ProvenWithdrawal",
        "numberOfBytes": "64",
        "members": [
          {
            "astId": 66225,
            "contract": "src/L1/OptimismPortal.sol:OptimismPortal",
            "label": "outputRoot",
            "offset": 0,
            "slot": "0",
            "type": "t_bytes32"
          },
          {
            "astId": 66227,
            "contract": "src/L1/OptimismPortal.sol:OptimismPortal",
            "label": "timestamp",
            "offset": 0,
            "slot": "1",
            "type": "t_uint128"
          },
          {
            "astId": 66229,
            "contract": "src/L1/OptimismPortal.sol:OptimismPortal",
            "label": "l2OutputIndex",
            "offset": 16,
            "slot": "1",
            "type": "t_uint128"
          }
        ]
      },
      "t_struct(ResourceParams)68013_storage": {
        "encoding": "inplace",
        "label": "struct ResourceMetering.ResourceParams",
        "numberOfBytes": "32",
        "members": [
          {
            "astId": 68008,
            "contract": "src/L1/OptimismPortal.sol:OptimismPortal",
            "label": "prevBaseFee",
            "offset": 0,
            "slot": "0",
            "type": "t_uint128"
          },
          {
            "astId": 68010,
            "contract": "src/L1/OptimismPortal.sol:OptimismPortal",
            "label": "prevBoughtGas",
            "offset": 16,
            "slot": "0",
            "type": "t_uint64"
          },
          {
            "astId": 68012,
            "contract": "src/L1/OptimismPortal.sol:OptimismPortal",
            "label": "prevBlockNum",
            "offset": 24,
            "slot": "0",
            "type": "t_uint64"
          }
        ]
      },
      "t_uint128": {
        "encoding": "inplace",
        "label": "uint128",
        "numberOfBytes": "16"
      },
      "t_uint256": {
        "encoding": "inplace",
        "label": "uint256",
        "numberOfBytes": "32"
      },
      "t_uint64": {
        "encoding": "inplace",
        "label": "uint64",
        "numberOfBytes": "8"
      },
      "t_uint8": {
        "encoding": "inplace",
        "label": "uint8",
        "numberOfBytes": "1"
      }
    }
  },
  "userdoc": {
    "version": 1,
    "kind": "user",
    "methods": {
      "constructor": {
        "notice": "Constructs the OptimismPortal contract."
      },
      "depositTransaction(address,uint256,uint64,bool,bytes)": {
        "notice": "Accepts deposits of ETH and data, and emits a TransactionDeposited event for use in         deriving deposit transactions. Note that if a deposit is made by a contract, its         address will be aliased when retrieved using `tx.origin` or `msg.sender`. Consider         using the CrossDomainMessenger contracts for a simpler developer experience."
      },
      "donateETH()": {
        "notice": "Accepts ETH value without triggering a deposit to L2.         This function mainly exists for the sake of the migration between the legacy         Optimism system and Bedrock."
      },
      "finalizeWithdrawalTransaction((uint256,address,address,uint256,uint256,bytes))": {
        "notice": "Finalizes a withdrawal transaction."
      },
      "finalizedWithdrawals(bytes32)": {
        "notice": "A list of withdrawal hashes which have been successfully finalized."
      },
      "guardian()": {
        "notice": "Getter function for the address of the guardian.         Public getter is legacy and will be removed in the future. Use `SuperchainConfig.guardian()` instead."
      },
      "initialize(address,address,address)": {
        "notice": "Initializer."
      },
      "isOutputFinalized(uint256)": {
        "notice": "Determine if a given output is finalized.         Reverts if the call to l2Oracle.getL2Output reverts.         Returns a boolean otherwise."
      },
      "l2Oracle()": {
        "notice": "Contract of the L2OutputOracle."
      },
      "l2Sender()": {
        "notice": "Address of the L2 account which initiated a withdrawal in this transaction.         If the of this variable is the default L2 sender address, then we are NOT inside of         a call to finalizeWithdrawalTransaction."
      },
      "minimumGasLimit(uint64)": {
        "notice": "Computes the minimum gas limit for a deposit.         The minimum gas limit linearly increases based on the size of the calldata.         This is to prevent users from creating L2 resource usage without paying for it.         This function can be used when interacting with the portal to ensure forwards         compatibility."
      },
      "params()": {
        "notice": "EIP-1559 style gas parameters."
      },
      "paused()": {
        "notice": "Getter for the current paused status."
      },
      "proveWithdrawalTransaction((uint256,address,address,uint256,uint256,bytes),uint256,(bytes32,bytes32,bytes32,bytes32),bytes[])": {
        "notice": "Proves a withdrawal transaction."
      },
      "provenWithdrawals(bytes32)": {
        "notice": "A mapping of withdrawal hashes to `ProvenWithdrawal` data."
      },
      "superchainConfig()": {
        "notice": "Contract of the Superchain Config."
      },
      "systemConfig()": {
        "notice": "Contract of the SystemConfig."
      },
      "version()": {
        "notice": "Semantic version."
      }
    },
    "events": {
      "TransactionDeposited(address,address,uint256,bytes)": {
        "notice": "Emitted when a transaction is deposited from L1 to L2.         The parameters of this event are read by the rollup node and used to derive deposit         transactions on L2."
      },
      "WithdrawalFinalized(bytes32,bool)": {
        "notice": "Emitted when a withdrawal transaction is finalized."
      },
      "WithdrawalProven(bytes32,address,address)": {
        "notice": "Emitted when a withdrawal transaction is proven."
      }
    },
    "errors": {
      "BadTarget()": [
        {
          "notice": "Error for when a deposit or withdrawal is to a bad target."
        }
      ],
      "CallPaused()": [
        {
          "notice": "Error for when a method cannot be called when paused. This could be renamed         to `Paused` in the future, but it collides with the `Paused` event."
        }
      ],
      "GasEstimation()": [
        {
          "notice": "Error for special gas estimation."
        }
      ],
      "LargeCalldata()": [
        {
          "notice": "Error for when a deposit has too much calldata."
        }
      ],
      "OutOfGas()": [
        {
          "notice": "Error returned when too much gas resource is consumed."
        }
      ],
      "SmallGasLimit()": [
        {
          "notice": "Error for when a deposit has too small of a gas limit."
        }
      ]
    },
    "notice": "The OptimismPortal is a low-level contract responsible for passing messages between L1         and L2. Messages sent directly to the OptimismPortal have no form of replayability.         Users are encouraged to use the L1CrossDomainMessenger for a higher-level interface."
  },
  "devdoc": {
    "version": 1,
    "kind": "dev",
    "methods": {
      "depositTransaction(address,uint256,uint64,bool,bytes)": {
        "params": {
          "_data": "Data to trigger the recipient with.",
          "_gasLimit": "Amount of L2 gas to purchase by burning gas on L1.",
          "_isCreation": "Whether or not the transaction is a contract creation.",
          "_to": "Target address on L2.",
          "_value": "ETH value to send to the recipient."
        }
      },
      "finalizeWithdrawalTransaction((uint256,address,address,uint256,uint256,bytes))": {
        "params": {
          "_tx": "Withdrawal transaction to finalize."
        }
      },
      "guardian()": {
        "returns": {
          "_0": "Address of the guardian."
        }
      },
      "initialize(address,address,address)": {
        "params": {
          "_l2Oracle": "Contract of the L2OutputOracle.",
          "_superchainConfig": "Contract of the SuperchainConfig.",
          "_systemConfig": "Contract of the SystemConfig."
        }
      },
      "isOutputFinalized(uint256)": {
        "params": {
          "_l2OutputIndex": "Index of the L2 output to check."
        },
        "returns": {
          "_0": "Whether or not the output is finalized."
        }
      },
      "minimumGasLimit(uint64)": {
        "params": {
          "_byteCount": "Number of bytes in the calldata."
        },
        "returns": {
          "_0": "The minimum gas limit for a deposit."
        }
      },
      "paused()": {
        "returns": {
          "paused_": "Whether or not the contract is paused."
        }
      },
      "proveWithdrawalTransaction((uint256,address,address,uint256,uint256,bytes),uint256,(bytes32,bytes32,bytes32,bytes32),bytes[])": {
        "params": {
          "_l2OutputIndex": "L2 output index to prove against.",
          "_outputRootProof": "Inclusion proof of the L2ToL1MessagePasser contract's storage root.",
          "_tx": "Withdrawal transaction to finalize.",
          "_withdrawalProof": "Inclusion proof of the withdrawal in L2ToL1MessagePasser contract."
        }
      }
    },
    "events": {
      "TransactionDeposited(address,address,uint256,bytes)": {
        "params": {
          "from": "Address that triggered the deposit transaction.",
          "opaqueData": "ABI encoded deposit data to be parsed off-chain.",
          "to": "Address that the deposit transaction is directed to.",
          "version": "Version of this deposit transaction event."
        }
      },
      "WithdrawalFinalized(bytes32,bool)": {
        "params": {
          "success": "Whether the withdrawal transaction was successful.",
          "withdrawalHash": "Hash of the withdrawal transaction."
        }
      },
      "WithdrawalProven(bytes32,address,address)": {
        "params": {
          "from": "Address that triggered the withdrawal transaction.",
          "to": "Address that the withdrawal transaction is directed to.",
          "withdrawalHash": "Hash of the withdrawal transaction."
        }
      }
    }
  },
  "id": 81
}