{
  "address": "0x15DdA60616Ffca20371ED1659dBB78E888f65556",
  "abi": [
    {
      "inputs": [
        {
          "internalType": "address",
          "name": "_owner",
          "type": "address"
        }
      ],
      "stateMutability": "nonpayable",
      "type": "constructor"
    },
    {
      "anonymous": false,
      "inputs": [
        {
          "indexed": true,
          "internalType": "address",
          "name": "user",
          "type": "address"
        },
        {
          "indexed": true,
          "internalType": "address",
          "name": "newOwner",
          "type": "address"
        }
      ],
      "name": "OwnerUpdated",
      "type": "event"
    },
    {
      "anonymous": false,
      "inputs": [
        {
          "indexed": true,
          "internalType": "address",
          "name": "from",
          "type": "address"
        },
        {
          "indexed": false,
          "internalType": "uint256",
          "name": "amount",
          "type": "uint256"
        }
      ],
      "name": "ReceivedETH",
      "type": "event"
    },
    {
      "anonymous": false,
      "inputs": [
        {
          "indexed": true,
          "internalType": "address",
          "name": "withdrawer",
          "type": "address"
        },
        {
          "indexed": true,
          "internalType": "address",
          "name": "recipient",
          "type": "address"
        },
        {
          "indexed": true,
          "internalType": "address",
          "name": "asset",
          "type": "address"
        },
        {
          "indexed": false,
          "internalType": "uint256",
          "name": "amount",
          "type": "uint256"
        }
      ],
      "name": "WithdrewERC20",
      "type": "event"
    },
    {
      "anonymous": false,
      "inputs": [
        {
          "indexed": true,
          "internalType": "address",
          "name": "withdrawer",
          "type": "address"
        },
        {
          "indexed": true,
          "internalType": "address",
          "name": "recipient",
          "type": "address"
        },
        {
          "indexed": true,
          "internalType": "address",
          "name": "asset",
          "type": "address"
        },
        {
          "indexed": false,
          "internalType": "uint256",
          "name": "id",
          "type": "uint256"
        }
      ],
      "name": "WithdrewERC721",
      "type": "event"
    },
    {
      "anonymous": false,
      "inputs": [
        {
          "indexed": true,
          "internalType": "address",
          "name": "withdrawer",
          "type": "address"
        },
        {
          "indexed": true,
          "internalType": "address",
          "name": "recipient",
          "type": "address"
        },
        {
          "indexed": false,
          "internalType": "uint256",
          "name": "amount",
          "type": "uint256"
        }
      ],
      "name": "WithdrewETH",
      "type": "event"
    },
    {
      "inputs": [
        {
          "internalType": "address",
          "name": "_target",
          "type": "address"
        },
        {
          "internalType": "bytes",
          "name": "_data",
          "type": "bytes"
        },
        {
          "internalType": "uint256",
          "name": "_gas",
          "type": "uint256"
        },
        {
          "internalType": "uint256",
          "name": "_value",
          "type": "uint256"
        }
      ],
      "name": "CALL",
      "outputs": [
        {
          "internalType": "bool",
          "name": "",
          "type": "bool"
        },
        {
          "internalType": "bytes",
          "name": "",
          "type": "bytes"
        }
      ],
      "stateMutability": "payable",
      "type": "function"
    },
    {
      "inputs": [
        {
          "internalType": "address",
          "name": "_target",
          "type": "address"
        },
        {
          "internalType": "bytes",
          "name": "_data",
          "type": "bytes"
        },
        {
          "internalType": "uint256",
          "name": "_gas",
          "type": "uint256"
        }
      ],
      "name": "DELEGATECALL",
      "outputs": [
        {
          "internalType": "bool",
          "name": "",
          "type": "bool"
        },
        {
          "internalType": "bytes",
          "name": "",
          "type": "bytes"
        }
      ],
      "stateMutability": "payable",
      "type": "function"
    },
    {
      "inputs": [],
      "name": "owner",
      "outputs": [
        {
          "internalType": "address",
          "name": "",
          "type": "address"
        }
      ],
      "stateMutability": "view",
      "type": "function"
    },
    {
      "inputs": [
        {
          "internalType": "address",
          "name": "newOwner",
          "type": "address"
        }
      ],
      "name": "setOwner",
      "outputs": [],
      "stateMutability": "nonpayable",
      "type": "function"
    },
    {
      "inputs": [
        {
          "internalType": "contract ERC20",
          "name": "_asset",
          "type": "address"
        },
        {
          "internalType": "address",
          "name": "_to",
          "type": "address"
        },
        {
          "internalType": "uint256",
          "name": "_amount",
          "type": "uint256"
        }
      ],
      "name": "withdrawERC20",
      "outputs": [],
      "stateMutability": "nonpayable",
      "type": "function"
    },
    {
      "inputs": [
        {
          "internalType": "contract ERC20",
          "name": "_asset",
          "type": "address"
        },
        {
          "internalType": "address",
          "name": "_to",
          "type": "address"
        }
      ],
      "name": "withdrawERC20",
      "outputs": [],
      "stateMutability": "nonpayable",
      "type": "function"
    },
    {
      "inputs": [
        {
          "internalType": "contract ERC721",
          "name": "_asset",
          "type": "address"
        },
        {
          "internalType": "address",
          "name": "_to",
          "type": "address"
        },
        {
          "internalType": "uint256",
          "name": "_id",
          "type": "uint256"
        }
      ],
      "name": "withdrawERC721",
      "outputs": [],
      "stateMutability": "nonpayable",
      "type": "function"
    },
    {
      "inputs": [
        {
          "internalType": "address payable",
          "name": "_to",
          "type": "address"
        },
        {
          "internalType": "uint256",
          "name": "_amount",
          "type": "uint256"
        }
      ],
      "name": "withdrawETH",
      "outputs": [],
      "stateMutability": "nonpayable",
      "type": "function"
    },
    {
      "inputs": [
        {
          "internalType": "address payable",
          "name": "_to",
          "type": "address"
        }
      ],
      "name": "withdrawETH",
      "outputs": [],
      "stateMutability": "nonpayable",
      "type": "function"
    },
    {
      "stateMutability": "payable",
      "type": "receive"
    }
  ],
  "transactionHash": "0xb71ff0a1159385a03ad097a57d1cb37b62c5d6bc82be2e642a8d25d4ff4e1814",
  "args": [
    "0x9C6373dE60c2D3297b18A8f964618ac46E011B58"
  ],
  "numDeployments": 2,
  "solcInputHash": "66d28de48de020e62747d42ffe3118e7",
  "bytecode": "0x608060405234801561001057600080fd5b50604051610f6e380380610f6e83398101604081905261002f91610081565b600080546001600160a01b0319166001600160a01b038316908117825560405183928392917f8292fce18fa69edf4db7b94ea2e58241df0ae57f97e0a6c9b29067028bf92d76908290a35050506100b1565b60006020828403121561009357600080fd5b81516001600160a01b03811681146100aa57600080fd5b9392505050565b610eae806100c06000396000f3fe60806040526004361061009a5760003560e01c80635cef8b4a116100695780638da5cb5b1161004e5780638da5cb5b146101a75780639456fbcc146101f95780639e73dbea1461021957600080fd5b80635cef8b4a1461015d578063690d83201461018757600080fd5b806313af4035146100db5780634025feb2146100fd57806344004cc11461011d5780634782f7791461013d57600080fd5b366100d65760405134815233907f4103257eaac983ca79a70d28f90dfc4fa16b619bb0c17ee7cab0d4034c2796249060200160405180910390a2005b600080fd5b3480156100e757600080fd5b506100fb6100f6366004610b3a565b61022c565b005b34801561010957600080fd5b506100fb610118366004610b5e565b610322565b34801561012957600080fd5b506100fb610138366004610b5e565b6104b4565b34801561014957600080fd5b506100fb610158366004610b9f565b610654565b61017061016b366004610ca5565b61076a565b60405161017e929190610d2e565b60405180910390f35b34801561019357600080fd5b506100fb6101a2366004610b3a565b610863565b3480156101b357600080fd5b506000546101d49073ffffffffffffffffffffffffffffffffffffffff1681565b60405173ffffffffffffffffffffffffffffffffffffffff909116815260200161017e565b34801561020557600080fd5b506100fb610214366004610d88565b6108f1565b610170610227366004610dc1565b610a1b565b60005473ffffffffffffffffffffffffffffffffffffffff1633146102b2576040517f08c379a000000000000000000000000000000000000000000000000000000000815260206004820152600c60248201527f554e415554484f52495a4544000000000000000000000000000000000000000060448201526064015b60405180910390fd5b600080547fffffffffffffffffffffffff00000000000000000000000000000000000000001673ffffffffffffffffffffffffffffffffffffffff83169081178255604051909133917f8292fce18fa69edf4db7b94ea2e58241df0ae57f97e0a6c9b29067028bf92d769190a350565b60005473ffffffffffffffffffffffffffffffffffffffff1633146103a3576040517f08c379a000000000000000000000000000000000000000000000000000000000815260206004820152600c60248201527f554e415554484f52495a4544000000000000000000000000000000000000000060448201526064016102a9565b6040517f23b872dd00000000000000000000000000000000000000000000000000000000815230600482015273ffffffffffffffffffffffffffffffffffffffff8381166024830152604482018390528416906323b872dd90606401600060405180830381600087803b15801561041957600080fd5b505af115801561042d573d6000803e3d6000fd5b505050508273ffffffffffffffffffffffffffffffffffffffff168273ffffffffffffffffffffffffffffffffffffffff163373ffffffffffffffffffffffffffffffffffffffff167f30b478a5e196e55886228aa87ba74a7dfeba655e0a4d7ba275eabfc22aabb7a8846040516104a791815260200190565b60405180910390a4505050565b60005473ffffffffffffffffffffffffffffffffffffffff163314610535576040517f08c379a000000000000000000000000000000000000000000000000000000000815260206004820152600c60248201527f554e415554484f52495a4544000000000000000000000000000000000000000060448201526064016102a9565b6040517fa9059cbb00000000000000000000000000000000000000000000000000000000815273ffffffffffffffffffffffffffffffffffffffff83811660048301526024820183905284169063a9059cbb90604401602060405180830381600087803b1580156105a557600080fd5b505af11580156105b9573d6000803e3d6000fd5b505050506040513d601f19601f820116820180604052508101906105dd9190610e21565b508273ffffffffffffffffffffffffffffffffffffffff168273ffffffffffffffffffffffffffffffffffffffff163373ffffffffffffffffffffffffffffffffffffffff167f6b00f1c7883f053ba83e907fd1965b22fffe3c4111383e725f04638a566cdbfa846040516104a791815260200190565b60005473ffffffffffffffffffffffffffffffffffffffff1633146106d5576040517f08c379a000000000000000000000000000000000000000000000000000000000815260206004820152600c60248201527f554e415554484f52495a4544000000000000000000000000000000000000000060448201526064016102a9565b60405173ffffffffffffffffffffffffffffffffffffffff83169082156108fc029083906000818181858888f19350505050158015610718573d6000803e3d6000fd5b5060405181815273ffffffffffffffffffffffffffffffffffffffff83169033907f1f12aa8b6d492dd9b98e2b00b0b20830c2a7ded65afac13b60d169a034ae90bc9060200160405180910390a35050565b6000805460609073ffffffffffffffffffffffffffffffffffffffff1633146107ef576040517f08c379a000000000000000000000000000000000000000000000000000000000815260206004820152600c60248201527f554e415554484f52495a4544000000000000000000000000000000000000000060448201526064016102a9565b8473ffffffffffffffffffffffffffffffffffffffff1683856040516108159190610e43565b6000604051808303818686f4925050503d8060008114610851576040519150601f19603f3d011682016040523d82523d6000602084013e610856565b606091505b5091509150935093915050565b60005473ffffffffffffffffffffffffffffffffffffffff1633146108e4576040517f08c379a000000000000000000000000000000000000000000000000000000000815260206004820152600c60248201527f554e415554484f52495a4544000000000000000000000000000000000000000060448201526064016102a9565b6108ee8147610654565b50565b60005473ffffffffffffffffffffffffffffffffffffffff163314610972576040517f08c379a000000000000000000000000000000000000000000000000000000000815260206004820152600c60248201527f554e415554484f52495a4544000000000000000000000000000000000000000060448201526064016102a9565b6040517f70a08231000000000000000000000000000000000000000000000000000000008152306004820152610a17908390839073ffffffffffffffffffffffffffffffffffffffff8316906370a082319060240160206040518083038186803b1580156109df57600080fd5b505afa1580156109f3573d6000803e3d6000fd5b505050506040513d601f19601f820116820180604052508101906101389190610e5f565b5050565b6000805460609073ffffffffffffffffffffffffffffffffffffffff163314610aa0576040517f08c379a000000000000000000000000000000000000000000000000000000000815260206004820152600c60248201527f554e415554484f52495a4544000000000000000000000000000000000000000060448201526064016102a9565b8573ffffffffffffffffffffffffffffffffffffffff16848487604051610ac79190610e43565b600060405180830381858888f193505050503d8060008114610b05576040519150601f19603f3d011682016040523d82523d6000602084013e610b0a565b606091505b509150915094509492505050565b73ffffffffffffffffffffffffffffffffffffffff811681146108ee57600080fd5b600060208284031215610b4c57600080fd5b8135610b5781610b18565b9392505050565b600080600060608486031215610b7357600080fd5b8335610b7e81610b18565b92506020840135610b8e81610b18565b929592945050506040919091013590565b60008060408385031215610bb257600080fd5b8235610bbd81610b18565b946020939093013593505050565b7f4e487b7100000000000000000000000000000000000000000000000000000000600052604160045260246000fd5b600082601f830112610c0b57600080fd5b813567ffffffffffffffff80821115610c2657610c26610bcb565b604051601f83017fffffffffffffffffffffffffffffffffffffffffffffffffffffffffffffffe0908116603f01168101908282118183101715610c6c57610c6c610bcb565b81604052838152866020858801011115610c8557600080fd5b836020870160208301376000602085830101528094505050505092915050565b600080600060608486031215610cba57600080fd5b8335610cc581610b18565b9250602084013567ffffffffffffffff811115610ce157600080fd5b610ced86828701610bfa565b925050604084013590509250925092565b60005b83811015610d19578181015183820152602001610d01565b83811115610d28576000848401525b50505050565b82151581526040602082015260008251806040840152610d55816060850160208701610cfe565b601f017fffffffffffffffffffffffffffffffffffffffffffffffffffffffffffffffe016919091016060019392505050565b60008060408385031215610d9b57600080fd5b8235610da681610b18565b91506020830135610db681610b18565b809150509250929050565b60008060008060808587031215610dd757600080fd5b8435610de281610b18565b9350602085013567ffffffffffffffff811115610dfe57600080fd5b610e0a87828801610bfa565b949794965050505060408301359260600135919050565b600060208284031215610e3357600080fd5b81518015158114610b5757600080fd5b60008251610e55818460208701610cfe565b9190910192915050565b600060208284031215610e7157600080fd5b505191905056fea2646970667358221220a79fda18860baa011a378f2e4963a1c9eb8fa5184c5fd3130308ce3c35ba96da64736f6c63430008090033",
  "devdoc": {
    "kind": "dev",
    "methods": {
      "CALL(address,bytes,uint256,uint256)": {
        "params": {
          "_data": "Data to send with the call.",
          "_gas": "Amount of gas to send with the call.",
          "_target": "Address to call.",
          "_value": "ETH value to send with the call."
        },
        "returns": {
          "_0": "Boolean success value.",
          "_1": "Bytes data returned by the call."
        }
      },
      "DELEGATECALL(address,bytes,uint256)": {
        "params": {
          "_data": "Data to send with the call.",
          "_gas": "Amount of gas to send with the call.",
          "_target": "Address to call."
        },
        "returns": {
          "_0": "Boolean success value.",
          "_1": "Bytes data returned by the call."
        }
      },
      "constructor": {
        "params": {
          "_owner": "Initial contract owner."
        }
      },
      "withdrawERC20(address,address)": {
        "params": {
          "_asset": "ERC20 token to withdraw.",
          "_to": "Address to receive the ERC20 balance."
        }
      },
      "withdrawERC20(address,address,uint256)": {
        "params": {
          "_amount": "Amount of ERC20 to withdraw.",
          "_asset": "ERC20 token to withdraw.",
          "_to": "Address to receive the ERC20 balance."
        }
      },
      "withdrawERC721(address,address,uint256)": {
        "params": {
          "_asset": "ERC721 token to withdraw.",
          "_id": "Token ID of the ERC721 token to withdraw.",
          "_to": "Address to receive the ERC721 token."
        }
      },
      "withdrawETH(address)": {
        "params": {
          "_to": "Address to receive the ETH balance."
        }
      },
      "withdrawETH(address,uint256)": {
        "params": {
          "_amount": "Amount of ETH to withdraw.",
          "_to": "Address to receive the ETH balance."
        }
      }
    },
    "title": "AssetReceiver",
    "version": 1
  },
  "userdoc": {
    "events": {
      "ReceivedETH(address,uint256)": {
        "notice": "Emitted when ETH is received by this address."
      },
      "WithdrewERC20(address,address,address,uint256)": {
        "notice": "Emitted when ERC20 tokens are withdrawn from this address."
      },
      "WithdrewERC721(address,address,address,uint256)": {
        "notice": "Emitted when ERC721 tokens are withdrawn from this address."
      },
      "WithdrewETH(address,address,uint256)": {
        "notice": "Emitted when ETH is withdrawn from this address."
      }
    },
    "kind": "user",
    "methods": {
      "CALL(address,bytes,uint256,uint256)": {
        "notice": "Sends a CALL to a target address."
      },
      "DELEGATECALL(address,bytes,uint256)": {
        "notice": "Sends a DELEGATECALL to a target address."
      },
      "withdrawERC20(address,address)": {
        "notice": "Withdraws full ERC20 balance to the recipient."
      },
      "withdrawERC20(address,address,uint256)": {
        "notice": "Withdraws partial ERC20 balance to the recipient."
      },
      "withdrawERC721(address,address,uint256)": {
        "notice": "Withdraws ERC721 token to the recipient."
      },
      "withdrawETH(address)": {
        "notice": "Withdraws full ETH balance to the recipient."
      },
      "withdrawETH(address,uint256)": {
        "notice": "Withdraws partial ETH balance to the recipient."
      }
    },
    "notice": "AssetReceiver is a minimal contract for receiving funds assets in the form of either ETH, ERC20 tokens, or ERC721 tokens. Only the contract owner may withdraw the assets.",
    "version": 1
  },
  "storageLayout": {
    "storage": [
      {
        "astId": 10,
        "contract": "contracts/universal/AssetReceiver.sol:AssetReceiver",
        "label": "owner",
        "offset": 0,
        "slot": "0",
        "type": "t_address"
      }
    ],
    "types": {
      "t_address": {
        "encoding": "inplace",
        "label": "address",
        "numberOfBytes": "20"
      }
    }
  }
}