{
  "address": "0x09E040a72FD3492355C5aEEdbC3154075f83488a",
  "abi": [
    {
      "inputs": [],
      "stateMutability": "nonpayable",
      "type": "constructor"
    },
    {
      "anonymous": false,
      "inputs": [
        {
          "indexed": false,
          "internalType": "uint8",
          "name": "version",
          "type": "uint8"
        }
      ],
      "name": "Initialized",
      "type": "event"
    },
    {
      "anonymous": false,
      "inputs": [
        {
          "indexed": true,
          "internalType": "address",
          "name": "previousOwner",
          "type": "address"
        },
        {
          "indexed": true,
          "internalType": "address",
          "name": "newOwner",
          "type": "address"
        }
      ],
      "name": "OwnershipTransferred",
      "type": "event"
    },
    {
      "inputs": [],
      "name": "EXIT_1_NO_RETURN_STEP",
      "outputs": [
        {
          "internalType": "uint8",
          "name": "",
          "type": "uint8"
        }
      ],
      "stateMutability": "view",
      "type": "function"
    },
    {
      "inputs": [],
      "name": "PROXY_TRANSFER_STEP",
      "outputs": [
        {
          "internalType": "uint8",
          "name": "",
          "type": "uint8"
        }
      ],
      "stateMutability": "view",
      "type": "function"
    },
    {
      "inputs": [],
      "name": "config",
      "outputs": [
        {
          "components": [
            {
              "internalType": "contract AddressManager",
              "name": "addressManager",
              "type": "address"
            },
            {
              "internalType": "contract ProxyAdmin",
              "name": "proxyAdmin",
              "type": "address"
            },
            {
              "internalType": "address",
              "name": "controller",
              "type": "address"
            },
            {
              "internalType": "address",
              "name": "finalOwner",
              "type": "address"
            }
          ],
          "internalType": "struct SystemDictator.GlobalConfig",
          "name": "globalConfig",
          "type": "tuple"
        },
        {
          "components": [
            {
              "internalType": "address",
              "name": "l2OutputOracleProxy",
              "type": "address"
            },
            {
              "internalType": "address",
              "name": "optimismPortalProxy",
              "type": "address"
            },
            {
              "internalType": "address",
              "name": "l1CrossDomainMessengerProxy",
              "type": "address"
            },
            {
              "internalType": "address",
              "name": "l1StandardBridgeProxy",
              "type": "address"
            },
            {
              "internalType": "address",
              "name": "optimismMintableERC20FactoryProxy",
              "type": "address"
            },
            {
              "internalType": "address",
              "name": "l1ERC721BridgeProxy",
              "type": "address"
            },
            {
              "internalType": "address",
              "name": "systemConfigProxy",
              "type": "address"
            }
          ],
          "internalType": "struct SystemDictator.ProxyAddressConfig",
          "name": "proxyAddressConfig",
          "type": "tuple"
        },
        {
          "components": [
            {
              "internalType": "contract L2OutputOracle",
              "name": "l2OutputOracleImpl",
              "type": "address"
            },
            {
              "internalType": "contract OptimismPortal",
              "name": "optimismPortalImpl",
              "type": "address"
            },
            {
              "internalType": "contract L1CrossDomainMessenger",
              "name": "l1CrossDomainMessengerImpl",
              "type": "address"
            },
            {
              "internalType": "contract L1StandardBridge",
              "name": "l1StandardBridgeImpl",
              "type": "address"
            },
            {
              "internalType": "contract OptimismMintableERC20Factory",
              "name": "optimismMintableERC20FactoryImpl",
              "type": "address"
            },
            {
              "internalType": "contract L1ERC721Bridge",
              "name": "l1ERC721BridgeImpl",
              "type": "address"
            },
            {
              "internalType": "contract PortalSender",
              "name": "portalSenderImpl",
              "type": "address"
            },
            {
              "internalType": "contract SystemConfig",
              "name": "systemConfigImpl",
              "type": "address"
            }
          ],
          "internalType": "struct SystemDictator.ImplementationAddressConfig",
          "name": "implementationAddressConfig",
          "type": "tuple"
        },
        {
          "components": [
            {
              "internalType": "address",
              "name": "owner",
              "type": "address"
            },
            {
              "internalType": "uint256",
              "name": "overhead",
              "type": "uint256"
            },
            {
              "internalType": "uint256",
              "name": "scalar",
              "type": "uint256"
            },
            {
              "internalType": "bytes32",
              "name": "batcherHash",
              "type": "bytes32"
            },
            {
              "internalType": "uint64",
              "name": "gasLimit",
              "type": "uint64"
            },
            {
              "internalType": "address",
              "name": "unsafeBlockSigner",
              "type": "address"
            },
            {
              "components": [
                {
                  "internalType": "uint32",
                  "name": "maxResourceLimit",
                  "type": "uint32"
                },
                {
                  "internalType": "uint8",
                  "name": "elasticityMultiplier",
                  "type": "uint8"
                },
                {
                  "internalType": "uint8",
                  "name": "baseFeeMaxChangeDenominator",
                  "type": "uint8"
                },
                {
                  "internalType": "uint32",
                  "name": "minimumBaseFee",
                  "type": "uint32"
                },
                {
                  "internalType": "uint32",
                  "name": "systemTxMaxGas",
                  "type": "uint32"
                },
                {
                  "internalType": "uint128",
                  "name": "maximumBaseFee",
                  "type": "uint128"
                }
              ],
              "internalType": "struct ResourceMetering.ResourceConfig",
              "name": "resourceConfig",
              "type": "tuple"
            }
          ],
          "internalType": "struct SystemDictator.SystemConfigConfig",
          "name": "systemConfigConfig",
          "type": "tuple"
        }
      ],
      "stateMutability": "view",
      "type": "function"
    },
    {
      "inputs": [],
      "name": "currentStep",
      "outputs": [
        {
          "internalType": "uint8",
          "name": "",
          "type": "uint8"
        }
      ],
      "stateMutability": "view",
      "type": "function"
    },
    {
      "inputs": [],
      "name": "dynamicConfigSet",
      "outputs": [
        {
          "internalType": "bool",
          "name": "",
          "type": "bool"
        }
      ],
      "stateMutability": "view",
      "type": "function"
    },
    {
      "inputs": [],
      "name": "exit1",
      "outputs": [],
      "stateMutability": "nonpayable",
      "type": "function"
    },
    {
      "inputs": [],
      "name": "exited",
      "outputs": [
        {
          "internalType": "bool",
          "name": "",
          "type": "bool"
        }
      ],
      "stateMutability": "view",
      "type": "function"
    },
    {
      "inputs": [],
      "name": "finalize",
      "outputs": [],
      "stateMutability": "nonpayable",
      "type": "function"
    },
    {
      "inputs": [],
      "name": "finalized",
      "outputs": [
        {
          "internalType": "bool",
          "name": "",
          "type": "bool"
        }
      ],
      "stateMutability": "view",
      "type": "function"
    },
    {
      "inputs": [
        {
          "components": [
            {
              "components": [
                {
                  "internalType": "contract AddressManager",
                  "name": "addressManager",
                  "type": "address"
                },
                {
                  "internalType": "contract ProxyAdmin",
                  "name": "proxyAdmin",
                  "type": "address"
                },
                {
                  "internalType": "address",
                  "name": "controller",
                  "type": "address"
                },
                {
                  "internalType": "address",
                  "name": "finalOwner",
                  "type": "address"
                }
              ],
              "internalType": "struct SystemDictator.GlobalConfig",
              "name": "globalConfig",
              "type": "tuple"
            },
            {
              "components": [
                {
                  "internalType": "address",
                  "name": "l2OutputOracleProxy",
                  "type": "address"
                },
                {
                  "internalType": "address",
                  "name": "optimismPortalProxy",
                  "type": "address"
                },
                {
                  "internalType": "address",
                  "name": "l1CrossDomainMessengerProxy",
                  "type": "address"
                },
                {
                  "internalType": "address",
                  "name": "l1StandardBridgeProxy",
                  "type": "address"
                },
                {
                  "internalType": "address",
                  "name": "optimismMintableERC20FactoryProxy",
                  "type": "address"
                },
                {
                  "internalType": "address",
                  "name": "l1ERC721BridgeProxy",
                  "type": "address"
                },
                {
                  "internalType": "address",
                  "name": "systemConfigProxy",
                  "type": "address"
                }
              ],
              "internalType": "struct SystemDictator.ProxyAddressConfig",
              "name": "proxyAddressConfig",
              "type": "tuple"
            },
            {
              "components": [
                {
                  "internalType": "contract L2OutputOracle",
                  "name": "l2OutputOracleImpl",
                  "type": "address"
                },
                {
                  "internalType": "contract OptimismPortal",
                  "name": "optimismPortalImpl",
                  "type": "address"
                },
                {
                  "internalType": "contract L1CrossDomainMessenger",
                  "name": "l1CrossDomainMessengerImpl",
                  "type": "address"
                },
                {
                  "internalType": "contract L1StandardBridge",
                  "name": "l1StandardBridgeImpl",
                  "type": "address"
                },
                {
                  "internalType": "contract OptimismMintableERC20Factory",
                  "name": "optimismMintableERC20FactoryImpl",
                  "type": "address"
                },
                {
                  "internalType": "contract L1ERC721Bridge",
                  "name": "l1ERC721BridgeImpl",
                  "type": "address"
                },
                {
                  "internalType": "contract PortalSender",
                  "name": "portalSenderImpl",
                  "type": "address"
                },
                {
                  "internalType": "contract SystemConfig",
                  "name": "systemConfigImpl",
                  "type": "address"
                }
              ],
              "internalType": "struct SystemDictator.ImplementationAddressConfig",
              "name": "implementationAddressConfig",
              "type": "tuple"
            },
            {
              "components": [
                {
                  "internalType": "address",
                  "name": "owner",
                  "type": "address"
                },
                {
                  "internalType": "uint256",
                  "name": "overhead",
                  "type": "uint256"
                },
                {
                  "internalType": "uint256",
                  "name": "scalar",
                  "type": "uint256"
                },
                {
                  "internalType": "bytes32",
                  "name": "batcherHash",
                  "type": "bytes32"
                },
                {
                  "internalType": "uint64",
                  "name": "gasLimit",
                  "type": "uint64"
                },
                {
                  "internalType": "address",
                  "name": "unsafeBlockSigner",
                  "type": "address"
                },
                {
                  "components": [
                    {
                      "internalType": "uint32",
                      "name": "maxResourceLimit",
                      "type": "uint32"
                    },
                    {
                      "internalType": "uint8",
                      "name": "elasticityMultiplier",
                      "type": "uint8"
                    },
                    {
                      "internalType": "uint8",
                      "name": "baseFeeMaxChangeDenominator",
                      "type": "uint8"
                    },
                    {
                      "internalType": "uint32",
                      "name": "minimumBaseFee",
                      "type": "uint32"
                    },
                    {
                      "internalType": "uint32",
                      "name": "systemTxMaxGas",
                      "type": "uint32"
                    },
                    {
                      "internalType": "uint128",
                      "name": "maximumBaseFee",
                      "type": "uint128"
                    }
                  ],
                  "internalType": "struct ResourceMetering.ResourceConfig",
                  "name": "resourceConfig",
                  "type": "tuple"
                }
              ],
              "internalType": "struct SystemDictator.SystemConfigConfig",
              "name": "systemConfigConfig",
              "type": "tuple"
            }
          ],
          "internalType": "struct SystemDictator.DeployConfig",
          "name": "_config",
          "type": "tuple"
        }
      ],
      "name": "initialize",
      "outputs": [],
      "stateMutability": "nonpayable",
      "type": "function"
    },
    {
      "inputs": [],
      "name": "l2OutputOracleDynamicConfig",
      "outputs": [
        {
          "internalType": "uint256",
          "name": "l2OutputOracleStartingBlockNumber",
          "type": "uint256"
        },
        {
          "internalType": "uint256",
          "name": "l2OutputOracleStartingTimestamp",
          "type": "uint256"
        }
      ],
      "stateMutability": "view",
      "type": "function"
    },
    {
      "inputs": [],
      "name": "oldL1CrossDomainMessenger",
      "outputs": [
        {
          "internalType": "address",
          "name": "",
          "type": "address"
        }
      ],
      "stateMutability": "view",
      "type": "function"
    },
    {
      "inputs": [],
      "name": "optimismPortalDynamicConfig",
      "outputs": [
        {
          "internalType": "bool",
          "name": "",
          "type": "bool"
        }
      ],
      "stateMutability": "view",
      "type": "function"
    },
    {
      "inputs": [],
      "name": "owner",
      "outputs": [
        {
          "internalType": "address",
          "name": "",
          "type": "address"
        }
      ],
      "stateMutability": "view",
      "type": "function"
    },
    {
      "inputs": [],
      "name": "phase1",
      "outputs": [],
      "stateMutability": "nonpayable",
      "type": "function"
    },
    {
      "inputs": [],
      "name": "phase2",
      "outputs": [],
      "stateMutability": "nonpayable",
      "type": "function"
    },
    {
      "inputs": [],
      "name": "renounceOwnership",
      "outputs": [],
      "stateMutability": "nonpayable",
      "type": "function"
    },
    {
      "inputs": [],
      "name": "step1",
      "outputs": [],
      "stateMutability": "nonpayable",
      "type": "function"
    },
    {
      "inputs": [],
      "name": "step2",
      "outputs": [],
      "stateMutability": "nonpayable",
      "type": "function"
    },
    {
      "inputs": [],
      "name": "step3",
      "outputs": [],
      "stateMutability": "nonpayable",
      "type": "function"
    },
    {
      "inputs": [],
      "name": "step4",
      "outputs": [],
      "stateMutability": "nonpayable",
      "type": "function"
    },
    {
      "inputs": [],
      "name": "step5",
      "outputs": [],
      "stateMutability": "nonpayable",
      "type": "function"
    },
    {
      "inputs": [
        {
          "internalType": "address",
          "name": "newOwner",
          "type": "address"
        }
      ],
      "name": "transferOwnership",
      "outputs": [],
      "stateMutability": "nonpayable",
      "type": "function"
    },
    {
      "inputs": [
        {
          "components": [
            {
              "internalType": "uint256",
              "name": "l2OutputOracleStartingBlockNumber",
              "type": "uint256"
            },
            {
              "internalType": "uint256",
              "name": "l2OutputOracleStartingTimestamp",
              "type": "uint256"
            }
          ],
          "internalType": "struct SystemDictator.L2OutputOracleDynamicConfig",
          "name": "_l2OutputOracleDynamicConfig",
          "type": "tuple"
        },
        {
          "internalType": "bool",
          "name": "_optimismPortalDynamicConfig",
          "type": "bool"
        }
      ],
      "name": "updateDynamicConfig",
      "outputs": [],
      "stateMutability": "nonpayable",
      "type": "function"
    }
  ],
  "transactionHash": "0xaca6cdc0a101d28f869a0acfb58a6527ffbbee2bb929bd33cc143f8256639dce",
  "args": [],
  "numDeployments": 1,
  "solcInputHash": "13ac93d026822f719ad110af836d1582",
  "bytecode": "0x60806040523480156200001157600080fd5b506000620000296200011a60201b62002b551760201c565b6040805161010080820183526000608080840182815260a080860184905260c080870185905260e0808801869052928752875180840189528581526020818101879052818a018790526060808301889052828701889052828501889052828401889052818a019290925289519788018a52868852878101879052878a01879052878201879052878601879052878401879052878301879052878501879052888a0197909752885193840189528584529583018590529682018490528185018490529181018390529081018290529384018590529082019290925291925090620001129062000191565b5050620006d2565b6040805160c081018252600080825260208201819052918101829052606081018290526080810182905260a0810191909152506040805160c0810182526301312d008152600a6020820152600891810191909152633b9aca006060820152620f424060808201526001600160801b0360a082015290565b600054610100900460ff1615808015620001b25750600054600160ff909116105b80620001e25750620001cf30620005a260201b62002bd51760201c565b158015620001e2575060005460ff166001145b6200024b5760405162461bcd60e51b815260206004820152602e60248201527f496e697469616c697a61626c653a20636f6e747261637420697320616c72656160448201526d191e481a5b9a5d1a585b1a5e995960921b60648201526084015b60405180910390fd5b6000805460ff1916600117905580156200026f576000805461ff0019166101001790555b81518051606580546001600160a01b03199081166001600160a01b039384161790915560208084015160668054841691851691909117905560408085015160678054851691861691909117905560609485015160688054851691861691909117905581870151805160698054861691871691909117905580830151606a8054861691871691909117905580820151606b8054861691871691909117905580860151606c80548616918716919091179055608080820151606d8054871691881691909117905560a080830151606e8054881691891691909117905560c092830151606f80548816918916919091179055838a01518051607080548916918a1691909117905580860151607180548916918a1691909117905580850151607280548916918a1691909117905580890151607380548916918a1691909117905580830151607480548916918a1691909117905580820151607580548916918a1691909117905580840151607680548916918a1691909117905560e00151607780548816918916919091179055878a0151805160788054909816908916179096558585015160795585840151607a5585880151607b5585820151607c8054888401516001600160401b039093166001600160e01b031990911617680100000000000000009290991691909102979097179096559301518051607d805494830151938301519783015183870151939097015163ffffffff92831664ffffffffff199096169590951764010000000060ff958616021764ffffffffff60281b191665010000000000949098169390930263ffffffff60301b19169690961766010000000000009587169590950294909417600160501b600160f01b0319166a01000000000000000000009590941694909402600160701b600160f01b03191692909217600160701b6001600160801b039093169290920291909117909155805461010061ff001990911617905562000540620005b1565b60675462000557906001600160a01b031662000619565b80156200059e576000805461ff0019169055604051600181527f7f26b83ff96e1f2b6a682f133852f6798a09c465da95921460cefb38474024989060200160405180910390a15b5050565b6001600160a01b03163b151590565b600054610100900460ff166200060d5760405162461bcd60e51b815260206004820152602b60248201526000805160206200428d83398151915260448201526a6e697469616c697a696e6760a81b606482015260840162000242565b620006176200066b565b565b603380546001600160a01b038381166001600160a01b0319831681179093556040519116919082907f8be0079c531659141344cd1fd0a4f28419497f9722a3daafe3b4186f6b6457e090600090a35050565b600054610100900460ff16620006c75760405162461bcd60e51b815260206004820152602b60248201526000805160206200428d83398151915260448201526a6e697469616c697a696e6760a81b606482015260840162000242565b620006173362000619565b613bab80620006e26000396000f3fe608060405234801561001057600080fd5b50600436106101985760003560e01c8063b3f05b97116100e3578063d7efbb301161008c578063f2fde38b11610066578063f2fde38b14610503578063fb5d737614610516578063fe6b1ddf1461051e57600080fd5b8063d7efbb30146104e6578063df4ec249146104f3578063e7c56229146104fb57600080fd5b8063d36ec430116100bd578063d36ec430146104c3578063d40a71fb146104d6578063d4deb3b6146104de57600080fd5b8063b3f05b9714610473578063bc5df61414610487578063cf03c22d1461049a57600080fd5b8063715018a61161014557806389cb73431161011f57806389cb7343146104195780638da5cb5b1461042c5780638f4ed3331461046b57600080fd5b8063715018a61461022857806379502c55146102305780637d1d95a61461041157600080fd5b80634fb4bcec116101765780634fb4bcec146101e95780635bc34f71146101f15780635ce6c3271461020357600080fd5b8063204c881c1461019d578063289c6af7146101c55780634bb278f3146101df575b600080fd5b607e54607f546101ab919082565b604080519283526020830191909152015b60405180910390f35b6101cd600381565b60405160ff90911681526020016101bc565b6101e7610526565b005b6101e7610790565b6080546101cd90610100900460ff1681565b60805461021890640100000000900460ff1681565b60405190151581526020016101bc565b6101e7611148565b604080516080808201835260655473ffffffffffffffffffffffffffffffffffffffff908116835260665481166020808501919091526067548216848601526068548216606080860191909152855160e0808201885260695485168252606a54851682850152606b54851682890152606c54851682840152606d54851682870152606e54851660a080840191909152606f54861660c080850191909152895161010081018b52607054881681526071548816818801526072548816818c01526073548816818701526074548816818a01526075548816818401526076548816818301526077548816818501528a519384018b526078548816845260795484880152607a54848c0152607b5484870152607c5467ffffffffffffffff8116858b01526801000000000000000090049097168383015289518082018b52607d5463ffffffff8082168352640100000000820460ff908116998401999099526501000000000082049098169b82019b909b5266010000000000008b048716958101959095526a01000000000000000000008a04909516968401969096526e0100000000000000000000000000009097046fffffffffffffffffffffffffffffffff1694820194909452908501526104019384565b6040516101bc9493929190612e23565b6101cd600481565b6080546102189062010000900460ff1681565b60335473ffffffffffffffffffffffffffffffffffffffff165b60405173ffffffffffffffffffffffffffffffffffffffff90911681526020016101bc565b6101e761115c565b608054610218906301000000900460ff1681565b6101e761049536600461346e565b6114cb565b6080546104469065010000000000900473ffffffffffffffffffffffffffffffffffffffff1681565b6101e76104d1366004613533565b611a29565b6101e7611a9c565b6101e7611f7e565b6080546102189060ff1681565b6101e7611fa6565b6101e761256a565b6101e76105113660046135d2565b612582565b6101e7612639565b6101e7612931565b61052e612bf1565b6066546068546040517ff2fde38b00000000000000000000000000000000000000000000000000000000815273ffffffffffffffffffffffffffffffffffffffff918216600482015291169063f2fde38b90602401600060405180830381600087803b15801561059d57600080fd5b505af11580156105b1573d6000803e3d6000fd5b5050608054600461010090910460ff161191506107609050576065546068546040517ff2fde38b00000000000000000000000000000000000000000000000000000000815273ffffffffffffffffffffffffffffffffffffffff918216600482015291169063f2fde38b90602401600060405180830381600087803b15801561063957600080fd5b505af115801561064d573d6000803e3d6000fd5b5050606c546068546040517f13af403500000000000000000000000000000000000000000000000000000000815273ffffffffffffffffffffffffffffffffffffffff9182166004820152911692506313af40359150602401600060405180830381600087803b1580156106c057600080fd5b505af11580156106d4573d6000803e3d6000fd5b5050606e546068546040517f8f28397000000000000000000000000000000000000000000000000000000000815273ffffffffffffffffffffffffffffffffffffffff918216600482015291169250638f2839709150602401600060405180830381600087803b15801561074757600080fd5b505af115801561075b573d6000803e3d6000fd5b505050505b608080547fffffffffffffffffffffffffffffffffffffffffffffffffffffffff00ffffff166301000000179055565b610798612bf1565b6080546005906301000000900460ff161561083a576040517f08c379a000000000000000000000000000000000000000000000000000000000815260206004820152602160248201527f53797374656d4469637461746f723a20616c72656164792066696e616c697a6560448201527f640000000000000000000000000000000000000000000000000000000000000060648201526084015b60405180910390fd5b608054640100000000900460ff16156108af576040517f08c379a000000000000000000000000000000000000000000000000000000000815260206004820152601e60248201527f53797374656d4469637461746f723a20616c72656164792065786974656400006044820152606401610831565b60805460ff8281166101009092041614610925576040517f08c379a000000000000000000000000000000000000000000000000000000000815260206004820152601e60248201527f53797374656d4469637461746f723a20696e636f7272656374207374657000006044820152606401610831565b60805462010000900460ff166109bd576040517f08c379a000000000000000000000000000000000000000000000000000000000815260206004820152603c60248201527f53797374656d4469637461746f723a2064796e616d6963206f7261636c65206360448201527f6f6e666967206973206e6f742079657420696e697469616c697a6564000000006064820152608401610831565b606654606954607054607e54607f546040516024810192909252604482015273ffffffffffffffffffffffffffffffffffffffff93841693639623609d938116921690606401604080517fffffffffffffffffffffffffffffffffffffffffffffffffffffffffffffffe08184030181529181526020820180517bffffffffffffffffffffffffffffffffffffffffffffffffffffffff167fe4a3011600000000000000000000000000000000000000000000000000000000179052517fffffffff0000000000000000000000000000000000000000000000000000000060e086901b168152610ab293929190600401613670565b600060405180830381600087803b158015610acc57600080fd5b505af1158015610ae0573d6000803e3d6000fd5b5050606654606a5460715460805460405160ff9091161515602482015273ffffffffffffffffffffffffffffffffffffffff9384169550639623609d9450918316921690604401604080517fffffffffffffffffffffffffffffffffffffffffffffffffffffffffffffffe08184030181529181526020820180517bffffffffffffffffffffffffffffffffffffffffffffffffffffffff167fd53a822f00000000000000000000000000000000000000000000000000000000179052517fffffffff0000000000000000000000000000000000000000000000000000000060e086901b168152610bd693929190600401613670565b600060405180830381600087803b158015610bf057600080fd5b505af1158015610c04573d6000803e3d6000fd5b5050606654606b546072546040517f99a88ec400000000000000000000000000000000000000000000000000000000815273ffffffffffffffffffffffffffffffffffffffff92831660048201529082166024820152911692506399a88ec49150604401600060405180830381600087803b158015610c8257600080fd5b505af1158015610c96573d6000803e3d6000fd5b5050606b54604080517f8129fc1c000000000000000000000000000000000000000000000000000000008152905173ffffffffffffffffffffffffffffffffffffffff9092169350638129fc1c925060048181019260009290919082900301818387803b158015610d0657600080fd5b505af1925050508015610d17575060015b610e7457610d236136a9565b806308c379a003610dea5750610d376136c5565b80610d425750610dec565b7f7a2a4e26842155ea933fe6eb6e3137eb5a296dcdf55721c552be7b4c3cc2375981604051602001610d74919061376d565b604051602081830303815290604052805190602001201481604051602001610d9c9190613789565b60405160208183030381529060405290610de3576040517f08c379a000000000000000000000000000000000000000000000000000000000815260040161083191906137f4565b5050610e74565b505b6040517f08c379a000000000000000000000000000000000000000000000000000000000815260206004820152603f60248201527f53797374656d4469637461746f723a20756e6578706563746564206572726f7260448201527f20696e697469616c697a696e67204c3158444d20286e6f20726561736f6e29006064820152608401610831565b606654606c546076546040805160048082526024820183526020820180517bffffffffffffffffffffffffffffffffffffffffffffffffffffffff167fed88c68e0000000000000000000000000000000000000000000000000000000017905291517f9623609d00000000000000000000000000000000000000000000000000000000815273ffffffffffffffffffffffffffffffffffffffff95861695639623609d95610f2a95908216949116929101613670565b600060405180830381600087803b158015610f4457600080fd5b505af1158015610f58573d6000803e3d6000fd5b5050606654606c546073546040517f99a88ec400000000000000000000000000000000000000000000000000000000815273ffffffffffffffffffffffffffffffffffffffff92831660048201529082166024820152911692506399a88ec49150604401600060405180830381600087803b158015610fd657600080fd5b505af1158015610fea573d6000803e3d6000fd5b5050606654606d546074546040517f99a88ec400000000000000000000000000000000000000000000000000000000815273ffffffffffffffffffffffffffffffffffffffff92831660048201529082166024820152911692506399a88ec49150604401600060405180830381600087803b15801561106857600080fd5b505af115801561107c573d6000803e3d6000fd5b5050606654606e546075546040517f99a88ec400000000000000000000000000000000000000000000000000000000815273ffffffffffffffffffffffffffffffffffffffff92831660048201529082166024820152911692506399a88ec491506044015b600060405180830381600087803b1580156110fb57600080fd5b505af115801561110f573d6000803e3d6000fd5b505060808054610100900460ff1692509050600161112c83613836565b91906101000a81548160ff021916908360ff1602179055505050565b611150612bf1565b61115a6000612c72565b565b611164612bf1565b6080546002906301000000900460ff1615611201576040517f08c379a000000000000000000000000000000000000000000000000000000000815260206004820152602160248201527f53797374656d4469637461746f723a20616c72656164792066696e616c697a6560448201527f64000000000000000000000000000000000000000000000000000000000000006064820152608401610831565b608054640100000000900460ff1615611276576040517f08c379a000000000000000000000000000000000000000000000000000000000815260206004820152601e60248201527f53797374656d4469637461746f723a20616c72656164792065786974656400006044820152606401610831565b60805460ff82811661010090920416146112ec576040517f08c379a000000000000000000000000000000000000000000000000000000000815260206004820152601e60248201527f53797374656d4469637461746f723a20696e636f7272656374207374657000006044820152606401610831565b6065546040517fbf40fac100000000000000000000000000000000000000000000000000000000815273ffffffffffffffffffffffffffffffffffffffff9091169063bf40fac19061134090600401613855565b602060405180830381865afa15801561135d573d6000803e3d6000fd5b505050506040513d601f19601f820116820180604052508101906113819190613898565b608080547fffffffffffffff0000000000000000000000000000000000000000ffffffffff166501000000000073ffffffffffffffffffffffffffffffffffffffff938416021790556065546040517f9b2ea4bd000000000000000000000000000000000000000000000000000000008152911690639b2ea4bd9061140b906000906004016138b5565b600060405180830381600087803b15801561142557600080fd5b505af1158015611439573d6000803e3d6000fd5b5050606554604080517f9b2ea4bd0000000000000000000000000000000000000000000000000000000081526004810191909152601160448201527f44544c5f534855544f46465f424c4f434b000000000000000000000000000000606482015273ffffffffffffffffffffffffffffffffffffffff43811660248301529091169250639b2ea4bd91506084016110e1565b600054610100900460ff16158080156114eb5750600054600160ff909116105b806115055750303b158015611505575060005460ff166001145b611591576040517f08c379a000000000000000000000000000000000000000000000000000000000815260206004820152602e60248201527f496e697469616c697a61626c653a20636f6e747261637420697320616c72656160448201527f647920696e697469616c697a65640000000000000000000000000000000000006064820152608401610831565b600080547fffffffffffffffffffffffffffffffffffffffffffffffffffffffffffffff0016600117905580156115ef57600080547fffffffffffffffffffffffffffffffffffffffffffffffffffffffffffff00ff166101001790555b81518051606580547fffffffffffffffffffffffff000000000000000000000000000000000000000090811673ffffffffffffffffffffffffffffffffffffffff9384161790915560208084015160668054841691851691909117905560408085015160678054851691861691909117905560609485015160688054851691861691909117905581870151805160698054861691871691909117905580830151606a8054861691871691909117905580820151606b8054861691871691909117905580860151606c80548616918716919091179055608080820151606d8054871691881691909117905560a080830151606e8054881691891691909117905560c092830151606f80548816918916919091179055838a01518051607080548916918a1691909117905580860151607180548916918a1691909117905580850151607280548916918a1691909117905580890151607380548916918a1691909117905580830151607480548916918a1691909117905580820151607580548916918a1691909117905580840151607680548916918a1691909117905560e00151607780548816918916919091179055878a0151805160788054909816908916179096558585015160795585840151607a5585880151607b5585820151607c80548884015167ffffffffffffffff9093167fffffffff0000000000000000000000000000000000000000000000000000000090911617680100000000000000009290991691909102979097179096559301518051607d805494830151938301519783015183870151939097015163ffffffff9283167fffffffffffffffffffffffffffffffffffffffffffffffffffffff00000000009096169590951764010000000060ff95861602177fffffffffffffffffffffffffffffffffffffffffffff0000000000ffffffffff166501000000000094909816939093027fffffffffffffffffffffffffffffffffffffffffffff00000000ffffffffffff1696909617660100000000000095871695909502949094177fffff0000000000000000000000000000000000000000ffffffffffffffffffff166a010000000000000000000095909416949094027fffff00000000000000000000000000000000ffffffffffffffffffffffffffff16929092176e0100000000000000000000000000006fffffffffffffffffffffffffffffffff909316929092029190911790915580546101007fffffffffffffffffffffffffffffffffffffffffffffffffffffffffffff00ff9091161790556119a0612ce9565b6067546119c29073ffffffffffffffffffffffffffffffffffffffff16612c72565b8015611a2557600080547fffffffffffffffffffffffffffffffffffffffffffffffffffffffffffff00ff169055604051600181527f7f26b83ff96e1f2b6a682f133852f6798a09c465da95921460cefb38474024989060200160405180910390a15b5050565b611a31612bf1565b8151607e55602090910151607f55608080547fffffffffffffffffffffffffffffffffffffffffffffffffffffffffff00ffff921515929092167fffffffffffffffffffffffffffffffffffffffffffffffffffffffffff00ff009092169190911762010000179055565b611aa4612bf1565b6080546001906301000000900460ff1615611b41576040517f08c379a000000000000000000000000000000000000000000000000000000000815260206004820152602160248201527f53797374656d4469637461746f723a20616c72656164792066696e616c697a6560448201527f64000000000000000000000000000000000000000000000000000000000000006064820152608401610831565b608054640100000000900460ff1615611bb6576040517f08c379a000000000000000000000000000000000000000000000000000000000815260206004820152601e60248201527f53797374656d4469637461746f723a20616c72656164792065786974656400006044820152606401610831565b60805460ff8281166101009092041614611c2c576040517f08c379a000000000000000000000000000000000000000000000000000000000815260206004820152601e60248201527f53797374656d4469637461746f723a20696e636f7272656374207374657000006044820152606401610831565b6066546065546040517f0652b57a00000000000000000000000000000000000000000000000000000000815273ffffffffffffffffffffffffffffffffffffffff9182166004820152911690630652b57a90602401600060405180830381600087803b158015611c9b57600080fd5b505af1158015611caf573d6000803e3d6000fd5b5050606654606b546040517f8d52d4a000000000000000000000000000000000000000000000000000000000815273ffffffffffffffffffffffffffffffffffffffff9283169450638d52d4a09350611d119290911690600290600401613916565b600060405180830381600087803b158015611d2b57600080fd5b505af1158015611d3f573d6000803e3d6000fd5b5050606654606b546040517f860f7cda00000000000000000000000000000000000000000000000000000000815273ffffffffffffffffffffffffffffffffffffffff928316945063860f7cda9350611d9e9290911690600401613977565b600060405180830381600087803b158015611db857600080fd5b505af1158015611dcc573d6000803e3d6000fd5b5050606654606c546040517f8d52d4a000000000000000000000000000000000000000000000000000000000815273ffffffffffffffffffffffffffffffffffffffff9283169450638d52d4a09350611e2e9290911690600190600401613916565b600060405180830381600087803b158015611e4857600080fd5b505af1158015611e5c573d6000803e3d6000fd5b5050606654606f54607754607854607954607a54607b54607c5460405173ffffffffffffffffffffffffffffffffffffffff9889169a50639623609d99509688169795861696611ecf969586169567ffffffffffffffff8316926801000000000000000090041690607d906024016139d0565b604080517fffffffffffffffffffffffffffffffffffffffffffffffffffffffffffffffe08184030181529181526020820180517bffffffffffffffffffffffffffffffffffffffffffffffffffffffff167ff975e92500000000000000000000000000000000000000000000000000000000179052517fffffffff0000000000000000000000000000000000000000000000000000000060e086901b1681526110e193929190600401613670565b611f86612bf1565b611f8e611fa6565b611f96612639565b611f9e610790565b61115a610526565b611fae612bf1565b6080546003906301000000900460ff161561204b576040517f08c379a000000000000000000000000000000000000000000000000000000000815260206004820152602160248201527f53797374656d4469637461746f723a20616c72656164792066696e616c697a6560448201527f64000000000000000000000000000000000000000000000000000000000000006064820152608401610831565b608054640100000000900460ff16156120c0576040517f08c379a000000000000000000000000000000000000000000000000000000000815260206004820152601e60248201527f53797374656d4469637461746f723a20616c72656164792065786974656400006044820152606401610831565b60805460ff8281166101009092041614612136576040517f08c379a000000000000000000000000000000000000000000000000000000000815260206004820152601e60248201527f53797374656d4469637461746f723a20696e636f7272656374207374657000006044820152606401610831565b60006040518061022001604052806040518060400160405280601d81526020017f4f564d5f43616e6f6e6963616c5472616e73616374696f6e436861696e00000081525081526020016040518060400160405280601a81526020017f4f564d5f4c3243726f7373446f6d61696e4d657373656e6765720000000000008152508152602001604051806060016040528060228152602001613b356022913981526020016040518060400160405280600d81526020017f4f564d5f53657175656e6365720000000000000000000000000000000000000081525081526020016040518060400160405280600c81526020017f4f564d5f50726f706f73657200000000000000000000000000000000000000008152508152602001604051806060016040528060258152602001613b57602591398152602001604051806060016040528060238152602001613b7c602391398152604080518082018252601d81527f4f564d5f43616e6f6e6963616c5472616e73616374696f6e436861696e0000006020828101919091528084019190915281518083018352601881527f4f564d5f5374617465436f6d6d69746d656e74436861696e0000000000000000818301528284015281518083018352600f81527f4f564d5f426f6e644d616e61676572000000000000000000000000000000000081830152606084015281518083018352601481527f4f564d5f457865637574696f6e4d616e616765720000000000000000000000008183015260808401528151808301835260118082527f4f564d5f467261756456657269666965720000000000000000000000000000008284015260a085019190915282518084018452601781527f4f564d5f53746174654d616e61676572466163746f72790000000000000000008184015260c085015282518084018452601c81527f4f564d5f53746174655472616e736974696f6e6572466163746f7279000000008184015260e0850152825180840184529081527f4f564d5f536166657479436865636b65720000000000000000000000000000008183015261010084015281518083018352601981527f4f564d5f4c314d756c74694d65737361676552656c6179657200000000000000818301526101208401528151808301909252600b82527f426f6e644d616e616765720000000000000000000000000000000000000000009082015261014090910152905060005b60118110156125505760655473ffffffffffffffffffffffffffffffffffffffff16639b2ea4bd8383601181106124e7576124e7613a95565b602002015160006040518363ffffffff1660e01b815260040161250b929190613ac4565b600060405180830381600087803b15801561252557600080fd5b505af1158015612539573d6000803e3d6000fd5b50505050808061254890613afc565b9150506124ae565b505060808054610100900460ff1690600161112c83613836565b612572612bf1565b61257a611a9c565b61115a61115c565b61258a612bf1565b73ffffffffffffffffffffffffffffffffffffffff811661262d576040517f08c379a000000000000000000000000000000000000000000000000000000000815260206004820152602660248201527f4f776e61626c653a206e6577206f776e657220697320746865207a65726f206160448201527f64647265737300000000000000000000000000000000000000000000000000006064820152608401610831565b61263681612c72565b50565b612641612bf1565b6080546004906301000000900460ff16156126de576040517f08c379a000000000000000000000000000000000000000000000000000000000815260206004820152602160248201527f53797374656d4469637461746f723a20616c72656164792066696e616c697a6560448201527f64000000000000000000000000000000000000000000000000000000000000006064820152608401610831565b608054640100000000900460ff1615612753576040517f08c379a000000000000000000000000000000000000000000000000000000000815260206004820152601e60248201527f53797374656d4469637461746f723a20616c72656164792065786974656400006044820152606401610831565b60805460ff82811661010090920416146127c9576040517f08c379a000000000000000000000000000000000000000000000000000000000815260206004820152601e60248201527f53797374656d4469637461746f723a20696e636f7272656374207374657000006044820152606401610831565b6065546066546040517ff2fde38b00000000000000000000000000000000000000000000000000000000815273ffffffffffffffffffffffffffffffffffffffff918216600482015291169063f2fde38b90602401600060405180830381600087803b15801561283857600080fd5b505af115801561284c573d6000803e3d6000fd5b5050606c546066546040517f13af403500000000000000000000000000000000000000000000000000000000815273ffffffffffffffffffffffffffffffffffffffff9182166004820152911692506313af40359150602401600060405180830381600087803b1580156128bf57600080fd5b505af11580156128d3573d6000803e3d6000fd5b5050606e546066546040517f8f28397000000000000000000000000000000000000000000000000000000000815273ffffffffffffffffffffffffffffffffffffffff918216600482015291169250638f28397091506024016110e1565b612939612bf1565b608054610100900460ff166003146129d3576040517f08c379a000000000000000000000000000000000000000000000000000000000815260206004820152603860248201527f53797374656d4469637461746f723a2063616e206f6e6c79206578697431206260448201527f65666f72652073746570203320697320657865637574656400000000000000006064820152608401610831565b6065546080546040517f9b2ea4bd00000000000000000000000000000000000000000000000000000000815273ffffffffffffffffffffffffffffffffffffffff92831692639b2ea4bd92612a389265010000000000909104909116906004016138b5565b600060405180830381600087803b158015612a5257600080fd5b505af1158015612a66573d6000803e3d6000fd5b5050606554604080517f9b2ea4bd0000000000000000000000000000000000000000000000000000000081526004810191909152601160448201527f44544c5f534855544f46465f424c4f434b00000000000000000000000000000060648201526000602482015273ffffffffffffffffffffffffffffffffffffffff9091169250639b2ea4bd9150608401600060405180830381600087803b158015612b0c57600080fd5b505af1158015612b20573d6000803e3d6000fd5b5050608080547fffffffffffffffffffffffffffffffffffffffffffffffffffffff00ffffffff166401000000001790555050565b6040805160c081018252600080825260208201819052918101829052606081018290526080810182905260a0810191909152506040805160c0810182526301312d008152600a6020820152600891810191909152633b9aca006060820152620f424060808201526fffffffffffffffffffffffffffffffff60a082015290565b73ffffffffffffffffffffffffffffffffffffffff163b151590565b60335473ffffffffffffffffffffffffffffffffffffffff16331461115a576040517f08c379a000000000000000000000000000000000000000000000000000000000815260206004820181905260248201527f4f776e61626c653a2063616c6c6572206973206e6f7420746865206f776e65726044820152606401610831565b6033805473ffffffffffffffffffffffffffffffffffffffff8381167fffffffffffffffffffffffff0000000000000000000000000000000000000000831681179093556040519116919082907f8be0079c531659141344cd1fd0a4f28419497f9722a3daafe3b4186f6b6457e090600090a35050565b600054610100900460ff16612d80576040517f08c379a000000000000000000000000000000000000000000000000000000000815260206004820152602b60248201527f496e697469616c697a61626c653a20636f6e7472616374206973206e6f74206960448201527f6e697469616c697a696e670000000000000000000000000000000000000000006064820152608401610831565b61115a600054610100900460ff16612e1a576040517f08c379a000000000000000000000000000000000000000000000000000000000815260206004820152602b60248201527f496e697469616c697a61626c653a20636f6e7472616374206973206e6f74206960448201527f6e697469616c697a696e670000000000000000000000000000000000000000006064820152608401610831565b61115a33612c72565b60006103e08201905073ffffffffffffffffffffffffffffffffffffffff8087511683528060208801511660208401528060408801511660408401528060608801511660608401528086511660808401528060208701511660a08401528060408701511660c08401528060608701511660e0840152806080870151166101008401525060a0850151612ece61012084018273ffffffffffffffffffffffffffffffffffffffff169052565b5060c08581015173ffffffffffffffffffffffffffffffffffffffff90811661014085015285518116610160850152602080870151821661018086015260408088015183166101a087015260608089015184166101c08801526080808a015185166101e089015260a0808b015186166102008a01528a87015186166102208a015260e08b015186166102408a0152895186166102608a0152898501516102808a0152898401516102a08a0152898301516102c08a01528982015167ffffffffffffffff166102e08a01528981015190951661030089015294880151805163ffffffff9081166103208a01529381015160ff9081166103408a015292810151909216610360880152810151821661038087015292830151166103a085015201516fffffffffffffffffffffffffffffffff166103c08301525b95945050505050565b60e0810181811067ffffffffffffffff82111715613056577f4e487b7100000000000000000000000000000000000000000000000000000000600052604160045260246000fd5b60405250565b6080810181811067ffffffffffffffff82111715613056577f4e487b7100000000000000000000000000000000000000000000000000000000600052604160045260246000fd5b7fffffffffffffffffffffffffffffffffffffffffffffffffffffffffffffffe0601f830116810181811067ffffffffffffffff8211171561310e577f4e487b7100000000000000000000000000000000000000000000000000000000600052604160045260246000fd5b6040525050565b73ffffffffffffffffffffffffffffffffffffffff8116811461263657600080fd5b803561314281613115565b919050565b600060e0828403121561315957600080fd5b6040516131658161300f565b809150823561317381613115565b8152602083013561318381613115565b6020820152604083013561319681613115565b604082015260608301356131a981613115565b606082015260808301356131bc81613115565b608082015260a08301356131cf81613115565b60a08201526131e060c08401613137565b60c08201525092915050565b600061010080838503121561320057600080fd5b6040519081019067ffffffffffffffff8211818310171561324a577f4e487b7100000000000000000000000000000000000000000000000000000000600052604160045260246000fd5b8160405280925061325a84613137565b815261326860208501613137565b602082015261327960408501613137565b604082015261328a60608501613137565b606082015261329b60808501613137565b60808201526132ac60a08501613137565b60a08201526132bd60c08501613137565b60c08201526132ce60e08501613137565b60e0820152505092915050565b803563ffffffff8116811461314257600080fd5b803560ff8116811461314257600080fd5b600060c0828403121561331257600080fd5b60405160c0810181811067ffffffffffffffff8211171561335c577f4e487b7100000000000000000000000000000000000000000000000000000000600052604160045260246000fd5b60405290508061336b836132db565b8152613379602084016132ef565b602082015261338a604084016132ef565b604082015261339b606084016132db565b60608201526133ac608084016132db565b608082015260a08301356fffffffffffffffffffffffffffffffff811681146133d457600080fd5b60a0919091015292915050565b600061018082840312156133f457600080fd5b6040516134008161300f565b809150823561340e81613115565b80825250602083013560208201526040830135604082015260608301356060820152608083013567ffffffffffffffff8116811461344b57600080fd5b608082015261345c60a08401613137565b60a08201526131e08460c08501613300565b60008183036103e081121561348257600080fd5b60405161348e8161305c565b608082121561349c57600080fd5b60405191506134aa8261305c565b83356134b581613115565b825260208401356134c581613115565b602083015260408401356134d881613115565b604083015260608401356134eb81613115565b60608301528181526135008560808601613147565b60208201526135138561016086016131ec565b60408201526135268561026086016133e1565b6060820152949350505050565b600080828403606081121561354757600080fd5b604081121561355557600080fd5b506040516040810181811067ffffffffffffffff821117156135a0577f4e487b7100000000000000000000000000000000000000000000000000000000600052604160045260246000fd5b6040908152843582526020808601359083015290925083013580151581146135c757600080fd5b809150509250929050565b6000602082840312156135e457600080fd5b81356135ef81613115565b9392505050565b60005b838110156136115781810151838201526020016135f9565b83811115613620576000848401525b50505050565b6000815180845261363e8160208601602086016135f6565b601f017fffffffffffffffffffffffffffffffffffffffffffffffffffffffffffffffe0169290920160200192915050565b600073ffffffffffffffffffffffffffffffffffffffff8086168352808516602084015250606060408301526130066060830184613626565b600060033d11156136c25760046000803e5060005160e01c5b90565b600060443d10156136d35790565b6040517ffffffffffffffffffffffffffffffffffffffffffffffffffffffffffffffffc803d016004833e81513d67ffffffffffffffff816024840111818411171561372157505050505090565b82850191508151818111156137395750505050505090565b843d87010160208285010111156137535750505050505090565b613762602082860101876130a3565b509095945050505050565b6000825161377f8184602087016135f6565b9190910192915050565b7f53797374656d4469637461746f723a20756e6578706563746564206572726f7281527f20696e697469616c697a696e67204c3158444d3a2000000000000000000000006020820152600082516137e78160358501602087016135f6565b9190910160350192915050565b6020815260006135ef6020830184613626565b7f4e487b7100000000000000000000000000000000000000000000000000000000600052601160045260246000fd5b600060ff821660ff810361384c5761384c613807565b60010192915050565b60208152600061389260208301601a81527f4f564d5f4c3143726f7373446f6d61696e4d657373656e676572000000000000602082015260400190565b92915050565b6000602082840312156138aa57600080fd5b81516135ef81613115565b6040815260006138f260408301601a81527f4f564d5f4c3143726f7373446f6d61696e4d657373656e676572000000000000602082015260400190565b905073ffffffffffffffffffffffffffffffffffffffff8316602083015292915050565b73ffffffffffffffffffffffffffffffffffffffff83168152604081016003831061396a577f4e487b7100000000000000000000000000000000000000000000000000000000600052602160045260246000fd5b8260208301529392505050565b73ffffffffffffffffffffffffffffffffffffffff821681526040602082015260006135ef60408301601a81527f4f564d5f4c3143726f7373446f6d61696e4d657373656e676572000000000000602082015260400190565b60006101808201905073ffffffffffffffffffffffffffffffffffffffff808a16835288602084015287604084015286606084015267ffffffffffffffff8616608084015280851660a084015250825463ffffffff80821660c085015260ff8260201c1660e085015260ff8260281c16610100850152808260301c16610120850152613a6a6101408501828460501c1663ffffffff169052565b50607081901c6fffffffffffffffffffffffffffffffff166101608401525098975050505050505050565b7f4e487b7100000000000000000000000000000000000000000000000000000000600052603260045260246000fd5b604081526000613ad76040830185613626565b905073ffffffffffffffffffffffffffffffffffffffff831660208301529392505050565b60007fffffffffffffffffffffffffffffffffffffffffffffffffffffffffffffffff8203613b2d57613b2d613807565b506001019056fe4f564d5f4465636f6d7072657373696f6e507265636f6d70696c65416464726573734f564d5f436861696e53746f72616765436f6e7461696e65722d4354432d626174636865734f564d5f436861696e53746f72616765436f6e7461696e65722d4354432d7175657565a164736f6c634300080f000a496e697469616c697a61626c653a20636f6e7472616374206973206e6f742069",
  "devdoc": {
    "version": 1,
    "kind": "dev",
    "methods": {
      "initialize(((address,address,address,address),(address,address,address,address,address,address,address),(address,address,address,address,address,address,address,address),(address,uint256,uint256,bytes32,uint64,address,(uint32,uint8,uint8,uint32,uint32,uint128))))": {
        "params": {
          "_config": "System configuration."
        }
      },
      "owner()": {
        "details": "Returns the address of the current owner."
      },
      "renounceOwnership()": {
        "details": "Leaves the contract without owner. It will not be possible to call `onlyOwner` functions anymore. Can only be called by the current owner. NOTE: Renouncing ownership will leave the contract without an owner, thereby removing any functionality that is only available to the owner."
      },
      "transferOwnership(address)": {
        "details": "Transfers ownership of the contract to a new account (`newOwner`). Can only be called by the current owner."
      },
      "updateDynamicConfig((uint256,uint256),bool)": {
        "params": {
          "_l2OutputOracleDynamicConfig": "Dynamic L2OutputOracle config.",
          "_optimismPortalDynamicConfig": "Dynamic OptimismPortal config."
        }
      }
    },
    "title": "SystemDictator"
  },
  "userdoc": {
    "version": 1,
    "kind": "user",
    "methods": {
      "EXIT_1_NO_RETURN_STEP()": {
        "notice": "Step after which exit 1 can no longer be used."
      },
      "PROXY_TRANSFER_STEP()": {
        "notice": "Step where proxy ownership is transferred."
      },
      "config()": {
        "notice": "System configuration."
      },
      "constructor": {
        "notice": "Constructor required to ensure that the implementation of the SystemDictator is         initialized upon deployment."
      },
      "currentStep()": {
        "notice": "Current step;"
      },
      "dynamicConfigSet()": {
        "notice": "Whether or not dynamic config has been set."
      },
      "exit1()": {
        "notice": "First exit point, can only be called before step 3 is executed."
      },
      "exited()": {
        "notice": "Whether or not the deployment has been exited."
      },
      "finalize()": {
        "notice": "Tranfers admin ownership to the final owner."
      },
      "finalized()": {
        "notice": "Whether or not the deployment is finalized."
      },
      "l2OutputOracleDynamicConfig()": {
        "notice": "Dynamic configuration for the L2OutputOracle."
      },
      "oldL1CrossDomainMessenger()": {
        "notice": "Address of the old L1CrossDomainMessenger implementation."
      },
      "optimismPortalDynamicConfig()": {
        "notice": "Dynamic configuration for the OptimismPortal. Determines         if the system should be paused when initialized."
      },
      "phase1()": {
        "notice": "Calls the first 2 steps of the migration process."
      },
      "phase2()": {
        "notice": "Calls the remaining steps of the migration process, and finalizes."
      },
      "step1()": {
        "notice": "Configures the ProxyAdmin contract."
      },
      "step2()": {
        "notice": "Pauses the system by shutting down the L1CrossDomainMessenger and setting the         deposit halt flag to tell the Sequencer's DTL to stop accepting deposits."
      },
      "step3()": {
        "notice": "Removes deprecated addresses from the AddressManager."
      },
      "step4()": {
        "notice": "Transfers system ownership to the ProxyAdmin."
      },
      "step5()": {
        "notice": "Upgrades and initializes proxy contracts."
      },
      "updateDynamicConfig((uint256,uint256),bool)": {
        "notice": "Allows the owner to update dynamic config."
      }
    },
    "notice": "The SystemDictator is responsible for coordinating the deployment of a full Bedrock         system. The SystemDictator is designed to support both fresh network deployments and         upgrades to existing pre-Bedrock systems."
  },
  "storageLayout": {
    "storage": [
      {
        "astId": 52671,
        "contract": "contracts/deployment/SystemDictator.sol:SystemDictator",
        "label": "_initialized",
        "offset": 0,
        "slot": "0",
        "type": "t_uint8"
      },
      {
        "astId": 52674,
        "contract": "contracts/deployment/SystemDictator.sol:SystemDictator",
        "label": "_initializing",
        "offset": 1,
        "slot": "0",
        "type": "t_bool"
      },
      {
        "astId": 53099,
        "contract": "contracts/deployment/SystemDictator.sol:SystemDictator",
        "label": "__gap",
        "offset": 0,
        "slot": "1",
        "type": "t_array(t_uint256)50_storage"
      },
      {
        "astId": 52543,
        "contract": "contracts/deployment/SystemDictator.sol:SystemDictator",
        "label": "_owner",
        "offset": 0,
        "slot": "51",
        "type": "t_address"
      },
      {
        "astId": 52663,
        "contract": "contracts/deployment/SystemDictator.sol:SystemDictator",
        "label": "__gap",
        "offset": 0,
        "slot": "52",
        "type": "t_array(t_uint256)49_storage"
      },
      {
        "astId": 4322,
        "contract": "contracts/deployment/SystemDictator.sol:SystemDictator",
        "label": "config",
        "offset": 0,
        "slot": "101",
        "type": "t_struct(DeployConfig)4310_storage"
      },
      {
        "astId": 4326,
        "contract": "contracts/deployment/SystemDictator.sol:SystemDictator",
        "label": "l2OutputOracleDynamicConfig",
        "offset": 0,
        "slot": "126",
        "type": "t_struct(L2OutputOracleDynamicConfig)4281_storage"
      },
      {
        "astId": 4329,
        "contract": "contracts/deployment/SystemDictator.sol:SystemDictator",
        "label": "optimismPortalDynamicConfig",
        "offset": 0,
        "slot": "128",
        "type": "t_bool"
      },
      {
        "astId": 4332,
        "contract": "contracts/deployment/SystemDictator.sol:SystemDictator",
        "label": "currentStep",
        "offset": 1,
        "slot": "128",
        "type": "t_uint8"
      },
      {
        "astId": 4335,
        "contract": "contracts/deployment/SystemDictator.sol:SystemDictator",
        "label": "dynamicConfigSet",
        "offset": 2,
        "slot": "128",
        "type": "t_bool"
      },
      {
        "astId": 4338,
        "contract": "contracts/deployment/SystemDictator.sol:SystemDictator",
        "label": "finalized",
        "offset": 3,
        "slot": "128",
        "type": "t_bool"
      },
      {
        "astId": 4341,
        "contract": "contracts/deployment/SystemDictator.sol:SystemDictator",
        "label": "exited",
        "offset": 4,
        "slot": "128",
        "type": "t_bool"
      },
      {
        "astId": 4344,
        "contract": "contracts/deployment/SystemDictator.sol:SystemDictator",
        "label": "oldL1CrossDomainMessenger",
        "offset": 5,
        "slot": "128",
        "type": "t_address"
      }
    ],
    "types": {
      "t_address": {
        "encoding": "inplace",
        "label": "address",
        "numberOfBytes": "20"
      },
      "t_array(t_uint256)49_storage": {
        "encoding": "inplace",
        "label": "uint256[49]",
        "numberOfBytes": "1568",
        "base": "t_uint256"
      },
      "t_array(t_uint256)50_storage": {
        "encoding": "inplace",
        "label": "uint256[50]",
        "numberOfBytes": "1600",
        "base": "t_uint256"
      },
      "t_bool": {
        "encoding": "inplace",
        "label": "bool",
        "numberOfBytes": "1"
      },
      "t_bytes32": {
        "encoding": "inplace",
        "label": "bytes32",
        "numberOfBytes": "32"
      },
      "t_contract(AddressManager)7678": {
        "encoding": "inplace",
        "label": "contract AddressManager",
        "numberOfBytes": "20"
      },
      "t_contract(L1CrossDomainMessenger)125": {
        "encoding": "inplace",
        "label": "contract L1CrossDomainMessenger",
        "numberOfBytes": "20"
      },
      "t_contract(L1ERC721Bridge)325": {
        "encoding": "inplace",
        "label": "contract L1ERC721Bridge",
        "numberOfBytes": "20"
      },
      "t_contract(L1StandardBridge)772": {
        "encoding": "inplace",
        "label": "contract L1StandardBridge",
        "numberOfBytes": "20"
      },
      "t_contract(L2OutputOracle)1233": {
        "encoding": "inplace",
        "label": "contract L2OutputOracle",
        "numberOfBytes": "20"
      },
      "t_contract(OptimismMintableERC20Factory)50636": {
        "encoding": "inplace",
        "label": "contract OptimismMintableERC20Factory",
        "numberOfBytes": "20"
      },
      "t_contract(OptimismPortal)1912": {
        "encoding": "inplace",
        "label": "contract OptimismPortal",
        "numberOfBytes": "20"
      },
      "t_contract(PortalSender)4190": {
        "encoding": "inplace",
        "label": "contract PortalSender",
        "numberOfBytes": "20"
      },
      "t_contract(ProxyAdmin)51686": {
        "encoding": "inplace",
        "label": "contract ProxyAdmin",
        "numberOfBytes": "20"
      },
      "t_contract(SystemConfig)2672": {
        "encoding": "inplace",
        "label": "contract SystemConfig",
        "numberOfBytes": "20"
      },
      "t_struct(DeployConfig)4310_storage": {
        "encoding": "inplace",
        "label": "struct SystemDictator.DeployConfig",
        "numberOfBytes": "800",
        "members": [
          {
            "astId": 4300,
            "contract": "contracts/deployment/SystemDictator.sol:SystemDictator",
            "label": "globalConfig",
            "offset": 0,
            "slot": "0",
            "type": "t_struct(GlobalConfig)4236_storage"
          },
          {
            "astId": 4303,
            "contract": "contracts/deployment/SystemDictator.sol:SystemDictator",
            "label": "proxyAddressConfig",
            "offset": 0,
            "slot": "4",
            "type": "t_struct(ProxyAddressConfig)4251_storage"
          },
          {
            "astId": 4306,
            "contract": "contracts/deployment/SystemDictator.sol:SystemDictator",
            "label": "implementationAddressConfig",
            "offset": 0,
            "slot": "11",
            "type": "t_struct(ImplementationAddressConfig)4276_storage"
          },
          {
            "astId": 4309,
            "contract": "contracts/deployment/SystemDictator.sol:SystemDictator",
            "label": "systemConfigConfig",
            "offset": 0,
            "slot": "19",
            "type": "t_struct(SystemConfigConfig)4297_storage"
          }
        ]
      },
      "t_struct(GlobalConfig)4236_storage": {
        "encoding": "inplace",
        "label": "struct SystemDictator.GlobalConfig",
        "numberOfBytes": "128",
        "members": [
          {
            "astId": 4228,
            "contract": "contracts/deployment/SystemDictator.sol:SystemDictator",
            "label": "addressManager",
            "offset": 0,
            "slot": "0",
            "type": "t_contract(AddressManager)7678"
          },
          {
            "astId": 4231,
            "contract": "contracts/deployment/SystemDictator.sol:SystemDictator",
            "label": "proxyAdmin",
            "offset": 0,
            "slot": "1",
            "type": "t_contract(ProxyAdmin)51686"
          },
          {
            "astId": 4233,
            "contract": "contracts/deployment/SystemDictator.sol:SystemDictator",
            "label": "controller",
            "offset": 0,
            "slot": "2",
            "type": "t_address"
          },
          {
            "astId": 4235,
            "contract": "contracts/deployment/SystemDictator.sol:SystemDictator",
            "label": "finalOwner",
            "offset": 0,
            "slot": "3",
            "type": "t_address"
          }
        ]
      },
      "t_struct(ImplementationAddressConfig)4276_storage": {
        "encoding": "inplace",
        "label": "struct SystemDictator.ImplementationAddressConfig",
        "numberOfBytes": "256",
        "members": [
          {
            "astId": 4254,
            "contract": "contracts/deployment/SystemDictator.sol:SystemDictator",
            "label": "l2OutputOracleImpl",
            "offset": 0,
            "slot": "0",
            "type": "t_contract(L2OutputOracle)1233"
          },
          {
            "astId": 4257,
            "contract": "contracts/deployment/SystemDictator.sol:SystemDictator",
            "label": "optimismPortalImpl",
            "offset": 0,
            "slot": "1",
            "type": "t_contract(OptimismPortal)1912"
          },
          {
            "astId": 4260,
            "contract": "contracts/deployment/SystemDictator.sol:SystemDictator",
            "label": "l1CrossDomainMessengerImpl",
            "offset": 0,
            "slot": "2",
            "type": "t_contract(L1CrossDomainMessenger)125"
          },
          {
            "astId": 4263,
            "contract": "contracts/deployment/SystemDictator.sol:SystemDictator",
            "label": "l1StandardBridgeImpl",
            "offset": 0,
            "slot": "3",
            "type": "t_contract(L1StandardBridge)772"
          },
          {
            "astId": 4266,
            "contract": "contracts/deployment/SystemDictator.sol:SystemDictator",
            "label": "optimismMintableERC20FactoryImpl",
            "offset": 0,
            "slot": "4",
            "type": "t_contract(OptimismMintableERC20Factory)50636"
          },
          {
            "astId": 4269,
            "contract": "contracts/deployment/SystemDictator.sol:SystemDictator",
            "label": "l1ERC721BridgeImpl",
            "offset": 0,
            "slot": "5",
            "type": "t_contract(L1ERC721Bridge)325"
          },
          {
            "astId": 4272,
            "contract": "contracts/deployment/SystemDictator.sol:SystemDictator",
            "label": "portalSenderImpl",
            "offset": 0,
            "slot": "6",
            "type": "t_contract(PortalSender)4190"
          },
          {
            "astId": 4275,
            "contract": "contracts/deployment/SystemDictator.sol:SystemDictator",
            "label": "systemConfigImpl",
            "offset": 0,
            "slot": "7",
            "type": "t_contract(SystemConfig)2672"
          }
        ]
      },
      "t_struct(L2OutputOracleDynamicConfig)4281_storage": {
        "encoding": "inplace",
        "label": "struct SystemDictator.L2OutputOracleDynamicConfig",
        "numberOfBytes": "64",
        "members": [
          {
            "astId": 4278,
            "contract": "contracts/deployment/SystemDictator.sol:SystemDictator",
            "label": "l2OutputOracleStartingBlockNumber",
            "offset": 0,
            "slot": "0",
            "type": "t_uint256"
          },
          {
            "astId": 4280,
            "contract": "contracts/deployment/SystemDictator.sol:SystemDictator",
            "label": "l2OutputOracleStartingTimestamp",
            "offset": 0,
            "slot": "1",
            "type": "t_uint256"
          }
        ]
      },
      "t_struct(ProxyAddressConfig)4251_storage": {
        "encoding": "inplace",
        "label": "struct SystemDictator.ProxyAddressConfig",
        "numberOfBytes": "224",
        "members": [
          {
            "astId": 4238,
            "contract": "contracts/deployment/SystemDictator.sol:SystemDictator",
            "label": "l2OutputOracleProxy",
            "offset": 0,
            "slot": "0",
            "type": "t_address"
          },
          {
            "astId": 4240,
            "contract": "contracts/deployment/SystemDictator.sol:SystemDictator",
            "label": "optimismPortalProxy",
            "offset": 0,
            "slot": "1",
            "type": "t_address"
          },
          {
            "astId": 4242,
            "contract": "contracts/deployment/SystemDictator.sol:SystemDictator",
            "label": "l1CrossDomainMessengerProxy",
            "offset": 0,
            "slot": "2",
            "type": "t_address"
          },
          {
            "astId": 4244,
            "contract": "contracts/deployment/SystemDictator.sol:SystemDictator",
            "label": "l1StandardBridgeProxy",
            "offset": 0,
            "slot": "3",
            "type": "t_address"
          },
          {
            "astId": 4246,
            "contract": "contracts/deployment/SystemDictator.sol:SystemDictator",
            "label": "optimismMintableERC20FactoryProxy",
            "offset": 0,
            "slot": "4",
            "type": "t_address"
          },
          {
            "astId": 4248,
            "contract": "contracts/deployment/SystemDictator.sol:SystemDictator",
            "label": "l1ERC721BridgeProxy",
            "offset": 0,
            "slot": "5",
            "type": "t_address"
          },
          {
            "astId": 4250,
            "contract": "contracts/deployment/SystemDictator.sol:SystemDictator",
            "label": "systemConfigProxy",
            "offset": 0,
            "slot": "6",
            "type": "t_address"
          }
        ]
      },
      "t_struct(ResourceConfig)1945_storage": {
        "encoding": "inplace",
        "label": "struct ResourceMetering.ResourceConfig",
        "numberOfBytes": "32",
        "members": [
          {
            "astId": 1934,
            "contract": "contracts/deployment/SystemDictator.sol:SystemDictator",
            "label": "maxResourceLimit",
            "offset": 0,
            "slot": "0",
            "type": "t_uint32"
          },
          {
            "astId": 1936,
            "contract": "contracts/deployment/SystemDictator.sol:SystemDictator",
            "label": "elasticityMultiplier",
            "offset": 4,
            "slot": "0",
            "type": "t_uint8"
          },
          {
            "astId": 1938,
            "contract": "contracts/deployment/SystemDictator.sol:SystemDictator",
            "label": "baseFeeMaxChangeDenominator",
            "offset": 5,
            "slot": "0",
            "type": "t_uint8"
          },
          {
            "astId": 1940,
            "contract": "contracts/deployment/SystemDictator.sol:SystemDictator",
            "label": "minimumBaseFee",
            "offset": 6,
            "slot": "0",
            "type": "t_uint32"
          },
          {
            "astId": 1942,
            "contract": "contracts/deployment/SystemDictator.sol:SystemDictator",
            "label": "systemTxMaxGas",
            "offset": 10,
            "slot": "0",
            "type": "t_uint32"
          },
          {
            "astId": 1944,
            "contract": "contracts/deployment/SystemDictator.sol:SystemDictator",
            "label": "maximumBaseFee",
            "offset": 14,
            "slot": "0",
            "type": "t_uint128"
          }
        ]
      },
      "t_struct(SystemConfigConfig)4297_storage": {
        "encoding": "inplace",
        "label": "struct SystemDictator.SystemConfigConfig",
        "numberOfBytes": "192",
        "members": [
          {
            "astId": 4283,
            "contract": "contracts/deployment/SystemDictator.sol:SystemDictator",
            "label": "owner",
            "offset": 0,
            "slot": "0",
            "type": "t_address"
          },
          {
            "astId": 4285,
            "contract": "contracts/deployment/SystemDictator.sol:SystemDictator",
            "label": "overhead",
            "offset": 0,
            "slot": "1",
            "type": "t_uint256"
          },
          {
            "astId": 4287,
            "contract": "contracts/deployment/SystemDictator.sol:SystemDictator",
            "label": "scalar",
            "offset": 0,
            "slot": "2",
            "type": "t_uint256"
          },
          {
            "astId": 4289,
            "contract": "contracts/deployment/SystemDictator.sol:SystemDictator",
            "label": "batcherHash",
            "offset": 0,
            "slot": "3",
            "type": "t_bytes32"
          },
          {
            "astId": 4291,
            "contract": "contracts/deployment/SystemDictator.sol:SystemDictator",
            "label": "gasLimit",
            "offset": 0,
            "slot": "4",
            "type": "t_uint64"
          },
          {
            "astId": 4293,
            "contract": "contracts/deployment/SystemDictator.sol:SystemDictator",
            "label": "unsafeBlockSigner",
            "offset": 8,
            "slot": "4",
            "type": "t_address"
          },
          {
            "astId": 4296,
            "contract": "contracts/deployment/SystemDictator.sol:SystemDictator",
            "label": "resourceConfig",
            "offset": 0,
            "slot": "5",
            "type": "t_struct(ResourceConfig)1945_storage"
          }
        ]
      },
      "t_uint128": {
        "encoding": "inplace",
        "label": "uint128",
        "numberOfBytes": "16"
      },
      "t_uint256": {
        "encoding": "inplace",
        "label": "uint256",
        "numberOfBytes": "32"
      },
      "t_uint32": {
        "encoding": "inplace",
        "label": "uint32",
        "numberOfBytes": "4"
      },
      "t_uint64": {
        "encoding": "inplace",
        "label": "uint64",
        "numberOfBytes": "8"
      },
      "t_uint8": {
        "encoding": "inplace",
        "label": "uint8",
        "numberOfBytes": "1"
      }
    }
  }
}