{
  "abi": [
    {
      "inputs": [
        {
          "internalType": "address",
          "name": "_inviteGranter",
          "type": "address"
        },
        {
          "internalType": "contract AttestationStation",
          "name": "_attestationStation",
          "type": "address"
        }
      ],
      "stateMutability": "nonpayable",
      "type": "constructor"
    },
    {
      "anonymous": false,
      "inputs": [
        {
          "indexed": false,
          "internalType": "uint8",
          "name": "version",
          "type": "uint8"
        }
      ],
      "name": "Initialized",
      "type": "event"
    },
    {
      "anonymous": false,
      "inputs": [
        {
          "indexed": true,
          "internalType": "address",
          "name": "issuer",
          "type": "address"
        },
        {
          "indexed": true,
          "internalType": "address",
          "name": "claimer",
          "type": "address"
        }
      ],
      "name": "InviteClaimed",
      "type": "event"
    },
    {
      "inputs": [],
      "name": "ATTESTATION_STATION",
      "outputs": [
        {
          "internalType": "contract AttestationStation",
          "name": "",
          "type": "address"
        }
      ],
      "stateMutability": "view",
      "type": "function"
    },
    {
      "inputs": [],
      "name": "CAN_INVITE_ATTESTATION_KEY",
      "outputs": [
        {
          "internalType": "bytes32",
          "name": "",
          "type": "bytes32"
        }
      ],
      "stateMutability": "view",
      "type": "function"
    },
    {
      "inputs": [],
      "name": "CLAIMABLE_INVITE_TYPEHASH",
      "outputs": [
        {
          "internalType": "bytes32",
          "name": "",
          "type": "bytes32"
        }
      ],
      "stateMutability": "view",
      "type": "function"
    },
    {
      "inputs": [],
      "name": "EIP712_VERSION",
      "outputs": [
        {
          "internalType": "string",
          "name": "",
          "type": "string"
        }
      ],
      "stateMutability": "view",
      "type": "function"
    },
    {
      "inputs": [],
      "name": "INVITE_GRANTER",
      "outputs": [
        {
          "internalType": "address",
          "name": "",
          "type": "address"
        }
      ],
      "stateMutability": "view",
      "type": "function"
    },
    {
      "inputs": [],
      "name": "MIN_COMMITMENT_PERIOD",
      "outputs": [
        {
          "internalType": "uint256",
          "name": "",
          "type": "uint256"
        }
      ],
      "stateMutability": "view",
      "type": "function"
    },
    {
      "inputs": [
        {
          "internalType": "address",
          "name": "_claimer",
          "type": "address"
        },
        {
          "components": [
            {
              "internalType": "address",
              "name": "issuer",
              "type": "address"
            },
            {
              "internalType": "bytes32",
              "name": "nonce",
              "type": "bytes32"
            }
          ],
          "internalType": "struct OptimistInviter.ClaimableInvite",
          "name": "_claimableInvite",
          "type": "tuple"
        },
        {
          "internalType": "bytes",
          "name": "_signature",
          "type": "bytes"
        }
      ],
      "name": "claimInvite",
      "outputs": [],
      "stateMutability": "nonpayable",
      "type": "function"
    },
    {
      "inputs": [
        {
          "internalType": "bytes32",
          "name": "_commitment",
          "type": "bytes32"
        }
      ],
      "name": "commitInvite",
      "outputs": [],
      "stateMutability": "nonpayable",
      "type": "function"
    },
    {
      "inputs": [
        {
          "internalType": "bytes32",
          "name": "",
          "type": "bytes32"
        }
      ],
      "name": "commitmentTimestamps",
      "outputs": [
        {
          "internalType": "uint256",
          "name": "",
          "type": "uint256"
        }
      ],
      "stateMutability": "view",
      "type": "function"
    },
    {
      "inputs": [
        {
          "internalType": "string",
          "name": "_name",
          "type": "string"
        }
      ],
      "name": "initialize",
      "outputs": [],
      "stateMutability": "nonpayable",
      "type": "function"
    },
    {
      "inputs": [
        {
          "internalType": "address",
          "name": "",
          "type": "address"
        }
      ],
      "name": "inviteCounts",
      "outputs": [
        {
          "internalType": "uint256",
          "name": "",
          "type": "uint256"
        }
      ],
      "stateMutability": "view",
      "type": "function"
    },
    {
      "inputs": [
        {
          "internalType": "address[]",
          "name": "_accounts",
          "type": "address[]"
        },
        {
          "internalType": "uint256",
          "name": "_inviteCount",
          "type": "uint256"
        }
      ],
      "name": "setInviteCounts",
      "outputs": [],
      "stateMutability": "nonpayable",
      "type": "function"
    },
    {
      "inputs": [
        {
          "internalType": "address",
          "name": "",
          "type": "address"
        },
        {
          "internalType": "bytes32",
          "name": "",
          "type": "bytes32"
        }
      ],
      "name": "usedNonces",
      "outputs": [
        {
          "internalType": "bool",
          "name": "",
          "type": "bool"
        }
      ],
      "stateMutability": "view",
      "type": "function"
    },
    {
      "inputs": [],
      "name": "version",
      "outputs": [
        {
          "internalType": "string",
          "name": "",
          "type": "string"
        }
      ],
      "stateMutability": "view",
      "type": "function"
    }
  ],
  "bytecode": {
    "object": "0x61012060405234801561001157600080fd5b50604051620017b3380380620017b383398101604081905261003291610071565b6001608052600060a081905260c0526001600160a01b0391821660e05216610100526100ab565b6001600160a01b038116811461006e57600080fd5b50565b6000806040838503121561008457600080fd5b825161008f81610059565b60208401519092506100a081610059565b809150509250929050565b60805160a05160c05160e051610100516116af620001046000396000818161024001528181610555015261099c01526000818160f4015261034901526000610b1401526000610aeb01526000610ac201526116af6000f3fe608060405234801561001057600080fd5b50600436106100ea5760003560e01c8063916db22f1161008c578063db083d7111610066578063db083d711461023b578063de2dd22114610262578063eccec5a814610282578063f62d1888146102a657600080fd5b8063916db22f146101d7578063b4245d73146101f4578063c4fc453d1461021457600080fd5b806350b414e6116100c857806350b414e61461015b57806350eedbc21461017157806354fd4d50146101845780635fda04c71461019957600080fd5b806314b47241146100ef578063187e3cd11461013357806325b27a3d14610148575b600080fd5b6101167f000000000000000000000000000000000000000000000000000000000000000081565b6040516001600160a01b0390911681526020015b60405180910390f35b610146610141366004611154565b6102b9565b005b61014661015636600461116d565b61033e565b610163603c81565b60405190815260200161012a565b61014661017f366004611290565b6105c3565b61018c610abb565b60405161012a919061136a565b6101c76101a736600461137d565b603660209081526000928352604080842090915290825290205460ff1681565b604051901515815260200161012a565b610163726f7074696d6973742e63616e2d696e7669746560681b81565b610163610202366004611154565b60356020526000908152604090205481565b6101637f6529fd129351e725d7bcbc468b0b0b4675477e56b58514e69ab7e66ddfd20fce81565b6101167f000000000000000000000000000000000000000000000000000000000000000081565b6101636102703660046113a7565b60376020526000908152604090205481565b61018c604051806040016040528060058152602001640312e302e360dc1b81525081565b6101466102b43660046113c2565b610b5e565b6000818152603560205260409020541561032b5760405162461bcd60e51b815260206004820152602860248201527f4f7074696d697374496e76697465723a20636f6d6d69746d656e7420616c7265604482015267616479206d61646560c01b60648201526084015b60405180910390fd5b6000908152603560205260409020429055565b336001600160a01b037f000000000000000000000000000000000000000000000000000000000000000016146103d55760405162461bcd60e51b815260206004820152603660248201527f4f7074696d697374496e76697465723a206f6e6c7920696e76697465206772616044820152756e7465722063616e206772616e7420696e766974657360501b6064820152608401610322565b8160008167ffffffffffffffff8111156103f1576103f1611204565b60405190808252806020026020018201604052801561043e57816020015b6040805160608082018352600080835260208301529181019190915281526020019060019003908161040f5790505b50905060005b8281101561053d5783603760008888858181106104635761046361140b565b905060200201602081019061047891906113a7565b6001600160a01b03166001600160a01b031681526020019081526020016000208190555060405180606001604052808787848181106104b9576104b961140b565b90506020020160208101906104ce91906113a7565b6001600160a01b03168152602001726f7074696d6973742e63616e2d696e7669746560681b8152602001604051806040016040528060048152602001637472756560e01b81525081525082828151811061052a5761052a61140b565b6020908102919091010152600101610444565b506040516305eb5ea160e41b81526001600160a01b037f00000000000000000000000000000000000000000000000000000000000000001690635eb5ea109061058a908490600401611421565b600060405180830381600087803b1580156105a457600080fd5b505af11580156105b8573d6000803e3d6000fd5b505050505050505050565b60006035600085846040516020016105dc9291906114a9565b604051602081830303815290604052805190602001208152602001908152602001600020549050600081116106845760405162461bcd60e51b815260206004820152604260248201527f4f7074696d697374496e76697465723a20636c61696d657220616e642073696760448201527f6e61747572652068617665206e6f74206265656e20636f6d6d69747465642079606482015261195d60f21b608482015260a401610322565b42610690603c836114e3565b11156107045760405162461bcd60e51b815260206004820152603e60248201527f4f7074696d697374496e76697465723a206d696e696d756d20636f6d6d69746d60448201527f656e7420706572696f6420686173206e6f7420656c61707365642079657400006064820152608401610322565b600061077a7f6529fd129351e725d7bcbc468b0b0b4675477e56b58514e69ab7e66ddfd20fce61073760208701876113a7565b604080516020818101949094526001600160a01b039092169082015290860135606082015260800160405160208183030381529060405280519060200120610c8f565b905061079361078c60208601866113a7565b8285610ce3565b6107ea5760405162461bcd60e51b815260206004820152602260248201527f4f7074696d697374496e76697465723a20696e76616c6964207369676e617475604482015261726560f01b6064820152608401610322565b603660006107fb60208701876113a7565b6001600160a01b031681526020808201929092526040908101600090812087840135825290925290205460ff161561088a5760405162461bcd60e51b815260206004820152602c60248201527f4f7074696d697374496e76697465723a206e6f6e63652068617320616c72656160448201526b191e481899595b881d5cd95960a21b6064820152608401610322565b60016036600061089d60208801886113a7565b6001600160a01b0316815260208082019290925260409081016000908120888401803583529352908120805460ff19169315159390931790925560379082906108e690886113a7565b6001600160a01b03166001600160a01b0316815260200190815260200160002054116109635760405162461bcd60e51b815260206004820152602660248201527f4f7074696d697374496e76697465723a2069737375657220686173206e6f20696044820152656e766974657360d01b6064820152608401610322565b6037600061097460208701876113a7565b6001600160a01b039081168252602080830193909352604090910160002080546000190190557f0000000000000000000000000000000000000000000000000000000000000000169063702b9dee9087907f6f7074696d6973742e63616e2d6d696e742d66726f6d2d696e76697465000000906109f3908901896113a7565b604080516001600160a01b039092166020830152016040516020818303038152906040526040518463ffffffff1660e01b8152600401610a35939291906114fb565b600060405180830381600087803b158015610a4f57600080fd5b505af1158015610a63573d6000803e3d6000fd5b5050506001600160a01b0386169050610a7f60208601866113a7565b6001600160a01b03167f745d3c5bc92ab40b418069bf8f8e2030807effceb88bbaa07ee01574f16be47560405160405180910390a35050505050565b6060610ae67f0000000000000000000000000000000000000000000000000000000000000000610e27565b610b0f7f0000000000000000000000000000000000000000000000000000000000000000610e27565b610b387f0000000000000000000000000000000000000000000000000000000000000000610e27565b604051602001610b4a9392919061152b565b604051602081830303815290604052905090565b600054610100900460ff1615808015610b7e5750600054600160ff909116105b80610b985750303b158015610b98575060005460ff166001145b610bfb5760405162461bcd60e51b815260206004820152602e60248201527f496e697469616c697a61626c653a20636f6e747261637420697320616c72656160448201526d191e481a5b9a5d1a585b1a5e995960921b6064820152608401610322565b6000805460ff191660011790558015610c1e576000805461ff0019166101001790555b610c4582604051806040016040528060058152602001640312e302e360dc1b815250610f30565b8015610c8b576000805461ff0019169055604051600181527f7f26b83ff96e1f2b6a682f133852f6798a09c465da95921460cefb38474024989060200160405180910390a15b5050565b6000610cdd610c9c610f61565b8360405161190160f01b6020820152602281018390526042810182905260009060620160405160208183030381529060405280519060200120905092915050565b92915050565b6000806000610cf28585610fe1565b90925090506000816004811115610d0b57610d0b611585565b148015610d295750856001600160a01b0316826001600160a01b0316145b15610d3957600192505050610e20565b600080876001600160a01b0316631626ba7e60e01b8888604051602401610d6192919061159b565b60408051601f198184030181529181526020820180516001600160e01b03166001600160e01b0319909416939093179092529051610d9f91906115b4565b600060405180830381855afa9150503d8060008114610dda576040519150601f19603f3d011682016040523d82523d6000602084013e610ddf565b606091505b5091509150818015610df2575080516020145b8015610e1957508051630b135d3f60e11b90610e1790830160209081019084016115d0565b145b9450505050505b9392505050565b606081600003610e4e5750506040805180820190915260018152600360fc1b602082015290565b8160005b8115610e785780610e62816115e9565b9150610e719050600a83611618565b9150610e52565b60008167ffffffffffffffff811115610e9357610e93611204565b6040519080825280601f01601f191660200182016040528015610ebd576020820181803683370190505b5090505b8415610f2857610ed260018361162c565b9150610edf600a86611643565b610eea9060306114e3565b60f81b818381518110610eff57610eff61140b565b60200101906001600160f81b031916908160001a905350610f21600a86611618565b9450610ec1565b949350505050565b600054610100900460ff16610f575760405162461bcd60e51b815260040161032290611657565b610c8b8282611026565b6000610fdc7f8b73c3c69bb8fe3d512ecc4cf759cc79239f7b179b0ffacaa9a75d522b39400f610f9060015490565b6002546040805160208101859052908101839052606081018290524660808201523060a082015260009060c0016040516020818303038152906040528051906020012090509392505050565b905090565b60008082516041036110175760208301516040840151606085015160001a61100b87828585611067565b9450945050505061101f565b506000905060025b9250929050565b600054610100900460ff1661104d5760405162461bcd60e51b815260040161032290611657565b815160209283012081519190920120600191909155600255565b6000807f7fffffffffffffffffffffffffffffff5d576e7357a4501ddfe92f46681b20a083111561109e575060009050600361114b565b8460ff16601b141580156110b657508460ff16601c14155b156110c7575060009050600461114b565b6040805160008082526020820180845289905260ff881692820192909252606081018690526080810185905260019060a0016020604051602081039080840390855afa15801561111b573d6000803e3d6000fd5b5050604051601f1901519150506001600160a01b0381166111445760006001925092505061114b565b9150600090505b94509492505050565b60006020828403121561116657600080fd5b5035919050565b60008060006040848603121561118257600080fd5b833567ffffffffffffffff8082111561119a57600080fd5b818601915086601f8301126111ae57600080fd5b8135818111156111bd57600080fd5b8760208260051b85010111156111d257600080fd5b6020928301989097509590910135949350505050565b80356001600160a01b03811681146111ff57600080fd5b919050565b634e487b7160e01b600052604160045260246000fd5b600067ffffffffffffffff8084111561123557611235611204565b604051601f8501601f19908116603f0116810190828211818310171561125d5761125d611204565b8160405280935085815286868601111561127657600080fd5b858560208301376000602087830101525050509392505050565b600080600083850360808112156112a657600080fd5b6112af856111e8565b93506040601f19820112156112c357600080fd5b50602084019150606084013567ffffffffffffffff8111156112e457600080fd5b8401601f810186136112f557600080fd5b6113048682356020840161121a565b9150509250925092565b60005b83811015611329578181015183820152602001611311565b83811115611338576000848401525b50505050565b6000815180845261135681602086016020860161130e565b601f01601f19169290920160200192915050565b602081526000610e20602083018461133e565b6000806040838503121561139057600080fd5b611399836111e8565b946020939093013593505050565b6000602082840312156113b957600080fd5b610e20826111e8565b6000602082840312156113d457600080fd5b813567ffffffffffffffff8111156113eb57600080fd5b8201601f810184136113fc57600080fd5b610f288482356020840161121a565b634e487b7160e01b600052603260045260246000fd5b60006020808301818452808551808352604092508286019150828160051b87010184880160005b8381101561149b57888303603f19018552815180516001600160a01b03168452878101518885015286015160608785018190526114878186018361133e565b968901969450505090860190600101611448565b509098975050505050505050565b6001600160a01b0383168152604060208201819052600090610f289083018461133e565b634e487b7160e01b600052601160045260246000fd5b600082198211156114f6576114f66114cd565b500190565b60018060a01b0384168152826020820152606060408201526000611522606083018461133e565b95945050505050565b6000845161153d81846020890161130e565b8083019050601760f91b808252855161155d816001850160208a0161130e565b6001920191820152835161157881600284016020880161130e565b0160020195945050505050565b634e487b7160e01b600052602160045260246000fd5b828152604060208201526000610f28604083018461133e565b600082516115c681846020870161130e565b9190910192915050565b6000602082840312156115e257600080fd5b5051919050565b6000600182016115fb576115fb6114cd565b5060010190565b634e487b7160e01b600052601260045260246000fd5b60008261162757611627611602565b500490565b60008282101561163e5761163e6114cd565b500390565b60008261165257611652611602565b500690565b6020808252602b908201527f496e697469616c697a61626c653a20636f6e7472616374206973206e6f74206960408201526a6e697469616c697a696e6760a81b60608201526080019056fea164736f6c634300080f000a",
    "linkReferences": {}
  },
  "methodIdentifiers": {
    "ATTESTATION_STATION()": "db083d71",
    "CAN_INVITE_ATTESTATION_KEY()": "916db22f",
    "CLAIMABLE_INVITE_TYPEHASH()": "c4fc453d",
    "EIP712_VERSION()": "eccec5a8",
    "INVITE_GRANTER()": "14b47241",
    "MIN_COMMITMENT_PERIOD()": "50b414e6",
    "claimInvite(address,(address,bytes32),bytes)": "50eedbc2",
    "commitInvite(bytes32)": "187e3cd1",
    "commitmentTimestamps(bytes32)": "b4245d73",
    "initialize(string)": "f62d1888",
    "inviteCounts(address)": "de2dd221",
    "setInviteCounts(address[],uint256)": "25b27a3d",
    "usedNonces(address,bytes32)": "5fda04c7",
    "version()": "54fd4d50"
  },
  "id": 55
}