{
  "address": "0x100Ec43bB13b2F68d68E125cc288b72b0c01bD9a",
  "abi": [
    {
      "inputs": [
        {
          "internalType": "address",
          "name": "_owner",
          "type": "address"
        },
        {
          "internalType": "uint256",
          "name": "_overhead",
          "type": "uint256"
        },
        {
          "internalType": "uint256",
          "name": "_scalar",
          "type": "uint256"
        },
        {
          "internalType": "bytes32",
          "name": "_batcherHash",
          "type": "bytes32"
        },
        {
          "internalType": "uint64",
          "name": "_gasLimit",
          "type": "uint64"
        }
      ],
      "stateMutability": "nonpayable",
      "type": "constructor"
    },
    {
      "anonymous": false,
      "inputs": [
        {
          "indexed": true,
          "internalType": "uint256",
          "name": "version",
          "type": "uint256"
        },
        {
          "indexed": true,
          "internalType": "enum SystemConfig.UpdateType",
          "name": "updateType",
          "type": "uint8"
        },
        {
          "indexed": false,
          "internalType": "bytes",
          "name": "data",
          "type": "bytes"
        }
      ],
      "name": "ConfigUpdate",
      "type": "event"
    },
    {
      "anonymous": false,
      "inputs": [
        {
          "indexed": false,
          "internalType": "uint8",
          "name": "version",
          "type": "uint8"
        }
      ],
      "name": "Initialized",
      "type": "event"
    },
    {
      "anonymous": false,
      "inputs": [
        {
          "indexed": true,
          "internalType": "address",
          "name": "previousOwner",
          "type": "address"
        },
        {
          "indexed": true,
          "internalType": "address",
          "name": "newOwner",
          "type": "address"
        }
      ],
      "name": "OwnershipTransferred",
      "type": "event"
    },
    {
      "inputs": [],
      "name": "MINIMUM_GAS_LIMIT",
      "outputs": [
        {
          "internalType": "uint64",
          "name": "",
          "type": "uint64"
        }
      ],
      "stateMutability": "view",
      "type": "function"
    },
    {
      "inputs": [],
      "name": "VERSION",
      "outputs": [
        {
          "internalType": "uint256",
          "name": "",
          "type": "uint256"
        }
      ],
      "stateMutability": "view",
      "type": "function"
    },
    {
      "inputs": [],
      "name": "batcherHash",
      "outputs": [
        {
          "internalType": "bytes32",
          "name": "",
          "type": "bytes32"
        }
      ],
      "stateMutability": "view",
      "type": "function"
    },
    {
      "inputs": [],
      "name": "gasLimit",
      "outputs": [
        {
          "internalType": "uint64",
          "name": "",
          "type": "uint64"
        }
      ],
      "stateMutability": "view",
      "type": "function"
    },
    {
      "inputs": [
        {
          "internalType": "address",
          "name": "_owner",
          "type": "address"
        },
        {
          "internalType": "uint256",
          "name": "_overhead",
          "type": "uint256"
        },
        {
          "internalType": "uint256",
          "name": "_scalar",
          "type": "uint256"
        },
        {
          "internalType": "bytes32",
          "name": "_batcherHash",
          "type": "bytes32"
        },
        {
          "internalType": "uint64",
          "name": "_gasLimit",
          "type": "uint64"
        }
      ],
      "name": "initialize",
      "outputs": [],
      "stateMutability": "nonpayable",
      "type": "function"
    },
    {
      "inputs": [],
      "name": "overhead",
      "outputs": [
        {
          "internalType": "uint256",
          "name": "",
          "type": "uint256"
        }
      ],
      "stateMutability": "view",
      "type": "function"
    },
    {
      "inputs": [],
      "name": "owner",
      "outputs": [
        {
          "internalType": "address",
          "name": "",
          "type": "address"
        }
      ],
      "stateMutability": "view",
      "type": "function"
    },
    {
      "inputs": [],
      "name": "renounceOwnership",
      "outputs": [],
      "stateMutability": "nonpayable",
      "type": "function"
    },
    {
      "inputs": [],
      "name": "scalar",
      "outputs": [
        {
          "internalType": "uint256",
          "name": "",
          "type": "uint256"
        }
      ],
      "stateMutability": "view",
      "type": "function"
    },
    {
      "inputs": [
        {
          "internalType": "bytes32",
          "name": "_batcherHash",
          "type": "bytes32"
        }
      ],
      "name": "setBatcherHash",
      "outputs": [],
      "stateMutability": "nonpayable",
      "type": "function"
    },
    {
      "inputs": [
        {
          "internalType": "uint256",
          "name": "_overhead",
          "type": "uint256"
        },
        {
          "internalType": "uint256",
          "name": "_scalar",
          "type": "uint256"
        }
      ],
      "name": "setGasConfig",
      "outputs": [],
      "stateMutability": "nonpayable",
      "type": "function"
    },
    {
      "inputs": [
        {
          "internalType": "uint64",
          "name": "_gasLimit",
          "type": "uint64"
        }
      ],
      "name": "setGasLimit",
      "outputs": [],
      "stateMutability": "nonpayable",
      "type": "function"
    },
    {
      "inputs": [
        {
          "internalType": "address",
          "name": "newOwner",
          "type": "address"
        }
      ],
      "name": "transferOwnership",
      "outputs": [],
      "stateMutability": "nonpayable",
      "type": "function"
    },
    {
      "inputs": [],
      "name": "version",
      "outputs": [
        {
          "internalType": "string",
          "name": "",
          "type": "string"
        }
      ],
      "stateMutability": "view",
      "type": "function"
    }
  ],
  "transactionHash": "0x25178db0da1887788a326f65414054d201060d9bd58031f80afd0279df3838f0",
  "args": [
    "0x62790eFcB3a5f3A5D398F95B47930A9Addd83807",
    2100,
    1000000,
    "0x0000000000000000000000003a2baa0160275024a50c1be1fc677375e7db4bd7",
    "0x17D7840"
  ],
  "numDeployments": 1,
  "solcInputHash": "31019ee6c188b31fc9b304ddc761be1b",
  "bytecode": "0x60e06040523480156200001157600080fd5b506040516200139238038062001392833981016040819052620000349162000432565b6000608081905260a052600160c0526200005285858585856200005d565b5050505050620004a5565b600054610100900460ff16158080156200007e5750600054600160ff909116105b80620000ae57506200009b306200022760201b620007a91760201c565b158015620000ae575060005460ff166001145b620001175760405162461bcd60e51b815260206004820152602e60248201527f496e697469616c697a61626c653a20636f6e747261637420697320616c72656160448201526d191e481a5b9a5d1a585b1a5e995960921b60648201526084015b60405180910390fd5b6000805460ff1916600117905580156200013b576000805461ff0019166101001790555b627a12006001600160401b0383161015620001995760405162461bcd60e51b815260206004820152601f60248201527f53797374656d436f6e6669673a20676173206c696d697420746f6f206c6f770060448201526064016200010e565b620001a362000236565b620001ae866200029e565b606585905560668490556067839055606880546001600160401b0319166001600160401b03841617905580156200021f576000805461ff0019169055604051600181527f7f26b83ff96e1f2b6a682f133852f6798a09c465da95921460cefb38474024989060200160405180910390a15b505050505050565b6001600160a01b03163b151590565b600054610100900460ff16620002925760405162461bcd60e51b815260206004820152602b60248201526000805160206200137283398151915260448201526a6e697469616c697a696e6760a81b60648201526084016200010e565b6200029c6200031d565b565b620002a862000384565b6001600160a01b0381166200030f5760405162461bcd60e51b815260206004820152602660248201527f4f776e61626c653a206e6577206f776e657220697320746865207a65726f206160448201526564647265737360d01b60648201526084016200010e565b6200031a81620003e0565b50565b600054610100900460ff16620003795760405162461bcd60e51b815260206004820152602b60248201526000805160206200137283398151915260448201526a6e697469616c697a696e6760a81b60648201526084016200010e565b6200029c33620003e0565b6033546001600160a01b031633146200029c5760405162461bcd60e51b815260206004820181905260248201527f4f776e61626c653a2063616c6c6572206973206e6f7420746865206f776e657260448201526064016200010e565b603380546001600160a01b038381166001600160a01b0319831681179093556040519116919082907f8be0079c531659141344cd1fd0a4f28419497f9722a3daafe3b4186f6b6457e090600090a35050565b600080600080600060a086880312156200044b57600080fd5b85516001600160a01b03811681146200046357600080fd5b60208701516040880151606089015160808a0151939850919650945092506001600160401b03811681146200049757600080fd5b809150509295509295909350565b60805160a05160c051610e9d620004d5600039600061025b01526000610232015260006102090152610e9d6000f3fe608060405234801561001057600080fd5b50600436106100ea5760003560e01c8063b40a817c1161008c578063f2fde38b11610066578063f2fde38b146101ca578063f45e65d8146101dd578063f68016b7146101e6578063ffa1ad74146101fa57600080fd5b8063b40a817c1461019b578063c9b26f61146101ae578063e81b2c6d146101c157600080fd5b806370bde19c116100c857806370bde19c14610143578063715018a6146101585780638da5cb5b14610160578063935f029e1461018857600080fd5b80630c18c162146100ef57806329477e861461010b57806354fd4d501461012e575b600080fd5b6100f860655481565b6040519081526020015b60405180910390f35b610115627a120081565b60405167ffffffffffffffff9091168152602001610102565b610136610202565b6040516101029190610bb3565b610156610151366004610c0e565b6102a5565b005b610156610504565b60335460405173ffffffffffffffffffffffffffffffffffffffff9091168152602001610102565b610156610196366004610c5e565b610518565b6101566101a9366004610c80565b6105b1565b6101566101bc366004610c9b565b6106c2565b6100f860675481565b6101566101d8366004610cb4565b6106f2565b6100f860665481565b6068546101159067ffffffffffffffff1681565b6100f8600081565b606061022d7f00000000000000000000000000000000000000000000000000000000000000006107c5565b6102567f00000000000000000000000000000000000000000000000000000000000000006107c5565b61027f7f00000000000000000000000000000000000000000000000000000000000000006107c5565b60405160200161029193929190610ccf565b604051602081830303815290604052905090565b600054610100900460ff16158080156102c55750600054600160ff909116105b806102df5750303b1580156102df575060005460ff166001145b610370576040517f08c379a000000000000000000000000000000000000000000000000000000000815260206004820152602e60248201527f496e697469616c697a61626c653a20636f6e747261637420697320616c72656160448201527f647920696e697469616c697a656400000000000000000000000000000000000060648201526084015b60405180910390fd5b600080547fffffffffffffffffffffffffffffffffffffffffffffffffffffffffffffff0016600117905580156103ce57600080547fffffffffffffffffffffffffffffffffffffffffffffffffffffffffffff00ff166101001790555b627a120067ffffffffffffffff83161015610445576040517f08c379a000000000000000000000000000000000000000000000000000000000815260206004820152601f60248201527f53797374656d436f6e6669673a20676173206c696d697420746f6f206c6f77006044820152606401610367565b61044d610902565b610456866106f2565b606585905560668490556067839055606880547fffffffffffffffffffffffffffffffffffffffffffffffff00000000000000001667ffffffffffffffff841617905580156104fc57600080547fffffffffffffffffffffffffffffffffffffffffffffffffffffffffffff00ff169055604051600181527f7f26b83ff96e1f2b6a682f133852f6798a09c465da95921460cefb38474024989060200160405180910390a15b505050505050565b61050c6109a1565b6105166000610a22565b565b6105206109a1565b606582905560668190556040805160208101849052908101829052600090606001604080517fffffffffffffffffffffffffffffffffffffffffffffffffffffffffffffffe08184030181529190529050600160007f1d2b0bda21d56b8bd12d4f94ebacffdfb35f5e226f84b461103bb8beab6353be836040516105a49190610bb3565b60405180910390a3505050565b6105b96109a1565b627a120067ffffffffffffffff82161015610630576040517f08c379a000000000000000000000000000000000000000000000000000000000815260206004820152601f60248201527f53797374656d436f6e6669673a20676173206c696d697420746f6f206c6f77006044820152606401610367565b606880547fffffffffffffffffffffffffffffffffffffffffffffffff00000000000000001667ffffffffffffffff831690811790915560408051602080820193909352815180820390930183528101905260025b60007f1d2b0bda21d56b8bd12d4f94ebacffdfb35f5e226f84b461103bb8beab6353be836040516106b69190610bb3565b60405180910390a35050565b6106ca6109a1565b6067819055604080516020808201849052825180830390910181529082019091526000610685565b6106fa6109a1565b73ffffffffffffffffffffffffffffffffffffffff811661079d576040517f08c379a000000000000000000000000000000000000000000000000000000000815260206004820152602660248201527f4f776e61626c653a206e6577206f776e657220697320746865207a65726f206160448201527f64647265737300000000000000000000000000000000000000000000000000006064820152608401610367565b6107a681610a22565b50565b73ffffffffffffffffffffffffffffffffffffffff163b151590565b60608160000361080857505060408051808201909152600181527f3000000000000000000000000000000000000000000000000000000000000000602082015290565b8160005b8115610832578061081c81610d74565b915061082b9050600a83610ddb565b915061080c565b60008167ffffffffffffffff81111561084d5761084d610def565b6040519080825280601f01601f191660200182016040528015610877576020820181803683370190505b5090505b84156108fa5761088c600183610e1e565b9150610899600a86610e35565b6108a4906030610e49565b60f81b8183815181106108b9576108b9610e61565b60200101907effffffffffffffffffffffffffffffffffffffffffffffffffffffffffffff1916908160001a9053506108f3600a86610ddb565b945061087b565b949350505050565b600054610100900460ff16610999576040517f08c379a000000000000000000000000000000000000000000000000000000000815260206004820152602b60248201527f496e697469616c697a61626c653a20636f6e7472616374206973206e6f74206960448201527f6e697469616c697a696e670000000000000000000000000000000000000000006064820152608401610367565b610516610a99565b60335473ffffffffffffffffffffffffffffffffffffffff163314610516576040517f08c379a000000000000000000000000000000000000000000000000000000000815260206004820181905260248201527f4f776e61626c653a2063616c6c6572206973206e6f7420746865206f776e65726044820152606401610367565b6033805473ffffffffffffffffffffffffffffffffffffffff8381167fffffffffffffffffffffffff0000000000000000000000000000000000000000831681179093556040519116919082907f8be0079c531659141344cd1fd0a4f28419497f9722a3daafe3b4186f6b6457e090600090a35050565b600054610100900460ff16610b30576040517f08c379a000000000000000000000000000000000000000000000000000000000815260206004820152602b60248201527f496e697469616c697a61626c653a20636f6e7472616374206973206e6f74206960448201527f6e697469616c697a696e670000000000000000000000000000000000000000006064820152608401610367565b61051633610a22565b60005b83811015610b54578181015183820152602001610b3c565b83811115610b63576000848401525b50505050565b60008151808452610b81816020860160208601610b39565b601f017fffffffffffffffffffffffffffffffffffffffffffffffffffffffffffffffe0169290920160200192915050565b602081526000610bc66020830184610b69565b9392505050565b803573ffffffffffffffffffffffffffffffffffffffff81168114610bf157600080fd5b919050565b803567ffffffffffffffff81168114610bf157600080fd5b600080600080600060a08688031215610c2657600080fd5b610c2f86610bcd565b9450602086013593506040860135925060608601359150610c5260808701610bf6565b90509295509295909350565b60008060408385031215610c7157600080fd5b50508035926020909101359150565b600060208284031215610c9257600080fd5b610bc682610bf6565b600060208284031215610cad57600080fd5b5035919050565b600060208284031215610cc657600080fd5b610bc682610bcd565b60008451610ce1818460208901610b39565b80830190507f2e000000000000000000000000000000000000000000000000000000000000008082528551610d1d816001850160208a01610b39565b60019201918201528351610d38816002840160208801610b39565b0160020195945050505050565b7f4e487b7100000000000000000000000000000000000000000000000000000000600052601160045260246000fd5b60007fffffffffffffffffffffffffffffffffffffffffffffffffffffffffffffffff8203610da557610da5610d45565b5060010190565b7f4e487b7100000000000000000000000000000000000000000000000000000000600052601260045260246000fd5b600082610dea57610dea610dac565b500490565b7f4e487b7100000000000000000000000000000000000000000000000000000000600052604160045260246000fd5b600082821015610e3057610e30610d45565b500390565b600082610e4457610e44610dac565b500690565b60008219821115610e5c57610e5c610d45565b500190565b7f4e487b7100000000000000000000000000000000000000000000000000000000600052603260045260246000fdfea164736f6c634300080f000a496e697469616c697a61626c653a20636f6e7472616374206973206e6f742069",
  "devdoc": {
    "version": 1,
    "kind": "dev",
    "methods": {
      "constructor": {
        "params": {
          "_batcherHash": "Initial batcher hash.",
          "_gasLimit": "Initial gas limit.",
          "_overhead": "Initial overhead value.",
          "_owner": "Initial owner of the contract.",
          "_scalar": "Initial scalar value."
        }
      },
      "initialize(address,uint256,uint256,bytes32,uint64)": {
        "params": {
          "_batcherHash": "Initial batcher hash.",
          "_gasLimit": "Initial gas limit.",
          "_overhead": "Initial overhead value.",
          "_owner": "Initial owner of the contract.",
          "_scalar": "Initial scalar value."
        }
      },
      "owner()": {
        "details": "Returns the address of the current owner."
      },
      "renounceOwnership()": {
        "details": "Leaves the contract without owner. It will not be possible to call `onlyOwner` functions anymore. Can only be called by the current owner. NOTE: Renouncing ownership will leave the contract without an owner, thereby removing any functionality that is only available to the owner."
      },
      "setBatcherHash(bytes32)": {
        "params": {
          "_batcherHash": "New batcher hash."
        }
      },
      "setGasConfig(uint256,uint256)": {
        "params": {
          "_overhead": "New overhead value.",
          "_scalar": "New scalar value."
        }
      },
      "setGasLimit(uint64)": {
        "params": {
          "_gasLimit": "New gas limit."
        }
      },
      "transferOwnership(address)": {
        "details": "Transfers ownership of the contract to a new account (`newOwner`). Can only be called by the current owner."
      },
      "version()": {
        "returns": {
          "_0": "Semver contract version as a string."
        }
      }
    },
    "events": {
      "ConfigUpdate(uint256,uint8,bytes)": {
        "params": {
          "data": "Encoded update data.",
          "updateType": "Type of update.",
          "version": "SystemConfig version."
        }
      }
    },
    "title": "SystemConfig"
  },
  "userdoc": {
    "version": 1,
    "kind": "user",
    "methods": {
      "MINIMUM_GAS_LIMIT()": {
        "notice": "Minimum gas limit. This should not be lower than the maximum deposit gas resource         limit in the ResourceMetering contract used by OptimismPortal, to ensure the L2         block always has sufficient gas to process deposits."
      },
      "VERSION()": {
        "notice": "Version identifier, used for upgrades."
      },
      "batcherHash()": {
        "notice": "Identifier for the batcher. For version 1 of this configuration, this is represented         as an address left-padded with zeros to 32 bytes."
      },
      "gasLimit()": {
        "notice": "L2 gas limit."
      },
      "initialize(address,uint256,uint256,bytes32,uint64)": {
        "notice": "Initializer."
      },
      "overhead()": {
        "notice": "Fixed L2 gas overhead."
      },
      "scalar()": {
        "notice": "Dynamic L2 gas overhead."
      },
      "setBatcherHash(bytes32)": {
        "notice": "Updates the batcher hash."
      },
      "setGasConfig(uint256,uint256)": {
        "notice": "Updates gas config."
      },
      "setGasLimit(uint64)": {
        "notice": "Updates the L2 gas limit."
      },
      "version()": {
        "notice": "Returns the full semver contract version."
      }
    },
    "events": {
      "ConfigUpdate(uint256,uint8,bytes)": {
        "notice": "Emitted when configuration is updated"
      }
    },
    "notice": "The SystemConfig contract is used to manage configuration of an Optimism network. All         configuration is stored on L1 and picked up by L2 as part of the derviation of the L2         chain."
  },
  "storageLayout": {
    "storage": [
      {
        "astId": 28617,
        "contract": "contracts/L1/SystemConfig.sol:SystemConfig",
        "label": "_initialized",
        "offset": 0,
        "slot": "0",
        "type": "t_uint8"
      },
      {
        "astId": 28620,
        "contract": "contracts/L1/SystemConfig.sol:SystemConfig",
        "label": "_initializing",
        "offset": 1,
        "slot": "0",
        "type": "t_bool"
      },
      {
        "astId": 29231,
        "contract": "contracts/L1/SystemConfig.sol:SystemConfig",
        "label": "__gap",
        "offset": 0,
        "slot": "1",
        "type": "t_array(t_uint256)50_storage"
      },
      {
        "astId": 28489,
        "contract": "contracts/L1/SystemConfig.sol:SystemConfig",
        "label": "_owner",
        "offset": 0,
        "slot": "51",
        "type": "t_address"
      },
      {
        "astId": 28609,
        "contract": "contracts/L1/SystemConfig.sol:SystemConfig",
        "label": "__gap",
        "offset": 0,
        "slot": "52",
        "type": "t_array(t_uint256)49_storage"
      },
      {
        "astId": 1958,
        "contract": "contracts/L1/SystemConfig.sol:SystemConfig",
        "label": "overhead",
        "offset": 0,
        "slot": "101",
        "type": "t_uint256"
      },
      {
        "astId": 1961,
        "contract": "contracts/L1/SystemConfig.sol:SystemConfig",
        "label": "scalar",
        "offset": 0,
        "slot": "102",
        "type": "t_uint256"
      },
      {
        "astId": 1964,
        "contract": "contracts/L1/SystemConfig.sol:SystemConfig",
        "label": "batcherHash",
        "offset": 0,
        "slot": "103",
        "type": "t_bytes32"
      },
      {
        "astId": 1967,
        "contract": "contracts/L1/SystemConfig.sol:SystemConfig",
        "label": "gasLimit",
        "offset": 0,
        "slot": "104",
        "type": "t_uint64"
      }
    ],
    "types": {
      "t_address": {
        "encoding": "inplace",
        "label": "address",
        "numberOfBytes": "20"
      },
      "t_array(t_uint256)49_storage": {
        "encoding": "inplace",
        "label": "uint256[49]",
        "numberOfBytes": "1568",
        "base": "t_uint256"
      },
      "t_array(t_uint256)50_storage": {
        "encoding": "inplace",
        "label": "uint256[50]",
        "numberOfBytes": "1600",
        "base": "t_uint256"
      },
      "t_bool": {
        "encoding": "inplace",
        "label": "bool",
        "numberOfBytes": "1"
      },
      "t_bytes32": {
        "encoding": "inplace",
        "label": "bytes32",
        "numberOfBytes": "32"
      },
      "t_uint256": {
        "encoding": "inplace",
        "label": "uint256",
        "numberOfBytes": "32"
      },
      "t_uint64": {
        "encoding": "inplace",
        "label": "uint64",
        "numberOfBytes": "8"
      },
      "t_uint8": {
        "encoding": "inplace",
        "label": "uint8",
        "numberOfBytes": "1"
      }
    }
  }
}