{
  "address": "0x288a2941681C3b6A0F83bd1566383cA726Cb233f",
  "abi": [
    {
      "inputs": [
        {
          "internalType": "contract OptimismPortal",
          "name": "_portal",
          "type": "address"
        }
      ],
      "stateMutability": "nonpayable",
      "type": "constructor"
    },
    {
      "anonymous": false,
      "inputs": [
        {
          "indexed": true,
          "internalType": "bytes32",
          "name": "msgHash",
          "type": "bytes32"
        }
      ],
      "name": "FailedRelayedMessage",
      "type": "event"
    },
    {
      "anonymous": false,
      "inputs": [
        {
          "indexed": false,
          "internalType": "uint8",
          "name": "version",
          "type": "uint8"
        }
      ],
      "name": "Initialized",
      "type": "event"
    },
    {
      "anonymous": false,
      "inputs": [
        {
          "indexed": true,
          "internalType": "address",
          "name": "previousOwner",
          "type": "address"
        },
        {
          "indexed": true,
          "internalType": "address",
          "name": "newOwner",
          "type": "address"
        }
      ],
      "name": "OwnershipTransferred",
      "type": "event"
    },
    {
      "anonymous": false,
      "inputs": [
        {
          "indexed": false,
          "internalType": "address",
          "name": "account",
          "type": "address"
        }
      ],
      "name": "Paused",
      "type": "event"
    },
    {
      "anonymous": false,
      "inputs": [
        {
          "indexed": true,
          "internalType": "bytes32",
          "name": "msgHash",
          "type": "bytes32"
        }
      ],
      "name": "RelayedMessage",
      "type": "event"
    },
    {
      "anonymous": false,
      "inputs": [
        {
          "indexed": true,
          "internalType": "address",
          "name": "target",
          "type": "address"
        },
        {
          "indexed": false,
          "internalType": "address",
          "name": "sender",
          "type": "address"
        },
        {
          "indexed": false,
          "internalType": "bytes",
          "name": "message",
          "type": "bytes"
        },
        {
          "indexed": false,
          "internalType": "uint256",
          "name": "messageNonce",
          "type": "uint256"
        },
        {
          "indexed": false,
          "internalType": "uint256",
          "name": "gasLimit",
          "type": "uint256"
        }
      ],
      "name": "SentMessage",
      "type": "event"
    },
    {
      "anonymous": false,
      "inputs": [
        {
          "indexed": true,
          "internalType": "address",
          "name": "sender",
          "type": "address"
        },
        {
          "indexed": false,
          "internalType": "uint256",
          "name": "value",
          "type": "uint256"
        }
      ],
      "name": "SentMessageExtension1",
      "type": "event"
    },
    {
      "anonymous": false,
      "inputs": [
        {
          "indexed": false,
          "internalType": "address",
          "name": "account",
          "type": "address"
        }
      ],
      "name": "Unpaused",
      "type": "event"
    },
    {
      "inputs": [],
      "name": "MESSAGE_VERSION",
      "outputs": [
        {
          "internalType": "uint16",
          "name": "",
          "type": "uint16"
        }
      ],
      "stateMutability": "view",
      "type": "function"
    },
    {
      "inputs": [],
      "name": "MIN_GAS_CALLDATA_OVERHEAD",
      "outputs": [
        {
          "internalType": "uint64",
          "name": "",
          "type": "uint64"
        }
      ],
      "stateMutability": "view",
      "type": "function"
    },
    {
      "inputs": [],
      "name": "MIN_GAS_CONSTANT_OVERHEAD",
      "outputs": [
        {
          "internalType": "uint64",
          "name": "",
          "type": "uint64"
        }
      ],
      "stateMutability": "view",
      "type": "function"
    },
    {
      "inputs": [],
      "name": "MIN_GAS_DYNAMIC_OVERHEAD_DENOMINATOR",
      "outputs": [
        {
          "internalType": "uint64",
          "name": "",
          "type": "uint64"
        }
      ],
      "stateMutability": "view",
      "type": "function"
    },
    {
      "inputs": [],
      "name": "MIN_GAS_DYNAMIC_OVERHEAD_NUMERATOR",
      "outputs": [
        {
          "internalType": "uint64",
          "name": "",
          "type": "uint64"
        }
      ],
      "stateMutability": "view",
      "type": "function"
    },
    {
      "inputs": [],
      "name": "OTHER_MESSENGER",
      "outputs": [
        {
          "internalType": "address",
          "name": "",
          "type": "address"
        }
      ],
      "stateMutability": "view",
      "type": "function"
    },
    {
      "inputs": [],
      "name": "PORTAL",
      "outputs": [
        {
          "internalType": "contract OptimismPortal",
          "name": "",
          "type": "address"
        }
      ],
      "stateMutability": "view",
      "type": "function"
    },
    {
      "inputs": [
        {
          "internalType": "bytes",
          "name": "_message",
          "type": "bytes"
        },
        {
          "internalType": "uint32",
          "name": "_minGasLimit",
          "type": "uint32"
        }
      ],
      "name": "baseGas",
      "outputs": [
        {
          "internalType": "uint64",
          "name": "",
          "type": "uint64"
        }
      ],
      "stateMutability": "pure",
      "type": "function"
    },
    {
      "inputs": [
        {
          "internalType": "address",
          "name": "_owner",
          "type": "address"
        }
      ],
      "name": "initialize",
      "outputs": [],
      "stateMutability": "nonpayable",
      "type": "function"
    },
    {
      "inputs": [],
      "name": "messageNonce",
      "outputs": [
        {
          "internalType": "uint256",
          "name": "",
          "type": "uint256"
        }
      ],
      "stateMutability": "view",
      "type": "function"
    },
    {
      "inputs": [],
      "name": "owner",
      "outputs": [
        {
          "internalType": "address",
          "name": "",
          "type": "address"
        }
      ],
      "stateMutability": "view",
      "type": "function"
    },
    {
      "inputs": [],
      "name": "pause",
      "outputs": [],
      "stateMutability": "nonpayable",
      "type": "function"
    },
    {
      "inputs": [],
      "name": "paused",
      "outputs": [
        {
          "internalType": "bool",
          "name": "",
          "type": "bool"
        }
      ],
      "stateMutability": "view",
      "type": "function"
    },
    {
      "inputs": [
        {
          "internalType": "bytes32",
          "name": "",
          "type": "bytes32"
        }
      ],
      "name": "receivedMessages",
      "outputs": [
        {
          "internalType": "bool",
          "name": "",
          "type": "bool"
        }
      ],
      "stateMutability": "view",
      "type": "function"
    },
    {
      "inputs": [
        {
          "internalType": "uint256",
          "name": "_nonce",
          "type": "uint256"
        },
        {
          "internalType": "address",
          "name": "_sender",
          "type": "address"
        },
        {
          "internalType": "address",
          "name": "_target",
          "type": "address"
        },
        {
          "internalType": "uint256",
          "name": "_value",
          "type": "uint256"
        },
        {
          "internalType": "uint256",
          "name": "_minGasLimit",
          "type": "uint256"
        },
        {
          "internalType": "bytes",
          "name": "_message",
          "type": "bytes"
        }
      ],
      "name": "relayMessage",
      "outputs": [],
      "stateMutability": "payable",
      "type": "function"
    },
    {
      "inputs": [],
      "name": "renounceOwnership",
      "outputs": [],
      "stateMutability": "nonpayable",
      "type": "function"
    },
    {
      "inputs": [
        {
          "internalType": "address",
          "name": "_target",
          "type": "address"
        },
        {
          "internalType": "bytes",
          "name": "_message",
          "type": "bytes"
        },
        {
          "internalType": "uint32",
          "name": "_minGasLimit",
          "type": "uint32"
        }
      ],
      "name": "sendMessage",
      "outputs": [],
      "stateMutability": "payable",
      "type": "function"
    },
    {
      "inputs": [
        {
          "internalType": "bytes32",
          "name": "",
          "type": "bytes32"
        }
      ],
      "name": "successfulMessages",
      "outputs": [
        {
          "internalType": "bool",
          "name": "",
          "type": "bool"
        }
      ],
      "stateMutability": "view",
      "type": "function"
    },
    {
      "inputs": [
        {
          "internalType": "address",
          "name": "newOwner",
          "type": "address"
        }
      ],
      "name": "transferOwnership",
      "outputs": [],
      "stateMutability": "nonpayable",
      "type": "function"
    },
    {
      "inputs": [],
      "name": "unpause",
      "outputs": [],
      "stateMutability": "nonpayable",
      "type": "function"
    },
    {
      "inputs": [],
      "name": "version",
      "outputs": [
        {
          "internalType": "string",
          "name": "",
          "type": "string"
        }
      ],
      "stateMutability": "view",
      "type": "function"
    },
    {
      "inputs": [],
      "name": "xDomainMessageSender",
      "outputs": [
        {
          "internalType": "address",
          "name": "",
          "type": "address"
        }
      ],
      "stateMutability": "view",
      "type": "function"
    }
  ],
  "transactionHash": "0x87a8d0a106d6691f41424fd1a63c036ade422a884f4fc30c62f605cbb3c13297",
  "args": [
    "0x7Db2f4b1F880257a99e024647CeaD4e3aD63b665"
  ],
  "numDeployments": 1,
  "solcInputHash": "8d0d136650052d9379ff0b2b1338ea87",
  "bytecode": "0x6101206040523480156200001257600080fd5b5060405162002a4538038062002a4583398101604081905262000035916200046a565b734200000000000000000000000000000000000007608052600160a052600060c081905260e08190526001600160a01b0382166101005262000077906200007e565b506200049c565b600054600160a81b900460ff1615808015620000a757506000546001600160a01b90910460ff16105b80620000de5750620000c430620001d760201b620013461760201c565b158015620000de5750600054600160a01b900460ff166001145b620001475760405162461bcd60e51b815260206004820152602e60248201527f496e697469616c697a61626c653a20636f6e747261637420697320616c72656160448201526d191e481a5b9a5d1a585b1a5e995960921b60648201526084015b60405180910390fd5b6000805460ff60a01b1916600160a01b179055801562000175576000805460ff60a81b1916600160a81b1790555b6200017f620001e6565b6200018a8262000282565b8015620001d3576000805460ff60a81b19169055604051600181527f7f26b83ff96e1f2b6a682f133852f6798a09c465da95921460cefb38474024989060200160405180910390a15b5050565b6001600160a01b03163b151590565b600054600160a81b900460ff16620002445760405162461bcd60e51b815260206004820152602b602482015260008051602062002a2583398151915260448201526a6e697469616c697a696e6760a81b60648201526084016200013e565b60cc80546001600160a01b03191661dead17905562000262620002d4565b6200026c62000332565b620002766200039b565b6200028062000405565b565b603380546001600160a01b038381166001600160a01b0319831681179093556040519116919082907f8be0079c531659141344cd1fd0a4f28419497f9722a3daafe3b4186f6b6457e090600090a35050565b600054600160a81b900460ff16620002805760405162461bcd60e51b815260206004820152602b602482015260008051602062002a2583398151915260448201526a6e697469616c697a696e6760a81b60648201526084016200013e565b600054600160a81b900460ff16620003905760405162461bcd60e51b815260206004820152602b602482015260008051602062002a2583398151915260448201526a6e697469616c697a696e6760a81b60648201526084016200013e565b620002803362000282565b600054600160a81b900460ff16620003f95760405162461bcd60e51b815260206004820152602b602482015260008051602062002a2583398151915260448201526a6e697469616c697a696e6760a81b60648201526084016200013e565b6065805460ff19169055565b600054600160a81b900460ff16620004635760405162461bcd60e51b815260206004820152602b602482015260008051602062002a2583398151915260448201526a6e697469616c697a696e6760a81b60648201526084016200013e565b6001609755565b6000602082840312156200047d57600080fd5b81516001600160a01b03811681146200049557600080fd5b9392505050565b60805160a05160c05160e0516101005161251a6200050b600039600081816101d50152818161139f015281816118bd0152818161191e01526119ea015260006107860152600061075d0152600061073401526000818161035d015281816104bc01526118e7015261251a6000f3fe6080604052600436106101755760003560e01c80637dea7cc3116100cb578063b28ade251161007f578063ecc7042811610059578063ecc7042814610402578063f2fde38b14610467578063f69f81511461048757600080fd5b8063b28ade25146103af578063c4d66de8146103cf578063d764ad0b146103ef57600080fd5b80638da5cb5b116100b05780638da5cb5b146103205780639fce812c1461034b578063b1b1b2091461037f57600080fd5b80637dea7cc3146102f45780638456cb591461030b57600080fd5b80633f4ba83a1161012d5780635c975abb116101075780635c975abb146102a65780636e296e45146102ca578063715018a6146102df57600080fd5b80633f4ba83a146102475780633f827a5a1461025c57806354fd4d501461028457600080fd5b80630ff754ea1161015e5780630ff754ea146101c35780632828d7e81461021c5780633dbb202b1461023257600080fd5b8063028f85f71461017a5780630c568498146101ad575b600080fd5b34801561018657600080fd5b5061018f601081565b60405167ffffffffffffffff90911681526020015b60405180910390f35b3480156101b957600080fd5b5061018f6103e881565b3480156101cf57600080fd5b506101f77f000000000000000000000000000000000000000000000000000000000000000081565b60405173ffffffffffffffffffffffffffffffffffffffff90911681526020016101a4565b34801561022857600080fd5b5061018f6103f881565b610245610240366004611ecd565b6104b7565b005b34801561025357600080fd5b5061024561071b565b34801561026857600080fd5b50610271600181565b60405161ffff90911681526020016101a4565b34801561029057600080fd5b5061029961072d565b6040516101a49190611fae565b3480156102b257600080fd5b5060655460ff165b60405190151581526020016101a4565b3480156102d657600080fd5b506101f76107d0565b3480156102eb57600080fd5b506102456108bc565b34801561030057600080fd5b5061018f62030d4081565b34801561031757600080fd5b506102456108ce565b34801561032c57600080fd5b5060335473ffffffffffffffffffffffffffffffffffffffff166101f7565b34801561035757600080fd5b506101f77f000000000000000000000000000000000000000000000000000000000000000081565b34801561038b57600080fd5b506102ba61039a366004611fc8565b60cb6020526000908152604090205460ff1681565b3480156103bb57600080fd5b5061018f6103ca366004611fe1565b6108de565b3480156103db57600080fd5b506102456103ea366004612035565b61092a565b6102456103fd366004612052565b610b31565b34801561040e57600080fd5b5061045960cd547dffffffffffffffffffffffffffffffffffffffffffffffffffffffffffff167e010000000000000000000000000000000000000000000000000000000000001790565b6040519081526020016101a4565b34801561047357600080fd5b50610245610482366004612035565b61128f565b34801561049357600080fd5b506102ba6104a2366004611fc8565b60ce6020526000908152604090205460ff1681565b6105f07f00000000000000000000000000000000000000000000000000000000000000006104e68585856108de565b347fd764ad0b0000000000000000000000000000000000000000000000000000000061055260cd547dffffffffffffffffffffffffffffffffffffffffffffffffffffffffffff167e010000000000000000000000000000000000000000000000000000000000001790565b338a34898c8c60405160240161056e9796959493929190612121565b604080517fffffffffffffffffffffffffffffffffffffffffffffffffffffffffffffffe08184030181529190526020810180517bffffffffffffffffffffffffffffffffffffffffffffffffffffffff167fffffffff0000000000000000000000000000000000000000000000000000000090931692909217909152611362565b8373ffffffffffffffffffffffffffffffffffffffff167fcb0f7ffd78f9aee47a248fae8db181db6eee833039123e026dcbff529522e52a33858561067560cd547dffffffffffffffffffffffffffffffffffffffffffffffffffffffffffff167e010000000000000000000000000000000000000000000000000000000000001790565b86604051610687959493929190612180565b60405180910390a260405134815233907f8ebb2ec2465bdb2a06a66fc37a0963af8a2a6a1479d81d56fdb8cbb98096d5469060200160405180910390a2505060cd80547dffffffffffffffffffffffffffffffffffffffffffffffffffffffffffff808216600101167fffff0000000000000000000000000000000000000000000000000000000000009091161790555050565b610723611417565b61072b611498565b565b60606107587f0000000000000000000000000000000000000000000000000000000000000000611515565b6107817f0000000000000000000000000000000000000000000000000000000000000000611515565b6107aa7f0000000000000000000000000000000000000000000000000000000000000000611515565b6040516020016107bc939291906121ce565b604051602081830303815290604052905090565b60cc5460009073ffffffffffffffffffffffffffffffffffffffff167fffffffffffffffffffffffffffffffffffffffffffffffffffffffffffff21530161089f576040517f08c379a000000000000000000000000000000000000000000000000000000000815260206004820152603560248201527f43726f7373446f6d61696e4d657373656e6765723a2078446f6d61696e4d657360448201527f7361676553656e646572206973206e6f7420736574000000000000000000000060648201526084015b60405180910390fd5b5060cc5473ffffffffffffffffffffffffffffffffffffffff1690565b6108c4611417565b61072b600061164a565b6108d6611417565b61072b6116c1565b600062030d406108ef601085612273565b6103e86109046103f863ffffffff8716612273565b61090e91906122d2565b61091891906122f9565b61092291906122f9565b949350505050565b6000547501000000000000000000000000000000000000000000900460ff1615808015610975575060005460017401000000000000000000000000000000000000000090910460ff16105b806109a75750303b1580156109a7575060005474010000000000000000000000000000000000000000900460ff166001145b610a33576040517f08c379a000000000000000000000000000000000000000000000000000000000815260206004820152602e60248201527f496e697469616c697a61626c653a20636f6e747261637420697320616c72656160448201527f647920696e697469616c697a65640000000000000000000000000000000000006064820152608401610896565b600080547fffffffffffffffffffffff00ffffffffffffffffffffffffffffffffffffffff16740100000000000000000000000000000000000000001790558015610ab957600080547fffffffffffffffffffff00ffffffffffffffffffffffffffffffffffffffffff1675010000000000000000000000000000000000000000001790555b610ac161171c565b610aca8261164a565b8015610b2d57600080547fffffffffffffffffffff00ffffffffffffffffffffffffffffffffffffffffff169055604051600181527f7f26b83ff96e1f2b6a682f133852f6798a09c465da95921460cefb38474024989060200160405180910390a15b5050565b600260975403610b9d576040517f08c379a000000000000000000000000000000000000000000000000000000000815260206004820152601f60248201527f5265656e7472616e637947756172643a207265656e7472616e742063616c6c006044820152606401610896565b6002609755610baa611813565b60f087901c60018114610c65576040517f08c379a000000000000000000000000000000000000000000000000000000000815260206004820152605560248201527f43726f7373446f6d61696e4d657373656e6765723a206f6e6c7920766572736960448201527f6f6e2031206d657373616765732061726520737570706f72746564206166746560648201527f722074686520426564726f636b20757067726164650000000000000000000000608482015260a401610896565b6000610cab898989898989898080601f01602080910402602001604051908101604052809392919081815260200183838082843760009201919091525061188092505050565b9050610cb56118a3565b15610ced57853414610cc957610cc9612325565b600081815260ce602052604090205460ff1615610ce857610ce8612325565b610e3f565b3415610da1576040517f08c379a000000000000000000000000000000000000000000000000000000000815260206004820152605060248201527f43726f7373446f6d61696e4d657373656e6765723a2076616c7565206d75737460448201527f206265207a65726f20756e6c657373206d6573736167652069732066726f6d2060648201527f612073797374656d206164647265737300000000000000000000000000000000608482015260a401610896565b600081815260ce602052604090205460ff16610e3f576040517f08c379a000000000000000000000000000000000000000000000000000000000815260206004820152603060248201527f43726f7373446f6d61696e4d657373656e6765723a206d65737361676520636160448201527f6e6e6f74206265207265706c61796564000000000000000000000000000000006064820152608401610896565b610e48876119c7565b15610efb576040517f08c379a000000000000000000000000000000000000000000000000000000000815260206004820152604360248201527f43726f7373446f6d61696e4d657373656e6765723a2063616e6e6f742073656e60448201527f64206d65737361676520746f20626c6f636b65642073797374656d206164647260648201527f6573730000000000000000000000000000000000000000000000000000000000608482015260a401610896565b600081815260cb602052604090205460ff1615610f9a576040517f08c379a000000000000000000000000000000000000000000000000000000000815260206004820152603660248201527f43726f7373446f6d61696e4d657373656e6765723a206d65737361676520686160448201527f7320616c7265616479206265656e2072656c61796564000000000000000000006064820152608401610896565b610fa661afc886612354565b5a1015611035576040517f08c379a000000000000000000000000000000000000000000000000000000000815260206004820152603760248201527f43726f7373446f6d61696e4d657373656e6765723a20696e737566666963696560448201527f6e742067617320746f2072656c6179206d6573736167650000000000000000006064820152608401610896565b60cc80547fffffffffffffffffffffffff00000000000000000000000000000000000000001673ffffffffffffffffffffffffffffffffffffffff8a1617905560006110d18861108961138861afc861236c565b5a611094919061236c565b8988888080601f016020809104026020016040519081016040528093929190818152602001838380828437600092019190915250611a3e92505050565b60cc80547fffffffffffffffffffffffff00000000000000000000000000000000000000001661dead179055905080151560010361116c57600082815260cb602052604080822080547fffffffffffffffffffffffffffffffffffffffffffffffffffffffffffffff001660011790555183917f4641df4a962071e12719d8c8c8e5ac7fc4d97b927346a3d7a335b1f7517e133c91a2611279565b600082815260ce602052604080822080547fffffffffffffffffffffffffffffffffffffffffffffffffffffffffffffff001660011790555183917f99d0e048484baa1b1540b1367cb128acd7ab2946d1ed91ec10e3c85e4bf51b8f91a27fffffffffffffffffffffffffffffffffffffffffffffffffffffffffffffffff3201611279576040517f08c379a000000000000000000000000000000000000000000000000000000000815260206004820152602d60248201527f43726f7373446f6d61696e4d657373656e6765723a206661696c656420746f2060448201527f72656c6179206d657373616765000000000000000000000000000000000000006064820152608401610896565b505060016097555050505050505050565b905090565b611297611417565b73ffffffffffffffffffffffffffffffffffffffff811661133a576040517f08c379a000000000000000000000000000000000000000000000000000000000815260206004820152602660248201527f4f776e61626c653a206e6577206f776e657220697320746865207a65726f206160448201527f64647265737300000000000000000000000000000000000000000000000000006064820152608401610896565b6113438161164a565b50565b73ffffffffffffffffffffffffffffffffffffffff163b151590565b6040517fe9e05c4200000000000000000000000000000000000000000000000000000000815273ffffffffffffffffffffffffffffffffffffffff7f0000000000000000000000000000000000000000000000000000000000000000169063e9e05c429084906113df908890839089906000908990600401612383565b6000604051808303818588803b1580156113f857600080fd5b505af115801561140c573d6000803e3d6000fd5b505050505050505050565b60335473ffffffffffffffffffffffffffffffffffffffff16331461072b576040517f08c379a000000000000000000000000000000000000000000000000000000000815260206004820181905260248201527f4f776e61626c653a2063616c6c6572206973206e6f7420746865206f776e65726044820152606401610896565b6114a0611a58565b606580547fffffffffffffffffffffffffffffffffffffffffffffffffffffffffffffff001690557f5db9ee0a495bf2e6ff9c91a7834c1ba4fdd244a5e8aa4e537bd38aeae4b073aa335b60405173ffffffffffffffffffffffffffffffffffffffff909116815260200160405180910390a1565b60608160000361155857505060408051808201909152600181527f3000000000000000000000000000000000000000000000000000000000000000602082015290565b8160005b8115611582578061156c816123db565b915061157b9050600a83612413565b915061155c565b60008167ffffffffffffffff81111561159d5761159d612427565b6040519080825280601f01601f1916602001820160405280156115c7576020820181803683370190505b5090505b8415610922576115dc60018361236c565b91506115e9600a86612456565b6115f4906030612354565b60f81b8183815181106116095761160961246a565b60200101907effffffffffffffffffffffffffffffffffffffffffffffffffffffffffffff1916908160001a905350611643600a86612413565b94506115cb565b6033805473ffffffffffffffffffffffffffffffffffffffff8381167fffffffffffffffffffffffff0000000000000000000000000000000000000000831681179093556040519116919082907f8be0079c531659141344cd1fd0a4f28419497f9722a3daafe3b4186f6b6457e090600090a35050565b6116c9611813565b606580547fffffffffffffffffffffffffffffffffffffffffffffffffffffffffffffff001660011790557f62e78cea01bee320cd4e420270b5ea74000d11b0c9f74754ebdbfc544b05a2586114eb3390565b6000547501000000000000000000000000000000000000000000900460ff166117c7576040517f08c379a000000000000000000000000000000000000000000000000000000000815260206004820152602b60248201527f496e697469616c697a61626c653a20636f6e7472616374206973206e6f74206960448201527f6e697469616c697a696e670000000000000000000000000000000000000000006064820152608401610896565b60cc80547fffffffffffffffffffffffff00000000000000000000000000000000000000001661dead1790556117fb611ac4565b611803611b6f565b61180b611c23565b61072b611cf8565b60655460ff161561072b576040517f08c379a000000000000000000000000000000000000000000000000000000000815260206004820152601060248201527f5061757361626c653a20706175736564000000000000000000000000000000006044820152606401610896565b6000611890878787878787611daa565b8051906020012090509695505050505050565b60003373ffffffffffffffffffffffffffffffffffffffff7f00000000000000000000000000000000000000000000000000000000000000001614801561128a57507f000000000000000000000000000000000000000000000000000000000000000073ffffffffffffffffffffffffffffffffffffffff167f000000000000000000000000000000000000000000000000000000000000000073ffffffffffffffffffffffffffffffffffffffff16639bf62d826040518163ffffffff1660e01b8152600401602060405180830381865afa158015611987573d6000803e3d6000fd5b505050506040513d601f19601f820116820180604052508101906119ab9190612499565b73ffffffffffffffffffffffffffffffffffffffff1614905090565b600073ffffffffffffffffffffffffffffffffffffffff8216301480611a3857507f000000000000000000000000000000000000000000000000000000000000000073ffffffffffffffffffffffffffffffffffffffff168273ffffffffffffffffffffffffffffffffffffffff16145b92915050565b600080600080845160208601878a8af19695505050505050565b60655460ff1661072b576040517f08c379a000000000000000000000000000000000000000000000000000000000815260206004820152601460248201527f5061757361626c653a206e6f74207061757365640000000000000000000000006044820152606401610896565b6000547501000000000000000000000000000000000000000000900460ff1661072b576040517f08c379a000000000000000000000000000000000000000000000000000000000815260206004820152602b60248201527f496e697469616c697a61626c653a20636f6e7472616374206973206e6f74206960448201527f6e697469616c697a696e670000000000000000000000000000000000000000006064820152608401610896565b6000547501000000000000000000000000000000000000000000900460ff16611c1a576040517f08c379a000000000000000000000000000000000000000000000000000000000815260206004820152602b60248201527f496e697469616c697a61626c653a20636f6e7472616374206973206e6f74206960448201527f6e697469616c697a696e670000000000000000000000000000000000000000006064820152608401610896565b61072b3361164a565b6000547501000000000000000000000000000000000000000000900460ff16611cce576040517f08c379a000000000000000000000000000000000000000000000000000000000815260206004820152602b60248201527f496e697469616c697a61626c653a20636f6e7472616374206973206e6f74206960448201527f6e697469616c697a696e670000000000000000000000000000000000000000006064820152608401610896565b606580547fffffffffffffffffffffffffffffffffffffffffffffffffffffffffffffff00169055565b6000547501000000000000000000000000000000000000000000900460ff16611da3576040517f08c379a000000000000000000000000000000000000000000000000000000000815260206004820152602b60248201527f496e697469616c697a61626c653a20636f6e7472616374206973206e6f74206960448201527f6e697469616c697a696e670000000000000000000000000000000000000000006064820152608401610896565b6001609755565b6060868686868686604051602401611dc7969594939291906124b6565b604080517fffffffffffffffffffffffffffffffffffffffffffffffffffffffffffffffe08184030181529190526020810180517bffffffffffffffffffffffffffffffffffffffffffffffffffffffff167fd764ad0b0000000000000000000000000000000000000000000000000000000017905290509695505050505050565b73ffffffffffffffffffffffffffffffffffffffff8116811461134357600080fd5b60008083601f840112611e7d57600080fd5b50813567ffffffffffffffff811115611e9557600080fd5b602083019150836020828501011115611ead57600080fd5b9250929050565b803563ffffffff81168114611ec857600080fd5b919050565b60008060008060608587031215611ee357600080fd5b8435611eee81611e49565b9350602085013567ffffffffffffffff811115611f0a57600080fd5b611f1687828801611e6b565b9094509250611f29905060408601611eb4565b905092959194509250565b60005b83811015611f4f578181015183820152602001611f37565b83811115611f5e576000848401525b50505050565b60008151808452611f7c816020860160208601611f34565b601f017fffffffffffffffffffffffffffffffffffffffffffffffffffffffffffffffe0169290920160200192915050565b602081526000611fc16020830184611f64565b9392505050565b600060208284031215611fda57600080fd5b5035919050565b600080600060408486031215611ff657600080fd5b833567ffffffffffffffff81111561200d57600080fd5b61201986828701611e6b565b909450925061202c905060208501611eb4565b90509250925092565b60006020828403121561204757600080fd5b8135611fc181611e49565b600080600080600080600060c0888a03121561206d57600080fd5b87359650602088013561207f81611e49565b9550604088013561208f81611e49565b9450606088013593506080880135925060a088013567ffffffffffffffff8111156120b957600080fd5b6120c58a828b01611e6b565b989b979a50959850939692959293505050565b8183528181602085013750600060208284010152600060207fffffffffffffffffffffffffffffffffffffffffffffffffffffffffffffffe0601f840116840101905092915050565b878152600073ffffffffffffffffffffffffffffffffffffffff808916602084015280881660408401525085606083015263ffffffff8516608083015260c060a083015261217360c0830184866120d8565b9998505050505050505050565b73ffffffffffffffffffffffffffffffffffffffff861681526080602082015260006121b06080830186886120d8565b905083604083015263ffffffff831660608301529695505050505050565b600084516121e0818460208901611f34565b80830190507f2e00000000000000000000000000000000000000000000000000000000000000808252855161221c816001850160208a01611f34565b60019201918201528351612237816002840160208801611f34565b0160020195945050505050565b7f4e487b7100000000000000000000000000000000000000000000000000000000600052601160045260246000fd5b600067ffffffffffffffff8083168185168183048111821515161561229a5761229a612244565b02949350505050565b7f4e487b7100000000000000000000000000000000000000000000000000000000600052601260045260246000fd5b600067ffffffffffffffff808416806122ed576122ed6122a3565b92169190910492915050565b600067ffffffffffffffff80831681851680830382111561231c5761231c612244565b01949350505050565b7f4e487b7100000000000000000000000000000000000000000000000000000000600052600160045260246000fd5b6000821982111561236757612367612244565b500190565b60008282101561237e5761237e612244565b500390565b73ffffffffffffffffffffffffffffffffffffffff8616815284602082015267ffffffffffffffff84166040820152821515606082015260a0608082015260006123d060a0830184611f64565b979650505050505050565b60007fffffffffffffffffffffffffffffffffffffffffffffffffffffffffffffffff820361240c5761240c612244565b5060010190565b600082612422576124226122a3565b500490565b7f4e487b7100000000000000000000000000000000000000000000000000000000600052604160045260246000fd5b600082612465576124656122a3565b500690565b7f4e487b7100000000000000000000000000000000000000000000000000000000600052603260045260246000fd5b6000602082840312156124ab57600080fd5b8151611fc181611e49565b868152600073ffffffffffffffffffffffffffffffffffffffff808816602084015280871660408401525084606083015283608083015260c060a083015261250160c0830184611f64565b9897505050505050505056fea164736f6c634300080f000a496e697469616c697a61626c653a20636f6e7472616374206973206e6f742069",
  "devdoc": {
    "version": 1,
    "kind": "dev",
    "methods": {
      "baseGas(bytes,uint32)": {
        "params": {
          "_message": "Message to compute the amount of required gas for.",
          "_minGasLimit": "Minimum desired gas limit when message goes to target."
        },
        "returns": {
          "_0": "Amount of gas required to guarantee message receipt."
        }
      },
      "constructor": {
        "params": {
          "_portal": "Address of the OptimismPortal contract on this network."
        }
      },
      "initialize(address)": {
        "params": {
          "_owner": "Address of the initial owner of this contract."
        }
      },
      "messageNonce()": {
        "returns": {
          "_0": "Nonce of the next message to be sent, with added message version."
        }
      },
      "owner()": {
        "details": "Returns the address of the current owner."
      },
      "paused()": {
        "details": "Returns true if the contract is paused, and false otherwise."
      },
      "relayMessage(uint256,address,address,uint256,uint256,bytes)": {
        "params": {
          "_message": "Message to send to the target.",
          "_minGasLimit": "Minimum amount of gas that the message can be executed with.",
          "_nonce": "Nonce of the message being relayed.",
          "_sender": "Address of the user who sent the message.",
          "_target": "Address that the message is targeted at.",
          "_value": "ETH value to send with the message."
        }
      },
      "renounceOwnership()": {
        "details": "Leaves the contract without owner. It will not be possible to call `onlyOwner` functions anymore. Can only be called by the current owner. NOTE: Renouncing ownership will leave the contract without an owner, thereby removing any functionality that is only available to the owner."
      },
      "sendMessage(address,bytes,uint32)": {
        "params": {
          "_message": "Message to trigger the target address with.",
          "_minGasLimit": "Minimum gas limit that the message can be executed with.",
          "_target": "Target contract or wallet address."
        }
      },
      "transferOwnership(address)": {
        "details": "Transfers ownership of the contract to a new account (`newOwner`). Can only be called by the current owner."
      },
      "version()": {
        "returns": {
          "_0": "Semver contract version as a string."
        }
      },
      "xDomainMessageSender()": {
        "returns": {
          "_0": "Address of the sender of the currently executing message on the other chain."
        }
      }
    }
  },
  "userdoc": {
    "version": 1,
    "kind": "user",
    "methods": {
      "MESSAGE_VERSION()": {
        "notice": "Current message version identifier."
      },
      "MIN_GAS_CALLDATA_OVERHEAD()": {
        "notice": "Extra gas added to base gas for each byte of calldata in a message."
      },
      "MIN_GAS_CONSTANT_OVERHEAD()": {
        "notice": "Constant overhead added to the base gas for a message."
      },
      "MIN_GAS_DYNAMIC_OVERHEAD_DENOMINATOR()": {
        "notice": "Denominator for dynamic overhead added to the base gas for a message."
      },
      "MIN_GAS_DYNAMIC_OVERHEAD_NUMERATOR()": {
        "notice": "Numerator for dynamic overhead added to the base gas for a message."
      },
      "OTHER_MESSENGER()": {
        "notice": "Address of the paired CrossDomainMessenger contract on the other chain."
      },
      "PORTAL()": {
        "notice": "Address of the OptimismPortal."
      },
      "baseGas(bytes,uint32)": {
        "notice": "Computes the amount of gas required to guarantee that a given message will be         received on the other chain without running out of gas. Guaranteeing that a message         will not run out of gas is important because this ensures that a message can always         be replayed on the other chain if it fails to execute completely."
      },
      "initialize(address)": {
        "notice": "Initializer."
      },
      "messageNonce()": {
        "notice": "Retrieves the next message nonce. Message version will be added to the upper two         bytes of the message nonce. Message version allows us to treat messages as having         different structures."
      },
      "pause()": {
        "notice": "Allows the owner of this contract to temporarily pause message relaying. Backup         security mechanism just in case. Owner should be the same as the upgrade wallet to         maintain the security model of the system as a whole."
      },
      "receivedMessages(bytes32)": {
        "notice": "Mapping of message hashes to boolean receipt values. Note that a message will only         be present in this mapping if it failed to be relayed on this chain at least once.         If a message is successfully relayed on the first attempt, then it will only be         present within the successfulMessages mapping."
      },
      "relayMessage(uint256,address,address,uint256,uint256,bytes)": {
        "notice": "Relays a message that was sent by the other CrossDomainMessenger contract. Can only         be executed via cross-chain call from the other messenger OR if the message was         already received once and is currently being replayed."
      },
      "sendMessage(address,bytes,uint32)": {
        "notice": "Sends a message to some target address on the other chain. Note that if the call         always reverts, then the message will be unrelayable, and any ETH sent will be         permanently locked. The same will occur if the target on the other chain is         considered unsafe (see the _isUnsafeTarget() function)."
      },
      "successfulMessages(bytes32)": {
        "notice": "Mapping of message hashes to boolean receipt values. Note that a message will only         be present in this mapping if it has successfully been relayed on this chain, and         can therefore not be relayed again."
      },
      "unpause()": {
        "notice": "Allows the owner of this contract to resume message relaying once paused."
      },
      "version()": {
        "notice": "Returns the full semver contract version."
      },
      "xDomainMessageSender()": {
        "notice": "Retrieves the address of the contract or wallet that initiated the currently         executing message on the other chain. Will throw an error if there is no message         currently being executed. Allows the recipient of a call to see who triggered it."
      }
    },
    "events": {
      "FailedRelayedMessage(bytes32)": {
        "notice": "Emitted whenever a message fails to be relayed on this chain."
      },
      "RelayedMessage(bytes32)": {
        "notice": "Emitted whenever a message is successfully relayed on this chain."
      },
      "SentMessage(address,address,bytes,uint256,uint256)": {
        "notice": "Emitted whenever a message is sent to the other chain."
      },
      "SentMessageExtension1(address,uint256)": {
        "notice": "Additional event data to emit, required as of Bedrock. Cannot be merged with the         SentMessage event without breaking the ABI of this contract, this is good enough."
      }
    },
    "notice": "The L1CrossDomainMessenger is a message passing interface between L1 and L2 responsible         for sending and receiving data on the L1 side. Users are encouraged to use this         interface instead of interacting with lower-level contracts directly."
  },
  "storageLayout": {
    "storage": [
      {
        "astId": 34712,
        "contract": "contracts/L1/L1CrossDomainMessenger.sol:L1CrossDomainMessenger",
        "label": "spacer_0_0_20",
        "offset": 0,
        "slot": "0",
        "type": "t_address"
      },
      {
        "astId": 37941,
        "contract": "contracts/L1/L1CrossDomainMessenger.sol:L1CrossDomainMessenger",
        "label": "_initialized",
        "offset": 20,
        "slot": "0",
        "type": "t_uint8"
      },
      {
        "astId": 37944,
        "contract": "contracts/L1/L1CrossDomainMessenger.sol:L1CrossDomainMessenger",
        "label": "_initializing",
        "offset": 21,
        "slot": "0",
        "type": "t_bool"
      },
      {
        "astId": 38555,
        "contract": "contracts/L1/L1CrossDomainMessenger.sol:L1CrossDomainMessenger",
        "label": "__gap",
        "offset": 0,
        "slot": "1",
        "type": "t_array(t_uint256)50_storage"
      },
      {
        "astId": 37813,
        "contract": "contracts/L1/L1CrossDomainMessenger.sol:L1CrossDomainMessenger",
        "label": "_owner",
        "offset": 0,
        "slot": "51",
        "type": "t_address"
      },
      {
        "astId": 37933,
        "contract": "contracts/L1/L1CrossDomainMessenger.sol:L1CrossDomainMessenger",
        "label": "__gap",
        "offset": 0,
        "slot": "52",
        "type": "t_array(t_uint256)49_storage"
      },
      {
        "astId": 38106,
        "contract": "contracts/L1/L1CrossDomainMessenger.sol:L1CrossDomainMessenger",
        "label": "_paused",
        "offset": 0,
        "slot": "101",
        "type": "t_bool"
      },
      {
        "astId": 38211,
        "contract": "contracts/L1/L1CrossDomainMessenger.sol:L1CrossDomainMessenger",
        "label": "__gap",
        "offset": 0,
        "slot": "102",
        "type": "t_array(t_uint256)49_storage"
      },
      {
        "astId": 38226,
        "contract": "contracts/L1/L1CrossDomainMessenger.sol:L1CrossDomainMessenger",
        "label": "_status",
        "offset": 0,
        "slot": "151",
        "type": "t_uint256"
      },
      {
        "astId": 38270,
        "contract": "contracts/L1/L1CrossDomainMessenger.sol:L1CrossDomainMessenger",
        "label": "__gap",
        "offset": 0,
        "slot": "152",
        "type": "t_array(t_uint256)49_storage"
      },
      {
        "astId": 34760,
        "contract": "contracts/L1/L1CrossDomainMessenger.sol:L1CrossDomainMessenger",
        "label": "spacer_201_0_32",
        "offset": 0,
        "slot": "201",
        "type": "t_mapping(t_bytes32,t_bool)"
      },
      {
        "astId": 34765,
        "contract": "contracts/L1/L1CrossDomainMessenger.sol:L1CrossDomainMessenger",
        "label": "spacer_202_0_32",
        "offset": 0,
        "slot": "202",
        "type": "t_mapping(t_bytes32,t_bool)"
      },
      {
        "astId": 34770,
        "contract": "contracts/L1/L1CrossDomainMessenger.sol:L1CrossDomainMessenger",
        "label": "successfulMessages",
        "offset": 0,
        "slot": "203",
        "type": "t_mapping(t_bytes32,t_bool)"
      },
      {
        "astId": 34773,
        "contract": "contracts/L1/L1CrossDomainMessenger.sol:L1CrossDomainMessenger",
        "label": "xDomainMsgSender",
        "offset": 0,
        "slot": "204",
        "type": "t_address"
      },
      {
        "astId": 34776,
        "contract": "contracts/L1/L1CrossDomainMessenger.sol:L1CrossDomainMessenger",
        "label": "msgNonce",
        "offset": 0,
        "slot": "205",
        "type": "t_uint240"
      },
      {
        "astId": 34781,
        "contract": "contracts/L1/L1CrossDomainMessenger.sol:L1CrossDomainMessenger",
        "label": "receivedMessages",
        "offset": 0,
        "slot": "206",
        "type": "t_mapping(t_bytes32,t_bool)"
      },
      {
        "astId": 34786,
        "contract": "contracts/L1/L1CrossDomainMessenger.sol:L1CrossDomainMessenger",
        "label": "__gap",
        "offset": 0,
        "slot": "207",
        "type": "t_array(t_uint256)42_storage"
      }
    ],
    "types": {
      "t_address": {
        "encoding": "inplace",
        "label": "address",
        "numberOfBytes": "20"
      },
      "t_array(t_uint256)42_storage": {
        "encoding": "inplace",
        "label": "uint256[42]",
        "numberOfBytes": "1344",
        "base": "t_uint256"
      },
      "t_array(t_uint256)49_storage": {
        "encoding": "inplace",
        "label": "uint256[49]",
        "numberOfBytes": "1568",
        "base": "t_uint256"
      },
      "t_array(t_uint256)50_storage": {
        "encoding": "inplace",
        "label": "uint256[50]",
        "numberOfBytes": "1600",
        "base": "t_uint256"
      },
      "t_bool": {
        "encoding": "inplace",
        "label": "bool",
        "numberOfBytes": "1"
      },
      "t_bytes32": {
        "encoding": "inplace",
        "label": "bytes32",
        "numberOfBytes": "32"
      },
      "t_mapping(t_bytes32,t_bool)": {
        "encoding": "mapping",
        "key": "t_bytes32",
        "label": "mapping(bytes32 => bool)",
        "numberOfBytes": "32",
        "value": "t_bool"
      },
      "t_uint240": {
        "encoding": "inplace",
        "label": "uint240",
        "numberOfBytes": "30"
      },
      "t_uint256": {
        "encoding": "inplace",
        "label": "uint256",
        "numberOfBytes": "32"
      },
      "t_uint8": {
        "encoding": "inplace",
        "label": "uint8",
        "numberOfBytes": "1"
      }
    }
  }
}