{
  "_format": "hh-sol-artifact-1",
  "contractName": "OVM_L2ToL1MessagePasser",
  "sourceName": "contracts/optimistic-ethereum/OVM/predeploys/OVM_L2ToL1MessagePasser.sol",
  "abi": [
    {
      "anonymous": false,
      "inputs": [
        {
          "indexed": false,
          "internalType": "uint256",
          "name": "_nonce",
          "type": "uint256"
        },
        {
          "indexed": false,
          "internalType": "address",
          "name": "_sender",
          "type": "address"
        },
        {
          "indexed": false,
          "internalType": "bytes",
          "name": "_data",
          "type": "bytes"
        }
      ],
      "name": "L2ToL1Message",
      "type": "event"
    },
    {
      "inputs": [
        {
          "internalType": "bytes",
          "name": "_message",
          "type": "bytes"
        }
      ],
      "name": "passMessageToL1",
      "outputs": [],
      "stateMutability": "nonpayable",
      "type": "function"
    },
    {
      "inputs": [
        {
          "internalType": "bytes32",
          "name": "",
          "type": "bytes32"
        }
      ],
      "name": "sentMessages",
      "outputs": [
        {
          "internalType": "bool",
          "name": "",
          "type": "bool"
        }
      ],
      "stateMutability": "view",
      "type": "function"
    }
  ],
  "bytecode": "0x608060405234801561001057600080fd5b5061020e806100206000396000f3fe608060405234801561001057600080fd5b50600436106100365760003560e01c806382e3702d1461003b578063cafa81dc1461006c575b600080fd5b6100586004803603602081101561005157600080fd5b5035610114565b604080519115158252519081900360200190f35b6101126004803603602081101561008257600080fd5b81019060208101813564010000000081111561009d57600080fd5b8201836020820111156100af57600080fd5b803590602001918460018302840111640100000000831117156100d157600080fd5b91908080601f016020809104026020016040519081016040528093929190818152602001838380828437600092019190915250929550610129945050505050565b005b60006020819052908152604090205460ff1681565b600160008083336040516020018083805190602001908083835b602083106101625780518252601f199092019160209182019101610143565b6001836020036101000a038019825116818451168082178552505050505050905001826001600160a01b031660601b81526014019250505060405160208183030381529060405280519060200120815260200190815260200160002060006101000a81548160ff0219169083151502179055505056fea26469706673582212204768ece67a70633789e6c3f8de4f7495f070f31e8ff30eba79e7abbc647b239864736f6c63430007060033",
  "linkReferences": {},
  "deployedLinkReferences": {}
}