{
  "abi": [
    {
      "inputs": [
        {
          "internalType": "address",
          "name": "originalOwner",
          "type": "address"
        }
      ],
      "stateMutability": "nonpayable",
      "type": "constructor"
    },
    {
      "anonymous": false,
      "inputs": [
        {
          "indexed": true,
          "internalType": "address",
          "name": "previousOwner",
          "type": "address"
        },
        {
          "indexed": true,
          "internalType": "address",
          "name": "newOwner",
          "type": "address"
        }
      ],
      "name": "OwnershipTransferred",
      "type": "event"
    },
    {
      "inputs": [
        {
          "internalType": "bytes32",
          "name": "hash",
          "type": "bytes32"
        },
        {
          "internalType": "bytes",
          "name": "signature",
          "type": "bytes"
        }
      ],
      "name": "isValidSignature",
      "outputs": [
        {
          "internalType": "bytes4",
          "name": "magicValue",
          "type": "bytes4"
        }
      ],
      "stateMutability": "view",
      "type": "function"
    },
    {
      "inputs": [],
      "name": "owner",
      "outputs": [
        {
          "internalType": "address",
          "name": "",
          "type": "address"
        }
      ],
      "stateMutability": "view",
      "type": "function"
    },
    {
      "inputs": [],
      "name": "renounceOwnership",
      "outputs": [],
      "stateMutability": "nonpayable",
      "type": "function"
    },
    {
      "inputs": [
        {
          "internalType": "address",
          "name": "newOwner",
          "type": "address"
        }
      ],
      "name": "transferOwnership",
      "outputs": [],
      "stateMutability": "nonpayable",
      "type": "function"
    }
  ],
  "bytecode": {
    "object": "0x608060405234801561001057600080fd5b5060405161080b38038061080b83398101604081905261002f91610171565b61003833610047565b61004181610097565b506101a1565b600080546001600160a01b038381166001600160a01b0319831681178455604051919092169283917f8be0079c531659141344cd1fd0a4f28419497f9722a3daafe3b4186f6b6457e09190a35050565b61009f610115565b6001600160a01b0381166101095760405162461bcd60e51b815260206004820152602660248201527f4f776e61626c653a206e6577206f776e657220697320746865207a65726f206160448201526564647265737360d01b60648201526084015b60405180910390fd5b61011281610047565b50565b6000546001600160a01b0316331461016f5760405162461bcd60e51b815260206004820181905260248201527f4f776e61626c653a2063616c6c6572206973206e6f7420746865206f776e65726044820152606401610100565b565b60006020828403121561018357600080fd5b81516001600160a01b038116811461019a57600080fd5b9392505050565b61065b806101b06000396000f3fe608060405234801561001057600080fd5b506004361061004c5760003560e01c80631626ba7e14610051578063715018a6146100825780638da5cb5b1461008c578063f2fde38b146100a7575b600080fd5b61006461005f366004610554565b6100ba565b6040516001600160e01b031990911681526020015b60405180910390f35b61008a6100f6565b005b6000546040516001600160a01b039091168152602001610079565b61008a6100b536600461060f565b61010a565b600080546001600160a01b03166100d18484610188565b6001600160a01b0316146100e65760006100ef565b630b135d3f60e11b5b9392505050565b6100fe6101ac565b6101086000610206565b565b6101126101ac565b6001600160a01b03811661017c5760405162461bcd60e51b815260206004820152602660248201527f4f776e61626c653a206e6577206f776e657220697320746865207a65726f206160448201526564647265737360d01b60648201526084015b60405180910390fd5b61018581610206565b50565b60008060006101978585610256565b915091506101a48161029b565b509392505050565b6000546001600160a01b031633146101085760405162461bcd60e51b815260206004820181905260248201527f4f776e61626c653a2063616c6c6572206973206e6f7420746865206f776e65726044820152606401610173565b600080546001600160a01b038381166001600160a01b0319831681178455604051919092169283917f8be0079c531659141344cd1fd0a4f28419497f9722a3daafe3b4186f6b6457e09190a35050565b600080825160410361028c5760208301516040840151606085015160001a61028087828585610451565b94509450505050610294565b506000905060025b9250929050565b60008160048111156102af576102af610638565b036102b75750565b60018160048111156102cb576102cb610638565b036103185760405162461bcd60e51b815260206004820152601860248201527f45434453413a20696e76616c6964207369676e617475726500000000000000006044820152606401610173565b600281600481111561032c5761032c610638565b036103795760405162461bcd60e51b815260206004820152601f60248201527f45434453413a20696e76616c6964207369676e6174757265206c656e677468006044820152606401610173565b600381600481111561038d5761038d610638565b036103e55760405162461bcd60e51b815260206004820152602260248201527f45434453413a20696e76616c6964207369676e6174757265202773272076616c604482015261756560f01b6064820152608401610173565b60048160048111156103f9576103f9610638565b036101855760405162461bcd60e51b815260206004820152602260248201527f45434453413a20696e76616c6964207369676e6174757265202776272076616c604482015261756560f01b6064820152608401610173565b6000807f7fffffffffffffffffffffffffffffff5d576e7357a4501ddfe92f46681b20a08311156104885750600090506003610535565b8460ff16601b141580156104a057508460ff16601c14155b156104b15750600090506004610535565b6040805160008082526020820180845289905260ff881692820192909252606081018690526080810185905260019060a0016020604051602081039080840390855afa158015610505573d6000803e3d6000fd5b5050604051601f1901519150506001600160a01b03811661052e57600060019250925050610535565b9150600090505b94509492505050565b634e487b7160e01b600052604160045260246000fd5b6000806040838503121561056757600080fd5b82359150602083013567ffffffffffffffff8082111561058657600080fd5b818501915085601f83011261059a57600080fd5b8135818111156105ac576105ac61053e565b604051601f8201601f19908116603f011681019083821181831017156105d4576105d461053e565b816040528281528860208487010111156105ed57600080fd5b8260208601602083013760006020848301015280955050505050509250929050565b60006020828403121561062157600080fd5b81356001600160a01b03811681146100ef57600080fd5b634e487b7160e01b600052602160045260246000fdfea164736f6c634300080f000a",
    "linkReferences": {}
  },
  "methodIdentifiers": {
    "isValidSignature(bytes32,bytes)": "1626ba7e",
    "owner()": "8da5cb5b",
    "renounceOwnership()": "715018a6",
    "transferOwnership(address)": "f2fde38b"
  },
  "id": 44
}