{
  "_format": "hh-sol-artifact-1",
  "contractName": "OVM_L2DepositedERC20",
  "sourceName": "contracts/optimistic-ethereum/OVM/bridge/tokens/OVM_L2DepositedERC20.sol",
  "abi": [
    {
      "inputs": [
        {
          "internalType": "address",
          "name": "_l2CrossDomainMessenger",
          "type": "address"
        },
        {
          "internalType": "string",
          "name": "_name",
          "type": "string"
        },
        {
          "internalType": "string",
          "name": "_symbol",
          "type": "string"
        }
      ],
      "stateMutability": "nonpayable",
      "type": "constructor"
    },
    {
      "anonymous": false,
      "inputs": [
        {
          "indexed": true,
          "internalType": "address",
          "name": "owner",
          "type": "address"
        },
        {
          "indexed": true,
          "internalType": "address",
          "name": "spender",
          "type": "address"
        },
        {
          "indexed": false,
          "internalType": "uint256",
          "name": "value",
          "type": "uint256"
        }
      ],
      "name": "Approval",
      "type": "event"
    },
    {
      "anonymous": false,
      "inputs": [
        {
          "indexed": true,
          "internalType": "address",
          "name": "_to",
          "type": "address"
        },
        {
          "indexed": false,
          "internalType": "uint256",
          "name": "_amount",
          "type": "uint256"
        }
      ],
      "name": "DepositFinalized",
      "type": "event"
    },
    {
      "anonymous": false,
      "inputs": [
        {
          "indexed": false,
          "internalType": "contract iOVM_L1TokenGateway",
          "name": "_l1TokenGateway",
          "type": "address"
        }
      ],
      "name": "Initialized",
      "type": "event"
    },
    {
      "anonymous": false,
      "inputs": [
        {
          "indexed": true,
          "internalType": "address",
          "name": "from",
          "type": "address"
        },
        {
          "indexed": true,
          "internalType": "address",
          "name": "to",
          "type": "address"
        },
        {
          "indexed": false,
          "internalType": "uint256",
          "name": "value",
          "type": "uint256"
        }
      ],
      "name": "Transfer",
      "type": "event"
    },
    {
      "anonymous": false,
      "inputs": [
        {
          "indexed": true,
          "internalType": "address",
          "name": "_from",
          "type": "address"
        },
        {
          "indexed": false,
          "internalType": "address",
          "name": "_to",
          "type": "address"
        },
        {
          "indexed": false,
          "internalType": "uint256",
          "name": "_amount",
          "type": "uint256"
        }
      ],
      "name": "WithdrawalInitiated",
      "type": "event"
    },
    {
      "inputs": [],
      "name": "DOMAIN_SEPARATOR",
      "outputs": [
        {
          "internalType": "bytes32",
          "name": "",
          "type": "bytes32"
        }
      ],
      "stateMutability": "view",
      "type": "function"
    },
    {
      "inputs": [],
      "name": "PERMIT_TYPEHASH",
      "outputs": [
        {
          "internalType": "bytes32",
          "name": "",
          "type": "bytes32"
        }
      ],
      "stateMutability": "view",
      "type": "function"
    },
    {
      "inputs": [
        {
          "internalType": "address",
          "name": "",
          "type": "address"
        },
        {
          "internalType": "address",
          "name": "",
          "type": "address"
        }
      ],
      "name": "allowance",
      "outputs": [
        {
          "internalType": "uint256",
          "name": "",
          "type": "uint256"
        }
      ],
      "stateMutability": "view",
      "type": "function"
    },
    {
      "inputs": [
        {
          "internalType": "address",
          "name": "spender",
          "type": "address"
        },
        {
          "internalType": "uint256",
          "name": "value",
          "type": "uint256"
        }
      ],
      "name": "approve",
      "outputs": [
        {
          "internalType": "bool",
          "name": "",
          "type": "bool"
        }
      ],
      "stateMutability": "nonpayable",
      "type": "function"
    },
    {
      "inputs": [
        {
          "internalType": "address",
          "name": "",
          "type": "address"
        }
      ],
      "name": "balanceOf",
      "outputs": [
        {
          "internalType": "uint256",
          "name": "",
          "type": "uint256"
        }
      ],
      "stateMutability": "view",
      "type": "function"
    },
    {
      "inputs": [],
      "name": "decimals",
      "outputs": [
        {
          "internalType": "uint8",
          "name": "",
          "type": "uint8"
        }
      ],
      "stateMutability": "view",
      "type": "function"
    },
    {
      "inputs": [
        {
          "internalType": "address",
          "name": "_to",
          "type": "address"
        },
        {
          "internalType": "uint256",
          "name": "_amount",
          "type": "uint256"
        }
      ],
      "name": "finalizeDeposit",
      "outputs": [],
      "stateMutability": "nonpayable",
      "type": "function"
    },
    {
      "inputs": [],
      "name": "getFinalizeWithdrawalL1Gas",
      "outputs": [
        {
          "internalType": "uint32",
          "name": "",
          "type": "uint32"
        }
      ],
      "stateMutability": "view",
      "type": "function"
    },
    {
      "inputs": [
        {
          "internalType": "contract iOVM_L1TokenGateway",
          "name": "_l1TokenGateway",
          "type": "address"
        }
      ],
      "name": "init",
      "outputs": [],
      "stateMutability": "nonpayable",
      "type": "function"
    },
    {
      "inputs": [],
      "name": "l1TokenGateway",
      "outputs": [
        {
          "internalType": "contract iOVM_L1TokenGateway",
          "name": "",
          "type": "address"
        }
      ],
      "stateMutability": "view",
      "type": "function"
    },
    {
      "inputs": [],
      "name": "messenger",
      "outputs": [
        {
          "internalType": "address",
          "name": "",
          "type": "address"
        }
      ],
      "stateMutability": "view",
      "type": "function"
    },
    {
      "inputs": [],
      "name": "name",
      "outputs": [
        {
          "internalType": "string",
          "name": "",
          "type": "string"
        }
      ],
      "stateMutability": "view",
      "type": "function"
    },
    {
      "inputs": [
        {
          "internalType": "address",
          "name": "",
          "type": "address"
        }
      ],
      "name": "nonces",
      "outputs": [
        {
          "internalType": "uint256",
          "name": "",
          "type": "uint256"
        }
      ],
      "stateMutability": "view",
      "type": "function"
    },
    {
      "inputs": [
        {
          "internalType": "address",
          "name": "owner",
          "type": "address"
        },
        {
          "internalType": "address",
          "name": "spender",
          "type": "address"
        },
        {
          "internalType": "uint256",
          "name": "value",
          "type": "uint256"
        },
        {
          "internalType": "uint256",
          "name": "deadline",
          "type": "uint256"
        },
        {
          "internalType": "uint8",
          "name": "v",
          "type": "uint8"
        },
        {
          "internalType": "bytes32",
          "name": "r",
          "type": "bytes32"
        },
        {
          "internalType": "bytes32",
          "name": "s",
          "type": "bytes32"
        }
      ],
      "name": "permit",
      "outputs": [],
      "stateMutability": "nonpayable",
      "type": "function"
    },
    {
      "inputs": [],
      "name": "symbol",
      "outputs": [
        {
          "internalType": "string",
          "name": "",
          "type": "string"
        }
      ],
      "stateMutability": "view",
      "type": "function"
    },
    {
      "inputs": [],
      "name": "totalSupply",
      "outputs": [
        {
          "internalType": "uint256",
          "name": "",
          "type": "uint256"
        }
      ],
      "stateMutability": "view",
      "type": "function"
    },
    {
      "inputs": [
        {
          "internalType": "address",
          "name": "to",
          "type": "address"
        },
        {
          "internalType": "uint256",
          "name": "value",
          "type": "uint256"
        }
      ],
      "name": "transfer",
      "outputs": [
        {
          "internalType": "bool",
          "name": "",
          "type": "bool"
        }
      ],
      "stateMutability": "nonpayable",
      "type": "function"
    },
    {
      "inputs": [
        {
          "internalType": "address",
          "name": "from",
          "type": "address"
        },
        {
          "internalType": "address",
          "name": "to",
          "type": "address"
        },
        {
          "internalType": "uint256",
          "name": "value",
          "type": "uint256"
        }
      ],
      "name": "transferFrom",
      "outputs": [
        {
          "internalType": "bool",
          "name": "",
          "type": "bool"
        }
      ],
      "stateMutability": "nonpayable",
      "type": "function"
    },
    {
      "inputs": [
        {
          "internalType": "uint256",
          "name": "_amount",
          "type": "uint256"
        }
      ],
      "name": "withdraw",
      "outputs": [],
      "stateMutability": "nonpayable",
      "type": "function"
    },
    {
      "inputs": [
        {
          "internalType": "address",
          "name": "_to",
          "type": "address"
        },
        {
          "internalType": "uint256",
          "name": "_amount",
          "type": "uint256"
        }
      ],
      "name": "withdrawTo",
      "outputs": [],
      "stateMutability": "nonpayable",
      "type": "function"
    }
  ],
  "bytecode": "0x60806040523480156200001c576000806200001962000242565b50505b5060405162001ecd38038062001ecd8339810160408190526200003f916200053d565b8181848080600060018162000053620002af565b816001600160a01b0302191690836001600160a01b03160217906200007762000311565b50505050508160029080516200009292916020019062000360565b506003818051620000a892916020019062000360565b5060005a620000b662000422565b90507f8b73c3c69bb8fe3d512ecc4cf759cc79239f7b179b0ffacaa9a75d522b39400f6002604051808280620000eb620002af565b60018160011615610100020316600290048015620001555780601f10620001295761010080836200011b620002af565b040283529182019162000155565b820191906000526020600020905b8162000142620002af565b8152906001019060200180831162000137575b505091505060405180910390206040516040808201905260018152603160f81b602082015280519060200120835a63996d79a5598160e01b8152602081600483336000905af158600e01573d6000803e3d6000fd5b3d6001141558600a015760016000f35b8051925060005b6040811015620001da57600082820152602001620001c1565b5050506040516020810195909552604080860194909452606085019290925260808401526001600160a01b031660a083015260c09091019051602081830303815290604052805190602001208060076200023362000311565b505050505050505050620005ee565b632a2a7adb598160e01b8152600481016020815285602082015260005b868110156200027c5780860151828201604001526020016200025f565b506020828760640184336000905af158600e01573d6000803e3d6000fd5b3d6001141558600a015760016000f35b505050565b6303daa959598160e01b8152836004820152602081602483336000905af158600e01573d6000803e3d6000fd5b3d6001141558600a015760016000f35b8051935060005b60408110156200030c57600082820152602001620002f3565b505050565b6322bd64c0598160e01b8152836004820152846024820152600081604483336000905af158600e01573d6000803e3d6000fd5b3d6001141558600a015760016000f35b600081526020620002f3565b82806200036c620002af565b600181600116156101000203166002900490600052602060002090601f016020900481019282620003ac57600085620003a462000311565b505062000410565b82601f10620003ca57805160ff19168380011785620003a462000311565b82800160010185620003db62000311565b5050821562000410579182015b828111156200041057825182620003fe62000311565b505091602001919060010190620003e8565b506200041e92915062000469565b5090565b6390580256598160e01b8152602081600483336000905af158600e01573d6000803e3d6000fd5b3d6001141558600a015760016000f35b80516000825293506020620002f3565b808211156200041e57600080826200048062000311565b50505060010162000469565b600082601f830112620004a8578081620004a562000242565b50505b81516001600160401b0380821115620004bd57fe5b6040516020601f8401601f1916820181018381118382101715620004dd57fe5b6040528382528584018101871015620004ff578485620004fc62000242565b50505b8492505b8383101562000522578083870101518284018201529182019162000503565b838311156200053357848185840101525b5095945050505050565b6000806000606084860312156200055d5782836200055a62000242565b50505b83516001600160a01b03811681146200057f5783846200057c62000242565b50505b925060208401516001600160401b0380821115620005a6578384620005a362000242565b50505b620005b4878388016200048c565b93506040860151915080821115620005d5578283620005d262000242565b50505b50620005e4868287016200048c565b9150509250925092565b6118cf80620005fe6000396000f3fe6080604052348015610019576000806100166111e4565b50505b50600436106101355760003560e01c80633cb747bf116100b6578063a84ce98c1161007a578063a84ce98c1461025f578063a9059cbb14610267578063bdeaf6411461027a578063d505accf1461028f578063dd62ed3e146102a257610135565b80633cb747bf1461020957806370a082311461021e5780637ecebe00146102315780638d6e9a5b1461024457806395d89b411461025757610135565b806323b872dd116100fd57806323b872dd146101be5780632e1a7d4d146101d157806330adf81f146101e4578063313ce567146101ec5780633644e5151461020157610135565b806306fdde0314610143578063095ea7b31461016157806318160ddd1461018157806319ab453c14610196578063205c2878146101ab575b6000806101406111e4565b50505b61014b6102b5565b6040516101589190611759565b60405180910390f35b61017461016f3660046116c3565b61036e565b6040516101589190611745565b61018961038d565b6040516101589190611750565b6101a96101a4366004611586565b61039a565b005b6101a96101b93660046116c3565b610477565b6101746101cc3660046115f3565b6104db565b6101a96101df3660046116f7565b6105eb565b610189610656565b6101f461067a565b6040516101589190611847565b61018961067f565b610211610689565b6040516101589190611718565b61018961022c366004611586565b6106a7565b61018961023f366004611586565b6106bf565b6101a96102523660046116c3565b6106d7565b61014b6108ff565b6102116109a1565b6101746102753660046116c3565b6109ad565b6102826109c2565b6040516101589190611836565b6101a961029d36600461163c565b6109c9565b6101896102b03660046115b2565b610c32565b6002806102c061124f565b600181600116156101000203166002900480601f0160208091040260200160405190810160405281815291906020830182806102fa61124f565b600181600116156101000203166002900480156103665780601f1061033457610100808361032661124f565b040283529160200191610366565b820191906000526020600020905b8161034b61124f565b8152906001019060200180831161034257829003601f168201915b505050505081565b60006103835a61037c6112af565b8484610c58565b5060015b92915050565b600461039761124f565b81565b60008060016103a761124f565b906101000a90046001600160a01b03166001600160a01b0316146103ef5760405162461bcd60e51b81526004016103dd906117ac565b604051809103906103ec6111e4565b50505b80600180806103fc61124f565b816001600160a01b0302191690836001600160a01b031602179061041e6112f5565b5050507f908408e307fc569b417f6cbec5d5a06f44a0a505ac0479b47d421a4b2fd6a1e6600160009061044f61124f565b906101000a90046001600160a01b031660405161046c9190611718565b60405180910390a150565b600080600161048461124f565b906101000a90046001600160a01b03166001600160a01b031614156104cd5760405162461bcd60e51b81526004016104bb906117f1565b604051809103906104ca6111e4565b50505b6104d78282610ce4565b5050565b6001600160a01b038316600090815260066020526000196040822060005a6105016112af565b6001600160a01b03166001600160a01b0316815260200190815260200160002061052961124f565b146105d6576001600160a01b038416600090815260066020526105859083906040902060005a6105576112af565b6001600160a01b03166001600160a01b0316815260200190815260200160002061057f61124f565b90610dab565b6001600160a01b038516600090815260066020526040902060005a6105a86112af565b6001600160a01b03166001600160a01b0316815260200190815260200160002081906105d26112f5565b5050505b6105e1848484610e08565b5060019392505050565b60008060016105f861124f565b906101000a90046001600160a01b03166001600160a01b031614156106415760405162461bcd60e51b815260040161062f906117f1565b6040518091039061063e6111e4565b50505b6106535a61064d6112af565b82610ce4565b50565b7f6e71edae12b1b97f4d1f60370fef10105fa2faae0126114a169c64845d6126c981565b601281565b600761039761124f565b60008061069461124f565b906101000a90046001600160a01b031681565b6005602052806000526040600020905061039761124f565b6008602052806000526040600020905061039761124f565b60008060016106e461124f565b906101000a90046001600160a01b03166001600160a01b0316141561072d5760405162461bcd60e51b815260040161071b906117f1565b6040518091039061072a6111e4565b50505b6000600161073961124f565b906101000a90046001600160a01b0316610751610ef0565b6001600160a01b03165a6107636112af565b6001600160a01b0316146107b15760405162461bcd60e51b815260040180806020018281038252602e815260200180611871602e9139604001915050604051809103906107ae6111e4565b50505b806001600160a01b03166107c3610ef0565b6001600160a01b0316636e296e456040518163ffffffff1660e01b815260040160206040518083038186806107f6611343565b15801561080b576000806108086111e4565b50505b505a61081561138f565b5050505050158015610834573d6000803e3d60006108316111e4565b50505b505050506040513d6020811015610853576000806108506111e4565b50505b8101908080516001600160a01b03169390931492506108af9150505760405162461bcd60e51b815260040180806020018281038252603081526020018061189f60309139604001915050604051809103906108ac6111e4565b50505b6108b98383610f11565b826001600160a01b03167f162eb12ad2bd8b6ca7960f162208414ab3bc2da9f37953788ffd8cf850c3492b836040516108f29190611750565b60405180910390a2505050565b60038061090a61124f565b600181600116156101000203166002900480601f01602080910402602001604051908101604052818152919060208301828061094461124f565b600181600116156101000203166002900480156103665780601f1061097057610100808361032661124f565b820191906000526020600020905b8161098761124f565b8152906001019060200180831161097e5750859350505050565b6000600161069461124f565b60006103835a6109bb6112af565b8484610e08565b620186a090565b5a6109d261147a565b841015610a235760405162461bcd60e51b8152602060048201526012602482015271155b9a5cddd85c158c8e881156141254915160721b604482015260640160405180910390610a206111e4565b50505b60006007610a2f61124f565b6001600160a01b038916600090815260086020527f6e71edae12b1b97f4d1f60370fef10105fa2faae0126114a169c64845d6126c9908a908a908a9060409020600081610a7a61124f565b91600183019150610a896112f5565b50508a60405160200180878152602001866001600160a01b03168152602001856001600160a01b0316815260200184815260200183815260200182815260200196505050505050506040516020818303038152906040528051906020012060405161190160f01b602082015260228101929092526042820152606201604051602081830303815290604052805190602001209050600060018286868660405160008152602001604052604051808581526020018460ff1681526020018381526020018281526020019450505050506020604051602081039080840390855a610b6f61138f565b5050505050158015610b8e573d6000803e3d6000610b8b6111e4565b50505b5050506020604051035190506001600160a01b03811615801590610bc35750886001600160a01b0316816001600160a01b0316145b610c1c5760405162461bcd60e51b815260206004820152601c60248201527f556e697377617056323a20494e56414c49445f5349474e415455524500000000604482015260640160405180910390610c196111e4565b50505b610c27898989610c58565b505050505050505050565b60066020528160005260406000206020528060005260406000209150610397905061124f565b6001600160a01b038316600090815260066020528190604090206001600160a01b0384166000908152602091909152604090208190610c956112f5565b505050816001600160a01b0316836001600160a01b03167f8c5be1e5ebec7d5bd14f71427d1e84f3dd0314c0f7b2291e5b200ac8c7c3b9258360405190815260200160405180910390a3505050565b610cee8282610f1b565b6000637a7bda0d60e11b8383604051602401610d0b92919061172c565b604051602081830303815290604052906001600160e01b0319166020820180516001600160e01b031690911790529050610d6860006001610d4a61124f565b906101000a90046001600160a01b031682610d636109c2565b610f2d565b5a610d716112af565b6001600160a01b03167fbb2689ff876f7ef453cf8865dde5ab10349d222e2e1383c5152fbdb083f02da284846040516108f292919061172c565b808203828111156103875760405162461bcd60e51b815260206004820152601560248201527464732d6d6174682d7375622d756e646572666c6f7760581b604482015260640160405180910390610e006111e4565b505092915050565b6001600160a01b03831660009081526005602052610e2e9082906040902061057f61124f565b6001600160a01b03841660009081526005602052604090208190610e506112f5565b5050506001600160a01b03821660009081526005602052610e7f90829060409020610e7961124f565b9061103b565b6001600160a01b03831660009081526005602052604090208190610ea16112f5565b505050816001600160a01b0316836001600160a01b03167fddf252ad1be2c89b69c2b068fc378daa952ba7f163c4a11628f55a4df523b3ef8360405190815260200160405180910390a3505050565b60008080610efc61124f565b906101000a90046001600160a01b0316905090565b6104d7828261108f565b6104d75a610f276112af565b82611139565b610f35610ef0565b6001600160a01b0316633dbb202b8484846040518463ffffffff1660e01b815260040180846001600160a01b03168152602001806020018363ffffffff168152602001828103825284818151815260200191508051906020019080838360005b83811015610fad578082015183820152602001610f95565b50505050905090810190601f168015610fda5780820380516001836020036101000a031916815260200191505b5094505050505060006040518083038160008780610ff6611343565b15801561100b576000806110086111e4565b50505b505a6110156114c0565b505050505050158015611032573d6000803e3d6000610c276111e4565b50505050505050565b808201828110156103875760405162461bcd60e51b815260206004820152601460248201527364732d6d6174682d6164642d6f766572666c6f7760601b604482015260640160405180910390610e006111e4565b61109d816004610e7961124f565b8060046110a86112f5565b5050506001600160a01b038216600090815260056020526110d190829060409020610e7961124f565b6001600160a01b038316600090815260056020526040902081906110f36112f5565b5050506001600160a01b03821660007fddf252ad1be2c89b69c2b068fc378daa952ba7f163c4a11628f55a4df523b3ef8360405190815260200160405180910390a35050565b6001600160a01b0382166000908152600560205261115f9082906040902061057f61124f565b6001600160a01b038316600090815260056020526040902081906111816112f5565b50505061119281600461057f61124f565b80600461119d6112f5565b5060009150506001600160a01b0383167fddf252ad1be2c89b69c2b068fc378daa952ba7f163c4a11628f55a4df523b3ef8360405190815260200160405180910390a35050565b632a2a7adb598160e01b8152600481016020815285602082015260005b8681101561121c578086015182820160400152602001611201565b506020828760640184336000905af158600e01573d6000803e3d6000fd5b3d6001141558600a015760016000f35b505050565b6303daa959598160e01b8152836004820152602081602483336000905af158600e01573d6000803e3d6000fd5b3d6001141558600a015760016000f35b8051935060005b60408110156112aa57600082820152602001611293565b505050565b6373509064598160e01b8152602081600483336000905af158600e01573d6000803e3d6000fd5b3d6001141558600a015760016000f35b80516000825293506020611293565b6322bd64c0598160e01b8152836004820152846024820152600081604483336000905af158600e01573d6000803e3d6000fd5b3d6001141558600a015760016000f35b600081526020611293565b638435035b598160e01b8152836004820152602081602483336000905af158600e01573d6000803e3d6000fd5b3d6001141558600a015760016000f35b80516000825293506020611293565b638540661f598160e01b81526113c0565b8080831115610387575090919050565b8080831015610387575090919050565b836004820152846024820152606060448201528660648201526084810160005b888110156113f85780880151828201526020016113e0565b506060828960a40184336000905af158600e01573d6000803e3d6000fd5b3d6001141558600a015760016000f35b815160408301513d6000853e8b8b82606087013350600060045af1505961144d8d3d6113b0565b8c0161145981876113a0565b5b8281101561146e576000815260200161145a565b50929c50505050505050565b63bdbf8c36598160e01b8152602081600483336000905af158600e01573d6000803e3d6000fd5b3d6001141558600a015760016000f35b80516000825293506020611293565b6385979f76598160e01b8152836004820152846024820152606060448201528760648201526084810160005b898110156115045780890151828201526020016114ec565b506060828a60a40184336000905af158600e01573d6000803e3d6000fd5b3d6001141558600a015760016000f35b815160408301513d6000853e8c8c82606087013350600060045af150596115598e3d6113b0565b8d0161156581876113a0565b5b8281101561157a5760008152602001611566565b50929d50505050505050565b6000602082840312156115a057808161159d6111e4565b50505b81356115ab81611855565b9392505050565b600080604083850312156115cd5780816115ca6111e4565b50505b82356115d881611855565b915060208301356115e881611855565b809150509250929050565b60008060006060848603121561161057808161160d6111e4565b50505b833561161b81611855565b9250602084013561162b81611855565b929592945050506040919091013590565b600080600080600080600060e0888a03121561165f57828361165c6111e4565b50505b873561166a81611855565b9650602088013561167a81611855565b95506040880135945060608801359350608088013560ff811681146116a65783846116a36111e4565b50505b9699959850939692959460a0840135945060c09093013592915050565b600080604083850312156116de5781826116db6111e4565b50505b82356116e981611855565b946020939093013593505050565b60006020828403121561171157808161170e6111e4565b50505b5035919050565b6001600160a01b0391909116815260200190565b6001600160a01b03929092168252602082015260400190565b901515815260200190565b90815260200190565b6000602080835283518082850152825b8181101561178557828187010151858201604001528201611769565b818111156117965783604083870101525b50601f01601f1916929092016040019392505050565b60208082526025908201527f436f6e74726163742068617320616c7265616479206265656e20696e697469616040820152641b1a5e995960da1b606082015260800190565b60208082526025908201527f436f6e747261637420686173206e6f7420796574206265656e20696e697469616040820152641b1a5e995960da1b606082015260800190565b63ffffffff91909116815260200190565b60ff91909116815260200190565b6001600160a01b0381168114610653576000806112aa6111e456fe4f564d5f58434841494e3a206d657373656e67657220636f6e747261637420756e61757468656e746963617465644f564d5f58434841494e3a2077726f6e672073656e646572206f662063726f73732d646f6d61696e206d657373616765",
  "linkReferences": {},
  "deployedLinkReferences": {}
}