{
  "_format": "hh-sol-artifact-1",
  "contractName": "OVM_L1CrossDomainMessenger",
  "sourceName": "contracts/optimistic-ethereum/OVM/bridge/messaging/OVM_L1CrossDomainMessenger.sol",
  "abi": [
    {
      "inputs": [],
      "stateMutability": "nonpayable",
      "type": "constructor"
    },
    {
      "anonymous": false,
      "inputs": [
        {
          "indexed": false,
          "internalType": "bytes32",
          "name": "msgHash",
          "type": "bytes32"
        }
      ],
      "name": "FailedRelayedMessage",
      "type": "event"
    },
    {
      "anonymous": false,
      "inputs": [
        {
          "indexed": true,
          "internalType": "bytes32",
          "name": "_xDomainCalldataHash",
          "type": "bytes32"
        }
      ],
      "name": "MessageAllowed",
      "type": "event"
    },
    {
      "anonymous": false,
      "inputs": [
        {
          "indexed": true,
          "internalType": "bytes32",
          "name": "_xDomainCalldataHash",
          "type": "bytes32"
        }
      ],
      "name": "MessageBlocked",
      "type": "event"
    },
    {
      "anonymous": false,
      "inputs": [
        {
          "indexed": true,
          "internalType": "address",
          "name": "previousOwner",
          "type": "address"
        },
        {
          "indexed": true,
          "internalType": "address",
          "name": "newOwner",
          "type": "address"
        }
      ],
      "name": "OwnershipTransferred",
      "type": "event"
    },
    {
      "anonymous": false,
      "inputs": [
        {
          "indexed": false,
          "internalType": "address",
          "name": "account",
          "type": "address"
        }
      ],
      "name": "Paused",
      "type": "event"
    },
    {
      "anonymous": false,
      "inputs": [
        {
          "indexed": false,
          "internalType": "bytes32",
          "name": "msgHash",
          "type": "bytes32"
        }
      ],
      "name": "RelayedMessage",
      "type": "event"
    },
    {
      "anonymous": false,
      "inputs": [
        {
          "indexed": false,
          "internalType": "bytes",
          "name": "message",
          "type": "bytes"
        }
      ],
      "name": "SentMessage",
      "type": "event"
    },
    {
      "anonymous": false,
      "inputs": [
        {
          "indexed": false,
          "internalType": "address",
          "name": "account",
          "type": "address"
        }
      ],
      "name": "Unpaused",
      "type": "event"
    },
    {
      "inputs": [
        {
          "internalType": "bytes32",
          "name": "_xDomainCalldataHash",
          "type": "bytes32"
        }
      ],
      "name": "allowMessage",
      "outputs": [],
      "stateMutability": "nonpayable",
      "type": "function"
    },
    {
      "inputs": [
        {
          "internalType": "bytes32",
          "name": "_xDomainCalldataHash",
          "type": "bytes32"
        }
      ],
      "name": "blockMessage",
      "outputs": [],
      "stateMutability": "nonpayable",
      "type": "function"
    },
    {
      "inputs": [
        {
          "internalType": "bytes32",
          "name": "",
          "type": "bytes32"
        }
      ],
      "name": "blockedMessages",
      "outputs": [
        {
          "internalType": "bool",
          "name": "",
          "type": "bool"
        }
      ],
      "stateMutability": "view",
      "type": "function"
    },
    {
      "inputs": [
        {
          "internalType": "address",
          "name": "_libAddressManager",
          "type": "address"
        }
      ],
      "name": "initialize",
      "outputs": [],
      "stateMutability": "nonpayable",
      "type": "function"
    },
    {
      "inputs": [],
      "name": "libAddressManager",
      "outputs": [
        {
          "internalType": "contract Lib_AddressManager",
          "name": "",
          "type": "address"
        }
      ],
      "stateMutability": "view",
      "type": "function"
    },
    {
      "inputs": [],
      "name": "messageNonce",
      "outputs": [
        {
          "internalType": "uint256",
          "name": "",
          "type": "uint256"
        }
      ],
      "stateMutability": "view",
      "type": "function"
    },
    {
      "inputs": [],
      "name": "owner",
      "outputs": [
        {
          "internalType": "address",
          "name": "",
          "type": "address"
        }
      ],
      "stateMutability": "view",
      "type": "function"
    },
    {
      "inputs": [],
      "name": "pause",
      "outputs": [],
      "stateMutability": "nonpayable",
      "type": "function"
    },
    {
      "inputs": [],
      "name": "paused",
      "outputs": [
        {
          "internalType": "bool",
          "name": "",
          "type": "bool"
        }
      ],
      "stateMutability": "view",
      "type": "function"
    },
    {
      "inputs": [
        {
          "internalType": "address",
          "name": "_target",
          "type": "address"
        },
        {
          "internalType": "address",
          "name": "_sender",
          "type": "address"
        },
        {
          "internalType": "bytes",
          "name": "_message",
          "type": "bytes"
        },
        {
          "internalType": "uint256",
          "name": "_messageNonce",
          "type": "uint256"
        },
        {
          "components": [
            {
              "internalType": "bytes32",
              "name": "stateRoot",
              "type": "bytes32"
            },
            {
              "components": [
                {
                  "internalType": "uint256",
                  "name": "batchIndex",
                  "type": "uint256"
                },
                {
                  "internalType": "bytes32",
                  "name": "batchRoot",
                  "type": "bytes32"
                },
                {
                  "internalType": "uint256",
                  "name": "batchSize",
                  "type": "uint256"
                },
                {
                  "internalType": "uint256",
                  "name": "prevTotalElements",
                  "type": "uint256"
                },
                {
                  "internalType": "bytes",
                  "name": "extraData",
                  "type": "bytes"
                }
              ],
              "internalType": "struct Lib_OVMCodec.ChainBatchHeader",
              "name": "stateRootBatchHeader",
              "type": "tuple"
            },
            {
              "components": [
                {
                  "internalType": "uint256",
                  "name": "index",
                  "type": "uint256"
                },
                {
                  "internalType": "bytes32[]",
                  "name": "siblings",
                  "type": "bytes32[]"
                }
              ],
              "internalType": "struct Lib_OVMCodec.ChainInclusionProof",
              "name": "stateRootProof",
              "type": "tuple"
            },
            {
              "internalType": "bytes",
              "name": "stateTrieWitness",
              "type": "bytes"
            },
            {
              "internalType": "bytes",
              "name": "storageTrieWitness",
              "type": "bytes"
            }
          ],
          "internalType": "struct iOVM_L1CrossDomainMessenger.L2MessageInclusionProof",
          "name": "_proof",
          "type": "tuple"
        }
      ],
      "name": "relayMessage",
      "outputs": [],
      "stateMutability": "nonpayable",
      "type": "function"
    },
    {
      "inputs": [
        {
          "internalType": "bytes32",
          "name": "",
          "type": "bytes32"
        }
      ],
      "name": "relayedMessages",
      "outputs": [
        {
          "internalType": "bool",
          "name": "",
          "type": "bool"
        }
      ],
      "stateMutability": "view",
      "type": "function"
    },
    {
      "inputs": [],
      "name": "renounceOwnership",
      "outputs": [],
      "stateMutability": "nonpayable",
      "type": "function"
    },
    {
      "inputs": [
        {
          "internalType": "address",
          "name": "_target",
          "type": "address"
        },
        {
          "internalType": "address",
          "name": "_sender",
          "type": "address"
        },
        {
          "internalType": "bytes",
          "name": "_message",
          "type": "bytes"
        },
        {
          "internalType": "uint256",
          "name": "_messageNonce",
          "type": "uint256"
        },
        {
          "internalType": "uint32",
          "name": "_gasLimit",
          "type": "uint32"
        }
      ],
      "name": "replayMessage",
      "outputs": [],
      "stateMutability": "nonpayable",
      "type": "function"
    },
    {
      "inputs": [
        {
          "internalType": "string",
          "name": "_name",
          "type": "string"
        }
      ],
      "name": "resolve",
      "outputs": [
        {
          "internalType": "address",
          "name": "",
          "type": "address"
        }
      ],
      "stateMutability": "view",
      "type": "function"
    },
    {
      "inputs": [
        {
          "internalType": "address",
          "name": "_target",
          "type": "address"
        },
        {
          "internalType": "bytes",
          "name": "_message",
          "type": "bytes"
        },
        {
          "internalType": "uint32",
          "name": "_gasLimit",
          "type": "uint32"
        }
      ],
      "name": "sendMessage",
      "outputs": [],
      "stateMutability": "nonpayable",
      "type": "function"
    },
    {
      "inputs": [
        {
          "internalType": "bytes32",
          "name": "",
          "type": "bytes32"
        }
      ],
      "name": "sentMessages",
      "outputs": [
        {
          "internalType": "bool",
          "name": "",
          "type": "bool"
        }
      ],
      "stateMutability": "view",
      "type": "function"
    },
    {
      "inputs": [
        {
          "internalType": "bytes32",
          "name": "",
          "type": "bytes32"
        }
      ],
      "name": "successfulMessages",
      "outputs": [
        {
          "internalType": "bool",
          "name": "",
          "type": "bool"
        }
      ],
      "stateMutability": "view",
      "type": "function"
    },
    {
      "inputs": [
        {
          "internalType": "address",
          "name": "newOwner",
          "type": "address"
        }
      ],
      "name": "transferOwnership",
      "outputs": [],
      "stateMutability": "nonpayable",
      "type": "function"
    },
    {
      "inputs": [],
      "name": "xDomainMessageSender",
      "outputs": [
        {
          "internalType": "address",
          "name": "",
          "type": "address"
        }
      ],
      "stateMutability": "view",
      "type": "function"
    }
  ],
  "bytecode": "0x608060405261dead60046001816200001662000096565b816001600160a01b0302191690836001600160a01b03160217906200003a620000f8565b50505034801562000055576000806200005262000147565b50505b5060008060056001816200006862000096565b816001600160a01b0302191690836001600160a01b03160217906200008c620000f8565b50505050620001b4565b6303daa959598160e01b8152836004820152602081602483336000905af158600e01573d6000803e3d6000fd5b3d6001141558600a015760016000f35b8051935060005b6040811015620000f357600082820152602001620000da565b505050565b6322bd64c0598160e01b8152836004820152846024820152600081604483336000905af158600e01573d6000803e3d6000fd5b3d6001141558600a015760016000f35b600081526020620000da565b632a2a7adb598160e01b8152600481016020815285602082015260005b868110156200018157808601518282016040015260200162000164565b506020828760640184336000905af158600e01573d6000803e3d6000fd5b3d6001141558600a015760016000f35b505050565b613d2e80620001c46000396000f3fe608060405234801561001957600080610016612dc6565b50505b506004361061012a5760003560e01c806381ada46c116100b6578063c4d66de81161007a578063c4d66de814610225578063c6b94ab014610238578063d7fd19dd1461024b578063ecc704281461025e578063f2fde38b146102735761012a565b806381ada46c146101dc57806382e3702d146101ef5780638456cb59146102025780638da5cb5b1461020a578063b1b1b209146102125761012a565b8063461a4478116100fd578063461a44781461019e5780635c975abb146101b15780636e296e45146101b9578063706ceab6146101c1578063715018a6146101d45761012a565b80630ecf2eea1461013857806321d800ec1461014d578063299ca478146101765780633dbb202b1461018b575b600080610135612dc6565b50505b61014b6101463660046136ca565b610286565b005b61016061015b3660046136ca565b610354565b60405161016d9190613904565b60405180910390f35b61017e61037b565b60405161016d919061388c565b61014b610199366004613624565b61039a565b61017e6101ac3660046136eb565b610468565b610160610593565b61017e6105af565b61014b6101cf36600461359b565b610629565b61014b6106b5565b61014b6101ea3660046136ca565b6107a7565b6101606101fd3660046136ca565b610872565b61014b61088c565b61017e610900565b6101606102203660046136ca565b61090d565b61014b610233366004613401565b610927565b6101606102463660046136ca565b610b3a565b61014b610259366004613424565b610b54565b610266610fd0565b60405161016d91906137d5565b61014b610281366004613401565b610fdd565b61028e611126565b6001600160a01b031661029f610900565b6001600160a01b0316146102f05760405162461bcd60e51b81526020600482018190526024820152600080516020613d0e8339815191526044820152606401604051809103906102ed612dc6565b50505b600081815260ce6020526001906040902060018161030c612e31565b8160ff02191690831515021790610321612e8c565b505050807ff52508d5339edf0d7e5060a416df98db067af561bdc60872d29c0439eaa13a0260405160405180910390a250565b60006020528060005260406000206000915061036e612e31565b906101000a900460ff1681565b60006005610387612e31565b906101000a90046001600160a01b031681565b60006103b9845a6103a9612eda565b8560036103b4612e31565b611136565b905060016003600082826103cb612e31565b0192505081906103d9612e8c565b50505060016002600083805190602001208152602001908152602001600020600181610403612e31565b8160ff02191690831515021790610418612e8c565b50505061042b818363ffffffff16611187565b7f0ee9ffdb2334d78de97ffb066b23a352a4d35180cefb36589d663fbb1eb6f3268160405161045a9190613986565b60405180910390a150505050565b6000806005610475612e31565b906101000a90046001600160a01b03166001600160a01b031663bf40fac1836040518263ffffffff1660e01b81526004018080602001828103825283818151815260200191508051906020019080838360005b838110156104e05780820151838201526020016104c8565b50505050905090810190601f16801561050d5780820380516001836020036101000a031916815260200191505b50925050506020604051808303818680610525612f20565b15801561053a57600080610537612dc6565b50505b505a610544612f6c565b5050505050158015610563573d6000803e3d6000610560612dc6565b50505b505050506040513d60208110156105825760008061057f612dc6565b50505b81019080805193505050505b919050565b600080606a6105a0612e31565b906101000a900460ff16905090565b600061dead8160046105bf612e31565b906101000a90046001600160a01b03166001600160a01b031614156106085760405162461bcd60e51b81526004016105f690613999565b60405180910390610605612dc6565b50505b60006004610614612e31565b906101000a90046001600160a01b0316905090565b600061063786868686611136565b9050600260008280519060200120815260200190815260200160002060009061065e612e31565b906101000a900460ff161515600115151461069d5760405162461bcd60e51b815260040161068b90613a8e565b6040518091039061069a612dc6565b50505b6106ad818363ffffffff16611187565b505050505050565b6106bd611126565b6001600160a01b03166106ce610900565b6001600160a01b03161461071f5760405162461bcd60e51b81526020600482018190526024820152600080516020613d0e83398151915260448201526064016040518091039061071c612dc6565b50505b600080603861072c612e31565b906101000a90046001600160a01b03166001600160a01b03167f8be0079c531659141344cd1fd0a4f28419497f9722a3daafe3b4186f6b6457e060405160405180910390a360006038600181610780612e31565b816001600160a01b0302191690836001600160a01b03160217906107a2612e8c565b505050565b6107af611126565b6001600160a01b03166107c0610900565b6001600160a01b0316146108115760405162461bcd60e51b81526020600482018190526024820152600080516020613d0e83398151915260448201526064016040518091039061080e612dc6565b50505b600081815260ce6020526040812060018161082a612e31565b8160ff0219169083151502179061083f612e8c565b505050807f52c8a2680a9f4cc0ad0bf88f32096eadbebf0646ea611d93a0ce6a29a024040560405160405180910390a250565b60026020528060005260406000206000915061036e612e31565b610894611126565b6001600160a01b03166108a5610900565b6001600160a01b0316146108f65760405162461bcd60e51b81526020600482018190526024820152600080516020613d0e8339815191526044820152606401604051809103906108f3612dc6565b50505b6108fe61127e565b565b6000806038610614612e31565b60016020528060005260406000206000915061036e612e31565b60156005610933612e31565b906101000a900460ff168061094b575061094b61133f565b8061096957506014600561095d612e31565b906101000a900460ff16155b6109ad5760405162461bcd60e51b815260040180806020018281038252602e815260200180613cba602e9139604001915050604051809103906109aa612dc6565b50505b6000601560056109bb612e31565b906101000a900460ff161590508015610a245760016005600160a81b816109e0612e31565b8160ff021916908315150217906109f5612e8c565b5050506001600560146101000a81610a0b612e31565b8160ff02191690831515021790610a20612e8c565b5050505b6000806005610a31612e31565b906101000a90046001600160a01b03166001600160a01b031614610a795760405162461bcd60e51b8152600401610a6790613bb8565b60405180910390610a76612dc6565b50505b816005600181610a87612e31565b816001600160a01b0302191690836001600160a01b0316021790610aa9612e8c565b50505061dead600460006101000a81610ac0612e31565b816001600160a01b0302191690836001600160a01b0316021790610ae2612e8c565b505050610aed6113a8565b610af56114d5565b610afd611662565b610b0561176e565b8015610b365760006005600160a81b81610b1d612e31565b8160ff02191690831515021790610b32612e8c565b5050505b5050565b60ce6020528060005260406000206000915061036e612e31565b6002609c610b60612e31565b1415610bbb5760405162461bcd60e51b815260206004820152601f60248201527f5265656e7472616e637947756172643a207265656e7472616e742063616c6c00604482015260640160405180910390610bb8612dc6565b50505b600280609c610bc8612e8c565b5050506000610c0060405160408082019052601481527327ab26afa61926b2b9b9b0b3b2a932b630bcb2b960611b6020820152610468565b90506001600160a01b03811615610c5c57806001600160a01b03165a610c24612eda565b6001600160a01b031614610c5c5760405162461bcd60e51b8152600401610c4a90613b1b565b60405180910390610c59612dc6565b50505b610c64610593565b15610cb15760405162461bcd60e51b815260206004820152601060248201526f14185d5cd8589b194e881c185d5cd95960821b604482015260640160405180910390610cae612dc6565b50505b6000610cbf87878787611136565b9050610ccb8184611878565b1515600114610cfe5760405162461bcd60e51b8152600401610cec90613b71565b60405180910390610cfb612dc6565b50505b600081805190602001206000818152600160205290915060409020600090610d24612e31565b60ff6101009290920a90041615610d5f5760405162461bcd60e51b8152600401610d4d906139d0565b60405180910390610d5c612dc6565b50505b600081815260ce60205260409020600090610d78612e31565b60ff6101009290920a90041615610db35760405162461bcd60e51b8152600401610da190613ad9565b60405180910390610db0612dc6565b50505b866004600181610dc1612e31565b816001600160a01b0302191690836001600160a01b0316021790610de3612e8c565b5050506000886001600160a01b031687604051610e0091906137ec565b6000604051808303816000865a610e15613057565b5050505050509150503d8060008114610e4a576040513d603f01601f191681016040523d815291503d6000602084013e610e4f565b606091505b5050905061dead600460006101000a81610e67612e31565b816001600160a01b0302191690836001600160a01b0316021790610e89612e8c565b50505060018115151415610f07576000828152600160208190529060409020600181610eb3612e31565b8160ff02191690831515021790610ec8612e8c565b5050507f4641df4a962071e12719d8c8c8e5ac7fc4d97b927346a3d7a335b1f7517e133c82604051610efa91906137d5565b60405180910390a1610f3f565b7f99d0e048484baa1b1540b1367cb128acd7ab2946d1ed91ec10e3c85e4bf51b8f82604051610f3691906137d5565b60405180910390a15b6000835a610f4b612eda565b5a610f5461311d565b604051602001610f669392919061383a565b604051602081830303815290604052805190602001206000818152602081905290915060019060409020600181610f9b612e31565b8160ff02191690831515021790610fb0612e8c565b50505050505050506001609c8190610fc6612e8c565b5050505050505050565b6003610fda612e31565b81565b610fe5611126565b6001600160a01b0316610ff6610900565b6001600160a01b0316146110475760405162461bcd60e51b81526020600482018190526024820152600080516020613d0e833981519152604482015260640160405180910390611044612dc6565b50505b6001600160a01b0381166110955760405162461bcd60e51b8152600401808060200182810382526026815260200180613c6a6026913960400191505060405180910390611092612dc6565b50505b6001600160a01b038116600060386110ab612e31565b906101000a90046001600160a01b03166001600160a01b03167f8be0079c531659141344cd1fd0a4f28419497f9722a3daafe3b4186f6b6457e060405160405180910390a38060386001816110fe612e31565b816001600160a01b0302191690836001600160a01b0316021790611120612e8c565b50505050565b60005a611131612eda565b905090565b60608484848460405160240161114f94939291906138a0565b604051601f1981830301815260409190915263cbd4ece960e01b6020820180516001600160e01b031690911790529050949350505050565b6111c360405160408082019052601d81527f4f564d5f43616e6f6e6963616c5472616e73616374696f6e436861696e0000006020820152610468565b6001600160a01b0316636fee07e061120d60405160408082019052601a81527f4f564d5f4c3243726f7373446f6d61696e4d657373656e6765720000000000006020820152610468565b83856040518463ffffffff1660e01b815260040161122d939291906138dd565b60006040518083038160008780611242612f20565b15801561125757600080611254612dc6565b50505b505a611261613057565b5050505050501580156106ad573d6000803e3d6000610fc6612dc6565b611286610593565b156112d35760405162461bcd60e51b815260206004820152601060248201526f14185d5cd8589b194e881c185d5cd95960821b6044820152606401604051809103906112d0612dc6565b50505b6001606a81816112e1612e31565b8160ff021916908315150217906112f6612e8c565b5050507f62e78cea01bee320cd4e420270b5ea74000d11b0c9f74754ebdbfc544b05a258611322611126565b6040516001600160a01b03909116815260200160405180910390a1565b60006113a25a63996d79a5598160e01b8152602081600483336000905af158600e01573d6000803e3d6000fd5b3d6001141558600a015760016000f35b8051925060005b604081101561139a57600082820152602001611383565b50505061189d565b15905090565b601560056113b4612e31565b906101000a900460ff16806113cc57506113cc61133f565b806113ea5750601460056113de612e31565b906101000a900460ff16155b61142e5760405162461bcd60e51b815260040180806020018281038252602e815260200180613cba602e91396040019150506040518091039061142b612dc6565b50505b60006015600561143c612e31565b906101000a900460ff1615905080156114a55760016005600160a81b81611461612e31565b8160ff02191690831515021790611476612e8c565b5050506001600560146101000a8161148c612e31565b8160ff021916908315150217906114a1612e8c565b5050505b80156114d25760006005600160a81b816114bd612e31565b8160ff02191690831515021790611120612e8c565b50565b601560056114e1612e31565b906101000a900460ff16806114f957506114f961133f565b8061151757506014600561150b612e31565b906101000a900460ff16155b61155b5760405162461bcd60e51b815260040180806020018281038252602e815260200180613cba602e913960400191505060405180910390611558612dc6565b50505b600060156005611569612e31565b906101000a900460ff1615905080156115d25760016005600160a81b8161158e612e31565b8160ff021916908315150217906115a3612e8c565b5050506001600560146101000a816115b9612e31565b8160ff021916908315150217906115ce612e8c565b5050505b60006115dc611126565b90508060386001816115ec612e31565b816001600160a01b0302191690836001600160a01b031602179061160e612e8c565b5050506001600160a01b03811660007f8be0079c531659141344cd1fd0a4f28419497f9722a3daafe3b4186f6b6457e060405160405180910390a35080156114d25760006005600160a81b816114bd612e31565b6015600561166e612e31565b906101000a900460ff1680611686575061168661133f565b806116a4575060146005611698612e31565b906101000a900460ff16155b6116e85760405162461bcd60e51b815260040180806020018281038252602e815260200180613cba602e9139604001915050604051809103906116e5612dc6565b50505b6000601560056116f6612e31565b906101000a900460ff16159050801561175f5760016005600160a81b8161171b612e31565b8160ff02191690831515021790611730612e8c565b5050506001600560146101000a81611746612e31565b8160ff0219169083151502179061175b612e8c565b5050505b6000606a60018161148c612e31565b6015600561177a612e31565b906101000a900460ff1680611792575061179261133f565b806117b05750601460056117a4612e31565b906101000a900460ff16155b6117f45760405162461bcd60e51b815260040180806020018281038252602e815260200180613cba602e9139604001915050604051809103906117f1612dc6565b50505b600060156005611802612e31565b906101000a900460ff16159050801561186b5760016005600160a81b81611827612e31565b8160ff0219169083151502179061183c612e8c565b5050506001600560146101000a81611852612e31565b8160ff02191690831515021790611867612e8c565b5050505b600180609c6114a1612e8c565b6000611883826118b2565b801561189457506118948383611a53565b90505b92915050565b600080826118a9612f20565b15159392505050565b6000806118f160405160408082019052601881527f4f564d5f5374617465436f6d6d69746d656e74436861696e00000000000000006020820152610468565b9050806001600160a01b0316639418bddd84602001516040518263ffffffff1660e01b81526004016119239190613c02565b6020604051808303818680611936612f20565b15801561194b57600080611948612dc6565b50505b505a611955612f6c565b5050505050158015611974573d6000803e3d6000611971612dc6565b50505b50505050604051601f3d908101601f191682016040526119979190810190613692565b158015611a4c57506001600160a01b038116634d69ee578451856020015186604001516040518463ffffffff1660e01b81526004016119d89392919061390f565b60206040518083038186806119eb612f20565b158015611a00576000806119fd612dc6565b50505b505a611a0a612f6c565b5050505050158015611a29573d6000803e3d6000611a26612dc6565b50505b50505050604051601f3d908101601f19168201604052611a4c9190810190613692565b9392505050565b60008083611a9360405160408082019052601a81527f4f564d5f4c3243726f7373446f6d61696e4d657373656e6765720000000000006020820152610468565b604051602001611aa4929190613808565b604051602081830303815290604052805190602001206000604051602001611acd9291906137de565b604051602081830303815290604052805190602001209050600080611b1b602160991b604051602001611b0091906137bd565b60405160208183030381529060405286606001518751611bbf565b9092509050600182151514611b545760405162461bcd60e51b8152600401611b4290613a1b565b60405180910390611b51612dc6565b50505b6000611b5f82611be8565b9050611bb484604051602001611b7591906137d5565b6040516020818303038152906040526001604051602001611b969190613874565b60405160208183030381529060405288608001518460400151611c7a565b979650505050505050565b600060606000611bce86611c9e565b9050611bdb818686611cce565b9250925050935093915050565b611bf0613163565b6000611bfb83611da9565b90506040518060800160405280611c2583600081518110611c1857fe5b6020026020010151611dbc565b8152602001611c3a83600181518110611c1857fe5b8152602001611c5c83600281518110611c4f57fe5b6020026020010151611dc3565b8152602001611c7183600381518110611c4f57fe5b90529392505050565b600080611c8686611c9e565b9050611c9481868686611ed0565b9695505050505050565b60608180519060200120604051602001611cb891906137d5565b6040516020818303038152906040529050919050565b600060606000611cdd85611ef6565b90506000806000611cef848a89611fd5565b925092509250600082511590508080611d055750815b611d5e5760405162461bcd60e51b815260206004820152601a60248201527f50726f76696465642070726f6f6620697320696e76616c69642e000000000000604482015260640160405180910390611d5b612dc6565b50505b600081611d78576040516020810160405260008152611d97565b611d97866001870381518110611d8a57fe5b602002602001015161239c565b919b919a509098505050505050505050565b6060611897611db7836123b9565b6123e1565b6000611897825b6000602182511115611e245760405162461bcd60e51b815260206004820152601a60248201527f496e76616c696420524c5020627974657333322076616c75652e000000000000604482015260640160405180910390611e21612dc6565b50505b6000806000611e328561256d565b919450925090506000816001811115611e4757fe5b14611ea15760405162461bcd60e51b815260206004820152601a60248201527f496e76616c696420524c5020627974657333322076616c75652e000000000000604482015260640160405180910390611e9e612dc6565b50505b60008386602001510190506000815190506020841015611c945760208490036101000a90049695505050505050565b6000806000611ee0878686611cce565b91509150818015611bb45750611bb486826128c8565b60606000611f0383611da9565b90506000815167ffffffffffffffff81118015611f2857600080611f25612dc6565b50505b50604051908082528060200260200182016040528015611f6257816020015b611f4f613189565b815260200190600190039081611f475790505b50905060005b8251811015611fcd576000611f8f848381518110611f8257fe5b60200260200101516128e2565b90506040518060400160405280828152602001611fab83611da9565b9052838381518110611fb957fe5b602090810291909101015250600101611f68565b509392505050565b60006060818080611fe587612979565b905085600080611ff3613189565b60005b8c51811015612374578c818151811061200b57fe5b6020026020010151600197909701969383019391508361208257848251805190602001201461207d5760405162461bcd60e51b8152602060048201526011602482015270092dcecc2d8d2c840e4dedee840d0c2e6d607b1b60448201526064016040518091039061207a612dc6565b50505b612152565b6020825151106120ed57848251805190602001201461207d5760405162461bcd60e51b815260206004820152601b60248201527f496e76616c6964206c6172676520696e7465726e616c2068617368000000000060448201526064016040518091039061207a612dc6565b846120f88351612a79565b146121525760405162461bcd60e51b815260206004820152601a60248201527f496e76616c696420696e7465726e616c206e6f6465206861736800000000000060448201526064016040518091039061214f612dc6565b50505b601160208301515114156121bb57855184141561216e57612374565b600086858151811061217c57fe5b602001015160f81c9050600060208401518260ff168151811061219b57fe5b602002602001015190506121ae81612aaf565b965060019450505061236c565b600282602001515114156123175760006121d483612ae2565b90506000816000815181106121e557fe5b602001015160f81c90506001811660020360006122058460ff8416612b00565b905060006122138b8a612b00565b905060006122218383612b2d565b905060ff851660021480612238575060ff85166003145b1561226a5780835114801561224d5750808251145b1561225757988901985b50600160ff1b9950612374945050505050565b60ff8516158061227d575060ff85166001145b156122cd578251811461229d5750600160ff1b9950612374945050505050565b6122be88602001516001815181106122b157fe5b6020026020010151612aaf565b9a50975061236c945050505050565b60405162461bcd60e51b8152600401808060200182810382526026815260200180613ce8602691396040019150506040518091039061230a612dc6565b505050505050505061236c565b60405162461bcd60e51b815260206004820152601d60248201527f526563656976656420616e20756e706172736561626c65206e6f64652e000000604482015260640160405180910390612369612dc6565b50505b600101611ff6565b50600160ff1b8414866123878786612b00565b909e909d50909b509950505050505050505050565b6060611897826020015160018460200151510381518110611f8257fe5b6123c16131a0565b602082016040518060400160405280845181526020019190915292915050565b60606000806123ef8461256d565b9193509091506001905081600181111561240557fe5b1461245f5760405162461bcd60e51b815260206004820152601760248201527f496e76616c696420524c50206c6973742076616c75652e00000000000000000060448201526064016040518091039061245c612dc6565b50505b6000602060405190808252806020026020018201604052801561249c57816020015b6124896131a0565b8152602001906001900390816124815790505b5090506000835b865181101561256257602082106124f45760405162461bcd60e51b815260040180806020018281038252602a815260200180613c90602a9139604001915050604051809103906124f1612dc6565b50505b60008061251c6040516040808201905280858c51038152602001858c6020015101905261256d565b509150915060405180604001604052808383018152602001848b6020015101905285858151811061254957fe5b60209081029190910101526001939093019201016124a3565b508152949350505050565b60008080808451116125ce5760405162461bcd60e51b815260206004820152601860248201527f524c50206974656d2063616e6e6f74206265206e756c6c2e00000000000000006044820152606401604051809103906125cb612dc6565b50505b6000846020015190506000815160001a9050607f81116125fb5760006001600094509450945050506128c1565b60b7811161267757607f198101808751116126655760405162461bcd60e51b815260206004820152601960248201527f496e76616c696420524c502073686f727420737472696e672e00000000000000604482015260640160405180910390612662612dc6565b50505b600195509350600092506128c1915050565b60bf81116127675760b6198101808751116126e15760405162461bcd60e51b815260206004820152601f60248201527f496e76616c696420524c50206c6f6e6720737472696e67206c656e6774682e006044820152606401604051809103906126de612dc6565b50505b6000816020036101000a60018501510490508181018851116127525760405162461bcd60e51b815260206004820152601860248201527f496e76616c696420524c50206c6f6e6720737472696e672e000000000000000060448201526064016040518091039061274f612dc6565b50505b600190910195509350600092506128c1915050565b60f781116127e25760bf198101808751116127d15760405162461bcd60e51b815260206004820152601760248201527f496e76616c696420524c502073686f7274206c6973742e0000000000000000006044820152606401604051809103906127ce612dc6565b50505b6001955093508492506128c1915050565b60f6198101808751116128445760405162461bcd60e51b815260206004820152601d60248201527f496e76616c696420524c50206c6f6e67206c697374206c656e6774682e000000604482015260640160405180910390612841612dc6565b50505b6000816020036101000a60018501510490508181018851116128ae5760405162461bcd60e51b815260206004820152601660248201527524b73b30b634b210292628103637b733903634b9ba1760511b6044820152606401604051809103906128ab612dc6565b50505b60019182019650945092506128c1915050565b9193909250565b600081805190602001208380519060200120149392505050565b606060008060006128f28561256d565b91945092509050600081600181111561290757fe5b146129615760405162461bcd60e51b815260206004820152601860248201527f496e76616c696420524c502062797465732076616c75652e000000000000000060448201526064016040518091039061295e612dc6565b50505b61297085602001518484612b8d565b95945050505050565b60606000825160020267ffffffffffffffff811180156129a15760008061299e612dc6565b50505b50604051818152601f19601f83011681016020016040529080156129cc576020820181803683370190505b50905060005b8351811015612a725760048482815181106129e957fe5b60200101516001600160f81b031916901c826002830281518110612a0957fe5b60200101906001600160f81b031916908160001a9053506010848281518110612a2e57fe5b602001015160f81c81612a3d57fe5b0660f81b828260020260010181518110612a5357fe5b60200101906001600160f81b031916908160001a9053506001016129d2565b5092915050565b6000602082511015612a955760006020830151915061058e9050565b60208201825160208110156105825760008061057f612dc6565b60006060602083511015612acd57612ac683612c3f565b9050612ad9565b612ad6836128e2565b90505b611a4c81612a79565b6060611897612afb8360200151600081518110611f8257fe5b612979565b606082518210612b1f5760405160208101604052600081529050611897565b611894838384865103612c4a565b6000805b808451118015612b415750808351115b8015612b805750828181518110612b5457fe5b60200101516001600160f81b031916848281518110612b6f57fe5b60200101516001600160f81b031916145b1561189457600101612b31565b606060008267ffffffffffffffff81118015612bb157600080612bae612dc6565b50505b50604051818152601f19601f8301168101602001604052908015612bdc576020820181803683370190505b5090508051612bec579050611a4c565b8484016020820160005b60208604811015612c17578251825260209283019290910190600101612bf6565b50600019601f86166020036101000a0180825116811984511617909152509095945050505050565b606061189782612db3565b60608182601f011015612c9d5760405162461bcd60e51b815260206004820152600e60248201526d736c6963655f6f766572666c6f7760901b604482015260640160405180910390612c9a612dc6565b50505b828284011015612ced5760405162461bcd60e51b815260206004820152600e60248201526d736c6963655f6f766572666c6f7760901b604482015260640160405180910390612cea612dc6565b50505b81830184511015612d415760405162461bcd60e51b8152602060048201526011602482015270736c6963655f6f75744f66426f756e647360781b604482015260640160405180910390612d3e612dc6565b50505b606082158015612d605760405191506000825260208201604052612daa565b6040519150601f8416801560200281840101858101878315602002848b0101015b81831015612d99578051835260209283019201612d81565b5050858452601f01601f1916604052505b50949350505050565b6060611897826020015160008451612b8d565b632a2a7adb598160e01b8152600481016020815285602082015260005b86811015612dfe578086015182820160400152602001612de3565b506020828760640184336000905af158600e01573d6000803e3d6000fd5b3d6001141558600a015760016000f35b505050565b6303daa959598160e01b8152836004820152602081602483336000905af158600e01573d6000803e3d6000fd5b3d6001141558600a015760016000f35b8051935060005b60408110156107a257600082820152602001612e75565b6322bd64c0598160e01b8152836004820152846024820152600081604483336000905af158600e01573d6000803e3d6000fd5b3d6001141558600a015760016000f35b600081526020612e75565b6373509064598160e01b8152602081600483336000905af158600e01573d6000803e3d6000fd5b3d6001141558600a015760016000f35b80516000825293506020612e75565b638435035b598160e01b8152836004820152602081602483336000905af158600e01573d6000803e3d6000fd5b3d6001141558600a015760016000f35b80516000825293506020612e75565b638540661f598160e01b8152612f9d565b8080831115611897575090919050565b8080831015611897575090919050565b836004820152846024820152606060448201528660648201526084810160005b88811015612fd5578088015182820152602001612fbd565b506060828960a40184336000905af158600e01573d6000803e3d6000fd5b3d6001141558600a015760016000f35b815160408301513d6000853e8b8b82606087013350600060045af1505961302a8d3d612f8d565b8c016130368187612f7d565b5b8281101561304b5760008152602001613037565b50929c50505050505050565b6385979f76598160e01b8152836004820152846024820152606060448201528760648201526084810160005b8981101561309b578089015182820152602001613083565b506060828a60a40184336000905af158600e01573d6000803e3d6000fd5b3d6001141558600a015760016000f35b815160408301513d6000853e8c8c82606087013350600060045af150596130f08e3d612f8d565b8d016130fc8187612f7d565b5b8281101561311157600081526020016130fd565b50929d50505050505050565b635a98c361598160e01b8152602081600483336000905af158600e01573d6000803e3d6000fd5b3d6001141558600a015760016000f35b80516000825293506020612e75565b604051608081016040908152600080835260208301819052908201819052606082015290565b604051604080820190526060808252602082015290565b604051604080820190526000808252602082015290565b600067ffffffffffffffff8311156131cb57fe5b6131de601f8401601f1916602001613c15565b90508281528383830111156131fb576000806131f8612dc6565b50505b828260208301376000602084830101529392505050565b80356001600160a01b038116811461058e5760008061322f612dc6565b5050919050565b600082601f83011261324f57808161324c612dc6565b50505b611894838335602085016131b7565b600060a08284031215613278578081613275612dc6565b50505b60405160a0810167ffffffffffffffff828210818311171561329657fe5b816040528293508435835260208501356020840152604085013560408401526060850135606084015260808501359150808211156132dc576000806132d9612dc6565b50505b506132e985828601613236565b6080830152505092915050565b60006040828403121561331057808161330d612dc6565b50505b6040516040810167ffffffffffffffff828210818311171561332e57fe5b816040528293508435835260209150818501358181111561335757600080613354612dc6565b50505b8501601f810187136133715760008061336e612dc6565b50505b80358281111561337d57fe5b838102925061338d848401613c15565b8181528481019083860185850187018b10156133b1576000806133ae612dc6565b50505b600095505b838610156133d45780358352600195909501949186019186016133b6565b5080868801525050505050505092915050565b803563ffffffff8116811461058e5760008061322f612dc6565b60006020828403121561341b578081613418612dc6565b50505b61189482613212565b600080600080600060a08688031215613444578081613441612dc6565b50505b61344d86613212565b945061345b60208701613212565b9350604086013567ffffffffffffffff8082111561348057828361347d612dc6565b50505b61348c89838a01613236565b94506060880135935060808801359150808211156134b15782836134ae612dc6565b50505b9087019060a0828a0312156134cd5782836134ca612dc6565b50505b6134d760a0613c15565b823581526020830135828111156134f55784856134f2612dc6565b50505b6135018b82860161325e565b60208301525060408301358281111561352157848561351e612dc6565b50505b61352d8b8286016132f6565b60408301525060608301358281111561354d57848561354a612dc6565b50505b6135598b828601613236565b606083015250608083013582811115613579578485613576612dc6565b50505b6135858b828601613236565b6080830152508093505050509295509295909350565b600080600080600060a086880312156135bb5780816135b8612dc6565b50505b6135c486613212565b94506135d260208701613212565b9350604086013567ffffffffffffffff8111156135f65781826135f3612dc6565b50505b61360288828901613236565b93505060608601359150613618608087016133e7565b90509295509295909350565b60008060006060848603121561364157828361363e612dc6565b50505b61364a84613212565b9250602084013567ffffffffffffffff81111561366e57828361366b612dc6565b50505b61367a86828701613236565b925050613689604085016133e7565b90509250925092565b6000602082840312156136ac5780816136a9612dc6565b50505b815180151581146118945781826136c1612dc6565b50509392505050565b6000602082840312156136e45780816136e1612dc6565b50505b5035919050565b600060208284031215613705578081613702612dc6565b50505b813567ffffffffffffffff811115613724578182613721612dc6565b50505b8201601f8101841361373d57818261373a612dc6565b50505b61374c848235602084016131b7565b949350505050565b6000815180845261376c816020860160208601613c3d565b601f01601f19169290920160200192915050565b600081518352602082015160208401526040820151604084015260608201516060840152608082015160a0608085015261374c60a0850182613754565b60609190911b6001600160601b031916815260140190565b90815260200190565b918252602082015260400190565b600082516137fe818460208701613c3d565b9190910192915050565b6000835161381a818460208801613c3d565b60609390931b6001600160601b0319169190920190815260140192915050565b6000845161384c818460208901613c3d565b60609490941b6001600160601b03191691909301908152601481019190915260340192915050565b60f89190911b6001600160f81b031916815260010190565b6001600160a01b0391909116815260200190565b6001600160a01b038581168252841660208201526080604082018190526000906138cc90830185613754565b905082606083015295945050505050565b600060018060a01b0385168252836020830152606060408301526129706060830184613754565b901515815260200190565b600084825260206060818401526139296060840186613780565b838103604085015260408101855182528286015160408484015281815180845260608501915085830194508693505b808410156139785784518252938501936001939093019290850190613958565b509998505050505050505050565b6000602082526118946020830184613754565b6020808252601f908201527f78446f6d61696e4d65737361676553656e646572206973206e6f742073657400604082015260600190565b6020808252602b908201527f50726f7669646564206d6573736167652068617320616c72656164792062656560408201526a37103932b1b2b4bb32b21760a91b606082015260800190565b6020808252604d908201527f4d6573736167652070617373696e67207072656465706c6f7920686173206e6f60408201527f74206265656e20696e697469616c697a6564206f7220696e76616c696420707260608201526c37b7b310383937bb34b232b21760991b608082015260a00190565b6020808252602b908201527f50726f7669646564206d65737361676520686173206e6f7420616c726561647960408201526a103132b2b71039b2b73a1760a91b606082015260800190565b60208082526022908201527f50726f7669646564206d65737361676520686173206265656e20626c6f636b65604082015261321760f11b606082015260800190565b60208082526036908201527f4f6e6c79204f564d5f4c324d65737361676552656c617965722063616e2072656040820152753630bc90261916ba3796a6189036b2b9b9b0b3b2b99760511b606082015260800190565b60208082526027908201527f50726f7669646564206d65737361676520636f756c64206e6f742062652076656040820152663934b334b2b21760c91b606082015260800190565b6020808252602a908201527f4c3143726f7373446f6d61696e4d657373656e67657220616c72656164792069604082015269373a34b0b634bd32b21760b11b606082015260800190565b6000602082526118946020830184613780565b6000604051905081810181811067ffffffffffffffff82111715613c3557fe5b604052919050565b60005b83811015613c58578082015183820152602001613c40565b83811115611120575050600091015256fe4f776e61626c653a206e6577206f776e657220697320746865207a65726f206164647265737350726f766964656420524c50206c6973742065786365656473206d6178206c697374206c656e6774682e496e697469616c697a61626c653a20636f6e747261637420697320616c726561647920696e697469616c697a656452656365697665642061206e6f6465207769746820616e20756e6b6e6f776e207072656669784f776e61626c653a2063616c6c6572206973206e6f7420746865206f776e6572",
  "linkReferences": {},
  "deployedLinkReferences": {}
}