{
  "address": "0x47443D0C184e022F19BD1578F5bca6B8a9F58E32",
  "abi": [
    {
      "inputs": [
        {
          "internalType": "bytes",
          "name": "",
          "type": "bytes"
        }
      ],
      "name": "check",
      "outputs": [
        {
          "internalType": "bool",
          "name": "",
          "type": "bool"
        }
      ],
      "stateMutability": "pure",
      "type": "function"
    }
  ],
  "transactionHash": "0x24cd6437a28b245c14e11cdb849a1c7fa5a4f4e7f7ccb9ddb72c837479167cce",
  "args": [],
  "numDeployments": 1,
  "solcInputHash": "cb12280dddcf446d7c90129cbaba29bb",
  "bytecode": "0x608060405234801561001057600080fd5b5061018c806100206000396000f3fe608060405234801561001057600080fd5b506004361061002b5760003560e01c8063c64b3bb514610030575b600080fd5b61004461003e366004610087565b50600190565b604051901515815260200160405180910390f35b7f4e487b7100000000000000000000000000000000000000000000000000000000600052604160045260246000fd5b60006020828403121561009957600080fd5b813567ffffffffffffffff808211156100b157600080fd5b818401915084601f8301126100c557600080fd5b8135818111156100d7576100d7610058565b604051601f82017fffffffffffffffffffffffffffffffffffffffffffffffffffffffffffffffe0908116603f0116810190838211818310171561011d5761011d610058565b8160405282815287602084870101111561013657600080fd5b82602086016020830137600092810160200192909252509594505050505056fea2646970667358221220e75519244b9d5ac4ed30ca10eb8a4940711a06bf13b8a7953e0a550561861e0164736f6c634300080f0033",
  "devdoc": {
    "kind": "dev",
    "methods": {},
    "title": "CheckTrue",
    "version": 1
  },
  "userdoc": {
    "kind": "user",
    "methods": {},
    "notice": "DripCheck that always returns true.",
    "version": 1
  },
  "storageLayout": {
    "storage": [],
    "types": null
  }
}