{
  "address": "0x8D8d533C16D23847EB04EEB0925be8900Dd3af86",
  "abi": [
    {
      "inputs": [
        {
          "internalType": "address",
          "name": "_owner",
          "type": "address"
        }
      ],
      "stateMutability": "nonpayable",
      "type": "constructor"
    },
    {
      "anonymous": false,
      "inputs": [
        {
          "indexed": true,
          "internalType": "string",
          "name": "nameref",
          "type": "string"
        },
        {
          "indexed": false,
          "internalType": "string",
          "name": "name",
          "type": "string"
        },
        {
          "components": [
            {
              "internalType": "uint256",
              "name": "interval",
              "type": "uint256"
            },
            {
              "internalType": "contract IDripCheck",
              "name": "dripcheck",
              "type": "address"
            },
            {
              "internalType": "bytes",
              "name": "checkparams",
              "type": "bytes"
            },
            {
              "components": [
                {
                  "internalType": "address payable",
                  "name": "target",
                  "type": "address"
                },
                {
                  "internalType": "bytes",
                  "name": "data",
                  "type": "bytes"
                },
                {
                  "internalType": "uint256",
                  "name": "value",
                  "type": "uint256"
                }
              ],
              "internalType": "struct Drippie.DripAction[]",
              "name": "actions",
              "type": "tuple[]"
            }
          ],
          "indexed": false,
          "internalType": "struct Drippie.DripConfig",
          "name": "config",
          "type": "tuple"
        }
      ],
      "name": "DripCreated",
      "type": "event"
    },
    {
      "anonymous": false,
      "inputs": [
        {
          "indexed": true,
          "internalType": "string",
          "name": "nameref",
          "type": "string"
        },
        {
          "indexed": false,
          "internalType": "string",
          "name": "name",
          "type": "string"
        },
        {
          "indexed": false,
          "internalType": "address",
          "name": "executor",
          "type": "address"
        },
        {
          "indexed": false,
          "internalType": "uint256",
          "name": "timestamp",
          "type": "uint256"
        }
      ],
      "name": "DripExecuted",
      "type": "event"
    },
    {
      "anonymous": false,
      "inputs": [
        {
          "indexed": true,
          "internalType": "string",
          "name": "nameref",
          "type": "string"
        },
        {
          "indexed": false,
          "internalType": "string",
          "name": "name",
          "type": "string"
        },
        {
          "indexed": false,
          "internalType": "enum Drippie.DripStatus",
          "name": "status",
          "type": "uint8"
        }
      ],
      "name": "DripStatusUpdated",
      "type": "event"
    },
    {
      "anonymous": false,
      "inputs": [
        {
          "indexed": true,
          "internalType": "address",
          "name": "user",
          "type": "address"
        },
        {
          "indexed": true,
          "internalType": "address",
          "name": "newOwner",
          "type": "address"
        }
      ],
      "name": "OwnerUpdated",
      "type": "event"
    },
    {
      "anonymous": false,
      "inputs": [
        {
          "indexed": true,
          "internalType": "address",
          "name": "from",
          "type": "address"
        },
        {
          "indexed": false,
          "internalType": "uint256",
          "name": "amount",
          "type": "uint256"
        }
      ],
      "name": "ReceivedETH",
      "type": "event"
    },
    {
      "anonymous": false,
      "inputs": [
        {
          "indexed": true,
          "internalType": "address",
          "name": "withdrawer",
          "type": "address"
        },
        {
          "indexed": true,
          "internalType": "address",
          "name": "recipient",
          "type": "address"
        },
        {
          "indexed": true,
          "internalType": "address",
          "name": "asset",
          "type": "address"
        },
        {
          "indexed": false,
          "internalType": "uint256",
          "name": "amount",
          "type": "uint256"
        }
      ],
      "name": "WithdrewERC20",
      "type": "event"
    },
    {
      "anonymous": false,
      "inputs": [
        {
          "indexed": true,
          "internalType": "address",
          "name": "withdrawer",
          "type": "address"
        },
        {
          "indexed": true,
          "internalType": "address",
          "name": "recipient",
          "type": "address"
        },
        {
          "indexed": true,
          "internalType": "address",
          "name": "asset",
          "type": "address"
        },
        {
          "indexed": false,
          "internalType": "uint256",
          "name": "id",
          "type": "uint256"
        }
      ],
      "name": "WithdrewERC721",
      "type": "event"
    },
    {
      "anonymous": false,
      "inputs": [
        {
          "indexed": true,
          "internalType": "address",
          "name": "withdrawer",
          "type": "address"
        },
        {
          "indexed": true,
          "internalType": "address",
          "name": "recipient",
          "type": "address"
        },
        {
          "indexed": false,
          "internalType": "uint256",
          "name": "amount",
          "type": "uint256"
        }
      ],
      "name": "WithdrewETH",
      "type": "event"
    },
    {
      "inputs": [
        {
          "internalType": "address",
          "name": "_target",
          "type": "address"
        },
        {
          "internalType": "bytes",
          "name": "_data",
          "type": "bytes"
        },
        {
          "internalType": "uint256",
          "name": "_gas",
          "type": "uint256"
        },
        {
          "internalType": "uint256",
          "name": "_value",
          "type": "uint256"
        }
      ],
      "name": "CALL",
      "outputs": [
        {
          "internalType": "bool",
          "name": "",
          "type": "bool"
        },
        {
          "internalType": "bytes",
          "name": "",
          "type": "bytes"
        }
      ],
      "stateMutability": "payable",
      "type": "function"
    },
    {
      "inputs": [
        {
          "internalType": "address",
          "name": "_target",
          "type": "address"
        },
        {
          "internalType": "bytes",
          "name": "_data",
          "type": "bytes"
        },
        {
          "internalType": "uint256",
          "name": "_gas",
          "type": "uint256"
        }
      ],
      "name": "DELEGATECALL",
      "outputs": [
        {
          "internalType": "bool",
          "name": "",
          "type": "bool"
        },
        {
          "internalType": "bytes",
          "name": "",
          "type": "bytes"
        }
      ],
      "stateMutability": "payable",
      "type": "function"
    },
    {
      "inputs": [
        {
          "internalType": "string",
          "name": "_name",
          "type": "string"
        },
        {
          "components": [
            {
              "internalType": "uint256",
              "name": "interval",
              "type": "uint256"
            },
            {
              "internalType": "contract IDripCheck",
              "name": "dripcheck",
              "type": "address"
            },
            {
              "internalType": "bytes",
              "name": "checkparams",
              "type": "bytes"
            },
            {
              "components": [
                {
                  "internalType": "address payable",
                  "name": "target",
                  "type": "address"
                },
                {
                  "internalType": "bytes",
                  "name": "data",
                  "type": "bytes"
                },
                {
                  "internalType": "uint256",
                  "name": "value",
                  "type": "uint256"
                }
              ],
              "internalType": "struct Drippie.DripAction[]",
              "name": "actions",
              "type": "tuple[]"
            }
          ],
          "internalType": "struct Drippie.DripConfig",
          "name": "_config",
          "type": "tuple"
        }
      ],
      "name": "create",
      "outputs": [],
      "stateMutability": "nonpayable",
      "type": "function"
    },
    {
      "inputs": [
        {
          "internalType": "string",
          "name": "_name",
          "type": "string"
        }
      ],
      "name": "drip",
      "outputs": [],
      "stateMutability": "nonpayable",
      "type": "function"
    },
    {
      "inputs": [
        {
          "internalType": "string",
          "name": "",
          "type": "string"
        }
      ],
      "name": "drips",
      "outputs": [
        {
          "internalType": "enum Drippie.DripStatus",
          "name": "status",
          "type": "uint8"
        },
        {
          "components": [
            {
              "internalType": "uint256",
              "name": "interval",
              "type": "uint256"
            },
            {
              "internalType": "contract IDripCheck",
              "name": "dripcheck",
              "type": "address"
            },
            {
              "internalType": "bytes",
              "name": "checkparams",
              "type": "bytes"
            },
            {
              "components": [
                {
                  "internalType": "address payable",
                  "name": "target",
                  "type": "address"
                },
                {
                  "internalType": "bytes",
                  "name": "data",
                  "type": "bytes"
                },
                {
                  "internalType": "uint256",
                  "name": "value",
                  "type": "uint256"
                }
              ],
              "internalType": "struct Drippie.DripAction[]",
              "name": "actions",
              "type": "tuple[]"
            }
          ],
          "internalType": "struct Drippie.DripConfig",
          "name": "config",
          "type": "tuple"
        },
        {
          "internalType": "uint256",
          "name": "last",
          "type": "uint256"
        },
        {
          "internalType": "uint256",
          "name": "count",
          "type": "uint256"
        }
      ],
      "stateMutability": "view",
      "type": "function"
    },
    {
      "inputs": [
        {
          "internalType": "string",
          "name": "_name",
          "type": "string"
        }
      ],
      "name": "executable",
      "outputs": [
        {
          "internalType": "bool",
          "name": "",
          "type": "bool"
        }
      ],
      "stateMutability": "view",
      "type": "function"
    },
    {
      "inputs": [],
      "name": "owner",
      "outputs": [
        {
          "internalType": "address",
          "name": "",
          "type": "address"
        }
      ],
      "stateMutability": "view",
      "type": "function"
    },
    {
      "inputs": [
        {
          "internalType": "address",
          "name": "newOwner",
          "type": "address"
        }
      ],
      "name": "setOwner",
      "outputs": [],
      "stateMutability": "nonpayable",
      "type": "function"
    },
    {
      "inputs": [
        {
          "internalType": "string",
          "name": "_name",
          "type": "string"
        },
        {
          "internalType": "enum Drippie.DripStatus",
          "name": "_status",
          "type": "uint8"
        }
      ],
      "name": "status",
      "outputs": [],
      "stateMutability": "nonpayable",
      "type": "function"
    },
    {
      "inputs": [
        {
          "internalType": "contract ERC20",
          "name": "_asset",
          "type": "address"
        },
        {
          "internalType": "address",
          "name": "_to",
          "type": "address"
        },
        {
          "internalType": "uint256",
          "name": "_amount",
          "type": "uint256"
        }
      ],
      "name": "withdrawERC20",
      "outputs": [],
      "stateMutability": "nonpayable",
      "type": "function"
    },
    {
      "inputs": [
        {
          "internalType": "contract ERC20",
          "name": "_asset",
          "type": "address"
        },
        {
          "internalType": "address",
          "name": "_to",
          "type": "address"
        }
      ],
      "name": "withdrawERC20",
      "outputs": [],
      "stateMutability": "nonpayable",
      "type": "function"
    },
    {
      "inputs": [
        {
          "internalType": "contract ERC721",
          "name": "_asset",
          "type": "address"
        },
        {
          "internalType": "address",
          "name": "_to",
          "type": "address"
        },
        {
          "internalType": "uint256",
          "name": "_id",
          "type": "uint256"
        }
      ],
      "name": "withdrawERC721",
      "outputs": [],
      "stateMutability": "nonpayable",
      "type": "function"
    },
    {
      "inputs": [
        {
          "internalType": "address payable",
          "name": "_to",
          "type": "address"
        },
        {
          "internalType": "uint256",
          "name": "_amount",
          "type": "uint256"
        }
      ],
      "name": "withdrawETH",
      "outputs": [],
      "stateMutability": "nonpayable",
      "type": "function"
    },
    {
      "inputs": [
        {
          "internalType": "address payable",
          "name": "_to",
          "type": "address"
        }
      ],
      "name": "withdrawETH",
      "outputs": [],
      "stateMutability": "nonpayable",
      "type": "function"
    },
    {
      "stateMutability": "payable",
      "type": "receive"
    }
  ],
  "transactionHash": "0xce71abe3a40dce0243fa31e639995deba791fa6d05de5a0ae33ef3d3b8752764",
  "args": [
    "0x9C6373dE60c2D3297b18A8f964618ac46E011B58"
  ],
  "numDeployments": 1,
  "solcInputHash": "cb12280dddcf446d7c90129cbaba29bb",
  "bytecode": "0x60806040523480156200001157600080fd5b50604051620026003803806200260083398101604081905262000034916200008c565b600080546001600160a01b0319166001600160a01b03831690811782556040518392839283929091907f8292fce18fa69edf4db7b94ea2e58241df0ae57f97e0a6c9b29067028bf92d76908290a350505050620000be565b6000602082840312156200009f57600080fd5b81516001600160a01b0381168114620000b757600080fd5b9392505050565b61253280620000ce6000396000f3fe6080604052600436106100e15760003560e01c8063690d83201161007f5780639456fbcc116100595780639456fbcc146102b05780639bc94d01146102d05780639e73dbea146102f0578063fc3e3eba1461030357600080fd5b8063690d83201461021e5780636f0488131461023e5780638da5cb5b1461025e57600080fd5b80634782f779116100bb5780634782f779146101845780634d7fba6e146101a45780635cef8b4a146101dd57806367148cd2146101fe57600080fd5b806313af4035146101225780634025feb21461014457806344004cc11461016457600080fd5b3661011d5760405134815233907f4103257eaac983ca79a70d28f90dfc4fa16b619bb0c17ee7cab0d4034c2796249060200160405180910390a2005b600080fd5b34801561012e57600080fd5b5061014261013d3660046119e8565b610333565b005b34801561015057600080fd5b5061014261015f366004611a0c565b61040f565b34801561017057600080fd5b5061014261017f366004611a0c565b610587565b34801561019057600080fd5b5061014261019f366004611a4d565b6106fe565b3480156101b057600080fd5b506101c46101bf366004611b95565b6107fa565b6040516101d49493929190611d60565b60405180910390f35b6101f06101eb366004611d93565b610a18565b6040516101d4929190611dec565b34801561020a57600080fd5b50610142610219366004611b95565b610af7565b34801561022a57600080fd5b506101426102393660046119e8565b610d6e565b34801561024a57600080fd5b50610142610259366004611e07565b610de2565b34801561026a57600080fd5b5060005461028b9073ffffffffffffffffffffffffffffffffffffffff1681565b60405173ffffffffffffffffffffffffffffffffffffffff90911681526020016101d4565b3480156102bc57600080fd5b506101426102cb366004611fad565b6110b9565b3480156102dc57600080fd5b506101426102eb366004611fe6565b6111ba565b6101f06102fe366004612031565b61166c565b34801561030f57600080fd5b5061032361031e366004611b95565b61174f565b60405190151581526020016101d4565b60005473ffffffffffffffffffffffffffffffffffffffff16331461039f5760405162461bcd60e51b815260206004820152600c60248201527f554e415554484f52495a4544000000000000000000000000000000000000000060448201526064015b60405180910390fd5b600080547fffffffffffffffffffffffff00000000000000000000000000000000000000001673ffffffffffffffffffffffffffffffffffffffff83169081178255604051909133917f8292fce18fa69edf4db7b94ea2e58241df0ae57f97e0a6c9b29067028bf92d769190a350565b60005473ffffffffffffffffffffffffffffffffffffffff1633146104765760405162461bcd60e51b815260206004820152600c60248201527f554e415554484f52495a454400000000000000000000000000000000000000006044820152606401610396565b6040517f23b872dd00000000000000000000000000000000000000000000000000000000815230600482015273ffffffffffffffffffffffffffffffffffffffff8381166024830152604482018390528416906323b872dd90606401600060405180830381600087803b1580156104ec57600080fd5b505af1158015610500573d6000803e3d6000fd5b505050508273ffffffffffffffffffffffffffffffffffffffff168273ffffffffffffffffffffffffffffffffffffffff163373ffffffffffffffffffffffffffffffffffffffff167f30b478a5e196e55886228aa87ba74a7dfeba655e0a4d7ba275eabfc22aabb7a88460405161057a91815260200190565b60405180910390a4505050565b60005473ffffffffffffffffffffffffffffffffffffffff1633146105ee5760405162461bcd60e51b815260206004820152600c60248201527f554e415554484f52495a454400000000000000000000000000000000000000006044820152606401610396565b6040517fa9059cbb00000000000000000000000000000000000000000000000000000000815273ffffffffffffffffffffffffffffffffffffffff83811660048301526024820183905284169063a9059cbb906044016020604051808303816000875af1158015610663573d6000803e3d6000fd5b505050506040513d601f19601f820116820180604052508101906106879190612091565b508273ffffffffffffffffffffffffffffffffffffffff168273ffffffffffffffffffffffffffffffffffffffff163373ffffffffffffffffffffffffffffffffffffffff167f6b00f1c7883f053ba83e907fd1965b22fffe3c4111383e725f04638a566cdbfa8460405161057a91815260200190565b60005473ffffffffffffffffffffffffffffffffffffffff1633146107655760405162461bcd60e51b815260206004820152600c60248201527f554e415554484f52495a454400000000000000000000000000000000000000006044820152606401610396565b60405173ffffffffffffffffffffffffffffffffffffffff83169082156108fc029083906000818181858888f193505050501580156107a8573d6000803e3d6000fd5b5060405181815273ffffffffffffffffffffffffffffffffffffffff83169033907f1f12aa8b6d492dd9b98e2b00b0b20830c2a7ded65afac13b60d169a034ae90bc9060200160405180910390a35050565b805160208183018101805160018083529383019483019490942093905282546040805160808101825293850180548552600286015473ffffffffffffffffffffffffffffffffffffffff169385019390935260038501805460ff9093169594939291840191610868906120b3565b80601f0160208091040260200160405190810160405280929190818152602001828054610894906120b3565b80156108e15780601f106108b6576101008083540402835291602001916108e1565b820191906000526020600020905b8154815290600101906020018083116108c457829003601f168201915b5050505050815260200160038201805480602002602001604051908101604052809291908181526020016000905b82821015610a00576000848152602090819020604080516060810190915260038502909101805473ffffffffffffffffffffffffffffffffffffffff1682526001810180549293919291840191610965906120b3565b80601f0160208091040260200160405190810160405280929190818152602001828054610991906120b3565b80156109de5780601f106109b3576101008083540402835291602001916109de565b820191906000526020600020905b8154815290600101906020018083116109c157829003601f168201915b505050505081526020016002820154815250508152602001906001019061090f565b50505091525050600582015460069092015490919084565b6000805460609073ffffffffffffffffffffffffffffffffffffffff163314610a835760405162461bcd60e51b815260206004820152600c60248201527f554e415554484f52495a454400000000000000000000000000000000000000006044820152606401610396565b8473ffffffffffffffffffffffffffffffffffffffff168385604051610aa99190612106565b6000604051808303818686f4925050503d8060008114610ae5576040519150601f19603f3d011682016040523d82523d6000602084013e610aea565b606091505b5091509150935093915050565b6000600182604051610b099190612106565b90815260200160405180910390209050610b228261174f565b1515600114610b995760405162461bcd60e51b815260206004820152603e60248201527f447269707069653a20647269702063616e6e6f7420626520657865637574656460448201527f20617420746869732074696d652c2074727920616761696e206c6174657200006064820152608401610396565b426005820155600481015460005b81811015610d00576000836001016003018281548110610bc957610bc9612122565b6000918252602082206003909102018054600282015460405192945073ffffffffffffffffffffffffffffffffffffffff90911691610c0c906001860190612151565b60006040518083038185875af1925050503d8060008114610c49576040519150601f19603f3d011682016040523d82523d6000602084013e610c4e565b606091505b5050905080610ceb5760405162461bcd60e51b815260206004820152604c60248201527f447269707069653a20647269702077617320756e7375636365737366756c2c2060448201527f706c6561736520636865636b20796f757220636f6e66696775726174696f6e2060648201527f666f72206d697374616b65730000000000000000000000000000000000000000608482015260a401610396565b50508080610cf890612214565b915050610ba7565b50600682018054906000610d1383612214565b919050555082604051610d269190612106565b60405180910390207fea21435419aad9c54a9d90e2522b6f60bd566401f36fcef661f5f5a28cc0d2c6843342604051610d619392919061224c565b60405180910390a2505050565b60005473ffffffffffffffffffffffffffffffffffffffff163314610dd55760405162461bcd60e51b815260206004820152600c60248201527f554e415554484f52495a454400000000000000000000000000000000000000006044820152606401610396565b610ddf81476106fe565b50565b60005473ffffffffffffffffffffffffffffffffffffffff163314610e495760405162461bcd60e51b815260206004820152600c60248201527f554e415554484f52495a454400000000000000000000000000000000000000006044820152606401610396565b6000600183604051610e5b9190612106565b9081526040519081900360200190205460ff166003811115610e7f57610e7f611bd2565b14610ef25760405162461bcd60e51b815260206004820152602b60248201527f447269707069653a206472697020776974682074686174206e616d6520616c7260448201527f65616479206578697374730000000000000000000000000000000000000000006064820152608401610396565b6000600183604051610f049190612106565b908152604080516020928190038301902080547fffffffffffffffffffffffffffffffffffffffffffffffffffffffffffffff0016600290811782558551600183015592850151928101805473ffffffffffffffffffffffffffffffffffffffff9094167fffffffffffffffffffffffff0000000000000000000000000000000000000000909416939093179092558301519091506003820190610fa890826122d6565b5060005b826060015151811015611071578160010160030183606001518281518110610fd657610fd6612122565b602090810291909101810151825460018082018555600094855293839020825160039092020180547fffffffffffffffffffffffff00000000000000000000000000000000000000001673ffffffffffffffffffffffffffffffffffffffff90921691909117815591810151909282019061105190826122d6565b50604082015181600201555050808061106990612214565b915050610fac565b50826040516110809190612106565b60405180910390207f49c9c8da28762ffee6f3f2f37f8f4ebcd85afcb02e1bb496dc95cf47c96380368484604051610d619291906123d2565b60005473ffffffffffffffffffffffffffffffffffffffff1633146111205760405162461bcd60e51b815260206004820152600c60248201527f554e415554484f52495a454400000000000000000000000000000000000000006044820152606401610396565b6040517f70a082310000000000000000000000000000000000000000000000000000000081523060048201526111b6908390839073ffffffffffffffffffffffffffffffffffffffff8316906370a0823190602401602060405180830381865afa158015611192573d6000803e3d6000fd5b505050506040513d601f19601f8201168201806040525081019061017f9190612400565b5050565b60005473ffffffffffffffffffffffffffffffffffffffff1633146112215760405162461bcd60e51b815260206004820152600c60248201527f554e415554484f52495a454400000000000000000000000000000000000000006044820152606401610396565b600081600381111561123557611235611bd2565b036112ce5760405162461bcd60e51b815260206004820152604160248201527f447269707069653a2064726970207374617475732063616e206e65766572206260448201527f6520736574206261636b20746f204e4f4e45206166746572206372656174696f60648201527f6e00000000000000000000000000000000000000000000000000000000000000608482015260a401610396565b60006001836040516112e09190612106565b9081526040519081900360200190205460ff16600381111561130457611304611bd2565b036113775760405162461bcd60e51b815260206004820152602b60248201527f447269707069653a206472697020776974682074686174206e616d6520646f6560448201527f73206e6f742065786973740000000000000000000000000000000000000000006064820152608401610396565b60036001836040516113899190612106565b9081526040519081900360200190205460ff1660038111156113ad576113ad611bd2565b036114205760405162461bcd60e51b815260206004820152602e60248201527f447269707069653a206472697020776974682074686174206e616d652068617360448201527f206265656e2061726368697665640000000000000000000000000000000000006064820152608401610396565b80600381111561143257611432611bd2565b6001836040516114429190612106565b9081526040519081900360200190205460ff16600381111561146657611466611bd2565b036114d95760405162461bcd60e51b815260206004820152603860248201527f447269707069653a2063616e6e6f74207365742064726970207374617475732060448201527f746f2073616d6520737461747573206173206265666f726500000000000000006064820152608401610396565b60038160038111156114ed576114ed611bd2565b0361159b5760026001836040516115049190612106565b9081526040519081900360200190205460ff16600381111561152857611528611bd2565b1461159b5760405162461bcd60e51b815260206004820152602b60248201527f447269707069653a2064726970206d7573742062652070617573656420746f2060448201527f62652061726368697665640000000000000000000000000000000000000000006064820152608401610396565b806001836040516115ac9190612106565b90815260405190819003602001902080547fffffffffffffffffffffffffffffffffffffffffffffffffffffffffffffff001660018360038111156115f3576115f3611bd2565b0217905550816040516116069190612106565b60405180910390207f407cb3ad05e60ec498fb39417c7a4f6b82d5ba80f82fe512a37b02c93181a2a1836001856040516116409190612106565b90815260405190819003602001812054611660929160ff90911690612419565b60405180910390a25050565b6000805460609073ffffffffffffffffffffffffffffffffffffffff1633146116d75760405162461bcd60e51b815260206004820152600c60248201527f554e415554484f52495a454400000000000000000000000000000000000000006044820152606401610396565b8573ffffffffffffffffffffffffffffffffffffffff168484876040516116fe9190612106565b600060405180830381858888f193505050503d806000811461173c576040519150601f19603f3d011682016040523d82523d6000602084013e611741565b606091505b509150915094509492505050565b6000806001836040516117629190612106565b90815260405190819003602001902090506001815460ff16600381111561178b5761178b611bd2565b14611800576040805162461bcd60e51b81526020600482015260248101919091527f447269707069653a2073656c6563746564206472697020646f6573206e6f742060448201527f6578697374206f72206973206e6f742063757272656e746c79206163746976656064820152608401610396565b6001810154600582015442916118159161243b565b11156118895760405162461bcd60e51b815260206004820152603660248201527f447269707069653a206472697020696e74657276616c20686173206e6f74206560448201527f6c61707365642073696e6365206c6173742064726970000000000000000000006064820152608401610396565b60028101546040517fc64b3bb500000000000000000000000000000000000000000000000000000000815273ffffffffffffffffffffffffffffffffffffffff9091169063c64b3bb5906118e4906003850190600401612453565b602060405180830381865afa158015611901573d6000803e3d6000fd5b505050506040513d601f19601f820116820180604052508101906119259190612091565b6119bd5760405162461bcd60e51b815260206004820152604260248201527f447269707069653a2064726970636865636b206661696c656420736f2064726960448201527f70206973206e6f742079657420726561647920746f206265207472696767657260648201527f6564000000000000000000000000000000000000000000000000000000000000608482015260a401610396565b50600192915050565b73ffffffffffffffffffffffffffffffffffffffff81168114610ddf57600080fd5b6000602082840312156119fa57600080fd5b8135611a05816119c6565b9392505050565b600080600060608486031215611a2157600080fd5b8335611a2c816119c6565b92506020840135611a3c816119c6565b929592945050506040919091013590565b60008060408385031215611a6057600080fd5b8235611a6b816119c6565b946020939093013593505050565b7f4e487b7100000000000000000000000000000000000000000000000000000000600052604160045260246000fd5b6040516080810167ffffffffffffffff81118282101715611acb57611acb611a79565b60405290565b6040516060810167ffffffffffffffff81118282101715611acb57611acb611a79565b604051601f8201601f1916810167ffffffffffffffff81118282101715611b1d57611b1d611a79565b604052919050565b600082601f830112611b3657600080fd5b813567ffffffffffffffff811115611b5057611b50611a79565b611b636020601f19601f84011601611af4565b818152846020838601011115611b7857600080fd5b816020850160208301376000918101602001919091529392505050565b600060208284031215611ba757600080fd5b813567ffffffffffffffff811115611bbe57600080fd5b611bca84828501611b25565b949350505050565b7f4e487b7100000000000000000000000000000000000000000000000000000000600052602160045260246000fd5b60048110611c38577f4e487b7100000000000000000000000000000000000000000000000000000000600052602160045260246000fd5b9052565b60005b83811015611c57578181015183820152602001611c3f565b83811115611c66576000848401525b50505050565b60008151808452611c84816020860160208601611c3c565b601f01601f19169290920160200192915050565b80518252600060208083015173ffffffffffffffffffffffffffffffffffffffff808216838701526040915081850151608083880152611cdb6080880182611c6c565b9050606080870151888303828a01528281518085528785019150878160051b860101888401935060005b82811015611d5057601f1987830301845284518881511683528a810151878c850152611d3388850182611c6c565b918b0151938b0193909352948a0194938a01939150600101611d05565b509b9a5050505050505050505050565b611d6a8186611c01565b608060208201526000611d806080830186611c98565b6040830194909452506060015292915050565b600080600060608486031215611da857600080fd5b8335611db3816119c6565b9250602084013567ffffffffffffffff811115611dcf57600080fd5b611ddb86828701611b25565b925050604084013590509250925092565b8215158152604060208201526000611bca6040830184611c6c565b60008060408385031215611e1a57600080fd5b823567ffffffffffffffff80821115611e3257600080fd5b611e3e86838701611b25565b9350602091508185013581811115611e5557600080fd5b850160808188031215611e6757600080fd5b611e6f611aa8565b8135815283820135611e80816119c6565b81850152604082013583811115611e9657600080fd5b611ea289828501611b25565b604083015250606082013583811115611eba57600080fd5b80830192505087601f830112611ecf57600080fd5b813583811115611ee157611ee1611a79565b8060051b611ef0868201611af4565b918252838101860191868101908b841115611f0a57600080fd5b87860192505b83831015611f9757823587811115611f285760008081fd5b86016060818e03601f19011215611f3f5760008081fd5b611f47611ad1565b89820135611f54816119c6565b8152604082013589811115611f695760008081fd5b611f778f8c83860101611b25565b828c01525060609190910135604082015282529187019190870190611f10565b6060850152509699919850909650505050505050565b60008060408385031215611fc057600080fd5b8235611fcb816119c6565b91506020830135611fdb816119c6565b809150509250929050565b60008060408385031215611ff957600080fd5b823567ffffffffffffffff81111561201057600080fd5b61201c85828601611b25565b925050602083013560048110611fdb57600080fd5b6000806000806080858703121561204757600080fd5b8435612052816119c6565b9350602085013567ffffffffffffffff81111561206e57600080fd5b61207a87828801611b25565b949794965050505060408301359260600135919050565b6000602082840312156120a357600080fd5b81518015158114611a0557600080fd5b600181811c908216806120c757607f821691505b602082108103612100577f4e487b7100000000000000000000000000000000000000000000000000000000600052602260045260246000fd5b50919050565b60008251612118818460208701611c3c565b9190910192915050565b7f4e487b7100000000000000000000000000000000000000000000000000000000600052603260045260246000fd5b600080835461215f816120b3565b6001828116801561217757600181146121aa576121d9565b7fffffffffffffffffffffffffffffffffffffffffffffffffffffffffffffff00841687528215158302870194506121d9565b8760005260208060002060005b858110156121d05781548a8201529084019082016121b7565b50505082870194505b50929695505050505050565b7f4e487b7100000000000000000000000000000000000000000000000000000000600052601160045260246000fd5b60007fffffffffffffffffffffffffffffffffffffffffffffffffffffffffffffffff8203612245576122456121e5565b5060010190565b60608152600061225f6060830186611c6c565b73ffffffffffffffffffffffffffffffffffffffff9490941660208301525060400152919050565b601f8211156122d157600081815260208120601f850160051c810160208610156122ae5750805b601f850160051c820191505b818110156122cd578281556001016122ba565b5050505b505050565b815167ffffffffffffffff8111156122f0576122f0611a79565b612304816122fe84546120b3565b84612287565b602080601f83116001811461235757600084156123215750858301515b7fffffffffffffffffffffffffffffffffffffffffffffffffffffffffffffffff600386901b1c1916600185901b1785556122cd565b600085815260208120601f198616915b8281101561238657888601518255948401946001909101908401612367565b50858210156123c257878501517fffffffffffffffffffffffffffffffffffffffffffffffffffffffffffffffff600388901b60f8161c191681555b5050505050600190811b01905550565b6040815260006123e56040830185611c6c565b82810360208401526123f78185611c98565b95945050505050565b60006020828403121561241257600080fd5b5051919050565b60408152600061242c6040830185611c6c565b9050611a056020830184611c01565b6000821982111561244e5761244e6121e5565b500190565b6000602080835260008454612467816120b3565b8084870152604060018084166000811461248857600181146124c0576124ee565b7fffffffffffffffffffffffffffffffffffffffffffffffffffffffffffffff008516838a01528284151560051b8a010195506124ee565b896000528660002060005b858110156124e65781548b82018601529083019088016124cb565b8a0184019650505b50939897505050505050505056fea26469706673582212209e2c642d826f29e188c7d7b6e9595445cf633c5a5dd84422c15db472d859adff64736f6c634300080f0033",
  "devdoc": {
    "events": {
      "DripCreated(string,string,(uint256,address,bytes,(address,bytes,uint256)[]))": {
        "params": {
          "config": "Config for the created drip.",
          "name": "Unindexed name parameter (unhashed).",
          "nameref": "Indexed name parameter (hashed)."
        }
      },
      "DripExecuted(string,string,address,uint256)": {
        "params": {
          "executor": "Address that executed the drip.",
          "name": "Unindexed name parameter (unhashed).",
          "nameref": "Indexed name parameter (hashed).",
          "timestamp": "Time when the drip was executed."
        }
      },
      "DripStatusUpdated(string,string,uint8)": {
        "params": {
          "name": "Unindexed name parameter (unhashed).",
          "nameref": "Indexed name parameter (hashed).",
          "status": "New drip status."
        }
      }
    },
    "kind": "dev",
    "methods": {
      "CALL(address,bytes,uint256,uint256)": {
        "params": {
          "_data": "Data to send with the call.",
          "_gas": "Amount of gas to send with the call.",
          "_target": "Address to call.",
          "_value": "ETH value to send with the call."
        },
        "returns": {
          "_0": "Boolean success value.",
          "_1": "Bytes data returned by the call."
        }
      },
      "DELEGATECALL(address,bytes,uint256)": {
        "params": {
          "_data": "Data to send with the call.",
          "_gas": "Amount of gas to send with the call.",
          "_target": "Address to call."
        },
        "returns": {
          "_0": "Boolean success value.",
          "_1": "Bytes data returned by the call."
        }
      },
      "constructor": {
        "params": {
          "_owner": "Initial contract owner."
        }
      },
      "create(string,(uint256,address,bytes,(address,bytes,uint256)[]))": {
        "params": {
          "_config": "Configuration for the drip.",
          "_name": "Name of the drip."
        }
      },
      "drip(string)": {
        "params": {
          "_name": "Name of the drip to trigger."
        }
      },
      "executable(string)": {
        "params": {
          "_name": "Drip to check."
        },
        "returns": {
          "_0": "True if the drip is executable, false otherwise."
        }
      },
      "status(string,uint8)": {
        "params": {
          "_name": "Name of the drip to update.",
          "_status": "New drip status."
        }
      },
      "withdrawERC20(address,address)": {
        "params": {
          "_asset": "ERC20 token to withdraw.",
          "_to": "Address to receive the ERC20 balance."
        }
      },
      "withdrawERC20(address,address,uint256)": {
        "params": {
          "_amount": "Amount of ERC20 to withdraw.",
          "_asset": "ERC20 token to withdraw.",
          "_to": "Address to receive the ERC20 balance."
        }
      },
      "withdrawERC721(address,address,uint256)": {
        "params": {
          "_asset": "ERC721 token to withdraw.",
          "_id": "Token ID of the ERC721 token to withdraw.",
          "_to": "Address to receive the ERC721 token."
        }
      },
      "withdrawETH(address)": {
        "params": {
          "_to": "Address to receive the ETH balance."
        }
      },
      "withdrawETH(address,uint256)": {
        "params": {
          "_amount": "Amount of ETH to withdraw.",
          "_to": "Address to receive the ETH balance."
        }
      }
    },
    "title": "Drippie",
    "version": 1
  },
  "userdoc": {
    "events": {
      "DripCreated(string,string,(uint256,address,bytes,(address,bytes,uint256)[]))": {
        "notice": "Emitted when a new drip is created."
      },
      "DripExecuted(string,string,address,uint256)": {
        "notice": "Emitted when a drip is executed."
      },
      "DripStatusUpdated(string,string,uint8)": {
        "notice": "Emitted when a drip status is updated."
      },
      "ReceivedETH(address,uint256)": {
        "notice": "Emitted when ETH is received by this address."
      },
      "WithdrewERC20(address,address,address,uint256)": {
        "notice": "Emitted when ERC20 tokens are withdrawn from this address."
      },
      "WithdrewERC721(address,address,address,uint256)": {
        "notice": "Emitted when ERC20 tokens are withdrawn from this address."
      },
      "WithdrewETH(address,address,uint256)": {
        "notice": "Emitted when ETH is withdrawn from this address."
      }
    },
    "kind": "user",
    "methods": {
      "CALL(address,bytes,uint256,uint256)": {
        "notice": "Sends a CALL to a target address."
      },
      "DELEGATECALL(address,bytes,uint256)": {
        "notice": "Sends a DELEGATECALL to a target address."
      },
      "create(string,(uint256,address,bytes,(address,bytes,uint256)[]))": {
        "notice": "Creates a new drip with the given name and configuration. Once created, drips cannot         be modified in any way (this is a security measure). If you want to update a drip,         simply pause (and potentially archive) the existing drip and create a new one."
      },
      "drip(string)": {
        "notice": "Triggers a drip. This function is deliberately left as a public function because the         assumption being made here is that setting the drip to ACTIVE is an affirmative         signal that the drip should be executable according to the drip parameters, drip         check, and drip interval. Note that drip parameters are read entirely from the state         and are not supplied as user input, so there should not be any way for a         non-authorized user to influence the behavior of the drip."
      },
      "drips(string)": {
        "notice": "Maps from drip names to drip states."
      },
      "executable(string)": {
        "notice": "Checks if a given drip is executable."
      },
      "status(string,uint8)": {
        "notice": "Sets the status for a given drip. The behavior of this function depends on the         status that the user is trying to set. A drip can always move between ACTIVE and         PAUSED, but it can never move back to NONE and once ARCHIVED, it can never move back         to ACTIVE or PAUSED."
      },
      "withdrawERC20(address,address)": {
        "notice": "Withdraws full ERC20 balance to the recipient."
      },
      "withdrawERC20(address,address,uint256)": {
        "notice": "Withdraws partial ERC20 balance to the recipient."
      },
      "withdrawERC721(address,address,uint256)": {
        "notice": "Withdraws ERC721 token to the recipient."
      },
      "withdrawETH(address)": {
        "notice": "Withdraws full ETH balance to the recipient."
      },
      "withdrawETH(address,uint256)": {
        "notice": "Withdraws partial ETH balance to the recipient."
      }
    },
    "notice": "Drippie is a system for managing automated contract interactions. A specific interaction         is called a \"drip\" and can be executed according to some condition (called a dripcheck)         and an execution interval. Drips cannot be executed faster than the execution interval.         Drips can trigger arbitrary contract calls where the calling contract is this contract         address. Drips can also send ETH value, which makes them ideal for keeping addresses         sufficiently funded with ETH. Drippie is designed to be connected with smart contract         automation services so that drips can be executed automatically. However, Drippie is         specifically designed to be separated from these services so that trust assumptions are         better compartmentalized.",
    "version": 1
  },
  "storageLayout": {
    "storage": [
      {
        "astId": 4096,
        "contract": "contracts/universal/drippie/Drippie.sol:Drippie",
        "label": "owner",
        "offset": 0,
        "slot": "0",
        "type": "t_address"
      },
      {
        "astId": 6733,
        "contract": "contracts/universal/drippie/Drippie.sol:Drippie",
        "label": "drips",
        "offset": 0,
        "slot": "1",
        "type": "t_mapping(t_string_memory_ptr,t_struct(DripState)6696_storage)"
      }
    ],
    "types": {
      "t_address": {
        "encoding": "inplace",
        "label": "address",
        "numberOfBytes": "20"
      },
      "t_address_payable": {
        "encoding": "inplace",
        "label": "address payable",
        "numberOfBytes": "20"
      },
      "t_array(t_struct(DripAction)6673_storage)dyn_storage": {
        "base": "t_struct(DripAction)6673_storage",
        "encoding": "dynamic_array",
        "label": "struct Drippie.DripAction[]",
        "numberOfBytes": "32"
      },
      "t_bytes_storage": {
        "encoding": "bytes",
        "label": "bytes",
        "numberOfBytes": "32"
      },
      "t_contract(IDripCheck)7077": {
        "encoding": "inplace",
        "label": "contract IDripCheck",
        "numberOfBytes": "20"
      },
      "t_enum(DripStatus)6666": {
        "encoding": "inplace",
        "label": "enum Drippie.DripStatus",
        "numberOfBytes": "1"
      },
      "t_mapping(t_string_memory_ptr,t_struct(DripState)6696_storage)": {
        "encoding": "mapping",
        "key": "t_string_memory_ptr",
        "label": "mapping(string => struct Drippie.DripState)",
        "numberOfBytes": "32",
        "value": "t_struct(DripState)6696_storage"
      },
      "t_string_memory_ptr": {
        "encoding": "bytes",
        "label": "string",
        "numberOfBytes": "32"
      },
      "t_struct(DripAction)6673_storage": {
        "encoding": "inplace",
        "label": "struct Drippie.DripAction",
        "members": [
          {
            "astId": 6668,
            "contract": "contracts/universal/drippie/Drippie.sol:Drippie",
            "label": "target",
            "offset": 0,
            "slot": "0",
            "type": "t_address_payable"
          },
          {
            "astId": 6670,
            "contract": "contracts/universal/drippie/Drippie.sol:Drippie",
            "label": "data",
            "offset": 0,
            "slot": "1",
            "type": "t_bytes_storage"
          },
          {
            "astId": 6672,
            "contract": "contracts/universal/drippie/Drippie.sol:Drippie",
            "label": "value",
            "offset": 0,
            "slot": "2",
            "type": "t_uint256"
          }
        ],
        "numberOfBytes": "96"
      },
      "t_struct(DripConfig)6685_storage": {
        "encoding": "inplace",
        "label": "struct Drippie.DripConfig",
        "members": [
          {
            "astId": 6675,
            "contract": "contracts/universal/drippie/Drippie.sol:Drippie",
            "label": "interval",
            "offset": 0,
            "slot": "0",
            "type": "t_uint256"
          },
          {
            "astId": 6678,
            "contract": "contracts/universal/drippie/Drippie.sol:Drippie",
            "label": "dripcheck",
            "offset": 0,
            "slot": "1",
            "type": "t_contract(IDripCheck)7077"
          },
          {
            "astId": 6680,
            "contract": "contracts/universal/drippie/Drippie.sol:Drippie",
            "label": "checkparams",
            "offset": 0,
            "slot": "2",
            "type": "t_bytes_storage"
          },
          {
            "astId": 6684,
            "contract": "contracts/universal/drippie/Drippie.sol:Drippie",
            "label": "actions",
            "offset": 0,
            "slot": "3",
            "type": "t_array(t_struct(DripAction)6673_storage)dyn_storage"
          }
        ],
        "numberOfBytes": "128"
      },
      "t_struct(DripState)6696_storage": {
        "encoding": "inplace",
        "label": "struct Drippie.DripState",
        "members": [
          {
            "astId": 6688,
            "contract": "contracts/universal/drippie/Drippie.sol:Drippie",
            "label": "status",
            "offset": 0,
            "slot": "0",
            "type": "t_enum(DripStatus)6666"
          },
          {
            "astId": 6691,
            "contract": "contracts/universal/drippie/Drippie.sol:Drippie",
            "label": "config",
            "offset": 0,
            "slot": "1",
            "type": "t_struct(DripConfig)6685_storage"
          },
          {
            "astId": 6693,
            "contract": "contracts/universal/drippie/Drippie.sol:Drippie",
            "label": "last",
            "offset": 0,
            "slot": "5",
            "type": "t_uint256"
          },
          {
            "astId": 6695,
            "contract": "contracts/universal/drippie/Drippie.sol:Drippie",
            "label": "count",
            "offset": 0,
            "slot": "6",
            "type": "t_uint256"
          }
        ],
        "numberOfBytes": "224"
      },
      "t_uint256": {
        "encoding": "inplace",
        "label": "uint256",
        "numberOfBytes": "32"
      }
    }
  }
}