{
  "address": "0x27BdfF69C72d29493bfD2152DbE28657f8Ddd5df",
  "abi": [
    {
      "inputs": [],
      "stateMutability": "nonpayable",
      "type": "constructor"
    },
    {
      "anonymous": false,
      "inputs": [
        {
          "indexed": false,
          "internalType": "bytes32",
          "name": "msgHash",
          "type": "bytes32"
        }
      ],
      "name": "FailedRelayedMessage",
      "type": "event"
    },
    {
      "anonymous": false,
      "inputs": [
        {
          "indexed": false,
          "internalType": "bytes32",
          "name": "msgHash",
          "type": "bytes32"
        }
      ],
      "name": "RelayedMessage",
      "type": "event"
    },
    {
      "anonymous": false,
      "inputs": [
        {
          "indexed": false,
          "internalType": "bytes",
          "name": "message",
          "type": "bytes"
        }
      ],
      "name": "SentMessage",
      "type": "event"
    },
    {
      "inputs": [
        {
          "internalType": "address",
          "name": "_libAddressManager",
          "type": "address"
        }
      ],
      "name": "initialize",
      "outputs": [],
      "stateMutability": "nonpayable",
      "type": "function"
    },
    {
      "inputs": [],
      "name": "libAddressManager",
      "outputs": [
        {
          "internalType": "contract Lib_AddressManager",
          "name": "",
          "type": "address"
        }
      ],
      "stateMutability": "view",
      "type": "function"
    },
    {
      "inputs": [],
      "name": "messageNonce",
      "outputs": [
        {
          "internalType": "uint256",
          "name": "",
          "type": "uint256"
        }
      ],
      "stateMutability": "view",
      "type": "function"
    },
    {
      "inputs": [
        {
          "internalType": "address",
          "name": "_target",
          "type": "address"
        },
        {
          "internalType": "address",
          "name": "_sender",
          "type": "address"
        },
        {
          "internalType": "bytes",
          "name": "_message",
          "type": "bytes"
        },
        {
          "internalType": "uint256",
          "name": "_messageNonce",
          "type": "uint256"
        },
        {
          "components": [
            {
              "internalType": "bytes32",
              "name": "stateRoot",
              "type": "bytes32"
            },
            {
              "components": [
                {
                  "internalType": "uint256",
                  "name": "batchIndex",
                  "type": "uint256"
                },
                {
                  "internalType": "bytes32",
                  "name": "batchRoot",
                  "type": "bytes32"
                },
                {
                  "internalType": "uint256",
                  "name": "batchSize",
                  "type": "uint256"
                },
                {
                  "internalType": "uint256",
                  "name": "prevTotalElements",
                  "type": "uint256"
                },
                {
                  "internalType": "bytes",
                  "name": "extraData",
                  "type": "bytes"
                }
              ],
              "internalType": "struct Lib_OVMCodec.ChainBatchHeader",
              "name": "stateRootBatchHeader",
              "type": "tuple"
            },
            {
              "components": [
                {
                  "internalType": "uint256",
                  "name": "index",
                  "type": "uint256"
                },
                {
                  "internalType": "bytes32[]",
                  "name": "siblings",
                  "type": "bytes32[]"
                }
              ],
              "internalType": "struct Lib_OVMCodec.ChainInclusionProof",
              "name": "stateRootProof",
              "type": "tuple"
            },
            {
              "internalType": "bytes",
              "name": "stateTrieWitness",
              "type": "bytes"
            },
            {
              "internalType": "bytes",
              "name": "storageTrieWitness",
              "type": "bytes"
            }
          ],
          "internalType": "struct iOVM_L1CrossDomainMessenger.L2MessageInclusionProof",
          "name": "_proof",
          "type": "tuple"
        }
      ],
      "name": "relayMessage",
      "outputs": [],
      "stateMutability": "nonpayable",
      "type": "function"
    },
    {
      "inputs": [
        {
          "internalType": "bytes32",
          "name": "",
          "type": "bytes32"
        }
      ],
      "name": "relayedMessages",
      "outputs": [
        {
          "internalType": "bool",
          "name": "",
          "type": "bool"
        }
      ],
      "stateMutability": "view",
      "type": "function"
    },
    {
      "inputs": [
        {
          "internalType": "address",
          "name": "_target",
          "type": "address"
        },
        {
          "internalType": "address",
          "name": "_sender",
          "type": "address"
        },
        {
          "internalType": "bytes",
          "name": "_message",
          "type": "bytes"
        },
        {
          "internalType": "uint256",
          "name": "_messageNonce",
          "type": "uint256"
        },
        {
          "internalType": "uint32",
          "name": "_gasLimit",
          "type": "uint32"
        }
      ],
      "name": "replayMessage",
      "outputs": [],
      "stateMutability": "nonpayable",
      "type": "function"
    },
    {
      "inputs": [
        {
          "internalType": "string",
          "name": "_name",
          "type": "string"
        }
      ],
      "name": "resolve",
      "outputs": [
        {
          "internalType": "address",
          "name": "",
          "type": "address"
        }
      ],
      "stateMutability": "view",
      "type": "function"
    },
    {
      "inputs": [
        {
          "internalType": "address",
          "name": "_target",
          "type": "address"
        },
        {
          "internalType": "bytes",
          "name": "_message",
          "type": "bytes"
        },
        {
          "internalType": "uint32",
          "name": "_gasLimit",
          "type": "uint32"
        }
      ],
      "name": "sendMessage",
      "outputs": [],
      "stateMutability": "nonpayable",
      "type": "function"
    },
    {
      "inputs": [
        {
          "internalType": "bytes32",
          "name": "",
          "type": "bytes32"
        }
      ],
      "name": "sentMessages",
      "outputs": [
        {
          "internalType": "bool",
          "name": "",
          "type": "bool"
        }
      ],
      "stateMutability": "view",
      "type": "function"
    },
    {
      "inputs": [
        {
          "internalType": "bytes32",
          "name": "",
          "type": "bytes32"
        }
      ],
      "name": "successfulMessages",
      "outputs": [
        {
          "internalType": "bool",
          "name": "",
          "type": "bool"
        }
      ],
      "stateMutability": "view",
      "type": "function"
    },
    {
      "inputs": [],
      "name": "xDomainMessageSender",
      "outputs": [
        {
          "internalType": "address",
          "name": "",
          "type": "address"
        }
      ],
      "stateMutability": "view",
      "type": "function"
    }
  ],
  "transactionHash": "0x75714a6d9ca51a7b21d8556ab605cee562224d7f13670f3b703043433f8b0ac5",
  "args": [],
  "solcInputHash": "dde656dd41f49cad9eac9bc7065fd6a7",
  "bytecode": "0x6080604052600580546001600160a01b03191661dead17905534801561002457600080fd5b506001600055600680546001600160a01b03191690556126a9806100496000396000f3fe608060405234801561001057600080fd5b50600436106100a95760003560e01c8063706ceab611610071578063706ceab61461011c57806382e3702d1461012f578063b1b1b20914610142578063c4d66de814610155578063d7fd19dd14610168578063ecc704281461017b576100a9565b806321d800ec146100ae578063299ca478146100d75780633dbb202b146100ec578063461a4478146101015780636e296e4514610114575b600080fd5b6100c16100bc3660046120ea565b610190565b6040516100ce9190612300565b60405180910390f35b6100df6101a5565b6040516100ce9190612288565b6100ff6100fa36600461206e565b6101b4565b005b6100df61010f366004612102565b610243565b6100df61031f565b6100ff61012a366004611ff7565b610368565b6100c161013d3660046120ea565b6103cf565b6100c16101503660046120ea565b6103e4565b6100ff610163366004611eae565b6103f9565b6100ff610176366004611ec8565b61044f565b61018361070c565b6040516100ce91906121d1565b60016020526000908152604090205460ff1681565b6006546001600160a01b031681565b60006101c4843385600454610712565b60048054600190810190915581516020808401919091206000908152600390915260409020805460ff1916909117905590506102068163ffffffff841661075f565b7f0ee9ffdb2334d78de97ffb066b23a352a4d35180cefb36589d663fbb1eb6f326816040516102359190612382565b60405180910390a150505050565b60065460405163bf40fac160e01b81526020600482018181528451602484015284516000946001600160a01b03169363bf40fac1938793928392604401918501908083838b5b838110156102a1578181015183820152602001610289565b50505050905090810190601f1680156102ce5780820380516001836020036101000a031916815260200191505b509250505060206040518083038186803b1580156102eb57600080fd5b505afa1580156102ff573d6000803e3d6000fd5b505050506040513d602081101561031557600080fd5b505190505b919050565b6005546000906001600160a01b031661dead14156103585760405162461bcd60e51b815260040161034f90612395565b60405180910390fd5b506005546001600160a01b031690565b600061037686868686610712565b805160208083019190912060009081526003909152604090205490915060ff1615156001146103b75760405162461bcd60e51b815260040161034f9061248a565b6103c7818363ffffffff1661075f565b505050505050565b60036020526000908152604090205460ff1681565b60026020526000908152604090205460ff1681565b6006546001600160a01b0316156104225760405162461bcd60e51b815260040161034f90612572565b600680546001600160a01b039092166001600160a01b03199283161790556005805490911661dead179055565b600260005414156104a7576040805162461bcd60e51b815260206004820152601f60248201527f5265656e7472616e637947756172643a207265656e7472616e742063616c6c00604482015290519081900360640190fd5b6002600090815560408051808201909152601481527327ab26afa61926b2b9b9b0b3b2a932b630bcb2b960611b60208201526104e290610243565b90506001600160a01b0381161561051b57336001600160a01b0382161461051b5760405162461bcd60e51b815260040161034f906124d5565b600061052987878787610712565b90506105358184610837565b15156001146105565760405162461bcd60e51b815260040161034f9061252b565b80516020808301919091206000818152600290925260409091205460ff16156105915760405162461bcd60e51b815260040161034f906123cc565b600580546001600160a01b0319166001600160a01b03898116919091179091556040516000918a16906105c59089906121e8565b6000604051808303816000865af19150503d8060008114610602576040519150601f19603f3d011682016040523d82523d6000602084013e610607565b606091505b5050600580546001600160a01b03191661dead1790559050801515600114156106805760008281526002602052604090819020805460ff19166001179055517f4641df4a962071e12719d8c8c8e5ac7fc4d97b927346a3d7a335b1f7517e133c906106739084906121d1565b60405180910390a16106b8565b7f99d0e048484baa1b1540b1367cb128acd7ab2946d1ed91ec10e3c85e4bf51b8f826040516106af91906121d1565b60405180910390a15b60008333436040516020016106cf93929190612236565b60408051601f1981840301815291815281516020928301206000908152600192839052908120805460ff1916831790555550505050505050505050565b60045481565b60608484848460405160240161072b949392919061229c565b60408051601f198184030181529190526020810180516001600160e01b031663cbd4ece960e01b1790529050949350505050565b61079d6040518060400160405280601d81526020017f4f564d5f43616e6f6e6963616c5472616e73616374696f6e436861696e000000815250610243565b6001600160a01b0316636fee07e06107e96040518060400160405280601a81526020017f4f564d5f4c3243726f7373446f6d61696e4d657373656e676572000000000000815250610243565b83856040518463ffffffff1660e01b8152600401610809939291906122d9565b600060405180830381600087803b15801561082357600080fd5b505af11580156103c7573d6000803e3d6000fd5b60006108428261085c565b8015610853575061085383836109b9565b90505b92915050565b60008061089d6040518060400160405280601881526020017f4f564d5f5374617465436f6d6d69746d656e74436861696e0000000000000000815250610243565b6020840151604051639418bddd60e01b81529192506001600160a01b03831691639418bddd916108cf916004016125bc565b60206040518083038186803b1580156108e757600080fd5b505afa1580156108fb573d6000803e3d6000fd5b505050506040513d601f19601f8201168201806040525081019061091f91906120ca565b1580156109b25750825160208401516040808601519051634d69ee5760e01b81526001600160a01b03851693634d69ee579361096293919290919060040161230b565b60206040518083038186803b15801561097a57600080fd5b505afa15801561098e573d6000803e3d6000fd5b505050506040513d601f19601f820116820180604052508101906109b291906120ca565b9392505050565b600080836109fb6040518060400160405280601a81526020017f4f564d5f4c3243726f7373446f6d61696e4d657373656e676572000000000000815250610243565b604051602001610a0c929190612204565b604051602081830303815290604052805190602001206000604051602001610a359291906121da565b604051602081830303815290604052805190602001209050600080610a84602160991b604051602001610a6891906121b9565b60408051601f1981840301815291905260608701518751610b16565b9092509050600182151514610aab5760405162461bcd60e51b815260040161034f90612417565b6000610ab682610b3f565b9050610b0b84604051602001610acc91906121d1565b6040516020818303038152906040526001604051602001610aed9190612270565b60405160208183030381529060405288608001518460400151610bd1565b979650505050505050565b600060606000610b2586610bf5565b9050610b32818686610c25565b9250925050935093915050565b610b47611c64565b6000610b5283610cf8565b90506040518060800160405280610b7c83600081518110610b6f57fe5b6020026020010151610d0b565b8152602001610b9183600181518110610b6f57fe5b8152602001610bb383600281518110610ba657fe5b6020026020010151610d12565b8152602001610bc883600381518110610ba657fe5b90529392505050565b600080610bdd86610bf5565b9050610beb81868686610e0b565b9695505050505050565b60608180519060200120604051602001610c0f91906121d1565b6040516020818303038152906040529050919050565b600060606000610c3485610e31565b90506000806000610c46848a89610f08565b81519295509093509150158080610c5a5750815b610cab576040805162461bcd60e51b815260206004820152601a60248201527f50726f76696465642070726f6f6620697320696e76616c69642e000000000000604482015290519081900360640190fd5b600081610cc75760405180602001604052806000815250610ce6565b610ce6866001870381518110610cd957fe5b60200260200101516112ab565b919b919a509098505050505050505050565b6060610856610d06836112c7565b6112ec565b6000610856825b6000602182600001511115610d6e576040805162461bcd60e51b815260206004820152601a60248201527f496e76616c696420524c5020627974657333322076616c75652e000000000000604482015290519081900360640190fd5b6000806000610d7c85611462565b919450925090506000816001811115610d9157fe5b14610de3576040805162461bcd60e51b815260206004820152601a60248201527f496e76616c696420524c5020627974657333322076616c75652e000000000000604482015290519081900360640190fd5b602080860151840180519091841015610beb5760208490036101000a90049695505050505050565b6000806000610e1b878686610c25565b91509150818015610b0b5750610b0b868261178b565b60606000610e3e83610cf8565b90506000815167ffffffffffffffff81118015610e5a57600080fd5b50604051908082528060200260200182016040528015610e9457816020015b610e81611c8b565b815260200190600190039081610e795790505b50905060005b8251811015610f00576000610ec1848381518110610eb457fe5b60200260200101516117a1565b90506040518060400160405280828152602001610edd83610cf8565b815250838381518110610eec57fe5b602090810291909101015250600101610e9a565b509392505050565b60006060818080610f1887611830565b905085600080610f26611c8b565b60005b8c51811015611283578c8181518110610f3e57fe5b6020026020010151915082840193506001870196508360001415610fb257815180516020909101208514610fad576040805162461bcd60e51b8152602060048201526011602482015270092dcecc2d8d2c840e4dedee840d0c2e6d607b1b604482015290519081900360640190fd5b611079565b81515160201161101957815180516020909101208514610fad576040805162461bcd60e51b815260206004820152601b60248201527f496e76616c6964206c6172676520696e7465726e616c20686173680000000000604482015290519081900360640190fd5b84611027836000015161192d565b14611079576040805162461bcd60e51b815260206004820152601a60248201527f496e76616c696420696e7465726e616c206e6f64652068617368000000000000604482015290519081900360640190fd5b602082015151601114156110e857855184141561109557611283565b60008685815181106110a357fe5b602001015160f81c60f81b60f81c9050600083602001518260ff16815181106110c857fe5b602002602001015190506110db81611959565b965060019450505061127b565b6002826020015151141561122e5760006111018361198f565b905060008160008151811061111257fe5b016020015160f81c90506001811660020360006111328460ff84166119ad565b905060006111408b8a6119ad565b9050600061114e83836119de565b905060ff851660021480611165575060ff85166003145b156111975780835114801561117a5750808251145b1561118457988901985b50600160ff1b9950611283945050505050565b60ff851615806111aa575060ff85166001145b156111f757806111c75750600160ff1b9950611283945050505050565b6111e888602001516001815181106111db57fe5b6020026020010151611959565b9a50975061127b945050505050565b60405162461bcd60e51b815260040180806020018281038252602681526020018061264e6026913960400191505060405180910390fd5b6040805162461bcd60e51b815260206004820152601d60248201527f526563656976656420616e20756e706172736561626c65206e6f64652e000000604482015290519081900360640190fd5b600101610f29565b50600160ff1b84148661129687866119ad565b909e909d50909b509950505050505050505050565b60208101518051606091610856916000198101908110610eb457fe5b6112cf611ca5565b506040805180820190915281518152602082810190820152919050565b60606000806112fa84611462565b9193509091506001905081600181111561131057fe5b14611362576040805162461bcd60e51b815260206004820152601760248201527f496e76616c696420524c50206c6973742076616c75652e000000000000000000604482015290519081900360640190fd5b6040805160208082526104208201909252600091816020015b611383611ca5565b81526020019060019003908161137b5790505090506000835b865181101561145757602082106113e45760405162461bcd60e51b815260040180806020018281038252602a815260200180612624602a913960400191505060405180910390fd5b6000806114106040518060400160405280858c60000151038152602001858c6020015101815250611462565b509150915060405180604001604052808383018152602001848b602001510181525085858151811061143e57fe5b602090810291909101015260019390930192010161139c565b508152949350505050565b6000806000808460000151116114bf576040805162461bcd60e51b815260206004820152601860248201527f524c50206974656d2063616e6e6f74206265206e756c6c2e0000000000000000604482015290519081900360640190fd5b6020840151805160001a607f81116114e4576000600160009450945094505050611784565b60b78111611559578551607f198201908110611547576040805162461bcd60e51b815260206004820152601960248201527f496e76616c696420524c502073686f727420737472696e672e00000000000000604482015290519081900360640190fd5b60019550935060009250611784915050565b60bf811161163d57855160b61982019081106115bc576040805162461bcd60e51b815260206004820152601f60248201527f496e76616c696420524c50206c6f6e6720737472696e67206c656e6774682e00604482015290519081900360640190fd5b6000816020036101000a6001850151049050808201886000015111611628576040805162461bcd60e51b815260206004820152601860248201527f496e76616c696420524c50206c6f6e6720737472696e672e0000000000000000604482015290519081900360640190fd5b60019091019550935060009250611784915050565b60f781116116b157855160bf1982019081106116a0576040805162461bcd60e51b815260206004820152601760248201527f496e76616c696420524c502073686f7274206c6973742e000000000000000000604482015290519081900360640190fd5b600195509350849250611784915050565b855160f619820190811061170c576040805162461bcd60e51b815260206004820152601d60248201527f496e76616c696420524c50206c6f6e67206c697374206c656e6774682e000000604482015290519081900360640190fd5b6000816020036101000a6001850151049050808201886000015111611771576040805162461bcd60e51b815260206004820152601660248201527524b73b30b634b210292628103637b733903634b9ba1760511b604482015290519081900360640190fd5b6001918201965094509250611784915050565b9193909250565b8051602091820120825192909101919091201490565b606060008060006117b185611462565b9194509250905060008160018111156117c657fe5b14611818576040805162461bcd60e51b815260206004820152601860248201527f496e76616c696420524c502062797465732076616c75652e0000000000000000604482015290519081900360640190fd5b61182785602001518484611a44565b95945050505050565b60606000825160020267ffffffffffffffff8111801561184f57600080fd5b506040519080825280601f01601f19166020018201604052801561187a576020820181803683370190505b50905060005b835181101561192657600484828151811061189757fe5b602001015160f81c60f81b6001600160f81b031916901c8282600202815181106118bd57fe5b60200101906001600160f81b031916908160001a90535060108482815181106118e257fe5b016020015160f81c816118f157fe5b0660f81b82826002026001018151811061190757fe5b60200101906001600160f81b031916908160001a905350600101611880565b5092915050565b60006020825110156119445750602081015161031a565b81806020019051602081101561031557600080fd5b6000606060208360000151101561197a5761197383611af2565b9050611986565b611983836117a1565b90505b6109b28161192d565b60606108566119a88360200151600081518110610eb457fe5b611830565b606081835103600014156119d05750604080516020810190915260008152610856565b610853838384865103611afd565b6000805b8084511180156119f25750808351115b8015611a375750828181518110611a0557fe5b602001015160f81c60f81b6001600160f81b031916848281518110611a2657fe5b01602001516001600160f81b031916145b15610853576001016119e2565b606060008267ffffffffffffffff81118015611a5f57600080fd5b506040519080825280601f01601f191660200182016040528015611a8a576020820181803683370190505b509050805160001415611a9e5790506109b2565b8484016020820160005b60208604811015611ac9578251825260209283019290910190600101611aa8565b5080519151601f959095166020036101000a600019019182169119909416179092525092915050565b606061085682611c4e565b60608182601f011015611b48576040805162461bcd60e51b815260206004820152600e60248201526d736c6963655f6f766572666c6f7760901b604482015290519081900360640190fd5b828284011015611b90576040805162461bcd60e51b815260206004820152600e60248201526d736c6963655f6f766572666c6f7760901b604482015290519081900360640190fd5b81830184511015611bdc576040805162461bcd60e51b8152602060048201526011602482015270736c6963655f6f75744f66426f756e647360781b604482015290519081900360640190fd5b606082158015611bfb5760405191506000825260208201604052611c45565b6040519150601f8416801560200281840101858101878315602002848b0101015b81831015611c34578051835260209283019201611c1c565b5050858452601f01601f1916604052505b50949350505050565b6060610856826020015160008460000151611a44565b60408051608081018252600080825260208201819052918101829052606081019190915290565b604051806040016040528060608152602001606081525090565b604051806040016040528060008152602001600081525090565b600067ffffffffffffffff831115611cd357fe5b611ce6601f8401601f19166020016125cf565b9050828152838383011115611cfa57600080fd5b828260208301376000602084830101529392505050565b80356001600160a01b038116811461031a57600080fd5b600082601f830112611d38578081fd5b61085383833560208501611cbf565b600060a08284031215611d58578081fd5b60405160a0810167ffffffffffffffff8282108183111715611d7657fe5b81604052829350843583526020850135602084015260408501356040840152606085013560608401526080850135915080821115611db357600080fd5b50611dc085828601611d28565b6080830152505092915050565b600060408284031215611dde578081fd5b6040516040810167ffffffffffffffff8282108183111715611dfc57fe5b8160405282935084358352602091508185013581811115611e1c57600080fd5b8501601f81018713611e2d57600080fd5b803582811115611e3957fe5b8381029250611e498484016125cf565b8181528481019083860185850187018b1015611e6457600080fd5b600095505b83861015611e87578035835260019590950194918601918601611e69565b5080868801525050505050505092915050565b803563ffffffff8116811461031a57600080fd5b600060208284031215611ebf578081fd5b61085382611d11565b600080600080600060a08688031215611edf578081fd5b611ee886611d11565b9450611ef660208701611d11565b9350604086013567ffffffffffffffff80821115611f12578283fd5b611f1e89838a01611d28565b9450606088013593506080880135915080821115611f3a578283fd5b9087019060a0828a031215611f4d578283fd5b611f5760a06125cf565b82358152602083013582811115611f6c578485fd5b611f788b828601611d47565b602083015250604083013582811115611f8f578485fd5b611f9b8b828601611dcd565b604083015250606083013582811115611fb2578485fd5b611fbe8b828601611d28565b606083015250608083013582811115611fd5578485fd5b611fe18b828601611d28565b6080830152508093505050509295509295909350565b600080600080600060a0868803121561200e578081fd5b61201786611d11565b945061202560208701611d11565b9350604086013567ffffffffffffffff811115612040578182fd5b61204c88828901611d28565b9350506060860135915061206260808701611e9a565b90509295509295909350565b600080600060608486031215612082578283fd5b61208b84611d11565b9250602084013567ffffffffffffffff8111156120a6578283fd5b6120b286828701611d28565b9250506120c160408501611e9a565b90509250925092565b6000602082840312156120db578081fd5b81518015158114610853578182fd5b6000602082840312156120fb578081fd5b5035919050565b600060208284031215612113578081fd5b813567ffffffffffffffff811115612129578182fd5b8201601f81018413612139578182fd5b61214884823560208401611cbf565b949350505050565b600081518084526121688160208601602086016125f3565b601f01601f19169290920160200192915050565b600081518352602082015160208401526040820151604084015260608201516060840152608082015160a0608085015261214860a0850182612150565b60609190911b6001600160601b031916815260140190565b90815260200190565b918252602082015260400190565b600082516121fa8184602087016125f3565b9190910192915050565b600083516122168184602088016125f3565b60609390931b6001600160601b0319169190920190815260140192915050565b600084516122488184602089016125f3565b60609490941b6001600160601b03191691909301908152601481019190915260340192915050565b60f89190911b6001600160f81b031916815260010190565b6001600160a01b0391909116815260200190565b6001600160a01b038581168252841660208201526080604082018190526000906122c890830185612150565b905082606083015295945050505050565b600060018060a01b0385168252836020830152606060408301526118276060830184612150565b901515815260200190565b60008482526020606081840152612325606084018661217c565b838103604085015260408101855182528286015160408484015281815180845260608501915085830194508693505b808410156123745784518252938501936001939093019290850190612354565b509998505050505050505050565b6000602082526108536020830184612150565b6020808252601f908201527f78446f6d61696e4d65737361676553656e646572206973206e6f742073657400604082015260600190565b6020808252602b908201527f50726f7669646564206d6573736167652068617320616c72656164792062656560408201526a37103932b1b2b4bb32b21760a91b606082015260800190565b6020808252604d908201527f4d6573736167652070617373696e67207072656465706c6f7920686173206e6f60408201527f74206265656e20696e697469616c697a6564206f7220696e76616c696420707260608201526c37b7b310383937bb34b232b21760991b608082015260a00190565b6020808252602b908201527f50726f7669646564206d65737361676520686173206e6f7420616c726561647960408201526a103132b2b71039b2b73a1760a91b606082015260800190565b60208082526036908201527f4f6e6c79204f564d5f4c324d65737361676552656c617965722063616e2072656040820152753630bc90261916ba3796a6189036b2b9b9b0b3b2b99760511b606082015260800190565b60208082526027908201527f50726f7669646564206d65737361676520636f756c64206e6f742062652076656040820152663934b334b2b21760c91b606082015260800190565b6020808252602a908201527f4c3143726f7373446f6d61696e4d657373656e67657220616c72656164792069604082015269373a34b0b634bd32b21760b11b606082015260800190565b600060208252610853602083018461217c565b60405181810167ffffffffffffffff811182821017156125eb57fe5b604052919050565b60005b8381101561260e5781810151838201526020016125f6565b8381111561261d576000848401525b5050505056fe50726f766964656420524c50206c6973742065786365656473206d6178206c697374206c656e6774682e52656365697665642061206e6f6465207769746820616e20756e6b6e6f776e20707265666978a2646970667358221220a662a5b81fc96637d5eb204496c3361c9a88ba50adf515314202446c37fc10ad64736f6c63430007060033",
  "devdoc": {
    "details": "The L1 Cross Domain Messenger contract sends messages from L1 to L2, and relays messages from L2 onto L1. In the event that a message sent from L1 to L2 is rejected for exceeding the L2 epoch gas limit, it can be resubmitted via this contract's replay function. Compiler used: solc Runtime target: EVM",
    "kind": "dev",
    "methods": {
      "initialize(address)": {
        "params": {
          "_libAddressManager": "Address of the Address Manager."
        }
      },
      "relayMessage(address,address,bytes,uint256,(bytes32,(uint256,bytes32,uint256,uint256,bytes),(uint256,bytes32[]),bytes,bytes))": {
        "params": {
          "_message": "Message to send to the target.",
          "_messageNonce": "Nonce for the provided message.",
          "_proof": "Inclusion proof for the given message.",
          "_sender": "Message sender address.",
          "_target": "Target contract address."
        }
      },
      "replayMessage(address,address,bytes,uint256,uint32)": {
        "params": {
          "_gasLimit": "Gas limit for the provided message.",
          "_message": "Message to send to the target.",
          "_messageNonce": "Nonce for the provided message.",
          "_sender": "Original sender address.",
          "_target": "Target contract address."
        }
      },
      "resolve(string)": {
        "params": {
          "_name": "Name to resolve an address for."
        },
        "returns": {
          "_0": "Address associated with the given name."
        }
      },
      "sendMessage(address,bytes,uint32)": {
        "params": {
          "_gasLimit": "Gas limit for the provided message.",
          "_message": "Message to send to the target.",
          "_target": "Target contract address."
        }
      }
    },
    "title": "OVM_L1CrossDomainMessenger",
    "version": 1
  },
  "userdoc": {
    "kind": "user",
    "methods": {
      "constructor": {
        "notice": "Pass a default zero address to the address resolver. This will be updated when initialized."
      },
      "relayMessage(address,address,bytes,uint256,(bytes32,(uint256,bytes32,uint256,uint256,bytes),(uint256,bytes32[]),bytes,bytes))": {
        "notice": "Relays a cross domain message to a contract."
      },
      "replayMessage(address,address,bytes,uint256,uint32)": {
        "notice": "Replays a cross domain message to the target messenger."
      },
      "resolve(string)": {
        "notice": "Resolves the address associated with a given name."
      },
      "sendMessage(address,bytes,uint32)": {
        "notice": "Sends a cross domain message to the target messenger."
      }
    },
    "version": 1
  },
  "storageLayout": {
    "storage": [
      {
        "astId": 571,
        "contract": "contracts/optimistic-ethereum/OVM/bridge/messaging/OVM_L1CrossDomainMessenger.sol:OVM_L1CrossDomainMessenger",
        "label": "_status",
        "offset": 0,
        "slot": "0",
        "type": "t_uint256"
      },
      {
        "astId": 619,
        "contract": "contracts/optimistic-ethereum/OVM/bridge/messaging/OVM_L1CrossDomainMessenger.sol:OVM_L1CrossDomainMessenger",
        "label": "relayedMessages",
        "offset": 0,
        "slot": "1",
        "type": "t_mapping(t_bytes32,t_bool)"
      },
      {
        "astId": 623,
        "contract": "contracts/optimistic-ethereum/OVM/bridge/messaging/OVM_L1CrossDomainMessenger.sol:OVM_L1CrossDomainMessenger",
        "label": "successfulMessages",
        "offset": 0,
        "slot": "2",
        "type": "t_mapping(t_bytes32,t_bool)"
      },
      {
        "astId": 627,
        "contract": "contracts/optimistic-ethereum/OVM/bridge/messaging/OVM_L1CrossDomainMessenger.sol:OVM_L1CrossDomainMessenger",
        "label": "sentMessages",
        "offset": 0,
        "slot": "3",
        "type": "t_mapping(t_bytes32,t_bool)"
      },
      {
        "astId": 629,
        "contract": "contracts/optimistic-ethereum/OVM/bridge/messaging/OVM_L1CrossDomainMessenger.sol:OVM_L1CrossDomainMessenger",
        "label": "messageNonce",
        "offset": 0,
        "slot": "4",
        "type": "t_uint256"
      },
      {
        "astId": 632,
        "contract": "contracts/optimistic-ethereum/OVM/bridge/messaging/OVM_L1CrossDomainMessenger.sol:OVM_L1CrossDomainMessenger",
        "label": "xDomainMsgSender",
        "offset": 0,
        "slot": "5",
        "type": "t_address"
      },
      {
        "astId": 12055,
        "contract": "contracts/optimistic-ethereum/OVM/bridge/messaging/OVM_L1CrossDomainMessenger.sol:OVM_L1CrossDomainMessenger",
        "label": "libAddressManager",
        "offset": 0,
        "slot": "6",
        "type": "t_contract(Lib_AddressManager)12048"
      }
    ],
    "types": {
      "t_address": {
        "encoding": "inplace",
        "label": "address",
        "numberOfBytes": "20"
      },
      "t_bool": {
        "encoding": "inplace",
        "label": "bool",
        "numberOfBytes": "1"
      },
      "t_bytes32": {
        "encoding": "inplace",
        "label": "bytes32",
        "numberOfBytes": "32"
      },
      "t_contract(Lib_AddressManager)12048": {
        "encoding": "inplace",
        "label": "contract Lib_AddressManager",
        "numberOfBytes": "20"
      },
      "t_mapping(t_bytes32,t_bool)": {
        "encoding": "mapping",
        "key": "t_bytes32",
        "label": "mapping(bytes32 => bool)",
        "numberOfBytes": "32",
        "value": "t_bool"
      },
      "t_uint256": {
        "encoding": "inplace",
        "label": "uint256",
        "numberOfBytes": "32"
      }
    }
  }
}