{
  "address": "0xF4bFb93AF747d5A987c4B269879F64768C10D7Ec",
  "abi": [
    {
      "inputs": [
        {
          "internalType": "string",
          "name": "_name",
          "type": "string"
        },
        {
          "internalType": "string",
          "name": "_symbol",
          "type": "string"
        },
        {
          "internalType": "address",
          "name": "_attestor",
          "type": "address"
        },
        {
          "internalType": "contract AttestationStation",
          "name": "_attestationStation",
          "type": "address"
        }
      ],
      "stateMutability": "nonpayable",
      "type": "constructor"
    },
    {
      "anonymous": false,
      "inputs": [
        {
          "indexed": true,
          "internalType": "address",
          "name": "owner",
          "type": "address"
        },
        {
          "indexed": true,
          "internalType": "address",
          "name": "approved",
          "type": "address"
        },
        {
          "indexed": true,
          "internalType": "uint256",
          "name": "tokenId",
          "type": "uint256"
        }
      ],
      "name": "Approval",
      "type": "event"
    },
    {
      "anonymous": false,
      "inputs": [
        {
          "indexed": true,
          "internalType": "address",
          "name": "owner",
          "type": "address"
        },
        {
          "indexed": true,
          "internalType": "address",
          "name": "operator",
          "type": "address"
        },
        {
          "indexed": false,
          "internalType": "bool",
          "name": "approved",
          "type": "bool"
        }
      ],
      "name": "ApprovalForAll",
      "type": "event"
    },
    {
      "anonymous": false,
      "inputs": [
        {
          "indexed": false,
          "internalType": "uint8",
          "name": "version",
          "type": "uint8"
        }
      ],
      "name": "Initialized",
      "type": "event"
    },
    {
      "anonymous": false,
      "inputs": [
        {
          "indexed": true,
          "internalType": "address",
          "name": "from",
          "type": "address"
        },
        {
          "indexed": true,
          "internalType": "address",
          "name": "to",
          "type": "address"
        },
        {
          "indexed": true,
          "internalType": "uint256",
          "name": "tokenId",
          "type": "uint256"
        }
      ],
      "name": "Transfer",
      "type": "event"
    },
    {
      "inputs": [],
      "name": "ATTESTATION_STATION",
      "outputs": [
        {
          "internalType": "contract AttestationStation",
          "name": "",
          "type": "address"
        }
      ],
      "stateMutability": "view",
      "type": "function"
    },
    {
      "inputs": [],
      "name": "ATTESTOR",
      "outputs": [
        {
          "internalType": "address",
          "name": "",
          "type": "address"
        }
      ],
      "stateMutability": "view",
      "type": "function"
    },
    {
      "inputs": [
        {
          "internalType": "address",
          "name": "",
          "type": "address"
        },
        {
          "internalType": "uint256",
          "name": "",
          "type": "uint256"
        }
      ],
      "name": "approve",
      "outputs": [],
      "stateMutability": "pure",
      "type": "function"
    },
    {
      "inputs": [
        {
          "internalType": "address",
          "name": "owner",
          "type": "address"
        }
      ],
      "name": "balanceOf",
      "outputs": [
        {
          "internalType": "uint256",
          "name": "",
          "type": "uint256"
        }
      ],
      "stateMutability": "view",
      "type": "function"
    },
    {
      "inputs": [],
      "name": "baseURI",
      "outputs": [
        {
          "internalType": "string",
          "name": "",
          "type": "string"
        }
      ],
      "stateMutability": "view",
      "type": "function"
    },
    {
      "inputs": [
        {
          "internalType": "uint256",
          "name": "tokenId",
          "type": "uint256"
        }
      ],
      "name": "burn",
      "outputs": [],
      "stateMutability": "nonpayable",
      "type": "function"
    },
    {
      "inputs": [
        {
          "internalType": "uint256",
          "name": "tokenId",
          "type": "uint256"
        }
      ],
      "name": "getApproved",
      "outputs": [
        {
          "internalType": "address",
          "name": "",
          "type": "address"
        }
      ],
      "stateMutability": "view",
      "type": "function"
    },
    {
      "inputs": [
        {
          "internalType": "string",
          "name": "_name",
          "type": "string"
        },
        {
          "internalType": "string",
          "name": "_symbol",
          "type": "string"
        }
      ],
      "name": "initialize",
      "outputs": [],
      "stateMutability": "nonpayable",
      "type": "function"
    },
    {
      "inputs": [
        {
          "internalType": "address",
          "name": "owner",
          "type": "address"
        },
        {
          "internalType": "address",
          "name": "operator",
          "type": "address"
        }
      ],
      "name": "isApprovedForAll",
      "outputs": [
        {
          "internalType": "bool",
          "name": "",
          "type": "bool"
        }
      ],
      "stateMutability": "view",
      "type": "function"
    },
    {
      "inputs": [
        {
          "internalType": "address",
          "name": "_recipient",
          "type": "address"
        }
      ],
      "name": "isOnAllowList",
      "outputs": [
        {
          "internalType": "bool",
          "name": "",
          "type": "bool"
        }
      ],
      "stateMutability": "view",
      "type": "function"
    },
    {
      "inputs": [
        {
          "internalType": "address",
          "name": "_recipient",
          "type": "address"
        }
      ],
      "name": "mint",
      "outputs": [],
      "stateMutability": "nonpayable",
      "type": "function"
    },
    {
      "inputs": [],
      "name": "name",
      "outputs": [
        {
          "internalType": "string",
          "name": "",
          "type": "string"
        }
      ],
      "stateMutability": "view",
      "type": "function"
    },
    {
      "inputs": [
        {
          "internalType": "uint256",
          "name": "tokenId",
          "type": "uint256"
        }
      ],
      "name": "ownerOf",
      "outputs": [
        {
          "internalType": "address",
          "name": "",
          "type": "address"
        }
      ],
      "stateMutability": "view",
      "type": "function"
    },
    {
      "inputs": [
        {
          "internalType": "address",
          "name": "from",
          "type": "address"
        },
        {
          "internalType": "address",
          "name": "to",
          "type": "address"
        },
        {
          "internalType": "uint256",
          "name": "tokenId",
          "type": "uint256"
        }
      ],
      "name": "safeTransferFrom",
      "outputs": [],
      "stateMutability": "nonpayable",
      "type": "function"
    },
    {
      "inputs": [
        {
          "internalType": "address",
          "name": "from",
          "type": "address"
        },
        {
          "internalType": "address",
          "name": "to",
          "type": "address"
        },
        {
          "internalType": "uint256",
          "name": "tokenId",
          "type": "uint256"
        },
        {
          "internalType": "bytes",
          "name": "data",
          "type": "bytes"
        }
      ],
      "name": "safeTransferFrom",
      "outputs": [],
      "stateMutability": "nonpayable",
      "type": "function"
    },
    {
      "inputs": [
        {
          "internalType": "address",
          "name": "",
          "type": "address"
        },
        {
          "internalType": "bool",
          "name": "",
          "type": "bool"
        }
      ],
      "name": "setApprovalForAll",
      "outputs": [],
      "stateMutability": "nonpayable",
      "type": "function"
    },
    {
      "inputs": [
        {
          "internalType": "bytes4",
          "name": "interfaceId",
          "type": "bytes4"
        }
      ],
      "name": "supportsInterface",
      "outputs": [
        {
          "internalType": "bool",
          "name": "",
          "type": "bool"
        }
      ],
      "stateMutability": "view",
      "type": "function"
    },
    {
      "inputs": [],
      "name": "symbol",
      "outputs": [
        {
          "internalType": "string",
          "name": "",
          "type": "string"
        }
      ],
      "stateMutability": "view",
      "type": "function"
    },
    {
      "inputs": [
        {
          "internalType": "address",
          "name": "_owner",
          "type": "address"
        }
      ],
      "name": "tokenIdOfAddress",
      "outputs": [
        {
          "internalType": "uint256",
          "name": "",
          "type": "uint256"
        }
      ],
      "stateMutability": "pure",
      "type": "function"
    },
    {
      "inputs": [
        {
          "internalType": "uint256",
          "name": "_tokenId",
          "type": "uint256"
        }
      ],
      "name": "tokenURI",
      "outputs": [
        {
          "internalType": "string",
          "name": "",
          "type": "string"
        }
      ],
      "stateMutability": "view",
      "type": "function"
    },
    {
      "inputs": [
        {
          "internalType": "address",
          "name": "from",
          "type": "address"
        },
        {
          "internalType": "address",
          "name": "to",
          "type": "address"
        },
        {
          "internalType": "uint256",
          "name": "tokenId",
          "type": "uint256"
        }
      ],
      "name": "transferFrom",
      "outputs": [],
      "stateMutability": "nonpayable",
      "type": "function"
    },
    {
      "inputs": [],
      "name": "version",
      "outputs": [
        {
          "internalType": "string",
          "name": "",
          "type": "string"
        }
      ],
      "stateMutability": "view",
      "type": "function"
    }
  ],
  "transactionHash": "0xc694d1767ea274ae8ca14d2bec049ade24594cc7fce0583ed32f5cc36d982302",
  "args": [
    "Optimist",
    "OPTIMIST",
    "0x60c5C9c98bcBd0b0F2fD89B24c16e533BaA8CdA3",
    "0xEE36eaaD94d1Cc1d0eccaDb55C38bFfB6Be06C77"
  ],
  "numDeployments": 1,
  "solcInputHash": "45837d34ff24b9cb2ae34232b60ea874",
  "bytecode": "0x6101206040523480156200001257600080fd5b5060405162002c2b38038062002c2b8339810160408190526200003591620003e6565b6001608052600060a081905260c0526001600160a01b0380831661010052811660e0526200006484846200006e565b50505050620005d4565b600054610100900460ff16158080156200008f5750600054600160ff909116105b80620000bf5750620000ac30620001ae60201b62000dcc1760201c565b158015620000bf575060005460ff166001145b620001285760405162461bcd60e51b815260206004820152602e60248201527f496e697469616c697a61626c653a20636f6e747261637420697320616c72656160448201526d191e481a5b9a5d1a585b1a5e995960921b60648201526084015b60405180910390fd5b6000805460ff1916600117905580156200014c576000805461ff0019166101001790555b620001588383620001bd565b6200016262000229565b8015620001a9576000805461ff0019169055604051600181527f7f26b83ff96e1f2b6a682f133852f6798a09c465da95921460cefb38474024989060200160405180910390a15b505050565b6001600160a01b03163b151590565b600054610100900460ff16620002195760405162461bcd60e51b815260206004820152602b602482015260008051602062002c0b83398151915260448201526a6e697469616c697a696e6760a81b60648201526084016200011f565b62000225828262000287565b5050565b600054610100900460ff16620002855760405162461bcd60e51b815260206004820152602b602482015260008051602062002c0b83398151915260448201526a6e697469616c697a696e6760a81b60648201526084016200011f565b565b600054610100900460ff16620002e35760405162461bcd60e51b815260206004820152602b602482015260008051602062002c0b83398151915260448201526a6e697469616c697a696e6760a81b60648201526084016200011f565b6065620002f1838262000508565b506066620001a9828262000508565b634e487b7160e01b600052604160045260246000fd5b600082601f8301126200032857600080fd5b81516001600160401b038082111562000345576200034562000300565b604051601f8301601f19908116603f0116810190828211818310171562000370576200037062000300565b816040528381526020925086838588010111156200038d57600080fd5b600091505b83821015620003b1578582018301518183018401529082019062000392565b83821115620003c35760008385830101525b9695505050505050565b6001600160a01b0381168114620003e357600080fd5b50565b60008060008060808587031215620003fd57600080fd5b84516001600160401b03808211156200041557600080fd5b620004238883890162000316565b955060208701519150808211156200043a57600080fd5b50620004498782880162000316565b93505060408501516200045c81620003cd565b60608601519092506200046f81620003cd565b939692955090935050565b600181811c908216806200048f57607f821691505b602082108103620004b057634e487b7160e01b600052602260045260246000fd5b50919050565b601f821115620001a957600081815260208120601f850160051c81016020861015620004df5750805b601f850160051c820191505b818110156200050057828155600101620004eb565b505050505050565b81516001600160401b0381111562000524576200052462000300565b6200053c816200053584546200047a565b84620004b6565b602080601f8311600181146200057457600084156200055b5750858301515b600019600386901b1c1916600185901b17855562000500565b600085815260208120601f198616915b82811015620005a55788860151825594840194600190910190840162000584565b5085821015620005c45787850151600019600388901b60f8161c191681555b5050505050600190811b01905550565b60805160a05160c05160e051610100516125d6620006356000396000818161035601528181610a580152610c2101526000818161032f01528181610aaf0152610c7c015260006108c40152600061089b0152600061087201526125d66000f3fe608060405234801561001057600080fd5b50600436106101825760003560e01c80636c0360eb116100d8578063a22cb4651161008c578063db083d7111610066578063db083d711461032a578063dfe2d20f14610351578063e985e9c51461037857600080fd5b8063a22cb465146102f6578063b88d4fde14610304578063c87b56dd1461031757600080fd5b80637c08652f116100bd5780637c08652f146102b45780638f328a1f146102db57806395d89b41146102ee57600080fd5b80636c0360eb1461028b57806370a082311461029357600080fd5b806342842e0e1161013a57806354fd4d501161011457806354fd4d501461025d5780636352211e146102655780636a6278421461027857600080fd5b806342842e0e1461022457806342966c68146102375780634cd88b761461024a57600080fd5b8063081812fc1161016b578063081812fc146101c4578063095ea7b3146101fc57806323b872dd1461021157600080fd5b806301ffc9a71461018757806306fdde03146101af575b600080fd5b61019a610195366004611d04565b6103c1565b60405190151581526020015b60405180910390f35b6101b76104a6565b6040516101a69190611d79565b6101d76101d2366004611d8c565b610538565b60405173ffffffffffffffffffffffffffffffffffffffff90911681526020016101a6565b61020f61020a366004611dce565b61056c565b005b61020f61021f366004611df8565b6105b9565b61020f610232366004611df8565b610646565b61020f610245366004611d8c565b610661565b61020f610258366004611f1a565b6106e8565b6101b761086b565b6101d7610273366004611d8c565b61090e565b61020f610286366004611f7e565b610980565b6101b7610a1b565b6102a66102a1366004611f7e565b610b30565b6040519081526020016101a6565b6102a66102c2366004611f7e565b73ffffffffffffffffffffffffffffffffffffffff1690565b61019a6102e9366004611f7e565b610be4565b6101b7610cf3565b61020f61020a366004611f99565b61020f610312366004611fd5565b610d02565b6101b7610325366004611d8c565b610d90565b6101d77f000000000000000000000000000000000000000000000000000000000000000081565b6101d77f000000000000000000000000000000000000000000000000000000000000000081565b61019a610386366004612051565b73ffffffffffffffffffffffffffffffffffffffff9182166000908152606a6020908152604080832093909416825291909152205460ff1690565b60007fffffffff0000000000000000000000000000000000000000000000000000000082167f80ac58cd00000000000000000000000000000000000000000000000000000000148061045457507fffffffff0000000000000000000000000000000000000000000000000000000082167f5b5e139f00000000000000000000000000000000000000000000000000000000145b806104a057507f01ffc9a7000000000000000000000000000000000000000000000000000000007fffffffff000000000000000000000000000000000000000000000000000000008316145b92915050565b6060606580546104b590612084565b80601f01602080910402602001604051908101604052809291908181526020018280546104e190612084565b801561052e5780601f106105035761010080835404028352916020019161052e565b820191906000526020600020905b81548152906001019060200180831161051157829003601f168201915b5050505050905090565b600061054382610de8565b5060009081526069602052604090205473ffffffffffffffffffffffffffffffffffffffff1690565b60405162461bcd60e51b815260206004820152601a60248201527f4f7074696d6973743a20736f756c20626f756e6420746f6b656e00000000000060448201526064015b60405180910390fd5b6105c4335b82610e59565b6106365760405162461bcd60e51b815260206004820152602e60248201527f4552433732313a2063616c6c6572206973206e6f7420746f6b656e206f776e6560448201527f72206e6f7220617070726f76656400000000000000000000000000000000000060648201526084016105b0565b610641838383610f19565b505050565b61064183838360405180602001604052806000815250610d02565b61066a336105be565b6106dc5760405162461bcd60e51b815260206004820152602e60248201527f4552433732313a2063616c6c6572206973206e6f7420746f6b656e206f776e6560448201527f72206e6f7220617070726f76656400000000000000000000000000000000000060648201526084016105b0565b6106e581611157565b50565b600054610100900460ff16158080156107085750600054600160ff909116105b806107225750303b158015610722575060005460ff166001145b6107945760405162461bcd60e51b815260206004820152602e60248201527f496e697469616c697a61626c653a20636f6e747261637420697320616c72656160448201527f647920696e697469616c697a656400000000000000000000000000000000000060648201526084016105b0565b600080547fffffffffffffffffffffffffffffffffffffffffffffffffffffffffffffff0016600117905580156107f257600080547fffffffffffffffffffffffffffffffffffffffffffffffffffffffffffff00ff166101001790555b6107fc8383611231565b6108046112b8565b801561064157600080547fffffffffffffffffffffffffffffffffffffffffffffffffffffffffffff00ff169055604051600181527f7f26b83ff96e1f2b6a682f133852f6798a09c465da95921460cefb38474024989060200160405180910390a1505050565b60606108967f0000000000000000000000000000000000000000000000000000000000000000611337565b6108bf7f0000000000000000000000000000000000000000000000000000000000000000611337565b6108e87f0000000000000000000000000000000000000000000000000000000000000000611337565b6040516020016108fa939291906120d7565b604051602081830303815290604052905090565b60008181526067602052604081205473ffffffffffffffffffffffffffffffffffffffff16806104a05760405162461bcd60e51b815260206004820152601860248201527f4552433732313a20696e76616c696420746f6b656e204944000000000000000060448201526064016105b0565b61098981610be4565b6109fb5760405162461bcd60e51b815260206004820152602560248201527f4f7074696d6973743a2061646472657373206973206e6f74206f6e20616c6c6f60448201527f774c69737400000000000000000000000000000000000000000000000000000060648201526084016105b0565b6106e58173ffffffffffffffffffffffffffffffffffffffff811661146c565b6040517f29b42cb500000000000000000000000000000000000000000000000000000000815273ffffffffffffffffffffffffffffffffffffffff7f0000000000000000000000000000000000000000000000000000000000000000811660048301523060248301527f6f7074696d6973742e626173652d75726900000000000000000000000000000060448301526060917f0000000000000000000000000000000000000000000000000000000000000000909116906329b42cb590606401600060405180830381865afa158015610af8573d6000803e3d6000fd5b505050506040513d6000823e601f3d908101601f19168201604052610b20919081019061214d565b6040516020016108fa91906121c4565b600073ffffffffffffffffffffffffffffffffffffffff8216610bbb5760405162461bcd60e51b815260206004820152602960248201527f4552433732313a2061646472657373207a65726f206973206e6f74206120766160448201527f6c6964206f776e6572000000000000000000000000000000000000000000000060648201526084016105b0565b5073ffffffffffffffffffffffffffffffffffffffff1660009081526068602052604090205490565b6040517f29b42cb500000000000000000000000000000000000000000000000000000000815273ffffffffffffffffffffffffffffffffffffffff7f00000000000000000000000000000000000000000000000000000000000000008116600483015282811660248301527f6f7074696d6973742e63616e2d6d696e74000000000000000000000000000000604483015260009182917f000000000000000000000000000000000000000000000000000000000000000016906329b42cb590606401600060405180830381865afa158015610cc3573d6000803e3d6000fd5b505050506040513d6000823e601f3d908101601f19168201604052610ceb919081019061214d565b511192915050565b6060606680546104b590612084565b610d0c3383610e59565b610d7e5760405162461bcd60e51b815260206004820152602e60248201527f4552433732313a2063616c6c6572206973206e6f7420746f6b656e206f776e6560448201527f72206e6f7220617070726f76656400000000000000000000000000000000000060648201526084016105b0565b610d8a84848484611486565b50505050565b6060610d9a610a1b565b610da583601461150f565b604051602001610db69291906121e0565b6040516020818303038152906040529050919050565b73ffffffffffffffffffffffffffffffffffffffff163b151590565b60008181526067602052604090205473ffffffffffffffffffffffffffffffffffffffff166106e55760405162461bcd60e51b815260206004820152601860248201527f4552433732313a20696e76616c696420746f6b656e204944000000000000000060448201526064016105b0565b600080610e658361090e565b90508073ffffffffffffffffffffffffffffffffffffffff168473ffffffffffffffffffffffffffffffffffffffff161480610ed3575073ffffffffffffffffffffffffffffffffffffffff8082166000908152606a602090815260408083209388168352929052205460ff165b80610f1157508373ffffffffffffffffffffffffffffffffffffffff16610ef984610538565b73ffffffffffffffffffffffffffffffffffffffff16145b949350505050565b8273ffffffffffffffffffffffffffffffffffffffff16610f398261090e565b73ffffffffffffffffffffffffffffffffffffffff1614610fc25760405162461bcd60e51b815260206004820152602560248201527f4552433732313a207472616e736665722066726f6d20696e636f72726563742060448201527f6f776e657200000000000000000000000000000000000000000000000000000060648201526084016105b0565b73ffffffffffffffffffffffffffffffffffffffff821661104a5760405162461bcd60e51b8152602060048201526024808201527f4552433732313a207472616e7366657220746f20746865207a65726f2061646460448201527f726573730000000000000000000000000000000000000000000000000000000060648201526084016105b0565b61105583838361173f565b6110606000826117c2565b73ffffffffffffffffffffffffffffffffffffffff83166000908152606860205260408120805460019290611096908490612291565b909155505073ffffffffffffffffffffffffffffffffffffffff821660009081526068602052604081208054600192906110d19084906122a8565b909155505060008181526067602052604080822080547fffffffffffffffffffffffff00000000000000000000000000000000000000001673ffffffffffffffffffffffffffffffffffffffff86811691821790925591518493918716917fddf252ad1be2c89b69c2b068fc378daa952ba7f163c4a11628f55a4df523b3ef91a4505050565b60006111628261090e565b90506111708160008461173f565b61117b6000836117c2565b73ffffffffffffffffffffffffffffffffffffffff811660009081526068602052604081208054600192906111b1908490612291565b909155505060008281526067602052604080822080547fffffffffffffffffffffffff00000000000000000000000000000000000000001690555183919073ffffffffffffffffffffffffffffffffffffffff8416907fddf252ad1be2c89b69c2b068fc378daa952ba7f163c4a11628f55a4df523b3ef908390a45b5050565b600054610100900460ff166112ae5760405162461bcd60e51b815260206004820152602b60248201527f496e697469616c697a61626c653a20636f6e7472616374206973206e6f74206960448201527f6e697469616c697a696e6700000000000000000000000000000000000000000060648201526084016105b0565b61122d8282611862565b600054610100900460ff166113355760405162461bcd60e51b815260206004820152602b60248201527f496e697469616c697a61626c653a20636f6e7472616374206973206e6f74206960448201527f6e697469616c697a696e6700000000000000000000000000000000000000000060648201526084016105b0565b565b60608160000361137a57505060408051808201909152600181527f3000000000000000000000000000000000000000000000000000000000000000602082015290565b8160005b81156113a4578061138e816122c0565b915061139d9050600a83612327565b915061137e565b60008167ffffffffffffffff8111156113bf576113bf611e34565b6040519080825280601f01601f1916602001820160405280156113e9576020820181803683370190505b5090505b8415610f11576113fe600183612291565b915061140b600a8661233b565b6114169060306122a8565b60f81b81838151811061142b5761142b61234f565b60200101907effffffffffffffffffffffffffffffffffffffffffffffffffffffffffffff1916908160001a905350611465600a86612327565b94506113ed565b61122d8282604051806020016040528060008152506118f8565b611491848484610f19565b61149d84848484611981565b610d8a5760405162461bcd60e51b815260206004820152603260248201527f4552433732313a207472616e7366657220746f206e6f6e20455243373231526560448201527f63656976657220696d706c656d656e746572000000000000000000000000000060648201526084016105b0565b6060600061151e83600261237e565b6115299060026122a8565b67ffffffffffffffff81111561154157611541611e34565b6040519080825280601f01601f19166020018201604052801561156b576020820181803683370190505b5090507f3000000000000000000000000000000000000000000000000000000000000000816000815181106115a2576115a261234f565b60200101907effffffffffffffffffffffffffffffffffffffffffffffffffffffffffffff1916908160001a9053507f7800000000000000000000000000000000000000000000000000000000000000816001815181106116055761160561234f565b60200101907effffffffffffffffffffffffffffffffffffffffffffffffffffffffffffff1916908160001a905350600061164184600261237e565b61164c9060016122a8565b90505b60018111156116e9577f303132333435363738396162636465660000000000000000000000000000000085600f166010811061168d5761168d61234f565b1a60f81b8282815181106116a3576116a361234f565b60200101907effffffffffffffffffffffffffffffffffffffffffffffffffffffffffffff1916908160001a90535060049490941c936116e2816123bb565b905061164f565b5083156117385760405162461bcd60e51b815260206004820181905260248201527f537472696e67733a20686578206c656e67746820696e73756666696369656e7460448201526064016105b0565b9392505050565b73ffffffffffffffffffffffffffffffffffffffff83161580611776575073ffffffffffffffffffffffffffffffffffffffff8216155b6106415760405162461bcd60e51b815260206004820152601a60248201527f4f7074696d6973743a20736f756c20626f756e6420746f6b656e00000000000060448201526064016105b0565b600081815260696020526040902080547fffffffffffffffffffffffff00000000000000000000000000000000000000001673ffffffffffffffffffffffffffffffffffffffff8416908117909155819061181c8261090e565b73ffffffffffffffffffffffffffffffffffffffff167f8c5be1e5ebec7d5bd14f71427d1e84f3dd0314c0f7b2291e5b200ac8c7c3b92560405160405180910390a45050565b600054610100900460ff166118df5760405162461bcd60e51b815260206004820152602b60248201527f496e697469616c697a61626c653a20636f6e7472616374206973206e6f74206960448201527f6e697469616c697a696e6700000000000000000000000000000000000000000060648201526084016105b0565b60656118eb838261243e565b506066610641828261243e565b6119028383611b3c565b61190f6000848484611981565b6106415760405162461bcd60e51b815260206004820152603260248201527f4552433732313a207472616e7366657220746f206e6f6e20455243373231526560448201527f63656976657220696d706c656d656e746572000000000000000000000000000060648201526084016105b0565b600073ffffffffffffffffffffffffffffffffffffffff84163b15611b31576040517f150b7a0200000000000000000000000000000000000000000000000000000000815273ffffffffffffffffffffffffffffffffffffffff85169063150b7a02906119f890339089908890889060040161253a565b6020604051808303816000875af1925050508015611a33575060408051601f3d908101601f19168201909252611a3091810190612583565b60015b611ae6573d808015611a61576040519150601f19603f3d011682016040523d82523d6000602084013e611a66565b606091505b508051600003611ade5760405162461bcd60e51b815260206004820152603260248201527f4552433732313a207472616e7366657220746f206e6f6e20455243373231526560448201527f63656976657220696d706c656d656e746572000000000000000000000000000060648201526084016105b0565b805181602001fd5b7fffffffff00000000000000000000000000000000000000000000000000000000167f150b7a0200000000000000000000000000000000000000000000000000000000149050610f11565b506001949350505050565b73ffffffffffffffffffffffffffffffffffffffff8216611b9f5760405162461bcd60e51b815260206004820181905260248201527f4552433732313a206d696e7420746f20746865207a65726f206164647265737360448201526064016105b0565b60008181526067602052604090205473ffffffffffffffffffffffffffffffffffffffff1615611c115760405162461bcd60e51b815260206004820152601c60248201527f4552433732313a20746f6b656e20616c7265616479206d696e7465640000000060448201526064016105b0565b611c1d6000838361173f565b73ffffffffffffffffffffffffffffffffffffffff82166000908152606860205260408120805460019290611c539084906122a8565b909155505060008181526067602052604080822080547fffffffffffffffffffffffff00000000000000000000000000000000000000001673ffffffffffffffffffffffffffffffffffffffff861690811790915590518392907fddf252ad1be2c89b69c2b068fc378daa952ba7f163c4a11628f55a4df523b3ef908290a45050565b7fffffffff00000000000000000000000000000000000000000000000000000000811681146106e557600080fd5b600060208284031215611d1657600080fd5b813561173881611cd6565b60005b83811015611d3c578181015183820152602001611d24565b83811115610d8a5750506000910152565b60008151808452611d65816020860160208601611d21565b601f01601f19169290920160200192915050565b6020815260006117386020830184611d4d565b600060208284031215611d9e57600080fd5b5035919050565b803573ffffffffffffffffffffffffffffffffffffffff81168114611dc957600080fd5b919050565b60008060408385031215611de157600080fd5b611dea83611da5565b946020939093013593505050565b600080600060608486031215611e0d57600080fd5b611e1684611da5565b9250611e2460208501611da5565b9150604084013590509250925092565b7f4e487b7100000000000000000000000000000000000000000000000000000000600052604160045260246000fd5b604051601f8201601f1916810167ffffffffffffffff81118282101715611e8c57611e8c611e34565b604052919050565b600067ffffffffffffffff821115611eae57611eae611e34565b50601f01601f191660200190565b6000611ecf611eca84611e94565b611e63565b9050828152838383011115611ee357600080fd5b828260208301376000602084830101529392505050565b600082601f830112611f0b57600080fd5b61173883833560208501611ebc565b60008060408385031215611f2d57600080fd5b823567ffffffffffffffff80821115611f4557600080fd5b611f5186838701611efa565b93506020850135915080821115611f6757600080fd5b50611f7485828601611efa565b9150509250929050565b600060208284031215611f9057600080fd5b61173882611da5565b60008060408385031215611fac57600080fd5b611fb583611da5565b915060208301358015158114611fca57600080fd5b809150509250929050565b60008060008060808587031215611feb57600080fd5b611ff485611da5565b935061200260208601611da5565b925060408501359150606085013567ffffffffffffffff81111561202557600080fd5b8501601f8101871361203657600080fd5b61204587823560208401611ebc565b91505092959194509250565b6000806040838503121561206457600080fd5b61206d83611da5565b915061207b60208401611da5565b90509250929050565b600181811c9082168061209857607f821691505b6020821081036120d1577f4e487b7100000000000000000000000000000000000000000000000000000000600052602260045260246000fd5b50919050565b600084516120e9818460208901611d21565b80830190507f2e000000000000000000000000000000000000000000000000000000000000008082528551612125816001850160208a01611d21565b60019201918201528351612140816002840160208801611d21565b0160020195945050505050565b60006020828403121561215f57600080fd5b815167ffffffffffffffff81111561217657600080fd5b8201601f8101841361218757600080fd5b8051612195611eca82611e94565b8181528560208385010111156121aa57600080fd5b6121bb826020830160208601611d21565b95945050505050565b600082516121d6818460208701611d21565b9190910192915050565b600083516121f2818460208801611d21565b7f2f00000000000000000000000000000000000000000000000000000000000000908301908152835161222c816001840160208801611d21565b7f2e6a736f6e00000000000000000000000000000000000000000000000000000060019290910191820152600601949350505050565b7f4e487b7100000000000000000000000000000000000000000000000000000000600052601160045260246000fd5b6000828210156122a3576122a3612262565b500390565b600082198211156122bb576122bb612262565b500190565b60007fffffffffffffffffffffffffffffffffffffffffffffffffffffffffffffffff82036122f1576122f1612262565b5060010190565b7f4e487b7100000000000000000000000000000000000000000000000000000000600052601260045260246000fd5b600082612336576123366122f8565b500490565b60008261234a5761234a6122f8565b500690565b7f4e487b7100000000000000000000000000000000000000000000000000000000600052603260045260246000fd5b6000817fffffffffffffffffffffffffffffffffffffffffffffffffffffffffffffffff04831182151516156123b6576123b6612262565b500290565b6000816123ca576123ca612262565b507fffffffffffffffffffffffffffffffffffffffffffffffffffffffffffffffff0190565b601f82111561064157600081815260208120601f850160051c810160208610156124175750805b601f850160051c820191505b8181101561243657828155600101612423565b505050505050565b815167ffffffffffffffff81111561245857612458611e34565b61246c816124668454612084565b846123f0565b602080601f8311600181146124bf57600084156124895750858301515b7fffffffffffffffffffffffffffffffffffffffffffffffffffffffffffffffff600386901b1c1916600185901b178555612436565b600085815260208120601f198616915b828110156124ee578886015182559484019460019091019084016124cf565b508582101561252a57878501517fffffffffffffffffffffffffffffffffffffffffffffffffffffffffffffffff600388901b60f8161c191681555b5050505050600190811b01905550565b600073ffffffffffffffffffffffffffffffffffffffff8087168352808616602084015250836040830152608060608301526125796080830184611d4d565b9695505050505050565b60006020828403121561259557600080fd5b815161173881611cd656fea26469706673582212206e41cef39722301337508c47c0277f70241fbd6cb1928eef400ff5fd5bcb055b64736f6c634300080f0033496e697469616c697a61626c653a20636f6e7472616374206973206e6f742069",
  "devdoc": {
    "author": "Optimism CollectiveGitcoin",
    "kind": "dev",
    "methods": {
      "balanceOf(address)": {
        "details": "See {IERC721-balanceOf}."
      },
      "baseURI()": {
        "returns": {
          "_0": "BaseURI for all tokens."
        }
      },
      "burn(uint256)": {
        "details": "Burns `tokenId`. See {ERC721-_burn}. Requirements: - The caller must own `tokenId` or be an approved operator."
      },
      "constructor": {
        "custom:semver": "1.0.0",
        "params": {
          "_attestationStation": "Address of the AttestationStation contract.",
          "_attestor": "Address of the attestor.",
          "_name": "Token name.",
          "_symbol": "Token symbol."
        }
      },
      "getApproved(uint256)": {
        "details": "See {IERC721-getApproved}."
      },
      "initialize(string,string)": {
        "params": {
          "_name": "Token name.",
          "_symbol": "Token symbol."
        }
      },
      "isApprovedForAll(address,address)": {
        "details": "See {IERC721-isApprovedForAll}."
      },
      "isOnAllowList(address)": {
        "returns": {
          "_0": "Whether or not the address is allowed to mint yet."
        }
      },
      "mint(address)": {
        "params": {
          "_recipient": "Address of the token recipient."
        }
      },
      "name()": {
        "details": "See {IERC721Metadata-name}."
      },
      "ownerOf(uint256)": {
        "details": "See {IERC721-ownerOf}."
      },
      "safeTransferFrom(address,address,uint256)": {
        "details": "See {IERC721-safeTransferFrom}."
      },
      "safeTransferFrom(address,address,uint256,bytes)": {
        "details": "See {IERC721-safeTransferFrom}."
      },
      "supportsInterface(bytes4)": {
        "details": "See {IERC165-supportsInterface}."
      },
      "symbol()": {
        "details": "See {IERC721Metadata-symbol}."
      },
      "tokenIdOfAddress(address)": {
        "returns": {
          "_0": "Token ID for the token owned by the given address."
        }
      },
      "tokenURI(uint256)": {
        "params": {
          "_tokenId": "Token ID to query."
        },
        "returns": {
          "_0": "Token URI for the given token by ID."
        }
      },
      "transferFrom(address,address,uint256)": {
        "details": "See {IERC721-transferFrom}."
      },
      "version()": {
        "returns": {
          "_0": "Semver contract version as a string."
        }
      }
    },
    "title": "Optimist",
    "version": 1
  },
  "userdoc": {
    "kind": "user",
    "methods": {
      "ATTESTATION_STATION()": {
        "notice": "Address of the AttestationStation contract."
      },
      "ATTESTOR()": {
        "notice": "Attestor who attests to baseURI and allowlist."
      },
      "approve(address,uint256)": {
        "notice": "Disabled for the Optimist NFT (Soul Bound Token)."
      },
      "baseURI()": {
        "notice": "Returns the baseURI for all tokens."
      },
      "initialize(string,string)": {
        "notice": "Initializes the Optimist contract."
      },
      "isOnAllowList(address)": {
        "notice": "Checks whether a given address is allowed to mint the Optimist NFT yet. Since the         Optimist NFT will also be used as part of the Citizens House, mints are currently         restricted. Eventually anyone will be able to mint."
      },
      "mint(address)": {
        "notice": "Allows an address to mint an Optimist NFT. Token ID is the uint256 representation         of the recipient's address. Recipients must be permitted to mint, eventually anyone         will be able to mint. One token per address."
      },
      "setApprovalForAll(address,bool)": {
        "notice": "Disabled for the Optimist NFT (Soul Bound Token)."
      },
      "tokenIdOfAddress(address)": {
        "notice": "Returns the token ID for the token owned by a given address. This is the uint256         representation of the given address."
      },
      "tokenURI(uint256)": {
        "notice": "Returns the token URI for a given token by ID"
      },
      "version()": {
        "notice": "Returns the full semver contract version."
      }
    },
    "notice": "A Soul Bound Token for real humans only(tm).",
    "version": 1
  },
  "storageLayout": {
    "storage": [
      {
        "astId": 2878,
        "contract": "contracts/universal/op-nft/Optimist.sol:Optimist",
        "label": "_initialized",
        "offset": 0,
        "slot": "0",
        "type": "t_uint8"
      },
      {
        "astId": 2881,
        "contract": "contracts/universal/op-nft/Optimist.sol:Optimist",
        "label": "_initializing",
        "offset": 1,
        "slot": "0",
        "type": "t_bool"
      },
      {
        "astId": 4595,
        "contract": "contracts/universal/op-nft/Optimist.sol:Optimist",
        "label": "__gap",
        "offset": 0,
        "slot": "1",
        "type": "t_array(t_uint256)50_storage"
      },
      {
        "astId": 4865,
        "contract": "contracts/universal/op-nft/Optimist.sol:Optimist",
        "label": "__gap",
        "offset": 0,
        "slot": "51",
        "type": "t_array(t_uint256)50_storage"
      },
      {
        "astId": 3237,
        "contract": "contracts/universal/op-nft/Optimist.sol:Optimist",
        "label": "_name",
        "offset": 0,
        "slot": "101",
        "type": "t_string_storage"
      },
      {
        "astId": 3239,
        "contract": "contracts/universal/op-nft/Optimist.sol:Optimist",
        "label": "_symbol",
        "offset": 0,
        "slot": "102",
        "type": "t_string_storage"
      },
      {
        "astId": 3243,
        "contract": "contracts/universal/op-nft/Optimist.sol:Optimist",
        "label": "_owners",
        "offset": 0,
        "slot": "103",
        "type": "t_mapping(t_uint256,t_address)"
      },
      {
        "astId": 3247,
        "contract": "contracts/universal/op-nft/Optimist.sol:Optimist",
        "label": "_balances",
        "offset": 0,
        "slot": "104",
        "type": "t_mapping(t_address,t_uint256)"
      },
      {
        "astId": 3251,
        "contract": "contracts/universal/op-nft/Optimist.sol:Optimist",
        "label": "_tokenApprovals",
        "offset": 0,
        "slot": "105",
        "type": "t_mapping(t_uint256,t_address)"
      },
      {
        "astId": 3257,
        "contract": "contracts/universal/op-nft/Optimist.sol:Optimist",
        "label": "_operatorApprovals",
        "offset": 0,
        "slot": "106",
        "type": "t_mapping(t_address,t_mapping(t_address,t_bool))"
      },
      {
        "astId": 4099,
        "contract": "contracts/universal/op-nft/Optimist.sol:Optimist",
        "label": "__gap",
        "offset": 0,
        "slot": "107",
        "type": "t_array(t_uint256)44_storage"
      },
      {
        "astId": 4283,
        "contract": "contracts/universal/op-nft/Optimist.sol:Optimist",
        "label": "__gap",
        "offset": 0,
        "slot": "151",
        "type": "t_array(t_uint256)50_storage"
      }
    ],
    "types": {
      "t_address": {
        "encoding": "inplace",
        "label": "address",
        "numberOfBytes": "20"
      },
      "t_array(t_uint256)44_storage": {
        "base": "t_uint256",
        "encoding": "inplace",
        "label": "uint256[44]",
        "numberOfBytes": "1408"
      },
      "t_array(t_uint256)50_storage": {
        "base": "t_uint256",
        "encoding": "inplace",
        "label": "uint256[50]",
        "numberOfBytes": "1600"
      },
      "t_bool": {
        "encoding": "inplace",
        "label": "bool",
        "numberOfBytes": "1"
      },
      "t_mapping(t_address,t_bool)": {
        "encoding": "mapping",
        "key": "t_address",
        "label": "mapping(address => bool)",
        "numberOfBytes": "32",
        "value": "t_bool"
      },
      "t_mapping(t_address,t_mapping(t_address,t_bool))": {
        "encoding": "mapping",
        "key": "t_address",
        "label": "mapping(address => mapping(address => bool))",
        "numberOfBytes": "32",
        "value": "t_mapping(t_address,t_bool)"
      },
      "t_mapping(t_address,t_uint256)": {
        "encoding": "mapping",
        "key": "t_address",
        "label": "mapping(address => uint256)",
        "numberOfBytes": "32",
        "value": "t_uint256"
      },
      "t_mapping(t_uint256,t_address)": {
        "encoding": "mapping",
        "key": "t_uint256",
        "label": "mapping(uint256 => address)",
        "numberOfBytes": "32",
        "value": "t_address"
      },
      "t_string_storage": {
        "encoding": "bytes",
        "label": "string",
        "numberOfBytes": "32"
      },
      "t_uint256": {
        "encoding": "inplace",
        "label": "uint256",
        "numberOfBytes": "32"
      },
      "t_uint8": {
        "encoding": "inplace",
        "label": "uint8",
        "numberOfBytes": "1"
      }
    }
  }
}