{
  "_format": "hh-sol-artifact-1",
  "contractName": "OVM_FraudVerifier",
  "sourceName": "contracts/optimistic-ethereum/OVM/verification/OVM_FraudVerifier.sol",
  "abi": [
    {
      "inputs": [
        {
          "internalType": "address",
          "name": "_libAddressManager",
          "type": "address"
        }
      ],
      "stateMutability": "nonpayable",
      "type": "constructor"
    },
    {
      "anonymous": false,
      "inputs": [
        {
          "indexed": false,
          "internalType": "bytes32",
          "name": "_preStateRoot",
          "type": "bytes32"
        },
        {
          "indexed": false,
          "internalType": "uint256",
          "name": "_preStateRootIndex",
          "type": "uint256"
        },
        {
          "indexed": false,
          "internalType": "bytes32",
          "name": "_transactionHash",
          "type": "bytes32"
        },
        {
          "indexed": false,
          "internalType": "address",
          "name": "_who",
          "type": "address"
        }
      ],
      "name": "FraudProofFinalized",
      "type": "event"
    },
    {
      "anonymous": false,
      "inputs": [
        {
          "indexed": false,
          "internalType": "bytes32",
          "name": "_preStateRoot",
          "type": "bytes32"
        },
        {
          "indexed": false,
          "internalType": "uint256",
          "name": "_preStateRootIndex",
          "type": "uint256"
        },
        {
          "indexed": false,
          "internalType": "bytes32",
          "name": "_transactionHash",
          "type": "bytes32"
        },
        {
          "indexed": false,
          "internalType": "address",
          "name": "_who",
          "type": "address"
        }
      ],
      "name": "FraudProofInitialized",
      "type": "event"
    },
    {
      "inputs": [
        {
          "internalType": "bytes32",
          "name": "_preStateRoot",
          "type": "bytes32"
        },
        {
          "components": [
            {
              "internalType": "uint256",
              "name": "batchIndex",
              "type": "uint256"
            },
            {
              "internalType": "bytes32",
              "name": "batchRoot",
              "type": "bytes32"
            },
            {
              "internalType": "uint256",
              "name": "batchSize",
              "type": "uint256"
            },
            {
              "internalType": "uint256",
              "name": "prevTotalElements",
              "type": "uint256"
            },
            {
              "internalType": "bytes",
              "name": "extraData",
              "type": "bytes"
            }
          ],
          "internalType": "struct Lib_OVMCodec.ChainBatchHeader",
          "name": "_preStateRootBatchHeader",
          "type": "tuple"
        },
        {
          "components": [
            {
              "internalType": "uint256",
              "name": "index",
              "type": "uint256"
            },
            {
              "internalType": "bytes32[]",
              "name": "siblings",
              "type": "bytes32[]"
            }
          ],
          "internalType": "struct Lib_OVMCodec.ChainInclusionProof",
          "name": "_preStateRootProof",
          "type": "tuple"
        },
        {
          "internalType": "bytes32",
          "name": "_txHash",
          "type": "bytes32"
        },
        {
          "internalType": "bytes32",
          "name": "_postStateRoot",
          "type": "bytes32"
        },
        {
          "components": [
            {
              "internalType": "uint256",
              "name": "batchIndex",
              "type": "uint256"
            },
            {
              "internalType": "bytes32",
              "name": "batchRoot",
              "type": "bytes32"
            },
            {
              "internalType": "uint256",
              "name": "batchSize",
              "type": "uint256"
            },
            {
              "internalType": "uint256",
              "name": "prevTotalElements",
              "type": "uint256"
            },
            {
              "internalType": "bytes",
              "name": "extraData",
              "type": "bytes"
            }
          ],
          "internalType": "struct Lib_OVMCodec.ChainBatchHeader",
          "name": "_postStateRootBatchHeader",
          "type": "tuple"
        },
        {
          "components": [
            {
              "internalType": "uint256",
              "name": "index",
              "type": "uint256"
            },
            {
              "internalType": "bytes32[]",
              "name": "siblings",
              "type": "bytes32[]"
            }
          ],
          "internalType": "struct Lib_OVMCodec.ChainInclusionProof",
          "name": "_postStateRootProof",
          "type": "tuple"
        }
      ],
      "name": "finalizeFraudVerification",
      "outputs": [],
      "stateMutability": "nonpayable",
      "type": "function"
    },
    {
      "inputs": [
        {
          "internalType": "bytes32",
          "name": "_preStateRoot",
          "type": "bytes32"
        },
        {
          "internalType": "bytes32",
          "name": "_txHash",
          "type": "bytes32"
        }
      ],
      "name": "getStateTransitioner",
      "outputs": [
        {
          "internalType": "contract iOVM_StateTransitioner",
          "name": "_transitioner",
          "type": "address"
        }
      ],
      "stateMutability": "view",
      "type": "function"
    },
    {
      "inputs": [
        {
          "internalType": "bytes32",
          "name": "_preStateRoot",
          "type": "bytes32"
        },
        {
          "components": [
            {
              "internalType": "uint256",
              "name": "batchIndex",
              "type": "uint256"
            },
            {
              "internalType": "bytes32",
              "name": "batchRoot",
              "type": "bytes32"
            },
            {
              "internalType": "uint256",
              "name": "batchSize",
              "type": "uint256"
            },
            {
              "internalType": "uint256",
              "name": "prevTotalElements",
              "type": "uint256"
            },
            {
              "internalType": "bytes",
              "name": "extraData",
              "type": "bytes"
            }
          ],
          "internalType": "struct Lib_OVMCodec.ChainBatchHeader",
          "name": "_preStateRootBatchHeader",
          "type": "tuple"
        },
        {
          "components": [
            {
              "internalType": "uint256",
              "name": "index",
              "type": "uint256"
            },
            {
              "internalType": "bytes32[]",
              "name": "siblings",
              "type": "bytes32[]"
            }
          ],
          "internalType": "struct Lib_OVMCodec.ChainInclusionProof",
          "name": "_preStateRootProof",
          "type": "tuple"
        },
        {
          "components": [
            {
              "internalType": "uint256",
              "name": "timestamp",
              "type": "uint256"
            },
            {
              "internalType": "uint256",
              "name": "blockNumber",
              "type": "uint256"
            },
            {
              "internalType": "enum Lib_OVMCodec.QueueOrigin",
              "name": "l1QueueOrigin",
              "type": "uint8"
            },
            {
              "internalType": "address",
              "name": "l1TxOrigin",
              "type": "address"
            },
            {
              "internalType": "address",
              "name": "entrypoint",
              "type": "address"
            },
            {
              "internalType": "uint256",
              "name": "gasLimit",
              "type": "uint256"
            },
            {
              "internalType": "bytes",
              "name": "data",
              "type": "bytes"
            }
          ],
          "internalType": "struct Lib_OVMCodec.Transaction",
          "name": "_transaction",
          "type": "tuple"
        },
        {
          "components": [
            {
              "internalType": "bool",
              "name": "isSequenced",
              "type": "bool"
            },
            {
              "internalType": "uint256",
              "name": "queueIndex",
              "type": "uint256"
            },
            {
              "internalType": "uint256",
              "name": "timestamp",
              "type": "uint256"
            },
            {
              "internalType": "uint256",
              "name": "blockNumber",
              "type": "uint256"
            },
            {
              "internalType": "bytes",
              "name": "txData",
              "type": "bytes"
            }
          ],
          "internalType": "struct Lib_OVMCodec.TransactionChainElement",
          "name": "_txChainElement",
          "type": "tuple"
        },
        {
          "components": [
            {
              "internalType": "uint256",
              "name": "batchIndex",
              "type": "uint256"
            },
            {
              "internalType": "bytes32",
              "name": "batchRoot",
              "type": "bytes32"
            },
            {
              "internalType": "uint256",
              "name": "batchSize",
              "type": "uint256"
            },
            {
              "internalType": "uint256",
              "name": "prevTotalElements",
              "type": "uint256"
            },
            {
              "internalType": "bytes",
              "name": "extraData",
              "type": "bytes"
            }
          ],
          "internalType": "struct Lib_OVMCodec.ChainBatchHeader",
          "name": "_transactionBatchHeader",
          "type": "tuple"
        },
        {
          "components": [
            {
              "internalType": "uint256",
              "name": "index",
              "type": "uint256"
            },
            {
              "internalType": "bytes32[]",
              "name": "siblings",
              "type": "bytes32[]"
            }
          ],
          "internalType": "struct Lib_OVMCodec.ChainInclusionProof",
          "name": "_transactionProof",
          "type": "tuple"
        }
      ],
      "name": "initializeFraudVerification",
      "outputs": [],
      "stateMutability": "nonpayable",
      "type": "function"
    },
    {
      "inputs": [],
      "name": "libAddressManager",
      "outputs": [
        {
          "internalType": "contract Lib_AddressManager",
          "name": "",
          "type": "address"
        }
      ],
      "stateMutability": "view",
      "type": "function"
    },
    {
      "inputs": [
        {
          "internalType": "string",
          "name": "_name",
          "type": "string"
        }
      ],
      "name": "resolve",
      "outputs": [
        {
          "internalType": "address",
          "name": "",
          "type": "address"
        }
      ],
      "stateMutability": "view",
      "type": "function"
    }
  ],
  "bytecode": "0x608060405234801561001057600080fd5b5060405161184138038061184183398101604081905261002f91610054565b600080546001600160a01b0319166001600160a01b0392909216919091179055610082565b600060208284031215610065578081fd5b81516001600160a01b038116811461007b578182fd5b9392505050565b6117b0806100916000396000f3fe608060405234801561001057600080fd5b50600436106100575760003560e01c8063299ca4781461005c578063461a44781461007a57806398d8867d1461008d578063a286ba1c146100a2578063b48ec820146100b5575b600080fd5b6100646100c8565b6040516100719190611306565b60405180910390f35b610064610088366004611101565b6100d7565b6100a061009b366004611029565b6101b5565b005b6100a06100b0366004610f64565b6104f4565b6100646100c3366004610f43565b6108bb565b6000546001600160a01b031681565b6000805460405163bf40fac160e01b81526020600482018181528551602484015285516001600160a01b039094169363bf40fac19387938392604490920191908501908083838b5b8381101561013757818101518382015260200161011f565b50505050905090810190601f1680156101645780820380516001836020036101000a031916815260200191505b509250505060206040518083038186803b15801561018157600080fd5b505afa158015610195573d6000803e3d6000fd5b505050506040513d60208110156101ab57600080fd5b505190505b919050565b866101bf8561090a565b60005a905060006101cf8861090a565b90506101db8b82610923565b156101e65750610432565b60006102216040518060400160405280601881526020017727ab26afa9ba30ba32a1b7b6b6b4ba36b2b73a21b430b4b760411b8152506100d7565b905060006102636040518060400160405280601d81526020017f4f564d5f43616e6f6e6963616c5472616e73616374696f6e436861696e0000008152506100d7565b9050816001600160a01b0316634d69ee578e8e8e6040518463ffffffff1660e01b81526004016102959392919061135f565b60206040518083038186803b1580156102ad57600080fd5b505afa1580156102c1573d6000803e3d6000fd5b505050506040513d601f19601f820116820180604052508101906102e59190610f0f565b61030a5760405162461bcd60e51b8152600401610301906115e7565b60405180910390fd5b6040516326f2b4e760e11b81526001600160a01b03821690634de569ce9061033c908d908d908d908d90600401611641565b60206040518083038186803b15801561035457600080fd5b505afa158015610368573d6000803e3d6000fd5b505050506040513d601f19601f8201168201806040525081019061038c9190610f0f565b6103a85760405162461bcd60e51b815260040161030190611499565b86600001518860600151018b600001518d6060015101600101146103de5760405162461bcd60e51b815260040161030190611525565b6103ed8d848d60000151610942565b7f41a48bde2468fac6f670f39b66d7b91f311053e1f28eab9d75056546e6eaac958d8c6000015185336040516104269493929190611394565b60405180910390a15050505b60005a820390506104696040518060400160405280600f81526020016e27ab26afa137b73226b0b730b3b2b960891b8152506100d7565b6001600160a01b0316631e16e92f858533856040518563ffffffff1660e01b815260040180858152602001848152602001836001600160a01b03168152602001828152602001945050505050600060405180830381600087803b1580156104cf57600080fd5b505af11580156104e3573d6000803e3d6000fd5b505050505050505050505050505050565b868460005a905060006105078b896108bb565b905060006105446040518060400160405280601881526020017727ab26afa9ba30ba32a1b7b6b6b4ba36b2b73a21b430b4b760411b8152506100d7565b9050816001600160a01b031663b2fa1c9e6040518163ffffffff1660e01b815260040160206040518083038186803b15801561057f57600080fd5b505afa158015610593573d6000803e3d6000fd5b505050506040513d601f19601f820116820180604052508101906105b79190610f0f565b15156001146105d85760405162461bcd60e51b8152600401610301906113b8565b89600001518b606001510160010186600001518860600151011461060e5760405162461bcd60e51b81526004016103019061141f565b604051634d69ee5760e01b81526001600160a01b03821690634d69ee579061063e908f908f908f9060040161135f565b60206040518083038186803b15801561065657600080fd5b505afa15801561066a573d6000803e3d6000fd5b505050506040513d601f19601f8201168201806040525081019061068e9190610f0f565b6106aa5760405162461bcd60e51b8152600401610301906115e7565b604051634d69ee5760e01b81526001600160a01b03821690634d69ee57906106da908b908b908b9060040161135f565b60206040518083038186803b1580156106f257600080fd5b505afa158015610706573d6000803e3d6000fd5b505050506040513d601f19601f8201168201806040525081019061072a9190610f0f565b6107465760405162461bcd60e51b8152600401610301906114dd565b816001600160a01b031663c1c618b86040518163ffffffff1660e01b815260040160206040518083038186803b15801561077f57600080fd5b505afa158015610793573d6000803e3d6000fd5b505050506040513d601f19601f820116820180604052508101906107b79190610f2b565b8814156107d65760405162461bcd60e51b815260040161030190611597565b6107e0878d610a6d565b6000600160008e8c6040516020016107f9929190611289565b60405160208183030381529060405280519060200120815260200190815260200160002060006101000a8154816001600160a01b0302191690836001600160a01b031602179055507f1e5fff3c23daf51ea67aaa3bbc738bcedaa98be5a5503f0e63a336a004b075b18c8b600001518b3360405161087a9493929190611394565b60405180910390a1505060005a820390506104696040518060400160405280600f81526020016e27ab26afa137b73226b0b730b3b2b960891b8152506100d7565b60006001600084846040516020016108d4929190611289565b60408051808303601f19018152918152815160209283012083529082019290925201600020546001600160a01b03169392505050565b600061091582610bc7565b805190602001209050919050565b60008061093084846108bb565b6001600160a01b031614159392505050565b6109806040518060400160405280601c81526020017f4f564d5f53746174655472616e736974696f6e6572466163746f7279000000008152506100d7565b600054604051631168a38160e11b81526001600160a01b03928316926322d14702926109b79291169085908890889060040161131a565b602060405180830381600087803b1580156109d157600080fd5b505af11580156109e5573d6000803e3d6000fd5b505050506040513d601f19601f82011682018060405250810190610a0991906110e5565b600160008585604051602001610a20929190611289565b60405160208183030381529060405280519060200120815260200190815260200160002060006101000a8154816001600160a01b0302191690836001600160a01b03160217905550505050565b6000610aa86040518060400160405280601881526020017727ab26afa9ba30ba32a1b7b6b6b4ba36b2b73a21b430b4b760411b8152506100d7565b90506000610adc6040518060400160405280600f81526020016e27ab26afa137b73226b0b730b3b2b960891b8152506100d7565b604051632e38626b60e21b81529091506001600160a01b0383169063b8e189ac90610b0b90879060040161162e565b600060405180830381600087803b158015610b2557600080fd5b505af1158015610b39573d6000803e3d6000fd5b505050506000808560800151806020019051810190610b58919061114f565b60405163abfbbe1360e01b815291935091506001600160a01b0384169063abfbbe1390610b8d90889085908790600401611340565b600060405180830381600087803b158015610ba757600080fd5b505af1158015610bbb573d6000803e3d6000fd5b50505050505050505050565b6060816000015182602001518360400151846060015185608001518660a001518760c00151604051602001610c029796959493929190611297565b6040516020818303038152906040529050919050565b600067ffffffffffffffff831115610c2c57fe5b610c3f601f8401601f1916602001611700565b9050828152838383011115610c5357600080fd5b828260208301376000602084830101529392505050565b80356101b081611754565b600082601f830112610c85578081fd5b610c9483833560208501610c18565b9392505050565b8035600281106101b057600080fd5b600060a08284031215610cbb578081fd5b60405160a0810167ffffffffffffffff8282108183111715610cd957fe5b81604052829350843583526020850135602084015260408501356040840152606085013560608401526080850135915080821115610d1657600080fd5b50610d2385828601610c75565b6080830152505092915050565b600060408284031215610d41578081fd5b6040516040810167ffffffffffffffff8282108183111715610d5f57fe5b8160405282935084358352602091508185013581811115610d7f57600080fd5b8501601f81018713610d9057600080fd5b803582811115610d9c57fe5b8381029250610dac848401611700565b8181528481019083860185850187018b1015610dc757600080fd5b600095505b83861015610dea578035835260019590950194918601918601610dcc565b5080868801525050505050505092915050565b600060a08284031215610e0e578081fd5b60405160a0810167ffffffffffffffff8282108183111715610e2c57fe5b8160405282935084359150610e408261176c565b8183526020850135602084015260408501356040840152606085013560608401526080850135915080821115610d1657600080fd5b600060e08284031215610e86578081fd5b610e9060e0611700565b90508135815260208201356020820152610eac60408301610c9b565b6040820152610ebd60608301610c6a565b6060820152610ece60808301610c6a565b608082015260a082013560a082015260c082013567ffffffffffffffff811115610ef757600080fd5b610f0384828501610c75565b60c08301525092915050565b600060208284031215610f20578081fd5b8151610c948161176c565b600060208284031215610f3c578081fd5b5051919050565b60008060408385031215610f55578081fd5b50508035926020909101359150565b600080600080600080600060e0888a031215610f7e578283fd5b87359650602088013567ffffffffffffffff80821115610f9c578485fd5b610fa88b838c01610caa565b975060408a0135915080821115610fbd578485fd5b610fc98b838c01610d30565b965060608a0135955060808a0135945060a08a0135915080821115610fec578384fd5b610ff88b838c01610caa565b935060c08a013591508082111561100d578283fd5b5061101a8a828b01610d30565b91505092959891949750929550565b600080600080600080600060e0888a031215611043578081fd5b87359650602088013567ffffffffffffffff80821115611061578283fd5b61106d8b838c01610caa565b975060408a0135915080821115611082578283fd5b61108e8b838c01610d30565b965060608a01359150808211156110a3578283fd5b6110af8b838c01610e75565b955060808a01359150808211156110c4578283fd5b6110d08b838c01610dfd565b945060a08a0135915080821115610fec578283fd5b6000602082840312156110f6578081fd5b8151610c9481611754565b600060208284031215611112578081fd5b813567ffffffffffffffff811115611128578182fd5b8201601f81018413611138578182fd5b61114784823560208401610c18565b949350505050565b60008060408385031215611161578182fd5b82519150602083015161117381611754565b809150509250929050565b6001600160a01b03169052565b600081518084526111a3816020860160208601611724565b601f01601f19169290920160200192915050565b600081518352602082015160208401526040820151604084015260608201516060840152608082015160a0608085015261114760a085018261118b565b6000604083018251845260208084015160408287015282815180855260608801915083830194508592505b8083101561123f578451825293830193600192909201919083019061121f565b509695505050505050565b6000815115158352602082015160208401526040820151604084015260608201516060840152608082015160a0608085015261114760a085018261118b565b918252602082015260400190565b6000888252876020830152600287106112ac57fe5b8660f81b60408301526bffffffffffffffffffffffff19808760601b166041840152808660601b1660558401525083606983015282516112f3816089850160208701611724565b9190910160890198975050505050505050565b6001600160a01b0391909116815260200190565b6001600160a01b0394909416845260208401929092526040830152606082015260800190565b9283526001600160a01b03919091166020830152604082015260600190565b60008482526060602083015261137860608301856111b7565b828103604084015261138a81856111f4565b9695505050505050565b938452602084019290925260408301526001600160a01b0316606082015260800190565b60208082526041908201527f5374617465207472616e736974696f6e2070726f63657373206d75737420626560408201527f20636f6d706c65746564207072696f7220746f2066696e616c697a6174696f6e6060820152601760f91b608082015260a00190565b60208082526054908201527f506f73742d737461746520726f6f7420676c6f62616c20696e646578206d757360408201527f7420657175616c20746f207468652070726520737461746520726f6f7420676c60608201527337b130b61034b73232bc1038363ab99037b7329760611b608082015260a00190565b60208082526024908201527f496e76616c6964207472616e73616374696f6e20696e636c7573696f6e20707260408201526337b7b31760e11b606082015260800190565b60208082526028908201527f496e76616c696420706f73742d737461746520726f6f7420696e636c7573696f6040820152673710383937b7b31760c11b606082015260800190565b6020808252604c908201527f5072652d737461746520726f6f7420676c6f62616c20696e646578206d75737460408201527f20657175616c20746f20746865207472616e73616374696f6e20726f6f74206760608201526b3637b130b61034b73232bc1760a11b608082015260a00190565b60208082526030908201527f5374617465207472616e736974696f6e20686173206e6f74206265656e20707260408201526f37bb32b710333930bab23ab632b73a1760811b606082015260800190565b60208082526027908201527f496e76616c6964207072652d737461746520726f6f7420696e636c7573696f6e60408201526610383937b7b31760c91b606082015260800190565b600060208252610c9460208301846111b7565b60006080825285516080830152602086015160a083015260408601516002811061166757fe5b60c083015260608601516001600160a01b031660e0830152608086015161169261010084018261117e565b5060a086015161012083015260c086015160e06101408401526116b961016084018261118b565b905082810360208401526116cd818761124a565b905082810360408401526116e181866111b7565b905082810360608401526116f581856111f4565b979650505050505050565b60405181810167ffffffffffffffff8111828210171561171c57fe5b604052919050565b60005b8381101561173f578181015183820152602001611727565b8381111561174e576000848401525b50505050565b6001600160a01b038116811461176957600080fd5b50565b801515811461176957600080fdfea2646970667358221220871040714328f2e365330866df7647b6f8ed73d6346b931e6367ae65a763f34c64736f6c63430007060033",
  "linkReferences": {},
  "deployedLinkReferences": {}
}