{
  "_format": "hh-sol-artifact-1",
  "contractName": "OVM_CrossDomainEnabled",
  "sourceName": "@eth-optimism/contracts/contracts/optimistic-ethereum/libraries/bridge/OVM_CrossDomainEnabled.sol",
  "abi": [
    {
      "inputs": [
        {
          "internalType": "address",
          "name": "_messenger",
          "type": "address"
        }
      ],
      "stateMutability": "nonpayable",
      "type": "constructor"
    },
    {
      "inputs": [],
      "name": "messenger",
      "outputs": [
        {
          "internalType": "address",
          "name": "",
          "type": "address"
        }
      ],
      "stateMutability": "view",
      "type": "function"
    }
  ],
  "bytecode": "0x6080604052348015610019576000806100166100ac565b50505b5060405161036338038061036383398181016040526020811015610045576000806100426100ac565b50505b8101908080519060200190929190505050806000806101000a8161006761011a565b8173ffffffffffffffffffffffffffffffffffffffff021916908373ffffffffffffffffffffffffffffffffffffffff160217906100a361017d565b505050506101e2565b632a2a7adb598160e01b8152600481016020815285602082015260005b868110156100e75780860151816040840101526020810190506100c9565b506020828760640184336000905af158600e01573d6000803e3d6000fd5b3d6001141558600a015760016000f35b505050565b6303daa959598160e01b8152836004820152602081602483336000905af158600e01573d6000803e3d6000fd5b3d6001141558600a015760016000f35b8051935060005b60408110156101785760008183015260208101905061015e565b505050565b6322bd64c0598160e01b8152836004820152846024820152600081604483336000905af158600e01573d6000803e3d6000fd5b3d6001141558600a015760016000f35b60005b60408110156101dd576000818301526020810190506101c3565b505050565b610172806101f16000396000f3fe6080604052348015610019576000806100166100a1565b50505b50600436106100345760003560e01c80633cb747bf14610042575b60008061003f6100a1565b50505b61004a610076565b604051808273ffffffffffffffffffffffffffffffffffffffff16815260200191505060405180910390f35b60008061008161010f565b906101000a900473ffffffffffffffffffffffffffffffffffffffff1681565b632a2a7adb598160e01b8152600481016020815285602082015260005b868110156100dc5780860151816040840101526020810190506100be565b506020828760640184336000905af158600e01573d6000803e3d6000fd5b3d6001141558600a015760016000f35b505050565b6303daa959598160e01b8152836004820152602081602483336000905af158600e01573d6000803e3d6000fd5b3d6001141558600a015760016000f35b8051935060005b604081101561016d57600081830152602081019050610153565b50505056",
  "linkReferences": {},
  "deployedLinkReferences": {}
}