{"abi":[{"type":"function","name":"emitData","inputs":[{"name":"data","type":"bytes","internalType":"bytes"}],"outputs":[],"stateMutability":"nonpayable"},{"type":"event","name":"DataEmitted","inputs":[{"name":"data","type":"bytes","indexed":true,"internalType":"bytes"}],"anonymous":false}],"bytecode":{"object":"0x6080604052348015600e575f80fd5b5060ff8061001b5f395ff3fe6080604052348015600e575f80fd5b50600436106026575f3560e01c8063d836083e14602a575b5f80fd5b60396035366004607c565b603b565b005b8181604051604992919060e3565b604051908190038120907fe00bbfe6f6f8f1bbed2da38e3f5a139c6f9da594ab248a3cf8b44fc73627772c905f90a25050565b5f8060208385031215608c575f80fd5b823567ffffffffffffffff8082111560a2575f80fd5b818501915085601f83011260b4575f80fd5b81358181111560c1575f80fd5b86602082850101111560d1575f80fd5b60209290920196919550909350505050565b818382375f910190815291905056fea164736f6c6343000819000a","linkReferences":{}},"methodIdentifiers":{"emitData(bytes)":"d836083e"},"storageLayout":{"storage":[],"types":{}},"userdoc":{"version":1,"kind":"user"},"devdoc":{"version":1,"kind":"dev"},"id":0}