{
  "abi": [
    {
      "inputs": [
        {
          "internalType": "address",
          "name": "_owner",
          "type": "address"
        }
      ],
      "stateMutability": "nonpayable",
      "type": "constructor"
    },
    {
      "anonymous": false,
      "inputs": [
        {
          "indexed": true,
          "internalType": "address",
          "name": "user",
          "type": "address"
        },
        {
          "indexed": true,
          "internalType": "address",
          "name": "newOwner",
          "type": "address"
        }
      ],
      "name": "OwnerUpdated",
      "type": "event"
    },
    {
      "inputs": [
        {
          "internalType": "address",
          "name": "_target",
          "type": "address"
        },
        {
          "internalType": "bytes",
          "name": "_data",
          "type": "bytes"
        },
        {
          "internalType": "uint256",
          "name": "_value",
          "type": "uint256"
        }
      ],
      "name": "CALL",
      "outputs": [
        {
          "internalType": "bool",
          "name": "",
          "type": "bool"
        },
        {
          "internalType": "bytes",
          "name": "",
          "type": "bytes"
        }
      ],
      "stateMutability": "payable",
      "type": "function"
    },
    {
      "inputs": [
        {
          "internalType": "address",
          "name": "_target",
          "type": "address"
        },
        {
          "internalType": "bytes",
          "name": "_data",
          "type": "bytes"
        }
      ],
      "name": "DELEGATECALL",
      "outputs": [
        {
          "internalType": "bool",
          "name": "",
          "type": "bool"
        },
        {
          "internalType": "bytes",
          "name": "",
          "type": "bytes"
        }
      ],
      "stateMutability": "payable",
      "type": "function"
    },
    {
      "inputs": [],
      "name": "owner",
      "outputs": [
        {
          "internalType": "address",
          "name": "",
          "type": "address"
        }
      ],
      "stateMutability": "view",
      "type": "function"
    },
    {
      "inputs": [
        {
          "internalType": "address",
          "name": "newOwner",
          "type": "address"
        }
      ],
      "name": "setOwner",
      "outputs": [],
      "stateMutability": "nonpayable",
      "type": "function"
    }
  ],
  "bytecode": {
    "object": "0x608060405234801561001057600080fd5b5060405161057f38038061057f83398101604081905261002f9161007e565b600080546001600160a01b0319166001600160a01b03831690811782556040518392907f8292fce18fa69edf4db7b94ea2e58241df0ae57f97e0a6c9b29067028bf92d76908290a350506100ae565b60006020828403121561009057600080fd5b81516001600160a01b03811681146100a757600080fd5b9392505050565b6104c2806100bd6000396000f3fe60806040526004361061003f5760003560e01c806313af4035146100445780636e2d44ae146100665780638da5cb5b14610090578063edee6239146100c8575b600080fd5b34801561005057600080fd5b5061006461005f36600461029d565b6100db565b005b610079610074366004610362565b610159565b6040516100879291906103e9565b60405180910390f35b34801561009c57600080fd5b506000546100b0906001600160a01b031681565b6040516001600160a01b039091168152602001610087565b6100796100d6366004610425565b6101ef565b6000546001600160a01b0316331461010e5760405162461bcd60e51b815260040161010590610473565b60405180910390fd5b600080546001600160a01b0319166001600160a01b0383169081178255604051909133917f8292fce18fa69edf4db7b94ea2e58241df0ae57f97e0a6c9b29067028bf92d769190a350565b600080546060906001600160a01b031633146101875760405162461bcd60e51b815260040161010590610473565b846001600160a01b031683856040516101a09190610499565b60006040518083038185875af1925050503d80600081146101dd576040519150601f19603f3d011682016040523d82523d6000602084013e6101e2565b606091505b5091509150935093915050565b600080546060906001600160a01b0316331461021d5760405162461bcd60e51b815260040161010590610473565b836001600160a01b0316836040516102359190610499565b600060405180830381855af49150503d8060008114610270576040519150601f19603f3d011682016040523d82523d6000602084013e610275565b606091505b50915091509250929050565b80356001600160a01b038116811461029857600080fd5b919050565b6000602082840312156102af57600080fd5b6102b882610281565b9392505050565b634e487b7160e01b600052604160045260246000fd5b600082601f8301126102e657600080fd5b813567ffffffffffffffff80821115610301576103016102bf565b604051601f8301601f19908116603f01168101908282118183101715610329576103296102bf565b8160405283815286602085880101111561034257600080fd5b836020870160208301376000602085830101528094505050505092915050565b60008060006060848603121561037757600080fd5b61038084610281565b9250602084013567ffffffffffffffff81111561039c57600080fd5b6103a8868287016102d5565b925050604084013590509250925092565b60005b838110156103d45781810151838201526020016103bc565b838111156103e3576000848401525b50505050565b821515815260406020820152600082518060408401526104108160608501602087016103b9565b601f01601f1916919091016060019392505050565b6000806040838503121561043857600080fd5b61044183610281565b9150602083013567ffffffffffffffff81111561045d57600080fd5b610469858286016102d5565b9150509250929050565b6020808252600c908201526b15539055551213d49256915160a21b604082015260600190565b600082516104ab8184602087016103b9565b919091019291505056fea164736f6c634300080f000a",
    "linkReferences": {}
  },
  "methodIdentifiers": {
    "CALL(address,bytes,uint256)": "6e2d44ae",
    "DELEGATECALL(address,bytes)": "edee6239",
    "owner()": "8da5cb5b",
    "setOwner(address)": "13af4035"
  },
  "id": 48
}