{
  "_format": "hh-sol-artifact-1",
  "contractName": "ERC1820Registry",
  "sourceName": "contracts/optimistic-ethereum/OVM/predeploys/ERC1820Registry.sol",
  "abi": [
    {
      "anonymous": false,
      "inputs": [
        {
          "indexed": true,
          "internalType": "address",
          "name": "addr",
          "type": "address"
        },
        {
          "indexed": true,
          "internalType": "bytes32",
          "name": "interfaceHash",
          "type": "bytes32"
        },
        {
          "indexed": true,
          "internalType": "address",
          "name": "implementer",
          "type": "address"
        }
      ],
      "name": "InterfaceImplementerSet",
      "type": "event"
    },
    {
      "anonymous": false,
      "inputs": [
        {
          "indexed": true,
          "internalType": "address",
          "name": "addr",
          "type": "address"
        },
        {
          "indexed": true,
          "internalType": "address",
          "name": "newManager",
          "type": "address"
        }
      ],
      "name": "ManagerChanged",
      "type": "event"
    },
    {
      "inputs": [
        {
          "internalType": "address",
          "name": "_addr",
          "type": "address"
        },
        {
          "internalType": "bytes32",
          "name": "_interfaceHash",
          "type": "bytes32"
        }
      ],
      "name": "getInterfaceImplementer",
      "outputs": [
        {
          "internalType": "address",
          "name": "",
          "type": "address"
        }
      ],
      "stateMutability": "view",
      "type": "function"
    },
    {
      "inputs": [
        {
          "internalType": "address",
          "name": "_addr",
          "type": "address"
        }
      ],
      "name": "getManager",
      "outputs": [
        {
          "internalType": "address",
          "name": "",
          "type": "address"
        }
      ],
      "stateMutability": "view",
      "type": "function"
    },
    {
      "inputs": [
        {
          "internalType": "address",
          "name": "_contract",
          "type": "address"
        },
        {
          "internalType": "bytes4",
          "name": "_interfaceId",
          "type": "bytes4"
        }
      ],
      "name": "implementsERC165Interface",
      "outputs": [
        {
          "internalType": "bool",
          "name": "",
          "type": "bool"
        }
      ],
      "stateMutability": "view",
      "type": "function"
    },
    {
      "inputs": [
        {
          "internalType": "address",
          "name": "_contract",
          "type": "address"
        },
        {
          "internalType": "bytes4",
          "name": "_interfaceId",
          "type": "bytes4"
        }
      ],
      "name": "implementsERC165InterfaceNoCache",
      "outputs": [
        {
          "internalType": "bool",
          "name": "",
          "type": "bool"
        }
      ],
      "stateMutability": "view",
      "type": "function"
    },
    {
      "inputs": [
        {
          "internalType": "string",
          "name": "_interfaceName",
          "type": "string"
        }
      ],
      "name": "interfaceHash",
      "outputs": [
        {
          "internalType": "bytes32",
          "name": "",
          "type": "bytes32"
        }
      ],
      "stateMutability": "pure",
      "type": "function"
    },
    {
      "inputs": [
        {
          "internalType": "address",
          "name": "_addr",
          "type": "address"
        },
        {
          "internalType": "bytes32",
          "name": "_interfaceHash",
          "type": "bytes32"
        },
        {
          "internalType": "address",
          "name": "_implementer",
          "type": "address"
        }
      ],
      "name": "setInterfaceImplementer",
      "outputs": [],
      "stateMutability": "nonpayable",
      "type": "function"
    },
    {
      "inputs": [
        {
          "internalType": "address",
          "name": "_addr",
          "type": "address"
        },
        {
          "internalType": "address",
          "name": "_newManager",
          "type": "address"
        }
      ],
      "name": "setManager",
      "outputs": [],
      "stateMutability": "nonpayable",
      "type": "function"
    },
    {
      "inputs": [
        {
          "internalType": "address",
          "name": "_contract",
          "type": "address"
        },
        {
          "internalType": "bytes4",
          "name": "_interfaceId",
          "type": "bytes4"
        }
      ],
      "name": "updateERC165Cache",
      "outputs": [],
      "stateMutability": "nonpayable",
      "type": "function"
    }
  ],
  "bytecode": "0x60806040523480156100195760008061001661001f565b50505b5061008a565b632a2a7adb598160e01b8152600481016020815285602082015260005b8681101561005757808601518282016040015260200161003c565b506020828760640184336000905af158600e01573d6000803e3d6000fd5b3d6001141558600a015760016000f35b505050565b610dad806100996000396000f3fe608060405234801561001957600080610016610b17565b50505b50600436106100915760003560e01c8063a41e7d5111610064578063a41e7d5114610208578063aabbb8ca14610247578063b70567651461027c578063f712f3e8146102cf57610091565b806329965a1d1461009f5780633d584063146100e05780635df8122f1461012b57806365ba36c114610162575b60008061009c610b17565b50505b6100de600480360360608110156100be576000806100bb610b17565b50505b506001600160a01b0381358116916020810135916040909101351661030e565b005b61010f600480360360208110156100ff576000806100fc610b17565b50505b50356001600160a01b0316610629565b6040516001600160a01b03909116815260200160405180910390f35b6100de6004803603604081101561014a57600080610147610b17565b50505b506001600160a01b03813581169160200135166106ae565b6101f6600480360360208110156101815760008061017e610b17565b50505b8101906020810181356401000000008111156101a5576000806101a2610b17565b50505b8201836020820111156101c0576000806101bd610b17565b50505b803590602001918460018302840111640100000000831117156101eb576000806101e8610b17565b50505b5090925090506107cc565b60405190815260200160405180910390f35b6100de6004803603604081101561022757600080610224610b17565b50505b5080356001600160a01b031690602001356001600160e01b031916610806565b61010f6004803603604081101561026657600080610263610b17565b50505b506001600160a01b0381351690602001356108db565b6102bb6004803603604081101561029b57600080610298610b17565b50505b5080356001600160a01b031690602001356001600160e01b031916610978565b604051901515815260200160405180910390f35b6102bb600480360360408110156102ee576000806102eb610b17565b50505b5080356001600160a01b031690602001356001600160e01b031916610a1a565b60006001600160a01b03841615610325578361032e565b5a61032e610b82565b90505a610339610b82565b6001600160a01b031661034b82610629565b6001600160a01b0316146103a05760405162461bcd60e51b815260206004820152600f60248201526e2737ba103a34329036b0b730b3b2b960891b60448201526064016040518091039061039d610b17565b50505b6103a983610acd565b156104035760405162461bcd60e51b815260206004820152601a60248201527f4d757374206e6f7420626520616e204552433136352068617368000000000000604482015260640160405180910390610400610b17565b50505b6001600160a01b0382161580159061043557505a61041f610b82565b6001600160a01b0316826001600160a01b031614155b156105895760405173455243313832305f4143434550545f4d4147494360601b602082015260340160405160208183030381529060405280519060200120826001600160a01b031663249cb3fa85846040516001600160e01b031960e085901b16815260048101929092526001600160a01b0316602482015260440160206040518083038186806104c4610bdc565b1580156104d9576000806104d6610b17565b50505b505a6104e3610c28565b5050505050158015610502573d6000803e3d60006104ff610b17565b50505b505050506040513d60208110156105215760008061051e610b17565b50505b8101908080519390931492506105899150505760405162461bcd60e51b815260206004820181905260248201527f446f6573206e6f7420696d706c656d656e742074686520696e74657266616365604482015260640160405180910390610586610b17565b50505b6001600160a01b038116600090815260208190528290604090206000858152602091909152604090206001816105bd610d13565b816001600160a01b0302191690836001600160a01b03160217906105df610d5f565b505050816001600160a01b031683826001600160a01b03167f93baa6efbd2244243bfee6ce4cfdd1d04fc4c0e9a786abd3a41313bd352db15360405160405180910390a450505050565b6001600160a01b03811660009081526001602052806040812060009061064d610d13565b906101000a90046001600160a01b03166001600160a01b031614156106735750806106a9565b6001600160a01b0382166000908152600160205260409020600090610696610d13565b906101000a90046001600160a01b031690505b919050565b5a6106b7610b82565b6001600160a01b03166106c983610629565b6001600160a01b03161461071e5760405162461bcd60e51b815260206004820152600f60248201526e2737ba103a34329036b0b730b3b2b960891b60448201526064016040518091039061071b610b17565b50505b816001600160a01b0316816001600160a01b03161461073d5780610740565b60005b6001600160a01b0383166000908152600160205260409020600181610763610d13565b816001600160a01b0302191690836001600160a01b0316021790610785610d5f565b505050806001600160a01b0316826001600160a01b03167f605c2dbf762e5f7d60a546d42e7205dcb1b011ebc62a61736a57c9089d3a435060405160405180910390a35050565b6000828260405160200180838380828437919091019350604092505050516020818303038152906040528051906020012090505b92915050565b6108108282610978565b61081b57600061081d565b815b6001600160a01b03831660009081526020819052604090206001600160e01b0319831660009081526020919091526040902060018161085a610d13565b816001600160a01b0302191690836001600160a01b031602179061087c610d5f565b5050506001600160a01b03821660009081526002602052600190604090206001600160e01b031983166000908152602091909152604090206001816108bf610d13565b8160ff021916908315150217906108d4610d5f565b5050505050565b6000806001600160a01b038416156108f357836108fc565b5a6108fc610b82565b905061090783610acd565b1561092d57826109178282610a1a565b610922576000610924565b815b92505050610800565b6001600160a01b038116600090815260208190526040902060008481526020919091526040902060009061095f610d13565b906101000a90046001600160a01b031691505092915050565b6000808061098d856301ffc9a760e01b610ada565b909250905081158061099d575080155b156109ad57600092505050610800565b6109bf856001600160e01b0319610ada565b90925090508115806109d057508015155b156109e057600092505050610800565b6109ea8585610ada565b90925090506001821480156109ff5750806001145b15610a0f57600192505050610800565b506000949350505050565b6001600160a01b03821660009081526002602052604081206001600160e01b03198316600090815260209190915260409020600090610a57610d13565b906101000a900460ff16610a7657610a6f8383610978565b9050610800565b6001600160a01b03831660008181526020819052604090206001600160e01b03198416600090815260209190915260409020600090610ab3610d13565b6001600160a01b036101009290920a900416149392505050565b6001600160e01b03161590565b6000806301ffc9a760e01b60405181815284600482015260208160248389617530610b03610c28565b505050505093508051925050509250929050565b632a2a7adb598160e01b8152600481016020815285602082015260005b86811015610b4f578086015182820160400152602001610b34565b506020828760640184336000905af158600e01573d6000803e3d6000fd5b3d6001141558600a015760016000f35b505050565b6373509064598160e01b8152602081600483336000905af158600e01573d6000803e3d6000fd5b3d6001141558600a015760016000f35b8051935060005b6040811015610bd757600082820152602001610bc0565b505050565b638435035b598160e01b8152836004820152602081602483336000905af158600e01573d6000803e3d6000fd5b3d6001141558600a015760016000f35b80516000825293506020610bc0565b638540661f598160e01b8152610c59565b8080831115610800575090919050565b8080831015610800575090919050565b836004820152846024820152606060448201528660648201526084810160005b88811015610c91578088015182820152602001610c79565b506060828960a40184336000905af158600e01573d6000803e3d6000fd5b3d6001141558600a015760016000f35b815160408301513d6000853e8b8b82606087013350600060045af15059610ce68d3d610c49565b8c01610cf28187610c39565b5b82811015610d075760008152602001610cf3565b50929c50505050505050565b6303daa959598160e01b8152836004820152602081602483336000905af158600e01573d6000803e3d6000fd5b3d6001141558600a015760016000f35b80516000825293506020610bc0565b6322bd64c0598160e01b8152836004820152846024820152600081604483336000905af158600e01573d6000803e3d6000fd5b3d6001141558600a015760016000f35b600081526020610bc056",
  "linkReferences": {},
  "deployedLinkReferences": {}
}