{
  "contracts/optimistic-ethereum/OVM/predeploys/ERC1820Registry.sol": {
    "ERC1820Registry": {
      "abi": [
        {
          "anonymous": false,
          "inputs": [
            {
              "indexed": true,
              "internalType": "address",
              "name": "addr",
              "type": "address"
            },
            {
              "indexed": true,
              "internalType": "bytes32",
              "name": "interfaceHash",
              "type": "bytes32"
            },
            {
              "indexed": true,
              "internalType": "address",
              "name": "implementer",
              "type": "address"
            }
          ],
          "name": "InterfaceImplementerSet",
          "type": "event"
        },
        {
          "anonymous": false,
          "inputs": [
            {
              "indexed": true,
              "internalType": "address",
              "name": "addr",
              "type": "address"
            },
            {
              "indexed": true,
              "internalType": "address",
              "name": "newManager",
              "type": "address"
            }
          ],
          "name": "ManagerChanged",
          "type": "event"
        },
        {
          "inputs": [
            {
              "internalType": "address",
              "name": "_addr",
              "type": "address"
            },
            {
              "internalType": "bytes32",
              "name": "_interfaceHash",
              "type": "bytes32"
            }
          ],
          "name": "getInterfaceImplementer",
          "outputs": [
            {
              "internalType": "address",
              "name": "",
              "type": "address"
            }
          ],
          "stateMutability": "view",
          "type": "function"
        },
        {
          "inputs": [
            {
              "internalType": "address",
              "name": "_addr",
              "type": "address"
            }
          ],
          "name": "getManager",
          "outputs": [
            {
              "internalType": "address",
              "name": "",
              "type": "address"
            }
          ],
          "stateMutability": "view",
          "type": "function"
        },
        {
          "inputs": [
            {
              "internalType": "address",
              "name": "_contract",
              "type": "address"
            },
            {
              "internalType": "bytes4",
              "name": "_interfaceId",
              "type": "bytes4"
            }
          ],
          "name": "implementsERC165Interface",
          "outputs": [
            {
              "internalType": "bool",
              "name": "",
              "type": "bool"
            }
          ],
          "stateMutability": "view",
          "type": "function"
        },
        {
          "inputs": [
            {
              "internalType": "address",
              "name": "_contract",
              "type": "address"
            },
            {
              "internalType": "bytes4",
              "name": "_interfaceId",
              "type": "bytes4"
            }
          ],
          "name": "implementsERC165InterfaceNoCache",
          "outputs": [
            {
              "internalType": "bool",
              "name": "",
              "type": "bool"
            }
          ],
          "stateMutability": "view",
          "type": "function"
        },
        {
          "inputs": [
            {
              "internalType": "string",
              "name": "_interfaceName",
              "type": "string"
            }
          ],
          "name": "interfaceHash",
          "outputs": [
            {
              "internalType": "bytes32",
              "name": "",
              "type": "bytes32"
            }
          ],
          "stateMutability": "pure",
          "type": "function"
        },
        {
          "inputs": [
            {
              "internalType": "address",
              "name": "_addr",
              "type": "address"
            },
            {
              "internalType": "bytes32",
              "name": "_interfaceHash",
              "type": "bytes32"
            },
            {
              "internalType": "address",
              "name": "_implementer",
              "type": "address"
            }
          ],
          "name": "setInterfaceImplementer",
          "outputs": [],
          "stateMutability": "nonpayable",
          "type": "function"
        },
        {
          "inputs": [
            {
              "internalType": "address",
              "name": "_addr",
              "type": "address"
            },
            {
              "internalType": "address",
              "name": "_newManager",
              "type": "address"
            }
          ],
          "name": "setManager",
          "outputs": [],
          "stateMutability": "nonpayable",
          "type": "function"
        },
        {
          "inputs": [
            {
              "internalType": "address",
              "name": "_contract",
              "type": "address"
            },
            {
              "internalType": "bytes4",
              "name": "_interfaceId",
              "type": "bytes4"
            }
          ],
          "name": "updateERC165Cache",
          "outputs": [],
          "stateMutability": "nonpayable",
          "type": "function"
        }
      ],
      "devdoc": {
        "author": "Jordi Baylina and Jacques Dafflon",
        "details": "This contract is the official implementation of the ERC1820 Registry For more details, see https://eips.ethereum.org/EIPS/eip-1820 Compiler used: optimistic-solc Runtime target: OVM",
        "kind": "dev",
        "methods": {
          "getInterfaceImplementer(address,bytes32)": {
            "params": {
              "_addr": "Address being queried for the implementer of an interface. (If '_addr' is the zero address then 'msg.sender' is assumed.)",
              "_interfaceHash": "Keccak256 hash of the name of the interface as a string. E.g., 'web3.utils.keccak256(\"ERC777TokensRecipient\")' for the 'ERC777TokensRecipient' interface."
            },
            "returns": {
              "_0": "The address of the contract which implements the interface '_interfaceHash' for '_addr' or '0' if '_addr' did not register an implementer for this interface."
            }
          },
          "getManager(address)": {
            "params": {
              "_addr": "Address for which to return the manager."
            },
            "returns": {
              "_0": "Address of the manager for a given address."
            }
          },
          "implementsERC165Interface(address,bytes4)": {
            "params": {
              "_contract": "Address of the contract to check.",
              "_interfaceId": "ERC165 interface to check."
            },
            "returns": {
              "_0": "True if '_contract' implements '_interfaceId', false otherwise."
            }
          },
          "implementsERC165InterfaceNoCache(address,bytes4)": {
            "params": {
              "_contract": "Address of the contract to check.",
              "_interfaceId": "ERC165 interface to check."
            },
            "returns": {
              "_0": "True if '_contract' implements '_interfaceId', false otherwise."
            }
          },
          "interfaceHash(string)": {
            "params": {
              "_interfaceName": "Name of the interface."
            },
            "returns": {
              "_0": "The keccak256 hash of an interface name."
            }
          },
          "setInterfaceImplementer(address,bytes32,address)": {
            "params": {
              "_addr": "Address for which to set the interface. (If '_addr' is the zero address then 'msg.sender' is assumed.)",
              "_implementer": "Contract address implementing '_interfaceHash' for '_addr'.",
              "_interfaceHash": "Keccak256 hash of the name of the interface as a string. E.g., 'web3.utils.keccak256(\"ERC777TokensRecipient\")' for the 'ERC777TokensRecipient' interface."
            }
          },
          "setManager(address,address)": {
            "params": {
              "_addr": "Address for which to set the new manager.",
              "_newManager": "Address of the new manager for 'addr'. (Pass '0x0' to reset the manager to '_addr'.)"
            }
          },
          "updateERC165Cache(address,bytes4)": {
            "params": {
              "_contract": "Address of the contract for which to update the cache.",
              "_interfaceId": "ERC165 interface for which to update the cache."
            }
          }
        },
        "title": "ERC1820 Pseudo-introspection Registry Contract",
        "version": 1
      },
      "evm": {
        "bytecode": {
          "linkReferences": {},
          "object": "60806040523480156100195760008061001661001f565b50505b5061008a565b632a2a7adb598160e01b8152600481016020815285602082015260005b8681101561005757808601518282016040015260200161003c565b506020828760640184336000905af158600e01573d6000803e3d6000fd5b3d6001141558600a015760016000f35b505050565b610dad806100996000396000f3fe608060405234801561001957600080610016610b17565b50505b50600436106100915760003560e01c8063a41e7d5111610064578063a41e7d5114610208578063aabbb8ca14610247578063b70567651461027c578063f712f3e8146102cf57610091565b806329965a1d1461009f5780633d584063146100e05780635df8122f1461012b57806365ba36c114610162575b60008061009c610b17565b50505b6100de600480360360608110156100be576000806100bb610b17565b50505b506001600160a01b0381358116916020810135916040909101351661030e565b005b61010f600480360360208110156100ff576000806100fc610b17565b50505b50356001600160a01b0316610629565b6040516001600160a01b03909116815260200160405180910390f35b6100de6004803603604081101561014a57600080610147610b17565b50505b506001600160a01b03813581169160200135166106ae565b6101f6600480360360208110156101815760008061017e610b17565b50505b8101906020810181356401000000008111156101a5576000806101a2610b17565b50505b8201836020820111156101c0576000806101bd610b17565b50505b803590602001918460018302840111640100000000831117156101eb576000806101e8610b17565b50505b5090925090506107cc565b60405190815260200160405180910390f35b6100de6004803603604081101561022757600080610224610b17565b50505b5080356001600160a01b031690602001356001600160e01b031916610806565b61010f6004803603604081101561026657600080610263610b17565b50505b506001600160a01b0381351690602001356108db565b6102bb6004803603604081101561029b57600080610298610b17565b50505b5080356001600160a01b031690602001356001600160e01b031916610978565b604051901515815260200160405180910390f35b6102bb600480360360408110156102ee576000806102eb610b17565b50505b5080356001600160a01b031690602001356001600160e01b031916610a1a565b60006001600160a01b03841615610325578361032e565b5a61032e610b82565b90505a610339610b82565b6001600160a01b031661034b82610629565b6001600160a01b0316146103a05760405162461bcd60e51b815260206004820152600f60248201526e2737ba103a34329036b0b730b3b2b960891b60448201526064016040518091039061039d610b17565b50505b6103a983610acd565b156104035760405162461bcd60e51b815260206004820152601a60248201527f4d757374206e6f7420626520616e204552433136352068617368000000000000604482015260640160405180910390610400610b17565b50505b6001600160a01b0382161580159061043557505a61041f610b82565b6001600160a01b0316826001600160a01b031614155b156105895760405173455243313832305f4143434550545f4d4147494360601b602082015260340160405160208183030381529060405280519060200120826001600160a01b031663249cb3fa85846040516001600160e01b031960e085901b16815260048101929092526001600160a01b0316602482015260440160206040518083038186806104c4610bdc565b1580156104d9576000806104d6610b17565b50505b505a6104e3610c28565b5050505050158015610502573d6000803e3d60006104ff610b17565b50505b505050506040513d60208110156105215760008061051e610b17565b50505b8101908080519390931492506105899150505760405162461bcd60e51b815260206004820181905260248201527f446f6573206e6f7420696d706c656d656e742074686520696e74657266616365604482015260640160405180910390610586610b17565b50505b6001600160a01b038116600090815260208190528290604090206000858152602091909152604090206001816105bd610d13565b816001600160a01b0302191690836001600160a01b03160217906105df610d5f565b505050816001600160a01b031683826001600160a01b03167f93baa6efbd2244243bfee6ce4cfdd1d04fc4c0e9a786abd3a41313bd352db15360405160405180910390a450505050565b6001600160a01b03811660009081526001602052806040812060009061064d610d13565b906101000a90046001600160a01b03166001600160a01b031614156106735750806106a9565b6001600160a01b0382166000908152600160205260409020600090610696610d13565b906101000a90046001600160a01b031690505b919050565b5a6106b7610b82565b6001600160a01b03166106c983610629565b6001600160a01b03161461071e5760405162461bcd60e51b815260206004820152600f60248201526e2737ba103a34329036b0b730b3b2b960891b60448201526064016040518091039061071b610b17565b50505b816001600160a01b0316816001600160a01b03161461073d5780610740565b60005b6001600160a01b0383166000908152600160205260409020600181610763610d13565b816001600160a01b0302191690836001600160a01b0316021790610785610d5f565b505050806001600160a01b0316826001600160a01b03167f605c2dbf762e5f7d60a546d42e7205dcb1b011ebc62a61736a57c9089d3a435060405160405180910390a35050565b6000828260405160200180838380828437919091019350604092505050516020818303038152906040528051906020012090505b92915050565b6108108282610978565b61081b57600061081d565b815b6001600160a01b03831660009081526020819052604090206001600160e01b0319831660009081526020919091526040902060018161085a610d13565b816001600160a01b0302191690836001600160a01b031602179061087c610d5f565b5050506001600160a01b03821660009081526002602052600190604090206001600160e01b031983166000908152602091909152604090206001816108bf610d13565b8160ff021916908315150217906108d4610d5f565b5050505050565b6000806001600160a01b038416156108f357836108fc565b5a6108fc610b82565b905061090783610acd565b1561092d57826109178282610a1a565b610922576000610924565b815b92505050610800565b6001600160a01b038116600090815260208190526040902060008481526020919091526040902060009061095f610d13565b906101000a90046001600160a01b031691505092915050565b6000808061098d856301ffc9a760e01b610ada565b909250905081158061099d575080155b156109ad57600092505050610800565b6109bf856001600160e01b0319610ada565b90925090508115806109d057508015155b156109e057600092505050610800565b6109ea8585610ada565b90925090506001821480156109ff5750806001145b15610a0f57600192505050610800565b506000949350505050565b6001600160a01b03821660009081526002602052604081206001600160e01b03198316600090815260209190915260409020600090610a57610d13565b906101000a900460ff16610a7657610a6f8383610978565b9050610800565b6001600160a01b03831660008181526020819052604090206001600160e01b03198416600090815260209190915260409020600090610ab3610d13565b6001600160a01b036101009290920a900416149392505050565b6001600160e01b03161590565b6000806301ffc9a760e01b60405181815284600482015260208160248389617530610b03610c28565b505050505093508051925050509250929050565b632a2a7adb598160e01b8152600481016020815285602082015260005b86811015610b4f578086015182820160400152602001610b34565b506020828760640184336000905af158600e01573d6000803e3d6000fd5b3d6001141558600a015760016000f35b505050565b6373509064598160e01b8152602081600483336000905af158600e01573d6000803e3d6000fd5b3d6001141558600a015760016000f35b8051935060005b6040811015610bd757600082820152602001610bc0565b505050565b638435035b598160e01b8152836004820152602081602483336000905af158600e01573d6000803e3d6000fd5b3d6001141558600a015760016000f35b80516000825293506020610bc0565b638540661f598160e01b8152610c59565b8080831115610800575090919050565b8080831015610800575090919050565b836004820152846024820152606060448201528660648201526084810160005b88811015610c91578088015182820152602001610c79565b506060828960a40184336000905af158600e01573d6000803e3d6000fd5b3d6001141558600a015760016000f35b815160408301513d6000853e8b8b82606087013350600060045af15059610ce68d3d610c49565b8c01610cf28187610c39565b5b82811015610d075760008152602001610cf3565b50929c50505050505050565b6303daa959598160e01b8152836004820152602081602483336000905af158600e01573d6000803e3d6000fd5b3d6001141558600a015760016000f35b80516000825293506020610bc0565b6322bd64c0598160e01b8152836004820152846024820152600081604483336000905af158600e01573d6000803e3d6000fd5b3d6001141558600a015760016000f35b600081526020610bc056",
          "opcodes": "PUSH1 0x80 PUSH1 0x40 MSTORE CALLVALUE DUP1 ISZERO PUSH2 0x19 JUMPI PUSH1 0x0 DUP1 PUSH2 0x16 PUSH2 0x1F JUMP JUMPDEST POP POP JUMPDEST POP PUSH2 0x8A JUMP JUMPDEST PUSH4 0x2A2A7ADB MSIZE DUP2 PUSH1 0xE0 SHL DUP2 MSTORE PUSH1 0x4 DUP2 ADD PUSH1 0x20 DUP2 MSTORE DUP6 PUSH1 0x20 DUP3 ADD MSTORE PUSH1 0x0 JUMPDEST DUP7 DUP2 LT ISZERO PUSH2 0x57 JUMPI DUP1 DUP7 ADD MLOAD DUP3 DUP3 ADD PUSH1 0x40 ADD MSTORE PUSH1 0x20 ADD PUSH2 0x3C JUMP JUMPDEST POP PUSH1 0x20 DUP3 DUP8 PUSH1 0x64 ADD DUP5 CALLER PUSH1 0x0 SWAP1 GAS CALL PC PUSH1 0xE ADD JUMPI RETURNDATASIZE PUSH1 0x0 DUP1 RETURNDATACOPY RETURNDATASIZE PUSH1 0x0 REVERT JUMPDEST RETURNDATASIZE PUSH1 0x1 EQ ISZERO PC PUSH1 0xA ADD JUMPI PUSH1 0x1 PUSH1 0x0 RETURN JUMPDEST POP POP POP JUMP JUMPDEST PUSH2 0xDAD DUP1 PUSH2 0x99 PUSH1 0x0 CODECOPY PUSH1 0x0 RETURN INVALID PUSH1 0x80 PUSH1 0x40 MSTORE CALLVALUE DUP1 ISZERO PUSH2 0x19 JUMPI PUSH1 0x0 DUP1 PUSH2 0x16 PUSH2 0xB17 JUMP JUMPDEST POP POP JUMPDEST POP PUSH1 0x4 CALLDATASIZE LT PUSH2 0x91 JUMPI PUSH1 0x0 CALLDATALOAD PUSH1 0xE0 SHR DUP1 PUSH4 0xA41E7D51 GT PUSH2 0x64 JUMPI DUP1 PUSH4 0xA41E7D51 EQ PUSH2 0x208 JUMPI DUP1 PUSH4 0xAABBB8CA EQ PUSH2 0x247 JUMPI DUP1 PUSH4 0xB7056765 EQ PUSH2 0x27C JUMPI DUP1 PUSH4 0xF712F3E8 EQ PUSH2 0x2CF JUMPI PUSH2 0x91 JUMP JUMPDEST DUP1 PUSH4 0x29965A1D EQ PUSH2 0x9F JUMPI DUP1 PUSH4 0x3D584063 EQ PUSH2 0xE0 JUMPI DUP1 PUSH4 0x5DF8122F EQ PUSH2 0x12B JUMPI DUP1 PUSH4 0x65BA36C1 EQ PUSH2 0x162 JUMPI JUMPDEST PUSH1 0x0 DUP1 PUSH2 0x9C PUSH2 0xB17 JUMP JUMPDEST POP POP JUMPDEST PUSH2 0xDE PUSH1 0x4 DUP1 CALLDATASIZE SUB PUSH1 0x60 DUP2 LT ISZERO PUSH2 0xBE JUMPI PUSH1 0x0 DUP1 PUSH2 0xBB PUSH2 0xB17 JUMP JUMPDEST POP POP JUMPDEST POP PUSH1 0x1 PUSH1 0x1 PUSH1 0xA0 SHL SUB DUP2 CALLDATALOAD DUP2 AND SWAP2 PUSH1 0x20 DUP2 ADD CALLDATALOAD SWAP2 PUSH1 0x40 SWAP1 SWAP2 ADD CALLDATALOAD AND PUSH2 0x30E JUMP JUMPDEST STOP JUMPDEST PUSH2 0x10F PUSH1 0x4 DUP1 CALLDATASIZE SUB PUSH1 0x20 DUP2 LT ISZERO PUSH2 0xFF JUMPI PUSH1 0x0 DUP1 PUSH2 0xFC PUSH2 0xB17 JUMP JUMPDEST POP POP JUMPDEST POP CALLDATALOAD PUSH1 0x1 PUSH1 0x1 PUSH1 0xA0 SHL SUB AND PUSH2 0x629 JUMP JUMPDEST PUSH1 0x40 MLOAD PUSH1 0x1 PUSH1 0x1 PUSH1 0xA0 SHL SUB SWAP1 SWAP2 AND DUP2 MSTORE PUSH1 0x20 ADD PUSH1 0x40 MLOAD DUP1 SWAP2 SUB SWAP1 RETURN JUMPDEST PUSH2 0xDE PUSH1 0x4 DUP1 CALLDATASIZE SUB PUSH1 0x40 DUP2 LT ISZERO PUSH2 0x14A JUMPI PUSH1 0x0 DUP1 PUSH2 0x147 PUSH2 0xB17 JUMP JUMPDEST POP POP JUMPDEST POP PUSH1 0x1 PUSH1 0x1 PUSH1 0xA0 SHL SUB DUP2 CALLDATALOAD DUP2 AND SWAP2 PUSH1 0x20 ADD CALLDATALOAD AND PUSH2 0x6AE JUMP JUMPDEST PUSH2 0x1F6 PUSH1 0x4 DUP1 CALLDATASIZE SUB PUSH1 0x20 DUP2 LT ISZERO PUSH2 0x181 JUMPI PUSH1 0x0 DUP1 PUSH2 0x17E PUSH2 0xB17 JUMP JUMPDEST POP POP JUMPDEST DUP2 ADD SWAP1 PUSH1 0x20 DUP2 ADD DUP2 CALLDATALOAD PUSH5 0x100000000 DUP2 GT ISZERO PUSH2 0x1A5 JUMPI PUSH1 0x0 DUP1 PUSH2 0x1A2 PUSH2 0xB17 JUMP JUMPDEST POP POP JUMPDEST DUP3 ADD DUP4 PUSH1 0x20 DUP3 ADD GT ISZERO PUSH2 0x1C0 JUMPI PUSH1 0x0 DUP1 PUSH2 0x1BD PUSH2 0xB17 JUMP JUMPDEST POP POP JUMPDEST DUP1 CALLDATALOAD SWAP1 PUSH1 0x20 ADD SWAP2 DUP5 PUSH1 0x1 DUP4 MUL DUP5 ADD GT PUSH5 0x100000000 DUP4 GT OR ISZERO PUSH2 0x1EB JUMPI PUSH1 0x0 DUP1 PUSH2 0x1E8 PUSH2 0xB17 JUMP JUMPDEST POP POP JUMPDEST POP SWAP1 SWAP3 POP SWAP1 POP PUSH2 0x7CC JUMP JUMPDEST PUSH1 0x40 MLOAD SWAP1 DUP2 MSTORE PUSH1 0x20 ADD PUSH1 0x40 MLOAD DUP1 SWAP2 SUB SWAP1 RETURN JUMPDEST PUSH2 0xDE PUSH1 0x4 DUP1 CALLDATASIZE SUB PUSH1 0x40 DUP2 LT ISZERO PUSH2 0x227 JUMPI PUSH1 0x0 DUP1 PUSH2 0x224 PUSH2 0xB17 JUMP JUMPDEST POP POP JUMPDEST POP DUP1 CALLDATALOAD PUSH1 0x1 PUSH1 0x1 PUSH1 0xA0 SHL SUB AND SWAP1 PUSH1 0x20 ADD CALLDATALOAD PUSH1 0x1 PUSH1 0x1 PUSH1 0xE0 SHL SUB NOT AND PUSH2 0x806 JUMP JUMPDEST PUSH2 0x10F PUSH1 0x4 DUP1 CALLDATASIZE SUB PUSH1 0x40 DUP2 LT ISZERO PUSH2 0x266 JUMPI PUSH1 0x0 DUP1 PUSH2 0x263 PUSH2 0xB17 JUMP JUMPDEST POP POP JUMPDEST POP PUSH1 0x1 PUSH1 0x1 PUSH1 0xA0 SHL SUB DUP2 CALLDATALOAD AND SWAP1 PUSH1 0x20 ADD CALLDATALOAD PUSH2 0x8DB JUMP JUMPDEST PUSH2 0x2BB PUSH1 0x4 DUP1 CALLDATASIZE SUB PUSH1 0x40 DUP2 LT ISZERO PUSH2 0x29B JUMPI PUSH1 0x0 DUP1 PUSH2 0x298 PUSH2 0xB17 JUMP JUMPDEST POP POP JUMPDEST POP DUP1 CALLDATALOAD PUSH1 0x1 PUSH1 0x1 PUSH1 0xA0 SHL SUB AND SWAP1 PUSH1 0x20 ADD CALLDATALOAD PUSH1 0x1 PUSH1 0x1 PUSH1 0xE0 SHL SUB NOT AND PUSH2 0x978 JUMP JUMPDEST PUSH1 0x40 MLOAD SWAP1 ISZERO ISZERO DUP2 MSTORE PUSH1 0x20 ADD PUSH1 0x40 MLOAD DUP1 SWAP2 SUB SWAP1 RETURN JUMPDEST PUSH2 0x2BB PUSH1 0x4 DUP1 CALLDATASIZE SUB PUSH1 0x40 DUP2 LT ISZERO PUSH2 0x2EE JUMPI PUSH1 0x0 DUP1 PUSH2 0x2EB PUSH2 0xB17 JUMP JUMPDEST POP POP JUMPDEST POP DUP1 CALLDATALOAD PUSH1 0x1 PUSH1 0x1 PUSH1 0xA0 SHL SUB AND SWAP1 PUSH1 0x20 ADD CALLDATALOAD PUSH1 0x1 PUSH1 0x1 PUSH1 0xE0 SHL SUB NOT AND PUSH2 0xA1A JUMP JUMPDEST PUSH1 0x0 PUSH1 0x1 PUSH1 0x1 PUSH1 0xA0 SHL SUB DUP5 AND ISZERO PUSH2 0x325 JUMPI DUP4 PUSH2 0x32E JUMP JUMPDEST GAS PUSH2 0x32E PUSH2 0xB82 JUMP JUMPDEST SWAP1 POP GAS PUSH2 0x339 PUSH2 0xB82 JUMP JUMPDEST PUSH1 0x1 PUSH1 0x1 PUSH1 0xA0 SHL SUB AND PUSH2 0x34B DUP3 PUSH2 0x629 JUMP JUMPDEST PUSH1 0x1 PUSH1 0x1 PUSH1 0xA0 SHL SUB AND EQ PUSH2 0x3A0 JUMPI PUSH1 0x40 MLOAD PUSH3 0x461BCD PUSH1 0xE5 SHL DUP2 MSTORE PUSH1 0x20 PUSH1 0x4 DUP3 ADD MSTORE PUSH1 0xF PUSH1 0x24 DUP3 ADD MSTORE PUSH15 0x2737BA103A34329036B0B730B3B2B9 PUSH1 0x89 SHL PUSH1 0x44 DUP3 ADD MSTORE PUSH1 0x64 ADD PUSH1 0x40 MLOAD DUP1 SWAP2 SUB SWAP1 PUSH2 0x39D PUSH2 0xB17 JUMP JUMPDEST POP POP JUMPDEST PUSH2 0x3A9 DUP4 PUSH2 0xACD JUMP JUMPDEST ISZERO PUSH2 0x403 JUMPI PUSH1 0x40 MLOAD PUSH3 0x461BCD PUSH1 0xE5 SHL DUP2 MSTORE PUSH1 0x20 PUSH1 0x4 DUP3 ADD MSTORE PUSH1 0x1A PUSH1 0x24 DUP3 ADD MSTORE PUSH32 0x4D757374206E6F7420626520616E204552433136352068617368000000000000 PUSH1 0x44 DUP3 ADD MSTORE PUSH1 0x64 ADD PUSH1 0x40 MLOAD DUP1 SWAP2 SUB SWAP1 PUSH2 0x400 PUSH2 0xB17 JUMP JUMPDEST POP POP JUMPDEST PUSH1 0x1 PUSH1 0x1 PUSH1 0xA0 SHL SUB DUP3 AND ISZERO DUP1 ISZERO SWAP1 PUSH2 0x435 JUMPI POP GAS PUSH2 0x41F PUSH2 0xB82 JUMP JUMPDEST PUSH1 0x1 PUSH1 0x1 PUSH1 0xA0 SHL SUB AND DUP3 PUSH1 0x1 PUSH1 0x1 PUSH1 0xA0 SHL SUB AND EQ ISZERO JUMPDEST ISZERO PUSH2 0x589 JUMPI PUSH1 0x40 MLOAD PUSH20 0x455243313832305F4143434550545F4D41474943 PUSH1 0x60 SHL PUSH1 0x20 DUP3 ADD MSTORE PUSH1 0x34 ADD PUSH1 0x40 MLOAD PUSH1 0x20 DUP2 DUP4 SUB SUB DUP2 MSTORE SWAP1 PUSH1 0x40 MSTORE DUP1 MLOAD SWAP1 PUSH1 0x20 ADD KECCAK256 DUP3 PUSH1 0x1 PUSH1 0x1 PUSH1 0xA0 SHL SUB AND PUSH4 0x249CB3FA DUP6 DUP5 PUSH1 0x40 MLOAD PUSH1 0x1 PUSH1 0x1 PUSH1 0xE0 SHL SUB NOT PUSH1 0xE0 DUP6 SWAP1 SHL AND DUP2 MSTORE PUSH1 0x4 DUP2 ADD SWAP3 SWAP1 SWAP3 MSTORE PUSH1 0x1 PUSH1 0x1 PUSH1 0xA0 SHL SUB AND PUSH1 0x24 DUP3 ADD MSTORE PUSH1 0x44 ADD PUSH1 0x20 PUSH1 0x40 MLOAD DUP1 DUP4 SUB DUP2 DUP7 DUP1 PUSH2 0x4C4 PUSH2 0xBDC JUMP JUMPDEST ISZERO DUP1 ISZERO PUSH2 0x4D9 JUMPI PUSH1 0x0 DUP1 PUSH2 0x4D6 PUSH2 0xB17 JUMP JUMPDEST POP POP JUMPDEST POP GAS PUSH2 0x4E3 PUSH2 0xC28 JUMP JUMPDEST POP POP POP POP POP ISZERO DUP1 ISZERO PUSH2 0x502 JUMPI RETURNDATASIZE PUSH1 0x0 DUP1 RETURNDATACOPY RETURNDATASIZE PUSH1 0x0 PUSH2 0x4FF PUSH2 0xB17 JUMP JUMPDEST POP POP JUMPDEST POP POP POP POP PUSH1 0x40 MLOAD RETURNDATASIZE PUSH1 0x20 DUP2 LT ISZERO PUSH2 0x521 JUMPI PUSH1 0x0 DUP1 PUSH2 0x51E PUSH2 0xB17 JUMP JUMPDEST POP POP JUMPDEST DUP2 ADD SWAP1 DUP1 DUP1 MLOAD SWAP4 SWAP1 SWAP4 EQ SWAP3 POP PUSH2 0x589 SWAP2 POP POP JUMPI PUSH1 0x40 MLOAD PUSH3 0x461BCD PUSH1 0xE5 SHL DUP2 MSTORE PUSH1 0x20 PUSH1 0x4 DUP3 ADD DUP2 SWAP1 MSTORE PUSH1 0x24 DUP3 ADD MSTORE PUSH32 0x446F6573206E6F7420696D706C656D656E742074686520696E74657266616365 PUSH1 0x44 DUP3 ADD MSTORE PUSH1 0x64 ADD PUSH1 0x40 MLOAD DUP1 SWAP2 SUB SWAP1 PUSH2 0x586 PUSH2 0xB17 JUMP JUMPDEST POP POP JUMPDEST PUSH1 0x1 PUSH1 0x1 PUSH1 0xA0 SHL SUB DUP2 AND PUSH1 0x0 SWAP1 DUP2 MSTORE PUSH1 0x20 DUP2 SWAP1 MSTORE DUP3 SWAP1 PUSH1 0x40 SWAP1 KECCAK256 PUSH1 0x0 DUP6 DUP2 MSTORE PUSH1 0x20 SWAP2 SWAP1 SWAP2 MSTORE PUSH1 0x40 SWAP1 KECCAK256 PUSH1 0x1 DUP2 PUSH2 0x5BD PUSH2 0xD13 JUMP JUMPDEST DUP2 PUSH1 0x1 PUSH1 0x1 PUSH1 0xA0 SHL SUB MUL NOT AND SWAP1 DUP4 PUSH1 0x1 PUSH1 0x1 PUSH1 0xA0 SHL SUB AND MUL OR SWAP1 PUSH2 0x5DF PUSH2 0xD5F JUMP JUMPDEST POP POP POP DUP2 PUSH1 0x1 PUSH1 0x1 PUSH1 0xA0 SHL SUB AND DUP4 DUP3 PUSH1 0x1 PUSH1 0x1 PUSH1 0xA0 SHL SUB AND PUSH32 0x93BAA6EFBD2244243BFEE6CE4CFDD1D04FC4C0E9A786ABD3A41313BD352DB153 PUSH1 0x40 MLOAD PUSH1 0x40 MLOAD DUP1 SWAP2 SUB SWAP1 LOG4 POP POP POP POP JUMP JUMPDEST PUSH1 0x1 PUSH1 0x1 PUSH1 0xA0 SHL SUB DUP2 AND PUSH1 0x0 SWAP1 DUP2 MSTORE PUSH1 0x1 PUSH1 0x20 MSTORE DUP1 PUSH1 0x40 DUP2 KECCAK256 PUSH1 0x0 SWAP1 PUSH2 0x64D PUSH2 0xD13 JUMP JUMPDEST SWAP1 PUSH2 0x100 EXP SWAP1 DIV PUSH1 0x1 PUSH1 0x1 PUSH1 0xA0 SHL SUB AND PUSH1 0x1 PUSH1 0x1 PUSH1 0xA0 SHL SUB AND EQ ISZERO PUSH2 0x673 JUMPI POP DUP1 PUSH2 0x6A9 JUMP JUMPDEST PUSH1 0x1 PUSH1 0x1 PUSH1 0xA0 SHL SUB DUP3 AND PUSH1 0x0 SWAP1 DUP2 MSTORE PUSH1 0x1 PUSH1 0x20 MSTORE PUSH1 0x40 SWAP1 KECCAK256 PUSH1 0x0 SWAP1 PUSH2 0x696 PUSH2 0xD13 JUMP JUMPDEST SWAP1 PUSH2 0x100 EXP SWAP1 DIV PUSH1 0x1 PUSH1 0x1 PUSH1 0xA0 SHL SUB AND SWAP1 POP JUMPDEST SWAP2 SWAP1 POP JUMP JUMPDEST GAS PUSH2 0x6B7 PUSH2 0xB82 JUMP JUMPDEST PUSH1 0x1 PUSH1 0x1 PUSH1 0xA0 SHL SUB AND PUSH2 0x6C9 DUP4 PUSH2 0x629 JUMP JUMPDEST PUSH1 0x1 PUSH1 0x1 PUSH1 0xA0 SHL SUB AND EQ PUSH2 0x71E JUMPI PUSH1 0x40 MLOAD PUSH3 0x461BCD PUSH1 0xE5 SHL DUP2 MSTORE PUSH1 0x20 PUSH1 0x4 DUP3 ADD MSTORE PUSH1 0xF PUSH1 0x24 DUP3 ADD MSTORE PUSH15 0x2737BA103A34329036B0B730B3B2B9 PUSH1 0x89 SHL PUSH1 0x44 DUP3 ADD MSTORE PUSH1 0x64 ADD PUSH1 0x40 MLOAD DUP1 SWAP2 SUB SWAP1 PUSH2 0x71B PUSH2 0xB17 JUMP JUMPDEST POP POP JUMPDEST DUP2 PUSH1 0x1 PUSH1 0x1 PUSH1 0xA0 SHL SUB AND DUP2 PUSH1 0x1 PUSH1 0x1 PUSH1 0xA0 SHL SUB AND EQ PUSH2 0x73D JUMPI DUP1 PUSH2 0x740 JUMP JUMPDEST PUSH1 0x0 JUMPDEST PUSH1 0x1 PUSH1 0x1 PUSH1 0xA0 SHL SUB DUP4 AND PUSH1 0x0 SWAP1 DUP2 MSTORE PUSH1 0x1 PUSH1 0x20 MSTORE PUSH1 0x40 SWAP1 KECCAK256 PUSH1 0x1 DUP2 PUSH2 0x763 PUSH2 0xD13 JUMP JUMPDEST DUP2 PUSH1 0x1 PUSH1 0x1 PUSH1 0xA0 SHL SUB MUL NOT AND SWAP1 DUP4 PUSH1 0x1 PUSH1 0x1 PUSH1 0xA0 SHL SUB AND MUL OR SWAP1 PUSH2 0x785 PUSH2 0xD5F JUMP JUMPDEST POP POP POP DUP1 PUSH1 0x1 PUSH1 0x1 PUSH1 0xA0 SHL SUB AND DUP3 PUSH1 0x1 PUSH1 0x1 PUSH1 0xA0 SHL SUB AND PUSH32 0x605C2DBF762E5F7D60A546D42E7205DCB1B011EBC62A61736A57C9089D3A4350 PUSH1 0x40 MLOAD PUSH1 0x40 MLOAD DUP1 SWAP2 SUB SWAP1 LOG3 POP POP JUMP JUMPDEST PUSH1 0x0 DUP3 DUP3 PUSH1 0x40 MLOAD PUSH1 0x20 ADD DUP1 DUP4 DUP4 DUP1 DUP3 DUP5 CALLDATACOPY SWAP2 SWAP1 SWAP2 ADD SWAP4 POP PUSH1 0x40 SWAP3 POP POP POP MLOAD PUSH1 0x20 DUP2 DUP4 SUB SUB DUP2 MSTORE SWAP1 PUSH1 0x40 MSTORE DUP1 MLOAD SWAP1 PUSH1 0x20 ADD KECCAK256 SWAP1 POP JUMPDEST SWAP3 SWAP2 POP POP JUMP JUMPDEST PUSH2 0x810 DUP3 DUP3 PUSH2 0x978 JUMP JUMPDEST PUSH2 0x81B JUMPI PUSH1 0x0 PUSH2 0x81D JUMP JUMPDEST DUP2 JUMPDEST PUSH1 0x1 PUSH1 0x1 PUSH1 0xA0 SHL SUB DUP4 AND PUSH1 0x0 SWAP1 DUP2 MSTORE PUSH1 0x20 DUP2 SWAP1 MSTORE PUSH1 0x40 SWAP1 KECCAK256 PUSH1 0x1 PUSH1 0x1 PUSH1 0xE0 SHL SUB NOT DUP4 AND PUSH1 0x0 SWAP1 DUP2 MSTORE PUSH1 0x20 SWAP2 SWAP1 SWAP2 MSTORE PUSH1 0x40 SWAP1 KECCAK256 PUSH1 0x1 DUP2 PUSH2 0x85A PUSH2 0xD13 JUMP JUMPDEST DUP2 PUSH1 0x1 PUSH1 0x1 PUSH1 0xA0 SHL SUB MUL NOT AND SWAP1 DUP4 PUSH1 0x1 PUSH1 0x1 PUSH1 0xA0 SHL SUB AND MUL OR SWAP1 PUSH2 0x87C PUSH2 0xD5F JUMP JUMPDEST POP POP POP PUSH1 0x1 PUSH1 0x1 PUSH1 0xA0 SHL SUB DUP3 AND PUSH1 0x0 SWAP1 DUP2 MSTORE PUSH1 0x2 PUSH1 0x20 MSTORE PUSH1 0x1 SWAP1 PUSH1 0x40 SWAP1 KECCAK256 PUSH1 0x1 PUSH1 0x1 PUSH1 0xE0 SHL SUB NOT DUP4 AND PUSH1 0x0 SWAP1 DUP2 MSTORE PUSH1 0x20 SWAP2 SWAP1 SWAP2 MSTORE PUSH1 0x40 SWAP1 KECCAK256 PUSH1 0x1 DUP2 PUSH2 0x8BF PUSH2 0xD13 JUMP JUMPDEST DUP2 PUSH1 0xFF MUL NOT AND SWAP1 DUP4 ISZERO ISZERO MUL OR SWAP1 PUSH2 0x8D4 PUSH2 0xD5F JUMP JUMPDEST POP POP POP POP POP JUMP JUMPDEST PUSH1 0x0 DUP1 PUSH1 0x1 PUSH1 0x1 PUSH1 0xA0 SHL SUB DUP5 AND ISZERO PUSH2 0x8F3 JUMPI DUP4 PUSH2 0x8FC JUMP JUMPDEST GAS PUSH2 0x8FC PUSH2 0xB82 JUMP JUMPDEST SWAP1 POP PUSH2 0x907 DUP4 PUSH2 0xACD JUMP JUMPDEST ISZERO PUSH2 0x92D JUMPI DUP3 PUSH2 0x917 DUP3 DUP3 PUSH2 0xA1A JUMP JUMPDEST PUSH2 0x922 JUMPI PUSH1 0x0 PUSH2 0x924 JUMP JUMPDEST DUP2 JUMPDEST SWAP3 POP POP POP PUSH2 0x800 JUMP JUMPDEST PUSH1 0x1 PUSH1 0x1 PUSH1 0xA0 SHL SUB DUP2 AND PUSH1 0x0 SWAP1 DUP2 MSTORE PUSH1 0x20 DUP2 SWAP1 MSTORE PUSH1 0x40 SWAP1 KECCAK256 PUSH1 0x0 DUP5 DUP2 MSTORE PUSH1 0x20 SWAP2 SWAP1 SWAP2 MSTORE PUSH1 0x40 SWAP1 KECCAK256 PUSH1 0x0 SWAP1 PUSH2 0x95F PUSH2 0xD13 JUMP JUMPDEST SWAP1 PUSH2 0x100 EXP SWAP1 DIV PUSH1 0x1 PUSH1 0x1 PUSH1 0xA0 SHL SUB AND SWAP2 POP POP SWAP3 SWAP2 POP POP JUMP JUMPDEST PUSH1 0x0 DUP1 DUP1 PUSH2 0x98D DUP6 PUSH4 0x1FFC9A7 PUSH1 0xE0 SHL PUSH2 0xADA JUMP JUMPDEST SWAP1 SWAP3 POP SWAP1 POP DUP2 ISZERO DUP1 PUSH2 0x99D JUMPI POP DUP1 ISZERO JUMPDEST ISZERO PUSH2 0x9AD JUMPI PUSH1 0x0 SWAP3 POP POP POP PUSH2 0x800 JUMP JUMPDEST PUSH2 0x9BF DUP6 PUSH1 0x1 PUSH1 0x1 PUSH1 0xE0 SHL SUB NOT PUSH2 0xADA JUMP JUMPDEST SWAP1 SWAP3 POP SWAP1 POP DUP2 ISZERO DUP1 PUSH2 0x9D0 JUMPI POP DUP1 ISZERO ISZERO JUMPDEST ISZERO PUSH2 0x9E0 JUMPI PUSH1 0x0 SWAP3 POP POP POP PUSH2 0x800 JUMP JUMPDEST PUSH2 0x9EA DUP6 DUP6 PUSH2 0xADA JUMP JUMPDEST SWAP1 SWAP3 POP SWAP1 POP PUSH1 0x1 DUP3 EQ DUP1 ISZERO PUSH2 0x9FF JUMPI POP DUP1 PUSH1 0x1 EQ JUMPDEST ISZERO PUSH2 0xA0F JUMPI PUSH1 0x1 SWAP3 POP POP POP PUSH2 0x800 JUMP JUMPDEST POP PUSH1 0x0 SWAP5 SWAP4 POP POP POP POP JUMP JUMPDEST PUSH1 0x1 PUSH1 0x1 PUSH1 0xA0 SHL SUB DUP3 AND PUSH1 0x0 SWAP1 DUP2 MSTORE PUSH1 0x2 PUSH1 0x20 MSTORE PUSH1 0x40 DUP2 KECCAK256 PUSH1 0x1 PUSH1 0x1 PUSH1 0xE0 SHL SUB NOT DUP4 AND PUSH1 0x0 SWAP1 DUP2 MSTORE PUSH1 0x20 SWAP2 SWAP1 SWAP2 MSTORE PUSH1 0x40 SWAP1 KECCAK256 PUSH1 0x0 SWAP1 PUSH2 0xA57 PUSH2 0xD13 JUMP JUMPDEST SWAP1 PUSH2 0x100 EXP SWAP1 DIV PUSH1 0xFF AND PUSH2 0xA76 JUMPI PUSH2 0xA6F DUP4 DUP4 PUSH2 0x978 JUMP JUMPDEST SWAP1 POP PUSH2 0x800 JUMP JUMPDEST PUSH1 0x1 PUSH1 0x1 PUSH1 0xA0 SHL SUB DUP4 AND PUSH1 0x0 DUP2 DUP2 MSTORE PUSH1 0x20 DUP2 SWAP1 MSTORE PUSH1 0x40 SWAP1 KECCAK256 PUSH1 0x1 PUSH1 0x1 PUSH1 0xE0 SHL SUB NOT DUP5 AND PUSH1 0x0 SWAP1 DUP2 MSTORE PUSH1 0x20 SWAP2 SWAP1 SWAP2 MSTORE PUSH1 0x40 SWAP1 KECCAK256 PUSH1 0x0 SWAP1 PUSH2 0xAB3 PUSH2 0xD13 JUMP JUMPDEST PUSH1 0x1 PUSH1 0x1 PUSH1 0xA0 SHL SUB PUSH2 0x100 SWAP3 SWAP1 SWAP3 EXP SWAP1 DIV AND EQ SWAP4 SWAP3 POP POP POP JUMP JUMPDEST PUSH1 0x1 PUSH1 0x1 PUSH1 0xE0 SHL SUB AND ISZERO SWAP1 JUMP JUMPDEST PUSH1 0x0 DUP1 PUSH4 0x1FFC9A7 PUSH1 0xE0 SHL PUSH1 0x40 MLOAD DUP2 DUP2 MSTORE DUP5 PUSH1 0x4 DUP3 ADD MSTORE PUSH1 0x20 DUP2 PUSH1 0x24 DUP4 DUP10 PUSH2 0x7530 PUSH2 0xB03 PUSH2 0xC28 JUMP JUMPDEST POP POP POP POP POP SWAP4 POP DUP1 MLOAD SWAP3 POP POP POP SWAP3 POP SWAP3 SWAP1 POP JUMP JUMPDEST PUSH4 0x2A2A7ADB MSIZE DUP2 PUSH1 0xE0 SHL DUP2 MSTORE PUSH1 0x4 DUP2 ADD PUSH1 0x20 DUP2 MSTORE DUP6 PUSH1 0x20 DUP3 ADD MSTORE PUSH1 0x0 JUMPDEST DUP7 DUP2 LT ISZERO PUSH2 0xB4F JUMPI DUP1 DUP7 ADD MLOAD DUP3 DUP3 ADD PUSH1 0x40 ADD MSTORE PUSH1 0x20 ADD PUSH2 0xB34 JUMP JUMPDEST POP PUSH1 0x20 DUP3 DUP8 PUSH1 0x64 ADD DUP5 CALLER PUSH1 0x0 SWAP1 GAS CALL PC PUSH1 0xE ADD JUMPI RETURNDATASIZE PUSH1 0x0 DUP1 RETURNDATACOPY RETURNDATASIZE PUSH1 0x0 REVERT JUMPDEST RETURNDATASIZE PUSH1 0x1 EQ ISZERO PC PUSH1 0xA ADD JUMPI PUSH1 0x1 PUSH1 0x0 RETURN JUMPDEST POP POP POP JUMP JUMPDEST PUSH4 0x73509064 MSIZE DUP2 PUSH1 0xE0 SHL DUP2 MSTORE PUSH1 0x20 DUP2 PUSH1 0x4 DUP4 CALLER PUSH1 0x0 SWAP1 GAS CALL PC PUSH1 0xE ADD JUMPI RETURNDATASIZE PUSH1 0x0 DUP1 RETURNDATACOPY RETURNDATASIZE PUSH1 0x0 REVERT JUMPDEST RETURNDATASIZE PUSH1 0x1 EQ ISZERO PC PUSH1 0xA ADD JUMPI PUSH1 0x1 PUSH1 0x0 RETURN JUMPDEST DUP1 MLOAD SWAP4 POP PUSH1 0x0 JUMPDEST PUSH1 0x40 DUP2 LT ISZERO PUSH2 0xBD7 JUMPI PUSH1 0x0 DUP3 DUP3 ADD MSTORE PUSH1 0x20 ADD PUSH2 0xBC0 JUMP JUMPDEST POP POP POP JUMP JUMPDEST PUSH4 0x8435035B MSIZE DUP2 PUSH1 0xE0 SHL DUP2 MSTORE DUP4 PUSH1 0x4 DUP3 ADD MSTORE PUSH1 0x20 DUP2 PUSH1 0x24 DUP4 CALLER PUSH1 0x0 SWAP1 GAS CALL PC PUSH1 0xE ADD JUMPI RETURNDATASIZE PUSH1 0x0 DUP1 RETURNDATACOPY RETURNDATASIZE PUSH1 0x0 REVERT JUMPDEST RETURNDATASIZE PUSH1 0x1 EQ ISZERO PC PUSH1 0xA ADD JUMPI PUSH1 0x1 PUSH1 0x0 RETURN JUMPDEST DUP1 MLOAD PUSH1 0x0 DUP3 MSTORE SWAP4 POP PUSH1 0x20 PUSH2 0xBC0 JUMP JUMPDEST PUSH4 0x8540661F MSIZE DUP2 PUSH1 0xE0 SHL DUP2 MSTORE PUSH2 0xC59 JUMP JUMPDEST DUP1 DUP1 DUP4 GT ISZERO PUSH2 0x800 JUMPI POP SWAP1 SWAP2 SWAP1 POP JUMP JUMPDEST DUP1 DUP1 DUP4 LT ISZERO PUSH2 0x800 JUMPI POP SWAP1 SWAP2 SWAP1 POP JUMP JUMPDEST DUP4 PUSH1 0x4 DUP3 ADD MSTORE DUP5 PUSH1 0x24 DUP3 ADD MSTORE PUSH1 0x60 PUSH1 0x44 DUP3 ADD MSTORE DUP7 PUSH1 0x64 DUP3 ADD MSTORE PUSH1 0x84 DUP2 ADD PUSH1 0x0 JUMPDEST DUP9 DUP2 LT ISZERO PUSH2 0xC91 JUMPI DUP1 DUP9 ADD MLOAD DUP3 DUP3 ADD MSTORE PUSH1 0x20 ADD PUSH2 0xC79 JUMP JUMPDEST POP PUSH1 0x60 DUP3 DUP10 PUSH1 0xA4 ADD DUP5 CALLER PUSH1 0x0 SWAP1 GAS CALL PC PUSH1 0xE ADD JUMPI RETURNDATASIZE PUSH1 0x0 DUP1 RETURNDATACOPY RETURNDATASIZE PUSH1 0x0 REVERT JUMPDEST RETURNDATASIZE PUSH1 0x1 EQ ISZERO PC PUSH1 0xA ADD JUMPI PUSH1 0x1 PUSH1 0x0 RETURN JUMPDEST DUP2 MLOAD PUSH1 0x40 DUP4 ADD MLOAD RETURNDATASIZE PUSH1 0x0 DUP6 RETURNDATACOPY DUP12 DUP12 DUP3 PUSH1 0x60 DUP8 ADD CALLER POP PUSH1 0x0 PUSH1 0x4 GAS CALL POP MSIZE PUSH2 0xCE6 DUP14 RETURNDATASIZE PUSH2 0xC49 JUMP JUMPDEST DUP13 ADD PUSH2 0xCF2 DUP2 DUP8 PUSH2 0xC39 JUMP JUMPDEST JUMPDEST DUP3 DUP2 LT ISZERO PUSH2 0xD07 JUMPI PUSH1 0x0 DUP2 MSTORE PUSH1 0x20 ADD PUSH2 0xCF3 JUMP JUMPDEST POP SWAP3 SWAP13 POP POP POP POP POP POP POP JUMP JUMPDEST PUSH4 0x3DAA959 MSIZE DUP2 PUSH1 0xE0 SHL DUP2 MSTORE DUP4 PUSH1 0x4 DUP3 ADD MSTORE PUSH1 0x20 DUP2 PUSH1 0x24 DUP4 CALLER PUSH1 0x0 SWAP1 GAS CALL PC PUSH1 0xE ADD JUMPI RETURNDATASIZE PUSH1 0x0 DUP1 RETURNDATACOPY RETURNDATASIZE PUSH1 0x0 REVERT JUMPDEST RETURNDATASIZE PUSH1 0x1 EQ ISZERO PC PUSH1 0xA ADD JUMPI PUSH1 0x1 PUSH1 0x0 RETURN JUMPDEST DUP1 MLOAD PUSH1 0x0 DUP3 MSTORE SWAP4 POP PUSH1 0x20 PUSH2 0xBC0 JUMP JUMPDEST PUSH4 0x22BD64C0 MSIZE DUP2 PUSH1 0xE0 SHL DUP2 MSTORE DUP4 PUSH1 0x4 DUP3 ADD MSTORE DUP5 PUSH1 0x24 DUP3 ADD MSTORE PUSH1 0x0 DUP2 PUSH1 0x44 DUP4 CALLER PUSH1 0x0 SWAP1 GAS CALL PC PUSH1 0xE ADD JUMPI RETURNDATASIZE PUSH1 0x0 DUP1 RETURNDATACOPY RETURNDATASIZE PUSH1 0x0 REVERT JUMPDEST RETURNDATASIZE PUSH1 0x1 EQ ISZERO PC PUSH1 0xA ADD JUMPI PUSH1 0x1 PUSH1 0x0 RETURN JUMPDEST PUSH1 0x0 DUP2 MSTORE PUSH1 0x20 PUSH2 0xBC0 JUMP "
        },
        "gasEstimates": {
          "creation": {
            "codeDepositCost": "700200",
            "executionCost": "infinite",
            "totalCost": "infinite"
          },
          "external": {
            "getInterfaceImplementer(address,bytes32)": "infinite",
            "getManager(address)": "infinite",
            "implementsERC165Interface(address,bytes4)": "infinite",
            "implementsERC165InterfaceNoCache(address,bytes4)": "infinite",
            "interfaceHash(string)": "infinite",
            "setInterfaceImplementer(address,bytes32,address)": "infinite",
            "setManager(address,address)": "infinite",
            "updateERC165Cache(address,bytes4)": "infinite"
          },
          "internal": {
            "isERC165Interface(bytes32)": "33",
            "noThrowCall(address,bytes4)": "infinite"
          }
        },
        "methodIdentifiers": {
          "getInterfaceImplementer(address,bytes32)": "aabbb8ca",
          "getManager(address)": "3d584063",
          "implementsERC165Interface(address,bytes4)": "f712f3e8",
          "implementsERC165InterfaceNoCache(address,bytes4)": "b7056765",
          "interfaceHash(string)": "65ba36c1",
          "setInterfaceImplementer(address,bytes32,address)": "29965a1d",
          "setManager(address,address)": "5df8122f",
          "updateERC165Cache(address,bytes4)": "a41e7d51"
        }
      },
      "storageLayout": {
        "storage": [
          {
            "astId": 34,
            "contract": "contracts/optimistic-ethereum/OVM/predeploys/ERC1820Registry.sol:ERC1820Registry",
            "label": "interfaces",
            "offset": 0,
            "slot": "0",
            "type": "t_mapping(t_address,t_mapping(t_bytes32,t_address))"
          },
          {
            "astId": 38,
            "contract": "contracts/optimistic-ethereum/OVM/predeploys/ERC1820Registry.sol:ERC1820Registry",
            "label": "managers",
            "offset": 0,
            "slot": "1",
            "type": "t_mapping(t_address,t_address)"
          },
          {
            "astId": 44,
            "contract": "contracts/optimistic-ethereum/OVM/predeploys/ERC1820Registry.sol:ERC1820Registry",
            "label": "erc165Cached",
            "offset": 0,
            "slot": "2",
            "type": "t_mapping(t_address,t_mapping(t_bytes4,t_bool))"
          }
        ],
        "types": {
          "t_address": {
            "encoding": "inplace",
            "label": "address",
            "numberOfBytes": "20"
          },
          "t_bool": {
            "encoding": "inplace",
            "label": "bool",
            "numberOfBytes": "1"
          },
          "t_bytes32": {
            "encoding": "inplace",
            "label": "bytes32",
            "numberOfBytes": "32"
          },
          "t_bytes4": {
            "encoding": "inplace",
            "label": "bytes4",
            "numberOfBytes": "4"
          },
          "t_mapping(t_address,t_address)": {
            "encoding": "mapping",
            "key": "t_address",
            "label": "mapping(address => address)",
            "numberOfBytes": "32",
            "value": "t_address"
          },
          "t_mapping(t_address,t_mapping(t_bytes32,t_address))": {
            "encoding": "mapping",
            "key": "t_address",
            "label": "mapping(address => mapping(bytes32 => address))",
            "numberOfBytes": "32",
            "value": "t_mapping(t_bytes32,t_address)"
          },
          "t_mapping(t_address,t_mapping(t_bytes4,t_bool))": {
            "encoding": "mapping",
            "key": "t_address",
            "label": "mapping(address => mapping(bytes4 => bool))",
            "numberOfBytes": "32",
            "value": "t_mapping(t_bytes4,t_bool)"
          },
          "t_mapping(t_bytes32,t_address)": {
            "encoding": "mapping",
            "key": "t_bytes32",
            "label": "mapping(bytes32 => address)",
            "numberOfBytes": "32",
            "value": "t_address"
          },
          "t_mapping(t_bytes4,t_bool)": {
            "encoding": "mapping",
            "key": "t_bytes4",
            "label": "mapping(bytes4 => bool)",
            "numberOfBytes": "32",
            "value": "t_bool"
          }
        }
      },
      "userdoc": {
        "events": {
          "InterfaceImplementerSet(address,bytes32,address)": {
            "notice": "Indicates a contract is the 'implementer' of 'interfaceHash' for 'addr'."
          },
          "ManagerChanged(address,address)": {
            "notice": "Indicates 'newManager' is the address of the new manager for 'addr'."
          }
        },
        "kind": "user",
        "methods": {
          "getInterfaceImplementer(address,bytes32)": {
            "notice": "Query if an address implements an interface and through which contract."
          },
          "getManager(address)": {
            "notice": "Get the manager of an address."
          },
          "implementsERC165InterfaceNoCache(address,bytes4)": {
            "notice": "Checks whether a contract implements an ERC165 interface or not without using nor updating the cache."
          },
          "interfaceHash(string)": {
            "notice": "Compute the keccak256 hash of an interface given its name."
          },
          "setInterfaceImplementer(address,bytes32,address)": {
            "notice": "Sets the contract which implements a specific interface for an address. Only the manager defined for that address can set it. (Each address is the manager for itself until it sets a new manager.)"
          },
          "setManager(address,address)": {
            "notice": "Sets '_newManager' as manager for '_addr'. The new manager will be able to call 'setInterfaceImplementer' for '_addr'."
          },
          "updateERC165Cache(address,bytes4)": {
            "notice": "Updates the cache with whether the contract implements an ERC165 interface or not."
          }
        },
        "version": 1
      }
    }
  }
}