{
  "address": "0x3b48597212f2622511585914CC4D4152c9B1B077",
  "abi": [
    {
      "type": "constructor",
      "inputs": [],
      "stateMutability": "nonpayable"
    },
    {
      "type": "function",
      "name": "MESSAGE_VERSION",
      "inputs": [],
      "outputs": [
        {
          "name": "",
          "type": "uint16",
          "internalType": "uint16"
        }
      ],
      "stateMutability": "view"
    },
    {
      "type": "function",
      "name": "MIN_GAS_CALLDATA_OVERHEAD",
      "inputs": [],
      "outputs": [
        {
          "name": "",
          "type": "uint64",
          "internalType": "uint64"
        }
      ],
      "stateMutability": "view"
    },
    {
      "type": "function",
      "name": "MIN_GAS_DYNAMIC_OVERHEAD_DENOMINATOR",
      "inputs": [],
      "outputs": [
        {
          "name": "",
          "type": "uint64",
          "internalType": "uint64"
        }
      ],
      "stateMutability": "view"
    },
    {
      "type": "function",
      "name": "MIN_GAS_DYNAMIC_OVERHEAD_NUMERATOR",
      "inputs": [],
      "outputs": [
        {
          "name": "",
          "type": "uint64",
          "internalType": "uint64"
        }
      ],
      "stateMutability": "view"
    },
    {
      "type": "function",
      "name": "OTHER_MESSENGER",
      "inputs": [],
      "outputs": [
        {
          "name": "",
          "type": "address",
          "internalType": "contract CrossDomainMessenger"
        }
      ],
      "stateMutability": "view"
    },
    {
      "type": "function",
      "name": "PORTAL",
      "inputs": [],
      "outputs": [
        {
          "name": "",
          "type": "address",
          "internalType": "contract OptimismPortal"
        }
      ],
      "stateMutability": "view"
    },
    {
      "type": "function",
      "name": "RELAY_CALL_OVERHEAD",
      "inputs": [],
      "outputs": [
        {
          "name": "",
          "type": "uint64",
          "internalType": "uint64"
        }
      ],
      "stateMutability": "view"
    },
    {
      "type": "function",
      "name": "RELAY_CONSTANT_OVERHEAD",
      "inputs": [],
      "outputs": [
        {
          "name": "",
          "type": "uint64",
          "internalType": "uint64"
        }
      ],
      "stateMutability": "view"
    },
    {
      "type": "function",
      "name": "RELAY_GAS_CHECK_BUFFER",
      "inputs": [],
      "outputs": [
        {
          "name": "",
          "type": "uint64",
          "internalType": "uint64"
        }
      ],
      "stateMutability": "view"
    },
    {
      "type": "function",
      "name": "RELAY_RESERVED_GAS",
      "inputs": [],
      "outputs": [
        {
          "name": "",
          "type": "uint64",
          "internalType": "uint64"
        }
      ],
      "stateMutability": "view"
    },
    {
      "type": "function",
      "name": "baseGas",
      "inputs": [
        {
          "name": "_message",
          "type": "bytes",
          "internalType": "bytes"
        },
        {
          "name": "_minGasLimit",
          "type": "uint32",
          "internalType": "uint32"
        }
      ],
      "outputs": [
        {
          "name": "",
          "type": "uint64",
          "internalType": "uint64"
        }
      ],
      "stateMutability": "pure"
    },
    {
      "type": "function",
      "name": "failedMessages",
      "inputs": [
        {
          "name": "",
          "type": "bytes32",
          "internalType": "bytes32"
        }
      ],
      "outputs": [
        {
          "name": "",
          "type": "bool",
          "internalType": "bool"
        }
      ],
      "stateMutability": "view"
    },
    {
      "type": "function",
      "name": "initialize",
      "inputs": [
        {
          "name": "_superchainConfig",
          "type": "address",
          "internalType": "contract SuperchainConfig"
        },
        {
          "name": "_portal",
          "type": "address",
          "internalType": "contract OptimismPortal"
        }
      ],
      "outputs": [],
      "stateMutability": "nonpayable"
    },
    {
      "type": "function",
      "name": "messageNonce",
      "inputs": [],
      "outputs": [
        {
          "name": "",
          "type": "uint256",
          "internalType": "uint256"
        }
      ],
      "stateMutability": "view"
    },
    {
      "type": "function",
      "name": "otherMessenger",
      "inputs": [],
      "outputs": [
        {
          "name": "",
          "type": "address",
          "internalType": "contract CrossDomainMessenger"
        }
      ],
      "stateMutability": "view"
    },
    {
      "type": "function",
      "name": "paused",
      "inputs": [],
      "outputs": [
        {
          "name": "",
          "type": "bool",
          "internalType": "bool"
        }
      ],
      "stateMutability": "view"
    },
    {
      "type": "function",
      "name": "portal",
      "inputs": [],
      "outputs": [
        {
          "name": "",
          "type": "address",
          "internalType": "contract OptimismPortal"
        }
      ],
      "stateMutability": "view"
    },
    {
      "type": "function",
      "name": "relayMessage",
      "inputs": [
        {
          "name": "_nonce",
          "type": "uint256",
          "internalType": "uint256"
        },
        {
          "name": "_sender",
          "type": "address",
          "internalType": "address"
        },
        {
          "name": "_target",
          "type": "address",
          "internalType": "address"
        },
        {
          "name": "_value",
          "type": "uint256",
          "internalType": "uint256"
        },
        {
          "name": "_minGasLimit",
          "type": "uint256",
          "internalType": "uint256"
        },
        {
          "name": "_message",
          "type": "bytes",
          "internalType": "bytes"
        }
      ],
      "outputs": [],
      "stateMutability": "payable"
    },
    {
      "type": "function",
      "name": "sendMessage",
      "inputs": [
        {
          "name": "_target",
          "type": "address",
          "internalType": "address"
        },
        {
          "name": "_message",
          "type": "bytes",
          "internalType": "bytes"
        },
        {
          "name": "_minGasLimit",
          "type": "uint32",
          "internalType": "uint32"
        }
      ],
      "outputs": [],
      "stateMutability": "payable"
    },
    {
      "type": "function",
      "name": "successfulMessages",
      "inputs": [
        {
          "name": "",
          "type": "bytes32",
          "internalType": "bytes32"
        }
      ],
      "outputs": [
        {
          "name": "",
          "type": "bool",
          "internalType": "bool"
        }
      ],
      "stateMutability": "view"
    },
    {
      "type": "function",
      "name": "superchainConfig",
      "inputs": [],
      "outputs": [
        {
          "name": "",
          "type": "address",
          "internalType": "contract SuperchainConfig"
        }
      ],
      "stateMutability": "view"
    },
    {
      "type": "function",
      "name": "version",
      "inputs": [],
      "outputs": [
        {
          "name": "",
          "type": "string",
          "internalType": "string"
        }
      ],
      "stateMutability": "view"
    },
    {
      "type": "function",
      "name": "xDomainMessageSender",
      "inputs": [],
      "outputs": [
        {
          "name": "",
          "type": "address",
          "internalType": "address"
        }
      ],
      "stateMutability": "view"
    },
    {
      "type": "event",
      "name": "FailedRelayedMessage",
      "inputs": [
        {
          "name": "msgHash",
          "type": "bytes32",
          "indexed": true,
          "internalType": "bytes32"
        }
      ],
      "anonymous": false
    },
    {
      "type": "event",
      "name": "Initialized",
      "inputs": [
        {
          "name": "version",
          "type": "uint8",
          "indexed": false,
          "internalType": "uint8"
        }
      ],
      "anonymous": false
    },
    {
      "type": "event",
      "name": "RelayedMessage",
      "inputs": [
        {
          "name": "msgHash",
          "type": "bytes32",
          "indexed": true,
          "internalType": "bytes32"
        }
      ],
      "anonymous": false
    },
    {
      "type": "event",
      "name": "SentMessage",
      "inputs": [
        {
          "name": "target",
          "type": "address",
          "indexed": true,
          "internalType": "address"
        },
        {
          "name": "sender",
          "type": "address",
          "indexed": false,
          "internalType": "address"
        },
        {
          "name": "message",
          "type": "bytes",
          "indexed": false,
          "internalType": "bytes"
        },
        {
          "name": "messageNonce",
          "type": "uint256",
          "indexed": false,
          "internalType": "uint256"
        },
        {
          "name": "gasLimit",
          "type": "uint256",
          "indexed": false,
          "internalType": "uint256"
        }
      ],
      "anonymous": false
    },
    {
      "type": "event",
      "name": "SentMessageExtension1",
      "inputs": [
        {
          "name": "sender",
          "type": "address",
          "indexed": true,
          "internalType": "address"
        },
        {
          "name": "value",
          "type": "uint256",
          "indexed": false,
          "internalType": "uint256"
        }
      ],
      "anonymous": false
    }
  ],
  "transactionHash": "0x3967fbff085f45e435fd4c182394af22b836d6e7ffeb2ba7a10b3d20dc44e115",
  "args": [],
  "numDeployments": 1,
  "bytecode": "0x60806040523480156200001157600080fd5b506200001f60008062000025565b62000230565b600054600390600160a81b900460ff1615801562000051575060005460ff808316600160a01b90920416105b620000ba5760405162461bcd60e51b815260206004820152602e60248201527f496e697469616c697a61626c653a20636f6e747261637420697320616c72656160448201526d191e481a5b9a5d1a585b1a5e995960921b60648201526084015b60405180910390fd5b6000805460ff60a81b1960ff8416600160a01b021661ffff60a01b1990911617600160a81b17905560fb80546001600160a01b038086166001600160a01b03199283161790925560fc8054928516929091169190911790556200013173420000000000000000000000000000000000000762000179565b6000805460ff60a81b1916905560405160ff821681527f7f26b83ff96e1f2b6a682f133852f6798a09c465da95921460cefb38474024989060200160405180910390a1505050565b600054600160a81b900460ff16620001e85760405162461bcd60e51b815260206004820152602b60248201527f496e697469616c697a61626c653a20636f6e7472616374206973206e6f74206960448201526a6e697469616c697a696e6760a81b6064820152608401620000b1565b60cc546001600160a01b03166200020e5760cc80546001600160a01b03191661dead1790555b60cf80546001600160a01b0319166001600160a01b0392909216919091179055565b611f3e80620002406000396000f3fe6080604052600436106101805760003560e01c80635c975abb116100d6578063a4e7f8bd1161007f578063d764ad0b11610059578063d764ad0b14610463578063db505d8014610476578063ecc70428146104a357600080fd5b8063a4e7f8bd146103e3578063b1b1b20914610413578063b28ade251461044357600080fd5b806383a74074116100b057806383a74074146103a15780638cbeeef2146102b85780639fce812c146103b857600080fd5b80635c975abb1461033a5780636425666b1461035f5780636e296e451461038c57600080fd5b80633dbb202b116101385780634c1d6a69116101125780634c1d6a69146102b857806354fd4d50146102ce5780635644cfdf1461032457600080fd5b80633dbb202b1461025b5780633f827a5a14610270578063485cc9551461029857600080fd5b80630ff754ea116101695780630ff754ea146101cd5780632828d7e81461021957806335e80ab31461022e57600080fd5b8063028f85f7146101855780630c568498146101b8575b600080fd5b34801561019157600080fd5b5061019a601081565b60405167ffffffffffffffff90911681526020015b60405180910390f35b3480156101c457600080fd5b5061019a603f81565b3480156101d957600080fd5b5060fc5473ffffffffffffffffffffffffffffffffffffffff165b60405173ffffffffffffffffffffffffffffffffffffffff90911681526020016101af565b34801561022557600080fd5b5061019a604081565b34801561023a57600080fd5b5060fb546101f49073ffffffffffffffffffffffffffffffffffffffff1681565b61026e6102693660046119cc565b610508565b005b34801561027c57600080fd5b50610285600181565b60405161ffff90911681526020016101af565b3480156102a457600080fd5b5061026e6102b3366004611a33565b610765565b3480156102c457600080fd5b5061019a619c4081565b3480156102da57600080fd5b506103176040518060400160405280600581526020017f322e332e3000000000000000000000000000000000000000000000000000000081525081565b6040516101af9190611ad7565b34801561033057600080fd5b5061019a61138881565b34801561034657600080fd5b5061034f610999565b60405190151581526020016101af565b34801561036b57600080fd5b5060fc546101f49073ffffffffffffffffffffffffffffffffffffffff1681565b34801561039857600080fd5b506101f4610a32565b3480156103ad57600080fd5b5061019a62030d4081565b3480156103c457600080fd5b5060cf5473ffffffffffffffffffffffffffffffffffffffff166101f4565b3480156103ef57600080fd5b5061034f6103fe366004611af1565b60ce6020526000908152604090205460ff1681565b34801561041f57600080fd5b5061034f61042e366004611af1565b60cb6020526000908152604090205460ff1681565b34801561044f57600080fd5b5061019a61045e366004611b0a565b610b19565b61026e610471366004611b5e565b610b87565b34801561048257600080fd5b5060cf546101f49073ffffffffffffffffffffffffffffffffffffffff1681565b3480156104af57600080fd5b506104fa60cd547dffffffffffffffffffffffffffffffffffffffffffffffffffffffffffff167e010000000000000000000000000000000000000000000000000000000000001790565b6040519081526020016101af565b60cf5461063a9073ffffffffffffffffffffffffffffffffffffffff16610530858585610b19565b347fd764ad0b0000000000000000000000000000000000000000000000000000000061059c60cd547dffffffffffffffffffffffffffffffffffffffffffffffffffffffffffff167e010000000000000000000000000000000000000000000000000000000000001790565b338a34898c8c6040516024016105b89796959493929190611c2d565b604080517fffffffffffffffffffffffffffffffffffffffffffffffffffffffffffffffe08184030181529190526020810180517bffffffffffffffffffffffffffffffffffffffffffffffffffffffff167fffffffff000000000000000000000000000000000000000000000000000000009093169290921790915261149c565b8373ffffffffffffffffffffffffffffffffffffffff167fcb0f7ffd78f9aee47a248fae8db181db6eee833039123e026dcbff529522e52a3385856106bf60cd547dffffffffffffffffffffffffffffffffffffffffffffffffffffffffffff167e010000000000000000000000000000000000000000000000000000000000001790565b866040516106d1959493929190611c8c565b60405180910390a260405134815233907f8ebb2ec2465bdb2a06a66fc37a0963af8a2a6a1479d81d56fdb8cbb98096d5469060200160405180910390a2505060cd80547dffffffffffffffffffffffffffffffffffffffffffffffffffffffffffff808216600101167fffff0000000000000000000000000000000000000000000000000000000000009091161790555050565b6000546003907501000000000000000000000000000000000000000000900460ff161580156107b3575060005460ff8083167401000000000000000000000000000000000000000090920416105b610844576040517f08c379a000000000000000000000000000000000000000000000000000000000815260206004820152602e60248201527f496e697469616c697a61626c653a20636f6e747261637420697320616c72656160448201527f647920696e697469616c697a656400000000000000000000000000000000000060648201526084015b60405180910390fd5b600080547fffffffffffffffffffff00ffffffffffffffffffffffffffffffffffffffffff60ff84167401000000000000000000000000000000000000000002167fffffffffffffffffffff0000ffffffffffffffffffffffffffffffffffffffff90911617750100000000000000000000000000000000000000000017905560fb805473ffffffffffffffffffffffffffffffffffffffff8086167fffffffffffffffffffffffff00000000000000000000000000000000000000009283161790925560fc805492851692909116919091179055610936734200000000000000000000000000000000000007611535565b600080547fffffffffffffffffffff00ffffffffffffffffffffffffffffffffffffffffff16905560405160ff821681527f7f26b83ff96e1f2b6a682f133852f6798a09c465da95921460cefb38474024989060200160405180910390a1505050565b60fb54604080517f5c975abb000000000000000000000000000000000000000000000000000000008152905160009273ffffffffffffffffffffffffffffffffffffffff1691635c975abb9160048083019260209291908290030181865afa158015610a09573d6000803e3d6000fd5b505050506040513d601f19601f82011682018060405250810190610a2d9190611cda565b905090565b60cc5460009073ffffffffffffffffffffffffffffffffffffffff167fffffffffffffffffffffffffffffffffffffffffffffffffffffffffffff215301610afc576040517f08c379a000000000000000000000000000000000000000000000000000000000815260206004820152603560248201527f43726f7373446f6d61696e4d657373656e6765723a2078446f6d61696e4d657360448201527f7361676553656e646572206973206e6f74207365740000000000000000000000606482015260840161083b565b5060cc5473ffffffffffffffffffffffffffffffffffffffff1690565b6000611388619c4080603f610b35604063ffffffff8816611d2b565b610b3f9190611d5b565b610b4a601088611d2b565b610b579062030d40611da9565b610b619190611da9565b610b6b9190611da9565b610b759190611da9565b610b7f9190611da9565b949350505050565b610b8f610999565b15610bf6576040517f08c379a000000000000000000000000000000000000000000000000000000000815260206004820152601c60248201527f43726f7373446f6d61696e4d657373656e6765723a2070617573656400000000604482015260640161083b565b60f087901c60028110610cb1576040517f08c379a000000000000000000000000000000000000000000000000000000000815260206004820152604d60248201527f43726f7373446f6d61696e4d657373656e6765723a206f6e6c7920766572736960448201527f6f6e2030206f722031206d657373616765732061726520737570706f7274656460648201527f20617420746869732074696d6500000000000000000000000000000000000000608482015260a40161083b565b8061ffff16600003610da6576000610d02878986868080601f0160208091040260200160405190810160405280939291908181526020018383808284376000920191909152508f9250611671915050565b600081815260cb602052604090205490915060ff1615610da4576040517f08c379a000000000000000000000000000000000000000000000000000000000815260206004820152603760248201527f43726f7373446f6d61696e4d657373656e6765723a206c65676163792077697460448201527f6864726177616c20616c72656164792072656c61796564000000000000000000606482015260840161083b565b505b6000610dec898989898989898080601f01602080910402602001604051908101604052809392919081815260200183838082843760009201919091525061169092505050565b9050610df66116b3565b15610e2e57853414610e0a57610e0a611dd5565b600081815260ce602052604090205460ff1615610e2957610e29611dd5565b610f80565b3415610ee2576040517f08c379a000000000000000000000000000000000000000000000000000000000815260206004820152605060248201527f43726f7373446f6d61696e4d657373656e6765723a2076616c7565206d75737460448201527f206265207a65726f20756e6c657373206d6573736167652069732066726f6d2060648201527f612073797374656d206164647265737300000000000000000000000000000000608482015260a40161083b565b600081815260ce602052604090205460ff16610f80576040517f08c379a000000000000000000000000000000000000000000000000000000000815260206004820152603060248201527f43726f7373446f6d61696e4d657373656e6765723a206d65737361676520636160448201527f6e6e6f74206265207265706c6179656400000000000000000000000000000000606482015260840161083b565b610f898761178f565b1561103c576040517f08c379a000000000000000000000000000000000000000000000000000000000815260206004820152604360248201527f43726f7373446f6d61696e4d657373656e6765723a2063616e6e6f742073656e60448201527f64206d65737361676520746f20626c6f636b65642073797374656d206164647260648201527f6573730000000000000000000000000000000000000000000000000000000000608482015260a40161083b565b600081815260cb602052604090205460ff16156110db576040517f08c379a000000000000000000000000000000000000000000000000000000000815260206004820152603660248201527f43726f7373446f6d61696e4d657373656e6765723a206d65737361676520686160448201527f7320616c7265616479206265656e2072656c6179656400000000000000000000606482015260840161083b565b6110fc856110ed611388619c40611da9565b67ffffffffffffffff166117d5565b1580611122575060cc5473ffffffffffffffffffffffffffffffffffffffff1661dead14155b1561123b57600081815260ce602052604080822080547fffffffffffffffffffffffffffffffffffffffffffffffffffffffffffffff001660011790555182917f99d0e048484baa1b1540b1367cb128acd7ab2946d1ed91ec10e3c85e4bf51b8f91a27fffffffffffffffffffffffffffffffffffffffffffffffffffffffffffffffff3201611234576040517f08c379a000000000000000000000000000000000000000000000000000000000815260206004820152602d60248201527f43726f7373446f6d61696e4d657373656e6765723a206661696c656420746f2060448201527f72656c6179206d65737361676500000000000000000000000000000000000000606482015260840161083b565b5050611493565b60cc80547fffffffffffffffffffffffff00000000000000000000000000000000000000001673ffffffffffffffffffffffffffffffffffffffff8a1617905560006112cc88619c405a61128f9190611e04565b8988888080601f0160208091040260200160405190810160405280939291908181526020018383808284376000920191909152506117f392505050565b60cc80547fffffffffffffffffffffffff00000000000000000000000000000000000000001661dead1790559050801561138257600082815260cb602052604090205460ff161561131f5761131f611dd5565b600082815260cb602052604080822080547fffffffffffffffffffffffffffffffffffffffffffffffffffffffffffffff001660011790555183917f4641df4a962071e12719d8c8c8e5ac7fc4d97b927346a3d7a335b1f7517e133c91a261148f565b600082815260ce602052604080822080547fffffffffffffffffffffffffffffffffffffffffffffffffffffffffffffff001660011790555183917f99d0e048484baa1b1540b1367cb128acd7ab2946d1ed91ec10e3c85e4bf51b8f91a27fffffffffffffffffffffffffffffffffffffffffffffffffffffffffffffffff320161148f576040517f08c379a000000000000000000000000000000000000000000000000000000000815260206004820152602d60248201527f43726f7373446f6d61696e4d657373656e6765723a206661696c656420746f2060448201527f72656c6179206d65737361676500000000000000000000000000000000000000606482015260840161083b565b5050505b50505050505050565b60fc546040517fe9e05c4200000000000000000000000000000000000000000000000000000000815273ffffffffffffffffffffffffffffffffffffffff9091169063e9e05c429084906114fd908890839089906000908990600401611e1b565b6000604051808303818588803b15801561151657600080fd5b505af115801561152a573d6000803e3d6000fd5b505050505050505050565b6000547501000000000000000000000000000000000000000000900460ff166115e0576040517f08c379a000000000000000000000000000000000000000000000000000000000815260206004820152602b60248201527f496e697469616c697a61626c653a20636f6e7472616374206973206e6f74206960448201527f6e697469616c697a696e67000000000000000000000000000000000000000000606482015260840161083b565b60cc5473ffffffffffffffffffffffffffffffffffffffff1661162a5760cc80547fffffffffffffffffffffffff00000000000000000000000000000000000000001661dead1790555b60cf80547fffffffffffffffffffffffff00000000000000000000000000000000000000001673ffffffffffffffffffffffffffffffffffffffff92909216919091179055565b600061167f8585858561180d565b805190602001209050949350505050565b60006116a08787878787876118a6565b8051906020012090509695505050505050565b60fc5460009073ffffffffffffffffffffffffffffffffffffffff1633148015610a2d575060cf5460fc54604080517f9bf62d82000000000000000000000000000000000000000000000000000000008152905173ffffffffffffffffffffffffffffffffffffffff9384169390921691639bf62d82916004808201926020929091908290030181865afa15801561174f573d6000803e3d6000fd5b505050506040513d601f19601f820116820180604052508101906117739190611e73565b73ffffffffffffffffffffffffffffffffffffffff1614905090565b600073ffffffffffffffffffffffffffffffffffffffff82163014806117cf575060fc5473ffffffffffffffffffffffffffffffffffffffff8381169116145b92915050565b600080603f83619c4001026040850201603f5a021015949350505050565b600080600080845160208601878a8af19695505050505050565b6060848484846040516024016118269493929190611e90565b604080517fffffffffffffffffffffffffffffffffffffffffffffffffffffffffffffffe08184030181529190526020810180517bffffffffffffffffffffffffffffffffffffffffffffffffffffffff167fcbd4ece9000000000000000000000000000000000000000000000000000000001790529050949350505050565b60608686868686866040516024016118c396959493929190611eda565b604080517fffffffffffffffffffffffffffffffffffffffffffffffffffffffffffffffe08184030181529190526020810180517bffffffffffffffffffffffffffffffffffffffffffffffffffffffff167fd764ad0b0000000000000000000000000000000000000000000000000000000017905290509695505050505050565b73ffffffffffffffffffffffffffffffffffffffff8116811461196757600080fd5b50565b60008083601f84011261197c57600080fd5b50813567ffffffffffffffff81111561199457600080fd5b6020830191508360208285010111156119ac57600080fd5b9250929050565b803563ffffffff811681146119c757600080fd5b919050565b600080600080606085870312156119e257600080fd5b84356119ed81611945565b9350602085013567ffffffffffffffff811115611a0957600080fd5b611a158782880161196a565b9094509250611a289050604086016119b3565b905092959194509250565b60008060408385031215611a4657600080fd5b8235611a5181611945565b91506020830135611a6181611945565b809150509250929050565b6000815180845260005b81811015611a9257602081850181015186830182015201611a76565b81811115611aa4576000602083870101525b50601f017fffffffffffffffffffffffffffffffffffffffffffffffffffffffffffffffe0169290920160200192915050565b602081526000611aea6020830184611a6c565b9392505050565b600060208284031215611b0357600080fd5b5035919050565b600080600060408486031215611b1f57600080fd5b833567ffffffffffffffff811115611b3657600080fd5b611b428682870161196a565b9094509250611b559050602085016119b3565b90509250925092565b600080600080600080600060c0888a031215611b7957600080fd5b873596506020880135611b8b81611945565b95506040880135611b9b81611945565b9450606088013593506080880135925060a088013567ffffffffffffffff811115611bc557600080fd5b611bd18a828b0161196a565b989b979a50959850939692959293505050565b8183528181602085013750600060208284010152600060207fffffffffffffffffffffffffffffffffffffffffffffffffffffffffffffffe0601f840116840101905092915050565b878152600073ffffffffffffffffffffffffffffffffffffffff808916602084015280881660408401525085606083015263ffffffff8516608083015260c060a0830152611c7f60c083018486611be4565b9998505050505050505050565b73ffffffffffffffffffffffffffffffffffffffff86168152608060208201526000611cbc608083018688611be4565b905083604083015263ffffffff831660608301529695505050505050565b600060208284031215611cec57600080fd5b81518015158114611aea57600080fd5b7f4e487b7100000000000000000000000000000000000000000000000000000000600052601160045260246000fd5b600067ffffffffffffffff80831681851681830481118215151615611d5257611d52611cfc565b02949350505050565b600067ffffffffffffffff80841680611d9d577f4e487b7100000000000000000000000000000000000000000000000000000000600052601260045260246000fd5b92169190910492915050565b600067ffffffffffffffff808316818516808303821115611dcc57611dcc611cfc565b01949350505050565b7f4e487b7100000000000000000000000000000000000000000000000000000000600052600160045260246000fd5b600082821015611e1657611e16611cfc565b500390565b73ffffffffffffffffffffffffffffffffffffffff8616815284602082015267ffffffffffffffff84166040820152821515606082015260a060808201526000611e6860a0830184611a6c565b979650505050505050565b600060208284031215611e8557600080fd5b8151611aea81611945565b600073ffffffffffffffffffffffffffffffffffffffff808716835280861660208401525060806040830152611ec96080830185611a6c565b905082606083015295945050505050565b868152600073ffffffffffffffffffffffffffffffffffffffff808816602084015280871660408401525084606083015283608083015260c060a0830152611f2560c0830184611a6c565b9897505050505050505056fea164736f6c634300080f000a"
}