{"abi":[{"type":"constructor","inputs":[],"stateMutability":"nonpayable"},{"type":"function","name":"DOMAIN_SEPARATOR","inputs":[],"outputs":[{"name":"","type":"bytes32","internalType":"bytes32"}],"stateMutability":"view"},{"type":"function","name":"allowance","inputs":[{"name":"owner","type":"address","internalType":"address"},{"name":"spender","type":"address","internalType":"address"}],"outputs":[{"name":"","type":"uint256","internalType":"uint256"}],"stateMutability":"view"},{"type":"function","name":"approve","inputs":[{"name":"spender","type":"address","internalType":"address"},{"name":"amount","type":"uint256","internalType":"uint256"}],"outputs":[{"name":"","type":"bool","internalType":"bool"}],"stateMutability":"nonpayable"},{"type":"function","name":"balanceOf","inputs":[{"name":"account","type":"address","internalType":"address"}],"outputs":[{"name":"","type":"uint256","internalType":"uint256"}],"stateMutability":"view"},{"type":"function","name":"burn","inputs":[{"name":"amount","type":"uint256","internalType":"uint256"}],"outputs":[],"stateMutability":"nonpayable"},{"type":"function","name":"burnFrom","inputs":[{"name":"account","type":"address","internalType":"address"},{"name":"amount","type":"uint256","internalType":"uint256"}],"outputs":[],"stateMutability":"nonpayable"},{"type":"function","name":"checkpoints","inputs":[{"name":"account","type":"address","internalType":"address"},{"name":"pos","type":"uint32","internalType":"uint32"}],"outputs":[{"name":"","type":"tuple","internalType":"struct ERC20Votes.Checkpoint","components":[{"name":"fromBlock","type":"uint32","internalType":"uint32"},{"name":"votes","type":"uint224","internalType":"uint224"}]}],"stateMutability":"view"},{"type":"function","name":"decimals","inputs":[],"outputs":[{"name":"","type":"uint8","internalType":"uint8"}],"stateMutability":"view"},{"type":"function","name":"decreaseAllowance","inputs":[{"name":"spender","type":"address","internalType":"address"},{"name":"subtractedValue","type":"uint256","internalType":"uint256"}],"outputs":[{"name":"","type":"bool","internalType":"bool"}],"stateMutability":"nonpayable"},{"type":"function","name":"delegate","inputs":[{"name":"delegatee","type":"address","internalType":"address"}],"outputs":[],"stateMutability":"nonpayable"},{"type":"function","name":"delegateBySig","inputs":[{"name":"delegatee","type":"address","internalType":"address"},{"name":"nonce","type":"uint256","internalType":"uint256"},{"name":"expiry","type":"uint256","internalType":"uint256"},{"name":"v","type":"uint8","internalType":"uint8"},{"name":"r","type":"bytes32","internalType":"bytes32"},{"name":"s","type":"bytes32","internalType":"bytes32"}],"outputs":[],"stateMutability":"nonpayable"},{"type":"function","name":"delegates","inputs":[{"name":"account","type":"address","internalType":"address"}],"outputs":[{"name":"","type":"address","internalType":"address"}],"stateMutability":"view"},{"type":"function","name":"getCurrentVotes","inputs":[{"name":"account","type":"address","internalType":"address"}],"outputs":[{"name":"","type":"uint96","internalType":"uint96"}],"stateMutability":"view"},{"type":"function","name":"getPastTotalSupply","inputs":[{"name":"blockNumber","type":"uint256","internalType":"uint256"}],"outputs":[{"name":"","type":"uint256","internalType":"uint256"}],"stateMutability":"view"},{"type":"function","name":"getPastVotes","inputs":[{"name":"account","type":"address","internalType":"address"},{"name":"blockNumber","type":"uint256","internalType":"uint256"}],"outputs":[{"name":"","type":"uint256","internalType":"uint256"}],"stateMutability":"view"},{"type":"function","name":"getPriorVotes","inputs":[{"name":"account","type":"address","internalType":"address"},{"name":"blockNumber","type":"uint256","internalType":"uint256"}],"outputs":[{"name":"","type":"uint96","internalType":"uint96"}],"stateMutability":"view"},{"type":"function","name":"getVotes","inputs":[{"name":"account","type":"address","internalType":"address"}],"outputs":[{"name":"","type":"uint256","internalType":"uint256"}],"stateMutability":"view"},{"type":"function","name":"increaseAllowance","inputs":[{"name":"spender","type":"address","internalType":"address"},{"name":"addedValue","type":"uint256","internalType":"uint256"}],"outputs":[{"name":"","type":"bool","internalType":"bool"}],"stateMutability":"nonpayable"},{"type":"function","name":"maxSupply","inputs":[],"outputs":[{"name":"","type":"uint224","internalType":"uint224"}],"stateMutability":"view"},{"type":"function","name":"name","inputs":[],"outputs":[{"name":"","type":"string","internalType":"string"}],"stateMutability":"view"},{"type":"function","name":"nonces","inputs":[{"name":"owner","type":"address","internalType":"address"}],"outputs":[{"name":"","type":"uint256","internalType":"uint256"}],"stateMutability":"view"},{"type":"function","name":"numCheckpoints","inputs":[{"name":"account","type":"address","internalType":"address"}],"outputs":[{"name":"","type":"uint32","internalType":"uint32"}],"stateMutability":"view"},{"type":"function","name":"permit","inputs":[{"name":"owner","type":"address","internalType":"address"},{"name":"spender","type":"address","internalType":"address"},{"name":"value","type":"uint256","internalType":"uint256"},{"name":"deadline","type":"uint256","internalType":"uint256"},{"name":"v","type":"uint8","internalType":"uint8"},{"name":"r","type":"bytes32","internalType":"bytes32"},{"name":"s","type":"bytes32","internalType":"bytes32"}],"outputs":[],"stateMutability":"nonpayable"},{"type":"function","name":"symbol","inputs":[],"outputs":[{"name":"","type":"string","internalType":"string"}],"stateMutability":"view"},{"type":"function","name":"totalSupply","inputs":[],"outputs":[{"name":"","type":"uint256","internalType":"uint256"}],"stateMutability":"view"},{"type":"function","name":"transfer","inputs":[{"name":"to","type":"address","internalType":"address"},{"name":"amount","type":"uint256","internalType":"uint256"}],"outputs":[{"name":"","type":"bool","internalType":"bool"}],"stateMutability":"nonpayable"},{"type":"function","name":"transferFrom","inputs":[{"name":"from","type":"address","internalType":"address"},{"name":"to","type":"address","internalType":"address"},{"name":"amount","type":"uint256","internalType":"uint256"}],"outputs":[{"name":"","type":"bool","internalType":"bool"}],"stateMutability":"nonpayable"},{"type":"event","name":"Approval","inputs":[{"name":"owner","type":"address","indexed":true,"internalType":"address"},{"name":"spender","type":"address","indexed":true,"internalType":"address"},{"name":"value","type":"uint256","indexed":false,"internalType":"uint256"}],"anonymous":false},{"type":"event","name":"DelegateChanged","inputs":[{"name":"delegator","type":"address","indexed":true,"internalType":"address"},{"name":"fromDelegate","type":"address","indexed":true,"internalType":"address"},{"name":"toDelegate","type":"address","indexed":true,"internalType":"address"}],"anonymous":false},{"type":"event","name":"DelegateVotesChanged","inputs":[{"name":"delegate","type":"address","indexed":true,"internalType":"address"},{"name":"previousBalance","type":"uint256","indexed":false,"internalType":"uint256"},{"name":"newBalance","type":"uint256","indexed":false,"internalType":"uint256"}],"anonymous":false},{"type":"event","name":"Transfer","inputs":[{"name":"from","type":"address","indexed":true,"internalType":"address"},{"name":"to","type":"address","indexed":true,"internalType":"address"},{"name":"value","type":"uint256","indexed":false,"internalType":"uint256"}],"anonymous":false}],"bytecode":{"object":"0x6101406040523480156200001257600080fd5b506040518060400160405280600a8152602001692137b130902a37b5b2b760b11b81525080604051806040016040528060018152602001603160f81b8152506040518060400160405280600a8152602001692137b130902a37b5b2b760b11b81525060405180604001604052806004815260200163424f424160e01b8152508160039081620000a2919062000802565b506004620000b1828262000802565b5050825160209384012082519284019290922060e08390526101008190524660a0818152604080517f8b73c3c69bb8fe3d512ecc4cf759cc79239f7b179b0ffacaa9a75d522b39400f818901819052818301979097526060810194909452608080850193909352308483018190528151808603909301835260c09485019091528151919096012090529290925261012052506200015d9050336b019d971e4fe8401e7400000062000163565b6200092f565b6200017a82826200017e60201b62000d8c1760201c565b5050565b6200019582826200023860201b62000e481760201c565b6b019d971e4fe8401e74000000620001ac60025490565b1115620002195760405162461bcd60e51b815260206004820152603060248201527f4552433230566f7465733a20746f74616c20737570706c79207269736b73206f60448201526f766572666c6f77696e6720766f74657360801b60648201526084015b60405180910390fd5b62000232600962000f706200032760201b17836200033c565b50505050565b6001600160a01b038216620002905760405162461bcd60e51b815260206004820152601f60248201527f45524332303a206d696e7420746f20746865207a65726f206164647265737300604482015260640162000210565b8060026000828254620002a49190620008e4565b90915550506001600160a01b03821660009081526020819052604081208054839290620002d3908490620008e4565b90915550506040518181526001600160a01b038316906000907fddf252ad1be2c89b69c2b068fc378daa952ba7f163c4a11628f55a4df523b3ef9060200160405180910390a36200017a60008383620004f3565b6000620003358284620008e4565b9392505050565b8254600090819080156200038e578562000358600183620008ff565b815481106200036b576200036b62000919565b60009182526020909120015464010000000090046001600160e01b031662000391565b60005b6001600160e01b03169250620003a883858760201c565b9150600081118015620003ec57504386620003c5600184620008ff565b81548110620003d857620003d862000919565b60009182526020909120015463ffffffff16145b15620004605762000408826200050b60201b62000f7c1760201c565b8662000416600184620008ff565b8154811062000429576200042962000919565b9060005260206000200160000160046101000a8154816001600160e01b0302191690836001600160e01b03160217905550620004e5565b85604051806040016040528062000482436200057a60201b6200102e1760201c565b63ffffffff168152602001620004a3856200050b60201b62000f7c1760201c565b6001600160e01b0390811690915282546001810184556000938452602093849020835194909301519091166401000000000263ffffffff909316929092179101555b50935093915050565b505050565b620004ee838383620005e160201b620010c41760201c565b60006001600160e01b03821115620005765760405162461bcd60e51b815260206004820152602760248201527f53616665436173743a2076616c756520646f65736e27742066697420696e20326044820152663234206269747360c81b606482015260840162000210565b5090565b600063ffffffff821115620005765760405162461bcd60e51b815260206004820152602660248201527f53616665436173743a2076616c756520646f65736e27742066697420696e203360448201526532206269747360d01b606482015260840162000210565b620005f9838383620004ee60201b620011031760201c565b6001600160a01b03838116600090815260076020526040808220548584168352912054620004ee92918216911683818314801590620006385750600081115b15620004ee576001600160a01b03831615620006c5576001600160a01b03831660009081526008602090815260408220829162000682919062000750901b6200110817856200033c565b91509150846001600160a01b0316600080516020620030e98339815191528383604051620006ba929190918252602082015260400190565b60405180910390a250505b6001600160a01b03821615620004ee576001600160a01b03821660009081526008602090815260408220829162000709919062000327901b62000f7017856200033c565b91509150836001600160a01b0316600080516020620030e9833981519152838360405162000741929190918252602082015260400190565b60405180910390a25050505050565b6000620003358284620008ff565b634e487b7160e01b600052604160045260246000fd5b600181811c908216806200078957607f821691505b602082108103620007aa57634e487b7160e01b600052602260045260246000fd5b50919050565b601f821115620004ee57600081815260208120601f850160051c81016020861015620007d95750805b601f850160051c820191505b81811015620007fa57828155600101620007e5565b505050505050565b81516001600160401b038111156200081e576200081e6200075e565b62000836816200082f845462000774565b84620007b0565b602080601f8311600181146200086e5760008415620008555750858301515b600019600386901b1c1916600185901b178555620007fa565b600085815260208120601f198616915b828110156200089f578886015182559484019460019091019084016200087e565b5085821015620008be5787850151600019600388901b60f8161c191681555b5050505050600190811b01905550565b634e487b7160e01b600052601160045260246000fd5b60008219821115620008fa57620008fa620008ce565b500190565b600082821015620009145762000914620008ce565b500390565b634e487b7160e01b600052603260045260246000fd5b60805160a05160c05160e051610100516101205161276a6200097f60003960006116e801526000611737015260006117120152600061166b01526000611695015260006116bf015261276a6000f3fe608060405234801561001057600080fd5b50600436106101b95760003560e01c8063782d6fe1116100f9578063a9059cbb11610097578063d505accf11610071578063d505accf14610415578063d5abeb0114610428578063dd62ed3e14610468578063f1127ed8146104ae57600080fd5b8063a9059cbb146103dc578063b4b5ea57146103ef578063c3cda5201461040257600080fd5b80638e539e8c116100d35780638e539e8c1461039b57806395d89b41146103ae5780639ab24eb0146103b6578063a457c2d7146103c957600080fd5b8063782d6fe11461034557806379cc6790146103755780637ecebe001461038857600080fd5b80633950935111610166578063587cde1e11610140578063587cde1e146102765780635c19a95c146102d45780636fcfff45146102e757806370a082311461030f57600080fd5b8063395093511461023b5780633a46b1a81461024e57806342966c681461026157600080fd5b806323b872dd1161019757806323b872dd14610211578063313ce567146102245780633644e5151461023357600080fd5b806306fdde03146101be578063095ea7b3146101dc57806318160ddd146101ff575b600080fd5b6101c6610500565b6040516101d3919061239d565b60405180910390f35b6101ef6101ea366004612439565b610592565b60405190151581526020016101d3565b6002545b6040519081526020016101d3565b6101ef61021f366004612463565b6105aa565b604051601281526020016101d3565b6102036105ce565b6101ef610249366004612439565b6105dd565b61020361025c366004612439565b610629565b61027461026f36600461249f565b6106cf565b005b6102af6102843660046124b8565b73ffffffffffffffffffffffffffffffffffffffff9081166000908152600760205260409020541690565b60405173ffffffffffffffffffffffffffffffffffffffff90911681526020016101d3565b6102746102e23660046124b8565b6106dc565b6102fa6102f53660046124b8565b6106e6565b60405163ffffffff90911681526020016101d3565b61020361031d3660046124b8565b73ffffffffffffffffffffffffffffffffffffffff1660009081526020819052604090205490565b610358610353366004612439565b61071b565b6040516bffffffffffffffffffffffff90911681526020016101d3565b610274610383366004612439565b61072f565b6102036103963660046124b8565b610748565b6102036103a936600461249f565b610773565b6101c66107e9565b6102036103c43660046124b8565b6107f8565b6101ef6103d7366004612439565b6108c3565b6101ef6103ea366004612439565b610994565b6103586103fd3660046124b8565b6109a2565b6102746104103660046124e4565b6109b0565b61027461042336600461253c565b610b27565b61043b6b019d971e4fe8401e7400000081565b6040517bffffffffffffffffffffffffffffffffffffffffffffffffffffffff90911681526020016101d3565b6102036104763660046125a6565b73ffffffffffffffffffffffffffffffffffffffff918216600090815260016020908152604080832093909416825291909152205490565b6104c16104bc3660046125d9565b610ce6565b60408051825163ffffffff1681526020928301517bffffffffffffffffffffffffffffffffffffffffffffffffffffffff1692810192909252016101d3565b60606003805461050f90612619565b80601f016020809104026020016040519081016040528092919081815260200182805461053b90612619565b80156105885780601f1061055d57610100808354040283529160200191610588565b820191906000526020600020905b81548152906001019060200180831161056b57829003601f168201915b5050505050905090565b6000336105a0818585611114565b5060019392505050565b6000336105b88582856112c7565b6105c3858585611398565b506001949350505050565b60006105d8611651565b905090565b33600081815260016020908152604080832073ffffffffffffffffffffffffffffffffffffffff871684529091528120549091906105a09082908690610624908790612695565b611114565b6000438210610699576040517f08c379a000000000000000000000000000000000000000000000000000000000815260206004820152601f60248201527f4552433230566f7465733a20626c6f636b206e6f7420796574206d696e65640060448201526064015b60405180910390fd5b73ffffffffffffffffffffffffffffffffffffffff831660009081526008602052604090206106c89083611785565b9392505050565b6106d9338261186c565b50565b6106d93382611876565b73ffffffffffffffffffffffffffffffffffffffff81166000908152600860205260408120546107159061102e565b92915050565b60006106c861072a8484610629565b611914565b61073a8233836112c7565b610744828261186c565b5050565b73ffffffffffffffffffffffffffffffffffffffff8116600090815260056020526040812054610715565b60004382106107de576040517f08c379a000000000000000000000000000000000000000000000000000000000815260206004820152601f60248201527f4552433230566f7465733a20626c6f636b206e6f7420796574206d696e6564006044820152606401610690565b610715600983611785565b60606004805461050f90612619565b73ffffffffffffffffffffffffffffffffffffffff8116600090815260086020526040812054801561089b5773ffffffffffffffffffffffffffffffffffffffff831660009081526008602052604090206108546001836126ad565b81548110610864576108646126c4565b60009182526020909120015464010000000090047bffffffffffffffffffffffffffffffffffffffffffffffffffffffff1661089e565b60005b7bffffffffffffffffffffffffffffffffffffffffffffffffffffffff169392505050565b33600081815260016020908152604080832073ffffffffffffffffffffffffffffffffffffffff8716845290915281205490919083811015610987576040517f08c379a000000000000000000000000000000000000000000000000000000000815260206004820152602560248201527f45524332303a2064656372656173656420616c6c6f77616e63652062656c6f7760448201527f207a65726f0000000000000000000000000000000000000000000000000000006064820152608401610690565b6105c38286868403611114565b6000336105a0818585611398565b600061071561072a836107f8565b83421115610a1a576040517f08c379a000000000000000000000000000000000000000000000000000000000815260206004820152601d60248201527f4552433230566f7465733a207369676e617475726520657870697265640000006044820152606401610690565b604080517fe48329057bfd03d55e49b547132e39cffd9c1820ad7b9d4c5307691425d15adf602082015273ffffffffffffffffffffffffffffffffffffffff8816918101919091526060810186905260808101859052600090610aa190610a999060a001604051602081830303815290604052805190602001206119b2565b858585611a1b565b9050610aac81611a43565b8614610b14576040517f08c379a000000000000000000000000000000000000000000000000000000000815260206004820152601960248201527f4552433230566f7465733a20696e76616c6964206e6f6e6365000000000000006044820152606401610690565b610b1e8188611876565b50505050505050565b83421115610b91576040517f08c379a000000000000000000000000000000000000000000000000000000000815260206004820152601d60248201527f45524332305065726d69743a206578706972656420646561646c696e650000006044820152606401610690565b60007f6e71edae12b1b97f4d1f60370fef10105fa2faae0126114a169c64845d6126c9888888610bc08c611a43565b60408051602081019690965273ffffffffffffffffffffffffffffffffffffffff94851690860152929091166060840152608083015260a082015260c0810186905260e0016040516020818303038152906040528051906020012090506000610c28826119b2565b90506000610c3882878787611a1b565b90508973ffffffffffffffffffffffffffffffffffffffff168173ffffffffffffffffffffffffffffffffffffffff1614610ccf576040517f08c379a000000000000000000000000000000000000000000000000000000000815260206004820152601e60248201527f45524332305065726d69743a20696e76616c6964207369676e617475726500006044820152606401610690565b610cda8a8a8a611114565b50505050505050505050565b604080518082019091526000808252602082015273ffffffffffffffffffffffffffffffffffffffff83166000908152600860205260409020805463ffffffff8416908110610d3757610d376126c4565b60009182526020918290206040805180820190915291015463ffffffff8116825264010000000090047bffffffffffffffffffffffffffffffffffffffffffffffffffffffff16918101919091529392505050565b610d968282610e48565b6002546b019d971e4fe8401e740000001015610e34576040517f08c379a000000000000000000000000000000000000000000000000000000000815260206004820152603060248201527f4552433230566f7465733a20746f74616c20737570706c79207269736b73206f60448201527f766572666c6f77696e6720766f746573000000000000000000000000000000006064820152608401610690565b610e426009610f7083611a78565b50505050565b73ffffffffffffffffffffffffffffffffffffffff8216610ec5576040517f08c379a000000000000000000000000000000000000000000000000000000000815260206004820152601f60248201527f45524332303a206d696e7420746f20746865207a65726f2061646472657373006044820152606401610690565b8060026000828254610ed79190612695565b909155505073ffffffffffffffffffffffffffffffffffffffff821660009081526020819052604081208054839290610f11908490612695565b909155505060405181815273ffffffffffffffffffffffffffffffffffffffff8316906000907fddf252ad1be2c89b69c2b068fc378daa952ba7f163c4a11628f55a4df523b3ef9060200160405180910390a361074460008383611c5a565b60006106c88284612695565b60007bffffffffffffffffffffffffffffffffffffffffffffffffffffffff82111561102a576040517f08c379a000000000000000000000000000000000000000000000000000000000815260206004820152602760248201527f53616665436173743a2076616c756520646f65736e27742066697420696e203260448201527f32342062697473000000000000000000000000000000000000000000000000006064820152608401610690565b5090565b600063ffffffff82111561102a576040517f08c379a000000000000000000000000000000000000000000000000000000000815260206004820152602660248201527f53616665436173743a2076616c756520646f65736e27742066697420696e203360448201527f32206269747300000000000000000000000000000000000000000000000000006064820152608401610690565b73ffffffffffffffffffffffffffffffffffffffff83811660009081526007602052604080822054858416835291205461110392918216911683611c65565b505050565b60006106c882846126ad565b73ffffffffffffffffffffffffffffffffffffffff83166111b6576040517f08c379a0000000000000000000000000000000000000000000000000000000008152602060048201526024808201527f45524332303a20617070726f76652066726f6d20746865207a65726f2061646460448201527f72657373000000000000000000000000000000000000000000000000000000006064820152608401610690565b73ffffffffffffffffffffffffffffffffffffffff8216611259576040517f08c379a000000000000000000000000000000000000000000000000000000000815260206004820152602260248201527f45524332303a20617070726f766520746f20746865207a65726f20616464726560448201527f73730000000000000000000000000000000000000000000000000000000000006064820152608401610690565b73ffffffffffffffffffffffffffffffffffffffff83811660008181526001602090815260408083209487168084529482529182902085905590518481527f8c5be1e5ebec7d5bd14f71427d1e84f3dd0314c0f7b2291e5b200ac8c7c3b925910160405180910390a3505050565b73ffffffffffffffffffffffffffffffffffffffff8381166000908152600160209081526040808320938616835292905220547fffffffffffffffffffffffffffffffffffffffffffffffffffffffffffffffff8114610e42578181101561138b576040517f08c379a000000000000000000000000000000000000000000000000000000000815260206004820152601d60248201527f45524332303a20696e73756666696369656e7420616c6c6f77616e63650000006044820152606401610690565b610e428484848403611114565b73ffffffffffffffffffffffffffffffffffffffff831661143b576040517f08c379a000000000000000000000000000000000000000000000000000000000815260206004820152602560248201527f45524332303a207472616e736665722066726f6d20746865207a65726f20616460448201527f64726573730000000000000000000000000000000000000000000000000000006064820152608401610690565b73ffffffffffffffffffffffffffffffffffffffff82166114de576040517f08c379a000000000000000000000000000000000000000000000000000000000815260206004820152602360248201527f45524332303a207472616e7366657220746f20746865207a65726f206164647260448201527f65737300000000000000000000000000000000000000000000000000000000006064820152608401610690565b73ffffffffffffffffffffffffffffffffffffffff831660009081526020819052604090205481811015611594576040517f08c379a000000000000000000000000000000000000000000000000000000000815260206004820152602660248201527f45524332303a207472616e7366657220616d6f756e742065786365656473206260448201527f616c616e636500000000000000000000000000000000000000000000000000006064820152608401610690565b73ffffffffffffffffffffffffffffffffffffffff8085166000908152602081905260408082208585039055918516815290812080548492906115d8908490612695565b925050819055508273ffffffffffffffffffffffffffffffffffffffff168473ffffffffffffffffffffffffffffffffffffffff167fddf252ad1be2c89b69c2b068fc378daa952ba7f163c4a11628f55a4df523b3ef8460405161163e91815260200190565b60405180910390a3610e42848484611c5a565b60003073ffffffffffffffffffffffffffffffffffffffff7f0000000000000000000000000000000000000000000000000000000000000000161480156116b757507f000000000000000000000000000000000000000000000000000000000000000046145b156116e157507f000000000000000000000000000000000000000000000000000000000000000090565b50604080517f00000000000000000000000000000000000000000000000000000000000000006020808301919091527f0000000000000000000000000000000000000000000000000000000000000000828401527f000000000000000000000000000000000000000000000000000000000000000060608301524660808301523060a0808401919091528351808403909101815260c0909201909252805191012090565b8154600090815b818110156117e95760006117a08284611e0a565b9050848682815481106117b5576117b56126c4565b60009182526020909120015463ffffffff1611156117d5578092506117e3565b6117e0816001612695565b91505b5061178c565b811561184257846117fb6001846126ad565b8154811061180b5761180b6126c4565b60009182526020909120015464010000000090047bffffffffffffffffffffffffffffffffffffffffffffffffffffffff16611845565b60005b7bffffffffffffffffffffffffffffffffffffffffffffffffffffffff1695945050505050565b6107448282611e25565b73ffffffffffffffffffffffffffffffffffffffff8281166000818152600760208181526040808420805485845282862054949093528787167fffffffffffffffffffffffff00000000000000000000000000000000000000008416811790915590519190951694919391928592917f3134e8a2e6d97e929a7e54011ea5485d7d196dd5f0ba4d4ef95803e8e3fc257f9190a4610e42828483611c65565b60006bffffffffffffffffffffffff82111561102a576040517f08c379a000000000000000000000000000000000000000000000000000000000815260206004820152602660248201527f53616665436173743a2076616c756520646f65736e27742066697420696e203960448201527f36206269747300000000000000000000000000000000000000000000000000006064820152608401610690565b60006107156119bf611651565b836040517f19010000000000000000000000000000000000000000000000000000000000006020820152602281018390526042810182905260009060620160405160208183030381529060405280519060200120905092915050565b6000806000611a2c87878787611e3d565b91509150611a3981611f55565b5095945050505050565b73ffffffffffffffffffffffffffffffffffffffff811660009081526005602052604090208054600181018255905b50919050565b825460009081908015611ad85785611a916001836126ad565b81548110611aa157611aa16126c4565b60009182526020909120015464010000000090047bffffffffffffffffffffffffffffffffffffffffffffffffffffffff16611adb565b60005b7bffffffffffffffffffffffffffffffffffffffffffffffffffffffff169250611b0983858763ffffffff16565b9150600081118015611b4757504386611b236001846126ad565b81548110611b3357611b336126c4565b60009182526020909120015463ffffffff16145b15611bd157611b5582610f7c565b86611b616001846126ad565b81548110611b7157611b716126c4565b9060005260206000200160000160046101000a8154817bffffffffffffffffffffffffffffffffffffffffffffffffffffffff02191690837bffffffffffffffffffffffffffffffffffffffffffffffffffffffff160217905550611c51565b856040518060400160405280611be64361102e565b63ffffffff168152602001611bfa85610f7c565b7bffffffffffffffffffffffffffffffffffffffffffffffffffffffff90811690915282546001810184556000938452602093849020835194909301519091166401000000000263ffffffff909316929092179101555b50935093915050565b6111038383836110c4565b8173ffffffffffffffffffffffffffffffffffffffff168373ffffffffffffffffffffffffffffffffffffffff1614158015611ca15750600081115b156111035773ffffffffffffffffffffffffffffffffffffffff831615611d565773ffffffffffffffffffffffffffffffffffffffff831660009081526008602052604081208190611cf69061110885611a78565b915091508473ffffffffffffffffffffffffffffffffffffffff167fdec2bacdd2f05b59de34da9b523dff8be42e5e38e818c82fdb0bae774387a7248383604051611d4b929190918252602082015260400190565b60405180910390a250505b73ffffffffffffffffffffffffffffffffffffffff8216156111035773ffffffffffffffffffffffffffffffffffffffff821660009081526008602052604081208190611da690610f7085611a78565b915091508373ffffffffffffffffffffffffffffffffffffffff167fdec2bacdd2f05b59de34da9b523dff8be42e5e38e818c82fdb0bae774387a7248383604051611dfb929190918252602082015260400190565b60405180910390a25050505050565b6000611e1960028484186126f3565b6106c890848416612695565b611e2f82826121a9565b610e42600961110883611a78565b6000807f7fffffffffffffffffffffffffffffff5d576e7357a4501ddfe92f46681b20a0831115611e745750600090506003611f4c565b8460ff16601b14158015611e8c57508460ff16601c14155b15611e9d5750600090506004611f4c565b6040805160008082526020820180845289905260ff881692820192909252606081018690526080810185905260019060a0016020604051602081039080840390855afa158015611ef1573d6000803e3d6000fd5b50506040517fffffffffffffffffffffffffffffffffffffffffffffffffffffffffffffffe0015191505073ffffffffffffffffffffffffffffffffffffffff8116611f4557600060019250925050611f4c565b9150600090505b94509492505050565b6000816004811115611f6957611f6961272e565b03611f715750565b6001816004811115611f8557611f8561272e565b03611fec576040517f08c379a000000000000000000000000000000000000000000000000000000000815260206004820152601860248201527f45434453413a20696e76616c6964207369676e617475726500000000000000006044820152606401610690565b60028160048111156120005761200061272e565b03612067576040517f08c379a000000000000000000000000000000000000000000000000000000000815260206004820152601f60248201527f45434453413a20696e76616c6964207369676e6174757265206c656e677468006044820152606401610690565b600381600481111561207b5761207b61272e565b03612108576040517f08c379a000000000000000000000000000000000000000000000000000000000815260206004820152602260248201527f45434453413a20696e76616c6964207369676e6174757265202773272076616c60448201527f75650000000000000000000000000000000000000000000000000000000000006064820152608401610690565b600481600481111561211c5761211c61272e565b036106d9576040517f08c379a000000000000000000000000000000000000000000000000000000000815260206004820152602260248201527f45434453413a20696e76616c6964207369676e6174757265202776272076616c60448201527f75650000000000000000000000000000000000000000000000000000000000006064820152608401610690565b73ffffffffffffffffffffffffffffffffffffffff821661224c576040517f08c379a000000000000000000000000000000000000000000000000000000000815260206004820152602160248201527f45524332303a206275726e2066726f6d20746865207a65726f2061646472657360448201527f73000000000000000000000000000000000000000000000000000000000000006064820152608401610690565b73ffffffffffffffffffffffffffffffffffffffff821660009081526020819052604090205481811015612302576040517f08c379a000000000000000000000000000000000000000000000000000000000815260206004820152602260248201527f45524332303a206275726e20616d6f756e7420657863656564732062616c616e60448201527f63650000000000000000000000000000000000000000000000000000000000006064820152608401610690565b73ffffffffffffffffffffffffffffffffffffffff8316600090815260208190526040812083830390556002805484929061233e9084906126ad565b909155505060405182815260009073ffffffffffffffffffffffffffffffffffffffff8516907fddf252ad1be2c89b69c2b068fc378daa952ba7f163c4a11628f55a4df523b3ef9060200160405180910390a361110383600084611c5a565b600060208083528351808285015260005b818110156123ca578581018301518582016040015282016123ae565b818111156123dc576000604083870101525b50601f017fffffffffffffffffffffffffffffffffffffffffffffffffffffffffffffffe016929092016040019392505050565b803573ffffffffffffffffffffffffffffffffffffffff8116811461243457600080fd5b919050565b6000806040838503121561244c57600080fd5b61245583612410565b946020939093013593505050565b60008060006060848603121561247857600080fd5b61248184612410565b925061248f60208501612410565b9150604084013590509250925092565b6000602082840312156124b157600080fd5b5035919050565b6000602082840312156124ca57600080fd5b6106c882612410565b803560ff8116811461243457600080fd5b60008060008060008060c087890312156124fd57600080fd5b61250687612410565b95506020870135945060408701359350612522606088016124d3565b92506080870135915060a087013590509295509295509295565b600080600080600080600060e0888a03121561255757600080fd5b61256088612410565b965061256e60208901612410565b9550604088013594506060880135935061258a608089016124d3565b925060a0880135915060c0880135905092959891949750929550565b600080604083850312156125b957600080fd5b6125c283612410565b91506125d060208401612410565b90509250929050565b600080604083850312156125ec57600080fd5b6125f583612410565b9150602083013563ffffffff8116811461260e57600080fd5b809150509250929050565b600181811c9082168061262d57607f821691505b602082108103611a72577f4e487b7100000000000000000000000000000000000000000000000000000000600052602260045260246000fd5b7f4e487b7100000000000000000000000000000000000000000000000000000000600052601160045260246000fd5b600082198211156126a8576126a8612666565b500190565b6000828210156126bf576126bf612666565b500390565b7f4e487b7100000000000000000000000000000000000000000000000000000000600052603260045260246000fd5b600082612729577f4e487b7100000000000000000000000000000000000000000000000000000000600052601260045260246000fd5b500490565b7f4e487b7100000000000000000000000000000000000000000000000000000000600052602160045260246000fdfea164736f6c634300080f000adec2bacdd2f05b59de34da9b523dff8be42e5e38e818c82fdb0bae774387a724","linkReferences":{}},"methodIdentifiers":{"DOMAIN_SEPARATOR()":"3644e515","allowance(address,address)":"dd62ed3e","approve(address,uint256)":"095ea7b3","balanceOf(address)":"70a08231","burn(uint256)":"42966c68","burnFrom(address,uint256)":"79cc6790","checkpoints(address,uint32)":"f1127ed8","decimals()":"313ce567","decreaseAllowance(address,uint256)":"a457c2d7","delegate(address)":"5c19a95c","delegateBySig(address,uint256,uint256,uint8,bytes32,bytes32)":"c3cda520","delegates(address)":"587cde1e","getCurrentVotes(address)":"b4b5ea57","getPastTotalSupply(uint256)":"8e539e8c","getPastVotes(address,uint256)":"3a46b1a8","getPriorVotes(address,uint256)":"782d6fe1","getVotes(address)":"9ab24eb0","increaseAllowance(address,uint256)":"39509351","maxSupply()":"d5abeb01","name()":"06fdde03","nonces(address)":"7ecebe00","numCheckpoints(address)":"6fcfff45","permit(address,address,uint256,uint256,uint8,bytes32,bytes32)":"d505accf","symbol()":"95d89b41","totalSupply()":"18160ddd","transfer(address,uint256)":"a9059cbb","transferFrom(address,address,uint256)":"23b872dd"},"storageLayout":{"storage":[{"astId":47386,"contract":"src/boba/BOBA.sol:BOBA","label":"_balances","offset":0,"slot":"0","type":"t_mapping(t_address,t_uint256)"},{"astId":47392,"contract":"src/boba/BOBA.sol:BOBA","label":"_allowances","offset":0,"slot":"1","type":"t_mapping(t_address,t_mapping(t_address,t_uint256))"},{"astId":47394,"contract":"src/boba/BOBA.sol:BOBA","label":"_totalSupply","offset":0,"slot":"2","type":"t_uint256"},{"astId":47396,"contract":"src/boba/BOBA.sol:BOBA","label":"_name","offset":0,"slot":"3","type":"t_string_storage"},{"astId":47398,"contract":"src/boba/BOBA.sol:BOBA","label":"_symbol","offset":0,"slot":"4","type":"t_string_storage"},{"astId":48819,"contract":"src/boba/BOBA.sol:BOBA","label":"_nonces","offset":0,"slot":"5","type":"t_mapping(t_address,t_struct(Counter)51718_storage)"},{"astId":48827,"contract":"src/boba/BOBA.sol:BOBA","label":"_PERMIT_TYPEHASH_DEPRECATED_SLOT","offset":0,"slot":"6","type":"t_bytes32"},{"astId":48104,"contract":"src/boba/BOBA.sol:BOBA","label":"_delegates","offset":0,"slot":"7","type":"t_mapping(t_address,t_address)"},{"astId":48110,"contract":"src/boba/BOBA.sol:BOBA","label":"_checkpoints","offset":0,"slot":"8","type":"t_mapping(t_address,t_array(t_struct(Checkpoint)48095_storage)dyn_storage)"},{"astId":48114,"contract":"src/boba/BOBA.sol:BOBA","label":"_totalSupplyCheckpoints","offset":0,"slot":"9","type":"t_array(t_struct(Checkpoint)48095_storage)dyn_storage"}],"types":{"t_address":{"encoding":"inplace","label":"address","numberOfBytes":"20"},"t_array(t_struct(Checkpoint)48095_storage)dyn_storage":{"encoding":"dynamic_array","label":"struct ERC20Votes.Checkpoint[]","numberOfBytes":"32","base":"t_struct(Checkpoint)48095_storage"},"t_bytes32":{"encoding":"inplace","label":"bytes32","numberOfBytes":"32"},"t_mapping(t_address,t_address)":{"encoding":"mapping","key":"t_address","label":"mapping(address => address)","numberOfBytes":"32","value":"t_address"},"t_mapping(t_address,t_array(t_struct(Checkpoint)48095_storage)dyn_storage)":{"encoding":"mapping","key":"t_address","label":"mapping(address => struct ERC20Votes.Checkpoint[])","numberOfBytes":"32","value":"t_array(t_struct(Checkpoint)48095_storage)dyn_storage"},"t_mapping(t_address,t_mapping(t_address,t_uint256))":{"encoding":"mapping","key":"t_address","label":"mapping(address => mapping(address => uint256))","numberOfBytes":"32","value":"t_mapping(t_address,t_uint256)"},"t_mapping(t_address,t_struct(Counter)51718_storage)":{"encoding":"mapping","key":"t_address","label":"mapping(address => struct Counters.Counter)","numberOfBytes":"32","value":"t_struct(Counter)51718_storage"},"t_mapping(t_address,t_uint256)":{"encoding":"mapping","key":"t_address","label":"mapping(address => uint256)","numberOfBytes":"32","value":"t_uint256"},"t_string_storage":{"encoding":"bytes","label":"string","numberOfBytes":"32"},"t_struct(Checkpoint)48095_storage":{"encoding":"inplace","label":"struct ERC20Votes.Checkpoint","numberOfBytes":"32","members":[{"astId":48092,"contract":"src/boba/BOBA.sol:BOBA","label":"fromBlock","offset":0,"slot":"0","type":"t_uint32"},{"astId":48094,"contract":"src/boba/BOBA.sol:BOBA","label":"votes","offset":4,"slot":"0","type":"t_uint224"}]},"t_struct(Counter)51718_storage":{"encoding":"inplace","label":"struct Counters.Counter","numberOfBytes":"32","members":[{"astId":51717,"contract":"src/boba/BOBA.sol:BOBA","label":"_value","offset":0,"slot":"0","type":"t_uint256"}]},"t_uint224":{"encoding":"inplace","label":"uint224","numberOfBytes":"28"},"t_uint256":{"encoding":"inplace","label":"uint256","numberOfBytes":"32"},"t_uint32":{"encoding":"inplace","label":"uint32","numberOfBytes":"4"}}},"userdoc":{"version":1,"kind":"user","methods":{"maxSupply()":{"notice":"Maximum possible number of tokens"}}},"devdoc":{"version":1,"kind":"dev","methods":{"DOMAIN_SEPARATOR()":{"details":"See {IERC20Permit-DOMAIN_SEPARATOR}."},"allowance(address,address)":{"details":"See {IERC20-allowance}."},"approve(address,uint256)":{"details":"See {IERC20-approve}. NOTE: If `amount` is the maximum `uint256`, the allowance is not updated on `transferFrom`. This is semantically equivalent to an infinite approval. Requirements: - `spender` cannot be the zero address."},"balanceOf(address)":{"details":"See {IERC20-balanceOf}."},"burn(uint256)":{"details":"Destroys `amount` tokens from the caller. See {ERC20-_burn}."},"burnFrom(address,uint256)":{"details":"Destroys `amount` tokens from `account`, deducting from the caller's allowance. See {ERC20-_burn} and {ERC20-allowance}. Requirements: - the caller must have allowance for ``accounts``'s tokens of at least `amount`."},"checkpoints(address,uint32)":{"details":"Get the `pos`-th checkpoint for `account`."},"decimals()":{"details":"Returns the number of decimals used to get its user representation. For example, if `decimals` equals `2`, a balance of `505` tokens should be displayed to a user as `5.05` (`505 / 10 ** 2`). Tokens usually opt for a value of 18, imitating the relationship between Ether and Wei. This is the value {ERC20} uses, unless this function is overridden; NOTE: This information is only used for _display_ purposes: it in no way affects any of the arithmetic of the contract, including {IERC20-balanceOf} and {IERC20-transfer}."},"decreaseAllowance(address,uint256)":{"details":"Atomically decreases the allowance granted to `spender` by the caller. This is an alternative to {approve} that can be used as a mitigation for problems described in {IERC20-approve}. Emits an {Approval} event indicating the updated allowance. Requirements: - `spender` cannot be the zero address. - `spender` must have allowance for the caller of at least `subtractedValue`."},"delegate(address)":{"details":"Delegate votes from the sender to `delegatee`."},"delegateBySig(address,uint256,uint256,uint8,bytes32,bytes32)":{"details":"Delegates votes from signer to `delegatee`"},"delegates(address)":{"details":"Get the address `account` is currently delegating to."},"getCurrentVotes(address)":{"details":"Comp version of the {getVotes} accessor, with `uint96` return type."},"getPastTotalSupply(uint256)":{"details":"Retrieve the `totalSupply` at the end of `blockNumber`. Note, this value is the sum of all balances. It is but NOT the sum of all the delegated votes! Requirements: - `blockNumber` must have been already mined"},"getPastVotes(address,uint256)":{"details":"Retrieve the number of votes for `account` at the end of `blockNumber`. Requirements: - `blockNumber` must have been already mined"},"getPriorVotes(address,uint256)":{"details":"Comp version of the {getPastVotes} accessor, with `uint96` return type."},"getVotes(address)":{"details":"Gets the current votes balance for `account`"},"increaseAllowance(address,uint256)":{"details":"Atomically increases the allowance granted to `spender` by the caller. This is an alternative to {approve} that can be used as a mitigation for problems described in {IERC20-approve}. Emits an {Approval} event indicating the updated allowance. Requirements: - `spender` cannot be the zero address."},"name()":{"details":"Returns the name of the token."},"nonces(address)":{"details":"See {IERC20Permit-nonces}."},"numCheckpoints(address)":{"details":"Get number of checkpoints for `account`."},"permit(address,address,uint256,uint256,uint8,bytes32,bytes32)":{"details":"See {IERC20Permit-permit}."},"symbol()":{"details":"Returns the symbol of the token, usually a shorter version of the name."},"totalSupply()":{"details":"See {IERC20-totalSupply}."},"transfer(address,uint256)":{"details":"See {IERC20-transfer}. Requirements: - `to` cannot be the zero address. - the caller must have a balance of at least `amount`."},"transferFrom(address,address,uint256)":{"details":"See {IERC20-transferFrom}. Emits an {Approval} event indicating the updated allowance. This is not required by the EIP. See the note at the beginning of {ERC20}. NOTE: Does not update the allowance if the current allowance is the maximum `uint256`. Requirements: - `from` and `to` cannot be the zero address. - `from` must have a balance of at least `amount`. - the caller must have allowance for ``from``'s tokens of at least `amount`."}},"title":"Boba Token (BOBA)"},"id":164}