{"abi":[{"type":"function","name":"DEPOSITOR_ACCOUNT","inputs":[],"outputs":[{"name":"","type":"address","internalType":"address"}],"stateMutability":"view"},{"type":"function","name":"baseFeeScalar","inputs":[],"outputs":[{"name":"","type":"uint32","internalType":"uint32"}],"stateMutability":"view"},{"type":"function","name":"basefee","inputs":[],"outputs":[{"name":"","type":"uint256","internalType":"uint256"}],"stateMutability":"view"},{"type":"function","name":"batcherHash","inputs":[],"outputs":[{"name":"","type":"bytes32","internalType":"bytes32"}],"stateMutability":"view"},{"type":"function","name":"blobBaseFee","inputs":[],"outputs":[{"name":"","type":"uint256","internalType":"uint256"}],"stateMutability":"view"},{"type":"function","name":"blobBaseFeeScalar","inputs":[],"outputs":[{"name":"","type":"uint32","internalType":"uint32"}],"stateMutability":"view"},{"type":"function","name":"hash","inputs":[],"outputs":[{"name":"","type":"bytes32","internalType":"bytes32"}],"stateMutability":"view"},{"type":"function","name":"l1FeeOverhead","inputs":[],"outputs":[{"name":"","type":"uint256","internalType":"uint256"}],"stateMutability":"view"},{"type":"function","name":"l1FeeScalar","inputs":[],"outputs":[{"name":"","type":"uint256","internalType":"uint256"}],"stateMutability":"view"},{"type":"function","name":"number","inputs":[],"outputs":[{"name":"","type":"uint64","internalType":"uint64"}],"stateMutability":"view"},{"type":"function","name":"sequenceNumber","inputs":[],"outputs":[{"name":"","type":"uint64","internalType":"uint64"}],"stateMutability":"view"},{"type":"function","name":"setL1BlockValues","inputs":[{"name":"_number","type":"uint64","internalType":"uint64"},{"name":"_timestamp","type":"uint64","internalType":"uint64"},{"name":"_basefee","type":"uint256","internalType":"uint256"},{"name":"_hash","type":"bytes32","internalType":"bytes32"},{"name":"_sequenceNumber","type":"uint64","internalType":"uint64"},{"name":"_batcherHash","type":"bytes32","internalType":"bytes32"},{"name":"_l1FeeOverhead","type":"uint256","internalType":"uint256"},{"name":"_l1FeeScalar","type":"uint256","internalType":"uint256"}],"outputs":[],"stateMutability":"nonpayable"},{"type":"function","name":"setL1BlockValuesEcotone","inputs":[],"outputs":[],"stateMutability":"nonpayable"},{"type":"function","name":"timestamp","inputs":[],"outputs":[{"name":"","type":"uint64","internalType":"uint64"}],"stateMutability":"view"},{"type":"function","name":"version","inputs":[],"outputs":[{"name":"","type":"string","internalType":"string"}],"stateMutability":"view"}],"bytecode":{"object":"0x608060405234801561001057600080fd5b5061053e806100206000396000f3fe608060405234801561001057600080fd5b50600436106100f55760003560e01c80638381f58a11610097578063c598591811610066578063c598591814610229578063e591b28214610249578063e81b2c6d14610289578063f82061401461029257600080fd5b80638381f58a146101e35780638b239f73146101f75780639e8c496614610200578063b80777ea1461020957600080fd5b806354fd4d50116100d357806354fd4d50146101335780635cf249691461017c57806364ca23ef1461018557806368d5dca6146101b257600080fd5b8063015d8eb9146100fa57806309bd5a601461010f578063440a5e201461012b575b600080fd5b61010d61010836600461044c565b61029b565b005b61011860025481565b6040519081526020015b60405180910390f35b61010d6103da565b61016f6040518060400160405280600581526020017f312e322e3000000000000000000000000000000000000000000000000000000081525081565b60405161012291906104be565b61011860015481565b6003546101999067ffffffffffffffff1681565b60405167ffffffffffffffff9091168152602001610122565b6003546101ce9068010000000000000000900463ffffffff1681565b60405163ffffffff9091168152602001610122565b6000546101999067ffffffffffffffff1681565b61011860055481565b61011860065481565b6000546101999068010000000000000000900467ffffffffffffffff1681565b6003546101ce906c01000000000000000000000000900463ffffffff1681565b61026473deaddeaddeaddeaddeaddeaddeaddeaddead000181565b60405173ffffffffffffffffffffffffffffffffffffffff9091168152602001610122565b61011860045481565b61011860075481565b3373deaddeaddeaddeaddeaddeaddeaddeaddead000114610342576040517f08c379a000000000000000000000000000000000000000000000000000000000815260206004820152603b60248201527f4c31426c6f636b3a206f6e6c7920746865206465706f7369746f72206163636f60448201527f756e742063616e20736574204c3120626c6f636b2076616c7565730000000000606482015260840160405180910390fd5b6000805467ffffffffffffffff98891668010000000000000000027fffffffffffffffffffffffffffffffff00000000000000000000000000000000909116998916999099179890981790975560019490945560029290925560038054919094167fffffffffffffffffffffffffffffffffffffffffffffffff00000000000000009190911617909255600491909155600555600655565b3373deaddeaddeaddeaddeaddeaddeaddeaddead00011461040357633cc50b456000526004601cfd5b60043560801c60035560143560801c600055602435600155604435600755606435600255608435600455565b803567ffffffffffffffff8116811461044757600080fd5b919050565b600080600080600080600080610100898b03121561046957600080fd5b6104728961042f565b975061048060208a0161042f565b9650604089013595506060890135945061049c60808a0161042f565b979a969950949793969560a0850135955060c08501359460e001359350915050565b600060208083528351808285015260005b818110156104eb578581018301518582016040015282016104cf565b818111156104fd576000604083870101525b50601f017fffffffffffffffffffffffffffffffffffffffffffffffffffffffffffffffe01692909201604001939250505056fea164736f6c634300080f000a","linkReferences":{}},"methodIdentifiers":{"DEPOSITOR_ACCOUNT()":"e591b282","baseFeeScalar()":"c5985918","basefee()":"5cf24969","batcherHash()":"e81b2c6d","blobBaseFee()":"f8206140","blobBaseFeeScalar()":"68d5dca6","hash()":"09bd5a60","l1FeeOverhead()":"8b239f73","l1FeeScalar()":"9e8c4966","number()":"8381f58a","sequenceNumber()":"64ca23ef","setL1BlockValues(uint64,uint64,uint256,bytes32,uint64,bytes32,uint256,uint256)":"015d8eb9","setL1BlockValuesEcotone()":"440a5e20","timestamp()":"b80777ea","version()":"54fd4d50"},"storageLayout":{"storage":[{"astId":90216,"contract":"src/L2/L1Block.sol:L1Block","label":"number","offset":0,"slot":"0","type":"t_uint64"},{"astId":90219,"contract":"src/L2/L1Block.sol:L1Block","label":"timestamp","offset":8,"slot":"0","type":"t_uint64"},{"astId":90222,"contract":"src/L2/L1Block.sol:L1Block","label":"basefee","offset":0,"slot":"1","type":"t_uint256"},{"astId":90225,"contract":"src/L2/L1Block.sol:L1Block","label":"hash","offset":0,"slot":"2","type":"t_bytes32"},{"astId":90228,"contract":"src/L2/L1Block.sol:L1Block","label":"sequenceNumber","offset":0,"slot":"3","type":"t_uint64"},{"astId":90231,"contract":"src/L2/L1Block.sol:L1Block","label":"blobBaseFeeScalar","offset":8,"slot":"3","type":"t_uint32"},{"astId":90234,"contract":"src/L2/L1Block.sol:L1Block","label":"baseFeeScalar","offset":12,"slot":"3","type":"t_uint32"},{"astId":90237,"contract":"src/L2/L1Block.sol:L1Block","label":"batcherHash","offset":0,"slot":"4","type":"t_bytes32"},{"astId":90240,"contract":"src/L2/L1Block.sol:L1Block","label":"l1FeeOverhead","offset":0,"slot":"5","type":"t_uint256"},{"astId":90243,"contract":"src/L2/L1Block.sol:L1Block","label":"l1FeeScalar","offset":0,"slot":"6","type":"t_uint256"},{"astId":90246,"contract":"src/L2/L1Block.sol:L1Block","label":"blobBaseFee","offset":0,"slot":"7","type":"t_uint256"}],"types":{"t_bytes32":{"encoding":"inplace","label":"bytes32","numberOfBytes":"32"},"t_uint256":{"encoding":"inplace","label":"uint256","numberOfBytes":"32"},"t_uint32":{"encoding":"inplace","label":"uint32","numberOfBytes":"4"},"t_uint64":{"encoding":"inplace","label":"uint64","numberOfBytes":"8"}}},"userdoc":{"version":1,"kind":"user","methods":{"DEPOSITOR_ACCOUNT()":{"notice":"Address of the special depositor account."},"baseFeeScalar()":{"notice":"The scalar value applied to the L1 base fee portion of the blob-capable L1 cost func."},"basefee()":{"notice":"The latest L1 base fee."},"batcherHash()":{"notice":"The versioned hash to authenticate the batcher by."},"blobBaseFee()":{"notice":"The latest L1 blob base fee."},"blobBaseFeeScalar()":{"notice":"The scalar value applied to the L1 blob base fee portion of the blob-capable L1 cost func."},"hash()":{"notice":"The latest L1 blockhash."},"l1FeeOverhead()":{"notice":"The overhead value applied to the L1 portion of the transaction fee."},"l1FeeScalar()":{"notice":"The scalar value applied to the L1 portion of the transaction fee."},"number()":{"notice":"The latest L1 block number known by the L2 system."},"sequenceNumber()":{"notice":"The number of L2 blocks in the same epoch."},"setL1BlockValuesEcotone()":{"notice":"Updates the L1 block values for an Ecotone upgraded chain. Params are packed and passed in as raw msg.data instead of ABI to reduce calldata size. Params are expected to be in the following order:   1. _baseFeeScalar      L1 base fee scalar   2. _blobBaseFeeScalar  L1 blob base fee scalar   3. _sequenceNumber     Number of L2 blocks since epoch start.   4. _timestamp          L1 timestamp.   5. _number             L1 blocknumber.   6. _basefee            L1 base fee.   7. _blobBaseFee        L1 blob base fee.   8. _hash               L1 blockhash.   9. _batcherHash        Versioned hash to authenticate batcher by."},"timestamp()":{"notice":"The latest L1 timestamp known by the L2 system."}},"notice":"The L1Block predeploy gives users access to information about the last known L1 block.         Values within this contract are updated once per epoch (every L1 block) and can only be         set by the \"depositor\" account, a special system address. Depositor account transactions         are created by the protocol whenever we move to a new epoch."},"devdoc":{"version":1,"kind":"dev","methods":{"setL1BlockValues(uint64,uint64,uint256,bytes32,uint64,bytes32,uint256,uint256)":{"params":{"_basefee":"L1 basefee.","_batcherHash":"Versioned hash to authenticate batcher by.","_hash":"L1 blockhash.","_l1FeeOverhead":"L1 fee overhead.","_l1FeeScalar":"L1 fee scalar.","_number":"L1 blocknumber.","_sequenceNumber":"Number of L2 blocks since epoch start.","_timestamp":"L1 timestamp."}}},"title":"L1Block"},"id":145}