{"abi":[{"type":"constructor","inputs":[{"name":"_proofMaturityDelaySeconds","type":"uint256","internalType":"uint256"},{"name":"_disputeGameFinalityDelaySeconds","type":"uint256","internalType":"uint256"}],"stateMutability":"nonpayable"},{"type":"receive","stateMutability":"payable"},{"type":"function","name":"blacklistDisputeGame","inputs":[{"name":"_disputeGame","type":"address","internalType":"contract IDisputeGame"}],"outputs":[],"stateMutability":"nonpayable"},{"type":"function","name":"checkWithdrawal","inputs":[{"name":"_withdrawalHash","type":"bytes32","internalType":"bytes32"},{"name":"_proofSubmitter","type":"address","internalType":"address"}],"outputs":[],"stateMutability":"view"},{"type":"function","name":"depositTransaction","inputs":[{"name":"_to","type":"address","internalType":"address"},{"name":"_value","type":"uint256","internalType":"uint256"},{"name":"_gasLimit","type":"uint64","internalType":"uint64"},{"name":"_isCreation","type":"bool","internalType":"bool"},{"name":"_data","type":"bytes","internalType":"bytes"}],"outputs":[],"stateMutability":"payable"},{"type":"function","name":"disputeGameBlacklist","inputs":[{"name":"","type":"address","internalType":"contract IDisputeGame"}],"outputs":[{"name":"","type":"bool","internalType":"bool"}],"stateMutability":"view"},{"type":"function","name":"disputeGameFactory","inputs":[],"outputs":[{"name":"","type":"address","internalType":"contract DisputeGameFactory"}],"stateMutability":"view"},{"type":"function","name":"disputeGameFinalityDelaySeconds","inputs":[],"outputs":[{"name":"","type":"uint256","internalType":"uint256"}],"stateMutability":"view"},{"type":"function","name":"donateETH","inputs":[],"outputs":[],"stateMutability":"payable"},{"type":"function","name":"finalizeWithdrawalTransaction","inputs":[{"name":"_tx","type":"tuple","internalType":"struct Types.WithdrawalTransaction","components":[{"name":"nonce","type":"uint256","internalType":"uint256"},{"name":"sender","type":"address","internalType":"address"},{"name":"target","type":"address","internalType":"address"},{"name":"value","type":"uint256","internalType":"uint256"},{"name":"gasLimit","type":"uint256","internalType":"uint256"},{"name":"data","type":"bytes","internalType":"bytes"}]}],"outputs":[],"stateMutability":"nonpayable"},{"type":"function","name":"finalizeWithdrawalTransactionExternalProof","inputs":[{"name":"_tx","type":"tuple","internalType":"struct Types.WithdrawalTransaction","components":[{"name":"nonce","type":"uint256","internalType":"uint256"},{"name":"sender","type":"address","internalType":"address"},{"name":"target","type":"address","internalType":"address"},{"name":"value","type":"uint256","internalType":"uint256"},{"name":"gasLimit","type":"uint256","internalType":"uint256"},{"name":"data","type":"bytes","internalType":"bytes"}]},{"name":"_proofSubmitter","type":"address","internalType":"address"}],"outputs":[],"stateMutability":"nonpayable"},{"type":"function","name":"finalizedWithdrawals","inputs":[{"name":"","type":"bytes32","internalType":"bytes32"}],"outputs":[{"name":"","type":"bool","internalType":"bool"}],"stateMutability":"view"},{"type":"function","name":"guardian","inputs":[],"outputs":[{"name":"","type":"address","internalType":"address"}],"stateMutability":"view"},{"type":"function","name":"initialize","inputs":[{"name":"_disputeGameFactory","type":"address","internalType":"contract DisputeGameFactory"},{"name":"_systemConfig","type":"address","internalType":"contract SystemConfig"},{"name":"_superchainConfig","type":"address","internalType":"contract SuperchainConfig"},{"name":"_initialRespectedGameType","type":"uint32","internalType":"GameType"}],"outputs":[],"stateMutability":"nonpayable"},{"type":"function","name":"l2Sender","inputs":[],"outputs":[{"name":"","type":"address","internalType":"address"}],"stateMutability":"view"},{"type":"function","name":"minimumGasLimit","inputs":[{"name":"_byteCount","type":"uint64","internalType":"uint64"}],"outputs":[{"name":"","type":"uint64","internalType":"uint64"}],"stateMutability":"pure"},{"type":"function","name":"numProofSubmitters","inputs":[{"name":"_withdrawalHash","type":"bytes32","internalType":"bytes32"}],"outputs":[{"name":"","type":"uint256","internalType":"uint256"}],"stateMutability":"view"},{"type":"function","name":"params","inputs":[],"outputs":[{"name":"prevBaseFee","type":"uint128","internalType":"uint128"},{"name":"prevBoughtGas","type":"uint64","internalType":"uint64"},{"name":"prevBlockNum","type":"uint64","internalType":"uint64"}],"stateMutability":"view"},{"type":"function","name":"paused","inputs":[],"outputs":[{"name":"","type":"bool","internalType":"bool"}],"stateMutability":"view"},{"type":"function","name":"proofMaturityDelaySeconds","inputs":[],"outputs":[{"name":"","type":"uint256","internalType":"uint256"}],"stateMutability":"view"},{"type":"function","name":"proofSubmitters","inputs":[{"name":"","type":"bytes32","internalType":"bytes32"},{"name":"","type":"uint256","internalType":"uint256"}],"outputs":[{"name":"","type":"address","internalType":"address"}],"stateMutability":"view"},{"type":"function","name":"proveWithdrawalTransaction","inputs":[{"name":"_tx","type":"tuple","internalType":"struct Types.WithdrawalTransaction","components":[{"name":"nonce","type":"uint256","internalType":"uint256"},{"name":"sender","type":"address","internalType":"address"},{"name":"target","type":"address","internalType":"address"},{"name":"value","type":"uint256","internalType":"uint256"},{"name":"gasLimit","type":"uint256","internalType":"uint256"},{"name":"data","type":"bytes","internalType":"bytes"}]},{"name":"_disputeGameIndex","type":"uint256","internalType":"uint256"},{"name":"_outputRootProof","type":"tuple","internalType":"struct Types.OutputRootProof","components":[{"name":"version","type":"bytes32","internalType":"bytes32"},{"name":"stateRoot","type":"bytes32","internalType":"bytes32"},{"name":"messagePasserStorageRoot","type":"bytes32","internalType":"bytes32"},{"name":"latestBlockhash","type":"bytes32","internalType":"bytes32"}]},{"name":"_withdrawalProof","type":"bytes[]","internalType":"bytes[]"}],"outputs":[],"stateMutability":"nonpayable"},{"type":"function","name":"provenWithdrawals","inputs":[{"name":"","type":"bytes32","internalType":"bytes32"},{"name":"","type":"address","internalType":"address"}],"outputs":[{"name":"disputeGameProxy","type":"address","internalType":"contract IDisputeGame"},{"name":"timestamp","type":"uint64","internalType":"uint64"}],"stateMutability":"view"},{"type":"function","name":"respectedGameType","inputs":[],"outputs":[{"name":"","type":"uint32","internalType":"GameType"}],"stateMutability":"view"},{"type":"function","name":"respectedGameTypeUpdatedAt","inputs":[],"outputs":[{"name":"","type":"uint64","internalType":"uint64"}],"stateMutability":"view"},{"type":"function","name":"setRespectedGameType","inputs":[{"name":"_gameType","type":"uint32","internalType":"GameType"}],"outputs":[],"stateMutability":"nonpayable"},{"type":"function","name":"superchainConfig","inputs":[],"outputs":[{"name":"","type":"address","internalType":"contract SuperchainConfig"}],"stateMutability":"view"},{"type":"function","name":"systemConfig","inputs":[],"outputs":[{"name":"","type":"address","internalType":"contract SystemConfig"}],"stateMutability":"view"},{"type":"function","name":"version","inputs":[],"outputs":[{"name":"","type":"string","internalType":"string"}],"stateMutability":"view"},{"type":"event","name":"Initialized","inputs":[{"name":"version","type":"uint8","indexed":false,"internalType":"uint8"}],"anonymous":false},{"type":"event","name":"TransactionDeposited","inputs":[{"name":"from","type":"address","indexed":true,"internalType":"address"},{"name":"to","type":"address","indexed":true,"internalType":"address"},{"name":"version","type":"uint256","indexed":true,"internalType":"uint256"},{"name":"opaqueData","type":"bytes","indexed":false,"internalType":"bytes"}],"anonymous":false},{"type":"event","name":"WithdrawalFinalized","inputs":[{"name":"withdrawalHash","type":"bytes32","indexed":true,"internalType":"bytes32"},{"name":"success","type":"bool","indexed":false,"internalType":"bool"}],"anonymous":false},{"type":"event","name":"WithdrawalProven","inputs":[{"name":"withdrawalHash","type":"bytes32","indexed":true,"internalType":"bytes32"},{"name":"from","type":"address","indexed":true,"internalType":"address"},{"name":"to","type":"address","indexed":true,"internalType":"address"}],"anonymous":false},{"type":"error","name":"BadTarget","inputs":[]},{"type":"error","name":"CallPaused","inputs":[]},{"type":"error","name":"GasEstimation","inputs":[]},{"type":"error","name":"LargeCalldata","inputs":[]},{"type":"error","name":"OutOfGas","inputs":[]},{"type":"error","name":"SmallGasLimit","inputs":[]},{"type":"error","name":"Unauthorized","inputs":[]}],"bytecode":{"object":"0x60c06040523480156200001157600080fd5b5060405162005cbd38038062005cbd8339810160408190526200003491620002f2565b608082905260a08190526200004d600080808062000055565b505062000317565b600054610100900460ff1615808015620000765750600054600160ff909116105b80620000a6575062000093306200022460201b620020d41760201c565b158015620000a6575060005460ff166001145b6200010f5760405162461bcd60e51b815260206004820152602e60248201527f496e697469616c697a61626c653a20636f6e747261637420697320616c72656160448201526d191e481a5b9a5d1a585b1a5e995960921b60648201526084015b60405180910390fd5b6000805460ff19166001179055801562000133576000805461ff0019166101001790555b603880546001600160a01b03199081166001600160a01b03888116919091179092556037805490911686831617905560358054610100600160a81b0319166101008684160217905560325416620001cc576032805461dead6001600160a01b0319909116179055603b80546001600160601b031916640100000000426001600160401b03160263ffffffff19161763ffffffff84161790555b620001d662000233565b80156200021d576000805461ff0019169055604051600181527f7f26b83ff96e1f2b6a682f133852f6798a09c465da95921460cefb38474024989060200160405180910390a15b5050505050565b6001600160a01b03163b151590565b600054610100900460ff16620002a05760405162461bcd60e51b815260206004820152602b60248201527f496e697469616c697a61626c653a20636f6e7472616374206973206e6f74206960448201526a6e697469616c697a696e6760a81b606482015260840162000106565b600154600160c01b90046001600160401b0316600003620002f05760408051606081018252633b9aca0080825260006020830152436001600160401b031691909201819052600160c01b02176001555b565b600080604083850312156200030657600080fd5b505080516020909101519092909150565b60805160a0516159726200034b600039600081816104c30152611a4601526000818161063a015261168401526159726000f3fe6080604052600436106101b05760003560e01c80637fc48504116100ec578063a35d99df1161008a578063bf653a5c11610064578063bf653a5c1461062b578063cff0ab961461065e578063e9e05c42146106ff578063f2b4e6171461071257600080fd5b8063a35d99df14610544578063a3860f4814610564578063bb2c727e1461058457600080fd5b80638e819e54116100c65780638e819e5414610494578063952b2797146104b45780639bf62d82146104e7578063a14238e71461051457600080fd5b80637fc48504146104545780638b4c40b0146101d55780638c3152e91461047457600080fd5b80634870496f1161015957806354fd4d501161013357806354fd4d50146103a95780635c975abb146103ff57806371c1566e146104145780637d6be8dc1461043457600080fd5b80634870496f1461030c5780634fd0434c1461032c578063513747ab1461036e57600080fd5b806343ca1c501161018a57806343ca1c5014610297578063452a9320146102b757806345884d32146102cc57600080fd5b806333d7e2bd146101dc57806335e80ab3146102335780633c9f397c1461026557600080fd5b366101d7576101d53334620186a060006040518060200160405280600081525061073f565b005b600080fd5b3480156101e857600080fd5b506037546102099073ffffffffffffffffffffffffffffffffffffffff1681565b60405173ffffffffffffffffffffffffffffffffffffffff90911681526020015b60405180910390f35b34801561023f57600080fd5b5060355461020990610100900473ffffffffffffffffffffffffffffffffffffffff1681565b34801561027157600080fd5b50603b546102829063ffffffff1681565b60405163ffffffff909116815260200161022a565b3480156102a357600080fd5b506101d56102b2366004614e15565b6108fc565b3480156102c357600080fd5b50610209610b5a565b3480156102d857600080fd5b506102fc6102e7366004614e67565b603a6020526000908152604090205460ff1681565b604051901515815260200161022a565b34801561031857600080fd5b506101d5610327366004614e84565b610bf2565b34801561033857600080fd5b50603b5461035590640100000000900467ffffffffffffffff1681565b60405167ffffffffffffffff909116815260200161022a565b34801561037a57600080fd5b5061039b610389366004614f60565b6000908152603c602052604090205490565b60405190815260200161022a565b3480156103b557600080fd5b506103f26040518060400160405280600581526020017f332e382e3000000000000000000000000000000000000000000000000000000081525081565b60405161022a9190614fef565b34801561040b57600080fd5b506102fc6112d6565b34801561042057600080fd5b506101d561042f366004615002565b611369565b34801561044057600080fd5b506101d561044f366004614e67565b611bfa565b34801561046057600080fd5b506101d561046f366004615039565b611cb5565b34801561048057600080fd5b506101d561048f366004615056565b611d6f565b3480156104a057600080fd5b506101d56104af366004615093565b611dbb565b3480156104c057600080fd5b507f000000000000000000000000000000000000000000000000000000000000000061039b565b3480156104f357600080fd5b506032546102099073ffffffffffffffffffffffffffffffffffffffff1681565b34801561052057600080fd5b506102fc61052f366004614f60565b60336020526000908152604090205460ff1681565b34801561055057600080fd5b5061035561055f366004615105565b612070565b34801561057057600080fd5b5061020961057f366004615122565b61208f565b34801561059057600080fd5b506105f661059f366004615002565b603960209081526000928352604080842090915290825290205473ffffffffffffffffffffffffffffffffffffffff81169074010000000000000000000000000000000000000000900467ffffffffffffffff1682565b6040805173ffffffffffffffffffffffffffffffffffffffff909316835267ffffffffffffffff90911660208301520161022a565b34801561063757600080fd5b507f000000000000000000000000000000000000000000000000000000000000000061039b565b34801561066a57600080fd5b506001546106c6906fffffffffffffffffffffffffffffffff81169067ffffffffffffffff7001000000000000000000000000000000008204811691780100000000000000000000000000000000000000000000000090041683565b604080516fffffffffffffffffffffffffffffffff909416845267ffffffffffffffff928316602085015291169082015260600161022a565b6101d561070d366004615152565b61073f565b34801561071e57600080fd5b506038546102099073ffffffffffffffffffffffffffffffffffffffff1681565b8260005a9050838015610767575073ffffffffffffffffffffffffffffffffffffffff871615155b1561079e576040517f13496fda00000000000000000000000000000000000000000000000000000000815260040160405180910390fd5b6107a88351612070565b67ffffffffffffffff168567ffffffffffffffff1610156107f5576040517f4929b80800000000000000000000000000000000000000000000000000000000815260040160405180910390fd5b6201d4c083511115610833576040517f73052b0f00000000000000000000000000000000000000000000000000000000815260040160405180910390fd5b33328114610854575033731111000000000000000000000000000000001111015b6000348888888860405160200161086f9594939291906151d1565b604051602081830303815290604052905060008973ffffffffffffffffffffffffffffffffffffffff168373ffffffffffffffffffffffffffffffffffffffff167fb3813568d9991fc951961fcb4c784893574240a28925604d09fc577c55bb7c32846040516108df9190614fef565b60405180910390a450506108f382826120f0565b50505050505050565b6109046112d6565b1561093b576040517ff480973e00000000000000000000000000000000000000000000000000000000815260040160405180910390fd5b60325473ffffffffffffffffffffffffffffffffffffffff1661dead146109e9576040517f08c379a000000000000000000000000000000000000000000000000000000000815260206004820152603f60248201527f4f7074696d69736d506f7274616c3a2063616e206f6e6c79207472696767657260448201527f206f6e65207769746864726177616c20706572207472616e73616374696f6e0060648201526084015b60405180910390fd5b60006109f4836123c7565b9050610a008183611369565b600081815260336020908152604080832080547fffffffffffffffffffffffffffffffffffffffffffffffffffffffffffffff00166001179055908501516032805473ffffffffffffffffffffffffffffffffffffffff9092167fffffffffffffffffffffffff00000000000000000000000000000000000000009092169190911790558401516080850151606086015160a0870151610aa293929190612414565b603280547fffffffffffffffffffffffff00000000000000000000000000000000000000001661dead17905560405190915082907fdb5c7652857aa163daadd670e116628fb42e869d8ac4251ef8971d9e5727df1b90610b0790841515815260200190565b60405180910390a280158015610b1d5750326001145b15610b54576040517feeae4ed300000000000000000000000000000000000000000000000000000000815260040160405180910390fd5b50505050565b6000603560019054906101000a900473ffffffffffffffffffffffffffffffffffffffff1673ffffffffffffffffffffffffffffffffffffffff1663452a93206040518163ffffffff1660e01b8152600401602060405180830381865afa158015610bc9573d6000803e3d6000fd5b505050506040513d601f19601f82011682018060405250810190610bed9190615236565b905090565b610bfa6112d6565b15610c31576040517ff480973e00000000000000000000000000000000000000000000000000000000815260040160405180910390fd5b3073ffffffffffffffffffffffffffffffffffffffff16856040015173ffffffffffffffffffffffffffffffffffffffff1603610cf0576040517f08c379a000000000000000000000000000000000000000000000000000000000815260206004820152603f60248201527f4f7074696d69736d506f7274616c3a20796f752063616e6e6f742073656e642060448201527f6d6573736167657320746f2074686520706f7274616c20636f6e74726163740060648201526084016109e0565b6038546040517fbb8aa1fc00000000000000000000000000000000000000000000000000000000815260048101869052600091829173ffffffffffffffffffffffffffffffffffffffff9091169063bb8aa1fc90602401606060405180830381865afa158015610d64573d6000803e3d6000fd5b505050506040513d601f19601f82011682018060405250810190610d889190615253565b925050915060008173ffffffffffffffffffffffffffffffffffffffff1663bcef3b556040518163ffffffff1660e01b8152600401602060405180830381865afa158015610dda573d6000803e3d6000fd5b505050506040513d601f19601f82011682018060405250810190610dfe91906152a0565b603b5490915063ffffffff848116911614610e9b576040517f08c379a000000000000000000000000000000000000000000000000000000000815260206004820152602160248201527f4f7074696d69736d506f7274616c3a20696e76616c69642067616d652074797060448201527f650000000000000000000000000000000000000000000000000000000000000060648201526084016109e0565b610eb2610ead368890038801886152b9565b612472565b8114610f40576040517f08c379a000000000000000000000000000000000000000000000000000000000815260206004820152602960248201527f4f7074696d69736d506f7274616c3a20696e76616c6964206f7574707574207260448201527f6f6f742070726f6f66000000000000000000000000000000000000000000000060648201526084016109e0565b6000610f4b896123c7565b905060018373ffffffffffffffffffffffffffffffffffffffff1663200d2ed26040518163ffffffff1660e01b8152600401602060405180830381865afa158015610f9a573d6000803e3d6000fd5b505050506040513d601f19601f82011682018060405250810190610fbe919061534e565b6002811115610fcf57610fcf61531f565b0361105c576040517f08c379a000000000000000000000000000000000000000000000000000000000815260206004820152603a60248201527f4f7074696d69736d506f7274616c3a2063616e6e6f742070726f76652061676160448201527f696e737420696e76616c696420646973707574652067616d657300000000000060648201526084016109e0565b60408051602081018390526000918101829052606001604080517fffffffffffffffffffffffffffffffffffffffffffffffffffffffffffffffe0818403018152828252805160209182012090830181905292506111259101604080517fffffffffffffffffffffffffffffffffffffffffffffffffffffffffffffffe0818403018152828201909152600182527f010000000000000000000000000000000000000000000000000000000000000060208301529061111b898b61536f565b8b604001356124b1565b6111b1576040517f08c379a000000000000000000000000000000000000000000000000000000000815260206004820152603260248201527f4f7074696d69736d506f7274616c3a20696e76616c696420776974686472617760448201527f616c20696e636c7573696f6e2070726f6f66000000000000000000000000000060648201526084016109e0565b60408051808201825273ffffffffffffffffffffffffffffffffffffffff808716825267ffffffffffffffff4281166020808501918252600088815260398252868120338252825286812095518654935190941674010000000000000000000000000000000000000000027fffffffff0000000000000000000000000000000000000000000000000000000090931693851693909317919091179093558d840151928e01519351928216939091169185917f67a6208cfcc0801d50f6cbe764733f4fddf66ac0b04442061a8a8c0cb6b63f6291a4506000908152603c602090815260408220805460018101825590835291200180547fffffffffffffffffffffffff000000000000000000000000000000000000000016331790555050505050505050565b6000603560019054906101000a900473ffffffffffffffffffffffffffffffffffffffff1673ffffffffffffffffffffffffffffffffffffffff16635c975abb6040518163ffffffff1660e01b8152600401602060405180830381865afa158015611345573d6000803e3d6000fd5b505050506040513d601f19601f82011682018060405250810190610bed91906153f3565b600082815260396020908152604080832073ffffffffffffffffffffffffffffffffffffffff85811685529083528184208251808401845290549182168082527401000000000000000000000000000000000000000090920467ffffffffffffffff1681850152818552603a90935292205490919060ff161561146e576040517f08c379a000000000000000000000000000000000000000000000000000000000815260206004820152603160248201527f4f7074696d69736d506f7274616c3a20646973707574652067616d652068617360448201527f206265656e20626c61636b6c697374656400000000000000000000000000000060648201526084016109e0565b816020015167ffffffffffffffff16600003611532576040517f08c379a000000000000000000000000000000000000000000000000000000000815260206004820152604d60248201527f4f7074696d69736d506f7274616c3a207769746864726177616c20686173206e60448201527f6f74206265656e2070726f76656e2062792070726f6f66207375626d6974746560648201527f7220616464726573732079657400000000000000000000000000000000000000608482015260a4016109e0565b60006115b38273ffffffffffffffffffffffffffffffffffffffff1663cf09e0d06040518163ffffffff1660e01b8152600401602060405180830381865afa158015611582573d6000803e3d6000fd5b505050506040513d601f19601f820116820180604052508101906115a69190615410565b67ffffffffffffffff1690565b90508067ffffffffffffffff16836020015167ffffffffffffffff1611611682576040517f08c379a000000000000000000000000000000000000000000000000000000000815260206004820152604e60248201527f4f7074696d69736d506f7274616c3a207769746864726177616c2074696d657360448201527f74616d70206c657373207468616e20646973707574652067616d65206372656160648201527f74696f6e2074696d657374616d70000000000000000000000000000000000000608482015260a4016109e0565b7f0000000000000000000000000000000000000000000000000000000000000000836020015167ffffffffffffffff16426116bd919061545c565b1161174a576040517f08c379a000000000000000000000000000000000000000000000000000000000815260206004820152603560248201527f4f7074696d69736d506f7274616c3a2070726f76656e2077697468647261776160448201527f6c20686173206e6f74206d61747572656420796574000000000000000000000060648201526084016109e0565b60028273ffffffffffffffffffffffffffffffffffffffff1663200d2ed26040518163ffffffff1660e01b8152600401602060405180830381865afa158015611797573d6000803e3d6000fd5b505050506040513d601f19601f820116820180604052508101906117bb919061534e565b60028111156117cc576117cc61531f565b14611859576040517f08c379a000000000000000000000000000000000000000000000000000000000815260206004820152603660248201527f4f7074696d69736d506f7274616c3a206f75747075742070726f706f73616c2060448201527f686173206e6f74206265656e2076616c6964617465640000000000000000000060648201526084016109e0565b603b5463ffffffff1663ffffffff166118e38373ffffffffffffffffffffffffffffffffffffffff1663bbdc02db6040518163ffffffff1660e01b8152600401602060405180830381865afa1580156118b6573d6000803e3d6000fd5b505050506040513d601f19601f820116820180604052508101906118da9190615473565b63ffffffff1690565b63ffffffff1614611976576040517f08c379a000000000000000000000000000000000000000000000000000000000815260206004820152602160248201527f4f7074696d69736d506f7274616c3a20696e76616c69642067616d652074797060448201527f650000000000000000000000000000000000000000000000000000000000000060648201526084016109e0565b603b5467ffffffffffffffff64010000000090910481169082161015611a44576040517f08c379a000000000000000000000000000000000000000000000000000000000815260206004820152604b60248201527f4f7074696d69736d506f7274616c3a20646973707574652067616d652063726560448201527f61746564206265666f7265207265737065637465642067616d6520747970652060648201527f7761732075706461746564000000000000000000000000000000000000000000608482015260a4016109e0565b7f0000000000000000000000000000000000000000000000000000000000000000611ab38373ffffffffffffffffffffffffffffffffffffffff166319effeb46040518163ffffffff1660e01b8152600401602060405180830381865afa158015611582573d6000803e3d6000fd5b611ac79067ffffffffffffffff164261545c565b11611b54576040517f08c379a000000000000000000000000000000000000000000000000000000000815260206004820152602a60248201527f4f7074696d69736d506f7274616c3a206f75747075742070726f706f73616c2060448201527f696e206169722d6761700000000000000000000000000000000000000000000060648201526084016109e0565b60008581526033602052604090205460ff1615611bf3576040517f08c379a000000000000000000000000000000000000000000000000000000000815260206004820152603560248201527f4f7074696d69736d506f7274616c3a207769746864726177616c20686173206160448201527f6c7265616479206265656e2066696e616c697a6564000000000000000000000060648201526084016109e0565b5050505050565b611c02610b5a565b73ffffffffffffffffffffffffffffffffffffffff163373ffffffffffffffffffffffffffffffffffffffff1614611c66576040517f82b4290000000000000000000000000000000000000000000000000000000000815260040160405180910390fd5b73ffffffffffffffffffffffffffffffffffffffff166000908152603a6020526040902080547fffffffffffffffffffffffffffffffffffffffffffffffffffffffffffffff00166001179055565b611cbd610b5a565b73ffffffffffffffffffffffffffffffffffffffff163373ffffffffffffffffffffffffffffffffffffffff1614611d21576040517f82b4290000000000000000000000000000000000000000000000000000000000815260040160405180910390fd5b603b805463ffffffff929092167fffffffffffffffffffffffffffffffffffffffff000000000000000000000000909216919091176401000000004267ffffffffffffffff1602179055565b565b611d776112d6565b15611dae576040517ff480973e00000000000000000000000000000000000000000000000000000000815260040160405180910390fd5b611db881336108fc565b50565b600054610100900460ff1615808015611ddb5750600054600160ff909116105b80611df55750303b158015611df5575060005460ff166001145b611e81576040517f08c379a000000000000000000000000000000000000000000000000000000000815260206004820152602e60248201527f496e697469616c697a61626c653a20636f6e747261637420697320616c72656160448201527f647920696e697469616c697a656400000000000000000000000000000000000060648201526084016109e0565b600080547fffffffffffffffffffffffffffffffffffffffffffffffffffffffffffffff001660011790558015611edf57600080547fffffffffffffffffffffffffffffffffffffffffffffffffffffffffffff00ff166101001790555b603880547fffffffffffffffffffffffff000000000000000000000000000000000000000090811673ffffffffffffffffffffffffffffffffffffffff8881169190911790925560378054909116868316179055603580547fffffffffffffffffffffff0000000000000000000000000000000000000000ff166101008684160217905560325416611fff576032805461dead7fffffffffffffffffffffffff0000000000000000000000000000000000000000909116179055603b80547fffffffffffffffffffffffffffffffffffffffff000000000000000000000000166401000000004267ffffffffffffffff16027fffffffffffffffffffffffffffffffffffffffffffffffffffffffff00000000161763ffffffff84161790555b6120076124d5565b8015611bf357600080547fffffffffffffffffffffffffffffffffffffffffffffffffffffffffffff00ff169055604051600181527f7f26b83ff96e1f2b6a682f133852f6798a09c465da95921460cefb38474024989060200160405180910390a15050505050565b600061207d826010615490565b612089906152086154c0565b92915050565b603c60205281600052604060002081815481106120ab57600080fd5b60009182526020909120015473ffffffffffffffffffffffffffffffffffffffff169150829050565b73ffffffffffffffffffffffffffffffffffffffff163b151590565b600154600090612126907801000000000000000000000000000000000000000000000000900467ffffffffffffffff164361545c565b905060006121326125e8565b90506000816020015160ff16826000015163ffffffff16612153919061551b565b9050821561228a5760015460009061218a908390700100000000000000000000000000000000900467ffffffffffffffff16615583565b90506000836040015160ff16836121a191906155f7565b6001546121c19084906fffffffffffffffffffffffffffffffff166155f7565b6121cb919061551b565b60015490915060009061221c906121f59084906fffffffffffffffffffffffffffffffff166156b3565b866060015163ffffffff168760a001516fffffffffffffffffffffffffffffffff166126a9565b9050600186111561224b576122486121f582876040015160ff1660018a612243919061545c565b6126c8565b90505b6fffffffffffffffffffffffffffffffff16780100000000000000000000000000000000000000000000000067ffffffffffffffff4316021760015550505b600180548691906010906122bd908490700100000000000000000000000000000000900467ffffffffffffffff166154c0565b92506101000a81548167ffffffffffffffff021916908367ffffffffffffffff160217905550816000015163ffffffff16600160000160109054906101000a900467ffffffffffffffff1667ffffffffffffffff16131561234a576040517f77ebef4d00000000000000000000000000000000000000000000000000000000815260040160405180910390fd5b600154600090612376906fffffffffffffffffffffffffffffffff1667ffffffffffffffff8816615727565b9050600061238848633b9aca0061271d565b6123929083615764565b905060005a6123a1908861545c565b9050808211156123bd576123bd6123b8828461545c565b612734565b5050505050505050565b80516020808301516040808501516060860151608087015160a088015193516000976123f7979096959101615778565b604051602081830303815290604052805190602001209050919050565b6000806000612424866000612762565b90508061245a576308c379a06000526020805278185361666543616c6c3a204e6f7420656e6f756768206761736058526064601cfd5b600080855160208701888b5af1979650505050505050565b600081600001518260200151836040015184606001516040516020016123f7949392919093845260208401929092526040830152606082015260800190565b6000806124bd86612780565b90506124cb818686866127b2565b9695505050505050565b600054610100900460ff1661256c576040517f08c379a000000000000000000000000000000000000000000000000000000000815260206004820152602b60248201527f496e697469616c697a61626c653a20636f6e7472616374206973206e6f74206960448201527f6e697469616c697a696e6700000000000000000000000000000000000000000060648201526084016109e0565b6001547801000000000000000000000000000000000000000000000000900467ffffffffffffffff16600003611d6d5760408051606081018252633b9aca00808252600060208301524367ffffffffffffffff169190920181905278010000000000000000000000000000000000000000000000000217600155565b6040805160c08082018352600080835260208301819052828401819052606083018190526080830181905260a083015260375483517fcc731b020000000000000000000000000000000000000000000000000000000081529351929373ffffffffffffffffffffffffffffffffffffffff9091169263cc731b02926004808401939192918290030181865afa158015612685573d6000803e3d6000fd5b505050506040513d601f19601f82011682018060405250810190610bed91906157e5565b60006126be6126b885856127e2565b836127f2565b90505b9392505050565b6000670de0b6b3a76400006127096126e0858361551b565b6126f290670de0b6b3a7640000615583565b61270485670de0b6b3a76400006155f7565b612801565b61271390866155f7565b6126be919061551b565b60008183101561272d57816126c1565b5090919050565b6000805a90505b825a612747908361545c565b101561275d57612756826158a1565b915061273b565b505050565b600080603f83619c4001026040850201603f5a021015949350505050565b6060818051906020012060405160200161279c91815260200190565b6040516020818303038152906040529050919050565b60006127d9846127c3878686612832565b8051602091820120825192909101919091201490565b95945050505050565b60008183121561272d57816126c1565b600081831261272d57816126c1565b60006126c1670de0b6b3a764000083612819866132b0565b61282391906155f7565b61282d919061551b565b6134f4565b6060600084511161289f576040517f08c379a000000000000000000000000000000000000000000000000000000000815260206004820152601560248201527f4d65726b6c65547269653a20656d707479206b6579000000000000000000000060448201526064016109e0565b60006128aa84613733565b905060006128b78661381f565b90506000846040516020016128ce91815260200190565b60405160208183030381529060405290506000805b8451811015613227576000858281518110612900576129006158d9565b60200260200101519050845183111561299b576040517f08c379a000000000000000000000000000000000000000000000000000000000815260206004820152602e60248201527f4d65726b6c65547269653a206b657920696e646578206578636565647320746f60448201527f74616c206b6579206c656e67746800000000000000000000000000000000000060648201526084016109e0565b82600003612a5457805180516020918201206040516129e9926129c392910190815260200190565b604051602081830303815290604052858051602091820120825192909101919091201490565b612a4f576040517f08c379a000000000000000000000000000000000000000000000000000000000815260206004820152601d60248201527f4d65726b6c65547269653a20696e76616c696420726f6f74206861736800000060448201526064016109e0565b612bab565b805151602011612b0a5780518051602091820120604051612a7e926129c392910190815260200190565b612a4f576040517f08c379a000000000000000000000000000000000000000000000000000000000815260206004820152602760248201527f4d65726b6c65547269653a20696e76616c6964206c6172676520696e7465726e60448201527f616c20686173680000000000000000000000000000000000000000000000000060648201526084016109e0565b805184516020808701919091208251919092012014612bab576040517f08c379a000000000000000000000000000000000000000000000000000000000815260206004820152602660248201527f4d65726b6c65547269653a20696e76616c696420696e7465726e616c206e6f6460448201527f652068617368000000000000000000000000000000000000000000000000000060648201526084016109e0565b612bb760106001615908565b81602001515103612d935784518303612d2b57612bf18160200151601081518110612be457612be46158d9565b6020026020010151613882565b96506000875111612c84576040517f08c379a000000000000000000000000000000000000000000000000000000000815260206004820152603b60248201527f4d65726b6c65547269653a2076616c7565206c656e677468206d75737420626560448201527f2067726561746572207468616e207a65726f20286272616e636829000000000060648201526084016109e0565b60018651612c92919061545c565b8214612d20576040517f08c379a000000000000000000000000000000000000000000000000000000000815260206004820152603a60248201527f4d65726b6c65547269653a2076616c7565206e6f6465206d757374206265206c60448201527f617374206e6f646520696e2070726f6f6620286272616e63682900000000000060648201526084016109e0565b5050505050506126c1565b6000858481518110612d3f57612d3f6158d9565b602001015160f81c60f81b60f81c9050600082602001518260ff1681518110612d6a57612d6a6158d9565b60200260200101519050612d7d816139e2565b9550612d8a600186615908565b94505050613214565b60028160200151510361318c576000612dab82613a07565b9050600081600081518110612dc257612dc26158d9565b016020015160f81c90506000612dd9600283615920565b612de4906002615942565b90506000612df5848360ff16613a2b565b90506000612e038a89613a2b565b90506000612e118383613a61565b905080835114612ea3576040517f08c379a000000000000000000000000000000000000000000000000000000000815260206004820152603a60248201527f4d65726b6c65547269653a20706174682072656d61696e646572206d7573742060448201527f736861726520616c6c206e6962626c65732077697468206b657900000000000060648201526084016109e0565b60ff851660021480612eb8575060ff85166003145b156130a75780825114612f4d576040517f08c379a000000000000000000000000000000000000000000000000000000000815260206004820152603d60248201527f4d65726b6c65547269653a206b65792072656d61696e646572206d757374206260448201527f65206964656e746963616c20746f20706174682072656d61696e64657200000060648201526084016109e0565b612f678760200151600181518110612be457612be46158d9565b9c5060008d5111612ffa576040517f08c379a000000000000000000000000000000000000000000000000000000000815260206004820152603960248201527f4d65726b6c65547269653a2076616c7565206c656e677468206d75737420626560448201527f2067726561746572207468616e207a65726f20286c656166290000000000000060648201526084016109e0565b60018c51613008919061545c565b8814613096576040517f08c379a000000000000000000000000000000000000000000000000000000000815260206004820152603860248201527f4d65726b6c65547269653a2076616c7565206e6f6465206d757374206265206c60448201527f617374206e6f646520696e2070726f6f6620286c65616629000000000000000060648201526084016109e0565b5050505050505050505050506126c1565b60ff851615806130ba575060ff85166001145b156130f9576130e687602001516001815181106130d9576130d96158d9565b60200260200101516139e2565b99506130f2818a615908565b9850613181565b6040517f08c379a000000000000000000000000000000000000000000000000000000000815260206004820152603260248201527f4d65726b6c65547269653a2072656365697665642061206e6f6465207769746860448201527f20616e20756e6b6e6f776e20707265666978000000000000000000000000000060648201526084016109e0565b505050505050613214565b6040517f08c379a000000000000000000000000000000000000000000000000000000000815260206004820152602860248201527f4d65726b6c65547269653a20726563656976656420616e20756e70617273656160448201527f626c65206e6f646500000000000000000000000000000000000000000000000060648201526084016109e0565b508061321f816158a1565b9150506128e3565b506040517f08c379a000000000000000000000000000000000000000000000000000000000815260206004820152602560248201527f4d65726b6c65547269653a2072616e206f7574206f662070726f6f6620656c6560448201527f6d656e747300000000000000000000000000000000000000000000000000000060648201526084016109e0565b600080821361331b576040517f08c379a000000000000000000000000000000000000000000000000000000000815260206004820152600960248201527f554e444546494e4544000000000000000000000000000000000000000000000060448201526064016109e0565b6000606061332884613b15565b03609f8181039490941b90931c6c465772b2bbbb5f824b15207a3081018102606090811d6d0388eaa27412d5aca026815d636e018202811d6d0df99ac502031bf953eff472fdcc018202811d6d13cdffb29d51d99322bdff5f2211018202811d6d0a0f742023def783a307a986912e018202811d6d01920d8043ca89b5239253284e42018202811d6c0b7a86d7375468fac667a0a527016c29508e458543d8aa4df2abee7883018302821d6d0139601a2efabe717e604cbb4894018302821d6d02247f7a7b6594320649aa03aba1018302821d7fffffffffffffffffffffffffffffffffffffff73c0c716a594e00d54e3c4cbc9018302821d7ffffffffffffffffffffffffffffffffffffffdc7b88c420e53a9890533129f6f01830290911d7fffffffffffffffffffffffffffffffffffffff465fda27eb4d63ded474e5f832019091027ffffffffffffffff5f6af8f7b3396644f18e157960000000000000000000000000105711340daa0d5f769dba1915cef59f0815a5506027d0267a36c0c95b3975ab3ee5b203a7614a3f75373f047d803ae7b6687f2b393909302929092017d57115e47018c7177eebf7cd370a3356a1b7863008a5ae8028c72b88642840160ae1d92915050565b60007ffffffffffffffffffffffffffffffffffffffffffffffffdb731c958f34d94c1821361352557506000919050565b680755bf798b4a1bf1e58212613597576040517f08c379a000000000000000000000000000000000000000000000000000000000815260206004820152600c60248201527f4558505f4f564552464c4f57000000000000000000000000000000000000000060448201526064016109e0565b6503782dace9d9604e83901b059150600060606bb17217f7d1cf79abc9e3b39884821b056b80000000000000000000000001901d6bb17217f7d1cf79abc9e3b39881029093037fffffffffffffffffffffffffffffffffffffffdbf3ccf1604d263450f02a550481018102606090811d6d0277594991cfc85f6e2461837cd9018202811d7fffffffffffffffffffffffffffffffffffffe5adedaa1cb095af9e4da10e363c018202811d6db1bbb201f443cf962f1a1d3db4a5018202811d7ffffffffffffffffffffffffffffffffffffd38dc772608b0ae56cce01296c0eb018202811d6e05180bb14799ab47a8a8cb2a527d57016d02d16720577bd19bf614176fe9ea6c10fe68e7fd37d0007b713f765084018402831d9081019084017ffffffffffffffffffffffffffffffffffffffe2c69812cf03b0763fd454a8f7e010290911d6e0587f503bb6ea29d25fcb7401964500190910279d835ebba824c98fb31b83b2ca45c000000000000000000000000010574029d9dc38563c32e5c2f6dc192ee70ef65f9978af30260c3939093039290921c92915050565b80516060908067ffffffffffffffff81111561375157613751614c38565b60405190808252806020026020018201604052801561379657816020015b604080518082019091526060808252602082015281526020019060019003908161376f5790505b50915060005b818110156138185760405180604001604052808583815181106137c1576137c16158d9565b602002602001015181526020016137f08684815181106137e3576137e36158d9565b6020026020010151613beb565b815250838281518110613805576138056158d9565b602090810291909101015260010161379c565b5050919050565b606080604051905082518060011b603f8101601f1916830160405280835250602084016020830160005b83811015613877578060011b82018184015160001a8060041c8253600f811660018301535050600101613849565b509295945050505050565b6060600080600061389285613bfe565b9194509250905060008160018111156138ad576138ad61531f565b1461393a576040517f08c379a000000000000000000000000000000000000000000000000000000000815260206004820152603960248201527f524c505265616465723a206465636f646564206974656d207479706520666f7260448201527f206279746573206973206e6f7420612064617461206974656d0000000000000060648201526084016109e0565b6139448284615908565b8551146139d3576040517f08c379a000000000000000000000000000000000000000000000000000000000815260206004820152603460248201527f524c505265616465723a2062797465732076616c756520636f6e7461696e732060448201527f616e20696e76616c69642072656d61696e64657200000000000000000000000060648201526084016109e0565b6127d98560200151848461466b565b606060208260000151106139fe576139f982613882565b612089565b612089826146ff565b6060612089613a268360200151600081518110612be457612be46158d9565b61381f565b606082518210613a4a5750604080516020810190915260008152612089565b6126c18383848651613a5c919061545c565b614715565b6000808251845110613a74578251613a77565b83515b90505b8082108015613afe5750828281518110613a9657613a966158d9565b602001015160f81c60f81b7effffffffffffffffffffffffffffffffffffffffffffffffffffffffffffff1916848381518110613ad557613ad56158d9565b01602001517fff0000000000000000000000000000000000000000000000000000000000000016145b15613b0e57816001019150613a7a565b5092915050565b6000808211613b80576040517f08c379a000000000000000000000000000000000000000000000000000000000815260206004820152600960248201527f554e444546494e4544000000000000000000000000000000000000000000000060448201526064016109e0565b5060016fffffffffffffffffffffffffffffffff821160071b82811c67ffffffffffffffff1060061b1782811c63ffffffff1060051b1782811c61ffff1060041b1782811c60ff10600390811b90911783811c600f1060021b1783811c909110821b1791821c111790565b6060612089613bf9836148ed565b6149d6565b600080600080846000015111613cbc576040517f08c379a000000000000000000000000000000000000000000000000000000000815260206004820152604a60248201527f524c505265616465723a206c656e677468206f6620616e20524c50206974656d60448201527f206d7573742062652067726561746572207468616e207a65726f20746f20626560648201527f206465636f6461626c6500000000000000000000000000000000000000000000608482015260a4016109e0565b6020840151805160001a607f8111613ce1576000600160009450945094505050614664565b60b78111613eef576000613cf660808361545c565b905080876000015111613db1576040517f08c379a000000000000000000000000000000000000000000000000000000000815260206004820152604e60248201527f524c505265616465723a206c656e677468206f6620636f6e74656e74206d757360448201527f742062652067726561746572207468616e20737472696e67206c656e6774682060648201527f2873686f727420737472696e6729000000000000000000000000000000000000608482015260a4016109e0565b6001838101517fff00000000000000000000000000000000000000000000000000000000000000169082141580613e2a57507f80000000000000000000000000000000000000000000000000000000000000007fff00000000000000000000000000000000000000000000000000000000000000821610155b613edc576040517f08c379a000000000000000000000000000000000000000000000000000000000815260206004820152604d60248201527f524c505265616465723a20696e76616c6964207072656669782c2073696e676c60448201527f652062797465203c203078383020617265206e6f74207072656669786564202860648201527f73686f727420737472696e672900000000000000000000000000000000000000608482015260a4016109e0565b5060019550935060009250614664915050565b60bf811161423d576000613f0460b78361545c565b905080876000015111613fbf576040517f08c379a000000000000000000000000000000000000000000000000000000000815260206004820152605160248201527f524c505265616465723a206c656e677468206f6620636f6e74656e74206d757360448201527f74206265203e207468616e206c656e677468206f6620737472696e67206c656e60648201527f67746820286c6f6e6720737472696e6729000000000000000000000000000000608482015260a4016109e0565b60018301517fff0000000000000000000000000000000000000000000000000000000000000016600081900361409d576040517f08c379a000000000000000000000000000000000000000000000000000000000815260206004820152604a60248201527f524c505265616465723a206c656e677468206f6620636f6e74656e74206d757360448201527f74206e6f74206861766520616e79206c656164696e67207a65726f7320286c6f60648201527f6e6720737472696e672900000000000000000000000000000000000000000000608482015260a4016109e0565b600184015160088302610100031c60378111614161576040517f08c379a000000000000000000000000000000000000000000000000000000000815260206004820152604860248201527f524c505265616465723a206c656e677468206f6620636f6e74656e74206d757360448201527f742062652067726561746572207468616e20353520627974657320286c6f6e6760648201527f20737472696e6729000000000000000000000000000000000000000000000000608482015260a4016109e0565b61416b8184615908565b895111614220576040517f08c379a000000000000000000000000000000000000000000000000000000000815260206004820152604c60248201527f524c505265616465723a206c656e677468206f6620636f6e74656e74206d757360448201527f742062652067726561746572207468616e20746f74616c206c656e677468202860648201527f6c6f6e6720737472696e67290000000000000000000000000000000000000000608482015260a4016109e0565b61422b836001615908565b97509550600094506146649350505050565b60f7811161431e57600061425260c08361545c565b90508087600001511161430d576040517f08c379a000000000000000000000000000000000000000000000000000000000815260206004820152604a60248201527f524c505265616465723a206c656e677468206f6620636f6e74656e74206d757360448201527f742062652067726561746572207468616e206c697374206c656e67746820287360648201527f686f7274206c6973742900000000000000000000000000000000000000000000608482015260a4016109e0565b600195509350849250614664915050565b600061432b60f78361545c565b9050808760000151116143e6576040517f08c379a000000000000000000000000000000000000000000000000000000000815260206004820152604d60248201527f524c505265616465723a206c656e677468206f6620636f6e74656e74206d757360448201527f74206265203e207468616e206c656e677468206f66206c697374206c656e677460648201527f6820286c6f6e67206c6973742900000000000000000000000000000000000000608482015260a4016109e0565b60018301517fff000000000000000000000000000000000000000000000000000000000000001660008190036144c4576040517f08c379a000000000000000000000000000000000000000000000000000000000815260206004820152604860248201527f524c505265616465723a206c656e677468206f6620636f6e74656e74206d757360448201527f74206e6f74206861766520616e79206c656164696e67207a65726f7320286c6f60648201527f6e67206c69737429000000000000000000000000000000000000000000000000608482015260a4016109e0565b600184015160088302610100031c60378111614588576040517f08c379a000000000000000000000000000000000000000000000000000000000815260206004820152604660248201527f524c505265616465723a206c656e677468206f6620636f6e74656e74206d757360448201527f742062652067726561746572207468616e20353520627974657320286c6f6e6760648201527f206c697374290000000000000000000000000000000000000000000000000000608482015260a4016109e0565b6145928184615908565b895111614647576040517f08c379a000000000000000000000000000000000000000000000000000000000815260206004820152604a60248201527f524c505265616465723a206c656e677468206f6620636f6e74656e74206d757360448201527f742062652067726561746572207468616e20746f74616c206c656e677468202860648201527f6c6f6e67206c6973742900000000000000000000000000000000000000000000608482015260a4016109e0565b614652836001615908565b97509550600194506146649350505050565b9193909250565b60608167ffffffffffffffff81111561468657614686614c38565b6040519080825280601f01601f1916602001820160405280156146b0576020820181803683370190505b50905081156126c15760006146c58486615908565b90506020820160005b848110156146e65782810151828201526020016146ce565b848111156146f5576000858301525b5050509392505050565b606061208982602001516000846000015161466b565b60608182601f011015614784576040517f08c379a000000000000000000000000000000000000000000000000000000000815260206004820152600e60248201527f736c6963655f6f766572666c6f7700000000000000000000000000000000000060448201526064016109e0565b8282840110156147f0576040517f08c379a000000000000000000000000000000000000000000000000000000000815260206004820152600e60248201527f736c6963655f6f766572666c6f7700000000000000000000000000000000000060448201526064016109e0565b8183018451101561485d576040517f08c379a000000000000000000000000000000000000000000000000000000000815260206004820152601160248201527f736c6963655f6f75744f66426f756e647300000000000000000000000000000060448201526064016109e0565b60608215801561487c57604051915060008252602082016040526148e4565b6040519150601f8416801560200281840101858101878315602002848b0101015b818310156148b557805183526020928301920161489d565b5050858452601f017fffffffffffffffffffffffffffffffffffffffffffffffffffffffffffffffe016604052505b50949350505050565b604080518082019091526000808252602082015260008251116149b8576040517f08c379a000000000000000000000000000000000000000000000000000000000815260206004820152604a60248201527f524c505265616465723a206c656e677468206f6620616e20524c50206974656d60448201527f206d7573742062652067726561746572207468616e207a65726f20746f20626560648201527f206465636f6461626c6500000000000000000000000000000000000000000000608482015260a4016109e0565b50604080518082019091528151815260209182019181019190915290565b606060008060006149e685613bfe565b919450925090506001816001811115614a0157614a0161531f565b14614a8e576040517f08c379a000000000000000000000000000000000000000000000000000000000815260206004820152603860248201527f524c505265616465723a206465636f646564206974656d207479706520666f7260448201527f206c697374206973206e6f742061206c697374206974656d000000000000000060648201526084016109e0565b8451614a9a8385615908565b14614b27576040517f08c379a000000000000000000000000000000000000000000000000000000000815260206004820152603260248201527f524c505265616465723a206c697374206974656d2068617320616e20696e766160448201527f6c696420646174612072656d61696e646572000000000000000000000000000060648201526084016109e0565b604080516020808252610420820190925290816020015b6040805180820190915260008082526020820152815260200190600190039081614b3e5790505093506000835b8651811015614c2c57600080614bb16040518060400160405280858c60000151614b95919061545c565b8152602001858c60200151614baa9190615908565b9052613bfe565b509150915060405180604001604052808383614bcd9190615908565b8152602001848b60200151614be29190615908565b815250888581518110614bf757614bf76158d9565b6020908102919091010152614c0d600185615908565b9350614c198183615908565b614c239084615908565b92505050614b6b565b50845250919392505050565b7f4e487b7100000000000000000000000000000000000000000000000000000000600052604160045260246000fd5b604051601f82017fffffffffffffffffffffffffffffffffffffffffffffffffffffffffffffffe016810167ffffffffffffffff81118282101715614cae57614cae614c38565b604052919050565b73ffffffffffffffffffffffffffffffffffffffff81168114611db857600080fd5b600082601f830112614ce957600080fd5b813567ffffffffffffffff811115614d0357614d03614c38565b614d3460207fffffffffffffffffffffffffffffffffffffffffffffffffffffffffffffffe0601f84011601614c67565b818152846020838601011115614d4957600080fd5b816020850160208301376000918101602001919091529392505050565b600060c08284031215614d7857600080fd5b60405160c0810167ffffffffffffffff8282108183111715614d9c57614d9c614c38565b816040528293508435835260208501359150614db782614cb6565b81602084015260408501359150614dcd82614cb6565b816040840152606085013560608401526080850135608084015260a0850135915080821115614dfb57600080fd5b50614e0885828601614cd8565b60a0830152505092915050565b60008060408385031215614e2857600080fd5b823567ffffffffffffffff811115614e3f57600080fd5b614e4b85828601614d66565b9250506020830135614e5c81614cb6565b809150509250929050565b600060208284031215614e7957600080fd5b81356126c181614cb6565b600080600080600085870360e0811215614e9d57600080fd5b863567ffffffffffffffff80821115614eb557600080fd5b614ec18a838b01614d66565b97506020890135965060807fffffffffffffffffffffffffffffffffffffffffffffffffffffffffffffffc084011215614efa57600080fd5b60408901955060c0890135925080831115614f1457600080fd5b828901925089601f840112614f2857600080fd5b8235915080821115614f3957600080fd5b508860208260051b8401011115614f4f57600080fd5b959894975092955050506020019190565b600060208284031215614f7257600080fd5b5035919050565b60005b83811015614f94578181015183820152602001614f7c565b83811115610b545750506000910152565b60008151808452614fbd816020860160208601614f79565b601f017fffffffffffffffffffffffffffffffffffffffffffffffffffffffffffffffe0169290920160200192915050565b6020815260006126c16020830184614fa5565b6000806040838503121561501557600080fd5b823591506020830135614e5c81614cb6565b63ffffffff81168114611db857600080fd5b60006020828403121561504b57600080fd5b81356126c181615027565b60006020828403121561506857600080fd5b813567ffffffffffffffff81111561507f57600080fd5b61508b84828501614d66565b949350505050565b600080600080608085870312156150a957600080fd5b84356150b481614cb6565b935060208501356150c481614cb6565b925060408501356150d481614cb6565b915060608501356150e481615027565b939692955090935050565b67ffffffffffffffff81168114611db857600080fd5b60006020828403121561511757600080fd5b81356126c1816150ef565b6000806040838503121561513557600080fd5b50508035926020909101359150565b8015158114611db857600080fd5b600080600080600060a0868803121561516a57600080fd5b853561517581614cb6565b945060208601359350604086013561518c816150ef565b9250606086013561519c81615144565b9150608086013567ffffffffffffffff8111156151b857600080fd5b6151c488828901614cd8565b9150509295509295909350565b8581528460208201527fffffffffffffffff0000000000000000000000000000000000000000000000008460c01b16604082015282151560f81b604882015260008251615225816049850160208701614f79565b919091016049019695505050505050565b60006020828403121561524857600080fd5b81516126c181614cb6565b60008060006060848603121561526857600080fd5b835161527381615027565b6020850151909350615284816150ef565b604085015190925061529581614cb6565b809150509250925092565b6000602082840312156152b257600080fd5b5051919050565b6000608082840312156152cb57600080fd5b6040516080810181811067ffffffffffffffff821117156152ee576152ee614c38565b8060405250823581526020830135602082015260408301356040820152606083013560608201528091505092915050565b7f4e487b7100000000000000000000000000000000000000000000000000000000600052602160045260246000fd5b60006020828403121561536057600080fd5b8151600381106126c157600080fd5b600067ffffffffffffffff8084111561538a5761538a614c38565b8360051b602061539b818301614c67565b8681529185019181810190368411156153b357600080fd5b865b848110156153e7578035868111156153cd5760008081fd5b6153d936828b01614cd8565b8452509183019183016153b5565b50979650505050505050565b60006020828403121561540557600080fd5b81516126c181615144565b60006020828403121561542257600080fd5b81516126c1816150ef565b7f4e487b7100000000000000000000000000000000000000000000000000000000600052601160045260246000fd5b60008282101561546e5761546e61542d565b500390565b60006020828403121561548557600080fd5b81516126c181615027565b600067ffffffffffffffff808316818516818304811182151516156154b7576154b761542d565b02949350505050565b600067ffffffffffffffff8083168185168083038211156154e3576154e361542d565b01949350505050565b7f4e487b7100000000000000000000000000000000000000000000000000000000600052601260045260246000fd5b60008261552a5761552a6154ec565b7fffffffffffffffffffffffffffffffffffffffffffffffffffffffffffffffff83147f80000000000000000000000000000000000000000000000000000000000000008314161561557e5761557e61542d565b500590565b6000808312837f8000000000000000000000000000000000000000000000000000000000000000018312811516156155bd576155bd61542d565b837f7fffffffffffffffffffffffffffffffffffffffffffffffffffffffffffffff0183138116156155f1576155f161542d565b50500390565b60007f7fffffffffffffffffffffffffffffffffffffffffffffffffffffffffffffff6000841360008413858304851182821616156156385761563861542d565b7f800000000000000000000000000000000000000000000000000000000000000060008712868205881281841616156156735761567361542d565b6000871292508782058712848416161561568f5761568f61542d565b878505871281841616156156a5576156a561542d565b505050929093029392505050565b6000808212827f7fffffffffffffffffffffffffffffffffffffffffffffffffffffffffffffff038413811516156156ed576156ed61542d565b827f80000000000000000000000000000000000000000000000000000000000000000384128116156157215761572161542d565b50500190565b6000817fffffffffffffffffffffffffffffffffffffffffffffffffffffffffffffffff048311821515161561575f5761575f61542d565b500290565b600082615773576157736154ec565b500490565b868152600073ffffffffffffffffffffffffffffffffffffffff808816602084015280871660408401525084606083015283608083015260c060a08301526157c360c0830184614fa5565b98975050505050505050565b805160ff811681146157e057600080fd5b919050565b600060c082840312156157f757600080fd5b60405160c0810181811067ffffffffffffffff8211171561581a5761581a614c38565b604052825161582881615027565b8152615836602084016157cf565b6020820152615847604084016157cf565b6040820152606083015161585a81615027565b6060820152608083015161586d81615027565b608082015260a08301516fffffffffffffffffffffffffffffffff8116811461589557600080fd5b60a08201529392505050565b60007fffffffffffffffffffffffffffffffffffffffffffffffffffffffffffffffff82036158d2576158d261542d565b5060010190565b7f4e487b7100000000000000000000000000000000000000000000000000000000600052603260045260246000fd5b6000821982111561591b5761591b61542d565b500190565b600060ff831680615933576159336154ec565b8060ff84160691505092915050565b600060ff821660ff84168082101561595c5761595c61542d565b9003939250505056fea164736f6c634300080f000a","linkReferences":{}},"methodIdentifiers":{"blacklistDisputeGame(address)":"7d6be8dc","checkWithdrawal(bytes32,address)":"71c1566e","depositTransaction(address,uint256,uint64,bool,bytes)":"e9e05c42","disputeGameBlacklist(address)":"45884d32","disputeGameFactory()":"f2b4e617","disputeGameFinalityDelaySeconds()":"952b2797","donateETH()":"8b4c40b0","finalizeWithdrawalTransaction((uint256,address,address,uint256,uint256,bytes))":"8c3152e9","finalizeWithdrawalTransactionExternalProof((uint256,address,address,uint256,uint256,bytes),address)":"43ca1c50","finalizedWithdrawals(bytes32)":"a14238e7","guardian()":"452a9320","initialize(address,address,address,uint32)":"8e819e54","l2Sender()":"9bf62d82","minimumGasLimit(uint64)":"a35d99df","numProofSubmitters(bytes32)":"513747ab","params()":"cff0ab96","paused()":"5c975abb","proofMaturityDelaySeconds()":"bf653a5c","proofSubmitters(bytes32,uint256)":"a3860f48","proveWithdrawalTransaction((uint256,address,address,uint256,uint256,bytes),uint256,(bytes32,bytes32,bytes32,bytes32),bytes[])":"4870496f","provenWithdrawals(bytes32,address)":"bb2c727e","respectedGameType()":"3c9f397c","respectedGameTypeUpdatedAt()":"4fd0434c","setRespectedGameType(uint32)":"7fc48504","superchainConfig()":"35e80ab3","systemConfig()":"33d7e2bd","version()":"54fd4d50"},"storageLayout":{"storage":[{"astId":49534,"contract":"src/L1/OptimismPortal2.sol:OptimismPortal2","label":"_initialized","offset":0,"slot":"0","type":"t_uint8"},{"astId":49537,"contract":"src/L1/OptimismPortal2.sol:OptimismPortal2","label":"_initializing","offset":1,"slot":"0","type":"t_bool"},{"astId":88262,"contract":"src/L1/OptimismPortal2.sol:OptimismPortal2","label":"params","offset":0,"slot":"1","type":"t_struct(ResourceParams)88245_storage"},{"astId":88267,"contract":"src/L1/OptimismPortal2.sol:OptimismPortal2","label":"__gap","offset":0,"slot":"2","type":"t_array(t_uint256)48_storage"},{"astId":87165,"contract":"src/L1/OptimismPortal2.sol:OptimismPortal2","label":"l2Sender","offset":0,"slot":"50","type":"t_address"},{"astId":87170,"contract":"src/L1/OptimismPortal2.sol:OptimismPortal2","label":"finalizedWithdrawals","offset":0,"slot":"51","type":"t_mapping(t_bytes32,t_bool)"},{"astId":87173,"contract":"src/L1/OptimismPortal2.sol:OptimismPortal2","label":"spacer_52_0_32","offset":0,"slot":"52","type":"t_bytes32"},{"astId":87176,"contract":"src/L1/OptimismPortal2.sol:OptimismPortal2","label":"spacer_53_0_1","offset":0,"slot":"53","type":"t_bool"},{"astId":87180,"contract":"src/L1/OptimismPortal2.sol:OptimismPortal2","label":"superchainConfig","offset":1,"slot":"53","type":"t_contract(SuperchainConfig)88793"},{"astId":87183,"contract":"src/L1/OptimismPortal2.sol:OptimismPortal2","label":"spacer_54_0_20","offset":0,"slot":"54","type":"t_address"},{"astId":87187,"contract":"src/L1/OptimismPortal2.sol:OptimismPortal2","label":"systemConfig","offset":0,"slot":"55","type":"t_contract(SystemConfig)89607"},{"astId":87191,"contract":"src/L1/OptimismPortal2.sol:OptimismPortal2","label":"disputeGameFactory","offset":0,"slot":"56","type":"t_contract(DisputeGameFactory)97682"},{"astId":87199,"contract":"src/L1/OptimismPortal2.sol:OptimismPortal2","label":"provenWithdrawals","offset":0,"slot":"57","type":"t_mapping(t_bytes32,t_mapping(t_address,t_struct(ProvenWithdrawal)87148_storage))"},{"astId":87205,"contract":"src/L1/OptimismPortal2.sol:OptimismPortal2","label":"disputeGameBlacklist","offset":0,"slot":"58","type":"t_mapping(t_contract(IDisputeGame)100327,t_bool)"},{"astId":87209,"contract":"src/L1/OptimismPortal2.sol:OptimismPortal2","label":"respectedGameType","offset":0,"slot":"59","type":"t_userDefinedValueType(GameType)103271"},{"astId":87212,"contract":"src/L1/OptimismPortal2.sol:OptimismPortal2","label":"respectedGameTypeUpdatedAt","offset":4,"slot":"59","type":"t_uint64"},{"astId":87218,"contract":"src/L1/OptimismPortal2.sol:OptimismPortal2","label":"proofSubmitters","offset":0,"slot":"60","type":"t_mapping(t_bytes32,t_array(t_address)dyn_storage)"}],"types":{"t_address":{"encoding":"inplace","label":"address","numberOfBytes":"20"},"t_array(t_address)dyn_storage":{"encoding":"dynamic_array","label":"address[]","numberOfBytes":"32","base":"t_address"},"t_array(t_uint256)48_storage":{"encoding":"inplace","label":"uint256[48]","numberOfBytes":"1536","base":"t_uint256"},"t_bool":{"encoding":"inplace","label":"bool","numberOfBytes":"1"},"t_bytes32":{"encoding":"inplace","label":"bytes32","numberOfBytes":"32"},"t_contract(DisputeGameFactory)97682":{"encoding":"inplace","label":"contract DisputeGameFactory","numberOfBytes":"20"},"t_contract(IDisputeGame)100327":{"encoding":"inplace","label":"contract IDisputeGame","numberOfBytes":"20"},"t_contract(SuperchainConfig)88793":{"encoding":"inplace","label":"contract SuperchainConfig","numberOfBytes":"20"},"t_contract(SystemConfig)89607":{"encoding":"inplace","label":"contract SystemConfig","numberOfBytes":"20"},"t_mapping(t_address,t_struct(ProvenWithdrawal)87148_storage)":{"encoding":"mapping","key":"t_address","label":"mapping(address => struct OptimismPortal2.ProvenWithdrawal)","numberOfBytes":"32","value":"t_struct(ProvenWithdrawal)87148_storage"},"t_mapping(t_bytes32,t_array(t_address)dyn_storage)":{"encoding":"mapping","key":"t_bytes32","label":"mapping(bytes32 => address[])","numberOfBytes":"32","value":"t_array(t_address)dyn_storage"},"t_mapping(t_bytes32,t_bool)":{"encoding":"mapping","key":"t_bytes32","label":"mapping(bytes32 => bool)","numberOfBytes":"32","value":"t_bool"},"t_mapping(t_bytes32,t_mapping(t_address,t_struct(ProvenWithdrawal)87148_storage))":{"encoding":"mapping","key":"t_bytes32","label":"mapping(bytes32 => mapping(address => struct OptimismPortal2.ProvenWithdrawal))","numberOfBytes":"32","value":"t_mapping(t_address,t_struct(ProvenWithdrawal)87148_storage)"},"t_mapping(t_contract(IDisputeGame)100327,t_bool)":{"encoding":"mapping","key":"t_contract(IDisputeGame)100327","label":"mapping(contract IDisputeGame => bool)","numberOfBytes":"32","value":"t_bool"},"t_struct(ProvenWithdrawal)87148_storage":{"encoding":"inplace","label":"struct OptimismPortal2.ProvenWithdrawal","numberOfBytes":"32","members":[{"astId":87145,"contract":"src/L1/OptimismPortal2.sol:OptimismPortal2","label":"disputeGameProxy","offset":0,"slot":"0","type":"t_contract(IDisputeGame)100327"},{"astId":87147,"contract":"src/L1/OptimismPortal2.sol:OptimismPortal2","label":"timestamp","offset":20,"slot":"0","type":"t_uint64"}]},"t_struct(ResourceParams)88245_storage":{"encoding":"inplace","label":"struct ResourceMetering.ResourceParams","numberOfBytes":"32","members":[{"astId":88240,"contract":"src/L1/OptimismPortal2.sol:OptimismPortal2","label":"prevBaseFee","offset":0,"slot":"0","type":"t_uint128"},{"astId":88242,"contract":"src/L1/OptimismPortal2.sol:OptimismPortal2","label":"prevBoughtGas","offset":16,"slot":"0","type":"t_uint64"},{"astId":88244,"contract":"src/L1/OptimismPortal2.sol:OptimismPortal2","label":"prevBlockNum","offset":24,"slot":"0","type":"t_uint64"}]},"t_uint128":{"encoding":"inplace","label":"uint128","numberOfBytes":"16"},"t_uint256":{"encoding":"inplace","label":"uint256","numberOfBytes":"32"},"t_uint64":{"encoding":"inplace","label":"uint64","numberOfBytes":"8"},"t_uint8":{"encoding":"inplace","label":"uint8","numberOfBytes":"1"},"t_userDefinedValueType(GameType)103271":{"encoding":"inplace","label":"GameType","numberOfBytes":"4"}}},"userdoc":{"version":1,"kind":"user","methods":{"blacklistDisputeGame(address)":{"notice":"Blacklists a dispute game. Should only be used in the event that a dispute game resolves incorrectly."},"checkWithdrawal(bytes32,address)":{"notice":"Checks if a withdrawal can be finalized. This function will revert if the withdrawal cannot be         finalized, and otherwise has no side-effects."},"constructor":{"notice":"Constructs the OptimismPortal contract."},"depositTransaction(address,uint256,uint64,bool,bytes)":{"notice":"Accepts deposits of ETH and data, and emits a TransactionDeposited event for use in         deriving deposit transactions. Note that if a deposit is made by a contract, its         address will be aliased when retrieved using `tx.origin` or `msg.sender`. Consider         using the CrossDomainMessenger contracts for a simpler developer experience."},"disputeGameBlacklist(address)":{"notice":"A mapping of dispute game addresses to whether or not they are blacklisted."},"disputeGameFactory()":{"notice":"Address of the DisputeGameFactory."},"disputeGameFinalityDelaySeconds()":{"notice":"Getter for the dispute game finality delay."},"donateETH()":{"notice":"Accepts ETH value without triggering a deposit to L2.         This function mainly exists for the sake of the migration between the legacy         Optimism system and Bedrock."},"finalizeWithdrawalTransaction((uint256,address,address,uint256,uint256,bytes))":{"notice":"Finalizes a withdrawal transaction."},"finalizeWithdrawalTransactionExternalProof((uint256,address,address,uint256,uint256,bytes),address)":{"notice":"Finalizes a withdrawal transaction, using an external proof submitter."},"finalizedWithdrawals(bytes32)":{"notice":"A list of withdrawal hashes which have been successfully finalized."},"guardian()":{"notice":"Getter function for the address of the guardian.         Public getter is legacy and will be removed in the future. Use `SuperchainConfig.guardian()` instead."},"initialize(address,address,address,uint32)":{"notice":"Initializer."},"l2Sender()":{"notice":"Address of the L2 account which initiated a withdrawal in this transaction.         If the of this variable is the default L2 sender address, then we are NOT inside of         a call to finalizeWithdrawalTransaction."},"minimumGasLimit(uint64)":{"notice":"Computes the minimum gas limit for a deposit.         The minimum gas limit linearly increases based on the size of the calldata.         This is to prevent users from creating L2 resource usage without paying for it.         This function can be used when interacting with the portal to ensure forwards         compatibility."},"numProofSubmitters(bytes32)":{"notice":"External getter for the number of proof submitters for a withdrawal hash."},"params()":{"notice":"EIP-1559 style gas parameters."},"paused()":{"notice":"Getter for the current paused status."},"proofMaturityDelaySeconds()":{"notice":"Getter for the proof maturity delay."},"proofSubmitters(bytes32,uint256)":{"notice":"Mapping of withdrawal hashes to addresses that have submitted a proof for the withdrawal."},"proveWithdrawalTransaction((uint256,address,address,uint256,uint256,bytes),uint256,(bytes32,bytes32,bytes32,bytes32),bytes[])":{"notice":"Proves a withdrawal transaction."},"provenWithdrawals(bytes32,address)":{"notice":"A mapping of withdrawal hashes to proof submitters to `ProvenWithdrawal` data."},"respectedGameType()":{"notice":"The game type that the OptimismPortal consults for output proposals."},"respectedGameTypeUpdatedAt()":{"notice":"The timestamp at which the respected game type was last updated."},"setRespectedGameType(uint32)":{"notice":"Sets the respected game type. Changing this value can alter the security properties of the system,         depending on the new game's behavior."},"superchainConfig()":{"notice":"Contract of the Superchain Config."},"systemConfig()":{"notice":"Contract of the SystemConfig."},"version()":{"notice":"Semantic version."}},"events":{"TransactionDeposited(address,address,uint256,bytes)":{"notice":"Emitted when a transaction is deposited from L1 to L2.         The parameters of this event are read by the rollup node and used to derive deposit         transactions on L2."},"WithdrawalFinalized(bytes32,bool)":{"notice":"Emitted when a withdrawal transaction is finalized."},"WithdrawalProven(bytes32,address,address)":{"notice":"Emitted when a withdrawal transaction is proven."}},"errors":{"BadTarget()":[{"notice":"Error for when a deposit or withdrawal is to a bad target."}],"CallPaused()":[{"notice":"Error for when a method cannot be called when paused. This could be renamed         to `Paused` in the future, but it collides with the `Paused` event."}],"GasEstimation()":[{"notice":"Error for special gas estimation."}],"LargeCalldata()":[{"notice":"Error for when a deposit has too much calldata."}],"OutOfGas()":[{"notice":"Error returned when too much gas resource is consumed."}],"SmallGasLimit()":[{"notice":"Error for when a deposit has too small of a gas limit."}],"Unauthorized()":[{"notice":"Error for an unauthorized CALLER."}]},"notice":"The OptimismPortal is a low-level contract responsible for passing messages between L1         and L2. Messages sent directly to the OptimismPortal have no form of replayability.         Users are encouraged to use the L1CrossDomainMessenger for a higher-level interface."},"devdoc":{"version":1,"kind":"dev","methods":{"blacklistDisputeGame(address)":{"params":{"_disputeGame":"Dispute game to blacklist."}},"checkWithdrawal(bytes32,address)":{"params":{"_proofSubmitter":"The submitter of the proof for the withdrawal hash","_withdrawalHash":"Hash of the withdrawal to check."}},"depositTransaction(address,uint256,uint64,bool,bytes)":{"params":{"_data":"Data to trigger the recipient with.","_gasLimit":"Amount of L2 gas to purchase by burning gas on L1.","_isCreation":"Whether or not the transaction is a contract creation.","_to":"Target address on L2.","_value":"ETH value to send to the recipient."}},"finalizeWithdrawalTransaction((uint256,address,address,uint256,uint256,bytes))":{"params":{"_tx":"Withdrawal transaction to finalize."}},"finalizeWithdrawalTransactionExternalProof((uint256,address,address,uint256,uint256,bytes),address)":{"params":{"_proofSubmitter":"Address of the proof submitter.","_tx":"Withdrawal transaction to finalize."}},"guardian()":{"returns":{"_0":"Address of the guardian."}},"initialize(address,address,address,uint32)":{"params":{"_disputeGameFactory":"Contract of the DisputeGameFactory.","_superchainConfig":"Contract of the SuperchainConfig.","_systemConfig":"Contract of the SystemConfig."}},"minimumGasLimit(uint64)":{"params":{"_byteCount":"Number of bytes in the calldata."},"returns":{"_0":"The minimum gas limit for a deposit."}},"numProofSubmitters(bytes32)":{"params":{"_withdrawalHash":"Hash of the withdrawal."},"returns":{"_0":"The number of proof submitters for the withdrawal hash."}},"proveWithdrawalTransaction((uint256,address,address,uint256,uint256,bytes),uint256,(bytes32,bytes32,bytes32,bytes32),bytes[])":{"params":{"_disputeGameIndex":"Index of the dispute game to prove the withdrawal against.","_outputRootProof":"Inclusion proof of the L2ToL1MessagePasser contract's storage root.","_tx":"Withdrawal transaction to finalize.","_withdrawalProof":"Inclusion proof of the withdrawal in L2ToL1MessagePasser contract."}},"setRespectedGameType(uint32)":{"params":{"_gameType":"The game type to consult for output proposals."}}},"events":{"TransactionDeposited(address,address,uint256,bytes)":{"params":{"from":"Address that triggered the deposit transaction.","opaqueData":"ABI encoded deposit data to be parsed off-chain.","to":"Address that the deposit transaction is directed to.","version":"Version of this deposit transaction event."}},"WithdrawalFinalized(bytes32,bool)":{"params":{"success":"Whether the withdrawal transaction was successful.","withdrawalHash":"Hash of the withdrawal transaction."}},"WithdrawalProven(bytes32,address,address)":{"params":{"from":"Address that triggered the withdrawal transaction.","to":"Address that the withdrawal transaction is directed to.","withdrawalHash":"Hash of the withdrawal transaction."}}}},"id":135}