{
	"abi": [
		{
			"inputs": [
				{
					"internalType": "address",
					"name": "_owner",
					"type": "address"
				},
				{
					"internalType": "address",
					"name": "_resolver",
					"type": "address"
				}
			],
			"payable": false,
			"stateMutability": "nonpayable",
			"type": "constructor"
		},
		{
			"anonymous": false,
			"inputs": [
				{
					"indexed": false,
					"internalType": "address",
					"name": "oldOwner",
					"type": "address"
				},
				{
					"indexed": false,
					"internalType": "address",
					"name": "newOwner",
					"type": "address"
				}
			],
			"name": "OwnerChanged",
			"type": "event"
		},
		{
			"anonymous": false,
			"inputs": [
				{
					"indexed": false,
					"internalType": "address",
					"name": "newOwner",
					"type": "address"
				}
			],
			"name": "OwnerNominated",
			"type": "event"
		},
		{
			"anonymous": false,
			"inputs": [
				{
					"indexed": false,
					"internalType": "address",
					"name": "newBeneficiary",
					"type": "address"
				}
			],
			"name": "SelfDestructBeneficiaryUpdated",
			"type": "event"
		},
		{
			"anonymous": false,
			"inputs": [
				{
					"indexed": false,
					"internalType": "uint256",
					"name": "selfDestructDelay",
					"type": "uint256"
				}
			],
			"name": "SelfDestructInitiated",
			"type": "event"
		},
		{
			"anonymous": false,
			"inputs": [],
			"name": "SelfDestructTerminated",
			"type": "event"
		},
		{
			"anonymous": false,
			"inputs": [
				{
					"indexed": false,
					"internalType": "address",
					"name": "beneficiary",
					"type": "address"
				}
			],
			"name": "SelfDestructed",
			"type": "event"
		},
		{
			"constant": true,
			"inputs": [],
			"name": "MAX_ADDRESSES_FROM_RESOLVER",
			"outputs": [
				{
					"internalType": "uint256",
					"name": "",
					"type": "uint256"
				}
			],
			"payable": false,
			"stateMutability": "view",
			"type": "function"
		},
		{
			"constant": true,
			"inputs": [],
			"name": "SELFDESTRUCT_DELAY",
			"outputs": [
				{
					"internalType": "uint256",
					"name": "",
					"type": "uint256"
				}
			],
			"payable": false,
			"stateMutability": "view",
			"type": "function"
		},
		{
			"constant": false,
			"inputs": [],
			"name": "acceptOwnership",
			"outputs": [],
			"payable": false,
			"stateMutability": "nonpayable",
			"type": "function"
		},
		{
			"constant": false,
			"inputs": [
				{
					"internalType": "address",
					"name": "creator",
					"type": "address"
				},
				{
					"internalType": "uint256[2]",
					"name": "creatorLimits",
					"type": "uint256[2]"
				},
				{
					"internalType": "bytes32",
					"name": "oracleKey",
					"type": "bytes32"
				},
				{
					"internalType": "uint256",
					"name": "strikePrice",
					"type": "uint256"
				},
				{
					"internalType": "bool",
					"name": "refundsEnabled",
					"type": "bool"
				},
				{
					"internalType": "uint256[3]",
					"name": "times",
					"type": "uint256[3]"
				},
				{
					"internalType": "uint256[2]",
					"name": "bids",
					"type": "uint256[2]"
				},
				{
					"internalType": "uint256[3]",
					"name": "fees",
					"type": "uint256[3]"
				}
			],
			"name": "createMarket",
			"outputs": [
				{
					"internalType": "contract BinaryOptionMarket",
					"name": "",
					"type": "address"
				}
			],
			"payable": false,
			"stateMutability": "nonpayable",
			"type": "function"
		},
		{
			"constant": true,
			"inputs": [],
			"name": "getResolverAddressesRequired",
			"outputs": [
				{
					"internalType": "bytes32[24]",
					"name": "addressesRequired",
					"type": "bytes32[24]"
				}
			],
			"payable": false,
			"stateMutability": "view",
			"type": "function"
		},
		{
			"constant": false,
			"inputs": [],
			"name": "initiateSelfDestruct",
			"outputs": [],
			"payable": false,
			"stateMutability": "nonpayable",
			"type": "function"
		},
		{
			"constant": true,
			"inputs": [],
			"name": "initiationTime",
			"outputs": [
				{
					"internalType": "uint256",
					"name": "",
					"type": "uint256"
				}
			],
			"payable": false,
			"stateMutability": "view",
			"type": "function"
		},
		{
			"constant": true,
			"inputs": [
				{
					"internalType": "contract AddressResolver",
					"name": "_resolver",
					"type": "address"
				}
			],
			"name": "isResolverCached",
			"outputs": [
				{
					"internalType": "bool",
					"name": "",
					"type": "bool"
				}
			],
			"payable": false,
			"stateMutability": "view",
			"type": "function"
		},
		{
			"constant": false,
			"inputs": [
				{
					"internalType": "address",
					"name": "_owner",
					"type": "address"
				}
			],
			"name": "nominateNewOwner",
			"outputs": [],
			"payable": false,
			"stateMutability": "nonpayable",
			"type": "function"
		},
		{
			"constant": true,
			"inputs": [],
			"name": "nominatedOwner",
			"outputs": [
				{
					"internalType": "address",
					"name": "",
					"type": "address"
				}
			],
			"payable": false,
			"stateMutability": "view",
			"type": "function"
		},
		{
			"constant": true,
			"inputs": [],
			"name": "owner",
			"outputs": [
				{
					"internalType": "address",
					"name": "",
					"type": "address"
				}
			],
			"payable": false,
			"stateMutability": "view",
			"type": "function"
		},
		{
			"constant": true,
			"inputs": [],
			"name": "resolver",
			"outputs": [
				{
					"internalType": "contract AddressResolver",
					"name": "",
					"type": "address"
				}
			],
			"payable": false,
			"stateMutability": "view",
			"type": "function"
		},
		{
			"constant": true,
			"inputs": [
				{
					"internalType": "uint256",
					"name": "",
					"type": "uint256"
				}
			],
			"name": "resolverAddressesRequired",
			"outputs": [
				{
					"internalType": "bytes32",
					"name": "",
					"type": "bytes32"
				}
			],
			"payable": false,
			"stateMutability": "view",
			"type": "function"
		},
		{
			"constant": false,
			"inputs": [],
			"name": "selfDestruct",
			"outputs": [],
			"payable": false,
			"stateMutability": "nonpayable",
			"type": "function"
		},
		{
			"constant": true,
			"inputs": [],
			"name": "selfDestructBeneficiary",
			"outputs": [
				{
					"internalType": "address",
					"name": "",
					"type": "address"
				}
			],
			"payable": false,
			"stateMutability": "view",
			"type": "function"
		},
		{
			"constant": true,
			"inputs": [],
			"name": "selfDestructInitiated",
			"outputs": [
				{
					"internalType": "bool",
					"name": "",
					"type": "bool"
				}
			],
			"payable": false,
			"stateMutability": "view",
			"type": "function"
		},
		{
			"constant": false,
			"inputs": [
				{
					"internalType": "contract AddressResolver",
					"name": "_resolver",
					"type": "address"
				}
			],
			"name": "setResolverAndSyncCache",
			"outputs": [],
			"payable": false,
			"stateMutability": "nonpayable",
			"type": "function"
		},
		{
			"constant": false,
			"inputs": [
				{
					"internalType": "address payable",
					"name": "_beneficiary",
					"type": "address"
				}
			],
			"name": "setSelfDestructBeneficiary",
			"outputs": [],
			"payable": false,
			"stateMutability": "nonpayable",
			"type": "function"
		},
		{
			"constant": false,
			"inputs": [],
			"name": "terminateSelfDestruct",
			"outputs": [],
			"payable": false,
			"stateMutability": "nonpayable",
			"type": "function"
		}
	],
	"evm": {
		"bytecode": {
			"linkReferences": {
				"BinaryOptionMarketFactory.sol": {
					"SafeDecimalMath": [
						{
							"length": 20,
							"start": 7946
						},
						{
							"length": 20,
							"start": 17425
						},
						{
							"length": 20,
							"start": 19725
						}
					]
				}
			},
			"object": "60a06040527f42696e6172794f7074696f6e4d61726b65744d616e616765720000000000000060809081526200003a906007906001620003e7565b503480156200004857600080fd5b5060405162007fdc38038062007fdc833981810160405260408110156200006e57600080fd5b50805160209091015160408051610300810191829052829160079060189082845b816200009a62000435565b815260200190600101908083116200008f57508793505050506001600160a01b0381166200010f576040805162461bcd60e51b815260206004820152601960248201527f4f776e657220616464726573732063616e6e6f74206265203000000000000000604482015290519081900360640190fd5b8060006001816200011f62000435565b816001600160a01b0302191690836001600160a01b0316021790620001436200046f565b505060408051600081526001600160a01b038416602082015281517fb532073b38c83145e3e5135377a08bf9aab55bc0fd7c1179cd4fb995d2a5159c93509081900390910190a150600080806200019962000435565b906101000a90046001600160a01b03166001600160a01b03161415620001fa576040805162461bcd60e51b815260206004820152601160248201527013dddb995c881b5d5cdd081899481cd95d607a1b604482015290519081900360640190fd5b6000806200020762000435565b906101000a90046001600160a01b0316600360016101000a816200022a62000435565b816001600160a01b0302191690836001600160a01b03160217906200024e6200046f565b5050507fd5da63a0b864b315bc04128dedbc93888c8529ee6cf47ce664dc204339228c53600080906200028062000435565b604080516101009390930a9091046001600160a01b03168252516020918190039190910190a160008080620002b462000435565b906101000a90046001600160a01b03166001600160a01b0316141562000315576040805162461bcd60e51b815260206004820152601160248201527013dddb995c881b5d5cdd081899481cd95d607a1b604482015290519081900360640190fd5b60005b6018811015620003a55760008282601881106200033157fe5b602002015114620003965760068282601881106200034b57fe5b602002015190806001816200035f62000435565b0180826200036c6200046f565b50506000928352602090922091929183016000190190506200038d6200046f565b5050506200039c565b620003a5565b60010162000318565b50816004600181620003b662000435565b816001600160a01b0302191690836001600160a01b0316021790620003da6200046f565b50505050505050620004db565b826018810192821562000423579160200282015b828111156200042357825182620004116200046f565b505091602001919060010190620003fb565b5062000431929150620004ae565b5090565b630412cc4160e31b6208000090815262080004839052632096620890602081602481336000905af1806200046857600080fd5b5051925050565b630146e59560e51b6208000090815262080004839052620800248490526328dcb2a090600081604481336000905af180620004a957600080fd5b505050565b620004d891905b80821115620004315760008082620004cc6200046f565b505050600101620004b5565b90565b617af180620004eb6000396000f3fe60806040523480156200001157600080fd5b50600436106200013c5760003560e01c806379ba509711620000bd578063b8225dec116200007b578063b8225dec1462000312578063bd32aa44146200031c578063c58aaae61462000326578063c6c9d8281462000330578063e3235c911462000350576200013c565b806379ba509714620002a55780638da5cb5b14620002af5780639cb8a26a14620002b9578063a461fc8214620002c3578063ab49848c14620002cd576200013c565b806320714f88116200010b57806320714f8814620002025780633278c960146200022b5780633be99e6f146200023557806353a47bb7146200025e578063631e14441462000268576200013c565b806304f3bcec1462000141578063130efa5014620001675780631627540c14620001bb57806317c70de414620001e6575b600080fd5b6200014b6200035a565b604080516001600160a01b039092168252519081900360200190f35b6200014b60048036036101c08110156200018057600080fd5b506001600160a01b0381351690602081019060608101359060808101359060a081013515159060c0810190610120810190610160016200037b565b620001e460048036036020811015620001d357600080fd5b50356001600160a01b0316620004ec565b005b620001f0620005da565b60408051918252519081900360200190f35b620001e4600480360360208110156200021a57600080fd5b50356001600160a01b0316620005e9565b620001e462000735565b620001e4600480360360208110156200024d57600080fd5b50356001600160a01b031662000819565b6200014b62000a46565b62000291600480360360208110156200028057600080fd5b50356001600160a01b031662000a54565b604080519115158252519081900360200190f35b620001e462000c1f565b6200014b62000da8565b620001e462000db5565b620001f062000f5d565b620002d762000f64565b604051808261030080838360005b83811015620002ff578181015183820152602001620002e5565b5050505090500191505060405180910390f35b6200029162000fd2565b620001e462000fed565b6200014b620010e8565b620001f0600480360360208110156200034857600080fd5b5035620010f6565b620001f062001124565b60006004620003686200123b565b906101000a90046001600160a01b031681565b6000806200038862001129565b90505a6200039562001275565b6001600160a01b0316816001600160a01b031614620003fb576040805162461bcd60e51b815260206004820152601e60248201527f4f6e6c79207065726d697474656420627920746865206d616e616765722e0000604482015290519081900360640190fd5b808a8a8a8a8a8a8a8a60405162000412906200129b565b6001600160a01b03808b16825289166020820152604080820190899080828437600083820152601f01601f191690910188815260208101889052861515604082015260609081019150859080828437600083820152601f01601f1916909101905083604080828437600083820152601f01601f1916909101905082606080828437600081840152601f19601f8201169050808301925050509950505050505050505050604051809103906000620004c8620012a9565b505080158015620004dd573d6000803e3d6000fd5b509a9950505050505050505050565b600080620004f96200123b565b906101000a90046001600160a01b03166001600160a01b03165a6200051d62001275565b6001600160a01b031614620005645760405162461bcd60e51b815260040180806020018281038252602f81526020018062007a68602f913960400191505060405180910390fd5b8060018080620005736200123b565b816001600160a01b0302191690836001600160a01b031602179062000597620012f9565b5050604080516001600160a01b038416815290517f906a1c6bd7e3091ea86693dd029a831c19049ce77f1dce2ce0bab1cacbabce2292509081900360200190a150565b6002620005e66200123b565b81565b600080620005f66200123b565b906101000a90046001600160a01b03166001600160a01b03165a6200061a62001275565b6001600160a01b031614620006615760405162461bcd60e51b815260040180806020018281038252602f81526020018062007a68602f913960400191505060405180910390fd5b6001600160a01b038116620006bd576040805162461bcd60e51b815260206004820152601c60248201527f42656e6566696369617279206d757374206e6f74206265207a65726f00000000604482015290519081900360640190fd5b80600361010081620006ce6200123b565b816001600160a01b0302191690836001600160a01b0316021790620006f2620012f9565b5050604080516001600160a01b038416815290517fd5da63a0b864b315bc04128dedbc93888c8529ee6cf47ce664dc204339228c5392509081900360200190a150565b600080620007426200123b565b906101000a90046001600160a01b03166001600160a01b03165a6200076662001275565b6001600160a01b031614620007ad5760405162461bcd60e51b815260040180806020018281038252602f81526020018062007a68602f913960400191505060405180910390fd5b6000806002620007bc620012f9565b5050506000600360006101000a81620007d46200123b565b8160ff02191690831515021790620007eb620012f9565b50506040517f6adcc7125002935e0aa31697538ebbd65cfddf20431eb6ecdcfc3e238bfd082c9150600090a1565b600080620008266200123b565b906101000a90046001600160a01b03166001600160a01b03165a6200084a62001275565b6001600160a01b031614620008915760405162461bcd60e51b815260040180806020018281038252602f81526020018062007a68602f913960400191505060405180910390fd5b806004600181620008a16200123b565b816001600160a01b0302191690836001600160a01b0316021790620008c5620012f9565b5060009150505b600680620008d96200123b565b905081101562000a4257600060068281620008f36200123b565b8110620008fc57fe5b90600052602060002001620009106200123b565b905060006004620009206200123b565b906101000a90046001600160a01b03166001600160a01b031663dacb2d01826040518263ffffffff1660e01b81526004018082815260200180602001828103825260178152602001807f5265736f6c766572206d697373696e6720746172676574000000000000000000815250602001925050506020604051808303818680620009a962001333565b158015620009b657600080fd5b505a620009c262001366565b5050505050158015620009d9573d6000803e3d6000fd5b505050506040513d6020811015620009f057600080fd5b5051600082815260056020526040902060018162000a0d6200123b565b816001600160a01b0302191690836001600160a01b031602179062000a31620012f9565b505060019092019150620008cc9050565b5050565b60006001620003686200123b565b60006001600160a01b03821681600462000a6d6200123b565b906101000a90046001600160a01b03166001600160a01b03161462000a955750600062000c1a565b60005b60068062000aa56200123b565b905081101562000c145760006006828162000abf6200123b565b811062000ac857fe5b9060005260206000200162000adc6200123b565b60008181526005602052604081209192509062000af86200123b565b6001600160a01b036101009290920a9004166000600462000b186200123b565b906101000a90046001600160a01b03166001600160a01b03166321f8a721836040518263ffffffff1660e01b815260040180828152602001915050602060405180830381868062000b6862001333565b15801562000b7557600080fd5b505a62000b8162001366565b505050505015801562000b98573d6000803e3d6000fd5b505050506040513d602081101562000baf57600080fd5b50516001600160a01b031614158062000bf857506000818152600560205260408120819062000bdd6200123b565b906101000a90046001600160a01b03166001600160a01b0316145b1562000c0a5760009250505062000c1a565b5060010162000a98565b50600190505b919050565b6000600162000c2d6200123b565b906101000a90046001600160a01b03166001600160a01b03165a62000c5162001275565b6001600160a01b03161462000c985760405162461bcd60e51b815260040180806020018281038252603581526020018062007a0a6035913960400191505060405180910390fd5b7fb532073b38c83145e3e5135377a08bf9aab55bc0fd7c1179cd4fb995d2a5159c60008062000cc66200123b565b906101000a90046001600160a01b0316600160009062000ce56200123b565b604080516001600160a01b0394851681526101009390930a909104909216602082015281519081900390910190a16000600162000d216200123b565b906101000a90046001600160a01b03166000806101000a8162000d436200123b565b816001600160a01b0302191690836001600160a01b031602179062000d67620012f9565b5050506000600160006101000a8162000d7f6200123b565b816001600160a01b0302191690836001600160a01b031602179062000da3620012f9565b505050565b600080620003686200123b565b60008062000dc26200123b565b906101000a90046001600160a01b03166001600160a01b03165a62000de662001275565b6001600160a01b03161462000e2d5760405162461bcd60e51b815260040180806020018281038252602f81526020018062007a68602f913960400191505060405180910390fd5b6000600362000e3b6200123b565b906101000a900460ff1662000e97576040805162461bcd60e51b815260206004820152601f60248201527f53656c66204465737472756374206e6f742079657420696e6974696174656400604482015290519081900360640190fd5b5a62000ea2620013c1565b6224ea00600262000eb26200123b565b011062000f06576040805162461bcd60e51b815260206004820152601b60248201527f53656c662064657374727563742064656c6179206e6f74206d65740000000000604482015290519081900360640190fd5b7f8a09e1677ced846cb537dc2b172043bd05a1a81ad7e0033a7ef8ba762df990b76001600362000f356200123b565b604080516101009390930a9091046001600160a01b03168252516020918190039190910190a1565b6224ea0081565b62000f6e620013e7565b60005b60068062000f7e6200123b565b905081101562000fce576006818162000f966200123b565b811062000f9f57fe5b9060005260206000200162000fb36200123b565b82826018811062000fc057fe5b602002015260010162000f71565b5090565b6000600362000fe06200123b565b906101000a900460ff1681565b60008062000ffa6200123b565b906101000a90046001600160a01b03166001600160a01b03165a6200101e62001275565b6001600160a01b031614620010655760405162461bcd60e51b815260040180806020018281038252602f81526020018062007a68602f913960400191505060405180910390fd5b5a62001070620013c1565b8060026200107d620012f9565b5050506001600360006101000a81620010956200123b565b8160ff02191690831515021790620010ac620012f9565b5050604080516224ea00815290517fcbd94ca75b8dc45c9d80c77e851670e78843c0d75180cb81db3e2158228fa9a692509081900360200190a1565b60016003620003686200123b565b60068181620011046200123b565b81106200110d57fe5b60009182526020909120019050620005e66200123b565b601881565b6000620011707f42696e6172794f7074696f6e4d61726b65744d616e616765720000000000000060405180606001604052806029815260200162007a3f6029913962001175565b905090565b600082815260056020526040812081908190620011916200123b565b6001600160a01b036101009290920a90041690508281620012335760405162461bcd60e51b81526004018080602001828103825283818151815260200191508051906020019080838360005b83811015620011f7578181015183820152602001620011dd565b50505050905090810190601f168015620012255780820380516001836020036101000a031916815260200191505b509250505060405180910390fd5b509392505050565b630412cc4160e31b6208000090815262080004839052632096620890602081602481336000905af1806200126e57600080fd5b5051925050565b6373509064620800008160e01b8152602081600483336000905af1806200126e57600080fd5b616603806200140783390190565b6349d65ff9620800008160e01b815260005b86811015620012d8578581015182820160040152602001620012bb565b506020818760040183336000905af180620012f257600080fd5b5051945050565b630146e59560e51b6208000090815262080004839052620800248490526328dcb2a090600081604481336000905af18062000da357600080fd5b63c3382d0f60e01b620800009081526208000483905263c3382d0f90602081602481336000905af1806200126e57600080fd5b63fbb0f79d60e01b620800009081526208000484905263fbb0f79d9060005b87811015620013a257868101518282016024015260200162001385565b5088888860240183336000905af180620013bb57600080fd5b98505050565b63bdbf8c36620800008160e01b8152602081600483336000905af1806200126e57600080fd5b604051806103000160405280601890602082028038833950919291505056fe6101006040526b53797374656d53746174757360a01b60809081526c45786368616e6765526174657360981b60a0526814de5b9d1a1cd554d160ba1b60c05266119959541bdbdb60ca1b60e0526200005c90601790600462000d36565b503480156200006a57600080fd5b50604051620066033803806200660383398181016040526101e08110156200009157600080fd5b5080516020820151608083015160a084015160c0850151604080516103008101808352969795969186019560e0810192610140820192610180909201918a9160179060189082845b81620000e462000d80565b81526020019060010190808311620000d957508e93505050506001600160a01b03811662000159576040805162461bcd60e51b815260206004820152601960248201527f4f776e657220616464726573732063616e6e6f74206265203000000000000000604482015290519081900360640190fd5b8060006001816200016962000d80565b816001600160a01b0302191690836001600160a01b03160217906200018d62000dba565b505060408051600081526001600160a01b038416602082015281517fb532073b38c83145e3e5135377a08bf9aab55bc0fd7c1179cd4fb995d2a5159c93509081900390910190a15060008080620001e362000d80565b906101000a90046001600160a01b03166001600160a01b0316141562000244576040805162461bcd60e51b815260206004820152601160248201527013dddb995c881b5d5cdd081899481cd95d607a1b604482015290519081900360640190fd5b60005b6018811015620002d45760008282601881106200026057fe5b602002015114620002c55760048282601881106200027a57fe5b602002015190806001816200028e62000d80565b0180826200029b62000dba565b5050600092835260209092209192918301600019019050620002bc62000dba565b505050620002cb565b620002d4565b60010162000247565b50816002600181620002e562000d80565b816001600160a01b0302191690836001600160a01b03160217906200030962000dba565b505050505087601560006101000a816200032262000d80565b816001600160a01b0302191690836001600160a01b03160217906200034662000dba565b5050506040518060400160405280886000600281106200036257fe5b60200201518152602001886001600281106200037a57fe5b602002015190528051601290816200039162000dba565b5050602082015181600101620003a662000dba565b505060408051606081018252898152602081018990526000918101919091529150600c90508781620003d762000dba565b5050602082015181600101620003ec62000dba565b50506040820151816002016200040162000dba565b50509050506040518060600160405280846000600381106200041f57fe5b60200201518152602001846001600381106200043757fe5b60200201518152602001846002600381106200044f57fe5b602002015190528051600990816200046662000dba565b50506020820151816001016200047b62000dba565b50506040820151816002016200049062000dba565b5050905050836015806101000a81620004a862000d80565b8160ff02191690831515021790620004bf62000dba565b505082516020840151909150620004d78282620007f2565b896001600160a01b0316600080516020620065e3833981519152600084604051808360018111156200050557fe5b60ff1681526020018281526020019250505060405180910390a2896001600160a01b0316600080516020620065e3833981519152600183604051808360018111156200054d57fe5b60ff1681526020018281526020019250505060405180910390a260006200058382846200090e60201b62002a2a1790919060201c565b9050808060146200059362000dba565b50508451602080870151604080516060810182528481529283018290528089015190830152919250600f8381620005c962000dba565b5050602082015181600101620005de62000dba565b5050604082015181600201620005f362000dba565b5050905050620006b36200061682846200090e60201b62002a2a1790919060201c565b73__$60f5066a95a61bfd95691e5518aae05f18$__63907af6c06040518163ffffffff1660e01b815260040160206040518083038186806200065762000df9565b1580156200066457600080fd5b505a6200067062000e2c565b505050505015801562000687573d6000803e3d6000fd5b505050506040513d60208110156200069e57600080fd5b50519062000972602090811b6200375c17901c565b806016620006c062000dba565b505050620006d6858585620009d060201b60201c565b8c85604051620006e69062000e87565b6001600160a01b03909216825260208201526040805191829003019060006200070e62000e95565b50508015801562000723573d6000803e3d6000fd5b5060056001816200073362000d80565b816001600160a01b0302191690836001600160a01b03160217906200075762000dba565b5050508c846040516200076a9062000e87565b6001600160a01b03909216825260208201526040805191829003019060006200079262000e95565b505080158015620007a7573d6000803e3d6000fd5b506006600181620007b762000d80565b816001600160a01b0302191690836001600160a01b0316021790620007db62000dba565b505050505050505050505050505050505062000f12565b60006200080e82846200090e60201b62002a2a1790919060201c565b90508060126200081d62000d80565b111562000871576040805162461bcd60e51b815260206004820152601460248201527f496e73756666696369656e74206361706974616c000000000000000000000000604482015290519081900360640190fd5b600060136200087f62000d80565b90506200089b828562000a6b60201b62003c181790919060201c565b8111158015620008c45750620008c0828462000a6b60201b62003c181790919060201c565b8111155b62000908576040805162461bcd60e51b815260206004820152600f60248201526e109a591cc81d1bdbc81cdad95dd959608a1b604482015290519081900360640190fd5b50505050565b60008282018381101562000969576040805162461bcd60e51b815260206004820152601b60248201527f536166654d6174683a206164646974696f6e206f766572666c6f770000000000604482015290519081900360640190fd5b90505b92915050565b600082821115620009ca576040805162461bcd60e51b815260206004820152601e60248201527f536166654d6174683a207375627472616374696f6e206f766572666c6f770000604482015290519081900360640190fd5b50900390565b600080620009e98585856001600160e01b0362000aa616565b604080518082019091528281526020810182905291935091506007838162000a1062000dba565b505060208201518160010162000a2562000dba565b5050604080518581526020810185905281517f6546f60f34df611fa42503098acc39d5ab88bc73febe64b3cc14e5a92e3a66a79450908190039091019150a15050505050565b6000620009698262000a9285670de0b6b3a764000062000b63602090811b62003c6817901c565b62000bc160201b62003cc11790919060201c565b600080841580159062000ab857508315155b62000b0a576040805162461bcd60e51b815260206004820152601460248201527f42696473206d757374206265206e6f6e7a65726f000000000000000000000000604482015290519081900360640190fd5b600062000b20846001600160e01b0362000c2d16565b905062000b3c818762000c7b60201b62003a2a1790919060201c565b62000b56828762000c7b60201b62003a2a1790919060201c565b9250925050935093915050565b60008262000b74575060006200096c565b8282028284828162000b8257fe5b0414620009695760405162461bcd60e51b8152600401808060200182810382526021815260200180620065c26021913960400191505060405180910390fd5b600080821162000c18576040805162461bcd60e51b815260206004820152601a60248201527f536166654d6174683a206469766973696f6e206279207a65726f000000000000604482015290519081900360640190fd5b600082848162000c2457fe5b04949350505050565b60006014601562000c3d62000d80565b906101000a900460ff1662000c775762000c71601662000c5c62000d80565b8362000c9b60201b62002a0e1790919060201c565b6200096c565b5090565b6000620009698383670de0b6b3a76400006001600160e01b0362000cbb16565b6000620009698383670de0b6b3a76400006001600160e01b0362000cff16565b60008062000ce08462000a9285600a028862000b6360201b62003c681790919060201c565b90506005600a825b061062000cf357600a015b600a9004949350505050565b600080600a830462000d20858762000b6360201b62003c681790919060201c565b8162000d2857fe5b0490506005600a8262000ce8565b826018810192821562000d72579160200282015b8281111562000d725782518262000d6062000dba565b50509160200191906001019062000d4a565b5062000c7792915062000ee5565b630412cc4160e31b6208000090815262080004839052632096620890602081602481336000905af18062000db357600080fd5b5051925050565b630146e59560e51b6208000090815262080004839052620800248490526328dcb2a090600081604481336000905af18062000df457600080fd5b505050565b63c3382d0f60e01b620800009081526208000483905263c3382d0f90602081602481336000905af18062000db357600080fd5b6345e97ddb60e01b62080000908152620800048490526345e97ddb9060005b8781101562000e6857868101518282016024015260200162000e4b565b5088888860240183336000905af18062000e8157600080fd5b98505050565b6116638062004f5f83390190565b6349d65ff9620800008160e01b815260005b8681101562000ec457858101518282016004015260200162000ea7565b506020818760040183336000905af18062000ede57600080fd5b5051945050565b62000f0f91905b8082111562000c77576000808262000f0362000dba565b50505060010162000eec565b90565b61403d8062000f226000396000f3fe608060405234801561001057600080fd5b506004361061025e5760003560e01c80638b03413611610146578063c588f526116100c3578063d3419bf311610087578063d3419bf3146105b4578063dbea3638146105bc578063e3235c91146105e2578063e4cfbdbd146105ea578063eef49ee314610622578063fd087ee51461062a5761025e565b8063c588f52614610559578063c6c9d82814610561578063c7a5bdc81461057e578063c8db233e14610586578063d068cdc5146105ac5761025e565b8063ab49848c1161010a578063ab49848c146104ca578063ac3791e31461050b578063b1c9fe6e14610513578063b634bfbc1461052b578063be5af9fe146105515761025e565b80638b034136146104845780638da5cb5b1461048c57806398508ecd146104945780639af1d35a146104ba5780639e3b34bf146104c25761025e565b80633dae89eb116101df57806353a47bb7116101a357806353a47bb7146103f4578063631e1444146103fc5780636392a51f14610422578063653721471461044857806379ba509714610474578063851492581461047c5761025e565b80633dae89eb1461037c5780633f6fa65514610384578063408e82af146103a05780634c33fe94146103c6578063532f1179146103ec5761025e565b806327745bae1161022657806327745bae146102ff5780632810e1d61461030757806329e77b5d1461030f5780633be99e6f1461034e5780633d7a783b146103745761025e565b806302d05d3f1461026357806304f3bcec146102875780631069143a1461028f5780631627540c146102bd5780632115e303146102e5575b600080fd5b61026b610658565b604080516001600160a01b039092168252519081900360200190f35b61026b610677565b610297610683565b604080516001600160a01b03938416815291909216602082015281519081900390910190f35b6102e3600480360360208110156102d357600080fd5b50356001600160a01b03166106c5565b005b6102ed6107a9565b60408051918252519081900360200190f35b6102e36107c3565b6102e3610838565b6103356004803603602081101561032557600080fd5b50356001600160a01b0316610d2d565b6040805192835260208301919091528051918290030190f35b6102e36004803603602081101561036457600080fd5b50356001600160a01b0316610d42565b610335610f4f565b610335611081565b61038c611094565b604080519115158252519081900360200190f35b610335600480360360208110156103b657600080fd5b50356001600160a01b03166110ad565b6102e3600480360360208110156103dc57600080fd5b50356001600160a01b03166110b9565b61038c61121a565b61026b611225565b61038c6004803603602081101561041257600080fd5b50356001600160a01b0316611231565b6103356004803603602081101561043857600080fd5b50356001600160a01b03166113df565b6104506113eb565b6040518082600181111561046057fe5b60ff16815260200191505060405180910390f35b6102e36113f5565b6102ed61156a565b610335611967565b61026b611972565b61049c61197d565b60408051938452602084019290925282820152519081900360600190f35b61049c6119a7565b61049c6119b2565b6104d26119bd565b604051808261030080838360005b838110156104f85781810151838201526020016104e0565b5050505090500191505060405180910390f35b61038c611a1f565b61051b611a6a565b6040518082600381111561046057fe5b6102ed6004803603604081101561054157600080fd5b5060ff8135169060200135611aae565b610335611e7f565b610335611e9c565b6102ed6004803603602081101561057757600080fd5b5035611fe0565b61033561200c565b6102e36004803603602081101561059c57600080fd5b50356001600160a01b0316612017565b6103356120ee565b6103356121d2565b6102e3600480360360408110156105d257600080fd5b5060ff81351690602001356121dd565b6102ed61243f565b6102ed6004803603608081101561060057600080fd5b5060ff8135811691602081013590911690604081013590606001351515612444565b6102ed612673565b6103356004803603606081101561064057600080fd5b5060ff8135169060208101359060400135151561267d565b60006015610664613d2b565b906101000a90046001600160a01b031681565b60006002610664613d2b565b6005600081610690613d2b565b906101000a90046001600160a01b031690806001016000906106b0613d2b565b906101000a90046001600160a01b0316905082565b6000806106d0613d2b565b906101000a90046001600160a01b03166001600160a01b03165a6106f2613d64565b6001600160a01b0316146107375760405162461bcd60e51b815260040180806020018281038252602f815260200180613f57602f913960400191505060405180910390fd5b8060018080610744613d2b565b816001600160a01b0302191690836001600160a01b0316021790610766613d89565b5050604080516001600160a01b038416815290517f906a1c6bd7e3091ea86693dd029a831c19049ce77f1dce2ce0bab1cacbabce2292509081900360200190a150565b60006107bd60146107b8613d2b565b612735565b90505b90565b6107cb612763565b6001600160a01b031663086dabd16040518163ffffffff1660e01b815260040160006040518083038186806107fe613dc2565b15801561080a57600080fd5b505a610814613df4565b505050505015801561082a573d6000803e3d6000fd5b505050506108366127aa565b565b600080610843613d2b565b906101000a90046001600160a01b03166001600160a01b03165a610865613d64565b6001600160a01b0316146108aa5760405162461bcd60e51b815260040180806020018281038252602f815260200180613f57602f913960400191505060405180910390fd5b6108b2612865565b6108f4576040805162461bcd60e51b815260206004820152600e60248201526d4e6f7420796574206d617475726560901b604482015290519081900360640190fd5b6108fc612763565b6001600160a01b031663086dabd16040518163ffffffff1660e01b8152600401600060405180830381868061092f613dc2565b15801561093b57600080fd5b505a610945613df4565b505050505015801561095b573d6000803e3d6000fd5b505050506109676127aa565b60146015610973613d2b565b906101000a900460ff16156109cf576040805162461bcd60e51b815260206004820152601760248201527f4d61726b657420616c7265616479207265736f6c766564000000000000000000604482015290519081900360640190fd5b6000806109da612880565b915091506109e781612925565b610a29576040805162461bcd60e51b815260206004820152600e60248201526d5072696365206973207374616c6560901b604482015290519081900360640190fd5b8180600e610a35613d89565b5050506001601560146101000a81610a4b613d2b565b8160ff02191690831515021790610a60613d89565b5050506000610a6d6129cd565b905060006014610a7b613d2b565b90506000610a99600f610a8c613d2b565b839063ffffffff612a0e16565b90506000610ab76010610aaa613d2b565b849063ffffffff612a0e16565b9050610ad1610acc828463ffffffff612a2a16565b612a84565b50836001600160a01b031663a9059cbb610ae9612b23565b6001600160a01b031663eb1edd616040518163ffffffff1660e01b81526004016020604051808303818680610b1c613dc2565b158015610b2857600080fd5b505a610b32613df4565b5050505050158015610b48573d6000803e3d6000fd5b505050506040513d6020811015610b5e57600080fd5b5051604080516001600160e01b031960e085901b1681526001600160a01b03909216600483015260248201869052516044808301926020929190829003018160008780610ba9613dc2565b158015610bb557600080fd5b505a610bbf613e4c565b505050505050158015610bd6573d6000803e3d6000fd5b505050506040513d6020811015610bec57600080fd5b50506001600160a01b03841663a9059cbb60006015610c09613d2b565b906101000a90046001600160a01b0316836040518363ffffffff1660e01b815260040180836001600160a01b03166001600160a01b031681526020018281526020019250505060206040518083038160008780610c64613dc2565b158015610c7057600080fd5b505a610c7a613e4c565b505050505050158015610c91573d6000803e3d6000fd5b505050506040513d6020811015610ca757600080fd5b507f5528b7e06f48a519cf814c4e5293ee2737c3f5c28d93e30cca112ac649fdd2359050610cd3612b60565b87876014610cdf613d2b565b868660405180876001811115610cf157fe5b60ff1681526020810196909652506040808601949094526060850192909252608084015260a0830152519081900360c0019150a1505050505050565b600080610d3983612bbb565b91509150915091565b600080610d4d613d2b565b906101000a90046001600160a01b03166001600160a01b03165a610d6f613d64565b6001600160a01b031614610db45760405162461bcd60e51b815260040180806020018281038252602f815260200180613f57602f913960400191505060405180910390fd5b806002600181610dc2613d2b565b816001600160a01b0302191690836001600160a01b0316021790610de4613d89565b5060009150505b600480610df6613d2b565b9050811015610f4b57600060048281610e0d613d2b565b8110610e1557fe5b90600052602060002001610e27613d2b565b905060006002610e35613d2b565b906101000a90046001600160a01b03166001600160a01b031663dacb2d01826040518263ffffffff1660e01b81526004018082815260200180602001828103825260178152602001807f5265736f6c766572206d697373696e6720746172676574000000000000000000815250602001925050506020604051808303818680610ebc613dc2565b158015610ec857600080fd5b505a610ed2613df4565b5050505050158015610ee8573d6000803e3d6000fd5b505050506040513d6020811015610efe57600080fd5b50516000828152600360205260409020600181610f19613d2b565b816001600160a01b0302191690836001600160a01b0316021790610f3b613d89565b505060019092019150610deb9050565b5050565b600080806005610f5d613d2b565b906101000a90046001600160a01b03166001600160a01b031663d6ff02e26040518163ffffffff1660e01b81526004016020604051808303818680610fa0613dc2565b158015610fac57600080fd5b505a610fb6613df4565b5050505050158015610fcc573d6000803e3d6000fd5b505050506040513d6020811015610fe257600080fd5b505160006006610ff0613d2b565b906101000a90046001600160a01b03166001600160a01b031663d6ff02e26040518163ffffffff1660e01b81526004016020604051808303818680611033613dc2565b15801561103f57600080fd5b505a611049613df4565b505050505015801561105f573d6000803e3d6000fd5b505050506040513d602081101561107557600080fd5b505190925090505b9091565b60008061108c612d27565b915091509091565b601460156110a0613d2b565b906101000a900460ff1681565b600080610d39836130bb565b6000806110c4613d2b565b906101000a90046001600160a01b03166001600160a01b03165a6110e6613d64565b6001600160a01b03161461112b5760405162461bcd60e51b815260040180806020018281038252602f815260200180613f57602f913960400191505060405180910390fd5b6111336131d9565b15611178576040805162461bcd60e51b815260206004820152601060248201526f42696464696e6720696e61637469766560801b604482015290519081900360640190fd5b6000806111836131ee565b915091506000806111af601560009061119a613d2b565b906101000a90046001600160a01b0316612bbb565b91509150600082851480156111c357508184145b905080611209576040805162461bcd60e51b815260206004820152600f60248201526e4e6f742063616e63656c6c61626c6560881b604482015290519081900360640190fd5b611212866132d2565b505050505050565b6015806110a0613d2b565b60006001610664613d2b565b60006001600160a01b038216816002611248613d2b565b906101000a90046001600160a01b03166001600160a01b03161461126e575060006113da565b60005b60048061127c613d2b565b90508110156113d457600060048281611293613d2b565b811061129b57fe5b906000526020600020016112ad613d2b565b6000818152600360205260408120919250906112c7613d2b565b6001600160a01b036101009290920a900416600060026112e5613d2b565b906101000a90046001600160a01b03166001600160a01b03166321f8a721836040518263ffffffff1660e01b8152600401808281526020019150506020604051808303818680611333613dc2565b15801561133f57600080fd5b505a611349613df4565b505050505015801561135f573d6000803e3d6000fd5b505050506040513d602081101561137557600080fd5b50516001600160a01b03161415806113bb5750600081815260036020526040812081906113a0613d2b565b906101000a90046001600160a01b03166001600160a01b0316145b156113cb576000925050506113da565b50600101611271565b50600190505b919050565b600080610d39836135b1565b60006107bd612b60565b60006001611401613d2b565b906101000a90046001600160a01b03166001600160a01b03165a611423613d64565b6001600160a01b0316146114685760405162461bcd60e51b8152600401808060200182810382526035815260200180613f226035913960400191505060405180910390fd5b7fb532073b38c83145e3e5135377a08bf9aab55bc0fd7c1179cd4fb995d2a5159c600080611494613d2b565b906101000a90046001600160a01b031660016000906114b1613d2b565b604080516001600160a01b0394851681526101009390930a909104909216602082015281519081900390910190a1600060016114eb613d2b565b906101000a90046001600160a01b03166000806101000a8161150b613d2b565b816001600160a01b0302191690836001600160a01b031602179061152d613d89565b5050506000600160006101000a81611543613d2b565b816001600160a01b0302191690836001600160a01b0316021790611565613d89565b505050565b600060146015611578613d2b565b906101000a900460ff1661163e5761158e6136cf565b6001600160a01b0316637859f4105a63996d79a5620800008160e01b8152602081600483336000905af1806115c257600080fd5b815193505050506040518263ffffffff1660e01b815260040180826001600160a01b03166001600160a01b031681526020019150506000604051808303816000878061160c613dc2565b15801561161857600080fd5b505a611622613e4c565b505050505050158015611639573d6000803e3d6000fd5b505050505b6000806116525a61164d613d64565b6130bb565b9150915081600014158061166557508015155b1561167557611672612d27565b50505b6000806116895a611684613d64565b6135b1565b9150915081600014158061169c57508015155b6116e3576040805162461bcd60e51b81526020600482015260136024820152724e6f7468696e6720746f20657865726369736560681b604482015290519081900360640190fd5b811561179157600060056116f5613d2b565b906101000a90046001600160a01b03166001600160a01b0316631b15982a5a61171c613d64565b6040518263ffffffff1660e01b815260040180826001600160a01b03166001600160a01b031681526020019150506000604051808303816000878061175f613dc2565b15801561176b57600080fd5b505a611775613e4c565b50505050505015801561178c573d6000803e3d6000fd5b505050505b801561183f57600060066117a3613d2b565b906101000a90046001600160a01b03166001600160a01b0316631b15982a5a6117ca613d64565b6040518263ffffffff1660e01b815260040180826001600160a01b03166001600160a01b031681526020019150506000604051808303816000878061180d613dc2565b15801561181957600080fd5b505a611823613e4c565b50505050505015801561183a573d6000803e3d6000fd5b505050505b600061185361184c612b60565b84846136f0565b90505a61185e613d64565b6001600160a01b03167fd82b6f69d7477fb41cd83d936de94990cee2fa1a309feeee90101fc0513b6a43826040518082815260200191505060405180910390a2801561195e576118ad81612a84565b506118b66129cd565b6001600160a01b031663a9059cbb5a6118cd613d64565b836040518363ffffffff1660e01b815260040180836001600160a01b03166001600160a01b031681526020018281526020019250505060206040518083038160008780611918613dc2565b15801561192457600080fd5b505a61192e613e4c565b505050505050158015611945573d6000803e3d6000fd5b505050506040513d602081101561195b57600080fd5b50505b94505050505090565b60008061108c6131ee565b600080610664613d2b565b600c80611988613d2b565b9080600101611995613d2b565b90806002016119a2613d2b565b905083565b600f80611988613d2b565b600980611988613d2b565b6119c5613ea4565b60005b6004806119d3613d2b565b9050811015611a1b57600481816119e8613d2b565b81106119f057fe5b90600052602060002001611a02613d2b565b828260188110611a0e57fe5b60200201526001016119c8565b5090565b600080611a2a612880565b9150506015601490611a3a613d2b565b906101000a900460ff16158015611a545750611a54612865565b8015611a645750611a6481612925565b91505090565b6000611a746131d9565b611a80575060006107c0565b611a88612865565b611a94575060016107c0565b611a9c613713565b611aa8575060026107c0565b50600390565b6000611ab86131d9565b15611afd576040805162461bcd60e51b815260206004820152601060248201526f42696464696e6720696e61637469766560801b604482015290519081900360640190fd5b601580611b08613d2b565b906101000a900460ff16611b56576040805162461bcd60e51b815260206004820152601060248201526f1499599d5b991cc8191a5cd8589b195960821b604482015290519081900360640190fd5b81611b6357506000611e79565b60006015611b6f613d2b565b906101000a90046001600160a01b03166001600160a01b03165a611b91613d64565b6001600160a01b03161415611beb57600080611bb45a611baf613d64565b612bbb565b90925090506001856001811115611bc757fe5b1415611bcf57905b611be8611be2838663ffffffff61375c16565b826137b9565b50505b611c8a610a8c6011611bfb613d2b565b73__$60f5066a95a61bfd95691e5518aae05f18$__63907af6c06040518163ffffffff1660e01b81526004016020604051808303818680611c3a613dc2565b158015611c4657600080fd5b505a611c50613ec3565b5050505050158015611c66573d6000803e3d6000fd5b505050506040513d6020811015611c7c57600080fd5b50519063ffffffff61375c16565b9050611c95836138a7565b6001600160a01b031663410085df5a611cac613d64565b846040518363ffffffff1660e01b815260040180836001600160a01b03166001600160a01b031681526020018281526020019250505060006040518083038160008780611cf7613dc2565b158015611d0357600080fd5b505a611d0d613e4c565b505050505050158015611d24573d6000803e3d6000fd5b505050505a611d31613d64565b6001600160a01b03167f9bd0a8ca6625e01a9cee5e86eec7813a8234b41f1ca0c9f15a008d1e1d00ee5f8483611d6d868263ffffffff61375c16565b60405180846001811115611d7d57fe5b60ff168152602001838152602001828152602001935050505060405180910390a26000611da982612a84565b9050611db36129cd565b6001600160a01b031663a9059cbb5a611dca613d64565b846040518363ffffffff1660e01b815260040180836001600160a01b03166001600160a01b031681526020018281526020019250505060206040518083038160008780611e15613dc2565b158015611e2157600080fd5b505a611e2b613e4c565b505050505050158015611e42573d6000803e3d6000fd5b505050506040513d6020811015611e5857600080fd5b506000905080611e666131ee565b91509150611e75828285613902565b5050505b92915050565b601280611e8a613d2b565b9080600101611e97613d2b565b905082565b60008060146015611eab613d2b565b906101000a900460ff161580611ee957505a611ec5613d64565b6001600160a01b0316611ede611ed9612b60565b6138a7565b6001600160a01b0316145b15611efe57611efb60146107b8613d2b565b90505b60006005611f0a613d2b565b906101000a90046001600160a01b03166001600160a01b03165a611f2c613d64565b6001600160a01b03161415611f4c576007611f45613d2b565b915061107d565b60006006611f58613d2b565b906101000a90046001600160a01b03166001600160a01b03165a611f7a613d64565b6001600160a01b03161415611f93576008611f45613d2b565b6040805162461bcd60e51b815260206004820152601760248201527f53656e646572206973206e6f7420616e206f7074696f6e000000000000000000604482015290519081900360640190fd5b60048181611fec613d2b565b8110611ff457fe5b60009182526020909120019050612009613d2b565b81565b60008061108c612880565b600080612022613d2b565b906101000a90046001600160a01b03166001600160a01b03165a612044613d64565b6001600160a01b0316146120895760405162461bcd60e51b815260040180806020018281038252602f815260200180613f57602f913960400191505060405180910390fd5b612091613713565b6120e2576040805162461bcd60e51b815260206004820152601b60248201527f556e65787069726564206f7074696f6e732072656d61696e696e670000000000604482015290519081900360640190fd5b6120eb816132d2565b50565b6000808060056120fc613d2b565b906101000a90046001600160a01b03166001600160a01b03166318160ddd6040518163ffffffff1660e01b8152600401602060405180830381868061213f613dc2565b15801561214b57600080fd5b505a612155613df4565b505050505015801561216b573d6000803e3d6000fd5b505050506040513d602081101561218157600080fd5b50516000600661218f613d2b565b906101000a90046001600160a01b03166001600160a01b03166318160ddd6040518163ffffffff1660e01b81526004016020604051808303818680611033613dc2565b600780611e8a613d2b565b6121e56131d9565b1561222a576040805162461bcd60e51b815260206004820152601060248201526f42696464696e6720696e61637469766560801b604482015290519081900360640190fd5b8061223457610f4b565b61223d826138a7565b6001600160a01b03166359d667a55a612254613d64565b836040518363ffffffff1660e01b815260040180836001600160a01b03166001600160a01b03168152602001828152602001925050506000604051808303816000878061229f613dc2565b1580156122ab57600080fd5b505a6122b5613e4c565b5050505050501580156122cc573d6000803e3d6000fd5b505050505a6122d9613d64565b6001600160a01b03167f70bd4a33bf447720d717d08f3affb5aecfe4d2ebb8e3dd94539f5313e244764383836040518083600181111561231557fe5b60ff1681526020018281526020019250505060405180910390a2600061233a8261398e565b90506123446129cd565b6001600160a01b03166323b872dd5a61235b613d64565b5a63996d79a5620800008160e01b8152602081600483336000905af18061238157600080fd5b5051604080516001600160e01b031960e088901b1681526001600160a01b039586166004820152949091166024850152604484018890525160648085019460209450919250908290030181600087806123d8613dc2565b1580156123e457600080fd5b505a6123ee613e4c565b505050505050158015612405573d6000803e3d6000fd5b505050506040513d602081101561241b57600080fd5b5060009050806124296131ee565b91509150612438828285613902565b5050505050565b601881565b6000806124616016612454613d2b565b859063ffffffff612a0e16565b9050600061246e866138a7565b6001600160a01b0316638b0341366040518163ffffffff1660e01b815260040160206040518083038186806124a1613dc2565b1580156124ad57600080fd5b505a6124b7613df4565b50505050501580156124cd573d6000803e3d6000fd5b505050506040513d60208110156124e357600080fd5b50519050600060146124f3613d2b565b9050600073__$60f5066a95a61bfd95691e5518aae05f18$__63907af6c06040518163ffffffff1660e01b81526004016020604051808303818680612536613dc2565b15801561254257600080fd5b505a61254c613ec3565b5050505050158015612562573d6000803e3d6000fd5b505050506040513d602081101561257857600080fd5b505190506000612598601161258b613d2b565b839063ffffffff61375c16565b90508860018111156125a657fe5b8a60018111156125b257fe5b141561261c5760006125ca848763ffffffff612a0e16565b905087156125e657936125e3868363ffffffff612a0e16565b95505b61260f6125f9848863ffffffff61375c16565b6126038388613a03565b9063ffffffff613a2a16565b965050505050505061266b565b600061262e858763ffffffff613a2a16565b9050871561263857925b60006126448286613a03565b9050886126515780612661565b612661818463ffffffff613a2a16565b9750505050505050505b949350505050565b6014612009613d2b565b60008060008061268b6131ee565b91509150613efa8561269f57612a2a6126a3565b61375c5b905060008860018111156126b357fe5b14156126ce576126c783888363ffffffff16565b92506126df565b6126dc82888363ffffffff16565b91505b8515612705576127026126f56011611bfb613d2b565b889063ffffffff612a0e16565b96505b61272683836127216014612717613d2b565b8b8663ffffffff16565b613a3f565b94509450505050935093915050565b600060146015612743613d2b565b906101000a900460ff16611a1b5761275e6016610a8c613d2b565b611e79565b60006107bd6b53797374656d53746174757360a01b604051806040016040528060148152602001734d697373696e672053797374656d53746174757360601b815250613ad2565b6127b26136cf565b6001600160a01b0316635c975abb6040518163ffffffff1660e01b815260040160206040518083038186806127e5613dc2565b1580156127f157600080fd5b505a6127fb613df4565b5050505050158015612811573d6000803e3d6000fd5b505050506040513d602081101561282757600080fd5b5051156108365760405162461bcd60e51b815260040180806020018281038252603c815260200180613fa7603c913960400191505060405180910390fd5b60005a612870613efc565b600a61287a613d2b565b10905090565b60008061288b613b92565b6001600160a01b0316634308a94f600c6128a3613d2b565b6040518263ffffffff1660e01b815260040180828152602001915050604080518083038186806128d1613dc2565b1580156128dd57600080fd5b505a6128e7613df4565b50505050501580156128fd573d6000803e3d6000fd5b505050506040513d604081101561291357600080fd5b50805160209091015190925090509091565b6000806129306136cf565b6001600160a01b0316634a41d89d6040518163ffffffff1660e01b81526004016060604051808303818680612963613dc2565b15801561296f57600080fd5b505a612979613df4565b505050505015801561298f573d6000803e3d6000fd5b505050506040513d60608110156129a557600080fd5b50519050826129c482600a6129b8613d2b565b9063ffffffff61375c16565b11159392505050565b60006107bd6814de5b9d1a1cd554d160ba1b60405180604001604052806011815260200170135a5cdcda5b99c814de5b9d1a1cd554d1607a1b815250613ad2565b6000612a238383670de0b6b3a7640000613bdb565b9392505050565b600082820183811015612a23576040805162461bcd60e51b815260206004820152601b60248201527f536166654d6174683a206164646974696f6e206f766572666c6f770000000000604482015290519081900360640190fd5b6000612a948260146129b8613d2b565b905080806014612aa2613d89565b505050612aad6136cf565b6001600160a01b0316636b3a0984836040518263ffffffff1660e01b81526004018082815260200191505060006040518083038160008780612aed613dc2565b158015612af957600080fd5b505a612b03613e4c565b505050505050158015612b1a573d6000803e3d6000fd5b50505050919050565b60006107bd66119959541bdbdb60ca1b6040518060400160405280600f81526020016e135a5cdcda5b99c8119959541bdbdb608a1b815250613ad2565b60008060146015612b6f613d2b565b906101000a900460ff1615612b8f57600e612b88613d2b565b9050612b9b565b612b97612880565b5090505b80600d612ba6613d2b565b1115612bb3576001611a64565b600091505090565b600080806005612bc9613d2b565b906101000a90046001600160a01b03166001600160a01b0316638dc30b70846040518263ffffffff1660e01b815260040180826001600160a01b03166001600160a01b031681526020019150506020604051808303818680612c29613dc2565b158015612c3557600080fd5b505a612c3f613df4565b5050505050158015612c55573d6000803e3d6000fd5b505050506040513d6020811015612c6b57600080fd5b505160006006612c79613d2b565b906101000a90046001600160a01b03166001600160a01b0316638dc30b70856040518263ffffffff1660e01b815260040180826001600160a01b03166001600160a01b031681526020019150506020604051808303818680612cd9613dc2565b158015612ce557600080fd5b505a612cef613df4565b5050505050158015612d05573d6000803e3d6000fd5b505050506040513d6020811015612d1b57600080fd5b50519092509050915091565b600080612d32612763565b6001600160a01b031663086dabd16040518163ffffffff1660e01b81526004016000604051808303818680612d65613dc2565b158015612d7157600080fd5b505a612d7b613df4565b5050505050158015612d91573d6000803e3d6000fd5b50505050612d9d6127aa565b612da56131d9565b612deb576040805162461bcd60e51b815260206004820152601260248201527142696464696e6720696e636f6d706c65746560701b604482015290519081900360640190fd5b6000612dfa60146107b8613d2b565b90506000612e06612b60565b9050600060146015612e16613d2b565b906101000a900460ff169050600080821580612e3d57506000846001811115612e3b57fe5b145b15612f195760006005612e4e613d2b565b906101000a90046001600160a01b03166001600160a01b0316632bc43fd95a612e75613d64565b6007612e7f613d2b565b886040518463ffffffff1660e01b815260040180846001600160a01b03166001600160a01b03168152602001838152602001828152602001935050505060206040518083038160008780612ed1613dc2565b158015612edd57600080fd5b505a612ee7613e4c565b505050505050158015612efe573d6000803e3d6000fd5b505050506040513d6020811015612f1457600080fd5b505191505b821580612f3157506001846001811115612f2f57fe5b145b1561300d5760006006612f42613d2b565b906101000a90046001600160a01b03166001600160a01b0316632bc43fd95a612f69613d64565b6008612f73613d2b565b886040518463ffffffff1660e01b815260040180846001600160a01b03166001600160a01b03168152602001838152602001828152602001935050505060206040518083038160008780612fc5613dc2565b158015612fd157600080fd5b505a612fdb613e4c565b505050505050158015612ff2573d6000803e3d6000fd5b505050506040513d602081101561300857600080fd5b505190505b8115158061301a57508015155b61305e576040805162461bcd60e51b815260206004820152601060248201526f4e6f7468696e6720746f20636c61696d60801b604482015290519081900360640190fd5b5a613067613d64565b6001600160a01b03167fbbe753caa9bb201dbd1740ee3d61c6d2adf5fa89f30233d732281ae5db6a03d48383604051808381526020018281526020019250505060405180910390a290955093505050509091565b6000808060056130c9613d2b565b906101000a90046001600160a01b03166001600160a01b0316639c3ee244846040518263ffffffff1660e01b815260040180826001600160a01b03166001600160a01b031681526020019150506020604051808303818680613129613dc2565b15801561313557600080fd5b505a61313f613df4565b5050505050158015613155573d6000803e3d6000fd5b505050506040513d602081101561316b57600080fd5b505160006006613179613d2b565b906101000a90046001600160a01b03166001600160a01b0316639c3ee244856040518263ffffffff1660e01b815260040180826001600160a01b03166001600160a01b031681526020019150506020604051808303818680612cd9613dc2565b60005a6131e4613efc565b600961287a613d2b565b6000808060056131fc613d2b565b906101000a90046001600160a01b03166001600160a01b0316638b0341366040518163ffffffff1660e01b8152600401602060405180830381868061323f613dc2565b15801561324b57600080fd5b505a613255613df4565b505050505015801561326b573d6000803e3d6000fd5b505050506040513d602081101561328157600080fd5b50516000600661328f613d2b565b906101000a90046001600160a01b03166001600160a01b0316638b0341366040518163ffffffff1660e01b81526004016020604051808303818680611033613dc2565b600060146132de613d2b565b905080156132f1576132ef81612a84565b505b60006132fb6129cd565b90506000816001600160a01b03166370a082315a63996d79a5620800008160e01b8152602081600483336000905af18061333457600080fd5b815193505050506040518263ffffffff1660e01b815260040180826001600160a01b03166001600160a01b03168152602001915050602060405180830381868061337c613dc2565b15801561338857600080fd5b505a613392613df4565b50505050501580156133a8573d6000803e3d6000fd5b505050506040513d60208110156133be57600080fd5b50519050801561346957816001600160a01b031663a9059cbb85836040518363ffffffff1660e01b815260040180836001600160a01b03166001600160a01b031681526020018281526020019250505060206040518083038160008780613423613dc2565b15801561342f57600080fd5b505a613439613e4c565b505050505050158015613450573d6000803e3d6000fd5b505050506040513d602081101561346657600080fd5b50505b60006005613475613d2b565b906101000a90046001600160a01b03166001600160a01b031663c8db233e856040518263ffffffff1660e01b815260040180826001600160a01b03166001600160a01b03168152602001915050600060405180830381600087806134d7613dc2565b1580156134e357600080fd5b505a6134ed613e4c565b505050505050158015613504573d6000803e3d6000fd5b505050506005600101600090613518613d2b565b906101000a90046001600160a01b03166001600160a01b031663c8db233e856040518263ffffffff1660e01b815260040180826001600160a01b03166001600160a01b031681526020019150506000604051808303816000878061357a613dc2565b15801561358657600080fd5b505a613590613e4c565b5050505050501580156135a7573d6000803e3d6000fd5b5050505050505050565b6000808060056135bf613d2b565b906101000a90046001600160a01b03166001600160a01b03166370a08231846040518263ffffffff1660e01b815260040180826001600160a01b03166001600160a01b03168152602001915050602060405180830381868061361f613dc2565b15801561362b57600080fd5b505a613635613df4565b505050505015801561364b573d6000803e3d6000fd5b505050506040513d602081101561366157600080fd5b50516000600661366f613d2b565b906101000a90046001600160a01b03166001600160a01b03166370a08231856040518263ffffffff1660e01b815260040180826001600160a01b03166001600160a01b031681526020019150506020604051808303818680612cd9613dc2565b600080806136db613d2b565b906101000a90046001600160a01b0316905090565b6000808460018111156136ff57fe5b141561370c575081612a23565b5092915050565b600060146015613721613d2b565b906101000a900460ff1680156107bd57505a61373b613efc565b600b613745613d2b565b10806107bd57506014613756613d2b565b15905090565b6000828211156137b3576040805162461bcd60e51b815260206004820152601e60248201527f536166654d6174683a207375627472616374696f6e206f766572666c6f770000604482015290519081900360640190fd5b50900390565b60006137cb838363ffffffff612a2a16565b90508060126137d8613d2b565b1115613822576040805162461bcd60e51b8152602060048201526014602482015273125b9cdd59999a58da595b9d0818d85c1a5d185b60621b604482015290519081900360640190fd5b6000601361382e613d2b565b9050613840848363ffffffff613c1816565b811115801561385e575061385a838363ffffffff613c1816565b8111155b6138a1576040805162461bcd60e51b815260206004820152600f60248201526e109a591cc81d1bdbc81cdad95dd959608a1b604482015290519081900360640190fd5b50505050565b6000808260018111156138b657fe5b14156138df57600060056138c8613d2b565b906101000a90046001600160a01b031690506113da565b600060066138eb613d2b565b906101000a90046001600160a01b03169050919050565b600080613910858585613a3f565b6040805180820190915282815260208101829052919350915060078381613935613d89565b5050602082015181600101613948613d89565b5050604080518581526020810185905281517f6546f60f34df611fa42503098acc39d5ab88bc73febe64b3cc14e5a92e3a66a79450908190039091019150a15050505050565b60006139aa82601461399e613d2b565b9063ffffffff612a2a16565b9050808060146139b8613d89565b5050506139c36136cf565b6001600160a01b031663aeab5849836040518263ffffffff1660e01b81526004018082815260200191505060006040518083038160008780612aed613dc2565b6000818310613a2157613a1c838363ffffffff61375c16565b612a23565b50600092915050565b6000612a238383670de0b6b3a7640000613c42565b6000808415801590613a5057508315155b613a98576040805162461bcd60e51b815260206004820152601460248201527342696473206d757374206265206e6f6e7a65726f60601b604482015290519081900360640190fd5b6000613aa384612735565b9050613ab5868263ffffffff613a2a16565b613ac5868363ffffffff613a2a16565b9250925050935093915050565b600082815260036020526040812081908190613aec613d2b565b6001600160a01b036101009290920a90041690508281613b8a5760405162461bcd60e51b81526004018080602001828103825283818151815260200191508051906020019080838360005b83811015613b4f578181015183820152602001613b37565b50505050905090810190601f168015613b7c5780820380516001836020036101000a031916815260200191505b509250505060405180910390fd5b509392505050565b60006107bd6c45786368616e6765526174657360981b604051806040016040528060158152602001744d697373696e672045786368616e6765526174657360581b815250613ad2565b600080600a8304613bf2868663ffffffff613c6816565b81613bf957fe5b0490506005600a825b0610613c0c57600a015b600a9004949350505050565b6000612a2382613c3685670de0b6b3a764000063ffffffff613c6816565b9063ffffffff613cc116565b600080613c5c84613c3687600a870263ffffffff613c6816565b90506005600a82613c02565b600082613c7757506000611e79565b82820282848281613c8457fe5b0414612a235760405162461bcd60e51b8152600401808060200182810382526021815260200180613f866021913960400191505060405180910390fd5b6000808211613d17576040805162461bcd60e51b815260206004820152601a60248201527f536166654d6174683a206469766973696f6e206279207a65726f000000000000604482015290519081900360640190fd5b6000828481613d2257fe5b04949350505050565b630412cc4160e31b6208000090815262080004839052632096620890602081602481336000905af180613d5d57600080fd5b5051925050565b6373509064620800008160e01b8152602081600483336000905af180613d5d57600080fd5b630146e59560e51b6208000090815262080004839052620800248490526328dcb2a090600081604481336000905af18061156557600080fd5b63c3382d0f60e01b620800009081526208000483905263c3382d0f90602081602481336000905af180613d5d57600080fd5b63fbb0f79d60e01b620800009081526208000484905263fbb0f79d9060005b87811015613e2e578681015182820160240152602001613e13565b5088888860240183336000905af180613e4657600080fd5b98505050565b63131b5f2160e21b6208000090815262080004849052634c6d7c849060005b88811015613e86578781015182820160240152602001613e6b565b5089898960240183336000905af180613e9e57600080fd5b99505050565b6040518061030001604052806018906020820280388339509192915050565b6345e97ddb60e01b62080000908152620800048490526345e97ddb9060008715613e2e578681015182820160240152602001613e13565bfe5b63bdbf8c36620800008160e01b8152602081600483336000905af180613d5d57600080fdfe596f75206d757374206265206e6f6d696e61746564206265666f726520796f752063616e20616363657074206f776e6572736869704f6e6c792074686520636f6e7472616374206f776e6572206d617920706572666f726d207468697320616374696f6e536166654d6174683a206d756c7469706c69636174696f6e206f766572666c6f775468697320616374696f6e2063616e6e6f7420626520706572666f726d6564207768696c652074686520636f6e747261637420697320706175736564a265627a7a72315820dfd9e1ee1a4deabce03697db3642d6f6a945730bd327d57f3cba0c013a7eedb064736f6c637828302e352e31362d646576656c6f702e323032302e382e31332b636f6d6d69742e3662653039303266005860806040523480156200001157600080fd5b506040516200166338038062001663833981810160405260408110156200003757600080fd5b5080516020909101515a6200004b620000c4565b60006001816200005a620000f1565b816001600160a01b0302191690836001600160a01b03160217906200007e62000124565b5050506001600160a01b038216600090815260016020526040902081908190620000a762000124565b5050508060028190620000b962000124565b505050505062000163565b6373509064620800008160e01b8152602081600483336000905af180620000ea57600080fd5b5051925050565b630412cc4160e31b6208000090815262080004839052632096620890602081602481336000905af180620000ea57600080fd5b630146e59560e51b6208000090815262080004839052620800248490526328dcb2a090600081604481336000905af1806200015e57600080fd5b505050565b6114f080620001736000396000f3fe608060405234801561001057600080fd5b50600436106101215760003560e01c806370a08231116100ad5780639c3ee244116100715780639c3ee24414610383578063a9059cbb146103a9578063c8db233e146103d5578063d6ff02e2146103fb578063dd62ed3e1461040357610121565b806370a082311461030357806380f55605146103295780638b0341361461034d5780638dc30b701461035557806395d89b411461037b57610121565b806323b872dd116100f457806323b872dd146102255780632bc43fd91461025b578063313ce5671461028d578063410085df146102ab57806359d667a5146102d757610121565b806306fdde0314610126578063095ea7b3146101a357806318160ddd146101e35780631b15982a146101fd575b600080fd5b61012e610431565b6040805160208082528351818301528351919283929083019185019080838360005b83811015610168578181015183820152602001610150565b50505050905090810190601f1680156101955780820380516001836020036101000a031916815260200191505b509250505060405180910390f35b6101cf600480360360408110156101b957600080fd5b506001600160a01b03813516906020013561045e565b604080519115158252519081900360200190f35b6101eb610514565b60408051918252519081900360200190f35b6102236004803603602081101561021357600080fd5b50356001600160a01b0316610521565b005b6101cf6004803603606081101561023b57600080fd5b506001600160a01b0381358116916020810135909116906040013561069f565b6101eb6004803603606081101561027157600080fd5b506001600160a01b0381351690602081013590604001356107b0565b6102956109ae565b6040805160ff9092168252519081900360200190f35b610223600480360360408110156102c157600080fd5b506001600160a01b0381351690602001356109b3565b610223600480360360408110156102ed57600080fd5b506001600160a01b038135169060200135610aa5565b6101eb6004803603602081101561031957600080fd5b50356001600160a01b0316610b80565b610331610b96565b604080516001600160a01b039092168252519081900360200190f35b6101eb610bb4565b6101eb6004803603602081101561036b57600080fd5b50356001600160a01b0316610bbe565b61012e610bd4565b6101eb6004803603602081101561039957600080fd5b50356001600160a01b0316610bf4565b6101cf600480360360408110156103bf57600080fd5b506001600160a01b038135169060200135610ccb565b610223600480360360208110156103eb57600080fd5b50356001600160a01b0316610ce0565b6101eb610d5e565b6101eb6004803603604081101561041957600080fd5b506001600160a01b0381358116916020013516610e05565b6040518060400160405280601181526020017029a72c102134b730b93c9027b83a34b7b760791b81525081565b60006001600160a01b03831661047357600080fd5b81600560005a61048161134e565b6001600160a01b0390811682526020808301939093526040918201600090812091881681529252902081906104b461137a565b505050826001600160a01b03165a6104ca61134e565b6001600160a01b03167f8c5be1e5ebec7d5bd14f71427d1e84f3dd0314c0f7b2291e5b200ac8c7c3b925846040518082815260200191505060405180910390a35060015b92915050565b600461051e6113b8565b81565b60008061052c6113b8565b906101000a90046001600160a01b03166001600160a01b03165a61054e61134e565b6001600160a01b03161461059f576040805162461bcd60e51b815260206004820152601360248201527213db9b1e481b585c9ad95d08185b1b1bddd959606a1b604482015290519081900360640190fd5b6001600160a01b03811660009081526003602052604081206105bf6113b8565b9050806105cc575061069c565b6001600160a01b038216600090815260036020526040812081906105ee61137a565b50505061060b8160046105ff6113b8565b9063ffffffff610e2616565b80600461061661137a565b5050604080518381529051600092506001600160a01b038516917fddf252ad1be2c89b69c2b068fc378daa952ba7f163c4a11628f55a4df523b3ef919081900360200190a36040805182815290516001600160a01b038416917f696de425f79f4a40bc6d2122ca50507f0efbeabbff86a84871b7196ab8ea8df7919081900360200190a2505b50565b6001600160a01b03831660009081526005602052604081208190815a6106c361134e565b6001600160a01b03166001600160a01b031681526020019081526020016000206106eb6113b8565b90508083111561073b576040805162461bcd60e51b8152602060048201526016602482015275496e73756666696369656e7420616c6c6f77616e636560501b604482015290519081900360640190fd5b61074b818463ffffffff610e2616565b6001600160a01b0386166000908152600560205260408120905a61076d61134e565b6001600160a01b03166001600160a01b03168152602001908152602001600020819061079761137a565b5050506107a5858585610e83565b9150505b9392505050565b600080806107bc6113b8565b906101000a90046001600160a01b03166001600160a01b03165a6107de61134e565b6001600160a01b03161461082f576040805162461bcd60e51b815260206004820152601360248201527213db9b1e481b585c9ad95d08185b1b1bddd959606a1b604482015290519081900360640190fd5b6001600160a01b038416600090815260016020526040812061084f6113b8565b9050600061085e8286866110d7565b905080610870576000925050506107a9565b61087e8260026105ff6113b8565b80600261088961137a565b5050506001600160a01b038616600090815260016020526040812081906108ae61137a565b5050506108cb8160046108bf6113b8565b9063ffffffff61117a16565b8060046108d661137a565b5050506001600160a01b03861660009081526003602052604090206108ff9082906108bf6113b8565b6001600160a01b0387166000908152600360205260409020819061092161137a565b50506040805183815290516001600160a01b03891692506000917fddf252ad1be2c89b69c2b068fc378daa952ba7f163c4a11628f55a4df523b3ef919081900360200190a36040805182815290516001600160a01b038816917fa59f12e354e8cd10bb74c559844c2dd69a5458e31fe56c7594c62ca57480509a919081900360200190a295945050505050565b601281565b6000806109be6113b8565b906101000a90046001600160a01b03166001600160a01b03165a6109e061134e565b6001600160a01b031614610a31576040805162461bcd60e51b815260206004820152601360248201527213db9b1e481b585c9ad95d08185b1b1bddd959606a1b604482015290519081900360640190fd5b6001600160a01b0382166000908152600160205260409020610a6090610a5b9083906105ff6113b8565b6111d4565b6001600160a01b03831660009081526001602052604090208190610a8261137a565b505050610a938160026105ff6113b8565b806002610a9e61137a565b5050505050565b600080610ab06113b8565b906101000a90046001600160a01b03166001600160a01b03165a610ad261134e565b6001600160a01b031614610b23576040805162461bcd60e51b815260206004820152601360248201527213db9b1e481b585c9ad95d08185b1b1bddd959606a1b604482015290519081900360640190fd5b6001600160a01b0382166000908152600160205260409020610b4d90610a5b9083906108bf6113b8565b6001600160a01b03831660009081526001602052604090208190610b6f61137a565b505050610a938160026108bf6113b8565b600360205260009081526040902061051e6113b8565b600080610ba16113b8565b906101000a90046001600160a01b031681565b600261051e6113b8565b600160205260009081526040902061051e6113b8565b604051806040016040528060048152602001631cd3d41560e21b81525081565b600080808080610c026113b8565b906101000a90046001600160a01b03166001600160a01b031663c588f5266040518163ffffffff1660e01b815260040160408051808303818680610c446113ea565b158015610c5057600080fd5b505a610c5a61141c565b5050505050158015610c70573d6000803e3d6000fd5b505050506040513d6040811015610c8657600080fd5b5080516020918201516001600160a01b038716600090815260019093526040909220909350909150610cc190610cba6113b8565b83836110d7565b925050505b919050565b60006107a95a610cd961134e565b8484610e83565b600080610ceb6113b8565b906101000a90046001600160a01b03166001600160a01b03165a610d0d61134e565b6001600160a01b03161461069c576040805162461bcd60e51b815260206004820152601360248201527213db9b1e481b585c9ad95d08185b1b1bddd959606a1b604482015290519081900360640190fd5b6000808080610d6b6113b8565b906101000a90046001600160a01b03166001600160a01b031663c588f5266040518163ffffffff1660e01b815260040160408051808303818680610dad6113ea565b158015610db957600080fd5b505a610dc361141c565b5050505050158015610dd9573d6000803e3d6000fd5b505050506040513d6040811015610def57600080fd5b50602001519050610dff81611231565b91505090565b6005602090815260009283526040808420909152908252902061051e6113b8565b600082821115610e7d576040805162461bcd60e51b815260206004820152601e60248201527f536166654d6174683a207375627472616374696f6e206f766572666c6f770000604482015290519081900360640190fd5b50900390565b60008080610e8f6113b8565b906101000a90046001600160a01b03166001600160a01b03166327745bae6040518163ffffffff1660e01b81526004016000604051808303818680610ed26113ea565b158015610ede57600080fd5b505a610ee861141c565b5050505050158015610efe573d6000803e3d6000fd5b505050506001600160a01b03831615801590610f5057505a63996d79a5620800008160e01b8152602081600483336000905af180610f3b57600080fd5b50516001600160a01b03868116911614159150505b610f93576040805162461bcd60e51b815260206004820152600f60248201526e496e76616c6964206164647265737360881b604482015290519081900360640190fd5b6001600160a01b0384166000908152600360205260408120610fb36113b8565b905080831115611001576040805162461bcd60e51b8152602060048201526014602482015273496e73756666696369656e742062616c616e636560601b604482015290519081900360640190fd5b611011818463ffffffff610e2616565b6001600160a01b0386166000908152600360205260409020819061103361137a565b5050506001600160a01b038416600090815260036020526040902061105c9084906108bf6113b8565b6001600160a01b0385166000908152600360205260409020819061107e61137a565b505050836001600160a01b0316856001600160a01b03167fddf252ad1be2c89b69c2b068fc378daa952ba7f163c4a11628f55a4df523b3ef856040518082815260200191505060405180910390a3506001949350505050565b6000806110ea858563ffffffff61126116565b905060006110f784611231565b905060026111036113b8565b8614801561111057508515155b80611119575080155b156111275791506107a99050565b80821115611171576040805162461bcd60e51b8152602060048201526012602482015271737570706c79203c20636c61696d61626c6560701b604482015290519081900360640190fd5b50949350505050565b6000828201838110156107a9576040805162461bcd60e51b815260206004820152601b60248201527f536166654d6174683a206164646974696f6e206f766572666c6f770000000000604482015290519081900360640190fd5b6000662386f26fc10000821015806111ea575081155b61122d576040805162461bcd60e51b815260206004820152600f60248201526e42616c616e6365203c2024302e303160881b604482015290519081900360640190fd5b5090565b600080600461123e6113b8565b9050808311611251576000915050610cc6565b6107a9838263ffffffff610e2616565b60006107a98261127f85670de0b6b3a764000063ffffffff61128b16565b9063ffffffff6112e416565b60008261129a5750600061050e565b828202828482816112a757fe5b04146107a95760405162461bcd60e51b81526004018080602001828103825260218152602001806114756021913960400191505060405180910390fd5b600080821161133a576040805162461bcd60e51b815260206004820152601a60248201527f536166654d6174683a206469766973696f6e206279207a65726f000000000000604482015290519081900360640190fd5b600082848161134557fe5b04949350505050565b6373509064620800008160e01b8152602081600483336000905af18061137357600080fd5b5051925050565b630146e59560e51b6208000090815262080004839052620800248490526328dcb2a090600081604481336000905af1806113b357600080fd5b505050565b630412cc4160e31b6208000090815262080004839052632096620890602081602481336000905af18061137357600080fd5b63c3382d0f60e01b620800009081526208000483905263c3382d0f90602081602481336000905af18061137357600080fd5b63fbb0f79d60e01b620800009081526208000484905263fbb0f79d9060005b8781101561145657868101518282016024015260200161143b565b5088888860240183336000905af18061146e57600080fd5b9850505056fe536166654d6174683a206d756c7469706c69636174696f6e206f766572666c6f77a265627a7a72315820c8c1da6003b22439ec3bd978a574a0ff32473a23434e2e4362d2e3149a840d0a64736f6c637828302e352e31362d646576656c6f702e323032302e382e31332b636f6d6d69742e36626530393032660058536166654d6174683a206d756c7469706c69636174696f6e206f766572666c6f7770bd4a33bf447720d717d08f3affb5aecfe4d2ebb8e3dd94539f5313e2447643596f75206d757374206265206e6f6d696e61746564206265666f726520796f752063616e20616363657074206f776e6572736869704d697373696e672042696e6172794f7074696f6e4d61726b65744d616e6167657220616464726573734f6e6c792074686520636f6e7472616374206f776e6572206d617920706572666f726d207468697320616374696f6ea265627a7a72315820f233d0211ff847c7536a7c2c0c4e268bb4082f3d553b85652ee1d25e897933f064736f6c637828302e352e31362d646576656c6f702e323032302e382e31332b636f6d6d69742e36626530393032660058",
			"opcodes": "PUSH1 0xA0 PUSH1 0x40 MSTORE PUSH32 0x42696E6172794F7074696F6E4D61726B65744D616E6167657200000000000000 PUSH1 0x80 SWAP1 DUP2 MSTORE PUSH3 0x3A SWAP1 PUSH1 0x7 SWAP1 PUSH1 0x1 PUSH3 0x3E7 JUMP JUMPDEST POP CALLVALUE DUP1 ISZERO PUSH3 0x48 JUMPI PUSH1 0x0 DUP1 REVERT JUMPDEST POP PUSH1 0x40 MLOAD PUSH3 0x7FDC CODESIZE SUB DUP1 PUSH3 0x7FDC DUP4 CODECOPY DUP2 DUP2 ADD PUSH1 0x40 MSTORE PUSH1 0x40 DUP2 LT ISZERO PUSH3 0x6E JUMPI PUSH1 0x0 DUP1 REVERT JUMPDEST POP DUP1 MLOAD PUSH1 0x20 SWAP1 SWAP2 ADD MLOAD PUSH1 0x40 DUP1 MLOAD PUSH2 0x300 DUP2 ADD SWAP2 DUP3 SWAP1 MSTORE DUP3 SWAP2 PUSH1 0x7 SWAP1 PUSH1 0x18 SWAP1 DUP3 DUP5 JUMPDEST DUP2 PUSH3 0x9A PUSH3 0x435 JUMP JUMPDEST DUP2 MSTORE PUSH1 0x20 ADD SWAP1 PUSH1 0x1 ADD SWAP1 DUP1 DUP4 GT PUSH3 0x8F JUMPI POP DUP8 SWAP4 POP POP POP POP PUSH1 0x1 PUSH1 0x1 PUSH1 0xA0 SHL SUB DUP2 AND PUSH3 0x10F JUMPI PUSH1 0x40 DUP1 MLOAD PUSH3 0x461BCD PUSH1 0xE5 SHL DUP2 MSTORE PUSH1 0x20 PUSH1 0x4 DUP3 ADD MSTORE PUSH1 0x19 PUSH1 0x24 DUP3 ADD MSTORE PUSH32 0x4F776E657220616464726573732063616E6E6F74206265203000000000000000 PUSH1 0x44 DUP3 ADD MSTORE SWAP1 MLOAD SWAP1 DUP2 SWAP1 SUB PUSH1 0x64 ADD SWAP1 REVERT JUMPDEST DUP1 PUSH1 0x0 PUSH1 0x1 DUP2 PUSH3 0x11F PUSH3 0x435 JUMP JUMPDEST DUP2 PUSH1 0x1 PUSH1 0x1 PUSH1 0xA0 SHL SUB MUL NOT AND SWAP1 DUP4 PUSH1 0x1 PUSH1 0x1 PUSH1 0xA0 SHL SUB AND MUL OR SWAP1 PUSH3 0x143 PUSH3 0x46F JUMP JUMPDEST POP POP PUSH1 0x40 DUP1 MLOAD PUSH1 0x0 DUP2 MSTORE PUSH1 0x1 PUSH1 0x1 PUSH1 0xA0 SHL SUB DUP5 AND PUSH1 0x20 DUP3 ADD MSTORE DUP2 MLOAD PUSH32 0xB532073B38C83145E3E5135377A08BF9AAB55BC0FD7C1179CD4FB995D2A5159C SWAP4 POP SWAP1 DUP2 SWAP1 SUB SWAP1 SWAP2 ADD SWAP1 LOG1 POP PUSH1 0x0 DUP1 DUP1 PUSH3 0x199 PUSH3 0x435 JUMP JUMPDEST SWAP1 PUSH2 0x100 EXP SWAP1 DIV PUSH1 0x1 PUSH1 0x1 PUSH1 0xA0 SHL SUB AND PUSH1 0x1 PUSH1 0x1 PUSH1 0xA0 SHL SUB AND EQ ISZERO PUSH3 0x1FA JUMPI PUSH1 0x40 DUP1 MLOAD PUSH3 0x461BCD PUSH1 0xE5 SHL DUP2 MSTORE PUSH1 0x20 PUSH1 0x4 DUP3 ADD MSTORE PUSH1 0x11 PUSH1 0x24 DUP3 ADD MSTORE PUSH17 0x13DDDB995C881B5D5CDD081899481CD95D PUSH1 0x7A SHL PUSH1 0x44 DUP3 ADD MSTORE SWAP1 MLOAD SWAP1 DUP2 SWAP1 SUB PUSH1 0x64 ADD SWAP1 REVERT JUMPDEST PUSH1 0x0 DUP1 PUSH3 0x207 PUSH3 0x435 JUMP JUMPDEST SWAP1 PUSH2 0x100 EXP SWAP1 DIV PUSH1 0x1 PUSH1 0x1 PUSH1 0xA0 SHL SUB AND PUSH1 0x3 PUSH1 0x1 PUSH2 0x100 EXP DUP2 PUSH3 0x22A PUSH3 0x435 JUMP JUMPDEST DUP2 PUSH1 0x1 PUSH1 0x1 PUSH1 0xA0 SHL SUB MUL NOT AND SWAP1 DUP4 PUSH1 0x1 PUSH1 0x1 PUSH1 0xA0 SHL SUB AND MUL OR SWAP1 PUSH3 0x24E PUSH3 0x46F JUMP JUMPDEST POP POP POP PUSH32 0xD5DA63A0B864B315BC04128DEDBC93888C8529EE6CF47CE664DC204339228C53 PUSH1 0x0 DUP1 SWAP1 PUSH3 0x280 PUSH3 0x435 JUMP JUMPDEST PUSH1 0x40 DUP1 MLOAD PUSH2 0x100 SWAP4 SWAP1 SWAP4 EXP SWAP1 SWAP2 DIV PUSH1 0x1 PUSH1 0x1 PUSH1 0xA0 SHL SUB AND DUP3 MSTORE MLOAD PUSH1 0x20 SWAP2 DUP2 SWAP1 SUB SWAP2 SWAP1 SWAP2 ADD SWAP1 LOG1 PUSH1 0x0 DUP1 DUP1 PUSH3 0x2B4 PUSH3 0x435 JUMP JUMPDEST SWAP1 PUSH2 0x100 EXP SWAP1 DIV PUSH1 0x1 PUSH1 0x1 PUSH1 0xA0 SHL SUB AND PUSH1 0x1 PUSH1 0x1 PUSH1 0xA0 SHL SUB AND EQ ISZERO PUSH3 0x315 JUMPI PUSH1 0x40 DUP1 MLOAD PUSH3 0x461BCD PUSH1 0xE5 SHL DUP2 MSTORE PUSH1 0x20 PUSH1 0x4 DUP3 ADD MSTORE PUSH1 0x11 PUSH1 0x24 DUP3 ADD MSTORE PUSH17 0x13DDDB995C881B5D5CDD081899481CD95D PUSH1 0x7A SHL PUSH1 0x44 DUP3 ADD MSTORE SWAP1 MLOAD SWAP1 DUP2 SWAP1 SUB PUSH1 0x64 ADD SWAP1 REVERT JUMPDEST PUSH1 0x0 JUMPDEST PUSH1 0x18 DUP2 LT ISZERO PUSH3 0x3A5 JUMPI PUSH1 0x0 DUP3 DUP3 PUSH1 0x18 DUP2 LT PUSH3 0x331 JUMPI INVALID JUMPDEST PUSH1 0x20 MUL ADD MLOAD EQ PUSH3 0x396 JUMPI PUSH1 0x6 DUP3 DUP3 PUSH1 0x18 DUP2 LT PUSH3 0x34B JUMPI INVALID JUMPDEST PUSH1 0x20 MUL ADD MLOAD SWAP1 DUP1 PUSH1 0x1 DUP2 PUSH3 0x35F PUSH3 0x435 JUMP JUMPDEST ADD DUP1 DUP3 PUSH3 0x36C PUSH3 0x46F JUMP JUMPDEST POP POP PUSH1 0x0 SWAP3 DUP4 MSTORE PUSH1 0x20 SWAP1 SWAP3 KECCAK256 SWAP2 SWAP3 SWAP2 DUP4 ADD PUSH1 0x0 NOT ADD SWAP1 POP PUSH3 0x38D PUSH3 0x46F JUMP JUMPDEST POP POP POP PUSH3 0x39C JUMP JUMPDEST PUSH3 0x3A5 JUMP JUMPDEST PUSH1 0x1 ADD PUSH3 0x318 JUMP JUMPDEST POP DUP2 PUSH1 0x4 PUSH1 0x1 DUP2 PUSH3 0x3B6 PUSH3 0x435 JUMP JUMPDEST DUP2 PUSH1 0x1 PUSH1 0x1 PUSH1 0xA0 SHL SUB MUL NOT AND SWAP1 DUP4 PUSH1 0x1 PUSH1 0x1 PUSH1 0xA0 SHL SUB AND MUL OR SWAP1 PUSH3 0x3DA PUSH3 0x46F JUMP JUMPDEST POP POP POP POP POP POP POP PUSH3 0x4DB JUMP JUMPDEST DUP3 PUSH1 0x18 DUP2 ADD SWAP3 DUP3 ISZERO PUSH3 0x423 JUMPI SWAP2 PUSH1 0x20 MUL DUP3 ADD JUMPDEST DUP3 DUP2 GT ISZERO PUSH3 0x423 JUMPI DUP3 MLOAD DUP3 PUSH3 0x411 PUSH3 0x46F JUMP JUMPDEST POP POP SWAP2 PUSH1 0x20 ADD SWAP2 SWAP1 PUSH1 0x1 ADD SWAP1 PUSH3 0x3FB JUMP JUMPDEST POP PUSH3 0x431 SWAP3 SWAP2 POP PUSH3 0x4AE JUMP JUMPDEST POP SWAP1 JUMP JUMPDEST PUSH4 0x412CC41 PUSH1 0xE3 SHL PUSH3 0x80000 SWAP1 DUP2 MSTORE PUSH3 0x80004 DUP4 SWAP1 MSTORE PUSH4 0x20966208 SWAP1 PUSH1 0x20 DUP2 PUSH1 0x24 DUP2 CALLER PUSH1 0x0 SWAP1 GAS CALL DUP1 PUSH3 0x468 JUMPI PUSH1 0x0 DUP1 REVERT JUMPDEST POP MLOAD SWAP3 POP POP JUMP JUMPDEST PUSH4 0x146E595 PUSH1 0xE5 SHL PUSH3 0x80000 SWAP1 DUP2 MSTORE PUSH3 0x80004 DUP4 SWAP1 MSTORE PUSH3 0x80024 DUP5 SWAP1 MSTORE PUSH4 0x28DCB2A0 SWAP1 PUSH1 0x0 DUP2 PUSH1 0x44 DUP2 CALLER PUSH1 0x0 SWAP1 GAS CALL DUP1 PUSH3 0x4A9 JUMPI PUSH1 0x0 DUP1 REVERT JUMPDEST POP POP POP JUMP JUMPDEST PUSH3 0x4D8 SWAP2 SWAP1 JUMPDEST DUP1 DUP3 GT ISZERO PUSH3 0x431 JUMPI PUSH1 0x0 DUP1 DUP3 PUSH3 0x4CC PUSH3 0x46F JUMP JUMPDEST POP POP POP PUSH1 0x1 ADD PUSH3 0x4B5 JUMP JUMPDEST SWAP1 JUMP JUMPDEST PUSH2 0x7AF1 DUP1 PUSH3 0x4EB PUSH1 0x0 CODECOPY PUSH1 0x0 RETURN INVALID PUSH1 0x80 PUSH1 0x40 MSTORE CALLVALUE DUP1 ISZERO PUSH3 0x11 JUMPI PUSH1 0x0 DUP1 REVERT JUMPDEST POP PUSH1 0x4 CALLDATASIZE LT PUSH3 0x13C JUMPI PUSH1 0x0 CALLDATALOAD PUSH1 0xE0 SHR DUP1 PUSH4 0x79BA5097 GT PUSH3 0xBD JUMPI DUP1 PUSH4 0xB8225DEC GT PUSH3 0x7B JUMPI DUP1 PUSH4 0xB8225DEC EQ PUSH3 0x312 JUMPI DUP1 PUSH4 0xBD32AA44 EQ PUSH3 0x31C JUMPI DUP1 PUSH4 0xC58AAAE6 EQ PUSH3 0x326 JUMPI DUP1 PUSH4 0xC6C9D828 EQ PUSH3 0x330 JUMPI DUP1 PUSH4 0xE3235C91 EQ PUSH3 0x350 JUMPI PUSH3 0x13C JUMP JUMPDEST DUP1 PUSH4 0x79BA5097 EQ PUSH3 0x2A5 JUMPI DUP1 PUSH4 0x8DA5CB5B EQ PUSH3 0x2AF JUMPI DUP1 PUSH4 0x9CB8A26A EQ PUSH3 0x2B9 JUMPI DUP1 PUSH4 0xA461FC82 EQ PUSH3 0x2C3 JUMPI DUP1 PUSH4 0xAB49848C EQ PUSH3 0x2CD JUMPI PUSH3 0x13C JUMP JUMPDEST DUP1 PUSH4 0x20714F88 GT PUSH3 0x10B JUMPI DUP1 PUSH4 0x20714F88 EQ PUSH3 0x202 JUMPI DUP1 PUSH4 0x3278C960 EQ PUSH3 0x22B JUMPI DUP1 PUSH4 0x3BE99E6F EQ PUSH3 0x235 JUMPI DUP1 PUSH4 0x53A47BB7 EQ PUSH3 0x25E JUMPI DUP1 PUSH4 0x631E1444 EQ PUSH3 0x268 JUMPI PUSH3 0x13C JUMP JUMPDEST DUP1 PUSH4 0x4F3BCEC EQ PUSH3 0x141 JUMPI DUP1 PUSH4 0x130EFA50 EQ PUSH3 0x167 JUMPI DUP1 PUSH4 0x1627540C EQ PUSH3 0x1BB JUMPI DUP1 PUSH4 0x17C70DE4 EQ PUSH3 0x1E6 JUMPI JUMPDEST PUSH1 0x0 DUP1 REVERT JUMPDEST PUSH3 0x14B PUSH3 0x35A JUMP JUMPDEST PUSH1 0x40 DUP1 MLOAD PUSH1 0x1 PUSH1 0x1 PUSH1 0xA0 SHL SUB SWAP1 SWAP3 AND DUP3 MSTORE MLOAD SWAP1 DUP2 SWAP1 SUB PUSH1 0x20 ADD SWAP1 RETURN JUMPDEST PUSH3 0x14B PUSH1 0x4 DUP1 CALLDATASIZE SUB PUSH2 0x1C0 DUP2 LT ISZERO PUSH3 0x180 JUMPI PUSH1 0x0 DUP1 REVERT JUMPDEST POP PUSH1 0x1 PUSH1 0x1 PUSH1 0xA0 SHL SUB DUP2 CALLDATALOAD AND SWAP1 PUSH1 0x20 DUP2 ADD SWAP1 PUSH1 0x60 DUP2 ADD CALLDATALOAD SWAP1 PUSH1 0x80 DUP2 ADD CALLDATALOAD SWAP1 PUSH1 0xA0 DUP2 ADD CALLDATALOAD ISZERO ISZERO SWAP1 PUSH1 0xC0 DUP2 ADD SWAP1 PUSH2 0x120 DUP2 ADD SWAP1 PUSH2 0x160 ADD PUSH3 0x37B JUMP JUMPDEST PUSH3 0x1E4 PUSH1 0x4 DUP1 CALLDATASIZE SUB PUSH1 0x20 DUP2 LT ISZERO PUSH3 0x1D3 JUMPI PUSH1 0x0 DUP1 REVERT JUMPDEST POP CALLDATALOAD PUSH1 0x1 PUSH1 0x1 PUSH1 0xA0 SHL SUB AND PUSH3 0x4EC JUMP JUMPDEST STOP JUMPDEST PUSH3 0x1F0 PUSH3 0x5DA JUMP JUMPDEST PUSH1 0x40 DUP1 MLOAD SWAP2 DUP3 MSTORE MLOAD SWAP1 DUP2 SWAP1 SUB PUSH1 0x20 ADD SWAP1 RETURN JUMPDEST PUSH3 0x1E4 PUSH1 0x4 DUP1 CALLDATASIZE SUB PUSH1 0x20 DUP2 LT ISZERO PUSH3 0x21A JUMPI PUSH1 0x0 DUP1 REVERT JUMPDEST POP CALLDATALOAD PUSH1 0x1 PUSH1 0x1 PUSH1 0xA0 SHL SUB AND PUSH3 0x5E9 JUMP JUMPDEST PUSH3 0x1E4 PUSH3 0x735 JUMP JUMPDEST PUSH3 0x1E4 PUSH1 0x4 DUP1 CALLDATASIZE SUB PUSH1 0x20 DUP2 LT ISZERO PUSH3 0x24D JUMPI PUSH1 0x0 DUP1 REVERT JUMPDEST POP CALLDATALOAD PUSH1 0x1 PUSH1 0x1 PUSH1 0xA0 SHL SUB AND PUSH3 0x819 JUMP JUMPDEST PUSH3 0x14B PUSH3 0xA46 JUMP JUMPDEST PUSH3 0x291 PUSH1 0x4 DUP1 CALLDATASIZE SUB PUSH1 0x20 DUP2 LT ISZERO PUSH3 0x280 JUMPI PUSH1 0x0 DUP1 REVERT JUMPDEST POP CALLDATALOAD PUSH1 0x1 PUSH1 0x1 PUSH1 0xA0 SHL SUB AND PUSH3 0xA54 JUMP JUMPDEST PUSH1 0x40 DUP1 MLOAD SWAP2 ISZERO ISZERO DUP3 MSTORE MLOAD SWAP1 DUP2 SWAP1 SUB PUSH1 0x20 ADD SWAP1 RETURN JUMPDEST PUSH3 0x1E4 PUSH3 0xC1F JUMP JUMPDEST PUSH3 0x14B PUSH3 0xDA8 JUMP JUMPDEST PUSH3 0x1E4 PUSH3 0xDB5 JUMP JUMPDEST PUSH3 0x1F0 PUSH3 0xF5D JUMP JUMPDEST PUSH3 0x2D7 PUSH3 0xF64 JUMP JUMPDEST PUSH1 0x40 MLOAD DUP1 DUP3 PUSH2 0x300 DUP1 DUP4 DUP4 PUSH1 0x0 JUMPDEST DUP4 DUP2 LT ISZERO PUSH3 0x2FF JUMPI DUP2 DUP2 ADD MLOAD DUP4 DUP3 ADD MSTORE PUSH1 0x20 ADD PUSH3 0x2E5 JUMP JUMPDEST POP POP POP POP SWAP1 POP ADD SWAP2 POP POP PUSH1 0x40 MLOAD DUP1 SWAP2 SUB SWAP1 RETURN JUMPDEST PUSH3 0x291 PUSH3 0xFD2 JUMP JUMPDEST PUSH3 0x1E4 PUSH3 0xFED JUMP JUMPDEST PUSH3 0x14B PUSH3 0x10E8 JUMP JUMPDEST PUSH3 0x1F0 PUSH1 0x4 DUP1 CALLDATASIZE SUB PUSH1 0x20 DUP2 LT ISZERO PUSH3 0x348 JUMPI PUSH1 0x0 DUP1 REVERT JUMPDEST POP CALLDATALOAD PUSH3 0x10F6 JUMP JUMPDEST PUSH3 0x1F0 PUSH3 0x1124 JUMP JUMPDEST PUSH1 0x0 PUSH1 0x4 PUSH3 0x368 PUSH3 0x123B JUMP JUMPDEST SWAP1 PUSH2 0x100 EXP SWAP1 DIV PUSH1 0x1 PUSH1 0x1 PUSH1 0xA0 SHL SUB AND DUP2 JUMP JUMPDEST PUSH1 0x0 DUP1 PUSH3 0x388 PUSH3 0x1129 JUMP JUMPDEST SWAP1 POP GAS PUSH3 0x395 PUSH3 0x1275 JUMP JUMPDEST PUSH1 0x1 PUSH1 0x1 PUSH1 0xA0 SHL SUB AND DUP2 PUSH1 0x1 PUSH1 0x1 PUSH1 0xA0 SHL SUB AND EQ PUSH3 0x3FB JUMPI PUSH1 0x40 DUP1 MLOAD PUSH3 0x461BCD PUSH1 0xE5 SHL DUP2 MSTORE PUSH1 0x20 PUSH1 0x4 DUP3 ADD MSTORE PUSH1 0x1E PUSH1 0x24 DUP3 ADD MSTORE PUSH32 0x4F6E6C79207065726D697474656420627920746865206D616E616765722E0000 PUSH1 0x44 DUP3 ADD MSTORE SWAP1 MLOAD SWAP1 DUP2 SWAP1 SUB PUSH1 0x64 ADD SWAP1 REVERT JUMPDEST DUP1 DUP11 DUP11 DUP11 DUP11 DUP11 DUP11 DUP11 DUP11 PUSH1 0x40 MLOAD PUSH3 0x412 SWAP1 PUSH3 0x129B JUMP JUMPDEST PUSH1 0x1 PUSH1 0x1 PUSH1 0xA0 SHL SUB DUP1 DUP12 AND DUP3 MSTORE DUP10 AND PUSH1 0x20 DUP3 ADD MSTORE PUSH1 0x40 DUP1 DUP3 ADD SWAP1 DUP10 SWAP1 DUP1 DUP3 DUP5 CALLDATACOPY PUSH1 0x0 DUP4 DUP3 ADD MSTORE PUSH1 0x1F ADD PUSH1 0x1F NOT AND SWAP1 SWAP2 ADD DUP9 DUP2 MSTORE PUSH1 0x20 DUP2 ADD DUP9 SWAP1 MSTORE DUP7 ISZERO ISZERO PUSH1 0x40 DUP3 ADD MSTORE PUSH1 0x60 SWAP1 DUP2 ADD SWAP2 POP DUP6 SWAP1 DUP1 DUP3 DUP5 CALLDATACOPY PUSH1 0x0 DUP4 DUP3 ADD MSTORE PUSH1 0x1F ADD PUSH1 0x1F NOT AND SWAP1 SWAP2 ADD SWAP1 POP DUP4 PUSH1 0x40 DUP1 DUP3 DUP5 CALLDATACOPY PUSH1 0x0 DUP4 DUP3 ADD MSTORE PUSH1 0x1F ADD PUSH1 0x1F NOT AND SWAP1 SWAP2 ADD SWAP1 POP DUP3 PUSH1 0x60 DUP1 DUP3 DUP5 CALLDATACOPY PUSH1 0x0 DUP2 DUP5 ADD MSTORE PUSH1 0x1F NOT PUSH1 0x1F DUP3 ADD AND SWAP1 POP DUP1 DUP4 ADD SWAP3 POP POP POP SWAP10 POP POP POP POP POP POP POP POP POP POP PUSH1 0x40 MLOAD DUP1 SWAP2 SUB SWAP1 PUSH1 0x0 PUSH3 0x4C8 PUSH3 0x12A9 JUMP JUMPDEST POP POP DUP1 ISZERO DUP1 ISZERO PUSH3 0x4DD JUMPI RETURNDATASIZE PUSH1 0x0 DUP1 RETURNDATACOPY RETURNDATASIZE PUSH1 0x0 REVERT JUMPDEST POP SWAP11 SWAP10 POP POP POP POP POP POP POP POP POP POP JUMP JUMPDEST PUSH1 0x0 DUP1 PUSH3 0x4F9 PUSH3 0x123B JUMP JUMPDEST SWAP1 PUSH2 0x100 EXP SWAP1 DIV PUSH1 0x1 PUSH1 0x1 PUSH1 0xA0 SHL SUB AND PUSH1 0x1 PUSH1 0x1 PUSH1 0xA0 SHL SUB AND GAS PUSH3 0x51D PUSH3 0x1275 JUMP JUMPDEST PUSH1 0x1 PUSH1 0x1 PUSH1 0xA0 SHL SUB AND EQ PUSH3 0x564 JUMPI PUSH1 0x40 MLOAD PUSH3 0x461BCD PUSH1 0xE5 SHL DUP2 MSTORE PUSH1 0x4 ADD DUP1 DUP1 PUSH1 0x20 ADD DUP3 DUP2 SUB DUP3 MSTORE PUSH1 0x2F DUP2 MSTORE PUSH1 0x20 ADD DUP1 PUSH3 0x7A68 PUSH1 0x2F SWAP2 CODECOPY PUSH1 0x40 ADD SWAP2 POP POP PUSH1 0x40 MLOAD DUP1 SWAP2 SUB SWAP1 REVERT JUMPDEST DUP1 PUSH1 0x1 DUP1 DUP1 PUSH3 0x573 PUSH3 0x123B JUMP JUMPDEST DUP2 PUSH1 0x1 PUSH1 0x1 PUSH1 0xA0 SHL SUB MUL NOT AND SWAP1 DUP4 PUSH1 0x1 PUSH1 0x1 PUSH1 0xA0 SHL SUB AND MUL OR SWAP1 PUSH3 0x597 PUSH3 0x12F9 JUMP JUMPDEST POP POP PUSH1 0x40 DUP1 MLOAD PUSH1 0x1 PUSH1 0x1 PUSH1 0xA0 SHL SUB DUP5 AND DUP2 MSTORE SWAP1 MLOAD PUSH32 0x906A1C6BD7E3091EA86693DD029A831C19049CE77F1DCE2CE0BAB1CACBABCE22 SWAP3 POP SWAP1 DUP2 SWAP1 SUB PUSH1 0x20 ADD SWAP1 LOG1 POP JUMP JUMPDEST PUSH1 0x2 PUSH3 0x5E6 PUSH3 0x123B JUMP JUMPDEST DUP2 JUMP JUMPDEST PUSH1 0x0 DUP1 PUSH3 0x5F6 PUSH3 0x123B JUMP JUMPDEST SWAP1 PUSH2 0x100 EXP SWAP1 DIV PUSH1 0x1 PUSH1 0x1 PUSH1 0xA0 SHL SUB AND PUSH1 0x1 PUSH1 0x1 PUSH1 0xA0 SHL SUB AND GAS PUSH3 0x61A PUSH3 0x1275 JUMP JUMPDEST PUSH1 0x1 PUSH1 0x1 PUSH1 0xA0 SHL SUB AND EQ PUSH3 0x661 JUMPI PUSH1 0x40 MLOAD PUSH3 0x461BCD PUSH1 0xE5 SHL DUP2 MSTORE PUSH1 0x4 ADD DUP1 DUP1 PUSH1 0x20 ADD DUP3 DUP2 SUB DUP3 MSTORE PUSH1 0x2F DUP2 MSTORE PUSH1 0x20 ADD DUP1 PUSH3 0x7A68 PUSH1 0x2F SWAP2 CODECOPY PUSH1 0x40 ADD SWAP2 POP POP PUSH1 0x40 MLOAD DUP1 SWAP2 SUB SWAP1 REVERT JUMPDEST PUSH1 0x1 PUSH1 0x1 PUSH1 0xA0 SHL SUB DUP2 AND PUSH3 0x6BD JUMPI PUSH1 0x40 DUP1 MLOAD PUSH3 0x461BCD PUSH1 0xE5 SHL DUP2 MSTORE PUSH1 0x20 PUSH1 0x4 DUP3 ADD MSTORE PUSH1 0x1C PUSH1 0x24 DUP3 ADD MSTORE PUSH32 0x42656E6566696369617279206D757374206E6F74206265207A65726F00000000 PUSH1 0x44 DUP3 ADD MSTORE SWAP1 MLOAD SWAP1 DUP2 SWAP1 SUB PUSH1 0x64 ADD SWAP1 REVERT JUMPDEST DUP1 PUSH1 0x3 PUSH2 0x100 DUP2 PUSH3 0x6CE PUSH3 0x123B JUMP JUMPDEST DUP2 PUSH1 0x1 PUSH1 0x1 PUSH1 0xA0 SHL SUB MUL NOT AND SWAP1 DUP4 PUSH1 0x1 PUSH1 0x1 PUSH1 0xA0 SHL SUB AND MUL OR SWAP1 PUSH3 0x6F2 PUSH3 0x12F9 JUMP JUMPDEST POP POP PUSH1 0x40 DUP1 MLOAD PUSH1 0x1 PUSH1 0x1 PUSH1 0xA0 SHL SUB DUP5 AND DUP2 MSTORE SWAP1 MLOAD PUSH32 0xD5DA63A0B864B315BC04128DEDBC93888C8529EE6CF47CE664DC204339228C53 SWAP3 POP SWAP1 DUP2 SWAP1 SUB PUSH1 0x20 ADD SWAP1 LOG1 POP JUMP JUMPDEST PUSH1 0x0 DUP1 PUSH3 0x742 PUSH3 0x123B JUMP JUMPDEST SWAP1 PUSH2 0x100 EXP SWAP1 DIV PUSH1 0x1 PUSH1 0x1 PUSH1 0xA0 SHL SUB AND PUSH1 0x1 PUSH1 0x1 PUSH1 0xA0 SHL SUB AND GAS PUSH3 0x766 PUSH3 0x1275 JUMP JUMPDEST PUSH1 0x1 PUSH1 0x1 PUSH1 0xA0 SHL SUB AND EQ PUSH3 0x7AD JUMPI PUSH1 0x40 MLOAD PUSH3 0x461BCD PUSH1 0xE5 SHL DUP2 MSTORE PUSH1 0x4 ADD DUP1 DUP1 PUSH1 0x20 ADD DUP3 DUP2 SUB DUP3 MSTORE PUSH1 0x2F DUP2 MSTORE PUSH1 0x20 ADD DUP1 PUSH3 0x7A68 PUSH1 0x2F SWAP2 CODECOPY PUSH1 0x40 ADD SWAP2 POP POP PUSH1 0x40 MLOAD DUP1 SWAP2 SUB SWAP1 REVERT JUMPDEST PUSH1 0x0 DUP1 PUSH1 0x2 PUSH3 0x7BC PUSH3 0x12F9 JUMP JUMPDEST POP POP POP PUSH1 0x0 PUSH1 0x3 PUSH1 0x0 PUSH2 0x100 EXP DUP2 PUSH3 0x7D4 PUSH3 0x123B JUMP JUMPDEST DUP2 PUSH1 0xFF MUL NOT AND SWAP1 DUP4 ISZERO ISZERO MUL OR SWAP1 PUSH3 0x7EB PUSH3 0x12F9 JUMP JUMPDEST POP POP PUSH1 0x40 MLOAD PUSH32 0x6ADCC7125002935E0AA31697538EBBD65CFDDF20431EB6ECDCFC3E238BFD082C SWAP2 POP PUSH1 0x0 SWAP1 LOG1 JUMP JUMPDEST PUSH1 0x0 DUP1 PUSH3 0x826 PUSH3 0x123B JUMP JUMPDEST SWAP1 PUSH2 0x100 EXP SWAP1 DIV PUSH1 0x1 PUSH1 0x1 PUSH1 0xA0 SHL SUB AND PUSH1 0x1 PUSH1 0x1 PUSH1 0xA0 SHL SUB AND GAS PUSH3 0x84A PUSH3 0x1275 JUMP JUMPDEST PUSH1 0x1 PUSH1 0x1 PUSH1 0xA0 SHL SUB AND EQ PUSH3 0x891 JUMPI PUSH1 0x40 MLOAD PUSH3 0x461BCD PUSH1 0xE5 SHL DUP2 MSTORE PUSH1 0x4 ADD DUP1 DUP1 PUSH1 0x20 ADD DUP3 DUP2 SUB DUP3 MSTORE PUSH1 0x2F DUP2 MSTORE PUSH1 0x20 ADD DUP1 PUSH3 0x7A68 PUSH1 0x2F SWAP2 CODECOPY PUSH1 0x40 ADD SWAP2 POP POP PUSH1 0x40 MLOAD DUP1 SWAP2 SUB SWAP1 REVERT JUMPDEST DUP1 PUSH1 0x4 PUSH1 0x1 DUP2 PUSH3 0x8A1 PUSH3 0x123B JUMP JUMPDEST DUP2 PUSH1 0x1 PUSH1 0x1 PUSH1 0xA0 SHL SUB MUL NOT AND SWAP1 DUP4 PUSH1 0x1 PUSH1 0x1 PUSH1 0xA0 SHL SUB AND MUL OR SWAP1 PUSH3 0x8C5 PUSH3 0x12F9 JUMP JUMPDEST POP PUSH1 0x0 SWAP2 POP POP JUMPDEST PUSH1 0x6 DUP1 PUSH3 0x8D9 PUSH3 0x123B JUMP JUMPDEST SWAP1 POP DUP2 LT ISZERO PUSH3 0xA42 JUMPI PUSH1 0x0 PUSH1 0x6 DUP3 DUP2 PUSH3 0x8F3 PUSH3 0x123B JUMP JUMPDEST DUP2 LT PUSH3 0x8FC JUMPI INVALID JUMPDEST SWAP1 PUSH1 0x0 MSTORE PUSH1 0x20 PUSH1 0x0 KECCAK256 ADD PUSH3 0x910 PUSH3 0x123B JUMP JUMPDEST SWAP1 POP PUSH1 0x0 PUSH1 0x4 PUSH3 0x920 PUSH3 0x123B JUMP JUMPDEST SWAP1 PUSH2 0x100 EXP SWAP1 DIV PUSH1 0x1 PUSH1 0x1 PUSH1 0xA0 SHL SUB AND PUSH1 0x1 PUSH1 0x1 PUSH1 0xA0 SHL SUB AND PUSH4 0xDACB2D01 DUP3 PUSH1 0x40 MLOAD DUP3 PUSH4 0xFFFFFFFF AND PUSH1 0xE0 SHL DUP2 MSTORE PUSH1 0x4 ADD DUP1 DUP3 DUP2 MSTORE PUSH1 0x20 ADD DUP1 PUSH1 0x20 ADD DUP3 DUP2 SUB DUP3 MSTORE PUSH1 0x17 DUP2 MSTORE PUSH1 0x20 ADD DUP1 PUSH32 0x5265736F6C766572206D697373696E6720746172676574000000000000000000 DUP2 MSTORE POP PUSH1 0x20 ADD SWAP3 POP POP POP PUSH1 0x20 PUSH1 0x40 MLOAD DUP1 DUP4 SUB DUP2 DUP7 DUP1 PUSH3 0x9A9 PUSH3 0x1333 JUMP JUMPDEST ISZERO DUP1 ISZERO PUSH3 0x9B6 JUMPI PUSH1 0x0 DUP1 REVERT JUMPDEST POP GAS PUSH3 0x9C2 PUSH3 0x1366 JUMP JUMPDEST POP POP POP POP POP ISZERO DUP1 ISZERO PUSH3 0x9D9 JUMPI RETURNDATASIZE PUSH1 0x0 DUP1 RETURNDATACOPY RETURNDATASIZE PUSH1 0x0 REVERT JUMPDEST POP POP POP POP PUSH1 0x40 MLOAD RETURNDATASIZE PUSH1 0x20 DUP2 LT ISZERO PUSH3 0x9F0 JUMPI PUSH1 0x0 DUP1 REVERT JUMPDEST POP MLOAD PUSH1 0x0 DUP3 DUP2 MSTORE PUSH1 0x5 PUSH1 0x20 MSTORE PUSH1 0x40 SWAP1 KECCAK256 PUSH1 0x1 DUP2 PUSH3 0xA0D PUSH3 0x123B JUMP JUMPDEST DUP2 PUSH1 0x1 PUSH1 0x1 PUSH1 0xA0 SHL SUB MUL NOT AND SWAP1 DUP4 PUSH1 0x1 PUSH1 0x1 PUSH1 0xA0 SHL SUB AND MUL OR SWAP1 PUSH3 0xA31 PUSH3 0x12F9 JUMP JUMPDEST POP POP PUSH1 0x1 SWAP1 SWAP3 ADD SWAP2 POP PUSH3 0x8CC SWAP1 POP JUMP JUMPDEST POP POP JUMP JUMPDEST PUSH1 0x0 PUSH1 0x1 PUSH3 0x368 PUSH3 0x123B JUMP JUMPDEST PUSH1 0x0 PUSH1 0x1 PUSH1 0x1 PUSH1 0xA0 SHL SUB DUP3 AND DUP2 PUSH1 0x4 PUSH3 0xA6D PUSH3 0x123B JUMP JUMPDEST SWAP1 PUSH2 0x100 EXP SWAP1 DIV PUSH1 0x1 PUSH1 0x1 PUSH1 0xA0 SHL SUB AND PUSH1 0x1 PUSH1 0x1 PUSH1 0xA0 SHL SUB AND EQ PUSH3 0xA95 JUMPI POP PUSH1 0x0 PUSH3 0xC1A JUMP JUMPDEST PUSH1 0x0 JUMPDEST PUSH1 0x6 DUP1 PUSH3 0xAA5 PUSH3 0x123B JUMP JUMPDEST SWAP1 POP DUP2 LT ISZERO PUSH3 0xC14 JUMPI PUSH1 0x0 PUSH1 0x6 DUP3 DUP2 PUSH3 0xABF PUSH3 0x123B JUMP JUMPDEST DUP2 LT PUSH3 0xAC8 JUMPI INVALID JUMPDEST SWAP1 PUSH1 0x0 MSTORE PUSH1 0x20 PUSH1 0x0 KECCAK256 ADD PUSH3 0xADC PUSH3 0x123B JUMP JUMPDEST PUSH1 0x0 DUP2 DUP2 MSTORE PUSH1 0x5 PUSH1 0x20 MSTORE PUSH1 0x40 DUP2 KECCAK256 SWAP2 SWAP3 POP SWAP1 PUSH3 0xAF8 PUSH3 0x123B JUMP JUMPDEST PUSH1 0x1 PUSH1 0x1 PUSH1 0xA0 SHL SUB PUSH2 0x100 SWAP3 SWAP1 SWAP3 EXP SWAP1 DIV AND PUSH1 0x0 PUSH1 0x4 PUSH3 0xB18 PUSH3 0x123B JUMP JUMPDEST SWAP1 PUSH2 0x100 EXP SWAP1 DIV PUSH1 0x1 PUSH1 0x1 PUSH1 0xA0 SHL SUB AND PUSH1 0x1 PUSH1 0x1 PUSH1 0xA0 SHL SUB AND PUSH4 0x21F8A721 DUP4 PUSH1 0x40 MLOAD DUP3 PUSH4 0xFFFFFFFF AND PUSH1 0xE0 SHL DUP2 MSTORE PUSH1 0x4 ADD DUP1 DUP3 DUP2 MSTORE PUSH1 0x20 ADD SWAP2 POP POP PUSH1 0x20 PUSH1 0x40 MLOAD DUP1 DUP4 SUB DUP2 DUP7 DUP1 PUSH3 0xB68 PUSH3 0x1333 JUMP JUMPDEST ISZERO DUP1 ISZERO PUSH3 0xB75 JUMPI PUSH1 0x0 DUP1 REVERT JUMPDEST POP GAS PUSH3 0xB81 PUSH3 0x1366 JUMP JUMPDEST POP POP POP POP POP ISZERO DUP1 ISZERO PUSH3 0xB98 JUMPI RETURNDATASIZE PUSH1 0x0 DUP1 RETURNDATACOPY RETURNDATASIZE PUSH1 0x0 REVERT JUMPDEST POP POP POP POP PUSH1 0x40 MLOAD RETURNDATASIZE PUSH1 0x20 DUP2 LT ISZERO PUSH3 0xBAF JUMPI PUSH1 0x0 DUP1 REVERT JUMPDEST POP MLOAD PUSH1 0x1 PUSH1 0x1 PUSH1 0xA0 SHL SUB AND EQ ISZERO DUP1 PUSH3 0xBF8 JUMPI POP PUSH1 0x0 DUP2 DUP2 MSTORE PUSH1 0x5 PUSH1 0x20 MSTORE PUSH1 0x40 DUP2 KECCAK256 DUP2 SWAP1 PUSH3 0xBDD PUSH3 0x123B JUMP JUMPDEST SWAP1 PUSH2 0x100 EXP SWAP1 DIV PUSH1 0x1 PUSH1 0x1 PUSH1 0xA0 SHL SUB AND PUSH1 0x1 PUSH1 0x1 PUSH1 0xA0 SHL SUB AND EQ JUMPDEST ISZERO PUSH3 0xC0A JUMPI PUSH1 0x0 SWAP3 POP POP POP PUSH3 0xC1A JUMP JUMPDEST POP PUSH1 0x1 ADD PUSH3 0xA98 JUMP JUMPDEST POP PUSH1 0x1 SWAP1 POP JUMPDEST SWAP2 SWAP1 POP JUMP JUMPDEST PUSH1 0x0 PUSH1 0x1 PUSH3 0xC2D PUSH3 0x123B JUMP JUMPDEST SWAP1 PUSH2 0x100 EXP SWAP1 DIV PUSH1 0x1 PUSH1 0x1 PUSH1 0xA0 SHL SUB AND PUSH1 0x1 PUSH1 0x1 PUSH1 0xA0 SHL SUB AND GAS PUSH3 0xC51 PUSH3 0x1275 JUMP JUMPDEST PUSH1 0x1 PUSH1 0x1 PUSH1 0xA0 SHL SUB AND EQ PUSH3 0xC98 JUMPI PUSH1 0x40 MLOAD PUSH3 0x461BCD PUSH1 0xE5 SHL DUP2 MSTORE PUSH1 0x4 ADD DUP1 DUP1 PUSH1 0x20 ADD DUP3 DUP2 SUB DUP3 MSTORE PUSH1 0x35 DUP2 MSTORE PUSH1 0x20 ADD DUP1 PUSH3 0x7A0A PUSH1 0x35 SWAP2 CODECOPY PUSH1 0x40 ADD SWAP2 POP POP PUSH1 0x40 MLOAD DUP1 SWAP2 SUB SWAP1 REVERT JUMPDEST PUSH32 0xB532073B38C83145E3E5135377A08BF9AAB55BC0FD7C1179CD4FB995D2A5159C PUSH1 0x0 DUP1 PUSH3 0xCC6 PUSH3 0x123B JUMP JUMPDEST SWAP1 PUSH2 0x100 EXP SWAP1 DIV PUSH1 0x1 PUSH1 0x1 PUSH1 0xA0 SHL SUB AND PUSH1 0x1 PUSH1 0x0 SWAP1 PUSH3 0xCE5 PUSH3 0x123B JUMP JUMPDEST PUSH1 0x40 DUP1 MLOAD PUSH1 0x1 PUSH1 0x1 PUSH1 0xA0 SHL SUB SWAP5 DUP6 AND DUP2 MSTORE PUSH2 0x100 SWAP4 SWAP1 SWAP4 EXP SWAP1 SWAP2 DIV SWAP1 SWAP3 AND PUSH1 0x20 DUP3 ADD MSTORE DUP2 MLOAD SWAP1 DUP2 SWAP1 SUB SWAP1 SWAP2 ADD SWAP1 LOG1 PUSH1 0x0 PUSH1 0x1 PUSH3 0xD21 PUSH3 0x123B JUMP JUMPDEST SWAP1 PUSH2 0x100 EXP SWAP1 DIV PUSH1 0x1 PUSH1 0x1 PUSH1 0xA0 SHL SUB AND PUSH1 0x0 DUP1 PUSH2 0x100 EXP DUP2 PUSH3 0xD43 PUSH3 0x123B JUMP JUMPDEST DUP2 PUSH1 0x1 PUSH1 0x1 PUSH1 0xA0 SHL SUB MUL NOT AND SWAP1 DUP4 PUSH1 0x1 PUSH1 0x1 PUSH1 0xA0 SHL SUB AND MUL OR SWAP1 PUSH3 0xD67 PUSH3 0x12F9 JUMP JUMPDEST POP POP POP PUSH1 0x0 PUSH1 0x1 PUSH1 0x0 PUSH2 0x100 EXP DUP2 PUSH3 0xD7F PUSH3 0x123B JUMP JUMPDEST DUP2 PUSH1 0x1 PUSH1 0x1 PUSH1 0xA0 SHL SUB MUL NOT AND SWAP1 DUP4 PUSH1 0x1 PUSH1 0x1 PUSH1 0xA0 SHL SUB AND MUL OR SWAP1 PUSH3 0xDA3 PUSH3 0x12F9 JUMP JUMPDEST POP POP POP JUMP JUMPDEST PUSH1 0x0 DUP1 PUSH3 0x368 PUSH3 0x123B JUMP JUMPDEST PUSH1 0x0 DUP1 PUSH3 0xDC2 PUSH3 0x123B JUMP JUMPDEST SWAP1 PUSH2 0x100 EXP SWAP1 DIV PUSH1 0x1 PUSH1 0x1 PUSH1 0xA0 SHL SUB AND PUSH1 0x1 PUSH1 0x1 PUSH1 0xA0 SHL SUB AND GAS PUSH3 0xDE6 PUSH3 0x1275 JUMP JUMPDEST PUSH1 0x1 PUSH1 0x1 PUSH1 0xA0 SHL SUB AND EQ PUSH3 0xE2D JUMPI PUSH1 0x40 MLOAD PUSH3 0x461BCD PUSH1 0xE5 SHL DUP2 MSTORE PUSH1 0x4 ADD DUP1 DUP1 PUSH1 0x20 ADD DUP3 DUP2 SUB DUP3 MSTORE PUSH1 0x2F DUP2 MSTORE PUSH1 0x20 ADD DUP1 PUSH3 0x7A68 PUSH1 0x2F SWAP2 CODECOPY PUSH1 0x40 ADD SWAP2 POP POP PUSH1 0x40 MLOAD DUP1 SWAP2 SUB SWAP1 REVERT JUMPDEST PUSH1 0x0 PUSH1 0x3 PUSH3 0xE3B PUSH3 0x123B JUMP JUMPDEST SWAP1 PUSH2 0x100 EXP SWAP1 DIV PUSH1 0xFF AND PUSH3 0xE97 JUMPI PUSH1 0x40 DUP1 MLOAD PUSH3 0x461BCD PUSH1 0xE5 SHL DUP2 MSTORE PUSH1 0x20 PUSH1 0x4 DUP3 ADD MSTORE PUSH1 0x1F PUSH1 0x24 DUP3 ADD MSTORE PUSH32 0x53656C66204465737472756374206E6F742079657420696E6974696174656400 PUSH1 0x44 DUP3 ADD MSTORE SWAP1 MLOAD SWAP1 DUP2 SWAP1 SUB PUSH1 0x64 ADD SWAP1 REVERT JUMPDEST GAS PUSH3 0xEA2 PUSH3 0x13C1 JUMP JUMPDEST PUSH3 0x24EA00 PUSH1 0x2 PUSH3 0xEB2 PUSH3 0x123B JUMP JUMPDEST ADD LT PUSH3 0xF06 JUMPI PUSH1 0x40 DUP1 MLOAD PUSH3 0x461BCD PUSH1 0xE5 SHL DUP2 MSTORE PUSH1 0x20 PUSH1 0x4 DUP3 ADD MSTORE PUSH1 0x1B PUSH1 0x24 DUP3 ADD MSTORE PUSH32 0x53656C662064657374727563742064656C6179206E6F74206D65740000000000 PUSH1 0x44 DUP3 ADD MSTORE SWAP1 MLOAD SWAP1 DUP2 SWAP1 SUB PUSH1 0x64 ADD SWAP1 REVERT JUMPDEST PUSH32 0x8A09E1677CED846CB537DC2B172043BD05A1A81AD7E0033A7EF8BA762DF990B7 PUSH1 0x1 PUSH1 0x3 PUSH3 0xF35 PUSH3 0x123B JUMP JUMPDEST PUSH1 0x40 DUP1 MLOAD PUSH2 0x100 SWAP4 SWAP1 SWAP4 EXP SWAP1 SWAP2 DIV PUSH1 0x1 PUSH1 0x1 PUSH1 0xA0 SHL SUB AND DUP3 MSTORE MLOAD PUSH1 0x20 SWAP2 DUP2 SWAP1 SUB SWAP2 SWAP1 SWAP2 ADD SWAP1 LOG1 JUMP JUMPDEST PUSH3 0x24EA00 DUP2 JUMP JUMPDEST PUSH3 0xF6E PUSH3 0x13E7 JUMP JUMPDEST PUSH1 0x0 JUMPDEST PUSH1 0x6 DUP1 PUSH3 0xF7E PUSH3 0x123B JUMP JUMPDEST SWAP1 POP DUP2 LT ISZERO PUSH3 0xFCE JUMPI PUSH1 0x6 DUP2 DUP2 PUSH3 0xF96 PUSH3 0x123B JUMP JUMPDEST DUP2 LT PUSH3 0xF9F JUMPI INVALID JUMPDEST SWAP1 PUSH1 0x0 MSTORE PUSH1 0x20 PUSH1 0x0 KECCAK256 ADD PUSH3 0xFB3 PUSH3 0x123B JUMP JUMPDEST DUP3 DUP3 PUSH1 0x18 DUP2 LT PUSH3 0xFC0 JUMPI INVALID JUMPDEST PUSH1 0x20 MUL ADD MSTORE PUSH1 0x1 ADD PUSH3 0xF71 JUMP JUMPDEST POP SWAP1 JUMP JUMPDEST PUSH1 0x0 PUSH1 0x3 PUSH3 0xFE0 PUSH3 0x123B JUMP JUMPDEST SWAP1 PUSH2 0x100 EXP SWAP1 DIV PUSH1 0xFF AND DUP2 JUMP JUMPDEST PUSH1 0x0 DUP1 PUSH3 0xFFA PUSH3 0x123B JUMP JUMPDEST SWAP1 PUSH2 0x100 EXP SWAP1 DIV PUSH1 0x1 PUSH1 0x1 PUSH1 0xA0 SHL SUB AND PUSH1 0x1 PUSH1 0x1 PUSH1 0xA0 SHL SUB AND GAS PUSH3 0x101E PUSH3 0x1275 JUMP JUMPDEST PUSH1 0x1 PUSH1 0x1 PUSH1 0xA0 SHL SUB AND EQ PUSH3 0x1065 JUMPI PUSH1 0x40 MLOAD PUSH3 0x461BCD PUSH1 0xE5 SHL DUP2 MSTORE PUSH1 0x4 ADD DUP1 DUP1 PUSH1 0x20 ADD DUP3 DUP2 SUB DUP3 MSTORE PUSH1 0x2F DUP2 MSTORE PUSH1 0x20 ADD DUP1 PUSH3 0x7A68 PUSH1 0x2F SWAP2 CODECOPY PUSH1 0x40 ADD SWAP2 POP POP PUSH1 0x40 MLOAD DUP1 SWAP2 SUB SWAP1 REVERT JUMPDEST GAS PUSH3 0x1070 PUSH3 0x13C1 JUMP JUMPDEST DUP1 PUSH1 0x2 PUSH3 0x107D PUSH3 0x12F9 JUMP JUMPDEST POP POP POP PUSH1 0x1 PUSH1 0x3 PUSH1 0x0 PUSH2 0x100 EXP DUP2 PUSH3 0x1095 PUSH3 0x123B JUMP JUMPDEST DUP2 PUSH1 0xFF MUL NOT AND SWAP1 DUP4 ISZERO ISZERO MUL OR SWAP1 PUSH3 0x10AC PUSH3 0x12F9 JUMP JUMPDEST POP POP PUSH1 0x40 DUP1 MLOAD PUSH3 0x24EA00 DUP2 MSTORE SWAP1 MLOAD PUSH32 0xCBD94CA75B8DC45C9D80C77E851670E78843C0D75180CB81DB3E2158228FA9A6 SWAP3 POP SWAP1 DUP2 SWAP1 SUB PUSH1 0x20 ADD SWAP1 LOG1 JUMP JUMPDEST PUSH1 0x1 PUSH1 0x3 PUSH3 0x368 PUSH3 0x123B JUMP JUMPDEST PUSH1 0x6 DUP2 DUP2 PUSH3 0x1104 PUSH3 0x123B JUMP JUMPDEST DUP2 LT PUSH3 0x110D JUMPI INVALID JUMPDEST PUSH1 0x0 SWAP2 DUP3 MSTORE PUSH1 0x20 SWAP1 SWAP2 KECCAK256 ADD SWAP1 POP PUSH3 0x5E6 PUSH3 0x123B JUMP JUMPDEST PUSH1 0x18 DUP2 JUMP JUMPDEST PUSH1 0x0 PUSH3 0x1170 PUSH32 0x42696E6172794F7074696F6E4D61726B65744D616E6167657200000000000000 PUSH1 0x40 MLOAD DUP1 PUSH1 0x60 ADD PUSH1 0x40 MSTORE DUP1 PUSH1 0x29 DUP2 MSTORE PUSH1 0x20 ADD PUSH3 0x7A3F PUSH1 0x29 SWAP2 CODECOPY PUSH3 0x1175 JUMP JUMPDEST SWAP1 POP SWAP1 JUMP JUMPDEST PUSH1 0x0 DUP3 DUP2 MSTORE PUSH1 0x5 PUSH1 0x20 MSTORE PUSH1 0x40 DUP2 KECCAK256 DUP2 SWAP1 DUP2 SWAP1 PUSH3 0x1191 PUSH3 0x123B JUMP JUMPDEST PUSH1 0x1 PUSH1 0x1 PUSH1 0xA0 SHL SUB PUSH2 0x100 SWAP3 SWAP1 SWAP3 EXP SWAP1 DIV AND SWAP1 POP DUP3 DUP2 PUSH3 0x1233 JUMPI PUSH1 0x40 MLOAD PUSH3 0x461BCD PUSH1 0xE5 SHL DUP2 MSTORE PUSH1 0x4 ADD DUP1 DUP1 PUSH1 0x20 ADD DUP3 DUP2 SUB DUP3 MSTORE DUP4 DUP2 DUP2 MLOAD DUP2 MSTORE PUSH1 0x20 ADD SWAP2 POP DUP1 MLOAD SWAP1 PUSH1 0x20 ADD SWAP1 DUP1 DUP4 DUP4 PUSH1 0x0 JUMPDEST DUP4 DUP2 LT ISZERO PUSH3 0x11F7 JUMPI DUP2 DUP2 ADD MLOAD DUP4 DUP3 ADD MSTORE PUSH1 0x20 ADD PUSH3 0x11DD JUMP JUMPDEST POP POP POP POP SWAP1 POP SWAP1 DUP2 ADD SWAP1 PUSH1 0x1F AND DUP1 ISZERO PUSH3 0x1225 JUMPI DUP1 DUP3 SUB DUP1 MLOAD PUSH1 0x1 DUP4 PUSH1 0x20 SUB PUSH2 0x100 EXP SUB NOT AND DUP2 MSTORE PUSH1 0x20 ADD SWAP2 POP JUMPDEST POP SWAP3 POP POP POP PUSH1 0x40 MLOAD DUP1 SWAP2 SUB SWAP1 REVERT JUMPDEST POP SWAP4 SWAP3 POP POP POP JUMP JUMPDEST PUSH4 0x412CC41 PUSH1 0xE3 SHL PUSH3 0x80000 SWAP1 DUP2 MSTORE PUSH3 0x80004 DUP4 SWAP1 MSTORE PUSH4 0x20966208 SWAP1 PUSH1 0x20 DUP2 PUSH1 0x24 DUP2 CALLER PUSH1 0x0 SWAP1 GAS CALL DUP1 PUSH3 0x126E JUMPI PUSH1 0x0 DUP1 REVERT JUMPDEST POP MLOAD SWAP3 POP POP JUMP JUMPDEST PUSH4 0x73509064 PUSH3 0x80000 DUP2 PUSH1 0xE0 SHL DUP2 MSTORE PUSH1 0x20 DUP2 PUSH1 0x4 DUP4 CALLER PUSH1 0x0 SWAP1 GAS CALL DUP1 PUSH3 0x126E JUMPI PUSH1 0x0 DUP1 REVERT JUMPDEST PUSH2 0x6603 DUP1 PUSH3 0x1407 DUP4 CODECOPY ADD SWAP1 JUMP JUMPDEST PUSH4 0x49D65FF9 PUSH3 0x80000 DUP2 PUSH1 0xE0 SHL DUP2 MSTORE PUSH1 0x0 JUMPDEST DUP7 DUP2 LT ISZERO PUSH3 0x12D8 JUMPI DUP6 DUP2 ADD MLOAD DUP3 DUP3 ADD PUSH1 0x4 ADD MSTORE PUSH1 0x20 ADD PUSH3 0x12BB JUMP JUMPDEST POP PUSH1 0x20 DUP2 DUP8 PUSH1 0x4 ADD DUP4 CALLER PUSH1 0x0 SWAP1 GAS CALL DUP1 PUSH3 0x12F2 JUMPI PUSH1 0x0 DUP1 REVERT JUMPDEST POP MLOAD SWAP5 POP POP JUMP JUMPDEST PUSH4 0x146E595 PUSH1 0xE5 SHL PUSH3 0x80000 SWAP1 DUP2 MSTORE PUSH3 0x80004 DUP4 SWAP1 MSTORE PUSH3 0x80024 DUP5 SWAP1 MSTORE PUSH4 0x28DCB2A0 SWAP1 PUSH1 0x0 DUP2 PUSH1 0x44 DUP2 CALLER PUSH1 0x0 SWAP1 GAS CALL DUP1 PUSH3 0xDA3 JUMPI PUSH1 0x0 DUP1 REVERT JUMPDEST PUSH4 0xC3382D0F PUSH1 0xE0 SHL PUSH3 0x80000 SWAP1 DUP2 MSTORE PUSH3 0x80004 DUP4 SWAP1 MSTORE PUSH4 0xC3382D0F SWAP1 PUSH1 0x20 DUP2 PUSH1 0x24 DUP2 CALLER PUSH1 0x0 SWAP1 GAS CALL DUP1 PUSH3 0x126E JUMPI PUSH1 0x0 DUP1 REVERT JUMPDEST PUSH4 0xFBB0F79D PUSH1 0xE0 SHL PUSH3 0x80000 SWAP1 DUP2 MSTORE PUSH3 0x80004 DUP5 SWAP1 MSTORE PUSH4 0xFBB0F79D SWAP1 PUSH1 0x0 JUMPDEST DUP8 DUP2 LT ISZERO PUSH3 0x13A2 JUMPI DUP7 DUP2 ADD MLOAD DUP3 DUP3 ADD PUSH1 0x24 ADD MSTORE PUSH1 0x20 ADD PUSH3 0x1385 JUMP JUMPDEST POP DUP9 DUP9 DUP9 PUSH1 0x24 ADD DUP4 CALLER PUSH1 0x0 SWAP1 GAS CALL DUP1 PUSH3 0x13BB JUMPI PUSH1 0x0 DUP1 REVERT JUMPDEST SWAP9 POP POP POP JUMP JUMPDEST PUSH4 0xBDBF8C36 PUSH3 0x80000 DUP2 PUSH1 0xE0 SHL DUP2 MSTORE PUSH1 0x20 DUP2 PUSH1 0x4 DUP4 CALLER PUSH1 0x0 SWAP1 GAS CALL DUP1 PUSH3 0x126E JUMPI PUSH1 0x0 DUP1 REVERT JUMPDEST PUSH1 0x40 MLOAD DUP1 PUSH2 0x300 ADD PUSH1 0x40 MSTORE DUP1 PUSH1 0x18 SWAP1 PUSH1 0x20 DUP3 MUL DUP1 CODESIZE DUP4 CODECOPY POP SWAP2 SWAP3 SWAP2 POP POP JUMP INVALID PUSH2 0x100 PUSH1 0x40 MSTORE PUSH12 0x53797374656D537461747573 PUSH1 0xA0 SHL PUSH1 0x80 SWAP1 DUP2 MSTORE PUSH13 0x45786368616E67655261746573 PUSH1 0x98 SHL PUSH1 0xA0 MSTORE PUSH9 0x14DE5B9D1A1CD554D1 PUSH1 0xBA SHL PUSH1 0xC0 MSTORE PUSH7 0x119959541BDBDB PUSH1 0xCA SHL PUSH1 0xE0 MSTORE PUSH3 0x5C SWAP1 PUSH1 0x17 SWAP1 PUSH1 0x4 PUSH3 0xD36 JUMP JUMPDEST POP CALLVALUE DUP1 ISZERO PUSH3 0x6A JUMPI PUSH1 0x0 DUP1 REVERT JUMPDEST POP PUSH1 0x40 MLOAD PUSH3 0x6603 CODESIZE SUB DUP1 PUSH3 0x6603 DUP4 CODECOPY DUP2 DUP2 ADD PUSH1 0x40 MSTORE PUSH2 0x1E0 DUP2 LT ISZERO PUSH3 0x91 JUMPI PUSH1 0x0 DUP1 REVERT JUMPDEST POP DUP1 MLOAD PUSH1 0x20 DUP3 ADD MLOAD PUSH1 0x80 DUP4 ADD MLOAD PUSH1 0xA0 DUP5 ADD MLOAD PUSH1 0xC0 DUP6 ADD MLOAD PUSH1 0x40 DUP1 MLOAD PUSH2 0x300 DUP2 ADD DUP1 DUP4 MSTORE SWAP7 SWAP8 SWAP6 SWAP7 SWAP2 DUP7 ADD SWAP6 PUSH1 0xE0 DUP2 ADD SWAP3 PUSH2 0x140 DUP3 ADD SWAP3 PUSH2 0x180 SWAP1 SWAP3 ADD SWAP2 DUP11 SWAP2 PUSH1 0x17 SWAP1 PUSH1 0x18 SWAP1 DUP3 DUP5 JUMPDEST DUP2 PUSH3 0xE4 PUSH3 0xD80 JUMP JUMPDEST DUP2 MSTORE PUSH1 0x20 ADD SWAP1 PUSH1 0x1 ADD SWAP1 DUP1 DUP4 GT PUSH3 0xD9 JUMPI POP DUP15 SWAP4 POP POP POP POP PUSH1 0x1 PUSH1 0x1 PUSH1 0xA0 SHL SUB DUP2 AND PUSH3 0x159 JUMPI PUSH1 0x40 DUP1 MLOAD PUSH3 0x461BCD PUSH1 0xE5 SHL DUP2 MSTORE PUSH1 0x20 PUSH1 0x4 DUP3 ADD MSTORE PUSH1 0x19 PUSH1 0x24 DUP3 ADD MSTORE PUSH32 0x4F776E657220616464726573732063616E6E6F74206265203000000000000000 PUSH1 0x44 DUP3 ADD MSTORE SWAP1 MLOAD SWAP1 DUP2 SWAP1 SUB PUSH1 0x64 ADD SWAP1 REVERT JUMPDEST DUP1 PUSH1 0x0 PUSH1 0x1 DUP2 PUSH3 0x169 PUSH3 0xD80 JUMP JUMPDEST DUP2 PUSH1 0x1 PUSH1 0x1 PUSH1 0xA0 SHL SUB MUL NOT AND SWAP1 DUP4 PUSH1 0x1 PUSH1 0x1 PUSH1 0xA0 SHL SUB AND MUL OR SWAP1 PUSH3 0x18D PUSH3 0xDBA JUMP JUMPDEST POP POP PUSH1 0x40 DUP1 MLOAD PUSH1 0x0 DUP2 MSTORE PUSH1 0x1 PUSH1 0x1 PUSH1 0xA0 SHL SUB DUP5 AND PUSH1 0x20 DUP3 ADD MSTORE DUP2 MLOAD PUSH32 0xB532073B38C83145E3E5135377A08BF9AAB55BC0FD7C1179CD4FB995D2A5159C SWAP4 POP SWAP1 DUP2 SWAP1 SUB SWAP1 SWAP2 ADD SWAP1 LOG1 POP PUSH1 0x0 DUP1 DUP1 PUSH3 0x1E3 PUSH3 0xD80 JUMP JUMPDEST SWAP1 PUSH2 0x100 EXP SWAP1 DIV PUSH1 0x1 PUSH1 0x1 PUSH1 0xA0 SHL SUB AND PUSH1 0x1 PUSH1 0x1 PUSH1 0xA0 SHL SUB AND EQ ISZERO PUSH3 0x244 JUMPI PUSH1 0x40 DUP1 MLOAD PUSH3 0x461BCD PUSH1 0xE5 SHL DUP2 MSTORE PUSH1 0x20 PUSH1 0x4 DUP3 ADD MSTORE PUSH1 0x11 PUSH1 0x24 DUP3 ADD MSTORE PUSH17 0x13DDDB995C881B5D5CDD081899481CD95D PUSH1 0x7A SHL PUSH1 0x44 DUP3 ADD MSTORE SWAP1 MLOAD SWAP1 DUP2 SWAP1 SUB PUSH1 0x64 ADD SWAP1 REVERT JUMPDEST PUSH1 0x0 JUMPDEST PUSH1 0x18 DUP2 LT ISZERO PUSH3 0x2D4 JUMPI PUSH1 0x0 DUP3 DUP3 PUSH1 0x18 DUP2 LT PUSH3 0x260 JUMPI INVALID JUMPDEST PUSH1 0x20 MUL ADD MLOAD EQ PUSH3 0x2C5 JUMPI PUSH1 0x4 DUP3 DUP3 PUSH1 0x18 DUP2 LT PUSH3 0x27A JUMPI INVALID JUMPDEST PUSH1 0x20 MUL ADD MLOAD SWAP1 DUP1 PUSH1 0x1 DUP2 PUSH3 0x28E PUSH3 0xD80 JUMP JUMPDEST ADD DUP1 DUP3 PUSH3 0x29B PUSH3 0xDBA JUMP JUMPDEST POP POP PUSH1 0x0 SWAP3 DUP4 MSTORE PUSH1 0x20 SWAP1 SWAP3 KECCAK256 SWAP2 SWAP3 SWAP2 DUP4 ADD PUSH1 0x0 NOT ADD SWAP1 POP PUSH3 0x2BC PUSH3 0xDBA JUMP JUMPDEST POP POP POP PUSH3 0x2CB JUMP JUMPDEST PUSH3 0x2D4 JUMP JUMPDEST PUSH1 0x1 ADD PUSH3 0x247 JUMP JUMPDEST POP DUP2 PUSH1 0x2 PUSH1 0x1 DUP2 PUSH3 0x2E5 PUSH3 0xD80 JUMP JUMPDEST DUP2 PUSH1 0x1 PUSH1 0x1 PUSH1 0xA0 SHL SUB MUL NOT AND SWAP1 DUP4 PUSH1 0x1 PUSH1 0x1 PUSH1 0xA0 SHL SUB AND MUL OR SWAP1 PUSH3 0x309 PUSH3 0xDBA JUMP JUMPDEST POP POP POP POP POP DUP8 PUSH1 0x15 PUSH1 0x0 PUSH2 0x100 EXP DUP2 PUSH3 0x322 PUSH3 0xD80 JUMP JUMPDEST DUP2 PUSH1 0x1 PUSH1 0x1 PUSH1 0xA0 SHL SUB MUL NOT AND SWAP1 DUP4 PUSH1 0x1 PUSH1 0x1 PUSH1 0xA0 SHL SUB AND MUL OR SWAP1 PUSH3 0x346 PUSH3 0xDBA JUMP JUMPDEST POP POP POP PUSH1 0x40 MLOAD DUP1 PUSH1 0x40 ADD PUSH1 0x40 MSTORE DUP1 DUP9 PUSH1 0x0 PUSH1 0x2 DUP2 LT PUSH3 0x362 JUMPI INVALID JUMPDEST PUSH1 0x20 MUL ADD MLOAD DUP2 MSTORE PUSH1 0x20 ADD DUP9 PUSH1 0x1 PUSH1 0x2 DUP2 LT PUSH3 0x37A JUMPI INVALID JUMPDEST PUSH1 0x20 MUL ADD MLOAD SWAP1 MSTORE DUP1 MLOAD PUSH1 0x12 SWAP1 DUP2 PUSH3 0x391 PUSH3 0xDBA JUMP JUMPDEST POP POP PUSH1 0x20 DUP3 ADD MLOAD DUP2 PUSH1 0x1 ADD PUSH3 0x3A6 PUSH3 0xDBA JUMP JUMPDEST POP POP PUSH1 0x40 DUP1 MLOAD PUSH1 0x60 DUP2 ADD DUP3 MSTORE DUP10 DUP2 MSTORE PUSH1 0x20 DUP2 ADD DUP10 SWAP1 MSTORE PUSH1 0x0 SWAP2 DUP2 ADD SWAP2 SWAP1 SWAP2 MSTORE SWAP2 POP PUSH1 0xC SWAP1 POP DUP8 DUP2 PUSH3 0x3D7 PUSH3 0xDBA JUMP JUMPDEST POP POP PUSH1 0x20 DUP3 ADD MLOAD DUP2 PUSH1 0x1 ADD PUSH3 0x3EC PUSH3 0xDBA JUMP JUMPDEST POP POP PUSH1 0x40 DUP3 ADD MLOAD DUP2 PUSH1 0x2 ADD PUSH3 0x401 PUSH3 0xDBA JUMP JUMPDEST POP POP SWAP1 POP POP PUSH1 0x40 MLOAD DUP1 PUSH1 0x60 ADD PUSH1 0x40 MSTORE DUP1 DUP5 PUSH1 0x0 PUSH1 0x3 DUP2 LT PUSH3 0x41F JUMPI INVALID JUMPDEST PUSH1 0x20 MUL ADD MLOAD DUP2 MSTORE PUSH1 0x20 ADD DUP5 PUSH1 0x1 PUSH1 0x3 DUP2 LT PUSH3 0x437 JUMPI INVALID JUMPDEST PUSH1 0x20 MUL ADD MLOAD DUP2 MSTORE PUSH1 0x20 ADD DUP5 PUSH1 0x2 PUSH1 0x3 DUP2 LT PUSH3 0x44F JUMPI INVALID JUMPDEST PUSH1 0x20 MUL ADD MLOAD SWAP1 MSTORE DUP1 MLOAD PUSH1 0x9 SWAP1 DUP2 PUSH3 0x466 PUSH3 0xDBA JUMP JUMPDEST POP POP PUSH1 0x20 DUP3 ADD MLOAD DUP2 PUSH1 0x1 ADD PUSH3 0x47B PUSH3 0xDBA JUMP JUMPDEST POP POP PUSH1 0x40 DUP3 ADD MLOAD DUP2 PUSH1 0x2 ADD PUSH3 0x490 PUSH3 0xDBA JUMP JUMPDEST POP POP SWAP1 POP POP DUP4 PUSH1 0x15 DUP1 PUSH2 0x100 EXP DUP2 PUSH3 0x4A8 PUSH3 0xD80 JUMP JUMPDEST DUP2 PUSH1 0xFF MUL NOT AND SWAP1 DUP4 ISZERO ISZERO MUL OR SWAP1 PUSH3 0x4BF PUSH3 0xDBA JUMP JUMPDEST POP POP DUP3 MLOAD PUSH1 0x20 DUP5 ADD MLOAD SWAP1 SWAP2 POP PUSH3 0x4D7 DUP3 DUP3 PUSH3 0x7F2 JUMP JUMPDEST DUP10 PUSH1 0x1 PUSH1 0x1 PUSH1 0xA0 SHL SUB AND PUSH1 0x0 DUP1 MLOAD PUSH1 0x20 PUSH3 0x65E3 DUP4 CODECOPY DUP2 MLOAD SWAP2 MSTORE PUSH1 0x0 DUP5 PUSH1 0x40 MLOAD DUP1 DUP4 PUSH1 0x1 DUP2 GT ISZERO PUSH3 0x505 JUMPI INVALID JUMPDEST PUSH1 0xFF AND DUP2 MSTORE PUSH1 0x20 ADD DUP3 DUP2 MSTORE PUSH1 0x20 ADD SWAP3 POP POP POP PUSH1 0x40 MLOAD DUP1 SWAP2 SUB SWAP1 LOG2 DUP10 PUSH1 0x1 PUSH1 0x1 PUSH1 0xA0 SHL SUB AND PUSH1 0x0 DUP1 MLOAD PUSH1 0x20 PUSH3 0x65E3 DUP4 CODECOPY DUP2 MLOAD SWAP2 MSTORE PUSH1 0x1 DUP4 PUSH1 0x40 MLOAD DUP1 DUP4 PUSH1 0x1 DUP2 GT ISZERO PUSH3 0x54D JUMPI INVALID JUMPDEST PUSH1 0xFF AND DUP2 MSTORE PUSH1 0x20 ADD DUP3 DUP2 MSTORE PUSH1 0x20 ADD SWAP3 POP POP POP PUSH1 0x40 MLOAD DUP1 SWAP2 SUB SWAP1 LOG2 PUSH1 0x0 PUSH3 0x583 DUP3 DUP5 PUSH3 0x90E PUSH1 0x20 SHL PUSH3 0x2A2A OR SWAP1 SWAP2 SWAP1 PUSH1 0x20 SHR JUMP JUMPDEST SWAP1 POP DUP1 DUP1 PUSH1 0x14 PUSH3 0x593 PUSH3 0xDBA JUMP JUMPDEST POP POP DUP5 MLOAD PUSH1 0x20 DUP1 DUP8 ADD MLOAD PUSH1 0x40 DUP1 MLOAD PUSH1 0x60 DUP2 ADD DUP3 MSTORE DUP5 DUP2 MSTORE SWAP3 DUP4 ADD DUP3 SWAP1 MSTORE DUP1 DUP10 ADD MLOAD SWAP1 DUP4 ADD MSTORE SWAP2 SWAP3 POP PUSH1 0xF DUP4 DUP2 PUSH3 0x5C9 PUSH3 0xDBA JUMP JUMPDEST POP POP PUSH1 0x20 DUP3 ADD MLOAD DUP2 PUSH1 0x1 ADD PUSH3 0x5DE PUSH3 0xDBA JUMP JUMPDEST POP POP PUSH1 0x40 DUP3 ADD MLOAD DUP2 PUSH1 0x2 ADD PUSH3 0x5F3 PUSH3 0xDBA JUMP JUMPDEST POP POP SWAP1 POP POP PUSH3 0x6B3 PUSH3 0x616 DUP3 DUP5 PUSH3 0x90E PUSH1 0x20 SHL PUSH3 0x2A2A OR SWAP1 SWAP2 SWAP1 PUSH1 0x20 SHR JUMP JUMPDEST PUSH20 0x0 PUSH4 0x907AF6C0 PUSH1 0x40 MLOAD DUP2 PUSH4 0xFFFFFFFF AND PUSH1 0xE0 SHL DUP2 MSTORE PUSH1 0x4 ADD PUSH1 0x20 PUSH1 0x40 MLOAD DUP1 DUP4 SUB DUP2 DUP7 DUP1 PUSH3 0x657 PUSH3 0xDF9 JUMP JUMPDEST ISZERO DUP1 ISZERO PUSH3 0x664 JUMPI PUSH1 0x0 DUP1 REVERT JUMPDEST POP GAS PUSH3 0x670 PUSH3 0xE2C JUMP JUMPDEST POP POP POP POP POP ISZERO DUP1 ISZERO PUSH3 0x687 JUMPI RETURNDATASIZE PUSH1 0x0 DUP1 RETURNDATACOPY RETURNDATASIZE PUSH1 0x0 REVERT JUMPDEST POP POP POP POP PUSH1 0x40 MLOAD RETURNDATASIZE PUSH1 0x20 DUP2 LT ISZERO PUSH3 0x69E JUMPI PUSH1 0x0 DUP1 REVERT JUMPDEST POP MLOAD SWAP1 PUSH3 0x972 PUSH1 0x20 SWAP1 DUP2 SHL PUSH3 0x375C OR SWAP1 SHR JUMP JUMPDEST DUP1 PUSH1 0x16 PUSH3 0x6C0 PUSH3 0xDBA JUMP JUMPDEST POP POP POP PUSH3 0x6D6 DUP6 DUP6 DUP6 PUSH3 0x9D0 PUSH1 0x20 SHL PUSH1 0x20 SHR JUMP JUMPDEST DUP13 DUP6 PUSH1 0x40 MLOAD PUSH3 0x6E6 SWAP1 PUSH3 0xE87 JUMP JUMPDEST PUSH1 0x1 PUSH1 0x1 PUSH1 0xA0 SHL SUB SWAP1 SWAP3 AND DUP3 MSTORE PUSH1 0x20 DUP3 ADD MSTORE PUSH1 0x40 DUP1 MLOAD SWAP2 DUP3 SWAP1 SUB ADD SWAP1 PUSH1 0x0 PUSH3 0x70E PUSH3 0xE95 JUMP JUMPDEST POP POP DUP1 ISZERO DUP1 ISZERO PUSH3 0x723 JUMPI RETURNDATASIZE PUSH1 0x0 DUP1 RETURNDATACOPY RETURNDATASIZE PUSH1 0x0 REVERT JUMPDEST POP PUSH1 0x5 PUSH1 0x1 DUP2 PUSH3 0x733 PUSH3 0xD80 JUMP JUMPDEST DUP2 PUSH1 0x1 PUSH1 0x1 PUSH1 0xA0 SHL SUB MUL NOT AND SWAP1 DUP4 PUSH1 0x1 PUSH1 0x1 PUSH1 0xA0 SHL SUB AND MUL OR SWAP1 PUSH3 0x757 PUSH3 0xDBA JUMP JUMPDEST POP POP POP DUP13 DUP5 PUSH1 0x40 MLOAD PUSH3 0x76A SWAP1 PUSH3 0xE87 JUMP JUMPDEST PUSH1 0x1 PUSH1 0x1 PUSH1 0xA0 SHL SUB SWAP1 SWAP3 AND DUP3 MSTORE PUSH1 0x20 DUP3 ADD MSTORE PUSH1 0x40 DUP1 MLOAD SWAP2 DUP3 SWAP1 SUB ADD SWAP1 PUSH1 0x0 PUSH3 0x792 PUSH3 0xE95 JUMP JUMPDEST POP POP DUP1 ISZERO DUP1 ISZERO PUSH3 0x7A7 JUMPI RETURNDATASIZE PUSH1 0x0 DUP1 RETURNDATACOPY RETURNDATASIZE PUSH1 0x0 REVERT JUMPDEST POP PUSH1 0x6 PUSH1 0x1 DUP2 PUSH3 0x7B7 PUSH3 0xD80 JUMP JUMPDEST DUP2 PUSH1 0x1 PUSH1 0x1 PUSH1 0xA0 SHL SUB MUL NOT AND SWAP1 DUP4 PUSH1 0x1 PUSH1 0x1 PUSH1 0xA0 SHL SUB AND MUL OR SWAP1 PUSH3 0x7DB PUSH3 0xDBA JUMP JUMPDEST POP POP POP POP POP POP POP POP POP POP POP POP POP POP POP POP POP PUSH3 0xF12 JUMP JUMPDEST PUSH1 0x0 PUSH3 0x80E DUP3 DUP5 PUSH3 0x90E PUSH1 0x20 SHL PUSH3 0x2A2A OR SWAP1 SWAP2 SWAP1 PUSH1 0x20 SHR JUMP JUMPDEST SWAP1 POP DUP1 PUSH1 0x12 PUSH3 0x81D PUSH3 0xD80 JUMP JUMPDEST GT ISZERO PUSH3 0x871 JUMPI PUSH1 0x40 DUP1 MLOAD PUSH3 0x461BCD PUSH1 0xE5 SHL DUP2 MSTORE PUSH1 0x20 PUSH1 0x4 DUP3 ADD MSTORE PUSH1 0x14 PUSH1 0x24 DUP3 ADD MSTORE PUSH32 0x496E73756666696369656E74206361706974616C000000000000000000000000 PUSH1 0x44 DUP3 ADD MSTORE SWAP1 MLOAD SWAP1 DUP2 SWAP1 SUB PUSH1 0x64 ADD SWAP1 REVERT JUMPDEST PUSH1 0x0 PUSH1 0x13 PUSH3 0x87F PUSH3 0xD80 JUMP JUMPDEST SWAP1 POP PUSH3 0x89B DUP3 DUP6 PUSH3 0xA6B PUSH1 0x20 SHL PUSH3 0x3C18 OR SWAP1 SWAP2 SWAP1 PUSH1 0x20 SHR JUMP JUMPDEST DUP2 GT ISZERO DUP1 ISZERO PUSH3 0x8C4 JUMPI POP PUSH3 0x8C0 DUP3 DUP5 PUSH3 0xA6B PUSH1 0x20 SHL PUSH3 0x3C18 OR SWAP1 SWAP2 SWAP1 PUSH1 0x20 SHR JUMP JUMPDEST DUP2 GT ISZERO JUMPDEST PUSH3 0x908 JUMPI PUSH1 0x40 DUP1 MLOAD PUSH3 0x461BCD PUSH1 0xE5 SHL DUP2 MSTORE PUSH1 0x20 PUSH1 0x4 DUP3 ADD MSTORE PUSH1 0xF PUSH1 0x24 DUP3 ADD MSTORE PUSH15 0x109A591CC81D1BDBC81CDAD95DD959 PUSH1 0x8A SHL PUSH1 0x44 DUP3 ADD MSTORE SWAP1 MLOAD SWAP1 DUP2 SWAP1 SUB PUSH1 0x64 ADD SWAP1 REVERT JUMPDEST POP POP POP POP JUMP JUMPDEST PUSH1 0x0 DUP3 DUP3 ADD DUP4 DUP2 LT ISZERO PUSH3 0x969 JUMPI PUSH1 0x40 DUP1 MLOAD PUSH3 0x461BCD PUSH1 0xE5 SHL DUP2 MSTORE PUSH1 0x20 PUSH1 0x4 DUP3 ADD MSTORE PUSH1 0x1B PUSH1 0x24 DUP3 ADD MSTORE PUSH32 0x536166654D6174683A206164646974696F6E206F766572666C6F770000000000 PUSH1 0x44 DUP3 ADD MSTORE SWAP1 MLOAD SWAP1 DUP2 SWAP1 SUB PUSH1 0x64 ADD SWAP1 REVERT JUMPDEST SWAP1 POP JUMPDEST SWAP3 SWAP2 POP POP JUMP JUMPDEST PUSH1 0x0 DUP3 DUP3 GT ISZERO PUSH3 0x9CA JUMPI PUSH1 0x40 DUP1 MLOAD PUSH3 0x461BCD PUSH1 0xE5 SHL DUP2 MSTORE PUSH1 0x20 PUSH1 0x4 DUP3 ADD MSTORE PUSH1 0x1E PUSH1 0x24 DUP3 ADD MSTORE PUSH32 0x536166654D6174683A207375627472616374696F6E206F766572666C6F770000 PUSH1 0x44 DUP3 ADD MSTORE SWAP1 MLOAD SWAP1 DUP2 SWAP1 SUB PUSH1 0x64 ADD SWAP1 REVERT JUMPDEST POP SWAP1 SUB SWAP1 JUMP JUMPDEST PUSH1 0x0 DUP1 PUSH3 0x9E9 DUP6 DUP6 DUP6 PUSH1 0x1 PUSH1 0x1 PUSH1 0xE0 SHL SUB PUSH3 0xAA6 AND JUMP JUMPDEST PUSH1 0x40 DUP1 MLOAD DUP1 DUP3 ADD SWAP1 SWAP2 MSTORE DUP3 DUP2 MSTORE PUSH1 0x20 DUP2 ADD DUP3 SWAP1 MSTORE SWAP2 SWAP4 POP SWAP2 POP PUSH1 0x7 DUP4 DUP2 PUSH3 0xA10 PUSH3 0xDBA JUMP JUMPDEST POP POP PUSH1 0x20 DUP3 ADD MLOAD DUP2 PUSH1 0x1 ADD PUSH3 0xA25 PUSH3 0xDBA JUMP JUMPDEST POP POP PUSH1 0x40 DUP1 MLOAD DUP6 DUP2 MSTORE PUSH1 0x20 DUP2 ADD DUP6 SWAP1 MSTORE DUP2 MLOAD PUSH32 0x6546F60F34DF611FA42503098ACC39D5AB88BC73FEBE64B3CC14E5A92E3A66A7 SWAP5 POP SWAP1 DUP2 SWAP1 SUB SWAP1 SWAP2 ADD SWAP2 POP LOG1 POP POP POP POP POP JUMP JUMPDEST PUSH1 0x0 PUSH3 0x969 DUP3 PUSH3 0xA92 DUP6 PUSH8 0xDE0B6B3A7640000 PUSH3 0xB63 PUSH1 0x20 SWAP1 DUP2 SHL PUSH3 0x3C68 OR SWAP1 SHR JUMP JUMPDEST PUSH3 0xBC1 PUSH1 0x20 SHL PUSH3 0x3CC1 OR SWAP1 SWAP2 SWAP1 PUSH1 0x20 SHR JUMP JUMPDEST PUSH1 0x0 DUP1 DUP5 ISZERO DUP1 ISZERO SWAP1 PUSH3 0xAB8 JUMPI POP DUP4 ISZERO ISZERO JUMPDEST PUSH3 0xB0A JUMPI PUSH1 0x40 DUP1 MLOAD PUSH3 0x461BCD PUSH1 0xE5 SHL DUP2 MSTORE PUSH1 0x20 PUSH1 0x4 DUP3 ADD MSTORE PUSH1 0x14 PUSH1 0x24 DUP3 ADD MSTORE PUSH32 0x42696473206D757374206265206E6F6E7A65726F000000000000000000000000 PUSH1 0x44 DUP3 ADD MSTORE SWAP1 MLOAD SWAP1 DUP2 SWAP1 SUB PUSH1 0x64 ADD SWAP1 REVERT JUMPDEST PUSH1 0x0 PUSH3 0xB20 DUP5 PUSH1 0x1 PUSH1 0x1 PUSH1 0xE0 SHL SUB PUSH3 0xC2D AND JUMP JUMPDEST SWAP1 POP PUSH3 0xB3C DUP2 DUP8 PUSH3 0xC7B PUSH1 0x20 SHL PUSH3 0x3A2A OR SWAP1 SWAP2 SWAP1 PUSH1 0x20 SHR JUMP JUMPDEST PUSH3 0xB56 DUP3 DUP8 PUSH3 0xC7B PUSH1 0x20 SHL PUSH3 0x3A2A OR SWAP1 SWAP2 SWAP1 PUSH1 0x20 SHR JUMP JUMPDEST SWAP3 POP SWAP3 POP POP SWAP4 POP SWAP4 SWAP2 POP POP JUMP JUMPDEST PUSH1 0x0 DUP3 PUSH3 0xB74 JUMPI POP PUSH1 0x0 PUSH3 0x96C JUMP JUMPDEST DUP3 DUP3 MUL DUP3 DUP5 DUP3 DUP2 PUSH3 0xB82 JUMPI INVALID JUMPDEST DIV EQ PUSH3 0x969 JUMPI PUSH1 0x40 MLOAD PUSH3 0x461BCD PUSH1 0xE5 SHL DUP2 MSTORE PUSH1 0x4 ADD DUP1 DUP1 PUSH1 0x20 ADD DUP3 DUP2 SUB DUP3 MSTORE PUSH1 0x21 DUP2 MSTORE PUSH1 0x20 ADD DUP1 PUSH3 0x65C2 PUSH1 0x21 SWAP2 CODECOPY PUSH1 0x40 ADD SWAP2 POP POP PUSH1 0x40 MLOAD DUP1 SWAP2 SUB SWAP1 REVERT JUMPDEST PUSH1 0x0 DUP1 DUP3 GT PUSH3 0xC18 JUMPI PUSH1 0x40 DUP1 MLOAD PUSH3 0x461BCD PUSH1 0xE5 SHL DUP2 MSTORE PUSH1 0x20 PUSH1 0x4 DUP3 ADD MSTORE PUSH1 0x1A PUSH1 0x24 DUP3 ADD MSTORE PUSH32 0x536166654D6174683A206469766973696F6E206279207A65726F000000000000 PUSH1 0x44 DUP3 ADD MSTORE SWAP1 MLOAD SWAP1 DUP2 SWAP1 SUB PUSH1 0x64 ADD SWAP1 REVERT JUMPDEST PUSH1 0x0 DUP3 DUP5 DUP2 PUSH3 0xC24 JUMPI INVALID JUMPDEST DIV SWAP5 SWAP4 POP POP POP POP JUMP JUMPDEST PUSH1 0x0 PUSH1 0x14 PUSH1 0x15 PUSH3 0xC3D PUSH3 0xD80 JUMP JUMPDEST SWAP1 PUSH2 0x100 EXP SWAP1 DIV PUSH1 0xFF AND PUSH3 0xC77 JUMPI PUSH3 0xC71 PUSH1 0x16 PUSH3 0xC5C PUSH3 0xD80 JUMP JUMPDEST DUP4 PUSH3 0xC9B PUSH1 0x20 SHL PUSH3 0x2A0E OR SWAP1 SWAP2 SWAP1 PUSH1 0x20 SHR JUMP JUMPDEST PUSH3 0x96C JUMP JUMPDEST POP SWAP1 JUMP JUMPDEST PUSH1 0x0 PUSH3 0x969 DUP4 DUP4 PUSH8 0xDE0B6B3A7640000 PUSH1 0x1 PUSH1 0x1 PUSH1 0xE0 SHL SUB PUSH3 0xCBB AND JUMP JUMPDEST PUSH1 0x0 PUSH3 0x969 DUP4 DUP4 PUSH8 0xDE0B6B3A7640000 PUSH1 0x1 PUSH1 0x1 PUSH1 0xE0 SHL SUB PUSH3 0xCFF AND JUMP JUMPDEST PUSH1 0x0 DUP1 PUSH3 0xCE0 DUP5 PUSH3 0xA92 DUP6 PUSH1 0xA MUL DUP9 PUSH3 0xB63 PUSH1 0x20 SHL PUSH3 0x3C68 OR SWAP1 SWAP2 SWAP1 PUSH1 0x20 SHR JUMP JUMPDEST SWAP1 POP PUSH1 0x5 PUSH1 0xA DUP3 JUMPDEST MOD LT PUSH3 0xCF3 JUMPI PUSH1 0xA ADD JUMPDEST PUSH1 0xA SWAP1 DIV SWAP5 SWAP4 POP POP POP POP JUMP JUMPDEST PUSH1 0x0 DUP1 PUSH1 0xA DUP4 DIV PUSH3 0xD20 DUP6 DUP8 PUSH3 0xB63 PUSH1 0x20 SHL PUSH3 0x3C68 OR SWAP1 SWAP2 SWAP1 PUSH1 0x20 SHR JUMP JUMPDEST DUP2 PUSH3 0xD28 JUMPI INVALID JUMPDEST DIV SWAP1 POP PUSH1 0x5 PUSH1 0xA DUP3 PUSH3 0xCE8 JUMP JUMPDEST DUP3 PUSH1 0x18 DUP2 ADD SWAP3 DUP3 ISZERO PUSH3 0xD72 JUMPI SWAP2 PUSH1 0x20 MUL DUP3 ADD JUMPDEST DUP3 DUP2 GT ISZERO PUSH3 0xD72 JUMPI DUP3 MLOAD DUP3 PUSH3 0xD60 PUSH3 0xDBA JUMP JUMPDEST POP POP SWAP2 PUSH1 0x20 ADD SWAP2 SWAP1 PUSH1 0x1 ADD SWAP1 PUSH3 0xD4A JUMP JUMPDEST POP PUSH3 0xC77 SWAP3 SWAP2 POP PUSH3 0xEE5 JUMP JUMPDEST PUSH4 0x412CC41 PUSH1 0xE3 SHL PUSH3 0x80000 SWAP1 DUP2 MSTORE PUSH3 0x80004 DUP4 SWAP1 MSTORE PUSH4 0x20966208 SWAP1 PUSH1 0x20 DUP2 PUSH1 0x24 DUP2 CALLER PUSH1 0x0 SWAP1 GAS CALL DUP1 PUSH3 0xDB3 JUMPI PUSH1 0x0 DUP1 REVERT JUMPDEST POP MLOAD SWAP3 POP POP JUMP JUMPDEST PUSH4 0x146E595 PUSH1 0xE5 SHL PUSH3 0x80000 SWAP1 DUP2 MSTORE PUSH3 0x80004 DUP4 SWAP1 MSTORE PUSH3 0x80024 DUP5 SWAP1 MSTORE PUSH4 0x28DCB2A0 SWAP1 PUSH1 0x0 DUP2 PUSH1 0x44 DUP2 CALLER PUSH1 0x0 SWAP1 GAS CALL DUP1 PUSH3 0xDF4 JUMPI PUSH1 0x0 DUP1 REVERT JUMPDEST POP POP POP JUMP JUMPDEST PUSH4 0xC3382D0F PUSH1 0xE0 SHL PUSH3 0x80000 SWAP1 DUP2 MSTORE PUSH3 0x80004 DUP4 SWAP1 MSTORE PUSH4 0xC3382D0F SWAP1 PUSH1 0x20 DUP2 PUSH1 0x24 DUP2 CALLER PUSH1 0x0 SWAP1 GAS CALL DUP1 PUSH3 0xDB3 JUMPI PUSH1 0x0 DUP1 REVERT JUMPDEST PUSH4 0x45E97DDB PUSH1 0xE0 SHL PUSH3 0x80000 SWAP1 DUP2 MSTORE PUSH3 0x80004 DUP5 SWAP1 MSTORE PUSH4 0x45E97DDB SWAP1 PUSH1 0x0 JUMPDEST DUP8 DUP2 LT ISZERO PUSH3 0xE68 JUMPI DUP7 DUP2 ADD MLOAD DUP3 DUP3 ADD PUSH1 0x24 ADD MSTORE PUSH1 0x20 ADD PUSH3 0xE4B JUMP JUMPDEST POP DUP9 DUP9 DUP9 PUSH1 0x24 ADD DUP4 CALLER PUSH1 0x0 SWAP1 GAS CALL DUP1 PUSH3 0xE81 JUMPI PUSH1 0x0 DUP1 REVERT JUMPDEST SWAP9 POP POP POP JUMP JUMPDEST PUSH2 0x1663 DUP1 PUSH3 0x4F5F DUP4 CODECOPY ADD SWAP1 JUMP JUMPDEST PUSH4 0x49D65FF9 PUSH3 0x80000 DUP2 PUSH1 0xE0 SHL DUP2 MSTORE PUSH1 0x0 JUMPDEST DUP7 DUP2 LT ISZERO PUSH3 0xEC4 JUMPI DUP6 DUP2 ADD MLOAD DUP3 DUP3 ADD PUSH1 0x4 ADD MSTORE PUSH1 0x20 ADD PUSH3 0xEA7 JUMP JUMPDEST POP PUSH1 0x20 DUP2 DUP8 PUSH1 0x4 ADD DUP4 CALLER PUSH1 0x0 SWAP1 GAS CALL DUP1 PUSH3 0xEDE JUMPI PUSH1 0x0 DUP1 REVERT JUMPDEST POP MLOAD SWAP5 POP POP JUMP JUMPDEST PUSH3 0xF0F SWAP2 SWAP1 JUMPDEST DUP1 DUP3 GT ISZERO PUSH3 0xC77 JUMPI PUSH1 0x0 DUP1 DUP3 PUSH3 0xF03 PUSH3 0xDBA JUMP JUMPDEST POP POP POP PUSH1 0x1 ADD PUSH3 0xEEC JUMP JUMPDEST SWAP1 JUMP JUMPDEST PUSH2 0x403D DUP1 PUSH3 0xF22 PUSH1 0x0 CODECOPY PUSH1 0x0 RETURN INVALID PUSH1 0x80 PUSH1 0x40 MSTORE CALLVALUE DUP1 ISZERO PUSH2 0x10 JUMPI PUSH1 0x0 DUP1 REVERT JUMPDEST POP PUSH1 0x4 CALLDATASIZE LT PUSH2 0x25E JUMPI PUSH1 0x0 CALLDATALOAD PUSH1 0xE0 SHR DUP1 PUSH4 0x8B034136 GT PUSH2 0x146 JUMPI DUP1 PUSH4 0xC588F526 GT PUSH2 0xC3 JUMPI DUP1 PUSH4 0xD3419BF3 GT PUSH2 0x87 JUMPI DUP1 PUSH4 0xD3419BF3 EQ PUSH2 0x5B4 JUMPI DUP1 PUSH4 0xDBEA3638 EQ PUSH2 0x5BC JUMPI DUP1 PUSH4 0xE3235C91 EQ PUSH2 0x5E2 JUMPI DUP1 PUSH4 0xE4CFBDBD EQ PUSH2 0x5EA JUMPI DUP1 PUSH4 0xEEF49EE3 EQ PUSH2 0x622 JUMPI DUP1 PUSH4 0xFD087EE5 EQ PUSH2 0x62A JUMPI PUSH2 0x25E JUMP JUMPDEST DUP1 PUSH4 0xC588F526 EQ PUSH2 0x559 JUMPI DUP1 PUSH4 0xC6C9D828 EQ PUSH2 0x561 JUMPI DUP1 PUSH4 0xC7A5BDC8 EQ PUSH2 0x57E JUMPI DUP1 PUSH4 0xC8DB233E EQ PUSH2 0x586 JUMPI DUP1 PUSH4 0xD068CDC5 EQ PUSH2 0x5AC JUMPI PUSH2 0x25E JUMP JUMPDEST DUP1 PUSH4 0xAB49848C GT PUSH2 0x10A JUMPI DUP1 PUSH4 0xAB49848C EQ PUSH2 0x4CA JUMPI DUP1 PUSH4 0xAC3791E3 EQ PUSH2 0x50B JUMPI DUP1 PUSH4 0xB1C9FE6E EQ PUSH2 0x513 JUMPI DUP1 PUSH4 0xB634BFBC EQ PUSH2 0x52B JUMPI DUP1 PUSH4 0xBE5AF9FE EQ PUSH2 0x551 JUMPI PUSH2 0x25E JUMP JUMPDEST DUP1 PUSH4 0x8B034136 EQ PUSH2 0x484 JUMPI DUP1 PUSH4 0x8DA5CB5B EQ PUSH2 0x48C JUMPI DUP1 PUSH4 0x98508ECD EQ PUSH2 0x494 JUMPI DUP1 PUSH4 0x9AF1D35A EQ PUSH2 0x4BA JUMPI DUP1 PUSH4 0x9E3B34BF EQ PUSH2 0x4C2 JUMPI PUSH2 0x25E JUMP JUMPDEST DUP1 PUSH4 0x3DAE89EB GT PUSH2 0x1DF JUMPI DUP1 PUSH4 0x53A47BB7 GT PUSH2 0x1A3 JUMPI DUP1 PUSH4 0x53A47BB7 EQ PUSH2 0x3F4 JUMPI DUP1 PUSH4 0x631E1444 EQ PUSH2 0x3FC JUMPI DUP1 PUSH4 0x6392A51F EQ PUSH2 0x422 JUMPI DUP1 PUSH4 0x65372147 EQ PUSH2 0x448 JUMPI DUP1 PUSH4 0x79BA5097 EQ PUSH2 0x474 JUMPI DUP1 PUSH4 0x85149258 EQ PUSH2 0x47C JUMPI PUSH2 0x25E JUMP JUMPDEST DUP1 PUSH4 0x3DAE89EB EQ PUSH2 0x37C JUMPI DUP1 PUSH4 0x3F6FA655 EQ PUSH2 0x384 JUMPI DUP1 PUSH4 0x408E82AF EQ PUSH2 0x3A0 JUMPI DUP1 PUSH4 0x4C33FE94 EQ PUSH2 0x3C6 JUMPI DUP1 PUSH4 0x532F1179 EQ PUSH2 0x3EC JUMPI PUSH2 0x25E JUMP JUMPDEST DUP1 PUSH4 0x27745BAE GT PUSH2 0x226 JUMPI DUP1 PUSH4 0x27745BAE EQ PUSH2 0x2FF JUMPI DUP1 PUSH4 0x2810E1D6 EQ PUSH2 0x307 JUMPI DUP1 PUSH4 0x29E77B5D EQ PUSH2 0x30F JUMPI DUP1 PUSH4 0x3BE99E6F EQ PUSH2 0x34E JUMPI DUP1 PUSH4 0x3D7A783B EQ PUSH2 0x374 JUMPI PUSH2 0x25E JUMP JUMPDEST DUP1 PUSH4 0x2D05D3F EQ PUSH2 0x263 JUMPI DUP1 PUSH4 0x4F3BCEC EQ PUSH2 0x287 JUMPI DUP1 PUSH4 0x1069143A EQ PUSH2 0x28F JUMPI DUP1 PUSH4 0x1627540C EQ PUSH2 0x2BD JUMPI DUP1 PUSH4 0x2115E303 EQ PUSH2 0x2E5 JUMPI JUMPDEST PUSH1 0x0 DUP1 REVERT JUMPDEST PUSH2 0x26B PUSH2 0x658 JUMP JUMPDEST PUSH1 0x40 DUP1 MLOAD PUSH1 0x1 PUSH1 0x1 PUSH1 0xA0 SHL SUB SWAP1 SWAP3 AND DUP3 MSTORE MLOAD SWAP1 DUP2 SWAP1 SUB PUSH1 0x20 ADD SWAP1 RETURN JUMPDEST PUSH2 0x26B PUSH2 0x677 JUMP JUMPDEST PUSH2 0x297 PUSH2 0x683 JUMP JUMPDEST PUSH1 0x40 DUP1 MLOAD PUSH1 0x1 PUSH1 0x1 PUSH1 0xA0 SHL SUB SWAP4 DUP5 AND DUP2 MSTORE SWAP2 SWAP1 SWAP3 AND PUSH1 0x20 DUP3 ADD MSTORE DUP2 MLOAD SWAP1 DUP2 SWAP1 SUB SWAP1 SWAP2 ADD SWAP1 RETURN JUMPDEST PUSH2 0x2E3 PUSH1 0x4 DUP1 CALLDATASIZE SUB PUSH1 0x20 DUP2 LT ISZERO PUSH2 0x2D3 JUMPI PUSH1 0x0 DUP1 REVERT JUMPDEST POP CALLDATALOAD PUSH1 0x1 PUSH1 0x1 PUSH1 0xA0 SHL SUB AND PUSH2 0x6C5 JUMP JUMPDEST STOP JUMPDEST PUSH2 0x2ED PUSH2 0x7A9 JUMP JUMPDEST PUSH1 0x40 DUP1 MLOAD SWAP2 DUP3 MSTORE MLOAD SWAP1 DUP2 SWAP1 SUB PUSH1 0x20 ADD SWAP1 RETURN JUMPDEST PUSH2 0x2E3 PUSH2 0x7C3 JUMP JUMPDEST PUSH2 0x2E3 PUSH2 0x838 JUMP JUMPDEST PUSH2 0x335 PUSH1 0x4 DUP1 CALLDATASIZE SUB PUSH1 0x20 DUP2 LT ISZERO PUSH2 0x325 JUMPI PUSH1 0x0 DUP1 REVERT JUMPDEST POP CALLDATALOAD PUSH1 0x1 PUSH1 0x1 PUSH1 0xA0 SHL SUB AND PUSH2 0xD2D JUMP JUMPDEST PUSH1 0x40 DUP1 MLOAD SWAP3 DUP4 MSTORE PUSH1 0x20 DUP4 ADD SWAP2 SWAP1 SWAP2 MSTORE DUP1 MLOAD SWAP2 DUP3 SWAP1 SUB ADD SWAP1 RETURN JUMPDEST PUSH2 0x2E3 PUSH1 0x4 DUP1 CALLDATASIZE SUB PUSH1 0x20 DUP2 LT ISZERO PUSH2 0x364 JUMPI PUSH1 0x0 DUP1 REVERT JUMPDEST POP CALLDATALOAD PUSH1 0x1 PUSH1 0x1 PUSH1 0xA0 SHL SUB AND PUSH2 0xD42 JUMP JUMPDEST PUSH2 0x335 PUSH2 0xF4F JUMP JUMPDEST PUSH2 0x335 PUSH2 0x1081 JUMP JUMPDEST PUSH2 0x38C PUSH2 0x1094 JUMP JUMPDEST PUSH1 0x40 DUP1 MLOAD SWAP2 ISZERO ISZERO DUP3 MSTORE MLOAD SWAP1 DUP2 SWAP1 SUB PUSH1 0x20 ADD SWAP1 RETURN JUMPDEST PUSH2 0x335 PUSH1 0x4 DUP1 CALLDATASIZE SUB PUSH1 0x20 DUP2 LT ISZERO PUSH2 0x3B6 JUMPI PUSH1 0x0 DUP1 REVERT JUMPDEST POP CALLDATALOAD PUSH1 0x1 PUSH1 0x1 PUSH1 0xA0 SHL SUB AND PUSH2 0x10AD JUMP JUMPDEST PUSH2 0x2E3 PUSH1 0x4 DUP1 CALLDATASIZE SUB PUSH1 0x20 DUP2 LT ISZERO PUSH2 0x3DC JUMPI PUSH1 0x0 DUP1 REVERT JUMPDEST POP CALLDATALOAD PUSH1 0x1 PUSH1 0x1 PUSH1 0xA0 SHL SUB AND PUSH2 0x10B9 JUMP JUMPDEST PUSH2 0x38C PUSH2 0x121A JUMP JUMPDEST PUSH2 0x26B PUSH2 0x1225 JUMP JUMPDEST PUSH2 0x38C PUSH1 0x4 DUP1 CALLDATASIZE SUB PUSH1 0x20 DUP2 LT ISZERO PUSH2 0x412 JUMPI PUSH1 0x0 DUP1 REVERT JUMPDEST POP CALLDATALOAD PUSH1 0x1 PUSH1 0x1 PUSH1 0xA0 SHL SUB AND PUSH2 0x1231 JUMP JUMPDEST PUSH2 0x335 PUSH1 0x4 DUP1 CALLDATASIZE SUB PUSH1 0x20 DUP2 LT ISZERO PUSH2 0x438 JUMPI PUSH1 0x0 DUP1 REVERT JUMPDEST POP CALLDATALOAD PUSH1 0x1 PUSH1 0x1 PUSH1 0xA0 SHL SUB AND PUSH2 0x13DF JUMP JUMPDEST PUSH2 0x450 PUSH2 0x13EB JUMP JUMPDEST PUSH1 0x40 MLOAD DUP1 DUP3 PUSH1 0x1 DUP2 GT ISZERO PUSH2 0x460 JUMPI INVALID JUMPDEST PUSH1 0xFF AND DUP2 MSTORE PUSH1 0x20 ADD SWAP2 POP POP PUSH1 0x40 MLOAD DUP1 SWAP2 SUB SWAP1 RETURN JUMPDEST PUSH2 0x2E3 PUSH2 0x13F5 JUMP JUMPDEST PUSH2 0x2ED PUSH2 0x156A JUMP JUMPDEST PUSH2 0x335 PUSH2 0x1967 JUMP JUMPDEST PUSH2 0x26B PUSH2 0x1972 JUMP JUMPDEST PUSH2 0x49C PUSH2 0x197D JUMP JUMPDEST PUSH1 0x40 DUP1 MLOAD SWAP4 DUP5 MSTORE PUSH1 0x20 DUP5 ADD SWAP3 SWAP1 SWAP3 MSTORE DUP3 DUP3 ADD MSTORE MLOAD SWAP1 DUP2 SWAP1 SUB PUSH1 0x60 ADD SWAP1 RETURN JUMPDEST PUSH2 0x49C PUSH2 0x19A7 JUMP JUMPDEST PUSH2 0x49C PUSH2 0x19B2 JUMP JUMPDEST PUSH2 0x4D2 PUSH2 0x19BD JUMP JUMPDEST PUSH1 0x40 MLOAD DUP1 DUP3 PUSH2 0x300 DUP1 DUP4 DUP4 PUSH1 0x0 JUMPDEST DUP4 DUP2 LT ISZERO PUSH2 0x4F8 JUMPI DUP2 DUP2 ADD MLOAD DUP4 DUP3 ADD MSTORE PUSH1 0x20 ADD PUSH2 0x4E0 JUMP JUMPDEST POP POP POP POP SWAP1 POP ADD SWAP2 POP POP PUSH1 0x40 MLOAD DUP1 SWAP2 SUB SWAP1 RETURN JUMPDEST PUSH2 0x38C PUSH2 0x1A1F JUMP JUMPDEST PUSH2 0x51B PUSH2 0x1A6A JUMP JUMPDEST PUSH1 0x40 MLOAD DUP1 DUP3 PUSH1 0x3 DUP2 GT ISZERO PUSH2 0x460 JUMPI INVALID JUMPDEST PUSH2 0x2ED PUSH1 0x4 DUP1 CALLDATASIZE SUB PUSH1 0x40 DUP2 LT ISZERO PUSH2 0x541 JUMPI PUSH1 0x0 DUP1 REVERT JUMPDEST POP PUSH1 0xFF DUP2 CALLDATALOAD AND SWAP1 PUSH1 0x20 ADD CALLDATALOAD PUSH2 0x1AAE JUMP JUMPDEST PUSH2 0x335 PUSH2 0x1E7F JUMP JUMPDEST PUSH2 0x335 PUSH2 0x1E9C JUMP JUMPDEST PUSH2 0x2ED PUSH1 0x4 DUP1 CALLDATASIZE SUB PUSH1 0x20 DUP2 LT ISZERO PUSH2 0x577 JUMPI PUSH1 0x0 DUP1 REVERT JUMPDEST POP CALLDATALOAD PUSH2 0x1FE0 JUMP JUMPDEST PUSH2 0x335 PUSH2 0x200C JUMP JUMPDEST PUSH2 0x2E3 PUSH1 0x4 DUP1 CALLDATASIZE SUB PUSH1 0x20 DUP2 LT ISZERO PUSH2 0x59C JUMPI PUSH1 0x0 DUP1 REVERT JUMPDEST POP CALLDATALOAD PUSH1 0x1 PUSH1 0x1 PUSH1 0xA0 SHL SUB AND PUSH2 0x2017 JUMP JUMPDEST PUSH2 0x335 PUSH2 0x20EE JUMP JUMPDEST PUSH2 0x335 PUSH2 0x21D2 JUMP JUMPDEST PUSH2 0x2E3 PUSH1 0x4 DUP1 CALLDATASIZE SUB PUSH1 0x40 DUP2 LT ISZERO PUSH2 0x5D2 JUMPI PUSH1 0x0 DUP1 REVERT JUMPDEST POP PUSH1 0xFF DUP2 CALLDATALOAD AND SWAP1 PUSH1 0x20 ADD CALLDATALOAD PUSH2 0x21DD JUMP JUMPDEST PUSH2 0x2ED PUSH2 0x243F JUMP JUMPDEST PUSH2 0x2ED PUSH1 0x4 DUP1 CALLDATASIZE SUB PUSH1 0x80 DUP2 LT ISZERO PUSH2 0x600 JUMPI PUSH1 0x0 DUP1 REVERT JUMPDEST POP PUSH1 0xFF DUP2 CALLDATALOAD DUP2 AND SWAP2 PUSH1 0x20 DUP2 ADD CALLDATALOAD SWAP1 SWAP2 AND SWAP1 PUSH1 0x40 DUP2 ADD CALLDATALOAD SWAP1 PUSH1 0x60 ADD CALLDATALOAD ISZERO ISZERO PUSH2 0x2444 JUMP JUMPDEST PUSH2 0x2ED PUSH2 0x2673 JUMP JUMPDEST PUSH2 0x335 PUSH1 0x4 DUP1 CALLDATASIZE SUB PUSH1 0x60 DUP2 LT ISZERO PUSH2 0x640 JUMPI PUSH1 0x0 DUP1 REVERT JUMPDEST POP PUSH1 0xFF DUP2 CALLDATALOAD AND SWAP1 PUSH1 0x20 DUP2 ADD CALLDATALOAD SWAP1 PUSH1 0x40 ADD CALLDATALOAD ISZERO ISZERO PUSH2 0x267D JUMP JUMPDEST PUSH1 0x0 PUSH1 0x15 PUSH2 0x664 PUSH2 0x3D2B JUMP JUMPDEST SWAP1 PUSH2 0x100 EXP SWAP1 DIV PUSH1 0x1 PUSH1 0x1 PUSH1 0xA0 SHL SUB AND DUP2 JUMP JUMPDEST PUSH1 0x0 PUSH1 0x2 PUSH2 0x664 PUSH2 0x3D2B JUMP JUMPDEST PUSH1 0x5 PUSH1 0x0 DUP2 PUSH2 0x690 PUSH2 0x3D2B JUMP JUMPDEST SWAP1 PUSH2 0x100 EXP SWAP1 DIV PUSH1 0x1 PUSH1 0x1 PUSH1 0xA0 SHL SUB AND SWAP1 DUP1 PUSH1 0x1 ADD PUSH1 0x0 SWAP1 PUSH2 0x6B0 PUSH2 0x3D2B JUMP JUMPDEST SWAP1 PUSH2 0x100 EXP SWAP1 DIV PUSH1 0x1 PUSH1 0x1 PUSH1 0xA0 SHL SUB AND SWAP1 POP DUP3 JUMP JUMPDEST PUSH1 0x0 DUP1 PUSH2 0x6D0 PUSH2 0x3D2B JUMP JUMPDEST SWAP1 PUSH2 0x100 EXP SWAP1 DIV PUSH1 0x1 PUSH1 0x1 PUSH1 0xA0 SHL SUB AND PUSH1 0x1 PUSH1 0x1 PUSH1 0xA0 SHL SUB AND GAS PUSH2 0x6F2 PUSH2 0x3D64 JUMP JUMPDEST PUSH1 0x1 PUSH1 0x1 PUSH1 0xA0 SHL SUB AND EQ PUSH2 0x737 JUMPI PUSH1 0x40 MLOAD PUSH3 0x461BCD PUSH1 0xE5 SHL DUP2 MSTORE PUSH1 0x4 ADD DUP1 DUP1 PUSH1 0x20 ADD DUP3 DUP2 SUB DUP3 MSTORE PUSH1 0x2F DUP2 MSTORE PUSH1 0x20 ADD DUP1 PUSH2 0x3F57 PUSH1 0x2F SWAP2 CODECOPY PUSH1 0x40 ADD SWAP2 POP POP PUSH1 0x40 MLOAD DUP1 SWAP2 SUB SWAP1 REVERT JUMPDEST DUP1 PUSH1 0x1 DUP1 DUP1 PUSH2 0x744 PUSH2 0x3D2B JUMP JUMPDEST DUP2 PUSH1 0x1 PUSH1 0x1 PUSH1 0xA0 SHL SUB MUL NOT AND SWAP1 DUP4 PUSH1 0x1 PUSH1 0x1 PUSH1 0xA0 SHL SUB AND MUL OR SWAP1 PUSH2 0x766 PUSH2 0x3D89 JUMP JUMPDEST POP POP PUSH1 0x40 DUP1 MLOAD PUSH1 0x1 PUSH1 0x1 PUSH1 0xA0 SHL SUB DUP5 AND DUP2 MSTORE SWAP1 MLOAD PUSH32 0x906A1C6BD7E3091EA86693DD029A831C19049CE77F1DCE2CE0BAB1CACBABCE22 SWAP3 POP SWAP1 DUP2 SWAP1 SUB PUSH1 0x20 ADD SWAP1 LOG1 POP JUMP JUMPDEST PUSH1 0x0 PUSH2 0x7BD PUSH1 0x14 PUSH2 0x7B8 PUSH2 0x3D2B JUMP JUMPDEST PUSH2 0x2735 JUMP JUMPDEST SWAP1 POP JUMPDEST SWAP1 JUMP JUMPDEST PUSH2 0x7CB PUSH2 0x2763 JUMP JUMPDEST PUSH1 0x1 PUSH1 0x1 PUSH1 0xA0 SHL SUB AND PUSH4 0x86DABD1 PUSH1 0x40 MLOAD DUP2 PUSH4 0xFFFFFFFF AND PUSH1 0xE0 SHL DUP2 MSTORE PUSH1 0x4 ADD PUSH1 0x0 PUSH1 0x40 MLOAD DUP1 DUP4 SUB DUP2 DUP7 DUP1 PUSH2 0x7FE PUSH2 0x3DC2 JUMP JUMPDEST ISZERO DUP1 ISZERO PUSH2 0x80A JUMPI PUSH1 0x0 DUP1 REVERT JUMPDEST POP GAS PUSH2 0x814 PUSH2 0x3DF4 JUMP JUMPDEST POP POP POP POP POP ISZERO DUP1 ISZERO PUSH2 0x82A JUMPI RETURNDATASIZE PUSH1 0x0 DUP1 RETURNDATACOPY RETURNDATASIZE PUSH1 0x0 REVERT JUMPDEST POP POP POP POP PUSH2 0x836 PUSH2 0x27AA JUMP JUMPDEST JUMP JUMPDEST PUSH1 0x0 DUP1 PUSH2 0x843 PUSH2 0x3D2B JUMP JUMPDEST SWAP1 PUSH2 0x100 EXP SWAP1 DIV PUSH1 0x1 PUSH1 0x1 PUSH1 0xA0 SHL SUB AND PUSH1 0x1 PUSH1 0x1 PUSH1 0xA0 SHL SUB AND GAS PUSH2 0x865 PUSH2 0x3D64 JUMP JUMPDEST PUSH1 0x1 PUSH1 0x1 PUSH1 0xA0 SHL SUB AND EQ PUSH2 0x8AA JUMPI PUSH1 0x40 MLOAD PUSH3 0x461BCD PUSH1 0xE5 SHL DUP2 MSTORE PUSH1 0x4 ADD DUP1 DUP1 PUSH1 0x20 ADD DUP3 DUP2 SUB DUP3 MSTORE PUSH1 0x2F DUP2 MSTORE PUSH1 0x20 ADD DUP1 PUSH2 0x3F57 PUSH1 0x2F SWAP2 CODECOPY PUSH1 0x40 ADD SWAP2 POP POP PUSH1 0x40 MLOAD DUP1 SWAP2 SUB SWAP1 REVERT JUMPDEST PUSH2 0x8B2 PUSH2 0x2865 JUMP JUMPDEST PUSH2 0x8F4 JUMPI PUSH1 0x40 DUP1 MLOAD PUSH3 0x461BCD PUSH1 0xE5 SHL DUP2 MSTORE PUSH1 0x20 PUSH1 0x4 DUP3 ADD MSTORE PUSH1 0xE PUSH1 0x24 DUP3 ADD MSTORE PUSH14 0x4E6F7420796574206D6174757265 PUSH1 0x90 SHL PUSH1 0x44 DUP3 ADD MSTORE SWAP1 MLOAD SWAP1 DUP2 SWAP1 SUB PUSH1 0x64 ADD SWAP1 REVERT JUMPDEST PUSH2 0x8FC PUSH2 0x2763 JUMP JUMPDEST PUSH1 0x1 PUSH1 0x1 PUSH1 0xA0 SHL SUB AND PUSH4 0x86DABD1 PUSH1 0x40 MLOAD DUP2 PUSH4 0xFFFFFFFF AND PUSH1 0xE0 SHL DUP2 MSTORE PUSH1 0x4 ADD PUSH1 0x0 PUSH1 0x40 MLOAD DUP1 DUP4 SUB DUP2 DUP7 DUP1 PUSH2 0x92F PUSH2 0x3DC2 JUMP JUMPDEST ISZERO DUP1 ISZERO PUSH2 0x93B JUMPI PUSH1 0x0 DUP1 REVERT JUMPDEST POP GAS PUSH2 0x945 PUSH2 0x3DF4 JUMP JUMPDEST POP POP POP POP POP ISZERO DUP1 ISZERO PUSH2 0x95B JUMPI RETURNDATASIZE PUSH1 0x0 DUP1 RETURNDATACOPY RETURNDATASIZE PUSH1 0x0 REVERT JUMPDEST POP POP POP POP PUSH2 0x967 PUSH2 0x27AA JUMP JUMPDEST PUSH1 0x14 PUSH1 0x15 PUSH2 0x973 PUSH2 0x3D2B JUMP JUMPDEST SWAP1 PUSH2 0x100 EXP SWAP1 DIV PUSH1 0xFF AND ISZERO PUSH2 0x9CF JUMPI PUSH1 0x40 DUP1 MLOAD PUSH3 0x461BCD PUSH1 0xE5 SHL DUP2 MSTORE PUSH1 0x20 PUSH1 0x4 DUP3 ADD MSTORE PUSH1 0x17 PUSH1 0x24 DUP3 ADD MSTORE PUSH32 0x4D61726B657420616C7265616479207265736F6C766564000000000000000000 PUSH1 0x44 DUP3 ADD MSTORE SWAP1 MLOAD SWAP1 DUP2 SWAP1 SUB PUSH1 0x64 ADD SWAP1 REVERT JUMPDEST PUSH1 0x0 DUP1 PUSH2 0x9DA PUSH2 0x2880 JUMP JUMPDEST SWAP2 POP SWAP2 POP PUSH2 0x9E7 DUP2 PUSH2 0x2925 JUMP JUMPDEST PUSH2 0xA29 JUMPI PUSH1 0x40 DUP1 MLOAD PUSH3 0x461BCD PUSH1 0xE5 SHL DUP2 MSTORE PUSH1 0x20 PUSH1 0x4 DUP3 ADD MSTORE PUSH1 0xE PUSH1 0x24 DUP3 ADD MSTORE PUSH14 0x5072696365206973207374616C65 PUSH1 0x90 SHL PUSH1 0x44 DUP3 ADD MSTORE SWAP1 MLOAD SWAP1 DUP2 SWAP1 SUB PUSH1 0x64 ADD SWAP1 REVERT JUMPDEST DUP2 DUP1 PUSH1 0xE PUSH2 0xA35 PUSH2 0x3D89 JUMP JUMPDEST POP POP POP PUSH1 0x1 PUSH1 0x15 PUSH1 0x14 PUSH2 0x100 EXP DUP2 PUSH2 0xA4B PUSH2 0x3D2B JUMP JUMPDEST DUP2 PUSH1 0xFF MUL NOT AND SWAP1 DUP4 ISZERO ISZERO MUL OR SWAP1 PUSH2 0xA60 PUSH2 0x3D89 JUMP JUMPDEST POP POP POP PUSH1 0x0 PUSH2 0xA6D PUSH2 0x29CD JUMP JUMPDEST SWAP1 POP PUSH1 0x0 PUSH1 0x14 PUSH2 0xA7B PUSH2 0x3D2B JUMP JUMPDEST SWAP1 POP PUSH1 0x0 PUSH2 0xA99 PUSH1 0xF PUSH2 0xA8C PUSH2 0x3D2B JUMP JUMPDEST DUP4 SWAP1 PUSH4 0xFFFFFFFF PUSH2 0x2A0E AND JUMP JUMPDEST SWAP1 POP PUSH1 0x0 PUSH2 0xAB7 PUSH1 0x10 PUSH2 0xAAA PUSH2 0x3D2B JUMP JUMPDEST DUP5 SWAP1 PUSH4 0xFFFFFFFF PUSH2 0x2A0E AND JUMP JUMPDEST SWAP1 POP PUSH2 0xAD1 PUSH2 0xACC DUP3 DUP5 PUSH4 0xFFFFFFFF PUSH2 0x2A2A AND JUMP JUMPDEST PUSH2 0x2A84 JUMP JUMPDEST POP DUP4 PUSH1 0x1 PUSH1 0x1 PUSH1 0xA0 SHL SUB AND PUSH4 0xA9059CBB PUSH2 0xAE9 PUSH2 0x2B23 JUMP JUMPDEST PUSH1 0x1 PUSH1 0x1 PUSH1 0xA0 SHL SUB AND PUSH4 0xEB1EDD61 PUSH1 0x40 MLOAD DUP2 PUSH4 0xFFFFFFFF AND PUSH1 0xE0 SHL DUP2 MSTORE PUSH1 0x4 ADD PUSH1 0x20 PUSH1 0x40 MLOAD DUP1 DUP4 SUB DUP2 DUP7 DUP1 PUSH2 0xB1C PUSH2 0x3DC2 JUMP JUMPDEST ISZERO DUP1 ISZERO PUSH2 0xB28 JUMPI PUSH1 0x0 DUP1 REVERT JUMPDEST POP GAS PUSH2 0xB32 PUSH2 0x3DF4 JUMP JUMPDEST POP POP POP POP POP ISZERO DUP1 ISZERO PUSH2 0xB48 JUMPI RETURNDATASIZE PUSH1 0x0 DUP1 RETURNDATACOPY RETURNDATASIZE PUSH1 0x0 REVERT JUMPDEST POP POP POP POP PUSH1 0x40 MLOAD RETURNDATASIZE PUSH1 0x20 DUP2 LT ISZERO PUSH2 0xB5E JUMPI PUSH1 0x0 DUP1 REVERT JUMPDEST POP MLOAD PUSH1 0x40 DUP1 MLOAD PUSH1 0x1 PUSH1 0x1 PUSH1 0xE0 SHL SUB NOT PUSH1 0xE0 DUP6 SWAP1 SHL AND DUP2 MSTORE PUSH1 0x1 PUSH1 0x1 PUSH1 0xA0 SHL SUB SWAP1 SWAP3 AND PUSH1 0x4 DUP4 ADD MSTORE PUSH1 0x24 DUP3 ADD DUP7 SWAP1 MSTORE MLOAD PUSH1 0x44 DUP1 DUP4 ADD SWAP3 PUSH1 0x20 SWAP3 SWAP2 SWAP1 DUP3 SWAP1 SUB ADD DUP2 PUSH1 0x0 DUP8 DUP1 PUSH2 0xBA9 PUSH2 0x3DC2 JUMP JUMPDEST ISZERO DUP1 ISZERO PUSH2 0xBB5 JUMPI PUSH1 0x0 DUP1 REVERT JUMPDEST POP GAS PUSH2 0xBBF PUSH2 0x3E4C JUMP JUMPDEST POP POP POP POP POP POP ISZERO DUP1 ISZERO PUSH2 0xBD6 JUMPI RETURNDATASIZE PUSH1 0x0 DUP1 RETURNDATACOPY RETURNDATASIZE PUSH1 0x0 REVERT JUMPDEST POP POP POP POP PUSH1 0x40 MLOAD RETURNDATASIZE PUSH1 0x20 DUP2 LT ISZERO PUSH2 0xBEC JUMPI PUSH1 0x0 DUP1 REVERT JUMPDEST POP POP PUSH1 0x1 PUSH1 0x1 PUSH1 0xA0 SHL SUB DUP5 AND PUSH4 0xA9059CBB PUSH1 0x0 PUSH1 0x15 PUSH2 0xC09 PUSH2 0x3D2B JUMP JUMPDEST SWAP1 PUSH2 0x100 EXP SWAP1 DIV PUSH1 0x1 PUSH1 0x1 PUSH1 0xA0 SHL SUB AND DUP4 PUSH1 0x40 MLOAD DUP4 PUSH4 0xFFFFFFFF AND PUSH1 0xE0 SHL DUP2 MSTORE PUSH1 0x4 ADD DUP1 DUP4 PUSH1 0x1 PUSH1 0x1 PUSH1 0xA0 SHL SUB AND PUSH1 0x1 PUSH1 0x1 PUSH1 0xA0 SHL SUB AND DUP2 MSTORE PUSH1 0x20 ADD DUP3 DUP2 MSTORE PUSH1 0x20 ADD SWAP3 POP POP POP PUSH1 0x20 PUSH1 0x40 MLOAD DUP1 DUP4 SUB DUP2 PUSH1 0x0 DUP8 DUP1 PUSH2 0xC64 PUSH2 0x3DC2 JUMP JUMPDEST ISZERO DUP1 ISZERO PUSH2 0xC70 JUMPI PUSH1 0x0 DUP1 REVERT JUMPDEST POP GAS PUSH2 0xC7A PUSH2 0x3E4C JUMP JUMPDEST POP POP POP POP POP POP ISZERO DUP1 ISZERO PUSH2 0xC91 JUMPI RETURNDATASIZE PUSH1 0x0 DUP1 RETURNDATACOPY RETURNDATASIZE PUSH1 0x0 REVERT JUMPDEST POP POP POP POP PUSH1 0x40 MLOAD RETURNDATASIZE PUSH1 0x20 DUP2 LT ISZERO PUSH2 0xCA7 JUMPI PUSH1 0x0 DUP1 REVERT JUMPDEST POP PUSH32 0x5528B7E06F48A519CF814C4E5293EE2737C3F5C28D93E30CCA112AC649FDD235 SWAP1 POP PUSH2 0xCD3 PUSH2 0x2B60 JUMP JUMPDEST DUP8 DUP8 PUSH1 0x14 PUSH2 0xCDF PUSH2 0x3D2B JUMP JUMPDEST DUP7 DUP7 PUSH1 0x40 MLOAD DUP1 DUP8 PUSH1 0x1 DUP2 GT ISZERO PUSH2 0xCF1 JUMPI INVALID JUMPDEST PUSH1 0xFF AND DUP2 MSTORE PUSH1 0x20 DUP2 ADD SWAP7 SWAP1 SWAP7 MSTORE POP PUSH1 0x40 DUP1 DUP7 ADD SWAP5 SWAP1 SWAP5 MSTORE PUSH1 0x60 DUP6 ADD SWAP3 SWAP1 SWAP3 MSTORE PUSH1 0x80 DUP5 ADD MSTORE PUSH1 0xA0 DUP4 ADD MSTORE MLOAD SWAP1 DUP2 SWAP1 SUB PUSH1 0xC0 ADD SWAP2 POP LOG1 POP POP POP POP POP POP JUMP JUMPDEST PUSH1 0x0 DUP1 PUSH2 0xD39 DUP4 PUSH2 0x2BBB JUMP JUMPDEST SWAP2 POP SWAP2 POP SWAP2 POP SWAP2 JUMP JUMPDEST PUSH1 0x0 DUP1 PUSH2 0xD4D PUSH2 0x3D2B JUMP JUMPDEST SWAP1 PUSH2 0x100 EXP SWAP1 DIV PUSH1 0x1 PUSH1 0x1 PUSH1 0xA0 SHL SUB AND PUSH1 0x1 PUSH1 0x1 PUSH1 0xA0 SHL SUB AND GAS PUSH2 0xD6F PUSH2 0x3D64 JUMP JUMPDEST PUSH1 0x1 PUSH1 0x1 PUSH1 0xA0 SHL SUB AND EQ PUSH2 0xDB4 JUMPI PUSH1 0x40 MLOAD PUSH3 0x461BCD PUSH1 0xE5 SHL DUP2 MSTORE PUSH1 0x4 ADD DUP1 DUP1 PUSH1 0x20 ADD DUP3 DUP2 SUB DUP3 MSTORE PUSH1 0x2F DUP2 MSTORE PUSH1 0x20 ADD DUP1 PUSH2 0x3F57 PUSH1 0x2F SWAP2 CODECOPY PUSH1 0x40 ADD SWAP2 POP POP PUSH1 0x40 MLOAD DUP1 SWAP2 SUB SWAP1 REVERT JUMPDEST DUP1 PUSH1 0x2 PUSH1 0x1 DUP2 PUSH2 0xDC2 PUSH2 0x3D2B JUMP JUMPDEST DUP2 PUSH1 0x1 PUSH1 0x1 PUSH1 0xA0 SHL SUB MUL NOT AND SWAP1 DUP4 PUSH1 0x1 PUSH1 0x1 PUSH1 0xA0 SHL SUB AND MUL OR SWAP1 PUSH2 0xDE4 PUSH2 0x3D89 JUMP JUMPDEST POP PUSH1 0x0 SWAP2 POP POP JUMPDEST PUSH1 0x4 DUP1 PUSH2 0xDF6 PUSH2 0x3D2B JUMP JUMPDEST SWAP1 POP DUP2 LT ISZERO PUSH2 0xF4B JUMPI PUSH1 0x0 PUSH1 0x4 DUP3 DUP2 PUSH2 0xE0D PUSH2 0x3D2B JUMP JUMPDEST DUP2 LT PUSH2 0xE15 JUMPI INVALID JUMPDEST SWAP1 PUSH1 0x0 MSTORE PUSH1 0x20 PUSH1 0x0 KECCAK256 ADD PUSH2 0xE27 PUSH2 0x3D2B JUMP JUMPDEST SWAP1 POP PUSH1 0x0 PUSH1 0x2 PUSH2 0xE35 PUSH2 0x3D2B JUMP JUMPDEST SWAP1 PUSH2 0x100 EXP SWAP1 DIV PUSH1 0x1 PUSH1 0x1 PUSH1 0xA0 SHL SUB AND PUSH1 0x1 PUSH1 0x1 PUSH1 0xA0 SHL SUB AND PUSH4 0xDACB2D01 DUP3 PUSH1 0x40 MLOAD DUP3 PUSH4 0xFFFFFFFF AND PUSH1 0xE0 SHL DUP2 MSTORE PUSH1 0x4 ADD DUP1 DUP3 DUP2 MSTORE PUSH1 0x20 ADD DUP1 PUSH1 0x20 ADD DUP3 DUP2 SUB DUP3 MSTORE PUSH1 0x17 DUP2 MSTORE PUSH1 0x20 ADD DUP1 PUSH32 0x5265736F6C766572206D697373696E6720746172676574000000000000000000 DUP2 MSTORE POP PUSH1 0x20 ADD SWAP3 POP POP POP PUSH1 0x20 PUSH1 0x40 MLOAD DUP1 DUP4 SUB DUP2 DUP7 DUP1 PUSH2 0xEBC PUSH2 0x3DC2 JUMP JUMPDEST ISZERO DUP1 ISZERO PUSH2 0xEC8 JUMPI PUSH1 0x0 DUP1 REVERT JUMPDEST POP GAS PUSH2 0xED2 PUSH2 0x3DF4 JUMP JUMPDEST POP POP POP POP POP ISZERO DUP1 ISZERO PUSH2 0xEE8 JUMPI RETURNDATASIZE PUSH1 0x0 DUP1 RETURNDATACOPY RETURNDATASIZE PUSH1 0x0 REVERT JUMPDEST POP POP POP POP PUSH1 0x40 MLOAD RETURNDATASIZE PUSH1 0x20 DUP2 LT ISZERO PUSH2 0xEFE JUMPI PUSH1 0x0 DUP1 REVERT JUMPDEST POP MLOAD PUSH1 0x0 DUP3 DUP2 MSTORE PUSH1 0x3 PUSH1 0x20 MSTORE PUSH1 0x40 SWAP1 KECCAK256 PUSH1 0x1 DUP2 PUSH2 0xF19 PUSH2 0x3D2B JUMP JUMPDEST DUP2 PUSH1 0x1 PUSH1 0x1 PUSH1 0xA0 SHL SUB MUL NOT AND SWAP1 DUP4 PUSH1 0x1 PUSH1 0x1 PUSH1 0xA0 SHL SUB AND MUL OR SWAP1 PUSH2 0xF3B PUSH2 0x3D89 JUMP JUMPDEST POP POP PUSH1 0x1 SWAP1 SWAP3 ADD SWAP2 POP PUSH2 0xDEB SWAP1 POP JUMP JUMPDEST POP POP JUMP JUMPDEST PUSH1 0x0 DUP1 DUP1 PUSH1 0x5 PUSH2 0xF5D PUSH2 0x3D2B JUMP JUMPDEST SWAP1 PUSH2 0x100 EXP SWAP1 DIV PUSH1 0x1 PUSH1 0x1 PUSH1 0xA0 SHL SUB AND PUSH1 0x1 PUSH1 0x1 PUSH1 0xA0 SHL SUB AND PUSH4 0xD6FF02E2 PUSH1 0x40 MLOAD DUP2 PUSH4 0xFFFFFFFF AND PUSH1 0xE0 SHL DUP2 MSTORE PUSH1 0x4 ADD PUSH1 0x20 PUSH1 0x40 MLOAD DUP1 DUP4 SUB DUP2 DUP7 DUP1 PUSH2 0xFA0 PUSH2 0x3DC2 JUMP JUMPDEST ISZERO DUP1 ISZERO PUSH2 0xFAC JUMPI PUSH1 0x0 DUP1 REVERT JUMPDEST POP GAS PUSH2 0xFB6 PUSH2 0x3DF4 JUMP JUMPDEST POP POP POP POP POP ISZERO DUP1 ISZERO PUSH2 0xFCC JUMPI RETURNDATASIZE PUSH1 0x0 DUP1 RETURNDATACOPY RETURNDATASIZE PUSH1 0x0 REVERT JUMPDEST POP POP POP POP PUSH1 0x40 MLOAD RETURNDATASIZE PUSH1 0x20 DUP2 LT ISZERO PUSH2 0xFE2 JUMPI PUSH1 0x0 DUP1 REVERT JUMPDEST POP MLOAD PUSH1 0x0 PUSH1 0x6 PUSH2 0xFF0 PUSH2 0x3D2B JUMP JUMPDEST SWAP1 PUSH2 0x100 EXP SWAP1 DIV PUSH1 0x1 PUSH1 0x1 PUSH1 0xA0 SHL SUB AND PUSH1 0x1 PUSH1 0x1 PUSH1 0xA0 SHL SUB AND PUSH4 0xD6FF02E2 PUSH1 0x40 MLOAD DUP2 PUSH4 0xFFFFFFFF AND PUSH1 0xE0 SHL DUP2 MSTORE PUSH1 0x4 ADD PUSH1 0x20 PUSH1 0x40 MLOAD DUP1 DUP4 SUB DUP2 DUP7 DUP1 PUSH2 0x1033 PUSH2 0x3DC2 JUMP JUMPDEST ISZERO DUP1 ISZERO PUSH2 0x103F JUMPI PUSH1 0x0 DUP1 REVERT JUMPDEST POP GAS PUSH2 0x1049 PUSH2 0x3DF4 JUMP JUMPDEST POP POP POP POP POP ISZERO DUP1 ISZERO PUSH2 0x105F JUMPI RETURNDATASIZE PUSH1 0x0 DUP1 RETURNDATACOPY RETURNDATASIZE PUSH1 0x0 REVERT JUMPDEST POP POP POP POP PUSH1 0x40 MLOAD RETURNDATASIZE PUSH1 0x20 DUP2 LT ISZERO PUSH2 0x1075 JUMPI PUSH1 0x0 DUP1 REVERT JUMPDEST POP MLOAD SWAP1 SWAP3 POP SWAP1 POP JUMPDEST SWAP1 SWAP2 JUMP JUMPDEST PUSH1 0x0 DUP1 PUSH2 0x108C PUSH2 0x2D27 JUMP JUMPDEST SWAP2 POP SWAP2 POP SWAP1 SWAP2 JUMP JUMPDEST PUSH1 0x14 PUSH1 0x15 PUSH2 0x10A0 PUSH2 0x3D2B JUMP JUMPDEST SWAP1 PUSH2 0x100 EXP SWAP1 DIV PUSH1 0xFF AND DUP2 JUMP JUMPDEST PUSH1 0x0 DUP1 PUSH2 0xD39 DUP4 PUSH2 0x30BB JUMP JUMPDEST PUSH1 0x0 DUP1 PUSH2 0x10C4 PUSH2 0x3D2B JUMP JUMPDEST SWAP1 PUSH2 0x100 EXP SWAP1 DIV PUSH1 0x1 PUSH1 0x1 PUSH1 0xA0 SHL SUB AND PUSH1 0x1 PUSH1 0x1 PUSH1 0xA0 SHL SUB AND GAS PUSH2 0x10E6 PUSH2 0x3D64 JUMP JUMPDEST PUSH1 0x1 PUSH1 0x1 PUSH1 0xA0 SHL SUB AND EQ PUSH2 0x112B JUMPI PUSH1 0x40 MLOAD PUSH3 0x461BCD PUSH1 0xE5 SHL DUP2 MSTORE PUSH1 0x4 ADD DUP1 DUP1 PUSH1 0x20 ADD DUP3 DUP2 SUB DUP3 MSTORE PUSH1 0x2F DUP2 MSTORE PUSH1 0x20 ADD DUP1 PUSH2 0x3F57 PUSH1 0x2F SWAP2 CODECOPY PUSH1 0x40 ADD SWAP2 POP POP PUSH1 0x40 MLOAD DUP1 SWAP2 SUB SWAP1 REVERT JUMPDEST PUSH2 0x1133 PUSH2 0x31D9 JUMP JUMPDEST ISZERO PUSH2 0x1178 JUMPI PUSH1 0x40 DUP1 MLOAD PUSH3 0x461BCD PUSH1 0xE5 SHL DUP2 MSTORE PUSH1 0x20 PUSH1 0x4 DUP3 ADD MSTORE PUSH1 0x10 PUSH1 0x24 DUP3 ADD MSTORE PUSH16 0x42696464696E6720696E616374697665 PUSH1 0x80 SHL PUSH1 0x44 DUP3 ADD MSTORE SWAP1 MLOAD SWAP1 DUP2 SWAP1 SUB PUSH1 0x64 ADD SWAP1 REVERT JUMPDEST PUSH1 0x0 DUP1 PUSH2 0x1183 PUSH2 0x31EE JUMP JUMPDEST SWAP2 POP SWAP2 POP PUSH1 0x0 DUP1 PUSH2 0x11AF PUSH1 0x15 PUSH1 0x0 SWAP1 PUSH2 0x119A PUSH2 0x3D2B JUMP JUMPDEST SWAP1 PUSH2 0x100 EXP SWAP1 DIV PUSH1 0x1 PUSH1 0x1 PUSH1 0xA0 SHL SUB AND PUSH2 0x2BBB JUMP JUMPDEST SWAP2 POP SWAP2 POP PUSH1 0x0 DUP3 DUP6 EQ DUP1 ISZERO PUSH2 0x11C3 JUMPI POP DUP2 DUP5 EQ JUMPDEST SWAP1 POP DUP1 PUSH2 0x1209 JUMPI PUSH1 0x40 DUP1 MLOAD PUSH3 0x461BCD PUSH1 0xE5 SHL DUP2 MSTORE PUSH1 0x20 PUSH1 0x4 DUP3 ADD MSTORE PUSH1 0xF PUSH1 0x24 DUP3 ADD MSTORE PUSH15 0x4E6F742063616E63656C6C61626C65 PUSH1 0x88 SHL PUSH1 0x44 DUP3 ADD MSTORE SWAP1 MLOAD SWAP1 DUP2 SWAP1 SUB PUSH1 0x64 ADD SWAP1 REVERT JUMPDEST PUSH2 0x1212 DUP7 PUSH2 0x32D2 JUMP JUMPDEST POP POP POP POP POP POP JUMP JUMPDEST PUSH1 0x15 DUP1 PUSH2 0x10A0 PUSH2 0x3D2B JUMP JUMPDEST PUSH1 0x0 PUSH1 0x1 PUSH2 0x664 PUSH2 0x3D2B JUMP JUMPDEST PUSH1 0x0 PUSH1 0x1 PUSH1 0x1 PUSH1 0xA0 SHL SUB DUP3 AND DUP2 PUSH1 0x2 PUSH2 0x1248 PUSH2 0x3D2B JUMP JUMPDEST SWAP1 PUSH2 0x100 EXP SWAP1 DIV PUSH1 0x1 PUSH1 0x1 PUSH1 0xA0 SHL SUB AND PUSH1 0x1 PUSH1 0x1 PUSH1 0xA0 SHL SUB AND EQ PUSH2 0x126E JUMPI POP PUSH1 0x0 PUSH2 0x13DA JUMP JUMPDEST PUSH1 0x0 JUMPDEST PUSH1 0x4 DUP1 PUSH2 0x127C PUSH2 0x3D2B JUMP JUMPDEST SWAP1 POP DUP2 LT ISZERO PUSH2 0x13D4 JUMPI PUSH1 0x0 PUSH1 0x4 DUP3 DUP2 PUSH2 0x1293 PUSH2 0x3D2B JUMP JUMPDEST DUP2 LT PUSH2 0x129B JUMPI INVALID JUMPDEST SWAP1 PUSH1 0x0 MSTORE PUSH1 0x20 PUSH1 0x0 KECCAK256 ADD PUSH2 0x12AD PUSH2 0x3D2B JUMP JUMPDEST PUSH1 0x0 DUP2 DUP2 MSTORE PUSH1 0x3 PUSH1 0x20 MSTORE PUSH1 0x40 DUP2 KECCAK256 SWAP2 SWAP3 POP SWAP1 PUSH2 0x12C7 PUSH2 0x3D2B JUMP JUMPDEST PUSH1 0x1 PUSH1 0x1 PUSH1 0xA0 SHL SUB PUSH2 0x100 SWAP3 SWAP1 SWAP3 EXP SWAP1 DIV AND PUSH1 0x0 PUSH1 0x2 PUSH2 0x12E5 PUSH2 0x3D2B JUMP JUMPDEST SWAP1 PUSH2 0x100 EXP SWAP1 DIV PUSH1 0x1 PUSH1 0x1 PUSH1 0xA0 SHL SUB AND PUSH1 0x1 PUSH1 0x1 PUSH1 0xA0 SHL SUB AND PUSH4 0x21F8A721 DUP4 PUSH1 0x40 MLOAD DUP3 PUSH4 0xFFFFFFFF AND PUSH1 0xE0 SHL DUP2 MSTORE PUSH1 0x4 ADD DUP1 DUP3 DUP2 MSTORE PUSH1 0x20 ADD SWAP2 POP POP PUSH1 0x20 PUSH1 0x40 MLOAD DUP1 DUP4 SUB DUP2 DUP7 DUP1 PUSH2 0x1333 PUSH2 0x3DC2 JUMP JUMPDEST ISZERO DUP1 ISZERO PUSH2 0x133F JUMPI PUSH1 0x0 DUP1 REVERT JUMPDEST POP GAS PUSH2 0x1349 PUSH2 0x3DF4 JUMP JUMPDEST POP POP POP POP POP ISZERO DUP1 ISZERO PUSH2 0x135F JUMPI RETURNDATASIZE PUSH1 0x0 DUP1 RETURNDATACOPY RETURNDATASIZE PUSH1 0x0 REVERT JUMPDEST POP POP POP POP PUSH1 0x40 MLOAD RETURNDATASIZE PUSH1 0x20 DUP2 LT ISZERO PUSH2 0x1375 JUMPI PUSH1 0x0 DUP1 REVERT JUMPDEST POP MLOAD PUSH1 0x1 PUSH1 0x1 PUSH1 0xA0 SHL SUB AND EQ ISZERO DUP1 PUSH2 0x13BB JUMPI POP PUSH1 0x0 DUP2 DUP2 MSTORE PUSH1 0x3 PUSH1 0x20 MSTORE PUSH1 0x40 DUP2 KECCAK256 DUP2 SWAP1 PUSH2 0x13A0 PUSH2 0x3D2B JUMP JUMPDEST SWAP1 PUSH2 0x100 EXP SWAP1 DIV PUSH1 0x1 PUSH1 0x1 PUSH1 0xA0 SHL SUB AND PUSH1 0x1 PUSH1 0x1 PUSH1 0xA0 SHL SUB AND EQ JUMPDEST ISZERO PUSH2 0x13CB JUMPI PUSH1 0x0 SWAP3 POP POP POP PUSH2 0x13DA JUMP JUMPDEST POP PUSH1 0x1 ADD PUSH2 0x1271 JUMP JUMPDEST POP PUSH1 0x1 SWAP1 POP JUMPDEST SWAP2 SWAP1 POP JUMP JUMPDEST PUSH1 0x0 DUP1 PUSH2 0xD39 DUP4 PUSH2 0x35B1 JUMP JUMPDEST PUSH1 0x0 PUSH2 0x7BD PUSH2 0x2B60 JUMP JUMPDEST PUSH1 0x0 PUSH1 0x1 PUSH2 0x1401 PUSH2 0x3D2B JUMP JUMPDEST SWAP1 PUSH2 0x100 EXP SWAP1 DIV PUSH1 0x1 PUSH1 0x1 PUSH1 0xA0 SHL SUB AND PUSH1 0x1 PUSH1 0x1 PUSH1 0xA0 SHL SUB AND GAS PUSH2 0x1423 PUSH2 0x3D64 JUMP JUMPDEST PUSH1 0x1 PUSH1 0x1 PUSH1 0xA0 SHL SUB AND EQ PUSH2 0x1468 JUMPI PUSH1 0x40 MLOAD PUSH3 0x461BCD PUSH1 0xE5 SHL DUP2 MSTORE PUSH1 0x4 ADD DUP1 DUP1 PUSH1 0x20 ADD DUP3 DUP2 SUB DUP3 MSTORE PUSH1 0x35 DUP2 MSTORE PUSH1 0x20 ADD DUP1 PUSH2 0x3F22 PUSH1 0x35 SWAP2 CODECOPY PUSH1 0x40 ADD SWAP2 POP POP PUSH1 0x40 MLOAD DUP1 SWAP2 SUB SWAP1 REVERT JUMPDEST PUSH32 0xB532073B38C83145E3E5135377A08BF9AAB55BC0FD7C1179CD4FB995D2A5159C PUSH1 0x0 DUP1 PUSH2 0x1494 PUSH2 0x3D2B JUMP JUMPDEST SWAP1 PUSH2 0x100 EXP SWAP1 DIV PUSH1 0x1 PUSH1 0x1 PUSH1 0xA0 SHL SUB AND PUSH1 0x1 PUSH1 0x0 SWAP1 PUSH2 0x14B1 PUSH2 0x3D2B JUMP JUMPDEST PUSH1 0x40 DUP1 MLOAD PUSH1 0x1 PUSH1 0x1 PUSH1 0xA0 SHL SUB SWAP5 DUP6 AND DUP2 MSTORE PUSH2 0x100 SWAP4 SWAP1 SWAP4 EXP SWAP1 SWAP2 DIV SWAP1 SWAP3 AND PUSH1 0x20 DUP3 ADD MSTORE DUP2 MLOAD SWAP1 DUP2 SWAP1 SUB SWAP1 SWAP2 ADD SWAP1 LOG1 PUSH1 0x0 PUSH1 0x1 PUSH2 0x14EB PUSH2 0x3D2B JUMP JUMPDEST SWAP1 PUSH2 0x100 EXP SWAP1 DIV PUSH1 0x1 PUSH1 0x1 PUSH1 0xA0 SHL SUB AND PUSH1 0x0 DUP1 PUSH2 0x100 EXP DUP2 PUSH2 0x150B PUSH2 0x3D2B JUMP JUMPDEST DUP2 PUSH1 0x1 PUSH1 0x1 PUSH1 0xA0 SHL SUB MUL NOT AND SWAP1 DUP4 PUSH1 0x1 PUSH1 0x1 PUSH1 0xA0 SHL SUB AND MUL OR SWAP1 PUSH2 0x152D PUSH2 0x3D89 JUMP JUMPDEST POP POP POP PUSH1 0x0 PUSH1 0x1 PUSH1 0x0 PUSH2 0x100 EXP DUP2 PUSH2 0x1543 PUSH2 0x3D2B JUMP JUMPDEST DUP2 PUSH1 0x1 PUSH1 0x1 PUSH1 0xA0 SHL SUB MUL NOT AND SWAP1 DUP4 PUSH1 0x1 PUSH1 0x1 PUSH1 0xA0 SHL SUB AND MUL OR SWAP1 PUSH2 0x1565 PUSH2 0x3D89 JUMP JUMPDEST POP POP POP JUMP JUMPDEST PUSH1 0x0 PUSH1 0x14 PUSH1 0x15 PUSH2 0x1578 PUSH2 0x3D2B JUMP JUMPDEST SWAP1 PUSH2 0x100 EXP SWAP1 DIV PUSH1 0xFF AND PUSH2 0x163E JUMPI PUSH2 0x158E PUSH2 0x36CF JUMP JUMPDEST PUSH1 0x1 PUSH1 0x1 PUSH1 0xA0 SHL SUB AND PUSH4 0x7859F410 GAS PUSH4 0x996D79A5 PUSH3 0x80000 DUP2 PUSH1 0xE0 SHL DUP2 MSTORE PUSH1 0x20 DUP2 PUSH1 0x4 DUP4 CALLER PUSH1 0x0 SWAP1 GAS CALL DUP1 PUSH2 0x15C2 JUMPI PUSH1 0x0 DUP1 REVERT JUMPDEST DUP2 MLOAD SWAP4 POP POP POP POP PUSH1 0x40 MLOAD DUP3 PUSH4 0xFFFFFFFF AND PUSH1 0xE0 SHL DUP2 MSTORE PUSH1 0x4 ADD DUP1 DUP3 PUSH1 0x1 PUSH1 0x1 PUSH1 0xA0 SHL SUB AND PUSH1 0x1 PUSH1 0x1 PUSH1 0xA0 SHL SUB AND DUP2 MSTORE PUSH1 0x20 ADD SWAP2 POP POP PUSH1 0x0 PUSH1 0x40 MLOAD DUP1 DUP4 SUB DUP2 PUSH1 0x0 DUP8 DUP1 PUSH2 0x160C PUSH2 0x3DC2 JUMP JUMPDEST ISZERO DUP1 ISZERO PUSH2 0x1618 JUMPI PUSH1 0x0 DUP1 REVERT JUMPDEST POP GAS PUSH2 0x1622 PUSH2 0x3E4C JUMP JUMPDEST POP POP POP POP POP POP ISZERO DUP1 ISZERO PUSH2 0x1639 JUMPI RETURNDATASIZE PUSH1 0x0 DUP1 RETURNDATACOPY RETURNDATASIZE PUSH1 0x0 REVERT JUMPDEST POP POP POP POP JUMPDEST PUSH1 0x0 DUP1 PUSH2 0x1652 GAS PUSH2 0x164D PUSH2 0x3D64 JUMP JUMPDEST PUSH2 0x30BB JUMP JUMPDEST SWAP2 POP SWAP2 POP DUP2 PUSH1 0x0 EQ ISZERO DUP1 PUSH2 0x1665 JUMPI POP DUP1 ISZERO ISZERO JUMPDEST ISZERO PUSH2 0x1675 JUMPI PUSH2 0x1672 PUSH2 0x2D27 JUMP JUMPDEST POP POP JUMPDEST PUSH1 0x0 DUP1 PUSH2 0x1689 GAS PUSH2 0x1684 PUSH2 0x3D64 JUMP JUMPDEST PUSH2 0x35B1 JUMP JUMPDEST SWAP2 POP SWAP2 POP DUP2 PUSH1 0x0 EQ ISZERO DUP1 PUSH2 0x169C JUMPI POP DUP1 ISZERO ISZERO JUMPDEST PUSH2 0x16E3 JUMPI PUSH1 0x40 DUP1 MLOAD PUSH3 0x461BCD PUSH1 0xE5 SHL DUP2 MSTORE PUSH1 0x20 PUSH1 0x4 DUP3 ADD MSTORE PUSH1 0x13 PUSH1 0x24 DUP3 ADD MSTORE PUSH19 0x4E6F7468696E6720746F206578657263697365 PUSH1 0x68 SHL PUSH1 0x44 DUP3 ADD MSTORE SWAP1 MLOAD SWAP1 DUP2 SWAP1 SUB PUSH1 0x64 ADD SWAP1 REVERT JUMPDEST DUP2 ISZERO PUSH2 0x1791 JUMPI PUSH1 0x0 PUSH1 0x5 PUSH2 0x16F5 PUSH2 0x3D2B JUMP JUMPDEST SWAP1 PUSH2 0x100 EXP SWAP1 DIV PUSH1 0x1 PUSH1 0x1 PUSH1 0xA0 SHL SUB AND PUSH1 0x1 PUSH1 0x1 PUSH1 0xA0 SHL SUB AND PUSH4 0x1B15982A GAS PUSH2 0x171C PUSH2 0x3D64 JUMP JUMPDEST PUSH1 0x40 MLOAD DUP3 PUSH4 0xFFFFFFFF AND PUSH1 0xE0 SHL DUP2 MSTORE PUSH1 0x4 ADD DUP1 DUP3 PUSH1 0x1 PUSH1 0x1 PUSH1 0xA0 SHL SUB AND PUSH1 0x1 PUSH1 0x1 PUSH1 0xA0 SHL SUB AND DUP2 MSTORE PUSH1 0x20 ADD SWAP2 POP POP PUSH1 0x0 PUSH1 0x40 MLOAD DUP1 DUP4 SUB DUP2 PUSH1 0x0 DUP8 DUP1 PUSH2 0x175F PUSH2 0x3DC2 JUMP JUMPDEST ISZERO DUP1 ISZERO PUSH2 0x176B JUMPI PUSH1 0x0 DUP1 REVERT JUMPDEST POP GAS PUSH2 0x1775 PUSH2 0x3E4C JUMP JUMPDEST POP POP POP POP POP POP ISZERO DUP1 ISZERO PUSH2 0x178C JUMPI RETURNDATASIZE PUSH1 0x0 DUP1 RETURNDATACOPY RETURNDATASIZE PUSH1 0x0 REVERT JUMPDEST POP POP POP POP JUMPDEST DUP1 ISZERO PUSH2 0x183F JUMPI PUSH1 0x0 PUSH1 0x6 PUSH2 0x17A3 PUSH2 0x3D2B JUMP JUMPDEST SWAP1 PUSH2 0x100 EXP SWAP1 DIV PUSH1 0x1 PUSH1 0x1 PUSH1 0xA0 SHL SUB AND PUSH1 0x1 PUSH1 0x1 PUSH1 0xA0 SHL SUB AND PUSH4 0x1B15982A GAS PUSH2 0x17CA PUSH2 0x3D64 JUMP JUMPDEST PUSH1 0x40 MLOAD DUP3 PUSH4 0xFFFFFFFF AND PUSH1 0xE0 SHL DUP2 MSTORE PUSH1 0x4 ADD DUP1 DUP3 PUSH1 0x1 PUSH1 0x1 PUSH1 0xA0 SHL SUB AND PUSH1 0x1 PUSH1 0x1 PUSH1 0xA0 SHL SUB AND DUP2 MSTORE PUSH1 0x20 ADD SWAP2 POP POP PUSH1 0x0 PUSH1 0x40 MLOAD DUP1 DUP4 SUB DUP2 PUSH1 0x0 DUP8 DUP1 PUSH2 0x180D PUSH2 0x3DC2 JUMP JUMPDEST ISZERO DUP1 ISZERO PUSH2 0x1819 JUMPI PUSH1 0x0 DUP1 REVERT JUMPDEST POP GAS PUSH2 0x1823 PUSH2 0x3E4C JUMP JUMPDEST POP POP POP POP POP POP ISZERO DUP1 ISZERO PUSH2 0x183A JUMPI RETURNDATASIZE PUSH1 0x0 DUP1 RETURNDATACOPY RETURNDATASIZE PUSH1 0x0 REVERT JUMPDEST POP POP POP POP JUMPDEST PUSH1 0x0 PUSH2 0x1853 PUSH2 0x184C PUSH2 0x2B60 JUMP JUMPDEST DUP5 DUP5 PUSH2 0x36F0 JUMP JUMPDEST SWAP1 POP GAS PUSH2 0x185E PUSH2 0x3D64 JUMP JUMPDEST PUSH1 0x1 PUSH1 0x1 PUSH1 0xA0 SHL SUB AND PUSH32 0xD82B6F69D7477FB41CD83D936DE94990CEE2FA1A309FEEEE90101FC0513B6A43 DUP3 PUSH1 0x40 MLOAD DUP1 DUP3 DUP2 MSTORE PUSH1 0x20 ADD SWAP2 POP POP PUSH1 0x40 MLOAD DUP1 SWAP2 SUB SWAP1 LOG2 DUP1 ISZERO PUSH2 0x195E JUMPI PUSH2 0x18AD DUP2 PUSH2 0x2A84 JUMP JUMPDEST POP PUSH2 0x18B6 PUSH2 0x29CD JUMP JUMPDEST PUSH1 0x1 PUSH1 0x1 PUSH1 0xA0 SHL SUB AND PUSH4 0xA9059CBB GAS PUSH2 0x18CD PUSH2 0x3D64 JUMP JUMPDEST DUP4 PUSH1 0x40 MLOAD DUP4 PUSH4 0xFFFFFFFF AND PUSH1 0xE0 SHL DUP2 MSTORE PUSH1 0x4 ADD DUP1 DUP4 PUSH1 0x1 PUSH1 0x1 PUSH1 0xA0 SHL SUB AND PUSH1 0x1 PUSH1 0x1 PUSH1 0xA0 SHL SUB AND DUP2 MSTORE PUSH1 0x20 ADD DUP3 DUP2 MSTORE PUSH1 0x20 ADD SWAP3 POP POP POP PUSH1 0x20 PUSH1 0x40 MLOAD DUP1 DUP4 SUB DUP2 PUSH1 0x0 DUP8 DUP1 PUSH2 0x1918 PUSH2 0x3DC2 JUMP JUMPDEST ISZERO DUP1 ISZERO PUSH2 0x1924 JUMPI PUSH1 0x0 DUP1 REVERT JUMPDEST POP GAS PUSH2 0x192E PUSH2 0x3E4C JUMP JUMPDEST POP POP POP POP POP POP ISZERO DUP1 ISZERO PUSH2 0x1945 JUMPI RETURNDATASIZE PUSH1 0x0 DUP1 RETURNDATACOPY RETURNDATASIZE PUSH1 0x0 REVERT JUMPDEST POP POP POP POP PUSH1 0x40 MLOAD RETURNDATASIZE PUSH1 0x20 DUP2 LT ISZERO PUSH2 0x195B JUMPI PUSH1 0x0 DUP1 REVERT JUMPDEST POP POP JUMPDEST SWAP5 POP POP POP POP POP SWAP1 JUMP JUMPDEST PUSH1 0x0 DUP1 PUSH2 0x108C PUSH2 0x31EE JUMP JUMPDEST PUSH1 0x0 DUP1 PUSH2 0x664 PUSH2 0x3D2B JUMP JUMPDEST PUSH1 0xC DUP1 PUSH2 0x1988 PUSH2 0x3D2B JUMP JUMPDEST SWAP1 DUP1 PUSH1 0x1 ADD PUSH2 0x1995 PUSH2 0x3D2B JUMP JUMPDEST SWAP1 DUP1 PUSH1 0x2 ADD PUSH2 0x19A2 PUSH2 0x3D2B JUMP JUMPDEST SWAP1 POP DUP4 JUMP JUMPDEST PUSH1 0xF DUP1 PUSH2 0x1988 PUSH2 0x3D2B JUMP JUMPDEST PUSH1 0x9 DUP1 PUSH2 0x1988 PUSH2 0x3D2B JUMP JUMPDEST PUSH2 0x19C5 PUSH2 0x3EA4 JUMP JUMPDEST PUSH1 0x0 JUMPDEST PUSH1 0x4 DUP1 PUSH2 0x19D3 PUSH2 0x3D2B JUMP JUMPDEST SWAP1 POP DUP2 LT ISZERO PUSH2 0x1A1B JUMPI PUSH1 0x4 DUP2 DUP2 PUSH2 0x19E8 PUSH2 0x3D2B JUMP JUMPDEST DUP2 LT PUSH2 0x19F0 JUMPI INVALID JUMPDEST SWAP1 PUSH1 0x0 MSTORE PUSH1 0x20 PUSH1 0x0 KECCAK256 ADD PUSH2 0x1A02 PUSH2 0x3D2B JUMP JUMPDEST DUP3 DUP3 PUSH1 0x18 DUP2 LT PUSH2 0x1A0E JUMPI INVALID JUMPDEST PUSH1 0x20 MUL ADD MSTORE PUSH1 0x1 ADD PUSH2 0x19C8 JUMP JUMPDEST POP SWAP1 JUMP JUMPDEST PUSH1 0x0 DUP1 PUSH2 0x1A2A PUSH2 0x2880 JUMP JUMPDEST SWAP2 POP POP PUSH1 0x15 PUSH1 0x14 SWAP1 PUSH2 0x1A3A PUSH2 0x3D2B JUMP JUMPDEST SWAP1 PUSH2 0x100 EXP SWAP1 DIV PUSH1 0xFF AND ISZERO DUP1 ISZERO PUSH2 0x1A54 JUMPI POP PUSH2 0x1A54 PUSH2 0x2865 JUMP JUMPDEST DUP1 ISZERO PUSH2 0x1A64 JUMPI POP PUSH2 0x1A64 DUP2 PUSH2 0x2925 JUMP JUMPDEST SWAP2 POP POP SWAP1 JUMP JUMPDEST PUSH1 0x0 PUSH2 0x1A74 PUSH2 0x31D9 JUMP JUMPDEST PUSH2 0x1A80 JUMPI POP PUSH1 0x0 PUSH2 0x7C0 JUMP JUMPDEST PUSH2 0x1A88 PUSH2 0x2865 JUMP JUMPDEST PUSH2 0x1A94 JUMPI POP PUSH1 0x1 PUSH2 0x7C0 JUMP JUMPDEST PUSH2 0x1A9C PUSH2 0x3713 JUMP JUMPDEST PUSH2 0x1AA8 JUMPI POP PUSH1 0x2 PUSH2 0x7C0 JUMP JUMPDEST POP PUSH1 0x3 SWAP1 JUMP JUMPDEST PUSH1 0x0 PUSH2 0x1AB8 PUSH2 0x31D9 JUMP JUMPDEST ISZERO PUSH2 0x1AFD JUMPI PUSH1 0x40 DUP1 MLOAD PUSH3 0x461BCD PUSH1 0xE5 SHL DUP2 MSTORE PUSH1 0x20 PUSH1 0x4 DUP3 ADD MSTORE PUSH1 0x10 PUSH1 0x24 DUP3 ADD MSTORE PUSH16 0x42696464696E6720696E616374697665 PUSH1 0x80 SHL PUSH1 0x44 DUP3 ADD MSTORE SWAP1 MLOAD SWAP1 DUP2 SWAP1 SUB PUSH1 0x64 ADD SWAP1 REVERT JUMPDEST PUSH1 0x15 DUP1 PUSH2 0x1B08 PUSH2 0x3D2B JUMP JUMPDEST SWAP1 PUSH2 0x100 EXP SWAP1 DIV PUSH1 0xFF AND PUSH2 0x1B56 JUMPI PUSH1 0x40 DUP1 MLOAD PUSH3 0x461BCD PUSH1 0xE5 SHL DUP2 MSTORE PUSH1 0x20 PUSH1 0x4 DUP3 ADD MSTORE PUSH1 0x10 PUSH1 0x24 DUP3 ADD MSTORE PUSH16 0x1499599D5B991CC8191A5CD8589B1959 PUSH1 0x82 SHL PUSH1 0x44 DUP3 ADD MSTORE SWAP1 MLOAD SWAP1 DUP2 SWAP1 SUB PUSH1 0x64 ADD SWAP1 REVERT JUMPDEST DUP2 PUSH2 0x1B63 JUMPI POP PUSH1 0x0 PUSH2 0x1E79 JUMP JUMPDEST PUSH1 0x0 PUSH1 0x15 PUSH2 0x1B6F PUSH2 0x3D2B JUMP JUMPDEST SWAP1 PUSH2 0x100 EXP SWAP1 DIV PUSH1 0x1 PUSH1 0x1 PUSH1 0xA0 SHL SUB AND PUSH1 0x1 PUSH1 0x1 PUSH1 0xA0 SHL SUB AND GAS PUSH2 0x1B91 PUSH2 0x3D64 JUMP JUMPDEST PUSH1 0x1 PUSH1 0x1 PUSH1 0xA0 SHL SUB AND EQ ISZERO PUSH2 0x1BEB JUMPI PUSH1 0x0 DUP1 PUSH2 0x1BB4 GAS PUSH2 0x1BAF PUSH2 0x3D64 JUMP JUMPDEST PUSH2 0x2BBB JUMP JUMPDEST SWAP1 SWAP3 POP SWAP1 POP PUSH1 0x1 DUP6 PUSH1 0x1 DUP2 GT ISZERO PUSH2 0x1BC7 JUMPI INVALID JUMPDEST EQ ISZERO PUSH2 0x1BCF JUMPI SWAP1 JUMPDEST PUSH2 0x1BE8 PUSH2 0x1BE2 DUP4 DUP7 PUSH4 0xFFFFFFFF PUSH2 0x375C AND JUMP JUMPDEST DUP3 PUSH2 0x37B9 JUMP JUMPDEST POP POP JUMPDEST PUSH2 0x1C8A PUSH2 0xA8C PUSH1 0x11 PUSH2 0x1BFB PUSH2 0x3D2B JUMP JUMPDEST PUSH20 0x0 PUSH4 0x907AF6C0 PUSH1 0x40 MLOAD DUP2 PUSH4 0xFFFFFFFF AND PUSH1 0xE0 SHL DUP2 MSTORE PUSH1 0x4 ADD PUSH1 0x20 PUSH1 0x40 MLOAD DUP1 DUP4 SUB DUP2 DUP7 DUP1 PUSH2 0x1C3A PUSH2 0x3DC2 JUMP JUMPDEST ISZERO DUP1 ISZERO PUSH2 0x1C46 JUMPI PUSH1 0x0 DUP1 REVERT JUMPDEST POP GAS PUSH2 0x1C50 PUSH2 0x3EC3 JUMP JUMPDEST POP POP POP POP POP ISZERO DUP1 ISZERO PUSH2 0x1C66 JUMPI RETURNDATASIZE PUSH1 0x0 DUP1 RETURNDATACOPY RETURNDATASIZE PUSH1 0x0 REVERT JUMPDEST POP POP POP POP PUSH1 0x40 MLOAD RETURNDATASIZE PUSH1 0x20 DUP2 LT ISZERO PUSH2 0x1C7C JUMPI PUSH1 0x0 DUP1 REVERT JUMPDEST POP MLOAD SWAP1 PUSH4 0xFFFFFFFF PUSH2 0x375C AND JUMP JUMPDEST SWAP1 POP PUSH2 0x1C95 DUP4 PUSH2 0x38A7 JUMP JUMPDEST PUSH1 0x1 PUSH1 0x1 PUSH1 0xA0 SHL SUB AND PUSH4 0x410085DF GAS PUSH2 0x1CAC PUSH2 0x3D64 JUMP JUMPDEST DUP5 PUSH1 0x40 MLOAD DUP4 PUSH4 0xFFFFFFFF AND PUSH1 0xE0 SHL DUP2 MSTORE PUSH1 0x4 ADD DUP1 DUP4 PUSH1 0x1 PUSH1 0x1 PUSH1 0xA0 SHL SUB AND PUSH1 0x1 PUSH1 0x1 PUSH1 0xA0 SHL SUB AND DUP2 MSTORE PUSH1 0x20 ADD DUP3 DUP2 MSTORE PUSH1 0x20 ADD SWAP3 POP POP POP PUSH1 0x0 PUSH1 0x40 MLOAD DUP1 DUP4 SUB DUP2 PUSH1 0x0 DUP8 DUP1 PUSH2 0x1CF7 PUSH2 0x3DC2 JUMP JUMPDEST ISZERO DUP1 ISZERO PUSH2 0x1D03 JUMPI PUSH1 0x0 DUP1 REVERT JUMPDEST POP GAS PUSH2 0x1D0D PUSH2 0x3E4C JUMP JUMPDEST POP POP POP POP POP POP ISZERO DUP1 ISZERO PUSH2 0x1D24 JUMPI RETURNDATASIZE PUSH1 0x0 DUP1 RETURNDATACOPY RETURNDATASIZE PUSH1 0x0 REVERT JUMPDEST POP POP POP POP GAS PUSH2 0x1D31 PUSH2 0x3D64 JUMP JUMPDEST PUSH1 0x1 PUSH1 0x1 PUSH1 0xA0 SHL SUB AND PUSH32 0x9BD0A8CA6625E01A9CEE5E86EEC7813A8234B41F1CA0C9F15A008D1E1D00EE5F DUP5 DUP4 PUSH2 0x1D6D DUP7 DUP3 PUSH4 0xFFFFFFFF PUSH2 0x375C AND JUMP JUMPDEST PUSH1 0x40 MLOAD DUP1 DUP5 PUSH1 0x1 DUP2 GT ISZERO PUSH2 0x1D7D JUMPI INVALID JUMPDEST PUSH1 0xFF AND DUP2 MSTORE PUSH1 0x20 ADD DUP4 DUP2 MSTORE PUSH1 0x20 ADD DUP3 DUP2 MSTORE PUSH1 0x20 ADD SWAP4 POP POP POP POP PUSH1 0x40 MLOAD DUP1 SWAP2 SUB SWAP1 LOG2 PUSH1 0x0 PUSH2 0x1DA9 DUP3 PUSH2 0x2A84 JUMP JUMPDEST SWAP1 POP PUSH2 0x1DB3 PUSH2 0x29CD JUMP JUMPDEST PUSH1 0x1 PUSH1 0x1 PUSH1 0xA0 SHL SUB AND PUSH4 0xA9059CBB GAS PUSH2 0x1DCA PUSH2 0x3D64 JUMP JUMPDEST DUP5 PUSH1 0x40 MLOAD DUP4 PUSH4 0xFFFFFFFF AND PUSH1 0xE0 SHL DUP2 MSTORE PUSH1 0x4 ADD DUP1 DUP4 PUSH1 0x1 PUSH1 0x1 PUSH1 0xA0 SHL SUB AND PUSH1 0x1 PUSH1 0x1 PUSH1 0xA0 SHL SUB AND DUP2 MSTORE PUSH1 0x20 ADD DUP3 DUP2 MSTORE PUSH1 0x20 ADD SWAP3 POP POP POP PUSH1 0x20 PUSH1 0x40 MLOAD DUP1 DUP4 SUB DUP2 PUSH1 0x0 DUP8 DUP1 PUSH2 0x1E15 PUSH2 0x3DC2 JUMP JUMPDEST ISZERO DUP1 ISZERO PUSH2 0x1E21 JUMPI PUSH1 0x0 DUP1 REVERT JUMPDEST POP GAS PUSH2 0x1E2B PUSH2 0x3E4C JUMP JUMPDEST POP POP POP POP POP POP ISZERO DUP1 ISZERO PUSH2 0x1E42 JUMPI RETURNDATASIZE PUSH1 0x0 DUP1 RETURNDATACOPY RETURNDATASIZE PUSH1 0x0 REVERT JUMPDEST POP POP POP POP PUSH1 0x40 MLOAD RETURNDATASIZE PUSH1 0x20 DUP2 LT ISZERO PUSH2 0x1E58 JUMPI PUSH1 0x0 DUP1 REVERT JUMPDEST POP PUSH1 0x0 SWAP1 POP DUP1 PUSH2 0x1E66 PUSH2 0x31EE JUMP JUMPDEST SWAP2 POP SWAP2 POP PUSH2 0x1E75 DUP3 DUP3 DUP6 PUSH2 0x3902 JUMP JUMPDEST POP POP POP JUMPDEST SWAP3 SWAP2 POP POP JUMP JUMPDEST PUSH1 0x12 DUP1 PUSH2 0x1E8A PUSH2 0x3D2B JUMP JUMPDEST SWAP1 DUP1 PUSH1 0x1 ADD PUSH2 0x1E97 PUSH2 0x3D2B JUMP JUMPDEST SWAP1 POP DUP3 JUMP JUMPDEST PUSH1 0x0 DUP1 PUSH1 0x14 PUSH1 0x15 PUSH2 0x1EAB PUSH2 0x3D2B JUMP JUMPDEST SWAP1 PUSH2 0x100 EXP SWAP1 DIV PUSH1 0xFF AND ISZERO DUP1 PUSH2 0x1EE9 JUMPI POP GAS PUSH2 0x1EC5 PUSH2 0x3D64 JUMP JUMPDEST PUSH1 0x1 PUSH1 0x1 PUSH1 0xA0 SHL SUB AND PUSH2 0x1EDE PUSH2 0x1ED9 PUSH2 0x2B60 JUMP JUMPDEST PUSH2 0x38A7 JUMP JUMPDEST PUSH1 0x1 PUSH1 0x1 PUSH1 0xA0 SHL SUB AND EQ JUMPDEST ISZERO PUSH2 0x1EFE JUMPI PUSH2 0x1EFB PUSH1 0x14 PUSH2 0x7B8 PUSH2 0x3D2B JUMP JUMPDEST SWAP1 POP JUMPDEST PUSH1 0x0 PUSH1 0x5 PUSH2 0x1F0A PUSH2 0x3D2B JUMP JUMPDEST SWAP1 PUSH2 0x100 EXP SWAP1 DIV PUSH1 0x1 PUSH1 0x1 PUSH1 0xA0 SHL SUB AND PUSH1 0x1 PUSH1 0x1 PUSH1 0xA0 SHL SUB AND GAS PUSH2 0x1F2C PUSH2 0x3D64 JUMP JUMPDEST PUSH1 0x1 PUSH1 0x1 PUSH1 0xA0 SHL SUB AND EQ ISZERO PUSH2 0x1F4C JUMPI PUSH1 0x7 PUSH2 0x1F45 PUSH2 0x3D2B JUMP JUMPDEST SWAP2 POP PUSH2 0x107D JUMP JUMPDEST PUSH1 0x0 PUSH1 0x6 PUSH2 0x1F58 PUSH2 0x3D2B JUMP JUMPDEST SWAP1 PUSH2 0x100 EXP SWAP1 DIV PUSH1 0x1 PUSH1 0x1 PUSH1 0xA0 SHL SUB AND PUSH1 0x1 PUSH1 0x1 PUSH1 0xA0 SHL SUB AND GAS PUSH2 0x1F7A PUSH2 0x3D64 JUMP JUMPDEST PUSH1 0x1 PUSH1 0x1 PUSH1 0xA0 SHL SUB AND EQ ISZERO PUSH2 0x1F93 JUMPI PUSH1 0x8 PUSH2 0x1F45 PUSH2 0x3D2B JUMP JUMPDEST PUSH1 0x40 DUP1 MLOAD PUSH3 0x461BCD PUSH1 0xE5 SHL DUP2 MSTORE PUSH1 0x20 PUSH1 0x4 DUP3 ADD MSTORE PUSH1 0x17 PUSH1 0x24 DUP3 ADD MSTORE PUSH32 0x53656E646572206973206E6F7420616E206F7074696F6E000000000000000000 PUSH1 0x44 DUP3 ADD MSTORE SWAP1 MLOAD SWAP1 DUP2 SWAP1 SUB PUSH1 0x64 ADD SWAP1 REVERT JUMPDEST PUSH1 0x4 DUP2 DUP2 PUSH2 0x1FEC PUSH2 0x3D2B JUMP JUMPDEST DUP2 LT PUSH2 0x1FF4 JUMPI INVALID JUMPDEST PUSH1 0x0 SWAP2 DUP3 MSTORE PUSH1 0x20 SWAP1 SWAP2 KECCAK256 ADD SWAP1 POP PUSH2 0x2009 PUSH2 0x3D2B JUMP JUMPDEST DUP2 JUMP JUMPDEST PUSH1 0x0 DUP1 PUSH2 0x108C PUSH2 0x2880 JUMP JUMPDEST PUSH1 0x0 DUP1 PUSH2 0x2022 PUSH2 0x3D2B JUMP JUMPDEST SWAP1 PUSH2 0x100 EXP SWAP1 DIV PUSH1 0x1 PUSH1 0x1 PUSH1 0xA0 SHL SUB AND PUSH1 0x1 PUSH1 0x1 PUSH1 0xA0 SHL SUB AND GAS PUSH2 0x2044 PUSH2 0x3D64 JUMP JUMPDEST PUSH1 0x1 PUSH1 0x1 PUSH1 0xA0 SHL SUB AND EQ PUSH2 0x2089 JUMPI PUSH1 0x40 MLOAD PUSH3 0x461BCD PUSH1 0xE5 SHL DUP2 MSTORE PUSH1 0x4 ADD DUP1 DUP1 PUSH1 0x20 ADD DUP3 DUP2 SUB DUP3 MSTORE PUSH1 0x2F DUP2 MSTORE PUSH1 0x20 ADD DUP1 PUSH2 0x3F57 PUSH1 0x2F SWAP2 CODECOPY PUSH1 0x40 ADD SWAP2 POP POP PUSH1 0x40 MLOAD DUP1 SWAP2 SUB SWAP1 REVERT JUMPDEST PUSH2 0x2091 PUSH2 0x3713 JUMP JUMPDEST PUSH2 0x20E2 JUMPI PUSH1 0x40 DUP1 MLOAD PUSH3 0x461BCD PUSH1 0xE5 SHL DUP2 MSTORE PUSH1 0x20 PUSH1 0x4 DUP3 ADD MSTORE PUSH1 0x1B PUSH1 0x24 DUP3 ADD MSTORE PUSH32 0x556E65787069726564206F7074696F6E732072656D61696E696E670000000000 PUSH1 0x44 DUP3 ADD MSTORE SWAP1 MLOAD SWAP1 DUP2 SWAP1 SUB PUSH1 0x64 ADD SWAP1 REVERT JUMPDEST PUSH2 0x20EB DUP2 PUSH2 0x32D2 JUMP JUMPDEST POP JUMP JUMPDEST PUSH1 0x0 DUP1 DUP1 PUSH1 0x5 PUSH2 0x20FC PUSH2 0x3D2B JUMP JUMPDEST SWAP1 PUSH2 0x100 EXP SWAP1 DIV PUSH1 0x1 PUSH1 0x1 PUSH1 0xA0 SHL SUB AND PUSH1 0x1 PUSH1 0x1 PUSH1 0xA0 SHL SUB AND PUSH4 0x18160DDD PUSH1 0x40 MLOAD DUP2 PUSH4 0xFFFFFFFF AND PUSH1 0xE0 SHL DUP2 MSTORE PUSH1 0x4 ADD PUSH1 0x20 PUSH1 0x40 MLOAD DUP1 DUP4 SUB DUP2 DUP7 DUP1 PUSH2 0x213F PUSH2 0x3DC2 JUMP JUMPDEST ISZERO DUP1 ISZERO PUSH2 0x214B JUMPI PUSH1 0x0 DUP1 REVERT JUMPDEST POP GAS PUSH2 0x2155 PUSH2 0x3DF4 JUMP JUMPDEST POP POP POP POP POP ISZERO DUP1 ISZERO PUSH2 0x216B JUMPI RETURNDATASIZE PUSH1 0x0 DUP1 RETURNDATACOPY RETURNDATASIZE PUSH1 0x0 REVERT JUMPDEST POP POP POP POP PUSH1 0x40 MLOAD RETURNDATASIZE PUSH1 0x20 DUP2 LT ISZERO PUSH2 0x2181 JUMPI PUSH1 0x0 DUP1 REVERT JUMPDEST POP MLOAD PUSH1 0x0 PUSH1 0x6 PUSH2 0x218F PUSH2 0x3D2B JUMP JUMPDEST SWAP1 PUSH2 0x100 EXP SWAP1 DIV PUSH1 0x1 PUSH1 0x1 PUSH1 0xA0 SHL SUB AND PUSH1 0x1 PUSH1 0x1 PUSH1 0xA0 SHL SUB AND PUSH4 0x18160DDD PUSH1 0x40 MLOAD DUP2 PUSH4 0xFFFFFFFF AND PUSH1 0xE0 SHL DUP2 MSTORE PUSH1 0x4 ADD PUSH1 0x20 PUSH1 0x40 MLOAD DUP1 DUP4 SUB DUP2 DUP7 DUP1 PUSH2 0x1033 PUSH2 0x3DC2 JUMP JUMPDEST PUSH1 0x7 DUP1 PUSH2 0x1E8A PUSH2 0x3D2B JUMP JUMPDEST PUSH2 0x21E5 PUSH2 0x31D9 JUMP JUMPDEST ISZERO PUSH2 0x222A JUMPI PUSH1 0x40 DUP1 MLOAD PUSH3 0x461BCD PUSH1 0xE5 SHL DUP2 MSTORE PUSH1 0x20 PUSH1 0x4 DUP3 ADD MSTORE PUSH1 0x10 PUSH1 0x24 DUP3 ADD MSTORE PUSH16 0x42696464696E6720696E616374697665 PUSH1 0x80 SHL PUSH1 0x44 DUP3 ADD MSTORE SWAP1 MLOAD SWAP1 DUP2 SWAP1 SUB PUSH1 0x64 ADD SWAP1 REVERT JUMPDEST DUP1 PUSH2 0x2234 JUMPI PUSH2 0xF4B JUMP JUMPDEST PUSH2 0x223D DUP3 PUSH2 0x38A7 JUMP JUMPDEST PUSH1 0x1 PUSH1 0x1 PUSH1 0xA0 SHL SUB AND PUSH4 0x59D667A5 GAS PUSH2 0x2254 PUSH2 0x3D64 JUMP JUMPDEST DUP4 PUSH1 0x40 MLOAD DUP4 PUSH4 0xFFFFFFFF AND PUSH1 0xE0 SHL DUP2 MSTORE PUSH1 0x4 ADD DUP1 DUP4 PUSH1 0x1 PUSH1 0x1 PUSH1 0xA0 SHL SUB AND PUSH1 0x1 PUSH1 0x1 PUSH1 0xA0 SHL SUB AND DUP2 MSTORE PUSH1 0x20 ADD DUP3 DUP2 MSTORE PUSH1 0x20 ADD SWAP3 POP POP POP PUSH1 0x0 PUSH1 0x40 MLOAD DUP1 DUP4 SUB DUP2 PUSH1 0x0 DUP8 DUP1 PUSH2 0x229F PUSH2 0x3DC2 JUMP JUMPDEST ISZERO DUP1 ISZERO PUSH2 0x22AB JUMPI PUSH1 0x0 DUP1 REVERT JUMPDEST POP GAS PUSH2 0x22B5 PUSH2 0x3E4C JUMP JUMPDEST POP POP POP POP POP POP ISZERO DUP1 ISZERO PUSH2 0x22CC JUMPI RETURNDATASIZE PUSH1 0x0 DUP1 RETURNDATACOPY RETURNDATASIZE PUSH1 0x0 REVERT JUMPDEST POP POP POP POP GAS PUSH2 0x22D9 PUSH2 0x3D64 JUMP JUMPDEST PUSH1 0x1 PUSH1 0x1 PUSH1 0xA0 SHL SUB AND PUSH32 0x70BD4A33BF447720D717D08F3AFFB5AECFE4D2EBB8E3DD94539F5313E2447643 DUP4 DUP4 PUSH1 0x40 MLOAD DUP1 DUP4 PUSH1 0x1 DUP2 GT ISZERO PUSH2 0x2315 JUMPI INVALID JUMPDEST PUSH1 0xFF AND DUP2 MSTORE PUSH1 0x20 ADD DUP3 DUP2 MSTORE PUSH1 0x20 ADD SWAP3 POP POP POP PUSH1 0x40 MLOAD DUP1 SWAP2 SUB SWAP1 LOG2 PUSH1 0x0 PUSH2 0x233A DUP3 PUSH2 0x398E JUMP JUMPDEST SWAP1 POP PUSH2 0x2344 PUSH2 0x29CD JUMP JUMPDEST PUSH1 0x1 PUSH1 0x1 PUSH1 0xA0 SHL SUB AND PUSH4 0x23B872DD GAS PUSH2 0x235B PUSH2 0x3D64 JUMP JUMPDEST GAS PUSH4 0x996D79A5 PUSH3 0x80000 DUP2 PUSH1 0xE0 SHL DUP2 MSTORE PUSH1 0x20 DUP2 PUSH1 0x4 DUP4 CALLER PUSH1 0x0 SWAP1 GAS CALL DUP1 PUSH2 0x2381 JUMPI PUSH1 0x0 DUP1 REVERT JUMPDEST POP MLOAD PUSH1 0x40 DUP1 MLOAD PUSH1 0x1 PUSH1 0x1 PUSH1 0xE0 SHL SUB NOT PUSH1 0xE0 DUP9 SWAP1 SHL AND DUP2 MSTORE PUSH1 0x1 PUSH1 0x1 PUSH1 0xA0 SHL SUB SWAP6 DUP7 AND PUSH1 0x4 DUP3 ADD MSTORE SWAP5 SWAP1 SWAP2 AND PUSH1 0x24 DUP6 ADD MSTORE PUSH1 0x44 DUP5 ADD DUP9 SWAP1 MSTORE MLOAD PUSH1 0x64 DUP1 DUP6 ADD SWAP5 PUSH1 0x20 SWAP5 POP SWAP2 SWAP3 POP SWAP1 DUP3 SWAP1 SUB ADD DUP2 PUSH1 0x0 DUP8 DUP1 PUSH2 0x23D8 PUSH2 0x3DC2 JUMP JUMPDEST ISZERO DUP1 ISZERO PUSH2 0x23E4 JUMPI PUSH1 0x0 DUP1 REVERT JUMPDEST POP GAS PUSH2 0x23EE PUSH2 0x3E4C JUMP JUMPDEST POP POP POP POP POP POP ISZERO DUP1 ISZERO PUSH2 0x2405 JUMPI RETURNDATASIZE PUSH1 0x0 DUP1 RETURNDATACOPY RETURNDATASIZE PUSH1 0x0 REVERT JUMPDEST POP POP POP POP PUSH1 0x40 MLOAD RETURNDATASIZE PUSH1 0x20 DUP2 LT ISZERO PUSH2 0x241B JUMPI PUSH1 0x0 DUP1 REVERT JUMPDEST POP PUSH1 0x0 SWAP1 POP DUP1 PUSH2 0x2429 PUSH2 0x31EE JUMP JUMPDEST SWAP2 POP SWAP2 POP PUSH2 0x2438 DUP3 DUP3 DUP6 PUSH2 0x3902 JUMP JUMPDEST POP POP POP POP POP JUMP JUMPDEST PUSH1 0x18 DUP2 JUMP JUMPDEST PUSH1 0x0 DUP1 PUSH2 0x2461 PUSH1 0x16 PUSH2 0x2454 PUSH2 0x3D2B JUMP JUMPDEST DUP6 SWAP1 PUSH4 0xFFFFFFFF PUSH2 0x2A0E AND JUMP JUMPDEST SWAP1 POP PUSH1 0x0 PUSH2 0x246E DUP7 PUSH2 0x38A7 JUMP JUMPDEST PUSH1 0x1 PUSH1 0x1 PUSH1 0xA0 SHL SUB AND PUSH4 0x8B034136 PUSH1 0x40 MLOAD DUP2 PUSH4 0xFFFFFFFF AND PUSH1 0xE0 SHL DUP2 MSTORE PUSH1 0x4 ADD PUSH1 0x20 PUSH1 0x40 MLOAD DUP1 DUP4 SUB DUP2 DUP7 DUP1 PUSH2 0x24A1 PUSH2 0x3DC2 JUMP JUMPDEST ISZERO DUP1 ISZERO PUSH2 0x24AD JUMPI PUSH1 0x0 DUP1 REVERT JUMPDEST POP GAS PUSH2 0x24B7 PUSH2 0x3DF4 JUMP JUMPDEST POP POP POP POP POP ISZERO DUP1 ISZERO PUSH2 0x24CD JUMPI RETURNDATASIZE PUSH1 0x0 DUP1 RETURNDATACOPY RETURNDATASIZE PUSH1 0x0 REVERT JUMPDEST POP POP POP POP PUSH1 0x40 MLOAD RETURNDATASIZE PUSH1 0x20 DUP2 LT ISZERO PUSH2 0x24E3 JUMPI PUSH1 0x0 DUP1 REVERT JUMPDEST POP MLOAD SWAP1 POP PUSH1 0x0 PUSH1 0x14 PUSH2 0x24F3 PUSH2 0x3D2B JUMP JUMPDEST SWAP1 POP PUSH1 0x0 PUSH20 0x0 PUSH4 0x907AF6C0 PUSH1 0x40 MLOAD DUP2 PUSH4 0xFFFFFFFF AND PUSH1 0xE0 SHL DUP2 MSTORE PUSH1 0x4 ADD PUSH1 0x20 PUSH1 0x40 MLOAD DUP1 DUP4 SUB DUP2 DUP7 DUP1 PUSH2 0x2536 PUSH2 0x3DC2 JUMP JUMPDEST ISZERO DUP1 ISZERO PUSH2 0x2542 JUMPI PUSH1 0x0 DUP1 REVERT JUMPDEST POP GAS PUSH2 0x254C PUSH2 0x3EC3 JUMP JUMPDEST POP POP POP POP POP ISZERO DUP1 ISZERO PUSH2 0x2562 JUMPI RETURNDATASIZE PUSH1 0x0 DUP1 RETURNDATACOPY RETURNDATASIZE PUSH1 0x0 REVERT JUMPDEST POP POP POP POP PUSH1 0x40 MLOAD RETURNDATASIZE PUSH1 0x20 DUP2 LT ISZERO PUSH2 0x2578 JUMPI PUSH1 0x0 DUP1 REVERT JUMPDEST POP MLOAD SWAP1 POP PUSH1 0x0 PUSH2 0x2598 PUSH1 0x11 PUSH2 0x258B PUSH2 0x3D2B JUMP JUMPDEST DUP4 SWAP1 PUSH4 0xFFFFFFFF PUSH2 0x375C AND JUMP JUMPDEST SWAP1 POP DUP9 PUSH1 0x1 DUP2 GT ISZERO PUSH2 0x25A6 JUMPI INVALID JUMPDEST DUP11 PUSH1 0x1 DUP2 GT ISZERO PUSH2 0x25B2 JUMPI INVALID JUMPDEST EQ ISZERO PUSH2 0x261C JUMPI PUSH1 0x0 PUSH2 0x25CA DUP5 DUP8 PUSH4 0xFFFFFFFF PUSH2 0x2A0E AND JUMP JUMPDEST SWAP1 POP DUP8 ISZERO PUSH2 0x25E6 JUMPI SWAP4 PUSH2 0x25E3 DUP7 DUP4 PUSH4 0xFFFFFFFF PUSH2 0x2A0E AND JUMP JUMPDEST SWAP6 POP JUMPDEST PUSH2 0x260F PUSH2 0x25F9 DUP5 DUP9 PUSH4 0xFFFFFFFF PUSH2 0x375C AND JUMP JUMPDEST PUSH2 0x2603 DUP4 DUP9 PUSH2 0x3A03 JUMP JUMPDEST SWAP1 PUSH4 0xFFFFFFFF PUSH2 0x3A2A AND JUMP JUMPDEST SWAP7 POP POP POP POP POP POP POP PUSH2 0x266B JUMP JUMPDEST PUSH1 0x0 PUSH2 0x262E DUP6 DUP8 PUSH4 0xFFFFFFFF PUSH2 0x3A2A AND JUMP JUMPDEST SWAP1 POP DUP8 ISZERO PUSH2 0x2638 JUMPI SWAP3 JUMPDEST PUSH1 0x0 PUSH2 0x2644 DUP3 DUP7 PUSH2 0x3A03 JUMP JUMPDEST SWAP1 POP DUP9 PUSH2 0x2651 JUMPI DUP1 PUSH2 0x2661 JUMP JUMPDEST PUSH2 0x2661 DUP2 DUP5 PUSH4 0xFFFFFFFF PUSH2 0x3A2A AND JUMP JUMPDEST SWAP8 POP POP POP POP POP POP POP POP JUMPDEST SWAP5 SWAP4 POP POP POP POP JUMP JUMPDEST PUSH1 0x14 PUSH2 0x2009 PUSH2 0x3D2B JUMP JUMPDEST PUSH1 0x0 DUP1 PUSH1 0x0 DUP1 PUSH2 0x268B PUSH2 0x31EE JUMP JUMPDEST SWAP2 POP SWAP2 POP PUSH2 0x3EFA DUP6 PUSH2 0x269F JUMPI PUSH2 0x2A2A PUSH2 0x26A3 JUMP JUMPDEST PUSH2 0x375C JUMPDEST SWAP1 POP PUSH1 0x0 DUP9 PUSH1 0x1 DUP2 GT ISZERO PUSH2 0x26B3 JUMPI INVALID JUMPDEST EQ ISZERO PUSH2 0x26CE JUMPI PUSH2 0x26C7 DUP4 DUP9 DUP4 PUSH4 0xFFFFFFFF AND JUMP JUMPDEST SWAP3 POP PUSH2 0x26DF JUMP JUMPDEST PUSH2 0x26DC DUP3 DUP9 DUP4 PUSH4 0xFFFFFFFF AND JUMP JUMPDEST SWAP2 POP JUMPDEST DUP6 ISZERO PUSH2 0x2705 JUMPI PUSH2 0x2702 PUSH2 0x26F5 PUSH1 0x11 PUSH2 0x1BFB PUSH2 0x3D2B JUMP JUMPDEST DUP9 SWAP1 PUSH4 0xFFFFFFFF PUSH2 0x2A0E AND JUMP JUMPDEST SWAP7 POP JUMPDEST PUSH2 0x2726 DUP4 DUP4 PUSH2 0x2721 PUSH1 0x14 PUSH2 0x2717 PUSH2 0x3D2B JUMP JUMPDEST DUP12 DUP7 PUSH4 0xFFFFFFFF AND JUMP JUMPDEST PUSH2 0x3A3F JUMP JUMPDEST SWAP5 POP SWAP5 POP POP POP POP SWAP4 POP SWAP4 SWAP2 POP POP JUMP JUMPDEST PUSH1 0x0 PUSH1 0x14 PUSH1 0x15 PUSH2 0x2743 PUSH2 0x3D2B JUMP JUMPDEST SWAP1 PUSH2 0x100 EXP SWAP1 DIV PUSH1 0xFF AND PUSH2 0x1A1B JUMPI PUSH2 0x275E PUSH1 0x16 PUSH2 0xA8C PUSH2 0x3D2B JUMP JUMPDEST PUSH2 0x1E79 JUMP JUMPDEST PUSH1 0x0 PUSH2 0x7BD PUSH12 0x53797374656D537461747573 PUSH1 0xA0 SHL PUSH1 0x40 MLOAD DUP1 PUSH1 0x40 ADD PUSH1 0x40 MSTORE DUP1 PUSH1 0x14 DUP2 MSTORE PUSH1 0x20 ADD PUSH20 0x4D697373696E672053797374656D537461747573 PUSH1 0x60 SHL DUP2 MSTORE POP PUSH2 0x3AD2 JUMP JUMPDEST PUSH2 0x27B2 PUSH2 0x36CF JUMP JUMPDEST PUSH1 0x1 PUSH1 0x1 PUSH1 0xA0 SHL SUB AND PUSH4 0x5C975ABB PUSH1 0x40 MLOAD DUP2 PUSH4 0xFFFFFFFF AND PUSH1 0xE0 SHL DUP2 MSTORE PUSH1 0x4 ADD PUSH1 0x20 PUSH1 0x40 MLOAD DUP1 DUP4 SUB DUP2 DUP7 DUP1 PUSH2 0x27E5 PUSH2 0x3DC2 JUMP JUMPDEST ISZERO DUP1 ISZERO PUSH2 0x27F1 JUMPI PUSH1 0x0 DUP1 REVERT JUMPDEST POP GAS PUSH2 0x27FB PUSH2 0x3DF4 JUMP JUMPDEST POP POP POP POP POP ISZERO DUP1 ISZERO PUSH2 0x2811 JUMPI RETURNDATASIZE PUSH1 0x0 DUP1 RETURNDATACOPY RETURNDATASIZE PUSH1 0x0 REVERT JUMPDEST POP POP POP POP PUSH1 0x40 MLOAD RETURNDATASIZE PUSH1 0x20 DUP2 LT ISZERO PUSH2 0x2827 JUMPI PUSH1 0x0 DUP1 REVERT JUMPDEST POP MLOAD ISZERO PUSH2 0x836 JUMPI PUSH1 0x40 MLOAD PUSH3 0x461BCD PUSH1 0xE5 SHL DUP2 MSTORE PUSH1 0x4 ADD DUP1 DUP1 PUSH1 0x20 ADD DUP3 DUP2 SUB DUP3 MSTORE PUSH1 0x3C DUP2 MSTORE PUSH1 0x20 ADD DUP1 PUSH2 0x3FA7 PUSH1 0x3C SWAP2 CODECOPY PUSH1 0x40 ADD SWAP2 POP POP PUSH1 0x40 MLOAD DUP1 SWAP2 SUB SWAP1 REVERT JUMPDEST PUSH1 0x0 GAS PUSH2 0x2870 PUSH2 0x3EFC JUMP JUMPDEST PUSH1 0xA PUSH2 0x287A PUSH2 0x3D2B JUMP JUMPDEST LT SWAP1 POP SWAP1 JUMP JUMPDEST PUSH1 0x0 DUP1 PUSH2 0x288B PUSH2 0x3B92 JUMP JUMPDEST PUSH1 0x1 PUSH1 0x1 PUSH1 0xA0 SHL SUB AND PUSH4 0x4308A94F PUSH1 0xC PUSH2 0x28A3 PUSH2 0x3D2B JUMP JUMPDEST PUSH1 0x40 MLOAD DUP3 PUSH4 0xFFFFFFFF AND PUSH1 0xE0 SHL DUP2 MSTORE PUSH1 0x4 ADD DUP1 DUP3 DUP2 MSTORE PUSH1 0x20 ADD SWAP2 POP POP PUSH1 0x40 DUP1 MLOAD DUP1 DUP4 SUB DUP2 DUP7 DUP1 PUSH2 0x28D1 PUSH2 0x3DC2 JUMP JUMPDEST ISZERO DUP1 ISZERO PUSH2 0x28DD JUMPI PUSH1 0x0 DUP1 REVERT JUMPDEST POP GAS PUSH2 0x28E7 PUSH2 0x3DF4 JUMP JUMPDEST POP POP POP POP POP ISZERO DUP1 ISZERO PUSH2 0x28FD JUMPI RETURNDATASIZE PUSH1 0x0 DUP1 RETURNDATACOPY RETURNDATASIZE PUSH1 0x0 REVERT JUMPDEST POP POP POP POP PUSH1 0x40 MLOAD RETURNDATASIZE PUSH1 0x40 DUP2 LT ISZERO PUSH2 0x2913 JUMPI PUSH1 0x0 DUP1 REVERT JUMPDEST POP DUP1 MLOAD PUSH1 0x20 SWAP1 SWAP2 ADD MLOAD SWAP1 SWAP3 POP SWAP1 POP SWAP1 SWAP2 JUMP JUMPDEST PUSH1 0x0 DUP1 PUSH2 0x2930 PUSH2 0x36CF JUMP JUMPDEST PUSH1 0x1 PUSH1 0x1 PUSH1 0xA0 SHL SUB AND PUSH4 0x4A41D89D PUSH1 0x40 MLOAD DUP2 PUSH4 0xFFFFFFFF AND PUSH1 0xE0 SHL DUP2 MSTORE PUSH1 0x4 ADD PUSH1 0x60 PUSH1 0x40 MLOAD DUP1 DUP4 SUB DUP2 DUP7 DUP1 PUSH2 0x2963 PUSH2 0x3DC2 JUMP JUMPDEST ISZERO DUP1 ISZERO PUSH2 0x296F JUMPI PUSH1 0x0 DUP1 REVERT JUMPDEST POP GAS PUSH2 0x2979 PUSH2 0x3DF4 JUMP JUMPDEST POP POP POP POP POP ISZERO DUP1 ISZERO PUSH2 0x298F JUMPI RETURNDATASIZE PUSH1 0x0 DUP1 RETURNDATACOPY RETURNDATASIZE PUSH1 0x0 REVERT JUMPDEST POP POP POP POP PUSH1 0x40 MLOAD RETURNDATASIZE PUSH1 0x60 DUP2 LT ISZERO PUSH2 0x29A5 JUMPI PUSH1 0x0 DUP1 REVERT JUMPDEST POP MLOAD SWAP1 POP DUP3 PUSH2 0x29C4 DUP3 PUSH1 0xA PUSH2 0x29B8 PUSH2 0x3D2B JUMP JUMPDEST SWAP1 PUSH4 0xFFFFFFFF PUSH2 0x375C AND JUMP JUMPDEST GT ISZERO SWAP4 SWAP3 POP POP POP JUMP JUMPDEST PUSH1 0x0 PUSH2 0x7BD PUSH9 0x14DE5B9D1A1CD554D1 PUSH1 0xBA SHL PUSH1 0x40 MLOAD DUP1 PUSH1 0x40 ADD PUSH1 0x40 MSTORE DUP1 PUSH1 0x11 DUP2 MSTORE PUSH1 0x20 ADD PUSH17 0x135A5CDCDA5B99C814DE5B9D1A1CD554D1 PUSH1 0x7A SHL DUP2 MSTORE POP PUSH2 0x3AD2 JUMP JUMPDEST PUSH1 0x0 PUSH2 0x2A23 DUP4 DUP4 PUSH8 0xDE0B6B3A7640000 PUSH2 0x3BDB JUMP JUMPDEST SWAP4 SWAP3 POP POP POP JUMP JUMPDEST PUSH1 0x0 DUP3 DUP3 ADD DUP4 DUP2 LT ISZERO PUSH2 0x2A23 JUMPI PUSH1 0x40 DUP1 MLOAD PUSH3 0x461BCD PUSH1 0xE5 SHL DUP2 MSTORE PUSH1 0x20 PUSH1 0x4 DUP3 ADD MSTORE PUSH1 0x1B PUSH1 0x24 DUP3 ADD MSTORE PUSH32 0x536166654D6174683A206164646974696F6E206F766572666C6F770000000000 PUSH1 0x44 DUP3 ADD MSTORE SWAP1 MLOAD SWAP1 DUP2 SWAP1 SUB PUSH1 0x64 ADD SWAP1 REVERT JUMPDEST PUSH1 0x0 PUSH2 0x2A94 DUP3 PUSH1 0x14 PUSH2 0x29B8 PUSH2 0x3D2B JUMP JUMPDEST SWAP1 POP DUP1 DUP1 PUSH1 0x14 PUSH2 0x2AA2 PUSH2 0x3D89 JUMP JUMPDEST POP POP POP PUSH2 0x2AAD PUSH2 0x36CF JUMP JUMPDEST PUSH1 0x1 PUSH1 0x1 PUSH1 0xA0 SHL SUB AND PUSH4 0x6B3A0984 DUP4 PUSH1 0x40 MLOAD DUP3 PUSH4 0xFFFFFFFF AND PUSH1 0xE0 SHL DUP2 MSTORE PUSH1 0x4 ADD DUP1 DUP3 DUP2 MSTORE PUSH1 0x20 ADD SWAP2 POP POP PUSH1 0x0 PUSH1 0x40 MLOAD DUP1 DUP4 SUB DUP2 PUSH1 0x0 DUP8 DUP1 PUSH2 0x2AED PUSH2 0x3DC2 JUMP JUMPDEST ISZERO DUP1 ISZERO PUSH2 0x2AF9 JUMPI PUSH1 0x0 DUP1 REVERT JUMPDEST POP GAS PUSH2 0x2B03 PUSH2 0x3E4C JUMP JUMPDEST POP POP POP POP POP POP ISZERO DUP1 ISZERO PUSH2 0x2B1A JUMPI RETURNDATASIZE PUSH1 0x0 DUP1 RETURNDATACOPY RETURNDATASIZE PUSH1 0x0 REVERT JUMPDEST POP POP POP POP SWAP2 SWAP1 POP JUMP JUMPDEST PUSH1 0x0 PUSH2 0x7BD PUSH7 0x119959541BDBDB PUSH1 0xCA SHL PUSH1 0x40 MLOAD DUP1 PUSH1 0x40 ADD PUSH1 0x40 MSTORE DUP1 PUSH1 0xF DUP2 MSTORE PUSH1 0x20 ADD PUSH15 0x135A5CDCDA5B99C8119959541BDBDB PUSH1 0x8A SHL DUP2 MSTORE POP PUSH2 0x3AD2 JUMP JUMPDEST PUSH1 0x0 DUP1 PUSH1 0x14 PUSH1 0x15 PUSH2 0x2B6F PUSH2 0x3D2B JUMP JUMPDEST SWAP1 PUSH2 0x100 EXP SWAP1 DIV PUSH1 0xFF AND ISZERO PUSH2 0x2B8F JUMPI PUSH1 0xE PUSH2 0x2B88 PUSH2 0x3D2B JUMP JUMPDEST SWAP1 POP PUSH2 0x2B9B JUMP JUMPDEST PUSH2 0x2B97 PUSH2 0x2880 JUMP JUMPDEST POP SWAP1 POP JUMPDEST DUP1 PUSH1 0xD PUSH2 0x2BA6 PUSH2 0x3D2B JUMP JUMPDEST GT ISZERO PUSH2 0x2BB3 JUMPI PUSH1 0x1 PUSH2 0x1A64 JUMP JUMPDEST PUSH1 0x0 SWAP2 POP POP SWAP1 JUMP JUMPDEST PUSH1 0x0 DUP1 DUP1 PUSH1 0x5 PUSH2 0x2BC9 PUSH2 0x3D2B JUMP JUMPDEST SWAP1 PUSH2 0x100 EXP SWAP1 DIV PUSH1 0x1 PUSH1 0x1 PUSH1 0xA0 SHL SUB AND PUSH1 0x1 PUSH1 0x1 PUSH1 0xA0 SHL SUB AND PUSH4 0x8DC30B70 DUP5 PUSH1 0x40 MLOAD DUP3 PUSH4 0xFFFFFFFF AND PUSH1 0xE0 SHL DUP2 MSTORE PUSH1 0x4 ADD DUP1 DUP3 PUSH1 0x1 PUSH1 0x1 PUSH1 0xA0 SHL SUB AND PUSH1 0x1 PUSH1 0x1 PUSH1 0xA0 SHL SUB AND DUP2 MSTORE PUSH1 0x20 ADD SWAP2 POP POP PUSH1 0x20 PUSH1 0x40 MLOAD DUP1 DUP4 SUB DUP2 DUP7 DUP1 PUSH2 0x2C29 PUSH2 0x3DC2 JUMP JUMPDEST ISZERO DUP1 ISZERO PUSH2 0x2C35 JUMPI PUSH1 0x0 DUP1 REVERT JUMPDEST POP GAS PUSH2 0x2C3F PUSH2 0x3DF4 JUMP JUMPDEST POP POP POP POP POP ISZERO DUP1 ISZERO PUSH2 0x2C55 JUMPI RETURNDATASIZE PUSH1 0x0 DUP1 RETURNDATACOPY RETURNDATASIZE PUSH1 0x0 REVERT JUMPDEST POP POP POP POP PUSH1 0x40 MLOAD RETURNDATASIZE PUSH1 0x20 DUP2 LT ISZERO PUSH2 0x2C6B JUMPI PUSH1 0x0 DUP1 REVERT JUMPDEST POP MLOAD PUSH1 0x0 PUSH1 0x6 PUSH2 0x2C79 PUSH2 0x3D2B JUMP JUMPDEST SWAP1 PUSH2 0x100 EXP SWAP1 DIV PUSH1 0x1 PUSH1 0x1 PUSH1 0xA0 SHL SUB AND PUSH1 0x1 PUSH1 0x1 PUSH1 0xA0 SHL SUB AND PUSH4 0x8DC30B70 DUP6 PUSH1 0x40 MLOAD DUP3 PUSH4 0xFFFFFFFF AND PUSH1 0xE0 SHL DUP2 MSTORE PUSH1 0x4 ADD DUP1 DUP3 PUSH1 0x1 PUSH1 0x1 PUSH1 0xA0 SHL SUB AND PUSH1 0x1 PUSH1 0x1 PUSH1 0xA0 SHL SUB AND DUP2 MSTORE PUSH1 0x20 ADD SWAP2 POP POP PUSH1 0x20 PUSH1 0x40 MLOAD DUP1 DUP4 SUB DUP2 DUP7 DUP1 PUSH2 0x2CD9 PUSH2 0x3DC2 JUMP JUMPDEST ISZERO DUP1 ISZERO PUSH2 0x2CE5 JUMPI PUSH1 0x0 DUP1 REVERT JUMPDEST POP GAS PUSH2 0x2CEF PUSH2 0x3DF4 JUMP JUMPDEST POP POP POP POP POP ISZERO DUP1 ISZERO PUSH2 0x2D05 JUMPI RETURNDATASIZE PUSH1 0x0 DUP1 RETURNDATACOPY RETURNDATASIZE PUSH1 0x0 REVERT JUMPDEST POP POP POP POP PUSH1 0x40 MLOAD RETURNDATASIZE PUSH1 0x20 DUP2 LT ISZERO PUSH2 0x2D1B JUMPI PUSH1 0x0 DUP1 REVERT JUMPDEST POP MLOAD SWAP1 SWAP3 POP SWAP1 POP SWAP2 POP SWAP2 JUMP JUMPDEST PUSH1 0x0 DUP1 PUSH2 0x2D32 PUSH2 0x2763 JUMP JUMPDEST PUSH1 0x1 PUSH1 0x1 PUSH1 0xA0 SHL SUB AND PUSH4 0x86DABD1 PUSH1 0x40 MLOAD DUP2 PUSH4 0xFFFFFFFF AND PUSH1 0xE0 SHL DUP2 MSTORE PUSH1 0x4 ADD PUSH1 0x0 PUSH1 0x40 MLOAD DUP1 DUP4 SUB DUP2 DUP7 DUP1 PUSH2 0x2D65 PUSH2 0x3DC2 JUMP JUMPDEST ISZERO DUP1 ISZERO PUSH2 0x2D71 JUMPI PUSH1 0x0 DUP1 REVERT JUMPDEST POP GAS PUSH2 0x2D7B PUSH2 0x3DF4 JUMP JUMPDEST POP POP POP POP POP ISZERO DUP1 ISZERO PUSH2 0x2D91 JUMPI RETURNDATASIZE PUSH1 0x0 DUP1 RETURNDATACOPY RETURNDATASIZE PUSH1 0x0 REVERT JUMPDEST POP POP POP POP PUSH2 0x2D9D PUSH2 0x27AA JUMP JUMPDEST PUSH2 0x2DA5 PUSH2 0x31D9 JUMP JUMPDEST PUSH2 0x2DEB JUMPI PUSH1 0x40 DUP1 MLOAD PUSH3 0x461BCD PUSH1 0xE5 SHL DUP2 MSTORE PUSH1 0x20 PUSH1 0x4 DUP3 ADD MSTORE PUSH1 0x12 PUSH1 0x24 DUP3 ADD MSTORE PUSH18 0x42696464696E6720696E636F6D706C657465 PUSH1 0x70 SHL PUSH1 0x44 DUP3 ADD MSTORE SWAP1 MLOAD SWAP1 DUP2 SWAP1 SUB PUSH1 0x64 ADD SWAP1 REVERT JUMPDEST PUSH1 0x0 PUSH2 0x2DFA PUSH1 0x14 PUSH2 0x7B8 PUSH2 0x3D2B JUMP JUMPDEST SWAP1 POP PUSH1 0x0 PUSH2 0x2E06 PUSH2 0x2B60 JUMP JUMPDEST SWAP1 POP PUSH1 0x0 PUSH1 0x14 PUSH1 0x15 PUSH2 0x2E16 PUSH2 0x3D2B JUMP JUMPDEST SWAP1 PUSH2 0x100 EXP SWAP1 DIV PUSH1 0xFF AND SWAP1 POP PUSH1 0x0 DUP1 DUP3 ISZERO DUP1 PUSH2 0x2E3D JUMPI POP PUSH1 0x0 DUP5 PUSH1 0x1 DUP2 GT ISZERO PUSH2 0x2E3B JUMPI INVALID JUMPDEST EQ JUMPDEST ISZERO PUSH2 0x2F19 JUMPI PUSH1 0x0 PUSH1 0x5 PUSH2 0x2E4E PUSH2 0x3D2B JUMP JUMPDEST SWAP1 PUSH2 0x100 EXP SWAP1 DIV PUSH1 0x1 PUSH1 0x1 PUSH1 0xA0 SHL SUB AND PUSH1 0x1 PUSH1 0x1 PUSH1 0xA0 SHL SUB AND PUSH4 0x2BC43FD9 GAS PUSH2 0x2E75 PUSH2 0x3D64 JUMP JUMPDEST PUSH1 0x7 PUSH2 0x2E7F PUSH2 0x3D2B JUMP JUMPDEST DUP9 PUSH1 0x40 MLOAD DUP5 PUSH4 0xFFFFFFFF AND PUSH1 0xE0 SHL DUP2 MSTORE PUSH1 0x4 ADD DUP1 DUP5 PUSH1 0x1 PUSH1 0x1 PUSH1 0xA0 SHL SUB AND PUSH1 0x1 PUSH1 0x1 PUSH1 0xA0 SHL SUB AND DUP2 MSTORE PUSH1 0x20 ADD DUP4 DUP2 MSTORE PUSH1 0x20 ADD DUP3 DUP2 MSTORE PUSH1 0x20 ADD SWAP4 POP POP POP POP PUSH1 0x20 PUSH1 0x40 MLOAD DUP1 DUP4 SUB DUP2 PUSH1 0x0 DUP8 DUP1 PUSH2 0x2ED1 PUSH2 0x3DC2 JUMP JUMPDEST ISZERO DUP1 ISZERO PUSH2 0x2EDD JUMPI PUSH1 0x0 DUP1 REVERT JUMPDEST POP GAS PUSH2 0x2EE7 PUSH2 0x3E4C JUMP JUMPDEST POP POP POP POP POP POP ISZERO DUP1 ISZERO PUSH2 0x2EFE JUMPI RETURNDATASIZE PUSH1 0x0 DUP1 RETURNDATACOPY RETURNDATASIZE PUSH1 0x0 REVERT JUMPDEST POP POP POP POP PUSH1 0x40 MLOAD RETURNDATASIZE PUSH1 0x20 DUP2 LT ISZERO PUSH2 0x2F14 JUMPI PUSH1 0x0 DUP1 REVERT JUMPDEST POP MLOAD SWAP2 POP JUMPDEST DUP3 ISZERO DUP1 PUSH2 0x2F31 JUMPI POP PUSH1 0x1 DUP5 PUSH1 0x1 DUP2 GT ISZERO PUSH2 0x2F2F JUMPI INVALID JUMPDEST EQ JUMPDEST ISZERO PUSH2 0x300D JUMPI PUSH1 0x0 PUSH1 0x6 PUSH2 0x2F42 PUSH2 0x3D2B JUMP JUMPDEST SWAP1 PUSH2 0x100 EXP SWAP1 DIV PUSH1 0x1 PUSH1 0x1 PUSH1 0xA0 SHL SUB AND PUSH1 0x1 PUSH1 0x1 PUSH1 0xA0 SHL SUB AND PUSH4 0x2BC43FD9 GAS PUSH2 0x2F69 PUSH2 0x3D64 JUMP JUMPDEST PUSH1 0x8 PUSH2 0x2F73 PUSH2 0x3D2B JUMP JUMPDEST DUP9 PUSH1 0x40 MLOAD DUP5 PUSH4 0xFFFFFFFF AND PUSH1 0xE0 SHL DUP2 MSTORE PUSH1 0x4 ADD DUP1 DUP5 PUSH1 0x1 PUSH1 0x1 PUSH1 0xA0 SHL SUB AND PUSH1 0x1 PUSH1 0x1 PUSH1 0xA0 SHL SUB AND DUP2 MSTORE PUSH1 0x20 ADD DUP4 DUP2 MSTORE PUSH1 0x20 ADD DUP3 DUP2 MSTORE PUSH1 0x20 ADD SWAP4 POP POP POP POP PUSH1 0x20 PUSH1 0x40 MLOAD DUP1 DUP4 SUB DUP2 PUSH1 0x0 DUP8 DUP1 PUSH2 0x2FC5 PUSH2 0x3DC2 JUMP JUMPDEST ISZERO DUP1 ISZERO PUSH2 0x2FD1 JUMPI PUSH1 0x0 DUP1 REVERT JUMPDEST POP GAS PUSH2 0x2FDB PUSH2 0x3E4C JUMP JUMPDEST POP POP POP POP POP POP ISZERO DUP1 ISZERO PUSH2 0x2FF2 JUMPI RETURNDATASIZE PUSH1 0x0 DUP1 RETURNDATACOPY RETURNDATASIZE PUSH1 0x0 REVERT JUMPDEST POP POP POP POP PUSH1 0x40 MLOAD RETURNDATASIZE PUSH1 0x20 DUP2 LT ISZERO PUSH2 0x3008 JUMPI PUSH1 0x0 DUP1 REVERT JUMPDEST POP MLOAD SWAP1 POP JUMPDEST DUP2 ISZERO ISZERO DUP1 PUSH2 0x301A JUMPI POP DUP1 ISZERO ISZERO JUMPDEST PUSH2 0x305E JUMPI PUSH1 0x40 DUP1 MLOAD PUSH3 0x461BCD PUSH1 0xE5 SHL DUP2 MSTORE PUSH1 0x20 PUSH1 0x4 DUP3 ADD MSTORE PUSH1 0x10 PUSH1 0x24 DUP3 ADD MSTORE PUSH16 0x4E6F7468696E6720746F20636C61696D PUSH1 0x80 SHL PUSH1 0x44 DUP3 ADD MSTORE SWAP1 MLOAD SWAP1 DUP2 SWAP1 SUB PUSH1 0x64 ADD SWAP1 REVERT JUMPDEST GAS PUSH2 0x3067 PUSH2 0x3D64 JUMP JUMPDEST PUSH1 0x1 PUSH1 0x1 PUSH1 0xA0 SHL SUB AND PUSH32 0xBBE753CAA9BB201DBD1740EE3D61C6D2ADF5FA89F30233D732281AE5DB6A03D4 DUP4 DUP4 PUSH1 0x40 MLOAD DUP1 DUP4 DUP2 MSTORE PUSH1 0x20 ADD DUP3 DUP2 MSTORE PUSH1 0x20 ADD SWAP3 POP POP POP PUSH1 0x40 MLOAD DUP1 SWAP2 SUB SWAP1 LOG2 SWAP1 SWAP6 POP SWAP4 POP POP POP POP SWAP1 SWAP2 JUMP JUMPDEST PUSH1 0x0 DUP1 DUP1 PUSH1 0x5 PUSH2 0x30C9 PUSH2 0x3D2B JUMP JUMPDEST SWAP1 PUSH2 0x100 EXP SWAP1 DIV PUSH1 0x1 PUSH1 0x1 PUSH1 0xA0 SHL SUB AND PUSH1 0x1 PUSH1 0x1 PUSH1 0xA0 SHL SUB AND PUSH4 0x9C3EE244 DUP5 PUSH1 0x40 MLOAD DUP3 PUSH4 0xFFFFFFFF AND PUSH1 0xE0 SHL DUP2 MSTORE PUSH1 0x4 ADD DUP1 DUP3 PUSH1 0x1 PUSH1 0x1 PUSH1 0xA0 SHL SUB AND PUSH1 0x1 PUSH1 0x1 PUSH1 0xA0 SHL SUB AND DUP2 MSTORE PUSH1 0x20 ADD SWAP2 POP POP PUSH1 0x20 PUSH1 0x40 MLOAD DUP1 DUP4 SUB DUP2 DUP7 DUP1 PUSH2 0x3129 PUSH2 0x3DC2 JUMP JUMPDEST ISZERO DUP1 ISZERO PUSH2 0x3135 JUMPI PUSH1 0x0 DUP1 REVERT JUMPDEST POP GAS PUSH2 0x313F PUSH2 0x3DF4 JUMP JUMPDEST POP POP POP POP POP ISZERO DUP1 ISZERO PUSH2 0x3155 JUMPI RETURNDATASIZE PUSH1 0x0 DUP1 RETURNDATACOPY RETURNDATASIZE PUSH1 0x0 REVERT JUMPDEST POP POP POP POP PUSH1 0x40 MLOAD RETURNDATASIZE PUSH1 0x20 DUP2 LT ISZERO PUSH2 0x316B JUMPI PUSH1 0x0 DUP1 REVERT JUMPDEST POP MLOAD PUSH1 0x0 PUSH1 0x6 PUSH2 0x3179 PUSH2 0x3D2B JUMP JUMPDEST SWAP1 PUSH2 0x100 EXP SWAP1 DIV PUSH1 0x1 PUSH1 0x1 PUSH1 0xA0 SHL SUB AND PUSH1 0x1 PUSH1 0x1 PUSH1 0xA0 SHL SUB AND PUSH4 0x9C3EE244 DUP6 PUSH1 0x40 MLOAD DUP3 PUSH4 0xFFFFFFFF AND PUSH1 0xE0 SHL DUP2 MSTORE PUSH1 0x4 ADD DUP1 DUP3 PUSH1 0x1 PUSH1 0x1 PUSH1 0xA0 SHL SUB AND PUSH1 0x1 PUSH1 0x1 PUSH1 0xA0 SHL SUB AND DUP2 MSTORE PUSH1 0x20 ADD SWAP2 POP POP PUSH1 0x20 PUSH1 0x40 MLOAD DUP1 DUP4 SUB DUP2 DUP7 DUP1 PUSH2 0x2CD9 PUSH2 0x3DC2 JUMP JUMPDEST PUSH1 0x0 GAS PUSH2 0x31E4 PUSH2 0x3EFC JUMP JUMPDEST PUSH1 0x9 PUSH2 0x287A PUSH2 0x3D2B JUMP JUMPDEST PUSH1 0x0 DUP1 DUP1 PUSH1 0x5 PUSH2 0x31FC PUSH2 0x3D2B JUMP JUMPDEST SWAP1 PUSH2 0x100 EXP SWAP1 DIV PUSH1 0x1 PUSH1 0x1 PUSH1 0xA0 SHL SUB AND PUSH1 0x1 PUSH1 0x1 PUSH1 0xA0 SHL SUB AND PUSH4 0x8B034136 PUSH1 0x40 MLOAD DUP2 PUSH4 0xFFFFFFFF AND PUSH1 0xE0 SHL DUP2 MSTORE PUSH1 0x4 ADD PUSH1 0x20 PUSH1 0x40 MLOAD DUP1 DUP4 SUB DUP2 DUP7 DUP1 PUSH2 0x323F PUSH2 0x3DC2 JUMP JUMPDEST ISZERO DUP1 ISZERO PUSH2 0x324B JUMPI PUSH1 0x0 DUP1 REVERT JUMPDEST POP GAS PUSH2 0x3255 PUSH2 0x3DF4 JUMP JUMPDEST POP POP POP POP POP ISZERO DUP1 ISZERO PUSH2 0x326B JUMPI RETURNDATASIZE PUSH1 0x0 DUP1 RETURNDATACOPY RETURNDATASIZE PUSH1 0x0 REVERT JUMPDEST POP POP POP POP PUSH1 0x40 MLOAD RETURNDATASIZE PUSH1 0x20 DUP2 LT ISZERO PUSH2 0x3281 JUMPI PUSH1 0x0 DUP1 REVERT JUMPDEST POP MLOAD PUSH1 0x0 PUSH1 0x6 PUSH2 0x328F PUSH2 0x3D2B JUMP JUMPDEST SWAP1 PUSH2 0x100 EXP SWAP1 DIV PUSH1 0x1 PUSH1 0x1 PUSH1 0xA0 SHL SUB AND PUSH1 0x1 PUSH1 0x1 PUSH1 0xA0 SHL SUB AND PUSH4 0x8B034136 PUSH1 0x40 MLOAD DUP2 PUSH4 0xFFFFFFFF AND PUSH1 0xE0 SHL DUP2 MSTORE PUSH1 0x4 ADD PUSH1 0x20 PUSH1 0x40 MLOAD DUP1 DUP4 SUB DUP2 DUP7 DUP1 PUSH2 0x1033 PUSH2 0x3DC2 JUMP JUMPDEST PUSH1 0x0 PUSH1 0x14 PUSH2 0x32DE PUSH2 0x3D2B JUMP JUMPDEST SWAP1 POP DUP1 ISZERO PUSH2 0x32F1 JUMPI PUSH2 0x32EF DUP2 PUSH2 0x2A84 JUMP JUMPDEST POP JUMPDEST PUSH1 0x0 PUSH2 0x32FB PUSH2 0x29CD JUMP JUMPDEST SWAP1 POP PUSH1 0x0 DUP2 PUSH1 0x1 PUSH1 0x1 PUSH1 0xA0 SHL SUB AND PUSH4 0x70A08231 GAS PUSH4 0x996D79A5 PUSH3 0x80000 DUP2 PUSH1 0xE0 SHL DUP2 MSTORE PUSH1 0x20 DUP2 PUSH1 0x4 DUP4 CALLER PUSH1 0x0 SWAP1 GAS CALL DUP1 PUSH2 0x3334 JUMPI PUSH1 0x0 DUP1 REVERT JUMPDEST DUP2 MLOAD SWAP4 POP POP POP POP PUSH1 0x40 MLOAD DUP3 PUSH4 0xFFFFFFFF AND PUSH1 0xE0 SHL DUP2 MSTORE PUSH1 0x4 ADD DUP1 DUP3 PUSH1 0x1 PUSH1 0x1 PUSH1 0xA0 SHL SUB AND PUSH1 0x1 PUSH1 0x1 PUSH1 0xA0 SHL SUB AND DUP2 MSTORE PUSH1 0x20 ADD SWAP2 POP POP PUSH1 0x20 PUSH1 0x40 MLOAD DUP1 DUP4 SUB DUP2 DUP7 DUP1 PUSH2 0x337C PUSH2 0x3DC2 JUMP JUMPDEST ISZERO DUP1 ISZERO PUSH2 0x3388 JUMPI PUSH1 0x0 DUP1 REVERT JUMPDEST POP GAS PUSH2 0x3392 PUSH2 0x3DF4 JUMP JUMPDEST POP POP POP POP POP ISZERO DUP1 ISZERO PUSH2 0x33A8 JUMPI RETURNDATASIZE PUSH1 0x0 DUP1 RETURNDATACOPY RETURNDATASIZE PUSH1 0x0 REVERT JUMPDEST POP POP POP POP PUSH1 0x40 MLOAD RETURNDATASIZE PUSH1 0x20 DUP2 LT ISZERO PUSH2 0x33BE JUMPI PUSH1 0x0 DUP1 REVERT JUMPDEST POP MLOAD SWAP1 POP DUP1 ISZERO PUSH2 0x3469 JUMPI DUP2 PUSH1 0x1 PUSH1 0x1 PUSH1 0xA0 SHL SUB AND PUSH4 0xA9059CBB DUP6 DUP4 PUSH1 0x40 MLOAD DUP4 PUSH4 0xFFFFFFFF AND PUSH1 0xE0 SHL DUP2 MSTORE PUSH1 0x4 ADD DUP1 DUP4 PUSH1 0x1 PUSH1 0x1 PUSH1 0xA0 SHL SUB AND PUSH1 0x1 PUSH1 0x1 PUSH1 0xA0 SHL SUB AND DUP2 MSTORE PUSH1 0x20 ADD DUP3 DUP2 MSTORE PUSH1 0x20 ADD SWAP3 POP POP POP PUSH1 0x20 PUSH1 0x40 MLOAD DUP1 DUP4 SUB DUP2 PUSH1 0x0 DUP8 DUP1 PUSH2 0x3423 PUSH2 0x3DC2 JUMP JUMPDEST ISZERO DUP1 ISZERO PUSH2 0x342F JUMPI PUSH1 0x0 DUP1 REVERT JUMPDEST POP GAS PUSH2 0x3439 PUSH2 0x3E4C JUMP JUMPDEST POP POP POP POP POP POP ISZERO DUP1 ISZERO PUSH2 0x3450 JUMPI RETURNDATASIZE PUSH1 0x0 DUP1 RETURNDATACOPY RETURNDATASIZE PUSH1 0x0 REVERT JUMPDEST POP POP POP POP PUSH1 0x40 MLOAD RETURNDATASIZE PUSH1 0x20 DUP2 LT ISZERO PUSH2 0x3466 JUMPI PUSH1 0x0 DUP1 REVERT JUMPDEST POP POP JUMPDEST PUSH1 0x0 PUSH1 0x5 PUSH2 0x3475 PUSH2 0x3D2B JUMP JUMPDEST SWAP1 PUSH2 0x100 EXP SWAP1 DIV PUSH1 0x1 PUSH1 0x1 PUSH1 0xA0 SHL SUB AND PUSH1 0x1 PUSH1 0x1 PUSH1 0xA0 SHL SUB AND PUSH4 0xC8DB233E DUP6 PUSH1 0x40 MLOAD DUP3 PUSH4 0xFFFFFFFF AND PUSH1 0xE0 SHL DUP2 MSTORE PUSH1 0x4 ADD DUP1 DUP3 PUSH1 0x1 PUSH1 0x1 PUSH1 0xA0 SHL SUB AND PUSH1 0x1 PUSH1 0x1 PUSH1 0xA0 SHL SUB AND DUP2 MSTORE PUSH1 0x20 ADD SWAP2 POP POP PUSH1 0x0 PUSH1 0x40 MLOAD DUP1 DUP4 SUB DUP2 PUSH1 0x0 DUP8 DUP1 PUSH2 0x34D7 PUSH2 0x3DC2 JUMP JUMPDEST ISZERO DUP1 ISZERO PUSH2 0x34E3 JUMPI PUSH1 0x0 DUP1 REVERT JUMPDEST POP GAS PUSH2 0x34ED PUSH2 0x3E4C JUMP JUMPDEST POP POP POP POP POP POP ISZERO DUP1 ISZERO PUSH2 0x3504 JUMPI RETURNDATASIZE PUSH1 0x0 DUP1 RETURNDATACOPY RETURNDATASIZE PUSH1 0x0 REVERT JUMPDEST POP POP POP POP PUSH1 0x5 PUSH1 0x1 ADD PUSH1 0x0 SWAP1 PUSH2 0x3518 PUSH2 0x3D2B JUMP JUMPDEST SWAP1 PUSH2 0x100 EXP SWAP1 DIV PUSH1 0x1 PUSH1 0x1 PUSH1 0xA0 SHL SUB AND PUSH1 0x1 PUSH1 0x1 PUSH1 0xA0 SHL SUB AND PUSH4 0xC8DB233E DUP6 PUSH1 0x40 MLOAD DUP3 PUSH4 0xFFFFFFFF AND PUSH1 0xE0 SHL DUP2 MSTORE PUSH1 0x4 ADD DUP1 DUP3 PUSH1 0x1 PUSH1 0x1 PUSH1 0xA0 SHL SUB AND PUSH1 0x1 PUSH1 0x1 PUSH1 0xA0 SHL SUB AND DUP2 MSTORE PUSH1 0x20 ADD SWAP2 POP POP PUSH1 0x0 PUSH1 0x40 MLOAD DUP1 DUP4 SUB DUP2 PUSH1 0x0 DUP8 DUP1 PUSH2 0x357A PUSH2 0x3DC2 JUMP JUMPDEST ISZERO DUP1 ISZERO PUSH2 0x3586 JUMPI PUSH1 0x0 DUP1 REVERT JUMPDEST POP GAS PUSH2 0x3590 PUSH2 0x3E4C JUMP JUMPDEST POP POP POP POP POP POP ISZERO DUP1 ISZERO PUSH2 0x35A7 JUMPI RETURNDATASIZE PUSH1 0x0 DUP1 RETURNDATACOPY RETURNDATASIZE PUSH1 0x0 REVERT JUMPDEST POP POP POP POP POP POP POP POP JUMP JUMPDEST PUSH1 0x0 DUP1 DUP1 PUSH1 0x5 PUSH2 0x35BF PUSH2 0x3D2B JUMP JUMPDEST SWAP1 PUSH2 0x100 EXP SWAP1 DIV PUSH1 0x1 PUSH1 0x1 PUSH1 0xA0 SHL SUB AND PUSH1 0x1 PUSH1 0x1 PUSH1 0xA0 SHL SUB AND PUSH4 0x70A08231 DUP5 PUSH1 0x40 MLOAD DUP3 PUSH4 0xFFFFFFFF AND PUSH1 0xE0 SHL DUP2 MSTORE PUSH1 0x4 ADD DUP1 DUP3 PUSH1 0x1 PUSH1 0x1 PUSH1 0xA0 SHL SUB AND PUSH1 0x1 PUSH1 0x1 PUSH1 0xA0 SHL SUB AND DUP2 MSTORE PUSH1 0x20 ADD SWAP2 POP POP PUSH1 0x20 PUSH1 0x40 MLOAD DUP1 DUP4 SUB DUP2 DUP7 DUP1 PUSH2 0x361F PUSH2 0x3DC2 JUMP JUMPDEST ISZERO DUP1 ISZERO PUSH2 0x362B JUMPI PUSH1 0x0 DUP1 REVERT JUMPDEST POP GAS PUSH2 0x3635 PUSH2 0x3DF4 JUMP JUMPDEST POP POP POP POP POP ISZERO DUP1 ISZERO PUSH2 0x364B JUMPI RETURNDATASIZE PUSH1 0x0 DUP1 RETURNDATACOPY RETURNDATASIZE PUSH1 0x0 REVERT JUMPDEST POP POP POP POP PUSH1 0x40 MLOAD RETURNDATASIZE PUSH1 0x20 DUP2 LT ISZERO PUSH2 0x3661 JUMPI PUSH1 0x0 DUP1 REVERT JUMPDEST POP MLOAD PUSH1 0x0 PUSH1 0x6 PUSH2 0x366F PUSH2 0x3D2B JUMP JUMPDEST SWAP1 PUSH2 0x100 EXP SWAP1 DIV PUSH1 0x1 PUSH1 0x1 PUSH1 0xA0 SHL SUB AND PUSH1 0x1 PUSH1 0x1 PUSH1 0xA0 SHL SUB AND PUSH4 0x70A08231 DUP6 PUSH1 0x40 MLOAD DUP3 PUSH4 0xFFFFFFFF AND PUSH1 0xE0 SHL DUP2 MSTORE PUSH1 0x4 ADD DUP1 DUP3 PUSH1 0x1 PUSH1 0x1 PUSH1 0xA0 SHL SUB AND PUSH1 0x1 PUSH1 0x1 PUSH1 0xA0 SHL SUB AND DUP2 MSTORE PUSH1 0x20 ADD SWAP2 POP POP PUSH1 0x20 PUSH1 0x40 MLOAD DUP1 DUP4 SUB DUP2 DUP7 DUP1 PUSH2 0x2CD9 PUSH2 0x3DC2 JUMP JUMPDEST PUSH1 0x0 DUP1 DUP1 PUSH2 0x36DB PUSH2 0x3D2B JUMP JUMPDEST SWAP1 PUSH2 0x100 EXP SWAP1 DIV PUSH1 0x1 PUSH1 0x1 PUSH1 0xA0 SHL SUB AND SWAP1 POP SWAP1 JUMP JUMPDEST PUSH1 0x0 DUP1 DUP5 PUSH1 0x1 DUP2 GT ISZERO PUSH2 0x36FF JUMPI INVALID JUMPDEST EQ ISZERO PUSH2 0x370C JUMPI POP DUP2 PUSH2 0x2A23 JUMP JUMPDEST POP SWAP3 SWAP2 POP POP JUMP JUMPDEST PUSH1 0x0 PUSH1 0x14 PUSH1 0x15 PUSH2 0x3721 PUSH2 0x3D2B JUMP JUMPDEST SWAP1 PUSH2 0x100 EXP SWAP1 DIV PUSH1 0xFF AND DUP1 ISZERO PUSH2 0x7BD JUMPI POP GAS PUSH2 0x373B PUSH2 0x3EFC JUMP JUMPDEST PUSH1 0xB PUSH2 0x3745 PUSH2 0x3D2B JUMP JUMPDEST LT DUP1 PUSH2 0x7BD JUMPI POP PUSH1 0x14 PUSH2 0x3756 PUSH2 0x3D2B JUMP JUMPDEST ISZERO SWAP1 POP SWAP1 JUMP JUMPDEST PUSH1 0x0 DUP3 DUP3 GT ISZERO PUSH2 0x37B3 JUMPI PUSH1 0x40 DUP1 MLOAD PUSH3 0x461BCD PUSH1 0xE5 SHL DUP2 MSTORE PUSH1 0x20 PUSH1 0x4 DUP3 ADD MSTORE PUSH1 0x1E PUSH1 0x24 DUP3 ADD MSTORE PUSH32 0x536166654D6174683A207375627472616374696F6E206F766572666C6F770000 PUSH1 0x44 DUP3 ADD MSTORE SWAP1 MLOAD SWAP1 DUP2 SWAP1 SUB PUSH1 0x64 ADD SWAP1 REVERT JUMPDEST POP SWAP1 SUB SWAP1 JUMP JUMPDEST PUSH1 0x0 PUSH2 0x37CB DUP4 DUP4 PUSH4 0xFFFFFFFF PUSH2 0x2A2A AND JUMP JUMPDEST SWAP1 POP DUP1 PUSH1 0x12 PUSH2 0x37D8 PUSH2 0x3D2B JUMP JUMPDEST GT ISZERO PUSH2 0x3822 JUMPI PUSH1 0x40 DUP1 MLOAD PUSH3 0x461BCD PUSH1 0xE5 SHL DUP2 MSTORE PUSH1 0x20 PUSH1 0x4 DUP3 ADD MSTORE PUSH1 0x14 PUSH1 0x24 DUP3 ADD MSTORE PUSH20 0x125B9CDD59999A58DA595B9D0818D85C1A5D185B PUSH1 0x62 SHL PUSH1 0x44 DUP3 ADD MSTORE SWAP1 MLOAD SWAP1 DUP2 SWAP1 SUB PUSH1 0x64 ADD SWAP1 REVERT JUMPDEST PUSH1 0x0 PUSH1 0x13 PUSH2 0x382E PUSH2 0x3D2B JUMP JUMPDEST SWAP1 POP PUSH2 0x3840 DUP5 DUP4 PUSH4 0xFFFFFFFF PUSH2 0x3C18 AND JUMP JUMPDEST DUP2 GT ISZERO DUP1 ISZERO PUSH2 0x385E JUMPI POP PUSH2 0x385A DUP4 DUP4 PUSH4 0xFFFFFFFF PUSH2 0x3C18 AND JUMP JUMPDEST DUP2 GT ISZERO JUMPDEST PUSH2 0x38A1 JUMPI PUSH1 0x40 DUP1 MLOAD PUSH3 0x461BCD PUSH1 0xE5 SHL DUP2 MSTORE PUSH1 0x20 PUSH1 0x4 DUP3 ADD MSTORE PUSH1 0xF PUSH1 0x24 DUP3 ADD MSTORE PUSH15 0x109A591CC81D1BDBC81CDAD95DD959 PUSH1 0x8A SHL PUSH1 0x44 DUP3 ADD MSTORE SWAP1 MLOAD SWAP1 DUP2 SWAP1 SUB PUSH1 0x64 ADD SWAP1 REVERT JUMPDEST POP POP POP POP JUMP JUMPDEST PUSH1 0x0 DUP1 DUP3 PUSH1 0x1 DUP2 GT ISZERO PUSH2 0x38B6 JUMPI INVALID JUMPDEST EQ ISZERO PUSH2 0x38DF JUMPI PUSH1 0x0 PUSH1 0x5 PUSH2 0x38C8 PUSH2 0x3D2B JUMP JUMPDEST SWAP1 PUSH2 0x100 EXP SWAP1 DIV PUSH1 0x1 PUSH1 0x1 PUSH1 0xA0 SHL SUB AND SWAP1 POP PUSH2 0x13DA JUMP JUMPDEST PUSH1 0x0 PUSH1 0x6 PUSH2 0x38EB PUSH2 0x3D2B JUMP JUMPDEST SWAP1 PUSH2 0x100 EXP SWAP1 DIV PUSH1 0x1 PUSH1 0x1 PUSH1 0xA0 SHL SUB AND SWAP1 POP SWAP2 SWAP1 POP JUMP JUMPDEST PUSH1 0x0 DUP1 PUSH2 0x3910 DUP6 DUP6 DUP6 PUSH2 0x3A3F JUMP JUMPDEST PUSH1 0x40 DUP1 MLOAD DUP1 DUP3 ADD SWAP1 SWAP2 MSTORE DUP3 DUP2 MSTORE PUSH1 0x20 DUP2 ADD DUP3 SWAP1 MSTORE SWAP2 SWAP4 POP SWAP2 POP PUSH1 0x7 DUP4 DUP2 PUSH2 0x3935 PUSH2 0x3D89 JUMP JUMPDEST POP POP PUSH1 0x20 DUP3 ADD MLOAD DUP2 PUSH1 0x1 ADD PUSH2 0x3948 PUSH2 0x3D89 JUMP JUMPDEST POP POP PUSH1 0x40 DUP1 MLOAD DUP6 DUP2 MSTORE PUSH1 0x20 DUP2 ADD DUP6 SWAP1 MSTORE DUP2 MLOAD PUSH32 0x6546F60F34DF611FA42503098ACC39D5AB88BC73FEBE64B3CC14E5A92E3A66A7 SWAP5 POP SWAP1 DUP2 SWAP1 SUB SWAP1 SWAP2 ADD SWAP2 POP LOG1 POP POP POP POP POP JUMP JUMPDEST PUSH1 0x0 PUSH2 0x39AA DUP3 PUSH1 0x14 PUSH2 0x399E PUSH2 0x3D2B JUMP JUMPDEST SWAP1 PUSH4 0xFFFFFFFF PUSH2 0x2A2A AND JUMP JUMPDEST SWAP1 POP DUP1 DUP1 PUSH1 0x14 PUSH2 0x39B8 PUSH2 0x3D89 JUMP JUMPDEST POP POP POP PUSH2 0x39C3 PUSH2 0x36CF JUMP JUMPDEST PUSH1 0x1 PUSH1 0x1 PUSH1 0xA0 SHL SUB AND PUSH4 0xAEAB5849 DUP4 PUSH1 0x40 MLOAD DUP3 PUSH4 0xFFFFFFFF AND PUSH1 0xE0 SHL DUP2 MSTORE PUSH1 0x4 ADD DUP1 DUP3 DUP2 MSTORE PUSH1 0x20 ADD SWAP2 POP POP PUSH1 0x0 PUSH1 0x40 MLOAD DUP1 DUP4 SUB DUP2 PUSH1 0x0 DUP8 DUP1 PUSH2 0x2AED PUSH2 0x3DC2 JUMP JUMPDEST PUSH1 0x0 DUP2 DUP4 LT PUSH2 0x3A21 JUMPI PUSH2 0x3A1C DUP4 DUP4 PUSH4 0xFFFFFFFF PUSH2 0x375C AND JUMP JUMPDEST PUSH2 0x2A23 JUMP JUMPDEST POP PUSH1 0x0 SWAP3 SWAP2 POP POP JUMP JUMPDEST PUSH1 0x0 PUSH2 0x2A23 DUP4 DUP4 PUSH8 0xDE0B6B3A7640000 PUSH2 0x3C42 JUMP JUMPDEST PUSH1 0x0 DUP1 DUP5 ISZERO DUP1 ISZERO SWAP1 PUSH2 0x3A50 JUMPI POP DUP4 ISZERO ISZERO JUMPDEST PUSH2 0x3A98 JUMPI PUSH1 0x40 DUP1 MLOAD PUSH3 0x461BCD PUSH1 0xE5 SHL DUP2 MSTORE PUSH1 0x20 PUSH1 0x4 DUP3 ADD MSTORE PUSH1 0x14 PUSH1 0x24 DUP3 ADD MSTORE PUSH20 0x42696473206D757374206265206E6F6E7A65726F PUSH1 0x60 SHL PUSH1 0x44 DUP3 ADD MSTORE SWAP1 MLOAD SWAP1 DUP2 SWAP1 SUB PUSH1 0x64 ADD SWAP1 REVERT JUMPDEST PUSH1 0x0 PUSH2 0x3AA3 DUP5 PUSH2 0x2735 JUMP JUMPDEST SWAP1 POP PUSH2 0x3AB5 DUP7 DUP3 PUSH4 0xFFFFFFFF PUSH2 0x3A2A AND JUMP JUMPDEST PUSH2 0x3AC5 DUP7 DUP4 PUSH4 0xFFFFFFFF PUSH2 0x3A2A AND JUMP JUMPDEST SWAP3 POP SWAP3 POP POP SWAP4 POP SWAP4 SWAP2 POP POP JUMP JUMPDEST PUSH1 0x0 DUP3 DUP2 MSTORE PUSH1 0x3 PUSH1 0x20 MSTORE PUSH1 0x40 DUP2 KECCAK256 DUP2 SWAP1 DUP2 SWAP1 PUSH2 0x3AEC PUSH2 0x3D2B JUMP JUMPDEST PUSH1 0x1 PUSH1 0x1 PUSH1 0xA0 SHL SUB PUSH2 0x100 SWAP3 SWAP1 SWAP3 EXP SWAP1 DIV AND SWAP1 POP DUP3 DUP2 PUSH2 0x3B8A JUMPI PUSH1 0x40 MLOAD PUSH3 0x461BCD PUSH1 0xE5 SHL DUP2 MSTORE PUSH1 0x4 ADD DUP1 DUP1 PUSH1 0x20 ADD DUP3 DUP2 SUB DUP3 MSTORE DUP4 DUP2 DUP2 MLOAD DUP2 MSTORE PUSH1 0x20 ADD SWAP2 POP DUP1 MLOAD SWAP1 PUSH1 0x20 ADD SWAP1 DUP1 DUP4 DUP4 PUSH1 0x0 JUMPDEST DUP4 DUP2 LT ISZERO PUSH2 0x3B4F JUMPI DUP2 DUP2 ADD MLOAD DUP4 DUP3 ADD MSTORE PUSH1 0x20 ADD PUSH2 0x3B37 JUMP JUMPDEST POP POP POP POP SWAP1 POP SWAP1 DUP2 ADD SWAP1 PUSH1 0x1F AND DUP1 ISZERO PUSH2 0x3B7C JUMPI DUP1 DUP3 SUB DUP1 MLOAD PUSH1 0x1 DUP4 PUSH1 0x20 SUB PUSH2 0x100 EXP SUB NOT AND DUP2 MSTORE PUSH1 0x20 ADD SWAP2 POP JUMPDEST POP SWAP3 POP POP POP PUSH1 0x40 MLOAD DUP1 SWAP2 SUB SWAP1 REVERT JUMPDEST POP SWAP4 SWAP3 POP POP POP JUMP JUMPDEST PUSH1 0x0 PUSH2 0x7BD PUSH13 0x45786368616E67655261746573 PUSH1 0x98 SHL PUSH1 0x40 MLOAD DUP1 PUSH1 0x40 ADD PUSH1 0x40 MSTORE DUP1 PUSH1 0x15 DUP2 MSTORE PUSH1 0x20 ADD PUSH21 0x4D697373696E672045786368616E67655261746573 PUSH1 0x58 SHL DUP2 MSTORE POP PUSH2 0x3AD2 JUMP JUMPDEST PUSH1 0x0 DUP1 PUSH1 0xA DUP4 DIV PUSH2 0x3BF2 DUP7 DUP7 PUSH4 0xFFFFFFFF PUSH2 0x3C68 AND JUMP JUMPDEST DUP2 PUSH2 0x3BF9 JUMPI INVALID JUMPDEST DIV SWAP1 POP PUSH1 0x5 PUSH1 0xA DUP3 JUMPDEST MOD LT PUSH2 0x3C0C JUMPI PUSH1 0xA ADD JUMPDEST PUSH1 0xA SWAP1 DIV SWAP5 SWAP4 POP POP POP POP JUMP JUMPDEST PUSH1 0x0 PUSH2 0x2A23 DUP3 PUSH2 0x3C36 DUP6 PUSH8 0xDE0B6B3A7640000 PUSH4 0xFFFFFFFF PUSH2 0x3C68 AND JUMP JUMPDEST SWAP1 PUSH4 0xFFFFFFFF PUSH2 0x3CC1 AND JUMP JUMPDEST PUSH1 0x0 DUP1 PUSH2 0x3C5C DUP5 PUSH2 0x3C36 DUP8 PUSH1 0xA DUP8 MUL PUSH4 0xFFFFFFFF PUSH2 0x3C68 AND JUMP JUMPDEST SWAP1 POP PUSH1 0x5 PUSH1 0xA DUP3 PUSH2 0x3C02 JUMP JUMPDEST PUSH1 0x0 DUP3 PUSH2 0x3C77 JUMPI POP PUSH1 0x0 PUSH2 0x1E79 JUMP JUMPDEST DUP3 DUP3 MUL DUP3 DUP5 DUP3 DUP2 PUSH2 0x3C84 JUMPI INVALID JUMPDEST DIV EQ PUSH2 0x2A23 JUMPI PUSH1 0x40 MLOAD PUSH3 0x461BCD PUSH1 0xE5 SHL DUP2 MSTORE PUSH1 0x4 ADD DUP1 DUP1 PUSH1 0x20 ADD DUP3 DUP2 SUB DUP3 MSTORE PUSH1 0x21 DUP2 MSTORE PUSH1 0x20 ADD DUP1 PUSH2 0x3F86 PUSH1 0x21 SWAP2 CODECOPY PUSH1 0x40 ADD SWAP2 POP POP PUSH1 0x40 MLOAD DUP1 SWAP2 SUB SWAP1 REVERT JUMPDEST PUSH1 0x0 DUP1 DUP3 GT PUSH2 0x3D17 JUMPI PUSH1 0x40 DUP1 MLOAD PUSH3 0x461BCD PUSH1 0xE5 SHL DUP2 MSTORE PUSH1 0x20 PUSH1 0x4 DUP3 ADD MSTORE PUSH1 0x1A PUSH1 0x24 DUP3 ADD MSTORE PUSH32 0x536166654D6174683A206469766973696F6E206279207A65726F000000000000 PUSH1 0x44 DUP3 ADD MSTORE SWAP1 MLOAD SWAP1 DUP2 SWAP1 SUB PUSH1 0x64 ADD SWAP1 REVERT JUMPDEST PUSH1 0x0 DUP3 DUP5 DUP2 PUSH2 0x3D22 JUMPI INVALID JUMPDEST DIV SWAP5 SWAP4 POP POP POP POP JUMP JUMPDEST PUSH4 0x412CC41 PUSH1 0xE3 SHL PUSH3 0x80000 SWAP1 DUP2 MSTORE PUSH3 0x80004 DUP4 SWAP1 MSTORE PUSH4 0x20966208 SWAP1 PUSH1 0x20 DUP2 PUSH1 0x24 DUP2 CALLER PUSH1 0x0 SWAP1 GAS CALL DUP1 PUSH2 0x3D5D JUMPI PUSH1 0x0 DUP1 REVERT JUMPDEST POP MLOAD SWAP3 POP POP JUMP JUMPDEST PUSH4 0x73509064 PUSH3 0x80000 DUP2 PUSH1 0xE0 SHL DUP2 MSTORE PUSH1 0x20 DUP2 PUSH1 0x4 DUP4 CALLER PUSH1 0x0 SWAP1 GAS CALL DUP1 PUSH2 0x3D5D JUMPI PUSH1 0x0 DUP1 REVERT JUMPDEST PUSH4 0x146E595 PUSH1 0xE5 SHL PUSH3 0x80000 SWAP1 DUP2 MSTORE PUSH3 0x80004 DUP4 SWAP1 MSTORE PUSH3 0x80024 DUP5 SWAP1 MSTORE PUSH4 0x28DCB2A0 SWAP1 PUSH1 0x0 DUP2 PUSH1 0x44 DUP2 CALLER PUSH1 0x0 SWAP1 GAS CALL DUP1 PUSH2 0x1565 JUMPI PUSH1 0x0 DUP1 REVERT JUMPDEST PUSH4 0xC3382D0F PUSH1 0xE0 SHL PUSH3 0x80000 SWAP1 DUP2 MSTORE PUSH3 0x80004 DUP4 SWAP1 MSTORE PUSH4 0xC3382D0F SWAP1 PUSH1 0x20 DUP2 PUSH1 0x24 DUP2 CALLER PUSH1 0x0 SWAP1 GAS CALL DUP1 PUSH2 0x3D5D JUMPI PUSH1 0x0 DUP1 REVERT JUMPDEST PUSH4 0xFBB0F79D PUSH1 0xE0 SHL PUSH3 0x80000 SWAP1 DUP2 MSTORE PUSH3 0x80004 DUP5 SWAP1 MSTORE PUSH4 0xFBB0F79D SWAP1 PUSH1 0x0 JUMPDEST DUP8 DUP2 LT ISZERO PUSH2 0x3E2E JUMPI DUP7 DUP2 ADD MLOAD DUP3 DUP3 ADD PUSH1 0x24 ADD MSTORE PUSH1 0x20 ADD PUSH2 0x3E13 JUMP JUMPDEST POP DUP9 DUP9 DUP9 PUSH1 0x24 ADD DUP4 CALLER PUSH1 0x0 SWAP1 GAS CALL DUP1 PUSH2 0x3E46 JUMPI PUSH1 0x0 DUP1 REVERT JUMPDEST SWAP9 POP POP POP JUMP JUMPDEST PUSH4 0x131B5F21 PUSH1 0xE2 SHL PUSH3 0x80000 SWAP1 DUP2 MSTORE PUSH3 0x80004 DUP5 SWAP1 MSTORE PUSH4 0x4C6D7C84 SWAP1 PUSH1 0x0 JUMPDEST DUP9 DUP2 LT ISZERO PUSH2 0x3E86 JUMPI DUP8 DUP2 ADD MLOAD DUP3 DUP3 ADD PUSH1 0x24 ADD MSTORE PUSH1 0x20 ADD PUSH2 0x3E6B JUMP JUMPDEST POP DUP10 DUP10 DUP10 PUSH1 0x24 ADD DUP4 CALLER PUSH1 0x0 SWAP1 GAS CALL DUP1 PUSH2 0x3E9E JUMPI PUSH1 0x0 DUP1 REVERT JUMPDEST SWAP10 POP POP POP JUMP JUMPDEST PUSH1 0x40 MLOAD DUP1 PUSH2 0x300 ADD PUSH1 0x40 MSTORE DUP1 PUSH1 0x18 SWAP1 PUSH1 0x20 DUP3 MUL DUP1 CODESIZE DUP4 CODECOPY POP SWAP2 SWAP3 SWAP2 POP POP JUMP JUMPDEST PUSH4 0x45E97DDB PUSH1 0xE0 SHL PUSH3 0x80000 SWAP1 DUP2 MSTORE PUSH3 0x80004 DUP5 SWAP1 MSTORE PUSH4 0x45E97DDB SWAP1 PUSH1 0x0 DUP8 ISZERO PUSH2 0x3E2E JUMPI DUP7 DUP2 ADD MLOAD DUP3 DUP3 ADD PUSH1 0x24 ADD MSTORE PUSH1 0x20 ADD PUSH2 0x3E13 JUMP JUMPDEST INVALID JUMPDEST PUSH4 0xBDBF8C36 PUSH3 0x80000 DUP2 PUSH1 0xE0 SHL DUP2 MSTORE PUSH1 0x20 DUP2 PUSH1 0x4 DUP4 CALLER PUSH1 0x0 SWAP1 GAS CALL DUP1 PUSH2 0x3D5D JUMPI PUSH1 0x0 DUP1 REVERT INVALID MSIZE PUSH16 0x75206D757374206265206E6F6D696E61 PUSH21 0x6564206265666F726520796F752063616E20616363 PUSH6 0x7074206F776E PUSH6 0x72736869704F PUSH15 0x6C792074686520636F6E7472616374 KECCAK256 PUSH16 0x776E6572206D617920706572666F726D KECCAK256 PUSH21 0x68697320616374696F6E536166654D6174683A206D PUSH22 0x6C7469706C69636174696F6E206F766572666C6F7754 PUSH9 0x697320616374696F6E KECCAK256 PUSH4 0x616E6E6F PUSH21 0x20626520706572666F726D6564207768696C652074 PUSH9 0x6520636F6E74726163 PUSH21 0x20697320706175736564A265627A7A72315820DFD9 0xE1 0xEE BYTE 0x4D 0xEA 0xBC 0xE0 CALLDATASIZE SWAP8 0xDB CALLDATASIZE TIMESTAMP 0xD6 0xF6 0xA9 GASLIMIT PUSH20 0xBD327D57F3CBA0C013A7EEDB064736F6C637828 ADDRESS 0x2E CALLDATALOAD 0x2E BALANCE CALLDATASIZE 0x2D PUSH5 0x6576656C6F PUSH17 0x2E323032302E382E31332B636F6D6D6974 0x2E CALLDATASIZE PUSH3 0x653039 ADDRESS ORIGIN PUSH7 0x586080604052 CALLVALUE DUP1 ISZERO PUSH3 0x11 JUMPI PUSH1 0x0 DUP1 REVERT JUMPDEST POP PUSH1 0x40 MLOAD PUSH3 0x1663 CODESIZE SUB DUP1 PUSH3 0x1663 DUP4 CODECOPY DUP2 DUP2 ADD PUSH1 0x40 MSTORE PUSH1 0x40 DUP2 LT ISZERO PUSH3 0x37 JUMPI PUSH1 0x0 DUP1 REVERT JUMPDEST POP DUP1 MLOAD PUSH1 0x20 SWAP1 SWAP2 ADD MLOAD GAS PUSH3 0x4B PUSH3 0xC4 JUMP JUMPDEST PUSH1 0x0 PUSH1 0x1 DUP2 PUSH3 0x5A PUSH3 0xF1 JUMP JUMPDEST DUP2 PUSH1 0x1 PUSH1 0x1 PUSH1 0xA0 SHL SUB MUL NOT AND SWAP1 DUP4 PUSH1 0x1 PUSH1 0x1 PUSH1 0xA0 SHL SUB AND MUL OR SWAP1 PUSH3 0x7E PUSH3 0x124 JUMP JUMPDEST POP POP POP PUSH1 0x1 PUSH1 0x1 PUSH1 0xA0 SHL SUB DUP3 AND PUSH1 0x0 SWAP1 DUP2 MSTORE PUSH1 0x1 PUSH1 0x20 MSTORE PUSH1 0x40 SWAP1 KECCAK256 DUP2 SWAP1 DUP2 SWAP1 PUSH3 0xA7 PUSH3 0x124 JUMP JUMPDEST POP POP POP DUP1 PUSH1 0x2 DUP2 SWAP1 PUSH3 0xB9 PUSH3 0x124 JUMP JUMPDEST POP POP POP POP POP PUSH3 0x163 JUMP JUMPDEST PUSH4 0x73509064 PUSH3 0x80000 DUP2 PUSH1 0xE0 SHL DUP2 MSTORE PUSH1 0x20 DUP2 PUSH1 0x4 DUP4 CALLER PUSH1 0x0 SWAP1 GAS CALL DUP1 PUSH3 0xEA JUMPI PUSH1 0x0 DUP1 REVERT JUMPDEST POP MLOAD SWAP3 POP POP JUMP JUMPDEST PUSH4 0x412CC41 PUSH1 0xE3 SHL PUSH3 0x80000 SWAP1 DUP2 MSTORE PUSH3 0x80004 DUP4 SWAP1 MSTORE PUSH4 0x20966208 SWAP1 PUSH1 0x20 DUP2 PUSH1 0x24 DUP2 CALLER PUSH1 0x0 SWAP1 GAS CALL DUP1 PUSH3 0xEA JUMPI PUSH1 0x0 DUP1 REVERT JUMPDEST PUSH4 0x146E595 PUSH1 0xE5 SHL PUSH3 0x80000 SWAP1 DUP2 MSTORE PUSH3 0x80004 DUP4 SWAP1 MSTORE PUSH3 0x80024 DUP5 SWAP1 MSTORE PUSH4 0x28DCB2A0 SWAP1 PUSH1 0x0 DUP2 PUSH1 0x44 DUP2 CALLER PUSH1 0x0 SWAP1 GAS CALL DUP1 PUSH3 0x15E JUMPI PUSH1 0x0 DUP1 REVERT JUMPDEST POP POP POP JUMP JUMPDEST PUSH2 0x14F0 DUP1 PUSH3 0x173 PUSH1 0x0 CODECOPY PUSH1 0x0 RETURN INVALID PUSH1 0x80 PUSH1 0x40 MSTORE CALLVALUE DUP1 ISZERO PUSH2 0x10 JUMPI PUSH1 0x0 DUP1 REVERT JUMPDEST POP PUSH1 0x4 CALLDATASIZE LT PUSH2 0x121 JUMPI PUSH1 0x0 CALLDATALOAD PUSH1 0xE0 SHR DUP1 PUSH4 0x70A08231 GT PUSH2 0xAD JUMPI DUP1 PUSH4 0x9C3EE244 GT PUSH2 0x71 JUMPI DUP1 PUSH4 0x9C3EE244 EQ PUSH2 0x383 JUMPI DUP1 PUSH4 0xA9059CBB EQ PUSH2 0x3A9 JUMPI DUP1 PUSH4 0xC8DB233E EQ PUSH2 0x3D5 JUMPI DUP1 PUSH4 0xD6FF02E2 EQ PUSH2 0x3FB JUMPI DUP1 PUSH4 0xDD62ED3E EQ PUSH2 0x403 JUMPI PUSH2 0x121 JUMP JUMPDEST DUP1 PUSH4 0x70A08231 EQ PUSH2 0x303 JUMPI DUP1 PUSH4 0x80F55605 EQ PUSH2 0x329 JUMPI DUP1 PUSH4 0x8B034136 EQ PUSH2 0x34D JUMPI DUP1 PUSH4 0x8DC30B70 EQ PUSH2 0x355 JUMPI DUP1 PUSH4 0x95D89B41 EQ PUSH2 0x37B JUMPI PUSH2 0x121 JUMP JUMPDEST DUP1 PUSH4 0x23B872DD GT PUSH2 0xF4 JUMPI DUP1 PUSH4 0x23B872DD EQ PUSH2 0x225 JUMPI DUP1 PUSH4 0x2BC43FD9 EQ PUSH2 0x25B JUMPI DUP1 PUSH4 0x313CE567 EQ PUSH2 0x28D JUMPI DUP1 PUSH4 0x410085DF EQ PUSH2 0x2AB JUMPI DUP1 PUSH4 0x59D667A5 EQ PUSH2 0x2D7 JUMPI PUSH2 0x121 JUMP JUMPDEST DUP1 PUSH4 0x6FDDE03 EQ PUSH2 0x126 JUMPI DUP1 PUSH4 0x95EA7B3 EQ PUSH2 0x1A3 JUMPI DUP1 PUSH4 0x18160DDD EQ PUSH2 0x1E3 JUMPI DUP1 PUSH4 0x1B15982A EQ PUSH2 0x1FD JUMPI JUMPDEST PUSH1 0x0 DUP1 REVERT JUMPDEST PUSH2 0x12E PUSH2 0x431 JUMP JUMPDEST PUSH1 0x40 DUP1 MLOAD PUSH1 0x20 DUP1 DUP3 MSTORE DUP4 MLOAD DUP2 DUP4 ADD MSTORE DUP4 MLOAD SWAP2 SWAP3 DUP4 SWAP3 SWAP1 DUP4 ADD SWAP2 DUP6 ADD SWAP1 DUP1 DUP4 DUP4 PUSH1 0x0 JUMPDEST DUP4 DUP2 LT ISZERO PUSH2 0x168 JUMPI DUP2 DUP2 ADD MLOAD DUP4 DUP3 ADD MSTORE PUSH1 0x20 ADD PUSH2 0x150 JUMP JUMPDEST POP POP POP POP SWAP1 POP SWAP1 DUP2 ADD SWAP1 PUSH1 0x1F AND DUP1 ISZERO PUSH2 0x195 JUMPI DUP1 DUP3 SUB DUP1 MLOAD PUSH1 0x1 DUP4 PUSH1 0x20 SUB PUSH2 0x100 EXP SUB NOT AND DUP2 MSTORE PUSH1 0x20 ADD SWAP2 POP JUMPDEST POP SWAP3 POP POP POP PUSH1 0x40 MLOAD DUP1 SWAP2 SUB SWAP1 RETURN JUMPDEST PUSH2 0x1CF PUSH1 0x4 DUP1 CALLDATASIZE SUB PUSH1 0x40 DUP2 LT ISZERO PUSH2 0x1B9 JUMPI PUSH1 0x0 DUP1 REVERT JUMPDEST POP PUSH1 0x1 PUSH1 0x1 PUSH1 0xA0 SHL SUB DUP2 CALLDATALOAD AND SWAP1 PUSH1 0x20 ADD CALLDATALOAD PUSH2 0x45E JUMP JUMPDEST PUSH1 0x40 DUP1 MLOAD SWAP2 ISZERO ISZERO DUP3 MSTORE MLOAD SWAP1 DUP2 SWAP1 SUB PUSH1 0x20 ADD SWAP1 RETURN JUMPDEST PUSH2 0x1EB PUSH2 0x514 JUMP JUMPDEST PUSH1 0x40 DUP1 MLOAD SWAP2 DUP3 MSTORE MLOAD SWAP1 DUP2 SWAP1 SUB PUSH1 0x20 ADD SWAP1 RETURN JUMPDEST PUSH2 0x223 PUSH1 0x4 DUP1 CALLDATASIZE SUB PUSH1 0x20 DUP2 LT ISZERO PUSH2 0x213 JUMPI PUSH1 0x0 DUP1 REVERT JUMPDEST POP CALLDATALOAD PUSH1 0x1 PUSH1 0x1 PUSH1 0xA0 SHL SUB AND PUSH2 0x521 JUMP JUMPDEST STOP JUMPDEST PUSH2 0x1CF PUSH1 0x4 DUP1 CALLDATASIZE SUB PUSH1 0x60 DUP2 LT ISZERO PUSH2 0x23B JUMPI PUSH1 0x0 DUP1 REVERT JUMPDEST POP PUSH1 0x1 PUSH1 0x1 PUSH1 0xA0 SHL SUB DUP2 CALLDATALOAD DUP2 AND SWAP2 PUSH1 0x20 DUP2 ADD CALLDATALOAD SWAP1 SWAP2 AND SWAP1 PUSH1 0x40 ADD CALLDATALOAD PUSH2 0x69F JUMP JUMPDEST PUSH2 0x1EB PUSH1 0x4 DUP1 CALLDATASIZE SUB PUSH1 0x60 DUP2 LT ISZERO PUSH2 0x271 JUMPI PUSH1 0x0 DUP1 REVERT JUMPDEST POP PUSH1 0x1 PUSH1 0x1 PUSH1 0xA0 SHL SUB DUP2 CALLDATALOAD AND SWAP1 PUSH1 0x20 DUP2 ADD CALLDATALOAD SWAP1 PUSH1 0x40 ADD CALLDATALOAD PUSH2 0x7B0 JUMP JUMPDEST PUSH2 0x295 PUSH2 0x9AE JUMP JUMPDEST PUSH1 0x40 DUP1 MLOAD PUSH1 0xFF SWAP1 SWAP3 AND DUP3 MSTORE MLOAD SWAP1 DUP2 SWAP1 SUB PUSH1 0x20 ADD SWAP1 RETURN JUMPDEST PUSH2 0x223 PUSH1 0x4 DUP1 CALLDATASIZE SUB PUSH1 0x40 DUP2 LT ISZERO PUSH2 0x2C1 JUMPI PUSH1 0x0 DUP1 REVERT JUMPDEST POP PUSH1 0x1 PUSH1 0x1 PUSH1 0xA0 SHL SUB DUP2 CALLDATALOAD AND SWAP1 PUSH1 0x20 ADD CALLDATALOAD PUSH2 0x9B3 JUMP JUMPDEST PUSH2 0x223 PUSH1 0x4 DUP1 CALLDATASIZE SUB PUSH1 0x40 DUP2 LT ISZERO PUSH2 0x2ED JUMPI PUSH1 0x0 DUP1 REVERT JUMPDEST POP PUSH1 0x1 PUSH1 0x1 PUSH1 0xA0 SHL SUB DUP2 CALLDATALOAD AND SWAP1 PUSH1 0x20 ADD CALLDATALOAD PUSH2 0xAA5 JUMP JUMPDEST PUSH2 0x1EB PUSH1 0x4 DUP1 CALLDATASIZE SUB PUSH1 0x20 DUP2 LT ISZERO PUSH2 0x319 JUMPI PUSH1 0x0 DUP1 REVERT JUMPDEST POP CALLDATALOAD PUSH1 0x1 PUSH1 0x1 PUSH1 0xA0 SHL SUB AND PUSH2 0xB80 JUMP JUMPDEST PUSH2 0x331 PUSH2 0xB96 JUMP JUMPDEST PUSH1 0x40 DUP1 MLOAD PUSH1 0x1 PUSH1 0x1 PUSH1 0xA0 SHL SUB SWAP1 SWAP3 AND DUP3 MSTORE MLOAD SWAP1 DUP2 SWAP1 SUB PUSH1 0x20 ADD SWAP1 RETURN JUMPDEST PUSH2 0x1EB PUSH2 0xBB4 JUMP JUMPDEST PUSH2 0x1EB PUSH1 0x4 DUP1 CALLDATASIZE SUB PUSH1 0x20 DUP2 LT ISZERO PUSH2 0x36B JUMPI PUSH1 0x0 DUP1 REVERT JUMPDEST POP CALLDATALOAD PUSH1 0x1 PUSH1 0x1 PUSH1 0xA0 SHL SUB AND PUSH2 0xBBE JUMP JUMPDEST PUSH2 0x12E PUSH2 0xBD4 JUMP JUMPDEST PUSH2 0x1EB PUSH1 0x4 DUP1 CALLDATASIZE SUB PUSH1 0x20 DUP2 LT ISZERO PUSH2 0x399 JUMPI PUSH1 0x0 DUP1 REVERT JUMPDEST POP CALLDATALOAD PUSH1 0x1 PUSH1 0x1 PUSH1 0xA0 SHL SUB AND PUSH2 0xBF4 JUMP JUMPDEST PUSH2 0x1CF PUSH1 0x4 DUP1 CALLDATASIZE SUB PUSH1 0x40 DUP2 LT ISZERO PUSH2 0x3BF JUMPI PUSH1 0x0 DUP1 REVERT JUMPDEST POP PUSH1 0x1 PUSH1 0x1 PUSH1 0xA0 SHL SUB DUP2 CALLDATALOAD AND SWAP1 PUSH1 0x20 ADD CALLDATALOAD PUSH2 0xCCB JUMP JUMPDEST PUSH2 0x223 PUSH1 0x4 DUP1 CALLDATASIZE SUB PUSH1 0x20 DUP2 LT ISZERO PUSH2 0x3EB JUMPI PUSH1 0x0 DUP1 REVERT JUMPDEST POP CALLDATALOAD PUSH1 0x1 PUSH1 0x1 PUSH1 0xA0 SHL SUB AND PUSH2 0xCE0 JUMP JUMPDEST PUSH2 0x1EB PUSH2 0xD5E JUMP JUMPDEST PUSH2 0x1EB PUSH1 0x4 DUP1 CALLDATASIZE SUB PUSH1 0x40 DUP2 LT ISZERO PUSH2 0x419 JUMPI PUSH1 0x0 DUP1 REVERT JUMPDEST POP PUSH1 0x1 PUSH1 0x1 PUSH1 0xA0 SHL SUB DUP2 CALLDATALOAD DUP2 AND SWAP2 PUSH1 0x20 ADD CALLDATALOAD AND PUSH2 0xE05 JUMP JUMPDEST PUSH1 0x40 MLOAD DUP1 PUSH1 0x40 ADD PUSH1 0x40 MSTORE DUP1 PUSH1 0x11 DUP2 MSTORE PUSH1 0x20 ADD PUSH17 0x29A72C102134B730B93C9027B83A34B7B7 PUSH1 0x79 SHL DUP2 MSTORE POP DUP2 JUMP JUMPDEST PUSH1 0x0 PUSH1 0x1 PUSH1 0x1 PUSH1 0xA0 SHL SUB DUP4 AND PUSH2 0x473 JUMPI PUSH1 0x0 DUP1 REVERT JUMPDEST DUP2 PUSH1 0x5 PUSH1 0x0 GAS PUSH2 0x481 PUSH2 0x134E JUMP JUMPDEST PUSH1 0x1 PUSH1 0x1 PUSH1 0xA0 SHL SUB SWAP1 DUP2 AND DUP3 MSTORE PUSH1 0x20 DUP1 DUP4 ADD SWAP4 SWAP1 SWAP4 MSTORE PUSH1 0x40 SWAP2 DUP3 ADD PUSH1 0x0 SWAP1 DUP2 KECCAK256 SWAP2 DUP9 AND DUP2 MSTORE SWAP3 MSTORE SWAP1 KECCAK256 DUP2 SWAP1 PUSH2 0x4B4 PUSH2 0x137A JUMP JUMPDEST POP POP POP DUP3 PUSH1 0x1 PUSH1 0x1 PUSH1 0xA0 SHL SUB AND GAS PUSH2 0x4CA PUSH2 0x134E JUMP JUMPDEST PUSH1 0x1 PUSH1 0x1 PUSH1 0xA0 SHL SUB AND PUSH32 0x8C5BE1E5EBEC7D5BD14F71427D1E84F3DD0314C0F7B2291E5B200AC8C7C3B925 DUP5 PUSH1 0x40 MLOAD DUP1 DUP3 DUP2 MSTORE PUSH1 0x20 ADD SWAP2 POP POP PUSH1 0x40 MLOAD DUP1 SWAP2 SUB SWAP1 LOG3 POP PUSH1 0x1 JUMPDEST SWAP3 SWAP2 POP POP JUMP JUMPDEST PUSH1 0x4 PUSH2 0x51E PUSH2 0x13B8 JUMP JUMPDEST DUP2 JUMP JUMPDEST PUSH1 0x0 DUP1 PUSH2 0x52C PUSH2 0x13B8 JUMP JUMPDEST SWAP1 PUSH2 0x100 EXP SWAP1 DIV PUSH1 0x1 PUSH1 0x1 PUSH1 0xA0 SHL SUB AND PUSH1 0x1 PUSH1 0x1 PUSH1 0xA0 SHL SUB AND GAS PUSH2 0x54E PUSH2 0x134E JUMP JUMPDEST PUSH1 0x1 PUSH1 0x1 PUSH1 0xA0 SHL SUB AND EQ PUSH2 0x59F JUMPI PUSH1 0x40 DUP1 MLOAD PUSH3 0x461BCD PUSH1 0xE5 SHL DUP2 MSTORE PUSH1 0x20 PUSH1 0x4 DUP3 ADD MSTORE PUSH1 0x13 PUSH1 0x24 DUP3 ADD MSTORE PUSH19 0x13DB9B1E481B585C9AD95D08185B1B1BDDD959 PUSH1 0x6A SHL PUSH1 0x44 DUP3 ADD MSTORE SWAP1 MLOAD SWAP1 DUP2 SWAP1 SUB PUSH1 0x64 ADD SWAP1 REVERT JUMPDEST PUSH1 0x1 PUSH1 0x1 PUSH1 0xA0 SHL SUB DUP2 AND PUSH1 0x0 SWAP1 DUP2 MSTORE PUSH1 0x3 PUSH1 0x20 MSTORE PUSH1 0x40 DUP2 KECCAK256 PUSH2 0x5BF PUSH2 0x13B8 JUMP JUMPDEST SWAP1 POP DUP1 PUSH2 0x5CC JUMPI POP PUSH2 0x69C JUMP JUMPDEST PUSH1 0x1 PUSH1 0x1 PUSH1 0xA0 SHL SUB DUP3 AND PUSH1 0x0 SWAP1 DUP2 MSTORE PUSH1 0x3 PUSH1 0x20 MSTORE PUSH1 0x40 DUP2 KECCAK256 DUP2 SWAP1 PUSH2 0x5EE PUSH2 0x137A JUMP JUMPDEST POP POP POP PUSH2 0x60B DUP2 PUSH1 0x4 PUSH2 0x5FF PUSH2 0x13B8 JUMP JUMPDEST SWAP1 PUSH4 0xFFFFFFFF PUSH2 0xE26 AND JUMP JUMPDEST DUP1 PUSH1 0x4 PUSH2 0x616 PUSH2 0x137A JUMP JUMPDEST POP POP PUSH1 0x40 DUP1 MLOAD DUP4 DUP2 MSTORE SWAP1 MLOAD PUSH1 0x0 SWAP3 POP PUSH1 0x1 PUSH1 0x1 PUSH1 0xA0 SHL SUB DUP6 AND SWAP2 PUSH32 0xDDF252AD1BE2C89B69C2B068FC378DAA952BA7F163C4A11628F55A4DF523B3EF SWAP2 SWAP1 DUP2 SWAP1 SUB PUSH1 0x20 ADD SWAP1 LOG3 PUSH1 0x40 DUP1 MLOAD DUP3 DUP2 MSTORE SWAP1 MLOAD PUSH1 0x1 PUSH1 0x1 PUSH1 0xA0 SHL SUB DUP5 AND SWAP2 PUSH32 0x696DE425F79F4A40BC6D2122CA50507F0EFBEABBFF86A84871B7196AB8EA8DF7 SWAP2 SWAP1 DUP2 SWAP1 SUB PUSH1 0x20 ADD SWAP1 LOG2 POP JUMPDEST POP JUMP JUMPDEST PUSH1 0x1 PUSH1 0x1 PUSH1 0xA0 SHL SUB DUP4 AND PUSH1 0x0 SWAP1 DUP2 MSTORE PUSH1 0x5 PUSH1 0x20 MSTORE PUSH1 0x40 DUP2 KECCAK256 DUP2 SWAP1 DUP2 GAS PUSH2 0x6C3 PUSH2 0x134E JUMP JUMPDEST PUSH1 0x1 PUSH1 0x1 PUSH1 0xA0 SHL SUB AND PUSH1 0x1 PUSH1 0x1 PUSH1 0xA0 SHL SUB AND DUP2 MSTORE PUSH1 0x20 ADD SWAP1 DUP2 MSTORE PUSH1 0x20 ADD PUSH1 0x0 KECCAK256 PUSH2 0x6EB PUSH2 0x13B8 JUMP JUMPDEST SWAP1 POP DUP1 DUP4 GT ISZERO PUSH2 0x73B JUMPI PUSH1 0x40 DUP1 MLOAD PUSH3 0x461BCD PUSH1 0xE5 SHL DUP2 MSTORE PUSH1 0x20 PUSH1 0x4 DUP3 ADD MSTORE PUSH1 0x16 PUSH1 0x24 DUP3 ADD MSTORE PUSH22 0x496E73756666696369656E7420616C6C6F77616E6365 PUSH1 0x50 SHL PUSH1 0x44 DUP3 ADD MSTORE SWAP1 MLOAD SWAP1 DUP2 SWAP1 SUB PUSH1 0x64 ADD SWAP1 REVERT JUMPDEST PUSH2 0x74B DUP2 DUP5 PUSH4 0xFFFFFFFF PUSH2 0xE26 AND JUMP JUMPDEST PUSH1 0x1 PUSH1 0x1 PUSH1 0xA0 SHL SUB DUP7 AND PUSH1 0x0 SWAP1 DUP2 MSTORE PUSH1 0x5 PUSH1 0x20 MSTORE PUSH1 0x40 DUP2 KECCAK256 SWAP1 GAS PUSH2 0x76D PUSH2 0x134E JUMP JUMPDEST PUSH1 0x1 PUSH1 0x1 PUSH1 0xA0 SHL SUB AND PUSH1 0x1 PUSH1 0x1 PUSH1 0xA0 SHL SUB AND DUP2 MSTORE PUSH1 0x20 ADD SWAP1 DUP2 MSTORE PUSH1 0x20 ADD PUSH1 0x0 KECCAK256 DUP2 SWAP1 PUSH2 0x797 PUSH2 0x137A JUMP JUMPDEST POP POP POP PUSH2 0x7A5 DUP6 DUP6 DUP6 PUSH2 0xE83 JUMP JUMPDEST SWAP2 POP POP JUMPDEST SWAP4 SWAP3 POP POP POP JUMP JUMPDEST PUSH1 0x0 DUP1 DUP1 PUSH2 0x7BC PUSH2 0x13B8 JUMP JUMPDEST SWAP1 PUSH2 0x100 EXP SWAP1 DIV PUSH1 0x1 PUSH1 0x1 PUSH1 0xA0 SHL SUB AND PUSH1 0x1 PUSH1 0x1 PUSH1 0xA0 SHL SUB AND GAS PUSH2 0x7DE PUSH2 0x134E JUMP JUMPDEST PUSH1 0x1 PUSH1 0x1 PUSH1 0xA0 SHL SUB AND EQ PUSH2 0x82F JUMPI PUSH1 0x40 DUP1 MLOAD PUSH3 0x461BCD PUSH1 0xE5 SHL DUP2 MSTORE PUSH1 0x20 PUSH1 0x4 DUP3 ADD MSTORE PUSH1 0x13 PUSH1 0x24 DUP3 ADD MSTORE PUSH19 0x13DB9B1E481B585C9AD95D08185B1B1BDDD959 PUSH1 0x6A SHL PUSH1 0x44 DUP3 ADD MSTORE SWAP1 MLOAD SWAP1 DUP2 SWAP1 SUB PUSH1 0x64 ADD SWAP1 REVERT JUMPDEST PUSH1 0x1 PUSH1 0x1 PUSH1 0xA0 SHL SUB DUP5 AND PUSH1 0x0 SWAP1 DUP2 MSTORE PUSH1 0x1 PUSH1 0x20 MSTORE PUSH1 0x40 DUP2 KECCAK256 PUSH2 0x84F PUSH2 0x13B8 JUMP JUMPDEST SWAP1 POP PUSH1 0x0 PUSH2 0x85E DUP3 DUP7 DUP7 PUSH2 0x10D7 JUMP JUMPDEST SWAP1 POP DUP1 PUSH2 0x870 JUMPI PUSH1 0x0 SWAP3 POP POP POP PUSH2 0x7A9 JUMP JUMPDEST PUSH2 0x87E DUP3 PUSH1 0x2 PUSH2 0x5FF PUSH2 0x13B8 JUMP JUMPDEST DUP1 PUSH1 0x2 PUSH2 0x889 PUSH2 0x137A JUMP JUMPDEST POP POP POP PUSH1 0x1 PUSH1 0x1 PUSH1 0xA0 SHL SUB DUP7 AND PUSH1 0x0 SWAP1 DUP2 MSTORE PUSH1 0x1 PUSH1 0x20 MSTORE PUSH1 0x40 DUP2 KECCAK256 DUP2 SWAP1 PUSH2 0x8AE PUSH2 0x137A JUMP JUMPDEST POP POP POP PUSH2 0x8CB DUP2 PUSH1 0x4 PUSH2 0x8BF PUSH2 0x13B8 JUMP JUMPDEST SWAP1 PUSH4 0xFFFFFFFF PUSH2 0x117A AND JUMP JUMPDEST DUP1 PUSH1 0x4 PUSH2 0x8D6 PUSH2 0x137A JUMP JUMPDEST POP POP POP PUSH1 0x1 PUSH1 0x1 PUSH1 0xA0 SHL SUB DUP7 AND PUSH1 0x0 SWAP1 DUP2 MSTORE PUSH1 0x3 PUSH1 0x20 MSTORE PUSH1 0x40 SWAP1 KECCAK256 PUSH2 0x8FF SWAP1 DUP3 SWAP1 PUSH2 0x8BF PUSH2 0x13B8 JUMP JUMPDEST PUSH1 0x1 PUSH1 0x1 PUSH1 0xA0 SHL SUB DUP8 AND PUSH1 0x0 SWAP1 DUP2 MSTORE PUSH1 0x3 PUSH1 0x20 MSTORE PUSH1 0x40 SWAP1 KECCAK256 DUP2 SWAP1 PUSH2 0x921 PUSH2 0x137A JUMP JUMPDEST POP POP PUSH1 0x40 DUP1 MLOAD DUP4 DUP2 MSTORE SWAP1 MLOAD PUSH1 0x1 PUSH1 0x1 PUSH1 0xA0 SHL SUB DUP10 AND SWAP3 POP PUSH1 0x0 SWAP2 PUSH32 0xDDF252AD1BE2C89B69C2B068FC378DAA952BA7F163C4A11628F55A4DF523B3EF SWAP2 SWAP1 DUP2 SWAP1 SUB PUSH1 0x20 ADD SWAP1 LOG3 PUSH1 0x40 DUP1 MLOAD DUP3 DUP2 MSTORE SWAP1 MLOAD PUSH1 0x1 PUSH1 0x1 PUSH1 0xA0 SHL SUB DUP9 AND SWAP2 PUSH32 0xA59F12E354E8CD10BB74C559844C2DD69A5458E31FE56C7594C62CA57480509A SWAP2 SWAP1 DUP2 SWAP1 SUB PUSH1 0x20 ADD SWAP1 LOG2 SWAP6 SWAP5 POP POP POP POP POP JUMP JUMPDEST PUSH1 0x12 DUP2 JUMP JUMPDEST PUSH1 0x0 DUP1 PUSH2 0x9BE PUSH2 0x13B8 JUMP JUMPDEST SWAP1 PUSH2 0x100 EXP SWAP1 DIV PUSH1 0x1 PUSH1 0x1 PUSH1 0xA0 SHL SUB AND PUSH1 0x1 PUSH1 0x1 PUSH1 0xA0 SHL SUB AND GAS PUSH2 0x9E0 PUSH2 0x134E JUMP JUMPDEST PUSH1 0x1 PUSH1 0x1 PUSH1 0xA0 SHL SUB AND EQ PUSH2 0xA31 JUMPI PUSH1 0x40 DUP1 MLOAD PUSH3 0x461BCD PUSH1 0xE5 SHL DUP2 MSTORE PUSH1 0x20 PUSH1 0x4 DUP3 ADD MSTORE PUSH1 0x13 PUSH1 0x24 DUP3 ADD MSTORE PUSH19 0x13DB9B1E481B585C9AD95D08185B1B1BDDD959 PUSH1 0x6A SHL PUSH1 0x44 DUP3 ADD MSTORE SWAP1 MLOAD SWAP1 DUP2 SWAP1 SUB PUSH1 0x64 ADD SWAP1 REVERT JUMPDEST PUSH1 0x1 PUSH1 0x1 PUSH1 0xA0 SHL SUB DUP3 AND PUSH1 0x0 SWAP1 DUP2 MSTORE PUSH1 0x1 PUSH1 0x20 MSTORE PUSH1 0x40 SWAP1 KECCAK256 PUSH2 0xA60 SWAP1 PUSH2 0xA5B SWAP1 DUP4 SWAP1 PUSH2 0x5FF PUSH2 0x13B8 JUMP JUMPDEST PUSH2 0x11D4 JUMP JUMPDEST PUSH1 0x1 PUSH1 0x1 PUSH1 0xA0 SHL SUB DUP4 AND PUSH1 0x0 SWAP1 DUP2 MSTORE PUSH1 0x1 PUSH1 0x20 MSTORE PUSH1 0x40 SWAP1 KECCAK256 DUP2 SWAP1 PUSH2 0xA82 PUSH2 0x137A JUMP JUMPDEST POP POP POP PUSH2 0xA93 DUP2 PUSH1 0x2 PUSH2 0x5FF PUSH2 0x13B8 JUMP JUMPDEST DUP1 PUSH1 0x2 PUSH2 0xA9E PUSH2 0x137A JUMP JUMPDEST POP POP POP POP POP JUMP JUMPDEST PUSH1 0x0 DUP1 PUSH2 0xAB0 PUSH2 0x13B8 JUMP JUMPDEST SWAP1 PUSH2 0x100 EXP SWAP1 DIV PUSH1 0x1 PUSH1 0x1 PUSH1 0xA0 SHL SUB AND PUSH1 0x1 PUSH1 0x1 PUSH1 0xA0 SHL SUB AND GAS PUSH2 0xAD2 PUSH2 0x134E JUMP JUMPDEST PUSH1 0x1 PUSH1 0x1 PUSH1 0xA0 SHL SUB AND EQ PUSH2 0xB23 JUMPI PUSH1 0x40 DUP1 MLOAD PUSH3 0x461BCD PUSH1 0xE5 SHL DUP2 MSTORE PUSH1 0x20 PUSH1 0x4 DUP3 ADD MSTORE PUSH1 0x13 PUSH1 0x24 DUP3 ADD MSTORE PUSH19 0x13DB9B1E481B585C9AD95D08185B1B1BDDD959 PUSH1 0x6A SHL PUSH1 0x44 DUP3 ADD MSTORE SWAP1 MLOAD SWAP1 DUP2 SWAP1 SUB PUSH1 0x64 ADD SWAP1 REVERT JUMPDEST PUSH1 0x1 PUSH1 0x1 PUSH1 0xA0 SHL SUB DUP3 AND PUSH1 0x0 SWAP1 DUP2 MSTORE PUSH1 0x1 PUSH1 0x20 MSTORE PUSH1 0x40 SWAP1 KECCAK256 PUSH2 0xB4D SWAP1 PUSH2 0xA5B SWAP1 DUP4 SWAP1 PUSH2 0x8BF PUSH2 0x13B8 JUMP JUMPDEST PUSH1 0x1 PUSH1 0x1 PUSH1 0xA0 SHL SUB DUP4 AND PUSH1 0x0 SWAP1 DUP2 MSTORE PUSH1 0x1 PUSH1 0x20 MSTORE PUSH1 0x40 SWAP1 KECCAK256 DUP2 SWAP1 PUSH2 0xB6F PUSH2 0x137A JUMP JUMPDEST POP POP POP PUSH2 0xA93 DUP2 PUSH1 0x2 PUSH2 0x8BF PUSH2 0x13B8 JUMP JUMPDEST PUSH1 0x3 PUSH1 0x20 MSTORE PUSH1 0x0 SWAP1 DUP2 MSTORE PUSH1 0x40 SWAP1 KECCAK256 PUSH2 0x51E PUSH2 0x13B8 JUMP JUMPDEST PUSH1 0x0 DUP1 PUSH2 0xBA1 PUSH2 0x13B8 JUMP JUMPDEST SWAP1 PUSH2 0x100 EXP SWAP1 DIV PUSH1 0x1 PUSH1 0x1 PUSH1 0xA0 SHL SUB AND DUP2 JUMP JUMPDEST PUSH1 0x2 PUSH2 0x51E PUSH2 0x13B8 JUMP JUMPDEST PUSH1 0x1 PUSH1 0x20 MSTORE PUSH1 0x0 SWAP1 DUP2 MSTORE PUSH1 0x40 SWAP1 KECCAK256 PUSH2 0x51E PUSH2 0x13B8 JUMP JUMPDEST PUSH1 0x40 MLOAD DUP1 PUSH1 0x40 ADD PUSH1 0x40 MSTORE DUP1 PUSH1 0x4 DUP2 MSTORE PUSH1 0x20 ADD PUSH4 0x1CD3D415 PUSH1 0xE2 SHL DUP2 MSTORE POP DUP2 JUMP JUMPDEST PUSH1 0x0 DUP1 DUP1 DUP1 DUP1 PUSH2 0xC02 PUSH2 0x13B8 JUMP JUMPDEST SWAP1 PUSH2 0x100 EXP SWAP1 DIV PUSH1 0x1 PUSH1 0x1 PUSH1 0xA0 SHL SUB AND PUSH1 0x1 PUSH1 0x1 PUSH1 0xA0 SHL SUB AND PUSH4 0xC588F526 PUSH1 0x40 MLOAD DUP2 PUSH4 0xFFFFFFFF AND PUSH1 0xE0 SHL DUP2 MSTORE PUSH1 0x4 ADD PUSH1 0x40 DUP1 MLOAD DUP1 DUP4 SUB DUP2 DUP7 DUP1 PUSH2 0xC44 PUSH2 0x13EA JUMP JUMPDEST ISZERO DUP1 ISZERO PUSH2 0xC50 JUMPI PUSH1 0x0 DUP1 REVERT JUMPDEST POP GAS PUSH2 0xC5A PUSH2 0x141C JUMP JUMPDEST POP POP POP POP POP ISZERO DUP1 ISZERO PUSH2 0xC70 JUMPI RETURNDATASIZE PUSH1 0x0 DUP1 RETURNDATACOPY RETURNDATASIZE PUSH1 0x0 REVERT JUMPDEST POP POP POP POP PUSH1 0x40 MLOAD RETURNDATASIZE PUSH1 0x40 DUP2 LT ISZERO PUSH2 0xC86 JUMPI PUSH1 0x0 DUP1 REVERT JUMPDEST POP DUP1 MLOAD PUSH1 0x20 SWAP2 DUP3 ADD MLOAD PUSH1 0x1 PUSH1 0x1 PUSH1 0xA0 SHL SUB DUP8 AND PUSH1 0x0 SWAP1 DUP2 MSTORE PUSH1 0x1 SWAP1 SWAP4 MSTORE PUSH1 0x40 SWAP1 SWAP3 KECCAK256 SWAP1 SWAP4 POP SWAP1 SWAP2 POP PUSH2 0xCC1 SWAP1 PUSH2 0xCBA PUSH2 0x13B8 JUMP JUMPDEST DUP4 DUP4 PUSH2 0x10D7 JUMP JUMPDEST SWAP3 POP POP POP JUMPDEST SWAP2 SWAP1 POP JUMP JUMPDEST PUSH1 0x0 PUSH2 0x7A9 GAS PUSH2 0xCD9 PUSH2 0x134E JUMP JUMPDEST DUP5 DUP5 PUSH2 0xE83 JUMP JUMPDEST PUSH1 0x0 DUP1 PUSH2 0xCEB PUSH2 0x13B8 JUMP JUMPDEST SWAP1 PUSH2 0x100 EXP SWAP1 DIV PUSH1 0x1 PUSH1 0x1 PUSH1 0xA0 SHL SUB AND PUSH1 0x1 PUSH1 0x1 PUSH1 0xA0 SHL SUB AND GAS PUSH2 0xD0D PUSH2 0x134E JUMP JUMPDEST PUSH1 0x1 PUSH1 0x1 PUSH1 0xA0 SHL SUB AND EQ PUSH2 0x69C JUMPI PUSH1 0x40 DUP1 MLOAD PUSH3 0x461BCD PUSH1 0xE5 SHL DUP2 MSTORE PUSH1 0x20 PUSH1 0x4 DUP3 ADD MSTORE PUSH1 0x13 PUSH1 0x24 DUP3 ADD MSTORE PUSH19 0x13DB9B1E481B585C9AD95D08185B1B1BDDD959 PUSH1 0x6A SHL PUSH1 0x44 DUP3 ADD MSTORE SWAP1 MLOAD SWAP1 DUP2 SWAP1 SUB PUSH1 0x64 ADD SWAP1 REVERT JUMPDEST PUSH1 0x0 DUP1 DUP1 DUP1 PUSH2 0xD6B PUSH2 0x13B8 JUMP JUMPDEST SWAP1 PUSH2 0x100 EXP SWAP1 DIV PUSH1 0x1 PUSH1 0x1 PUSH1 0xA0 SHL SUB AND PUSH1 0x1 PUSH1 0x1 PUSH1 0xA0 SHL SUB AND PUSH4 0xC588F526 PUSH1 0x40 MLOAD DUP2 PUSH4 0xFFFFFFFF AND PUSH1 0xE0 SHL DUP2 MSTORE PUSH1 0x4 ADD PUSH1 0x40 DUP1 MLOAD DUP1 DUP4 SUB DUP2 DUP7 DUP1 PUSH2 0xDAD PUSH2 0x13EA JUMP JUMPDEST ISZERO DUP1 ISZERO PUSH2 0xDB9 JUMPI PUSH1 0x0 DUP1 REVERT JUMPDEST POP GAS PUSH2 0xDC3 PUSH2 0x141C JUMP JUMPDEST POP POP POP POP POP ISZERO DUP1 ISZERO PUSH2 0xDD9 JUMPI RETURNDATASIZE PUSH1 0x0 DUP1 RETURNDATACOPY RETURNDATASIZE PUSH1 0x0 REVERT JUMPDEST POP POP POP POP PUSH1 0x40 MLOAD RETURNDATASIZE PUSH1 0x40 DUP2 LT ISZERO PUSH2 0xDEF JUMPI PUSH1 0x0 DUP1 REVERT JUMPDEST POP PUSH1 0x20 ADD MLOAD SWAP1 POP PUSH2 0xDFF DUP2 PUSH2 0x1231 JUMP JUMPDEST SWAP2 POP POP SWAP1 JUMP JUMPDEST PUSH1 0x5 PUSH1 0x20 SWAP1 DUP2 MSTORE PUSH1 0x0 SWAP3 DUP4 MSTORE PUSH1 0x40 DUP1 DUP5 KECCAK256 SWAP1 SWAP2 MSTORE SWAP1 DUP3 MSTORE SWAP1 KECCAK256 PUSH2 0x51E PUSH2 0x13B8 JUMP JUMPDEST PUSH1 0x0 DUP3 DUP3 GT ISZERO PUSH2 0xE7D JUMPI PUSH1 0x40 DUP1 MLOAD PUSH3 0x461BCD PUSH1 0xE5 SHL DUP2 MSTORE PUSH1 0x20 PUSH1 0x4 DUP3 ADD MSTORE PUSH1 0x1E PUSH1 0x24 DUP3 ADD MSTORE PUSH32 0x536166654D6174683A207375627472616374696F6E206F766572666C6F770000 PUSH1 0x44 DUP3 ADD MSTORE SWAP1 MLOAD SWAP1 DUP2 SWAP1 SUB PUSH1 0x64 ADD SWAP1 REVERT JUMPDEST POP SWAP1 SUB SWAP1 JUMP JUMPDEST PUSH1 0x0 DUP1 DUP1 PUSH2 0xE8F PUSH2 0x13B8 JUMP JUMPDEST SWAP1 PUSH2 0x100 EXP SWAP1 DIV PUSH1 0x1 PUSH1 0x1 PUSH1 0xA0 SHL SUB AND PUSH1 0x1 PUSH1 0x1 PUSH1 0xA0 SHL SUB AND PUSH4 0x27745BAE PUSH1 0x40 MLOAD DUP2 PUSH4 0xFFFFFFFF AND PUSH1 0xE0 SHL DUP2 MSTORE PUSH1 0x4 ADD PUSH1 0x0 PUSH1 0x40 MLOAD DUP1 DUP4 SUB DUP2 DUP7 DUP1 PUSH2 0xED2 PUSH2 0x13EA JUMP JUMPDEST ISZERO DUP1 ISZERO PUSH2 0xEDE JUMPI PUSH1 0x0 DUP1 REVERT JUMPDEST POP GAS PUSH2 0xEE8 PUSH2 0x141C JUMP JUMPDEST POP POP POP POP POP ISZERO DUP1 ISZERO PUSH2 0xEFE JUMPI RETURNDATASIZE PUSH1 0x0 DUP1 RETURNDATACOPY RETURNDATASIZE PUSH1 0x0 REVERT JUMPDEST POP POP POP POP PUSH1 0x1 PUSH1 0x1 PUSH1 0xA0 SHL SUB DUP4 AND ISZERO DUP1 ISZERO SWAP1 PUSH2 0xF50 JUMPI POP GAS PUSH4 0x996D79A5 PUSH3 0x80000 DUP2 PUSH1 0xE0 SHL DUP2 MSTORE PUSH1 0x20 DUP2 PUSH1 0x4 DUP4 CALLER PUSH1 0x0 SWAP1 GAS CALL DUP1 PUSH2 0xF3B JUMPI PUSH1 0x0 DUP1 REVERT JUMPDEST POP MLOAD PUSH1 0x1 PUSH1 0x1 PUSH1 0xA0 SHL SUB DUP7 DUP2 AND SWAP2 AND EQ ISZERO SWAP2 POP POP JUMPDEST PUSH2 0xF93 JUMPI PUSH1 0x40 DUP1 MLOAD PUSH3 0x461BCD PUSH1 0xE5 SHL DUP2 MSTORE PUSH1 0x20 PUSH1 0x4 DUP3 ADD MSTORE PUSH1 0xF PUSH1 0x24 DUP3 ADD MSTORE PUSH15 0x496E76616C69642061646472657373 PUSH1 0x88 SHL PUSH1 0x44 DUP3 ADD MSTORE SWAP1 MLOAD SWAP1 DUP2 SWAP1 SUB PUSH1 0x64 ADD SWAP1 REVERT JUMPDEST PUSH1 0x1 PUSH1 0x1 PUSH1 0xA0 SHL SUB DUP5 AND PUSH1 0x0 SWAP1 DUP2 MSTORE PUSH1 0x3 PUSH1 0x20 MSTORE PUSH1 0x40 DUP2 KECCAK256 PUSH2 0xFB3 PUSH2 0x13B8 JUMP JUMPDEST SWAP1 POP DUP1 DUP4 GT ISZERO PUSH2 0x1001 JUMPI PUSH1 0x40 DUP1 MLOAD PUSH3 0x461BCD PUSH1 0xE5 SHL DUP2 MSTORE PUSH1 0x20 PUSH1 0x4 DUP3 ADD MSTORE PUSH1 0x14 PUSH1 0x24 DUP3 ADD MSTORE PUSH20 0x496E73756666696369656E742062616C616E6365 PUSH1 0x60 SHL PUSH1 0x44 DUP3 ADD MSTORE SWAP1 MLOAD SWAP1 DUP2 SWAP1 SUB PUSH1 0x64 ADD SWAP1 REVERT JUMPDEST PUSH2 0x1011 DUP2 DUP5 PUSH4 0xFFFFFFFF PUSH2 0xE26 AND JUMP JUMPDEST PUSH1 0x1 PUSH1 0x1 PUSH1 0xA0 SHL SUB DUP7 AND PUSH1 0x0 SWAP1 DUP2 MSTORE PUSH1 0x3 PUSH1 0x20 MSTORE PUSH1 0x40 SWAP1 KECCAK256 DUP2 SWAP1 PUSH2 0x1033 PUSH2 0x137A JUMP JUMPDEST POP POP POP PUSH1 0x1 PUSH1 0x1 PUSH1 0xA0 SHL SUB DUP5 AND PUSH1 0x0 SWAP1 DUP2 MSTORE PUSH1 0x3 PUSH1 0x20 MSTORE PUSH1 0x40 SWAP1 KECCAK256 PUSH2 0x105C SWAP1 DUP5 SWAP1 PUSH2 0x8BF PUSH2 0x13B8 JUMP JUMPDEST PUSH1 0x1 PUSH1 0x1 PUSH1 0xA0 SHL SUB DUP6 AND PUSH1 0x0 SWAP1 DUP2 MSTORE PUSH1 0x3 PUSH1 0x20 MSTORE PUSH1 0x40 SWAP1 KECCAK256 DUP2 SWAP1 PUSH2 0x107E PUSH2 0x137A JUMP JUMPDEST POP POP POP DUP4 PUSH1 0x1 PUSH1 0x1 PUSH1 0xA0 SHL SUB AND DUP6 PUSH1 0x1 PUSH1 0x1 PUSH1 0xA0 SHL SUB AND PUSH32 0xDDF252AD1BE2C89B69C2B068FC378DAA952BA7F163C4A11628F55A4DF523B3EF DUP6 PUSH1 0x40 MLOAD DUP1 DUP3 DUP2 MSTORE PUSH1 0x20 ADD SWAP2 POP POP PUSH1 0x40 MLOAD DUP1 SWAP2 SUB SWAP1 LOG3 POP PUSH1 0x1 SWAP5 SWAP4 POP POP POP POP JUMP JUMPDEST PUSH1 0x0 DUP1 PUSH2 0x10EA DUP6 DUP6 PUSH4 0xFFFFFFFF PUSH2 0x1261 AND JUMP JUMPDEST SWAP1 POP PUSH1 0x0 PUSH2 0x10F7 DUP5 PUSH2 0x1231 JUMP JUMPDEST SWAP1 POP PUSH1 0x2 PUSH2 0x1103 PUSH2 0x13B8 JUMP JUMPDEST DUP7 EQ DUP1 ISZERO PUSH2 0x1110 JUMPI POP DUP6 ISZERO ISZERO JUMPDEST DUP1 PUSH2 0x1119 JUMPI POP DUP1 ISZERO JUMPDEST ISZERO PUSH2 0x1127 JUMPI SWAP2 POP PUSH2 0x7A9 SWAP1 POP JUMP JUMPDEST DUP1 DUP3 GT ISZERO PUSH2 0x1171 JUMPI PUSH1 0x40 DUP1 MLOAD PUSH3 0x461BCD PUSH1 0xE5 SHL DUP2 MSTORE PUSH1 0x20 PUSH1 0x4 DUP3 ADD MSTORE PUSH1 0x12 PUSH1 0x24 DUP3 ADD MSTORE PUSH18 0x737570706C79203C20636C61696D61626C65 PUSH1 0x70 SHL PUSH1 0x44 DUP3 ADD MSTORE SWAP1 MLOAD SWAP1 DUP2 SWAP1 SUB PUSH1 0x64 ADD SWAP1 REVERT JUMPDEST POP SWAP5 SWAP4 POP POP POP POP JUMP JUMPDEST PUSH1 0x0 DUP3 DUP3 ADD DUP4 DUP2 LT ISZERO PUSH2 0x7A9 JUMPI PUSH1 0x40 DUP1 MLOAD PUSH3 0x461BCD PUSH1 0xE5 SHL DUP2 MSTORE PUSH1 0x20 PUSH1 0x4 DUP3 ADD MSTORE PUSH1 0x1B PUSH1 0x24 DUP3 ADD MSTORE PUSH32 0x536166654D6174683A206164646974696F6E206F766572666C6F770000000000 PUSH1 0x44 DUP3 ADD MSTORE SWAP1 MLOAD SWAP1 DUP2 SWAP1 SUB PUSH1 0x64 ADD SWAP1 REVERT JUMPDEST PUSH1 0x0 PUSH7 0x2386F26FC10000 DUP3 LT ISZERO DUP1 PUSH2 0x11EA JUMPI POP DUP2 ISZERO JUMPDEST PUSH2 0x122D JUMPI PUSH1 0x40 DUP1 MLOAD PUSH3 0x461BCD PUSH1 0xE5 SHL DUP2 MSTORE PUSH1 0x20 PUSH1 0x4 DUP3 ADD MSTORE PUSH1 0xF PUSH1 0x24 DUP3 ADD MSTORE PUSH15 0x42616C616E6365203C2024302E3031 PUSH1 0x88 SHL PUSH1 0x44 DUP3 ADD MSTORE SWAP1 MLOAD SWAP1 DUP2 SWAP1 SUB PUSH1 0x64 ADD SWAP1 REVERT JUMPDEST POP SWAP1 JUMP JUMPDEST PUSH1 0x0 DUP1 PUSH1 0x4 PUSH2 0x123E PUSH2 0x13B8 JUMP JUMPDEST SWAP1 POP DUP1 DUP4 GT PUSH2 0x1251 JUMPI PUSH1 0x0 SWAP2 POP POP PUSH2 0xCC6 JUMP JUMPDEST PUSH2 0x7A9 DUP4 DUP3 PUSH4 0xFFFFFFFF PUSH2 0xE26 AND JUMP JUMPDEST PUSH1 0x0 PUSH2 0x7A9 DUP3 PUSH2 0x127F DUP6 PUSH8 0xDE0B6B3A7640000 PUSH4 0xFFFFFFFF PUSH2 0x128B AND JUMP JUMPDEST SWAP1 PUSH4 0xFFFFFFFF PUSH2 0x12E4 AND JUMP JUMPDEST PUSH1 0x0 DUP3 PUSH2 0x129A JUMPI POP PUSH1 0x0 PUSH2 0x50E JUMP JUMPDEST DUP3 DUP3 MUL DUP3 DUP5 DUP3 DUP2 PUSH2 0x12A7 JUMPI INVALID JUMPDEST DIV EQ PUSH2 0x7A9 JUMPI PUSH1 0x40 MLOAD PUSH3 0x461BCD PUSH1 0xE5 SHL DUP2 MSTORE PUSH1 0x4 ADD DUP1 DUP1 PUSH1 0x20 ADD DUP3 DUP2 SUB DUP3 MSTORE PUSH1 0x21 DUP2 MSTORE PUSH1 0x20 ADD DUP1 PUSH2 0x1475 PUSH1 0x21 SWAP2 CODECOPY PUSH1 0x40 ADD SWAP2 POP POP PUSH1 0x40 MLOAD DUP1 SWAP2 SUB SWAP1 REVERT JUMPDEST PUSH1 0x0 DUP1 DUP3 GT PUSH2 0x133A JUMPI PUSH1 0x40 DUP1 MLOAD PUSH3 0x461BCD PUSH1 0xE5 SHL DUP2 MSTORE PUSH1 0x20 PUSH1 0x4 DUP3 ADD MSTORE PUSH1 0x1A PUSH1 0x24 DUP3 ADD MSTORE PUSH32 0x536166654D6174683A206469766973696F6E206279207A65726F000000000000 PUSH1 0x44 DUP3 ADD MSTORE SWAP1 MLOAD SWAP1 DUP2 SWAP1 SUB PUSH1 0x64 ADD SWAP1 REVERT JUMPDEST PUSH1 0x0 DUP3 DUP5 DUP2 PUSH2 0x1345 JUMPI INVALID JUMPDEST DIV SWAP5 SWAP4 POP POP POP POP JUMP JUMPDEST PUSH4 0x73509064 PUSH3 0x80000 DUP2 PUSH1 0xE0 SHL DUP2 MSTORE PUSH1 0x20 DUP2 PUSH1 0x4 DUP4 CALLER PUSH1 0x0 SWAP1 GAS CALL DUP1 PUSH2 0x1373 JUMPI PUSH1 0x0 DUP1 REVERT JUMPDEST POP MLOAD SWAP3 POP POP JUMP JUMPDEST PUSH4 0x146E595 PUSH1 0xE5 SHL PUSH3 0x80000 SWAP1 DUP2 MSTORE PUSH3 0x80004 DUP4 SWAP1 MSTORE PUSH3 0x80024 DUP5 SWAP1 MSTORE PUSH4 0x28DCB2A0 SWAP1 PUSH1 0x0 DUP2 PUSH1 0x44 DUP2 CALLER PUSH1 0x0 SWAP1 GAS CALL DUP1 PUSH2 0x13B3 JUMPI PUSH1 0x0 DUP1 REVERT JUMPDEST POP POP POP JUMP JUMPDEST PUSH4 0x412CC41 PUSH1 0xE3 SHL PUSH3 0x80000 SWAP1 DUP2 MSTORE PUSH3 0x80004 DUP4 SWAP1 MSTORE PUSH4 0x20966208 SWAP1 PUSH1 0x20 DUP2 PUSH1 0x24 DUP2 CALLER PUSH1 0x0 SWAP1 GAS CALL DUP1 PUSH2 0x1373 JUMPI PUSH1 0x0 DUP1 REVERT JUMPDEST PUSH4 0xC3382D0F PUSH1 0xE0 SHL PUSH3 0x80000 SWAP1 DUP2 MSTORE PUSH3 0x80004 DUP4 SWAP1 MSTORE PUSH4 0xC3382D0F SWAP1 PUSH1 0x20 DUP2 PUSH1 0x24 DUP2 CALLER PUSH1 0x0 SWAP1 GAS CALL DUP1 PUSH2 0x1373 JUMPI PUSH1 0x0 DUP1 REVERT JUMPDEST PUSH4 0xFBB0F79D PUSH1 0xE0 SHL PUSH3 0x80000 SWAP1 DUP2 MSTORE PUSH3 0x80004 DUP5 SWAP1 MSTORE PUSH4 0xFBB0F79D SWAP1 PUSH1 0x0 JUMPDEST DUP8 DUP2 LT ISZERO PUSH2 0x1456 JUMPI DUP7 DUP2 ADD MLOAD DUP3 DUP3 ADD PUSH1 0x24 ADD MSTORE PUSH1 0x20 ADD PUSH2 0x143B JUMP JUMPDEST POP DUP9 DUP9 DUP9 PUSH1 0x24 ADD DUP4 CALLER PUSH1 0x0 SWAP1 GAS CALL DUP1 PUSH2 0x146E JUMPI PUSH1 0x0 DUP1 REVERT JUMPDEST SWAP9 POP POP POP JUMP INVALID MSTORE8 PUSH2 0x6665 0x4D PUSH2 0x7468 GASPRICE KECCAK256 PUSH14 0x756C7469706C69636174696F6E20 PUSH16 0x766572666C6F77A265627A7A72315820 0xC8 0xC1 0xDA PUSH1 0x3 0xB2 0x24 CODECOPY 0xEC EXTCODESIZE 0xD9 PUSH25 0xA574A0FF32473A23434E2E4362D2E3149A840D0A64736F6C63 PUSH25 0x28302E352E31362D646576656C6F702E323032302E382E3133 0x2B PUSH4 0x6F6D6D69 PUSH21 0x2E36626530393032660058536166654D6174683A20 PUSH14 0x756C7469706C69636174696F6E20 PUSH16 0x766572666C6F7770BD4A33BF447720D7 OR 0xD0 DUP16 GASPRICE SELFDESTRUCT 0xB5 0xAE 0xCF 0xE4 0xD2 0xEB 0xB8 0xE3 0xDD SWAP5 MSTORE8 SWAP16 MSTORE8 SGT 0xE2 DIFFICULTY PUSH23 0x43596F75206D757374206265206E6F6D696E6174656420 PUSH3 0x65666F PUSH19 0x6520796F752063616E20616363657074206F77 PUSH15 0x6572736869704D697373696E672042 PUSH10 0x6E6172794F7074696F6E 0x4D PUSH2 0x726B PUSH6 0x744D616E6167 PUSH6 0x722061646472 PUSH6 0x73734F6E6C79 KECCAK256 PUSH21 0x686520636F6E7472616374206F776E6572206D6179 KECCAK256 PUSH17 0x6572666F726D207468697320616374696F PUSH15 0xA265627A7A72315820F233D0211FF8 SELFBALANCE 0xC7 MSTORE8 PUSH11 0x7C2C0C4E268BB4082F3D55 EXTCODESIZE DUP6 PUSH6 0x2EE1D25E8979 CALLER CREATE PUSH5 0x736F6C6378 0x28 ADDRESS 0x2E CALLDATALOAD 0x2E BALANCE CALLDATASIZE 0x2D PUSH5 0x6576656C6F PUSH17 0x2E323032302E382E31332B636F6D6D6974 0x2E CALLDATASIZE PUSH3 0x653039 ADDRESS ORIGIN PUSH7 0x580000000000 "
		}
	}
}