{
	"abi": [
		{
			"inputs": [
				{
					"internalType": "contract ISynthetixEscrow",
					"name": "_esc",
					"type": "address"
				}
			],
			"payable": false,
			"stateMutability": "nonpayable",
			"type": "constructor"
		},
		{
			"constant": true,
			"inputs": [
				{
					"internalType": "address",
					"name": "account",
					"type": "address"
				}
			],
			"name": "checkAccountSchedule",
			"outputs": [
				{
					"internalType": "uint256[16]",
					"name": "",
					"type": "uint256[16]"
				}
			],
			"payable": false,
			"stateMutability": "view",
			"type": "function"
		},
		{
			"constant": true,
			"inputs": [],
			"name": "synthetix_escrow",
			"outputs": [
				{
					"internalType": "contract ISynthetixEscrow",
					"name": "",
					"type": "address"
				}
			],
			"payable": false,
			"stateMutability": "view",
			"type": "function"
		}
	],
	"evm": {
		"bytecode": {
			"linkReferences": {},
			"object": "608060405234801561001057600080fd5b5060405161050e38038061050e8339818101604052602081101561003357600080fd5b505180600060018161004361006e565b816001600160a01b0302191690836001600160a01b03160217906100656100a7565b505050506100e5565b630412cc4160e31b6208000090815262080004839052632096620890602081602481336000905af1806100a057600080fd5b5051925050565b630146e59560e51b6208000090815262080004839052620800248490526328dcb2a090600081604481336000905af1806100e057600080fd5b505050565b61041a806100f46000396000f3fe608060405234801561001057600080fd5b50600436106100365760003560e01c8063449d0eb11461003b5780639514c2321461009a575b600080fd5b6100616004803603602081101561005157600080fd5b50356001600160a01b03166100be565b604051808261020080838360005b8381101561008757818101518382015260200161006f565b5050505090500191505060405180910390f35b6100a26102a1565b604080516001600160a01b039092168252519081900360200190f35b6100c66102bf565b6100ce6102bf565b600080806100da6102de565b906101000a90046001600160a01b03166001600160a01b031663204b676a856040518263ffffffff1660e01b815260040180826001600160a01b03166001600160a01b03168152602001915050602060405180830381868061013a610317565b15801561014657600080fd5b505a610150610349565b5050505050158015610166573d6000803e3d6000fd5b505050506040513d602081101561017c57600080fd5b5051905060005b81811015610298576101936103a1565b60008061019e6102de565b906101000a90046001600160a01b03166001600160a01b031663da7bd3e987846040518363ffffffff1660e01b815260040180836001600160a01b03166001600160a01b031681526020018281526020019250505060408051808303818680610205610317565b15801561021157600080fd5b505a61021b610349565b5050505050158015610231573d6000803e3d6000fd5b505050506040513d601f19601f82011682018060405250604081101561025657600080fd5b50805190915084600284026010811061026b57fe5b6020020152806001602002015184836002026001016010811061028a57fe5b602002015250600101610183565b50909392505050565b6000806102ac6102de565b906101000a90046001600160a01b031681565b6040518061020001604052806010906020820280388339509192915050565b630412cc4160e31b6208000090815262080004839052632096620890602081602481336000905af18061031057600080fd5b5051925050565b63c3382d0f60e01b620800009081526208000483905263c3382d0f90602081602481336000905af18061031057600080fd5b63fbb0f79d60e01b620800009081526208000484905263fbb0f79d9060005b87811015610383578681015182820160240152602001610368565b5088888860240183336000905af18061039b57600080fd5b98505050565b6040518060400160405280600290602082028038833950919291505056fea265627a7a723158207abee3a820260ebd6a1228b97b326b735af690070976bcbf4b11c4e4913f62b464736f6c637828302e352e31362d646576656c6f702e323032302e382e31332b636f6d6d69742e36626530393032660058",
			"opcodes": "PUSH1 0x80 PUSH1 0x40 MSTORE CALLVALUE DUP1 ISZERO PUSH2 0x10 JUMPI PUSH1 0x0 DUP1 REVERT JUMPDEST POP PUSH1 0x40 MLOAD PUSH2 0x50E CODESIZE SUB DUP1 PUSH2 0x50E DUP4 CODECOPY DUP2 DUP2 ADD PUSH1 0x40 MSTORE PUSH1 0x20 DUP2 LT ISZERO PUSH2 0x33 JUMPI PUSH1 0x0 DUP1 REVERT JUMPDEST POP MLOAD DUP1 PUSH1 0x0 PUSH1 0x1 DUP2 PUSH2 0x43 PUSH2 0x6E JUMP JUMPDEST DUP2 PUSH1 0x1 PUSH1 0x1 PUSH1 0xA0 SHL SUB MUL NOT AND SWAP1 DUP4 PUSH1 0x1 PUSH1 0x1 PUSH1 0xA0 SHL SUB AND MUL OR SWAP1 PUSH2 0x65 PUSH2 0xA7 JUMP JUMPDEST POP POP POP POP PUSH2 0xE5 JUMP JUMPDEST PUSH4 0x412CC41 PUSH1 0xE3 SHL PUSH3 0x80000 SWAP1 DUP2 MSTORE PUSH3 0x80004 DUP4 SWAP1 MSTORE PUSH4 0x20966208 SWAP1 PUSH1 0x20 DUP2 PUSH1 0x24 DUP2 CALLER PUSH1 0x0 SWAP1 GAS CALL DUP1 PUSH2 0xA0 JUMPI PUSH1 0x0 DUP1 REVERT JUMPDEST POP MLOAD SWAP3 POP POP JUMP JUMPDEST PUSH4 0x146E595 PUSH1 0xE5 SHL PUSH3 0x80000 SWAP1 DUP2 MSTORE PUSH3 0x80004 DUP4 SWAP1 MSTORE PUSH3 0x80024 DUP5 SWAP1 MSTORE PUSH4 0x28DCB2A0 SWAP1 PUSH1 0x0 DUP2 PUSH1 0x44 DUP2 CALLER PUSH1 0x0 SWAP1 GAS CALL DUP1 PUSH2 0xE0 JUMPI PUSH1 0x0 DUP1 REVERT JUMPDEST POP POP POP JUMP JUMPDEST PUSH2 0x41A DUP1 PUSH2 0xF4 PUSH1 0x0 CODECOPY PUSH1 0x0 RETURN INVALID PUSH1 0x80 PUSH1 0x40 MSTORE CALLVALUE DUP1 ISZERO PUSH2 0x10 JUMPI PUSH1 0x0 DUP1 REVERT JUMPDEST POP PUSH1 0x4 CALLDATASIZE LT PUSH2 0x36 JUMPI PUSH1 0x0 CALLDATALOAD PUSH1 0xE0 SHR DUP1 PUSH4 0x449D0EB1 EQ PUSH2 0x3B JUMPI DUP1 PUSH4 0x9514C232 EQ PUSH2 0x9A JUMPI JUMPDEST PUSH1 0x0 DUP1 REVERT JUMPDEST PUSH2 0x61 PUSH1 0x4 DUP1 CALLDATASIZE SUB PUSH1 0x20 DUP2 LT ISZERO PUSH2 0x51 JUMPI PUSH1 0x0 DUP1 REVERT JUMPDEST POP CALLDATALOAD PUSH1 0x1 PUSH1 0x1 PUSH1 0xA0 SHL SUB AND PUSH2 0xBE JUMP JUMPDEST PUSH1 0x40 MLOAD DUP1 DUP3 PUSH2 0x200 DUP1 DUP4 DUP4 PUSH1 0x0 JUMPDEST DUP4 DUP2 LT ISZERO PUSH2 0x87 JUMPI DUP2 DUP2 ADD MLOAD DUP4 DUP3 ADD MSTORE PUSH1 0x20 ADD PUSH2 0x6F JUMP JUMPDEST POP POP POP POP SWAP1 POP ADD SWAP2 POP POP PUSH1 0x40 MLOAD DUP1 SWAP2 SUB SWAP1 RETURN JUMPDEST PUSH2 0xA2 PUSH2 0x2A1 JUMP JUMPDEST PUSH1 0x40 DUP1 MLOAD PUSH1 0x1 PUSH1 0x1 PUSH1 0xA0 SHL SUB SWAP1 SWAP3 AND DUP3 MSTORE MLOAD SWAP1 DUP2 SWAP1 SUB PUSH1 0x20 ADD SWAP1 RETURN JUMPDEST PUSH2 0xC6 PUSH2 0x2BF JUMP JUMPDEST PUSH2 0xCE PUSH2 0x2BF JUMP JUMPDEST PUSH1 0x0 DUP1 DUP1 PUSH2 0xDA PUSH2 0x2DE JUMP JUMPDEST SWAP1 PUSH2 0x100 EXP SWAP1 DIV PUSH1 0x1 PUSH1 0x1 PUSH1 0xA0 SHL SUB AND PUSH1 0x1 PUSH1 0x1 PUSH1 0xA0 SHL SUB AND PUSH4 0x204B676A DUP6 PUSH1 0x40 MLOAD DUP3 PUSH4 0xFFFFFFFF AND PUSH1 0xE0 SHL DUP2 MSTORE PUSH1 0x4 ADD DUP1 DUP3 PUSH1 0x1 PUSH1 0x1 PUSH1 0xA0 SHL SUB AND PUSH1 0x1 PUSH1 0x1 PUSH1 0xA0 SHL SUB AND DUP2 MSTORE PUSH1 0x20 ADD SWAP2 POP POP PUSH1 0x20 PUSH1 0x40 MLOAD DUP1 DUP4 SUB DUP2 DUP7 DUP1 PUSH2 0x13A PUSH2 0x317 JUMP JUMPDEST ISZERO DUP1 ISZERO PUSH2 0x146 JUMPI PUSH1 0x0 DUP1 REVERT JUMPDEST POP GAS PUSH2 0x150 PUSH2 0x349 JUMP JUMPDEST POP POP POP POP POP ISZERO DUP1 ISZERO PUSH2 0x166 JUMPI RETURNDATASIZE PUSH1 0x0 DUP1 RETURNDATACOPY RETURNDATASIZE PUSH1 0x0 REVERT JUMPDEST POP POP POP POP PUSH1 0x40 MLOAD RETURNDATASIZE PUSH1 0x20 DUP2 LT ISZERO PUSH2 0x17C JUMPI PUSH1 0x0 DUP1 REVERT JUMPDEST POP MLOAD SWAP1 POP PUSH1 0x0 JUMPDEST DUP2 DUP2 LT ISZERO PUSH2 0x298 JUMPI PUSH2 0x193 PUSH2 0x3A1 JUMP JUMPDEST PUSH1 0x0 DUP1 PUSH2 0x19E PUSH2 0x2DE JUMP JUMPDEST SWAP1 PUSH2 0x100 EXP SWAP1 DIV PUSH1 0x1 PUSH1 0x1 PUSH1 0xA0 SHL SUB AND PUSH1 0x1 PUSH1 0x1 PUSH1 0xA0 SHL SUB AND PUSH4 0xDA7BD3E9 DUP8 DUP5 PUSH1 0x40 MLOAD DUP4 PUSH4 0xFFFFFFFF AND PUSH1 0xE0 SHL DUP2 MSTORE PUSH1 0x4 ADD DUP1 DUP4 PUSH1 0x1 PUSH1 0x1 PUSH1 0xA0 SHL SUB AND PUSH1 0x1 PUSH1 0x1 PUSH1 0xA0 SHL SUB AND DUP2 MSTORE PUSH1 0x20 ADD DUP3 DUP2 MSTORE PUSH1 0x20 ADD SWAP3 POP POP POP PUSH1 0x40 DUP1 MLOAD DUP1 DUP4 SUB DUP2 DUP7 DUP1 PUSH2 0x205 PUSH2 0x317 JUMP JUMPDEST ISZERO DUP1 ISZERO PUSH2 0x211 JUMPI PUSH1 0x0 DUP1 REVERT JUMPDEST POP GAS PUSH2 0x21B PUSH2 0x349 JUMP JUMPDEST POP POP POP POP POP ISZERO DUP1 ISZERO PUSH2 0x231 JUMPI RETURNDATASIZE PUSH1 0x0 DUP1 RETURNDATACOPY RETURNDATASIZE PUSH1 0x0 REVERT JUMPDEST POP POP POP POP PUSH1 0x40 MLOAD RETURNDATASIZE PUSH1 0x1F NOT PUSH1 0x1F DUP3 ADD AND DUP3 ADD DUP1 PUSH1 0x40 MSTORE POP PUSH1 0x40 DUP2 LT ISZERO PUSH2 0x256 JUMPI PUSH1 0x0 DUP1 REVERT JUMPDEST POP DUP1 MLOAD SWAP1 SWAP2 POP DUP5 PUSH1 0x2 DUP5 MUL PUSH1 0x10 DUP2 LT PUSH2 0x26B JUMPI INVALID JUMPDEST PUSH1 0x20 MUL ADD MSTORE DUP1 PUSH1 0x1 PUSH1 0x20 MUL ADD MLOAD DUP5 DUP4 PUSH1 0x2 MUL PUSH1 0x1 ADD PUSH1 0x10 DUP2 LT PUSH2 0x28A JUMPI INVALID JUMPDEST PUSH1 0x20 MUL ADD MSTORE POP PUSH1 0x1 ADD PUSH2 0x183 JUMP JUMPDEST POP SWAP1 SWAP4 SWAP3 POP POP POP JUMP JUMPDEST PUSH1 0x0 DUP1 PUSH2 0x2AC PUSH2 0x2DE JUMP JUMPDEST SWAP1 PUSH2 0x100 EXP SWAP1 DIV PUSH1 0x1 PUSH1 0x1 PUSH1 0xA0 SHL SUB AND DUP2 JUMP JUMPDEST PUSH1 0x40 MLOAD DUP1 PUSH2 0x200 ADD PUSH1 0x40 MSTORE DUP1 PUSH1 0x10 SWAP1 PUSH1 0x20 DUP3 MUL DUP1 CODESIZE DUP4 CODECOPY POP SWAP2 SWAP3 SWAP2 POP POP JUMP JUMPDEST PUSH4 0x412CC41 PUSH1 0xE3 SHL PUSH3 0x80000 SWAP1 DUP2 MSTORE PUSH3 0x80004 DUP4 SWAP1 MSTORE PUSH4 0x20966208 SWAP1 PUSH1 0x20 DUP2 PUSH1 0x24 DUP2 CALLER PUSH1 0x0 SWAP1 GAS CALL DUP1 PUSH2 0x310 JUMPI PUSH1 0x0 DUP1 REVERT JUMPDEST POP MLOAD SWAP3 POP POP JUMP JUMPDEST PUSH4 0xC3382D0F PUSH1 0xE0 SHL PUSH3 0x80000 SWAP1 DUP2 MSTORE PUSH3 0x80004 DUP4 SWAP1 MSTORE PUSH4 0xC3382D0F SWAP1 PUSH1 0x20 DUP2 PUSH1 0x24 DUP2 CALLER PUSH1 0x0 SWAP1 GAS CALL DUP1 PUSH2 0x310 JUMPI PUSH1 0x0 DUP1 REVERT JUMPDEST PUSH4 0xFBB0F79D PUSH1 0xE0 SHL PUSH3 0x80000 SWAP1 DUP2 MSTORE PUSH3 0x80004 DUP5 SWAP1 MSTORE PUSH4 0xFBB0F79D SWAP1 PUSH1 0x0 JUMPDEST DUP8 DUP2 LT ISZERO PUSH2 0x383 JUMPI DUP7 DUP2 ADD MLOAD DUP3 DUP3 ADD PUSH1 0x24 ADD MSTORE PUSH1 0x20 ADD PUSH2 0x368 JUMP JUMPDEST POP DUP9 DUP9 DUP9 PUSH1 0x24 ADD DUP4 CALLER PUSH1 0x0 SWAP1 GAS CALL DUP1 PUSH2 0x39B JUMPI PUSH1 0x0 DUP1 REVERT JUMPDEST SWAP9 POP POP POP JUMP JUMPDEST PUSH1 0x40 MLOAD DUP1 PUSH1 0x40 ADD PUSH1 0x40 MSTORE DUP1 PUSH1 0x2 SWAP1 PUSH1 0x20 DUP3 MUL DUP1 CODESIZE DUP4 CODECOPY POP SWAP2 SWAP3 SWAP2 POP POP JUMP INVALID LOG2 PUSH6 0x627A7A723158 KECCAK256 PUSH27 0xBEE3A820260EBD6A1228B97B326B735AF690070976BCBF4B11C4E4 SWAP2 EXTCODEHASH PUSH3 0xB46473 PUSH16 0x6C637828302E352E31362D646576656C PUSH16 0x702E323032302E382E31332B636F6D6D PUSH10 0x742E3662653039303266 STOP PC "
		}
	}
}