{
	"abi": [
		{
			"inputs": [
				{
					"internalType": "address",
					"name": "_owner",
					"type": "address"
				},
				{
					"internalType": "address",
					"name": "_resolver",
					"type": "address"
				}
			],
			"payable": false,
			"stateMutability": "nonpayable",
			"type": "constructor"
		},
		{
			"anonymous": false,
			"inputs": [
				{
					"indexed": true,
					"internalType": "address",
					"name": "account",
					"type": "address"
				},
				{
					"indexed": false,
					"internalType": "bytes32",
					"name": "src",
					"type": "bytes32"
				},
				{
					"indexed": false,
					"internalType": "uint256",
					"name": "amount",
					"type": "uint256"
				},
				{
					"indexed": false,
					"internalType": "bytes32",
					"name": "dest",
					"type": "bytes32"
				},
				{
					"indexed": false,
					"internalType": "uint256",
					"name": "amountReceived",
					"type": "uint256"
				},
				{
					"indexed": false,
					"internalType": "uint256",
					"name": "exchangeFeeRate",
					"type": "uint256"
				},
				{
					"indexed": false,
					"internalType": "uint256",
					"name": "roundIdForSrc",
					"type": "uint256"
				},
				{
					"indexed": false,
					"internalType": "uint256",
					"name": "roundIdForDest",
					"type": "uint256"
				}
			],
			"name": "ExchangeEntryAppended",
			"type": "event"
		},
		{
			"anonymous": false,
			"inputs": [
				{
					"indexed": true,
					"internalType": "address",
					"name": "from",
					"type": "address"
				},
				{
					"indexed": false,
					"internalType": "bytes32",
					"name": "src",
					"type": "bytes32"
				},
				{
					"indexed": false,
					"internalType": "uint256",
					"name": "amount",
					"type": "uint256"
				},
				{
					"indexed": false,
					"internalType": "bytes32",
					"name": "dest",
					"type": "bytes32"
				},
				{
					"indexed": false,
					"internalType": "uint256",
					"name": "reclaim",
					"type": "uint256"
				},
				{
					"indexed": false,
					"internalType": "uint256",
					"name": "rebate",
					"type": "uint256"
				},
				{
					"indexed": false,
					"internalType": "uint256",
					"name": "srcRoundIdAtPeriodEnd",
					"type": "uint256"
				},
				{
					"indexed": false,
					"internalType": "uint256",
					"name": "destRoundIdAtPeriodEnd",
					"type": "uint256"
				},
				{
					"indexed": false,
					"internalType": "uint256",
					"name": "exchangeTimestamp",
					"type": "uint256"
				}
			],
			"name": "ExchangeEntrySettled",
			"type": "event"
		},
		{
			"anonymous": false,
			"inputs": [
				{
					"indexed": false,
					"internalType": "address",
					"name": "oldOwner",
					"type": "address"
				},
				{
					"indexed": false,
					"internalType": "address",
					"name": "newOwner",
					"type": "address"
				}
			],
			"name": "OwnerChanged",
			"type": "event"
		},
		{
			"anonymous": false,
			"inputs": [
				{
					"indexed": false,
					"internalType": "address",
					"name": "newOwner",
					"type": "address"
				}
			],
			"name": "OwnerNominated",
			"type": "event"
		},
		{
			"anonymous": false,
			"inputs": [
				{
					"indexed": false,
					"internalType": "uint256",
					"name": "threshold",
					"type": "uint256"
				}
			],
			"name": "PriceDeviationThresholdUpdated",
			"type": "event"
		},
		{
			"anonymous": false,
			"inputs": [
				{
					"indexed": false,
					"internalType": "uint256",
					"name": "waitingPeriodSecs",
					"type": "uint256"
				}
			],
			"name": "WaitingPeriodSecsUpdated",
			"type": "event"
		},
		{
			"constant": true,
			"inputs": [],
			"name": "CIRCUIT_BREAKER_SUSPENSION_REASON",
			"outputs": [
				{
					"internalType": "uint256",
					"name": "",
					"type": "uint256"
				}
			],
			"payable": false,
			"stateMutability": "view",
			"type": "function"
		},
		{
			"constant": true,
			"inputs": [],
			"name": "MAX_ADDRESSES_FROM_RESOLVER",
			"outputs": [
				{
					"internalType": "uint256",
					"name": "",
					"type": "uint256"
				}
			],
			"payable": false,
			"stateMutability": "view",
			"type": "function"
		},
		{
			"constant": false,
			"inputs": [],
			"name": "acceptOwnership",
			"outputs": [],
			"payable": false,
			"stateMutability": "nonpayable",
			"type": "function"
		},
		{
			"constant": true,
			"inputs": [
				{
					"internalType": "address",
					"name": "from",
					"type": "address"
				},
				{
					"internalType": "bytes32",
					"name": "currencyKey",
					"type": "bytes32"
				},
				{
					"internalType": "uint256",
					"name": "amount",
					"type": "uint256"
				},
				{
					"internalType": "uint256",
					"name": "refunded",
					"type": "uint256"
				}
			],
			"name": "calculateAmountAfterSettlement",
			"outputs": [
				{
					"internalType": "uint256",
					"name": "amountAfterSettlement",
					"type": "uint256"
				}
			],
			"payable": false,
			"stateMutability": "view",
			"type": "function"
		},
		{
			"constant": false,
			"inputs": [
				{
					"internalType": "address",
					"name": "from",
					"type": "address"
				},
				{
					"internalType": "bytes32",
					"name": "sourceCurrencyKey",
					"type": "bytes32"
				},
				{
					"internalType": "uint256",
					"name": "sourceAmount",
					"type": "uint256"
				},
				{
					"internalType": "bytes32",
					"name": "destinationCurrencyKey",
					"type": "bytes32"
				},
				{
					"internalType": "address",
					"name": "destinationAddress",
					"type": "address"
				}
			],
			"name": "exchange",
			"outputs": [
				{
					"internalType": "uint256",
					"name": "amountReceived",
					"type": "uint256"
				}
			],
			"payable": false,
			"stateMutability": "nonpayable",
			"type": "function"
		},
		{
			"constant": false,
			"inputs": [
				{
					"internalType": "address",
					"name": "exchangeForAddress",
					"type": "address"
				},
				{
					"internalType": "address",
					"name": "from",
					"type": "address"
				},
				{
					"internalType": "bytes32",
					"name": "sourceCurrencyKey",
					"type": "bytes32"
				},
				{
					"internalType": "uint256",
					"name": "sourceAmount",
					"type": "uint256"
				},
				{
					"internalType": "bytes32",
					"name": "destinationCurrencyKey",
					"type": "bytes32"
				}
			],
			"name": "exchangeOnBehalf",
			"outputs": [
				{
					"internalType": "uint256",
					"name": "amountReceived",
					"type": "uint256"
				}
			],
			"payable": false,
			"stateMutability": "nonpayable",
			"type": "function"
		},
		{
			"constant": true,
			"inputs": [
				{
					"internalType": "bytes32",
					"name": "sourceCurrencyKey",
					"type": "bytes32"
				},
				{
					"internalType": "bytes32",
					"name": "destinationCurrencyKey",
					"type": "bytes32"
				}
			],
			"name": "feeRateForExchange",
			"outputs": [
				{
					"internalType": "uint256",
					"name": "exchangeFeeRate",
					"type": "uint256"
				}
			],
			"payable": false,
			"stateMutability": "view",
			"type": "function"
		},
		{
			"constant": true,
			"inputs": [
				{
					"internalType": "uint256",
					"name": "sourceAmount",
					"type": "uint256"
				},
				{
					"internalType": "bytes32",
					"name": "sourceCurrencyKey",
					"type": "bytes32"
				},
				{
					"internalType": "bytes32",
					"name": "destinationCurrencyKey",
					"type": "bytes32"
				}
			],
			"name": "getAmountsForExchange",
			"outputs": [
				{
					"internalType": "uint256",
					"name": "amountReceived",
					"type": "uint256"
				},
				{
					"internalType": "uint256",
					"name": "fee",
					"type": "uint256"
				},
				{
					"internalType": "uint256",
					"name": "exchangeFeeRate",
					"type": "uint256"
				}
			],
			"payable": false,
			"stateMutability": "view",
			"type": "function"
		},
		{
			"constant": true,
			"inputs": [],
			"name": "getResolverAddressesRequired",
			"outputs": [
				{
					"internalType": "bytes32[24]",
					"name": "addressesRequired",
					"type": "bytes32[24]"
				}
			],
			"payable": false,
			"stateMutability": "view",
			"type": "function"
		},
		{
			"constant": true,
			"inputs": [
				{
					"internalType": "address",
					"name": "account",
					"type": "address"
				},
				{
					"internalType": "bytes32",
					"name": "currencyKey",
					"type": "bytes32"
				}
			],
			"name": "hasWaitingPeriodOrSettlementOwing",
			"outputs": [
				{
					"internalType": "bool",
					"name": "",
					"type": "bool"
				}
			],
			"payable": false,
			"stateMutability": "view",
			"type": "function"
		},
		{
			"constant": true,
			"inputs": [
				{
					"internalType": "contract AddressResolver",
					"name": "_resolver",
					"type": "address"
				}
			],
			"name": "isResolverCached",
			"outputs": [
				{
					"internalType": "bool",
					"name": "",
					"type": "bool"
				}
			],
			"payable": false,
			"stateMutability": "view",
			"type": "function"
		},
		{
			"constant": true,
			"inputs": [
				{
					"internalType": "bytes32",
					"name": "currencyKey",
					"type": "bytes32"
				}
			],
			"name": "isSynthRateInvalid",
			"outputs": [
				{
					"internalType": "bool",
					"name": "",
					"type": "bool"
				}
			],
			"payable": false,
			"stateMutability": "view",
			"type": "function"
		},
		{
			"constant": true,
			"inputs": [
				{
					"internalType": "bytes32",
					"name": "",
					"type": "bytes32"
				}
			],
			"name": "lastExchangeRate",
			"outputs": [
				{
					"internalType": "uint256",
					"name": "",
					"type": "uint256"
				}
			],
			"payable": false,
			"stateMutability": "view",
			"type": "function"
		},
		{
			"constant": true,
			"inputs": [
				{
					"internalType": "address",
					"name": "account",
					"type": "address"
				},
				{
					"internalType": "bytes32",
					"name": "currencyKey",
					"type": "bytes32"
				}
			],
			"name": "maxSecsLeftInWaitingPeriod",
			"outputs": [
				{
					"internalType": "uint256",
					"name": "",
					"type": "uint256"
				}
			],
			"payable": false,
			"stateMutability": "view",
			"type": "function"
		},
		{
			"constant": false,
			"inputs": [
				{
					"internalType": "address",
					"name": "_owner",
					"type": "address"
				}
			],
			"name": "nominateNewOwner",
			"outputs": [],
			"payable": false,
			"stateMutability": "nonpayable",
			"type": "function"
		},
		{
			"constant": true,
			"inputs": [],
			"name": "nominatedOwner",
			"outputs": [
				{
					"internalType": "address",
					"name": "",
					"type": "address"
				}
			],
			"payable": false,
			"stateMutability": "view",
			"type": "function"
		},
		{
			"constant": true,
			"inputs": [],
			"name": "owner",
			"outputs": [
				{
					"internalType": "address",
					"name": "",
					"type": "address"
				}
			],
			"payable": false,
			"stateMutability": "view",
			"type": "function"
		},
		{
			"constant": true,
			"inputs": [],
			"name": "priceDeviationThresholdFactor",
			"outputs": [
				{
					"internalType": "uint256",
					"name": "",
					"type": "uint256"
				}
			],
			"payable": false,
			"stateMutability": "view",
			"type": "function"
		},
		{
			"constant": true,
			"inputs": [],
			"name": "resolver",
			"outputs": [
				{
					"internalType": "contract AddressResolver",
					"name": "",
					"type": "address"
				}
			],
			"payable": false,
			"stateMutability": "view",
			"type": "function"
		},
		{
			"constant": true,
			"inputs": [
				{
					"internalType": "uint256",
					"name": "",
					"type": "uint256"
				}
			],
			"name": "resolverAddressesRequired",
			"outputs": [
				{
					"internalType": "bytes32",
					"name": "",
					"type": "bytes32"
				}
			],
			"payable": false,
			"stateMutability": "view",
			"type": "function"
		},
		{
			"constant": false,
			"inputs": [
				{
					"internalType": "uint256",
					"name": "_priceDeviationThresholdFactor",
					"type": "uint256"
				}
			],
			"name": "setPriceDeviationThresholdFactor",
			"outputs": [],
			"payable": false,
			"stateMutability": "nonpayable",
			"type": "function"
		},
		{
			"constant": false,
			"inputs": [
				{
					"internalType": "contract AddressResolver",
					"name": "_resolver",
					"type": "address"
				}
			],
			"name": "setResolverAndSyncCache",
			"outputs": [],
			"payable": false,
			"stateMutability": "nonpayable",
			"type": "function"
		},
		{
			"constant": false,
			"inputs": [
				{
					"internalType": "uint256",
					"name": "_waitingPeriodSecs",
					"type": "uint256"
				}
			],
			"name": "setWaitingPeriodSecs",
			"outputs": [],
			"payable": false,
			"stateMutability": "nonpayable",
			"type": "function"
		},
		{
			"constant": false,
			"inputs": [
				{
					"internalType": "address",
					"name": "from",
					"type": "address"
				},
				{
					"internalType": "bytes32",
					"name": "currencyKey",
					"type": "bytes32"
				}
			],
			"name": "settle",
			"outputs": [
				{
					"internalType": "uint256",
					"name": "reclaimed",
					"type": "uint256"
				},
				{
					"internalType": "uint256",
					"name": "refunded",
					"type": "uint256"
				},
				{
					"internalType": "uint256",
					"name": "numEntriesSettled",
					"type": "uint256"
				}
			],
			"payable": false,
			"stateMutability": "nonpayable",
			"type": "function"
		},
		{
			"constant": true,
			"inputs": [
				{
					"internalType": "address",
					"name": "account",
					"type": "address"
				},
				{
					"internalType": "bytes32",
					"name": "currencyKey",
					"type": "bytes32"
				}
			],
			"name": "settlementOwing",
			"outputs": [
				{
					"internalType": "uint256",
					"name": "reclaimAmount",
					"type": "uint256"
				},
				{
					"internalType": "uint256",
					"name": "rebateAmount",
					"type": "uint256"
				},
				{
					"internalType": "uint256",
					"name": "numEntries",
					"type": "uint256"
				}
			],
			"payable": false,
			"stateMutability": "view",
			"type": "function"
		},
		{
			"constant": false,
			"inputs": [
				{
					"internalType": "bytes32",
					"name": "currencyKey",
					"type": "bytes32"
				}
			],
			"name": "suspendSynthWithInvalidRate",
			"outputs": [],
			"payable": false,
			"stateMutability": "nonpayable",
			"type": "function"
		},
		{
			"constant": true,
			"inputs": [],
			"name": "waitingPeriodSecs",
			"outputs": [
				{
					"internalType": "uint256",
					"name": "",
					"type": "uint256"
				}
			],
			"payable": false,
			"stateMutability": "view",
			"type": "function"
		}
	],
	"evm": {
		"bytecode": {
			"linkReferences": {
				"Exchanger.sol": {
					"SafeDecimalMath": [
						{
							"length": 20,
							"start": 829
						},
						{
							"length": 20,
							"start": 14810
						}
					]
				}
			},
			"object": "6101606040526b53797374656d53746174757360a01b60809081526c45786368616e6765537461746560981b60a0526c45786368616e6765526174657360981b60c052680a6f2dce8d0cae8d2f60bb1b60e05266119959541bdbdb60ca1b610100527044656c6567617465417070726f76616c7360781b610120526524b9b9bab2b960d11b610140526200009890600890600762000457565b50348015620000a657600080fd5b50604051620042833803806200428383398181016040526040811015620000cc57600080fd5b50805160209091015160408051610300810191829052829160089060189082845b81620000f8620004a5565b81526020019060010190808311620000ed57508793505050506001600160a01b0381166200016d576040805162461bcd60e51b815260206004820152601960248201527f4f776e657220616464726573732063616e6e6f74206265203000000000000000604482015290519081900360640190fd5b8060006001816200017d620004a5565b816001600160a01b0302191690836001600160a01b0316021790620001a1620004df565b505060408051600081526001600160a01b038416602082015281517fb532073b38c83145e3e5135377a08bf9aab55bc0fd7c1179cd4fb995d2a5159c93509081900390910190a15060008080620001f7620004a5565b906101000a90046001600160a01b03166001600160a01b0316141562000258576040805162461bcd60e51b815260206004820152601160248201527013dddb995c881b5d5cdd081899481cd95d607a1b604482015290519081900360640190fd5b60005b6018811015620002e85760008282601881106200027457fe5b602002015114620002d95760048282601881106200028e57fe5b60200201519080600181620002a2620004a5565b018082620002af620004df565b5050600092835260209092209192918301600019019050620002d0620004df565b505050620002df565b620002e8565b6001016200025b565b50816002600181620002f9620004a5565b816001600160a01b0302191690836001600160a01b03160217906200031d620004df565b505050505060b46005819062000332620004df565b505050620003d8600373__$cc56be524fc9a50cd50be137f56c651270$__63907af6c06040518163ffffffff1660e01b815260040160206040518083038186806200037c6200051e565b1580156200038957600080fd5b505a6200039562000551565b5050505050158015620003ac573d6000803e3d6000fd5b505050506040513d6020811015620003c357600080fd5b505190620003f0602090811b6200380e17901c565b806006620003e5620004df565b5050505050620005d9565b600082620004015750600062000451565b828202828482816200040f57fe5b04146200044e5760405162461bcd60e51b8152600401808060200182810382526021815260200180620042626021913960400191505060405180910390fd5b90505b92915050565b826018810192821562000493579160200282015b82811115620004935782518262000481620004df565b5050916020019190600101906200046b565b50620004a1929150620005ac565b5090565b630412cc4160e31b6208000090815262080004839052632096620890602081602481336000905af180620004d857600080fd5b5051925050565b630146e59560e51b6208000090815262080004839052620800248490526328dcb2a090600081604481336000905af1806200051957600080fd5b505050565b63c3382d0f60e01b620800009081526208000483905263c3382d0f90602081602481336000905af180620004d857600080fd5b6345e97ddb60e01b62080000908152620800048490526345e97ddb9060005b878110156200058d57868101518282016024015260200162000570565b5088888860240183336000905af180620005a657600080fd5b98505050565b620005d691905b80821115620004a15760008082620005ca620004df565b505050600101620005b3565b90565b613c7980620005e96000396000f3fe608060405234801561001057600080fd5b50600436106101a95760003560e01c806353a47bb7116100f95780638925711711610097578063c6c9d82811610071578063c6c9d828146104ef578063d6f32e061461050c578063e3235c9114610538578063f450aa3414610540576101a9565b8063892571171461049e5780638da5cb5b146104a6578063ab49848c146104ae576101a9565b8063635a3872116100d3578063635a38721461041a5780636a1c47581461043757806379ba5097146104795780637dd1a57a14610481576101a9565b806353a47bb7146103bb57806357af302c146103c3578063631e1444146103f4576101a9565b80631a5c609511610166578063372a395a11610140578063372a395a1461034d5780633be99e6f146103555780633fa70f451461037b5780634c268fc814610383576101a9565b80631a5c6095146102e15780631b16802c146103045780631e6e219014610330576101a9565b806304f3bcec146101ae578063059c29ec146101d25780630a1e187d146102105780630b9e31c9146102525780631627540c1461027157806319d5c66514610297575b600080fd5b6101b6610569565b604080516001600160a01b039092168252519081900360200190f35b6101fe600480360360408110156101e857600080fd5b506001600160a01b038135169060200135610588565b60408051918252519081900360200190f35b6101fe600480360360a081101561022657600080fd5b506001600160a01b0381358116916020810135916040820135916060810135916080909101351661063f565b61026f6004803603602081101561026857600080fd5b5035610764565b005b61026f6004803603602081101561028757600080fd5b50356001600160a01b0316610a10565b6102c3600480360360408110156102ad57600080fd5b506001600160a01b038135169060200135610af4565b60408051938452602084019290925282820152519081900360600190f35b6101fe600480360360408110156102f757600080fd5b5080359060200135610b12565b6102c36004803603604081101561031a57600080fd5b506001600160a01b038135169060200135610b1e565b61026f6004803603602081101561034657600080fd5b5035610bb0565b6101fe610c70565b61026f6004803603602081101561036b57600080fd5b50356001600160a01b0316610c7d565b6101fe610e8a565b6101fe6004803603608081101561039957600080fd5b506001600160a01b038135169060208101359060408101359060600135610e8f565b6101b6610fd5565b6103e0600480360360208110156103d957600080fd5b5035610fe1565b604080519115158252519081900360200190f35b6103e06004803603602081101561040a57600080fd5b50356001600160a01b0316611035565b61026f6004803603602081101561043057600080fd5b50356111e1565b6101fe600480360360a081101561044d57600080fd5b506001600160a01b0381358116916020810135909116906040810135906060810135906080013561128d565b61026f611492565b6101fe6004803603602081101561049757600080fd5b5035611607565b6101fe61161d565b6101b6611627565b6104b6611632565b604051808261030080838360005b838110156104dc5781810151838201526020016104c4565b5050505090500191505060405180910390f35b6101fe6004803603602081101561050557600080fd5b5035611694565b6103e06004803603604081101561052257600080fd5b506001600160a01b0381351690602001356116bd565b6101fe6116ef565b6102c36004803603606081101561055657600080fd5b50803590602081013590604001356116f4565b600060026105756138d1565b906101000a90046001600160a01b031681565b6000610636610595611714565b6001600160a01b031663f1406dc885856040518363ffffffff1660e01b815260040180836001600160a01b03166001600160a01b031681526020018281526020019250505060206040518083038186806105ed61390a565b1580156105f957600080fd5b505a61060361393c565b5050505050158015610619573d6000803e3d6000fd5b505050506040513d602081101561062f57600080fd5b505161176a565b90505b92915050565b60008061064a6117d9565b9050806001600160a01b03165a61065f613994565b6001600160a01b03161480610711575060006001600160a01b0382166316b2213f5a610689613994565b6040518263ffffffff1660e01b815260040180826001600160a01b03166001600160a01b0316815260200191505060206040518083038186806106ca61390a565b1580156106d657600080fd5b505a6106e061393c565b50505050501580156106f6573d6000803e3d6000fd5b505050506040513d602081101561070c57600080fd5b505114155b61074c5760405162461bcd60e51b8152600401808060200182810382526045815260200180613b676045913960600191505060405180910390fd5b6107598787878787611826565b979650505050505050565b61076c611ce8565b6001600160a01b031663086dabd16040518163ffffffff1660e01b8152600401600060405180830381868061079f61390a565b1580156107ab57600080fd5b505a6107b561393c565b50505050501580156107cb573d6000803e3d6000fd5b5050505060006001600160a01b03166107e2611d38565b6001600160a01b03166332608039836040518263ffffffff1660e01b815260040180828152602001915050602060405180830381868061082061390a565b15801561082c57600080fd5b505a61083661393c565b505050505015801561084c573d6000803e3d6000fd5b505050506040513d602081101561086257600080fd5b50516001600160a01b031614156108b0576040805162461bcd60e51b815260206004820152600d60248201526c09cde40e6eac6d040e6f2dce8d609b1b604482015290519081900360640190fd5b610943816108bc611d7b565b6001600160a01b031663ac82f608846040518263ffffffff1660e01b81526004018082815260200191505060206040518083038186806108fa61390a565b15801561090657600080fd5b505a61091061393c565b5050505050158015610926573d6000803e3d6000fd5b505050506040513d602081101561093c57600080fd5b5051611dcc565b61098b576040805162461bcd60e51b815260206004820152601460248201527314de5b9d1a081c1c9a58d9481a5cc81d985b1a5960621b604482015290519081900360640190fd5b610993611ce8565b6001600160a01b031663abc0bb6e8260416040518363ffffffff1660e01b81526004018083815260200182815260200192505050600060405180830381600087806109dc61390a565b1580156109e857600080fd5b505a6109f26139b9565b505050505050158015610a09573d6000803e3d6000fd5b5050505050565b600080610a1b6138d1565b906101000a90046001600160a01b03166001600160a01b03165a610a3d613994565b6001600160a01b031614610a825760405162461bcd60e51b815260040180806020018281038252602f815260200180613bac602f913960400191505060405180910390fd5b8060018080610a8f6138d1565b816001600160a01b0302191690836001600160a01b0316021790610ab1613a11565b5050604080516001600160a01b038416815290517f906a1c6bd7e3091ea86693dd029a831c19049ce77f1dce2ce0bab1cacbabce2292509081900360200190a150565b6000806000610b038585612038565b50919790965090945092505050565b6000610636838361232e565b6000806000610b2b611ce8565b6001600160a01b03166342a28e21856040518263ffffffff1660e01b8152600401808281526020019150506000604051808303818680610b6961390a565b158015610b7557600080fd5b505a610b7f61393c565b5050505050158015610b95573d6000803e3d6000fd5b50505050610ba385856123c1565b9250925092509250925092565b600080610bbb6138d1565b906101000a90046001600160a01b03166001600160a01b03165a610bdd613994565b6001600160a01b031614610c225760405162461bcd60e51b815260040180806020018281038252602f815260200180613bac602f913960400191505060405180910390fd5b80806006610c2e613a11565b5050507f6e65c7d32a9129ebc4e4e6d755e2a9668753c046f4b128ac8aeb4f3e5446a1e56006610c5c6138d1565b60408051918252519081900360200190a150565b6006610c7a6138d1565b81565b600080610c886138d1565b906101000a90046001600160a01b03166001600160a01b03165a610caa613994565b6001600160a01b031614610cef5760405162461bcd60e51b815260040180806020018281038252602f815260200180613bac602f913960400191505060405180910390fd5b806002600181610cfd6138d1565b816001600160a01b0302191690836001600160a01b0316021790610d1f613a11565b5060009150505b600480610d316138d1565b9050811015610e8657600060048281610d486138d1565b8110610d5057fe5b90600052602060002001610d626138d1565b905060006002610d706138d1565b906101000a90046001600160a01b03166001600160a01b031663dacb2d01826040518263ffffffff1660e01b81526004018082815260200180602001828103825260178152602001807f5265736f6c766572206d697373696e6720746172676574000000000000000000815250602001925050506020604051808303818680610df761390a565b158015610e0357600080fd5b505a610e0d61393c565b5050505050158015610e23573d6000803e3d6000fd5b505050506040513d6020811015610e3957600080fd5b50516000828152600360205260409020600181610e546138d1565b816001600160a01b0302191690836001600160a01b0316021790610e76613a11565b505060019092019150610d269050565b5050565b604181565b816000610e9a611d38565b6001600160a01b03166332608039866040518263ffffffff1660e01b8152600401808281526020019150506020604051808303818680610ed861390a565b158015610ee457600080fd5b505a610eee61393c565b5050505050158015610f04573d6000803e3d6000fd5b505050506040513d6020811015610f1a57600080fd5b5051604080516370a0823160e01b81526001600160a01b038981166004830152915191909216916370a0823191602480830192602092919082900301818680610f6161390a565b158015610f6d57600080fd5b505a610f7761393c565b5050505050158015610f8d573d6000803e3d6000fd5b505050506040513d6020811015610fa357600080fd5b5051905080821115610fb3578091505b8215610fcc57610fc9828463ffffffff61265b16565b91505b50949350505050565b600060016105756138d1565b600061102d82610fef611d7b565b6001600160a01b031663ac82f608856040518263ffffffff1660e01b81526004018082815260200191505060206040518083038186806108fa61390a565b90505b919050565b60006001600160a01b03821681600261104c6138d1565b906101000a90046001600160a01b03166001600160a01b03161461107257506000611030565b60005b6004806110806138d1565b90508110156111d8576000600482816110976138d1565b811061109f57fe5b906000526020600020016110b16138d1565b6000818152600360205260408120919250906110cb6138d1565b6001600160a01b036101009290920a900416600060026110e96138d1565b906101000a90046001600160a01b03166001600160a01b03166321f8a721836040518263ffffffff1660e01b815260040180828152602001915050602060405180830381868061113761390a565b15801561114357600080fd5b505a61114d61393c565b5050505050158015611163573d6000803e3d6000fd5b505050506040513d602081101561117957600080fd5b50516001600160a01b03161415806111bf5750600081815260036020526040812081906111a46138d1565b906101000a90046001600160a01b03166001600160a01b0316145b156111cf57600092505050611030565b50600101611075565b50600192915050565b6000806111ec6138d1565b906101000a90046001600160a01b03166001600160a01b03165a61120e613994565b6001600160a01b0316146112535760405162461bcd60e51b815260040180806020018281038252602f815260200180613bac602f913960400191505060405180910390fd5b8080600561125f613a11565b5050507fc32c92cac11e29883e0fb2d9e38230cc510e3bda48abc270b780de60bb8465f86005610c5c6138d1565b6000806112986117d9565b9050806001600160a01b03165a6112ad613994565b6001600160a01b0316148061135f575060006001600160a01b0382166316b2213f5a6112d7613994565b6040518263ffffffff1660e01b815260040180826001600160a01b03166001600160a01b03168152602001915050602060405180830381868061131861390a565b15801561132457600080fd5b505a61132e61393c565b5050505050158015611344573d6000803e3d6000fd5b505050506040513d602081101561135a57600080fd5b505114155b61139a5760405162461bcd60e51b8152600401808060200182810382526045815260200180613b676045913960600191505060405180910390fd5b6113a26126b5565b6040805163faf431bb60e01b81526001600160a01b038a8116600483015289811660248301529151929091169163faf431bb91604480820192602092909190829003018186806113f061390a565b1580156113fc57600080fd5b505a61140661393c565b505050505015801561141c573d6000803e3d6000fd5b505050506040513d602081101561143257600080fd5b5051611485576040805162461bcd60e51b815260206004820152601d60248201527f4e6f7420617070726f76656420746f20616374206f6e20626568616c66000000604482015290519081900360640190fd5b610759878686868b611826565b6000600161149e6138d1565b906101000a90046001600160a01b03166001600160a01b03165a6114c0613994565b6001600160a01b0316146115055760405162461bcd60e51b8152600401808060200182810382526035815260200180613b116035913960400191505060405180910390fd5b7fb532073b38c83145e3e5135377a08bf9aab55bc0fd7c1179cd4fb995d2a5159c6000806115316138d1565b906101000a90046001600160a01b0316600160009061154e6138d1565b604080516001600160a01b0394851681526101009390930a909104909216602082015281519081900390910190a1600060016115886138d1565b906101000a90046001600160a01b03166000806101000a816115a86138d1565b816001600160a01b0302191690836001600160a01b03160217906115ca613a11565b5050506000600160006101000a816115e06138d1565b816001600160a01b0302191690836001600160a01b0316021790611602613a11565b505050565b6007602052600090815260409020610c7a6138d1565b6005610c7a6138d1565b6000806105756138d1565b61163a613a4a565b60005b6004806116486138d1565b9050811015611690576004818161165d6138d1565b811061166557fe5b906000526020600020016116776138d1565b82826018811061168357fe5b602002015260010161163d565b5090565b600481816116a06138d1565b81106116a857fe5b60009182526020909120019050610c7a6138d1565b60006116c98383610588565b156116d657506001610639565b60006116e28484612038565b5050501515949350505050565b601881565b60008060006117048686866126ed565b5092999198509650945050505050565b60006117656c45786368616e6765537461746560981b6040518060400160405280601d81526020017f4d697373696e672045786368616e6765537461746520616464726573730000008152506127da565b905090565b600081158061179a575061178e60056117816138d1565b839063ffffffff61265b16565b5a611797613a69565b10155b156117a757506000611030565b61102d5a6117b3613a69565b6117cd60056117c06138d1565b859063ffffffff61265b16565b9063ffffffff61289a16565b6000611765680a6f2dce8d0cae8d2f60bb1b6040518060400160405280601981526020017f4d697373696e672053796e7468657469782061646472657373000000000000008152506127da565b60006118338585856128f7565b60008061184088886123c1565b9093509150869050811561186d5761185a89898986610e8f565b90508061186d5760009350505050611cdf565b60008060008061187e858d8c6126ed565b939b509196509450925090506118948c83611dcc565b1561192b576118a1611ce8565b6001600160a01b031663abc0bb6e8d60416040518363ffffffff1660e01b81526004018083815260200182815260200192505050600060405180830381600087806118ea61390a565b1580156118f657600080fd5b505a6119006139b9565b505050505050158015611917573d6000803e3d6000fd5b505050506000975050505050505050611cdf565b60008c815260076020526040902082908190611945613a11565b5050506119528a82611dcc565b156119a85761195f611ce8565b6001600160a01b031663abc0bb6e8b60416040518363ffffffff1660e01b81526004018083815260200182815260200192505050600060405180830381600087806118ea61390a565b60008a8152600760205260409020819081906119c2613a11565b5050506119cd611d38565b6001600160a01b031663326080398d6040518263ffffffff1660e01b8152600401808281526020019150506020604051808303818680611a0b61390a565b158015611a1757600080fd5b505a611a2161393c565b5050505050158015611a37573d6000803e3d6000fd5b505050506040513d6020811015611a4d57600080fd5b81019080805190602001909291905050506001600160a01b0316639dc29fac8e876040518363ffffffff1660e01b815260040180836001600160a01b03166001600160a01b031681526020018281526020019250505060006040518083038160008780611ab861390a565b158015611ac457600080fd5b505a611ace6139b9565b505050505050158015611ae5573d6000803e3d6000fd5b50505050611af1611d38565b6001600160a01b031663326080398b6040518263ffffffff1660e01b8152600401808281526020019150506020604051808303818680611b2f61390a565b158015611b3b57600080fd5b505a611b4561393c565b5050505050158015611b5b573d6000803e3d6000fd5b505050506040513d6020811015611b7157600080fd5b50516040805163219e412d60e21b81526001600160a01b038c81166004830152602482018c90529151919092169163867904b49160448083019260009291908290030181838780611bc061390a565b158015611bcc57600080fd5b505a611bd66139b9565b505050505050158015611bed573d6000803e3d6000fd5b505050506000841115611c0457611c04848b612af9565b611c0c6117d9565b6001600160a01b0316636c00f3108e8e888e8d8f6040518763ffffffff1660e01b815260040180876001600160a01b03166001600160a01b03168152602001868152602001858152602001848152602001838152602001826001600160a01b03166001600160a01b03168152602001965050505050505060006040518083038160008780611c9861390a565b158015611ca457600080fd5b505a611cae6139b9565b505050505050158015611cc5573d6000803e3d6000fd5b50505050611cd7898d878d8c88612db3565b505050505050505b95945050505050565b60006117656b53797374656d53746174757360a01b6040518060400160405280601c81526020017f4d697373696e672053797374656d5374617475732061646472657373000000008152506127da565b60006117656524b9b9bab2b960d11b604051806040016040528060168152602001754d697373696e6720497373756572206164647265737360501b8152506127da565b60006117656c45786368616e6765526174657360981b6040518060400160405280601d81526020017f4d697373696e672045786368616e6765526174657320616464726573730000008152506127da565b600081611ddb57506001610639565b6000838152600760205260408120611df16138d1565b90508015611e0b57611e038184613013565b915050610639565b6060611e15611d7b565b6001600160a01b0316632d7371e18660046040518363ffffffff1660e01b815260040180838152602001828152602001925050506000604051808303818680611e5c61390a565b158015611e6857600080fd5b505a611e7261393c565b5050505050158015611e88573d6000803e3d6000fd5b505050506040513d6000823e601f3d908101601f191682016040908152811015611eb157600080fd5b8101908080516040519392919084640100000000821115611ed157600080fd5b908301906020820185811115611ee657600080fd5b8251866020820283011164010000000082111715611f0357600080fd5b82525081516020918201928201910280838360005b83811015611f30578181015183820152602001611f18565b5050505090500160405260200180516040519392919084640100000000821115611f5957600080fd5b908301906020820185811115611f6e57600080fd5b8251866020820283011164010000000082111715611f8b57600080fd5b82525081516020918201928201910280838360005b83811015611fb8578181015183820152602001611fa0565b505050509050016040525050505090506000600190505b815181101561202c576000828281518110611fe657fe5b6020026020010151118015612013575061201382828151811061200557fe5b602002602001015186613013565b156120245760019350505050610639565b600101611fcf565b50600095945050505050565b60008060006060612047611714565b6001600160a01b031663b44e975387876040518363ffffffff1660e01b815260040180836001600160a01b03166001600160a01b0316815260200182815260200192505050602060405180830381868061209f61390a565b1580156120ab57600080fd5b505a6120b561393c565b50505050501580156120cb573d6000803e3d6000fd5b505050506040513d60208110156120e157600080fd5b505160408051828152602080840282010190915290925060609083801561212257816020015b61210f613a8e565b8152602001906001900390816121075790505b50905060005b838110156123225760008061213b613a8e565b6121468b8b86613074565b90506000806121568d8d886131a2565b915091506000612164611d7b565b6001600160a01b031663266da16b85600001518660200151876040015187876040518663ffffffff1660e01b8152600401808681526020018581526020018481526020018381526020018281526020019550505050505060206040518083038186806121ce61390a565b1580156121da57600080fd5b505a6121e461393c565b50505050501580156121fa573d6000803e3d6000fd5b505050506040513d602081101561221057600080fd5b505160808501519091506000906122289083906133e6565b9050612238856060015182613013565b6122ad57808560600151111561227657606085015161225d908263ffffffff61289a16565b965061226f8d8863ffffffff61265b16565b9c506122ad565b84606001518111156122ad57606085015161229890829063ffffffff61289a16565b95506122aa8c8763ffffffff61265b16565b9b505b6040518061010001604052808660000151815260200186602001518152602001866040015181526020018881526020018781526020018581526020018481526020018660a0015181525089898151811061230357fe5b6020026020010181905250505050505050508080600101915050612128565b50905092959194509250565b600061233861348b565b6001600160a01b03166380803fff836040518263ffffffff1660e01b815260040180828152602001915050602060405180830381868061237661390a565b15801561238257600080fd5b505a61238c61393c565b50505050501580156123a2573d6000803e3d6000fd5b505050506040513d60208110156123b857600080fd5b50519392505050565b60008060006123d08585610588565b1561240c5760405162461bcd60e51b8152600401808060200182810382526023815260200180613bfc6023913960400191505060405180910390fd5b6000806000606061241d8989612038565b93509350935093508284111561244f5761243d848463ffffffff61289a16565b965061244a8989896134d6565b612474565b8383111561247457612467838563ffffffff61289a16565b9550612474898988613648565b60005b81518110156125b957896001600160a01b03167f8e3ad1f68bec55de3b6fa12ae2674a2a683a17c918a4cbf5157ac5d9ddc6e9408383815181106124b757fe5b6020026020010151600001518484815181106124cf57fe5b6020026020010151602001518585815181106124e757fe5b6020026020010151604001518686815181106124ff57fe5b60200260200101516060015187878151811061251757fe5b60200260200101516080015188888151811061252f57fe5b602002602001015160a0015189898151811061254757fe5b602002602001015160c001518a8a8151811061255f57fe5b602002602001015160e00151604051808981526020018881526020018781526020018681526020018581526020018481526020018381526020018281526020019850505050505050505060405180910390a2600101612477565b508194506125c5611714565b6001600160a01b031663d0d3d62a8a8a6040518363ffffffff1660e01b815260040180836001600160a01b03166001600160a01b03168152602001828152602001925050506000604051808303816000878061261f61390a565b15801561262b57600080fd5b505a6126356139b9565b50505050505015801561264c573d6000803e3d6000fd5b50505050505050509250925092565b600082820183811015610636576040805162461bcd60e51b815260206004820152601b60248201527f536166654d6174683a206164646974696f6e206f766572666c6f770000000000604482015290519081900360640190fd5b60006117657044656c6567617465417070726f76616c7360781b604051806060016040528060218152602001613b46602191396127da565b6000806000806000806126fe611d7b565b6001600160a01b0316638295016a898b8a6040518463ffffffff1660e01b8152600401808481526020018381526020018281526020019350505050606060405180830381868061274c61390a565b15801561275857600080fd5b505a61276261393c565b5050505050158015612778573d6000803e3d6000fd5b505050506040513d606081101561278e57600080fd5b508051602082015160409092015191945090925090506127ae888861232e565b93506127ba81856133e6565b95506127cc818763ffffffff61289a16565b945050939792965093509350565b6000828152600360205260408120819081906127f46138d1565b6001600160a01b036101009290920a900416905082816128925760405162461bcd60e51b81526004018080602001828103825283818151815260200191508051906020019080838360005b8381101561285757818101518382015260200161283f565b50505050905090810190601f1680156128845780820380516001836020036101000a031916815260200191505b509250505060405180910390fd5b509392505050565b6000828211156128f1576040805162461bcd60e51b815260206004820152601e60248201527f536166654d6174683a207375627472616374696f6e206f766572666c6f770000604482015290519081900360640190fd5b50900390565b80831415612942576040805162461bcd60e51b8152602060048201526013602482015272086c2dc4ee840c4ca40e6c2daca40e6f2dce8d606b1b604482015290519081900360640190fd5b60008211612985576040805162461bcd60e51b815260206004820152600b60248201526a16995c9bc8185b5bdd5b9d60aa1b604482015290519081900360640190fd5b604080516002808252606080830184529260208301908038833901905050905083816000815181106129b357fe5b60200260200101818152505081816001815181106129cd57fe5b6020026020010181815250506129e1611d7b565b6001600160a01b0316632d227674826040518263ffffffff1660e01b81526004018080602001828103825283818151815260200191508051906020019060200280838360005b83811015612a3f578181015183820152602001612a27565b50505050905001925050506020604051808303818680612a5d61390a565b158015612a6957600080fd5b505a612a7361393c565b5050505050158015612a89573d6000803e3d6000fd5b505050506040513d6020811015612a9f57600080fd5b505115612af3576040805162461bcd60e51b815260206004820181905260248201527f5372632f646573742072617465207374616c65206f72206e6f7420666f756e64604482015290519081900360640190fd5b50505050565b6000612b03611d7b565b6001600160a01b031663654a60ac8385631cd554d160e21b6040518463ffffffff1660e01b81526004018084815260200183815260200182815260200193505050506020604051808303818680612b5861390a565b158015612b6457600080fd5b505a612b6e61393c565b5050505050158015612b84573d6000803e3d6000fd5b505050506040513d6020811015612b9a57600080fd5b50519050612ba6611d38565b6001600160a01b03166332608039631cd554d160e21b6040518263ffffffff1660e01b8152600401808281526020019150506020604051808303818680612beb61390a565b158015612bf757600080fd5b505a612c0161393c565b5050505050158015612c17573d6000803e3d6000fd5b505050506040513d6020811015612c2d57600080fd5b50516001600160a01b031663867904b4612c4561348b565b6001600160a01b031663eb1edd616040518163ffffffff1660e01b81526004016020604051808303818680612c7861390a565b158015612c8457600080fd5b505a612c8e61393c565b5050505050158015612ca4573d6000803e3d6000fd5b505050506040513d6020811015612cba57600080fd5b5051604080516001600160e01b031960e085901b1681526001600160a01b039092166004830152602482018590525160448083019260009291908290030181838780612d0461390a565b158015612d1057600080fd5b505a612d1a6139b9565b505050505050158015612d31573d6000803e3d6000fd5b50505050612d3d61348b565b6001600160a01b03166322bf55ef826040518263ffffffff1660e01b81526004018082815260200191505060006040518083038160008780612d7d61390a565b158015612d8957600080fd5b505a612d936139b9565b505050505050158015612daa573d6000803e3d6000fd5b50505050505050565b6000612dbd611d7b565b90506000816001600160a01b0316637a018a1e886040518263ffffffff1660e01b8152600401808281526020019150506020604051808303818680612e0061390a565b158015612e0c57600080fd5b505a612e1661393c565b5050505050158015612e2c573d6000803e3d6000fd5b505050506040513d6020811015612e4257600080fd5b505160408051633d00c50f60e11b81526004810188905290519192506000916001600160a01b03851691637a018a1e91602480830192602092919082900301818680612e8c61390a565b158015612e9857600080fd5b505a612ea261393c565b5050505050158015612eb8573d6000803e3d6000fd5b505050506040513d6020811015612ece57600080fd5b50519050612eda611714565b6001600160a01b0316633ca9d85c8a8a8a8a8a8a5a612ef7613a69565b604080516001600160e01b031960e08b901b1681526001600160a01b039098166004890152602488019690965260448701949094526064860192909252608485015260a484015260c483015260e482018690526101048201859052516101248083019260009291908290030181838780612f6f61390a565b158015612f7b57600080fd5b505a612f856139b9565b505050505050158015612f9c573d6000803e3d6000fd5b5050604080518b8152602081018b90528082018a9052606081018990526080810188905260a0810186905260c0810185905290516001600160a01b038d1693507f62e40d554c7abcdd31074960d8347a2225daeb04d93bc748f049ba2ce946239892509081900360e00190a2505050505050505050565b6000821580613020575081155b1561302d57506001610639565b60008383111561304e57613047838563ffffffff6137ba16565b9050613061565b61305e848463ffffffff6137ba16565b90505b600661306b6138d1565b11159392505050565b61307c613a8e565b600080600080600080600080613090611714565b6001600160a01b03166315987eb68d8d8d6040518463ffffffff1660e01b815260040180846001600160a01b03166001600160a01b0316815260200183815260200182815260200193505050506101006040518083038186806130f161390a565b1580156130fd57600080fd5b505a61310761393c565b505050505015801561311d573d6000803e3d6000fd5b505050506040513d61010081101561313457600080fd5b50805160208083015160408085015160608087015160808089015160a0808b015160c0808d015160e09d8e01518a5161010081018c529d8e529b8d019a909a52978b019690965293890192909252870152850152830152918101919091529c9b505050505050505050505050565b60008060008060008060006131b5611714565b6001600160a01b03166315987eb68b8b8b6040518463ffffffff1660e01b815260040180846001600160a01b03166001600160a01b03168152602001838152602001828152602001935050505061010060405180830381868061321661390a565b15801561322257600080fd5b505a61322c61393c565b5050505050158015613242573d6000803e3d6000fd5b505050506040513d61010081101561325957600080fd5b508051604082015160a083015160c084015160e090940151929850909650945090925090506000613288611d7b565b9050806001600160a01b031663109e46a287858760056132a66138d1565b6040518563ffffffff1660e01b81526004018085815260200184815260200183815260200182815260200194505050505060206040518083038186806132ea61390a565b1580156132f657600080fd5b505a61330061393c565b5050505050158015613316573d6000803e3d6000fd5b505050506040513d602081101561332c57600080fd5b505197506001600160a01b03811663109e46a2868487600561334c6138d1565b6040518563ffffffff1660e01b815260040180858152602001848152602001838152602001828152602001945050505050602060405180830381868061339061390a565b15801561339c57600080fd5b505a6133a661393c565b50505050501580156133bc573d6000803e3d6000fd5b505050506040513d60208110156133d257600080fd5b5051979b979a509698505050505050505050565b600061063661347e8373__$cc56be524fc9a50cd50be137f56c651270$__63907af6c06040518163ffffffff1660e01b8152600401602060405180830381868061342e61390a565b15801561343a57600080fd5b505a613444613ad9565b505050505015801561345a573d6000803e3d6000fd5b505050506040513d602081101561347057600080fd5b50519063ffffffff61289a16565b849063ffffffff6137e416565b600061176566119959541bdbdb60ca1b6040518060400160405280601781526020017f4d697373696e6720466565506f6f6c20616464726573730000000000000000008152506127da565b6134de611d38565b6001600160a01b03166332608039836040518263ffffffff1660e01b815260040180828152602001915050602060405180830381868061351c61390a565b15801561352857600080fd5b505a61353261393c565b5050505050158015613548573d6000803e3d6000fd5b505050506040513d602081101561355e57600080fd5b505160408051632770a7eb60e21b81526001600160a01b0386811660048301526024820185905291519190921691639dc29fac91604480830192600092919082900301818387806135ad61390a565b1580156135b957600080fd5b505a6135c36139b9565b5050505050501580156135da573d6000803e3d6000fd5b505050506135e66117d9565b6001600160a01b031663ace88afd8484846040518463ffffffff1660e01b815260040180846001600160a01b03166001600160a01b03168152602001838152602001828152602001935050505060006040518083038160008780612d7d61390a565b613650611d38565b6001600160a01b03166332608039836040518263ffffffff1660e01b815260040180828152602001915050602060405180830381868061368e61390a565b15801561369a57600080fd5b505a6136a461393c565b50505050501580156136ba573d6000803e3d6000fd5b505050506040513d60208110156136d057600080fd5b50516040805163219e412d60e21b81526001600160a01b038681166004830152602482018590529151919092169163867904b4916044808301926000929190829003018183878061371f61390a565b15801561372b57600080fd5b505a6137356139b9565b50505050505015801561374c573d6000803e3d6000fd5b505050506137586117d9565b6001600160a01b0316636f01a9868484846040518463ffffffff1660e01b815260040180846001600160a01b03166001600160a01b03168152602001838152602001828152602001935050505060006040518083038160008780612d7d61390a565b6000610636826137d885670de0b6b3a764000063ffffffff61380e16565b9063ffffffff61386716565b6000670de0b6b3a76400006137ff848463ffffffff61380e16565b8161380657fe5b049392505050565b60008261381d57506000610639565b8282028284828161382a57fe5b04146106365760405162461bcd60e51b8152600401808060200182810382526021815260200180613bdb6021913960400191505060405180910390fd5b60008082116138bd576040805162461bcd60e51b815260206004820152601a60248201527f536166654d6174683a206469766973696f6e206279207a65726f000000000000604482015290519081900360640190fd5b60008284816138c857fe5b04949350505050565b630412cc4160e31b6208000090815262080004839052632096620890602081602481336000905af18061390357600080fd5b5051925050565b63c3382d0f60e01b620800009081526208000483905263c3382d0f90602081602481336000905af18061390357600080fd5b63fbb0f79d60e01b620800009081526208000484905263fbb0f79d9060005b8781101561397657868101518282016024015260200161395b565b5088888860240183336000905af18061398e57600080fd5b98505050565b6373509064620800008160e01b8152602081600483336000905af18061390357600080fd5b63131b5f2160e21b6208000090815262080004849052634c6d7c849060005b888110156139f35787810151828201602401526020016139d8565b5089898960240183336000905af180613a0b57600080fd5b99505050565b630146e59560e51b6208000090815262080004839052620800248490526328dcb2a090600081604481336000905af18061160257600080fd5b6040518061030001604052806018906020820280388339509192915050565b63bdbf8c36620800008160e01b8152602081600483336000905af18061390357600080fd5b60405180610100016040528060008019168152602001600081526020016000801916815260200160008152602001600081526020016000815260200160008152602001600081525090565b6345e97ddb60e01b62080000908152620800048490526345e97ddb906000871561397657868101518282016024015260200161395b56fe596f75206d757374206265206e6f6d696e61746564206265666f726520796f752063616e20616363657074206f776e6572736869704d697373696e672044656c6567617465417070726f76616c73206164647265737345786368616e6765723a204f6e6c792073796e746865746978206f7220612073796e746820636f6e74726163742063616e20706572666f726d207468697320616374696f6e4f6e6c792074686520636f6e7472616374206f776e6572206d617920706572666f726d207468697320616374696f6e536166654d6174683a206d756c7469706c69636174696f6e206f766572666c6f7743616e6e6f7420736574746c6520647572696e672077616974696e6720706572696f64a265627a7a72315820f70f91e5f72bc28c684b8bfbb2dad42e42b0bb40ed8d795d88335875f643269864736f6c637828302e352e31362d646576656c6f702e323032302e382e31332b636f6d6d69742e36626530393032660058536166654d6174683a206d756c7469706c69636174696f6e206f766572666c6f77",
			"opcodes": "PUSH2 0x160 PUSH1 0x40 MSTORE PUSH12 0x53797374656D537461747573 PUSH1 0xA0 SHL PUSH1 0x80 SWAP1 DUP2 MSTORE PUSH13 0x45786368616E67655374617465 PUSH1 0x98 SHL PUSH1 0xA0 MSTORE PUSH13 0x45786368616E67655261746573 PUSH1 0x98 SHL PUSH1 0xC0 MSTORE PUSH9 0xA6F2DCE8D0CAE8D2F PUSH1 0xBB SHL PUSH1 0xE0 MSTORE PUSH7 0x119959541BDBDB PUSH1 0xCA SHL PUSH2 0x100 MSTORE PUSH17 0x44656C6567617465417070726F76616C73 PUSH1 0x78 SHL PUSH2 0x120 MSTORE PUSH6 0x24B9B9BAB2B9 PUSH1 0xD1 SHL PUSH2 0x140 MSTORE PUSH3 0x98 SWAP1 PUSH1 0x8 SWAP1 PUSH1 0x7 PUSH3 0x457 JUMP JUMPDEST POP CALLVALUE DUP1 ISZERO PUSH3 0xA6 JUMPI PUSH1 0x0 DUP1 REVERT JUMPDEST POP PUSH1 0x40 MLOAD PUSH3 0x4283 CODESIZE SUB DUP1 PUSH3 0x4283 DUP4 CODECOPY DUP2 DUP2 ADD PUSH1 0x40 MSTORE PUSH1 0x40 DUP2 LT ISZERO PUSH3 0xCC JUMPI PUSH1 0x0 DUP1 REVERT JUMPDEST POP DUP1 MLOAD PUSH1 0x20 SWAP1 SWAP2 ADD MLOAD PUSH1 0x40 DUP1 MLOAD PUSH2 0x300 DUP2 ADD SWAP2 DUP3 SWAP1 MSTORE DUP3 SWAP2 PUSH1 0x8 SWAP1 PUSH1 0x18 SWAP1 DUP3 DUP5 JUMPDEST DUP2 PUSH3 0xF8 PUSH3 0x4A5 JUMP JUMPDEST DUP2 MSTORE PUSH1 0x20 ADD SWAP1 PUSH1 0x1 ADD SWAP1 DUP1 DUP4 GT PUSH3 0xED JUMPI POP DUP8 SWAP4 POP POP POP POP PUSH1 0x1 PUSH1 0x1 PUSH1 0xA0 SHL SUB DUP2 AND PUSH3 0x16D JUMPI PUSH1 0x40 DUP1 MLOAD PUSH3 0x461BCD PUSH1 0xE5 SHL DUP2 MSTORE PUSH1 0x20 PUSH1 0x4 DUP3 ADD MSTORE PUSH1 0x19 PUSH1 0x24 DUP3 ADD MSTORE PUSH32 0x4F776E657220616464726573732063616E6E6F74206265203000000000000000 PUSH1 0x44 DUP3 ADD MSTORE SWAP1 MLOAD SWAP1 DUP2 SWAP1 SUB PUSH1 0x64 ADD SWAP1 REVERT JUMPDEST DUP1 PUSH1 0x0 PUSH1 0x1 DUP2 PUSH3 0x17D PUSH3 0x4A5 JUMP JUMPDEST DUP2 PUSH1 0x1 PUSH1 0x1 PUSH1 0xA0 SHL SUB MUL NOT AND SWAP1 DUP4 PUSH1 0x1 PUSH1 0x1 PUSH1 0xA0 SHL SUB AND MUL OR SWAP1 PUSH3 0x1A1 PUSH3 0x4DF JUMP JUMPDEST POP POP PUSH1 0x40 DUP1 MLOAD PUSH1 0x0 DUP2 MSTORE PUSH1 0x1 PUSH1 0x1 PUSH1 0xA0 SHL SUB DUP5 AND PUSH1 0x20 DUP3 ADD MSTORE DUP2 MLOAD PUSH32 0xB532073B38C83145E3E5135377A08BF9AAB55BC0FD7C1179CD4FB995D2A5159C SWAP4 POP SWAP1 DUP2 SWAP1 SUB SWAP1 SWAP2 ADD SWAP1 LOG1 POP PUSH1 0x0 DUP1 DUP1 PUSH3 0x1F7 PUSH3 0x4A5 JUMP JUMPDEST SWAP1 PUSH2 0x100 EXP SWAP1 DIV PUSH1 0x1 PUSH1 0x1 PUSH1 0xA0 SHL SUB AND PUSH1 0x1 PUSH1 0x1 PUSH1 0xA0 SHL SUB AND EQ ISZERO PUSH3 0x258 JUMPI PUSH1 0x40 DUP1 MLOAD PUSH3 0x461BCD PUSH1 0xE5 SHL DUP2 MSTORE PUSH1 0x20 PUSH1 0x4 DUP3 ADD MSTORE PUSH1 0x11 PUSH1 0x24 DUP3 ADD MSTORE PUSH17 0x13DDDB995C881B5D5CDD081899481CD95D PUSH1 0x7A SHL PUSH1 0x44 DUP3 ADD MSTORE SWAP1 MLOAD SWAP1 DUP2 SWAP1 SUB PUSH1 0x64 ADD SWAP1 REVERT JUMPDEST PUSH1 0x0 JUMPDEST PUSH1 0x18 DUP2 LT ISZERO PUSH3 0x2E8 JUMPI PUSH1 0x0 DUP3 DUP3 PUSH1 0x18 DUP2 LT PUSH3 0x274 JUMPI INVALID JUMPDEST PUSH1 0x20 MUL ADD MLOAD EQ PUSH3 0x2D9 JUMPI PUSH1 0x4 DUP3 DUP3 PUSH1 0x18 DUP2 LT PUSH3 0x28E JUMPI INVALID JUMPDEST PUSH1 0x20 MUL ADD MLOAD SWAP1 DUP1 PUSH1 0x1 DUP2 PUSH3 0x2A2 PUSH3 0x4A5 JUMP JUMPDEST ADD DUP1 DUP3 PUSH3 0x2AF PUSH3 0x4DF JUMP JUMPDEST POP POP PUSH1 0x0 SWAP3 DUP4 MSTORE PUSH1 0x20 SWAP1 SWAP3 KECCAK256 SWAP2 SWAP3 SWAP2 DUP4 ADD PUSH1 0x0 NOT ADD SWAP1 POP PUSH3 0x2D0 PUSH3 0x4DF JUMP JUMPDEST POP POP POP PUSH3 0x2DF JUMP JUMPDEST PUSH3 0x2E8 JUMP JUMPDEST PUSH1 0x1 ADD PUSH3 0x25B JUMP JUMPDEST POP DUP2 PUSH1 0x2 PUSH1 0x1 DUP2 PUSH3 0x2F9 PUSH3 0x4A5 JUMP JUMPDEST DUP2 PUSH1 0x1 PUSH1 0x1 PUSH1 0xA0 SHL SUB MUL NOT AND SWAP1 DUP4 PUSH1 0x1 PUSH1 0x1 PUSH1 0xA0 SHL SUB AND MUL OR SWAP1 PUSH3 0x31D PUSH3 0x4DF JUMP JUMPDEST POP POP POP POP POP PUSH1 0xB4 PUSH1 0x5 DUP2 SWAP1 PUSH3 0x332 PUSH3 0x4DF JUMP JUMPDEST POP POP POP PUSH3 0x3D8 PUSH1 0x3 PUSH20 0x0 PUSH4 0x907AF6C0 PUSH1 0x40 MLOAD DUP2 PUSH4 0xFFFFFFFF AND PUSH1 0xE0 SHL DUP2 MSTORE PUSH1 0x4 ADD PUSH1 0x20 PUSH1 0x40 MLOAD DUP1 DUP4 SUB DUP2 DUP7 DUP1 PUSH3 0x37C PUSH3 0x51E JUMP JUMPDEST ISZERO DUP1 ISZERO PUSH3 0x389 JUMPI PUSH1 0x0 DUP1 REVERT JUMPDEST POP GAS PUSH3 0x395 PUSH3 0x551 JUMP JUMPDEST POP POP POP POP POP ISZERO DUP1 ISZERO PUSH3 0x3AC JUMPI RETURNDATASIZE PUSH1 0x0 DUP1 RETURNDATACOPY RETURNDATASIZE PUSH1 0x0 REVERT JUMPDEST POP POP POP POP PUSH1 0x40 MLOAD RETURNDATASIZE PUSH1 0x20 DUP2 LT ISZERO PUSH3 0x3C3 JUMPI PUSH1 0x0 DUP1 REVERT JUMPDEST POP MLOAD SWAP1 PUSH3 0x3F0 PUSH1 0x20 SWAP1 DUP2 SHL PUSH3 0x380E OR SWAP1 SHR JUMP JUMPDEST DUP1 PUSH1 0x6 PUSH3 0x3E5 PUSH3 0x4DF JUMP JUMPDEST POP POP POP POP POP PUSH3 0x5D9 JUMP JUMPDEST PUSH1 0x0 DUP3 PUSH3 0x401 JUMPI POP PUSH1 0x0 PUSH3 0x451 JUMP JUMPDEST DUP3 DUP3 MUL DUP3 DUP5 DUP3 DUP2 PUSH3 0x40F JUMPI INVALID JUMPDEST DIV EQ PUSH3 0x44E JUMPI PUSH1 0x40 MLOAD PUSH3 0x461BCD PUSH1 0xE5 SHL DUP2 MSTORE PUSH1 0x4 ADD DUP1 DUP1 PUSH1 0x20 ADD DUP3 DUP2 SUB DUP3 MSTORE PUSH1 0x21 DUP2 MSTORE PUSH1 0x20 ADD DUP1 PUSH3 0x4262 PUSH1 0x21 SWAP2 CODECOPY PUSH1 0x40 ADD SWAP2 POP POP PUSH1 0x40 MLOAD DUP1 SWAP2 SUB SWAP1 REVERT JUMPDEST SWAP1 POP JUMPDEST SWAP3 SWAP2 POP POP JUMP JUMPDEST DUP3 PUSH1 0x18 DUP2 ADD SWAP3 DUP3 ISZERO PUSH3 0x493 JUMPI SWAP2 PUSH1 0x20 MUL DUP3 ADD JUMPDEST DUP3 DUP2 GT ISZERO PUSH3 0x493 JUMPI DUP3 MLOAD DUP3 PUSH3 0x481 PUSH3 0x4DF JUMP JUMPDEST POP POP SWAP2 PUSH1 0x20 ADD SWAP2 SWAP1 PUSH1 0x1 ADD SWAP1 PUSH3 0x46B JUMP JUMPDEST POP PUSH3 0x4A1 SWAP3 SWAP2 POP PUSH3 0x5AC JUMP JUMPDEST POP SWAP1 JUMP JUMPDEST PUSH4 0x412CC41 PUSH1 0xE3 SHL PUSH3 0x80000 SWAP1 DUP2 MSTORE PUSH3 0x80004 DUP4 SWAP1 MSTORE PUSH4 0x20966208 SWAP1 PUSH1 0x20 DUP2 PUSH1 0x24 DUP2 CALLER PUSH1 0x0 SWAP1 GAS CALL DUP1 PUSH3 0x4D8 JUMPI PUSH1 0x0 DUP1 REVERT JUMPDEST POP MLOAD SWAP3 POP POP JUMP JUMPDEST PUSH4 0x146E595 PUSH1 0xE5 SHL PUSH3 0x80000 SWAP1 DUP2 MSTORE PUSH3 0x80004 DUP4 SWAP1 MSTORE PUSH3 0x80024 DUP5 SWAP1 MSTORE PUSH4 0x28DCB2A0 SWAP1 PUSH1 0x0 DUP2 PUSH1 0x44 DUP2 CALLER PUSH1 0x0 SWAP1 GAS CALL DUP1 PUSH3 0x519 JUMPI PUSH1 0x0 DUP1 REVERT JUMPDEST POP POP POP JUMP JUMPDEST PUSH4 0xC3382D0F PUSH1 0xE0 SHL PUSH3 0x80000 SWAP1 DUP2 MSTORE PUSH3 0x80004 DUP4 SWAP1 MSTORE PUSH4 0xC3382D0F SWAP1 PUSH1 0x20 DUP2 PUSH1 0x24 DUP2 CALLER PUSH1 0x0 SWAP1 GAS CALL DUP1 PUSH3 0x4D8 JUMPI PUSH1 0x0 DUP1 REVERT JUMPDEST PUSH4 0x45E97DDB PUSH1 0xE0 SHL PUSH3 0x80000 SWAP1 DUP2 MSTORE PUSH3 0x80004 DUP5 SWAP1 MSTORE PUSH4 0x45E97DDB SWAP1 PUSH1 0x0 JUMPDEST DUP8 DUP2 LT ISZERO PUSH3 0x58D JUMPI DUP7 DUP2 ADD MLOAD DUP3 DUP3 ADD PUSH1 0x24 ADD MSTORE PUSH1 0x20 ADD PUSH3 0x570 JUMP JUMPDEST POP DUP9 DUP9 DUP9 PUSH1 0x24 ADD DUP4 CALLER PUSH1 0x0 SWAP1 GAS CALL DUP1 PUSH3 0x5A6 JUMPI PUSH1 0x0 DUP1 REVERT JUMPDEST SWAP9 POP POP POP JUMP JUMPDEST PUSH3 0x5D6 SWAP2 SWAP1 JUMPDEST DUP1 DUP3 GT ISZERO PUSH3 0x4A1 JUMPI PUSH1 0x0 DUP1 DUP3 PUSH3 0x5CA PUSH3 0x4DF JUMP JUMPDEST POP POP POP PUSH1 0x1 ADD PUSH3 0x5B3 JUMP JUMPDEST SWAP1 JUMP JUMPDEST PUSH2 0x3C79 DUP1 PUSH3 0x5E9 PUSH1 0x0 CODECOPY PUSH1 0x0 RETURN INVALID PUSH1 0x80 PUSH1 0x40 MSTORE CALLVALUE DUP1 ISZERO PUSH2 0x10 JUMPI PUSH1 0x0 DUP1 REVERT JUMPDEST POP PUSH1 0x4 CALLDATASIZE LT PUSH2 0x1A9 JUMPI PUSH1 0x0 CALLDATALOAD PUSH1 0xE0 SHR DUP1 PUSH4 0x53A47BB7 GT PUSH2 0xF9 JUMPI DUP1 PUSH4 0x89257117 GT PUSH2 0x97 JUMPI DUP1 PUSH4 0xC6C9D828 GT PUSH2 0x71 JUMPI DUP1 PUSH4 0xC6C9D828 EQ PUSH2 0x4EF JUMPI DUP1 PUSH4 0xD6F32E06 EQ PUSH2 0x50C JUMPI DUP1 PUSH4 0xE3235C91 EQ PUSH2 0x538 JUMPI DUP1 PUSH4 0xF450AA34 EQ PUSH2 0x540 JUMPI PUSH2 0x1A9 JUMP JUMPDEST DUP1 PUSH4 0x89257117 EQ PUSH2 0x49E JUMPI DUP1 PUSH4 0x8DA5CB5B EQ PUSH2 0x4A6 JUMPI DUP1 PUSH4 0xAB49848C EQ PUSH2 0x4AE JUMPI PUSH2 0x1A9 JUMP JUMPDEST DUP1 PUSH4 0x635A3872 GT PUSH2 0xD3 JUMPI DUP1 PUSH4 0x635A3872 EQ PUSH2 0x41A JUMPI DUP1 PUSH4 0x6A1C4758 EQ PUSH2 0x437 JUMPI DUP1 PUSH4 0x79BA5097 EQ PUSH2 0x479 JUMPI DUP1 PUSH4 0x7DD1A57A EQ PUSH2 0x481 JUMPI PUSH2 0x1A9 JUMP JUMPDEST DUP1 PUSH4 0x53A47BB7 EQ PUSH2 0x3BB JUMPI DUP1 PUSH4 0x57AF302C EQ PUSH2 0x3C3 JUMPI DUP1 PUSH4 0x631E1444 EQ PUSH2 0x3F4 JUMPI PUSH2 0x1A9 JUMP JUMPDEST DUP1 PUSH4 0x1A5C6095 GT PUSH2 0x166 JUMPI DUP1 PUSH4 0x372A395A GT PUSH2 0x140 JUMPI DUP1 PUSH4 0x372A395A EQ PUSH2 0x34D JUMPI DUP1 PUSH4 0x3BE99E6F EQ PUSH2 0x355 JUMPI DUP1 PUSH4 0x3FA70F45 EQ PUSH2 0x37B JUMPI DUP1 PUSH4 0x4C268FC8 EQ PUSH2 0x383 JUMPI PUSH2 0x1A9 JUMP JUMPDEST DUP1 PUSH4 0x1A5C6095 EQ PUSH2 0x2E1 JUMPI DUP1 PUSH4 0x1B16802C EQ PUSH2 0x304 JUMPI DUP1 PUSH4 0x1E6E2190 EQ PUSH2 0x330 JUMPI PUSH2 0x1A9 JUMP JUMPDEST DUP1 PUSH4 0x4F3BCEC EQ PUSH2 0x1AE JUMPI DUP1 PUSH4 0x59C29EC EQ PUSH2 0x1D2 JUMPI DUP1 PUSH4 0xA1E187D EQ PUSH2 0x210 JUMPI DUP1 PUSH4 0xB9E31C9 EQ PUSH2 0x252 JUMPI DUP1 PUSH4 0x1627540C EQ PUSH2 0x271 JUMPI DUP1 PUSH4 0x19D5C665 EQ PUSH2 0x297 JUMPI JUMPDEST PUSH1 0x0 DUP1 REVERT JUMPDEST PUSH2 0x1B6 PUSH2 0x569 JUMP JUMPDEST PUSH1 0x40 DUP1 MLOAD PUSH1 0x1 PUSH1 0x1 PUSH1 0xA0 SHL SUB SWAP1 SWAP3 AND DUP3 MSTORE MLOAD SWAP1 DUP2 SWAP1 SUB PUSH1 0x20 ADD SWAP1 RETURN JUMPDEST PUSH2 0x1FE PUSH1 0x4 DUP1 CALLDATASIZE SUB PUSH1 0x40 DUP2 LT ISZERO PUSH2 0x1E8 JUMPI PUSH1 0x0 DUP1 REVERT JUMPDEST POP PUSH1 0x1 PUSH1 0x1 PUSH1 0xA0 SHL SUB DUP2 CALLDATALOAD AND SWAP1 PUSH1 0x20 ADD CALLDATALOAD PUSH2 0x588 JUMP JUMPDEST PUSH1 0x40 DUP1 MLOAD SWAP2 DUP3 MSTORE MLOAD SWAP1 DUP2 SWAP1 SUB PUSH1 0x20 ADD SWAP1 RETURN JUMPDEST PUSH2 0x1FE PUSH1 0x4 DUP1 CALLDATASIZE SUB PUSH1 0xA0 DUP2 LT ISZERO PUSH2 0x226 JUMPI PUSH1 0x0 DUP1 REVERT JUMPDEST POP PUSH1 0x1 PUSH1 0x1 PUSH1 0xA0 SHL SUB DUP2 CALLDATALOAD DUP2 AND SWAP2 PUSH1 0x20 DUP2 ADD CALLDATALOAD SWAP2 PUSH1 0x40 DUP3 ADD CALLDATALOAD SWAP2 PUSH1 0x60 DUP2 ADD CALLDATALOAD SWAP2 PUSH1 0x80 SWAP1 SWAP2 ADD CALLDATALOAD AND PUSH2 0x63F JUMP JUMPDEST PUSH2 0x26F PUSH1 0x4 DUP1 CALLDATASIZE SUB PUSH1 0x20 DUP2 LT ISZERO PUSH2 0x268 JUMPI PUSH1 0x0 DUP1 REVERT JUMPDEST POP CALLDATALOAD PUSH2 0x764 JUMP JUMPDEST STOP JUMPDEST PUSH2 0x26F PUSH1 0x4 DUP1 CALLDATASIZE SUB PUSH1 0x20 DUP2 LT ISZERO PUSH2 0x287 JUMPI PUSH1 0x0 DUP1 REVERT JUMPDEST POP CALLDATALOAD PUSH1 0x1 PUSH1 0x1 PUSH1 0xA0 SHL SUB AND PUSH2 0xA10 JUMP JUMPDEST PUSH2 0x2C3 PUSH1 0x4 DUP1 CALLDATASIZE SUB PUSH1 0x40 DUP2 LT ISZERO PUSH2 0x2AD JUMPI PUSH1 0x0 DUP1 REVERT JUMPDEST POP PUSH1 0x1 PUSH1 0x1 PUSH1 0xA0 SHL SUB DUP2 CALLDATALOAD AND SWAP1 PUSH1 0x20 ADD CALLDATALOAD PUSH2 0xAF4 JUMP JUMPDEST PUSH1 0x40 DUP1 MLOAD SWAP4 DUP5 MSTORE PUSH1 0x20 DUP5 ADD SWAP3 SWAP1 SWAP3 MSTORE DUP3 DUP3 ADD MSTORE MLOAD SWAP1 DUP2 SWAP1 SUB PUSH1 0x60 ADD SWAP1 RETURN JUMPDEST PUSH2 0x1FE PUSH1 0x4 DUP1 CALLDATASIZE SUB PUSH1 0x40 DUP2 LT ISZERO PUSH2 0x2F7 JUMPI PUSH1 0x0 DUP1 REVERT JUMPDEST POP DUP1 CALLDATALOAD SWAP1 PUSH1 0x20 ADD CALLDATALOAD PUSH2 0xB12 JUMP JUMPDEST PUSH2 0x2C3 PUSH1 0x4 DUP1 CALLDATASIZE SUB PUSH1 0x40 DUP2 LT ISZERO PUSH2 0x31A JUMPI PUSH1 0x0 DUP1 REVERT JUMPDEST POP PUSH1 0x1 PUSH1 0x1 PUSH1 0xA0 SHL SUB DUP2 CALLDATALOAD AND SWAP1 PUSH1 0x20 ADD CALLDATALOAD PUSH2 0xB1E JUMP JUMPDEST PUSH2 0x26F PUSH1 0x4 DUP1 CALLDATASIZE SUB PUSH1 0x20 DUP2 LT ISZERO PUSH2 0x346 JUMPI PUSH1 0x0 DUP1 REVERT JUMPDEST POP CALLDATALOAD PUSH2 0xBB0 JUMP JUMPDEST PUSH2 0x1FE PUSH2 0xC70 JUMP JUMPDEST PUSH2 0x26F PUSH1 0x4 DUP1 CALLDATASIZE SUB PUSH1 0x20 DUP2 LT ISZERO PUSH2 0x36B JUMPI PUSH1 0x0 DUP1 REVERT JUMPDEST POP CALLDATALOAD PUSH1 0x1 PUSH1 0x1 PUSH1 0xA0 SHL SUB AND PUSH2 0xC7D JUMP JUMPDEST PUSH2 0x1FE PUSH2 0xE8A JUMP JUMPDEST PUSH2 0x1FE PUSH1 0x4 DUP1 CALLDATASIZE SUB PUSH1 0x80 DUP2 LT ISZERO PUSH2 0x399 JUMPI PUSH1 0x0 DUP1 REVERT JUMPDEST POP PUSH1 0x1 PUSH1 0x1 PUSH1 0xA0 SHL SUB DUP2 CALLDATALOAD AND SWAP1 PUSH1 0x20 DUP2 ADD CALLDATALOAD SWAP1 PUSH1 0x40 DUP2 ADD CALLDATALOAD SWAP1 PUSH1 0x60 ADD CALLDATALOAD PUSH2 0xE8F JUMP JUMPDEST PUSH2 0x1B6 PUSH2 0xFD5 JUMP JUMPDEST PUSH2 0x3E0 PUSH1 0x4 DUP1 CALLDATASIZE SUB PUSH1 0x20 DUP2 LT ISZERO PUSH2 0x3D9 JUMPI PUSH1 0x0 DUP1 REVERT JUMPDEST POP CALLDATALOAD PUSH2 0xFE1 JUMP JUMPDEST PUSH1 0x40 DUP1 MLOAD SWAP2 ISZERO ISZERO DUP3 MSTORE MLOAD SWAP1 DUP2 SWAP1 SUB PUSH1 0x20 ADD SWAP1 RETURN JUMPDEST PUSH2 0x3E0 PUSH1 0x4 DUP1 CALLDATASIZE SUB PUSH1 0x20 DUP2 LT ISZERO PUSH2 0x40A JUMPI PUSH1 0x0 DUP1 REVERT JUMPDEST POP CALLDATALOAD PUSH1 0x1 PUSH1 0x1 PUSH1 0xA0 SHL SUB AND PUSH2 0x1035 JUMP JUMPDEST PUSH2 0x26F PUSH1 0x4 DUP1 CALLDATASIZE SUB PUSH1 0x20 DUP2 LT ISZERO PUSH2 0x430 JUMPI PUSH1 0x0 DUP1 REVERT JUMPDEST POP CALLDATALOAD PUSH2 0x11E1 JUMP JUMPDEST PUSH2 0x1FE PUSH1 0x4 DUP1 CALLDATASIZE SUB PUSH1 0xA0 DUP2 LT ISZERO PUSH2 0x44D JUMPI PUSH1 0x0 DUP1 REVERT JUMPDEST POP PUSH1 0x1 PUSH1 0x1 PUSH1 0xA0 SHL SUB DUP2 CALLDATALOAD DUP2 AND SWAP2 PUSH1 0x20 DUP2 ADD CALLDATALOAD SWAP1 SWAP2 AND SWAP1 PUSH1 0x40 DUP2 ADD CALLDATALOAD SWAP1 PUSH1 0x60 DUP2 ADD CALLDATALOAD SWAP1 PUSH1 0x80 ADD CALLDATALOAD PUSH2 0x128D JUMP JUMPDEST PUSH2 0x26F PUSH2 0x1492 JUMP JUMPDEST PUSH2 0x1FE PUSH1 0x4 DUP1 CALLDATASIZE SUB PUSH1 0x20 DUP2 LT ISZERO PUSH2 0x497 JUMPI PUSH1 0x0 DUP1 REVERT JUMPDEST POP CALLDATALOAD PUSH2 0x1607 JUMP JUMPDEST PUSH2 0x1FE PUSH2 0x161D JUMP JUMPDEST PUSH2 0x1B6 PUSH2 0x1627 JUMP JUMPDEST PUSH2 0x4B6 PUSH2 0x1632 JUMP JUMPDEST PUSH1 0x40 MLOAD DUP1 DUP3 PUSH2 0x300 DUP1 DUP4 DUP4 PUSH1 0x0 JUMPDEST DUP4 DUP2 LT ISZERO PUSH2 0x4DC JUMPI DUP2 DUP2 ADD MLOAD DUP4 DUP3 ADD MSTORE PUSH1 0x20 ADD PUSH2 0x4C4 JUMP JUMPDEST POP POP POP POP SWAP1 POP ADD SWAP2 POP POP PUSH1 0x40 MLOAD DUP1 SWAP2 SUB SWAP1 RETURN JUMPDEST PUSH2 0x1FE PUSH1 0x4 DUP1 CALLDATASIZE SUB PUSH1 0x20 DUP2 LT ISZERO PUSH2 0x505 JUMPI PUSH1 0x0 DUP1 REVERT JUMPDEST POP CALLDATALOAD PUSH2 0x1694 JUMP JUMPDEST PUSH2 0x3E0 PUSH1 0x4 DUP1 CALLDATASIZE SUB PUSH1 0x40 DUP2 LT ISZERO PUSH2 0x522 JUMPI PUSH1 0x0 DUP1 REVERT JUMPDEST POP PUSH1 0x1 PUSH1 0x1 PUSH1 0xA0 SHL SUB DUP2 CALLDATALOAD AND SWAP1 PUSH1 0x20 ADD CALLDATALOAD PUSH2 0x16BD JUMP JUMPDEST PUSH2 0x1FE PUSH2 0x16EF JUMP JUMPDEST PUSH2 0x2C3 PUSH1 0x4 DUP1 CALLDATASIZE SUB PUSH1 0x60 DUP2 LT ISZERO PUSH2 0x556 JUMPI PUSH1 0x0 DUP1 REVERT JUMPDEST POP DUP1 CALLDATALOAD SWAP1 PUSH1 0x20 DUP2 ADD CALLDATALOAD SWAP1 PUSH1 0x40 ADD CALLDATALOAD PUSH2 0x16F4 JUMP JUMPDEST PUSH1 0x0 PUSH1 0x2 PUSH2 0x575 PUSH2 0x38D1 JUMP JUMPDEST SWAP1 PUSH2 0x100 EXP SWAP1 DIV PUSH1 0x1 PUSH1 0x1 PUSH1 0xA0 SHL SUB AND DUP2 JUMP JUMPDEST PUSH1 0x0 PUSH2 0x636 PUSH2 0x595 PUSH2 0x1714 JUMP JUMPDEST PUSH1 0x1 PUSH1 0x1 PUSH1 0xA0 SHL SUB AND PUSH4 0xF1406DC8 DUP6 DUP6 PUSH1 0x40 MLOAD DUP4 PUSH4 0xFFFFFFFF AND PUSH1 0xE0 SHL DUP2 MSTORE PUSH1 0x4 ADD DUP1 DUP4 PUSH1 0x1 PUSH1 0x1 PUSH1 0xA0 SHL SUB AND PUSH1 0x1 PUSH1 0x1 PUSH1 0xA0 SHL SUB AND DUP2 MSTORE PUSH1 0x20 ADD DUP3 DUP2 MSTORE PUSH1 0x20 ADD SWAP3 POP POP POP PUSH1 0x20 PUSH1 0x40 MLOAD DUP1 DUP4 SUB DUP2 DUP7 DUP1 PUSH2 0x5ED PUSH2 0x390A JUMP JUMPDEST ISZERO DUP1 ISZERO PUSH2 0x5F9 JUMPI PUSH1 0x0 DUP1 REVERT JUMPDEST POP GAS PUSH2 0x603 PUSH2 0x393C JUMP JUMPDEST POP POP POP POP POP ISZERO DUP1 ISZERO PUSH2 0x619 JUMPI RETURNDATASIZE PUSH1 0x0 DUP1 RETURNDATACOPY RETURNDATASIZE PUSH1 0x0 REVERT JUMPDEST POP POP POP POP PUSH1 0x40 MLOAD RETURNDATASIZE PUSH1 0x20 DUP2 LT ISZERO PUSH2 0x62F JUMPI PUSH1 0x0 DUP1 REVERT JUMPDEST POP MLOAD PUSH2 0x176A JUMP JUMPDEST SWAP1 POP JUMPDEST SWAP3 SWAP2 POP POP JUMP JUMPDEST PUSH1 0x0 DUP1 PUSH2 0x64A PUSH2 0x17D9 JUMP JUMPDEST SWAP1 POP DUP1 PUSH1 0x1 PUSH1 0x1 PUSH1 0xA0 SHL SUB AND GAS PUSH2 0x65F PUSH2 0x3994 JUMP JUMPDEST PUSH1 0x1 PUSH1 0x1 PUSH1 0xA0 SHL SUB AND EQ DUP1 PUSH2 0x711 JUMPI POP PUSH1 0x0 PUSH1 0x1 PUSH1 0x1 PUSH1 0xA0 SHL SUB DUP3 AND PUSH4 0x16B2213F GAS PUSH2 0x689 PUSH2 0x3994 JUMP JUMPDEST PUSH1 0x40 MLOAD DUP3 PUSH4 0xFFFFFFFF AND PUSH1 0xE0 SHL DUP2 MSTORE PUSH1 0x4 ADD DUP1 DUP3 PUSH1 0x1 PUSH1 0x1 PUSH1 0xA0 SHL SUB AND PUSH1 0x1 PUSH1 0x1 PUSH1 0xA0 SHL SUB AND DUP2 MSTORE PUSH1 0x20 ADD SWAP2 POP POP PUSH1 0x20 PUSH1 0x40 MLOAD DUP1 DUP4 SUB DUP2 DUP7 DUP1 PUSH2 0x6CA PUSH2 0x390A JUMP JUMPDEST ISZERO DUP1 ISZERO PUSH2 0x6D6 JUMPI PUSH1 0x0 DUP1 REVERT JUMPDEST POP GAS PUSH2 0x6E0 PUSH2 0x393C JUMP JUMPDEST POP POP POP POP POP ISZERO DUP1 ISZERO PUSH2 0x6F6 JUMPI RETURNDATASIZE PUSH1 0x0 DUP1 RETURNDATACOPY RETURNDATASIZE PUSH1 0x0 REVERT JUMPDEST POP POP POP POP PUSH1 0x40 MLOAD RETURNDATASIZE PUSH1 0x20 DUP2 LT ISZERO PUSH2 0x70C JUMPI PUSH1 0x0 DUP1 REVERT JUMPDEST POP MLOAD EQ ISZERO JUMPDEST PUSH2 0x74C JUMPI PUSH1 0x40 MLOAD PUSH3 0x461BCD PUSH1 0xE5 SHL DUP2 MSTORE PUSH1 0x4 ADD DUP1 DUP1 PUSH1 0x20 ADD DUP3 DUP2 SUB DUP3 MSTORE PUSH1 0x45 DUP2 MSTORE PUSH1 0x20 ADD DUP1 PUSH2 0x3B67 PUSH1 0x45 SWAP2 CODECOPY PUSH1 0x60 ADD SWAP2 POP POP PUSH1 0x40 MLOAD DUP1 SWAP2 SUB SWAP1 REVERT JUMPDEST PUSH2 0x759 DUP8 DUP8 DUP8 DUP8 DUP8 PUSH2 0x1826 JUMP JUMPDEST SWAP8 SWAP7 POP POP POP POP POP POP POP JUMP JUMPDEST PUSH2 0x76C PUSH2 0x1CE8 JUMP JUMPDEST PUSH1 0x1 PUSH1 0x1 PUSH1 0xA0 SHL SUB AND PUSH4 0x86DABD1 PUSH1 0x40 MLOAD DUP2 PUSH4 0xFFFFFFFF AND PUSH1 0xE0 SHL DUP2 MSTORE PUSH1 0x4 ADD PUSH1 0x0 PUSH1 0x40 MLOAD DUP1 DUP4 SUB DUP2 DUP7 DUP1 PUSH2 0x79F PUSH2 0x390A JUMP JUMPDEST ISZERO DUP1 ISZERO PUSH2 0x7AB JUMPI PUSH1 0x0 DUP1 REVERT JUMPDEST POP GAS PUSH2 0x7B5 PUSH2 0x393C JUMP JUMPDEST POP POP POP POP POP ISZERO DUP1 ISZERO PUSH2 0x7CB JUMPI RETURNDATASIZE PUSH1 0x0 DUP1 RETURNDATACOPY RETURNDATASIZE PUSH1 0x0 REVERT JUMPDEST POP POP POP POP PUSH1 0x0 PUSH1 0x1 PUSH1 0x1 PUSH1 0xA0 SHL SUB AND PUSH2 0x7E2 PUSH2 0x1D38 JUMP JUMPDEST PUSH1 0x1 PUSH1 0x1 PUSH1 0xA0 SHL SUB AND PUSH4 0x32608039 DUP4 PUSH1 0x40 MLOAD DUP3 PUSH4 0xFFFFFFFF AND PUSH1 0xE0 SHL DUP2 MSTORE PUSH1 0x4 ADD DUP1 DUP3 DUP2 MSTORE PUSH1 0x20 ADD SWAP2 POP POP PUSH1 0x20 PUSH1 0x40 MLOAD DUP1 DUP4 SUB DUP2 DUP7 DUP1 PUSH2 0x820 PUSH2 0x390A JUMP JUMPDEST ISZERO DUP1 ISZERO PUSH2 0x82C JUMPI PUSH1 0x0 DUP1 REVERT JUMPDEST POP GAS PUSH2 0x836 PUSH2 0x393C JUMP JUMPDEST POP POP POP POP POP ISZERO DUP1 ISZERO PUSH2 0x84C JUMPI RETURNDATASIZE PUSH1 0x0 DUP1 RETURNDATACOPY RETURNDATASIZE PUSH1 0x0 REVERT JUMPDEST POP POP POP POP PUSH1 0x40 MLOAD RETURNDATASIZE PUSH1 0x20 DUP2 LT ISZERO PUSH2 0x862 JUMPI PUSH1 0x0 DUP1 REVERT JUMPDEST POP MLOAD PUSH1 0x1 PUSH1 0x1 PUSH1 0xA0 SHL SUB AND EQ ISZERO PUSH2 0x8B0 JUMPI PUSH1 0x40 DUP1 MLOAD PUSH3 0x461BCD PUSH1 0xE5 SHL DUP2 MSTORE PUSH1 0x20 PUSH1 0x4 DUP3 ADD MSTORE PUSH1 0xD PUSH1 0x24 DUP3 ADD MSTORE PUSH13 0x9CDE40E6EAC6D040E6F2DCE8D PUSH1 0x9B SHL PUSH1 0x44 DUP3 ADD MSTORE SWAP1 MLOAD SWAP1 DUP2 SWAP1 SUB PUSH1 0x64 ADD SWAP1 REVERT JUMPDEST PUSH2 0x943 DUP2 PUSH2 0x8BC PUSH2 0x1D7B JUMP JUMPDEST PUSH1 0x1 PUSH1 0x1 PUSH1 0xA0 SHL SUB AND PUSH4 0xAC82F608 DUP5 PUSH1 0x40 MLOAD DUP3 PUSH4 0xFFFFFFFF AND PUSH1 0xE0 SHL DUP2 MSTORE PUSH1 0x4 ADD DUP1 DUP3 DUP2 MSTORE PUSH1 0x20 ADD SWAP2 POP POP PUSH1 0x20 PUSH1 0x40 MLOAD DUP1 DUP4 SUB DUP2 DUP7 DUP1 PUSH2 0x8FA PUSH2 0x390A JUMP JUMPDEST ISZERO DUP1 ISZERO PUSH2 0x906 JUMPI PUSH1 0x0 DUP1 REVERT JUMPDEST POP GAS PUSH2 0x910 PUSH2 0x393C JUMP JUMPDEST POP POP POP POP POP ISZERO DUP1 ISZERO PUSH2 0x926 JUMPI RETURNDATASIZE PUSH1 0x0 DUP1 RETURNDATACOPY RETURNDATASIZE PUSH1 0x0 REVERT JUMPDEST POP POP POP POP PUSH1 0x40 MLOAD RETURNDATASIZE PUSH1 0x20 DUP2 LT ISZERO PUSH2 0x93C JUMPI PUSH1 0x0 DUP1 REVERT JUMPDEST POP MLOAD PUSH2 0x1DCC JUMP JUMPDEST PUSH2 0x98B JUMPI PUSH1 0x40 DUP1 MLOAD PUSH3 0x461BCD PUSH1 0xE5 SHL DUP2 MSTORE PUSH1 0x20 PUSH1 0x4 DUP3 ADD MSTORE PUSH1 0x14 PUSH1 0x24 DUP3 ADD MSTORE PUSH20 0x14DE5B9D1A081C1C9A58D9481A5CC81D985B1A59 PUSH1 0x62 SHL PUSH1 0x44 DUP3 ADD MSTORE SWAP1 MLOAD SWAP1 DUP2 SWAP1 SUB PUSH1 0x64 ADD SWAP1 REVERT JUMPDEST PUSH2 0x993 PUSH2 0x1CE8 JUMP JUMPDEST PUSH1 0x1 PUSH1 0x1 PUSH1 0xA0 SHL SUB AND PUSH4 0xABC0BB6E DUP3 PUSH1 0x41 PUSH1 0x40 MLOAD DUP4 PUSH4 0xFFFFFFFF AND PUSH1 0xE0 SHL DUP2 MSTORE PUSH1 0x4 ADD DUP1 DUP4 DUP2 MSTORE PUSH1 0x20 ADD DUP3 DUP2 MSTORE PUSH1 0x20 ADD SWAP3 POP POP POP PUSH1 0x0 PUSH1 0x40 MLOAD DUP1 DUP4 SUB DUP2 PUSH1 0x0 DUP8 DUP1 PUSH2 0x9DC PUSH2 0x390A JUMP JUMPDEST ISZERO DUP1 ISZERO PUSH2 0x9E8 JUMPI PUSH1 0x0 DUP1 REVERT JUMPDEST POP GAS PUSH2 0x9F2 PUSH2 0x39B9 JUMP JUMPDEST POP POP POP POP POP POP ISZERO DUP1 ISZERO PUSH2 0xA09 JUMPI RETURNDATASIZE PUSH1 0x0 DUP1 RETURNDATACOPY RETURNDATASIZE PUSH1 0x0 REVERT JUMPDEST POP POP POP POP POP JUMP JUMPDEST PUSH1 0x0 DUP1 PUSH2 0xA1B PUSH2 0x38D1 JUMP JUMPDEST SWAP1 PUSH2 0x100 EXP SWAP1 DIV PUSH1 0x1 PUSH1 0x1 PUSH1 0xA0 SHL SUB AND PUSH1 0x1 PUSH1 0x1 PUSH1 0xA0 SHL SUB AND GAS PUSH2 0xA3D PUSH2 0x3994 JUMP JUMPDEST PUSH1 0x1 PUSH1 0x1 PUSH1 0xA0 SHL SUB AND EQ PUSH2 0xA82 JUMPI PUSH1 0x40 MLOAD PUSH3 0x461BCD PUSH1 0xE5 SHL DUP2 MSTORE PUSH1 0x4 ADD DUP1 DUP1 PUSH1 0x20 ADD DUP3 DUP2 SUB DUP3 MSTORE PUSH1 0x2F DUP2 MSTORE PUSH1 0x20 ADD DUP1 PUSH2 0x3BAC PUSH1 0x2F SWAP2 CODECOPY PUSH1 0x40 ADD SWAP2 POP POP PUSH1 0x40 MLOAD DUP1 SWAP2 SUB SWAP1 REVERT JUMPDEST DUP1 PUSH1 0x1 DUP1 DUP1 PUSH2 0xA8F PUSH2 0x38D1 JUMP JUMPDEST DUP2 PUSH1 0x1 PUSH1 0x1 PUSH1 0xA0 SHL SUB MUL NOT AND SWAP1 DUP4 PUSH1 0x1 PUSH1 0x1 PUSH1 0xA0 SHL SUB AND MUL OR SWAP1 PUSH2 0xAB1 PUSH2 0x3A11 JUMP JUMPDEST POP POP PUSH1 0x40 DUP1 MLOAD PUSH1 0x1 PUSH1 0x1 PUSH1 0xA0 SHL SUB DUP5 AND DUP2 MSTORE SWAP1 MLOAD PUSH32 0x906A1C6BD7E3091EA86693DD029A831C19049CE77F1DCE2CE0BAB1CACBABCE22 SWAP3 POP SWAP1 DUP2 SWAP1 SUB PUSH1 0x20 ADD SWAP1 LOG1 POP JUMP JUMPDEST PUSH1 0x0 DUP1 PUSH1 0x0 PUSH2 0xB03 DUP6 DUP6 PUSH2 0x2038 JUMP JUMPDEST POP SWAP2 SWAP8 SWAP1 SWAP7 POP SWAP1 SWAP5 POP SWAP3 POP POP POP JUMP JUMPDEST PUSH1 0x0 PUSH2 0x636 DUP4 DUP4 PUSH2 0x232E JUMP JUMPDEST PUSH1 0x0 DUP1 PUSH1 0x0 PUSH2 0xB2B PUSH2 0x1CE8 JUMP JUMPDEST PUSH1 0x1 PUSH1 0x1 PUSH1 0xA0 SHL SUB AND PUSH4 0x42A28E21 DUP6 PUSH1 0x40 MLOAD DUP3 PUSH4 0xFFFFFFFF AND PUSH1 0xE0 SHL DUP2 MSTORE PUSH1 0x4 ADD DUP1 DUP3 DUP2 MSTORE PUSH1 0x20 ADD SWAP2 POP POP PUSH1 0x0 PUSH1 0x40 MLOAD DUP1 DUP4 SUB DUP2 DUP7 DUP1 PUSH2 0xB69 PUSH2 0x390A JUMP JUMPDEST ISZERO DUP1 ISZERO PUSH2 0xB75 JUMPI PUSH1 0x0 DUP1 REVERT JUMPDEST POP GAS PUSH2 0xB7F PUSH2 0x393C JUMP JUMPDEST POP POP POP POP POP ISZERO DUP1 ISZERO PUSH2 0xB95 JUMPI RETURNDATASIZE PUSH1 0x0 DUP1 RETURNDATACOPY RETURNDATASIZE PUSH1 0x0 REVERT JUMPDEST POP POP POP POP PUSH2 0xBA3 DUP6 DUP6 PUSH2 0x23C1 JUMP JUMPDEST SWAP3 POP SWAP3 POP SWAP3 POP SWAP3 POP SWAP3 POP SWAP3 JUMP JUMPDEST PUSH1 0x0 DUP1 PUSH2 0xBBB PUSH2 0x38D1 JUMP JUMPDEST SWAP1 PUSH2 0x100 EXP SWAP1 DIV PUSH1 0x1 PUSH1 0x1 PUSH1 0xA0 SHL SUB AND PUSH1 0x1 PUSH1 0x1 PUSH1 0xA0 SHL SUB AND GAS PUSH2 0xBDD PUSH2 0x3994 JUMP JUMPDEST PUSH1 0x1 PUSH1 0x1 PUSH1 0xA0 SHL SUB AND EQ PUSH2 0xC22 JUMPI PUSH1 0x40 MLOAD PUSH3 0x461BCD PUSH1 0xE5 SHL DUP2 MSTORE PUSH1 0x4 ADD DUP1 DUP1 PUSH1 0x20 ADD DUP3 DUP2 SUB DUP3 MSTORE PUSH1 0x2F DUP2 MSTORE PUSH1 0x20 ADD DUP1 PUSH2 0x3BAC PUSH1 0x2F SWAP2 CODECOPY PUSH1 0x40 ADD SWAP2 POP POP PUSH1 0x40 MLOAD DUP1 SWAP2 SUB SWAP1 REVERT JUMPDEST DUP1 DUP1 PUSH1 0x6 PUSH2 0xC2E PUSH2 0x3A11 JUMP JUMPDEST POP POP POP PUSH32 0x6E65C7D32A9129EBC4E4E6D755E2A9668753C046F4B128AC8AEB4F3E5446A1E5 PUSH1 0x6 PUSH2 0xC5C PUSH2 0x38D1 JUMP JUMPDEST PUSH1 0x40 DUP1 MLOAD SWAP2 DUP3 MSTORE MLOAD SWAP1 DUP2 SWAP1 SUB PUSH1 0x20 ADD SWAP1 LOG1 POP JUMP JUMPDEST PUSH1 0x6 PUSH2 0xC7A PUSH2 0x38D1 JUMP JUMPDEST DUP2 JUMP JUMPDEST PUSH1 0x0 DUP1 PUSH2 0xC88 PUSH2 0x38D1 JUMP JUMPDEST SWAP1 PUSH2 0x100 EXP SWAP1 DIV PUSH1 0x1 PUSH1 0x1 PUSH1 0xA0 SHL SUB AND PUSH1 0x1 PUSH1 0x1 PUSH1 0xA0 SHL SUB AND GAS PUSH2 0xCAA PUSH2 0x3994 JUMP JUMPDEST PUSH1 0x1 PUSH1 0x1 PUSH1 0xA0 SHL SUB AND EQ PUSH2 0xCEF JUMPI PUSH1 0x40 MLOAD PUSH3 0x461BCD PUSH1 0xE5 SHL DUP2 MSTORE PUSH1 0x4 ADD DUP1 DUP1 PUSH1 0x20 ADD DUP3 DUP2 SUB DUP3 MSTORE PUSH1 0x2F DUP2 MSTORE PUSH1 0x20 ADD DUP1 PUSH2 0x3BAC PUSH1 0x2F SWAP2 CODECOPY PUSH1 0x40 ADD SWAP2 POP POP PUSH1 0x40 MLOAD DUP1 SWAP2 SUB SWAP1 REVERT JUMPDEST DUP1 PUSH1 0x2 PUSH1 0x1 DUP2 PUSH2 0xCFD PUSH2 0x38D1 JUMP JUMPDEST DUP2 PUSH1 0x1 PUSH1 0x1 PUSH1 0xA0 SHL SUB MUL NOT AND SWAP1 DUP4 PUSH1 0x1 PUSH1 0x1 PUSH1 0xA0 SHL SUB AND MUL OR SWAP1 PUSH2 0xD1F PUSH2 0x3A11 JUMP JUMPDEST POP PUSH1 0x0 SWAP2 POP POP JUMPDEST PUSH1 0x4 DUP1 PUSH2 0xD31 PUSH2 0x38D1 JUMP JUMPDEST SWAP1 POP DUP2 LT ISZERO PUSH2 0xE86 JUMPI PUSH1 0x0 PUSH1 0x4 DUP3 DUP2 PUSH2 0xD48 PUSH2 0x38D1 JUMP JUMPDEST DUP2 LT PUSH2 0xD50 JUMPI INVALID JUMPDEST SWAP1 PUSH1 0x0 MSTORE PUSH1 0x20 PUSH1 0x0 KECCAK256 ADD PUSH2 0xD62 PUSH2 0x38D1 JUMP JUMPDEST SWAP1 POP PUSH1 0x0 PUSH1 0x2 PUSH2 0xD70 PUSH2 0x38D1 JUMP JUMPDEST SWAP1 PUSH2 0x100 EXP SWAP1 DIV PUSH1 0x1 PUSH1 0x1 PUSH1 0xA0 SHL SUB AND PUSH1 0x1 PUSH1 0x1 PUSH1 0xA0 SHL SUB AND PUSH4 0xDACB2D01 DUP3 PUSH1 0x40 MLOAD DUP3 PUSH4 0xFFFFFFFF AND PUSH1 0xE0 SHL DUP2 MSTORE PUSH1 0x4 ADD DUP1 DUP3 DUP2 MSTORE PUSH1 0x20 ADD DUP1 PUSH1 0x20 ADD DUP3 DUP2 SUB DUP3 MSTORE PUSH1 0x17 DUP2 MSTORE PUSH1 0x20 ADD DUP1 PUSH32 0x5265736F6C766572206D697373696E6720746172676574000000000000000000 DUP2 MSTORE POP PUSH1 0x20 ADD SWAP3 POP POP POP PUSH1 0x20 PUSH1 0x40 MLOAD DUP1 DUP4 SUB DUP2 DUP7 DUP1 PUSH2 0xDF7 PUSH2 0x390A JUMP JUMPDEST ISZERO DUP1 ISZERO PUSH2 0xE03 JUMPI PUSH1 0x0 DUP1 REVERT JUMPDEST POP GAS PUSH2 0xE0D PUSH2 0x393C JUMP JUMPDEST POP POP POP POP POP ISZERO DUP1 ISZERO PUSH2 0xE23 JUMPI RETURNDATASIZE PUSH1 0x0 DUP1 RETURNDATACOPY RETURNDATASIZE PUSH1 0x0 REVERT JUMPDEST POP POP POP POP PUSH1 0x40 MLOAD RETURNDATASIZE PUSH1 0x20 DUP2 LT ISZERO PUSH2 0xE39 JUMPI PUSH1 0x0 DUP1 REVERT JUMPDEST POP MLOAD PUSH1 0x0 DUP3 DUP2 MSTORE PUSH1 0x3 PUSH1 0x20 MSTORE PUSH1 0x40 SWAP1 KECCAK256 PUSH1 0x1 DUP2 PUSH2 0xE54 PUSH2 0x38D1 JUMP JUMPDEST DUP2 PUSH1 0x1 PUSH1 0x1 PUSH1 0xA0 SHL SUB MUL NOT AND SWAP1 DUP4 PUSH1 0x1 PUSH1 0x1 PUSH1 0xA0 SHL SUB AND MUL OR SWAP1 PUSH2 0xE76 PUSH2 0x3A11 JUMP JUMPDEST POP POP PUSH1 0x1 SWAP1 SWAP3 ADD SWAP2 POP PUSH2 0xD26 SWAP1 POP JUMP JUMPDEST POP POP JUMP JUMPDEST PUSH1 0x41 DUP2 JUMP JUMPDEST DUP2 PUSH1 0x0 PUSH2 0xE9A PUSH2 0x1D38 JUMP JUMPDEST PUSH1 0x1 PUSH1 0x1 PUSH1 0xA0 SHL SUB AND PUSH4 0x32608039 DUP7 PUSH1 0x40 MLOAD DUP3 PUSH4 0xFFFFFFFF AND PUSH1 0xE0 SHL DUP2 MSTORE PUSH1 0x4 ADD DUP1 DUP3 DUP2 MSTORE PUSH1 0x20 ADD SWAP2 POP POP PUSH1 0x20 PUSH1 0x40 MLOAD DUP1 DUP4 SUB DUP2 DUP7 DUP1 PUSH2 0xED8 PUSH2 0x390A JUMP JUMPDEST ISZERO DUP1 ISZERO PUSH2 0xEE4 JUMPI PUSH1 0x0 DUP1 REVERT JUMPDEST POP GAS PUSH2 0xEEE PUSH2 0x393C JUMP JUMPDEST POP POP POP POP POP ISZERO DUP1 ISZERO PUSH2 0xF04 JUMPI RETURNDATASIZE PUSH1 0x0 DUP1 RETURNDATACOPY RETURNDATASIZE PUSH1 0x0 REVERT JUMPDEST POP POP POP POP PUSH1 0x40 MLOAD RETURNDATASIZE PUSH1 0x20 DUP2 LT ISZERO PUSH2 0xF1A JUMPI PUSH1 0x0 DUP1 REVERT JUMPDEST POP MLOAD PUSH1 0x40 DUP1 MLOAD PUSH4 0x70A08231 PUSH1 0xE0 SHL DUP2 MSTORE PUSH1 0x1 PUSH1 0x1 PUSH1 0xA0 SHL SUB DUP10 DUP2 AND PUSH1 0x4 DUP4 ADD MSTORE SWAP2 MLOAD SWAP2 SWAP1 SWAP3 AND SWAP2 PUSH4 0x70A08231 SWAP2 PUSH1 0x24 DUP1 DUP4 ADD SWAP3 PUSH1 0x20 SWAP3 SWAP2 SWAP1 DUP3 SWAP1 SUB ADD DUP2 DUP7 DUP1 PUSH2 0xF61 PUSH2 0x390A JUMP JUMPDEST ISZERO DUP1 ISZERO PUSH2 0xF6D JUMPI PUSH1 0x0 DUP1 REVERT JUMPDEST POP GAS PUSH2 0xF77 PUSH2 0x393C JUMP JUMPDEST POP POP POP POP POP ISZERO DUP1 ISZERO PUSH2 0xF8D JUMPI RETURNDATASIZE PUSH1 0x0 DUP1 RETURNDATACOPY RETURNDATASIZE PUSH1 0x0 REVERT JUMPDEST POP POP POP POP PUSH1 0x40 MLOAD RETURNDATASIZE PUSH1 0x20 DUP2 LT ISZERO PUSH2 0xFA3 JUMPI PUSH1 0x0 DUP1 REVERT JUMPDEST POP MLOAD SWAP1 POP DUP1 DUP3 GT ISZERO PUSH2 0xFB3 JUMPI DUP1 SWAP2 POP JUMPDEST DUP3 ISZERO PUSH2 0xFCC JUMPI PUSH2 0xFC9 DUP3 DUP5 PUSH4 0xFFFFFFFF PUSH2 0x265B AND JUMP JUMPDEST SWAP2 POP JUMPDEST POP SWAP5 SWAP4 POP POP POP POP JUMP JUMPDEST PUSH1 0x0 PUSH1 0x1 PUSH2 0x575 PUSH2 0x38D1 JUMP JUMPDEST PUSH1 0x0 PUSH2 0x102D DUP3 PUSH2 0xFEF PUSH2 0x1D7B JUMP JUMPDEST PUSH1 0x1 PUSH1 0x1 PUSH1 0xA0 SHL SUB AND PUSH4 0xAC82F608 DUP6 PUSH1 0x40 MLOAD DUP3 PUSH4 0xFFFFFFFF AND PUSH1 0xE0 SHL DUP2 MSTORE PUSH1 0x4 ADD DUP1 DUP3 DUP2 MSTORE PUSH1 0x20 ADD SWAP2 POP POP PUSH1 0x20 PUSH1 0x40 MLOAD DUP1 DUP4 SUB DUP2 DUP7 DUP1 PUSH2 0x8FA PUSH2 0x390A JUMP JUMPDEST SWAP1 POP JUMPDEST SWAP2 SWAP1 POP JUMP JUMPDEST PUSH1 0x0 PUSH1 0x1 PUSH1 0x1 PUSH1 0xA0 SHL SUB DUP3 AND DUP2 PUSH1 0x2 PUSH2 0x104C PUSH2 0x38D1 JUMP JUMPDEST SWAP1 PUSH2 0x100 EXP SWAP1 DIV PUSH1 0x1 PUSH1 0x1 PUSH1 0xA0 SHL SUB AND PUSH1 0x1 PUSH1 0x1 PUSH1 0xA0 SHL SUB AND EQ PUSH2 0x1072 JUMPI POP PUSH1 0x0 PUSH2 0x1030 JUMP JUMPDEST PUSH1 0x0 JUMPDEST PUSH1 0x4 DUP1 PUSH2 0x1080 PUSH2 0x38D1 JUMP JUMPDEST SWAP1 POP DUP2 LT ISZERO PUSH2 0x11D8 JUMPI PUSH1 0x0 PUSH1 0x4 DUP3 DUP2 PUSH2 0x1097 PUSH2 0x38D1 JUMP JUMPDEST DUP2 LT PUSH2 0x109F JUMPI INVALID JUMPDEST SWAP1 PUSH1 0x0 MSTORE PUSH1 0x20 PUSH1 0x0 KECCAK256 ADD PUSH2 0x10B1 PUSH2 0x38D1 JUMP JUMPDEST PUSH1 0x0 DUP2 DUP2 MSTORE PUSH1 0x3 PUSH1 0x20 MSTORE PUSH1 0x40 DUP2 KECCAK256 SWAP2 SWAP3 POP SWAP1 PUSH2 0x10CB PUSH2 0x38D1 JUMP JUMPDEST PUSH1 0x1 PUSH1 0x1 PUSH1 0xA0 SHL SUB PUSH2 0x100 SWAP3 SWAP1 SWAP3 EXP SWAP1 DIV AND PUSH1 0x0 PUSH1 0x2 PUSH2 0x10E9 PUSH2 0x38D1 JUMP JUMPDEST SWAP1 PUSH2 0x100 EXP SWAP1 DIV PUSH1 0x1 PUSH1 0x1 PUSH1 0xA0 SHL SUB AND PUSH1 0x1 PUSH1 0x1 PUSH1 0xA0 SHL SUB AND PUSH4 0x21F8A721 DUP4 PUSH1 0x40 MLOAD DUP3 PUSH4 0xFFFFFFFF AND PUSH1 0xE0 SHL DUP2 MSTORE PUSH1 0x4 ADD DUP1 DUP3 DUP2 MSTORE PUSH1 0x20 ADD SWAP2 POP POP PUSH1 0x20 PUSH1 0x40 MLOAD DUP1 DUP4 SUB DUP2 DUP7 DUP1 PUSH2 0x1137 PUSH2 0x390A JUMP JUMPDEST ISZERO DUP1 ISZERO PUSH2 0x1143 JUMPI PUSH1 0x0 DUP1 REVERT JUMPDEST POP GAS PUSH2 0x114D PUSH2 0x393C JUMP JUMPDEST POP POP POP POP POP ISZERO DUP1 ISZERO PUSH2 0x1163 JUMPI RETURNDATASIZE PUSH1 0x0 DUP1 RETURNDATACOPY RETURNDATASIZE PUSH1 0x0 REVERT JUMPDEST POP POP POP POP PUSH1 0x40 MLOAD RETURNDATASIZE PUSH1 0x20 DUP2 LT ISZERO PUSH2 0x1179 JUMPI PUSH1 0x0 DUP1 REVERT JUMPDEST POP MLOAD PUSH1 0x1 PUSH1 0x1 PUSH1 0xA0 SHL SUB AND EQ ISZERO DUP1 PUSH2 0x11BF JUMPI POP PUSH1 0x0 DUP2 DUP2 MSTORE PUSH1 0x3 PUSH1 0x20 MSTORE PUSH1 0x40 DUP2 KECCAK256 DUP2 SWAP1 PUSH2 0x11A4 PUSH2 0x38D1 JUMP JUMPDEST SWAP1 PUSH2 0x100 EXP SWAP1 DIV PUSH1 0x1 PUSH1 0x1 PUSH1 0xA0 SHL SUB AND PUSH1 0x1 PUSH1 0x1 PUSH1 0xA0 SHL SUB AND EQ JUMPDEST ISZERO PUSH2 0x11CF JUMPI PUSH1 0x0 SWAP3 POP POP POP PUSH2 0x1030 JUMP JUMPDEST POP PUSH1 0x1 ADD PUSH2 0x1075 JUMP JUMPDEST POP PUSH1 0x1 SWAP3 SWAP2 POP POP JUMP JUMPDEST PUSH1 0x0 DUP1 PUSH2 0x11EC PUSH2 0x38D1 JUMP JUMPDEST SWAP1 PUSH2 0x100 EXP SWAP1 DIV PUSH1 0x1 PUSH1 0x1 PUSH1 0xA0 SHL SUB AND PUSH1 0x1 PUSH1 0x1 PUSH1 0xA0 SHL SUB AND GAS PUSH2 0x120E PUSH2 0x3994 JUMP JUMPDEST PUSH1 0x1 PUSH1 0x1 PUSH1 0xA0 SHL SUB AND EQ PUSH2 0x1253 JUMPI PUSH1 0x40 MLOAD PUSH3 0x461BCD PUSH1 0xE5 SHL DUP2 MSTORE PUSH1 0x4 ADD DUP1 DUP1 PUSH1 0x20 ADD DUP3 DUP2 SUB DUP3 MSTORE PUSH1 0x2F DUP2 MSTORE PUSH1 0x20 ADD DUP1 PUSH2 0x3BAC PUSH1 0x2F SWAP2 CODECOPY PUSH1 0x40 ADD SWAP2 POP POP PUSH1 0x40 MLOAD DUP1 SWAP2 SUB SWAP1 REVERT JUMPDEST DUP1 DUP1 PUSH1 0x5 PUSH2 0x125F PUSH2 0x3A11 JUMP JUMPDEST POP POP POP PUSH32 0xC32C92CAC11E29883E0FB2D9E38230CC510E3BDA48ABC270B780DE60BB8465F8 PUSH1 0x5 PUSH2 0xC5C PUSH2 0x38D1 JUMP JUMPDEST PUSH1 0x0 DUP1 PUSH2 0x1298 PUSH2 0x17D9 JUMP JUMPDEST SWAP1 POP DUP1 PUSH1 0x1 PUSH1 0x1 PUSH1 0xA0 SHL SUB AND GAS PUSH2 0x12AD PUSH2 0x3994 JUMP JUMPDEST PUSH1 0x1 PUSH1 0x1 PUSH1 0xA0 SHL SUB AND EQ DUP1 PUSH2 0x135F JUMPI POP PUSH1 0x0 PUSH1 0x1 PUSH1 0x1 PUSH1 0xA0 SHL SUB DUP3 AND PUSH4 0x16B2213F GAS PUSH2 0x12D7 PUSH2 0x3994 JUMP JUMPDEST PUSH1 0x40 MLOAD DUP3 PUSH4 0xFFFFFFFF AND PUSH1 0xE0 SHL DUP2 MSTORE PUSH1 0x4 ADD DUP1 DUP3 PUSH1 0x1 PUSH1 0x1 PUSH1 0xA0 SHL SUB AND PUSH1 0x1 PUSH1 0x1 PUSH1 0xA0 SHL SUB AND DUP2 MSTORE PUSH1 0x20 ADD SWAP2 POP POP PUSH1 0x20 PUSH1 0x40 MLOAD DUP1 DUP4 SUB DUP2 DUP7 DUP1 PUSH2 0x1318 PUSH2 0x390A JUMP JUMPDEST ISZERO DUP1 ISZERO PUSH2 0x1324 JUMPI PUSH1 0x0 DUP1 REVERT JUMPDEST POP GAS PUSH2 0x132E PUSH2 0x393C JUMP JUMPDEST POP POP POP POP POP ISZERO DUP1 ISZERO PUSH2 0x1344 JUMPI RETURNDATASIZE PUSH1 0x0 DUP1 RETURNDATACOPY RETURNDATASIZE PUSH1 0x0 REVERT JUMPDEST POP POP POP POP PUSH1 0x40 MLOAD RETURNDATASIZE PUSH1 0x20 DUP2 LT ISZERO PUSH2 0x135A JUMPI PUSH1 0x0 DUP1 REVERT JUMPDEST POP MLOAD EQ ISZERO JUMPDEST PUSH2 0x139A JUMPI PUSH1 0x40 MLOAD PUSH3 0x461BCD PUSH1 0xE5 SHL DUP2 MSTORE PUSH1 0x4 ADD DUP1 DUP1 PUSH1 0x20 ADD DUP3 DUP2 SUB DUP3 MSTORE PUSH1 0x45 DUP2 MSTORE PUSH1 0x20 ADD DUP1 PUSH2 0x3B67 PUSH1 0x45 SWAP2 CODECOPY PUSH1 0x60 ADD SWAP2 POP POP PUSH1 0x40 MLOAD DUP1 SWAP2 SUB SWAP1 REVERT JUMPDEST PUSH2 0x13A2 PUSH2 0x26B5 JUMP JUMPDEST PUSH1 0x40 DUP1 MLOAD PUSH4 0xFAF431BB PUSH1 0xE0 SHL DUP2 MSTORE PUSH1 0x1 PUSH1 0x1 PUSH1 0xA0 SHL SUB DUP11 DUP2 AND PUSH1 0x4 DUP4 ADD MSTORE DUP10 DUP2 AND PUSH1 0x24 DUP4 ADD MSTORE SWAP2 MLOAD SWAP3 SWAP1 SWAP2 AND SWAP2 PUSH4 0xFAF431BB SWAP2 PUSH1 0x44 DUP1 DUP3 ADD SWAP3 PUSH1 0x20 SWAP3 SWAP1 SWAP2 SWAP1 DUP3 SWAP1 SUB ADD DUP2 DUP7 DUP1 PUSH2 0x13F0 PUSH2 0x390A JUMP JUMPDEST ISZERO DUP1 ISZERO PUSH2 0x13FC JUMPI PUSH1 0x0 DUP1 REVERT JUMPDEST POP GAS PUSH2 0x1406 PUSH2 0x393C JUMP JUMPDEST POP POP POP POP POP ISZERO DUP1 ISZERO PUSH2 0x141C JUMPI RETURNDATASIZE PUSH1 0x0 DUP1 RETURNDATACOPY RETURNDATASIZE PUSH1 0x0 REVERT JUMPDEST POP POP POP POP PUSH1 0x40 MLOAD RETURNDATASIZE PUSH1 0x20 DUP2 LT ISZERO PUSH2 0x1432 JUMPI PUSH1 0x0 DUP1 REVERT JUMPDEST POP MLOAD PUSH2 0x1485 JUMPI PUSH1 0x40 DUP1 MLOAD PUSH3 0x461BCD PUSH1 0xE5 SHL DUP2 MSTORE PUSH1 0x20 PUSH1 0x4 DUP3 ADD MSTORE PUSH1 0x1D PUSH1 0x24 DUP3 ADD MSTORE PUSH32 0x4E6F7420617070726F76656420746F20616374206F6E20626568616C66000000 PUSH1 0x44 DUP3 ADD MSTORE SWAP1 MLOAD SWAP1 DUP2 SWAP1 SUB PUSH1 0x64 ADD SWAP1 REVERT JUMPDEST PUSH2 0x759 DUP8 DUP7 DUP7 DUP7 DUP12 PUSH2 0x1826 JUMP JUMPDEST PUSH1 0x0 PUSH1 0x1 PUSH2 0x149E PUSH2 0x38D1 JUMP JUMPDEST SWAP1 PUSH2 0x100 EXP SWAP1 DIV PUSH1 0x1 PUSH1 0x1 PUSH1 0xA0 SHL SUB AND PUSH1 0x1 PUSH1 0x1 PUSH1 0xA0 SHL SUB AND GAS PUSH2 0x14C0 PUSH2 0x3994 JUMP JUMPDEST PUSH1 0x1 PUSH1 0x1 PUSH1 0xA0 SHL SUB AND EQ PUSH2 0x1505 JUMPI PUSH1 0x40 MLOAD PUSH3 0x461BCD PUSH1 0xE5 SHL DUP2 MSTORE PUSH1 0x4 ADD DUP1 DUP1 PUSH1 0x20 ADD DUP3 DUP2 SUB DUP3 MSTORE PUSH1 0x35 DUP2 MSTORE PUSH1 0x20 ADD DUP1 PUSH2 0x3B11 PUSH1 0x35 SWAP2 CODECOPY PUSH1 0x40 ADD SWAP2 POP POP PUSH1 0x40 MLOAD DUP1 SWAP2 SUB SWAP1 REVERT JUMPDEST PUSH32 0xB532073B38C83145E3E5135377A08BF9AAB55BC0FD7C1179CD4FB995D2A5159C PUSH1 0x0 DUP1 PUSH2 0x1531 PUSH2 0x38D1 JUMP JUMPDEST SWAP1 PUSH2 0x100 EXP SWAP1 DIV PUSH1 0x1 PUSH1 0x1 PUSH1 0xA0 SHL SUB AND PUSH1 0x1 PUSH1 0x0 SWAP1 PUSH2 0x154E PUSH2 0x38D1 JUMP JUMPDEST PUSH1 0x40 DUP1 MLOAD PUSH1 0x1 PUSH1 0x1 PUSH1 0xA0 SHL SUB SWAP5 DUP6 AND DUP2 MSTORE PUSH2 0x100 SWAP4 SWAP1 SWAP4 EXP SWAP1 SWAP2 DIV SWAP1 SWAP3 AND PUSH1 0x20 DUP3 ADD MSTORE DUP2 MLOAD SWAP1 DUP2 SWAP1 SUB SWAP1 SWAP2 ADD SWAP1 LOG1 PUSH1 0x0 PUSH1 0x1 PUSH2 0x1588 PUSH2 0x38D1 JUMP JUMPDEST SWAP1 PUSH2 0x100 EXP SWAP1 DIV PUSH1 0x1 PUSH1 0x1 PUSH1 0xA0 SHL SUB AND PUSH1 0x0 DUP1 PUSH2 0x100 EXP DUP2 PUSH2 0x15A8 PUSH2 0x38D1 JUMP JUMPDEST DUP2 PUSH1 0x1 PUSH1 0x1 PUSH1 0xA0 SHL SUB MUL NOT AND SWAP1 DUP4 PUSH1 0x1 PUSH1 0x1 PUSH1 0xA0 SHL SUB AND MUL OR SWAP1 PUSH2 0x15CA PUSH2 0x3A11 JUMP JUMPDEST POP POP POP PUSH1 0x0 PUSH1 0x1 PUSH1 0x0 PUSH2 0x100 EXP DUP2 PUSH2 0x15E0 PUSH2 0x38D1 JUMP JUMPDEST DUP2 PUSH1 0x1 PUSH1 0x1 PUSH1 0xA0 SHL SUB MUL NOT AND SWAP1 DUP4 PUSH1 0x1 PUSH1 0x1 PUSH1 0xA0 SHL SUB AND MUL OR SWAP1 PUSH2 0x1602 PUSH2 0x3A11 JUMP JUMPDEST POP POP POP JUMP JUMPDEST PUSH1 0x7 PUSH1 0x20 MSTORE PUSH1 0x0 SWAP1 DUP2 MSTORE PUSH1 0x40 SWAP1 KECCAK256 PUSH2 0xC7A PUSH2 0x38D1 JUMP JUMPDEST PUSH1 0x5 PUSH2 0xC7A PUSH2 0x38D1 JUMP JUMPDEST PUSH1 0x0 DUP1 PUSH2 0x575 PUSH2 0x38D1 JUMP JUMPDEST PUSH2 0x163A PUSH2 0x3A4A JUMP JUMPDEST PUSH1 0x0 JUMPDEST PUSH1 0x4 DUP1 PUSH2 0x1648 PUSH2 0x38D1 JUMP JUMPDEST SWAP1 POP DUP2 LT ISZERO PUSH2 0x1690 JUMPI PUSH1 0x4 DUP2 DUP2 PUSH2 0x165D PUSH2 0x38D1 JUMP JUMPDEST DUP2 LT PUSH2 0x1665 JUMPI INVALID JUMPDEST SWAP1 PUSH1 0x0 MSTORE PUSH1 0x20 PUSH1 0x0 KECCAK256 ADD PUSH2 0x1677 PUSH2 0x38D1 JUMP JUMPDEST DUP3 DUP3 PUSH1 0x18 DUP2 LT PUSH2 0x1683 JUMPI INVALID JUMPDEST PUSH1 0x20 MUL ADD MSTORE PUSH1 0x1 ADD PUSH2 0x163D JUMP JUMPDEST POP SWAP1 JUMP JUMPDEST PUSH1 0x4 DUP2 DUP2 PUSH2 0x16A0 PUSH2 0x38D1 JUMP JUMPDEST DUP2 LT PUSH2 0x16A8 JUMPI INVALID JUMPDEST PUSH1 0x0 SWAP2 DUP3 MSTORE PUSH1 0x20 SWAP1 SWAP2 KECCAK256 ADD SWAP1 POP PUSH2 0xC7A PUSH2 0x38D1 JUMP JUMPDEST PUSH1 0x0 PUSH2 0x16C9 DUP4 DUP4 PUSH2 0x588 JUMP JUMPDEST ISZERO PUSH2 0x16D6 JUMPI POP PUSH1 0x1 PUSH2 0x639 JUMP JUMPDEST PUSH1 0x0 PUSH2 0x16E2 DUP5 DUP5 PUSH2 0x2038 JUMP JUMPDEST POP POP POP ISZERO ISZERO SWAP5 SWAP4 POP POP POP POP JUMP JUMPDEST PUSH1 0x18 DUP2 JUMP JUMPDEST PUSH1 0x0 DUP1 PUSH1 0x0 PUSH2 0x1704 DUP7 DUP7 DUP7 PUSH2 0x26ED JUMP JUMPDEST POP SWAP3 SWAP10 SWAP2 SWAP9 POP SWAP7 POP SWAP5 POP POP POP POP POP JUMP JUMPDEST PUSH1 0x0 PUSH2 0x1765 PUSH13 0x45786368616E67655374617465 PUSH1 0x98 SHL PUSH1 0x40 MLOAD DUP1 PUSH1 0x40 ADD PUSH1 0x40 MSTORE DUP1 PUSH1 0x1D DUP2 MSTORE PUSH1 0x20 ADD PUSH32 0x4D697373696E672045786368616E676553746174652061646472657373000000 DUP2 MSTORE POP PUSH2 0x27DA JUMP JUMPDEST SWAP1 POP SWAP1 JUMP JUMPDEST PUSH1 0x0 DUP2 ISZERO DUP1 PUSH2 0x179A JUMPI POP PUSH2 0x178E PUSH1 0x5 PUSH2 0x1781 PUSH2 0x38D1 JUMP JUMPDEST DUP4 SWAP1 PUSH4 0xFFFFFFFF PUSH2 0x265B AND JUMP JUMPDEST GAS PUSH2 0x1797 PUSH2 0x3A69 JUMP JUMPDEST LT ISZERO JUMPDEST ISZERO PUSH2 0x17A7 JUMPI POP PUSH1 0x0 PUSH2 0x1030 JUMP JUMPDEST PUSH2 0x102D GAS PUSH2 0x17B3 PUSH2 0x3A69 JUMP JUMPDEST PUSH2 0x17CD PUSH1 0x5 PUSH2 0x17C0 PUSH2 0x38D1 JUMP JUMPDEST DUP6 SWAP1 PUSH4 0xFFFFFFFF PUSH2 0x265B AND JUMP JUMPDEST SWAP1 PUSH4 0xFFFFFFFF PUSH2 0x289A AND JUMP JUMPDEST PUSH1 0x0 PUSH2 0x1765 PUSH9 0xA6F2DCE8D0CAE8D2F PUSH1 0xBB SHL PUSH1 0x40 MLOAD DUP1 PUSH1 0x40 ADD PUSH1 0x40 MSTORE DUP1 PUSH1 0x19 DUP2 MSTORE PUSH1 0x20 ADD PUSH32 0x4D697373696E672053796E746865746978206164647265737300000000000000 DUP2 MSTORE POP PUSH2 0x27DA JUMP JUMPDEST PUSH1 0x0 PUSH2 0x1833 DUP6 DUP6 DUP6 PUSH2 0x28F7 JUMP JUMPDEST PUSH1 0x0 DUP1 PUSH2 0x1840 DUP9 DUP9 PUSH2 0x23C1 JUMP JUMPDEST SWAP1 SWAP4 POP SWAP2 POP DUP7 SWAP1 POP DUP2 ISZERO PUSH2 0x186D JUMPI PUSH2 0x185A DUP10 DUP10 DUP10 DUP7 PUSH2 0xE8F JUMP JUMPDEST SWAP1 POP DUP1 PUSH2 0x186D JUMPI PUSH1 0x0 SWAP4 POP POP POP POP PUSH2 0x1CDF JUMP JUMPDEST PUSH1 0x0 DUP1 PUSH1 0x0 DUP1 PUSH2 0x187E DUP6 DUP14 DUP13 PUSH2 0x26ED JUMP JUMPDEST SWAP4 SWAP12 POP SWAP2 SWAP7 POP SWAP5 POP SWAP3 POP SWAP1 POP PUSH2 0x1894 DUP13 DUP4 PUSH2 0x1DCC JUMP JUMPDEST ISZERO PUSH2 0x192B JUMPI PUSH2 0x18A1 PUSH2 0x1CE8 JUMP JUMPDEST PUSH1 0x1 PUSH1 0x1 PUSH1 0xA0 SHL SUB AND PUSH4 0xABC0BB6E DUP14 PUSH1 0x41 PUSH1 0x40 MLOAD DUP4 PUSH4 0xFFFFFFFF AND PUSH1 0xE0 SHL DUP2 MSTORE PUSH1 0x4 ADD DUP1 DUP4 DUP2 MSTORE PUSH1 0x20 ADD DUP3 DUP2 MSTORE PUSH1 0x20 ADD SWAP3 POP POP POP PUSH1 0x0 PUSH1 0x40 MLOAD DUP1 DUP4 SUB DUP2 PUSH1 0x0 DUP8 DUP1 PUSH2 0x18EA PUSH2 0x390A JUMP JUMPDEST ISZERO DUP1 ISZERO PUSH2 0x18F6 JUMPI PUSH1 0x0 DUP1 REVERT JUMPDEST POP GAS PUSH2 0x1900 PUSH2 0x39B9 JUMP JUMPDEST POP POP POP POP POP POP ISZERO DUP1 ISZERO PUSH2 0x1917 JUMPI RETURNDATASIZE PUSH1 0x0 DUP1 RETURNDATACOPY RETURNDATASIZE PUSH1 0x0 REVERT JUMPDEST POP POP POP POP PUSH1 0x0 SWAP8 POP POP POP POP POP POP POP POP PUSH2 0x1CDF JUMP JUMPDEST PUSH1 0x0 DUP13 DUP2 MSTORE PUSH1 0x7 PUSH1 0x20 MSTORE PUSH1 0x40 SWAP1 KECCAK256 DUP3 SWAP1 DUP2 SWAP1 PUSH2 0x1945 PUSH2 0x3A11 JUMP JUMPDEST POP POP POP PUSH2 0x1952 DUP11 DUP3 PUSH2 0x1DCC JUMP JUMPDEST ISZERO PUSH2 0x19A8 JUMPI PUSH2 0x195F PUSH2 0x1CE8 JUMP JUMPDEST PUSH1 0x1 PUSH1 0x1 PUSH1 0xA0 SHL SUB AND PUSH4 0xABC0BB6E DUP12 PUSH1 0x41 PUSH1 0x40 MLOAD DUP4 PUSH4 0xFFFFFFFF AND PUSH1 0xE0 SHL DUP2 MSTORE PUSH1 0x4 ADD DUP1 DUP4 DUP2 MSTORE PUSH1 0x20 ADD DUP3 DUP2 MSTORE PUSH1 0x20 ADD SWAP3 POP POP POP PUSH1 0x0 PUSH1 0x40 MLOAD DUP1 DUP4 SUB DUP2 PUSH1 0x0 DUP8 DUP1 PUSH2 0x18EA PUSH2 0x390A JUMP JUMPDEST PUSH1 0x0 DUP11 DUP2 MSTORE PUSH1 0x7 PUSH1 0x20 MSTORE PUSH1 0x40 SWAP1 KECCAK256 DUP2 SWAP1 DUP2 SWAP1 PUSH2 0x19C2 PUSH2 0x3A11 JUMP JUMPDEST POP POP POP PUSH2 0x19CD PUSH2 0x1D38 JUMP JUMPDEST PUSH1 0x1 PUSH1 0x1 PUSH1 0xA0 SHL SUB AND PUSH4 0x32608039 DUP14 PUSH1 0x40 MLOAD DUP3 PUSH4 0xFFFFFFFF AND PUSH1 0xE0 SHL DUP2 MSTORE PUSH1 0x4 ADD DUP1 DUP3 DUP2 MSTORE PUSH1 0x20 ADD SWAP2 POP POP PUSH1 0x20 PUSH1 0x40 MLOAD DUP1 DUP4 SUB DUP2 DUP7 DUP1 PUSH2 0x1A0B PUSH2 0x390A JUMP JUMPDEST ISZERO DUP1 ISZERO PUSH2 0x1A17 JUMPI PUSH1 0x0 DUP1 REVERT JUMPDEST POP GAS PUSH2 0x1A21 PUSH2 0x393C JUMP JUMPDEST POP POP POP POP POP ISZERO DUP1 ISZERO PUSH2 0x1A37 JUMPI RETURNDATASIZE PUSH1 0x0 DUP1 RETURNDATACOPY RETURNDATASIZE PUSH1 0x0 REVERT JUMPDEST POP POP POP POP PUSH1 0x40 MLOAD RETURNDATASIZE PUSH1 0x20 DUP2 LT ISZERO PUSH2 0x1A4D JUMPI PUSH1 0x0 DUP1 REVERT JUMPDEST DUP2 ADD SWAP1 DUP1 DUP1 MLOAD SWAP1 PUSH1 0x20 ADD SWAP1 SWAP3 SWAP2 SWAP1 POP POP POP PUSH1 0x1 PUSH1 0x1 PUSH1 0xA0 SHL SUB AND PUSH4 0x9DC29FAC DUP15 DUP8 PUSH1 0x40 MLOAD DUP4 PUSH4 0xFFFFFFFF AND PUSH1 0xE0 SHL DUP2 MSTORE PUSH1 0x4 ADD DUP1 DUP4 PUSH1 0x1 PUSH1 0x1 PUSH1 0xA0 SHL SUB AND PUSH1 0x1 PUSH1 0x1 PUSH1 0xA0 SHL SUB AND DUP2 MSTORE PUSH1 0x20 ADD DUP3 DUP2 MSTORE PUSH1 0x20 ADD SWAP3 POP POP POP PUSH1 0x0 PUSH1 0x40 MLOAD DUP1 DUP4 SUB DUP2 PUSH1 0x0 DUP8 DUP1 PUSH2 0x1AB8 PUSH2 0x390A JUMP JUMPDEST ISZERO DUP1 ISZERO PUSH2 0x1AC4 JUMPI PUSH1 0x0 DUP1 REVERT JUMPDEST POP GAS PUSH2 0x1ACE PUSH2 0x39B9 JUMP JUMPDEST POP POP POP POP POP POP ISZERO DUP1 ISZERO PUSH2 0x1AE5 JUMPI RETURNDATASIZE PUSH1 0x0 DUP1 RETURNDATACOPY RETURNDATASIZE PUSH1 0x0 REVERT JUMPDEST POP POP POP POP PUSH2 0x1AF1 PUSH2 0x1D38 JUMP JUMPDEST PUSH1 0x1 PUSH1 0x1 PUSH1 0xA0 SHL SUB AND PUSH4 0x32608039 DUP12 PUSH1 0x40 MLOAD DUP3 PUSH4 0xFFFFFFFF AND PUSH1 0xE0 SHL DUP2 MSTORE PUSH1 0x4 ADD DUP1 DUP3 DUP2 MSTORE PUSH1 0x20 ADD SWAP2 POP POP PUSH1 0x20 PUSH1 0x40 MLOAD DUP1 DUP4 SUB DUP2 DUP7 DUP1 PUSH2 0x1B2F PUSH2 0x390A JUMP JUMPDEST ISZERO DUP1 ISZERO PUSH2 0x1B3B JUMPI PUSH1 0x0 DUP1 REVERT JUMPDEST POP GAS PUSH2 0x1B45 PUSH2 0x393C JUMP JUMPDEST POP POP POP POP POP ISZERO DUP1 ISZERO PUSH2 0x1B5B JUMPI RETURNDATASIZE PUSH1 0x0 DUP1 RETURNDATACOPY RETURNDATASIZE PUSH1 0x0 REVERT JUMPDEST POP POP POP POP PUSH1 0x40 MLOAD RETURNDATASIZE PUSH1 0x20 DUP2 LT ISZERO PUSH2 0x1B71 JUMPI PUSH1 0x0 DUP1 REVERT JUMPDEST POP MLOAD PUSH1 0x40 DUP1 MLOAD PUSH4 0x219E412D PUSH1 0xE2 SHL DUP2 MSTORE PUSH1 0x1 PUSH1 0x1 PUSH1 0xA0 SHL SUB DUP13 DUP2 AND PUSH1 0x4 DUP4 ADD MSTORE PUSH1 0x24 DUP3 ADD DUP13 SWAP1 MSTORE SWAP2 MLOAD SWAP2 SWAP1 SWAP3 AND SWAP2 PUSH4 0x867904B4 SWAP2 PUSH1 0x44 DUP1 DUP4 ADD SWAP3 PUSH1 0x0 SWAP3 SWAP2 SWAP1 DUP3 SWAP1 SUB ADD DUP2 DUP4 DUP8 DUP1 PUSH2 0x1BC0 PUSH2 0x390A JUMP JUMPDEST ISZERO DUP1 ISZERO PUSH2 0x1BCC JUMPI PUSH1 0x0 DUP1 REVERT JUMPDEST POP GAS PUSH2 0x1BD6 PUSH2 0x39B9 JUMP JUMPDEST POP POP POP POP POP POP ISZERO DUP1 ISZERO PUSH2 0x1BED JUMPI RETURNDATASIZE PUSH1 0x0 DUP1 RETURNDATACOPY RETURNDATASIZE PUSH1 0x0 REVERT JUMPDEST POP POP POP POP PUSH1 0x0 DUP5 GT ISZERO PUSH2 0x1C04 JUMPI PUSH2 0x1C04 DUP5 DUP12 PUSH2 0x2AF9 JUMP JUMPDEST PUSH2 0x1C0C PUSH2 0x17D9 JUMP JUMPDEST PUSH1 0x1 PUSH1 0x1 PUSH1 0xA0 SHL SUB AND PUSH4 0x6C00F310 DUP15 DUP15 DUP9 DUP15 DUP14 DUP16 PUSH1 0x40 MLOAD DUP8 PUSH4 0xFFFFFFFF AND PUSH1 0xE0 SHL DUP2 MSTORE PUSH1 0x4 ADD DUP1 DUP8 PUSH1 0x1 PUSH1 0x1 PUSH1 0xA0 SHL SUB AND PUSH1 0x1 PUSH1 0x1 PUSH1 0xA0 SHL SUB AND DUP2 MSTORE PUSH1 0x20 ADD DUP7 DUP2 MSTORE PUSH1 0x20 ADD DUP6 DUP2 MSTORE PUSH1 0x20 ADD DUP5 DUP2 MSTORE PUSH1 0x20 ADD DUP4 DUP2 MSTORE PUSH1 0x20 ADD DUP3 PUSH1 0x1 PUSH1 0x1 PUSH1 0xA0 SHL SUB AND PUSH1 0x1 PUSH1 0x1 PUSH1 0xA0 SHL SUB AND DUP2 MSTORE PUSH1 0x20 ADD SWAP7 POP POP POP POP POP POP POP PUSH1 0x0 PUSH1 0x40 MLOAD DUP1 DUP4 SUB DUP2 PUSH1 0x0 DUP8 DUP1 PUSH2 0x1C98 PUSH2 0x390A JUMP JUMPDEST ISZERO DUP1 ISZERO PUSH2 0x1CA4 JUMPI PUSH1 0x0 DUP1 REVERT JUMPDEST POP GAS PUSH2 0x1CAE PUSH2 0x39B9 JUMP JUMPDEST POP POP POP POP POP POP ISZERO DUP1 ISZERO PUSH2 0x1CC5 JUMPI RETURNDATASIZE PUSH1 0x0 DUP1 RETURNDATACOPY RETURNDATASIZE PUSH1 0x0 REVERT JUMPDEST POP POP POP POP PUSH2 0x1CD7 DUP10 DUP14 DUP8 DUP14 DUP13 DUP9 PUSH2 0x2DB3 JUMP JUMPDEST POP POP POP POP POP POP POP JUMPDEST SWAP6 SWAP5 POP POP POP POP POP JUMP JUMPDEST PUSH1 0x0 PUSH2 0x1765 PUSH12 0x53797374656D537461747573 PUSH1 0xA0 SHL PUSH1 0x40 MLOAD DUP1 PUSH1 0x40 ADD PUSH1 0x40 MSTORE DUP1 PUSH1 0x1C DUP2 MSTORE PUSH1 0x20 ADD PUSH32 0x4D697373696E672053797374656D537461747573206164647265737300000000 DUP2 MSTORE POP PUSH2 0x27DA JUMP JUMPDEST PUSH1 0x0 PUSH2 0x1765 PUSH6 0x24B9B9BAB2B9 PUSH1 0xD1 SHL PUSH1 0x40 MLOAD DUP1 PUSH1 0x40 ADD PUSH1 0x40 MSTORE DUP1 PUSH1 0x16 DUP2 MSTORE PUSH1 0x20 ADD PUSH22 0x4D697373696E67204973737565722061646472657373 PUSH1 0x50 SHL DUP2 MSTORE POP PUSH2 0x27DA JUMP JUMPDEST PUSH1 0x0 PUSH2 0x1765 PUSH13 0x45786368616E67655261746573 PUSH1 0x98 SHL PUSH1 0x40 MLOAD DUP1 PUSH1 0x40 ADD PUSH1 0x40 MSTORE DUP1 PUSH1 0x1D DUP2 MSTORE PUSH1 0x20 ADD PUSH32 0x4D697373696E672045786368616E676552617465732061646472657373000000 DUP2 MSTORE POP PUSH2 0x27DA JUMP JUMPDEST PUSH1 0x0 DUP2 PUSH2 0x1DDB JUMPI POP PUSH1 0x1 PUSH2 0x639 JUMP JUMPDEST PUSH1 0x0 DUP4 DUP2 MSTORE PUSH1 0x7 PUSH1 0x20 MSTORE PUSH1 0x40 DUP2 KECCAK256 PUSH2 0x1DF1 PUSH2 0x38D1 JUMP JUMPDEST SWAP1 POP DUP1 ISZERO PUSH2 0x1E0B JUMPI PUSH2 0x1E03 DUP2 DUP5 PUSH2 0x3013 JUMP JUMPDEST SWAP2 POP POP PUSH2 0x639 JUMP JUMPDEST PUSH1 0x60 PUSH2 0x1E15 PUSH2 0x1D7B JUMP JUMPDEST PUSH1 0x1 PUSH1 0x1 PUSH1 0xA0 SHL SUB AND PUSH4 0x2D7371E1 DUP7 PUSH1 0x4 PUSH1 0x40 MLOAD DUP4 PUSH4 0xFFFFFFFF AND PUSH1 0xE0 SHL DUP2 MSTORE PUSH1 0x4 ADD DUP1 DUP4 DUP2 MSTORE PUSH1 0x20 ADD DUP3 DUP2 MSTORE PUSH1 0x20 ADD SWAP3 POP POP POP PUSH1 0x0 PUSH1 0x40 MLOAD DUP1 DUP4 SUB DUP2 DUP7 DUP1 PUSH2 0x1E5C PUSH2 0x390A JUMP JUMPDEST ISZERO DUP1 ISZERO PUSH2 0x1E68 JUMPI PUSH1 0x0 DUP1 REVERT JUMPDEST POP GAS PUSH2 0x1E72 PUSH2 0x393C JUMP JUMPDEST POP POP POP POP POP ISZERO DUP1 ISZERO PUSH2 0x1E88 JUMPI RETURNDATASIZE PUSH1 0x0 DUP1 RETURNDATACOPY RETURNDATASIZE PUSH1 0x0 REVERT JUMPDEST POP POP POP POP PUSH1 0x40 MLOAD RETURNDATASIZE PUSH1 0x0 DUP3 RETURNDATACOPY PUSH1 0x1F RETURNDATASIZE SWAP1 DUP2 ADD PUSH1 0x1F NOT AND DUP3 ADD PUSH1 0x40 SWAP1 DUP2 MSTORE DUP2 LT ISZERO PUSH2 0x1EB1 JUMPI PUSH1 0x0 DUP1 REVERT JUMPDEST DUP2 ADD SWAP1 DUP1 DUP1 MLOAD PUSH1 0x40 MLOAD SWAP4 SWAP3 SWAP2 SWAP1 DUP5 PUSH5 0x100000000 DUP3 GT ISZERO PUSH2 0x1ED1 JUMPI PUSH1 0x0 DUP1 REVERT JUMPDEST SWAP1 DUP4 ADD SWAP1 PUSH1 0x20 DUP3 ADD DUP6 DUP2 GT ISZERO PUSH2 0x1EE6 JUMPI PUSH1 0x0 DUP1 REVERT JUMPDEST DUP3 MLOAD DUP7 PUSH1 0x20 DUP3 MUL DUP4 ADD GT PUSH5 0x100000000 DUP3 GT OR ISZERO PUSH2 0x1F03 JUMPI PUSH1 0x0 DUP1 REVERT JUMPDEST DUP3 MSTORE POP DUP2 MLOAD PUSH1 0x20 SWAP2 DUP3 ADD SWAP3 DUP3 ADD SWAP2 MUL DUP1 DUP4 DUP4 PUSH1 0x0 JUMPDEST DUP4 DUP2 LT ISZERO PUSH2 0x1F30 JUMPI DUP2 DUP2 ADD MLOAD DUP4 DUP3 ADD MSTORE PUSH1 0x20 ADD PUSH2 0x1F18 JUMP JUMPDEST POP POP POP POP SWAP1 POP ADD PUSH1 0x40 MSTORE PUSH1 0x20 ADD DUP1 MLOAD PUSH1 0x40 MLOAD SWAP4 SWAP3 SWAP2 SWAP1 DUP5 PUSH5 0x100000000 DUP3 GT ISZERO PUSH2 0x1F59 JUMPI PUSH1 0x0 DUP1 REVERT JUMPDEST SWAP1 DUP4 ADD SWAP1 PUSH1 0x20 DUP3 ADD DUP6 DUP2 GT ISZERO PUSH2 0x1F6E JUMPI PUSH1 0x0 DUP1 REVERT JUMPDEST DUP3 MLOAD DUP7 PUSH1 0x20 DUP3 MUL DUP4 ADD GT PUSH5 0x100000000 DUP3 GT OR ISZERO PUSH2 0x1F8B JUMPI PUSH1 0x0 DUP1 REVERT JUMPDEST DUP3 MSTORE POP DUP2 MLOAD PUSH1 0x20 SWAP2 DUP3 ADD SWAP3 DUP3 ADD SWAP2 MUL DUP1 DUP4 DUP4 PUSH1 0x0 JUMPDEST DUP4 DUP2 LT ISZERO PUSH2 0x1FB8 JUMPI DUP2 DUP2 ADD MLOAD DUP4 DUP3 ADD MSTORE PUSH1 0x20 ADD PUSH2 0x1FA0 JUMP JUMPDEST POP POP POP POP SWAP1 POP ADD PUSH1 0x40 MSTORE POP POP POP POP SWAP1 POP PUSH1 0x0 PUSH1 0x1 SWAP1 POP JUMPDEST DUP2 MLOAD DUP2 LT ISZERO PUSH2 0x202C JUMPI PUSH1 0x0 DUP3 DUP3 DUP2 MLOAD DUP2 LT PUSH2 0x1FE6 JUMPI INVALID JUMPDEST PUSH1 0x20 MUL PUSH1 0x20 ADD ADD MLOAD GT DUP1 ISZERO PUSH2 0x2013 JUMPI POP PUSH2 0x2013 DUP3 DUP3 DUP2 MLOAD DUP2 LT PUSH2 0x2005 JUMPI INVALID JUMPDEST PUSH1 0x20 MUL PUSH1 0x20 ADD ADD MLOAD DUP7 PUSH2 0x3013 JUMP JUMPDEST ISZERO PUSH2 0x2024 JUMPI PUSH1 0x1 SWAP4 POP POP POP POP PUSH2 0x639 JUMP JUMPDEST PUSH1 0x1 ADD PUSH2 0x1FCF JUMP JUMPDEST POP PUSH1 0x0 SWAP6 SWAP5 POP POP POP POP POP JUMP JUMPDEST PUSH1 0x0 DUP1 PUSH1 0x0 PUSH1 0x60 PUSH2 0x2047 PUSH2 0x1714 JUMP JUMPDEST PUSH1 0x1 PUSH1 0x1 PUSH1 0xA0 SHL SUB AND PUSH4 0xB44E9753 DUP8 DUP8 PUSH1 0x40 MLOAD DUP4 PUSH4 0xFFFFFFFF AND PUSH1 0xE0 SHL DUP2 MSTORE PUSH1 0x4 ADD DUP1 DUP4 PUSH1 0x1 PUSH1 0x1 PUSH1 0xA0 SHL SUB AND PUSH1 0x1 PUSH1 0x1 PUSH1 0xA0 SHL SUB AND DUP2 MSTORE PUSH1 0x20 ADD DUP3 DUP2 MSTORE PUSH1 0x20 ADD SWAP3 POP POP POP PUSH1 0x20 PUSH1 0x40 MLOAD DUP1 DUP4 SUB DUP2 DUP7 DUP1 PUSH2 0x209F PUSH2 0x390A JUMP JUMPDEST ISZERO DUP1 ISZERO PUSH2 0x20AB JUMPI PUSH1 0x0 DUP1 REVERT JUMPDEST POP GAS PUSH2 0x20B5 PUSH2 0x393C JUMP JUMPDEST POP POP POP POP POP ISZERO DUP1 ISZERO PUSH2 0x20CB JUMPI RETURNDATASIZE PUSH1 0x0 DUP1 RETURNDATACOPY RETURNDATASIZE PUSH1 0x0 REVERT JUMPDEST POP POP POP POP PUSH1 0x40 MLOAD RETURNDATASIZE PUSH1 0x20 DUP2 LT ISZERO PUSH2 0x20E1 JUMPI PUSH1 0x0 DUP1 REVERT JUMPDEST POP MLOAD PUSH1 0x40 DUP1 MLOAD DUP3 DUP2 MSTORE PUSH1 0x20 DUP1 DUP5 MUL DUP3 ADD ADD SWAP1 SWAP2 MSTORE SWAP1 SWAP3 POP PUSH1 0x60 SWAP1 DUP4 DUP1 ISZERO PUSH2 0x2122 JUMPI DUP2 PUSH1 0x20 ADD JUMPDEST PUSH2 0x210F PUSH2 0x3A8E JUMP JUMPDEST DUP2 MSTORE PUSH1 0x20 ADD SWAP1 PUSH1 0x1 SWAP1 SUB SWAP1 DUP2 PUSH2 0x2107 JUMPI SWAP1 POP JUMPDEST POP SWAP1 POP PUSH1 0x0 JUMPDEST DUP4 DUP2 LT ISZERO PUSH2 0x2322 JUMPI PUSH1 0x0 DUP1 PUSH2 0x213B PUSH2 0x3A8E JUMP JUMPDEST PUSH2 0x2146 DUP12 DUP12 DUP7 PUSH2 0x3074 JUMP JUMPDEST SWAP1 POP PUSH1 0x0 DUP1 PUSH2 0x2156 DUP14 DUP14 DUP9 PUSH2 0x31A2 JUMP JUMPDEST SWAP2 POP SWAP2 POP PUSH1 0x0 PUSH2 0x2164 PUSH2 0x1D7B JUMP JUMPDEST PUSH1 0x1 PUSH1 0x1 PUSH1 0xA0 SHL SUB AND PUSH4 0x266DA16B DUP6 PUSH1 0x0 ADD MLOAD DUP7 PUSH1 0x20 ADD MLOAD DUP8 PUSH1 0x40 ADD MLOAD DUP8 DUP8 PUSH1 0x40 MLOAD DUP7 PUSH4 0xFFFFFFFF AND PUSH1 0xE0 SHL DUP2 MSTORE PUSH1 0x4 ADD DUP1 DUP7 DUP2 MSTORE PUSH1 0x20 ADD DUP6 DUP2 MSTORE PUSH1 0x20 ADD DUP5 DUP2 MSTORE PUSH1 0x20 ADD DUP4 DUP2 MSTORE PUSH1 0x20 ADD DUP3 DUP2 MSTORE PUSH1 0x20 ADD SWAP6 POP POP POP POP POP POP PUSH1 0x20 PUSH1 0x40 MLOAD DUP1 DUP4 SUB DUP2 DUP7 DUP1 PUSH2 0x21CE PUSH2 0x390A JUMP JUMPDEST ISZERO DUP1 ISZERO PUSH2 0x21DA JUMPI PUSH1 0x0 DUP1 REVERT JUMPDEST POP GAS PUSH2 0x21E4 PUSH2 0x393C JUMP JUMPDEST POP POP POP POP POP ISZERO DUP1 ISZERO PUSH2 0x21FA JUMPI RETURNDATASIZE PUSH1 0x0 DUP1 RETURNDATACOPY RETURNDATASIZE PUSH1 0x0 REVERT JUMPDEST POP POP POP POP PUSH1 0x40 MLOAD RETURNDATASIZE PUSH1 0x20 DUP2 LT ISZERO PUSH2 0x2210 JUMPI PUSH1 0x0 DUP1 REVERT JUMPDEST POP MLOAD PUSH1 0x80 DUP6 ADD MLOAD SWAP1 SWAP2 POP PUSH1 0x0 SWAP1 PUSH2 0x2228 SWAP1 DUP4 SWAP1 PUSH2 0x33E6 JUMP JUMPDEST SWAP1 POP PUSH2 0x2238 DUP6 PUSH1 0x60 ADD MLOAD DUP3 PUSH2 0x3013 JUMP JUMPDEST PUSH2 0x22AD JUMPI DUP1 DUP6 PUSH1 0x60 ADD MLOAD GT ISZERO PUSH2 0x2276 JUMPI PUSH1 0x60 DUP6 ADD MLOAD PUSH2 0x225D SWAP1 DUP3 PUSH4 0xFFFFFFFF PUSH2 0x289A AND JUMP JUMPDEST SWAP7 POP PUSH2 0x226F DUP14 DUP9 PUSH4 0xFFFFFFFF PUSH2 0x265B AND JUMP JUMPDEST SWAP13 POP PUSH2 0x22AD JUMP JUMPDEST DUP5 PUSH1 0x60 ADD MLOAD DUP2 GT ISZERO PUSH2 0x22AD JUMPI PUSH1 0x60 DUP6 ADD MLOAD PUSH2 0x2298 SWAP1 DUP3 SWAP1 PUSH4 0xFFFFFFFF PUSH2 0x289A AND JUMP JUMPDEST SWAP6 POP PUSH2 0x22AA DUP13 DUP8 PUSH4 0xFFFFFFFF PUSH2 0x265B AND JUMP JUMPDEST SWAP12 POP JUMPDEST PUSH1 0x40 MLOAD DUP1 PUSH2 0x100 ADD PUSH1 0x40 MSTORE DUP1 DUP7 PUSH1 0x0 ADD MLOAD DUP2 MSTORE PUSH1 0x20 ADD DUP7 PUSH1 0x20 ADD MLOAD DUP2 MSTORE PUSH1 0x20 ADD DUP7 PUSH1 0x40 ADD MLOAD DUP2 MSTORE PUSH1 0x20 ADD DUP9 DUP2 MSTORE PUSH1 0x20 ADD DUP8 DUP2 MSTORE PUSH1 0x20 ADD DUP6 DUP2 MSTORE PUSH1 0x20 ADD DUP5 DUP2 MSTORE PUSH1 0x20 ADD DUP7 PUSH1 0xA0 ADD MLOAD DUP2 MSTORE POP DUP10 DUP10 DUP2 MLOAD DUP2 LT PUSH2 0x2303 JUMPI INVALID JUMPDEST PUSH1 0x20 MUL PUSH1 0x20 ADD ADD DUP2 SWAP1 MSTORE POP POP POP POP POP POP POP POP DUP1 DUP1 PUSH1 0x1 ADD SWAP2 POP POP PUSH2 0x2128 JUMP JUMPDEST POP SWAP1 POP SWAP3 SWAP6 SWAP2 SWAP5 POP SWAP3 POP JUMP JUMPDEST PUSH1 0x0 PUSH2 0x2338 PUSH2 0x348B JUMP JUMPDEST PUSH1 0x1 PUSH1 0x1 PUSH1 0xA0 SHL SUB AND PUSH4 0x80803FFF DUP4 PUSH1 0x40 MLOAD DUP3 PUSH4 0xFFFFFFFF AND PUSH1 0xE0 SHL DUP2 MSTORE PUSH1 0x4 ADD DUP1 DUP3 DUP2 MSTORE PUSH1 0x20 ADD SWAP2 POP POP PUSH1 0x20 PUSH1 0x40 MLOAD DUP1 DUP4 SUB DUP2 DUP7 DUP1 PUSH2 0x2376 PUSH2 0x390A JUMP JUMPDEST ISZERO DUP1 ISZERO PUSH2 0x2382 JUMPI PUSH1 0x0 DUP1 REVERT JUMPDEST POP GAS PUSH2 0x238C PUSH2 0x393C JUMP JUMPDEST POP POP POP POP POP ISZERO DUP1 ISZERO PUSH2 0x23A2 JUMPI RETURNDATASIZE PUSH1 0x0 DUP1 RETURNDATACOPY RETURNDATASIZE PUSH1 0x0 REVERT JUMPDEST POP POP POP POP PUSH1 0x40 MLOAD RETURNDATASIZE PUSH1 0x20 DUP2 LT ISZERO PUSH2 0x23B8 JUMPI PUSH1 0x0 DUP1 REVERT JUMPDEST POP MLOAD SWAP4 SWAP3 POP POP POP JUMP JUMPDEST PUSH1 0x0 DUP1 PUSH1 0x0 PUSH2 0x23D0 DUP6 DUP6 PUSH2 0x588 JUMP JUMPDEST ISZERO PUSH2 0x240C JUMPI PUSH1 0x40 MLOAD PUSH3 0x461BCD PUSH1 0xE5 SHL DUP2 MSTORE PUSH1 0x4 ADD DUP1 DUP1 PUSH1 0x20 ADD DUP3 DUP2 SUB DUP3 MSTORE PUSH1 0x23 DUP2 MSTORE PUSH1 0x20 ADD DUP1 PUSH2 0x3BFC PUSH1 0x23 SWAP2 CODECOPY PUSH1 0x40 ADD SWAP2 POP POP PUSH1 0x40 MLOAD DUP1 SWAP2 SUB SWAP1 REVERT JUMPDEST PUSH1 0x0 DUP1 PUSH1 0x0 PUSH1 0x60 PUSH2 0x241D DUP10 DUP10 PUSH2 0x2038 JUMP JUMPDEST SWAP4 POP SWAP4 POP SWAP4 POP SWAP4 POP DUP3 DUP5 GT ISZERO PUSH2 0x244F JUMPI PUSH2 0x243D DUP5 DUP5 PUSH4 0xFFFFFFFF PUSH2 0x289A AND JUMP JUMPDEST SWAP7 POP PUSH2 0x244A DUP10 DUP10 DUP10 PUSH2 0x34D6 JUMP JUMPDEST PUSH2 0x2474 JUMP JUMPDEST DUP4 DUP4 GT ISZERO PUSH2 0x2474 JUMPI PUSH2 0x2467 DUP4 DUP6 PUSH4 0xFFFFFFFF PUSH2 0x289A AND JUMP JUMPDEST SWAP6 POP PUSH2 0x2474 DUP10 DUP10 DUP9 PUSH2 0x3648 JUMP JUMPDEST PUSH1 0x0 JUMPDEST DUP2 MLOAD DUP2 LT ISZERO PUSH2 0x25B9 JUMPI DUP10 PUSH1 0x1 PUSH1 0x1 PUSH1 0xA0 SHL SUB AND PUSH32 0x8E3AD1F68BEC55DE3B6FA12AE2674A2A683A17C918A4CBF5157AC5D9DDC6E940 DUP4 DUP4 DUP2 MLOAD DUP2 LT PUSH2 0x24B7 JUMPI INVALID JUMPDEST PUSH1 0x20 MUL PUSH1 0x20 ADD ADD MLOAD PUSH1 0x0 ADD MLOAD DUP5 DUP5 DUP2 MLOAD DUP2 LT PUSH2 0x24CF JUMPI INVALID JUMPDEST PUSH1 0x20 MUL PUSH1 0x20 ADD ADD MLOAD PUSH1 0x20 ADD MLOAD DUP6 DUP6 DUP2 MLOAD DUP2 LT PUSH2 0x24E7 JUMPI INVALID JUMPDEST PUSH1 0x20 MUL PUSH1 0x20 ADD ADD MLOAD PUSH1 0x40 ADD MLOAD DUP7 DUP7 DUP2 MLOAD DUP2 LT PUSH2 0x24FF JUMPI INVALID JUMPDEST PUSH1 0x20 MUL PUSH1 0x20 ADD ADD MLOAD PUSH1 0x60 ADD MLOAD DUP8 DUP8 DUP2 MLOAD DUP2 LT PUSH2 0x2517 JUMPI INVALID JUMPDEST PUSH1 0x20 MUL PUSH1 0x20 ADD ADD MLOAD PUSH1 0x80 ADD MLOAD DUP9 DUP9 DUP2 MLOAD DUP2 LT PUSH2 0x252F JUMPI INVALID JUMPDEST PUSH1 0x20 MUL PUSH1 0x20 ADD ADD MLOAD PUSH1 0xA0 ADD MLOAD DUP10 DUP10 DUP2 MLOAD DUP2 LT PUSH2 0x2547 JUMPI INVALID JUMPDEST PUSH1 0x20 MUL PUSH1 0x20 ADD ADD MLOAD PUSH1 0xC0 ADD MLOAD DUP11 DUP11 DUP2 MLOAD DUP2 LT PUSH2 0x255F JUMPI INVALID JUMPDEST PUSH1 0x20 MUL PUSH1 0x20 ADD ADD MLOAD PUSH1 0xE0 ADD MLOAD PUSH1 0x40 MLOAD DUP1 DUP10 DUP2 MSTORE PUSH1 0x20 ADD DUP9 DUP2 MSTORE PUSH1 0x20 ADD DUP8 DUP2 MSTORE PUSH1 0x20 ADD DUP7 DUP2 MSTORE PUSH1 0x20 ADD DUP6 DUP2 MSTORE PUSH1 0x20 ADD DUP5 DUP2 MSTORE PUSH1 0x20 ADD DUP4 DUP2 MSTORE PUSH1 0x20 ADD DUP3 DUP2 MSTORE PUSH1 0x20 ADD SWAP9 POP POP POP POP POP POP POP POP POP PUSH1 0x40 MLOAD DUP1 SWAP2 SUB SWAP1 LOG2 PUSH1 0x1 ADD PUSH2 0x2477 JUMP JUMPDEST POP DUP2 SWAP5 POP PUSH2 0x25C5 PUSH2 0x1714 JUMP JUMPDEST PUSH1 0x1 PUSH1 0x1 PUSH1 0xA0 SHL SUB AND PUSH4 0xD0D3D62A DUP11 DUP11 PUSH1 0x40 MLOAD DUP4 PUSH4 0xFFFFFFFF AND PUSH1 0xE0 SHL DUP2 MSTORE PUSH1 0x4 ADD DUP1 DUP4 PUSH1 0x1 PUSH1 0x1 PUSH1 0xA0 SHL SUB AND PUSH1 0x1 PUSH1 0x1 PUSH1 0xA0 SHL SUB AND DUP2 MSTORE PUSH1 0x20 ADD DUP3 DUP2 MSTORE PUSH1 0x20 ADD SWAP3 POP POP POP PUSH1 0x0 PUSH1 0x40 MLOAD DUP1 DUP4 SUB DUP2 PUSH1 0x0 DUP8 DUP1 PUSH2 0x261F PUSH2 0x390A JUMP JUMPDEST ISZERO DUP1 ISZERO PUSH2 0x262B JUMPI PUSH1 0x0 DUP1 REVERT JUMPDEST POP GAS PUSH2 0x2635 PUSH2 0x39B9 JUMP JUMPDEST POP POP POP POP POP POP ISZERO DUP1 ISZERO PUSH2 0x264C JUMPI RETURNDATASIZE PUSH1 0x0 DUP1 RETURNDATACOPY RETURNDATASIZE PUSH1 0x0 REVERT JUMPDEST POP POP POP POP POP POP POP POP SWAP3 POP SWAP3 POP SWAP3 JUMP JUMPDEST PUSH1 0x0 DUP3 DUP3 ADD DUP4 DUP2 LT ISZERO PUSH2 0x636 JUMPI PUSH1 0x40 DUP1 MLOAD PUSH3 0x461BCD PUSH1 0xE5 SHL DUP2 MSTORE PUSH1 0x20 PUSH1 0x4 DUP3 ADD MSTORE PUSH1 0x1B PUSH1 0x24 DUP3 ADD MSTORE PUSH32 0x536166654D6174683A206164646974696F6E206F766572666C6F770000000000 PUSH1 0x44 DUP3 ADD MSTORE SWAP1 MLOAD SWAP1 DUP2 SWAP1 SUB PUSH1 0x64 ADD SWAP1 REVERT JUMPDEST PUSH1 0x0 PUSH2 0x1765 PUSH17 0x44656C6567617465417070726F76616C73 PUSH1 0x78 SHL PUSH1 0x40 MLOAD DUP1 PUSH1 0x60 ADD PUSH1 0x40 MSTORE DUP1 PUSH1 0x21 DUP2 MSTORE PUSH1 0x20 ADD PUSH2 0x3B46 PUSH1 0x21 SWAP2 CODECOPY PUSH2 0x27DA JUMP JUMPDEST PUSH1 0x0 DUP1 PUSH1 0x0 DUP1 PUSH1 0x0 DUP1 PUSH2 0x26FE PUSH2 0x1D7B JUMP JUMPDEST PUSH1 0x1 PUSH1 0x1 PUSH1 0xA0 SHL SUB AND PUSH4 0x8295016A DUP10 DUP12 DUP11 PUSH1 0x40 MLOAD DUP5 PUSH4 0xFFFFFFFF AND PUSH1 0xE0 SHL DUP2 MSTORE PUSH1 0x4 ADD DUP1 DUP5 DUP2 MSTORE PUSH1 0x20 ADD DUP4 DUP2 MSTORE PUSH1 0x20 ADD DUP3 DUP2 MSTORE PUSH1 0x20 ADD SWAP4 POP POP POP POP PUSH1 0x60 PUSH1 0x40 MLOAD DUP1 DUP4 SUB DUP2 DUP7 DUP1 PUSH2 0x274C PUSH2 0x390A JUMP JUMPDEST ISZERO DUP1 ISZERO PUSH2 0x2758 JUMPI PUSH1 0x0 DUP1 REVERT JUMPDEST POP GAS PUSH2 0x2762 PUSH2 0x393C JUMP JUMPDEST POP POP POP POP POP ISZERO DUP1 ISZERO PUSH2 0x2778 JUMPI RETURNDATASIZE PUSH1 0x0 DUP1 RETURNDATACOPY RETURNDATASIZE PUSH1 0x0 REVERT JUMPDEST POP POP POP POP PUSH1 0x40 MLOAD RETURNDATASIZE PUSH1 0x60 DUP2 LT ISZERO PUSH2 0x278E JUMPI PUSH1 0x0 DUP1 REVERT JUMPDEST POP DUP1 MLOAD PUSH1 0x20 DUP3 ADD MLOAD PUSH1 0x40 SWAP1 SWAP3 ADD MLOAD SWAP2 SWAP5 POP SWAP1 SWAP3 POP SWAP1 POP PUSH2 0x27AE DUP9 DUP9 PUSH2 0x232E JUMP JUMPDEST SWAP4 POP PUSH2 0x27BA DUP2 DUP6 PUSH2 0x33E6 JUMP JUMPDEST SWAP6 POP PUSH2 0x27CC DUP2 DUP8 PUSH4 0xFFFFFFFF PUSH2 0x289A AND JUMP JUMPDEST SWAP5 POP POP SWAP4 SWAP8 SWAP3 SWAP7 POP SWAP4 POP SWAP4 POP JUMP JUMPDEST PUSH1 0x0 DUP3 DUP2 MSTORE PUSH1 0x3 PUSH1 0x20 MSTORE PUSH1 0x40 DUP2 KECCAK256 DUP2 SWAP1 DUP2 SWAP1 PUSH2 0x27F4 PUSH2 0x38D1 JUMP JUMPDEST PUSH1 0x1 PUSH1 0x1 PUSH1 0xA0 SHL SUB PUSH2 0x100 SWAP3 SWAP1 SWAP3 EXP SWAP1 DIV AND SWAP1 POP DUP3 DUP2 PUSH2 0x2892 JUMPI PUSH1 0x40 MLOAD PUSH3 0x461BCD PUSH1 0xE5 SHL DUP2 MSTORE PUSH1 0x4 ADD DUP1 DUP1 PUSH1 0x20 ADD DUP3 DUP2 SUB DUP3 MSTORE DUP4 DUP2 DUP2 MLOAD DUP2 MSTORE PUSH1 0x20 ADD SWAP2 POP DUP1 MLOAD SWAP1 PUSH1 0x20 ADD SWAP1 DUP1 DUP4 DUP4 PUSH1 0x0 JUMPDEST DUP4 DUP2 LT ISZERO PUSH2 0x2857 JUMPI DUP2 DUP2 ADD MLOAD DUP4 DUP3 ADD MSTORE PUSH1 0x20 ADD PUSH2 0x283F JUMP JUMPDEST POP POP POP POP SWAP1 POP SWAP1 DUP2 ADD SWAP1 PUSH1 0x1F AND DUP1 ISZERO PUSH2 0x2884 JUMPI DUP1 DUP3 SUB DUP1 MLOAD PUSH1 0x1 DUP4 PUSH1 0x20 SUB PUSH2 0x100 EXP SUB NOT AND DUP2 MSTORE PUSH1 0x20 ADD SWAP2 POP JUMPDEST POP SWAP3 POP POP POP PUSH1 0x40 MLOAD DUP1 SWAP2 SUB SWAP1 REVERT JUMPDEST POP SWAP4 SWAP3 POP POP POP JUMP JUMPDEST PUSH1 0x0 DUP3 DUP3 GT ISZERO PUSH2 0x28F1 JUMPI PUSH1 0x40 DUP1 MLOAD PUSH3 0x461BCD PUSH1 0xE5 SHL DUP2 MSTORE PUSH1 0x20 PUSH1 0x4 DUP3 ADD MSTORE PUSH1 0x1E PUSH1 0x24 DUP3 ADD MSTORE PUSH32 0x536166654D6174683A207375627472616374696F6E206F766572666C6F770000 PUSH1 0x44 DUP3 ADD MSTORE SWAP1 MLOAD SWAP1 DUP2 SWAP1 SUB PUSH1 0x64 ADD SWAP1 REVERT JUMPDEST POP SWAP1 SUB SWAP1 JUMP JUMPDEST DUP1 DUP4 EQ ISZERO PUSH2 0x2942 JUMPI PUSH1 0x40 DUP1 MLOAD PUSH3 0x461BCD PUSH1 0xE5 SHL DUP2 MSTORE PUSH1 0x20 PUSH1 0x4 DUP3 ADD MSTORE PUSH1 0x13 PUSH1 0x24 DUP3 ADD MSTORE PUSH19 0x86C2DC4EE840C4CA40E6C2DACA40E6F2DCE8D PUSH1 0x6B SHL PUSH1 0x44 DUP3 ADD MSTORE SWAP1 MLOAD SWAP1 DUP2 SWAP1 SUB PUSH1 0x64 ADD SWAP1 REVERT JUMPDEST PUSH1 0x0 DUP3 GT PUSH2 0x2985 JUMPI PUSH1 0x40 DUP1 MLOAD PUSH3 0x461BCD PUSH1 0xE5 SHL DUP2 MSTORE PUSH1 0x20 PUSH1 0x4 DUP3 ADD MSTORE PUSH1 0xB PUSH1 0x24 DUP3 ADD MSTORE PUSH11 0x16995C9BC8185B5BDD5B9D PUSH1 0xAA SHL PUSH1 0x44 DUP3 ADD MSTORE SWAP1 MLOAD SWAP1 DUP2 SWAP1 SUB PUSH1 0x64 ADD SWAP1 REVERT JUMPDEST PUSH1 0x40 DUP1 MLOAD PUSH1 0x2 DUP1 DUP3 MSTORE PUSH1 0x60 DUP1 DUP4 ADD DUP5 MSTORE SWAP3 PUSH1 0x20 DUP4 ADD SWAP1 DUP1 CODESIZE DUP4 CODECOPY ADD SWAP1 POP POP SWAP1 POP DUP4 DUP2 PUSH1 0x0 DUP2 MLOAD DUP2 LT PUSH2 0x29B3 JUMPI INVALID JUMPDEST PUSH1 0x20 MUL PUSH1 0x20 ADD ADD DUP2 DUP2 MSTORE POP POP DUP2 DUP2 PUSH1 0x1 DUP2 MLOAD DUP2 LT PUSH2 0x29CD JUMPI INVALID JUMPDEST PUSH1 0x20 MUL PUSH1 0x20 ADD ADD DUP2 DUP2 MSTORE POP POP PUSH2 0x29E1 PUSH2 0x1D7B JUMP JUMPDEST PUSH1 0x1 PUSH1 0x1 PUSH1 0xA0 SHL SUB AND PUSH4 0x2D227674 DUP3 PUSH1 0x40 MLOAD DUP3 PUSH4 0xFFFFFFFF AND PUSH1 0xE0 SHL DUP2 MSTORE PUSH1 0x4 ADD DUP1 DUP1 PUSH1 0x20 ADD DUP3 DUP2 SUB DUP3 MSTORE DUP4 DUP2 DUP2 MLOAD DUP2 MSTORE PUSH1 0x20 ADD SWAP2 POP DUP1 MLOAD SWAP1 PUSH1 0x20 ADD SWAP1 PUSH1 0x20 MUL DUP1 DUP4 DUP4 PUSH1 0x0 JUMPDEST DUP4 DUP2 LT ISZERO PUSH2 0x2A3F JUMPI DUP2 DUP2 ADD MLOAD DUP4 DUP3 ADD MSTORE PUSH1 0x20 ADD PUSH2 0x2A27 JUMP JUMPDEST POP POP POP POP SWAP1 POP ADD SWAP3 POP POP POP PUSH1 0x20 PUSH1 0x40 MLOAD DUP1 DUP4 SUB DUP2 DUP7 DUP1 PUSH2 0x2A5D PUSH2 0x390A JUMP JUMPDEST ISZERO DUP1 ISZERO PUSH2 0x2A69 JUMPI PUSH1 0x0 DUP1 REVERT JUMPDEST POP GAS PUSH2 0x2A73 PUSH2 0x393C JUMP JUMPDEST POP POP POP POP POP ISZERO DUP1 ISZERO PUSH2 0x2A89 JUMPI RETURNDATASIZE PUSH1 0x0 DUP1 RETURNDATACOPY RETURNDATASIZE PUSH1 0x0 REVERT JUMPDEST POP POP POP POP PUSH1 0x40 MLOAD RETURNDATASIZE PUSH1 0x20 DUP2 LT ISZERO PUSH2 0x2A9F JUMPI PUSH1 0x0 DUP1 REVERT JUMPDEST POP MLOAD ISZERO PUSH2 0x2AF3 JUMPI PUSH1 0x40 DUP1 MLOAD PUSH3 0x461BCD PUSH1 0xE5 SHL DUP2 MSTORE PUSH1 0x20 PUSH1 0x4 DUP3 ADD DUP2 SWAP1 MSTORE PUSH1 0x24 DUP3 ADD MSTORE PUSH32 0x5372632F646573742072617465207374616C65206F72206E6F7420666F756E64 PUSH1 0x44 DUP3 ADD MSTORE SWAP1 MLOAD SWAP1 DUP2 SWAP1 SUB PUSH1 0x64 ADD SWAP1 REVERT JUMPDEST POP POP POP POP JUMP JUMPDEST PUSH1 0x0 PUSH2 0x2B03 PUSH2 0x1D7B JUMP JUMPDEST PUSH1 0x1 PUSH1 0x1 PUSH1 0xA0 SHL SUB AND PUSH4 0x654A60AC DUP4 DUP6 PUSH4 0x1CD554D1 PUSH1 0xE2 SHL PUSH1 0x40 MLOAD DUP5 PUSH4 0xFFFFFFFF AND PUSH1 0xE0 SHL DUP2 MSTORE PUSH1 0x4 ADD DUP1 DUP5 DUP2 MSTORE PUSH1 0x20 ADD DUP4 DUP2 MSTORE PUSH1 0x20 ADD DUP3 DUP2 MSTORE PUSH1 0x20 ADD SWAP4 POP POP POP POP PUSH1 0x20 PUSH1 0x40 MLOAD DUP1 DUP4 SUB DUP2 DUP7 DUP1 PUSH2 0x2B58 PUSH2 0x390A JUMP JUMPDEST ISZERO DUP1 ISZERO PUSH2 0x2B64 JUMPI PUSH1 0x0 DUP1 REVERT JUMPDEST POP GAS PUSH2 0x2B6E PUSH2 0x393C JUMP JUMPDEST POP POP POP POP POP ISZERO DUP1 ISZERO PUSH2 0x2B84 JUMPI RETURNDATASIZE PUSH1 0x0 DUP1 RETURNDATACOPY RETURNDATASIZE PUSH1 0x0 REVERT JUMPDEST POP POP POP POP PUSH1 0x40 MLOAD RETURNDATASIZE PUSH1 0x20 DUP2 LT ISZERO PUSH2 0x2B9A JUMPI PUSH1 0x0 DUP1 REVERT JUMPDEST POP MLOAD SWAP1 POP PUSH2 0x2BA6 PUSH2 0x1D38 JUMP JUMPDEST PUSH1 0x1 PUSH1 0x1 PUSH1 0xA0 SHL SUB AND PUSH4 0x32608039 PUSH4 0x1CD554D1 PUSH1 0xE2 SHL PUSH1 0x40 MLOAD DUP3 PUSH4 0xFFFFFFFF AND PUSH1 0xE0 SHL DUP2 MSTORE PUSH1 0x4 ADD DUP1 DUP3 DUP2 MSTORE PUSH1 0x20 ADD SWAP2 POP POP PUSH1 0x20 PUSH1 0x40 MLOAD DUP1 DUP4 SUB DUP2 DUP7 DUP1 PUSH2 0x2BEB PUSH2 0x390A JUMP JUMPDEST ISZERO DUP1 ISZERO PUSH2 0x2BF7 JUMPI PUSH1 0x0 DUP1 REVERT JUMPDEST POP GAS PUSH2 0x2C01 PUSH2 0x393C JUMP JUMPDEST POP POP POP POP POP ISZERO DUP1 ISZERO PUSH2 0x2C17 JUMPI RETURNDATASIZE PUSH1 0x0 DUP1 RETURNDATACOPY RETURNDATASIZE PUSH1 0x0 REVERT JUMPDEST POP POP POP POP PUSH1 0x40 MLOAD RETURNDATASIZE PUSH1 0x20 DUP2 LT ISZERO PUSH2 0x2C2D JUMPI PUSH1 0x0 DUP1 REVERT JUMPDEST POP MLOAD PUSH1 0x1 PUSH1 0x1 PUSH1 0xA0 SHL SUB AND PUSH4 0x867904B4 PUSH2 0x2C45 PUSH2 0x348B JUMP JUMPDEST PUSH1 0x1 PUSH1 0x1 PUSH1 0xA0 SHL SUB AND PUSH4 0xEB1EDD61 PUSH1 0x40 MLOAD DUP2 PUSH4 0xFFFFFFFF AND PUSH1 0xE0 SHL DUP2 MSTORE PUSH1 0x4 ADD PUSH1 0x20 PUSH1 0x40 MLOAD DUP1 DUP4 SUB DUP2 DUP7 DUP1 PUSH2 0x2C78 PUSH2 0x390A JUMP JUMPDEST ISZERO DUP1 ISZERO PUSH2 0x2C84 JUMPI PUSH1 0x0 DUP1 REVERT JUMPDEST POP GAS PUSH2 0x2C8E PUSH2 0x393C JUMP JUMPDEST POP POP POP POP POP ISZERO DUP1 ISZERO PUSH2 0x2CA4 JUMPI RETURNDATASIZE PUSH1 0x0 DUP1 RETURNDATACOPY RETURNDATASIZE PUSH1 0x0 REVERT JUMPDEST POP POP POP POP PUSH1 0x40 MLOAD RETURNDATASIZE PUSH1 0x20 DUP2 LT ISZERO PUSH2 0x2CBA JUMPI PUSH1 0x0 DUP1 REVERT JUMPDEST POP MLOAD PUSH1 0x40 DUP1 MLOAD PUSH1 0x1 PUSH1 0x1 PUSH1 0xE0 SHL SUB NOT PUSH1 0xE0 DUP6 SWAP1 SHL AND DUP2 MSTORE PUSH1 0x1 PUSH1 0x1 PUSH1 0xA0 SHL SUB SWAP1 SWAP3 AND PUSH1 0x4 DUP4 ADD MSTORE PUSH1 0x24 DUP3 ADD DUP6 SWAP1 MSTORE MLOAD PUSH1 0x44 DUP1 DUP4 ADD SWAP3 PUSH1 0x0 SWAP3 SWAP2 SWAP1 DUP3 SWAP1 SUB ADD DUP2 DUP4 DUP8 DUP1 PUSH2 0x2D04 PUSH2 0x390A JUMP JUMPDEST ISZERO DUP1 ISZERO PUSH2 0x2D10 JUMPI PUSH1 0x0 DUP1 REVERT JUMPDEST POP GAS PUSH2 0x2D1A PUSH2 0x39B9 JUMP JUMPDEST POP POP POP POP POP POP ISZERO DUP1 ISZERO PUSH2 0x2D31 JUMPI RETURNDATASIZE PUSH1 0x0 DUP1 RETURNDATACOPY RETURNDATASIZE PUSH1 0x0 REVERT JUMPDEST POP POP POP POP PUSH2 0x2D3D PUSH2 0x348B JUMP JUMPDEST PUSH1 0x1 PUSH1 0x1 PUSH1 0xA0 SHL SUB AND PUSH4 0x22BF55EF DUP3 PUSH1 0x40 MLOAD DUP3 PUSH4 0xFFFFFFFF AND PUSH1 0xE0 SHL DUP2 MSTORE PUSH1 0x4 ADD DUP1 DUP3 DUP2 MSTORE PUSH1 0x20 ADD SWAP2 POP POP PUSH1 0x0 PUSH1 0x40 MLOAD DUP1 DUP4 SUB DUP2 PUSH1 0x0 DUP8 DUP1 PUSH2 0x2D7D PUSH2 0x390A JUMP JUMPDEST ISZERO DUP1 ISZERO PUSH2 0x2D89 JUMPI PUSH1 0x0 DUP1 REVERT JUMPDEST POP GAS PUSH2 0x2D93 PUSH2 0x39B9 JUMP JUMPDEST POP POP POP POP POP POP ISZERO DUP1 ISZERO PUSH2 0x2DAA JUMPI RETURNDATASIZE PUSH1 0x0 DUP1 RETURNDATACOPY RETURNDATASIZE PUSH1 0x0 REVERT JUMPDEST POP POP POP POP POP POP POP JUMP JUMPDEST PUSH1 0x0 PUSH2 0x2DBD PUSH2 0x1D7B JUMP JUMPDEST SWAP1 POP PUSH1 0x0 DUP2 PUSH1 0x1 PUSH1 0x1 PUSH1 0xA0 SHL SUB AND PUSH4 0x7A018A1E DUP9 PUSH1 0x40 MLOAD DUP3 PUSH4 0xFFFFFFFF AND PUSH1 0xE0 SHL DUP2 MSTORE PUSH1 0x4 ADD DUP1 DUP3 DUP2 MSTORE PUSH1 0x20 ADD SWAP2 POP POP PUSH1 0x20 PUSH1 0x40 MLOAD DUP1 DUP4 SUB DUP2 DUP7 DUP1 PUSH2 0x2E00 PUSH2 0x390A JUMP JUMPDEST ISZERO DUP1 ISZERO PUSH2 0x2E0C JUMPI PUSH1 0x0 DUP1 REVERT JUMPDEST POP GAS PUSH2 0x2E16 PUSH2 0x393C JUMP JUMPDEST POP POP POP POP POP ISZERO DUP1 ISZERO PUSH2 0x2E2C JUMPI RETURNDATASIZE PUSH1 0x0 DUP1 RETURNDATACOPY RETURNDATASIZE PUSH1 0x0 REVERT JUMPDEST POP POP POP POP PUSH1 0x40 MLOAD RETURNDATASIZE PUSH1 0x20 DUP2 LT ISZERO PUSH2 0x2E42 JUMPI PUSH1 0x0 DUP1 REVERT JUMPDEST POP MLOAD PUSH1 0x40 DUP1 MLOAD PUSH4 0x3D00C50F PUSH1 0xE1 SHL DUP2 MSTORE PUSH1 0x4 DUP2 ADD DUP9 SWAP1 MSTORE SWAP1 MLOAD SWAP2 SWAP3 POP PUSH1 0x0 SWAP2 PUSH1 0x1 PUSH1 0x1 PUSH1 0xA0 SHL SUB DUP6 AND SWAP2 PUSH4 0x7A018A1E SWAP2 PUSH1 0x24 DUP1 DUP4 ADD SWAP3 PUSH1 0x20 SWAP3 SWAP2 SWAP1 DUP3 SWAP1 SUB ADD DUP2 DUP7 DUP1 PUSH2 0x2E8C PUSH2 0x390A JUMP JUMPDEST ISZERO DUP1 ISZERO PUSH2 0x2E98 JUMPI PUSH1 0x0 DUP1 REVERT JUMPDEST POP GAS PUSH2 0x2EA2 PUSH2 0x393C JUMP JUMPDEST POP POP POP POP POP ISZERO DUP1 ISZERO PUSH2 0x2EB8 JUMPI RETURNDATASIZE PUSH1 0x0 DUP1 RETURNDATACOPY RETURNDATASIZE PUSH1 0x0 REVERT JUMPDEST POP POP POP POP PUSH1 0x40 MLOAD RETURNDATASIZE PUSH1 0x20 DUP2 LT ISZERO PUSH2 0x2ECE JUMPI PUSH1 0x0 DUP1 REVERT JUMPDEST POP MLOAD SWAP1 POP PUSH2 0x2EDA PUSH2 0x1714 JUMP JUMPDEST PUSH1 0x1 PUSH1 0x1 PUSH1 0xA0 SHL SUB AND PUSH4 0x3CA9D85C DUP11 DUP11 DUP11 DUP11 DUP11 DUP11 GAS PUSH2 0x2EF7 PUSH2 0x3A69 JUMP JUMPDEST PUSH1 0x40 DUP1 MLOAD PUSH1 0x1 PUSH1 0x1 PUSH1 0xE0 SHL SUB NOT PUSH1 0xE0 DUP12 SWAP1 SHL AND DUP2 MSTORE PUSH1 0x1 PUSH1 0x1 PUSH1 0xA0 SHL SUB SWAP1 SWAP9 AND PUSH1 0x4 DUP10 ADD MSTORE PUSH1 0x24 DUP9 ADD SWAP7 SWAP1 SWAP7 MSTORE PUSH1 0x44 DUP8 ADD SWAP5 SWAP1 SWAP5 MSTORE PUSH1 0x64 DUP7 ADD SWAP3 SWAP1 SWAP3 MSTORE PUSH1 0x84 DUP6 ADD MSTORE PUSH1 0xA4 DUP5 ADD MSTORE PUSH1 0xC4 DUP4 ADD MSTORE PUSH1 0xE4 DUP3 ADD DUP7 SWAP1 MSTORE PUSH2 0x104 DUP3 ADD DUP6 SWAP1 MSTORE MLOAD PUSH2 0x124 DUP1 DUP4 ADD SWAP3 PUSH1 0x0 SWAP3 SWAP2 SWAP1 DUP3 SWAP1 SUB ADD DUP2 DUP4 DUP8 DUP1 PUSH2 0x2F6F PUSH2 0x390A JUMP JUMPDEST ISZERO DUP1 ISZERO PUSH2 0x2F7B JUMPI PUSH1 0x0 DUP1 REVERT JUMPDEST POP GAS PUSH2 0x2F85 PUSH2 0x39B9 JUMP JUMPDEST POP POP POP POP POP POP ISZERO DUP1 ISZERO PUSH2 0x2F9C JUMPI RETURNDATASIZE PUSH1 0x0 DUP1 RETURNDATACOPY RETURNDATASIZE PUSH1 0x0 REVERT JUMPDEST POP POP PUSH1 0x40 DUP1 MLOAD DUP12 DUP2 MSTORE PUSH1 0x20 DUP2 ADD DUP12 SWAP1 MSTORE DUP1 DUP3 ADD DUP11 SWAP1 MSTORE PUSH1 0x60 DUP2 ADD DUP10 SWAP1 MSTORE PUSH1 0x80 DUP2 ADD DUP9 SWAP1 MSTORE PUSH1 0xA0 DUP2 ADD DUP7 SWAP1 MSTORE PUSH1 0xC0 DUP2 ADD DUP6 SWAP1 MSTORE SWAP1 MLOAD PUSH1 0x1 PUSH1 0x1 PUSH1 0xA0 SHL SUB DUP14 AND SWAP4 POP PUSH32 0x62E40D554C7ABCDD31074960D8347A2225DAEB04D93BC748F049BA2CE9462398 SWAP3 POP SWAP1 DUP2 SWAP1 SUB PUSH1 0xE0 ADD SWAP1 LOG2 POP POP POP POP POP POP POP POP POP JUMP JUMPDEST PUSH1 0x0 DUP3 ISZERO DUP1 PUSH2 0x3020 JUMPI POP DUP2 ISZERO JUMPDEST ISZERO PUSH2 0x302D JUMPI POP PUSH1 0x1 PUSH2 0x639 JUMP JUMPDEST PUSH1 0x0 DUP4 DUP4 GT ISZERO PUSH2 0x304E JUMPI PUSH2 0x3047 DUP4 DUP6 PUSH4 0xFFFFFFFF PUSH2 0x37BA AND JUMP JUMPDEST SWAP1 POP PUSH2 0x3061 JUMP JUMPDEST PUSH2 0x305E DUP5 DUP5 PUSH4 0xFFFFFFFF PUSH2 0x37BA AND JUMP JUMPDEST SWAP1 POP JUMPDEST PUSH1 0x6 PUSH2 0x306B PUSH2 0x38D1 JUMP JUMPDEST GT ISZERO SWAP4 SWAP3 POP POP POP JUMP JUMPDEST PUSH2 0x307C PUSH2 0x3A8E JUMP JUMPDEST PUSH1 0x0 DUP1 PUSH1 0x0 DUP1 PUSH1 0x0 DUP1 PUSH1 0x0 DUP1 PUSH2 0x3090 PUSH2 0x1714 JUMP JUMPDEST PUSH1 0x1 PUSH1 0x1 PUSH1 0xA0 SHL SUB AND PUSH4 0x15987EB6 DUP14 DUP14 DUP14 PUSH1 0x40 MLOAD DUP5 PUSH4 0xFFFFFFFF AND PUSH1 0xE0 SHL DUP2 MSTORE PUSH1 0x4 ADD DUP1 DUP5 PUSH1 0x1 PUSH1 0x1 PUSH1 0xA0 SHL SUB AND PUSH1 0x1 PUSH1 0x1 PUSH1 0xA0 SHL SUB AND DUP2 MSTORE PUSH1 0x20 ADD DUP4 DUP2 MSTORE PUSH1 0x20 ADD DUP3 DUP2 MSTORE PUSH1 0x20 ADD SWAP4 POP POP POP POP PUSH2 0x100 PUSH1 0x40 MLOAD DUP1 DUP4 SUB DUP2 DUP7 DUP1 PUSH2 0x30F1 PUSH2 0x390A JUMP JUMPDEST ISZERO DUP1 ISZERO PUSH2 0x30FD JUMPI PUSH1 0x0 DUP1 REVERT JUMPDEST POP GAS PUSH2 0x3107 PUSH2 0x393C JUMP JUMPDEST POP POP POP POP POP ISZERO DUP1 ISZERO PUSH2 0x311D JUMPI RETURNDATASIZE PUSH1 0x0 DUP1 RETURNDATACOPY RETURNDATASIZE PUSH1 0x0 REVERT JUMPDEST POP POP POP POP PUSH1 0x40 MLOAD RETURNDATASIZE PUSH2 0x100 DUP2 LT ISZERO PUSH2 0x3134 JUMPI PUSH1 0x0 DUP1 REVERT JUMPDEST POP DUP1 MLOAD PUSH1 0x20 DUP1 DUP4 ADD MLOAD PUSH1 0x40 DUP1 DUP6 ADD MLOAD PUSH1 0x60 DUP1 DUP8 ADD MLOAD PUSH1 0x80 DUP1 DUP10 ADD MLOAD PUSH1 0xA0 DUP1 DUP12 ADD MLOAD PUSH1 0xC0 DUP1 DUP14 ADD MLOAD PUSH1 0xE0 SWAP14 DUP15 ADD MLOAD DUP11 MLOAD PUSH2 0x100 DUP2 ADD DUP13 MSTORE SWAP14 DUP15 MSTORE SWAP12 DUP14 ADD SWAP11 SWAP1 SWAP11 MSTORE SWAP8 DUP12 ADD SWAP7 SWAP1 SWAP7 MSTORE SWAP4 DUP10 ADD SWAP3 SWAP1 SWAP3 MSTORE DUP8 ADD MSTORE DUP6 ADD MSTORE DUP4 ADD MSTORE SWAP2 DUP2 ADD SWAP2 SWAP1 SWAP2 MSTORE SWAP13 SWAP12 POP POP POP POP POP POP POP POP POP POP POP POP JUMP JUMPDEST PUSH1 0x0 DUP1 PUSH1 0x0 DUP1 PUSH1 0x0 DUP1 PUSH1 0x0 PUSH2 0x31B5 PUSH2 0x1714 JUMP JUMPDEST PUSH1 0x1 PUSH1 0x1 PUSH1 0xA0 SHL SUB AND PUSH4 0x15987EB6 DUP12 DUP12 DUP12 PUSH1 0x40 MLOAD DUP5 PUSH4 0xFFFFFFFF AND PUSH1 0xE0 SHL DUP2 MSTORE PUSH1 0x4 ADD DUP1 DUP5 PUSH1 0x1 PUSH1 0x1 PUSH1 0xA0 SHL SUB AND PUSH1 0x1 PUSH1 0x1 PUSH1 0xA0 SHL SUB AND DUP2 MSTORE PUSH1 0x20 ADD DUP4 DUP2 MSTORE PUSH1 0x20 ADD DUP3 DUP2 MSTORE PUSH1 0x20 ADD SWAP4 POP POP POP POP PUSH2 0x100 PUSH1 0x40 MLOAD DUP1 DUP4 SUB DUP2 DUP7 DUP1 PUSH2 0x3216 PUSH2 0x390A JUMP JUMPDEST ISZERO DUP1 ISZERO PUSH2 0x3222 JUMPI PUSH1 0x0 DUP1 REVERT JUMPDEST POP GAS PUSH2 0x322C PUSH2 0x393C JUMP JUMPDEST POP POP POP POP POP ISZERO DUP1 ISZERO PUSH2 0x3242 JUMPI RETURNDATASIZE PUSH1 0x0 DUP1 RETURNDATACOPY RETURNDATASIZE PUSH1 0x0 REVERT JUMPDEST POP POP POP POP PUSH1 0x40 MLOAD RETURNDATASIZE PUSH2 0x100 DUP2 LT ISZERO PUSH2 0x3259 JUMPI PUSH1 0x0 DUP1 REVERT JUMPDEST POP DUP1 MLOAD PUSH1 0x40 DUP3 ADD MLOAD PUSH1 0xA0 DUP4 ADD MLOAD PUSH1 0xC0 DUP5 ADD MLOAD PUSH1 0xE0 SWAP1 SWAP5 ADD MLOAD SWAP3 SWAP9 POP SWAP1 SWAP7 POP SWAP5 POP SWAP1 SWAP3 POP SWAP1 POP PUSH1 0x0 PUSH2 0x3288 PUSH2 0x1D7B JUMP JUMPDEST SWAP1 POP DUP1 PUSH1 0x1 PUSH1 0x1 PUSH1 0xA0 SHL SUB AND PUSH4 0x109E46A2 DUP8 DUP6 DUP8 PUSH1 0x5 PUSH2 0x32A6 PUSH2 0x38D1 JUMP JUMPDEST PUSH1 0x40 MLOAD DUP6 PUSH4 0xFFFFFFFF AND PUSH1 0xE0 SHL DUP2 MSTORE PUSH1 0x4 ADD DUP1 DUP6 DUP2 MSTORE PUSH1 0x20 ADD DUP5 DUP2 MSTORE PUSH1 0x20 ADD DUP4 DUP2 MSTORE PUSH1 0x20 ADD DUP3 DUP2 MSTORE PUSH1 0x20 ADD SWAP5 POP POP POP POP POP PUSH1 0x20 PUSH1 0x40 MLOAD DUP1 DUP4 SUB DUP2 DUP7 DUP1 PUSH2 0x32EA PUSH2 0x390A JUMP JUMPDEST ISZERO DUP1 ISZERO PUSH2 0x32F6 JUMPI PUSH1 0x0 DUP1 REVERT JUMPDEST POP GAS PUSH2 0x3300 PUSH2 0x393C JUMP JUMPDEST POP POP POP POP POP ISZERO DUP1 ISZERO PUSH2 0x3316 JUMPI RETURNDATASIZE PUSH1 0x0 DUP1 RETURNDATACOPY RETURNDATASIZE PUSH1 0x0 REVERT JUMPDEST POP POP POP POP PUSH1 0x40 MLOAD RETURNDATASIZE PUSH1 0x20 DUP2 LT ISZERO PUSH2 0x332C JUMPI PUSH1 0x0 DUP1 REVERT JUMPDEST POP MLOAD SWAP8 POP PUSH1 0x1 PUSH1 0x1 PUSH1 0xA0 SHL SUB DUP2 AND PUSH4 0x109E46A2 DUP7 DUP5 DUP8 PUSH1 0x5 PUSH2 0x334C PUSH2 0x38D1 JUMP JUMPDEST PUSH1 0x40 MLOAD DUP6 PUSH4 0xFFFFFFFF AND PUSH1 0xE0 SHL DUP2 MSTORE PUSH1 0x4 ADD DUP1 DUP6 DUP2 MSTORE PUSH1 0x20 ADD DUP5 DUP2 MSTORE PUSH1 0x20 ADD DUP4 DUP2 MSTORE PUSH1 0x20 ADD DUP3 DUP2 MSTORE PUSH1 0x20 ADD SWAP5 POP POP POP POP POP PUSH1 0x20 PUSH1 0x40 MLOAD DUP1 DUP4 SUB DUP2 DUP7 DUP1 PUSH2 0x3390 PUSH2 0x390A JUMP JUMPDEST ISZERO DUP1 ISZERO PUSH2 0x339C JUMPI PUSH1 0x0 DUP1 REVERT JUMPDEST POP GAS PUSH2 0x33A6 PUSH2 0x393C JUMP JUMPDEST POP POP POP POP POP ISZERO DUP1 ISZERO PUSH2 0x33BC JUMPI RETURNDATASIZE PUSH1 0x0 DUP1 RETURNDATACOPY RETURNDATASIZE PUSH1 0x0 REVERT JUMPDEST POP POP POP POP PUSH1 0x40 MLOAD RETURNDATASIZE PUSH1 0x20 DUP2 LT ISZERO PUSH2 0x33D2 JUMPI PUSH1 0x0 DUP1 REVERT JUMPDEST POP MLOAD SWAP8 SWAP12 SWAP8 SWAP11 POP SWAP7 SWAP9 POP POP POP POP POP POP POP POP POP JUMP JUMPDEST PUSH1 0x0 PUSH2 0x636 PUSH2 0x347E DUP4 PUSH20 0x0 PUSH4 0x907AF6C0 PUSH1 0x40 MLOAD DUP2 PUSH4 0xFFFFFFFF AND PUSH1 0xE0 SHL DUP2 MSTORE PUSH1 0x4 ADD PUSH1 0x20 PUSH1 0x40 MLOAD DUP1 DUP4 SUB DUP2 DUP7 DUP1 PUSH2 0x342E PUSH2 0x390A JUMP JUMPDEST ISZERO DUP1 ISZERO PUSH2 0x343A JUMPI PUSH1 0x0 DUP1 REVERT JUMPDEST POP GAS PUSH2 0x3444 PUSH2 0x3AD9 JUMP JUMPDEST POP POP POP POP POP ISZERO DUP1 ISZERO PUSH2 0x345A JUMPI RETURNDATASIZE PUSH1 0x0 DUP1 RETURNDATACOPY RETURNDATASIZE PUSH1 0x0 REVERT JUMPDEST POP POP POP POP PUSH1 0x40 MLOAD RETURNDATASIZE PUSH1 0x20 DUP2 LT ISZERO PUSH2 0x3470 JUMPI PUSH1 0x0 DUP1 REVERT JUMPDEST POP MLOAD SWAP1 PUSH4 0xFFFFFFFF PUSH2 0x289A AND JUMP JUMPDEST DUP5 SWAP1 PUSH4 0xFFFFFFFF PUSH2 0x37E4 AND JUMP JUMPDEST PUSH1 0x0 PUSH2 0x1765 PUSH7 0x119959541BDBDB PUSH1 0xCA SHL PUSH1 0x40 MLOAD DUP1 PUSH1 0x40 ADD PUSH1 0x40 MSTORE DUP1 PUSH1 0x17 DUP2 MSTORE PUSH1 0x20 ADD PUSH32 0x4D697373696E6720466565506F6F6C2061646472657373000000000000000000 DUP2 MSTORE POP PUSH2 0x27DA JUMP JUMPDEST PUSH2 0x34DE PUSH2 0x1D38 JUMP JUMPDEST PUSH1 0x1 PUSH1 0x1 PUSH1 0xA0 SHL SUB AND PUSH4 0x32608039 DUP4 PUSH1 0x40 MLOAD DUP3 PUSH4 0xFFFFFFFF AND PUSH1 0xE0 SHL DUP2 MSTORE PUSH1 0x4 ADD DUP1 DUP3 DUP2 MSTORE PUSH1 0x20 ADD SWAP2 POP POP PUSH1 0x20 PUSH1 0x40 MLOAD DUP1 DUP4 SUB DUP2 DUP7 DUP1 PUSH2 0x351C PUSH2 0x390A JUMP JUMPDEST ISZERO DUP1 ISZERO PUSH2 0x3528 JUMPI PUSH1 0x0 DUP1 REVERT JUMPDEST POP GAS PUSH2 0x3532 PUSH2 0x393C JUMP JUMPDEST POP POP POP POP POP ISZERO DUP1 ISZERO PUSH2 0x3548 JUMPI RETURNDATASIZE PUSH1 0x0 DUP1 RETURNDATACOPY RETURNDATASIZE PUSH1 0x0 REVERT JUMPDEST POP POP POP POP PUSH1 0x40 MLOAD RETURNDATASIZE PUSH1 0x20 DUP2 LT ISZERO PUSH2 0x355E JUMPI PUSH1 0x0 DUP1 REVERT JUMPDEST POP MLOAD PUSH1 0x40 DUP1 MLOAD PUSH4 0x2770A7EB PUSH1 0xE2 SHL DUP2 MSTORE PUSH1 0x1 PUSH1 0x1 PUSH1 0xA0 SHL SUB DUP7 DUP2 AND PUSH1 0x4 DUP4 ADD MSTORE PUSH1 0x24 DUP3 ADD DUP6 SWAP1 MSTORE SWAP2 MLOAD SWAP2 SWAP1 SWAP3 AND SWAP2 PUSH4 0x9DC29FAC SWAP2 PUSH1 0x44 DUP1 DUP4 ADD SWAP3 PUSH1 0x0 SWAP3 SWAP2 SWAP1 DUP3 SWAP1 SUB ADD DUP2 DUP4 DUP8 DUP1 PUSH2 0x35AD PUSH2 0x390A JUMP JUMPDEST ISZERO DUP1 ISZERO PUSH2 0x35B9 JUMPI PUSH1 0x0 DUP1 REVERT JUMPDEST POP GAS PUSH2 0x35C3 PUSH2 0x39B9 JUMP JUMPDEST POP POP POP POP POP POP ISZERO DUP1 ISZERO PUSH2 0x35DA JUMPI RETURNDATASIZE PUSH1 0x0 DUP1 RETURNDATACOPY RETURNDATASIZE PUSH1 0x0 REVERT JUMPDEST POP POP POP POP PUSH2 0x35E6 PUSH2 0x17D9 JUMP JUMPDEST PUSH1 0x1 PUSH1 0x1 PUSH1 0xA0 SHL SUB AND PUSH4 0xACE88AFD DUP5 DUP5 DUP5 PUSH1 0x40 MLOAD DUP5 PUSH4 0xFFFFFFFF AND PUSH1 0xE0 SHL DUP2 MSTORE PUSH1 0x4 ADD DUP1 DUP5 PUSH1 0x1 PUSH1 0x1 PUSH1 0xA0 SHL SUB AND PUSH1 0x1 PUSH1 0x1 PUSH1 0xA0 SHL SUB AND DUP2 MSTORE PUSH1 0x20 ADD DUP4 DUP2 MSTORE PUSH1 0x20 ADD DUP3 DUP2 MSTORE PUSH1 0x20 ADD SWAP4 POP POP POP POP PUSH1 0x0 PUSH1 0x40 MLOAD DUP1 DUP4 SUB DUP2 PUSH1 0x0 DUP8 DUP1 PUSH2 0x2D7D PUSH2 0x390A JUMP JUMPDEST PUSH2 0x3650 PUSH2 0x1D38 JUMP JUMPDEST PUSH1 0x1 PUSH1 0x1 PUSH1 0xA0 SHL SUB AND PUSH4 0x32608039 DUP4 PUSH1 0x40 MLOAD DUP3 PUSH4 0xFFFFFFFF AND PUSH1 0xE0 SHL DUP2 MSTORE PUSH1 0x4 ADD DUP1 DUP3 DUP2 MSTORE PUSH1 0x20 ADD SWAP2 POP POP PUSH1 0x20 PUSH1 0x40 MLOAD DUP1 DUP4 SUB DUP2 DUP7 DUP1 PUSH2 0x368E PUSH2 0x390A JUMP JUMPDEST ISZERO DUP1 ISZERO PUSH2 0x369A JUMPI PUSH1 0x0 DUP1 REVERT JUMPDEST POP GAS PUSH2 0x36A4 PUSH2 0x393C JUMP JUMPDEST POP POP POP POP POP ISZERO DUP1 ISZERO PUSH2 0x36BA JUMPI RETURNDATASIZE PUSH1 0x0 DUP1 RETURNDATACOPY RETURNDATASIZE PUSH1 0x0 REVERT JUMPDEST POP POP POP POP PUSH1 0x40 MLOAD RETURNDATASIZE PUSH1 0x20 DUP2 LT ISZERO PUSH2 0x36D0 JUMPI PUSH1 0x0 DUP1 REVERT JUMPDEST POP MLOAD PUSH1 0x40 DUP1 MLOAD PUSH4 0x219E412D PUSH1 0xE2 SHL DUP2 MSTORE PUSH1 0x1 PUSH1 0x1 PUSH1 0xA0 SHL SUB DUP7 DUP2 AND PUSH1 0x4 DUP4 ADD MSTORE PUSH1 0x24 DUP3 ADD DUP6 SWAP1 MSTORE SWAP2 MLOAD SWAP2 SWAP1 SWAP3 AND SWAP2 PUSH4 0x867904B4 SWAP2 PUSH1 0x44 DUP1 DUP4 ADD SWAP3 PUSH1 0x0 SWAP3 SWAP2 SWAP1 DUP3 SWAP1 SUB ADD DUP2 DUP4 DUP8 DUP1 PUSH2 0x371F PUSH2 0x390A JUMP JUMPDEST ISZERO DUP1 ISZERO PUSH2 0x372B JUMPI PUSH1 0x0 DUP1 REVERT JUMPDEST POP GAS PUSH2 0x3735 PUSH2 0x39B9 JUMP JUMPDEST POP POP POP POP POP POP ISZERO DUP1 ISZERO PUSH2 0x374C JUMPI RETURNDATASIZE PUSH1 0x0 DUP1 RETURNDATACOPY RETURNDATASIZE PUSH1 0x0 REVERT JUMPDEST POP POP POP POP PUSH2 0x3758 PUSH2 0x17D9 JUMP JUMPDEST PUSH1 0x1 PUSH1 0x1 PUSH1 0xA0 SHL SUB AND PUSH4 0x6F01A986 DUP5 DUP5 DUP5 PUSH1 0x40 MLOAD DUP5 PUSH4 0xFFFFFFFF AND PUSH1 0xE0 SHL DUP2 MSTORE PUSH1 0x4 ADD DUP1 DUP5 PUSH1 0x1 PUSH1 0x1 PUSH1 0xA0 SHL SUB AND PUSH1 0x1 PUSH1 0x1 PUSH1 0xA0 SHL SUB AND DUP2 MSTORE PUSH1 0x20 ADD DUP4 DUP2 MSTORE PUSH1 0x20 ADD DUP3 DUP2 MSTORE PUSH1 0x20 ADD SWAP4 POP POP POP POP PUSH1 0x0 PUSH1 0x40 MLOAD DUP1 DUP4 SUB DUP2 PUSH1 0x0 DUP8 DUP1 PUSH2 0x2D7D PUSH2 0x390A JUMP JUMPDEST PUSH1 0x0 PUSH2 0x636 DUP3 PUSH2 0x37D8 DUP6 PUSH8 0xDE0B6B3A7640000 PUSH4 0xFFFFFFFF PUSH2 0x380E AND JUMP JUMPDEST SWAP1 PUSH4 0xFFFFFFFF PUSH2 0x3867 AND JUMP JUMPDEST PUSH1 0x0 PUSH8 0xDE0B6B3A7640000 PUSH2 0x37FF DUP5 DUP5 PUSH4 0xFFFFFFFF PUSH2 0x380E AND JUMP JUMPDEST DUP2 PUSH2 0x3806 JUMPI INVALID JUMPDEST DIV SWAP4 SWAP3 POP POP POP JUMP JUMPDEST PUSH1 0x0 DUP3 PUSH2 0x381D JUMPI POP PUSH1 0x0 PUSH2 0x639 JUMP JUMPDEST DUP3 DUP3 MUL DUP3 DUP5 DUP3 DUP2 PUSH2 0x382A JUMPI INVALID JUMPDEST DIV EQ PUSH2 0x636 JUMPI PUSH1 0x40 MLOAD PUSH3 0x461BCD PUSH1 0xE5 SHL DUP2 MSTORE PUSH1 0x4 ADD DUP1 DUP1 PUSH1 0x20 ADD DUP3 DUP2 SUB DUP3 MSTORE PUSH1 0x21 DUP2 MSTORE PUSH1 0x20 ADD DUP1 PUSH2 0x3BDB PUSH1 0x21 SWAP2 CODECOPY PUSH1 0x40 ADD SWAP2 POP POP PUSH1 0x40 MLOAD DUP1 SWAP2 SUB SWAP1 REVERT JUMPDEST PUSH1 0x0 DUP1 DUP3 GT PUSH2 0x38BD JUMPI PUSH1 0x40 DUP1 MLOAD PUSH3 0x461BCD PUSH1 0xE5 SHL DUP2 MSTORE PUSH1 0x20 PUSH1 0x4 DUP3 ADD MSTORE PUSH1 0x1A PUSH1 0x24 DUP3 ADD MSTORE PUSH32 0x536166654D6174683A206469766973696F6E206279207A65726F000000000000 PUSH1 0x44 DUP3 ADD MSTORE SWAP1 MLOAD SWAP1 DUP2 SWAP1 SUB PUSH1 0x64 ADD SWAP1 REVERT JUMPDEST PUSH1 0x0 DUP3 DUP5 DUP2 PUSH2 0x38C8 JUMPI INVALID JUMPDEST DIV SWAP5 SWAP4 POP POP POP POP JUMP JUMPDEST PUSH4 0x412CC41 PUSH1 0xE3 SHL PUSH3 0x80000 SWAP1 DUP2 MSTORE PUSH3 0x80004 DUP4 SWAP1 MSTORE PUSH4 0x20966208 SWAP1 PUSH1 0x20 DUP2 PUSH1 0x24 DUP2 CALLER PUSH1 0x0 SWAP1 GAS CALL DUP1 PUSH2 0x3903 JUMPI PUSH1 0x0 DUP1 REVERT JUMPDEST POP MLOAD SWAP3 POP POP JUMP JUMPDEST PUSH4 0xC3382D0F PUSH1 0xE0 SHL PUSH3 0x80000 SWAP1 DUP2 MSTORE PUSH3 0x80004 DUP4 SWAP1 MSTORE PUSH4 0xC3382D0F SWAP1 PUSH1 0x20 DUP2 PUSH1 0x24 DUP2 CALLER PUSH1 0x0 SWAP1 GAS CALL DUP1 PUSH2 0x3903 JUMPI PUSH1 0x0 DUP1 REVERT JUMPDEST PUSH4 0xFBB0F79D PUSH1 0xE0 SHL PUSH3 0x80000 SWAP1 DUP2 MSTORE PUSH3 0x80004 DUP5 SWAP1 MSTORE PUSH4 0xFBB0F79D SWAP1 PUSH1 0x0 JUMPDEST DUP8 DUP2 LT ISZERO PUSH2 0x3976 JUMPI DUP7 DUP2 ADD MLOAD DUP3 DUP3 ADD PUSH1 0x24 ADD MSTORE PUSH1 0x20 ADD PUSH2 0x395B JUMP JUMPDEST POP DUP9 DUP9 DUP9 PUSH1 0x24 ADD DUP4 CALLER PUSH1 0x0 SWAP1 GAS CALL DUP1 PUSH2 0x398E JUMPI PUSH1 0x0 DUP1 REVERT JUMPDEST SWAP9 POP POP POP JUMP JUMPDEST PUSH4 0x73509064 PUSH3 0x80000 DUP2 PUSH1 0xE0 SHL DUP2 MSTORE PUSH1 0x20 DUP2 PUSH1 0x4 DUP4 CALLER PUSH1 0x0 SWAP1 GAS CALL DUP1 PUSH2 0x3903 JUMPI PUSH1 0x0 DUP1 REVERT JUMPDEST PUSH4 0x131B5F21 PUSH1 0xE2 SHL PUSH3 0x80000 SWAP1 DUP2 MSTORE PUSH3 0x80004 DUP5 SWAP1 MSTORE PUSH4 0x4C6D7C84 SWAP1 PUSH1 0x0 JUMPDEST DUP9 DUP2 LT ISZERO PUSH2 0x39F3 JUMPI DUP8 DUP2 ADD MLOAD DUP3 DUP3 ADD PUSH1 0x24 ADD MSTORE PUSH1 0x20 ADD PUSH2 0x39D8 JUMP JUMPDEST POP DUP10 DUP10 DUP10 PUSH1 0x24 ADD DUP4 CALLER PUSH1 0x0 SWAP1 GAS CALL DUP1 PUSH2 0x3A0B JUMPI PUSH1 0x0 DUP1 REVERT JUMPDEST SWAP10 POP POP POP JUMP JUMPDEST PUSH4 0x146E595 PUSH1 0xE5 SHL PUSH3 0x80000 SWAP1 DUP2 MSTORE PUSH3 0x80004 DUP4 SWAP1 MSTORE PUSH3 0x80024 DUP5 SWAP1 MSTORE PUSH4 0x28DCB2A0 SWAP1 PUSH1 0x0 DUP2 PUSH1 0x44 DUP2 CALLER PUSH1 0x0 SWAP1 GAS CALL DUP1 PUSH2 0x1602 JUMPI PUSH1 0x0 DUP1 REVERT JUMPDEST PUSH1 0x40 MLOAD DUP1 PUSH2 0x300 ADD PUSH1 0x40 MSTORE DUP1 PUSH1 0x18 SWAP1 PUSH1 0x20 DUP3 MUL DUP1 CODESIZE DUP4 CODECOPY POP SWAP2 SWAP3 SWAP2 POP POP JUMP JUMPDEST PUSH4 0xBDBF8C36 PUSH3 0x80000 DUP2 PUSH1 0xE0 SHL DUP2 MSTORE PUSH1 0x20 DUP2 PUSH1 0x4 DUP4 CALLER PUSH1 0x0 SWAP1 GAS CALL DUP1 PUSH2 0x3903 JUMPI PUSH1 0x0 DUP1 REVERT JUMPDEST PUSH1 0x40 MLOAD DUP1 PUSH2 0x100 ADD PUSH1 0x40 MSTORE DUP1 PUSH1 0x0 DUP1 NOT AND DUP2 MSTORE PUSH1 0x20 ADD PUSH1 0x0 DUP2 MSTORE PUSH1 0x20 ADD PUSH1 0x0 DUP1 NOT AND DUP2 MSTORE PUSH1 0x20 ADD PUSH1 0x0 DUP2 MSTORE PUSH1 0x20 ADD PUSH1 0x0 DUP2 MSTORE PUSH1 0x20 ADD PUSH1 0x0 DUP2 MSTORE PUSH1 0x20 ADD PUSH1 0x0 DUP2 MSTORE PUSH1 0x20 ADD PUSH1 0x0 DUP2 MSTORE POP SWAP1 JUMP JUMPDEST PUSH4 0x45E97DDB PUSH1 0xE0 SHL PUSH3 0x80000 SWAP1 DUP2 MSTORE PUSH3 0x80004 DUP5 SWAP1 MSTORE PUSH4 0x45E97DDB SWAP1 PUSH1 0x0 DUP8 ISZERO PUSH2 0x3976 JUMPI DUP7 DUP2 ADD MLOAD DUP3 DUP3 ADD PUSH1 0x24 ADD MSTORE PUSH1 0x20 ADD PUSH2 0x395B JUMP INVALID MSIZE PUSH16 0x75206D757374206265206E6F6D696E61 PUSH21 0x6564206265666F726520796F752063616E20616363 PUSH6 0x7074206F776E PUSH6 0x72736869704D PUSH10 0x7373696E672044656C65 PUSH8 0x617465417070726F PUSH23 0x616C73206164647265737345786368616E6765723A204F PUSH15 0x6C792073796E746865746978206F72 KECCAK256 PUSH2 0x2073 PUSH26 0x6E746820636F6E74726163742063616E20706572666F726D2074 PUSH9 0x697320616374696F6E 0x4F PUSH15 0x6C792074686520636F6E7472616374 KECCAK256 PUSH16 0x776E6572206D617920706572666F726D KECCAK256 PUSH21 0x68697320616374696F6E536166654D6174683A206D PUSH22 0x6C7469706C69636174696F6E206F766572666C6F7743 PUSH2 0x6E6E PUSH16 0x7420736574746C6520647572696E6720 PUSH24 0x616974696E6720706572696F64A265627A7A72315820F70F SWAP2 0xE5 0xF7 0x2B 0xC2 DUP13 PUSH9 0x4B8BFBB2DAD42E42B0 0xBB BLOCKHASH 0xED DUP14 PUSH26 0x5D88335875F643269864736F6C637828302E352E31362D646576 PUSH6 0x6C6F702E3230 ORIGIN ADDRESS 0x2E CODESIZE 0x2E BALANCE CALLER 0x2B PUSH4 0x6F6D6D69 PUSH21 0x2E36626530393032660058536166654D6174683A20 PUSH14 0x756C7469706C69636174696F6E20 PUSH16 0x766572666C6F77000000000000000000 "
		}
	}
}