{
	"abi": [
		{
			"inputs": [
				{
					"internalType": "address",
					"name": "_owner",
					"type": "address"
				},
				{
					"internalType": "address",
					"name": "_associatedContract",
					"type": "address"
				}
			],
			"payable": false,
			"stateMutability": "nonpayable",
			"type": "constructor"
		},
		{
			"anonymous": false,
			"inputs": [
				{
					"indexed": false,
					"internalType": "address",
					"name": "associatedContract",
					"type": "address"
				}
			],
			"name": "AssociatedContractUpdated",
			"type": "event"
		},
		{
			"anonymous": false,
			"inputs": [
				{
					"indexed": false,
					"internalType": "address",
					"name": "oldOwner",
					"type": "address"
				},
				{
					"indexed": false,
					"internalType": "address",
					"name": "newOwner",
					"type": "address"
				}
			],
			"name": "OwnerChanged",
			"type": "event"
		},
		{
			"anonymous": false,
			"inputs": [
				{
					"indexed": false,
					"internalType": "address",
					"name": "newOwner",
					"type": "address"
				}
			],
			"name": "OwnerNominated",
			"type": "event"
		},
		{
			"constant": false,
			"inputs": [],
			"name": "acceptOwnership",
			"outputs": [],
			"payable": false,
			"stateMutability": "nonpayable",
			"type": "function"
		},
		{
			"constant": false,
			"inputs": [
				{
					"internalType": "address",
					"name": "account",
					"type": "address"
				},
				{
					"internalType": "bytes32",
					"name": "src",
					"type": "bytes32"
				},
				{
					"internalType": "uint256",
					"name": "amount",
					"type": "uint256"
				},
				{
					"internalType": "bytes32",
					"name": "dest",
					"type": "bytes32"
				},
				{
					"internalType": "uint256",
					"name": "amountReceived",
					"type": "uint256"
				},
				{
					"internalType": "uint256",
					"name": "exchangeFeeRate",
					"type": "uint256"
				},
				{
					"internalType": "uint256",
					"name": "timestamp",
					"type": "uint256"
				},
				{
					"internalType": "uint256",
					"name": "roundIdForSrc",
					"type": "uint256"
				},
				{
					"internalType": "uint256",
					"name": "roundIdForDest",
					"type": "uint256"
				}
			],
			"name": "appendExchangeEntry",
			"outputs": [],
			"payable": false,
			"stateMutability": "nonpayable",
			"type": "function"
		},
		{
			"constant": true,
			"inputs": [],
			"name": "associatedContract",
			"outputs": [
				{
					"internalType": "address",
					"name": "",
					"type": "address"
				}
			],
			"payable": false,
			"stateMutability": "view",
			"type": "function"
		},
		{
			"constant": true,
			"inputs": [
				{
					"internalType": "address",
					"name": "",
					"type": "address"
				},
				{
					"internalType": "bytes32",
					"name": "",
					"type": "bytes32"
				},
				{
					"internalType": "uint256",
					"name": "",
					"type": "uint256"
				}
			],
			"name": "exchanges",
			"outputs": [
				{
					"internalType": "bytes32",
					"name": "src",
					"type": "bytes32"
				},
				{
					"internalType": "uint256",
					"name": "amount",
					"type": "uint256"
				},
				{
					"internalType": "bytes32",
					"name": "dest",
					"type": "bytes32"
				},
				{
					"internalType": "uint256",
					"name": "amountReceived",
					"type": "uint256"
				},
				{
					"internalType": "uint256",
					"name": "exchangeFeeRate",
					"type": "uint256"
				},
				{
					"internalType": "uint256",
					"name": "timestamp",
					"type": "uint256"
				},
				{
					"internalType": "uint256",
					"name": "roundIdForSrc",
					"type": "uint256"
				},
				{
					"internalType": "uint256",
					"name": "roundIdForDest",
					"type": "uint256"
				}
			],
			"payable": false,
			"stateMutability": "view",
			"type": "function"
		},
		{
			"constant": true,
			"inputs": [
				{
					"internalType": "address",
					"name": "account",
					"type": "address"
				},
				{
					"internalType": "bytes32",
					"name": "currencyKey",
					"type": "bytes32"
				},
				{
					"internalType": "uint256",
					"name": "index",
					"type": "uint256"
				}
			],
			"name": "getEntryAt",
			"outputs": [
				{
					"internalType": "bytes32",
					"name": "src",
					"type": "bytes32"
				},
				{
					"internalType": "uint256",
					"name": "amount",
					"type": "uint256"
				},
				{
					"internalType": "bytes32",
					"name": "dest",
					"type": "bytes32"
				},
				{
					"internalType": "uint256",
					"name": "amountReceived",
					"type": "uint256"
				},
				{
					"internalType": "uint256",
					"name": "exchangeFeeRate",
					"type": "uint256"
				},
				{
					"internalType": "uint256",
					"name": "timestamp",
					"type": "uint256"
				},
				{
					"internalType": "uint256",
					"name": "roundIdForSrc",
					"type": "uint256"
				},
				{
					"internalType": "uint256",
					"name": "roundIdForDest",
					"type": "uint256"
				}
			],
			"payable": false,
			"stateMutability": "view",
			"type": "function"
		},
		{
			"constant": true,
			"inputs": [
				{
					"internalType": "address",
					"name": "account",
					"type": "address"
				},
				{
					"internalType": "bytes32",
					"name": "currencyKey",
					"type": "bytes32"
				}
			],
			"name": "getLengthOfEntries",
			"outputs": [
				{
					"internalType": "uint256",
					"name": "",
					"type": "uint256"
				}
			],
			"payable": false,
			"stateMutability": "view",
			"type": "function"
		},
		{
			"constant": true,
			"inputs": [
				{
					"internalType": "address",
					"name": "account",
					"type": "address"
				},
				{
					"internalType": "bytes32",
					"name": "currencyKey",
					"type": "bytes32"
				}
			],
			"name": "getMaxTimestamp",
			"outputs": [
				{
					"internalType": "uint256",
					"name": "",
					"type": "uint256"
				}
			],
			"payable": false,
			"stateMutability": "view",
			"type": "function"
		},
		{
			"constant": true,
			"inputs": [],
			"name": "maxEntriesInQueue",
			"outputs": [
				{
					"internalType": "uint256",
					"name": "",
					"type": "uint256"
				}
			],
			"payable": false,
			"stateMutability": "view",
			"type": "function"
		},
		{
			"constant": false,
			"inputs": [
				{
					"internalType": "address",
					"name": "_owner",
					"type": "address"
				}
			],
			"name": "nominateNewOwner",
			"outputs": [],
			"payable": false,
			"stateMutability": "nonpayable",
			"type": "function"
		},
		{
			"constant": true,
			"inputs": [],
			"name": "nominatedOwner",
			"outputs": [
				{
					"internalType": "address",
					"name": "",
					"type": "address"
				}
			],
			"payable": false,
			"stateMutability": "view",
			"type": "function"
		},
		{
			"constant": true,
			"inputs": [],
			"name": "owner",
			"outputs": [
				{
					"internalType": "address",
					"name": "",
					"type": "address"
				}
			],
			"payable": false,
			"stateMutability": "view",
			"type": "function"
		},
		{
			"constant": false,
			"inputs": [
				{
					"internalType": "address",
					"name": "account",
					"type": "address"
				},
				{
					"internalType": "bytes32",
					"name": "currencyKey",
					"type": "bytes32"
				}
			],
			"name": "removeEntries",
			"outputs": [],
			"payable": false,
			"stateMutability": "nonpayable",
			"type": "function"
		},
		{
			"constant": false,
			"inputs": [
				{
					"internalType": "address",
					"name": "_associatedContract",
					"type": "address"
				}
			],
			"name": "setAssociatedContract",
			"outputs": [],
			"payable": false,
			"stateMutability": "nonpayable",
			"type": "function"
		},
		{
			"constant": false,
			"inputs": [
				{
					"internalType": "uint256",
					"name": "_maxEntriesInQueue",
					"type": "uint256"
				}
			],
			"name": "setMaxEntriesInQueue",
			"outputs": [],
			"payable": false,
			"stateMutability": "nonpayable",
			"type": "function"
		}
	],
	"evm": {
		"bytecode": {
			"linkReferences": {},
			"object": "6080604052600c60046200001262000216565b50503480156200002157600080fd5b506040516200112138038062001121833981810160405260408110156200004757600080fd5b50805160209091015180826001600160a01b038116620000ae576040805162461bcd60e51b815260206004820152601960248201527f4f776e657220616464726573732063616e6e6f74206265203000000000000000604482015290519081900360640190fd5b806000600181620000be62000255565b816001600160a01b0302191690836001600160a01b0316021790620000e262000216565b505060408051600081526001600160a01b038416602082015281517fb532073b38c83145e3e5135377a08bf9aab55bc0fd7c1179cd4fb995d2a5159c93509081900390910190a150600080806200013862000255565b906101000a90046001600160a01b03166001600160a01b0316141562000199576040805162461bcd60e51b815260206004820152601160248201527013dddb995c881b5d5cdd081899481cd95d607a1b604482015290519081900360640190fd5b806002600181620001a962000255565b816001600160a01b0302191690836001600160a01b0316021790620001cd62000216565b5050604080516001600160a01b038416815290517f73f20cff579e8a4086fa607db83867595f1b6a798e718c0bfa0b94a404128e0392509081900360200190a15050506200028f565b630146e59560e51b6208000090815262080004839052620800248490526328dcb2a090600081604481336000905af1806200025057600080fd5b505050565b630412cc4160e31b6208000090815262080004839052632096620890602081602481336000905af1806200028857600080fd5b5051925050565b610e82806200029f6000396000f3fe608060405234801561001057600080fd5b50600436106100ea5760003560e01c806379ba50971161008c578063b44e975311610066578063b44e975314610290578063cd8b94dc146102bc578063d0d3d62a146102d9578063f1406dc814610305576100ea565b806379ba5097146102785780638da5cb5b14610280578063aefc4ccb14610288576100ea565b80633ca9d85c116100c85780633ca9d85c146101a457806352f445ca146101fc57806353a47bb7146102225780636e13fe7614610246576100ea565b80630d40d0cf146100ef57806315987eb6146101095780631627540c1461017c575b600080fd5b6100f7610331565b60408051918252519081900360200190f35b61013b6004803603606081101561011f57600080fd5b506001600160a01b03813516906020810135906040013561033e565b604080519889526020890197909752878701959095526060870193909352608086019190915260a085015260c084015260e083015251908190036101000190f35b6101a26004803603602081101561019257600080fd5b50356001600160a01b0316610422565b005b6101a260048036036101208110156101bb57600080fd5b506001600160a01b038135169060208101359060408101359060608101359060808101359060a08101359060c08101359060e0810135906101000135610506565b6101a26004803603602081101561021257600080fd5b50356001600160a01b0316610736565b61022a61081b565b604080516001600160a01b039092168252519081900360200190f35b61013b6004803603606081101561025c57600080fd5b506001600160a01b03813516906020810135906040013561083a565b6101a26108e8565b61022a610a5d565b61022a610a68565b6100f7600480360360408110156102a657600080fd5b506001600160a01b038135169060200135610a74565b6101a2600480360360208110156102d257600080fd5b5035610aa8565b6101a2600480360360408110156102ef57600080fd5b506001600160a01b038135169060200135610b2c565b6100f76004803603604081101561031b57600080fd5b506001600160a01b038135169060200135610bcf565b600461033b610c7b565b81565b6000806000806000806000806000600360008d6001600160a01b03166001600160a01b0316815260200190815260200160002060008c81526020019081526020016000208a8161038c610c7b565b811061039457fe5b90600052602060002090600802019050806000016103b0610c7b565b816001016103bc610c7b565b826002016103c8610c7b565b836003016103d4610c7b565b846004016103e0610c7b565b856005016103ec610c7b565b866006016103f8610c7b565b87600701610404610c7b565b98509850985098509850985098509850509397509397509397509397565b60008061042d610c7b565b906101000a90046001600160a01b03166001600160a01b03165a61044f610cb4565b6001600160a01b0316146104945760405162461bcd60e51b815260040180806020018281038252602f815260200180610e1f602f913960400191505060405180910390fd5b80600180806104a1610c7b565b816001600160a01b0302191690836001600160a01b03160217906104c3610cd9565b5050604080516001600160a01b038416815290517f906a1c6bd7e3091ea86693dd029a831c19049ce77f1dce2ce0bab1cacbabce2292509081900360200190a150565b60006002610512610c7b565b906101000a90046001600160a01b03166001600160a01b03165a610534610cb4565b6001600160a01b0316146105795760405162461bcd60e51b8152600401808060200182810382526034815260200180610e4e6034913960400191505060405180910390fd5b6004610583610c7b565b6001600160a01b038a1660009081526003602090815260408083208a84529091529020806105af610c7b565b905010610603576040805162461bcd60e51b815260206004820152601860248201527f4d6178207175657565206c656e67746820726561636865640000000000000000604482015290519081900360640190fd5b6001600160a01b03891660009081526003602090815260408083208984528252918290208251610100810184528b81529182018a9052918101889052606081018790526080810186905260a0810185905260c0810184905260e08101839052908060018161066f610c7b565b01808261067a610cd9565b505060009283526020909220835192939260086000198601029091019150816106a1610cd9565b50506020820151816001016106b4610cd9565b50506040820151816002016106c7610cd9565b50506060820151816003016106da610cd9565b50506080820151816004016106ed610cd9565b505060a082015181600501610700610cd9565b505060c082015181600601610713610cd9565b505060e082015181600701610726610cd9565b5050505050505050505050505050565b600080610741610c7b565b906101000a90046001600160a01b03166001600160a01b03165a610763610cb4565b6001600160a01b0316146107a85760405162461bcd60e51b815260040180806020018281038252602f815260200180610e1f602f913960400191505060405180910390fd5b8060026001816107b6610c7b565b816001600160a01b0302191690836001600160a01b03160217906107d8610cd9565b5050604080516001600160a01b038416815290517f73f20cff579e8a4086fa607db83867595f1b6a798e718c0bfa0b94a404128e0392509081900360200190a150565b60006001610827610c7b565b906101000a90046001600160a01b031681565b6003602052826000526040600020602052816000526040600020818161085e610c7b565b811061086657fe5b9060005260206000209060080201600092509250505080600001610888610c7b565b9080600101610895610c7b565b90806002016108a2610c7b565b90806003016108af610c7b565b90806004016108bc610c7b565b90806005016108c9610c7b565b90806006016108d6610c7b565b90806007016108e3610c7b565b905088565b600060016108f4610c7b565b906101000a90046001600160a01b03166001600160a01b03165a610916610cb4565b6001600160a01b03161461095b5760405162461bcd60e51b8152600401808060200182810382526035815260200180610dea6035913960400191505060405180910390fd5b7fb532073b38c83145e3e5135377a08bf9aab55bc0fd7c1179cd4fb995d2a5159c600080610987610c7b565b906101000a90046001600160a01b031660016000906109a4610c7b565b604080516001600160a01b0394851681526101009390930a909104909216602082015281519081900390910190a1600060016109de610c7b565b906101000a90046001600160a01b03166000806101000a816109fe610c7b565b816001600160a01b0302191690836001600160a01b0316021790610a20610cd9565b5050506000600160006101000a81610a36610c7b565b816001600160a01b0302191690836001600160a01b0316021790610a58610cd9565b505050565b600080610827610c7b565b60006002610827610c7b565b6001600160a01b0382166000908152600360209081526040808320848452909152812080610aa0610c7b565b949350505050565b600080610ab3610c7b565b906101000a90046001600160a01b03166001600160a01b03165a610ad5610cb4565b6001600160a01b031614610b1a5760405162461bcd60e51b815260040180806020018281038252602f815260200180610e1f602f913960400191505060405180910390fd5b80806004610b26610cd9565b50505050565b60006002610b38610c7b565b906101000a90046001600160a01b03166001600160a01b03165a610b5a610cb4565b6001600160a01b031614610b9f5760405162461bcd60e51b8152600401808060200182810382526034815260200180610e4e6034913960400191505060405180910390fd5b6001600160a01b03821660009081526003602090815260408083208484529091528120610bcb91610d12565b5050565b6001600160a01b0382166000908152600360209081526040808320848452909152812081805b8280610bff610c7b565b9050811015610c725781838281610c14610c7b565b8110610c1c57fe5b9060005260206000209060080201600501610c35610c7b565b1115610c6a57828181610c46610c7b565b8110610c4e57fe5b9060005260206000209060080201600501610c67610c7b565b91505b600101610bf5565b50949350505050565b630412cc4160e31b6208000090815262080004839052632096620890602081602481336000905af180610cad57600080fd5b5051925050565b6373509064620800008160e01b8152602081600483336000905af180610cad57600080fd5b630146e59560e51b6208000090815262080004839052620800248490526328dcb2a090600081604481336000905af180610a5857600080fd5b5080610d1c610c7b565b600082610d27610cd9565b505060080290600052602060002090810190610d439190610d46565b50565b610de691905b80821115610de25760008082610d60610cd9565b505060018201600090610d71610cd9565b505060028201600090610d82610cd9565b505060038201600090610d93610cd9565b505060048201600090610da4610cd9565b505060058201600090610db5610cd9565b505060068201600090610dc6610cd9565b505060078201600090610dd7610cd9565b505050600801610d4c565b5090565b9056fe596f75206d757374206265206e6f6d696e61746564206265666f726520796f752063616e20616363657074206f776e6572736869704f6e6c792074686520636f6e7472616374206f776e6572206d617920706572666f726d207468697320616374696f6e4f6e6c7920746865206173736f63696174656420636f6e74726163742063616e20706572666f726d207468697320616374696f6e",
			"opcodes": "PUSH1 0x80 PUSH1 0x40 MSTORE PUSH1 0xC PUSH1 0x4 PUSH3 0x12 PUSH3 0x216 JUMP JUMPDEST POP POP CALLVALUE DUP1 ISZERO PUSH3 0x21 JUMPI PUSH1 0x0 DUP1 REVERT JUMPDEST POP PUSH1 0x40 MLOAD PUSH3 0x1121 CODESIZE SUB DUP1 PUSH3 0x1121 DUP4 CODECOPY DUP2 DUP2 ADD PUSH1 0x40 MSTORE PUSH1 0x40 DUP2 LT ISZERO PUSH3 0x47 JUMPI PUSH1 0x0 DUP1 REVERT JUMPDEST POP DUP1 MLOAD PUSH1 0x20 SWAP1 SWAP2 ADD MLOAD DUP1 DUP3 PUSH1 0x1 PUSH1 0x1 PUSH1 0xA0 SHL SUB DUP2 AND PUSH3 0xAE JUMPI PUSH1 0x40 DUP1 MLOAD PUSH3 0x461BCD PUSH1 0xE5 SHL DUP2 MSTORE PUSH1 0x20 PUSH1 0x4 DUP3 ADD MSTORE PUSH1 0x19 PUSH1 0x24 DUP3 ADD MSTORE PUSH32 0x4F776E657220616464726573732063616E6E6F74206265203000000000000000 PUSH1 0x44 DUP3 ADD MSTORE SWAP1 MLOAD SWAP1 DUP2 SWAP1 SUB PUSH1 0x64 ADD SWAP1 REVERT JUMPDEST DUP1 PUSH1 0x0 PUSH1 0x1 DUP2 PUSH3 0xBE PUSH3 0x255 JUMP JUMPDEST DUP2 PUSH1 0x1 PUSH1 0x1 PUSH1 0xA0 SHL SUB MUL NOT AND SWAP1 DUP4 PUSH1 0x1 PUSH1 0x1 PUSH1 0xA0 SHL SUB AND MUL OR SWAP1 PUSH3 0xE2 PUSH3 0x216 JUMP JUMPDEST POP POP PUSH1 0x40 DUP1 MLOAD PUSH1 0x0 DUP2 MSTORE PUSH1 0x1 PUSH1 0x1 PUSH1 0xA0 SHL SUB DUP5 AND PUSH1 0x20 DUP3 ADD MSTORE DUP2 MLOAD PUSH32 0xB532073B38C83145E3E5135377A08BF9AAB55BC0FD7C1179CD4FB995D2A5159C SWAP4 POP SWAP1 DUP2 SWAP1 SUB SWAP1 SWAP2 ADD SWAP1 LOG1 POP PUSH1 0x0 DUP1 DUP1 PUSH3 0x138 PUSH3 0x255 JUMP JUMPDEST SWAP1 PUSH2 0x100 EXP SWAP1 DIV PUSH1 0x1 PUSH1 0x1 PUSH1 0xA0 SHL SUB AND PUSH1 0x1 PUSH1 0x1 PUSH1 0xA0 SHL SUB AND EQ ISZERO PUSH3 0x199 JUMPI PUSH1 0x40 DUP1 MLOAD PUSH3 0x461BCD PUSH1 0xE5 SHL DUP2 MSTORE PUSH1 0x20 PUSH1 0x4 DUP3 ADD MSTORE PUSH1 0x11 PUSH1 0x24 DUP3 ADD MSTORE PUSH17 0x13DDDB995C881B5D5CDD081899481CD95D PUSH1 0x7A SHL PUSH1 0x44 DUP3 ADD MSTORE SWAP1 MLOAD SWAP1 DUP2 SWAP1 SUB PUSH1 0x64 ADD SWAP1 REVERT JUMPDEST DUP1 PUSH1 0x2 PUSH1 0x1 DUP2 PUSH3 0x1A9 PUSH3 0x255 JUMP JUMPDEST DUP2 PUSH1 0x1 PUSH1 0x1 PUSH1 0xA0 SHL SUB MUL NOT AND SWAP1 DUP4 PUSH1 0x1 PUSH1 0x1 PUSH1 0xA0 SHL SUB AND MUL OR SWAP1 PUSH3 0x1CD PUSH3 0x216 JUMP JUMPDEST POP POP PUSH1 0x40 DUP1 MLOAD PUSH1 0x1 PUSH1 0x1 PUSH1 0xA0 SHL SUB DUP5 AND DUP2 MSTORE SWAP1 MLOAD PUSH32 0x73F20CFF579E8A4086FA607DB83867595F1B6A798E718C0BFA0B94A404128E03 SWAP3 POP SWAP1 DUP2 SWAP1 SUB PUSH1 0x20 ADD SWAP1 LOG1 POP POP POP PUSH3 0x28F JUMP JUMPDEST PUSH4 0x146E595 PUSH1 0xE5 SHL PUSH3 0x80000 SWAP1 DUP2 MSTORE PUSH3 0x80004 DUP4 SWAP1 MSTORE PUSH3 0x80024 DUP5 SWAP1 MSTORE PUSH4 0x28DCB2A0 SWAP1 PUSH1 0x0 DUP2 PUSH1 0x44 DUP2 CALLER PUSH1 0x0 SWAP1 GAS CALL DUP1 PUSH3 0x250 JUMPI PUSH1 0x0 DUP1 REVERT JUMPDEST POP POP POP JUMP JUMPDEST PUSH4 0x412CC41 PUSH1 0xE3 SHL PUSH3 0x80000 SWAP1 DUP2 MSTORE PUSH3 0x80004 DUP4 SWAP1 MSTORE PUSH4 0x20966208 SWAP1 PUSH1 0x20 DUP2 PUSH1 0x24 DUP2 CALLER PUSH1 0x0 SWAP1 GAS CALL DUP1 PUSH3 0x288 JUMPI PUSH1 0x0 DUP1 REVERT JUMPDEST POP MLOAD SWAP3 POP POP JUMP JUMPDEST PUSH2 0xE82 DUP1 PUSH3 0x29F PUSH1 0x0 CODECOPY PUSH1 0x0 RETURN INVALID PUSH1 0x80 PUSH1 0x40 MSTORE CALLVALUE DUP1 ISZERO PUSH2 0x10 JUMPI PUSH1 0x0 DUP1 REVERT JUMPDEST POP PUSH1 0x4 CALLDATASIZE LT PUSH2 0xEA JUMPI PUSH1 0x0 CALLDATALOAD PUSH1 0xE0 SHR DUP1 PUSH4 0x79BA5097 GT PUSH2 0x8C JUMPI DUP1 PUSH4 0xB44E9753 GT PUSH2 0x66 JUMPI DUP1 PUSH4 0xB44E9753 EQ PUSH2 0x290 JUMPI DUP1 PUSH4 0xCD8B94DC EQ PUSH2 0x2BC JUMPI DUP1 PUSH4 0xD0D3D62A EQ PUSH2 0x2D9 JUMPI DUP1 PUSH4 0xF1406DC8 EQ PUSH2 0x305 JUMPI PUSH2 0xEA JUMP JUMPDEST DUP1 PUSH4 0x79BA5097 EQ PUSH2 0x278 JUMPI DUP1 PUSH4 0x8DA5CB5B EQ PUSH2 0x280 JUMPI DUP1 PUSH4 0xAEFC4CCB EQ PUSH2 0x288 JUMPI PUSH2 0xEA JUMP JUMPDEST DUP1 PUSH4 0x3CA9D85C GT PUSH2 0xC8 JUMPI DUP1 PUSH4 0x3CA9D85C EQ PUSH2 0x1A4 JUMPI DUP1 PUSH4 0x52F445CA EQ PUSH2 0x1FC JUMPI DUP1 PUSH4 0x53A47BB7 EQ PUSH2 0x222 JUMPI DUP1 PUSH4 0x6E13FE76 EQ PUSH2 0x246 JUMPI PUSH2 0xEA JUMP JUMPDEST DUP1 PUSH4 0xD40D0CF EQ PUSH2 0xEF JUMPI DUP1 PUSH4 0x15987EB6 EQ PUSH2 0x109 JUMPI DUP1 PUSH4 0x1627540C EQ PUSH2 0x17C JUMPI JUMPDEST PUSH1 0x0 DUP1 REVERT JUMPDEST PUSH2 0xF7 PUSH2 0x331 JUMP JUMPDEST PUSH1 0x40 DUP1 MLOAD SWAP2 DUP3 MSTORE MLOAD SWAP1 DUP2 SWAP1 SUB PUSH1 0x20 ADD SWAP1 RETURN JUMPDEST PUSH2 0x13B PUSH1 0x4 DUP1 CALLDATASIZE SUB PUSH1 0x60 DUP2 LT ISZERO PUSH2 0x11F JUMPI PUSH1 0x0 DUP1 REVERT JUMPDEST POP PUSH1 0x1 PUSH1 0x1 PUSH1 0xA0 SHL SUB DUP2 CALLDATALOAD AND SWAP1 PUSH1 0x20 DUP2 ADD CALLDATALOAD SWAP1 PUSH1 0x40 ADD CALLDATALOAD PUSH2 0x33E JUMP JUMPDEST PUSH1 0x40 DUP1 MLOAD SWAP9 DUP10 MSTORE PUSH1 0x20 DUP10 ADD SWAP8 SWAP1 SWAP8 MSTORE DUP8 DUP8 ADD SWAP6 SWAP1 SWAP6 MSTORE PUSH1 0x60 DUP8 ADD SWAP4 SWAP1 SWAP4 MSTORE PUSH1 0x80 DUP7 ADD SWAP2 SWAP1 SWAP2 MSTORE PUSH1 0xA0 DUP6 ADD MSTORE PUSH1 0xC0 DUP5 ADD MSTORE PUSH1 0xE0 DUP4 ADD MSTORE MLOAD SWAP1 DUP2 SWAP1 SUB PUSH2 0x100 ADD SWAP1 RETURN JUMPDEST PUSH2 0x1A2 PUSH1 0x4 DUP1 CALLDATASIZE SUB PUSH1 0x20 DUP2 LT ISZERO PUSH2 0x192 JUMPI PUSH1 0x0 DUP1 REVERT JUMPDEST POP CALLDATALOAD PUSH1 0x1 PUSH1 0x1 PUSH1 0xA0 SHL SUB AND PUSH2 0x422 JUMP JUMPDEST STOP JUMPDEST PUSH2 0x1A2 PUSH1 0x4 DUP1 CALLDATASIZE SUB PUSH2 0x120 DUP2 LT ISZERO PUSH2 0x1BB JUMPI PUSH1 0x0 DUP1 REVERT JUMPDEST POP PUSH1 0x1 PUSH1 0x1 PUSH1 0xA0 SHL SUB DUP2 CALLDATALOAD AND SWAP1 PUSH1 0x20 DUP2 ADD CALLDATALOAD SWAP1 PUSH1 0x40 DUP2 ADD CALLDATALOAD SWAP1 PUSH1 0x60 DUP2 ADD CALLDATALOAD SWAP1 PUSH1 0x80 DUP2 ADD CALLDATALOAD SWAP1 PUSH1 0xA0 DUP2 ADD CALLDATALOAD SWAP1 PUSH1 0xC0 DUP2 ADD CALLDATALOAD SWAP1 PUSH1 0xE0 DUP2 ADD CALLDATALOAD SWAP1 PUSH2 0x100 ADD CALLDATALOAD PUSH2 0x506 JUMP JUMPDEST PUSH2 0x1A2 PUSH1 0x4 DUP1 CALLDATASIZE SUB PUSH1 0x20 DUP2 LT ISZERO PUSH2 0x212 JUMPI PUSH1 0x0 DUP1 REVERT JUMPDEST POP CALLDATALOAD PUSH1 0x1 PUSH1 0x1 PUSH1 0xA0 SHL SUB AND PUSH2 0x736 JUMP JUMPDEST PUSH2 0x22A PUSH2 0x81B JUMP JUMPDEST PUSH1 0x40 DUP1 MLOAD PUSH1 0x1 PUSH1 0x1 PUSH1 0xA0 SHL SUB SWAP1 SWAP3 AND DUP3 MSTORE MLOAD SWAP1 DUP2 SWAP1 SUB PUSH1 0x20 ADD SWAP1 RETURN JUMPDEST PUSH2 0x13B PUSH1 0x4 DUP1 CALLDATASIZE SUB PUSH1 0x60 DUP2 LT ISZERO PUSH2 0x25C JUMPI PUSH1 0x0 DUP1 REVERT JUMPDEST POP PUSH1 0x1 PUSH1 0x1 PUSH1 0xA0 SHL SUB DUP2 CALLDATALOAD AND SWAP1 PUSH1 0x20 DUP2 ADD CALLDATALOAD SWAP1 PUSH1 0x40 ADD CALLDATALOAD PUSH2 0x83A JUMP JUMPDEST PUSH2 0x1A2 PUSH2 0x8E8 JUMP JUMPDEST PUSH2 0x22A PUSH2 0xA5D JUMP JUMPDEST PUSH2 0x22A PUSH2 0xA68 JUMP JUMPDEST PUSH2 0xF7 PUSH1 0x4 DUP1 CALLDATASIZE SUB PUSH1 0x40 DUP2 LT ISZERO PUSH2 0x2A6 JUMPI PUSH1 0x0 DUP1 REVERT JUMPDEST POP PUSH1 0x1 PUSH1 0x1 PUSH1 0xA0 SHL SUB DUP2 CALLDATALOAD AND SWAP1 PUSH1 0x20 ADD CALLDATALOAD PUSH2 0xA74 JUMP JUMPDEST PUSH2 0x1A2 PUSH1 0x4 DUP1 CALLDATASIZE SUB PUSH1 0x20 DUP2 LT ISZERO PUSH2 0x2D2 JUMPI PUSH1 0x0 DUP1 REVERT JUMPDEST POP CALLDATALOAD PUSH2 0xAA8 JUMP JUMPDEST PUSH2 0x1A2 PUSH1 0x4 DUP1 CALLDATASIZE SUB PUSH1 0x40 DUP2 LT ISZERO PUSH2 0x2EF JUMPI PUSH1 0x0 DUP1 REVERT JUMPDEST POP PUSH1 0x1 PUSH1 0x1 PUSH1 0xA0 SHL SUB DUP2 CALLDATALOAD AND SWAP1 PUSH1 0x20 ADD CALLDATALOAD PUSH2 0xB2C JUMP JUMPDEST PUSH2 0xF7 PUSH1 0x4 DUP1 CALLDATASIZE SUB PUSH1 0x40 DUP2 LT ISZERO PUSH2 0x31B JUMPI PUSH1 0x0 DUP1 REVERT JUMPDEST POP PUSH1 0x1 PUSH1 0x1 PUSH1 0xA0 SHL SUB DUP2 CALLDATALOAD AND SWAP1 PUSH1 0x20 ADD CALLDATALOAD PUSH2 0xBCF JUMP JUMPDEST PUSH1 0x4 PUSH2 0x33B PUSH2 0xC7B JUMP JUMPDEST DUP2 JUMP JUMPDEST PUSH1 0x0 DUP1 PUSH1 0x0 DUP1 PUSH1 0x0 DUP1 PUSH1 0x0 DUP1 PUSH1 0x0 PUSH1 0x3 PUSH1 0x0 DUP14 PUSH1 0x1 PUSH1 0x1 PUSH1 0xA0 SHL SUB AND PUSH1 0x1 PUSH1 0x1 PUSH1 0xA0 SHL SUB AND DUP2 MSTORE PUSH1 0x20 ADD SWAP1 DUP2 MSTORE PUSH1 0x20 ADD PUSH1 0x0 KECCAK256 PUSH1 0x0 DUP13 DUP2 MSTORE PUSH1 0x20 ADD SWAP1 DUP2 MSTORE PUSH1 0x20 ADD PUSH1 0x0 KECCAK256 DUP11 DUP2 PUSH2 0x38C PUSH2 0xC7B JUMP JUMPDEST DUP2 LT PUSH2 0x394 JUMPI INVALID JUMPDEST SWAP1 PUSH1 0x0 MSTORE PUSH1 0x20 PUSH1 0x0 KECCAK256 SWAP1 PUSH1 0x8 MUL ADD SWAP1 POP DUP1 PUSH1 0x0 ADD PUSH2 0x3B0 PUSH2 0xC7B JUMP JUMPDEST DUP2 PUSH1 0x1 ADD PUSH2 0x3BC PUSH2 0xC7B JUMP JUMPDEST DUP3 PUSH1 0x2 ADD PUSH2 0x3C8 PUSH2 0xC7B JUMP JUMPDEST DUP4 PUSH1 0x3 ADD PUSH2 0x3D4 PUSH2 0xC7B JUMP JUMPDEST DUP5 PUSH1 0x4 ADD PUSH2 0x3E0 PUSH2 0xC7B JUMP JUMPDEST DUP6 PUSH1 0x5 ADD PUSH2 0x3EC PUSH2 0xC7B JUMP JUMPDEST DUP7 PUSH1 0x6 ADD PUSH2 0x3F8 PUSH2 0xC7B JUMP JUMPDEST DUP8 PUSH1 0x7 ADD PUSH2 0x404 PUSH2 0xC7B JUMP JUMPDEST SWAP9 POP SWAP9 POP SWAP9 POP SWAP9 POP SWAP9 POP SWAP9 POP SWAP9 POP SWAP9 POP POP SWAP4 SWAP8 POP SWAP4 SWAP8 POP SWAP4 SWAP8 POP SWAP4 SWAP8 JUMP JUMPDEST PUSH1 0x0 DUP1 PUSH2 0x42D PUSH2 0xC7B JUMP JUMPDEST SWAP1 PUSH2 0x100 EXP SWAP1 DIV PUSH1 0x1 PUSH1 0x1 PUSH1 0xA0 SHL SUB AND PUSH1 0x1 PUSH1 0x1 PUSH1 0xA0 SHL SUB AND GAS PUSH2 0x44F PUSH2 0xCB4 JUMP JUMPDEST PUSH1 0x1 PUSH1 0x1 PUSH1 0xA0 SHL SUB AND EQ PUSH2 0x494 JUMPI PUSH1 0x40 MLOAD PUSH3 0x461BCD PUSH1 0xE5 SHL DUP2 MSTORE PUSH1 0x4 ADD DUP1 DUP1 PUSH1 0x20 ADD DUP3 DUP2 SUB DUP3 MSTORE PUSH1 0x2F DUP2 MSTORE PUSH1 0x20 ADD DUP1 PUSH2 0xE1F PUSH1 0x2F SWAP2 CODECOPY PUSH1 0x40 ADD SWAP2 POP POP PUSH1 0x40 MLOAD DUP1 SWAP2 SUB SWAP1 REVERT JUMPDEST DUP1 PUSH1 0x1 DUP1 DUP1 PUSH2 0x4A1 PUSH2 0xC7B JUMP JUMPDEST DUP2 PUSH1 0x1 PUSH1 0x1 PUSH1 0xA0 SHL SUB MUL NOT AND SWAP1 DUP4 PUSH1 0x1 PUSH1 0x1 PUSH1 0xA0 SHL SUB AND MUL OR SWAP1 PUSH2 0x4C3 PUSH2 0xCD9 JUMP JUMPDEST POP POP PUSH1 0x40 DUP1 MLOAD PUSH1 0x1 PUSH1 0x1 PUSH1 0xA0 SHL SUB DUP5 AND DUP2 MSTORE SWAP1 MLOAD PUSH32 0x906A1C6BD7E3091EA86693DD029A831C19049CE77F1DCE2CE0BAB1CACBABCE22 SWAP3 POP SWAP1 DUP2 SWAP1 SUB PUSH1 0x20 ADD SWAP1 LOG1 POP JUMP JUMPDEST PUSH1 0x0 PUSH1 0x2 PUSH2 0x512 PUSH2 0xC7B JUMP JUMPDEST SWAP1 PUSH2 0x100 EXP SWAP1 DIV PUSH1 0x1 PUSH1 0x1 PUSH1 0xA0 SHL SUB AND PUSH1 0x1 PUSH1 0x1 PUSH1 0xA0 SHL SUB AND GAS PUSH2 0x534 PUSH2 0xCB4 JUMP JUMPDEST PUSH1 0x1 PUSH1 0x1 PUSH1 0xA0 SHL SUB AND EQ PUSH2 0x579 JUMPI PUSH1 0x40 MLOAD PUSH3 0x461BCD PUSH1 0xE5 SHL DUP2 MSTORE PUSH1 0x4 ADD DUP1 DUP1 PUSH1 0x20 ADD DUP3 DUP2 SUB DUP3 MSTORE PUSH1 0x34 DUP2 MSTORE PUSH1 0x20 ADD DUP1 PUSH2 0xE4E PUSH1 0x34 SWAP2 CODECOPY PUSH1 0x40 ADD SWAP2 POP POP PUSH1 0x40 MLOAD DUP1 SWAP2 SUB SWAP1 REVERT JUMPDEST PUSH1 0x4 PUSH2 0x583 PUSH2 0xC7B JUMP JUMPDEST PUSH1 0x1 PUSH1 0x1 PUSH1 0xA0 SHL SUB DUP11 AND PUSH1 0x0 SWAP1 DUP2 MSTORE PUSH1 0x3 PUSH1 0x20 SWAP1 DUP2 MSTORE PUSH1 0x40 DUP1 DUP4 KECCAK256 DUP11 DUP5 MSTORE SWAP1 SWAP2 MSTORE SWAP1 KECCAK256 DUP1 PUSH2 0x5AF PUSH2 0xC7B JUMP JUMPDEST SWAP1 POP LT PUSH2 0x603 JUMPI PUSH1 0x40 DUP1 MLOAD PUSH3 0x461BCD PUSH1 0xE5 SHL DUP2 MSTORE PUSH1 0x20 PUSH1 0x4 DUP3 ADD MSTORE PUSH1 0x18 PUSH1 0x24 DUP3 ADD MSTORE PUSH32 0x4D6178207175657565206C656E67746820726561636865640000000000000000 PUSH1 0x44 DUP3 ADD MSTORE SWAP1 MLOAD SWAP1 DUP2 SWAP1 SUB PUSH1 0x64 ADD SWAP1 REVERT JUMPDEST PUSH1 0x1 PUSH1 0x1 PUSH1 0xA0 SHL SUB DUP10 AND PUSH1 0x0 SWAP1 DUP2 MSTORE PUSH1 0x3 PUSH1 0x20 SWAP1 DUP2 MSTORE PUSH1 0x40 DUP1 DUP4 KECCAK256 DUP10 DUP5 MSTORE DUP3 MSTORE SWAP2 DUP3 SWAP1 KECCAK256 DUP3 MLOAD PUSH2 0x100 DUP2 ADD DUP5 MSTORE DUP12 DUP2 MSTORE SWAP2 DUP3 ADD DUP11 SWAP1 MSTORE SWAP2 DUP2 ADD DUP9 SWAP1 MSTORE PUSH1 0x60 DUP2 ADD DUP8 SWAP1 MSTORE PUSH1 0x80 DUP2 ADD DUP7 SWAP1 MSTORE PUSH1 0xA0 DUP2 ADD DUP6 SWAP1 MSTORE PUSH1 0xC0 DUP2 ADD DUP5 SWAP1 MSTORE PUSH1 0xE0 DUP2 ADD DUP4 SWAP1 MSTORE SWAP1 DUP1 PUSH1 0x1 DUP2 PUSH2 0x66F PUSH2 0xC7B JUMP JUMPDEST ADD DUP1 DUP3 PUSH2 0x67A PUSH2 0xCD9 JUMP JUMPDEST POP POP PUSH1 0x0 SWAP3 DUP4 MSTORE PUSH1 0x20 SWAP1 SWAP3 KECCAK256 DUP4 MLOAD SWAP3 SWAP4 SWAP3 PUSH1 0x8 PUSH1 0x0 NOT DUP7 ADD MUL SWAP1 SWAP2 ADD SWAP2 POP DUP2 PUSH2 0x6A1 PUSH2 0xCD9 JUMP JUMPDEST POP POP PUSH1 0x20 DUP3 ADD MLOAD DUP2 PUSH1 0x1 ADD PUSH2 0x6B4 PUSH2 0xCD9 JUMP JUMPDEST POP POP PUSH1 0x40 DUP3 ADD MLOAD DUP2 PUSH1 0x2 ADD PUSH2 0x6C7 PUSH2 0xCD9 JUMP JUMPDEST POP POP PUSH1 0x60 DUP3 ADD MLOAD DUP2 PUSH1 0x3 ADD PUSH2 0x6DA PUSH2 0xCD9 JUMP JUMPDEST POP POP PUSH1 0x80 DUP3 ADD MLOAD DUP2 PUSH1 0x4 ADD PUSH2 0x6ED PUSH2 0xCD9 JUMP JUMPDEST POP POP PUSH1 0xA0 DUP3 ADD MLOAD DUP2 PUSH1 0x5 ADD PUSH2 0x700 PUSH2 0xCD9 JUMP JUMPDEST POP POP PUSH1 0xC0 DUP3 ADD MLOAD DUP2 PUSH1 0x6 ADD PUSH2 0x713 PUSH2 0xCD9 JUMP JUMPDEST POP POP PUSH1 0xE0 DUP3 ADD MLOAD DUP2 PUSH1 0x7 ADD PUSH2 0x726 PUSH2 0xCD9 JUMP JUMPDEST POP POP POP POP POP POP POP POP POP POP POP POP POP POP JUMP JUMPDEST PUSH1 0x0 DUP1 PUSH2 0x741 PUSH2 0xC7B JUMP JUMPDEST SWAP1 PUSH2 0x100 EXP SWAP1 DIV PUSH1 0x1 PUSH1 0x1 PUSH1 0xA0 SHL SUB AND PUSH1 0x1 PUSH1 0x1 PUSH1 0xA0 SHL SUB AND GAS PUSH2 0x763 PUSH2 0xCB4 JUMP JUMPDEST PUSH1 0x1 PUSH1 0x1 PUSH1 0xA0 SHL SUB AND EQ PUSH2 0x7A8 JUMPI PUSH1 0x40 MLOAD PUSH3 0x461BCD PUSH1 0xE5 SHL DUP2 MSTORE PUSH1 0x4 ADD DUP1 DUP1 PUSH1 0x20 ADD DUP3 DUP2 SUB DUP3 MSTORE PUSH1 0x2F DUP2 MSTORE PUSH1 0x20 ADD DUP1 PUSH2 0xE1F PUSH1 0x2F SWAP2 CODECOPY PUSH1 0x40 ADD SWAP2 POP POP PUSH1 0x40 MLOAD DUP1 SWAP2 SUB SWAP1 REVERT JUMPDEST DUP1 PUSH1 0x2 PUSH1 0x1 DUP2 PUSH2 0x7B6 PUSH2 0xC7B JUMP JUMPDEST DUP2 PUSH1 0x1 PUSH1 0x1 PUSH1 0xA0 SHL SUB MUL NOT AND SWAP1 DUP4 PUSH1 0x1 PUSH1 0x1 PUSH1 0xA0 SHL SUB AND MUL OR SWAP1 PUSH2 0x7D8 PUSH2 0xCD9 JUMP JUMPDEST POP POP PUSH1 0x40 DUP1 MLOAD PUSH1 0x1 PUSH1 0x1 PUSH1 0xA0 SHL SUB DUP5 AND DUP2 MSTORE SWAP1 MLOAD PUSH32 0x73F20CFF579E8A4086FA607DB83867595F1B6A798E718C0BFA0B94A404128E03 SWAP3 POP SWAP1 DUP2 SWAP1 SUB PUSH1 0x20 ADD SWAP1 LOG1 POP JUMP JUMPDEST PUSH1 0x0 PUSH1 0x1 PUSH2 0x827 PUSH2 0xC7B JUMP JUMPDEST SWAP1 PUSH2 0x100 EXP SWAP1 DIV PUSH1 0x1 PUSH1 0x1 PUSH1 0xA0 SHL SUB AND DUP2 JUMP JUMPDEST PUSH1 0x3 PUSH1 0x20 MSTORE DUP3 PUSH1 0x0 MSTORE PUSH1 0x40 PUSH1 0x0 KECCAK256 PUSH1 0x20 MSTORE DUP2 PUSH1 0x0 MSTORE PUSH1 0x40 PUSH1 0x0 KECCAK256 DUP2 DUP2 PUSH2 0x85E PUSH2 0xC7B JUMP JUMPDEST DUP2 LT PUSH2 0x866 JUMPI INVALID JUMPDEST SWAP1 PUSH1 0x0 MSTORE PUSH1 0x20 PUSH1 0x0 KECCAK256 SWAP1 PUSH1 0x8 MUL ADD PUSH1 0x0 SWAP3 POP SWAP3 POP POP POP DUP1 PUSH1 0x0 ADD PUSH2 0x888 PUSH2 0xC7B JUMP JUMPDEST SWAP1 DUP1 PUSH1 0x1 ADD PUSH2 0x895 PUSH2 0xC7B JUMP JUMPDEST SWAP1 DUP1 PUSH1 0x2 ADD PUSH2 0x8A2 PUSH2 0xC7B JUMP JUMPDEST SWAP1 DUP1 PUSH1 0x3 ADD PUSH2 0x8AF PUSH2 0xC7B JUMP JUMPDEST SWAP1 DUP1 PUSH1 0x4 ADD PUSH2 0x8BC PUSH2 0xC7B JUMP JUMPDEST SWAP1 DUP1 PUSH1 0x5 ADD PUSH2 0x8C9 PUSH2 0xC7B JUMP JUMPDEST SWAP1 DUP1 PUSH1 0x6 ADD PUSH2 0x8D6 PUSH2 0xC7B JUMP JUMPDEST SWAP1 DUP1 PUSH1 0x7 ADD PUSH2 0x8E3 PUSH2 0xC7B JUMP JUMPDEST SWAP1 POP DUP9 JUMP JUMPDEST PUSH1 0x0 PUSH1 0x1 PUSH2 0x8F4 PUSH2 0xC7B JUMP JUMPDEST SWAP1 PUSH2 0x100 EXP SWAP1 DIV PUSH1 0x1 PUSH1 0x1 PUSH1 0xA0 SHL SUB AND PUSH1 0x1 PUSH1 0x1 PUSH1 0xA0 SHL SUB AND GAS PUSH2 0x916 PUSH2 0xCB4 JUMP JUMPDEST PUSH1 0x1 PUSH1 0x1 PUSH1 0xA0 SHL SUB AND EQ PUSH2 0x95B JUMPI PUSH1 0x40 MLOAD PUSH3 0x461BCD PUSH1 0xE5 SHL DUP2 MSTORE PUSH1 0x4 ADD DUP1 DUP1 PUSH1 0x20 ADD DUP3 DUP2 SUB DUP3 MSTORE PUSH1 0x35 DUP2 MSTORE PUSH1 0x20 ADD DUP1 PUSH2 0xDEA PUSH1 0x35 SWAP2 CODECOPY PUSH1 0x40 ADD SWAP2 POP POP PUSH1 0x40 MLOAD DUP1 SWAP2 SUB SWAP1 REVERT JUMPDEST PUSH32 0xB532073B38C83145E3E5135377A08BF9AAB55BC0FD7C1179CD4FB995D2A5159C PUSH1 0x0 DUP1 PUSH2 0x987 PUSH2 0xC7B JUMP JUMPDEST SWAP1 PUSH2 0x100 EXP SWAP1 DIV PUSH1 0x1 PUSH1 0x1 PUSH1 0xA0 SHL SUB AND PUSH1 0x1 PUSH1 0x0 SWAP1 PUSH2 0x9A4 PUSH2 0xC7B JUMP JUMPDEST PUSH1 0x40 DUP1 MLOAD PUSH1 0x1 PUSH1 0x1 PUSH1 0xA0 SHL SUB SWAP5 DUP6 AND DUP2 MSTORE PUSH2 0x100 SWAP4 SWAP1 SWAP4 EXP SWAP1 SWAP2 DIV SWAP1 SWAP3 AND PUSH1 0x20 DUP3 ADD MSTORE DUP2 MLOAD SWAP1 DUP2 SWAP1 SUB SWAP1 SWAP2 ADD SWAP1 LOG1 PUSH1 0x0 PUSH1 0x1 PUSH2 0x9DE PUSH2 0xC7B JUMP JUMPDEST SWAP1 PUSH2 0x100 EXP SWAP1 DIV PUSH1 0x1 PUSH1 0x1 PUSH1 0xA0 SHL SUB AND PUSH1 0x0 DUP1 PUSH2 0x100 EXP DUP2 PUSH2 0x9FE PUSH2 0xC7B JUMP JUMPDEST DUP2 PUSH1 0x1 PUSH1 0x1 PUSH1 0xA0 SHL SUB MUL NOT AND SWAP1 DUP4 PUSH1 0x1 PUSH1 0x1 PUSH1 0xA0 SHL SUB AND MUL OR SWAP1 PUSH2 0xA20 PUSH2 0xCD9 JUMP JUMPDEST POP POP POP PUSH1 0x0 PUSH1 0x1 PUSH1 0x0 PUSH2 0x100 EXP DUP2 PUSH2 0xA36 PUSH2 0xC7B JUMP JUMPDEST DUP2 PUSH1 0x1 PUSH1 0x1 PUSH1 0xA0 SHL SUB MUL NOT AND SWAP1 DUP4 PUSH1 0x1 PUSH1 0x1 PUSH1 0xA0 SHL SUB AND MUL OR SWAP1 PUSH2 0xA58 PUSH2 0xCD9 JUMP JUMPDEST POP POP POP JUMP JUMPDEST PUSH1 0x0 DUP1 PUSH2 0x827 PUSH2 0xC7B JUMP JUMPDEST PUSH1 0x0 PUSH1 0x2 PUSH2 0x827 PUSH2 0xC7B JUMP JUMPDEST PUSH1 0x1 PUSH1 0x1 PUSH1 0xA0 SHL SUB DUP3 AND PUSH1 0x0 SWAP1 DUP2 MSTORE PUSH1 0x3 PUSH1 0x20 SWAP1 DUP2 MSTORE PUSH1 0x40 DUP1 DUP4 KECCAK256 DUP5 DUP5 MSTORE SWAP1 SWAP2 MSTORE DUP2 KECCAK256 DUP1 PUSH2 0xAA0 PUSH2 0xC7B JUMP JUMPDEST SWAP5 SWAP4 POP POP POP POP JUMP JUMPDEST PUSH1 0x0 DUP1 PUSH2 0xAB3 PUSH2 0xC7B JUMP JUMPDEST SWAP1 PUSH2 0x100 EXP SWAP1 DIV PUSH1 0x1 PUSH1 0x1 PUSH1 0xA0 SHL SUB AND PUSH1 0x1 PUSH1 0x1 PUSH1 0xA0 SHL SUB AND GAS PUSH2 0xAD5 PUSH2 0xCB4 JUMP JUMPDEST PUSH1 0x1 PUSH1 0x1 PUSH1 0xA0 SHL SUB AND EQ PUSH2 0xB1A JUMPI PUSH1 0x40 MLOAD PUSH3 0x461BCD PUSH1 0xE5 SHL DUP2 MSTORE PUSH1 0x4 ADD DUP1 DUP1 PUSH1 0x20 ADD DUP3 DUP2 SUB DUP3 MSTORE PUSH1 0x2F DUP2 MSTORE PUSH1 0x20 ADD DUP1 PUSH2 0xE1F PUSH1 0x2F SWAP2 CODECOPY PUSH1 0x40 ADD SWAP2 POP POP PUSH1 0x40 MLOAD DUP1 SWAP2 SUB SWAP1 REVERT JUMPDEST DUP1 DUP1 PUSH1 0x4 PUSH2 0xB26 PUSH2 0xCD9 JUMP JUMPDEST POP POP POP POP JUMP JUMPDEST PUSH1 0x0 PUSH1 0x2 PUSH2 0xB38 PUSH2 0xC7B JUMP JUMPDEST SWAP1 PUSH2 0x100 EXP SWAP1 DIV PUSH1 0x1 PUSH1 0x1 PUSH1 0xA0 SHL SUB AND PUSH1 0x1 PUSH1 0x1 PUSH1 0xA0 SHL SUB AND GAS PUSH2 0xB5A PUSH2 0xCB4 JUMP JUMPDEST PUSH1 0x1 PUSH1 0x1 PUSH1 0xA0 SHL SUB AND EQ PUSH2 0xB9F JUMPI PUSH1 0x40 MLOAD PUSH3 0x461BCD PUSH1 0xE5 SHL DUP2 MSTORE PUSH1 0x4 ADD DUP1 DUP1 PUSH1 0x20 ADD DUP3 DUP2 SUB DUP3 MSTORE PUSH1 0x34 DUP2 MSTORE PUSH1 0x20 ADD DUP1 PUSH2 0xE4E PUSH1 0x34 SWAP2 CODECOPY PUSH1 0x40 ADD SWAP2 POP POP PUSH1 0x40 MLOAD DUP1 SWAP2 SUB SWAP1 REVERT JUMPDEST PUSH1 0x1 PUSH1 0x1 PUSH1 0xA0 SHL SUB DUP3 AND PUSH1 0x0 SWAP1 DUP2 MSTORE PUSH1 0x3 PUSH1 0x20 SWAP1 DUP2 MSTORE PUSH1 0x40 DUP1 DUP4 KECCAK256 DUP5 DUP5 MSTORE SWAP1 SWAP2 MSTORE DUP2 KECCAK256 PUSH2 0xBCB SWAP2 PUSH2 0xD12 JUMP JUMPDEST POP POP JUMP JUMPDEST PUSH1 0x1 PUSH1 0x1 PUSH1 0xA0 SHL SUB DUP3 AND PUSH1 0x0 SWAP1 DUP2 MSTORE PUSH1 0x3 PUSH1 0x20 SWAP1 DUP2 MSTORE PUSH1 0x40 DUP1 DUP4 KECCAK256 DUP5 DUP5 MSTORE SWAP1 SWAP2 MSTORE DUP2 KECCAK256 DUP2 DUP1 JUMPDEST DUP3 DUP1 PUSH2 0xBFF PUSH2 0xC7B JUMP JUMPDEST SWAP1 POP DUP2 LT ISZERO PUSH2 0xC72 JUMPI DUP2 DUP4 DUP3 DUP2 PUSH2 0xC14 PUSH2 0xC7B JUMP JUMPDEST DUP2 LT PUSH2 0xC1C JUMPI INVALID JUMPDEST SWAP1 PUSH1 0x0 MSTORE PUSH1 0x20 PUSH1 0x0 KECCAK256 SWAP1 PUSH1 0x8 MUL ADD PUSH1 0x5 ADD PUSH2 0xC35 PUSH2 0xC7B JUMP JUMPDEST GT ISZERO PUSH2 0xC6A JUMPI DUP3 DUP2 DUP2 PUSH2 0xC46 PUSH2 0xC7B JUMP JUMPDEST DUP2 LT PUSH2 0xC4E JUMPI INVALID JUMPDEST SWAP1 PUSH1 0x0 MSTORE PUSH1 0x20 PUSH1 0x0 KECCAK256 SWAP1 PUSH1 0x8 MUL ADD PUSH1 0x5 ADD PUSH2 0xC67 PUSH2 0xC7B JUMP JUMPDEST SWAP2 POP JUMPDEST PUSH1 0x1 ADD PUSH2 0xBF5 JUMP JUMPDEST POP SWAP5 SWAP4 POP POP POP POP JUMP JUMPDEST PUSH4 0x412CC41 PUSH1 0xE3 SHL PUSH3 0x80000 SWAP1 DUP2 MSTORE PUSH3 0x80004 DUP4 SWAP1 MSTORE PUSH4 0x20966208 SWAP1 PUSH1 0x20 DUP2 PUSH1 0x24 DUP2 CALLER PUSH1 0x0 SWAP1 GAS CALL DUP1 PUSH2 0xCAD JUMPI PUSH1 0x0 DUP1 REVERT JUMPDEST POP MLOAD SWAP3 POP POP JUMP JUMPDEST PUSH4 0x73509064 PUSH3 0x80000 DUP2 PUSH1 0xE0 SHL DUP2 MSTORE PUSH1 0x20 DUP2 PUSH1 0x4 DUP4 CALLER PUSH1 0x0 SWAP1 GAS CALL DUP1 PUSH2 0xCAD JUMPI PUSH1 0x0 DUP1 REVERT JUMPDEST PUSH4 0x146E595 PUSH1 0xE5 SHL PUSH3 0x80000 SWAP1 DUP2 MSTORE PUSH3 0x80004 DUP4 SWAP1 MSTORE PUSH3 0x80024 DUP5 SWAP1 MSTORE PUSH4 0x28DCB2A0 SWAP1 PUSH1 0x0 DUP2 PUSH1 0x44 DUP2 CALLER PUSH1 0x0 SWAP1 GAS CALL DUP1 PUSH2 0xA58 JUMPI PUSH1 0x0 DUP1 REVERT JUMPDEST POP DUP1 PUSH2 0xD1C PUSH2 0xC7B JUMP JUMPDEST PUSH1 0x0 DUP3 PUSH2 0xD27 PUSH2 0xCD9 JUMP JUMPDEST POP POP PUSH1 0x8 MUL SWAP1 PUSH1 0x0 MSTORE PUSH1 0x20 PUSH1 0x0 KECCAK256 SWAP1 DUP2 ADD SWAP1 PUSH2 0xD43 SWAP2 SWAP1 PUSH2 0xD46 JUMP JUMPDEST POP JUMP JUMPDEST PUSH2 0xDE6 SWAP2 SWAP1 JUMPDEST DUP1 DUP3 GT ISZERO PUSH2 0xDE2 JUMPI PUSH1 0x0 DUP1 DUP3 PUSH2 0xD60 PUSH2 0xCD9 JUMP JUMPDEST POP POP PUSH1 0x1 DUP3 ADD PUSH1 0x0 SWAP1 PUSH2 0xD71 PUSH2 0xCD9 JUMP JUMPDEST POP POP PUSH1 0x2 DUP3 ADD PUSH1 0x0 SWAP1 PUSH2 0xD82 PUSH2 0xCD9 JUMP JUMPDEST POP POP PUSH1 0x3 DUP3 ADD PUSH1 0x0 SWAP1 PUSH2 0xD93 PUSH2 0xCD9 JUMP JUMPDEST POP POP PUSH1 0x4 DUP3 ADD PUSH1 0x0 SWAP1 PUSH2 0xDA4 PUSH2 0xCD9 JUMP JUMPDEST POP POP PUSH1 0x5 DUP3 ADD PUSH1 0x0 SWAP1 PUSH2 0xDB5 PUSH2 0xCD9 JUMP JUMPDEST POP POP PUSH1 0x6 DUP3 ADD PUSH1 0x0 SWAP1 PUSH2 0xDC6 PUSH2 0xCD9 JUMP JUMPDEST POP POP PUSH1 0x7 DUP3 ADD PUSH1 0x0 SWAP1 PUSH2 0xDD7 PUSH2 0xCD9 JUMP JUMPDEST POP POP POP PUSH1 0x8 ADD PUSH2 0xD4C JUMP JUMPDEST POP SWAP1 JUMP JUMPDEST SWAP1 JUMP INVALID MSIZE PUSH16 0x75206D757374206265206E6F6D696E61 PUSH21 0x6564206265666F726520796F752063616E20616363 PUSH6 0x7074206F776E PUSH6 0x72736869704F PUSH15 0x6C792074686520636F6E7472616374 KECCAK256 PUSH16 0x776E6572206D617920706572666F726D KECCAK256 PUSH21 0x68697320616374696F6E4F6E6C7920746865206173 PUSH20 0x6F63696174656420636F6E74726163742063616E KECCAK256 PUSH17 0x6572666F726D207468697320616374696F PUSH15 0x0 "
		}
	}
}