{
	"abi": [
		{
			"inputs": [
				{
					"internalType": "address",
					"name": "_owner",
					"type": "address"
				},
				{
					"internalType": "address",
					"name": "_resolver",
					"type": "address"
				}
			],
			"payable": false,
			"stateMutability": "nonpayable",
			"type": "constructor"
		},
		{
			"anonymous": false,
			"inputs": [
				{
					"indexed": true,
					"internalType": "address",
					"name": "account",
					"type": "address"
				},
				{
					"indexed": false,
					"internalType": "uint256",
					"name": "deadline",
					"type": "uint256"
				}
			],
			"name": "AccountFlaggedForLiquidation",
			"type": "event"
		},
		{
			"anonymous": false,
			"inputs": [
				{
					"indexed": true,
					"internalType": "address",
					"name": "account",
					"type": "address"
				},
				{
					"indexed": false,
					"internalType": "uint256",
					"name": "time",
					"type": "uint256"
				}
			],
			"name": "AccountRemovedFromLiquidation",
			"type": "event"
		},
		{
			"anonymous": false,
			"inputs": [
				{
					"indexed": false,
					"internalType": "uint256",
					"name": "newDelay",
					"type": "uint256"
				}
			],
			"name": "LiquidationDelayUpdated",
			"type": "event"
		},
		{
			"anonymous": false,
			"inputs": [
				{
					"indexed": false,
					"internalType": "uint256",
					"name": "newPenalty",
					"type": "uint256"
				}
			],
			"name": "LiquidationPenaltyUpdated",
			"type": "event"
		},
		{
			"anonymous": false,
			"inputs": [
				{
					"indexed": false,
					"internalType": "uint256",
					"name": "newRatio",
					"type": "uint256"
				}
			],
			"name": "LiquidationRatioUpdated",
			"type": "event"
		},
		{
			"anonymous": false,
			"inputs": [
				{
					"indexed": false,
					"internalType": "address",
					"name": "oldOwner",
					"type": "address"
				},
				{
					"indexed": false,
					"internalType": "address",
					"name": "newOwner",
					"type": "address"
				}
			],
			"name": "OwnerChanged",
			"type": "event"
		},
		{
			"anonymous": false,
			"inputs": [
				{
					"indexed": false,
					"internalType": "address",
					"name": "newOwner",
					"type": "address"
				}
			],
			"name": "OwnerNominated",
			"type": "event"
		},
		{
			"constant": true,
			"inputs": [],
			"name": "LIQUIDATION_CALLER",
			"outputs": [
				{
					"internalType": "bytes32",
					"name": "",
					"type": "bytes32"
				}
			],
			"payable": false,
			"stateMutability": "view",
			"type": "function"
		},
		{
			"constant": true,
			"inputs": [],
			"name": "LIQUIDATION_DEADLINE",
			"outputs": [
				{
					"internalType": "bytes32",
					"name": "",
					"type": "bytes32"
				}
			],
			"payable": false,
			"stateMutability": "view",
			"type": "function"
		},
		{
			"constant": true,
			"inputs": [],
			"name": "MAX_ADDRESSES_FROM_RESOLVER",
			"outputs": [
				{
					"internalType": "uint256",
					"name": "",
					"type": "uint256"
				}
			],
			"payable": false,
			"stateMutability": "view",
			"type": "function"
		},
		{
			"constant": true,
			"inputs": [],
			"name": "MAX_LIQUIDATION_DELAY",
			"outputs": [
				{
					"internalType": "uint256",
					"name": "",
					"type": "uint256"
				}
			],
			"payable": false,
			"stateMutability": "view",
			"type": "function"
		},
		{
			"constant": true,
			"inputs": [],
			"name": "MAX_LIQUIDATION_PENALTY",
			"outputs": [
				{
					"internalType": "uint256",
					"name": "",
					"type": "uint256"
				}
			],
			"payable": false,
			"stateMutability": "view",
			"type": "function"
		},
		{
			"constant": true,
			"inputs": [],
			"name": "MAX_LIQUIDATION_RATIO",
			"outputs": [
				{
					"internalType": "uint256",
					"name": "",
					"type": "uint256"
				}
			],
			"payable": false,
			"stateMutability": "view",
			"type": "function"
		},
		{
			"constant": true,
			"inputs": [],
			"name": "MIN_LIQUIDATION_DELAY",
			"outputs": [
				{
					"internalType": "uint256",
					"name": "",
					"type": "uint256"
				}
			],
			"payable": false,
			"stateMutability": "view",
			"type": "function"
		},
		{
			"constant": true,
			"inputs": [],
			"name": "RATIO_FROM_TARGET_BUFFER",
			"outputs": [
				{
					"internalType": "uint256",
					"name": "",
					"type": "uint256"
				}
			],
			"payable": false,
			"stateMutability": "view",
			"type": "function"
		},
		{
			"constant": false,
			"inputs": [],
			"name": "acceptOwnership",
			"outputs": [],
			"payable": false,
			"stateMutability": "nonpayable",
			"type": "function"
		},
		{
			"constant": true,
			"inputs": [
				{
					"internalType": "uint256",
					"name": "debtBalance",
					"type": "uint256"
				},
				{
					"internalType": "uint256",
					"name": "collateral",
					"type": "uint256"
				}
			],
			"name": "calculateAmountToFixCollateral",
			"outputs": [
				{
					"internalType": "uint256",
					"name": "",
					"type": "uint256"
				}
			],
			"payable": false,
			"stateMutability": "view",
			"type": "function"
		},
		{
			"constant": false,
			"inputs": [
				{
					"internalType": "address",
					"name": "account",
					"type": "address"
				}
			],
			"name": "checkAndRemoveAccountInLiquidation",
			"outputs": [],
			"payable": false,
			"stateMutability": "nonpayable",
			"type": "function"
		},
		{
			"constant": false,
			"inputs": [
				{
					"internalType": "address",
					"name": "account",
					"type": "address"
				}
			],
			"name": "flagAccountForLiquidation",
			"outputs": [],
			"payable": false,
			"stateMutability": "nonpayable",
			"type": "function"
		},
		{
			"constant": true,
			"inputs": [
				{
					"internalType": "address",
					"name": "account",
					"type": "address"
				}
			],
			"name": "getLiquidationDeadlineForAccount",
			"outputs": [
				{
					"internalType": "uint256",
					"name": "",
					"type": "uint256"
				}
			],
			"payable": false,
			"stateMutability": "view",
			"type": "function"
		},
		{
			"constant": true,
			"inputs": [],
			"name": "getResolverAddressesRequired",
			"outputs": [
				{
					"internalType": "bytes32[24]",
					"name": "addressesRequired",
					"type": "bytes32[24]"
				}
			],
			"payable": false,
			"stateMutability": "view",
			"type": "function"
		},
		{
			"constant": true,
			"inputs": [
				{
					"internalType": "address",
					"name": "account",
					"type": "address"
				}
			],
			"name": "isLiquidationDeadlinePassed",
			"outputs": [
				{
					"internalType": "bool",
					"name": "",
					"type": "bool"
				}
			],
			"payable": false,
			"stateMutability": "view",
			"type": "function"
		},
		{
			"constant": true,
			"inputs": [
				{
					"internalType": "address",
					"name": "account",
					"type": "address"
				}
			],
			"name": "isOpenForLiquidation",
			"outputs": [
				{
					"internalType": "bool",
					"name": "",
					"type": "bool"
				}
			],
			"payable": false,
			"stateMutability": "view",
			"type": "function"
		},
		{
			"constant": true,
			"inputs": [
				{
					"internalType": "contract AddressResolver",
					"name": "_resolver",
					"type": "address"
				}
			],
			"name": "isResolverCached",
			"outputs": [
				{
					"internalType": "bool",
					"name": "",
					"type": "bool"
				}
			],
			"payable": false,
			"stateMutability": "view",
			"type": "function"
		},
		{
			"constant": true,
			"inputs": [],
			"name": "liquidationCollateralRatio",
			"outputs": [
				{
					"internalType": "uint256",
					"name": "",
					"type": "uint256"
				}
			],
			"payable": false,
			"stateMutability": "view",
			"type": "function"
		},
		{
			"constant": true,
			"inputs": [],
			"name": "liquidationDelay",
			"outputs": [
				{
					"internalType": "uint256",
					"name": "",
					"type": "uint256"
				}
			],
			"payable": false,
			"stateMutability": "view",
			"type": "function"
		},
		{
			"constant": true,
			"inputs": [],
			"name": "liquidationPenalty",
			"outputs": [
				{
					"internalType": "uint256",
					"name": "",
					"type": "uint256"
				}
			],
			"payable": false,
			"stateMutability": "view",
			"type": "function"
		},
		{
			"constant": true,
			"inputs": [],
			"name": "liquidationRatio",
			"outputs": [
				{
					"internalType": "uint256",
					"name": "",
					"type": "uint256"
				}
			],
			"payable": false,
			"stateMutability": "view",
			"type": "function"
		},
		{
			"constant": false,
			"inputs": [
				{
					"internalType": "address",
					"name": "_owner",
					"type": "address"
				}
			],
			"name": "nominateNewOwner",
			"outputs": [],
			"payable": false,
			"stateMutability": "nonpayable",
			"type": "function"
		},
		{
			"constant": true,
			"inputs": [],
			"name": "nominatedOwner",
			"outputs": [
				{
					"internalType": "address",
					"name": "",
					"type": "address"
				}
			],
			"payable": false,
			"stateMutability": "view",
			"type": "function"
		},
		{
			"constant": true,
			"inputs": [],
			"name": "owner",
			"outputs": [
				{
					"internalType": "address",
					"name": "",
					"type": "address"
				}
			],
			"payable": false,
			"stateMutability": "view",
			"type": "function"
		},
		{
			"constant": false,
			"inputs": [
				{
					"internalType": "address",
					"name": "account",
					"type": "address"
				}
			],
			"name": "removeAccountInLiquidation",
			"outputs": [],
			"payable": false,
			"stateMutability": "nonpayable",
			"type": "function"
		},
		{
			"constant": true,
			"inputs": [],
			"name": "resolver",
			"outputs": [
				{
					"internalType": "contract AddressResolver",
					"name": "",
					"type": "address"
				}
			],
			"payable": false,
			"stateMutability": "view",
			"type": "function"
		},
		{
			"constant": true,
			"inputs": [
				{
					"internalType": "uint256",
					"name": "",
					"type": "uint256"
				}
			],
			"name": "resolverAddressesRequired",
			"outputs": [
				{
					"internalType": "bytes32",
					"name": "",
					"type": "bytes32"
				}
			],
			"payable": false,
			"stateMutability": "view",
			"type": "function"
		},
		{
			"constant": false,
			"inputs": [
				{
					"internalType": "uint256",
					"name": "time",
					"type": "uint256"
				}
			],
			"name": "setLiquidationDelay",
			"outputs": [],
			"payable": false,
			"stateMutability": "nonpayable",
			"type": "function"
		},
		{
			"constant": false,
			"inputs": [
				{
					"internalType": "uint256",
					"name": "penalty",
					"type": "uint256"
				}
			],
			"name": "setLiquidationPenalty",
			"outputs": [],
			"payable": false,
			"stateMutability": "nonpayable",
			"type": "function"
		},
		{
			"constant": false,
			"inputs": [
				{
					"internalType": "uint256",
					"name": "_liquidationRatio",
					"type": "uint256"
				}
			],
			"name": "setLiquidationRatio",
			"outputs": [],
			"payable": false,
			"stateMutability": "nonpayable",
			"type": "function"
		},
		{
			"constant": false,
			"inputs": [
				{
					"internalType": "contract AddressResolver",
					"name": "_resolver",
					"type": "address"
				}
			],
			"name": "setResolverAndSyncCache",
			"outputs": [],
			"payable": false,
			"stateMutability": "nonpayable",
			"type": "function"
		}
	],
	"evm": {
		"bytecode": {
			"linkReferences": {
				"Liquidations.sol": {
					"SafeDecimalMath": [
						{
							"length": 20,
							"start": 2573
						},
						{
							"length": 20,
							"start": 5163
						},
						{
							"length": 20,
							"start": 5452
						}
					]
				}
			},
			"object": "6101406040526b53797374656d53746174757360a01b6080908152680a6f2dce8d0cae8d2f60bb1b60a0527f457465726e616c53746f726167654c69717569646174696f6e7300000000000060c0526d53796e746865746978537461746560901b60e0526524b9b9bab2b960d11b610100526c45786368616e6765526174657360981b610120526200009690600590600662000368565b5062127500601d620000a7620003b6565b50506706f05b59d3b20000601e620000be620003b6565b505067016345785d8a0000601f620000d5620003b6565b5050348015620000e457600080fd5b5060405162002c4438038062002c44833981810160405260408110156200010a57600080fd5b50805160209091015160408051610300810191829052829160059060189082845b8162000136620003f5565b815260200190600101908083116200012b57508793505050506001600160a01b038116620001ab576040805162461bcd60e51b815260206004820152601960248201527f4f776e657220616464726573732063616e6e6f74206265203000000000000000604482015290519081900360640190fd5b806000600181620001bb620003f5565b816001600160a01b0302191690836001600160a01b0316021790620001df620003b6565b505060408051600081526001600160a01b038416602082015281517fb532073b38c83145e3e5135377a08bf9aab55bc0fd7c1179cd4fb995d2a5159c93509081900390910190a1506000808062000235620003f5565b906101000a90046001600160a01b03166001600160a01b0316141562000296576040805162461bcd60e51b815260206004820152601160248201527013dddb995c881b5d5cdd081899481cd95d607a1b604482015290519081900360640190fd5b60005b601881101562000326576000828260188110620002b257fe5b60200201511462000317576004828260188110620002cc57fe5b60200201519080600181620002e0620003f5565b018082620002ed620003b6565b50506000928352602090922091929183016000190190506200030e620003b6565b5050506200031d565b62000326565b60010162000299565b5081600260018162000337620003f5565b816001600160a01b0302191690836001600160a01b03160217906200035b620003b6565b505050505050506200045c565b8260188101928215620003a4579160200282015b82811115620003a45782518262000392620003b6565b5050916020019190600101906200037c565b50620003b29291506200042f565b5090565b630146e59560e51b6208000090815262080004839052620800248490526328dcb2a090600081604481336000905af180620003f057600080fd5b505050565b630412cc4160e31b6208000090815262080004839052632096620890602081602481336000905af1806200042857600080fd5b5051925050565b6200045991905b80821115620003b257600080826200044d620003b6565b50505060010162000436565b90565b6127d8806200046c6000396000f3fe608060405234801561001057600080fd5b50600436106101e55760003560e01c8063828afc4b1161010f578063ad2bc2d5116100a2578063c6c9d82811610071578063c6c9d82814610489578063d45c0d7e146104a6578063e3235c91146104cc578063f1076b25146104d4576101e5565b8063ad2bc2d51461042d578063add0989d14610453578063b2ea70541461045b578063c49e80a614610463576101e5565b8063974e9e7f116100de578063974e9e7f146103b6578063a0cf7451146103dc578063a4ce5b71146103e4578063ab49848c146103ec576101e5565b8063828afc4b146103635780638d1bd1be146103895780638da5cb5b14610391578063946ce8cd14610399576101e5565b806339a9df1b11610187578063631e144411610156578063631e1444146103255780636a0589661461034b57806374e889c91461035357806379ba50971461035b576101e5565b806339a9df1b146102a05780633be99e6f146102da57806353a47bb7146103005780635e0117d614610308576101e5565b80631627540c116101c35780631627540c1461024b5780631775765f1461027357806323f5589a1461027b5780632806a74314610283576101e5565b806304f3bcec146101ea578063085f95cd1461020e5780630ac045d514610228575b600080fd5b6101f26104dc565b604080516001600160a01b039092168252519081900360200190f35b6102166104fb565b60408051918252519081900360200190f35b6102166004803603604081101561023e57600080fd5b5080359060200135610507565b6102716004803603602081101561026157600080fd5b50356001600160a01b031661069a565b005b61021661077e565b61021661078b565b6102716004803603602081101561029957600080fd5b5035610795565b6102c6600480360360208110156102b657600080fd5b50356001600160a01b0316610894565b604080519115158252519081900360200190f35b610271600480360360208110156102f057600080fd5b50356001600160a01b03166108bf565b6101f2610acc565b6102716004803603602081101561031e57600080fd5b5035610ad8565b6102c66004803603602081101561033b57600080fd5b50356001600160a01b0316610c40565b610216610dec565b610216610e04565b610271610e1e565b6102166004803603602081101561037957600080fd5b50356001600160a01b0316610f93565b610216610fae565b6101f2611051565b610271600480360360208110156103af57600080fd5b503561105c565b610271600480360360208110156103cc57600080fd5b50356001600160a01b03166112e1565b610216611364565b61021661136e565b6103f461137a565b604051808261030080838360005b8381101561041a578181015183820152602001610402565b5050505090500191505060405180910390f35b6102716004803603602081101561044357600080fd5b50356001600160a01b03166113dc565b6102166116c0565b6102166116c7565b6102c66004803603602081101561047957600080fd5b50356001600160a01b03166116d3565b6102166004803603602081101561049f57600080fd5b503561183d565b610271600480360360208110156104bc57600080fd5b50356001600160a01b0316611866565b610216611b68565b610216611b6d565b600060026104e8612402565b906101000a90046001600160a01b031681565b6703782dace9d9000081565b600080610512611b74565b6001600160a01b031663b410a0346040518163ffffffff1660e01b8152600401602060405180830381868061054561243b565b15801561055157600080fd5b505a61055b61246d565b5050505050158015610571573d6000803e3d6000fd5b505050506040513d602081101561058757600080fd5b505160408051630241ebdb60e61b8152905191925060009173__$5e636ccdd5f89cd6033a7187b9bf4f76b3$__9163907af6c0916004808301926020929190829003018186806105d561243b565b1580156105e157600080fd5b505a6105eb6124c5565b5050505050158015610601573d6000803e3d6000fd5b505050506040513d602081101561061757600080fd5b50519050600061063d610630868563ffffffff611bc616565b879063ffffffff611bf016565b9050600061067b61066e85610662601f610655612402565b879063ffffffff611c4d16565b9063ffffffff611bc616565b849063ffffffff611bf016565b905061068d828263ffffffff611cae16565b9450505050505b92915050565b6000806106a5612402565b906101000a90046001600160a01b03166001600160a01b03165a6106c76124fc565b6001600160a01b03161461070c5760405162461bcd60e51b815260040180806020018281038252602f8152602001806126fb602f913960400191505060405180910390fd5b8060018080610719612402565b816001600160a01b0302191690836001600160a01b031602179061073b612521565b5050604080516001600160a01b038416815290517f906a1c6bd7e3091ea86693dd029a831c19049ce77f1dce2ce0bab1cacbabce2292509081900360200190a150565b601e610788612402565b81565b601f610788612402565b6000806107a0612402565b906101000a90046001600160a01b03166001600160a01b03165a6107c26124fc565b6001600160a01b0316146108075760405162461bcd60e51b815260040180806020018281038252602f8152602001806126fb602f913960400191505060405180910390fd5b6703782dace9d9000081111561084e5760405162461bcd60e51b815260040180806020018281038252602181526020018061260e6021913960400191505060405180910390fd5b8080601f61085a612521565b50506040805183815290517fbfb22c07314f4682bba789860ceb851eb8cea2d867920332b2a42cf56be5b2e992509081900360200190a150565b600061089e61255a565b6108a783611cd8565b90506108b68160000151611d97565b9150505b919050565b6000806108ca612402565b906101000a90046001600160a01b03166001600160a01b03165a6108ec6124fc565b6001600160a01b0316146109315760405162461bcd60e51b815260040180806020018281038252602f8152602001806126fb602f913960400191505060405180910390fd5b80600260018161093f612402565b816001600160a01b0302191690836001600160a01b0316021790610961612521565b5060009150505b600480610973612402565b9050811015610ac85760006004828161098a612402565b811061099257fe5b906000526020600020016109a4612402565b9050600060026109b2612402565b906101000a90046001600160a01b03166001600160a01b031663dacb2d01826040518263ffffffff1660e01b81526004018082815260200180602001828103825260178152602001807f5265736f6c766572206d697373696e6720746172676574000000000000000000815250602001925050506020604051808303818680610a3961243b565b158015610a4557600080fd5b505a610a4f61246d565b5050505050158015610a65573d6000803e3d6000fd5b505050506040513d6020811015610a7b57600080fd5b50516000828152600360205260409020600181610a96612402565b816001600160a01b0302191690836001600160a01b0316021790610ab8612521565b5050600190920191506109689050565b5050565b600060016104e8612402565b600080610ae3612402565b906101000a90046001600160a01b03166001600160a01b03165a610b056124fc565b6001600160a01b031614610b4a5760405162461bcd60e51b815260040180806020018281038252602f8152602001806126fb602f913960400191505060405180910390fd5b62278d00811115610ba2576040805162461bcd60e51b815260206004820152601960248201527f4d757374206265206c657373207468616e203330206461797300000000000000604482015290519081900360640190fd5b62015180811015610bfa576040805162461bcd60e51b815260206004820152601a60248201527f4d7573742062652067726561746572207468616e203120646179000000000000604482015290519081900360640190fd5b8080601d610c06612521565b50506040805183815290517f9917e32433edcb65f8982c1b2c26c3469468308456f93cf34b98c1b0459c539892509081900360200190a150565b60006001600160a01b038216816002610c57612402565b906101000a90046001600160a01b03166001600160a01b031614610c7d575060006108ba565b60005b600480610c8b612402565b9050811015610de357600060048281610ca2612402565b8110610caa57fe5b90600052602060002001610cbc612402565b600081815260036020526040812091925090610cd6612402565b6001600160a01b036101009290920a90041660006002610cf4612402565b906101000a90046001600160a01b03166001600160a01b03166321f8a721836040518263ffffffff1660e01b8152600401808281526020019150506020604051808303818680610d4261243b565b158015610d4e57600080fd5b505a610d5861246d565b5050505050158015610d6e573d6000803e3d6000fd5b505050506040513d6020811015610d8457600080fd5b50516001600160a01b0316141580610dca575060008181526003602052604081208190610daf612402565b906101000a90046001600160a01b03166001600160a01b0316145b15610dda576000925050506108ba565b50600101610c80565b50600192915050565b702634b8bab4b230ba34b7b721b0b63632b960791b81565b724c69717569646174696f6e446561646c696e6560681b81565b60006001610e2a612402565b906101000a90046001600160a01b03166001600160a01b03165a610e4c6124fc565b6001600160a01b031614610e915760405162461bcd60e51b815260040180806020018281038252603581526020018061262f6035913960400191505060405180910390fd5b7fb532073b38c83145e3e5135377a08bf9aab55bc0fd7c1179cd4fb995d2a5159c600080610ebd612402565b906101000a90046001600160a01b03166001600090610eda612402565b604080516001600160a01b0394851681526101009390930a909104909216602082015281519081900390910190a160006001610f14612402565b906101000a90046001600160a01b03166000806101000a81610f34612402565b816001600160a01b0302191690836001600160a01b0316021790610f56612521565b5050506000600160006101000a81610f6c612402565b816001600160a01b0302191690836001600160a01b0316021790610f8e612521565b505050565b6000610f9d61255a565b610fa683611cd8565b519392505050565b600061104c601e610fbd612402565b73__$5e636ccdd5f89cd6033a7187b9bf4f76b3$__63907af6c06040518163ffffffff1660e01b81526004016020604051808303818680610ffc61243b565b15801561100857600080fd5b505a6110126124c5565b5050505050158015611028573d6000803e3d6000fd5b505050506040513d602081101561103e57600080fd5b50519063ffffffff611db416565b905090565b6000806104e8612402565b600080611067612402565b906101000a90046001600160a01b03166001600160a01b03165a6110896124fc565b6001600160a01b0316146110ce5760405162461bcd60e51b815260040180806020018281038252602f8152602001806126fb602f913960400191505060405180910390fd5b61118261116d601f6110de612402565b73__$5e636ccdd5f89cd6033a7187b9bf4f76b3$__63907af6c06040518163ffffffff1660e01b8152600401602060405180830381868061111d61243b565b15801561112957600080fd5b505a6111336124c5565b5050505050158015611149573d6000803e3d6000fd5b505050506040513d602081101561115f57600080fd5b50519063ffffffff611c4d16565b670de0b6b3a76400009063ffffffff611cae16565b8111156111c05760405162461bcd60e51b81526004018080602001828103825260388152602001806126c36038913960400191505060405180910390fd5b6000611259671bc16d674ec800006111d6611b74565b6001600160a01b031663b410a0346040518163ffffffff1660e01b8152600401602060405180830381868061120961243b565b15801561121557600080fd5b505a61121f61246d565b5050505050158015611235573d6000803e3d6000fd5b505050506040513d602081101561124b57600080fd5b50519063ffffffff611bc616565b90508082101561129a5760405162461bcd60e51b81526004018080602001828103825260288152602001806127b06028913960400191505060405180910390fd5b8180601e6112a6612521565b50506040805184815290517f5568be83e5cf7405adf8fb39305e2cdf49c43336606d23c3e0d3fe54e205150a92509081900360200190a15050565b6112e9611dc9565b6001600160a01b03165a6112fb6124fc565b6001600160a01b0316146113405760405162461bcd60e51b815260040180806020018281038252603e81526020018061272a603e913960400191505060405180910390fd5b61134861255a565b61135182611cd8565b805190915015610ac857610ac882611e0c565b601d610788612402565b671bc16d674ec8000081565b611382612571565b60005b600480611390612402565b90508110156113d857600481816113a5612402565b81106113ad57fe5b906000526020600020016113bf612402565b8282601881106113cb57fe5b6020020152600101611385565b5090565b620a69cb60eb1b6113eb611f82565b6001600160a01b0316629919c0826040518263ffffffff1660e01b815260040180828152602001915050602060405180830381868061142861243b565b15801561143457600080fd5b505a61143e61246d565b5050505050158015611454573d6000803e3d6000fd5b505050506040513d602081101561146a57600080fd5b5051156114ba576040805162461bcd60e51b81526020600482015260196024820152780a4c2e8ca40e6e8c2d8ca40dee440dcdee840c240e6f2dce8d603b1b604482015290519081900360640190fd5b6114c2611fd3565b6001600160a01b031663086dabd16040518163ffffffff1660e01b815260040160006040518083038186806114f561243b565b15801561150157600080fd5b505a61150b61246d565b5050505050158015611521573d6000803e3d6000fd5b5050505061152d61255a565b61153683611cd8565b805190915061158c576040805162461bcd60e51b815260206004820152601e60248201527f4163636f756e7420686173206e6f206c69717569646174696f6e207365740000604482015290519081900360640190fd5b6000611596612023565b6001600160a01b031663a311c7c2856040518263ffffffff1660e01b815260040180826001600160a01b03166001600160a01b0316815260200191505060206040518083038186806115e661243b565b1580156115f257600080fd5b505a6115fc61246d565b5050505050158015611612573d6000803e3d6000fd5b505050506040513d602081101561162857600080fd5b50519050611634611b74565b6001600160a01b031663b410a0346040518163ffffffff1660e01b8152600401602060405180830381868061166761243b565b15801561167357600080fd5b505a61167d61246d565b5050505050158015611693573d6000803e3d6000fd5b505050506040513d60208110156116a957600080fd5b505181116116ba576116ba84611e0c565b50505050565b6201518081565b670de0b6b3a764000081565b6000806116de612023565b6001600160a01b031663a311c7c2846040518263ffffffff1660e01b815260040180826001600160a01b03166001600160a01b03168152602001915050602060405180830381868061172e61243b565b15801561173a57600080fd5b505a61174461246d565b505050505015801561175a573d6000803e3d6000fd5b505050506040513d602081101561177057600080fd5b5051905061177c611b74565b6001600160a01b031663b410a0346040518163ffffffff1660e01b815260040160206040518083038186806117af61243b565b1580156117bb57600080fd5b505a6117c561246d565b50505050501580156117db573d6000803e3d6000fd5b505050506040513d60208110156117f157600080fd5b505181116118035760009150506108ba565b61180b61255a565b61181484611cd8565b90506118238160000151611d97565b15611833576001925050506108ba565b5060009392505050565b60048181611849612402565b811061185157fe5b60009182526020909120019050610788612402565b620a69cb60eb1b611875611f82565b6001600160a01b0316629919c0826040518263ffffffff1660e01b81526004018082815260200191505060206040518083038186806118b261243b565b1580156118be57600080fd5b505a6118c861246d565b50505050501580156118de573d6000803e3d6000fd5b505050506040513d60208110156118f457600080fd5b505115611944576040805162461bcd60e51b81526020600482015260196024820152780a4c2e8ca40e6e8c2d8ca40dee440dcdee840c240e6f2dce8d603b1b604482015290519081900360640190fd5b61194c611fd3565b6001600160a01b031663086dabd16040518163ffffffff1660e01b8152600401600060405180830381868061197f61243b565b15801561198b57600080fd5b505a61199561246d565b50505050501580156119ab573d6000803e3d6000fd5b505050506119b761255a565b6119c083611cd8565b805190915015611a015760405162461bcd60e51b81526004018080602001828103825260278152602001806127896027913960400191505060405180910390fd5b6000611a0b612023565b6001600160a01b031663a311c7c2856040518263ffffffff1660e01b815260040180826001600160a01b03166001600160a01b031681526020019150506020604051808303818680611a5b61243b565b158015611a6757600080fd5b505a611a7161246d565b5050505050158015611a87573d6000803e3d6000fd5b505050506040513d6020811015611a9d57600080fd5b50519050601e611aab612402565b811015611ae95760405162461bcd60e51b815260040180806020018281038252603581526020018061268e6035913960400191505060405180910390fd5b6000611b0d601d611af8612402565b5a611b01612590565b9063ffffffff611c4d16565b9050611b2285825a611b1d6124fc565b612070565b6040805182815290516001600160a01b038716917fc77e4625de0c70adaf3bd1aabb5f22f9eae8f565367c706fc209030c13857996919081900360200190a25050505050565b601881565b62278d0081565b600061104c6d53796e746865746978537461746560901b6040518060400160405280601e81526020017f4d697373696e672053796e7468657469785374617465206164647265737300008152506121c5565b6000670de0b6b3a7640000611be1848463ffffffff61228516565b81611be857fe5b049392505050565b600082821115611c47576040805162461bcd60e51b815260206004820152601e60248201527f536166654d6174683a207375627472616374696f6e206f766572666c6f770000604482015290519081900360640190fd5b50900390565b600082820183811015611ca7576040805162461bcd60e51b815260206004820152601b60248201527f536166654d6174683a206164646974696f6e206f766572666c6f770000000000604482015290519081900360640190fd5b9392505050565b6000611ca782611ccc85670de0b6b3a764000063ffffffff61228516565b9063ffffffff6122de16565b611ce061255a565b611ce8612348565b6001600160a01b031663bdc963d8611d16724c69717569646174696f6e446561646c696e6560681b8561238c565b6040518263ffffffff1660e01b8152600401808281526020019150506020604051808303818680611d4561243b565b158015611d5157600080fd5b505a611d5b61246d565b5050505050158015611d71573d6000803e3d6000fd5b505050506040513d6020811015611d8757600080fd5b5051815260006020820152919050565b600080821180156106945750815a611dad612590565b1192915050565b6000611ca78383670de0b6b3a76400006123cb565b600061104c6524b9b9bab2b960d11b604051806040016040528060168152602001754d697373696e6720497373756572206164647265737360501b8152506121c5565b611e14612348565b6001600160a01b03166393fe4248611e42724c69717569646174696f6e446561646c696e6560681b8461238c565b6040518263ffffffff1660e01b81526004018082815260200191505060006040518083038160008780611e7361243b565b158015611e7f57600080fd5b505a611e896125b5565b505050505050158015611ea0573d6000803e3d6000fd5b50505050611eac612348565b6001600160a01b031663043106c0611ed8702634b8bab4b230ba34b7b721b0b63632b960791b8461238c565b6040518263ffffffff1660e01b81526004018082815260200191505060006040518083038160008780611f0961243b565b158015611f1557600080fd5b505a611f1f6125b5565b505050505050158015611f36573d6000803e3d6000fd5b50505050806001600160a01b03167f9b6ac8997b4f2edd0a27c1beb32f7c14d522e9c16f46e79daa5a144016bd6c875a611f6e612590565b60408051918252519081900360200190a250565b600061104c6c45786368616e6765526174657360981b6040518060400160405280601d81526020017f4d697373696e672045786368616e6765526174657320616464726573730000008152506121c5565b600061104c6b53797374656d53746174757360a01b6040518060400160405280601c81526020017f4d697373696e672053797374656d5374617475732061646472657373000000008152506121c5565b600061104c680a6f2dce8d0cae8d2f60bb1b6040518060400160405280601981526020017f4d697373696e672053796e7468657469782061646472657373000000000000008152506121c5565b612078612348565b6001600160a01b0316633562fd206120a6724c69717569646174696f6e446561646c696e6560681b8661238c565b846040518363ffffffff1660e01b81526004018083815260200182815260200192505050600060405180830381600087806120df61243b565b1580156120eb57600080fd5b505a6120f56125b5565b50505050505015801561210c573d6000803e3d6000fd5b50505050612118612348565b6001600160a01b0316635a2bf25a612144702634b8bab4b230ba34b7b721b0b63632b960791b8661238c565b836040518363ffffffff1660e01b815260040180838152602001826001600160a01b03166001600160a01b03168152602001925050506000604051808303816000878061218f61243b565b15801561219b57600080fd5b505a6121a56125b5565b5050505050501580156121bc573d6000803e3d6000fd5b50505050505050565b6000828152600360205260408120819081906121df612402565b6001600160a01b036101009290920a9004169050828161227d5760405162461bcd60e51b81526004018080602001828103825283818151815260200191508051906020019080838360005b8381101561224257818101518382015260200161222a565b50505050905090810190601f16801561226f5780820380516001836020036101000a031916815260200191505b509250505060405180910390fd5b509392505050565b60008261229457506000610694565b828202828482816122a157fe5b0414611ca75760405162461bcd60e51b81526004018080602001828103825260218152602001806127686021913960400191505060405180910390fd5b6000808211612334576040805162461bcd60e51b815260206004820152601a60248201527f536166654d6174683a206469766973696f6e206279207a65726f000000000000604482015290519081900360640190fd5b600082848161233f57fe5b04949350505050565b600061104c7f457465726e616c53746f726167654c69717569646174696f6e730000000000006040518060600160405280602a8152602001612664602a91396121c5565b6040805160208082019490945260609290921b6bffffffffffffffffffffffff1916828201528051808303603401815260549092019052805191012090565b6000806123e584611ccc87600a870263ffffffff61228516565b90506005600a8206106123f657600a015b600a9004949350505050565b630412cc4160e31b6208000090815262080004839052632096620890602081602481336000905af18061243457600080fd5b5051925050565b63c3382d0f60e01b620800009081526208000483905263c3382d0f90602081602481336000905af18061243457600080fd5b63fbb0f79d60e01b620800009081526208000484905263fbb0f79d9060005b878110156124a757868101518282016024015260200161248c565b5088888860240183336000905af1806124bf57600080fd5b98505050565b6345e97ddb60e01b62080000908152620800048490526345e97ddb90600087156124a757868101518282016024015260200161248c565b6373509064620800008160e01b8152602081600483336000905af18061243457600080fd5b630146e59560e51b6208000090815262080004839052620800248490526328dcb2a090600081604481336000905af180610f8e57600080fd5b604080518082019091526000808252602082015290565b6040518061030001604052806018906020820280388339509192915050565b63bdbf8c36620800008160e01b8152602081600483336000905af18061243457600080fd5b63131b5f2160e21b6208000090815262080004849052634c6d7c849060005b888110156125ef5787810151828201602401526020016125d4565b5089898960240183336000905af18061260757600080fd5b9950505056fe70656e616c7479203e204d41585f4c49515549444154494f4e5f50454e414c5459596f75206d757374206265206e6f6d696e61746564206265666f726520796f752063616e20616363657074206f776e6572736869704d697373696e6720457465726e616c53746f726167654c69717569646174696f6e7320616464726573734163636f756e742069737375616e636520726174696f206973206c657373207468616e206c69717569646174696f6e20726174696f6c69717569646174696f6e526174696f203e204d41585f4c49515549444154494f4e5f524154494f202f202831202b2070656e616c7479294f6e6c792074686520636f6e7472616374206f776e6572206d617920706572666f726d207468697320616374696f6e4c69717569646174696f6e733a204f6e6c79207468652049737375657220636f6e74726163742063616e20706572666f726d207468697320616374696f6e536166654d6174683a206d756c7469706c69636174696f6e206f766572666c6f774163636f756e7420616c726561647920666c616767656420666f72206c69717569646174696f6e6c69717569646174696f6e526174696f203c204d494e5f4c49515549444154494f4e5f524154494f",
			"opcodes": "PUSH2 0x140 PUSH1 0x40 MSTORE PUSH12 0x53797374656D537461747573 PUSH1 0xA0 SHL PUSH1 0x80 SWAP1 DUP2 MSTORE PUSH9 0xA6F2DCE8D0CAE8D2F PUSH1 0xBB SHL PUSH1 0xA0 MSTORE PUSH32 0x457465726E616C53746F726167654C69717569646174696F6E73000000000000 PUSH1 0xC0 MSTORE PUSH14 0x53796E7468657469785374617465 PUSH1 0x90 SHL PUSH1 0xE0 MSTORE PUSH6 0x24B9B9BAB2B9 PUSH1 0xD1 SHL PUSH2 0x100 MSTORE PUSH13 0x45786368616E67655261746573 PUSH1 0x98 SHL PUSH2 0x120 MSTORE PUSH3 0x96 SWAP1 PUSH1 0x5 SWAP1 PUSH1 0x6 PUSH3 0x368 JUMP JUMPDEST POP PUSH3 0x127500 PUSH1 0x1D PUSH3 0xA7 PUSH3 0x3B6 JUMP JUMPDEST POP POP PUSH8 0x6F05B59D3B20000 PUSH1 0x1E PUSH3 0xBE PUSH3 0x3B6 JUMP JUMPDEST POP POP PUSH8 0x16345785D8A0000 PUSH1 0x1F PUSH3 0xD5 PUSH3 0x3B6 JUMP JUMPDEST POP POP CALLVALUE DUP1 ISZERO PUSH3 0xE4 JUMPI PUSH1 0x0 DUP1 REVERT JUMPDEST POP PUSH1 0x40 MLOAD PUSH3 0x2C44 CODESIZE SUB DUP1 PUSH3 0x2C44 DUP4 CODECOPY DUP2 DUP2 ADD PUSH1 0x40 MSTORE PUSH1 0x40 DUP2 LT ISZERO PUSH3 0x10A JUMPI PUSH1 0x0 DUP1 REVERT JUMPDEST POP DUP1 MLOAD PUSH1 0x20 SWAP1 SWAP2 ADD MLOAD PUSH1 0x40 DUP1 MLOAD PUSH2 0x300 DUP2 ADD SWAP2 DUP3 SWAP1 MSTORE DUP3 SWAP2 PUSH1 0x5 SWAP1 PUSH1 0x18 SWAP1 DUP3 DUP5 JUMPDEST DUP2 PUSH3 0x136 PUSH3 0x3F5 JUMP JUMPDEST DUP2 MSTORE PUSH1 0x20 ADD SWAP1 PUSH1 0x1 ADD SWAP1 DUP1 DUP4 GT PUSH3 0x12B JUMPI POP DUP8 SWAP4 POP POP POP POP PUSH1 0x1 PUSH1 0x1 PUSH1 0xA0 SHL SUB DUP2 AND PUSH3 0x1AB JUMPI PUSH1 0x40 DUP1 MLOAD PUSH3 0x461BCD PUSH1 0xE5 SHL DUP2 MSTORE PUSH1 0x20 PUSH1 0x4 DUP3 ADD MSTORE PUSH1 0x19 PUSH1 0x24 DUP3 ADD MSTORE PUSH32 0x4F776E657220616464726573732063616E6E6F74206265203000000000000000 PUSH1 0x44 DUP3 ADD MSTORE SWAP1 MLOAD SWAP1 DUP2 SWAP1 SUB PUSH1 0x64 ADD SWAP1 REVERT JUMPDEST DUP1 PUSH1 0x0 PUSH1 0x1 DUP2 PUSH3 0x1BB PUSH3 0x3F5 JUMP JUMPDEST DUP2 PUSH1 0x1 PUSH1 0x1 PUSH1 0xA0 SHL SUB MUL NOT AND SWAP1 DUP4 PUSH1 0x1 PUSH1 0x1 PUSH1 0xA0 SHL SUB AND MUL OR SWAP1 PUSH3 0x1DF PUSH3 0x3B6 JUMP JUMPDEST POP POP PUSH1 0x40 DUP1 MLOAD PUSH1 0x0 DUP2 MSTORE PUSH1 0x1 PUSH1 0x1 PUSH1 0xA0 SHL SUB DUP5 AND PUSH1 0x20 DUP3 ADD MSTORE DUP2 MLOAD PUSH32 0xB532073B38C83145E3E5135377A08BF9AAB55BC0FD7C1179CD4FB995D2A5159C SWAP4 POP SWAP1 DUP2 SWAP1 SUB SWAP1 SWAP2 ADD SWAP1 LOG1 POP PUSH1 0x0 DUP1 DUP1 PUSH3 0x235 PUSH3 0x3F5 JUMP JUMPDEST SWAP1 PUSH2 0x100 EXP SWAP1 DIV PUSH1 0x1 PUSH1 0x1 PUSH1 0xA0 SHL SUB AND PUSH1 0x1 PUSH1 0x1 PUSH1 0xA0 SHL SUB AND EQ ISZERO PUSH3 0x296 JUMPI PUSH1 0x40 DUP1 MLOAD PUSH3 0x461BCD PUSH1 0xE5 SHL DUP2 MSTORE PUSH1 0x20 PUSH1 0x4 DUP3 ADD MSTORE PUSH1 0x11 PUSH1 0x24 DUP3 ADD MSTORE PUSH17 0x13DDDB995C881B5D5CDD081899481CD95D PUSH1 0x7A SHL PUSH1 0x44 DUP3 ADD MSTORE SWAP1 MLOAD SWAP1 DUP2 SWAP1 SUB PUSH1 0x64 ADD SWAP1 REVERT JUMPDEST PUSH1 0x0 JUMPDEST PUSH1 0x18 DUP2 LT ISZERO PUSH3 0x326 JUMPI PUSH1 0x0 DUP3 DUP3 PUSH1 0x18 DUP2 LT PUSH3 0x2B2 JUMPI INVALID JUMPDEST PUSH1 0x20 MUL ADD MLOAD EQ PUSH3 0x317 JUMPI PUSH1 0x4 DUP3 DUP3 PUSH1 0x18 DUP2 LT PUSH3 0x2CC JUMPI INVALID JUMPDEST PUSH1 0x20 MUL ADD MLOAD SWAP1 DUP1 PUSH1 0x1 DUP2 PUSH3 0x2E0 PUSH3 0x3F5 JUMP JUMPDEST ADD DUP1 DUP3 PUSH3 0x2ED PUSH3 0x3B6 JUMP JUMPDEST POP POP PUSH1 0x0 SWAP3 DUP4 MSTORE PUSH1 0x20 SWAP1 SWAP3 KECCAK256 SWAP2 SWAP3 SWAP2 DUP4 ADD PUSH1 0x0 NOT ADD SWAP1 POP PUSH3 0x30E PUSH3 0x3B6 JUMP JUMPDEST POP POP POP PUSH3 0x31D JUMP JUMPDEST PUSH3 0x326 JUMP JUMPDEST PUSH1 0x1 ADD PUSH3 0x299 JUMP JUMPDEST POP DUP2 PUSH1 0x2 PUSH1 0x1 DUP2 PUSH3 0x337 PUSH3 0x3F5 JUMP JUMPDEST DUP2 PUSH1 0x1 PUSH1 0x1 PUSH1 0xA0 SHL SUB MUL NOT AND SWAP1 DUP4 PUSH1 0x1 PUSH1 0x1 PUSH1 0xA0 SHL SUB AND MUL OR SWAP1 PUSH3 0x35B PUSH3 0x3B6 JUMP JUMPDEST POP POP POP POP POP POP POP PUSH3 0x45C JUMP JUMPDEST DUP3 PUSH1 0x18 DUP2 ADD SWAP3 DUP3 ISZERO PUSH3 0x3A4 JUMPI SWAP2 PUSH1 0x20 MUL DUP3 ADD JUMPDEST DUP3 DUP2 GT ISZERO PUSH3 0x3A4 JUMPI DUP3 MLOAD DUP3 PUSH3 0x392 PUSH3 0x3B6 JUMP JUMPDEST POP POP SWAP2 PUSH1 0x20 ADD SWAP2 SWAP1 PUSH1 0x1 ADD SWAP1 PUSH3 0x37C JUMP JUMPDEST POP PUSH3 0x3B2 SWAP3 SWAP2 POP PUSH3 0x42F JUMP JUMPDEST POP SWAP1 JUMP JUMPDEST PUSH4 0x146E595 PUSH1 0xE5 SHL PUSH3 0x80000 SWAP1 DUP2 MSTORE PUSH3 0x80004 DUP4 SWAP1 MSTORE PUSH3 0x80024 DUP5 SWAP1 MSTORE PUSH4 0x28DCB2A0 SWAP1 PUSH1 0x0 DUP2 PUSH1 0x44 DUP2 CALLER PUSH1 0x0 SWAP1 GAS CALL DUP1 PUSH3 0x3F0 JUMPI PUSH1 0x0 DUP1 REVERT JUMPDEST POP POP POP JUMP JUMPDEST PUSH4 0x412CC41 PUSH1 0xE3 SHL PUSH3 0x80000 SWAP1 DUP2 MSTORE PUSH3 0x80004 DUP4 SWAP1 MSTORE PUSH4 0x20966208 SWAP1 PUSH1 0x20 DUP2 PUSH1 0x24 DUP2 CALLER PUSH1 0x0 SWAP1 GAS CALL DUP1 PUSH3 0x428 JUMPI PUSH1 0x0 DUP1 REVERT JUMPDEST POP MLOAD SWAP3 POP POP JUMP JUMPDEST PUSH3 0x459 SWAP2 SWAP1 JUMPDEST DUP1 DUP3 GT ISZERO PUSH3 0x3B2 JUMPI PUSH1 0x0 DUP1 DUP3 PUSH3 0x44D PUSH3 0x3B6 JUMP JUMPDEST POP POP POP PUSH1 0x1 ADD PUSH3 0x436 JUMP JUMPDEST SWAP1 JUMP JUMPDEST PUSH2 0x27D8 DUP1 PUSH3 0x46C PUSH1 0x0 CODECOPY PUSH1 0x0 RETURN INVALID PUSH1 0x80 PUSH1 0x40 MSTORE CALLVALUE DUP1 ISZERO PUSH2 0x10 JUMPI PUSH1 0x0 DUP1 REVERT JUMPDEST POP PUSH1 0x4 CALLDATASIZE LT PUSH2 0x1E5 JUMPI PUSH1 0x0 CALLDATALOAD PUSH1 0xE0 SHR DUP1 PUSH4 0x828AFC4B GT PUSH2 0x10F JUMPI DUP1 PUSH4 0xAD2BC2D5 GT PUSH2 0xA2 JUMPI DUP1 PUSH4 0xC6C9D828 GT PUSH2 0x71 JUMPI DUP1 PUSH4 0xC6C9D828 EQ PUSH2 0x489 JUMPI DUP1 PUSH4 0xD45C0D7E EQ PUSH2 0x4A6 JUMPI DUP1 PUSH4 0xE3235C91 EQ PUSH2 0x4CC JUMPI DUP1 PUSH4 0xF1076B25 EQ PUSH2 0x4D4 JUMPI PUSH2 0x1E5 JUMP JUMPDEST DUP1 PUSH4 0xAD2BC2D5 EQ PUSH2 0x42D JUMPI DUP1 PUSH4 0xADD0989D EQ PUSH2 0x453 JUMPI DUP1 PUSH4 0xB2EA7054 EQ PUSH2 0x45B JUMPI DUP1 PUSH4 0xC49E80A6 EQ PUSH2 0x463 JUMPI PUSH2 0x1E5 JUMP JUMPDEST DUP1 PUSH4 0x974E9E7F GT PUSH2 0xDE JUMPI DUP1 PUSH4 0x974E9E7F EQ PUSH2 0x3B6 JUMPI DUP1 PUSH4 0xA0CF7451 EQ PUSH2 0x3DC JUMPI DUP1 PUSH4 0xA4CE5B71 EQ PUSH2 0x3E4 JUMPI DUP1 PUSH4 0xAB49848C EQ PUSH2 0x3EC JUMPI PUSH2 0x1E5 JUMP JUMPDEST DUP1 PUSH4 0x828AFC4B EQ PUSH2 0x363 JUMPI DUP1 PUSH4 0x8D1BD1BE EQ PUSH2 0x389 JUMPI DUP1 PUSH4 0x8DA5CB5B EQ PUSH2 0x391 JUMPI DUP1 PUSH4 0x946CE8CD EQ PUSH2 0x399 JUMPI PUSH2 0x1E5 JUMP JUMPDEST DUP1 PUSH4 0x39A9DF1B GT PUSH2 0x187 JUMPI DUP1 PUSH4 0x631E1444 GT PUSH2 0x156 JUMPI DUP1 PUSH4 0x631E1444 EQ PUSH2 0x325 JUMPI DUP1 PUSH4 0x6A058966 EQ PUSH2 0x34B JUMPI DUP1 PUSH4 0x74E889C9 EQ PUSH2 0x353 JUMPI DUP1 PUSH4 0x79BA5097 EQ PUSH2 0x35B JUMPI PUSH2 0x1E5 JUMP JUMPDEST DUP1 PUSH4 0x39A9DF1B EQ PUSH2 0x2A0 JUMPI DUP1 PUSH4 0x3BE99E6F EQ PUSH2 0x2DA JUMPI DUP1 PUSH4 0x53A47BB7 EQ PUSH2 0x300 JUMPI DUP1 PUSH4 0x5E0117D6 EQ PUSH2 0x308 JUMPI PUSH2 0x1E5 JUMP JUMPDEST DUP1 PUSH4 0x1627540C GT PUSH2 0x1C3 JUMPI DUP1 PUSH4 0x1627540C EQ PUSH2 0x24B JUMPI DUP1 PUSH4 0x1775765F EQ PUSH2 0x273 JUMPI DUP1 PUSH4 0x23F5589A EQ PUSH2 0x27B JUMPI DUP1 PUSH4 0x2806A743 EQ PUSH2 0x283 JUMPI PUSH2 0x1E5 JUMP JUMPDEST DUP1 PUSH4 0x4F3BCEC EQ PUSH2 0x1EA JUMPI DUP1 PUSH4 0x85F95CD EQ PUSH2 0x20E JUMPI DUP1 PUSH4 0xAC045D5 EQ PUSH2 0x228 JUMPI JUMPDEST PUSH1 0x0 DUP1 REVERT JUMPDEST PUSH2 0x1F2 PUSH2 0x4DC JUMP JUMPDEST PUSH1 0x40 DUP1 MLOAD PUSH1 0x1 PUSH1 0x1 PUSH1 0xA0 SHL SUB SWAP1 SWAP3 AND DUP3 MSTORE MLOAD SWAP1 DUP2 SWAP1 SUB PUSH1 0x20 ADD SWAP1 RETURN JUMPDEST PUSH2 0x216 PUSH2 0x4FB JUMP JUMPDEST PUSH1 0x40 DUP1 MLOAD SWAP2 DUP3 MSTORE MLOAD SWAP1 DUP2 SWAP1 SUB PUSH1 0x20 ADD SWAP1 RETURN JUMPDEST PUSH2 0x216 PUSH1 0x4 DUP1 CALLDATASIZE SUB PUSH1 0x40 DUP2 LT ISZERO PUSH2 0x23E JUMPI PUSH1 0x0 DUP1 REVERT JUMPDEST POP DUP1 CALLDATALOAD SWAP1 PUSH1 0x20 ADD CALLDATALOAD PUSH2 0x507 JUMP JUMPDEST PUSH2 0x271 PUSH1 0x4 DUP1 CALLDATASIZE SUB PUSH1 0x20 DUP2 LT ISZERO PUSH2 0x261 JUMPI PUSH1 0x0 DUP1 REVERT JUMPDEST POP CALLDATALOAD PUSH1 0x1 PUSH1 0x1 PUSH1 0xA0 SHL SUB AND PUSH2 0x69A JUMP JUMPDEST STOP JUMPDEST PUSH2 0x216 PUSH2 0x77E JUMP JUMPDEST PUSH2 0x216 PUSH2 0x78B JUMP JUMPDEST PUSH2 0x271 PUSH1 0x4 DUP1 CALLDATASIZE SUB PUSH1 0x20 DUP2 LT ISZERO PUSH2 0x299 JUMPI PUSH1 0x0 DUP1 REVERT JUMPDEST POP CALLDATALOAD PUSH2 0x795 JUMP JUMPDEST PUSH2 0x2C6 PUSH1 0x4 DUP1 CALLDATASIZE SUB PUSH1 0x20 DUP2 LT ISZERO PUSH2 0x2B6 JUMPI PUSH1 0x0 DUP1 REVERT JUMPDEST POP CALLDATALOAD PUSH1 0x1 PUSH1 0x1 PUSH1 0xA0 SHL SUB AND PUSH2 0x894 JUMP JUMPDEST PUSH1 0x40 DUP1 MLOAD SWAP2 ISZERO ISZERO DUP3 MSTORE MLOAD SWAP1 DUP2 SWAP1 SUB PUSH1 0x20 ADD SWAP1 RETURN JUMPDEST PUSH2 0x271 PUSH1 0x4 DUP1 CALLDATASIZE SUB PUSH1 0x20 DUP2 LT ISZERO PUSH2 0x2F0 JUMPI PUSH1 0x0 DUP1 REVERT JUMPDEST POP CALLDATALOAD PUSH1 0x1 PUSH1 0x1 PUSH1 0xA0 SHL SUB AND PUSH2 0x8BF JUMP JUMPDEST PUSH2 0x1F2 PUSH2 0xACC JUMP JUMPDEST PUSH2 0x271 PUSH1 0x4 DUP1 CALLDATASIZE SUB PUSH1 0x20 DUP2 LT ISZERO PUSH2 0x31E JUMPI PUSH1 0x0 DUP1 REVERT JUMPDEST POP CALLDATALOAD PUSH2 0xAD8 JUMP JUMPDEST PUSH2 0x2C6 PUSH1 0x4 DUP1 CALLDATASIZE SUB PUSH1 0x20 DUP2 LT ISZERO PUSH2 0x33B JUMPI PUSH1 0x0 DUP1 REVERT JUMPDEST POP CALLDATALOAD PUSH1 0x1 PUSH1 0x1 PUSH1 0xA0 SHL SUB AND PUSH2 0xC40 JUMP JUMPDEST PUSH2 0x216 PUSH2 0xDEC JUMP JUMPDEST PUSH2 0x216 PUSH2 0xE04 JUMP JUMPDEST PUSH2 0x271 PUSH2 0xE1E JUMP JUMPDEST PUSH2 0x216 PUSH1 0x4 DUP1 CALLDATASIZE SUB PUSH1 0x20 DUP2 LT ISZERO PUSH2 0x379 JUMPI PUSH1 0x0 DUP1 REVERT JUMPDEST POP CALLDATALOAD PUSH1 0x1 PUSH1 0x1 PUSH1 0xA0 SHL SUB AND PUSH2 0xF93 JUMP JUMPDEST PUSH2 0x216 PUSH2 0xFAE JUMP JUMPDEST PUSH2 0x1F2 PUSH2 0x1051 JUMP JUMPDEST PUSH2 0x271 PUSH1 0x4 DUP1 CALLDATASIZE SUB PUSH1 0x20 DUP2 LT ISZERO PUSH2 0x3AF JUMPI PUSH1 0x0 DUP1 REVERT JUMPDEST POP CALLDATALOAD PUSH2 0x105C JUMP JUMPDEST PUSH2 0x271 PUSH1 0x4 DUP1 CALLDATASIZE SUB PUSH1 0x20 DUP2 LT ISZERO PUSH2 0x3CC JUMPI PUSH1 0x0 DUP1 REVERT JUMPDEST POP CALLDATALOAD PUSH1 0x1 PUSH1 0x1 PUSH1 0xA0 SHL SUB AND PUSH2 0x12E1 JUMP JUMPDEST PUSH2 0x216 PUSH2 0x1364 JUMP JUMPDEST PUSH2 0x216 PUSH2 0x136E JUMP JUMPDEST PUSH2 0x3F4 PUSH2 0x137A JUMP JUMPDEST PUSH1 0x40 MLOAD DUP1 DUP3 PUSH2 0x300 DUP1 DUP4 DUP4 PUSH1 0x0 JUMPDEST DUP4 DUP2 LT ISZERO PUSH2 0x41A JUMPI DUP2 DUP2 ADD MLOAD DUP4 DUP3 ADD MSTORE PUSH1 0x20 ADD PUSH2 0x402 JUMP JUMPDEST POP POP POP POP SWAP1 POP ADD SWAP2 POP POP PUSH1 0x40 MLOAD DUP1 SWAP2 SUB SWAP1 RETURN JUMPDEST PUSH2 0x271 PUSH1 0x4 DUP1 CALLDATASIZE SUB PUSH1 0x20 DUP2 LT ISZERO PUSH2 0x443 JUMPI PUSH1 0x0 DUP1 REVERT JUMPDEST POP CALLDATALOAD PUSH1 0x1 PUSH1 0x1 PUSH1 0xA0 SHL SUB AND PUSH2 0x13DC JUMP JUMPDEST PUSH2 0x216 PUSH2 0x16C0 JUMP JUMPDEST PUSH2 0x216 PUSH2 0x16C7 JUMP JUMPDEST PUSH2 0x2C6 PUSH1 0x4 DUP1 CALLDATASIZE SUB PUSH1 0x20 DUP2 LT ISZERO PUSH2 0x479 JUMPI PUSH1 0x0 DUP1 REVERT JUMPDEST POP CALLDATALOAD PUSH1 0x1 PUSH1 0x1 PUSH1 0xA0 SHL SUB AND PUSH2 0x16D3 JUMP JUMPDEST PUSH2 0x216 PUSH1 0x4 DUP1 CALLDATASIZE SUB PUSH1 0x20 DUP2 LT ISZERO PUSH2 0x49F JUMPI PUSH1 0x0 DUP1 REVERT JUMPDEST POP CALLDATALOAD PUSH2 0x183D JUMP JUMPDEST PUSH2 0x271 PUSH1 0x4 DUP1 CALLDATASIZE SUB PUSH1 0x20 DUP2 LT ISZERO PUSH2 0x4BC JUMPI PUSH1 0x0 DUP1 REVERT JUMPDEST POP CALLDATALOAD PUSH1 0x1 PUSH1 0x1 PUSH1 0xA0 SHL SUB AND PUSH2 0x1866 JUMP JUMPDEST PUSH2 0x216 PUSH2 0x1B68 JUMP JUMPDEST PUSH2 0x216 PUSH2 0x1B6D JUMP JUMPDEST PUSH1 0x0 PUSH1 0x2 PUSH2 0x4E8 PUSH2 0x2402 JUMP JUMPDEST SWAP1 PUSH2 0x100 EXP SWAP1 DIV PUSH1 0x1 PUSH1 0x1 PUSH1 0xA0 SHL SUB AND DUP2 JUMP JUMPDEST PUSH8 0x3782DACE9D90000 DUP2 JUMP JUMPDEST PUSH1 0x0 DUP1 PUSH2 0x512 PUSH2 0x1B74 JUMP JUMPDEST PUSH1 0x1 PUSH1 0x1 PUSH1 0xA0 SHL SUB AND PUSH4 0xB410A034 PUSH1 0x40 MLOAD DUP2 PUSH4 0xFFFFFFFF AND PUSH1 0xE0 SHL DUP2 MSTORE PUSH1 0x4 ADD PUSH1 0x20 PUSH1 0x40 MLOAD DUP1 DUP4 SUB DUP2 DUP7 DUP1 PUSH2 0x545 PUSH2 0x243B JUMP JUMPDEST ISZERO DUP1 ISZERO PUSH2 0x551 JUMPI PUSH1 0x0 DUP1 REVERT JUMPDEST POP GAS PUSH2 0x55B PUSH2 0x246D JUMP JUMPDEST POP POP POP POP POP ISZERO DUP1 ISZERO PUSH2 0x571 JUMPI RETURNDATASIZE PUSH1 0x0 DUP1 RETURNDATACOPY RETURNDATASIZE PUSH1 0x0 REVERT JUMPDEST POP POP POP POP PUSH1 0x40 MLOAD RETURNDATASIZE PUSH1 0x20 DUP2 LT ISZERO PUSH2 0x587 JUMPI PUSH1 0x0 DUP1 REVERT JUMPDEST POP MLOAD PUSH1 0x40 DUP1 MLOAD PUSH4 0x241EBDB PUSH1 0xE6 SHL DUP2 MSTORE SWAP1 MLOAD SWAP2 SWAP3 POP PUSH1 0x0 SWAP2 PUSH20 0x0 SWAP2 PUSH4 0x907AF6C0 SWAP2 PUSH1 0x4 DUP1 DUP4 ADD SWAP3 PUSH1 0x20 SWAP3 SWAP2 SWAP1 DUP3 SWAP1 SUB ADD DUP2 DUP7 DUP1 PUSH2 0x5D5 PUSH2 0x243B JUMP JUMPDEST ISZERO DUP1 ISZERO PUSH2 0x5E1 JUMPI PUSH1 0x0 DUP1 REVERT JUMPDEST POP GAS PUSH2 0x5EB PUSH2 0x24C5 JUMP JUMPDEST POP POP POP POP POP ISZERO DUP1 ISZERO PUSH2 0x601 JUMPI RETURNDATASIZE PUSH1 0x0 DUP1 RETURNDATACOPY RETURNDATASIZE PUSH1 0x0 REVERT JUMPDEST POP POP POP POP PUSH1 0x40 MLOAD RETURNDATASIZE PUSH1 0x20 DUP2 LT ISZERO PUSH2 0x617 JUMPI PUSH1 0x0 DUP1 REVERT JUMPDEST POP MLOAD SWAP1 POP PUSH1 0x0 PUSH2 0x63D PUSH2 0x630 DUP7 DUP6 PUSH4 0xFFFFFFFF PUSH2 0x1BC6 AND JUMP JUMPDEST DUP8 SWAP1 PUSH4 0xFFFFFFFF PUSH2 0x1BF0 AND JUMP JUMPDEST SWAP1 POP PUSH1 0x0 PUSH2 0x67B PUSH2 0x66E DUP6 PUSH2 0x662 PUSH1 0x1F PUSH2 0x655 PUSH2 0x2402 JUMP JUMPDEST DUP8 SWAP1 PUSH4 0xFFFFFFFF PUSH2 0x1C4D AND JUMP JUMPDEST SWAP1 PUSH4 0xFFFFFFFF PUSH2 0x1BC6 AND JUMP JUMPDEST DUP5 SWAP1 PUSH4 0xFFFFFFFF PUSH2 0x1BF0 AND JUMP JUMPDEST SWAP1 POP PUSH2 0x68D DUP3 DUP3 PUSH4 0xFFFFFFFF PUSH2 0x1CAE AND JUMP JUMPDEST SWAP5 POP POP POP POP POP JUMPDEST SWAP3 SWAP2 POP POP JUMP JUMPDEST PUSH1 0x0 DUP1 PUSH2 0x6A5 PUSH2 0x2402 JUMP JUMPDEST SWAP1 PUSH2 0x100 EXP SWAP1 DIV PUSH1 0x1 PUSH1 0x1 PUSH1 0xA0 SHL SUB AND PUSH1 0x1 PUSH1 0x1 PUSH1 0xA0 SHL SUB AND GAS PUSH2 0x6C7 PUSH2 0x24FC JUMP JUMPDEST PUSH1 0x1 PUSH1 0x1 PUSH1 0xA0 SHL SUB AND EQ PUSH2 0x70C JUMPI PUSH1 0x40 MLOAD PUSH3 0x461BCD PUSH1 0xE5 SHL DUP2 MSTORE PUSH1 0x4 ADD DUP1 DUP1 PUSH1 0x20 ADD DUP3 DUP2 SUB DUP3 MSTORE PUSH1 0x2F DUP2 MSTORE PUSH1 0x20 ADD DUP1 PUSH2 0x26FB PUSH1 0x2F SWAP2 CODECOPY PUSH1 0x40 ADD SWAP2 POP POP PUSH1 0x40 MLOAD DUP1 SWAP2 SUB SWAP1 REVERT JUMPDEST DUP1 PUSH1 0x1 DUP1 DUP1 PUSH2 0x719 PUSH2 0x2402 JUMP JUMPDEST DUP2 PUSH1 0x1 PUSH1 0x1 PUSH1 0xA0 SHL SUB MUL NOT AND SWAP1 DUP4 PUSH1 0x1 PUSH1 0x1 PUSH1 0xA0 SHL SUB AND MUL OR SWAP1 PUSH2 0x73B PUSH2 0x2521 JUMP JUMPDEST POP POP PUSH1 0x40 DUP1 MLOAD PUSH1 0x1 PUSH1 0x1 PUSH1 0xA0 SHL SUB DUP5 AND DUP2 MSTORE SWAP1 MLOAD PUSH32 0x906A1C6BD7E3091EA86693DD029A831C19049CE77F1DCE2CE0BAB1CACBABCE22 SWAP3 POP SWAP1 DUP2 SWAP1 SUB PUSH1 0x20 ADD SWAP1 LOG1 POP JUMP JUMPDEST PUSH1 0x1E PUSH2 0x788 PUSH2 0x2402 JUMP JUMPDEST DUP2 JUMP JUMPDEST PUSH1 0x1F PUSH2 0x788 PUSH2 0x2402 JUMP JUMPDEST PUSH1 0x0 DUP1 PUSH2 0x7A0 PUSH2 0x2402 JUMP JUMPDEST SWAP1 PUSH2 0x100 EXP SWAP1 DIV PUSH1 0x1 PUSH1 0x1 PUSH1 0xA0 SHL SUB AND PUSH1 0x1 PUSH1 0x1 PUSH1 0xA0 SHL SUB AND GAS PUSH2 0x7C2 PUSH2 0x24FC JUMP JUMPDEST PUSH1 0x1 PUSH1 0x1 PUSH1 0xA0 SHL SUB AND EQ PUSH2 0x807 JUMPI PUSH1 0x40 MLOAD PUSH3 0x461BCD PUSH1 0xE5 SHL DUP2 MSTORE PUSH1 0x4 ADD DUP1 DUP1 PUSH1 0x20 ADD DUP3 DUP2 SUB DUP3 MSTORE PUSH1 0x2F DUP2 MSTORE PUSH1 0x20 ADD DUP1 PUSH2 0x26FB PUSH1 0x2F SWAP2 CODECOPY PUSH1 0x40 ADD SWAP2 POP POP PUSH1 0x40 MLOAD DUP1 SWAP2 SUB SWAP1 REVERT JUMPDEST PUSH8 0x3782DACE9D90000 DUP2 GT ISZERO PUSH2 0x84E JUMPI PUSH1 0x40 MLOAD PUSH3 0x461BCD PUSH1 0xE5 SHL DUP2 MSTORE PUSH1 0x4 ADD DUP1 DUP1 PUSH1 0x20 ADD DUP3 DUP2 SUB DUP3 MSTORE PUSH1 0x21 DUP2 MSTORE PUSH1 0x20 ADD DUP1 PUSH2 0x260E PUSH1 0x21 SWAP2 CODECOPY PUSH1 0x40 ADD SWAP2 POP POP PUSH1 0x40 MLOAD DUP1 SWAP2 SUB SWAP1 REVERT JUMPDEST DUP1 DUP1 PUSH1 0x1F PUSH2 0x85A PUSH2 0x2521 JUMP JUMPDEST POP POP PUSH1 0x40 DUP1 MLOAD DUP4 DUP2 MSTORE SWAP1 MLOAD PUSH32 0xBFB22C07314F4682BBA789860CEB851EB8CEA2D867920332B2A42CF56BE5B2E9 SWAP3 POP SWAP1 DUP2 SWAP1 SUB PUSH1 0x20 ADD SWAP1 LOG1 POP JUMP JUMPDEST PUSH1 0x0 PUSH2 0x89E PUSH2 0x255A JUMP JUMPDEST PUSH2 0x8A7 DUP4 PUSH2 0x1CD8 JUMP JUMPDEST SWAP1 POP PUSH2 0x8B6 DUP2 PUSH1 0x0 ADD MLOAD PUSH2 0x1D97 JUMP JUMPDEST SWAP2 POP POP JUMPDEST SWAP2 SWAP1 POP JUMP JUMPDEST PUSH1 0x0 DUP1 PUSH2 0x8CA PUSH2 0x2402 JUMP JUMPDEST SWAP1 PUSH2 0x100 EXP SWAP1 DIV PUSH1 0x1 PUSH1 0x1 PUSH1 0xA0 SHL SUB AND PUSH1 0x1 PUSH1 0x1 PUSH1 0xA0 SHL SUB AND GAS PUSH2 0x8EC PUSH2 0x24FC JUMP JUMPDEST PUSH1 0x1 PUSH1 0x1 PUSH1 0xA0 SHL SUB AND EQ PUSH2 0x931 JUMPI PUSH1 0x40 MLOAD PUSH3 0x461BCD PUSH1 0xE5 SHL DUP2 MSTORE PUSH1 0x4 ADD DUP1 DUP1 PUSH1 0x20 ADD DUP3 DUP2 SUB DUP3 MSTORE PUSH1 0x2F DUP2 MSTORE PUSH1 0x20 ADD DUP1 PUSH2 0x26FB PUSH1 0x2F SWAP2 CODECOPY PUSH1 0x40 ADD SWAP2 POP POP PUSH1 0x40 MLOAD DUP1 SWAP2 SUB SWAP1 REVERT JUMPDEST DUP1 PUSH1 0x2 PUSH1 0x1 DUP2 PUSH2 0x93F PUSH2 0x2402 JUMP JUMPDEST DUP2 PUSH1 0x1 PUSH1 0x1 PUSH1 0xA0 SHL SUB MUL NOT AND SWAP1 DUP4 PUSH1 0x1 PUSH1 0x1 PUSH1 0xA0 SHL SUB AND MUL OR SWAP1 PUSH2 0x961 PUSH2 0x2521 JUMP JUMPDEST POP PUSH1 0x0 SWAP2 POP POP JUMPDEST PUSH1 0x4 DUP1 PUSH2 0x973 PUSH2 0x2402 JUMP JUMPDEST SWAP1 POP DUP2 LT ISZERO PUSH2 0xAC8 JUMPI PUSH1 0x0 PUSH1 0x4 DUP3 DUP2 PUSH2 0x98A PUSH2 0x2402 JUMP JUMPDEST DUP2 LT PUSH2 0x992 JUMPI INVALID JUMPDEST SWAP1 PUSH1 0x0 MSTORE PUSH1 0x20 PUSH1 0x0 KECCAK256 ADD PUSH2 0x9A4 PUSH2 0x2402 JUMP JUMPDEST SWAP1 POP PUSH1 0x0 PUSH1 0x2 PUSH2 0x9B2 PUSH2 0x2402 JUMP JUMPDEST SWAP1 PUSH2 0x100 EXP SWAP1 DIV PUSH1 0x1 PUSH1 0x1 PUSH1 0xA0 SHL SUB AND PUSH1 0x1 PUSH1 0x1 PUSH1 0xA0 SHL SUB AND PUSH4 0xDACB2D01 DUP3 PUSH1 0x40 MLOAD DUP3 PUSH4 0xFFFFFFFF AND PUSH1 0xE0 SHL DUP2 MSTORE PUSH1 0x4 ADD DUP1 DUP3 DUP2 MSTORE PUSH1 0x20 ADD DUP1 PUSH1 0x20 ADD DUP3 DUP2 SUB DUP3 MSTORE PUSH1 0x17 DUP2 MSTORE PUSH1 0x20 ADD DUP1 PUSH32 0x5265736F6C766572206D697373696E6720746172676574000000000000000000 DUP2 MSTORE POP PUSH1 0x20 ADD SWAP3 POP POP POP PUSH1 0x20 PUSH1 0x40 MLOAD DUP1 DUP4 SUB DUP2 DUP7 DUP1 PUSH2 0xA39 PUSH2 0x243B JUMP JUMPDEST ISZERO DUP1 ISZERO PUSH2 0xA45 JUMPI PUSH1 0x0 DUP1 REVERT JUMPDEST POP GAS PUSH2 0xA4F PUSH2 0x246D JUMP JUMPDEST POP POP POP POP POP ISZERO DUP1 ISZERO PUSH2 0xA65 JUMPI RETURNDATASIZE PUSH1 0x0 DUP1 RETURNDATACOPY RETURNDATASIZE PUSH1 0x0 REVERT JUMPDEST POP POP POP POP PUSH1 0x40 MLOAD RETURNDATASIZE PUSH1 0x20 DUP2 LT ISZERO PUSH2 0xA7B JUMPI PUSH1 0x0 DUP1 REVERT JUMPDEST POP MLOAD PUSH1 0x0 DUP3 DUP2 MSTORE PUSH1 0x3 PUSH1 0x20 MSTORE PUSH1 0x40 SWAP1 KECCAK256 PUSH1 0x1 DUP2 PUSH2 0xA96 PUSH2 0x2402 JUMP JUMPDEST DUP2 PUSH1 0x1 PUSH1 0x1 PUSH1 0xA0 SHL SUB MUL NOT AND SWAP1 DUP4 PUSH1 0x1 PUSH1 0x1 PUSH1 0xA0 SHL SUB AND MUL OR SWAP1 PUSH2 0xAB8 PUSH2 0x2521 JUMP JUMPDEST POP POP PUSH1 0x1 SWAP1 SWAP3 ADD SWAP2 POP PUSH2 0x968 SWAP1 POP JUMP JUMPDEST POP POP JUMP JUMPDEST PUSH1 0x0 PUSH1 0x1 PUSH2 0x4E8 PUSH2 0x2402 JUMP JUMPDEST PUSH1 0x0 DUP1 PUSH2 0xAE3 PUSH2 0x2402 JUMP JUMPDEST SWAP1 PUSH2 0x100 EXP SWAP1 DIV PUSH1 0x1 PUSH1 0x1 PUSH1 0xA0 SHL SUB AND PUSH1 0x1 PUSH1 0x1 PUSH1 0xA0 SHL SUB AND GAS PUSH2 0xB05 PUSH2 0x24FC JUMP JUMPDEST PUSH1 0x1 PUSH1 0x1 PUSH1 0xA0 SHL SUB AND EQ PUSH2 0xB4A JUMPI PUSH1 0x40 MLOAD PUSH3 0x461BCD PUSH1 0xE5 SHL DUP2 MSTORE PUSH1 0x4 ADD DUP1 DUP1 PUSH1 0x20 ADD DUP3 DUP2 SUB DUP3 MSTORE PUSH1 0x2F DUP2 MSTORE PUSH1 0x20 ADD DUP1 PUSH2 0x26FB PUSH1 0x2F SWAP2 CODECOPY PUSH1 0x40 ADD SWAP2 POP POP PUSH1 0x40 MLOAD DUP1 SWAP2 SUB SWAP1 REVERT JUMPDEST PUSH3 0x278D00 DUP2 GT ISZERO PUSH2 0xBA2 JUMPI PUSH1 0x40 DUP1 MLOAD PUSH3 0x461BCD PUSH1 0xE5 SHL DUP2 MSTORE PUSH1 0x20 PUSH1 0x4 DUP3 ADD MSTORE PUSH1 0x19 PUSH1 0x24 DUP3 ADD MSTORE PUSH32 0x4D757374206265206C657373207468616E203330206461797300000000000000 PUSH1 0x44 DUP3 ADD MSTORE SWAP1 MLOAD SWAP1 DUP2 SWAP1 SUB PUSH1 0x64 ADD SWAP1 REVERT JUMPDEST PUSH3 0x15180 DUP2 LT ISZERO PUSH2 0xBFA JUMPI PUSH1 0x40 DUP1 MLOAD PUSH3 0x461BCD PUSH1 0xE5 SHL DUP2 MSTORE PUSH1 0x20 PUSH1 0x4 DUP3 ADD MSTORE PUSH1 0x1A PUSH1 0x24 DUP3 ADD MSTORE PUSH32 0x4D7573742062652067726561746572207468616E203120646179000000000000 PUSH1 0x44 DUP3 ADD MSTORE SWAP1 MLOAD SWAP1 DUP2 SWAP1 SUB PUSH1 0x64 ADD SWAP1 REVERT JUMPDEST DUP1 DUP1 PUSH1 0x1D PUSH2 0xC06 PUSH2 0x2521 JUMP JUMPDEST POP POP PUSH1 0x40 DUP1 MLOAD DUP4 DUP2 MSTORE SWAP1 MLOAD PUSH32 0x9917E32433EDCB65F8982C1B2C26C3469468308456F93CF34B98C1B0459C5398 SWAP3 POP SWAP1 DUP2 SWAP1 SUB PUSH1 0x20 ADD SWAP1 LOG1 POP JUMP JUMPDEST PUSH1 0x0 PUSH1 0x1 PUSH1 0x1 PUSH1 0xA0 SHL SUB DUP3 AND DUP2 PUSH1 0x2 PUSH2 0xC57 PUSH2 0x2402 JUMP JUMPDEST SWAP1 PUSH2 0x100 EXP SWAP1 DIV PUSH1 0x1 PUSH1 0x1 PUSH1 0xA0 SHL SUB AND PUSH1 0x1 PUSH1 0x1 PUSH1 0xA0 SHL SUB AND EQ PUSH2 0xC7D JUMPI POP PUSH1 0x0 PUSH2 0x8BA JUMP JUMPDEST PUSH1 0x0 JUMPDEST PUSH1 0x4 DUP1 PUSH2 0xC8B PUSH2 0x2402 JUMP JUMPDEST SWAP1 POP DUP2 LT ISZERO PUSH2 0xDE3 JUMPI PUSH1 0x0 PUSH1 0x4 DUP3 DUP2 PUSH2 0xCA2 PUSH2 0x2402 JUMP JUMPDEST DUP2 LT PUSH2 0xCAA JUMPI INVALID JUMPDEST SWAP1 PUSH1 0x0 MSTORE PUSH1 0x20 PUSH1 0x0 KECCAK256 ADD PUSH2 0xCBC PUSH2 0x2402 JUMP JUMPDEST PUSH1 0x0 DUP2 DUP2 MSTORE PUSH1 0x3 PUSH1 0x20 MSTORE PUSH1 0x40 DUP2 KECCAK256 SWAP2 SWAP3 POP SWAP1 PUSH2 0xCD6 PUSH2 0x2402 JUMP JUMPDEST PUSH1 0x1 PUSH1 0x1 PUSH1 0xA0 SHL SUB PUSH2 0x100 SWAP3 SWAP1 SWAP3 EXP SWAP1 DIV AND PUSH1 0x0 PUSH1 0x2 PUSH2 0xCF4 PUSH2 0x2402 JUMP JUMPDEST SWAP1 PUSH2 0x100 EXP SWAP1 DIV PUSH1 0x1 PUSH1 0x1 PUSH1 0xA0 SHL SUB AND PUSH1 0x1 PUSH1 0x1 PUSH1 0xA0 SHL SUB AND PUSH4 0x21F8A721 DUP4 PUSH1 0x40 MLOAD DUP3 PUSH4 0xFFFFFFFF AND PUSH1 0xE0 SHL DUP2 MSTORE PUSH1 0x4 ADD DUP1 DUP3 DUP2 MSTORE PUSH1 0x20 ADD SWAP2 POP POP PUSH1 0x20 PUSH1 0x40 MLOAD DUP1 DUP4 SUB DUP2 DUP7 DUP1 PUSH2 0xD42 PUSH2 0x243B JUMP JUMPDEST ISZERO DUP1 ISZERO PUSH2 0xD4E JUMPI PUSH1 0x0 DUP1 REVERT JUMPDEST POP GAS PUSH2 0xD58 PUSH2 0x246D JUMP JUMPDEST POP POP POP POP POP ISZERO DUP1 ISZERO PUSH2 0xD6E JUMPI RETURNDATASIZE PUSH1 0x0 DUP1 RETURNDATACOPY RETURNDATASIZE PUSH1 0x0 REVERT JUMPDEST POP POP POP POP PUSH1 0x40 MLOAD RETURNDATASIZE PUSH1 0x20 DUP2 LT ISZERO PUSH2 0xD84 JUMPI PUSH1 0x0 DUP1 REVERT JUMPDEST POP MLOAD PUSH1 0x1 PUSH1 0x1 PUSH1 0xA0 SHL SUB AND EQ ISZERO DUP1 PUSH2 0xDCA JUMPI POP PUSH1 0x0 DUP2 DUP2 MSTORE PUSH1 0x3 PUSH1 0x20 MSTORE PUSH1 0x40 DUP2 KECCAK256 DUP2 SWAP1 PUSH2 0xDAF PUSH2 0x2402 JUMP JUMPDEST SWAP1 PUSH2 0x100 EXP SWAP1 DIV PUSH1 0x1 PUSH1 0x1 PUSH1 0xA0 SHL SUB AND PUSH1 0x1 PUSH1 0x1 PUSH1 0xA0 SHL SUB AND EQ JUMPDEST ISZERO PUSH2 0xDDA JUMPI PUSH1 0x0 SWAP3 POP POP POP PUSH2 0x8BA JUMP JUMPDEST POP PUSH1 0x1 ADD PUSH2 0xC80 JUMP JUMPDEST POP PUSH1 0x1 SWAP3 SWAP2 POP POP JUMP JUMPDEST PUSH17 0x2634B8BAB4B230BA34B7B721B0B63632B9 PUSH1 0x79 SHL DUP2 JUMP JUMPDEST PUSH19 0x4C69717569646174696F6E446561646C696E65 PUSH1 0x68 SHL DUP2 JUMP JUMPDEST PUSH1 0x0 PUSH1 0x1 PUSH2 0xE2A PUSH2 0x2402 JUMP JUMPDEST SWAP1 PUSH2 0x100 EXP SWAP1 DIV PUSH1 0x1 PUSH1 0x1 PUSH1 0xA0 SHL SUB AND PUSH1 0x1 PUSH1 0x1 PUSH1 0xA0 SHL SUB AND GAS PUSH2 0xE4C PUSH2 0x24FC JUMP JUMPDEST PUSH1 0x1 PUSH1 0x1 PUSH1 0xA0 SHL SUB AND EQ PUSH2 0xE91 JUMPI PUSH1 0x40 MLOAD PUSH3 0x461BCD PUSH1 0xE5 SHL DUP2 MSTORE PUSH1 0x4 ADD DUP1 DUP1 PUSH1 0x20 ADD DUP3 DUP2 SUB DUP3 MSTORE PUSH1 0x35 DUP2 MSTORE PUSH1 0x20 ADD DUP1 PUSH2 0x262F PUSH1 0x35 SWAP2 CODECOPY PUSH1 0x40 ADD SWAP2 POP POP PUSH1 0x40 MLOAD DUP1 SWAP2 SUB SWAP1 REVERT JUMPDEST PUSH32 0xB532073B38C83145E3E5135377A08BF9AAB55BC0FD7C1179CD4FB995D2A5159C PUSH1 0x0 DUP1 PUSH2 0xEBD PUSH2 0x2402 JUMP JUMPDEST SWAP1 PUSH2 0x100 EXP SWAP1 DIV PUSH1 0x1 PUSH1 0x1 PUSH1 0xA0 SHL SUB AND PUSH1 0x1 PUSH1 0x0 SWAP1 PUSH2 0xEDA PUSH2 0x2402 JUMP JUMPDEST PUSH1 0x40 DUP1 MLOAD PUSH1 0x1 PUSH1 0x1 PUSH1 0xA0 SHL SUB SWAP5 DUP6 AND DUP2 MSTORE PUSH2 0x100 SWAP4 SWAP1 SWAP4 EXP SWAP1 SWAP2 DIV SWAP1 SWAP3 AND PUSH1 0x20 DUP3 ADD MSTORE DUP2 MLOAD SWAP1 DUP2 SWAP1 SUB SWAP1 SWAP2 ADD SWAP1 LOG1 PUSH1 0x0 PUSH1 0x1 PUSH2 0xF14 PUSH2 0x2402 JUMP JUMPDEST SWAP1 PUSH2 0x100 EXP SWAP1 DIV PUSH1 0x1 PUSH1 0x1 PUSH1 0xA0 SHL SUB AND PUSH1 0x0 DUP1 PUSH2 0x100 EXP DUP2 PUSH2 0xF34 PUSH2 0x2402 JUMP JUMPDEST DUP2 PUSH1 0x1 PUSH1 0x1 PUSH1 0xA0 SHL SUB MUL NOT AND SWAP1 DUP4 PUSH1 0x1 PUSH1 0x1 PUSH1 0xA0 SHL SUB AND MUL OR SWAP1 PUSH2 0xF56 PUSH2 0x2521 JUMP JUMPDEST POP POP POP PUSH1 0x0 PUSH1 0x1 PUSH1 0x0 PUSH2 0x100 EXP DUP2 PUSH2 0xF6C PUSH2 0x2402 JUMP JUMPDEST DUP2 PUSH1 0x1 PUSH1 0x1 PUSH1 0xA0 SHL SUB MUL NOT AND SWAP1 DUP4 PUSH1 0x1 PUSH1 0x1 PUSH1 0xA0 SHL SUB AND MUL OR SWAP1 PUSH2 0xF8E PUSH2 0x2521 JUMP JUMPDEST POP POP POP JUMP JUMPDEST PUSH1 0x0 PUSH2 0xF9D PUSH2 0x255A JUMP JUMPDEST PUSH2 0xFA6 DUP4 PUSH2 0x1CD8 JUMP JUMPDEST MLOAD SWAP4 SWAP3 POP POP POP JUMP JUMPDEST PUSH1 0x0 PUSH2 0x104C PUSH1 0x1E PUSH2 0xFBD PUSH2 0x2402 JUMP JUMPDEST PUSH20 0x0 PUSH4 0x907AF6C0 PUSH1 0x40 MLOAD DUP2 PUSH4 0xFFFFFFFF AND PUSH1 0xE0 SHL DUP2 MSTORE PUSH1 0x4 ADD PUSH1 0x20 PUSH1 0x40 MLOAD DUP1 DUP4 SUB DUP2 DUP7 DUP1 PUSH2 0xFFC PUSH2 0x243B JUMP JUMPDEST ISZERO DUP1 ISZERO PUSH2 0x1008 JUMPI PUSH1 0x0 DUP1 REVERT JUMPDEST POP GAS PUSH2 0x1012 PUSH2 0x24C5 JUMP JUMPDEST POP POP POP POP POP ISZERO DUP1 ISZERO PUSH2 0x1028 JUMPI RETURNDATASIZE PUSH1 0x0 DUP1 RETURNDATACOPY RETURNDATASIZE PUSH1 0x0 REVERT JUMPDEST POP POP POP POP PUSH1 0x40 MLOAD RETURNDATASIZE PUSH1 0x20 DUP2 LT ISZERO PUSH2 0x103E JUMPI PUSH1 0x0 DUP1 REVERT JUMPDEST POP MLOAD SWAP1 PUSH4 0xFFFFFFFF PUSH2 0x1DB4 AND JUMP JUMPDEST SWAP1 POP SWAP1 JUMP JUMPDEST PUSH1 0x0 DUP1 PUSH2 0x4E8 PUSH2 0x2402 JUMP JUMPDEST PUSH1 0x0 DUP1 PUSH2 0x1067 PUSH2 0x2402 JUMP JUMPDEST SWAP1 PUSH2 0x100 EXP SWAP1 DIV PUSH1 0x1 PUSH1 0x1 PUSH1 0xA0 SHL SUB AND PUSH1 0x1 PUSH1 0x1 PUSH1 0xA0 SHL SUB AND GAS PUSH2 0x1089 PUSH2 0x24FC JUMP JUMPDEST PUSH1 0x1 PUSH1 0x1 PUSH1 0xA0 SHL SUB AND EQ PUSH2 0x10CE JUMPI PUSH1 0x40 MLOAD PUSH3 0x461BCD PUSH1 0xE5 SHL DUP2 MSTORE PUSH1 0x4 ADD DUP1 DUP1 PUSH1 0x20 ADD DUP3 DUP2 SUB DUP3 MSTORE PUSH1 0x2F DUP2 MSTORE PUSH1 0x20 ADD DUP1 PUSH2 0x26FB PUSH1 0x2F SWAP2 CODECOPY PUSH1 0x40 ADD SWAP2 POP POP PUSH1 0x40 MLOAD DUP1 SWAP2 SUB SWAP1 REVERT JUMPDEST PUSH2 0x1182 PUSH2 0x116D PUSH1 0x1F PUSH2 0x10DE PUSH2 0x2402 JUMP JUMPDEST PUSH20 0x0 PUSH4 0x907AF6C0 PUSH1 0x40 MLOAD DUP2 PUSH4 0xFFFFFFFF AND PUSH1 0xE0 SHL DUP2 MSTORE PUSH1 0x4 ADD PUSH1 0x20 PUSH1 0x40 MLOAD DUP1 DUP4 SUB DUP2 DUP7 DUP1 PUSH2 0x111D PUSH2 0x243B JUMP JUMPDEST ISZERO DUP1 ISZERO PUSH2 0x1129 JUMPI PUSH1 0x0 DUP1 REVERT JUMPDEST POP GAS PUSH2 0x1133 PUSH2 0x24C5 JUMP JUMPDEST POP POP POP POP POP ISZERO DUP1 ISZERO PUSH2 0x1149 JUMPI RETURNDATASIZE PUSH1 0x0 DUP1 RETURNDATACOPY RETURNDATASIZE PUSH1 0x0 REVERT JUMPDEST POP POP POP POP PUSH1 0x40 MLOAD RETURNDATASIZE PUSH1 0x20 DUP2 LT ISZERO PUSH2 0x115F JUMPI PUSH1 0x0 DUP1 REVERT JUMPDEST POP MLOAD SWAP1 PUSH4 0xFFFFFFFF PUSH2 0x1C4D AND JUMP JUMPDEST PUSH8 0xDE0B6B3A7640000 SWAP1 PUSH4 0xFFFFFFFF PUSH2 0x1CAE AND JUMP JUMPDEST DUP2 GT ISZERO PUSH2 0x11C0 JUMPI PUSH1 0x40 MLOAD PUSH3 0x461BCD PUSH1 0xE5 SHL DUP2 MSTORE PUSH1 0x4 ADD DUP1 DUP1 PUSH1 0x20 ADD DUP3 DUP2 SUB DUP3 MSTORE PUSH1 0x38 DUP2 MSTORE PUSH1 0x20 ADD DUP1 PUSH2 0x26C3 PUSH1 0x38 SWAP2 CODECOPY PUSH1 0x40 ADD SWAP2 POP POP PUSH1 0x40 MLOAD DUP1 SWAP2 SUB SWAP1 REVERT JUMPDEST PUSH1 0x0 PUSH2 0x1259 PUSH8 0x1BC16D674EC80000 PUSH2 0x11D6 PUSH2 0x1B74 JUMP JUMPDEST PUSH1 0x1 PUSH1 0x1 PUSH1 0xA0 SHL SUB AND PUSH4 0xB410A034 PUSH1 0x40 MLOAD DUP2 PUSH4 0xFFFFFFFF AND PUSH1 0xE0 SHL DUP2 MSTORE PUSH1 0x4 ADD PUSH1 0x20 PUSH1 0x40 MLOAD DUP1 DUP4 SUB DUP2 DUP7 DUP1 PUSH2 0x1209 PUSH2 0x243B JUMP JUMPDEST ISZERO DUP1 ISZERO PUSH2 0x1215 JUMPI PUSH1 0x0 DUP1 REVERT JUMPDEST POP GAS PUSH2 0x121F PUSH2 0x246D JUMP JUMPDEST POP POP POP POP POP ISZERO DUP1 ISZERO PUSH2 0x1235 JUMPI RETURNDATASIZE PUSH1 0x0 DUP1 RETURNDATACOPY RETURNDATASIZE PUSH1 0x0 REVERT JUMPDEST POP POP POP POP PUSH1 0x40 MLOAD RETURNDATASIZE PUSH1 0x20 DUP2 LT ISZERO PUSH2 0x124B JUMPI PUSH1 0x0 DUP1 REVERT JUMPDEST POP MLOAD SWAP1 PUSH4 0xFFFFFFFF PUSH2 0x1BC6 AND JUMP JUMPDEST SWAP1 POP DUP1 DUP3 LT ISZERO PUSH2 0x129A JUMPI PUSH1 0x40 MLOAD PUSH3 0x461BCD PUSH1 0xE5 SHL DUP2 MSTORE PUSH1 0x4 ADD DUP1 DUP1 PUSH1 0x20 ADD DUP3 DUP2 SUB DUP3 MSTORE PUSH1 0x28 DUP2 MSTORE PUSH1 0x20 ADD DUP1 PUSH2 0x27B0 PUSH1 0x28 SWAP2 CODECOPY PUSH1 0x40 ADD SWAP2 POP POP PUSH1 0x40 MLOAD DUP1 SWAP2 SUB SWAP1 REVERT JUMPDEST DUP2 DUP1 PUSH1 0x1E PUSH2 0x12A6 PUSH2 0x2521 JUMP JUMPDEST POP POP PUSH1 0x40 DUP1 MLOAD DUP5 DUP2 MSTORE SWAP1 MLOAD PUSH32 0x5568BE83E5CF7405ADF8FB39305E2CDF49C43336606D23C3E0D3FE54E205150A SWAP3 POP SWAP1 DUP2 SWAP1 SUB PUSH1 0x20 ADD SWAP1 LOG1 POP POP JUMP JUMPDEST PUSH2 0x12E9 PUSH2 0x1DC9 JUMP JUMPDEST PUSH1 0x1 PUSH1 0x1 PUSH1 0xA0 SHL SUB AND GAS PUSH2 0x12FB PUSH2 0x24FC JUMP JUMPDEST PUSH1 0x1 PUSH1 0x1 PUSH1 0xA0 SHL SUB AND EQ PUSH2 0x1340 JUMPI PUSH1 0x40 MLOAD PUSH3 0x461BCD PUSH1 0xE5 SHL DUP2 MSTORE PUSH1 0x4 ADD DUP1 DUP1 PUSH1 0x20 ADD DUP3 DUP2 SUB DUP3 MSTORE PUSH1 0x3E DUP2 MSTORE PUSH1 0x20 ADD DUP1 PUSH2 0x272A PUSH1 0x3E SWAP2 CODECOPY PUSH1 0x40 ADD SWAP2 POP POP PUSH1 0x40 MLOAD DUP1 SWAP2 SUB SWAP1 REVERT JUMPDEST PUSH2 0x1348 PUSH2 0x255A JUMP JUMPDEST PUSH2 0x1351 DUP3 PUSH2 0x1CD8 JUMP JUMPDEST DUP1 MLOAD SWAP1 SWAP2 POP ISZERO PUSH2 0xAC8 JUMPI PUSH2 0xAC8 DUP3 PUSH2 0x1E0C JUMP JUMPDEST PUSH1 0x1D PUSH2 0x788 PUSH2 0x2402 JUMP JUMPDEST PUSH8 0x1BC16D674EC80000 DUP2 JUMP JUMPDEST PUSH2 0x1382 PUSH2 0x2571 JUMP JUMPDEST PUSH1 0x0 JUMPDEST PUSH1 0x4 DUP1 PUSH2 0x1390 PUSH2 0x2402 JUMP JUMPDEST SWAP1 POP DUP2 LT ISZERO PUSH2 0x13D8 JUMPI PUSH1 0x4 DUP2 DUP2 PUSH2 0x13A5 PUSH2 0x2402 JUMP JUMPDEST DUP2 LT PUSH2 0x13AD JUMPI INVALID JUMPDEST SWAP1 PUSH1 0x0 MSTORE PUSH1 0x20 PUSH1 0x0 KECCAK256 ADD PUSH2 0x13BF PUSH2 0x2402 JUMP JUMPDEST DUP3 DUP3 PUSH1 0x18 DUP2 LT PUSH2 0x13CB JUMPI INVALID JUMPDEST PUSH1 0x20 MUL ADD MSTORE PUSH1 0x1 ADD PUSH2 0x1385 JUMP JUMPDEST POP SWAP1 JUMP JUMPDEST PUSH3 0xA69CB PUSH1 0xEB SHL PUSH2 0x13EB PUSH2 0x1F82 JUMP JUMPDEST PUSH1 0x1 PUSH1 0x1 PUSH1 0xA0 SHL SUB AND PUSH3 0x9919C0 DUP3 PUSH1 0x40 MLOAD DUP3 PUSH4 0xFFFFFFFF AND PUSH1 0xE0 SHL DUP2 MSTORE PUSH1 0x4 ADD DUP1 DUP3 DUP2 MSTORE PUSH1 0x20 ADD SWAP2 POP POP PUSH1 0x20 PUSH1 0x40 MLOAD DUP1 DUP4 SUB DUP2 DUP7 DUP1 PUSH2 0x1428 PUSH2 0x243B JUMP JUMPDEST ISZERO DUP1 ISZERO PUSH2 0x1434 JUMPI PUSH1 0x0 DUP1 REVERT JUMPDEST POP GAS PUSH2 0x143E PUSH2 0x246D JUMP JUMPDEST POP POP POP POP POP ISZERO DUP1 ISZERO PUSH2 0x1454 JUMPI RETURNDATASIZE PUSH1 0x0 DUP1 RETURNDATACOPY RETURNDATASIZE PUSH1 0x0 REVERT JUMPDEST POP POP POP POP PUSH1 0x40 MLOAD RETURNDATASIZE PUSH1 0x20 DUP2 LT ISZERO PUSH2 0x146A JUMPI PUSH1 0x0 DUP1 REVERT JUMPDEST POP MLOAD ISZERO PUSH2 0x14BA JUMPI PUSH1 0x40 DUP1 MLOAD PUSH3 0x461BCD PUSH1 0xE5 SHL DUP2 MSTORE PUSH1 0x20 PUSH1 0x4 DUP3 ADD MSTORE PUSH1 0x19 PUSH1 0x24 DUP3 ADD MSTORE PUSH25 0xA4C2E8CA40E6E8C2D8CA40DEE440DCDEE840C240E6F2DCE8D PUSH1 0x3B SHL PUSH1 0x44 DUP3 ADD MSTORE SWAP1 MLOAD SWAP1 DUP2 SWAP1 SUB PUSH1 0x64 ADD SWAP1 REVERT JUMPDEST PUSH2 0x14C2 PUSH2 0x1FD3 JUMP JUMPDEST PUSH1 0x1 PUSH1 0x1 PUSH1 0xA0 SHL SUB AND PUSH4 0x86DABD1 PUSH1 0x40 MLOAD DUP2 PUSH4 0xFFFFFFFF AND PUSH1 0xE0 SHL DUP2 MSTORE PUSH1 0x4 ADD PUSH1 0x0 PUSH1 0x40 MLOAD DUP1 DUP4 SUB DUP2 DUP7 DUP1 PUSH2 0x14F5 PUSH2 0x243B JUMP JUMPDEST ISZERO DUP1 ISZERO PUSH2 0x1501 JUMPI PUSH1 0x0 DUP1 REVERT JUMPDEST POP GAS PUSH2 0x150B PUSH2 0x246D JUMP JUMPDEST POP POP POP POP POP ISZERO DUP1 ISZERO PUSH2 0x1521 JUMPI RETURNDATASIZE PUSH1 0x0 DUP1 RETURNDATACOPY RETURNDATASIZE PUSH1 0x0 REVERT JUMPDEST POP POP POP POP PUSH2 0x152D PUSH2 0x255A JUMP JUMPDEST PUSH2 0x1536 DUP4 PUSH2 0x1CD8 JUMP JUMPDEST DUP1 MLOAD SWAP1 SWAP2 POP PUSH2 0x158C JUMPI PUSH1 0x40 DUP1 MLOAD PUSH3 0x461BCD PUSH1 0xE5 SHL DUP2 MSTORE PUSH1 0x20 PUSH1 0x4 DUP3 ADD MSTORE PUSH1 0x1E PUSH1 0x24 DUP3 ADD MSTORE PUSH32 0x4163636F756E7420686173206E6F206C69717569646174696F6E207365740000 PUSH1 0x44 DUP3 ADD MSTORE SWAP1 MLOAD SWAP1 DUP2 SWAP1 SUB PUSH1 0x64 ADD SWAP1 REVERT JUMPDEST PUSH1 0x0 PUSH2 0x1596 PUSH2 0x2023 JUMP JUMPDEST PUSH1 0x1 PUSH1 0x1 PUSH1 0xA0 SHL SUB AND PUSH4 0xA311C7C2 DUP6 PUSH1 0x40 MLOAD DUP3 PUSH4 0xFFFFFFFF AND PUSH1 0xE0 SHL DUP2 MSTORE PUSH1 0x4 ADD DUP1 DUP3 PUSH1 0x1 PUSH1 0x1 PUSH1 0xA0 SHL SUB AND PUSH1 0x1 PUSH1 0x1 PUSH1 0xA0 SHL SUB AND DUP2 MSTORE PUSH1 0x20 ADD SWAP2 POP POP PUSH1 0x20 PUSH1 0x40 MLOAD DUP1 DUP4 SUB DUP2 DUP7 DUP1 PUSH2 0x15E6 PUSH2 0x243B JUMP JUMPDEST ISZERO DUP1 ISZERO PUSH2 0x15F2 JUMPI PUSH1 0x0 DUP1 REVERT JUMPDEST POP GAS PUSH2 0x15FC PUSH2 0x246D JUMP JUMPDEST POP POP POP POP POP ISZERO DUP1 ISZERO PUSH2 0x1612 JUMPI RETURNDATASIZE PUSH1 0x0 DUP1 RETURNDATACOPY RETURNDATASIZE PUSH1 0x0 REVERT JUMPDEST POP POP POP POP PUSH1 0x40 MLOAD RETURNDATASIZE PUSH1 0x20 DUP2 LT ISZERO PUSH2 0x1628 JUMPI PUSH1 0x0 DUP1 REVERT JUMPDEST POP MLOAD SWAP1 POP PUSH2 0x1634 PUSH2 0x1B74 JUMP JUMPDEST PUSH1 0x1 PUSH1 0x1 PUSH1 0xA0 SHL SUB AND PUSH4 0xB410A034 PUSH1 0x40 MLOAD DUP2 PUSH4 0xFFFFFFFF AND PUSH1 0xE0 SHL DUP2 MSTORE PUSH1 0x4 ADD PUSH1 0x20 PUSH1 0x40 MLOAD DUP1 DUP4 SUB DUP2 DUP7 DUP1 PUSH2 0x1667 PUSH2 0x243B JUMP JUMPDEST ISZERO DUP1 ISZERO PUSH2 0x1673 JUMPI PUSH1 0x0 DUP1 REVERT JUMPDEST POP GAS PUSH2 0x167D PUSH2 0x246D JUMP JUMPDEST POP POP POP POP POP ISZERO DUP1 ISZERO PUSH2 0x1693 JUMPI RETURNDATASIZE PUSH1 0x0 DUP1 RETURNDATACOPY RETURNDATASIZE PUSH1 0x0 REVERT JUMPDEST POP POP POP POP PUSH1 0x40 MLOAD RETURNDATASIZE PUSH1 0x20 DUP2 LT ISZERO PUSH2 0x16A9 JUMPI PUSH1 0x0 DUP1 REVERT JUMPDEST POP MLOAD DUP2 GT PUSH2 0x16BA JUMPI PUSH2 0x16BA DUP5 PUSH2 0x1E0C JUMP JUMPDEST POP POP POP POP JUMP JUMPDEST PUSH3 0x15180 DUP2 JUMP JUMPDEST PUSH8 0xDE0B6B3A7640000 DUP2 JUMP JUMPDEST PUSH1 0x0 DUP1 PUSH2 0x16DE PUSH2 0x2023 JUMP JUMPDEST PUSH1 0x1 PUSH1 0x1 PUSH1 0xA0 SHL SUB AND PUSH4 0xA311C7C2 DUP5 PUSH1 0x40 MLOAD DUP3 PUSH4 0xFFFFFFFF AND PUSH1 0xE0 SHL DUP2 MSTORE PUSH1 0x4 ADD DUP1 DUP3 PUSH1 0x1 PUSH1 0x1 PUSH1 0xA0 SHL SUB AND PUSH1 0x1 PUSH1 0x1 PUSH1 0xA0 SHL SUB AND DUP2 MSTORE PUSH1 0x20 ADD SWAP2 POP POP PUSH1 0x20 PUSH1 0x40 MLOAD DUP1 DUP4 SUB DUP2 DUP7 DUP1 PUSH2 0x172E PUSH2 0x243B JUMP JUMPDEST ISZERO DUP1 ISZERO PUSH2 0x173A JUMPI PUSH1 0x0 DUP1 REVERT JUMPDEST POP GAS PUSH2 0x1744 PUSH2 0x246D JUMP JUMPDEST POP POP POP POP POP ISZERO DUP1 ISZERO PUSH2 0x175A JUMPI RETURNDATASIZE PUSH1 0x0 DUP1 RETURNDATACOPY RETURNDATASIZE PUSH1 0x0 REVERT JUMPDEST POP POP POP POP PUSH1 0x40 MLOAD RETURNDATASIZE PUSH1 0x20 DUP2 LT ISZERO PUSH2 0x1770 JUMPI PUSH1 0x0 DUP1 REVERT JUMPDEST POP MLOAD SWAP1 POP PUSH2 0x177C PUSH2 0x1B74 JUMP JUMPDEST PUSH1 0x1 PUSH1 0x1 PUSH1 0xA0 SHL SUB AND PUSH4 0xB410A034 PUSH1 0x40 MLOAD DUP2 PUSH4 0xFFFFFFFF AND PUSH1 0xE0 SHL DUP2 MSTORE PUSH1 0x4 ADD PUSH1 0x20 PUSH1 0x40 MLOAD DUP1 DUP4 SUB DUP2 DUP7 DUP1 PUSH2 0x17AF PUSH2 0x243B JUMP JUMPDEST ISZERO DUP1 ISZERO PUSH2 0x17BB JUMPI PUSH1 0x0 DUP1 REVERT JUMPDEST POP GAS PUSH2 0x17C5 PUSH2 0x246D JUMP JUMPDEST POP POP POP POP POP ISZERO DUP1 ISZERO PUSH2 0x17DB JUMPI RETURNDATASIZE PUSH1 0x0 DUP1 RETURNDATACOPY RETURNDATASIZE PUSH1 0x0 REVERT JUMPDEST POP POP POP POP PUSH1 0x40 MLOAD RETURNDATASIZE PUSH1 0x20 DUP2 LT ISZERO PUSH2 0x17F1 JUMPI PUSH1 0x0 DUP1 REVERT JUMPDEST POP MLOAD DUP2 GT PUSH2 0x1803 JUMPI PUSH1 0x0 SWAP2 POP POP PUSH2 0x8BA JUMP JUMPDEST PUSH2 0x180B PUSH2 0x255A JUMP JUMPDEST PUSH2 0x1814 DUP5 PUSH2 0x1CD8 JUMP JUMPDEST SWAP1 POP PUSH2 0x1823 DUP2 PUSH1 0x0 ADD MLOAD PUSH2 0x1D97 JUMP JUMPDEST ISZERO PUSH2 0x1833 JUMPI PUSH1 0x1 SWAP3 POP POP POP PUSH2 0x8BA JUMP JUMPDEST POP PUSH1 0x0 SWAP4 SWAP3 POP POP POP JUMP JUMPDEST PUSH1 0x4 DUP2 DUP2 PUSH2 0x1849 PUSH2 0x2402 JUMP JUMPDEST DUP2 LT PUSH2 0x1851 JUMPI INVALID JUMPDEST PUSH1 0x0 SWAP2 DUP3 MSTORE PUSH1 0x20 SWAP1 SWAP2 KECCAK256 ADD SWAP1 POP PUSH2 0x788 PUSH2 0x2402 JUMP JUMPDEST PUSH3 0xA69CB PUSH1 0xEB SHL PUSH2 0x1875 PUSH2 0x1F82 JUMP JUMPDEST PUSH1 0x1 PUSH1 0x1 PUSH1 0xA0 SHL SUB AND PUSH3 0x9919C0 DUP3 PUSH1 0x40 MLOAD DUP3 PUSH4 0xFFFFFFFF AND PUSH1 0xE0 SHL DUP2 MSTORE PUSH1 0x4 ADD DUP1 DUP3 DUP2 MSTORE PUSH1 0x20 ADD SWAP2 POP POP PUSH1 0x20 PUSH1 0x40 MLOAD DUP1 DUP4 SUB DUP2 DUP7 DUP1 PUSH2 0x18B2 PUSH2 0x243B JUMP JUMPDEST ISZERO DUP1 ISZERO PUSH2 0x18BE JUMPI PUSH1 0x0 DUP1 REVERT JUMPDEST POP GAS PUSH2 0x18C8 PUSH2 0x246D JUMP JUMPDEST POP POP POP POP POP ISZERO DUP1 ISZERO PUSH2 0x18DE JUMPI RETURNDATASIZE PUSH1 0x0 DUP1 RETURNDATACOPY RETURNDATASIZE PUSH1 0x0 REVERT JUMPDEST POP POP POP POP PUSH1 0x40 MLOAD RETURNDATASIZE PUSH1 0x20 DUP2 LT ISZERO PUSH2 0x18F4 JUMPI PUSH1 0x0 DUP1 REVERT JUMPDEST POP MLOAD ISZERO PUSH2 0x1944 JUMPI PUSH1 0x40 DUP1 MLOAD PUSH3 0x461BCD PUSH1 0xE5 SHL DUP2 MSTORE PUSH1 0x20 PUSH1 0x4 DUP3 ADD MSTORE PUSH1 0x19 PUSH1 0x24 DUP3 ADD MSTORE PUSH25 0xA4C2E8CA40E6E8C2D8CA40DEE440DCDEE840C240E6F2DCE8D PUSH1 0x3B SHL PUSH1 0x44 DUP3 ADD MSTORE SWAP1 MLOAD SWAP1 DUP2 SWAP1 SUB PUSH1 0x64 ADD SWAP1 REVERT JUMPDEST PUSH2 0x194C PUSH2 0x1FD3 JUMP JUMPDEST PUSH1 0x1 PUSH1 0x1 PUSH1 0xA0 SHL SUB AND PUSH4 0x86DABD1 PUSH1 0x40 MLOAD DUP2 PUSH4 0xFFFFFFFF AND PUSH1 0xE0 SHL DUP2 MSTORE PUSH1 0x4 ADD PUSH1 0x0 PUSH1 0x40 MLOAD DUP1 DUP4 SUB DUP2 DUP7 DUP1 PUSH2 0x197F PUSH2 0x243B JUMP JUMPDEST ISZERO DUP1 ISZERO PUSH2 0x198B JUMPI PUSH1 0x0 DUP1 REVERT JUMPDEST POP GAS PUSH2 0x1995 PUSH2 0x246D JUMP JUMPDEST POP POP POP POP POP ISZERO DUP1 ISZERO PUSH2 0x19AB JUMPI RETURNDATASIZE PUSH1 0x0 DUP1 RETURNDATACOPY RETURNDATASIZE PUSH1 0x0 REVERT JUMPDEST POP POP POP POP PUSH2 0x19B7 PUSH2 0x255A JUMP JUMPDEST PUSH2 0x19C0 DUP4 PUSH2 0x1CD8 JUMP JUMPDEST DUP1 MLOAD SWAP1 SWAP2 POP ISZERO PUSH2 0x1A01 JUMPI PUSH1 0x40 MLOAD PUSH3 0x461BCD PUSH1 0xE5 SHL DUP2 MSTORE PUSH1 0x4 ADD DUP1 DUP1 PUSH1 0x20 ADD DUP3 DUP2 SUB DUP3 MSTORE PUSH1 0x27 DUP2 MSTORE PUSH1 0x20 ADD DUP1 PUSH2 0x2789 PUSH1 0x27 SWAP2 CODECOPY PUSH1 0x40 ADD SWAP2 POP POP PUSH1 0x40 MLOAD DUP1 SWAP2 SUB SWAP1 REVERT JUMPDEST PUSH1 0x0 PUSH2 0x1A0B PUSH2 0x2023 JUMP JUMPDEST PUSH1 0x1 PUSH1 0x1 PUSH1 0xA0 SHL SUB AND PUSH4 0xA311C7C2 DUP6 PUSH1 0x40 MLOAD DUP3 PUSH4 0xFFFFFFFF AND PUSH1 0xE0 SHL DUP2 MSTORE PUSH1 0x4 ADD DUP1 DUP3 PUSH1 0x1 PUSH1 0x1 PUSH1 0xA0 SHL SUB AND PUSH1 0x1 PUSH1 0x1 PUSH1 0xA0 SHL SUB AND DUP2 MSTORE PUSH1 0x20 ADD SWAP2 POP POP PUSH1 0x20 PUSH1 0x40 MLOAD DUP1 DUP4 SUB DUP2 DUP7 DUP1 PUSH2 0x1A5B PUSH2 0x243B JUMP JUMPDEST ISZERO DUP1 ISZERO PUSH2 0x1A67 JUMPI PUSH1 0x0 DUP1 REVERT JUMPDEST POP GAS PUSH2 0x1A71 PUSH2 0x246D JUMP JUMPDEST POP POP POP POP POP ISZERO DUP1 ISZERO PUSH2 0x1A87 JUMPI RETURNDATASIZE PUSH1 0x0 DUP1 RETURNDATACOPY RETURNDATASIZE PUSH1 0x0 REVERT JUMPDEST POP POP POP POP PUSH1 0x40 MLOAD RETURNDATASIZE PUSH1 0x20 DUP2 LT ISZERO PUSH2 0x1A9D JUMPI PUSH1 0x0 DUP1 REVERT JUMPDEST POP MLOAD SWAP1 POP PUSH1 0x1E PUSH2 0x1AAB PUSH2 0x2402 JUMP JUMPDEST DUP2 LT ISZERO PUSH2 0x1AE9 JUMPI PUSH1 0x40 MLOAD PUSH3 0x461BCD PUSH1 0xE5 SHL DUP2 MSTORE PUSH1 0x4 ADD DUP1 DUP1 PUSH1 0x20 ADD DUP3 DUP2 SUB DUP3 MSTORE PUSH1 0x35 DUP2 MSTORE PUSH1 0x20 ADD DUP1 PUSH2 0x268E PUSH1 0x35 SWAP2 CODECOPY PUSH1 0x40 ADD SWAP2 POP POP PUSH1 0x40 MLOAD DUP1 SWAP2 SUB SWAP1 REVERT JUMPDEST PUSH1 0x0 PUSH2 0x1B0D PUSH1 0x1D PUSH2 0x1AF8 PUSH2 0x2402 JUMP JUMPDEST GAS PUSH2 0x1B01 PUSH2 0x2590 JUMP JUMPDEST SWAP1 PUSH4 0xFFFFFFFF PUSH2 0x1C4D AND JUMP JUMPDEST SWAP1 POP PUSH2 0x1B22 DUP6 DUP3 GAS PUSH2 0x1B1D PUSH2 0x24FC JUMP JUMPDEST PUSH2 0x2070 JUMP JUMPDEST PUSH1 0x40 DUP1 MLOAD DUP3 DUP2 MSTORE SWAP1 MLOAD PUSH1 0x1 PUSH1 0x1 PUSH1 0xA0 SHL SUB DUP8 AND SWAP2 PUSH32 0xC77E4625DE0C70ADAF3BD1AABB5F22F9EAE8F565367C706FC209030C13857996 SWAP2 SWAP1 DUP2 SWAP1 SUB PUSH1 0x20 ADD SWAP1 LOG2 POP POP POP POP POP JUMP JUMPDEST PUSH1 0x18 DUP2 JUMP JUMPDEST PUSH3 0x278D00 DUP2 JUMP JUMPDEST PUSH1 0x0 PUSH2 0x104C PUSH14 0x53796E7468657469785374617465 PUSH1 0x90 SHL PUSH1 0x40 MLOAD DUP1 PUSH1 0x40 ADD PUSH1 0x40 MSTORE DUP1 PUSH1 0x1E DUP2 MSTORE PUSH1 0x20 ADD PUSH32 0x4D697373696E672053796E746865746978537461746520616464726573730000 DUP2 MSTORE POP PUSH2 0x21C5 JUMP JUMPDEST PUSH1 0x0 PUSH8 0xDE0B6B3A7640000 PUSH2 0x1BE1 DUP5 DUP5 PUSH4 0xFFFFFFFF PUSH2 0x2285 AND JUMP JUMPDEST DUP2 PUSH2 0x1BE8 JUMPI INVALID JUMPDEST DIV SWAP4 SWAP3 POP POP POP JUMP JUMPDEST PUSH1 0x0 DUP3 DUP3 GT ISZERO PUSH2 0x1C47 JUMPI PUSH1 0x40 DUP1 MLOAD PUSH3 0x461BCD PUSH1 0xE5 SHL DUP2 MSTORE PUSH1 0x20 PUSH1 0x4 DUP3 ADD MSTORE PUSH1 0x1E PUSH1 0x24 DUP3 ADD MSTORE PUSH32 0x536166654D6174683A207375627472616374696F6E206F766572666C6F770000 PUSH1 0x44 DUP3 ADD MSTORE SWAP1 MLOAD SWAP1 DUP2 SWAP1 SUB PUSH1 0x64 ADD SWAP1 REVERT JUMPDEST POP SWAP1 SUB SWAP1 JUMP JUMPDEST PUSH1 0x0 DUP3 DUP3 ADD DUP4 DUP2 LT ISZERO PUSH2 0x1CA7 JUMPI PUSH1 0x40 DUP1 MLOAD PUSH3 0x461BCD PUSH1 0xE5 SHL DUP2 MSTORE PUSH1 0x20 PUSH1 0x4 DUP3 ADD MSTORE PUSH1 0x1B PUSH1 0x24 DUP3 ADD MSTORE PUSH32 0x536166654D6174683A206164646974696F6E206F766572666C6F770000000000 PUSH1 0x44 DUP3 ADD MSTORE SWAP1 MLOAD SWAP1 DUP2 SWAP1 SUB PUSH1 0x64 ADD SWAP1 REVERT JUMPDEST SWAP4 SWAP3 POP POP POP JUMP JUMPDEST PUSH1 0x0 PUSH2 0x1CA7 DUP3 PUSH2 0x1CCC DUP6 PUSH8 0xDE0B6B3A7640000 PUSH4 0xFFFFFFFF PUSH2 0x2285 AND JUMP JUMPDEST SWAP1 PUSH4 0xFFFFFFFF PUSH2 0x22DE AND JUMP JUMPDEST PUSH2 0x1CE0 PUSH2 0x255A JUMP JUMPDEST PUSH2 0x1CE8 PUSH2 0x2348 JUMP JUMPDEST PUSH1 0x1 PUSH1 0x1 PUSH1 0xA0 SHL SUB AND PUSH4 0xBDC963D8 PUSH2 0x1D16 PUSH19 0x4C69717569646174696F6E446561646C696E65 PUSH1 0x68 SHL DUP6 PUSH2 0x238C JUMP JUMPDEST PUSH1 0x40 MLOAD DUP3 PUSH4 0xFFFFFFFF AND PUSH1 0xE0 SHL DUP2 MSTORE PUSH1 0x4 ADD DUP1 DUP3 DUP2 MSTORE PUSH1 0x20 ADD SWAP2 POP POP PUSH1 0x20 PUSH1 0x40 MLOAD DUP1 DUP4 SUB DUP2 DUP7 DUP1 PUSH2 0x1D45 PUSH2 0x243B JUMP JUMPDEST ISZERO DUP1 ISZERO PUSH2 0x1D51 JUMPI PUSH1 0x0 DUP1 REVERT JUMPDEST POP GAS PUSH2 0x1D5B PUSH2 0x246D JUMP JUMPDEST POP POP POP POP POP ISZERO DUP1 ISZERO PUSH2 0x1D71 JUMPI RETURNDATASIZE PUSH1 0x0 DUP1 RETURNDATACOPY RETURNDATASIZE PUSH1 0x0 REVERT JUMPDEST POP POP POP POP PUSH1 0x40 MLOAD RETURNDATASIZE PUSH1 0x20 DUP2 LT ISZERO PUSH2 0x1D87 JUMPI PUSH1 0x0 DUP1 REVERT JUMPDEST POP MLOAD DUP2 MSTORE PUSH1 0x0 PUSH1 0x20 DUP3 ADD MSTORE SWAP2 SWAP1 POP JUMP JUMPDEST PUSH1 0x0 DUP1 DUP3 GT DUP1 ISZERO PUSH2 0x694 JUMPI POP DUP2 GAS PUSH2 0x1DAD PUSH2 0x2590 JUMP JUMPDEST GT SWAP3 SWAP2 POP POP JUMP JUMPDEST PUSH1 0x0 PUSH2 0x1CA7 DUP4 DUP4 PUSH8 0xDE0B6B3A7640000 PUSH2 0x23CB JUMP JUMPDEST PUSH1 0x0 PUSH2 0x104C PUSH6 0x24B9B9BAB2B9 PUSH1 0xD1 SHL PUSH1 0x40 MLOAD DUP1 PUSH1 0x40 ADD PUSH1 0x40 MSTORE DUP1 PUSH1 0x16 DUP2 MSTORE PUSH1 0x20 ADD PUSH22 0x4D697373696E67204973737565722061646472657373 PUSH1 0x50 SHL DUP2 MSTORE POP PUSH2 0x21C5 JUMP JUMPDEST PUSH2 0x1E14 PUSH2 0x2348 JUMP JUMPDEST PUSH1 0x1 PUSH1 0x1 PUSH1 0xA0 SHL SUB AND PUSH4 0x93FE4248 PUSH2 0x1E42 PUSH19 0x4C69717569646174696F6E446561646C696E65 PUSH1 0x68 SHL DUP5 PUSH2 0x238C JUMP JUMPDEST PUSH1 0x40 MLOAD DUP3 PUSH4 0xFFFFFFFF AND PUSH1 0xE0 SHL DUP2 MSTORE PUSH1 0x4 ADD DUP1 DUP3 DUP2 MSTORE PUSH1 0x20 ADD SWAP2 POP POP PUSH1 0x0 PUSH1 0x40 MLOAD DUP1 DUP4 SUB DUP2 PUSH1 0x0 DUP8 DUP1 PUSH2 0x1E73 PUSH2 0x243B JUMP JUMPDEST ISZERO DUP1 ISZERO PUSH2 0x1E7F JUMPI PUSH1 0x0 DUP1 REVERT JUMPDEST POP GAS PUSH2 0x1E89 PUSH2 0x25B5 JUMP JUMPDEST POP POP POP POP POP POP ISZERO DUP1 ISZERO PUSH2 0x1EA0 JUMPI RETURNDATASIZE PUSH1 0x0 DUP1 RETURNDATACOPY RETURNDATASIZE PUSH1 0x0 REVERT JUMPDEST POP POP POP POP PUSH2 0x1EAC PUSH2 0x2348 JUMP JUMPDEST PUSH1 0x1 PUSH1 0x1 PUSH1 0xA0 SHL SUB AND PUSH4 0x43106C0 PUSH2 0x1ED8 PUSH17 0x2634B8BAB4B230BA34B7B721B0B63632B9 PUSH1 0x79 SHL DUP5 PUSH2 0x238C JUMP JUMPDEST PUSH1 0x40 MLOAD DUP3 PUSH4 0xFFFFFFFF AND PUSH1 0xE0 SHL DUP2 MSTORE PUSH1 0x4 ADD DUP1 DUP3 DUP2 MSTORE PUSH1 0x20 ADD SWAP2 POP POP PUSH1 0x0 PUSH1 0x40 MLOAD DUP1 DUP4 SUB DUP2 PUSH1 0x0 DUP8 DUP1 PUSH2 0x1F09 PUSH2 0x243B JUMP JUMPDEST ISZERO DUP1 ISZERO PUSH2 0x1F15 JUMPI PUSH1 0x0 DUP1 REVERT JUMPDEST POP GAS PUSH2 0x1F1F PUSH2 0x25B5 JUMP JUMPDEST POP POP POP POP POP POP ISZERO DUP1 ISZERO PUSH2 0x1F36 JUMPI RETURNDATASIZE PUSH1 0x0 DUP1 RETURNDATACOPY RETURNDATASIZE PUSH1 0x0 REVERT JUMPDEST POP POP POP POP DUP1 PUSH1 0x1 PUSH1 0x1 PUSH1 0xA0 SHL SUB AND PUSH32 0x9B6AC8997B4F2EDD0A27C1BEB32F7C14D522E9C16F46E79DAA5A144016BD6C87 GAS PUSH2 0x1F6E PUSH2 0x2590 JUMP JUMPDEST PUSH1 0x40 DUP1 MLOAD SWAP2 DUP3 MSTORE MLOAD SWAP1 DUP2 SWAP1 SUB PUSH1 0x20 ADD SWAP1 LOG2 POP JUMP JUMPDEST PUSH1 0x0 PUSH2 0x104C PUSH13 0x45786368616E67655261746573 PUSH1 0x98 SHL PUSH1 0x40 MLOAD DUP1 PUSH1 0x40 ADD PUSH1 0x40 MSTORE DUP1 PUSH1 0x1D DUP2 MSTORE PUSH1 0x20 ADD PUSH32 0x4D697373696E672045786368616E676552617465732061646472657373000000 DUP2 MSTORE POP PUSH2 0x21C5 JUMP JUMPDEST PUSH1 0x0 PUSH2 0x104C PUSH12 0x53797374656D537461747573 PUSH1 0xA0 SHL PUSH1 0x40 MLOAD DUP1 PUSH1 0x40 ADD PUSH1 0x40 MSTORE DUP1 PUSH1 0x1C DUP2 MSTORE PUSH1 0x20 ADD PUSH32 0x4D697373696E672053797374656D537461747573206164647265737300000000 DUP2 MSTORE POP PUSH2 0x21C5 JUMP JUMPDEST PUSH1 0x0 PUSH2 0x104C PUSH9 0xA6F2DCE8D0CAE8D2F PUSH1 0xBB SHL PUSH1 0x40 MLOAD DUP1 PUSH1 0x40 ADD PUSH1 0x40 MSTORE DUP1 PUSH1 0x19 DUP2 MSTORE PUSH1 0x20 ADD PUSH32 0x4D697373696E672053796E746865746978206164647265737300000000000000 DUP2 MSTORE POP PUSH2 0x21C5 JUMP JUMPDEST PUSH2 0x2078 PUSH2 0x2348 JUMP JUMPDEST PUSH1 0x1 PUSH1 0x1 PUSH1 0xA0 SHL SUB AND PUSH4 0x3562FD20 PUSH2 0x20A6 PUSH19 0x4C69717569646174696F6E446561646C696E65 PUSH1 0x68 SHL DUP7 PUSH2 0x238C JUMP JUMPDEST DUP5 PUSH1 0x40 MLOAD DUP4 PUSH4 0xFFFFFFFF AND PUSH1 0xE0 SHL DUP2 MSTORE PUSH1 0x4 ADD DUP1 DUP4 DUP2 MSTORE PUSH1 0x20 ADD DUP3 DUP2 MSTORE PUSH1 0x20 ADD SWAP3 POP POP POP PUSH1 0x0 PUSH1 0x40 MLOAD DUP1 DUP4 SUB DUP2 PUSH1 0x0 DUP8 DUP1 PUSH2 0x20DF PUSH2 0x243B JUMP JUMPDEST ISZERO DUP1 ISZERO PUSH2 0x20EB JUMPI PUSH1 0x0 DUP1 REVERT JUMPDEST POP GAS PUSH2 0x20F5 PUSH2 0x25B5 JUMP JUMPDEST POP POP POP POP POP POP ISZERO DUP1 ISZERO PUSH2 0x210C JUMPI RETURNDATASIZE PUSH1 0x0 DUP1 RETURNDATACOPY RETURNDATASIZE PUSH1 0x0 REVERT JUMPDEST POP POP POP POP PUSH2 0x2118 PUSH2 0x2348 JUMP JUMPDEST PUSH1 0x1 PUSH1 0x1 PUSH1 0xA0 SHL SUB AND PUSH4 0x5A2BF25A PUSH2 0x2144 PUSH17 0x2634B8BAB4B230BA34B7B721B0B63632B9 PUSH1 0x79 SHL DUP7 PUSH2 0x238C JUMP JUMPDEST DUP4 PUSH1 0x40 MLOAD DUP4 PUSH4 0xFFFFFFFF AND PUSH1 0xE0 SHL DUP2 MSTORE PUSH1 0x4 ADD DUP1 DUP4 DUP2 MSTORE PUSH1 0x20 ADD DUP3 PUSH1 0x1 PUSH1 0x1 PUSH1 0xA0 SHL SUB AND PUSH1 0x1 PUSH1 0x1 PUSH1 0xA0 SHL SUB AND DUP2 MSTORE PUSH1 0x20 ADD SWAP3 POP POP POP PUSH1 0x0 PUSH1 0x40 MLOAD DUP1 DUP4 SUB DUP2 PUSH1 0x0 DUP8 DUP1 PUSH2 0x218F PUSH2 0x243B JUMP JUMPDEST ISZERO DUP1 ISZERO PUSH2 0x219B JUMPI PUSH1 0x0 DUP1 REVERT JUMPDEST POP GAS PUSH2 0x21A5 PUSH2 0x25B5 JUMP JUMPDEST POP POP POP POP POP POP ISZERO DUP1 ISZERO PUSH2 0x21BC JUMPI RETURNDATASIZE PUSH1 0x0 DUP1 RETURNDATACOPY RETURNDATASIZE PUSH1 0x0 REVERT JUMPDEST POP POP POP POP POP POP POP JUMP JUMPDEST PUSH1 0x0 DUP3 DUP2 MSTORE PUSH1 0x3 PUSH1 0x20 MSTORE PUSH1 0x40 DUP2 KECCAK256 DUP2 SWAP1 DUP2 SWAP1 PUSH2 0x21DF PUSH2 0x2402 JUMP JUMPDEST PUSH1 0x1 PUSH1 0x1 PUSH1 0xA0 SHL SUB PUSH2 0x100 SWAP3 SWAP1 SWAP3 EXP SWAP1 DIV AND SWAP1 POP DUP3 DUP2 PUSH2 0x227D JUMPI PUSH1 0x40 MLOAD PUSH3 0x461BCD PUSH1 0xE5 SHL DUP2 MSTORE PUSH1 0x4 ADD DUP1 DUP1 PUSH1 0x20 ADD DUP3 DUP2 SUB DUP3 MSTORE DUP4 DUP2 DUP2 MLOAD DUP2 MSTORE PUSH1 0x20 ADD SWAP2 POP DUP1 MLOAD SWAP1 PUSH1 0x20 ADD SWAP1 DUP1 DUP4 DUP4 PUSH1 0x0 JUMPDEST DUP4 DUP2 LT ISZERO PUSH2 0x2242 JUMPI DUP2 DUP2 ADD MLOAD DUP4 DUP3 ADD MSTORE PUSH1 0x20 ADD PUSH2 0x222A JUMP JUMPDEST POP POP POP POP SWAP1 POP SWAP1 DUP2 ADD SWAP1 PUSH1 0x1F AND DUP1 ISZERO PUSH2 0x226F JUMPI DUP1 DUP3 SUB DUP1 MLOAD PUSH1 0x1 DUP4 PUSH1 0x20 SUB PUSH2 0x100 EXP SUB NOT AND DUP2 MSTORE PUSH1 0x20 ADD SWAP2 POP JUMPDEST POP SWAP3 POP POP POP PUSH1 0x40 MLOAD DUP1 SWAP2 SUB SWAP1 REVERT JUMPDEST POP SWAP4 SWAP3 POP POP POP JUMP JUMPDEST PUSH1 0x0 DUP3 PUSH2 0x2294 JUMPI POP PUSH1 0x0 PUSH2 0x694 JUMP JUMPDEST DUP3 DUP3 MUL DUP3 DUP5 DUP3 DUP2 PUSH2 0x22A1 JUMPI INVALID JUMPDEST DIV EQ PUSH2 0x1CA7 JUMPI PUSH1 0x40 MLOAD PUSH3 0x461BCD PUSH1 0xE5 SHL DUP2 MSTORE PUSH1 0x4 ADD DUP1 DUP1 PUSH1 0x20 ADD DUP3 DUP2 SUB DUP3 MSTORE PUSH1 0x21 DUP2 MSTORE PUSH1 0x20 ADD DUP1 PUSH2 0x2768 PUSH1 0x21 SWAP2 CODECOPY PUSH1 0x40 ADD SWAP2 POP POP PUSH1 0x40 MLOAD DUP1 SWAP2 SUB SWAP1 REVERT JUMPDEST PUSH1 0x0 DUP1 DUP3 GT PUSH2 0x2334 JUMPI PUSH1 0x40 DUP1 MLOAD PUSH3 0x461BCD PUSH1 0xE5 SHL DUP2 MSTORE PUSH1 0x20 PUSH1 0x4 DUP3 ADD MSTORE PUSH1 0x1A PUSH1 0x24 DUP3 ADD MSTORE PUSH32 0x536166654D6174683A206469766973696F6E206279207A65726F000000000000 PUSH1 0x44 DUP3 ADD MSTORE SWAP1 MLOAD SWAP1 DUP2 SWAP1 SUB PUSH1 0x64 ADD SWAP1 REVERT JUMPDEST PUSH1 0x0 DUP3 DUP5 DUP2 PUSH2 0x233F JUMPI INVALID JUMPDEST DIV SWAP5 SWAP4 POP POP POP POP JUMP JUMPDEST PUSH1 0x0 PUSH2 0x104C PUSH32 0x457465726E616C53746F726167654C69717569646174696F6E73000000000000 PUSH1 0x40 MLOAD DUP1 PUSH1 0x60 ADD PUSH1 0x40 MSTORE DUP1 PUSH1 0x2A DUP2 MSTORE PUSH1 0x20 ADD PUSH2 0x2664 PUSH1 0x2A SWAP2 CODECOPY PUSH2 0x21C5 JUMP JUMPDEST PUSH1 0x40 DUP1 MLOAD PUSH1 0x20 DUP1 DUP3 ADD SWAP5 SWAP1 SWAP5 MSTORE PUSH1 0x60 SWAP3 SWAP1 SWAP3 SHL PUSH12 0xFFFFFFFFFFFFFFFFFFFFFFFF NOT AND DUP3 DUP3 ADD MSTORE DUP1 MLOAD DUP1 DUP4 SUB PUSH1 0x34 ADD DUP2 MSTORE PUSH1 0x54 SWAP1 SWAP3 ADD SWAP1 MSTORE DUP1 MLOAD SWAP2 ADD KECCAK256 SWAP1 JUMP JUMPDEST PUSH1 0x0 DUP1 PUSH2 0x23E5 DUP5 PUSH2 0x1CCC DUP8 PUSH1 0xA DUP8 MUL PUSH4 0xFFFFFFFF PUSH2 0x2285 AND JUMP JUMPDEST SWAP1 POP PUSH1 0x5 PUSH1 0xA DUP3 MOD LT PUSH2 0x23F6 JUMPI PUSH1 0xA ADD JUMPDEST PUSH1 0xA SWAP1 DIV SWAP5 SWAP4 POP POP POP POP JUMP JUMPDEST PUSH4 0x412CC41 PUSH1 0xE3 SHL PUSH3 0x80000 SWAP1 DUP2 MSTORE PUSH3 0x80004 DUP4 SWAP1 MSTORE PUSH4 0x20966208 SWAP1 PUSH1 0x20 DUP2 PUSH1 0x24 DUP2 CALLER PUSH1 0x0 SWAP1 GAS CALL DUP1 PUSH2 0x2434 JUMPI PUSH1 0x0 DUP1 REVERT JUMPDEST POP MLOAD SWAP3 POP POP JUMP JUMPDEST PUSH4 0xC3382D0F PUSH1 0xE0 SHL PUSH3 0x80000 SWAP1 DUP2 MSTORE PUSH3 0x80004 DUP4 SWAP1 MSTORE PUSH4 0xC3382D0F SWAP1 PUSH1 0x20 DUP2 PUSH1 0x24 DUP2 CALLER PUSH1 0x0 SWAP1 GAS CALL DUP1 PUSH2 0x2434 JUMPI PUSH1 0x0 DUP1 REVERT JUMPDEST PUSH4 0xFBB0F79D PUSH1 0xE0 SHL PUSH3 0x80000 SWAP1 DUP2 MSTORE PUSH3 0x80004 DUP5 SWAP1 MSTORE PUSH4 0xFBB0F79D SWAP1 PUSH1 0x0 JUMPDEST DUP8 DUP2 LT ISZERO PUSH2 0x24A7 JUMPI DUP7 DUP2 ADD MLOAD DUP3 DUP3 ADD PUSH1 0x24 ADD MSTORE PUSH1 0x20 ADD PUSH2 0x248C JUMP JUMPDEST POP DUP9 DUP9 DUP9 PUSH1 0x24 ADD DUP4 CALLER PUSH1 0x0 SWAP1 GAS CALL DUP1 PUSH2 0x24BF JUMPI PUSH1 0x0 DUP1 REVERT JUMPDEST SWAP9 POP POP POP JUMP JUMPDEST PUSH4 0x45E97DDB PUSH1 0xE0 SHL PUSH3 0x80000 SWAP1 DUP2 MSTORE PUSH3 0x80004 DUP5 SWAP1 MSTORE PUSH4 0x45E97DDB SWAP1 PUSH1 0x0 DUP8 ISZERO PUSH2 0x24A7 JUMPI DUP7 DUP2 ADD MLOAD DUP3 DUP3 ADD PUSH1 0x24 ADD MSTORE PUSH1 0x20 ADD PUSH2 0x248C JUMP JUMPDEST PUSH4 0x73509064 PUSH3 0x80000 DUP2 PUSH1 0xE0 SHL DUP2 MSTORE PUSH1 0x20 DUP2 PUSH1 0x4 DUP4 CALLER PUSH1 0x0 SWAP1 GAS CALL DUP1 PUSH2 0x2434 JUMPI PUSH1 0x0 DUP1 REVERT JUMPDEST PUSH4 0x146E595 PUSH1 0xE5 SHL PUSH3 0x80000 SWAP1 DUP2 MSTORE PUSH3 0x80004 DUP4 SWAP1 MSTORE PUSH3 0x80024 DUP5 SWAP1 MSTORE PUSH4 0x28DCB2A0 SWAP1 PUSH1 0x0 DUP2 PUSH1 0x44 DUP2 CALLER PUSH1 0x0 SWAP1 GAS CALL DUP1 PUSH2 0xF8E JUMPI PUSH1 0x0 DUP1 REVERT JUMPDEST PUSH1 0x40 DUP1 MLOAD DUP1 DUP3 ADD SWAP1 SWAP2 MSTORE PUSH1 0x0 DUP1 DUP3 MSTORE PUSH1 0x20 DUP3 ADD MSTORE SWAP1 JUMP JUMPDEST PUSH1 0x40 MLOAD DUP1 PUSH2 0x300 ADD PUSH1 0x40 MSTORE DUP1 PUSH1 0x18 SWAP1 PUSH1 0x20 DUP3 MUL DUP1 CODESIZE DUP4 CODECOPY POP SWAP2 SWAP3 SWAP2 POP POP JUMP JUMPDEST PUSH4 0xBDBF8C36 PUSH3 0x80000 DUP2 PUSH1 0xE0 SHL DUP2 MSTORE PUSH1 0x20 DUP2 PUSH1 0x4 DUP4 CALLER PUSH1 0x0 SWAP1 GAS CALL DUP1 PUSH2 0x2434 JUMPI PUSH1 0x0 DUP1 REVERT JUMPDEST PUSH4 0x131B5F21 PUSH1 0xE2 SHL PUSH3 0x80000 SWAP1 DUP2 MSTORE PUSH3 0x80004 DUP5 SWAP1 MSTORE PUSH4 0x4C6D7C84 SWAP1 PUSH1 0x0 JUMPDEST DUP9 DUP2 LT ISZERO PUSH2 0x25EF JUMPI DUP8 DUP2 ADD MLOAD DUP3 DUP3 ADD PUSH1 0x24 ADD MSTORE PUSH1 0x20 ADD PUSH2 0x25D4 JUMP JUMPDEST POP DUP10 DUP10 DUP10 PUSH1 0x24 ADD DUP4 CALLER PUSH1 0x0 SWAP1 GAS CALL DUP1 PUSH2 0x2607 JUMPI PUSH1 0x0 DUP1 REVERT JUMPDEST SWAP10 POP POP POP JUMP INVALID PUSH17 0x656E616C7479203E204D41585F4C495155 0x49 DIFFICULTY COINBASE SLOAD 0x49 0x4F 0x4E 0x5F POP GASLIMIT 0x4E COINBASE 0x4C SLOAD MSIZE MSIZE PUSH16 0x75206D757374206265206E6F6D696E61 PUSH21 0x6564206265666F726520796F752063616E20616363 PUSH6 0x7074206F776E PUSH6 0x72736869704D PUSH10 0x7373696E672045746572 PUSH15 0x616C53746F726167654C6971756964 PUSH2 0x7469 PUSH16 0x6E7320616464726573734163636F756E PUSH21 0x2069737375616E636520726174696F206973206C65 PUSH20 0x73207468616E206C69717569646174696F6E2072 PUSH2 0x7469 PUSH16 0x6C69717569646174696F6E526174696F KECCAK256 RETURNDATACOPY KECCAK256 0x4D COINBASE PC 0x5F 0x4C 0x49 MLOAD SSTORE 0x49 DIFFICULTY COINBASE SLOAD 0x49 0x4F 0x4E 0x5F MSTORE COINBASE SLOAD 0x49 0x4F KECCAK256 0x2F KECCAK256 0x28 BALANCE KECCAK256 0x2B KECCAK256 PUSH17 0x656E616C7479294F6E6C79207468652063 PUSH16 0x6E7472616374206F776E6572206D6179 KECCAK256 PUSH17 0x6572666F726D207468697320616374696F PUSH15 0x4C69717569646174696F6E733A204F PUSH15 0x6C7920746865204973737565722063 PUSH16 0x6E74726163742063616E20706572666F PUSH19 0x6D207468697320616374696F6E536166654D61 PUSH21 0x683A206D756C7469706C69636174696F6E206F7665 PUSH19 0x666C6F774163636F756E7420616C7265616479 KECCAK256 PUSH7 0x6C616767656420 PUSH7 0x6F72206C697175 PUSH10 0x646174696F6E6C697175 PUSH10 0x646174696F6E52617469 PUSH16 0x203C204D494E5F4C4951554944415449 0x4F 0x4E 0x5F MSTORE COINBASE SLOAD 0x49 0x4F "
		}
	}
}