{
	"abi": [
		{
			"inputs": [
				{
					"internalType": "address payable",
					"name": "_proxy",
					"type": "address"
				},
				{
					"internalType": "contract TokenState",
					"name": "_tokenState",
					"type": "address"
				},
				{
					"internalType": "string",
					"name": "_tokenName",
					"type": "string"
				},
				{
					"internalType": "string",
					"name": "_tokenSymbol",
					"type": "string"
				},
				{
					"internalType": "address",
					"name": "_owner",
					"type": "address"
				},
				{
					"internalType": "bytes32",
					"name": "_currencyKey",
					"type": "bytes32"
				},
				{
					"internalType": "uint256",
					"name": "_totalSupply",
					"type": "uint256"
				},
				{
					"internalType": "address",
					"name": "_resolver",
					"type": "address"
				},
				{
					"internalType": "bytes32",
					"name": "_multiCollateralKey",
					"type": "bytes32"
				}
			],
			"payable": false,
			"stateMutability": "nonpayable",
			"type": "constructor"
		},
		{
			"anonymous": false,
			"inputs": [
				{
					"indexed": true,
					"internalType": "address",
					"name": "owner",
					"type": "address"
				},
				{
					"indexed": true,
					"internalType": "address",
					"name": "spender",
					"type": "address"
				},
				{
					"indexed": false,
					"internalType": "uint256",
					"name": "value",
					"type": "uint256"
				}
			],
			"name": "Approval",
			"type": "event"
		},
		{
			"anonymous": false,
			"inputs": [
				{
					"indexed": true,
					"internalType": "address",
					"name": "account",
					"type": "address"
				},
				{
					"indexed": false,
					"internalType": "uint256",
					"name": "value",
					"type": "uint256"
				}
			],
			"name": "Burned",
			"type": "event"
		},
		{
			"anonymous": false,
			"inputs": [
				{
					"indexed": true,
					"internalType": "address",
					"name": "account",
					"type": "address"
				},
				{
					"indexed": false,
					"internalType": "uint256",
					"name": "value",
					"type": "uint256"
				}
			],
			"name": "Issued",
			"type": "event"
		},
		{
			"anonymous": false,
			"inputs": [
				{
					"indexed": false,
					"internalType": "address",
					"name": "oldOwner",
					"type": "address"
				},
				{
					"indexed": false,
					"internalType": "address",
					"name": "newOwner",
					"type": "address"
				}
			],
			"name": "OwnerChanged",
			"type": "event"
		},
		{
			"anonymous": false,
			"inputs": [
				{
					"indexed": false,
					"internalType": "address",
					"name": "newOwner",
					"type": "address"
				}
			],
			"name": "OwnerNominated",
			"type": "event"
		},
		{
			"anonymous": false,
			"inputs": [
				{
					"indexed": false,
					"internalType": "address",
					"name": "proxyAddress",
					"type": "address"
				}
			],
			"name": "ProxyUpdated",
			"type": "event"
		},
		{
			"anonymous": false,
			"inputs": [
				{
					"indexed": false,
					"internalType": "address",
					"name": "newBeneficiary",
					"type": "address"
				}
			],
			"name": "SelfDestructBeneficiaryUpdated",
			"type": "event"
		},
		{
			"anonymous": false,
			"inputs": [
				{
					"indexed": false,
					"internalType": "uint256",
					"name": "selfDestructDelay",
					"type": "uint256"
				}
			],
			"name": "SelfDestructInitiated",
			"type": "event"
		},
		{
			"anonymous": false,
			"inputs": [],
			"name": "SelfDestructTerminated",
			"type": "event"
		},
		{
			"anonymous": false,
			"inputs": [
				{
					"indexed": false,
					"internalType": "address",
					"name": "beneficiary",
					"type": "address"
				}
			],
			"name": "SelfDestructed",
			"type": "event"
		},
		{
			"anonymous": false,
			"inputs": [
				{
					"indexed": false,
					"internalType": "address",
					"name": "newTokenState",
					"type": "address"
				}
			],
			"name": "TokenStateUpdated",
			"type": "event"
		},
		{
			"anonymous": false,
			"inputs": [
				{
					"indexed": true,
					"internalType": "address",
					"name": "from",
					"type": "address"
				},
				{
					"indexed": true,
					"internalType": "address",
					"name": "to",
					"type": "address"
				},
				{
					"indexed": false,
					"internalType": "uint256",
					"name": "value",
					"type": "uint256"
				}
			],
			"name": "Transfer",
			"type": "event"
		},
		{
			"constant": true,
			"inputs": [],
			"name": "DECIMALS",
			"outputs": [
				{
					"internalType": "uint8",
					"name": "",
					"type": "uint8"
				}
			],
			"payable": false,
			"stateMutability": "view",
			"type": "function"
		},
		{
			"constant": true,
			"inputs": [],
			"name": "FEE_ADDRESS",
			"outputs": [
				{
					"internalType": "address",
					"name": "",
					"type": "address"
				}
			],
			"payable": false,
			"stateMutability": "view",
			"type": "function"
		},
		{
			"constant": true,
			"inputs": [],
			"name": "MAX_ADDRESSES_FROM_RESOLVER",
			"outputs": [
				{
					"internalType": "uint256",
					"name": "",
					"type": "uint256"
				}
			],
			"payable": false,
			"stateMutability": "view",
			"type": "function"
		},
		{
			"constant": true,
			"inputs": [],
			"name": "SELFDESTRUCT_DELAY",
			"outputs": [
				{
					"internalType": "uint256",
					"name": "",
					"type": "uint256"
				}
			],
			"payable": false,
			"stateMutability": "view",
			"type": "function"
		},
		{
			"constant": false,
			"inputs": [],
			"name": "acceptOwnership",
			"outputs": [],
			"payable": false,
			"stateMutability": "nonpayable",
			"type": "function"
		},
		{
			"constant": true,
			"inputs": [
				{
					"internalType": "address",
					"name": "owner",
					"type": "address"
				},
				{
					"internalType": "address",
					"name": "spender",
					"type": "address"
				}
			],
			"name": "allowance",
			"outputs": [
				{
					"internalType": "uint256",
					"name": "",
					"type": "uint256"
				}
			],
			"payable": false,
			"stateMutability": "view",
			"type": "function"
		},
		{
			"constant": false,
			"inputs": [
				{
					"internalType": "address",
					"name": "spender",
					"type": "address"
				},
				{
					"internalType": "uint256",
					"name": "value",
					"type": "uint256"
				}
			],
			"name": "approve",
			"outputs": [
				{
					"internalType": "bool",
					"name": "",
					"type": "bool"
				}
			],
			"payable": false,
			"stateMutability": "nonpayable",
			"type": "function"
		},
		{
			"constant": true,
			"inputs": [
				{
					"internalType": "address",
					"name": "account",
					"type": "address"
				}
			],
			"name": "balanceOf",
			"outputs": [
				{
					"internalType": "uint256",
					"name": "",
					"type": "uint256"
				}
			],
			"payable": false,
			"stateMutability": "view",
			"type": "function"
		},
		{
			"constant": false,
			"inputs": [
				{
					"internalType": "address",
					"name": "account",
					"type": "address"
				},
				{
					"internalType": "uint256",
					"name": "amount",
					"type": "uint256"
				}
			],
			"name": "burn",
			"outputs": [],
			"payable": false,
			"stateMutability": "nonpayable",
			"type": "function"
		},
		{
			"constant": true,
			"inputs": [],
			"name": "currencyKey",
			"outputs": [
				{
					"internalType": "bytes32",
					"name": "",
					"type": "bytes32"
				}
			],
			"payable": false,
			"stateMutability": "view",
			"type": "function"
		},
		{
			"constant": true,
			"inputs": [],
			"name": "decimals",
			"outputs": [
				{
					"internalType": "uint8",
					"name": "",
					"type": "uint8"
				}
			],
			"payable": false,
			"stateMutability": "view",
			"type": "function"
		},
		{
			"constant": true,
			"inputs": [],
			"name": "getResolverAddressesRequired",
			"outputs": [
				{
					"internalType": "bytes32[24]",
					"name": "addressesRequired",
					"type": "bytes32[24]"
				}
			],
			"payable": false,
			"stateMutability": "view",
			"type": "function"
		},
		{
			"constant": false,
			"inputs": [],
			"name": "initiateSelfDestruct",
			"outputs": [],
			"payable": false,
			"stateMutability": "nonpayable",
			"type": "function"
		},
		{
			"constant": true,
			"inputs": [],
			"name": "initiationTime",
			"outputs": [
				{
					"internalType": "uint256",
					"name": "",
					"type": "uint256"
				}
			],
			"payable": false,
			"stateMutability": "view",
			"type": "function"
		},
		{
			"constant": true,
			"inputs": [],
			"name": "integrationProxy",
			"outputs": [
				{
					"internalType": "contract Proxy",
					"name": "",
					"type": "address"
				}
			],
			"payable": false,
			"stateMutability": "view",
			"type": "function"
		},
		{
			"constant": true,
			"inputs": [
				{
					"internalType": "contract AddressResolver",
					"name": "_resolver",
					"type": "address"
				}
			],
			"name": "isResolverCached",
			"outputs": [
				{
					"internalType": "bool",
					"name": "",
					"type": "bool"
				}
			],
			"payable": false,
			"stateMutability": "view",
			"type": "function"
		},
		{
			"constant": false,
			"inputs": [
				{
					"internalType": "address",
					"name": "account",
					"type": "address"
				},
				{
					"internalType": "uint256",
					"name": "amount",
					"type": "uint256"
				}
			],
			"name": "issue",
			"outputs": [],
			"payable": false,
			"stateMutability": "nonpayable",
			"type": "function"
		},
		{
			"constant": true,
			"inputs": [],
			"name": "messageSender",
			"outputs": [
				{
					"internalType": "address",
					"name": "",
					"type": "address"
				}
			],
			"payable": false,
			"stateMutability": "view",
			"type": "function"
		},
		{
			"constant": true,
			"inputs": [],
			"name": "multiCollateralKey",
			"outputs": [
				{
					"internalType": "bytes32",
					"name": "",
					"type": "bytes32"
				}
			],
			"payable": false,
			"stateMutability": "view",
			"type": "function"
		},
		{
			"constant": true,
			"inputs": [],
			"name": "name",
			"outputs": [
				{
					"internalType": "string",
					"name": "",
					"type": "string"
				}
			],
			"payable": false,
			"stateMutability": "view",
			"type": "function"
		},
		{
			"constant": false,
			"inputs": [
				{
					"internalType": "address",
					"name": "_owner",
					"type": "address"
				}
			],
			"name": "nominateNewOwner",
			"outputs": [],
			"payable": false,
			"stateMutability": "nonpayable",
			"type": "function"
		},
		{
			"constant": true,
			"inputs": [],
			"name": "nominatedOwner",
			"outputs": [
				{
					"internalType": "address",
					"name": "",
					"type": "address"
				}
			],
			"payable": false,
			"stateMutability": "view",
			"type": "function"
		},
		{
			"constant": true,
			"inputs": [],
			"name": "owner",
			"outputs": [
				{
					"internalType": "address",
					"name": "",
					"type": "address"
				}
			],
			"payable": false,
			"stateMutability": "view",
			"type": "function"
		},
		{
			"constant": true,
			"inputs": [],
			"name": "proxy",
			"outputs": [
				{
					"internalType": "contract Proxy",
					"name": "",
					"type": "address"
				}
			],
			"payable": false,
			"stateMutability": "view",
			"type": "function"
		},
		{
			"constant": true,
			"inputs": [],
			"name": "resolver",
			"outputs": [
				{
					"internalType": "contract AddressResolver",
					"name": "",
					"type": "address"
				}
			],
			"payable": false,
			"stateMutability": "view",
			"type": "function"
		},
		{
			"constant": true,
			"inputs": [
				{
					"internalType": "uint256",
					"name": "",
					"type": "uint256"
				}
			],
			"name": "resolverAddressesRequired",
			"outputs": [
				{
					"internalType": "bytes32",
					"name": "",
					"type": "bytes32"
				}
			],
			"payable": false,
			"stateMutability": "view",
			"type": "function"
		},
		{
			"constant": false,
			"inputs": [],
			"name": "selfDestruct",
			"outputs": [],
			"payable": false,
			"stateMutability": "nonpayable",
			"type": "function"
		},
		{
			"constant": true,
			"inputs": [],
			"name": "selfDestructBeneficiary",
			"outputs": [
				{
					"internalType": "address",
					"name": "",
					"type": "address"
				}
			],
			"payable": false,
			"stateMutability": "view",
			"type": "function"
		},
		{
			"constant": true,
			"inputs": [],
			"name": "selfDestructInitiated",
			"outputs": [
				{
					"internalType": "bool",
					"name": "",
					"type": "bool"
				}
			],
			"payable": false,
			"stateMutability": "view",
			"type": "function"
		},
		{
			"constant": false,
			"inputs": [
				{
					"internalType": "address payable",
					"name": "_integrationProxy",
					"type": "address"
				}
			],
			"name": "setIntegrationProxy",
			"outputs": [],
			"payable": false,
			"stateMutability": "nonpayable",
			"type": "function"
		},
		{
			"constant": false,
			"inputs": [
				{
					"internalType": "address",
					"name": "sender",
					"type": "address"
				}
			],
			"name": "setMessageSender",
			"outputs": [],
			"payable": false,
			"stateMutability": "nonpayable",
			"type": "function"
		},
		{
			"constant": false,
			"inputs": [
				{
					"internalType": "address payable",
					"name": "_proxy",
					"type": "address"
				}
			],
			"name": "setProxy",
			"outputs": [],
			"payable": false,
			"stateMutability": "nonpayable",
			"type": "function"
		},
		{
			"constant": false,
			"inputs": [
				{
					"internalType": "contract AddressResolver",
					"name": "_resolver",
					"type": "address"
				}
			],
			"name": "setResolverAndSyncCache",
			"outputs": [],
			"payable": false,
			"stateMutability": "nonpayable",
			"type": "function"
		},
		{
			"constant": false,
			"inputs": [
				{
					"internalType": "address payable",
					"name": "_beneficiary",
					"type": "address"
				}
			],
			"name": "setSelfDestructBeneficiary",
			"outputs": [],
			"payable": false,
			"stateMutability": "nonpayable",
			"type": "function"
		},
		{
			"constant": false,
			"inputs": [
				{
					"internalType": "contract TokenState",
					"name": "_tokenState",
					"type": "address"
				}
			],
			"name": "setTokenState",
			"outputs": [],
			"payable": false,
			"stateMutability": "nonpayable",
			"type": "function"
		},
		{
			"constant": false,
			"inputs": [
				{
					"internalType": "uint256",
					"name": "amount",
					"type": "uint256"
				}
			],
			"name": "setTotalSupply",
			"outputs": [],
			"payable": false,
			"stateMutability": "nonpayable",
			"type": "function"
		},
		{
			"constant": true,
			"inputs": [],
			"name": "symbol",
			"outputs": [
				{
					"internalType": "string",
					"name": "",
					"type": "string"
				}
			],
			"payable": false,
			"stateMutability": "view",
			"type": "function"
		},
		{
			"constant": false,
			"inputs": [],
			"name": "terminateSelfDestruct",
			"outputs": [],
			"payable": false,
			"stateMutability": "nonpayable",
			"type": "function"
		},
		{
			"constant": true,
			"inputs": [],
			"name": "tokenState",
			"outputs": [
				{
					"internalType": "contract TokenState",
					"name": "",
					"type": "address"
				}
			],
			"payable": false,
			"stateMutability": "view",
			"type": "function"
		},
		{
			"constant": true,
			"inputs": [],
			"name": "totalSupply",
			"outputs": [
				{
					"internalType": "uint256",
					"name": "",
					"type": "uint256"
				}
			],
			"payable": false,
			"stateMutability": "view",
			"type": "function"
		},
		{
			"constant": false,
			"inputs": [
				{
					"internalType": "address",
					"name": "to",
					"type": "address"
				},
				{
					"internalType": "uint256",
					"name": "value",
					"type": "uint256"
				}
			],
			"name": "transfer",
			"outputs": [
				{
					"internalType": "bool",
					"name": "",
					"type": "bool"
				}
			],
			"payable": false,
			"stateMutability": "nonpayable",
			"type": "function"
		},
		{
			"constant": false,
			"inputs": [
				{
					"internalType": "address",
					"name": "to",
					"type": "address"
				},
				{
					"internalType": "uint256",
					"name": "value",
					"type": "uint256"
				}
			],
			"name": "transferAndSettle",
			"outputs": [
				{
					"internalType": "bool",
					"name": "",
					"type": "bool"
				}
			],
			"payable": false,
			"stateMutability": "nonpayable",
			"type": "function"
		},
		{
			"constant": false,
			"inputs": [
				{
					"internalType": "address",
					"name": "from",
					"type": "address"
				},
				{
					"internalType": "address",
					"name": "to",
					"type": "address"
				},
				{
					"internalType": "uint256",
					"name": "value",
					"type": "uint256"
				}
			],
			"name": "transferFrom",
			"outputs": [
				{
					"internalType": "bool",
					"name": "",
					"type": "bool"
				}
			],
			"payable": false,
			"stateMutability": "nonpayable",
			"type": "function"
		},
		{
			"constant": false,
			"inputs": [
				{
					"internalType": "address",
					"name": "from",
					"type": "address"
				},
				{
					"internalType": "address",
					"name": "to",
					"type": "address"
				},
				{
					"internalType": "uint256",
					"name": "value",
					"type": "uint256"
				}
			],
			"name": "transferFromAndSettle",
			"outputs": [
				{
					"internalType": "bool",
					"name": "",
					"type": "bool"
				}
			],
			"payable": false,
			"stateMutability": "nonpayable",
			"type": "function"
		},
		{
			"constant": true,
			"inputs": [
				{
					"internalType": "address",
					"name": "account",
					"type": "address"
				}
			],
			"name": "transferableSynths",
			"outputs": [
				{
					"internalType": "uint256",
					"name": "",
					"type": "uint256"
				}
			],
			"payable": false,
			"stateMutability": "view",
			"type": "function"
		}
	],
	"evm": {
		"bytecode": {
			"linkReferences": {},
			"object": "6101006040526b53797374656d53746174757360a01b60809081526822bc31b430b733b2b960b91b60a0526524b9b9bab2b960d11b60c05266119959541bdbdb60ca1b60e0526200005590600f906004620009d0565b503480156200006357600080fd5b5060405162004d7438038062004d7483398181016040526101208110156200008a57600080fd5b81516020830151604080850180519151939592948301929184640100000000821115620000b657600080fd5b908301906020820185811115620000cc57600080fd5b8251640100000000811182820188101715620000e757600080fd5b82525081516020918201929091019080838360005b8381101562000116578181015183820152602001620000fc565b50505050905090810190601f168015620001445780820380516001836020036101000a031916815260200191505b50604052602001805160405193929190846401000000008211156200016857600080fd5b9083019060208201858111156200017e57600080fd5b82516401000000008111828201881017156200019957600080fd5b82525081516020918201929091019080838360005b83811015620001c8578181015183820152602001620001ae565b50505050905090810190601f168015620001f65780820380516001836020036101000a031916815260200191505b5060408181526020830151838201516060850151608086015160a090960151610300860190945291965094509291899089908990899089908990899089908190600f60188282826020028201915b816200024f62000a1e565b8152602001906001019080831162000244575050505050898989898760128b868160006001600160a01b0316816001600160a01b03161415620002d9576040805162461bcd60e51b815260206004820152601960248201527f4f776e657220616464726573732063616e6e6f74206265203000000000000000604482015290519081900360640190fd5b806000600181620002e962000a1e565b816001600160a01b0302191690836001600160a01b03160217906200030d62000a58565b505060408051600081526001600160a01b038416602082015281517fb532073b38c83145e3e5135377a08bf9aab55bc0fd7c1179cd4fb995d2a5159c93509081900390910190a150600080806200036362000a1e565b906101000a90046001600160a01b03166001600160a01b03161415620003c4576040805162461bcd60e51b815260206004820152601160248201527013dddb995c881b5d5cdd081899481cd95d607a1b604482015290519081900360640190fd5b600080620003d162000a1e565b906101000a90046001600160a01b0316600360016101000a81620003f462000a1e565b816001600160a01b0302191690836001600160a01b03160217906200041862000a58565b5050507fd5da63a0b864b315bc04128dedbc93888c8529ee6cf47ce664dc204339228c53600080906200044a62000a1e565b604080516101009390930a9091046001600160a01b03168252516020918190039190910190a1600080806200047e62000a1e565b906101000a90046001600160a01b03166001600160a01b03161415620004df576040805162461bcd60e51b815260206004820152601160248201527013dddb995c881b5d5cdd081899481cd95d607a1b604482015290519081900360640190fd5b806004600181620004ef62000a1e565b816001600160a01b0302191690836001600160a01b03160217906200051362000a58565b5050604080516001600160a01b038416815290517ffc80377ca9c49cc11ae6982f390a42db976d5530af7c43889264b13fbbd7c57e92509081900360200190a1508560076001816200056462000a1e565b816001600160a01b0302191690836001600160a01b03160217906200058862000a58565b50508551620005a09150600890602088019062000a97565b508351620005b690600990602087019062000a97565b508280600a620005c562000a58565b50505081600b60006101000a81620005dc62000a1e565b8160ff021916908360ff16021790620005f462000a58565b5050505050505050505060006001600160a01b0316600080906200061762000a1e565b906101000a90046001600160a01b03166001600160a01b0316141562000678576040805162461bcd60e51b815260206004820152601160248201527013dddb995c881b5d5cdd081899481cd95d607a1b604482015290519081900360640190fd5b60005b6018811015620007085760008282601881106200069457fe5b602002015114620006f957600d828260188110620006ae57fe5b60200201519080600181620006c262000a1e565b018082620006cf62000a58565b5050600092835260209092209192918301600019019050620006f062000a58565b505050620006ff565b62000708565b6001016200067b565b5081600b610100816200071a62000a1e565b816001600160a01b0302191690836001600160a01b03160217906200073e62000a58565b50505050506001600160a01b03881662000794576040805162461bcd60e51b815260206004820152601260248201527105f70726f78792063616e6e6f7420626520360741b604482015290519081900360640190fd5b6001600160a01b038416620007e5576040805162461bcd60e51b815260206004820152601260248201527105f6f776e65722063616e6e6f7420626520360741b604482015290519081900360640190fd5b8280600e620007f362000a58565b505050505050505050505080602781906200080d62000a58565b5050506200082f60276200082062000a1e565b6001600160e01b036200083e16565b50505050505050505062000c27565b80600d806001816200084f62000a1e565b0180826200085c62000a58565b50506000928352602090922091929183016000190190506200087d62000a58565b5050506018600d806200088f62000a1e565b905010620008e4576040805162461bcd60e51b815260206004820152601b60248201527f4d6178207265736f6c7665722063616368652073697a65206d65740000000000604482015290519081900360640190fd5b6001600b620008f262000a1e565b906101000a90046001600160a01b03166001600160a01b03166321f8a721826040518263ffffffff1660e01b81526004018082815260200191505060206040518083038186806200094262000b42565b1580156200094f57600080fd5b505a6200095b62000b75565b505050505015801562000972573d6000803e3d6000fd5b505050506040513d60208110156200098957600080fd5b50516000828152600c60205260409020600181620009a662000a1e565b816001600160a01b0302191690836001600160a01b0316021790620009ca62000a58565b50505050565b826018810192821562000a0c579160200282015b8281111562000a0c57825182620009fa62000a58565b505091602001919060010190620009e4565b5062000a1a92915062000bd0565b5090565b630412cc4160e31b6208000090815262080004839052632096620890602081602481336000905af18062000a5157600080fd5b5051925050565b630146e59560e51b6208000090815262080004839052620800248490526328dcb2a090600081604481336000905af18062000a9257600080fd5b505050565b828062000aa362000a1e565b600181600116156101000203166002900490600052602060002090601f016020900481019282601f1062000aee57805160ff1916838001178562000ae662000a58565b505062000b34565b8280016001018562000aff62000a58565b5050821562000b34579182015b8281111562000b345782518262000b2262000a58565b50509160200191906001019062000b0c565b5062000a1a92915062000bfd565b63c3382d0f60e01b620800009081526208000483905263c3382d0f90602081602481336000905af18062000a5157600080fd5b63fbb0f79d60e01b620800009081526208000484905263fbb0f79d9060005b8781101562000bb157868101518282016024015260200162000b94565b5088888860240183336000905af18062000bca57600080fd5b98505050565b62000bfa91905b8082111562000a1a576000808262000bee62000a58565b50505060010162000bd7565b90565b62000bfa91905b8082111562000a1a576000808262000c1b62000a58565b50505060010162000c04565b61413d8062000c376000396000f3fe608060405234801561001057600080fd5b506004361061027f5760003560e01c80639cbdaeb61161015c578063c6c9d828116100ce578063e90dd9e211610087578063e90dd9e21461071d578063eb1edd6114610725578063ec5568891461072d578063f7ea7a3d14610735578063fd92ae7714610752578063ffff51d61461075a5761027f565b8063c6c9d82814610684578063d67bdd25146106a1578063dbd06c85146106a9578063dd62ed3e146106b1578063e3235c91146106df578063e73cced3146106e75761027f565b8063ab49848c11610120578063ab49848c146105d9578063b014c3a31461061a578063b8225dec14610646578063bc67f8321461064e578063bd32aa4414610674578063c58aaae61461067c5761027f565b80639cbdaeb61461054b5780639dc29fac146105535780639f7698071461057f578063a461fc82146105a5578063a9059cbb146105ad5761027f565b80633278c960116101f557806379ba5097116101b957806379ba5097146104d9578063867904b4146104e15780638da5cb5b1461050d57806395d89b411461051557806397107d6d1461051d5780639cb8a26a146105435761027f565b80633278c960146104575780633be99e6f1461045f57806353a47bb714610485578063631e14441461048d57806370a08231146104b35761027f565b806317c70de41161024757806317c70de4146103b357806318160ddd146103cd57806320714f88146103d557806323b872dd146103fb5780632e0f262514610431578063313ce5671461044f5761027f565b806304f3bcec1461028457806306fdde03146102a8578063095ea7b314610325578063131b0ae7146103655780631627540c1461038d575b600080fd5b61028c610780565b604080516001600160a01b039092168252519081900360200190f35b6102b061079f565b6040805160208082528351818301528351919283929083019185019080838360005b838110156102ea5781810151838201526020016102d2565b50505050905090810190601f1680156103175780820380516001836020036101000a031916815260200191505b509250505060405180910390f35b6103516004803603604081101561033b57600080fd5b506001600160a01b038135169060200135610859565b604080519115158252519081900360200190f35b61038b6004803603602081101561037b57600080fd5b50356001600160a01b0316610a27565b005b61038b600480360360208110156103a357600080fd5b50356001600160a01b0316610acf565b6103bb610bb3565b60408051918252519081900360200190f35b6103bb610bc0565b61038b600480360360208110156103eb57600080fd5b50356001600160a01b0316610bca565b6103516004803603606081101561041157600080fd5b506001600160a01b03813581169160208101359091169060400135610d0b565b610439610e25565b6040805160ff9092168252519081900360200190f35b610439610e2a565b61038b610e43565b61038b6004803603602081101561047557600080fd5b50356001600160a01b0316610f1b565b61028c611129565b610351600480360360208110156104a357600080fd5b50356001600160a01b0316611135565b6103bb600480360360208110156104c957600080fd5b50356001600160a01b03166112e4565b61038b61139b565b61038b600480360360408110156104f757600080fd5b506001600160a01b038135169060200135611510565b61028c611616565b6102b0611621565b61038b6004803603602081101561053357600080fd5b50356001600160a01b03166116c4565b61038b6117a9565b61028c611941565b61038b6004803603604081101561056957600080fd5b506001600160a01b03813516906020013561194d565b61038b6004803603602081101561059557600080fd5b50356001600160a01b0316611a54565b6103bb611c19565b610351600480360360408110156105c357600080fd5b506001600160a01b038135169060200135611c20565b6105e1611dd8565b604051808261030080838360005b838110156106075781810151838201526020016105ef565b5050505090500191505060405180910390f35b6103516004803603604081101561063057600080fd5b506001600160a01b038135169060200135611e3a565b610351612117565b61038b6004803603602081101561066457600080fd5b50356001600160a01b0316612123565b61038b6121f9565b61028c6122e6565b6103bb6004803603602081101561069a57600080fd5b50356122f2565b61028c61231b565b6103bb612327565b6103bb600480360360408110156106c757600080fd5b506001600160a01b0381358116916020013516612331565b6103bb6123de565b610351600480360360608110156106fd57600080fd5b506001600160a01b038135811691602081013590911690604001356123e3565b61028c612678565b61028c612684565b61028c61269c565b61038b6004803603602081101561074b57600080fd5b50356126a8565b6103bb61283a565b6103bb6004803603602081101561077057600080fd5b50356001600160a01b0316612844565b6001600b61078c613e16565b906101000a90046001600160a01b031681565b6008806107aa613e16565b600181600116156101000203166002900480601f016020809104026020016040519081016040528092919081815260200182806107e5613e16565b600181600116156101000203166002900480156108515780601f1061081f576101008083610811613e16565b040283529160200191610851565b820191906000526020600020905b81610836613e16565b8152906001019060200180831161082d57829003601f168201915b505050505081565b6000806004610866613e16565b906101000a90046001600160a01b03166001600160a01b03165a610888613e4f565b6001600160a01b0316141580156108d45750600060056108a6613e16565b906101000a90046001600160a01b03166001600160a01b03165a6108c8613e4f565b6001600160a01b031614155b801561091557505a6108e4613e4f565b6001600160a01b0316600060066108f9613e16565b906101000a90046001600160a01b03166001600160a01b031614155b15610956575a610923613e4f565b6006600181610930613e16565b816001600160a01b0302191690836001600160a01b0316021790610952613e74565b5050505b6000806006610963613e16565b906101000a90046001600160a01b031690506007600090610982613e16565b60408051633691826360e21b81526001600160a01b03858116600483015288811660248301526044820188905291516101009490940a909204169163da46098c9160648082019260009290919082900301818387806109df613ead565b1580156109eb57600080fd5b505a6109f5613edf565b505050505050158015610a0c573d6000803e3d6000fd5b50505050610a1b8185856129d5565b60019150505b92915050565b600080610a32613e16565b906101000a90046001600160a01b03166001600160a01b03165a610a54613e4f565b6001600160a01b031614610a995760405162461bcd60e51b815260040180806020018281038252602f8152602001806140a7602f913960400191505060405180910390fd5b806005600181610aa7613e16565b816001600160a01b0302191690836001600160a01b0316021790610ac9613e74565b50505050565b600080610ada613e16565b906101000a90046001600160a01b03166001600160a01b03165a610afc613e4f565b6001600160a01b031614610b415760405162461bcd60e51b815260040180806020018281038252602f8152602001806140a7602f913960400191505060405180910390fd5b8060018080610b4e613e16565b816001600160a01b0302191690836001600160a01b0316021790610b70613e74565b5050604080516001600160a01b038416815290517f906a1c6bd7e3091ea86693dd029a831c19049ce77f1dce2ce0bab1cacbabce2292509081900360200190a150565b6002610bbd613e16565b81565b600a610bbd613e16565b600080610bd5613e16565b906101000a90046001600160a01b03166001600160a01b03165a610bf7613e4f565b6001600160a01b031614610c3c5760405162461bcd60e51b815260040180806020018281038252602f8152602001806140a7602f913960400191505060405180910390fd5b6001600160a01b038116610c97576040805162461bcd60e51b815260206004820152601c60248201527f42656e6566696369617279206d757374206e6f74206265207a65726f00000000604482015290519081900360640190fd5b80600361010081610ca6613e16565b816001600160a01b0302191690836001600160a01b0316021790610cc8613e74565b5050604080516001600160a01b038416815290517fd5da63a0b864b315bc04128dedbc93888c8529ee6cf47ce664dc204339228c5392509081900360200190a150565b6000806004610d18613e16565b906101000a90046001600160a01b03166001600160a01b03165a610d3a613e4f565b6001600160a01b031614158015610d86575060006005610d58613e16565b906101000a90046001600160a01b03166001600160a01b03165a610d7a613e4f565b6001600160a01b031614155b8015610dc757505a610d96613e4f565b6001600160a01b031660006006610dab613e16565b906101000a90046001600160a01b03166001600160a01b031614155b15610e08575a610dd5613e4f565b6006600181610de2613e16565b816001600160a01b0302191690836001600160a01b0316021790610e04613e74565b5050505b610e128483612b34565b610e1d848484612cdf565b949350505050565b601281565b6000600b610e36613e16565b906101000a900460ff1681565b600080610e4e613e16565b906101000a90046001600160a01b03166001600160a01b03165a610e70613e4f565b6001600160a01b031614610eb55760405162461bcd60e51b815260040180806020018281038252602f8152602001806140a7602f913960400191505060405180910390fd5b6000806002610ec2613e74565b5050506000600360006101000a81610ed8613e16565b8160ff02191690831515021790610eed613e74565b50506040517f6adcc7125002935e0aa31697538ebbd65cfddf20431eb6ecdcfc3e238bfd082c9150600090a1565b600080610f26613e16565b906101000a90046001600160a01b03166001600160a01b03165a610f48613e4f565b6001600160a01b031614610f8d5760405162461bcd60e51b815260040180806020018281038252602f8152602001806140a7602f913960400191505060405180910390fd5b80600b61010081610f9c613e16565b816001600160a01b0302191690836001600160a01b0316021790610fbe613e74565b5060009150505b600d80610fd0613e16565b9050811015611125576000600d8281610fe7613e16565b8110610fef57fe5b90600052602060002001611001613e16565b90506001600b61100f613e16565b906101000a90046001600160a01b03166001600160a01b031663dacb2d01826040518263ffffffff1660e01b81526004018082815260200180602001828103825260178152602001807f5265736f6c766572206d697373696e6720746172676574000000000000000000815250602001925050506020604051808303818680611096613ead565b1580156110a257600080fd5b505a6110ac613f37565b50505050501580156110c2573d6000803e3d6000fd5b505050506040513d60208110156110d857600080fd5b50516000828152600c602052604090206001816110f3613e16565b816001600160a01b0302191690836001600160a01b0316021790611115613e74565b505060019092019150610fc59050565b5050565b6000600161078c613e16565b60006001600160a01b0382166001600b61114d613e16565b906101000a90046001600160a01b03166001600160a01b031614611173575060006112df565b60005b600d80611181613e16565b90508110156112d9576000600d8281611198613e16565b81106111a057fe5b906000526020600020016111b2613e16565b6000818152600c60205260408120919250906111cc613e16565b6001600160a01b036101009290920a9004166001600b6111ea613e16565b906101000a90046001600160a01b03166001600160a01b03166321f8a721836040518263ffffffff1660e01b8152600401808281526020019150506020604051808303818680611238613ead565b15801561124457600080fd5b505a61124e613f37565b5050505050158015611264573d6000803e3d6000fd5b505050506040513d602081101561127a57600080fd5b50516001600160a01b03161415806112c057506000818152600c6020526040812081906112a5613e16565b906101000a90046001600160a01b03166001600160a01b0316145b156112d0576000925050506112df565b50600101611176565b50600190505b919050565b60008060076112f1613e16565b906101000a90046001600160a01b03166001600160a01b03166370a08231836040518263ffffffff1660e01b815260040180826001600160a01b03166001600160a01b031681526020019150506020604051808303818680611351613ead565b15801561135d57600080fd5b505a611367613f37565b505050505015801561137d573d6000803e3d6000fd5b505050506040513d602081101561139357600080fd5b505192915050565b600060016113a7613e16565b906101000a90046001600160a01b03166001600160a01b03165a6113c9613e4f565b6001600160a01b03161461140e5760405162461bcd60e51b8152600401808060200182810382526035815260200180613fd46035913960400191505060405180910390fd5b7fb532073b38c83145e3e5135377a08bf9aab55bc0fd7c1179cd4fb995d2a5159c60008061143a613e16565b906101000a90046001600160a01b03166001600090611457613e16565b604080516001600160a01b0394851681526101009390930a909104909216602082015281519081900390910190a160006001611491613e16565b906101000a90046001600160a01b03166000806101000a816114b1613e16565b816001600160a01b0302191690836001600160a01b03160217906114d3613e74565b5050506000600160006101000a816114e9613e16565b816001600160a01b0302191690836001600160a01b031602179061150b613e74565b505050565b600061151a612f95565b6001600160a01b03165a61152c613e4f565b6001600160a01b03161490506000611542612fe5565b6001600160a01b03165a611554613e4f565b6001600160a01b0316149050600061156a613032565b6001600160a01b03165a61157c613e4f565b6001600160a01b03161490506000611592613075565b6001600160a01b03165a6115a4613e4f565b6001600160a01b031614905083806115b95750825b806115c15750815b806115c95750805b6116045760405162461bcd60e51b81526004018080602001828103825260448152602001806140386044913960600191505060405180910390fd5b61160e86866130a2565b505050505050565b60008061078c613e16565b60098061162c613e16565b600181600116156101000203166002900480601f01602080910402602001604051908101604052809291908181526020018280611667613e16565b600181600116156101000203166002900480156108515780601f10611693576101008083610811613e16565b820191906000526020600020905b816116aa613e16565b815290600101906020018083116116a15750859350505050565b6000806116cf613e16565b906101000a90046001600160a01b03166001600160a01b03165a6116f1613e4f565b6001600160a01b0316146117365760405162461bcd60e51b815260040180806020018281038252602f8152602001806140a7602f913960400191505060405180910390fd5b806004600181611744613e16565b816001600160a01b0302191690836001600160a01b0316021790611766613e74565b5050604080516001600160a01b038416815290517ffc80377ca9c49cc11ae6982f390a42db976d5530af7c43889264b13fbbd7c57e92509081900360200190a150565b6000806117b4613e16565b906101000a90046001600160a01b03166001600160a01b03165a6117d6613e4f565b6001600160a01b03161461181b5760405162461bcd60e51b815260040180806020018281038252602f8152602001806140a7602f913960400191505060405180910390fd5b60006003611827613e16565b906101000a900460ff16611882576040805162461bcd60e51b815260206004820152601f60248201527f53656c66204465737472756374206e6f742079657420696e6974696174656400604482015290519081900360640190fd5b5a61188b613f8f565b6224ea006002611899613e16565b01106118ec576040805162461bcd60e51b815260206004820152601b60248201527f53656c662064657374727563742064656c6179206e6f74206d65740000000000604482015290519081900360640190fd5b7f8a09e1677ced846cb537dc2b172043bd05a1a81ad7e0033a7ef8ba762df990b760016003611919613e16565b604080516101009390930a9091046001600160a01b03168252516020918190039190910190a1565b6000600561078c613e16565b6000611957612f95565b6001600160a01b03165a611969613e4f565b6001600160a01b0316149050600061197f612fe5565b6001600160a01b03165a611991613e4f565b6001600160a01b031614905060006119a7613032565b6001600160a01b03165a6119b9613e4f565b6001600160a01b031614905060006119cf613075565b6001600160a01b03165a6119e1613e4f565b6001600160a01b031614905083806119f65750825b806119fe5750815b80611a065750805b611a415760405162461bcd60e51b81526004018080602001828103825260448152602001806140386044913960600191505060405180910390fd5b611a4b868661323f565b50505050505050565b60006004611a60613e16565b906101000a90046001600160a01b03166001600160a01b03165a611a82613e4f565b6001600160a01b031614158015611ace575060006005611aa0613e16565b906101000a90046001600160a01b03166001600160a01b03165a611ac2613e4f565b6001600160a01b031614155b8015611b0f57505a611ade613e4f565b6001600160a01b031660006006611af3613e16565b906101000a90046001600160a01b03166001600160a01b031614155b15611b50575a611b1d613e4f565b6006600181611b2a613e16565b816001600160a01b0302191690836001600160a01b0316021790611b4c613e74565b5050505b600080611b5b613e16565b6001600160a01b036101009290920a90041660006006611b79613e16565b906101000a90046001600160a01b03166001600160a01b031614611bda576040805162461bcd60e51b815260206004820152601360248201527227bbb732b91037b7363c90333ab731ba34b7b760691b604482015290519081900360640190fd5b806007600181611be8613e16565b816001600160a01b0302191690836001600160a01b0316021790611c0a613e74565b505050611c1681613396565b50565b6224ea0081565b6000806004611c2d613e16565b906101000a90046001600160a01b03166001600160a01b03165a611c4f613e4f565b6001600160a01b031614158015611c9b575060006005611c6d613e16565b906101000a90046001600160a01b03166001600160a01b03165a611c8f613e4f565b6001600160a01b031614155b8015611cdc57505a611cab613e4f565b6001600160a01b031660006006611cc0613e16565b906101000a90046001600160a01b03166001600160a01b031614155b15611d1d575a611cea613e4f565b6006600181611cf7613e16565b816001600160a01b0302191690836001600160a01b0316021790611d19613e74565b5050505b611d4260006006611d2c613e16565b906101000a90046001600160a01b031683612b34565b6001600160a01b03831673feefeefeefeefeefeefeefeefeefeefeefeefeef1415611d7857611d718383613501565b9050610a21565b6001600160a01b038316611dab57611d7160006006611d95613e16565b906101000a90046001600160a01b03168361323f565b611dd160006006611dba613e16565b906101000a90046001600160a01b031684846136c9565b9392505050565b611de0613fb4565b60005b600d80611dee613e16565b9050811015611e3657600d8181611e03613e16565b8110611e0b57fe5b90600052602060002001611e1d613e16565b828260188110611e2957fe5b6020020152600101611de3565b5090565b6000806004611e47613e16565b906101000a90046001600160a01b03166001600160a01b03165a611e69613e4f565b6001600160a01b031614158015611eb5575060006005611e87613e16565b906101000a90046001600160a01b03166001600160a01b03165a611ea9613e4f565b6001600160a01b031614155b8015611ef657505a611ec5613e4f565b6001600160a01b031660006006611eda613e16565b906101000a90046001600160a01b03166001600160a01b031614155b15611f37575a611f04613e4f565b6006600181611f11613e16565b816001600160a01b0302191690836001600160a01b0316021790611f33613e74565b5050505b6000611f41612fe5565b6001600160a01b0316631b16802c60006006611f5b613e16565b906101000a90046001600160a01b0316600e611f75613e16565b6040518363ffffffff1660e01b815260040180836001600160a01b03166001600160a01b031681526020018281526020019250505060606040518083038160008780611fbf613ead565b158015611fcb57600080fd5b505a611fd5613edf565b505050505050158015611fec573d6000803e3d6000fd5b505050506040513d606081101561200257600080fd5b506040015190508281156120d7576000600761201c613e16565b6001600160a01b036101009290920a9004166370a082316000600661203f613e16565b906101000a90046001600160a01b03166040518263ffffffff1660e01b815260040180826001600160a01b03166001600160a01b031681526020019150506020604051808303818680612090613ead565b15801561209c57600080fd5b505a6120a6613f37565b50505050501580156120bc573d6000803e3d6000fd5b505050506040513d60208110156120d257600080fd5b505190505b8084116120e457836120e6565b805b935061210e600060066120f7613e16565b906101000a90046001600160a01b031686866136c9565b95945050505050565b60006003610e36613e16565b6000600461212f613e16565b906101000a90046001600160a01b03166001600160a01b03165a612151613e4f565b6001600160a01b0316148061219a57506000600561216d613e16565b906101000a90046001600160a01b03166001600160a01b03165a61218f613e4f565b6001600160a01b0316145b6121eb576040805162461bcd60e51b815260206004820152601760248201527f4f6e6c79207468652070726f78792063616e2063616c6c000000000000000000604482015290519081900360640190fd5b806006600181610aa7613e16565b600080612204613e16565b906101000a90046001600160a01b03166001600160a01b03165a612226613e4f565b6001600160a01b03161461226b5760405162461bcd60e51b815260040180806020018281038252602f8152602001806140a7602f913960400191505060405180910390fd5b5a612274613f8f565b80600261227f613e74565b5050506001600360006101000a81612295613e16565b8160ff021916908315150217906122aa613e74565b5050604080516224ea00815290517fcbd94ca75b8dc45c9d80c77e851670e78843c0d75180cb81db3e2158228fa9a692509081900360200190a1565b6001600361078c613e16565b600d81816122fe613e16565b811061230657fe5b60009182526020909120019050610bbd613e16565b6000600661078c613e16565b600e610bbd613e16565b600080600761233e613e16565b60408051636eb1769f60e11b81526001600160a01b038781166004830152868116602483015291516101009490940a909204169163dd62ed3e9160448082019260209290919082900301818680612393613ead565b15801561239f57600080fd5b505a6123a9613f37565b50505050501580156123bf573d6000803e3d6000fd5b505050506040513d60208110156123d557600080fd5b50519392505050565b601881565b60008060046123f0613e16565b906101000a90046001600160a01b03166001600160a01b03165a612412613e4f565b6001600160a01b03161415801561245e575060006005612430613e16565b906101000a90046001600160a01b03166001600160a01b03165a612452613e4f565b6001600160a01b031614155b801561249f57505a61246e613e4f565b6001600160a01b031660006006612483613e16565b906101000a90046001600160a01b03166001600160a01b031614155b156124e0575a6124ad613e4f565b60066001816124ba613e16565b816001600160a01b0302191690836001600160a01b03160217906124dc613e74565b5050505b60006124ea612fe5565b6001600160a01b0316631b16802c86600e612503613e16565b6040518363ffffffff1660e01b815260040180836001600160a01b03166001600160a01b03168152602001828152602001925050506060604051808303816000878061254d613ead565b15801561255957600080fd5b505a612563613edf565b50505050505015801561257a573d6000803e3d6000fd5b505050506040513d606081101561259057600080fd5b5060400151905082811561265157600060076125aa613e16565b906101000a90046001600160a01b03166001600160a01b03166370a08231876040518263ffffffff1660e01b815260040180826001600160a01b03166001600160a01b03168152602001915050602060405180830381868061260a613ead565b15801561261657600080fd5b505a612620613f37565b5050505050158015612636573d6000803e3d6000fd5b505050506040513d602081101561264c57600080fd5b505190505b8084101561265f5783612661565b805b935061266e868686612cdf565b9695505050505050565b6000600761078c613e16565b73feefeefeefeefeefeefeefeefeefeefeefeefeef81565b6000600461078c613e16565b600060046126b4613e16565b906101000a90046001600160a01b03166001600160a01b03165a6126d6613e4f565b6001600160a01b0316141580156127225750600060056126f4613e16565b906101000a90046001600160a01b03166001600160a01b03165a612716613e4f565b6001600160a01b031614155b801561276357505a612732613e4f565b6001600160a01b031660006006612747613e16565b906101000a90046001600160a01b03166001600160a01b031614155b156127a4575a612771613e4f565b600660018161277e613e16565b816001600160a01b0302191690836001600160a01b03160217906127a0613e74565b5050505b6000806127af613e16565b6001600160a01b036101009290920a900416600060066127cd613e16565b906101000a90046001600160a01b03166001600160a01b03161461282e576040805162461bcd60e51b815260206004820152601360248201527227bbb732b91037b7363c90333ab731ba34b7b760691b604482015290519081900360640190fd5b8080600a610ac9613e74565b6027610bbd613e16565b60008061284f612fe5565b6001600160a01b03166319d5c66584600e612868613e16565b6040518363ffffffff1660e01b815260040180836001600160a01b03166001600160a01b031681526020018281526020019250505060606040518083038186806128b0613ead565b1580156128bc57600080fd5b505a6128c6613f37565b50505050501580156128dc573d6000803e3d6000fd5b505050506040513d60608110156128f257600080fd5b505190506000806007612903613e16565b906101000a90046001600160a01b03166001600160a01b03166370a08231856040518263ffffffff1660e01b815260040180826001600160a01b03166001600160a01b031681526020019150506020604051808303818680612963613ead565b15801561296f57600080fd5b505a612979613f37565b505050505015801561298f573d6000803e3d6000fd5b505050506040513d60208110156129a557600080fd5b50519050808211156129bc576000925050506112df565b6129cc818363ffffffff6139d716565b925050506112df565b600060046129e1613e16565b906101000a90046001600160a01b03166001600160a01b031663907dff978260405160200180828152602001915050604051602081830303815290604052600360405180806140d66021913960210190506040518091039020612a4388613a34565b612a4c88613a34565b60006040518763ffffffff1660e01b815260040180806020018781526020018681526020018581526020018481526020018360001b8152602001828103825288818151815260200191508051906020019080838360005b83811015612abb578181015183820152602001612aa3565b50505050905090810190601f168015612ae85780820380516001836020036101000a031916815260200191505b5097505050505050505060006040518083038160008780612b07613ead565b158015612b1357600080fd5b505a612b1d613edf565b505050505050158015611a4b573d6000803e3d6000fd5b612b3c612fe5565b6001600160a01b031663059c29ec83600e612b55613e16565b6040518363ffffffff1660e01b815260040180836001600160a01b03166001600160a01b03168152602001828152602001925050506020604051808303818680612b9d613ead565b158015612ba957600080fd5b505a612bb3613f37565b5050505050158015612bc9573d6000803e3d6000fd5b505050506040513d6020811015612bdf57600080fd5b505115612c1d5760405162461bcd60e51b81526004018080602001828103825260258152602001806140f76025913960400191505060405180910390fd5b80612c2783612844565b1015612c645760405162461bcd60e51b815260040180806020018281038252602f815260200180614009602f913960400191505060405180910390fd5b612c6c613a40565b6001600160a01b03166342a28e21600e612c84613e16565b6040518263ffffffff1660e01b8152600401808281526020019150506000604051808303818680612cb3613ead565b158015612cbf57600080fd5b505a612cc9613f37565b505050505015801561160e573d6000803e3d6000fd5b6000600019816007612cef613e16565b6001600160a01b036101009290920a90041663dd62ed3e8660006006612d13613e16565b906101000a90046001600160a01b03166040518363ffffffff1660e01b815260040180836001600160a01b03166001600160a01b03168152602001826001600160a01b03166001600160a01b03168152602001925050506020604051808303818680612d7d613ead565b158015612d8957600080fd5b505a612d93613f37565b5050505050158015612da9573d6000803e3d6000fd5b505050506040513d6020811015612dbf57600080fd5b505114612f8a5760006007612dd2613e16565b6001600160a01b036101009290920a90041663da46098c8560006006612df6613e16565b906101000a90046001600160a01b0316612ef5866007600090612e17613e16565b6001600160a01b036101009290920a90041663dd62ed3e8b60006006612e3b613e16565b906101000a90046001600160a01b03166040518363ffffffff1660e01b815260040180836001600160a01b03166001600160a01b03168152602001826001600160a01b03166001600160a01b03168152602001925050506020604051808303818680612ea5613ead565b158015612eb157600080fd5b505a612ebb613f37565b5050505050158015612ed1573d6000803e3d6000fd5b505050506040513d6020811015612ee757600080fd5b50519063ffffffff6139d716565b6040518463ffffffff1660e01b815260040180846001600160a01b03166001600160a01b03168152602001836001600160a01b03166001600160a01b03168152602001828152602001935050505060006040518083038160008780612f58613ead565b158015612f6457600080fd5b505a612f6e613edf565b505050505050158015612f85573d6000803e3d6000fd5b505050505b610e1d8484846136c9565b6000612fe066119959541bdbdb60ca1b6040518060400160405280601781526020017f4d697373696e6720466565506f6f6c2061646472657373000000000000000000815250613a8c565b905090565b6000612fe06822bc31b430b733b2b960b91b6040518060400160405280601981526020017f4d697373696e672045786368616e676572206164647265737300000000000000815250613a8c565b6000612fe06524b9b9bab2b960d11b604051806040016040528060168152602001754d697373696e6720497373756572206164647265737360501b815250613a8c565b6000612fe06027613084613e16565b6040518060600160405280602b815260200161407c602b9139613a8c565b600060076130ae613e16565b6001600160a01b036101009290920a90041663b46310f68361318684600060076130d6613e16565b906101000a90046001600160a01b03166001600160a01b03166370a08231886040518263ffffffff1660e01b815260040180826001600160a01b03166001600160a01b031681526020019150506020604051808303818680613136613ead565b15801561314257600080fd5b505a61314c613f37565b5050505050158015613162573d6000803e3d6000fd5b505050506040513d602081101561317857600080fd5b50519063ffffffff613b4c16565b6040518363ffffffff1660e01b815260040180836001600160a01b03166001600160a01b0316815260200182815260200192505050600060405180830381600087806131d0613ead565b1580156131dc57600080fd5b505a6131e6613edf565b5050505050501580156131fd573d6000803e3d6000fd5b5050505061321b81600a61320f613e16565b9063ffffffff613b4c16565b80600a613226613e74565b50505061323560008383613ba6565b6111258282613c14565b600080600761324c613e16565b6001600160a01b036101009290920a90041663b46310f6846132d48560006007613274613e16565b906101000a90046001600160a01b03166001600160a01b03166370a08231896040518263ffffffff1660e01b815260040180826001600160a01b03166001600160a01b031681526020019150506020604051808303818680612ea5613ead565b6040518363ffffffff1660e01b815260040180836001600160a01b03166001600160a01b03168152602001828152602001925050506000604051808303816000878061331e613ead565b15801561332a57600080fd5b505a613334613edf565b50505050505015801561334b573d6000803e3d6000fd5b5050505061336982600a61335d613e16565b9063ffffffff6139d716565b80600a613374613e74565b50505061338383600084613ba6565b61338d8383613d8b565b50600192915050565b600060046133a2613e16565b604080516001600160a01b038581166020808401919091528351808403820181528385018086527f546f6b656e5374617465557064617465642861646472657373290000000000009052935192839003605a01832063907dff9760e01b8452600160248501819052604485018290526000606486018190526084860181905260a4860181905260c060048701908152875160c488015287516101009a909a0a909804949094169763907dff979791959294938493849392839260e4909201918a0190808383885b83811015613481578181015183820152602001613469565b50505050905090810190601f1680156134ae5780820380516001836020036101000a031916815260200191505b50975050505050505050600060405180830381600087806134cd613ead565b1580156134d957600080fd5b505a6134e3613edf565b5050505050501580156134fa573d6000803e3d6000fd5b5050505050565b600080600e61350e613e16565b631cd554d160e21b141561354a5750816135446000600661352d613e16565b906101000a90046001600160a01b031685856136c9565b50613646565b613552612fe5565b6001600160a01b0316630a1e187d6000600661356c613e16565b906101000a90046001600160a01b0316600e613586613e16565b604080516001600160e01b031960e086901b1681526001600160a01b039093166004840152602483019190915260448201879052631cd554d160e21b606483015273feefeefeefeefeefeefeefeefeefeefeefeefeef60848301525160a48083019260209291908290030181600087806135fe613ead565b15801561360a57600080fd5b505a613614613edf565b50505050505015801561362b573d6000803e3d6000fd5b505050506040513d602081101561364157600080fd5b505190505b61364e612f95565b6001600160a01b03166322bf55ef826040518263ffffffff1660e01b8152600401808281526020019150506000604051808303816000878061368e613ead565b15801561369a57600080fd5b505a6136a4613edf565b5050505050501580156136bb573d6000803e3d6000fd5b506001979650505050505050565b60006001600160a01b0383161580159061371957505a63996d79a5620800008160e01b8152602081600483336000905af18061370457600080fd5b50516001600160a01b03868116911614159150505b801561375257506000600461372c613e16565b906101000a90046001600160a01b03166001600160a01b0316836001600160a01b031614155b6137a3576040805162461bcd60e51b815260206004820152601f60248201527f43616e6e6f74207472616e7366657220746f2074686973206164647265737300604482015290519081900360640190fd5b600060076137af613e16565b6001600160a01b036101009290920a90041663b46310f68561383785600060076137d7613e16565b906101000a90046001600160a01b03166001600160a01b03166370a082318a6040518263ffffffff1660e01b815260040180826001600160a01b03166001600160a01b031681526020019150506020604051808303818680612ea5613ead565b6040518363ffffffff1660e01b815260040180836001600160a01b03166001600160a01b031681526020018281526020019250505060006040518083038160008780613881613ead565b15801561388d57600080fd5b505a613897613edf565b5050505050501580156138ae573d6000803e3d6000fd5b5050505060076000906138bf613e16565b6001600160a01b036101009290920a90041663b46310f68461394785600060076138e7613e16565b906101000a90046001600160a01b03166001600160a01b03166370a08231896040518263ffffffff1660e01b815260040180826001600160a01b03166001600160a01b031681526020019150506020604051808303818680613136613ead565b6040518363ffffffff1660e01b815260040180836001600160a01b03166001600160a01b031681526020018281526020019250505060006040518083038160008780613991613ead565b15801561399d57600080fd5b505a6139a7613edf565b5050505050501580156139be573d6000803e3d6000fd5b505050506139cd848484613ba6565b5060019392505050565b600082821115613a2e576040805162461bcd60e51b815260206004820152601e60248201527f536166654d6174683a207375627472616374696f6e206f766572666c6f770000604482015290519081900360640190fd5b50900390565b6001600160a01b031690565b6000612fe06b53797374656d53746174757360a01b6040518060400160405280601c81526020017f4d697373696e672053797374656d5374617475732061646472657373000000008152505b6000828152600c6020526040812081908190613aa6613e16565b6001600160a01b036101009290920a90041690508281613b445760405162461bcd60e51b81526004018080602001828103825283818151815260200191508051906020019080838360005b83811015613b09578181015183820152602001613af1565b50505050905090810190601f168015613b365780820380516001836020036101000a031916815260200191505b509250505060405180910390fd5b509392505050565b600082820183811015611dd1576040805162461bcd60e51b815260206004820152601b60248201527f536166654d6174683a206164646974696f6e206f766572666c6f770000000000604482015290519081900360640190fd5b60006004613bb2613e16565b906101000a90046001600160a01b03166001600160a01b031663907dff9782604051602001808281526020019150506040516020818303038152906040526003604051808061411c6021913960210190506040518091039020612a4388613a34565b60006004613c20613e16565b906101000a90046001600160a01b03166001600160a01b031663907dff978260405160200180828152602001915050604051602081830303815290604052600260405180807f49737375656428616464726573732c75696e743235362900000000000000000081525060170190506040518091039020613c9f87613a34565b6000806040518763ffffffff1660e01b815260040180806020018781526020018681526020018581526020018460001b81526020018360001b8152602001828103825288818151815260200191508051906020019080838360005b83811015613d12578181015183820152602001613cfa565b50505050905090810190601f168015613d3f5780820380516001836020036101000a031916815260200191505b5097505050505050505060006040518083038160008780613d5e613ead565b158015613d6a57600080fd5b505a613d74613edf565b50505050505015801561160e573d6000803e3d6000fd5b60006004613d97613e16565b906101000a90046001600160a01b03166001600160a01b031663907dff978260405160200180828152602001915050604051602081830303815290604052600260405180807f4275726e656428616464726573732c75696e743235362900000000000000000081525060170190506040518091039020613c9f87613a34565b630412cc4160e31b6208000090815262080004839052632096620890602081602481336000905af180613e4857600080fd5b5051925050565b6373509064620800008160e01b8152602081600483336000905af180613e4857600080fd5b630146e59560e51b6208000090815262080004839052620800248490526328dcb2a090600081604481336000905af18061150b57600080fd5b63c3382d0f60e01b620800009081526208000483905263c3382d0f90602081602481336000905af180613e4857600080fd5b63131b5f2160e21b6208000090815262080004849052634c6d7c849060005b88811015613f19578781015182820160240152602001613efe565b5089898960240183336000905af180613f3157600080fd5b99505050565b63fbb0f79d60e01b620800009081526208000484905263fbb0f79d9060005b87811015613f71578681015182820160240152602001613f56565b5088888860240183336000905af180613f8957600080fd5b98505050565b63bdbf8c36620800008160e01b8152602081600483336000905af180613e4857600080fd5b604051806103000160405280601890602082028038833950919291505056fe596f75206d757374206265206e6f6d696e61746564206265666f726520796f752063616e20616363657074206f776e657273686970496e73756666696369656e742062616c616e636520616674657220616e7920736574746c656d656e74206f77696e674f6e6c7920466565506f6f6c2c2045786368616e6765722c20497373756572206f72204d756c7469436f6c6c61746572616c20636f6e74726163747320616c6c6f7765645265736f6c766572206973206d697373696e67206d756c7469436f6c6c61746572616c20616464726573734f6e6c792074686520636f6e7472616374206f776e6572206d617920706572666f726d207468697320616374696f6e417070726f76616c28616464726573732c616464726573732c75696e743235362943616e6e6f74207472616e7366657220647572696e672077616974696e6720706572696f645472616e7366657228616464726573732c616464726573732c75696e7432353629",
			"opcodes": "PUSH2 0x100 PUSH1 0x40 MSTORE PUSH12 0x53797374656D537461747573 PUSH1 0xA0 SHL PUSH1 0x80 SWAP1 DUP2 MSTORE PUSH9 0x22BC31B430B733B2B9 PUSH1 0xB9 SHL PUSH1 0xA0 MSTORE PUSH6 0x24B9B9BAB2B9 PUSH1 0xD1 SHL PUSH1 0xC0 MSTORE PUSH7 0x119959541BDBDB PUSH1 0xCA SHL PUSH1 0xE0 MSTORE PUSH3 0x55 SWAP1 PUSH1 0xF SWAP1 PUSH1 0x4 PUSH3 0x9D0 JUMP JUMPDEST POP CALLVALUE DUP1 ISZERO PUSH3 0x63 JUMPI PUSH1 0x0 DUP1 REVERT JUMPDEST POP PUSH1 0x40 MLOAD PUSH3 0x4D74 CODESIZE SUB DUP1 PUSH3 0x4D74 DUP4 CODECOPY DUP2 DUP2 ADD PUSH1 0x40 MSTORE PUSH2 0x120 DUP2 LT ISZERO PUSH3 0x8A JUMPI PUSH1 0x0 DUP1 REVERT JUMPDEST DUP2 MLOAD PUSH1 0x20 DUP4 ADD MLOAD PUSH1 0x40 DUP1 DUP6 ADD DUP1 MLOAD SWAP2 MLOAD SWAP4 SWAP6 SWAP3 SWAP5 DUP4 ADD SWAP3 SWAP2 DUP5 PUSH5 0x100000000 DUP3 GT ISZERO PUSH3 0xB6 JUMPI PUSH1 0x0 DUP1 REVERT JUMPDEST SWAP1 DUP4 ADD SWAP1 PUSH1 0x20 DUP3 ADD DUP6 DUP2 GT ISZERO PUSH3 0xCC JUMPI PUSH1 0x0 DUP1 REVERT JUMPDEST DUP3 MLOAD PUSH5 0x100000000 DUP2 GT DUP3 DUP3 ADD DUP9 LT OR ISZERO PUSH3 0xE7 JUMPI PUSH1 0x0 DUP1 REVERT JUMPDEST DUP3 MSTORE POP DUP2 MLOAD PUSH1 0x20 SWAP2 DUP3 ADD SWAP3 SWAP1 SWAP2 ADD SWAP1 DUP1 DUP4 DUP4 PUSH1 0x0 JUMPDEST DUP4 DUP2 LT ISZERO PUSH3 0x116 JUMPI DUP2 DUP2 ADD MLOAD DUP4 DUP3 ADD MSTORE PUSH1 0x20 ADD PUSH3 0xFC JUMP JUMPDEST POP POP POP POP SWAP1 POP SWAP1 DUP2 ADD SWAP1 PUSH1 0x1F AND DUP1 ISZERO PUSH3 0x144 JUMPI DUP1 DUP3 SUB DUP1 MLOAD PUSH1 0x1 DUP4 PUSH1 0x20 SUB PUSH2 0x100 EXP SUB NOT AND DUP2 MSTORE PUSH1 0x20 ADD SWAP2 POP JUMPDEST POP PUSH1 0x40 MSTORE PUSH1 0x20 ADD DUP1 MLOAD PUSH1 0x40 MLOAD SWAP4 SWAP3 SWAP2 SWAP1 DUP5 PUSH5 0x100000000 DUP3 GT ISZERO PUSH3 0x168 JUMPI PUSH1 0x0 DUP1 REVERT JUMPDEST SWAP1 DUP4 ADD SWAP1 PUSH1 0x20 DUP3 ADD DUP6 DUP2 GT ISZERO PUSH3 0x17E JUMPI PUSH1 0x0 DUP1 REVERT JUMPDEST DUP3 MLOAD PUSH5 0x100000000 DUP2 GT DUP3 DUP3 ADD DUP9 LT OR ISZERO PUSH3 0x199 JUMPI PUSH1 0x0 DUP1 REVERT JUMPDEST DUP3 MSTORE POP DUP2 MLOAD PUSH1 0x20 SWAP2 DUP3 ADD SWAP3 SWAP1 SWAP2 ADD SWAP1 DUP1 DUP4 DUP4 PUSH1 0x0 JUMPDEST DUP4 DUP2 LT ISZERO PUSH3 0x1C8 JUMPI DUP2 DUP2 ADD MLOAD DUP4 DUP3 ADD MSTORE PUSH1 0x20 ADD PUSH3 0x1AE JUMP JUMPDEST POP POP POP POP SWAP1 POP SWAP1 DUP2 ADD SWAP1 PUSH1 0x1F AND DUP1 ISZERO PUSH3 0x1F6 JUMPI DUP1 DUP3 SUB DUP1 MLOAD PUSH1 0x1 DUP4 PUSH1 0x20 SUB PUSH2 0x100 EXP SUB NOT AND DUP2 MSTORE PUSH1 0x20 ADD SWAP2 POP JUMPDEST POP PUSH1 0x40 DUP2 DUP2 MSTORE PUSH1 0x20 DUP4 ADD MLOAD DUP4 DUP3 ADD MLOAD PUSH1 0x60 DUP6 ADD MLOAD PUSH1 0x80 DUP7 ADD MLOAD PUSH1 0xA0 SWAP1 SWAP7 ADD MLOAD PUSH2 0x300 DUP7 ADD SWAP1 SWAP5 MSTORE SWAP2 SWAP7 POP SWAP5 POP SWAP3 SWAP2 DUP10 SWAP1 DUP10 SWAP1 DUP10 SWAP1 DUP10 SWAP1 DUP10 SWAP1 DUP10 SWAP1 DUP10 SWAP1 DUP10 SWAP1 DUP2 SWAP1 PUSH1 0xF PUSH1 0x18 DUP3 DUP3 DUP3 PUSH1 0x20 MUL DUP3 ADD SWAP2 JUMPDEST DUP2 PUSH3 0x24F PUSH3 0xA1E JUMP JUMPDEST DUP2 MSTORE PUSH1 0x20 ADD SWAP1 PUSH1 0x1 ADD SWAP1 DUP1 DUP4 GT PUSH3 0x244 JUMPI POP POP POP POP POP DUP10 DUP10 DUP10 DUP10 DUP8 PUSH1 0x12 DUP12 DUP7 DUP2 PUSH1 0x0 PUSH1 0x1 PUSH1 0x1 PUSH1 0xA0 SHL SUB AND DUP2 PUSH1 0x1 PUSH1 0x1 PUSH1 0xA0 SHL SUB AND EQ ISZERO PUSH3 0x2D9 JUMPI PUSH1 0x40 DUP1 MLOAD PUSH3 0x461BCD PUSH1 0xE5 SHL DUP2 MSTORE PUSH1 0x20 PUSH1 0x4 DUP3 ADD MSTORE PUSH1 0x19 PUSH1 0x24 DUP3 ADD MSTORE PUSH32 0x4F776E657220616464726573732063616E6E6F74206265203000000000000000 PUSH1 0x44 DUP3 ADD MSTORE SWAP1 MLOAD SWAP1 DUP2 SWAP1 SUB PUSH1 0x64 ADD SWAP1 REVERT JUMPDEST DUP1 PUSH1 0x0 PUSH1 0x1 DUP2 PUSH3 0x2E9 PUSH3 0xA1E JUMP JUMPDEST DUP2 PUSH1 0x1 PUSH1 0x1 PUSH1 0xA0 SHL SUB MUL NOT AND SWAP1 DUP4 PUSH1 0x1 PUSH1 0x1 PUSH1 0xA0 SHL SUB AND MUL OR SWAP1 PUSH3 0x30D PUSH3 0xA58 JUMP JUMPDEST POP POP PUSH1 0x40 DUP1 MLOAD PUSH1 0x0 DUP2 MSTORE PUSH1 0x1 PUSH1 0x1 PUSH1 0xA0 SHL SUB DUP5 AND PUSH1 0x20 DUP3 ADD MSTORE DUP2 MLOAD PUSH32 0xB532073B38C83145E3E5135377A08BF9AAB55BC0FD7C1179CD4FB995D2A5159C SWAP4 POP SWAP1 DUP2 SWAP1 SUB SWAP1 SWAP2 ADD SWAP1 LOG1 POP PUSH1 0x0 DUP1 DUP1 PUSH3 0x363 PUSH3 0xA1E JUMP JUMPDEST SWAP1 PUSH2 0x100 EXP SWAP1 DIV PUSH1 0x1 PUSH1 0x1 PUSH1 0xA0 SHL SUB AND PUSH1 0x1 PUSH1 0x1 PUSH1 0xA0 SHL SUB AND EQ ISZERO PUSH3 0x3C4 JUMPI PUSH1 0x40 DUP1 MLOAD PUSH3 0x461BCD PUSH1 0xE5 SHL DUP2 MSTORE PUSH1 0x20 PUSH1 0x4 DUP3 ADD MSTORE PUSH1 0x11 PUSH1 0x24 DUP3 ADD MSTORE PUSH17 0x13DDDB995C881B5D5CDD081899481CD95D PUSH1 0x7A SHL PUSH1 0x44 DUP3 ADD MSTORE SWAP1 MLOAD SWAP1 DUP2 SWAP1 SUB PUSH1 0x64 ADD SWAP1 REVERT JUMPDEST PUSH1 0x0 DUP1 PUSH3 0x3D1 PUSH3 0xA1E JUMP JUMPDEST SWAP1 PUSH2 0x100 EXP SWAP1 DIV PUSH1 0x1 PUSH1 0x1 PUSH1 0xA0 SHL SUB AND PUSH1 0x3 PUSH1 0x1 PUSH2 0x100 EXP DUP2 PUSH3 0x3F4 PUSH3 0xA1E JUMP JUMPDEST DUP2 PUSH1 0x1 PUSH1 0x1 PUSH1 0xA0 SHL SUB MUL NOT AND SWAP1 DUP4 PUSH1 0x1 PUSH1 0x1 PUSH1 0xA0 SHL SUB AND MUL OR SWAP1 PUSH3 0x418 PUSH3 0xA58 JUMP JUMPDEST POP POP POP PUSH32 0xD5DA63A0B864B315BC04128DEDBC93888C8529EE6CF47CE664DC204339228C53 PUSH1 0x0 DUP1 SWAP1 PUSH3 0x44A PUSH3 0xA1E JUMP JUMPDEST PUSH1 0x40 DUP1 MLOAD PUSH2 0x100 SWAP4 SWAP1 SWAP4 EXP SWAP1 SWAP2 DIV PUSH1 0x1 PUSH1 0x1 PUSH1 0xA0 SHL SUB AND DUP3 MSTORE MLOAD PUSH1 0x20 SWAP2 DUP2 SWAP1 SUB SWAP2 SWAP1 SWAP2 ADD SWAP1 LOG1 PUSH1 0x0 DUP1 DUP1 PUSH3 0x47E PUSH3 0xA1E JUMP JUMPDEST SWAP1 PUSH2 0x100 EXP SWAP1 DIV PUSH1 0x1 PUSH1 0x1 PUSH1 0xA0 SHL SUB AND PUSH1 0x1 PUSH1 0x1 PUSH1 0xA0 SHL SUB AND EQ ISZERO PUSH3 0x4DF JUMPI PUSH1 0x40 DUP1 MLOAD PUSH3 0x461BCD PUSH1 0xE5 SHL DUP2 MSTORE PUSH1 0x20 PUSH1 0x4 DUP3 ADD MSTORE PUSH1 0x11 PUSH1 0x24 DUP3 ADD MSTORE PUSH17 0x13DDDB995C881B5D5CDD081899481CD95D PUSH1 0x7A SHL PUSH1 0x44 DUP3 ADD MSTORE SWAP1 MLOAD SWAP1 DUP2 SWAP1 SUB PUSH1 0x64 ADD SWAP1 REVERT JUMPDEST DUP1 PUSH1 0x4 PUSH1 0x1 DUP2 PUSH3 0x4EF PUSH3 0xA1E JUMP JUMPDEST DUP2 PUSH1 0x1 PUSH1 0x1 PUSH1 0xA0 SHL SUB MUL NOT AND SWAP1 DUP4 PUSH1 0x1 PUSH1 0x1 PUSH1 0xA0 SHL SUB AND MUL OR SWAP1 PUSH3 0x513 PUSH3 0xA58 JUMP JUMPDEST POP POP PUSH1 0x40 DUP1 MLOAD PUSH1 0x1 PUSH1 0x1 PUSH1 0xA0 SHL SUB DUP5 AND DUP2 MSTORE SWAP1 MLOAD PUSH32 0xFC80377CA9C49CC11AE6982F390A42DB976D5530AF7C43889264B13FBBD7C57E SWAP3 POP SWAP1 DUP2 SWAP1 SUB PUSH1 0x20 ADD SWAP1 LOG1 POP DUP6 PUSH1 0x7 PUSH1 0x1 DUP2 PUSH3 0x564 PUSH3 0xA1E JUMP JUMPDEST DUP2 PUSH1 0x1 PUSH1 0x1 PUSH1 0xA0 SHL SUB MUL NOT AND SWAP1 DUP4 PUSH1 0x1 PUSH1 0x1 PUSH1 0xA0 SHL SUB AND MUL OR SWAP1 PUSH3 0x588 PUSH3 0xA58 JUMP JUMPDEST POP POP DUP6 MLOAD PUSH3 0x5A0 SWAP2 POP PUSH1 0x8 SWAP1 PUSH1 0x20 DUP9 ADD SWAP1 PUSH3 0xA97 JUMP JUMPDEST POP DUP4 MLOAD PUSH3 0x5B6 SWAP1 PUSH1 0x9 SWAP1 PUSH1 0x20 DUP8 ADD SWAP1 PUSH3 0xA97 JUMP JUMPDEST POP DUP3 DUP1 PUSH1 0xA PUSH3 0x5C5 PUSH3 0xA58 JUMP JUMPDEST POP POP POP DUP2 PUSH1 0xB PUSH1 0x0 PUSH2 0x100 EXP DUP2 PUSH3 0x5DC PUSH3 0xA1E JUMP JUMPDEST DUP2 PUSH1 0xFF MUL NOT AND SWAP1 DUP4 PUSH1 0xFF AND MUL OR SWAP1 PUSH3 0x5F4 PUSH3 0xA58 JUMP JUMPDEST POP POP POP POP POP POP POP POP POP POP PUSH1 0x0 PUSH1 0x1 PUSH1 0x1 PUSH1 0xA0 SHL SUB AND PUSH1 0x0 DUP1 SWAP1 PUSH3 0x617 PUSH3 0xA1E JUMP JUMPDEST SWAP1 PUSH2 0x100 EXP SWAP1 DIV PUSH1 0x1 PUSH1 0x1 PUSH1 0xA0 SHL SUB AND PUSH1 0x1 PUSH1 0x1 PUSH1 0xA0 SHL SUB AND EQ ISZERO PUSH3 0x678 JUMPI PUSH1 0x40 DUP1 MLOAD PUSH3 0x461BCD PUSH1 0xE5 SHL DUP2 MSTORE PUSH1 0x20 PUSH1 0x4 DUP3 ADD MSTORE PUSH1 0x11 PUSH1 0x24 DUP3 ADD MSTORE PUSH17 0x13DDDB995C881B5D5CDD081899481CD95D PUSH1 0x7A SHL PUSH1 0x44 DUP3 ADD MSTORE SWAP1 MLOAD SWAP1 DUP2 SWAP1 SUB PUSH1 0x64 ADD SWAP1 REVERT JUMPDEST PUSH1 0x0 JUMPDEST PUSH1 0x18 DUP2 LT ISZERO PUSH3 0x708 JUMPI PUSH1 0x0 DUP3 DUP3 PUSH1 0x18 DUP2 LT PUSH3 0x694 JUMPI INVALID JUMPDEST PUSH1 0x20 MUL ADD MLOAD EQ PUSH3 0x6F9 JUMPI PUSH1 0xD DUP3 DUP3 PUSH1 0x18 DUP2 LT PUSH3 0x6AE JUMPI INVALID JUMPDEST PUSH1 0x20 MUL ADD MLOAD SWAP1 DUP1 PUSH1 0x1 DUP2 PUSH3 0x6C2 PUSH3 0xA1E JUMP JUMPDEST ADD DUP1 DUP3 PUSH3 0x6CF PUSH3 0xA58 JUMP JUMPDEST POP POP PUSH1 0x0 SWAP3 DUP4 MSTORE PUSH1 0x20 SWAP1 SWAP3 KECCAK256 SWAP2 SWAP3 SWAP2 DUP4 ADD PUSH1 0x0 NOT ADD SWAP1 POP PUSH3 0x6F0 PUSH3 0xA58 JUMP JUMPDEST POP POP POP PUSH3 0x6FF JUMP JUMPDEST PUSH3 0x708 JUMP JUMPDEST PUSH1 0x1 ADD PUSH3 0x67B JUMP JUMPDEST POP DUP2 PUSH1 0xB PUSH2 0x100 DUP2 PUSH3 0x71A PUSH3 0xA1E JUMP JUMPDEST DUP2 PUSH1 0x1 PUSH1 0x1 PUSH1 0xA0 SHL SUB MUL NOT AND SWAP1 DUP4 PUSH1 0x1 PUSH1 0x1 PUSH1 0xA0 SHL SUB AND MUL OR SWAP1 PUSH3 0x73E PUSH3 0xA58 JUMP JUMPDEST POP POP POP POP POP PUSH1 0x1 PUSH1 0x1 PUSH1 0xA0 SHL SUB DUP9 AND PUSH3 0x794 JUMPI PUSH1 0x40 DUP1 MLOAD PUSH3 0x461BCD PUSH1 0xE5 SHL DUP2 MSTORE PUSH1 0x20 PUSH1 0x4 DUP3 ADD MSTORE PUSH1 0x12 PUSH1 0x24 DUP3 ADD MSTORE PUSH18 0x5F70726F78792063616E6E6F74206265203 PUSH1 0x74 SHL PUSH1 0x44 DUP3 ADD MSTORE SWAP1 MLOAD SWAP1 DUP2 SWAP1 SUB PUSH1 0x64 ADD SWAP1 REVERT JUMPDEST PUSH1 0x1 PUSH1 0x1 PUSH1 0xA0 SHL SUB DUP5 AND PUSH3 0x7E5 JUMPI PUSH1 0x40 DUP1 MLOAD PUSH3 0x461BCD PUSH1 0xE5 SHL DUP2 MSTORE PUSH1 0x20 PUSH1 0x4 DUP3 ADD MSTORE PUSH1 0x12 PUSH1 0x24 DUP3 ADD MSTORE PUSH18 0x5F6F776E65722063616E6E6F74206265203 PUSH1 0x74 SHL PUSH1 0x44 DUP3 ADD MSTORE SWAP1 MLOAD SWAP1 DUP2 SWAP1 SUB PUSH1 0x64 ADD SWAP1 REVERT JUMPDEST DUP3 DUP1 PUSH1 0xE PUSH3 0x7F3 PUSH3 0xA58 JUMP JUMPDEST POP POP POP POP POP POP POP POP POP POP POP DUP1 PUSH1 0x27 DUP2 SWAP1 PUSH3 0x80D PUSH3 0xA58 JUMP JUMPDEST POP POP POP PUSH3 0x82F PUSH1 0x27 PUSH3 0x820 PUSH3 0xA1E JUMP JUMPDEST PUSH1 0x1 PUSH1 0x1 PUSH1 0xE0 SHL SUB PUSH3 0x83E AND JUMP JUMPDEST POP POP POP POP POP POP POP POP POP PUSH3 0xC27 JUMP JUMPDEST DUP1 PUSH1 0xD DUP1 PUSH1 0x1 DUP2 PUSH3 0x84F PUSH3 0xA1E JUMP JUMPDEST ADD DUP1 DUP3 PUSH3 0x85C PUSH3 0xA58 JUMP JUMPDEST POP POP PUSH1 0x0 SWAP3 DUP4 MSTORE PUSH1 0x20 SWAP1 SWAP3 KECCAK256 SWAP2 SWAP3 SWAP2 DUP4 ADD PUSH1 0x0 NOT ADD SWAP1 POP PUSH3 0x87D PUSH3 0xA58 JUMP JUMPDEST POP POP POP PUSH1 0x18 PUSH1 0xD DUP1 PUSH3 0x88F PUSH3 0xA1E JUMP JUMPDEST SWAP1 POP LT PUSH3 0x8E4 JUMPI PUSH1 0x40 DUP1 MLOAD PUSH3 0x461BCD PUSH1 0xE5 SHL DUP2 MSTORE PUSH1 0x20 PUSH1 0x4 DUP3 ADD MSTORE PUSH1 0x1B PUSH1 0x24 DUP3 ADD MSTORE PUSH32 0x4D6178207265736F6C7665722063616368652073697A65206D65740000000000 PUSH1 0x44 DUP3 ADD MSTORE SWAP1 MLOAD SWAP1 DUP2 SWAP1 SUB PUSH1 0x64 ADD SWAP1 REVERT JUMPDEST PUSH1 0x1 PUSH1 0xB PUSH3 0x8F2 PUSH3 0xA1E JUMP JUMPDEST SWAP1 PUSH2 0x100 EXP SWAP1 DIV PUSH1 0x1 PUSH1 0x1 PUSH1 0xA0 SHL SUB AND PUSH1 0x1 PUSH1 0x1 PUSH1 0xA0 SHL SUB AND PUSH4 0x21F8A721 DUP3 PUSH1 0x40 MLOAD DUP3 PUSH4 0xFFFFFFFF AND PUSH1 0xE0 SHL DUP2 MSTORE PUSH1 0x4 ADD DUP1 DUP3 DUP2 MSTORE PUSH1 0x20 ADD SWAP2 POP POP PUSH1 0x20 PUSH1 0x40 MLOAD DUP1 DUP4 SUB DUP2 DUP7 DUP1 PUSH3 0x942 PUSH3 0xB42 JUMP JUMPDEST ISZERO DUP1 ISZERO PUSH3 0x94F JUMPI PUSH1 0x0 DUP1 REVERT JUMPDEST POP GAS PUSH3 0x95B PUSH3 0xB75 JUMP JUMPDEST POP POP POP POP POP ISZERO DUP1 ISZERO PUSH3 0x972 JUMPI RETURNDATASIZE PUSH1 0x0 DUP1 RETURNDATACOPY RETURNDATASIZE PUSH1 0x0 REVERT JUMPDEST POP POP POP POP PUSH1 0x40 MLOAD RETURNDATASIZE PUSH1 0x20 DUP2 LT ISZERO PUSH3 0x989 JUMPI PUSH1 0x0 DUP1 REVERT JUMPDEST POP MLOAD PUSH1 0x0 DUP3 DUP2 MSTORE PUSH1 0xC PUSH1 0x20 MSTORE PUSH1 0x40 SWAP1 KECCAK256 PUSH1 0x1 DUP2 PUSH3 0x9A6 PUSH3 0xA1E JUMP JUMPDEST DUP2 PUSH1 0x1 PUSH1 0x1 PUSH1 0xA0 SHL SUB MUL NOT AND SWAP1 DUP4 PUSH1 0x1 PUSH1 0x1 PUSH1 0xA0 SHL SUB AND MUL OR SWAP1 PUSH3 0x9CA PUSH3 0xA58 JUMP JUMPDEST POP POP POP POP JUMP JUMPDEST DUP3 PUSH1 0x18 DUP2 ADD SWAP3 DUP3 ISZERO PUSH3 0xA0C JUMPI SWAP2 PUSH1 0x20 MUL DUP3 ADD JUMPDEST DUP3 DUP2 GT ISZERO PUSH3 0xA0C JUMPI DUP3 MLOAD DUP3 PUSH3 0x9FA PUSH3 0xA58 JUMP JUMPDEST POP POP SWAP2 PUSH1 0x20 ADD SWAP2 SWAP1 PUSH1 0x1 ADD SWAP1 PUSH3 0x9E4 JUMP JUMPDEST POP PUSH3 0xA1A SWAP3 SWAP2 POP PUSH3 0xBD0 JUMP JUMPDEST POP SWAP1 JUMP JUMPDEST PUSH4 0x412CC41 PUSH1 0xE3 SHL PUSH3 0x80000 SWAP1 DUP2 MSTORE PUSH3 0x80004 DUP4 SWAP1 MSTORE PUSH4 0x20966208 SWAP1 PUSH1 0x20 DUP2 PUSH1 0x24 DUP2 CALLER PUSH1 0x0 SWAP1 GAS CALL DUP1 PUSH3 0xA51 JUMPI PUSH1 0x0 DUP1 REVERT JUMPDEST POP MLOAD SWAP3 POP POP JUMP JUMPDEST PUSH4 0x146E595 PUSH1 0xE5 SHL PUSH3 0x80000 SWAP1 DUP2 MSTORE PUSH3 0x80004 DUP4 SWAP1 MSTORE PUSH3 0x80024 DUP5 SWAP1 MSTORE PUSH4 0x28DCB2A0 SWAP1 PUSH1 0x0 DUP2 PUSH1 0x44 DUP2 CALLER PUSH1 0x0 SWAP1 GAS CALL DUP1 PUSH3 0xA92 JUMPI PUSH1 0x0 DUP1 REVERT JUMPDEST POP POP POP JUMP JUMPDEST DUP3 DUP1 PUSH3 0xAA3 PUSH3 0xA1E JUMP JUMPDEST PUSH1 0x1 DUP2 PUSH1 0x1 AND ISZERO PUSH2 0x100 MUL SUB AND PUSH1 0x2 SWAP1 DIV SWAP1 PUSH1 0x0 MSTORE PUSH1 0x20 PUSH1 0x0 KECCAK256 SWAP1 PUSH1 0x1F ADD PUSH1 0x20 SWAP1 DIV DUP2 ADD SWAP3 DUP3 PUSH1 0x1F LT PUSH3 0xAEE JUMPI DUP1 MLOAD PUSH1 0xFF NOT AND DUP4 DUP1 ADD OR DUP6 PUSH3 0xAE6 PUSH3 0xA58 JUMP JUMPDEST POP POP PUSH3 0xB34 JUMP JUMPDEST DUP3 DUP1 ADD PUSH1 0x1 ADD DUP6 PUSH3 0xAFF PUSH3 0xA58 JUMP JUMPDEST POP POP DUP3 ISZERO PUSH3 0xB34 JUMPI SWAP2 DUP3 ADD JUMPDEST DUP3 DUP2 GT ISZERO PUSH3 0xB34 JUMPI DUP3 MLOAD DUP3 PUSH3 0xB22 PUSH3 0xA58 JUMP JUMPDEST POP POP SWAP2 PUSH1 0x20 ADD SWAP2 SWAP1 PUSH1 0x1 ADD SWAP1 PUSH3 0xB0C JUMP JUMPDEST POP PUSH3 0xA1A SWAP3 SWAP2 POP PUSH3 0xBFD JUMP JUMPDEST PUSH4 0xC3382D0F PUSH1 0xE0 SHL PUSH3 0x80000 SWAP1 DUP2 MSTORE PUSH3 0x80004 DUP4 SWAP1 MSTORE PUSH4 0xC3382D0F SWAP1 PUSH1 0x20 DUP2 PUSH1 0x24 DUP2 CALLER PUSH1 0x0 SWAP1 GAS CALL DUP1 PUSH3 0xA51 JUMPI PUSH1 0x0 DUP1 REVERT JUMPDEST PUSH4 0xFBB0F79D PUSH1 0xE0 SHL PUSH3 0x80000 SWAP1 DUP2 MSTORE PUSH3 0x80004 DUP5 SWAP1 MSTORE PUSH4 0xFBB0F79D SWAP1 PUSH1 0x0 JUMPDEST DUP8 DUP2 LT ISZERO PUSH3 0xBB1 JUMPI DUP7 DUP2 ADD MLOAD DUP3 DUP3 ADD PUSH1 0x24 ADD MSTORE PUSH1 0x20 ADD PUSH3 0xB94 JUMP JUMPDEST POP DUP9 DUP9 DUP9 PUSH1 0x24 ADD DUP4 CALLER PUSH1 0x0 SWAP1 GAS CALL DUP1 PUSH3 0xBCA JUMPI PUSH1 0x0 DUP1 REVERT JUMPDEST SWAP9 POP POP POP JUMP JUMPDEST PUSH3 0xBFA SWAP2 SWAP1 JUMPDEST DUP1 DUP3 GT ISZERO PUSH3 0xA1A JUMPI PUSH1 0x0 DUP1 DUP3 PUSH3 0xBEE PUSH3 0xA58 JUMP JUMPDEST POP POP POP PUSH1 0x1 ADD PUSH3 0xBD7 JUMP JUMPDEST SWAP1 JUMP JUMPDEST PUSH3 0xBFA SWAP2 SWAP1 JUMPDEST DUP1 DUP3 GT ISZERO PUSH3 0xA1A JUMPI PUSH1 0x0 DUP1 DUP3 PUSH3 0xC1B PUSH3 0xA58 JUMP JUMPDEST POP POP POP PUSH1 0x1 ADD PUSH3 0xC04 JUMP JUMPDEST PUSH2 0x413D DUP1 PUSH3 0xC37 PUSH1 0x0 CODECOPY PUSH1 0x0 RETURN INVALID PUSH1 0x80 PUSH1 0x40 MSTORE CALLVALUE DUP1 ISZERO PUSH2 0x10 JUMPI PUSH1 0x0 DUP1 REVERT JUMPDEST POP PUSH1 0x4 CALLDATASIZE LT PUSH2 0x27F JUMPI PUSH1 0x0 CALLDATALOAD PUSH1 0xE0 SHR DUP1 PUSH4 0x9CBDAEB6 GT PUSH2 0x15C JUMPI DUP1 PUSH4 0xC6C9D828 GT PUSH2 0xCE JUMPI DUP1 PUSH4 0xE90DD9E2 GT PUSH2 0x87 JUMPI DUP1 PUSH4 0xE90DD9E2 EQ PUSH2 0x71D JUMPI DUP1 PUSH4 0xEB1EDD61 EQ PUSH2 0x725 JUMPI DUP1 PUSH4 0xEC556889 EQ PUSH2 0x72D JUMPI DUP1 PUSH4 0xF7EA7A3D EQ PUSH2 0x735 JUMPI DUP1 PUSH4 0xFD92AE77 EQ PUSH2 0x752 JUMPI DUP1 PUSH4 0xFFFF51D6 EQ PUSH2 0x75A JUMPI PUSH2 0x27F JUMP JUMPDEST DUP1 PUSH4 0xC6C9D828 EQ PUSH2 0x684 JUMPI DUP1 PUSH4 0xD67BDD25 EQ PUSH2 0x6A1 JUMPI DUP1 PUSH4 0xDBD06C85 EQ PUSH2 0x6A9 JUMPI DUP1 PUSH4 0xDD62ED3E EQ PUSH2 0x6B1 JUMPI DUP1 PUSH4 0xE3235C91 EQ PUSH2 0x6DF JUMPI DUP1 PUSH4 0xE73CCED3 EQ PUSH2 0x6E7 JUMPI PUSH2 0x27F JUMP JUMPDEST DUP1 PUSH4 0xAB49848C GT PUSH2 0x120 JUMPI DUP1 PUSH4 0xAB49848C EQ PUSH2 0x5D9 JUMPI DUP1 PUSH4 0xB014C3A3 EQ PUSH2 0x61A JUMPI DUP1 PUSH4 0xB8225DEC EQ PUSH2 0x646 JUMPI DUP1 PUSH4 0xBC67F832 EQ PUSH2 0x64E JUMPI DUP1 PUSH4 0xBD32AA44 EQ PUSH2 0x674 JUMPI DUP1 PUSH4 0xC58AAAE6 EQ PUSH2 0x67C JUMPI PUSH2 0x27F JUMP JUMPDEST DUP1 PUSH4 0x9CBDAEB6 EQ PUSH2 0x54B JUMPI DUP1 PUSH4 0x9DC29FAC EQ PUSH2 0x553 JUMPI DUP1 PUSH4 0x9F769807 EQ PUSH2 0x57F JUMPI DUP1 PUSH4 0xA461FC82 EQ PUSH2 0x5A5 JUMPI DUP1 PUSH4 0xA9059CBB EQ PUSH2 0x5AD JUMPI PUSH2 0x27F JUMP JUMPDEST DUP1 PUSH4 0x3278C960 GT PUSH2 0x1F5 JUMPI DUP1 PUSH4 0x79BA5097 GT PUSH2 0x1B9 JUMPI DUP1 PUSH4 0x79BA5097 EQ PUSH2 0x4D9 JUMPI DUP1 PUSH4 0x867904B4 EQ PUSH2 0x4E1 JUMPI DUP1 PUSH4 0x8DA5CB5B EQ PUSH2 0x50D JUMPI DUP1 PUSH4 0x95D89B41 EQ PUSH2 0x515 JUMPI DUP1 PUSH4 0x97107D6D EQ PUSH2 0x51D JUMPI DUP1 PUSH4 0x9CB8A26A EQ PUSH2 0x543 JUMPI PUSH2 0x27F JUMP JUMPDEST DUP1 PUSH4 0x3278C960 EQ PUSH2 0x457 JUMPI DUP1 PUSH4 0x3BE99E6F EQ PUSH2 0x45F JUMPI DUP1 PUSH4 0x53A47BB7 EQ PUSH2 0x485 JUMPI DUP1 PUSH4 0x631E1444 EQ PUSH2 0x48D JUMPI DUP1 PUSH4 0x70A08231 EQ PUSH2 0x4B3 JUMPI PUSH2 0x27F JUMP JUMPDEST DUP1 PUSH4 0x17C70DE4 GT PUSH2 0x247 JUMPI DUP1 PUSH4 0x17C70DE4 EQ PUSH2 0x3B3 JUMPI DUP1 PUSH4 0x18160DDD EQ PUSH2 0x3CD JUMPI DUP1 PUSH4 0x20714F88 EQ PUSH2 0x3D5 JUMPI DUP1 PUSH4 0x23B872DD EQ PUSH2 0x3FB JUMPI DUP1 PUSH4 0x2E0F2625 EQ PUSH2 0x431 JUMPI DUP1 PUSH4 0x313CE567 EQ PUSH2 0x44F JUMPI PUSH2 0x27F JUMP JUMPDEST DUP1 PUSH4 0x4F3BCEC EQ PUSH2 0x284 JUMPI DUP1 PUSH4 0x6FDDE03 EQ PUSH2 0x2A8 JUMPI DUP1 PUSH4 0x95EA7B3 EQ PUSH2 0x325 JUMPI DUP1 PUSH4 0x131B0AE7 EQ PUSH2 0x365 JUMPI DUP1 PUSH4 0x1627540C EQ PUSH2 0x38D JUMPI JUMPDEST PUSH1 0x0 DUP1 REVERT JUMPDEST PUSH2 0x28C PUSH2 0x780 JUMP JUMPDEST PUSH1 0x40 DUP1 MLOAD PUSH1 0x1 PUSH1 0x1 PUSH1 0xA0 SHL SUB SWAP1 SWAP3 AND DUP3 MSTORE MLOAD SWAP1 DUP2 SWAP1 SUB PUSH1 0x20 ADD SWAP1 RETURN JUMPDEST PUSH2 0x2B0 PUSH2 0x79F JUMP JUMPDEST PUSH1 0x40 DUP1 MLOAD PUSH1 0x20 DUP1 DUP3 MSTORE DUP4 MLOAD DUP2 DUP4 ADD MSTORE DUP4 MLOAD SWAP2 SWAP3 DUP4 SWAP3 SWAP1 DUP4 ADD SWAP2 DUP6 ADD SWAP1 DUP1 DUP4 DUP4 PUSH1 0x0 JUMPDEST DUP4 DUP2 LT ISZERO PUSH2 0x2EA JUMPI DUP2 DUP2 ADD MLOAD DUP4 DUP3 ADD MSTORE PUSH1 0x20 ADD PUSH2 0x2D2 JUMP JUMPDEST POP POP POP POP SWAP1 POP SWAP1 DUP2 ADD SWAP1 PUSH1 0x1F AND DUP1 ISZERO PUSH2 0x317 JUMPI DUP1 DUP3 SUB DUP1 MLOAD PUSH1 0x1 DUP4 PUSH1 0x20 SUB PUSH2 0x100 EXP SUB NOT AND DUP2 MSTORE PUSH1 0x20 ADD SWAP2 POP JUMPDEST POP SWAP3 POP POP POP PUSH1 0x40 MLOAD DUP1 SWAP2 SUB SWAP1 RETURN JUMPDEST PUSH2 0x351 PUSH1 0x4 DUP1 CALLDATASIZE SUB PUSH1 0x40 DUP2 LT ISZERO PUSH2 0x33B JUMPI PUSH1 0x0 DUP1 REVERT JUMPDEST POP PUSH1 0x1 PUSH1 0x1 PUSH1 0xA0 SHL SUB DUP2 CALLDATALOAD AND SWAP1 PUSH1 0x20 ADD CALLDATALOAD PUSH2 0x859 JUMP JUMPDEST PUSH1 0x40 DUP1 MLOAD SWAP2 ISZERO ISZERO DUP3 MSTORE MLOAD SWAP1 DUP2 SWAP1 SUB PUSH1 0x20 ADD SWAP1 RETURN JUMPDEST PUSH2 0x38B PUSH1 0x4 DUP1 CALLDATASIZE SUB PUSH1 0x20 DUP2 LT ISZERO PUSH2 0x37B JUMPI PUSH1 0x0 DUP1 REVERT JUMPDEST POP CALLDATALOAD PUSH1 0x1 PUSH1 0x1 PUSH1 0xA0 SHL SUB AND PUSH2 0xA27 JUMP JUMPDEST STOP JUMPDEST PUSH2 0x38B PUSH1 0x4 DUP1 CALLDATASIZE SUB PUSH1 0x20 DUP2 LT ISZERO PUSH2 0x3A3 JUMPI PUSH1 0x0 DUP1 REVERT JUMPDEST POP CALLDATALOAD PUSH1 0x1 PUSH1 0x1 PUSH1 0xA0 SHL SUB AND PUSH2 0xACF JUMP JUMPDEST PUSH2 0x3BB PUSH2 0xBB3 JUMP JUMPDEST PUSH1 0x40 DUP1 MLOAD SWAP2 DUP3 MSTORE MLOAD SWAP1 DUP2 SWAP1 SUB PUSH1 0x20 ADD SWAP1 RETURN JUMPDEST PUSH2 0x3BB PUSH2 0xBC0 JUMP JUMPDEST PUSH2 0x38B PUSH1 0x4 DUP1 CALLDATASIZE SUB PUSH1 0x20 DUP2 LT ISZERO PUSH2 0x3EB JUMPI PUSH1 0x0 DUP1 REVERT JUMPDEST POP CALLDATALOAD PUSH1 0x1 PUSH1 0x1 PUSH1 0xA0 SHL SUB AND PUSH2 0xBCA JUMP JUMPDEST PUSH2 0x351 PUSH1 0x4 DUP1 CALLDATASIZE SUB PUSH1 0x60 DUP2 LT ISZERO PUSH2 0x411 JUMPI PUSH1 0x0 DUP1 REVERT JUMPDEST POP PUSH1 0x1 PUSH1 0x1 PUSH1 0xA0 SHL SUB DUP2 CALLDATALOAD DUP2 AND SWAP2 PUSH1 0x20 DUP2 ADD CALLDATALOAD SWAP1 SWAP2 AND SWAP1 PUSH1 0x40 ADD CALLDATALOAD PUSH2 0xD0B JUMP JUMPDEST PUSH2 0x439 PUSH2 0xE25 JUMP JUMPDEST PUSH1 0x40 DUP1 MLOAD PUSH1 0xFF SWAP1 SWAP3 AND DUP3 MSTORE MLOAD SWAP1 DUP2 SWAP1 SUB PUSH1 0x20 ADD SWAP1 RETURN JUMPDEST PUSH2 0x439 PUSH2 0xE2A JUMP JUMPDEST PUSH2 0x38B PUSH2 0xE43 JUMP JUMPDEST PUSH2 0x38B PUSH1 0x4 DUP1 CALLDATASIZE SUB PUSH1 0x20 DUP2 LT ISZERO PUSH2 0x475 JUMPI PUSH1 0x0 DUP1 REVERT JUMPDEST POP CALLDATALOAD PUSH1 0x1 PUSH1 0x1 PUSH1 0xA0 SHL SUB AND PUSH2 0xF1B JUMP JUMPDEST PUSH2 0x28C PUSH2 0x1129 JUMP JUMPDEST PUSH2 0x351 PUSH1 0x4 DUP1 CALLDATASIZE SUB PUSH1 0x20 DUP2 LT ISZERO PUSH2 0x4A3 JUMPI PUSH1 0x0 DUP1 REVERT JUMPDEST POP CALLDATALOAD PUSH1 0x1 PUSH1 0x1 PUSH1 0xA0 SHL SUB AND PUSH2 0x1135 JUMP JUMPDEST PUSH2 0x3BB PUSH1 0x4 DUP1 CALLDATASIZE SUB PUSH1 0x20 DUP2 LT ISZERO PUSH2 0x4C9 JUMPI PUSH1 0x0 DUP1 REVERT JUMPDEST POP CALLDATALOAD PUSH1 0x1 PUSH1 0x1 PUSH1 0xA0 SHL SUB AND PUSH2 0x12E4 JUMP JUMPDEST PUSH2 0x38B PUSH2 0x139B JUMP JUMPDEST PUSH2 0x38B PUSH1 0x4 DUP1 CALLDATASIZE SUB PUSH1 0x40 DUP2 LT ISZERO PUSH2 0x4F7 JUMPI PUSH1 0x0 DUP1 REVERT JUMPDEST POP PUSH1 0x1 PUSH1 0x1 PUSH1 0xA0 SHL SUB DUP2 CALLDATALOAD AND SWAP1 PUSH1 0x20 ADD CALLDATALOAD PUSH2 0x1510 JUMP JUMPDEST PUSH2 0x28C PUSH2 0x1616 JUMP JUMPDEST PUSH2 0x2B0 PUSH2 0x1621 JUMP JUMPDEST PUSH2 0x38B PUSH1 0x4 DUP1 CALLDATASIZE SUB PUSH1 0x20 DUP2 LT ISZERO PUSH2 0x533 JUMPI PUSH1 0x0 DUP1 REVERT JUMPDEST POP CALLDATALOAD PUSH1 0x1 PUSH1 0x1 PUSH1 0xA0 SHL SUB AND PUSH2 0x16C4 JUMP JUMPDEST PUSH2 0x38B PUSH2 0x17A9 JUMP JUMPDEST PUSH2 0x28C PUSH2 0x1941 JUMP JUMPDEST PUSH2 0x38B PUSH1 0x4 DUP1 CALLDATASIZE SUB PUSH1 0x40 DUP2 LT ISZERO PUSH2 0x569 JUMPI PUSH1 0x0 DUP1 REVERT JUMPDEST POP PUSH1 0x1 PUSH1 0x1 PUSH1 0xA0 SHL SUB DUP2 CALLDATALOAD AND SWAP1 PUSH1 0x20 ADD CALLDATALOAD PUSH2 0x194D JUMP JUMPDEST PUSH2 0x38B PUSH1 0x4 DUP1 CALLDATASIZE SUB PUSH1 0x20 DUP2 LT ISZERO PUSH2 0x595 JUMPI PUSH1 0x0 DUP1 REVERT JUMPDEST POP CALLDATALOAD PUSH1 0x1 PUSH1 0x1 PUSH1 0xA0 SHL SUB AND PUSH2 0x1A54 JUMP JUMPDEST PUSH2 0x3BB PUSH2 0x1C19 JUMP JUMPDEST PUSH2 0x351 PUSH1 0x4 DUP1 CALLDATASIZE SUB PUSH1 0x40 DUP2 LT ISZERO PUSH2 0x5C3 JUMPI PUSH1 0x0 DUP1 REVERT JUMPDEST POP PUSH1 0x1 PUSH1 0x1 PUSH1 0xA0 SHL SUB DUP2 CALLDATALOAD AND SWAP1 PUSH1 0x20 ADD CALLDATALOAD PUSH2 0x1C20 JUMP JUMPDEST PUSH2 0x5E1 PUSH2 0x1DD8 JUMP JUMPDEST PUSH1 0x40 MLOAD DUP1 DUP3 PUSH2 0x300 DUP1 DUP4 DUP4 PUSH1 0x0 JUMPDEST DUP4 DUP2 LT ISZERO PUSH2 0x607 JUMPI DUP2 DUP2 ADD MLOAD DUP4 DUP3 ADD MSTORE PUSH1 0x20 ADD PUSH2 0x5EF JUMP JUMPDEST POP POP POP POP SWAP1 POP ADD SWAP2 POP POP PUSH1 0x40 MLOAD DUP1 SWAP2 SUB SWAP1 RETURN JUMPDEST PUSH2 0x351 PUSH1 0x4 DUP1 CALLDATASIZE SUB PUSH1 0x40 DUP2 LT ISZERO PUSH2 0x630 JUMPI PUSH1 0x0 DUP1 REVERT JUMPDEST POP PUSH1 0x1 PUSH1 0x1 PUSH1 0xA0 SHL SUB DUP2 CALLDATALOAD AND SWAP1 PUSH1 0x20 ADD CALLDATALOAD PUSH2 0x1E3A JUMP JUMPDEST PUSH2 0x351 PUSH2 0x2117 JUMP JUMPDEST PUSH2 0x38B PUSH1 0x4 DUP1 CALLDATASIZE SUB PUSH1 0x20 DUP2 LT ISZERO PUSH2 0x664 JUMPI PUSH1 0x0 DUP1 REVERT JUMPDEST POP CALLDATALOAD PUSH1 0x1 PUSH1 0x1 PUSH1 0xA0 SHL SUB AND PUSH2 0x2123 JUMP JUMPDEST PUSH2 0x38B PUSH2 0x21F9 JUMP JUMPDEST PUSH2 0x28C PUSH2 0x22E6 JUMP JUMPDEST PUSH2 0x3BB PUSH1 0x4 DUP1 CALLDATASIZE SUB PUSH1 0x20 DUP2 LT ISZERO PUSH2 0x69A JUMPI PUSH1 0x0 DUP1 REVERT JUMPDEST POP CALLDATALOAD PUSH2 0x22F2 JUMP JUMPDEST PUSH2 0x28C PUSH2 0x231B JUMP JUMPDEST PUSH2 0x3BB PUSH2 0x2327 JUMP JUMPDEST PUSH2 0x3BB PUSH1 0x4 DUP1 CALLDATASIZE SUB PUSH1 0x40 DUP2 LT ISZERO PUSH2 0x6C7 JUMPI PUSH1 0x0 DUP1 REVERT JUMPDEST POP PUSH1 0x1 PUSH1 0x1 PUSH1 0xA0 SHL SUB DUP2 CALLDATALOAD DUP2 AND SWAP2 PUSH1 0x20 ADD CALLDATALOAD AND PUSH2 0x2331 JUMP JUMPDEST PUSH2 0x3BB PUSH2 0x23DE JUMP JUMPDEST PUSH2 0x351 PUSH1 0x4 DUP1 CALLDATASIZE SUB PUSH1 0x60 DUP2 LT ISZERO PUSH2 0x6FD JUMPI PUSH1 0x0 DUP1 REVERT JUMPDEST POP PUSH1 0x1 PUSH1 0x1 PUSH1 0xA0 SHL SUB DUP2 CALLDATALOAD DUP2 AND SWAP2 PUSH1 0x20 DUP2 ADD CALLDATALOAD SWAP1 SWAP2 AND SWAP1 PUSH1 0x40 ADD CALLDATALOAD PUSH2 0x23E3 JUMP JUMPDEST PUSH2 0x28C PUSH2 0x2678 JUMP JUMPDEST PUSH2 0x28C PUSH2 0x2684 JUMP JUMPDEST PUSH2 0x28C PUSH2 0x269C JUMP JUMPDEST PUSH2 0x38B PUSH1 0x4 DUP1 CALLDATASIZE SUB PUSH1 0x20 DUP2 LT ISZERO PUSH2 0x74B JUMPI PUSH1 0x0 DUP1 REVERT JUMPDEST POP CALLDATALOAD PUSH2 0x26A8 JUMP JUMPDEST PUSH2 0x3BB PUSH2 0x283A JUMP JUMPDEST PUSH2 0x3BB PUSH1 0x4 DUP1 CALLDATASIZE SUB PUSH1 0x20 DUP2 LT ISZERO PUSH2 0x770 JUMPI PUSH1 0x0 DUP1 REVERT JUMPDEST POP CALLDATALOAD PUSH1 0x1 PUSH1 0x1 PUSH1 0xA0 SHL SUB AND PUSH2 0x2844 JUMP JUMPDEST PUSH1 0x1 PUSH1 0xB PUSH2 0x78C PUSH2 0x3E16 JUMP JUMPDEST SWAP1 PUSH2 0x100 EXP SWAP1 DIV PUSH1 0x1 PUSH1 0x1 PUSH1 0xA0 SHL SUB AND DUP2 JUMP JUMPDEST PUSH1 0x8 DUP1 PUSH2 0x7AA PUSH2 0x3E16 JUMP JUMPDEST PUSH1 0x1 DUP2 PUSH1 0x1 AND ISZERO PUSH2 0x100 MUL SUB AND PUSH1 0x2 SWAP1 DIV DUP1 PUSH1 0x1F ADD PUSH1 0x20 DUP1 SWAP2 DIV MUL PUSH1 0x20 ADD PUSH1 0x40 MLOAD SWAP1 DUP2 ADD PUSH1 0x40 MSTORE DUP1 SWAP3 SWAP2 SWAP1 DUP2 DUP2 MSTORE PUSH1 0x20 ADD DUP3 DUP1 PUSH2 0x7E5 PUSH2 0x3E16 JUMP JUMPDEST PUSH1 0x1 DUP2 PUSH1 0x1 AND ISZERO PUSH2 0x100 MUL SUB AND PUSH1 0x2 SWAP1 DIV DUP1 ISZERO PUSH2 0x851 JUMPI DUP1 PUSH1 0x1F LT PUSH2 0x81F JUMPI PUSH2 0x100 DUP1 DUP4 PUSH2 0x811 PUSH2 0x3E16 JUMP JUMPDEST DIV MUL DUP4 MSTORE SWAP2 PUSH1 0x20 ADD SWAP2 PUSH2 0x851 JUMP JUMPDEST DUP3 ADD SWAP2 SWAP1 PUSH1 0x0 MSTORE PUSH1 0x20 PUSH1 0x0 KECCAK256 SWAP1 JUMPDEST DUP2 PUSH2 0x836 PUSH2 0x3E16 JUMP JUMPDEST DUP2 MSTORE SWAP1 PUSH1 0x1 ADD SWAP1 PUSH1 0x20 ADD DUP1 DUP4 GT PUSH2 0x82D JUMPI DUP3 SWAP1 SUB PUSH1 0x1F AND DUP3 ADD SWAP2 JUMPDEST POP POP POP POP POP DUP2 JUMP JUMPDEST PUSH1 0x0 DUP1 PUSH1 0x4 PUSH2 0x866 PUSH2 0x3E16 JUMP JUMPDEST SWAP1 PUSH2 0x100 EXP SWAP1 DIV PUSH1 0x1 PUSH1 0x1 PUSH1 0xA0 SHL SUB AND PUSH1 0x1 PUSH1 0x1 PUSH1 0xA0 SHL SUB AND GAS PUSH2 0x888 PUSH2 0x3E4F JUMP JUMPDEST PUSH1 0x1 PUSH1 0x1 PUSH1 0xA0 SHL SUB AND EQ ISZERO DUP1 ISZERO PUSH2 0x8D4 JUMPI POP PUSH1 0x0 PUSH1 0x5 PUSH2 0x8A6 PUSH2 0x3E16 JUMP JUMPDEST SWAP1 PUSH2 0x100 EXP SWAP1 DIV PUSH1 0x1 PUSH1 0x1 PUSH1 0xA0 SHL SUB AND PUSH1 0x1 PUSH1 0x1 PUSH1 0xA0 SHL SUB AND GAS PUSH2 0x8C8 PUSH2 0x3E4F JUMP JUMPDEST PUSH1 0x1 PUSH1 0x1 PUSH1 0xA0 SHL SUB AND EQ ISZERO JUMPDEST DUP1 ISZERO PUSH2 0x915 JUMPI POP GAS PUSH2 0x8E4 PUSH2 0x3E4F JUMP JUMPDEST PUSH1 0x1 PUSH1 0x1 PUSH1 0xA0 SHL SUB AND PUSH1 0x0 PUSH1 0x6 PUSH2 0x8F9 PUSH2 0x3E16 JUMP JUMPDEST SWAP1 PUSH2 0x100 EXP SWAP1 DIV PUSH1 0x1 PUSH1 0x1 PUSH1 0xA0 SHL SUB AND PUSH1 0x1 PUSH1 0x1 PUSH1 0xA0 SHL SUB AND EQ ISZERO JUMPDEST ISZERO PUSH2 0x956 JUMPI GAS PUSH2 0x923 PUSH2 0x3E4F JUMP JUMPDEST PUSH1 0x6 PUSH1 0x1 DUP2 PUSH2 0x930 PUSH2 0x3E16 JUMP JUMPDEST DUP2 PUSH1 0x1 PUSH1 0x1 PUSH1 0xA0 SHL SUB MUL NOT AND SWAP1 DUP4 PUSH1 0x1 PUSH1 0x1 PUSH1 0xA0 SHL SUB AND MUL OR SWAP1 PUSH2 0x952 PUSH2 0x3E74 JUMP JUMPDEST POP POP POP JUMPDEST PUSH1 0x0 DUP1 PUSH1 0x6 PUSH2 0x963 PUSH2 0x3E16 JUMP JUMPDEST SWAP1 PUSH2 0x100 EXP SWAP1 DIV PUSH1 0x1 PUSH1 0x1 PUSH1 0xA0 SHL SUB AND SWAP1 POP PUSH1 0x7 PUSH1 0x0 SWAP1 PUSH2 0x982 PUSH2 0x3E16 JUMP JUMPDEST PUSH1 0x40 DUP1 MLOAD PUSH4 0x36918263 PUSH1 0xE2 SHL DUP2 MSTORE PUSH1 0x1 PUSH1 0x1 PUSH1 0xA0 SHL SUB DUP6 DUP2 AND PUSH1 0x4 DUP4 ADD MSTORE DUP9 DUP2 AND PUSH1 0x24 DUP4 ADD MSTORE PUSH1 0x44 DUP3 ADD DUP9 SWAP1 MSTORE SWAP2 MLOAD PUSH2 0x100 SWAP5 SWAP1 SWAP5 EXP SWAP1 SWAP3 DIV AND SWAP2 PUSH4 0xDA46098C SWAP2 PUSH1 0x64 DUP1 DUP3 ADD SWAP3 PUSH1 0x0 SWAP3 SWAP1 SWAP2 SWAP1 DUP3 SWAP1 SUB ADD DUP2 DUP4 DUP8 DUP1 PUSH2 0x9DF PUSH2 0x3EAD JUMP JUMPDEST ISZERO DUP1 ISZERO PUSH2 0x9EB JUMPI PUSH1 0x0 DUP1 REVERT JUMPDEST POP GAS PUSH2 0x9F5 PUSH2 0x3EDF JUMP JUMPDEST POP POP POP POP POP POP ISZERO DUP1 ISZERO PUSH2 0xA0C JUMPI RETURNDATASIZE PUSH1 0x0 DUP1 RETURNDATACOPY RETURNDATASIZE PUSH1 0x0 REVERT JUMPDEST POP POP POP POP PUSH2 0xA1B DUP2 DUP6 DUP6 PUSH2 0x29D5 JUMP JUMPDEST PUSH1 0x1 SWAP2 POP POP JUMPDEST SWAP3 SWAP2 POP POP JUMP JUMPDEST PUSH1 0x0 DUP1 PUSH2 0xA32 PUSH2 0x3E16 JUMP JUMPDEST SWAP1 PUSH2 0x100 EXP SWAP1 DIV PUSH1 0x1 PUSH1 0x1 PUSH1 0xA0 SHL SUB AND PUSH1 0x1 PUSH1 0x1 PUSH1 0xA0 SHL SUB AND GAS PUSH2 0xA54 PUSH2 0x3E4F JUMP JUMPDEST PUSH1 0x1 PUSH1 0x1 PUSH1 0xA0 SHL SUB AND EQ PUSH2 0xA99 JUMPI PUSH1 0x40 MLOAD PUSH3 0x461BCD PUSH1 0xE5 SHL DUP2 MSTORE PUSH1 0x4 ADD DUP1 DUP1 PUSH1 0x20 ADD DUP3 DUP2 SUB DUP3 MSTORE PUSH1 0x2F DUP2 MSTORE PUSH1 0x20 ADD DUP1 PUSH2 0x40A7 PUSH1 0x2F SWAP2 CODECOPY PUSH1 0x40 ADD SWAP2 POP POP PUSH1 0x40 MLOAD DUP1 SWAP2 SUB SWAP1 REVERT JUMPDEST DUP1 PUSH1 0x5 PUSH1 0x1 DUP2 PUSH2 0xAA7 PUSH2 0x3E16 JUMP JUMPDEST DUP2 PUSH1 0x1 PUSH1 0x1 PUSH1 0xA0 SHL SUB MUL NOT AND SWAP1 DUP4 PUSH1 0x1 PUSH1 0x1 PUSH1 0xA0 SHL SUB AND MUL OR SWAP1 PUSH2 0xAC9 PUSH2 0x3E74 JUMP JUMPDEST POP POP POP POP JUMP JUMPDEST PUSH1 0x0 DUP1 PUSH2 0xADA PUSH2 0x3E16 JUMP JUMPDEST SWAP1 PUSH2 0x100 EXP SWAP1 DIV PUSH1 0x1 PUSH1 0x1 PUSH1 0xA0 SHL SUB AND PUSH1 0x1 PUSH1 0x1 PUSH1 0xA0 SHL SUB AND GAS PUSH2 0xAFC PUSH2 0x3E4F JUMP JUMPDEST PUSH1 0x1 PUSH1 0x1 PUSH1 0xA0 SHL SUB AND EQ PUSH2 0xB41 JUMPI PUSH1 0x40 MLOAD PUSH3 0x461BCD PUSH1 0xE5 SHL DUP2 MSTORE PUSH1 0x4 ADD DUP1 DUP1 PUSH1 0x20 ADD DUP3 DUP2 SUB DUP3 MSTORE PUSH1 0x2F DUP2 MSTORE PUSH1 0x20 ADD DUP1 PUSH2 0x40A7 PUSH1 0x2F SWAP2 CODECOPY PUSH1 0x40 ADD SWAP2 POP POP PUSH1 0x40 MLOAD DUP1 SWAP2 SUB SWAP1 REVERT JUMPDEST DUP1 PUSH1 0x1 DUP1 DUP1 PUSH2 0xB4E PUSH2 0x3E16 JUMP JUMPDEST DUP2 PUSH1 0x1 PUSH1 0x1 PUSH1 0xA0 SHL SUB MUL NOT AND SWAP1 DUP4 PUSH1 0x1 PUSH1 0x1 PUSH1 0xA0 SHL SUB AND MUL OR SWAP1 PUSH2 0xB70 PUSH2 0x3E74 JUMP JUMPDEST POP POP PUSH1 0x40 DUP1 MLOAD PUSH1 0x1 PUSH1 0x1 PUSH1 0xA0 SHL SUB DUP5 AND DUP2 MSTORE SWAP1 MLOAD PUSH32 0x906A1C6BD7E3091EA86693DD029A831C19049CE77F1DCE2CE0BAB1CACBABCE22 SWAP3 POP SWAP1 DUP2 SWAP1 SUB PUSH1 0x20 ADD SWAP1 LOG1 POP JUMP JUMPDEST PUSH1 0x2 PUSH2 0xBBD PUSH2 0x3E16 JUMP JUMPDEST DUP2 JUMP JUMPDEST PUSH1 0xA PUSH2 0xBBD PUSH2 0x3E16 JUMP JUMPDEST PUSH1 0x0 DUP1 PUSH2 0xBD5 PUSH2 0x3E16 JUMP JUMPDEST SWAP1 PUSH2 0x100 EXP SWAP1 DIV PUSH1 0x1 PUSH1 0x1 PUSH1 0xA0 SHL SUB AND PUSH1 0x1 PUSH1 0x1 PUSH1 0xA0 SHL SUB AND GAS PUSH2 0xBF7 PUSH2 0x3E4F JUMP JUMPDEST PUSH1 0x1 PUSH1 0x1 PUSH1 0xA0 SHL SUB AND EQ PUSH2 0xC3C JUMPI PUSH1 0x40 MLOAD PUSH3 0x461BCD PUSH1 0xE5 SHL DUP2 MSTORE PUSH1 0x4 ADD DUP1 DUP1 PUSH1 0x20 ADD DUP3 DUP2 SUB DUP3 MSTORE PUSH1 0x2F DUP2 MSTORE PUSH1 0x20 ADD DUP1 PUSH2 0x40A7 PUSH1 0x2F SWAP2 CODECOPY PUSH1 0x40 ADD SWAP2 POP POP PUSH1 0x40 MLOAD DUP1 SWAP2 SUB SWAP1 REVERT JUMPDEST PUSH1 0x1 PUSH1 0x1 PUSH1 0xA0 SHL SUB DUP2 AND PUSH2 0xC97 JUMPI PUSH1 0x40 DUP1 MLOAD PUSH3 0x461BCD PUSH1 0xE5 SHL DUP2 MSTORE PUSH1 0x20 PUSH1 0x4 DUP3 ADD MSTORE PUSH1 0x1C PUSH1 0x24 DUP3 ADD MSTORE PUSH32 0x42656E6566696369617279206D757374206E6F74206265207A65726F00000000 PUSH1 0x44 DUP3 ADD MSTORE SWAP1 MLOAD SWAP1 DUP2 SWAP1 SUB PUSH1 0x64 ADD SWAP1 REVERT JUMPDEST DUP1 PUSH1 0x3 PUSH2 0x100 DUP2 PUSH2 0xCA6 PUSH2 0x3E16 JUMP JUMPDEST DUP2 PUSH1 0x1 PUSH1 0x1 PUSH1 0xA0 SHL SUB MUL NOT AND SWAP1 DUP4 PUSH1 0x1 PUSH1 0x1 PUSH1 0xA0 SHL SUB AND MUL OR SWAP1 PUSH2 0xCC8 PUSH2 0x3E74 JUMP JUMPDEST POP POP PUSH1 0x40 DUP1 MLOAD PUSH1 0x1 PUSH1 0x1 PUSH1 0xA0 SHL SUB DUP5 AND DUP2 MSTORE SWAP1 MLOAD PUSH32 0xD5DA63A0B864B315BC04128DEDBC93888C8529EE6CF47CE664DC204339228C53 SWAP3 POP SWAP1 DUP2 SWAP1 SUB PUSH1 0x20 ADD SWAP1 LOG1 POP JUMP JUMPDEST PUSH1 0x0 DUP1 PUSH1 0x4 PUSH2 0xD18 PUSH2 0x3E16 JUMP JUMPDEST SWAP1 PUSH2 0x100 EXP SWAP1 DIV PUSH1 0x1 PUSH1 0x1 PUSH1 0xA0 SHL SUB AND PUSH1 0x1 PUSH1 0x1 PUSH1 0xA0 SHL SUB AND GAS PUSH2 0xD3A PUSH2 0x3E4F JUMP JUMPDEST PUSH1 0x1 PUSH1 0x1 PUSH1 0xA0 SHL SUB AND EQ ISZERO DUP1 ISZERO PUSH2 0xD86 JUMPI POP PUSH1 0x0 PUSH1 0x5 PUSH2 0xD58 PUSH2 0x3E16 JUMP JUMPDEST SWAP1 PUSH2 0x100 EXP SWAP1 DIV PUSH1 0x1 PUSH1 0x1 PUSH1 0xA0 SHL SUB AND PUSH1 0x1 PUSH1 0x1 PUSH1 0xA0 SHL SUB AND GAS PUSH2 0xD7A PUSH2 0x3E4F JUMP JUMPDEST PUSH1 0x1 PUSH1 0x1 PUSH1 0xA0 SHL SUB AND EQ ISZERO JUMPDEST DUP1 ISZERO PUSH2 0xDC7 JUMPI POP GAS PUSH2 0xD96 PUSH2 0x3E4F JUMP JUMPDEST PUSH1 0x1 PUSH1 0x1 PUSH1 0xA0 SHL SUB AND PUSH1 0x0 PUSH1 0x6 PUSH2 0xDAB PUSH2 0x3E16 JUMP JUMPDEST SWAP1 PUSH2 0x100 EXP SWAP1 DIV PUSH1 0x1 PUSH1 0x1 PUSH1 0xA0 SHL SUB AND PUSH1 0x1 PUSH1 0x1 PUSH1 0xA0 SHL SUB AND EQ ISZERO JUMPDEST ISZERO PUSH2 0xE08 JUMPI GAS PUSH2 0xDD5 PUSH2 0x3E4F JUMP JUMPDEST PUSH1 0x6 PUSH1 0x1 DUP2 PUSH2 0xDE2 PUSH2 0x3E16 JUMP JUMPDEST DUP2 PUSH1 0x1 PUSH1 0x1 PUSH1 0xA0 SHL SUB MUL NOT AND SWAP1 DUP4 PUSH1 0x1 PUSH1 0x1 PUSH1 0xA0 SHL SUB AND MUL OR SWAP1 PUSH2 0xE04 PUSH2 0x3E74 JUMP JUMPDEST POP POP POP JUMPDEST PUSH2 0xE12 DUP5 DUP4 PUSH2 0x2B34 JUMP JUMPDEST PUSH2 0xE1D DUP5 DUP5 DUP5 PUSH2 0x2CDF JUMP JUMPDEST SWAP5 SWAP4 POP POP POP POP JUMP JUMPDEST PUSH1 0x12 DUP2 JUMP JUMPDEST PUSH1 0x0 PUSH1 0xB PUSH2 0xE36 PUSH2 0x3E16 JUMP JUMPDEST SWAP1 PUSH2 0x100 EXP SWAP1 DIV PUSH1 0xFF AND DUP2 JUMP JUMPDEST PUSH1 0x0 DUP1 PUSH2 0xE4E PUSH2 0x3E16 JUMP JUMPDEST SWAP1 PUSH2 0x100 EXP SWAP1 DIV PUSH1 0x1 PUSH1 0x1 PUSH1 0xA0 SHL SUB AND PUSH1 0x1 PUSH1 0x1 PUSH1 0xA0 SHL SUB AND GAS PUSH2 0xE70 PUSH2 0x3E4F JUMP JUMPDEST PUSH1 0x1 PUSH1 0x1 PUSH1 0xA0 SHL SUB AND EQ PUSH2 0xEB5 JUMPI PUSH1 0x40 MLOAD PUSH3 0x461BCD PUSH1 0xE5 SHL DUP2 MSTORE PUSH1 0x4 ADD DUP1 DUP1 PUSH1 0x20 ADD DUP3 DUP2 SUB DUP3 MSTORE PUSH1 0x2F DUP2 MSTORE PUSH1 0x20 ADD DUP1 PUSH2 0x40A7 PUSH1 0x2F SWAP2 CODECOPY PUSH1 0x40 ADD SWAP2 POP POP PUSH1 0x40 MLOAD DUP1 SWAP2 SUB SWAP1 REVERT JUMPDEST PUSH1 0x0 DUP1 PUSH1 0x2 PUSH2 0xEC2 PUSH2 0x3E74 JUMP JUMPDEST POP POP POP PUSH1 0x0 PUSH1 0x3 PUSH1 0x0 PUSH2 0x100 EXP DUP2 PUSH2 0xED8 PUSH2 0x3E16 JUMP JUMPDEST DUP2 PUSH1 0xFF MUL NOT AND SWAP1 DUP4 ISZERO ISZERO MUL OR SWAP1 PUSH2 0xEED PUSH2 0x3E74 JUMP JUMPDEST POP POP PUSH1 0x40 MLOAD PUSH32 0x6ADCC7125002935E0AA31697538EBBD65CFDDF20431EB6ECDCFC3E238BFD082C SWAP2 POP PUSH1 0x0 SWAP1 LOG1 JUMP JUMPDEST PUSH1 0x0 DUP1 PUSH2 0xF26 PUSH2 0x3E16 JUMP JUMPDEST SWAP1 PUSH2 0x100 EXP SWAP1 DIV PUSH1 0x1 PUSH1 0x1 PUSH1 0xA0 SHL SUB AND PUSH1 0x1 PUSH1 0x1 PUSH1 0xA0 SHL SUB AND GAS PUSH2 0xF48 PUSH2 0x3E4F JUMP JUMPDEST PUSH1 0x1 PUSH1 0x1 PUSH1 0xA0 SHL SUB AND EQ PUSH2 0xF8D JUMPI PUSH1 0x40 MLOAD PUSH3 0x461BCD PUSH1 0xE5 SHL DUP2 MSTORE PUSH1 0x4 ADD DUP1 DUP1 PUSH1 0x20 ADD DUP3 DUP2 SUB DUP3 MSTORE PUSH1 0x2F DUP2 MSTORE PUSH1 0x20 ADD DUP1 PUSH2 0x40A7 PUSH1 0x2F SWAP2 CODECOPY PUSH1 0x40 ADD SWAP2 POP POP PUSH1 0x40 MLOAD DUP1 SWAP2 SUB SWAP1 REVERT JUMPDEST DUP1 PUSH1 0xB PUSH2 0x100 DUP2 PUSH2 0xF9C PUSH2 0x3E16 JUMP JUMPDEST DUP2 PUSH1 0x1 PUSH1 0x1 PUSH1 0xA0 SHL SUB MUL NOT AND SWAP1 DUP4 PUSH1 0x1 PUSH1 0x1 PUSH1 0xA0 SHL SUB AND MUL OR SWAP1 PUSH2 0xFBE PUSH2 0x3E74 JUMP JUMPDEST POP PUSH1 0x0 SWAP2 POP POP JUMPDEST PUSH1 0xD DUP1 PUSH2 0xFD0 PUSH2 0x3E16 JUMP JUMPDEST SWAP1 POP DUP2 LT ISZERO PUSH2 0x1125 JUMPI PUSH1 0x0 PUSH1 0xD DUP3 DUP2 PUSH2 0xFE7 PUSH2 0x3E16 JUMP JUMPDEST DUP2 LT PUSH2 0xFEF JUMPI INVALID JUMPDEST SWAP1 PUSH1 0x0 MSTORE PUSH1 0x20 PUSH1 0x0 KECCAK256 ADD PUSH2 0x1001 PUSH2 0x3E16 JUMP JUMPDEST SWAP1 POP PUSH1 0x1 PUSH1 0xB PUSH2 0x100F PUSH2 0x3E16 JUMP JUMPDEST SWAP1 PUSH2 0x100 EXP SWAP1 DIV PUSH1 0x1 PUSH1 0x1 PUSH1 0xA0 SHL SUB AND PUSH1 0x1 PUSH1 0x1 PUSH1 0xA0 SHL SUB AND PUSH4 0xDACB2D01 DUP3 PUSH1 0x40 MLOAD DUP3 PUSH4 0xFFFFFFFF AND PUSH1 0xE0 SHL DUP2 MSTORE PUSH1 0x4 ADD DUP1 DUP3 DUP2 MSTORE PUSH1 0x20 ADD DUP1 PUSH1 0x20 ADD DUP3 DUP2 SUB DUP3 MSTORE PUSH1 0x17 DUP2 MSTORE PUSH1 0x20 ADD DUP1 PUSH32 0x5265736F6C766572206D697373696E6720746172676574000000000000000000 DUP2 MSTORE POP PUSH1 0x20 ADD SWAP3 POP POP POP PUSH1 0x20 PUSH1 0x40 MLOAD DUP1 DUP4 SUB DUP2 DUP7 DUP1 PUSH2 0x1096 PUSH2 0x3EAD JUMP JUMPDEST ISZERO DUP1 ISZERO PUSH2 0x10A2 JUMPI PUSH1 0x0 DUP1 REVERT JUMPDEST POP GAS PUSH2 0x10AC PUSH2 0x3F37 JUMP JUMPDEST POP POP POP POP POP ISZERO DUP1 ISZERO PUSH2 0x10C2 JUMPI RETURNDATASIZE PUSH1 0x0 DUP1 RETURNDATACOPY RETURNDATASIZE PUSH1 0x0 REVERT JUMPDEST POP POP POP POP PUSH1 0x40 MLOAD RETURNDATASIZE PUSH1 0x20 DUP2 LT ISZERO PUSH2 0x10D8 JUMPI PUSH1 0x0 DUP1 REVERT JUMPDEST POP MLOAD PUSH1 0x0 DUP3 DUP2 MSTORE PUSH1 0xC PUSH1 0x20 MSTORE PUSH1 0x40 SWAP1 KECCAK256 PUSH1 0x1 DUP2 PUSH2 0x10F3 PUSH2 0x3E16 JUMP JUMPDEST DUP2 PUSH1 0x1 PUSH1 0x1 PUSH1 0xA0 SHL SUB MUL NOT AND SWAP1 DUP4 PUSH1 0x1 PUSH1 0x1 PUSH1 0xA0 SHL SUB AND MUL OR SWAP1 PUSH2 0x1115 PUSH2 0x3E74 JUMP JUMPDEST POP POP PUSH1 0x1 SWAP1 SWAP3 ADD SWAP2 POP PUSH2 0xFC5 SWAP1 POP JUMP JUMPDEST POP POP JUMP JUMPDEST PUSH1 0x0 PUSH1 0x1 PUSH2 0x78C PUSH2 0x3E16 JUMP JUMPDEST PUSH1 0x0 PUSH1 0x1 PUSH1 0x1 PUSH1 0xA0 SHL SUB DUP3 AND PUSH1 0x1 PUSH1 0xB PUSH2 0x114D PUSH2 0x3E16 JUMP JUMPDEST SWAP1 PUSH2 0x100 EXP SWAP1 DIV PUSH1 0x1 PUSH1 0x1 PUSH1 0xA0 SHL SUB AND PUSH1 0x1 PUSH1 0x1 PUSH1 0xA0 SHL SUB AND EQ PUSH2 0x1173 JUMPI POP PUSH1 0x0 PUSH2 0x12DF JUMP JUMPDEST PUSH1 0x0 JUMPDEST PUSH1 0xD DUP1 PUSH2 0x1181 PUSH2 0x3E16 JUMP JUMPDEST SWAP1 POP DUP2 LT ISZERO PUSH2 0x12D9 JUMPI PUSH1 0x0 PUSH1 0xD DUP3 DUP2 PUSH2 0x1198 PUSH2 0x3E16 JUMP JUMPDEST DUP2 LT PUSH2 0x11A0 JUMPI INVALID JUMPDEST SWAP1 PUSH1 0x0 MSTORE PUSH1 0x20 PUSH1 0x0 KECCAK256 ADD PUSH2 0x11B2 PUSH2 0x3E16 JUMP JUMPDEST PUSH1 0x0 DUP2 DUP2 MSTORE PUSH1 0xC PUSH1 0x20 MSTORE PUSH1 0x40 DUP2 KECCAK256 SWAP2 SWAP3 POP SWAP1 PUSH2 0x11CC PUSH2 0x3E16 JUMP JUMPDEST PUSH1 0x1 PUSH1 0x1 PUSH1 0xA0 SHL SUB PUSH2 0x100 SWAP3 SWAP1 SWAP3 EXP SWAP1 DIV AND PUSH1 0x1 PUSH1 0xB PUSH2 0x11EA PUSH2 0x3E16 JUMP JUMPDEST SWAP1 PUSH2 0x100 EXP SWAP1 DIV PUSH1 0x1 PUSH1 0x1 PUSH1 0xA0 SHL SUB AND PUSH1 0x1 PUSH1 0x1 PUSH1 0xA0 SHL SUB AND PUSH4 0x21F8A721 DUP4 PUSH1 0x40 MLOAD DUP3 PUSH4 0xFFFFFFFF AND PUSH1 0xE0 SHL DUP2 MSTORE PUSH1 0x4 ADD DUP1 DUP3 DUP2 MSTORE PUSH1 0x20 ADD SWAP2 POP POP PUSH1 0x20 PUSH1 0x40 MLOAD DUP1 DUP4 SUB DUP2 DUP7 DUP1 PUSH2 0x1238 PUSH2 0x3EAD JUMP JUMPDEST ISZERO DUP1 ISZERO PUSH2 0x1244 JUMPI PUSH1 0x0 DUP1 REVERT JUMPDEST POP GAS PUSH2 0x124E PUSH2 0x3F37 JUMP JUMPDEST POP POP POP POP POP ISZERO DUP1 ISZERO PUSH2 0x1264 JUMPI RETURNDATASIZE PUSH1 0x0 DUP1 RETURNDATACOPY RETURNDATASIZE PUSH1 0x0 REVERT JUMPDEST POP POP POP POP PUSH1 0x40 MLOAD RETURNDATASIZE PUSH1 0x20 DUP2 LT ISZERO PUSH2 0x127A JUMPI PUSH1 0x0 DUP1 REVERT JUMPDEST POP MLOAD PUSH1 0x1 PUSH1 0x1 PUSH1 0xA0 SHL SUB AND EQ ISZERO DUP1 PUSH2 0x12C0 JUMPI POP PUSH1 0x0 DUP2 DUP2 MSTORE PUSH1 0xC PUSH1 0x20 MSTORE PUSH1 0x40 DUP2 KECCAK256 DUP2 SWAP1 PUSH2 0x12A5 PUSH2 0x3E16 JUMP JUMPDEST SWAP1 PUSH2 0x100 EXP SWAP1 DIV PUSH1 0x1 PUSH1 0x1 PUSH1 0xA0 SHL SUB AND PUSH1 0x1 PUSH1 0x1 PUSH1 0xA0 SHL SUB AND EQ JUMPDEST ISZERO PUSH2 0x12D0 JUMPI PUSH1 0x0 SWAP3 POP POP POP PUSH2 0x12DF JUMP JUMPDEST POP PUSH1 0x1 ADD PUSH2 0x1176 JUMP JUMPDEST POP PUSH1 0x1 SWAP1 POP JUMPDEST SWAP2 SWAP1 POP JUMP JUMPDEST PUSH1 0x0 DUP1 PUSH1 0x7 PUSH2 0x12F1 PUSH2 0x3E16 JUMP JUMPDEST SWAP1 PUSH2 0x100 EXP SWAP1 DIV PUSH1 0x1 PUSH1 0x1 PUSH1 0xA0 SHL SUB AND PUSH1 0x1 PUSH1 0x1 PUSH1 0xA0 SHL SUB AND PUSH4 0x70A08231 DUP4 PUSH1 0x40 MLOAD DUP3 PUSH4 0xFFFFFFFF AND PUSH1 0xE0 SHL DUP2 MSTORE PUSH1 0x4 ADD DUP1 DUP3 PUSH1 0x1 PUSH1 0x1 PUSH1 0xA0 SHL SUB AND PUSH1 0x1 PUSH1 0x1 PUSH1 0xA0 SHL SUB AND DUP2 MSTORE PUSH1 0x20 ADD SWAP2 POP POP PUSH1 0x20 PUSH1 0x40 MLOAD DUP1 DUP4 SUB DUP2 DUP7 DUP1 PUSH2 0x1351 PUSH2 0x3EAD JUMP JUMPDEST ISZERO DUP1 ISZERO PUSH2 0x135D JUMPI PUSH1 0x0 DUP1 REVERT JUMPDEST POP GAS PUSH2 0x1367 PUSH2 0x3F37 JUMP JUMPDEST POP POP POP POP POP ISZERO DUP1 ISZERO PUSH2 0x137D JUMPI RETURNDATASIZE PUSH1 0x0 DUP1 RETURNDATACOPY RETURNDATASIZE PUSH1 0x0 REVERT JUMPDEST POP POP POP POP PUSH1 0x40 MLOAD RETURNDATASIZE PUSH1 0x20 DUP2 LT ISZERO PUSH2 0x1393 JUMPI PUSH1 0x0 DUP1 REVERT JUMPDEST POP MLOAD SWAP3 SWAP2 POP POP JUMP JUMPDEST PUSH1 0x0 PUSH1 0x1 PUSH2 0x13A7 PUSH2 0x3E16 JUMP JUMPDEST SWAP1 PUSH2 0x100 EXP SWAP1 DIV PUSH1 0x1 PUSH1 0x1 PUSH1 0xA0 SHL SUB AND PUSH1 0x1 PUSH1 0x1 PUSH1 0xA0 SHL SUB AND GAS PUSH2 0x13C9 PUSH2 0x3E4F JUMP JUMPDEST PUSH1 0x1 PUSH1 0x1 PUSH1 0xA0 SHL SUB AND EQ PUSH2 0x140E JUMPI PUSH1 0x40 MLOAD PUSH3 0x461BCD PUSH1 0xE5 SHL DUP2 MSTORE PUSH1 0x4 ADD DUP1 DUP1 PUSH1 0x20 ADD DUP3 DUP2 SUB DUP3 MSTORE PUSH1 0x35 DUP2 MSTORE PUSH1 0x20 ADD DUP1 PUSH2 0x3FD4 PUSH1 0x35 SWAP2 CODECOPY PUSH1 0x40 ADD SWAP2 POP POP PUSH1 0x40 MLOAD DUP1 SWAP2 SUB SWAP1 REVERT JUMPDEST PUSH32 0xB532073B38C83145E3E5135377A08BF9AAB55BC0FD7C1179CD4FB995D2A5159C PUSH1 0x0 DUP1 PUSH2 0x143A PUSH2 0x3E16 JUMP JUMPDEST SWAP1 PUSH2 0x100 EXP SWAP1 DIV PUSH1 0x1 PUSH1 0x1 PUSH1 0xA0 SHL SUB AND PUSH1 0x1 PUSH1 0x0 SWAP1 PUSH2 0x1457 PUSH2 0x3E16 JUMP JUMPDEST PUSH1 0x40 DUP1 MLOAD PUSH1 0x1 PUSH1 0x1 PUSH1 0xA0 SHL SUB SWAP5 DUP6 AND DUP2 MSTORE PUSH2 0x100 SWAP4 SWAP1 SWAP4 EXP SWAP1 SWAP2 DIV SWAP1 SWAP3 AND PUSH1 0x20 DUP3 ADD MSTORE DUP2 MLOAD SWAP1 DUP2 SWAP1 SUB SWAP1 SWAP2 ADD SWAP1 LOG1 PUSH1 0x0 PUSH1 0x1 PUSH2 0x1491 PUSH2 0x3E16 JUMP JUMPDEST SWAP1 PUSH2 0x100 EXP SWAP1 DIV PUSH1 0x1 PUSH1 0x1 PUSH1 0xA0 SHL SUB AND PUSH1 0x0 DUP1 PUSH2 0x100 EXP DUP2 PUSH2 0x14B1 PUSH2 0x3E16 JUMP JUMPDEST DUP2 PUSH1 0x1 PUSH1 0x1 PUSH1 0xA0 SHL SUB MUL NOT AND SWAP1 DUP4 PUSH1 0x1 PUSH1 0x1 PUSH1 0xA0 SHL SUB AND MUL OR SWAP1 PUSH2 0x14D3 PUSH2 0x3E74 JUMP JUMPDEST POP POP POP PUSH1 0x0 PUSH1 0x1 PUSH1 0x0 PUSH2 0x100 EXP DUP2 PUSH2 0x14E9 PUSH2 0x3E16 JUMP JUMPDEST DUP2 PUSH1 0x1 PUSH1 0x1 PUSH1 0xA0 SHL SUB MUL NOT AND SWAP1 DUP4 PUSH1 0x1 PUSH1 0x1 PUSH1 0xA0 SHL SUB AND MUL OR SWAP1 PUSH2 0x150B PUSH2 0x3E74 JUMP JUMPDEST POP POP POP JUMP JUMPDEST PUSH1 0x0 PUSH2 0x151A PUSH2 0x2F95 JUMP JUMPDEST PUSH1 0x1 PUSH1 0x1 PUSH1 0xA0 SHL SUB AND GAS PUSH2 0x152C PUSH2 0x3E4F JUMP JUMPDEST PUSH1 0x1 PUSH1 0x1 PUSH1 0xA0 SHL SUB AND EQ SWAP1 POP PUSH1 0x0 PUSH2 0x1542 PUSH2 0x2FE5 JUMP JUMPDEST PUSH1 0x1 PUSH1 0x1 PUSH1 0xA0 SHL SUB AND GAS PUSH2 0x1554 PUSH2 0x3E4F JUMP JUMPDEST PUSH1 0x1 PUSH1 0x1 PUSH1 0xA0 SHL SUB AND EQ SWAP1 POP PUSH1 0x0 PUSH2 0x156A PUSH2 0x3032 JUMP JUMPDEST PUSH1 0x1 PUSH1 0x1 PUSH1 0xA0 SHL SUB AND GAS PUSH2 0x157C PUSH2 0x3E4F JUMP JUMPDEST PUSH1 0x1 PUSH1 0x1 PUSH1 0xA0 SHL SUB AND EQ SWAP1 POP PUSH1 0x0 PUSH2 0x1592 PUSH2 0x3075 JUMP JUMPDEST PUSH1 0x1 PUSH1 0x1 PUSH1 0xA0 SHL SUB AND GAS PUSH2 0x15A4 PUSH2 0x3E4F JUMP JUMPDEST PUSH1 0x1 PUSH1 0x1 PUSH1 0xA0 SHL SUB AND EQ SWAP1 POP DUP4 DUP1 PUSH2 0x15B9 JUMPI POP DUP3 JUMPDEST DUP1 PUSH2 0x15C1 JUMPI POP DUP2 JUMPDEST DUP1 PUSH2 0x15C9 JUMPI POP DUP1 JUMPDEST PUSH2 0x1604 JUMPI PUSH1 0x40 MLOAD PUSH3 0x461BCD PUSH1 0xE5 SHL DUP2 MSTORE PUSH1 0x4 ADD DUP1 DUP1 PUSH1 0x20 ADD DUP3 DUP2 SUB DUP3 MSTORE PUSH1 0x44 DUP2 MSTORE PUSH1 0x20 ADD DUP1 PUSH2 0x4038 PUSH1 0x44 SWAP2 CODECOPY PUSH1 0x60 ADD SWAP2 POP POP PUSH1 0x40 MLOAD DUP1 SWAP2 SUB SWAP1 REVERT JUMPDEST PUSH2 0x160E DUP7 DUP7 PUSH2 0x30A2 JUMP JUMPDEST POP POP POP POP POP POP JUMP JUMPDEST PUSH1 0x0 DUP1 PUSH2 0x78C PUSH2 0x3E16 JUMP JUMPDEST PUSH1 0x9 DUP1 PUSH2 0x162C PUSH2 0x3E16 JUMP JUMPDEST PUSH1 0x1 DUP2 PUSH1 0x1 AND ISZERO PUSH2 0x100 MUL SUB AND PUSH1 0x2 SWAP1 DIV DUP1 PUSH1 0x1F ADD PUSH1 0x20 DUP1 SWAP2 DIV MUL PUSH1 0x20 ADD PUSH1 0x40 MLOAD SWAP1 DUP2 ADD PUSH1 0x40 MSTORE DUP1 SWAP3 SWAP2 SWAP1 DUP2 DUP2 MSTORE PUSH1 0x20 ADD DUP3 DUP1 PUSH2 0x1667 PUSH2 0x3E16 JUMP JUMPDEST PUSH1 0x1 DUP2 PUSH1 0x1 AND ISZERO PUSH2 0x100 MUL SUB AND PUSH1 0x2 SWAP1 DIV DUP1 ISZERO PUSH2 0x851 JUMPI DUP1 PUSH1 0x1F LT PUSH2 0x1693 JUMPI PUSH2 0x100 DUP1 DUP4 PUSH2 0x811 PUSH2 0x3E16 JUMP JUMPDEST DUP3 ADD SWAP2 SWAP1 PUSH1 0x0 MSTORE PUSH1 0x20 PUSH1 0x0 KECCAK256 SWAP1 JUMPDEST DUP2 PUSH2 0x16AA PUSH2 0x3E16 JUMP JUMPDEST DUP2 MSTORE SWAP1 PUSH1 0x1 ADD SWAP1 PUSH1 0x20 ADD DUP1 DUP4 GT PUSH2 0x16A1 JUMPI POP DUP6 SWAP4 POP POP POP POP JUMP JUMPDEST PUSH1 0x0 DUP1 PUSH2 0x16CF PUSH2 0x3E16 JUMP JUMPDEST SWAP1 PUSH2 0x100 EXP SWAP1 DIV PUSH1 0x1 PUSH1 0x1 PUSH1 0xA0 SHL SUB AND PUSH1 0x1 PUSH1 0x1 PUSH1 0xA0 SHL SUB AND GAS PUSH2 0x16F1 PUSH2 0x3E4F JUMP JUMPDEST PUSH1 0x1 PUSH1 0x1 PUSH1 0xA0 SHL SUB AND EQ PUSH2 0x1736 JUMPI PUSH1 0x40 MLOAD PUSH3 0x461BCD PUSH1 0xE5 SHL DUP2 MSTORE PUSH1 0x4 ADD DUP1 DUP1 PUSH1 0x20 ADD DUP3 DUP2 SUB DUP3 MSTORE PUSH1 0x2F DUP2 MSTORE PUSH1 0x20 ADD DUP1 PUSH2 0x40A7 PUSH1 0x2F SWAP2 CODECOPY PUSH1 0x40 ADD SWAP2 POP POP PUSH1 0x40 MLOAD DUP1 SWAP2 SUB SWAP1 REVERT JUMPDEST DUP1 PUSH1 0x4 PUSH1 0x1 DUP2 PUSH2 0x1744 PUSH2 0x3E16 JUMP JUMPDEST DUP2 PUSH1 0x1 PUSH1 0x1 PUSH1 0xA0 SHL SUB MUL NOT AND SWAP1 DUP4 PUSH1 0x1 PUSH1 0x1 PUSH1 0xA0 SHL SUB AND MUL OR SWAP1 PUSH2 0x1766 PUSH2 0x3E74 JUMP JUMPDEST POP POP PUSH1 0x40 DUP1 MLOAD PUSH1 0x1 PUSH1 0x1 PUSH1 0xA0 SHL SUB DUP5 AND DUP2 MSTORE SWAP1 MLOAD PUSH32 0xFC80377CA9C49CC11AE6982F390A42DB976D5530AF7C43889264B13FBBD7C57E SWAP3 POP SWAP1 DUP2 SWAP1 SUB PUSH1 0x20 ADD SWAP1 LOG1 POP JUMP JUMPDEST PUSH1 0x0 DUP1 PUSH2 0x17B4 PUSH2 0x3E16 JUMP JUMPDEST SWAP1 PUSH2 0x100 EXP SWAP1 DIV PUSH1 0x1 PUSH1 0x1 PUSH1 0xA0 SHL SUB AND PUSH1 0x1 PUSH1 0x1 PUSH1 0xA0 SHL SUB AND GAS PUSH2 0x17D6 PUSH2 0x3E4F JUMP JUMPDEST PUSH1 0x1 PUSH1 0x1 PUSH1 0xA0 SHL SUB AND EQ PUSH2 0x181B JUMPI PUSH1 0x40 MLOAD PUSH3 0x461BCD PUSH1 0xE5 SHL DUP2 MSTORE PUSH1 0x4 ADD DUP1 DUP1 PUSH1 0x20 ADD DUP3 DUP2 SUB DUP3 MSTORE PUSH1 0x2F DUP2 MSTORE PUSH1 0x20 ADD DUP1 PUSH2 0x40A7 PUSH1 0x2F SWAP2 CODECOPY PUSH1 0x40 ADD SWAP2 POP POP PUSH1 0x40 MLOAD DUP1 SWAP2 SUB SWAP1 REVERT JUMPDEST PUSH1 0x0 PUSH1 0x3 PUSH2 0x1827 PUSH2 0x3E16 JUMP JUMPDEST SWAP1 PUSH2 0x100 EXP SWAP1 DIV PUSH1 0xFF AND PUSH2 0x1882 JUMPI PUSH1 0x40 DUP1 MLOAD PUSH3 0x461BCD PUSH1 0xE5 SHL DUP2 MSTORE PUSH1 0x20 PUSH1 0x4 DUP3 ADD MSTORE PUSH1 0x1F PUSH1 0x24 DUP3 ADD MSTORE PUSH32 0x53656C66204465737472756374206E6F742079657420696E6974696174656400 PUSH1 0x44 DUP3 ADD MSTORE SWAP1 MLOAD SWAP1 DUP2 SWAP1 SUB PUSH1 0x64 ADD SWAP1 REVERT JUMPDEST GAS PUSH2 0x188B PUSH2 0x3F8F JUMP JUMPDEST PUSH3 0x24EA00 PUSH1 0x2 PUSH2 0x1899 PUSH2 0x3E16 JUMP JUMPDEST ADD LT PUSH2 0x18EC JUMPI PUSH1 0x40 DUP1 MLOAD PUSH3 0x461BCD PUSH1 0xE5 SHL DUP2 MSTORE PUSH1 0x20 PUSH1 0x4 DUP3 ADD MSTORE PUSH1 0x1B PUSH1 0x24 DUP3 ADD MSTORE PUSH32 0x53656C662064657374727563742064656C6179206E6F74206D65740000000000 PUSH1 0x44 DUP3 ADD MSTORE SWAP1 MLOAD SWAP1 DUP2 SWAP1 SUB PUSH1 0x64 ADD SWAP1 REVERT JUMPDEST PUSH32 0x8A09E1677CED846CB537DC2B172043BD05A1A81AD7E0033A7EF8BA762DF990B7 PUSH1 0x1 PUSH1 0x3 PUSH2 0x1919 PUSH2 0x3E16 JUMP JUMPDEST PUSH1 0x40 DUP1 MLOAD PUSH2 0x100 SWAP4 SWAP1 SWAP4 EXP SWAP1 SWAP2 DIV PUSH1 0x1 PUSH1 0x1 PUSH1 0xA0 SHL SUB AND DUP3 MSTORE MLOAD PUSH1 0x20 SWAP2 DUP2 SWAP1 SUB SWAP2 SWAP1 SWAP2 ADD SWAP1 LOG1 JUMP JUMPDEST PUSH1 0x0 PUSH1 0x5 PUSH2 0x78C PUSH2 0x3E16 JUMP JUMPDEST PUSH1 0x0 PUSH2 0x1957 PUSH2 0x2F95 JUMP JUMPDEST PUSH1 0x1 PUSH1 0x1 PUSH1 0xA0 SHL SUB AND GAS PUSH2 0x1969 PUSH2 0x3E4F JUMP JUMPDEST PUSH1 0x1 PUSH1 0x1 PUSH1 0xA0 SHL SUB AND EQ SWAP1 POP PUSH1 0x0 PUSH2 0x197F PUSH2 0x2FE5 JUMP JUMPDEST PUSH1 0x1 PUSH1 0x1 PUSH1 0xA0 SHL SUB AND GAS PUSH2 0x1991 PUSH2 0x3E4F JUMP JUMPDEST PUSH1 0x1 PUSH1 0x1 PUSH1 0xA0 SHL SUB AND EQ SWAP1 POP PUSH1 0x0 PUSH2 0x19A7 PUSH2 0x3032 JUMP JUMPDEST PUSH1 0x1 PUSH1 0x1 PUSH1 0xA0 SHL SUB AND GAS PUSH2 0x19B9 PUSH2 0x3E4F JUMP JUMPDEST PUSH1 0x1 PUSH1 0x1 PUSH1 0xA0 SHL SUB AND EQ SWAP1 POP PUSH1 0x0 PUSH2 0x19CF PUSH2 0x3075 JUMP JUMPDEST PUSH1 0x1 PUSH1 0x1 PUSH1 0xA0 SHL SUB AND GAS PUSH2 0x19E1 PUSH2 0x3E4F JUMP JUMPDEST PUSH1 0x1 PUSH1 0x1 PUSH1 0xA0 SHL SUB AND EQ SWAP1 POP DUP4 DUP1 PUSH2 0x19F6 JUMPI POP DUP3 JUMPDEST DUP1 PUSH2 0x19FE JUMPI POP DUP2 JUMPDEST DUP1 PUSH2 0x1A06 JUMPI POP DUP1 JUMPDEST PUSH2 0x1A41 JUMPI PUSH1 0x40 MLOAD PUSH3 0x461BCD PUSH1 0xE5 SHL DUP2 MSTORE PUSH1 0x4 ADD DUP1 DUP1 PUSH1 0x20 ADD DUP3 DUP2 SUB DUP3 MSTORE PUSH1 0x44 DUP2 MSTORE PUSH1 0x20 ADD DUP1 PUSH2 0x4038 PUSH1 0x44 SWAP2 CODECOPY PUSH1 0x60 ADD SWAP2 POP POP PUSH1 0x40 MLOAD DUP1 SWAP2 SUB SWAP1 REVERT JUMPDEST PUSH2 0x1A4B DUP7 DUP7 PUSH2 0x323F JUMP JUMPDEST POP POP POP POP POP POP POP JUMP JUMPDEST PUSH1 0x0 PUSH1 0x4 PUSH2 0x1A60 PUSH2 0x3E16 JUMP JUMPDEST SWAP1 PUSH2 0x100 EXP SWAP1 DIV PUSH1 0x1 PUSH1 0x1 PUSH1 0xA0 SHL SUB AND PUSH1 0x1 PUSH1 0x1 PUSH1 0xA0 SHL SUB AND GAS PUSH2 0x1A82 PUSH2 0x3E4F JUMP JUMPDEST PUSH1 0x1 PUSH1 0x1 PUSH1 0xA0 SHL SUB AND EQ ISZERO DUP1 ISZERO PUSH2 0x1ACE JUMPI POP PUSH1 0x0 PUSH1 0x5 PUSH2 0x1AA0 PUSH2 0x3E16 JUMP JUMPDEST SWAP1 PUSH2 0x100 EXP SWAP1 DIV PUSH1 0x1 PUSH1 0x1 PUSH1 0xA0 SHL SUB AND PUSH1 0x1 PUSH1 0x1 PUSH1 0xA0 SHL SUB AND GAS PUSH2 0x1AC2 PUSH2 0x3E4F JUMP JUMPDEST PUSH1 0x1 PUSH1 0x1 PUSH1 0xA0 SHL SUB AND EQ ISZERO JUMPDEST DUP1 ISZERO PUSH2 0x1B0F JUMPI POP GAS PUSH2 0x1ADE PUSH2 0x3E4F JUMP JUMPDEST PUSH1 0x1 PUSH1 0x1 PUSH1 0xA0 SHL SUB AND PUSH1 0x0 PUSH1 0x6 PUSH2 0x1AF3 PUSH2 0x3E16 JUMP JUMPDEST SWAP1 PUSH2 0x100 EXP SWAP1 DIV PUSH1 0x1 PUSH1 0x1 PUSH1 0xA0 SHL SUB AND PUSH1 0x1 PUSH1 0x1 PUSH1 0xA0 SHL SUB AND EQ ISZERO JUMPDEST ISZERO PUSH2 0x1B50 JUMPI GAS PUSH2 0x1B1D PUSH2 0x3E4F JUMP JUMPDEST PUSH1 0x6 PUSH1 0x1 DUP2 PUSH2 0x1B2A PUSH2 0x3E16 JUMP JUMPDEST DUP2 PUSH1 0x1 PUSH1 0x1 PUSH1 0xA0 SHL SUB MUL NOT AND SWAP1 DUP4 PUSH1 0x1 PUSH1 0x1 PUSH1 0xA0 SHL SUB AND MUL OR SWAP1 PUSH2 0x1B4C PUSH2 0x3E74 JUMP JUMPDEST POP POP POP JUMPDEST PUSH1 0x0 DUP1 PUSH2 0x1B5B PUSH2 0x3E16 JUMP JUMPDEST PUSH1 0x1 PUSH1 0x1 PUSH1 0xA0 SHL SUB PUSH2 0x100 SWAP3 SWAP1 SWAP3 EXP SWAP1 DIV AND PUSH1 0x0 PUSH1 0x6 PUSH2 0x1B79 PUSH2 0x3E16 JUMP JUMPDEST SWAP1 PUSH2 0x100 EXP SWAP1 DIV PUSH1 0x1 PUSH1 0x1 PUSH1 0xA0 SHL SUB AND PUSH1 0x1 PUSH1 0x1 PUSH1 0xA0 SHL SUB AND EQ PUSH2 0x1BDA JUMPI PUSH1 0x40 DUP1 MLOAD PUSH3 0x461BCD PUSH1 0xE5 SHL DUP2 MSTORE PUSH1 0x20 PUSH1 0x4 DUP3 ADD MSTORE PUSH1 0x13 PUSH1 0x24 DUP3 ADD MSTORE PUSH19 0x27BBB732B91037B7363C90333AB731BA34B7B7 PUSH1 0x69 SHL PUSH1 0x44 DUP3 ADD MSTORE SWAP1 MLOAD SWAP1 DUP2 SWAP1 SUB PUSH1 0x64 ADD SWAP1 REVERT JUMPDEST DUP1 PUSH1 0x7 PUSH1 0x1 DUP2 PUSH2 0x1BE8 PUSH2 0x3E16 JUMP JUMPDEST DUP2 PUSH1 0x1 PUSH1 0x1 PUSH1 0xA0 SHL SUB MUL NOT AND SWAP1 DUP4 PUSH1 0x1 PUSH1 0x1 PUSH1 0xA0 SHL SUB AND MUL OR SWAP1 PUSH2 0x1C0A PUSH2 0x3E74 JUMP JUMPDEST POP POP POP PUSH2 0x1C16 DUP2 PUSH2 0x3396 JUMP JUMPDEST POP JUMP JUMPDEST PUSH3 0x24EA00 DUP2 JUMP JUMPDEST PUSH1 0x0 DUP1 PUSH1 0x4 PUSH2 0x1C2D PUSH2 0x3E16 JUMP JUMPDEST SWAP1 PUSH2 0x100 EXP SWAP1 DIV PUSH1 0x1 PUSH1 0x1 PUSH1 0xA0 SHL SUB AND PUSH1 0x1 PUSH1 0x1 PUSH1 0xA0 SHL SUB AND GAS PUSH2 0x1C4F PUSH2 0x3E4F JUMP JUMPDEST PUSH1 0x1 PUSH1 0x1 PUSH1 0xA0 SHL SUB AND EQ ISZERO DUP1 ISZERO PUSH2 0x1C9B JUMPI POP PUSH1 0x0 PUSH1 0x5 PUSH2 0x1C6D PUSH2 0x3E16 JUMP JUMPDEST SWAP1 PUSH2 0x100 EXP SWAP1 DIV PUSH1 0x1 PUSH1 0x1 PUSH1 0xA0 SHL SUB AND PUSH1 0x1 PUSH1 0x1 PUSH1 0xA0 SHL SUB AND GAS PUSH2 0x1C8F PUSH2 0x3E4F JUMP JUMPDEST PUSH1 0x1 PUSH1 0x1 PUSH1 0xA0 SHL SUB AND EQ ISZERO JUMPDEST DUP1 ISZERO PUSH2 0x1CDC JUMPI POP GAS PUSH2 0x1CAB PUSH2 0x3E4F JUMP JUMPDEST PUSH1 0x1 PUSH1 0x1 PUSH1 0xA0 SHL SUB AND PUSH1 0x0 PUSH1 0x6 PUSH2 0x1CC0 PUSH2 0x3E16 JUMP JUMPDEST SWAP1 PUSH2 0x100 EXP SWAP1 DIV PUSH1 0x1 PUSH1 0x1 PUSH1 0xA0 SHL SUB AND PUSH1 0x1 PUSH1 0x1 PUSH1 0xA0 SHL SUB AND EQ ISZERO JUMPDEST ISZERO PUSH2 0x1D1D JUMPI GAS PUSH2 0x1CEA PUSH2 0x3E4F JUMP JUMPDEST PUSH1 0x6 PUSH1 0x1 DUP2 PUSH2 0x1CF7 PUSH2 0x3E16 JUMP JUMPDEST DUP2 PUSH1 0x1 PUSH1 0x1 PUSH1 0xA0 SHL SUB MUL NOT AND SWAP1 DUP4 PUSH1 0x1 PUSH1 0x1 PUSH1 0xA0 SHL SUB AND MUL OR SWAP1 PUSH2 0x1D19 PUSH2 0x3E74 JUMP JUMPDEST POP POP POP JUMPDEST PUSH2 0x1D42 PUSH1 0x0 PUSH1 0x6 PUSH2 0x1D2C PUSH2 0x3E16 JUMP JUMPDEST SWAP1 PUSH2 0x100 EXP SWAP1 DIV PUSH1 0x1 PUSH1 0x1 PUSH1 0xA0 SHL SUB AND DUP4 PUSH2 0x2B34 JUMP JUMPDEST PUSH1 0x1 PUSH1 0x1 PUSH1 0xA0 SHL SUB DUP4 AND PUSH20 0xFEEFEEFEEFEEFEEFEEFEEFEEFEEFEEFEEFEEFEEF EQ ISZERO PUSH2 0x1D78 JUMPI PUSH2 0x1D71 DUP4 DUP4 PUSH2 0x3501 JUMP JUMPDEST SWAP1 POP PUSH2 0xA21 JUMP JUMPDEST PUSH1 0x1 PUSH1 0x1 PUSH1 0xA0 SHL SUB DUP4 AND PUSH2 0x1DAB JUMPI PUSH2 0x1D71 PUSH1 0x0 PUSH1 0x6 PUSH2 0x1D95 PUSH2 0x3E16 JUMP JUMPDEST SWAP1 PUSH2 0x100 EXP SWAP1 DIV PUSH1 0x1 PUSH1 0x1 PUSH1 0xA0 SHL SUB AND DUP4 PUSH2 0x323F JUMP JUMPDEST PUSH2 0x1DD1 PUSH1 0x0 PUSH1 0x6 PUSH2 0x1DBA PUSH2 0x3E16 JUMP JUMPDEST SWAP1 PUSH2 0x100 EXP SWAP1 DIV PUSH1 0x1 PUSH1 0x1 PUSH1 0xA0 SHL SUB AND DUP5 DUP5 PUSH2 0x36C9 JUMP JUMPDEST SWAP4 SWAP3 POP POP POP JUMP JUMPDEST PUSH2 0x1DE0 PUSH2 0x3FB4 JUMP JUMPDEST PUSH1 0x0 JUMPDEST PUSH1 0xD DUP1 PUSH2 0x1DEE PUSH2 0x3E16 JUMP JUMPDEST SWAP1 POP DUP2 LT ISZERO PUSH2 0x1E36 JUMPI PUSH1 0xD DUP2 DUP2 PUSH2 0x1E03 PUSH2 0x3E16 JUMP JUMPDEST DUP2 LT PUSH2 0x1E0B JUMPI INVALID JUMPDEST SWAP1 PUSH1 0x0 MSTORE PUSH1 0x20 PUSH1 0x0 KECCAK256 ADD PUSH2 0x1E1D PUSH2 0x3E16 JUMP JUMPDEST DUP3 DUP3 PUSH1 0x18 DUP2 LT PUSH2 0x1E29 JUMPI INVALID JUMPDEST PUSH1 0x20 MUL ADD MSTORE PUSH1 0x1 ADD PUSH2 0x1DE3 JUMP JUMPDEST POP SWAP1 JUMP JUMPDEST PUSH1 0x0 DUP1 PUSH1 0x4 PUSH2 0x1E47 PUSH2 0x3E16 JUMP JUMPDEST SWAP1 PUSH2 0x100 EXP SWAP1 DIV PUSH1 0x1 PUSH1 0x1 PUSH1 0xA0 SHL SUB AND PUSH1 0x1 PUSH1 0x1 PUSH1 0xA0 SHL SUB AND GAS PUSH2 0x1E69 PUSH2 0x3E4F JUMP JUMPDEST PUSH1 0x1 PUSH1 0x1 PUSH1 0xA0 SHL SUB AND EQ ISZERO DUP1 ISZERO PUSH2 0x1EB5 JUMPI POP PUSH1 0x0 PUSH1 0x5 PUSH2 0x1E87 PUSH2 0x3E16 JUMP JUMPDEST SWAP1 PUSH2 0x100 EXP SWAP1 DIV PUSH1 0x1 PUSH1 0x1 PUSH1 0xA0 SHL SUB AND PUSH1 0x1 PUSH1 0x1 PUSH1 0xA0 SHL SUB AND GAS PUSH2 0x1EA9 PUSH2 0x3E4F JUMP JUMPDEST PUSH1 0x1 PUSH1 0x1 PUSH1 0xA0 SHL SUB AND EQ ISZERO JUMPDEST DUP1 ISZERO PUSH2 0x1EF6 JUMPI POP GAS PUSH2 0x1EC5 PUSH2 0x3E4F JUMP JUMPDEST PUSH1 0x1 PUSH1 0x1 PUSH1 0xA0 SHL SUB AND PUSH1 0x0 PUSH1 0x6 PUSH2 0x1EDA PUSH2 0x3E16 JUMP JUMPDEST SWAP1 PUSH2 0x100 EXP SWAP1 DIV PUSH1 0x1 PUSH1 0x1 PUSH1 0xA0 SHL SUB AND PUSH1 0x1 PUSH1 0x1 PUSH1 0xA0 SHL SUB AND EQ ISZERO JUMPDEST ISZERO PUSH2 0x1F37 JUMPI GAS PUSH2 0x1F04 PUSH2 0x3E4F JUMP JUMPDEST PUSH1 0x6 PUSH1 0x1 DUP2 PUSH2 0x1F11 PUSH2 0x3E16 JUMP JUMPDEST DUP2 PUSH1 0x1 PUSH1 0x1 PUSH1 0xA0 SHL SUB MUL NOT AND SWAP1 DUP4 PUSH1 0x1 PUSH1 0x1 PUSH1 0xA0 SHL SUB AND MUL OR SWAP1 PUSH2 0x1F33 PUSH2 0x3E74 JUMP JUMPDEST POP POP POP JUMPDEST PUSH1 0x0 PUSH2 0x1F41 PUSH2 0x2FE5 JUMP JUMPDEST PUSH1 0x1 PUSH1 0x1 PUSH1 0xA0 SHL SUB AND PUSH4 0x1B16802C PUSH1 0x0 PUSH1 0x6 PUSH2 0x1F5B PUSH2 0x3E16 JUMP JUMPDEST SWAP1 PUSH2 0x100 EXP SWAP1 DIV PUSH1 0x1 PUSH1 0x1 PUSH1 0xA0 SHL SUB AND PUSH1 0xE PUSH2 0x1F75 PUSH2 0x3E16 JUMP JUMPDEST PUSH1 0x40 MLOAD DUP4 PUSH4 0xFFFFFFFF AND PUSH1 0xE0 SHL DUP2 MSTORE PUSH1 0x4 ADD DUP1 DUP4 PUSH1 0x1 PUSH1 0x1 PUSH1 0xA0 SHL SUB AND PUSH1 0x1 PUSH1 0x1 PUSH1 0xA0 SHL SUB AND DUP2 MSTORE PUSH1 0x20 ADD DUP3 DUP2 MSTORE PUSH1 0x20 ADD SWAP3 POP POP POP PUSH1 0x60 PUSH1 0x40 MLOAD DUP1 DUP4 SUB DUP2 PUSH1 0x0 DUP8 DUP1 PUSH2 0x1FBF PUSH2 0x3EAD JUMP JUMPDEST ISZERO DUP1 ISZERO PUSH2 0x1FCB JUMPI PUSH1 0x0 DUP1 REVERT JUMPDEST POP GAS PUSH2 0x1FD5 PUSH2 0x3EDF JUMP JUMPDEST POP POP POP POP POP POP ISZERO DUP1 ISZERO PUSH2 0x1FEC JUMPI RETURNDATASIZE PUSH1 0x0 DUP1 RETURNDATACOPY RETURNDATASIZE PUSH1 0x0 REVERT JUMPDEST POP POP POP POP PUSH1 0x40 MLOAD RETURNDATASIZE PUSH1 0x60 DUP2 LT ISZERO PUSH2 0x2002 JUMPI PUSH1 0x0 DUP1 REVERT JUMPDEST POP PUSH1 0x40 ADD MLOAD SWAP1 POP DUP3 DUP2 ISZERO PUSH2 0x20D7 JUMPI PUSH1 0x0 PUSH1 0x7 PUSH2 0x201C PUSH2 0x3E16 JUMP JUMPDEST PUSH1 0x1 PUSH1 0x1 PUSH1 0xA0 SHL SUB PUSH2 0x100 SWAP3 SWAP1 SWAP3 EXP SWAP1 DIV AND PUSH4 0x70A08231 PUSH1 0x0 PUSH1 0x6 PUSH2 0x203F PUSH2 0x3E16 JUMP JUMPDEST SWAP1 PUSH2 0x100 EXP SWAP1 DIV PUSH1 0x1 PUSH1 0x1 PUSH1 0xA0 SHL SUB AND PUSH1 0x40 MLOAD DUP3 PUSH4 0xFFFFFFFF AND PUSH1 0xE0 SHL DUP2 MSTORE PUSH1 0x4 ADD DUP1 DUP3 PUSH1 0x1 PUSH1 0x1 PUSH1 0xA0 SHL SUB AND PUSH1 0x1 PUSH1 0x1 PUSH1 0xA0 SHL SUB AND DUP2 MSTORE PUSH1 0x20 ADD SWAP2 POP POP PUSH1 0x20 PUSH1 0x40 MLOAD DUP1 DUP4 SUB DUP2 DUP7 DUP1 PUSH2 0x2090 PUSH2 0x3EAD JUMP JUMPDEST ISZERO DUP1 ISZERO PUSH2 0x209C JUMPI PUSH1 0x0 DUP1 REVERT JUMPDEST POP GAS PUSH2 0x20A6 PUSH2 0x3F37 JUMP JUMPDEST POP POP POP POP POP ISZERO DUP1 ISZERO PUSH2 0x20BC JUMPI RETURNDATASIZE PUSH1 0x0 DUP1 RETURNDATACOPY RETURNDATASIZE PUSH1 0x0 REVERT JUMPDEST POP POP POP POP PUSH1 0x40 MLOAD RETURNDATASIZE PUSH1 0x20 DUP2 LT ISZERO PUSH2 0x20D2 JUMPI PUSH1 0x0 DUP1 REVERT JUMPDEST POP MLOAD SWAP1 POP JUMPDEST DUP1 DUP5 GT PUSH2 0x20E4 JUMPI DUP4 PUSH2 0x20E6 JUMP JUMPDEST DUP1 JUMPDEST SWAP4 POP PUSH2 0x210E PUSH1 0x0 PUSH1 0x6 PUSH2 0x20F7 PUSH2 0x3E16 JUMP JUMPDEST SWAP1 PUSH2 0x100 EXP SWAP1 DIV PUSH1 0x1 PUSH1 0x1 PUSH1 0xA0 SHL SUB AND DUP7 DUP7 PUSH2 0x36C9 JUMP JUMPDEST SWAP6 SWAP5 POP POP POP POP POP JUMP JUMPDEST PUSH1 0x0 PUSH1 0x3 PUSH2 0xE36 PUSH2 0x3E16 JUMP JUMPDEST PUSH1 0x0 PUSH1 0x4 PUSH2 0x212F PUSH2 0x3E16 JUMP JUMPDEST SWAP1 PUSH2 0x100 EXP SWAP1 DIV PUSH1 0x1 PUSH1 0x1 PUSH1 0xA0 SHL SUB AND PUSH1 0x1 PUSH1 0x1 PUSH1 0xA0 SHL SUB AND GAS PUSH2 0x2151 PUSH2 0x3E4F JUMP JUMPDEST PUSH1 0x1 PUSH1 0x1 PUSH1 0xA0 SHL SUB AND EQ DUP1 PUSH2 0x219A JUMPI POP PUSH1 0x0 PUSH1 0x5 PUSH2 0x216D PUSH2 0x3E16 JUMP JUMPDEST SWAP1 PUSH2 0x100 EXP SWAP1 DIV PUSH1 0x1 PUSH1 0x1 PUSH1 0xA0 SHL SUB AND PUSH1 0x1 PUSH1 0x1 PUSH1 0xA0 SHL SUB AND GAS PUSH2 0x218F PUSH2 0x3E4F JUMP JUMPDEST PUSH1 0x1 PUSH1 0x1 PUSH1 0xA0 SHL SUB AND EQ JUMPDEST PUSH2 0x21EB JUMPI PUSH1 0x40 DUP1 MLOAD PUSH3 0x461BCD PUSH1 0xE5 SHL DUP2 MSTORE PUSH1 0x20 PUSH1 0x4 DUP3 ADD MSTORE PUSH1 0x17 PUSH1 0x24 DUP3 ADD MSTORE PUSH32 0x4F6E6C79207468652070726F78792063616E2063616C6C000000000000000000 PUSH1 0x44 DUP3 ADD MSTORE SWAP1 MLOAD SWAP1 DUP2 SWAP1 SUB PUSH1 0x64 ADD SWAP1 REVERT JUMPDEST DUP1 PUSH1 0x6 PUSH1 0x1 DUP2 PUSH2 0xAA7 PUSH2 0x3E16 JUMP JUMPDEST PUSH1 0x0 DUP1 PUSH2 0x2204 PUSH2 0x3E16 JUMP JUMPDEST SWAP1 PUSH2 0x100 EXP SWAP1 DIV PUSH1 0x1 PUSH1 0x1 PUSH1 0xA0 SHL SUB AND PUSH1 0x1 PUSH1 0x1 PUSH1 0xA0 SHL SUB AND GAS PUSH2 0x2226 PUSH2 0x3E4F JUMP JUMPDEST PUSH1 0x1 PUSH1 0x1 PUSH1 0xA0 SHL SUB AND EQ PUSH2 0x226B JUMPI PUSH1 0x40 MLOAD PUSH3 0x461BCD PUSH1 0xE5 SHL DUP2 MSTORE PUSH1 0x4 ADD DUP1 DUP1 PUSH1 0x20 ADD DUP3 DUP2 SUB DUP3 MSTORE PUSH1 0x2F DUP2 MSTORE PUSH1 0x20 ADD DUP1 PUSH2 0x40A7 PUSH1 0x2F SWAP2 CODECOPY PUSH1 0x40 ADD SWAP2 POP POP PUSH1 0x40 MLOAD DUP1 SWAP2 SUB SWAP1 REVERT JUMPDEST GAS PUSH2 0x2274 PUSH2 0x3F8F JUMP JUMPDEST DUP1 PUSH1 0x2 PUSH2 0x227F PUSH2 0x3E74 JUMP JUMPDEST POP POP POP PUSH1 0x1 PUSH1 0x3 PUSH1 0x0 PUSH2 0x100 EXP DUP2 PUSH2 0x2295 PUSH2 0x3E16 JUMP JUMPDEST DUP2 PUSH1 0xFF MUL NOT AND SWAP1 DUP4 ISZERO ISZERO MUL OR SWAP1 PUSH2 0x22AA PUSH2 0x3E74 JUMP JUMPDEST POP POP PUSH1 0x40 DUP1 MLOAD PUSH3 0x24EA00 DUP2 MSTORE SWAP1 MLOAD PUSH32 0xCBD94CA75B8DC45C9D80C77E851670E78843C0D75180CB81DB3E2158228FA9A6 SWAP3 POP SWAP1 DUP2 SWAP1 SUB PUSH1 0x20 ADD SWAP1 LOG1 JUMP JUMPDEST PUSH1 0x1 PUSH1 0x3 PUSH2 0x78C PUSH2 0x3E16 JUMP JUMPDEST PUSH1 0xD DUP2 DUP2 PUSH2 0x22FE PUSH2 0x3E16 JUMP JUMPDEST DUP2 LT PUSH2 0x2306 JUMPI INVALID JUMPDEST PUSH1 0x0 SWAP2 DUP3 MSTORE PUSH1 0x20 SWAP1 SWAP2 KECCAK256 ADD SWAP1 POP PUSH2 0xBBD PUSH2 0x3E16 JUMP JUMPDEST PUSH1 0x0 PUSH1 0x6 PUSH2 0x78C PUSH2 0x3E16 JUMP JUMPDEST PUSH1 0xE PUSH2 0xBBD PUSH2 0x3E16 JUMP JUMPDEST PUSH1 0x0 DUP1 PUSH1 0x7 PUSH2 0x233E PUSH2 0x3E16 JUMP JUMPDEST PUSH1 0x40 DUP1 MLOAD PUSH4 0x6EB1769F PUSH1 0xE1 SHL DUP2 MSTORE PUSH1 0x1 PUSH1 0x1 PUSH1 0xA0 SHL SUB DUP8 DUP2 AND PUSH1 0x4 DUP4 ADD MSTORE DUP7 DUP2 AND PUSH1 0x24 DUP4 ADD MSTORE SWAP2 MLOAD PUSH2 0x100 SWAP5 SWAP1 SWAP5 EXP SWAP1 SWAP3 DIV AND SWAP2 PUSH4 0xDD62ED3E SWAP2 PUSH1 0x44 DUP1 DUP3 ADD SWAP3 PUSH1 0x20 SWAP3 SWAP1 SWAP2 SWAP1 DUP3 SWAP1 SUB ADD DUP2 DUP7 DUP1 PUSH2 0x2393 PUSH2 0x3EAD JUMP JUMPDEST ISZERO DUP1 ISZERO PUSH2 0x239F JUMPI PUSH1 0x0 DUP1 REVERT JUMPDEST POP GAS PUSH2 0x23A9 PUSH2 0x3F37 JUMP JUMPDEST POP POP POP POP POP ISZERO DUP1 ISZERO PUSH2 0x23BF JUMPI RETURNDATASIZE PUSH1 0x0 DUP1 RETURNDATACOPY RETURNDATASIZE PUSH1 0x0 REVERT JUMPDEST POP POP POP POP PUSH1 0x40 MLOAD RETURNDATASIZE PUSH1 0x20 DUP2 LT ISZERO PUSH2 0x23D5 JUMPI PUSH1 0x0 DUP1 REVERT JUMPDEST POP MLOAD SWAP4 SWAP3 POP POP POP JUMP JUMPDEST PUSH1 0x18 DUP2 JUMP JUMPDEST PUSH1 0x0 DUP1 PUSH1 0x4 PUSH2 0x23F0 PUSH2 0x3E16 JUMP JUMPDEST SWAP1 PUSH2 0x100 EXP SWAP1 DIV PUSH1 0x1 PUSH1 0x1 PUSH1 0xA0 SHL SUB AND PUSH1 0x1 PUSH1 0x1 PUSH1 0xA0 SHL SUB AND GAS PUSH2 0x2412 PUSH2 0x3E4F JUMP JUMPDEST PUSH1 0x1 PUSH1 0x1 PUSH1 0xA0 SHL SUB AND EQ ISZERO DUP1 ISZERO PUSH2 0x245E JUMPI POP PUSH1 0x0 PUSH1 0x5 PUSH2 0x2430 PUSH2 0x3E16 JUMP JUMPDEST SWAP1 PUSH2 0x100 EXP SWAP1 DIV PUSH1 0x1 PUSH1 0x1 PUSH1 0xA0 SHL SUB AND PUSH1 0x1 PUSH1 0x1 PUSH1 0xA0 SHL SUB AND GAS PUSH2 0x2452 PUSH2 0x3E4F JUMP JUMPDEST PUSH1 0x1 PUSH1 0x1 PUSH1 0xA0 SHL SUB AND EQ ISZERO JUMPDEST DUP1 ISZERO PUSH2 0x249F JUMPI POP GAS PUSH2 0x246E PUSH2 0x3E4F JUMP JUMPDEST PUSH1 0x1 PUSH1 0x1 PUSH1 0xA0 SHL SUB AND PUSH1 0x0 PUSH1 0x6 PUSH2 0x2483 PUSH2 0x3E16 JUMP JUMPDEST SWAP1 PUSH2 0x100 EXP SWAP1 DIV PUSH1 0x1 PUSH1 0x1 PUSH1 0xA0 SHL SUB AND PUSH1 0x1 PUSH1 0x1 PUSH1 0xA0 SHL SUB AND EQ ISZERO JUMPDEST ISZERO PUSH2 0x24E0 JUMPI GAS PUSH2 0x24AD PUSH2 0x3E4F JUMP JUMPDEST PUSH1 0x6 PUSH1 0x1 DUP2 PUSH2 0x24BA PUSH2 0x3E16 JUMP JUMPDEST DUP2 PUSH1 0x1 PUSH1 0x1 PUSH1 0xA0 SHL SUB MUL NOT AND SWAP1 DUP4 PUSH1 0x1 PUSH1 0x1 PUSH1 0xA0 SHL SUB AND MUL OR SWAP1 PUSH2 0x24DC PUSH2 0x3E74 JUMP JUMPDEST POP POP POP JUMPDEST PUSH1 0x0 PUSH2 0x24EA PUSH2 0x2FE5 JUMP JUMPDEST PUSH1 0x1 PUSH1 0x1 PUSH1 0xA0 SHL SUB AND PUSH4 0x1B16802C DUP7 PUSH1 0xE PUSH2 0x2503 PUSH2 0x3E16 JUMP JUMPDEST PUSH1 0x40 MLOAD DUP4 PUSH4 0xFFFFFFFF AND PUSH1 0xE0 SHL DUP2 MSTORE PUSH1 0x4 ADD DUP1 DUP4 PUSH1 0x1 PUSH1 0x1 PUSH1 0xA0 SHL SUB AND PUSH1 0x1 PUSH1 0x1 PUSH1 0xA0 SHL SUB AND DUP2 MSTORE PUSH1 0x20 ADD DUP3 DUP2 MSTORE PUSH1 0x20 ADD SWAP3 POP POP POP PUSH1 0x60 PUSH1 0x40 MLOAD DUP1 DUP4 SUB DUP2 PUSH1 0x0 DUP8 DUP1 PUSH2 0x254D PUSH2 0x3EAD JUMP JUMPDEST ISZERO DUP1 ISZERO PUSH2 0x2559 JUMPI PUSH1 0x0 DUP1 REVERT JUMPDEST POP GAS PUSH2 0x2563 PUSH2 0x3EDF JUMP JUMPDEST POP POP POP POP POP POP ISZERO DUP1 ISZERO PUSH2 0x257A JUMPI RETURNDATASIZE PUSH1 0x0 DUP1 RETURNDATACOPY RETURNDATASIZE PUSH1 0x0 REVERT JUMPDEST POP POP POP POP PUSH1 0x40 MLOAD RETURNDATASIZE PUSH1 0x60 DUP2 LT ISZERO PUSH2 0x2590 JUMPI PUSH1 0x0 DUP1 REVERT JUMPDEST POP PUSH1 0x40 ADD MLOAD SWAP1 POP DUP3 DUP2 ISZERO PUSH2 0x2651 JUMPI PUSH1 0x0 PUSH1 0x7 PUSH2 0x25AA PUSH2 0x3E16 JUMP JUMPDEST SWAP1 PUSH2 0x100 EXP SWAP1 DIV PUSH1 0x1 PUSH1 0x1 PUSH1 0xA0 SHL SUB AND PUSH1 0x1 PUSH1 0x1 PUSH1 0xA0 SHL SUB AND PUSH4 0x70A08231 DUP8 PUSH1 0x40 MLOAD DUP3 PUSH4 0xFFFFFFFF AND PUSH1 0xE0 SHL DUP2 MSTORE PUSH1 0x4 ADD DUP1 DUP3 PUSH1 0x1 PUSH1 0x1 PUSH1 0xA0 SHL SUB AND PUSH1 0x1 PUSH1 0x1 PUSH1 0xA0 SHL SUB AND DUP2 MSTORE PUSH1 0x20 ADD SWAP2 POP POP PUSH1 0x20 PUSH1 0x40 MLOAD DUP1 DUP4 SUB DUP2 DUP7 DUP1 PUSH2 0x260A PUSH2 0x3EAD JUMP JUMPDEST ISZERO DUP1 ISZERO PUSH2 0x2616 JUMPI PUSH1 0x0 DUP1 REVERT JUMPDEST POP GAS PUSH2 0x2620 PUSH2 0x3F37 JUMP JUMPDEST POP POP POP POP POP ISZERO DUP1 ISZERO PUSH2 0x2636 JUMPI RETURNDATASIZE PUSH1 0x0 DUP1 RETURNDATACOPY RETURNDATASIZE PUSH1 0x0 REVERT JUMPDEST POP POP POP POP PUSH1 0x40 MLOAD RETURNDATASIZE PUSH1 0x20 DUP2 LT ISZERO PUSH2 0x264C JUMPI PUSH1 0x0 DUP1 REVERT JUMPDEST POP MLOAD SWAP1 POP JUMPDEST DUP1 DUP5 LT ISZERO PUSH2 0x265F JUMPI DUP4 PUSH2 0x2661 JUMP JUMPDEST DUP1 JUMPDEST SWAP4 POP PUSH2 0x266E DUP7 DUP7 DUP7 PUSH2 0x2CDF JUMP JUMPDEST SWAP7 SWAP6 POP POP POP POP POP POP JUMP JUMPDEST PUSH1 0x0 PUSH1 0x7 PUSH2 0x78C PUSH2 0x3E16 JUMP JUMPDEST PUSH20 0xFEEFEEFEEFEEFEEFEEFEEFEEFEEFEEFEEFEEFEEF DUP2 JUMP JUMPDEST PUSH1 0x0 PUSH1 0x4 PUSH2 0x78C PUSH2 0x3E16 JUMP JUMPDEST PUSH1 0x0 PUSH1 0x4 PUSH2 0x26B4 PUSH2 0x3E16 JUMP JUMPDEST SWAP1 PUSH2 0x100 EXP SWAP1 DIV PUSH1 0x1 PUSH1 0x1 PUSH1 0xA0 SHL SUB AND PUSH1 0x1 PUSH1 0x1 PUSH1 0xA0 SHL SUB AND GAS PUSH2 0x26D6 PUSH2 0x3E4F JUMP JUMPDEST PUSH1 0x1 PUSH1 0x1 PUSH1 0xA0 SHL SUB AND EQ ISZERO DUP1 ISZERO PUSH2 0x2722 JUMPI POP PUSH1 0x0 PUSH1 0x5 PUSH2 0x26F4 PUSH2 0x3E16 JUMP JUMPDEST SWAP1 PUSH2 0x100 EXP SWAP1 DIV PUSH1 0x1 PUSH1 0x1 PUSH1 0xA0 SHL SUB AND PUSH1 0x1 PUSH1 0x1 PUSH1 0xA0 SHL SUB AND GAS PUSH2 0x2716 PUSH2 0x3E4F JUMP JUMPDEST PUSH1 0x1 PUSH1 0x1 PUSH1 0xA0 SHL SUB AND EQ ISZERO JUMPDEST DUP1 ISZERO PUSH2 0x2763 JUMPI POP GAS PUSH2 0x2732 PUSH2 0x3E4F JUMP JUMPDEST PUSH1 0x1 PUSH1 0x1 PUSH1 0xA0 SHL SUB AND PUSH1 0x0 PUSH1 0x6 PUSH2 0x2747 PUSH2 0x3E16 JUMP JUMPDEST SWAP1 PUSH2 0x100 EXP SWAP1 DIV PUSH1 0x1 PUSH1 0x1 PUSH1 0xA0 SHL SUB AND PUSH1 0x1 PUSH1 0x1 PUSH1 0xA0 SHL SUB AND EQ ISZERO JUMPDEST ISZERO PUSH2 0x27A4 JUMPI GAS PUSH2 0x2771 PUSH2 0x3E4F JUMP JUMPDEST PUSH1 0x6 PUSH1 0x1 DUP2 PUSH2 0x277E PUSH2 0x3E16 JUMP JUMPDEST DUP2 PUSH1 0x1 PUSH1 0x1 PUSH1 0xA0 SHL SUB MUL NOT AND SWAP1 DUP4 PUSH1 0x1 PUSH1 0x1 PUSH1 0xA0 SHL SUB AND MUL OR SWAP1 PUSH2 0x27A0 PUSH2 0x3E74 JUMP JUMPDEST POP POP POP JUMPDEST PUSH1 0x0 DUP1 PUSH2 0x27AF PUSH2 0x3E16 JUMP JUMPDEST PUSH1 0x1 PUSH1 0x1 PUSH1 0xA0 SHL SUB PUSH2 0x100 SWAP3 SWAP1 SWAP3 EXP SWAP1 DIV AND PUSH1 0x0 PUSH1 0x6 PUSH2 0x27CD PUSH2 0x3E16 JUMP JUMPDEST SWAP1 PUSH2 0x100 EXP SWAP1 DIV PUSH1 0x1 PUSH1 0x1 PUSH1 0xA0 SHL SUB AND PUSH1 0x1 PUSH1 0x1 PUSH1 0xA0 SHL SUB AND EQ PUSH2 0x282E JUMPI PUSH1 0x40 DUP1 MLOAD PUSH3 0x461BCD PUSH1 0xE5 SHL DUP2 MSTORE PUSH1 0x20 PUSH1 0x4 DUP3 ADD MSTORE PUSH1 0x13 PUSH1 0x24 DUP3 ADD MSTORE PUSH19 0x27BBB732B91037B7363C90333AB731BA34B7B7 PUSH1 0x69 SHL PUSH1 0x44 DUP3 ADD MSTORE SWAP1 MLOAD SWAP1 DUP2 SWAP1 SUB PUSH1 0x64 ADD SWAP1 REVERT JUMPDEST DUP1 DUP1 PUSH1 0xA PUSH2 0xAC9 PUSH2 0x3E74 JUMP JUMPDEST PUSH1 0x27 PUSH2 0xBBD PUSH2 0x3E16 JUMP JUMPDEST PUSH1 0x0 DUP1 PUSH2 0x284F PUSH2 0x2FE5 JUMP JUMPDEST PUSH1 0x1 PUSH1 0x1 PUSH1 0xA0 SHL SUB AND PUSH4 0x19D5C665 DUP5 PUSH1 0xE PUSH2 0x2868 PUSH2 0x3E16 JUMP JUMPDEST PUSH1 0x40 MLOAD DUP4 PUSH4 0xFFFFFFFF AND PUSH1 0xE0 SHL DUP2 MSTORE PUSH1 0x4 ADD DUP1 DUP4 PUSH1 0x1 PUSH1 0x1 PUSH1 0xA0 SHL SUB AND PUSH1 0x1 PUSH1 0x1 PUSH1 0xA0 SHL SUB AND DUP2 MSTORE PUSH1 0x20 ADD DUP3 DUP2 MSTORE PUSH1 0x20 ADD SWAP3 POP POP POP PUSH1 0x60 PUSH1 0x40 MLOAD DUP1 DUP4 SUB DUP2 DUP7 DUP1 PUSH2 0x28B0 PUSH2 0x3EAD JUMP JUMPDEST ISZERO DUP1 ISZERO PUSH2 0x28BC JUMPI PUSH1 0x0 DUP1 REVERT JUMPDEST POP GAS PUSH2 0x28C6 PUSH2 0x3F37 JUMP JUMPDEST POP POP POP POP POP ISZERO DUP1 ISZERO PUSH2 0x28DC JUMPI RETURNDATASIZE PUSH1 0x0 DUP1 RETURNDATACOPY RETURNDATASIZE PUSH1 0x0 REVERT JUMPDEST POP POP POP POP PUSH1 0x40 MLOAD RETURNDATASIZE PUSH1 0x60 DUP2 LT ISZERO PUSH2 0x28F2 JUMPI PUSH1 0x0 DUP1 REVERT JUMPDEST POP MLOAD SWAP1 POP PUSH1 0x0 DUP1 PUSH1 0x7 PUSH2 0x2903 PUSH2 0x3E16 JUMP JUMPDEST SWAP1 PUSH2 0x100 EXP SWAP1 DIV PUSH1 0x1 PUSH1 0x1 PUSH1 0xA0 SHL SUB AND PUSH1 0x1 PUSH1 0x1 PUSH1 0xA0 SHL SUB AND PUSH4 0x70A08231 DUP6 PUSH1 0x40 MLOAD DUP3 PUSH4 0xFFFFFFFF AND PUSH1 0xE0 SHL DUP2 MSTORE PUSH1 0x4 ADD DUP1 DUP3 PUSH1 0x1 PUSH1 0x1 PUSH1 0xA0 SHL SUB AND PUSH1 0x1 PUSH1 0x1 PUSH1 0xA0 SHL SUB AND DUP2 MSTORE PUSH1 0x20 ADD SWAP2 POP POP PUSH1 0x20 PUSH1 0x40 MLOAD DUP1 DUP4 SUB DUP2 DUP7 DUP1 PUSH2 0x2963 PUSH2 0x3EAD JUMP JUMPDEST ISZERO DUP1 ISZERO PUSH2 0x296F JUMPI PUSH1 0x0 DUP1 REVERT JUMPDEST POP GAS PUSH2 0x2979 PUSH2 0x3F37 JUMP JUMPDEST POP POP POP POP POP ISZERO DUP1 ISZERO PUSH2 0x298F JUMPI RETURNDATASIZE PUSH1 0x0 DUP1 RETURNDATACOPY RETURNDATASIZE PUSH1 0x0 REVERT JUMPDEST POP POP POP POP PUSH1 0x40 MLOAD RETURNDATASIZE PUSH1 0x20 DUP2 LT ISZERO PUSH2 0x29A5 JUMPI PUSH1 0x0 DUP1 REVERT JUMPDEST POP MLOAD SWAP1 POP DUP1 DUP3 GT ISZERO PUSH2 0x29BC JUMPI PUSH1 0x0 SWAP3 POP POP POP PUSH2 0x12DF JUMP JUMPDEST PUSH2 0x29CC DUP2 DUP4 PUSH4 0xFFFFFFFF PUSH2 0x39D7 AND JUMP JUMPDEST SWAP3 POP POP POP PUSH2 0x12DF JUMP JUMPDEST PUSH1 0x0 PUSH1 0x4 PUSH2 0x29E1 PUSH2 0x3E16 JUMP JUMPDEST SWAP1 PUSH2 0x100 EXP SWAP1 DIV PUSH1 0x1 PUSH1 0x1 PUSH1 0xA0 SHL SUB AND PUSH1 0x1 PUSH1 0x1 PUSH1 0xA0 SHL SUB AND PUSH4 0x907DFF97 DUP3 PUSH1 0x40 MLOAD PUSH1 0x20 ADD DUP1 DUP3 DUP2 MSTORE PUSH1 0x20 ADD SWAP2 POP POP PUSH1 0x40 MLOAD PUSH1 0x20 DUP2 DUP4 SUB SUB DUP2 MSTORE SWAP1 PUSH1 0x40 MSTORE PUSH1 0x3 PUSH1 0x40 MLOAD DUP1 DUP1 PUSH2 0x40D6 PUSH1 0x21 SWAP2 CODECOPY PUSH1 0x21 ADD SWAP1 POP PUSH1 0x40 MLOAD DUP1 SWAP2 SUB SWAP1 KECCAK256 PUSH2 0x2A43 DUP9 PUSH2 0x3A34 JUMP JUMPDEST PUSH2 0x2A4C DUP9 PUSH2 0x3A34 JUMP JUMPDEST PUSH1 0x0 PUSH1 0x40 MLOAD DUP8 PUSH4 0xFFFFFFFF AND PUSH1 0xE0 SHL DUP2 MSTORE PUSH1 0x4 ADD DUP1 DUP1 PUSH1 0x20 ADD DUP8 DUP2 MSTORE PUSH1 0x20 ADD DUP7 DUP2 MSTORE PUSH1 0x20 ADD DUP6 DUP2 MSTORE PUSH1 0x20 ADD DUP5 DUP2 MSTORE PUSH1 0x20 ADD DUP4 PUSH1 0x0 SHL DUP2 MSTORE PUSH1 0x20 ADD DUP3 DUP2 SUB DUP3 MSTORE DUP9 DUP2 DUP2 MLOAD DUP2 MSTORE PUSH1 0x20 ADD SWAP2 POP DUP1 MLOAD SWAP1 PUSH1 0x20 ADD SWAP1 DUP1 DUP4 DUP4 PUSH1 0x0 JUMPDEST DUP4 DUP2 LT ISZERO PUSH2 0x2ABB JUMPI DUP2 DUP2 ADD MLOAD DUP4 DUP3 ADD MSTORE PUSH1 0x20 ADD PUSH2 0x2AA3 JUMP JUMPDEST POP POP POP POP SWAP1 POP SWAP1 DUP2 ADD SWAP1 PUSH1 0x1F AND DUP1 ISZERO PUSH2 0x2AE8 JUMPI DUP1 DUP3 SUB DUP1 MLOAD PUSH1 0x1 DUP4 PUSH1 0x20 SUB PUSH2 0x100 EXP SUB NOT AND DUP2 MSTORE PUSH1 0x20 ADD SWAP2 POP JUMPDEST POP SWAP8 POP POP POP POP POP POP POP POP PUSH1 0x0 PUSH1 0x40 MLOAD DUP1 DUP4 SUB DUP2 PUSH1 0x0 DUP8 DUP1 PUSH2 0x2B07 PUSH2 0x3EAD JUMP JUMPDEST ISZERO DUP1 ISZERO PUSH2 0x2B13 JUMPI PUSH1 0x0 DUP1 REVERT JUMPDEST POP GAS PUSH2 0x2B1D PUSH2 0x3EDF JUMP JUMPDEST POP POP POP POP POP POP ISZERO DUP1 ISZERO PUSH2 0x1A4B JUMPI RETURNDATASIZE PUSH1 0x0 DUP1 RETURNDATACOPY RETURNDATASIZE PUSH1 0x0 REVERT JUMPDEST PUSH2 0x2B3C PUSH2 0x2FE5 JUMP JUMPDEST PUSH1 0x1 PUSH1 0x1 PUSH1 0xA0 SHL SUB AND PUSH4 0x59C29EC DUP4 PUSH1 0xE PUSH2 0x2B55 PUSH2 0x3E16 JUMP JUMPDEST PUSH1 0x40 MLOAD DUP4 PUSH4 0xFFFFFFFF AND PUSH1 0xE0 SHL DUP2 MSTORE PUSH1 0x4 ADD DUP1 DUP4 PUSH1 0x1 PUSH1 0x1 PUSH1 0xA0 SHL SUB AND PUSH1 0x1 PUSH1 0x1 PUSH1 0xA0 SHL SUB AND DUP2 MSTORE PUSH1 0x20 ADD DUP3 DUP2 MSTORE PUSH1 0x20 ADD SWAP3 POP POP POP PUSH1 0x20 PUSH1 0x40 MLOAD DUP1 DUP4 SUB DUP2 DUP7 DUP1 PUSH2 0x2B9D PUSH2 0x3EAD JUMP JUMPDEST ISZERO DUP1 ISZERO PUSH2 0x2BA9 JUMPI PUSH1 0x0 DUP1 REVERT JUMPDEST POP GAS PUSH2 0x2BB3 PUSH2 0x3F37 JUMP JUMPDEST POP POP POP POP POP ISZERO DUP1 ISZERO PUSH2 0x2BC9 JUMPI RETURNDATASIZE PUSH1 0x0 DUP1 RETURNDATACOPY RETURNDATASIZE PUSH1 0x0 REVERT JUMPDEST POP POP POP POP PUSH1 0x40 MLOAD RETURNDATASIZE PUSH1 0x20 DUP2 LT ISZERO PUSH2 0x2BDF JUMPI PUSH1 0x0 DUP1 REVERT JUMPDEST POP MLOAD ISZERO PUSH2 0x2C1D JUMPI PUSH1 0x40 MLOAD PUSH3 0x461BCD PUSH1 0xE5 SHL DUP2 MSTORE PUSH1 0x4 ADD DUP1 DUP1 PUSH1 0x20 ADD DUP3 DUP2 SUB DUP3 MSTORE PUSH1 0x25 DUP2 MSTORE PUSH1 0x20 ADD DUP1 PUSH2 0x40F7 PUSH1 0x25 SWAP2 CODECOPY PUSH1 0x40 ADD SWAP2 POP POP PUSH1 0x40 MLOAD DUP1 SWAP2 SUB SWAP1 REVERT JUMPDEST DUP1 PUSH2 0x2C27 DUP4 PUSH2 0x2844 JUMP JUMPDEST LT ISZERO PUSH2 0x2C64 JUMPI PUSH1 0x40 MLOAD PUSH3 0x461BCD PUSH1 0xE5 SHL DUP2 MSTORE PUSH1 0x4 ADD DUP1 DUP1 PUSH1 0x20 ADD DUP3 DUP2 SUB DUP3 MSTORE PUSH1 0x2F DUP2 MSTORE PUSH1 0x20 ADD DUP1 PUSH2 0x4009 PUSH1 0x2F SWAP2 CODECOPY PUSH1 0x40 ADD SWAP2 POP POP PUSH1 0x40 MLOAD DUP1 SWAP2 SUB SWAP1 REVERT JUMPDEST PUSH2 0x2C6C PUSH2 0x3A40 JUMP JUMPDEST PUSH1 0x1 PUSH1 0x1 PUSH1 0xA0 SHL SUB AND PUSH4 0x42A28E21 PUSH1 0xE PUSH2 0x2C84 PUSH2 0x3E16 JUMP JUMPDEST PUSH1 0x40 MLOAD DUP3 PUSH4 0xFFFFFFFF AND PUSH1 0xE0 SHL DUP2 MSTORE PUSH1 0x4 ADD DUP1 DUP3 DUP2 MSTORE PUSH1 0x20 ADD SWAP2 POP POP PUSH1 0x0 PUSH1 0x40 MLOAD DUP1 DUP4 SUB DUP2 DUP7 DUP1 PUSH2 0x2CB3 PUSH2 0x3EAD JUMP JUMPDEST ISZERO DUP1 ISZERO PUSH2 0x2CBF JUMPI PUSH1 0x0 DUP1 REVERT JUMPDEST POP GAS PUSH2 0x2CC9 PUSH2 0x3F37 JUMP JUMPDEST POP POP POP POP POP ISZERO DUP1 ISZERO PUSH2 0x160E JUMPI RETURNDATASIZE PUSH1 0x0 DUP1 RETURNDATACOPY RETURNDATASIZE PUSH1 0x0 REVERT JUMPDEST PUSH1 0x0 PUSH1 0x0 NOT DUP2 PUSH1 0x7 PUSH2 0x2CEF PUSH2 0x3E16 JUMP JUMPDEST PUSH1 0x1 PUSH1 0x1 PUSH1 0xA0 SHL SUB PUSH2 0x100 SWAP3 SWAP1 SWAP3 EXP SWAP1 DIV AND PUSH4 0xDD62ED3E DUP7 PUSH1 0x0 PUSH1 0x6 PUSH2 0x2D13 PUSH2 0x3E16 JUMP JUMPDEST SWAP1 PUSH2 0x100 EXP SWAP1 DIV PUSH1 0x1 PUSH1 0x1 PUSH1 0xA0 SHL SUB AND PUSH1 0x40 MLOAD DUP4 PUSH4 0xFFFFFFFF AND PUSH1 0xE0 SHL DUP2 MSTORE PUSH1 0x4 ADD DUP1 DUP4 PUSH1 0x1 PUSH1 0x1 PUSH1 0xA0 SHL SUB AND PUSH1 0x1 PUSH1 0x1 PUSH1 0xA0 SHL SUB AND DUP2 MSTORE PUSH1 0x20 ADD DUP3 PUSH1 0x1 PUSH1 0x1 PUSH1 0xA0 SHL SUB AND PUSH1 0x1 PUSH1 0x1 PUSH1 0xA0 SHL SUB AND DUP2 MSTORE PUSH1 0x20 ADD SWAP3 POP POP POP PUSH1 0x20 PUSH1 0x40 MLOAD DUP1 DUP4 SUB DUP2 DUP7 DUP1 PUSH2 0x2D7D PUSH2 0x3EAD JUMP JUMPDEST ISZERO DUP1 ISZERO PUSH2 0x2D89 JUMPI PUSH1 0x0 DUP1 REVERT JUMPDEST POP GAS PUSH2 0x2D93 PUSH2 0x3F37 JUMP JUMPDEST POP POP POP POP POP ISZERO DUP1 ISZERO PUSH2 0x2DA9 JUMPI RETURNDATASIZE PUSH1 0x0 DUP1 RETURNDATACOPY RETURNDATASIZE PUSH1 0x0 REVERT JUMPDEST POP POP POP POP PUSH1 0x40 MLOAD RETURNDATASIZE PUSH1 0x20 DUP2 LT ISZERO PUSH2 0x2DBF JUMPI PUSH1 0x0 DUP1 REVERT JUMPDEST POP MLOAD EQ PUSH2 0x2F8A JUMPI PUSH1 0x0 PUSH1 0x7 PUSH2 0x2DD2 PUSH2 0x3E16 JUMP JUMPDEST PUSH1 0x1 PUSH1 0x1 PUSH1 0xA0 SHL SUB PUSH2 0x100 SWAP3 SWAP1 SWAP3 EXP SWAP1 DIV AND PUSH4 0xDA46098C DUP6 PUSH1 0x0 PUSH1 0x6 PUSH2 0x2DF6 PUSH2 0x3E16 JUMP JUMPDEST SWAP1 PUSH2 0x100 EXP SWAP1 DIV PUSH1 0x1 PUSH1 0x1 PUSH1 0xA0 SHL SUB AND PUSH2 0x2EF5 DUP7 PUSH1 0x7 PUSH1 0x0 SWAP1 PUSH2 0x2E17 PUSH2 0x3E16 JUMP JUMPDEST PUSH1 0x1 PUSH1 0x1 PUSH1 0xA0 SHL SUB PUSH2 0x100 SWAP3 SWAP1 SWAP3 EXP SWAP1 DIV AND PUSH4 0xDD62ED3E DUP12 PUSH1 0x0 PUSH1 0x6 PUSH2 0x2E3B PUSH2 0x3E16 JUMP JUMPDEST SWAP1 PUSH2 0x100 EXP SWAP1 DIV PUSH1 0x1 PUSH1 0x1 PUSH1 0xA0 SHL SUB AND PUSH1 0x40 MLOAD DUP4 PUSH4 0xFFFFFFFF AND PUSH1 0xE0 SHL DUP2 MSTORE PUSH1 0x4 ADD DUP1 DUP4 PUSH1 0x1 PUSH1 0x1 PUSH1 0xA0 SHL SUB AND PUSH1 0x1 PUSH1 0x1 PUSH1 0xA0 SHL SUB AND DUP2 MSTORE PUSH1 0x20 ADD DUP3 PUSH1 0x1 PUSH1 0x1 PUSH1 0xA0 SHL SUB AND PUSH1 0x1 PUSH1 0x1 PUSH1 0xA0 SHL SUB AND DUP2 MSTORE PUSH1 0x20 ADD SWAP3 POP POP POP PUSH1 0x20 PUSH1 0x40 MLOAD DUP1 DUP4 SUB DUP2 DUP7 DUP1 PUSH2 0x2EA5 PUSH2 0x3EAD JUMP JUMPDEST ISZERO DUP1 ISZERO PUSH2 0x2EB1 JUMPI PUSH1 0x0 DUP1 REVERT JUMPDEST POP GAS PUSH2 0x2EBB PUSH2 0x3F37 JUMP JUMPDEST POP POP POP POP POP ISZERO DUP1 ISZERO PUSH2 0x2ED1 JUMPI RETURNDATASIZE PUSH1 0x0 DUP1 RETURNDATACOPY RETURNDATASIZE PUSH1 0x0 REVERT JUMPDEST POP POP POP POP PUSH1 0x40 MLOAD RETURNDATASIZE PUSH1 0x20 DUP2 LT ISZERO PUSH2 0x2EE7 JUMPI PUSH1 0x0 DUP1 REVERT JUMPDEST POP MLOAD SWAP1 PUSH4 0xFFFFFFFF PUSH2 0x39D7 AND JUMP JUMPDEST PUSH1 0x40 MLOAD DUP5 PUSH4 0xFFFFFFFF AND PUSH1 0xE0 SHL DUP2 MSTORE PUSH1 0x4 ADD DUP1 DUP5 PUSH1 0x1 PUSH1 0x1 PUSH1 0xA0 SHL SUB AND PUSH1 0x1 PUSH1 0x1 PUSH1 0xA0 SHL SUB AND DUP2 MSTORE PUSH1 0x20 ADD DUP4 PUSH1 0x1 PUSH1 0x1 PUSH1 0xA0 SHL SUB AND PUSH1 0x1 PUSH1 0x1 PUSH1 0xA0 SHL SUB AND DUP2 MSTORE PUSH1 0x20 ADD DUP3 DUP2 MSTORE PUSH1 0x20 ADD SWAP4 POP POP POP POP PUSH1 0x0 PUSH1 0x40 MLOAD DUP1 DUP4 SUB DUP2 PUSH1 0x0 DUP8 DUP1 PUSH2 0x2F58 PUSH2 0x3EAD JUMP JUMPDEST ISZERO DUP1 ISZERO PUSH2 0x2F64 JUMPI PUSH1 0x0 DUP1 REVERT JUMPDEST POP GAS PUSH2 0x2F6E PUSH2 0x3EDF JUMP JUMPDEST POP POP POP POP POP POP ISZERO DUP1 ISZERO PUSH2 0x2F85 JUMPI RETURNDATASIZE PUSH1 0x0 DUP1 RETURNDATACOPY RETURNDATASIZE PUSH1 0x0 REVERT JUMPDEST POP POP POP POP JUMPDEST PUSH2 0xE1D DUP5 DUP5 DUP5 PUSH2 0x36C9 JUMP JUMPDEST PUSH1 0x0 PUSH2 0x2FE0 PUSH7 0x119959541BDBDB PUSH1 0xCA SHL PUSH1 0x40 MLOAD DUP1 PUSH1 0x40 ADD PUSH1 0x40 MSTORE DUP1 PUSH1 0x17 DUP2 MSTORE PUSH1 0x20 ADD PUSH32 0x4D697373696E6720466565506F6F6C2061646472657373000000000000000000 DUP2 MSTORE POP PUSH2 0x3A8C JUMP JUMPDEST SWAP1 POP SWAP1 JUMP JUMPDEST PUSH1 0x0 PUSH2 0x2FE0 PUSH9 0x22BC31B430B733B2B9 PUSH1 0xB9 SHL PUSH1 0x40 MLOAD DUP1 PUSH1 0x40 ADD PUSH1 0x40 MSTORE DUP1 PUSH1 0x19 DUP2 MSTORE PUSH1 0x20 ADD PUSH32 0x4D697373696E672045786368616E676572206164647265737300000000000000 DUP2 MSTORE POP PUSH2 0x3A8C JUMP JUMPDEST PUSH1 0x0 PUSH2 0x2FE0 PUSH6 0x24B9B9BAB2B9 PUSH1 0xD1 SHL PUSH1 0x40 MLOAD DUP1 PUSH1 0x40 ADD PUSH1 0x40 MSTORE DUP1 PUSH1 0x16 DUP2 MSTORE PUSH1 0x20 ADD PUSH22 0x4D697373696E67204973737565722061646472657373 PUSH1 0x50 SHL DUP2 MSTORE POP PUSH2 0x3A8C JUMP JUMPDEST PUSH1 0x0 PUSH2 0x2FE0 PUSH1 0x27 PUSH2 0x3084 PUSH2 0x3E16 JUMP JUMPDEST PUSH1 0x40 MLOAD DUP1 PUSH1 0x60 ADD PUSH1 0x40 MSTORE DUP1 PUSH1 0x2B DUP2 MSTORE PUSH1 0x20 ADD PUSH2 0x407C PUSH1 0x2B SWAP2 CODECOPY PUSH2 0x3A8C JUMP JUMPDEST PUSH1 0x0 PUSH1 0x7 PUSH2 0x30AE PUSH2 0x3E16 JUMP JUMPDEST PUSH1 0x1 PUSH1 0x1 PUSH1 0xA0 SHL SUB PUSH2 0x100 SWAP3 SWAP1 SWAP3 EXP SWAP1 DIV AND PUSH4 0xB46310F6 DUP4 PUSH2 0x3186 DUP5 PUSH1 0x0 PUSH1 0x7 PUSH2 0x30D6 PUSH2 0x3E16 JUMP JUMPDEST SWAP1 PUSH2 0x100 EXP SWAP1 DIV PUSH1 0x1 PUSH1 0x1 PUSH1 0xA0 SHL SUB AND PUSH1 0x1 PUSH1 0x1 PUSH1 0xA0 SHL SUB AND PUSH4 0x70A08231 DUP9 PUSH1 0x40 MLOAD DUP3 PUSH4 0xFFFFFFFF AND PUSH1 0xE0 SHL DUP2 MSTORE PUSH1 0x4 ADD DUP1 DUP3 PUSH1 0x1 PUSH1 0x1 PUSH1 0xA0 SHL SUB AND PUSH1 0x1 PUSH1 0x1 PUSH1 0xA0 SHL SUB AND DUP2 MSTORE PUSH1 0x20 ADD SWAP2 POP POP PUSH1 0x20 PUSH1 0x40 MLOAD DUP1 DUP4 SUB DUP2 DUP7 DUP1 PUSH2 0x3136 PUSH2 0x3EAD JUMP JUMPDEST ISZERO DUP1 ISZERO PUSH2 0x3142 JUMPI PUSH1 0x0 DUP1 REVERT JUMPDEST POP GAS PUSH2 0x314C PUSH2 0x3F37 JUMP JUMPDEST POP POP POP POP POP ISZERO DUP1 ISZERO PUSH2 0x3162 JUMPI RETURNDATASIZE PUSH1 0x0 DUP1 RETURNDATACOPY RETURNDATASIZE PUSH1 0x0 REVERT JUMPDEST POP POP POP POP PUSH1 0x40 MLOAD RETURNDATASIZE PUSH1 0x20 DUP2 LT ISZERO PUSH2 0x3178 JUMPI PUSH1 0x0 DUP1 REVERT JUMPDEST POP MLOAD SWAP1 PUSH4 0xFFFFFFFF PUSH2 0x3B4C AND JUMP JUMPDEST PUSH1 0x40 MLOAD DUP4 PUSH4 0xFFFFFFFF AND PUSH1 0xE0 SHL DUP2 MSTORE PUSH1 0x4 ADD DUP1 DUP4 PUSH1 0x1 PUSH1 0x1 PUSH1 0xA0 SHL SUB AND PUSH1 0x1 PUSH1 0x1 PUSH1 0xA0 SHL SUB AND DUP2 MSTORE PUSH1 0x20 ADD DUP3 DUP2 MSTORE PUSH1 0x20 ADD SWAP3 POP POP POP PUSH1 0x0 PUSH1 0x40 MLOAD DUP1 DUP4 SUB DUP2 PUSH1 0x0 DUP8 DUP1 PUSH2 0x31D0 PUSH2 0x3EAD JUMP JUMPDEST ISZERO DUP1 ISZERO PUSH2 0x31DC JUMPI PUSH1 0x0 DUP1 REVERT JUMPDEST POP GAS PUSH2 0x31E6 PUSH2 0x3EDF JUMP JUMPDEST POP POP POP POP POP POP ISZERO DUP1 ISZERO PUSH2 0x31FD JUMPI RETURNDATASIZE PUSH1 0x0 DUP1 RETURNDATACOPY RETURNDATASIZE PUSH1 0x0 REVERT JUMPDEST POP POP POP POP PUSH2 0x321B DUP2 PUSH1 0xA PUSH2 0x320F PUSH2 0x3E16 JUMP JUMPDEST SWAP1 PUSH4 0xFFFFFFFF PUSH2 0x3B4C AND JUMP JUMPDEST DUP1 PUSH1 0xA PUSH2 0x3226 PUSH2 0x3E74 JUMP JUMPDEST POP POP POP PUSH2 0x3235 PUSH1 0x0 DUP4 DUP4 PUSH2 0x3BA6 JUMP JUMPDEST PUSH2 0x1125 DUP3 DUP3 PUSH2 0x3C14 JUMP JUMPDEST PUSH1 0x0 DUP1 PUSH1 0x7 PUSH2 0x324C PUSH2 0x3E16 JUMP JUMPDEST PUSH1 0x1 PUSH1 0x1 PUSH1 0xA0 SHL SUB PUSH2 0x100 SWAP3 SWAP1 SWAP3 EXP SWAP1 DIV AND PUSH4 0xB46310F6 DUP5 PUSH2 0x32D4 DUP6 PUSH1 0x0 PUSH1 0x7 PUSH2 0x3274 PUSH2 0x3E16 JUMP JUMPDEST SWAP1 PUSH2 0x100 EXP SWAP1 DIV PUSH1 0x1 PUSH1 0x1 PUSH1 0xA0 SHL SUB AND PUSH1 0x1 PUSH1 0x1 PUSH1 0xA0 SHL SUB AND PUSH4 0x70A08231 DUP10 PUSH1 0x40 MLOAD DUP3 PUSH4 0xFFFFFFFF AND PUSH1 0xE0 SHL DUP2 MSTORE PUSH1 0x4 ADD DUP1 DUP3 PUSH1 0x1 PUSH1 0x1 PUSH1 0xA0 SHL SUB AND PUSH1 0x1 PUSH1 0x1 PUSH1 0xA0 SHL SUB AND DUP2 MSTORE PUSH1 0x20 ADD SWAP2 POP POP PUSH1 0x20 PUSH1 0x40 MLOAD DUP1 DUP4 SUB DUP2 DUP7 DUP1 PUSH2 0x2EA5 PUSH2 0x3EAD JUMP JUMPDEST PUSH1 0x40 MLOAD DUP4 PUSH4 0xFFFFFFFF AND PUSH1 0xE0 SHL DUP2 MSTORE PUSH1 0x4 ADD DUP1 DUP4 PUSH1 0x1 PUSH1 0x1 PUSH1 0xA0 SHL SUB AND PUSH1 0x1 PUSH1 0x1 PUSH1 0xA0 SHL SUB AND DUP2 MSTORE PUSH1 0x20 ADD DUP3 DUP2 MSTORE PUSH1 0x20 ADD SWAP3 POP POP POP PUSH1 0x0 PUSH1 0x40 MLOAD DUP1 DUP4 SUB DUP2 PUSH1 0x0 DUP8 DUP1 PUSH2 0x331E PUSH2 0x3EAD JUMP JUMPDEST ISZERO DUP1 ISZERO PUSH2 0x332A JUMPI PUSH1 0x0 DUP1 REVERT JUMPDEST POP GAS PUSH2 0x3334 PUSH2 0x3EDF JUMP JUMPDEST POP POP POP POP POP POP ISZERO DUP1 ISZERO PUSH2 0x334B JUMPI RETURNDATASIZE PUSH1 0x0 DUP1 RETURNDATACOPY RETURNDATASIZE PUSH1 0x0 REVERT JUMPDEST POP POP POP POP PUSH2 0x3369 DUP3 PUSH1 0xA PUSH2 0x335D PUSH2 0x3E16 JUMP JUMPDEST SWAP1 PUSH4 0xFFFFFFFF PUSH2 0x39D7 AND JUMP JUMPDEST DUP1 PUSH1 0xA PUSH2 0x3374 PUSH2 0x3E74 JUMP JUMPDEST POP POP POP PUSH2 0x3383 DUP4 PUSH1 0x0 DUP5 PUSH2 0x3BA6 JUMP JUMPDEST PUSH2 0x338D DUP4 DUP4 PUSH2 0x3D8B JUMP JUMPDEST POP PUSH1 0x1 SWAP3 SWAP2 POP POP JUMP JUMPDEST PUSH1 0x0 PUSH1 0x4 PUSH2 0x33A2 PUSH2 0x3E16 JUMP JUMPDEST PUSH1 0x40 DUP1 MLOAD PUSH1 0x1 PUSH1 0x1 PUSH1 0xA0 SHL SUB DUP6 DUP2 AND PUSH1 0x20 DUP1 DUP5 ADD SWAP2 SWAP1 SWAP2 MSTORE DUP4 MLOAD DUP1 DUP5 SUB DUP3 ADD DUP2 MSTORE DUP4 DUP6 ADD DUP1 DUP7 MSTORE PUSH32 0x546F6B656E537461746555706461746564286164647265737329000000000000 SWAP1 MSTORE SWAP4 MLOAD SWAP3 DUP4 SWAP1 SUB PUSH1 0x5A ADD DUP4 KECCAK256 PUSH4 0x907DFF97 PUSH1 0xE0 SHL DUP5 MSTORE PUSH1 0x1 PUSH1 0x24 DUP6 ADD DUP2 SWAP1 MSTORE PUSH1 0x44 DUP6 ADD DUP3 SWAP1 MSTORE PUSH1 0x0 PUSH1 0x64 DUP7 ADD DUP2 SWAP1 MSTORE PUSH1 0x84 DUP7 ADD DUP2 SWAP1 MSTORE PUSH1 0xA4 DUP7 ADD DUP2 SWAP1 MSTORE PUSH1 0xC0 PUSH1 0x4 DUP8 ADD SWAP1 DUP2 MSTORE DUP8 MLOAD PUSH1 0xC4 DUP9 ADD MSTORE DUP8 MLOAD PUSH2 0x100 SWAP11 SWAP1 SWAP11 EXP SWAP1 SWAP9 DIV SWAP5 SWAP1 SWAP5 AND SWAP8 PUSH4 0x907DFF97 SWAP8 SWAP2 SWAP6 SWAP3 SWAP5 SWAP4 DUP5 SWAP4 DUP5 SWAP4 SWAP3 DUP4 SWAP3 PUSH1 0xE4 SWAP1 SWAP3 ADD SWAP2 DUP11 ADD SWAP1 DUP1 DUP4 DUP4 DUP9 JUMPDEST DUP4 DUP2 LT ISZERO PUSH2 0x3481 JUMPI DUP2 DUP2 ADD MLOAD DUP4 DUP3 ADD MSTORE PUSH1 0x20 ADD PUSH2 0x3469 JUMP JUMPDEST POP POP POP POP SWAP1 POP SWAP1 DUP2 ADD SWAP1 PUSH1 0x1F AND DUP1 ISZERO PUSH2 0x34AE JUMPI DUP1 DUP3 SUB DUP1 MLOAD PUSH1 0x1 DUP4 PUSH1 0x20 SUB PUSH2 0x100 EXP SUB NOT AND DUP2 MSTORE PUSH1 0x20 ADD SWAP2 POP JUMPDEST POP SWAP8 POP POP POP POP POP POP POP POP PUSH1 0x0 PUSH1 0x40 MLOAD DUP1 DUP4 SUB DUP2 PUSH1 0x0 DUP8 DUP1 PUSH2 0x34CD PUSH2 0x3EAD JUMP JUMPDEST ISZERO DUP1 ISZERO PUSH2 0x34D9 JUMPI PUSH1 0x0 DUP1 REVERT JUMPDEST POP GAS PUSH2 0x34E3 PUSH2 0x3EDF JUMP JUMPDEST POP POP POP POP POP POP ISZERO DUP1 ISZERO PUSH2 0x34FA JUMPI RETURNDATASIZE PUSH1 0x0 DUP1 RETURNDATACOPY RETURNDATASIZE PUSH1 0x0 REVERT JUMPDEST POP POP POP POP POP JUMP JUMPDEST PUSH1 0x0 DUP1 PUSH1 0xE PUSH2 0x350E PUSH2 0x3E16 JUMP JUMPDEST PUSH4 0x1CD554D1 PUSH1 0xE2 SHL EQ ISZERO PUSH2 0x354A JUMPI POP DUP2 PUSH2 0x3544 PUSH1 0x0 PUSH1 0x6 PUSH2 0x352D PUSH2 0x3E16 JUMP JUMPDEST SWAP1 PUSH2 0x100 EXP SWAP1 DIV PUSH1 0x1 PUSH1 0x1 PUSH1 0xA0 SHL SUB AND DUP6 DUP6 PUSH2 0x36C9 JUMP JUMPDEST POP PUSH2 0x3646 JUMP JUMPDEST PUSH2 0x3552 PUSH2 0x2FE5 JUMP JUMPDEST PUSH1 0x1 PUSH1 0x1 PUSH1 0xA0 SHL SUB AND PUSH4 0xA1E187D PUSH1 0x0 PUSH1 0x6 PUSH2 0x356C PUSH2 0x3E16 JUMP JUMPDEST SWAP1 PUSH2 0x100 EXP SWAP1 DIV PUSH1 0x1 PUSH1 0x1 PUSH1 0xA0 SHL SUB AND PUSH1 0xE PUSH2 0x3586 PUSH2 0x3E16 JUMP JUMPDEST PUSH1 0x40 DUP1 MLOAD PUSH1 0x1 PUSH1 0x1 PUSH1 0xE0 SHL SUB NOT PUSH1 0xE0 DUP7 SWAP1 SHL AND DUP2 MSTORE PUSH1 0x1 PUSH1 0x1 PUSH1 0xA0 SHL SUB SWAP1 SWAP4 AND PUSH1 0x4 DUP5 ADD MSTORE PUSH1 0x24 DUP4 ADD SWAP2 SWAP1 SWAP2 MSTORE PUSH1 0x44 DUP3 ADD DUP8 SWAP1 MSTORE PUSH4 0x1CD554D1 PUSH1 0xE2 SHL PUSH1 0x64 DUP4 ADD MSTORE PUSH20 0xFEEFEEFEEFEEFEEFEEFEEFEEFEEFEEFEEFEEFEEF PUSH1 0x84 DUP4 ADD MSTORE MLOAD PUSH1 0xA4 DUP1 DUP4 ADD SWAP3 PUSH1 0x20 SWAP3 SWAP2 SWAP1 DUP3 SWAP1 SUB ADD DUP2 PUSH1 0x0 DUP8 DUP1 PUSH2 0x35FE PUSH2 0x3EAD JUMP JUMPDEST ISZERO DUP1 ISZERO PUSH2 0x360A JUMPI PUSH1 0x0 DUP1 REVERT JUMPDEST POP GAS PUSH2 0x3614 PUSH2 0x3EDF JUMP JUMPDEST POP POP POP POP POP POP ISZERO DUP1 ISZERO PUSH2 0x362B JUMPI RETURNDATASIZE PUSH1 0x0 DUP1 RETURNDATACOPY RETURNDATASIZE PUSH1 0x0 REVERT JUMPDEST POP POP POP POP PUSH1 0x40 MLOAD RETURNDATASIZE PUSH1 0x20 DUP2 LT ISZERO PUSH2 0x3641 JUMPI PUSH1 0x0 DUP1 REVERT JUMPDEST POP MLOAD SWAP1 POP JUMPDEST PUSH2 0x364E PUSH2 0x2F95 JUMP JUMPDEST PUSH1 0x1 PUSH1 0x1 PUSH1 0xA0 SHL SUB AND PUSH4 0x22BF55EF DUP3 PUSH1 0x40 MLOAD DUP3 PUSH4 0xFFFFFFFF AND PUSH1 0xE0 SHL DUP2 MSTORE PUSH1 0x4 ADD DUP1 DUP3 DUP2 MSTORE PUSH1 0x20 ADD SWAP2 POP POP PUSH1 0x0 PUSH1 0x40 MLOAD DUP1 DUP4 SUB DUP2 PUSH1 0x0 DUP8 DUP1 PUSH2 0x368E PUSH2 0x3EAD JUMP JUMPDEST ISZERO DUP1 ISZERO PUSH2 0x369A JUMPI PUSH1 0x0 DUP1 REVERT JUMPDEST POP GAS PUSH2 0x36A4 PUSH2 0x3EDF JUMP JUMPDEST POP POP POP POP POP POP ISZERO DUP1 ISZERO PUSH2 0x36BB JUMPI RETURNDATASIZE PUSH1 0x0 DUP1 RETURNDATACOPY RETURNDATASIZE PUSH1 0x0 REVERT JUMPDEST POP PUSH1 0x1 SWAP8 SWAP7 POP POP POP POP POP POP POP JUMP JUMPDEST PUSH1 0x0 PUSH1 0x1 PUSH1 0x1 PUSH1 0xA0 SHL SUB DUP4 AND ISZERO DUP1 ISZERO SWAP1 PUSH2 0x3719 JUMPI POP GAS PUSH4 0x996D79A5 PUSH3 0x80000 DUP2 PUSH1 0xE0 SHL DUP2 MSTORE PUSH1 0x20 DUP2 PUSH1 0x4 DUP4 CALLER PUSH1 0x0 SWAP1 GAS CALL DUP1 PUSH2 0x3704 JUMPI PUSH1 0x0 DUP1 REVERT JUMPDEST POP MLOAD PUSH1 0x1 PUSH1 0x1 PUSH1 0xA0 SHL SUB DUP7 DUP2 AND SWAP2 AND EQ ISZERO SWAP2 POP POP JUMPDEST DUP1 ISZERO PUSH2 0x3752 JUMPI POP PUSH1 0x0 PUSH1 0x4 PUSH2 0x372C PUSH2 0x3E16 JUMP JUMPDEST SWAP1 PUSH2 0x100 EXP SWAP1 DIV PUSH1 0x1 PUSH1 0x1 PUSH1 0xA0 SHL SUB AND PUSH1 0x1 PUSH1 0x1 PUSH1 0xA0 SHL SUB AND DUP4 PUSH1 0x1 PUSH1 0x1 PUSH1 0xA0 SHL SUB AND EQ ISZERO JUMPDEST PUSH2 0x37A3 JUMPI PUSH1 0x40 DUP1 MLOAD PUSH3 0x461BCD PUSH1 0xE5 SHL DUP2 MSTORE PUSH1 0x20 PUSH1 0x4 DUP3 ADD MSTORE PUSH1 0x1F PUSH1 0x24 DUP3 ADD MSTORE PUSH32 0x43616E6E6F74207472616E7366657220746F2074686973206164647265737300 PUSH1 0x44 DUP3 ADD MSTORE SWAP1 MLOAD SWAP1 DUP2 SWAP1 SUB PUSH1 0x64 ADD SWAP1 REVERT JUMPDEST PUSH1 0x0 PUSH1 0x7 PUSH2 0x37AF PUSH2 0x3E16 JUMP JUMPDEST PUSH1 0x1 PUSH1 0x1 PUSH1 0xA0 SHL SUB PUSH2 0x100 SWAP3 SWAP1 SWAP3 EXP SWAP1 DIV AND PUSH4 0xB46310F6 DUP6 PUSH2 0x3837 DUP6 PUSH1 0x0 PUSH1 0x7 PUSH2 0x37D7 PUSH2 0x3E16 JUMP JUMPDEST SWAP1 PUSH2 0x100 EXP SWAP1 DIV PUSH1 0x1 PUSH1 0x1 PUSH1 0xA0 SHL SUB AND PUSH1 0x1 PUSH1 0x1 PUSH1 0xA0 SHL SUB AND PUSH4 0x70A08231 DUP11 PUSH1 0x40 MLOAD DUP3 PUSH4 0xFFFFFFFF AND PUSH1 0xE0 SHL DUP2 MSTORE PUSH1 0x4 ADD DUP1 DUP3 PUSH1 0x1 PUSH1 0x1 PUSH1 0xA0 SHL SUB AND PUSH1 0x1 PUSH1 0x1 PUSH1 0xA0 SHL SUB AND DUP2 MSTORE PUSH1 0x20 ADD SWAP2 POP POP PUSH1 0x20 PUSH1 0x40 MLOAD DUP1 DUP4 SUB DUP2 DUP7 DUP1 PUSH2 0x2EA5 PUSH2 0x3EAD JUMP JUMPDEST PUSH1 0x40 MLOAD DUP4 PUSH4 0xFFFFFFFF AND PUSH1 0xE0 SHL DUP2 MSTORE PUSH1 0x4 ADD DUP1 DUP4 PUSH1 0x1 PUSH1 0x1 PUSH1 0xA0 SHL SUB AND PUSH1 0x1 PUSH1 0x1 PUSH1 0xA0 SHL SUB AND DUP2 MSTORE PUSH1 0x20 ADD DUP3 DUP2 MSTORE PUSH1 0x20 ADD SWAP3 POP POP POP PUSH1 0x0 PUSH1 0x40 MLOAD DUP1 DUP4 SUB DUP2 PUSH1 0x0 DUP8 DUP1 PUSH2 0x3881 PUSH2 0x3EAD JUMP JUMPDEST ISZERO DUP1 ISZERO PUSH2 0x388D JUMPI PUSH1 0x0 DUP1 REVERT JUMPDEST POP GAS PUSH2 0x3897 PUSH2 0x3EDF JUMP JUMPDEST POP POP POP POP POP POP ISZERO DUP1 ISZERO PUSH2 0x38AE JUMPI RETURNDATASIZE PUSH1 0x0 DUP1 RETURNDATACOPY RETURNDATASIZE PUSH1 0x0 REVERT JUMPDEST POP POP POP POP PUSH1 0x7 PUSH1 0x0 SWAP1 PUSH2 0x38BF PUSH2 0x3E16 JUMP JUMPDEST PUSH1 0x1 PUSH1 0x1 PUSH1 0xA0 SHL SUB PUSH2 0x100 SWAP3 SWAP1 SWAP3 EXP SWAP1 DIV AND PUSH4 0xB46310F6 DUP5 PUSH2 0x3947 DUP6 PUSH1 0x0 PUSH1 0x7 PUSH2 0x38E7 PUSH2 0x3E16 JUMP JUMPDEST SWAP1 PUSH2 0x100 EXP SWAP1 DIV PUSH1 0x1 PUSH1 0x1 PUSH1 0xA0 SHL SUB AND PUSH1 0x1 PUSH1 0x1 PUSH1 0xA0 SHL SUB AND PUSH4 0x70A08231 DUP10 PUSH1 0x40 MLOAD DUP3 PUSH4 0xFFFFFFFF AND PUSH1 0xE0 SHL DUP2 MSTORE PUSH1 0x4 ADD DUP1 DUP3 PUSH1 0x1 PUSH1 0x1 PUSH1 0xA0 SHL SUB AND PUSH1 0x1 PUSH1 0x1 PUSH1 0xA0 SHL SUB AND DUP2 MSTORE PUSH1 0x20 ADD SWAP2 POP POP PUSH1 0x20 PUSH1 0x40 MLOAD DUP1 DUP4 SUB DUP2 DUP7 DUP1 PUSH2 0x3136 PUSH2 0x3EAD JUMP JUMPDEST PUSH1 0x40 MLOAD DUP4 PUSH4 0xFFFFFFFF AND PUSH1 0xE0 SHL DUP2 MSTORE PUSH1 0x4 ADD DUP1 DUP4 PUSH1 0x1 PUSH1 0x1 PUSH1 0xA0 SHL SUB AND PUSH1 0x1 PUSH1 0x1 PUSH1 0xA0 SHL SUB AND DUP2 MSTORE PUSH1 0x20 ADD DUP3 DUP2 MSTORE PUSH1 0x20 ADD SWAP3 POP POP POP PUSH1 0x0 PUSH1 0x40 MLOAD DUP1 DUP4 SUB DUP2 PUSH1 0x0 DUP8 DUP1 PUSH2 0x3991 PUSH2 0x3EAD JUMP JUMPDEST ISZERO DUP1 ISZERO PUSH2 0x399D JUMPI PUSH1 0x0 DUP1 REVERT JUMPDEST POP GAS PUSH2 0x39A7 PUSH2 0x3EDF JUMP JUMPDEST POP POP POP POP POP POP ISZERO DUP1 ISZERO PUSH2 0x39BE JUMPI RETURNDATASIZE PUSH1 0x0 DUP1 RETURNDATACOPY RETURNDATASIZE PUSH1 0x0 REVERT JUMPDEST POP POP POP POP PUSH2 0x39CD DUP5 DUP5 DUP5 PUSH2 0x3BA6 JUMP JUMPDEST POP PUSH1 0x1 SWAP4 SWAP3 POP POP POP JUMP JUMPDEST PUSH1 0x0 DUP3 DUP3 GT ISZERO PUSH2 0x3A2E JUMPI PUSH1 0x40 DUP1 MLOAD PUSH3 0x461BCD PUSH1 0xE5 SHL DUP2 MSTORE PUSH1 0x20 PUSH1 0x4 DUP3 ADD MSTORE PUSH1 0x1E PUSH1 0x24 DUP3 ADD MSTORE PUSH32 0x536166654D6174683A207375627472616374696F6E206F766572666C6F770000 PUSH1 0x44 DUP3 ADD MSTORE SWAP1 MLOAD SWAP1 DUP2 SWAP1 SUB PUSH1 0x64 ADD SWAP1 REVERT JUMPDEST POP SWAP1 SUB SWAP1 JUMP JUMPDEST PUSH1 0x1 PUSH1 0x1 PUSH1 0xA0 SHL SUB AND SWAP1 JUMP JUMPDEST PUSH1 0x0 PUSH2 0x2FE0 PUSH12 0x53797374656D537461747573 PUSH1 0xA0 SHL PUSH1 0x40 MLOAD DUP1 PUSH1 0x40 ADD PUSH1 0x40 MSTORE DUP1 PUSH1 0x1C DUP2 MSTORE PUSH1 0x20 ADD PUSH32 0x4D697373696E672053797374656D537461747573206164647265737300000000 DUP2 MSTORE POP JUMPDEST PUSH1 0x0 DUP3 DUP2 MSTORE PUSH1 0xC PUSH1 0x20 MSTORE PUSH1 0x40 DUP2 KECCAK256 DUP2 SWAP1 DUP2 SWAP1 PUSH2 0x3AA6 PUSH2 0x3E16 JUMP JUMPDEST PUSH1 0x1 PUSH1 0x1 PUSH1 0xA0 SHL SUB PUSH2 0x100 SWAP3 SWAP1 SWAP3 EXP SWAP1 DIV AND SWAP1 POP DUP3 DUP2 PUSH2 0x3B44 JUMPI PUSH1 0x40 MLOAD PUSH3 0x461BCD PUSH1 0xE5 SHL DUP2 MSTORE PUSH1 0x4 ADD DUP1 DUP1 PUSH1 0x20 ADD DUP3 DUP2 SUB DUP3 MSTORE DUP4 DUP2 DUP2 MLOAD DUP2 MSTORE PUSH1 0x20 ADD SWAP2 POP DUP1 MLOAD SWAP1 PUSH1 0x20 ADD SWAP1 DUP1 DUP4 DUP4 PUSH1 0x0 JUMPDEST DUP4 DUP2 LT ISZERO PUSH2 0x3B09 JUMPI DUP2 DUP2 ADD MLOAD DUP4 DUP3 ADD MSTORE PUSH1 0x20 ADD PUSH2 0x3AF1 JUMP JUMPDEST POP POP POP POP SWAP1 POP SWAP1 DUP2 ADD SWAP1 PUSH1 0x1F AND DUP1 ISZERO PUSH2 0x3B36 JUMPI DUP1 DUP3 SUB DUP1 MLOAD PUSH1 0x1 DUP4 PUSH1 0x20 SUB PUSH2 0x100 EXP SUB NOT AND DUP2 MSTORE PUSH1 0x20 ADD SWAP2 POP JUMPDEST POP SWAP3 POP POP POP PUSH1 0x40 MLOAD DUP1 SWAP2 SUB SWAP1 REVERT JUMPDEST POP SWAP4 SWAP3 POP POP POP JUMP JUMPDEST PUSH1 0x0 DUP3 DUP3 ADD DUP4 DUP2 LT ISZERO PUSH2 0x1DD1 JUMPI PUSH1 0x40 DUP1 MLOAD PUSH3 0x461BCD PUSH1 0xE5 SHL DUP2 MSTORE PUSH1 0x20 PUSH1 0x4 DUP3 ADD MSTORE PUSH1 0x1B PUSH1 0x24 DUP3 ADD MSTORE PUSH32 0x536166654D6174683A206164646974696F6E206F766572666C6F770000000000 PUSH1 0x44 DUP3 ADD MSTORE SWAP1 MLOAD SWAP1 DUP2 SWAP1 SUB PUSH1 0x64 ADD SWAP1 REVERT JUMPDEST PUSH1 0x0 PUSH1 0x4 PUSH2 0x3BB2 PUSH2 0x3E16 JUMP JUMPDEST SWAP1 PUSH2 0x100 EXP SWAP1 DIV PUSH1 0x1 PUSH1 0x1 PUSH1 0xA0 SHL SUB AND PUSH1 0x1 PUSH1 0x1 PUSH1 0xA0 SHL SUB AND PUSH4 0x907DFF97 DUP3 PUSH1 0x40 MLOAD PUSH1 0x20 ADD DUP1 DUP3 DUP2 MSTORE PUSH1 0x20 ADD SWAP2 POP POP PUSH1 0x40 MLOAD PUSH1 0x20 DUP2 DUP4 SUB SUB DUP2 MSTORE SWAP1 PUSH1 0x40 MSTORE PUSH1 0x3 PUSH1 0x40 MLOAD DUP1 DUP1 PUSH2 0x411C PUSH1 0x21 SWAP2 CODECOPY PUSH1 0x21 ADD SWAP1 POP PUSH1 0x40 MLOAD DUP1 SWAP2 SUB SWAP1 KECCAK256 PUSH2 0x2A43 DUP9 PUSH2 0x3A34 JUMP JUMPDEST PUSH1 0x0 PUSH1 0x4 PUSH2 0x3C20 PUSH2 0x3E16 JUMP JUMPDEST SWAP1 PUSH2 0x100 EXP SWAP1 DIV PUSH1 0x1 PUSH1 0x1 PUSH1 0xA0 SHL SUB AND PUSH1 0x1 PUSH1 0x1 PUSH1 0xA0 SHL SUB AND PUSH4 0x907DFF97 DUP3 PUSH1 0x40 MLOAD PUSH1 0x20 ADD DUP1 DUP3 DUP2 MSTORE PUSH1 0x20 ADD SWAP2 POP POP PUSH1 0x40 MLOAD PUSH1 0x20 DUP2 DUP4 SUB SUB DUP2 MSTORE SWAP1 PUSH1 0x40 MSTORE PUSH1 0x2 PUSH1 0x40 MLOAD DUP1 DUP1 PUSH32 0x49737375656428616464726573732C75696E7432353629000000000000000000 DUP2 MSTORE POP PUSH1 0x17 ADD SWAP1 POP PUSH1 0x40 MLOAD DUP1 SWAP2 SUB SWAP1 KECCAK256 PUSH2 0x3C9F DUP8 PUSH2 0x3A34 JUMP JUMPDEST PUSH1 0x0 DUP1 PUSH1 0x40 MLOAD DUP8 PUSH4 0xFFFFFFFF AND PUSH1 0xE0 SHL DUP2 MSTORE PUSH1 0x4 ADD DUP1 DUP1 PUSH1 0x20 ADD DUP8 DUP2 MSTORE PUSH1 0x20 ADD DUP7 DUP2 MSTORE PUSH1 0x20 ADD DUP6 DUP2 MSTORE PUSH1 0x20 ADD DUP5 PUSH1 0x0 SHL DUP2 MSTORE PUSH1 0x20 ADD DUP4 PUSH1 0x0 SHL DUP2 MSTORE PUSH1 0x20 ADD DUP3 DUP2 SUB DUP3 MSTORE DUP9 DUP2 DUP2 MLOAD DUP2 MSTORE PUSH1 0x20 ADD SWAP2 POP DUP1 MLOAD SWAP1 PUSH1 0x20 ADD SWAP1 DUP1 DUP4 DUP4 PUSH1 0x0 JUMPDEST DUP4 DUP2 LT ISZERO PUSH2 0x3D12 JUMPI DUP2 DUP2 ADD MLOAD DUP4 DUP3 ADD MSTORE PUSH1 0x20 ADD PUSH2 0x3CFA JUMP JUMPDEST POP POP POP POP SWAP1 POP SWAP1 DUP2 ADD SWAP1 PUSH1 0x1F AND DUP1 ISZERO PUSH2 0x3D3F JUMPI DUP1 DUP3 SUB DUP1 MLOAD PUSH1 0x1 DUP4 PUSH1 0x20 SUB PUSH2 0x100 EXP SUB NOT AND DUP2 MSTORE PUSH1 0x20 ADD SWAP2 POP JUMPDEST POP SWAP8 POP POP POP POP POP POP POP POP PUSH1 0x0 PUSH1 0x40 MLOAD DUP1 DUP4 SUB DUP2 PUSH1 0x0 DUP8 DUP1 PUSH2 0x3D5E PUSH2 0x3EAD JUMP JUMPDEST ISZERO DUP1 ISZERO PUSH2 0x3D6A JUMPI PUSH1 0x0 DUP1 REVERT JUMPDEST POP GAS PUSH2 0x3D74 PUSH2 0x3EDF JUMP JUMPDEST POP POP POP POP POP POP ISZERO DUP1 ISZERO PUSH2 0x160E JUMPI RETURNDATASIZE PUSH1 0x0 DUP1 RETURNDATACOPY RETURNDATASIZE PUSH1 0x0 REVERT JUMPDEST PUSH1 0x0 PUSH1 0x4 PUSH2 0x3D97 PUSH2 0x3E16 JUMP JUMPDEST SWAP1 PUSH2 0x100 EXP SWAP1 DIV PUSH1 0x1 PUSH1 0x1 PUSH1 0xA0 SHL SUB AND PUSH1 0x1 PUSH1 0x1 PUSH1 0xA0 SHL SUB AND PUSH4 0x907DFF97 DUP3 PUSH1 0x40 MLOAD PUSH1 0x20 ADD DUP1 DUP3 DUP2 MSTORE PUSH1 0x20 ADD SWAP2 POP POP PUSH1 0x40 MLOAD PUSH1 0x20 DUP2 DUP4 SUB SUB DUP2 MSTORE SWAP1 PUSH1 0x40 MSTORE PUSH1 0x2 PUSH1 0x40 MLOAD DUP1 DUP1 PUSH32 0x4275726E656428616464726573732C75696E7432353629000000000000000000 DUP2 MSTORE POP PUSH1 0x17 ADD SWAP1 POP PUSH1 0x40 MLOAD DUP1 SWAP2 SUB SWAP1 KECCAK256 PUSH2 0x3C9F DUP8 PUSH2 0x3A34 JUMP JUMPDEST PUSH4 0x412CC41 PUSH1 0xE3 SHL PUSH3 0x80000 SWAP1 DUP2 MSTORE PUSH3 0x80004 DUP4 SWAP1 MSTORE PUSH4 0x20966208 SWAP1 PUSH1 0x20 DUP2 PUSH1 0x24 DUP2 CALLER PUSH1 0x0 SWAP1 GAS CALL DUP1 PUSH2 0x3E48 JUMPI PUSH1 0x0 DUP1 REVERT JUMPDEST POP MLOAD SWAP3 POP POP JUMP JUMPDEST PUSH4 0x73509064 PUSH3 0x80000 DUP2 PUSH1 0xE0 SHL DUP2 MSTORE PUSH1 0x20 DUP2 PUSH1 0x4 DUP4 CALLER PUSH1 0x0 SWAP1 GAS CALL DUP1 PUSH2 0x3E48 JUMPI PUSH1 0x0 DUP1 REVERT JUMPDEST PUSH4 0x146E595 PUSH1 0xE5 SHL PUSH3 0x80000 SWAP1 DUP2 MSTORE PUSH3 0x80004 DUP4 SWAP1 MSTORE PUSH3 0x80024 DUP5 SWAP1 MSTORE PUSH4 0x28DCB2A0 SWAP1 PUSH1 0x0 DUP2 PUSH1 0x44 DUP2 CALLER PUSH1 0x0 SWAP1 GAS CALL DUP1 PUSH2 0x150B JUMPI PUSH1 0x0 DUP1 REVERT JUMPDEST PUSH4 0xC3382D0F PUSH1 0xE0 SHL PUSH3 0x80000 SWAP1 DUP2 MSTORE PUSH3 0x80004 DUP4 SWAP1 MSTORE PUSH4 0xC3382D0F SWAP1 PUSH1 0x20 DUP2 PUSH1 0x24 DUP2 CALLER PUSH1 0x0 SWAP1 GAS CALL DUP1 PUSH2 0x3E48 JUMPI PUSH1 0x0 DUP1 REVERT JUMPDEST PUSH4 0x131B5F21 PUSH1 0xE2 SHL PUSH3 0x80000 SWAP1 DUP2 MSTORE PUSH3 0x80004 DUP5 SWAP1 MSTORE PUSH4 0x4C6D7C84 SWAP1 PUSH1 0x0 JUMPDEST DUP9 DUP2 LT ISZERO PUSH2 0x3F19 JUMPI DUP8 DUP2 ADD MLOAD DUP3 DUP3 ADD PUSH1 0x24 ADD MSTORE PUSH1 0x20 ADD PUSH2 0x3EFE JUMP JUMPDEST POP DUP10 DUP10 DUP10 PUSH1 0x24 ADD DUP4 CALLER PUSH1 0x0 SWAP1 GAS CALL DUP1 PUSH2 0x3F31 JUMPI PUSH1 0x0 DUP1 REVERT JUMPDEST SWAP10 POP POP POP JUMP JUMPDEST PUSH4 0xFBB0F79D PUSH1 0xE0 SHL PUSH3 0x80000 SWAP1 DUP2 MSTORE PUSH3 0x80004 DUP5 SWAP1 MSTORE PUSH4 0xFBB0F79D SWAP1 PUSH1 0x0 JUMPDEST DUP8 DUP2 LT ISZERO PUSH2 0x3F71 JUMPI DUP7 DUP2 ADD MLOAD DUP3 DUP3 ADD PUSH1 0x24 ADD MSTORE PUSH1 0x20 ADD PUSH2 0x3F56 JUMP JUMPDEST POP DUP9 DUP9 DUP9 PUSH1 0x24 ADD DUP4 CALLER PUSH1 0x0 SWAP1 GAS CALL DUP1 PUSH2 0x3F89 JUMPI PUSH1 0x0 DUP1 REVERT JUMPDEST SWAP9 POP POP POP JUMP JUMPDEST PUSH4 0xBDBF8C36 PUSH3 0x80000 DUP2 PUSH1 0xE0 SHL DUP2 MSTORE PUSH1 0x20 DUP2 PUSH1 0x4 DUP4 CALLER PUSH1 0x0 SWAP1 GAS CALL DUP1 PUSH2 0x3E48 JUMPI PUSH1 0x0 DUP1 REVERT JUMPDEST PUSH1 0x40 MLOAD DUP1 PUSH2 0x300 ADD PUSH1 0x40 MSTORE DUP1 PUSH1 0x18 SWAP1 PUSH1 0x20 DUP3 MUL DUP1 CODESIZE DUP4 CODECOPY POP SWAP2 SWAP3 SWAP2 POP POP JUMP INVALID MSIZE PUSH16 0x75206D757374206265206E6F6D696E61 PUSH21 0x6564206265666F726520796F752063616E20616363 PUSH6 0x7074206F776E PUSH6 0x727368697049 PUSH15 0x73756666696369656E742062616C61 PUSH15 0x636520616674657220616E79207365 PUSH21 0x746C656D656E74206F77696E674F6E6C7920466565 POP PUSH16 0x6F6C2C2045786368616E6765722C2049 PUSH20 0x73756572206F72204D756C7469436F6C6C617465 PUSH19 0x616C20636F6E74726163747320616C6C6F7765 PUSH5 0x5265736F6C PUSH23 0x6572206973206D697373696E67206D756C7469436F6C6C PUSH2 0x7465 PUSH19 0x616C20616464726573734F6E6C792074686520 PUSH4 0x6F6E7472 PUSH2 0x6374 KECCAK256 PUSH16 0x776E6572206D617920706572666F726D KECCAK256 PUSH21 0x68697320616374696F6E417070726F76616C286164 PUSH5 0x726573732C PUSH2 0x6464 PUSH19 0x6573732C75696E743235362943616E6E6F7420 PUSH21 0x72616E7366657220647572696E672077616974696E PUSH8 0x20706572696F6454 PUSH19 0x616E7366657228616464726573732C61646472 PUSH6 0x73732C75696E PUSH21 0x323536290000000000000000000000000000000000 "
		}
	}
}