{
	"abi": [
		{
			"inputs": [
				{
					"internalType": "address",
					"name": "_owner",
					"type": "address"
				}
			],
			"payable": false,
			"stateMutability": "nonpayable",
			"type": "constructor"
		},
		{
			"anonymous": false,
			"inputs": [
				{
					"indexed": false,
					"internalType": "address",
					"name": "oldOwner",
					"type": "address"
				},
				{
					"indexed": false,
					"internalType": "address",
					"name": "newOwner",
					"type": "address"
				}
			],
			"name": "OwnerChanged",
			"type": "event"
		},
		{
			"anonymous": false,
			"inputs": [
				{
					"indexed": false,
					"internalType": "address",
					"name": "newOwner",
					"type": "address"
				}
			],
			"name": "OwnerNominated",
			"type": "event"
		},
		{
			"anonymous": false,
			"inputs": [
				{
					"indexed": false,
					"internalType": "address",
					"name": "newTarget",
					"type": "address"
				}
			],
			"name": "TargetUpdated",
			"type": "event"
		},
		{
			"payable": false,
			"stateMutability": "nonpayable",
			"type": "fallback"
		},
		{
			"constant": false,
			"inputs": [],
			"name": "acceptOwnership",
			"outputs": [],
			"payable": false,
			"stateMutability": "nonpayable",
			"type": "function"
		},
		{
			"constant": false,
			"inputs": [
				{
					"internalType": "address",
					"name": "_owner",
					"type": "address"
				}
			],
			"name": "nominateNewOwner",
			"outputs": [],
			"payable": false,
			"stateMutability": "nonpayable",
			"type": "function"
		},
		{
			"constant": true,
			"inputs": [],
			"name": "nominatedOwner",
			"outputs": [
				{
					"internalType": "address",
					"name": "",
					"type": "address"
				}
			],
			"payable": false,
			"stateMutability": "view",
			"type": "function"
		},
		{
			"constant": true,
			"inputs": [],
			"name": "owner",
			"outputs": [
				{
					"internalType": "address",
					"name": "",
					"type": "address"
				}
			],
			"payable": false,
			"stateMutability": "view",
			"type": "function"
		},
		{
			"constant": false,
			"inputs": [
				{
					"internalType": "address",
					"name": "_target",
					"type": "address"
				}
			],
			"name": "setTarget",
			"outputs": [],
			"payable": false,
			"stateMutability": "nonpayable",
			"type": "function"
		},
		{
			"constant": true,
			"inputs": [],
			"name": "target",
			"outputs": [
				{
					"internalType": "address",
					"name": "",
					"type": "address"
				}
			],
			"payable": false,
			"stateMutability": "view",
			"type": "function"
		}
	],
	"evm": {
		"bytecode": {
			"linkReferences": {},
			"object": "608060405234801561001057600080fd5b506040516107ed3803806107ed8339818101604052602081101561003357600080fd5b5051806001600160a01b038116610091576040805162461bcd60e51b815260206004820152601960248201527f4f776e657220616464726573732063616e6e6f74206265203000000000000000604482015290519081900360640190fd5b80600060018161009f61010f565b816001600160a01b0302191690836001600160a01b03160217906100c1610148565b505060408051600081526001600160a01b038416602082015281517fb532073b38c83145e3e5135377a08bf9aab55bc0fd7c1179cd4fb995d2a5159c93509081900390910190a15050610186565b630412cc4160e31b6208000090815262080004839052632096620890602081602481336000905af18061014157600080fd5b5051925050565b630146e59560e51b6208000090815262080004839052620800248490526328dcb2a090600081604481336000905af18061018157600080fd5b505050565b610658806101956000396000f3fe608060405234801561001057600080fd5b50600436106100625760003560e01c80631627540c1461009957806353a47bb7146100c1578063776d1a01146100e557806379ba50971461010b5780638da5cb5b14610113578063d4b839921461011b575b366000803760008036600060026100776104aa565b5a6100806104e3565b50505050503d6000803e80610094573d6000fd5b3d6000f35b6100bf600480360360208110156100af57600080fd5b50356001600160a01b0316610123565b005b6100c9610207565b604080516001600160a01b039092168252519081900360200190f35b6100bf600480360360208110156100fb57600080fd5b50356001600160a01b0316610226565b6100bf610322565b6100c9610497565b6100c96104a2565b60008061012e6104aa565b906101000a90046001600160a01b03166001600160a01b03165a61015061053b565b6001600160a01b0316146101955760405162461bcd60e51b815260040180806020018281038252602f8152602001806105cf602f913960400191505060405180910390fd5b80600180806101a26104aa565b816001600160a01b0302191690836001600160a01b03160217906101c4610560565b5050604080516001600160a01b038416815290517f906a1c6bd7e3091ea86693dd029a831c19049ce77f1dce2ce0bab1cacbabce2292509081900360200190a150565b600060016102136104aa565b906101000a90046001600160a01b031681565b6000806102316104aa565b906101000a90046001600160a01b03166001600160a01b03165a61025361053b565b6001600160a01b0316146102985760405162461bcd60e51b815260040180806020018281038252602f8152602001806105cf602f913960400191505060405180910390fd5b8060026001816102a66104aa565b816001600160a01b0302191690836001600160a01b03160217906102c8610560565b5050507f814250a3b8c79fcbe2ead2c131c952a278491c8f4322a79fe84b5040a810373e60026000906102f96104aa565b604080516101009390930a9091046001600160a01b03168252516020918190039190910190a150565b6000600161032e6104aa565b906101000a90046001600160a01b03166001600160a01b03165a61035061053b565b6001600160a01b0316146103955760405162461bcd60e51b815260040180806020018281038252603581526020018061059a6035913960400191505060405180910390fd5b7fb532073b38c83145e3e5135377a08bf9aab55bc0fd7c1179cd4fb995d2a5159c6000806103c16104aa565b906101000a90046001600160a01b031660016000906103de6104aa565b604080516001600160a01b0394851681526101009390930a909104909216602082015281519081900390910190a1600060016104186104aa565b906101000a90046001600160a01b03166000806101000a816104386104aa565b816001600160a01b0302191690836001600160a01b031602179061045a610560565b5050506000600160006101000a816104706104aa565b816001600160a01b0302191690836001600160a01b0316021790610492610560565b505050565b6000806102136104aa565b600060026102135b630412cc4160e31b6208000090815262080004839052632096620890602081602481336000905af1806104dc57600080fd5b5051925050565b63fbb0f79d60e01b620800009081526208000484905263fbb0f79d9060005b8781101561051d578681015182820160240152602001610502565b5088888860240183336000905af18061053557600080fd5b98505050565b6373509064620800008160e01b8152602081600483336000905af1806104dc57600080fd5b630146e59560e51b6208000090815262080004839052620800248490526328dcb2a090600081604481336000905af18061049257600080fdfe596f75206d757374206265206e6f6d696e61746564206265666f726520796f752063616e20616363657074206f776e6572736869704f6e6c792074686520636f6e7472616374206f776e6572206d617920706572666f726d207468697320616374696f6ea265627a7a723158201d8b3f19436f42d29b7596dfe59cd22f63f8af2c8ec36f46d3a05175e6b5e45c64736f6c637828302e352e31362d646576656c6f702e323032302e382e31332b636f6d6d69742e36626530393032660058",
			"opcodes": "PUSH1 0x80 PUSH1 0x40 MSTORE CALLVALUE DUP1 ISZERO PUSH2 0x10 JUMPI PUSH1 0x0 DUP1 REVERT JUMPDEST POP PUSH1 0x40 MLOAD PUSH2 0x7ED CODESIZE SUB DUP1 PUSH2 0x7ED DUP4 CODECOPY DUP2 DUP2 ADD PUSH1 0x40 MSTORE PUSH1 0x20 DUP2 LT ISZERO PUSH2 0x33 JUMPI PUSH1 0x0 DUP1 REVERT JUMPDEST POP MLOAD DUP1 PUSH1 0x1 PUSH1 0x1 PUSH1 0xA0 SHL SUB DUP2 AND PUSH2 0x91 JUMPI PUSH1 0x40 DUP1 MLOAD PUSH3 0x461BCD PUSH1 0xE5 SHL DUP2 MSTORE PUSH1 0x20 PUSH1 0x4 DUP3 ADD MSTORE PUSH1 0x19 PUSH1 0x24 DUP3 ADD MSTORE PUSH32 0x4F776E657220616464726573732063616E6E6F74206265203000000000000000 PUSH1 0x44 DUP3 ADD MSTORE SWAP1 MLOAD SWAP1 DUP2 SWAP1 SUB PUSH1 0x64 ADD SWAP1 REVERT JUMPDEST DUP1 PUSH1 0x0 PUSH1 0x1 DUP2 PUSH2 0x9F PUSH2 0x10F JUMP JUMPDEST DUP2 PUSH1 0x1 PUSH1 0x1 PUSH1 0xA0 SHL SUB MUL NOT AND SWAP1 DUP4 PUSH1 0x1 PUSH1 0x1 PUSH1 0xA0 SHL SUB AND MUL OR SWAP1 PUSH2 0xC1 PUSH2 0x148 JUMP JUMPDEST POP POP PUSH1 0x40 DUP1 MLOAD PUSH1 0x0 DUP2 MSTORE PUSH1 0x1 PUSH1 0x1 PUSH1 0xA0 SHL SUB DUP5 AND PUSH1 0x20 DUP3 ADD MSTORE DUP2 MLOAD PUSH32 0xB532073B38C83145E3E5135377A08BF9AAB55BC0FD7C1179CD4FB995D2A5159C SWAP4 POP SWAP1 DUP2 SWAP1 SUB SWAP1 SWAP2 ADD SWAP1 LOG1 POP POP PUSH2 0x186 JUMP JUMPDEST PUSH4 0x412CC41 PUSH1 0xE3 SHL PUSH3 0x80000 SWAP1 DUP2 MSTORE PUSH3 0x80004 DUP4 SWAP1 MSTORE PUSH4 0x20966208 SWAP1 PUSH1 0x20 DUP2 PUSH1 0x24 DUP2 CALLER PUSH1 0x0 SWAP1 GAS CALL DUP1 PUSH2 0x141 JUMPI PUSH1 0x0 DUP1 REVERT JUMPDEST POP MLOAD SWAP3 POP POP JUMP JUMPDEST PUSH4 0x146E595 PUSH1 0xE5 SHL PUSH3 0x80000 SWAP1 DUP2 MSTORE PUSH3 0x80004 DUP4 SWAP1 MSTORE PUSH3 0x80024 DUP5 SWAP1 MSTORE PUSH4 0x28DCB2A0 SWAP1 PUSH1 0x0 DUP2 PUSH1 0x44 DUP2 CALLER PUSH1 0x0 SWAP1 GAS CALL DUP1 PUSH2 0x181 JUMPI PUSH1 0x0 DUP1 REVERT JUMPDEST POP POP POP JUMP JUMPDEST PUSH2 0x658 DUP1 PUSH2 0x195 PUSH1 0x0 CODECOPY PUSH1 0x0 RETURN INVALID PUSH1 0x80 PUSH1 0x40 MSTORE CALLVALUE DUP1 ISZERO PUSH2 0x10 JUMPI PUSH1 0x0 DUP1 REVERT JUMPDEST POP PUSH1 0x4 CALLDATASIZE LT PUSH2 0x62 JUMPI PUSH1 0x0 CALLDATALOAD PUSH1 0xE0 SHR DUP1 PUSH4 0x1627540C EQ PUSH2 0x99 JUMPI DUP1 PUSH4 0x53A47BB7 EQ PUSH2 0xC1 JUMPI DUP1 PUSH4 0x776D1A01 EQ PUSH2 0xE5 JUMPI DUP1 PUSH4 0x79BA5097 EQ PUSH2 0x10B JUMPI DUP1 PUSH4 0x8DA5CB5B EQ PUSH2 0x113 JUMPI DUP1 PUSH4 0xD4B83992 EQ PUSH2 0x11B JUMPI JUMPDEST CALLDATASIZE PUSH1 0x0 DUP1 CALLDATACOPY PUSH1 0x0 DUP1 CALLDATASIZE PUSH1 0x0 PUSH1 0x2 PUSH2 0x77 PUSH2 0x4AA JUMP JUMPDEST GAS PUSH2 0x80 PUSH2 0x4E3 JUMP JUMPDEST POP POP POP POP POP RETURNDATASIZE PUSH1 0x0 DUP1 RETURNDATACOPY DUP1 PUSH2 0x94 JUMPI RETURNDATASIZE PUSH1 0x0 REVERT JUMPDEST RETURNDATASIZE PUSH1 0x0 RETURN JUMPDEST PUSH2 0xBF PUSH1 0x4 DUP1 CALLDATASIZE SUB PUSH1 0x20 DUP2 LT ISZERO PUSH2 0xAF JUMPI PUSH1 0x0 DUP1 REVERT JUMPDEST POP CALLDATALOAD PUSH1 0x1 PUSH1 0x1 PUSH1 0xA0 SHL SUB AND PUSH2 0x123 JUMP JUMPDEST STOP JUMPDEST PUSH2 0xC9 PUSH2 0x207 JUMP JUMPDEST PUSH1 0x40 DUP1 MLOAD PUSH1 0x1 PUSH1 0x1 PUSH1 0xA0 SHL SUB SWAP1 SWAP3 AND DUP3 MSTORE MLOAD SWAP1 DUP2 SWAP1 SUB PUSH1 0x20 ADD SWAP1 RETURN JUMPDEST PUSH2 0xBF PUSH1 0x4 DUP1 CALLDATASIZE SUB PUSH1 0x20 DUP2 LT ISZERO PUSH2 0xFB JUMPI PUSH1 0x0 DUP1 REVERT JUMPDEST POP CALLDATALOAD PUSH1 0x1 PUSH1 0x1 PUSH1 0xA0 SHL SUB AND PUSH2 0x226 JUMP JUMPDEST PUSH2 0xBF PUSH2 0x322 JUMP JUMPDEST PUSH2 0xC9 PUSH2 0x497 JUMP JUMPDEST PUSH2 0xC9 PUSH2 0x4A2 JUMP JUMPDEST PUSH1 0x0 DUP1 PUSH2 0x12E PUSH2 0x4AA JUMP JUMPDEST SWAP1 PUSH2 0x100 EXP SWAP1 DIV PUSH1 0x1 PUSH1 0x1 PUSH1 0xA0 SHL SUB AND PUSH1 0x1 PUSH1 0x1 PUSH1 0xA0 SHL SUB AND GAS PUSH2 0x150 PUSH2 0x53B JUMP JUMPDEST PUSH1 0x1 PUSH1 0x1 PUSH1 0xA0 SHL SUB AND EQ PUSH2 0x195 JUMPI PUSH1 0x40 MLOAD PUSH3 0x461BCD PUSH1 0xE5 SHL DUP2 MSTORE PUSH1 0x4 ADD DUP1 DUP1 PUSH1 0x20 ADD DUP3 DUP2 SUB DUP3 MSTORE PUSH1 0x2F DUP2 MSTORE PUSH1 0x20 ADD DUP1 PUSH2 0x5CF PUSH1 0x2F SWAP2 CODECOPY PUSH1 0x40 ADD SWAP2 POP POP PUSH1 0x40 MLOAD DUP1 SWAP2 SUB SWAP1 REVERT JUMPDEST DUP1 PUSH1 0x1 DUP1 DUP1 PUSH2 0x1A2 PUSH2 0x4AA JUMP JUMPDEST DUP2 PUSH1 0x1 PUSH1 0x1 PUSH1 0xA0 SHL SUB MUL NOT AND SWAP1 DUP4 PUSH1 0x1 PUSH1 0x1 PUSH1 0xA0 SHL SUB AND MUL OR SWAP1 PUSH2 0x1C4 PUSH2 0x560 JUMP JUMPDEST POP POP PUSH1 0x40 DUP1 MLOAD PUSH1 0x1 PUSH1 0x1 PUSH1 0xA0 SHL SUB DUP5 AND DUP2 MSTORE SWAP1 MLOAD PUSH32 0x906A1C6BD7E3091EA86693DD029A831C19049CE77F1DCE2CE0BAB1CACBABCE22 SWAP3 POP SWAP1 DUP2 SWAP1 SUB PUSH1 0x20 ADD SWAP1 LOG1 POP JUMP JUMPDEST PUSH1 0x0 PUSH1 0x1 PUSH2 0x213 PUSH2 0x4AA JUMP JUMPDEST SWAP1 PUSH2 0x100 EXP SWAP1 DIV PUSH1 0x1 PUSH1 0x1 PUSH1 0xA0 SHL SUB AND DUP2 JUMP JUMPDEST PUSH1 0x0 DUP1 PUSH2 0x231 PUSH2 0x4AA JUMP JUMPDEST SWAP1 PUSH2 0x100 EXP SWAP1 DIV PUSH1 0x1 PUSH1 0x1 PUSH1 0xA0 SHL SUB AND PUSH1 0x1 PUSH1 0x1 PUSH1 0xA0 SHL SUB AND GAS PUSH2 0x253 PUSH2 0x53B JUMP JUMPDEST PUSH1 0x1 PUSH1 0x1 PUSH1 0xA0 SHL SUB AND EQ PUSH2 0x298 JUMPI PUSH1 0x40 MLOAD PUSH3 0x461BCD PUSH1 0xE5 SHL DUP2 MSTORE PUSH1 0x4 ADD DUP1 DUP1 PUSH1 0x20 ADD DUP3 DUP2 SUB DUP3 MSTORE PUSH1 0x2F DUP2 MSTORE PUSH1 0x20 ADD DUP1 PUSH2 0x5CF PUSH1 0x2F SWAP2 CODECOPY PUSH1 0x40 ADD SWAP2 POP POP PUSH1 0x40 MLOAD DUP1 SWAP2 SUB SWAP1 REVERT JUMPDEST DUP1 PUSH1 0x2 PUSH1 0x1 DUP2 PUSH2 0x2A6 PUSH2 0x4AA JUMP JUMPDEST DUP2 PUSH1 0x1 PUSH1 0x1 PUSH1 0xA0 SHL SUB MUL NOT AND SWAP1 DUP4 PUSH1 0x1 PUSH1 0x1 PUSH1 0xA0 SHL SUB AND MUL OR SWAP1 PUSH2 0x2C8 PUSH2 0x560 JUMP JUMPDEST POP POP POP PUSH32 0x814250A3B8C79FCBE2EAD2C131C952A278491C8F4322A79FE84B5040A810373E PUSH1 0x2 PUSH1 0x0 SWAP1 PUSH2 0x2F9 PUSH2 0x4AA JUMP JUMPDEST PUSH1 0x40 DUP1 MLOAD PUSH2 0x100 SWAP4 SWAP1 SWAP4 EXP SWAP1 SWAP2 DIV PUSH1 0x1 PUSH1 0x1 PUSH1 0xA0 SHL SUB AND DUP3 MSTORE MLOAD PUSH1 0x20 SWAP2 DUP2 SWAP1 SUB SWAP2 SWAP1 SWAP2 ADD SWAP1 LOG1 POP JUMP JUMPDEST PUSH1 0x0 PUSH1 0x1 PUSH2 0x32E PUSH2 0x4AA JUMP JUMPDEST SWAP1 PUSH2 0x100 EXP SWAP1 DIV PUSH1 0x1 PUSH1 0x1 PUSH1 0xA0 SHL SUB AND PUSH1 0x1 PUSH1 0x1 PUSH1 0xA0 SHL SUB AND GAS PUSH2 0x350 PUSH2 0x53B JUMP JUMPDEST PUSH1 0x1 PUSH1 0x1 PUSH1 0xA0 SHL SUB AND EQ PUSH2 0x395 JUMPI PUSH1 0x40 MLOAD PUSH3 0x461BCD PUSH1 0xE5 SHL DUP2 MSTORE PUSH1 0x4 ADD DUP1 DUP1 PUSH1 0x20 ADD DUP3 DUP2 SUB DUP3 MSTORE PUSH1 0x35 DUP2 MSTORE PUSH1 0x20 ADD DUP1 PUSH2 0x59A PUSH1 0x35 SWAP2 CODECOPY PUSH1 0x40 ADD SWAP2 POP POP PUSH1 0x40 MLOAD DUP1 SWAP2 SUB SWAP1 REVERT JUMPDEST PUSH32 0xB532073B38C83145E3E5135377A08BF9AAB55BC0FD7C1179CD4FB995D2A5159C PUSH1 0x0 DUP1 PUSH2 0x3C1 PUSH2 0x4AA JUMP JUMPDEST SWAP1 PUSH2 0x100 EXP SWAP1 DIV PUSH1 0x1 PUSH1 0x1 PUSH1 0xA0 SHL SUB AND PUSH1 0x1 PUSH1 0x0 SWAP1 PUSH2 0x3DE PUSH2 0x4AA JUMP JUMPDEST PUSH1 0x40 DUP1 MLOAD PUSH1 0x1 PUSH1 0x1 PUSH1 0xA0 SHL SUB SWAP5 DUP6 AND DUP2 MSTORE PUSH2 0x100 SWAP4 SWAP1 SWAP4 EXP SWAP1 SWAP2 DIV SWAP1 SWAP3 AND PUSH1 0x20 DUP3 ADD MSTORE DUP2 MLOAD SWAP1 DUP2 SWAP1 SUB SWAP1 SWAP2 ADD SWAP1 LOG1 PUSH1 0x0 PUSH1 0x1 PUSH2 0x418 PUSH2 0x4AA JUMP JUMPDEST SWAP1 PUSH2 0x100 EXP SWAP1 DIV PUSH1 0x1 PUSH1 0x1 PUSH1 0xA0 SHL SUB AND PUSH1 0x0 DUP1 PUSH2 0x100 EXP DUP2 PUSH2 0x438 PUSH2 0x4AA JUMP JUMPDEST DUP2 PUSH1 0x1 PUSH1 0x1 PUSH1 0xA0 SHL SUB MUL NOT AND SWAP1 DUP4 PUSH1 0x1 PUSH1 0x1 PUSH1 0xA0 SHL SUB AND MUL OR SWAP1 PUSH2 0x45A PUSH2 0x560 JUMP JUMPDEST POP POP POP PUSH1 0x0 PUSH1 0x1 PUSH1 0x0 PUSH2 0x100 EXP DUP2 PUSH2 0x470 PUSH2 0x4AA JUMP JUMPDEST DUP2 PUSH1 0x1 PUSH1 0x1 PUSH1 0xA0 SHL SUB MUL NOT AND SWAP1 DUP4 PUSH1 0x1 PUSH1 0x1 PUSH1 0xA0 SHL SUB AND MUL OR SWAP1 PUSH2 0x492 PUSH2 0x560 JUMP JUMPDEST POP POP POP JUMP JUMPDEST PUSH1 0x0 DUP1 PUSH2 0x213 PUSH2 0x4AA JUMP JUMPDEST PUSH1 0x0 PUSH1 0x2 PUSH2 0x213 JUMPDEST PUSH4 0x412CC41 PUSH1 0xE3 SHL PUSH3 0x80000 SWAP1 DUP2 MSTORE PUSH3 0x80004 DUP4 SWAP1 MSTORE PUSH4 0x20966208 SWAP1 PUSH1 0x20 DUP2 PUSH1 0x24 DUP2 CALLER PUSH1 0x0 SWAP1 GAS CALL DUP1 PUSH2 0x4DC JUMPI PUSH1 0x0 DUP1 REVERT JUMPDEST POP MLOAD SWAP3 POP POP JUMP JUMPDEST PUSH4 0xFBB0F79D PUSH1 0xE0 SHL PUSH3 0x80000 SWAP1 DUP2 MSTORE PUSH3 0x80004 DUP5 SWAP1 MSTORE PUSH4 0xFBB0F79D SWAP1 PUSH1 0x0 JUMPDEST DUP8 DUP2 LT ISZERO PUSH2 0x51D JUMPI DUP7 DUP2 ADD MLOAD DUP3 DUP3 ADD PUSH1 0x24 ADD MSTORE PUSH1 0x20 ADD PUSH2 0x502 JUMP JUMPDEST POP DUP9 DUP9 DUP9 PUSH1 0x24 ADD DUP4 CALLER PUSH1 0x0 SWAP1 GAS CALL DUP1 PUSH2 0x535 JUMPI PUSH1 0x0 DUP1 REVERT JUMPDEST SWAP9 POP POP POP JUMP JUMPDEST PUSH4 0x73509064 PUSH3 0x80000 DUP2 PUSH1 0xE0 SHL DUP2 MSTORE PUSH1 0x20 DUP2 PUSH1 0x4 DUP4 CALLER PUSH1 0x0 SWAP1 GAS CALL DUP1 PUSH2 0x4DC JUMPI PUSH1 0x0 DUP1 REVERT JUMPDEST PUSH4 0x146E595 PUSH1 0xE5 SHL PUSH3 0x80000 SWAP1 DUP2 MSTORE PUSH3 0x80004 DUP4 SWAP1 MSTORE PUSH3 0x80024 DUP5 SWAP1 MSTORE PUSH4 0x28DCB2A0 SWAP1 PUSH1 0x0 DUP2 PUSH1 0x44 DUP2 CALLER PUSH1 0x0 SWAP1 GAS CALL DUP1 PUSH2 0x492 JUMPI PUSH1 0x0 DUP1 REVERT INVALID MSIZE PUSH16 0x75206D757374206265206E6F6D696E61 PUSH21 0x6564206265666F726520796F752063616E20616363 PUSH6 0x7074206F776E PUSH6 0x72736869704F PUSH15 0x6C792074686520636F6E7472616374 KECCAK256 PUSH16 0x776E6572206D617920706572666F726D KECCAK256 PUSH21 0x68697320616374696F6EA265627A7A723158201D8B EXTCODEHASH NOT NUMBER PUSH16 0x42D29B7596DFE59CD22F63F8AF2C8EC3 PUSH16 0x46D3A05175E6B5E45C64736F6C637828 ADDRESS 0x2E CALLDATALOAD 0x2E BALANCE CALLDATASIZE 0x2D PUSH5 0x6576656C6F PUSH17 0x2E323032302E382E31332B636F6D6D6974 0x2E CALLDATASIZE PUSH3 0x653039 ADDRESS ORIGIN PUSH7 0x580000000000 "
		}
	}
}