{
	"abi": [
		{
			"constant": true,
			"inputs": [],
			"name": "PRECISE_UNIT",
			"outputs": [
				{
					"internalType": "uint256",
					"name": "",
					"type": "uint256"
				}
			],
			"payable": false,
			"stateMutability": "view",
			"type": "function"
		},
		{
			"constant": true,
			"inputs": [],
			"name": "UNIT",
			"outputs": [
				{
					"internalType": "uint256",
					"name": "",
					"type": "uint256"
				}
			],
			"payable": false,
			"stateMutability": "view",
			"type": "function"
		},
		{
			"constant": true,
			"inputs": [],
			"name": "decimals",
			"outputs": [
				{
					"internalType": "uint8",
					"name": "",
					"type": "uint8"
				}
			],
			"payable": false,
			"stateMutability": "view",
			"type": "function"
		},
		{
			"constant": true,
			"inputs": [],
			"name": "highPrecisionDecimals",
			"outputs": [
				{
					"internalType": "uint8",
					"name": "",
					"type": "uint8"
				}
			],
			"payable": false,
			"stateMutability": "view",
			"type": "function"
		},
		{
			"constant": true,
			"inputs": [],
			"name": "preciseUnit",
			"outputs": [
				{
					"internalType": "uint256",
					"name": "",
					"type": "uint256"
				}
			],
			"payable": false,
			"stateMutability": "pure",
			"type": "function"
		},
		{
			"constant": true,
			"inputs": [],
			"name": "unit",
			"outputs": [
				{
					"internalType": "uint256",
					"name": "",
					"type": "uint256"
				}
			],
			"payable": false,
			"stateMutability": "pure",
			"type": "function"
		}
	],
	"evm": {
		"bytecode": {
			"linkReferences": {},
			"object": "61019161004f600b82828239805160001a60731461001957fe5b5a63996d79a5620800008160e01b81526020816004836000335af18061003e57600080fd5b5051600052506073905081538281f3fe7300000000000000000000000000000000000000005a63996d79a5620800008160e01b81526020816004836000335af18061003957600080fd5b81519350505050146080604052600436106100975760003560e01c8063313ce5671461009c578063864029e7146100ba578063907af6c0146100d45780639d8e2177146100dc578063d5e5e6e6146100e4578063def4419d146100ec575b600080fd5b6100a46100f4565b6040805160ff9092168252519081900360200190f35b6100c26100f9565b60408051918252519081900360200190f35b6100c2610109565b6100c2610115565b6100c2610121565b6100a4610131565b601281565b6b033b2e3c9fd0803ce800000081565b670de0b6b3a764000090565b670de0b6b3a764000081565b6b033b2e3c9fd0803ce800000090565b601b8156fea265627a7a72315820da6480e0eeb30e459c3f7b5496f74296e52d6d9cc41e1df31bf46129f069ce6664736f6c637828302e352e31362d646576656c6f702e323032302e372e32392b636f6d6d69742e36326536346536370058",
			"opcodes": "PUSH2 0x191 PUSH2 0x4F PUSH1 0xB DUP3 DUP3 DUP3 CODECOPY DUP1 MLOAD PUSH1 0x0 BYTE PUSH1 0x73 EQ PUSH2 0x19 JUMPI INVALID JUMPDEST GAS PUSH4 0x996D79A5 PUSH3 0x80000 DUP2 PUSH1 0xE0 SHL DUP2 MSTORE PUSH1 0x20 DUP2 PUSH1 0x4 DUP4 PUSH1 0x0 CALLER GAS CALL DUP1 PUSH2 0x3E JUMPI PUSH1 0x0 DUP1 REVERT JUMPDEST POP MLOAD PUSH1 0x0 MSTORE POP PUSH1 0x73 SWAP1 POP DUP2 MSTORE8 DUP3 DUP2 RETURN INVALID PUSH20 0x0 GAS PUSH4 0x996D79A5 PUSH3 0x80000 DUP2 PUSH1 0xE0 SHL DUP2 MSTORE PUSH1 0x20 DUP2 PUSH1 0x4 DUP4 PUSH1 0x0 CALLER GAS CALL DUP1 PUSH2 0x39 JUMPI PUSH1 0x0 DUP1 REVERT JUMPDEST DUP2 MLOAD SWAP4 POP POP POP POP EQ PUSH1 0x80 PUSH1 0x40 MSTORE PUSH1 0x4 CALLDATASIZE LT PUSH2 0x97 JUMPI PUSH1 0x0 CALLDATALOAD PUSH1 0xE0 SHR DUP1 PUSH4 0x313CE567 EQ PUSH2 0x9C JUMPI DUP1 PUSH4 0x864029E7 EQ PUSH2 0xBA JUMPI DUP1 PUSH4 0x907AF6C0 EQ PUSH2 0xD4 JUMPI DUP1 PUSH4 0x9D8E2177 EQ PUSH2 0xDC JUMPI DUP1 PUSH4 0xD5E5E6E6 EQ PUSH2 0xE4 JUMPI DUP1 PUSH4 0xDEF4419D EQ PUSH2 0xEC JUMPI JUMPDEST PUSH1 0x0 DUP1 REVERT JUMPDEST PUSH2 0xA4 PUSH2 0xF4 JUMP JUMPDEST PUSH1 0x40 DUP1 MLOAD PUSH1 0xFF SWAP1 SWAP3 AND DUP3 MSTORE MLOAD SWAP1 DUP2 SWAP1 SUB PUSH1 0x20 ADD SWAP1 RETURN JUMPDEST PUSH2 0xC2 PUSH2 0xF9 JUMP JUMPDEST PUSH1 0x40 DUP1 MLOAD SWAP2 DUP3 MSTORE MLOAD SWAP1 DUP2 SWAP1 SUB PUSH1 0x20 ADD SWAP1 RETURN JUMPDEST PUSH2 0xC2 PUSH2 0x109 JUMP JUMPDEST PUSH2 0xC2 PUSH2 0x115 JUMP JUMPDEST PUSH2 0xC2 PUSH2 0x121 JUMP JUMPDEST PUSH2 0xA4 PUSH2 0x131 JUMP JUMPDEST PUSH1 0x12 DUP2 JUMP JUMPDEST PUSH12 0x33B2E3C9FD0803CE8000000 DUP2 JUMP JUMPDEST PUSH8 0xDE0B6B3A7640000 SWAP1 JUMP JUMPDEST PUSH8 0xDE0B6B3A7640000 DUP2 JUMP JUMPDEST PUSH12 0x33B2E3C9FD0803CE8000000 SWAP1 JUMP JUMPDEST PUSH1 0x1B DUP2 JUMP INVALID LOG2 PUSH6 0x627A7A723158 KECCAK256 0xDA PUSH5 0x80E0EEB30E GASLIMIT SWAP13 EXTCODEHASH PUSH28 0x5496F74296E52D6D9CC41E1DF31BF46129F069CE6664736F6C637828 ADDRESS 0x2E CALLDATALOAD 0x2E BALANCE CALLDATASIZE 0x2D PUSH5 0x6576656C6F PUSH17 0x2E323032302E372E32392B636F6D6D6974 0x2E CALLDATASIZE ORIGIN PUSH6 0x363465363700 PC "
		}
	}
}