{
	"abi": [
		{
			"inputs": [
				{
					"internalType": "address",
					"name": "_owner",
					"type": "address"
				},
				{
					"internalType": "uint256",
					"name": "_lastMintEvent",
					"type": "uint256"
				},
				{
					"internalType": "uint256",
					"name": "_currentWeek",
					"type": "uint256"
				}
			],
			"payable": false,
			"stateMutability": "nonpayable",
			"type": "constructor"
		},
		{
			"anonymous": false,
			"inputs": [
				{
					"indexed": false,
					"internalType": "uint256",
					"name": "newRewardAmount",
					"type": "uint256"
				}
			],
			"name": "MinterRewardUpdated",
			"type": "event"
		},
		{
			"anonymous": false,
			"inputs": [
				{
					"indexed": false,
					"internalType": "address",
					"name": "oldOwner",
					"type": "address"
				},
				{
					"indexed": false,
					"internalType": "address",
					"name": "newOwner",
					"type": "address"
				}
			],
			"name": "OwnerChanged",
			"type": "event"
		},
		{
			"anonymous": false,
			"inputs": [
				{
					"indexed": false,
					"internalType": "address",
					"name": "newOwner",
					"type": "address"
				}
			],
			"name": "OwnerNominated",
			"type": "event"
		},
		{
			"anonymous": false,
			"inputs": [
				{
					"indexed": false,
					"internalType": "uint256",
					"name": "supplyMinted",
					"type": "uint256"
				},
				{
					"indexed": false,
					"internalType": "uint256",
					"name": "numberOfWeeksIssued",
					"type": "uint256"
				},
				{
					"indexed": false,
					"internalType": "uint256",
					"name": "lastMintEvent",
					"type": "uint256"
				},
				{
					"indexed": false,
					"internalType": "uint256",
					"name": "timestamp",
					"type": "uint256"
				}
			],
			"name": "SupplyMinted",
			"type": "event"
		},
		{
			"anonymous": false,
			"inputs": [
				{
					"indexed": false,
					"internalType": "address",
					"name": "newAddress",
					"type": "address"
				}
			],
			"name": "SynthetixProxyUpdated",
			"type": "event"
		},
		{
			"constant": true,
			"inputs": [],
			"name": "DECAY_RATE",
			"outputs": [
				{
					"internalType": "uint256",
					"name": "",
					"type": "uint256"
				}
			],
			"payable": false,
			"stateMutability": "view",
			"type": "function"
		},
		{
			"constant": true,
			"inputs": [],
			"name": "INFLATION_START_DATE",
			"outputs": [
				{
					"internalType": "uint256",
					"name": "",
					"type": "uint256"
				}
			],
			"payable": false,
			"stateMutability": "view",
			"type": "function"
		},
		{
			"constant": true,
			"inputs": [],
			"name": "INITIAL_WEEKLY_SUPPLY",
			"outputs": [
				{
					"internalType": "uint256",
					"name": "",
					"type": "uint256"
				}
			],
			"payable": false,
			"stateMutability": "view",
			"type": "function"
		},
		{
			"constant": true,
			"inputs": [],
			"name": "MAX_MINTER_REWARD",
			"outputs": [
				{
					"internalType": "uint256",
					"name": "",
					"type": "uint256"
				}
			],
			"payable": false,
			"stateMutability": "view",
			"type": "function"
		},
		{
			"constant": true,
			"inputs": [],
			"name": "MINT_BUFFER",
			"outputs": [
				{
					"internalType": "uint256",
					"name": "",
					"type": "uint256"
				}
			],
			"payable": false,
			"stateMutability": "view",
			"type": "function"
		},
		{
			"constant": true,
			"inputs": [],
			"name": "MINT_PERIOD_DURATION",
			"outputs": [
				{
					"internalType": "uint256",
					"name": "",
					"type": "uint256"
				}
			],
			"payable": false,
			"stateMutability": "view",
			"type": "function"
		},
		{
			"constant": true,
			"inputs": [],
			"name": "SUPPLY_DECAY_END",
			"outputs": [
				{
					"internalType": "uint8",
					"name": "",
					"type": "uint8"
				}
			],
			"payable": false,
			"stateMutability": "view",
			"type": "function"
		},
		{
			"constant": true,
			"inputs": [],
			"name": "SUPPLY_DECAY_START",
			"outputs": [
				{
					"internalType": "uint8",
					"name": "",
					"type": "uint8"
				}
			],
			"payable": false,
			"stateMutability": "view",
			"type": "function"
		},
		{
			"constant": true,
			"inputs": [],
			"name": "TERMINAL_SUPPLY_RATE_ANNUAL",
			"outputs": [
				{
					"internalType": "uint256",
					"name": "",
					"type": "uint256"
				}
			],
			"payable": false,
			"stateMutability": "view",
			"type": "function"
		},
		{
			"constant": false,
			"inputs": [],
			"name": "acceptOwnership",
			"outputs": [],
			"payable": false,
			"stateMutability": "nonpayable",
			"type": "function"
		},
		{
			"constant": true,
			"inputs": [],
			"name": "isMintable",
			"outputs": [
				{
					"internalType": "bool",
					"name": "",
					"type": "bool"
				}
			],
			"payable": false,
			"stateMutability": "view",
			"type": "function"
		},
		{
			"constant": true,
			"inputs": [],
			"name": "lastMintEvent",
			"outputs": [
				{
					"internalType": "uint256",
					"name": "",
					"type": "uint256"
				}
			],
			"payable": false,
			"stateMutability": "view",
			"type": "function"
		},
		{
			"constant": true,
			"inputs": [],
			"name": "mintableSupply",
			"outputs": [
				{
					"internalType": "uint256",
					"name": "",
					"type": "uint256"
				}
			],
			"payable": false,
			"stateMutability": "view",
			"type": "function"
		},
		{
			"constant": true,
			"inputs": [],
			"name": "minterReward",
			"outputs": [
				{
					"internalType": "uint256",
					"name": "",
					"type": "uint256"
				}
			],
			"payable": false,
			"stateMutability": "view",
			"type": "function"
		},
		{
			"constant": false,
			"inputs": [
				{
					"internalType": "address",
					"name": "_owner",
					"type": "address"
				}
			],
			"name": "nominateNewOwner",
			"outputs": [],
			"payable": false,
			"stateMutability": "nonpayable",
			"type": "function"
		},
		{
			"constant": true,
			"inputs": [],
			"name": "nominatedOwner",
			"outputs": [
				{
					"internalType": "address",
					"name": "",
					"type": "address"
				}
			],
			"payable": false,
			"stateMutability": "view",
			"type": "function"
		},
		{
			"constant": true,
			"inputs": [],
			"name": "owner",
			"outputs": [
				{
					"internalType": "address",
					"name": "",
					"type": "address"
				}
			],
			"payable": false,
			"stateMutability": "view",
			"type": "function"
		},
		{
			"constant": false,
			"inputs": [
				{
					"internalType": "uint256",
					"name": "supplyMinted",
					"type": "uint256"
				}
			],
			"name": "recordMintEvent",
			"outputs": [
				{
					"internalType": "bool",
					"name": "",
					"type": "bool"
				}
			],
			"payable": false,
			"stateMutability": "nonpayable",
			"type": "function"
		},
		{
			"constant": false,
			"inputs": [
				{
					"internalType": "uint256",
					"name": "amount",
					"type": "uint256"
				}
			],
			"name": "setMinterReward",
			"outputs": [],
			"payable": false,
			"stateMutability": "nonpayable",
			"type": "function"
		},
		{
			"constant": false,
			"inputs": [
				{
					"internalType": "contract ISynthetix",
					"name": "_synthetixProxy",
					"type": "address"
				}
			],
			"name": "setSynthetixProxy",
			"outputs": [],
			"payable": false,
			"stateMutability": "nonpayable",
			"type": "function"
		},
		{
			"constant": true,
			"inputs": [],
			"name": "synthetixProxy",
			"outputs": [
				{
					"internalType": "address payable",
					"name": "",
					"type": "address"
				}
			],
			"payable": false,
			"stateMutability": "view",
			"type": "function"
		},
		{
			"constant": true,
			"inputs": [
				{
					"internalType": "uint256",
					"name": "totalSupply",
					"type": "uint256"
				},
				{
					"internalType": "uint256",
					"name": "numOfWeeks",
					"type": "uint256"
				}
			],
			"name": "terminalInflationSupply",
			"outputs": [
				{
					"internalType": "uint256",
					"name": "",
					"type": "uint256"
				}
			],
			"payable": false,
			"stateMutability": "pure",
			"type": "function"
		},
		{
			"constant": true,
			"inputs": [
				{
					"internalType": "uint256",
					"name": "counter",
					"type": "uint256"
				}
			],
			"name": "tokenDecaySupplyForWeek",
			"outputs": [
				{
					"internalType": "uint256",
					"name": "",
					"type": "uint256"
				}
			],
			"payable": false,
			"stateMutability": "pure",
			"type": "function"
		},
		{
			"constant": true,
			"inputs": [],
			"name": "weekCounter",
			"outputs": [
				{
					"internalType": "uint256",
					"name": "",
					"type": "uint256"
				}
			],
			"payable": false,
			"stateMutability": "view",
			"type": "function"
		},
		{
			"constant": true,
			"inputs": [],
			"name": "weeksSinceLastIssuance",
			"outputs": [
				{
					"internalType": "uint256",
					"name": "",
					"type": "uint256"
				}
			],
			"payable": false,
			"stateMutability": "view",
			"type": "function"
		}
	],
	"evm": {
		"bytecode": {
			"linkReferences": {
				"SupplySchedule.sol": {
					"SafeDecimalMath": [
						{
							"length": 20,
							"start": 18
						},
						{
							"length": 20,
							"start": 2180
						},
						{
							"length": 20,
							"start": 3639
						},
						{
							"length": 20,
							"start": 3790
						},
						{
							"length": 20,
							"start": 4605
						}
					]
				}
			},
			"object": "60806040819052630241ebdb60e61b815273__$4162ccbd5d91574b6bbbe632a759499ba8$__9063907af6c090608490602090600481868062000041620001e4565b1580156200004e57600080fd5b505a6200005a6200021d565b505050505015801562000071573d6000803e3d6000fd5b505050506040513d60208110156200008857600080fd5b505160c80260046200009962000277565b5050348015620000a857600080fd5b50604051620016bd380380620016bd83398181016040526060811015620000ce57600080fd5b5080516020820151604090920151909190826001600160a01b0381166200013c576040805162461bcd60e51b815260206004820152601960248201527f4f776e657220616464726573732063616e6e6f74206265203000000000000000604482015290519081900360640190fd5b8060006001816200014c620002b4565b816001600160a01b0302191690836001600160a01b03160217906200017062000277565b505060408051600081526001600160a01b038416602082015281517fb532073b38c83145e3e5135377a08bf9aab55bc0fd7c1179cd4fb995d2a5159c93509081900390910190a15081806002620001c662000277565b5050508060038190620001d862000277565b505050505050620002e6565b63c3382d0f60e01b620800009081526208000483905263c3382d0f906020816024816000335af1806200021657600080fd5b5051925050565b6345e97ddb60e01b62080000908152620800048490526345e97ddb9060005b87811015620002595786810151828201602401526020016200023c565b50888888602401836000335af1806200027157600080fd5b98505050565b630146e59560e51b6208000090815262080004839052620800248490526328dcb2a09060008160448183335af180620002af57600080fd5b505050565b630412cc4160e31b62080000908152620800048390526320966208906020816024816000335af1806200021657600080fd5b6113c780620002f66000396000f3fe608060405234801561001057600080fd5b50600436106101735760003560e01c80637e1b823f116100de578063badef30a11610097578063cc5c095c11610071578063cc5c095c14610310578063d3bd4bde14610318578063dbd3a6a714610320578063df5a9fc11461032857610173565b8063badef30a146102f8578063bdd1248214610300578063be801f011461030857610173565b80637e1b823f1461027a5780637e7961d7146102825780638da5cb5b1461029f57806395896b76146102a75780639bdd7ac7146102cd578063b3b2bcc0146102d557610173565b806346b45af71161013057806346b45af7146101f05780634ae265211461020c5780634e070f501461022957806353a47bb71461024657806379ba50971461026a5780637c0605571461027257610173565b80631627540c146101785780631de40e49146101a057806322af2bab146101ba578063251330f1146101c257806325542064146101e057806346872a23146101e8575b600080fd5b61019e6004803603602081101561018e57600080fd5b50356001600160a01b0316610330565b005b6101a8610414565b60408051918252519081900360200190f35b6101a861041f565b6101ca61042c565b6040805160ff9092168252519081900360200190f35b6101a8610431565b6101a861043c565b6101f8610443565b604080519115158252519081900360200190f35b61019e6004803603602081101561022257600080fd5b5035610472565b6101a86004803603602081101561023f57600080fd5b503561057a565b61024e61064e565b604080516001600160a01b039092168252519081900360200190f35b61019e61066d565b6101ca6107e2565b6101a86107e7565b6101f86004803603602081101561029857600080fd5b50356107ef565b61024e6109b8565b61019e600480360360208110156102bd57600080fd5b50356001600160a01b03166109c3565b6101a8610b10565b6101a8600480360360408110156102eb57600080fd5b5080359060200135610b1d565b6101a8610c7d565b61024e610c8c565b6101a8610c98565b6101a8610ca2565b6101a8610e2d565b6101a8610e37565b6101a8610e9e565b60008061033b611118565b906101000a90046001600160a01b03166001600160a01b03165a61035d611150565b6001600160a01b0316146103a25760405162461bcd60e51b815260040180806020018281038252602f8152602001806112c4602f913960400191505060405180910390fd5b80600180806103af611118565b816001600160a01b0302191690836001600160a01b03160217906103d1611174565b5050604080516001600160a01b038416815290517f906a1c6bd7e3091ea86693dd029a831c19049ce77f1dce2ce0bab1cacbabce2292509081900360200190a150565b662c68af0bb1400081565b680ad78ebc5ac620000081565b602881565b6658d15e1762800081565b6201518081565b600062093a806002610453611118565b5a61045c6111ab565b03111561046b5750600161046f565b5060005b90565b60008061047d611118565b906101000a90046001600160a01b03166001600160a01b03165a61049f611150565b6001600160a01b0316146104e45760405162461bcd60e51b815260040180806020018281038252602f8152602001806112c4602f913960400191505060405180910390fd5b680ad78ebc5ac620000081111561052c5760405162461bcd60e51b81526004018080602001828103825260268152602001806113476026913960400191505060405180910390fd5b80806004610538611174565b5050507f036e0c635f8b7d9314bb6f2a577046108ef0f8b5e3869fbd29fd5a448ed99d306004610566611118565b60408051918252519081900360200190a150565b6000806106278361061b662c68af0bb1400073__$4162ccbd5d91574b6bbbe632a759499ba8$__63907af6c06040518163ffffffff1660e01b815260040160206040518083038186806105cb6111cf565b1580156105d757600080fd5b505a6105e1611200565b50505050501580156105f7573d6000803e3d6000fd5b505050506040513d602081101561060d57600080fd5b50519063ffffffff610ea516565b9063ffffffff610f0216565b905060006106466a01316ba81b802f59713b138363ffffffff610fd116565b949350505050565b6000600161065a611118565b906101000a90046001600160a01b031681565b60006001610679611118565b906101000a90046001600160a01b03166001600160a01b03165a61069b611150565b6001600160a01b0316146106e05760405162461bcd60e51b815260040180806020018281038252603581526020018061128f6035913960400191505060405180910390fd5b7fb532073b38c83145e3e5135377a08bf9aab55bc0fd7c1179cd4fb995d2a5159c60008061070c611118565b906101000a90046001600160a01b03166001600090610729611118565b604080516001600160a01b0394851681526101009390930a909104909216602082015281519081900390910190a160006001610763611118565b906101000a90046001600160a01b03166000806101000a81610783611118565b816001600160a01b0302191690836001600160a01b03160217906107a5611174565b5050506000600160006101000a816107bb611118565b816001600160a01b0302191690836001600160a01b03160217906107dd611174565b505050565b60ea81565b635c7f0d8081565b60008060056107fc611118565b906101000a90046001600160a01b03166001600160a01b031663d4b839926040518163ffffffff1660e01b8152600401602060405180830381868061083f6111cf565b15801561084b57600080fd5b505a610855611257565b505050505015801561086b573d6000803e3d6000fd5b505050506040513d602081101561088157600080fd5b50516001600160a01b03165a610895611150565b6001600160a01b0316146108da5760405162461bcd60e51b81526004018080602001828103825260338152602001806113146033913960400191505060405180910390fd5b60006108e4610e37565b90506109008160036108f4611118565b9063ffffffff610ffb16565b80600361090b611174565b505050610946620151806108f461093562093a806003610929611118565b9063ffffffff61105516565b635c7f0d809063ffffffff610ffb16565b806002610951611174565b5050507f601e517d4811033fed8290c79b7823ce1ab70258da45400fe2391a3c7432edab83826002610981611118565b5a61098a6111ab565b604080519485526020850193909352838301919091526060830152519081900360800190a150600192915050565b60008061065a611118565b6000806109ce611118565b906101000a90046001600160a01b03166001600160a01b03165a6109f0611150565b6001600160a01b031614610a355760405162461bcd60e51b815260040180806020018281038252602f8152602001806112c4602f913960400191505060405180910390fd5b6001600160a01b038116610a86576040805162461bcd60e51b81526020600482015260136024820152720416464726573732063616e6e6f74206265203606c1b604482015290519081900360640190fd5b806005600181610a94611118565b816001600160a01b0302191690836001600160a01b0316021790610ab6611174565b5050507ff8df0556b7fde3c4b8394eae329aedfa59c6ffd8b532d572a1efcfa3424ca5fc6005600090610ae7611118565b604080516101009390930a9091046001600160a01b03168252516020918190039190910190a150565b6004610b1a611118565b81565b600080610bce8361061b610b3f6658d15e17628000603463ffffffff6110ae16565b73__$4162ccbd5d91574b6bbbe632a759499ba8$__63907af6c06040518163ffffffff1660e01b81526004016020604051808303818680610b7e6111cf565b158015610b8a57600080fd5b505a610b94611200565b5050505050158015610baa573d6000803e3d6000fd5b505050506040513d6020811015610bc057600080fd5b50519063ffffffff610ffb16565b9050610c73610c6673__$4162ccbd5d91574b6bbbe632a759499ba8$__63907af6c06040518163ffffffff1660e01b81526004016020604051808303818680610c156111cf565b158015610c2157600080fd5b505a610c2b611200565b5050505050158015610c41573d6000803e3d6000fd5b505050506040513d6020811015610c5757600080fd5b5051839063ffffffff610ea516565b859063ffffffff610fd116565b9150505b92915050565b6a01316ba81b802f59713b1381565b6000600561065a611118565b6002610b1a611118565b600080610cad610443565b610cb857905061046f565b6000610cc2610e37565b905060006003610cd0611118565b90505b8115610e25576001016028811015610d0e57610d00836a01316ba81b802f59713b1363ffffffff610ffb16565b925060001990910190610e20565b60ea8111610d53576000610d2982602763ffffffff610ea516565b9050610d44610d378261057a565b859063ffffffff610ffb16565b93505060001990910190610e20565b6000806005610d60611118565b906101000a90046001600160a01b03166001600160a01b03166318160ddd6040518163ffffffff1660e01b81526004016020604051808303818680610da36111cf565b158015610daf57600080fd5b505a610db9611257565b5050505050158015610dcf573d6000803e3d6000fd5b505050506040513d6020811015610de557600080fd5b505190506000610dfb828663ffffffff610ffb16565b9050610e17610e0a8286610b1d565b869063ffffffff610ffb16565b94506000935050505b610cd3565b509091505090565b6003610b1a611118565b60008060006002610e46611118565b11610e6d57610e68635c7f0d805a610e5c6111ab565b9063ffffffff610ea516565b610e83565b610e836002610e7a611118565b5a610e5c6111ab565b9050610e988162093a8063ffffffff6110ae16565b91505090565b62093a8081565b600082821115610efc576040805162461bcd60e51b815260206004820152601e60248201527f536166654d6174683a207375627472616374696f6e206f766572666c6f770000604482015290519081900360640190fd5b50900390565b60008073__$4162ccbd5d91574b6bbbe632a759499ba8$__63907af6c06040518163ffffffff1660e01b81526004016020604051808303818680610f446111cf565b158015610f5057600080fd5b505a610f5a611200565b5050505050158015610f70573d6000803e3d6000fd5b505050506040513d6020811015610f8657600080fd5b505190505b8215610fca576002830615610fad57610faa818563ffffffff610fd116565b90505b610fbd848063ffffffff610fd116565b9350600283049250610f8b565b9392505050565b6000670de0b6b3a7640000610fec848463ffffffff61105516565b81610ff357fe5b049392505050565b600082820183811015610fca576040805162461bcd60e51b815260206004820152601b60248201527f536166654d6174683a206164646974696f6e206f766572666c6f770000000000604482015290519081900360640190fd5b60008261106457506000610c77565b8282028284828161107157fe5b0414610fca5760405162461bcd60e51b81526004018080602001828103825260218152602001806112f36021913960400191505060405180910390fd5b6000808211611104576040805162461bcd60e51b815260206004820152601a60248201527f536166654d6174683a206469766973696f6e206279207a65726f000000000000604482015290519081900360640190fd5b600082848161110f57fe5b04949350505050565b630412cc4160e31b62080000908152620800048390526320966208906020816024816000335af18061114957600080fd5b5051925050565b6373509064620800008160e01b81526020816004836000335af18061114957600080fd5b630146e59560e51b6208000090815262080004839052620800248490526328dcb2a09060008160448183335af1806107dd57600080fd5b63bdbf8c36620800008160e01b81526020816004836000335af18061114957600080fd5b63c3382d0f60e01b620800009081526208000483905263c3382d0f906020816024816000335af18061114957600080fd5b6345e97ddb60e01b62080000908152620800048490526345e97ddb9060005b8781101561123a57868101518282016024015260200161121f565b50888888602401836000335af18061125157600080fd5b98505050565b63fbb0f79d60e01b620800009081526208000484905263fbb0f79d906000871561123a57868101518282016024015260200161121f56fe596f75206d757374206265206e6f6d696e61746564206265666f726520796f752063616e20616363657074206f776e6572736869704f6e6c792074686520636f6e7472616374206f776e6572206d617920706572666f726d207468697320616374696f6e536166654d6174683a206d756c7469706c69636174696f6e206f766572666c6f774f6e6c79207468652073796e74686574697820636f6e74726163742063616e20706572666f726d207468697320616374696f6e5265776172642063616e6e6f7420657863656564206d6178206d696e74657220726577617264a265627a7a7231582093253185cc5aa5145a6afdecb1fc3323404fc27ae76547697a10a40752959b8a64736f6c637828302e352e31362d646576656c6f702e323032302e372e32392b636f6d6d69742e36326536346536370058",
			"opcodes": "PUSH1 0x80 PUSH1 0x40 DUP2 SWAP1 MSTORE PUSH4 0x241EBDB PUSH1 0xE6 SHL DUP2 MSTORE PUSH20 0x0 SWAP1 PUSH4 0x907AF6C0 SWAP1 PUSH1 0x84 SWAP1 PUSH1 0x20 SWAP1 PUSH1 0x4 DUP2 DUP7 DUP1 PUSH3 0x41 PUSH3 0x1E4 JUMP JUMPDEST ISZERO DUP1 ISZERO PUSH3 0x4E JUMPI PUSH1 0x0 DUP1 REVERT JUMPDEST POP GAS PUSH3 0x5A PUSH3 0x21D JUMP JUMPDEST POP POP POP POP POP ISZERO DUP1 ISZERO PUSH3 0x71 JUMPI RETURNDATASIZE PUSH1 0x0 DUP1 RETURNDATACOPY RETURNDATASIZE PUSH1 0x0 REVERT JUMPDEST POP POP POP POP PUSH1 0x40 MLOAD RETURNDATASIZE PUSH1 0x20 DUP2 LT ISZERO PUSH3 0x88 JUMPI PUSH1 0x0 DUP1 REVERT JUMPDEST POP MLOAD PUSH1 0xC8 MUL PUSH1 0x4 PUSH3 0x99 PUSH3 0x277 JUMP JUMPDEST POP POP CALLVALUE DUP1 ISZERO PUSH3 0xA8 JUMPI PUSH1 0x0 DUP1 REVERT JUMPDEST POP PUSH1 0x40 MLOAD PUSH3 0x16BD CODESIZE SUB DUP1 PUSH3 0x16BD DUP4 CODECOPY DUP2 DUP2 ADD PUSH1 0x40 MSTORE PUSH1 0x60 DUP2 LT ISZERO PUSH3 0xCE JUMPI PUSH1 0x0 DUP1 REVERT JUMPDEST POP DUP1 MLOAD PUSH1 0x20 DUP3 ADD MLOAD PUSH1 0x40 SWAP1 SWAP3 ADD MLOAD SWAP1 SWAP2 SWAP1 DUP3 PUSH1 0x1 PUSH1 0x1 PUSH1 0xA0 SHL SUB DUP2 AND PUSH3 0x13C JUMPI PUSH1 0x40 DUP1 MLOAD PUSH3 0x461BCD PUSH1 0xE5 SHL DUP2 MSTORE PUSH1 0x20 PUSH1 0x4 DUP3 ADD MSTORE PUSH1 0x19 PUSH1 0x24 DUP3 ADD MSTORE PUSH32 0x4F776E657220616464726573732063616E6E6F74206265203000000000000000 PUSH1 0x44 DUP3 ADD MSTORE SWAP1 MLOAD SWAP1 DUP2 SWAP1 SUB PUSH1 0x64 ADD SWAP1 REVERT JUMPDEST DUP1 PUSH1 0x0 PUSH1 0x1 DUP2 PUSH3 0x14C PUSH3 0x2B4 JUMP JUMPDEST DUP2 PUSH1 0x1 PUSH1 0x1 PUSH1 0xA0 SHL SUB MUL NOT AND SWAP1 DUP4 PUSH1 0x1 PUSH1 0x1 PUSH1 0xA0 SHL SUB AND MUL OR SWAP1 PUSH3 0x170 PUSH3 0x277 JUMP JUMPDEST POP POP PUSH1 0x40 DUP1 MLOAD PUSH1 0x0 DUP2 MSTORE PUSH1 0x1 PUSH1 0x1 PUSH1 0xA0 SHL SUB DUP5 AND PUSH1 0x20 DUP3 ADD MSTORE DUP2 MLOAD PUSH32 0xB532073B38C83145E3E5135377A08BF9AAB55BC0FD7C1179CD4FB995D2A5159C SWAP4 POP SWAP1 DUP2 SWAP1 SUB SWAP1 SWAP2 ADD SWAP1 LOG1 POP DUP2 DUP1 PUSH1 0x2 PUSH3 0x1C6 PUSH3 0x277 JUMP JUMPDEST POP POP POP DUP1 PUSH1 0x3 DUP2 SWAP1 PUSH3 0x1D8 PUSH3 0x277 JUMP JUMPDEST POP POP POP POP POP POP PUSH3 0x2E6 JUMP JUMPDEST PUSH4 0xC3382D0F PUSH1 0xE0 SHL PUSH3 0x80000 SWAP1 DUP2 MSTORE PUSH3 0x80004 DUP4 SWAP1 MSTORE PUSH4 0xC3382D0F SWAP1 PUSH1 0x20 DUP2 PUSH1 0x24 DUP2 PUSH1 0x0 CALLER GAS CALL DUP1 PUSH3 0x216 JUMPI PUSH1 0x0 DUP1 REVERT JUMPDEST POP MLOAD SWAP3 POP POP JUMP JUMPDEST PUSH4 0x45E97DDB PUSH1 0xE0 SHL PUSH3 0x80000 SWAP1 DUP2 MSTORE PUSH3 0x80004 DUP5 SWAP1 MSTORE PUSH4 0x45E97DDB SWAP1 PUSH1 0x0 JUMPDEST DUP8 DUP2 LT ISZERO PUSH3 0x259 JUMPI DUP7 DUP2 ADD MLOAD DUP3 DUP3 ADD PUSH1 0x24 ADD MSTORE PUSH1 0x20 ADD PUSH3 0x23C JUMP JUMPDEST POP DUP9 DUP9 DUP9 PUSH1 0x24 ADD DUP4 PUSH1 0x0 CALLER GAS CALL DUP1 PUSH3 0x271 JUMPI PUSH1 0x0 DUP1 REVERT JUMPDEST SWAP9 POP POP POP JUMP JUMPDEST PUSH4 0x146E595 PUSH1 0xE5 SHL PUSH3 0x80000 SWAP1 DUP2 MSTORE PUSH3 0x80004 DUP4 SWAP1 MSTORE PUSH3 0x80024 DUP5 SWAP1 MSTORE PUSH4 0x28DCB2A0 SWAP1 PUSH1 0x0 DUP2 PUSH1 0x44 DUP2 DUP4 CALLER GAS CALL DUP1 PUSH3 0x2AF JUMPI PUSH1 0x0 DUP1 REVERT JUMPDEST POP POP POP JUMP JUMPDEST PUSH4 0x412CC41 PUSH1 0xE3 SHL PUSH3 0x80000 SWAP1 DUP2 MSTORE PUSH3 0x80004 DUP4 SWAP1 MSTORE PUSH4 0x20966208 SWAP1 PUSH1 0x20 DUP2 PUSH1 0x24 DUP2 PUSH1 0x0 CALLER GAS CALL DUP1 PUSH3 0x216 JUMPI PUSH1 0x0 DUP1 REVERT JUMPDEST PUSH2 0x13C7 DUP1 PUSH3 0x2F6 PUSH1 0x0 CODECOPY PUSH1 0x0 RETURN INVALID PUSH1 0x80 PUSH1 0x40 MSTORE CALLVALUE DUP1 ISZERO PUSH2 0x10 JUMPI PUSH1 0x0 DUP1 REVERT JUMPDEST POP PUSH1 0x4 CALLDATASIZE LT PUSH2 0x173 JUMPI PUSH1 0x0 CALLDATALOAD PUSH1 0xE0 SHR DUP1 PUSH4 0x7E1B823F GT PUSH2 0xDE JUMPI DUP1 PUSH4 0xBADEF30A GT PUSH2 0x97 JUMPI DUP1 PUSH4 0xCC5C095C GT PUSH2 0x71 JUMPI DUP1 PUSH4 0xCC5C095C EQ PUSH2 0x310 JUMPI DUP1 PUSH4 0xD3BD4BDE EQ PUSH2 0x318 JUMPI DUP1 PUSH4 0xDBD3A6A7 EQ PUSH2 0x320 JUMPI DUP1 PUSH4 0xDF5A9FC1 EQ PUSH2 0x328 JUMPI PUSH2 0x173 JUMP JUMPDEST DUP1 PUSH4 0xBADEF30A EQ PUSH2 0x2F8 JUMPI DUP1 PUSH4 0xBDD12482 EQ PUSH2 0x300 JUMPI DUP1 PUSH4 0xBE801F01 EQ PUSH2 0x308 JUMPI PUSH2 0x173 JUMP JUMPDEST DUP1 PUSH4 0x7E1B823F EQ PUSH2 0x27A JUMPI DUP1 PUSH4 0x7E7961D7 EQ PUSH2 0x282 JUMPI DUP1 PUSH4 0x8DA5CB5B EQ PUSH2 0x29F JUMPI DUP1 PUSH4 0x95896B76 EQ PUSH2 0x2A7 JUMPI DUP1 PUSH4 0x9BDD7AC7 EQ PUSH2 0x2CD JUMPI DUP1 PUSH4 0xB3B2BCC0 EQ PUSH2 0x2D5 JUMPI PUSH2 0x173 JUMP JUMPDEST DUP1 PUSH4 0x46B45AF7 GT PUSH2 0x130 JUMPI DUP1 PUSH4 0x46B45AF7 EQ PUSH2 0x1F0 JUMPI DUP1 PUSH4 0x4AE26521 EQ PUSH2 0x20C JUMPI DUP1 PUSH4 0x4E070F50 EQ PUSH2 0x229 JUMPI DUP1 PUSH4 0x53A47BB7 EQ PUSH2 0x246 JUMPI DUP1 PUSH4 0x79BA5097 EQ PUSH2 0x26A JUMPI DUP1 PUSH4 0x7C060557 EQ PUSH2 0x272 JUMPI PUSH2 0x173 JUMP JUMPDEST DUP1 PUSH4 0x1627540C EQ PUSH2 0x178 JUMPI DUP1 PUSH4 0x1DE40E49 EQ PUSH2 0x1A0 JUMPI DUP1 PUSH4 0x22AF2BAB EQ PUSH2 0x1BA JUMPI DUP1 PUSH4 0x251330F1 EQ PUSH2 0x1C2 JUMPI DUP1 PUSH4 0x25542064 EQ PUSH2 0x1E0 JUMPI DUP1 PUSH4 0x46872A23 EQ PUSH2 0x1E8 JUMPI JUMPDEST PUSH1 0x0 DUP1 REVERT JUMPDEST PUSH2 0x19E PUSH1 0x4 DUP1 CALLDATASIZE SUB PUSH1 0x20 DUP2 LT ISZERO PUSH2 0x18E JUMPI PUSH1 0x0 DUP1 REVERT JUMPDEST POP CALLDATALOAD PUSH1 0x1 PUSH1 0x1 PUSH1 0xA0 SHL SUB AND PUSH2 0x330 JUMP JUMPDEST STOP JUMPDEST PUSH2 0x1A8 PUSH2 0x414 JUMP JUMPDEST PUSH1 0x40 DUP1 MLOAD SWAP2 DUP3 MSTORE MLOAD SWAP1 DUP2 SWAP1 SUB PUSH1 0x20 ADD SWAP1 RETURN JUMPDEST PUSH2 0x1A8 PUSH2 0x41F JUMP JUMPDEST PUSH2 0x1CA PUSH2 0x42C JUMP JUMPDEST PUSH1 0x40 DUP1 MLOAD PUSH1 0xFF SWAP1 SWAP3 AND DUP3 MSTORE MLOAD SWAP1 DUP2 SWAP1 SUB PUSH1 0x20 ADD SWAP1 RETURN JUMPDEST PUSH2 0x1A8 PUSH2 0x431 JUMP JUMPDEST PUSH2 0x1A8 PUSH2 0x43C JUMP JUMPDEST PUSH2 0x1F8 PUSH2 0x443 JUMP JUMPDEST PUSH1 0x40 DUP1 MLOAD SWAP2 ISZERO ISZERO DUP3 MSTORE MLOAD SWAP1 DUP2 SWAP1 SUB PUSH1 0x20 ADD SWAP1 RETURN JUMPDEST PUSH2 0x19E PUSH1 0x4 DUP1 CALLDATASIZE SUB PUSH1 0x20 DUP2 LT ISZERO PUSH2 0x222 JUMPI PUSH1 0x0 DUP1 REVERT JUMPDEST POP CALLDATALOAD PUSH2 0x472 JUMP JUMPDEST PUSH2 0x1A8 PUSH1 0x4 DUP1 CALLDATASIZE SUB PUSH1 0x20 DUP2 LT ISZERO PUSH2 0x23F JUMPI PUSH1 0x0 DUP1 REVERT JUMPDEST POP CALLDATALOAD PUSH2 0x57A JUMP JUMPDEST PUSH2 0x24E PUSH2 0x64E JUMP JUMPDEST PUSH1 0x40 DUP1 MLOAD PUSH1 0x1 PUSH1 0x1 PUSH1 0xA0 SHL SUB SWAP1 SWAP3 AND DUP3 MSTORE MLOAD SWAP1 DUP2 SWAP1 SUB PUSH1 0x20 ADD SWAP1 RETURN JUMPDEST PUSH2 0x19E PUSH2 0x66D JUMP JUMPDEST PUSH2 0x1CA PUSH2 0x7E2 JUMP JUMPDEST PUSH2 0x1A8 PUSH2 0x7E7 JUMP JUMPDEST PUSH2 0x1F8 PUSH1 0x4 DUP1 CALLDATASIZE SUB PUSH1 0x20 DUP2 LT ISZERO PUSH2 0x298 JUMPI PUSH1 0x0 DUP1 REVERT JUMPDEST POP CALLDATALOAD PUSH2 0x7EF JUMP JUMPDEST PUSH2 0x24E PUSH2 0x9B8 JUMP JUMPDEST PUSH2 0x19E PUSH1 0x4 DUP1 CALLDATASIZE SUB PUSH1 0x20 DUP2 LT ISZERO PUSH2 0x2BD JUMPI PUSH1 0x0 DUP1 REVERT JUMPDEST POP CALLDATALOAD PUSH1 0x1 PUSH1 0x1 PUSH1 0xA0 SHL SUB AND PUSH2 0x9C3 JUMP JUMPDEST PUSH2 0x1A8 PUSH2 0xB10 JUMP JUMPDEST PUSH2 0x1A8 PUSH1 0x4 DUP1 CALLDATASIZE SUB PUSH1 0x40 DUP2 LT ISZERO PUSH2 0x2EB JUMPI PUSH1 0x0 DUP1 REVERT JUMPDEST POP DUP1 CALLDATALOAD SWAP1 PUSH1 0x20 ADD CALLDATALOAD PUSH2 0xB1D JUMP JUMPDEST PUSH2 0x1A8 PUSH2 0xC7D JUMP JUMPDEST PUSH2 0x24E PUSH2 0xC8C JUMP JUMPDEST PUSH2 0x1A8 PUSH2 0xC98 JUMP JUMPDEST PUSH2 0x1A8 PUSH2 0xCA2 JUMP JUMPDEST PUSH2 0x1A8 PUSH2 0xE2D JUMP JUMPDEST PUSH2 0x1A8 PUSH2 0xE37 JUMP JUMPDEST PUSH2 0x1A8 PUSH2 0xE9E JUMP JUMPDEST PUSH1 0x0 DUP1 PUSH2 0x33B PUSH2 0x1118 JUMP JUMPDEST SWAP1 PUSH2 0x100 EXP SWAP1 DIV PUSH1 0x1 PUSH1 0x1 PUSH1 0xA0 SHL SUB AND PUSH1 0x1 PUSH1 0x1 PUSH1 0xA0 SHL SUB AND GAS PUSH2 0x35D PUSH2 0x1150 JUMP JUMPDEST PUSH1 0x1 PUSH1 0x1 PUSH1 0xA0 SHL SUB AND EQ PUSH2 0x3A2 JUMPI PUSH1 0x40 MLOAD PUSH3 0x461BCD PUSH1 0xE5 SHL DUP2 MSTORE PUSH1 0x4 ADD DUP1 DUP1 PUSH1 0x20 ADD DUP3 DUP2 SUB DUP3 MSTORE PUSH1 0x2F DUP2 MSTORE PUSH1 0x20 ADD DUP1 PUSH2 0x12C4 PUSH1 0x2F SWAP2 CODECOPY PUSH1 0x40 ADD SWAP2 POP POP PUSH1 0x40 MLOAD DUP1 SWAP2 SUB SWAP1 REVERT JUMPDEST DUP1 PUSH1 0x1 DUP1 DUP1 PUSH2 0x3AF PUSH2 0x1118 JUMP JUMPDEST DUP2 PUSH1 0x1 PUSH1 0x1 PUSH1 0xA0 SHL SUB MUL NOT AND SWAP1 DUP4 PUSH1 0x1 PUSH1 0x1 PUSH1 0xA0 SHL SUB AND MUL OR SWAP1 PUSH2 0x3D1 PUSH2 0x1174 JUMP JUMPDEST POP POP PUSH1 0x40 DUP1 MLOAD PUSH1 0x1 PUSH1 0x1 PUSH1 0xA0 SHL SUB DUP5 AND DUP2 MSTORE SWAP1 MLOAD PUSH32 0x906A1C6BD7E3091EA86693DD029A831C19049CE77F1DCE2CE0BAB1CACBABCE22 SWAP3 POP SWAP1 DUP2 SWAP1 SUB PUSH1 0x20 ADD SWAP1 LOG1 POP JUMP JUMPDEST PUSH7 0x2C68AF0BB14000 DUP2 JUMP JUMPDEST PUSH9 0xAD78EBC5AC6200000 DUP2 JUMP JUMPDEST PUSH1 0x28 DUP2 JUMP JUMPDEST PUSH7 0x58D15E17628000 DUP2 JUMP JUMPDEST PUSH3 0x15180 DUP2 JUMP JUMPDEST PUSH1 0x0 PUSH3 0x93A80 PUSH1 0x2 PUSH2 0x453 PUSH2 0x1118 JUMP JUMPDEST GAS PUSH2 0x45C PUSH2 0x11AB JUMP JUMPDEST SUB GT ISZERO PUSH2 0x46B JUMPI POP PUSH1 0x1 PUSH2 0x46F JUMP JUMPDEST POP PUSH1 0x0 JUMPDEST SWAP1 JUMP JUMPDEST PUSH1 0x0 DUP1 PUSH2 0x47D PUSH2 0x1118 JUMP JUMPDEST SWAP1 PUSH2 0x100 EXP SWAP1 DIV PUSH1 0x1 PUSH1 0x1 PUSH1 0xA0 SHL SUB AND PUSH1 0x1 PUSH1 0x1 PUSH1 0xA0 SHL SUB AND GAS PUSH2 0x49F PUSH2 0x1150 JUMP JUMPDEST PUSH1 0x1 PUSH1 0x1 PUSH1 0xA0 SHL SUB AND EQ PUSH2 0x4E4 JUMPI PUSH1 0x40 MLOAD PUSH3 0x461BCD PUSH1 0xE5 SHL DUP2 MSTORE PUSH1 0x4 ADD DUP1 DUP1 PUSH1 0x20 ADD DUP3 DUP2 SUB DUP3 MSTORE PUSH1 0x2F DUP2 MSTORE PUSH1 0x20 ADD DUP1 PUSH2 0x12C4 PUSH1 0x2F SWAP2 CODECOPY PUSH1 0x40 ADD SWAP2 POP POP PUSH1 0x40 MLOAD DUP1 SWAP2 SUB SWAP1 REVERT JUMPDEST PUSH9 0xAD78EBC5AC6200000 DUP2 GT ISZERO PUSH2 0x52C JUMPI PUSH1 0x40 MLOAD PUSH3 0x461BCD PUSH1 0xE5 SHL DUP2 MSTORE PUSH1 0x4 ADD DUP1 DUP1 PUSH1 0x20 ADD DUP3 DUP2 SUB DUP3 MSTORE PUSH1 0x26 DUP2 MSTORE PUSH1 0x20 ADD DUP1 PUSH2 0x1347 PUSH1 0x26 SWAP2 CODECOPY PUSH1 0x40 ADD SWAP2 POP POP PUSH1 0x40 MLOAD DUP1 SWAP2 SUB SWAP1 REVERT JUMPDEST DUP1 DUP1 PUSH1 0x4 PUSH2 0x538 PUSH2 0x1174 JUMP JUMPDEST POP POP POP PUSH32 0x36E0C635F8B7D9314BB6F2A577046108EF0F8B5E3869FBD29FD5A448ED99D30 PUSH1 0x4 PUSH2 0x566 PUSH2 0x1118 JUMP JUMPDEST PUSH1 0x40 DUP1 MLOAD SWAP2 DUP3 MSTORE MLOAD SWAP1 DUP2 SWAP1 SUB PUSH1 0x20 ADD SWAP1 LOG1 POP JUMP JUMPDEST PUSH1 0x0 DUP1 PUSH2 0x627 DUP4 PUSH2 0x61B PUSH7 0x2C68AF0BB14000 PUSH20 0x0 PUSH4 0x907AF6C0 PUSH1 0x40 MLOAD DUP2 PUSH4 0xFFFFFFFF AND PUSH1 0xE0 SHL DUP2 MSTORE PUSH1 0x4 ADD PUSH1 0x20 PUSH1 0x40 MLOAD DUP1 DUP4 SUB DUP2 DUP7 DUP1 PUSH2 0x5CB PUSH2 0x11CF JUMP JUMPDEST ISZERO DUP1 ISZERO PUSH2 0x5D7 JUMPI PUSH1 0x0 DUP1 REVERT JUMPDEST POP GAS PUSH2 0x5E1 PUSH2 0x1200 JUMP JUMPDEST POP POP POP POP POP ISZERO DUP1 ISZERO PUSH2 0x5F7 JUMPI RETURNDATASIZE PUSH1 0x0 DUP1 RETURNDATACOPY RETURNDATASIZE PUSH1 0x0 REVERT JUMPDEST POP POP POP POP PUSH1 0x40 MLOAD RETURNDATASIZE PUSH1 0x20 DUP2 LT ISZERO PUSH2 0x60D JUMPI PUSH1 0x0 DUP1 REVERT JUMPDEST POP MLOAD SWAP1 PUSH4 0xFFFFFFFF PUSH2 0xEA5 AND JUMP JUMPDEST SWAP1 PUSH4 0xFFFFFFFF PUSH2 0xF02 AND JUMP JUMPDEST SWAP1 POP PUSH1 0x0 PUSH2 0x646 PUSH11 0x1316BA81B802F59713B13 DUP4 PUSH4 0xFFFFFFFF PUSH2 0xFD1 AND JUMP JUMPDEST SWAP5 SWAP4 POP POP POP POP JUMP JUMPDEST PUSH1 0x0 PUSH1 0x1 PUSH2 0x65A PUSH2 0x1118 JUMP JUMPDEST SWAP1 PUSH2 0x100 EXP SWAP1 DIV PUSH1 0x1 PUSH1 0x1 PUSH1 0xA0 SHL SUB AND DUP2 JUMP JUMPDEST PUSH1 0x0 PUSH1 0x1 PUSH2 0x679 PUSH2 0x1118 JUMP JUMPDEST SWAP1 PUSH2 0x100 EXP SWAP1 DIV PUSH1 0x1 PUSH1 0x1 PUSH1 0xA0 SHL SUB AND PUSH1 0x1 PUSH1 0x1 PUSH1 0xA0 SHL SUB AND GAS PUSH2 0x69B PUSH2 0x1150 JUMP JUMPDEST PUSH1 0x1 PUSH1 0x1 PUSH1 0xA0 SHL SUB AND EQ PUSH2 0x6E0 JUMPI PUSH1 0x40 MLOAD PUSH3 0x461BCD PUSH1 0xE5 SHL DUP2 MSTORE PUSH1 0x4 ADD DUP1 DUP1 PUSH1 0x20 ADD DUP3 DUP2 SUB DUP3 MSTORE PUSH1 0x35 DUP2 MSTORE PUSH1 0x20 ADD DUP1 PUSH2 0x128F PUSH1 0x35 SWAP2 CODECOPY PUSH1 0x40 ADD SWAP2 POP POP PUSH1 0x40 MLOAD DUP1 SWAP2 SUB SWAP1 REVERT JUMPDEST PUSH32 0xB532073B38C83145E3E5135377A08BF9AAB55BC0FD7C1179CD4FB995D2A5159C PUSH1 0x0 DUP1 PUSH2 0x70C PUSH2 0x1118 JUMP JUMPDEST SWAP1 PUSH2 0x100 EXP SWAP1 DIV PUSH1 0x1 PUSH1 0x1 PUSH1 0xA0 SHL SUB AND PUSH1 0x1 PUSH1 0x0 SWAP1 PUSH2 0x729 PUSH2 0x1118 JUMP JUMPDEST PUSH1 0x40 DUP1 MLOAD PUSH1 0x1 PUSH1 0x1 PUSH1 0xA0 SHL SUB SWAP5 DUP6 AND DUP2 MSTORE PUSH2 0x100 SWAP4 SWAP1 SWAP4 EXP SWAP1 SWAP2 DIV SWAP1 SWAP3 AND PUSH1 0x20 DUP3 ADD MSTORE DUP2 MLOAD SWAP1 DUP2 SWAP1 SUB SWAP1 SWAP2 ADD SWAP1 LOG1 PUSH1 0x0 PUSH1 0x1 PUSH2 0x763 PUSH2 0x1118 JUMP JUMPDEST SWAP1 PUSH2 0x100 EXP SWAP1 DIV PUSH1 0x1 PUSH1 0x1 PUSH1 0xA0 SHL SUB AND PUSH1 0x0 DUP1 PUSH2 0x100 EXP DUP2 PUSH2 0x783 PUSH2 0x1118 JUMP JUMPDEST DUP2 PUSH1 0x1 PUSH1 0x1 PUSH1 0xA0 SHL SUB MUL NOT AND SWAP1 DUP4 PUSH1 0x1 PUSH1 0x1 PUSH1 0xA0 SHL SUB AND MUL OR SWAP1 PUSH2 0x7A5 PUSH2 0x1174 JUMP JUMPDEST POP POP POP PUSH1 0x0 PUSH1 0x1 PUSH1 0x0 PUSH2 0x100 EXP DUP2 PUSH2 0x7BB PUSH2 0x1118 JUMP JUMPDEST DUP2 PUSH1 0x1 PUSH1 0x1 PUSH1 0xA0 SHL SUB MUL NOT AND SWAP1 DUP4 PUSH1 0x1 PUSH1 0x1 PUSH1 0xA0 SHL SUB AND MUL OR SWAP1 PUSH2 0x7DD PUSH2 0x1174 JUMP JUMPDEST POP POP POP JUMP JUMPDEST PUSH1 0xEA DUP2 JUMP JUMPDEST PUSH4 0x5C7F0D80 DUP2 JUMP JUMPDEST PUSH1 0x0 DUP1 PUSH1 0x5 PUSH2 0x7FC PUSH2 0x1118 JUMP JUMPDEST SWAP1 PUSH2 0x100 EXP SWAP1 DIV PUSH1 0x1 PUSH1 0x1 PUSH1 0xA0 SHL SUB AND PUSH1 0x1 PUSH1 0x1 PUSH1 0xA0 SHL SUB AND PUSH4 0xD4B83992 PUSH1 0x40 MLOAD DUP2 PUSH4 0xFFFFFFFF AND PUSH1 0xE0 SHL DUP2 MSTORE PUSH1 0x4 ADD PUSH1 0x20 PUSH1 0x40 MLOAD DUP1 DUP4 SUB DUP2 DUP7 DUP1 PUSH2 0x83F PUSH2 0x11CF JUMP JUMPDEST ISZERO DUP1 ISZERO PUSH2 0x84B JUMPI PUSH1 0x0 DUP1 REVERT JUMPDEST POP GAS PUSH2 0x855 PUSH2 0x1257 JUMP JUMPDEST POP POP POP POP POP ISZERO DUP1 ISZERO PUSH2 0x86B JUMPI RETURNDATASIZE PUSH1 0x0 DUP1 RETURNDATACOPY RETURNDATASIZE PUSH1 0x0 REVERT JUMPDEST POP POP POP POP PUSH1 0x40 MLOAD RETURNDATASIZE PUSH1 0x20 DUP2 LT ISZERO PUSH2 0x881 JUMPI PUSH1 0x0 DUP1 REVERT JUMPDEST POP MLOAD PUSH1 0x1 PUSH1 0x1 PUSH1 0xA0 SHL SUB AND GAS PUSH2 0x895 PUSH2 0x1150 JUMP JUMPDEST PUSH1 0x1 PUSH1 0x1 PUSH1 0xA0 SHL SUB AND EQ PUSH2 0x8DA JUMPI PUSH1 0x40 MLOAD PUSH3 0x461BCD PUSH1 0xE5 SHL DUP2 MSTORE PUSH1 0x4 ADD DUP1 DUP1 PUSH1 0x20 ADD DUP3 DUP2 SUB DUP3 MSTORE PUSH1 0x33 DUP2 MSTORE PUSH1 0x20 ADD DUP1 PUSH2 0x1314 PUSH1 0x33 SWAP2 CODECOPY PUSH1 0x40 ADD SWAP2 POP POP PUSH1 0x40 MLOAD DUP1 SWAP2 SUB SWAP1 REVERT JUMPDEST PUSH1 0x0 PUSH2 0x8E4 PUSH2 0xE37 JUMP JUMPDEST SWAP1 POP PUSH2 0x900 DUP2 PUSH1 0x3 PUSH2 0x8F4 PUSH2 0x1118 JUMP JUMPDEST SWAP1 PUSH4 0xFFFFFFFF PUSH2 0xFFB AND JUMP JUMPDEST DUP1 PUSH1 0x3 PUSH2 0x90B PUSH2 0x1174 JUMP JUMPDEST POP POP POP PUSH2 0x946 PUSH3 0x15180 PUSH2 0x8F4 PUSH2 0x935 PUSH3 0x93A80 PUSH1 0x3 PUSH2 0x929 PUSH2 0x1118 JUMP JUMPDEST SWAP1 PUSH4 0xFFFFFFFF PUSH2 0x1055 AND JUMP JUMPDEST PUSH4 0x5C7F0D80 SWAP1 PUSH4 0xFFFFFFFF PUSH2 0xFFB AND JUMP JUMPDEST DUP1 PUSH1 0x2 PUSH2 0x951 PUSH2 0x1174 JUMP JUMPDEST POP POP POP PUSH32 0x601E517D4811033FED8290C79B7823CE1AB70258DA45400FE2391A3C7432EDAB DUP4 DUP3 PUSH1 0x2 PUSH2 0x981 PUSH2 0x1118 JUMP JUMPDEST GAS PUSH2 0x98A PUSH2 0x11AB JUMP JUMPDEST PUSH1 0x40 DUP1 MLOAD SWAP5 DUP6 MSTORE PUSH1 0x20 DUP6 ADD SWAP4 SWAP1 SWAP4 MSTORE DUP4 DUP4 ADD SWAP2 SWAP1 SWAP2 MSTORE PUSH1 0x60 DUP4 ADD MSTORE MLOAD SWAP1 DUP2 SWAP1 SUB PUSH1 0x80 ADD SWAP1 LOG1 POP PUSH1 0x1 SWAP3 SWAP2 POP POP JUMP JUMPDEST PUSH1 0x0 DUP1 PUSH2 0x65A PUSH2 0x1118 JUMP JUMPDEST PUSH1 0x0 DUP1 PUSH2 0x9CE PUSH2 0x1118 JUMP JUMPDEST SWAP1 PUSH2 0x100 EXP SWAP1 DIV PUSH1 0x1 PUSH1 0x1 PUSH1 0xA0 SHL SUB AND PUSH1 0x1 PUSH1 0x1 PUSH1 0xA0 SHL SUB AND GAS PUSH2 0x9F0 PUSH2 0x1150 JUMP JUMPDEST PUSH1 0x1 PUSH1 0x1 PUSH1 0xA0 SHL SUB AND EQ PUSH2 0xA35 JUMPI PUSH1 0x40 MLOAD PUSH3 0x461BCD PUSH1 0xE5 SHL DUP2 MSTORE PUSH1 0x4 ADD DUP1 DUP1 PUSH1 0x20 ADD DUP3 DUP2 SUB DUP3 MSTORE PUSH1 0x2F DUP2 MSTORE PUSH1 0x20 ADD DUP1 PUSH2 0x12C4 PUSH1 0x2F SWAP2 CODECOPY PUSH1 0x40 ADD SWAP2 POP POP PUSH1 0x40 MLOAD DUP1 SWAP2 SUB SWAP1 REVERT JUMPDEST PUSH1 0x1 PUSH1 0x1 PUSH1 0xA0 SHL SUB DUP2 AND PUSH2 0xA86 JUMPI PUSH1 0x40 DUP1 MLOAD PUSH3 0x461BCD PUSH1 0xE5 SHL DUP2 MSTORE PUSH1 0x20 PUSH1 0x4 DUP3 ADD MSTORE PUSH1 0x13 PUSH1 0x24 DUP3 ADD MSTORE PUSH19 0x416464726573732063616E6E6F74206265203 PUSH1 0x6C SHL PUSH1 0x44 DUP3 ADD MSTORE SWAP1 MLOAD SWAP1 DUP2 SWAP1 SUB PUSH1 0x64 ADD SWAP1 REVERT JUMPDEST DUP1 PUSH1 0x5 PUSH1 0x1 DUP2 PUSH2 0xA94 PUSH2 0x1118 JUMP JUMPDEST DUP2 PUSH1 0x1 PUSH1 0x1 PUSH1 0xA0 SHL SUB MUL NOT AND SWAP1 DUP4 PUSH1 0x1 PUSH1 0x1 PUSH1 0xA0 SHL SUB AND MUL OR SWAP1 PUSH2 0xAB6 PUSH2 0x1174 JUMP JUMPDEST POP POP POP PUSH32 0xF8DF0556B7FDE3C4B8394EAE329AEDFA59C6FFD8B532D572A1EFCFA3424CA5FC PUSH1 0x5 PUSH1 0x0 SWAP1 PUSH2 0xAE7 PUSH2 0x1118 JUMP JUMPDEST PUSH1 0x40 DUP1 MLOAD PUSH2 0x100 SWAP4 SWAP1 SWAP4 EXP SWAP1 SWAP2 DIV PUSH1 0x1 PUSH1 0x1 PUSH1 0xA0 SHL SUB AND DUP3 MSTORE MLOAD PUSH1 0x20 SWAP2 DUP2 SWAP1 SUB SWAP2 SWAP1 SWAP2 ADD SWAP1 LOG1 POP JUMP JUMPDEST PUSH1 0x4 PUSH2 0xB1A PUSH2 0x1118 JUMP JUMPDEST DUP2 JUMP JUMPDEST PUSH1 0x0 DUP1 PUSH2 0xBCE DUP4 PUSH2 0x61B PUSH2 0xB3F PUSH7 0x58D15E17628000 PUSH1 0x34 PUSH4 0xFFFFFFFF PUSH2 0x10AE AND JUMP JUMPDEST PUSH20 0x0 PUSH4 0x907AF6C0 PUSH1 0x40 MLOAD DUP2 PUSH4 0xFFFFFFFF AND PUSH1 0xE0 SHL DUP2 MSTORE PUSH1 0x4 ADD PUSH1 0x20 PUSH1 0x40 MLOAD DUP1 DUP4 SUB DUP2 DUP7 DUP1 PUSH2 0xB7E PUSH2 0x11CF JUMP JUMPDEST ISZERO DUP1 ISZERO PUSH2 0xB8A JUMPI PUSH1 0x0 DUP1 REVERT JUMPDEST POP GAS PUSH2 0xB94 PUSH2 0x1200 JUMP JUMPDEST POP POP POP POP POP ISZERO DUP1 ISZERO PUSH2 0xBAA JUMPI RETURNDATASIZE PUSH1 0x0 DUP1 RETURNDATACOPY RETURNDATASIZE PUSH1 0x0 REVERT JUMPDEST POP POP POP POP PUSH1 0x40 MLOAD RETURNDATASIZE PUSH1 0x20 DUP2 LT ISZERO PUSH2 0xBC0 JUMPI PUSH1 0x0 DUP1 REVERT JUMPDEST POP MLOAD SWAP1 PUSH4 0xFFFFFFFF PUSH2 0xFFB AND JUMP JUMPDEST SWAP1 POP PUSH2 0xC73 PUSH2 0xC66 PUSH20 0x0 PUSH4 0x907AF6C0 PUSH1 0x40 MLOAD DUP2 PUSH4 0xFFFFFFFF AND PUSH1 0xE0 SHL DUP2 MSTORE PUSH1 0x4 ADD PUSH1 0x20 PUSH1 0x40 MLOAD DUP1 DUP4 SUB DUP2 DUP7 DUP1 PUSH2 0xC15 PUSH2 0x11CF JUMP JUMPDEST ISZERO DUP1 ISZERO PUSH2 0xC21 JUMPI PUSH1 0x0 DUP1 REVERT JUMPDEST POP GAS PUSH2 0xC2B PUSH2 0x1200 JUMP JUMPDEST POP POP POP POP POP ISZERO DUP1 ISZERO PUSH2 0xC41 JUMPI RETURNDATASIZE PUSH1 0x0 DUP1 RETURNDATACOPY RETURNDATASIZE PUSH1 0x0 REVERT JUMPDEST POP POP POP POP PUSH1 0x40 MLOAD RETURNDATASIZE PUSH1 0x20 DUP2 LT ISZERO PUSH2 0xC57 JUMPI PUSH1 0x0 DUP1 REVERT JUMPDEST POP MLOAD DUP4 SWAP1 PUSH4 0xFFFFFFFF PUSH2 0xEA5 AND JUMP JUMPDEST DUP6 SWAP1 PUSH4 0xFFFFFFFF PUSH2 0xFD1 AND JUMP JUMPDEST SWAP2 POP POP JUMPDEST SWAP3 SWAP2 POP POP JUMP JUMPDEST PUSH11 0x1316BA81B802F59713B13 DUP2 JUMP JUMPDEST PUSH1 0x0 PUSH1 0x5 PUSH2 0x65A PUSH2 0x1118 JUMP JUMPDEST PUSH1 0x2 PUSH2 0xB1A PUSH2 0x1118 JUMP JUMPDEST PUSH1 0x0 DUP1 PUSH2 0xCAD PUSH2 0x443 JUMP JUMPDEST PUSH2 0xCB8 JUMPI SWAP1 POP PUSH2 0x46F JUMP JUMPDEST PUSH1 0x0 PUSH2 0xCC2 PUSH2 0xE37 JUMP JUMPDEST SWAP1 POP PUSH1 0x0 PUSH1 0x3 PUSH2 0xCD0 PUSH2 0x1118 JUMP JUMPDEST SWAP1 POP JUMPDEST DUP2 ISZERO PUSH2 0xE25 JUMPI PUSH1 0x1 ADD PUSH1 0x28 DUP2 LT ISZERO PUSH2 0xD0E JUMPI PUSH2 0xD00 DUP4 PUSH11 0x1316BA81B802F59713B13 PUSH4 0xFFFFFFFF PUSH2 0xFFB AND JUMP JUMPDEST SWAP3 POP PUSH1 0x0 NOT SWAP1 SWAP2 ADD SWAP1 PUSH2 0xE20 JUMP JUMPDEST PUSH1 0xEA DUP2 GT PUSH2 0xD53 JUMPI PUSH1 0x0 PUSH2 0xD29 DUP3 PUSH1 0x27 PUSH4 0xFFFFFFFF PUSH2 0xEA5 AND JUMP JUMPDEST SWAP1 POP PUSH2 0xD44 PUSH2 0xD37 DUP3 PUSH2 0x57A JUMP JUMPDEST DUP6 SWAP1 PUSH4 0xFFFFFFFF PUSH2 0xFFB AND JUMP JUMPDEST SWAP4 POP POP PUSH1 0x0 NOT SWAP1 SWAP2 ADD SWAP1 PUSH2 0xE20 JUMP JUMPDEST PUSH1 0x0 DUP1 PUSH1 0x5 PUSH2 0xD60 PUSH2 0x1118 JUMP JUMPDEST SWAP1 PUSH2 0x100 EXP SWAP1 DIV PUSH1 0x1 PUSH1 0x1 PUSH1 0xA0 SHL SUB AND PUSH1 0x1 PUSH1 0x1 PUSH1 0xA0 SHL SUB AND PUSH4 0x18160DDD PUSH1 0x40 MLOAD DUP2 PUSH4 0xFFFFFFFF AND PUSH1 0xE0 SHL DUP2 MSTORE PUSH1 0x4 ADD PUSH1 0x20 PUSH1 0x40 MLOAD DUP1 DUP4 SUB DUP2 DUP7 DUP1 PUSH2 0xDA3 PUSH2 0x11CF JUMP JUMPDEST ISZERO DUP1 ISZERO PUSH2 0xDAF JUMPI PUSH1 0x0 DUP1 REVERT JUMPDEST POP GAS PUSH2 0xDB9 PUSH2 0x1257 JUMP JUMPDEST POP POP POP POP POP ISZERO DUP1 ISZERO PUSH2 0xDCF JUMPI RETURNDATASIZE PUSH1 0x0 DUP1 RETURNDATACOPY RETURNDATASIZE PUSH1 0x0 REVERT JUMPDEST POP POP POP POP PUSH1 0x40 MLOAD RETURNDATASIZE PUSH1 0x20 DUP2 LT ISZERO PUSH2 0xDE5 JUMPI PUSH1 0x0 DUP1 REVERT JUMPDEST POP MLOAD SWAP1 POP PUSH1 0x0 PUSH2 0xDFB DUP3 DUP7 PUSH4 0xFFFFFFFF PUSH2 0xFFB AND JUMP JUMPDEST SWAP1 POP PUSH2 0xE17 PUSH2 0xE0A DUP3 DUP7 PUSH2 0xB1D JUMP JUMPDEST DUP7 SWAP1 PUSH4 0xFFFFFFFF PUSH2 0xFFB AND JUMP JUMPDEST SWAP5 POP PUSH1 0x0 SWAP4 POP POP POP JUMPDEST PUSH2 0xCD3 JUMP JUMPDEST POP SWAP1 SWAP2 POP POP SWAP1 JUMP JUMPDEST PUSH1 0x3 PUSH2 0xB1A PUSH2 0x1118 JUMP JUMPDEST PUSH1 0x0 DUP1 PUSH1 0x0 PUSH1 0x2 PUSH2 0xE46 PUSH2 0x1118 JUMP JUMPDEST GT PUSH2 0xE6D JUMPI PUSH2 0xE68 PUSH4 0x5C7F0D80 GAS PUSH2 0xE5C PUSH2 0x11AB JUMP JUMPDEST SWAP1 PUSH4 0xFFFFFFFF PUSH2 0xEA5 AND JUMP JUMPDEST PUSH2 0xE83 JUMP JUMPDEST PUSH2 0xE83 PUSH1 0x2 PUSH2 0xE7A PUSH2 0x1118 JUMP JUMPDEST GAS PUSH2 0xE5C PUSH2 0x11AB JUMP JUMPDEST SWAP1 POP PUSH2 0xE98 DUP2 PUSH3 0x93A80 PUSH4 0xFFFFFFFF PUSH2 0x10AE AND JUMP JUMPDEST SWAP2 POP POP SWAP1 JUMP JUMPDEST PUSH3 0x93A80 DUP2 JUMP JUMPDEST PUSH1 0x0 DUP3 DUP3 GT ISZERO PUSH2 0xEFC JUMPI PUSH1 0x40 DUP1 MLOAD PUSH3 0x461BCD PUSH1 0xE5 SHL DUP2 MSTORE PUSH1 0x20 PUSH1 0x4 DUP3 ADD MSTORE PUSH1 0x1E PUSH1 0x24 DUP3 ADD MSTORE PUSH32 0x536166654D6174683A207375627472616374696F6E206F766572666C6F770000 PUSH1 0x44 DUP3 ADD MSTORE SWAP1 MLOAD SWAP1 DUP2 SWAP1 SUB PUSH1 0x64 ADD SWAP1 REVERT JUMPDEST POP SWAP1 SUB SWAP1 JUMP JUMPDEST PUSH1 0x0 DUP1 PUSH20 0x0 PUSH4 0x907AF6C0 PUSH1 0x40 MLOAD DUP2 PUSH4 0xFFFFFFFF AND PUSH1 0xE0 SHL DUP2 MSTORE PUSH1 0x4 ADD PUSH1 0x20 PUSH1 0x40 MLOAD DUP1 DUP4 SUB DUP2 DUP7 DUP1 PUSH2 0xF44 PUSH2 0x11CF JUMP JUMPDEST ISZERO DUP1 ISZERO PUSH2 0xF50 JUMPI PUSH1 0x0 DUP1 REVERT JUMPDEST POP GAS PUSH2 0xF5A PUSH2 0x1200 JUMP JUMPDEST POP POP POP POP POP ISZERO DUP1 ISZERO PUSH2 0xF70 JUMPI RETURNDATASIZE PUSH1 0x0 DUP1 RETURNDATACOPY RETURNDATASIZE PUSH1 0x0 REVERT JUMPDEST POP POP POP POP PUSH1 0x40 MLOAD RETURNDATASIZE PUSH1 0x20 DUP2 LT ISZERO PUSH2 0xF86 JUMPI PUSH1 0x0 DUP1 REVERT JUMPDEST POP MLOAD SWAP1 POP JUMPDEST DUP3 ISZERO PUSH2 0xFCA JUMPI PUSH1 0x2 DUP4 MOD ISZERO PUSH2 0xFAD JUMPI PUSH2 0xFAA DUP2 DUP6 PUSH4 0xFFFFFFFF PUSH2 0xFD1 AND JUMP JUMPDEST SWAP1 POP JUMPDEST PUSH2 0xFBD DUP5 DUP1 PUSH4 0xFFFFFFFF PUSH2 0xFD1 AND JUMP JUMPDEST SWAP4 POP PUSH1 0x2 DUP4 DIV SWAP3 POP PUSH2 0xF8B JUMP JUMPDEST SWAP4 SWAP3 POP POP POP JUMP JUMPDEST PUSH1 0x0 PUSH8 0xDE0B6B3A7640000 PUSH2 0xFEC DUP5 DUP5 PUSH4 0xFFFFFFFF PUSH2 0x1055 AND JUMP JUMPDEST DUP2 PUSH2 0xFF3 JUMPI INVALID JUMPDEST DIV SWAP4 SWAP3 POP POP POP JUMP JUMPDEST PUSH1 0x0 DUP3 DUP3 ADD DUP4 DUP2 LT ISZERO PUSH2 0xFCA JUMPI PUSH1 0x40 DUP1 MLOAD PUSH3 0x461BCD PUSH1 0xE5 SHL DUP2 MSTORE PUSH1 0x20 PUSH1 0x4 DUP3 ADD MSTORE PUSH1 0x1B PUSH1 0x24 DUP3 ADD MSTORE PUSH32 0x536166654D6174683A206164646974696F6E206F766572666C6F770000000000 PUSH1 0x44 DUP3 ADD MSTORE SWAP1 MLOAD SWAP1 DUP2 SWAP1 SUB PUSH1 0x64 ADD SWAP1 REVERT JUMPDEST PUSH1 0x0 DUP3 PUSH2 0x1064 JUMPI POP PUSH1 0x0 PUSH2 0xC77 JUMP JUMPDEST DUP3 DUP3 MUL DUP3 DUP5 DUP3 DUP2 PUSH2 0x1071 JUMPI INVALID JUMPDEST DIV EQ PUSH2 0xFCA JUMPI PUSH1 0x40 MLOAD PUSH3 0x461BCD PUSH1 0xE5 SHL DUP2 MSTORE PUSH1 0x4 ADD DUP1 DUP1 PUSH1 0x20 ADD DUP3 DUP2 SUB DUP3 MSTORE PUSH1 0x21 DUP2 MSTORE PUSH1 0x20 ADD DUP1 PUSH2 0x12F3 PUSH1 0x21 SWAP2 CODECOPY PUSH1 0x40 ADD SWAP2 POP POP PUSH1 0x40 MLOAD DUP1 SWAP2 SUB SWAP1 REVERT JUMPDEST PUSH1 0x0 DUP1 DUP3 GT PUSH2 0x1104 JUMPI PUSH1 0x40 DUP1 MLOAD PUSH3 0x461BCD PUSH1 0xE5 SHL DUP2 MSTORE PUSH1 0x20 PUSH1 0x4 DUP3 ADD MSTORE PUSH1 0x1A PUSH1 0x24 DUP3 ADD MSTORE PUSH32 0x536166654D6174683A206469766973696F6E206279207A65726F000000000000 PUSH1 0x44 DUP3 ADD MSTORE SWAP1 MLOAD SWAP1 DUP2 SWAP1 SUB PUSH1 0x64 ADD SWAP1 REVERT JUMPDEST PUSH1 0x0 DUP3 DUP5 DUP2 PUSH2 0x110F JUMPI INVALID JUMPDEST DIV SWAP5 SWAP4 POP POP POP POP JUMP JUMPDEST PUSH4 0x412CC41 PUSH1 0xE3 SHL PUSH3 0x80000 SWAP1 DUP2 MSTORE PUSH3 0x80004 DUP4 SWAP1 MSTORE PUSH4 0x20966208 SWAP1 PUSH1 0x20 DUP2 PUSH1 0x24 DUP2 PUSH1 0x0 CALLER GAS CALL DUP1 PUSH2 0x1149 JUMPI PUSH1 0x0 DUP1 REVERT JUMPDEST POP MLOAD SWAP3 POP POP JUMP JUMPDEST PUSH4 0x73509064 PUSH3 0x80000 DUP2 PUSH1 0xE0 SHL DUP2 MSTORE PUSH1 0x20 DUP2 PUSH1 0x4 DUP4 PUSH1 0x0 CALLER GAS CALL DUP1 PUSH2 0x1149 JUMPI PUSH1 0x0 DUP1 REVERT JUMPDEST PUSH4 0x146E595 PUSH1 0xE5 SHL PUSH3 0x80000 SWAP1 DUP2 MSTORE PUSH3 0x80004 DUP4 SWAP1 MSTORE PUSH3 0x80024 DUP5 SWAP1 MSTORE PUSH4 0x28DCB2A0 SWAP1 PUSH1 0x0 DUP2 PUSH1 0x44 DUP2 DUP4 CALLER GAS CALL DUP1 PUSH2 0x7DD JUMPI PUSH1 0x0 DUP1 REVERT JUMPDEST PUSH4 0xBDBF8C36 PUSH3 0x80000 DUP2 PUSH1 0xE0 SHL DUP2 MSTORE PUSH1 0x20 DUP2 PUSH1 0x4 DUP4 PUSH1 0x0 CALLER GAS CALL DUP1 PUSH2 0x1149 JUMPI PUSH1 0x0 DUP1 REVERT JUMPDEST PUSH4 0xC3382D0F PUSH1 0xE0 SHL PUSH3 0x80000 SWAP1 DUP2 MSTORE PUSH3 0x80004 DUP4 SWAP1 MSTORE PUSH4 0xC3382D0F SWAP1 PUSH1 0x20 DUP2 PUSH1 0x24 DUP2 PUSH1 0x0 CALLER GAS CALL DUP1 PUSH2 0x1149 JUMPI PUSH1 0x0 DUP1 REVERT JUMPDEST PUSH4 0x45E97DDB PUSH1 0xE0 SHL PUSH3 0x80000 SWAP1 DUP2 MSTORE PUSH3 0x80004 DUP5 SWAP1 MSTORE PUSH4 0x45E97DDB SWAP1 PUSH1 0x0 JUMPDEST DUP8 DUP2 LT ISZERO PUSH2 0x123A JUMPI DUP7 DUP2 ADD MLOAD DUP3 DUP3 ADD PUSH1 0x24 ADD MSTORE PUSH1 0x20 ADD PUSH2 0x121F JUMP JUMPDEST POP DUP9 DUP9 DUP9 PUSH1 0x24 ADD DUP4 PUSH1 0x0 CALLER GAS CALL DUP1 PUSH2 0x1251 JUMPI PUSH1 0x0 DUP1 REVERT JUMPDEST SWAP9 POP POP POP JUMP JUMPDEST PUSH4 0xFBB0F79D PUSH1 0xE0 SHL PUSH3 0x80000 SWAP1 DUP2 MSTORE PUSH3 0x80004 DUP5 SWAP1 MSTORE PUSH4 0xFBB0F79D SWAP1 PUSH1 0x0 DUP8 ISZERO PUSH2 0x123A JUMPI DUP7 DUP2 ADD MLOAD DUP3 DUP3 ADD PUSH1 0x24 ADD MSTORE PUSH1 0x20 ADD PUSH2 0x121F JUMP INVALID MSIZE PUSH16 0x75206D757374206265206E6F6D696E61 PUSH21 0x6564206265666F726520796F752063616E20616363 PUSH6 0x7074206F776E PUSH6 0x72736869704F PUSH15 0x6C792074686520636F6E7472616374 KECCAK256 PUSH16 0x776E6572206D617920706572666F726D KECCAK256 PUSH21 0x68697320616374696F6E536166654D6174683A206D PUSH22 0x6C7469706C69636174696F6E206F766572666C6F774F PUSH15 0x6C79207468652073796E7468657469 PUSH25 0x20636F6E74726163742063616E20706572666F726D20746869 PUSH20 0x20616374696F6E5265776172642063616E6E6F74 KECCAK256 PUSH6 0x786365656420 PUSH14 0x6178206D696E7465722072657761 PUSH19 0x64A265627A7A7231582093253185CC5AA5145A PUSH11 0xFDECB1FC3323404FC27AE7 PUSH6 0x47697A10A407 MSTORE SWAP6 SWAP12 DUP11 PUSH5 0x736F6C6378 0x28 ADDRESS 0x2E CALLDATALOAD 0x2E BALANCE CALLDATASIZE 0x2D PUSH5 0x6576656C6F PUSH17 0x2E323032302E372E32392B636F6D6D6974 0x2E CALLDATASIZE ORIGIN PUSH6 0x363465363700 PC "
		}
	}
}