{
	"abi": [
		{
			"inputs": [
				{
					"internalType": "address payable",
					"name": "_proxy",
					"type": "address"
				},
				{
					"internalType": "contract TokenState",
					"name": "_tokenState",
					"type": "address"
				},
				{
					"internalType": "address",
					"name": "_owner",
					"type": "address"
				},
				{
					"internalType": "uint256",
					"name": "_totalSupply",
					"type": "uint256"
				},
				{
					"internalType": "address",
					"name": "_resolver",
					"type": "address"
				}
			],
			"payable": false,
			"stateMutability": "nonpayable",
			"type": "constructor"
		},
		{
			"anonymous": false,
			"inputs": [
				{
					"indexed": true,
					"internalType": "address",
					"name": "account",
					"type": "address"
				},
				{
					"indexed": false,
					"internalType": "uint256",
					"name": "snxRedeemed",
					"type": "uint256"
				},
				{
					"indexed": false,
					"internalType": "uint256",
					"name": "amountLiquidated",
					"type": "uint256"
				},
				{
					"indexed": false,
					"internalType": "address",
					"name": "liquidator",
					"type": "address"
				}
			],
			"name": "AccountLiquidated",
			"type": "event"
		},
		{
			"anonymous": false,
			"inputs": [
				{
					"indexed": true,
					"internalType": "address",
					"name": "owner",
					"type": "address"
				},
				{
					"indexed": true,
					"internalType": "address",
					"name": "spender",
					"type": "address"
				},
				{
					"indexed": false,
					"internalType": "uint256",
					"name": "value",
					"type": "uint256"
				}
			],
			"name": "Approval",
			"type": "event"
		},
		{
			"anonymous": false,
			"inputs": [
				{
					"indexed": true,
					"internalType": "address",
					"name": "account",
					"type": "address"
				},
				{
					"indexed": false,
					"internalType": "bytes32",
					"name": "currencyKey",
					"type": "bytes32"
				},
				{
					"indexed": false,
					"internalType": "uint256",
					"name": "amount",
					"type": "uint256"
				}
			],
			"name": "ExchangeRebate",
			"type": "event"
		},
		{
			"anonymous": false,
			"inputs": [
				{
					"indexed": true,
					"internalType": "address",
					"name": "account",
					"type": "address"
				},
				{
					"indexed": false,
					"internalType": "bytes32",
					"name": "currencyKey",
					"type": "bytes32"
				},
				{
					"indexed": false,
					"internalType": "uint256",
					"name": "amount",
					"type": "uint256"
				}
			],
			"name": "ExchangeReclaim",
			"type": "event"
		},
		{
			"anonymous": false,
			"inputs": [
				{
					"indexed": false,
					"internalType": "address",
					"name": "oldOwner",
					"type": "address"
				},
				{
					"indexed": false,
					"internalType": "address",
					"name": "newOwner",
					"type": "address"
				}
			],
			"name": "OwnerChanged",
			"type": "event"
		},
		{
			"anonymous": false,
			"inputs": [
				{
					"indexed": false,
					"internalType": "address",
					"name": "newOwner",
					"type": "address"
				}
			],
			"name": "OwnerNominated",
			"type": "event"
		},
		{
			"anonymous": false,
			"inputs": [
				{
					"indexed": false,
					"internalType": "address",
					"name": "proxyAddress",
					"type": "address"
				}
			],
			"name": "ProxyUpdated",
			"type": "event"
		},
		{
			"anonymous": false,
			"inputs": [
				{
					"indexed": false,
					"internalType": "address",
					"name": "newBeneficiary",
					"type": "address"
				}
			],
			"name": "SelfDestructBeneficiaryUpdated",
			"type": "event"
		},
		{
			"anonymous": false,
			"inputs": [
				{
					"indexed": false,
					"internalType": "uint256",
					"name": "selfDestructDelay",
					"type": "uint256"
				}
			],
			"name": "SelfDestructInitiated",
			"type": "event"
		},
		{
			"anonymous": false,
			"inputs": [],
			"name": "SelfDestructTerminated",
			"type": "event"
		},
		{
			"anonymous": false,
			"inputs": [
				{
					"indexed": false,
					"internalType": "address",
					"name": "beneficiary",
					"type": "address"
				}
			],
			"name": "SelfDestructed",
			"type": "event"
		},
		{
			"anonymous": false,
			"inputs": [
				{
					"indexed": true,
					"internalType": "address",
					"name": "account",
					"type": "address"
				},
				{
					"indexed": false,
					"internalType": "bytes32",
					"name": "fromCurrencyKey",
					"type": "bytes32"
				},
				{
					"indexed": false,
					"internalType": "uint256",
					"name": "fromAmount",
					"type": "uint256"
				},
				{
					"indexed": false,
					"internalType": "bytes32",
					"name": "toCurrencyKey",
					"type": "bytes32"
				},
				{
					"indexed": false,
					"internalType": "uint256",
					"name": "toAmount",
					"type": "uint256"
				},
				{
					"indexed": false,
					"internalType": "address",
					"name": "toAddress",
					"type": "address"
				}
			],
			"name": "SynthExchange",
			"type": "event"
		},
		{
			"anonymous": false,
			"inputs": [
				{
					"indexed": false,
					"internalType": "address",
					"name": "newTokenState",
					"type": "address"
				}
			],
			"name": "TokenStateUpdated",
			"type": "event"
		},
		{
			"anonymous": false,
			"inputs": [
				{
					"indexed": true,
					"internalType": "address",
					"name": "from",
					"type": "address"
				},
				{
					"indexed": true,
					"internalType": "address",
					"name": "to",
					"type": "address"
				},
				{
					"indexed": false,
					"internalType": "uint256",
					"name": "value",
					"type": "uint256"
				}
			],
			"name": "Transfer",
			"type": "event"
		},
		{
			"constant": true,
			"inputs": [],
			"name": "DECIMALS",
			"outputs": [
				{
					"internalType": "uint8",
					"name": "",
					"type": "uint8"
				}
			],
			"payable": false,
			"stateMutability": "view",
			"type": "function"
		},
		{
			"constant": true,
			"inputs": [],
			"name": "MAX_ADDRESSES_FROM_RESOLVER",
			"outputs": [
				{
					"internalType": "uint256",
					"name": "",
					"type": "uint256"
				}
			],
			"payable": false,
			"stateMutability": "view",
			"type": "function"
		},
		{
			"constant": true,
			"inputs": [],
			"name": "SELFDESTRUCT_DELAY",
			"outputs": [
				{
					"internalType": "uint256",
					"name": "",
					"type": "uint256"
				}
			],
			"payable": false,
			"stateMutability": "view",
			"type": "function"
		},
		{
			"constant": true,
			"inputs": [],
			"name": "TOKEN_NAME",
			"outputs": [
				{
					"internalType": "string",
					"name": "",
					"type": "string"
				}
			],
			"payable": false,
			"stateMutability": "view",
			"type": "function"
		},
		{
			"constant": true,
			"inputs": [],
			"name": "TOKEN_SYMBOL",
			"outputs": [
				{
					"internalType": "string",
					"name": "",
					"type": "string"
				}
			],
			"payable": false,
			"stateMutability": "view",
			"type": "function"
		},
		{
			"constant": false,
			"inputs": [],
			"name": "acceptOwnership",
			"outputs": [],
			"payable": false,
			"stateMutability": "nonpayable",
			"type": "function"
		},
		{
			"constant": true,
			"inputs": [
				{
					"internalType": "address",
					"name": "owner",
					"type": "address"
				},
				{
					"internalType": "address",
					"name": "spender",
					"type": "address"
				}
			],
			"name": "allowance",
			"outputs": [
				{
					"internalType": "uint256",
					"name": "",
					"type": "uint256"
				}
			],
			"payable": false,
			"stateMutability": "view",
			"type": "function"
		},
		{
			"constant": true,
			"inputs": [],
			"name": "anySynthOrSNXRateIsStale",
			"outputs": [
				{
					"internalType": "bool",
					"name": "anyRateStale",
					"type": "bool"
				}
			],
			"payable": false,
			"stateMutability": "view",
			"type": "function"
		},
		{
			"constant": false,
			"inputs": [
				{
					"internalType": "address",
					"name": "spender",
					"type": "address"
				},
				{
					"internalType": "uint256",
					"name": "value",
					"type": "uint256"
				}
			],
			"name": "approve",
			"outputs": [
				{
					"internalType": "bool",
					"name": "",
					"type": "bool"
				}
			],
			"payable": false,
			"stateMutability": "nonpayable",
			"type": "function"
		},
		{
			"constant": true,
			"inputs": [],
			"name": "availableCurrencyKeys",
			"outputs": [
				{
					"internalType": "bytes32[]",
					"name": "",
					"type": "bytes32[]"
				}
			],
			"payable": false,
			"stateMutability": "view",
			"type": "function"
		},
		{
			"constant": true,
			"inputs": [],
			"name": "availableSynthCount",
			"outputs": [
				{
					"internalType": "uint256",
					"name": "",
					"type": "uint256"
				}
			],
			"payable": false,
			"stateMutability": "view",
			"type": "function"
		},
		{
			"constant": true,
			"inputs": [
				{
					"internalType": "uint256",
					"name": "index",
					"type": "uint256"
				}
			],
			"name": "availableSynths",
			"outputs": [
				{
					"internalType": "contract ISynth",
					"name": "",
					"type": "address"
				}
			],
			"payable": false,
			"stateMutability": "view",
			"type": "function"
		},
		{
			"constant": true,
			"inputs": [
				{
					"internalType": "address",
					"name": "account",
					"type": "address"
				}
			],
			"name": "balanceOf",
			"outputs": [
				{
					"internalType": "uint256",
					"name": "",
					"type": "uint256"
				}
			],
			"payable": false,
			"stateMutability": "view",
			"type": "function"
		},
		{
			"constant": false,
			"inputs": [
				{
					"internalType": "uint256",
					"name": "amount",
					"type": "uint256"
				}
			],
			"name": "burnSynths",
			"outputs": [],
			"payable": false,
			"stateMutability": "nonpayable",
			"type": "function"
		},
		{
			"constant": false,
			"inputs": [
				{
					"internalType": "address",
					"name": "burnForAddress",
					"type": "address"
				},
				{
					"internalType": "uint256",
					"name": "amount",
					"type": "uint256"
				}
			],
			"name": "burnSynthsOnBehalf",
			"outputs": [],
			"payable": false,
			"stateMutability": "nonpayable",
			"type": "function"
		},
		{
			"constant": false,
			"inputs": [],
			"name": "burnSynthsToTarget",
			"outputs": [],
			"payable": false,
			"stateMutability": "nonpayable",
			"type": "function"
		},
		{
			"constant": false,
			"inputs": [
				{
					"internalType": "address",
					"name": "burnForAddress",
					"type": "address"
				}
			],
			"name": "burnSynthsToTargetOnBehalf",
			"outputs": [],
			"payable": false,
			"stateMutability": "nonpayable",
			"type": "function"
		},
		{
			"constant": true,
			"inputs": [
				{
					"internalType": "address",
					"name": "account",
					"type": "address"
				}
			],
			"name": "collateral",
			"outputs": [
				{
					"internalType": "uint256",
					"name": "",
					"type": "uint256"
				}
			],
			"payable": false,
			"stateMutability": "view",
			"type": "function"
		},
		{
			"constant": true,
			"inputs": [
				{
					"internalType": "address",
					"name": "_issuer",
					"type": "address"
				}
			],
			"name": "collateralisationRatio",
			"outputs": [
				{
					"internalType": "uint256",
					"name": "",
					"type": "uint256"
				}
			],
			"payable": false,
			"stateMutability": "view",
			"type": "function"
		},
		{
			"constant": true,
			"inputs": [
				{
					"internalType": "address",
					"name": "account",
					"type": "address"
				},
				{
					"internalType": "bytes32",
					"name": "currencyKey",
					"type": "bytes32"
				}
			],
			"name": "debtBalanceOf",
			"outputs": [
				{
					"internalType": "uint256",
					"name": "",
					"type": "uint256"
				}
			],
			"payable": false,
			"stateMutability": "view",
			"type": "function"
		},
		{
			"constant": true,
			"inputs": [],
			"name": "decimals",
			"outputs": [
				{
					"internalType": "uint8",
					"name": "",
					"type": "uint8"
				}
			],
			"payable": false,
			"stateMutability": "view",
			"type": "function"
		},
		{
			"constant": false,
			"inputs": [
				{
					"internalType": "address",
					"name": "account",
					"type": "address"
				},
				{
					"internalType": "bytes32",
					"name": "currencyKey",
					"type": "bytes32"
				},
				{
					"internalType": "uint256",
					"name": "amount",
					"type": "uint256"
				}
			],
			"name": "emitExchangeRebate",
			"outputs": [],
			"payable": false,
			"stateMutability": "nonpayable",
			"type": "function"
		},
		{
			"constant": false,
			"inputs": [
				{
					"internalType": "address",
					"name": "account",
					"type": "address"
				},
				{
					"internalType": "bytes32",
					"name": "currencyKey",
					"type": "bytes32"
				},
				{
					"internalType": "uint256",
					"name": "amount",
					"type": "uint256"
				}
			],
			"name": "emitExchangeReclaim",
			"outputs": [],
			"payable": false,
			"stateMutability": "nonpayable",
			"type": "function"
		},
		{
			"constant": false,
			"inputs": [
				{
					"internalType": "address",
					"name": "account",
					"type": "address"
				},
				{
					"internalType": "bytes32",
					"name": "fromCurrencyKey",
					"type": "bytes32"
				},
				{
					"internalType": "uint256",
					"name": "fromAmount",
					"type": "uint256"
				},
				{
					"internalType": "bytes32",
					"name": "toCurrencyKey",
					"type": "bytes32"
				},
				{
					"internalType": "uint256",
					"name": "toAmount",
					"type": "uint256"
				},
				{
					"internalType": "address",
					"name": "toAddress",
					"type": "address"
				}
			],
			"name": "emitSynthExchange",
			"outputs": [],
			"payable": false,
			"stateMutability": "nonpayable",
			"type": "function"
		},
		{
			"constant": false,
			"inputs": [
				{
					"internalType": "bytes32",
					"name": "sourceCurrencyKey",
					"type": "bytes32"
				},
				{
					"internalType": "uint256",
					"name": "sourceAmount",
					"type": "uint256"
				},
				{
					"internalType": "bytes32",
					"name": "destinationCurrencyKey",
					"type": "bytes32"
				}
			],
			"name": "exchange",
			"outputs": [
				{
					"internalType": "uint256",
					"name": "amountReceived",
					"type": "uint256"
				}
			],
			"payable": false,
			"stateMutability": "nonpayable",
			"type": "function"
		},
		{
			"constant": false,
			"inputs": [
				{
					"internalType": "address",
					"name": "exchangeForAddress",
					"type": "address"
				},
				{
					"internalType": "bytes32",
					"name": "sourceCurrencyKey",
					"type": "bytes32"
				},
				{
					"internalType": "uint256",
					"name": "sourceAmount",
					"type": "uint256"
				},
				{
					"internalType": "bytes32",
					"name": "destinationCurrencyKey",
					"type": "bytes32"
				}
			],
			"name": "exchangeOnBehalf",
			"outputs": [
				{
					"internalType": "uint256",
					"name": "amountReceived",
					"type": "uint256"
				}
			],
			"payable": false,
			"stateMutability": "nonpayable",
			"type": "function"
		},
		{
			"constant": true,
			"inputs": [],
			"name": "getResolverAddressesRequired",
			"outputs": [
				{
					"internalType": "bytes32[24]",
					"name": "addressesRequired",
					"type": "bytes32[24]"
				}
			],
			"payable": false,
			"stateMutability": "view",
			"type": "function"
		},
		{
			"constant": false,
			"inputs": [],
			"name": "initiateSelfDestruct",
			"outputs": [],
			"payable": false,
			"stateMutability": "nonpayable",
			"type": "function"
		},
		{
			"constant": true,
			"inputs": [],
			"name": "initiationTime",
			"outputs": [
				{
					"internalType": "uint256",
					"name": "",
					"type": "uint256"
				}
			],
			"payable": false,
			"stateMutability": "view",
			"type": "function"
		},
		{
			"constant": true,
			"inputs": [],
			"name": "integrationProxy",
			"outputs": [
				{
					"internalType": "contract Proxy",
					"name": "",
					"type": "address"
				}
			],
			"payable": false,
			"stateMutability": "view",
			"type": "function"
		},
		{
			"constant": true,
			"inputs": [
				{
					"internalType": "contract AddressResolver",
					"name": "_resolver",
					"type": "address"
				}
			],
			"name": "isResolverCached",
			"outputs": [
				{
					"internalType": "bool",
					"name": "",
					"type": "bool"
				}
			],
			"payable": false,
			"stateMutability": "view",
			"type": "function"
		},
		{
			"constant": true,
			"inputs": [
				{
					"internalType": "bytes32",
					"name": "currencyKey",
					"type": "bytes32"
				}
			],
			"name": "isWaitingPeriod",
			"outputs": [
				{
					"internalType": "bool",
					"name": "",
					"type": "bool"
				}
			],
			"payable": false,
			"stateMutability": "view",
			"type": "function"
		},
		{
			"constant": false,
			"inputs": [],
			"name": "issueMaxSynths",
			"outputs": [],
			"payable": false,
			"stateMutability": "nonpayable",
			"type": "function"
		},
		{
			"constant": false,
			"inputs": [
				{
					"internalType": "address",
					"name": "issueForAddress",
					"type": "address"
				}
			],
			"name": "issueMaxSynthsOnBehalf",
			"outputs": [],
			"payable": false,
			"stateMutability": "nonpayable",
			"type": "function"
		},
		{
			"constant": false,
			"inputs": [
				{
					"internalType": "uint256",
					"name": "amount",
					"type": "uint256"
				}
			],
			"name": "issueSynths",
			"outputs": [],
			"payable": false,
			"stateMutability": "nonpayable",
			"type": "function"
		},
		{
			"constant": false,
			"inputs": [
				{
					"internalType": "address",
					"name": "issueForAddress",
					"type": "address"
				},
				{
					"internalType": "uint256",
					"name": "amount",
					"type": "uint256"
				}
			],
			"name": "issueSynthsOnBehalf",
			"outputs": [],
			"payable": false,
			"stateMutability": "nonpayable",
			"type": "function"
		},
		{
			"constant": false,
			"inputs": [
				{
					"internalType": "address",
					"name": "account",
					"type": "address"
				},
				{
					"internalType": "uint256",
					"name": "susdAmount",
					"type": "uint256"
				}
			],
			"name": "liquidateDelinquentAccount",
			"outputs": [
				{
					"internalType": "bool",
					"name": "",
					"type": "bool"
				}
			],
			"payable": false,
			"stateMutability": "nonpayable",
			"type": "function"
		},
		{
			"constant": true,
			"inputs": [
				{
					"internalType": "address",
					"name": "account",
					"type": "address"
				}
			],
			"name": "maxIssuableSynths",
			"outputs": [
				{
					"internalType": "uint256",
					"name": "maxIssuable",
					"type": "uint256"
				}
			],
			"payable": false,
			"stateMutability": "view",
			"type": "function"
		},
		{
			"constant": true,
			"inputs": [],
			"name": "messageSender",
			"outputs": [
				{
					"internalType": "address",
					"name": "",
					"type": "address"
				}
			],
			"payable": false,
			"stateMutability": "view",
			"type": "function"
		},
		{
			"constant": false,
			"inputs": [],
			"name": "mint",
			"outputs": [
				{
					"internalType": "bool",
					"name": "",
					"type": "bool"
				}
			],
			"payable": false,
			"stateMutability": "nonpayable",
			"type": "function"
		},
		{
			"constant": true,
			"inputs": [],
			"name": "name",
			"outputs": [
				{
					"internalType": "string",
					"name": "",
					"type": "string"
				}
			],
			"payable": false,
			"stateMutability": "view",
			"type": "function"
		},
		{
			"constant": false,
			"inputs": [
				{
					"internalType": "address",
					"name": "_owner",
					"type": "address"
				}
			],
			"name": "nominateNewOwner",
			"outputs": [],
			"payable": false,
			"stateMutability": "nonpayable",
			"type": "function"
		},
		{
			"constant": true,
			"inputs": [],
			"name": "nominatedOwner",
			"outputs": [
				{
					"internalType": "address",
					"name": "",
					"type": "address"
				}
			],
			"payable": false,
			"stateMutability": "view",
			"type": "function"
		},
		{
			"constant": true,
			"inputs": [],
			"name": "owner",
			"outputs": [
				{
					"internalType": "address",
					"name": "",
					"type": "address"
				}
			],
			"payable": false,
			"stateMutability": "view",
			"type": "function"
		},
		{
			"constant": true,
			"inputs": [],
			"name": "proxy",
			"outputs": [
				{
					"internalType": "contract Proxy",
					"name": "",
					"type": "address"
				}
			],
			"payable": false,
			"stateMutability": "view",
			"type": "function"
		},
		{
			"constant": true,
			"inputs": [
				{
					"internalType": "address",
					"name": "account",
					"type": "address"
				}
			],
			"name": "remainingIssuableSynths",
			"outputs": [
				{
					"internalType": "uint256",
					"name": "maxIssuable",
					"type": "uint256"
				},
				{
					"internalType": "uint256",
					"name": "alreadyIssued",
					"type": "uint256"
				},
				{
					"internalType": "uint256",
					"name": "totalSystemDebt",
					"type": "uint256"
				}
			],
			"payable": false,
			"stateMutability": "view",
			"type": "function"
		},
		{
			"constant": true,
			"inputs": [],
			"name": "resolver",
			"outputs": [
				{
					"internalType": "contract AddressResolver",
					"name": "",
					"type": "address"
				}
			],
			"payable": false,
			"stateMutability": "view",
			"type": "function"
		},
		{
			"constant": true,
			"inputs": [
				{
					"internalType": "uint256",
					"name": "",
					"type": "uint256"
				}
			],
			"name": "resolverAddressesRequired",
			"outputs": [
				{
					"internalType": "bytes32",
					"name": "",
					"type": "bytes32"
				}
			],
			"payable": false,
			"stateMutability": "view",
			"type": "function"
		},
		{
			"constant": true,
			"inputs": [],
			"name": "sUSD",
			"outputs": [
				{
					"internalType": "bytes32",
					"name": "",
					"type": "bytes32"
				}
			],
			"payable": false,
			"stateMutability": "view",
			"type": "function"
		},
		{
			"constant": false,
			"inputs": [],
			"name": "selfDestruct",
			"outputs": [],
			"payable": false,
			"stateMutability": "nonpayable",
			"type": "function"
		},
		{
			"constant": true,
			"inputs": [],
			"name": "selfDestructBeneficiary",
			"outputs": [
				{
					"internalType": "address",
					"name": "",
					"type": "address"
				}
			],
			"payable": false,
			"stateMutability": "view",
			"type": "function"
		},
		{
			"constant": true,
			"inputs": [],
			"name": "selfDestructInitiated",
			"outputs": [
				{
					"internalType": "bool",
					"name": "",
					"type": "bool"
				}
			],
			"payable": false,
			"stateMutability": "view",
			"type": "function"
		},
		{
			"constant": false,
			"inputs": [
				{
					"internalType": "address payable",
					"name": "_integrationProxy",
					"type": "address"
				}
			],
			"name": "setIntegrationProxy",
			"outputs": [],
			"payable": false,
			"stateMutability": "nonpayable",
			"type": "function"
		},
		{
			"constant": false,
			"inputs": [
				{
					"internalType": "address",
					"name": "sender",
					"type": "address"
				}
			],
			"name": "setMessageSender",
			"outputs": [],
			"payable": false,
			"stateMutability": "nonpayable",
			"type": "function"
		},
		{
			"constant": false,
			"inputs": [
				{
					"internalType": "address payable",
					"name": "_proxy",
					"type": "address"
				}
			],
			"name": "setProxy",
			"outputs": [],
			"payable": false,
			"stateMutability": "nonpayable",
			"type": "function"
		},
		{
			"constant": false,
			"inputs": [
				{
					"internalType": "contract AddressResolver",
					"name": "_resolver",
					"type": "address"
				}
			],
			"name": "setResolverAndSyncCache",
			"outputs": [],
			"payable": false,
			"stateMutability": "nonpayable",
			"type": "function"
		},
		{
			"constant": false,
			"inputs": [
				{
					"internalType": "address payable",
					"name": "_beneficiary",
					"type": "address"
				}
			],
			"name": "setSelfDestructBeneficiary",
			"outputs": [],
			"payable": false,
			"stateMutability": "nonpayable",
			"type": "function"
		},
		{
			"constant": false,
			"inputs": [
				{
					"internalType": "contract TokenState",
					"name": "_tokenState",
					"type": "address"
				}
			],
			"name": "setTokenState",
			"outputs": [],
			"payable": false,
			"stateMutability": "nonpayable",
			"type": "function"
		},
		{
			"constant": false,
			"inputs": [
				{
					"internalType": "bytes32",
					"name": "currencyKey",
					"type": "bytes32"
				}
			],
			"name": "settle",
			"outputs": [
				{
					"internalType": "uint256",
					"name": "reclaimed",
					"type": "uint256"
				},
				{
					"internalType": "uint256",
					"name": "refunded",
					"type": "uint256"
				},
				{
					"internalType": "uint256",
					"name": "numEntriesSettled",
					"type": "uint256"
				}
			],
			"payable": false,
			"stateMutability": "nonpayable",
			"type": "function"
		},
		{
			"constant": true,
			"inputs": [],
			"name": "symbol",
			"outputs": [
				{
					"internalType": "string",
					"name": "",
					"type": "string"
				}
			],
			"payable": false,
			"stateMutability": "view",
			"type": "function"
		},
		{
			"constant": true,
			"inputs": [
				{
					"internalType": "bytes32",
					"name": "currencyKey",
					"type": "bytes32"
				}
			],
			"name": "synths",
			"outputs": [
				{
					"internalType": "contract ISynth",
					"name": "",
					"type": "address"
				}
			],
			"payable": false,
			"stateMutability": "view",
			"type": "function"
		},
		{
			"constant": true,
			"inputs": [
				{
					"internalType": "address",
					"name": "synthAddress",
					"type": "address"
				}
			],
			"name": "synthsByAddress",
			"outputs": [
				{
					"internalType": "bytes32",
					"name": "",
					"type": "bytes32"
				}
			],
			"payable": false,
			"stateMutability": "view",
			"type": "function"
		},
		{
			"constant": false,
			"inputs": [],
			"name": "terminateSelfDestruct",
			"outputs": [],
			"payable": false,
			"stateMutability": "nonpayable",
			"type": "function"
		},
		{
			"constant": true,
			"inputs": [],
			"name": "tokenState",
			"outputs": [
				{
					"internalType": "contract TokenState",
					"name": "",
					"type": "address"
				}
			],
			"payable": false,
			"stateMutability": "view",
			"type": "function"
		},
		{
			"constant": true,
			"inputs": [
				{
					"internalType": "bytes32",
					"name": "currencyKey",
					"type": "bytes32"
				}
			],
			"name": "totalIssuedSynths",
			"outputs": [
				{
					"internalType": "uint256",
					"name": "",
					"type": "uint256"
				}
			],
			"payable": false,
			"stateMutability": "view",
			"type": "function"
		},
		{
			"constant": true,
			"inputs": [
				{
					"internalType": "bytes32",
					"name": "currencyKey",
					"type": "bytes32"
				}
			],
			"name": "totalIssuedSynthsExcludeEtherCollateral",
			"outputs": [
				{
					"internalType": "uint256",
					"name": "",
					"type": "uint256"
				}
			],
			"payable": false,
			"stateMutability": "view",
			"type": "function"
		},
		{
			"constant": true,
			"inputs": [],
			"name": "totalSupply",
			"outputs": [
				{
					"internalType": "uint256",
					"name": "",
					"type": "uint256"
				}
			],
			"payable": false,
			"stateMutability": "view",
			"type": "function"
		},
		{
			"constant": false,
			"inputs": [
				{
					"internalType": "address",
					"name": "to",
					"type": "address"
				},
				{
					"internalType": "uint256",
					"name": "value",
					"type": "uint256"
				}
			],
			"name": "transfer",
			"outputs": [
				{
					"internalType": "bool",
					"name": "",
					"type": "bool"
				}
			],
			"payable": false,
			"stateMutability": "nonpayable",
			"type": "function"
		},
		{
			"constant": false,
			"inputs": [
				{
					"internalType": "address",
					"name": "from",
					"type": "address"
				},
				{
					"internalType": "address",
					"name": "to",
					"type": "address"
				},
				{
					"internalType": "uint256",
					"name": "value",
					"type": "uint256"
				}
			],
			"name": "transferFrom",
			"outputs": [
				{
					"internalType": "bool",
					"name": "",
					"type": "bool"
				}
			],
			"payable": false,
			"stateMutability": "nonpayable",
			"type": "function"
		},
		{
			"constant": true,
			"inputs": [
				{
					"internalType": "address",
					"name": "account",
					"type": "address"
				}
			],
			"name": "transferableSynthetix",
			"outputs": [
				{
					"internalType": "uint256",
					"name": "transferable",
					"type": "uint256"
				}
			],
			"payable": false,
			"stateMutability": "view",
			"type": "function"
		}
	],
	"evm": {
		"bytecode": {
			"linkReferences": {},
			"object": "6101406040526b53797374656d53746174757360a01b60809081526822bc31b430b733b2b960b91b60a0526524b9b9bab2b960d11b60c0526d537570706c795363686564756c6560901b60e0527f52657761726473446973747269627574696f6e00000000000000000000000000610100526d53796e746865746978537461746560901b610120526200009790600e9060066200065d565b50348015620000a557600080fd5b5060405162006b2b38038062006b2b833981810160405260a0811015620000cb57600080fd5b5080516020820151604080840151606085015160809095015182516103008101938490529495939491939290918291600e9060189082845b816200010e620006ab565b815260200190600101908083116200010357505050505086866040518060400160405280601781526020017f53796e746865746978204e6574776f726b20546f6b656e000000000000000000815250604051806040016040528060038152602001620a69cb60eb1b8152508760128a868160006001600160a01b0316816001600160a01b03161415620001e8576040805162461bcd60e51b815260206004820152601960248201527f4f776e657220616464726573732063616e6e6f74206265203000000000000000604482015290519081900360640190fd5b806000600181620001f8620006ab565b816001600160a01b0302191690836001600160a01b03160217906200021c620006e4565b505060408051600081526001600160a01b038416602082015281517fb532073b38c83145e3e5135377a08bf9aab55bc0fd7c1179cd4fb995d2a5159c93509081900390910190a1506000808062000272620006ab565b906101000a90046001600160a01b03166001600160a01b03161415620002d3576040805162461bcd60e51b815260206004820152601160248201527013dddb995c881b5d5cdd081899481cd95d607a1b604482015290519081900360640190fd5b600080620002e0620006ab565b906101000a90046001600160a01b0316600360016101000a8162000303620006ab565b816001600160a01b0302191690836001600160a01b031602179062000327620006e4565b5050507fd5da63a0b864b315bc04128dedbc93888c8529ee6cf47ce664dc204339228c536000809062000359620006ab565b604080516101009390930a9091046001600160a01b03168252516020918190039190910190a1600080806200038d620006ab565b906101000a90046001600160a01b03166001600160a01b03161415620003ee576040805162461bcd60e51b815260206004820152601160248201527013dddb995c881b5d5cdd081899481cd95d607a1b604482015290519081900360640190fd5b806004600181620003fe620006ab565b816001600160a01b0302191690836001600160a01b031602179062000422620006e4565b5050604080516001600160a01b038416815290517ffc80377ca9c49cc11ae6982f390a42db976d5530af7c43889264b13fbbd7c57e92509081900360200190a15085600760018162000473620006ab565b816001600160a01b0302191690836001600160a01b031602179062000497620006e4565b50508551620004af9150600890602088019062000721565b508351620004c590600990602087019062000721565b508280600a620004d4620006e4565b50505081600b60006101000a81620004eb620006ab565b8160ff021916908360ff1602179062000503620006e4565b5050505050505050505060006001600160a01b03166000809062000526620006ab565b906101000a90046001600160a01b03166001600160a01b0316141562000587576040805162461bcd60e51b815260206004820152601160248201527013dddb995c881b5d5cdd081899481cd95d607a1b604482015290519081900360640190fd5b60005b601881101562000617576000828260188110620005a357fe5b6020020151146200060857600d828260188110620005bd57fe5b60200201519080600181620005d1620006ab565b018082620005de620006e4565b5050600092835260209092209192918301600019019050620005ff620006e4565b5050506200060e565b62000617565b6001016200058a565b5081600b6101008162000629620006ab565b816001600160a01b0302191690836001600160a01b03160217906200064d620006e4565b5050505050505050505062000823565b826018810192821562000699579160200282015b82811115620006995782518262000687620006e4565b50509160200191906001019062000671565b50620006a7929150620007cc565b5090565b630412cc4160e31b62080000908152620800048390526320966208906020816024816000335af180620006dd57600080fd5b5051925050565b630146e59560e51b6208000090815262080004839052620800248490526328dcb2a09060008160448183335af1806200071c57600080fd5b505050565b82806200072d620006ab565b600181600116156101000203166002900490600052602060002090601f016020900481019282601f106200077857805160ff1916838001178562000770620006e4565b5050620007be565b8280016001018562000789620006e4565b50508215620007be579182015b82811115620007be57825182620007ac620006e4565b50509160200191906001019062000796565b50620006a7929150620007f9565b620007f691905b80821115620006a75760008082620007ea620006e4565b505050600101620007d3565b90565b620007f691905b80821115620006a7576000808262000817620006e4565b50505060010162000800565b6162f880620008336000396000f3fe608060405234801561001057600080fd5b50600436106104125760003560e01c80638da5cb5b11610220578063bc67f83211610130578063dbf63340116100b8578063e8e09b8b11610087578063e8e09b8b14610c1a578063e90dd9e214610c46578063ec55688914610c4e578063ee52a2f314610c56578063f354cad114610c7f57610412565b8063dbf6334014610bb0578063dd62ed3e14610bb8578063e3235c9114610be6578063e6203ed114610bee57610412565b8063c6c9d828116100ff578063c6c9d82814610b0a578063c836fa0a14610b27578063d37c4d8b14610b5f578063d60888e414610b8b578063d67bdd2514610ba857610412565b8063bc67f83214610aa8578063bd32aa4414610ace578063c2bf388014610ad6578063c58aaae614610b0257610412565b80639f769807116101b3578063a9059cbb11610182578063a9059cbb146109f9578063ab49848c14610a25578063ace88afd14610a66578063af086c7e14610a98578063b8225dec14610aa057610412565b80639f7698071461097f578063a311c7c2146109a5578063a461fc82146109cb578063a5fdc5de146109d357610412565b80639741fb22116101ef5780639741fb221461094a578063987757dd146109525780639cb8a26a1461096f5780639cbdaeb61461097757610412565b80638da5cb5b1461090c5780639324cac71461091457806395d89b411461091c57806397107d6d1461092457610412565b80632c955fa7116103265780636ac0bf9c116102ae57806372cb051f1161027d57806372cb051f1461085557806379ba5097146108ad578063835e119c146108b557806383d625d4146108d25780638a290014146108ef57610412565b80636ac0bf9c146107915780636c00f310146107b75780636f01a986146107fd57806370a082311461082f57610412565b806332608039116102f557806332608039146107185780633278c960146107355780633be99e6f1461073d57806353a47bb714610763578063631e14441461076b57610412565b80632c955fa7146106a65780632e0f2625146106cc578063313ce567146106ea578063320223db146106f257610412565b806316b2213f116103a95780631fce304d116103785780631fce304d1461060857806320714f881461062557806323b872dd1461064b578063295da87d146106815780632a9053181461069e57610412565b806316b2213f146105ca57806317c70de4146105f057806318160ddd146105f8578063188214001461060057610412565b80631137aedf116103e55780631137aedf146105305780631249c58b14610574578063131b0ae71461057c5780631627540c146105a457610412565b806304f3bcec1461041757806305b3c1c91461043b57806306fdde0314610473578063095ea7b3146104f0575b600080fd5b61041f610c87565b604080516001600160a01b039092168252519081900360200190f35b6104616004803603602081101561045157600080fd5b50356001600160a01b0316610ca6565b60408051918252519081900360200190f35b61047b610d4c565b6040805160208082528351818301528351919283929083019185019080838360005b838110156104b557818101518382015260200161049d565b50505050905090810190601f1680156104e25780820380516001836020036101000a031916815260200191505b509250505060405180910390f35b61051c6004803603604081101561050657600080fd5b506001600160a01b038135169060200135610e06565b604080519115158252519081900360200190f35b6105566004803603602081101561054657600080fd5b50356001600160a01b0316610fd2565b60408051938452602084019290925282820152519081900360600190f35b61051c61108b565b6105a26004803603602081101561059257600080fd5b50356001600160a01b0316611715565b005b6105a2600480360360208110156105ba57600080fd5b50356001600160a01b03166117bd565b610461600480360360208110156105e057600080fd5b50356001600160a01b03166118a1565b6104616118fb565b610461611908565b61047b611912565b61051c6004803603602081101561061e57600080fd5b503561194b565b6105a26004803603602081101561063b57600080fd5b50356001600160a01b0316611a14565b61051c6004803603606081101561066157600080fd5b506001600160a01b03813581169160208101359091169060400135611b55565b6105a26004803603602081101561069757600080fd5b5035611cf7565b61047b611f11565b6105a2600480360360208110156106bc57600080fd5b50356001600160a01b0316611f30565b6106d4612127565b6040805160ff9092168252519081900360200190f35b6106d461212c565b6105a26004803603602081101561070857600080fd5b50356001600160a01b0316612145565b61041f6004803603602081101561072e57600080fd5b50356122d0565b6105a2612318565b6105a26004803603602081101561075357600080fd5b50356001600160a01b03166123f0565b61041f6125fe565b61051c6004803603602081101561078157600080fd5b50356001600160a01b031661260a565b610461600480360360208110156107a757600080fd5b50356001600160a01b03166127b7565b6105a2600480360360c08110156107cd57600080fd5b506001600160a01b03813581169160208101359160408201359160608101359160808201359160a001351661290e565b6105a26004803603606081101561081357600080fd5b506001600160a01b038135169060208101359060400135612b1b565b6104616004803603602081101561084557600080fd5b50356001600160a01b0316612cfb565b61085d612d68565b60408051602080825283518183015283519192839290830191858101910280838360005b83811015610899578181015183820152602001610881565b505050509050019250505060405180910390f35b6105a2612e8b565b61041f600480360360208110156108cb57600080fd5b5035613000565b610461600480360360208110156108e857600080fd5b5035613048565b6105a26004803603602081101561090557600080fd5b503561309d565b61041f613227565b610461613232565b61047b61323d565b6105a26004803603602081101561093a57600080fd5b50356001600160a01b03166132e0565b6105a26133c5565b6105566004803603602081101561096857600080fd5b50356135cf565b6105a2613778565b61041f613910565b6105a26004803603602081101561099557600080fd5b50356001600160a01b031661391c565b610461600480360360208110156109bb57600080fd5b50356001600160a01b0316613ade565b610461613b38565b610461600480360360208110156109e957600080fd5b50356001600160a01b0316613b3f565b61051c60048036036040811015610a0f57600080fd5b506001600160a01b038135169060200135613b99565b610a2d613d4e565b604051808261030080838360005b83811015610a53578181015183820152602001610a3b565b5050505090500191505060405180910390f35b6105a260048036036060811015610a7c57600080fd5b506001600160a01b038135169060208101359060400135613db0565b6105a2613e9b565b61051c614025565b6105a260048036036020811015610abe57600080fd5b50356001600160a01b0316614031565b6105a2614107565b6105a260048036036040811015610aec57600080fd5b506001600160a01b0381351690602001356141f4565b61041f614428565b61046160048036036020811015610b2057600080fd5b5035614434565b61046160048036036080811015610b3d57600080fd5b506001600160a01b03813516906020810135906040810135906060013561445d565b61046160048036036040811015610b7557600080fd5b506001600160a01b03813516906020013561473e565b61046160048036036020811015610ba157600080fd5b50356147eb565b61041f614840565b61046161484c565b61046160048036036040811015610bce57600080fd5b506001600160a01b03813581169160200135166148d2565b610461614934565b61051c60048036036040811015610c0457600080fd5b506001600160a01b038135169060200135614939565b6105a260048036036040811015610c3057600080fd5b506001600160a01b038135169060200135614be3565b61041f614d6e565b61041f614d7a565b61046160048036036060811015610c6c57600080fd5b5080359060208101359060400135614d86565b61051c615082565b6001600b610c93615f3a565b906101000a90046001600160a01b031681565b6000610cb06150bf565b6001600160a01b03166305b3c1c9836040518263ffffffff1660e01b815260040180826001600160a01b03166001600160a01b031681526020019150506020604051808303818680610d00615f72565b158015610d0c57600080fd5b505a610d16615fa3565b5050505050158015610d2c573d6000803e3d6000fd5b505050506040513d6020811015610d4257600080fd5b505190505b919050565b600880610d57615f3a565b600181600116156101000203166002900480601f01602080910402602001604051908101604052809291908181526020018280610d92615f3a565b60018160011615610100020316600290048015610dfe5780601f10610dcc576101008083610dbe615f3a565b040283529160200191610dfe565b820191906000526020600020905b81610de3615f3a565b81529060010190602001808311610dda57829003601f168201915b505050505081565b6000806004610e13615f3a565b906101000a90046001600160a01b03166001600160a01b03165a610e35615ffa565b6001600160a01b031614158015610e81575060006005610e53615f3a565b906101000a90046001600160a01b03166001600160a01b03165a610e75615ffa565b6001600160a01b031614155b8015610ec257505a610e91615ffa565b6001600160a01b031660006006610ea6615f3a565b906101000a90046001600160a01b03166001600160a01b031614155b15610f03575a610ed0615ffa565b6006600181610edd615f3a565b816001600160a01b0302191690836001600160a01b0316021790610eff61601e565b5050505b6000806006610f10615f3a565b906101000a90046001600160a01b031690506007600090610f2f615f3a565b60408051633691826360e21b81526001600160a01b03858116600483015288811660248301526044820188905291516101009490940a909204169163da46098c916064808201926000929091908290030181838780610f8c615f72565b158015610f9857600080fd5b505a610fa2616055565b505050505050158015610fb9573d6000803e3d6000fd5b50505050610fc8818585615107565b5060019392505050565b6000806000610fdf6150bf565b6001600160a01b0316631137aedf856040518263ffffffff1660e01b815260040180826001600160a01b03166001600160a01b03168152602001915050606060405180830381868061102f615f72565b15801561103b57600080fd5b505a611045615fa3565b505050505015801561105b573d6000803e3d6000fd5b505050506040513d606081101561107157600080fd5b508051602082015160409092015190969195509350915050565b60006110956151ec565b6001600160a01b0316637c3125416040518163ffffffff1660e01b815260040160006040518083038186806110c8615f72565b1580156110d457600080fd5b505a6110de615fa3565b50505050501580156110f4573d6000803e3d6000fd5b5050505060006001600160a01b031661110b61523c565b6001600160a01b03161415611167576040805162461bcd60e51b815260206004820152601b60248201527f52657761726473446973747269627574696f6e206e6f74207365740000000000604482015290519081900360640190fd5b6000611171615276565b9050600061117d61523c565b90506000826001600160a01b031663cc5c095c6040518163ffffffff1660e01b815260040160206040518083038186806111b5615f72565b1580156111c157600080fd5b505a6111cb615fa3565b50505050501580156111e1573d6000803e3d6000fd5b505050506040513d60208110156111f757600080fd5b5051905080611245576040805162461bcd60e51b81526020600482015260156024820152744e6f20737570706c79206973206d696e7461626c6560581b604482015290519081900360640190fd5b826001600160a01b0316637e7961d7826040518263ffffffff1660e01b81526004018082815260200191505060206040518083038160008780611286615f72565b15801561129257600080fd5b505a61129c616055565b5050505050501580156112b3573d6000803e3d6000fd5b505050506040513d60208110156112c957600080fd5b505060408051639bdd7ac760e01b815290516000916001600160a01b03861691639bdd7ac7916004808201926020929091908290030181868061130a615f72565b15801561131657600080fd5b505a611320615fa3565b5050505050158015611336573d6000803e3d6000fd5b505050506040513d602081101561134c57600080fd5b505190506000611362838363ffffffff6152c816565b905060006007611370615f3a565b6001600160a01b036101009290920a90041663b46310f6856114488460006007611398615f3a565b906101000a90046001600160a01b03166001600160a01b03166370a082318a6040518263ffffffff1660e01b815260040180826001600160a01b03166001600160a01b0316815260200191505060206040518083038186806113f8615f72565b15801561140457600080fd5b505a61140e615fa3565b5050505050158015611424573d6000803e3d6000fd5b505050506040513d602081101561143a57600080fd5b50519063ffffffff61532516565b6040518363ffffffff1660e01b815260040180836001600160a01b03166001600160a01b031681526020018281526020019250505060006040518083038160008780611492615f72565b15801561149e57600080fd5b505a6114a8616055565b5050505050501580156114bf573d6000803e3d6000fd5b505050506114f85a63996d79a5620800008160e01b81526020816004836000335af1806114eb57600080fd5b5051915086905083615386565b836001600160a01b03166359974e38826040518263ffffffff1660e01b81526004018082815260200191505060206040518083038160008780611539615f72565b15801561154557600080fd5b505a61154f616055565b505050505050158015611566573d6000803e3d6000fd5b505050506040513d602081101561157c57600080fd5b5060009050600761158b615f3a565b906101000a90046001600160a01b03166001600160a01b031663b46310f65a6115b2615ffa565b61162a85600060076115c2615f3a565b906101000a90046001600160a01b03166001600160a01b03166370a082315a6115e9615ffa565b6040518263ffffffff1660e01b815260040180826001600160a01b03166001600160a01b0316815260200191505060206040518083038186806113f8615f72565b6040518363ffffffff1660e01b815260040180836001600160a01b03166001600160a01b031681526020018281526020019250505060006040518083038160008780611674615f72565b15801561168057600080fd5b505a61168a616055565b5050505050501580156116a1573d6000803e3d6000fd5b505050506116e15a63996d79a5620800008160e01b81526020816004836000335af1806116cd57600080fd5b50519150505a6116db615ffa565b84615386565b6116fb83600a6116ef615f3a565b9063ffffffff61532516565b80600a61170661601e565b50505060019550505050505090565b600080611720615f3a565b906101000a90046001600160a01b03166001600160a01b03165a611742615ffa565b6001600160a01b0316146117875760405162461bcd60e51b815260040180806020018281038252602f8152602001806161b1602f913960400191505060405180910390fd5b806005600181611795615f3a565b816001600160a01b0302191690836001600160a01b03160217906117b761601e565b50505050565b6000806117c8615f3a565b906101000a90046001600160a01b03166001600160a01b03165a6117ea615ffa565b6001600160a01b03161461182f5760405162461bcd60e51b815260040180806020018281038252602f8152602001806161b1602f913960400191505060405180910390fd5b806001808061183c615f3a565b816001600160a01b0302191690836001600160a01b031602179061185e61601e565b5050604080516001600160a01b038416815290517f906a1c6bd7e3091ea86693dd029a831c19049ce77f1dce2ce0bab1cacbabce2292509081900360200190a150565b60006118ab6150bf565b6001600160a01b03166316b2213f836040518263ffffffff1660e01b815260040180826001600160a01b03166001600160a01b031681526020019150506020604051808303818680610d00615f72565b6002611905615f3a565b81565b600a611905615f3a565b6040518060400160405280601781526020017f53796e746865746978204e6574776f726b20546f6b656e00000000000000000081525081565b6000806119566153f4565b6001600160a01b031663059c29ec60006006611970615f3a565b906101000a90046001600160a01b0316856040518363ffffffff1660e01b815260040180836001600160a01b03166001600160a01b031681526020018281526020019250505060206040518083038186806119c9615f72565b1580156119d557600080fd5b505a6119df615fa3565b50505050501580156119f5573d6000803e3d6000fd5b505050506040513d6020811015611a0b57600080fd5b50511192915050565b600080611a1f615f3a565b906101000a90046001600160a01b03166001600160a01b03165a611a41615ffa565b6001600160a01b031614611a865760405162461bcd60e51b815260040180806020018281038252602f8152602001806161b1602f913960400191505060405180910390fd5b6001600160a01b038116611ae1576040805162461bcd60e51b815260206004820152601c60248201527f42656e6566696369617279206d757374206e6f74206265207a65726f00000000604482015290519081900360640190fd5b80600361010081611af0615f3a565b816001600160a01b0302191690836001600160a01b0316021790611b1261601e565b5050604080516001600160a01b038416815290517fd5da63a0b864b315bc04128dedbc93888c8529ee6cf47ce664dc204339228c5392509081900360200190a150565b6000806004611b62615f3a565b906101000a90046001600160a01b03166001600160a01b03165a611b84615ffa565b6001600160a01b031614158015611bd0575060006005611ba2615f3a565b906101000a90046001600160a01b03166001600160a01b03165a611bc4615ffa565b6001600160a01b031614155b8015611c1157505a611be0615ffa565b6001600160a01b031660006006611bf5615f3a565b906101000a90046001600160a01b03166001600160a01b031614155b15611c52575a611c1f615ffa565b6006600181611c2c615f3a565b816001600160a01b0302191690836001600160a01b0316021790611c4e61601e565b5050505b611c5a6151ec565b6001600160a01b031663086dabd16040518163ffffffff1660e01b81526004016000604051808303818680611c8d615f72565b158015611c9957600080fd5b505a611ca3615fa3565b5050505050158015611cb9573d6000803e3d6000fd5b50505050611cc78483615441565b50611cef60006006611cd7615f3a565b906101000a90046001600160a01b03168585856156d5565b949350505050565b611cff6151ec565b6001600160a01b0316637c3125416040518163ffffffff1660e01b81526004016000604051808303818680611d32615f72565b158015611d3e57600080fd5b505a611d48615fa3565b5050505050158015611d5e573d6000803e3d6000fd5b505050506004600090611d6f615f3a565b906101000a90046001600160a01b03166001600160a01b03165a611d91615ffa565b6001600160a01b031614158015611ddd575060006005611daf615f3a565b906101000a90046001600160a01b03166001600160a01b03165a611dd1615ffa565b6001600160a01b031614155b8015611e1e57505a611ded615ffa565b6001600160a01b031660006006611e02615f3a565b906101000a90046001600160a01b03166001600160a01b031614155b15611e5f575a611e2c615ffa565b6006600181611e39615f3a565b816001600160a01b0302191690836001600160a01b0316021790611e5b61601e565b5050505b611e676150bf565b6001600160a01b031663b06e8c6560006006611e81615f3a565b906101000a90046001600160a01b0316836040518363ffffffff1660e01b815260040180836001600160a01b03166001600160a01b031681526020018281526020019250505060006040518083038160008780611edc615f72565b158015611ee857600080fd5b505a611ef2616055565b505050505050158015611f09573d6000803e3d6000fd5b505050505b50565b604051806040016040528060038152602001620a69cb60eb1b81525081565b611f386151ec565b6001600160a01b0316637c3125416040518163ffffffff1660e01b81526004016000604051808303818680611f6b615f72565b158015611f7757600080fd5b505a611f81615fa3565b5050505050158015611f97573d6000803e3d6000fd5b505050506004600090611fa8615f3a565b906101000a90046001600160a01b03166001600160a01b03165a611fca615ffa565b6001600160a01b031614158015612016575060006005611fe8615f3a565b906101000a90046001600160a01b03166001600160a01b03165a61200a615ffa565b6001600160a01b031614155b801561205757505a612026615ffa565b6001600160a01b03166000600661203b615f3a565b906101000a90046001600160a01b03166001600160a01b031614155b15612098575a612065615ffa565b6006600181612072615f3a565b816001600160a01b0302191690836001600160a01b031602179061209461601e565b5050505b6120a06150bf565b6001600160a01b0316632b3f41aa82600060066120bb615f3a565b906101000a90046001600160a01b03166040518363ffffffff1660e01b815260040180836001600160a01b03166001600160a01b03168152602001826001600160a01b03166001600160a01b031681526020019250505060006040518083038160008780611edc615f72565b601281565b6000600b612138615f3a565b906101000a900460ff1681565b61214d6151ec565b6001600160a01b0316637c3125416040518163ffffffff1660e01b81526004016000604051808303818680612180615f72565b15801561218c57600080fd5b505a612196615fa3565b50505050501580156121ac573d6000803e3d6000fd5b5050505060046000906121bd615f3a565b906101000a90046001600160a01b03166001600160a01b03165a6121df615ffa565b6001600160a01b03161415801561222b5750600060056121fd615f3a565b906101000a90046001600160a01b03166001600160a01b03165a61221f615ffa565b6001600160a01b031614155b801561226c57505a61223b615ffa565b6001600160a01b031660006006612250615f3a565b906101000a90046001600160a01b03166001600160a01b031614155b156122ad575a61227a615ffa565b6006600181612287615f3a565b816001600160a01b0302191690836001600160a01b03160217906122a961601e565b5050505b6122b56150bf565b6001600160a01b031663fd864ccf82600060066120bb615f3a565b60006122da6150bf565b6001600160a01b03166332608039836040518263ffffffff1660e01b8152600401808281526020019150506020604051808303818680610d00615f72565b600080612323615f3a565b906101000a90046001600160a01b03166001600160a01b03165a612345615ffa565b6001600160a01b03161461238a5760405162461bcd60e51b815260040180806020018281038252602f8152602001806161b1602f913960400191505060405180910390fd5b600080600261239761601e565b5050506000600360006101000a816123ad615f3a565b8160ff021916908315150217906123c261601e565b50506040517f6adcc7125002935e0aa31697538ebbd65cfddf20431eb6ecdcfc3e238bfd082c9150600090a1565b6000806123fb615f3a565b906101000a90046001600160a01b03166001600160a01b03165a61241d615ffa565b6001600160a01b0316146124625760405162461bcd60e51b815260040180806020018281038252602f8152602001806161b1602f913960400191505060405180910390fd5b80600b61010081612471615f3a565b816001600160a01b0302191690836001600160a01b031602179061249361601e565b5060009150505b600d806124a5615f3a565b90508110156125fa576000600d82816124bc615f3a565b81106124c457fe5b906000526020600020016124d6615f3a565b90506001600b6124e4615f3a565b906101000a90046001600160a01b03166001600160a01b031663dacb2d01826040518263ffffffff1660e01b81526004018082815260200180602001828103825260178152602001807f5265736f6c766572206d697373696e672074617267657400000000000000000081525060200192505050602060405180830381868061256b615f72565b15801561257757600080fd5b505a612581615fa3565b5050505050158015612597573d6000803e3d6000fd5b505050506040513d60208110156125ad57600080fd5b50516000828152600c602052604090206001816125c8615f3a565b816001600160a01b0302191690836001600160a01b03160217906125ea61601e565b50506001909201915061249a9050565b5050565b60006001610c93615f3a565b60006001600160a01b0382166001600b612622615f3a565b906101000a90046001600160a01b03166001600160a01b03161461264857506000610d47565b60005b600d80612656615f3a565b90508110156127ae576000600d828161266d615f3a565b811061267557fe5b90600052602060002001612687615f3a565b6000818152600c60205260408120919250906126a1615f3a565b6001600160a01b036101009290920a9004166001600b6126bf615f3a565b906101000a90046001600160a01b03166001600160a01b03166321f8a721836040518263ffffffff1660e01b815260040180828152602001915050602060405180830381868061270d615f72565b15801561271957600080fd5b505a612723615fa3565b5050505050158015612739573d6000803e3d6000fd5b505050506040513d602081101561274f57600080fd5b50516001600160a01b031614158061279557506000818152600c60205260408120819061277a615f3a565b906101000a90046001600160a01b03166001600160a01b0316145b156127a557600092505050610d47565b5060010161264b565b50600192915050565b60006127c16150bf565b6001600160a01b031663db2b91cf83600060076127dc615f3a565b906101000a90046001600160a01b03166001600160a01b03166370a08231866040518263ffffffff1660e01b815260040180826001600160a01b03166001600160a01b03168152602001915050602060405180830381868061283c615f72565b15801561284857600080fd5b505a612852615fa3565b5050505050158015612868573d6000803e3d6000fd5b505050506040513d602081101561287e57600080fd5b5051604080516001600160e01b031960e086901b1681526001600160a01b03909316600484015260248301919091528051604480840193829003018186806128c4615f72565b1580156128d057600080fd5b505a6128da615fa3565b50505050501580156128f0573d6000803e3d6000fd5b505050506040513d604081101561290657600080fd5b505192915050565b6129166153f4565b6001600160a01b03165a612928615ffa565b6001600160a01b031614612983576040805162461bcd60e51b815260206004820152601e60248201527f4f6e6c792045786368616e6765722063616e20696e766f6b6520746869730000604482015290519081900360640190fd5b6000600461298f615f3a565b906101000a90046001600160a01b03166001600160a01b031663907dff97868686868660405160200180868152602001858152602001848152602001838152602001826001600160a01b03166001600160a01b03168152602001955050505050506040516020818303038152906040526002604051808061614d603e9139603e0190506040518091039020612a238b61584f565b6000806040518763ffffffff1660e01b815260040180806020018781526020018681526020018581526020018460001b81526020018360001b8152602001828103825288818151815260200191508051906020019080838360005b83811015612a96578181015183820152602001612a7e565b50505050905090810190601f168015612ac35780820380516001836020036101000a031916815260200191505b5097505050505050505060006040518083038160008780612ae2615f72565b158015612aee57600080fd5b505a612af8616055565b505050505050158015612b0f573d6000803e3d6000fd5b50505050505050505050565b612b236153f4565b6001600160a01b03165a612b35615ffa565b6001600160a01b031614612b90576040805162461bcd60e51b815260206004820152601e60248201527f4f6e6c792045786368616e6765722063616e20696e766f6b6520746869730000604482015290519081900360640190fd5b60006004612b9c615f3a565b906101000a90046001600160a01b03166001600160a01b031663907dff9783836040516020018083815260200182815260200192505050604051602081830303815290604052600260405180806162246027913960270190506040518091039020612c068861584f565b6000806040518763ffffffff1660e01b815260040180806020018781526020018681526020018581526020018460001b81526020018360001b8152602001828103825288818151815260200191508051906020019080838360005b83811015612c79578181015183820152602001612c61565b50505050905090810190601f168015612ca65780820380516001836020036101000a031916815260200191505b5097505050505050505060006040518083038160008780612cc5615f72565b158015612cd157600080fd5b505a612cdb616055565b505050505050158015612cf2573d6000803e3d6000fd5b50505050505050565b6000806007612d08615f3a565b906101000a90046001600160a01b03166001600160a01b03166370a08231836040518263ffffffff1660e01b815260040180826001600160a01b03166001600160a01b031681526020019150506020604051808303818680610d00615f72565b6060612d726150bf565b6001600160a01b03166372cb051f6040518163ffffffff1660e01b81526004016000604051808303818680612da5615f72565b158015612db157600080fd5b505a612dbb615fa3565b5050505050158015612dd1573d6000803e3d6000fd5b505050506040513d6000823e601f3d908101601f191682016040526020811015612dfa57600080fd5b8101908080516040519392919084640100000000821115612e1a57600080fd5b908301906020820185811115612e2f57600080fd5b8251866020820283011164010000000082111715612e4c57600080fd5b82525081516020918201928201910280838360005b83811015612e79578181015183820152602001612e61565b50505050905001604052505050905090565b60006001612e97615f3a565b906101000a90046001600160a01b03166001600160a01b03165a612eb9615ffa565b6001600160a01b031614612efe5760405162461bcd60e51b81526004018080602001828103825260358152602001806160f06035913960400191505060405180910390fd5b7fb532073b38c83145e3e5135377a08bf9aab55bc0fd7c1179cd4fb995d2a5159c600080612f2a615f3a565b906101000a90046001600160a01b03166001600090612f47615f3a565b604080516001600160a01b0394851681526101009390930a909104909216602082015281519081900390910190a160006001612f81615f3a565b906101000a90046001600160a01b03166000806101000a81612fa1615f3a565b816001600160a01b0302191690836001600160a01b0316021790612fc361601e565b5050506000600160006101000a81612fd9615f3a565b816001600160a01b0302191690836001600160a01b0316021790612ffb61601e565b505050565b600061300a6150bf565b6001600160a01b031663835e119c836040518263ffffffff1660e01b8152600401808281526020019150506020604051808303818680610d00615f72565b60006130526150bf565b6001600160a01b0316637b1001b78360006040518363ffffffff1660e01b81526004018083815260200182151515158152602001925050506020604051808303818680610d00615f72565b6130a56151ec565b6001600160a01b0316637c3125416040518163ffffffff1660e01b815260040160006040518083038186806130d8615f72565b1580156130e457600080fd5b505a6130ee615fa3565b5050505050158015613104573d6000803e3d6000fd5b505050506004600090613115615f3a565b906101000a90046001600160a01b03166001600160a01b03165a613137615ffa565b6001600160a01b031614158015613183575060006005613155615f3a565b906101000a90046001600160a01b03166001600160a01b03165a613177615ffa565b6001600160a01b031614155b80156131c457505a613193615ffa565b6001600160a01b0316600060066131a8615f3a565b906101000a90046001600160a01b03166001600160a01b031614155b15613205575a6131d2615ffa565b60066001816131df615f3a565b816001600160a01b0302191690836001600160a01b031602179061320161601e565b5050505b61320d6150bf565b6001600160a01b031663042e068860006006611e81615f3a565b600080610c93615f3a565b631cd554d160e21b81565b600980613248615f3a565b600181600116156101000203166002900480601f01602080910402602001604051908101604052809291908181526020018280613283615f3a565b60018160011615610100020316600290048015610dfe5780601f106132af576101008083610dbe615f3a565b820191906000526020600020905b816132c6615f3a565b815290600101906020018083116132bd5750859350505050565b6000806132eb615f3a565b906101000a90046001600160a01b03166001600160a01b03165a61330d615ffa565b6001600160a01b0316146133525760405162461bcd60e51b815260040180806020018281038252602f8152602001806161b1602f913960400191505060405180910390fd5b806004600181613360615f3a565b816001600160a01b0302191690836001600160a01b031602179061338261601e565b5050604080516001600160a01b038416815290517ffc80377ca9c49cc11ae6982f390a42db976d5530af7c43889264b13fbbd7c57e92509081900360200190a150565b6133cd6151ec565b6001600160a01b0316637c3125416040518163ffffffff1660e01b81526004016000604051808303818680613400615f72565b15801561340c57600080fd5b505a613416615fa3565b505050505015801561342c573d6000803e3d6000fd5b50505050600460009061343d615f3a565b906101000a90046001600160a01b03166001600160a01b03165a61345f615ffa565b6001600160a01b0316141580156134ab57506000600561347d615f3a565b906101000a90046001600160a01b03166001600160a01b03165a61349f615ffa565b6001600160a01b031614155b80156134ec57505a6134bb615ffa565b6001600160a01b0316600060066134d0615f3a565b906101000a90046001600160a01b03166001600160a01b031614155b1561352d575a6134fa615ffa565b6006600181613507615f3a565b816001600160a01b0302191690836001600160a01b031602179061352961601e565b5050505b6135356150bf565b6001600160a01b031663497d704a6000600661354f615f3a565b906101000a90046001600160a01b03166040518263ffffffff1660e01b815260040180826001600160a01b03166001600160a01b03168152602001915050600060405180830381600087806135a2615f72565b1580156135ae57600080fd5b505a6135b8616055565b5050505050501580156117b7573d6000803e3d6000fd5b600080808060046135de615f3a565b906101000a90046001600160a01b03166001600160a01b03165a613600615ffa565b6001600160a01b03161415801561364c57506000600561361e615f3a565b906101000a90046001600160a01b03166001600160a01b03165a613640615ffa565b6001600160a01b031614155b801561368d57505a61365c615ffa565b6001600160a01b031660006006613671615f3a565b906101000a90046001600160a01b03166001600160a01b031614155b156136ce575a61369b615ffa565b60066001816136a8615f3a565b816001600160a01b0302191690836001600160a01b03160217906136ca61601e565b5050505b6136d66153f4565b6001600160a01b0316631b16802c600060066136f0615f3a565b906101000a90046001600160a01b0316866040518363ffffffff1660e01b815260040180836001600160a01b03166001600160a01b03168152602001828152602001925050506060604051808303816000878061374b615f72565b15801561375757600080fd5b505a613761616055565b50505050505015801561105b573d6000803e3d6000fd5b600080613783615f3a565b906101000a90046001600160a01b03166001600160a01b03165a6137a5615ffa565b6001600160a01b0316146137ea5760405162461bcd60e51b815260040180806020018281038252602f8152602001806161b1602f913960400191505060405180910390fd5b600060036137f6615f3a565b906101000a900460ff16613851576040805162461bcd60e51b815260206004820152601f60248201527f53656c66204465737472756374206e6f742079657420696e6974696174656400604482015290519081900360640190fd5b5a61385a6160ac565b6224ea006002613868615f3a565b01106138bb576040805162461bcd60e51b815260206004820152601b60248201527f53656c662064657374727563742064656c6179206e6f74206d65740000000000604482015290519081900360640190fd5b7f8a09e1677ced846cb537dc2b172043bd05a1a81ad7e0033a7ef8ba762df990b7600160036138e8615f3a565b604080516101009390930a9091046001600160a01b03168252516020918190039190910190a1565b60006005610c93615f3a565b60006004613928615f3a565b906101000a90046001600160a01b03166001600160a01b03165a61394a615ffa565b6001600160a01b031614158015613996575060006005613968615f3a565b906101000a90046001600160a01b03166001600160a01b03165a61398a615ffa565b6001600160a01b031614155b80156139d757505a6139a6615ffa565b6001600160a01b0316600060066139bb615f3a565b906101000a90046001600160a01b03166001600160a01b031614155b15613a18575a6139e5615ffa565b60066001816139f2615f3a565b816001600160a01b0302191690836001600160a01b0316021790613a1461601e565b5050505b600080613a23615f3a565b6001600160a01b036101009290920a90041660006006613a41615f3a565b906101000a90046001600160a01b03166001600160a01b031614613aa2576040805162461bcd60e51b815260206004820152601360248201527227bbb732b91037b7363c90333ab731ba34b7b760691b604482015290519081900360640190fd5b806007600181613ab0615f3a565b816001600160a01b0302191690836001600160a01b0316021790613ad261601e565b505050611f0e8161585b565b6000613ae86150bf565b6001600160a01b031663a311c7c2836040518263ffffffff1660e01b815260040180826001600160a01b03166001600160a01b031681526020019150506020604051808303818680610d00615f72565b6224ea0081565b6000613b496150bf565b6001600160a01b031663a5fdc5de836040518263ffffffff1660e01b815260040180826001600160a01b03166001600160a01b031681526020019150506020604051808303818680610d00615f72565b6000806004613ba6615f3a565b906101000a90046001600160a01b03166001600160a01b03165a613bc8615ffa565b6001600160a01b031614158015613c14575060006005613be6615f3a565b906101000a90046001600160a01b03166001600160a01b03165a613c08615ffa565b6001600160a01b031614155b8015613c5557505a613c24615ffa565b6001600160a01b031660006006613c39615f3a565b906101000a90046001600160a01b03166001600160a01b031614155b15613c96575a613c63615ffa565b6006600181613c70615f3a565b816001600160a01b0302191690836001600160a01b0316021790613c9261601e565b5050505b613c9e6151ec565b6001600160a01b031663086dabd16040518163ffffffff1660e01b81526004016000604051808303818680613cd1615f72565b158015613cdd57600080fd5b505a613ce7615fa3565b5050505050158015613cfd573d6000803e3d6000fd5b50505050613d276006600090613d11615f3a565b906101000a90046001600160a01b031683615441565b50610fc860006006613d37615f3a565b906101000a90046001600160a01b03168484615992565b613d566160d0565b60005b600d80613d64615f3a565b9050811015613dac57600d8181613d79615f3a565b8110613d8157fe5b90600052602060002001613d93615f3a565b828260188110613d9f57fe5b6020020152600101613d59565b5090565b613db86153f4565b6001600160a01b03165a613dca615ffa565b6001600160a01b031614613e25576040805162461bcd60e51b815260206004820152601e60248201527f4f6e6c792045786368616e6765722063616e20696e766f6b6520746869730000604482015290519081900360640190fd5b60006004613e31615f3a565b906101000a90046001600160a01b03166001600160a01b031663907dff9783836040516020018083815260200182815260200192505050604051602081830303815290604052600260405180806161256028913960280190506040518091039020612c068861584f565b613ea36151ec565b6001600160a01b0316637c3125416040518163ffffffff1660e01b81526004016000604051808303818680613ed6615f72565b158015613ee257600080fd5b505a613eec615fa3565b5050505050158015613f02573d6000803e3d6000fd5b505050506004600090613f13615f3a565b906101000a90046001600160a01b03166001600160a01b03165a613f35615ffa565b6001600160a01b031614158015613f81575060006005613f53615f3a565b906101000a90046001600160a01b03166001600160a01b03165a613f75615ffa565b6001600160a01b031614155b8015613fc257505a613f91615ffa565b6001600160a01b031660006006613fa6615f3a565b906101000a90046001600160a01b03166001600160a01b031614155b15614003575a613fd0615ffa565b6006600181613fdd615f3a565b816001600160a01b0302191690836001600160a01b0316021790613fff61601e565b5050505b61400b6150bf565b6001600160a01b031663c89771326000600661354f615f3a565b60006003612138615f3a565b6000600461403d615f3a565b906101000a90046001600160a01b03166001600160a01b03165a61405f615ffa565b6001600160a01b031614806140a857506000600561407b615f3a565b906101000a90046001600160a01b03166001600160a01b03165a61409d615ffa565b6001600160a01b0316145b6140f9576040805162461bcd60e51b815260206004820152601760248201527f4f6e6c79207468652070726f78792063616e2063616c6c000000000000000000604482015290519081900360640190fd5b806006600181611795615f3a565b600080614112615f3a565b906101000a90046001600160a01b03166001600160a01b03165a614134615ffa565b6001600160a01b0316146141795760405162461bcd60e51b815260040180806020018281038252602f8152602001806161b1602f913960400191505060405180910390fd5b5a6141826160ac565b80600261418d61601e565b5050506001600360006101000a816141a3615f3a565b8160ff021916908315150217906141b861601e565b5050604080516224ea00815290517fcbd94ca75b8dc45c9d80c77e851670e78843c0d75180cb81db3e2158228fa9a692509081900360200190a1565b6141fc6151ec565b6001600160a01b0316637c3125416040518163ffffffff1660e01b8152600401600060405180830381868061422f615f72565b15801561423b57600080fd5b505a614245615fa3565b505050505015801561425b573d6000803e3d6000fd5b50505050600460009061426c615f3a565b906101000a90046001600160a01b03166001600160a01b03165a61428e615ffa565b6001600160a01b0316141580156142da5750600060056142ac615f3a565b906101000a90046001600160a01b03166001600160a01b03165a6142ce615ffa565b6001600160a01b031614155b801561431b57505a6142ea615ffa565b6001600160a01b0316600060066142ff615f3a565b906101000a90046001600160a01b03166001600160a01b031614155b1561435c575a614329615ffa565b6006600181614336615f3a565b816001600160a01b0302191690836001600160a01b031602179061435861601e565b5050505b6143646150bf565b6001600160a01b0316639a5154b4836000600661437f615f3a565b906101000a90046001600160a01b0316846040518463ffffffff1660e01b815260040180846001600160a01b03166001600160a01b03168152602001836001600160a01b03166001600160a01b031681526020018281526020019350505050600060405180830381600087806143f3615f72565b1580156143ff57600080fd5b505a614409616055565b505050505050158015614420573d6000803e3d6000fd5b505050505050565b60016003610c93615f3a565b600d8181614440615f3a565b811061444857fe5b60009182526020909120019050611905615f3a565b600083826144696151ec565b6001600160a01b0316637118d4316040518163ffffffff1660e01b8152600401600060405180830381868061449c615f72565b1580156144a857600080fd5b505a6144b2615fa3565b50505050501580156144c8573d6000803e3d6000fd5b505050506144d46151ec565b6001600160a01b0316636132eba483836040518363ffffffff1660e01b81526004018083815260200182815260200192505050600060405180830381868061451a615f72565b15801561452657600080fd5b505a614530615fa3565b5050505050158015614546573d6000803e3d6000fd5b505050506004600090614557615f3a565b906101000a90046001600160a01b03166001600160a01b03165a614579615ffa565b6001600160a01b0316141580156145c5575060006005614597615f3a565b906101000a90046001600160a01b03166001600160a01b03165a6145b9615ffa565b6001600160a01b031614155b801561460657505a6145d5615ffa565b6001600160a01b0316600060066145ea615f3a565b906101000a90046001600160a01b03166001600160a01b031614155b15614647575a614614615ffa565b6006600181614621615f3a565b816001600160a01b0302191690836001600160a01b031602179061464361601e565b5050505b61464f6153f4565b6001600160a01b0316636a1c4758886000600661466a615f3a565b906101000a90046001600160a01b03168989896040518663ffffffff1660e01b815260040180866001600160a01b03166001600160a01b03168152602001856001600160a01b03166001600160a01b0316815260200184815260200183815260200182815260200195505050505050602060405180830381600087806146ee615f72565b1580156146fa57600080fd5b505a614704616055565b50505050505015801561471b573d6000803e3d6000fd5b505050506040513d602081101561473157600080fd5b5051979650505050505050565b60006147486150bf565b6001600160a01b031663d37c4d8b84846040518363ffffffff1660e01b815260040180836001600160a01b03166001600160a01b031681526020018281526020019250505060206040518083038186806147a0615f72565b1580156147ac57600080fd5b505a6147b6615fa3565b50505050501580156147cc573d6000803e3d6000fd5b505050506040513d60208110156147e257600080fd5b50519392505050565b60006147f56150bf565b6001600160a01b0316637b1001b78360016040518363ffffffff1660e01b81526004018083815260200182151515158152602001925050506020604051808303818680610d00615f72565b60006006610c93615f3a565b60006148566150bf565b6001600160a01b031663dbf633406040518163ffffffff1660e01b81526004016020604051808303818680614889615f72565b15801561489557600080fd5b505a61489f615fa3565b50505050501580156148b5573d6000803e3d6000fd5b505050506040513d60208110156148cb57600080fd5b5051905090565b60008060076148df615f3a565b60408051636eb1769f60e11b81526001600160a01b038781166004830152868116602483015291516101009490940a909204169163dd62ed3e91604480820192602092909190829003018186806147a0615f72565b601881565b60006149436151ec565b6001600160a01b031663086dabd16040518163ffffffff1660e01b81526004016000604051808303818680614976615f72565b15801561498257600080fd5b505a61498c615fa3565b50505050501580156149a2573d6000803e3d6000fd5b5050505060046000906149b3615f3a565b906101000a90046001600160a01b03166001600160a01b03165a6149d5615ffa565b6001600160a01b031614158015614a215750600060056149f3615f3a565b906101000a90046001600160a01b03166001600160a01b03165a614a15615ffa565b6001600160a01b031614155b8015614a6257505a614a31615ffa565b6001600160a01b031660006006614a46615f3a565b906101000a90046001600160a01b03166001600160a01b031614155b15614aa3575a614a70615ffa565b6006600181614a7d615f3a565b816001600160a01b0302191690836001600160a01b0316021790614a9f61601e565b5050505b600080614aae6150bf565b6001600160a01b031663a63c4df4868660006006614aca615f3a565b906101000a90046001600160a01b03166040518463ffffffff1660e01b815260040180846001600160a01b03166001600160a01b03168152602001838152602001826001600160a01b03166001600160a01b031681526020019350505050604080518083038160008780614b3c615f72565b158015614b4857600080fd5b505a614b52616055565b505050505050158015614b69573d6000803e3d6000fd5b505050506040513d6040811015614b7f57600080fd5b5080516020909101519092509050614bb485838360006006614b9f615f3a565b906101000a90046001600160a01b031661599f565b614bda8560006006614bc4615f3a565b906101000a90046001600160a01b031684615992565b95945050505050565b614beb6151ec565b6001600160a01b0316637c3125416040518163ffffffff1660e01b81526004016000604051808303818680614c1e615f72565b158015614c2a57600080fd5b505a614c34615fa3565b5050505050158015614c4a573d6000803e3d6000fd5b505050506004600090614c5b615f3a565b906101000a90046001600160a01b03166001600160a01b03165a614c7d615ffa565b6001600160a01b031614158015614cc9575060006005614c9b615f3a565b906101000a90046001600160a01b03166001600160a01b03165a614cbd615ffa565b6001600160a01b031614155b8015614d0a57505a614cd9615ffa565b6001600160a01b031660006006614cee615f3a565b906101000a90046001600160a01b03166001600160a01b031614155b15614d4b575a614d18615ffa565b6006600181614d25615f3a565b816001600160a01b0302191690836001600160a01b0316021790614d4761601e565b5050505b614d536150bf565b6001600160a01b03166344ec6b62836000600661437f615f3a565b60006007610c93615f3a565b60006004610c93615f3a565b60008382614d926151ec565b6001600160a01b0316637118d4316040518163ffffffff1660e01b81526004016000604051808303818680614dc5615f72565b158015614dd157600080fd5b505a614ddb615fa3565b5050505050158015614df1573d6000803e3d6000fd5b50505050614dfd6151ec565b6001600160a01b0316636132eba483836040518363ffffffff1660e01b815260040180838152602001828152602001925050506000604051808303818680614e43615f72565b158015614e4f57600080fd5b505a614e59615fa3565b5050505050158015614e6f573d6000803e3d6000fd5b505050506004600090614e80615f3a565b906101000a90046001600160a01b03166001600160a01b03165a614ea2615ffa565b6001600160a01b031614158015614eee575060006005614ec0615f3a565b906101000a90046001600160a01b03166001600160a01b03165a614ee2615ffa565b6001600160a01b031614155b8015614f2f57505a614efe615ffa565b6001600160a01b031660006006614f13615f3a565b906101000a90046001600160a01b03166001600160a01b031614155b15614f70575a614f3d615ffa565b6006600181614f4a615f3a565b816001600160a01b0302191690836001600160a01b0316021790614f6c61601e565b5050505b614f786153f4565b6001600160a01b0316630a1e187d60006006614f92615f3a565b906101000a90046001600160a01b03168888886006600090614fb2615f3a565b906101000a90046001600160a01b03166040518663ffffffff1660e01b815260040180866001600160a01b03166001600160a01b03168152602001858152602001848152602001838152602001826001600160a01b03166001600160a01b031681526020019550505050505060206040518083038160008780615033615f72565b15801561503f57600080fd5b505a615049616055565b505050505050158015615060573d6000803e3d6000fd5b505050506040513d602081101561507657600080fd5b50519695505050505050565b600061508c6150bf565b6001600160a01b031663f354cad16040518163ffffffff1660e01b81526004016020604051808303818680614889615f72565b60006151026524b9b9bab2b960d11b604051806040016040528060168152602001754d697373696e6720497373756572206164647265737360501b815250615b25565b905090565b60006004615113615f3a565b906101000a90046001600160a01b03166001600160a01b031663907dff978260405160200180828152602001915050604051602081830303815290604052600360405180806161e060219139602101905060405180910390206151758861584f565b61517e8861584f565b60006040518763ffffffff1660e01b815260040180806020018781526020018681526020018581526020018481526020018360001b81526020018281038252888181518152602001915080519060200190808383600083811015612c79578181015183820152602001612c61565b60006151026b53797374656d53746174757360a01b6040518060400160405280601c81526020017f4d697373696e672053797374656d537461747573206164647265737300000000815250615b25565b6000615102722932bbb0b93239a234b9ba3934b13aba34b7b760691b60405180606001604052806023815260200161620160239139615b25565b60006151026d537570706c795363686564756c6560901b6040518060400160405280601e81526020017f4d697373696e6720537570706c795363686564756c6520616464726573730000815250615b25565b60008282111561531f576040805162461bcd60e51b815260206004820152601e60248201527f536166654d6174683a207375627472616374696f6e206f766572666c6f770000604482015290519081900360640190fd5b50900390565b60008282018381101561537f576040805162461bcd60e51b815260206004820152601b60248201527f536166654d6174683a206164646974696f6e206f766572666c6f770000000000604482015290519081900360640190fd5b9392505050565b60006004615392615f3a565b906101000a90046001600160a01b03166001600160a01b031663907dff9782604051602001808281526020019150506040516020818303038152906040526003604051808061627d60219139602101905060405180910390206151758861584f565b60006151026822bc31b430b733b2b960b91b6040518060400160405280601981526020017f4d697373696e672045786368616e676572206164647265737300000000000000815250615b25565b60008061544c615be5565b60408051631167f01160e31b81526001600160a01b0387811660048301528251931692638b3f8088926024808401939192918290030181868061548d615f72565b15801561549957600080fd5b505a6154a3615fa3565b50505050501580156154b9573d6000803e3d6000fd5b505050506040513d60408110156154cf57600080fd5b505190508015610fc8576000806154e46150bf565b6001600160a01b031663db2b91cf87600060076154ff615f3a565b906101000a90046001600160a01b03166001600160a01b03166370a082318a6040518263ffffffff1660e01b815260040180826001600160a01b03166001600160a01b03168152602001915050602060405180830381868061555f615f72565b15801561556b57600080fd5b505a615575615fa3565b505050505015801561558b573d6000803e3d6000fd5b505050506040513d60208110156155a157600080fd5b5051604080516001600160e01b031960e086901b1681526001600160a01b03909316600484015260248301919091528051604480840193829003018186806155e7615f72565b1580156155f357600080fd5b505a6155fd615fa3565b5050505050158015615613573d6000803e3d6000fd5b505050506040513d604081101561562957600080fd5b5080516020909101519092509050818511156156765760405162461bcd60e51b815260040180806020018281038252602681526020018061618b6026913960400191505060405180910390fd5b80156156c9576040805162461bcd60e51b815260206004820152601c60248201527f412073796e7468206f7220534e582072617465206973207374616c6500000000604482015290519081900360640190fd5b50600195945050505050565b60008060076156e2615f3a565b6001600160a01b036101009290920a90041663da46098c85876157b0866000600761570b615f3a565b60408051636eb1769f60e11b81526001600160a01b038e811660048301528f8116602483015291516101009490940a909204169163dd62ed3e9160448082019260209290919082900301818680615760615f72565b15801561576c57600080fd5b505a615776615fa3565b505050505015801561578c573d6000803e3d6000fd5b505050506040513d60208110156157a257600080fd5b50519063ffffffff6152c816565b6040518463ffffffff1660e01b815260040180846001600160a01b03166001600160a01b03168152602001836001600160a01b03166001600160a01b03168152602001828152602001935050505060006040518083038160008780615813615f72565b15801561581f57600080fd5b505a615829616055565b505050505050158015615840573d6000803e3d6000fd5b50505050614bda848484615c37565b6001600160a01b031690565b60006004615867615f3a565b604080516001600160a01b038581166020808401919091528351808403820181528385018086527f546f6b656e5374617465557064617465642861646472657373290000000000009052935192839003605a01832063907dff9760e01b8452600160248501819052604485018290526000606486018190526084860181905260a4860181905260c060048701908152875160c488015287516101009a909a0a909804949094169763907dff979791959294938493849392839260e4909201918a0190808383885b8381101561594657818101518382015260200161592e565b50505050905090810190601f1680156159735780820380516001836020036101000a031916815260200191505b5097505050505050505060006040518083038160008780611edc615f72565b6000611cef848484615c37565b600060046159ab615f3a565b906101000a90046001600160a01b03166001600160a01b031663907dff9784848460405160200180848152602001838152602001826001600160a01b03166001600160a01b0316815260200193505050506040516020818303038152906040526002604051808061624b6032913960320190506040518091039020615a2f8961584f565b6000806040518763ffffffff1660e01b815260040180806020018781526020018681526020018581526020018460001b81526020018360001b8152602001828103825288818151815260200191508051906020019080838360005b83811015615aa2578181015183820152602001615a8a565b50505050905090810190601f168015615acf5780820380516001836020036101000a031916815260200191505b5097505050505050505060006040518083038160008780615aee615f72565b158015615afa57600080fd5b505a615b04616055565b505050505050158015615b1b573d6000803e3d6000fd5b5050505050505050565b6000828152600c6020526040812081908190615b3f615f3a565b6001600160a01b036101009290920a90041690508281615bdd5760405162461bcd60e51b81526004018080602001828103825283818151815260200191508051906020019080838360005b83811015615ba2578181015183820152602001615b8a565b50505050905090810190601f168015615bcf5780820380516001836020036101000a031916815260200191505b509250505060405180910390fd5b509392505050565b60006151026d53796e746865746978537461746560901b6040518060400160405280601e81526020017f4d697373696e672053796e746865746978537461746520616464726573730000815250615b25565b60006001600160a01b03831615801590615c8657505a63996d79a5620800008160e01b81526020816004836000335af180615c7157600080fd5b50516001600160a01b03868116911614159150505b8015615cbf575060006004615c99615f3a565b906101000a90046001600160a01b03166001600160a01b0316836001600160a01b031614155b615d10576040805162461bcd60e51b815260206004820152601f60248201527f43616e6e6f74207472616e7366657220746f2074686973206164647265737300604482015290519081900360640190fd5b60006007615d1c615f3a565b6001600160a01b036101009290920a90041663b46310f685615da48560006007615d44615f3a565b906101000a90046001600160a01b03166001600160a01b03166370a082318a6040518263ffffffff1660e01b815260040180826001600160a01b03166001600160a01b031681526020019150506020604051808303818680615760615f72565b6040518363ffffffff1660e01b815260040180836001600160a01b03166001600160a01b031681526020018281526020019250505060006040518083038160008780615dee615f72565b158015615dfa57600080fd5b505a615e04616055565b505050505050158015615e1b573d6000803e3d6000fd5b505050506007600090615e2c615f3a565b6001600160a01b036101009290920a90041663b46310f684615eb48560006007615e54615f3a565b906101000a90046001600160a01b03166001600160a01b03166370a08231896040518263ffffffff1660e01b815260040180826001600160a01b03166001600160a01b0316815260200191505060206040518083038186806113f8615f72565b6040518363ffffffff1660e01b815260040180836001600160a01b03166001600160a01b031681526020018281526020019250505060006040518083038160008780615efe615f72565b158015615f0a57600080fd5b505a615f14616055565b505050505050158015615f2b573d6000803e3d6000fd5b50505050610fc8848484615386565b630412cc4160e31b62080000908152620800048390526320966208906020816024816000335af180615f6b57600080fd5b5051925050565b63c3382d0f60e01b620800009081526208000483905263c3382d0f906020816024816000335af180615f6b57600080fd5b63fbb0f79d60e01b620800009081526208000484905263fbb0f79d9060005b87811015615fdd578681015182820160240152602001615fc2565b50888888602401836000335af180615ff457600080fd5b98505050565b6373509064620800008160e01b81526020816004836000335af180615f6b57600080fd5b630146e59560e51b6208000090815262080004839052620800248490526328dcb2a09060008160448183335af180612ffb57600080fd5b63131b5f2160e21b6208000090815262080004849052634c6d7c849060005b8881101561608f578781015182820160240152602001616074565b50898989602401836000335af1806160a657600080fd5b99505050565b63bdbf8c36620800008160e01b81526020816004836000335af180615f6b57600080fd5b604051806103000160405280601890602082028038833950919291505056fe596f75206d757374206265206e6f6d696e61746564206265666f726520796f752063616e20616363657074206f776e65727368697045786368616e67655265636c61696d28616464726573732c627974657333322c75696e743235362953796e746845786368616e676528616464726573732c627974657333322c75696e743235362c627974657333322c75696e743235362c616464726573732943616e6e6f74207472616e73666572207374616b6564206f7220657363726f77656420534e584f6e6c792074686520636f6e7472616374206f776e6572206d617920706572666f726d207468697320616374696f6e417070726f76616c28616464726573732c616464726573732c75696e74323536294d697373696e672052657761726473446973747269627574696f6e206164647265737345786368616e676552656261746528616464726573732c627974657333322c75696e74323536294163636f756e744c69717569646174656428616464726573732c75696e743235362c75696e743235362c61646472657373295472616e7366657228616464726573732c616464726573732c75696e7432353629a265627a7a7231582053b03cc302e4df130441142d15bfbdf4b99d7855f118bd3c6ad5024b4e33a77464736f6c637828302e352e31362d646576656c6f702e323032302e372e32392b636f6d6d69742e36326536346536370058",
			"opcodes": "PUSH2 0x140 PUSH1 0x40 MSTORE PUSH12 0x53797374656D537461747573 PUSH1 0xA0 SHL PUSH1 0x80 SWAP1 DUP2 MSTORE PUSH9 0x22BC31B430B733B2B9 PUSH1 0xB9 SHL PUSH1 0xA0 MSTORE PUSH6 0x24B9B9BAB2B9 PUSH1 0xD1 SHL PUSH1 0xC0 MSTORE PUSH14 0x537570706C795363686564756C65 PUSH1 0x90 SHL PUSH1 0xE0 MSTORE PUSH32 0x52657761726473446973747269627574696F6E00000000000000000000000000 PUSH2 0x100 MSTORE PUSH14 0x53796E7468657469785374617465 PUSH1 0x90 SHL PUSH2 0x120 MSTORE PUSH3 0x97 SWAP1 PUSH1 0xE SWAP1 PUSH1 0x6 PUSH3 0x65D JUMP JUMPDEST POP CALLVALUE DUP1 ISZERO PUSH3 0xA5 JUMPI PUSH1 0x0 DUP1 REVERT JUMPDEST POP PUSH1 0x40 MLOAD PUSH3 0x6B2B CODESIZE SUB DUP1 PUSH3 0x6B2B DUP4 CODECOPY DUP2 DUP2 ADD PUSH1 0x40 MSTORE PUSH1 0xA0 DUP2 LT ISZERO PUSH3 0xCB JUMPI PUSH1 0x0 DUP1 REVERT JUMPDEST POP DUP1 MLOAD PUSH1 0x20 DUP3 ADD MLOAD PUSH1 0x40 DUP1 DUP5 ADD MLOAD PUSH1 0x60 DUP6 ADD MLOAD PUSH1 0x80 SWAP1 SWAP6 ADD MLOAD DUP3 MLOAD PUSH2 0x300 DUP2 ADD SWAP4 DUP5 SWAP1 MSTORE SWAP5 SWAP6 SWAP4 SWAP5 SWAP2 SWAP4 SWAP3 SWAP1 SWAP2 DUP3 SWAP2 PUSH1 0xE SWAP1 PUSH1 0x18 SWAP1 DUP3 DUP5 JUMPDEST DUP2 PUSH3 0x10E PUSH3 0x6AB JUMP JUMPDEST DUP2 MSTORE PUSH1 0x20 ADD SWAP1 PUSH1 0x1 ADD SWAP1 DUP1 DUP4 GT PUSH3 0x103 JUMPI POP POP POP POP POP DUP7 DUP7 PUSH1 0x40 MLOAD DUP1 PUSH1 0x40 ADD PUSH1 0x40 MSTORE DUP1 PUSH1 0x17 DUP2 MSTORE PUSH1 0x20 ADD PUSH32 0x53796E746865746978204E6574776F726B20546F6B656E000000000000000000 DUP2 MSTORE POP PUSH1 0x40 MLOAD DUP1 PUSH1 0x40 ADD PUSH1 0x40 MSTORE DUP1 PUSH1 0x3 DUP2 MSTORE PUSH1 0x20 ADD PUSH3 0xA69CB PUSH1 0xEB SHL DUP2 MSTORE POP DUP8 PUSH1 0x12 DUP11 DUP7 DUP2 PUSH1 0x0 PUSH1 0x1 PUSH1 0x1 PUSH1 0xA0 SHL SUB AND DUP2 PUSH1 0x1 PUSH1 0x1 PUSH1 0xA0 SHL SUB AND EQ ISZERO PUSH3 0x1E8 JUMPI PUSH1 0x40 DUP1 MLOAD PUSH3 0x461BCD PUSH1 0xE5 SHL DUP2 MSTORE PUSH1 0x20 PUSH1 0x4 DUP3 ADD MSTORE PUSH1 0x19 PUSH1 0x24 DUP3 ADD MSTORE PUSH32 0x4F776E657220616464726573732063616E6E6F74206265203000000000000000 PUSH1 0x44 DUP3 ADD MSTORE SWAP1 MLOAD SWAP1 DUP2 SWAP1 SUB PUSH1 0x64 ADD SWAP1 REVERT JUMPDEST DUP1 PUSH1 0x0 PUSH1 0x1 DUP2 PUSH3 0x1F8 PUSH3 0x6AB JUMP JUMPDEST DUP2 PUSH1 0x1 PUSH1 0x1 PUSH1 0xA0 SHL SUB MUL NOT AND SWAP1 DUP4 PUSH1 0x1 PUSH1 0x1 PUSH1 0xA0 SHL SUB AND MUL OR SWAP1 PUSH3 0x21C PUSH3 0x6E4 JUMP JUMPDEST POP POP PUSH1 0x40 DUP1 MLOAD PUSH1 0x0 DUP2 MSTORE PUSH1 0x1 PUSH1 0x1 PUSH1 0xA0 SHL SUB DUP5 AND PUSH1 0x20 DUP3 ADD MSTORE DUP2 MLOAD PUSH32 0xB532073B38C83145E3E5135377A08BF9AAB55BC0FD7C1179CD4FB995D2A5159C SWAP4 POP SWAP1 DUP2 SWAP1 SUB SWAP1 SWAP2 ADD SWAP1 LOG1 POP PUSH1 0x0 DUP1 DUP1 PUSH3 0x272 PUSH3 0x6AB JUMP JUMPDEST SWAP1 PUSH2 0x100 EXP SWAP1 DIV PUSH1 0x1 PUSH1 0x1 PUSH1 0xA0 SHL SUB AND PUSH1 0x1 PUSH1 0x1 PUSH1 0xA0 SHL SUB AND EQ ISZERO PUSH3 0x2D3 JUMPI PUSH1 0x40 DUP1 MLOAD PUSH3 0x461BCD PUSH1 0xE5 SHL DUP2 MSTORE PUSH1 0x20 PUSH1 0x4 DUP3 ADD MSTORE PUSH1 0x11 PUSH1 0x24 DUP3 ADD MSTORE PUSH17 0x13DDDB995C881B5D5CDD081899481CD95D PUSH1 0x7A SHL PUSH1 0x44 DUP3 ADD MSTORE SWAP1 MLOAD SWAP1 DUP2 SWAP1 SUB PUSH1 0x64 ADD SWAP1 REVERT JUMPDEST PUSH1 0x0 DUP1 PUSH3 0x2E0 PUSH3 0x6AB JUMP JUMPDEST SWAP1 PUSH2 0x100 EXP SWAP1 DIV PUSH1 0x1 PUSH1 0x1 PUSH1 0xA0 SHL SUB AND PUSH1 0x3 PUSH1 0x1 PUSH2 0x100 EXP DUP2 PUSH3 0x303 PUSH3 0x6AB JUMP JUMPDEST DUP2 PUSH1 0x1 PUSH1 0x1 PUSH1 0xA0 SHL SUB MUL NOT AND SWAP1 DUP4 PUSH1 0x1 PUSH1 0x1 PUSH1 0xA0 SHL SUB AND MUL OR SWAP1 PUSH3 0x327 PUSH3 0x6E4 JUMP JUMPDEST POP POP POP PUSH32 0xD5DA63A0B864B315BC04128DEDBC93888C8529EE6CF47CE664DC204339228C53 PUSH1 0x0 DUP1 SWAP1 PUSH3 0x359 PUSH3 0x6AB JUMP JUMPDEST PUSH1 0x40 DUP1 MLOAD PUSH2 0x100 SWAP4 SWAP1 SWAP4 EXP SWAP1 SWAP2 DIV PUSH1 0x1 PUSH1 0x1 PUSH1 0xA0 SHL SUB AND DUP3 MSTORE MLOAD PUSH1 0x20 SWAP2 DUP2 SWAP1 SUB SWAP2 SWAP1 SWAP2 ADD SWAP1 LOG1 PUSH1 0x0 DUP1 DUP1 PUSH3 0x38D PUSH3 0x6AB JUMP JUMPDEST SWAP1 PUSH2 0x100 EXP SWAP1 DIV PUSH1 0x1 PUSH1 0x1 PUSH1 0xA0 SHL SUB AND PUSH1 0x1 PUSH1 0x1 PUSH1 0xA0 SHL SUB AND EQ ISZERO PUSH3 0x3EE JUMPI PUSH1 0x40 DUP1 MLOAD PUSH3 0x461BCD PUSH1 0xE5 SHL DUP2 MSTORE PUSH1 0x20 PUSH1 0x4 DUP3 ADD MSTORE PUSH1 0x11 PUSH1 0x24 DUP3 ADD MSTORE PUSH17 0x13DDDB995C881B5D5CDD081899481CD95D PUSH1 0x7A SHL PUSH1 0x44 DUP3 ADD MSTORE SWAP1 MLOAD SWAP1 DUP2 SWAP1 SUB PUSH1 0x64 ADD SWAP1 REVERT JUMPDEST DUP1 PUSH1 0x4 PUSH1 0x1 DUP2 PUSH3 0x3FE PUSH3 0x6AB JUMP JUMPDEST DUP2 PUSH1 0x1 PUSH1 0x1 PUSH1 0xA0 SHL SUB MUL NOT AND SWAP1 DUP4 PUSH1 0x1 PUSH1 0x1 PUSH1 0xA0 SHL SUB AND MUL OR SWAP1 PUSH3 0x422 PUSH3 0x6E4 JUMP JUMPDEST POP POP PUSH1 0x40 DUP1 MLOAD PUSH1 0x1 PUSH1 0x1 PUSH1 0xA0 SHL SUB DUP5 AND DUP2 MSTORE SWAP1 MLOAD PUSH32 0xFC80377CA9C49CC11AE6982F390A42DB976D5530AF7C43889264B13FBBD7C57E SWAP3 POP SWAP1 DUP2 SWAP1 SUB PUSH1 0x20 ADD SWAP1 LOG1 POP DUP6 PUSH1 0x7 PUSH1 0x1 DUP2 PUSH3 0x473 PUSH3 0x6AB JUMP JUMPDEST DUP2 PUSH1 0x1 PUSH1 0x1 PUSH1 0xA0 SHL SUB MUL NOT AND SWAP1 DUP4 PUSH1 0x1 PUSH1 0x1 PUSH1 0xA0 SHL SUB AND MUL OR SWAP1 PUSH3 0x497 PUSH3 0x6E4 JUMP JUMPDEST POP POP DUP6 MLOAD PUSH3 0x4AF SWAP2 POP PUSH1 0x8 SWAP1 PUSH1 0x20 DUP9 ADD SWAP1 PUSH3 0x721 JUMP JUMPDEST POP DUP4 MLOAD PUSH3 0x4C5 SWAP1 PUSH1 0x9 SWAP1 PUSH1 0x20 DUP8 ADD SWAP1 PUSH3 0x721 JUMP JUMPDEST POP DUP3 DUP1 PUSH1 0xA PUSH3 0x4D4 PUSH3 0x6E4 JUMP JUMPDEST POP POP POP DUP2 PUSH1 0xB PUSH1 0x0 PUSH2 0x100 EXP DUP2 PUSH3 0x4EB PUSH3 0x6AB JUMP JUMPDEST DUP2 PUSH1 0xFF MUL NOT AND SWAP1 DUP4 PUSH1 0xFF AND MUL OR SWAP1 PUSH3 0x503 PUSH3 0x6E4 JUMP JUMPDEST POP POP POP POP POP POP POP POP POP POP PUSH1 0x0 PUSH1 0x1 PUSH1 0x1 PUSH1 0xA0 SHL SUB AND PUSH1 0x0 DUP1 SWAP1 PUSH3 0x526 PUSH3 0x6AB JUMP JUMPDEST SWAP1 PUSH2 0x100 EXP SWAP1 DIV PUSH1 0x1 PUSH1 0x1 PUSH1 0xA0 SHL SUB AND PUSH1 0x1 PUSH1 0x1 PUSH1 0xA0 SHL SUB AND EQ ISZERO PUSH3 0x587 JUMPI PUSH1 0x40 DUP1 MLOAD PUSH3 0x461BCD PUSH1 0xE5 SHL DUP2 MSTORE PUSH1 0x20 PUSH1 0x4 DUP3 ADD MSTORE PUSH1 0x11 PUSH1 0x24 DUP3 ADD MSTORE PUSH17 0x13DDDB995C881B5D5CDD081899481CD95D PUSH1 0x7A SHL PUSH1 0x44 DUP3 ADD MSTORE SWAP1 MLOAD SWAP1 DUP2 SWAP1 SUB PUSH1 0x64 ADD SWAP1 REVERT JUMPDEST PUSH1 0x0 JUMPDEST PUSH1 0x18 DUP2 LT ISZERO PUSH3 0x617 JUMPI PUSH1 0x0 DUP3 DUP3 PUSH1 0x18 DUP2 LT PUSH3 0x5A3 JUMPI INVALID JUMPDEST PUSH1 0x20 MUL ADD MLOAD EQ PUSH3 0x608 JUMPI PUSH1 0xD DUP3 DUP3 PUSH1 0x18 DUP2 LT PUSH3 0x5BD JUMPI INVALID JUMPDEST PUSH1 0x20 MUL ADD MLOAD SWAP1 DUP1 PUSH1 0x1 DUP2 PUSH3 0x5D1 PUSH3 0x6AB JUMP JUMPDEST ADD DUP1 DUP3 PUSH3 0x5DE PUSH3 0x6E4 JUMP JUMPDEST POP POP PUSH1 0x0 SWAP3 DUP4 MSTORE PUSH1 0x20 SWAP1 SWAP3 KECCAK256 SWAP2 SWAP3 SWAP2 DUP4 ADD PUSH1 0x0 NOT ADD SWAP1 POP PUSH3 0x5FF PUSH3 0x6E4 JUMP JUMPDEST POP POP POP PUSH3 0x60E JUMP JUMPDEST PUSH3 0x617 JUMP JUMPDEST PUSH1 0x1 ADD PUSH3 0x58A JUMP JUMPDEST POP DUP2 PUSH1 0xB PUSH2 0x100 DUP2 PUSH3 0x629 PUSH3 0x6AB JUMP JUMPDEST DUP2 PUSH1 0x1 PUSH1 0x1 PUSH1 0xA0 SHL SUB MUL NOT AND SWAP1 DUP4 PUSH1 0x1 PUSH1 0x1 PUSH1 0xA0 SHL SUB AND MUL OR SWAP1 PUSH3 0x64D PUSH3 0x6E4 JUMP JUMPDEST POP POP POP POP POP POP POP POP POP POP PUSH3 0x823 JUMP JUMPDEST DUP3 PUSH1 0x18 DUP2 ADD SWAP3 DUP3 ISZERO PUSH3 0x699 JUMPI SWAP2 PUSH1 0x20 MUL DUP3 ADD JUMPDEST DUP3 DUP2 GT ISZERO PUSH3 0x699 JUMPI DUP3 MLOAD DUP3 PUSH3 0x687 PUSH3 0x6E4 JUMP JUMPDEST POP POP SWAP2 PUSH1 0x20 ADD SWAP2 SWAP1 PUSH1 0x1 ADD SWAP1 PUSH3 0x671 JUMP JUMPDEST POP PUSH3 0x6A7 SWAP3 SWAP2 POP PUSH3 0x7CC JUMP JUMPDEST POP SWAP1 JUMP JUMPDEST PUSH4 0x412CC41 PUSH1 0xE3 SHL PUSH3 0x80000 SWAP1 DUP2 MSTORE PUSH3 0x80004 DUP4 SWAP1 MSTORE PUSH4 0x20966208 SWAP1 PUSH1 0x20 DUP2 PUSH1 0x24 DUP2 PUSH1 0x0 CALLER GAS CALL DUP1 PUSH3 0x6DD JUMPI PUSH1 0x0 DUP1 REVERT JUMPDEST POP MLOAD SWAP3 POP POP JUMP JUMPDEST PUSH4 0x146E595 PUSH1 0xE5 SHL PUSH3 0x80000 SWAP1 DUP2 MSTORE PUSH3 0x80004 DUP4 SWAP1 MSTORE PUSH3 0x80024 DUP5 SWAP1 MSTORE PUSH4 0x28DCB2A0 SWAP1 PUSH1 0x0 DUP2 PUSH1 0x44 DUP2 DUP4 CALLER GAS CALL DUP1 PUSH3 0x71C JUMPI PUSH1 0x0 DUP1 REVERT JUMPDEST POP POP POP JUMP JUMPDEST DUP3 DUP1 PUSH3 0x72D PUSH3 0x6AB JUMP JUMPDEST PUSH1 0x1 DUP2 PUSH1 0x1 AND ISZERO PUSH2 0x100 MUL SUB AND PUSH1 0x2 SWAP1 DIV SWAP1 PUSH1 0x0 MSTORE PUSH1 0x20 PUSH1 0x0 KECCAK256 SWAP1 PUSH1 0x1F ADD PUSH1 0x20 SWAP1 DIV DUP2 ADD SWAP3 DUP3 PUSH1 0x1F LT PUSH3 0x778 JUMPI DUP1 MLOAD PUSH1 0xFF NOT AND DUP4 DUP1 ADD OR DUP6 PUSH3 0x770 PUSH3 0x6E4 JUMP JUMPDEST POP POP PUSH3 0x7BE JUMP JUMPDEST DUP3 DUP1 ADD PUSH1 0x1 ADD DUP6 PUSH3 0x789 PUSH3 0x6E4 JUMP JUMPDEST POP POP DUP3 ISZERO PUSH3 0x7BE JUMPI SWAP2 DUP3 ADD JUMPDEST DUP3 DUP2 GT ISZERO PUSH3 0x7BE JUMPI DUP3 MLOAD DUP3 PUSH3 0x7AC PUSH3 0x6E4 JUMP JUMPDEST POP POP SWAP2 PUSH1 0x20 ADD SWAP2 SWAP1 PUSH1 0x1 ADD SWAP1 PUSH3 0x796 JUMP JUMPDEST POP PUSH3 0x6A7 SWAP3 SWAP2 POP PUSH3 0x7F9 JUMP JUMPDEST PUSH3 0x7F6 SWAP2 SWAP1 JUMPDEST DUP1 DUP3 GT ISZERO PUSH3 0x6A7 JUMPI PUSH1 0x0 DUP1 DUP3 PUSH3 0x7EA PUSH3 0x6E4 JUMP JUMPDEST POP POP POP PUSH1 0x1 ADD PUSH3 0x7D3 JUMP JUMPDEST SWAP1 JUMP JUMPDEST PUSH3 0x7F6 SWAP2 SWAP1 JUMPDEST DUP1 DUP3 GT ISZERO PUSH3 0x6A7 JUMPI PUSH1 0x0 DUP1 DUP3 PUSH3 0x817 PUSH3 0x6E4 JUMP JUMPDEST POP POP POP PUSH1 0x1 ADD PUSH3 0x800 JUMP JUMPDEST PUSH2 0x62F8 DUP1 PUSH3 0x833 PUSH1 0x0 CODECOPY PUSH1 0x0 RETURN INVALID PUSH1 0x80 PUSH1 0x40 MSTORE CALLVALUE DUP1 ISZERO PUSH2 0x10 JUMPI PUSH1 0x0 DUP1 REVERT JUMPDEST POP PUSH1 0x4 CALLDATASIZE LT PUSH2 0x412 JUMPI PUSH1 0x0 CALLDATALOAD PUSH1 0xE0 SHR DUP1 PUSH4 0x8DA5CB5B GT PUSH2 0x220 JUMPI DUP1 PUSH4 0xBC67F832 GT PUSH2 0x130 JUMPI DUP1 PUSH4 0xDBF63340 GT PUSH2 0xB8 JUMPI DUP1 PUSH4 0xE8E09B8B GT PUSH2 0x87 JUMPI DUP1 PUSH4 0xE8E09B8B EQ PUSH2 0xC1A JUMPI DUP1 PUSH4 0xE90DD9E2 EQ PUSH2 0xC46 JUMPI DUP1 PUSH4 0xEC556889 EQ PUSH2 0xC4E JUMPI DUP1 PUSH4 0xEE52A2F3 EQ PUSH2 0xC56 JUMPI DUP1 PUSH4 0xF354CAD1 EQ PUSH2 0xC7F JUMPI PUSH2 0x412 JUMP JUMPDEST DUP1 PUSH4 0xDBF63340 EQ PUSH2 0xBB0 JUMPI DUP1 PUSH4 0xDD62ED3E EQ PUSH2 0xBB8 JUMPI DUP1 PUSH4 0xE3235C91 EQ PUSH2 0xBE6 JUMPI DUP1 PUSH4 0xE6203ED1 EQ PUSH2 0xBEE JUMPI PUSH2 0x412 JUMP JUMPDEST DUP1 PUSH4 0xC6C9D828 GT PUSH2 0xFF JUMPI DUP1 PUSH4 0xC6C9D828 EQ PUSH2 0xB0A JUMPI DUP1 PUSH4 0xC836FA0A EQ PUSH2 0xB27 JUMPI DUP1 PUSH4 0xD37C4D8B EQ PUSH2 0xB5F JUMPI DUP1 PUSH4 0xD60888E4 EQ PUSH2 0xB8B JUMPI DUP1 PUSH4 0xD67BDD25 EQ PUSH2 0xBA8 JUMPI PUSH2 0x412 JUMP JUMPDEST DUP1 PUSH4 0xBC67F832 EQ PUSH2 0xAA8 JUMPI DUP1 PUSH4 0xBD32AA44 EQ PUSH2 0xACE JUMPI DUP1 PUSH4 0xC2BF3880 EQ PUSH2 0xAD6 JUMPI DUP1 PUSH4 0xC58AAAE6 EQ PUSH2 0xB02 JUMPI PUSH2 0x412 JUMP JUMPDEST DUP1 PUSH4 0x9F769807 GT PUSH2 0x1B3 JUMPI DUP1 PUSH4 0xA9059CBB GT PUSH2 0x182 JUMPI DUP1 PUSH4 0xA9059CBB EQ PUSH2 0x9F9 JUMPI DUP1 PUSH4 0xAB49848C EQ PUSH2 0xA25 JUMPI DUP1 PUSH4 0xACE88AFD EQ PUSH2 0xA66 JUMPI DUP1 PUSH4 0xAF086C7E EQ PUSH2 0xA98 JUMPI DUP1 PUSH4 0xB8225DEC EQ PUSH2 0xAA0 JUMPI PUSH2 0x412 JUMP JUMPDEST DUP1 PUSH4 0x9F769807 EQ PUSH2 0x97F JUMPI DUP1 PUSH4 0xA311C7C2 EQ PUSH2 0x9A5 JUMPI DUP1 PUSH4 0xA461FC82 EQ PUSH2 0x9CB JUMPI DUP1 PUSH4 0xA5FDC5DE EQ PUSH2 0x9D3 JUMPI PUSH2 0x412 JUMP JUMPDEST DUP1 PUSH4 0x9741FB22 GT PUSH2 0x1EF JUMPI DUP1 PUSH4 0x9741FB22 EQ PUSH2 0x94A JUMPI DUP1 PUSH4 0x987757DD EQ PUSH2 0x952 JUMPI DUP1 PUSH4 0x9CB8A26A EQ PUSH2 0x96F JUMPI DUP1 PUSH4 0x9CBDAEB6 EQ PUSH2 0x977 JUMPI PUSH2 0x412 JUMP JUMPDEST DUP1 PUSH4 0x8DA5CB5B EQ PUSH2 0x90C JUMPI DUP1 PUSH4 0x9324CAC7 EQ PUSH2 0x914 JUMPI DUP1 PUSH4 0x95D89B41 EQ PUSH2 0x91C JUMPI DUP1 PUSH4 0x97107D6D EQ PUSH2 0x924 JUMPI PUSH2 0x412 JUMP JUMPDEST DUP1 PUSH4 0x2C955FA7 GT PUSH2 0x326 JUMPI DUP1 PUSH4 0x6AC0BF9C GT PUSH2 0x2AE JUMPI DUP1 PUSH4 0x72CB051F GT PUSH2 0x27D JUMPI DUP1 PUSH4 0x72CB051F EQ PUSH2 0x855 JUMPI DUP1 PUSH4 0x79BA5097 EQ PUSH2 0x8AD JUMPI DUP1 PUSH4 0x835E119C EQ PUSH2 0x8B5 JUMPI DUP1 PUSH4 0x83D625D4 EQ PUSH2 0x8D2 JUMPI DUP1 PUSH4 0x8A290014 EQ PUSH2 0x8EF JUMPI PUSH2 0x412 JUMP JUMPDEST DUP1 PUSH4 0x6AC0BF9C EQ PUSH2 0x791 JUMPI DUP1 PUSH4 0x6C00F310 EQ PUSH2 0x7B7 JUMPI DUP1 PUSH4 0x6F01A986 EQ PUSH2 0x7FD JUMPI DUP1 PUSH4 0x70A08231 EQ PUSH2 0x82F JUMPI PUSH2 0x412 JUMP JUMPDEST DUP1 PUSH4 0x32608039 GT PUSH2 0x2F5 JUMPI DUP1 PUSH4 0x32608039 EQ PUSH2 0x718 JUMPI DUP1 PUSH4 0x3278C960 EQ PUSH2 0x735 JUMPI DUP1 PUSH4 0x3BE99E6F EQ PUSH2 0x73D JUMPI DUP1 PUSH4 0x53A47BB7 EQ PUSH2 0x763 JUMPI DUP1 PUSH4 0x631E1444 EQ PUSH2 0x76B JUMPI PUSH2 0x412 JUMP JUMPDEST DUP1 PUSH4 0x2C955FA7 EQ PUSH2 0x6A6 JUMPI DUP1 PUSH4 0x2E0F2625 EQ PUSH2 0x6CC JUMPI DUP1 PUSH4 0x313CE567 EQ PUSH2 0x6EA JUMPI DUP1 PUSH4 0x320223DB EQ PUSH2 0x6F2 JUMPI PUSH2 0x412 JUMP JUMPDEST DUP1 PUSH4 0x16B2213F GT PUSH2 0x3A9 JUMPI DUP1 PUSH4 0x1FCE304D GT PUSH2 0x378 JUMPI DUP1 PUSH4 0x1FCE304D EQ PUSH2 0x608 JUMPI DUP1 PUSH4 0x20714F88 EQ PUSH2 0x625 JUMPI DUP1 PUSH4 0x23B872DD EQ PUSH2 0x64B JUMPI DUP1 PUSH4 0x295DA87D EQ PUSH2 0x681 JUMPI DUP1 PUSH4 0x2A905318 EQ PUSH2 0x69E JUMPI PUSH2 0x412 JUMP JUMPDEST DUP1 PUSH4 0x16B2213F EQ PUSH2 0x5CA JUMPI DUP1 PUSH4 0x17C70DE4 EQ PUSH2 0x5F0 JUMPI DUP1 PUSH4 0x18160DDD EQ PUSH2 0x5F8 JUMPI DUP1 PUSH4 0x18821400 EQ PUSH2 0x600 JUMPI PUSH2 0x412 JUMP JUMPDEST DUP1 PUSH4 0x1137AEDF GT PUSH2 0x3E5 JUMPI DUP1 PUSH4 0x1137AEDF EQ PUSH2 0x530 JUMPI DUP1 PUSH4 0x1249C58B EQ PUSH2 0x574 JUMPI DUP1 PUSH4 0x131B0AE7 EQ PUSH2 0x57C JUMPI DUP1 PUSH4 0x1627540C EQ PUSH2 0x5A4 JUMPI PUSH2 0x412 JUMP JUMPDEST DUP1 PUSH4 0x4F3BCEC EQ PUSH2 0x417 JUMPI DUP1 PUSH4 0x5B3C1C9 EQ PUSH2 0x43B JUMPI DUP1 PUSH4 0x6FDDE03 EQ PUSH2 0x473 JUMPI DUP1 PUSH4 0x95EA7B3 EQ PUSH2 0x4F0 JUMPI JUMPDEST PUSH1 0x0 DUP1 REVERT JUMPDEST PUSH2 0x41F PUSH2 0xC87 JUMP JUMPDEST PUSH1 0x40 DUP1 MLOAD PUSH1 0x1 PUSH1 0x1 PUSH1 0xA0 SHL SUB SWAP1 SWAP3 AND DUP3 MSTORE MLOAD SWAP1 DUP2 SWAP1 SUB PUSH1 0x20 ADD SWAP1 RETURN JUMPDEST PUSH2 0x461 PUSH1 0x4 DUP1 CALLDATASIZE SUB PUSH1 0x20 DUP2 LT ISZERO PUSH2 0x451 JUMPI PUSH1 0x0 DUP1 REVERT JUMPDEST POP CALLDATALOAD PUSH1 0x1 PUSH1 0x1 PUSH1 0xA0 SHL SUB AND PUSH2 0xCA6 JUMP JUMPDEST PUSH1 0x40 DUP1 MLOAD SWAP2 DUP3 MSTORE MLOAD SWAP1 DUP2 SWAP1 SUB PUSH1 0x20 ADD SWAP1 RETURN JUMPDEST PUSH2 0x47B PUSH2 0xD4C JUMP JUMPDEST PUSH1 0x40 DUP1 MLOAD PUSH1 0x20 DUP1 DUP3 MSTORE DUP4 MLOAD DUP2 DUP4 ADD MSTORE DUP4 MLOAD SWAP2 SWAP3 DUP4 SWAP3 SWAP1 DUP4 ADD SWAP2 DUP6 ADD SWAP1 DUP1 DUP4 DUP4 PUSH1 0x0 JUMPDEST DUP4 DUP2 LT ISZERO PUSH2 0x4B5 JUMPI DUP2 DUP2 ADD MLOAD DUP4 DUP3 ADD MSTORE PUSH1 0x20 ADD PUSH2 0x49D JUMP JUMPDEST POP POP POP POP SWAP1 POP SWAP1 DUP2 ADD SWAP1 PUSH1 0x1F AND DUP1 ISZERO PUSH2 0x4E2 JUMPI DUP1 DUP3 SUB DUP1 MLOAD PUSH1 0x1 DUP4 PUSH1 0x20 SUB PUSH2 0x100 EXP SUB NOT AND DUP2 MSTORE PUSH1 0x20 ADD SWAP2 POP JUMPDEST POP SWAP3 POP POP POP PUSH1 0x40 MLOAD DUP1 SWAP2 SUB SWAP1 RETURN JUMPDEST PUSH2 0x51C PUSH1 0x4 DUP1 CALLDATASIZE SUB PUSH1 0x40 DUP2 LT ISZERO PUSH2 0x506 JUMPI PUSH1 0x0 DUP1 REVERT JUMPDEST POP PUSH1 0x1 PUSH1 0x1 PUSH1 0xA0 SHL SUB DUP2 CALLDATALOAD AND SWAP1 PUSH1 0x20 ADD CALLDATALOAD PUSH2 0xE06 JUMP JUMPDEST PUSH1 0x40 DUP1 MLOAD SWAP2 ISZERO ISZERO DUP3 MSTORE MLOAD SWAP1 DUP2 SWAP1 SUB PUSH1 0x20 ADD SWAP1 RETURN JUMPDEST PUSH2 0x556 PUSH1 0x4 DUP1 CALLDATASIZE SUB PUSH1 0x20 DUP2 LT ISZERO PUSH2 0x546 JUMPI PUSH1 0x0 DUP1 REVERT JUMPDEST POP CALLDATALOAD PUSH1 0x1 PUSH1 0x1 PUSH1 0xA0 SHL SUB AND PUSH2 0xFD2 JUMP JUMPDEST PUSH1 0x40 DUP1 MLOAD SWAP4 DUP5 MSTORE PUSH1 0x20 DUP5 ADD SWAP3 SWAP1 SWAP3 MSTORE DUP3 DUP3 ADD MSTORE MLOAD SWAP1 DUP2 SWAP1 SUB PUSH1 0x60 ADD SWAP1 RETURN JUMPDEST PUSH2 0x51C PUSH2 0x108B JUMP JUMPDEST PUSH2 0x5A2 PUSH1 0x4 DUP1 CALLDATASIZE SUB PUSH1 0x20 DUP2 LT ISZERO PUSH2 0x592 JUMPI PUSH1 0x0 DUP1 REVERT JUMPDEST POP CALLDATALOAD PUSH1 0x1 PUSH1 0x1 PUSH1 0xA0 SHL SUB AND PUSH2 0x1715 JUMP JUMPDEST STOP JUMPDEST PUSH2 0x5A2 PUSH1 0x4 DUP1 CALLDATASIZE SUB PUSH1 0x20 DUP2 LT ISZERO PUSH2 0x5BA JUMPI PUSH1 0x0 DUP1 REVERT JUMPDEST POP CALLDATALOAD PUSH1 0x1 PUSH1 0x1 PUSH1 0xA0 SHL SUB AND PUSH2 0x17BD JUMP JUMPDEST PUSH2 0x461 PUSH1 0x4 DUP1 CALLDATASIZE SUB PUSH1 0x20 DUP2 LT ISZERO PUSH2 0x5E0 JUMPI PUSH1 0x0 DUP1 REVERT JUMPDEST POP CALLDATALOAD PUSH1 0x1 PUSH1 0x1 PUSH1 0xA0 SHL SUB AND PUSH2 0x18A1 JUMP JUMPDEST PUSH2 0x461 PUSH2 0x18FB JUMP JUMPDEST PUSH2 0x461 PUSH2 0x1908 JUMP JUMPDEST PUSH2 0x47B PUSH2 0x1912 JUMP JUMPDEST PUSH2 0x51C PUSH1 0x4 DUP1 CALLDATASIZE SUB PUSH1 0x20 DUP2 LT ISZERO PUSH2 0x61E JUMPI PUSH1 0x0 DUP1 REVERT JUMPDEST POP CALLDATALOAD PUSH2 0x194B JUMP JUMPDEST PUSH2 0x5A2 PUSH1 0x4 DUP1 CALLDATASIZE SUB PUSH1 0x20 DUP2 LT ISZERO PUSH2 0x63B JUMPI PUSH1 0x0 DUP1 REVERT JUMPDEST POP CALLDATALOAD PUSH1 0x1 PUSH1 0x1 PUSH1 0xA0 SHL SUB AND PUSH2 0x1A14 JUMP JUMPDEST PUSH2 0x51C PUSH1 0x4 DUP1 CALLDATASIZE SUB PUSH1 0x60 DUP2 LT ISZERO PUSH2 0x661 JUMPI PUSH1 0x0 DUP1 REVERT JUMPDEST POP PUSH1 0x1 PUSH1 0x1 PUSH1 0xA0 SHL SUB DUP2 CALLDATALOAD DUP2 AND SWAP2 PUSH1 0x20 DUP2 ADD CALLDATALOAD SWAP1 SWAP2 AND SWAP1 PUSH1 0x40 ADD CALLDATALOAD PUSH2 0x1B55 JUMP JUMPDEST PUSH2 0x5A2 PUSH1 0x4 DUP1 CALLDATASIZE SUB PUSH1 0x20 DUP2 LT ISZERO PUSH2 0x697 JUMPI PUSH1 0x0 DUP1 REVERT JUMPDEST POP CALLDATALOAD PUSH2 0x1CF7 JUMP JUMPDEST PUSH2 0x47B PUSH2 0x1F11 JUMP JUMPDEST PUSH2 0x5A2 PUSH1 0x4 DUP1 CALLDATASIZE SUB PUSH1 0x20 DUP2 LT ISZERO PUSH2 0x6BC JUMPI PUSH1 0x0 DUP1 REVERT JUMPDEST POP CALLDATALOAD PUSH1 0x1 PUSH1 0x1 PUSH1 0xA0 SHL SUB AND PUSH2 0x1F30 JUMP JUMPDEST PUSH2 0x6D4 PUSH2 0x2127 JUMP JUMPDEST PUSH1 0x40 DUP1 MLOAD PUSH1 0xFF SWAP1 SWAP3 AND DUP3 MSTORE MLOAD SWAP1 DUP2 SWAP1 SUB PUSH1 0x20 ADD SWAP1 RETURN JUMPDEST PUSH2 0x6D4 PUSH2 0x212C JUMP JUMPDEST PUSH2 0x5A2 PUSH1 0x4 DUP1 CALLDATASIZE SUB PUSH1 0x20 DUP2 LT ISZERO PUSH2 0x708 JUMPI PUSH1 0x0 DUP1 REVERT JUMPDEST POP CALLDATALOAD PUSH1 0x1 PUSH1 0x1 PUSH1 0xA0 SHL SUB AND PUSH2 0x2145 JUMP JUMPDEST PUSH2 0x41F PUSH1 0x4 DUP1 CALLDATASIZE SUB PUSH1 0x20 DUP2 LT ISZERO PUSH2 0x72E JUMPI PUSH1 0x0 DUP1 REVERT JUMPDEST POP CALLDATALOAD PUSH2 0x22D0 JUMP JUMPDEST PUSH2 0x5A2 PUSH2 0x2318 JUMP JUMPDEST PUSH2 0x5A2 PUSH1 0x4 DUP1 CALLDATASIZE SUB PUSH1 0x20 DUP2 LT ISZERO PUSH2 0x753 JUMPI PUSH1 0x0 DUP1 REVERT JUMPDEST POP CALLDATALOAD PUSH1 0x1 PUSH1 0x1 PUSH1 0xA0 SHL SUB AND PUSH2 0x23F0 JUMP JUMPDEST PUSH2 0x41F PUSH2 0x25FE JUMP JUMPDEST PUSH2 0x51C PUSH1 0x4 DUP1 CALLDATASIZE SUB PUSH1 0x20 DUP2 LT ISZERO PUSH2 0x781 JUMPI PUSH1 0x0 DUP1 REVERT JUMPDEST POP CALLDATALOAD PUSH1 0x1 PUSH1 0x1 PUSH1 0xA0 SHL SUB AND PUSH2 0x260A JUMP JUMPDEST PUSH2 0x461 PUSH1 0x4 DUP1 CALLDATASIZE SUB PUSH1 0x20 DUP2 LT ISZERO PUSH2 0x7A7 JUMPI PUSH1 0x0 DUP1 REVERT JUMPDEST POP CALLDATALOAD PUSH1 0x1 PUSH1 0x1 PUSH1 0xA0 SHL SUB AND PUSH2 0x27B7 JUMP JUMPDEST PUSH2 0x5A2 PUSH1 0x4 DUP1 CALLDATASIZE SUB PUSH1 0xC0 DUP2 LT ISZERO PUSH2 0x7CD JUMPI PUSH1 0x0 DUP1 REVERT JUMPDEST POP PUSH1 0x1 PUSH1 0x1 PUSH1 0xA0 SHL SUB DUP2 CALLDATALOAD DUP2 AND SWAP2 PUSH1 0x20 DUP2 ADD CALLDATALOAD SWAP2 PUSH1 0x40 DUP3 ADD CALLDATALOAD SWAP2 PUSH1 0x60 DUP2 ADD CALLDATALOAD SWAP2 PUSH1 0x80 DUP3 ADD CALLDATALOAD SWAP2 PUSH1 0xA0 ADD CALLDATALOAD AND PUSH2 0x290E JUMP JUMPDEST PUSH2 0x5A2 PUSH1 0x4 DUP1 CALLDATASIZE SUB PUSH1 0x60 DUP2 LT ISZERO PUSH2 0x813 JUMPI PUSH1 0x0 DUP1 REVERT JUMPDEST POP PUSH1 0x1 PUSH1 0x1 PUSH1 0xA0 SHL SUB DUP2 CALLDATALOAD AND SWAP1 PUSH1 0x20 DUP2 ADD CALLDATALOAD SWAP1 PUSH1 0x40 ADD CALLDATALOAD PUSH2 0x2B1B JUMP JUMPDEST PUSH2 0x461 PUSH1 0x4 DUP1 CALLDATASIZE SUB PUSH1 0x20 DUP2 LT ISZERO PUSH2 0x845 JUMPI PUSH1 0x0 DUP1 REVERT JUMPDEST POP CALLDATALOAD PUSH1 0x1 PUSH1 0x1 PUSH1 0xA0 SHL SUB AND PUSH2 0x2CFB JUMP JUMPDEST PUSH2 0x85D PUSH2 0x2D68 JUMP JUMPDEST PUSH1 0x40 DUP1 MLOAD PUSH1 0x20 DUP1 DUP3 MSTORE DUP4 MLOAD DUP2 DUP4 ADD MSTORE DUP4 MLOAD SWAP2 SWAP3 DUP4 SWAP3 SWAP1 DUP4 ADD SWAP2 DUP6 DUP2 ADD SWAP2 MUL DUP1 DUP4 DUP4 PUSH1 0x0 JUMPDEST DUP4 DUP2 LT ISZERO PUSH2 0x899 JUMPI DUP2 DUP2 ADD MLOAD DUP4 DUP3 ADD MSTORE PUSH1 0x20 ADD PUSH2 0x881 JUMP JUMPDEST POP POP POP POP SWAP1 POP ADD SWAP3 POP POP POP PUSH1 0x40 MLOAD DUP1 SWAP2 SUB SWAP1 RETURN JUMPDEST PUSH2 0x5A2 PUSH2 0x2E8B JUMP JUMPDEST PUSH2 0x41F PUSH1 0x4 DUP1 CALLDATASIZE SUB PUSH1 0x20 DUP2 LT ISZERO PUSH2 0x8CB JUMPI PUSH1 0x0 DUP1 REVERT JUMPDEST POP CALLDATALOAD PUSH2 0x3000 JUMP JUMPDEST PUSH2 0x461 PUSH1 0x4 DUP1 CALLDATASIZE SUB PUSH1 0x20 DUP2 LT ISZERO PUSH2 0x8E8 JUMPI PUSH1 0x0 DUP1 REVERT JUMPDEST POP CALLDATALOAD PUSH2 0x3048 JUMP JUMPDEST PUSH2 0x5A2 PUSH1 0x4 DUP1 CALLDATASIZE SUB PUSH1 0x20 DUP2 LT ISZERO PUSH2 0x905 JUMPI PUSH1 0x0 DUP1 REVERT JUMPDEST POP CALLDATALOAD PUSH2 0x309D JUMP JUMPDEST PUSH2 0x41F PUSH2 0x3227 JUMP JUMPDEST PUSH2 0x461 PUSH2 0x3232 JUMP JUMPDEST PUSH2 0x47B PUSH2 0x323D JUMP JUMPDEST PUSH2 0x5A2 PUSH1 0x4 DUP1 CALLDATASIZE SUB PUSH1 0x20 DUP2 LT ISZERO PUSH2 0x93A JUMPI PUSH1 0x0 DUP1 REVERT JUMPDEST POP CALLDATALOAD PUSH1 0x1 PUSH1 0x1 PUSH1 0xA0 SHL SUB AND PUSH2 0x32E0 JUMP JUMPDEST PUSH2 0x5A2 PUSH2 0x33C5 JUMP JUMPDEST PUSH2 0x556 PUSH1 0x4 DUP1 CALLDATASIZE SUB PUSH1 0x20 DUP2 LT ISZERO PUSH2 0x968 JUMPI PUSH1 0x0 DUP1 REVERT JUMPDEST POP CALLDATALOAD PUSH2 0x35CF JUMP JUMPDEST PUSH2 0x5A2 PUSH2 0x3778 JUMP JUMPDEST PUSH2 0x41F PUSH2 0x3910 JUMP JUMPDEST PUSH2 0x5A2 PUSH1 0x4 DUP1 CALLDATASIZE SUB PUSH1 0x20 DUP2 LT ISZERO PUSH2 0x995 JUMPI PUSH1 0x0 DUP1 REVERT JUMPDEST POP CALLDATALOAD PUSH1 0x1 PUSH1 0x1 PUSH1 0xA0 SHL SUB AND PUSH2 0x391C JUMP JUMPDEST PUSH2 0x461 PUSH1 0x4 DUP1 CALLDATASIZE SUB PUSH1 0x20 DUP2 LT ISZERO PUSH2 0x9BB JUMPI PUSH1 0x0 DUP1 REVERT JUMPDEST POP CALLDATALOAD PUSH1 0x1 PUSH1 0x1 PUSH1 0xA0 SHL SUB AND PUSH2 0x3ADE JUMP JUMPDEST PUSH2 0x461 PUSH2 0x3B38 JUMP JUMPDEST PUSH2 0x461 PUSH1 0x4 DUP1 CALLDATASIZE SUB PUSH1 0x20 DUP2 LT ISZERO PUSH2 0x9E9 JUMPI PUSH1 0x0 DUP1 REVERT JUMPDEST POP CALLDATALOAD PUSH1 0x1 PUSH1 0x1 PUSH1 0xA0 SHL SUB AND PUSH2 0x3B3F JUMP JUMPDEST PUSH2 0x51C PUSH1 0x4 DUP1 CALLDATASIZE SUB PUSH1 0x40 DUP2 LT ISZERO PUSH2 0xA0F JUMPI PUSH1 0x0 DUP1 REVERT JUMPDEST POP PUSH1 0x1 PUSH1 0x1 PUSH1 0xA0 SHL SUB DUP2 CALLDATALOAD AND SWAP1 PUSH1 0x20 ADD CALLDATALOAD PUSH2 0x3B99 JUMP JUMPDEST PUSH2 0xA2D PUSH2 0x3D4E JUMP JUMPDEST PUSH1 0x40 MLOAD DUP1 DUP3 PUSH2 0x300 DUP1 DUP4 DUP4 PUSH1 0x0 JUMPDEST DUP4 DUP2 LT ISZERO PUSH2 0xA53 JUMPI DUP2 DUP2 ADD MLOAD DUP4 DUP3 ADD MSTORE PUSH1 0x20 ADD PUSH2 0xA3B JUMP JUMPDEST POP POP POP POP SWAP1 POP ADD SWAP2 POP POP PUSH1 0x40 MLOAD DUP1 SWAP2 SUB SWAP1 RETURN JUMPDEST PUSH2 0x5A2 PUSH1 0x4 DUP1 CALLDATASIZE SUB PUSH1 0x60 DUP2 LT ISZERO PUSH2 0xA7C JUMPI PUSH1 0x0 DUP1 REVERT JUMPDEST POP PUSH1 0x1 PUSH1 0x1 PUSH1 0xA0 SHL SUB DUP2 CALLDATALOAD AND SWAP1 PUSH1 0x20 DUP2 ADD CALLDATALOAD SWAP1 PUSH1 0x40 ADD CALLDATALOAD PUSH2 0x3DB0 JUMP JUMPDEST PUSH2 0x5A2 PUSH2 0x3E9B JUMP JUMPDEST PUSH2 0x51C PUSH2 0x4025 JUMP JUMPDEST PUSH2 0x5A2 PUSH1 0x4 DUP1 CALLDATASIZE SUB PUSH1 0x20 DUP2 LT ISZERO PUSH2 0xABE JUMPI PUSH1 0x0 DUP1 REVERT JUMPDEST POP CALLDATALOAD PUSH1 0x1 PUSH1 0x1 PUSH1 0xA0 SHL SUB AND PUSH2 0x4031 JUMP JUMPDEST PUSH2 0x5A2 PUSH2 0x4107 JUMP JUMPDEST PUSH2 0x5A2 PUSH1 0x4 DUP1 CALLDATASIZE SUB PUSH1 0x40 DUP2 LT ISZERO PUSH2 0xAEC JUMPI PUSH1 0x0 DUP1 REVERT JUMPDEST POP PUSH1 0x1 PUSH1 0x1 PUSH1 0xA0 SHL SUB DUP2 CALLDATALOAD AND SWAP1 PUSH1 0x20 ADD CALLDATALOAD PUSH2 0x41F4 JUMP JUMPDEST PUSH2 0x41F PUSH2 0x4428 JUMP JUMPDEST PUSH2 0x461 PUSH1 0x4 DUP1 CALLDATASIZE SUB PUSH1 0x20 DUP2 LT ISZERO PUSH2 0xB20 JUMPI PUSH1 0x0 DUP1 REVERT JUMPDEST POP CALLDATALOAD PUSH2 0x4434 JUMP JUMPDEST PUSH2 0x461 PUSH1 0x4 DUP1 CALLDATASIZE SUB PUSH1 0x80 DUP2 LT ISZERO PUSH2 0xB3D JUMPI PUSH1 0x0 DUP1 REVERT JUMPDEST POP PUSH1 0x1 PUSH1 0x1 PUSH1 0xA0 SHL SUB DUP2 CALLDATALOAD AND SWAP1 PUSH1 0x20 DUP2 ADD CALLDATALOAD SWAP1 PUSH1 0x40 DUP2 ADD CALLDATALOAD SWAP1 PUSH1 0x60 ADD CALLDATALOAD PUSH2 0x445D JUMP JUMPDEST PUSH2 0x461 PUSH1 0x4 DUP1 CALLDATASIZE SUB PUSH1 0x40 DUP2 LT ISZERO PUSH2 0xB75 JUMPI PUSH1 0x0 DUP1 REVERT JUMPDEST POP PUSH1 0x1 PUSH1 0x1 PUSH1 0xA0 SHL SUB DUP2 CALLDATALOAD AND SWAP1 PUSH1 0x20 ADD CALLDATALOAD PUSH2 0x473E JUMP JUMPDEST PUSH2 0x461 PUSH1 0x4 DUP1 CALLDATASIZE SUB PUSH1 0x20 DUP2 LT ISZERO PUSH2 0xBA1 JUMPI PUSH1 0x0 DUP1 REVERT JUMPDEST POP CALLDATALOAD PUSH2 0x47EB JUMP JUMPDEST PUSH2 0x41F PUSH2 0x4840 JUMP JUMPDEST PUSH2 0x461 PUSH2 0x484C JUMP JUMPDEST PUSH2 0x461 PUSH1 0x4 DUP1 CALLDATASIZE SUB PUSH1 0x40 DUP2 LT ISZERO PUSH2 0xBCE JUMPI PUSH1 0x0 DUP1 REVERT JUMPDEST POP PUSH1 0x1 PUSH1 0x1 PUSH1 0xA0 SHL SUB DUP2 CALLDATALOAD DUP2 AND SWAP2 PUSH1 0x20 ADD CALLDATALOAD AND PUSH2 0x48D2 JUMP JUMPDEST PUSH2 0x461 PUSH2 0x4934 JUMP JUMPDEST PUSH2 0x51C PUSH1 0x4 DUP1 CALLDATASIZE SUB PUSH1 0x40 DUP2 LT ISZERO PUSH2 0xC04 JUMPI PUSH1 0x0 DUP1 REVERT JUMPDEST POP PUSH1 0x1 PUSH1 0x1 PUSH1 0xA0 SHL SUB DUP2 CALLDATALOAD AND SWAP1 PUSH1 0x20 ADD CALLDATALOAD PUSH2 0x4939 JUMP JUMPDEST PUSH2 0x5A2 PUSH1 0x4 DUP1 CALLDATASIZE SUB PUSH1 0x40 DUP2 LT ISZERO PUSH2 0xC30 JUMPI PUSH1 0x0 DUP1 REVERT JUMPDEST POP PUSH1 0x1 PUSH1 0x1 PUSH1 0xA0 SHL SUB DUP2 CALLDATALOAD AND SWAP1 PUSH1 0x20 ADD CALLDATALOAD PUSH2 0x4BE3 JUMP JUMPDEST PUSH2 0x41F PUSH2 0x4D6E JUMP JUMPDEST PUSH2 0x41F PUSH2 0x4D7A JUMP JUMPDEST PUSH2 0x461 PUSH1 0x4 DUP1 CALLDATASIZE SUB PUSH1 0x60 DUP2 LT ISZERO PUSH2 0xC6C JUMPI PUSH1 0x0 DUP1 REVERT JUMPDEST POP DUP1 CALLDATALOAD SWAP1 PUSH1 0x20 DUP2 ADD CALLDATALOAD SWAP1 PUSH1 0x40 ADD CALLDATALOAD PUSH2 0x4D86 JUMP JUMPDEST PUSH2 0x51C PUSH2 0x5082 JUMP JUMPDEST PUSH1 0x1 PUSH1 0xB PUSH2 0xC93 PUSH2 0x5F3A JUMP JUMPDEST SWAP1 PUSH2 0x100 EXP SWAP1 DIV PUSH1 0x1 PUSH1 0x1 PUSH1 0xA0 SHL SUB AND DUP2 JUMP JUMPDEST PUSH1 0x0 PUSH2 0xCB0 PUSH2 0x50BF JUMP JUMPDEST PUSH1 0x1 PUSH1 0x1 PUSH1 0xA0 SHL SUB AND PUSH4 0x5B3C1C9 DUP4 PUSH1 0x40 MLOAD DUP3 PUSH4 0xFFFFFFFF AND PUSH1 0xE0 SHL DUP2 MSTORE PUSH1 0x4 ADD DUP1 DUP3 PUSH1 0x1 PUSH1 0x1 PUSH1 0xA0 SHL SUB AND PUSH1 0x1 PUSH1 0x1 PUSH1 0xA0 SHL SUB AND DUP2 MSTORE PUSH1 0x20 ADD SWAP2 POP POP PUSH1 0x20 PUSH1 0x40 MLOAD DUP1 DUP4 SUB DUP2 DUP7 DUP1 PUSH2 0xD00 PUSH2 0x5F72 JUMP JUMPDEST ISZERO DUP1 ISZERO PUSH2 0xD0C JUMPI PUSH1 0x0 DUP1 REVERT JUMPDEST POP GAS PUSH2 0xD16 PUSH2 0x5FA3 JUMP JUMPDEST POP POP POP POP POP ISZERO DUP1 ISZERO PUSH2 0xD2C JUMPI RETURNDATASIZE PUSH1 0x0 DUP1 RETURNDATACOPY RETURNDATASIZE PUSH1 0x0 REVERT JUMPDEST POP POP POP POP PUSH1 0x40 MLOAD RETURNDATASIZE PUSH1 0x20 DUP2 LT ISZERO PUSH2 0xD42 JUMPI PUSH1 0x0 DUP1 REVERT JUMPDEST POP MLOAD SWAP1 POP JUMPDEST SWAP2 SWAP1 POP JUMP JUMPDEST PUSH1 0x8 DUP1 PUSH2 0xD57 PUSH2 0x5F3A JUMP JUMPDEST PUSH1 0x1 DUP2 PUSH1 0x1 AND ISZERO PUSH2 0x100 MUL SUB AND PUSH1 0x2 SWAP1 DIV DUP1 PUSH1 0x1F ADD PUSH1 0x20 DUP1 SWAP2 DIV MUL PUSH1 0x20 ADD PUSH1 0x40 MLOAD SWAP1 DUP2 ADD PUSH1 0x40 MSTORE DUP1 SWAP3 SWAP2 SWAP1 DUP2 DUP2 MSTORE PUSH1 0x20 ADD DUP3 DUP1 PUSH2 0xD92 PUSH2 0x5F3A JUMP JUMPDEST PUSH1 0x1 DUP2 PUSH1 0x1 AND ISZERO PUSH2 0x100 MUL SUB AND PUSH1 0x2 SWAP1 DIV DUP1 ISZERO PUSH2 0xDFE JUMPI DUP1 PUSH1 0x1F LT PUSH2 0xDCC JUMPI PUSH2 0x100 DUP1 DUP4 PUSH2 0xDBE PUSH2 0x5F3A JUMP JUMPDEST DIV MUL DUP4 MSTORE SWAP2 PUSH1 0x20 ADD SWAP2 PUSH2 0xDFE JUMP JUMPDEST DUP3 ADD SWAP2 SWAP1 PUSH1 0x0 MSTORE PUSH1 0x20 PUSH1 0x0 KECCAK256 SWAP1 JUMPDEST DUP2 PUSH2 0xDE3 PUSH2 0x5F3A JUMP JUMPDEST DUP2 MSTORE SWAP1 PUSH1 0x1 ADD SWAP1 PUSH1 0x20 ADD DUP1 DUP4 GT PUSH2 0xDDA JUMPI DUP3 SWAP1 SUB PUSH1 0x1F AND DUP3 ADD SWAP2 JUMPDEST POP POP POP POP POP DUP2 JUMP JUMPDEST PUSH1 0x0 DUP1 PUSH1 0x4 PUSH2 0xE13 PUSH2 0x5F3A JUMP JUMPDEST SWAP1 PUSH2 0x100 EXP SWAP1 DIV PUSH1 0x1 PUSH1 0x1 PUSH1 0xA0 SHL SUB AND PUSH1 0x1 PUSH1 0x1 PUSH1 0xA0 SHL SUB AND GAS PUSH2 0xE35 PUSH2 0x5FFA JUMP JUMPDEST PUSH1 0x1 PUSH1 0x1 PUSH1 0xA0 SHL SUB AND EQ ISZERO DUP1 ISZERO PUSH2 0xE81 JUMPI POP PUSH1 0x0 PUSH1 0x5 PUSH2 0xE53 PUSH2 0x5F3A JUMP JUMPDEST SWAP1 PUSH2 0x100 EXP SWAP1 DIV PUSH1 0x1 PUSH1 0x1 PUSH1 0xA0 SHL SUB AND PUSH1 0x1 PUSH1 0x1 PUSH1 0xA0 SHL SUB AND GAS PUSH2 0xE75 PUSH2 0x5FFA JUMP JUMPDEST PUSH1 0x1 PUSH1 0x1 PUSH1 0xA0 SHL SUB AND EQ ISZERO JUMPDEST DUP1 ISZERO PUSH2 0xEC2 JUMPI POP GAS PUSH2 0xE91 PUSH2 0x5FFA JUMP JUMPDEST PUSH1 0x1 PUSH1 0x1 PUSH1 0xA0 SHL SUB AND PUSH1 0x0 PUSH1 0x6 PUSH2 0xEA6 PUSH2 0x5F3A JUMP JUMPDEST SWAP1 PUSH2 0x100 EXP SWAP1 DIV PUSH1 0x1 PUSH1 0x1 PUSH1 0xA0 SHL SUB AND PUSH1 0x1 PUSH1 0x1 PUSH1 0xA0 SHL SUB AND EQ ISZERO JUMPDEST ISZERO PUSH2 0xF03 JUMPI GAS PUSH2 0xED0 PUSH2 0x5FFA JUMP JUMPDEST PUSH1 0x6 PUSH1 0x1 DUP2 PUSH2 0xEDD PUSH2 0x5F3A JUMP JUMPDEST DUP2 PUSH1 0x1 PUSH1 0x1 PUSH1 0xA0 SHL SUB MUL NOT AND SWAP1 DUP4 PUSH1 0x1 PUSH1 0x1 PUSH1 0xA0 SHL SUB AND MUL OR SWAP1 PUSH2 0xEFF PUSH2 0x601E JUMP JUMPDEST POP POP POP JUMPDEST PUSH1 0x0 DUP1 PUSH1 0x6 PUSH2 0xF10 PUSH2 0x5F3A JUMP JUMPDEST SWAP1 PUSH2 0x100 EXP SWAP1 DIV PUSH1 0x1 PUSH1 0x1 PUSH1 0xA0 SHL SUB AND SWAP1 POP PUSH1 0x7 PUSH1 0x0 SWAP1 PUSH2 0xF2F PUSH2 0x5F3A JUMP JUMPDEST PUSH1 0x40 DUP1 MLOAD PUSH4 0x36918263 PUSH1 0xE2 SHL DUP2 MSTORE PUSH1 0x1 PUSH1 0x1 PUSH1 0xA0 SHL SUB DUP6 DUP2 AND PUSH1 0x4 DUP4 ADD MSTORE DUP9 DUP2 AND PUSH1 0x24 DUP4 ADD MSTORE PUSH1 0x44 DUP3 ADD DUP9 SWAP1 MSTORE SWAP2 MLOAD PUSH2 0x100 SWAP5 SWAP1 SWAP5 EXP SWAP1 SWAP3 DIV AND SWAP2 PUSH4 0xDA46098C SWAP2 PUSH1 0x64 DUP1 DUP3 ADD SWAP3 PUSH1 0x0 SWAP3 SWAP1 SWAP2 SWAP1 DUP3 SWAP1 SUB ADD DUP2 DUP4 DUP8 DUP1 PUSH2 0xF8C PUSH2 0x5F72 JUMP JUMPDEST ISZERO DUP1 ISZERO PUSH2 0xF98 JUMPI PUSH1 0x0 DUP1 REVERT JUMPDEST POP GAS PUSH2 0xFA2 PUSH2 0x6055 JUMP JUMPDEST POP POP POP POP POP POP ISZERO DUP1 ISZERO PUSH2 0xFB9 JUMPI RETURNDATASIZE PUSH1 0x0 DUP1 RETURNDATACOPY RETURNDATASIZE PUSH1 0x0 REVERT JUMPDEST POP POP POP POP PUSH2 0xFC8 DUP2 DUP6 DUP6 PUSH2 0x5107 JUMP JUMPDEST POP PUSH1 0x1 SWAP4 SWAP3 POP POP POP JUMP JUMPDEST PUSH1 0x0 DUP1 PUSH1 0x0 PUSH2 0xFDF PUSH2 0x50BF JUMP JUMPDEST PUSH1 0x1 PUSH1 0x1 PUSH1 0xA0 SHL SUB AND PUSH4 0x1137AEDF DUP6 PUSH1 0x40 MLOAD DUP3 PUSH4 0xFFFFFFFF AND PUSH1 0xE0 SHL DUP2 MSTORE PUSH1 0x4 ADD DUP1 DUP3 PUSH1 0x1 PUSH1 0x1 PUSH1 0xA0 SHL SUB AND PUSH1 0x1 PUSH1 0x1 PUSH1 0xA0 SHL SUB AND DUP2 MSTORE PUSH1 0x20 ADD SWAP2 POP POP PUSH1 0x60 PUSH1 0x40 MLOAD DUP1 DUP4 SUB DUP2 DUP7 DUP1 PUSH2 0x102F PUSH2 0x5F72 JUMP JUMPDEST ISZERO DUP1 ISZERO PUSH2 0x103B JUMPI PUSH1 0x0 DUP1 REVERT JUMPDEST POP GAS PUSH2 0x1045 PUSH2 0x5FA3 JUMP JUMPDEST POP POP POP POP POP ISZERO DUP1 ISZERO PUSH2 0x105B JUMPI RETURNDATASIZE PUSH1 0x0 DUP1 RETURNDATACOPY RETURNDATASIZE PUSH1 0x0 REVERT JUMPDEST POP POP POP POP PUSH1 0x40 MLOAD RETURNDATASIZE PUSH1 0x60 DUP2 LT ISZERO PUSH2 0x1071 JUMPI PUSH1 0x0 DUP1 REVERT JUMPDEST POP DUP1 MLOAD PUSH1 0x20 DUP3 ADD MLOAD PUSH1 0x40 SWAP1 SWAP3 ADD MLOAD SWAP1 SWAP7 SWAP2 SWAP6 POP SWAP4 POP SWAP2 POP POP JUMP JUMPDEST PUSH1 0x0 PUSH2 0x1095 PUSH2 0x51EC JUMP JUMPDEST PUSH1 0x1 PUSH1 0x1 PUSH1 0xA0 SHL SUB AND PUSH4 0x7C312541 PUSH1 0x40 MLOAD DUP2 PUSH4 0xFFFFFFFF AND PUSH1 0xE0 SHL DUP2 MSTORE PUSH1 0x4 ADD PUSH1 0x0 PUSH1 0x40 MLOAD DUP1 DUP4 SUB DUP2 DUP7 DUP1 PUSH2 0x10C8 PUSH2 0x5F72 JUMP JUMPDEST ISZERO DUP1 ISZERO PUSH2 0x10D4 JUMPI PUSH1 0x0 DUP1 REVERT JUMPDEST POP GAS PUSH2 0x10DE PUSH2 0x5FA3 JUMP JUMPDEST POP POP POP POP POP ISZERO DUP1 ISZERO PUSH2 0x10F4 JUMPI RETURNDATASIZE PUSH1 0x0 DUP1 RETURNDATACOPY RETURNDATASIZE PUSH1 0x0 REVERT JUMPDEST POP POP POP POP PUSH1 0x0 PUSH1 0x1 PUSH1 0x1 PUSH1 0xA0 SHL SUB AND PUSH2 0x110B PUSH2 0x523C JUMP JUMPDEST PUSH1 0x1 PUSH1 0x1 PUSH1 0xA0 SHL SUB AND EQ ISZERO PUSH2 0x1167 JUMPI PUSH1 0x40 DUP1 MLOAD PUSH3 0x461BCD PUSH1 0xE5 SHL DUP2 MSTORE PUSH1 0x20 PUSH1 0x4 DUP3 ADD MSTORE PUSH1 0x1B PUSH1 0x24 DUP3 ADD MSTORE PUSH32 0x52657761726473446973747269627574696F6E206E6F74207365740000000000 PUSH1 0x44 DUP3 ADD MSTORE SWAP1 MLOAD SWAP1 DUP2 SWAP1 SUB PUSH1 0x64 ADD SWAP1 REVERT JUMPDEST PUSH1 0x0 PUSH2 0x1171 PUSH2 0x5276 JUMP JUMPDEST SWAP1 POP PUSH1 0x0 PUSH2 0x117D PUSH2 0x523C JUMP JUMPDEST SWAP1 POP PUSH1 0x0 DUP3 PUSH1 0x1 PUSH1 0x1 PUSH1 0xA0 SHL SUB AND PUSH4 0xCC5C095C PUSH1 0x40 MLOAD DUP2 PUSH4 0xFFFFFFFF AND PUSH1 0xE0 SHL DUP2 MSTORE PUSH1 0x4 ADD PUSH1 0x20 PUSH1 0x40 MLOAD DUP1 DUP4 SUB DUP2 DUP7 DUP1 PUSH2 0x11B5 PUSH2 0x5F72 JUMP JUMPDEST ISZERO DUP1 ISZERO PUSH2 0x11C1 JUMPI PUSH1 0x0 DUP1 REVERT JUMPDEST POP GAS PUSH2 0x11CB PUSH2 0x5FA3 JUMP JUMPDEST POP POP POP POP POP ISZERO DUP1 ISZERO PUSH2 0x11E1 JUMPI RETURNDATASIZE PUSH1 0x0 DUP1 RETURNDATACOPY RETURNDATASIZE PUSH1 0x0 REVERT JUMPDEST POP POP POP POP PUSH1 0x40 MLOAD RETURNDATASIZE PUSH1 0x20 DUP2 LT ISZERO PUSH2 0x11F7 JUMPI PUSH1 0x0 DUP1 REVERT JUMPDEST POP MLOAD SWAP1 POP DUP1 PUSH2 0x1245 JUMPI PUSH1 0x40 DUP1 MLOAD PUSH3 0x461BCD PUSH1 0xE5 SHL DUP2 MSTORE PUSH1 0x20 PUSH1 0x4 DUP3 ADD MSTORE PUSH1 0x15 PUSH1 0x24 DUP3 ADD MSTORE PUSH21 0x4E6F20737570706C79206973206D696E7461626C65 PUSH1 0x58 SHL PUSH1 0x44 DUP3 ADD MSTORE SWAP1 MLOAD SWAP1 DUP2 SWAP1 SUB PUSH1 0x64 ADD SWAP1 REVERT JUMPDEST DUP3 PUSH1 0x1 PUSH1 0x1 PUSH1 0xA0 SHL SUB AND PUSH4 0x7E7961D7 DUP3 PUSH1 0x40 MLOAD DUP3 PUSH4 0xFFFFFFFF AND PUSH1 0xE0 SHL DUP2 MSTORE PUSH1 0x4 ADD DUP1 DUP3 DUP2 MSTORE PUSH1 0x20 ADD SWAP2 POP POP PUSH1 0x20 PUSH1 0x40 MLOAD DUP1 DUP4 SUB DUP2 PUSH1 0x0 DUP8 DUP1 PUSH2 0x1286 PUSH2 0x5F72 JUMP JUMPDEST ISZERO DUP1 ISZERO PUSH2 0x1292 JUMPI PUSH1 0x0 DUP1 REVERT JUMPDEST POP GAS PUSH2 0x129C PUSH2 0x6055 JUMP JUMPDEST POP POP POP POP POP POP ISZERO DUP1 ISZERO PUSH2 0x12B3 JUMPI RETURNDATASIZE PUSH1 0x0 DUP1 RETURNDATACOPY RETURNDATASIZE PUSH1 0x0 REVERT JUMPDEST POP POP POP POP PUSH1 0x40 MLOAD RETURNDATASIZE PUSH1 0x20 DUP2 LT ISZERO PUSH2 0x12C9 JUMPI PUSH1 0x0 DUP1 REVERT JUMPDEST POP POP PUSH1 0x40 DUP1 MLOAD PUSH4 0x9BDD7AC7 PUSH1 0xE0 SHL DUP2 MSTORE SWAP1 MLOAD PUSH1 0x0 SWAP2 PUSH1 0x1 PUSH1 0x1 PUSH1 0xA0 SHL SUB DUP7 AND SWAP2 PUSH4 0x9BDD7AC7 SWAP2 PUSH1 0x4 DUP1 DUP3 ADD SWAP3 PUSH1 0x20 SWAP3 SWAP1 SWAP2 SWAP1 DUP3 SWAP1 SUB ADD DUP2 DUP7 DUP1 PUSH2 0x130A PUSH2 0x5F72 JUMP JUMPDEST ISZERO DUP1 ISZERO PUSH2 0x1316 JUMPI PUSH1 0x0 DUP1 REVERT JUMPDEST POP GAS PUSH2 0x1320 PUSH2 0x5FA3 JUMP JUMPDEST POP POP POP POP POP ISZERO DUP1 ISZERO PUSH2 0x1336 JUMPI RETURNDATASIZE PUSH1 0x0 DUP1 RETURNDATACOPY RETURNDATASIZE PUSH1 0x0 REVERT JUMPDEST POP POP POP POP PUSH1 0x40 MLOAD RETURNDATASIZE PUSH1 0x20 DUP2 LT ISZERO PUSH2 0x134C JUMPI PUSH1 0x0 DUP1 REVERT JUMPDEST POP MLOAD SWAP1 POP PUSH1 0x0 PUSH2 0x1362 DUP4 DUP4 PUSH4 0xFFFFFFFF PUSH2 0x52C8 AND JUMP JUMPDEST SWAP1 POP PUSH1 0x0 PUSH1 0x7 PUSH2 0x1370 PUSH2 0x5F3A JUMP JUMPDEST PUSH1 0x1 PUSH1 0x1 PUSH1 0xA0 SHL SUB PUSH2 0x100 SWAP3 SWAP1 SWAP3 EXP SWAP1 DIV AND PUSH4 0xB46310F6 DUP6 PUSH2 0x1448 DUP5 PUSH1 0x0 PUSH1 0x7 PUSH2 0x1398 PUSH2 0x5F3A JUMP JUMPDEST SWAP1 PUSH2 0x100 EXP SWAP1 DIV PUSH1 0x1 PUSH1 0x1 PUSH1 0xA0 SHL SUB AND PUSH1 0x1 PUSH1 0x1 PUSH1 0xA0 SHL SUB AND PUSH4 0x70A08231 DUP11 PUSH1 0x40 MLOAD DUP3 PUSH4 0xFFFFFFFF AND PUSH1 0xE0 SHL DUP2 MSTORE PUSH1 0x4 ADD DUP1 DUP3 PUSH1 0x1 PUSH1 0x1 PUSH1 0xA0 SHL SUB AND PUSH1 0x1 PUSH1 0x1 PUSH1 0xA0 SHL SUB AND DUP2 MSTORE PUSH1 0x20 ADD SWAP2 POP POP PUSH1 0x20 PUSH1 0x40 MLOAD DUP1 DUP4 SUB DUP2 DUP7 DUP1 PUSH2 0x13F8 PUSH2 0x5F72 JUMP JUMPDEST ISZERO DUP1 ISZERO PUSH2 0x1404 JUMPI PUSH1 0x0 DUP1 REVERT JUMPDEST POP GAS PUSH2 0x140E PUSH2 0x5FA3 JUMP JUMPDEST POP POP POP POP POP ISZERO DUP1 ISZERO PUSH2 0x1424 JUMPI RETURNDATASIZE PUSH1 0x0 DUP1 RETURNDATACOPY RETURNDATASIZE PUSH1 0x0 REVERT JUMPDEST POP POP POP POP PUSH1 0x40 MLOAD RETURNDATASIZE PUSH1 0x20 DUP2 LT ISZERO PUSH2 0x143A JUMPI PUSH1 0x0 DUP1 REVERT JUMPDEST POP MLOAD SWAP1 PUSH4 0xFFFFFFFF PUSH2 0x5325 AND JUMP JUMPDEST PUSH1 0x40 MLOAD DUP4 PUSH4 0xFFFFFFFF AND PUSH1 0xE0 SHL DUP2 MSTORE PUSH1 0x4 ADD DUP1 DUP4 PUSH1 0x1 PUSH1 0x1 PUSH1 0xA0 SHL SUB AND PUSH1 0x1 PUSH1 0x1 PUSH1 0xA0 SHL SUB AND DUP2 MSTORE PUSH1 0x20 ADD DUP3 DUP2 MSTORE PUSH1 0x20 ADD SWAP3 POP POP POP PUSH1 0x0 PUSH1 0x40 MLOAD DUP1 DUP4 SUB DUP2 PUSH1 0x0 DUP8 DUP1 PUSH2 0x1492 PUSH2 0x5F72 JUMP JUMPDEST ISZERO DUP1 ISZERO PUSH2 0x149E JUMPI PUSH1 0x0 DUP1 REVERT JUMPDEST POP GAS PUSH2 0x14A8 PUSH2 0x6055 JUMP JUMPDEST POP POP POP POP POP POP ISZERO DUP1 ISZERO PUSH2 0x14BF JUMPI RETURNDATASIZE PUSH1 0x0 DUP1 RETURNDATACOPY RETURNDATASIZE PUSH1 0x0 REVERT JUMPDEST POP POP POP POP PUSH2 0x14F8 GAS PUSH4 0x996D79A5 PUSH3 0x80000 DUP2 PUSH1 0xE0 SHL DUP2 MSTORE PUSH1 0x20 DUP2 PUSH1 0x4 DUP4 PUSH1 0x0 CALLER GAS CALL DUP1 PUSH2 0x14EB JUMPI PUSH1 0x0 DUP1 REVERT JUMPDEST POP MLOAD SWAP2 POP DUP7 SWAP1 POP DUP4 PUSH2 0x5386 JUMP JUMPDEST DUP4 PUSH1 0x1 PUSH1 0x1 PUSH1 0xA0 SHL SUB AND PUSH4 0x59974E38 DUP3 PUSH1 0x40 MLOAD DUP3 PUSH4 0xFFFFFFFF AND PUSH1 0xE0 SHL DUP2 MSTORE PUSH1 0x4 ADD DUP1 DUP3 DUP2 MSTORE PUSH1 0x20 ADD SWAP2 POP POP PUSH1 0x20 PUSH1 0x40 MLOAD DUP1 DUP4 SUB DUP2 PUSH1 0x0 DUP8 DUP1 PUSH2 0x1539 PUSH2 0x5F72 JUMP JUMPDEST ISZERO DUP1 ISZERO PUSH2 0x1545 JUMPI PUSH1 0x0 DUP1 REVERT JUMPDEST POP GAS PUSH2 0x154F PUSH2 0x6055 JUMP JUMPDEST POP POP POP POP POP POP ISZERO DUP1 ISZERO PUSH2 0x1566 JUMPI RETURNDATASIZE PUSH1 0x0 DUP1 RETURNDATACOPY RETURNDATASIZE PUSH1 0x0 REVERT JUMPDEST POP POP POP POP PUSH1 0x40 MLOAD RETURNDATASIZE PUSH1 0x20 DUP2 LT ISZERO PUSH2 0x157C JUMPI PUSH1 0x0 DUP1 REVERT JUMPDEST POP PUSH1 0x0 SWAP1 POP PUSH1 0x7 PUSH2 0x158B PUSH2 0x5F3A JUMP JUMPDEST SWAP1 PUSH2 0x100 EXP SWAP1 DIV PUSH1 0x1 PUSH1 0x1 PUSH1 0xA0 SHL SUB AND PUSH1 0x1 PUSH1 0x1 PUSH1 0xA0 SHL SUB AND PUSH4 0xB46310F6 GAS PUSH2 0x15B2 PUSH2 0x5FFA JUMP JUMPDEST PUSH2 0x162A DUP6 PUSH1 0x0 PUSH1 0x7 PUSH2 0x15C2 PUSH2 0x5F3A JUMP JUMPDEST SWAP1 PUSH2 0x100 EXP SWAP1 DIV PUSH1 0x1 PUSH1 0x1 PUSH1 0xA0 SHL SUB AND PUSH1 0x1 PUSH1 0x1 PUSH1 0xA0 SHL SUB AND PUSH4 0x70A08231 GAS PUSH2 0x15E9 PUSH2 0x5FFA JUMP JUMPDEST PUSH1 0x40 MLOAD DUP3 PUSH4 0xFFFFFFFF AND PUSH1 0xE0 SHL DUP2 MSTORE PUSH1 0x4 ADD DUP1 DUP3 PUSH1 0x1 PUSH1 0x1 PUSH1 0xA0 SHL SUB AND PUSH1 0x1 PUSH1 0x1 PUSH1 0xA0 SHL SUB AND DUP2 MSTORE PUSH1 0x20 ADD SWAP2 POP POP PUSH1 0x20 PUSH1 0x40 MLOAD DUP1 DUP4 SUB DUP2 DUP7 DUP1 PUSH2 0x13F8 PUSH2 0x5F72 JUMP JUMPDEST PUSH1 0x40 MLOAD DUP4 PUSH4 0xFFFFFFFF AND PUSH1 0xE0 SHL DUP2 MSTORE PUSH1 0x4 ADD DUP1 DUP4 PUSH1 0x1 PUSH1 0x1 PUSH1 0xA0 SHL SUB AND PUSH1 0x1 PUSH1 0x1 PUSH1 0xA0 SHL SUB AND DUP2 MSTORE PUSH1 0x20 ADD DUP3 DUP2 MSTORE PUSH1 0x20 ADD SWAP3 POP POP POP PUSH1 0x0 PUSH1 0x40 MLOAD DUP1 DUP4 SUB DUP2 PUSH1 0x0 DUP8 DUP1 PUSH2 0x1674 PUSH2 0x5F72 JUMP JUMPDEST ISZERO DUP1 ISZERO PUSH2 0x1680 JUMPI PUSH1 0x0 DUP1 REVERT JUMPDEST POP GAS PUSH2 0x168A PUSH2 0x6055 JUMP JUMPDEST POP POP POP POP POP POP ISZERO DUP1 ISZERO PUSH2 0x16A1 JUMPI RETURNDATASIZE PUSH1 0x0 DUP1 RETURNDATACOPY RETURNDATASIZE PUSH1 0x0 REVERT JUMPDEST POP POP POP POP PUSH2 0x16E1 GAS PUSH4 0x996D79A5 PUSH3 0x80000 DUP2 PUSH1 0xE0 SHL DUP2 MSTORE PUSH1 0x20 DUP2 PUSH1 0x4 DUP4 PUSH1 0x0 CALLER GAS CALL DUP1 PUSH2 0x16CD JUMPI PUSH1 0x0 DUP1 REVERT JUMPDEST POP MLOAD SWAP2 POP POP GAS PUSH2 0x16DB PUSH2 0x5FFA JUMP JUMPDEST DUP5 PUSH2 0x5386 JUMP JUMPDEST PUSH2 0x16FB DUP4 PUSH1 0xA PUSH2 0x16EF PUSH2 0x5F3A JUMP JUMPDEST SWAP1 PUSH4 0xFFFFFFFF PUSH2 0x5325 AND JUMP JUMPDEST DUP1 PUSH1 0xA PUSH2 0x1706 PUSH2 0x601E JUMP JUMPDEST POP POP POP PUSH1 0x1 SWAP6 POP POP POP POP POP POP SWAP1 JUMP JUMPDEST PUSH1 0x0 DUP1 PUSH2 0x1720 PUSH2 0x5F3A JUMP JUMPDEST SWAP1 PUSH2 0x100 EXP SWAP1 DIV PUSH1 0x1 PUSH1 0x1 PUSH1 0xA0 SHL SUB AND PUSH1 0x1 PUSH1 0x1 PUSH1 0xA0 SHL SUB AND GAS PUSH2 0x1742 PUSH2 0x5FFA JUMP JUMPDEST PUSH1 0x1 PUSH1 0x1 PUSH1 0xA0 SHL SUB AND EQ PUSH2 0x1787 JUMPI PUSH1 0x40 MLOAD PUSH3 0x461BCD PUSH1 0xE5 SHL DUP2 MSTORE PUSH1 0x4 ADD DUP1 DUP1 PUSH1 0x20 ADD DUP3 DUP2 SUB DUP3 MSTORE PUSH1 0x2F DUP2 MSTORE PUSH1 0x20 ADD DUP1 PUSH2 0x61B1 PUSH1 0x2F SWAP2 CODECOPY PUSH1 0x40 ADD SWAP2 POP POP PUSH1 0x40 MLOAD DUP1 SWAP2 SUB SWAP1 REVERT JUMPDEST DUP1 PUSH1 0x5 PUSH1 0x1 DUP2 PUSH2 0x1795 PUSH2 0x5F3A JUMP JUMPDEST DUP2 PUSH1 0x1 PUSH1 0x1 PUSH1 0xA0 SHL SUB MUL NOT AND SWAP1 DUP4 PUSH1 0x1 PUSH1 0x1 PUSH1 0xA0 SHL SUB AND MUL OR SWAP1 PUSH2 0x17B7 PUSH2 0x601E JUMP JUMPDEST POP POP POP POP JUMP JUMPDEST PUSH1 0x0 DUP1 PUSH2 0x17C8 PUSH2 0x5F3A JUMP JUMPDEST SWAP1 PUSH2 0x100 EXP SWAP1 DIV PUSH1 0x1 PUSH1 0x1 PUSH1 0xA0 SHL SUB AND PUSH1 0x1 PUSH1 0x1 PUSH1 0xA0 SHL SUB AND GAS PUSH2 0x17EA PUSH2 0x5FFA JUMP JUMPDEST PUSH1 0x1 PUSH1 0x1 PUSH1 0xA0 SHL SUB AND EQ PUSH2 0x182F JUMPI PUSH1 0x40 MLOAD PUSH3 0x461BCD PUSH1 0xE5 SHL DUP2 MSTORE PUSH1 0x4 ADD DUP1 DUP1 PUSH1 0x20 ADD DUP3 DUP2 SUB DUP3 MSTORE PUSH1 0x2F DUP2 MSTORE PUSH1 0x20 ADD DUP1 PUSH2 0x61B1 PUSH1 0x2F SWAP2 CODECOPY PUSH1 0x40 ADD SWAP2 POP POP PUSH1 0x40 MLOAD DUP1 SWAP2 SUB SWAP1 REVERT JUMPDEST DUP1 PUSH1 0x1 DUP1 DUP1 PUSH2 0x183C PUSH2 0x5F3A JUMP JUMPDEST DUP2 PUSH1 0x1 PUSH1 0x1 PUSH1 0xA0 SHL SUB MUL NOT AND SWAP1 DUP4 PUSH1 0x1 PUSH1 0x1 PUSH1 0xA0 SHL SUB AND MUL OR SWAP1 PUSH2 0x185E PUSH2 0x601E JUMP JUMPDEST POP POP PUSH1 0x40 DUP1 MLOAD PUSH1 0x1 PUSH1 0x1 PUSH1 0xA0 SHL SUB DUP5 AND DUP2 MSTORE SWAP1 MLOAD PUSH32 0x906A1C6BD7E3091EA86693DD029A831C19049CE77F1DCE2CE0BAB1CACBABCE22 SWAP3 POP SWAP1 DUP2 SWAP1 SUB PUSH1 0x20 ADD SWAP1 LOG1 POP JUMP JUMPDEST PUSH1 0x0 PUSH2 0x18AB PUSH2 0x50BF JUMP JUMPDEST PUSH1 0x1 PUSH1 0x1 PUSH1 0xA0 SHL SUB AND PUSH4 0x16B2213F DUP4 PUSH1 0x40 MLOAD DUP3 PUSH4 0xFFFFFFFF AND PUSH1 0xE0 SHL DUP2 MSTORE PUSH1 0x4 ADD DUP1 DUP3 PUSH1 0x1 PUSH1 0x1 PUSH1 0xA0 SHL SUB AND PUSH1 0x1 PUSH1 0x1 PUSH1 0xA0 SHL SUB AND DUP2 MSTORE PUSH1 0x20 ADD SWAP2 POP POP PUSH1 0x20 PUSH1 0x40 MLOAD DUP1 DUP4 SUB DUP2 DUP7 DUP1 PUSH2 0xD00 PUSH2 0x5F72 JUMP JUMPDEST PUSH1 0x2 PUSH2 0x1905 PUSH2 0x5F3A JUMP JUMPDEST DUP2 JUMP JUMPDEST PUSH1 0xA PUSH2 0x1905 PUSH2 0x5F3A JUMP JUMPDEST PUSH1 0x40 MLOAD DUP1 PUSH1 0x40 ADD PUSH1 0x40 MSTORE DUP1 PUSH1 0x17 DUP2 MSTORE PUSH1 0x20 ADD PUSH32 0x53796E746865746978204E6574776F726B20546F6B656E000000000000000000 DUP2 MSTORE POP DUP2 JUMP JUMPDEST PUSH1 0x0 DUP1 PUSH2 0x1956 PUSH2 0x53F4 JUMP JUMPDEST PUSH1 0x1 PUSH1 0x1 PUSH1 0xA0 SHL SUB AND PUSH4 0x59C29EC PUSH1 0x0 PUSH1 0x6 PUSH2 0x1970 PUSH2 0x5F3A JUMP JUMPDEST SWAP1 PUSH2 0x100 EXP SWAP1 DIV PUSH1 0x1 PUSH1 0x1 PUSH1 0xA0 SHL SUB AND DUP6 PUSH1 0x40 MLOAD DUP4 PUSH4 0xFFFFFFFF AND PUSH1 0xE0 SHL DUP2 MSTORE PUSH1 0x4 ADD DUP1 DUP4 PUSH1 0x1 PUSH1 0x1 PUSH1 0xA0 SHL SUB AND PUSH1 0x1 PUSH1 0x1 PUSH1 0xA0 SHL SUB AND DUP2 MSTORE PUSH1 0x20 ADD DUP3 DUP2 MSTORE PUSH1 0x20 ADD SWAP3 POP POP POP PUSH1 0x20 PUSH1 0x40 MLOAD DUP1 DUP4 SUB DUP2 DUP7 DUP1 PUSH2 0x19C9 PUSH2 0x5F72 JUMP JUMPDEST ISZERO DUP1 ISZERO PUSH2 0x19D5 JUMPI PUSH1 0x0 DUP1 REVERT JUMPDEST POP GAS PUSH2 0x19DF PUSH2 0x5FA3 JUMP JUMPDEST POP POP POP POP POP ISZERO DUP1 ISZERO PUSH2 0x19F5 JUMPI RETURNDATASIZE PUSH1 0x0 DUP1 RETURNDATACOPY RETURNDATASIZE PUSH1 0x0 REVERT JUMPDEST POP POP POP POP PUSH1 0x40 MLOAD RETURNDATASIZE PUSH1 0x20 DUP2 LT ISZERO PUSH2 0x1A0B JUMPI PUSH1 0x0 DUP1 REVERT JUMPDEST POP MLOAD GT SWAP3 SWAP2 POP POP JUMP JUMPDEST PUSH1 0x0 DUP1 PUSH2 0x1A1F PUSH2 0x5F3A JUMP JUMPDEST SWAP1 PUSH2 0x100 EXP SWAP1 DIV PUSH1 0x1 PUSH1 0x1 PUSH1 0xA0 SHL SUB AND PUSH1 0x1 PUSH1 0x1 PUSH1 0xA0 SHL SUB AND GAS PUSH2 0x1A41 PUSH2 0x5FFA JUMP JUMPDEST PUSH1 0x1 PUSH1 0x1 PUSH1 0xA0 SHL SUB AND EQ PUSH2 0x1A86 JUMPI PUSH1 0x40 MLOAD PUSH3 0x461BCD PUSH1 0xE5 SHL DUP2 MSTORE PUSH1 0x4 ADD DUP1 DUP1 PUSH1 0x20 ADD DUP3 DUP2 SUB DUP3 MSTORE PUSH1 0x2F DUP2 MSTORE PUSH1 0x20 ADD DUP1 PUSH2 0x61B1 PUSH1 0x2F SWAP2 CODECOPY PUSH1 0x40 ADD SWAP2 POP POP PUSH1 0x40 MLOAD DUP1 SWAP2 SUB SWAP1 REVERT JUMPDEST PUSH1 0x1 PUSH1 0x1 PUSH1 0xA0 SHL SUB DUP2 AND PUSH2 0x1AE1 JUMPI PUSH1 0x40 DUP1 MLOAD PUSH3 0x461BCD PUSH1 0xE5 SHL DUP2 MSTORE PUSH1 0x20 PUSH1 0x4 DUP3 ADD MSTORE PUSH1 0x1C PUSH1 0x24 DUP3 ADD MSTORE PUSH32 0x42656E6566696369617279206D757374206E6F74206265207A65726F00000000 PUSH1 0x44 DUP3 ADD MSTORE SWAP1 MLOAD SWAP1 DUP2 SWAP1 SUB PUSH1 0x64 ADD SWAP1 REVERT JUMPDEST DUP1 PUSH1 0x3 PUSH2 0x100 DUP2 PUSH2 0x1AF0 PUSH2 0x5F3A JUMP JUMPDEST DUP2 PUSH1 0x1 PUSH1 0x1 PUSH1 0xA0 SHL SUB MUL NOT AND SWAP1 DUP4 PUSH1 0x1 PUSH1 0x1 PUSH1 0xA0 SHL SUB AND MUL OR SWAP1 PUSH2 0x1B12 PUSH2 0x601E JUMP JUMPDEST POP POP PUSH1 0x40 DUP1 MLOAD PUSH1 0x1 PUSH1 0x1 PUSH1 0xA0 SHL SUB DUP5 AND DUP2 MSTORE SWAP1 MLOAD PUSH32 0xD5DA63A0B864B315BC04128DEDBC93888C8529EE6CF47CE664DC204339228C53 SWAP3 POP SWAP1 DUP2 SWAP1 SUB PUSH1 0x20 ADD SWAP1 LOG1 POP JUMP JUMPDEST PUSH1 0x0 DUP1 PUSH1 0x4 PUSH2 0x1B62 PUSH2 0x5F3A JUMP JUMPDEST SWAP1 PUSH2 0x100 EXP SWAP1 DIV PUSH1 0x1 PUSH1 0x1 PUSH1 0xA0 SHL SUB AND PUSH1 0x1 PUSH1 0x1 PUSH1 0xA0 SHL SUB AND GAS PUSH2 0x1B84 PUSH2 0x5FFA JUMP JUMPDEST PUSH1 0x1 PUSH1 0x1 PUSH1 0xA0 SHL SUB AND EQ ISZERO DUP1 ISZERO PUSH2 0x1BD0 JUMPI POP PUSH1 0x0 PUSH1 0x5 PUSH2 0x1BA2 PUSH2 0x5F3A JUMP JUMPDEST SWAP1 PUSH2 0x100 EXP SWAP1 DIV PUSH1 0x1 PUSH1 0x1 PUSH1 0xA0 SHL SUB AND PUSH1 0x1 PUSH1 0x1 PUSH1 0xA0 SHL SUB AND GAS PUSH2 0x1BC4 PUSH2 0x5FFA JUMP JUMPDEST PUSH1 0x1 PUSH1 0x1 PUSH1 0xA0 SHL SUB AND EQ ISZERO JUMPDEST DUP1 ISZERO PUSH2 0x1C11 JUMPI POP GAS PUSH2 0x1BE0 PUSH2 0x5FFA JUMP JUMPDEST PUSH1 0x1 PUSH1 0x1 PUSH1 0xA0 SHL SUB AND PUSH1 0x0 PUSH1 0x6 PUSH2 0x1BF5 PUSH2 0x5F3A JUMP JUMPDEST SWAP1 PUSH2 0x100 EXP SWAP1 DIV PUSH1 0x1 PUSH1 0x1 PUSH1 0xA0 SHL SUB AND PUSH1 0x1 PUSH1 0x1 PUSH1 0xA0 SHL SUB AND EQ ISZERO JUMPDEST ISZERO PUSH2 0x1C52 JUMPI GAS PUSH2 0x1C1F PUSH2 0x5FFA JUMP JUMPDEST PUSH1 0x6 PUSH1 0x1 DUP2 PUSH2 0x1C2C PUSH2 0x5F3A JUMP JUMPDEST DUP2 PUSH1 0x1 PUSH1 0x1 PUSH1 0xA0 SHL SUB MUL NOT AND SWAP1 DUP4 PUSH1 0x1 PUSH1 0x1 PUSH1 0xA0 SHL SUB AND MUL OR SWAP1 PUSH2 0x1C4E PUSH2 0x601E JUMP JUMPDEST POP POP POP JUMPDEST PUSH2 0x1C5A PUSH2 0x51EC JUMP JUMPDEST PUSH1 0x1 PUSH1 0x1 PUSH1 0xA0 SHL SUB AND PUSH4 0x86DABD1 PUSH1 0x40 MLOAD DUP2 PUSH4 0xFFFFFFFF AND PUSH1 0xE0 SHL DUP2 MSTORE PUSH1 0x4 ADD PUSH1 0x0 PUSH1 0x40 MLOAD DUP1 DUP4 SUB DUP2 DUP7 DUP1 PUSH2 0x1C8D PUSH2 0x5F72 JUMP JUMPDEST ISZERO DUP1 ISZERO PUSH2 0x1C99 JUMPI PUSH1 0x0 DUP1 REVERT JUMPDEST POP GAS PUSH2 0x1CA3 PUSH2 0x5FA3 JUMP JUMPDEST POP POP POP POP POP ISZERO DUP1 ISZERO PUSH2 0x1CB9 JUMPI RETURNDATASIZE PUSH1 0x0 DUP1 RETURNDATACOPY RETURNDATASIZE PUSH1 0x0 REVERT JUMPDEST POP POP POP POP PUSH2 0x1CC7 DUP5 DUP4 PUSH2 0x5441 JUMP JUMPDEST POP PUSH2 0x1CEF PUSH1 0x0 PUSH1 0x6 PUSH2 0x1CD7 PUSH2 0x5F3A JUMP JUMPDEST SWAP1 PUSH2 0x100 EXP SWAP1 DIV PUSH1 0x1 PUSH1 0x1 PUSH1 0xA0 SHL SUB AND DUP6 DUP6 DUP6 PUSH2 0x56D5 JUMP JUMPDEST SWAP5 SWAP4 POP POP POP POP JUMP JUMPDEST PUSH2 0x1CFF PUSH2 0x51EC JUMP JUMPDEST PUSH1 0x1 PUSH1 0x1 PUSH1 0xA0 SHL SUB AND PUSH4 0x7C312541 PUSH1 0x40 MLOAD DUP2 PUSH4 0xFFFFFFFF AND PUSH1 0xE0 SHL DUP2 MSTORE PUSH1 0x4 ADD PUSH1 0x0 PUSH1 0x40 MLOAD DUP1 DUP4 SUB DUP2 DUP7 DUP1 PUSH2 0x1D32 PUSH2 0x5F72 JUMP JUMPDEST ISZERO DUP1 ISZERO PUSH2 0x1D3E JUMPI PUSH1 0x0 DUP1 REVERT JUMPDEST POP GAS PUSH2 0x1D48 PUSH2 0x5FA3 JUMP JUMPDEST POP POP POP POP POP ISZERO DUP1 ISZERO PUSH2 0x1D5E JUMPI RETURNDATASIZE PUSH1 0x0 DUP1 RETURNDATACOPY RETURNDATASIZE PUSH1 0x0 REVERT JUMPDEST POP POP POP POP PUSH1 0x4 PUSH1 0x0 SWAP1 PUSH2 0x1D6F PUSH2 0x5F3A JUMP JUMPDEST SWAP1 PUSH2 0x100 EXP SWAP1 DIV PUSH1 0x1 PUSH1 0x1 PUSH1 0xA0 SHL SUB AND PUSH1 0x1 PUSH1 0x1 PUSH1 0xA0 SHL SUB AND GAS PUSH2 0x1D91 PUSH2 0x5FFA JUMP JUMPDEST PUSH1 0x1 PUSH1 0x1 PUSH1 0xA0 SHL SUB AND EQ ISZERO DUP1 ISZERO PUSH2 0x1DDD JUMPI POP PUSH1 0x0 PUSH1 0x5 PUSH2 0x1DAF PUSH2 0x5F3A JUMP JUMPDEST SWAP1 PUSH2 0x100 EXP SWAP1 DIV PUSH1 0x1 PUSH1 0x1 PUSH1 0xA0 SHL SUB AND PUSH1 0x1 PUSH1 0x1 PUSH1 0xA0 SHL SUB AND GAS PUSH2 0x1DD1 PUSH2 0x5FFA JUMP JUMPDEST PUSH1 0x1 PUSH1 0x1 PUSH1 0xA0 SHL SUB AND EQ ISZERO JUMPDEST DUP1 ISZERO PUSH2 0x1E1E JUMPI POP GAS PUSH2 0x1DED PUSH2 0x5FFA JUMP JUMPDEST PUSH1 0x1 PUSH1 0x1 PUSH1 0xA0 SHL SUB AND PUSH1 0x0 PUSH1 0x6 PUSH2 0x1E02 PUSH2 0x5F3A JUMP JUMPDEST SWAP1 PUSH2 0x100 EXP SWAP1 DIV PUSH1 0x1 PUSH1 0x1 PUSH1 0xA0 SHL SUB AND PUSH1 0x1 PUSH1 0x1 PUSH1 0xA0 SHL SUB AND EQ ISZERO JUMPDEST ISZERO PUSH2 0x1E5F JUMPI GAS PUSH2 0x1E2C PUSH2 0x5FFA JUMP JUMPDEST PUSH1 0x6 PUSH1 0x1 DUP2 PUSH2 0x1E39 PUSH2 0x5F3A JUMP JUMPDEST DUP2 PUSH1 0x1 PUSH1 0x1 PUSH1 0xA0 SHL SUB MUL NOT AND SWAP1 DUP4 PUSH1 0x1 PUSH1 0x1 PUSH1 0xA0 SHL SUB AND MUL OR SWAP1 PUSH2 0x1E5B PUSH2 0x601E JUMP JUMPDEST POP POP POP JUMPDEST PUSH2 0x1E67 PUSH2 0x50BF JUMP JUMPDEST PUSH1 0x1 PUSH1 0x1 PUSH1 0xA0 SHL SUB AND PUSH4 0xB06E8C65 PUSH1 0x0 PUSH1 0x6 PUSH2 0x1E81 PUSH2 0x5F3A JUMP JUMPDEST SWAP1 PUSH2 0x100 EXP SWAP1 DIV PUSH1 0x1 PUSH1 0x1 PUSH1 0xA0 SHL SUB AND DUP4 PUSH1 0x40 MLOAD DUP4 PUSH4 0xFFFFFFFF AND PUSH1 0xE0 SHL DUP2 MSTORE PUSH1 0x4 ADD DUP1 DUP4 PUSH1 0x1 PUSH1 0x1 PUSH1 0xA0 SHL SUB AND PUSH1 0x1 PUSH1 0x1 PUSH1 0xA0 SHL SUB AND DUP2 MSTORE PUSH1 0x20 ADD DUP3 DUP2 MSTORE PUSH1 0x20 ADD SWAP3 POP POP POP PUSH1 0x0 PUSH1 0x40 MLOAD DUP1 DUP4 SUB DUP2 PUSH1 0x0 DUP8 DUP1 PUSH2 0x1EDC PUSH2 0x5F72 JUMP JUMPDEST ISZERO DUP1 ISZERO PUSH2 0x1EE8 JUMPI PUSH1 0x0 DUP1 REVERT JUMPDEST POP GAS PUSH2 0x1EF2 PUSH2 0x6055 JUMP JUMPDEST POP POP POP POP POP POP ISZERO DUP1 ISZERO PUSH2 0x1F09 JUMPI RETURNDATASIZE PUSH1 0x0 DUP1 RETURNDATACOPY RETURNDATASIZE PUSH1 0x0 REVERT JUMPDEST POP POP POP POP JUMPDEST POP JUMP JUMPDEST PUSH1 0x40 MLOAD DUP1 PUSH1 0x40 ADD PUSH1 0x40 MSTORE DUP1 PUSH1 0x3 DUP2 MSTORE PUSH1 0x20 ADD PUSH3 0xA69CB PUSH1 0xEB SHL DUP2 MSTORE POP DUP2 JUMP JUMPDEST PUSH2 0x1F38 PUSH2 0x51EC JUMP JUMPDEST PUSH1 0x1 PUSH1 0x1 PUSH1 0xA0 SHL SUB AND PUSH4 0x7C312541 PUSH1 0x40 MLOAD DUP2 PUSH4 0xFFFFFFFF AND PUSH1 0xE0 SHL DUP2 MSTORE PUSH1 0x4 ADD PUSH1 0x0 PUSH1 0x40 MLOAD DUP1 DUP4 SUB DUP2 DUP7 DUP1 PUSH2 0x1F6B PUSH2 0x5F72 JUMP JUMPDEST ISZERO DUP1 ISZERO PUSH2 0x1F77 JUMPI PUSH1 0x0 DUP1 REVERT JUMPDEST POP GAS PUSH2 0x1F81 PUSH2 0x5FA3 JUMP JUMPDEST POP POP POP POP POP ISZERO DUP1 ISZERO PUSH2 0x1F97 JUMPI RETURNDATASIZE PUSH1 0x0 DUP1 RETURNDATACOPY RETURNDATASIZE PUSH1 0x0 REVERT JUMPDEST POP POP POP POP PUSH1 0x4 PUSH1 0x0 SWAP1 PUSH2 0x1FA8 PUSH2 0x5F3A JUMP JUMPDEST SWAP1 PUSH2 0x100 EXP SWAP1 DIV PUSH1 0x1 PUSH1 0x1 PUSH1 0xA0 SHL SUB AND PUSH1 0x1 PUSH1 0x1 PUSH1 0xA0 SHL SUB AND GAS PUSH2 0x1FCA PUSH2 0x5FFA JUMP JUMPDEST PUSH1 0x1 PUSH1 0x1 PUSH1 0xA0 SHL SUB AND EQ ISZERO DUP1 ISZERO PUSH2 0x2016 JUMPI POP PUSH1 0x0 PUSH1 0x5 PUSH2 0x1FE8 PUSH2 0x5F3A JUMP JUMPDEST SWAP1 PUSH2 0x100 EXP SWAP1 DIV PUSH1 0x1 PUSH1 0x1 PUSH1 0xA0 SHL SUB AND PUSH1 0x1 PUSH1 0x1 PUSH1 0xA0 SHL SUB AND GAS PUSH2 0x200A PUSH2 0x5FFA JUMP JUMPDEST PUSH1 0x1 PUSH1 0x1 PUSH1 0xA0 SHL SUB AND EQ ISZERO JUMPDEST DUP1 ISZERO PUSH2 0x2057 JUMPI POP GAS PUSH2 0x2026 PUSH2 0x5FFA JUMP JUMPDEST PUSH1 0x1 PUSH1 0x1 PUSH1 0xA0 SHL SUB AND PUSH1 0x0 PUSH1 0x6 PUSH2 0x203B PUSH2 0x5F3A JUMP JUMPDEST SWAP1 PUSH2 0x100 EXP SWAP1 DIV PUSH1 0x1 PUSH1 0x1 PUSH1 0xA0 SHL SUB AND PUSH1 0x1 PUSH1 0x1 PUSH1 0xA0 SHL SUB AND EQ ISZERO JUMPDEST ISZERO PUSH2 0x2098 JUMPI GAS PUSH2 0x2065 PUSH2 0x5FFA JUMP JUMPDEST PUSH1 0x6 PUSH1 0x1 DUP2 PUSH2 0x2072 PUSH2 0x5F3A JUMP JUMPDEST DUP2 PUSH1 0x1 PUSH1 0x1 PUSH1 0xA0 SHL SUB MUL NOT AND SWAP1 DUP4 PUSH1 0x1 PUSH1 0x1 PUSH1 0xA0 SHL SUB AND MUL OR SWAP1 PUSH2 0x2094 PUSH2 0x601E JUMP JUMPDEST POP POP POP JUMPDEST PUSH2 0x20A0 PUSH2 0x50BF JUMP JUMPDEST PUSH1 0x1 PUSH1 0x1 PUSH1 0xA0 SHL SUB AND PUSH4 0x2B3F41AA DUP3 PUSH1 0x0 PUSH1 0x6 PUSH2 0x20BB PUSH2 0x5F3A JUMP JUMPDEST SWAP1 PUSH2 0x100 EXP SWAP1 DIV PUSH1 0x1 PUSH1 0x1 PUSH1 0xA0 SHL SUB AND PUSH1 0x40 MLOAD DUP4 PUSH4 0xFFFFFFFF AND PUSH1 0xE0 SHL DUP2 MSTORE PUSH1 0x4 ADD DUP1 DUP4 PUSH1 0x1 PUSH1 0x1 PUSH1 0xA0 SHL SUB AND PUSH1 0x1 PUSH1 0x1 PUSH1 0xA0 SHL SUB AND DUP2 MSTORE PUSH1 0x20 ADD DUP3 PUSH1 0x1 PUSH1 0x1 PUSH1 0xA0 SHL SUB AND PUSH1 0x1 PUSH1 0x1 PUSH1 0xA0 SHL SUB AND DUP2 MSTORE PUSH1 0x20 ADD SWAP3 POP POP POP PUSH1 0x0 PUSH1 0x40 MLOAD DUP1 DUP4 SUB DUP2 PUSH1 0x0 DUP8 DUP1 PUSH2 0x1EDC PUSH2 0x5F72 JUMP JUMPDEST PUSH1 0x12 DUP2 JUMP JUMPDEST PUSH1 0x0 PUSH1 0xB PUSH2 0x2138 PUSH2 0x5F3A JUMP JUMPDEST SWAP1 PUSH2 0x100 EXP SWAP1 DIV PUSH1 0xFF AND DUP2 JUMP JUMPDEST PUSH2 0x214D PUSH2 0x51EC JUMP JUMPDEST PUSH1 0x1 PUSH1 0x1 PUSH1 0xA0 SHL SUB AND PUSH4 0x7C312541 PUSH1 0x40 MLOAD DUP2 PUSH4 0xFFFFFFFF AND PUSH1 0xE0 SHL DUP2 MSTORE PUSH1 0x4 ADD PUSH1 0x0 PUSH1 0x40 MLOAD DUP1 DUP4 SUB DUP2 DUP7 DUP1 PUSH2 0x2180 PUSH2 0x5F72 JUMP JUMPDEST ISZERO DUP1 ISZERO PUSH2 0x218C JUMPI PUSH1 0x0 DUP1 REVERT JUMPDEST POP GAS PUSH2 0x2196 PUSH2 0x5FA3 JUMP JUMPDEST POP POP POP POP POP ISZERO DUP1 ISZERO PUSH2 0x21AC JUMPI RETURNDATASIZE PUSH1 0x0 DUP1 RETURNDATACOPY RETURNDATASIZE PUSH1 0x0 REVERT JUMPDEST POP POP POP POP PUSH1 0x4 PUSH1 0x0 SWAP1 PUSH2 0x21BD PUSH2 0x5F3A JUMP JUMPDEST SWAP1 PUSH2 0x100 EXP SWAP1 DIV PUSH1 0x1 PUSH1 0x1 PUSH1 0xA0 SHL SUB AND PUSH1 0x1 PUSH1 0x1 PUSH1 0xA0 SHL SUB AND GAS PUSH2 0x21DF PUSH2 0x5FFA JUMP JUMPDEST PUSH1 0x1 PUSH1 0x1 PUSH1 0xA0 SHL SUB AND EQ ISZERO DUP1 ISZERO PUSH2 0x222B JUMPI POP PUSH1 0x0 PUSH1 0x5 PUSH2 0x21FD PUSH2 0x5F3A JUMP JUMPDEST SWAP1 PUSH2 0x100 EXP SWAP1 DIV PUSH1 0x1 PUSH1 0x1 PUSH1 0xA0 SHL SUB AND PUSH1 0x1 PUSH1 0x1 PUSH1 0xA0 SHL SUB AND GAS PUSH2 0x221F PUSH2 0x5FFA JUMP JUMPDEST PUSH1 0x1 PUSH1 0x1 PUSH1 0xA0 SHL SUB AND EQ ISZERO JUMPDEST DUP1 ISZERO PUSH2 0x226C JUMPI POP GAS PUSH2 0x223B PUSH2 0x5FFA JUMP JUMPDEST PUSH1 0x1 PUSH1 0x1 PUSH1 0xA0 SHL SUB AND PUSH1 0x0 PUSH1 0x6 PUSH2 0x2250 PUSH2 0x5F3A JUMP JUMPDEST SWAP1 PUSH2 0x100 EXP SWAP1 DIV PUSH1 0x1 PUSH1 0x1 PUSH1 0xA0 SHL SUB AND PUSH1 0x1 PUSH1 0x1 PUSH1 0xA0 SHL SUB AND EQ ISZERO JUMPDEST ISZERO PUSH2 0x22AD JUMPI GAS PUSH2 0x227A PUSH2 0x5FFA JUMP JUMPDEST PUSH1 0x6 PUSH1 0x1 DUP2 PUSH2 0x2287 PUSH2 0x5F3A JUMP JUMPDEST DUP2 PUSH1 0x1 PUSH1 0x1 PUSH1 0xA0 SHL SUB MUL NOT AND SWAP1 DUP4 PUSH1 0x1 PUSH1 0x1 PUSH1 0xA0 SHL SUB AND MUL OR SWAP1 PUSH2 0x22A9 PUSH2 0x601E JUMP JUMPDEST POP POP POP JUMPDEST PUSH2 0x22B5 PUSH2 0x50BF JUMP JUMPDEST PUSH1 0x1 PUSH1 0x1 PUSH1 0xA0 SHL SUB AND PUSH4 0xFD864CCF DUP3 PUSH1 0x0 PUSH1 0x6 PUSH2 0x20BB PUSH2 0x5F3A JUMP JUMPDEST PUSH1 0x0 PUSH2 0x22DA PUSH2 0x50BF JUMP JUMPDEST PUSH1 0x1 PUSH1 0x1 PUSH1 0xA0 SHL SUB AND PUSH4 0x32608039 DUP4 PUSH1 0x40 MLOAD DUP3 PUSH4 0xFFFFFFFF AND PUSH1 0xE0 SHL DUP2 MSTORE PUSH1 0x4 ADD DUP1 DUP3 DUP2 MSTORE PUSH1 0x20 ADD SWAP2 POP POP PUSH1 0x20 PUSH1 0x40 MLOAD DUP1 DUP4 SUB DUP2 DUP7 DUP1 PUSH2 0xD00 PUSH2 0x5F72 JUMP JUMPDEST PUSH1 0x0 DUP1 PUSH2 0x2323 PUSH2 0x5F3A JUMP JUMPDEST SWAP1 PUSH2 0x100 EXP SWAP1 DIV PUSH1 0x1 PUSH1 0x1 PUSH1 0xA0 SHL SUB AND PUSH1 0x1 PUSH1 0x1 PUSH1 0xA0 SHL SUB AND GAS PUSH2 0x2345 PUSH2 0x5FFA JUMP JUMPDEST PUSH1 0x1 PUSH1 0x1 PUSH1 0xA0 SHL SUB AND EQ PUSH2 0x238A JUMPI PUSH1 0x40 MLOAD PUSH3 0x461BCD PUSH1 0xE5 SHL DUP2 MSTORE PUSH1 0x4 ADD DUP1 DUP1 PUSH1 0x20 ADD DUP3 DUP2 SUB DUP3 MSTORE PUSH1 0x2F DUP2 MSTORE PUSH1 0x20 ADD DUP1 PUSH2 0x61B1 PUSH1 0x2F SWAP2 CODECOPY PUSH1 0x40 ADD SWAP2 POP POP PUSH1 0x40 MLOAD DUP1 SWAP2 SUB SWAP1 REVERT JUMPDEST PUSH1 0x0 DUP1 PUSH1 0x2 PUSH2 0x2397 PUSH2 0x601E JUMP JUMPDEST POP POP POP PUSH1 0x0 PUSH1 0x3 PUSH1 0x0 PUSH2 0x100 EXP DUP2 PUSH2 0x23AD PUSH2 0x5F3A JUMP JUMPDEST DUP2 PUSH1 0xFF MUL NOT AND SWAP1 DUP4 ISZERO ISZERO MUL OR SWAP1 PUSH2 0x23C2 PUSH2 0x601E JUMP JUMPDEST POP POP PUSH1 0x40 MLOAD PUSH32 0x6ADCC7125002935E0AA31697538EBBD65CFDDF20431EB6ECDCFC3E238BFD082C SWAP2 POP PUSH1 0x0 SWAP1 LOG1 JUMP JUMPDEST PUSH1 0x0 DUP1 PUSH2 0x23FB PUSH2 0x5F3A JUMP JUMPDEST SWAP1 PUSH2 0x100 EXP SWAP1 DIV PUSH1 0x1 PUSH1 0x1 PUSH1 0xA0 SHL SUB AND PUSH1 0x1 PUSH1 0x1 PUSH1 0xA0 SHL SUB AND GAS PUSH2 0x241D PUSH2 0x5FFA JUMP JUMPDEST PUSH1 0x1 PUSH1 0x1 PUSH1 0xA0 SHL SUB AND EQ PUSH2 0x2462 JUMPI PUSH1 0x40 MLOAD PUSH3 0x461BCD PUSH1 0xE5 SHL DUP2 MSTORE PUSH1 0x4 ADD DUP1 DUP1 PUSH1 0x20 ADD DUP3 DUP2 SUB DUP3 MSTORE PUSH1 0x2F DUP2 MSTORE PUSH1 0x20 ADD DUP1 PUSH2 0x61B1 PUSH1 0x2F SWAP2 CODECOPY PUSH1 0x40 ADD SWAP2 POP POP PUSH1 0x40 MLOAD DUP1 SWAP2 SUB SWAP1 REVERT JUMPDEST DUP1 PUSH1 0xB PUSH2 0x100 DUP2 PUSH2 0x2471 PUSH2 0x5F3A JUMP JUMPDEST DUP2 PUSH1 0x1 PUSH1 0x1 PUSH1 0xA0 SHL SUB MUL NOT AND SWAP1 DUP4 PUSH1 0x1 PUSH1 0x1 PUSH1 0xA0 SHL SUB AND MUL OR SWAP1 PUSH2 0x2493 PUSH2 0x601E JUMP JUMPDEST POP PUSH1 0x0 SWAP2 POP POP JUMPDEST PUSH1 0xD DUP1 PUSH2 0x24A5 PUSH2 0x5F3A JUMP JUMPDEST SWAP1 POP DUP2 LT ISZERO PUSH2 0x25FA JUMPI PUSH1 0x0 PUSH1 0xD DUP3 DUP2 PUSH2 0x24BC PUSH2 0x5F3A JUMP JUMPDEST DUP2 LT PUSH2 0x24C4 JUMPI INVALID JUMPDEST SWAP1 PUSH1 0x0 MSTORE PUSH1 0x20 PUSH1 0x0 KECCAK256 ADD PUSH2 0x24D6 PUSH2 0x5F3A JUMP JUMPDEST SWAP1 POP PUSH1 0x1 PUSH1 0xB PUSH2 0x24E4 PUSH2 0x5F3A JUMP JUMPDEST SWAP1 PUSH2 0x100 EXP SWAP1 DIV PUSH1 0x1 PUSH1 0x1 PUSH1 0xA0 SHL SUB AND PUSH1 0x1 PUSH1 0x1 PUSH1 0xA0 SHL SUB AND PUSH4 0xDACB2D01 DUP3 PUSH1 0x40 MLOAD DUP3 PUSH4 0xFFFFFFFF AND PUSH1 0xE0 SHL DUP2 MSTORE PUSH1 0x4 ADD DUP1 DUP3 DUP2 MSTORE PUSH1 0x20 ADD DUP1 PUSH1 0x20 ADD DUP3 DUP2 SUB DUP3 MSTORE PUSH1 0x17 DUP2 MSTORE PUSH1 0x20 ADD DUP1 PUSH32 0x5265736F6C766572206D697373696E6720746172676574000000000000000000 DUP2 MSTORE POP PUSH1 0x20 ADD SWAP3 POP POP POP PUSH1 0x20 PUSH1 0x40 MLOAD DUP1 DUP4 SUB DUP2 DUP7 DUP1 PUSH2 0x256B PUSH2 0x5F72 JUMP JUMPDEST ISZERO DUP1 ISZERO PUSH2 0x2577 JUMPI PUSH1 0x0 DUP1 REVERT JUMPDEST POP GAS PUSH2 0x2581 PUSH2 0x5FA3 JUMP JUMPDEST POP POP POP POP POP ISZERO DUP1 ISZERO PUSH2 0x2597 JUMPI RETURNDATASIZE PUSH1 0x0 DUP1 RETURNDATACOPY RETURNDATASIZE PUSH1 0x0 REVERT JUMPDEST POP POP POP POP PUSH1 0x40 MLOAD RETURNDATASIZE PUSH1 0x20 DUP2 LT ISZERO PUSH2 0x25AD JUMPI PUSH1 0x0 DUP1 REVERT JUMPDEST POP MLOAD PUSH1 0x0 DUP3 DUP2 MSTORE PUSH1 0xC PUSH1 0x20 MSTORE PUSH1 0x40 SWAP1 KECCAK256 PUSH1 0x1 DUP2 PUSH2 0x25C8 PUSH2 0x5F3A JUMP JUMPDEST DUP2 PUSH1 0x1 PUSH1 0x1 PUSH1 0xA0 SHL SUB MUL NOT AND SWAP1 DUP4 PUSH1 0x1 PUSH1 0x1 PUSH1 0xA0 SHL SUB AND MUL OR SWAP1 PUSH2 0x25EA PUSH2 0x601E JUMP JUMPDEST POP POP PUSH1 0x1 SWAP1 SWAP3 ADD SWAP2 POP PUSH2 0x249A SWAP1 POP JUMP JUMPDEST POP POP JUMP JUMPDEST PUSH1 0x0 PUSH1 0x1 PUSH2 0xC93 PUSH2 0x5F3A JUMP JUMPDEST PUSH1 0x0 PUSH1 0x1 PUSH1 0x1 PUSH1 0xA0 SHL SUB DUP3 AND PUSH1 0x1 PUSH1 0xB PUSH2 0x2622 PUSH2 0x5F3A JUMP JUMPDEST SWAP1 PUSH2 0x100 EXP SWAP1 DIV PUSH1 0x1 PUSH1 0x1 PUSH1 0xA0 SHL SUB AND PUSH1 0x1 PUSH1 0x1 PUSH1 0xA0 SHL SUB AND EQ PUSH2 0x2648 JUMPI POP PUSH1 0x0 PUSH2 0xD47 JUMP JUMPDEST PUSH1 0x0 JUMPDEST PUSH1 0xD DUP1 PUSH2 0x2656 PUSH2 0x5F3A JUMP JUMPDEST SWAP1 POP DUP2 LT ISZERO PUSH2 0x27AE JUMPI PUSH1 0x0 PUSH1 0xD DUP3 DUP2 PUSH2 0x266D PUSH2 0x5F3A JUMP JUMPDEST DUP2 LT PUSH2 0x2675 JUMPI INVALID JUMPDEST SWAP1 PUSH1 0x0 MSTORE PUSH1 0x20 PUSH1 0x0 KECCAK256 ADD PUSH2 0x2687 PUSH2 0x5F3A JUMP JUMPDEST PUSH1 0x0 DUP2 DUP2 MSTORE PUSH1 0xC PUSH1 0x20 MSTORE PUSH1 0x40 DUP2 KECCAK256 SWAP2 SWAP3 POP SWAP1 PUSH2 0x26A1 PUSH2 0x5F3A JUMP JUMPDEST PUSH1 0x1 PUSH1 0x1 PUSH1 0xA0 SHL SUB PUSH2 0x100 SWAP3 SWAP1 SWAP3 EXP SWAP1 DIV AND PUSH1 0x1 PUSH1 0xB PUSH2 0x26BF PUSH2 0x5F3A JUMP JUMPDEST SWAP1 PUSH2 0x100 EXP SWAP1 DIV PUSH1 0x1 PUSH1 0x1 PUSH1 0xA0 SHL SUB AND PUSH1 0x1 PUSH1 0x1 PUSH1 0xA0 SHL SUB AND PUSH4 0x21F8A721 DUP4 PUSH1 0x40 MLOAD DUP3 PUSH4 0xFFFFFFFF AND PUSH1 0xE0 SHL DUP2 MSTORE PUSH1 0x4 ADD DUP1 DUP3 DUP2 MSTORE PUSH1 0x20 ADD SWAP2 POP POP PUSH1 0x20 PUSH1 0x40 MLOAD DUP1 DUP4 SUB DUP2 DUP7 DUP1 PUSH2 0x270D PUSH2 0x5F72 JUMP JUMPDEST ISZERO DUP1 ISZERO PUSH2 0x2719 JUMPI PUSH1 0x0 DUP1 REVERT JUMPDEST POP GAS PUSH2 0x2723 PUSH2 0x5FA3 JUMP JUMPDEST POP POP POP POP POP ISZERO DUP1 ISZERO PUSH2 0x2739 JUMPI RETURNDATASIZE PUSH1 0x0 DUP1 RETURNDATACOPY RETURNDATASIZE PUSH1 0x0 REVERT JUMPDEST POP POP POP POP PUSH1 0x40 MLOAD RETURNDATASIZE PUSH1 0x20 DUP2 LT ISZERO PUSH2 0x274F JUMPI PUSH1 0x0 DUP1 REVERT JUMPDEST POP MLOAD PUSH1 0x1 PUSH1 0x1 PUSH1 0xA0 SHL SUB AND EQ ISZERO DUP1 PUSH2 0x2795 JUMPI POP PUSH1 0x0 DUP2 DUP2 MSTORE PUSH1 0xC PUSH1 0x20 MSTORE PUSH1 0x40 DUP2 KECCAK256 DUP2 SWAP1 PUSH2 0x277A PUSH2 0x5F3A JUMP JUMPDEST SWAP1 PUSH2 0x100 EXP SWAP1 DIV PUSH1 0x1 PUSH1 0x1 PUSH1 0xA0 SHL SUB AND PUSH1 0x1 PUSH1 0x1 PUSH1 0xA0 SHL SUB AND EQ JUMPDEST ISZERO PUSH2 0x27A5 JUMPI PUSH1 0x0 SWAP3 POP POP POP PUSH2 0xD47 JUMP JUMPDEST POP PUSH1 0x1 ADD PUSH2 0x264B JUMP JUMPDEST POP PUSH1 0x1 SWAP3 SWAP2 POP POP JUMP JUMPDEST PUSH1 0x0 PUSH2 0x27C1 PUSH2 0x50BF JUMP JUMPDEST PUSH1 0x1 PUSH1 0x1 PUSH1 0xA0 SHL SUB AND PUSH4 0xDB2B91CF DUP4 PUSH1 0x0 PUSH1 0x7 PUSH2 0x27DC PUSH2 0x5F3A JUMP JUMPDEST SWAP1 PUSH2 0x100 EXP SWAP1 DIV PUSH1 0x1 PUSH1 0x1 PUSH1 0xA0 SHL SUB AND PUSH1 0x1 PUSH1 0x1 PUSH1 0xA0 SHL SUB AND PUSH4 0x70A08231 DUP7 PUSH1 0x40 MLOAD DUP3 PUSH4 0xFFFFFFFF AND PUSH1 0xE0 SHL DUP2 MSTORE PUSH1 0x4 ADD DUP1 DUP3 PUSH1 0x1 PUSH1 0x1 PUSH1 0xA0 SHL SUB AND PUSH1 0x1 PUSH1 0x1 PUSH1 0xA0 SHL SUB AND DUP2 MSTORE PUSH1 0x20 ADD SWAP2 POP POP PUSH1 0x20 PUSH1 0x40 MLOAD DUP1 DUP4 SUB DUP2 DUP7 DUP1 PUSH2 0x283C PUSH2 0x5F72 JUMP JUMPDEST ISZERO DUP1 ISZERO PUSH2 0x2848 JUMPI PUSH1 0x0 DUP1 REVERT JUMPDEST POP GAS PUSH2 0x2852 PUSH2 0x5FA3 JUMP JUMPDEST POP POP POP POP POP ISZERO DUP1 ISZERO PUSH2 0x2868 JUMPI RETURNDATASIZE PUSH1 0x0 DUP1 RETURNDATACOPY RETURNDATASIZE PUSH1 0x0 REVERT JUMPDEST POP POP POP POP PUSH1 0x40 MLOAD RETURNDATASIZE PUSH1 0x20 DUP2 LT ISZERO PUSH2 0x287E JUMPI PUSH1 0x0 DUP1 REVERT JUMPDEST POP MLOAD PUSH1 0x40 DUP1 MLOAD PUSH1 0x1 PUSH1 0x1 PUSH1 0xE0 SHL SUB NOT PUSH1 0xE0 DUP7 SWAP1 SHL AND DUP2 MSTORE PUSH1 0x1 PUSH1 0x1 PUSH1 0xA0 SHL SUB SWAP1 SWAP4 AND PUSH1 0x4 DUP5 ADD MSTORE PUSH1 0x24 DUP4 ADD SWAP2 SWAP1 SWAP2 MSTORE DUP1 MLOAD PUSH1 0x44 DUP1 DUP5 ADD SWAP4 DUP3 SWAP1 SUB ADD DUP2 DUP7 DUP1 PUSH2 0x28C4 PUSH2 0x5F72 JUMP JUMPDEST ISZERO DUP1 ISZERO PUSH2 0x28D0 JUMPI PUSH1 0x0 DUP1 REVERT JUMPDEST POP GAS PUSH2 0x28DA PUSH2 0x5FA3 JUMP JUMPDEST POP POP POP POP POP ISZERO DUP1 ISZERO PUSH2 0x28F0 JUMPI RETURNDATASIZE PUSH1 0x0 DUP1 RETURNDATACOPY RETURNDATASIZE PUSH1 0x0 REVERT JUMPDEST POP POP POP POP PUSH1 0x40 MLOAD RETURNDATASIZE PUSH1 0x40 DUP2 LT ISZERO PUSH2 0x2906 JUMPI PUSH1 0x0 DUP1 REVERT JUMPDEST POP MLOAD SWAP3 SWAP2 POP POP JUMP JUMPDEST PUSH2 0x2916 PUSH2 0x53F4 JUMP JUMPDEST PUSH1 0x1 PUSH1 0x1 PUSH1 0xA0 SHL SUB AND GAS PUSH2 0x2928 PUSH2 0x5FFA JUMP JUMPDEST PUSH1 0x1 PUSH1 0x1 PUSH1 0xA0 SHL SUB AND EQ PUSH2 0x2983 JUMPI PUSH1 0x40 DUP1 MLOAD PUSH3 0x461BCD PUSH1 0xE5 SHL DUP2 MSTORE PUSH1 0x20 PUSH1 0x4 DUP3 ADD MSTORE PUSH1 0x1E PUSH1 0x24 DUP3 ADD MSTORE PUSH32 0x4F6E6C792045786368616E6765722063616E20696E766F6B6520746869730000 PUSH1 0x44 DUP3 ADD MSTORE SWAP1 MLOAD SWAP1 DUP2 SWAP1 SUB PUSH1 0x64 ADD SWAP1 REVERT JUMPDEST PUSH1 0x0 PUSH1 0x4 PUSH2 0x298F PUSH2 0x5F3A JUMP JUMPDEST SWAP1 PUSH2 0x100 EXP SWAP1 DIV PUSH1 0x1 PUSH1 0x1 PUSH1 0xA0 SHL SUB AND PUSH1 0x1 PUSH1 0x1 PUSH1 0xA0 SHL SUB AND PUSH4 0x907DFF97 DUP7 DUP7 DUP7 DUP7 DUP7 PUSH1 0x40 MLOAD PUSH1 0x20 ADD DUP1 DUP7 DUP2 MSTORE PUSH1 0x20 ADD DUP6 DUP2 MSTORE PUSH1 0x20 ADD DUP5 DUP2 MSTORE PUSH1 0x20 ADD DUP4 DUP2 MSTORE PUSH1 0x20 ADD DUP3 PUSH1 0x1 PUSH1 0x1 PUSH1 0xA0 SHL SUB AND PUSH1 0x1 PUSH1 0x1 PUSH1 0xA0 SHL SUB AND DUP2 MSTORE PUSH1 0x20 ADD SWAP6 POP POP POP POP POP POP PUSH1 0x40 MLOAD PUSH1 0x20 DUP2 DUP4 SUB SUB DUP2 MSTORE SWAP1 PUSH1 0x40 MSTORE PUSH1 0x2 PUSH1 0x40 MLOAD DUP1 DUP1 PUSH2 0x614D PUSH1 0x3E SWAP2 CODECOPY PUSH1 0x3E ADD SWAP1 POP PUSH1 0x40 MLOAD DUP1 SWAP2 SUB SWAP1 KECCAK256 PUSH2 0x2A23 DUP12 PUSH2 0x584F JUMP JUMPDEST PUSH1 0x0 DUP1 PUSH1 0x40 MLOAD DUP8 PUSH4 0xFFFFFFFF AND PUSH1 0xE0 SHL DUP2 MSTORE PUSH1 0x4 ADD DUP1 DUP1 PUSH1 0x20 ADD DUP8 DUP2 MSTORE PUSH1 0x20 ADD DUP7 DUP2 MSTORE PUSH1 0x20 ADD DUP6 DUP2 MSTORE PUSH1 0x20 ADD DUP5 PUSH1 0x0 SHL DUP2 MSTORE PUSH1 0x20 ADD DUP4 PUSH1 0x0 SHL DUP2 MSTORE PUSH1 0x20 ADD DUP3 DUP2 SUB DUP3 MSTORE DUP9 DUP2 DUP2 MLOAD DUP2 MSTORE PUSH1 0x20 ADD SWAP2 POP DUP1 MLOAD SWAP1 PUSH1 0x20 ADD SWAP1 DUP1 DUP4 DUP4 PUSH1 0x0 JUMPDEST DUP4 DUP2 LT ISZERO PUSH2 0x2A96 JUMPI DUP2 DUP2 ADD MLOAD DUP4 DUP3 ADD MSTORE PUSH1 0x20 ADD PUSH2 0x2A7E JUMP JUMPDEST POP POP POP POP SWAP1 POP SWAP1 DUP2 ADD SWAP1 PUSH1 0x1F AND DUP1 ISZERO PUSH2 0x2AC3 JUMPI DUP1 DUP3 SUB DUP1 MLOAD PUSH1 0x1 DUP4 PUSH1 0x20 SUB PUSH2 0x100 EXP SUB NOT AND DUP2 MSTORE PUSH1 0x20 ADD SWAP2 POP JUMPDEST POP SWAP8 POP POP POP POP POP POP POP POP PUSH1 0x0 PUSH1 0x40 MLOAD DUP1 DUP4 SUB DUP2 PUSH1 0x0 DUP8 DUP1 PUSH2 0x2AE2 PUSH2 0x5F72 JUMP JUMPDEST ISZERO DUP1 ISZERO PUSH2 0x2AEE JUMPI PUSH1 0x0 DUP1 REVERT JUMPDEST POP GAS PUSH2 0x2AF8 PUSH2 0x6055 JUMP JUMPDEST POP POP POP POP POP POP ISZERO DUP1 ISZERO PUSH2 0x2B0F JUMPI RETURNDATASIZE PUSH1 0x0 DUP1 RETURNDATACOPY RETURNDATASIZE PUSH1 0x0 REVERT JUMPDEST POP POP POP POP POP POP POP POP POP POP JUMP JUMPDEST PUSH2 0x2B23 PUSH2 0x53F4 JUMP JUMPDEST PUSH1 0x1 PUSH1 0x1 PUSH1 0xA0 SHL SUB AND GAS PUSH2 0x2B35 PUSH2 0x5FFA JUMP JUMPDEST PUSH1 0x1 PUSH1 0x1 PUSH1 0xA0 SHL SUB AND EQ PUSH2 0x2B90 JUMPI PUSH1 0x40 DUP1 MLOAD PUSH3 0x461BCD PUSH1 0xE5 SHL DUP2 MSTORE PUSH1 0x20 PUSH1 0x4 DUP3 ADD MSTORE PUSH1 0x1E PUSH1 0x24 DUP3 ADD MSTORE PUSH32 0x4F6E6C792045786368616E6765722063616E20696E766F6B6520746869730000 PUSH1 0x44 DUP3 ADD MSTORE SWAP1 MLOAD SWAP1 DUP2 SWAP1 SUB PUSH1 0x64 ADD SWAP1 REVERT JUMPDEST PUSH1 0x0 PUSH1 0x4 PUSH2 0x2B9C PUSH2 0x5F3A JUMP JUMPDEST SWAP1 PUSH2 0x100 EXP SWAP1 DIV PUSH1 0x1 PUSH1 0x1 PUSH1 0xA0 SHL SUB AND PUSH1 0x1 PUSH1 0x1 PUSH1 0xA0 SHL SUB AND PUSH4 0x907DFF97 DUP4 DUP4 PUSH1 0x40 MLOAD PUSH1 0x20 ADD DUP1 DUP4 DUP2 MSTORE PUSH1 0x20 ADD DUP3 DUP2 MSTORE PUSH1 0x20 ADD SWAP3 POP POP POP PUSH1 0x40 MLOAD PUSH1 0x20 DUP2 DUP4 SUB SUB DUP2 MSTORE SWAP1 PUSH1 0x40 MSTORE PUSH1 0x2 PUSH1 0x40 MLOAD DUP1 DUP1 PUSH2 0x6224 PUSH1 0x27 SWAP2 CODECOPY PUSH1 0x27 ADD SWAP1 POP PUSH1 0x40 MLOAD DUP1 SWAP2 SUB SWAP1 KECCAK256 PUSH2 0x2C06 DUP9 PUSH2 0x584F JUMP JUMPDEST PUSH1 0x0 DUP1 PUSH1 0x40 MLOAD DUP8 PUSH4 0xFFFFFFFF AND PUSH1 0xE0 SHL DUP2 MSTORE PUSH1 0x4 ADD DUP1 DUP1 PUSH1 0x20 ADD DUP8 DUP2 MSTORE PUSH1 0x20 ADD DUP7 DUP2 MSTORE PUSH1 0x20 ADD DUP6 DUP2 MSTORE PUSH1 0x20 ADD DUP5 PUSH1 0x0 SHL DUP2 MSTORE PUSH1 0x20 ADD DUP4 PUSH1 0x0 SHL DUP2 MSTORE PUSH1 0x20 ADD DUP3 DUP2 SUB DUP3 MSTORE DUP9 DUP2 DUP2 MLOAD DUP2 MSTORE PUSH1 0x20 ADD SWAP2 POP DUP1 MLOAD SWAP1 PUSH1 0x20 ADD SWAP1 DUP1 DUP4 DUP4 PUSH1 0x0 JUMPDEST DUP4 DUP2 LT ISZERO PUSH2 0x2C79 JUMPI DUP2 DUP2 ADD MLOAD DUP4 DUP3 ADD MSTORE PUSH1 0x20 ADD PUSH2 0x2C61 JUMP JUMPDEST POP POP POP POP SWAP1 POP SWAP1 DUP2 ADD SWAP1 PUSH1 0x1F AND DUP1 ISZERO PUSH2 0x2CA6 JUMPI DUP1 DUP3 SUB DUP1 MLOAD PUSH1 0x1 DUP4 PUSH1 0x20 SUB PUSH2 0x100 EXP SUB NOT AND DUP2 MSTORE PUSH1 0x20 ADD SWAP2 POP JUMPDEST POP SWAP8 POP POP POP POP POP POP POP POP PUSH1 0x0 PUSH1 0x40 MLOAD DUP1 DUP4 SUB DUP2 PUSH1 0x0 DUP8 DUP1 PUSH2 0x2CC5 PUSH2 0x5F72 JUMP JUMPDEST ISZERO DUP1 ISZERO PUSH2 0x2CD1 JUMPI PUSH1 0x0 DUP1 REVERT JUMPDEST POP GAS PUSH2 0x2CDB PUSH2 0x6055 JUMP JUMPDEST POP POP POP POP POP POP ISZERO DUP1 ISZERO PUSH2 0x2CF2 JUMPI RETURNDATASIZE PUSH1 0x0 DUP1 RETURNDATACOPY RETURNDATASIZE PUSH1 0x0 REVERT JUMPDEST POP POP POP POP POP POP POP JUMP JUMPDEST PUSH1 0x0 DUP1 PUSH1 0x7 PUSH2 0x2D08 PUSH2 0x5F3A JUMP JUMPDEST SWAP1 PUSH2 0x100 EXP SWAP1 DIV PUSH1 0x1 PUSH1 0x1 PUSH1 0xA0 SHL SUB AND PUSH1 0x1 PUSH1 0x1 PUSH1 0xA0 SHL SUB AND PUSH4 0x70A08231 DUP4 PUSH1 0x40 MLOAD DUP3 PUSH4 0xFFFFFFFF AND PUSH1 0xE0 SHL DUP2 MSTORE PUSH1 0x4 ADD DUP1 DUP3 PUSH1 0x1 PUSH1 0x1 PUSH1 0xA0 SHL SUB AND PUSH1 0x1 PUSH1 0x1 PUSH1 0xA0 SHL SUB AND DUP2 MSTORE PUSH1 0x20 ADD SWAP2 POP POP PUSH1 0x20 PUSH1 0x40 MLOAD DUP1 DUP4 SUB DUP2 DUP7 DUP1 PUSH2 0xD00 PUSH2 0x5F72 JUMP JUMPDEST PUSH1 0x60 PUSH2 0x2D72 PUSH2 0x50BF JUMP JUMPDEST PUSH1 0x1 PUSH1 0x1 PUSH1 0xA0 SHL SUB AND PUSH4 0x72CB051F PUSH1 0x40 MLOAD DUP2 PUSH4 0xFFFFFFFF AND PUSH1 0xE0 SHL DUP2 MSTORE PUSH1 0x4 ADD PUSH1 0x0 PUSH1 0x40 MLOAD DUP1 DUP4 SUB DUP2 DUP7 DUP1 PUSH2 0x2DA5 PUSH2 0x5F72 JUMP JUMPDEST ISZERO DUP1 ISZERO PUSH2 0x2DB1 JUMPI PUSH1 0x0 DUP1 REVERT JUMPDEST POP GAS PUSH2 0x2DBB PUSH2 0x5FA3 JUMP JUMPDEST POP POP POP POP POP ISZERO DUP1 ISZERO PUSH2 0x2DD1 JUMPI RETURNDATASIZE PUSH1 0x0 DUP1 RETURNDATACOPY RETURNDATASIZE PUSH1 0x0 REVERT JUMPDEST POP POP POP POP PUSH1 0x40 MLOAD RETURNDATASIZE PUSH1 0x0 DUP3 RETURNDATACOPY PUSH1 0x1F RETURNDATASIZE SWAP1 DUP2 ADD PUSH1 0x1F NOT AND DUP3 ADD PUSH1 0x40 MSTORE PUSH1 0x20 DUP2 LT ISZERO PUSH2 0x2DFA JUMPI PUSH1 0x0 DUP1 REVERT JUMPDEST DUP2 ADD SWAP1 DUP1 DUP1 MLOAD PUSH1 0x40 MLOAD SWAP4 SWAP3 SWAP2 SWAP1 DUP5 PUSH5 0x100000000 DUP3 GT ISZERO PUSH2 0x2E1A JUMPI PUSH1 0x0 DUP1 REVERT JUMPDEST SWAP1 DUP4 ADD SWAP1 PUSH1 0x20 DUP3 ADD DUP6 DUP2 GT ISZERO PUSH2 0x2E2F JUMPI PUSH1 0x0 DUP1 REVERT JUMPDEST DUP3 MLOAD DUP7 PUSH1 0x20 DUP3 MUL DUP4 ADD GT PUSH5 0x100000000 DUP3 GT OR ISZERO PUSH2 0x2E4C JUMPI PUSH1 0x0 DUP1 REVERT JUMPDEST DUP3 MSTORE POP DUP2 MLOAD PUSH1 0x20 SWAP2 DUP3 ADD SWAP3 DUP3 ADD SWAP2 MUL DUP1 DUP4 DUP4 PUSH1 0x0 JUMPDEST DUP4 DUP2 LT ISZERO PUSH2 0x2E79 JUMPI DUP2 DUP2 ADD MLOAD DUP4 DUP3 ADD MSTORE PUSH1 0x20 ADD PUSH2 0x2E61 JUMP JUMPDEST POP POP POP POP SWAP1 POP ADD PUSH1 0x40 MSTORE POP POP POP SWAP1 POP SWAP1 JUMP JUMPDEST PUSH1 0x0 PUSH1 0x1 PUSH2 0x2E97 PUSH2 0x5F3A JUMP JUMPDEST SWAP1 PUSH2 0x100 EXP SWAP1 DIV PUSH1 0x1 PUSH1 0x1 PUSH1 0xA0 SHL SUB AND PUSH1 0x1 PUSH1 0x1 PUSH1 0xA0 SHL SUB AND GAS PUSH2 0x2EB9 PUSH2 0x5FFA JUMP JUMPDEST PUSH1 0x1 PUSH1 0x1 PUSH1 0xA0 SHL SUB AND EQ PUSH2 0x2EFE JUMPI PUSH1 0x40 MLOAD PUSH3 0x461BCD PUSH1 0xE5 SHL DUP2 MSTORE PUSH1 0x4 ADD DUP1 DUP1 PUSH1 0x20 ADD DUP3 DUP2 SUB DUP3 MSTORE PUSH1 0x35 DUP2 MSTORE PUSH1 0x20 ADD DUP1 PUSH2 0x60F0 PUSH1 0x35 SWAP2 CODECOPY PUSH1 0x40 ADD SWAP2 POP POP PUSH1 0x40 MLOAD DUP1 SWAP2 SUB SWAP1 REVERT JUMPDEST PUSH32 0xB532073B38C83145E3E5135377A08BF9AAB55BC0FD7C1179CD4FB995D2A5159C PUSH1 0x0 DUP1 PUSH2 0x2F2A PUSH2 0x5F3A JUMP JUMPDEST SWAP1 PUSH2 0x100 EXP SWAP1 DIV PUSH1 0x1 PUSH1 0x1 PUSH1 0xA0 SHL SUB AND PUSH1 0x1 PUSH1 0x0 SWAP1 PUSH2 0x2F47 PUSH2 0x5F3A JUMP JUMPDEST PUSH1 0x40 DUP1 MLOAD PUSH1 0x1 PUSH1 0x1 PUSH1 0xA0 SHL SUB SWAP5 DUP6 AND DUP2 MSTORE PUSH2 0x100 SWAP4 SWAP1 SWAP4 EXP SWAP1 SWAP2 DIV SWAP1 SWAP3 AND PUSH1 0x20 DUP3 ADD MSTORE DUP2 MLOAD SWAP1 DUP2 SWAP1 SUB SWAP1 SWAP2 ADD SWAP1 LOG1 PUSH1 0x0 PUSH1 0x1 PUSH2 0x2F81 PUSH2 0x5F3A JUMP JUMPDEST SWAP1 PUSH2 0x100 EXP SWAP1 DIV PUSH1 0x1 PUSH1 0x1 PUSH1 0xA0 SHL SUB AND PUSH1 0x0 DUP1 PUSH2 0x100 EXP DUP2 PUSH2 0x2FA1 PUSH2 0x5F3A JUMP JUMPDEST DUP2 PUSH1 0x1 PUSH1 0x1 PUSH1 0xA0 SHL SUB MUL NOT AND SWAP1 DUP4 PUSH1 0x1 PUSH1 0x1 PUSH1 0xA0 SHL SUB AND MUL OR SWAP1 PUSH2 0x2FC3 PUSH2 0x601E JUMP JUMPDEST POP POP POP PUSH1 0x0 PUSH1 0x1 PUSH1 0x0 PUSH2 0x100 EXP DUP2 PUSH2 0x2FD9 PUSH2 0x5F3A JUMP JUMPDEST DUP2 PUSH1 0x1 PUSH1 0x1 PUSH1 0xA0 SHL SUB MUL NOT AND SWAP1 DUP4 PUSH1 0x1 PUSH1 0x1 PUSH1 0xA0 SHL SUB AND MUL OR SWAP1 PUSH2 0x2FFB PUSH2 0x601E JUMP JUMPDEST POP POP POP JUMP JUMPDEST PUSH1 0x0 PUSH2 0x300A PUSH2 0x50BF JUMP JUMPDEST PUSH1 0x1 PUSH1 0x1 PUSH1 0xA0 SHL SUB AND PUSH4 0x835E119C DUP4 PUSH1 0x40 MLOAD DUP3 PUSH4 0xFFFFFFFF AND PUSH1 0xE0 SHL DUP2 MSTORE PUSH1 0x4 ADD DUP1 DUP3 DUP2 MSTORE PUSH1 0x20 ADD SWAP2 POP POP PUSH1 0x20 PUSH1 0x40 MLOAD DUP1 DUP4 SUB DUP2 DUP7 DUP1 PUSH2 0xD00 PUSH2 0x5F72 JUMP JUMPDEST PUSH1 0x0 PUSH2 0x3052 PUSH2 0x50BF JUMP JUMPDEST PUSH1 0x1 PUSH1 0x1 PUSH1 0xA0 SHL SUB AND PUSH4 0x7B1001B7 DUP4 PUSH1 0x0 PUSH1 0x40 MLOAD DUP4 PUSH4 0xFFFFFFFF AND PUSH1 0xE0 SHL DUP2 MSTORE PUSH1 0x4 ADD DUP1 DUP4 DUP2 MSTORE PUSH1 0x20 ADD DUP3 ISZERO ISZERO ISZERO ISZERO DUP2 MSTORE PUSH1 0x20 ADD SWAP3 POP POP POP PUSH1 0x20 PUSH1 0x40 MLOAD DUP1 DUP4 SUB DUP2 DUP7 DUP1 PUSH2 0xD00 PUSH2 0x5F72 JUMP JUMPDEST PUSH2 0x30A5 PUSH2 0x51EC JUMP JUMPDEST PUSH1 0x1 PUSH1 0x1 PUSH1 0xA0 SHL SUB AND PUSH4 0x7C312541 PUSH1 0x40 MLOAD DUP2 PUSH4 0xFFFFFFFF AND PUSH1 0xE0 SHL DUP2 MSTORE PUSH1 0x4 ADD PUSH1 0x0 PUSH1 0x40 MLOAD DUP1 DUP4 SUB DUP2 DUP7 DUP1 PUSH2 0x30D8 PUSH2 0x5F72 JUMP JUMPDEST ISZERO DUP1 ISZERO PUSH2 0x30E4 JUMPI PUSH1 0x0 DUP1 REVERT JUMPDEST POP GAS PUSH2 0x30EE PUSH2 0x5FA3 JUMP JUMPDEST POP POP POP POP POP ISZERO DUP1 ISZERO PUSH2 0x3104 JUMPI RETURNDATASIZE PUSH1 0x0 DUP1 RETURNDATACOPY RETURNDATASIZE PUSH1 0x0 REVERT JUMPDEST POP POP POP POP PUSH1 0x4 PUSH1 0x0 SWAP1 PUSH2 0x3115 PUSH2 0x5F3A JUMP JUMPDEST SWAP1 PUSH2 0x100 EXP SWAP1 DIV PUSH1 0x1 PUSH1 0x1 PUSH1 0xA0 SHL SUB AND PUSH1 0x1 PUSH1 0x1 PUSH1 0xA0 SHL SUB AND GAS PUSH2 0x3137 PUSH2 0x5FFA JUMP JUMPDEST PUSH1 0x1 PUSH1 0x1 PUSH1 0xA0 SHL SUB AND EQ ISZERO DUP1 ISZERO PUSH2 0x3183 JUMPI POP PUSH1 0x0 PUSH1 0x5 PUSH2 0x3155 PUSH2 0x5F3A JUMP JUMPDEST SWAP1 PUSH2 0x100 EXP SWAP1 DIV PUSH1 0x1 PUSH1 0x1 PUSH1 0xA0 SHL SUB AND PUSH1 0x1 PUSH1 0x1 PUSH1 0xA0 SHL SUB AND GAS PUSH2 0x3177 PUSH2 0x5FFA JUMP JUMPDEST PUSH1 0x1 PUSH1 0x1 PUSH1 0xA0 SHL SUB AND EQ ISZERO JUMPDEST DUP1 ISZERO PUSH2 0x31C4 JUMPI POP GAS PUSH2 0x3193 PUSH2 0x5FFA JUMP JUMPDEST PUSH1 0x1 PUSH1 0x1 PUSH1 0xA0 SHL SUB AND PUSH1 0x0 PUSH1 0x6 PUSH2 0x31A8 PUSH2 0x5F3A JUMP JUMPDEST SWAP1 PUSH2 0x100 EXP SWAP1 DIV PUSH1 0x1 PUSH1 0x1 PUSH1 0xA0 SHL SUB AND PUSH1 0x1 PUSH1 0x1 PUSH1 0xA0 SHL SUB AND EQ ISZERO JUMPDEST ISZERO PUSH2 0x3205 JUMPI GAS PUSH2 0x31D2 PUSH2 0x5FFA JUMP JUMPDEST PUSH1 0x6 PUSH1 0x1 DUP2 PUSH2 0x31DF PUSH2 0x5F3A JUMP JUMPDEST DUP2 PUSH1 0x1 PUSH1 0x1 PUSH1 0xA0 SHL SUB MUL NOT AND SWAP1 DUP4 PUSH1 0x1 PUSH1 0x1 PUSH1 0xA0 SHL SUB AND MUL OR SWAP1 PUSH2 0x3201 PUSH2 0x601E JUMP JUMPDEST POP POP POP JUMPDEST PUSH2 0x320D PUSH2 0x50BF JUMP JUMPDEST PUSH1 0x1 PUSH1 0x1 PUSH1 0xA0 SHL SUB AND PUSH4 0x42E0688 PUSH1 0x0 PUSH1 0x6 PUSH2 0x1E81 PUSH2 0x5F3A JUMP JUMPDEST PUSH1 0x0 DUP1 PUSH2 0xC93 PUSH2 0x5F3A JUMP JUMPDEST PUSH4 0x1CD554D1 PUSH1 0xE2 SHL DUP2 JUMP JUMPDEST PUSH1 0x9 DUP1 PUSH2 0x3248 PUSH2 0x5F3A JUMP JUMPDEST PUSH1 0x1 DUP2 PUSH1 0x1 AND ISZERO PUSH2 0x100 MUL SUB AND PUSH1 0x2 SWAP1 DIV DUP1 PUSH1 0x1F ADD PUSH1 0x20 DUP1 SWAP2 DIV MUL PUSH1 0x20 ADD PUSH1 0x40 MLOAD SWAP1 DUP2 ADD PUSH1 0x40 MSTORE DUP1 SWAP3 SWAP2 SWAP1 DUP2 DUP2 MSTORE PUSH1 0x20 ADD DUP3 DUP1 PUSH2 0x3283 PUSH2 0x5F3A JUMP JUMPDEST PUSH1 0x1 DUP2 PUSH1 0x1 AND ISZERO PUSH2 0x100 MUL SUB AND PUSH1 0x2 SWAP1 DIV DUP1 ISZERO PUSH2 0xDFE JUMPI DUP1 PUSH1 0x1F LT PUSH2 0x32AF JUMPI PUSH2 0x100 DUP1 DUP4 PUSH2 0xDBE PUSH2 0x5F3A JUMP JUMPDEST DUP3 ADD SWAP2 SWAP1 PUSH1 0x0 MSTORE PUSH1 0x20 PUSH1 0x0 KECCAK256 SWAP1 JUMPDEST DUP2 PUSH2 0x32C6 PUSH2 0x5F3A JUMP JUMPDEST DUP2 MSTORE SWAP1 PUSH1 0x1 ADD SWAP1 PUSH1 0x20 ADD DUP1 DUP4 GT PUSH2 0x32BD JUMPI POP DUP6 SWAP4 POP POP POP POP JUMP JUMPDEST PUSH1 0x0 DUP1 PUSH2 0x32EB PUSH2 0x5F3A JUMP JUMPDEST SWAP1 PUSH2 0x100 EXP SWAP1 DIV PUSH1 0x1 PUSH1 0x1 PUSH1 0xA0 SHL SUB AND PUSH1 0x1 PUSH1 0x1 PUSH1 0xA0 SHL SUB AND GAS PUSH2 0x330D PUSH2 0x5FFA JUMP JUMPDEST PUSH1 0x1 PUSH1 0x1 PUSH1 0xA0 SHL SUB AND EQ PUSH2 0x3352 JUMPI PUSH1 0x40 MLOAD PUSH3 0x461BCD PUSH1 0xE5 SHL DUP2 MSTORE PUSH1 0x4 ADD DUP1 DUP1 PUSH1 0x20 ADD DUP3 DUP2 SUB DUP3 MSTORE PUSH1 0x2F DUP2 MSTORE PUSH1 0x20 ADD DUP1 PUSH2 0x61B1 PUSH1 0x2F SWAP2 CODECOPY PUSH1 0x40 ADD SWAP2 POP POP PUSH1 0x40 MLOAD DUP1 SWAP2 SUB SWAP1 REVERT JUMPDEST DUP1 PUSH1 0x4 PUSH1 0x1 DUP2 PUSH2 0x3360 PUSH2 0x5F3A JUMP JUMPDEST DUP2 PUSH1 0x1 PUSH1 0x1 PUSH1 0xA0 SHL SUB MUL NOT AND SWAP1 DUP4 PUSH1 0x1 PUSH1 0x1 PUSH1 0xA0 SHL SUB AND MUL OR SWAP1 PUSH2 0x3382 PUSH2 0x601E JUMP JUMPDEST POP POP PUSH1 0x40 DUP1 MLOAD PUSH1 0x1 PUSH1 0x1 PUSH1 0xA0 SHL SUB DUP5 AND DUP2 MSTORE SWAP1 MLOAD PUSH32 0xFC80377CA9C49CC11AE6982F390A42DB976D5530AF7C43889264B13FBBD7C57E SWAP3 POP SWAP1 DUP2 SWAP1 SUB PUSH1 0x20 ADD SWAP1 LOG1 POP JUMP JUMPDEST PUSH2 0x33CD PUSH2 0x51EC JUMP JUMPDEST PUSH1 0x1 PUSH1 0x1 PUSH1 0xA0 SHL SUB AND PUSH4 0x7C312541 PUSH1 0x40 MLOAD DUP2 PUSH4 0xFFFFFFFF AND PUSH1 0xE0 SHL DUP2 MSTORE PUSH1 0x4 ADD PUSH1 0x0 PUSH1 0x40 MLOAD DUP1 DUP4 SUB DUP2 DUP7 DUP1 PUSH2 0x3400 PUSH2 0x5F72 JUMP JUMPDEST ISZERO DUP1 ISZERO PUSH2 0x340C JUMPI PUSH1 0x0 DUP1 REVERT JUMPDEST POP GAS PUSH2 0x3416 PUSH2 0x5FA3 JUMP JUMPDEST POP POP POP POP POP ISZERO DUP1 ISZERO PUSH2 0x342C JUMPI RETURNDATASIZE PUSH1 0x0 DUP1 RETURNDATACOPY RETURNDATASIZE PUSH1 0x0 REVERT JUMPDEST POP POP POP POP PUSH1 0x4 PUSH1 0x0 SWAP1 PUSH2 0x343D PUSH2 0x5F3A JUMP JUMPDEST SWAP1 PUSH2 0x100 EXP SWAP1 DIV PUSH1 0x1 PUSH1 0x1 PUSH1 0xA0 SHL SUB AND PUSH1 0x1 PUSH1 0x1 PUSH1 0xA0 SHL SUB AND GAS PUSH2 0x345F PUSH2 0x5FFA JUMP JUMPDEST PUSH1 0x1 PUSH1 0x1 PUSH1 0xA0 SHL SUB AND EQ ISZERO DUP1 ISZERO PUSH2 0x34AB JUMPI POP PUSH1 0x0 PUSH1 0x5 PUSH2 0x347D PUSH2 0x5F3A JUMP JUMPDEST SWAP1 PUSH2 0x100 EXP SWAP1 DIV PUSH1 0x1 PUSH1 0x1 PUSH1 0xA0 SHL SUB AND PUSH1 0x1 PUSH1 0x1 PUSH1 0xA0 SHL SUB AND GAS PUSH2 0x349F PUSH2 0x5FFA JUMP JUMPDEST PUSH1 0x1 PUSH1 0x1 PUSH1 0xA0 SHL SUB AND EQ ISZERO JUMPDEST DUP1 ISZERO PUSH2 0x34EC JUMPI POP GAS PUSH2 0x34BB PUSH2 0x5FFA JUMP JUMPDEST PUSH1 0x1 PUSH1 0x1 PUSH1 0xA0 SHL SUB AND PUSH1 0x0 PUSH1 0x6 PUSH2 0x34D0 PUSH2 0x5F3A JUMP JUMPDEST SWAP1 PUSH2 0x100 EXP SWAP1 DIV PUSH1 0x1 PUSH1 0x1 PUSH1 0xA0 SHL SUB AND PUSH1 0x1 PUSH1 0x1 PUSH1 0xA0 SHL SUB AND EQ ISZERO JUMPDEST ISZERO PUSH2 0x352D JUMPI GAS PUSH2 0x34FA PUSH2 0x5FFA JUMP JUMPDEST PUSH1 0x6 PUSH1 0x1 DUP2 PUSH2 0x3507 PUSH2 0x5F3A JUMP JUMPDEST DUP2 PUSH1 0x1 PUSH1 0x1 PUSH1 0xA0 SHL SUB MUL NOT AND SWAP1 DUP4 PUSH1 0x1 PUSH1 0x1 PUSH1 0xA0 SHL SUB AND MUL OR SWAP1 PUSH2 0x3529 PUSH2 0x601E JUMP JUMPDEST POP POP POP JUMPDEST PUSH2 0x3535 PUSH2 0x50BF JUMP JUMPDEST PUSH1 0x1 PUSH1 0x1 PUSH1 0xA0 SHL SUB AND PUSH4 0x497D704A PUSH1 0x0 PUSH1 0x6 PUSH2 0x354F PUSH2 0x5F3A JUMP JUMPDEST SWAP1 PUSH2 0x100 EXP SWAP1 DIV PUSH1 0x1 PUSH1 0x1 PUSH1 0xA0 SHL SUB AND PUSH1 0x40 MLOAD DUP3 PUSH4 0xFFFFFFFF AND PUSH1 0xE0 SHL DUP2 MSTORE PUSH1 0x4 ADD DUP1 DUP3 PUSH1 0x1 PUSH1 0x1 PUSH1 0xA0 SHL SUB AND PUSH1 0x1 PUSH1 0x1 PUSH1 0xA0 SHL SUB AND DUP2 MSTORE PUSH1 0x20 ADD SWAP2 POP POP PUSH1 0x0 PUSH1 0x40 MLOAD DUP1 DUP4 SUB DUP2 PUSH1 0x0 DUP8 DUP1 PUSH2 0x35A2 PUSH2 0x5F72 JUMP JUMPDEST ISZERO DUP1 ISZERO PUSH2 0x35AE JUMPI PUSH1 0x0 DUP1 REVERT JUMPDEST POP GAS PUSH2 0x35B8 PUSH2 0x6055 JUMP JUMPDEST POP POP POP POP POP POP ISZERO DUP1 ISZERO PUSH2 0x17B7 JUMPI RETURNDATASIZE PUSH1 0x0 DUP1 RETURNDATACOPY RETURNDATASIZE PUSH1 0x0 REVERT JUMPDEST PUSH1 0x0 DUP1 DUP1 DUP1 PUSH1 0x4 PUSH2 0x35DE PUSH2 0x5F3A JUMP JUMPDEST SWAP1 PUSH2 0x100 EXP SWAP1 DIV PUSH1 0x1 PUSH1 0x1 PUSH1 0xA0 SHL SUB AND PUSH1 0x1 PUSH1 0x1 PUSH1 0xA0 SHL SUB AND GAS PUSH2 0x3600 PUSH2 0x5FFA JUMP JUMPDEST PUSH1 0x1 PUSH1 0x1 PUSH1 0xA0 SHL SUB AND EQ ISZERO DUP1 ISZERO PUSH2 0x364C JUMPI POP PUSH1 0x0 PUSH1 0x5 PUSH2 0x361E PUSH2 0x5F3A JUMP JUMPDEST SWAP1 PUSH2 0x100 EXP SWAP1 DIV PUSH1 0x1 PUSH1 0x1 PUSH1 0xA0 SHL SUB AND PUSH1 0x1 PUSH1 0x1 PUSH1 0xA0 SHL SUB AND GAS PUSH2 0x3640 PUSH2 0x5FFA JUMP JUMPDEST PUSH1 0x1 PUSH1 0x1 PUSH1 0xA0 SHL SUB AND EQ ISZERO JUMPDEST DUP1 ISZERO PUSH2 0x368D JUMPI POP GAS PUSH2 0x365C PUSH2 0x5FFA JUMP JUMPDEST PUSH1 0x1 PUSH1 0x1 PUSH1 0xA0 SHL SUB AND PUSH1 0x0 PUSH1 0x6 PUSH2 0x3671 PUSH2 0x5F3A JUMP JUMPDEST SWAP1 PUSH2 0x100 EXP SWAP1 DIV PUSH1 0x1 PUSH1 0x1 PUSH1 0xA0 SHL SUB AND PUSH1 0x1 PUSH1 0x1 PUSH1 0xA0 SHL SUB AND EQ ISZERO JUMPDEST ISZERO PUSH2 0x36CE JUMPI GAS PUSH2 0x369B PUSH2 0x5FFA JUMP JUMPDEST PUSH1 0x6 PUSH1 0x1 DUP2 PUSH2 0x36A8 PUSH2 0x5F3A JUMP JUMPDEST DUP2 PUSH1 0x1 PUSH1 0x1 PUSH1 0xA0 SHL SUB MUL NOT AND SWAP1 DUP4 PUSH1 0x1 PUSH1 0x1 PUSH1 0xA0 SHL SUB AND MUL OR SWAP1 PUSH2 0x36CA PUSH2 0x601E JUMP JUMPDEST POP POP POP JUMPDEST PUSH2 0x36D6 PUSH2 0x53F4 JUMP JUMPDEST PUSH1 0x1 PUSH1 0x1 PUSH1 0xA0 SHL SUB AND PUSH4 0x1B16802C PUSH1 0x0 PUSH1 0x6 PUSH2 0x36F0 PUSH2 0x5F3A JUMP JUMPDEST SWAP1 PUSH2 0x100 EXP SWAP1 DIV PUSH1 0x1 PUSH1 0x1 PUSH1 0xA0 SHL SUB AND DUP7 PUSH1 0x40 MLOAD DUP4 PUSH4 0xFFFFFFFF AND PUSH1 0xE0 SHL DUP2 MSTORE PUSH1 0x4 ADD DUP1 DUP4 PUSH1 0x1 PUSH1 0x1 PUSH1 0xA0 SHL SUB AND PUSH1 0x1 PUSH1 0x1 PUSH1 0xA0 SHL SUB AND DUP2 MSTORE PUSH1 0x20 ADD DUP3 DUP2 MSTORE PUSH1 0x20 ADD SWAP3 POP POP POP PUSH1 0x60 PUSH1 0x40 MLOAD DUP1 DUP4 SUB DUP2 PUSH1 0x0 DUP8 DUP1 PUSH2 0x374B PUSH2 0x5F72 JUMP JUMPDEST ISZERO DUP1 ISZERO PUSH2 0x3757 JUMPI PUSH1 0x0 DUP1 REVERT JUMPDEST POP GAS PUSH2 0x3761 PUSH2 0x6055 JUMP JUMPDEST POP POP POP POP POP POP ISZERO DUP1 ISZERO PUSH2 0x105B JUMPI RETURNDATASIZE PUSH1 0x0 DUP1 RETURNDATACOPY RETURNDATASIZE PUSH1 0x0 REVERT JUMPDEST PUSH1 0x0 DUP1 PUSH2 0x3783 PUSH2 0x5F3A JUMP JUMPDEST SWAP1 PUSH2 0x100 EXP SWAP1 DIV PUSH1 0x1 PUSH1 0x1 PUSH1 0xA0 SHL SUB AND PUSH1 0x1 PUSH1 0x1 PUSH1 0xA0 SHL SUB AND GAS PUSH2 0x37A5 PUSH2 0x5FFA JUMP JUMPDEST PUSH1 0x1 PUSH1 0x1 PUSH1 0xA0 SHL SUB AND EQ PUSH2 0x37EA JUMPI PUSH1 0x40 MLOAD PUSH3 0x461BCD PUSH1 0xE5 SHL DUP2 MSTORE PUSH1 0x4 ADD DUP1 DUP1 PUSH1 0x20 ADD DUP3 DUP2 SUB DUP3 MSTORE PUSH1 0x2F DUP2 MSTORE PUSH1 0x20 ADD DUP1 PUSH2 0x61B1 PUSH1 0x2F SWAP2 CODECOPY PUSH1 0x40 ADD SWAP2 POP POP PUSH1 0x40 MLOAD DUP1 SWAP2 SUB SWAP1 REVERT JUMPDEST PUSH1 0x0 PUSH1 0x3 PUSH2 0x37F6 PUSH2 0x5F3A JUMP JUMPDEST SWAP1 PUSH2 0x100 EXP SWAP1 DIV PUSH1 0xFF AND PUSH2 0x3851 JUMPI PUSH1 0x40 DUP1 MLOAD PUSH3 0x461BCD PUSH1 0xE5 SHL DUP2 MSTORE PUSH1 0x20 PUSH1 0x4 DUP3 ADD MSTORE PUSH1 0x1F PUSH1 0x24 DUP3 ADD MSTORE PUSH32 0x53656C66204465737472756374206E6F742079657420696E6974696174656400 PUSH1 0x44 DUP3 ADD MSTORE SWAP1 MLOAD SWAP1 DUP2 SWAP1 SUB PUSH1 0x64 ADD SWAP1 REVERT JUMPDEST GAS PUSH2 0x385A PUSH2 0x60AC JUMP JUMPDEST PUSH3 0x24EA00 PUSH1 0x2 PUSH2 0x3868 PUSH2 0x5F3A JUMP JUMPDEST ADD LT PUSH2 0x38BB JUMPI PUSH1 0x40 DUP1 MLOAD PUSH3 0x461BCD PUSH1 0xE5 SHL DUP2 MSTORE PUSH1 0x20 PUSH1 0x4 DUP3 ADD MSTORE PUSH1 0x1B PUSH1 0x24 DUP3 ADD MSTORE PUSH32 0x53656C662064657374727563742064656C6179206E6F74206D65740000000000 PUSH1 0x44 DUP3 ADD MSTORE SWAP1 MLOAD SWAP1 DUP2 SWAP1 SUB PUSH1 0x64 ADD SWAP1 REVERT JUMPDEST PUSH32 0x8A09E1677CED846CB537DC2B172043BD05A1A81AD7E0033A7EF8BA762DF990B7 PUSH1 0x1 PUSH1 0x3 PUSH2 0x38E8 PUSH2 0x5F3A JUMP JUMPDEST PUSH1 0x40 DUP1 MLOAD PUSH2 0x100 SWAP4 SWAP1 SWAP4 EXP SWAP1 SWAP2 DIV PUSH1 0x1 PUSH1 0x1 PUSH1 0xA0 SHL SUB AND DUP3 MSTORE MLOAD PUSH1 0x20 SWAP2 DUP2 SWAP1 SUB SWAP2 SWAP1 SWAP2 ADD SWAP1 LOG1 JUMP JUMPDEST PUSH1 0x0 PUSH1 0x5 PUSH2 0xC93 PUSH2 0x5F3A JUMP JUMPDEST PUSH1 0x0 PUSH1 0x4 PUSH2 0x3928 PUSH2 0x5F3A JUMP JUMPDEST SWAP1 PUSH2 0x100 EXP SWAP1 DIV PUSH1 0x1 PUSH1 0x1 PUSH1 0xA0 SHL SUB AND PUSH1 0x1 PUSH1 0x1 PUSH1 0xA0 SHL SUB AND GAS PUSH2 0x394A PUSH2 0x5FFA JUMP JUMPDEST PUSH1 0x1 PUSH1 0x1 PUSH1 0xA0 SHL SUB AND EQ ISZERO DUP1 ISZERO PUSH2 0x3996 JUMPI POP PUSH1 0x0 PUSH1 0x5 PUSH2 0x3968 PUSH2 0x5F3A JUMP JUMPDEST SWAP1 PUSH2 0x100 EXP SWAP1 DIV PUSH1 0x1 PUSH1 0x1 PUSH1 0xA0 SHL SUB AND PUSH1 0x1 PUSH1 0x1 PUSH1 0xA0 SHL SUB AND GAS PUSH2 0x398A PUSH2 0x5FFA JUMP JUMPDEST PUSH1 0x1 PUSH1 0x1 PUSH1 0xA0 SHL SUB AND EQ ISZERO JUMPDEST DUP1 ISZERO PUSH2 0x39D7 JUMPI POP GAS PUSH2 0x39A6 PUSH2 0x5FFA JUMP JUMPDEST PUSH1 0x1 PUSH1 0x1 PUSH1 0xA0 SHL SUB AND PUSH1 0x0 PUSH1 0x6 PUSH2 0x39BB PUSH2 0x5F3A JUMP JUMPDEST SWAP1 PUSH2 0x100 EXP SWAP1 DIV PUSH1 0x1 PUSH1 0x1 PUSH1 0xA0 SHL SUB AND PUSH1 0x1 PUSH1 0x1 PUSH1 0xA0 SHL SUB AND EQ ISZERO JUMPDEST ISZERO PUSH2 0x3A18 JUMPI GAS PUSH2 0x39E5 PUSH2 0x5FFA JUMP JUMPDEST PUSH1 0x6 PUSH1 0x1 DUP2 PUSH2 0x39F2 PUSH2 0x5F3A JUMP JUMPDEST DUP2 PUSH1 0x1 PUSH1 0x1 PUSH1 0xA0 SHL SUB MUL NOT AND SWAP1 DUP4 PUSH1 0x1 PUSH1 0x1 PUSH1 0xA0 SHL SUB AND MUL OR SWAP1 PUSH2 0x3A14 PUSH2 0x601E JUMP JUMPDEST POP POP POP JUMPDEST PUSH1 0x0 DUP1 PUSH2 0x3A23 PUSH2 0x5F3A JUMP JUMPDEST PUSH1 0x1 PUSH1 0x1 PUSH1 0xA0 SHL SUB PUSH2 0x100 SWAP3 SWAP1 SWAP3 EXP SWAP1 DIV AND PUSH1 0x0 PUSH1 0x6 PUSH2 0x3A41 PUSH2 0x5F3A JUMP JUMPDEST SWAP1 PUSH2 0x100 EXP SWAP1 DIV PUSH1 0x1 PUSH1 0x1 PUSH1 0xA0 SHL SUB AND PUSH1 0x1 PUSH1 0x1 PUSH1 0xA0 SHL SUB AND EQ PUSH2 0x3AA2 JUMPI PUSH1 0x40 DUP1 MLOAD PUSH3 0x461BCD PUSH1 0xE5 SHL DUP2 MSTORE PUSH1 0x20 PUSH1 0x4 DUP3 ADD MSTORE PUSH1 0x13 PUSH1 0x24 DUP3 ADD MSTORE PUSH19 0x27BBB732B91037B7363C90333AB731BA34B7B7 PUSH1 0x69 SHL PUSH1 0x44 DUP3 ADD MSTORE SWAP1 MLOAD SWAP1 DUP2 SWAP1 SUB PUSH1 0x64 ADD SWAP1 REVERT JUMPDEST DUP1 PUSH1 0x7 PUSH1 0x1 DUP2 PUSH2 0x3AB0 PUSH2 0x5F3A JUMP JUMPDEST DUP2 PUSH1 0x1 PUSH1 0x1 PUSH1 0xA0 SHL SUB MUL NOT AND SWAP1 DUP4 PUSH1 0x1 PUSH1 0x1 PUSH1 0xA0 SHL SUB AND MUL OR SWAP1 PUSH2 0x3AD2 PUSH2 0x601E JUMP JUMPDEST POP POP POP PUSH2 0x1F0E DUP2 PUSH2 0x585B JUMP JUMPDEST PUSH1 0x0 PUSH2 0x3AE8 PUSH2 0x50BF JUMP JUMPDEST PUSH1 0x1 PUSH1 0x1 PUSH1 0xA0 SHL SUB AND PUSH4 0xA311C7C2 DUP4 PUSH1 0x40 MLOAD DUP3 PUSH4 0xFFFFFFFF AND PUSH1 0xE0 SHL DUP2 MSTORE PUSH1 0x4 ADD DUP1 DUP3 PUSH1 0x1 PUSH1 0x1 PUSH1 0xA0 SHL SUB AND PUSH1 0x1 PUSH1 0x1 PUSH1 0xA0 SHL SUB AND DUP2 MSTORE PUSH1 0x20 ADD SWAP2 POP POP PUSH1 0x20 PUSH1 0x40 MLOAD DUP1 DUP4 SUB DUP2 DUP7 DUP1 PUSH2 0xD00 PUSH2 0x5F72 JUMP JUMPDEST PUSH3 0x24EA00 DUP2 JUMP JUMPDEST PUSH1 0x0 PUSH2 0x3B49 PUSH2 0x50BF JUMP JUMPDEST PUSH1 0x1 PUSH1 0x1 PUSH1 0xA0 SHL SUB AND PUSH4 0xA5FDC5DE DUP4 PUSH1 0x40 MLOAD DUP3 PUSH4 0xFFFFFFFF AND PUSH1 0xE0 SHL DUP2 MSTORE PUSH1 0x4 ADD DUP1 DUP3 PUSH1 0x1 PUSH1 0x1 PUSH1 0xA0 SHL SUB AND PUSH1 0x1 PUSH1 0x1 PUSH1 0xA0 SHL SUB AND DUP2 MSTORE PUSH1 0x20 ADD SWAP2 POP POP PUSH1 0x20 PUSH1 0x40 MLOAD DUP1 DUP4 SUB DUP2 DUP7 DUP1 PUSH2 0xD00 PUSH2 0x5F72 JUMP JUMPDEST PUSH1 0x0 DUP1 PUSH1 0x4 PUSH2 0x3BA6 PUSH2 0x5F3A JUMP JUMPDEST SWAP1 PUSH2 0x100 EXP SWAP1 DIV PUSH1 0x1 PUSH1 0x1 PUSH1 0xA0 SHL SUB AND PUSH1 0x1 PUSH1 0x1 PUSH1 0xA0 SHL SUB AND GAS PUSH2 0x3BC8 PUSH2 0x5FFA JUMP JUMPDEST PUSH1 0x1 PUSH1 0x1 PUSH1 0xA0 SHL SUB AND EQ ISZERO DUP1 ISZERO PUSH2 0x3C14 JUMPI POP PUSH1 0x0 PUSH1 0x5 PUSH2 0x3BE6 PUSH2 0x5F3A JUMP JUMPDEST SWAP1 PUSH2 0x100 EXP SWAP1 DIV PUSH1 0x1 PUSH1 0x1 PUSH1 0xA0 SHL SUB AND PUSH1 0x1 PUSH1 0x1 PUSH1 0xA0 SHL SUB AND GAS PUSH2 0x3C08 PUSH2 0x5FFA JUMP JUMPDEST PUSH1 0x1 PUSH1 0x1 PUSH1 0xA0 SHL SUB AND EQ ISZERO JUMPDEST DUP1 ISZERO PUSH2 0x3C55 JUMPI POP GAS PUSH2 0x3C24 PUSH2 0x5FFA JUMP JUMPDEST PUSH1 0x1 PUSH1 0x1 PUSH1 0xA0 SHL SUB AND PUSH1 0x0 PUSH1 0x6 PUSH2 0x3C39 PUSH2 0x5F3A JUMP JUMPDEST SWAP1 PUSH2 0x100 EXP SWAP1 DIV PUSH1 0x1 PUSH1 0x1 PUSH1 0xA0 SHL SUB AND PUSH1 0x1 PUSH1 0x1 PUSH1 0xA0 SHL SUB AND EQ ISZERO JUMPDEST ISZERO PUSH2 0x3C96 JUMPI GAS PUSH2 0x3C63 PUSH2 0x5FFA JUMP JUMPDEST PUSH1 0x6 PUSH1 0x1 DUP2 PUSH2 0x3C70 PUSH2 0x5F3A JUMP JUMPDEST DUP2 PUSH1 0x1 PUSH1 0x1 PUSH1 0xA0 SHL SUB MUL NOT AND SWAP1 DUP4 PUSH1 0x1 PUSH1 0x1 PUSH1 0xA0 SHL SUB AND MUL OR SWAP1 PUSH2 0x3C92 PUSH2 0x601E JUMP JUMPDEST POP POP POP JUMPDEST PUSH2 0x3C9E PUSH2 0x51EC JUMP JUMPDEST PUSH1 0x1 PUSH1 0x1 PUSH1 0xA0 SHL SUB AND PUSH4 0x86DABD1 PUSH1 0x40 MLOAD DUP2 PUSH4 0xFFFFFFFF AND PUSH1 0xE0 SHL DUP2 MSTORE PUSH1 0x4 ADD PUSH1 0x0 PUSH1 0x40 MLOAD DUP1 DUP4 SUB DUP2 DUP7 DUP1 PUSH2 0x3CD1 PUSH2 0x5F72 JUMP JUMPDEST ISZERO DUP1 ISZERO PUSH2 0x3CDD JUMPI PUSH1 0x0 DUP1 REVERT JUMPDEST POP GAS PUSH2 0x3CE7 PUSH2 0x5FA3 JUMP JUMPDEST POP POP POP POP POP ISZERO DUP1 ISZERO PUSH2 0x3CFD JUMPI RETURNDATASIZE PUSH1 0x0 DUP1 RETURNDATACOPY RETURNDATASIZE PUSH1 0x0 REVERT JUMPDEST POP POP POP POP PUSH2 0x3D27 PUSH1 0x6 PUSH1 0x0 SWAP1 PUSH2 0x3D11 PUSH2 0x5F3A JUMP JUMPDEST SWAP1 PUSH2 0x100 EXP SWAP1 DIV PUSH1 0x1 PUSH1 0x1 PUSH1 0xA0 SHL SUB AND DUP4 PUSH2 0x5441 JUMP JUMPDEST POP PUSH2 0xFC8 PUSH1 0x0 PUSH1 0x6 PUSH2 0x3D37 PUSH2 0x5F3A JUMP JUMPDEST SWAP1 PUSH2 0x100 EXP SWAP1 DIV PUSH1 0x1 PUSH1 0x1 PUSH1 0xA0 SHL SUB AND DUP5 DUP5 PUSH2 0x5992 JUMP JUMPDEST PUSH2 0x3D56 PUSH2 0x60D0 JUMP JUMPDEST PUSH1 0x0 JUMPDEST PUSH1 0xD DUP1 PUSH2 0x3D64 PUSH2 0x5F3A JUMP JUMPDEST SWAP1 POP DUP2 LT ISZERO PUSH2 0x3DAC JUMPI PUSH1 0xD DUP2 DUP2 PUSH2 0x3D79 PUSH2 0x5F3A JUMP JUMPDEST DUP2 LT PUSH2 0x3D81 JUMPI INVALID JUMPDEST SWAP1 PUSH1 0x0 MSTORE PUSH1 0x20 PUSH1 0x0 KECCAK256 ADD PUSH2 0x3D93 PUSH2 0x5F3A JUMP JUMPDEST DUP3 DUP3 PUSH1 0x18 DUP2 LT PUSH2 0x3D9F JUMPI INVALID JUMPDEST PUSH1 0x20 MUL ADD MSTORE PUSH1 0x1 ADD PUSH2 0x3D59 JUMP JUMPDEST POP SWAP1 JUMP JUMPDEST PUSH2 0x3DB8 PUSH2 0x53F4 JUMP JUMPDEST PUSH1 0x1 PUSH1 0x1 PUSH1 0xA0 SHL SUB AND GAS PUSH2 0x3DCA PUSH2 0x5FFA JUMP JUMPDEST PUSH1 0x1 PUSH1 0x1 PUSH1 0xA0 SHL SUB AND EQ PUSH2 0x3E25 JUMPI PUSH1 0x40 DUP1 MLOAD PUSH3 0x461BCD PUSH1 0xE5 SHL DUP2 MSTORE PUSH1 0x20 PUSH1 0x4 DUP3 ADD MSTORE PUSH1 0x1E PUSH1 0x24 DUP3 ADD MSTORE PUSH32 0x4F6E6C792045786368616E6765722063616E20696E766F6B6520746869730000 PUSH1 0x44 DUP3 ADD MSTORE SWAP1 MLOAD SWAP1 DUP2 SWAP1 SUB PUSH1 0x64 ADD SWAP1 REVERT JUMPDEST PUSH1 0x0 PUSH1 0x4 PUSH2 0x3E31 PUSH2 0x5F3A JUMP JUMPDEST SWAP1 PUSH2 0x100 EXP SWAP1 DIV PUSH1 0x1 PUSH1 0x1 PUSH1 0xA0 SHL SUB AND PUSH1 0x1 PUSH1 0x1 PUSH1 0xA0 SHL SUB AND PUSH4 0x907DFF97 DUP4 DUP4 PUSH1 0x40 MLOAD PUSH1 0x20 ADD DUP1 DUP4 DUP2 MSTORE PUSH1 0x20 ADD DUP3 DUP2 MSTORE PUSH1 0x20 ADD SWAP3 POP POP POP PUSH1 0x40 MLOAD PUSH1 0x20 DUP2 DUP4 SUB SUB DUP2 MSTORE SWAP1 PUSH1 0x40 MSTORE PUSH1 0x2 PUSH1 0x40 MLOAD DUP1 DUP1 PUSH2 0x6125 PUSH1 0x28 SWAP2 CODECOPY PUSH1 0x28 ADD SWAP1 POP PUSH1 0x40 MLOAD DUP1 SWAP2 SUB SWAP1 KECCAK256 PUSH2 0x2C06 DUP9 PUSH2 0x584F JUMP JUMPDEST PUSH2 0x3EA3 PUSH2 0x51EC JUMP JUMPDEST PUSH1 0x1 PUSH1 0x1 PUSH1 0xA0 SHL SUB AND PUSH4 0x7C312541 PUSH1 0x40 MLOAD DUP2 PUSH4 0xFFFFFFFF AND PUSH1 0xE0 SHL DUP2 MSTORE PUSH1 0x4 ADD PUSH1 0x0 PUSH1 0x40 MLOAD DUP1 DUP4 SUB DUP2 DUP7 DUP1 PUSH2 0x3ED6 PUSH2 0x5F72 JUMP JUMPDEST ISZERO DUP1 ISZERO PUSH2 0x3EE2 JUMPI PUSH1 0x0 DUP1 REVERT JUMPDEST POP GAS PUSH2 0x3EEC PUSH2 0x5FA3 JUMP JUMPDEST POP POP POP POP POP ISZERO DUP1 ISZERO PUSH2 0x3F02 JUMPI RETURNDATASIZE PUSH1 0x0 DUP1 RETURNDATACOPY RETURNDATASIZE PUSH1 0x0 REVERT JUMPDEST POP POP POP POP PUSH1 0x4 PUSH1 0x0 SWAP1 PUSH2 0x3F13 PUSH2 0x5F3A JUMP JUMPDEST SWAP1 PUSH2 0x100 EXP SWAP1 DIV PUSH1 0x1 PUSH1 0x1 PUSH1 0xA0 SHL SUB AND PUSH1 0x1 PUSH1 0x1 PUSH1 0xA0 SHL SUB AND GAS PUSH2 0x3F35 PUSH2 0x5FFA JUMP JUMPDEST PUSH1 0x1 PUSH1 0x1 PUSH1 0xA0 SHL SUB AND EQ ISZERO DUP1 ISZERO PUSH2 0x3F81 JUMPI POP PUSH1 0x0 PUSH1 0x5 PUSH2 0x3F53 PUSH2 0x5F3A JUMP JUMPDEST SWAP1 PUSH2 0x100 EXP SWAP1 DIV PUSH1 0x1 PUSH1 0x1 PUSH1 0xA0 SHL SUB AND PUSH1 0x1 PUSH1 0x1 PUSH1 0xA0 SHL SUB AND GAS PUSH2 0x3F75 PUSH2 0x5FFA JUMP JUMPDEST PUSH1 0x1 PUSH1 0x1 PUSH1 0xA0 SHL SUB AND EQ ISZERO JUMPDEST DUP1 ISZERO PUSH2 0x3FC2 JUMPI POP GAS PUSH2 0x3F91 PUSH2 0x5FFA JUMP JUMPDEST PUSH1 0x1 PUSH1 0x1 PUSH1 0xA0 SHL SUB AND PUSH1 0x0 PUSH1 0x6 PUSH2 0x3FA6 PUSH2 0x5F3A JUMP JUMPDEST SWAP1 PUSH2 0x100 EXP SWAP1 DIV PUSH1 0x1 PUSH1 0x1 PUSH1 0xA0 SHL SUB AND PUSH1 0x1 PUSH1 0x1 PUSH1 0xA0 SHL SUB AND EQ ISZERO JUMPDEST ISZERO PUSH2 0x4003 JUMPI GAS PUSH2 0x3FD0 PUSH2 0x5FFA JUMP JUMPDEST PUSH1 0x6 PUSH1 0x1 DUP2 PUSH2 0x3FDD PUSH2 0x5F3A JUMP JUMPDEST DUP2 PUSH1 0x1 PUSH1 0x1 PUSH1 0xA0 SHL SUB MUL NOT AND SWAP1 DUP4 PUSH1 0x1 PUSH1 0x1 PUSH1 0xA0 SHL SUB AND MUL OR SWAP1 PUSH2 0x3FFF PUSH2 0x601E JUMP JUMPDEST POP POP POP JUMPDEST PUSH2 0x400B PUSH2 0x50BF JUMP JUMPDEST PUSH1 0x1 PUSH1 0x1 PUSH1 0xA0 SHL SUB AND PUSH4 0xC8977132 PUSH1 0x0 PUSH1 0x6 PUSH2 0x354F PUSH2 0x5F3A JUMP JUMPDEST PUSH1 0x0 PUSH1 0x3 PUSH2 0x2138 PUSH2 0x5F3A JUMP JUMPDEST PUSH1 0x0 PUSH1 0x4 PUSH2 0x403D PUSH2 0x5F3A JUMP JUMPDEST SWAP1 PUSH2 0x100 EXP SWAP1 DIV PUSH1 0x1 PUSH1 0x1 PUSH1 0xA0 SHL SUB AND PUSH1 0x1 PUSH1 0x1 PUSH1 0xA0 SHL SUB AND GAS PUSH2 0x405F PUSH2 0x5FFA JUMP JUMPDEST PUSH1 0x1 PUSH1 0x1 PUSH1 0xA0 SHL SUB AND EQ DUP1 PUSH2 0x40A8 JUMPI POP PUSH1 0x0 PUSH1 0x5 PUSH2 0x407B PUSH2 0x5F3A JUMP JUMPDEST SWAP1 PUSH2 0x100 EXP SWAP1 DIV PUSH1 0x1 PUSH1 0x1 PUSH1 0xA0 SHL SUB AND PUSH1 0x1 PUSH1 0x1 PUSH1 0xA0 SHL SUB AND GAS PUSH2 0x409D PUSH2 0x5FFA JUMP JUMPDEST PUSH1 0x1 PUSH1 0x1 PUSH1 0xA0 SHL SUB AND EQ JUMPDEST PUSH2 0x40F9 JUMPI PUSH1 0x40 DUP1 MLOAD PUSH3 0x461BCD PUSH1 0xE5 SHL DUP2 MSTORE PUSH1 0x20 PUSH1 0x4 DUP3 ADD MSTORE PUSH1 0x17 PUSH1 0x24 DUP3 ADD MSTORE PUSH32 0x4F6E6C79207468652070726F78792063616E2063616C6C000000000000000000 PUSH1 0x44 DUP3 ADD MSTORE SWAP1 MLOAD SWAP1 DUP2 SWAP1 SUB PUSH1 0x64 ADD SWAP1 REVERT JUMPDEST DUP1 PUSH1 0x6 PUSH1 0x1 DUP2 PUSH2 0x1795 PUSH2 0x5F3A JUMP JUMPDEST PUSH1 0x0 DUP1 PUSH2 0x4112 PUSH2 0x5F3A JUMP JUMPDEST SWAP1 PUSH2 0x100 EXP SWAP1 DIV PUSH1 0x1 PUSH1 0x1 PUSH1 0xA0 SHL SUB AND PUSH1 0x1 PUSH1 0x1 PUSH1 0xA0 SHL SUB AND GAS PUSH2 0x4134 PUSH2 0x5FFA JUMP JUMPDEST PUSH1 0x1 PUSH1 0x1 PUSH1 0xA0 SHL SUB AND EQ PUSH2 0x4179 JUMPI PUSH1 0x40 MLOAD PUSH3 0x461BCD PUSH1 0xE5 SHL DUP2 MSTORE PUSH1 0x4 ADD DUP1 DUP1 PUSH1 0x20 ADD DUP3 DUP2 SUB DUP3 MSTORE PUSH1 0x2F DUP2 MSTORE PUSH1 0x20 ADD DUP1 PUSH2 0x61B1 PUSH1 0x2F SWAP2 CODECOPY PUSH1 0x40 ADD SWAP2 POP POP PUSH1 0x40 MLOAD DUP1 SWAP2 SUB SWAP1 REVERT JUMPDEST GAS PUSH2 0x4182 PUSH2 0x60AC JUMP JUMPDEST DUP1 PUSH1 0x2 PUSH2 0x418D PUSH2 0x601E JUMP JUMPDEST POP POP POP PUSH1 0x1 PUSH1 0x3 PUSH1 0x0 PUSH2 0x100 EXP DUP2 PUSH2 0x41A3 PUSH2 0x5F3A JUMP JUMPDEST DUP2 PUSH1 0xFF MUL NOT AND SWAP1 DUP4 ISZERO ISZERO MUL OR SWAP1 PUSH2 0x41B8 PUSH2 0x601E JUMP JUMPDEST POP POP PUSH1 0x40 DUP1 MLOAD PUSH3 0x24EA00 DUP2 MSTORE SWAP1 MLOAD PUSH32 0xCBD94CA75B8DC45C9D80C77E851670E78843C0D75180CB81DB3E2158228FA9A6 SWAP3 POP SWAP1 DUP2 SWAP1 SUB PUSH1 0x20 ADD SWAP1 LOG1 JUMP JUMPDEST PUSH2 0x41FC PUSH2 0x51EC JUMP JUMPDEST PUSH1 0x1 PUSH1 0x1 PUSH1 0xA0 SHL SUB AND PUSH4 0x7C312541 PUSH1 0x40 MLOAD DUP2 PUSH4 0xFFFFFFFF AND PUSH1 0xE0 SHL DUP2 MSTORE PUSH1 0x4 ADD PUSH1 0x0 PUSH1 0x40 MLOAD DUP1 DUP4 SUB DUP2 DUP7 DUP1 PUSH2 0x422F PUSH2 0x5F72 JUMP JUMPDEST ISZERO DUP1 ISZERO PUSH2 0x423B JUMPI PUSH1 0x0 DUP1 REVERT JUMPDEST POP GAS PUSH2 0x4245 PUSH2 0x5FA3 JUMP JUMPDEST POP POP POP POP POP ISZERO DUP1 ISZERO PUSH2 0x425B JUMPI RETURNDATASIZE PUSH1 0x0 DUP1 RETURNDATACOPY RETURNDATASIZE PUSH1 0x0 REVERT JUMPDEST POP POP POP POP PUSH1 0x4 PUSH1 0x0 SWAP1 PUSH2 0x426C PUSH2 0x5F3A JUMP JUMPDEST SWAP1 PUSH2 0x100 EXP SWAP1 DIV PUSH1 0x1 PUSH1 0x1 PUSH1 0xA0 SHL SUB AND PUSH1 0x1 PUSH1 0x1 PUSH1 0xA0 SHL SUB AND GAS PUSH2 0x428E PUSH2 0x5FFA JUMP JUMPDEST PUSH1 0x1 PUSH1 0x1 PUSH1 0xA0 SHL SUB AND EQ ISZERO DUP1 ISZERO PUSH2 0x42DA JUMPI POP PUSH1 0x0 PUSH1 0x5 PUSH2 0x42AC PUSH2 0x5F3A JUMP JUMPDEST SWAP1 PUSH2 0x100 EXP SWAP1 DIV PUSH1 0x1 PUSH1 0x1 PUSH1 0xA0 SHL SUB AND PUSH1 0x1 PUSH1 0x1 PUSH1 0xA0 SHL SUB AND GAS PUSH2 0x42CE PUSH2 0x5FFA JUMP JUMPDEST PUSH1 0x1 PUSH1 0x1 PUSH1 0xA0 SHL SUB AND EQ ISZERO JUMPDEST DUP1 ISZERO PUSH2 0x431B JUMPI POP GAS PUSH2 0x42EA PUSH2 0x5FFA JUMP JUMPDEST PUSH1 0x1 PUSH1 0x1 PUSH1 0xA0 SHL SUB AND PUSH1 0x0 PUSH1 0x6 PUSH2 0x42FF PUSH2 0x5F3A JUMP JUMPDEST SWAP1 PUSH2 0x100 EXP SWAP1 DIV PUSH1 0x1 PUSH1 0x1 PUSH1 0xA0 SHL SUB AND PUSH1 0x1 PUSH1 0x1 PUSH1 0xA0 SHL SUB AND EQ ISZERO JUMPDEST ISZERO PUSH2 0x435C JUMPI GAS PUSH2 0x4329 PUSH2 0x5FFA JUMP JUMPDEST PUSH1 0x6 PUSH1 0x1 DUP2 PUSH2 0x4336 PUSH2 0x5F3A JUMP JUMPDEST DUP2 PUSH1 0x1 PUSH1 0x1 PUSH1 0xA0 SHL SUB MUL NOT AND SWAP1 DUP4 PUSH1 0x1 PUSH1 0x1 PUSH1 0xA0 SHL SUB AND MUL OR SWAP1 PUSH2 0x4358 PUSH2 0x601E JUMP JUMPDEST POP POP POP JUMPDEST PUSH2 0x4364 PUSH2 0x50BF JUMP JUMPDEST PUSH1 0x1 PUSH1 0x1 PUSH1 0xA0 SHL SUB AND PUSH4 0x9A5154B4 DUP4 PUSH1 0x0 PUSH1 0x6 PUSH2 0x437F PUSH2 0x5F3A JUMP JUMPDEST SWAP1 PUSH2 0x100 EXP SWAP1 DIV PUSH1 0x1 PUSH1 0x1 PUSH1 0xA0 SHL SUB AND DUP5 PUSH1 0x40 MLOAD DUP5 PUSH4 0xFFFFFFFF AND PUSH1 0xE0 SHL DUP2 MSTORE PUSH1 0x4 ADD DUP1 DUP5 PUSH1 0x1 PUSH1 0x1 PUSH1 0xA0 SHL SUB AND PUSH1 0x1 PUSH1 0x1 PUSH1 0xA0 SHL SUB AND DUP2 MSTORE PUSH1 0x20 ADD DUP4 PUSH1 0x1 PUSH1 0x1 PUSH1 0xA0 SHL SUB AND PUSH1 0x1 PUSH1 0x1 PUSH1 0xA0 SHL SUB AND DUP2 MSTORE PUSH1 0x20 ADD DUP3 DUP2 MSTORE PUSH1 0x20 ADD SWAP4 POP POP POP POP PUSH1 0x0 PUSH1 0x40 MLOAD DUP1 DUP4 SUB DUP2 PUSH1 0x0 DUP8 DUP1 PUSH2 0x43F3 PUSH2 0x5F72 JUMP JUMPDEST ISZERO DUP1 ISZERO PUSH2 0x43FF JUMPI PUSH1 0x0 DUP1 REVERT JUMPDEST POP GAS PUSH2 0x4409 PUSH2 0x6055 JUMP JUMPDEST POP POP POP POP POP POP ISZERO DUP1 ISZERO PUSH2 0x4420 JUMPI RETURNDATASIZE PUSH1 0x0 DUP1 RETURNDATACOPY RETURNDATASIZE PUSH1 0x0 REVERT JUMPDEST POP POP POP POP POP POP JUMP JUMPDEST PUSH1 0x1 PUSH1 0x3 PUSH2 0xC93 PUSH2 0x5F3A JUMP JUMPDEST PUSH1 0xD DUP2 DUP2 PUSH2 0x4440 PUSH2 0x5F3A JUMP JUMPDEST DUP2 LT PUSH2 0x4448 JUMPI INVALID JUMPDEST PUSH1 0x0 SWAP2 DUP3 MSTORE PUSH1 0x20 SWAP1 SWAP2 KECCAK256 ADD SWAP1 POP PUSH2 0x1905 PUSH2 0x5F3A JUMP JUMPDEST PUSH1 0x0 DUP4 DUP3 PUSH2 0x4469 PUSH2 0x51EC JUMP JUMPDEST PUSH1 0x1 PUSH1 0x1 PUSH1 0xA0 SHL SUB AND PUSH4 0x7118D431 PUSH1 0x40 MLOAD DUP2 PUSH4 0xFFFFFFFF AND PUSH1 0xE0 SHL DUP2 MSTORE PUSH1 0x4 ADD PUSH1 0x0 PUSH1 0x40 MLOAD DUP1 DUP4 SUB DUP2 DUP7 DUP1 PUSH2 0x449C PUSH2 0x5F72 JUMP JUMPDEST ISZERO DUP1 ISZERO PUSH2 0x44A8 JUMPI PUSH1 0x0 DUP1 REVERT JUMPDEST POP GAS PUSH2 0x44B2 PUSH2 0x5FA3 JUMP JUMPDEST POP POP POP POP POP ISZERO DUP1 ISZERO PUSH2 0x44C8 JUMPI RETURNDATASIZE PUSH1 0x0 DUP1 RETURNDATACOPY RETURNDATASIZE PUSH1 0x0 REVERT JUMPDEST POP POP POP POP PUSH2 0x44D4 PUSH2 0x51EC JUMP JUMPDEST PUSH1 0x1 PUSH1 0x1 PUSH1 0xA0 SHL SUB AND PUSH4 0x6132EBA4 DUP4 DUP4 PUSH1 0x40 MLOAD DUP4 PUSH4 0xFFFFFFFF AND PUSH1 0xE0 SHL DUP2 MSTORE PUSH1 0x4 ADD DUP1 DUP4 DUP2 MSTORE PUSH1 0x20 ADD DUP3 DUP2 MSTORE PUSH1 0x20 ADD SWAP3 POP POP POP PUSH1 0x0 PUSH1 0x40 MLOAD DUP1 DUP4 SUB DUP2 DUP7 DUP1 PUSH2 0x451A PUSH2 0x5F72 JUMP JUMPDEST ISZERO DUP1 ISZERO PUSH2 0x4526 JUMPI PUSH1 0x0 DUP1 REVERT JUMPDEST POP GAS PUSH2 0x4530 PUSH2 0x5FA3 JUMP JUMPDEST POP POP POP POP POP ISZERO DUP1 ISZERO PUSH2 0x4546 JUMPI RETURNDATASIZE PUSH1 0x0 DUP1 RETURNDATACOPY RETURNDATASIZE PUSH1 0x0 REVERT JUMPDEST POP POP POP POP PUSH1 0x4 PUSH1 0x0 SWAP1 PUSH2 0x4557 PUSH2 0x5F3A JUMP JUMPDEST SWAP1 PUSH2 0x100 EXP SWAP1 DIV PUSH1 0x1 PUSH1 0x1 PUSH1 0xA0 SHL SUB AND PUSH1 0x1 PUSH1 0x1 PUSH1 0xA0 SHL SUB AND GAS PUSH2 0x4579 PUSH2 0x5FFA JUMP JUMPDEST PUSH1 0x1 PUSH1 0x1 PUSH1 0xA0 SHL SUB AND EQ ISZERO DUP1 ISZERO PUSH2 0x45C5 JUMPI POP PUSH1 0x0 PUSH1 0x5 PUSH2 0x4597 PUSH2 0x5F3A JUMP JUMPDEST SWAP1 PUSH2 0x100 EXP SWAP1 DIV PUSH1 0x1 PUSH1 0x1 PUSH1 0xA0 SHL SUB AND PUSH1 0x1 PUSH1 0x1 PUSH1 0xA0 SHL SUB AND GAS PUSH2 0x45B9 PUSH2 0x5FFA JUMP JUMPDEST PUSH1 0x1 PUSH1 0x1 PUSH1 0xA0 SHL SUB AND EQ ISZERO JUMPDEST DUP1 ISZERO PUSH2 0x4606 JUMPI POP GAS PUSH2 0x45D5 PUSH2 0x5FFA JUMP JUMPDEST PUSH1 0x1 PUSH1 0x1 PUSH1 0xA0 SHL SUB AND PUSH1 0x0 PUSH1 0x6 PUSH2 0x45EA PUSH2 0x5F3A JUMP JUMPDEST SWAP1 PUSH2 0x100 EXP SWAP1 DIV PUSH1 0x1 PUSH1 0x1 PUSH1 0xA0 SHL SUB AND PUSH1 0x1 PUSH1 0x1 PUSH1 0xA0 SHL SUB AND EQ ISZERO JUMPDEST ISZERO PUSH2 0x4647 JUMPI GAS PUSH2 0x4614 PUSH2 0x5FFA JUMP JUMPDEST PUSH1 0x6 PUSH1 0x1 DUP2 PUSH2 0x4621 PUSH2 0x5F3A JUMP JUMPDEST DUP2 PUSH1 0x1 PUSH1 0x1 PUSH1 0xA0 SHL SUB MUL NOT AND SWAP1 DUP4 PUSH1 0x1 PUSH1 0x1 PUSH1 0xA0 SHL SUB AND MUL OR SWAP1 PUSH2 0x4643 PUSH2 0x601E JUMP JUMPDEST POP POP POP JUMPDEST PUSH2 0x464F PUSH2 0x53F4 JUMP JUMPDEST PUSH1 0x1 PUSH1 0x1 PUSH1 0xA0 SHL SUB AND PUSH4 0x6A1C4758 DUP9 PUSH1 0x0 PUSH1 0x6 PUSH2 0x466A PUSH2 0x5F3A JUMP JUMPDEST SWAP1 PUSH2 0x100 EXP SWAP1 DIV PUSH1 0x1 PUSH1 0x1 PUSH1 0xA0 SHL SUB AND DUP10 DUP10 DUP10 PUSH1 0x40 MLOAD DUP7 PUSH4 0xFFFFFFFF AND PUSH1 0xE0 SHL DUP2 MSTORE PUSH1 0x4 ADD DUP1 DUP7 PUSH1 0x1 PUSH1 0x1 PUSH1 0xA0 SHL SUB AND PUSH1 0x1 PUSH1 0x1 PUSH1 0xA0 SHL SUB AND DUP2 MSTORE PUSH1 0x20 ADD DUP6 PUSH1 0x1 PUSH1 0x1 PUSH1 0xA0 SHL SUB AND PUSH1 0x1 PUSH1 0x1 PUSH1 0xA0 SHL SUB AND DUP2 MSTORE PUSH1 0x20 ADD DUP5 DUP2 MSTORE PUSH1 0x20 ADD DUP4 DUP2 MSTORE PUSH1 0x20 ADD DUP3 DUP2 MSTORE PUSH1 0x20 ADD SWAP6 POP POP POP POP POP POP PUSH1 0x20 PUSH1 0x40 MLOAD DUP1 DUP4 SUB DUP2 PUSH1 0x0 DUP8 DUP1 PUSH2 0x46EE PUSH2 0x5F72 JUMP JUMPDEST ISZERO DUP1 ISZERO PUSH2 0x46FA JUMPI PUSH1 0x0 DUP1 REVERT JUMPDEST POP GAS PUSH2 0x4704 PUSH2 0x6055 JUMP JUMPDEST POP POP POP POP POP POP ISZERO DUP1 ISZERO PUSH2 0x471B JUMPI RETURNDATASIZE PUSH1 0x0 DUP1 RETURNDATACOPY RETURNDATASIZE PUSH1 0x0 REVERT JUMPDEST POP POP POP POP PUSH1 0x40 MLOAD RETURNDATASIZE PUSH1 0x20 DUP2 LT ISZERO PUSH2 0x4731 JUMPI PUSH1 0x0 DUP1 REVERT JUMPDEST POP MLOAD SWAP8 SWAP7 POP POP POP POP POP POP POP JUMP JUMPDEST PUSH1 0x0 PUSH2 0x4748 PUSH2 0x50BF JUMP JUMPDEST PUSH1 0x1 PUSH1 0x1 PUSH1 0xA0 SHL SUB AND PUSH4 0xD37C4D8B DUP5 DUP5 PUSH1 0x40 MLOAD DUP4 PUSH4 0xFFFFFFFF AND PUSH1 0xE0 SHL DUP2 MSTORE PUSH1 0x4 ADD DUP1 DUP4 PUSH1 0x1 PUSH1 0x1 PUSH1 0xA0 SHL SUB AND PUSH1 0x1 PUSH1 0x1 PUSH1 0xA0 SHL SUB AND DUP2 MSTORE PUSH1 0x20 ADD DUP3 DUP2 MSTORE PUSH1 0x20 ADD SWAP3 POP POP POP PUSH1 0x20 PUSH1 0x40 MLOAD DUP1 DUP4 SUB DUP2 DUP7 DUP1 PUSH2 0x47A0 PUSH2 0x5F72 JUMP JUMPDEST ISZERO DUP1 ISZERO PUSH2 0x47AC JUMPI PUSH1 0x0 DUP1 REVERT JUMPDEST POP GAS PUSH2 0x47B6 PUSH2 0x5FA3 JUMP JUMPDEST POP POP POP POP POP ISZERO DUP1 ISZERO PUSH2 0x47CC JUMPI RETURNDATASIZE PUSH1 0x0 DUP1 RETURNDATACOPY RETURNDATASIZE PUSH1 0x0 REVERT JUMPDEST POP POP POP POP PUSH1 0x40 MLOAD RETURNDATASIZE PUSH1 0x20 DUP2 LT ISZERO PUSH2 0x47E2 JUMPI PUSH1 0x0 DUP1 REVERT JUMPDEST POP MLOAD SWAP4 SWAP3 POP POP POP JUMP JUMPDEST PUSH1 0x0 PUSH2 0x47F5 PUSH2 0x50BF JUMP JUMPDEST PUSH1 0x1 PUSH1 0x1 PUSH1 0xA0 SHL SUB AND PUSH4 0x7B1001B7 DUP4 PUSH1 0x1 PUSH1 0x40 MLOAD DUP4 PUSH4 0xFFFFFFFF AND PUSH1 0xE0 SHL DUP2 MSTORE PUSH1 0x4 ADD DUP1 DUP4 DUP2 MSTORE PUSH1 0x20 ADD DUP3 ISZERO ISZERO ISZERO ISZERO DUP2 MSTORE PUSH1 0x20 ADD SWAP3 POP POP POP PUSH1 0x20 PUSH1 0x40 MLOAD DUP1 DUP4 SUB DUP2 DUP7 DUP1 PUSH2 0xD00 PUSH2 0x5F72 JUMP JUMPDEST PUSH1 0x0 PUSH1 0x6 PUSH2 0xC93 PUSH2 0x5F3A JUMP JUMPDEST PUSH1 0x0 PUSH2 0x4856 PUSH2 0x50BF JUMP JUMPDEST PUSH1 0x1 PUSH1 0x1 PUSH1 0xA0 SHL SUB AND PUSH4 0xDBF63340 PUSH1 0x40 MLOAD DUP2 PUSH4 0xFFFFFFFF AND PUSH1 0xE0 SHL DUP2 MSTORE PUSH1 0x4 ADD PUSH1 0x20 PUSH1 0x40 MLOAD DUP1 DUP4 SUB DUP2 DUP7 DUP1 PUSH2 0x4889 PUSH2 0x5F72 JUMP JUMPDEST ISZERO DUP1 ISZERO PUSH2 0x4895 JUMPI PUSH1 0x0 DUP1 REVERT JUMPDEST POP GAS PUSH2 0x489F PUSH2 0x5FA3 JUMP JUMPDEST POP POP POP POP POP ISZERO DUP1 ISZERO PUSH2 0x48B5 JUMPI RETURNDATASIZE PUSH1 0x0 DUP1 RETURNDATACOPY RETURNDATASIZE PUSH1 0x0 REVERT JUMPDEST POP POP POP POP PUSH1 0x40 MLOAD RETURNDATASIZE PUSH1 0x20 DUP2 LT ISZERO PUSH2 0x48CB JUMPI PUSH1 0x0 DUP1 REVERT JUMPDEST POP MLOAD SWAP1 POP SWAP1 JUMP JUMPDEST PUSH1 0x0 DUP1 PUSH1 0x7 PUSH2 0x48DF PUSH2 0x5F3A JUMP JUMPDEST PUSH1 0x40 DUP1 MLOAD PUSH4 0x6EB1769F PUSH1 0xE1 SHL DUP2 MSTORE PUSH1 0x1 PUSH1 0x1 PUSH1 0xA0 SHL SUB DUP8 DUP2 AND PUSH1 0x4 DUP4 ADD MSTORE DUP7 DUP2 AND PUSH1 0x24 DUP4 ADD MSTORE SWAP2 MLOAD PUSH2 0x100 SWAP5 SWAP1 SWAP5 EXP SWAP1 SWAP3 DIV AND SWAP2 PUSH4 0xDD62ED3E SWAP2 PUSH1 0x44 DUP1 DUP3 ADD SWAP3 PUSH1 0x20 SWAP3 SWAP1 SWAP2 SWAP1 DUP3 SWAP1 SUB ADD DUP2 DUP7 DUP1 PUSH2 0x47A0 PUSH2 0x5F72 JUMP JUMPDEST PUSH1 0x18 DUP2 JUMP JUMPDEST PUSH1 0x0 PUSH2 0x4943 PUSH2 0x51EC JUMP JUMPDEST PUSH1 0x1 PUSH1 0x1 PUSH1 0xA0 SHL SUB AND PUSH4 0x86DABD1 PUSH1 0x40 MLOAD DUP2 PUSH4 0xFFFFFFFF AND PUSH1 0xE0 SHL DUP2 MSTORE PUSH1 0x4 ADD PUSH1 0x0 PUSH1 0x40 MLOAD DUP1 DUP4 SUB DUP2 DUP7 DUP1 PUSH2 0x4976 PUSH2 0x5F72 JUMP JUMPDEST ISZERO DUP1 ISZERO PUSH2 0x4982 JUMPI PUSH1 0x0 DUP1 REVERT JUMPDEST POP GAS PUSH2 0x498C PUSH2 0x5FA3 JUMP JUMPDEST POP POP POP POP POP ISZERO DUP1 ISZERO PUSH2 0x49A2 JUMPI RETURNDATASIZE PUSH1 0x0 DUP1 RETURNDATACOPY RETURNDATASIZE PUSH1 0x0 REVERT JUMPDEST POP POP POP POP PUSH1 0x4 PUSH1 0x0 SWAP1 PUSH2 0x49B3 PUSH2 0x5F3A JUMP JUMPDEST SWAP1 PUSH2 0x100 EXP SWAP1 DIV PUSH1 0x1 PUSH1 0x1 PUSH1 0xA0 SHL SUB AND PUSH1 0x1 PUSH1 0x1 PUSH1 0xA0 SHL SUB AND GAS PUSH2 0x49D5 PUSH2 0x5FFA JUMP JUMPDEST PUSH1 0x1 PUSH1 0x1 PUSH1 0xA0 SHL SUB AND EQ ISZERO DUP1 ISZERO PUSH2 0x4A21 JUMPI POP PUSH1 0x0 PUSH1 0x5 PUSH2 0x49F3 PUSH2 0x5F3A JUMP JUMPDEST SWAP1 PUSH2 0x100 EXP SWAP1 DIV PUSH1 0x1 PUSH1 0x1 PUSH1 0xA0 SHL SUB AND PUSH1 0x1 PUSH1 0x1 PUSH1 0xA0 SHL SUB AND GAS PUSH2 0x4A15 PUSH2 0x5FFA JUMP JUMPDEST PUSH1 0x1 PUSH1 0x1 PUSH1 0xA0 SHL SUB AND EQ ISZERO JUMPDEST DUP1 ISZERO PUSH2 0x4A62 JUMPI POP GAS PUSH2 0x4A31 PUSH2 0x5FFA JUMP JUMPDEST PUSH1 0x1 PUSH1 0x1 PUSH1 0xA0 SHL SUB AND PUSH1 0x0 PUSH1 0x6 PUSH2 0x4A46 PUSH2 0x5F3A JUMP JUMPDEST SWAP1 PUSH2 0x100 EXP SWAP1 DIV PUSH1 0x1 PUSH1 0x1 PUSH1 0xA0 SHL SUB AND PUSH1 0x1 PUSH1 0x1 PUSH1 0xA0 SHL SUB AND EQ ISZERO JUMPDEST ISZERO PUSH2 0x4AA3 JUMPI GAS PUSH2 0x4A70 PUSH2 0x5FFA JUMP JUMPDEST PUSH1 0x6 PUSH1 0x1 DUP2 PUSH2 0x4A7D PUSH2 0x5F3A JUMP JUMPDEST DUP2 PUSH1 0x1 PUSH1 0x1 PUSH1 0xA0 SHL SUB MUL NOT AND SWAP1 DUP4 PUSH1 0x1 PUSH1 0x1 PUSH1 0xA0 SHL SUB AND MUL OR SWAP1 PUSH2 0x4A9F PUSH2 0x601E JUMP JUMPDEST POP POP POP JUMPDEST PUSH1 0x0 DUP1 PUSH2 0x4AAE PUSH2 0x50BF JUMP JUMPDEST PUSH1 0x1 PUSH1 0x1 PUSH1 0xA0 SHL SUB AND PUSH4 0xA63C4DF4 DUP7 DUP7 PUSH1 0x0 PUSH1 0x6 PUSH2 0x4ACA PUSH2 0x5F3A JUMP JUMPDEST SWAP1 PUSH2 0x100 EXP SWAP1 DIV PUSH1 0x1 PUSH1 0x1 PUSH1 0xA0 SHL SUB AND PUSH1 0x40 MLOAD DUP5 PUSH4 0xFFFFFFFF AND PUSH1 0xE0 SHL DUP2 MSTORE PUSH1 0x4 ADD DUP1 DUP5 PUSH1 0x1 PUSH1 0x1 PUSH1 0xA0 SHL SUB AND PUSH1 0x1 PUSH1 0x1 PUSH1 0xA0 SHL SUB AND DUP2 MSTORE PUSH1 0x20 ADD DUP4 DUP2 MSTORE PUSH1 0x20 ADD DUP3 PUSH1 0x1 PUSH1 0x1 PUSH1 0xA0 SHL SUB AND PUSH1 0x1 PUSH1 0x1 PUSH1 0xA0 SHL SUB AND DUP2 MSTORE PUSH1 0x20 ADD SWAP4 POP POP POP POP PUSH1 0x40 DUP1 MLOAD DUP1 DUP4 SUB DUP2 PUSH1 0x0 DUP8 DUP1 PUSH2 0x4B3C PUSH2 0x5F72 JUMP JUMPDEST ISZERO DUP1 ISZERO PUSH2 0x4B48 JUMPI PUSH1 0x0 DUP1 REVERT JUMPDEST POP GAS PUSH2 0x4B52 PUSH2 0x6055 JUMP JUMPDEST POP POP POP POP POP POP ISZERO DUP1 ISZERO PUSH2 0x4B69 JUMPI RETURNDATASIZE PUSH1 0x0 DUP1 RETURNDATACOPY RETURNDATASIZE PUSH1 0x0 REVERT JUMPDEST POP POP POP POP PUSH1 0x40 MLOAD RETURNDATASIZE PUSH1 0x40 DUP2 LT ISZERO PUSH2 0x4B7F JUMPI PUSH1 0x0 DUP1 REVERT JUMPDEST POP DUP1 MLOAD PUSH1 0x20 SWAP1 SWAP2 ADD MLOAD SWAP1 SWAP3 POP SWAP1 POP PUSH2 0x4BB4 DUP6 DUP4 DUP4 PUSH1 0x0 PUSH1 0x6 PUSH2 0x4B9F PUSH2 0x5F3A JUMP JUMPDEST SWAP1 PUSH2 0x100 EXP SWAP1 DIV PUSH1 0x1 PUSH1 0x1 PUSH1 0xA0 SHL SUB AND PUSH2 0x599F JUMP JUMPDEST PUSH2 0x4BDA DUP6 PUSH1 0x0 PUSH1 0x6 PUSH2 0x4BC4 PUSH2 0x5F3A JUMP JUMPDEST SWAP1 PUSH2 0x100 EXP SWAP1 DIV PUSH1 0x1 PUSH1 0x1 PUSH1 0xA0 SHL SUB AND DUP5 PUSH2 0x5992 JUMP JUMPDEST SWAP6 SWAP5 POP POP POP POP POP JUMP JUMPDEST PUSH2 0x4BEB PUSH2 0x51EC JUMP JUMPDEST PUSH1 0x1 PUSH1 0x1 PUSH1 0xA0 SHL SUB AND PUSH4 0x7C312541 PUSH1 0x40 MLOAD DUP2 PUSH4 0xFFFFFFFF AND PUSH1 0xE0 SHL DUP2 MSTORE PUSH1 0x4 ADD PUSH1 0x0 PUSH1 0x40 MLOAD DUP1 DUP4 SUB DUP2 DUP7 DUP1 PUSH2 0x4C1E PUSH2 0x5F72 JUMP JUMPDEST ISZERO DUP1 ISZERO PUSH2 0x4C2A JUMPI PUSH1 0x0 DUP1 REVERT JUMPDEST POP GAS PUSH2 0x4C34 PUSH2 0x5FA3 JUMP JUMPDEST POP POP POP POP POP ISZERO DUP1 ISZERO PUSH2 0x4C4A JUMPI RETURNDATASIZE PUSH1 0x0 DUP1 RETURNDATACOPY RETURNDATASIZE PUSH1 0x0 REVERT JUMPDEST POP POP POP POP PUSH1 0x4 PUSH1 0x0 SWAP1 PUSH2 0x4C5B PUSH2 0x5F3A JUMP JUMPDEST SWAP1 PUSH2 0x100 EXP SWAP1 DIV PUSH1 0x1 PUSH1 0x1 PUSH1 0xA0 SHL SUB AND PUSH1 0x1 PUSH1 0x1 PUSH1 0xA0 SHL SUB AND GAS PUSH2 0x4C7D PUSH2 0x5FFA JUMP JUMPDEST PUSH1 0x1 PUSH1 0x1 PUSH1 0xA0 SHL SUB AND EQ ISZERO DUP1 ISZERO PUSH2 0x4CC9 JUMPI POP PUSH1 0x0 PUSH1 0x5 PUSH2 0x4C9B PUSH2 0x5F3A JUMP JUMPDEST SWAP1 PUSH2 0x100 EXP SWAP1 DIV PUSH1 0x1 PUSH1 0x1 PUSH1 0xA0 SHL SUB AND PUSH1 0x1 PUSH1 0x1 PUSH1 0xA0 SHL SUB AND GAS PUSH2 0x4CBD PUSH2 0x5FFA JUMP JUMPDEST PUSH1 0x1 PUSH1 0x1 PUSH1 0xA0 SHL SUB AND EQ ISZERO JUMPDEST DUP1 ISZERO PUSH2 0x4D0A JUMPI POP GAS PUSH2 0x4CD9 PUSH2 0x5FFA JUMP JUMPDEST PUSH1 0x1 PUSH1 0x1 PUSH1 0xA0 SHL SUB AND PUSH1 0x0 PUSH1 0x6 PUSH2 0x4CEE PUSH2 0x5F3A JUMP JUMPDEST SWAP1 PUSH2 0x100 EXP SWAP1 DIV PUSH1 0x1 PUSH1 0x1 PUSH1 0xA0 SHL SUB AND PUSH1 0x1 PUSH1 0x1 PUSH1 0xA0 SHL SUB AND EQ ISZERO JUMPDEST ISZERO PUSH2 0x4D4B JUMPI GAS PUSH2 0x4D18 PUSH2 0x5FFA JUMP JUMPDEST PUSH1 0x6 PUSH1 0x1 DUP2 PUSH2 0x4D25 PUSH2 0x5F3A JUMP JUMPDEST DUP2 PUSH1 0x1 PUSH1 0x1 PUSH1 0xA0 SHL SUB MUL NOT AND SWAP1 DUP4 PUSH1 0x1 PUSH1 0x1 PUSH1 0xA0 SHL SUB AND MUL OR SWAP1 PUSH2 0x4D47 PUSH2 0x601E JUMP JUMPDEST POP POP POP JUMPDEST PUSH2 0x4D53 PUSH2 0x50BF JUMP JUMPDEST PUSH1 0x1 PUSH1 0x1 PUSH1 0xA0 SHL SUB AND PUSH4 0x44EC6B62 DUP4 PUSH1 0x0 PUSH1 0x6 PUSH2 0x437F PUSH2 0x5F3A JUMP JUMPDEST PUSH1 0x0 PUSH1 0x7 PUSH2 0xC93 PUSH2 0x5F3A JUMP JUMPDEST PUSH1 0x0 PUSH1 0x4 PUSH2 0xC93 PUSH2 0x5F3A JUMP JUMPDEST PUSH1 0x0 DUP4 DUP3 PUSH2 0x4D92 PUSH2 0x51EC JUMP JUMPDEST PUSH1 0x1 PUSH1 0x1 PUSH1 0xA0 SHL SUB AND PUSH4 0x7118D431 PUSH1 0x40 MLOAD DUP2 PUSH4 0xFFFFFFFF AND PUSH1 0xE0 SHL DUP2 MSTORE PUSH1 0x4 ADD PUSH1 0x0 PUSH1 0x40 MLOAD DUP1 DUP4 SUB DUP2 DUP7 DUP1 PUSH2 0x4DC5 PUSH2 0x5F72 JUMP JUMPDEST ISZERO DUP1 ISZERO PUSH2 0x4DD1 JUMPI PUSH1 0x0 DUP1 REVERT JUMPDEST POP GAS PUSH2 0x4DDB PUSH2 0x5FA3 JUMP JUMPDEST POP POP POP POP POP ISZERO DUP1 ISZERO PUSH2 0x4DF1 JUMPI RETURNDATASIZE PUSH1 0x0 DUP1 RETURNDATACOPY RETURNDATASIZE PUSH1 0x0 REVERT JUMPDEST POP POP POP POP PUSH2 0x4DFD PUSH2 0x51EC JUMP JUMPDEST PUSH1 0x1 PUSH1 0x1 PUSH1 0xA0 SHL SUB AND PUSH4 0x6132EBA4 DUP4 DUP4 PUSH1 0x40 MLOAD DUP4 PUSH4 0xFFFFFFFF AND PUSH1 0xE0 SHL DUP2 MSTORE PUSH1 0x4 ADD DUP1 DUP4 DUP2 MSTORE PUSH1 0x20 ADD DUP3 DUP2 MSTORE PUSH1 0x20 ADD SWAP3 POP POP POP PUSH1 0x0 PUSH1 0x40 MLOAD DUP1 DUP4 SUB DUP2 DUP7 DUP1 PUSH2 0x4E43 PUSH2 0x5F72 JUMP JUMPDEST ISZERO DUP1 ISZERO PUSH2 0x4E4F JUMPI PUSH1 0x0 DUP1 REVERT JUMPDEST POP GAS PUSH2 0x4E59 PUSH2 0x5FA3 JUMP JUMPDEST POP POP POP POP POP ISZERO DUP1 ISZERO PUSH2 0x4E6F JUMPI RETURNDATASIZE PUSH1 0x0 DUP1 RETURNDATACOPY RETURNDATASIZE PUSH1 0x0 REVERT JUMPDEST POP POP POP POP PUSH1 0x4 PUSH1 0x0 SWAP1 PUSH2 0x4E80 PUSH2 0x5F3A JUMP JUMPDEST SWAP1 PUSH2 0x100 EXP SWAP1 DIV PUSH1 0x1 PUSH1 0x1 PUSH1 0xA0 SHL SUB AND PUSH1 0x1 PUSH1 0x1 PUSH1 0xA0 SHL SUB AND GAS PUSH2 0x4EA2 PUSH2 0x5FFA JUMP JUMPDEST PUSH1 0x1 PUSH1 0x1 PUSH1 0xA0 SHL SUB AND EQ ISZERO DUP1 ISZERO PUSH2 0x4EEE JUMPI POP PUSH1 0x0 PUSH1 0x5 PUSH2 0x4EC0 PUSH2 0x5F3A JUMP JUMPDEST SWAP1 PUSH2 0x100 EXP SWAP1 DIV PUSH1 0x1 PUSH1 0x1 PUSH1 0xA0 SHL SUB AND PUSH1 0x1 PUSH1 0x1 PUSH1 0xA0 SHL SUB AND GAS PUSH2 0x4EE2 PUSH2 0x5FFA JUMP JUMPDEST PUSH1 0x1 PUSH1 0x1 PUSH1 0xA0 SHL SUB AND EQ ISZERO JUMPDEST DUP1 ISZERO PUSH2 0x4F2F JUMPI POP GAS PUSH2 0x4EFE PUSH2 0x5FFA JUMP JUMPDEST PUSH1 0x1 PUSH1 0x1 PUSH1 0xA0 SHL SUB AND PUSH1 0x0 PUSH1 0x6 PUSH2 0x4F13 PUSH2 0x5F3A JUMP JUMPDEST SWAP1 PUSH2 0x100 EXP SWAP1 DIV PUSH1 0x1 PUSH1 0x1 PUSH1 0xA0 SHL SUB AND PUSH1 0x1 PUSH1 0x1 PUSH1 0xA0 SHL SUB AND EQ ISZERO JUMPDEST ISZERO PUSH2 0x4F70 JUMPI GAS PUSH2 0x4F3D PUSH2 0x5FFA JUMP JUMPDEST PUSH1 0x6 PUSH1 0x1 DUP2 PUSH2 0x4F4A PUSH2 0x5F3A JUMP JUMPDEST DUP2 PUSH1 0x1 PUSH1 0x1 PUSH1 0xA0 SHL SUB MUL NOT AND SWAP1 DUP4 PUSH1 0x1 PUSH1 0x1 PUSH1 0xA0 SHL SUB AND MUL OR SWAP1 PUSH2 0x4F6C PUSH2 0x601E JUMP JUMPDEST POP POP POP JUMPDEST PUSH2 0x4F78 PUSH2 0x53F4 JUMP JUMPDEST PUSH1 0x1 PUSH1 0x1 PUSH1 0xA0 SHL SUB AND PUSH4 0xA1E187D PUSH1 0x0 PUSH1 0x6 PUSH2 0x4F92 PUSH2 0x5F3A JUMP JUMPDEST SWAP1 PUSH2 0x100 EXP SWAP1 DIV PUSH1 0x1 PUSH1 0x1 PUSH1 0xA0 SHL SUB AND DUP9 DUP9 DUP9 PUSH1 0x6 PUSH1 0x0 SWAP1 PUSH2 0x4FB2 PUSH2 0x5F3A JUMP JUMPDEST SWAP1 PUSH2 0x100 EXP SWAP1 DIV PUSH1 0x1 PUSH1 0x1 PUSH1 0xA0 SHL SUB AND PUSH1 0x40 MLOAD DUP7 PUSH4 0xFFFFFFFF AND PUSH1 0xE0 SHL DUP2 MSTORE PUSH1 0x4 ADD DUP1 DUP7 PUSH1 0x1 PUSH1 0x1 PUSH1 0xA0 SHL SUB AND PUSH1 0x1 PUSH1 0x1 PUSH1 0xA0 SHL SUB AND DUP2 MSTORE PUSH1 0x20 ADD DUP6 DUP2 MSTORE PUSH1 0x20 ADD DUP5 DUP2 MSTORE PUSH1 0x20 ADD DUP4 DUP2 MSTORE PUSH1 0x20 ADD DUP3 PUSH1 0x1 PUSH1 0x1 PUSH1 0xA0 SHL SUB AND PUSH1 0x1 PUSH1 0x1 PUSH1 0xA0 SHL SUB AND DUP2 MSTORE PUSH1 0x20 ADD SWAP6 POP POP POP POP POP POP PUSH1 0x20 PUSH1 0x40 MLOAD DUP1 DUP4 SUB DUP2 PUSH1 0x0 DUP8 DUP1 PUSH2 0x5033 PUSH2 0x5F72 JUMP JUMPDEST ISZERO DUP1 ISZERO PUSH2 0x503F JUMPI PUSH1 0x0 DUP1 REVERT JUMPDEST POP GAS PUSH2 0x5049 PUSH2 0x6055 JUMP JUMPDEST POP POP POP POP POP POP ISZERO DUP1 ISZERO PUSH2 0x5060 JUMPI RETURNDATASIZE PUSH1 0x0 DUP1 RETURNDATACOPY RETURNDATASIZE PUSH1 0x0 REVERT JUMPDEST POP POP POP POP PUSH1 0x40 MLOAD RETURNDATASIZE PUSH1 0x20 DUP2 LT ISZERO PUSH2 0x5076 JUMPI PUSH1 0x0 DUP1 REVERT JUMPDEST POP MLOAD SWAP7 SWAP6 POP POP POP POP POP POP JUMP JUMPDEST PUSH1 0x0 PUSH2 0x508C PUSH2 0x50BF JUMP JUMPDEST PUSH1 0x1 PUSH1 0x1 PUSH1 0xA0 SHL SUB AND PUSH4 0xF354CAD1 PUSH1 0x40 MLOAD DUP2 PUSH4 0xFFFFFFFF AND PUSH1 0xE0 SHL DUP2 MSTORE PUSH1 0x4 ADD PUSH1 0x20 PUSH1 0x40 MLOAD DUP1 DUP4 SUB DUP2 DUP7 DUP1 PUSH2 0x4889 PUSH2 0x5F72 JUMP JUMPDEST PUSH1 0x0 PUSH2 0x5102 PUSH6 0x24B9B9BAB2B9 PUSH1 0xD1 SHL PUSH1 0x40 MLOAD DUP1 PUSH1 0x40 ADD PUSH1 0x40 MSTORE DUP1 PUSH1 0x16 DUP2 MSTORE PUSH1 0x20 ADD PUSH22 0x4D697373696E67204973737565722061646472657373 PUSH1 0x50 SHL DUP2 MSTORE POP PUSH2 0x5B25 JUMP JUMPDEST SWAP1 POP SWAP1 JUMP JUMPDEST PUSH1 0x0 PUSH1 0x4 PUSH2 0x5113 PUSH2 0x5F3A JUMP JUMPDEST SWAP1 PUSH2 0x100 EXP SWAP1 DIV PUSH1 0x1 PUSH1 0x1 PUSH1 0xA0 SHL SUB AND PUSH1 0x1 PUSH1 0x1 PUSH1 0xA0 SHL SUB AND PUSH4 0x907DFF97 DUP3 PUSH1 0x40 MLOAD PUSH1 0x20 ADD DUP1 DUP3 DUP2 MSTORE PUSH1 0x20 ADD SWAP2 POP POP PUSH1 0x40 MLOAD PUSH1 0x20 DUP2 DUP4 SUB SUB DUP2 MSTORE SWAP1 PUSH1 0x40 MSTORE PUSH1 0x3 PUSH1 0x40 MLOAD DUP1 DUP1 PUSH2 0x61E0 PUSH1 0x21 SWAP2 CODECOPY PUSH1 0x21 ADD SWAP1 POP PUSH1 0x40 MLOAD DUP1 SWAP2 SUB SWAP1 KECCAK256 PUSH2 0x5175 DUP9 PUSH2 0x584F JUMP JUMPDEST PUSH2 0x517E DUP9 PUSH2 0x584F JUMP JUMPDEST PUSH1 0x0 PUSH1 0x40 MLOAD DUP8 PUSH4 0xFFFFFFFF AND PUSH1 0xE0 SHL DUP2 MSTORE PUSH1 0x4 ADD DUP1 DUP1 PUSH1 0x20 ADD DUP8 DUP2 MSTORE PUSH1 0x20 ADD DUP7 DUP2 MSTORE PUSH1 0x20 ADD DUP6 DUP2 MSTORE PUSH1 0x20 ADD DUP5 DUP2 MSTORE PUSH1 0x20 ADD DUP4 PUSH1 0x0 SHL DUP2 MSTORE PUSH1 0x20 ADD DUP3 DUP2 SUB DUP3 MSTORE DUP9 DUP2 DUP2 MLOAD DUP2 MSTORE PUSH1 0x20 ADD SWAP2 POP DUP1 MLOAD SWAP1 PUSH1 0x20 ADD SWAP1 DUP1 DUP4 DUP4 PUSH1 0x0 DUP4 DUP2 LT ISZERO PUSH2 0x2C79 JUMPI DUP2 DUP2 ADD MLOAD DUP4 DUP3 ADD MSTORE PUSH1 0x20 ADD PUSH2 0x2C61 JUMP JUMPDEST PUSH1 0x0 PUSH2 0x5102 PUSH12 0x53797374656D537461747573 PUSH1 0xA0 SHL PUSH1 0x40 MLOAD DUP1 PUSH1 0x40 ADD PUSH1 0x40 MSTORE DUP1 PUSH1 0x1C DUP2 MSTORE PUSH1 0x20 ADD PUSH32 0x4D697373696E672053797374656D537461747573206164647265737300000000 DUP2 MSTORE POP PUSH2 0x5B25 JUMP JUMPDEST PUSH1 0x0 PUSH2 0x5102 PUSH19 0x2932BBB0B93239A234B9BA3934B13ABA34B7B7 PUSH1 0x69 SHL PUSH1 0x40 MLOAD DUP1 PUSH1 0x60 ADD PUSH1 0x40 MSTORE DUP1 PUSH1 0x23 DUP2 MSTORE PUSH1 0x20 ADD PUSH2 0x6201 PUSH1 0x23 SWAP2 CODECOPY PUSH2 0x5B25 JUMP JUMPDEST PUSH1 0x0 PUSH2 0x5102 PUSH14 0x537570706C795363686564756C65 PUSH1 0x90 SHL PUSH1 0x40 MLOAD DUP1 PUSH1 0x40 ADD PUSH1 0x40 MSTORE DUP1 PUSH1 0x1E DUP2 MSTORE PUSH1 0x20 ADD PUSH32 0x4D697373696E6720537570706C795363686564756C6520616464726573730000 DUP2 MSTORE POP PUSH2 0x5B25 JUMP JUMPDEST PUSH1 0x0 DUP3 DUP3 GT ISZERO PUSH2 0x531F JUMPI PUSH1 0x40 DUP1 MLOAD PUSH3 0x461BCD PUSH1 0xE5 SHL DUP2 MSTORE PUSH1 0x20 PUSH1 0x4 DUP3 ADD MSTORE PUSH1 0x1E PUSH1 0x24 DUP3 ADD MSTORE PUSH32 0x536166654D6174683A207375627472616374696F6E206F766572666C6F770000 PUSH1 0x44 DUP3 ADD MSTORE SWAP1 MLOAD SWAP1 DUP2 SWAP1 SUB PUSH1 0x64 ADD SWAP1 REVERT JUMPDEST POP SWAP1 SUB SWAP1 JUMP JUMPDEST PUSH1 0x0 DUP3 DUP3 ADD DUP4 DUP2 LT ISZERO PUSH2 0x537F JUMPI PUSH1 0x40 DUP1 MLOAD PUSH3 0x461BCD PUSH1 0xE5 SHL DUP2 MSTORE PUSH1 0x20 PUSH1 0x4 DUP3 ADD MSTORE PUSH1 0x1B PUSH1 0x24 DUP3 ADD MSTORE PUSH32 0x536166654D6174683A206164646974696F6E206F766572666C6F770000000000 PUSH1 0x44 DUP3 ADD MSTORE SWAP1 MLOAD SWAP1 DUP2 SWAP1 SUB PUSH1 0x64 ADD SWAP1 REVERT JUMPDEST SWAP4 SWAP3 POP POP POP JUMP JUMPDEST PUSH1 0x0 PUSH1 0x4 PUSH2 0x5392 PUSH2 0x5F3A JUMP JUMPDEST SWAP1 PUSH2 0x100 EXP SWAP1 DIV PUSH1 0x1 PUSH1 0x1 PUSH1 0xA0 SHL SUB AND PUSH1 0x1 PUSH1 0x1 PUSH1 0xA0 SHL SUB AND PUSH4 0x907DFF97 DUP3 PUSH1 0x40 MLOAD PUSH1 0x20 ADD DUP1 DUP3 DUP2 MSTORE PUSH1 0x20 ADD SWAP2 POP POP PUSH1 0x40 MLOAD PUSH1 0x20 DUP2 DUP4 SUB SUB DUP2 MSTORE SWAP1 PUSH1 0x40 MSTORE PUSH1 0x3 PUSH1 0x40 MLOAD DUP1 DUP1 PUSH2 0x627D PUSH1 0x21 SWAP2 CODECOPY PUSH1 0x21 ADD SWAP1 POP PUSH1 0x40 MLOAD DUP1 SWAP2 SUB SWAP1 KECCAK256 PUSH2 0x5175 DUP9 PUSH2 0x584F JUMP JUMPDEST PUSH1 0x0 PUSH2 0x5102 PUSH9 0x22BC31B430B733B2B9 PUSH1 0xB9 SHL PUSH1 0x40 MLOAD DUP1 PUSH1 0x40 ADD PUSH1 0x40 MSTORE DUP1 PUSH1 0x19 DUP2 MSTORE PUSH1 0x20 ADD PUSH32 0x4D697373696E672045786368616E676572206164647265737300000000000000 DUP2 MSTORE POP PUSH2 0x5B25 JUMP JUMPDEST PUSH1 0x0 DUP1 PUSH2 0x544C PUSH2 0x5BE5 JUMP JUMPDEST PUSH1 0x40 DUP1 MLOAD PUSH4 0x1167F011 PUSH1 0xE3 SHL DUP2 MSTORE PUSH1 0x1 PUSH1 0x1 PUSH1 0xA0 SHL SUB DUP8 DUP2 AND PUSH1 0x4 DUP4 ADD MSTORE DUP3 MLOAD SWAP4 AND SWAP3 PUSH4 0x8B3F8088 SWAP3 PUSH1 0x24 DUP1 DUP5 ADD SWAP4 SWAP2 SWAP3 SWAP2 DUP3 SWAP1 SUB ADD DUP2 DUP7 DUP1 PUSH2 0x548D PUSH2 0x5F72 JUMP JUMPDEST ISZERO DUP1 ISZERO PUSH2 0x5499 JUMPI PUSH1 0x0 DUP1 REVERT JUMPDEST POP GAS PUSH2 0x54A3 PUSH2 0x5FA3 JUMP JUMPDEST POP POP POP POP POP ISZERO DUP1 ISZERO PUSH2 0x54B9 JUMPI RETURNDATASIZE PUSH1 0x0 DUP1 RETURNDATACOPY RETURNDATASIZE PUSH1 0x0 REVERT JUMPDEST POP POP POP POP PUSH1 0x40 MLOAD RETURNDATASIZE PUSH1 0x40 DUP2 LT ISZERO PUSH2 0x54CF JUMPI PUSH1 0x0 DUP1 REVERT JUMPDEST POP MLOAD SWAP1 POP DUP1 ISZERO PUSH2 0xFC8 JUMPI PUSH1 0x0 DUP1 PUSH2 0x54E4 PUSH2 0x50BF JUMP JUMPDEST PUSH1 0x1 PUSH1 0x1 PUSH1 0xA0 SHL SUB AND PUSH4 0xDB2B91CF DUP8 PUSH1 0x0 PUSH1 0x7 PUSH2 0x54FF PUSH2 0x5F3A JUMP JUMPDEST SWAP1 PUSH2 0x100 EXP SWAP1 DIV PUSH1 0x1 PUSH1 0x1 PUSH1 0xA0 SHL SUB AND PUSH1 0x1 PUSH1 0x1 PUSH1 0xA0 SHL SUB AND PUSH4 0x70A08231 DUP11 PUSH1 0x40 MLOAD DUP3 PUSH4 0xFFFFFFFF AND PUSH1 0xE0 SHL DUP2 MSTORE PUSH1 0x4 ADD DUP1 DUP3 PUSH1 0x1 PUSH1 0x1 PUSH1 0xA0 SHL SUB AND PUSH1 0x1 PUSH1 0x1 PUSH1 0xA0 SHL SUB AND DUP2 MSTORE PUSH1 0x20 ADD SWAP2 POP POP PUSH1 0x20 PUSH1 0x40 MLOAD DUP1 DUP4 SUB DUP2 DUP7 DUP1 PUSH2 0x555F PUSH2 0x5F72 JUMP JUMPDEST ISZERO DUP1 ISZERO PUSH2 0x556B JUMPI PUSH1 0x0 DUP1 REVERT JUMPDEST POP GAS PUSH2 0x5575 PUSH2 0x5FA3 JUMP JUMPDEST POP POP POP POP POP ISZERO DUP1 ISZERO PUSH2 0x558B JUMPI RETURNDATASIZE PUSH1 0x0 DUP1 RETURNDATACOPY RETURNDATASIZE PUSH1 0x0 REVERT JUMPDEST POP POP POP POP PUSH1 0x40 MLOAD RETURNDATASIZE PUSH1 0x20 DUP2 LT ISZERO PUSH2 0x55A1 JUMPI PUSH1 0x0 DUP1 REVERT JUMPDEST POP MLOAD PUSH1 0x40 DUP1 MLOAD PUSH1 0x1 PUSH1 0x1 PUSH1 0xE0 SHL SUB NOT PUSH1 0xE0 DUP7 SWAP1 SHL AND DUP2 MSTORE PUSH1 0x1 PUSH1 0x1 PUSH1 0xA0 SHL SUB SWAP1 SWAP4 AND PUSH1 0x4 DUP5 ADD MSTORE PUSH1 0x24 DUP4 ADD SWAP2 SWAP1 SWAP2 MSTORE DUP1 MLOAD PUSH1 0x44 DUP1 DUP5 ADD SWAP4 DUP3 SWAP1 SUB ADD DUP2 DUP7 DUP1 PUSH2 0x55E7 PUSH2 0x5F72 JUMP JUMPDEST ISZERO DUP1 ISZERO PUSH2 0x55F3 JUMPI PUSH1 0x0 DUP1 REVERT JUMPDEST POP GAS PUSH2 0x55FD PUSH2 0x5FA3 JUMP JUMPDEST POP POP POP POP POP ISZERO DUP1 ISZERO PUSH2 0x5613 JUMPI RETURNDATASIZE PUSH1 0x0 DUP1 RETURNDATACOPY RETURNDATASIZE PUSH1 0x0 REVERT JUMPDEST POP POP POP POP PUSH1 0x40 MLOAD RETURNDATASIZE PUSH1 0x40 DUP2 LT ISZERO PUSH2 0x5629 JUMPI PUSH1 0x0 DUP1 REVERT JUMPDEST POP DUP1 MLOAD PUSH1 0x20 SWAP1 SWAP2 ADD MLOAD SWAP1 SWAP3 POP SWAP1 POP DUP2 DUP6 GT ISZERO PUSH2 0x5676 JUMPI PUSH1 0x40 MLOAD PUSH3 0x461BCD PUSH1 0xE5 SHL DUP2 MSTORE PUSH1 0x4 ADD DUP1 DUP1 PUSH1 0x20 ADD DUP3 DUP2 SUB DUP3 MSTORE PUSH1 0x26 DUP2 MSTORE PUSH1 0x20 ADD DUP1 PUSH2 0x618B PUSH1 0x26 SWAP2 CODECOPY PUSH1 0x40 ADD SWAP2 POP POP PUSH1 0x40 MLOAD DUP1 SWAP2 SUB SWAP1 REVERT JUMPDEST DUP1 ISZERO PUSH2 0x56C9 JUMPI PUSH1 0x40 DUP1 MLOAD PUSH3 0x461BCD PUSH1 0xE5 SHL DUP2 MSTORE PUSH1 0x20 PUSH1 0x4 DUP3 ADD MSTORE PUSH1 0x1C PUSH1 0x24 DUP3 ADD MSTORE PUSH32 0x412073796E7468206F7220534E582072617465206973207374616C6500000000 PUSH1 0x44 DUP3 ADD MSTORE SWAP1 MLOAD SWAP1 DUP2 SWAP1 SUB PUSH1 0x64 ADD SWAP1 REVERT JUMPDEST POP PUSH1 0x1 SWAP6 SWAP5 POP POP POP POP POP JUMP JUMPDEST PUSH1 0x0 DUP1 PUSH1 0x7 PUSH2 0x56E2 PUSH2 0x5F3A JUMP JUMPDEST PUSH1 0x1 PUSH1 0x1 PUSH1 0xA0 SHL SUB PUSH2 0x100 SWAP3 SWAP1 SWAP3 EXP SWAP1 DIV AND PUSH4 0xDA46098C DUP6 DUP8 PUSH2 0x57B0 DUP7 PUSH1 0x0 PUSH1 0x7 PUSH2 0x570B PUSH2 0x5F3A JUMP JUMPDEST PUSH1 0x40 DUP1 MLOAD PUSH4 0x6EB1769F PUSH1 0xE1 SHL DUP2 MSTORE PUSH1 0x1 PUSH1 0x1 PUSH1 0xA0 SHL SUB DUP15 DUP2 AND PUSH1 0x4 DUP4 ADD MSTORE DUP16 DUP2 AND PUSH1 0x24 DUP4 ADD MSTORE SWAP2 MLOAD PUSH2 0x100 SWAP5 SWAP1 SWAP5 EXP SWAP1 SWAP3 DIV AND SWAP2 PUSH4 0xDD62ED3E SWAP2 PUSH1 0x44 DUP1 DUP3 ADD SWAP3 PUSH1 0x20 SWAP3 SWAP1 SWAP2 SWAP1 DUP3 SWAP1 SUB ADD DUP2 DUP7 DUP1 PUSH2 0x5760 PUSH2 0x5F72 JUMP JUMPDEST ISZERO DUP1 ISZERO PUSH2 0x576C JUMPI PUSH1 0x0 DUP1 REVERT JUMPDEST POP GAS PUSH2 0x5776 PUSH2 0x5FA3 JUMP JUMPDEST POP POP POP POP POP ISZERO DUP1 ISZERO PUSH2 0x578C JUMPI RETURNDATASIZE PUSH1 0x0 DUP1 RETURNDATACOPY RETURNDATASIZE PUSH1 0x0 REVERT JUMPDEST POP POP POP POP PUSH1 0x40 MLOAD RETURNDATASIZE PUSH1 0x20 DUP2 LT ISZERO PUSH2 0x57A2 JUMPI PUSH1 0x0 DUP1 REVERT JUMPDEST POP MLOAD SWAP1 PUSH4 0xFFFFFFFF PUSH2 0x52C8 AND JUMP JUMPDEST PUSH1 0x40 MLOAD DUP5 PUSH4 0xFFFFFFFF AND PUSH1 0xE0 SHL DUP2 MSTORE PUSH1 0x4 ADD DUP1 DUP5 PUSH1 0x1 PUSH1 0x1 PUSH1 0xA0 SHL SUB AND PUSH1 0x1 PUSH1 0x1 PUSH1 0xA0 SHL SUB AND DUP2 MSTORE PUSH1 0x20 ADD DUP4 PUSH1 0x1 PUSH1 0x1 PUSH1 0xA0 SHL SUB AND PUSH1 0x1 PUSH1 0x1 PUSH1 0xA0 SHL SUB AND DUP2 MSTORE PUSH1 0x20 ADD DUP3 DUP2 MSTORE PUSH1 0x20 ADD SWAP4 POP POP POP POP PUSH1 0x0 PUSH1 0x40 MLOAD DUP1 DUP4 SUB DUP2 PUSH1 0x0 DUP8 DUP1 PUSH2 0x5813 PUSH2 0x5F72 JUMP JUMPDEST ISZERO DUP1 ISZERO PUSH2 0x581F JUMPI PUSH1 0x0 DUP1 REVERT JUMPDEST POP GAS PUSH2 0x5829 PUSH2 0x6055 JUMP JUMPDEST POP POP POP POP POP POP ISZERO DUP1 ISZERO PUSH2 0x5840 JUMPI RETURNDATASIZE PUSH1 0x0 DUP1 RETURNDATACOPY RETURNDATASIZE PUSH1 0x0 REVERT JUMPDEST POP POP POP POP PUSH2 0x4BDA DUP5 DUP5 DUP5 PUSH2 0x5C37 JUMP JUMPDEST PUSH1 0x1 PUSH1 0x1 PUSH1 0xA0 SHL SUB AND SWAP1 JUMP JUMPDEST PUSH1 0x0 PUSH1 0x4 PUSH2 0x5867 PUSH2 0x5F3A JUMP JUMPDEST PUSH1 0x40 DUP1 MLOAD PUSH1 0x1 PUSH1 0x1 PUSH1 0xA0 SHL SUB DUP6 DUP2 AND PUSH1 0x20 DUP1 DUP5 ADD SWAP2 SWAP1 SWAP2 MSTORE DUP4 MLOAD DUP1 DUP5 SUB DUP3 ADD DUP2 MSTORE DUP4 DUP6 ADD DUP1 DUP7 MSTORE PUSH32 0x546F6B656E537461746555706461746564286164647265737329000000000000 SWAP1 MSTORE SWAP4 MLOAD SWAP3 DUP4 SWAP1 SUB PUSH1 0x5A ADD DUP4 KECCAK256 PUSH4 0x907DFF97 PUSH1 0xE0 SHL DUP5 MSTORE PUSH1 0x1 PUSH1 0x24 DUP6 ADD DUP2 SWAP1 MSTORE PUSH1 0x44 DUP6 ADD DUP3 SWAP1 MSTORE PUSH1 0x0 PUSH1 0x64 DUP7 ADD DUP2 SWAP1 MSTORE PUSH1 0x84 DUP7 ADD DUP2 SWAP1 MSTORE PUSH1 0xA4 DUP7 ADD DUP2 SWAP1 MSTORE PUSH1 0xC0 PUSH1 0x4 DUP8 ADD SWAP1 DUP2 MSTORE DUP8 MLOAD PUSH1 0xC4 DUP9 ADD MSTORE DUP8 MLOAD PUSH2 0x100 SWAP11 SWAP1 SWAP11 EXP SWAP1 SWAP9 DIV SWAP5 SWAP1 SWAP5 AND SWAP8 PUSH4 0x907DFF97 SWAP8 SWAP2 SWAP6 SWAP3 SWAP5 SWAP4 DUP5 SWAP4 DUP5 SWAP4 SWAP3 DUP4 SWAP3 PUSH1 0xE4 SWAP1 SWAP3 ADD SWAP2 DUP11 ADD SWAP1 DUP1 DUP4 DUP4 DUP9 JUMPDEST DUP4 DUP2 LT ISZERO PUSH2 0x5946 JUMPI DUP2 DUP2 ADD MLOAD DUP4 DUP3 ADD MSTORE PUSH1 0x20 ADD PUSH2 0x592E JUMP JUMPDEST POP POP POP POP SWAP1 POP SWAP1 DUP2 ADD SWAP1 PUSH1 0x1F AND DUP1 ISZERO PUSH2 0x5973 JUMPI DUP1 DUP3 SUB DUP1 MLOAD PUSH1 0x1 DUP4 PUSH1 0x20 SUB PUSH2 0x100 EXP SUB NOT AND DUP2 MSTORE PUSH1 0x20 ADD SWAP2 POP JUMPDEST POP SWAP8 POP POP POP POP POP POP POP POP PUSH1 0x0 PUSH1 0x40 MLOAD DUP1 DUP4 SUB DUP2 PUSH1 0x0 DUP8 DUP1 PUSH2 0x1EDC PUSH2 0x5F72 JUMP JUMPDEST PUSH1 0x0 PUSH2 0x1CEF DUP5 DUP5 DUP5 PUSH2 0x5C37 JUMP JUMPDEST PUSH1 0x0 PUSH1 0x4 PUSH2 0x59AB PUSH2 0x5F3A JUMP JUMPDEST SWAP1 PUSH2 0x100 EXP SWAP1 DIV PUSH1 0x1 PUSH1 0x1 PUSH1 0xA0 SHL SUB AND PUSH1 0x1 PUSH1 0x1 PUSH1 0xA0 SHL SUB AND PUSH4 0x907DFF97 DUP5 DUP5 DUP5 PUSH1 0x40 MLOAD PUSH1 0x20 ADD DUP1 DUP5 DUP2 MSTORE PUSH1 0x20 ADD DUP4 DUP2 MSTORE PUSH1 0x20 ADD DUP3 PUSH1 0x1 PUSH1 0x1 PUSH1 0xA0 SHL SUB AND PUSH1 0x1 PUSH1 0x1 PUSH1 0xA0 SHL SUB AND DUP2 MSTORE PUSH1 0x20 ADD SWAP4 POP POP POP POP PUSH1 0x40 MLOAD PUSH1 0x20 DUP2 DUP4 SUB SUB DUP2 MSTORE SWAP1 PUSH1 0x40 MSTORE PUSH1 0x2 PUSH1 0x40 MLOAD DUP1 DUP1 PUSH2 0x624B PUSH1 0x32 SWAP2 CODECOPY PUSH1 0x32 ADD SWAP1 POP PUSH1 0x40 MLOAD DUP1 SWAP2 SUB SWAP1 KECCAK256 PUSH2 0x5A2F DUP10 PUSH2 0x584F JUMP JUMPDEST PUSH1 0x0 DUP1 PUSH1 0x40 MLOAD DUP8 PUSH4 0xFFFFFFFF AND PUSH1 0xE0 SHL DUP2 MSTORE PUSH1 0x4 ADD DUP1 DUP1 PUSH1 0x20 ADD DUP8 DUP2 MSTORE PUSH1 0x20 ADD DUP7 DUP2 MSTORE PUSH1 0x20 ADD DUP6 DUP2 MSTORE PUSH1 0x20 ADD DUP5 PUSH1 0x0 SHL DUP2 MSTORE PUSH1 0x20 ADD DUP4 PUSH1 0x0 SHL DUP2 MSTORE PUSH1 0x20 ADD DUP3 DUP2 SUB DUP3 MSTORE DUP9 DUP2 DUP2 MLOAD DUP2 MSTORE PUSH1 0x20 ADD SWAP2 POP DUP1 MLOAD SWAP1 PUSH1 0x20 ADD SWAP1 DUP1 DUP4 DUP4 PUSH1 0x0 JUMPDEST DUP4 DUP2 LT ISZERO PUSH2 0x5AA2 JUMPI DUP2 DUP2 ADD MLOAD DUP4 DUP3 ADD MSTORE PUSH1 0x20 ADD PUSH2 0x5A8A JUMP JUMPDEST POP POP POP POP SWAP1 POP SWAP1 DUP2 ADD SWAP1 PUSH1 0x1F AND DUP1 ISZERO PUSH2 0x5ACF JUMPI DUP1 DUP3 SUB DUP1 MLOAD PUSH1 0x1 DUP4 PUSH1 0x20 SUB PUSH2 0x100 EXP SUB NOT AND DUP2 MSTORE PUSH1 0x20 ADD SWAP2 POP JUMPDEST POP SWAP8 POP POP POP POP POP POP POP POP PUSH1 0x0 PUSH1 0x40 MLOAD DUP1 DUP4 SUB DUP2 PUSH1 0x0 DUP8 DUP1 PUSH2 0x5AEE PUSH2 0x5F72 JUMP JUMPDEST ISZERO DUP1 ISZERO PUSH2 0x5AFA JUMPI PUSH1 0x0 DUP1 REVERT JUMPDEST POP GAS PUSH2 0x5B04 PUSH2 0x6055 JUMP JUMPDEST POP POP POP POP POP POP ISZERO DUP1 ISZERO PUSH2 0x5B1B JUMPI RETURNDATASIZE PUSH1 0x0 DUP1 RETURNDATACOPY RETURNDATASIZE PUSH1 0x0 REVERT JUMPDEST POP POP POP POP POP POP POP POP JUMP JUMPDEST PUSH1 0x0 DUP3 DUP2 MSTORE PUSH1 0xC PUSH1 0x20 MSTORE PUSH1 0x40 DUP2 KECCAK256 DUP2 SWAP1 DUP2 SWAP1 PUSH2 0x5B3F PUSH2 0x5F3A JUMP JUMPDEST PUSH1 0x1 PUSH1 0x1 PUSH1 0xA0 SHL SUB PUSH2 0x100 SWAP3 SWAP1 SWAP3 EXP SWAP1 DIV AND SWAP1 POP DUP3 DUP2 PUSH2 0x5BDD JUMPI PUSH1 0x40 MLOAD PUSH3 0x461BCD PUSH1 0xE5 SHL DUP2 MSTORE PUSH1 0x4 ADD DUP1 DUP1 PUSH1 0x20 ADD DUP3 DUP2 SUB DUP3 MSTORE DUP4 DUP2 DUP2 MLOAD DUP2 MSTORE PUSH1 0x20 ADD SWAP2 POP DUP1 MLOAD SWAP1 PUSH1 0x20 ADD SWAP1 DUP1 DUP4 DUP4 PUSH1 0x0 JUMPDEST DUP4 DUP2 LT ISZERO PUSH2 0x5BA2 JUMPI DUP2 DUP2 ADD MLOAD DUP4 DUP3 ADD MSTORE PUSH1 0x20 ADD PUSH2 0x5B8A JUMP JUMPDEST POP POP POP POP SWAP1 POP SWAP1 DUP2 ADD SWAP1 PUSH1 0x1F AND DUP1 ISZERO PUSH2 0x5BCF JUMPI DUP1 DUP3 SUB DUP1 MLOAD PUSH1 0x1 DUP4 PUSH1 0x20 SUB PUSH2 0x100 EXP SUB NOT AND DUP2 MSTORE PUSH1 0x20 ADD SWAP2 POP JUMPDEST POP SWAP3 POP POP POP PUSH1 0x40 MLOAD DUP1 SWAP2 SUB SWAP1 REVERT JUMPDEST POP SWAP4 SWAP3 POP POP POP JUMP JUMPDEST PUSH1 0x0 PUSH2 0x5102 PUSH14 0x53796E7468657469785374617465 PUSH1 0x90 SHL PUSH1 0x40 MLOAD DUP1 PUSH1 0x40 ADD PUSH1 0x40 MSTORE DUP1 PUSH1 0x1E DUP2 MSTORE PUSH1 0x20 ADD PUSH32 0x4D697373696E672053796E746865746978537461746520616464726573730000 DUP2 MSTORE POP PUSH2 0x5B25 JUMP JUMPDEST PUSH1 0x0 PUSH1 0x1 PUSH1 0x1 PUSH1 0xA0 SHL SUB DUP4 AND ISZERO DUP1 ISZERO SWAP1 PUSH2 0x5C86 JUMPI POP GAS PUSH4 0x996D79A5 PUSH3 0x80000 DUP2 PUSH1 0xE0 SHL DUP2 MSTORE PUSH1 0x20 DUP2 PUSH1 0x4 DUP4 PUSH1 0x0 CALLER GAS CALL DUP1 PUSH2 0x5C71 JUMPI PUSH1 0x0 DUP1 REVERT JUMPDEST POP MLOAD PUSH1 0x1 PUSH1 0x1 PUSH1 0xA0 SHL SUB DUP7 DUP2 AND SWAP2 AND EQ ISZERO SWAP2 POP POP JUMPDEST DUP1 ISZERO PUSH2 0x5CBF JUMPI POP PUSH1 0x0 PUSH1 0x4 PUSH2 0x5C99 PUSH2 0x5F3A JUMP JUMPDEST SWAP1 PUSH2 0x100 EXP SWAP1 DIV PUSH1 0x1 PUSH1 0x1 PUSH1 0xA0 SHL SUB AND PUSH1 0x1 PUSH1 0x1 PUSH1 0xA0 SHL SUB AND DUP4 PUSH1 0x1 PUSH1 0x1 PUSH1 0xA0 SHL SUB AND EQ ISZERO JUMPDEST PUSH2 0x5D10 JUMPI PUSH1 0x40 DUP1 MLOAD PUSH3 0x461BCD PUSH1 0xE5 SHL DUP2 MSTORE PUSH1 0x20 PUSH1 0x4 DUP3 ADD MSTORE PUSH1 0x1F PUSH1 0x24 DUP3 ADD MSTORE PUSH32 0x43616E6E6F74207472616E7366657220746F2074686973206164647265737300 PUSH1 0x44 DUP3 ADD MSTORE SWAP1 MLOAD SWAP1 DUP2 SWAP1 SUB PUSH1 0x64 ADD SWAP1 REVERT JUMPDEST PUSH1 0x0 PUSH1 0x7 PUSH2 0x5D1C PUSH2 0x5F3A JUMP JUMPDEST PUSH1 0x1 PUSH1 0x1 PUSH1 0xA0 SHL SUB PUSH2 0x100 SWAP3 SWAP1 SWAP3 EXP SWAP1 DIV AND PUSH4 0xB46310F6 DUP6 PUSH2 0x5DA4 DUP6 PUSH1 0x0 PUSH1 0x7 PUSH2 0x5D44 PUSH2 0x5F3A JUMP JUMPDEST SWAP1 PUSH2 0x100 EXP SWAP1 DIV PUSH1 0x1 PUSH1 0x1 PUSH1 0xA0 SHL SUB AND PUSH1 0x1 PUSH1 0x1 PUSH1 0xA0 SHL SUB AND PUSH4 0x70A08231 DUP11 PUSH1 0x40 MLOAD DUP3 PUSH4 0xFFFFFFFF AND PUSH1 0xE0 SHL DUP2 MSTORE PUSH1 0x4 ADD DUP1 DUP3 PUSH1 0x1 PUSH1 0x1 PUSH1 0xA0 SHL SUB AND PUSH1 0x1 PUSH1 0x1 PUSH1 0xA0 SHL SUB AND DUP2 MSTORE PUSH1 0x20 ADD SWAP2 POP POP PUSH1 0x20 PUSH1 0x40 MLOAD DUP1 DUP4 SUB DUP2 DUP7 DUP1 PUSH2 0x5760 PUSH2 0x5F72 JUMP JUMPDEST PUSH1 0x40 MLOAD DUP4 PUSH4 0xFFFFFFFF AND PUSH1 0xE0 SHL DUP2 MSTORE PUSH1 0x4 ADD DUP1 DUP4 PUSH1 0x1 PUSH1 0x1 PUSH1 0xA0 SHL SUB AND PUSH1 0x1 PUSH1 0x1 PUSH1 0xA0 SHL SUB AND DUP2 MSTORE PUSH1 0x20 ADD DUP3 DUP2 MSTORE PUSH1 0x20 ADD SWAP3 POP POP POP PUSH1 0x0 PUSH1 0x40 MLOAD DUP1 DUP4 SUB DUP2 PUSH1 0x0 DUP8 DUP1 PUSH2 0x5DEE PUSH2 0x5F72 JUMP JUMPDEST ISZERO DUP1 ISZERO PUSH2 0x5DFA JUMPI PUSH1 0x0 DUP1 REVERT JUMPDEST POP GAS PUSH2 0x5E04 PUSH2 0x6055 JUMP JUMPDEST POP POP POP POP POP POP ISZERO DUP1 ISZERO PUSH2 0x5E1B JUMPI RETURNDATASIZE PUSH1 0x0 DUP1 RETURNDATACOPY RETURNDATASIZE PUSH1 0x0 REVERT JUMPDEST POP POP POP POP PUSH1 0x7 PUSH1 0x0 SWAP1 PUSH2 0x5E2C PUSH2 0x5F3A JUMP JUMPDEST PUSH1 0x1 PUSH1 0x1 PUSH1 0xA0 SHL SUB PUSH2 0x100 SWAP3 SWAP1 SWAP3 EXP SWAP1 DIV AND PUSH4 0xB46310F6 DUP5 PUSH2 0x5EB4 DUP6 PUSH1 0x0 PUSH1 0x7 PUSH2 0x5E54 PUSH2 0x5F3A JUMP JUMPDEST SWAP1 PUSH2 0x100 EXP SWAP1 DIV PUSH1 0x1 PUSH1 0x1 PUSH1 0xA0 SHL SUB AND PUSH1 0x1 PUSH1 0x1 PUSH1 0xA0 SHL SUB AND PUSH4 0x70A08231 DUP10 PUSH1 0x40 MLOAD DUP3 PUSH4 0xFFFFFFFF AND PUSH1 0xE0 SHL DUP2 MSTORE PUSH1 0x4 ADD DUP1 DUP3 PUSH1 0x1 PUSH1 0x1 PUSH1 0xA0 SHL SUB AND PUSH1 0x1 PUSH1 0x1 PUSH1 0xA0 SHL SUB AND DUP2 MSTORE PUSH1 0x20 ADD SWAP2 POP POP PUSH1 0x20 PUSH1 0x40 MLOAD DUP1 DUP4 SUB DUP2 DUP7 DUP1 PUSH2 0x13F8 PUSH2 0x5F72 JUMP JUMPDEST PUSH1 0x40 MLOAD DUP4 PUSH4 0xFFFFFFFF AND PUSH1 0xE0 SHL DUP2 MSTORE PUSH1 0x4 ADD DUP1 DUP4 PUSH1 0x1 PUSH1 0x1 PUSH1 0xA0 SHL SUB AND PUSH1 0x1 PUSH1 0x1 PUSH1 0xA0 SHL SUB AND DUP2 MSTORE PUSH1 0x20 ADD DUP3 DUP2 MSTORE PUSH1 0x20 ADD SWAP3 POP POP POP PUSH1 0x0 PUSH1 0x40 MLOAD DUP1 DUP4 SUB DUP2 PUSH1 0x0 DUP8 DUP1 PUSH2 0x5EFE PUSH2 0x5F72 JUMP JUMPDEST ISZERO DUP1 ISZERO PUSH2 0x5F0A JUMPI PUSH1 0x0 DUP1 REVERT JUMPDEST POP GAS PUSH2 0x5F14 PUSH2 0x6055 JUMP JUMPDEST POP POP POP POP POP POP ISZERO DUP1 ISZERO PUSH2 0x5F2B JUMPI RETURNDATASIZE PUSH1 0x0 DUP1 RETURNDATACOPY RETURNDATASIZE PUSH1 0x0 REVERT JUMPDEST POP POP POP POP PUSH2 0xFC8 DUP5 DUP5 DUP5 PUSH2 0x5386 JUMP JUMPDEST PUSH4 0x412CC41 PUSH1 0xE3 SHL PUSH3 0x80000 SWAP1 DUP2 MSTORE PUSH3 0x80004 DUP4 SWAP1 MSTORE PUSH4 0x20966208 SWAP1 PUSH1 0x20 DUP2 PUSH1 0x24 DUP2 PUSH1 0x0 CALLER GAS CALL DUP1 PUSH2 0x5F6B JUMPI PUSH1 0x0 DUP1 REVERT JUMPDEST POP MLOAD SWAP3 POP POP JUMP JUMPDEST PUSH4 0xC3382D0F PUSH1 0xE0 SHL PUSH3 0x80000 SWAP1 DUP2 MSTORE PUSH3 0x80004 DUP4 SWAP1 MSTORE PUSH4 0xC3382D0F SWAP1 PUSH1 0x20 DUP2 PUSH1 0x24 DUP2 PUSH1 0x0 CALLER GAS CALL DUP1 PUSH2 0x5F6B JUMPI PUSH1 0x0 DUP1 REVERT JUMPDEST PUSH4 0xFBB0F79D PUSH1 0xE0 SHL PUSH3 0x80000 SWAP1 DUP2 MSTORE PUSH3 0x80004 DUP5 SWAP1 MSTORE PUSH4 0xFBB0F79D SWAP1 PUSH1 0x0 JUMPDEST DUP8 DUP2 LT ISZERO PUSH2 0x5FDD JUMPI DUP7 DUP2 ADD MLOAD DUP3 DUP3 ADD PUSH1 0x24 ADD MSTORE PUSH1 0x20 ADD PUSH2 0x5FC2 JUMP JUMPDEST POP DUP9 DUP9 DUP9 PUSH1 0x24 ADD DUP4 PUSH1 0x0 CALLER GAS CALL DUP1 PUSH2 0x5FF4 JUMPI PUSH1 0x0 DUP1 REVERT JUMPDEST SWAP9 POP POP POP JUMP JUMPDEST PUSH4 0x73509064 PUSH3 0x80000 DUP2 PUSH1 0xE0 SHL DUP2 MSTORE PUSH1 0x20 DUP2 PUSH1 0x4 DUP4 PUSH1 0x0 CALLER GAS CALL DUP1 PUSH2 0x5F6B JUMPI PUSH1 0x0 DUP1 REVERT JUMPDEST PUSH4 0x146E595 PUSH1 0xE5 SHL PUSH3 0x80000 SWAP1 DUP2 MSTORE PUSH3 0x80004 DUP4 SWAP1 MSTORE PUSH3 0x80024 DUP5 SWAP1 MSTORE PUSH4 0x28DCB2A0 SWAP1 PUSH1 0x0 DUP2 PUSH1 0x44 DUP2 DUP4 CALLER GAS CALL DUP1 PUSH2 0x2FFB JUMPI PUSH1 0x0 DUP1 REVERT JUMPDEST PUSH4 0x131B5F21 PUSH1 0xE2 SHL PUSH3 0x80000 SWAP1 DUP2 MSTORE PUSH3 0x80004 DUP5 SWAP1 MSTORE PUSH4 0x4C6D7C84 SWAP1 PUSH1 0x0 JUMPDEST DUP9 DUP2 LT ISZERO PUSH2 0x608F JUMPI DUP8 DUP2 ADD MLOAD DUP3 DUP3 ADD PUSH1 0x24 ADD MSTORE PUSH1 0x20 ADD PUSH2 0x6074 JUMP JUMPDEST POP DUP10 DUP10 DUP10 PUSH1 0x24 ADD DUP4 PUSH1 0x0 CALLER GAS CALL DUP1 PUSH2 0x60A6 JUMPI PUSH1 0x0 DUP1 REVERT JUMPDEST SWAP10 POP POP POP JUMP JUMPDEST PUSH4 0xBDBF8C36 PUSH3 0x80000 DUP2 PUSH1 0xE0 SHL DUP2 MSTORE PUSH1 0x20 DUP2 PUSH1 0x4 DUP4 PUSH1 0x0 CALLER GAS CALL DUP1 PUSH2 0x5F6B JUMPI PUSH1 0x0 DUP1 REVERT JUMPDEST PUSH1 0x40 MLOAD DUP1 PUSH2 0x300 ADD PUSH1 0x40 MSTORE DUP1 PUSH1 0x18 SWAP1 PUSH1 0x20 DUP3 MUL DUP1 CODESIZE DUP4 CODECOPY POP SWAP2 SWAP3 SWAP2 POP POP JUMP INVALID MSIZE PUSH16 0x75206D757374206265206E6F6D696E61 PUSH21 0x6564206265666F726520796F752063616E20616363 PUSH6 0x7074206F776E PUSH6 0x727368697045 PUSH25 0x6368616E67655265636C61696D28616464726573732C627974 PUSH6 0x7333322C7569 PUSH15 0x743235362953796E74684578636861 PUSH15 0x676528616464726573732C62797465 PUSH20 0x33322C75696E743235362C627974657333322C75 PUSH10 0x6E743235362C61646472 PUSH6 0x73732943616E PUSH15 0x6F74207472616E7366657220737461 PUSH12 0x6564206F7220657363726F77 PUSH6 0x6420534E584F PUSH15 0x6C792074686520636F6E7472616374 KECCAK256 PUSH16 0x776E6572206D617920706572666F726D KECCAK256 PUSH21 0x68697320616374696F6E417070726F76616C286164 PUSH5 0x726573732C PUSH2 0x6464 PUSH19 0x6573732C75696E74323536294D697373696E67 KECCAK256 MSTORE PUSH6 0x776172647344 PUSH10 0x73747269627574696F6E KECCAK256 PUSH2 0x6464 PUSH19 0x65737345786368616E67655265626174652861 PUSH5 0x6472657373 0x2C PUSH3 0x797465 PUSH20 0x33322C75696E74323536294163636F756E744C69 PUSH18 0x7569646174656428616464726573732C7569 PUSH15 0x743235362C75696E743235362C6164 PUSH5 0x7265737329 SLOAD PUSH19 0x616E7366657228616464726573732C61646472 PUSH6 0x73732C75696E PUSH21 0x32353629A265627A7A7231582053B03CC302E4DF13 DIV COINBASE EQ 0x2D ISZERO 0xBF 0xBD DELEGATECALL 0xB9 SWAP14 PUSH25 0x55F118BD3C6AD5024B4E33A77464736F6C637828302E352E31 CALLDATASIZE 0x2D PUSH5 0x6576656C6F PUSH17 0x2E323032302E372E32392B636F6D6D6974 0x2E CALLDATASIZE ORIGIN PUSH6 0x363465363700 PC "
		}
	}
}