{
	"abi": [
		{
			"inputs": [
				{
					"internalType": "address payable",
					"name": "_proxy",
					"type": "address"
				},
				{
					"internalType": "contract TokenState",
					"name": "_tokenState",
					"type": "address"
				},
				{
					"internalType": "string",
					"name": "_tokenName",
					"type": "string"
				},
				{
					"internalType": "string",
					"name": "_tokenSymbol",
					"type": "string"
				},
				{
					"internalType": "address",
					"name": "_owner",
					"type": "address"
				},
				{
					"internalType": "bytes32",
					"name": "_currencyKey",
					"type": "bytes32"
				},
				{
					"internalType": "uint256",
					"name": "_totalSupply",
					"type": "uint256"
				},
				{
					"internalType": "address",
					"name": "_resolver",
					"type": "address"
				}
			],
			"payable": false,
			"stateMutability": "nonpayable",
			"type": "constructor"
		},
		{
			"anonymous": false,
			"inputs": [
				{
					"indexed": true,
					"internalType": "address",
					"name": "owner",
					"type": "address"
				},
				{
					"indexed": true,
					"internalType": "address",
					"name": "spender",
					"type": "address"
				},
				{
					"indexed": false,
					"internalType": "uint256",
					"name": "value",
					"type": "uint256"
				}
			],
			"name": "Approval",
			"type": "event"
		},
		{
			"anonymous": false,
			"inputs": [
				{
					"indexed": true,
					"internalType": "address",
					"name": "account",
					"type": "address"
				},
				{
					"indexed": false,
					"internalType": "uint256",
					"name": "value",
					"type": "uint256"
				}
			],
			"name": "Burned",
			"type": "event"
		},
		{
			"anonymous": false,
			"inputs": [
				{
					"indexed": true,
					"internalType": "address",
					"name": "account",
					"type": "address"
				},
				{
					"indexed": false,
					"internalType": "uint256",
					"name": "value",
					"type": "uint256"
				}
			],
			"name": "Issued",
			"type": "event"
		},
		{
			"anonymous": false,
			"inputs": [
				{
					"indexed": false,
					"internalType": "address",
					"name": "oldOwner",
					"type": "address"
				},
				{
					"indexed": false,
					"internalType": "address",
					"name": "newOwner",
					"type": "address"
				}
			],
			"name": "OwnerChanged",
			"type": "event"
		},
		{
			"anonymous": false,
			"inputs": [
				{
					"indexed": false,
					"internalType": "address",
					"name": "newOwner",
					"type": "address"
				}
			],
			"name": "OwnerNominated",
			"type": "event"
		},
		{
			"anonymous": false,
			"inputs": [
				{
					"indexed": false,
					"internalType": "address",
					"name": "proxyAddress",
					"type": "address"
				}
			],
			"name": "ProxyUpdated",
			"type": "event"
		},
		{
			"anonymous": false,
			"inputs": [
				{
					"indexed": false,
					"internalType": "address",
					"name": "newBeneficiary",
					"type": "address"
				}
			],
			"name": "SelfDestructBeneficiaryUpdated",
			"type": "event"
		},
		{
			"anonymous": false,
			"inputs": [
				{
					"indexed": false,
					"internalType": "uint256",
					"name": "selfDestructDelay",
					"type": "uint256"
				}
			],
			"name": "SelfDestructInitiated",
			"type": "event"
		},
		{
			"anonymous": false,
			"inputs": [],
			"name": "SelfDestructTerminated",
			"type": "event"
		},
		{
			"anonymous": false,
			"inputs": [
				{
					"indexed": false,
					"internalType": "address",
					"name": "beneficiary",
					"type": "address"
				}
			],
			"name": "SelfDestructed",
			"type": "event"
		},
		{
			"anonymous": false,
			"inputs": [
				{
					"indexed": false,
					"internalType": "address",
					"name": "newTokenState",
					"type": "address"
				}
			],
			"name": "TokenStateUpdated",
			"type": "event"
		},
		{
			"anonymous": false,
			"inputs": [
				{
					"indexed": true,
					"internalType": "address",
					"name": "from",
					"type": "address"
				},
				{
					"indexed": true,
					"internalType": "address",
					"name": "to",
					"type": "address"
				},
				{
					"indexed": false,
					"internalType": "uint256",
					"name": "value",
					"type": "uint256"
				}
			],
			"name": "Transfer",
			"type": "event"
		},
		{
			"constant": true,
			"inputs": [],
			"name": "DECIMALS",
			"outputs": [
				{
					"internalType": "uint8",
					"name": "",
					"type": "uint8"
				}
			],
			"payable": false,
			"stateMutability": "view",
			"type": "function"
		},
		{
			"constant": true,
			"inputs": [],
			"name": "FEE_ADDRESS",
			"outputs": [
				{
					"internalType": "address",
					"name": "",
					"type": "address"
				}
			],
			"payable": false,
			"stateMutability": "view",
			"type": "function"
		},
		{
			"constant": true,
			"inputs": [],
			"name": "MAX_ADDRESSES_FROM_RESOLVER",
			"outputs": [
				{
					"internalType": "uint256",
					"name": "",
					"type": "uint256"
				}
			],
			"payable": false,
			"stateMutability": "view",
			"type": "function"
		},
		{
			"constant": true,
			"inputs": [],
			"name": "SELFDESTRUCT_DELAY",
			"outputs": [
				{
					"internalType": "uint256",
					"name": "",
					"type": "uint256"
				}
			],
			"payable": false,
			"stateMutability": "view",
			"type": "function"
		},
		{
			"constant": false,
			"inputs": [],
			"name": "acceptOwnership",
			"outputs": [],
			"payable": false,
			"stateMutability": "nonpayable",
			"type": "function"
		},
		{
			"constant": true,
			"inputs": [
				{
					"internalType": "address",
					"name": "owner",
					"type": "address"
				},
				{
					"internalType": "address",
					"name": "spender",
					"type": "address"
				}
			],
			"name": "allowance",
			"outputs": [
				{
					"internalType": "uint256",
					"name": "",
					"type": "uint256"
				}
			],
			"payable": false,
			"stateMutability": "view",
			"type": "function"
		},
		{
			"constant": false,
			"inputs": [
				{
					"internalType": "address",
					"name": "spender",
					"type": "address"
				},
				{
					"internalType": "uint256",
					"name": "value",
					"type": "uint256"
				}
			],
			"name": "approve",
			"outputs": [
				{
					"internalType": "bool",
					"name": "",
					"type": "bool"
				}
			],
			"payable": false,
			"stateMutability": "nonpayable",
			"type": "function"
		},
		{
			"constant": true,
			"inputs": [
				{
					"internalType": "address",
					"name": "account",
					"type": "address"
				}
			],
			"name": "balanceOf",
			"outputs": [
				{
					"internalType": "uint256",
					"name": "",
					"type": "uint256"
				}
			],
			"payable": false,
			"stateMutability": "view",
			"type": "function"
		},
		{
			"constant": false,
			"inputs": [
				{
					"internalType": "address",
					"name": "account",
					"type": "address"
				},
				{
					"internalType": "uint256",
					"name": "amount",
					"type": "uint256"
				}
			],
			"name": "burn",
			"outputs": [],
			"payable": false,
			"stateMutability": "nonpayable",
			"type": "function"
		},
		{
			"constant": true,
			"inputs": [],
			"name": "currencyKey",
			"outputs": [
				{
					"internalType": "bytes32",
					"name": "",
					"type": "bytes32"
				}
			],
			"payable": false,
			"stateMutability": "view",
			"type": "function"
		},
		{
			"constant": true,
			"inputs": [],
			"name": "decimals",
			"outputs": [
				{
					"internalType": "uint8",
					"name": "",
					"type": "uint8"
				}
			],
			"payable": false,
			"stateMutability": "view",
			"type": "function"
		},
		{
			"constant": true,
			"inputs": [],
			"name": "getResolverAddressesRequired",
			"outputs": [
				{
					"internalType": "bytes32[24]",
					"name": "addressesRequired",
					"type": "bytes32[24]"
				}
			],
			"payable": false,
			"stateMutability": "view",
			"type": "function"
		},
		{
			"constant": false,
			"inputs": [],
			"name": "initiateSelfDestruct",
			"outputs": [],
			"payable": false,
			"stateMutability": "nonpayable",
			"type": "function"
		},
		{
			"constant": true,
			"inputs": [],
			"name": "initiationTime",
			"outputs": [
				{
					"internalType": "uint256",
					"name": "",
					"type": "uint256"
				}
			],
			"payable": false,
			"stateMutability": "view",
			"type": "function"
		},
		{
			"constant": true,
			"inputs": [],
			"name": "integrationProxy",
			"outputs": [
				{
					"internalType": "contract Proxy",
					"name": "",
					"type": "address"
				}
			],
			"payable": false,
			"stateMutability": "view",
			"type": "function"
		},
		{
			"constant": true,
			"inputs": [
				{
					"internalType": "contract AddressResolver",
					"name": "_resolver",
					"type": "address"
				}
			],
			"name": "isResolverCached",
			"outputs": [
				{
					"internalType": "bool",
					"name": "",
					"type": "bool"
				}
			],
			"payable": false,
			"stateMutability": "view",
			"type": "function"
		},
		{
			"constant": false,
			"inputs": [
				{
					"internalType": "address",
					"name": "account",
					"type": "address"
				},
				{
					"internalType": "uint256",
					"name": "amount",
					"type": "uint256"
				}
			],
			"name": "issue",
			"outputs": [],
			"payable": false,
			"stateMutability": "nonpayable",
			"type": "function"
		},
		{
			"constant": true,
			"inputs": [],
			"name": "messageSender",
			"outputs": [
				{
					"internalType": "address",
					"name": "",
					"type": "address"
				}
			],
			"payable": false,
			"stateMutability": "view",
			"type": "function"
		},
		{
			"constant": true,
			"inputs": [],
			"name": "name",
			"outputs": [
				{
					"internalType": "string",
					"name": "",
					"type": "string"
				}
			],
			"payable": false,
			"stateMutability": "view",
			"type": "function"
		},
		{
			"constant": false,
			"inputs": [
				{
					"internalType": "address",
					"name": "_owner",
					"type": "address"
				}
			],
			"name": "nominateNewOwner",
			"outputs": [],
			"payable": false,
			"stateMutability": "nonpayable",
			"type": "function"
		},
		{
			"constant": true,
			"inputs": [],
			"name": "nominatedOwner",
			"outputs": [
				{
					"internalType": "address",
					"name": "",
					"type": "address"
				}
			],
			"payable": false,
			"stateMutability": "view",
			"type": "function"
		},
		{
			"constant": true,
			"inputs": [],
			"name": "owner",
			"outputs": [
				{
					"internalType": "address",
					"name": "",
					"type": "address"
				}
			],
			"payable": false,
			"stateMutability": "view",
			"type": "function"
		},
		{
			"constant": true,
			"inputs": [],
			"name": "proxy",
			"outputs": [
				{
					"internalType": "contract Proxy",
					"name": "",
					"type": "address"
				}
			],
			"payable": false,
			"stateMutability": "view",
			"type": "function"
		},
		{
			"constant": true,
			"inputs": [],
			"name": "resolver",
			"outputs": [
				{
					"internalType": "contract AddressResolver",
					"name": "",
					"type": "address"
				}
			],
			"payable": false,
			"stateMutability": "view",
			"type": "function"
		},
		{
			"constant": true,
			"inputs": [
				{
					"internalType": "uint256",
					"name": "",
					"type": "uint256"
				}
			],
			"name": "resolverAddressesRequired",
			"outputs": [
				{
					"internalType": "bytes32",
					"name": "",
					"type": "bytes32"
				}
			],
			"payable": false,
			"stateMutability": "view",
			"type": "function"
		},
		{
			"constant": false,
			"inputs": [],
			"name": "selfDestruct",
			"outputs": [],
			"payable": false,
			"stateMutability": "nonpayable",
			"type": "function"
		},
		{
			"constant": true,
			"inputs": [],
			"name": "selfDestructBeneficiary",
			"outputs": [
				{
					"internalType": "address",
					"name": "",
					"type": "address"
				}
			],
			"payable": false,
			"stateMutability": "view",
			"type": "function"
		},
		{
			"constant": true,
			"inputs": [],
			"name": "selfDestructInitiated",
			"outputs": [
				{
					"internalType": "bool",
					"name": "",
					"type": "bool"
				}
			],
			"payable": false,
			"stateMutability": "view",
			"type": "function"
		},
		{
			"constant": false,
			"inputs": [
				{
					"internalType": "address payable",
					"name": "_integrationProxy",
					"type": "address"
				}
			],
			"name": "setIntegrationProxy",
			"outputs": [],
			"payable": false,
			"stateMutability": "nonpayable",
			"type": "function"
		},
		{
			"constant": false,
			"inputs": [
				{
					"internalType": "address",
					"name": "sender",
					"type": "address"
				}
			],
			"name": "setMessageSender",
			"outputs": [],
			"payable": false,
			"stateMutability": "nonpayable",
			"type": "function"
		},
		{
			"constant": false,
			"inputs": [
				{
					"internalType": "address payable",
					"name": "_proxy",
					"type": "address"
				}
			],
			"name": "setProxy",
			"outputs": [],
			"payable": false,
			"stateMutability": "nonpayable",
			"type": "function"
		},
		{
			"constant": false,
			"inputs": [
				{
					"internalType": "contract AddressResolver",
					"name": "_resolver",
					"type": "address"
				}
			],
			"name": "setResolverAndSyncCache",
			"outputs": [],
			"payable": false,
			"stateMutability": "nonpayable",
			"type": "function"
		},
		{
			"constant": false,
			"inputs": [
				{
					"internalType": "address payable",
					"name": "_beneficiary",
					"type": "address"
				}
			],
			"name": "setSelfDestructBeneficiary",
			"outputs": [],
			"payable": false,
			"stateMutability": "nonpayable",
			"type": "function"
		},
		{
			"constant": false,
			"inputs": [
				{
					"internalType": "contract TokenState",
					"name": "_tokenState",
					"type": "address"
				}
			],
			"name": "setTokenState",
			"outputs": [],
			"payable": false,
			"stateMutability": "nonpayable",
			"type": "function"
		},
		{
			"constant": false,
			"inputs": [
				{
					"internalType": "uint256",
					"name": "amount",
					"type": "uint256"
				}
			],
			"name": "setTotalSupply",
			"outputs": [],
			"payable": false,
			"stateMutability": "nonpayable",
			"type": "function"
		},
		{
			"constant": true,
			"inputs": [],
			"name": "symbol",
			"outputs": [
				{
					"internalType": "string",
					"name": "",
					"type": "string"
				}
			],
			"payable": false,
			"stateMutability": "view",
			"type": "function"
		},
		{
			"constant": false,
			"inputs": [],
			"name": "terminateSelfDestruct",
			"outputs": [],
			"payable": false,
			"stateMutability": "nonpayable",
			"type": "function"
		},
		{
			"constant": true,
			"inputs": [],
			"name": "tokenState",
			"outputs": [
				{
					"internalType": "contract TokenState",
					"name": "",
					"type": "address"
				}
			],
			"payable": false,
			"stateMutability": "view",
			"type": "function"
		},
		{
			"constant": true,
			"inputs": [],
			"name": "totalSupply",
			"outputs": [
				{
					"internalType": "uint256",
					"name": "",
					"type": "uint256"
				}
			],
			"payable": false,
			"stateMutability": "view",
			"type": "function"
		},
		{
			"constant": false,
			"inputs": [
				{
					"internalType": "address",
					"name": "to",
					"type": "address"
				},
				{
					"internalType": "uint256",
					"name": "value",
					"type": "uint256"
				}
			],
			"name": "transfer",
			"outputs": [
				{
					"internalType": "bool",
					"name": "",
					"type": "bool"
				}
			],
			"payable": false,
			"stateMutability": "nonpayable",
			"type": "function"
		},
		{
			"constant": false,
			"inputs": [
				{
					"internalType": "address",
					"name": "to",
					"type": "address"
				},
				{
					"internalType": "uint256",
					"name": "value",
					"type": "uint256"
				}
			],
			"name": "transferAndSettle",
			"outputs": [
				{
					"internalType": "bool",
					"name": "",
					"type": "bool"
				}
			],
			"payable": false,
			"stateMutability": "nonpayable",
			"type": "function"
		},
		{
			"constant": false,
			"inputs": [
				{
					"internalType": "address",
					"name": "from",
					"type": "address"
				},
				{
					"internalType": "address",
					"name": "to",
					"type": "address"
				},
				{
					"internalType": "uint256",
					"name": "value",
					"type": "uint256"
				}
			],
			"name": "transferFrom",
			"outputs": [
				{
					"internalType": "bool",
					"name": "",
					"type": "bool"
				}
			],
			"payable": false,
			"stateMutability": "nonpayable",
			"type": "function"
		},
		{
			"constant": false,
			"inputs": [
				{
					"internalType": "address",
					"name": "from",
					"type": "address"
				},
				{
					"internalType": "address",
					"name": "to",
					"type": "address"
				},
				{
					"internalType": "uint256",
					"name": "value",
					"type": "uint256"
				}
			],
			"name": "transferFromAndSettle",
			"outputs": [
				{
					"internalType": "bool",
					"name": "",
					"type": "bool"
				}
			],
			"payable": false,
			"stateMutability": "nonpayable",
			"type": "function"
		},
		{
			"constant": true,
			"inputs": [
				{
					"internalType": "address",
					"name": "account",
					"type": "address"
				}
			],
			"name": "transferableSynths",
			"outputs": [
				{
					"internalType": "uint256",
					"name": "",
					"type": "uint256"
				}
			],
			"payable": false,
			"stateMutability": "view",
			"type": "function"
		}
	],
	"evm": {
		"bytecode": {
			"linkReferences": {},
			"object": "6101006040526b53797374656d53746174757360a01b60809081526822bc31b430b733b2b960b91b60a0526524b9b9bab2b960d11b60c05266119959541bdbdb60ca1b60e0526200005590600f906004620007ea565b503480156200006357600080fd5b5060405162004a6838038062004a6883398181016040526101008110156200008a57600080fd5b81516020830151604080850180519151939592948301929184640100000000821115620000b657600080fd5b908301906020820185811115620000cc57600080fd5b8251640100000000811182820188101715620000e757600080fd5b82525081516020918201929091019080838360005b8381101562000116578181015183820152602001620000fc565b50505050905090810190601f168015620001445780820380516001836020036101000a031916815260200191505b50604052602001805160405193929190846401000000008211156200016857600080fd5b9083019060208201858111156200017e57600080fd5b82516401000000008111828201881017156200019957600080fd5b82525081516020918201929091019080838360005b83811015620001c8578181015183820152602001620001ae565b50505050905090810190601f168015620001f65780820380516001836020036101000a031916815260200191505b50604081815260208301518382015160608501516080909501516103008501938490529196509450918291600f9060189082845b816200023562000838565b815260200190600101908083116200022a575050505050898989898760128b868160006001600160a01b0316816001600160a01b03161415620002bf576040805162461bcd60e51b815260206004820152601960248201527f4f776e657220616464726573732063616e6e6f74206265203000000000000000604482015290519081900360640190fd5b806000600181620002cf62000838565b816001600160a01b0302191690836001600160a01b0316021790620002f362000871565b505060408051600081526001600160a01b038416602082015281517fb532073b38c83145e3e5135377a08bf9aab55bc0fd7c1179cd4fb995d2a5159c93509081900390910190a150600080806200034962000838565b906101000a90046001600160a01b03166001600160a01b03161415620003aa576040805162461bcd60e51b815260206004820152601160248201527013dddb995c881b5d5cdd081899481cd95d607a1b604482015290519081900360640190fd5b600080620003b762000838565b906101000a90046001600160a01b0316600360016101000a81620003da62000838565b816001600160a01b0302191690836001600160a01b0316021790620003fe62000871565b5050507fd5da63a0b864b315bc04128dedbc93888c8529ee6cf47ce664dc204339228c53600080906200043062000838565b604080516101009390930a9091046001600160a01b03168252516020918190039190910190a1600080806200046462000838565b906101000a90046001600160a01b03166001600160a01b03161415620004c5576040805162461bcd60e51b815260206004820152601160248201527013dddb995c881b5d5cdd081899481cd95d607a1b604482015290519081900360640190fd5b806004600181620004d562000838565b816001600160a01b0302191690836001600160a01b0316021790620004f962000871565b5050604080516001600160a01b038416815290517ffc80377ca9c49cc11ae6982f390a42db976d5530af7c43889264b13fbbd7c57e92509081900360200190a1508560076001816200054a62000838565b816001600160a01b0302191690836001600160a01b03160217906200056e62000871565b505085516200058691506008906020880190620008ae565b5083516200059c906009906020870190620008ae565b508280600a620005ab62000871565b50505081600b60006101000a81620005c262000838565b8160ff021916908360ff16021790620005da62000871565b5050505050505050505060006001600160a01b031660008090620005fd62000838565b906101000a90046001600160a01b03166001600160a01b031614156200065e576040805162461bcd60e51b815260206004820152601160248201527013dddb995c881b5d5cdd081899481cd95d607a1b604482015290519081900360640190fd5b60005b6018811015620006ee5760008282601881106200067a57fe5b602002015114620006df57600d8282601881106200069457fe5b60200201519080600181620006a862000838565b018082620006b562000871565b5050600092835260209092209192918301600019019050620006d662000871565b505050620006e5565b620006ee565b60010162000661565b5081600b610100816200070062000838565b816001600160a01b0302191690836001600160a01b03160217906200072462000871565b50505050506001600160a01b0388166200077a576040805162461bcd60e51b815260206004820152601260248201527105f70726f78792063616e6e6f7420626520360741b604482015290519081900360640190fd5b6001600160a01b038416620007cb576040805162461bcd60e51b815260206004820152601260248201527105f6f776e65722063616e6e6f7420626520360741b604482015290519081900360640190fd5b8280600e620007d962000871565b5050505050505050505050620009b0565b826018810192821562000826579160200282015b8281111562000826578251826200081462000871565b505091602001919060010190620007fe565b506200083492915062000959565b5090565b630412cc4160e31b62080000908152620800048390526320966208906020816024816000335af1806200086a57600080fd5b5051925050565b630146e59560e51b6208000090815262080004839052620800248490526328dcb2a09060008160448183335af180620008a957600080fd5b505050565b8280620008ba62000838565b600181600116156101000203166002900490600052602060002090601f016020900481019282601f106200090557805160ff19168380011785620008fd62000871565b50506200094b565b828001600101856200091662000871565b505082156200094b579182015b828111156200094b578251826200093962000871565b50509160200191906001019062000923565b506200083492915062000986565b6200098391905b808211156200083457600080826200097762000871565b50505060010162000960565b90565b6200098391905b80821115620008345760008082620009a462000871565b5050506001016200098d565b6140a880620009c06000396000f3fe608060405234801561001057600080fd5b50600436106102745760003560e01c80639cbdaeb611610151578063c6c9d828116100c3578063e73cced311610087578063e73cced3146106dc578063e90dd9e214610712578063eb1edd611461071a578063ec55688914610722578063f7ea7a3d1461072a578063ffff51d61461074757610274565b8063c6c9d82814610679578063d67bdd2514610696578063dbd06c851461069e578063dd62ed3e146106a6578063e3235c91146106d457610274565b8063ab49848c11610115578063ab49848c146105ce578063b014c3a31461060f578063b8225dec1461063b578063bc67f83214610643578063bd32aa4414610669578063c58aaae61461067157610274565b80639cbdaeb6146105405780639dc29fac146105485780639f76980714610574578063a461fc821461059a578063a9059cbb146105a257610274565b80633278c960116101ea57806379ba5097116101ae57806379ba5097146104ce578063867904b4146104d65780638da5cb5b1461050257806395d89b411461050a57806397107d6d146105125780639cb8a26a1461053857610274565b80633278c9601461044c5780633be99e6f1461045457806353a47bb71461047a578063631e14441461048257806370a08231146104a857610274565b806317c70de41161023c57806317c70de4146103a857806318160ddd146103c257806320714f88146103ca57806323b872dd146103f05780632e0f262514610426578063313ce5671461044457610274565b806304f3bcec1461027957806306fdde031461029d578063095ea7b31461031a578063131b0ae71461035a5780631627540c14610382575b600080fd5b61028161076d565b604080516001600160a01b039092168252519081900360200190f35b6102a561078c565b6040805160208082528351818301528351919283929083019185019080838360005b838110156102df5781810151838201526020016102c7565b50505050905090810190601f16801561030c5780820380516001836020036101000a031916815260200191505b509250505060405180910390f35b6103466004803603604081101561033057600080fd5b506001600160a01b038135169060200135610846565b604080519115158252519081900360200190f35b6103806004803603602081101561037057600080fd5b50356001600160a01b0316610a14565b005b6103806004803603602081101561039857600080fd5b50356001600160a01b0316610abc565b6103b0610ba0565b60408051918252519081900360200190f35b6103b0610bad565b610380600480360360208110156103e057600080fd5b50356001600160a01b0316610bb7565b6103466004803603606081101561040657600080fd5b506001600160a01b03813581169160208101359091169060400135610cf8565b61042e610e12565b6040805160ff9092168252519081900360200190f35b61042e610e17565b610380610e30565b6103806004803603602081101561046a57600080fd5b50356001600160a01b0316610f08565b610281611116565b6103466004803603602081101561049857600080fd5b50356001600160a01b0316611122565b6103b0600480360360208110156104be57600080fd5b50356001600160a01b03166112d1565b610380611388565b610380600480360360408110156104ec57600080fd5b506001600160a01b0381351690602001356114fd565b6102816115d2565b6102a56115dd565b6103806004803603602081101561052857600080fd5b50356001600160a01b0316611680565b610380611765565b6102816118fd565b6103806004803603604081101561055e57600080fd5b506001600160a01b038135169060200135611909565b6103806004803603602081101561058a57600080fd5b50356001600160a01b03166119df565b6103b0611ba4565b610346600480360360408110156105b857600080fd5b506001600160a01b038135169060200135611bab565b6105d6611d63565b604051808261030080838360005b838110156105fc5781810151838201526020016105e4565b5050505090500191505060405180910390f35b6103466004803603604081101561062557600080fd5b506001600160a01b038135169060200135611dc5565b6103466120a2565b6103806004803603602081101561065957600080fd5b50356001600160a01b03166120ae565b610380612184565b610281612271565b6103b06004803603602081101561068f57600080fd5b503561227d565b6102816122a6565b6103b06122b2565b6103b0600480360360408110156106bc57600080fd5b506001600160a01b03813581169160200135166122bc565b6103b0612369565b610346600480360360608110156106f257600080fd5b506001600160a01b0381358116916020810135909116906040013561236e565b610281612603565b61028161260f565b610281612627565b6103806004803603602081101561074057600080fd5b5035612633565b6103b06004803603602081101561075d57600080fd5b50356001600160a01b03166127c5565b6001600b610779613d6b565b906101000a90046001600160a01b031681565b600880610797613d6b565b600181600116156101000203166002900480601f016020809104026020016040519081016040528092919081815260200182806107d2613d6b565b6001816001161561010002031660029004801561083e5780601f1061080c5761010080836107fe613d6b565b04028352916020019161083e565b820191906000526020600020905b81610823613d6b565b8152906001019060200180831161081a57829003601f168201915b505050505081565b6000806004610853613d6b565b906101000a90046001600160a01b03166001600160a01b03165a610875613da3565b6001600160a01b0316141580156108c1575060006005610893613d6b565b906101000a90046001600160a01b03166001600160a01b03165a6108b5613da3565b6001600160a01b031614155b801561090257505a6108d1613da3565b6001600160a01b0316600060066108e6613d6b565b906101000a90046001600160a01b03166001600160a01b031614155b15610943575a610910613da3565b600660018161091d613d6b565b816001600160a01b0302191690836001600160a01b031602179061093f613dc7565b5050505b6000806006610950613d6b565b906101000a90046001600160a01b03169050600760009061096f613d6b565b60408051633691826360e21b81526001600160a01b03858116600483015288811660248301526044820188905291516101009490940a909204169163da46098c9160648082019260009290919082900301818387806109cc613dfe565b1580156109d857600080fd5b505a6109e2613e2f565b5050505050501580156109f9573d6000803e3d6000fd5b50505050610a08818585612956565b60019150505b92915050565b600080610a1f613d6b565b906101000a90046001600160a01b03166001600160a01b03165a610a41613da3565b6001600160a01b031614610a865760405162461bcd60e51b815260040180806020018281038252602f815260200180613fb8602f913960400191505060405180910390fd5b806005600181610a94613d6b565b816001600160a01b0302191690836001600160a01b0316021790610ab6613dc7565b50505050565b600080610ac7613d6b565b906101000a90046001600160a01b03166001600160a01b03165a610ae9613da3565b6001600160a01b031614610b2e5760405162461bcd60e51b815260040180806020018281038252602f815260200180613fb8602f913960400191505060405180910390fd5b8060018080610b3b613d6b565b816001600160a01b0302191690836001600160a01b0316021790610b5d613dc7565b5050604080516001600160a01b038416815290517f906a1c6bd7e3091ea86693dd029a831c19049ce77f1dce2ce0bab1cacbabce2292509081900360200190a150565b6002610baa613d6b565b81565b600a610baa613d6b565b600080610bc2613d6b565b906101000a90046001600160a01b03166001600160a01b03165a610be4613da3565b6001600160a01b031614610c295760405162461bcd60e51b815260040180806020018281038252602f815260200180613fb8602f913960400191505060405180910390fd5b6001600160a01b038116610c84576040805162461bcd60e51b815260206004820152601c60248201527f42656e6566696369617279206d757374206e6f74206265207a65726f00000000604482015290519081900360640190fd5b80600361010081610c93613d6b565b816001600160a01b0302191690836001600160a01b0316021790610cb5613dc7565b5050604080516001600160a01b038416815290517fd5da63a0b864b315bc04128dedbc93888c8529ee6cf47ce664dc204339228c5392509081900360200190a150565b6000806004610d05613d6b565b906101000a90046001600160a01b03166001600160a01b03165a610d27613da3565b6001600160a01b031614158015610d73575060006005610d45613d6b565b906101000a90046001600160a01b03166001600160a01b03165a610d67613da3565b6001600160a01b031614155b8015610db457505a610d83613da3565b6001600160a01b031660006006610d98613d6b565b906101000a90046001600160a01b03166001600160a01b031614155b15610df5575a610dc2613da3565b6006600181610dcf613d6b565b816001600160a01b0302191690836001600160a01b0316021790610df1613dc7565b5050505b610dff8483612abe565b610e0a848484612c69565b949350505050565b601281565b6000600b610e23613d6b565b906101000a900460ff1681565b600080610e3b613d6b565b906101000a90046001600160a01b03166001600160a01b03165a610e5d613da3565b6001600160a01b031614610ea25760405162461bcd60e51b815260040180806020018281038252602f815260200180613fb8602f913960400191505060405180910390fd5b6000806002610eaf613dc7565b5050506000600360006101000a81610ec5613d6b565b8160ff02191690831515021790610eda613dc7565b50506040517f6adcc7125002935e0aa31697538ebbd65cfddf20431eb6ecdcfc3e238bfd082c9150600090a1565b600080610f13613d6b565b906101000a90046001600160a01b03166001600160a01b03165a610f35613da3565b6001600160a01b031614610f7a5760405162461bcd60e51b815260040180806020018281038252602f815260200180613fb8602f913960400191505060405180910390fd5b80600b61010081610f89613d6b565b816001600160a01b0302191690836001600160a01b0316021790610fab613dc7565b5060009150505b600d80610fbd613d6b565b9050811015611112576000600d8281610fd4613d6b565b8110610fdc57fe5b90600052602060002001610fee613d6b565b90506001600b610ffc613d6b565b906101000a90046001600160a01b03166001600160a01b031663dacb2d01826040518263ffffffff1660e01b81526004018082815260200180602001828103825260178152602001807f5265736f6c766572206d697373696e6720746172676574000000000000000000815250602001925050506020604051808303818680611083613dfe565b15801561108f57600080fd5b505a611099613e86565b50505050501580156110af573d6000803e3d6000fd5b505050506040513d60208110156110c557600080fd5b50516000828152600c602052604090206001816110e0613d6b565b816001600160a01b0302191690836001600160a01b0316021790611102613dc7565b505060019092019150610fb29050565b5050565b60006001610779613d6b565b60006001600160a01b0382166001600b61113a613d6b565b906101000a90046001600160a01b03166001600160a01b031614611160575060006112cc565b60005b600d8061116e613d6b565b90508110156112c6576000600d8281611185613d6b565b811061118d57fe5b9060005260206000200161119f613d6b565b6000818152600c60205260408120919250906111b9613d6b565b6001600160a01b036101009290920a9004166001600b6111d7613d6b565b906101000a90046001600160a01b03166001600160a01b03166321f8a721836040518263ffffffff1660e01b8152600401808281526020019150506020604051808303818680611225613dfe565b15801561123157600080fd5b505a61123b613e86565b5050505050158015611251573d6000803e3d6000fd5b505050506040513d602081101561126757600080fd5b50516001600160a01b03161415806112ad57506000818152600c602052604081208190611292613d6b565b906101000a90046001600160a01b03166001600160a01b0316145b156112bd576000925050506112cc565b50600101611163565b50600190505b919050565b60008060076112de613d6b565b906101000a90046001600160a01b03166001600160a01b03166370a08231836040518263ffffffff1660e01b815260040180826001600160a01b03166001600160a01b03168152602001915050602060405180830381868061133e613dfe565b15801561134a57600080fd5b505a611354613e86565b505050505015801561136a573d6000803e3d6000fd5b505050506040513d602081101561138057600080fd5b505192915050565b60006001611394613d6b565b906101000a90046001600160a01b03166001600160a01b03165a6113b6613da3565b6001600160a01b0316146113fb5760405162461bcd60e51b8152600401808060200182810382526035815260200180613f216035913960400191505060405180910390fd5b7fb532073b38c83145e3e5135377a08bf9aab55bc0fd7c1179cd4fb995d2a5159c600080611427613d6b565b906101000a90046001600160a01b03166001600090611444613d6b565b604080516001600160a01b0394851681526101009390930a909104909216602082015281519081900390910190a16000600161147e613d6b565b906101000a90046001600160a01b03166000806101000a8161149e613d6b565b816001600160a01b0302191690836001600160a01b03160217906114c0613dc7565b5050506000600160006101000a816114d6613d6b565b816001600160a01b0302191690836001600160a01b03160217906114f8613dc7565b505050565b6000611507612f1f565b6001600160a01b03165a611519613da3565b6001600160a01b0316149050600061152f612f6f565b6001600160a01b03165a611541613da3565b6001600160a01b03161490506000611557612fbc565b6001600160a01b03165a611569613da3565b6001600160a01b0316149050828061157e5750815b806115865750805b6115c15760405162461bcd60e51b8152600401808060200182810382526033815260200180613f856033913960400191505060405180910390fd5b6115cb8585612fff565b5050505050565b600080610779613d6b565b6009806115e8613d6b565b600181600116156101000203166002900480601f01602080910402602001604051908101604052809291908181526020018280611623613d6b565b6001816001161561010002031660029004801561083e5780601f1061164f5761010080836107fe613d6b565b820191906000526020600020905b81611666613d6b565b8152906001019060200180831161165d5750859350505050565b60008061168b613d6b565b906101000a90046001600160a01b03166001600160a01b03165a6116ad613da3565b6001600160a01b0316146116f25760405162461bcd60e51b815260040180806020018281038252602f815260200180613fb8602f913960400191505060405180910390fd5b806004600181611700613d6b565b816001600160a01b0302191690836001600160a01b0316021790611722613dc7565b5050604080516001600160a01b038416815290517ffc80377ca9c49cc11ae6982f390a42db976d5530af7c43889264b13fbbd7c57e92509081900360200190a150565b600080611770613d6b565b906101000a90046001600160a01b03166001600160a01b03165a611792613da3565b6001600160a01b0316146117d75760405162461bcd60e51b815260040180806020018281038252602f815260200180613fb8602f913960400191505060405180910390fd5b600060036117e3613d6b565b906101000a900460ff1661183e576040805162461bcd60e51b815260206004820152601f60248201527f53656c66204465737472756374206e6f742079657420696e6974696174656400604482015290519081900360640190fd5b5a611847613edd565b6224ea006002611855613d6b565b01106118a8576040805162461bcd60e51b815260206004820152601b60248201527f53656c662064657374727563742064656c6179206e6f74206d65740000000000604482015290519081900360640190fd5b7f8a09e1677ced846cb537dc2b172043bd05a1a81ad7e0033a7ef8ba762df990b7600160036118d5613d6b565b604080516101009390930a9091046001600160a01b03168252516020918190039190910190a1565b60006005610779613d6b565b6000611913612f1f565b6001600160a01b03165a611925613da3565b6001600160a01b0316149050600061193b612f6f565b6001600160a01b03165a61194d613da3565b6001600160a01b03161490506000611963612fbc565b6001600160a01b03165a611975613da3565b6001600160a01b0316149050828061198a5750815b806119925750805b6119cd5760405162461bcd60e51b8152600401808060200182810382526033815260200180613f856033913960400191505060405180910390fd5b6119d7858561319c565b505050505050565b600060046119eb613d6b565b906101000a90046001600160a01b03166001600160a01b03165a611a0d613da3565b6001600160a01b031614158015611a59575060006005611a2b613d6b565b906101000a90046001600160a01b03166001600160a01b03165a611a4d613da3565b6001600160a01b031614155b8015611a9a57505a611a69613da3565b6001600160a01b031660006006611a7e613d6b565b906101000a90046001600160a01b03166001600160a01b031614155b15611adb575a611aa8613da3565b6006600181611ab5613d6b565b816001600160a01b0302191690836001600160a01b0316021790611ad7613dc7565b5050505b600080611ae6613d6b565b6001600160a01b036101009290920a90041660006006611b04613d6b565b906101000a90046001600160a01b03166001600160a01b031614611b65576040805162461bcd60e51b815260206004820152601360248201527227bbb732b91037b7363c90333ab731ba34b7b760691b604482015290519081900360640190fd5b806007600181611b73613d6b565b816001600160a01b0302191690836001600160a01b0316021790611b95613dc7565b505050611ba1816132f3565b50565b6224ea0081565b6000806004611bb8613d6b565b906101000a90046001600160a01b03166001600160a01b03165a611bda613da3565b6001600160a01b031614158015611c26575060006005611bf8613d6b565b906101000a90046001600160a01b03166001600160a01b03165a611c1a613da3565b6001600160a01b031614155b8015611c6757505a611c36613da3565b6001600160a01b031660006006611c4b613d6b565b906101000a90046001600160a01b03166001600160a01b031614155b15611ca8575a611c75613da3565b6006600181611c82613d6b565b816001600160a01b0302191690836001600160a01b0316021790611ca4613dc7565b5050505b611ccd60006006611cb7613d6b565b906101000a90046001600160a01b031683612abe565b6001600160a01b03831673feefeefeefeefeefeefeefeefeefeefeefeefeef1415611d0357611cfc8383613457565b9050610a0e565b6001600160a01b038316611d3657611cfc60006006611d20613d6b565b906101000a90046001600160a01b03168361319c565b611d5c60006006611d45613d6b565b906101000a90046001600160a01b0316848461361f565b9392505050565b611d6b613f01565b60005b600d80611d79613d6b565b9050811015611dc157600d8181611d8e613d6b565b8110611d9657fe5b90600052602060002001611da8613d6b565b828260188110611db457fe5b6020020152600101611d6e565b5090565b6000806004611dd2613d6b565b906101000a90046001600160a01b03166001600160a01b03165a611df4613da3565b6001600160a01b031614158015611e40575060006005611e12613d6b565b906101000a90046001600160a01b03166001600160a01b03165a611e34613da3565b6001600160a01b031614155b8015611e8157505a611e50613da3565b6001600160a01b031660006006611e65613d6b565b906101000a90046001600160a01b03166001600160a01b031614155b15611ec2575a611e8f613da3565b6006600181611e9c613d6b565b816001600160a01b0302191690836001600160a01b0316021790611ebe613dc7565b5050505b6000611ecc612f6f565b6001600160a01b0316631b16802c60006006611ee6613d6b565b906101000a90046001600160a01b0316600e611f00613d6b565b6040518363ffffffff1660e01b815260040180836001600160a01b03166001600160a01b031681526020018281526020019250505060606040518083038160008780611f4a613dfe565b158015611f5657600080fd5b505a611f60613e2f565b505050505050158015611f77573d6000803e3d6000fd5b505050506040513d6060811015611f8d57600080fd5b506040015190508281156120625760006007611fa7613d6b565b6001600160a01b036101009290920a9004166370a0823160006006611fca613d6b565b906101000a90046001600160a01b03166040518263ffffffff1660e01b815260040180826001600160a01b03166001600160a01b03168152602001915050602060405180830381868061201b613dfe565b15801561202757600080fd5b505a612031613e86565b5050505050158015612047573d6000803e3d6000fd5b505050506040513d602081101561205d57600080fd5b505190505b80841161206f5783612071565b805b935061209960006006612082613d6b565b906101000a90046001600160a01b0316868661361f565b95945050505050565b60006003610e23613d6b565b600060046120ba613d6b565b906101000a90046001600160a01b03166001600160a01b03165a6120dc613da3565b6001600160a01b031614806121255750600060056120f8613d6b565b906101000a90046001600160a01b03166001600160a01b03165a61211a613da3565b6001600160a01b0316145b612176576040805162461bcd60e51b815260206004820152601760248201527f4f6e6c79207468652070726f78792063616e2063616c6c000000000000000000604482015290519081900360640190fd5b806006600181610a94613d6b565b60008061218f613d6b565b906101000a90046001600160a01b03166001600160a01b03165a6121b1613da3565b6001600160a01b0316146121f65760405162461bcd60e51b815260040180806020018281038252602f815260200180613fb8602f913960400191505060405180910390fd5b5a6121ff613edd565b80600261220a613dc7565b5050506001600360006101000a81612220613d6b565b8160ff02191690831515021790612235613dc7565b5050604080516224ea00815290517fcbd94ca75b8dc45c9d80c77e851670e78843c0d75180cb81db3e2158228fa9a692509081900360200190a1565b60016003610779613d6b565b600d8181612289613d6b565b811061229157fe5b60009182526020909120019050610baa613d6b565b60006006610779613d6b565b600e610baa613d6b565b60008060076122c9613d6b565b60408051636eb1769f60e11b81526001600160a01b038781166004830152868116602483015291516101009490940a909204169163dd62ed3e916044808201926020929091908290030181868061231e613dfe565b15801561232a57600080fd5b505a612334613e86565b505050505015801561234a573d6000803e3d6000fd5b505050506040513d602081101561236057600080fd5b50519392505050565b601881565b600080600461237b613d6b565b906101000a90046001600160a01b03166001600160a01b03165a61239d613da3565b6001600160a01b0316141580156123e95750600060056123bb613d6b565b906101000a90046001600160a01b03166001600160a01b03165a6123dd613da3565b6001600160a01b031614155b801561242a57505a6123f9613da3565b6001600160a01b03166000600661240e613d6b565b906101000a90046001600160a01b03166001600160a01b031614155b1561246b575a612438613da3565b6006600181612445613d6b565b816001600160a01b0302191690836001600160a01b0316021790612467613dc7565b5050505b6000612475612f6f565b6001600160a01b0316631b16802c86600e61248e613d6b565b6040518363ffffffff1660e01b815260040180836001600160a01b03166001600160a01b0316815260200182815260200192505050606060405180830381600087806124d8613dfe565b1580156124e457600080fd5b505a6124ee613e2f565b505050505050158015612505573d6000803e3d6000fd5b505050506040513d606081101561251b57600080fd5b506040015190508281156125dc5760006007612535613d6b565b906101000a90046001600160a01b03166001600160a01b03166370a08231876040518263ffffffff1660e01b815260040180826001600160a01b03166001600160a01b031681526020019150506020604051808303818680612595613dfe565b1580156125a157600080fd5b505a6125ab613e86565b50505050501580156125c1573d6000803e3d6000fd5b505050506040513d60208110156125d757600080fd5b505190505b808410156125ea57836125ec565b805b93506125f9868686612c69565b9695505050505050565b60006007610779613d6b565b73feefeefeefeefeefeefeefeefeefeefeefeefeef81565b60006004610779613d6b565b6000600461263f613d6b565b906101000a90046001600160a01b03166001600160a01b03165a612661613da3565b6001600160a01b0316141580156126ad57506000600561267f613d6b565b906101000a90046001600160a01b03166001600160a01b03165a6126a1613da3565b6001600160a01b031614155b80156126ee57505a6126bd613da3565b6001600160a01b0316600060066126d2613d6b565b906101000a90046001600160a01b03166001600160a01b031614155b1561272f575a6126fc613da3565b6006600181612709613d6b565b816001600160a01b0302191690836001600160a01b031602179061272b613dc7565b5050505b60008061273a613d6b565b6001600160a01b036101009290920a90041660006006612758613d6b565b906101000a90046001600160a01b03166001600160a01b0316146127b9576040805162461bcd60e51b815260206004820152601360248201527227bbb732b91037b7363c90333ab731ba34b7b760691b604482015290519081900360640190fd5b8080600a610ab6613dc7565b6000806127d0612f6f565b6001600160a01b03166319d5c66584600e6127e9613d6b565b6040518363ffffffff1660e01b815260040180836001600160a01b03166001600160a01b03168152602001828152602001925050506060604051808303818680612831613dfe565b15801561283d57600080fd5b505a612847613e86565b505050505015801561285d573d6000803e3d6000fd5b505050506040513d606081101561287357600080fd5b505190506000806007612884613d6b565b906101000a90046001600160a01b03166001600160a01b03166370a08231856040518263ffffffff1660e01b815260040180826001600160a01b03166001600160a01b0316815260200191505060206040518083038186806128e4613dfe565b1580156128f057600080fd5b505a6128fa613e86565b5050505050158015612910573d6000803e3d6000fd5b505050506040513d602081101561292657600080fd5b505190508082111561293d576000925050506112cc565b61294d818363ffffffff61392c16565b925050506112cc565b60006004612962613d6b565b906101000a90046001600160a01b03166001600160a01b031663907dff97826040516020018082815260200191505060405160208183030381529060405260036040518080613fe760219139602101905060405180910390206129c488613989565b6129cd88613989565b60006040518763ffffffff1660e01b815260040180806020018781526020018681526020018581526020018481526020018360001b8152602001828103825288818151815260200191508051906020019080838360005b83811015612a3c578181015183820152602001612a24565b50505050905090810190601f168015612a695780820380516001836020036101000a031916815260200191505b5097505050505050505060006040518083038160008780612a88613dfe565b158015612a9457600080fd5b505a612a9e613e2f565b505050505050158015612ab5573d6000803e3d6000fd5b50505050505050565b612ac6612f6f565b6001600160a01b031663059c29ec83600e612adf613d6b565b6040518363ffffffff1660e01b815260040180836001600160a01b03166001600160a01b03168152602001828152602001925050506020604051808303818680612b27613dfe565b158015612b3357600080fd5b505a612b3d613e86565b5050505050158015612b53573d6000803e3d6000fd5b505050506040513d6020811015612b6957600080fd5b505115612ba75760405162461bcd60e51b81526004018080602001828103825260258152602001806140086025913960400191505060405180910390fd5b80612bb1836127c5565b1015612bee5760405162461bcd60e51b815260040180806020018281038252602f815260200180613f56602f913960400191505060405180910390fd5b612bf6613995565b6001600160a01b03166342a28e21600e612c0e613d6b565b6040518263ffffffff1660e01b8152600401808281526020019150506000604051808303818680612c3d613dfe565b158015612c4957600080fd5b505a612c53613e86565b50505050501580156119d7573d6000803e3d6000fd5b6000600019816007612c79613d6b565b6001600160a01b036101009290920a90041663dd62ed3e8660006006612c9d613d6b565b906101000a90046001600160a01b03166040518363ffffffff1660e01b815260040180836001600160a01b03166001600160a01b03168152602001826001600160a01b03166001600160a01b03168152602001925050506020604051808303818680612d07613dfe565b158015612d1357600080fd5b505a612d1d613e86565b5050505050158015612d33573d6000803e3d6000fd5b505050506040513d6020811015612d4957600080fd5b505114612f145760006007612d5c613d6b565b6001600160a01b036101009290920a90041663da46098c8560006006612d80613d6b565b906101000a90046001600160a01b0316612e7f866007600090612da1613d6b565b6001600160a01b036101009290920a90041663dd62ed3e8b60006006612dc5613d6b565b906101000a90046001600160a01b03166040518363ffffffff1660e01b815260040180836001600160a01b03166001600160a01b03168152602001826001600160a01b03166001600160a01b03168152602001925050506020604051808303818680612e2f613dfe565b158015612e3b57600080fd5b505a612e45613e86565b5050505050158015612e5b573d6000803e3d6000fd5b505050506040513d6020811015612e7157600080fd5b50519063ffffffff61392c16565b6040518463ffffffff1660e01b815260040180846001600160a01b03166001600160a01b03168152602001836001600160a01b03166001600160a01b03168152602001828152602001935050505060006040518083038160008780612ee2613dfe565b158015612eee57600080fd5b505a612ef8613e2f565b505050505050158015612f0f573d6000803e3d6000fd5b505050505b610e0a84848461361f565b6000612f6a66119959541bdbdb60ca1b6040518060400160405280601781526020017f4d697373696e6720466565506f6f6c20616464726573730000000000000000008152506139e1565b905090565b6000612f6a6822bc31b430b733b2b960b91b6040518060400160405280601981526020017f4d697373696e672045786368616e6765722061646472657373000000000000008152506139e1565b6000612f6a6524b9b9bab2b960d11b604051806040016040528060168152602001754d697373696e6720497373756572206164647265737360501b8152506139e1565b6000600761300b613d6b565b6001600160a01b036101009290920a90041663b46310f6836130e38460006007613033613d6b565b906101000a90046001600160a01b03166001600160a01b03166370a08231886040518263ffffffff1660e01b815260040180826001600160a01b03166001600160a01b031681526020019150506020604051808303818680613093613dfe565b15801561309f57600080fd5b505a6130a9613e86565b50505050501580156130bf573d6000803e3d6000fd5b505050506040513d60208110156130d557600080fd5b50519063ffffffff613aa116565b6040518363ffffffff1660e01b815260040180836001600160a01b03166001600160a01b03168152602001828152602001925050506000604051808303816000878061312d613dfe565b15801561313957600080fd5b505a613143613e2f565b50505050505015801561315a573d6000803e3d6000fd5b5050505061317881600a61316c613d6b565b9063ffffffff613aa116565b80600a613183613dc7565b50505061319260008383613afb565b6111128282613b69565b60008060076131a9613d6b565b6001600160a01b036101009290920a90041663b46310f68461323185600060076131d1613d6b565b906101000a90046001600160a01b03166001600160a01b03166370a08231896040518263ffffffff1660e01b815260040180826001600160a01b03166001600160a01b031681526020019150506020604051808303818680612e2f613dfe565b6040518363ffffffff1660e01b815260040180836001600160a01b03166001600160a01b03168152602001828152602001925050506000604051808303816000878061327b613dfe565b15801561328757600080fd5b505a613291613e2f565b5050505050501580156132a8573d6000803e3d6000fd5b505050506132c682600a6132ba613d6b565b9063ffffffff61392c16565b80600a6132d1613dc7565b5050506132e083600084613afb565b6132ea8383613ce0565b50600192915050565b600060046132ff613d6b565b604080516001600160a01b038581166020808401919091528351808403820181528385018086527f546f6b656e5374617465557064617465642861646472657373290000000000009052935192839003605a01832063907dff9760e01b8452600160248501819052604485018290526000606486018190526084860181905260a4860181905260c060048701908152875160c488015287516101009a909a0a909804949094169763907dff979791959294938493849392839260e4909201918a0190808383885b838110156133de5781810151838201526020016133c6565b50505050905090810190601f16801561340b5780820380516001836020036101000a031916815260200191505b509750505050505050506000604051808303816000878061342a613dfe565b15801561343657600080fd5b505a613440613e2f565b5050505050501580156115cb573d6000803e3d6000fd5b600080600e613464613d6b565b631cd554d160e21b14156134a057508161349a60006006613483613d6b565b906101000a90046001600160a01b0316858561361f565b5061359c565b6134a8612f6f565b6001600160a01b0316630a1e187d600060066134c2613d6b565b906101000a90046001600160a01b0316600e6134dc613d6b565b604080516001600160e01b031960e086901b1681526001600160a01b039093166004840152602483019190915260448201879052631cd554d160e21b606483015273feefeefeefeefeefeefeefeefeefeefeefeefeef60848301525160a4808301926020929190829003018160008780613554613dfe565b15801561356057600080fd5b505a61356a613e2f565b505050505050158015613581573d6000803e3d6000fd5b505050506040513d602081101561359757600080fd5b505190505b6135a4612f1f565b6001600160a01b03166322bf55ef826040518263ffffffff1660e01b815260040180828152602001915050600060405180830381600087806135e4613dfe565b1580156135f057600080fd5b505a6135fa613e2f565b505050505050158015613611573d6000803e3d6000fd5b506001979650505050505050565b60006001600160a01b0383161580159061366e57505a63996d79a5620800008160e01b81526020816004836000335af18061365957600080fd5b50516001600160a01b03868116911614159150505b80156136a7575060006004613681613d6b565b906101000a90046001600160a01b03166001600160a01b0316836001600160a01b031614155b6136f8576040805162461bcd60e51b815260206004820152601f60248201527f43616e6e6f74207472616e7366657220746f2074686973206164647265737300604482015290519081900360640190fd5b60006007613704613d6b565b6001600160a01b036101009290920a90041663b46310f68561378c856000600761372c613d6b565b906101000a90046001600160a01b03166001600160a01b03166370a082318a6040518263ffffffff1660e01b815260040180826001600160a01b03166001600160a01b031681526020019150506020604051808303818680612e2f613dfe565b6040518363ffffffff1660e01b815260040180836001600160a01b03166001600160a01b0316815260200182815260200192505050600060405180830381600087806137d6613dfe565b1580156137e257600080fd5b505a6137ec613e2f565b505050505050158015613803573d6000803e3d6000fd5b505050506007600090613814613d6b565b6001600160a01b036101009290920a90041663b46310f68461389c856000600761383c613d6b565b906101000a90046001600160a01b03166001600160a01b03166370a08231896040518263ffffffff1660e01b815260040180826001600160a01b03166001600160a01b031681526020019150506020604051808303818680613093613dfe565b6040518363ffffffff1660e01b815260040180836001600160a01b03166001600160a01b0316815260200182815260200192505050600060405180830381600087806138e6613dfe565b1580156138f257600080fd5b505a6138fc613e2f565b505050505050158015613913573d6000803e3d6000fd5b50505050613922848484613afb565b5060019392505050565b600082821115613983576040805162461bcd60e51b815260206004820152601e60248201527f536166654d6174683a207375627472616374696f6e206f766572666c6f770000604482015290519081900360640190fd5b50900390565b6001600160a01b031690565b6000612f6a6b53797374656d53746174757360a01b6040518060400160405280601c81526020017f4d697373696e672053797374656d5374617475732061646472657373000000008152505b6000828152600c60205260408120819081906139fb613d6b565b6001600160a01b036101009290920a90041690508281613a995760405162461bcd60e51b81526004018080602001828103825283818151815260200191508051906020019080838360005b83811015613a5e578181015183820152602001613a46565b50505050905090810190601f168015613a8b5780820380516001836020036101000a031916815260200191505b509250505060405180910390fd5b509392505050565b600082820183811015611d5c576040805162461bcd60e51b815260206004820152601b60248201527f536166654d6174683a206164646974696f6e206f766572666c6f770000000000604482015290519081900360640190fd5b60006004613b07613d6b565b906101000a90046001600160a01b03166001600160a01b031663907dff9782604051602001808281526020019150506040516020818303038152906040526003604051808061402d60219139602101905060405180910390206129c488613989565b60006004613b75613d6b565b906101000a90046001600160a01b03166001600160a01b031663907dff978260405160200180828152602001915050604051602081830303815290604052600260405180807f49737375656428616464726573732c75696e743235362900000000000000000081525060170190506040518091039020613bf487613989565b6000806040518763ffffffff1660e01b815260040180806020018781526020018681526020018581526020018460001b81526020018360001b8152602001828103825288818151815260200191508051906020019080838360005b83811015613c67578181015183820152602001613c4f565b50505050905090810190601f168015613c945780820380516001836020036101000a031916815260200191505b5097505050505050505060006040518083038160008780613cb3613dfe565b158015613cbf57600080fd5b505a613cc9613e2f565b5050505050501580156119d7573d6000803e3d6000fd5b60006004613cec613d6b565b906101000a90046001600160a01b03166001600160a01b031663907dff978260405160200180828152602001915050604051602081830303815290604052600260405180807f4275726e656428616464726573732c75696e743235362900000000000000000081525060170190506040518091039020613bf487613989565b630412cc4160e31b62080000908152620800048390526320966208906020816024816000335af180613d9c57600080fd5b5051925050565b6373509064620800008160e01b81526020816004836000335af180613d9c57600080fd5b630146e59560e51b6208000090815262080004839052620800248490526328dcb2a09060008160448183335af1806114f857600080fd5b63c3382d0f60e01b620800009081526208000483905263c3382d0f906020816024816000335af180613d9c57600080fd5b63131b5f2160e21b6208000090815262080004849052634c6d7c849060005b88811015613e69578781015182820160240152602001613e4e565b50898989602401836000335af180613e8057600080fd5b99505050565b63fbb0f79d60e01b620800009081526208000484905263fbb0f79d9060005b87811015613ec0578681015182820160240152602001613ea5565b50888888602401836000335af180613ed757600080fd5b98505050565b63bdbf8c36620800008160e01b81526020816004836000335af180613d9c57600080fd5b604051806103000160405280601890602082028038833950919291505056fe596f75206d757374206265206e6f6d696e61746564206265666f726520796f752063616e20616363657074206f776e657273686970496e73756666696369656e742062616c616e636520616674657220616e7920736574746c656d656e74206f77696e674f6e6c7920466565506f6f6c2c2045786368616e676572206f722049737375657220636f6e74726163747320616c6c6f7765644f6e6c792074686520636f6e7472616374206f776e6572206d617920706572666f726d207468697320616374696f6e417070726f76616c28616464726573732c616464726573732c75696e743235362943616e6e6f74207472616e7366657220647572696e672077616974696e6720706572696f645472616e7366657228616464726573732c616464726573732c75696e7432353629a265627a7a72315820b6fafc66934f846727bc609afaebdf48ef5731979fa76478c0e6633211de6be164736f6c637828302e352e31362d646576656c6f702e323032302e372e32392b636f6d6d69742e36326536346536370058",
			"opcodes": "PUSH2 0x100 PUSH1 0x40 MSTORE PUSH12 0x53797374656D537461747573 PUSH1 0xA0 SHL PUSH1 0x80 SWAP1 DUP2 MSTORE PUSH9 0x22BC31B430B733B2B9 PUSH1 0xB9 SHL PUSH1 0xA0 MSTORE PUSH6 0x24B9B9BAB2B9 PUSH1 0xD1 SHL PUSH1 0xC0 MSTORE PUSH7 0x119959541BDBDB PUSH1 0xCA SHL PUSH1 0xE0 MSTORE PUSH3 0x55 SWAP1 PUSH1 0xF SWAP1 PUSH1 0x4 PUSH3 0x7EA JUMP JUMPDEST POP CALLVALUE DUP1 ISZERO PUSH3 0x63 JUMPI PUSH1 0x0 DUP1 REVERT JUMPDEST POP PUSH1 0x40 MLOAD PUSH3 0x4A68 CODESIZE SUB DUP1 PUSH3 0x4A68 DUP4 CODECOPY DUP2 DUP2 ADD PUSH1 0x40 MSTORE PUSH2 0x100 DUP2 LT ISZERO PUSH3 0x8A JUMPI PUSH1 0x0 DUP1 REVERT JUMPDEST DUP2 MLOAD PUSH1 0x20 DUP4 ADD MLOAD PUSH1 0x40 DUP1 DUP6 ADD DUP1 MLOAD SWAP2 MLOAD SWAP4 SWAP6 SWAP3 SWAP5 DUP4 ADD SWAP3 SWAP2 DUP5 PUSH5 0x100000000 DUP3 GT ISZERO PUSH3 0xB6 JUMPI PUSH1 0x0 DUP1 REVERT JUMPDEST SWAP1 DUP4 ADD SWAP1 PUSH1 0x20 DUP3 ADD DUP6 DUP2 GT ISZERO PUSH3 0xCC JUMPI PUSH1 0x0 DUP1 REVERT JUMPDEST DUP3 MLOAD PUSH5 0x100000000 DUP2 GT DUP3 DUP3 ADD DUP9 LT OR ISZERO PUSH3 0xE7 JUMPI PUSH1 0x0 DUP1 REVERT JUMPDEST DUP3 MSTORE POP DUP2 MLOAD PUSH1 0x20 SWAP2 DUP3 ADD SWAP3 SWAP1 SWAP2 ADD SWAP1 DUP1 DUP4 DUP4 PUSH1 0x0 JUMPDEST DUP4 DUP2 LT ISZERO PUSH3 0x116 JUMPI DUP2 DUP2 ADD MLOAD DUP4 DUP3 ADD MSTORE PUSH1 0x20 ADD PUSH3 0xFC JUMP JUMPDEST POP POP POP POP SWAP1 POP SWAP1 DUP2 ADD SWAP1 PUSH1 0x1F AND DUP1 ISZERO PUSH3 0x144 JUMPI DUP1 DUP3 SUB DUP1 MLOAD PUSH1 0x1 DUP4 PUSH1 0x20 SUB PUSH2 0x100 EXP SUB NOT AND DUP2 MSTORE PUSH1 0x20 ADD SWAP2 POP JUMPDEST POP PUSH1 0x40 MSTORE PUSH1 0x20 ADD DUP1 MLOAD PUSH1 0x40 MLOAD SWAP4 SWAP3 SWAP2 SWAP1 DUP5 PUSH5 0x100000000 DUP3 GT ISZERO PUSH3 0x168 JUMPI PUSH1 0x0 DUP1 REVERT JUMPDEST SWAP1 DUP4 ADD SWAP1 PUSH1 0x20 DUP3 ADD DUP6 DUP2 GT ISZERO PUSH3 0x17E JUMPI PUSH1 0x0 DUP1 REVERT JUMPDEST DUP3 MLOAD PUSH5 0x100000000 DUP2 GT DUP3 DUP3 ADD DUP9 LT OR ISZERO PUSH3 0x199 JUMPI PUSH1 0x0 DUP1 REVERT JUMPDEST DUP3 MSTORE POP DUP2 MLOAD PUSH1 0x20 SWAP2 DUP3 ADD SWAP3 SWAP1 SWAP2 ADD SWAP1 DUP1 DUP4 DUP4 PUSH1 0x0 JUMPDEST DUP4 DUP2 LT ISZERO PUSH3 0x1C8 JUMPI DUP2 DUP2 ADD MLOAD DUP4 DUP3 ADD MSTORE PUSH1 0x20 ADD PUSH3 0x1AE JUMP JUMPDEST POP POP POP POP SWAP1 POP SWAP1 DUP2 ADD SWAP1 PUSH1 0x1F AND DUP1 ISZERO PUSH3 0x1F6 JUMPI DUP1 DUP3 SUB DUP1 MLOAD PUSH1 0x1 DUP4 PUSH1 0x20 SUB PUSH2 0x100 EXP SUB NOT AND DUP2 MSTORE PUSH1 0x20 ADD SWAP2 POP JUMPDEST POP PUSH1 0x40 DUP2 DUP2 MSTORE PUSH1 0x20 DUP4 ADD MLOAD DUP4 DUP3 ADD MLOAD PUSH1 0x60 DUP6 ADD MLOAD PUSH1 0x80 SWAP1 SWAP6 ADD MLOAD PUSH2 0x300 DUP6 ADD SWAP4 DUP5 SWAP1 MSTORE SWAP2 SWAP7 POP SWAP5 POP SWAP2 DUP3 SWAP2 PUSH1 0xF SWAP1 PUSH1 0x18 SWAP1 DUP3 DUP5 JUMPDEST DUP2 PUSH3 0x235 PUSH3 0x838 JUMP JUMPDEST DUP2 MSTORE PUSH1 0x20 ADD SWAP1 PUSH1 0x1 ADD SWAP1 DUP1 DUP4 GT PUSH3 0x22A JUMPI POP POP POP POP POP DUP10 DUP10 DUP10 DUP10 DUP8 PUSH1 0x12 DUP12 DUP7 DUP2 PUSH1 0x0 PUSH1 0x1 PUSH1 0x1 PUSH1 0xA0 SHL SUB AND DUP2 PUSH1 0x1 PUSH1 0x1 PUSH1 0xA0 SHL SUB AND EQ ISZERO PUSH3 0x2BF JUMPI PUSH1 0x40 DUP1 MLOAD PUSH3 0x461BCD PUSH1 0xE5 SHL DUP2 MSTORE PUSH1 0x20 PUSH1 0x4 DUP3 ADD MSTORE PUSH1 0x19 PUSH1 0x24 DUP3 ADD MSTORE PUSH32 0x4F776E657220616464726573732063616E6E6F74206265203000000000000000 PUSH1 0x44 DUP3 ADD MSTORE SWAP1 MLOAD SWAP1 DUP2 SWAP1 SUB PUSH1 0x64 ADD SWAP1 REVERT JUMPDEST DUP1 PUSH1 0x0 PUSH1 0x1 DUP2 PUSH3 0x2CF PUSH3 0x838 JUMP JUMPDEST DUP2 PUSH1 0x1 PUSH1 0x1 PUSH1 0xA0 SHL SUB MUL NOT AND SWAP1 DUP4 PUSH1 0x1 PUSH1 0x1 PUSH1 0xA0 SHL SUB AND MUL OR SWAP1 PUSH3 0x2F3 PUSH3 0x871 JUMP JUMPDEST POP POP PUSH1 0x40 DUP1 MLOAD PUSH1 0x0 DUP2 MSTORE PUSH1 0x1 PUSH1 0x1 PUSH1 0xA0 SHL SUB DUP5 AND PUSH1 0x20 DUP3 ADD MSTORE DUP2 MLOAD PUSH32 0xB532073B38C83145E3E5135377A08BF9AAB55BC0FD7C1179CD4FB995D2A5159C SWAP4 POP SWAP1 DUP2 SWAP1 SUB SWAP1 SWAP2 ADD SWAP1 LOG1 POP PUSH1 0x0 DUP1 DUP1 PUSH3 0x349 PUSH3 0x838 JUMP JUMPDEST SWAP1 PUSH2 0x100 EXP SWAP1 DIV PUSH1 0x1 PUSH1 0x1 PUSH1 0xA0 SHL SUB AND PUSH1 0x1 PUSH1 0x1 PUSH1 0xA0 SHL SUB AND EQ ISZERO PUSH3 0x3AA JUMPI PUSH1 0x40 DUP1 MLOAD PUSH3 0x461BCD PUSH1 0xE5 SHL DUP2 MSTORE PUSH1 0x20 PUSH1 0x4 DUP3 ADD MSTORE PUSH1 0x11 PUSH1 0x24 DUP3 ADD MSTORE PUSH17 0x13DDDB995C881B5D5CDD081899481CD95D PUSH1 0x7A SHL PUSH1 0x44 DUP3 ADD MSTORE SWAP1 MLOAD SWAP1 DUP2 SWAP1 SUB PUSH1 0x64 ADD SWAP1 REVERT JUMPDEST PUSH1 0x0 DUP1 PUSH3 0x3B7 PUSH3 0x838 JUMP JUMPDEST SWAP1 PUSH2 0x100 EXP SWAP1 DIV PUSH1 0x1 PUSH1 0x1 PUSH1 0xA0 SHL SUB AND PUSH1 0x3 PUSH1 0x1 PUSH2 0x100 EXP DUP2 PUSH3 0x3DA PUSH3 0x838 JUMP JUMPDEST DUP2 PUSH1 0x1 PUSH1 0x1 PUSH1 0xA0 SHL SUB MUL NOT AND SWAP1 DUP4 PUSH1 0x1 PUSH1 0x1 PUSH1 0xA0 SHL SUB AND MUL OR SWAP1 PUSH3 0x3FE PUSH3 0x871 JUMP JUMPDEST POP POP POP PUSH32 0xD5DA63A0B864B315BC04128DEDBC93888C8529EE6CF47CE664DC204339228C53 PUSH1 0x0 DUP1 SWAP1 PUSH3 0x430 PUSH3 0x838 JUMP JUMPDEST PUSH1 0x40 DUP1 MLOAD PUSH2 0x100 SWAP4 SWAP1 SWAP4 EXP SWAP1 SWAP2 DIV PUSH1 0x1 PUSH1 0x1 PUSH1 0xA0 SHL SUB AND DUP3 MSTORE MLOAD PUSH1 0x20 SWAP2 DUP2 SWAP1 SUB SWAP2 SWAP1 SWAP2 ADD SWAP1 LOG1 PUSH1 0x0 DUP1 DUP1 PUSH3 0x464 PUSH3 0x838 JUMP JUMPDEST SWAP1 PUSH2 0x100 EXP SWAP1 DIV PUSH1 0x1 PUSH1 0x1 PUSH1 0xA0 SHL SUB AND PUSH1 0x1 PUSH1 0x1 PUSH1 0xA0 SHL SUB AND EQ ISZERO PUSH3 0x4C5 JUMPI PUSH1 0x40 DUP1 MLOAD PUSH3 0x461BCD PUSH1 0xE5 SHL DUP2 MSTORE PUSH1 0x20 PUSH1 0x4 DUP3 ADD MSTORE PUSH1 0x11 PUSH1 0x24 DUP3 ADD MSTORE PUSH17 0x13DDDB995C881B5D5CDD081899481CD95D PUSH1 0x7A SHL PUSH1 0x44 DUP3 ADD MSTORE SWAP1 MLOAD SWAP1 DUP2 SWAP1 SUB PUSH1 0x64 ADD SWAP1 REVERT JUMPDEST DUP1 PUSH1 0x4 PUSH1 0x1 DUP2 PUSH3 0x4D5 PUSH3 0x838 JUMP JUMPDEST DUP2 PUSH1 0x1 PUSH1 0x1 PUSH1 0xA0 SHL SUB MUL NOT AND SWAP1 DUP4 PUSH1 0x1 PUSH1 0x1 PUSH1 0xA0 SHL SUB AND MUL OR SWAP1 PUSH3 0x4F9 PUSH3 0x871 JUMP JUMPDEST POP POP PUSH1 0x40 DUP1 MLOAD PUSH1 0x1 PUSH1 0x1 PUSH1 0xA0 SHL SUB DUP5 AND DUP2 MSTORE SWAP1 MLOAD PUSH32 0xFC80377CA9C49CC11AE6982F390A42DB976D5530AF7C43889264B13FBBD7C57E SWAP3 POP SWAP1 DUP2 SWAP1 SUB PUSH1 0x20 ADD SWAP1 LOG1 POP DUP6 PUSH1 0x7 PUSH1 0x1 DUP2 PUSH3 0x54A PUSH3 0x838 JUMP JUMPDEST DUP2 PUSH1 0x1 PUSH1 0x1 PUSH1 0xA0 SHL SUB MUL NOT AND SWAP1 DUP4 PUSH1 0x1 PUSH1 0x1 PUSH1 0xA0 SHL SUB AND MUL OR SWAP1 PUSH3 0x56E PUSH3 0x871 JUMP JUMPDEST POP POP DUP6 MLOAD PUSH3 0x586 SWAP2 POP PUSH1 0x8 SWAP1 PUSH1 0x20 DUP9 ADD SWAP1 PUSH3 0x8AE JUMP JUMPDEST POP DUP4 MLOAD PUSH3 0x59C SWAP1 PUSH1 0x9 SWAP1 PUSH1 0x20 DUP8 ADD SWAP1 PUSH3 0x8AE JUMP JUMPDEST POP DUP3 DUP1 PUSH1 0xA PUSH3 0x5AB PUSH3 0x871 JUMP JUMPDEST POP POP POP DUP2 PUSH1 0xB PUSH1 0x0 PUSH2 0x100 EXP DUP2 PUSH3 0x5C2 PUSH3 0x838 JUMP JUMPDEST DUP2 PUSH1 0xFF MUL NOT AND SWAP1 DUP4 PUSH1 0xFF AND MUL OR SWAP1 PUSH3 0x5DA PUSH3 0x871 JUMP JUMPDEST POP POP POP POP POP POP POP POP POP POP PUSH1 0x0 PUSH1 0x1 PUSH1 0x1 PUSH1 0xA0 SHL SUB AND PUSH1 0x0 DUP1 SWAP1 PUSH3 0x5FD PUSH3 0x838 JUMP JUMPDEST SWAP1 PUSH2 0x100 EXP SWAP1 DIV PUSH1 0x1 PUSH1 0x1 PUSH1 0xA0 SHL SUB AND PUSH1 0x1 PUSH1 0x1 PUSH1 0xA0 SHL SUB AND EQ ISZERO PUSH3 0x65E JUMPI PUSH1 0x40 DUP1 MLOAD PUSH3 0x461BCD PUSH1 0xE5 SHL DUP2 MSTORE PUSH1 0x20 PUSH1 0x4 DUP3 ADD MSTORE PUSH1 0x11 PUSH1 0x24 DUP3 ADD MSTORE PUSH17 0x13DDDB995C881B5D5CDD081899481CD95D PUSH1 0x7A SHL PUSH1 0x44 DUP3 ADD MSTORE SWAP1 MLOAD SWAP1 DUP2 SWAP1 SUB PUSH1 0x64 ADD SWAP1 REVERT JUMPDEST PUSH1 0x0 JUMPDEST PUSH1 0x18 DUP2 LT ISZERO PUSH3 0x6EE JUMPI PUSH1 0x0 DUP3 DUP3 PUSH1 0x18 DUP2 LT PUSH3 0x67A JUMPI INVALID JUMPDEST PUSH1 0x20 MUL ADD MLOAD EQ PUSH3 0x6DF JUMPI PUSH1 0xD DUP3 DUP3 PUSH1 0x18 DUP2 LT PUSH3 0x694 JUMPI INVALID JUMPDEST PUSH1 0x20 MUL ADD MLOAD SWAP1 DUP1 PUSH1 0x1 DUP2 PUSH3 0x6A8 PUSH3 0x838 JUMP JUMPDEST ADD DUP1 DUP3 PUSH3 0x6B5 PUSH3 0x871 JUMP JUMPDEST POP POP PUSH1 0x0 SWAP3 DUP4 MSTORE PUSH1 0x20 SWAP1 SWAP3 KECCAK256 SWAP2 SWAP3 SWAP2 DUP4 ADD PUSH1 0x0 NOT ADD SWAP1 POP PUSH3 0x6D6 PUSH3 0x871 JUMP JUMPDEST POP POP POP PUSH3 0x6E5 JUMP JUMPDEST PUSH3 0x6EE JUMP JUMPDEST PUSH1 0x1 ADD PUSH3 0x661 JUMP JUMPDEST POP DUP2 PUSH1 0xB PUSH2 0x100 DUP2 PUSH3 0x700 PUSH3 0x838 JUMP JUMPDEST DUP2 PUSH1 0x1 PUSH1 0x1 PUSH1 0xA0 SHL SUB MUL NOT AND SWAP1 DUP4 PUSH1 0x1 PUSH1 0x1 PUSH1 0xA0 SHL SUB AND MUL OR SWAP1 PUSH3 0x724 PUSH3 0x871 JUMP JUMPDEST POP POP POP POP POP PUSH1 0x1 PUSH1 0x1 PUSH1 0xA0 SHL SUB DUP9 AND PUSH3 0x77A JUMPI PUSH1 0x40 DUP1 MLOAD PUSH3 0x461BCD PUSH1 0xE5 SHL DUP2 MSTORE PUSH1 0x20 PUSH1 0x4 DUP3 ADD MSTORE PUSH1 0x12 PUSH1 0x24 DUP3 ADD MSTORE PUSH18 0x5F70726F78792063616E6E6F74206265203 PUSH1 0x74 SHL PUSH1 0x44 DUP3 ADD MSTORE SWAP1 MLOAD SWAP1 DUP2 SWAP1 SUB PUSH1 0x64 ADD SWAP1 REVERT JUMPDEST PUSH1 0x1 PUSH1 0x1 PUSH1 0xA0 SHL SUB DUP5 AND PUSH3 0x7CB JUMPI PUSH1 0x40 DUP1 MLOAD PUSH3 0x461BCD PUSH1 0xE5 SHL DUP2 MSTORE PUSH1 0x20 PUSH1 0x4 DUP3 ADD MSTORE PUSH1 0x12 PUSH1 0x24 DUP3 ADD MSTORE PUSH18 0x5F6F776E65722063616E6E6F74206265203 PUSH1 0x74 SHL PUSH1 0x44 DUP3 ADD MSTORE SWAP1 MLOAD SWAP1 DUP2 SWAP1 SUB PUSH1 0x64 ADD SWAP1 REVERT JUMPDEST DUP3 DUP1 PUSH1 0xE PUSH3 0x7D9 PUSH3 0x871 JUMP JUMPDEST POP POP POP POP POP POP POP POP POP POP POP PUSH3 0x9B0 JUMP JUMPDEST DUP3 PUSH1 0x18 DUP2 ADD SWAP3 DUP3 ISZERO PUSH3 0x826 JUMPI SWAP2 PUSH1 0x20 MUL DUP3 ADD JUMPDEST DUP3 DUP2 GT ISZERO PUSH3 0x826 JUMPI DUP3 MLOAD DUP3 PUSH3 0x814 PUSH3 0x871 JUMP JUMPDEST POP POP SWAP2 PUSH1 0x20 ADD SWAP2 SWAP1 PUSH1 0x1 ADD SWAP1 PUSH3 0x7FE JUMP JUMPDEST POP PUSH3 0x834 SWAP3 SWAP2 POP PUSH3 0x959 JUMP JUMPDEST POP SWAP1 JUMP JUMPDEST PUSH4 0x412CC41 PUSH1 0xE3 SHL PUSH3 0x80000 SWAP1 DUP2 MSTORE PUSH3 0x80004 DUP4 SWAP1 MSTORE PUSH4 0x20966208 SWAP1 PUSH1 0x20 DUP2 PUSH1 0x24 DUP2 PUSH1 0x0 CALLER GAS CALL DUP1 PUSH3 0x86A JUMPI PUSH1 0x0 DUP1 REVERT JUMPDEST POP MLOAD SWAP3 POP POP JUMP JUMPDEST PUSH4 0x146E595 PUSH1 0xE5 SHL PUSH3 0x80000 SWAP1 DUP2 MSTORE PUSH3 0x80004 DUP4 SWAP1 MSTORE PUSH3 0x80024 DUP5 SWAP1 MSTORE PUSH4 0x28DCB2A0 SWAP1 PUSH1 0x0 DUP2 PUSH1 0x44 DUP2 DUP4 CALLER GAS CALL DUP1 PUSH3 0x8A9 JUMPI PUSH1 0x0 DUP1 REVERT JUMPDEST POP POP POP JUMP JUMPDEST DUP3 DUP1 PUSH3 0x8BA PUSH3 0x838 JUMP JUMPDEST PUSH1 0x1 DUP2 PUSH1 0x1 AND ISZERO PUSH2 0x100 MUL SUB AND PUSH1 0x2 SWAP1 DIV SWAP1 PUSH1 0x0 MSTORE PUSH1 0x20 PUSH1 0x0 KECCAK256 SWAP1 PUSH1 0x1F ADD PUSH1 0x20 SWAP1 DIV DUP2 ADD SWAP3 DUP3 PUSH1 0x1F LT PUSH3 0x905 JUMPI DUP1 MLOAD PUSH1 0xFF NOT AND DUP4 DUP1 ADD OR DUP6 PUSH3 0x8FD PUSH3 0x871 JUMP JUMPDEST POP POP PUSH3 0x94B JUMP JUMPDEST DUP3 DUP1 ADD PUSH1 0x1 ADD DUP6 PUSH3 0x916 PUSH3 0x871 JUMP JUMPDEST POP POP DUP3 ISZERO PUSH3 0x94B JUMPI SWAP2 DUP3 ADD JUMPDEST DUP3 DUP2 GT ISZERO PUSH3 0x94B JUMPI DUP3 MLOAD DUP3 PUSH3 0x939 PUSH3 0x871 JUMP JUMPDEST POP POP SWAP2 PUSH1 0x20 ADD SWAP2 SWAP1 PUSH1 0x1 ADD SWAP1 PUSH3 0x923 JUMP JUMPDEST POP PUSH3 0x834 SWAP3 SWAP2 POP PUSH3 0x986 JUMP JUMPDEST PUSH3 0x983 SWAP2 SWAP1 JUMPDEST DUP1 DUP3 GT ISZERO PUSH3 0x834 JUMPI PUSH1 0x0 DUP1 DUP3 PUSH3 0x977 PUSH3 0x871 JUMP JUMPDEST POP POP POP PUSH1 0x1 ADD PUSH3 0x960 JUMP JUMPDEST SWAP1 JUMP JUMPDEST PUSH3 0x983 SWAP2 SWAP1 JUMPDEST DUP1 DUP3 GT ISZERO PUSH3 0x834 JUMPI PUSH1 0x0 DUP1 DUP3 PUSH3 0x9A4 PUSH3 0x871 JUMP JUMPDEST POP POP POP PUSH1 0x1 ADD PUSH3 0x98D JUMP JUMPDEST PUSH2 0x40A8 DUP1 PUSH3 0x9C0 PUSH1 0x0 CODECOPY PUSH1 0x0 RETURN INVALID PUSH1 0x80 PUSH1 0x40 MSTORE CALLVALUE DUP1 ISZERO PUSH2 0x10 JUMPI PUSH1 0x0 DUP1 REVERT JUMPDEST POP PUSH1 0x4 CALLDATASIZE LT PUSH2 0x274 JUMPI PUSH1 0x0 CALLDATALOAD PUSH1 0xE0 SHR DUP1 PUSH4 0x9CBDAEB6 GT PUSH2 0x151 JUMPI DUP1 PUSH4 0xC6C9D828 GT PUSH2 0xC3 JUMPI DUP1 PUSH4 0xE73CCED3 GT PUSH2 0x87 JUMPI DUP1 PUSH4 0xE73CCED3 EQ PUSH2 0x6DC JUMPI DUP1 PUSH4 0xE90DD9E2 EQ PUSH2 0x712 JUMPI DUP1 PUSH4 0xEB1EDD61 EQ PUSH2 0x71A JUMPI DUP1 PUSH4 0xEC556889 EQ PUSH2 0x722 JUMPI DUP1 PUSH4 0xF7EA7A3D EQ PUSH2 0x72A JUMPI DUP1 PUSH4 0xFFFF51D6 EQ PUSH2 0x747 JUMPI PUSH2 0x274 JUMP JUMPDEST DUP1 PUSH4 0xC6C9D828 EQ PUSH2 0x679 JUMPI DUP1 PUSH4 0xD67BDD25 EQ PUSH2 0x696 JUMPI DUP1 PUSH4 0xDBD06C85 EQ PUSH2 0x69E JUMPI DUP1 PUSH4 0xDD62ED3E EQ PUSH2 0x6A6 JUMPI DUP1 PUSH4 0xE3235C91 EQ PUSH2 0x6D4 JUMPI PUSH2 0x274 JUMP JUMPDEST DUP1 PUSH4 0xAB49848C GT PUSH2 0x115 JUMPI DUP1 PUSH4 0xAB49848C EQ PUSH2 0x5CE JUMPI DUP1 PUSH4 0xB014C3A3 EQ PUSH2 0x60F JUMPI DUP1 PUSH4 0xB8225DEC EQ PUSH2 0x63B JUMPI DUP1 PUSH4 0xBC67F832 EQ PUSH2 0x643 JUMPI DUP1 PUSH4 0xBD32AA44 EQ PUSH2 0x669 JUMPI DUP1 PUSH4 0xC58AAAE6 EQ PUSH2 0x671 JUMPI PUSH2 0x274 JUMP JUMPDEST DUP1 PUSH4 0x9CBDAEB6 EQ PUSH2 0x540 JUMPI DUP1 PUSH4 0x9DC29FAC EQ PUSH2 0x548 JUMPI DUP1 PUSH4 0x9F769807 EQ PUSH2 0x574 JUMPI DUP1 PUSH4 0xA461FC82 EQ PUSH2 0x59A JUMPI DUP1 PUSH4 0xA9059CBB EQ PUSH2 0x5A2 JUMPI PUSH2 0x274 JUMP JUMPDEST DUP1 PUSH4 0x3278C960 GT PUSH2 0x1EA JUMPI DUP1 PUSH4 0x79BA5097 GT PUSH2 0x1AE JUMPI DUP1 PUSH4 0x79BA5097 EQ PUSH2 0x4CE JUMPI DUP1 PUSH4 0x867904B4 EQ PUSH2 0x4D6 JUMPI DUP1 PUSH4 0x8DA5CB5B EQ PUSH2 0x502 JUMPI DUP1 PUSH4 0x95D89B41 EQ PUSH2 0x50A JUMPI DUP1 PUSH4 0x97107D6D EQ PUSH2 0x512 JUMPI DUP1 PUSH4 0x9CB8A26A EQ PUSH2 0x538 JUMPI PUSH2 0x274 JUMP JUMPDEST DUP1 PUSH4 0x3278C960 EQ PUSH2 0x44C JUMPI DUP1 PUSH4 0x3BE99E6F EQ PUSH2 0x454 JUMPI DUP1 PUSH4 0x53A47BB7 EQ PUSH2 0x47A JUMPI DUP1 PUSH4 0x631E1444 EQ PUSH2 0x482 JUMPI DUP1 PUSH4 0x70A08231 EQ PUSH2 0x4A8 JUMPI PUSH2 0x274 JUMP JUMPDEST DUP1 PUSH4 0x17C70DE4 GT PUSH2 0x23C JUMPI DUP1 PUSH4 0x17C70DE4 EQ PUSH2 0x3A8 JUMPI DUP1 PUSH4 0x18160DDD EQ PUSH2 0x3C2 JUMPI DUP1 PUSH4 0x20714F88 EQ PUSH2 0x3CA JUMPI DUP1 PUSH4 0x23B872DD EQ PUSH2 0x3F0 JUMPI DUP1 PUSH4 0x2E0F2625 EQ PUSH2 0x426 JUMPI DUP1 PUSH4 0x313CE567 EQ PUSH2 0x444 JUMPI PUSH2 0x274 JUMP JUMPDEST DUP1 PUSH4 0x4F3BCEC EQ PUSH2 0x279 JUMPI DUP1 PUSH4 0x6FDDE03 EQ PUSH2 0x29D JUMPI DUP1 PUSH4 0x95EA7B3 EQ PUSH2 0x31A JUMPI DUP1 PUSH4 0x131B0AE7 EQ PUSH2 0x35A JUMPI DUP1 PUSH4 0x1627540C EQ PUSH2 0x382 JUMPI JUMPDEST PUSH1 0x0 DUP1 REVERT JUMPDEST PUSH2 0x281 PUSH2 0x76D JUMP JUMPDEST PUSH1 0x40 DUP1 MLOAD PUSH1 0x1 PUSH1 0x1 PUSH1 0xA0 SHL SUB SWAP1 SWAP3 AND DUP3 MSTORE MLOAD SWAP1 DUP2 SWAP1 SUB PUSH1 0x20 ADD SWAP1 RETURN JUMPDEST PUSH2 0x2A5 PUSH2 0x78C JUMP JUMPDEST PUSH1 0x40 DUP1 MLOAD PUSH1 0x20 DUP1 DUP3 MSTORE DUP4 MLOAD DUP2 DUP4 ADD MSTORE DUP4 MLOAD SWAP2 SWAP3 DUP4 SWAP3 SWAP1 DUP4 ADD SWAP2 DUP6 ADD SWAP1 DUP1 DUP4 DUP4 PUSH1 0x0 JUMPDEST DUP4 DUP2 LT ISZERO PUSH2 0x2DF JUMPI DUP2 DUP2 ADD MLOAD DUP4 DUP3 ADD MSTORE PUSH1 0x20 ADD PUSH2 0x2C7 JUMP JUMPDEST POP POP POP POP SWAP1 POP SWAP1 DUP2 ADD SWAP1 PUSH1 0x1F AND DUP1 ISZERO PUSH2 0x30C JUMPI DUP1 DUP3 SUB DUP1 MLOAD PUSH1 0x1 DUP4 PUSH1 0x20 SUB PUSH2 0x100 EXP SUB NOT AND DUP2 MSTORE PUSH1 0x20 ADD SWAP2 POP JUMPDEST POP SWAP3 POP POP POP PUSH1 0x40 MLOAD DUP1 SWAP2 SUB SWAP1 RETURN JUMPDEST PUSH2 0x346 PUSH1 0x4 DUP1 CALLDATASIZE SUB PUSH1 0x40 DUP2 LT ISZERO PUSH2 0x330 JUMPI PUSH1 0x0 DUP1 REVERT JUMPDEST POP PUSH1 0x1 PUSH1 0x1 PUSH1 0xA0 SHL SUB DUP2 CALLDATALOAD AND SWAP1 PUSH1 0x20 ADD CALLDATALOAD PUSH2 0x846 JUMP JUMPDEST PUSH1 0x40 DUP1 MLOAD SWAP2 ISZERO ISZERO DUP3 MSTORE MLOAD SWAP1 DUP2 SWAP1 SUB PUSH1 0x20 ADD SWAP1 RETURN JUMPDEST PUSH2 0x380 PUSH1 0x4 DUP1 CALLDATASIZE SUB PUSH1 0x20 DUP2 LT ISZERO PUSH2 0x370 JUMPI PUSH1 0x0 DUP1 REVERT JUMPDEST POP CALLDATALOAD PUSH1 0x1 PUSH1 0x1 PUSH1 0xA0 SHL SUB AND PUSH2 0xA14 JUMP JUMPDEST STOP JUMPDEST PUSH2 0x380 PUSH1 0x4 DUP1 CALLDATASIZE SUB PUSH1 0x20 DUP2 LT ISZERO PUSH2 0x398 JUMPI PUSH1 0x0 DUP1 REVERT JUMPDEST POP CALLDATALOAD PUSH1 0x1 PUSH1 0x1 PUSH1 0xA0 SHL SUB AND PUSH2 0xABC JUMP JUMPDEST PUSH2 0x3B0 PUSH2 0xBA0 JUMP JUMPDEST PUSH1 0x40 DUP1 MLOAD SWAP2 DUP3 MSTORE MLOAD SWAP1 DUP2 SWAP1 SUB PUSH1 0x20 ADD SWAP1 RETURN JUMPDEST PUSH2 0x3B0 PUSH2 0xBAD JUMP JUMPDEST PUSH2 0x380 PUSH1 0x4 DUP1 CALLDATASIZE SUB PUSH1 0x20 DUP2 LT ISZERO PUSH2 0x3E0 JUMPI PUSH1 0x0 DUP1 REVERT JUMPDEST POP CALLDATALOAD PUSH1 0x1 PUSH1 0x1 PUSH1 0xA0 SHL SUB AND PUSH2 0xBB7 JUMP JUMPDEST PUSH2 0x346 PUSH1 0x4 DUP1 CALLDATASIZE SUB PUSH1 0x60 DUP2 LT ISZERO PUSH2 0x406 JUMPI PUSH1 0x0 DUP1 REVERT JUMPDEST POP PUSH1 0x1 PUSH1 0x1 PUSH1 0xA0 SHL SUB DUP2 CALLDATALOAD DUP2 AND SWAP2 PUSH1 0x20 DUP2 ADD CALLDATALOAD SWAP1 SWAP2 AND SWAP1 PUSH1 0x40 ADD CALLDATALOAD PUSH2 0xCF8 JUMP JUMPDEST PUSH2 0x42E PUSH2 0xE12 JUMP JUMPDEST PUSH1 0x40 DUP1 MLOAD PUSH1 0xFF SWAP1 SWAP3 AND DUP3 MSTORE MLOAD SWAP1 DUP2 SWAP1 SUB PUSH1 0x20 ADD SWAP1 RETURN JUMPDEST PUSH2 0x42E PUSH2 0xE17 JUMP JUMPDEST PUSH2 0x380 PUSH2 0xE30 JUMP JUMPDEST PUSH2 0x380 PUSH1 0x4 DUP1 CALLDATASIZE SUB PUSH1 0x20 DUP2 LT ISZERO PUSH2 0x46A JUMPI PUSH1 0x0 DUP1 REVERT JUMPDEST POP CALLDATALOAD PUSH1 0x1 PUSH1 0x1 PUSH1 0xA0 SHL SUB AND PUSH2 0xF08 JUMP JUMPDEST PUSH2 0x281 PUSH2 0x1116 JUMP JUMPDEST PUSH2 0x346 PUSH1 0x4 DUP1 CALLDATASIZE SUB PUSH1 0x20 DUP2 LT ISZERO PUSH2 0x498 JUMPI PUSH1 0x0 DUP1 REVERT JUMPDEST POP CALLDATALOAD PUSH1 0x1 PUSH1 0x1 PUSH1 0xA0 SHL SUB AND PUSH2 0x1122 JUMP JUMPDEST PUSH2 0x3B0 PUSH1 0x4 DUP1 CALLDATASIZE SUB PUSH1 0x20 DUP2 LT ISZERO PUSH2 0x4BE JUMPI PUSH1 0x0 DUP1 REVERT JUMPDEST POP CALLDATALOAD PUSH1 0x1 PUSH1 0x1 PUSH1 0xA0 SHL SUB AND PUSH2 0x12D1 JUMP JUMPDEST PUSH2 0x380 PUSH2 0x1388 JUMP JUMPDEST PUSH2 0x380 PUSH1 0x4 DUP1 CALLDATASIZE SUB PUSH1 0x40 DUP2 LT ISZERO PUSH2 0x4EC JUMPI PUSH1 0x0 DUP1 REVERT JUMPDEST POP PUSH1 0x1 PUSH1 0x1 PUSH1 0xA0 SHL SUB DUP2 CALLDATALOAD AND SWAP1 PUSH1 0x20 ADD CALLDATALOAD PUSH2 0x14FD JUMP JUMPDEST PUSH2 0x281 PUSH2 0x15D2 JUMP JUMPDEST PUSH2 0x2A5 PUSH2 0x15DD JUMP JUMPDEST PUSH2 0x380 PUSH1 0x4 DUP1 CALLDATASIZE SUB PUSH1 0x20 DUP2 LT ISZERO PUSH2 0x528 JUMPI PUSH1 0x0 DUP1 REVERT JUMPDEST POP CALLDATALOAD PUSH1 0x1 PUSH1 0x1 PUSH1 0xA0 SHL SUB AND PUSH2 0x1680 JUMP JUMPDEST PUSH2 0x380 PUSH2 0x1765 JUMP JUMPDEST PUSH2 0x281 PUSH2 0x18FD JUMP JUMPDEST PUSH2 0x380 PUSH1 0x4 DUP1 CALLDATASIZE SUB PUSH1 0x40 DUP2 LT ISZERO PUSH2 0x55E JUMPI PUSH1 0x0 DUP1 REVERT JUMPDEST POP PUSH1 0x1 PUSH1 0x1 PUSH1 0xA0 SHL SUB DUP2 CALLDATALOAD AND SWAP1 PUSH1 0x20 ADD CALLDATALOAD PUSH2 0x1909 JUMP JUMPDEST PUSH2 0x380 PUSH1 0x4 DUP1 CALLDATASIZE SUB PUSH1 0x20 DUP2 LT ISZERO PUSH2 0x58A JUMPI PUSH1 0x0 DUP1 REVERT JUMPDEST POP CALLDATALOAD PUSH1 0x1 PUSH1 0x1 PUSH1 0xA0 SHL SUB AND PUSH2 0x19DF JUMP JUMPDEST PUSH2 0x3B0 PUSH2 0x1BA4 JUMP JUMPDEST PUSH2 0x346 PUSH1 0x4 DUP1 CALLDATASIZE SUB PUSH1 0x40 DUP2 LT ISZERO PUSH2 0x5B8 JUMPI PUSH1 0x0 DUP1 REVERT JUMPDEST POP PUSH1 0x1 PUSH1 0x1 PUSH1 0xA0 SHL SUB DUP2 CALLDATALOAD AND SWAP1 PUSH1 0x20 ADD CALLDATALOAD PUSH2 0x1BAB JUMP JUMPDEST PUSH2 0x5D6 PUSH2 0x1D63 JUMP JUMPDEST PUSH1 0x40 MLOAD DUP1 DUP3 PUSH2 0x300 DUP1 DUP4 DUP4 PUSH1 0x0 JUMPDEST DUP4 DUP2 LT ISZERO PUSH2 0x5FC JUMPI DUP2 DUP2 ADD MLOAD DUP4 DUP3 ADD MSTORE PUSH1 0x20 ADD PUSH2 0x5E4 JUMP JUMPDEST POP POP POP POP SWAP1 POP ADD SWAP2 POP POP PUSH1 0x40 MLOAD DUP1 SWAP2 SUB SWAP1 RETURN JUMPDEST PUSH2 0x346 PUSH1 0x4 DUP1 CALLDATASIZE SUB PUSH1 0x40 DUP2 LT ISZERO PUSH2 0x625 JUMPI PUSH1 0x0 DUP1 REVERT JUMPDEST POP PUSH1 0x1 PUSH1 0x1 PUSH1 0xA0 SHL SUB DUP2 CALLDATALOAD AND SWAP1 PUSH1 0x20 ADD CALLDATALOAD PUSH2 0x1DC5 JUMP JUMPDEST PUSH2 0x346 PUSH2 0x20A2 JUMP JUMPDEST PUSH2 0x380 PUSH1 0x4 DUP1 CALLDATASIZE SUB PUSH1 0x20 DUP2 LT ISZERO PUSH2 0x659 JUMPI PUSH1 0x0 DUP1 REVERT JUMPDEST POP CALLDATALOAD PUSH1 0x1 PUSH1 0x1 PUSH1 0xA0 SHL SUB AND PUSH2 0x20AE JUMP JUMPDEST PUSH2 0x380 PUSH2 0x2184 JUMP JUMPDEST PUSH2 0x281 PUSH2 0x2271 JUMP JUMPDEST PUSH2 0x3B0 PUSH1 0x4 DUP1 CALLDATASIZE SUB PUSH1 0x20 DUP2 LT ISZERO PUSH2 0x68F JUMPI PUSH1 0x0 DUP1 REVERT JUMPDEST POP CALLDATALOAD PUSH2 0x227D JUMP JUMPDEST PUSH2 0x281 PUSH2 0x22A6 JUMP JUMPDEST PUSH2 0x3B0 PUSH2 0x22B2 JUMP JUMPDEST PUSH2 0x3B0 PUSH1 0x4 DUP1 CALLDATASIZE SUB PUSH1 0x40 DUP2 LT ISZERO PUSH2 0x6BC JUMPI PUSH1 0x0 DUP1 REVERT JUMPDEST POP PUSH1 0x1 PUSH1 0x1 PUSH1 0xA0 SHL SUB DUP2 CALLDATALOAD DUP2 AND SWAP2 PUSH1 0x20 ADD CALLDATALOAD AND PUSH2 0x22BC JUMP JUMPDEST PUSH2 0x3B0 PUSH2 0x2369 JUMP JUMPDEST PUSH2 0x346 PUSH1 0x4 DUP1 CALLDATASIZE SUB PUSH1 0x60 DUP2 LT ISZERO PUSH2 0x6F2 JUMPI PUSH1 0x0 DUP1 REVERT JUMPDEST POP PUSH1 0x1 PUSH1 0x1 PUSH1 0xA0 SHL SUB DUP2 CALLDATALOAD DUP2 AND SWAP2 PUSH1 0x20 DUP2 ADD CALLDATALOAD SWAP1 SWAP2 AND SWAP1 PUSH1 0x40 ADD CALLDATALOAD PUSH2 0x236E JUMP JUMPDEST PUSH2 0x281 PUSH2 0x2603 JUMP JUMPDEST PUSH2 0x281 PUSH2 0x260F JUMP JUMPDEST PUSH2 0x281 PUSH2 0x2627 JUMP JUMPDEST PUSH2 0x380 PUSH1 0x4 DUP1 CALLDATASIZE SUB PUSH1 0x20 DUP2 LT ISZERO PUSH2 0x740 JUMPI PUSH1 0x0 DUP1 REVERT JUMPDEST POP CALLDATALOAD PUSH2 0x2633 JUMP JUMPDEST PUSH2 0x3B0 PUSH1 0x4 DUP1 CALLDATASIZE SUB PUSH1 0x20 DUP2 LT ISZERO PUSH2 0x75D JUMPI PUSH1 0x0 DUP1 REVERT JUMPDEST POP CALLDATALOAD PUSH1 0x1 PUSH1 0x1 PUSH1 0xA0 SHL SUB AND PUSH2 0x27C5 JUMP JUMPDEST PUSH1 0x1 PUSH1 0xB PUSH2 0x779 PUSH2 0x3D6B JUMP JUMPDEST SWAP1 PUSH2 0x100 EXP SWAP1 DIV PUSH1 0x1 PUSH1 0x1 PUSH1 0xA0 SHL SUB AND DUP2 JUMP JUMPDEST PUSH1 0x8 DUP1 PUSH2 0x797 PUSH2 0x3D6B JUMP JUMPDEST PUSH1 0x1 DUP2 PUSH1 0x1 AND ISZERO PUSH2 0x100 MUL SUB AND PUSH1 0x2 SWAP1 DIV DUP1 PUSH1 0x1F ADD PUSH1 0x20 DUP1 SWAP2 DIV MUL PUSH1 0x20 ADD PUSH1 0x40 MLOAD SWAP1 DUP2 ADD PUSH1 0x40 MSTORE DUP1 SWAP3 SWAP2 SWAP1 DUP2 DUP2 MSTORE PUSH1 0x20 ADD DUP3 DUP1 PUSH2 0x7D2 PUSH2 0x3D6B JUMP JUMPDEST PUSH1 0x1 DUP2 PUSH1 0x1 AND ISZERO PUSH2 0x100 MUL SUB AND PUSH1 0x2 SWAP1 DIV DUP1 ISZERO PUSH2 0x83E JUMPI DUP1 PUSH1 0x1F LT PUSH2 0x80C JUMPI PUSH2 0x100 DUP1 DUP4 PUSH2 0x7FE PUSH2 0x3D6B JUMP JUMPDEST DIV MUL DUP4 MSTORE SWAP2 PUSH1 0x20 ADD SWAP2 PUSH2 0x83E JUMP JUMPDEST DUP3 ADD SWAP2 SWAP1 PUSH1 0x0 MSTORE PUSH1 0x20 PUSH1 0x0 KECCAK256 SWAP1 JUMPDEST DUP2 PUSH2 0x823 PUSH2 0x3D6B JUMP JUMPDEST DUP2 MSTORE SWAP1 PUSH1 0x1 ADD SWAP1 PUSH1 0x20 ADD DUP1 DUP4 GT PUSH2 0x81A JUMPI DUP3 SWAP1 SUB PUSH1 0x1F AND DUP3 ADD SWAP2 JUMPDEST POP POP POP POP POP DUP2 JUMP JUMPDEST PUSH1 0x0 DUP1 PUSH1 0x4 PUSH2 0x853 PUSH2 0x3D6B JUMP JUMPDEST SWAP1 PUSH2 0x100 EXP SWAP1 DIV PUSH1 0x1 PUSH1 0x1 PUSH1 0xA0 SHL SUB AND PUSH1 0x1 PUSH1 0x1 PUSH1 0xA0 SHL SUB AND GAS PUSH2 0x875 PUSH2 0x3DA3 JUMP JUMPDEST PUSH1 0x1 PUSH1 0x1 PUSH1 0xA0 SHL SUB AND EQ ISZERO DUP1 ISZERO PUSH2 0x8C1 JUMPI POP PUSH1 0x0 PUSH1 0x5 PUSH2 0x893 PUSH2 0x3D6B JUMP JUMPDEST SWAP1 PUSH2 0x100 EXP SWAP1 DIV PUSH1 0x1 PUSH1 0x1 PUSH1 0xA0 SHL SUB AND PUSH1 0x1 PUSH1 0x1 PUSH1 0xA0 SHL SUB AND GAS PUSH2 0x8B5 PUSH2 0x3DA3 JUMP JUMPDEST PUSH1 0x1 PUSH1 0x1 PUSH1 0xA0 SHL SUB AND EQ ISZERO JUMPDEST DUP1 ISZERO PUSH2 0x902 JUMPI POP GAS PUSH2 0x8D1 PUSH2 0x3DA3 JUMP JUMPDEST PUSH1 0x1 PUSH1 0x1 PUSH1 0xA0 SHL SUB AND PUSH1 0x0 PUSH1 0x6 PUSH2 0x8E6 PUSH2 0x3D6B JUMP JUMPDEST SWAP1 PUSH2 0x100 EXP SWAP1 DIV PUSH1 0x1 PUSH1 0x1 PUSH1 0xA0 SHL SUB AND PUSH1 0x1 PUSH1 0x1 PUSH1 0xA0 SHL SUB AND EQ ISZERO JUMPDEST ISZERO PUSH2 0x943 JUMPI GAS PUSH2 0x910 PUSH2 0x3DA3 JUMP JUMPDEST PUSH1 0x6 PUSH1 0x1 DUP2 PUSH2 0x91D PUSH2 0x3D6B JUMP JUMPDEST DUP2 PUSH1 0x1 PUSH1 0x1 PUSH1 0xA0 SHL SUB MUL NOT AND SWAP1 DUP4 PUSH1 0x1 PUSH1 0x1 PUSH1 0xA0 SHL SUB AND MUL OR SWAP1 PUSH2 0x93F PUSH2 0x3DC7 JUMP JUMPDEST POP POP POP JUMPDEST PUSH1 0x0 DUP1 PUSH1 0x6 PUSH2 0x950 PUSH2 0x3D6B JUMP JUMPDEST SWAP1 PUSH2 0x100 EXP SWAP1 DIV PUSH1 0x1 PUSH1 0x1 PUSH1 0xA0 SHL SUB AND SWAP1 POP PUSH1 0x7 PUSH1 0x0 SWAP1 PUSH2 0x96F PUSH2 0x3D6B JUMP JUMPDEST PUSH1 0x40 DUP1 MLOAD PUSH4 0x36918263 PUSH1 0xE2 SHL DUP2 MSTORE PUSH1 0x1 PUSH1 0x1 PUSH1 0xA0 SHL SUB DUP6 DUP2 AND PUSH1 0x4 DUP4 ADD MSTORE DUP9 DUP2 AND PUSH1 0x24 DUP4 ADD MSTORE PUSH1 0x44 DUP3 ADD DUP9 SWAP1 MSTORE SWAP2 MLOAD PUSH2 0x100 SWAP5 SWAP1 SWAP5 EXP SWAP1 SWAP3 DIV AND SWAP2 PUSH4 0xDA46098C SWAP2 PUSH1 0x64 DUP1 DUP3 ADD SWAP3 PUSH1 0x0 SWAP3 SWAP1 SWAP2 SWAP1 DUP3 SWAP1 SUB ADD DUP2 DUP4 DUP8 DUP1 PUSH2 0x9CC PUSH2 0x3DFE JUMP JUMPDEST ISZERO DUP1 ISZERO PUSH2 0x9D8 JUMPI PUSH1 0x0 DUP1 REVERT JUMPDEST POP GAS PUSH2 0x9E2 PUSH2 0x3E2F JUMP JUMPDEST POP POP POP POP POP POP ISZERO DUP1 ISZERO PUSH2 0x9F9 JUMPI RETURNDATASIZE PUSH1 0x0 DUP1 RETURNDATACOPY RETURNDATASIZE PUSH1 0x0 REVERT JUMPDEST POP POP POP POP PUSH2 0xA08 DUP2 DUP6 DUP6 PUSH2 0x2956 JUMP JUMPDEST PUSH1 0x1 SWAP2 POP POP JUMPDEST SWAP3 SWAP2 POP POP JUMP JUMPDEST PUSH1 0x0 DUP1 PUSH2 0xA1F PUSH2 0x3D6B JUMP JUMPDEST SWAP1 PUSH2 0x100 EXP SWAP1 DIV PUSH1 0x1 PUSH1 0x1 PUSH1 0xA0 SHL SUB AND PUSH1 0x1 PUSH1 0x1 PUSH1 0xA0 SHL SUB AND GAS PUSH2 0xA41 PUSH2 0x3DA3 JUMP JUMPDEST PUSH1 0x1 PUSH1 0x1 PUSH1 0xA0 SHL SUB AND EQ PUSH2 0xA86 JUMPI PUSH1 0x40 MLOAD PUSH3 0x461BCD PUSH1 0xE5 SHL DUP2 MSTORE PUSH1 0x4 ADD DUP1 DUP1 PUSH1 0x20 ADD DUP3 DUP2 SUB DUP3 MSTORE PUSH1 0x2F DUP2 MSTORE PUSH1 0x20 ADD DUP1 PUSH2 0x3FB8 PUSH1 0x2F SWAP2 CODECOPY PUSH1 0x40 ADD SWAP2 POP POP PUSH1 0x40 MLOAD DUP1 SWAP2 SUB SWAP1 REVERT JUMPDEST DUP1 PUSH1 0x5 PUSH1 0x1 DUP2 PUSH2 0xA94 PUSH2 0x3D6B JUMP JUMPDEST DUP2 PUSH1 0x1 PUSH1 0x1 PUSH1 0xA0 SHL SUB MUL NOT AND SWAP1 DUP4 PUSH1 0x1 PUSH1 0x1 PUSH1 0xA0 SHL SUB AND MUL OR SWAP1 PUSH2 0xAB6 PUSH2 0x3DC7 JUMP JUMPDEST POP POP POP POP JUMP JUMPDEST PUSH1 0x0 DUP1 PUSH2 0xAC7 PUSH2 0x3D6B JUMP JUMPDEST SWAP1 PUSH2 0x100 EXP SWAP1 DIV PUSH1 0x1 PUSH1 0x1 PUSH1 0xA0 SHL SUB AND PUSH1 0x1 PUSH1 0x1 PUSH1 0xA0 SHL SUB AND GAS PUSH2 0xAE9 PUSH2 0x3DA3 JUMP JUMPDEST PUSH1 0x1 PUSH1 0x1 PUSH1 0xA0 SHL SUB AND EQ PUSH2 0xB2E JUMPI PUSH1 0x40 MLOAD PUSH3 0x461BCD PUSH1 0xE5 SHL DUP2 MSTORE PUSH1 0x4 ADD DUP1 DUP1 PUSH1 0x20 ADD DUP3 DUP2 SUB DUP3 MSTORE PUSH1 0x2F DUP2 MSTORE PUSH1 0x20 ADD DUP1 PUSH2 0x3FB8 PUSH1 0x2F SWAP2 CODECOPY PUSH1 0x40 ADD SWAP2 POP POP PUSH1 0x40 MLOAD DUP1 SWAP2 SUB SWAP1 REVERT JUMPDEST DUP1 PUSH1 0x1 DUP1 DUP1 PUSH2 0xB3B PUSH2 0x3D6B JUMP JUMPDEST DUP2 PUSH1 0x1 PUSH1 0x1 PUSH1 0xA0 SHL SUB MUL NOT AND SWAP1 DUP4 PUSH1 0x1 PUSH1 0x1 PUSH1 0xA0 SHL SUB AND MUL OR SWAP1 PUSH2 0xB5D PUSH2 0x3DC7 JUMP JUMPDEST POP POP PUSH1 0x40 DUP1 MLOAD PUSH1 0x1 PUSH1 0x1 PUSH1 0xA0 SHL SUB DUP5 AND DUP2 MSTORE SWAP1 MLOAD PUSH32 0x906A1C6BD7E3091EA86693DD029A831C19049CE77F1DCE2CE0BAB1CACBABCE22 SWAP3 POP SWAP1 DUP2 SWAP1 SUB PUSH1 0x20 ADD SWAP1 LOG1 POP JUMP JUMPDEST PUSH1 0x2 PUSH2 0xBAA PUSH2 0x3D6B JUMP JUMPDEST DUP2 JUMP JUMPDEST PUSH1 0xA PUSH2 0xBAA PUSH2 0x3D6B JUMP JUMPDEST PUSH1 0x0 DUP1 PUSH2 0xBC2 PUSH2 0x3D6B JUMP JUMPDEST SWAP1 PUSH2 0x100 EXP SWAP1 DIV PUSH1 0x1 PUSH1 0x1 PUSH1 0xA0 SHL SUB AND PUSH1 0x1 PUSH1 0x1 PUSH1 0xA0 SHL SUB AND GAS PUSH2 0xBE4 PUSH2 0x3DA3 JUMP JUMPDEST PUSH1 0x1 PUSH1 0x1 PUSH1 0xA0 SHL SUB AND EQ PUSH2 0xC29 JUMPI PUSH1 0x40 MLOAD PUSH3 0x461BCD PUSH1 0xE5 SHL DUP2 MSTORE PUSH1 0x4 ADD DUP1 DUP1 PUSH1 0x20 ADD DUP3 DUP2 SUB DUP3 MSTORE PUSH1 0x2F DUP2 MSTORE PUSH1 0x20 ADD DUP1 PUSH2 0x3FB8 PUSH1 0x2F SWAP2 CODECOPY PUSH1 0x40 ADD SWAP2 POP POP PUSH1 0x40 MLOAD DUP1 SWAP2 SUB SWAP1 REVERT JUMPDEST PUSH1 0x1 PUSH1 0x1 PUSH1 0xA0 SHL SUB DUP2 AND PUSH2 0xC84 JUMPI PUSH1 0x40 DUP1 MLOAD PUSH3 0x461BCD PUSH1 0xE5 SHL DUP2 MSTORE PUSH1 0x20 PUSH1 0x4 DUP3 ADD MSTORE PUSH1 0x1C PUSH1 0x24 DUP3 ADD MSTORE PUSH32 0x42656E6566696369617279206D757374206E6F74206265207A65726F00000000 PUSH1 0x44 DUP3 ADD MSTORE SWAP1 MLOAD SWAP1 DUP2 SWAP1 SUB PUSH1 0x64 ADD SWAP1 REVERT JUMPDEST DUP1 PUSH1 0x3 PUSH2 0x100 DUP2 PUSH2 0xC93 PUSH2 0x3D6B JUMP JUMPDEST DUP2 PUSH1 0x1 PUSH1 0x1 PUSH1 0xA0 SHL SUB MUL NOT AND SWAP1 DUP4 PUSH1 0x1 PUSH1 0x1 PUSH1 0xA0 SHL SUB AND MUL OR SWAP1 PUSH2 0xCB5 PUSH2 0x3DC7 JUMP JUMPDEST POP POP PUSH1 0x40 DUP1 MLOAD PUSH1 0x1 PUSH1 0x1 PUSH1 0xA0 SHL SUB DUP5 AND DUP2 MSTORE SWAP1 MLOAD PUSH32 0xD5DA63A0B864B315BC04128DEDBC93888C8529EE6CF47CE664DC204339228C53 SWAP3 POP SWAP1 DUP2 SWAP1 SUB PUSH1 0x20 ADD SWAP1 LOG1 POP JUMP JUMPDEST PUSH1 0x0 DUP1 PUSH1 0x4 PUSH2 0xD05 PUSH2 0x3D6B JUMP JUMPDEST SWAP1 PUSH2 0x100 EXP SWAP1 DIV PUSH1 0x1 PUSH1 0x1 PUSH1 0xA0 SHL SUB AND PUSH1 0x1 PUSH1 0x1 PUSH1 0xA0 SHL SUB AND GAS PUSH2 0xD27 PUSH2 0x3DA3 JUMP JUMPDEST PUSH1 0x1 PUSH1 0x1 PUSH1 0xA0 SHL SUB AND EQ ISZERO DUP1 ISZERO PUSH2 0xD73 JUMPI POP PUSH1 0x0 PUSH1 0x5 PUSH2 0xD45 PUSH2 0x3D6B JUMP JUMPDEST SWAP1 PUSH2 0x100 EXP SWAP1 DIV PUSH1 0x1 PUSH1 0x1 PUSH1 0xA0 SHL SUB AND PUSH1 0x1 PUSH1 0x1 PUSH1 0xA0 SHL SUB AND GAS PUSH2 0xD67 PUSH2 0x3DA3 JUMP JUMPDEST PUSH1 0x1 PUSH1 0x1 PUSH1 0xA0 SHL SUB AND EQ ISZERO JUMPDEST DUP1 ISZERO PUSH2 0xDB4 JUMPI POP GAS PUSH2 0xD83 PUSH2 0x3DA3 JUMP JUMPDEST PUSH1 0x1 PUSH1 0x1 PUSH1 0xA0 SHL SUB AND PUSH1 0x0 PUSH1 0x6 PUSH2 0xD98 PUSH2 0x3D6B JUMP JUMPDEST SWAP1 PUSH2 0x100 EXP SWAP1 DIV PUSH1 0x1 PUSH1 0x1 PUSH1 0xA0 SHL SUB AND PUSH1 0x1 PUSH1 0x1 PUSH1 0xA0 SHL SUB AND EQ ISZERO JUMPDEST ISZERO PUSH2 0xDF5 JUMPI GAS PUSH2 0xDC2 PUSH2 0x3DA3 JUMP JUMPDEST PUSH1 0x6 PUSH1 0x1 DUP2 PUSH2 0xDCF PUSH2 0x3D6B JUMP JUMPDEST DUP2 PUSH1 0x1 PUSH1 0x1 PUSH1 0xA0 SHL SUB MUL NOT AND SWAP1 DUP4 PUSH1 0x1 PUSH1 0x1 PUSH1 0xA0 SHL SUB AND MUL OR SWAP1 PUSH2 0xDF1 PUSH2 0x3DC7 JUMP JUMPDEST POP POP POP JUMPDEST PUSH2 0xDFF DUP5 DUP4 PUSH2 0x2ABE JUMP JUMPDEST PUSH2 0xE0A DUP5 DUP5 DUP5 PUSH2 0x2C69 JUMP JUMPDEST SWAP5 SWAP4 POP POP POP POP JUMP JUMPDEST PUSH1 0x12 DUP2 JUMP JUMPDEST PUSH1 0x0 PUSH1 0xB PUSH2 0xE23 PUSH2 0x3D6B JUMP JUMPDEST SWAP1 PUSH2 0x100 EXP SWAP1 DIV PUSH1 0xFF AND DUP2 JUMP JUMPDEST PUSH1 0x0 DUP1 PUSH2 0xE3B PUSH2 0x3D6B JUMP JUMPDEST SWAP1 PUSH2 0x100 EXP SWAP1 DIV PUSH1 0x1 PUSH1 0x1 PUSH1 0xA0 SHL SUB AND PUSH1 0x1 PUSH1 0x1 PUSH1 0xA0 SHL SUB AND GAS PUSH2 0xE5D PUSH2 0x3DA3 JUMP JUMPDEST PUSH1 0x1 PUSH1 0x1 PUSH1 0xA0 SHL SUB AND EQ PUSH2 0xEA2 JUMPI PUSH1 0x40 MLOAD PUSH3 0x461BCD PUSH1 0xE5 SHL DUP2 MSTORE PUSH1 0x4 ADD DUP1 DUP1 PUSH1 0x20 ADD DUP3 DUP2 SUB DUP3 MSTORE PUSH1 0x2F DUP2 MSTORE PUSH1 0x20 ADD DUP1 PUSH2 0x3FB8 PUSH1 0x2F SWAP2 CODECOPY PUSH1 0x40 ADD SWAP2 POP POP PUSH1 0x40 MLOAD DUP1 SWAP2 SUB SWAP1 REVERT JUMPDEST PUSH1 0x0 DUP1 PUSH1 0x2 PUSH2 0xEAF PUSH2 0x3DC7 JUMP JUMPDEST POP POP POP PUSH1 0x0 PUSH1 0x3 PUSH1 0x0 PUSH2 0x100 EXP DUP2 PUSH2 0xEC5 PUSH2 0x3D6B JUMP JUMPDEST DUP2 PUSH1 0xFF MUL NOT AND SWAP1 DUP4 ISZERO ISZERO MUL OR SWAP1 PUSH2 0xEDA PUSH2 0x3DC7 JUMP JUMPDEST POP POP PUSH1 0x40 MLOAD PUSH32 0x6ADCC7125002935E0AA31697538EBBD65CFDDF20431EB6ECDCFC3E238BFD082C SWAP2 POP PUSH1 0x0 SWAP1 LOG1 JUMP JUMPDEST PUSH1 0x0 DUP1 PUSH2 0xF13 PUSH2 0x3D6B JUMP JUMPDEST SWAP1 PUSH2 0x100 EXP SWAP1 DIV PUSH1 0x1 PUSH1 0x1 PUSH1 0xA0 SHL SUB AND PUSH1 0x1 PUSH1 0x1 PUSH1 0xA0 SHL SUB AND GAS PUSH2 0xF35 PUSH2 0x3DA3 JUMP JUMPDEST PUSH1 0x1 PUSH1 0x1 PUSH1 0xA0 SHL SUB AND EQ PUSH2 0xF7A JUMPI PUSH1 0x40 MLOAD PUSH3 0x461BCD PUSH1 0xE5 SHL DUP2 MSTORE PUSH1 0x4 ADD DUP1 DUP1 PUSH1 0x20 ADD DUP3 DUP2 SUB DUP3 MSTORE PUSH1 0x2F DUP2 MSTORE PUSH1 0x20 ADD DUP1 PUSH2 0x3FB8 PUSH1 0x2F SWAP2 CODECOPY PUSH1 0x40 ADD SWAP2 POP POP PUSH1 0x40 MLOAD DUP1 SWAP2 SUB SWAP1 REVERT JUMPDEST DUP1 PUSH1 0xB PUSH2 0x100 DUP2 PUSH2 0xF89 PUSH2 0x3D6B JUMP JUMPDEST DUP2 PUSH1 0x1 PUSH1 0x1 PUSH1 0xA0 SHL SUB MUL NOT AND SWAP1 DUP4 PUSH1 0x1 PUSH1 0x1 PUSH1 0xA0 SHL SUB AND MUL OR SWAP1 PUSH2 0xFAB PUSH2 0x3DC7 JUMP JUMPDEST POP PUSH1 0x0 SWAP2 POP POP JUMPDEST PUSH1 0xD DUP1 PUSH2 0xFBD PUSH2 0x3D6B JUMP JUMPDEST SWAP1 POP DUP2 LT ISZERO PUSH2 0x1112 JUMPI PUSH1 0x0 PUSH1 0xD DUP3 DUP2 PUSH2 0xFD4 PUSH2 0x3D6B JUMP JUMPDEST DUP2 LT PUSH2 0xFDC JUMPI INVALID JUMPDEST SWAP1 PUSH1 0x0 MSTORE PUSH1 0x20 PUSH1 0x0 KECCAK256 ADD PUSH2 0xFEE PUSH2 0x3D6B JUMP JUMPDEST SWAP1 POP PUSH1 0x1 PUSH1 0xB PUSH2 0xFFC PUSH2 0x3D6B JUMP JUMPDEST SWAP1 PUSH2 0x100 EXP SWAP1 DIV PUSH1 0x1 PUSH1 0x1 PUSH1 0xA0 SHL SUB AND PUSH1 0x1 PUSH1 0x1 PUSH1 0xA0 SHL SUB AND PUSH4 0xDACB2D01 DUP3 PUSH1 0x40 MLOAD DUP3 PUSH4 0xFFFFFFFF AND PUSH1 0xE0 SHL DUP2 MSTORE PUSH1 0x4 ADD DUP1 DUP3 DUP2 MSTORE PUSH1 0x20 ADD DUP1 PUSH1 0x20 ADD DUP3 DUP2 SUB DUP3 MSTORE PUSH1 0x17 DUP2 MSTORE PUSH1 0x20 ADD DUP1 PUSH32 0x5265736F6C766572206D697373696E6720746172676574000000000000000000 DUP2 MSTORE POP PUSH1 0x20 ADD SWAP3 POP POP POP PUSH1 0x20 PUSH1 0x40 MLOAD DUP1 DUP4 SUB DUP2 DUP7 DUP1 PUSH2 0x1083 PUSH2 0x3DFE JUMP JUMPDEST ISZERO DUP1 ISZERO PUSH2 0x108F JUMPI PUSH1 0x0 DUP1 REVERT JUMPDEST POP GAS PUSH2 0x1099 PUSH2 0x3E86 JUMP JUMPDEST POP POP POP POP POP ISZERO DUP1 ISZERO PUSH2 0x10AF JUMPI RETURNDATASIZE PUSH1 0x0 DUP1 RETURNDATACOPY RETURNDATASIZE PUSH1 0x0 REVERT JUMPDEST POP POP POP POP PUSH1 0x40 MLOAD RETURNDATASIZE PUSH1 0x20 DUP2 LT ISZERO PUSH2 0x10C5 JUMPI PUSH1 0x0 DUP1 REVERT JUMPDEST POP MLOAD PUSH1 0x0 DUP3 DUP2 MSTORE PUSH1 0xC PUSH1 0x20 MSTORE PUSH1 0x40 SWAP1 KECCAK256 PUSH1 0x1 DUP2 PUSH2 0x10E0 PUSH2 0x3D6B JUMP JUMPDEST DUP2 PUSH1 0x1 PUSH1 0x1 PUSH1 0xA0 SHL SUB MUL NOT AND SWAP1 DUP4 PUSH1 0x1 PUSH1 0x1 PUSH1 0xA0 SHL SUB AND MUL OR SWAP1 PUSH2 0x1102 PUSH2 0x3DC7 JUMP JUMPDEST POP POP PUSH1 0x1 SWAP1 SWAP3 ADD SWAP2 POP PUSH2 0xFB2 SWAP1 POP JUMP JUMPDEST POP POP JUMP JUMPDEST PUSH1 0x0 PUSH1 0x1 PUSH2 0x779 PUSH2 0x3D6B JUMP JUMPDEST PUSH1 0x0 PUSH1 0x1 PUSH1 0x1 PUSH1 0xA0 SHL SUB DUP3 AND PUSH1 0x1 PUSH1 0xB PUSH2 0x113A PUSH2 0x3D6B JUMP JUMPDEST SWAP1 PUSH2 0x100 EXP SWAP1 DIV PUSH1 0x1 PUSH1 0x1 PUSH1 0xA0 SHL SUB AND PUSH1 0x1 PUSH1 0x1 PUSH1 0xA0 SHL SUB AND EQ PUSH2 0x1160 JUMPI POP PUSH1 0x0 PUSH2 0x12CC JUMP JUMPDEST PUSH1 0x0 JUMPDEST PUSH1 0xD DUP1 PUSH2 0x116E PUSH2 0x3D6B JUMP JUMPDEST SWAP1 POP DUP2 LT ISZERO PUSH2 0x12C6 JUMPI PUSH1 0x0 PUSH1 0xD DUP3 DUP2 PUSH2 0x1185 PUSH2 0x3D6B JUMP JUMPDEST DUP2 LT PUSH2 0x118D JUMPI INVALID JUMPDEST SWAP1 PUSH1 0x0 MSTORE PUSH1 0x20 PUSH1 0x0 KECCAK256 ADD PUSH2 0x119F PUSH2 0x3D6B JUMP JUMPDEST PUSH1 0x0 DUP2 DUP2 MSTORE PUSH1 0xC PUSH1 0x20 MSTORE PUSH1 0x40 DUP2 KECCAK256 SWAP2 SWAP3 POP SWAP1 PUSH2 0x11B9 PUSH2 0x3D6B JUMP JUMPDEST PUSH1 0x1 PUSH1 0x1 PUSH1 0xA0 SHL SUB PUSH2 0x100 SWAP3 SWAP1 SWAP3 EXP SWAP1 DIV AND PUSH1 0x1 PUSH1 0xB PUSH2 0x11D7 PUSH2 0x3D6B JUMP JUMPDEST SWAP1 PUSH2 0x100 EXP SWAP1 DIV PUSH1 0x1 PUSH1 0x1 PUSH1 0xA0 SHL SUB AND PUSH1 0x1 PUSH1 0x1 PUSH1 0xA0 SHL SUB AND PUSH4 0x21F8A721 DUP4 PUSH1 0x40 MLOAD DUP3 PUSH4 0xFFFFFFFF AND PUSH1 0xE0 SHL DUP2 MSTORE PUSH1 0x4 ADD DUP1 DUP3 DUP2 MSTORE PUSH1 0x20 ADD SWAP2 POP POP PUSH1 0x20 PUSH1 0x40 MLOAD DUP1 DUP4 SUB DUP2 DUP7 DUP1 PUSH2 0x1225 PUSH2 0x3DFE JUMP JUMPDEST ISZERO DUP1 ISZERO PUSH2 0x1231 JUMPI PUSH1 0x0 DUP1 REVERT JUMPDEST POP GAS PUSH2 0x123B PUSH2 0x3E86 JUMP JUMPDEST POP POP POP POP POP ISZERO DUP1 ISZERO PUSH2 0x1251 JUMPI RETURNDATASIZE PUSH1 0x0 DUP1 RETURNDATACOPY RETURNDATASIZE PUSH1 0x0 REVERT JUMPDEST POP POP POP POP PUSH1 0x40 MLOAD RETURNDATASIZE PUSH1 0x20 DUP2 LT ISZERO PUSH2 0x1267 JUMPI PUSH1 0x0 DUP1 REVERT JUMPDEST POP MLOAD PUSH1 0x1 PUSH1 0x1 PUSH1 0xA0 SHL SUB AND EQ ISZERO DUP1 PUSH2 0x12AD JUMPI POP PUSH1 0x0 DUP2 DUP2 MSTORE PUSH1 0xC PUSH1 0x20 MSTORE PUSH1 0x40 DUP2 KECCAK256 DUP2 SWAP1 PUSH2 0x1292 PUSH2 0x3D6B JUMP JUMPDEST SWAP1 PUSH2 0x100 EXP SWAP1 DIV PUSH1 0x1 PUSH1 0x1 PUSH1 0xA0 SHL SUB AND PUSH1 0x1 PUSH1 0x1 PUSH1 0xA0 SHL SUB AND EQ JUMPDEST ISZERO PUSH2 0x12BD JUMPI PUSH1 0x0 SWAP3 POP POP POP PUSH2 0x12CC JUMP JUMPDEST POP PUSH1 0x1 ADD PUSH2 0x1163 JUMP JUMPDEST POP PUSH1 0x1 SWAP1 POP JUMPDEST SWAP2 SWAP1 POP JUMP JUMPDEST PUSH1 0x0 DUP1 PUSH1 0x7 PUSH2 0x12DE PUSH2 0x3D6B JUMP JUMPDEST SWAP1 PUSH2 0x100 EXP SWAP1 DIV PUSH1 0x1 PUSH1 0x1 PUSH1 0xA0 SHL SUB AND PUSH1 0x1 PUSH1 0x1 PUSH1 0xA0 SHL SUB AND PUSH4 0x70A08231 DUP4 PUSH1 0x40 MLOAD DUP3 PUSH4 0xFFFFFFFF AND PUSH1 0xE0 SHL DUP2 MSTORE PUSH1 0x4 ADD DUP1 DUP3 PUSH1 0x1 PUSH1 0x1 PUSH1 0xA0 SHL SUB AND PUSH1 0x1 PUSH1 0x1 PUSH1 0xA0 SHL SUB AND DUP2 MSTORE PUSH1 0x20 ADD SWAP2 POP POP PUSH1 0x20 PUSH1 0x40 MLOAD DUP1 DUP4 SUB DUP2 DUP7 DUP1 PUSH2 0x133E PUSH2 0x3DFE JUMP JUMPDEST ISZERO DUP1 ISZERO PUSH2 0x134A JUMPI PUSH1 0x0 DUP1 REVERT JUMPDEST POP GAS PUSH2 0x1354 PUSH2 0x3E86 JUMP JUMPDEST POP POP POP POP POP ISZERO DUP1 ISZERO PUSH2 0x136A JUMPI RETURNDATASIZE PUSH1 0x0 DUP1 RETURNDATACOPY RETURNDATASIZE PUSH1 0x0 REVERT JUMPDEST POP POP POP POP PUSH1 0x40 MLOAD RETURNDATASIZE PUSH1 0x20 DUP2 LT ISZERO PUSH2 0x1380 JUMPI PUSH1 0x0 DUP1 REVERT JUMPDEST POP MLOAD SWAP3 SWAP2 POP POP JUMP JUMPDEST PUSH1 0x0 PUSH1 0x1 PUSH2 0x1394 PUSH2 0x3D6B JUMP JUMPDEST SWAP1 PUSH2 0x100 EXP SWAP1 DIV PUSH1 0x1 PUSH1 0x1 PUSH1 0xA0 SHL SUB AND PUSH1 0x1 PUSH1 0x1 PUSH1 0xA0 SHL SUB AND GAS PUSH2 0x13B6 PUSH2 0x3DA3 JUMP JUMPDEST PUSH1 0x1 PUSH1 0x1 PUSH1 0xA0 SHL SUB AND EQ PUSH2 0x13FB JUMPI PUSH1 0x40 MLOAD PUSH3 0x461BCD PUSH1 0xE5 SHL DUP2 MSTORE PUSH1 0x4 ADD DUP1 DUP1 PUSH1 0x20 ADD DUP3 DUP2 SUB DUP3 MSTORE PUSH1 0x35 DUP2 MSTORE PUSH1 0x20 ADD DUP1 PUSH2 0x3F21 PUSH1 0x35 SWAP2 CODECOPY PUSH1 0x40 ADD SWAP2 POP POP PUSH1 0x40 MLOAD DUP1 SWAP2 SUB SWAP1 REVERT JUMPDEST PUSH32 0xB532073B38C83145E3E5135377A08BF9AAB55BC0FD7C1179CD4FB995D2A5159C PUSH1 0x0 DUP1 PUSH2 0x1427 PUSH2 0x3D6B JUMP JUMPDEST SWAP1 PUSH2 0x100 EXP SWAP1 DIV PUSH1 0x1 PUSH1 0x1 PUSH1 0xA0 SHL SUB AND PUSH1 0x1 PUSH1 0x0 SWAP1 PUSH2 0x1444 PUSH2 0x3D6B JUMP JUMPDEST PUSH1 0x40 DUP1 MLOAD PUSH1 0x1 PUSH1 0x1 PUSH1 0xA0 SHL SUB SWAP5 DUP6 AND DUP2 MSTORE PUSH2 0x100 SWAP4 SWAP1 SWAP4 EXP SWAP1 SWAP2 DIV SWAP1 SWAP3 AND PUSH1 0x20 DUP3 ADD MSTORE DUP2 MLOAD SWAP1 DUP2 SWAP1 SUB SWAP1 SWAP2 ADD SWAP1 LOG1 PUSH1 0x0 PUSH1 0x1 PUSH2 0x147E PUSH2 0x3D6B JUMP JUMPDEST SWAP1 PUSH2 0x100 EXP SWAP1 DIV PUSH1 0x1 PUSH1 0x1 PUSH1 0xA0 SHL SUB AND PUSH1 0x0 DUP1 PUSH2 0x100 EXP DUP2 PUSH2 0x149E PUSH2 0x3D6B JUMP JUMPDEST DUP2 PUSH1 0x1 PUSH1 0x1 PUSH1 0xA0 SHL SUB MUL NOT AND SWAP1 DUP4 PUSH1 0x1 PUSH1 0x1 PUSH1 0xA0 SHL SUB AND MUL OR SWAP1 PUSH2 0x14C0 PUSH2 0x3DC7 JUMP JUMPDEST POP POP POP PUSH1 0x0 PUSH1 0x1 PUSH1 0x0 PUSH2 0x100 EXP DUP2 PUSH2 0x14D6 PUSH2 0x3D6B JUMP JUMPDEST DUP2 PUSH1 0x1 PUSH1 0x1 PUSH1 0xA0 SHL SUB MUL NOT AND SWAP1 DUP4 PUSH1 0x1 PUSH1 0x1 PUSH1 0xA0 SHL SUB AND MUL OR SWAP1 PUSH2 0x14F8 PUSH2 0x3DC7 JUMP JUMPDEST POP POP POP JUMP JUMPDEST PUSH1 0x0 PUSH2 0x1507 PUSH2 0x2F1F JUMP JUMPDEST PUSH1 0x1 PUSH1 0x1 PUSH1 0xA0 SHL SUB AND GAS PUSH2 0x1519 PUSH2 0x3DA3 JUMP JUMPDEST PUSH1 0x1 PUSH1 0x1 PUSH1 0xA0 SHL SUB AND EQ SWAP1 POP PUSH1 0x0 PUSH2 0x152F PUSH2 0x2F6F JUMP JUMPDEST PUSH1 0x1 PUSH1 0x1 PUSH1 0xA0 SHL SUB AND GAS PUSH2 0x1541 PUSH2 0x3DA3 JUMP JUMPDEST PUSH1 0x1 PUSH1 0x1 PUSH1 0xA0 SHL SUB AND EQ SWAP1 POP PUSH1 0x0 PUSH2 0x1557 PUSH2 0x2FBC JUMP JUMPDEST PUSH1 0x1 PUSH1 0x1 PUSH1 0xA0 SHL SUB AND GAS PUSH2 0x1569 PUSH2 0x3DA3 JUMP JUMPDEST PUSH1 0x1 PUSH1 0x1 PUSH1 0xA0 SHL SUB AND EQ SWAP1 POP DUP3 DUP1 PUSH2 0x157E JUMPI POP DUP2 JUMPDEST DUP1 PUSH2 0x1586 JUMPI POP DUP1 JUMPDEST PUSH2 0x15C1 JUMPI PUSH1 0x40 MLOAD PUSH3 0x461BCD PUSH1 0xE5 SHL DUP2 MSTORE PUSH1 0x4 ADD DUP1 DUP1 PUSH1 0x20 ADD DUP3 DUP2 SUB DUP3 MSTORE PUSH1 0x33 DUP2 MSTORE PUSH1 0x20 ADD DUP1 PUSH2 0x3F85 PUSH1 0x33 SWAP2 CODECOPY PUSH1 0x40 ADD SWAP2 POP POP PUSH1 0x40 MLOAD DUP1 SWAP2 SUB SWAP1 REVERT JUMPDEST PUSH2 0x15CB DUP6 DUP6 PUSH2 0x2FFF JUMP JUMPDEST POP POP POP POP POP JUMP JUMPDEST PUSH1 0x0 DUP1 PUSH2 0x779 PUSH2 0x3D6B JUMP JUMPDEST PUSH1 0x9 DUP1 PUSH2 0x15E8 PUSH2 0x3D6B JUMP JUMPDEST PUSH1 0x1 DUP2 PUSH1 0x1 AND ISZERO PUSH2 0x100 MUL SUB AND PUSH1 0x2 SWAP1 DIV DUP1 PUSH1 0x1F ADD PUSH1 0x20 DUP1 SWAP2 DIV MUL PUSH1 0x20 ADD PUSH1 0x40 MLOAD SWAP1 DUP2 ADD PUSH1 0x40 MSTORE DUP1 SWAP3 SWAP2 SWAP1 DUP2 DUP2 MSTORE PUSH1 0x20 ADD DUP3 DUP1 PUSH2 0x1623 PUSH2 0x3D6B JUMP JUMPDEST PUSH1 0x1 DUP2 PUSH1 0x1 AND ISZERO PUSH2 0x100 MUL SUB AND PUSH1 0x2 SWAP1 DIV DUP1 ISZERO PUSH2 0x83E JUMPI DUP1 PUSH1 0x1F LT PUSH2 0x164F JUMPI PUSH2 0x100 DUP1 DUP4 PUSH2 0x7FE PUSH2 0x3D6B JUMP JUMPDEST DUP3 ADD SWAP2 SWAP1 PUSH1 0x0 MSTORE PUSH1 0x20 PUSH1 0x0 KECCAK256 SWAP1 JUMPDEST DUP2 PUSH2 0x1666 PUSH2 0x3D6B JUMP JUMPDEST DUP2 MSTORE SWAP1 PUSH1 0x1 ADD SWAP1 PUSH1 0x20 ADD DUP1 DUP4 GT PUSH2 0x165D JUMPI POP DUP6 SWAP4 POP POP POP POP JUMP JUMPDEST PUSH1 0x0 DUP1 PUSH2 0x168B PUSH2 0x3D6B JUMP JUMPDEST SWAP1 PUSH2 0x100 EXP SWAP1 DIV PUSH1 0x1 PUSH1 0x1 PUSH1 0xA0 SHL SUB AND PUSH1 0x1 PUSH1 0x1 PUSH1 0xA0 SHL SUB AND GAS PUSH2 0x16AD PUSH2 0x3DA3 JUMP JUMPDEST PUSH1 0x1 PUSH1 0x1 PUSH1 0xA0 SHL SUB AND EQ PUSH2 0x16F2 JUMPI PUSH1 0x40 MLOAD PUSH3 0x461BCD PUSH1 0xE5 SHL DUP2 MSTORE PUSH1 0x4 ADD DUP1 DUP1 PUSH1 0x20 ADD DUP3 DUP2 SUB DUP3 MSTORE PUSH1 0x2F DUP2 MSTORE PUSH1 0x20 ADD DUP1 PUSH2 0x3FB8 PUSH1 0x2F SWAP2 CODECOPY PUSH1 0x40 ADD SWAP2 POP POP PUSH1 0x40 MLOAD DUP1 SWAP2 SUB SWAP1 REVERT JUMPDEST DUP1 PUSH1 0x4 PUSH1 0x1 DUP2 PUSH2 0x1700 PUSH2 0x3D6B JUMP JUMPDEST DUP2 PUSH1 0x1 PUSH1 0x1 PUSH1 0xA0 SHL SUB MUL NOT AND SWAP1 DUP4 PUSH1 0x1 PUSH1 0x1 PUSH1 0xA0 SHL SUB AND MUL OR SWAP1 PUSH2 0x1722 PUSH2 0x3DC7 JUMP JUMPDEST POP POP PUSH1 0x40 DUP1 MLOAD PUSH1 0x1 PUSH1 0x1 PUSH1 0xA0 SHL SUB DUP5 AND DUP2 MSTORE SWAP1 MLOAD PUSH32 0xFC80377CA9C49CC11AE6982F390A42DB976D5530AF7C43889264B13FBBD7C57E SWAP3 POP SWAP1 DUP2 SWAP1 SUB PUSH1 0x20 ADD SWAP1 LOG1 POP JUMP JUMPDEST PUSH1 0x0 DUP1 PUSH2 0x1770 PUSH2 0x3D6B JUMP JUMPDEST SWAP1 PUSH2 0x100 EXP SWAP1 DIV PUSH1 0x1 PUSH1 0x1 PUSH1 0xA0 SHL SUB AND PUSH1 0x1 PUSH1 0x1 PUSH1 0xA0 SHL SUB AND GAS PUSH2 0x1792 PUSH2 0x3DA3 JUMP JUMPDEST PUSH1 0x1 PUSH1 0x1 PUSH1 0xA0 SHL SUB AND EQ PUSH2 0x17D7 JUMPI PUSH1 0x40 MLOAD PUSH3 0x461BCD PUSH1 0xE5 SHL DUP2 MSTORE PUSH1 0x4 ADD DUP1 DUP1 PUSH1 0x20 ADD DUP3 DUP2 SUB DUP3 MSTORE PUSH1 0x2F DUP2 MSTORE PUSH1 0x20 ADD DUP1 PUSH2 0x3FB8 PUSH1 0x2F SWAP2 CODECOPY PUSH1 0x40 ADD SWAP2 POP POP PUSH1 0x40 MLOAD DUP1 SWAP2 SUB SWAP1 REVERT JUMPDEST PUSH1 0x0 PUSH1 0x3 PUSH2 0x17E3 PUSH2 0x3D6B JUMP JUMPDEST SWAP1 PUSH2 0x100 EXP SWAP1 DIV PUSH1 0xFF AND PUSH2 0x183E JUMPI PUSH1 0x40 DUP1 MLOAD PUSH3 0x461BCD PUSH1 0xE5 SHL DUP2 MSTORE PUSH1 0x20 PUSH1 0x4 DUP3 ADD MSTORE PUSH1 0x1F PUSH1 0x24 DUP3 ADD MSTORE PUSH32 0x53656C66204465737472756374206E6F742079657420696E6974696174656400 PUSH1 0x44 DUP3 ADD MSTORE SWAP1 MLOAD SWAP1 DUP2 SWAP1 SUB PUSH1 0x64 ADD SWAP1 REVERT JUMPDEST GAS PUSH2 0x1847 PUSH2 0x3EDD JUMP JUMPDEST PUSH3 0x24EA00 PUSH1 0x2 PUSH2 0x1855 PUSH2 0x3D6B JUMP JUMPDEST ADD LT PUSH2 0x18A8 JUMPI PUSH1 0x40 DUP1 MLOAD PUSH3 0x461BCD PUSH1 0xE5 SHL DUP2 MSTORE PUSH1 0x20 PUSH1 0x4 DUP3 ADD MSTORE PUSH1 0x1B PUSH1 0x24 DUP3 ADD MSTORE PUSH32 0x53656C662064657374727563742064656C6179206E6F74206D65740000000000 PUSH1 0x44 DUP3 ADD MSTORE SWAP1 MLOAD SWAP1 DUP2 SWAP1 SUB PUSH1 0x64 ADD SWAP1 REVERT JUMPDEST PUSH32 0x8A09E1677CED846CB537DC2B172043BD05A1A81AD7E0033A7EF8BA762DF990B7 PUSH1 0x1 PUSH1 0x3 PUSH2 0x18D5 PUSH2 0x3D6B JUMP JUMPDEST PUSH1 0x40 DUP1 MLOAD PUSH2 0x100 SWAP4 SWAP1 SWAP4 EXP SWAP1 SWAP2 DIV PUSH1 0x1 PUSH1 0x1 PUSH1 0xA0 SHL SUB AND DUP3 MSTORE MLOAD PUSH1 0x20 SWAP2 DUP2 SWAP1 SUB SWAP2 SWAP1 SWAP2 ADD SWAP1 LOG1 JUMP JUMPDEST PUSH1 0x0 PUSH1 0x5 PUSH2 0x779 PUSH2 0x3D6B JUMP JUMPDEST PUSH1 0x0 PUSH2 0x1913 PUSH2 0x2F1F JUMP JUMPDEST PUSH1 0x1 PUSH1 0x1 PUSH1 0xA0 SHL SUB AND GAS PUSH2 0x1925 PUSH2 0x3DA3 JUMP JUMPDEST PUSH1 0x1 PUSH1 0x1 PUSH1 0xA0 SHL SUB AND EQ SWAP1 POP PUSH1 0x0 PUSH2 0x193B PUSH2 0x2F6F JUMP JUMPDEST PUSH1 0x1 PUSH1 0x1 PUSH1 0xA0 SHL SUB AND GAS PUSH2 0x194D PUSH2 0x3DA3 JUMP JUMPDEST PUSH1 0x1 PUSH1 0x1 PUSH1 0xA0 SHL SUB AND EQ SWAP1 POP PUSH1 0x0 PUSH2 0x1963 PUSH2 0x2FBC JUMP JUMPDEST PUSH1 0x1 PUSH1 0x1 PUSH1 0xA0 SHL SUB AND GAS PUSH2 0x1975 PUSH2 0x3DA3 JUMP JUMPDEST PUSH1 0x1 PUSH1 0x1 PUSH1 0xA0 SHL SUB AND EQ SWAP1 POP DUP3 DUP1 PUSH2 0x198A JUMPI POP DUP2 JUMPDEST DUP1 PUSH2 0x1992 JUMPI POP DUP1 JUMPDEST PUSH2 0x19CD JUMPI PUSH1 0x40 MLOAD PUSH3 0x461BCD PUSH1 0xE5 SHL DUP2 MSTORE PUSH1 0x4 ADD DUP1 DUP1 PUSH1 0x20 ADD DUP3 DUP2 SUB DUP3 MSTORE PUSH1 0x33 DUP2 MSTORE PUSH1 0x20 ADD DUP1 PUSH2 0x3F85 PUSH1 0x33 SWAP2 CODECOPY PUSH1 0x40 ADD SWAP2 POP POP PUSH1 0x40 MLOAD DUP1 SWAP2 SUB SWAP1 REVERT JUMPDEST PUSH2 0x19D7 DUP6 DUP6 PUSH2 0x319C JUMP JUMPDEST POP POP POP POP POP POP JUMP JUMPDEST PUSH1 0x0 PUSH1 0x4 PUSH2 0x19EB PUSH2 0x3D6B JUMP JUMPDEST SWAP1 PUSH2 0x100 EXP SWAP1 DIV PUSH1 0x1 PUSH1 0x1 PUSH1 0xA0 SHL SUB AND PUSH1 0x1 PUSH1 0x1 PUSH1 0xA0 SHL SUB AND GAS PUSH2 0x1A0D PUSH2 0x3DA3 JUMP JUMPDEST PUSH1 0x1 PUSH1 0x1 PUSH1 0xA0 SHL SUB AND EQ ISZERO DUP1 ISZERO PUSH2 0x1A59 JUMPI POP PUSH1 0x0 PUSH1 0x5 PUSH2 0x1A2B PUSH2 0x3D6B JUMP JUMPDEST SWAP1 PUSH2 0x100 EXP SWAP1 DIV PUSH1 0x1 PUSH1 0x1 PUSH1 0xA0 SHL SUB AND PUSH1 0x1 PUSH1 0x1 PUSH1 0xA0 SHL SUB AND GAS PUSH2 0x1A4D PUSH2 0x3DA3 JUMP JUMPDEST PUSH1 0x1 PUSH1 0x1 PUSH1 0xA0 SHL SUB AND EQ ISZERO JUMPDEST DUP1 ISZERO PUSH2 0x1A9A JUMPI POP GAS PUSH2 0x1A69 PUSH2 0x3DA3 JUMP JUMPDEST PUSH1 0x1 PUSH1 0x1 PUSH1 0xA0 SHL SUB AND PUSH1 0x0 PUSH1 0x6 PUSH2 0x1A7E PUSH2 0x3D6B JUMP JUMPDEST SWAP1 PUSH2 0x100 EXP SWAP1 DIV PUSH1 0x1 PUSH1 0x1 PUSH1 0xA0 SHL SUB AND PUSH1 0x1 PUSH1 0x1 PUSH1 0xA0 SHL SUB AND EQ ISZERO JUMPDEST ISZERO PUSH2 0x1ADB JUMPI GAS PUSH2 0x1AA8 PUSH2 0x3DA3 JUMP JUMPDEST PUSH1 0x6 PUSH1 0x1 DUP2 PUSH2 0x1AB5 PUSH2 0x3D6B JUMP JUMPDEST DUP2 PUSH1 0x1 PUSH1 0x1 PUSH1 0xA0 SHL SUB MUL NOT AND SWAP1 DUP4 PUSH1 0x1 PUSH1 0x1 PUSH1 0xA0 SHL SUB AND MUL OR SWAP1 PUSH2 0x1AD7 PUSH2 0x3DC7 JUMP JUMPDEST POP POP POP JUMPDEST PUSH1 0x0 DUP1 PUSH2 0x1AE6 PUSH2 0x3D6B JUMP JUMPDEST PUSH1 0x1 PUSH1 0x1 PUSH1 0xA0 SHL SUB PUSH2 0x100 SWAP3 SWAP1 SWAP3 EXP SWAP1 DIV AND PUSH1 0x0 PUSH1 0x6 PUSH2 0x1B04 PUSH2 0x3D6B JUMP JUMPDEST SWAP1 PUSH2 0x100 EXP SWAP1 DIV PUSH1 0x1 PUSH1 0x1 PUSH1 0xA0 SHL SUB AND PUSH1 0x1 PUSH1 0x1 PUSH1 0xA0 SHL SUB AND EQ PUSH2 0x1B65 JUMPI PUSH1 0x40 DUP1 MLOAD PUSH3 0x461BCD PUSH1 0xE5 SHL DUP2 MSTORE PUSH1 0x20 PUSH1 0x4 DUP3 ADD MSTORE PUSH1 0x13 PUSH1 0x24 DUP3 ADD MSTORE PUSH19 0x27BBB732B91037B7363C90333AB731BA34B7B7 PUSH1 0x69 SHL PUSH1 0x44 DUP3 ADD MSTORE SWAP1 MLOAD SWAP1 DUP2 SWAP1 SUB PUSH1 0x64 ADD SWAP1 REVERT JUMPDEST DUP1 PUSH1 0x7 PUSH1 0x1 DUP2 PUSH2 0x1B73 PUSH2 0x3D6B JUMP JUMPDEST DUP2 PUSH1 0x1 PUSH1 0x1 PUSH1 0xA0 SHL SUB MUL NOT AND SWAP1 DUP4 PUSH1 0x1 PUSH1 0x1 PUSH1 0xA0 SHL SUB AND MUL OR SWAP1 PUSH2 0x1B95 PUSH2 0x3DC7 JUMP JUMPDEST POP POP POP PUSH2 0x1BA1 DUP2 PUSH2 0x32F3 JUMP JUMPDEST POP JUMP JUMPDEST PUSH3 0x24EA00 DUP2 JUMP JUMPDEST PUSH1 0x0 DUP1 PUSH1 0x4 PUSH2 0x1BB8 PUSH2 0x3D6B JUMP JUMPDEST SWAP1 PUSH2 0x100 EXP SWAP1 DIV PUSH1 0x1 PUSH1 0x1 PUSH1 0xA0 SHL SUB AND PUSH1 0x1 PUSH1 0x1 PUSH1 0xA0 SHL SUB AND GAS PUSH2 0x1BDA PUSH2 0x3DA3 JUMP JUMPDEST PUSH1 0x1 PUSH1 0x1 PUSH1 0xA0 SHL SUB AND EQ ISZERO DUP1 ISZERO PUSH2 0x1C26 JUMPI POP PUSH1 0x0 PUSH1 0x5 PUSH2 0x1BF8 PUSH2 0x3D6B JUMP JUMPDEST SWAP1 PUSH2 0x100 EXP SWAP1 DIV PUSH1 0x1 PUSH1 0x1 PUSH1 0xA0 SHL SUB AND PUSH1 0x1 PUSH1 0x1 PUSH1 0xA0 SHL SUB AND GAS PUSH2 0x1C1A PUSH2 0x3DA3 JUMP JUMPDEST PUSH1 0x1 PUSH1 0x1 PUSH1 0xA0 SHL SUB AND EQ ISZERO JUMPDEST DUP1 ISZERO PUSH2 0x1C67 JUMPI POP GAS PUSH2 0x1C36 PUSH2 0x3DA3 JUMP JUMPDEST PUSH1 0x1 PUSH1 0x1 PUSH1 0xA0 SHL SUB AND PUSH1 0x0 PUSH1 0x6 PUSH2 0x1C4B PUSH2 0x3D6B JUMP JUMPDEST SWAP1 PUSH2 0x100 EXP SWAP1 DIV PUSH1 0x1 PUSH1 0x1 PUSH1 0xA0 SHL SUB AND PUSH1 0x1 PUSH1 0x1 PUSH1 0xA0 SHL SUB AND EQ ISZERO JUMPDEST ISZERO PUSH2 0x1CA8 JUMPI GAS PUSH2 0x1C75 PUSH2 0x3DA3 JUMP JUMPDEST PUSH1 0x6 PUSH1 0x1 DUP2 PUSH2 0x1C82 PUSH2 0x3D6B JUMP JUMPDEST DUP2 PUSH1 0x1 PUSH1 0x1 PUSH1 0xA0 SHL SUB MUL NOT AND SWAP1 DUP4 PUSH1 0x1 PUSH1 0x1 PUSH1 0xA0 SHL SUB AND MUL OR SWAP1 PUSH2 0x1CA4 PUSH2 0x3DC7 JUMP JUMPDEST POP POP POP JUMPDEST PUSH2 0x1CCD PUSH1 0x0 PUSH1 0x6 PUSH2 0x1CB7 PUSH2 0x3D6B JUMP JUMPDEST SWAP1 PUSH2 0x100 EXP SWAP1 DIV PUSH1 0x1 PUSH1 0x1 PUSH1 0xA0 SHL SUB AND DUP4 PUSH2 0x2ABE JUMP JUMPDEST PUSH1 0x1 PUSH1 0x1 PUSH1 0xA0 SHL SUB DUP4 AND PUSH20 0xFEEFEEFEEFEEFEEFEEFEEFEEFEEFEEFEEFEEFEEF EQ ISZERO PUSH2 0x1D03 JUMPI PUSH2 0x1CFC DUP4 DUP4 PUSH2 0x3457 JUMP JUMPDEST SWAP1 POP PUSH2 0xA0E JUMP JUMPDEST PUSH1 0x1 PUSH1 0x1 PUSH1 0xA0 SHL SUB DUP4 AND PUSH2 0x1D36 JUMPI PUSH2 0x1CFC PUSH1 0x0 PUSH1 0x6 PUSH2 0x1D20 PUSH2 0x3D6B JUMP JUMPDEST SWAP1 PUSH2 0x100 EXP SWAP1 DIV PUSH1 0x1 PUSH1 0x1 PUSH1 0xA0 SHL SUB AND DUP4 PUSH2 0x319C JUMP JUMPDEST PUSH2 0x1D5C PUSH1 0x0 PUSH1 0x6 PUSH2 0x1D45 PUSH2 0x3D6B JUMP JUMPDEST SWAP1 PUSH2 0x100 EXP SWAP1 DIV PUSH1 0x1 PUSH1 0x1 PUSH1 0xA0 SHL SUB AND DUP5 DUP5 PUSH2 0x361F JUMP JUMPDEST SWAP4 SWAP3 POP POP POP JUMP JUMPDEST PUSH2 0x1D6B PUSH2 0x3F01 JUMP JUMPDEST PUSH1 0x0 JUMPDEST PUSH1 0xD DUP1 PUSH2 0x1D79 PUSH2 0x3D6B JUMP JUMPDEST SWAP1 POP DUP2 LT ISZERO PUSH2 0x1DC1 JUMPI PUSH1 0xD DUP2 DUP2 PUSH2 0x1D8E PUSH2 0x3D6B JUMP JUMPDEST DUP2 LT PUSH2 0x1D96 JUMPI INVALID JUMPDEST SWAP1 PUSH1 0x0 MSTORE PUSH1 0x20 PUSH1 0x0 KECCAK256 ADD PUSH2 0x1DA8 PUSH2 0x3D6B JUMP JUMPDEST DUP3 DUP3 PUSH1 0x18 DUP2 LT PUSH2 0x1DB4 JUMPI INVALID JUMPDEST PUSH1 0x20 MUL ADD MSTORE PUSH1 0x1 ADD PUSH2 0x1D6E JUMP JUMPDEST POP SWAP1 JUMP JUMPDEST PUSH1 0x0 DUP1 PUSH1 0x4 PUSH2 0x1DD2 PUSH2 0x3D6B JUMP JUMPDEST SWAP1 PUSH2 0x100 EXP SWAP1 DIV PUSH1 0x1 PUSH1 0x1 PUSH1 0xA0 SHL SUB AND PUSH1 0x1 PUSH1 0x1 PUSH1 0xA0 SHL SUB AND GAS PUSH2 0x1DF4 PUSH2 0x3DA3 JUMP JUMPDEST PUSH1 0x1 PUSH1 0x1 PUSH1 0xA0 SHL SUB AND EQ ISZERO DUP1 ISZERO PUSH2 0x1E40 JUMPI POP PUSH1 0x0 PUSH1 0x5 PUSH2 0x1E12 PUSH2 0x3D6B JUMP JUMPDEST SWAP1 PUSH2 0x100 EXP SWAP1 DIV PUSH1 0x1 PUSH1 0x1 PUSH1 0xA0 SHL SUB AND PUSH1 0x1 PUSH1 0x1 PUSH1 0xA0 SHL SUB AND GAS PUSH2 0x1E34 PUSH2 0x3DA3 JUMP JUMPDEST PUSH1 0x1 PUSH1 0x1 PUSH1 0xA0 SHL SUB AND EQ ISZERO JUMPDEST DUP1 ISZERO PUSH2 0x1E81 JUMPI POP GAS PUSH2 0x1E50 PUSH2 0x3DA3 JUMP JUMPDEST PUSH1 0x1 PUSH1 0x1 PUSH1 0xA0 SHL SUB AND PUSH1 0x0 PUSH1 0x6 PUSH2 0x1E65 PUSH2 0x3D6B JUMP JUMPDEST SWAP1 PUSH2 0x100 EXP SWAP1 DIV PUSH1 0x1 PUSH1 0x1 PUSH1 0xA0 SHL SUB AND PUSH1 0x1 PUSH1 0x1 PUSH1 0xA0 SHL SUB AND EQ ISZERO JUMPDEST ISZERO PUSH2 0x1EC2 JUMPI GAS PUSH2 0x1E8F PUSH2 0x3DA3 JUMP JUMPDEST PUSH1 0x6 PUSH1 0x1 DUP2 PUSH2 0x1E9C PUSH2 0x3D6B JUMP JUMPDEST DUP2 PUSH1 0x1 PUSH1 0x1 PUSH1 0xA0 SHL SUB MUL NOT AND SWAP1 DUP4 PUSH1 0x1 PUSH1 0x1 PUSH1 0xA0 SHL SUB AND MUL OR SWAP1 PUSH2 0x1EBE PUSH2 0x3DC7 JUMP JUMPDEST POP POP POP JUMPDEST PUSH1 0x0 PUSH2 0x1ECC PUSH2 0x2F6F JUMP JUMPDEST PUSH1 0x1 PUSH1 0x1 PUSH1 0xA0 SHL SUB AND PUSH4 0x1B16802C PUSH1 0x0 PUSH1 0x6 PUSH2 0x1EE6 PUSH2 0x3D6B JUMP JUMPDEST SWAP1 PUSH2 0x100 EXP SWAP1 DIV PUSH1 0x1 PUSH1 0x1 PUSH1 0xA0 SHL SUB AND PUSH1 0xE PUSH2 0x1F00 PUSH2 0x3D6B JUMP JUMPDEST PUSH1 0x40 MLOAD DUP4 PUSH4 0xFFFFFFFF AND PUSH1 0xE0 SHL DUP2 MSTORE PUSH1 0x4 ADD DUP1 DUP4 PUSH1 0x1 PUSH1 0x1 PUSH1 0xA0 SHL SUB AND PUSH1 0x1 PUSH1 0x1 PUSH1 0xA0 SHL SUB AND DUP2 MSTORE PUSH1 0x20 ADD DUP3 DUP2 MSTORE PUSH1 0x20 ADD SWAP3 POP POP POP PUSH1 0x60 PUSH1 0x40 MLOAD DUP1 DUP4 SUB DUP2 PUSH1 0x0 DUP8 DUP1 PUSH2 0x1F4A PUSH2 0x3DFE JUMP JUMPDEST ISZERO DUP1 ISZERO PUSH2 0x1F56 JUMPI PUSH1 0x0 DUP1 REVERT JUMPDEST POP GAS PUSH2 0x1F60 PUSH2 0x3E2F JUMP JUMPDEST POP POP POP POP POP POP ISZERO DUP1 ISZERO PUSH2 0x1F77 JUMPI RETURNDATASIZE PUSH1 0x0 DUP1 RETURNDATACOPY RETURNDATASIZE PUSH1 0x0 REVERT JUMPDEST POP POP POP POP PUSH1 0x40 MLOAD RETURNDATASIZE PUSH1 0x60 DUP2 LT ISZERO PUSH2 0x1F8D JUMPI PUSH1 0x0 DUP1 REVERT JUMPDEST POP PUSH1 0x40 ADD MLOAD SWAP1 POP DUP3 DUP2 ISZERO PUSH2 0x2062 JUMPI PUSH1 0x0 PUSH1 0x7 PUSH2 0x1FA7 PUSH2 0x3D6B JUMP JUMPDEST PUSH1 0x1 PUSH1 0x1 PUSH1 0xA0 SHL SUB PUSH2 0x100 SWAP3 SWAP1 SWAP3 EXP SWAP1 DIV AND PUSH4 0x70A08231 PUSH1 0x0 PUSH1 0x6 PUSH2 0x1FCA PUSH2 0x3D6B JUMP JUMPDEST SWAP1 PUSH2 0x100 EXP SWAP1 DIV PUSH1 0x1 PUSH1 0x1 PUSH1 0xA0 SHL SUB AND PUSH1 0x40 MLOAD DUP3 PUSH4 0xFFFFFFFF AND PUSH1 0xE0 SHL DUP2 MSTORE PUSH1 0x4 ADD DUP1 DUP3 PUSH1 0x1 PUSH1 0x1 PUSH1 0xA0 SHL SUB AND PUSH1 0x1 PUSH1 0x1 PUSH1 0xA0 SHL SUB AND DUP2 MSTORE PUSH1 0x20 ADD SWAP2 POP POP PUSH1 0x20 PUSH1 0x40 MLOAD DUP1 DUP4 SUB DUP2 DUP7 DUP1 PUSH2 0x201B PUSH2 0x3DFE JUMP JUMPDEST ISZERO DUP1 ISZERO PUSH2 0x2027 JUMPI PUSH1 0x0 DUP1 REVERT JUMPDEST POP GAS PUSH2 0x2031 PUSH2 0x3E86 JUMP JUMPDEST POP POP POP POP POP ISZERO DUP1 ISZERO PUSH2 0x2047 JUMPI RETURNDATASIZE PUSH1 0x0 DUP1 RETURNDATACOPY RETURNDATASIZE PUSH1 0x0 REVERT JUMPDEST POP POP POP POP PUSH1 0x40 MLOAD RETURNDATASIZE PUSH1 0x20 DUP2 LT ISZERO PUSH2 0x205D JUMPI PUSH1 0x0 DUP1 REVERT JUMPDEST POP MLOAD SWAP1 POP JUMPDEST DUP1 DUP5 GT PUSH2 0x206F JUMPI DUP4 PUSH2 0x2071 JUMP JUMPDEST DUP1 JUMPDEST SWAP4 POP PUSH2 0x2099 PUSH1 0x0 PUSH1 0x6 PUSH2 0x2082 PUSH2 0x3D6B JUMP JUMPDEST SWAP1 PUSH2 0x100 EXP SWAP1 DIV PUSH1 0x1 PUSH1 0x1 PUSH1 0xA0 SHL SUB AND DUP7 DUP7 PUSH2 0x361F JUMP JUMPDEST SWAP6 SWAP5 POP POP POP POP POP JUMP JUMPDEST PUSH1 0x0 PUSH1 0x3 PUSH2 0xE23 PUSH2 0x3D6B JUMP JUMPDEST PUSH1 0x0 PUSH1 0x4 PUSH2 0x20BA PUSH2 0x3D6B JUMP JUMPDEST SWAP1 PUSH2 0x100 EXP SWAP1 DIV PUSH1 0x1 PUSH1 0x1 PUSH1 0xA0 SHL SUB AND PUSH1 0x1 PUSH1 0x1 PUSH1 0xA0 SHL SUB AND GAS PUSH2 0x20DC PUSH2 0x3DA3 JUMP JUMPDEST PUSH1 0x1 PUSH1 0x1 PUSH1 0xA0 SHL SUB AND EQ DUP1 PUSH2 0x2125 JUMPI POP PUSH1 0x0 PUSH1 0x5 PUSH2 0x20F8 PUSH2 0x3D6B JUMP JUMPDEST SWAP1 PUSH2 0x100 EXP SWAP1 DIV PUSH1 0x1 PUSH1 0x1 PUSH1 0xA0 SHL SUB AND PUSH1 0x1 PUSH1 0x1 PUSH1 0xA0 SHL SUB AND GAS PUSH2 0x211A PUSH2 0x3DA3 JUMP JUMPDEST PUSH1 0x1 PUSH1 0x1 PUSH1 0xA0 SHL SUB AND EQ JUMPDEST PUSH2 0x2176 JUMPI PUSH1 0x40 DUP1 MLOAD PUSH3 0x461BCD PUSH1 0xE5 SHL DUP2 MSTORE PUSH1 0x20 PUSH1 0x4 DUP3 ADD MSTORE PUSH1 0x17 PUSH1 0x24 DUP3 ADD MSTORE PUSH32 0x4F6E6C79207468652070726F78792063616E2063616C6C000000000000000000 PUSH1 0x44 DUP3 ADD MSTORE SWAP1 MLOAD SWAP1 DUP2 SWAP1 SUB PUSH1 0x64 ADD SWAP1 REVERT JUMPDEST DUP1 PUSH1 0x6 PUSH1 0x1 DUP2 PUSH2 0xA94 PUSH2 0x3D6B JUMP JUMPDEST PUSH1 0x0 DUP1 PUSH2 0x218F PUSH2 0x3D6B JUMP JUMPDEST SWAP1 PUSH2 0x100 EXP SWAP1 DIV PUSH1 0x1 PUSH1 0x1 PUSH1 0xA0 SHL SUB AND PUSH1 0x1 PUSH1 0x1 PUSH1 0xA0 SHL SUB AND GAS PUSH2 0x21B1 PUSH2 0x3DA3 JUMP JUMPDEST PUSH1 0x1 PUSH1 0x1 PUSH1 0xA0 SHL SUB AND EQ PUSH2 0x21F6 JUMPI PUSH1 0x40 MLOAD PUSH3 0x461BCD PUSH1 0xE5 SHL DUP2 MSTORE PUSH1 0x4 ADD DUP1 DUP1 PUSH1 0x20 ADD DUP3 DUP2 SUB DUP3 MSTORE PUSH1 0x2F DUP2 MSTORE PUSH1 0x20 ADD DUP1 PUSH2 0x3FB8 PUSH1 0x2F SWAP2 CODECOPY PUSH1 0x40 ADD SWAP2 POP POP PUSH1 0x40 MLOAD DUP1 SWAP2 SUB SWAP1 REVERT JUMPDEST GAS PUSH2 0x21FF PUSH2 0x3EDD JUMP JUMPDEST DUP1 PUSH1 0x2 PUSH2 0x220A PUSH2 0x3DC7 JUMP JUMPDEST POP POP POP PUSH1 0x1 PUSH1 0x3 PUSH1 0x0 PUSH2 0x100 EXP DUP2 PUSH2 0x2220 PUSH2 0x3D6B JUMP JUMPDEST DUP2 PUSH1 0xFF MUL NOT AND SWAP1 DUP4 ISZERO ISZERO MUL OR SWAP1 PUSH2 0x2235 PUSH2 0x3DC7 JUMP JUMPDEST POP POP PUSH1 0x40 DUP1 MLOAD PUSH3 0x24EA00 DUP2 MSTORE SWAP1 MLOAD PUSH32 0xCBD94CA75B8DC45C9D80C77E851670E78843C0D75180CB81DB3E2158228FA9A6 SWAP3 POP SWAP1 DUP2 SWAP1 SUB PUSH1 0x20 ADD SWAP1 LOG1 JUMP JUMPDEST PUSH1 0x1 PUSH1 0x3 PUSH2 0x779 PUSH2 0x3D6B JUMP JUMPDEST PUSH1 0xD DUP2 DUP2 PUSH2 0x2289 PUSH2 0x3D6B JUMP JUMPDEST DUP2 LT PUSH2 0x2291 JUMPI INVALID JUMPDEST PUSH1 0x0 SWAP2 DUP3 MSTORE PUSH1 0x20 SWAP1 SWAP2 KECCAK256 ADD SWAP1 POP PUSH2 0xBAA PUSH2 0x3D6B JUMP JUMPDEST PUSH1 0x0 PUSH1 0x6 PUSH2 0x779 PUSH2 0x3D6B JUMP JUMPDEST PUSH1 0xE PUSH2 0xBAA PUSH2 0x3D6B JUMP JUMPDEST PUSH1 0x0 DUP1 PUSH1 0x7 PUSH2 0x22C9 PUSH2 0x3D6B JUMP JUMPDEST PUSH1 0x40 DUP1 MLOAD PUSH4 0x6EB1769F PUSH1 0xE1 SHL DUP2 MSTORE PUSH1 0x1 PUSH1 0x1 PUSH1 0xA0 SHL SUB DUP8 DUP2 AND PUSH1 0x4 DUP4 ADD MSTORE DUP7 DUP2 AND PUSH1 0x24 DUP4 ADD MSTORE SWAP2 MLOAD PUSH2 0x100 SWAP5 SWAP1 SWAP5 EXP SWAP1 SWAP3 DIV AND SWAP2 PUSH4 0xDD62ED3E SWAP2 PUSH1 0x44 DUP1 DUP3 ADD SWAP3 PUSH1 0x20 SWAP3 SWAP1 SWAP2 SWAP1 DUP3 SWAP1 SUB ADD DUP2 DUP7 DUP1 PUSH2 0x231E PUSH2 0x3DFE JUMP JUMPDEST ISZERO DUP1 ISZERO PUSH2 0x232A JUMPI PUSH1 0x0 DUP1 REVERT JUMPDEST POP GAS PUSH2 0x2334 PUSH2 0x3E86 JUMP JUMPDEST POP POP POP POP POP ISZERO DUP1 ISZERO PUSH2 0x234A JUMPI RETURNDATASIZE PUSH1 0x0 DUP1 RETURNDATACOPY RETURNDATASIZE PUSH1 0x0 REVERT JUMPDEST POP POP POP POP PUSH1 0x40 MLOAD RETURNDATASIZE PUSH1 0x20 DUP2 LT ISZERO PUSH2 0x2360 JUMPI PUSH1 0x0 DUP1 REVERT JUMPDEST POP MLOAD SWAP4 SWAP3 POP POP POP JUMP JUMPDEST PUSH1 0x18 DUP2 JUMP JUMPDEST PUSH1 0x0 DUP1 PUSH1 0x4 PUSH2 0x237B PUSH2 0x3D6B JUMP JUMPDEST SWAP1 PUSH2 0x100 EXP SWAP1 DIV PUSH1 0x1 PUSH1 0x1 PUSH1 0xA0 SHL SUB AND PUSH1 0x1 PUSH1 0x1 PUSH1 0xA0 SHL SUB AND GAS PUSH2 0x239D PUSH2 0x3DA3 JUMP JUMPDEST PUSH1 0x1 PUSH1 0x1 PUSH1 0xA0 SHL SUB AND EQ ISZERO DUP1 ISZERO PUSH2 0x23E9 JUMPI POP PUSH1 0x0 PUSH1 0x5 PUSH2 0x23BB PUSH2 0x3D6B JUMP JUMPDEST SWAP1 PUSH2 0x100 EXP SWAP1 DIV PUSH1 0x1 PUSH1 0x1 PUSH1 0xA0 SHL SUB AND PUSH1 0x1 PUSH1 0x1 PUSH1 0xA0 SHL SUB AND GAS PUSH2 0x23DD PUSH2 0x3DA3 JUMP JUMPDEST PUSH1 0x1 PUSH1 0x1 PUSH1 0xA0 SHL SUB AND EQ ISZERO JUMPDEST DUP1 ISZERO PUSH2 0x242A JUMPI POP GAS PUSH2 0x23F9 PUSH2 0x3DA3 JUMP JUMPDEST PUSH1 0x1 PUSH1 0x1 PUSH1 0xA0 SHL SUB AND PUSH1 0x0 PUSH1 0x6 PUSH2 0x240E PUSH2 0x3D6B JUMP JUMPDEST SWAP1 PUSH2 0x100 EXP SWAP1 DIV PUSH1 0x1 PUSH1 0x1 PUSH1 0xA0 SHL SUB AND PUSH1 0x1 PUSH1 0x1 PUSH1 0xA0 SHL SUB AND EQ ISZERO JUMPDEST ISZERO PUSH2 0x246B JUMPI GAS PUSH2 0x2438 PUSH2 0x3DA3 JUMP JUMPDEST PUSH1 0x6 PUSH1 0x1 DUP2 PUSH2 0x2445 PUSH2 0x3D6B JUMP JUMPDEST DUP2 PUSH1 0x1 PUSH1 0x1 PUSH1 0xA0 SHL SUB MUL NOT AND SWAP1 DUP4 PUSH1 0x1 PUSH1 0x1 PUSH1 0xA0 SHL SUB AND MUL OR SWAP1 PUSH2 0x2467 PUSH2 0x3DC7 JUMP JUMPDEST POP POP POP JUMPDEST PUSH1 0x0 PUSH2 0x2475 PUSH2 0x2F6F JUMP JUMPDEST PUSH1 0x1 PUSH1 0x1 PUSH1 0xA0 SHL SUB AND PUSH4 0x1B16802C DUP7 PUSH1 0xE PUSH2 0x248E PUSH2 0x3D6B JUMP JUMPDEST PUSH1 0x40 MLOAD DUP4 PUSH4 0xFFFFFFFF AND PUSH1 0xE0 SHL DUP2 MSTORE PUSH1 0x4 ADD DUP1 DUP4 PUSH1 0x1 PUSH1 0x1 PUSH1 0xA0 SHL SUB AND PUSH1 0x1 PUSH1 0x1 PUSH1 0xA0 SHL SUB AND DUP2 MSTORE PUSH1 0x20 ADD DUP3 DUP2 MSTORE PUSH1 0x20 ADD SWAP3 POP POP POP PUSH1 0x60 PUSH1 0x40 MLOAD DUP1 DUP4 SUB DUP2 PUSH1 0x0 DUP8 DUP1 PUSH2 0x24D8 PUSH2 0x3DFE JUMP JUMPDEST ISZERO DUP1 ISZERO PUSH2 0x24E4 JUMPI PUSH1 0x0 DUP1 REVERT JUMPDEST POP GAS PUSH2 0x24EE PUSH2 0x3E2F JUMP JUMPDEST POP POP POP POP POP POP ISZERO DUP1 ISZERO PUSH2 0x2505 JUMPI RETURNDATASIZE PUSH1 0x0 DUP1 RETURNDATACOPY RETURNDATASIZE PUSH1 0x0 REVERT JUMPDEST POP POP POP POP PUSH1 0x40 MLOAD RETURNDATASIZE PUSH1 0x60 DUP2 LT ISZERO PUSH2 0x251B JUMPI PUSH1 0x0 DUP1 REVERT JUMPDEST POP PUSH1 0x40 ADD MLOAD SWAP1 POP DUP3 DUP2 ISZERO PUSH2 0x25DC JUMPI PUSH1 0x0 PUSH1 0x7 PUSH2 0x2535 PUSH2 0x3D6B JUMP JUMPDEST SWAP1 PUSH2 0x100 EXP SWAP1 DIV PUSH1 0x1 PUSH1 0x1 PUSH1 0xA0 SHL SUB AND PUSH1 0x1 PUSH1 0x1 PUSH1 0xA0 SHL SUB AND PUSH4 0x70A08231 DUP8 PUSH1 0x40 MLOAD DUP3 PUSH4 0xFFFFFFFF AND PUSH1 0xE0 SHL DUP2 MSTORE PUSH1 0x4 ADD DUP1 DUP3 PUSH1 0x1 PUSH1 0x1 PUSH1 0xA0 SHL SUB AND PUSH1 0x1 PUSH1 0x1 PUSH1 0xA0 SHL SUB AND DUP2 MSTORE PUSH1 0x20 ADD SWAP2 POP POP PUSH1 0x20 PUSH1 0x40 MLOAD DUP1 DUP4 SUB DUP2 DUP7 DUP1 PUSH2 0x2595 PUSH2 0x3DFE JUMP JUMPDEST ISZERO DUP1 ISZERO PUSH2 0x25A1 JUMPI PUSH1 0x0 DUP1 REVERT JUMPDEST POP GAS PUSH2 0x25AB PUSH2 0x3E86 JUMP JUMPDEST POP POP POP POP POP ISZERO DUP1 ISZERO PUSH2 0x25C1 JUMPI RETURNDATASIZE PUSH1 0x0 DUP1 RETURNDATACOPY RETURNDATASIZE PUSH1 0x0 REVERT JUMPDEST POP POP POP POP PUSH1 0x40 MLOAD RETURNDATASIZE PUSH1 0x20 DUP2 LT ISZERO PUSH2 0x25D7 JUMPI PUSH1 0x0 DUP1 REVERT JUMPDEST POP MLOAD SWAP1 POP JUMPDEST DUP1 DUP5 LT ISZERO PUSH2 0x25EA JUMPI DUP4 PUSH2 0x25EC JUMP JUMPDEST DUP1 JUMPDEST SWAP4 POP PUSH2 0x25F9 DUP7 DUP7 DUP7 PUSH2 0x2C69 JUMP JUMPDEST SWAP7 SWAP6 POP POP POP POP POP POP JUMP JUMPDEST PUSH1 0x0 PUSH1 0x7 PUSH2 0x779 PUSH2 0x3D6B JUMP JUMPDEST PUSH20 0xFEEFEEFEEFEEFEEFEEFEEFEEFEEFEEFEEFEEFEEF DUP2 JUMP JUMPDEST PUSH1 0x0 PUSH1 0x4 PUSH2 0x779 PUSH2 0x3D6B JUMP JUMPDEST PUSH1 0x0 PUSH1 0x4 PUSH2 0x263F PUSH2 0x3D6B JUMP JUMPDEST SWAP1 PUSH2 0x100 EXP SWAP1 DIV PUSH1 0x1 PUSH1 0x1 PUSH1 0xA0 SHL SUB AND PUSH1 0x1 PUSH1 0x1 PUSH1 0xA0 SHL SUB AND GAS PUSH2 0x2661 PUSH2 0x3DA3 JUMP JUMPDEST PUSH1 0x1 PUSH1 0x1 PUSH1 0xA0 SHL SUB AND EQ ISZERO DUP1 ISZERO PUSH2 0x26AD JUMPI POP PUSH1 0x0 PUSH1 0x5 PUSH2 0x267F PUSH2 0x3D6B JUMP JUMPDEST SWAP1 PUSH2 0x100 EXP SWAP1 DIV PUSH1 0x1 PUSH1 0x1 PUSH1 0xA0 SHL SUB AND PUSH1 0x1 PUSH1 0x1 PUSH1 0xA0 SHL SUB AND GAS PUSH2 0x26A1 PUSH2 0x3DA3 JUMP JUMPDEST PUSH1 0x1 PUSH1 0x1 PUSH1 0xA0 SHL SUB AND EQ ISZERO JUMPDEST DUP1 ISZERO PUSH2 0x26EE JUMPI POP GAS PUSH2 0x26BD PUSH2 0x3DA3 JUMP JUMPDEST PUSH1 0x1 PUSH1 0x1 PUSH1 0xA0 SHL SUB AND PUSH1 0x0 PUSH1 0x6 PUSH2 0x26D2 PUSH2 0x3D6B JUMP JUMPDEST SWAP1 PUSH2 0x100 EXP SWAP1 DIV PUSH1 0x1 PUSH1 0x1 PUSH1 0xA0 SHL SUB AND PUSH1 0x1 PUSH1 0x1 PUSH1 0xA0 SHL SUB AND EQ ISZERO JUMPDEST ISZERO PUSH2 0x272F JUMPI GAS PUSH2 0x26FC PUSH2 0x3DA3 JUMP JUMPDEST PUSH1 0x6 PUSH1 0x1 DUP2 PUSH2 0x2709 PUSH2 0x3D6B JUMP JUMPDEST DUP2 PUSH1 0x1 PUSH1 0x1 PUSH1 0xA0 SHL SUB MUL NOT AND SWAP1 DUP4 PUSH1 0x1 PUSH1 0x1 PUSH1 0xA0 SHL SUB AND MUL OR SWAP1 PUSH2 0x272B PUSH2 0x3DC7 JUMP JUMPDEST POP POP POP JUMPDEST PUSH1 0x0 DUP1 PUSH2 0x273A PUSH2 0x3D6B JUMP JUMPDEST PUSH1 0x1 PUSH1 0x1 PUSH1 0xA0 SHL SUB PUSH2 0x100 SWAP3 SWAP1 SWAP3 EXP SWAP1 DIV AND PUSH1 0x0 PUSH1 0x6 PUSH2 0x2758 PUSH2 0x3D6B JUMP JUMPDEST SWAP1 PUSH2 0x100 EXP SWAP1 DIV PUSH1 0x1 PUSH1 0x1 PUSH1 0xA0 SHL SUB AND PUSH1 0x1 PUSH1 0x1 PUSH1 0xA0 SHL SUB AND EQ PUSH2 0x27B9 JUMPI PUSH1 0x40 DUP1 MLOAD PUSH3 0x461BCD PUSH1 0xE5 SHL DUP2 MSTORE PUSH1 0x20 PUSH1 0x4 DUP3 ADD MSTORE PUSH1 0x13 PUSH1 0x24 DUP3 ADD MSTORE PUSH19 0x27BBB732B91037B7363C90333AB731BA34B7B7 PUSH1 0x69 SHL PUSH1 0x44 DUP3 ADD MSTORE SWAP1 MLOAD SWAP1 DUP2 SWAP1 SUB PUSH1 0x64 ADD SWAP1 REVERT JUMPDEST DUP1 DUP1 PUSH1 0xA PUSH2 0xAB6 PUSH2 0x3DC7 JUMP JUMPDEST PUSH1 0x0 DUP1 PUSH2 0x27D0 PUSH2 0x2F6F JUMP JUMPDEST PUSH1 0x1 PUSH1 0x1 PUSH1 0xA0 SHL SUB AND PUSH4 0x19D5C665 DUP5 PUSH1 0xE PUSH2 0x27E9 PUSH2 0x3D6B JUMP JUMPDEST PUSH1 0x40 MLOAD DUP4 PUSH4 0xFFFFFFFF AND PUSH1 0xE0 SHL DUP2 MSTORE PUSH1 0x4 ADD DUP1 DUP4 PUSH1 0x1 PUSH1 0x1 PUSH1 0xA0 SHL SUB AND PUSH1 0x1 PUSH1 0x1 PUSH1 0xA0 SHL SUB AND DUP2 MSTORE PUSH1 0x20 ADD DUP3 DUP2 MSTORE PUSH1 0x20 ADD SWAP3 POP POP POP PUSH1 0x60 PUSH1 0x40 MLOAD DUP1 DUP4 SUB DUP2 DUP7 DUP1 PUSH2 0x2831 PUSH2 0x3DFE JUMP JUMPDEST ISZERO DUP1 ISZERO PUSH2 0x283D JUMPI PUSH1 0x0 DUP1 REVERT JUMPDEST POP GAS PUSH2 0x2847 PUSH2 0x3E86 JUMP JUMPDEST POP POP POP POP POP ISZERO DUP1 ISZERO PUSH2 0x285D JUMPI RETURNDATASIZE PUSH1 0x0 DUP1 RETURNDATACOPY RETURNDATASIZE PUSH1 0x0 REVERT JUMPDEST POP POP POP POP PUSH1 0x40 MLOAD RETURNDATASIZE PUSH1 0x60 DUP2 LT ISZERO PUSH2 0x2873 JUMPI PUSH1 0x0 DUP1 REVERT JUMPDEST POP MLOAD SWAP1 POP PUSH1 0x0 DUP1 PUSH1 0x7 PUSH2 0x2884 PUSH2 0x3D6B JUMP JUMPDEST SWAP1 PUSH2 0x100 EXP SWAP1 DIV PUSH1 0x1 PUSH1 0x1 PUSH1 0xA0 SHL SUB AND PUSH1 0x1 PUSH1 0x1 PUSH1 0xA0 SHL SUB AND PUSH4 0x70A08231 DUP6 PUSH1 0x40 MLOAD DUP3 PUSH4 0xFFFFFFFF AND PUSH1 0xE0 SHL DUP2 MSTORE PUSH1 0x4 ADD DUP1 DUP3 PUSH1 0x1 PUSH1 0x1 PUSH1 0xA0 SHL SUB AND PUSH1 0x1 PUSH1 0x1 PUSH1 0xA0 SHL SUB AND DUP2 MSTORE PUSH1 0x20 ADD SWAP2 POP POP PUSH1 0x20 PUSH1 0x40 MLOAD DUP1 DUP4 SUB DUP2 DUP7 DUP1 PUSH2 0x28E4 PUSH2 0x3DFE JUMP JUMPDEST ISZERO DUP1 ISZERO PUSH2 0x28F0 JUMPI PUSH1 0x0 DUP1 REVERT JUMPDEST POP GAS PUSH2 0x28FA PUSH2 0x3E86 JUMP JUMPDEST POP POP POP POP POP ISZERO DUP1 ISZERO PUSH2 0x2910 JUMPI RETURNDATASIZE PUSH1 0x0 DUP1 RETURNDATACOPY RETURNDATASIZE PUSH1 0x0 REVERT JUMPDEST POP POP POP POP PUSH1 0x40 MLOAD RETURNDATASIZE PUSH1 0x20 DUP2 LT ISZERO PUSH2 0x2926 JUMPI PUSH1 0x0 DUP1 REVERT JUMPDEST POP MLOAD SWAP1 POP DUP1 DUP3 GT ISZERO PUSH2 0x293D JUMPI PUSH1 0x0 SWAP3 POP POP POP PUSH2 0x12CC JUMP JUMPDEST PUSH2 0x294D DUP2 DUP4 PUSH4 0xFFFFFFFF PUSH2 0x392C AND JUMP JUMPDEST SWAP3 POP POP POP PUSH2 0x12CC JUMP JUMPDEST PUSH1 0x0 PUSH1 0x4 PUSH2 0x2962 PUSH2 0x3D6B JUMP JUMPDEST SWAP1 PUSH2 0x100 EXP SWAP1 DIV PUSH1 0x1 PUSH1 0x1 PUSH1 0xA0 SHL SUB AND PUSH1 0x1 PUSH1 0x1 PUSH1 0xA0 SHL SUB AND PUSH4 0x907DFF97 DUP3 PUSH1 0x40 MLOAD PUSH1 0x20 ADD DUP1 DUP3 DUP2 MSTORE PUSH1 0x20 ADD SWAP2 POP POP PUSH1 0x40 MLOAD PUSH1 0x20 DUP2 DUP4 SUB SUB DUP2 MSTORE SWAP1 PUSH1 0x40 MSTORE PUSH1 0x3 PUSH1 0x40 MLOAD DUP1 DUP1 PUSH2 0x3FE7 PUSH1 0x21 SWAP2 CODECOPY PUSH1 0x21 ADD SWAP1 POP PUSH1 0x40 MLOAD DUP1 SWAP2 SUB SWAP1 KECCAK256 PUSH2 0x29C4 DUP9 PUSH2 0x3989 JUMP JUMPDEST PUSH2 0x29CD DUP9 PUSH2 0x3989 JUMP JUMPDEST PUSH1 0x0 PUSH1 0x40 MLOAD DUP8 PUSH4 0xFFFFFFFF AND PUSH1 0xE0 SHL DUP2 MSTORE PUSH1 0x4 ADD DUP1 DUP1 PUSH1 0x20 ADD DUP8 DUP2 MSTORE PUSH1 0x20 ADD DUP7 DUP2 MSTORE PUSH1 0x20 ADD DUP6 DUP2 MSTORE PUSH1 0x20 ADD DUP5 DUP2 MSTORE PUSH1 0x20 ADD DUP4 PUSH1 0x0 SHL DUP2 MSTORE PUSH1 0x20 ADD DUP3 DUP2 SUB DUP3 MSTORE DUP9 DUP2 DUP2 MLOAD DUP2 MSTORE PUSH1 0x20 ADD SWAP2 POP DUP1 MLOAD SWAP1 PUSH1 0x20 ADD SWAP1 DUP1 DUP4 DUP4 PUSH1 0x0 JUMPDEST DUP4 DUP2 LT ISZERO PUSH2 0x2A3C JUMPI DUP2 DUP2 ADD MLOAD DUP4 DUP3 ADD MSTORE PUSH1 0x20 ADD PUSH2 0x2A24 JUMP JUMPDEST POP POP POP POP SWAP1 POP SWAP1 DUP2 ADD SWAP1 PUSH1 0x1F AND DUP1 ISZERO PUSH2 0x2A69 JUMPI DUP1 DUP3 SUB DUP1 MLOAD PUSH1 0x1 DUP4 PUSH1 0x20 SUB PUSH2 0x100 EXP SUB NOT AND DUP2 MSTORE PUSH1 0x20 ADD SWAP2 POP JUMPDEST POP SWAP8 POP POP POP POP POP POP POP POP PUSH1 0x0 PUSH1 0x40 MLOAD DUP1 DUP4 SUB DUP2 PUSH1 0x0 DUP8 DUP1 PUSH2 0x2A88 PUSH2 0x3DFE JUMP JUMPDEST ISZERO DUP1 ISZERO PUSH2 0x2A94 JUMPI PUSH1 0x0 DUP1 REVERT JUMPDEST POP GAS PUSH2 0x2A9E PUSH2 0x3E2F JUMP JUMPDEST POP POP POP POP POP POP ISZERO DUP1 ISZERO PUSH2 0x2AB5 JUMPI RETURNDATASIZE PUSH1 0x0 DUP1 RETURNDATACOPY RETURNDATASIZE PUSH1 0x0 REVERT JUMPDEST POP POP POP POP POP POP POP JUMP JUMPDEST PUSH2 0x2AC6 PUSH2 0x2F6F JUMP JUMPDEST PUSH1 0x1 PUSH1 0x1 PUSH1 0xA0 SHL SUB AND PUSH4 0x59C29EC DUP4 PUSH1 0xE PUSH2 0x2ADF PUSH2 0x3D6B JUMP JUMPDEST PUSH1 0x40 MLOAD DUP4 PUSH4 0xFFFFFFFF AND PUSH1 0xE0 SHL DUP2 MSTORE PUSH1 0x4 ADD DUP1 DUP4 PUSH1 0x1 PUSH1 0x1 PUSH1 0xA0 SHL SUB AND PUSH1 0x1 PUSH1 0x1 PUSH1 0xA0 SHL SUB AND DUP2 MSTORE PUSH1 0x20 ADD DUP3 DUP2 MSTORE PUSH1 0x20 ADD SWAP3 POP POP POP PUSH1 0x20 PUSH1 0x40 MLOAD DUP1 DUP4 SUB DUP2 DUP7 DUP1 PUSH2 0x2B27 PUSH2 0x3DFE JUMP JUMPDEST ISZERO DUP1 ISZERO PUSH2 0x2B33 JUMPI PUSH1 0x0 DUP1 REVERT JUMPDEST POP GAS PUSH2 0x2B3D PUSH2 0x3E86 JUMP JUMPDEST POP POP POP POP POP ISZERO DUP1 ISZERO PUSH2 0x2B53 JUMPI RETURNDATASIZE PUSH1 0x0 DUP1 RETURNDATACOPY RETURNDATASIZE PUSH1 0x0 REVERT JUMPDEST POP POP POP POP PUSH1 0x40 MLOAD RETURNDATASIZE PUSH1 0x20 DUP2 LT ISZERO PUSH2 0x2B69 JUMPI PUSH1 0x0 DUP1 REVERT JUMPDEST POP MLOAD ISZERO PUSH2 0x2BA7 JUMPI PUSH1 0x40 MLOAD PUSH3 0x461BCD PUSH1 0xE5 SHL DUP2 MSTORE PUSH1 0x4 ADD DUP1 DUP1 PUSH1 0x20 ADD DUP3 DUP2 SUB DUP3 MSTORE PUSH1 0x25 DUP2 MSTORE PUSH1 0x20 ADD DUP1 PUSH2 0x4008 PUSH1 0x25 SWAP2 CODECOPY PUSH1 0x40 ADD SWAP2 POP POP PUSH1 0x40 MLOAD DUP1 SWAP2 SUB SWAP1 REVERT JUMPDEST DUP1 PUSH2 0x2BB1 DUP4 PUSH2 0x27C5 JUMP JUMPDEST LT ISZERO PUSH2 0x2BEE JUMPI PUSH1 0x40 MLOAD PUSH3 0x461BCD PUSH1 0xE5 SHL DUP2 MSTORE PUSH1 0x4 ADD DUP1 DUP1 PUSH1 0x20 ADD DUP3 DUP2 SUB DUP3 MSTORE PUSH1 0x2F DUP2 MSTORE PUSH1 0x20 ADD DUP1 PUSH2 0x3F56 PUSH1 0x2F SWAP2 CODECOPY PUSH1 0x40 ADD SWAP2 POP POP PUSH1 0x40 MLOAD DUP1 SWAP2 SUB SWAP1 REVERT JUMPDEST PUSH2 0x2BF6 PUSH2 0x3995 JUMP JUMPDEST PUSH1 0x1 PUSH1 0x1 PUSH1 0xA0 SHL SUB AND PUSH4 0x42A28E21 PUSH1 0xE PUSH2 0x2C0E PUSH2 0x3D6B JUMP JUMPDEST PUSH1 0x40 MLOAD DUP3 PUSH4 0xFFFFFFFF AND PUSH1 0xE0 SHL DUP2 MSTORE PUSH1 0x4 ADD DUP1 DUP3 DUP2 MSTORE PUSH1 0x20 ADD SWAP2 POP POP PUSH1 0x0 PUSH1 0x40 MLOAD DUP1 DUP4 SUB DUP2 DUP7 DUP1 PUSH2 0x2C3D PUSH2 0x3DFE JUMP JUMPDEST ISZERO DUP1 ISZERO PUSH2 0x2C49 JUMPI PUSH1 0x0 DUP1 REVERT JUMPDEST POP GAS PUSH2 0x2C53 PUSH2 0x3E86 JUMP JUMPDEST POP POP POP POP POP ISZERO DUP1 ISZERO PUSH2 0x19D7 JUMPI RETURNDATASIZE PUSH1 0x0 DUP1 RETURNDATACOPY RETURNDATASIZE PUSH1 0x0 REVERT JUMPDEST PUSH1 0x0 PUSH1 0x0 NOT DUP2 PUSH1 0x7 PUSH2 0x2C79 PUSH2 0x3D6B JUMP JUMPDEST PUSH1 0x1 PUSH1 0x1 PUSH1 0xA0 SHL SUB PUSH2 0x100 SWAP3 SWAP1 SWAP3 EXP SWAP1 DIV AND PUSH4 0xDD62ED3E DUP7 PUSH1 0x0 PUSH1 0x6 PUSH2 0x2C9D PUSH2 0x3D6B JUMP JUMPDEST SWAP1 PUSH2 0x100 EXP SWAP1 DIV PUSH1 0x1 PUSH1 0x1 PUSH1 0xA0 SHL SUB AND PUSH1 0x40 MLOAD DUP4 PUSH4 0xFFFFFFFF AND PUSH1 0xE0 SHL DUP2 MSTORE PUSH1 0x4 ADD DUP1 DUP4 PUSH1 0x1 PUSH1 0x1 PUSH1 0xA0 SHL SUB AND PUSH1 0x1 PUSH1 0x1 PUSH1 0xA0 SHL SUB AND DUP2 MSTORE PUSH1 0x20 ADD DUP3 PUSH1 0x1 PUSH1 0x1 PUSH1 0xA0 SHL SUB AND PUSH1 0x1 PUSH1 0x1 PUSH1 0xA0 SHL SUB AND DUP2 MSTORE PUSH1 0x20 ADD SWAP3 POP POP POP PUSH1 0x20 PUSH1 0x40 MLOAD DUP1 DUP4 SUB DUP2 DUP7 DUP1 PUSH2 0x2D07 PUSH2 0x3DFE JUMP JUMPDEST ISZERO DUP1 ISZERO PUSH2 0x2D13 JUMPI PUSH1 0x0 DUP1 REVERT JUMPDEST POP GAS PUSH2 0x2D1D PUSH2 0x3E86 JUMP JUMPDEST POP POP POP POP POP ISZERO DUP1 ISZERO PUSH2 0x2D33 JUMPI RETURNDATASIZE PUSH1 0x0 DUP1 RETURNDATACOPY RETURNDATASIZE PUSH1 0x0 REVERT JUMPDEST POP POP POP POP PUSH1 0x40 MLOAD RETURNDATASIZE PUSH1 0x20 DUP2 LT ISZERO PUSH2 0x2D49 JUMPI PUSH1 0x0 DUP1 REVERT JUMPDEST POP MLOAD EQ PUSH2 0x2F14 JUMPI PUSH1 0x0 PUSH1 0x7 PUSH2 0x2D5C PUSH2 0x3D6B JUMP JUMPDEST PUSH1 0x1 PUSH1 0x1 PUSH1 0xA0 SHL SUB PUSH2 0x100 SWAP3 SWAP1 SWAP3 EXP SWAP1 DIV AND PUSH4 0xDA46098C DUP6 PUSH1 0x0 PUSH1 0x6 PUSH2 0x2D80 PUSH2 0x3D6B JUMP JUMPDEST SWAP1 PUSH2 0x100 EXP SWAP1 DIV PUSH1 0x1 PUSH1 0x1 PUSH1 0xA0 SHL SUB AND PUSH2 0x2E7F DUP7 PUSH1 0x7 PUSH1 0x0 SWAP1 PUSH2 0x2DA1 PUSH2 0x3D6B JUMP JUMPDEST PUSH1 0x1 PUSH1 0x1 PUSH1 0xA0 SHL SUB PUSH2 0x100 SWAP3 SWAP1 SWAP3 EXP SWAP1 DIV AND PUSH4 0xDD62ED3E DUP12 PUSH1 0x0 PUSH1 0x6 PUSH2 0x2DC5 PUSH2 0x3D6B JUMP JUMPDEST SWAP1 PUSH2 0x100 EXP SWAP1 DIV PUSH1 0x1 PUSH1 0x1 PUSH1 0xA0 SHL SUB AND PUSH1 0x40 MLOAD DUP4 PUSH4 0xFFFFFFFF AND PUSH1 0xE0 SHL DUP2 MSTORE PUSH1 0x4 ADD DUP1 DUP4 PUSH1 0x1 PUSH1 0x1 PUSH1 0xA0 SHL SUB AND PUSH1 0x1 PUSH1 0x1 PUSH1 0xA0 SHL SUB AND DUP2 MSTORE PUSH1 0x20 ADD DUP3 PUSH1 0x1 PUSH1 0x1 PUSH1 0xA0 SHL SUB AND PUSH1 0x1 PUSH1 0x1 PUSH1 0xA0 SHL SUB AND DUP2 MSTORE PUSH1 0x20 ADD SWAP3 POP POP POP PUSH1 0x20 PUSH1 0x40 MLOAD DUP1 DUP4 SUB DUP2 DUP7 DUP1 PUSH2 0x2E2F PUSH2 0x3DFE JUMP JUMPDEST ISZERO DUP1 ISZERO PUSH2 0x2E3B JUMPI PUSH1 0x0 DUP1 REVERT JUMPDEST POP GAS PUSH2 0x2E45 PUSH2 0x3E86 JUMP JUMPDEST POP POP POP POP POP ISZERO DUP1 ISZERO PUSH2 0x2E5B JUMPI RETURNDATASIZE PUSH1 0x0 DUP1 RETURNDATACOPY RETURNDATASIZE PUSH1 0x0 REVERT JUMPDEST POP POP POP POP PUSH1 0x40 MLOAD RETURNDATASIZE PUSH1 0x20 DUP2 LT ISZERO PUSH2 0x2E71 JUMPI PUSH1 0x0 DUP1 REVERT JUMPDEST POP MLOAD SWAP1 PUSH4 0xFFFFFFFF PUSH2 0x392C AND JUMP JUMPDEST PUSH1 0x40 MLOAD DUP5 PUSH4 0xFFFFFFFF AND PUSH1 0xE0 SHL DUP2 MSTORE PUSH1 0x4 ADD DUP1 DUP5 PUSH1 0x1 PUSH1 0x1 PUSH1 0xA0 SHL SUB AND PUSH1 0x1 PUSH1 0x1 PUSH1 0xA0 SHL SUB AND DUP2 MSTORE PUSH1 0x20 ADD DUP4 PUSH1 0x1 PUSH1 0x1 PUSH1 0xA0 SHL SUB AND PUSH1 0x1 PUSH1 0x1 PUSH1 0xA0 SHL SUB AND DUP2 MSTORE PUSH1 0x20 ADD DUP3 DUP2 MSTORE PUSH1 0x20 ADD SWAP4 POP POP POP POP PUSH1 0x0 PUSH1 0x40 MLOAD DUP1 DUP4 SUB DUP2 PUSH1 0x0 DUP8 DUP1 PUSH2 0x2EE2 PUSH2 0x3DFE JUMP JUMPDEST ISZERO DUP1 ISZERO PUSH2 0x2EEE JUMPI PUSH1 0x0 DUP1 REVERT JUMPDEST POP GAS PUSH2 0x2EF8 PUSH2 0x3E2F JUMP JUMPDEST POP POP POP POP POP POP ISZERO DUP1 ISZERO PUSH2 0x2F0F JUMPI RETURNDATASIZE PUSH1 0x0 DUP1 RETURNDATACOPY RETURNDATASIZE PUSH1 0x0 REVERT JUMPDEST POP POP POP POP JUMPDEST PUSH2 0xE0A DUP5 DUP5 DUP5 PUSH2 0x361F JUMP JUMPDEST PUSH1 0x0 PUSH2 0x2F6A PUSH7 0x119959541BDBDB PUSH1 0xCA SHL PUSH1 0x40 MLOAD DUP1 PUSH1 0x40 ADD PUSH1 0x40 MSTORE DUP1 PUSH1 0x17 DUP2 MSTORE PUSH1 0x20 ADD PUSH32 0x4D697373696E6720466565506F6F6C2061646472657373000000000000000000 DUP2 MSTORE POP PUSH2 0x39E1 JUMP JUMPDEST SWAP1 POP SWAP1 JUMP JUMPDEST PUSH1 0x0 PUSH2 0x2F6A PUSH9 0x22BC31B430B733B2B9 PUSH1 0xB9 SHL PUSH1 0x40 MLOAD DUP1 PUSH1 0x40 ADD PUSH1 0x40 MSTORE DUP1 PUSH1 0x19 DUP2 MSTORE PUSH1 0x20 ADD PUSH32 0x4D697373696E672045786368616E676572206164647265737300000000000000 DUP2 MSTORE POP PUSH2 0x39E1 JUMP JUMPDEST PUSH1 0x0 PUSH2 0x2F6A PUSH6 0x24B9B9BAB2B9 PUSH1 0xD1 SHL PUSH1 0x40 MLOAD DUP1 PUSH1 0x40 ADD PUSH1 0x40 MSTORE DUP1 PUSH1 0x16 DUP2 MSTORE PUSH1 0x20 ADD PUSH22 0x4D697373696E67204973737565722061646472657373 PUSH1 0x50 SHL DUP2 MSTORE POP PUSH2 0x39E1 JUMP JUMPDEST PUSH1 0x0 PUSH1 0x7 PUSH2 0x300B PUSH2 0x3D6B JUMP JUMPDEST PUSH1 0x1 PUSH1 0x1 PUSH1 0xA0 SHL SUB PUSH2 0x100 SWAP3 SWAP1 SWAP3 EXP SWAP1 DIV AND PUSH4 0xB46310F6 DUP4 PUSH2 0x30E3 DUP5 PUSH1 0x0 PUSH1 0x7 PUSH2 0x3033 PUSH2 0x3D6B JUMP JUMPDEST SWAP1 PUSH2 0x100 EXP SWAP1 DIV PUSH1 0x1 PUSH1 0x1 PUSH1 0xA0 SHL SUB AND PUSH1 0x1 PUSH1 0x1 PUSH1 0xA0 SHL SUB AND PUSH4 0x70A08231 DUP9 PUSH1 0x40 MLOAD DUP3 PUSH4 0xFFFFFFFF AND PUSH1 0xE0 SHL DUP2 MSTORE PUSH1 0x4 ADD DUP1 DUP3 PUSH1 0x1 PUSH1 0x1 PUSH1 0xA0 SHL SUB AND PUSH1 0x1 PUSH1 0x1 PUSH1 0xA0 SHL SUB AND DUP2 MSTORE PUSH1 0x20 ADD SWAP2 POP POP PUSH1 0x20 PUSH1 0x40 MLOAD DUP1 DUP4 SUB DUP2 DUP7 DUP1 PUSH2 0x3093 PUSH2 0x3DFE JUMP JUMPDEST ISZERO DUP1 ISZERO PUSH2 0x309F JUMPI PUSH1 0x0 DUP1 REVERT JUMPDEST POP GAS PUSH2 0x30A9 PUSH2 0x3E86 JUMP JUMPDEST POP POP POP POP POP ISZERO DUP1 ISZERO PUSH2 0x30BF JUMPI RETURNDATASIZE PUSH1 0x0 DUP1 RETURNDATACOPY RETURNDATASIZE PUSH1 0x0 REVERT JUMPDEST POP POP POP POP PUSH1 0x40 MLOAD RETURNDATASIZE PUSH1 0x20 DUP2 LT ISZERO PUSH2 0x30D5 JUMPI PUSH1 0x0 DUP1 REVERT JUMPDEST POP MLOAD SWAP1 PUSH4 0xFFFFFFFF PUSH2 0x3AA1 AND JUMP JUMPDEST PUSH1 0x40 MLOAD DUP4 PUSH4 0xFFFFFFFF AND PUSH1 0xE0 SHL DUP2 MSTORE PUSH1 0x4 ADD DUP1 DUP4 PUSH1 0x1 PUSH1 0x1 PUSH1 0xA0 SHL SUB AND PUSH1 0x1 PUSH1 0x1 PUSH1 0xA0 SHL SUB AND DUP2 MSTORE PUSH1 0x20 ADD DUP3 DUP2 MSTORE PUSH1 0x20 ADD SWAP3 POP POP POP PUSH1 0x0 PUSH1 0x40 MLOAD DUP1 DUP4 SUB DUP2 PUSH1 0x0 DUP8 DUP1 PUSH2 0x312D PUSH2 0x3DFE JUMP JUMPDEST ISZERO DUP1 ISZERO PUSH2 0x3139 JUMPI PUSH1 0x0 DUP1 REVERT JUMPDEST POP GAS PUSH2 0x3143 PUSH2 0x3E2F JUMP JUMPDEST POP POP POP POP POP POP ISZERO DUP1 ISZERO PUSH2 0x315A JUMPI RETURNDATASIZE PUSH1 0x0 DUP1 RETURNDATACOPY RETURNDATASIZE PUSH1 0x0 REVERT JUMPDEST POP POP POP POP PUSH2 0x3178 DUP2 PUSH1 0xA PUSH2 0x316C PUSH2 0x3D6B JUMP JUMPDEST SWAP1 PUSH4 0xFFFFFFFF PUSH2 0x3AA1 AND JUMP JUMPDEST DUP1 PUSH1 0xA PUSH2 0x3183 PUSH2 0x3DC7 JUMP JUMPDEST POP POP POP PUSH2 0x3192 PUSH1 0x0 DUP4 DUP4 PUSH2 0x3AFB JUMP JUMPDEST PUSH2 0x1112 DUP3 DUP3 PUSH2 0x3B69 JUMP JUMPDEST PUSH1 0x0 DUP1 PUSH1 0x7 PUSH2 0x31A9 PUSH2 0x3D6B JUMP JUMPDEST PUSH1 0x1 PUSH1 0x1 PUSH1 0xA0 SHL SUB PUSH2 0x100 SWAP3 SWAP1 SWAP3 EXP SWAP1 DIV AND PUSH4 0xB46310F6 DUP5 PUSH2 0x3231 DUP6 PUSH1 0x0 PUSH1 0x7 PUSH2 0x31D1 PUSH2 0x3D6B JUMP JUMPDEST SWAP1 PUSH2 0x100 EXP SWAP1 DIV PUSH1 0x1 PUSH1 0x1 PUSH1 0xA0 SHL SUB AND PUSH1 0x1 PUSH1 0x1 PUSH1 0xA0 SHL SUB AND PUSH4 0x70A08231 DUP10 PUSH1 0x40 MLOAD DUP3 PUSH4 0xFFFFFFFF AND PUSH1 0xE0 SHL DUP2 MSTORE PUSH1 0x4 ADD DUP1 DUP3 PUSH1 0x1 PUSH1 0x1 PUSH1 0xA0 SHL SUB AND PUSH1 0x1 PUSH1 0x1 PUSH1 0xA0 SHL SUB AND DUP2 MSTORE PUSH1 0x20 ADD SWAP2 POP POP PUSH1 0x20 PUSH1 0x40 MLOAD DUP1 DUP4 SUB DUP2 DUP7 DUP1 PUSH2 0x2E2F PUSH2 0x3DFE JUMP JUMPDEST PUSH1 0x40 MLOAD DUP4 PUSH4 0xFFFFFFFF AND PUSH1 0xE0 SHL DUP2 MSTORE PUSH1 0x4 ADD DUP1 DUP4 PUSH1 0x1 PUSH1 0x1 PUSH1 0xA0 SHL SUB AND PUSH1 0x1 PUSH1 0x1 PUSH1 0xA0 SHL SUB AND DUP2 MSTORE PUSH1 0x20 ADD DUP3 DUP2 MSTORE PUSH1 0x20 ADD SWAP3 POP POP POP PUSH1 0x0 PUSH1 0x40 MLOAD DUP1 DUP4 SUB DUP2 PUSH1 0x0 DUP8 DUP1 PUSH2 0x327B PUSH2 0x3DFE JUMP JUMPDEST ISZERO DUP1 ISZERO PUSH2 0x3287 JUMPI PUSH1 0x0 DUP1 REVERT JUMPDEST POP GAS PUSH2 0x3291 PUSH2 0x3E2F JUMP JUMPDEST POP POP POP POP POP POP ISZERO DUP1 ISZERO PUSH2 0x32A8 JUMPI RETURNDATASIZE PUSH1 0x0 DUP1 RETURNDATACOPY RETURNDATASIZE PUSH1 0x0 REVERT JUMPDEST POP POP POP POP PUSH2 0x32C6 DUP3 PUSH1 0xA PUSH2 0x32BA PUSH2 0x3D6B JUMP JUMPDEST SWAP1 PUSH4 0xFFFFFFFF PUSH2 0x392C AND JUMP JUMPDEST DUP1 PUSH1 0xA PUSH2 0x32D1 PUSH2 0x3DC7 JUMP JUMPDEST POP POP POP PUSH2 0x32E0 DUP4 PUSH1 0x0 DUP5 PUSH2 0x3AFB JUMP JUMPDEST PUSH2 0x32EA DUP4 DUP4 PUSH2 0x3CE0 JUMP JUMPDEST POP PUSH1 0x1 SWAP3 SWAP2 POP POP JUMP JUMPDEST PUSH1 0x0 PUSH1 0x4 PUSH2 0x32FF PUSH2 0x3D6B JUMP JUMPDEST PUSH1 0x40 DUP1 MLOAD PUSH1 0x1 PUSH1 0x1 PUSH1 0xA0 SHL SUB DUP6 DUP2 AND PUSH1 0x20 DUP1 DUP5 ADD SWAP2 SWAP1 SWAP2 MSTORE DUP4 MLOAD DUP1 DUP5 SUB DUP3 ADD DUP2 MSTORE DUP4 DUP6 ADD DUP1 DUP7 MSTORE PUSH32 0x546F6B656E537461746555706461746564286164647265737329000000000000 SWAP1 MSTORE SWAP4 MLOAD SWAP3 DUP4 SWAP1 SUB PUSH1 0x5A ADD DUP4 KECCAK256 PUSH4 0x907DFF97 PUSH1 0xE0 SHL DUP5 MSTORE PUSH1 0x1 PUSH1 0x24 DUP6 ADD DUP2 SWAP1 MSTORE PUSH1 0x44 DUP6 ADD DUP3 SWAP1 MSTORE PUSH1 0x0 PUSH1 0x64 DUP7 ADD DUP2 SWAP1 MSTORE PUSH1 0x84 DUP7 ADD DUP2 SWAP1 MSTORE PUSH1 0xA4 DUP7 ADD DUP2 SWAP1 MSTORE PUSH1 0xC0 PUSH1 0x4 DUP8 ADD SWAP1 DUP2 MSTORE DUP8 MLOAD PUSH1 0xC4 DUP9 ADD MSTORE DUP8 MLOAD PUSH2 0x100 SWAP11 SWAP1 SWAP11 EXP SWAP1 SWAP9 DIV SWAP5 SWAP1 SWAP5 AND SWAP8 PUSH4 0x907DFF97 SWAP8 SWAP2 SWAP6 SWAP3 SWAP5 SWAP4 DUP5 SWAP4 DUP5 SWAP4 SWAP3 DUP4 SWAP3 PUSH1 0xE4 SWAP1 SWAP3 ADD SWAP2 DUP11 ADD SWAP1 DUP1 DUP4 DUP4 DUP9 JUMPDEST DUP4 DUP2 LT ISZERO PUSH2 0x33DE JUMPI DUP2 DUP2 ADD MLOAD DUP4 DUP3 ADD MSTORE PUSH1 0x20 ADD PUSH2 0x33C6 JUMP JUMPDEST POP POP POP POP SWAP1 POP SWAP1 DUP2 ADD SWAP1 PUSH1 0x1F AND DUP1 ISZERO PUSH2 0x340B JUMPI DUP1 DUP3 SUB DUP1 MLOAD PUSH1 0x1 DUP4 PUSH1 0x20 SUB PUSH2 0x100 EXP SUB NOT AND DUP2 MSTORE PUSH1 0x20 ADD SWAP2 POP JUMPDEST POP SWAP8 POP POP POP POP POP POP POP POP PUSH1 0x0 PUSH1 0x40 MLOAD DUP1 DUP4 SUB DUP2 PUSH1 0x0 DUP8 DUP1 PUSH2 0x342A PUSH2 0x3DFE JUMP JUMPDEST ISZERO DUP1 ISZERO PUSH2 0x3436 JUMPI PUSH1 0x0 DUP1 REVERT JUMPDEST POP GAS PUSH2 0x3440 PUSH2 0x3E2F JUMP JUMPDEST POP POP POP POP POP POP ISZERO DUP1 ISZERO PUSH2 0x15CB JUMPI RETURNDATASIZE PUSH1 0x0 DUP1 RETURNDATACOPY RETURNDATASIZE PUSH1 0x0 REVERT JUMPDEST PUSH1 0x0 DUP1 PUSH1 0xE PUSH2 0x3464 PUSH2 0x3D6B JUMP JUMPDEST PUSH4 0x1CD554D1 PUSH1 0xE2 SHL EQ ISZERO PUSH2 0x34A0 JUMPI POP DUP2 PUSH2 0x349A PUSH1 0x0 PUSH1 0x6 PUSH2 0x3483 PUSH2 0x3D6B JUMP JUMPDEST SWAP1 PUSH2 0x100 EXP SWAP1 DIV PUSH1 0x1 PUSH1 0x1 PUSH1 0xA0 SHL SUB AND DUP6 DUP6 PUSH2 0x361F JUMP JUMPDEST POP PUSH2 0x359C JUMP JUMPDEST PUSH2 0x34A8 PUSH2 0x2F6F JUMP JUMPDEST PUSH1 0x1 PUSH1 0x1 PUSH1 0xA0 SHL SUB AND PUSH4 0xA1E187D PUSH1 0x0 PUSH1 0x6 PUSH2 0x34C2 PUSH2 0x3D6B JUMP JUMPDEST SWAP1 PUSH2 0x100 EXP SWAP1 DIV PUSH1 0x1 PUSH1 0x1 PUSH1 0xA0 SHL SUB AND PUSH1 0xE PUSH2 0x34DC PUSH2 0x3D6B JUMP JUMPDEST PUSH1 0x40 DUP1 MLOAD PUSH1 0x1 PUSH1 0x1 PUSH1 0xE0 SHL SUB NOT PUSH1 0xE0 DUP7 SWAP1 SHL AND DUP2 MSTORE PUSH1 0x1 PUSH1 0x1 PUSH1 0xA0 SHL SUB SWAP1 SWAP4 AND PUSH1 0x4 DUP5 ADD MSTORE PUSH1 0x24 DUP4 ADD SWAP2 SWAP1 SWAP2 MSTORE PUSH1 0x44 DUP3 ADD DUP8 SWAP1 MSTORE PUSH4 0x1CD554D1 PUSH1 0xE2 SHL PUSH1 0x64 DUP4 ADD MSTORE PUSH20 0xFEEFEEFEEFEEFEEFEEFEEFEEFEEFEEFEEFEEFEEF PUSH1 0x84 DUP4 ADD MSTORE MLOAD PUSH1 0xA4 DUP1 DUP4 ADD SWAP3 PUSH1 0x20 SWAP3 SWAP2 SWAP1 DUP3 SWAP1 SUB ADD DUP2 PUSH1 0x0 DUP8 DUP1 PUSH2 0x3554 PUSH2 0x3DFE JUMP JUMPDEST ISZERO DUP1 ISZERO PUSH2 0x3560 JUMPI PUSH1 0x0 DUP1 REVERT JUMPDEST POP GAS PUSH2 0x356A PUSH2 0x3E2F JUMP JUMPDEST POP POP POP POP POP POP ISZERO DUP1 ISZERO PUSH2 0x3581 JUMPI RETURNDATASIZE PUSH1 0x0 DUP1 RETURNDATACOPY RETURNDATASIZE PUSH1 0x0 REVERT JUMPDEST POP POP POP POP PUSH1 0x40 MLOAD RETURNDATASIZE PUSH1 0x20 DUP2 LT ISZERO PUSH2 0x3597 JUMPI PUSH1 0x0 DUP1 REVERT JUMPDEST POP MLOAD SWAP1 POP JUMPDEST PUSH2 0x35A4 PUSH2 0x2F1F JUMP JUMPDEST PUSH1 0x1 PUSH1 0x1 PUSH1 0xA0 SHL SUB AND PUSH4 0x22BF55EF DUP3 PUSH1 0x40 MLOAD DUP3 PUSH4 0xFFFFFFFF AND PUSH1 0xE0 SHL DUP2 MSTORE PUSH1 0x4 ADD DUP1 DUP3 DUP2 MSTORE PUSH1 0x20 ADD SWAP2 POP POP PUSH1 0x0 PUSH1 0x40 MLOAD DUP1 DUP4 SUB DUP2 PUSH1 0x0 DUP8 DUP1 PUSH2 0x35E4 PUSH2 0x3DFE JUMP JUMPDEST ISZERO DUP1 ISZERO PUSH2 0x35F0 JUMPI PUSH1 0x0 DUP1 REVERT JUMPDEST POP GAS PUSH2 0x35FA PUSH2 0x3E2F JUMP JUMPDEST POP POP POP POP POP POP ISZERO DUP1 ISZERO PUSH2 0x3611 JUMPI RETURNDATASIZE PUSH1 0x0 DUP1 RETURNDATACOPY RETURNDATASIZE PUSH1 0x0 REVERT JUMPDEST POP PUSH1 0x1 SWAP8 SWAP7 POP POP POP POP POP POP POP JUMP JUMPDEST PUSH1 0x0 PUSH1 0x1 PUSH1 0x1 PUSH1 0xA0 SHL SUB DUP4 AND ISZERO DUP1 ISZERO SWAP1 PUSH2 0x366E JUMPI POP GAS PUSH4 0x996D79A5 PUSH3 0x80000 DUP2 PUSH1 0xE0 SHL DUP2 MSTORE PUSH1 0x20 DUP2 PUSH1 0x4 DUP4 PUSH1 0x0 CALLER GAS CALL DUP1 PUSH2 0x3659 JUMPI PUSH1 0x0 DUP1 REVERT JUMPDEST POP MLOAD PUSH1 0x1 PUSH1 0x1 PUSH1 0xA0 SHL SUB DUP7 DUP2 AND SWAP2 AND EQ ISZERO SWAP2 POP POP JUMPDEST DUP1 ISZERO PUSH2 0x36A7 JUMPI POP PUSH1 0x0 PUSH1 0x4 PUSH2 0x3681 PUSH2 0x3D6B JUMP JUMPDEST SWAP1 PUSH2 0x100 EXP SWAP1 DIV PUSH1 0x1 PUSH1 0x1 PUSH1 0xA0 SHL SUB AND PUSH1 0x1 PUSH1 0x1 PUSH1 0xA0 SHL SUB AND DUP4 PUSH1 0x1 PUSH1 0x1 PUSH1 0xA0 SHL SUB AND EQ ISZERO JUMPDEST PUSH2 0x36F8 JUMPI PUSH1 0x40 DUP1 MLOAD PUSH3 0x461BCD PUSH1 0xE5 SHL DUP2 MSTORE PUSH1 0x20 PUSH1 0x4 DUP3 ADD MSTORE PUSH1 0x1F PUSH1 0x24 DUP3 ADD MSTORE PUSH32 0x43616E6E6F74207472616E7366657220746F2074686973206164647265737300 PUSH1 0x44 DUP3 ADD MSTORE SWAP1 MLOAD SWAP1 DUP2 SWAP1 SUB PUSH1 0x64 ADD SWAP1 REVERT JUMPDEST PUSH1 0x0 PUSH1 0x7 PUSH2 0x3704 PUSH2 0x3D6B JUMP JUMPDEST PUSH1 0x1 PUSH1 0x1 PUSH1 0xA0 SHL SUB PUSH2 0x100 SWAP3 SWAP1 SWAP3 EXP SWAP1 DIV AND PUSH4 0xB46310F6 DUP6 PUSH2 0x378C DUP6 PUSH1 0x0 PUSH1 0x7 PUSH2 0x372C PUSH2 0x3D6B JUMP JUMPDEST SWAP1 PUSH2 0x100 EXP SWAP1 DIV PUSH1 0x1 PUSH1 0x1 PUSH1 0xA0 SHL SUB AND PUSH1 0x1 PUSH1 0x1 PUSH1 0xA0 SHL SUB AND PUSH4 0x70A08231 DUP11 PUSH1 0x40 MLOAD DUP3 PUSH4 0xFFFFFFFF AND PUSH1 0xE0 SHL DUP2 MSTORE PUSH1 0x4 ADD DUP1 DUP3 PUSH1 0x1 PUSH1 0x1 PUSH1 0xA0 SHL SUB AND PUSH1 0x1 PUSH1 0x1 PUSH1 0xA0 SHL SUB AND DUP2 MSTORE PUSH1 0x20 ADD SWAP2 POP POP PUSH1 0x20 PUSH1 0x40 MLOAD DUP1 DUP4 SUB DUP2 DUP7 DUP1 PUSH2 0x2E2F PUSH2 0x3DFE JUMP JUMPDEST PUSH1 0x40 MLOAD DUP4 PUSH4 0xFFFFFFFF AND PUSH1 0xE0 SHL DUP2 MSTORE PUSH1 0x4 ADD DUP1 DUP4 PUSH1 0x1 PUSH1 0x1 PUSH1 0xA0 SHL SUB AND PUSH1 0x1 PUSH1 0x1 PUSH1 0xA0 SHL SUB AND DUP2 MSTORE PUSH1 0x20 ADD DUP3 DUP2 MSTORE PUSH1 0x20 ADD SWAP3 POP POP POP PUSH1 0x0 PUSH1 0x40 MLOAD DUP1 DUP4 SUB DUP2 PUSH1 0x0 DUP8 DUP1 PUSH2 0x37D6 PUSH2 0x3DFE JUMP JUMPDEST ISZERO DUP1 ISZERO PUSH2 0x37E2 JUMPI PUSH1 0x0 DUP1 REVERT JUMPDEST POP GAS PUSH2 0x37EC PUSH2 0x3E2F JUMP JUMPDEST POP POP POP POP POP POP ISZERO DUP1 ISZERO PUSH2 0x3803 JUMPI RETURNDATASIZE PUSH1 0x0 DUP1 RETURNDATACOPY RETURNDATASIZE PUSH1 0x0 REVERT JUMPDEST POP POP POP POP PUSH1 0x7 PUSH1 0x0 SWAP1 PUSH2 0x3814 PUSH2 0x3D6B JUMP JUMPDEST PUSH1 0x1 PUSH1 0x1 PUSH1 0xA0 SHL SUB PUSH2 0x100 SWAP3 SWAP1 SWAP3 EXP SWAP1 DIV AND PUSH4 0xB46310F6 DUP5 PUSH2 0x389C DUP6 PUSH1 0x0 PUSH1 0x7 PUSH2 0x383C PUSH2 0x3D6B JUMP JUMPDEST SWAP1 PUSH2 0x100 EXP SWAP1 DIV PUSH1 0x1 PUSH1 0x1 PUSH1 0xA0 SHL SUB AND PUSH1 0x1 PUSH1 0x1 PUSH1 0xA0 SHL SUB AND PUSH4 0x70A08231 DUP10 PUSH1 0x40 MLOAD DUP3 PUSH4 0xFFFFFFFF AND PUSH1 0xE0 SHL DUP2 MSTORE PUSH1 0x4 ADD DUP1 DUP3 PUSH1 0x1 PUSH1 0x1 PUSH1 0xA0 SHL SUB AND PUSH1 0x1 PUSH1 0x1 PUSH1 0xA0 SHL SUB AND DUP2 MSTORE PUSH1 0x20 ADD SWAP2 POP POP PUSH1 0x20 PUSH1 0x40 MLOAD DUP1 DUP4 SUB DUP2 DUP7 DUP1 PUSH2 0x3093 PUSH2 0x3DFE JUMP JUMPDEST PUSH1 0x40 MLOAD DUP4 PUSH4 0xFFFFFFFF AND PUSH1 0xE0 SHL DUP2 MSTORE PUSH1 0x4 ADD DUP1 DUP4 PUSH1 0x1 PUSH1 0x1 PUSH1 0xA0 SHL SUB AND PUSH1 0x1 PUSH1 0x1 PUSH1 0xA0 SHL SUB AND DUP2 MSTORE PUSH1 0x20 ADD DUP3 DUP2 MSTORE PUSH1 0x20 ADD SWAP3 POP POP POP PUSH1 0x0 PUSH1 0x40 MLOAD DUP1 DUP4 SUB DUP2 PUSH1 0x0 DUP8 DUP1 PUSH2 0x38E6 PUSH2 0x3DFE JUMP JUMPDEST ISZERO DUP1 ISZERO PUSH2 0x38F2 JUMPI PUSH1 0x0 DUP1 REVERT JUMPDEST POP GAS PUSH2 0x38FC PUSH2 0x3E2F JUMP JUMPDEST POP POP POP POP POP POP ISZERO DUP1 ISZERO PUSH2 0x3913 JUMPI RETURNDATASIZE PUSH1 0x0 DUP1 RETURNDATACOPY RETURNDATASIZE PUSH1 0x0 REVERT JUMPDEST POP POP POP POP PUSH2 0x3922 DUP5 DUP5 DUP5 PUSH2 0x3AFB JUMP JUMPDEST POP PUSH1 0x1 SWAP4 SWAP3 POP POP POP JUMP JUMPDEST PUSH1 0x0 DUP3 DUP3 GT ISZERO PUSH2 0x3983 JUMPI PUSH1 0x40 DUP1 MLOAD PUSH3 0x461BCD PUSH1 0xE5 SHL DUP2 MSTORE PUSH1 0x20 PUSH1 0x4 DUP3 ADD MSTORE PUSH1 0x1E PUSH1 0x24 DUP3 ADD MSTORE PUSH32 0x536166654D6174683A207375627472616374696F6E206F766572666C6F770000 PUSH1 0x44 DUP3 ADD MSTORE SWAP1 MLOAD SWAP1 DUP2 SWAP1 SUB PUSH1 0x64 ADD SWAP1 REVERT JUMPDEST POP SWAP1 SUB SWAP1 JUMP JUMPDEST PUSH1 0x1 PUSH1 0x1 PUSH1 0xA0 SHL SUB AND SWAP1 JUMP JUMPDEST PUSH1 0x0 PUSH2 0x2F6A PUSH12 0x53797374656D537461747573 PUSH1 0xA0 SHL PUSH1 0x40 MLOAD DUP1 PUSH1 0x40 ADD PUSH1 0x40 MSTORE DUP1 PUSH1 0x1C DUP2 MSTORE PUSH1 0x20 ADD PUSH32 0x4D697373696E672053797374656D537461747573206164647265737300000000 DUP2 MSTORE POP JUMPDEST PUSH1 0x0 DUP3 DUP2 MSTORE PUSH1 0xC PUSH1 0x20 MSTORE PUSH1 0x40 DUP2 KECCAK256 DUP2 SWAP1 DUP2 SWAP1 PUSH2 0x39FB PUSH2 0x3D6B JUMP JUMPDEST PUSH1 0x1 PUSH1 0x1 PUSH1 0xA0 SHL SUB PUSH2 0x100 SWAP3 SWAP1 SWAP3 EXP SWAP1 DIV AND SWAP1 POP DUP3 DUP2 PUSH2 0x3A99 JUMPI PUSH1 0x40 MLOAD PUSH3 0x461BCD PUSH1 0xE5 SHL DUP2 MSTORE PUSH1 0x4 ADD DUP1 DUP1 PUSH1 0x20 ADD DUP3 DUP2 SUB DUP3 MSTORE DUP4 DUP2 DUP2 MLOAD DUP2 MSTORE PUSH1 0x20 ADD SWAP2 POP DUP1 MLOAD SWAP1 PUSH1 0x20 ADD SWAP1 DUP1 DUP4 DUP4 PUSH1 0x0 JUMPDEST DUP4 DUP2 LT ISZERO PUSH2 0x3A5E JUMPI DUP2 DUP2 ADD MLOAD DUP4 DUP3 ADD MSTORE PUSH1 0x20 ADD PUSH2 0x3A46 JUMP JUMPDEST POP POP POP POP SWAP1 POP SWAP1 DUP2 ADD SWAP1 PUSH1 0x1F AND DUP1 ISZERO PUSH2 0x3A8B JUMPI DUP1 DUP3 SUB DUP1 MLOAD PUSH1 0x1 DUP4 PUSH1 0x20 SUB PUSH2 0x100 EXP SUB NOT AND DUP2 MSTORE PUSH1 0x20 ADD SWAP2 POP JUMPDEST POP SWAP3 POP POP POP PUSH1 0x40 MLOAD DUP1 SWAP2 SUB SWAP1 REVERT JUMPDEST POP SWAP4 SWAP3 POP POP POP JUMP JUMPDEST PUSH1 0x0 DUP3 DUP3 ADD DUP4 DUP2 LT ISZERO PUSH2 0x1D5C JUMPI PUSH1 0x40 DUP1 MLOAD PUSH3 0x461BCD PUSH1 0xE5 SHL DUP2 MSTORE PUSH1 0x20 PUSH1 0x4 DUP3 ADD MSTORE PUSH1 0x1B PUSH1 0x24 DUP3 ADD MSTORE PUSH32 0x536166654D6174683A206164646974696F6E206F766572666C6F770000000000 PUSH1 0x44 DUP3 ADD MSTORE SWAP1 MLOAD SWAP1 DUP2 SWAP1 SUB PUSH1 0x64 ADD SWAP1 REVERT JUMPDEST PUSH1 0x0 PUSH1 0x4 PUSH2 0x3B07 PUSH2 0x3D6B JUMP JUMPDEST SWAP1 PUSH2 0x100 EXP SWAP1 DIV PUSH1 0x1 PUSH1 0x1 PUSH1 0xA0 SHL SUB AND PUSH1 0x1 PUSH1 0x1 PUSH1 0xA0 SHL SUB AND PUSH4 0x907DFF97 DUP3 PUSH1 0x40 MLOAD PUSH1 0x20 ADD DUP1 DUP3 DUP2 MSTORE PUSH1 0x20 ADD SWAP2 POP POP PUSH1 0x40 MLOAD PUSH1 0x20 DUP2 DUP4 SUB SUB DUP2 MSTORE SWAP1 PUSH1 0x40 MSTORE PUSH1 0x3 PUSH1 0x40 MLOAD DUP1 DUP1 PUSH2 0x402D PUSH1 0x21 SWAP2 CODECOPY PUSH1 0x21 ADD SWAP1 POP PUSH1 0x40 MLOAD DUP1 SWAP2 SUB SWAP1 KECCAK256 PUSH2 0x29C4 DUP9 PUSH2 0x3989 JUMP JUMPDEST PUSH1 0x0 PUSH1 0x4 PUSH2 0x3B75 PUSH2 0x3D6B JUMP JUMPDEST SWAP1 PUSH2 0x100 EXP SWAP1 DIV PUSH1 0x1 PUSH1 0x1 PUSH1 0xA0 SHL SUB AND PUSH1 0x1 PUSH1 0x1 PUSH1 0xA0 SHL SUB AND PUSH4 0x907DFF97 DUP3 PUSH1 0x40 MLOAD PUSH1 0x20 ADD DUP1 DUP3 DUP2 MSTORE PUSH1 0x20 ADD SWAP2 POP POP PUSH1 0x40 MLOAD PUSH1 0x20 DUP2 DUP4 SUB SUB DUP2 MSTORE SWAP1 PUSH1 0x40 MSTORE PUSH1 0x2 PUSH1 0x40 MLOAD DUP1 DUP1 PUSH32 0x49737375656428616464726573732C75696E7432353629000000000000000000 DUP2 MSTORE POP PUSH1 0x17 ADD SWAP1 POP PUSH1 0x40 MLOAD DUP1 SWAP2 SUB SWAP1 KECCAK256 PUSH2 0x3BF4 DUP8 PUSH2 0x3989 JUMP JUMPDEST PUSH1 0x0 DUP1 PUSH1 0x40 MLOAD DUP8 PUSH4 0xFFFFFFFF AND PUSH1 0xE0 SHL DUP2 MSTORE PUSH1 0x4 ADD DUP1 DUP1 PUSH1 0x20 ADD DUP8 DUP2 MSTORE PUSH1 0x20 ADD DUP7 DUP2 MSTORE PUSH1 0x20 ADD DUP6 DUP2 MSTORE PUSH1 0x20 ADD DUP5 PUSH1 0x0 SHL DUP2 MSTORE PUSH1 0x20 ADD DUP4 PUSH1 0x0 SHL DUP2 MSTORE PUSH1 0x20 ADD DUP3 DUP2 SUB DUP3 MSTORE DUP9 DUP2 DUP2 MLOAD DUP2 MSTORE PUSH1 0x20 ADD SWAP2 POP DUP1 MLOAD SWAP1 PUSH1 0x20 ADD SWAP1 DUP1 DUP4 DUP4 PUSH1 0x0 JUMPDEST DUP4 DUP2 LT ISZERO PUSH2 0x3C67 JUMPI DUP2 DUP2 ADD MLOAD DUP4 DUP3 ADD MSTORE PUSH1 0x20 ADD PUSH2 0x3C4F JUMP JUMPDEST POP POP POP POP SWAP1 POP SWAP1 DUP2 ADD SWAP1 PUSH1 0x1F AND DUP1 ISZERO PUSH2 0x3C94 JUMPI DUP1 DUP3 SUB DUP1 MLOAD PUSH1 0x1 DUP4 PUSH1 0x20 SUB PUSH2 0x100 EXP SUB NOT AND DUP2 MSTORE PUSH1 0x20 ADD SWAP2 POP JUMPDEST POP SWAP8 POP POP POP POP POP POP POP POP PUSH1 0x0 PUSH1 0x40 MLOAD DUP1 DUP4 SUB DUP2 PUSH1 0x0 DUP8 DUP1 PUSH2 0x3CB3 PUSH2 0x3DFE JUMP JUMPDEST ISZERO DUP1 ISZERO PUSH2 0x3CBF JUMPI PUSH1 0x0 DUP1 REVERT JUMPDEST POP GAS PUSH2 0x3CC9 PUSH2 0x3E2F JUMP JUMPDEST POP POP POP POP POP POP ISZERO DUP1 ISZERO PUSH2 0x19D7 JUMPI RETURNDATASIZE PUSH1 0x0 DUP1 RETURNDATACOPY RETURNDATASIZE PUSH1 0x0 REVERT JUMPDEST PUSH1 0x0 PUSH1 0x4 PUSH2 0x3CEC PUSH2 0x3D6B JUMP JUMPDEST SWAP1 PUSH2 0x100 EXP SWAP1 DIV PUSH1 0x1 PUSH1 0x1 PUSH1 0xA0 SHL SUB AND PUSH1 0x1 PUSH1 0x1 PUSH1 0xA0 SHL SUB AND PUSH4 0x907DFF97 DUP3 PUSH1 0x40 MLOAD PUSH1 0x20 ADD DUP1 DUP3 DUP2 MSTORE PUSH1 0x20 ADD SWAP2 POP POP PUSH1 0x40 MLOAD PUSH1 0x20 DUP2 DUP4 SUB SUB DUP2 MSTORE SWAP1 PUSH1 0x40 MSTORE PUSH1 0x2 PUSH1 0x40 MLOAD DUP1 DUP1 PUSH32 0x4275726E656428616464726573732C75696E7432353629000000000000000000 DUP2 MSTORE POP PUSH1 0x17 ADD SWAP1 POP PUSH1 0x40 MLOAD DUP1 SWAP2 SUB SWAP1 KECCAK256 PUSH2 0x3BF4 DUP8 PUSH2 0x3989 JUMP JUMPDEST PUSH4 0x412CC41 PUSH1 0xE3 SHL PUSH3 0x80000 SWAP1 DUP2 MSTORE PUSH3 0x80004 DUP4 SWAP1 MSTORE PUSH4 0x20966208 SWAP1 PUSH1 0x20 DUP2 PUSH1 0x24 DUP2 PUSH1 0x0 CALLER GAS CALL DUP1 PUSH2 0x3D9C JUMPI PUSH1 0x0 DUP1 REVERT JUMPDEST POP MLOAD SWAP3 POP POP JUMP JUMPDEST PUSH4 0x73509064 PUSH3 0x80000 DUP2 PUSH1 0xE0 SHL DUP2 MSTORE PUSH1 0x20 DUP2 PUSH1 0x4 DUP4 PUSH1 0x0 CALLER GAS CALL DUP1 PUSH2 0x3D9C JUMPI PUSH1 0x0 DUP1 REVERT JUMPDEST PUSH4 0x146E595 PUSH1 0xE5 SHL PUSH3 0x80000 SWAP1 DUP2 MSTORE PUSH3 0x80004 DUP4 SWAP1 MSTORE PUSH3 0x80024 DUP5 SWAP1 MSTORE PUSH4 0x28DCB2A0 SWAP1 PUSH1 0x0 DUP2 PUSH1 0x44 DUP2 DUP4 CALLER GAS CALL DUP1 PUSH2 0x14F8 JUMPI PUSH1 0x0 DUP1 REVERT JUMPDEST PUSH4 0xC3382D0F PUSH1 0xE0 SHL PUSH3 0x80000 SWAP1 DUP2 MSTORE PUSH3 0x80004 DUP4 SWAP1 MSTORE PUSH4 0xC3382D0F SWAP1 PUSH1 0x20 DUP2 PUSH1 0x24 DUP2 PUSH1 0x0 CALLER GAS CALL DUP1 PUSH2 0x3D9C JUMPI PUSH1 0x0 DUP1 REVERT JUMPDEST PUSH4 0x131B5F21 PUSH1 0xE2 SHL PUSH3 0x80000 SWAP1 DUP2 MSTORE PUSH3 0x80004 DUP5 SWAP1 MSTORE PUSH4 0x4C6D7C84 SWAP1 PUSH1 0x0 JUMPDEST DUP9 DUP2 LT ISZERO PUSH2 0x3E69 JUMPI DUP8 DUP2 ADD MLOAD DUP3 DUP3 ADD PUSH1 0x24 ADD MSTORE PUSH1 0x20 ADD PUSH2 0x3E4E JUMP JUMPDEST POP DUP10 DUP10 DUP10 PUSH1 0x24 ADD DUP4 PUSH1 0x0 CALLER GAS CALL DUP1 PUSH2 0x3E80 JUMPI PUSH1 0x0 DUP1 REVERT JUMPDEST SWAP10 POP POP POP JUMP JUMPDEST PUSH4 0xFBB0F79D PUSH1 0xE0 SHL PUSH3 0x80000 SWAP1 DUP2 MSTORE PUSH3 0x80004 DUP5 SWAP1 MSTORE PUSH4 0xFBB0F79D SWAP1 PUSH1 0x0 JUMPDEST DUP8 DUP2 LT ISZERO PUSH2 0x3EC0 JUMPI DUP7 DUP2 ADD MLOAD DUP3 DUP3 ADD PUSH1 0x24 ADD MSTORE PUSH1 0x20 ADD PUSH2 0x3EA5 JUMP JUMPDEST POP DUP9 DUP9 DUP9 PUSH1 0x24 ADD DUP4 PUSH1 0x0 CALLER GAS CALL DUP1 PUSH2 0x3ED7 JUMPI PUSH1 0x0 DUP1 REVERT JUMPDEST SWAP9 POP POP POP JUMP JUMPDEST PUSH4 0xBDBF8C36 PUSH3 0x80000 DUP2 PUSH1 0xE0 SHL DUP2 MSTORE PUSH1 0x20 DUP2 PUSH1 0x4 DUP4 PUSH1 0x0 CALLER GAS CALL DUP1 PUSH2 0x3D9C JUMPI PUSH1 0x0 DUP1 REVERT JUMPDEST PUSH1 0x40 MLOAD DUP1 PUSH2 0x300 ADD PUSH1 0x40 MSTORE DUP1 PUSH1 0x18 SWAP1 PUSH1 0x20 DUP3 MUL DUP1 CODESIZE DUP4 CODECOPY POP SWAP2 SWAP3 SWAP2 POP POP JUMP INVALID MSIZE PUSH16 0x75206D757374206265206E6F6D696E61 PUSH21 0x6564206265666F726520796F752063616E20616363 PUSH6 0x7074206F776E PUSH6 0x727368697049 PUSH15 0x73756666696369656E742062616C61 PUSH15 0x636520616674657220616E79207365 PUSH21 0x746C656D656E74206F77696E674F6E6C7920466565 POP PUSH16 0x6F6C2C2045786368616E676572206F72 KECCAK256 0x49 PUSH20 0x7375657220636F6E74726163747320616C6C6F77 PUSH6 0x644F6E6C7920 PUSH21 0x686520636F6E7472616374206F776E6572206D6179 KECCAK256 PUSH17 0x6572666F726D207468697320616374696F PUSH15 0x417070726F76616C28616464726573 PUSH20 0x2C616464726573732C75696E743235362943616E PUSH15 0x6F74207472616E7366657220647572 PUSH10 0x6E672077616974696E67 KECCAK256 PUSH17 0x6572696F645472616E7366657228616464 PUSH19 0x6573732C616464726573732C75696E74323536 0x29 LOG2 PUSH6 0x627A7A723158 KECCAK256 0xB6 STATICCALL 0xFC PUSH7 0x934F846727BC60 SWAP11 STATICCALL 0xEB 0xDF 0x48 0xEF JUMPI BALANCE SWAP8 SWAP16 0xA7 PUSH5 0x78C0E66332 GT 0xDE PUSH12 0xE164736F6C637828302E352E BALANCE CALLDATASIZE 0x2D PUSH5 0x6576656C6F PUSH17 0x2E323032302E372E32392B636F6D6D6974 0x2E CALLDATASIZE ORIGIN PUSH6 0x363465363700 PC "
		}
	}
}