{
  "address": "0x79C6C6b1844e3db7C30107f189CFb095Bd2c4B5d",
  "abi": [
    {
      "inputs": [
        {
          "internalType": "contract L2OutputOracle",
          "name": "_l2Oracle",
          "type": "address"
        },
        {
          "internalType": "uint256",
          "name": "_finalizationPeriodSeconds",
          "type": "uint256"
        }
      ],
      "stateMutability": "nonpayable",
      "type": "constructor"
    },
    {
      "anonymous": false,
      "inputs": [
        {
          "indexed": false,
          "internalType": "uint8",
          "name": "version",
          "type": "uint8"
        }
      ],
      "name": "Initialized",
      "type": "event"
    },
    {
      "anonymous": false,
      "inputs": [
        {
          "indexed": true,
          "internalType": "address",
          "name": "from",
          "type": "address"
        },
        {
          "indexed": true,
          "internalType": "address",
          "name": "to",
          "type": "address"
        },
        {
          "indexed": true,
          "internalType": "uint256",
          "name": "version",
          "type": "uint256"
        },
        {
          "indexed": false,
          "internalType": "bytes",
          "name": "opaqueData",
          "type": "bytes"
        }
      ],
      "name": "TransactionDeposited",
      "type": "event"
    },
    {
      "anonymous": false,
      "inputs": [
        {
          "indexed": true,
          "internalType": "bytes32",
          "name": "withdrawalHash",
          "type": "bytes32"
        },
        {
          "indexed": false,
          "internalType": "bool",
          "name": "success",
          "type": "bool"
        }
      ],
      "name": "WithdrawalFinalized",
      "type": "event"
    },
    {
      "inputs": [],
      "name": "BASE_FEE_MAX_CHANGE_DENOMINATOR",
      "outputs": [
        {
          "internalType": "int256",
          "name": "",
          "type": "int256"
        }
      ],
      "stateMutability": "view",
      "type": "function"
    },
    {
      "inputs": [],
      "name": "ELASTICITY_MULTIPLIER",
      "outputs": [
        {
          "internalType": "int256",
          "name": "",
          "type": "int256"
        }
      ],
      "stateMutability": "view",
      "type": "function"
    },
    {
      "inputs": [],
      "name": "FINALIZATION_PERIOD_SECONDS",
      "outputs": [
        {
          "internalType": "uint256",
          "name": "",
          "type": "uint256"
        }
      ],
      "stateMutability": "view",
      "type": "function"
    },
    {
      "inputs": [],
      "name": "INITIAL_BASE_FEE",
      "outputs": [
        {
          "internalType": "uint128",
          "name": "",
          "type": "uint128"
        }
      ],
      "stateMutability": "view",
      "type": "function"
    },
    {
      "inputs": [],
      "name": "L2_ORACLE",
      "outputs": [
        {
          "internalType": "contract L2OutputOracle",
          "name": "",
          "type": "address"
        }
      ],
      "stateMutability": "view",
      "type": "function"
    },
    {
      "inputs": [],
      "name": "MAX_RESOURCE_LIMIT",
      "outputs": [
        {
          "internalType": "int256",
          "name": "",
          "type": "int256"
        }
      ],
      "stateMutability": "view",
      "type": "function"
    },
    {
      "inputs": [],
      "name": "MINIMUM_BASE_FEE",
      "outputs": [
        {
          "internalType": "int256",
          "name": "",
          "type": "int256"
        }
      ],
      "stateMutability": "view",
      "type": "function"
    },
    {
      "inputs": [],
      "name": "TARGET_RESOURCE_LIMIT",
      "outputs": [
        {
          "internalType": "int256",
          "name": "",
          "type": "int256"
        }
      ],
      "stateMutability": "view",
      "type": "function"
    },
    {
      "inputs": [
        {
          "internalType": "address",
          "name": "_to",
          "type": "address"
        },
        {
          "internalType": "uint256",
          "name": "_value",
          "type": "uint256"
        },
        {
          "internalType": "uint64",
          "name": "_gasLimit",
          "type": "uint64"
        },
        {
          "internalType": "bool",
          "name": "_isCreation",
          "type": "bool"
        },
        {
          "internalType": "bytes",
          "name": "_data",
          "type": "bytes"
        }
      ],
      "name": "depositTransaction",
      "outputs": [],
      "stateMutability": "payable",
      "type": "function"
    },
    {
      "inputs": [
        {
          "components": [
            {
              "internalType": "uint256",
              "name": "nonce",
              "type": "uint256"
            },
            {
              "internalType": "address",
              "name": "sender",
              "type": "address"
            },
            {
              "internalType": "address",
              "name": "target",
              "type": "address"
            },
            {
              "internalType": "uint256",
              "name": "value",
              "type": "uint256"
            },
            {
              "internalType": "uint256",
              "name": "gasLimit",
              "type": "uint256"
            },
            {
              "internalType": "bytes",
              "name": "data",
              "type": "bytes"
            }
          ],
          "internalType": "struct Types.WithdrawalTransaction",
          "name": "_tx",
          "type": "tuple"
        },
        {
          "internalType": "uint256",
          "name": "_l2BlockNumber",
          "type": "uint256"
        },
        {
          "components": [
            {
              "internalType": "bytes32",
              "name": "version",
              "type": "bytes32"
            },
            {
              "internalType": "bytes32",
              "name": "stateRoot",
              "type": "bytes32"
            },
            {
              "internalType": "bytes32",
              "name": "withdrawerStorageRoot",
              "type": "bytes32"
            },
            {
              "internalType": "bytes32",
              "name": "latestBlockhash",
              "type": "bytes32"
            }
          ],
          "internalType": "struct Types.OutputRootProof",
          "name": "_outputRootProof",
          "type": "tuple"
        },
        {
          "internalType": "bytes",
          "name": "_withdrawalProof",
          "type": "bytes"
        }
      ],
      "name": "finalizeWithdrawalTransaction",
      "outputs": [],
      "stateMutability": "payable",
      "type": "function"
    },
    {
      "inputs": [
        {
          "internalType": "bytes32",
          "name": "",
          "type": "bytes32"
        }
      ],
      "name": "finalizedWithdrawals",
      "outputs": [
        {
          "internalType": "bool",
          "name": "",
          "type": "bool"
        }
      ],
      "stateMutability": "view",
      "type": "function"
    },
    {
      "inputs": [],
      "name": "initialize",
      "outputs": [],
      "stateMutability": "nonpayable",
      "type": "function"
    },
    {
      "inputs": [
        {
          "internalType": "uint256",
          "name": "_l2BlockNumber",
          "type": "uint256"
        }
      ],
      "name": "isBlockFinalized",
      "outputs": [
        {
          "internalType": "bool",
          "name": "",
          "type": "bool"
        }
      ],
      "stateMutability": "view",
      "type": "function"
    },
    {
      "inputs": [],
      "name": "l2Sender",
      "outputs": [
        {
          "internalType": "address",
          "name": "",
          "type": "address"
        }
      ],
      "stateMutability": "view",
      "type": "function"
    },
    {
      "inputs": [],
      "name": "params",
      "outputs": [
        {
          "internalType": "uint128",
          "name": "prevBaseFee",
          "type": "uint128"
        },
        {
          "internalType": "uint64",
          "name": "prevBoughtGas",
          "type": "uint64"
        },
        {
          "internalType": "uint64",
          "name": "prevBlockNum",
          "type": "uint64"
        }
      ],
      "stateMutability": "view",
      "type": "function"
    },
    {
      "inputs": [],
      "name": "version",
      "outputs": [
        {
          "internalType": "string",
          "name": "",
          "type": "string"
        }
      ],
      "stateMutability": "view",
      "type": "function"
    },
    {
      "stateMutability": "payable",
      "type": "receive"
    }
  ],
  "transactionHash": "0x3ac590c822271c4ee52c3327f8154518b3a2d0ca0d4aeacbf74bc2a7a9bf0d5b",
  "args": [
    "0x1Bf3F468e52aA31fd19BaF006B23c327c8fc7198",
    2
  ],
  "numDeployments": 1,
  "solcInputHash": "cd42cb04f3b6a78e5824c9f427d0a55d",
  "bytecode": "0x6101206040523480156200001257600080fd5b506040516200401238038062004012833981016040819052620000359162000261565b6000608081905260a052600160c0526001600160a01b0382166101005260e08190526200006162000069565b50506200029d565b600054610100900460ff16158080156200008a5750600054600160ff909116105b80620000ba5750620000a730620001af60201b6200127e1760201c565b158015620000ba575060005460ff166001145b620001235760405162461bcd60e51b815260206004820152602e60248201527f496e697469616c697a61626c653a20636f6e747261637420697320616c72656160448201526d191e481a5b9a5d1a585b1a5e995960921b60648201526084015b60405180910390fd5b6000805460ff19166001179055801562000147576000805461ff0019166101001790555b603380546001600160a01b03191661dead17905562000165620001be565b8015620001ac576000805461ff0019169055604051600181527f7f26b83ff96e1f2b6a682f133852f6798a09c465da95921460cefb38474024989060200160405180910390a15b50565b6001600160a01b03163b151590565b600054610100900460ff166200022b5760405162461bcd60e51b815260206004820152602b60248201527f496e697469616c697a61626c653a20636f6e7472616374206973206e6f74206960448201526a6e697469616c697a696e6760a81b60648201526084016200011a565b60408051606081018252633b9aca0080825260006020830152436001600160401b031691909201819052600160c01b0217600155565b600080604083850312156200027557600080fd5b82516001600160a01b03811681146200028d57600080fd5b6020939093015192949293505050565b60805160a05160c05160e05161010051613d1b620002f76000396000818161013401528181610b690152610d900152600081816103bd015261155701526000610918015260006108ef015260006108c60152613d1b6000f3fe6080604052600436106100f65760003560e01c8063a14238e71161008a578063cff0ab9611610059578063cff0ab96146102f7578063e9e05c4214610398578063f4daa291146103ab578063fdc9fe1d146103df57600080fd5b8063a14238e71461026d578063c4fc4798146102ad578063ca3e99ba146102cd578063cd7c9789146102e257600080fd5b80636bb0291e116100c65780636bb0291e146102005780638129fc1c14610215578063867ead131461022a5780639bf62d821461024057600080fd5b80621c2ff61461012257806313620abd1461018057806354fd4d50146101b957806364b79208146101db57600080fd5b3661011d5761011b3334620186a06000604051806020016040528060008152506103f2565b005b600080fd5b34801561012e57600080fd5b506101567f000000000000000000000000000000000000000000000000000000000000000081565b60405173ffffffffffffffffffffffffffffffffffffffff90911681526020015b60405180910390f35b34801561018c57600080fd5b50610198633b9aca0081565b6040516fffffffffffffffffffffffffffffffff9091168152602001610177565b3480156101c557600080fd5b506101ce6108bf565b604051610177919061336e565b3480156101e757600080fd5b506101f2627a120081565b604051908152602001610177565b34801561020c57600080fd5b506101f2600481565b34801561022157600080fd5b5061011b610962565b34801561023657600080fd5b506101f261271081565b34801561024c57600080fd5b506033546101569073ffffffffffffffffffffffffffffffffffffffff1681565b34801561027957600080fd5b5061029d610288366004613381565b60346020526000908152604090205460ff1681565b6040519015158152602001610177565b3480156102b957600080fd5b5061029d6102c8366004613381565b610b20565b3480156102d957600080fd5b506101f2610be5565b3480156102ee57600080fd5b506101f2600881565b34801561030357600080fd5b5060015461035f906fffffffffffffffffffffffffffffffff81169067ffffffffffffffff7001000000000000000000000000000000008204811691780100000000000000000000000000000000000000000000000090041683565b604080516fffffffffffffffffffffffffffffffff909416845267ffffffffffffffff9283166020850152911690820152606001610177565b61011b6103a63660046134c6565b6103f2565b3480156103b757600080fd5b506101f27f000000000000000000000000000000000000000000000000000000000000000081565b61011b6103ed3660046135b4565b610bf6565b8260005a905083156104a95773ffffffffffffffffffffffffffffffffffffffff8716156104a957604080517f08c379a00000000000000000000000000000000000000000000000000000000081526020600482015260248101919091527f4f7074696d69736d506f7274616c3a206d7573742073656e6420746f2061646460448201527f72657373283029207768656e206372656174696e67206120636f6e747261637460648201526084015b60405180910390fd5b333281146104ca575033731111000000000000000000000000000000001111015b600034888888886040516020016104e59594939291906136a8565b604051602081830303815290604052905060008973ffffffffffffffffffffffffffffffffffffffff168373ffffffffffffffffffffffffffffffffffffffff167fb3813568d9991fc951961fcb4c784893574240a28925604d09fc577c55bb7c3284604051610555919061336e565b60405180910390a45050600154600090610595907801000000000000000000000000000000000000000000000000900467ffffffffffffffff164361373c565b9050801561071e5760006105ad6004627a1200613782565b6001546105d89190700100000000000000000000000000000000900467ffffffffffffffff166137ea565b9050600060086105ec6004627a1200613782565b60015461060c9085906fffffffffffffffffffffffffffffffff1661385e565b6106169190613782565b6106209190613782565b60015490915060009061066c906106569061064e9085906fffffffffffffffffffffffffffffffff1661391a565b61271061129a565b6fffffffffffffffffffffffffffffffff6112b5565b905060018411156106df576106dc610656670de0b6b3a76400006106c8610694600883613782565b6106a690670de0b6b3a76400006137ea565b6106b160018a61373c565b6106c390670de0b6b3a764000061398e565b6112c4565b6106d2908561385e565b61064e9190613782565b90505b6fffffffffffffffffffffffffffffffff16780100000000000000000000000000000000000000000000000067ffffffffffffffff4316021760015550505b60018054849190601090610751908490700100000000000000000000000000000000900467ffffffffffffffff166139cb565b92506101000a81548167ffffffffffffffff021916908367ffffffffffffffff160217905550627a1200600160000160109054906101000a900467ffffffffffffffff1667ffffffffffffffff16131561082d576040517f08c379a000000000000000000000000000000000000000000000000000000000815260206004820152603e60248201527f5265736f757263654d65746572696e673a2063616e6e6f7420627579206d6f7260448201527f6520676173207468616e20617661696c61626c6520676173206c696d6974000060648201526084016104a0565b600154600090610859906fffffffffffffffffffffffffffffffff1667ffffffffffffffff86166139f7565b6fffffffffffffffffffffffffffffffff169050600061087d48633b9aca006112f5565b6108879083613a2f565b905060005a610896908661373c565b9050808211156108b2576108b26108ad828461373c565b611305565b5050505050505050505050565b60606108ea7f0000000000000000000000000000000000000000000000000000000000000000611333565b6109137f0000000000000000000000000000000000000000000000000000000000000000611333565b61093c7f0000000000000000000000000000000000000000000000000000000000000000611333565b60405160200161094e93929190613a43565b604051602081830303815290604052905090565b600054610100900460ff16158080156109825750600054600160ff909116105b8061099c5750303b15801561099c575060005460ff166001145b610a28576040517f08c379a000000000000000000000000000000000000000000000000000000000815260206004820152602e60248201527f496e697469616c697a61626c653a20636f6e747261637420697320616c72656160448201527f647920696e697469616c697a656400000000000000000000000000000000000060648201526084016104a0565b600080547fffffffffffffffffffffffffffffffffffffffffffffffffffffffffffffff001660011790558015610a8657600080547fffffffffffffffffffffffffffffffffffffffffffffffffffffffffffff00ff166101001790555b603380547fffffffffffffffffffffffff00000000000000000000000000000000000000001661dead179055610aba611470565b8015610b1d57600080547fffffffffffffffffffffffffffffffffffffffffffffffffffffffffffff00ff169055604051600181527f7f26b83ff96e1f2b6a682f133852f6798a09c465da95921460cefb38474024989060200160405180910390a15b50565b6040517fa25ae55700000000000000000000000000000000000000000000000000000000815260048101829052600090819073ffffffffffffffffffffffffffffffffffffffff7f0000000000000000000000000000000000000000000000000000000000000000169063a25ae557906024016040805180830381865afa158015610baf573d6000803e3d6000fd5b505050506040513d601f19601f82011682018060405250810190610bd39190613ab9565b9050610bde81611553565b9392505050565b610bf36004627a1200613782565b81565b60335473ffffffffffffffffffffffffffffffffffffffff1661dead14610c9f576040517f08c379a000000000000000000000000000000000000000000000000000000000815260206004820152603f60248201527f4f7074696d69736d506f7274616c3a2063616e206f6e6c79207472696767657260448201527f206f6e65207769746864726177616c20706572207472616e73616374696f6e0060648201526084016104a0565b3073ffffffffffffffffffffffffffffffffffffffff16856040015173ffffffffffffffffffffffffffffffffffffffff1603610d5e576040517f08c379a000000000000000000000000000000000000000000000000000000000815260206004820152603f60248201527f4f7074696d69736d506f7274616c3a20796f752063616e6e6f742073656e642060448201527f6d6573736167657320746f2074686520706f7274616c20636f6e74726163740060648201526084016104a0565b6040517fa25ae557000000000000000000000000000000000000000000000000000000008152600481018590526000907f000000000000000000000000000000000000000000000000000000000000000073ffffffffffffffffffffffffffffffffffffffff169063a25ae557906024016040805180830381865afa158015610deb573d6000803e3d6000fd5b505050506040513d601f19601f82011682018060405250810190610e0f9190613ab9565b9050610e1a81611553565b610ea6576040517f08c379a000000000000000000000000000000000000000000000000000000000815260206004820152602d60248201527f4f7074696d69736d506f7274616c3a2070726f706f73616c206973206e6f742060448201527f7965742066696e616c697a65640000000000000000000000000000000000000060648201526084016104a0565b610ebd610eb836869003860186613b08565b61158d565b815114610f4c576040517f08c379a000000000000000000000000000000000000000000000000000000000815260206004820152602960248201527f4f7074696d69736d506f7274616c3a20696e76616c6964206f7574707574207260448201527f6f6f742070726f6f66000000000000000000000000000000000000000000000060648201526084016104a0565b6000610f57876115e9565b9050610f9e81866040013586868080601f01602080910402602001604051908101604052809392919081815260200183838082843760009201919091525061161992505050565b61102a576040517f08c379a000000000000000000000000000000000000000000000000000000000815260206004820152603260248201527f4f7074696d69736d506f7274616c3a20696e76616c696420776974686472617760448201527f616c20696e636c7573696f6e2070726f6f66000000000000000000000000000060648201526084016104a0565b60008181526034602052604090205460ff16156110c9576040517f08c379a000000000000000000000000000000000000000000000000000000000815260206004820152603560248201527f4f7074696d69736d506f7274616c3a207769746864726177616c20686173206160448201527f6c7265616479206265656e2066696e616c697a6564000000000000000000000060648201526084016104a0565b600081815260346020526040902080547fffffffffffffffffffffffffffffffffffffffffffffffffffffffffffffff00166001179055608087015161111290614e2090613b6e565b5a10156111a1576040517f08c379a000000000000000000000000000000000000000000000000000000000815260206004820152603760248201527f4f7074696d69736d506f7274616c3a20696e73756666696369656e742067617360448201527f20746f2066696e616c697a65207769746864726177616c00000000000000000060648201526084016104a0565b8660200151603360006101000a81548173ffffffffffffffffffffffffffffffffffffffff021916908373ffffffffffffffffffffffffffffffffffffffff1602179055506000611206886040015189608001518a6060015160008c60a001516116e0565b50603380547fffffffffffffffffffffffff00000000000000000000000000000000000000001661dead17905560405190915082907fdb5c7652857aa163daadd670e116628fb42e869d8ac4251ef8971d9e5727df1b9061126c90841515815260200190565b60405180910390a25050505050505050565b73ffffffffffffffffffffffffffffffffffffffff163b151590565b6000818312156112aa57816112ac565b825b90505b92915050565b60008183126112aa57816112ac565b60006112ac670de0b6b3a7640000836112dc8661176b565b6112e6919061385e565b6112f09190613782565b6119af565b6000818310156112aa57816112ac565b6000805a90505b825a611318908361373c565b101561132e5761132782613b86565b915061130c565b505050565b60608160000361137657505060408051808201909152600181527f3000000000000000000000000000000000000000000000000000000000000000602082015290565b8160005b81156113a0578061138a81613b86565b91506113999050600a83613a2f565b915061137a565b60008167ffffffffffffffff8111156113bb576113bb6133c3565b6040519080825280601f01601f1916602001820160405280156113e5576020820181803683370190505b5090505b8415611468576113fa60018361373c565b9150611407600a86613bbe565b611412906030613b6e565b60f81b81838151811061142757611427613bd2565b60200101907effffffffffffffffffffffffffffffffffffffffffffffffffffffffffffff1916908160001a905350611461600a86613a2f565b94506113e9565b949350505050565b600054610100900460ff16611507576040517f08c379a000000000000000000000000000000000000000000000000000000000815260206004820152602b60248201527f496e697469616c697a61626c653a20636f6e7472616374206973206e6f74206960448201527f6e697469616c697a696e6700000000000000000000000000000000000000000060648201526084016104a0565b60408051606081018252633b9aca00808252600060208301524367ffffffffffffffff169190920181905278010000000000000000000000000000000000000000000000000217600155565b60007f000000000000000000000000000000000000000000000000000000000000000082602001516115859190613b6e565b421192915050565b600081600001518260200151836040015184606001516040516020016115cc949392919093845260208401929092526040830152606082015260800190565b604051602081830303815290604052805190602001209050919050565b80516020808301516040808501516060860151608087015160a088015193516000976115cc979096959101613c01565b604080516020810185905260009181018290528190606001604080517fffffffffffffffffffffffffffffffffffffffffffffffffffffffffffffffe0818403018152828252805160209182012090830181905292506116d79101604080517fffffffffffffffffffffffffffffffffffffffffffffffffffffffffffffffe0818403018152828201909152600182527f01000000000000000000000000000000000000000000000000000000000000006020830152908587611bee565b95945050505050565b6000606060008060008661ffff1667ffffffffffffffff811115611706576117066133c3565b6040519080825280601f01601f191660200182016040528015611730576020820181803683370190505b5090506000808751602089018b8e8ef191503d925086831115611751578692505b828152826000602083013e90999098509650505050505050565b60008082136117d6576040517f08c379a000000000000000000000000000000000000000000000000000000000815260206004820152600960248201527f554e444546494e4544000000000000000000000000000000000000000000000060448201526064016104a0565b600060606117e384611c12565b03609f8181039490941b90931c6c465772b2bbbb5f824b15207a3081018102606090811d6d0388eaa27412d5aca026815d636e018202811d6d0df99ac502031bf953eff472fdcc018202811d6d13cdffb29d51d99322bdff5f2211018202811d6d0a0f742023def783a307a986912e018202811d6d01920d8043ca89b5239253284e42018202811d6c0b7a86d7375468fac667a0a527016c29508e458543d8aa4df2abee7883018302821d6d0139601a2efabe717e604cbb4894018302821d6d02247f7a7b6594320649aa03aba1018302821d7fffffffffffffffffffffffffffffffffffffff73c0c716a594e00d54e3c4cbc9018302821d7ffffffffffffffffffffffffffffffffffffffdc7b88c420e53a9890533129f6f01830290911d7fffffffffffffffffffffffffffffffffffffff465fda27eb4d63ded474e5f832019091027ffffffffffffffff5f6af8f7b3396644f18e157960000000000000000000000000105711340daa0d5f769dba1915cef59f0815a5506027d0267a36c0c95b3975ab3ee5b203a7614a3f75373f047d803ae7b6687f2b393909302929092017d57115e47018c7177eebf7cd370a3356a1b7863008a5ae8028c72b88642840160ae1d92915050565b60007ffffffffffffffffffffffffffffffffffffffffffffffffdb731c958f34d94c182136119e057506000919050565b680755bf798b4a1bf1e58212611a52576040517f08c379a000000000000000000000000000000000000000000000000000000000815260206004820152600c60248201527f4558505f4f564552464c4f57000000000000000000000000000000000000000060448201526064016104a0565b6503782dace9d9604e83901b059150600060606bb17217f7d1cf79abc9e3b39884821b056b80000000000000000000000001901d6bb17217f7d1cf79abc9e3b39881029093037fffffffffffffffffffffffffffffffffffffffdbf3ccf1604d263450f02a550481018102606090811d6d0277594991cfc85f6e2461837cd9018202811d7fffffffffffffffffffffffffffffffffffffe5adedaa1cb095af9e4da10e363c018202811d6db1bbb201f443cf962f1a1d3db4a5018202811d7ffffffffffffffffffffffffffffffffffffd38dc772608b0ae56cce01296c0eb018202811d6e05180bb14799ab47a8a8cb2a527d57016d02d16720577bd19bf614176fe9ea6c10fe68e7fd37d0007b713f765084018402831d9081019084017ffffffffffffffffffffffffffffffffffffffe2c69812cf03b0763fd454a8f7e010290911d6e0587f503bb6ea29d25fcb7401964500190910279d835ebba824c98fb31b83b2ca45c000000000000000000000000010574029d9dc38563c32e5c2f6dc192ee70ef65f9978af30260c3939093039290921c92915050565b600080611bfa86611ce8565b9050611c0881868686611d1a565b9695505050505050565b6000808211611c7d576040517f08c379a000000000000000000000000000000000000000000000000000000000815260206004820152600960248201527f554e444546494e4544000000000000000000000000000000000000000000000060448201526064016104a0565b5060016fffffffffffffffffffffffffffffffff821160071b82811c67ffffffffffffffff1060061b1782811c63ffffffff1060051b1782811c61ffff1060041b1782811c60ff10600390811b90911783811c600f1060021b1783811c909110821b1791821c111790565b60608180519060200120604051602001611d0491815260200190565b6040516020818303038152906040529050919050565b6000806000611d2a878686611d57565b91509150818015611d4c57508051602080830191909120875191880191909120145b979650505050505050565b600060606000611d6685611e72565b90506000806000611d78848a89611f6d565b81519295509093509150158080611d8c5750815b611e18576040517f08c379a000000000000000000000000000000000000000000000000000000000815260206004820152602560248201527f4d65726b6c65547269653a2070726f76696465642070726f6f6620697320696e60448201527f76616c696400000000000000000000000000000000000000000000000000000060648201526084016104a0565b600081611e345760405180602001604052806000815250611e60565b611e6086611e4360018861373c565b81518110611e5357611e53613bd2565b60200260200101516124f6565b919b919a509098505050505050505050565b60606000611e7f83612520565b90506000815167ffffffffffffffff811115611e9d57611e9d6133c3565b604051908082528060200260200182016040528015611ee257816020015b6040805180820190915260608082526020820152815260200190600190039081611ebb5790505b50905060005b8251811015611f65576000611f15848381518110611f0857611f08613bd2565b6020026020010151612553565b90506040518060400160405280828152602001611f3183612520565b815250838381518110611f4657611f46613bd2565b6020026020010181905250508080611f5d90613b86565b915050611ee8565b509392505050565b60006060818080611f7d8761261a565b90506000869050600080611fa4604051806040016040528060608152602001606081525090565b60005b8c518110156124b2578c8181518110611fc257611fc2613bd2565b602002602001015191508284611fd89190613b6e565b9350611fe5600188613b6e565b96508360000361206657815180516020909101208514612061576040517f08c379a000000000000000000000000000000000000000000000000000000000815260206004820152601d60248201527f4d65726b6c65547269653a20696e76616c696420726f6f74206861736800000060448201526064016104a0565b6121a2565b81515160201161210857815180516020909101208514612061576040517f08c379a000000000000000000000000000000000000000000000000000000000815260206004820152602760248201527f4d65726b6c65547269653a20696e76616c6964206c6172676520696e7465726e60448201527f616c20686173680000000000000000000000000000000000000000000000000060648201526084016104a0565b8151859061211590613c58565b146121a2576040517f08c379a000000000000000000000000000000000000000000000000000000000815260206004820152602660248201527f4d65726b6c65547269653a20696e76616c696420696e7465726e616c206e6f6460448201527f652068617368000000000000000000000000000000000000000000000000000060648201526084016104a0565b6121ae60106001613b6e565b8260200151510361222057855184146124b25760008685815181106121d5576121d5613bd2565b602001015160f81c60f81b60f81c9050600083602001518260ff168151811061220057612200613bd2565b602002602001015190506122138161279d565b96506001945050506124a0565b600282602001515103612418576000612238836127d3565b905060008160008151811061224f5761224f613bd2565b016020015160f81c90506000612266600283613c9a565b612271906002613cbc565b90506000612282848360ff166127f7565b905060006122908b8a6127f7565b9050600061229e838361282d565b905060ff8516600214806122b5575060ff85166003145b1561230b578083511480156122ca5750808251145b156122dc576122d9818b613b6e565b99505b507f800000000000000000000000000000000000000000000000000000000000000099506124b2945050505050565b60ff8516158061231e575060ff85166001145b15612390578251811461235a57507f800000000000000000000000000000000000000000000000000000000000000099506124b2945050505050565b612381886020015160018151811061237457612374613bd2565b602002602001015161279d565b9a5097506124a0945050505050565b6040517f08c379a000000000000000000000000000000000000000000000000000000000815260206004820152603260248201527f4d65726b6c65547269653a2072656365697665642061206e6f6465207769746860448201527f20616e20756e6b6e6f776e20707265666978000000000000000000000000000060648201526084016104a0565b6040517f08c379a000000000000000000000000000000000000000000000000000000000815260206004820152602860248201527f4d65726b6c65547269653a20726563656976656420616e20756e70617273656160448201527f626c65206e6f646500000000000000000000000000000000000000000000000060648201526084016104a0565b806124aa81613b86565b915050611fa7565b507f80000000000000000000000000000000000000000000000000000000000000008414866124e187866127f7565b909e909d50909b509950505050505050505050565b602081015180516060916112af916125109060019061373c565b81518110611f0857611f08613bd2565b6040805180820182526000808252602091820152815180830190925282518252808301908201526060906112af906128d9565b6060600080600061256385612b32565b91945092509050600081600181111561257e5761257e613cdf565b1461260b576040517f08c379a000000000000000000000000000000000000000000000000000000000815260206004820152602260248201527f524c505265616465723a20696e76616c696420524c502062797465732076616c60448201527f756500000000000000000000000000000000000000000000000000000000000060648201526084016104a0565b6116d78560200151848461301d565b606060008251600261262c919061398e565b67ffffffffffffffff811115612644576126446133c3565b6040519080825280601f01601f19166020018201604052801561266e576020820181803683370190505b50905060005b835181101561279657600484828151811061269157612691613bd2565b01602001517fff0000000000000000000000000000000000000000000000000000000000000016901c826126c683600261398e565b815181106126d6576126d6613bd2565b60200101907effffffffffffffffffffffffffffffffffffffffffffffffffffffffffffff1916908160001a905350601084828151811061271957612719613bd2565b016020015161272b919060f81c613c9a565b60f81b8261273a83600261398e565b612745906001613b6e565b8151811061275557612755613bd2565b60200101907effffffffffffffffffffffffffffffffffffffffffffffffffffffffffffff1916908160001a9053508061278e81613b86565b915050612674565b5092915050565b600060606020836000015110156127be576127b7836130fb565b90506127ca565b6127c783612553565b90505b610bde81613c58565b60606112af6127f28360200151600081518110611f0857611f08613bd2565b61261a565b60608251821061281657506040805160208101909152600081526112af565b6112ac8383848651612828919061373c565b613106565b6000805b8084511180156128415750808351115b80156128c2575082818151811061285a5761285a613bd2565b602001015160f81c60f81b7effffffffffffffffffffffffffffffffffffffffffffffffffffffffffffff191684828151811061289957612899613bd2565b01602001517fff0000000000000000000000000000000000000000000000000000000000000016145b156112ac57806128d181613b86565b915050612831565b60606000806128e784612b32565b9193509091506001905081600181111561290357612903613cdf565b14612990576040517f08c379a000000000000000000000000000000000000000000000000000000000815260206004820152602160248201527f524c505265616465723a20696e76616c696420524c50206c6973742076616c7560448201527f650000000000000000000000000000000000000000000000000000000000000060648201526084016104a0565b6040805160208082526104208201909252600091816020015b60408051808201909152600080825260208201528152602001906001900390816129a95790505090506000835b8651811015612b275760208210612a6f576040517f08c379a000000000000000000000000000000000000000000000000000000000815260206004820152603460248201527f524c505265616465723a2070726f766964656420524c50206c6973742065786360448201527f65656473206d6178206c697374206c656e67746800000000000000000000000060648201526084016104a0565b600080612aac6040518060400160405280858c60000151612a90919061373c565b8152602001858c60200151612aa59190613b6e565b9052612b32565b509150915060405180604001604052808383612ac89190613b6e565b8152602001848b60200151612add9190613b6e565b815250858581518110612af257612af2613bd2565b6020908102919091010152612b08600185613b6e565b9350612b148183613b6e565b612b1e9084613b6e565b925050506129d6565b508152949350505050565b600080600080846000015111612bca576040517f08c379a000000000000000000000000000000000000000000000000000000000815260206004820152602260248201527f524c505265616465723a20524c50206974656d2063616e6e6f74206265206e7560448201527f6c6c00000000000000000000000000000000000000000000000000000000000060648201526084016104a0565b6020840151805160001a607f8111612bef576000600160009450945094505050613016565b60b78111612cab576000612c0460808361373c565b905080876000015111612c99576040517f08c379a000000000000000000000000000000000000000000000000000000000815260206004820152602360248201527f524c505265616465723a20696e76616c696420524c502073686f72742073747260448201527f696e67000000000000000000000000000000000000000000000000000000000060648201526084016104a0565b60019550935060009250613016915050565b60bf8111612e1a576000612cc060b78361373c565b905080876000015111612d55576040517f08c379a000000000000000000000000000000000000000000000000000000000815260206004820152602960248201527f524c505265616465723a20696e76616c696420524c50206c6f6e67207374726960448201527f6e67206c656e677468000000000000000000000000000000000000000000000060648201526084016104a0565b600183015160208290036101000a9004612d6f8183613b6e565b885111612dfe576040517f08c379a000000000000000000000000000000000000000000000000000000000815260206004820152602260248201527f524c505265616465723a20696e76616c696420524c50206c6f6e67207374726960448201527f6e6700000000000000000000000000000000000000000000000000000000000060648201526084016104a0565b612e09826001613b6e565b965094506000935061301692505050565b60f78111612ed5576000612e2f60c08361373c565b905080876000015111612ec4576040517f08c379a000000000000000000000000000000000000000000000000000000000815260206004820152602160248201527f524c505265616465723a20696e76616c696420524c502073686f7274206c697360448201527f740000000000000000000000000000000000000000000000000000000000000060648201526084016104a0565b600195509350849250613016915050565b6000612ee260f78361373c565b905080876000015111612f77576040517f08c379a000000000000000000000000000000000000000000000000000000000815260206004820152602760248201527f524c505265616465723a20696e76616c696420524c50206c6f6e67206c69737460448201527f206c656e6774680000000000000000000000000000000000000000000000000060648201526084016104a0565b600183015160208290036101000a9004612f918183613b6e565b885111612ffa576040517f08c379a000000000000000000000000000000000000000000000000000000000815260206004820181905260248201527f524c505265616465723a20696e76616c696420524c50206c6f6e67206c69737460448201526064016104a0565b613005826001613b6e565b965094506001935061301692505050565b9193909250565b606060008267ffffffffffffffff81111561303a5761303a6133c3565b6040519080825280601f01601f191660200182016040528015613064576020820181803683370190505b5090508051600003613077579050610bde565b60006130838587613b6e565b90506020820160005b613097602087613a2f565b8110156130ce57825182526130ad602084613b6e565b92506130ba602083613b6e565b9150806130c681613b86565b91505061308c565b5060006001602087066020036101000a039050808251168119845116178252839450505050509392505050565b60606112af826132de565b60608182601f011015613175576040517f08c379a000000000000000000000000000000000000000000000000000000000815260206004820152600e60248201527f736c6963655f6f766572666c6f7700000000000000000000000000000000000060448201526064016104a0565b8282840110156131e1576040517f08c379a000000000000000000000000000000000000000000000000000000000815260206004820152600e60248201527f736c6963655f6f766572666c6f7700000000000000000000000000000000000060448201526064016104a0565b8183018451101561324e576040517f08c379a000000000000000000000000000000000000000000000000000000000815260206004820152601160248201527f736c6963655f6f75744f66426f756e647300000000000000000000000000000060448201526064016104a0565b60608215801561326d57604051915060008252602082016040526132d5565b6040519150601f8416801560200281840101858101878315602002848b0101015b818310156132a657805183526020928301920161328e565b5050858452601f017fffffffffffffffffffffffffffffffffffffffffffffffffffffffffffffffe016604052505b50949350505050565b60606112af82602001516000846000015161301d565b60005b8381101561330f5781810151838201526020016132f7565b8381111561331e576000848401525b50505050565b6000815180845261333c8160208601602086016132f4565b601f017fffffffffffffffffffffffffffffffffffffffffffffffffffffffffffffffe0169290920160200192915050565b6020815260006112ac6020830184613324565b60006020828403121561339357600080fd5b5035919050565b803573ffffffffffffffffffffffffffffffffffffffff811681146133be57600080fd5b919050565b7f4e487b7100000000000000000000000000000000000000000000000000000000600052604160045260246000fd5b60405160c0810167ffffffffffffffff81118282101715613415576134156133c3565b60405290565b600082601f83011261342c57600080fd5b813567ffffffffffffffff80821115613447576134476133c3565b604051601f83017fffffffffffffffffffffffffffffffffffffffffffffffffffffffffffffffe0908116603f0116810190828211818310171561348d5761348d6133c3565b816040528381528660208588010111156134a657600080fd5b836020870160208301376000602085830101528094505050505092915050565b600080600080600060a086880312156134de57600080fd5b6134e78661339a565b945060208601359350604086013567ffffffffffffffff808216821461350c57600080fd5b909350606087013590811515821461352357600080fd5b9092506080870135908082111561353957600080fd5b506135468882890161341b565b9150509295509295909350565b60006080828403121561356557600080fd5b50919050565b60008083601f84011261357d57600080fd5b50813567ffffffffffffffff81111561359557600080fd5b6020830191508360208285010111156135ad57600080fd5b9250929050565b600080600080600060e086880312156135cc57600080fd5b853567ffffffffffffffff808211156135e457600080fd5b9087019060c0828a0312156135f857600080fd5b6136006133f2565b823581526136106020840161339a565b60208201526136216040840161339a565b6040820152606083013560608201526080830135608082015260a08301358281111561364c57600080fd5b6136588b82860161341b565b60a0830152509650602088013595506136748960408a01613553565b945060c088013591508082111561368a57600080fd5b506136978882890161356b565b969995985093965092949392505050565b8581528460208201527fffffffffffffffff0000000000000000000000000000000000000000000000008460c01b16604082015282151560f81b6048820152600082516136fc8160498501602087016132f4565b919091016049019695505050505050565b7f4e487b7100000000000000000000000000000000000000000000000000000000600052601160045260246000fd5b60008282101561374e5761374e61370d565b500390565b7f4e487b7100000000000000000000000000000000000000000000000000000000600052601260045260246000fd5b60008261379157613791613753565b7fffffffffffffffffffffffffffffffffffffffffffffffffffffffffffffffff83147f8000000000000000000000000000000000000000000000000000000000000000831416156137e5576137e561370d565b500590565b6000808312837f8000000000000000000000000000000000000000000000000000000000000000018312811516156138245761382461370d565b837f7fffffffffffffffffffffffffffffffffffffffffffffffffffffffffffffff0183138116156138585761385861370d565b50500390565b60007f7fffffffffffffffffffffffffffffffffffffffffffffffffffffffffffffff60008413600084138583048511828216161561389f5761389f61370d565b7f800000000000000000000000000000000000000000000000000000000000000060008712868205881281841616156138da576138da61370d565b600087129250878205871284841616156138f6576138f661370d565b8785058712818416161561390c5761390c61370d565b505050929093029392505050565b6000808212827f7fffffffffffffffffffffffffffffffffffffffffffffffffffffffffffffff038413811516156139545761395461370d565b827f80000000000000000000000000000000000000000000000000000000000000000384128116156139885761398861370d565b50500190565b6000817fffffffffffffffffffffffffffffffffffffffffffffffffffffffffffffffff04831182151516156139c6576139c661370d565b500290565b600067ffffffffffffffff8083168185168083038211156139ee576139ee61370d565b01949350505050565b60006fffffffffffffffffffffffffffffffff80831681851681830481118215151615613a2657613a2661370d565b02949350505050565b600082613a3e57613a3e613753565b500490565b60008451613a558184602089016132f4565b80830190507f2e000000000000000000000000000000000000000000000000000000000000008082528551613a91816001850160208a016132f4565b60019201918201528351613aac8160028401602088016132f4565b0160020195945050505050565b600060408284031215613acb57600080fd5b6040516040810181811067ffffffffffffffff82111715613aee57613aee6133c3565b604052825181526020928301519281019290925250919050565b600060808284031215613b1a57600080fd5b6040516080810181811067ffffffffffffffff82111715613b3d57613b3d6133c3565b8060405250823581526020830135602082015260408301356040820152606083013560608201528091505092915050565b60008219821115613b8157613b8161370d565b500190565b60007fffffffffffffffffffffffffffffffffffffffffffffffffffffffffffffffff8203613bb757613bb761370d565b5060010190565b600082613bcd57613bcd613753565b500690565b7f4e487b7100000000000000000000000000000000000000000000000000000000600052603260045260246000fd5b868152600073ffffffffffffffffffffffffffffffffffffffff808816602084015280871660408401525084606083015283608083015260c060a0830152613c4c60c0830184613324565b98975050505050505050565b80516020808301519190811015613565577fffffffffffffffffffffffffffffffffffffffffffffffffffffffffffffffff60209190910360031b1b16919050565b600060ff831680613cad57613cad613753565b8060ff84160691505092915050565b600060ff821660ff841680821015613cd657613cd661370d565b90039392505050565b7f4e487b7100000000000000000000000000000000000000000000000000000000600052602160045260246000fdfea164736f6c634300080f000a",
  "devdoc": {
    "version": 1,
    "kind": "dev",
    "methods": {
      "constructor": {
        "params": {
          "_finalizationPeriodSeconds": "Output finalization time in seconds.",
          "_l2Oracle": "Address of the L2OutputOracle contract."
        }
      },
      "depositTransaction(address,uint256,uint64,bool,bytes)": {
        "params": {
          "_data": "Data to trigger the recipient with.",
          "_gasLimit": "Minimum L2 gas limit (can be greater than or equal to this value).",
          "_isCreation": "Whether or not the transaction is a contract creation.",
          "_to": "Target address on L2.",
          "_value": "ETH value to send to the recipient."
        }
      },
      "finalizeWithdrawalTransaction((uint256,address,address,uint256,uint256,bytes),uint256,(bytes32,bytes32,bytes32,bytes32),bytes)": {
        "params": {
          "_l2BlockNumber": "L2 block number of the outputRoot.",
          "_outputRootProof": "Inclusion proof of the withdrawer contracts storage root.",
          "_tx": "Withdrawal transaction to finalize.",
          "_withdrawalProof": "Inclusion proof for the given withdrawal in the withdrawer contract."
        }
      },
      "isBlockFinalized(uint256)": {
        "params": {
          "_l2BlockNumber": "The number of the L2 block."
        }
      },
      "version()": {
        "returns": {
          "_0": "Semver contract version as a string."
        }
      }
    },
    "events": {
      "TransactionDeposited(address,address,uint256,bytes)": {
        "params": {
          "from": "Address that triggered the deposit transaction.",
          "opaqueData": "ABI encoded deposit data to be parsed off-chain.",
          "to": "Address that the deposit transaction is directed to.",
          "version": "Version of this deposit transaction event."
        }
      },
      "WithdrawalFinalized(bytes32,bool)": {
        "params": {
          "success": "Whether the withdrawal transaction was successful.",
          "withdrawalHash": "Hash of the withdrawal transaction."
        }
      }
    }
  },
  "userdoc": {
    "version": 1,
    "kind": "user",
    "methods": {
      "BASE_FEE_MAX_CHANGE_DENOMINATOR()": {
        "notice": "Denominator that determines max change on fee per block."
      },
      "ELASTICITY_MULTIPLIER()": {
        "notice": "Along with the resource limit, determines the target resource limit."
      },
      "FINALIZATION_PERIOD_SECONDS()": {
        "notice": "Minimum time (in seconds) that must elapse before a withdrawal can be finalized."
      },
      "INITIAL_BASE_FEE()": {
        "notice": "Initial base fee value."
      },
      "L2_ORACLE()": {
        "notice": "Address of the L2OutputOracle."
      },
      "MAX_RESOURCE_LIMIT()": {
        "notice": "Maximum amount of the resource that can be used within this block."
      },
      "MINIMUM_BASE_FEE()": {
        "notice": "Minimum base fee value, cannot go lower than this."
      },
      "TARGET_RESOURCE_LIMIT()": {
        "notice": "Target amount of the resource that should be used within this block."
      },
      "depositTransaction(address,uint256,uint64,bool,bytes)": {
        "notice": "Accepts deposits of ETH and data, and emits a TransactionDeposited event for use in         deriving deposit transactions. Note that if a deposit is made by a contract, its         address will be aliased when retrieved using `tx.origin` or `msg.sender`. Consider         using the CrossDomainMessenger contracts for a simpler developer experience."
      },
      "finalizeWithdrawalTransaction((uint256,address,address,uint256,uint256,bytes),uint256,(bytes32,bytes32,bytes32,bytes32),bytes)": {
        "notice": "Finalizes a withdrawal transaction."
      },
      "finalizedWithdrawals(bytes32)": {
        "notice": "A list of withdrawal hashes which have been successfully finalized."
      },
      "initialize()": {
        "notice": "Initializer;"
      },
      "isBlockFinalized(uint256)": {
        "notice": "Determine if a given block number is finalized. Reverts if the call to         L2_ORACLE.getL2Output reverts. Returns a boolean otherwise."
      },
      "l2Sender()": {
        "notice": "Address of the L2 account which initiated a withdrawal in this transaction. If the         of this variable is the default L2 sender address, then we are NOT inside of a call         to finalizeWithdrawalTransaction."
      },
      "params()": {
        "notice": "EIP-1559 style gas parameters."
      },
      "version()": {
        "notice": "Returns the full semver contract version."
      }
    },
    "events": {
      "TransactionDeposited(address,address,uint256,bytes)": {
        "notice": "Emitted when a transaction is deposited from L1 to L2. The parameters of this event         are read by the rollup node and used to derive deposit transactions on L2."
      },
      "WithdrawalFinalized(bytes32,bool)": {
        "notice": "Emitted when a withdrawal transaction is finalized."
      }
    },
    "notice": "The OptimismPortal is a low-level contract responsible for passing messages between L1         and L2. Messages sent directly to the OptimismPortal have no form of replayability.         Users are encouraged to use the L1CrossDomainMessenger for a higher-level interface."
  },
  "storageLayout": {
    "storage": [
      {
        "astId": 25872,
        "contract": "contracts/L1/OptimismPortal.sol:OptimismPortal",
        "label": "_initialized",
        "offset": 0,
        "slot": "0",
        "type": "t_uint8"
      },
      {
        "astId": 25875,
        "contract": "contracts/L1/OptimismPortal.sol:OptimismPortal",
        "label": "_initializing",
        "offset": 1,
        "slot": "0",
        "type": "t_bool"
      },
      {
        "astId": 1389,
        "contract": "contracts/L1/OptimismPortal.sol:OptimismPortal",
        "label": "params",
        "offset": 0,
        "slot": "1",
        "type": "t_struct(ResourceParams)1359_storage"
      },
      {
        "astId": 1394,
        "contract": "contracts/L1/OptimismPortal.sol:OptimismPortal",
        "label": "__gap",
        "offset": 0,
        "slot": "2",
        "type": "t_array(t_uint256)49_storage"
      },
      {
        "astId": 961,
        "contract": "contracts/L1/OptimismPortal.sol:OptimismPortal",
        "label": "l2Sender",
        "offset": 0,
        "slot": "51",
        "type": "t_address"
      },
      {
        "astId": 974,
        "contract": "contracts/L1/OptimismPortal.sol:OptimismPortal",
        "label": "finalizedWithdrawals",
        "offset": 0,
        "slot": "52",
        "type": "t_mapping(t_bytes32,t_bool)"
      },
      {
        "astId": 979,
        "contract": "contracts/L1/OptimismPortal.sol:OptimismPortal",
        "label": "__gap",
        "offset": 0,
        "slot": "53",
        "type": "t_array(t_uint256)48_storage"
      }
    ],
    "types": {
      "t_address": {
        "encoding": "inplace",
        "label": "address",
        "numberOfBytes": "20"
      },
      "t_array(t_uint256)48_storage": {
        "encoding": "inplace",
        "label": "uint256[48]",
        "numberOfBytes": "1536"
      },
      "t_array(t_uint256)49_storage": {
        "encoding": "inplace",
        "label": "uint256[49]",
        "numberOfBytes": "1568"
      },
      "t_bool": {
        "encoding": "inplace",
        "label": "bool",
        "numberOfBytes": "1"
      },
      "t_bytes32": {
        "encoding": "inplace",
        "label": "bytes32",
        "numberOfBytes": "32"
      },
      "t_mapping(t_bytes32,t_bool)": {
        "encoding": "mapping",
        "label": "mapping(bytes32 => bool)",
        "numberOfBytes": "32"
      },
      "t_struct(ResourceParams)1359_storage": {
        "encoding": "inplace",
        "label": "struct ResourceMetering.ResourceParams",
        "numberOfBytes": "32"
      },
      "t_uint128": {
        "encoding": "inplace",
        "label": "uint128",
        "numberOfBytes": "16"
      },
      "t_uint256": {
        "encoding": "inplace",
        "label": "uint256",
        "numberOfBytes": "32"
      },
      "t_uint64": {
        "encoding": "inplace",
        "label": "uint64",
        "numberOfBytes": "8"
      },
      "t_uint8": {
        "encoding": "inplace",
        "label": "uint8",
        "numberOfBytes": "1"
      }
    }
  }
}