{
  "address": "0x64cfd73BE445F6Aa4ee9F4f7B1d068008a9DAc06",
  "abi": [
    {
      "inputs": [
        {
          "internalType": "address",
          "name": "_libAddressManager",
          "type": "address"
        }
      ],
      "stateMutability": "nonpayable",
      "type": "constructor"
    },
    {
      "inputs": [
        {
          "internalType": "address",
          "name": "_who",
          "type": "address"
        }
      ],
      "name": "claim",
      "outputs": [],
      "stateMutability": "nonpayable",
      "type": "function"
    },
    {
      "inputs": [],
      "name": "deposit",
      "outputs": [],
      "stateMutability": "nonpayable",
      "type": "function"
    },
    {
      "inputs": [
        {
          "internalType": "bytes32",
          "name": "_preStateRoot",
          "type": "bytes32"
        },
        {
          "internalType": "address",
          "name": "_publisher",
          "type": "address"
        },
        {
          "internalType": "uint256",
          "name": "_timestamp",
          "type": "uint256"
        }
      ],
      "name": "finalize",
      "outputs": [],
      "stateMutability": "nonpayable",
      "type": "function"
    },
    {
      "inputs": [],
      "name": "finalizeWithdrawal",
      "outputs": [],
      "stateMutability": "nonpayable",
      "type": "function"
    },
    {
      "inputs": [
        {
          "internalType": "bytes32",
          "name": "_preStateRoot",
          "type": "bytes32"
        },
        {
          "internalType": "address",
          "name": "_who",
          "type": "address"
        }
      ],
      "name": "getGasSpent",
      "outputs": [
        {
          "internalType": "uint256",
          "name": "",
          "type": "uint256"
        }
      ],
      "stateMutability": "view",
      "type": "function"
    },
    {
      "inputs": [
        {
          "internalType": "address",
          "name": "_who",
          "type": "address"
        }
      ],
      "name": "isCollateralized",
      "outputs": [
        {
          "internalType": "bool",
          "name": "",
          "type": "bool"
        }
      ],
      "stateMutability": "view",
      "type": "function"
    },
    {
      "inputs": [
        {
          "internalType": "bytes32",
          "name": "_preStateRoot",
          "type": "bytes32"
        },
        {
          "internalType": "bytes32",
          "name": "_txHash",
          "type": "bytes32"
        },
        {
          "internalType": "address",
          "name": "_who",
          "type": "address"
        },
        {
          "internalType": "uint256",
          "name": "_gasSpent",
          "type": "uint256"
        }
      ],
      "name": "recordGasSpent",
      "outputs": [],
      "stateMutability": "nonpayable",
      "type": "function"
    },
    {
      "inputs": [
        {
          "internalType": "string",
          "name": "_name",
          "type": "string"
        }
      ],
      "name": "resolve",
      "outputs": [
        {
          "internalType": "address",
          "name": "_contract",
          "type": "address"
        }
      ],
      "stateMutability": "view",
      "type": "function"
    },
    {
      "inputs": [],
      "name": "startWithdrawal",
      "outputs": [],
      "stateMutability": "nonpayable",
      "type": "function"
    }
  ],
  "transactionHash": "0xef2081df685c50aab54d3c8925d756ac3d5a8e3e8205ace17b9b9887a4181567",
  "args": [
    "0x1De8CFD4C1A486200286073aE91DE6e8099519f1"
  ],
  "solcInputHash": "cebcb515c1a9c570d96e0b8f6fd237e2",
  "bytecode": "0x608060405234801561001057600080fd5b506040516104463803806104468339818101604052602081101561003357600080fd5b5051600080546001600160a01b039092166001600160a01b03199092169190911790556103e1806100656000396000f3fe608060405234801561001057600080fd5b50600436106100935760003560e01c8063abfbbe1311610066578063abfbbe13146101f4578063bc2f8dd814610226578063c5b6aa2f14610226578063d0e30db014610226578063dc6453dc1461022e57610093565b806302ad4d2a146100985780631e16e92f146100d25780631e83409a1461010c578063461a447814610132575b600080fd5b6100be600480360360208110156100ae57600080fd5b50356001600160a01b031661026c565b604080519115158252519081900360200190f35b61010a600480360360808110156100e857600080fd5b508035906020810135906001600160a01b0360408201351690606001356102b7565b005b61010a6004803603602081101561012257600080fd5b50356001600160a01b03166102bd565b6101d86004803603602081101561014857600080fd5b81019060208101813564010000000081111561016357600080fd5b82018360208201111561017557600080fd5b8035906020019184600183028401116401000000008311171561019757600080fd5b91908080601f0160208091040260200160405190810160405280939291908181526020018383808284376000920191909152509295506102c0945050505050565b604080516001600160a01b039092168252519081900360200190f35b61010a6004803603606081101561020a57600080fd5b508035906001600160a01b03602082013516906040013561039c565b61010a6103a1565b61025a6004803603604081101561024457600080fd5b50803590602001356001600160a01b03166103a3565b60408051918252519081900360200190f35b600061029c6040518060400160405280600d81526020016c27ab26afa9b2b8bab2b731b2b960991b8152506102c0565b6001600160a01b0316826001600160a01b0316149050919050565b50505050565b50565b6000805460405163bf40fac160e01b81526020600482018181528551602484015285516001600160a01b039094169363bf40fac19387938392604490920191908501908083838b5b83811015610320578181015183820152602001610308565b50505050905090810190601f16801561034d5780820380516001836020036101000a031916815260200191505b509250505060206040518083038186803b15801561036a57600080fd5b505afa15801561037e573d6000803e3d6000fd5b505050506040513d602081101561039457600080fd5b505192915050565b505050565b565b60009291505056fea26469706673582212203f0728d2ffd5e87f3b2f160e5704cc5c07ae231349c1c6286f6360e26317c39b64736f6c63430007060033",
  "devdoc": {
    "kind": "dev",
    "methods": {},
    "title": "mockOVM_BondManager",
    "version": 1
  },
  "userdoc": {
    "kind": "user",
    "methods": {},
    "version": 1
  },
  "storageLayout": {
    "storage": [
      {
        "astId": 11707,
        "contract": "contracts/optimistic-ethereum/mockOVM/verification/mockOVM_BondManager.sol:mockOVM_BondManager",
        "label": "libAddressManager",
        "offset": 0,
        "slot": "0",
        "type": "t_contract(Lib_AddressManager)11700"
      }
    ],
    "types": {
      "t_contract(Lib_AddressManager)11700": {
        "encoding": "inplace",
        "label": "contract Lib_AddressManager",
        "numberOfBytes": "20"
      }
    }
  }
}