{
  "_format": "hh-sol-artifact-1",
  "contractName": "OVM_L2ToL1MessagePasser",
  "sourceName": "contracts/optimistic-ethereum/OVM/predeploys/OVM_L2ToL1MessagePasser.sol",
  "abi": [
    {
      "anonymous": false,
      "inputs": [
        {
          "indexed": false,
          "internalType": "uint256",
          "name": "_nonce",
          "type": "uint256"
        },
        {
          "indexed": false,
          "internalType": "address",
          "name": "_sender",
          "type": "address"
        },
        {
          "indexed": false,
          "internalType": "bytes",
          "name": "_data",
          "type": "bytes"
        }
      ],
      "name": "L2ToL1Message",
      "type": "event"
    },
    {
      "inputs": [
        {
          "internalType": "bytes",
          "name": "_message",
          "type": "bytes"
        }
      ],
      "name": "passMessageToL1",
      "outputs": [],
      "stateMutability": "nonpayable",
      "type": "function"
    },
    {
      "inputs": [
        {
          "internalType": "bytes32",
          "name": "",
          "type": "bytes32"
        }
      ],
      "name": "sentMessages",
      "outputs": [
        {
          "internalType": "bool",
          "name": "",
          "type": "bool"
        }
      ],
      "stateMutability": "view",
      "type": "function"
    }
  ],
  "bytecode": "0x60806040523480156100195760008061001661001f565b50505b5061008a565b632a2a7adb598160e01b8152600481016020815285602082015260005b8681101561005757808601518282016040015260200161003c565b506020828760640184336000905af158600e01573d6000803e3d6000fd5b3d6001141558600a015760016000f35b505050565b61039b806100996000396000f3fe60806040523480156100195760008061001661023c565b50505b506004361061003f5760003560e01c806382e3702d1461004d578063cafa81dc14610087575b60008061004a61023c565b50505b6100736004803603602081101561006c5760008061006961023c565b50505b5035610152565b604051901515815260200160405180910390f35b610150600480360360208110156100a6576000806100a361023c565b50505b8101906020810181356401000000008111156100ca576000806100c761023c565b50505b8201836020820111156100e5576000806100e261023c565b50505b803590602001918460018302840111640100000000831117156101105760008061010d61023c565b50505b91908080601f0160208091040260200160405190810160405281815292919060208401838380828437600092019190915250929550610179945050505050565b005b60006020528060005260406000206000915061016c6102a7565b906101000a900460ff1681565b6001600080835a610188610307565b6040516020018083805190602001908083835b602083106101ba5780518252601f19909201916020918201910161019b565b6001836020036101000a038019825116818451168082178552505050505050905001826001600160a01b031660601b8152601401925050506040516020818303038152906040528051906020012081526020019081526020016000206001816102216102a7565b8160ff0219169083151502179061023661034d565b50505050565b632a2a7adb598160e01b8152600481016020815285602082015260005b86811015610274578086015182820160400152602001610259565b506020828760640184336000905af158600e01573d6000803e3d6000fd5b3d6001141558600a015760016000f35b505050565b6303daa959598160e01b8152836004820152602081602483336000905af158600e01573d6000803e3d6000fd5b3d6001141558600a015760016000f35b8051935060005b6040811015610302576000828201526020016102eb565b505050565b6373509064598160e01b8152602081600483336000905af158600e01573d6000803e3d6000fd5b3d6001141558600a015760016000f35b805160008252935060206102eb565b6322bd64c0598160e01b8152836004820152846024820152600081604483336000905af158600e01573d6000803e3d6000fd5b3d6001141558600a015760016000f35b6000815260206102eb56",
  "linkReferences": {},
  "deployedLinkReferences": {}
}