{
  "address": "0x59CEB9118fe47dDCBe3d7Cf1729e7123494C55ec",
  "abi": [
    {
      "inputs": [
        {
          "components": [
            {
              "components": [
                {
                  "internalType": "contract AddressManager",
                  "name": "addressManager",
                  "type": "address"
                },
                {
                  "internalType": "contract ProxyAdmin",
                  "name": "proxyAdmin",
                  "type": "address"
                },
                {
                  "internalType": "address",
                  "name": "controller",
                  "type": "address"
                },
                {
                  "internalType": "address",
                  "name": "finalOwner",
                  "type": "address"
                }
              ],
              "internalType": "struct BaseSystemDictator.GlobalConfig",
              "name": "globalConfig",
              "type": "tuple"
            },
            {
              "components": [
                {
                  "internalType": "address",
                  "name": "l2OutputOracleProxy",
                  "type": "address"
                },
                {
                  "internalType": "address",
                  "name": "batchInboxProxy",
                  "type": "address"
                },
                {
                  "internalType": "address",
                  "name": "optimismPortalProxy",
                  "type": "address"
                },
                {
                  "internalType": "address",
                  "name": "l1CrossDomainMessengerProxy",
                  "type": "address"
                },
                {
                  "internalType": "address",
                  "name": "l1StandardBridgeProxy",
                  "type": "address"
                },
                {
                  "internalType": "address",
                  "name": "optimismMintableERC20FactoryProxy",
                  "type": "address"
                },
                {
                  "internalType": "address",
                  "name": "l1ERC721BridgeProxy",
                  "type": "address"
                },
                {
                  "internalType": "address",
                  "name": "systemConfigProxy",
                  "type": "address"
                }
              ],
              "internalType": "struct BaseSystemDictator.ProxyAddressConfig",
              "name": "proxyAddressConfig",
              "type": "tuple"
            },
            {
              "components": [
                {
                  "internalType": "contract L2OutputOracle",
                  "name": "l2OutputOracleImpl",
                  "type": "address"
                },
                {
                  "internalType": "contract BatchInbox",
                  "name": "batchInboxImpl",
                  "type": "address"
                },
                {
                  "internalType": "contract OptimismPortal",
                  "name": "optimismPortalImpl",
                  "type": "address"
                },
                {
                  "internalType": "contract L1CrossDomainMessenger",
                  "name": "l1CrossDomainMessengerImpl",
                  "type": "address"
                },
                {
                  "internalType": "contract L1StandardBridge",
                  "name": "l1StandardBridgeImpl",
                  "type": "address"
                },
                {
                  "internalType": "contract OptimismMintableERC20Factory",
                  "name": "optimismMintableERC20FactoryImpl",
                  "type": "address"
                },
                {
                  "internalType": "contract L1ERC721Bridge",
                  "name": "l1ERC721BridgeImpl",
                  "type": "address"
                },
                {
                  "internalType": "contract PortalSender",
                  "name": "portalSenderImpl",
                  "type": "address"
                },
                {
                  "internalType": "contract SystemConfig",
                  "name": "systemConfigImpl",
                  "type": "address"
                }
              ],
              "internalType": "struct BaseSystemDictator.ImplementationAddressConfig",
              "name": "implementationAddressConfig",
              "type": "tuple"
            },
            {
              "components": [
                {
                  "internalType": "bytes32",
                  "name": "l2OutputOracleGenesisL2Output",
                  "type": "bytes32"
                },
                {
                  "internalType": "address",
                  "name": "l2OutputOracleProposer",
                  "type": "address"
                },
                {
                  "internalType": "address",
                  "name": "l2OutputOracleOwner",
                  "type": "address"
                }
              ],
              "internalType": "struct BaseSystemDictator.L2OutputOracleConfig",
              "name": "l2OutputOracleConfig",
              "type": "tuple"
            },
            {
              "components": [
                {
                  "internalType": "address",
                  "name": "batchInboxProposer",
                  "type": "address"
                },
                {
                  "internalType": "address",
                  "name": "batchInboxOwner",
                  "type": "address"
                }
              ],
              "internalType": "struct BaseSystemDictator.BatchInboxConfig",
              "name": "batchInboxConfig",
              "type": "tuple"
            },
            {
              "components": [
                {
                  "internalType": "address",
                  "name": "owner",
                  "type": "address"
                },
                {
                  "internalType": "uint256",
                  "name": "overhead",
                  "type": "uint256"
                },
                {
                  "internalType": "uint256",
                  "name": "scalar",
                  "type": "uint256"
                },
                {
                  "internalType": "bytes32",
                  "name": "batcherHash",
                  "type": "bytes32"
                },
                {
                  "internalType": "uint64",
                  "name": "gasLimit",
                  "type": "uint64"
                }
              ],
              "internalType": "struct BaseSystemDictator.SystemConfigConfig",
              "name": "systemConfigConfig",
              "type": "tuple"
            }
          ],
          "internalType": "struct BaseSystemDictator.DeployConfig",
          "name": "_config",
          "type": "tuple"
        }
      ],
      "stateMutability": "nonpayable",
      "type": "constructor"
    },
    {
      "anonymous": false,
      "inputs": [
        {
          "indexed": true,
          "internalType": "address",
          "name": "previousOwner",
          "type": "address"
        },
        {
          "indexed": true,
          "internalType": "address",
          "name": "newOwner",
          "type": "address"
        }
      ],
      "name": "OwnershipTransferred",
      "type": "event"
    },
    {
      "inputs": [],
      "name": "config",
      "outputs": [
        {
          "components": [
            {
              "internalType": "contract AddressManager",
              "name": "addressManager",
              "type": "address"
            },
            {
              "internalType": "contract ProxyAdmin",
              "name": "proxyAdmin",
              "type": "address"
            },
            {
              "internalType": "address",
              "name": "controller",
              "type": "address"
            },
            {
              "internalType": "address",
              "name": "finalOwner",
              "type": "address"
            }
          ],
          "internalType": "struct BaseSystemDictator.GlobalConfig",
          "name": "globalConfig",
          "type": "tuple"
        },
        {
          "components": [
            {
              "internalType": "address",
              "name": "l2OutputOracleProxy",
              "type": "address"
            },
            {
              "internalType": "address",
              "name": "batchInboxProxy",
              "type": "address"
            },
            {
              "internalType": "address",
              "name": "optimismPortalProxy",
              "type": "address"
            },
            {
              "internalType": "address",
              "name": "l1CrossDomainMessengerProxy",
              "type": "address"
            },
            {
              "internalType": "address",
              "name": "l1StandardBridgeProxy",
              "type": "address"
            },
            {
              "internalType": "address",
              "name": "optimismMintableERC20FactoryProxy",
              "type": "address"
            },
            {
              "internalType": "address",
              "name": "l1ERC721BridgeProxy",
              "type": "address"
            },
            {
              "internalType": "address",
              "name": "systemConfigProxy",
              "type": "address"
            }
          ],
          "internalType": "struct BaseSystemDictator.ProxyAddressConfig",
          "name": "proxyAddressConfig",
          "type": "tuple"
        },
        {
          "components": [
            {
              "internalType": "contract L2OutputOracle",
              "name": "l2OutputOracleImpl",
              "type": "address"
            },
            {
              "internalType": "contract BatchInbox",
              "name": "batchInboxImpl",
              "type": "address"
            },
            {
              "internalType": "contract OptimismPortal",
              "name": "optimismPortalImpl",
              "type": "address"
            },
            {
              "internalType": "contract L1CrossDomainMessenger",
              "name": "l1CrossDomainMessengerImpl",
              "type": "address"
            },
            {
              "internalType": "contract L1StandardBridge",
              "name": "l1StandardBridgeImpl",
              "type": "address"
            },
            {
              "internalType": "contract OptimismMintableERC20Factory",
              "name": "optimismMintableERC20FactoryImpl",
              "type": "address"
            },
            {
              "internalType": "contract L1ERC721Bridge",
              "name": "l1ERC721BridgeImpl",
              "type": "address"
            },
            {
              "internalType": "contract PortalSender",
              "name": "portalSenderImpl",
              "type": "address"
            },
            {
              "internalType": "contract SystemConfig",
              "name": "systemConfigImpl",
              "type": "address"
            }
          ],
          "internalType": "struct BaseSystemDictator.ImplementationAddressConfig",
          "name": "implementationAddressConfig",
          "type": "tuple"
        },
        {
          "components": [
            {
              "internalType": "bytes32",
              "name": "l2OutputOracleGenesisL2Output",
              "type": "bytes32"
            },
            {
              "internalType": "address",
              "name": "l2OutputOracleProposer",
              "type": "address"
            },
            {
              "internalType": "address",
              "name": "l2OutputOracleOwner",
              "type": "address"
            }
          ],
          "internalType": "struct BaseSystemDictator.L2OutputOracleConfig",
          "name": "l2OutputOracleConfig",
          "type": "tuple"
        },
        {
          "components": [
            {
              "internalType": "address",
              "name": "batchInboxProposer",
              "type": "address"
            },
            {
              "internalType": "address",
              "name": "batchInboxOwner",
              "type": "address"
            }
          ],
          "internalType": "struct BaseSystemDictator.BatchInboxConfig",
          "name": "batchInboxConfig",
          "type": "tuple"
        },
        {
          "components": [
            {
              "internalType": "address",
              "name": "owner",
              "type": "address"
            },
            {
              "internalType": "uint256",
              "name": "overhead",
              "type": "uint256"
            },
            {
              "internalType": "uint256",
              "name": "scalar",
              "type": "uint256"
            },
            {
              "internalType": "bytes32",
              "name": "batcherHash",
              "type": "bytes32"
            },
            {
              "internalType": "uint64",
              "name": "gasLimit",
              "type": "uint64"
            }
          ],
          "internalType": "struct BaseSystemDictator.SystemConfigConfig",
          "name": "systemConfigConfig",
          "type": "tuple"
        }
      ],
      "stateMutability": "view",
      "type": "function"
    },
    {
      "inputs": [],
      "name": "currentStep",
      "outputs": [
        {
          "internalType": "uint8",
          "name": "",
          "type": "uint8"
        }
      ],
      "stateMutability": "view",
      "type": "function"
    },
    {
      "inputs": [],
      "name": "owner",
      "outputs": [
        {
          "internalType": "address",
          "name": "",
          "type": "address"
        }
      ],
      "stateMutability": "view",
      "type": "function"
    },
    {
      "inputs": [],
      "name": "renounceOwnership",
      "outputs": [],
      "stateMutability": "nonpayable",
      "type": "function"
    },
    {
      "inputs": [],
      "name": "step1",
      "outputs": [],
      "stateMutability": "nonpayable",
      "type": "function"
    },
    {
      "inputs": [],
      "name": "step2",
      "outputs": [],
      "stateMutability": "nonpayable",
      "type": "function"
    },
    {
      "inputs": [
        {
          "internalType": "address",
          "name": "newOwner",
          "type": "address"
        }
      ],
      "name": "transferOwnership",
      "outputs": [],
      "stateMutability": "nonpayable",
      "type": "function"
    }
  ],
  "transactionHash": "0x5d7eb98c7e7281f3c179ff7f24fe41bb093ec098585830887909e872f97d89b6",
  "args": [
    {
      "globalConfig": {
        "proxyAdmin": "0x9aA43C039499DACe1bd193FB78E74b70C67c604E",
        "controller": "0x98532a459370F99B583164aEab56C2E7303335C6",
        "finalOwner": "0x3071b919a37D3217fA19d54f8E1a08AEC4d8eB4e",
        "addressManager": "0x0000000000000000000000000000000000000000"
      },
      "proxyAddressConfig": {
        "l2OutputOracleProxy": "0xd0955fE3079e4ce7a5f86CcC10e45C72523AD0eC",
        "optimismPortalProxy": "0xaf0F971cB6036ABcA42aBd6d821D820f40C1e73E",
        "l1CrossDomainMessengerProxy": "0xdA418b0d7856d48E6515224607f10dDA94d73996",
        "l1StandardBridgeProxy": "0xd2aa457eb204eD42aF20DC43C24718Ffc8b2fc27",
        "optimismMintableERC20FactoryProxy": "0x162E1070fbF0DC055800144D7ac3e90299f67430",
        "l1ERC721BridgeProxy": "0xC9D871721c9259c3A89730399cEef063a173DE40",
        "systemConfigProxy": "0x4D9d8d0A0D70767a05E55068d122eCcd41Ea2780",
        "batchInboxProxy": "0x32957A82E438411C44ad97f1F9518162Bd0Da8aa"
      },
      "implementationAddressConfig": {
        "l2OutputOracleImpl": "0x30074b7025Fc8F750cbf188E3E85504151E9d828",
        "optimismPortalImpl": "0xE156666bc38C757acd8231a3fD1cb48cAdF7c283",
        "batchInboxImpl": "0xea588C6720a55A2da882cafe556acd340A2ddC57",
        "l1CrossDomainMessengerImpl": "0xba07bF05A41Cd8F4F51839E19391210f224E42Ca",
        "l1StandardBridgeImpl": "0xC654cE40912CDF8AB56258aEbb7538bAf5551d89",
        "optimismMintableERC20FactoryImpl": "0x0790559714a2393f3c051C53b371999deb8ae1d2",
        "l1ERC721BridgeImpl": "0xb6087425BC41e714B1D850f0bE9FCB5bA9048013",
        "portalSenderImpl": "0x5FC50c524D506F7b5DB6d9e823D5E3E9a8252b66",
        "systemConfigImpl": "0x27C90be1D072aA38bc4a24c56bE9151E4EB9DFe7"
      },
      "l2OutputOracleConfig": {
        "l2OutputOracleGenesisL2Output": "0x1111111111111111111111111111111111111111111111111111111111111111",
        "l2OutputOracleProposer": "0x70997970C51812dc3A010C7d01b50e0d17dc79C8",
        "l2OutputOracleOwner": "0x3071b919a37D3217fA19d54f8E1a08AEC4d8eB4e"
      },
      "batchInboxConfig": {
        "batchInboxProposer": "0x3C44CdDdB6a900fa2b585dd299e03d12FA4293BC",
        "batchInboxOwner": "0x3071b919a37D3217fA19d54f8E1a08AEC4d8eB4e"
      },
      "systemConfigConfig": {
        "owner": "0xa0Ee7A142d267C1f36714E4a8F75612F20a79720",
        "overhead": 2100,
        "scalar": 6,
        "batcherHash": "0x0000000000000000000000003C44CdDdB6a900fa2b585dd299e03d12FA4293BC",
        "gasLimit": "0xE4E1C0"
      }
    }
  ],
  "numDeployments": 1,
  "solcInputHash": "c74cbed3b24ef40aff859e90c966a38a",
  "bytecode": "0x60806040526020805460ff191660011790553480156200001e57600080fd5b50604051620019d4380380620019d483398101604081905262000041916200071a565b806200004d33620002b3565b80518051600180546001600160a01b03199081166001600160a01b0393841617909155602080840151600280548416918516919091179055604080850151600380548516918616918217905560609586015160048054861691871691909117905582870151805160058054871691881691909117905580840151600680548716918816919091179055808301516007805487169188169190911790558087015160088054871691881691909117905560808082015160098054881691891691909117905560a080830151600a80548916918a1691909117905560c080840151600b80548a16918b1691909117905560e093840151600c80548a16918b16919091179055858b01518051600d80548b16918c1691909117905580880151600e80548b16918c1691909117905580870151600f80548b16918c16919091179055808b0151601080548b16918c1691909117905580840151601180548b16918c1691909117905580830151601280548b16918c1691909117905590810151601380548a16918b1691909117905592830151601480548916918a169190911790556101009092015160158054881691891691909117905587890151805160165580860151601780548916918a16919091179055840151601880548816918916919091179055808901518051601980548916918a16919091179055850151601a80548816918916919091179055908801518051601b805490971697169690961790945591840151601c55830151601d5592820151601e550151601f80546001600160401b0319166001600160401b03909216919091179055620002ab90620002b3565b505062000815565b600080546001600160a01b038381166001600160a01b0319831681178455604051919092169283917f8be0079c531659141344cd1fd0a4f28419497f9722a3daafe3b4186f6b6457e09190a35050565b60405161012081016001600160401b03811182821017156200033557634e487b7160e01b600052604160045260246000fd5b60405290565b60405160c081016001600160401b03811182821017156200033557634e487b7160e01b600052604160045260246000fd5b604051608081016001600160401b03811182821017156200033557634e487b7160e01b600052604160045260246000fd5b6001600160a01b0381168114620003b357600080fd5b50565b8051620003c3816200039d565b919050565b6000610100808385031215620003dd57600080fd5b604051908101906001600160401b03821181831017156200040e57634e487b7160e01b600052604160045260246000fd5b816040528092508351915062000424826200039d565b8181526200043560208501620003b6565b60208201526200044860408501620003b6565b60408201526200045b60608501620003b6565b60608201526200046e60808501620003b6565b60808201526200048160a08501620003b6565b60a08201526200049460c08501620003b6565b60c0820152620004a760e08501620003b6565b60e0820152505092915050565b60006101208284031215620004c857600080fd5b620004d262000303565b9050620004df82620003b6565b8152620004ef60208301620003b6565b60208201526200050260408301620003b6565b60408201526200051560608301620003b6565b60608201526200052860808301620003b6565b60808201526200053b60a08301620003b6565b60a08201526200054e60c08301620003b6565b60c08201526200056160e08301620003b6565b60e082015261010062000576818401620003b6565b9082015292915050565b6000606082840312156200059357600080fd5b604051606081016001600160401b0381118282101715620005c457634e487b7160e01b600052604160045260246000fd5b8060405250809150825181526020830151620005e0816200039d565b60208201526040830151620005f5816200039d565b6040919091015292915050565b6000604082840312156200061557600080fd5b604080519081016001600160401b03811182821017156200064657634e487b7160e01b600052604160045260246000fd5b806040525080915082516200065b816200039d565b815260208301516200066d816200039d565b6020919091015292915050565b600060a082840312156200068d57600080fd5b60405160a081016001600160401b038082118383101715620006bf57634e487b7160e01b600052604160045260246000fd5b8160405282935084519150620006d5826200039d565b8183526020850151602084015260408501516040840152606085015160608401526080850151915080821682146200070c57600080fd5b506080919091015292915050565b60008183036103e08112156200072f57600080fd5b620007396200033b565b60808212156200074857600080fd5b620007526200036c565b9150835162000761816200039d565b8252602084015162000773816200039d565b6020830152604084015162000788816200039d565b604083015260608401516200079d816200039d565b6060830152818152620007b48560808601620003c8565b6020820152620007c9856101808601620004b4565b6040820152620007de856102a0860162000580565b6060820152620007f385610300860162000602565b6080820152620008088561034086016200067a565b60a0820152949350505050565b6111af80620008256000396000f3fe608060405234801561001057600080fd5b506004361061007d5760003560e01c80638da5cb5b1161005b5780638da5cb5b1461024c5780638f4ed33314610274578063d40a71fb1461027c578063f2fde38b1461028457600080fd5b80635bc34f7114610082578063715018a6146100a657806379502c55146100b0575b600080fd5b60205461008f9060ff1681565b60405160ff90911681526020015b60405180910390f35b6100ae610297565b005b604080516080808201835260015473ffffffffffffffffffffffffffffffffffffffff9081168352600254811660208085019190915260035482168486015260045482166060808601919091528551610100818101885260055485168252600654851682850152600754851682890152600854851682840152600954851682870152600a54851660a080840191909152600b54861660c080850191909152600c54871660e0808601919091528a5161012081018c52600d5489168152600e54891681890152600f548916818d01526010548916818801526011548916818b015260125489168185015260135489169281019290925260145488169082015260155487169281019290925288518085018a5260165481526017548716818701526018548716818b01528951808b018b5260195488168152601a548816818801528a519283018b52601b549097168252601c5495820195909552601d5498810198909852601e5492880192909252601f5467ffffffffffffffff169487019490945261023a9590929086565b60405161009d96959493929190610eb6565b60005460405173ffffffffffffffffffffffffffffffffffffffff909116815260200161009d565b6100ae6102ab565b6100ae61040b565b6100ae610292366004611082565b610beb565b61029f610ca2565b6102a96000610d23565b565b6102b3610ca2565b60205460029060ff16811461034f576040517f08c379a000000000000000000000000000000000000000000000000000000000815260206004820152602260248201527f4261736553797374656d4469637461746f723a20696e636f727265637420737460448201527f657000000000000000000000000000000000000000000000000000000000000060648201526084015b60405180910390fd5b600254600480546040517ff2fde38b00000000000000000000000000000000000000000000000000000000815273ffffffffffffffffffffffffffffffffffffffff918216928101929092529091169063f2fde38b906024015b600060405180830381600087803b1580156103c357600080fd5b505af11580156103d7573d6000803e3d6000fd5b50506020805460ff169250905060006103ef836110bf565b91906101000a81548160ff021916908360ff1602179055505050565b610413610ca2565b60205460019060ff1681146104aa576040517f08c379a000000000000000000000000000000000000000000000000000000000815260206004820152602260248201527f4261736553797374656d4469637461746f723a20696e636f727265637420737460448201527f65700000000000000000000000000000000000000000000000000000000000006064820152608401610346565b600254600554600d54601654601754601854604051602481019390935273ffffffffffffffffffffffffffffffffffffffff91821660448401528116606483015293841693639623609d938116921690608401604080517fffffffffffffffffffffffffffffffffffffffffffffffffffffffffffffffe08184030181529181526020820180517bffffffffffffffffffffffffffffffffffffffffffffffffffffffff167f88b117b300000000000000000000000000000000000000000000000000000000179052517fffffffff0000000000000000000000000000000000000000000000000000000060e086901b1681526105ac93929190600401611105565b600060405180830381600087803b1580156105c657600080fd5b505af11580156105da573d6000803e3d6000fd5b5050600254600654600e54601954601a5460405173ffffffffffffffffffffffffffffffffffffffff928316602482015290821660448201529381169550639623609d945091821692911690606401604080517fffffffffffffffffffffffffffffffffffffffffffffffffffffffffffffffe08184030181529181526020820180517bffffffffffffffffffffffffffffffffffffffffffffffffffffffff167f485cc95500000000000000000000000000000000000000000000000000000000179052517fffffffff0000000000000000000000000000000000000000000000000000000060e086901b1681526106d893929190600401611105565b600060405180830381600087803b1580156106f257600080fd5b505af1158015610706573d6000803e3d6000fd5b5050600254600754600f546040805160048082526024820183526020820180517bffffffffffffffffffffffffffffffffffffffffffffffffffffffff167f8129fc1c0000000000000000000000000000000000000000000000000000000017905291517f9623609d00000000000000000000000000000000000000000000000000000000815273ffffffffffffffffffffffffffffffffffffffff9586169750639623609d96506107c395948516949390931692909101611105565b600060405180830381600087803b1580156107dd57600080fd5b505af11580156107f1573d6000803e3d6000fd5b505060025460085460105460045460405173ffffffffffffffffffffffffffffffffffffffff91821660248201529381169550639623609d945091821692911690604401604080517fffffffffffffffffffffffffffffffffffffffffffffffffffffffffffffffe08184030181529181526020820180517bffffffffffffffffffffffffffffffffffffffffffffffffffffffff167fc4d66de800000000000000000000000000000000000000000000000000000000179052517fffffffff0000000000000000000000000000000000000000000000000000000060e086901b1681526108e493929190600401611105565b600060405180830381600087803b1580156108fe57600080fd5b505af1158015610912573d6000803e3d6000fd5b50506002546009546011546040517f99a88ec400000000000000000000000000000000000000000000000000000000815273ffffffffffffffffffffffffffffffffffffffff92831660048201529082166024820152911692506399a88ec49150604401600060405180830381600087803b15801561099057600080fd5b505af11580156109a4573d6000803e3d6000fd5b5050600254600a546012546040517f99a88ec400000000000000000000000000000000000000000000000000000000815273ffffffffffffffffffffffffffffffffffffffff92831660048201529082166024820152911692506399a88ec49150604401600060405180830381600087803b158015610a2257600080fd5b505af1158015610a36573d6000803e3d6000fd5b5050600254600b546013546040517f99a88ec400000000000000000000000000000000000000000000000000000000815273ffffffffffffffffffffffffffffffffffffffff92831660048201529082166024820152911692506399a88ec49150604401600060405180830381600087803b158015610ab457600080fd5b505af1158015610ac8573d6000803e3d6000fd5b5050600254600c54601554601b54601c54601d54601e54601f5460405173ffffffffffffffffffffffffffffffffffffffff958616602482015260448101949094526064840192909252608483015267ffffffffffffffff1660a48201529381169550639623609d94509182169291169060c401604080517fffffffffffffffffffffffffffffffffffffffffffffffffffffffffffffffe08184030181529181526020820180517bffffffffffffffffffffffffffffffffffffffffffffffffffffffff167f70bde19c00000000000000000000000000000000000000000000000000000000179052517fffffffff0000000000000000000000000000000000000000000000000000000060e086901b1681526103a993929190600401611105565b610bf3610ca2565b73ffffffffffffffffffffffffffffffffffffffff8116610c96576040517f08c379a000000000000000000000000000000000000000000000000000000000815260206004820152602660248201527f4f776e61626c653a206e6577206f776e657220697320746865207a65726f206160448201527f64647265737300000000000000000000000000000000000000000000000000006064820152608401610346565b610c9f81610d23565b50565b60005473ffffffffffffffffffffffffffffffffffffffff1633146102a9576040517f08c379a000000000000000000000000000000000000000000000000000000000815260206004820181905260248201527f4f776e61626c653a2063616c6c6572206973206e6f7420746865206f776e65726044820152606401610346565b6000805473ffffffffffffffffffffffffffffffffffffffff8381167fffffffffffffffffffffffff0000000000000000000000000000000000000000831681178455604051919092169283917f8be0079c531659141344cd1fd0a4f28419497f9722a3daafe3b4186f6b6457e09190a35050565b73ffffffffffffffffffffffffffffffffffffffff808251168352806020830151166020840152806040830151166040840152506060810151610df3606084018273ffffffffffffffffffffffffffffffffffffffff169052565b506080810151610e1b608084018273ffffffffffffffffffffffffffffffffffffffff169052565b5060a0810151610e4360a084018273ffffffffffffffffffffffffffffffffffffffff169052565b5060c0810151610e6b60c084018273ffffffffffffffffffffffffffffffffffffffff169052565b5060e0810151610e9360e084018273ffffffffffffffffffffffffffffffffffffffff169052565b506101009081015173ffffffffffffffffffffffffffffffffffffffff16910152565b865173ffffffffffffffffffffffffffffffffffffffff90811682526020808901518216818401526040808a01518316818501526060808b015184168186015289518416608086015291890151831660a0850152880151821660c084015287015190811660e08301526103e082019050608087015173ffffffffffffffffffffffffffffffffffffffff81166101008401525060a087015173ffffffffffffffffffffffffffffffffffffffff81166101208401525060c087015173ffffffffffffffffffffffffffffffffffffffff81166101408401525060e087015173ffffffffffffffffffffffffffffffffffffffff811661016084015250610fc0610180830187610d98565b84516102a0830152602085015173ffffffffffffffffffffffffffffffffffffffff9081166102c08401526040860151166102e0830152835173ffffffffffffffffffffffffffffffffffffffff908116610300840152602085015116610320830152825173ffffffffffffffffffffffffffffffffffffffff166103408301526020830151610360830152604083015161038083015260608301516103a0830152608083015167ffffffffffffffff166103c0830152979650505050505050565b60006020828403121561109457600080fd5b813573ffffffffffffffffffffffffffffffffffffffff811681146110b857600080fd5b9392505050565b600060ff821660ff81036110fc577f4e487b7100000000000000000000000000000000000000000000000000000000600052601160045260246000fd5b60010192915050565b600073ffffffffffffffffffffffffffffffffffffffff8086168352602081861681850152606060408501528451915081606085015260005b8281101561115a5785810182015185820160800152810161113e565b8281111561116c576000608084870101525b5050601f017fffffffffffffffffffffffffffffffffffffffffffffffffffffffffffffffe0169190910160800194935050505056fea164736f6c634300080f000a",
  "devdoc": {
    "version": 1,
    "kind": "dev",
    "methods": {
      "constructor": {
        "params": {
          "_config": "System configuration."
        }
      },
      "owner()": {
        "details": "Returns the address of the current owner."
      },
      "renounceOwnership()": {
        "details": "Leaves the contract without owner. It will not be possible to call `onlyOwner` functions anymore. Can only be called by the current owner. NOTE: Renouncing ownership will leave the contract without an owner, thereby removing any functionality that is only available to the owner."
      },
      "transferOwnership(address)": {
        "details": "Transfers ownership of the contract to a new account (`newOwner`). Can only be called by the current owner."
      }
    },
    "title": "FreshSystemDictator"
  },
  "userdoc": {
    "version": 1,
    "kind": "user",
    "methods": {
      "config()": {
        "notice": "System configuration."
      },
      "currentStep()": {
        "notice": "Current step;"
      },
      "step1()": {
        "notice": "Upgrades and initializes proxy contracts."
      },
      "step2()": {
        "notice": "Transfers ownership to final owner."
      }
    },
    "notice": "The FreshSystemDictator is responsible for coordinating initialization of a fresh         deployment of the Optimism system. We expect that all proxies and implementations         already be deployed before this contract is used."
  },
  "storageLayout": {
    "storage": [
      {
        "astId": 30139,
        "contract": "contracts/deployment/FreshSystemDictator.sol:FreshSystemDictator",
        "label": "_owner",
        "offset": 0,
        "slot": "0",
        "type": "t_address"
      },
      {
        "astId": 3675,
        "contract": "contracts/deployment/FreshSystemDictator.sol:FreshSystemDictator",
        "label": "config",
        "offset": 0,
        "slot": "1",
        "type": "t_struct(SystemConfig)3671_storage"
      },
      {
        "astId": 3679,
        "contract": "contracts/deployment/FreshSystemDictator.sol:FreshSystemDictator",
        "label": "currentStep",
        "offset": 0,
        "slot": "25",
        "type": "t_uint8"
      }
    ],
    "types": {
      "t_address": {
        "encoding": "inplace",
        "label": "address",
        "numberOfBytes": "20"
      },
      "t_bytes32": {
        "encoding": "inplace",
        "label": "bytes32",
        "numberOfBytes": "32"
      },
      "t_contract(AddressManager)4677": {
        "encoding": "inplace",
        "label": "contract AddressManager",
        "numberOfBytes": "20"
      },
      "t_contract(BatchInbox)155": {
        "encoding": "inplace",
        "label": "contract BatchInbox",
        "numberOfBytes": "20"
      },
      "t_contract(L1CrossDomainMessenger)291": {
        "encoding": "inplace",
        "label": "contract L1CrossDomainMessenger",
        "numberOfBytes": "20"
      },
      "t_contract(L1ERC721Bridge)491": {
        "encoding": "inplace",
        "label": "contract L1ERC721Bridge",
        "numberOfBytes": "20"
      },
      "t_contract(L1StandardBridge)819": {
        "encoding": "inplace",
        "label": "contract L1StandardBridge",
        "numberOfBytes": "20"
      },
      "t_contract(L2OutputOracle)1300": {
        "encoding": "inplace",
        "label": "contract L2OutputOracle",
        "numberOfBytes": "20"
      },
      "t_contract(OptimismMintableERC20Factory)27489": {
        "encoding": "inplace",
        "label": "contract OptimismMintableERC20Factory",
        "numberOfBytes": "20"
      },
      "t_contract(OptimismPortal)1722": {
        "encoding": "inplace",
        "label": "contract OptimismPortal",
        "numberOfBytes": "20"
      },
      "t_contract(PortalSender)4589": {
        "encoding": "inplace",
        "label": "contract PortalSender",
        "numberOfBytes": "20"
      },
      "t_contract(ProxyAdmin)28574": {
        "encoding": "inplace",
        "label": "contract ProxyAdmin",
        "numberOfBytes": "20"
      },
      "t_struct(BatchInboxConfig)3655_storage": {
        "encoding": "inplace",
        "label": "struct BaseSystemDictator.BatchInboxConfig",
        "numberOfBytes": "64",
        "members": [
          {
            "astId": 3652,
            "contract": "contracts/deployment/FreshSystemDictator.sol:FreshSystemDictator",
            "label": "batchInboxProposer",
            "offset": 0,
            "slot": "0",
            "type": "t_address"
          },
          {
            "astId": 3654,
            "contract": "contracts/deployment/FreshSystemDictator.sol:FreshSystemDictator",
            "label": "batchInboxOwner",
            "offset": 0,
            "slot": "1",
            "type": "t_address"
          }
        ]
      },
      "t_struct(GlobalConfig)3603_storage": {
        "encoding": "inplace",
        "label": "struct BaseSystemDictator.GlobalConfig",
        "numberOfBytes": "128",
        "members": [
          {
            "astId": 3595,
            "contract": "contracts/deployment/FreshSystemDictator.sol:FreshSystemDictator",
            "label": "addressManager",
            "offset": 0,
            "slot": "0",
            "type": "t_contract(AddressManager)4677"
          },
          {
            "astId": 3598,
            "contract": "contracts/deployment/FreshSystemDictator.sol:FreshSystemDictator",
            "label": "proxyAdmin",
            "offset": 0,
            "slot": "1",
            "type": "t_contract(ProxyAdmin)28574"
          },
          {
            "astId": 3600,
            "contract": "contracts/deployment/FreshSystemDictator.sol:FreshSystemDictator",
            "label": "controller",
            "offset": 0,
            "slot": "2",
            "type": "t_address"
          },
          {
            "astId": 3602,
            "contract": "contracts/deployment/FreshSystemDictator.sol:FreshSystemDictator",
            "label": "finalOwner",
            "offset": 0,
            "slot": "3",
            "type": "t_address"
          }
        ]
      },
      "t_struct(ImplementationAddressConfig)3643_storage": {
        "encoding": "inplace",
        "label": "struct BaseSystemDictator.ImplementationAddressConfig",
        "numberOfBytes": "256",
        "members": [
          {
            "astId": 3621,
            "contract": "contracts/deployment/FreshSystemDictator.sol:FreshSystemDictator",
            "label": "l2OutputOracleImpl",
            "offset": 0,
            "slot": "0",
            "type": "t_contract(L2OutputOracle)1300"
          },
          {
            "astId": 3624,
            "contract": "contracts/deployment/FreshSystemDictator.sol:FreshSystemDictator",
            "label": "batchInboxImpl",
            "offset": 0,
            "slot": "1",
            "type": "t_contract(BatchInbox)155"
          },
          {
            "astId": 3627,
            "contract": "contracts/deployment/FreshSystemDictator.sol:FreshSystemDictator",
            "label": "optimismPortalImpl",
            "offset": 0,
            "slot": "2",
            "type": "t_contract(OptimismPortal)1722"
          },
          {
            "astId": 3630,
            "contract": "contracts/deployment/FreshSystemDictator.sol:FreshSystemDictator",
            "label": "l1CrossDomainMessengerImpl",
            "offset": 0,
            "slot": "3",
            "type": "t_contract(L1CrossDomainMessenger)291"
          },
          {
            "astId": 3633,
            "contract": "contracts/deployment/FreshSystemDictator.sol:FreshSystemDictator",
            "label": "l1StandardBridgeImpl",
            "offset": 0,
            "slot": "4",
            "type": "t_contract(L1StandardBridge)819"
          },
          {
            "astId": 3636,
            "contract": "contracts/deployment/FreshSystemDictator.sol:FreshSystemDictator",
            "label": "optimismMintableERC20FactoryImpl",
            "offset": 0,
            "slot": "5",
            "type": "t_contract(OptimismMintableERC20Factory)27489"
          },
          {
            "astId": 3639,
            "contract": "contracts/deployment/FreshSystemDictator.sol:FreshSystemDictator",
            "label": "l1ERC721BridgeImpl",
            "offset": 0,
            "slot": "6",
            "type": "t_contract(L1ERC721Bridge)491"
          },
          {
            "astId": 3642,
            "contract": "contracts/deployment/FreshSystemDictator.sol:FreshSystemDictator",
            "label": "portalSenderImpl",
            "offset": 0,
            "slot": "7",
            "type": "t_contract(PortalSender)4589"
          }
        ]
      },
      "t_struct(L2OutputOracleConfig)3650_storage": {
        "encoding": "inplace",
        "label": "struct BaseSystemDictator.L2OutputOracleConfig",
        "numberOfBytes": "96",
        "members": [
          {
            "astId": 3645,
            "contract": "contracts/deployment/FreshSystemDictator.sol:FreshSystemDictator",
            "label": "l2OutputOracleGenesisL2Output",
            "offset": 0,
            "slot": "0",
            "type": "t_bytes32"
          },
          {
            "astId": 3647,
            "contract": "contracts/deployment/FreshSystemDictator.sol:FreshSystemDictator",
            "label": "l2OutputOracleProposer",
            "offset": 0,
            "slot": "1",
            "type": "t_address"
          },
          {
            "astId": 3649,
            "contract": "contracts/deployment/FreshSystemDictator.sol:FreshSystemDictator",
            "label": "l2OutputOracleOwner",
            "offset": 0,
            "slot": "2",
            "type": "t_address"
          }
        ]
      },
      "t_struct(ProxyAddressConfig)3618_storage": {
        "encoding": "inplace",
        "label": "struct BaseSystemDictator.ProxyAddressConfig",
        "numberOfBytes": "224",
        "members": [
          {
            "astId": 3605,
            "contract": "contracts/deployment/FreshSystemDictator.sol:FreshSystemDictator",
            "label": "l2OutputOracleProxy",
            "offset": 0,
            "slot": "0",
            "type": "t_address"
          },
          {
            "astId": 3607,
            "contract": "contracts/deployment/FreshSystemDictator.sol:FreshSystemDictator",
            "label": "batchInboxProxy",
            "offset": 0,
            "slot": "1",
            "type": "t_address"
          },
          {
            "astId": 3609,
            "contract": "contracts/deployment/FreshSystemDictator.sol:FreshSystemDictator",
            "label": "optimismPortalProxy",
            "offset": 0,
            "slot": "2",
            "type": "t_address"
          },
          {
            "astId": 3611,
            "contract": "contracts/deployment/FreshSystemDictator.sol:FreshSystemDictator",
            "label": "l1CrossDomainMessengerProxy",
            "offset": 0,
            "slot": "3",
            "type": "t_address"
          },
          {
            "astId": 3613,
            "contract": "contracts/deployment/FreshSystemDictator.sol:FreshSystemDictator",
            "label": "l1StandardBridgeProxy",
            "offset": 0,
            "slot": "4",
            "type": "t_address"
          },
          {
            "astId": 3615,
            "contract": "contracts/deployment/FreshSystemDictator.sol:FreshSystemDictator",
            "label": "optimismMintableERC20FactoryProxy",
            "offset": 0,
            "slot": "5",
            "type": "t_address"
          },
          {
            "astId": 3617,
            "contract": "contracts/deployment/FreshSystemDictator.sol:FreshSystemDictator",
            "label": "l1ERC721BridgeProxy",
            "offset": 0,
            "slot": "6",
            "type": "t_address"
          }
        ]
      },
      "t_struct(SystemConfig)3671_storage": {
        "encoding": "inplace",
        "label": "struct BaseSystemDictator.SystemConfig",
        "numberOfBytes": "768",
        "members": [
          {
            "astId": 3658,
            "contract": "contracts/deployment/FreshSystemDictator.sol:FreshSystemDictator",
            "label": "globalConfig",
            "offset": 0,
            "slot": "0",
            "type": "t_struct(GlobalConfig)3603_storage"
          },
          {
            "astId": 3661,
            "contract": "contracts/deployment/FreshSystemDictator.sol:FreshSystemDictator",
            "label": "proxyAddressConfig",
            "offset": 0,
            "slot": "4",
            "type": "t_struct(ProxyAddressConfig)3618_storage"
          },
          {
            "astId": 3664,
            "contract": "contracts/deployment/FreshSystemDictator.sol:FreshSystemDictator",
            "label": "implementationAddressConfig",
            "offset": 0,
            "slot": "11",
            "type": "t_struct(ImplementationAddressConfig)3643_storage"
          },
          {
            "astId": 3667,
            "contract": "contracts/deployment/FreshSystemDictator.sol:FreshSystemDictator",
            "label": "l2OutputOracleConfig",
            "offset": 0,
            "slot": "19",
            "type": "t_struct(L2OutputOracleConfig)3650_storage"
          },
          {
            "astId": 3670,
            "contract": "contracts/deployment/FreshSystemDictator.sol:FreshSystemDictator",
            "label": "batchInboxConfig",
            "offset": 0,
            "slot": "22",
            "type": "t_struct(BatchInboxConfig)3655_storage"
          }
        ]
      },
      "t_uint8": {
        "encoding": "inplace",
        "label": "uint8",
        "numberOfBytes": "1"
      }
    }
  }
}