{
  "address": "0x545CB23c98095a8e98D6b561baAB6bb0d86317C4",
  "abi": [
    {
      "inputs": [
        {
          "components": [
            {
              "components": [
                {
                  "internalType": "contract AddressManager",
                  "name": "addressManager",
                  "type": "address"
                },
                {
                  "internalType": "contract ProxyAdmin",
                  "name": "proxyAdmin",
                  "type": "address"
                },
                {
                  "internalType": "address",
                  "name": "controller",
                  "type": "address"
                },
                {
                  "internalType": "address",
                  "name": "finalOwner",
                  "type": "address"
                }
              ],
              "internalType": "struct BaseSystemDictator.GlobalConfig",
              "name": "globalConfig",
              "type": "tuple"
            },
            {
              "components": [
                {
                  "internalType": "address",
                  "name": "l2OutputOracleProxy",
                  "type": "address"
                },
                {
                  "internalType": "address",
                  "name": "optimismPortalProxy",
                  "type": "address"
                },
                {
                  "internalType": "address",
                  "name": "l1CrossDomainMessengerProxy",
                  "type": "address"
                },
                {
                  "internalType": "address",
                  "name": "l1StandardBridgeProxy",
                  "type": "address"
                },
                {
                  "internalType": "address",
                  "name": "optimismMintableERC20FactoryProxy",
                  "type": "address"
                },
                {
                  "internalType": "address",
                  "name": "l1ERC721BridgeProxy",
                  "type": "address"
                },
                {
                  "internalType": "address",
                  "name": "systemConfigProxy",
                  "type": "address"
                }
              ],
              "internalType": "struct BaseSystemDictator.ProxyAddressConfig",
              "name": "proxyAddressConfig",
              "type": "tuple"
            },
            {
              "components": [
                {
                  "internalType": "contract L2OutputOracle",
                  "name": "l2OutputOracleImpl",
                  "type": "address"
                },
                {
                  "internalType": "contract OptimismPortal",
                  "name": "optimismPortalImpl",
                  "type": "address"
                },
                {
                  "internalType": "contract L1CrossDomainMessenger",
                  "name": "l1CrossDomainMessengerImpl",
                  "type": "address"
                },
                {
                  "internalType": "contract L1StandardBridge",
                  "name": "l1StandardBridgeImpl",
                  "type": "address"
                },
                {
                  "internalType": "contract OptimismMintableERC20Factory",
                  "name": "optimismMintableERC20FactoryImpl",
                  "type": "address"
                },
                {
                  "internalType": "contract L1ERC721Bridge",
                  "name": "l1ERC721BridgeImpl",
                  "type": "address"
                },
                {
                  "internalType": "contract PortalSender",
                  "name": "portalSenderImpl",
                  "type": "address"
                },
                {
                  "internalType": "contract SystemConfig",
                  "name": "systemConfigImpl",
                  "type": "address"
                }
              ],
              "internalType": "struct BaseSystemDictator.ImplementationAddressConfig",
              "name": "implementationAddressConfig",
              "type": "tuple"
            },
            {
              "components": [
                {
                  "internalType": "bytes32",
                  "name": "l2OutputOracleGenesisL2Output",
                  "type": "bytes32"
                },
                {
                  "internalType": "address",
                  "name": "l2OutputOracleProposer",
                  "type": "address"
                },
                {
                  "internalType": "address",
                  "name": "l2OutputOracleOwner",
                  "type": "address"
                }
              ],
              "internalType": "struct BaseSystemDictator.L2OutputOracleConfig",
              "name": "l2OutputOracleConfig",
              "type": "tuple"
            },
            {
              "components": [
                {
                  "internalType": "address",
                  "name": "owner",
                  "type": "address"
                },
                {
                  "internalType": "uint256",
                  "name": "overhead",
                  "type": "uint256"
                },
                {
                  "internalType": "uint256",
                  "name": "scalar",
                  "type": "uint256"
                },
                {
                  "internalType": "bytes32",
                  "name": "batcherHash",
                  "type": "bytes32"
                },
                {
                  "internalType": "uint64",
                  "name": "gasLimit",
                  "type": "uint64"
                }
              ],
              "internalType": "struct BaseSystemDictator.SystemConfigConfig",
              "name": "systemConfigConfig",
              "type": "tuple"
            }
          ],
          "internalType": "struct BaseSystemDictator.DeployConfig",
          "name": "_config",
          "type": "tuple"
        }
      ],
      "stateMutability": "nonpayable",
      "type": "constructor"
    },
    {
      "anonymous": false,
      "inputs": [
        {
          "indexed": true,
          "internalType": "address",
          "name": "previousOwner",
          "type": "address"
        },
        {
          "indexed": true,
          "internalType": "address",
          "name": "newOwner",
          "type": "address"
        }
      ],
      "name": "OwnershipTransferred",
      "type": "event"
    },
    {
      "inputs": [],
      "name": "config",
      "outputs": [
        {
          "components": [
            {
              "internalType": "contract AddressManager",
              "name": "addressManager",
              "type": "address"
            },
            {
              "internalType": "contract ProxyAdmin",
              "name": "proxyAdmin",
              "type": "address"
            },
            {
              "internalType": "address",
              "name": "controller",
              "type": "address"
            },
            {
              "internalType": "address",
              "name": "finalOwner",
              "type": "address"
            }
          ],
          "internalType": "struct BaseSystemDictator.GlobalConfig",
          "name": "globalConfig",
          "type": "tuple"
        },
        {
          "components": [
            {
              "internalType": "address",
              "name": "l2OutputOracleProxy",
              "type": "address"
            },
            {
              "internalType": "address",
              "name": "optimismPortalProxy",
              "type": "address"
            },
            {
              "internalType": "address",
              "name": "l1CrossDomainMessengerProxy",
              "type": "address"
            },
            {
              "internalType": "address",
              "name": "l1StandardBridgeProxy",
              "type": "address"
            },
            {
              "internalType": "address",
              "name": "optimismMintableERC20FactoryProxy",
              "type": "address"
            },
            {
              "internalType": "address",
              "name": "l1ERC721BridgeProxy",
              "type": "address"
            },
            {
              "internalType": "address",
              "name": "systemConfigProxy",
              "type": "address"
            }
          ],
          "internalType": "struct BaseSystemDictator.ProxyAddressConfig",
          "name": "proxyAddressConfig",
          "type": "tuple"
        },
        {
          "components": [
            {
              "internalType": "contract L2OutputOracle",
              "name": "l2OutputOracleImpl",
              "type": "address"
            },
            {
              "internalType": "contract OptimismPortal",
              "name": "optimismPortalImpl",
              "type": "address"
            },
            {
              "internalType": "contract L1CrossDomainMessenger",
              "name": "l1CrossDomainMessengerImpl",
              "type": "address"
            },
            {
              "internalType": "contract L1StandardBridge",
              "name": "l1StandardBridgeImpl",
              "type": "address"
            },
            {
              "internalType": "contract OptimismMintableERC20Factory",
              "name": "optimismMintableERC20FactoryImpl",
              "type": "address"
            },
            {
              "internalType": "contract L1ERC721Bridge",
              "name": "l1ERC721BridgeImpl",
              "type": "address"
            },
            {
              "internalType": "contract PortalSender",
              "name": "portalSenderImpl",
              "type": "address"
            },
            {
              "internalType": "contract SystemConfig",
              "name": "systemConfigImpl",
              "type": "address"
            }
          ],
          "internalType": "struct BaseSystemDictator.ImplementationAddressConfig",
          "name": "implementationAddressConfig",
          "type": "tuple"
        },
        {
          "components": [
            {
              "internalType": "bytes32",
              "name": "l2OutputOracleGenesisL2Output",
              "type": "bytes32"
            },
            {
              "internalType": "address",
              "name": "l2OutputOracleProposer",
              "type": "address"
            },
            {
              "internalType": "address",
              "name": "l2OutputOracleOwner",
              "type": "address"
            }
          ],
          "internalType": "struct BaseSystemDictator.L2OutputOracleConfig",
          "name": "l2OutputOracleConfig",
          "type": "tuple"
        },
        {
          "components": [
            {
              "internalType": "address",
              "name": "owner",
              "type": "address"
            },
            {
              "internalType": "uint256",
              "name": "overhead",
              "type": "uint256"
            },
            {
              "internalType": "uint256",
              "name": "scalar",
              "type": "uint256"
            },
            {
              "internalType": "bytes32",
              "name": "batcherHash",
              "type": "bytes32"
            },
            {
              "internalType": "uint64",
              "name": "gasLimit",
              "type": "uint64"
            }
          ],
          "internalType": "struct BaseSystemDictator.SystemConfigConfig",
          "name": "systemConfigConfig",
          "type": "tuple"
        }
      ],
      "stateMutability": "view",
      "type": "function"
    },
    {
      "inputs": [],
      "name": "currentStep",
      "outputs": [
        {
          "internalType": "uint8",
          "name": "",
          "type": "uint8"
        }
      ],
      "stateMutability": "view",
      "type": "function"
    },
    {
      "inputs": [],
      "name": "owner",
      "outputs": [
        {
          "internalType": "address",
          "name": "",
          "type": "address"
        }
      ],
      "stateMutability": "view",
      "type": "function"
    },
    {
      "inputs": [],
      "name": "renounceOwnership",
      "outputs": [],
      "stateMutability": "nonpayable",
      "type": "function"
    },
    {
      "inputs": [],
      "name": "step1",
      "outputs": [],
      "stateMutability": "nonpayable",
      "type": "function"
    },
    {
      "inputs": [],
      "name": "step2",
      "outputs": [],
      "stateMutability": "nonpayable",
      "type": "function"
    },
    {
      "inputs": [
        {
          "internalType": "address",
          "name": "newOwner",
          "type": "address"
        }
      ],
      "name": "transferOwnership",
      "outputs": [],
      "stateMutability": "nonpayable",
      "type": "function"
    }
  ],
  "transactionHash": "0x4b5be1d69ad1631d83781e7c274af3b0828c8725135b75aac88ffc5467633a5a",
  "args": [
    {
      "globalConfig": {
        "proxyAdmin": "0x677CB0Eba0FC01F65E05F82C218027d8dcb9B99f",
        "controller": "0x2d30335B0b807bBa1682C487BaAFD2Ad6da5D675",
        "finalOwner": "0x4b7713e96645506661Ba4097A52c41ea9c9404Dc",
        "addressManager": "0x0000000000000000000000000000000000000000"
      },
      "proxyAddressConfig": {
        "l2OutputOracleProxy": "0xAc92cEc51dFA387F37590Bc1DC049F50AB99D8eC",
        "optimismPortalProxy": "0xf91795564662DcC9a17de67463ec5BA9C6DC207b",
        "l1CrossDomainMessengerProxy": "0x3e654CBd61711dC9D114b61813846b6401695f07",
        "l1StandardBridgeProxy": "0x3F0135534453CEC0eA94187C62bF80EF21dc9C91",
        "optimismMintableERC20FactoryProxy": "0xC9E9D0EaBD09B8AD6a4ace95a098a49a7550E7A4",
        "l1ERC721BridgeProxy": "0x550D68323Ec7CbA3D568e6C695B4609d450e5670",
        "systemConfigProxy": "0x686dF068eaa71aF78DadC1C427e35600E0FADaC5"
      },
      "implementationAddressConfig": {
        "l2OutputOracleImpl": "0x388a75C49a2C45F69be3925616fbb1f52313f287",
        "optimismPortalImpl": "0x3287F5c18237DBb24588854f77fF977254Ee1037",
        "l1CrossDomainMessengerImpl": "0x7BE679072aA579278D5e70665E3FfD38C470A778",
        "l1StandardBridgeImpl": "0x25E4731aC3ee613290A54fB52060e404341f9e4d",
        "optimismMintableERC20FactoryImpl": "0x5E83A814A3d78362Eea9dE2725443Ae8f1eC5A6f",
        "l1ERC721BridgeImpl": "0xeDB153028E711Fcde54d2FcDc3cac72B593528c2",
        "portalSenderImpl": "0x558777af921ac97F9f55A1d527e79482109AFD0a",
        "systemConfigImpl": "0xB8ed4737d1a7187F3A8CC7AAf811BcCBDEF9b6Cb"
      },
      "l2OutputOracleConfig": {
        "l2OutputOracleGenesisL2Output": "0x0000000000000000000000000000000000000000000000000000000000000000",
        "l2OutputOracleProposer": "0xD10ccc78A70E2889DD7Df23bCDa033242c2598F1",
        "l2OutputOracleOwner": "0xE0Da8292dc53D4Bb6666149519e490DbA6BaB84c"
      },
      "systemConfigConfig": {
        "owner": "0xBD0DfF9E6C479616242AB1b5240f28194005FAcb",
        "overhead": 2100,
        "scalar": 6,
        "batcherHash": "0x000000000000000000000000793b6822fd651aF8c58039847bE64cb9EE854Bc9",
        "gasLimit": "0x1C9C380"
      }
    }
  ],
  "numDeployments": 1,
  "solcInputHash": "f03954feb6b4fcdc2b053c61321aa16e",
  "bytecode": "0x6080604052601c805460ff191660011790553480156200001e57600080fd5b506040516200163c3803806200163c833981016040819052620000419162000600565b806200004d3362000263565b80518051600180546001600160a01b03199081166001600160a01b0393841617909155602080840151600280548416918516919091179055604080850151600380548516918616918217905560609586015160048054861691871691909117905582870151805160058054871691881691909117905580840151600680548716918816919091179055808301516007805487169188169190911790558087015160088054871691881691909117905560808082015160098054881691891691909117905560a080830151600a80548916918a1691909117905560c092830151600b80548916918a16919091179055848a01518051600c80548a16918b1691909117905580870151600d80548a16918b1691909117905580860151600e80548a16918b16919091179055808a0151600f80548a16918b1691909117905580830151601080548a16918b1691909117905590810151601180548916918a169190911790559182015160128054881691891691909117905560e09091015160138054871691881691909117905586880151805160145580850151601580548816918916919091179055830151601680548716918816919091179055808801518051601780549097169716969096179094559184015160185583015160195592820151601a550151601b80546001600160401b0319166001600160401b039092169190911790556200025b9062000263565b5050620006e6565b600080546001600160a01b038381166001600160a01b0319831681178455604051919092169283917f8be0079c531659141344cd1fd0a4f28419497f9722a3daafe3b4186f6b6457e09190a35050565b60405160a081016001600160401b0381118282101715620002e457634e487b7160e01b600052604160045260246000fd5b60405290565b604051608081016001600160401b0381118282101715620002e457634e487b7160e01b600052604160045260246000fd5b6001600160a01b03811681146200033157600080fd5b50565b805162000341816200031b565b919050565b600060e082840312156200035957600080fd5b60405160e081016001600160401b03811182821017156200038a57634e487b7160e01b600052604160045260246000fd5b806040525080915082516200039f816200031b565b81526020830151620003b1816200031b565b60208201526040830151620003c6816200031b565b60408201526060830151620003db816200031b565b6060820152620003ee6080840162000334565b60808201526200040160a0840162000334565b60a08201526200041460c0840162000334565b60c08201525092915050565b60006101008083850312156200043557600080fd5b604051908101906001600160401b03821181831017156200046657634e487b7160e01b600052604160045260246000fd5b81604052809250835191506200047c826200031b565b8181526200048d6020850162000334565b6020820152620004a06040850162000334565b6040820152620004b36060850162000334565b6060820152620004c66080850162000334565b6080820152620004d960a0850162000334565b60a0820152620004ec60c0850162000334565b60c0820152620004ff60e0850162000334565b60e0820152505092915050565b6000606082840312156200051f57600080fd5b604051606081016001600160401b03811182821017156200055057634e487b7160e01b600052604160045260246000fd5b80604052508091508251815260208301516200056c816200031b565b6020820152604083015162000581816200031b565b6040919091015292915050565b600060a08284031215620005a157600080fd5b620005ab620002b3565b90508151620005ba816200031b565b815260208281015190820152604080830151908201526060808301519082015260808201516001600160401b0381168114620005f557600080fd5b608082015292915050565b60008183036103608112156200061557600080fd5b6200061f620002b3565b60808212156200062e57600080fd5b62000638620002ea565b9150835162000647816200031b565b8252602084015162000659816200031b565b602083015260408401516200066e816200031b565b6040830152606084015162000683816200031b565b60608301528181526200069a856080860162000346565b6020820152620006af85610160860162000420565b6040820152620006c48561026086016200050c565b6060820152620006d9856102c086016200058e565b6080820152949350505050565b610f4680620006f66000396000f3fe608060405234801561001057600080fd5b506004361061007d5760003560e01c80638da5cb5b1161005b5780638da5cb5b1461021b5780638f4ed33314610243578063d40a71fb1461024b578063f2fde38b1461025357600080fd5b80635bc34f7114610082578063715018a6146100a657806379502c55146100b0575b600080fd5b601c5461008f9060ff1681565b60405160ff90911681526020015b60405180910390f35b6100ae610266565b005b604080516080808201835260015473ffffffffffffffffffffffffffffffffffffffff908116835260025481166020808501919091526003548216848601526004548216606080860191909152855160e0808201885260055485168252600654851682850152600754851682890152600854851682840152600954851682870152600a54851660a080840191909152600b54861660c080850191909152895161010081018b52600c5488168152600d54881681880152600e548816818c0152600f548816818701526010548816818a015260115488168184015260125488169181019190915260135487169281019290925288518085018a5260145481526015548716818701526016548716818b015289519182018a5260175490961681526018549481019490945260195497840197909752601a5491830191909152601b5467ffffffffffffffff169382019390935261020a94919085565b60405161009d959493929190610c3b565b60005460405173ffffffffffffffffffffffffffffffffffffffff909116815260200161009d565b6100ae61027a565b6100ae6103da565b6100ae610261366004610e19565b610a8e565b61026e610b45565b6102786000610bc6565b565b610282610b45565b601c5460029060ff16811461031e576040517f08c379a000000000000000000000000000000000000000000000000000000000815260206004820152602260248201527f4261736553797374656d4469637461746f723a20696e636f727265637420737460448201527f657000000000000000000000000000000000000000000000000000000000000060648201526084015b60405180910390fd5b600254600480546040517ff2fde38b00000000000000000000000000000000000000000000000000000000815273ffffffffffffffffffffffffffffffffffffffff918216928101929092529091169063f2fde38b906024015b600060405180830381600087803b15801561039257600080fd5b505af11580156103a6573d6000803e3d6000fd5b5050601c805460ff169250905060006103be83610e56565b91906101000a81548160ff021916908360ff1602179055505050565b6103e2610b45565b601c5460019060ff168114610479576040517f08c379a000000000000000000000000000000000000000000000000000000000815260206004820152602260248201527f4261736553797374656d4469637461746f723a20696e636f727265637420737460448201527f65700000000000000000000000000000000000000000000000000000000000006064820152608401610315565b600254600554600c54601454601554601654604051602481019390935273ffffffffffffffffffffffffffffffffffffffff91821660448401528116606483015293841693639623609d938116921690608401604080517fffffffffffffffffffffffffffffffffffffffffffffffffffffffffffffffe08184030181529181526020820180517bffffffffffffffffffffffffffffffffffffffffffffffffffffffff167f88b117b300000000000000000000000000000000000000000000000000000000179052517fffffffff0000000000000000000000000000000000000000000000000000000060e086901b16815261057b93929190600401610e9c565b600060405180830381600087803b15801561059557600080fd5b505af11580156105a9573d6000803e3d6000fd5b5050600254600654600d546040805160048082526024820183526020820180517bffffffffffffffffffffffffffffffffffffffffffffffffffffffff167f8129fc1c0000000000000000000000000000000000000000000000000000000017905291517f9623609d00000000000000000000000000000000000000000000000000000000815273ffffffffffffffffffffffffffffffffffffffff9586169750639623609d965061066695948516949390931692909101610e9c565b600060405180830381600087803b15801561068057600080fd5b505af1158015610694573d6000803e3d6000fd5b5050600254600754600e5460045460405173ffffffffffffffffffffffffffffffffffffffff91821660248201529381169550639623609d945091821692911690604401604080517fffffffffffffffffffffffffffffffffffffffffffffffffffffffffffffffe08184030181529181526020820180517bffffffffffffffffffffffffffffffffffffffffffffffffffffffff167fc4d66de800000000000000000000000000000000000000000000000000000000179052517fffffffff0000000000000000000000000000000000000000000000000000000060e086901b16815261078793929190600401610e9c565b600060405180830381600087803b1580156107a157600080fd5b505af11580156107b5573d6000803e3d6000fd5b5050600254600854600f546040517f99a88ec400000000000000000000000000000000000000000000000000000000815273ffffffffffffffffffffffffffffffffffffffff92831660048201529082166024820152911692506399a88ec49150604401600060405180830381600087803b15801561083357600080fd5b505af1158015610847573d6000803e3d6000fd5b50506002546009546010546040517f99a88ec400000000000000000000000000000000000000000000000000000000815273ffffffffffffffffffffffffffffffffffffffff92831660048201529082166024820152911692506399a88ec49150604401600060405180830381600087803b1580156108c557600080fd5b505af11580156108d9573d6000803e3d6000fd5b5050600254600a546011546040517f99a88ec400000000000000000000000000000000000000000000000000000000815273ffffffffffffffffffffffffffffffffffffffff92831660048201529082166024820152911692506399a88ec49150604401600060405180830381600087803b15801561095757600080fd5b505af115801561096b573d6000803e3d6000fd5b5050600254600b54601354601754601854601954601a54601b5460405173ffffffffffffffffffffffffffffffffffffffff958616602482015260448101949094526064840192909252608483015267ffffffffffffffff1660a48201529381169550639623609d94509182169291169060c401604080517fffffffffffffffffffffffffffffffffffffffffffffffffffffffffffffffe08184030181529181526020820180517bffffffffffffffffffffffffffffffffffffffffffffffffffffffff167f70bde19c00000000000000000000000000000000000000000000000000000000179052517fffffffff0000000000000000000000000000000000000000000000000000000060e086901b16815261037893929190600401610e9c565b610a96610b45565b73ffffffffffffffffffffffffffffffffffffffff8116610b39576040517f08c379a000000000000000000000000000000000000000000000000000000000815260206004820152602660248201527f4f776e61626c653a206e6577206f776e657220697320746865207a65726f206160448201527f64647265737300000000000000000000000000000000000000000000000000006064820152608401610315565b610b4281610bc6565b50565b60005473ffffffffffffffffffffffffffffffffffffffff163314610278576040517f08c379a000000000000000000000000000000000000000000000000000000000815260206004820181905260248201527f4f776e61626c653a2063616c6c6572206973206e6f7420746865206f776e65726044820152606401610315565b6000805473ffffffffffffffffffffffffffffffffffffffff8381167fffffffffffffffffffffffff0000000000000000000000000000000000000000831681178455604051919092169283917f8be0079c531659141344cd1fd0a4f28419497f9722a3daafe3b4186f6b6457e09190a35050565b60006103608201905073ffffffffffffffffffffffffffffffffffffffff8088511683528060208901511660208401528060408901511660408401528060608901511660608401528087511660808401528060208801511660a08401528060408801511660c08401528060608801511660e0840152806080880151166101008401525060a0860151610ce661012084018273ffffffffffffffffffffffffffffffffffffffff169052565b5060c086015173ffffffffffffffffffffffffffffffffffffffff811661014084015250845173ffffffffffffffffffffffffffffffffffffffff90811661016084015260208601518116610180840152604086015181166101a0840152606086015181166101c0840152608086015181166101e084015260a0860151811661020084015260c0860151811661022084015260e0860151166102408301528351610260830152602084015173ffffffffffffffffffffffffffffffffffffffff9081166102808401526040850151166102a0830152825173ffffffffffffffffffffffffffffffffffffffff166102c083015260208301516102e083015260408301516103008301526060830151610320830152608083015167ffffffffffffffff166103408301529695505050505050565b600060208284031215610e2b57600080fd5b813573ffffffffffffffffffffffffffffffffffffffff81168114610e4f57600080fd5b9392505050565b600060ff821660ff8103610e93577f4e487b7100000000000000000000000000000000000000000000000000000000600052601160045260246000fd5b60010192915050565b600073ffffffffffffffffffffffffffffffffffffffff8086168352602081861681850152606060408501528451915081606085015260005b82811015610ef157858101820151858201608001528101610ed5565b82811115610f03576000608084870101525b5050601f017fffffffffffffffffffffffffffffffffffffffffffffffffffffffffffffffe0169190910160800194935050505056fea164736f6c634300080f000a",
  "devdoc": {
    "version": 1,
    "kind": "dev",
    "methods": {
      "constructor": {
        "params": {
          "_config": "System configuration."
        }
      },
      "owner()": {
        "details": "Returns the address of the current owner."
      },
      "renounceOwnership()": {
        "details": "Leaves the contract without owner. It will not be possible to call `onlyOwner` functions anymore. Can only be called by the current owner. NOTE: Renouncing ownership will leave the contract without an owner, thereby removing any functionality that is only available to the owner."
      },
      "transferOwnership(address)": {
        "details": "Transfers ownership of the contract to a new account (`newOwner`). Can only be called by the current owner."
      }
    },
    "title": "FreshSystemDictator"
  },
  "userdoc": {
    "version": 1,
    "kind": "user",
    "methods": {
      "config()": {
        "notice": "System configuration."
      },
      "currentStep()": {
        "notice": "Current step;"
      },
      "step1()": {
        "notice": "Upgrades and initializes proxy contracts."
      },
      "step2()": {
        "notice": "Transfers ownership to final owner."
      }
    },
    "notice": "The FreshSystemDictator is responsible for coordinating initialization of a fresh         deployment of the Optimism system. We expect that all proxies and implementations         already be deployed before this contract is used."
  },
  "storageLayout": {
    "storage": [
      {
        "astId": 30552,
        "contract": "contracts/deployment/FreshSystemDictator.sol:FreshSystemDictator",
        "label": "_owner",
        "offset": 0,
        "slot": "0",
        "type": "t_address"
      },
      {
        "astId": 3582,
        "contract": "contracts/deployment/FreshSystemDictator.sol:FreshSystemDictator",
        "label": "config",
        "offset": 0,
        "slot": "1",
        "type": "t_struct(DeployConfig)3578_storage"
      },
      {
        "astId": 3586,
        "contract": "contracts/deployment/FreshSystemDictator.sol:FreshSystemDictator",
        "label": "currentStep",
        "offset": 0,
        "slot": "28",
        "type": "t_uint8"
      }
    ],
    "types": {
      "t_address": {
        "encoding": "inplace",
        "label": "address",
        "numberOfBytes": "20"
      },
      "t_bytes32": {
        "encoding": "inplace",
        "label": "bytes32",
        "numberOfBytes": "32"
      },
      "t_contract(AddressManager)4565": {
        "encoding": "inplace",
        "label": "contract AddressManager",
        "numberOfBytes": "20"
      },
      "t_contract(L1CrossDomainMessenger)135": {
        "encoding": "inplace",
        "label": "contract L1CrossDomainMessenger",
        "numberOfBytes": "20"
      },
      "t_contract(L1ERC721Bridge)335": {
        "encoding": "inplace",
        "label": "contract L1ERC721Bridge",
        "numberOfBytes": "20"
      },
      "t_contract(L1StandardBridge)663": {
        "encoding": "inplace",
        "label": "contract L1StandardBridge",
        "numberOfBytes": "20"
      },
      "t_contract(L2OutputOracle)1097": {
        "encoding": "inplace",
        "label": "contract L2OutputOracle",
        "numberOfBytes": "20"
      },
      "t_contract(OptimismMintableERC20Factory)27827": {
        "encoding": "inplace",
        "label": "contract OptimismMintableERC20Factory",
        "numberOfBytes": "20"
      },
      "t_contract(OptimismPortal)1624": {
        "encoding": "inplace",
        "label": "contract OptimismPortal",
        "numberOfBytes": "20"
      },
      "t_contract(PortalSender)4477": {
        "encoding": "inplace",
        "label": "contract PortalSender",
        "numberOfBytes": "20"
      },
      "t_contract(ProxyAdmin)28915": {
        "encoding": "inplace",
        "label": "contract ProxyAdmin",
        "numberOfBytes": "20"
      },
      "t_contract(SystemConfig)2149": {
        "encoding": "inplace",
        "label": "contract SystemConfig",
        "numberOfBytes": "20"
      },
      "t_struct(DeployConfig)3578_storage": {
        "encoding": "inplace",
        "label": "struct BaseSystemDictator.DeployConfig",
        "numberOfBytes": "864",
        "members": [
          {
            "astId": 3565,
            "contract": "contracts/deployment/FreshSystemDictator.sol:FreshSystemDictator",
            "label": "globalConfig",
            "offset": 0,
            "slot": "0",
            "type": "t_struct(GlobalConfig)3504_storage"
          },
          {
            "astId": 3568,
            "contract": "contracts/deployment/FreshSystemDictator.sol:FreshSystemDictator",
            "label": "proxyAddressConfig",
            "offset": 0,
            "slot": "4",
            "type": "t_struct(ProxyAddressConfig)3519_storage"
          },
          {
            "astId": 3571,
            "contract": "contracts/deployment/FreshSystemDictator.sol:FreshSystemDictator",
            "label": "implementationAddressConfig",
            "offset": 0,
            "slot": "11",
            "type": "t_struct(ImplementationAddressConfig)3544_storage"
          },
          {
            "astId": 3574,
            "contract": "contracts/deployment/FreshSystemDictator.sol:FreshSystemDictator",
            "label": "l2OutputOracleConfig",
            "offset": 0,
            "slot": "19",
            "type": "t_struct(L2OutputOracleConfig)3551_storage"
          },
          {
            "astId": 3577,
            "contract": "contracts/deployment/FreshSystemDictator.sol:FreshSystemDictator",
            "label": "systemConfigConfig",
            "offset": 0,
            "slot": "22",
            "type": "t_struct(SystemConfigConfig)3562_storage"
          }
        ]
      },
      "t_struct(GlobalConfig)3504_storage": {
        "encoding": "inplace",
        "label": "struct BaseSystemDictator.GlobalConfig",
        "numberOfBytes": "128",
        "members": [
          {
            "astId": 3496,
            "contract": "contracts/deployment/FreshSystemDictator.sol:FreshSystemDictator",
            "label": "addressManager",
            "offset": 0,
            "slot": "0",
            "type": "t_contract(AddressManager)4565"
          },
          {
            "astId": 3499,
            "contract": "contracts/deployment/FreshSystemDictator.sol:FreshSystemDictator",
            "label": "proxyAdmin",
            "offset": 0,
            "slot": "1",
            "type": "t_contract(ProxyAdmin)28915"
          },
          {
            "astId": 3501,
            "contract": "contracts/deployment/FreshSystemDictator.sol:FreshSystemDictator",
            "label": "controller",
            "offset": 0,
            "slot": "2",
            "type": "t_address"
          },
          {
            "astId": 3503,
            "contract": "contracts/deployment/FreshSystemDictator.sol:FreshSystemDictator",
            "label": "finalOwner",
            "offset": 0,
            "slot": "3",
            "type": "t_address"
          }
        ]
      },
      "t_struct(ImplementationAddressConfig)3544_storage": {
        "encoding": "inplace",
        "label": "struct BaseSystemDictator.ImplementationAddressConfig",
        "numberOfBytes": "256",
        "members": [
          {
            "astId": 3522,
            "contract": "contracts/deployment/FreshSystemDictator.sol:FreshSystemDictator",
            "label": "l2OutputOracleImpl",
            "offset": 0,
            "slot": "0",
            "type": "t_contract(L2OutputOracle)1097"
          },
          {
            "astId": 3525,
            "contract": "contracts/deployment/FreshSystemDictator.sol:FreshSystemDictator",
            "label": "optimismPortalImpl",
            "offset": 0,
            "slot": "1",
            "type": "t_contract(OptimismPortal)1624"
          },
          {
            "astId": 3528,
            "contract": "contracts/deployment/FreshSystemDictator.sol:FreshSystemDictator",
            "label": "l1CrossDomainMessengerImpl",
            "offset": 0,
            "slot": "2",
            "type": "t_contract(L1CrossDomainMessenger)135"
          },
          {
            "astId": 3531,
            "contract": "contracts/deployment/FreshSystemDictator.sol:FreshSystemDictator",
            "label": "l1StandardBridgeImpl",
            "offset": 0,
            "slot": "3",
            "type": "t_contract(L1StandardBridge)663"
          },
          {
            "astId": 3534,
            "contract": "contracts/deployment/FreshSystemDictator.sol:FreshSystemDictator",
            "label": "optimismMintableERC20FactoryImpl",
            "offset": 0,
            "slot": "4",
            "type": "t_contract(OptimismMintableERC20Factory)27827"
          },
          {
            "astId": 3537,
            "contract": "contracts/deployment/FreshSystemDictator.sol:FreshSystemDictator",
            "label": "l1ERC721BridgeImpl",
            "offset": 0,
            "slot": "5",
            "type": "t_contract(L1ERC721Bridge)335"
          },
          {
            "astId": 3540,
            "contract": "contracts/deployment/FreshSystemDictator.sol:FreshSystemDictator",
            "label": "portalSenderImpl",
            "offset": 0,
            "slot": "6",
            "type": "t_contract(PortalSender)4477"
          },
          {
            "astId": 3543,
            "contract": "contracts/deployment/FreshSystemDictator.sol:FreshSystemDictator",
            "label": "systemConfigImpl",
            "offset": 0,
            "slot": "7",
            "type": "t_contract(SystemConfig)2149"
          }
        ]
      },
      "t_struct(L2OutputOracleConfig)3551_storage": {
        "encoding": "inplace",
        "label": "struct BaseSystemDictator.L2OutputOracleConfig",
        "numberOfBytes": "96",
        "members": [
          {
            "astId": 3546,
            "contract": "contracts/deployment/FreshSystemDictator.sol:FreshSystemDictator",
            "label": "l2OutputOracleGenesisL2Output",
            "offset": 0,
            "slot": "0",
            "type": "t_bytes32"
          },
          {
            "astId": 3548,
            "contract": "contracts/deployment/FreshSystemDictator.sol:FreshSystemDictator",
            "label": "l2OutputOracleProposer",
            "offset": 0,
            "slot": "1",
            "type": "t_address"
          },
          {
            "astId": 3550,
            "contract": "contracts/deployment/FreshSystemDictator.sol:FreshSystemDictator",
            "label": "l2OutputOracleOwner",
            "offset": 0,
            "slot": "2",
            "type": "t_address"
          }
        ]
      },
      "t_struct(ProxyAddressConfig)3519_storage": {
        "encoding": "inplace",
        "label": "struct BaseSystemDictator.ProxyAddressConfig",
        "numberOfBytes": "224",
        "members": [
          {
            "astId": 3506,
            "contract": "contracts/deployment/FreshSystemDictator.sol:FreshSystemDictator",
            "label": "l2OutputOracleProxy",
            "offset": 0,
            "slot": "0",
            "type": "t_address"
          },
          {
            "astId": 3508,
            "contract": "contracts/deployment/FreshSystemDictator.sol:FreshSystemDictator",
            "label": "optimismPortalProxy",
            "offset": 0,
            "slot": "1",
            "type": "t_address"
          },
          {
            "astId": 3510,
            "contract": "contracts/deployment/FreshSystemDictator.sol:FreshSystemDictator",
            "label": "l1CrossDomainMessengerProxy",
            "offset": 0,
            "slot": "2",
            "type": "t_address"
          },
          {
            "astId": 3512,
            "contract": "contracts/deployment/FreshSystemDictator.sol:FreshSystemDictator",
            "label": "l1StandardBridgeProxy",
            "offset": 0,
            "slot": "3",
            "type": "t_address"
          },
          {
            "astId": 3514,
            "contract": "contracts/deployment/FreshSystemDictator.sol:FreshSystemDictator",
            "label": "optimismMintableERC20FactoryProxy",
            "offset": 0,
            "slot": "4",
            "type": "t_address"
          },
          {
            "astId": 3516,
            "contract": "contracts/deployment/FreshSystemDictator.sol:FreshSystemDictator",
            "label": "l1ERC721BridgeProxy",
            "offset": 0,
            "slot": "5",
            "type": "t_address"
          },
          {
            "astId": 3518,
            "contract": "contracts/deployment/FreshSystemDictator.sol:FreshSystemDictator",
            "label": "systemConfigProxy",
            "offset": 0,
            "slot": "6",
            "type": "t_address"
          }
        ]
      },
      "t_struct(SystemConfigConfig)3562_storage": {
        "encoding": "inplace",
        "label": "struct BaseSystemDictator.SystemConfigConfig",
        "numberOfBytes": "160",
        "members": [
          {
            "astId": 3553,
            "contract": "contracts/deployment/FreshSystemDictator.sol:FreshSystemDictator",
            "label": "owner",
            "offset": 0,
            "slot": "0",
            "type": "t_address"
          },
          {
            "astId": 3555,
            "contract": "contracts/deployment/FreshSystemDictator.sol:FreshSystemDictator",
            "label": "overhead",
            "offset": 0,
            "slot": "1",
            "type": "t_uint256"
          },
          {
            "astId": 3557,
            "contract": "contracts/deployment/FreshSystemDictator.sol:FreshSystemDictator",
            "label": "scalar",
            "offset": 0,
            "slot": "2",
            "type": "t_uint256"
          },
          {
            "astId": 3559,
            "contract": "contracts/deployment/FreshSystemDictator.sol:FreshSystemDictator",
            "label": "batcherHash",
            "offset": 0,
            "slot": "3",
            "type": "t_bytes32"
          },
          {
            "astId": 3561,
            "contract": "contracts/deployment/FreshSystemDictator.sol:FreshSystemDictator",
            "label": "gasLimit",
            "offset": 0,
            "slot": "4",
            "type": "t_uint64"
          }
        ]
      },
      "t_uint256": {
        "encoding": "inplace",
        "label": "uint256",
        "numberOfBytes": "32"
      },
      "t_uint64": {
        "encoding": "inplace",
        "label": "uint64",
        "numberOfBytes": "8"
      },
      "t_uint8": {
        "encoding": "inplace",
        "label": "uint8",
        "numberOfBytes": "1"
      }
    }
  }
}