{
  "address": "0x52DF8Ad268A179D10F4bB2d9344c0DB1f7392793",
  "abi": [
    {
      "anonymous": false,
      "inputs": [
        {
          "indexed": true,
          "internalType": "bytes32",
          "name": "msgHash",
          "type": "bytes32"
        }
      ],
      "name": "FailedRelayedMessage",
      "type": "event"
    },
    {
      "anonymous": false,
      "inputs": [
        {
          "indexed": false,
          "internalType": "uint8",
          "name": "version",
          "type": "uint8"
        }
      ],
      "name": "Initialized",
      "type": "event"
    },
    {
      "anonymous": false,
      "inputs": [
        {
          "indexed": true,
          "internalType": "address",
          "name": "previousOwner",
          "type": "address"
        },
        {
          "indexed": true,
          "internalType": "address",
          "name": "newOwner",
          "type": "address"
        }
      ],
      "name": "OwnershipTransferred",
      "type": "event"
    },
    {
      "anonymous": false,
      "inputs": [
        {
          "indexed": false,
          "internalType": "address",
          "name": "account",
          "type": "address"
        }
      ],
      "name": "Paused",
      "type": "event"
    },
    {
      "anonymous": false,
      "inputs": [
        {
          "indexed": true,
          "internalType": "bytes32",
          "name": "msgHash",
          "type": "bytes32"
        }
      ],
      "name": "RelayedMessage",
      "type": "event"
    },
    {
      "anonymous": false,
      "inputs": [
        {
          "indexed": true,
          "internalType": "address",
          "name": "target",
          "type": "address"
        },
        {
          "indexed": false,
          "internalType": "address",
          "name": "sender",
          "type": "address"
        },
        {
          "indexed": false,
          "internalType": "bytes",
          "name": "message",
          "type": "bytes"
        },
        {
          "indexed": false,
          "internalType": "uint256",
          "name": "messageNonce",
          "type": "uint256"
        },
        {
          "indexed": false,
          "internalType": "uint256",
          "name": "gasLimit",
          "type": "uint256"
        }
      ],
      "name": "SentMessage",
      "type": "event"
    },
    {
      "anonymous": false,
      "inputs": [
        {
          "indexed": false,
          "internalType": "address",
          "name": "account",
          "type": "address"
        }
      ],
      "name": "Unpaused",
      "type": "event"
    },
    {
      "inputs": [],
      "name": "MESSAGE_VERSION",
      "outputs": [
        {
          "internalType": "uint16",
          "name": "",
          "type": "uint16"
        }
      ],
      "stateMutability": "view",
      "type": "function"
    },
    {
      "inputs": [],
      "name": "MIN_GAS_CONSTANT_OVERHEAD",
      "outputs": [
        {
          "internalType": "uint32",
          "name": "",
          "type": "uint32"
        }
      ],
      "stateMutability": "view",
      "type": "function"
    },
    {
      "inputs": [],
      "name": "MIN_GAS_DYNAMIC_OVERHEAD",
      "outputs": [
        {
          "internalType": "uint32",
          "name": "",
          "type": "uint32"
        }
      ],
      "stateMutability": "view",
      "type": "function"
    },
    {
      "inputs": [
        {
          "internalType": "bytes",
          "name": "_message",
          "type": "bytes"
        }
      ],
      "name": "baseGas",
      "outputs": [
        {
          "internalType": "uint32",
          "name": "",
          "type": "uint32"
        }
      ],
      "stateMutability": "pure",
      "type": "function"
    },
    {
      "inputs": [
        {
          "internalType": "address",
          "name": "",
          "type": "address"
        }
      ],
      "name": "blockedSystemAddresses",
      "outputs": [
        {
          "internalType": "bool",
          "name": "",
          "type": "bool"
        }
      ],
      "stateMutability": "view",
      "type": "function"
    },
    {
      "inputs": [
        {
          "internalType": "contract OptimismPortal",
          "name": "_portal",
          "type": "address"
        }
      ],
      "name": "initialize",
      "outputs": [],
      "stateMutability": "nonpayable",
      "type": "function"
    },
    {
      "inputs": [],
      "name": "messageNonce",
      "outputs": [
        {
          "internalType": "uint256",
          "name": "",
          "type": "uint256"
        }
      ],
      "stateMutability": "view",
      "type": "function"
    },
    {
      "inputs": [],
      "name": "otherMessenger",
      "outputs": [
        {
          "internalType": "address",
          "name": "",
          "type": "address"
        }
      ],
      "stateMutability": "view",
      "type": "function"
    },
    {
      "inputs": [],
      "name": "owner",
      "outputs": [
        {
          "internalType": "address",
          "name": "",
          "type": "address"
        }
      ],
      "stateMutability": "view",
      "type": "function"
    },
    {
      "inputs": [],
      "name": "pause",
      "outputs": [],
      "stateMutability": "nonpayable",
      "type": "function"
    },
    {
      "inputs": [],
      "name": "paused",
      "outputs": [
        {
          "internalType": "bool",
          "name": "",
          "type": "bool"
        }
      ],
      "stateMutability": "view",
      "type": "function"
    },
    {
      "inputs": [],
      "name": "portal",
      "outputs": [
        {
          "internalType": "contract OptimismPortal",
          "name": "",
          "type": "address"
        }
      ],
      "stateMutability": "view",
      "type": "function"
    },
    {
      "inputs": [
        {
          "internalType": "bytes32",
          "name": "",
          "type": "bytes32"
        }
      ],
      "name": "receivedMessages",
      "outputs": [
        {
          "internalType": "bool",
          "name": "",
          "type": "bool"
        }
      ],
      "stateMutability": "view",
      "type": "function"
    },
    {
      "inputs": [
        {
          "internalType": "uint256",
          "name": "_nonce",
          "type": "uint256"
        },
        {
          "internalType": "address",
          "name": "_sender",
          "type": "address"
        },
        {
          "internalType": "address",
          "name": "_target",
          "type": "address"
        },
        {
          "internalType": "uint256",
          "name": "_value",
          "type": "uint256"
        },
        {
          "internalType": "uint256",
          "name": "_minGasLimit",
          "type": "uint256"
        },
        {
          "internalType": "bytes",
          "name": "_message",
          "type": "bytes"
        }
      ],
      "name": "relayMessage",
      "outputs": [],
      "stateMutability": "payable",
      "type": "function"
    },
    {
      "inputs": [],
      "name": "renounceOwnership",
      "outputs": [],
      "stateMutability": "nonpayable",
      "type": "function"
    },
    {
      "inputs": [
        {
          "internalType": "address",
          "name": "_target",
          "type": "address"
        },
        {
          "internalType": "bytes",
          "name": "_message",
          "type": "bytes"
        },
        {
          "internalType": "uint32",
          "name": "_minGasLimit",
          "type": "uint32"
        }
      ],
      "name": "sendMessage",
      "outputs": [],
      "stateMutability": "payable",
      "type": "function"
    },
    {
      "inputs": [
        {
          "internalType": "bytes32",
          "name": "",
          "type": "bytes32"
        }
      ],
      "name": "successfulMessages",
      "outputs": [
        {
          "internalType": "bool",
          "name": "",
          "type": "bool"
        }
      ],
      "stateMutability": "view",
      "type": "function"
    },
    {
      "inputs": [
        {
          "internalType": "address",
          "name": "newOwner",
          "type": "address"
        }
      ],
      "name": "transferOwnership",
      "outputs": [],
      "stateMutability": "nonpayable",
      "type": "function"
    },
    {
      "inputs": [],
      "name": "unpause",
      "outputs": [],
      "stateMutability": "nonpayable",
      "type": "function"
    },
    {
      "inputs": [],
      "name": "xDomainMessageSender",
      "outputs": [
        {
          "internalType": "address",
          "name": "",
          "type": "address"
        }
      ],
      "stateMutability": "view",
      "type": "function"
    }
  ],
  "transactionHash": "0xd129de47ccb47c9568d1edd002ca67ac7e02f831ece588a2ebb33eb35985cb0f",
  "args": [],
  "numDeployments": 2,
  "solcInputHash": "9b8df8cb7826f24acab0f14c73f65394",
  "bytecode": "0x608060405234801561001057600080fd5b506122ba806100206000396000f3fe60806040526004361061015f5760003560e01c80638da5cb5b116100c0578063db505d8011610074578063f2fde38b11610059578063f2fde38b146103df578063f691f6c2146103ff578063f69f81511461041f57600080fd5b8063db505d8014610373578063ecc70428146103a057600080fd5b8063c4d66de8116100a5578063c4d66de81461032b578063c6da1f9e1461034b578063d764ad0b1461036057600080fd5b80638da5cb5b146102d0578063b1b1b209146102fb57600080fd5b80636425666b11610117578063715018a6116100fc578063715018a61461027a5780637dea7cc31461028f5780638456cb59146102bb57600080fd5b80636425666b146102135780636e296e451461026557600080fd5b80633f827a5a116101485780633f827a5a1461018e5780634b134ce7146101bb5780635c975abb146101fb57600080fd5b80633dbb202b146101645780633f4ba83a14610179575b600080fd5b610177610172366004611cea565b61044f565b005b34801561018557600080fd5b50610177610633565b34801561019a57600080fd5b506101a3600181565b60405161ffff90911681526020015b60405180910390f35b3480156101c757600080fd5b506101eb6101d6366004611d5b565b60d06020526000908152604090205460ff1681565b60405190151581526020016101b2565b34801561020757600080fd5b5060655460ff166101eb565b34801561021f57600080fd5b5060d1546102409073ffffffffffffffffffffffffffffffffffffffff1681565b60405173ffffffffffffffffffffffffffffffffffffffff90911681526020016101b2565b34801561027157600080fd5b506102406106c3565b34801561028657600080fd5b50610177610767565b34801561029b57600080fd5b506102a6620186a081565b60405163ffffffff90911681526020016101b2565b3480156102c757600080fd5b506101776107f2565b3480156102dc57600080fd5b5060335473ffffffffffffffffffffffffffffffffffffffff16610240565b34801561030757600080fd5b506101eb610316366004611d7f565b60cb6020526000908152604090205460ff1681565b34801561033757600080fd5b50610177610346366004611d5b565b61087b565b34801561035757600080fd5b506102a6600181565b61017761036e366004611d98565b61094d565b34801561037f57600080fd5b5060ce546102409073ffffffffffffffffffffffffffffffffffffffff1681565b3480156103ac57600080fd5b5060cd547e01000000000000000000000000000000000000000000000000000000000000176040519081526020016101b2565b3480156103eb57600080fd5b506101776103fa366004611d5b565b610f06565b34801561040b57600080fd5b506102a661041a366004611e4d565b611036565b34801561042b57600080fd5b506101eb61043a366004611d7f565b60cf6020526000908152604090205460ff1681565b60ce54604080516020601f86018190048102820181019092528481526105a59273ffffffffffffffffffffffffffffffffffffffff16916104ab9190879087908190840183828082843760009201919091525061103692505050565b6104b59084611f4b565b63ffffffff16347fd764ad0b0000000000000000000000000000000000000000000000000000000061050760cd547e010000000000000000000000000000000000000000000000000000000000001790565b338a34898c8c6040516024016105239796959493929190611fbc565b604080517fffffffffffffffffffffffffffffffffffffffffffffffffffffffffffffffe08184030181529190526020810180517bffffffffffffffffffffffffffffffffffffffffffffffffffffffff167fffffffff000000000000000000000000000000000000000000000000000000009093169290921790915261105a565b8373ffffffffffffffffffffffffffffffffffffffff167fcb0f7ffd78f9aee47a248fae8db181db6eee833039123e026dcbff529522e52a33858561060a60cd547e010000000000000000000000000000000000000000000000000000000000001790565b8660405161061c95949392919061201b565b60405180910390a2505060cd805460010190555050565b60335473ffffffffffffffffffffffffffffffffffffffff1633146106b9576040517f08c379a000000000000000000000000000000000000000000000000000000000815260206004820181905260248201527f4f776e61626c653a2063616c6c6572206973206e6f7420746865206f776e657260448201526064015b60405180910390fd5b6106c16110f3565b565b60cc5460009073ffffffffffffffffffffffffffffffffffffffff1661dead141561074a576040517f08c379a000000000000000000000000000000000000000000000000000000000815260206004820152601f60248201527f78446f6d61696e4d65737361676553656e646572206973206e6f74207365740060448201526064016106b0565b5060cc5473ffffffffffffffffffffffffffffffffffffffff1690565b60335473ffffffffffffffffffffffffffffffffffffffff1633146107e8576040517f08c379a000000000000000000000000000000000000000000000000000000000815260206004820181905260248201527f4f776e61626c653a2063616c6c6572206973206e6f7420746865206f776e657260448201526064016106b0565b6106c160006111d4565b60335473ffffffffffffffffffffffffffffffffffffffff163314610873576040517f08c379a000000000000000000000000000000000000000000000000000000000815260206004820181905260248201527f4f776e61626c653a2063616c6c6572206973206e6f7420746865206f776e657260448201526064016106b0565b6106c161124b565b60d180547fffffffffffffffffffffffff00000000000000000000000000000000000000001673ffffffffffffffffffffffffffffffffffffffff83161790556040805160018082528183019092526000916020808301908036833701905050905030816000815181106108f1576108f1612069565b602002602001019073ffffffffffffffffffffffffffffffffffffffff16908173ffffffffffffffffffffffffffffffffffffffff16815250506109497342000000000000000000000000000000000000078261130b565b5050565b600260975414156109ba576040517f08c379a000000000000000000000000000000000000000000000000000000000815260206004820152601f60248201527f5265656e7472616e637947756172643a207265656e7472616e742063616c6c0060448201526064016106b0565b600260975560655460ff1615610a2c576040517f08c379a000000000000000000000000000000000000000000000000000000000815260206004820152601060248201527f5061757361626c653a207061757365640000000000000000000000000000000060448201526064016106b0565b6000610a72888888888888888080601f0160208091040260200160405190810160405280939291908181526020018383808284376000920191909152506114b892505050565b9050610a7c61156b565b15610aef57843414610aea576040517f08c379a000000000000000000000000000000000000000000000000000000000815260206004820152601960248201527f4d69736d617463686564206d6573736167652076616c75652e0000000000000060448201526064016106b0565b610b67565b600081815260cf602052604090205460ff16610b67576040517f08c379a000000000000000000000000000000000000000000000000000000000815260206004820152601b60248201527f4d6573736167652063616e6e6f74206265207265706c617965642e000000000060448201526064016106b0565b73ffffffffffffffffffffffffffffffffffffffff8616600090815260d0602052604090205460ff1615610c1d576040517f08c379a000000000000000000000000000000000000000000000000000000000815260206004820152602e60248201527f43616e6e6f742073656e64206d65737361676520746f20626c6f636b6564207360448201527f797374656d20616464726573732e00000000000000000000000000000000000060648201526084016106b0565b600081815260cb602052604090205460ff1615610cbc576040517f08c379a000000000000000000000000000000000000000000000000000000000815260206004820152602160248201527f4d6573736167652068617320616c7265616479206265656e2072656c6179656460448201527f2e0000000000000000000000000000000000000000000000000000000000000060648201526084016106b0565b610cc861afc885612098565b5a1015610d57576040517f08c379a000000000000000000000000000000000000000000000000000000000815260206004820152602260248201527f496e73756666696369656e742067617320746f2072656c6179206d657373616760448201527f652e00000000000000000000000000000000000000000000000000000000000060648201526084016106b0565b60cc80547fffffffffffffffffffffffff00000000000000000000000000000000000000001673ffffffffffffffffffffffffffffffffffffffff89161790556000610df587610dab61138861afc86120b0565b5a610db691906120b0565b88600088888080601f01602080910402602001604051908101604052809392919081815260200183838082843760009201919091525061164792505050565b5060cc80547fffffffffffffffffffffffff00000000000000000000000000000000000000001661dead179055905080151560011415610e9257600082815260cb602052604080822080547fffffffffffffffffffffffffffffffffffffffffffffffffffffffffffffff001660011790555183917f4641df4a962071e12719d8c8c8e5ac7fc4d97b927346a3d7a335b1f7517e133c91a2610ef1565b600082815260cf602052604080822080547fffffffffffffffffffffffffffffffffffffffffffffffffffffffffffffff001660011790555183917f99d0e048484baa1b1540b1367cb128acd7ab2946d1ed91ec10e3c85e4bf51b8f91a25b5050600160975550505050505050565b905090565b60335473ffffffffffffffffffffffffffffffffffffffff163314610f87576040517f08c379a000000000000000000000000000000000000000000000000000000000815260206004820181905260248201527f4f776e61626c653a2063616c6c6572206973206e6f7420746865206f776e657260448201526064016106b0565b73ffffffffffffffffffffffffffffffffffffffff811661102a576040517f08c379a000000000000000000000000000000000000000000000000000000000815260206004820152602660248201527f4f776e61626c653a206e6577206f776e657220697320746865207a65726f206160448201527f646472657373000000000000000000000000000000000000000000000000000060648201526084016106b0565b611033816111d4565b50565b6000620186a06001835161104a91906120c7565b6110549190611f4b565b92915050565b60d1546040517fe9e05c4200000000000000000000000000000000000000000000000000000000815273ffffffffffffffffffffffffffffffffffffffff9091169063e9e05c429084906110bb90889083908990600090899060040161215e565b6000604051808303818588803b1580156110d457600080fd5b505af11580156110e8573d6000803e3d6000fd5b505050505050505050565b60655460ff1661115f576040517f08c379a000000000000000000000000000000000000000000000000000000000815260206004820152601460248201527f5061757361626c653a206e6f742070617573656400000000000000000000000060448201526064016106b0565b606580547fffffffffffffffffffffffffffffffffffffffffffffffffffffffffffffff001690557f5db9ee0a495bf2e6ff9c91a7834c1ba4fdd244a5e8aa4e537bd38aeae4b073aa335b60405173ffffffffffffffffffffffffffffffffffffffff909116815260200160405180910390a1565b6033805473ffffffffffffffffffffffffffffffffffffffff8381167fffffffffffffffffffffffff0000000000000000000000000000000000000000831681179093556040519116919082907f8be0079c531659141344cd1fd0a4f28419497f9722a3daafe3b4186f6b6457e090600090a35050565b60655460ff16156112b8576040517f08c379a000000000000000000000000000000000000000000000000000000000815260206004820152601060248201527f5061757361626c653a207061757365640000000000000000000000000000000060448201526064016106b0565b606580547fffffffffffffffffffffffffffffffffffffffffffffffffffffffffffffff001660011790557f62e78cea01bee320cd4e420270b5ea74000d11b0c9f74754ebdbfc544b05a2586111aa3390565b600061131760016116d2565b9050801561134c57600080547fffffffffffffffffffffffffffffffffffffffffffffffffffffffffffff00ff166101001790555b60cc805461dead7fffffffffffffffffffffffff00000000000000000000000000000000000000009182161790915560ce805490911673ffffffffffffffffffffffffffffffffffffffff851617905560005b825181101561142f57600160d060008584815181106113c0576113c0612069565b60209081029190910181015173ffffffffffffffffffffffffffffffffffffffff16825281019190915260400160002080547fffffffffffffffffffffffffffffffffffffffffffffffffffffffffffffff001691151591909117905580611427816121b6565b91505061139f565b50611438611858565b6114406118ef565b61144861198f565b611450611a50565b80156114b357600080547fffffffffffffffffffffffffffffffffffffffffffffffffffffffffffff00ff169055604051600181527f7f26b83ff96e1f2b6a682f133852f6798a09c465da95921460cefb38474024989060200160405180910390a15b505050565b6000806114c58860f01c90565b905061ffff81166114e4576114dc8688858b611aee565b915050611561565b8061ffff16600114156114ff576114dc888888888888611b0d565b6040517f08c379a000000000000000000000000000000000000000000000000000000000815260206004820152601060248201527f556e6b6e6f776e2076657273696f6e2e0000000000000000000000000000000060448201526064016106b0565b9695505050505050565b60d15460009073ffffffffffffffffffffffffffffffffffffffff1633148015610f01575060ce5460d154604080517f9bf62d82000000000000000000000000000000000000000000000000000000008152905173ffffffffffffffffffffffffffffffffffffffff9384169390921691639bf62d82916004808201926020929091908290030181865afa158015611607573d6000803e3d6000fd5b505050506040513d601f19601f8201168201806040525081019061162b91906121ef565b73ffffffffffffffffffffffffffffffffffffffff1614905090565b6000606060008060008661ffff1667ffffffffffffffff81111561166d5761166d611e1e565b6040519080825280601f01601f191660200182016040528015611697576020820181803683370190505b5090506000808751602089018b8e8ef191503d9250868311156116b8578692505b828152826000602083013e90999098509650505050505050565b60008054610100900460ff1615611789578160ff1660011480156116f55750303b155b611781576040517f08c379a000000000000000000000000000000000000000000000000000000000815260206004820152602e60248201527f496e697469616c697a61626c653a20636f6e747261637420697320616c72656160448201527f647920696e697469616c697a656400000000000000000000000000000000000060648201526084016106b0565b506000919050565b60005460ff808416911610611820576040517f08c379a000000000000000000000000000000000000000000000000000000000815260206004820152602e60248201527f496e697469616c697a61626c653a20636f6e747261637420697320616c72656160448201527f647920696e697469616c697a656400000000000000000000000000000000000060648201526084016106b0565b50600080547fffffffffffffffffffffffffffffffffffffffffffffffffffffffffffffff001660ff92909216919091179055600190565b600054610100900460ff166106c1576040517f08c379a000000000000000000000000000000000000000000000000000000000815260206004820152602b60248201527f496e697469616c697a61626c653a20636f6e7472616374206973206e6f74206960448201527f6e697469616c697a696e6700000000000000000000000000000000000000000060648201526084016106b0565b600054610100900460ff16611986576040517f08c379a000000000000000000000000000000000000000000000000000000000815260206004820152602b60248201527f496e697469616c697a61626c653a20636f6e7472616374206973206e6f74206960448201527f6e697469616c697a696e6700000000000000000000000000000000000000000060648201526084016106b0565b6106c1336111d4565b600054610100900460ff16611a26576040517f08c379a000000000000000000000000000000000000000000000000000000000815260206004820152602b60248201527f496e697469616c697a61626c653a20636f6e7472616374206973206e6f74206960448201527f6e697469616c697a696e6700000000000000000000000000000000000000000060648201526084016106b0565b606580547fffffffffffffffffffffffffffffffffffffffffffffffffffffffffffffff00169055565b600054610100900460ff16611ae7576040517f08c379a000000000000000000000000000000000000000000000000000000000815260206004820152602b60248201527f496e697469616c697a61626c653a20636f6e7472616374206973206e6f74206960448201527f6e697469616c697a696e6700000000000000000000000000000000000000000060648201526084016106b0565b6001609755565b6000611afc85858585611b30565b805190602001209050949350505050565b6000611b1d878787878787611b47565b8051906020012090509695505050505050565b6060611b3e85858585611be6565b95945050505050565b6060868686868686604051602401611b649695949392919061220c565b604080517fffffffffffffffffffffffffffffffffffffffffffffffffffffffffffffffe08184030181529190526020810180517bffffffffffffffffffffffffffffffffffffffffffffffffffffffff167fd764ad0b0000000000000000000000000000000000000000000000000000000017905290509695505050505050565b606084848484604051602401611bff9493929190612263565b604080517fffffffffffffffffffffffffffffffffffffffffffffffffffffffffffffffe08184030181529190526020810180517bffffffffffffffffffffffffffffffffffffffffffffffffffffffff167fcbd4ece9000000000000000000000000000000000000000000000000000000001790529050949350505050565b73ffffffffffffffffffffffffffffffffffffffff8116811461103357600080fd5b60008083601f840112611cb357600080fd5b50813567ffffffffffffffff811115611ccb57600080fd5b602083019150836020828501011115611ce357600080fd5b9250929050565b60008060008060608587031215611d0057600080fd5b8435611d0b81611c7f565b9350602085013567ffffffffffffffff811115611d2757600080fd5b611d3387828801611ca1565b909450925050604085013563ffffffff81168114611d5057600080fd5b939692955090935050565b600060208284031215611d6d57600080fd5b8135611d7881611c7f565b9392505050565b600060208284031215611d9157600080fd5b5035919050565b600080600080600080600060c0888a031215611db357600080fd5b873596506020880135611dc581611c7f565b95506040880135611dd581611c7f565b9450606088013593506080880135925060a088013567ffffffffffffffff811115611dff57600080fd5b611e0b8a828b01611ca1565b989b979a50959850939692959293505050565b7f4e487b7100000000000000000000000000000000000000000000000000000000600052604160045260246000fd5b600060208284031215611e5f57600080fd5b813567ffffffffffffffff80821115611e7757600080fd5b818401915084601f830112611e8b57600080fd5b813581811115611e9d57611e9d611e1e565b604051601f82017fffffffffffffffffffffffffffffffffffffffffffffffffffffffffffffffe0908116603f01168101908382118183101715611ee357611ee3611e1e565b81604052828152876020848701011115611efc57600080fd5b826020860160208301376000928101602001929092525095945050505050565b7f4e487b7100000000000000000000000000000000000000000000000000000000600052601160045260246000fd5b600063ffffffff808316818516808303821115611f6a57611f6a611f1c565b01949350505050565b8183528181602085013750600060208284010152600060207fffffffffffffffffffffffffffffffffffffffffffffffffffffffffffffffe0601f840116840101905092915050565b878152600073ffffffffffffffffffffffffffffffffffffffff808916602084015280881660408401525085606083015263ffffffff8516608083015260c060a083015261200e60c083018486611f73565b9998505050505050505050565b73ffffffffffffffffffffffffffffffffffffffff8616815260806020820152600061204b608083018688611f73565b905083604083015263ffffffff831660608301529695505050505050565b7f4e487b7100000000000000000000000000000000000000000000000000000000600052603260045260246000fd5b600082198211156120ab576120ab611f1c565b500190565b6000828210156120c2576120c2611f1c565b500390565b600063ffffffff808316818516818304811182151516156120ea576120ea611f1c565b02949350505050565b6000815180845260005b81811015612119576020818501810151868301820152016120fd565b8181111561212b576000602083870101525b50601f017fffffffffffffffffffffffffffffffffffffffffffffffffffffffffffffffe0169290920160200192915050565b73ffffffffffffffffffffffffffffffffffffffff8616815284602082015267ffffffffffffffff84166040820152821515606082015260a0608082015260006121ab60a08301846120f3565b979650505050505050565b60007fffffffffffffffffffffffffffffffffffffffffffffffffffffffffffffffff8214156121e8576121e8611f1c565b5060010190565b60006020828403121561220157600080fd5b8151611d7881611c7f565b868152600073ffffffffffffffffffffffffffffffffffffffff808816602084015280871660408401525084606083015283608083015260c060a083015261225760c08301846120f3565b98975050505050505050565b600073ffffffffffffffffffffffffffffffffffffffff80871683528086166020840152506080604083015261229c60808301856120f3565b90508260608301529594505050505056fea164736f6c634300080a000a",
  "devdoc": {
    "version": 1,
    "kind": "dev",
    "methods": {
      "baseGas(bytes)": {
        "params": {
          "_message": "Message to compute base gas for."
        },
        "returns": {
          "_0": "Base gas required for message."
        }
      },
      "initialize(address)": {
        "params": {
          "_portal": "Address of the OptimismPortal to send and receive messages through."
        }
      },
      "messageNonce()": {
        "returns": {
          "_0": "Next message nonce with added hash version."
        }
      },
      "owner()": {
        "details": "Returns the address of the current owner."
      },
      "paused()": {
        "details": "Returns true if the contract is paused, and false otherwise."
      },
      "renounceOwnership()": {
        "details": "Leaves the contract without owner. It will not be possible to call `onlyOwner` functions anymore. Can only be called by the current owner. NOTE: Renouncing ownership will leave the contract without an owner, thereby removing any functionality that is only available to the owner."
      },
      "sendMessage(address,bytes,uint32)": {
        "params": {
          "_message": "Message to send to the target.",
          "_minGasLimit": "Gas limit for the provided message.",
          "_target": "Target contract address."
        }
      },
      "transferOwnership(address)": {
        "details": "Transfers ownership of the contract to a new account (`newOwner`). Can only be called by the current owner."
      },
      "xDomainMessageSender()": {
        "returns": {
          "_0": "Address of the x-domain message sender."
        }
      }
    }
  },
  "userdoc": {
    "version": 1,
    "kind": "user",
    "methods": {
      "baseGas(bytes)": {
        "notice": "Base amount of gas required to make sure that the message will be received without running out of gas. Amount of gas provided to the L2 call will be the gas requested by the user PLUS this gas value so that if the message is not successful, it can always be replayed on the other end."
      },
      "blockedSystemAddresses(address)": {
        "notice": "Blocked system addresses that cannot be called (for security reasons)."
      },
      "initialize(address)": {
        "notice": "Initializes the L1CrossDomainMessenger."
      },
      "messageNonce()": {
        "notice": "Retrieves the next message nonce. Adds the hash version to the nonce."
      },
      "otherMessenger()": {
        "notice": "Address of the CrossDomainMessenger on the other chain."
      },
      "pause()": {
        "notice": "Pause relaying."
      },
      "portal()": {
        "notice": "Address of the OptimismPortal."
      },
      "receivedMessages(bytes32)": {
        "notice": "Mapping of message hash to boolean receipt value."
      },
      "successfulMessages(bytes32)": {
        "notice": "Mapping of message hash to boolean success value."
      },
      "unpause()": {
        "notice": "Unpause relaying."
      },
      "xDomainMessageSender()": {
        "notice": "Retrieves the address of the x-domain message sender. Will throw an error if the sender is not currently set (equal to the default sender). This function is meant to be called on the remote side of a cross domain message so that the account that initiated the call can be known."
      }
    },
    "notice": "The L1CrossDomainMessenger is a message passing interface between L1 and L2 responsible         for sending and receiving data on the L1 side. Users are encouraged to use this         interface instead of interacting with lower-level contracts directly."
  },
  "storageLayout": {
    "storage": [
      {
        "astId": 19545,
        "contract": "contracts/L1/L1CrossDomainMessenger.sol:L1CrossDomainMessenger",
        "label": "_initialized",
        "offset": 0,
        "slot": "0",
        "type": "t_uint8"
      },
      {
        "astId": 19548,
        "contract": "contracts/L1/L1CrossDomainMessenger.sol:L1CrossDomainMessenger",
        "label": "_initializing",
        "offset": 1,
        "slot": "0",
        "type": "t_bool"
      },
      {
        "astId": 20134,
        "contract": "contracts/L1/L1CrossDomainMessenger.sol:L1CrossDomainMessenger",
        "label": "__gap",
        "offset": 0,
        "slot": "1",
        "type": "t_array(t_uint256)50_storage"
      },
      {
        "astId": 19425,
        "contract": "contracts/L1/L1CrossDomainMessenger.sol:L1CrossDomainMessenger",
        "label": "_owner",
        "offset": 0,
        "slot": "51",
        "type": "t_address"
      },
      {
        "astId": 19537,
        "contract": "contracts/L1/L1CrossDomainMessenger.sol:L1CrossDomainMessenger",
        "label": "__gap",
        "offset": 0,
        "slot": "52",
        "type": "t_array(t_uint256)49_storage"
      },
      {
        "astId": 19701,
        "contract": "contracts/L1/L1CrossDomainMessenger.sol:L1CrossDomainMessenger",
        "label": "_paused",
        "offset": 0,
        "slot": "101",
        "type": "t_bool"
      },
      {
        "astId": 19790,
        "contract": "contracts/L1/L1CrossDomainMessenger.sol:L1CrossDomainMessenger",
        "label": "__gap",
        "offset": 0,
        "slot": "102",
        "type": "t_array(t_uint256)49_storage"
      },
      {
        "astId": 19805,
        "contract": "contracts/L1/L1CrossDomainMessenger.sol:L1CrossDomainMessenger",
        "label": "_status",
        "offset": 0,
        "slot": "151",
        "type": "t_uint256"
      },
      {
        "astId": 19849,
        "contract": "contracts/L1/L1CrossDomainMessenger.sol:L1CrossDomainMessenger",
        "label": "__gap",
        "offset": 0,
        "slot": "152",
        "type": "t_array(t_uint256)49_storage"
      },
      {
        "astId": 17298,
        "contract": "contracts/L1/L1CrossDomainMessenger.sol:L1CrossDomainMessenger",
        "label": "REMOVED_VARIABLE_SPACER_1",
        "offset": 0,
        "slot": "201",
        "type": "t_bytes32"
      },
      {
        "astId": 17300,
        "contract": "contracts/L1/L1CrossDomainMessenger.sol:L1CrossDomainMessenger",
        "label": "REMOVED_VARIABLE_SPACER_2",
        "offset": 0,
        "slot": "202",
        "type": "t_bytes32"
      },
      {
        "astId": 17305,
        "contract": "contracts/L1/L1CrossDomainMessenger.sol:L1CrossDomainMessenger",
        "label": "successfulMessages",
        "offset": 0,
        "slot": "203",
        "type": "t_mapping(t_bytes32,t_bool)"
      },
      {
        "astId": 17308,
        "contract": "contracts/L1/L1CrossDomainMessenger.sol:L1CrossDomainMessenger",
        "label": "xDomainMsgSender",
        "offset": 0,
        "slot": "204",
        "type": "t_address"
      },
      {
        "astId": 17311,
        "contract": "contracts/L1/L1CrossDomainMessenger.sol:L1CrossDomainMessenger",
        "label": "msgNonce",
        "offset": 0,
        "slot": "205",
        "type": "t_uint256"
      },
      {
        "astId": 17314,
        "contract": "contracts/L1/L1CrossDomainMessenger.sol:L1CrossDomainMessenger",
        "label": "otherMessenger",
        "offset": 0,
        "slot": "206",
        "type": "t_address"
      },
      {
        "astId": 17319,
        "contract": "contracts/L1/L1CrossDomainMessenger.sol:L1CrossDomainMessenger",
        "label": "receivedMessages",
        "offset": 0,
        "slot": "207",
        "type": "t_mapping(t_bytes32,t_bool)"
      },
      {
        "astId": 17324,
        "contract": "contracts/L1/L1CrossDomainMessenger.sol:L1CrossDomainMessenger",
        "label": "blockedSystemAddresses",
        "offset": 0,
        "slot": "208",
        "type": "t_mapping(t_address,t_bool)"
      },
      {
        "astId": 14,
        "contract": "contracts/L1/L1CrossDomainMessenger.sol:L1CrossDomainMessenger",
        "label": "portal",
        "offset": 0,
        "slot": "209",
        "type": "t_contract(OptimismPortal)1256"
      }
    ],
    "types": {
      "t_address": {
        "encoding": "inplace",
        "label": "address",
        "numberOfBytes": "20"
      },
      "t_array(t_uint256)49_storage": {
        "encoding": "inplace",
        "label": "uint256[49]",
        "numberOfBytes": "1568"
      },
      "t_array(t_uint256)50_storage": {
        "encoding": "inplace",
        "label": "uint256[50]",
        "numberOfBytes": "1600"
      },
      "t_bool": {
        "encoding": "inplace",
        "label": "bool",
        "numberOfBytes": "1"
      },
      "t_bytes32": {
        "encoding": "inplace",
        "label": "bytes32",
        "numberOfBytes": "32"
      },
      "t_contract(OptimismPortal)1256": {
        "encoding": "inplace",
        "label": "contract OptimismPortal",
        "numberOfBytes": "20"
      },
      "t_mapping(t_address,t_bool)": {
        "encoding": "mapping",
        "label": "mapping(address => bool)",
        "numberOfBytes": "32"
      },
      "t_mapping(t_bytes32,t_bool)": {
        "encoding": "mapping",
        "label": "mapping(bytes32 => bool)",
        "numberOfBytes": "32"
      },
      "t_uint256": {
        "encoding": "inplace",
        "label": "uint256",
        "numberOfBytes": "32"
      },
      "t_uint8": {
        "encoding": "inplace",
        "label": "uint8",
        "numberOfBytes": "1"
      }
    }
  }
}