{
  "address": "0x4d9B4dD031B499dBF2e9f10bCA22475Ca37c0893",
  "abi": [
    {
      "inputs": [
        {
          "internalType": "contract OptimismPortal",
          "name": "_portal",
          "type": "address"
        }
      ],
      "stateMutability": "nonpayable",
      "type": "constructor"
    },
    {
      "anonymous": false,
      "inputs": [
        {
          "indexed": true,
          "internalType": "bytes32",
          "name": "msgHash",
          "type": "bytes32"
        }
      ],
      "name": "FailedRelayedMessage",
      "type": "event"
    },
    {
      "anonymous": false,
      "inputs": [
        {
          "indexed": false,
          "internalType": "uint8",
          "name": "version",
          "type": "uint8"
        }
      ],
      "name": "Initialized",
      "type": "event"
    },
    {
      "anonymous": false,
      "inputs": [
        {
          "indexed": true,
          "internalType": "address",
          "name": "previousOwner",
          "type": "address"
        },
        {
          "indexed": true,
          "internalType": "address",
          "name": "newOwner",
          "type": "address"
        }
      ],
      "name": "OwnershipTransferred",
      "type": "event"
    },
    {
      "anonymous": false,
      "inputs": [
        {
          "indexed": false,
          "internalType": "address",
          "name": "account",
          "type": "address"
        }
      ],
      "name": "Paused",
      "type": "event"
    },
    {
      "anonymous": false,
      "inputs": [
        {
          "indexed": true,
          "internalType": "bytes32",
          "name": "msgHash",
          "type": "bytes32"
        }
      ],
      "name": "RelayedMessage",
      "type": "event"
    },
    {
      "anonymous": false,
      "inputs": [
        {
          "indexed": true,
          "internalType": "address",
          "name": "target",
          "type": "address"
        },
        {
          "indexed": false,
          "internalType": "address",
          "name": "sender",
          "type": "address"
        },
        {
          "indexed": false,
          "internalType": "bytes",
          "name": "message",
          "type": "bytes"
        },
        {
          "indexed": false,
          "internalType": "uint256",
          "name": "messageNonce",
          "type": "uint256"
        },
        {
          "indexed": false,
          "internalType": "uint256",
          "name": "gasLimit",
          "type": "uint256"
        }
      ],
      "name": "SentMessage",
      "type": "event"
    },
    {
      "anonymous": false,
      "inputs": [
        {
          "indexed": false,
          "internalType": "address",
          "name": "account",
          "type": "address"
        }
      ],
      "name": "Unpaused",
      "type": "event"
    },
    {
      "inputs": [],
      "name": "MESSAGE_VERSION",
      "outputs": [
        {
          "internalType": "uint16",
          "name": "",
          "type": "uint16"
        }
      ],
      "stateMutability": "view",
      "type": "function"
    },
    {
      "inputs": [],
      "name": "MIN_GAS_CALLDATA_OVERHEAD",
      "outputs": [
        {
          "internalType": "uint32",
          "name": "",
          "type": "uint32"
        }
      ],
      "stateMutability": "view",
      "type": "function"
    },
    {
      "inputs": [],
      "name": "MIN_GAS_CONSTANT_OVERHEAD",
      "outputs": [
        {
          "internalType": "uint32",
          "name": "",
          "type": "uint32"
        }
      ],
      "stateMutability": "view",
      "type": "function"
    },
    {
      "inputs": [],
      "name": "MIN_GAS_DYNAMIC_OVERHEAD_DENOMINATOR",
      "outputs": [
        {
          "internalType": "uint32",
          "name": "",
          "type": "uint32"
        }
      ],
      "stateMutability": "view",
      "type": "function"
    },
    {
      "inputs": [],
      "name": "MIN_GAS_DYNAMIC_OVERHEAD_NUMERATOR",
      "outputs": [
        {
          "internalType": "uint32",
          "name": "",
          "type": "uint32"
        }
      ],
      "stateMutability": "view",
      "type": "function"
    },
    {
      "inputs": [
        {
          "internalType": "bytes",
          "name": "_message",
          "type": "bytes"
        },
        {
          "internalType": "uint32",
          "name": "_minGasLimit",
          "type": "uint32"
        }
      ],
      "name": "baseGas",
      "outputs": [
        {
          "internalType": "uint32",
          "name": "",
          "type": "uint32"
        }
      ],
      "stateMutability": "pure",
      "type": "function"
    },
    {
      "inputs": [
        {
          "internalType": "address",
          "name": "",
          "type": "address"
        }
      ],
      "name": "blockedSystemAddresses",
      "outputs": [
        {
          "internalType": "bool",
          "name": "",
          "type": "bool"
        }
      ],
      "stateMutability": "view",
      "type": "function"
    },
    {
      "inputs": [],
      "name": "initialize",
      "outputs": [],
      "stateMutability": "nonpayable",
      "type": "function"
    },
    {
      "inputs": [],
      "name": "messageNonce",
      "outputs": [
        {
          "internalType": "uint256",
          "name": "",
          "type": "uint256"
        }
      ],
      "stateMutability": "view",
      "type": "function"
    },
    {
      "inputs": [],
      "name": "otherMessenger",
      "outputs": [
        {
          "internalType": "address",
          "name": "",
          "type": "address"
        }
      ],
      "stateMutability": "view",
      "type": "function"
    },
    {
      "inputs": [],
      "name": "owner",
      "outputs": [
        {
          "internalType": "address",
          "name": "",
          "type": "address"
        }
      ],
      "stateMutability": "view",
      "type": "function"
    },
    {
      "inputs": [],
      "name": "pause",
      "outputs": [],
      "stateMutability": "nonpayable",
      "type": "function"
    },
    {
      "inputs": [],
      "name": "paused",
      "outputs": [
        {
          "internalType": "bool",
          "name": "",
          "type": "bool"
        }
      ],
      "stateMutability": "view",
      "type": "function"
    },
    {
      "inputs": [],
      "name": "portal",
      "outputs": [
        {
          "internalType": "contract OptimismPortal",
          "name": "",
          "type": "address"
        }
      ],
      "stateMutability": "view",
      "type": "function"
    },
    {
      "inputs": [
        {
          "internalType": "bytes32",
          "name": "",
          "type": "bytes32"
        }
      ],
      "name": "receivedMessages",
      "outputs": [
        {
          "internalType": "bool",
          "name": "",
          "type": "bool"
        }
      ],
      "stateMutability": "view",
      "type": "function"
    },
    {
      "inputs": [
        {
          "internalType": "uint256",
          "name": "_nonce",
          "type": "uint256"
        },
        {
          "internalType": "address",
          "name": "_sender",
          "type": "address"
        },
        {
          "internalType": "address",
          "name": "_target",
          "type": "address"
        },
        {
          "internalType": "uint256",
          "name": "_value",
          "type": "uint256"
        },
        {
          "internalType": "uint256",
          "name": "_minGasLimit",
          "type": "uint256"
        },
        {
          "internalType": "bytes",
          "name": "_message",
          "type": "bytes"
        }
      ],
      "name": "relayMessage",
      "outputs": [],
      "stateMutability": "payable",
      "type": "function"
    },
    {
      "inputs": [],
      "name": "renounceOwnership",
      "outputs": [],
      "stateMutability": "nonpayable",
      "type": "function"
    },
    {
      "inputs": [
        {
          "internalType": "address",
          "name": "_target",
          "type": "address"
        },
        {
          "internalType": "bytes",
          "name": "_message",
          "type": "bytes"
        },
        {
          "internalType": "uint32",
          "name": "_minGasLimit",
          "type": "uint32"
        }
      ],
      "name": "sendMessage",
      "outputs": [],
      "stateMutability": "payable",
      "type": "function"
    },
    {
      "inputs": [
        {
          "internalType": "bytes32",
          "name": "",
          "type": "bytes32"
        }
      ],
      "name": "successfulMessages",
      "outputs": [
        {
          "internalType": "bool",
          "name": "",
          "type": "bool"
        }
      ],
      "stateMutability": "view",
      "type": "function"
    },
    {
      "inputs": [
        {
          "internalType": "address",
          "name": "newOwner",
          "type": "address"
        }
      ],
      "name": "transferOwnership",
      "outputs": [],
      "stateMutability": "nonpayable",
      "type": "function"
    },
    {
      "inputs": [],
      "name": "unpause",
      "outputs": [],
      "stateMutability": "nonpayable",
      "type": "function"
    },
    {
      "inputs": [],
      "name": "version",
      "outputs": [
        {
          "internalType": "string",
          "name": "",
          "type": "string"
        }
      ],
      "stateMutability": "view",
      "type": "function"
    },
    {
      "inputs": [],
      "name": "xDomainMessageSender",
      "outputs": [
        {
          "internalType": "address",
          "name": "",
          "type": "address"
        }
      ],
      "stateMutability": "view",
      "type": "function"
    }
  ],
  "transactionHash": "0x6cfbfa0971151ba034ebd97d50e5f684d568cb1e1a91856910ff41e3199034f8",
  "args": [
    "0xEc17fCCe4fE3cE5fd1Ba5EDB81aCD00241059E0F"
  ],
  "numDeployments": 1,
  "solcInputHash": "98b32181dddcc211ecf20a0f8159da6d",
  "bytecode": "0x6101006040523480156200001257600080fd5b5060405162002eb038038062002eb083398101604081905262000035916200056b565b6000608081905260a052600160c0526001600160a01b03811660e0526200005b62000062565b50620005dd565b600062000070600162000145565b9050801562000089576000805461ff0019166101001790555b604080516001808252818301909252600091602080830190803683370190505090503081600081518110620000c257620000c26200059d565b6001600160a01b0390921660209283029190910190910152620000fa7342000000000000000000000000000000000000078262000257565b50801562000142576000805461ff0019169055604051600181527f7f26b83ff96e1f2b6a682f133852f6798a09c465da95921460cefb38474024989060200160405180910390a15b50565b60008054610100900460ff1615620001de578160ff1660011480156200017e57506200017c306200037a60201b620013a71760201c565b155b620001d65760405162461bcd60e51b815260206004820152602e602482015260008051602062002e7083398151915260448201526d191e481a5b9a5d1a585b1a5e995960921b60648201526084015b60405180910390fd5b506000919050565b60005460ff8084169116106200023d5760405162461bcd60e51b815260206004820152602e602482015260008051602062002e7083398151915260448201526d191e481a5b9a5d1a585b1a5e995960921b6064820152608401620001cd565b506000805460ff191660ff92909216919091179055600190565b600054610100900460ff16620002b35760405162461bcd60e51b815260206004820152602b602482015260008051602062002e9083398151915260448201526a6e697469616c697a696e6760a81b6064820152608401620001cd565b60ca805461dead6001600160a01b03199182161790915560cc80549091166001600160a01b03841617905560005b81518110156200034d57600160ce60008484815181106200030657620003066200059d565b6020908102919091018101516001600160a01b03168252810191909152604001600020805460ff1916911515919091179055806200034481620005b3565b915050620002e1565b506200035862000389565b62000362620003e7565b6200036c6200044e565b62000376620004b6565b5050565b6001600160a01b03163b151590565b600054610100900460ff16620003e55760405162461bcd60e51b815260206004820152602b602482015260008051602062002e9083398151915260448201526a6e697469616c697a696e6760a81b6064820152608401620001cd565b565b600054610100900460ff16620004435760405162461bcd60e51b815260206004820152602b602482015260008051602062002e9083398151915260448201526a6e697469616c697a696e6760a81b6064820152608401620001cd565b620003e53362000519565b600054610100900460ff16620004aa5760405162461bcd60e51b815260206004820152602b602482015260008051602062002e9083398151915260448201526a6e697469616c697a696e6760a81b6064820152608401620001cd565b6065805460ff19169055565b600054610100900460ff16620005125760405162461bcd60e51b815260206004820152602b602482015260008051602062002e9083398151915260448201526a6e697469616c697a696e6760a81b6064820152608401620001cd565b6001609755565b603380546001600160a01b038381166001600160a01b0319831681179093556040519116919082907f8be0079c531659141344cd1fd0a4f28419497f9722a3daafe3b4186f6b6457e090600090a35050565b6000602082840312156200057e57600080fd5b81516001600160a01b03811681146200059657600080fd5b9392505050565b634e487b7160e01b600052603260045260246000fd5b6000600019821415620005d657634e487b7160e01b600052601160045260246000fd5b5060010190565b60805160a05160c05160e0516128446200062c600039600081816102be0152818161140001528181611bd30152611c42015260006107f7015260006107ce015260006107a501526128446000f3fe6080604052600436106101805760003560e01c8063715018a6116100d6578063b28ade251161007f578063ecc7042811610059578063ecc704281461042b578063f2fde38b14610490578063f69f8151146104b057600080fd5b8063b28ade25146103cb578063d764ad0b146103eb578063db505d80146103fe57600080fd5b80638456cb59116100b05780638456cb591461035b5780638da5cb5b14610370578063b1b1b2091461039b57600080fd5b8063715018a61461031a5780637dea7cc31461032f5780638129fc1c1461034657600080fd5b80633f827a5a116101385780635c975abb116101125780635c975abb146102945780636425666b146102ac5780636e296e451461030557600080fd5b80633f827a5a1461020a5780634b134ce71461023257806354fd4d501461027257600080fd5b80632828d7e8116101695780632828d7e8146101ca5780633dbb202b146101e05780633f4ba83a146101f557600080fd5b8063028f85f7146101855780630c568498146101b4575b600080fd5b34801561019157600080fd5b5061019a601081565b60405163ffffffff90911681526020015b60405180910390f35b3480156101c057600080fd5b5061019a6103e881565b3480156101d657600080fd5b5061019a6103f881565b6101f36101ee3660046121e7565b6104e0565b005b34801561020157600080fd5b506101f361070e565b34801561021657600080fd5b5061021f600181565b60405161ffff90911681526020016101ab565b34801561023e57600080fd5b5061026261024d36600461224e565b60ce6020526000908152604090205460ff1681565b60405190151581526020016101ab565b34801561027e57600080fd5b5061028761079e565b6040516101ab91906122ec565b3480156102a057600080fd5b5060655460ff16610262565b3480156102b857600080fd5b506102e07f000000000000000000000000000000000000000000000000000000000000000081565b60405173ffffffffffffffffffffffffffffffffffffffff90911681526020016101ab565b34801561031157600080fd5b506102e0610841565b34801561032657600080fd5b506101f361090b565b34801561033b57600080fd5b5061019a62030d4081565b34801561035257600080fd5b506101f3610996565b34801561036757600080fd5b506101f3610acc565b34801561037c57600080fd5b5060335473ffffffffffffffffffffffffffffffffffffffff166102e0565b3480156103a757600080fd5b506102626103b63660046122ff565b60c96020526000908152604090205460ff1681565b3480156103d757600080fd5b5061019a6103e6366004612318565b610b55565b6101f36103f936600461236c565b610b9b565b34801561040a57600080fd5b5060cc546102e09073ffffffffffffffffffffffffffffffffffffffff1681565b34801561043757600080fd5b5061048260cb547dffffffffffffffffffffffffffffffffffffffffffffffffffffffffffff167e010000000000000000000000000000000000000000000000000000000000001790565b6040519081526020016101ab565b34801561049c57600080fd5b506101f36104ab36600461224e565b61127a565b3480156104bc57600080fd5b506102626104cb3660046122ff565b60cd6020526000908152604090205460ff1681565b60cc546106189073ffffffffffffffffffffffffffffffffffffffff16610508858585610b55565b63ffffffff16347fd764ad0b0000000000000000000000000000000000000000000000000000000061057a60cb547dffffffffffffffffffffffffffffffffffffffffffffffffffffffffffff167e010000000000000000000000000000000000000000000000000000000000001790565b338a34898c8c604051602401610596979695949392919061243b565b604080517fffffffffffffffffffffffffffffffffffffffffffffffffffffffffffffffe08184030181529190526020810180517bffffffffffffffffffffffffffffffffffffffffffffffffffffffff167fffffffff00000000000000000000000000000000000000000000000000000000909316929092179091526113c3565b8373ffffffffffffffffffffffffffffffffffffffff167fcb0f7ffd78f9aee47a248fae8db181db6eee833039123e026dcbff529522e52a33858561069d60cb547dffffffffffffffffffffffffffffffffffffffffffffffffffffffffffff167e010000000000000000000000000000000000000000000000000000000000001790565b866040516106af95949392919061249a565b60405180910390a2505060cb80547dffffffffffffffffffffffffffffffffffffffffffffffffffffffffffff808216600101167fffff0000000000000000000000000000000000000000000000000000000000009091161790555050565b60335473ffffffffffffffffffffffffffffffffffffffff163314610794576040517f08c379a000000000000000000000000000000000000000000000000000000000815260206004820181905260248201527f4f776e61626c653a2063616c6c6572206973206e6f7420746865206f776e657260448201526064015b60405180910390fd5b61079c611478565b565b60606107c97f0000000000000000000000000000000000000000000000000000000000000000611559565b6107f27f0000000000000000000000000000000000000000000000000000000000000000611559565b61081b7f0000000000000000000000000000000000000000000000000000000000000000611559565b60405160200161082d939291906124e8565b604051602081830303815290604052905090565b60ca5460009073ffffffffffffffffffffffffffffffffffffffff1661dead14156108ee576040517f08c379a000000000000000000000000000000000000000000000000000000000815260206004820152603560248201527f43726f7373446f6d61696e4d657373656e6765723a2078446f6d61696e4d657360448201527f7361676553656e646572206973206e6f74207365740000000000000000000000606482015260840161078b565b5060ca5473ffffffffffffffffffffffffffffffffffffffff1690565b60335473ffffffffffffffffffffffffffffffffffffffff16331461098c576040517f08c379a000000000000000000000000000000000000000000000000000000000815260206004820181905260248201527f4f776e61626c653a2063616c6c6572206973206e6f7420746865206f776e6572604482015260640161078b565b61079c600061168b565b60006109a26001611702565b905080156109d757600080547fffffffffffffffffffffffffffffffffffffffffffffffffffffffffffff00ff166101001790555b604080516001808252818301909252600091602080830190803683370190505090503081600081518110610a0d57610a0d61258d565b602002602001019073ffffffffffffffffffffffffffffffffffffffff16908173ffffffffffffffffffffffffffffffffffffffff1681525050610a657342000000000000000000000000000000000000078261188d565b508015610ac957600080547fffffffffffffffffffffffffffffffffffffffffffffffffffffffffffff00ff169055604051600181527f7f26b83ff96e1f2b6a682f133852f6798a09c465da95921460cefb38474024989060200160405180910390a15b50565b60335473ffffffffffffffffffffffffffffffffffffffff163314610b4d576040517f08c379a000000000000000000000000000000000000000000000000000000000815260206004820181905260248201527f4f776e61626c653a2063616c6c6572206973206e6f7420746865206f776e6572604482015260640161078b565b61079c611a2c565b600062030d40610b666010856125eb565b6103e8610b756103f8866125eb565b610b7f9190612646565b610b899190612669565b610b939190612669565b949350505050565b60026097541415610c08576040517f08c379a000000000000000000000000000000000000000000000000000000000815260206004820152601f60248201527f5265656e7472616e637947756172643a207265656e7472616e742063616c6c00604482015260640161078b565b600260975560655460ff1615610c7a576040517f08c379a000000000000000000000000000000000000000000000000000000000815260206004820152601060248201527f5061757361626c653a2070617573656400000000000000000000000000000000604482015260640161078b565b6000610cc0888888888888888080601f016020809104026020016040519081016040528093929190818152602001838380828437600092019190915250611aec92505050565b9050610cca611bb9565b15610d6357843414610d5e576040517f08c379a000000000000000000000000000000000000000000000000000000000815260206004820152602e60248201527f43726f7373446f6d61696e4d657373656e6765723a206d69736d61746368656460448201527f206d6573736167652076616c7565000000000000000000000000000000000000606482015260840161078b565b610eb5565b3415610e17576040517f08c379a000000000000000000000000000000000000000000000000000000000815260206004820152605060248201527f43726f7373446f6d61696e4d657373656e6765723a2076616c7565206d75737460448201527f206265207a65726f20756e6c657373206d6573736167652069732066726f6d2060648201527f612073797374656d206164647265737300000000000000000000000000000000608482015260a40161078b565b600081815260cd602052604090205460ff16610eb5576040517f08c379a000000000000000000000000000000000000000000000000000000000815260206004820152603060248201527f43726f7373446f6d61696e4d657373656e6765723a206d65737361676520636160448201527f6e6e6f74206265207265706c6179656400000000000000000000000000000000606482015260840161078b565b73ffffffffffffffffffffffffffffffffffffffff8616600090815260ce602052604090205460ff1615610f91576040517f08c379a000000000000000000000000000000000000000000000000000000000815260206004820152604360248201527f43726f7373446f6d61696e4d657373656e6765723a2063616e6e6f742073656e60448201527f64206d65737361676520746f20626c6f636b65642073797374656d206164647260648201527f6573730000000000000000000000000000000000000000000000000000000000608482015260a40161078b565b600081815260c9602052604090205460ff1615611030576040517f08c379a000000000000000000000000000000000000000000000000000000000815260206004820152603660248201527f43726f7373446f6d61696e4d657373656e6765723a206d65737361676520686160448201527f7320616c7265616479206265656e2072656c6179656400000000000000000000606482015260840161078b565b61103c61afc885612691565b5a10156110cb576040517f08c379a000000000000000000000000000000000000000000000000000000000815260206004820152603760248201527f43726f7373446f6d61696e4d657373656e6765723a20696e737566666963696560448201527f6e742067617320746f2072656c6179206d657373616765000000000000000000606482015260840161078b565b60ca80547fffffffffffffffffffffffff00000000000000000000000000000000000000001673ffffffffffffffffffffffffffffffffffffffff891617905560006111698761111f61138861afc86126a9565b5a61112a91906126a9565b88600088888080601f016020809104026020016040519081016040528093929190818152602001838380828437600092019190915250611ccd92505050565b5060ca80547fffffffffffffffffffffffff00000000000000000000000000000000000000001661dead17905590508015156001141561120657600082815260c9602052604080822080547fffffffffffffffffffffffffffffffffffffffffffffffffffffffffffffff001660011790555183917f4641df4a962071e12719d8c8c8e5ac7fc4d97b927346a3d7a335b1f7517e133c91a2611265565b600082815260cd602052604080822080547fffffffffffffffffffffffffffffffffffffffffffffffffffffffffffffff001660011790555183917f99d0e048484baa1b1540b1367cb128acd7ab2946d1ed91ec10e3c85e4bf51b8f91a25b5050600160975550505050505050565b905090565b60335473ffffffffffffffffffffffffffffffffffffffff1633146112fb576040517f08c379a000000000000000000000000000000000000000000000000000000000815260206004820181905260248201527f4f776e61626c653a2063616c6c6572206973206e6f7420746865206f776e6572604482015260640161078b565b73ffffffffffffffffffffffffffffffffffffffff811661139e576040517f08c379a000000000000000000000000000000000000000000000000000000000815260206004820152602660248201527f4f776e61626c653a206e6577206f776e657220697320746865207a65726f206160448201527f6464726573730000000000000000000000000000000000000000000000000000606482015260840161078b565b610ac98161168b565b73ffffffffffffffffffffffffffffffffffffffff163b151590565b6040517fe9e05c4200000000000000000000000000000000000000000000000000000000815273ffffffffffffffffffffffffffffffffffffffff7f0000000000000000000000000000000000000000000000000000000000000000169063e9e05c429084906114409088908390899060009089906004016126c0565b6000604051808303818588803b15801561145957600080fd5b505af115801561146d573d6000803e3d6000fd5b505050505050505050565b60655460ff166114e4576040517f08c379a000000000000000000000000000000000000000000000000000000000815260206004820152601460248201527f5061757361626c653a206e6f7420706175736564000000000000000000000000604482015260640161078b565b606580547fffffffffffffffffffffffffffffffffffffffffffffffffffffffffffffff001690557f5db9ee0a495bf2e6ff9c91a7834c1ba4fdd244a5e8aa4e537bd38aeae4b073aa335b60405173ffffffffffffffffffffffffffffffffffffffff909116815260200160405180910390a1565b60608161159957505060408051808201909152600181527f3000000000000000000000000000000000000000000000000000000000000000602082015290565b8160005b81156115c357806115ad81612718565b91506115bc9050600a83612751565b915061159d565b60008167ffffffffffffffff8111156115de576115de61255e565b6040519080825280601f01601f191660200182016040528015611608576020820181803683370190505b5090505b8415610b935761161d6001836126a9565b915061162a600a86612765565b611635906030612691565b60f81b81838151811061164a5761164a61258d565b60200101907effffffffffffffffffffffffffffffffffffffffffffffffffffffffffffff1916908160001a905350611684600a86612751565b945061160c565b6033805473ffffffffffffffffffffffffffffffffffffffff8381167fffffffffffffffffffffffff0000000000000000000000000000000000000000831681179093556040519116919082907f8be0079c531659141344cd1fd0a4f28419497f9722a3daafe3b4186f6b6457e090600090a35050565b60008054610100900460ff16156117b9578160ff1660011480156117255750303b155b6117b1576040517f08c379a000000000000000000000000000000000000000000000000000000000815260206004820152602e60248201527f496e697469616c697a61626c653a20636f6e747261637420697320616c72656160448201527f647920696e697469616c697a6564000000000000000000000000000000000000606482015260840161078b565b506000919050565b60005460ff808416911610611850576040517f08c379a000000000000000000000000000000000000000000000000000000000815260206004820152602e60248201527f496e697469616c697a61626c653a20636f6e747261637420697320616c72656160448201527f647920696e697469616c697a6564000000000000000000000000000000000000606482015260840161078b565b50600080547fffffffffffffffffffffffffffffffffffffffffffffffffffffffffffffff001660ff92909216919091179055600190565b919050565b600054610100900460ff16611924576040517f08c379a000000000000000000000000000000000000000000000000000000000815260206004820152602b60248201527f496e697469616c697a61626c653a20636f6e7472616374206973206e6f74206960448201527f6e697469616c697a696e67000000000000000000000000000000000000000000606482015260840161078b565b60ca805461dead7fffffffffffffffffffffffff00000000000000000000000000000000000000009182161790915560cc805490911673ffffffffffffffffffffffffffffffffffffffff841617905560005b8151811015611a0757600160ce60008484815181106119985761199861258d565b60209081029190910181015173ffffffffffffffffffffffffffffffffffffffff16825281019190915260400160002080547fffffffffffffffffffffffffffffffffffffffffffffffffffffffffffffff0016911515919091179055806119ff81612718565b915050611977565b50611a10611d58565b611a18611def565b611a20611e8f565b611a28611f50565b5050565b60655460ff1615611a99576040517f08c379a000000000000000000000000000000000000000000000000000000000815260206004820152601060248201527f5061757361626c653a2070617573656400000000000000000000000000000000604482015260640161078b565b606580547fffffffffffffffffffffffffffffffffffffffffffffffffffffffffffffff001660011790557f62e78cea01bee320cd4e420270b5ea74000d11b0c9f74754ebdbfc544b05a25861152f3390565b600060f087901c80611b0c57611b048688858b611fee565b915050611baf565b8061ffff1660011415611b2757611b0488888888888861200d565b6040517f08c379a000000000000000000000000000000000000000000000000000000000815260206004820152602d60248201527f48617368696e673a20756e6b6e6f776e2063726f737320646f6d61696e206d6560448201527f73736167652076657273696f6e00000000000000000000000000000000000000606482015260840161078b565b9695505050505050565b60003373ffffffffffffffffffffffffffffffffffffffff7f000000000000000000000000000000000000000000000000000000000000000016148015611275575060cc54604080517f9bf62d82000000000000000000000000000000000000000000000000000000008152905173ffffffffffffffffffffffffffffffffffffffff928316927f00000000000000000000000000000000000000000000000000000000000000001691639bf62d829160048083019260209291908290030181865afa158015611c8d573d6000803e3d6000fd5b505050506040513d601f19601f82011682018060405250810190611cb19190612779565b73ffffffffffffffffffffffffffffffffffffffff1614905090565b6000606060008060008661ffff1667ffffffffffffffff811115611cf357611cf361255e565b6040519080825280601f01601f191660200182016040528015611d1d576020820181803683370190505b5090506000808751602089018b8e8ef191503d925086831115611d3e578692505b828152826000602083013e90999098509650505050505050565b600054610100900460ff1661079c576040517f08c379a000000000000000000000000000000000000000000000000000000000815260206004820152602b60248201527f496e697469616c697a61626c653a20636f6e7472616374206973206e6f74206960448201527f6e697469616c697a696e67000000000000000000000000000000000000000000606482015260840161078b565b600054610100900460ff16611e86576040517f08c379a000000000000000000000000000000000000000000000000000000000815260206004820152602b60248201527f496e697469616c697a61626c653a20636f6e7472616374206973206e6f74206960448201527f6e697469616c697a696e67000000000000000000000000000000000000000000606482015260840161078b565b61079c3361168b565b600054610100900460ff16611f26576040517f08c379a000000000000000000000000000000000000000000000000000000000815260206004820152602b60248201527f496e697469616c697a61626c653a20636f6e7472616374206973206e6f74206960448201527f6e697469616c697a696e67000000000000000000000000000000000000000000606482015260840161078b565b606580547fffffffffffffffffffffffffffffffffffffffffffffffffffffffffffffff00169055565b600054610100900460ff16611fe7576040517f08c379a000000000000000000000000000000000000000000000000000000000815260206004820152602b60248201527f496e697469616c697a61626c653a20636f6e7472616374206973206e6f74206960448201527f6e697469616c697a696e67000000000000000000000000000000000000000000606482015260840161078b565b6001609755565b6000611ffc85858585612030565b805190602001209050949350505050565b600061201d8787878787876120c9565b8051906020012090509695505050505050565b6060848484846040516024016120499493929190612796565b604080517fffffffffffffffffffffffffffffffffffffffffffffffffffffffffffffffe08184030181529190526020810180517bffffffffffffffffffffffffffffffffffffffffffffffffffffffff167fcbd4ece9000000000000000000000000000000000000000000000000000000001790529050949350505050565b60608686868686866040516024016120e6969594939291906127e0565b604080517fffffffffffffffffffffffffffffffffffffffffffffffffffffffffffffffe08184030181529190526020810180517bffffffffffffffffffffffffffffffffffffffffffffffffffffffff167fd764ad0b0000000000000000000000000000000000000000000000000000000017905290509695505050505050565b73ffffffffffffffffffffffffffffffffffffffff81168114610ac957600080fd5b60008083601f84011261219c57600080fd5b50813567ffffffffffffffff8111156121b457600080fd5b6020830191508360208285010111156121cc57600080fd5b9250929050565b803563ffffffff8116811461188857600080fd5b600080600080606085870312156121fd57600080fd5b843561220881612168565b9350602085013567ffffffffffffffff81111561222457600080fd5b6122308782880161218a565b90945092506122439050604086016121d3565b905092959194509250565b60006020828403121561226057600080fd5b813561226b81612168565b9392505050565b60005b8381101561228d578181015183820152602001612275565b8381111561229c576000848401525b50505050565b600081518084526122ba816020860160208601612272565b601f017fffffffffffffffffffffffffffffffffffffffffffffffffffffffffffffffe0169290920160200192915050565b60208152600061226b60208301846122a2565b60006020828403121561231157600080fd5b5035919050565b60008060006040848603121561232d57600080fd5b833567ffffffffffffffff81111561234457600080fd5b6123508682870161218a565b90945092506123639050602085016121d3565b90509250925092565b600080600080600080600060c0888a03121561238757600080fd5b87359650602088013561239981612168565b955060408801356123a981612168565b9450606088013593506080880135925060a088013567ffffffffffffffff8111156123d357600080fd5b6123df8a828b0161218a565b989b979a50959850939692959293505050565b8183528181602085013750600060208284010152600060207fffffffffffffffffffffffffffffffffffffffffffffffffffffffffffffffe0601f840116840101905092915050565b878152600073ffffffffffffffffffffffffffffffffffffffff808916602084015280881660408401525085606083015263ffffffff8516608083015260c060a083015261248d60c0830184866123f2565b9998505050505050505050565b73ffffffffffffffffffffffffffffffffffffffff861681526080602082015260006124ca6080830186886123f2565b905083604083015263ffffffff831660608301529695505050505050565b600084516124fa818460208901612272565b80830190507f2e000000000000000000000000000000000000000000000000000000000000008082528551612536816001850160208a01612272565b60019201918201528351612551816002840160208801612272565b0160020195945050505050565b7f4e487b7100000000000000000000000000000000000000000000000000000000600052604160045260246000fd5b7f4e487b7100000000000000000000000000000000000000000000000000000000600052603260045260246000fd5b7f4e487b7100000000000000000000000000000000000000000000000000000000600052601160045260246000fd5b600063ffffffff8083168185168183048111821515161561260e5761260e6125bc565b02949350505050565b7f4e487b7100000000000000000000000000000000000000000000000000000000600052601260045260246000fd5b600063ffffffff8084168061265d5761265d612617565b92169190910492915050565b600063ffffffff808316818516808303821115612688576126886125bc565b01949350505050565b600082198211156126a4576126a46125bc565b500190565b6000828210156126bb576126bb6125bc565b500390565b73ffffffffffffffffffffffffffffffffffffffff8616815284602082015267ffffffffffffffff84166040820152821515606082015260a06080820152600061270d60a08301846122a2565b979650505050505050565b60007fffffffffffffffffffffffffffffffffffffffffffffffffffffffffffffffff82141561274a5761274a6125bc565b5060010190565b60008261276057612760612617565b500490565b60008261277457612774612617565b500690565b60006020828403121561278b57600080fd5b815161226b81612168565b600073ffffffffffffffffffffffffffffffffffffffff8087168352808616602084015250608060408301526127cf60808301856122a2565b905082606083015295945050505050565b868152600073ffffffffffffffffffffffffffffffffffffffff808816602084015280871660408401525084606083015283608083015260c060a083015261282b60c08301846122a2565b9897505050505050505056fea164736f6c634300080a000a496e697469616c697a61626c653a20636f6e747261637420697320616c726561496e697469616c697a61626c653a20636f6e7472616374206973206e6f742069",
  "devdoc": {
    "version": 1,
    "kind": "dev",
    "methods": {
      "baseGas(bytes,uint32)": {
        "params": {
          "_message": "Message to compute the amount of required gas for.",
          "_minGasLimit": "Minimum desired gas limit when message goes to target."
        },
        "returns": {
          "_0": "Amount of gas required to guarantee message receipt."
        }
      },
      "constructor": {
        "params": {
          "_portal": "Address of the OptimismPortal contract on this network."
        }
      },
      "messageNonce()": {
        "returns": {
          "_0": "Nonce of the next message to be sent, with added message version."
        }
      },
      "owner()": {
        "details": "Returns the address of the current owner."
      },
      "paused()": {
        "details": "Returns true if the contract is paused, and false otherwise."
      },
      "relayMessage(uint256,address,address,uint256,uint256,bytes)": {
        "params": {
          "_message": "Message to send to the target.",
          "_minGasLimit": "Minimum amount of gas that the message can be executed with.",
          "_nonce": "Nonce of the message being relayed.",
          "_sender": "Address of the user who sent the message.",
          "_target": "Address that the message is targeted at.",
          "_value": "ETH value to send with the message."
        }
      },
      "renounceOwnership()": {
        "details": "Leaves the contract without owner. It will not be possible to call `onlyOwner` functions anymore. Can only be called by the current owner. NOTE: Renouncing ownership will leave the contract without an owner, thereby removing any functionality that is only available to the owner."
      },
      "sendMessage(address,bytes,uint32)": {
        "params": {
          "_message": "Message to trigger the target address with.",
          "_minGasLimit": "Minimum gas limit that the message can be executed with.",
          "_target": "Target contract or wallet address."
        }
      },
      "transferOwnership(address)": {
        "details": "Transfers ownership of the contract to a new account (`newOwner`). Can only be called by the current owner."
      },
      "version()": {
        "returns": {
          "_0": "Semver contract version as a string."
        }
      },
      "xDomainMessageSender()": {
        "returns": {
          "_0": "Address of the sender of the currently executing message on the other chain."
        }
      }
    }
  },
  "userdoc": {
    "version": 1,
    "kind": "user",
    "methods": {
      "MESSAGE_VERSION()": {
        "notice": "Current message version identifier."
      },
      "MIN_GAS_CALLDATA_OVERHEAD()": {
        "notice": "Extra gas added to base gas for each byte of calldata in a message."
      },
      "MIN_GAS_CONSTANT_OVERHEAD()": {
        "notice": "Constant overhead added to the base gas for a message."
      },
      "MIN_GAS_DYNAMIC_OVERHEAD_DENOMINATOR()": {
        "notice": "Denominator for dynamic overhead added to the base gas for a message."
      },
      "MIN_GAS_DYNAMIC_OVERHEAD_NUMERATOR()": {
        "notice": "Numerator for dynamic overhead added to the base gas for a message."
      },
      "baseGas(bytes,uint32)": {
        "notice": "Computes the amount of gas required to guarantee that a given message will be         received on the other chain without running out of gas. Guaranteeing that a message         will not run out of gas is important because this ensures that a message can always         be replayed on the other chain if it fails to execute completely."
      },
      "blockedSystemAddresses(address)": {
        "notice": "Mapping of blocked system addresses. Note that this is NOT a mapping of blocked user         addresses and cannot be used to prevent users from sending or receiving messages.         This is ONLY used to prevent the execution of messages to specific system addresses         that could cause security issues, e.g., having the CrossDomainMessenger send         messages to itself."
      },
      "initialize()": {
        "notice": "Initializer."
      },
      "messageNonce()": {
        "notice": "Retrieves the next message nonce. Message version will be added to the upper two         bytes of the message nonce. Message version allows us to treat messages as having         different structures."
      },
      "otherMessenger()": {
        "notice": "Address of the paired CrossDomainMessenger contract on the other chain."
      },
      "pause()": {
        "notice": "Allows the owner of this contract to temporarily pause message relaying. Backup         security mechanism just in case. Owner should be the same as the upgrade wallet to         maintain the security model of the system as a whole."
      },
      "portal()": {
        "notice": "Address of the OptimismPortal."
      },
      "receivedMessages(bytes32)": {
        "notice": "Mapping of message hashes to boolean receipt values. Note that a message will only         be present in this mapping if it failed to be relayed on this chain at least once.         If a message is successfully relayed on the first attempt, then it will only be         present within the successfulMessages mapping."
      },
      "relayMessage(uint256,address,address,uint256,uint256,bytes)": {
        "notice": "Relays a message that was sent by the other CrossDomainMessenger contract. Can only         be executed via cross-chain call from the other messenger OR if the message was         already received once and is currently being replayed."
      },
      "sendMessage(address,bytes,uint32)": {
        "notice": "Sends a message to some target address on the other chain."
      },
      "successfulMessages(bytes32)": {
        "notice": "Mapping of message hashes to boolean receipt values. Note that a message will only         be present in this mapping if it failed to be relayed on this chain at least once.         If a message is successfully relayed on the first attempt, then it will only be         present within the successfulMessages mapping."
      },
      "unpause()": {
        "notice": "Allows the owner of this contract to resume message relaying once paused."
      },
      "version()": {
        "notice": "Returns the full semver contract version."
      },
      "xDomainMessageSender()": {
        "notice": "Retrieves the address of the contract or wallet that initiated the currently         executing message on the other chain. Will throw an error if there is no message         currently being executed. Allows the recipient of a call to see who triggered it."
      }
    },
    "events": {
      "FailedRelayedMessage(bytes32)": {
        "notice": "Emitted whenever a message fails to be relayed on this chain."
      },
      "RelayedMessage(bytes32)": {
        "notice": "Emitted whenever a message is successfully relayed on this chain."
      },
      "SentMessage(address,address,bytes,uint256,uint256)": {
        "notice": "Emitted whenever a message is sent to the other chain."
      }
    },
    "notice": "The L1CrossDomainMessenger is a message passing interface between L1 and L2 responsible         for sending and receiving data on the L1 side. Users are encouraged to use this         interface instead of interacting with lower-level contracts directly."
  },
  "storageLayout": {
    "storage": [
      {
        "astId": 23671,
        "contract": "contracts/L1/L1CrossDomainMessenger.sol:L1CrossDomainMessenger",
        "label": "_initialized",
        "offset": 0,
        "slot": "0",
        "type": "t_uint8"
      },
      {
        "astId": 23674,
        "contract": "contracts/L1/L1CrossDomainMessenger.sol:L1CrossDomainMessenger",
        "label": "_initializing",
        "offset": 1,
        "slot": "0",
        "type": "t_bool"
      },
      {
        "astId": 24260,
        "contract": "contracts/L1/L1CrossDomainMessenger.sol:L1CrossDomainMessenger",
        "label": "__gap",
        "offset": 0,
        "slot": "1",
        "type": "t_array(t_uint256)50_storage"
      },
      {
        "astId": 23551,
        "contract": "contracts/L1/L1CrossDomainMessenger.sol:L1CrossDomainMessenger",
        "label": "_owner",
        "offset": 0,
        "slot": "51",
        "type": "t_address"
      },
      {
        "astId": 23663,
        "contract": "contracts/L1/L1CrossDomainMessenger.sol:L1CrossDomainMessenger",
        "label": "__gap",
        "offset": 0,
        "slot": "52",
        "type": "t_array(t_uint256)49_storage"
      },
      {
        "astId": 23827,
        "contract": "contracts/L1/L1CrossDomainMessenger.sol:L1CrossDomainMessenger",
        "label": "_paused",
        "offset": 0,
        "slot": "101",
        "type": "t_bool"
      },
      {
        "astId": 23916,
        "contract": "contracts/L1/L1CrossDomainMessenger.sol:L1CrossDomainMessenger",
        "label": "__gap",
        "offset": 0,
        "slot": "102",
        "type": "t_array(t_uint256)49_storage"
      },
      {
        "astId": 23931,
        "contract": "contracts/L1/L1CrossDomainMessenger.sol:L1CrossDomainMessenger",
        "label": "_status",
        "offset": 0,
        "slot": "151",
        "type": "t_uint256"
      },
      {
        "astId": 23975,
        "contract": "contracts/L1/L1CrossDomainMessenger.sol:L1CrossDomainMessenger",
        "label": "__gap",
        "offset": 0,
        "slot": "152",
        "type": "t_array(t_uint256)49_storage"
      },
      {
        "astId": 21323,
        "contract": "contracts/L1/L1CrossDomainMessenger.sol:L1CrossDomainMessenger",
        "label": "successfulMessages",
        "offset": 0,
        "slot": "201",
        "type": "t_mapping(t_bytes32,t_bool)"
      },
      {
        "astId": 21326,
        "contract": "contracts/L1/L1CrossDomainMessenger.sol:L1CrossDomainMessenger",
        "label": "xDomainMsgSender",
        "offset": 0,
        "slot": "202",
        "type": "t_address"
      },
      {
        "astId": 21329,
        "contract": "contracts/L1/L1CrossDomainMessenger.sol:L1CrossDomainMessenger",
        "label": "msgNonce",
        "offset": 0,
        "slot": "203",
        "type": "t_uint240"
      },
      {
        "astId": 21332,
        "contract": "contracts/L1/L1CrossDomainMessenger.sol:L1CrossDomainMessenger",
        "label": "otherMessenger",
        "offset": 0,
        "slot": "204",
        "type": "t_address"
      },
      {
        "astId": 21337,
        "contract": "contracts/L1/L1CrossDomainMessenger.sol:L1CrossDomainMessenger",
        "label": "receivedMessages",
        "offset": 0,
        "slot": "205",
        "type": "t_mapping(t_bytes32,t_bool)"
      },
      {
        "astId": 21342,
        "contract": "contracts/L1/L1CrossDomainMessenger.sol:L1CrossDomainMessenger",
        "label": "blockedSystemAddresses",
        "offset": 0,
        "slot": "206",
        "type": "t_mapping(t_address,t_bool)"
      }
    ],
    "types": {
      "t_address": {
        "encoding": "inplace",
        "label": "address",
        "numberOfBytes": "20"
      },
      "t_array(t_uint256)49_storage": {
        "encoding": "inplace",
        "label": "uint256[49]",
        "numberOfBytes": "1568"
      },
      "t_array(t_uint256)50_storage": {
        "encoding": "inplace",
        "label": "uint256[50]",
        "numberOfBytes": "1600"
      },
      "t_bool": {
        "encoding": "inplace",
        "label": "bool",
        "numberOfBytes": "1"
      },
      "t_bytes32": {
        "encoding": "inplace",
        "label": "bytes32",
        "numberOfBytes": "32"
      },
      "t_mapping(t_address,t_bool)": {
        "encoding": "mapping",
        "label": "mapping(address => bool)",
        "numberOfBytes": "32"
      },
      "t_mapping(t_bytes32,t_bool)": {
        "encoding": "mapping",
        "label": "mapping(bytes32 => bool)",
        "numberOfBytes": "32"
      },
      "t_uint240": {
        "encoding": "inplace",
        "label": "uint240",
        "numberOfBytes": "30"
      },
      "t_uint256": {
        "encoding": "inplace",
        "label": "uint256",
        "numberOfBytes": "32"
      },
      "t_uint8": {
        "encoding": "inplace",
        "label": "uint8",
        "numberOfBytes": "1"
      }
    }
  }
}