{
  "address": "0x5A5b074921BeEA087fF5a0B98457F57501267dc7",
  "abi": [
    {
      "inputs": [
        {
          "internalType": "address payable",
          "name": "_messenger",
          "type": "address"
        }
      ],
      "stateMutability": "nonpayable",
      "type": "constructor"
    },
    {
      "anonymous": false,
      "inputs": [
        {
          "indexed": true,
          "internalType": "address",
          "name": "localToken",
          "type": "address"
        },
        {
          "indexed": true,
          "internalType": "address",
          "name": "remoteToken",
          "type": "address"
        },
        {
          "indexed": true,
          "internalType": "address",
          "name": "from",
          "type": "address"
        },
        {
          "indexed": false,
          "internalType": "address",
          "name": "to",
          "type": "address"
        },
        {
          "indexed": false,
          "internalType": "uint256",
          "name": "amount",
          "type": "uint256"
        },
        {
          "indexed": false,
          "internalType": "bytes",
          "name": "extraData",
          "type": "bytes"
        }
      ],
      "name": "ERC20BridgeFailed",
      "type": "event"
    },
    {
      "anonymous": false,
      "inputs": [
        {
          "indexed": true,
          "internalType": "address",
          "name": "localToken",
          "type": "address"
        },
        {
          "indexed": true,
          "internalType": "address",
          "name": "remoteToken",
          "type": "address"
        },
        {
          "indexed": true,
          "internalType": "address",
          "name": "from",
          "type": "address"
        },
        {
          "indexed": false,
          "internalType": "address",
          "name": "to",
          "type": "address"
        },
        {
          "indexed": false,
          "internalType": "uint256",
          "name": "amount",
          "type": "uint256"
        },
        {
          "indexed": false,
          "internalType": "bytes",
          "name": "extraData",
          "type": "bytes"
        }
      ],
      "name": "ERC20BridgeFinalized",
      "type": "event"
    },
    {
      "anonymous": false,
      "inputs": [
        {
          "indexed": true,
          "internalType": "address",
          "name": "localToken",
          "type": "address"
        },
        {
          "indexed": true,
          "internalType": "address",
          "name": "remoteToken",
          "type": "address"
        },
        {
          "indexed": true,
          "internalType": "address",
          "name": "from",
          "type": "address"
        },
        {
          "indexed": false,
          "internalType": "address",
          "name": "to",
          "type": "address"
        },
        {
          "indexed": false,
          "internalType": "uint256",
          "name": "amount",
          "type": "uint256"
        },
        {
          "indexed": false,
          "internalType": "bytes",
          "name": "extraData",
          "type": "bytes"
        }
      ],
      "name": "ERC20BridgeInitiated",
      "type": "event"
    },
    {
      "anonymous": false,
      "inputs": [
        {
          "indexed": true,
          "internalType": "address",
          "name": "l1Token",
          "type": "address"
        },
        {
          "indexed": true,
          "internalType": "address",
          "name": "l2Token",
          "type": "address"
        },
        {
          "indexed": true,
          "internalType": "address",
          "name": "from",
          "type": "address"
        },
        {
          "indexed": false,
          "internalType": "address",
          "name": "to",
          "type": "address"
        },
        {
          "indexed": false,
          "internalType": "uint256",
          "name": "amount",
          "type": "uint256"
        },
        {
          "indexed": false,
          "internalType": "bytes",
          "name": "extraData",
          "type": "bytes"
        }
      ],
      "name": "ERC20DepositInitiated",
      "type": "event"
    },
    {
      "anonymous": false,
      "inputs": [
        {
          "indexed": true,
          "internalType": "address",
          "name": "l1Token",
          "type": "address"
        },
        {
          "indexed": true,
          "internalType": "address",
          "name": "l2Token",
          "type": "address"
        },
        {
          "indexed": true,
          "internalType": "address",
          "name": "from",
          "type": "address"
        },
        {
          "indexed": false,
          "internalType": "address",
          "name": "to",
          "type": "address"
        },
        {
          "indexed": false,
          "internalType": "uint256",
          "name": "amount",
          "type": "uint256"
        },
        {
          "indexed": false,
          "internalType": "bytes",
          "name": "extraData",
          "type": "bytes"
        }
      ],
      "name": "ERC20WithdrawalFinalized",
      "type": "event"
    },
    {
      "anonymous": false,
      "inputs": [
        {
          "indexed": true,
          "internalType": "address",
          "name": "from",
          "type": "address"
        },
        {
          "indexed": true,
          "internalType": "address",
          "name": "to",
          "type": "address"
        },
        {
          "indexed": false,
          "internalType": "uint256",
          "name": "amount",
          "type": "uint256"
        },
        {
          "indexed": false,
          "internalType": "bytes",
          "name": "extraData",
          "type": "bytes"
        }
      ],
      "name": "ETHBridgeFinalized",
      "type": "event"
    },
    {
      "anonymous": false,
      "inputs": [
        {
          "indexed": true,
          "internalType": "address",
          "name": "from",
          "type": "address"
        },
        {
          "indexed": true,
          "internalType": "address",
          "name": "to",
          "type": "address"
        },
        {
          "indexed": false,
          "internalType": "uint256",
          "name": "amount",
          "type": "uint256"
        },
        {
          "indexed": false,
          "internalType": "bytes",
          "name": "extraData",
          "type": "bytes"
        }
      ],
      "name": "ETHBridgeInitiated",
      "type": "event"
    },
    {
      "anonymous": false,
      "inputs": [
        {
          "indexed": true,
          "internalType": "address",
          "name": "from",
          "type": "address"
        },
        {
          "indexed": true,
          "internalType": "address",
          "name": "to",
          "type": "address"
        },
        {
          "indexed": false,
          "internalType": "uint256",
          "name": "amount",
          "type": "uint256"
        },
        {
          "indexed": false,
          "internalType": "bytes",
          "name": "extraData",
          "type": "bytes"
        }
      ],
      "name": "ETHDepositInitiated",
      "type": "event"
    },
    {
      "anonymous": false,
      "inputs": [
        {
          "indexed": true,
          "internalType": "address",
          "name": "from",
          "type": "address"
        },
        {
          "indexed": true,
          "internalType": "address",
          "name": "to",
          "type": "address"
        },
        {
          "indexed": false,
          "internalType": "uint256",
          "name": "amount",
          "type": "uint256"
        },
        {
          "indexed": false,
          "internalType": "bytes",
          "name": "extraData",
          "type": "bytes"
        }
      ],
      "name": "ETHWithdrawalFinalized",
      "type": "event"
    },
    {
      "anonymous": false,
      "inputs": [
        {
          "indexed": false,
          "internalType": "uint8",
          "name": "version",
          "type": "uint8"
        }
      ],
      "name": "Initialized",
      "type": "event"
    },
    {
      "inputs": [
        {
          "internalType": "address",
          "name": "_localToken",
          "type": "address"
        },
        {
          "internalType": "address",
          "name": "_remoteToken",
          "type": "address"
        },
        {
          "internalType": "uint256",
          "name": "_amount",
          "type": "uint256"
        },
        {
          "internalType": "uint32",
          "name": "_minGasLimit",
          "type": "uint32"
        },
        {
          "internalType": "bytes",
          "name": "_extraData",
          "type": "bytes"
        }
      ],
      "name": "bridgeERC20",
      "outputs": [],
      "stateMutability": "nonpayable",
      "type": "function"
    },
    {
      "inputs": [
        {
          "internalType": "address",
          "name": "_localToken",
          "type": "address"
        },
        {
          "internalType": "address",
          "name": "_remoteToken",
          "type": "address"
        },
        {
          "internalType": "address",
          "name": "_to",
          "type": "address"
        },
        {
          "internalType": "uint256",
          "name": "_amount",
          "type": "uint256"
        },
        {
          "internalType": "uint32",
          "name": "_minGasLimit",
          "type": "uint32"
        },
        {
          "internalType": "bytes",
          "name": "_extraData",
          "type": "bytes"
        }
      ],
      "name": "bridgeERC20To",
      "outputs": [],
      "stateMutability": "nonpayable",
      "type": "function"
    },
    {
      "inputs": [
        {
          "internalType": "uint32",
          "name": "_minGasLimit",
          "type": "uint32"
        },
        {
          "internalType": "bytes",
          "name": "_extraData",
          "type": "bytes"
        }
      ],
      "name": "bridgeETH",
      "outputs": [],
      "stateMutability": "payable",
      "type": "function"
    },
    {
      "inputs": [
        {
          "internalType": "address",
          "name": "_to",
          "type": "address"
        },
        {
          "internalType": "uint32",
          "name": "_minGasLimit",
          "type": "uint32"
        },
        {
          "internalType": "bytes",
          "name": "_extraData",
          "type": "bytes"
        }
      ],
      "name": "bridgeETHTo",
      "outputs": [],
      "stateMutability": "payable",
      "type": "function"
    },
    {
      "inputs": [
        {
          "internalType": "address",
          "name": "_localToken",
          "type": "address"
        },
        {
          "internalType": "address",
          "name": "_remoteToken",
          "type": "address"
        },
        {
          "internalType": "address",
          "name": "_to",
          "type": "address"
        },
        {
          "internalType": "uint256",
          "name": "_amount",
          "type": "uint256"
        }
      ],
      "name": "completeOutboundTransfer",
      "outputs": [],
      "stateMutability": "nonpayable",
      "type": "function"
    },
    {
      "inputs": [
        {
          "internalType": "address",
          "name": "_l1Token",
          "type": "address"
        },
        {
          "internalType": "address",
          "name": "_l2Token",
          "type": "address"
        },
        {
          "internalType": "uint256",
          "name": "_amount",
          "type": "uint256"
        },
        {
          "internalType": "uint32",
          "name": "_minGasLimit",
          "type": "uint32"
        },
        {
          "internalType": "bytes",
          "name": "_extraData",
          "type": "bytes"
        }
      ],
      "name": "depositERC20",
      "outputs": [],
      "stateMutability": "nonpayable",
      "type": "function"
    },
    {
      "inputs": [
        {
          "internalType": "address",
          "name": "_l1Token",
          "type": "address"
        },
        {
          "internalType": "address",
          "name": "_l2Token",
          "type": "address"
        },
        {
          "internalType": "address",
          "name": "_to",
          "type": "address"
        },
        {
          "internalType": "uint256",
          "name": "_amount",
          "type": "uint256"
        },
        {
          "internalType": "uint32",
          "name": "_minGasLimit",
          "type": "uint32"
        },
        {
          "internalType": "bytes",
          "name": "_extraData",
          "type": "bytes"
        }
      ],
      "name": "depositERC20To",
      "outputs": [],
      "stateMutability": "nonpayable",
      "type": "function"
    },
    {
      "inputs": [
        {
          "internalType": "uint32",
          "name": "_minGasLimit",
          "type": "uint32"
        },
        {
          "internalType": "bytes",
          "name": "_extraData",
          "type": "bytes"
        }
      ],
      "name": "depositETH",
      "outputs": [],
      "stateMutability": "payable",
      "type": "function"
    },
    {
      "inputs": [
        {
          "internalType": "address",
          "name": "_to",
          "type": "address"
        },
        {
          "internalType": "uint32",
          "name": "_minGasLimit",
          "type": "uint32"
        },
        {
          "internalType": "bytes",
          "name": "_extraData",
          "type": "bytes"
        }
      ],
      "name": "depositETHTo",
      "outputs": [],
      "stateMutability": "payable",
      "type": "function"
    },
    {
      "inputs": [
        {
          "internalType": "address",
          "name": "",
          "type": "address"
        },
        {
          "internalType": "address",
          "name": "",
          "type": "address"
        }
      ],
      "name": "deposits",
      "outputs": [
        {
          "internalType": "uint256",
          "name": "",
          "type": "uint256"
        }
      ],
      "stateMutability": "view",
      "type": "function"
    },
    {
      "inputs": [
        {
          "internalType": "address",
          "name": "_localToken",
          "type": "address"
        },
        {
          "internalType": "address",
          "name": "_remoteToken",
          "type": "address"
        },
        {
          "internalType": "address",
          "name": "_from",
          "type": "address"
        },
        {
          "internalType": "address",
          "name": "_to",
          "type": "address"
        },
        {
          "internalType": "uint256",
          "name": "_amount",
          "type": "uint256"
        },
        {
          "internalType": "bytes",
          "name": "_extraData",
          "type": "bytes"
        }
      ],
      "name": "finalizeBridgeERC20",
      "outputs": [],
      "stateMutability": "nonpayable",
      "type": "function"
    },
    {
      "inputs": [
        {
          "internalType": "address",
          "name": "_from",
          "type": "address"
        },
        {
          "internalType": "address",
          "name": "_to",
          "type": "address"
        },
        {
          "internalType": "uint256",
          "name": "_amount",
          "type": "uint256"
        },
        {
          "internalType": "bytes",
          "name": "_extraData",
          "type": "bytes"
        }
      ],
      "name": "finalizeBridgeETH",
      "outputs": [],
      "stateMutability": "payable",
      "type": "function"
    },
    {
      "inputs": [
        {
          "internalType": "address",
          "name": "_l1Token",
          "type": "address"
        },
        {
          "internalType": "address",
          "name": "_l2Token",
          "type": "address"
        },
        {
          "internalType": "address",
          "name": "_from",
          "type": "address"
        },
        {
          "internalType": "address",
          "name": "_to",
          "type": "address"
        },
        {
          "internalType": "uint256",
          "name": "_amount",
          "type": "uint256"
        },
        {
          "internalType": "bytes",
          "name": "_extraData",
          "type": "bytes"
        }
      ],
      "name": "finalizeERC20Withdrawal",
      "outputs": [],
      "stateMutability": "nonpayable",
      "type": "function"
    },
    {
      "inputs": [
        {
          "internalType": "address",
          "name": "_from",
          "type": "address"
        },
        {
          "internalType": "address",
          "name": "_to",
          "type": "address"
        },
        {
          "internalType": "uint256",
          "name": "_amount",
          "type": "uint256"
        },
        {
          "internalType": "bytes",
          "name": "_extraData",
          "type": "bytes"
        }
      ],
      "name": "finalizeETHWithdrawal",
      "outputs": [],
      "stateMutability": "payable",
      "type": "function"
    },
    {
      "inputs": [
        {
          "internalType": "address payable",
          "name": "_messenger",
          "type": "address"
        }
      ],
      "name": "initialize",
      "outputs": [],
      "stateMutability": "nonpayable",
      "type": "function"
    },
    {
      "inputs": [],
      "name": "l2TokenBridge",
      "outputs": [
        {
          "internalType": "address",
          "name": "",
          "type": "address"
        }
      ],
      "stateMutability": "view",
      "type": "function"
    },
    {
      "inputs": [],
      "name": "messenger",
      "outputs": [
        {
          "internalType": "contract CrossDomainMessenger",
          "name": "",
          "type": "address"
        }
      ],
      "stateMutability": "view",
      "type": "function"
    },
    {
      "inputs": [],
      "name": "otherBridge",
      "outputs": [
        {
          "internalType": "contract StandardBridge",
          "name": "",
          "type": "address"
        }
      ],
      "stateMutability": "view",
      "type": "function"
    },
    {
      "inputs": [],
      "name": "version",
      "outputs": [
        {
          "internalType": "string",
          "name": "",
          "type": "string"
        }
      ],
      "stateMutability": "view",
      "type": "function"
    },
    {
      "stateMutability": "payable",
      "type": "receive"
    }
  ],
  "transactionHash": "0xdc55b22d09c669ef9838fd8f6a34601d4651e5c07b11d7ed8ba071e6dc62a2a8",
  "args": [
    "0x01023027D890148a873140f1E0628f3CD83f41f8"
  ],
  "numDeployments": 1,
  "solcInputHash": "cd42cb04f3b6a78e5824c9f427d0a55d",
  "bytecode": "0x60e06040523480156200001157600080fd5b50604051620033a9380380620033a9833981016040819052620000349162000254565b6000608081905260a052600160c0526200004e8162000055565b5062000286565b600054610100900460ff1615808015620000765750600054600160ff909116105b80620000a6575062000093306200019e60201b620004961760201c565b158015620000a6575060005460ff166001145b6200010f5760405162461bcd60e51b815260206004820152602e60248201527f496e697469616c697a61626c653a20636f6e747261637420697320616c72656160448201526d191e481a5b9a5d1a585b1a5e995960921b60648201526084015b60405180910390fd5b6000805460ff19166001179055801562000133576000805461ff0019166101001790555b6200015382734200000000000000000000000000000000000010620001ad565b80156200019a576000805461ff0019169055604051600181527f7f26b83ff96e1f2b6a682f133852f6798a09c465da95921460cefb38474024989060200160405180910390a15b5050565b6001600160a01b03163b151590565b600054610100900460ff166200021a5760405162461bcd60e51b815260206004820152602b60248201527f496e697469616c697a61626c653a20636f6e7472616374206973206e6f74206960448201526a6e697469616c697a696e6760a81b606482015260840162000106565b6000805462010000600160b01b031916620100006001600160a01b0394851602179055600180546001600160a01b03191691909216179055565b6000602082840312156200026757600080fd5b81516001600160a01b03811681146200027f57600080fd5b9392505050565b60805160a05160c0516130f3620002b6600039600061112d01526000611104015260006110db01526130f36000f3fe6080604052600436106101485760003560e01c806387087623116100c0578063af565a1311610074578063c4d66de811610059578063c4d66de814610436578063c89701a214610456578063e11013dd1461048357600080fd5b8063af565a1314610403578063b1a1a8821461042357600080fd5b806391c49bf8116100a557806391c49bf8146103a55780639a2ac6d5146103d0578063a9f9e675146103e357600080fd5b8063870876231461033f5780638f601f661461035f57600080fd5b80633cb747bf1161011757806354fd4d50116100fc57806354fd4d50146102dd57806358a997f6146102ff578063838b25201461031f57600080fd5b80633cb747bf14610260578063540abf73146102bd57600080fd5b80630166a07a1461020757806309fc8843146102275780631532ec341461023a5780631635f5fd1461024d57600080fd5b3661020257333b156101e1576040517f08c379a000000000000000000000000000000000000000000000000000000000815260206004820152603760248201527f5374616e646172644272696467653a2066756e6374696f6e2063616e206f6e6c60448201527f792062652063616c6c65642066726f6d20616e20454f4100000000000000000060648201526084015b60405180910390fd5b61020033333462030d40604051806020016040528060008152506104b2565b005b600080fd5b34801561021357600080fd5b5061020061022236600461292a565b61064e565b6102006102353660046129db565b610999565b610200610248366004612a2e565b610a70565b61020061025b366004612a2e565b610c81565b34801561026c57600080fd5b506000546102939062010000900473ffffffffffffffffffffffffffffffffffffffff1681565b60405173ffffffffffffffffffffffffffffffffffffffff90911681526020015b60405180910390f35b3480156102c957600080fd5b506102006102d8366004612aa1565b6110c4565b3480156102e957600080fd5b506102f26110d4565b6040516102b49190612b8e565b34801561030b57600080fd5b5061020061031a366004612ba1565b611177565b34801561032b57600080fd5b5061020061033a366004612aa1565b611216565b34801561034b57600080fd5b5061020061035a366004612ba1565b611226565b34801561036b57600080fd5b5061039761037a366004612c24565b600260209081526000928352604080842090915290825290205481565b6040519081526020016102b4565b3480156103b157600080fd5b5060015473ffffffffffffffffffffffffffffffffffffffff16610293565b6102006103de366004612c5d565b6112c5565b3480156103ef57600080fd5b506102006103fe36600461292a565b6112d8565b34801561040f57600080fd5b5061020061041e366004612cc0565b6114fd565b6102006104313660046129db565b61180a565b34801561044257600080fd5b50610200610451366004612d11565b6118a6565b34801561046257600080fd5b506001546102939073ffffffffffffffffffffffffffffffffffffffff1681565b610200610491366004612c5d565b611a4f565b73ffffffffffffffffffffffffffffffffffffffff163b151590565b8373ffffffffffffffffffffffffffffffffffffffff168573ffffffffffffffffffffffffffffffffffffffff167f2849b43074093a05396b6f2a937dee8565b15a48a7b3d4bffb732a5017380af58584604051610511929190612d2e565b60405180910390a360005460015460405173ffffffffffffffffffffffffffffffffffffffff62010000909304831692633dbb202b9287929116907f1635f5fd0000000000000000000000000000000000000000000000000000000090610582908b908b9086908a90602401612d47565b604080517fffffffffffffffffffffffffffffffffffffffffffffffffffffffffffffffe08184030181529181526020820180517bffffffffffffffffffffffffffffffffffffffffffffffffffffffff167fffffffff000000000000000000000000000000000000000000000000000000009485161790525160e086901b909216825261061592918890600401612d86565b6000604051808303818588803b15801561062e57600080fd5b505af1158015610642573d6000803e3d6000fd5b50505050505050505050565b60005462010000900473ffffffffffffffffffffffffffffffffffffffff16331480156107305750600154600054604080517f6e296e45000000000000000000000000000000000000000000000000000000008152905173ffffffffffffffffffffffffffffffffffffffff938416936201000090930490921691636e296e45916004808201926020929091908290030181865afa1580156106f4573d6000803e3d6000fd5b505050506040513d601f19601f820116820180604052508101906107189190612dcb565b73ffffffffffffffffffffffffffffffffffffffff16145b6107e2576040517f08c379a000000000000000000000000000000000000000000000000000000000815260206004820152604160248201527f5374616e646172644272696467653a2066756e6374696f6e2063616e206f6e6c60448201527f792062652063616c6c65642066726f6d20746865206f7468657220627269646760648201527f6500000000000000000000000000000000000000000000000000000000000000608482015260a4016101d8565b6040517faf565a1300000000000000000000000000000000000000000000000000000000815273ffffffffffffffffffffffffffffffffffffffff808916600483015280881660248301528516604482015260648101849052309063af565a1390608401600060405180830381600087803b15801561086057600080fd5b505af1925050508015610871575060015b61090d57610886878786888760008888611a92565b8473ffffffffffffffffffffffffffffffffffffffff168673ffffffffffffffffffffffffffffffffffffffff168873ffffffffffffffffffffffffffffffffffffffff167f2755817676249910615f0a6a240ad225abe5343df8d527f7294c4af36a92009a878787876040516109009493929190612e31565b60405180910390a4610990565b8473ffffffffffffffffffffffffffffffffffffffff168673ffffffffffffffffffffffffffffffffffffffff168873ffffffffffffffffffffffffffffffffffffffff167fd59c65b35445225835c83f50b6ede06a7be047d22e357073e250d9af537518cd878787876040516109879493929190612e31565b60405180910390a45b50505050505050565b333b15610a28576040517f08c379a000000000000000000000000000000000000000000000000000000000815260206004820152603760248201527f5374616e646172644272696467653a2066756e6374696f6e2063616e206f6e6c60448201527f792062652063616c6c65642066726f6d20616e20454f4100000000000000000060648201526084016101d8565b610a6b3333348686868080601f0160208091040260200160405190810160405280939291908181526020018383808284376000920191909152506104b292505050565b505050565b60005462010000900473ffffffffffffffffffffffffffffffffffffffff1633148015610b525750600154600054604080517f6e296e45000000000000000000000000000000000000000000000000000000008152905173ffffffffffffffffffffffffffffffffffffffff938416936201000090930490921691636e296e45916004808201926020929091908290030181865afa158015610b16573d6000803e3d6000fd5b505050506040513d601f19601f82011682018060405250810190610b3a9190612dcb565b73ffffffffffffffffffffffffffffffffffffffff16145b610c04576040517f08c379a000000000000000000000000000000000000000000000000000000000815260206004820152604160248201527f5374616e646172644272696467653a2066756e6374696f6e2063616e206f6e6c60448201527f792062652063616c6c65642066726f6d20746865206f7468657220627269646760648201527f6500000000000000000000000000000000000000000000000000000000000000608482015260a4016101d8565b8373ffffffffffffffffffffffffffffffffffffffff168573ffffffffffffffffffffffffffffffffffffffff167f2ac69ee804d9a7a0984249f508dfab7cb2534b465b6ce1580f99a38ba9c5e631858585604051610c6593929190612e67565b60405180910390a3610c7a8585858585610c81565b5050505050565b60005462010000900473ffffffffffffffffffffffffffffffffffffffff1633148015610d635750600154600054604080517f6e296e45000000000000000000000000000000000000000000000000000000008152905173ffffffffffffffffffffffffffffffffffffffff938416936201000090930490921691636e296e45916004808201926020929091908290030181865afa158015610d27573d6000803e3d6000fd5b505050506040513d601f19601f82011682018060405250810190610d4b9190612dcb565b73ffffffffffffffffffffffffffffffffffffffff16145b610e15576040517f08c379a000000000000000000000000000000000000000000000000000000000815260206004820152604160248201527f5374616e646172644272696467653a2066756e6374696f6e2063616e206f6e6c60448201527f792062652063616c6c65642066726f6d20746865206f7468657220627269646760648201527f6500000000000000000000000000000000000000000000000000000000000000608482015260a4016101d8565b823414610ea4576040517f08c379a000000000000000000000000000000000000000000000000000000000815260206004820152603a60248201527f5374616e646172644272696467653a20616d6f756e742073656e7420646f657360448201527f206e6f74206d6174636820616d6f756e7420726571756972656400000000000060648201526084016101d8565b3073ffffffffffffffffffffffffffffffffffffffff851603610f49576040517f08c379a000000000000000000000000000000000000000000000000000000000815260206004820152602360248201527f5374616e646172644272696467653a2063616e6e6f742073656e6420746f207360448201527f656c66000000000000000000000000000000000000000000000000000000000060648201526084016101d8565b8373ffffffffffffffffffffffffffffffffffffffff168573ffffffffffffffffffffffffffffffffffffffff167f31b2166ff604fc5672ea5df08a78081d2bc6d746cadce880747f3643d819e83d858585604051610faa93929190612e67565b60405180910390a36040805160008082526020820190925273ffffffffffffffffffffffffffffffffffffffff8616908590604051610fe99190612eb9565b60006040518083038185875af1925050503d8060008114611026576040519150601f19603f3d011682016040523d82523d6000602084013e61102b565b606091505b50509050806110bc576040517f08c379a000000000000000000000000000000000000000000000000000000000815260206004820152602360248201527f5374616e646172644272696467653a20455448207472616e736665722066616960448201527f6c6564000000000000000000000000000000000000000000000000000000000060648201526084016101d8565b505050505050565b6109908787338888888888611c4f565b60606110ff7f0000000000000000000000000000000000000000000000000000000000000000611ef9565b6111287f0000000000000000000000000000000000000000000000000000000000000000611ef9565b6111517f0000000000000000000000000000000000000000000000000000000000000000611ef9565b60405160200161116393929190612ed5565b604051602081830303815290604052905090565b333b15611206576040517f08c379a000000000000000000000000000000000000000000000000000000000815260206004820152603760248201527f5374616e646172644272696467653a2066756e6374696f6e2063616e206f6e6c60448201527f792062652063616c6c65642066726f6d20616e20454f4100000000000000000060648201526084016101d8565b6110bc8686333388888888612036565b6109908787338888888888612036565b333b156112b5576040517f08c379a000000000000000000000000000000000000000000000000000000000815260206004820152603760248201527f5374616e646172644272696467653a2066756e6374696f6e2063616e206f6e6c60448201527f792062652063616c6c65642066726f6d20616e20454f4100000000000000000060648201526084016101d8565b6110bc8686333388888888611c4f565b6112d233858585856120c8565b50505050565b60005462010000900473ffffffffffffffffffffffffffffffffffffffff16331480156113ba5750600154600054604080517f6e296e45000000000000000000000000000000000000000000000000000000008152905173ffffffffffffffffffffffffffffffffffffffff938416936201000090930490921691636e296e45916004808201926020929091908290030181865afa15801561137e573d6000803e3d6000fd5b505050506040513d601f19601f820116820180604052508101906113a29190612dcb565b73ffffffffffffffffffffffffffffffffffffffff16145b61146c576040517f08c379a000000000000000000000000000000000000000000000000000000000815260206004820152604160248201527f5374616e646172644272696467653a2066756e6374696f6e2063616e206f6e6c60448201527f792062652063616c6c65642066726f6d20746865206f7468657220627269646760648201527f6500000000000000000000000000000000000000000000000000000000000000608482015260a4016101d8565b8473ffffffffffffffffffffffffffffffffffffffff168673ffffffffffffffffffffffffffffffffffffffff168873ffffffffffffffffffffffffffffffffffffffff167f3ceee06c1e37648fcbb6ed52e17b3e1f275a1f8c7b22a84b2b84732431e046b3878787876040516114e69493929190612e31565b60405180910390a46109908787878787878761064e565b33301461158c576040517f08c379a000000000000000000000000000000000000000000000000000000000815260206004820152603360248201527f5374616e646172644272696467653a2066756e6374696f6e2063616e206f6e6c60448201527f792062652063616c6c65642062792073656c660000000000000000000000000060648201526084016101d8565b3073ffffffffffffffffffffffffffffffffffffffff851603611631576040517f08c379a000000000000000000000000000000000000000000000000000000000815260206004820152602a60248201527f5374616e646172644272696467653a206c6f63616c20746f6b656e2063616e6e60448201527f6f742062652073656c660000000000000000000000000000000000000000000060648201526084016101d8565b61163a84612174565b156117885761164984846121a6565b6116fb576040517f08c379a000000000000000000000000000000000000000000000000000000000815260206004820152604a60248201527f5374616e646172644272696467653a2077726f6e672072656d6f746520746f6b60448201527f656e20666f72204f7074696d69736d204d696e7461626c65204552433230206c60648201527f6f63616c20746f6b656e00000000000000000000000000000000000000000000608482015260a4016101d8565b6040517f40c10f1900000000000000000000000000000000000000000000000000000000815273ffffffffffffffffffffffffffffffffffffffff8381166004830152602482018390528516906340c10f1990604401600060405180830381600087803b15801561176b57600080fd5b505af115801561177f573d6000803e3d6000fd5b505050506112d2565b73ffffffffffffffffffffffffffffffffffffffff8085166000908152600260209081526040808320938716835292905220546117c6908290612f7a565b73ffffffffffffffffffffffffffffffffffffffff8086166000818152600260209081526040808320948916835293905291909120919091556112d290838361224d565b333b15611899576040517f08c379a000000000000000000000000000000000000000000000000000000000815260206004820152603760248201527f5374616e646172644272696467653a2066756e6374696f6e2063616e206f6e6c60448201527f792062652063616c6c65642066726f6d20616e20454f4100000000000000000060648201526084016101d8565b610a6b33338585856120c8565b600054610100900460ff16158080156118c65750600054600160ff909116105b806118e05750303b1580156118e0575060005460ff166001145b61196c576040517f08c379a000000000000000000000000000000000000000000000000000000000815260206004820152602e60248201527f496e697469616c697a61626c653a20636f6e747261637420697320616c72656160448201527f647920696e697469616c697a656400000000000000000000000000000000000060648201526084016101d8565b600080547fffffffffffffffffffffffffffffffffffffffffffffffffffffffffffffff0016600117905580156119ca57600080547fffffffffffffffffffffffffffffffffffffffffffffffffffffffffffff00ff166101001790555b6119e882734200000000000000000000000000000000000010612321565b8015611a4b57600080547fffffffffffffffffffffffffffffffffffffffffffffffffffffffffffff00ff169055604051600181527f7f26b83ff96e1f2b6a682f133852f6798a09c465da95921460cefb38474024989060200160405180910390a15b5050565b6112d23385348686868080601f0160208091040260200160405190810160405280939291908181526020018383808284376000920191909152506104b292505050565b60005460015460405173ffffffffffffffffffffffffffffffffffffffff62010000909304831692633dbb202b9216907f0166a07a0000000000000000000000000000000000000000000000000000000090611afe908c908e908d908d908d908c908c90602401612f91565b604080517fffffffffffffffffffffffffffffffffffffffffffffffffffffffffffffffe08184030181529181526020820180517bffffffffffffffffffffffffffffffffffffffffffffffffffffffff167fffffffff000000000000000000000000000000000000000000000000000000009485161790525160e085901b9092168252611b9192918890600401612d86565b600060405180830381600087803b158015611bab57600080fd5b505af1158015611bbf573d6000803e3d6000fd5b505050508573ffffffffffffffffffffffffffffffffffffffff168773ffffffffffffffffffffffffffffffffffffffff168973ffffffffffffffffffffffffffffffffffffffff167f7ff126db8024424bbfd9826e8ab82ff59136289ea440b04b39a0df1b03b9cabf88888787604051611c3d9493929190612e31565b60405180910390a45050505050505050565b3073ffffffffffffffffffffffffffffffffffffffff891603611cf4576040517f08c379a000000000000000000000000000000000000000000000000000000000815260206004820152602a60248201527f5374616e646172644272696467653a206c6f63616c20746f6b656e2063616e6e60448201527f6f742062652073656c660000000000000000000000000000000000000000000060648201526084016101d8565b611cfd88612174565b15611e4b57611d0c88886121a6565b611dbe576040517f08c379a000000000000000000000000000000000000000000000000000000000815260206004820152604a60248201527f5374616e646172644272696467653a2077726f6e672072656d6f746520746f6b60448201527f656e20666f72204f7074696d69736d204d696e7461626c65204552433230206c60648201527f6f63616c20746f6b656e00000000000000000000000000000000000000000000608482015260a4016101d8565b6040517f9dc29fac00000000000000000000000000000000000000000000000000000000815273ffffffffffffffffffffffffffffffffffffffff878116600483015260248201869052891690639dc29fac90604401600060405180830381600087803b158015611e2e57600080fd5b505af1158015611e42573d6000803e3d6000fd5b50505050611edf565b611e6d73ffffffffffffffffffffffffffffffffffffffff891687308761242d565b73ffffffffffffffffffffffffffffffffffffffff8089166000908152600260209081526040808320938b1683529290522054611eab908590612fee565b73ffffffffffffffffffffffffffffffffffffffff808a166000908152600260209081526040808320938c16835292905220555b611eef8888888888888888611a92565b5050505050505050565b606081600003611f3c57505060408051808201909152600181527f3000000000000000000000000000000000000000000000000000000000000000602082015290565b8160005b8115611f665780611f5081613006565b9150611f5f9050600a8361306d565b9150611f40565b60008167ffffffffffffffff811115611f8157611f81612e8a565b6040519080825280601f01601f191660200182016040528015611fab576020820181803683370190505b5090505b841561202e57611fc0600183612f7a565b9150611fcd600a86613081565b611fd8906030612fee565b60f81b818381518110611fed57611fed613095565b60200101907effffffffffffffffffffffffffffffffffffffffffffffffffffffffffffff1916908160001a905350612027600a8661306d565b9450611faf565b949350505050565b8573ffffffffffffffffffffffffffffffffffffffff168773ffffffffffffffffffffffffffffffffffffffff168973ffffffffffffffffffffffffffffffffffffffff167f718594027abd4eaed59f95162563e0cc6d0e8d5b86b1c7be8b1b0ac3343d0396888887876040516120b09493929190612e31565b60405180910390a4611eef8888888888888888611c4f565b8373ffffffffffffffffffffffffffffffffffffffff168573ffffffffffffffffffffffffffffffffffffffff167f35d79ab81f2b2017e19afb5c5571778877782d7a8786f5907f93b0f4702f4f2334858560405161212993929190612e67565b60405180910390a3610c7a8585348686868080601f0160208091040260200160405190810160405280939291908181526020018383808284376000920191909152506104b292505050565b60006121a0827f1d1d8b630000000000000000000000000000000000000000000000000000000061248b565b92915050565b60008273ffffffffffffffffffffffffffffffffffffffff1663c01e1bd66040518163ffffffff1660e01b8152600401602060405180830381865afa1580156121f3573d6000803e3d6000fd5b505050506040513d601f19601f820116820180604052508101906122179190612dcb565b73ffffffffffffffffffffffffffffffffffffffff168273ffffffffffffffffffffffffffffffffffffffff1614905092915050565b60405173ffffffffffffffffffffffffffffffffffffffff8316602482015260448101829052610a6b9084907fa9059cbb00000000000000000000000000000000000000000000000000000000906064015b604080517fffffffffffffffffffffffffffffffffffffffffffffffffffffffffffffffe08184030181529190526020810180517bffffffffffffffffffffffffffffffffffffffffffffffffffffffff167fffffffff00000000000000000000000000000000000000000000000000000000909316929092179091526124ae565b600054610100900460ff166123b8576040517f08c379a000000000000000000000000000000000000000000000000000000000815260206004820152602b60248201527f496e697469616c697a61626c653a20636f6e7472616374206973206e6f74206960448201527f6e697469616c697a696e6700000000000000000000000000000000000000000060648201526084016101d8565b600080547fffffffffffffffffffff0000000000000000000000000000000000000000ffff166201000073ffffffffffffffffffffffffffffffffffffffff94851602179055600180547fffffffffffffffffffffffff00000000000000000000000000000000000000001691909216179055565b60405173ffffffffffffffffffffffffffffffffffffffff808516602483015283166044820152606481018290526112d29085907f23b872dd000000000000000000000000000000000000000000000000000000009060840161229f565b6000612496836125ba565b80156124a757506124a7838361261e565b9392505050565b6000612510826040518060400160405280602081526020017f5361666545524332303a206c6f772d6c6576656c2063616c6c206661696c65648152508573ffffffffffffffffffffffffffffffffffffffff1661275a9092919063ffffffff16565b805190915015610a6b578080602001905181019061252e91906130c4565b610a6b576040517f08c379a000000000000000000000000000000000000000000000000000000000815260206004820152602a60248201527f5361666545524332303a204552433230206f7065726174696f6e20646964206e60448201527f6f7420737563636565640000000000000000000000000000000000000000000060648201526084016101d8565b60006125e6827f01ffc9a70000000000000000000000000000000000000000000000000000000061261e565b80156121a05750612617827fffffffff0000000000000000000000000000000000000000000000000000000061261e565b1592915050565b604080517fffffffff00000000000000000000000000000000000000000000000000000000831660248083019190915282518083039091018152604490910182526020810180517bffffffffffffffffffffffffffffffffffffffffffffffffffffffff167f01ffc9a7000000000000000000000000000000000000000000000000000000001790529051600091908290819073ffffffffffffffffffffffffffffffffffffffff871690617530906126d8908690612eb9565b6000604051808303818686fa925050503d8060008114612714576040519150601f19603f3d011682016040523d82523d6000602084013e612719565b606091505b509150915060208151101561273457600093505050506121a0565b81801561275057508080602001905181019061275091906130c4565b9695505050505050565b606061202e84846000858573ffffffffffffffffffffffffffffffffffffffff85163b6127e3576040517f08c379a000000000000000000000000000000000000000000000000000000000815260206004820152601d60248201527f416464726573733a2063616c6c20746f206e6f6e2d636f6e747261637400000060448201526064016101d8565b6000808673ffffffffffffffffffffffffffffffffffffffff16858760405161280c9190612eb9565b60006040518083038185875af1925050503d8060008114612849576040519150601f19603f3d011682016040523d82523d6000602084013e61284e565b606091505b509150915061285e828286612869565b979650505050505050565b606083156128785750816124a7565b8251156128885782518084602001fd5b816040517f08c379a00000000000000000000000000000000000000000000000000000000081526004016101d89190612b8e565b73ffffffffffffffffffffffffffffffffffffffff811681146128de57600080fd5b50565b60008083601f8401126128f357600080fd5b50813567ffffffffffffffff81111561290b57600080fd5b60208301915083602082850101111561292357600080fd5b9250929050565b600080600080600080600060c0888a03121561294557600080fd5b8735612950816128bc565b96506020880135612960816128bc565b95506040880135612970816128bc565b94506060880135612980816128bc565b93506080880135925060a088013567ffffffffffffffff8111156129a357600080fd5b6129af8a828b016128e1565b989b979a50959850939692959293505050565b803563ffffffff811681146129d657600080fd5b919050565b6000806000604084860312156129f057600080fd5b6129f9846129c2565b9250602084013567ffffffffffffffff811115612a1557600080fd5b612a21868287016128e1565b9497909650939450505050565b600080600080600060808688031215612a4657600080fd5b8535612a51816128bc565b94506020860135612a61816128bc565b935060408601359250606086013567ffffffffffffffff811115612a8457600080fd5b612a90888289016128e1565b969995985093965092949392505050565b600080600080600080600060c0888a031215612abc57600080fd5b8735612ac7816128bc565b96506020880135612ad7816128bc565b95506040880135612ae7816128bc565b945060608801359350612afc608089016129c2565b925060a088013567ffffffffffffffff8111156129a357600080fd5b60005b83811015612b33578181015183820152602001612b1b565b838111156112d25750506000910152565b60008151808452612b5c816020860160208601612b18565b601f017fffffffffffffffffffffffffffffffffffffffffffffffffffffffffffffffe0169290920160200192915050565b6020815260006124a76020830184612b44565b60008060008060008060a08789031215612bba57600080fd5b8635612bc5816128bc565b95506020870135612bd5816128bc565b945060408701359350612bea606088016129c2565b9250608087013567ffffffffffffffff811115612c0657600080fd5b612c1289828a016128e1565b979a9699509497509295939492505050565b60008060408385031215612c3757600080fd5b8235612c42816128bc565b91506020830135612c52816128bc565b809150509250929050565b60008060008060608587031215612c7357600080fd5b8435612c7e816128bc565b9350612c8c602086016129c2565b9250604085013567ffffffffffffffff811115612ca857600080fd5b612cb4878288016128e1565b95989497509550505050565b60008060008060808587031215612cd657600080fd5b8435612ce1816128bc565b93506020850135612cf1816128bc565b92506040850135612d01816128bc565b9396929550929360600135925050565b600060208284031215612d2357600080fd5b81356124a7816128bc565b82815260406020820152600061202e6040830184612b44565b600073ffffffffffffffffffffffffffffffffffffffff8087168352808616602084015250836040830152608060608301526127506080830184612b44565b73ffffffffffffffffffffffffffffffffffffffff84168152606060208201526000612db56060830185612b44565b905063ffffffff83166040830152949350505050565b600060208284031215612ddd57600080fd5b81516124a7816128bc565b8183528181602085013750600060208284010152600060207fffffffffffffffffffffffffffffffffffffffffffffffffffffffffffffffe0601f840116840101905092915050565b73ffffffffffffffffffffffffffffffffffffffff85168152836020820152606060408201526000612750606083018486612de8565b838152604060208201526000612e81604083018486612de8565b95945050505050565b7f4e487b7100000000000000000000000000000000000000000000000000000000600052604160045260246000fd5b60008251612ecb818460208701612b18565b9190910192915050565b60008451612ee7818460208901612b18565b80830190507f2e000000000000000000000000000000000000000000000000000000000000008082528551612f23816001850160208a01612b18565b60019201918201528351612f3e816002840160208801612b18565b0160020195945050505050565b7f4e487b7100000000000000000000000000000000000000000000000000000000600052601160045260246000fd5b600082821015612f8c57612f8c612f4b565b500390565b600073ffffffffffffffffffffffffffffffffffffffff808a1683528089166020840152808816604084015280871660608401525084608083015260c060a0830152612fe160c083018486612de8565b9998505050505050505050565b6000821982111561300157613001612f4b565b500190565b60007fffffffffffffffffffffffffffffffffffffffffffffffffffffffffffffffff820361303757613037612f4b565b5060010190565b7f4e487b7100000000000000000000000000000000000000000000000000000000600052601260045260246000fd5b60008261307c5761307c61303e565b500490565b6000826130905761309061303e565b500690565b7f4e487b7100000000000000000000000000000000000000000000000000000000600052603260045260246000fd5b6000602082840312156130d657600080fd5b815180151581146124a757600080fdfea164736f6c634300080f000a",
  "devdoc": {
    "version": 1,
    "kind": "dev",
    "methods": {
      "bridgeERC20(address,address,uint256,uint32,bytes)": {
        "params": {
          "_amount": "Amount of local tokens to deposit.",
          "_extraData": "Extra data to be sent with the transaction. Note that the recipient will                     not be triggered with this data, but it will be emitted and can be used                     to identify the transaction.",
          "_localToken": "Address of the ERC20 on this chain.",
          "_minGasLimit": "Minimum amount of gas that the bridge can be relayed with.",
          "_remoteToken": "Address of the corresponding token on the remote chain."
        }
      },
      "bridgeERC20To(address,address,address,uint256,uint32,bytes)": {
        "params": {
          "_amount": "Amount of local tokens to deposit.",
          "_extraData": "Extra data to be sent with the transaction. Note that the recipient will                     not be triggered with this data, but it will be emitted and can be used                     to identify the transaction.",
          "_localToken": "Address of the ERC20 on this chain.",
          "_minGasLimit": "Minimum amount of gas that the bridge can be relayed with.",
          "_remoteToken": "Address of the corresponding token on the remote chain.",
          "_to": "Address of the receiver."
        }
      },
      "bridgeETH(uint32,bytes)": {
        "params": {
          "_extraData": "Extra data to be sent with the transaction. Note that the recipient will                     not be triggered with this data, but it will be emitted and can be used                     to identify the transaction.",
          "_minGasLimit": "Minimum amount of gas that the bridge can be relayed with."
        }
      },
      "bridgeETHTo(address,uint32,bytes)": {
        "params": {
          "_extraData": "Extra data to be sent with the transaction. Note that the recipient will                     not be triggered with this data, but it will be emitted and can be used                     to identify the transaction.",
          "_minGasLimit": "Minimum amount of gas that the bridge can be relayed with.",
          "_to": "Address of the receiver."
        }
      },
      "completeOutboundTransfer(address,address,address,uint256)": {
        "params": {
          "_amount": "Amount of ETH being bridged.",
          "_localToken": "Address of the ERC20 on this chain.",
          "_remoteToken": "Address of the corresponding token on the remote chain.",
          "_to": "Address of the receiver."
        }
      },
      "constructor": {
        "params": {
          "_messenger": "Address of the L1CrossDomainMessenger."
        }
      },
      "depositERC20(address,address,uint256,uint32,bytes)": {
        "params": {
          "_amount": "Amount of the ERC20 to deposit.",
          "_extraData": "Optional data to forward to L2. Data supplied here will not be used to                     execute any code on L2 and is only emitted as extra data for the                     convenience of off-chain tooling.",
          "_l1Token": "Address of the L1 token being deposited.",
          "_l2Token": "Address of the corresponding token on L2.",
          "_minGasLimit": "Minimum gas limit for the deposit message on L2."
        }
      },
      "depositERC20To(address,address,address,uint256,uint32,bytes)": {
        "params": {
          "_amount": "Amount of the ERC20 to deposit.",
          "_extraData": "Optional data to forward to L2. Data supplied here will not be used to                     execute any code on L2 and is only emitted as extra data for the                     convenience of off-chain tooling.",
          "_l1Token": "Address of the L1 token being deposited.",
          "_l2Token": "Address of the corresponding token on L2.",
          "_minGasLimit": "Minimum gas limit for the deposit message on L2.",
          "_to": "Address of the recipient on L2."
        }
      },
      "depositETH(uint32,bytes)": {
        "params": {
          "_extraData": "Optional data to forward to L2. Data supplied here will not be used to                     execute any code on L2 and is only emitted as extra data for the                     convenience of off-chain tooling.",
          "_minGasLimit": "Minimum gas limit for the deposit message on L2."
        }
      },
      "depositETHTo(address,uint32,bytes)": {
        "params": {
          "_extraData": "Optional data to forward to L2. Data supplied here will not be used to                     execute any code on L2 and is only emitted as extra data for the                     convenience of off-chain tooling.",
          "_minGasLimit": "Minimum gas limit for the deposit message on L2.",
          "_to": "Address of the recipient on L2."
        }
      },
      "finalizeBridgeERC20(address,address,address,address,uint256,bytes)": {
        "params": {
          "_amount": "Amount of ETH being bridged.",
          "_extraData": "Extra data to be sent with the transaction. Note that the recipient will                     not be triggered with this data, but it will be emitted and can be used                     to identify the transaction.",
          "_from": "Address of the sender.",
          "_localToken": "Address of the ERC20 on this chain.",
          "_remoteToken": "Address of the corresponding token on the remote chain.",
          "_to": "Address of the receiver."
        }
      },
      "finalizeBridgeETH(address,address,uint256,bytes)": {
        "params": {
          "_amount": "Amount of ETH being bridged.",
          "_extraData": "Extra data to be sent with the transaction. Note that the recipient will                   not be triggered with this data, but it will be emitted and can be used                   to identify the transaction.",
          "_from": "Address of the sender.",
          "_to": "Address of the receiver."
        }
      },
      "finalizeERC20Withdrawal(address,address,address,address,uint256,bytes)": {
        "params": {
          "_amount": "Amount of ETH to withdraw.",
          "_extraData": "Optional data forwarded from L2.",
          "_from": "Address of the withdrawer on L2.",
          "_l1Token": "Address of the token on L1.",
          "_l2Token": "Address of the corresponding token on L2.",
          "_to": "Address of the recipient on L1."
        }
      },
      "finalizeETHWithdrawal(address,address,uint256,bytes)": {
        "params": {
          "_amount": "Amount of ETH to withdraw.",
          "_extraData": "Optional data forwarded from L2.",
          "_from": "Address of the withdrawer on L2.",
          "_to": "Address of the recipient on L1."
        }
      },
      "initialize(address)": {
        "params": {
          "_messenger": "Address of the L1CrossDomainMessenger."
        }
      },
      "l2TokenBridge()": {
        "returns": {
          "_0": "Address of the corresponding L2 bridge contract."
        }
      },
      "version()": {
        "returns": {
          "_0": "Semver contract version as a string."
        }
      }
    },
    "events": {
      "ERC20DepositInitiated(address,address,address,address,uint256,bytes)": {
        "params": {
          "amount": "Amount of the ERC20 deposited.",
          "extraData": "Extra data attached to the deposit.",
          "from": "Address of the depositor.",
          "l1Token": "Address of the token on L1.",
          "l2Token": "Address of the corresponding token on L2.",
          "to": "Address of the recipient on L2."
        }
      },
      "ERC20WithdrawalFinalized(address,address,address,address,uint256,bytes)": {
        "params": {
          "amount": "Amount of the ERC20 withdrawn.",
          "extraData": "Extra data attached to the withdrawal.",
          "from": "Address of the withdrawer.",
          "l1Token": "Address of the token on L1.",
          "l2Token": "Address of the corresponding token on L2.",
          "to": "Address of the recipient on L1."
        }
      },
      "ETHDepositInitiated(address,address,uint256,bytes)": {
        "params": {
          "amount": "Amount of ETH deposited.",
          "extraData": "Extra data attached to the deposit.",
          "from": "Address of the depositor.",
          "to": "Address of the recipient on L2."
        }
      },
      "ETHWithdrawalFinalized(address,address,uint256,bytes)": {
        "params": {
          "amount": "Amount of ETH withdrawn.",
          "extraData": "Extra data attached to the withdrawal.",
          "from": "Address of the withdrawer.",
          "to": "Address of the recipient on L1."
        }
      }
    }
  },
  "userdoc": {
    "version": 1,
    "kind": "user",
    "methods": {
      "bridgeERC20(address,address,uint256,uint32,bytes)": {
        "notice": "Sends ERC20 tokens to the sender's address on the other chain. Note that if the         ERC20 token on the other chain does not recognize the local token as the correct         pair token, the ERC20 bridge will fail and the tokens will be returned to sender on         this chain."
      },
      "bridgeERC20To(address,address,address,uint256,uint32,bytes)": {
        "notice": "Sends ERC20 tokens to a receiver's address on the other chain. Note that if the         ERC20 token on the other chain does not recognize the local token as the correct         pair token, the ERC20 bridge will fail and the tokens will be returned to sender on         this chain."
      },
      "bridgeETH(uint32,bytes)": {
        "notice": "Sends ETH to the sender's address on the other chain."
      },
      "bridgeETHTo(address,uint32,bytes)": {
        "notice": "Sends ETH to a receiver's address on the other chain. Note that if ETH is sent to a         smart contract and the call fails, the ETH will be temporarily locked in the         StandardBridge on the other chain until the call is replayed. If the call cannot be         replayed with any amount of gas (call always reverts), then the ETH will be         permanently locked in the StandardBridge on the other chain."
      },
      "completeOutboundTransfer(address,address,address,uint256)": {
        "notice": "Completes an outbound token transfer. Public function, but can only be called by         this contract. It's security critical that there be absolutely no way for anyone to         trigger this function, except by explicit trigger within this contract. Used as a         simple way to be able to try/catch any type of revert that could occur during an         ERC20 mint/transfer."
      },
      "deposits(address,address)": {
        "notice": "Mapping that stores deposits for a given pair of local and remote tokens."
      },
      "finalizeBridgeERC20(address,address,address,address,uint256,bytes)": {
        "notice": "Finalizes an ERC20 bridge on this chain. Can only be triggered by the other         StandardBridge contract on the remote chain."
      },
      "finalizeBridgeETH(address,address,uint256,bytes)": {
        "notice": "Finalizes an ETH bridge on this chain. Can only be triggered by the other         StandardBridge contract on the remote chain."
      },
      "initialize(address)": {
        "notice": "Initializer."
      },
      "messenger()": {
        "notice": "Messenger contract on this domain."
      },
      "otherBridge()": {
        "notice": "Corresponding bridge on the other domain."
      },
      "version()": {
        "notice": "Returns the full semver contract version."
      }
    },
    "events": {
      "ERC20BridgeFailed(address,address,address,address,uint256,bytes)": {
        "notice": "Emitted when an ERC20 bridge to this chain fails."
      },
      "ERC20BridgeFinalized(address,address,address,address,uint256,bytes)": {
        "notice": "Emitted when an ERC20 bridge is finalized on this chain."
      },
      "ERC20BridgeInitiated(address,address,address,address,uint256,bytes)": {
        "notice": "Emitted when an ERC20 bridge is initiated to the other chain."
      },
      "ETHBridgeFinalized(address,address,uint256,bytes)": {
        "notice": "Emitted when an ETH bridge is finalized on this chain."
      },
      "ETHBridgeInitiated(address,address,uint256,bytes)": {
        "notice": "Emitted when an ETH bridge is initiated to the other chain."
      }
    },
    "notice": "The L1StandardBridge is responsible for transfering ETH and ERC20 tokens between L1 and         L2. ERC20 tokens deposited into L2 are escrowed within this contract until withdrawal.         ETH is transferred to and escrowed within the OptimismPortal contract."
  },
  "storageLayout": {
    "storage": [
      {
        "astId": 25872,
        "contract": "contracts/L1/L1StandardBridge.sol:L1StandardBridge",
        "label": "_initialized",
        "offset": 0,
        "slot": "0",
        "type": "t_uint8"
      },
      {
        "astId": 25875,
        "contract": "contracts/L1/L1StandardBridge.sol:L1StandardBridge",
        "label": "_initializing",
        "offset": 1,
        "slot": "0",
        "type": "t_bool"
      },
      {
        "astId": 24958,
        "contract": "contracts/L1/L1StandardBridge.sol:L1StandardBridge",
        "label": "messenger",
        "offset": 2,
        "slot": "0",
        "type": "t_contract(CrossDomainMessenger)23873"
      },
      {
        "astId": 24962,
        "contract": "contracts/L1/L1StandardBridge.sol:L1StandardBridge",
        "label": "otherBridge",
        "offset": 0,
        "slot": "1",
        "type": "t_contract(StandardBridge)25640"
      },
      {
        "astId": 24969,
        "contract": "contracts/L1/L1StandardBridge.sol:L1StandardBridge",
        "label": "deposits",
        "offset": 0,
        "slot": "2",
        "type": "t_mapping(t_address,t_mapping(t_address,t_uint256))"
      }
    ],
    "types": {
      "t_address": {
        "encoding": "inplace",
        "label": "address",
        "numberOfBytes": "20"
      },
      "t_bool": {
        "encoding": "inplace",
        "label": "bool",
        "numberOfBytes": "1"
      },
      "t_contract(CrossDomainMessenger)23873": {
        "encoding": "inplace",
        "label": "contract CrossDomainMessenger",
        "numberOfBytes": "20"
      },
      "t_contract(StandardBridge)25640": {
        "encoding": "inplace",
        "label": "contract StandardBridge",
        "numberOfBytes": "20"
      },
      "t_mapping(t_address,t_mapping(t_address,t_uint256))": {
        "encoding": "mapping",
        "label": "mapping(address => mapping(address => uint256))",
        "numberOfBytes": "32"
      },
      "t_mapping(t_address,t_uint256)": {
        "encoding": "mapping",
        "label": "mapping(address => uint256)",
        "numberOfBytes": "32"
      },
      "t_uint256": {
        "encoding": "inplace",
        "label": "uint256",
        "numberOfBytes": "32"
      },
      "t_uint8": {
        "encoding": "inplace",
        "label": "uint8",
        "numberOfBytes": "1"
      }
    }
  }
}