{
  "address": "0x32F35D1AbfC34DC8D45c0cc2586aCa26249aFf8b",
  "abi": [
    {
      "anonymous": false,
      "inputs": [
        {
          "indexed": true,
          "internalType": "address",
          "name": "_localToken",
          "type": "address"
        },
        {
          "indexed": true,
          "internalType": "address",
          "name": "_remoteToken",
          "type": "address"
        },
        {
          "indexed": true,
          "internalType": "address",
          "name": "_from",
          "type": "address"
        },
        {
          "indexed": false,
          "internalType": "address",
          "name": "_to",
          "type": "address"
        },
        {
          "indexed": false,
          "internalType": "uint256",
          "name": "_amount",
          "type": "uint256"
        },
        {
          "indexed": false,
          "internalType": "bytes",
          "name": "_data",
          "type": "bytes"
        }
      ],
      "name": "ERC20BridgeFailed",
      "type": "event"
    },
    {
      "anonymous": false,
      "inputs": [
        {
          "indexed": true,
          "internalType": "address",
          "name": "_localToken",
          "type": "address"
        },
        {
          "indexed": true,
          "internalType": "address",
          "name": "_remoteToken",
          "type": "address"
        },
        {
          "indexed": true,
          "internalType": "address",
          "name": "_from",
          "type": "address"
        },
        {
          "indexed": false,
          "internalType": "address",
          "name": "_to",
          "type": "address"
        },
        {
          "indexed": false,
          "internalType": "uint256",
          "name": "_amount",
          "type": "uint256"
        },
        {
          "indexed": false,
          "internalType": "bytes",
          "name": "_data",
          "type": "bytes"
        }
      ],
      "name": "ERC20BridgeFinalized",
      "type": "event"
    },
    {
      "anonymous": false,
      "inputs": [
        {
          "indexed": true,
          "internalType": "address",
          "name": "_localToken",
          "type": "address"
        },
        {
          "indexed": true,
          "internalType": "address",
          "name": "_remoteToken",
          "type": "address"
        },
        {
          "indexed": true,
          "internalType": "address",
          "name": "_from",
          "type": "address"
        },
        {
          "indexed": false,
          "internalType": "address",
          "name": "_to",
          "type": "address"
        },
        {
          "indexed": false,
          "internalType": "uint256",
          "name": "_amount",
          "type": "uint256"
        },
        {
          "indexed": false,
          "internalType": "bytes",
          "name": "_data",
          "type": "bytes"
        }
      ],
      "name": "ERC20BridgeInitiated",
      "type": "event"
    },
    {
      "anonymous": false,
      "inputs": [
        {
          "indexed": true,
          "internalType": "address",
          "name": "_l1Token",
          "type": "address"
        },
        {
          "indexed": true,
          "internalType": "address",
          "name": "_l2Token",
          "type": "address"
        },
        {
          "indexed": true,
          "internalType": "address",
          "name": "_from",
          "type": "address"
        },
        {
          "indexed": false,
          "internalType": "address",
          "name": "_to",
          "type": "address"
        },
        {
          "indexed": false,
          "internalType": "uint256",
          "name": "_amount",
          "type": "uint256"
        },
        {
          "indexed": false,
          "internalType": "bytes",
          "name": "_data",
          "type": "bytes"
        }
      ],
      "name": "ERC20DepositInitiated",
      "type": "event"
    },
    {
      "anonymous": false,
      "inputs": [
        {
          "indexed": true,
          "internalType": "address",
          "name": "_l1Token",
          "type": "address"
        },
        {
          "indexed": true,
          "internalType": "address",
          "name": "_l2Token",
          "type": "address"
        },
        {
          "indexed": true,
          "internalType": "address",
          "name": "_from",
          "type": "address"
        },
        {
          "indexed": false,
          "internalType": "address",
          "name": "_to",
          "type": "address"
        },
        {
          "indexed": false,
          "internalType": "uint256",
          "name": "_amount",
          "type": "uint256"
        },
        {
          "indexed": false,
          "internalType": "bytes",
          "name": "_data",
          "type": "bytes"
        }
      ],
      "name": "ERC20WithdrawalFinalized",
      "type": "event"
    },
    {
      "anonymous": false,
      "inputs": [
        {
          "indexed": true,
          "internalType": "address",
          "name": "_from",
          "type": "address"
        },
        {
          "indexed": true,
          "internalType": "address",
          "name": "_to",
          "type": "address"
        },
        {
          "indexed": false,
          "internalType": "uint256",
          "name": "_amount",
          "type": "uint256"
        },
        {
          "indexed": false,
          "internalType": "bytes",
          "name": "_data",
          "type": "bytes"
        }
      ],
      "name": "ETHBridgeFinalized",
      "type": "event"
    },
    {
      "anonymous": false,
      "inputs": [
        {
          "indexed": true,
          "internalType": "address",
          "name": "_from",
          "type": "address"
        },
        {
          "indexed": true,
          "internalType": "address",
          "name": "_to",
          "type": "address"
        },
        {
          "indexed": false,
          "internalType": "uint256",
          "name": "_amount",
          "type": "uint256"
        },
        {
          "indexed": false,
          "internalType": "bytes",
          "name": "_data",
          "type": "bytes"
        }
      ],
      "name": "ETHBridgeInitiated",
      "type": "event"
    },
    {
      "anonymous": false,
      "inputs": [
        {
          "indexed": true,
          "internalType": "address",
          "name": "_from",
          "type": "address"
        },
        {
          "indexed": true,
          "internalType": "address",
          "name": "_to",
          "type": "address"
        },
        {
          "indexed": false,
          "internalType": "uint256",
          "name": "_amount",
          "type": "uint256"
        },
        {
          "indexed": false,
          "internalType": "bytes",
          "name": "_data",
          "type": "bytes"
        }
      ],
      "name": "ETHDepositInitiated",
      "type": "event"
    },
    {
      "anonymous": false,
      "inputs": [
        {
          "indexed": true,
          "internalType": "address",
          "name": "_from",
          "type": "address"
        },
        {
          "indexed": true,
          "internalType": "address",
          "name": "_to",
          "type": "address"
        },
        {
          "indexed": false,
          "internalType": "uint256",
          "name": "_amount",
          "type": "uint256"
        },
        {
          "indexed": false,
          "internalType": "bytes",
          "name": "_data",
          "type": "bytes"
        }
      ],
      "name": "ETHWithdrawalFinalized",
      "type": "event"
    },
    {
      "inputs": [
        {
          "internalType": "address",
          "name": "_localToken",
          "type": "address"
        },
        {
          "internalType": "address",
          "name": "_remoteToken",
          "type": "address"
        },
        {
          "internalType": "uint256",
          "name": "_amount",
          "type": "uint256"
        },
        {
          "internalType": "uint32",
          "name": "_minGasLimit",
          "type": "uint32"
        },
        {
          "internalType": "bytes",
          "name": "_data",
          "type": "bytes"
        }
      ],
      "name": "bridgeERC20",
      "outputs": [],
      "stateMutability": "nonpayable",
      "type": "function"
    },
    {
      "inputs": [
        {
          "internalType": "address",
          "name": "_localToken",
          "type": "address"
        },
        {
          "internalType": "address",
          "name": "_remoteToken",
          "type": "address"
        },
        {
          "internalType": "address",
          "name": "_to",
          "type": "address"
        },
        {
          "internalType": "uint256",
          "name": "_amount",
          "type": "uint256"
        },
        {
          "internalType": "uint32",
          "name": "_minGasLimit",
          "type": "uint32"
        },
        {
          "internalType": "bytes",
          "name": "_data",
          "type": "bytes"
        }
      ],
      "name": "bridgeERC20To",
      "outputs": [],
      "stateMutability": "nonpayable",
      "type": "function"
    },
    {
      "inputs": [
        {
          "internalType": "uint32",
          "name": "_minGasLimit",
          "type": "uint32"
        },
        {
          "internalType": "bytes",
          "name": "_data",
          "type": "bytes"
        }
      ],
      "name": "bridgeETH",
      "outputs": [],
      "stateMutability": "payable",
      "type": "function"
    },
    {
      "inputs": [
        {
          "internalType": "address",
          "name": "_to",
          "type": "address"
        },
        {
          "internalType": "uint32",
          "name": "_minGasLimit",
          "type": "uint32"
        },
        {
          "internalType": "bytes",
          "name": "_data",
          "type": "bytes"
        }
      ],
      "name": "bridgeETHTo",
      "outputs": [],
      "stateMutability": "payable",
      "type": "function"
    },
    {
      "inputs": [
        {
          "internalType": "address",
          "name": "_localToken",
          "type": "address"
        },
        {
          "internalType": "address",
          "name": "_remoteToken",
          "type": "address"
        },
        {
          "internalType": "address",
          "name": "_to",
          "type": "address"
        },
        {
          "internalType": "uint256",
          "name": "_amount",
          "type": "uint256"
        }
      ],
      "name": "completeOutboundTransfer",
      "outputs": [],
      "stateMutability": "nonpayable",
      "type": "function"
    },
    {
      "inputs": [
        {
          "internalType": "address",
          "name": "_l1Token",
          "type": "address"
        },
        {
          "internalType": "address",
          "name": "_l2Token",
          "type": "address"
        },
        {
          "internalType": "uint256",
          "name": "_amount",
          "type": "uint256"
        },
        {
          "internalType": "uint32",
          "name": "_minGasLimit",
          "type": "uint32"
        },
        {
          "internalType": "bytes",
          "name": "_data",
          "type": "bytes"
        }
      ],
      "name": "depositERC20",
      "outputs": [],
      "stateMutability": "nonpayable",
      "type": "function"
    },
    {
      "inputs": [
        {
          "internalType": "address",
          "name": "_l1Token",
          "type": "address"
        },
        {
          "internalType": "address",
          "name": "_l2Token",
          "type": "address"
        },
        {
          "internalType": "address",
          "name": "_to",
          "type": "address"
        },
        {
          "internalType": "uint256",
          "name": "_amount",
          "type": "uint256"
        },
        {
          "internalType": "uint32",
          "name": "_minGasLimit",
          "type": "uint32"
        },
        {
          "internalType": "bytes",
          "name": "_data",
          "type": "bytes"
        }
      ],
      "name": "depositERC20To",
      "outputs": [],
      "stateMutability": "nonpayable",
      "type": "function"
    },
    {
      "inputs": [
        {
          "internalType": "uint32",
          "name": "_minGasLimit",
          "type": "uint32"
        },
        {
          "internalType": "bytes",
          "name": "_data",
          "type": "bytes"
        }
      ],
      "name": "depositETH",
      "outputs": [],
      "stateMutability": "payable",
      "type": "function"
    },
    {
      "inputs": [
        {
          "internalType": "address",
          "name": "_to",
          "type": "address"
        },
        {
          "internalType": "uint32",
          "name": "_minGasLimit",
          "type": "uint32"
        },
        {
          "internalType": "bytes",
          "name": "_data",
          "type": "bytes"
        }
      ],
      "name": "depositETHTo",
      "outputs": [],
      "stateMutability": "payable",
      "type": "function"
    },
    {
      "inputs": [
        {
          "internalType": "address",
          "name": "",
          "type": "address"
        },
        {
          "internalType": "address",
          "name": "",
          "type": "address"
        }
      ],
      "name": "deposits",
      "outputs": [
        {
          "internalType": "uint256",
          "name": "",
          "type": "uint256"
        }
      ],
      "stateMutability": "view",
      "type": "function"
    },
    {
      "inputs": [],
      "name": "donateETH",
      "outputs": [],
      "stateMutability": "payable",
      "type": "function"
    },
    {
      "inputs": [
        {
          "internalType": "address",
          "name": "_localToken",
          "type": "address"
        },
        {
          "internalType": "address",
          "name": "_remoteToken",
          "type": "address"
        },
        {
          "internalType": "address",
          "name": "_from",
          "type": "address"
        },
        {
          "internalType": "address",
          "name": "_to",
          "type": "address"
        },
        {
          "internalType": "uint256",
          "name": "_amount",
          "type": "uint256"
        },
        {
          "internalType": "bytes",
          "name": "_data",
          "type": "bytes"
        }
      ],
      "name": "finalizeBridgeERC20",
      "outputs": [],
      "stateMutability": "nonpayable",
      "type": "function"
    },
    {
      "inputs": [
        {
          "internalType": "address",
          "name": "_from",
          "type": "address"
        },
        {
          "internalType": "address",
          "name": "_to",
          "type": "address"
        },
        {
          "internalType": "uint256",
          "name": "_amount",
          "type": "uint256"
        },
        {
          "internalType": "bytes",
          "name": "_data",
          "type": "bytes"
        }
      ],
      "name": "finalizeBridgeETH",
      "outputs": [],
      "stateMutability": "payable",
      "type": "function"
    },
    {
      "inputs": [
        {
          "internalType": "address",
          "name": "_l1Token",
          "type": "address"
        },
        {
          "internalType": "address",
          "name": "_l2Token",
          "type": "address"
        },
        {
          "internalType": "address",
          "name": "_from",
          "type": "address"
        },
        {
          "internalType": "address",
          "name": "_to",
          "type": "address"
        },
        {
          "internalType": "uint256",
          "name": "_amount",
          "type": "uint256"
        },
        {
          "internalType": "bytes",
          "name": "_data",
          "type": "bytes"
        }
      ],
      "name": "finalizeERC20Withdrawal",
      "outputs": [],
      "stateMutability": "nonpayable",
      "type": "function"
    },
    {
      "inputs": [
        {
          "internalType": "address",
          "name": "_from",
          "type": "address"
        },
        {
          "internalType": "address",
          "name": "_to",
          "type": "address"
        },
        {
          "internalType": "uint256",
          "name": "_amount",
          "type": "uint256"
        },
        {
          "internalType": "bytes",
          "name": "_data",
          "type": "bytes"
        }
      ],
      "name": "finalizeETHWithdrawal",
      "outputs": [],
      "stateMutability": "payable",
      "type": "function"
    },
    {
      "inputs": [
        {
          "internalType": "address payable",
          "name": "_messenger",
          "type": "address"
        }
      ],
      "name": "initialize",
      "outputs": [],
      "stateMutability": "nonpayable",
      "type": "function"
    },
    {
      "inputs": [],
      "name": "l2TokenBridge",
      "outputs": [
        {
          "internalType": "address",
          "name": "",
          "type": "address"
        }
      ],
      "stateMutability": "nonpayable",
      "type": "function"
    },
    {
      "inputs": [],
      "name": "messenger",
      "outputs": [
        {
          "internalType": "contract CrossDomainMessenger",
          "name": "",
          "type": "address"
        }
      ],
      "stateMutability": "view",
      "type": "function"
    },
    {
      "inputs": [],
      "name": "otherBridge",
      "outputs": [
        {
          "internalType": "contract StandardBridge",
          "name": "",
          "type": "address"
        }
      ],
      "stateMutability": "view",
      "type": "function"
    },
    {
      "stateMutability": "payable",
      "type": "receive"
    }
  ],
  "transactionHash": "0x42fcf4e13512472bf0d6b957909377c54497a19c5ac19641f2ee589272463783",
  "args": [],
  "numDeployments": 1,
  "bytecode": "0x608060405234801561001057600080fd5b50612a4a806100206000396000f3fe6080604052600436106101485760003560e01c80638b4c40b0116100c0578063af565a1311610074578063c4d66de811610059578063c4d66de8146103e8578063c89701a214610408578063e11013dd1461043557600080fd5b8063af565a13146103b5578063b1a1a882146103d557600080fd5b806391c49bf8116100a557806391c49bf8146103575780639a2ac6d514610382578063a9f9e6751461039557600080fd5b80638b4c40b0146101da5780638f601f661461031157600080fd5b80633cb747bf1161011757806358a997f6116100fc57806358a997f6146102b1578063838b2520146102d157806387087623146102f157600080fd5b80633cb747bf1461023a578063540abf731461029157600080fd5b80630166a07a146101e157806309fc8843146102015780631532ec34146102145780631635f5fd1461022757600080fd5b366101dc57333b156101bb576040517f08c379a000000000000000000000000000000000000000000000000000000000815260206004820152600f60248201527f4163636f756e74206e6f7420454f41000000000000000000000000000000000060448201526064015b60405180910390fd5b6101da33333462030d4060405180602001604052806000815250610448565b005b600080fd5b3480156101ed57600080fd5b506101da6101fc3660046123e4565b6105de565b6101da61020f366004612495565b6108f6565b6101da6102223660046124e8565b6109a7565b6101da6102353660046124e8565b610b85565b34801561024657600080fd5b506000546102679073ffffffffffffffffffffffffffffffffffffffff1681565b60405173ffffffffffffffffffffffffffffffffffffffff90911681526020015b60405180910390f35b34801561029d57600080fd5b506101da6102ac36600461255b565b610f70565b3480156102bd57600080fd5b506101da6102cc3660046125d2565b610f80565b3480156102dd57600080fd5b506101da6102ec36600461255b565b610ff9565b3480156102fd57600080fd5b506101da61030c3660046125d2565b611009565b34801561031d57600080fd5b5061034961032c366004612655565b600260209081526000928352604080842090915290825290205481565b604051908152602001610288565b34801561036357600080fd5b5060015473ffffffffffffffffffffffffffffffffffffffff16610267565b6101da61039036600461268e565b611082565b3480156103a157600080fd5b506101da6103b03660046123e4565b6110ca565b3480156103c157600080fd5b506101da6103d03660046126f1565b6112bc565b6101da6103e3366004612495565b61157d565b3480156103f457600080fd5b506101da610403366004612742565b611628565b34801561041457600080fd5b506001546102679073ffffffffffffffffffffffffffffffffffffffff1681565b6101da61044336600461268e565b611649565b8373ffffffffffffffffffffffffffffffffffffffff168573ffffffffffffffffffffffffffffffffffffffff167f2849b43074093a05396b6f2a937dee8565b15a48a7b3d4bffb732a5017380af585846040516104a79291906127d5565b60405180910390a360005460015460405173ffffffffffffffffffffffffffffffffffffffff92831692633dbb202b9287929116907f1635f5fd0000000000000000000000000000000000000000000000000000000090610512908b908b9086908a906024016127ee565b604080517fffffffffffffffffffffffffffffffffffffffffffffffffffffffffffffffe08184030181529181526020820180517bffffffffffffffffffffffffffffffffffffffffffffffffffffffff167fffffffff000000000000000000000000000000000000000000000000000000009485161790525160e086901b90921682526105a59291889060040161282d565b6000604051808303818588803b1580156105be57600080fd5b505af11580156105d2573d6000803e3d6000fd5b50505050505050505050565b60005473ffffffffffffffffffffffffffffffffffffffff16331480156106b35750600154600054604080517f6e296e45000000000000000000000000000000000000000000000000000000008152905173ffffffffffffffffffffffffffffffffffffffff9384169390921691636e296e45916004808201926020929091908290030181865afa158015610677573d6000803e3d6000fd5b505050506040513d601f19601f8201168201806040525081019061069b9190612872565b73ffffffffffffffffffffffffffffffffffffffff16145b61073f576040517f08c379a000000000000000000000000000000000000000000000000000000000815260206004820152602660248201527f436f756c64206e6f742061757468656e74696361746520627269646765206d6560448201527f73736167652e000000000000000000000000000000000000000000000000000060648201526084016101b2565b6040517faf565a1300000000000000000000000000000000000000000000000000000000815273ffffffffffffffffffffffffffffffffffffffff808916600483015280881660248301528516604482015260648101849052309063af565a1390608401600060405180830381600087803b1580156107bd57600080fd5b505af19250505080156107ce575060015b61086a576107e386888787876000888861168c565b8473ffffffffffffffffffffffffffffffffffffffff168673ffffffffffffffffffffffffffffffffffffffff168873ffffffffffffffffffffffffffffffffffffffff167f2755817676249910615f0a6a240ad225abe5343df8d527f7294c4af36a92009a8787878760405161085d94939291906128d8565b60405180910390a46108ed565b8473ffffffffffffffffffffffffffffffffffffffff168673ffffffffffffffffffffffffffffffffffffffff168873ffffffffffffffffffffffffffffffffffffffff167fd59c65b35445225835c83f50b6ede06a7be047d22e357073e250d9af537518cd878787876040516108e494939291906128d8565b60405180910390a45b50505050505050565b333b1561095f576040517f08c379a000000000000000000000000000000000000000000000000000000000815260206004820152600f60248201527f4163636f756e74206e6f7420454f41000000000000000000000000000000000060448201526064016101b2565b6109a23333348686868080601f01602080910402602001604051908101604052809392919081815260200183838082843760009201919091525061044892505050565b505050565b60005473ffffffffffffffffffffffffffffffffffffffff1633148015610a7c5750600154600054604080517f6e296e45000000000000000000000000000000000000000000000000000000008152905173ffffffffffffffffffffffffffffffffffffffff9384169390921691636e296e45916004808201926020929091908290030181865afa158015610a40573d6000803e3d6000fd5b505050506040513d601f19601f82011682018060405250810190610a649190612872565b73ffffffffffffffffffffffffffffffffffffffff16145b610b08576040517f08c379a000000000000000000000000000000000000000000000000000000000815260206004820152602660248201527f436f756c64206e6f742061757468656e74696361746520627269646765206d6560448201527f73736167652e000000000000000000000000000000000000000000000000000060648201526084016101b2565b8373ffffffffffffffffffffffffffffffffffffffff168573ffffffffffffffffffffffffffffffffffffffff167f2ac69ee804d9a7a0984249f508dfab7cb2534b465b6ce1580f99a38ba9c5e631858585604051610b699392919061290e565b60405180910390a3610b7e8585858585610b85565b5050505050565b60005473ffffffffffffffffffffffffffffffffffffffff1633148015610c5a5750600154600054604080517f6e296e45000000000000000000000000000000000000000000000000000000008152905173ffffffffffffffffffffffffffffffffffffffff9384169390921691636e296e45916004808201926020929091908290030181865afa158015610c1e573d6000803e3d6000fd5b505050506040513d601f19601f82011682018060405250810190610c429190612872565b73ffffffffffffffffffffffffffffffffffffffff16145b610ce6576040517f08c379a000000000000000000000000000000000000000000000000000000000815260206004820152602660248201527f436f756c64206e6f742061757468656e74696361746520627269646765206d6560448201527f73736167652e000000000000000000000000000000000000000000000000000060648201526084016101b2565b823414610d75576040517f08c379a000000000000000000000000000000000000000000000000000000000815260206004820152602b60248201527f416d6f756e742073656e7420646f6573206e6f74206d6174636820616d6f756e60448201527f742072657175697265642e00000000000000000000000000000000000000000060648201526084016101b2565b73ffffffffffffffffffffffffffffffffffffffff8416301415610df5576040517f08c379a000000000000000000000000000000000000000000000000000000000815260206004820152601460248201527f43616e6e6f742073656e6420746f2073656c662e00000000000000000000000060448201526064016101b2565b8373ffffffffffffffffffffffffffffffffffffffff168573ffffffffffffffffffffffffffffffffffffffff167f31b2166ff604fc5672ea5df08a78081d2bc6d746cadce880747f3643d819e83d858585604051610e569392919061290e565b60405180910390a36040805160008082526020820190925273ffffffffffffffffffffffffffffffffffffffff8616908590604051610e959190612931565b60006040518083038185875af1925050503d8060008114610ed2576040519150601f19603f3d011682016040523d82523d6000602084013e610ed7565b606091505b5050905080610f68576040517f08c379a000000000000000000000000000000000000000000000000000000000815260206004820152603460248201527f5472616e7366657248656c7065723a3a736166655472616e736665724554483a60448201527f20455448207472616e73666572206661696c656400000000000000000000000060648201526084016101b2565b505050505050565b6108ed8787338888888888611843565b333b15610fe9576040517f08c379a000000000000000000000000000000000000000000000000000000000815260206004820152600f60248201527f4163636f756e74206e6f7420454f41000000000000000000000000000000000060448201526064016101b2565b610f688686333388888888611aa0565b6108ed8787338888888888611aa0565b333b15611072576040517f08c379a000000000000000000000000000000000000000000000000000000000815260206004820152600f60248201527f4163636f756e74206e6f7420454f41000000000000000000000000000000000060448201526064016101b2565b610f688686333388888888611843565b6110c433858585858080601f016020809104026020016040519081016040528093929190818152602001838380828437600092019190915250611b3292505050565b50505050565b60005473ffffffffffffffffffffffffffffffffffffffff163314801561119f5750600154600054604080517f6e296e45000000000000000000000000000000000000000000000000000000008152905173ffffffffffffffffffffffffffffffffffffffff9384169390921691636e296e45916004808201926020929091908290030181865afa158015611163573d6000803e3d6000fd5b505050506040513d601f19601f820116820180604052508101906111879190612872565b73ffffffffffffffffffffffffffffffffffffffff16145b61122b576040517f08c379a000000000000000000000000000000000000000000000000000000000815260206004820152602660248201527f436f756c64206e6f742061757468656e74696361746520627269646765206d6560448201527f73736167652e000000000000000000000000000000000000000000000000000060648201526084016101b2565b8473ffffffffffffffffffffffffffffffffffffffff168673ffffffffffffffffffffffffffffffffffffffff168873ffffffffffffffffffffffffffffffffffffffff167f3ceee06c1e37648fcbb6ed52e17b3e1f275a1f8c7b22a84b2b84732431e046b3878787876040516112a594939291906128d8565b60405180910390a46108ed878787878787876105de565b33301461134a576040517f08c379a0000000000000000000000000000000000000000000000000000000008152602060048201526024808201527f46756e6374696f6e2063616e206f6e6c792062652063616c6c6564206279207360448201527f656c662e0000000000000000000000000000000000000000000000000000000060648201526084016101b2565b73ffffffffffffffffffffffffffffffffffffffff84163014156113ca576040517f08c379a000000000000000000000000000000000000000000000000000000000815260206004820152601a60248201527f4c6f63616c20746f6b656e2063616e6e6f742062652073656c6600000000000060448201526064016101b2565b6113d384611ba6565b156114fb576113e28484611bd8565b61146e576040517f08c379a000000000000000000000000000000000000000000000000000000000815260206004820152603a60248201527f57726f6e672072656d6f746520746f6b656e20666f72204f7074696d69736d2060448201527f4d696e7461626c65204552433230206c6f63616c20746f6b656e00000000000060648201526084016101b2565b6040517f40c10f1900000000000000000000000000000000000000000000000000000000815273ffffffffffffffffffffffffffffffffffffffff8381166004830152602482018390528516906340c10f1990604401600060405180830381600087803b1580156114de57600080fd5b505af11580156114f2573d6000803e3d6000fd5b505050506110c4565b73ffffffffffffffffffffffffffffffffffffffff80851660009081526002602090815260408083209387168352929052205461153990829061297c565b73ffffffffffffffffffffffffffffffffffffffff8086166000818152600260209081526040808320948916835293905291909120919091556110c4908383611c7f565b333b156115e6576040517f08c379a000000000000000000000000000000000000000000000000000000000815260206004820152600f60248201527f4163636f756e74206e6f7420454f41000000000000000000000000000000000060448201526064016101b2565b6109a233338585858080601f016020809104026020016040519081016040528093929190818152602001838380828437600092019190915250611b3292505050565b61164681734200000000000000000000000000000000000010611d53565b50565b6110c43385348686868080601f01602080910402602001604051908101604052809392919081815260200183838082843760009201919091525061044892505050565b60005460015460405173ffffffffffffffffffffffffffffffffffffffff92831692633dbb202b9216907f0166a07a00000000000000000000000000000000000000000000000000000000906116f2908c908e908d908d908d908c908c90602401612993565b604080517fffffffffffffffffffffffffffffffffffffffffffffffffffffffffffffffe08184030181529181526020820180517bffffffffffffffffffffffffffffffffffffffffffffffffffffffff167fffffffff000000000000000000000000000000000000000000000000000000009485161790525160e085901b90921682526117859291889060040161282d565b600060405180830381600087803b15801561179f57600080fd5b505af11580156117b3573d6000803e3d6000fd5b505050508573ffffffffffffffffffffffffffffffffffffffff168773ffffffffffffffffffffffffffffffffffffffff168973ffffffffffffffffffffffffffffffffffffffff167f7ff126db8024424bbfd9826e8ab82ff59136289ea440b04b39a0df1b03b9cabf8888878760405161183194939291906128d8565b60405180910390a45050505050505050565b73ffffffffffffffffffffffffffffffffffffffff88163014156118c3576040517f08c379a000000000000000000000000000000000000000000000000000000000815260206004820152601a60248201527f4c6f63616c20746f6b656e2063616e6e6f742062652073656c6600000000000060448201526064016101b2565b6118cc88611ba6565b156119f2576118db8888611bd8565b611967576040517f08c379a000000000000000000000000000000000000000000000000000000000815260206004820152603a60248201527f57726f6e672072656d6f746520746f6b656e20666f72204f7074696d69736d2060448201527f4d696e7461626c65204552433230206c6f63616c20746f6b656e00000000000060648201526084016101b2565b6040517f9dc29fac0000000000000000000000000000000000000000000000000000000081523360048201526024810185905273ffffffffffffffffffffffffffffffffffffffff891690639dc29fac90604401600060405180830381600087803b1580156119d557600080fd5b505af11580156119e9573d6000803e3d6000fd5b50505050611a86565b611a1473ffffffffffffffffffffffffffffffffffffffff8916873087611e4c565b73ffffffffffffffffffffffffffffffffffffffff8089166000908152600260209081526040808320938b1683529290522054611a529085906129f0565b73ffffffffffffffffffffffffffffffffffffffff808a166000908152600260209081526040808320938c16835292905220555b611a96888888888888888861168c565b5050505050505050565b8573ffffffffffffffffffffffffffffffffffffffff168773ffffffffffffffffffffffffffffffffffffffff168973ffffffffffffffffffffffffffffffffffffffff167f718594027abd4eaed59f95162563e0cc6d0e8d5b86b1c7be8b1b0ac3343d039688888787604051611b1a94939291906128d8565b60405180910390a4611a968888888888888888611843565b8273ffffffffffffffffffffffffffffffffffffffff168473ffffffffffffffffffffffffffffffffffffffff167f35d79ab81f2b2017e19afb5c5571778877782d7a8786f5907f93b0f4702f4f233484604051611b919291906127d5565b60405180910390a36110c48484348585610448565b6000611bd2827f1d1d8b6300000000000000000000000000000000000000000000000000000000611eaa565b92915050565b60008273ffffffffffffffffffffffffffffffffffffffff1663c01e1bd66040518163ffffffff1660e01b8152600401602060405180830381865afa158015611c25573d6000803e3d6000fd5b505050506040513d601f19601f82011682018060405250810190611c499190612872565b73ffffffffffffffffffffffffffffffffffffffff168273ffffffffffffffffffffffffffffffffffffffff1614905092915050565b60405173ffffffffffffffffffffffffffffffffffffffff83166024820152604481018290526109a29084907fa9059cbb00000000000000000000000000000000000000000000000000000000906064015b604080517fffffffffffffffffffffffffffffffffffffffffffffffffffffffffffffffe08184030181529190526020810180517bffffffffffffffffffffffffffffffffffffffffffffffffffffffff167fffffffff0000000000000000000000000000000000000000000000000000000090931692909217909152611ecd565b60005473ffffffffffffffffffffffffffffffffffffffff1615611df9576040517f08c379a000000000000000000000000000000000000000000000000000000000815260206004820152602660248201527f436f6e74726163742068617320616c7265616479206265656e20696e6974696160448201527f6c697a65642e000000000000000000000000000000000000000000000000000060648201526084016101b2565b6000805473ffffffffffffffffffffffffffffffffffffffff9384167fffffffffffffffffffffffff00000000000000000000000000000000000000009182161790915560018054929093169116179055565b60405173ffffffffffffffffffffffffffffffffffffffff808516602483015283166044820152606481018290526110c49085907f23b872dd0000000000000000000000000000000000000000000000000000000090608401611cd1565b6000611eb583611fd9565b8015611ec65750611ec6838361203d565b9392505050565b6000611f2f826040518060400160405280602081526020017f5361666545524332303a206c6f772d6c6576656c2063616c6c206661696c65648152508573ffffffffffffffffffffffffffffffffffffffff166121799092919063ffffffff16565b8051909150156109a25780806020019051810190611f4d9190612a08565b6109a2576040517f08c379a000000000000000000000000000000000000000000000000000000000815260206004820152602a60248201527f5361666545524332303a204552433230206f7065726174696f6e20646964206e60448201527f6f7420737563636565640000000000000000000000000000000000000000000060648201526084016101b2565b6000612005827f01ffc9a70000000000000000000000000000000000000000000000000000000061203d565b8015611bd25750612036827fffffffff0000000000000000000000000000000000000000000000000000000061203d565b1592915050565b604080517fffffffff00000000000000000000000000000000000000000000000000000000831660248083019190915282518083039091018152604490910182526020810180517bffffffffffffffffffffffffffffffffffffffffffffffffffffffff167f01ffc9a7000000000000000000000000000000000000000000000000000000001790529051600091908290819073ffffffffffffffffffffffffffffffffffffffff871690617530906120f7908690612931565b6000604051808303818686fa925050503d8060008114612133576040519150601f19603f3d011682016040523d82523d6000602084013e612138565b606091505b50915091506020815110156121535760009350505050611bd2565b81801561216f57508080602001905181019061216f9190612a08565b9695505050505050565b60606121888484600085612190565b949350505050565b606082471015612222576040517f08c379a000000000000000000000000000000000000000000000000000000000815260206004820152602660248201527f416464726573733a20696e73756666696369656e742062616c616e636520666f60448201527f722063616c6c000000000000000000000000000000000000000000000000000060648201526084016101b2565b73ffffffffffffffffffffffffffffffffffffffff85163b6122a0576040517f08c379a000000000000000000000000000000000000000000000000000000000815260206004820152601d60248201527f416464726573733a2063616c6c20746f206e6f6e2d636f6e747261637400000060448201526064016101b2565b6000808673ffffffffffffffffffffffffffffffffffffffff1685876040516122c99190612931565b60006040518083038185875af1925050503d8060008114612306576040519150601f19603f3d011682016040523d82523d6000602084013e61230b565b606091505b509150915061231b828286612326565b979650505050505050565b60608315612335575081611ec6565b8251156123455782518084602001fd5b816040517f08c379a00000000000000000000000000000000000000000000000000000000081526004016101b29190612a2a565b73ffffffffffffffffffffffffffffffffffffffff8116811461164657600080fd5b60008083601f8401126123ad57600080fd5b50813567ffffffffffffffff8111156123c557600080fd5b6020830191508360208285010111156123dd57600080fd5b9250929050565b600080600080600080600060c0888a0312156123ff57600080fd5b873561240a81612379565b9650602088013561241a81612379565b9550604088013561242a81612379565b9450606088013561243a81612379565b93506080880135925060a088013567ffffffffffffffff81111561245d57600080fd5b6124698a828b0161239b565b989b979a50959850939692959293505050565b803563ffffffff8116811461249057600080fd5b919050565b6000806000604084860312156124aa57600080fd5b6124b38461247c565b9250602084013567ffffffffffffffff8111156124cf57600080fd5b6124db8682870161239b565b9497909650939450505050565b60008060008060006080868803121561250057600080fd5b853561250b81612379565b9450602086013561251b81612379565b935060408601359250606086013567ffffffffffffffff81111561253e57600080fd5b61254a8882890161239b565b969995985093965092949392505050565b600080600080600080600060c0888a03121561257657600080fd5b873561258181612379565b9650602088013561259181612379565b955060408801356125a181612379565b9450606088013593506125b66080890161247c565b925060a088013567ffffffffffffffff81111561245d57600080fd5b60008060008060008060a087890312156125eb57600080fd5b86356125f681612379565b9550602087013561260681612379565b94506040870135935061261b6060880161247c565b9250608087013567ffffffffffffffff81111561263757600080fd5b61264389828a0161239b565b979a9699509497509295939492505050565b6000806040838503121561266857600080fd5b823561267381612379565b9150602083013561268381612379565b809150509250929050565b600080600080606085870312156126a457600080fd5b84356126af81612379565b93506126bd6020860161247c565b9250604085013567ffffffffffffffff8111156126d957600080fd5b6126e58782880161239b565b95989497509550505050565b6000806000806080858703121561270757600080fd5b843561271281612379565b9350602085013561272281612379565b9250604085013561273281612379565b9396929550929360600135925050565b60006020828403121561275457600080fd5b8135611ec681612379565b60005b8381101561277a578181015183820152602001612762565b838111156110c45750506000910152565b600081518084526127a381602086016020860161275f565b601f017fffffffffffffffffffffffffffffffffffffffffffffffffffffffffffffffe0169290920160200192915050565b828152604060208201526000612188604083018461278b565b600073ffffffffffffffffffffffffffffffffffffffff80871683528086166020840152508360408301526080606083015261216f608083018461278b565b73ffffffffffffffffffffffffffffffffffffffff8416815260606020820152600061285c606083018561278b565b905063ffffffff83166040830152949350505050565b60006020828403121561288457600080fd5b8151611ec681612379565b8183528181602085013750600060208284010152600060207fffffffffffffffffffffffffffffffffffffffffffffffffffffffffffffffe0601f840116840101905092915050565b73ffffffffffffffffffffffffffffffffffffffff8516815283602082015260606040820152600061216f60608301848661288f565b83815260406020820152600061292860408301848661288f565b95945050505050565b6000825161294381846020870161275f565b9190910192915050565b7f4e487b7100000000000000000000000000000000000000000000000000000000600052601160045260246000fd5b60008282101561298e5761298e61294d565b500390565b600073ffffffffffffffffffffffffffffffffffffffff808a1683528089166020840152808816604084015280871660608401525084608083015260c060a08301526129e360c08301848661288f565b9998505050505050505050565b60008219821115612a0357612a0361294d565b500190565b600060208284031215612a1a57600080fd5b81518015158114611ec657600080fd5b602081526000611ec6602083018461278b56fea164736f6c634300080a000a"
}