{
  "address": "0xB6506d269734a6DC0822A076dfBf4D5489C57c74",
  "abi": [
    {
      "anonymous": false,
      "inputs": [
        {
          "indexed": true,
          "internalType": "address",
          "name": "_localToken",
          "type": "address"
        },
        {
          "indexed": true,
          "internalType": "address",
          "name": "_remoteToken",
          "type": "address"
        },
        {
          "indexed": true,
          "internalType": "address",
          "name": "_from",
          "type": "address"
        },
        {
          "indexed": false,
          "internalType": "address",
          "name": "_to",
          "type": "address"
        },
        {
          "indexed": false,
          "internalType": "uint256",
          "name": "_amount",
          "type": "uint256"
        },
        {
          "indexed": false,
          "internalType": "bytes",
          "name": "_extraData",
          "type": "bytes"
        }
      ],
      "name": "ERC20BridgeFailed",
      "type": "event"
    },
    {
      "anonymous": false,
      "inputs": [
        {
          "indexed": true,
          "internalType": "address",
          "name": "_localToken",
          "type": "address"
        },
        {
          "indexed": true,
          "internalType": "address",
          "name": "_remoteToken",
          "type": "address"
        },
        {
          "indexed": true,
          "internalType": "address",
          "name": "_from",
          "type": "address"
        },
        {
          "indexed": false,
          "internalType": "address",
          "name": "_to",
          "type": "address"
        },
        {
          "indexed": false,
          "internalType": "uint256",
          "name": "_amount",
          "type": "uint256"
        },
        {
          "indexed": false,
          "internalType": "bytes",
          "name": "_extraData",
          "type": "bytes"
        }
      ],
      "name": "ERC20BridgeFinalized",
      "type": "event"
    },
    {
      "anonymous": false,
      "inputs": [
        {
          "indexed": true,
          "internalType": "address",
          "name": "_localToken",
          "type": "address"
        },
        {
          "indexed": true,
          "internalType": "address",
          "name": "_remoteToken",
          "type": "address"
        },
        {
          "indexed": true,
          "internalType": "address",
          "name": "_from",
          "type": "address"
        },
        {
          "indexed": false,
          "internalType": "address",
          "name": "_to",
          "type": "address"
        },
        {
          "indexed": false,
          "internalType": "uint256",
          "name": "_amount",
          "type": "uint256"
        },
        {
          "indexed": false,
          "internalType": "bytes",
          "name": "_extraData",
          "type": "bytes"
        }
      ],
      "name": "ERC20BridgeInitiated",
      "type": "event"
    },
    {
      "anonymous": false,
      "inputs": [
        {
          "indexed": true,
          "internalType": "address",
          "name": "_l1Token",
          "type": "address"
        },
        {
          "indexed": true,
          "internalType": "address",
          "name": "_l2Token",
          "type": "address"
        },
        {
          "indexed": true,
          "internalType": "address",
          "name": "_from",
          "type": "address"
        },
        {
          "indexed": false,
          "internalType": "address",
          "name": "_to",
          "type": "address"
        },
        {
          "indexed": false,
          "internalType": "uint256",
          "name": "_amount",
          "type": "uint256"
        },
        {
          "indexed": false,
          "internalType": "bytes",
          "name": "_extraData",
          "type": "bytes"
        }
      ],
      "name": "ERC20DepositInitiated",
      "type": "event"
    },
    {
      "anonymous": false,
      "inputs": [
        {
          "indexed": true,
          "internalType": "address",
          "name": "_l1Token",
          "type": "address"
        },
        {
          "indexed": true,
          "internalType": "address",
          "name": "_l2Token",
          "type": "address"
        },
        {
          "indexed": true,
          "internalType": "address",
          "name": "_from",
          "type": "address"
        },
        {
          "indexed": false,
          "internalType": "address",
          "name": "_to",
          "type": "address"
        },
        {
          "indexed": false,
          "internalType": "uint256",
          "name": "_amount",
          "type": "uint256"
        },
        {
          "indexed": false,
          "internalType": "bytes",
          "name": "_extraData",
          "type": "bytes"
        }
      ],
      "name": "ERC20WithdrawalFinalized",
      "type": "event"
    },
    {
      "anonymous": false,
      "inputs": [
        {
          "indexed": true,
          "internalType": "address",
          "name": "_from",
          "type": "address"
        },
        {
          "indexed": true,
          "internalType": "address",
          "name": "_to",
          "type": "address"
        },
        {
          "indexed": false,
          "internalType": "uint256",
          "name": "_amount",
          "type": "uint256"
        },
        {
          "indexed": false,
          "internalType": "bytes",
          "name": "_extraData",
          "type": "bytes"
        }
      ],
      "name": "ETHBridgeFinalized",
      "type": "event"
    },
    {
      "anonymous": false,
      "inputs": [
        {
          "indexed": true,
          "internalType": "address",
          "name": "_from",
          "type": "address"
        },
        {
          "indexed": true,
          "internalType": "address",
          "name": "_to",
          "type": "address"
        },
        {
          "indexed": false,
          "internalType": "uint256",
          "name": "_amount",
          "type": "uint256"
        },
        {
          "indexed": false,
          "internalType": "bytes",
          "name": "_extraData",
          "type": "bytes"
        }
      ],
      "name": "ETHBridgeInitiated",
      "type": "event"
    },
    {
      "anonymous": false,
      "inputs": [
        {
          "indexed": true,
          "internalType": "address",
          "name": "_from",
          "type": "address"
        },
        {
          "indexed": true,
          "internalType": "address",
          "name": "_to",
          "type": "address"
        },
        {
          "indexed": false,
          "internalType": "uint256",
          "name": "_amount",
          "type": "uint256"
        },
        {
          "indexed": false,
          "internalType": "bytes",
          "name": "_extraData",
          "type": "bytes"
        }
      ],
      "name": "ETHDepositInitiated",
      "type": "event"
    },
    {
      "anonymous": false,
      "inputs": [
        {
          "indexed": true,
          "internalType": "address",
          "name": "_from",
          "type": "address"
        },
        {
          "indexed": true,
          "internalType": "address",
          "name": "_to",
          "type": "address"
        },
        {
          "indexed": false,
          "internalType": "uint256",
          "name": "_amount",
          "type": "uint256"
        },
        {
          "indexed": false,
          "internalType": "bytes",
          "name": "_extraData",
          "type": "bytes"
        }
      ],
      "name": "ETHWithdrawalFinalized",
      "type": "event"
    },
    {
      "inputs": [
        {
          "internalType": "address",
          "name": "_localToken",
          "type": "address"
        },
        {
          "internalType": "address",
          "name": "_remoteToken",
          "type": "address"
        },
        {
          "internalType": "uint256",
          "name": "_amount",
          "type": "uint256"
        },
        {
          "internalType": "uint32",
          "name": "_minGasLimit",
          "type": "uint32"
        },
        {
          "internalType": "bytes",
          "name": "_extraData",
          "type": "bytes"
        }
      ],
      "name": "bridgeERC20",
      "outputs": [],
      "stateMutability": "nonpayable",
      "type": "function"
    },
    {
      "inputs": [
        {
          "internalType": "address",
          "name": "_localToken",
          "type": "address"
        },
        {
          "internalType": "address",
          "name": "_remoteToken",
          "type": "address"
        },
        {
          "internalType": "address",
          "name": "_to",
          "type": "address"
        },
        {
          "internalType": "uint256",
          "name": "_amount",
          "type": "uint256"
        },
        {
          "internalType": "uint32",
          "name": "_minGasLimit",
          "type": "uint32"
        },
        {
          "internalType": "bytes",
          "name": "_extraData",
          "type": "bytes"
        }
      ],
      "name": "bridgeERC20To",
      "outputs": [],
      "stateMutability": "nonpayable",
      "type": "function"
    },
    {
      "inputs": [
        {
          "internalType": "uint32",
          "name": "_minGasLimit",
          "type": "uint32"
        },
        {
          "internalType": "bytes",
          "name": "_extraData",
          "type": "bytes"
        }
      ],
      "name": "bridgeETH",
      "outputs": [],
      "stateMutability": "payable",
      "type": "function"
    },
    {
      "inputs": [
        {
          "internalType": "address",
          "name": "_to",
          "type": "address"
        },
        {
          "internalType": "uint32",
          "name": "_minGasLimit",
          "type": "uint32"
        },
        {
          "internalType": "bytes",
          "name": "_extraData",
          "type": "bytes"
        }
      ],
      "name": "bridgeETHTo",
      "outputs": [],
      "stateMutability": "payable",
      "type": "function"
    },
    {
      "inputs": [
        {
          "internalType": "address",
          "name": "_localToken",
          "type": "address"
        },
        {
          "internalType": "address",
          "name": "_remoteToken",
          "type": "address"
        },
        {
          "internalType": "address",
          "name": "_to",
          "type": "address"
        },
        {
          "internalType": "uint256",
          "name": "_amount",
          "type": "uint256"
        }
      ],
      "name": "completeOutboundTransfer",
      "outputs": [],
      "stateMutability": "nonpayable",
      "type": "function"
    },
    {
      "inputs": [
        {
          "internalType": "address",
          "name": "_l1Token",
          "type": "address"
        },
        {
          "internalType": "address",
          "name": "_l2Token",
          "type": "address"
        },
        {
          "internalType": "uint256",
          "name": "_amount",
          "type": "uint256"
        },
        {
          "internalType": "uint32",
          "name": "_minGasLimit",
          "type": "uint32"
        },
        {
          "internalType": "bytes",
          "name": "_extraData",
          "type": "bytes"
        }
      ],
      "name": "depositERC20",
      "outputs": [],
      "stateMutability": "nonpayable",
      "type": "function"
    },
    {
      "inputs": [
        {
          "internalType": "address",
          "name": "_l1Token",
          "type": "address"
        },
        {
          "internalType": "address",
          "name": "_l2Token",
          "type": "address"
        },
        {
          "internalType": "address",
          "name": "_to",
          "type": "address"
        },
        {
          "internalType": "uint256",
          "name": "_amount",
          "type": "uint256"
        },
        {
          "internalType": "uint32",
          "name": "_minGasLimit",
          "type": "uint32"
        },
        {
          "internalType": "bytes",
          "name": "_extraData",
          "type": "bytes"
        }
      ],
      "name": "depositERC20To",
      "outputs": [],
      "stateMutability": "nonpayable",
      "type": "function"
    },
    {
      "inputs": [
        {
          "internalType": "uint32",
          "name": "_minGasLimit",
          "type": "uint32"
        },
        {
          "internalType": "bytes",
          "name": "_extraData",
          "type": "bytes"
        }
      ],
      "name": "depositETH",
      "outputs": [],
      "stateMutability": "payable",
      "type": "function"
    },
    {
      "inputs": [
        {
          "internalType": "address",
          "name": "_to",
          "type": "address"
        },
        {
          "internalType": "uint32",
          "name": "_minGasLimit",
          "type": "uint32"
        },
        {
          "internalType": "bytes",
          "name": "_extraData",
          "type": "bytes"
        }
      ],
      "name": "depositETHTo",
      "outputs": [],
      "stateMutability": "payable",
      "type": "function"
    },
    {
      "inputs": [
        {
          "internalType": "address",
          "name": "",
          "type": "address"
        },
        {
          "internalType": "address",
          "name": "",
          "type": "address"
        }
      ],
      "name": "deposits",
      "outputs": [
        {
          "internalType": "uint256",
          "name": "",
          "type": "uint256"
        }
      ],
      "stateMutability": "view",
      "type": "function"
    },
    {
      "inputs": [
        {
          "internalType": "address",
          "name": "_localToken",
          "type": "address"
        },
        {
          "internalType": "address",
          "name": "_remoteToken",
          "type": "address"
        },
        {
          "internalType": "address",
          "name": "_from",
          "type": "address"
        },
        {
          "internalType": "address",
          "name": "_to",
          "type": "address"
        },
        {
          "internalType": "uint256",
          "name": "_amount",
          "type": "uint256"
        },
        {
          "internalType": "bytes",
          "name": "_extraData",
          "type": "bytes"
        }
      ],
      "name": "finalizeBridgeERC20",
      "outputs": [],
      "stateMutability": "nonpayable",
      "type": "function"
    },
    {
      "inputs": [
        {
          "internalType": "address",
          "name": "_from",
          "type": "address"
        },
        {
          "internalType": "address",
          "name": "_to",
          "type": "address"
        },
        {
          "internalType": "uint256",
          "name": "_amount",
          "type": "uint256"
        },
        {
          "internalType": "bytes",
          "name": "_extraData",
          "type": "bytes"
        }
      ],
      "name": "finalizeBridgeETH",
      "outputs": [],
      "stateMutability": "payable",
      "type": "function"
    },
    {
      "inputs": [
        {
          "internalType": "address",
          "name": "_l1Token",
          "type": "address"
        },
        {
          "internalType": "address",
          "name": "_l2Token",
          "type": "address"
        },
        {
          "internalType": "address",
          "name": "_from",
          "type": "address"
        },
        {
          "internalType": "address",
          "name": "_to",
          "type": "address"
        },
        {
          "internalType": "uint256",
          "name": "_amount",
          "type": "uint256"
        },
        {
          "internalType": "bytes",
          "name": "_extraData",
          "type": "bytes"
        }
      ],
      "name": "finalizeERC20Withdrawal",
      "outputs": [],
      "stateMutability": "nonpayable",
      "type": "function"
    },
    {
      "inputs": [
        {
          "internalType": "address",
          "name": "_from",
          "type": "address"
        },
        {
          "internalType": "address",
          "name": "_to",
          "type": "address"
        },
        {
          "internalType": "uint256",
          "name": "_amount",
          "type": "uint256"
        },
        {
          "internalType": "bytes",
          "name": "_extraData",
          "type": "bytes"
        }
      ],
      "name": "finalizeETHWithdrawal",
      "outputs": [],
      "stateMutability": "payable",
      "type": "function"
    },
    {
      "inputs": [
        {
          "internalType": "address payable",
          "name": "_messenger",
          "type": "address"
        }
      ],
      "name": "initialize",
      "outputs": [],
      "stateMutability": "nonpayable",
      "type": "function"
    },
    {
      "inputs": [],
      "name": "l2TokenBridge",
      "outputs": [
        {
          "internalType": "address",
          "name": "",
          "type": "address"
        }
      ],
      "stateMutability": "nonpayable",
      "type": "function"
    },
    {
      "inputs": [],
      "name": "messenger",
      "outputs": [
        {
          "internalType": "contract CrossDomainMessenger",
          "name": "",
          "type": "address"
        }
      ],
      "stateMutability": "view",
      "type": "function"
    },
    {
      "inputs": [],
      "name": "otherBridge",
      "outputs": [
        {
          "internalType": "contract StandardBridge",
          "name": "",
          "type": "address"
        }
      ],
      "stateMutability": "view",
      "type": "function"
    },
    {
      "stateMutability": "payable",
      "type": "receive"
    }
  ],
  "transactionHash": "0x6972548235b93115bad9032a38ae03e6c91dbf98ba19ce1900188372747342a9",
  "args": [],
  "numDeployments": 2,
  "solcInputHash": "9b8df8cb7826f24acab0f14c73f65394",
  "bytecode": "0x608060405234801561001057600080fd5b50612a0b806100206000396000f3fe60806040526004361061012d5760003560e01c80638f601f66116100a5578063af565a1311610074578063c4d66de811610059578063c4d66de8146103cd578063c89701a2146103ed578063e11013dd1461041a57600080fd5b8063af565a131461039a578063b1a1a882146103ba57600080fd5b80638f601f66146102f657806391c49bf81461033c5780639a2ac6d514610367578063a9f9e6751461037a57600080fd5b80633cb747bf116100fc57806358a997f6116100e157806358a997f614610296578063838b2520146102b657806387087623146102d657600080fd5b80633cb747bf1461021f578063540abf731461027657600080fd5b80630166a07a146101c657806309fc8843146101e65780631532ec34146101f95780631635f5fd1461020c57600080fd5b366101c157333b156101a0576040517f08c379a000000000000000000000000000000000000000000000000000000000815260206004820152600f60248201527f4163636f756e74206e6f7420454f41000000000000000000000000000000000060448201526064015b60405180910390fd5b6101bf33333462030d406040518060200160405280600081525061042d565b005b600080fd5b3480156101d257600080fd5b506101bf6101e13660046123a5565b6105c3565b6101bf6101f4366004612456565b6108db565b6101bf6102073660046124a9565b61098c565b6101bf61021a3660046124a9565b610b6a565b34801561022b57600080fd5b5060005461024c9073ffffffffffffffffffffffffffffffffffffffff1681565b60405173ffffffffffffffffffffffffffffffffffffffff90911681526020015b60405180910390f35b34801561028257600080fd5b506101bf61029136600461251c565b610f2f565b3480156102a257600080fd5b506101bf6102b1366004612593565b610f3f565b3480156102c257600080fd5b506101bf6102d136600461251c565b610fb8565b3480156102e257600080fd5b506101bf6102f1366004612593565b610fc8565b34801561030257600080fd5b5061032e610311366004612616565b600260209081526000928352604080842090915290825290205481565b60405190815260200161026d565b34801561034857600080fd5b5060015473ffffffffffffffffffffffffffffffffffffffff1661024c565b6101bf61037536600461264f565b611041565b34801561038657600080fd5b506101bf6103953660046123a5565b611089565b3480156103a657600080fd5b506101bf6103b53660046126b2565b61127b565b6101bf6103c8366004612456565b61153c565b3480156103d957600080fd5b506101bf6103e8366004612703565b6115e7565b3480156103f957600080fd5b5060015461024c9073ffffffffffffffffffffffffffffffffffffffff1681565b6101bf61042836600461264f565b611608565b8373ffffffffffffffffffffffffffffffffffffffff168573ffffffffffffffffffffffffffffffffffffffff167f2849b43074093a05396b6f2a937dee8565b15a48a7b3d4bffb732a5017380af5858460405161048c929190612796565b60405180910390a360005460015460405173ffffffffffffffffffffffffffffffffffffffff92831692633dbb202b9287929116907f1635f5fd00000000000000000000000000000000000000000000000000000000906104f7908b908b9086908a906024016127af565b604080517fffffffffffffffffffffffffffffffffffffffffffffffffffffffffffffffe08184030181529181526020820180517bffffffffffffffffffffffffffffffffffffffffffffffffffffffff167fffffffff000000000000000000000000000000000000000000000000000000009485161790525160e086901b909216825261058a929188906004016127ee565b6000604051808303818588803b1580156105a357600080fd5b505af11580156105b7573d6000803e3d6000fd5b50505050505050505050565b60005473ffffffffffffffffffffffffffffffffffffffff16331480156106985750600154600054604080517f6e296e45000000000000000000000000000000000000000000000000000000008152905173ffffffffffffffffffffffffffffffffffffffff9384169390921691636e296e45916004808201926020929091908290030181865afa15801561065c573d6000803e3d6000fd5b505050506040513d601f19601f820116820180604052508101906106809190612833565b73ffffffffffffffffffffffffffffffffffffffff16145b610724576040517f08c379a000000000000000000000000000000000000000000000000000000000815260206004820152602660248201527f436f756c64206e6f742061757468656e74696361746520627269646765206d6560448201527f73736167652e00000000000000000000000000000000000000000000000000006064820152608401610197565b6040517faf565a1300000000000000000000000000000000000000000000000000000000815273ffffffffffffffffffffffffffffffffffffffff808916600483015280881660248301528516604482015260648101849052309063af565a1390608401600060405180830381600087803b1580156107a257600080fd5b505af19250505080156107b3575060015b61084f576107c887878688876000888861164b565b8473ffffffffffffffffffffffffffffffffffffffff168673ffffffffffffffffffffffffffffffffffffffff168873ffffffffffffffffffffffffffffffffffffffff167f2755817676249910615f0a6a240ad225abe5343df8d527f7294c4af36a92009a878787876040516108429493929190612899565b60405180910390a46108d2565b8473ffffffffffffffffffffffffffffffffffffffff168673ffffffffffffffffffffffffffffffffffffffff168873ffffffffffffffffffffffffffffffffffffffff167fd59c65b35445225835c83f50b6ede06a7be047d22e357073e250d9af537518cd878787876040516108c99493929190612899565b60405180910390a45b50505050505050565b333b15610944576040517f08c379a000000000000000000000000000000000000000000000000000000000815260206004820152600f60248201527f4163636f756e74206e6f7420454f4100000000000000000000000000000000006044820152606401610197565b6109873333348686868080601f01602080910402602001604051908101604052809392919081815260200183838082843760009201919091525061042d92505050565b505050565b60005473ffffffffffffffffffffffffffffffffffffffff1633148015610a615750600154600054604080517f6e296e45000000000000000000000000000000000000000000000000000000008152905173ffffffffffffffffffffffffffffffffffffffff9384169390921691636e296e45916004808201926020929091908290030181865afa158015610a25573d6000803e3d6000fd5b505050506040513d601f19601f82011682018060405250810190610a499190612833565b73ffffffffffffffffffffffffffffffffffffffff16145b610aed576040517f08c379a000000000000000000000000000000000000000000000000000000000815260206004820152602660248201527f436f756c64206e6f742061757468656e74696361746520627269646765206d6560448201527f73736167652e00000000000000000000000000000000000000000000000000006064820152608401610197565b8373ffffffffffffffffffffffffffffffffffffffff168573ffffffffffffffffffffffffffffffffffffffff167f2ac69ee804d9a7a0984249f508dfab7cb2534b465b6ce1580f99a38ba9c5e631858585604051610b4e939291906128cf565b60405180910390a3610b638585858585610b6a565b5050505050565b60005473ffffffffffffffffffffffffffffffffffffffff1633148015610c3f5750600154600054604080517f6e296e45000000000000000000000000000000000000000000000000000000008152905173ffffffffffffffffffffffffffffffffffffffff9384169390921691636e296e45916004808201926020929091908290030181865afa158015610c03573d6000803e3d6000fd5b505050506040513d601f19601f82011682018060405250810190610c279190612833565b73ffffffffffffffffffffffffffffffffffffffff16145b610ccb576040517f08c379a000000000000000000000000000000000000000000000000000000000815260206004820152602660248201527f436f756c64206e6f742061757468656e74696361746520627269646765206d6560448201527f73736167652e00000000000000000000000000000000000000000000000000006064820152608401610197565b823414610d5a576040517f08c379a000000000000000000000000000000000000000000000000000000000815260206004820152602b60248201527f416d6f756e742073656e7420646f6573206e6f74206d6174636820616d6f756e60448201527f742072657175697265642e0000000000000000000000000000000000000000006064820152608401610197565b73ffffffffffffffffffffffffffffffffffffffff8416301415610dda576040517f08c379a000000000000000000000000000000000000000000000000000000000815260206004820152601460248201527f43616e6e6f742073656e6420746f2073656c662e0000000000000000000000006044820152606401610197565b8373ffffffffffffffffffffffffffffffffffffffff168573ffffffffffffffffffffffffffffffffffffffff167f31b2166ff604fc5672ea5df08a78081d2bc6d746cadce880747f3643d819e83d858585604051610e3b939291906128cf565b60405180910390a36040805160008082526020820190925273ffffffffffffffffffffffffffffffffffffffff8616908590604051610e7a91906128f2565b60006040518083038185875af1925050503d8060008114610eb7576040519150601f19603f3d011682016040523d82523d6000602084013e610ebc565b606091505b5050905080610f27576040517f08c379a000000000000000000000000000000000000000000000000000000000815260206004820152601460248201527f455448207472616e73666572206661696c65642e0000000000000000000000006044820152606401610197565b505050505050565b6108d28787338888888888611802565b333b15610fa8576040517f08c379a000000000000000000000000000000000000000000000000000000000815260206004820152600f60248201527f4163636f756e74206e6f7420454f4100000000000000000000000000000000006044820152606401610197565b610f278686333388888888611a61565b6108d28787338888888888611a61565b333b15611031576040517f08c379a000000000000000000000000000000000000000000000000000000000815260206004820152600f60248201527f4163636f756e74206e6f7420454f4100000000000000000000000000000000006044820152606401610197565b610f278686333388888888611802565b61108333858585858080601f016020809104026020016040519081016040528093929190818152602001838380828437600092019190915250611af392505050565b50505050565b60005473ffffffffffffffffffffffffffffffffffffffff163314801561115e5750600154600054604080517f6e296e45000000000000000000000000000000000000000000000000000000008152905173ffffffffffffffffffffffffffffffffffffffff9384169390921691636e296e45916004808201926020929091908290030181865afa158015611122573d6000803e3d6000fd5b505050506040513d601f19601f820116820180604052508101906111469190612833565b73ffffffffffffffffffffffffffffffffffffffff16145b6111ea576040517f08c379a000000000000000000000000000000000000000000000000000000000815260206004820152602660248201527f436f756c64206e6f742061757468656e74696361746520627269646765206d6560448201527f73736167652e00000000000000000000000000000000000000000000000000006064820152608401610197565b8473ffffffffffffffffffffffffffffffffffffffff168673ffffffffffffffffffffffffffffffffffffffff168873ffffffffffffffffffffffffffffffffffffffff167f3ceee06c1e37648fcbb6ed52e17b3e1f275a1f8c7b22a84b2b84732431e046b3878787876040516112649493929190612899565b60405180910390a46108d2878787878787876105c3565b333014611309576040517f08c379a0000000000000000000000000000000000000000000000000000000008152602060048201526024808201527f46756e6374696f6e2063616e206f6e6c792062652063616c6c6564206279207360448201527f656c662e000000000000000000000000000000000000000000000000000000006064820152608401610197565b73ffffffffffffffffffffffffffffffffffffffff8416301415611389576040517f08c379a000000000000000000000000000000000000000000000000000000000815260206004820152601a60248201527f4c6f63616c20746f6b656e2063616e6e6f742062652073656c660000000000006044820152606401610197565b61139284611b67565b156114ba576113a18484611b99565b61142d576040517f08c379a000000000000000000000000000000000000000000000000000000000815260206004820152603a60248201527f57726f6e672072656d6f746520746f6b656e20666f72204f7074696d69736d2060448201527f4d696e7461626c65204552433230206c6f63616c20746f6b656e0000000000006064820152608401610197565b6040517f40c10f1900000000000000000000000000000000000000000000000000000000815273ffffffffffffffffffffffffffffffffffffffff8381166004830152602482018390528516906340c10f1990604401600060405180830381600087803b15801561149d57600080fd5b505af11580156114b1573d6000803e3d6000fd5b50505050611083565b73ffffffffffffffffffffffffffffffffffffffff8085166000908152600260209081526040808320938716835292905220546114f890829061293d565b73ffffffffffffffffffffffffffffffffffffffff808616600081815260026020908152604080832094891683529390529190912091909155611083908383611c40565b333b156115a5576040517f08c379a000000000000000000000000000000000000000000000000000000000815260206004820152600f60248201527f4163636f756e74206e6f7420454f4100000000000000000000000000000000006044820152606401610197565b61098733338585858080601f016020809104026020016040519081016040528093929190818152602001838380828437600092019190915250611af392505050565b61160581734200000000000000000000000000000000000010611d14565b50565b6110833385348686868080601f01602080910402602001604051908101604052809392919081815260200183838082843760009201919091525061042d92505050565b60005460015460405173ffffffffffffffffffffffffffffffffffffffff92831692633dbb202b9216907f0166a07a00000000000000000000000000000000000000000000000000000000906116b1908c908e908d908d908d908c908c90602401612954565b604080517fffffffffffffffffffffffffffffffffffffffffffffffffffffffffffffffe08184030181529181526020820180517bffffffffffffffffffffffffffffffffffffffffffffffffffffffff167fffffffff000000000000000000000000000000000000000000000000000000009485161790525160e085901b9092168252611744929188906004016127ee565b600060405180830381600087803b15801561175e57600080fd5b505af1158015611772573d6000803e3d6000fd5b505050508573ffffffffffffffffffffffffffffffffffffffff168773ffffffffffffffffffffffffffffffffffffffff168973ffffffffffffffffffffffffffffffffffffffff167f7ff126db8024424bbfd9826e8ab82ff59136289ea440b04b39a0df1b03b9cabf888887876040516117f09493929190612899565b60405180910390a45050505050505050565b73ffffffffffffffffffffffffffffffffffffffff8816301415611882576040517f08c379a000000000000000000000000000000000000000000000000000000000815260206004820152601a60248201527f4c6f63616c20746f6b656e2063616e6e6f742062652073656c660000000000006044820152606401610197565b61188b88611b67565b156119b35761189a8888611b99565b611926576040517f08c379a000000000000000000000000000000000000000000000000000000000815260206004820152603a60248201527f57726f6e672072656d6f746520746f6b656e20666f72204f7074696d69736d2060448201527f4d696e7461626c65204552433230206c6f63616c20746f6b656e0000000000006064820152608401610197565b6040517f9dc29fac00000000000000000000000000000000000000000000000000000000815273ffffffffffffffffffffffffffffffffffffffff878116600483015260248201869052891690639dc29fac90604401600060405180830381600087803b15801561199657600080fd5b505af11580156119aa573d6000803e3d6000fd5b50505050611a47565b6119d573ffffffffffffffffffffffffffffffffffffffff8916873087611e0d565b73ffffffffffffffffffffffffffffffffffffffff8089166000908152600260209081526040808320938b1683529290522054611a139085906129b1565b73ffffffffffffffffffffffffffffffffffffffff808a166000908152600260209081526040808320938c16835292905220555b611a57888888888888888861164b565b5050505050505050565b8573ffffffffffffffffffffffffffffffffffffffff168773ffffffffffffffffffffffffffffffffffffffff168973ffffffffffffffffffffffffffffffffffffffff167f718594027abd4eaed59f95162563e0cc6d0e8d5b86b1c7be8b1b0ac3343d039688888787604051611adb9493929190612899565b60405180910390a4611a578888888888888888611802565b8273ffffffffffffffffffffffffffffffffffffffff168473ffffffffffffffffffffffffffffffffffffffff167f35d79ab81f2b2017e19afb5c5571778877782d7a8786f5907f93b0f4702f4f233484604051611b52929190612796565b60405180910390a3611083848434858561042d565b6000611b93827f1d1d8b6300000000000000000000000000000000000000000000000000000000611e6b565b92915050565b60008273ffffffffffffffffffffffffffffffffffffffff1663c01e1bd66040518163ffffffff1660e01b8152600401602060405180830381865afa158015611be6573d6000803e3d6000fd5b505050506040513d601f19601f82011682018060405250810190611c0a9190612833565b73ffffffffffffffffffffffffffffffffffffffff168273ffffffffffffffffffffffffffffffffffffffff1614905092915050565b60405173ffffffffffffffffffffffffffffffffffffffff83166024820152604481018290526109879084907fa9059cbb00000000000000000000000000000000000000000000000000000000906064015b604080517fffffffffffffffffffffffffffffffffffffffffffffffffffffffffffffffe08184030181529190526020810180517bffffffffffffffffffffffffffffffffffffffffffffffffffffffff167fffffffff0000000000000000000000000000000000000000000000000000000090931692909217909152611e8e565b60005473ffffffffffffffffffffffffffffffffffffffff1615611dba576040517f08c379a000000000000000000000000000000000000000000000000000000000815260206004820152602660248201527f436f6e74726163742068617320616c7265616479206265656e20696e6974696160448201527f6c697a65642e00000000000000000000000000000000000000000000000000006064820152608401610197565b6000805473ffffffffffffffffffffffffffffffffffffffff9384167fffffffffffffffffffffffff00000000000000000000000000000000000000009182161790915560018054929093169116179055565b60405173ffffffffffffffffffffffffffffffffffffffff808516602483015283166044820152606481018290526110839085907f23b872dd0000000000000000000000000000000000000000000000000000000090608401611c92565b6000611e7683611f9a565b8015611e875750611e878383611ffe565b9392505050565b6000611ef0826040518060400160405280602081526020017f5361666545524332303a206c6f772d6c6576656c2063616c6c206661696c65648152508573ffffffffffffffffffffffffffffffffffffffff1661213a9092919063ffffffff16565b8051909150156109875780806020019051810190611f0e91906129c9565b610987576040517f08c379a000000000000000000000000000000000000000000000000000000000815260206004820152602a60248201527f5361666545524332303a204552433230206f7065726174696f6e20646964206e60448201527f6f742073756363656564000000000000000000000000000000000000000000006064820152608401610197565b6000611fc6827f01ffc9a700000000000000000000000000000000000000000000000000000000611ffe565b8015611b935750611ff7827fffffffff00000000000000000000000000000000000000000000000000000000611ffe565b1592915050565b604080517fffffffff00000000000000000000000000000000000000000000000000000000831660248083019190915282518083039091018152604490910182526020810180517bffffffffffffffffffffffffffffffffffffffffffffffffffffffff167f01ffc9a7000000000000000000000000000000000000000000000000000000001790529051600091908290819073ffffffffffffffffffffffffffffffffffffffff871690617530906120b89086906128f2565b6000604051808303818686fa925050503d80600081146120f4576040519150601f19603f3d011682016040523d82523d6000602084013e6120f9565b606091505b50915091506020815110156121145760009350505050611b93565b81801561213057508080602001905181019061213091906129c9565b9695505050505050565b60606121498484600085612151565b949350505050565b6060824710156121e3576040517f08c379a000000000000000000000000000000000000000000000000000000000815260206004820152602660248201527f416464726573733a20696e73756666696369656e742062616c616e636520666f60448201527f722063616c6c00000000000000000000000000000000000000000000000000006064820152608401610197565b73ffffffffffffffffffffffffffffffffffffffff85163b612261576040517f08c379a000000000000000000000000000000000000000000000000000000000815260206004820152601d60248201527f416464726573733a2063616c6c20746f206e6f6e2d636f6e74726163740000006044820152606401610197565b6000808673ffffffffffffffffffffffffffffffffffffffff16858760405161228a91906128f2565b60006040518083038185875af1925050503d80600081146122c7576040519150601f19603f3d011682016040523d82523d6000602084013e6122cc565b606091505b50915091506122dc8282866122e7565b979650505050505050565b606083156122f6575081611e87565b8251156123065782518084602001fd5b816040517f08c379a000000000000000000000000000000000000000000000000000000000815260040161019791906129eb565b73ffffffffffffffffffffffffffffffffffffffff8116811461160557600080fd5b60008083601f84011261236e57600080fd5b50813567ffffffffffffffff81111561238657600080fd5b60208301915083602082850101111561239e57600080fd5b9250929050565b600080600080600080600060c0888a0312156123c057600080fd5b87356123cb8161233a565b965060208801356123db8161233a565b955060408801356123eb8161233a565b945060608801356123fb8161233a565b93506080880135925060a088013567ffffffffffffffff81111561241e57600080fd5b61242a8a828b0161235c565b989b979a50959850939692959293505050565b803563ffffffff8116811461245157600080fd5b919050565b60008060006040848603121561246b57600080fd5b6124748461243d565b9250602084013567ffffffffffffffff81111561249057600080fd5b61249c8682870161235c565b9497909650939450505050565b6000806000806000608086880312156124c157600080fd5b85356124cc8161233a565b945060208601356124dc8161233a565b935060408601359250606086013567ffffffffffffffff8111156124ff57600080fd5b61250b8882890161235c565b969995985093965092949392505050565b600080600080600080600060c0888a03121561253757600080fd5b87356125428161233a565b965060208801356125528161233a565b955060408801356125628161233a565b9450606088013593506125776080890161243d565b925060a088013567ffffffffffffffff81111561241e57600080fd5b60008060008060008060a087890312156125ac57600080fd5b86356125b78161233a565b955060208701356125c78161233a565b9450604087013593506125dc6060880161243d565b9250608087013567ffffffffffffffff8111156125f857600080fd5b61260489828a0161235c565b979a9699509497509295939492505050565b6000806040838503121561262957600080fd5b82356126348161233a565b915060208301356126448161233a565b809150509250929050565b6000806000806060858703121561266557600080fd5b84356126708161233a565b935061267e6020860161243d565b9250604085013567ffffffffffffffff81111561269a57600080fd5b6126a68782880161235c565b95989497509550505050565b600080600080608085870312156126c857600080fd5b84356126d38161233a565b935060208501356126e38161233a565b925060408501356126f38161233a565b9396929550929360600135925050565b60006020828403121561271557600080fd5b8135611e878161233a565b60005b8381101561273b578181015183820152602001612723565b838111156110835750506000910152565b60008151808452612764816020860160208601612720565b601f017fffffffffffffffffffffffffffffffffffffffffffffffffffffffffffffffe0169290920160200192915050565b828152604060208201526000612149604083018461274c565b600073ffffffffffffffffffffffffffffffffffffffff808716835280861660208401525083604083015260806060830152612130608083018461274c565b73ffffffffffffffffffffffffffffffffffffffff8416815260606020820152600061281d606083018561274c565b905063ffffffff83166040830152949350505050565b60006020828403121561284557600080fd5b8151611e878161233a565b8183528181602085013750600060208284010152600060207fffffffffffffffffffffffffffffffffffffffffffffffffffffffffffffffe0601f840116840101905092915050565b73ffffffffffffffffffffffffffffffffffffffff85168152836020820152606060408201526000612130606083018486612850565b8381526040602082015260006128e9604083018486612850565b95945050505050565b60008251612904818460208701612720565b9190910192915050565b7f4e487b7100000000000000000000000000000000000000000000000000000000600052601160045260246000fd5b60008282101561294f5761294f61290e565b500390565b600073ffffffffffffffffffffffffffffffffffffffff808a1683528089166020840152808816604084015280871660608401525084608083015260c060a08301526129a460c083018486612850565b9998505050505050505050565b600082198211156129c4576129c461290e565b500190565b6000602082840312156129db57600080fd5b81518015158114611e8757600080fd5b602081526000611e87602083018461274c56fea164736f6c634300080a000a",
  "devdoc": {
    "version": 1,
    "kind": "dev",
    "methods": {
      "depositERC20(address,address,uint256,uint32,bytes)": {
        "params": {
          "_amount": "Amount of the ERC20 to deposit.",
          "_extraData": "Optional data to forward to L2. Data supplied here will not be used to                     execute any code on L2 and is only emitted as extra data for the                     convenience of off-chain tooling.",
          "_l1Token": "Address of the L1 token being deposited.",
          "_l2Token": "Address of the corresponding token on L2.",
          "_minGasLimit": "Minimum gas limit for the deposit message on L2."
        }
      },
      "depositERC20To(address,address,address,uint256,uint32,bytes)": {
        "params": {
          "_amount": "Amount of the ERC20 to deposit.",
          "_extraData": "Optional data to forward to L2. Data supplied here will not be used to                     execute any code on L2 and is only emitted as extra data for the                     convenience of off-chain tooling.",
          "_l1Token": "Address of the L1 token being deposited.",
          "_l2Token": "Address of the corresponding token on L2.",
          "_minGasLimit": "Minimum gas limit for the deposit message on L2.",
          "_to": "Address of the recipient on L2."
        }
      },
      "depositETH(uint32,bytes)": {
        "params": {
          "_extraData": "Optional data to forward to L2. Data supplied here will not be used to                     execute any code on L2 and is only emitted as extra data for the                     convenience of off-chain tooling.",
          "_minGasLimit": "Minimum gas limit for the deposit message on L2."
        }
      },
      "depositETHTo(address,uint32,bytes)": {
        "params": {
          "_extraData": "Optional data to forward to L2. Data supplied here will not be used to                     execute any code on L2 and is only emitted as extra data for the                     convenience of off-chain tooling.",
          "_minGasLimit": "Minimum gas limit for the deposit message on L2.",
          "_to": "Address of the recipient on L2."
        }
      },
      "finalizeERC20Withdrawal(address,address,address,address,uint256,bytes)": {
        "params": {
          "_amount": "Amount of ETH to withdraw.",
          "_extraData": "Optional data forwarded from L2.",
          "_from": "Address of the withdrawer on L2.",
          "_l1Token": "Address of the token on L1.",
          "_l2Token": "Address of the corresponding token on L2.",
          "_to": "Address of the recipient on L1."
        }
      },
      "finalizeETHWithdrawal(address,address,uint256,bytes)": {
        "params": {
          "_amount": "Amount of ETH to withdraw.",
          "_extraData": "Optional data forwarded from L2.",
          "_from": "Address of the withdrawer on L2.",
          "_to": "Address of the recipient on L1."
        }
      },
      "initialize(address)": {
        "params": {
          "_messenger": "Address of the L1CrossDomainMessenger."
        }
      },
      "l2TokenBridge()": {
        "returns": {
          "_0": "Address of the corresponding L2 bridge contract."
        }
      }
    },
    "events": {
      "ERC20DepositInitiated(address,address,address,address,uint256,bytes)": {
        "params": {
          "_amount": "Amount of the ERC20 deposited.",
          "_extraData": "Extra data attached to the deposit.",
          "_from": "Address of the depositor.",
          "_l1Token": "Address of the token on L1.",
          "_l2Token": "Address of the corresponding token on L2.",
          "_to": "Address of the recipient on L2."
        }
      },
      "ERC20WithdrawalFinalized(address,address,address,address,uint256,bytes)": {
        "params": {
          "_amount": "Amount of the ERC20 withdrawn.",
          "_extraData": "Extra data attached to the withdrawal.",
          "_from": "Address of the withdrawer.",
          "_l1Token": "Address of the token on L1.",
          "_l2Token": "Address of the corresponding token on L2.",
          "_to": "Address of the recipient on L1."
        }
      },
      "ETHDepositInitiated(address,address,uint256,bytes)": {
        "params": {
          "_amount": "Amount of ETH deposited.",
          "_extraData": "Extra data attached to the deposit.",
          "_from": "Address of the depositor.",
          "_to": "Address of the recipient on L2."
        }
      },
      "ETHWithdrawalFinalized(address,address,uint256,bytes)": {
        "params": {
          "_amount": "Amount of ETH withdrawn.",
          "_extraData": "Extra data attached to the withdrawal.",
          "_from": "Address of the withdrawer.",
          "_to": "Address of the recipient on L1."
        }
      }
    }
  },
  "userdoc": {
    "version": 1,
    "kind": "user",
    "methods": {
      "bridgeERC20(address,address,uint256,uint32,bytes)": {
        "notice": "Send an ERC20 to the message sender on the remote domain"
      },
      "bridgeERC20To(address,address,address,uint256,uint32,bytes)": {
        "notice": "Send an ERC20 to a specified account on the remote domain"
      },
      "bridgeETH(uint32,bytes)": {
        "notice": "Send ETH to the message sender on the remote domain"
      },
      "bridgeETHTo(address,uint32,bytes)": {
        "notice": "Send ETH to a specified account on the remote domain. Note that if ETH is sent to a         contract and the call fails, then that ETH will be locked in the other bridge."
      },
      "finalizeBridgeERC20(address,address,address,address,uint256,bytes)": {
        "notice": "Finalize an ERC20 sending transaction sent from a remote domain"
      },
      "finalizeBridgeETH(address,address,uint256,bytes)": {
        "notice": "Finalize an ETH sending transaction sent from a remote domain"
      },
      "initialize(address)": {
        "notice": "Initializes the L1StandardBridge."
      },
      "messenger()": {
        "notice": "The messenger contract on the same domain"
      },
      "otherBridge()": {
        "notice": "The corresponding bridge on the other domain"
      }
    },
    "notice": "The L1StandardBridge is responsible for transfering ETH and ERC20 tokens between L1 and         L2. ERC20 tokens deposited into L2 are escrowed within this contract until withdrawal.         ETH is transferred to and escrowed within the OptimismPortal contract."
  },
  "storageLayout": {
    "storage": [
      {
        "astId": 18751,
        "contract": "contracts/L1/L1StandardBridge.sol:L1StandardBridge",
        "label": "messenger",
        "offset": 0,
        "slot": "0",
        "type": "t_contract(CrossDomainMessenger)17645"
      },
      {
        "astId": 18755,
        "contract": "contracts/L1/L1StandardBridge.sol:L1StandardBridge",
        "label": "otherBridge",
        "offset": 0,
        "slot": "1",
        "type": "t_contract(StandardBridge)19374"
      },
      {
        "astId": 18761,
        "contract": "contracts/L1/L1StandardBridge.sol:L1StandardBridge",
        "label": "deposits",
        "offset": 0,
        "slot": "2",
        "type": "t_mapping(t_address,t_mapping(t_address,t_uint256))"
      }
    ],
    "types": {
      "t_address": {
        "encoding": "inplace",
        "label": "address",
        "numberOfBytes": "20"
      },
      "t_contract(CrossDomainMessenger)17645": {
        "encoding": "inplace",
        "label": "contract CrossDomainMessenger",
        "numberOfBytes": "20"
      },
      "t_contract(StandardBridge)19374": {
        "encoding": "inplace",
        "label": "contract StandardBridge",
        "numberOfBytes": "20"
      },
      "t_mapping(t_address,t_mapping(t_address,t_uint256))": {
        "encoding": "mapping",
        "label": "mapping(address => mapping(address => uint256))",
        "numberOfBytes": "32"
      },
      "t_mapping(t_address,t_uint256)": {
        "encoding": "mapping",
        "label": "mapping(address => uint256)",
        "numberOfBytes": "32"
      },
      "t_uint256": {
        "encoding": "inplace",
        "label": "uint256",
        "numberOfBytes": "32"
      }
    }
  }
}