{
  "address": "0x0E047dcE5AB3DDd1762723b3995c07ab917788bA",
  "abi": [
    {
      "inputs": [
        {
          "internalType": "uint256",
          "name": "_submissionInterval",
          "type": "uint256"
        },
        {
          "internalType": "bytes32",
          "name": "_genesisL2Output",
          "type": "bytes32"
        },
        {
          "internalType": "uint256",
          "name": "_startingBlockNumber",
          "type": "uint256"
        },
        {
          "internalType": "uint256",
          "name": "_startingTimestamp",
          "type": "uint256"
        },
        {
          "internalType": "uint256",
          "name": "_l2BlockTime",
          "type": "uint256"
        },
        {
          "internalType": "address",
          "name": "_proposer",
          "type": "address"
        },
        {
          "internalType": "address",
          "name": "_owner",
          "type": "address"
        }
      ],
      "stateMutability": "nonpayable",
      "type": "constructor"
    },
    {
      "anonymous": false,
      "inputs": [
        {
          "indexed": false,
          "internalType": "uint8",
          "name": "version",
          "type": "uint8"
        }
      ],
      "name": "Initialized",
      "type": "event"
    },
    {
      "anonymous": false,
      "inputs": [
        {
          "indexed": true,
          "internalType": "bytes32",
          "name": "outputRoot",
          "type": "bytes32"
        },
        {
          "indexed": true,
          "internalType": "uint256",
          "name": "l1Timestamp",
          "type": "uint256"
        },
        {
          "indexed": true,
          "internalType": "uint256",
          "name": "l2BlockNumber",
          "type": "uint256"
        }
      ],
      "name": "OutputProposed",
      "type": "event"
    },
    {
      "anonymous": false,
      "inputs": [
        {
          "indexed": true,
          "internalType": "uint256",
          "name": "l2BlockNumber",
          "type": "uint256"
        }
      ],
      "name": "OutputsDeleted",
      "type": "event"
    },
    {
      "anonymous": false,
      "inputs": [
        {
          "indexed": true,
          "internalType": "address",
          "name": "previousOwner",
          "type": "address"
        },
        {
          "indexed": true,
          "internalType": "address",
          "name": "newOwner",
          "type": "address"
        }
      ],
      "name": "OwnershipTransferred",
      "type": "event"
    },
    {
      "anonymous": false,
      "inputs": [
        {
          "indexed": true,
          "internalType": "address",
          "name": "previousProposer",
          "type": "address"
        },
        {
          "indexed": true,
          "internalType": "address",
          "name": "newProposer",
          "type": "address"
        }
      ],
      "name": "ProposerChanged",
      "type": "event"
    },
    {
      "inputs": [],
      "name": "L2_BLOCK_TIME",
      "outputs": [
        {
          "internalType": "uint256",
          "name": "",
          "type": "uint256"
        }
      ],
      "stateMutability": "view",
      "type": "function"
    },
    {
      "inputs": [],
      "name": "STARTING_BLOCK_NUMBER",
      "outputs": [
        {
          "internalType": "uint256",
          "name": "",
          "type": "uint256"
        }
      ],
      "stateMutability": "view",
      "type": "function"
    },
    {
      "inputs": [],
      "name": "STARTING_TIMESTAMP",
      "outputs": [
        {
          "internalType": "uint256",
          "name": "",
          "type": "uint256"
        }
      ],
      "stateMutability": "view",
      "type": "function"
    },
    {
      "inputs": [],
      "name": "SUBMISSION_INTERVAL",
      "outputs": [
        {
          "internalType": "uint256",
          "name": "",
          "type": "uint256"
        }
      ],
      "stateMutability": "view",
      "type": "function"
    },
    {
      "inputs": [
        {
          "internalType": "address",
          "name": "_proposer",
          "type": "address"
        }
      ],
      "name": "changeProposer",
      "outputs": [],
      "stateMutability": "nonpayable",
      "type": "function"
    },
    {
      "inputs": [
        {
          "internalType": "uint256",
          "name": "_l2BlockNumber",
          "type": "uint256"
        }
      ],
      "name": "computeL2Timestamp",
      "outputs": [
        {
          "internalType": "uint256",
          "name": "",
          "type": "uint256"
        }
      ],
      "stateMutability": "view",
      "type": "function"
    },
    {
      "inputs": [
        {
          "internalType": "uint256",
          "name": "_l2BlockNumber",
          "type": "uint256"
        }
      ],
      "name": "deleteL2Outputs",
      "outputs": [],
      "stateMutability": "nonpayable",
      "type": "function"
    },
    {
      "inputs": [
        {
          "internalType": "uint256",
          "name": "_l2BlockNumber",
          "type": "uint256"
        }
      ],
      "name": "getL2Output",
      "outputs": [
        {
          "components": [
            {
              "internalType": "bytes32",
              "name": "outputRoot",
              "type": "bytes32"
            },
            {
              "internalType": "uint256",
              "name": "timestamp",
              "type": "uint256"
            }
          ],
          "internalType": "struct Types.OutputProposal",
          "name": "",
          "type": "tuple"
        }
      ],
      "stateMutability": "view",
      "type": "function"
    },
    {
      "inputs": [
        {
          "internalType": "bytes32",
          "name": "_genesisL2Output",
          "type": "bytes32"
        },
        {
          "internalType": "address",
          "name": "_proposer",
          "type": "address"
        },
        {
          "internalType": "address",
          "name": "_owner",
          "type": "address"
        }
      ],
      "name": "initialize",
      "outputs": [],
      "stateMutability": "nonpayable",
      "type": "function"
    },
    {
      "inputs": [],
      "name": "latestBlockNumber",
      "outputs": [
        {
          "internalType": "uint256",
          "name": "",
          "type": "uint256"
        }
      ],
      "stateMutability": "view",
      "type": "function"
    },
    {
      "inputs": [],
      "name": "nextBlockNumber",
      "outputs": [
        {
          "internalType": "uint256",
          "name": "",
          "type": "uint256"
        }
      ],
      "stateMutability": "view",
      "type": "function"
    },
    {
      "inputs": [],
      "name": "owner",
      "outputs": [
        {
          "internalType": "address",
          "name": "",
          "type": "address"
        }
      ],
      "stateMutability": "view",
      "type": "function"
    },
    {
      "inputs": [
        {
          "internalType": "bytes32",
          "name": "_outputRoot",
          "type": "bytes32"
        },
        {
          "internalType": "uint256",
          "name": "_l2BlockNumber",
          "type": "uint256"
        },
        {
          "internalType": "bytes32",
          "name": "_l1Blockhash",
          "type": "bytes32"
        },
        {
          "internalType": "uint256",
          "name": "_l1BlockNumber",
          "type": "uint256"
        }
      ],
      "name": "proposeL2Output",
      "outputs": [],
      "stateMutability": "payable",
      "type": "function"
    },
    {
      "inputs": [],
      "name": "proposer",
      "outputs": [
        {
          "internalType": "address",
          "name": "",
          "type": "address"
        }
      ],
      "stateMutability": "view",
      "type": "function"
    },
    {
      "inputs": [],
      "name": "renounceOwnership",
      "outputs": [],
      "stateMutability": "nonpayable",
      "type": "function"
    },
    {
      "inputs": [
        {
          "internalType": "address",
          "name": "newOwner",
          "type": "address"
        }
      ],
      "name": "transferOwnership",
      "outputs": [],
      "stateMutability": "nonpayable",
      "type": "function"
    },
    {
      "inputs": [],
      "name": "version",
      "outputs": [
        {
          "internalType": "string",
          "name": "",
          "type": "string"
        }
      ],
      "stateMutability": "view",
      "type": "function"
    }
  ],
  "transactionHash": "0xfe3a1285f3c47099f9a3d72c0aa0912c63e74a897e9d15c709e4ba3f7bb0097a",
  "args": [
    18000,
    "0x1111111111111111111111111111111111111111111111111111111111111111",
    0,
    1669223490,
    2,
    "0x70997970C51812dc3A010C7d01b50e0d17dc79C8",
    "0x3071b919a37D3217fA19d54f8E1a08AEC4d8eB4e"
  ],
  "numDeployments": 1,
  "solcInputHash": "4ac8d7e88b7beccf191b7fe590ece576",
  "bytecode": "0x6101606040523480156200001257600080fd5b5060405162001db238038062001db2833981016040819052620000359162000507565b6000608081905260a052600160c05242841115620000ce5760405162461bcd60e51b8152602060048201526044602482018190527f4c324f75747075744f7261636c653a207374617274696e67204c322074696d65908201527f7374616d70206d757374206265206c657373207468616e2063757272656e742060648201526374696d6560e01b608482015260a4015b60405180910390fd5b60e0879052610100859052610120849052610140839052620000f2868383620000ff565b505050505050506200056f565b600054610100900460ff1615808015620001205750600054600160ff909116105b806200015057506200013d306200027a60201b620010ac1760201c565b15801562000150575060005460ff166001145b620001b55760405162461bcd60e51b815260206004820152602e60248201527f496e697469616c697a61626c653a20636f6e747261637420697320616c72656160448201526d191e481a5b9a5d1a585b1a5e995960921b6064820152608401620000c5565b6000805460ff191660011790558015620001d9576000805461ff0019166101001790555b604080518082018252858152426020808301918252610100516000818152606790925293902091518255516001909101556066556200021762000289565b6200022283620002f1565b6200022d82620003d5565b801562000274576000805461ff0019169055604051600181527f7f26b83ff96e1f2b6a682f133852f6798a09c465da95921460cefb38474024989060200160405180910390a15b50505050565b6001600160a01b03163b151590565b600054610100900460ff16620002e55760405162461bcd60e51b815260206004820152602b602482015260008051602062001d9283398151915260448201526a6e697469616c697a696e6760a81b6064820152608401620000c5565b620002ef62000427565b565b620002fb6200048e565b6001600160a01b038116620003795760405162461bcd60e51b815260206004820152603760248201527f4c324f75747075744f7261636c653a206e65772070726f706f7365722063616e60448201527f6e6f7420626520746865207a65726f20616464726573730000000000000000006064820152608401620000c5565b6065546040516001600160a01b038084169216907f3d7728dc2838bb794606bd89f5a37930830b32060f69ee929bbfc59b669024dd90600090a3606580546001600160a01b0319166001600160a01b0392909216919091179055565b603380546001600160a01b038381166001600160a01b0319831681179093556040519116919082907f8be0079c531659141344cd1fd0a4f28419497f9722a3daafe3b4186f6b6457e090600090a35050565b600054610100900460ff16620004835760405162461bcd60e51b815260206004820152602b602482015260008051602062001d9283398151915260448201526a6e697469616c697a696e6760a81b6064820152608401620000c5565b620002ef33620003d5565b6033546001600160a01b03163314620002ef5760405162461bcd60e51b815260206004820181905260248201527f4f776e61626c653a2063616c6c6572206973206e6f7420746865206f776e65726044820152606401620000c5565b80516001600160a01b03811681146200050257600080fd5b919050565b600080600080600080600060e0888a0312156200052357600080fd5b87519650602088015195506040880151945060608801519350608088015192506200055160a08901620004ea565b91506200056160c08901620004ea565b905092959891949750929550565b60805160a05160c05160e05161010051610120516101405161178962000609600039600081816101240152610f3d01526000818161016b0152610f960152600081816101b5015281816106f001528181610e010152610f610152600081816101e90152818161090d01528181610ddd01528181610e400152610fc401526000610419015260006103f0015260006103c701526117896000f3fe60806040526004361061010d5760003560e01c806388b117b3116100a5578063a25ae55711610074578063d1de856c11610059578063d1de856c1461036b578063dcec33481461038b578063f2fde38b146103a057600080fd5b8063a25ae55714610303578063a8e4fb901461033e57600080fd5b806388b117b31461026457806389c44cbb146102845780638da5cb5b146102a45780639aaab648146102f057600080fd5b8063529933df116100e1578063529933df146101d757806354fd4d501461020b578063715018a61461022d57806372d5fe211461024457600080fd5b80622134cc1461011257806320e9fcd4146101595780634599c7881461018d5780634ab65d73146101a3575b600080fd5b34801561011e57600080fd5b506101467f000000000000000000000000000000000000000000000000000000000000000081565b6040519081526020015b60405180910390f35b34801561016557600080fd5b506101467f000000000000000000000000000000000000000000000000000000000000000081565b34801561019957600080fd5b5061014660665481565b3480156101af57600080fd5b506101467f000000000000000000000000000000000000000000000000000000000000000081565b3480156101e357600080fd5b506101467f000000000000000000000000000000000000000000000000000000000000000081565b34801561021757600080fd5b506102206103c0565b604051610150919061145b565b34801561023957600080fd5b50610242610463565b005b34801561025057600080fd5b5061024261025f3660046114d5565b610477565b34801561027057600080fd5b5061024261027f3660046114f7565b6105b5565b34801561029057600080fd5b5061024261029f366004611533565b6107ad565b3480156102b057600080fd5b5060335473ffffffffffffffffffffffffffffffffffffffff165b60405173ffffffffffffffffffffffffffffffffffffffff9091168152602001610150565b6102426102fe36600461154c565b610963565b34801561030f57600080fd5b5061032361031e366004611533565b610d0d565b60408051825181526020928301519281019290925201610150565b34801561034a57600080fd5b506065546102cb9073ffffffffffffffffffffffffffffffffffffffff1681565b34801561037757600080fd5b50610146610386366004611533565b610f39565b34801561039757600080fd5b50610146610fc0565b3480156103ac57600080fd5b506102426103bb3660046114d5565b610ff5565b60606103eb7f00000000000000000000000000000000000000000000000000000000000000006110c8565b6104147f00000000000000000000000000000000000000000000000000000000000000006110c8565b61043d7f00000000000000000000000000000000000000000000000000000000000000006110c8565b60405160200161044f9392919061157e565b604051602081830303815290604052905090565b61046b6111fd565b610475600061127e565b565b61047f6111fd565b73ffffffffffffffffffffffffffffffffffffffff8116610527576040517f08c379a000000000000000000000000000000000000000000000000000000000815260206004820152603760248201527f4c324f75747075744f7261636c653a206e65772070726f706f7365722063616e60448201527f6e6f7420626520746865207a65726f206164647265737300000000000000000060648201526084015b60405180910390fd5b60655460405173ffffffffffffffffffffffffffffffffffffffff8084169216907f3d7728dc2838bb794606bd89f5a37930830b32060f69ee929bbfc59b669024dd90600090a3606580547fffffffffffffffffffffffff00000000000000000000000000000000000000001673ffffffffffffffffffffffffffffffffffffffff92909216919091179055565b600054610100900460ff16158080156105d55750600054600160ff909116105b806105ef5750303b1580156105ef575060005460ff166001145b61067b576040517f08c379a000000000000000000000000000000000000000000000000000000000815260206004820152602e60248201527f496e697469616c697a61626c653a20636f6e747261637420697320616c72656160448201527f647920696e697469616c697a6564000000000000000000000000000000000000606482015260840161051e565b600080547fffffffffffffffffffffffffffffffffffffffffffffffffffffffffffffff0016600117905580156106d957600080547fffffffffffffffffffffffffffffffffffffffffffffffffffffffffffff00ff166101001790555b6040805180820182528581524260208083019182527f00000000000000000000000000000000000000000000000000000000000000006000818152606790925293902091518255516001909101556066556107326112f5565b61073b83610477565b6107448261127e565b80156107a757600080547fffffffffffffffffffffffffffffffffffffffffffffffffffffffffffff00ff169055604051600181527f7f26b83ff96e1f2b6a682f133852f6798a09c465da95921460cefb38474024989060200160405180910390a15b50505050565b6107b56111fd565b600081815260676020526040902054610850576040517f08c379a000000000000000000000000000000000000000000000000000000000815260206004820152603360248201527f4c324f75747075744f7261636c653a2063616e6e6f742064656c65746520612060448201527f6e6f6e2d6578697374656e74206f757470757400000000000000000000000000606482015260840161051e565b606654811115610908576040517f08c379a000000000000000000000000000000000000000000000000000000000815260206004820152604360248201527f4c324f75747075744f7261636c653a2063616e6e6f742064656c657465206f7560448201527f747075747320616674657220746865206c617465737420626c6f636b206e756d60648201527f6265720000000000000000000000000000000000000000000000000000000000608482015260a40161051e565b6109327f000000000000000000000000000000000000000000000000000000000000000082611623565b60665560405181907f21cbfd8ae20a7662b0a8aa9162fc9428f52c94b2e0ac268312628ea47f3f17eb90600090a250565b60655473ffffffffffffffffffffffffffffffffffffffff163314610a0a576040517f08c379a000000000000000000000000000000000000000000000000000000000815260206004820152603760248201527f4c324f75747075744f7261636c653a2066756e6374696f6e2063616e206f6e6c60448201527f792062652063616c6c65642062792070726f706f736572000000000000000000606482015260840161051e565b610a12610fc0565b8314610ac6576040517f08c379a000000000000000000000000000000000000000000000000000000000815260206004820152604860248201527f4c324f75747075744f7261636c653a20626c6f636b206e756d626572206d757360448201527f7420626520657175616c20746f206e65787420657870656374656420626c6f6360648201527f6b206e756d626572000000000000000000000000000000000000000000000000608482015260a40161051e565b42610ad084610f39565b10610b5d576040517f08c379a000000000000000000000000000000000000000000000000000000000815260206004820152603660248201527f4c324f75747075744f7261636c653a2063616e6e6f742070726f706f7365204c60448201527f32206f757470757420696e207468652066757475726500000000000000000000606482015260840161051e565b83610bea576040517f08c379a000000000000000000000000000000000000000000000000000000000815260206004820152603a60248201527f4c324f75747075744f7261636c653a204c32206f75747075742070726f706f7360448201527f616c2063616e6e6f7420626520746865207a65726f2068617368000000000000606482015260840161051e565b8115610ca65781814014610ca6576040517f08c379a000000000000000000000000000000000000000000000000000000000815260206004820152604860248201527f4c324f75747075744f7261636c653a20626c6f636b6861736820646f6573206e60448201527f6f74206d6174636820746865206861736820617420746865206578706563746560648201527f6420686569676874000000000000000000000000000000000000000000000000608482015260a40161051e565b8242857fc120f5e881491e6e212befa39e36b8f57d5eca31915f2e5d60a420f418caa6df60405160405180910390a4505060408051808201825292835242602080850191825260008481526067909152919091209251835551600190920191909155606655565b6040805180820190915260008082526020820152606654821115610dd9576040517f08c379a000000000000000000000000000000000000000000000000000000000815260206004820152604b60248201527f4c324f75747075744f7261636c653a20626c6f636b206e756d6265722063616e60448201527f6e6f742062652067726561746572207468616e20746865206c6174657374206260648201527f6c6f636b206e756d626572000000000000000000000000000000000000000000608482015260a40161051e565b60007f0000000000000000000000000000000000000000000000000000000000000000610e267f000000000000000000000000000000000000000000000000000000000000000085611623565b610e309190611669565b905060008115610e7357610e64827f0000000000000000000000000000000000000000000000000000000000000000611623565b610e6e908561167d565b610e75565b835b600081815260676020908152604091829020825180840190935280548084526001909101549183019190915291925090610f31576040517f08c379a000000000000000000000000000000000000000000000000000000000815260206004820152603a60248201527f4c324f75747075744f7261636c653a206e6f206f757470757420666f756e642060448201527f666f722074686520676976656e20626c6f636b206e756d626572000000000000606482015260840161051e565b949350505050565b60007f0000000000000000000000000000000000000000000000000000000000000000610f867f000000000000000000000000000000000000000000000000000000000000000084611623565b610f909190611695565b610fba907f000000000000000000000000000000000000000000000000000000000000000061167d565b92915050565b60007f0000000000000000000000000000000000000000000000000000000000000000606654610ff0919061167d565b905090565b610ffd6111fd565b73ffffffffffffffffffffffffffffffffffffffff81166110a0576040517f08c379a000000000000000000000000000000000000000000000000000000000815260206004820152602660248201527f4f776e61626c653a206e6577206f776e657220697320746865207a65726f206160448201527f6464726573730000000000000000000000000000000000000000000000000000606482015260840161051e565b6110a98161127e565b50565b73ffffffffffffffffffffffffffffffffffffffff163b151590565b60608160000361110b57505060408051808201909152600181527f3000000000000000000000000000000000000000000000000000000000000000602082015290565b8160005b8115611135578061111f816116d2565b915061112e9050600a8361170a565b915061110f565b60008167ffffffffffffffff8111156111505761115061171e565b6040519080825280601f01601f19166020018201604052801561117a576020820181803683370190505b5090505b8415610f315761118f600183611623565b915061119c600a86611669565b6111a790603061167d565b60f81b8183815181106111bc576111bc61174d565b60200101907effffffffffffffffffffffffffffffffffffffffffffffffffffffffffffff1916908160001a9053506111f6600a8661170a565b945061117e565b60335473ffffffffffffffffffffffffffffffffffffffff163314610475576040517f08c379a000000000000000000000000000000000000000000000000000000000815260206004820181905260248201527f4f776e61626c653a2063616c6c6572206973206e6f7420746865206f776e6572604482015260640161051e565b6033805473ffffffffffffffffffffffffffffffffffffffff8381167fffffffffffffffffffffffff0000000000000000000000000000000000000000831681179093556040519116919082907f8be0079c531659141344cd1fd0a4f28419497f9722a3daafe3b4186f6b6457e090600090a35050565b600054610100900460ff1661138c576040517f08c379a000000000000000000000000000000000000000000000000000000000815260206004820152602b60248201527f496e697469616c697a61626c653a20636f6e7472616374206973206e6f74206960448201527f6e697469616c697a696e67000000000000000000000000000000000000000000606482015260840161051e565b610475600054610100900460ff16611426576040517f08c379a000000000000000000000000000000000000000000000000000000000815260206004820152602b60248201527f496e697469616c697a61626c653a20636f6e7472616374206973206e6f74206960448201527f6e697469616c697a696e67000000000000000000000000000000000000000000606482015260840161051e565b6104753361127e565b60005b8381101561144a578181015183820152602001611432565b838111156107a75750506000910152565b602081526000825180602084015261147a81604085016020870161142f565b601f017fffffffffffffffffffffffffffffffffffffffffffffffffffffffffffffffe0169190910160400192915050565b803573ffffffffffffffffffffffffffffffffffffffff811681146114d057600080fd5b919050565b6000602082840312156114e757600080fd5b6114f0826114ac565b9392505050565b60008060006060848603121561150c57600080fd5b8335925061151c602085016114ac565b915061152a604085016114ac565b90509250925092565b60006020828403121561154557600080fd5b5035919050565b6000806000806080858703121561156257600080fd5b5050823594602084013594506040840135936060013592509050565b6000845161159081846020890161142f565b80830190507f2e0000000000000000000000000000000000000000000000000000000000000080825285516115cc816001850160208a0161142f565b600192019182015283516115e781600284016020880161142f565b0160020195945050505050565b7f4e487b7100000000000000000000000000000000000000000000000000000000600052601160045260246000fd5b600082821015611635576116356115f4565b500390565b7f4e487b7100000000000000000000000000000000000000000000000000000000600052601260045260246000fd5b6000826116785761167861163a565b500690565b60008219821115611690576116906115f4565b500190565b6000817fffffffffffffffffffffffffffffffffffffffffffffffffffffffffffffffff04831182151516156116cd576116cd6115f4565b500290565b60007fffffffffffffffffffffffffffffffffffffffffffffffffffffffffffffffff8203611703576117036115f4565b5060010190565b6000826117195761171961163a565b500490565b7f4e487b7100000000000000000000000000000000000000000000000000000000600052604160045260246000fd5b7f4e487b7100000000000000000000000000000000000000000000000000000000600052603260045260246000fdfea164736f6c634300080f000a496e697469616c697a61626c653a20636f6e7472616374206973206e6f742069",
  "devdoc": {
    "version": 1,
    "kind": "dev",
    "methods": {
      "changeProposer(address)": {
        "params": {
          "_proposer": "New proposer address."
        }
      },
      "computeL2Timestamp(uint256)": {
        "params": {
          "_l2BlockNumber": "The L2 block number of the target block."
        }
      },
      "constructor": {
        "params": {
          "_genesisL2Output": "The initial L2 output of the L2 chain.",
          "_l2BlockTime": "The time per L2 block, in seconds.",
          "_owner": "The address of the owner.",
          "_proposer": "The address of the proposer.",
          "_startingBlockNumber": "The number of the first L2 block.",
          "_startingTimestamp": "The timestamp of the first L2 block.",
          "_submissionInterval": "Interval in blocks at which checkpoints must be submitted."
        }
      },
      "deleteL2Outputs(uint256)": {
        "params": {
          "_l2BlockNumber": "L2 block number of the first output root to delete."
        }
      },
      "getL2Output(uint256)": {
        "params": {
          "_l2BlockNumber": "The L2 block number of the target block."
        }
      },
      "initialize(bytes32,address,address)": {
        "params": {
          "_genesisL2Output": "The initial L2 output of the L2 chain.",
          "_owner": "The address of the owner.",
          "_proposer": "The address of the proposer."
        }
      },
      "owner()": {
        "details": "Returns the address of the current owner."
      },
      "proposeL2Output(bytes32,uint256,bytes32,uint256)": {
        "params": {
          "_l1BlockNumber": "The block number with the specified block hash.",
          "_l1Blockhash": "A block hash which must be included in the current chain.",
          "_l2BlockNumber": "The L2 block number that resulted in _outputRoot.",
          "_outputRoot": "The L2 output of the checkpoint block."
        }
      },
      "renounceOwnership()": {
        "details": "Leaves the contract without owner. It will not be possible to call `onlyOwner` functions anymore. Can only be called by the current owner. NOTE: Renouncing ownership will leave the contract without an owner, thereby removing any functionality that is only available to the owner."
      },
      "transferOwnership(address)": {
        "details": "Transfers ownership of the contract to a new account (`newOwner`). Can only be called by the current owner."
      },
      "version()": {
        "returns": {
          "_0": "Semver contract version as a string."
        }
      }
    },
    "events": {
      "OutputProposed(bytes32,uint256,uint256)": {
        "params": {
          "l1Timestamp": "The L1 timestamp when proposed.",
          "l2BlockNumber": "The L2 block number of the output root.",
          "outputRoot": "The output root."
        }
      },
      "OutputsDeleted(uint256)": {
        "params": {
          "l2BlockNumber": "First L2 block number deleted."
        }
      },
      "ProposerChanged(address,address)": {
        "params": {
          "newProposer": "The new proposer address.",
          "previousProposer": "The previous proposer address."
        }
      }
    }
  },
  "userdoc": {
    "version": 1,
    "kind": "user",
    "methods": {
      "L2_BLOCK_TIME()": {
        "notice": "The time between L2 blocks in seconds."
      },
      "STARTING_BLOCK_NUMBER()": {
        "notice": "The number of the first L2 block recorded in this contract."
      },
      "STARTING_TIMESTAMP()": {
        "notice": "The timestamp of the first L2 block recorded in this contract."
      },
      "SUBMISSION_INTERVAL()": {
        "notice": "The interval in L2 blocks at which checkpoints must be submitted."
      },
      "changeProposer(address)": {
        "notice": "Allows the owner to change the proposer address."
      },
      "computeL2Timestamp(uint256)": {
        "notice": "Returns the L2 timestamp corresponding to a given L2 block number.         If the L2 block number provided is between checkpoints, this function will return the         timestamp of the previous checkpoint."
      },
      "deleteL2Outputs(uint256)": {
        "notice": "Deletes all output proposals after and including the proposal that corresponds to         the given block number. Can only be called by the owner, but will be replaced with         a mechanism that allows a challenger contract to delete proposals."
      },
      "getL2Output(uint256)": {
        "notice": "Returns the L2 output proposal associated with a target L2 block number. If the         L2 block number provided is between checkpoints, this function will rerutn the next         proposal for the next checkpoint.         Reverts if the output proposal is either not found, or predates         the STARTING_BLOCK_NUMBER."
      },
      "initialize(bytes32,address,address)": {
        "notice": "Initializer."
      },
      "latestBlockNumber()": {
        "notice": "The number of the most recent L2 block recorded in this contract."
      },
      "nextBlockNumber()": {
        "notice": "Computes the block number of the next L2 block that needs to be checkpointed."
      },
      "proposeL2Output(bytes32,uint256,bytes32,uint256)": {
        "notice": "Accepts an outputRoot and the timestamp of the corresponding L2 block. The         timestamp must be equal to the current value returned by `nextTimestamp()` in order         to be accepted. This function may only be called by the Proposer."
      },
      "proposer()": {
        "notice": "The address of the proposer;"
      },
      "version()": {
        "notice": "Returns the full semver contract version."
      }
    },
    "events": {
      "OutputProposed(bytes32,uint256,uint256)": {
        "notice": "Emitted when an output is proposed."
      },
      "OutputsDeleted(uint256)": {
        "notice": "Emitted when outputs are deleted."
      },
      "ProposerChanged(address,address)": {
        "notice": "Emitted when the proposer address is changed."
      }
    },
    "notice": "The L2 state is committed to in this contract         The payable keyword is used on proposeL2Output to save gas on the msg.value check.         This contract should be deployed behind an upgradable proxy"
  },
  "storageLayout": {
    "storage": [
      {
        "astId": 27822,
        "contract": "contracts/L1/L2OutputOracle.sol:L2OutputOracle",
        "label": "_initialized",
        "offset": 0,
        "slot": "0",
        "type": "t_uint8"
      },
      {
        "astId": 27825,
        "contract": "contracts/L1/L2OutputOracle.sol:L2OutputOracle",
        "label": "_initializing",
        "offset": 1,
        "slot": "0",
        "type": "t_bool"
      },
      {
        "astId": 28436,
        "contract": "contracts/L1/L2OutputOracle.sol:L2OutputOracle",
        "label": "__gap",
        "offset": 0,
        "slot": "1",
        "type": "t_array(t_uint256)50_storage"
      },
      {
        "astId": 27694,
        "contract": "contracts/L1/L2OutputOracle.sol:L2OutputOracle",
        "label": "_owner",
        "offset": 0,
        "slot": "51",
        "type": "t_address"
      },
      {
        "astId": 27814,
        "contract": "contracts/L1/L2OutputOracle.sol:L2OutputOracle",
        "label": "__gap",
        "offset": 0,
        "slot": "52",
        "type": "t_array(t_uint256)49_storage"
      },
      {
        "astId": 847,
        "contract": "contracts/L1/L2OutputOracle.sol:L2OutputOracle",
        "label": "proposer",
        "offset": 0,
        "slot": "101",
        "type": "t_address"
      },
      {
        "astId": 850,
        "contract": "contracts/L1/L2OutputOracle.sol:L2OutputOracle",
        "label": "latestBlockNumber",
        "offset": 0,
        "slot": "102",
        "type": "t_uint256"
      },
      {
        "astId": 856,
        "contract": "contracts/L1/L2OutputOracle.sol:L2OutputOracle",
        "label": "l2Outputs",
        "offset": 0,
        "slot": "103",
        "type": "t_mapping(t_uint256,t_struct(OutputProposal)6041_storage)"
      }
    ],
    "types": {
      "t_address": {
        "encoding": "inplace",
        "label": "address",
        "numberOfBytes": "20"
      },
      "t_array(t_uint256)49_storage": {
        "encoding": "inplace",
        "label": "uint256[49]",
        "numberOfBytes": "1568",
        "base": "t_uint256"
      },
      "t_array(t_uint256)50_storage": {
        "encoding": "inplace",
        "label": "uint256[50]",
        "numberOfBytes": "1600",
        "base": "t_uint256"
      },
      "t_bool": {
        "encoding": "inplace",
        "label": "bool",
        "numberOfBytes": "1"
      },
      "t_bytes32": {
        "encoding": "inplace",
        "label": "bytes32",
        "numberOfBytes": "32"
      },
      "t_mapping(t_uint256,t_struct(OutputProposal)6041_storage)": {
        "encoding": "mapping",
        "key": "t_uint256",
        "label": "mapping(uint256 => struct Types.OutputProposal)",
        "numberOfBytes": "32",
        "value": "t_struct(OutputProposal)6041_storage"
      },
      "t_struct(OutputProposal)6041_storage": {
        "encoding": "inplace",
        "label": "struct Types.OutputProposal",
        "numberOfBytes": "64",
        "members": [
          {
            "astId": 6038,
            "contract": "contracts/L1/L2OutputOracle.sol:L2OutputOracle",
            "label": "outputRoot",
            "offset": 0,
            "slot": "0",
            "type": "t_bytes32"
          },
          {
            "astId": 6040,
            "contract": "contracts/L1/L2OutputOracle.sol:L2OutputOracle",
            "label": "timestamp",
            "offset": 0,
            "slot": "1",
            "type": "t_uint256"
          }
        ]
      },
      "t_uint256": {
        "encoding": "inplace",
        "label": "uint256",
        "numberOfBytes": "32"
      },
      "t_uint8": {
        "encoding": "inplace",
        "label": "uint8",
        "numberOfBytes": "1"
      }
    }
  }
}