{
  "address": "0x73908Fe300EaCef9D750878425D857935e290703",
  "abi": [
    {
      "inputs": [
        {
          "internalType": "contract L2OutputOracle",
          "name": "_l2Oracle",
          "type": "address"
        },
        {
          "internalType": "uint256",
          "name": "_finalizationPeriodSeconds",
          "type": "uint256"
        }
      ],
      "stateMutability": "nonpayable",
      "type": "constructor"
    },
    {
      "anonymous": false,
      "inputs": [
        {
          "indexed": true,
          "internalType": "address",
          "name": "from",
          "type": "address"
        },
        {
          "indexed": true,
          "internalType": "address",
          "name": "to",
          "type": "address"
        },
        {
          "indexed": false,
          "internalType": "uint256",
          "name": "mint",
          "type": "uint256"
        },
        {
          "indexed": false,
          "internalType": "uint256",
          "name": "value",
          "type": "uint256"
        },
        {
          "indexed": false,
          "internalType": "uint64",
          "name": "gasLimit",
          "type": "uint64"
        },
        {
          "indexed": false,
          "internalType": "bool",
          "name": "isCreation",
          "type": "bool"
        },
        {
          "indexed": false,
          "internalType": "bytes",
          "name": "data",
          "type": "bytes"
        }
      ],
      "name": "TransactionDeposited",
      "type": "event"
    },
    {
      "anonymous": false,
      "inputs": [
        {
          "indexed": true,
          "internalType": "bytes32",
          "name": "withdrawalHash",
          "type": "bytes32"
        },
        {
          "indexed": false,
          "internalType": "bool",
          "name": "success",
          "type": "bool"
        }
      ],
      "name": "WithdrawalFinalized",
      "type": "event"
    },
    {
      "inputs": [],
      "name": "BASE_FEE_MAX_CHANGE_DENOMINATOR",
      "outputs": [
        {
          "internalType": "int256",
          "name": "",
          "type": "int256"
        }
      ],
      "stateMutability": "view",
      "type": "function"
    },
    {
      "inputs": [],
      "name": "ELASTICITY_MULTIPLIER",
      "outputs": [
        {
          "internalType": "int256",
          "name": "",
          "type": "int256"
        }
      ],
      "stateMutability": "view",
      "type": "function"
    },
    {
      "inputs": [],
      "name": "FINALIZATION_PERIOD_SECONDS",
      "outputs": [
        {
          "internalType": "uint256",
          "name": "",
          "type": "uint256"
        }
      ],
      "stateMutability": "view",
      "type": "function"
    },
    {
      "inputs": [],
      "name": "INITIAL_BASE_FEE",
      "outputs": [
        {
          "internalType": "uint128",
          "name": "",
          "type": "uint128"
        }
      ],
      "stateMutability": "view",
      "type": "function"
    },
    {
      "inputs": [],
      "name": "L2_ORACLE",
      "outputs": [
        {
          "internalType": "contract L2OutputOracle",
          "name": "",
          "type": "address"
        }
      ],
      "stateMutability": "view",
      "type": "function"
    },
    {
      "inputs": [],
      "name": "MAX_RESOURCE_LIMIT",
      "outputs": [
        {
          "internalType": "int256",
          "name": "",
          "type": "int256"
        }
      ],
      "stateMutability": "view",
      "type": "function"
    },
    {
      "inputs": [],
      "name": "MINIMUM_BASE_FEE",
      "outputs": [
        {
          "internalType": "int256",
          "name": "",
          "type": "int256"
        }
      ],
      "stateMutability": "view",
      "type": "function"
    },
    {
      "inputs": [],
      "name": "TARGET_RESOURCE_LIMIT",
      "outputs": [
        {
          "internalType": "int256",
          "name": "",
          "type": "int256"
        }
      ],
      "stateMutability": "view",
      "type": "function"
    },
    {
      "inputs": [
        {
          "internalType": "address",
          "name": "_to",
          "type": "address"
        },
        {
          "internalType": "uint256",
          "name": "_value",
          "type": "uint256"
        },
        {
          "internalType": "uint64",
          "name": "_gasLimit",
          "type": "uint64"
        },
        {
          "internalType": "bool",
          "name": "_isCreation",
          "type": "bool"
        },
        {
          "internalType": "bytes",
          "name": "_data",
          "type": "bytes"
        }
      ],
      "name": "depositTransaction",
      "outputs": [],
      "stateMutability": "payable",
      "type": "function"
    },
    {
      "inputs": [
        {
          "internalType": "uint256",
          "name": "_nonce",
          "type": "uint256"
        },
        {
          "internalType": "address",
          "name": "_sender",
          "type": "address"
        },
        {
          "internalType": "address",
          "name": "_target",
          "type": "address"
        },
        {
          "internalType": "uint256",
          "name": "_value",
          "type": "uint256"
        },
        {
          "internalType": "uint256",
          "name": "_gasLimit",
          "type": "uint256"
        },
        {
          "internalType": "bytes",
          "name": "_data",
          "type": "bytes"
        },
        {
          "internalType": "uint256",
          "name": "_l2Timestamp",
          "type": "uint256"
        },
        {
          "components": [
            {
              "internalType": "bytes32",
              "name": "version",
              "type": "bytes32"
            },
            {
              "internalType": "bytes32",
              "name": "stateRoot",
              "type": "bytes32"
            },
            {
              "internalType": "bytes32",
              "name": "withdrawerStorageRoot",
              "type": "bytes32"
            },
            {
              "internalType": "bytes32",
              "name": "latestBlockhash",
              "type": "bytes32"
            }
          ],
          "internalType": "struct WithdrawalVerifier.OutputRootProof",
          "name": "_outputRootProof",
          "type": "tuple"
        },
        {
          "internalType": "bytes",
          "name": "_withdrawalProof",
          "type": "bytes"
        }
      ],
      "name": "finalizeWithdrawalTransaction",
      "outputs": [],
      "stateMutability": "payable",
      "type": "function"
    },
    {
      "inputs": [
        {
          "internalType": "bytes32",
          "name": "",
          "type": "bytes32"
        }
      ],
      "name": "finalizedWithdrawals",
      "outputs": [
        {
          "internalType": "bool",
          "name": "",
          "type": "bool"
        }
      ],
      "stateMutability": "view",
      "type": "function"
    },
    {
      "inputs": [],
      "name": "l2Sender",
      "outputs": [
        {
          "internalType": "address",
          "name": "",
          "type": "address"
        }
      ],
      "stateMutability": "view",
      "type": "function"
    },
    {
      "inputs": [],
      "name": "params",
      "outputs": [
        {
          "internalType": "uint128",
          "name": "prevBaseFee",
          "type": "uint128"
        },
        {
          "internalType": "uint64",
          "name": "prevBoughtGas",
          "type": "uint64"
        },
        {
          "internalType": "uint64",
          "name": "prevBlockNum",
          "type": "uint64"
        }
      ],
      "stateMutability": "view",
      "type": "function"
    },
    {
      "stateMutability": "payable",
      "type": "receive"
    }
  ],
  "transactionHash": "0x7e8e66c2d6865ffcc5a0c05d75a6b7710fecc53e80670c9a894c4f55d3cdebf6",
  "args": [
    "0xFF747C5320cA289945F824283B39A090199EEC0E",
    2
  ],
  "numDeployments": 1,
  "bytecode": "0x60c0604052600180546001600160a01b03191661dead1790553480156200002557600080fd5b50604051620035c6380380620035c6833981016040819052620000489162000096565b60408051606081018252633b9aca00808252600060208301819052436001600160401b031692909301829052600160c01b9091021790556001600160a01b0390911660a052608052620000d2565b60008060408385031215620000aa57600080fd5b82516001600160a01b0381168114620000c257600080fd5b6020939093015192949293505050565b60805160a0516134c0620001066000396000818161011301526109ac0152600081816103580152610a2f01526134c06000f3fe6080604052600436106100d55760003560e01c8063a14238e71161007f578063cff0ab9611610059578063cff0ab961461027f578063e9e05c4214610320578063eecf1c3614610333578063f4daa2911461034657600080fd5b8063a14238e714610215578063ca3e99ba14610255578063cd7c97891461026a57600080fd5b80636bb0291e116100b05780636bb0291e146101bd578063867ead13146101d25780639bf62d82146101e857600080fd5b80621c2ff61461010157806313620abd1461015f57806364b792081461019857600080fd5b366100fc576100fa3334620186a060006040518060200160405280600081525061037a565b005b600080fd5b34801561010d57600080fd5b506101357f000000000000000000000000000000000000000000000000000000000000000081565b60405173ffffffffffffffffffffffffffffffffffffffff90911681526020015b60405180910390f35b34801561016b57600080fd5b50610177633b9aca0081565b6040516fffffffffffffffffffffffffffffffff9091168152602001610156565b3480156101a457600080fd5b506101af627a120081565b604051908152602001610156565b3480156101c957600080fd5b506101af600481565b3480156101de57600080fd5b506101af61271081565b3480156101f457600080fd5b506001546101359073ffffffffffffffffffffffffffffffffffffffff1681565b34801561022157600080fd5b50610245610230366004612bb8565b60026020526000908152604090205460ff1681565b6040519015158152602001610156565b34801561026157600080fd5b506101af61081a565b34801561027657600080fd5b506101af600881565b34801561028b57600080fd5b506000546102e7906fffffffffffffffffffffffffffffffff81169067ffffffffffffffff7001000000000000000000000000000000008204811691780100000000000000000000000000000000000000000000000090041683565b604080516fffffffffffffffffffffffffffffffff909416845267ffffffffffffffff9283166020850152911690820152606001610156565b6100fa61032e366004612c78565b61037a565b6100fa610341366004612dc2565b61082b565b34801561035257600080fd5b506101af7f000000000000000000000000000000000000000000000000000000000000000081565b8260005a905083156104315773ffffffffffffffffffffffffffffffffffffffff87161561043157604080517f08c379a00000000000000000000000000000000000000000000000000000000081526020600482015260248101919091527f4f7074696d69736d506f7274616c3a206d7573742073656e6420746f2061646460448201527f72657373283029207768656e206372656174696e67206120636f6e747261637460648201526084015b60405180910390fd5b33328114610452575033731111000000000000000000000000000000001111015b8773ffffffffffffffffffffffffffffffffffffffff168173ffffffffffffffffffffffffffffffffffffffff167f78231ae6eb73366f912bb1d64351601fb76344c537bbab635ce14d0f376f0195348a8a8a8a6040516104b7959493929190612f2d565b60405180910390a350600080546104f4907801000000000000000000000000000000000000000000000000900467ffffffffffffffff1643612f93565b9050801561067c57600061050c6004627a1200612fd9565b6000546105379190700100000000000000000000000000000000900467ffffffffffffffff16613041565b90506000600861054b6004627a1200612fd9565b60005461056b9085906fffffffffffffffffffffffffffffffff166130b5565b6105759190612fd9565b61057f9190612fd9565b60008054919250906105ca906105b4906105ac9085906fffffffffffffffffffffffffffffffff16613171565b612710610f22565b6fffffffffffffffffffffffffffffffff610f3d565b9050600184111561063d5761063a6105b4670de0b6b3a76400006106266105f2600883612fd9565b61060490670de0b6b3a7640000613041565b61060f60018a612f93565b61062190670de0b6b3a76400006131e5565b610f4c565b61063090856130b5565b6105ac9190612fd9565b90505b6fffffffffffffffffffffffffffffffff16780100000000000000000000000000000000000000000000000067ffffffffffffffff4316021760005550505b600080548491906010906106af908490700100000000000000000000000000000000900467ffffffffffffffff16613222565b92506101000a81548167ffffffffffffffff021916908367ffffffffffffffff160217905550627a12006000800160109054906101000a900467ffffffffffffffff1667ffffffffffffffff16131561078a576040517f08c379a000000000000000000000000000000000000000000000000000000000815260206004820152603c60248201527f4f7074696d69736d506f7274616c3a2063616e6e6f7420627579206d6f72652060448201527f676173207468616e20617661696c61626c6520676173206c696d6974000000006064820152608401610428565b600080546107b4906fffffffffffffffffffffffffffffffff1667ffffffffffffffff861661324e565b6fffffffffffffffffffffffffffffffff16905060006107d848633b9aca00610f7d565b6107e29083613286565b905060005a6107f19086612f93565b90508082111561080d5761080d6108088284612f93565b610f8d565b5050505050505050505050565b6108286004627a1200612fd9565b81565b60015473ffffffffffffffffffffffffffffffffffffffff1661dead146108d4576040517f08c379a000000000000000000000000000000000000000000000000000000000815260206004820152603f60248201527f4f7074696d69736d506f7274616c3a2063616e206f6e6c79207472696767657260448201527f206f6e65207769746864726177616c20706572207472616e73616374696f6e006064820152608401610428565b73ffffffffffffffffffffffffffffffffffffffff891630141561097a576040517f08c379a000000000000000000000000000000000000000000000000000000000815260206004820152603f60248201527f4f7074696d69736d506f7274616c3a20796f752063616e6e6f742073656e642060448201527f6d6573736167657320746f2074686520706f7274616c20636f6e7472616374006064820152608401610428565b6040517fa25ae557000000000000000000000000000000000000000000000000000000008152600481018590526000907f000000000000000000000000000000000000000000000000000000000000000073ffffffffffffffffffffffffffffffffffffffff169063a25ae557906024016040805180830381865afa158015610a07573d6000803e3d6000fd5b505050506040513d601f19601f82011682018060405250810190610a2b919061329a565b90507f00000000000000000000000000000000000000000000000000000000000000008160200151610a5d91906132e9565b4211610aeb576040517f08c379a000000000000000000000000000000000000000000000000000000000815260206004820152602d60248201527f4f7074696d69736d506f7274616c3a2070726f706f73616c206973206e6f742060448201527f7965742066696e616c697a6564000000000000000000000000000000000000006064820152608401610428565b610b02610afd36869003860186613301565b610fbb565b815114610b91576040517f08c379a000000000000000000000000000000000000000000000000000000000815260206004820152602960248201527f4f7074696d69736d506f7274616c3a20696e76616c6964206f7574707574207260448201527f6f6f742070726f6f6600000000000000000000000000000000000000000000006064820152608401610428565b6000610bd78d8d8d8d8d8d8d8080601f01602080910402602001604051908101604052809392919081815260200183838082843760009201919091525061101792505050565b9050610c1e81866040013586868080601f01602080910402602001604051908101604052809392919081815260200183838082843760009201919091525061105692505050565b610caa576040517f08c379a000000000000000000000000000000000000000000000000000000000815260206004820152603260248201527f4f7074696d69736d506f7274616c3a20696e76616c696420776974686472617760448201527f616c20696e636c7573696f6e2070726f6f6600000000000000000000000000006064820152608401610428565b60008181526002602052604090205460ff1615610d49576040517f08c379a000000000000000000000000000000000000000000000000000000000815260206004820152603560248201527f4f7074696d69736d506f7274616c3a207769746864726177616c20686173206160448201527f6c7265616479206265656e2066696e616c697a656400000000000000000000006064820152608401610428565b600081815260026020526040902080547fffffffffffffffffffffffffffffffffffffffffffffffffffffffffffffff00166001179055610d8c89614e206132e9565b5a1015610e1b576040517f08c379a000000000000000000000000000000000000000000000000000000000815260206004820152603760248201527f4f7074696d69736d506f7274616c3a20696e73756666696369656e742067617360448201527f20746f2066696e616c697a65207769746864726177616c0000000000000000006064820152608401610428565b600180547fffffffffffffffffffffffff00000000000000000000000000000000000000001673ffffffffffffffffffffffffffffffffffffffff8e16179055604080516020601f8a01819004810282018101909252888152600091610ea4918e918d918f918691908f908f908190840183828082843760009201919091525061111f92505050565b50600180547fffffffffffffffffffffffff00000000000000000000000000000000000000001661dead17905560405190915082907fdb5c7652857aa163daadd670e116628fb42e869d8ac4251ef8971d9e5727df1b90610f0a90841515815260200190565b60405180910390a25050505050505050505050505050565b600081831215610f325781610f34565b825b90505b92915050565b6000818312610f325781610f34565b6000610f34670de0b6b3a764000083610f64866111aa565b610f6e91906130b5565b610f789190612fd9565b6113ee565b600081831015610f325781610f34565b6000805a90505b825a610fa09083612f93565b1015610fb657610faf82613367565b9150610f94565b505050565b60008160000151826020015183604001518460600151604051602001610ffa949392919093845260208401929092526040830152606082015260800190565b604051602081830303815290604052805190602001209050919050565b6000868686868686604051602001611034969594939291906133a0565b6040516020818303038152906040528051906020012090509695505050505050565b604080516020810185905260009181018290528190606001604080517fffffffffffffffffffffffffffffffffffffffffffffffffffffffffffffffe0818403018152828252805160209182012090830181905292506111149101604080517fffffffffffffffffffffffffffffffffffffffffffffffffffffffffffffffe0818403018152828201909152600182527f0100000000000000000000000000000000000000000000000000000000000000602083015290858761162d565b9150505b9392505050565b6000606060008060008661ffff1667ffffffffffffffff81111561114557611145612bfa565b6040519080825280601f01601f19166020018201604052801561116f576020820181803683370190505b5090506000808751602089018b8e8ef191503d925086831115611190578692505b828152826000602083013e90999098509650505050505050565b6000808213611215576040517f08c379a000000000000000000000000000000000000000000000000000000000815260206004820152600960248201527f554e444546494e454400000000000000000000000000000000000000000000006044820152606401610428565b6000606061122284611651565b03609f8181039490941b90931c6c465772b2bbbb5f824b15207a3081018102606090811d6d0388eaa27412d5aca026815d636e018202811d6d0df99ac502031bf953eff472fdcc018202811d6d13cdffb29d51d99322bdff5f2211018202811d6d0a0f742023def783a307a986912e018202811d6d01920d8043ca89b5239253284e42018202811d6c0b7a86d7375468fac667a0a527016c29508e458543d8aa4df2abee7883018302821d6d0139601a2efabe717e604cbb4894018302821d6d02247f7a7b6594320649aa03aba1018302821d7fffffffffffffffffffffffffffffffffffffff73c0c716a594e00d54e3c4cbc9018302821d7ffffffffffffffffffffffffffffffffffffffdc7b88c420e53a9890533129f6f01830290911d7fffffffffffffffffffffffffffffffffffffff465fda27eb4d63ded474e5f832019091027ffffffffffffffff5f6af8f7b3396644f18e157960000000000000000000000000105711340daa0d5f769dba1915cef59f0815a5506027d0267a36c0c95b3975ab3ee5b203a7614a3f75373f047d803ae7b6687f2b393909302929092017d57115e47018c7177eebf7cd370a3356a1b7863008a5ae8028c72b88642840160ae1d92915050565b60007ffffffffffffffffffffffffffffffffffffffffffffffffdb731c958f34d94c1821361141f57506000919050565b680755bf798b4a1bf1e58212611491576040517f08c379a000000000000000000000000000000000000000000000000000000000815260206004820152600c60248201527f4558505f4f564552464c4f5700000000000000000000000000000000000000006044820152606401610428565b6503782dace9d9604e83901b059150600060606bb17217f7d1cf79abc9e3b39884821b056b80000000000000000000000001901d6bb17217f7d1cf79abc9e3b39881029093037fffffffffffffffffffffffffffffffffffffffdbf3ccf1604d263450f02a550481018102606090811d6d0277594991cfc85f6e2461837cd9018202811d7fffffffffffffffffffffffffffffffffffffe5adedaa1cb095af9e4da10e363c018202811d6db1bbb201f443cf962f1a1d3db4a5018202811d7ffffffffffffffffffffffffffffffffffffd38dc772608b0ae56cce01296c0eb018202811d6e05180bb14799ab47a8a8cb2a527d57016d02d16720577bd19bf614176fe9ea6c10fe68e7fd37d0007b713f765084018402831d9081019084017ffffffffffffffffffffffffffffffffffffffe2c69812cf03b0763fd454a8f7e010290911d6e0587f503bb6ea29d25fcb7401964500190910279d835ebba824c98fb31b83b2ca45c000000000000000000000000010574029d9dc38563c32e5c2f6dc192ee70ef65f9978af30260c3939093039290921c92915050565b60008061163986611727565b905061164781868686611759565b9695505050505050565b60008082116116bc576040517f08c379a000000000000000000000000000000000000000000000000000000000815260206004820152600960248201527f554e444546494e454400000000000000000000000000000000000000000000006044820152606401610428565b5060016fffffffffffffffffffffffffffffffff821160071b82811c67ffffffffffffffff1060061b1782811c63ffffffff1060051b1782811c61ffff1060041b1782811c60ff10600390811b90911783811c600f1060021b1783811c909110821b1791821c111790565b6060818051906020012060405160200161174391815260200190565b6040516020818303038152906040529050919050565b6000806000611769878686611796565b9150915081801561178b57508051602080830191909120875191880191909120145b979650505050505050565b6000606060006117a58561188b565b905060008060006117b7848a89611986565b815192955090935091501580806117cb5750815b611831576040517f08c379a000000000000000000000000000000000000000000000000000000000815260206004820152601a60248201527f50726f76696465642070726f6f6620697320696e76616c69642e0000000000006044820152606401610428565b60008161184d5760405180602001604052806000815250611879565b6118798661185c600188612f93565b8151811061186c5761186c6133f7565b6020026020010151611ea3565b919b919a509098505050505050505050565b6060600061189883611ecd565b90506000815167ffffffffffffffff8111156118b6576118b6612bfa565b6040519080825280602002602001820160405280156118fb57816020015b60408051808201909152606080825260208201528152602001906001900390816118d45790505b50905060005b825181101561197e57600061192e848381518110611921576119216133f7565b6020026020010151611f00565b9050604051806040016040528082815260200161194a83611ecd565b81525083838151811061195f5761195f6133f7565b602002602001018190525050808061197690613367565b915050611901565b509392505050565b6000606081808061199687611faa565b905060008690506000806119bd604051806040016040528060608152602001606081525090565b60005b8c51811015611e5f578c81815181106119db576119db6133f7565b6020026020010151915082846119f191906132e9565b93506119fe6001886132e9565b965083611a7c57815180516020909101208514611a77576040517f08c379a000000000000000000000000000000000000000000000000000000000815260206004820152601160248201527f496e76616c696420726f6f7420686173680000000000000000000000000000006044820152606401610428565b611b6d565b815151602011611af857815180516020909101208514611a77576040517f08c379a000000000000000000000000000000000000000000000000000000000815260206004820152601b60248201527f496e76616c6964206c6172676520696e7465726e616c206861736800000000006044820152606401610428565b84611b06836000015161212d565b14611b6d576040517f08c379a000000000000000000000000000000000000000000000000000000000815260206004820152601a60248201527f496e76616c696420696e7465726e616c206e6f646520686173680000000000006044820152606401610428565b611b79601060016132e9565b8260200151511415611bf2578551841415611b9357611e5f565b6000868581518110611ba757611ba76133f7565b602001015160f81c60f81b60f81c9050600083602001518260ff1681518110611bd257611bd26133f7565b60200260200101519050611be581612155565b9650600194505050611e4d565b60028260200151511415611deb576000611c0b8361218b565b9050600081600081518110611c2257611c226133f7565b016020015160f81c90506000611c39600283613426565b611c44906002613448565b90506000611c55848360ff166121af565b90506000611c638b8a6121af565b90506000611c7183836121e5565b905060ff851660021480611c88575060ff85166003145b15611cde57808351148015611c9d5750808251145b15611caf57611cac818b6132e9565b99505b507f80000000000000000000000000000000000000000000000000000000000000009950611e5f945050505050565b60ff85161580611cf1575060ff85166001145b15611d635782518114611d2d57507f80000000000000000000000000000000000000000000000000000000000000009950611e5f945050505050565b611d548860200151600181518110611d4757611d476133f7565b6020026020010151612155565b9a509750611e4d945050505050565b6040517f08c379a000000000000000000000000000000000000000000000000000000000815260206004820152602660248201527f52656365697665642061206e6f6465207769746820616e20756e6b6e6f776e2060448201527f70726566697800000000000000000000000000000000000000000000000000006064820152608401610428565b6040517f08c379a000000000000000000000000000000000000000000000000000000000815260206004820152601d60248201527f526563656976656420616e20756e706172736561626c65206e6f64652e0000006044820152606401610428565b80611e5781613367565b9150506119c0565b507f8000000000000000000000000000000000000000000000000000000000000000841486611e8e87866121af565b909e909d50909b509950505050505050505050565b60208101518051606091610f3791611ebd90600190612f93565b81518110611921576119216133f7565b604080518082018252600080825260209182015281518083019092528251825280830190820152606090610f3790612291565b60606000806000611f10856124c4565b919450925090506000816001811115611f2b57611f2b61346b565b14611f92576040517f08c379a000000000000000000000000000000000000000000000000000000000815260206004820152601860248201527f496e76616c696420524c502062797465732076616c75652e00000000000000006044820152606401610428565b611fa1856020015184846128cb565b95945050505050565b6060600082516002611fbc91906131e5565b67ffffffffffffffff811115611fd457611fd4612bfa565b6040519080825280601f01601f191660200182016040528015611ffe576020820181803683370190505b50905060005b8351811015612126576004848281518110612021576120216133f7565b01602001517fff0000000000000000000000000000000000000000000000000000000000000016901c826120568360026131e5565b81518110612066576120666133f7565b60200101907effffffffffffffffffffffffffffffffffffffffffffffffffffffffffffff1916908160001a90535060108482815181106120a9576120a96133f7565b01602001516120bb919060f81c613426565b60f81b826120ca8360026131e5565b6120d59060016132e9565b815181106120e5576120e56133f7565b60200101907effffffffffffffffffffffffffffffffffffffffffffffffffffffffffffff1916908160001a9053508061211e81613367565b915050612004565b5092915050565b600060208251101561214157506020015190565b81806020019051810190610f37919061349a565b600060606020836000015110156121765761216f836129aa565b9050612182565b61217f83611f00565b90505b6111188161212d565b6060610f376121aa8360200151600081518110611921576119216133f7565b611faa565b6060825182106121ce5750604080516020810190915260008152610f37565b610f3483838486516121e09190612f93565b6129b5565b6000805b8084511180156121f95750808351115b801561227a5750828181518110612212576122126133f7565b602001015160f81c60f81b7effffffffffffffffffffffffffffffffffffffffffffffffffffffffffffff1916848281518110612251576122516133f7565b01602001517fff0000000000000000000000000000000000000000000000000000000000000016145b15610f34578061228981613367565b9150506121e9565b606060008061229f846124c4565b919350909150600190508160018111156122bb576122bb61346b565b14612322576040517f08c379a000000000000000000000000000000000000000000000000000000000815260206004820152601760248201527f496e76616c696420524c50206c6973742076616c75652e0000000000000000006044820152606401610428565b6040805160208082526104208201909252600091816020015b604080518082019091526000808252602082015281526020019060019003908161233b5790505090506000835b86518110156124b95760208210612401576040517f08c379a000000000000000000000000000000000000000000000000000000000815260206004820152602a60248201527f50726f766964656420524c50206c6973742065786365656473206d6178206c6960448201527f7374206c656e6774682e000000000000000000000000000000000000000000006064820152608401610428565b60008061243e6040518060400160405280858c600001516124229190612f93565b8152602001858c6020015161243791906132e9565b90526124c4565b50915091506040518060400160405280838361245a91906132e9565b8152602001848b6020015161246f91906132e9565b815250858581518110612484576124846133f7565b602090810291909101015261249a6001856132e9565b93506124a681836132e9565b6124b090846132e9565b92505050612368565b508152949350505050565b600080600080846000015111612536576040517f08c379a000000000000000000000000000000000000000000000000000000000815260206004820152601860248201527f524c50206974656d2063616e6e6f74206265206e756c6c2e00000000000000006044820152606401610428565b6020840151805160001a607f811161255b5760006001600094509450945050506128c4565b60b781116125f1576000612570608083612f93565b9050808760000151116125df576040517f08c379a000000000000000000000000000000000000000000000000000000000815260206004820152601960248201527f496e76616c696420524c502073686f727420737472696e672e000000000000006044820152606401610428565b600195509350600092506128c4915050565b60bf811161271457600061260660b783612f93565b905080876000015111612675576040517f08c379a000000000000000000000000000000000000000000000000000000000815260206004820152601f60248201527f496e76616c696420524c50206c6f6e6720737472696e67206c656e6774682e006044820152606401610428565b600183015160208290036101000a900461268f81836132e9565b8851116126f8576040517f08c379a000000000000000000000000000000000000000000000000000000000815260206004820152601860248201527f496e76616c696420524c50206c6f6e6720737472696e672e00000000000000006044820152606401610428565b6127038260016132e9565b96509450600093506128c492505050565b60f781116127a957600061272960c083612f93565b905080876000015111612798576040517f08c379a000000000000000000000000000000000000000000000000000000000815260206004820152601760248201527f496e76616c696420524c502073686f7274206c6973742e0000000000000000006044820152606401610428565b6001955093508492506128c4915050565b60006127b660f783612f93565b905080876000015111612825576040517f08c379a000000000000000000000000000000000000000000000000000000000815260206004820152601d60248201527f496e76616c696420524c50206c6f6e67206c697374206c656e6774682e0000006044820152606401610428565b600183015160208290036101000a900461283f81836132e9565b8851116128a8576040517f08c379a000000000000000000000000000000000000000000000000000000000815260206004820152601660248201527f496e76616c696420524c50206c6f6e67206c6973742e000000000000000000006044820152606401610428565b6128b38260016132e9565b96509450600193506128c492505050565b9193909250565b606060008267ffffffffffffffff8111156128e8576128e8612bfa565b6040519080825280601f01601f191660200182016040528015612912576020820181803683370190505b509050805160001415612926579050611118565b600061293285876132e9565b90506020820160005b612946602087613286565b81101561297d578251825261295c6020846132e9565b92506129696020836132e9565b91508061297581613367565b91505061293b565b5060006001602087066020036101000a039050808251168119845116178252839450505050509392505050565b6060610f3782612ba2565b6060816129c381601f6132e9565b1015612a2b576040517f08c379a000000000000000000000000000000000000000000000000000000000815260206004820152600e60248201527f736c6963655f6f766572666c6f770000000000000000000000000000000000006044820152606401610428565b82612a3683826132e9565b1015612a9e576040517f08c379a000000000000000000000000000000000000000000000000000000000815260206004820152600e60248201527f736c6963655f6f766572666c6f770000000000000000000000000000000000006044820152606401610428565b612aa882846132e9565b84511015612b12576040517f08c379a000000000000000000000000000000000000000000000000000000000815260206004820152601160248201527f736c6963655f6f75744f66426f756e64730000000000000000000000000000006044820152606401610428565b606082158015612b315760405191506000825260208201604052612b99565b6040519150601f8416801560200281840101858101878315602002848b0101015b81831015612b6a578051835260209283019201612b52565b5050858452601f017fffffffffffffffffffffffffffffffffffffffffffffffffffffffffffffffe016604052505b50949350505050565b6060610f378260200151600084600001516128cb565b600060208284031215612bca57600080fd5b5035919050565b803573ffffffffffffffffffffffffffffffffffffffff81168114612bf557600080fd5b919050565b7f4e487b7100000000000000000000000000000000000000000000000000000000600052604160045260246000fd5b604051601f82017fffffffffffffffffffffffffffffffffffffffffffffffffffffffffffffffe016810167ffffffffffffffff81118282101715612c7057612c70612bfa565b604052919050565b600080600080600060a08688031215612c9057600080fd5b612c9986612bd1565b94506020808701359450604087013567ffffffffffffffff8082168214612cbf57600080fd5b9094506060880135908115158214612cd657600080fd5b90935060808801359080821115612cec57600080fd5b818901915089601f830112612d0057600080fd5b813581811115612d1257612d12612bfa565b612d42847fffffffffffffffffffffffffffffffffffffffffffffffffffffffffffffffe0601f84011601612c29565b91508082528a84828501011115612d5857600080fd5b80848401858401376000848284010152508093505050509295509295909350565b60008083601f840112612d8b57600080fd5b50813567ffffffffffffffff811115612da357600080fd5b602083019150836020828501011115612dbb57600080fd5b9250929050565b60008060008060008060008060008060006101808c8e031215612de457600080fd5b8b359a50612df460208d01612bd1565b9950612e0260408d01612bd1565b985060608c0135975060808c0135965067ffffffffffffffff60a08d01351115612e2b57600080fd5b612e3b8d60a08e01358e01612d79565b909650945060c08c0135935060808c8e037fffffffffffffffffffffffffffffffffffffffffffffffffffffffffffffff20011215612e7957600080fd5b60e08c01925067ffffffffffffffff6101608d01351115612e9957600080fd5b612eaa8d6101608e01358e01612d79565b81935080925050509295989b509295989b9093969950565b6000815180845260005b81811015612ee857602081850181015186830182015201612ecc565b81811115612efa576000602083870101525b50601f017fffffffffffffffffffffffffffffffffffffffffffffffffffffffffffffffe0169290920160200192915050565b85815284602082015267ffffffffffffffff84166040820152821515606082015260a06080820152600061178b60a0830184612ec2565b7f4e487b7100000000000000000000000000000000000000000000000000000000600052601160045260246000fd5b600082821015612fa557612fa5612f64565b500390565b7f4e487b7100000000000000000000000000000000000000000000000000000000600052601260045260246000fd5b600082612fe857612fe8612faa565b7fffffffffffffffffffffffffffffffffffffffffffffffffffffffffffffffff83147f80000000000000000000000000000000000000000000000000000000000000008314161561303c5761303c612f64565b500590565b6000808312837f80000000000000000000000000000000000000000000000000000000000000000183128115161561307b5761307b612f64565b837f7fffffffffffffffffffffffffffffffffffffffffffffffffffffffffffffff0183138116156130af576130af612f64565b50500390565b60007f7fffffffffffffffffffffffffffffffffffffffffffffffffffffffffffffff6000841360008413858304851182821616156130f6576130f6612f64565b7f8000000000000000000000000000000000000000000000000000000000000000600087128682058812818416161561313157613131612f64565b6000871292508782058712848416161561314d5761314d612f64565b8785058712818416161561316357613163612f64565b505050929093029392505050565b6000808212827f7fffffffffffffffffffffffffffffffffffffffffffffffffffffffffffffff038413811516156131ab576131ab612f64565b827f80000000000000000000000000000000000000000000000000000000000000000384128116156131df576131df612f64565b50500190565b6000817fffffffffffffffffffffffffffffffffffffffffffffffffffffffffffffffff048311821515161561321d5761321d612f64565b500290565b600067ffffffffffffffff80831681851680830382111561324557613245612f64565b01949350505050565b60006fffffffffffffffffffffffffffffffff8083168185168183048111821515161561327d5761327d612f64565b02949350505050565b60008261329557613295612faa565b500490565b6000604082840312156132ac57600080fd5b6040516040810181811067ffffffffffffffff821117156132cf576132cf612bfa565b604052825181526020928301519281019290925250919050565b600082198211156132fc576132fc612f64565b500190565b60006080828403121561331357600080fd5b6040516080810181811067ffffffffffffffff8211171561333657613336612bfa565b8060405250823581526020830135602082015260408301356040820152606083013560608201528091505092915050565b60007fffffffffffffffffffffffffffffffffffffffffffffffffffffffffffffffff82141561339957613399612f64565b5060010190565b868152600073ffffffffffffffffffffffffffffffffffffffff808816602084015280871660408401525084606083015283608083015260c060a08301526133eb60c0830184612ec2565b98975050505050505050565b7f4e487b7100000000000000000000000000000000000000000000000000000000600052603260045260246000fd5b600060ff83168061343957613439612faa565b8060ff84160691505092915050565b600060ff821660ff84168082101561346257613462612f64565b90039392505050565b7f4e487b7100000000000000000000000000000000000000000000000000000000600052602160045260246000fd5b6000602082840312156134ac57600080fd5b505191905056fea164736f6c634300080a000a"
}