{
  "address": "0xF516Fa87f89E4AC7C299aE28263e9EB851dE4781",
  "abi": [
    {
      "inputs": [
        {
          "internalType": "address",
          "name": "_bridge",
          "type": "address"
        }
      ],
      "stateMutability": "nonpayable",
      "type": "constructor"
    },
    {
      "anonymous": false,
      "inputs": [
        {
          "indexed": true,
          "internalType": "address",
          "name": "localToken",
          "type": "address"
        },
        {
          "indexed": true,
          "internalType": "address",
          "name": "remoteToken",
          "type": "address"
        },
        {
          "indexed": false,
          "internalType": "address",
          "name": "deployer",
          "type": "address"
        }
      ],
      "name": "OptimismMintableERC20Created",
      "type": "event"
    },
    {
      "anonymous": false,
      "inputs": [
        {
          "indexed": true,
          "internalType": "address",
          "name": "remoteToken",
          "type": "address"
        },
        {
          "indexed": true,
          "internalType": "address",
          "name": "localToken",
          "type": "address"
        }
      ],
      "name": "StandardL2TokenCreated",
      "type": "event"
    },
    {
      "inputs": [],
      "name": "BRIDGE",
      "outputs": [
        {
          "internalType": "address",
          "name": "",
          "type": "address"
        }
      ],
      "stateMutability": "view",
      "type": "function"
    },
    {
      "inputs": [
        {
          "internalType": "address",
          "name": "_remoteToken",
          "type": "address"
        },
        {
          "internalType": "string",
          "name": "_name",
          "type": "string"
        },
        {
          "internalType": "string",
          "name": "_symbol",
          "type": "string"
        }
      ],
      "name": "createOptimismMintableERC20",
      "outputs": [
        {
          "internalType": "address",
          "name": "",
          "type": "address"
        }
      ],
      "stateMutability": "nonpayable",
      "type": "function"
    },
    {
      "inputs": [
        {
          "internalType": "address",
          "name": "_remoteToken",
          "type": "address"
        },
        {
          "internalType": "string",
          "name": "_name",
          "type": "string"
        },
        {
          "internalType": "string",
          "name": "_symbol",
          "type": "string"
        }
      ],
      "name": "createStandardL2Token",
      "outputs": [
        {
          "internalType": "address",
          "name": "",
          "type": "address"
        }
      ],
      "stateMutability": "nonpayable",
      "type": "function"
    },
    {
      "inputs": [],
      "name": "version",
      "outputs": [
        {
          "internalType": "string",
          "name": "",
          "type": "string"
        }
      ],
      "stateMutability": "view",
      "type": "function"
    }
  ],
  "transactionHash": "0x08686fd304823b68bf7c1b9bfb4a44ced82f3360a71ef0163c7950ef29c62d29",
  "args": [
    "0x636Af16bf2f682dD3109e60102b8E1A089FedAa8"
  ],
  "numDeployments": 1,
  "solcInputHash": "1488cae0dec1a45bfa23bc28dafed7e1",
  "bytecode": "0x61010060405234801561001157600080fd5b5060405161243538038061243583398101604081905261003091610050565b6001608081905260a052600060c0526001600160a01b031660e052610080565b60006020828403121561006257600080fd5b81516001600160a01b038116811461007957600080fd5b9392505050565b60805160a05160c05160e0516123776100be6000396000818160d3015261026501526000610153015260006101280152600060fd01526123776000f3fe60806040523480156200001157600080fd5b5060043610620000525760003560e01c806354fd4d501462000057578063896f93d11462000079578063ce5ac90f14620000b6578063ee9a31a214620000cd575b600080fd5b62000061620000f5565b60405162000070919062000550565b60405180910390f35b620000906200008a3660046200064e565b620001a0565b60405173ffffffffffffffffffffffffffffffffffffffff909116815260200162000070565b62000090620000c73660046200064e565b620001b7565b620000907f000000000000000000000000000000000000000000000000000000000000000081565b6060620001227f000000000000000000000000000000000000000000000000000000000000000062000376565b6200014d7f000000000000000000000000000000000000000000000000000000000000000062000376565b620001787f000000000000000000000000000000000000000000000000000000000000000062000376565b6040516020016200018c93929190620006e5565b604051602081830303815290604052905090565b6000620001af848484620001b7565b949350505050565b600073ffffffffffffffffffffffffffffffffffffffff841662000261576040517f08c379a000000000000000000000000000000000000000000000000000000000815260206004820152603f60248201527f4f7074696d69736d4d696e7461626c654552433230466163746f72793a206d7560448201527f73742070726f766964652072656d6f746520746f6b656e206164647265737300606482015260840160405180910390fd5b60007f00000000000000000000000000000000000000000000000000000000000000008585856040516200029590620004c3565b620002a4949392919062000761565b604051809103906000f080158015620002c1573d6000803e3d6000fd5b5090508073ffffffffffffffffffffffffffffffffffffffff168573ffffffffffffffffffffffffffffffffffffffff167fceeb8e7d520d7f3b65fc11a262b91066940193b05d4f93df07cfdced0eb551cf60405160405180910390a360405133815273ffffffffffffffffffffffffffffffffffffffff80871691908316907f52fe89dd5930f343d25650b62fd367bae47088bcddffd2a88350a6ecdd620cdb9060200160405180910390a3949350505050565b606081600003620003ba57505060408051808201909152600181527f3000000000000000000000000000000000000000000000000000000000000000602082015290565b8160005b8115620003ea5780620003d181620007ea565b9150620003e29050600a8362000854565b9150620003be565b60008167ffffffffffffffff8111156200040857620004086200056c565b6040519080825280601f01601f19166020018201604052801562000433576020820181803683370190505b5090505b8415620001af576200044b6001836200086b565b91506200045a600a8662000885565b620004679060306200089c565b60f81b8183815181106200047f576200047f620008b7565b60200101907effffffffffffffffffffffffffffffffffffffffffffffffffffffffffffff1916908160001a905350620004bb600a8662000854565b945062000437565b611a8480620008e783390190565b60005b83811015620004ee578181015183820152602001620004d4565b83811115620004fe576000848401525b50505050565b600081518084526200051e816020860160208601620004d1565b601f017fffffffffffffffffffffffffffffffffffffffffffffffffffffffffffffffe0169290920160200192915050565b60208152600062000565602083018462000504565b9392505050565b7f4e487b7100000000000000000000000000000000000000000000000000000000600052604160045260246000fd5b600082601f830112620005ad57600080fd5b813567ffffffffffffffff80821115620005cb57620005cb6200056c565b604051601f83017fffffffffffffffffffffffffffffffffffffffffffffffffffffffffffffffe0908116603f011681019082821181831017156200061457620006146200056c565b816040528381528660208588010111156200062e57600080fd5b836020870160208301376000602085830101528094505050505092915050565b6000806000606084860312156200066457600080fd5b833573ffffffffffffffffffffffffffffffffffffffff811681146200068957600080fd5b9250602084013567ffffffffffffffff80821115620006a757600080fd5b620006b5878388016200059b565b93506040860135915080821115620006cc57600080fd5b50620006db868287016200059b565b9150509250925092565b60008451620006f9818460208901620004d1565b80830190507f2e00000000000000000000000000000000000000000000000000000000000000808252855162000737816001850160208a01620004d1565b6001920191820152835162000754816002840160208801620004d1565b0160020195945050505050565b600073ffffffffffffffffffffffffffffffffffffffff8087168352808616602084015250608060408301526200079c608083018562000504565b8281036060840152620007b0818562000504565b979650505050505050565b7f4e487b7100000000000000000000000000000000000000000000000000000000600052601160045260246000fd5b60007fffffffffffffffffffffffffffffffffffffffffffffffffffffffffffffffff82036200081e576200081e620007bb565b5060010190565b7f4e487b7100000000000000000000000000000000000000000000000000000000600052601260045260246000fd5b60008262000866576200086662000825565b500490565b600082821015620008805762000880620007bb565b500390565b60008262000897576200089762000825565b500690565b60008219821115620008b257620008b2620007bb565b500190565b7f4e487b7100000000000000000000000000000000000000000000000000000000600052603260045260246000fdfe6101206040523480156200001257600080fd5b5060405162001a8438038062001a8483398101604081905262000035916200016d565b6001600080848460036200004a83826200028c565b5060046200005982826200028c565b50505060809290925260a05260c05250506001600160a01b0390811660e052166101005262000358565b80516001600160a01b03811681146200009b57600080fd5b919050565b634e487b7160e01b600052604160045260246000fd5b600082601f830112620000c857600080fd5b81516001600160401b0380821115620000e557620000e5620000a0565b604051601f8301601f19908116603f01168101908282118183101715620001105762000110620000a0565b816040528381526020925086838588010111156200012d57600080fd5b600091505b8382101562000151578582018301518183018401529082019062000132565b83821115620001635760008385830101525b9695505050505050565b600080600080608085870312156200018457600080fd5b6200018f8562000083565b93506200019f6020860162000083565b60408601519093506001600160401b0380821115620001bd57600080fd5b620001cb88838901620000b6565b93506060870151915080821115620001e257600080fd5b50620001f187828801620000b6565b91505092959194509250565b600181811c908216806200021257607f821691505b6020821081036200023357634e487b7160e01b600052602260045260246000fd5b50919050565b601f8211156200028757600081815260208120601f850160051c81016020861015620002625750805b601f850160051c820191505b8181101562000283578281556001016200026e565b5050505b505050565b81516001600160401b03811115620002a857620002a8620000a0565b620002c081620002b98454620001fd565b8462000239565b602080601f831160018114620002f85760008415620002df5750858301515b600019600386901b1c1916600185901b17855562000283565b600085815260208120601f198616915b82811015620003295788860151825594840194600190910190840162000308565b5085821015620003485787850151600019600388901b60f8161c191681555b5050505050600190811b01905550565b60805160a05160c05160e051610100516116cb620003b9600039600081816102f50152818161038a015281816105cf01526107a90152600081816101a9015261031b015260006107380152600061070f015260006106e601526116cb6000f3fe608060405234801561001057600080fd5b50600436106101775760003560e01c806370a08231116100d8578063ae1f6aaf1161008c578063dd62ed3e11610066578063dd62ed3e1461033f578063e78cea92146102f3578063ee9a31a21461038557600080fd5b8063ae1f6aaf146102f3578063c01e1bd614610319578063d6c0b2c41461031957600080fd5b80639dc29fac116100bd5780639dc29fac146102ba578063a457c2d7146102cd578063a9059cbb146102e057600080fd5b806370a082311461027c57806395d89b41146102b257600080fd5b806323b872dd1161012f5780633950935111610114578063395093511461024c57806340c10f191461025f57806354fd4d501461027457600080fd5b806323b872dd1461022a578063313ce5671461023d57600080fd5b806306fdde031161016057806306fdde03146101f0578063095ea7b31461020557806318160ddd1461021857600080fd5b806301ffc9a71461017c578063033964be146101a4575b600080fd5b61018f61018a366004611307565b6103ac565b60405190151581526020015b60405180910390f35b6101cb7f000000000000000000000000000000000000000000000000000000000000000081565b60405173ffffffffffffffffffffffffffffffffffffffff909116815260200161019b565b6101f861049d565b60405161019b919061137c565b61018f6102133660046113f6565b61052f565b6002545b60405190815260200161019b565b61018f610238366004611420565b610547565b6040516012815260200161019b565b61018f61025a3660046113f6565b61056b565b61027261026d3660046113f6565b6105b7565b005b6101f86106df565b61021c61028a36600461145c565b73ffffffffffffffffffffffffffffffffffffffff1660009081526020819052604090205490565b6101f8610782565b6102726102c83660046113f6565b610791565b61018f6102db3660046113f6565b6108a8565b61018f6102ee3660046113f6565b610979565b7f00000000000000000000000000000000000000000000000000000000000000006101cb565b7f00000000000000000000000000000000000000000000000000000000000000006101cb565b61021c61034d366004611477565b73ffffffffffffffffffffffffffffffffffffffff918216600090815260016020908152604080832093909416825291909152205490565b6101cb7f000000000000000000000000000000000000000000000000000000000000000081565b60007f01ffc9a7000000000000000000000000000000000000000000000000000000007f1d1d8b63000000000000000000000000000000000000000000000000000000007fec4fc8e3000000000000000000000000000000000000000000000000000000007fffffffff00000000000000000000000000000000000000000000000000000000851683148061046557507fffffffff00000000000000000000000000000000000000000000000000000000858116908316145b8061049457507fffffffff00000000000000000000000000000000000000000000000000000000858116908216145b95945050505050565b6060600380546104ac906114aa565b80601f01602080910402602001604051908101604052809291908181526020018280546104d8906114aa565b80156105255780601f106104fa57610100808354040283529160200191610525565b820191906000526020600020905b81548152906001019060200180831161050857829003601f168201915b5050505050905090565b60003361053d818585610987565b5060019392505050565b600033610555858285610b3b565b610560858585610c12565b506001949350505050565b33600081815260016020908152604080832073ffffffffffffffffffffffffffffffffffffffff8716845290915281205490919061053d90829086906105b290879061152c565b610987565b3373ffffffffffffffffffffffffffffffffffffffff7f00000000000000000000000000000000000000000000000000000000000000001614610681576040517f08c379a000000000000000000000000000000000000000000000000000000000815260206004820152603460248201527f4f7074696d69736d4d696e7461626c6545524332303a206f6e6c79206272696460448201527f67652063616e206d696e7420616e64206275726e00000000000000000000000060648201526084015b60405180910390fd5b61068b8282610ec5565b8173ffffffffffffffffffffffffffffffffffffffff167f0f6798a560793a54c3bcfe86a93cde1e73087d944c0ea20544137d4121396885826040516106d391815260200190565b60405180910390a25050565b606061070a7f0000000000000000000000000000000000000000000000000000000000000000610fe5565b6107337f0000000000000000000000000000000000000000000000000000000000000000610fe5565b61075c7f0000000000000000000000000000000000000000000000000000000000000000610fe5565b60405160200161076e93929190611544565b604051602081830303815290604052905090565b6060600480546104ac906114aa565b3373ffffffffffffffffffffffffffffffffffffffff7f00000000000000000000000000000000000000000000000000000000000000001614610856576040517f08c379a000000000000000000000000000000000000000000000000000000000815260206004820152603460248201527f4f7074696d69736d4d696e7461626c6545524332303a206f6e6c79206272696460448201527f67652063616e206d696e7420616e64206275726e0000000000000000000000006064820152608401610678565b6108608282611122565b8173ffffffffffffffffffffffffffffffffffffffff167fcc16f5dbb4873280815c1ee09dbd06736cffcc184412cf7a71a0fdb75d397ca5826040516106d391815260200190565b33600081815260016020908152604080832073ffffffffffffffffffffffffffffffffffffffff871684529091528120549091908381101561096c576040517f08c379a000000000000000000000000000000000000000000000000000000000815260206004820152602560248201527f45524332303a2064656372656173656420616c6c6f77616e63652062656c6f7760448201527f207a65726f0000000000000000000000000000000000000000000000000000006064820152608401610678565b6105608286868403610987565b60003361053d818585610c12565b73ffffffffffffffffffffffffffffffffffffffff8316610a29576040517f08c379a0000000000000000000000000000000000000000000000000000000008152602060048201526024808201527f45524332303a20617070726f76652066726f6d20746865207a65726f2061646460448201527f72657373000000000000000000000000000000000000000000000000000000006064820152608401610678565b73ffffffffffffffffffffffffffffffffffffffff8216610acc576040517f08c379a000000000000000000000000000000000000000000000000000000000815260206004820152602260248201527f45524332303a20617070726f766520746f20746865207a65726f20616464726560448201527f73730000000000000000000000000000000000000000000000000000000000006064820152608401610678565b73ffffffffffffffffffffffffffffffffffffffff83811660008181526001602090815260408083209487168084529482529182902085905590518481527f8c5be1e5ebec7d5bd14f71427d1e84f3dd0314c0f7b2291e5b200ac8c7c3b92591015b60405180910390a3505050565b73ffffffffffffffffffffffffffffffffffffffff8381166000908152600160209081526040808320938616835292905220547fffffffffffffffffffffffffffffffffffffffffffffffffffffffffffffffff8114610c0c5781811015610bff576040517f08c379a000000000000000000000000000000000000000000000000000000000815260206004820152601d60248201527f45524332303a20696e73756666696369656e7420616c6c6f77616e63650000006044820152606401610678565b610c0c8484848403610987565b50505050565b73ffffffffffffffffffffffffffffffffffffffff8316610cb5576040517f08c379a000000000000000000000000000000000000000000000000000000000815260206004820152602560248201527f45524332303a207472616e736665722066726f6d20746865207a65726f20616460448201527f64726573730000000000000000000000000000000000000000000000000000006064820152608401610678565b73ffffffffffffffffffffffffffffffffffffffff8216610d58576040517f08c379a000000000000000000000000000000000000000000000000000000000815260206004820152602360248201527f45524332303a207472616e7366657220746f20746865207a65726f206164647260448201527f65737300000000000000000000000000000000000000000000000000000000006064820152608401610678565b73ffffffffffffffffffffffffffffffffffffffff831660009081526020819052604090205481811015610e0e576040517f08c379a000000000000000000000000000000000000000000000000000000000815260206004820152602660248201527f45524332303a207472616e7366657220616d6f756e742065786365656473206260448201527f616c616e636500000000000000000000000000000000000000000000000000006064820152608401610678565b73ffffffffffffffffffffffffffffffffffffffff808516600090815260208190526040808220858503905591851681529081208054849290610e5290849061152c565b925050819055508273ffffffffffffffffffffffffffffffffffffffff168473ffffffffffffffffffffffffffffffffffffffff167fddf252ad1be2c89b69c2b068fc378daa952ba7f163c4a11628f55a4df523b3ef84604051610eb891815260200190565b60405180910390a3610c0c565b73ffffffffffffffffffffffffffffffffffffffff8216610f42576040517f08c379a000000000000000000000000000000000000000000000000000000000815260206004820152601f60248201527f45524332303a206d696e7420746f20746865207a65726f2061646472657373006044820152606401610678565b8060026000828254610f54919061152c565b909155505073ffffffffffffffffffffffffffffffffffffffff821660009081526020819052604081208054839290610f8e90849061152c565b909155505060405181815273ffffffffffffffffffffffffffffffffffffffff8316906000907fddf252ad1be2c89b69c2b068fc378daa952ba7f163c4a11628f55a4df523b3ef9060200160405180910390a35050565b60608160000361102857505060408051808201909152600181527f3000000000000000000000000000000000000000000000000000000000000000602082015290565b8160005b8115611052578061103c816115ba565b915061104b9050600a83611621565b915061102c565b60008167ffffffffffffffff81111561106d5761106d611635565b6040519080825280601f01601f191660200182016040528015611097576020820181803683370190505b5090505b841561111a576110ac600183611664565b91506110b9600a8661167b565b6110c490603061152c565b60f81b8183815181106110d9576110d961168f565b60200101907effffffffffffffffffffffffffffffffffffffffffffffffffffffffffffff1916908160001a905350611113600a86611621565b945061109b565b949350505050565b73ffffffffffffffffffffffffffffffffffffffff82166111c5576040517f08c379a000000000000000000000000000000000000000000000000000000000815260206004820152602160248201527f45524332303a206275726e2066726f6d20746865207a65726f2061646472657360448201527f73000000000000000000000000000000000000000000000000000000000000006064820152608401610678565b73ffffffffffffffffffffffffffffffffffffffff82166000908152602081905260409020548181101561127b576040517f08c379a000000000000000000000000000000000000000000000000000000000815260206004820152602260248201527f45524332303a206275726e20616d6f756e7420657863656564732062616c616e60448201527f63650000000000000000000000000000000000000000000000000000000000006064820152608401610678565b73ffffffffffffffffffffffffffffffffffffffff831660009081526020819052604081208383039055600280548492906112b7908490611664565b909155505060405182815260009073ffffffffffffffffffffffffffffffffffffffff8516907fddf252ad1be2c89b69c2b068fc378daa952ba7f163c4a11628f55a4df523b3ef90602001610b2e565b60006020828403121561131957600080fd5b81357fffffffff000000000000000000000000000000000000000000000000000000008116811461134957600080fd5b9392505050565b60005b8381101561136b578181015183820152602001611353565b83811115610c0c5750506000910152565b602081526000825180602084015261139b816040850160208701611350565b601f017fffffffffffffffffffffffffffffffffffffffffffffffffffffffffffffffe0169190910160400192915050565b803573ffffffffffffffffffffffffffffffffffffffff811681146113f157600080fd5b919050565b6000806040838503121561140957600080fd5b611412836113cd565b946020939093013593505050565b60008060006060848603121561143557600080fd5b61143e846113cd565b925061144c602085016113cd565b9150604084013590509250925092565b60006020828403121561146e57600080fd5b611349826113cd565b6000806040838503121561148a57600080fd5b611493836113cd565b91506114a1602084016113cd565b90509250929050565b600181811c908216806114be57607f821691505b6020821081036114f7577f4e487b7100000000000000000000000000000000000000000000000000000000600052602260045260246000fd5b50919050565b7f4e487b7100000000000000000000000000000000000000000000000000000000600052601160045260246000fd5b6000821982111561153f5761153f6114fd565b500190565b60008451611556818460208901611350565b80830190507f2e000000000000000000000000000000000000000000000000000000000000008082528551611592816001850160208a01611350565b600192019182015283516115ad816002840160208801611350565b0160020195945050505050565b60007fffffffffffffffffffffffffffffffffffffffffffffffffffffffffffffffff82036115eb576115eb6114fd565b5060010190565b7f4e487b7100000000000000000000000000000000000000000000000000000000600052601260045260246000fd5b600082611630576116306115f2565b500490565b7f4e487b7100000000000000000000000000000000000000000000000000000000600052604160045260246000fd5b600082821015611676576116766114fd565b500390565b60008261168a5761168a6115f2565b500690565b7f4e487b7100000000000000000000000000000000000000000000000000000000600052603260045260246000fdfea164736f6c634300080f000aa164736f6c634300080f000a",
  "devdoc": {
    "version": 1,
    "kind": "dev",
    "methods": {
      "constructor": {
        "params": {
          "_bridge": "Address of the StandardBridge on this chain."
        }
      },
      "createOptimismMintableERC20(address,string,string)": {
        "params": {
          "_name": "ERC20 name.",
          "_remoteToken": "Address of the token on the remote chain.",
          "_symbol": "ERC20 symbol."
        },
        "returns": {
          "_0": "Address of the newly created token."
        }
      },
      "createStandardL2Token(address,string,string)": {
        "params": {
          "_name": "ERC20 name.",
          "_remoteToken": "Address of the token on the remote chain.",
          "_symbol": "ERC20 symbol."
        },
        "returns": {
          "_0": "Address of the newly created token."
        }
      },
      "version()": {
        "returns": {
          "_0": "Semver contract version as a string."
        }
      }
    },
    "events": {
      "OptimismMintableERC20Created(address,address,address)": {
        "params": {
          "deployer": "Address of the account that deployed the token.",
          "localToken": "Address of the created token on the local chain.",
          "remoteToken": "Address of the corresponding token on the remote chain."
        }
      },
      "StandardL2TokenCreated(address,address)": {
        "params": {
          "localToken": "Address of the created token on the local chain.",
          "remoteToken": "Address of the token on the remote chain."
        }
      }
    },
    "title": "OptimismMintableERC20Factory"
  },
  "userdoc": {
    "version": 1,
    "kind": "user",
    "methods": {
      "BRIDGE()": {
        "notice": "Address of the StandardBridge on this chain."
      },
      "constructor": {
        "notice": "The semver MUST be bumped any time that there is a change in         the OptimismMintableERC20 token contract since this contract         is responsible for deploying OptimismMintableERC20 contracts."
      },
      "createOptimismMintableERC20(address,string,string)": {
        "notice": "Creates an instance of the OptimismMintableERC20 contract."
      },
      "version()": {
        "notice": "Returns the full semver contract version."
      }
    },
    "events": {
      "OptimismMintableERC20Created(address,address,address)": {
        "notice": "Emitted whenever a new OptimismMintableERC20 is created."
      }
    },
    "notice": "OptimismMintableERC20Factory is a factory contract that generates OptimismMintableERC20         contracts on the network it's deployed to. Simplifies the deployment process for users         who may be less familiar with deploying smart contracts. Designed to be backwards         compatible with the older StandardL2ERC20Factory contract."
  }
}