{
  "address": "0xa3779B51957E2d7C4fF5cCC9a98e27f474715259",
  "abi": [
    {
      "inputs": [
        {
          "internalType": "address",
          "name": "_bridge",
          "type": "address"
        }
      ],
      "stateMutability": "nonpayable",
      "type": "constructor"
    },
    {
      "anonymous": false,
      "inputs": [
        {
          "indexed": true,
          "internalType": "address",
          "name": "localToken",
          "type": "address"
        },
        {
          "indexed": true,
          "internalType": "address",
          "name": "remoteToken",
          "type": "address"
        },
        {
          "indexed": false,
          "internalType": "address",
          "name": "deployer",
          "type": "address"
        }
      ],
      "name": "OptimismMintableERC20Created",
      "type": "event"
    },
    {
      "anonymous": false,
      "inputs": [
        {
          "indexed": true,
          "internalType": "address",
          "name": "remoteToken",
          "type": "address"
        },
        {
          "indexed": true,
          "internalType": "address",
          "name": "localToken",
          "type": "address"
        }
      ],
      "name": "StandardL2TokenCreated",
      "type": "event"
    },
    {
      "inputs": [],
      "name": "bridge",
      "outputs": [
        {
          "internalType": "address",
          "name": "",
          "type": "address"
        }
      ],
      "stateMutability": "view",
      "type": "function"
    },
    {
      "inputs": [
        {
          "internalType": "address",
          "name": "_remoteToken",
          "type": "address"
        },
        {
          "internalType": "string",
          "name": "_name",
          "type": "string"
        },
        {
          "internalType": "string",
          "name": "_symbol",
          "type": "string"
        }
      ],
      "name": "createOptimismMintableERC20",
      "outputs": [
        {
          "internalType": "address",
          "name": "",
          "type": "address"
        }
      ],
      "stateMutability": "nonpayable",
      "type": "function"
    },
    {
      "inputs": [
        {
          "internalType": "address",
          "name": "_remoteToken",
          "type": "address"
        },
        {
          "internalType": "string",
          "name": "_name",
          "type": "string"
        },
        {
          "internalType": "string",
          "name": "_symbol",
          "type": "string"
        }
      ],
      "name": "createStandardL2Token",
      "outputs": [
        {
          "internalType": "address",
          "name": "",
          "type": "address"
        }
      ],
      "stateMutability": "nonpayable",
      "type": "function"
    }
  ],
  "transactionHash": "0x35e1fe2747f27525935544062c9830b43a4e907039f34580ba9e47d7f0d91af6",
  "args": [
    "0xbAF53c358472BeAe0B29842753D812e10000F7A1"
  ],
  "numDeployments": 1,
  "solcInputHash": "98b32181dddcc211ecf20a0f8159da6d",
  "bytecode": "0x60a060405234801561001057600080fd5b50604051611b43380380611b4383398101604081905261002f91610040565b6001600160a01b0316608052610070565b60006020828403121561005257600080fd5b81516001600160a01b038116811461006957600080fd5b9392505050565b608051611ab261009160003960008181609a015261017e0152611ab26000f3fe608060405234801561001057600080fd5b50600436106100415760003560e01c8063896f93d114610046578063ce5ac90f14610082578063e78cea9214610095575b600080fd5b610059610054366004610371565b6100bc565b60405173ffffffffffffffffffffffffffffffffffffffff909116815260200160405180910390f35b610059610090366004610371565b6100d1565b6100597f000000000000000000000000000000000000000000000000000000000000000081565b60006100c98484846100d1565b949350505050565b600073ffffffffffffffffffffffffffffffffffffffff841661017a576040517f08c379a000000000000000000000000000000000000000000000000000000000815260206004820152603f60248201527f4f7074696d69736d4d696e7461626c654552433230466163746f72793a206d7560448201527f73742070726f766964652072656d6f746520746f6b656e206164647265737300606482015260840160405180910390fd5b60007f00000000000000000000000000000000000000000000000000000000000000008585856040516101ac9061028a565b6101b9949392919061046b565b604051809103906000f0801580156101d5573d6000803e3d6000fd5b5090508073ffffffffffffffffffffffffffffffffffffffff168573ffffffffffffffffffffffffffffffffffffffff167fceeb8e7d520d7f3b65fc11a262b91066940193b05d4f93df07cfdced0eb551cf60405160405180910390a360405133815273ffffffffffffffffffffffffffffffffffffffff80831691908716907f52fe89dd5930f343d25650b62fd367bae47088bcddffd2a88350a6ecdd620cdb9060200160405180910390a3949350505050565b6115e4806104c283390190565b7f4e487b7100000000000000000000000000000000000000000000000000000000600052604160045260246000fd5b600082601f8301126102d757600080fd5b813567ffffffffffffffff808211156102f2576102f2610297565b604051601f83017fffffffffffffffffffffffffffffffffffffffffffffffffffffffffffffffe0908116603f0116810190828211818310171561033857610338610297565b8160405283815286602085880101111561035157600080fd5b836020870160208301376000602085830101528094505050505092915050565b60008060006060848603121561038657600080fd5b833573ffffffffffffffffffffffffffffffffffffffff811681146103aa57600080fd5b9250602084013567ffffffffffffffff808211156103c757600080fd5b6103d3878388016102c6565b935060408601359150808211156103e957600080fd5b506103f6868287016102c6565b9150509250925092565b6000815180845260005b818110156104265760208185018101518683018201520161040a565b81811115610438576000602083870101525b50601f017fffffffffffffffffffffffffffffffffffffffffffffffffffffffffffffffe0169290920160200192915050565b600073ffffffffffffffffffffffffffffffffffffffff8087168352808616602084015250608060408301526104a46080830185610400565b82810360608401526104b68185610400565b97965050505050505056fe60806040523480156200001157600080fd5b50604051620015e4380380620015e483398101604081905262000034916200022f565b8151829082906200004d9060039060208501906200009f565b508051620000639060049060208401906200009f565b5050600580546001600160a01b039586166001600160a01b031991821617909155600680549690951695169490941790925550620002fc915050565b828054620000ad90620002bf565b90600052602060002090601f016020900481019282620000d157600085556200011c565b82601f10620000ec57805160ff19168380011785556200011c565b828001600101855582156200011c579182015b828111156200011c578251825591602001919060010190620000ff565b506200012a9291506200012e565b5090565b5b808211156200012a57600081556001016200012f565b80516001600160a01b03811681146200015d57600080fd5b919050565b634e487b7160e01b600052604160045260246000fd5b600082601f8301126200018a57600080fd5b81516001600160401b0380821115620001a757620001a762000162565b604051601f8301601f19908116603f01168101908282118183101715620001d257620001d262000162565b81604052838152602092508683858801011115620001ef57600080fd5b600091505b83821015620002135785820183015181830184015290820190620001f4565b83821115620002255760008385830101525b9695505050505050565b600080600080608085870312156200024657600080fd5b620002518562000145565b9350620002616020860162000145565b60408601519093506001600160401b03808211156200027f57600080fd5b6200028d8883890162000178565b93506060870151915080821115620002a457600080fd5b50620002b38782880162000178565b91505092959194509250565b600181811c90821680620002d457607f821691505b60208210811415620002f657634e487b7160e01b600052602260045260246000fd5b50919050565b6112d8806200030c6000396000f3fe608060405234801561001057600080fd5b50600436106101365760003560e01c806395d89b41116100b2578063ae1f6aaf11610081578063d6c0b2c411610066578063d6c0b2c4146102bb578063dd62ed3e146102db578063e78cea921461032157600080fd5b8063ae1f6aaf1461025e578063c01e1bd61461029d57600080fd5b806395d89b411461021d5780639dc29fac14610225578063a457c2d714610238578063a9059cbb1461024b57600080fd5b806323b872dd1161010957806339509351116100ee57806339509351146101bf57806340c10f19146101d257806370a08231146101e757600080fd5b806323b872dd1461019d578063313ce567146101b057600080fd5b806301ffc9a71461013b57806306fdde0314610163578063095ea7b31461017857806318160ddd1461018b575b600080fd5b61014e610149366004611080565b610341565b60405190151581526020015b60405180910390f35b61016b610432565b60405161015a91906110c9565b61014e610186366004611165565b6104c4565b6002545b60405190815260200161015a565b61014e6101ab36600461118f565b6104dc565b6040516012815260200161015a565b61014e6101cd366004611165565b610500565b6101e56101e0366004611165565b61054c565b005b61018f6101f53660046111cb565b73ffffffffffffffffffffffffffffffffffffffff1660009081526020819052604090205490565b61016b610656565b6101e5610233366004611165565b610665565b61014e610246366004611165565b61075e565b61014e610259366004611165565b61082f565b60065473ffffffffffffffffffffffffffffffffffffffff165b60405173ffffffffffffffffffffffffffffffffffffffff909116815260200161015a565b60055473ffffffffffffffffffffffffffffffffffffffff16610278565b6005546102789073ffffffffffffffffffffffffffffffffffffffff1681565b61018f6102e93660046111e6565b73ffffffffffffffffffffffffffffffffffffffff918216600090815260016020908152604080832093909416825291909152205490565b6006546102789073ffffffffffffffffffffffffffffffffffffffff1681565b60007f01ffc9a7000000000000000000000000000000000000000000000000000000007f1d1d8b63000000000000000000000000000000000000000000000000000000007f0bc32271000000000000000000000000000000000000000000000000000000007fffffffff0000000000000000000000000000000000000000000000000000000085168314806103fa57507fffffffff00000000000000000000000000000000000000000000000000000000858116908316145b8061042957507fffffffff00000000000000000000000000000000000000000000000000000000858116908216145b95945050505050565b60606003805461044190611219565b80601f016020809104026020016040519081016040528092919081815260200182805461046d90611219565b80156104ba5780601f1061048f576101008083540402835291602001916104ba565b820191906000526020600020905b81548152906001019060200180831161049d57829003601f168201915b5050505050905090565b6000336104d281858561083d565b5060019392505050565b6000336104ea8582856109f1565b6104f5858585610ac8565b506001949350505050565b33600081815260016020908152604080832073ffffffffffffffffffffffffffffffffffffffff871684529091528120549091906104d2908290869061054790879061129c565b61083d565b60065473ffffffffffffffffffffffffffffffffffffffff1633146105f8576040517f08c379a000000000000000000000000000000000000000000000000000000000815260206004820152603460248201527f4f7074696d69736d4d696e7461626c6545524332303a206f6e6c79206272696460448201527f67652063616e206d696e7420616e64206275726e00000000000000000000000060648201526084015b60405180910390fd5b6106028282610d7b565b8173ffffffffffffffffffffffffffffffffffffffff167f0f6798a560793a54c3bcfe86a93cde1e73087d944c0ea20544137d41213968858260405161064a91815260200190565b60405180910390a25050565b60606004805461044190611219565b60065473ffffffffffffffffffffffffffffffffffffffff16331461070c576040517f08c379a000000000000000000000000000000000000000000000000000000000815260206004820152603460248201527f4f7074696d69736d4d696e7461626c6545524332303a206f6e6c79206272696460448201527f67652063616e206d696e7420616e64206275726e00000000000000000000000060648201526084016105ef565b6107168282610e9b565b8173ffffffffffffffffffffffffffffffffffffffff167fcc16f5dbb4873280815c1ee09dbd06736cffcc184412cf7a71a0fdb75d397ca58260405161064a91815260200190565b33600081815260016020908152604080832073ffffffffffffffffffffffffffffffffffffffff8716845290915281205490919083811015610822576040517f08c379a000000000000000000000000000000000000000000000000000000000815260206004820152602560248201527f45524332303a2064656372656173656420616c6c6f77616e63652062656c6f7760448201527f207a65726f00000000000000000000000000000000000000000000000000000060648201526084016105ef565b6104f5828686840361083d565b6000336104d2818585610ac8565b73ffffffffffffffffffffffffffffffffffffffff83166108df576040517f08c379a0000000000000000000000000000000000000000000000000000000008152602060048201526024808201527f45524332303a20617070726f76652066726f6d20746865207a65726f2061646460448201527f726573730000000000000000000000000000000000000000000000000000000060648201526084016105ef565b73ffffffffffffffffffffffffffffffffffffffff8216610982576040517f08c379a000000000000000000000000000000000000000000000000000000000815260206004820152602260248201527f45524332303a20617070726f766520746f20746865207a65726f20616464726560448201527f737300000000000000000000000000000000000000000000000000000000000060648201526084016105ef565b73ffffffffffffffffffffffffffffffffffffffff83811660008181526001602090815260408083209487168084529482529182902085905590518481527f8c5be1e5ebec7d5bd14f71427d1e84f3dd0314c0f7b2291e5b200ac8c7c3b92591015b60405180910390a3505050565b73ffffffffffffffffffffffffffffffffffffffff8381166000908152600160209081526040808320938616835292905220547fffffffffffffffffffffffffffffffffffffffffffffffffffffffffffffffff8114610ac25781811015610ab5576040517f08c379a000000000000000000000000000000000000000000000000000000000815260206004820152601d60248201527f45524332303a20696e73756666696369656e7420616c6c6f77616e636500000060448201526064016105ef565b610ac2848484840361083d565b50505050565b73ffffffffffffffffffffffffffffffffffffffff8316610b6b576040517f08c379a000000000000000000000000000000000000000000000000000000000815260206004820152602560248201527f45524332303a207472616e736665722066726f6d20746865207a65726f20616460448201527f647265737300000000000000000000000000000000000000000000000000000060648201526084016105ef565b73ffffffffffffffffffffffffffffffffffffffff8216610c0e576040517f08c379a000000000000000000000000000000000000000000000000000000000815260206004820152602360248201527f45524332303a207472616e7366657220746f20746865207a65726f206164647260448201527f657373000000000000000000000000000000000000000000000000000000000060648201526084016105ef565b73ffffffffffffffffffffffffffffffffffffffff831660009081526020819052604090205481811015610cc4576040517f08c379a000000000000000000000000000000000000000000000000000000000815260206004820152602660248201527f45524332303a207472616e7366657220616d6f756e742065786365656473206260448201527f616c616e6365000000000000000000000000000000000000000000000000000060648201526084016105ef565b73ffffffffffffffffffffffffffffffffffffffff808516600090815260208190526040808220858503905591851681529081208054849290610d0890849061129c565b925050819055508273ffffffffffffffffffffffffffffffffffffffff168473ffffffffffffffffffffffffffffffffffffffff167fddf252ad1be2c89b69c2b068fc378daa952ba7f163c4a11628f55a4df523b3ef84604051610d6e91815260200190565b60405180910390a3610ac2565b73ffffffffffffffffffffffffffffffffffffffff8216610df8576040517f08c379a000000000000000000000000000000000000000000000000000000000815260206004820152601f60248201527f45524332303a206d696e7420746f20746865207a65726f20616464726573730060448201526064016105ef565b8060026000828254610e0a919061129c565b909155505073ffffffffffffffffffffffffffffffffffffffff821660009081526020819052604081208054839290610e4490849061129c565b909155505060405181815273ffffffffffffffffffffffffffffffffffffffff8316906000907fddf252ad1be2c89b69c2b068fc378daa952ba7f163c4a11628f55a4df523b3ef9060200160405180910390a35050565b73ffffffffffffffffffffffffffffffffffffffff8216610f3e576040517f08c379a000000000000000000000000000000000000000000000000000000000815260206004820152602160248201527f45524332303a206275726e2066726f6d20746865207a65726f2061646472657360448201527f730000000000000000000000000000000000000000000000000000000000000060648201526084016105ef565b73ffffffffffffffffffffffffffffffffffffffff821660009081526020819052604090205481811015610ff4576040517f08c379a000000000000000000000000000000000000000000000000000000000815260206004820152602260248201527f45524332303a206275726e20616d6f756e7420657863656564732062616c616e60448201527f636500000000000000000000000000000000000000000000000000000000000060648201526084016105ef565b73ffffffffffffffffffffffffffffffffffffffff831660009081526020819052604081208383039055600280548492906110309084906112b4565b909155505060405182815260009073ffffffffffffffffffffffffffffffffffffffff8516907fddf252ad1be2c89b69c2b068fc378daa952ba7f163c4a11628f55a4df523b3ef906020016109e4565b60006020828403121561109257600080fd5b81357fffffffff00000000000000000000000000000000000000000000000000000000811681146110c257600080fd5b9392505050565b600060208083528351808285015260005b818110156110f6578581018301518582016040015282016110da565b81811115611108576000604083870101525b50601f017fffffffffffffffffffffffffffffffffffffffffffffffffffffffffffffffe016929092016040019392505050565b803573ffffffffffffffffffffffffffffffffffffffff8116811461116057600080fd5b919050565b6000806040838503121561117857600080fd5b6111818361113c565b946020939093013593505050565b6000806000606084860312156111a457600080fd5b6111ad8461113c565b92506111bb6020850161113c565b9150604084013590509250925092565b6000602082840312156111dd57600080fd5b6110c28261113c565b600080604083850312156111f957600080fd5b6112028361113c565b91506112106020840161113c565b90509250929050565b600181811c9082168061122d57607f821691505b60208210811415611267577f4e487b7100000000000000000000000000000000000000000000000000000000600052602260045260246000fd5b50919050565b7f4e487b7100000000000000000000000000000000000000000000000000000000600052601160045260246000fd5b600082198211156112af576112af61126d565b500190565b6000828210156112c6576112c661126d565b50039056fea164736f6c634300080a000aa164736f6c634300080a000a",
  "devdoc": {
    "version": 1,
    "kind": "dev",
    "methods": {
      "constructor": {
        "params": {
          "_bridge": "Address of the StandardBridge on this chain."
        }
      },
      "createOptimismMintableERC20(address,string,string)": {
        "params": {
          "_name": "ERC20 name.",
          "_remoteToken": "Address of the token on the remote chain.",
          "_symbol": "ERC20 symbol."
        },
        "returns": {
          "_0": "Address of the newly created token."
        }
      },
      "createStandardL2Token(address,string,string)": {
        "params": {
          "_name": "ERC20 name.",
          "_remoteToken": "Address of the token on the remote chain.",
          "_symbol": "ERC20 symbol."
        },
        "returns": {
          "_0": "Address of the newly created token."
        }
      }
    },
    "events": {
      "OptimismMintableERC20Created(address,address,address)": {
        "params": {
          "deployer": "Address of the account that deployed the token.",
          "localToken": "Address of the created token on the local chain.",
          "remoteToken": "Address of the corresponding token on the remote chain."
        }
      },
      "StandardL2TokenCreated(address,address)": {
        "params": {
          "localToken": "Address of the created token on the local chain.",
          "remoteToken": "Address of the token on the remote chain."
        }
      }
    },
    "title": "OptimismMintableERC20Factory"
  },
  "userdoc": {
    "version": 1,
    "kind": "user",
    "methods": {
      "bridge()": {
        "notice": "Address of the StandardBridge on this chain."
      },
      "createOptimismMintableERC20(address,string,string)": {
        "notice": "Creates an instance of the OptimismMintableERC20 contract."
      }
    },
    "events": {
      "OptimismMintableERC20Created(address,address,address)": {
        "notice": "Emitted whenever a new OptimismMintableERC20 is created."
      }
    },
    "notice": "OptimismMintableERC20Factory is a factory contract that generates OptimismMintableERC20         contracts on the network it's deployed to. Simplifies the deployment process for users         who may be less familiar with deploying smart contracts. Designed to be backwards         compatible with the older StandardL2ERC20Factory contract."
  }
}