{
  "address": "0x9Bea1Edf1D71d6f35592B39AAe218eB10897d8c5",
  "abi": [
    {
      "inputs": [
        {
          "internalType": "contract L2OutputOracle",
          "name": "_l2Oracle",
          "type": "address"
        },
        {
          "internalType": "uint256",
          "name": "_finalizationPeriodSeconds",
          "type": "uint256"
        }
      ],
      "stateMutability": "nonpayable",
      "type": "constructor"
    },
    {
      "anonymous": false,
      "inputs": [
        {
          "indexed": false,
          "internalType": "uint8",
          "name": "version",
          "type": "uint8"
        }
      ],
      "name": "Initialized",
      "type": "event"
    },
    {
      "anonymous": false,
      "inputs": [
        {
          "indexed": true,
          "internalType": "address",
          "name": "from",
          "type": "address"
        },
        {
          "indexed": true,
          "internalType": "address",
          "name": "to",
          "type": "address"
        },
        {
          "indexed": true,
          "internalType": "uint256",
          "name": "version",
          "type": "uint256"
        },
        {
          "indexed": false,
          "internalType": "bytes",
          "name": "opaqueData",
          "type": "bytes"
        }
      ],
      "name": "TransactionDeposited",
      "type": "event"
    },
    {
      "anonymous": false,
      "inputs": [
        {
          "indexed": true,
          "internalType": "bytes32",
          "name": "withdrawalHash",
          "type": "bytes32"
        },
        {
          "indexed": false,
          "internalType": "bool",
          "name": "success",
          "type": "bool"
        }
      ],
      "name": "WithdrawalFinalized",
      "type": "event"
    },
    {
      "inputs": [],
      "name": "BASE_FEE_MAX_CHANGE_DENOMINATOR",
      "outputs": [
        {
          "internalType": "int256",
          "name": "",
          "type": "int256"
        }
      ],
      "stateMutability": "view",
      "type": "function"
    },
    {
      "inputs": [],
      "name": "ELASTICITY_MULTIPLIER",
      "outputs": [
        {
          "internalType": "int256",
          "name": "",
          "type": "int256"
        }
      ],
      "stateMutability": "view",
      "type": "function"
    },
    {
      "inputs": [],
      "name": "FINALIZATION_PERIOD_SECONDS",
      "outputs": [
        {
          "internalType": "uint256",
          "name": "",
          "type": "uint256"
        }
      ],
      "stateMutability": "view",
      "type": "function"
    },
    {
      "inputs": [],
      "name": "INITIAL_BASE_FEE",
      "outputs": [
        {
          "internalType": "uint128",
          "name": "",
          "type": "uint128"
        }
      ],
      "stateMutability": "view",
      "type": "function"
    },
    {
      "inputs": [],
      "name": "L2_ORACLE",
      "outputs": [
        {
          "internalType": "contract L2OutputOracle",
          "name": "",
          "type": "address"
        }
      ],
      "stateMutability": "view",
      "type": "function"
    },
    {
      "inputs": [],
      "name": "MAX_RESOURCE_LIMIT",
      "outputs": [
        {
          "internalType": "int256",
          "name": "",
          "type": "int256"
        }
      ],
      "stateMutability": "view",
      "type": "function"
    },
    {
      "inputs": [],
      "name": "MINIMUM_BASE_FEE",
      "outputs": [
        {
          "internalType": "int256",
          "name": "",
          "type": "int256"
        }
      ],
      "stateMutability": "view",
      "type": "function"
    },
    {
      "inputs": [],
      "name": "TARGET_RESOURCE_LIMIT",
      "outputs": [
        {
          "internalType": "int256",
          "name": "",
          "type": "int256"
        }
      ],
      "stateMutability": "view",
      "type": "function"
    },
    {
      "inputs": [
        {
          "internalType": "address",
          "name": "_to",
          "type": "address"
        },
        {
          "internalType": "uint256",
          "name": "_value",
          "type": "uint256"
        },
        {
          "internalType": "uint64",
          "name": "_gasLimit",
          "type": "uint64"
        },
        {
          "internalType": "bool",
          "name": "_isCreation",
          "type": "bool"
        },
        {
          "internalType": "bytes",
          "name": "_data",
          "type": "bytes"
        }
      ],
      "name": "depositTransaction",
      "outputs": [],
      "stateMutability": "payable",
      "type": "function"
    },
    {
      "inputs": [
        {
          "internalType": "uint256",
          "name": "_nonce",
          "type": "uint256"
        },
        {
          "internalType": "address",
          "name": "_sender",
          "type": "address"
        },
        {
          "internalType": "address",
          "name": "_target",
          "type": "address"
        },
        {
          "internalType": "uint256",
          "name": "_value",
          "type": "uint256"
        },
        {
          "internalType": "uint256",
          "name": "_gasLimit",
          "type": "uint256"
        },
        {
          "internalType": "bytes",
          "name": "_data",
          "type": "bytes"
        },
        {
          "internalType": "uint256",
          "name": "_l2BlockNumber",
          "type": "uint256"
        },
        {
          "components": [
            {
              "internalType": "bytes32",
              "name": "version",
              "type": "bytes32"
            },
            {
              "internalType": "bytes32",
              "name": "stateRoot",
              "type": "bytes32"
            },
            {
              "internalType": "bytes32",
              "name": "withdrawerStorageRoot",
              "type": "bytes32"
            },
            {
              "internalType": "bytes32",
              "name": "latestBlockhash",
              "type": "bytes32"
            }
          ],
          "internalType": "struct Hashing.OutputRootProof",
          "name": "_outputRootProof",
          "type": "tuple"
        },
        {
          "internalType": "bytes",
          "name": "_withdrawalProof",
          "type": "bytes"
        }
      ],
      "name": "finalizeWithdrawalTransaction",
      "outputs": [],
      "stateMutability": "payable",
      "type": "function"
    },
    {
      "inputs": [
        {
          "internalType": "bytes32",
          "name": "",
          "type": "bytes32"
        }
      ],
      "name": "finalizedWithdrawals",
      "outputs": [
        {
          "internalType": "bool",
          "name": "",
          "type": "bool"
        }
      ],
      "stateMutability": "view",
      "type": "function"
    },
    {
      "inputs": [],
      "name": "initialize",
      "outputs": [],
      "stateMutability": "nonpayable",
      "type": "function"
    },
    {
      "inputs": [
        {
          "internalType": "uint256",
          "name": "_l2BlockNumber",
          "type": "uint256"
        }
      ],
      "name": "isBlockFinalized",
      "outputs": [
        {
          "internalType": "bool",
          "name": "",
          "type": "bool"
        }
      ],
      "stateMutability": "view",
      "type": "function"
    },
    {
      "inputs": [],
      "name": "l2Sender",
      "outputs": [
        {
          "internalType": "address",
          "name": "",
          "type": "address"
        }
      ],
      "stateMutability": "view",
      "type": "function"
    },
    {
      "inputs": [],
      "name": "params",
      "outputs": [
        {
          "internalType": "uint128",
          "name": "prevBaseFee",
          "type": "uint128"
        },
        {
          "internalType": "uint64",
          "name": "prevBoughtGas",
          "type": "uint64"
        },
        {
          "internalType": "uint64",
          "name": "prevBlockNum",
          "type": "uint64"
        }
      ],
      "stateMutability": "view",
      "type": "function"
    },
    {
      "inputs": [],
      "name": "version",
      "outputs": [
        {
          "internalType": "string",
          "name": "",
          "type": "string"
        }
      ],
      "stateMutability": "view",
      "type": "function"
    },
    {
      "stateMutability": "payable",
      "type": "receive"
    }
  ],
  "transactionHash": "0xc0eda4bc275c821039c988617a5acf9f4d4d0499e0ec859de9b21735b4ead809",
  "args": [
    "0xACab0D042Eca6B89f56a9Bec47bd41B52fFf943f",
    2
  ],
  "numDeployments": 1,
  "solcInputHash": "98b32181dddcc211ecf20a0f8159da6d",
  "bytecode": "0x6101206040523480156200001257600080fd5b506040516200416f3803806200416f8339810160408190526200003591620002bc565b6000608081905260a052600160c0526001600160a01b0382166101005260e08190526200006162000069565b5050620002f8565b6000620000776001620000f8565b9050801562000090576000805461ff0019166101001790555b603380546001600160a01b03191661dead179055620000ae6200020a565b8015620000f5576000805461ff0019169055604051600181527f7f26b83ff96e1f2b6a682f133852f6798a09c465da95921460cefb38474024989060200160405180910390a15b50565b60008054610100900460ff161562000191578160ff1660011480156200013157506200012f30620002ad60201b620011e11760201c565b155b620001895760405162461bcd60e51b815260206004820152602e60248201526000805160206200414f83398151915260448201526d191e481a5b9a5d1a585b1a5e995960921b60648201526084015b60405180910390fd5b506000919050565b60005460ff808416911610620001f05760405162461bcd60e51b815260206004820152602e60248201526000805160206200414f83398151915260448201526d191e481a5b9a5d1a585b1a5e995960921b606482015260840162000180565b506000805460ff191660ff92909216919091179055600190565b600054610100900460ff16620002775760405162461bcd60e51b815260206004820152602b60248201527f496e697469616c697a61626c653a20636f6e7472616374206973206e6f74206960448201526a6e697469616c697a696e6760a81b606482015260840162000180565b60408051606081018252633b9aca0080825260006020830152436001600160401b031691909201819052600160c01b0217600155565b6001600160a01b03163b151590565b60008060408385031215620002d057600080fd5b82516001600160a01b0381168114620002e857600080fd5b6020939093015192949293505050565b60805160a05160c05160e05161010051613dfd620003526000396000818161013401528181610a860152610c940152600081816103d0015261164201526000610918015260006108ef015260006108c60152613dfd6000f3fe6080604052600436106100f65760003560e01c8063a14238e71161008a578063cff0ab9611610059578063cff0ab96146102f7578063e9e05c4214610398578063eecf1c36146103ab578063f4daa291146103be57600080fd5b8063a14238e71461026d578063c4fc4798146102ad578063ca3e99ba146102cd578063cd7c9789146102e257600080fd5b80636bb0291e116100c65780636bb0291e146102005780638129fc1c14610215578063867ead131461022a5780639bf62d821461024057600080fd5b80621c2ff61461012257806313620abd1461018057806354fd4d50146101b957806364b79208146101db57600080fd5b3661011d5761011b3334620186a06000604051806020016040528060008152506103f2565b005b600080fd5b34801561012e57600080fd5b506101567f000000000000000000000000000000000000000000000000000000000000000081565b60405173ffffffffffffffffffffffffffffffffffffffff90911681526020015b60405180910390f35b34801561018c57600080fd5b50610198633b9aca0081565b6040516fffffffffffffffffffffffffffffffff9091168152602001610177565b3480156101c557600080fd5b506101ce6108bf565b604051610177919061346e565b3480156101e757600080fd5b506101f2627a120081565b604051908152602001610177565b34801561020c57600080fd5b506101f2600481565b34801561022157600080fd5b5061011b610962565b34801561023657600080fd5b506101f261271081565b34801561024c57600080fd5b506033546101569073ffffffffffffffffffffffffffffffffffffffff1681565b34801561027957600080fd5b5061029d610288366004613481565b60346020526000908152604090205460ff1681565b6040519015158152602001610177565b3480156102b957600080fd5b5061029d6102c8366004613481565b610a3d565b3480156102d957600080fd5b506101f2610b02565b3480156102ee57600080fd5b506101f2600881565b34801561030357600080fd5b5060015461035f906fffffffffffffffffffffffffffffffff81169067ffffffffffffffff7001000000000000000000000000000000008204811691780100000000000000000000000000000000000000000000000090041683565b604080516fffffffffffffffffffffffffffffffff909416845267ffffffffffffffff9283166020850152911690820152606001610177565b61011b6103a636600461353c565b6103f2565b61011b6103b9366004613686565b610b13565b3480156103ca57600080fd5b506101f27f000000000000000000000000000000000000000000000000000000000000000081565b8260005a905083156104a95773ffffffffffffffffffffffffffffffffffffffff8716156104a957604080517f08c379a00000000000000000000000000000000000000000000000000000000081526020600482015260248101919091527f4f7074696d69736d506f7274616c3a206d7573742073656e6420746f2061646460448201527f72657373283029207768656e206372656174696e67206120636f6e747261637460648201526084015b60405180910390fd5b333281146104ca575033731111000000000000000000000000000000001111015b600034888888886040516020016104e5959493929190613786565b604051602081830303815290604052905060008973ffffffffffffffffffffffffffffffffffffffff168373ffffffffffffffffffffffffffffffffffffffff167fb3813568d9991fc951961fcb4c784893574240a28925604d09fc577c55bb7c3284604051610555919061346e565b60405180910390a45050600154600090610595907801000000000000000000000000000000000000000000000000900467ffffffffffffffff164361381a565b9050801561071e5760006105ad6004627a1200613860565b6001546105d89190700100000000000000000000000000000000900467ffffffffffffffff166138c8565b9050600060086105ec6004627a1200613860565b60015461060c9085906fffffffffffffffffffffffffffffffff1661393c565b6106169190613860565b6106209190613860565b60015490915060009061066c906106569061064e9085906fffffffffffffffffffffffffffffffff166139f8565b6127106111fd565b6fffffffffffffffffffffffffffffffff611218565b905060018411156106df576106dc610656670de0b6b3a76400006106c8610694600883613860565b6106a690670de0b6b3a76400006138c8565b6106b160018a61381a565b6106c390670de0b6b3a7640000613a6c565b611227565b6106d2908561393c565b61064e9190613860565b90505b6fffffffffffffffffffffffffffffffff16780100000000000000000000000000000000000000000000000067ffffffffffffffff4316021760015550505b60018054849190601090610751908490700100000000000000000000000000000000900467ffffffffffffffff16613aa9565b92506101000a81548167ffffffffffffffff021916908367ffffffffffffffff160217905550627a1200600160000160109054906101000a900467ffffffffffffffff1667ffffffffffffffff16131561082d576040517f08c379a000000000000000000000000000000000000000000000000000000000815260206004820152603e60248201527f5265736f757263654d65746572696e673a2063616e6e6f7420627579206d6f7260448201527f6520676173207468616e20617661696c61626c6520676173206c696d6974000060648201526084016104a0565b600154600090610859906fffffffffffffffffffffffffffffffff1667ffffffffffffffff8616613ad5565b6fffffffffffffffffffffffffffffffff169050600061087d48633b9aca00611258565b6108879083613b0d565b905060005a610896908661381a565b9050808211156108b2576108b26108ad828461381a565b611268565b5050505050505050505050565b60606108ea7f0000000000000000000000000000000000000000000000000000000000000000611296565b6109137f0000000000000000000000000000000000000000000000000000000000000000611296565b61093c7f0000000000000000000000000000000000000000000000000000000000000000611296565b60405160200161094e93929190613b21565b604051602081830303815290604052905090565b600061096e60016113d0565b905080156109a357600080547fffffffffffffffffffffffffffffffffffffffffffffffffffffffffffff00ff166101001790555b603380547fffffffffffffffffffffffff00000000000000000000000000000000000000001661dead1790556109d761155b565b8015610a3a57600080547fffffffffffffffffffffffffffffffffffffffffffffffffffffffffffff00ff169055604051600181527f7f26b83ff96e1f2b6a682f133852f6798a09c465da95921460cefb38474024989060200160405180910390a15b50565b6040517fa25ae55700000000000000000000000000000000000000000000000000000000815260048101829052600090819073ffffffffffffffffffffffffffffffffffffffff7f0000000000000000000000000000000000000000000000000000000000000000169063a25ae557906024016040805180830381865afa158015610acc573d6000803e3d6000fd5b505050506040513d601f19601f82011682018060405250810190610af09190613b97565b9050610afb8161163e565b9392505050565b610b106004627a1200613860565b81565b60335473ffffffffffffffffffffffffffffffffffffffff1661dead14610bbc576040517f08c379a000000000000000000000000000000000000000000000000000000000815260206004820152603f60248201527f4f7074696d69736d506f7274616c3a2063616e206f6e6c79207472696767657260448201527f206f6e65207769746864726177616c20706572207472616e73616374696f6e0060648201526084016104a0565b73ffffffffffffffffffffffffffffffffffffffff8916301415610c62576040517f08c379a000000000000000000000000000000000000000000000000000000000815260206004820152603f60248201527f4f7074696d69736d506f7274616c3a20796f752063616e6e6f742073656e642060448201527f6d6573736167657320746f2074686520706f7274616c20636f6e74726163740060648201526084016104a0565b6040517fa25ae557000000000000000000000000000000000000000000000000000000008152600481018590526000907f000000000000000000000000000000000000000000000000000000000000000073ffffffffffffffffffffffffffffffffffffffff169063a25ae557906024016040805180830381865afa158015610cef573d6000803e3d6000fd5b505050506040513d601f19601f82011682018060405250810190610d139190613b97565b9050610d1e8161163e565b610daa576040517f08c379a000000000000000000000000000000000000000000000000000000000815260206004820152602d60248201527f4f7074696d69736d506f7274616c3a2070726f706f73616c206973206e6f742060448201527f7965742066696e616c697a65640000000000000000000000000000000000000060648201526084016104a0565b610dc1610dbc36869003860186613be6565b611678565b815114610e50576040517f08c379a000000000000000000000000000000000000000000000000000000000815260206004820152602960248201527f4f7074696d69736d506f7274616c3a20696e76616c6964206f7574707574207260448201527f6f6f742070726f6f66000000000000000000000000000000000000000000000060648201526084016104a0565b6000610e968d8d8d8d8d8d8d8080601f0160208091040260200160405190810160405280939291908181526020018383808284376000920191909152506116d492505050565b9050610edd81866040013586868080601f01602080910402602001604051908101604052809392919081815260200183838082843760009201919091525061171392505050565b610f69576040517f08c379a000000000000000000000000000000000000000000000000000000000815260206004820152603260248201527f4f7074696d69736d506f7274616c3a20696e76616c696420776974686472617760448201527f616c20696e636c7573696f6e2070726f6f66000000000000000000000000000060648201526084016104a0565b60008181526034602052604090205460ff1615611008576040517f08c379a000000000000000000000000000000000000000000000000000000000815260206004820152603560248201527f4f7074696d69736d506f7274616c3a207769746864726177616c20686173206160448201527f6c7265616479206265656e2066696e616c697a6564000000000000000000000060648201526084016104a0565b600081815260346020526040902080547fffffffffffffffffffffffffffffffffffffffffffffffffffffffffffffff0016600117905561104b614e208a613c4c565b5a10156110da576040517f08c379a000000000000000000000000000000000000000000000000000000000815260206004820152603760248201527f4f7074696d69736d506f7274616c3a20696e73756666696369656e742067617360448201527f20746f2066696e616c697a65207769746864726177616c00000000000000000060648201526084016104a0565b603380547fffffffffffffffffffffffff00000000000000000000000000000000000000001673ffffffffffffffffffffffffffffffffffffffff8e16179055604080516020601f8a01819004810282018101909252888152600091611163918e918d918f918691908f908f90819084018382808284376000920191909152506117da92505050565b50603380547fffffffffffffffffffffffff00000000000000000000000000000000000000001661dead17905560405190915082907fdb5c7652857aa163daadd670e116628fb42e869d8ac4251ef8971d9e5727df1b906111c990841515815260200190565b60405180910390a25050505050505050505050505050565b73ffffffffffffffffffffffffffffffffffffffff163b151590565b60008183121561120d578161120f565b825b90505b92915050565b600081831261120d578161120f565b600061120f670de0b6b3a76400008361123f86611865565b611249919061393c565b6112539190613860565b611aa9565b60008183101561120d578161120f565b6000805a90505b825a61127b908361381a565b10156112915761128a82613c64565b915061126f565b505050565b6060816112d657505060408051808201909152600181527f3000000000000000000000000000000000000000000000000000000000000000602082015290565b8160005b811561130057806112ea81613c64565b91506112f99050600a83613b0d565b91506112da565b60008167ffffffffffffffff81111561131b5761131b6134be565b6040519080825280601f01601f191660200182016040528015611345576020820181803683370190505b5090505b84156113c85761135a60018361381a565b9150611367600a86613c9d565b611372906030613c4c565b60f81b81838151811061138757611387613cb1565b60200101907effffffffffffffffffffffffffffffffffffffffffffffffffffffffffffff1916908160001a9053506113c1600a86613b0d565b9450611349565b949350505050565b60008054610100900460ff1615611487578160ff1660011480156113f35750303b155b61147f576040517f08c379a000000000000000000000000000000000000000000000000000000000815260206004820152602e60248201527f496e697469616c697a61626c653a20636f6e747261637420697320616c72656160448201527f647920696e697469616c697a656400000000000000000000000000000000000060648201526084016104a0565b506000919050565b60005460ff80841691161061151e576040517f08c379a000000000000000000000000000000000000000000000000000000000815260206004820152602e60248201527f496e697469616c697a61626c653a20636f6e747261637420697320616c72656160448201527f647920696e697469616c697a656400000000000000000000000000000000000060648201526084016104a0565b50600080547fffffffffffffffffffffffffffffffffffffffffffffffffffffffffffffff001660ff92909216919091179055600190565b919050565b600054610100900460ff166115f2576040517f08c379a000000000000000000000000000000000000000000000000000000000815260206004820152602b60248201527f496e697469616c697a61626c653a20636f6e7472616374206973206e6f74206960448201527f6e697469616c697a696e6700000000000000000000000000000000000000000060648201526084016104a0565b60408051606081018252633b9aca00808252600060208301524367ffffffffffffffff169190920181905278010000000000000000000000000000000000000000000000000217600155565b60007f000000000000000000000000000000000000000000000000000000000000000082602001516116709190613c4c565b421192915050565b600081600001518260200151836040015184606001516040516020016116b7949392919093845260208401929092526040830152606082015260800190565b604051602081830303815290604052805190602001209050919050565b60008686868686866040516020016116f196959493929190613ce0565b6040516020818303038152906040528051906020012090509695505050505050565b604080516020810185905260009181018290528190606001604080517fffffffffffffffffffffffffffffffffffffffffffffffffffffffffffffffe0818403018152828252805160209182012090830181905292506117d19101604080517fffffffffffffffffffffffffffffffffffffffffffffffffffffffffffffffe0818403018152828201909152600182527f01000000000000000000000000000000000000000000000000000000000000006020830152908587611ce8565b95945050505050565b6000606060008060008661ffff1667ffffffffffffffff811115611800576118006134be565b6040519080825280601f01601f19166020018201604052801561182a576020820181803683370190505b5090506000808751602089018b8e8ef191503d92508683111561184b578692505b828152826000602083013e90999098509650505050505050565b60008082136118d0576040517f08c379a000000000000000000000000000000000000000000000000000000000815260206004820152600960248201527f554e444546494e4544000000000000000000000000000000000000000000000060448201526064016104a0565b600060606118dd84611d0c565b03609f8181039490941b90931c6c465772b2bbbb5f824b15207a3081018102606090811d6d0388eaa27412d5aca026815d636e018202811d6d0df99ac502031bf953eff472fdcc018202811d6d13cdffb29d51d99322bdff5f2211018202811d6d0a0f742023def783a307a986912e018202811d6d01920d8043ca89b5239253284e42018202811d6c0b7a86d7375468fac667a0a527016c29508e458543d8aa4df2abee7883018302821d6d0139601a2efabe717e604cbb4894018302821d6d02247f7a7b6594320649aa03aba1018302821d7fffffffffffffffffffffffffffffffffffffff73c0c716a594e00d54e3c4cbc9018302821d7ffffffffffffffffffffffffffffffffffffffdc7b88c420e53a9890533129f6f01830290911d7fffffffffffffffffffffffffffffffffffffff465fda27eb4d63ded474e5f832019091027ffffffffffffffff5f6af8f7b3396644f18e157960000000000000000000000000105711340daa0d5f769dba1915cef59f0815a5506027d0267a36c0c95b3975ab3ee5b203a7614a3f75373f047d803ae7b6687f2b393909302929092017d57115e47018c7177eebf7cd370a3356a1b7863008a5ae8028c72b88642840160ae1d92915050565b60007ffffffffffffffffffffffffffffffffffffffffffffffffdb731c958f34d94c18213611ada57506000919050565b680755bf798b4a1bf1e58212611b4c576040517f08c379a000000000000000000000000000000000000000000000000000000000815260206004820152600c60248201527f4558505f4f564552464c4f57000000000000000000000000000000000000000060448201526064016104a0565b6503782dace9d9604e83901b059150600060606bb17217f7d1cf79abc9e3b39884821b056b80000000000000000000000001901d6bb17217f7d1cf79abc9e3b39881029093037fffffffffffffffffffffffffffffffffffffffdbf3ccf1604d263450f02a550481018102606090811d6d0277594991cfc85f6e2461837cd9018202811d7fffffffffffffffffffffffffffffffffffffe5adedaa1cb095af9e4da10e363c018202811d6db1bbb201f443cf962f1a1d3db4a5018202811d7ffffffffffffffffffffffffffffffffffffd38dc772608b0ae56cce01296c0eb018202811d6e05180bb14799ab47a8a8cb2a527d57016d02d16720577bd19bf614176fe9ea6c10fe68e7fd37d0007b713f765084018402831d9081019084017ffffffffffffffffffffffffffffffffffffffe2c69812cf03b0763fd454a8f7e010290911d6e0587f503bb6ea29d25fcb7401964500190910279d835ebba824c98fb31b83b2ca45c000000000000000000000000010574029d9dc38563c32e5c2f6dc192ee70ef65f9978af30260c3939093039290921c92915050565b600080611cf486611de2565b9050611d0281868686611e14565b9695505050505050565b6000808211611d77576040517f08c379a000000000000000000000000000000000000000000000000000000000815260206004820152600960248201527f554e444546494e4544000000000000000000000000000000000000000000000060448201526064016104a0565b5060016fffffffffffffffffffffffffffffffff821160071b82811c67ffffffffffffffff1060061b1782811c63ffffffff1060051b1782811c61ffff1060041b1782811c60ff10600390811b90911783811c600f1060021b1783811c909110821b1791821c111790565b60608180519060200120604051602001611dfe91815260200190565b6040516020818303038152906040529050919050565b6000806000611e24878686611e51565b91509150818015611e4657508051602080830191909120875191880191909120145b979650505050505050565b600060606000611e6085611f6c565b90506000806000611e72848a89612067565b81519295509093509150158080611e865750815b611f12576040517f08c379a000000000000000000000000000000000000000000000000000000000815260206004820152602560248201527f4d65726b6c65547269653a2070726f76696465642070726f6f6620697320696e60448201527f76616c696400000000000000000000000000000000000000000000000000000060648201526084016104a0565b600081611f2e5760405180602001604052806000815250611f5a565b611f5a86611f3d60018861381a565b81518110611f4d57611f4d613cb1565b60200260200101516125f5565b919b919a509098505050505050505050565b60606000611f798361261f565b90506000815167ffffffffffffffff811115611f9757611f976134be565b604051908082528060200260200182016040528015611fdc57816020015b6040805180820190915260608082526020820152815260200190600190039081611fb55790505b50905060005b825181101561205f57600061200f84838151811061200257612002613cb1565b6020026020010151612652565b9050604051806040016040528082815260200161202b8361261f565b81525083838151811061204057612040613cb1565b602002602001018190525050808061205790613c64565b915050611fe2565b509392505050565b6000606081808061207787612719565b9050600086905060008061209e604051806040016040528060608152602001606081525090565b60005b8c518110156125b1578c81815181106120bc576120bc613cb1565b6020026020010151915082846120d29190613c4c565b93506120df600188613c4c565b96508361215d57815180516020909101208514612158576040517f08c379a000000000000000000000000000000000000000000000000000000000815260206004820152601d60248201527f4d65726b6c65547269653a20696e76616c696420726f6f74206861736800000060448201526064016104a0565b612299565b8151516020116121ff57815180516020909101208514612158576040517f08c379a000000000000000000000000000000000000000000000000000000000815260206004820152602760248201527f4d65726b6c65547269653a20696e76616c6964206c6172676520696e7465726e60448201527f616c20686173680000000000000000000000000000000000000000000000000060648201526084016104a0565b8151859061220c90613d37565b14612299576040517f08c379a000000000000000000000000000000000000000000000000000000000815260206004820152602660248201527f4d65726b6c65547269653a20696e76616c696420696e7465726e616c206e6f6460448201527f652068617368000000000000000000000000000000000000000000000000000060648201526084016104a0565b6122a560106001613c4c565b826020015151141561231e5785518414156122bf576125b1565b60008685815181106122d3576122d3613cb1565b602001015160f81c60f81b60f81c9050600083602001518260ff16815181106122fe576122fe613cb1565b602002602001015190506123118161289c565b965060019450505061259f565b60028260200151511415612517576000612337836128d2565b905060008160008151811061234e5761234e613cb1565b016020015160f81c90506000612365600283613d7c565b612370906002613d9e565b90506000612381848360ff166128f6565b9050600061238f8b8a6128f6565b9050600061239d838361292c565b905060ff8516600214806123b4575060ff85166003145b1561240a578083511480156123c95750808251145b156123db576123d8818b613c4c565b99505b507f800000000000000000000000000000000000000000000000000000000000000099506125b1945050505050565b60ff8516158061241d575060ff85166001145b1561248f578251811461245957507f800000000000000000000000000000000000000000000000000000000000000099506125b1945050505050565b612480886020015160018151811061247357612473613cb1565b602002602001015161289c565b9a50975061259f945050505050565b6040517f08c379a000000000000000000000000000000000000000000000000000000000815260206004820152603260248201527f4d65726b6c65547269653a2072656365697665642061206e6f6465207769746860448201527f20616e20756e6b6e6f776e20707265666978000000000000000000000000000060648201526084016104a0565b6040517f08c379a000000000000000000000000000000000000000000000000000000000815260206004820152602860248201527f4d65726b6c65547269653a20726563656976656420616e20756e70617273656160448201527f626c65206e6f646500000000000000000000000000000000000000000000000060648201526084016104a0565b806125a981613c64565b9150506120a1565b507f80000000000000000000000000000000000000000000000000000000000000008414866125e087866128f6565b909e909d50909b509950505050505050505050565b602081015180516060916112129161260f9060019061381a565b8151811061200257612002613cb1565b604080518082018252600080825260209182015281518083019092528251825280830190820152606090611212906129d8565b6060600080600061266285612c31565b91945092509050600081600181111561267d5761267d613dc1565b1461270a576040517f08c379a000000000000000000000000000000000000000000000000000000000815260206004820152602260248201527f524c505265616465723a20696e76616c696420524c502062797465732076616c60448201527f756500000000000000000000000000000000000000000000000000000000000060648201526084016104a0565b6117d18560200151848461311c565b606060008251600261272b9190613a6c565b67ffffffffffffffff811115612743576127436134be565b6040519080825280601f01601f19166020018201604052801561276d576020820181803683370190505b50905060005b835181101561289557600484828151811061279057612790613cb1565b01602001517fff0000000000000000000000000000000000000000000000000000000000000016901c826127c5836002613a6c565b815181106127d5576127d5613cb1565b60200101907effffffffffffffffffffffffffffffffffffffffffffffffffffffffffffff1916908160001a905350601084828151811061281857612818613cb1565b016020015161282a919060f81c613d7c565b60f81b82612839836002613a6c565b612844906001613c4c565b8151811061285457612854613cb1565b60200101907effffffffffffffffffffffffffffffffffffffffffffffffffffffffffffff1916908160001a9053508061288d81613c64565b915050612773565b5092915050565b600060606020836000015110156128bd576128b6836131fb565b90506128c9565b6128c683612652565b90505b610afb81613d37565b60606112126128f1836020015160008151811061200257612002613cb1565b612719565b6060825182106129155750604080516020810190915260008152611212565b61120f8383848651612927919061381a565b613206565b6000805b8084511180156129405750808351115b80156129c1575082818151811061295957612959613cb1565b602001015160f81c60f81b7effffffffffffffffffffffffffffffffffffffffffffffffffffffffffffff191684828151811061299857612998613cb1565b01602001517fff0000000000000000000000000000000000000000000000000000000000000016145b1561120f57806129d081613c64565b915050612930565b60606000806129e684612c31565b91935090915060019050816001811115612a0257612a02613dc1565b14612a8f576040517f08c379a000000000000000000000000000000000000000000000000000000000815260206004820152602160248201527f524c505265616465723a20696e76616c696420524c50206c6973742076616c7560448201527f650000000000000000000000000000000000000000000000000000000000000060648201526084016104a0565b6040805160208082526104208201909252600091816020015b6040805180820190915260008082526020820152815260200190600190039081612aa85790505090506000835b8651811015612c265760208210612b6e576040517f08c379a000000000000000000000000000000000000000000000000000000000815260206004820152603460248201527f524c505265616465723a2070726f766964656420524c50206c6973742065786360448201527f65656473206d6178206c697374206c656e67746800000000000000000000000060648201526084016104a0565b600080612bab6040518060400160405280858c60000151612b8f919061381a565b8152602001858c60200151612ba49190613c4c565b9052612c31565b509150915060405180604001604052808383612bc79190613c4c565b8152602001848b60200151612bdc9190613c4c565b815250858581518110612bf157612bf1613cb1565b6020908102919091010152612c07600185613c4c565b9350612c138183613c4c565b612c1d9084613c4c565b92505050612ad5565b508152949350505050565b600080600080846000015111612cc9576040517f08c379a000000000000000000000000000000000000000000000000000000000815260206004820152602260248201527f524c505265616465723a20524c50206974656d2063616e6e6f74206265206e7560448201527f6c6c00000000000000000000000000000000000000000000000000000000000060648201526084016104a0565b6020840151805160001a607f8111612cee576000600160009450945094505050613115565b60b78111612daa576000612d0360808361381a565b905080876000015111612d98576040517f08c379a000000000000000000000000000000000000000000000000000000000815260206004820152602360248201527f524c505265616465723a20696e76616c696420524c502073686f72742073747260448201527f696e67000000000000000000000000000000000000000000000000000000000060648201526084016104a0565b60019550935060009250613115915050565b60bf8111612f19576000612dbf60b78361381a565b905080876000015111612e54576040517f08c379a000000000000000000000000000000000000000000000000000000000815260206004820152602960248201527f524c505265616465723a20696e76616c696420524c50206c6f6e67207374726960448201527f6e67206c656e677468000000000000000000000000000000000000000000000060648201526084016104a0565b600183015160208290036101000a9004612e6e8183613c4c565b885111612efd576040517f08c379a000000000000000000000000000000000000000000000000000000000815260206004820152602260248201527f524c505265616465723a20696e76616c696420524c50206c6f6e67207374726960448201527f6e6700000000000000000000000000000000000000000000000000000000000060648201526084016104a0565b612f08826001613c4c565b965094506000935061311592505050565b60f78111612fd4576000612f2e60c08361381a565b905080876000015111612fc3576040517f08c379a000000000000000000000000000000000000000000000000000000000815260206004820152602160248201527f524c505265616465723a20696e76616c696420524c502073686f7274206c697360448201527f740000000000000000000000000000000000000000000000000000000000000060648201526084016104a0565b600195509350849250613115915050565b6000612fe160f78361381a565b905080876000015111613076576040517f08c379a000000000000000000000000000000000000000000000000000000000815260206004820152602760248201527f524c505265616465723a20696e76616c696420524c50206c6f6e67206c69737460448201527f206c656e6774680000000000000000000000000000000000000000000000000060648201526084016104a0565b600183015160208290036101000a90046130908183613c4c565b8851116130f9576040517f08c379a000000000000000000000000000000000000000000000000000000000815260206004820181905260248201527f524c505265616465723a20696e76616c696420524c50206c6f6e67206c69737460448201526064016104a0565b613104826001613c4c565b965094506001935061311592505050565b9193909250565b606060008267ffffffffffffffff811115613139576131396134be565b6040519080825280601f01601f191660200182016040528015613163576020820181803683370190505b509050805160001415613177579050610afb565b60006131838587613c4c565b90506020820160005b613197602087613b0d565b8110156131ce57825182526131ad602084613c4c565b92506131ba602083613c4c565b9150806131c681613c64565b91505061318c565b5060006001602087066020036101000a039050808251168119845116178252839450505050509392505050565b6060611212826133de565b60608182601f011015613275576040517f08c379a000000000000000000000000000000000000000000000000000000000815260206004820152600e60248201527f736c6963655f6f766572666c6f7700000000000000000000000000000000000060448201526064016104a0565b8282840110156132e1576040517f08c379a000000000000000000000000000000000000000000000000000000000815260206004820152600e60248201527f736c6963655f6f766572666c6f7700000000000000000000000000000000000060448201526064016104a0565b8183018451101561334e576040517f08c379a000000000000000000000000000000000000000000000000000000000815260206004820152601160248201527f736c6963655f6f75744f66426f756e647300000000000000000000000000000060448201526064016104a0565b60608215801561336d57604051915060008252602082016040526133d5565b6040519150601f8416801560200281840101858101878315602002848b0101015b818310156133a657805183526020928301920161338e565b5050858452601f017fffffffffffffffffffffffffffffffffffffffffffffffffffffffffffffffe016604052505b50949350505050565b606061121282602001516000846000015161311c565b60005b8381101561340f5781810151838201526020016133f7565b8381111561341e576000848401525b50505050565b6000815180845261343c8160208601602086016133f4565b601f017fffffffffffffffffffffffffffffffffffffffffffffffffffffffffffffffe0169290920160200192915050565b60208152600061120f6020830184613424565b60006020828403121561349357600080fd5b5035919050565b803573ffffffffffffffffffffffffffffffffffffffff8116811461155657600080fd5b7f4e487b7100000000000000000000000000000000000000000000000000000000600052604160045260246000fd5b604051601f82017fffffffffffffffffffffffffffffffffffffffffffffffffffffffffffffffe016810167ffffffffffffffff81118282101715613534576135346134be565b604052919050565b600080600080600060a0868803121561355457600080fd5b61355d8661349a565b94506020808701359450604087013567ffffffffffffffff808216821461358357600080fd5b909450606088013590811515821461359a57600080fd5b909350608088013590808211156135b057600080fd5b818901915089601f8301126135c457600080fd5b8135818111156135d6576135d66134be565b613606847fffffffffffffffffffffffffffffffffffffffffffffffffffffffffffffffe0601f840116016134ed565b91508082528a8482850101111561361c57600080fd5b80848401858401376000848284010152508093505050509295509295909350565b60008083601f84011261364f57600080fd5b50813567ffffffffffffffff81111561366757600080fd5b60208301915083602082850101111561367f57600080fd5b9250929050565b60008060008060008060008060008060006101808c8e0312156136a857600080fd5b8b359a506136b860208d0161349a565b99506136c660408d0161349a565b985060608c0135975060808c0135965067ffffffffffffffff60a08d013511156136ef57600080fd5b6136ff8d60a08e01358e0161363d565b909650945060c08c0135935060808c8e037fffffffffffffffffffffffffffffffffffffffffffffffffffffffffffffff2001121561373d57600080fd5b60e08c01925067ffffffffffffffff6101608d0135111561375d57600080fd5b61376e8d6101608e01358e0161363d565b81935080925050509295989b509295989b9093969950565b8581528460208201527fffffffffffffffff0000000000000000000000000000000000000000000000008460c01b16604082015282151560f81b6048820152600082516137da8160498501602087016133f4565b919091016049019695505050505050565b7f4e487b7100000000000000000000000000000000000000000000000000000000600052601160045260246000fd5b60008282101561382c5761382c6137eb565b500390565b7f4e487b7100000000000000000000000000000000000000000000000000000000600052601260045260246000fd5b60008261386f5761386f613831565b7fffffffffffffffffffffffffffffffffffffffffffffffffffffffffffffffff83147f8000000000000000000000000000000000000000000000000000000000000000831416156138c3576138c36137eb565b500590565b6000808312837f800000000000000000000000000000000000000000000000000000000000000001831281151615613902576139026137eb565b837f7fffffffffffffffffffffffffffffffffffffffffffffffffffffffffffffff018313811615613936576139366137eb565b50500390565b60007f7fffffffffffffffffffffffffffffffffffffffffffffffffffffffffffffff60008413600084138583048511828216161561397d5761397d6137eb565b7f800000000000000000000000000000000000000000000000000000000000000060008712868205881281841616156139b8576139b86137eb565b600087129250878205871284841616156139d4576139d46137eb565b878505871281841616156139ea576139ea6137eb565b505050929093029392505050565b6000808212827f7fffffffffffffffffffffffffffffffffffffffffffffffffffffffffffffff03841381151615613a3257613a326137eb565b827f8000000000000000000000000000000000000000000000000000000000000000038412811615613a6657613a666137eb565b50500190565b6000817fffffffffffffffffffffffffffffffffffffffffffffffffffffffffffffffff0483118215151615613aa457613aa46137eb565b500290565b600067ffffffffffffffff808316818516808303821115613acc57613acc6137eb565b01949350505050565b60006fffffffffffffffffffffffffffffffff80831681851681830481118215151615613b0457613b046137eb565b02949350505050565b600082613b1c57613b1c613831565b500490565b60008451613b338184602089016133f4565b80830190507f2e000000000000000000000000000000000000000000000000000000000000008082528551613b6f816001850160208a016133f4565b60019201918201528351613b8a8160028401602088016133f4565b0160020195945050505050565b600060408284031215613ba957600080fd5b6040516040810181811067ffffffffffffffff82111715613bcc57613bcc6134be565b604052825181526020928301519281019290925250919050565b600060808284031215613bf857600080fd5b6040516080810181811067ffffffffffffffff82111715613c1b57613c1b6134be565b8060405250823581526020830135602082015260408301356040820152606083013560608201528091505092915050565b60008219821115613c5f57613c5f6137eb565b500190565b60007fffffffffffffffffffffffffffffffffffffffffffffffffffffffffffffffff821415613c9657613c966137eb565b5060010190565b600082613cac57613cac613831565b500690565b7f4e487b7100000000000000000000000000000000000000000000000000000000600052603260045260246000fd5b868152600073ffffffffffffffffffffffffffffffffffffffff808816602084015280871660408401525084606083015283608083015260c060a0830152613d2b60c0830184613424565b98975050505050505050565b80516020808301519190811015613d76577fffffffffffffffffffffffffffffffffffffffffffffffffffffffffffffffff8160200360031b1b821691505b50919050565b600060ff831680613d8f57613d8f613831565b8060ff84160691505092915050565b600060ff821660ff841680821015613db857613db86137eb565b90039392505050565b7f4e487b7100000000000000000000000000000000000000000000000000000000600052602160045260246000fdfea164736f6c634300080a000a496e697469616c697a61626c653a20636f6e747261637420697320616c726561",
  "devdoc": {
    "version": 1,
    "kind": "dev",
    "methods": {
      "constructor": {
        "params": {
          "_finalizationPeriodSeconds": "Output finalization time in seconds.",
          "_l2Oracle": "Address of the L2OutputOracle contract."
        }
      },
      "depositTransaction(address,uint256,uint64,bool,bytes)": {
        "params": {
          "_data": "Data to trigger the recipient with.",
          "_gasLimit": "Minimum L2 gas limit (can be greater than or equal to this value).",
          "_isCreation": "Whether or not the transaction is a contract creation.",
          "_to": "Target address on L2.",
          "_value": "ETH value to send to the recipient."
        }
      },
      "finalizeWithdrawalTransaction(uint256,address,address,uint256,uint256,bytes,uint256,(bytes32,bytes32,bytes32,bytes32),bytes)": {
        "params": {
          "_data": "Data to send to the target.",
          "_gasLimit": "Minumum gas to be forwarded to the target.",
          "_l2BlockNumber": "L2 block number of the outputRoot.",
          "_nonce": "Nonce for the provided message.",
          "_outputRootProof": "Inclusion proof of the withdrawer contracts storage root.",
          "_sender": "Message sender address on L2.",
          "_target": "Target address on L1.",
          "_value": "ETH to send to the target.",
          "_withdrawalProof": "Inclusion proof for the given withdrawal in the withdrawer contract."
        }
      },
      "isBlockFinalized(uint256)": {
        "params": {
          "_l2BlockNumber": "The number of the L2 block."
        }
      },
      "version()": {
        "returns": {
          "_0": "Semver contract version as a string."
        }
      }
    },
    "events": {
      "TransactionDeposited(address,address,uint256,bytes)": {
        "params": {
          "from": "Address that triggered the deposit transaction.",
          "opaqueData": "ABI encoded deposit data to be parsed off-chain.",
          "to": "Address that the deposit transaction is directed to.",
          "version": "Version of this deposit transaction event."
        }
      },
      "WithdrawalFinalized(bytes32,bool)": {
        "params": {
          "success": "Whether the withdrawal transaction was successful.",
          "withdrawalHash": "Hash of the withdrawal transaction."
        }
      }
    }
  },
  "userdoc": {
    "version": 1,
    "kind": "user",
    "methods": {
      "BASE_FEE_MAX_CHANGE_DENOMINATOR()": {
        "notice": "Denominator that determines max change on fee per block."
      },
      "ELASTICITY_MULTIPLIER()": {
        "notice": "Along with the resource limit, determines the target resource limit."
      },
      "FINALIZATION_PERIOD_SECONDS()": {
        "notice": "Minimum time (in seconds) that must elapse before a withdrawal can be finalized."
      },
      "INITIAL_BASE_FEE()": {
        "notice": "Initial base fee value."
      },
      "L2_ORACLE()": {
        "notice": "Address of the L2OutputOracle."
      },
      "MAX_RESOURCE_LIMIT()": {
        "notice": "Maximum amount of the resource that can be used within this block."
      },
      "MINIMUM_BASE_FEE()": {
        "notice": "Minimum base fee value, cannot go lower than this."
      },
      "TARGET_RESOURCE_LIMIT()": {
        "notice": "Target amount of the resource that should be used within this block."
      },
      "depositTransaction(address,uint256,uint64,bool,bytes)": {
        "notice": "Accepts deposits of ETH and data, and emits a TransactionDeposited event for use in         deriving deposit transactions. Note that if a deposit is made by a contract, its         address will be aliased when retrieved using `tx.origin` or `msg.sender`. Consider         using the CrossDomainMessenger contracts for a simpler developer experience."
      },
      "finalizeWithdrawalTransaction(uint256,address,address,uint256,uint256,bytes,uint256,(bytes32,bytes32,bytes32,bytes32),bytes)": {
        "notice": "Finalizes a withdrawal transaction."
      },
      "finalizedWithdrawals(bytes32)": {
        "notice": "A list of withdrawal hashes which have been successfully finalized."
      },
      "initialize()": {
        "notice": "Initializer;"
      },
      "isBlockFinalized(uint256)": {
        "notice": "Determine if a given block number is finalized. Reverts if the call to         L2_ORACLE.getL2Output reverts. Returns a boolean otherwise."
      },
      "l2Sender()": {
        "notice": "Address of the L2 account which initiated a withdrawal in this transaction. If the         of this variable is the default L2 sender address, then we are NOT inside of a call         to finalizeWithdrawalTransaction."
      },
      "params()": {
        "notice": "EIP-1559 style gas parameters."
      },
      "version()": {
        "notice": "Returns the full semver contract version."
      }
    },
    "events": {
      "TransactionDeposited(address,address,uint256,bytes)": {
        "notice": "Emitted when a transaction is deposited from L1 to L2. The parameters of this event         are read by the rollup node and used to derive deposit transactions on L2."
      },
      "WithdrawalFinalized(bytes32,bool)": {
        "notice": "Emitted when a withdrawal transaction is finalized."
      }
    },
    "notice": "The OptimismPortal is a low-level contract responsible for passing messages between L1         and L2. Messages sent directly to the OptimismPortal have no form of replayability.         Users are encouraged to use the L1CrossDomainMessenger for a higher-level interface."
  },
  "storageLayout": {
    "storage": [
      {
        "astId": 24373,
        "contract": "contracts/L1/OptimismPortal.sol:OptimismPortal",
        "label": "_initialized",
        "offset": 0,
        "slot": "0",
        "type": "t_uint8"
      },
      {
        "astId": 24376,
        "contract": "contracts/L1/OptimismPortal.sol:OptimismPortal",
        "label": "_initializing",
        "offset": 1,
        "slot": "0",
        "type": "t_bool"
      },
      {
        "astId": 1391,
        "contract": "contracts/L1/OptimismPortal.sol:OptimismPortal",
        "label": "params",
        "offset": 0,
        "slot": "1",
        "type": "t_struct(ResourceParams)1361_storage"
      },
      {
        "astId": 1396,
        "contract": "contracts/L1/OptimismPortal.sol:OptimismPortal",
        "label": "__gap",
        "offset": 0,
        "slot": "2",
        "type": "t_array(t_uint256)49_storage"
      },
      {
        "astId": 974,
        "contract": "contracts/L1/OptimismPortal.sol:OptimismPortal",
        "label": "l2Sender",
        "offset": 0,
        "slot": "51",
        "type": "t_address"
      },
      {
        "astId": 987,
        "contract": "contracts/L1/OptimismPortal.sol:OptimismPortal",
        "label": "finalizedWithdrawals",
        "offset": 0,
        "slot": "52",
        "type": "t_mapping(t_bytes32,t_bool)"
      },
      {
        "astId": 992,
        "contract": "contracts/L1/OptimismPortal.sol:OptimismPortal",
        "label": "__gap",
        "offset": 0,
        "slot": "53",
        "type": "t_array(t_uint256)48_storage"
      }
    ],
    "types": {
      "t_address": {
        "encoding": "inplace",
        "label": "address",
        "numberOfBytes": "20"
      },
      "t_array(t_uint256)48_storage": {
        "encoding": "inplace",
        "label": "uint256[48]",
        "numberOfBytes": "1536"
      },
      "t_array(t_uint256)49_storage": {
        "encoding": "inplace",
        "label": "uint256[49]",
        "numberOfBytes": "1568"
      },
      "t_bool": {
        "encoding": "inplace",
        "label": "bool",
        "numberOfBytes": "1"
      },
      "t_bytes32": {
        "encoding": "inplace",
        "label": "bytes32",
        "numberOfBytes": "32"
      },
      "t_mapping(t_bytes32,t_bool)": {
        "encoding": "mapping",
        "label": "mapping(bytes32 => bool)",
        "numberOfBytes": "32"
      },
      "t_struct(ResourceParams)1361_storage": {
        "encoding": "inplace",
        "label": "struct ResourceMetering.ResourceParams",
        "numberOfBytes": "32"
      },
      "t_uint128": {
        "encoding": "inplace",
        "label": "uint128",
        "numberOfBytes": "16"
      },
      "t_uint256": {
        "encoding": "inplace",
        "label": "uint256",
        "numberOfBytes": "32"
      },
      "t_uint64": {
        "encoding": "inplace",
        "label": "uint64",
        "numberOfBytes": "8"
      },
      "t_uint8": {
        "encoding": "inplace",
        "label": "uint8",
        "numberOfBytes": "1"
      }
    }
  }
}