{
  "abi": [
    {
      "anonymous": false,
      "inputs": [
        {
          "indexed": true,
          "internalType": "address",
          "name": "_localToken",
          "type": "address"
        },
        {
          "indexed": true,
          "internalType": "address",
          "name": "_remoteToken",
          "type": "address"
        },
        {
          "indexed": false,
          "internalType": "address",
          "name": "_deployer",
          "type": "address"
        }
      ],
      "name": "OptimismMintableTokenCreated",
      "type": "event"
    },
    {
      "anonymous": false,
      "inputs": [
        {
          "indexed": true,
          "internalType": "address",
          "name": "_remoteToken",
          "type": "address"
        },
        {
          "indexed": true,
          "internalType": "address",
          "name": "_localToken",
          "type": "address"
        }
      ],
      "name": "StandardL2TokenCreated",
      "type": "event"
    },
    {
      "inputs": [],
      "name": "bridge",
      "outputs": [
        {
          "internalType": "address",
          "name": "",
          "type": "address"
        }
      ],
      "stateMutability": "view",
      "type": "function"
    },
    {
      "inputs": [
        {
          "internalType": "address",
          "name": "_remoteToken",
          "type": "address"
        },
        {
          "internalType": "string",
          "name": "_name",
          "type": "string"
        },
        {
          "internalType": "string",
          "name": "_symbol",
          "type": "string"
        }
      ],
      "name": "createStandardL2Token",
      "outputs": [
        {
          "internalType": "address",
          "name": "",
          "type": "address"
        }
      ],
      "stateMutability": "nonpayable",
      "type": "function"
    },
    {
      "inputs": [
        {
          "internalType": "address",
          "name": "_bridge",
          "type": "address"
        }
      ],
      "name": "initialize",
      "outputs": [],
      "stateMutability": "nonpayable",
      "type": "function"
    }
  ],
  "bytecode": {
    "object": "0x608060405234801561001057600080fd5b50611bba806100206000396000f3fe608060405234801561001057600080fd5b50600436106100415760003560e01c8063896f93d114610046578063c4d66de814610082578063e78cea9214610097575b600080fd5b61005961005436600461049e565b6100b7565b60405173ffffffffffffffffffffffffffffffffffffffff909116815260200160405180910390f35b610095610090366004610512565b6102c7565b005b6000546100599073ffffffffffffffffffffffffffffffffffffffff1681565b600073ffffffffffffffffffffffffffffffffffffffff841661013b576040517f08c379a000000000000000000000000000000000000000000000000000000000815260206004820152601d60248201527f4d7573742070726f76696465204c3120746f6b656e206164647265737300000060448201526064015b60405180910390fd5b60005473ffffffffffffffffffffffffffffffffffffffff166101ba576040517f08c379a000000000000000000000000000000000000000000000000000000000815260206004820152601560248201527f4d75737420696e697469616c697a6520666972737400000000000000000000006044820152606401610132565b6000805460405173ffffffffffffffffffffffffffffffffffffffff909116908690869086906101e99061038e565b6101f6949392919061059f565b604051809103906000f080158015610212573d6000803e3d6000fd5b5090508073ffffffffffffffffffffffffffffffffffffffff168573ffffffffffffffffffffffffffffffffffffffff167fceeb8e7d520d7f3b65fc11a262b91066940193b05d4f93df07cfdced0eb551cf60405160405180910390a360405133815273ffffffffffffffffffffffffffffffffffffffff80831691908716907f72cbd08b640f0b122f70b68afaa96313a92e9d8f216385cef230260a3983da9d9060200160405180910390a3949350505050565b60005473ffffffffffffffffffffffffffffffffffffffff1615610347576040517f08c379a000000000000000000000000000000000000000000000000000000000815260206004820152601460248201527f416c726561647920696e697469616c697a65642e0000000000000000000000006044820152606401610132565b600080547fffffffffffffffffffffffff00000000000000000000000000000000000000001673ffffffffffffffffffffffffffffffffffffffff92909216919091179055565b6115b8806105f683390190565b803573ffffffffffffffffffffffffffffffffffffffff811681146103bf57600080fd5b919050565b7f4e487b7100000000000000000000000000000000000000000000000000000000600052604160045260246000fd5b600082601f83011261040457600080fd5b813567ffffffffffffffff8082111561041f5761041f6103c4565b604051601f83017fffffffffffffffffffffffffffffffffffffffffffffffffffffffffffffffe0908116603f01168101908282118183101715610465576104656103c4565b8160405283815286602085880101111561047e57600080fd5b836020870160208301376000602085830101528094505050505092915050565b6000806000606084860312156104b357600080fd5b6104bc8461039b565b9250602084013567ffffffffffffffff808211156104d957600080fd5b6104e5878388016103f3565b935060408601359150808211156104fb57600080fd5b50610508868287016103f3565b9150509250925092565b60006020828403121561052457600080fd5b61052d8261039b565b9392505050565b6000815180845260005b8181101561055a5760208185018101518683018201520161053e565b8181111561056c576000602083870101525b50601f017fffffffffffffffffffffffffffffffffffffffffffffffffffffffffffffffe0169290920160200192915050565b600073ffffffffffffffffffffffffffffffffffffffff8087168352808616602084015250608060408301526105d86080830185610534565b82810360608401526105ea8185610534565b97965050505050505056fe60806040523480156200001157600080fd5b50604051620015b8380380620015b883398101604081905262000034916200022f565b8151829082906200004d9060039060208501906200009f565b508051620000639060049060208401906200009f565b5050600580546001600160a01b039586166001600160a01b031991821617909155600680549690951695169490941790925550620002fc915050565b828054620000ad90620002bf565b90600052602060002090601f016020900481019282620000d157600085556200011c565b82601f10620000ec57805160ff19168380011785556200011c565b828001600101855582156200011c579182015b828111156200011c578251825591602001919060010190620000ff565b506200012a9291506200012e565b5090565b5b808211156200012a57600081556001016200012f565b80516001600160a01b03811681146200015d57600080fd5b919050565b634e487b7160e01b600052604160045260246000fd5b600082601f8301126200018a57600080fd5b81516001600160401b0380821115620001a757620001a762000162565b604051601f8301601f19908116603f01168101908282118183101715620001d257620001d262000162565b81604052838152602092508683858801011115620001ef57600080fd5b600091505b83821015620002135785820183015181830184015290820190620001f4565b83821115620002255760008385830101525b9695505050505050565b600080600080608085870312156200024657600080fd5b620002518562000145565b9350620002616020860162000145565b60408601519093506001600160401b03808211156200027f57600080fd5b6200028d8883890162000178565b93506060870151915080821115620002a457600080fd5b50620002b38782880162000178565b91505092959194509250565b600181811c90821680620002d457607f821691505b60208210811415620002f657634e487b7160e01b600052602260045260246000fd5b50919050565b6112ac806200030c6000396000f3fe608060405234801561001057600080fd5b50600436106101365760003560e01c806395d89b41116100b2578063ae1f6aaf11610081578063d6c0b2c411610066578063d6c0b2c4146102bb578063dd62ed3e146102db578063e78cea921461032157600080fd5b8063ae1f6aaf1461025e578063c01e1bd61461029d57600080fd5b806395d89b411461021d5780639dc29fac14610225578063a457c2d714610238578063a9059cbb1461024b57600080fd5b806323b872dd1161010957806339509351116100ee57806339509351146101bf57806340c10f19146101d257806370a08231146101e757600080fd5b806323b872dd1461019d578063313ce567146101b057600080fd5b806301ffc9a71461013b57806306fdde0314610163578063095ea7b31461017857806318160ddd1461018b575b600080fd5b61014e610149366004611054565b610341565b60405190151581526020015b60405180910390f35b61016b610452565b60405161015a919061109d565b61014e610186366004611139565b6104e4565b6002545b60405190815260200161015a565b61014e6101ab366004611163565b6104fc565b6040516012815260200161015a565b61014e6101cd366004611139565b610520565b6101e56101e0366004611139565b61056c565b005b61018f6101f536600461119f565b73ffffffffffffffffffffffffffffffffffffffff1660009081526020819052604090205490565b61016b610650565b6101e5610233366004611139565b61065f565b61014e610246366004611139565b610732565b61014e610259366004611139565b610803565b60065473ffffffffffffffffffffffffffffffffffffffff165b60405173ffffffffffffffffffffffffffffffffffffffff909116815260200161015a565b60055473ffffffffffffffffffffffffffffffffffffffff16610278565b6005546102789073ffffffffffffffffffffffffffffffffffffffff1681565b61018f6102e93660046111ba565b73ffffffffffffffffffffffffffffffffffffffff918216600090815260016020908152604080832093909416825291909152205490565b6006546102789073ffffffffffffffffffffffffffffffffffffffff1681565b60007f01ffc9a7a5cef8baa21ed3c5c0d7e23accb804b619e9333b597f47a0d84076e27f1d1d8b63000000000000000000000000000000000000000000000000000000007f0bc32271000000000000000000000000000000000000000000000000000000007fffffffff0000000000000000000000000000000000000000000000000000000085167f01ffc9a700000000000000000000000000000000000000000000000000000000148061041a57507fffffffff00000000000000000000000000000000000000000000000000000000858116908216145b8061044957507fffffffff00000000000000000000000000000000000000000000000000000000858116908316145b95945050505050565b606060038054610461906111ed565b80601f016020809104026020016040519081016040528092919081815260200182805461048d906111ed565b80156104da5780601f106104af576101008083540402835291602001916104da565b820191906000526020600020905b8154815290600101906020018083116104bd57829003601f168201915b5050505050905090565b6000336104f2818585610811565b5060019392505050565b60003361050a8582856109c5565b610515858585610a9c565b506001949350505050565b33600081815260016020908152604080832073ffffffffffffffffffffffffffffffffffffffff871684529091528120549091906104f29082908690610567908790611270565b610811565b60065473ffffffffffffffffffffffffffffffffffffffff1633146105f2576040517f08c379a000000000000000000000000000000000000000000000000000000000815260206004820181905260248201527f4f6e6c79204c32204272696467652063616e206d696e7420616e64206275726e60448201526064015b60405180910390fd5b6105fc8282610d4f565b8173ffffffffffffffffffffffffffffffffffffffff167f0f6798a560793a54c3bcfe86a93cde1e73087d944c0ea20544137d41213968858260405161064491815260200190565b60405180910390a25050565b606060048054610461906111ed565b60065473ffffffffffffffffffffffffffffffffffffffff1633146106e0576040517f08c379a000000000000000000000000000000000000000000000000000000000815260206004820181905260248201527f4f6e6c79204c32204272696467652063616e206d696e7420616e64206275726e60448201526064016105e9565b6106ea8282610e6f565b8173ffffffffffffffffffffffffffffffffffffffff167fcc16f5dbb4873280815c1ee09dbd06736cffcc184412cf7a71a0fdb75d397ca58260405161064491815260200190565b33600081815260016020908152604080832073ffffffffffffffffffffffffffffffffffffffff87168452909152812054909190838110156107f6576040517f08c379a000000000000000000000000000000000000000000000000000000000815260206004820152602560248201527f45524332303a2064656372656173656420616c6c6f77616e63652062656c6f7760448201527f207a65726f00000000000000000000000000000000000000000000000000000060648201526084016105e9565b6105158286868403610811565b6000336104f2818585610a9c565b73ffffffffffffffffffffffffffffffffffffffff83166108b3576040517f08c379a0000000000000000000000000000000000000000000000000000000008152602060048201526024808201527f45524332303a20617070726f76652066726f6d20746865207a65726f2061646460448201527f726573730000000000000000000000000000000000000000000000000000000060648201526084016105e9565b73ffffffffffffffffffffffffffffffffffffffff8216610956576040517f08c379a000000000000000000000000000000000000000000000000000000000815260206004820152602260248201527f45524332303a20617070726f766520746f20746865207a65726f20616464726560448201527f737300000000000000000000000000000000000000000000000000000000000060648201526084016105e9565b73ffffffffffffffffffffffffffffffffffffffff83811660008181526001602090815260408083209487168084529482529182902085905590518481527f8c5be1e5ebec7d5bd14f71427d1e84f3dd0314c0f7b2291e5b200ac8c7c3b92591015b60405180910390a3505050565b73ffffffffffffffffffffffffffffffffffffffff8381166000908152600160209081526040808320938616835292905220547fffffffffffffffffffffffffffffffffffffffffffffffffffffffffffffffff8114610a965781811015610a89576040517f08c379a000000000000000000000000000000000000000000000000000000000815260206004820152601d60248201527f45524332303a20696e73756666696369656e7420616c6c6f77616e636500000060448201526064016105e9565b610a968484848403610811565b50505050565b73ffffffffffffffffffffffffffffffffffffffff8316610b3f576040517f08c379a000000000000000000000000000000000000000000000000000000000815260206004820152602560248201527f45524332303a207472616e736665722066726f6d20746865207a65726f20616460448201527f647265737300000000000000000000000000000000000000000000000000000060648201526084016105e9565b73ffffffffffffffffffffffffffffffffffffffff8216610be2576040517f08c379a000000000000000000000000000000000000000000000000000000000815260206004820152602360248201527f45524332303a207472616e7366657220746f20746865207a65726f206164647260448201527f657373000000000000000000000000000000000000000000000000000000000060648201526084016105e9565b73ffffffffffffffffffffffffffffffffffffffff831660009081526020819052604090205481811015610c98576040517f08c379a000000000000000000000000000000000000000000000000000000000815260206004820152602660248201527f45524332303a207472616e7366657220616d6f756e742065786365656473206260448201527f616c616e6365000000000000000000000000000000000000000000000000000060648201526084016105e9565b73ffffffffffffffffffffffffffffffffffffffff808516600090815260208190526040808220858503905591851681529081208054849290610cdc908490611270565b925050819055508273ffffffffffffffffffffffffffffffffffffffff168473ffffffffffffffffffffffffffffffffffffffff167fddf252ad1be2c89b69c2b068fc378daa952ba7f163c4a11628f55a4df523b3ef84604051610d4291815260200190565b60405180910390a3610a96565b73ffffffffffffffffffffffffffffffffffffffff8216610dcc576040517f08c379a000000000000000000000000000000000000000000000000000000000815260206004820152601f60248201527f45524332303a206d696e7420746f20746865207a65726f20616464726573730060448201526064016105e9565b8060026000828254610dde9190611270565b909155505073ffffffffffffffffffffffffffffffffffffffff821660009081526020819052604081208054839290610e18908490611270565b909155505060405181815273ffffffffffffffffffffffffffffffffffffffff8316906000907fddf252ad1be2c89b69c2b068fc378daa952ba7f163c4a11628f55a4df523b3ef9060200160405180910390a35050565b73ffffffffffffffffffffffffffffffffffffffff8216610f12576040517f08c379a000000000000000000000000000000000000000000000000000000000815260206004820152602160248201527f45524332303a206275726e2066726f6d20746865207a65726f2061646472657360448201527f730000000000000000000000000000000000000000000000000000000000000060648201526084016105e9565b73ffffffffffffffffffffffffffffffffffffffff821660009081526020819052604090205481811015610fc8576040517f08c379a000000000000000000000000000000000000000000000000000000000815260206004820152602260248201527f45524332303a206275726e20616d6f756e7420657863656564732062616c616e60448201527f636500000000000000000000000000000000000000000000000000000000000060648201526084016105e9565b73ffffffffffffffffffffffffffffffffffffffff83166000908152602081905260408120838303905560028054849290611004908490611288565b909155505060405182815260009073ffffffffffffffffffffffffffffffffffffffff8516907fddf252ad1be2c89b69c2b068fc378daa952ba7f163c4a11628f55a4df523b3ef906020016109b8565b60006020828403121561106657600080fd5b81357fffffffff000000000000000000000000000000000000000000000000000000008116811461109657600080fd5b9392505050565b600060208083528351808285015260005b818110156110ca578581018301518582016040015282016110ae565b818111156110dc576000604083870101525b50601f017fffffffffffffffffffffffffffffffffffffffffffffffffffffffffffffffe016929092016040019392505050565b803573ffffffffffffffffffffffffffffffffffffffff8116811461113457600080fd5b919050565b6000806040838503121561114c57600080fd5b61115583611110565b946020939093013593505050565b60008060006060848603121561117857600080fd5b61118184611110565b925061118f60208501611110565b9150604084013590509250925092565b6000602082840312156111b157600080fd5b61109682611110565b600080604083850312156111cd57600080fd5b6111d683611110565b91506111e460208401611110565b90509250929050565b600181811c9082168061120157607f821691505b6020821081141561123b577f4e487b7100000000000000000000000000000000000000000000000000000000600052602260045260246000fd5b50919050565b7f4e487b7100000000000000000000000000000000000000000000000000000000600052601160045260246000fd5b6000821982111561128357611283611241565b500190565b60008282101561129a5761129a611241565b50039056fea164736f6c634300080a000aa164736f6c634300080a000a",
    "linkReferences": {}
  },
  "methodIdentifiers": {
    "bridge()": "e78cea92",
    "createStandardL2Token(address,string,string)": "896f93d1",
    "initialize(address)": "c4d66de8"
  }
}