{
  "address": "0x5D8A5964185Fa795DD294805ce7f78e438EcdB84",
  "abi": [
    {
      "type": "constructor",
      "inputs": [],
      "stateMutability": "nonpayable"
    },
    {
      "type": "receive",
      "stateMutability": "payable"
    },
    {
      "type": "function",
      "name": "MESSENGER",
      "inputs": [],
      "outputs": [
        {
          "name": "",
          "type": "address",
          "internalType": "contract CrossDomainMessenger"
        }
      ],
      "stateMutability": "view"
    },
    {
      "type": "function",
      "name": "OTHER_BRIDGE",
      "inputs": [],
      "outputs": [
        {
          "name": "",
          "type": "address",
          "internalType": "contract StandardBridge"
        }
      ],
      "stateMutability": "view"
    },
    {
      "type": "function",
      "name": "bridgeERC20",
      "inputs": [
        {
          "name": "_localToken",
          "type": "address",
          "internalType": "address"
        },
        {
          "name": "_remoteToken",
          "type": "address",
          "internalType": "address"
        },
        {
          "name": "_amount",
          "type": "uint256",
          "internalType": "uint256"
        },
        {
          "name": "_minGasLimit",
          "type": "uint32",
          "internalType": "uint32"
        },
        {
          "name": "_extraData",
          "type": "bytes",
          "internalType": "bytes"
        }
      ],
      "outputs": [],
      "stateMutability": "nonpayable"
    },
    {
      "type": "function",
      "name": "bridgeERC20To",
      "inputs": [
        {
          "name": "_localToken",
          "type": "address",
          "internalType": "address"
        },
        {
          "name": "_remoteToken",
          "type": "address",
          "internalType": "address"
        },
        {
          "name": "_to",
          "type": "address",
          "internalType": "address"
        },
        {
          "name": "_amount",
          "type": "uint256",
          "internalType": "uint256"
        },
        {
          "name": "_minGasLimit",
          "type": "uint32",
          "internalType": "uint32"
        },
        {
          "name": "_extraData",
          "type": "bytes",
          "internalType": "bytes"
        }
      ],
      "outputs": [],
      "stateMutability": "nonpayable"
    },
    {
      "type": "function",
      "name": "bridgeETH",
      "inputs": [
        {
          "name": "_minGasLimit",
          "type": "uint32",
          "internalType": "uint32"
        },
        {
          "name": "_extraData",
          "type": "bytes",
          "internalType": "bytes"
        }
      ],
      "outputs": [],
      "stateMutability": "payable"
    },
    {
      "type": "function",
      "name": "bridgeETHTo",
      "inputs": [
        {
          "name": "_to",
          "type": "address",
          "internalType": "address"
        },
        {
          "name": "_minGasLimit",
          "type": "uint32",
          "internalType": "uint32"
        },
        {
          "name": "_extraData",
          "type": "bytes",
          "internalType": "bytes"
        }
      ],
      "outputs": [],
      "stateMutability": "payable"
    },
    {
      "type": "function",
      "name": "depositERC20",
      "inputs": [
        {
          "name": "_l1Token",
          "type": "address",
          "internalType": "address"
        },
        {
          "name": "_l2Token",
          "type": "address",
          "internalType": "address"
        },
        {
          "name": "_amount",
          "type": "uint256",
          "internalType": "uint256"
        },
        {
          "name": "_minGasLimit",
          "type": "uint32",
          "internalType": "uint32"
        },
        {
          "name": "_extraData",
          "type": "bytes",
          "internalType": "bytes"
        }
      ],
      "outputs": [],
      "stateMutability": "nonpayable"
    },
    {
      "type": "function",
      "name": "depositERC20To",
      "inputs": [
        {
          "name": "_l1Token",
          "type": "address",
          "internalType": "address"
        },
        {
          "name": "_l2Token",
          "type": "address",
          "internalType": "address"
        },
        {
          "name": "_to",
          "type": "address",
          "internalType": "address"
        },
        {
          "name": "_amount",
          "type": "uint256",
          "internalType": "uint256"
        },
        {
          "name": "_minGasLimit",
          "type": "uint32",
          "internalType": "uint32"
        },
        {
          "name": "_extraData",
          "type": "bytes",
          "internalType": "bytes"
        }
      ],
      "outputs": [],
      "stateMutability": "nonpayable"
    },
    {
      "type": "function",
      "name": "depositETH",
      "inputs": [
        {
          "name": "_minGasLimit",
          "type": "uint32",
          "internalType": "uint32"
        },
        {
          "name": "_extraData",
          "type": "bytes",
          "internalType": "bytes"
        }
      ],
      "outputs": [],
      "stateMutability": "payable"
    },
    {
      "type": "function",
      "name": "depositETHTo",
      "inputs": [
        {
          "name": "_to",
          "type": "address",
          "internalType": "address"
        },
        {
          "name": "_minGasLimit",
          "type": "uint32",
          "internalType": "uint32"
        },
        {
          "name": "_extraData",
          "type": "bytes",
          "internalType": "bytes"
        }
      ],
      "outputs": [],
      "stateMutability": "payable"
    },
    {
      "type": "function",
      "name": "deposits",
      "inputs": [
        {
          "name": "",
          "type": "address",
          "internalType": "address"
        },
        {
          "name": "",
          "type": "address",
          "internalType": "address"
        }
      ],
      "outputs": [
        {
          "name": "",
          "type": "uint256",
          "internalType": "uint256"
        }
      ],
      "stateMutability": "view"
    },
    {
      "type": "function",
      "name": "finalizeBridgeERC20",
      "inputs": [
        {
          "name": "_localToken",
          "type": "address",
          "internalType": "address"
        },
        {
          "name": "_remoteToken",
          "type": "address",
          "internalType": "address"
        },
        {
          "name": "_from",
          "type": "address",
          "internalType": "address"
        },
        {
          "name": "_to",
          "type": "address",
          "internalType": "address"
        },
        {
          "name": "_amount",
          "type": "uint256",
          "internalType": "uint256"
        },
        {
          "name": "_extraData",
          "type": "bytes",
          "internalType": "bytes"
        }
      ],
      "outputs": [],
      "stateMutability": "nonpayable"
    },
    {
      "type": "function",
      "name": "finalizeBridgeETH",
      "inputs": [
        {
          "name": "_from",
          "type": "address",
          "internalType": "address"
        },
        {
          "name": "_to",
          "type": "address",
          "internalType": "address"
        },
        {
          "name": "_amount",
          "type": "uint256",
          "internalType": "uint256"
        },
        {
          "name": "_extraData",
          "type": "bytes",
          "internalType": "bytes"
        }
      ],
      "outputs": [],
      "stateMutability": "payable"
    },
    {
      "type": "function",
      "name": "finalizeERC20Withdrawal",
      "inputs": [
        {
          "name": "_l1Token",
          "type": "address",
          "internalType": "address"
        },
        {
          "name": "_l2Token",
          "type": "address",
          "internalType": "address"
        },
        {
          "name": "_from",
          "type": "address",
          "internalType": "address"
        },
        {
          "name": "_to",
          "type": "address",
          "internalType": "address"
        },
        {
          "name": "_amount",
          "type": "uint256",
          "internalType": "uint256"
        },
        {
          "name": "_extraData",
          "type": "bytes",
          "internalType": "bytes"
        }
      ],
      "outputs": [],
      "stateMutability": "nonpayable"
    },
    {
      "type": "function",
      "name": "finalizeETHWithdrawal",
      "inputs": [
        {
          "name": "_from",
          "type": "address",
          "internalType": "address"
        },
        {
          "name": "_to",
          "type": "address",
          "internalType": "address"
        },
        {
          "name": "_amount",
          "type": "uint256",
          "internalType": "uint256"
        },
        {
          "name": "_extraData",
          "type": "bytes",
          "internalType": "bytes"
        }
      ],
      "outputs": [],
      "stateMutability": "payable"
    },
    {
      "type": "function",
      "name": "initialize",
      "inputs": [
        {
          "name": "_messenger",
          "type": "address",
          "internalType": "contract CrossDomainMessenger"
        },
        {
          "name": "_superchainConfig",
          "type": "address",
          "internalType": "contract SuperchainConfig"
        },
        {
          "name": "_systemConfig",
          "type": "address",
          "internalType": "contract SystemConfig"
        }
      ],
      "outputs": [],
      "stateMutability": "nonpayable"
    },
    {
      "type": "function",
      "name": "l2TokenBridge",
      "inputs": [],
      "outputs": [
        {
          "name": "",
          "type": "address",
          "internalType": "address"
        }
      ],
      "stateMutability": "view"
    },
    {
      "type": "function",
      "name": "messenger",
      "inputs": [],
      "outputs": [
        {
          "name": "",
          "type": "address",
          "internalType": "contract CrossDomainMessenger"
        }
      ],
      "stateMutability": "view"
    },
    {
      "type": "function",
      "name": "otherBridge",
      "inputs": [],
      "outputs": [
        {
          "name": "",
          "type": "address",
          "internalType": "contract StandardBridge"
        }
      ],
      "stateMutability": "view"
    },
    {
      "type": "function",
      "name": "paused",
      "inputs": [],
      "outputs": [
        {
          "name": "",
          "type": "bool",
          "internalType": "bool"
        }
      ],
      "stateMutability": "view"
    },
    {
      "type": "function",
      "name": "setSuperchainConfig",
      "inputs": [
        {
          "name": "_superchainConfig",
          "type": "address",
          "internalType": "contract SuperchainConfig"
        }
      ],
      "outputs": [],
      "stateMutability": "nonpayable"
    },
    {
      "type": "function",
      "name": "superchainConfig",
      "inputs": [],
      "outputs": [
        {
          "name": "",
          "type": "address",
          "internalType": "contract SuperchainConfig"
        }
      ],
      "stateMutability": "view"
    },
    {
      "type": "function",
      "name": "systemConfig",
      "inputs": [],
      "outputs": [
        {
          "name": "",
          "type": "address",
          "internalType": "contract SystemConfig"
        }
      ],
      "stateMutability": "view"
    },
    {
      "type": "function",
      "name": "version",
      "inputs": [],
      "outputs": [
        {
          "name": "",
          "type": "string",
          "internalType": "string"
        }
      ],
      "stateMutability": "view"
    },
    {
      "type": "event",
      "name": "ERC20BridgeFinalized",
      "inputs": [
        {
          "name": "localToken",
          "type": "address",
          "indexed": true,
          "internalType": "address"
        },
        {
          "name": "remoteToken",
          "type": "address",
          "indexed": true,
          "internalType": "address"
        },
        {
          "name": "from",
          "type": "address",
          "indexed": true,
          "internalType": "address"
        },
        {
          "name": "to",
          "type": "address",
          "indexed": false,
          "internalType": "address"
        },
        {
          "name": "amount",
          "type": "uint256",
          "indexed": false,
          "internalType": "uint256"
        },
        {
          "name": "extraData",
          "type": "bytes",
          "indexed": false,
          "internalType": "bytes"
        }
      ],
      "anonymous": false
    },
    {
      "type": "event",
      "name": "ERC20BridgeInitiated",
      "inputs": [
        {
          "name": "localToken",
          "type": "address",
          "indexed": true,
          "internalType": "address"
        },
        {
          "name": "remoteToken",
          "type": "address",
          "indexed": true,
          "internalType": "address"
        },
        {
          "name": "from",
          "type": "address",
          "indexed": true,
          "internalType": "address"
        },
        {
          "name": "to",
          "type": "address",
          "indexed": false,
          "internalType": "address"
        },
        {
          "name": "amount",
          "type": "uint256",
          "indexed": false,
          "internalType": "uint256"
        },
        {
          "name": "extraData",
          "type": "bytes",
          "indexed": false,
          "internalType": "bytes"
        }
      ],
      "anonymous": false
    },
    {
      "type": "event",
      "name": "ERC20DepositInitiated",
      "inputs": [
        {
          "name": "l1Token",
          "type": "address",
          "indexed": true,
          "internalType": "address"
        },
        {
          "name": "l2Token",
          "type": "address",
          "indexed": true,
          "internalType": "address"
        },
        {
          "name": "from",
          "type": "address",
          "indexed": true,
          "internalType": "address"
        },
        {
          "name": "to",
          "type": "address",
          "indexed": false,
          "internalType": "address"
        },
        {
          "name": "amount",
          "type": "uint256",
          "indexed": false,
          "internalType": "uint256"
        },
        {
          "name": "extraData",
          "type": "bytes",
          "indexed": false,
          "internalType": "bytes"
        }
      ],
      "anonymous": false
    },
    {
      "type": "event",
      "name": "ERC20WithdrawalFinalized",
      "inputs": [
        {
          "name": "l1Token",
          "type": "address",
          "indexed": true,
          "internalType": "address"
        },
        {
          "name": "l2Token",
          "type": "address",
          "indexed": true,
          "internalType": "address"
        },
        {
          "name": "from",
          "type": "address",
          "indexed": true,
          "internalType": "address"
        },
        {
          "name": "to",
          "type": "address",
          "indexed": false,
          "internalType": "address"
        },
        {
          "name": "amount",
          "type": "uint256",
          "indexed": false,
          "internalType": "uint256"
        },
        {
          "name": "extraData",
          "type": "bytes",
          "indexed": false,
          "internalType": "bytes"
        }
      ],
      "anonymous": false
    },
    {
      "type": "event",
      "name": "ETHBridgeFinalized",
      "inputs": [
        {
          "name": "from",
          "type": "address",
          "indexed": true,
          "internalType": "address"
        },
        {
          "name": "to",
          "type": "address",
          "indexed": true,
          "internalType": "address"
        },
        {
          "name": "amount",
          "type": "uint256",
          "indexed": false,
          "internalType": "uint256"
        },
        {
          "name": "extraData",
          "type": "bytes",
          "indexed": false,
          "internalType": "bytes"
        }
      ],
      "anonymous": false
    },
    {
      "type": "event",
      "name": "ETHBridgeInitiated",
      "inputs": [
        {
          "name": "from",
          "type": "address",
          "indexed": true,
          "internalType": "address"
        },
        {
          "name": "to",
          "type": "address",
          "indexed": true,
          "internalType": "address"
        },
        {
          "name": "amount",
          "type": "uint256",
          "indexed": false,
          "internalType": "uint256"
        },
        {
          "name": "extraData",
          "type": "bytes",
          "indexed": false,
          "internalType": "bytes"
        }
      ],
      "anonymous": false
    },
    {
      "type": "event",
      "name": "ETHDepositInitiated",
      "inputs": [
        {
          "name": "from",
          "type": "address",
          "indexed": true,
          "internalType": "address"
        },
        {
          "name": "to",
          "type": "address",
          "indexed": true,
          "internalType": "address"
        },
        {
          "name": "amount",
          "type": "uint256",
          "indexed": false,
          "internalType": "uint256"
        },
        {
          "name": "extraData",
          "type": "bytes",
          "indexed": false,
          "internalType": "bytes"
        }
      ],
      "anonymous": false
    },
    {
      "type": "event",
      "name": "ETHWithdrawalFinalized",
      "inputs": [
        {
          "name": "from",
          "type": "address",
          "indexed": true,
          "internalType": "address"
        },
        {
          "name": "to",
          "type": "address",
          "indexed": true,
          "internalType": "address"
        },
        {
          "name": "amount",
          "type": "uint256",
          "indexed": false,
          "internalType": "uint256"
        },
        {
          "name": "extraData",
          "type": "bytes",
          "indexed": false,
          "internalType": "bytes"
        }
      ],
      "anonymous": false
    },
    {
      "type": "event",
      "name": "Initialized",
      "inputs": [
        {
          "name": "version",
          "type": "uint8",
          "indexed": false,
          "internalType": "uint8"
        }
      ],
      "anonymous": false
    }
  ],
  "transactionHash": "0xbc37dea16d4ea971e63409a17f8e129b51e52c48788d73290ab23fb5b890a5c5",
  "args": [],
  "numDeployments": 1,
  "bytecode": "0x60806040523480156200001157600080fd5b50620000206000808062000026565b6200024b565b600054610100900460ff1615808015620000475750600054600160ff909116105b806200007757506200006430620001a160201b620005b41760201c565b15801562000077575060005460ff166001145b620000e05760405162461bcd60e51b815260206004820152602e60248201527f496e697469616c697a61626c653a20636f6e747261637420697320616c72656160448201526d191e481a5b9a5d1a585b1a5e995960921b60648201526084015b60405180910390fd5b6000805460ff19166001179055801562000104576000805461ff0019166101001790555b603280546001600160a01b038086166001600160a01b03199283161790925560338054928516929091169190911790556200015484734200000000000000000000000000000000000010620001b0565b80156200019b576000805461ff0019169055604051600181527f7f26b83ff96e1f2b6a682f133852f6798a09c465da95921460cefb38474024989060200160405180910390a15b50505050565b6001600160a01b03163b151590565b600054610100900460ff166200021d5760405162461bcd60e51b815260206004820152602b60248201527f496e697469616c697a61626c653a20636f6e7472616374206973206e6f74206960448201526a6e697469616c697a696e6760a81b6064820152608401620000d7565b600380546001600160a01b039384166001600160a01b03199182161790915560048054929093169116179055565b613190806200025b6000396000f3fe60806040526004361061018f5760003560e01c8063838b2520116100d6578063a9f9e6751161007f578063c89701a211610059578063c89701a214610554578063e11013dd14610581578063e23754da1461059457600080fd5b8063a9f9e67514610501578063b1a1a88214610521578063c0c53b8b1461053457600080fd5b806391c49bf8116100b057806391c49bf814610412578063927ede2d146104c35780639a2ac6d5146104ee57600080fd5b8063838b25201461043d578063870876231461045d5780638f601f661461047d57600080fd5b80633cb747bf1161013857806358a997f61161011257806358a997f6146103cd5780635c975abb146103ed5780637f46ddb21461041257600080fd5b80633cb747bf1461032a578063540abf731461035757806354fd4d501461037757600080fd5b80631635f5fd116101695780631635f5fd1461029357806333d7e2bd146102a657806335e80ab3146102fd57600080fd5b80630166a07a1461024d57806309fc88431461026d5780631532ec341461028057600080fd5b3661024857333b15610228576040517f08c379a000000000000000000000000000000000000000000000000000000000815260206004820152603760248201527f5374616e646172644272696467653a2066756e6374696f6e2063616e206f6e6c60448201527f792062652063616c6c65642066726f6d20616e20454f4100000000000000000060648201526084015b60405180910390fd5b610246333362030d40604051806020016040528060008152506105d0565b005b600080fd5b34801561025957600080fd5b50610246610268366004612b57565b6105e3565b61024661027b366004612c08565b6109fd565b61024661028e366004612c5b565b610ad4565b6102466102a1366004612c5b565b610ae8565b3480156102b257600080fd5b506033546102d39073ffffffffffffffffffffffffffffffffffffffff1681565b60405173ffffffffffffffffffffffffffffffffffffffff90911681526020015b60405180910390f35b34801561030957600080fd5b506032546102d39073ffffffffffffffffffffffffffffffffffffffff1681565b34801561033657600080fd5b506003546102d39073ffffffffffffffffffffffffffffffffffffffff1681565b34801561036357600080fd5b50610246610372366004612cce565b611046565b34801561038357600080fd5b506103c06040518060400160405280600581526020017f322e322e3000000000000000000000000000000000000000000000000000000081525081565b6040516102f49190612dbb565b3480156103d957600080fd5b506102466103e8366004612dce565b61108b565b3480156103f957600080fd5b5061040261115f565b60405190151581526020016102f4565b34801561041e57600080fd5b5060045473ffffffffffffffffffffffffffffffffffffffff166102d3565b34801561044957600080fd5b50610246610458366004612cce565b6111f8565b34801561046957600080fd5b50610246610478366004612dce565b61123d565b34801561048957600080fd5b506104b5610498366004612e51565b600260209081526000928352604080842090915290825290205481565b6040519081526020016102f4565b3480156104cf57600080fd5b5060035473ffffffffffffffffffffffffffffffffffffffff166102d3565b6102466104fc366004612e8a565b611311565b34801561050d57600080fd5b5061024661051c366004612b57565b611353565b61024661052f366004612c08565b611362565b34801561054057600080fd5b5061024661054f366004612eed565b611433565b34801561056057600080fd5b506004546102d39073ffffffffffffffffffffffffffffffffffffffff1681565b61024661058f366004612e8a565b611632565b3480156105a057600080fd5b506102466105af366004612f38565b611675565b73ffffffffffffffffffffffffffffffffffffffff163b151590565b6105dd848434858561173c565b50505050565b60035473ffffffffffffffffffffffffffffffffffffffff16331480156106b6575060048054600354604080517f6e296e45000000000000000000000000000000000000000000000000000000008152905173ffffffffffffffffffffffffffffffffffffffff938416949390921692636e296e459282820192602092908290030181865afa15801561067a573d6000803e3d6000fd5b505050506040513d601f19601f8201168201806040525081019061069e9190612f55565b73ffffffffffffffffffffffffffffffffffffffff16145b610768576040517f08c379a000000000000000000000000000000000000000000000000000000000815260206004820152604160248201527f5374616e646172644272696467653a2066756e6374696f6e2063616e206f6e6c60448201527f792062652063616c6c65642066726f6d20746865206f7468657220627269646760648201527f6500000000000000000000000000000000000000000000000000000000000000608482015260a40161021f565b61077061115f565b156107d7576040517f08c379a000000000000000000000000000000000000000000000000000000000815260206004820152601660248201527f5374616e646172644272696467653a2070617573656400000000000000000000604482015260640161021f565b6107e08761199b565b1561092e576107ef87876119fd565b6108a1576040517f08c379a000000000000000000000000000000000000000000000000000000000815260206004820152604a60248201527f5374616e646172644272696467653a2077726f6e672072656d6f746520746f6b60448201527f656e20666f72204f7074696d69736d204d696e7461626c65204552433230206c60648201527f6f63616c20746f6b656e00000000000000000000000000000000000000000000608482015260a40161021f565b6040517f40c10f1900000000000000000000000000000000000000000000000000000000815273ffffffffffffffffffffffffffffffffffffffff8581166004830152602482018590528816906340c10f1990604401600060405180830381600087803b15801561091157600080fd5b505af1158015610925573d6000803e3d6000fd5b505050506109b0565b73ffffffffffffffffffffffffffffffffffffffff8088166000908152600260209081526040808320938a168352929052205461096c908490612fa1565b73ffffffffffffffffffffffffffffffffffffffff8089166000818152600260209081526040808320948c16835293905291909120919091556109b0908585611b1d565b6109f4878787878787878080601f016020809104026020016040519081016040528093929190818152602001838380828437600092019190915250611bf192505050565b50505050505050565b333b15610a8c576040517f08c379a000000000000000000000000000000000000000000000000000000000815260206004820152603760248201527f5374616e646172644272696467653a2066756e6374696f6e2063616e206f6e6c60448201527f792062652063616c6c65642066726f6d20616e20454f41000000000000000000606482015260840161021f565b610acf3333348686868080601f01602080910402602001604051908101604052809392919081815260200183838082843760009201919091525061173c92505050565b505050565b610ae18585858585610ae8565b5050505050565b60035473ffffffffffffffffffffffffffffffffffffffff1633148015610bbb575060048054600354604080517f6e296e45000000000000000000000000000000000000000000000000000000008152905173ffffffffffffffffffffffffffffffffffffffff938416949390921692636e296e459282820192602092908290030181865afa158015610b7f573d6000803e3d6000fd5b505050506040513d601f19601f82011682018060405250810190610ba39190612f55565b73ffffffffffffffffffffffffffffffffffffffff16145b610c6d576040517f08c379a000000000000000000000000000000000000000000000000000000000815260206004820152604160248201527f5374616e646172644272696467653a2066756e6374696f6e2063616e206f6e6c60448201527f792062652063616c6c65642066726f6d20746865206f7468657220627269646760648201527f6500000000000000000000000000000000000000000000000000000000000000608482015260a40161021f565b610c7561115f565b15610cdc576040517f08c379a000000000000000000000000000000000000000000000000000000000815260206004820152601660248201527f5374616e646172644272696467653a2070617573656400000000000000000000604482015260640161021f565b610ce4611c7f565b15610d71576040517f08c379a000000000000000000000000000000000000000000000000000000000815260206004820152603760248201527f5374616e646172644272696467653a2063616e6e6f742062726964676520455460448201527f48207769746820637573746f6d2067617320746f6b656e000000000000000000606482015260840161021f565b823414610e00576040517f08c379a000000000000000000000000000000000000000000000000000000000815260206004820152603a60248201527f5374616e646172644272696467653a20616d6f756e742073656e7420646f657360448201527f206e6f74206d6174636820616d6f756e74207265717569726564000000000000606482015260840161021f565b3073ffffffffffffffffffffffffffffffffffffffff851603610ea5576040517f08c379a000000000000000000000000000000000000000000000000000000000815260206004820152602360248201527f5374616e646172644272696467653a2063616e6e6f742073656e6420746f207360448201527f656c660000000000000000000000000000000000000000000000000000000000606482015260840161021f565b60035473ffffffffffffffffffffffffffffffffffffffff90811690851603610f50576040517f08c379a000000000000000000000000000000000000000000000000000000000815260206004820152602860248201527f5374616e646172644272696467653a2063616e6e6f742073656e6420746f206d60448201527f657373656e676572000000000000000000000000000000000000000000000000606482015260840161021f565b610f9285858585858080601f016020809104026020016040519081016040528093929190818152602001838380828437600092019190915250611cbe92505050565b6000610faf855a8660405180602001604052806000815250611d31565b90508061103e576040517f08c379a000000000000000000000000000000000000000000000000000000000815260206004820152602360248201527f5374616e646172644272696467653a20455448207472616e736665722066616960448201527f6c65640000000000000000000000000000000000000000000000000000000000606482015260840161021f565b505050505050565b6109f487873388888888888080601f016020809104026020016040519081016040528093929190818152602001838380828437600092019190915250611d4b92505050565b333b1561111a576040517f08c379a000000000000000000000000000000000000000000000000000000000815260206004820152603760248201527f5374616e646172644272696467653a2066756e6374696f6e2063616e206f6e6c60448201527f792062652063616c6c65642066726f6d20616e20454f41000000000000000000606482015260840161021f565b61103e86863333888888888080601f01602080910402602001604051908101604052809392919081815260200183838082843760009201919091525061210492505050565b603254604080517f5c975abb000000000000000000000000000000000000000000000000000000008152905160009273ffffffffffffffffffffffffffffffffffffffff1691635c975abb9160048083019260209291908290030181865afa1580156111cf573d6000803e3d6000fd5b505050506040513d601f19601f820116820180604052508101906111f39190612fb8565b905090565b6109f487873388888888888080601f01602080910402602001604051908101604052809392919081815260200183838082843760009201919091525061210492505050565b333b156112cc576040517f08c379a000000000000000000000000000000000000000000000000000000000815260206004820152603760248201527f5374616e646172644272696467653a2066756e6374696f6e2063616e206f6e6c60448201527f792062652063616c6c65642066726f6d20616e20454f41000000000000000000606482015260840161021f565b61103e86863333888888888080601f016020809104026020016040519081016040528093929190818152602001838380828437600092019190915250611d4b92505050565b6105dd33858585858080601f0160208091040260200160405190810160405280939291908181526020018383808284376000920191909152506105d092505050565b6109f4878787878787876105e3565b333b156113f1576040517f08c379a000000000000000000000000000000000000000000000000000000000815260206004820152603760248201527f5374616e646172644272696467653a2066756e6374696f6e2063616e206f6e6c60448201527f792062652063616c6c65642066726f6d20616e20454f41000000000000000000606482015260840161021f565b610acf33338585858080601f0160208091040260200160405190810160405280939291908181526020018383808284376000920191909152506105d092505050565b600054610100900460ff16158080156114535750600054600160ff909116105b8061146d5750303b15801561146d575060005460ff166001145b6114f9576040517f08c379a000000000000000000000000000000000000000000000000000000000815260206004820152602e60248201527f496e697469616c697a61626c653a20636f6e747261637420697320616c72656160448201527f647920696e697469616c697a6564000000000000000000000000000000000000606482015260840161021f565b600080547fffffffffffffffffffffffffffffffffffffffffffffffffffffffffffffff00166001179055801561155757600080547fffffffffffffffffffffffffffffffffffffffffffffffffffffffffffff00ff166101001790555b6032805473ffffffffffffffffffffffffffffffffffffffff8086167fffffffffffffffffffffffff00000000000000000000000000000000000000009283161790925560338054928516929091169190911790556115ca847342000000000000000000000000000000000000106121e5565b80156105dd57600080547fffffffffffffffffffffffffffffffffffffffffffffffffffffffffffff00ff169055604051600181527f7f26b83ff96e1f2b6a682f133852f6798a09c465da95921460cefb38474024989060200160405180910390a150505050565b6105dd3385348686868080601f01602080910402602001604051908101604052809392919081815260200183838082843760009201919091525061173c92505050565b60325473ffffffffffffffffffffffffffffffffffffffff16156116f5576040517f08c379a000000000000000000000000000000000000000000000000000000000815260206004820152601c60248201527f5375706572636861696e436f6e66696720616c72656164792073657400000000604482015260640161021f565b603280547fffffffffffffffffffffffff00000000000000000000000000000000000000001673ffffffffffffffffffffffffffffffffffffffff92909216919091179055565b611744611c7f565b156117d1576040517f08c379a000000000000000000000000000000000000000000000000000000000815260206004820152603760248201527f5374616e646172644272696467653a2063616e6e6f742062726964676520455460448201527f48207769746820637573746f6d2067617320746f6b656e000000000000000000606482015260840161021f565b823414611860576040517f08c379a000000000000000000000000000000000000000000000000000000000815260206004820152603e60248201527f5374616e646172644272696467653a206272696467696e6720455448206d757360448201527f7420696e636c7564652073756666696369656e74204554482076616c75650000606482015260840161021f565b61186c858585846122cf565b60035460045460405173ffffffffffffffffffffffffffffffffffffffff92831692633dbb202b9287929116907f1635f5fd00000000000000000000000000000000000000000000000000000000906118cf908b908b9086908a90602401612fda565b604080517fffffffffffffffffffffffffffffffffffffffffffffffffffffffffffffffe08184030181529181526020820180517bffffffffffffffffffffffffffffffffffffffffffffffffffffffff167fffffffff000000000000000000000000000000000000000000000000000000009485161790525160e086901b909216825261196292918890600401613023565b6000604051808303818588803b15801561197b57600080fd5b505af115801561198f573d6000803e3d6000fd5b50505050505050505050565b60006119c7827f1d1d8b6300000000000000000000000000000000000000000000000000000000612342565b806119f757506119f7827fec4fc8e300000000000000000000000000000000000000000000000000000000612342565b92915050565b6000611a29837f1d1d8b6300000000000000000000000000000000000000000000000000000000612342565b15611ad2578273ffffffffffffffffffffffffffffffffffffffff1663c01e1bd66040518163ffffffff1660e01b8152600401602060405180830381865afa158015611a79573d6000803e3d6000fd5b505050506040513d601f19601f82011682018060405250810190611a9d9190612f55565b73ffffffffffffffffffffffffffffffffffffffff168273ffffffffffffffffffffffffffffffffffffffff161490506119f7565b8273ffffffffffffffffffffffffffffffffffffffff1663d6c0b2c46040518163ffffffff1660e01b8152600401602060405180830381865afa158015611a79573d6000803e3d6000fd5b60405173ffffffffffffffffffffffffffffffffffffffff8316602482015260448101829052610acf9084907fa9059cbb00000000000000000000000000000000000000000000000000000000906064015b604080517fffffffffffffffffffffffffffffffffffffffffffffffffffffffffffffffe08184030181529190526020810180517bffffffffffffffffffffffffffffffffffffffffffffffffffffffff167fffffffff0000000000000000000000000000000000000000000000000000000090931692909217909152612365565b8373ffffffffffffffffffffffffffffffffffffffff168573ffffffffffffffffffffffffffffffffffffffff168773ffffffffffffffffffffffffffffffffffffffff167f3ceee06c1e37648fcbb6ed52e17b3e1f275a1f8c7b22a84b2b84732431e046b3868686604051611c6993929190613068565b60405180910390a461103e868686868686612471565b600080611c8a6124f9565b5073ffffffffffffffffffffffffffffffffffffffff1673eeeeeeeeeeeeeeeeeeeeeeeeeeeeeeeeeeeeeeee141592915050565b8273ffffffffffffffffffffffffffffffffffffffff168473ffffffffffffffffffffffffffffffffffffffff167f2ac69ee804d9a7a0984249f508dfab7cb2534b465b6ce1580f99a38ba9c5e6318484604051611d1d9291906130a6565b60405180910390a36105dd84848484612596565b600080600080845160208601878a8af19695505050505050565b3415611dd9576040517f08c379a000000000000000000000000000000000000000000000000000000000815260206004820152602160248201527f5374616e646172644272696467653a2063616e6e6f742073656e642076616c7560448201527f6500000000000000000000000000000000000000000000000000000000000000606482015260840161021f565b611de28761199b565b15611f3057611df187876119fd565b611ea3576040517f08c379a000000000000000000000000000000000000000000000000000000000815260206004820152604a60248201527f5374616e646172644272696467653a2077726f6e672072656d6f746520746f6b60448201527f656e20666f72204f7074696d69736d204d696e7461626c65204552433230206c60648201527f6f63616c20746f6b656e00000000000000000000000000000000000000000000608482015260a40161021f565b6040517f9dc29fac00000000000000000000000000000000000000000000000000000000815273ffffffffffffffffffffffffffffffffffffffff868116600483015260248201859052881690639dc29fac90604401600060405180830381600087803b158015611f1357600080fd5b505af1158015611f27573d6000803e3d6000fd5b50505050611fc4565b611f5273ffffffffffffffffffffffffffffffffffffffff8816863086612603565b73ffffffffffffffffffffffffffffffffffffffff8088166000908152600260209081526040808320938a1683529290522054611f909084906130bf565b73ffffffffffffffffffffffffffffffffffffffff8089166000908152600260209081526040808320938b16835292905220555b611fd2878787878786612661565b60035460045460405173ffffffffffffffffffffffffffffffffffffffff92831692633dbb202b9216907f0166a07a0000000000000000000000000000000000000000000000000000000090612036908b908d908c908c908c908b906024016130d7565b604080517fffffffffffffffffffffffffffffffffffffffffffffffffffffffffffffffe08184030181529181526020820180517bffffffffffffffffffffffffffffffffffffffffffffffffffffffff167fffffffff000000000000000000000000000000000000000000000000000000009485161790525160e085901b90921682526120c992918790600401613023565b600060405180830381600087803b1580156120e357600080fd5b505af11580156120f7573d6000803e3d6000fd5b5050505050505050505050565b600061210e6124f9565b5090508073ffffffffffffffffffffffffffffffffffffffff168873ffffffffffffffffffffffffffffffffffffffff16036121cc576040517f08c379a000000000000000000000000000000000000000000000000000000000815260206004820152603560248201527f43616e6e6f74206465706f7369742067617320706179696e6720746f6b656e2060448201527f66726f6d204c315374616e646172644272696467650000000000000000000000606482015260840161021f565b6121db88888888888888611d4b565b5050505050505050565b600054610100900460ff1661227c576040517f08c379a000000000000000000000000000000000000000000000000000000000815260206004820152602b60248201527f496e697469616c697a61626c653a20636f6e7472616374206973206e6f74206960448201527f6e697469616c697a696e67000000000000000000000000000000000000000000606482015260840161021f565b6003805473ffffffffffffffffffffffffffffffffffffffff9384167fffffffffffffffffffffffff00000000000000000000000000000000000000009182161790915560048054929093169116179055565b8273ffffffffffffffffffffffffffffffffffffffff168473ffffffffffffffffffffffffffffffffffffffff167f35d79ab81f2b2017e19afb5c5571778877782d7a8786f5907f93b0f4702f4f23848460405161232e9291906130a6565b60405180910390a36105dd848484846126ef565b600061234d8361274e565b801561235e575061235e83836127b2565b9392505050565b60006123c7826040518060400160405280602081526020017f5361666545524332303a206c6f772d6c6576656c2063616c6c206661696c65648152508573ffffffffffffffffffffffffffffffffffffffff166128819092919063ffffffff16565b805190915015610acf57808060200190518101906123e59190612fb8565b610acf576040517f08c379a000000000000000000000000000000000000000000000000000000000815260206004820152602a60248201527f5361666545524332303a204552433230206f7065726174696f6e20646964206e60448201527f6f74207375636365656400000000000000000000000000000000000000000000606482015260840161021f565b8373ffffffffffffffffffffffffffffffffffffffff168573ffffffffffffffffffffffffffffffffffffffff168773ffffffffffffffffffffffffffffffffffffffff167fd59c65b35445225835c83f50b6ede06a7be047d22e357073e250d9af537518cd8686866040516124e993929190613068565b60405180910390a4505050505050565b603354604080517f4397dfef0000000000000000000000000000000000000000000000000000000081528151600093849373ffffffffffffffffffffffffffffffffffffffff90911692634397dfef92600480830193928290030181865afa158015612569573d6000803e3d6000fd5b505050506040513d601f19601f8201168201806040525081019061258d9190613132565b90939092509050565b8273ffffffffffffffffffffffffffffffffffffffff168473ffffffffffffffffffffffffffffffffffffffff167f31b2166ff604fc5672ea5df08a78081d2bc6d746cadce880747f3643d819e83d84846040516125f59291906130a6565b60405180910390a350505050565b60405173ffffffffffffffffffffffffffffffffffffffff808516602483015283166044820152606481018290526105dd9085907f23b872dd0000000000000000000000000000000000000000000000000000000090608401611b6f565b8373ffffffffffffffffffffffffffffffffffffffff168573ffffffffffffffffffffffffffffffffffffffff168773ffffffffffffffffffffffffffffffffffffffff167f718594027abd4eaed59f95162563e0cc6d0e8d5b86b1c7be8b1b0ac3343d03968686866040516126d993929190613068565b60405180910390a461103e868686868686612898565b8273ffffffffffffffffffffffffffffffffffffffff168473ffffffffffffffffffffffffffffffffffffffff167f2849b43074093a05396b6f2a937dee8565b15a48a7b3d4bffb732a5017380af584846040516125f59291906130a6565b600061277a827f01ffc9a7000000000000000000000000000000000000000000000000000000006127b2565b80156119f757506127ab827fffffffff000000000000000000000000000000000000000000000000000000006127b2565b1592915050565b604080517fffffffff000000000000000000000000000000000000000000000000000000008316602480830191909152825180830390910181526044909101909152602080820180517bffffffffffffffffffffffffffffffffffffffffffffffffffffffff167f01ffc9a700000000000000000000000000000000000000000000000000000000178152825160009392849283928392918391908a617530fa92503d9150600051905082801561286a575060208210155b80156128765750600081115b979650505050505050565b60606128908484600085612910565b949350505050565b8373ffffffffffffffffffffffffffffffffffffffff168573ffffffffffffffffffffffffffffffffffffffff168773ffffffffffffffffffffffffffffffffffffffff167f7ff126db8024424bbfd9826e8ab82ff59136289ea440b04b39a0df1b03b9cabf8686866040516124e993929190613068565b6060824710156129a2576040517f08c379a000000000000000000000000000000000000000000000000000000000815260206004820152602660248201527f416464726573733a20696e73756666696369656e742062616c616e636520666f60448201527f722063616c6c0000000000000000000000000000000000000000000000000000606482015260840161021f565b73ffffffffffffffffffffffffffffffffffffffff85163b612a20576040517f08c379a000000000000000000000000000000000000000000000000000000000815260206004820152601d60248201527f416464726573733a2063616c6c20746f206e6f6e2d636f6e7472616374000000604482015260640161021f565b6000808673ffffffffffffffffffffffffffffffffffffffff168587604051612a499190613167565b60006040518083038185875af1925050503d8060008114612a86576040519150601f19603f3d011682016040523d82523d6000602084013e612a8b565b606091505b509150915061287682828660608315612aa557508161235e565b825115612ab55782518084602001fd5b816040517f08c379a000000000000000000000000000000000000000000000000000000000815260040161021f9190612dbb565b73ffffffffffffffffffffffffffffffffffffffff81168114612b0b57600080fd5b50565b60008083601f840112612b2057600080fd5b50813567ffffffffffffffff811115612b3857600080fd5b602083019150836020828501011115612b5057600080fd5b9250929050565b600080600080600080600060c0888a031215612b7257600080fd5b8735612b7d81612ae9565b96506020880135612b8d81612ae9565b95506040880135612b9d81612ae9565b94506060880135612bad81612ae9565b93506080880135925060a088013567ffffffffffffffff811115612bd057600080fd5b612bdc8a828b01612b0e565b989b979a50959850939692959293505050565b803563ffffffff81168114612c0357600080fd5b919050565b600080600060408486031215612c1d57600080fd5b612c2684612bef565b9250602084013567ffffffffffffffff811115612c4257600080fd5b612c4e86828701612b0e565b9497909650939450505050565b600080600080600060808688031215612c7357600080fd5b8535612c7e81612ae9565b94506020860135612c8e81612ae9565b935060408601359250606086013567ffffffffffffffff811115612cb157600080fd5b612cbd88828901612b0e565b969995985093965092949392505050565b600080600080600080600060c0888a031215612ce957600080fd5b8735612cf481612ae9565b96506020880135612d0481612ae9565b95506040880135612d1481612ae9565b945060608801359350612d2960808901612bef565b925060a088013567ffffffffffffffff811115612bd057600080fd5b60005b83811015612d60578181015183820152602001612d48565b838111156105dd5750506000910152565b60008151808452612d89816020860160208601612d45565b601f017fffffffffffffffffffffffffffffffffffffffffffffffffffffffffffffffe0169290920160200192915050565b60208152600061235e6020830184612d71565b60008060008060008060a08789031215612de757600080fd5b8635612df281612ae9565b95506020870135612e0281612ae9565b945060408701359350612e1760608801612bef565b9250608087013567ffffffffffffffff811115612e3357600080fd5b612e3f89828a01612b0e565b979a9699509497509295939492505050565b60008060408385031215612e6457600080fd5b8235612e6f81612ae9565b91506020830135612e7f81612ae9565b809150509250929050565b60008060008060608587031215612ea057600080fd5b8435612eab81612ae9565b9350612eb960208601612bef565b9250604085013567ffffffffffffffff811115612ed557600080fd5b612ee187828801612b0e565b95989497509550505050565b600080600060608486031215612f0257600080fd5b8335612f0d81612ae9565b92506020840135612f1d81612ae9565b91506040840135612f2d81612ae9565b809150509250925092565b600060208284031215612f4a57600080fd5b813561235e81612ae9565b600060208284031215612f6757600080fd5b815161235e81612ae9565b7f4e487b7100000000000000000000000000000000000000000000000000000000600052601160045260246000fd5b600082821015612fb357612fb3612f72565b500390565b600060208284031215612fca57600080fd5b8151801515811461235e57600080fd5b600073ffffffffffffffffffffffffffffffffffffffff8087168352808616602084015250836040830152608060608301526130196080830184612d71565b9695505050505050565b73ffffffffffffffffffffffffffffffffffffffff841681526060602082015260006130526060830185612d71565b905063ffffffff83166040830152949350505050565b73ffffffffffffffffffffffffffffffffffffffff8416815282602082015260606040820152600061309d6060830184612d71565b95945050505050565b8281526040602082015260006128906040830184612d71565b600082198211156130d2576130d2612f72565b500190565b600073ffffffffffffffffffffffffffffffffffffffff80891683528088166020840152808716604084015280861660608401525083608083015260c060a083015261312660c0830184612d71565b98975050505050505050565b6000806040838503121561314557600080fd5b825161315081612ae9565b602084015190925060ff81168114612e7f57600080fd5b60008251613179818460208701612d45565b919091019291505056fea164736f6c634300080f000a"
}