{
  "address": "0xf21c0942dE045ca56AD3d27CD18F3Ea6D0bEB3cf",
  "abi": [
    {
      "type": "constructor",
      "inputs": [],
      "stateMutability": "nonpayable"
    },
    {
      "type": "function",
      "name": "RECOMMENDED_SLOT",
      "inputs": [],
      "outputs": [
        {
          "name": "",
          "type": "bytes32",
          "internalType": "bytes32"
        }
      ],
      "stateMutability": "view"
    },
    {
      "type": "function",
      "name": "REQUIRED_SLOT",
      "inputs": [],
      "outputs": [
        {
          "name": "",
          "type": "bytes32",
          "internalType": "bytes32"
        }
      ],
      "stateMutability": "view"
    },
    {
      "type": "function",
      "name": "VERSION",
      "inputs": [],
      "outputs": [
        {
          "name": "",
          "type": "uint256",
          "internalType": "uint256"
        }
      ],
      "stateMutability": "view"
    },
    {
      "type": "function",
      "name": "initialize",
      "inputs": [
        {
          "name": "_owner",
          "type": "address",
          "internalType": "address"
        },
        {
          "name": "_required",
          "type": "uint256",
          "internalType": "ProtocolVersion"
        },
        {
          "name": "_recommended",
          "type": "uint256",
          "internalType": "ProtocolVersion"
        }
      ],
      "outputs": [],
      "stateMutability": "nonpayable"
    },
    {
      "type": "function",
      "name": "owner",
      "inputs": [],
      "outputs": [
        {
          "name": "",
          "type": "address",
          "internalType": "address"
        }
      ],
      "stateMutability": "view"
    },
    {
      "type": "function",
      "name": "recommended",
      "inputs": [],
      "outputs": [
        {
          "name": "out_",
          "type": "uint256",
          "internalType": "ProtocolVersion"
        }
      ],
      "stateMutability": "view"
    },
    {
      "type": "function",
      "name": "renounceOwnership",
      "inputs": [],
      "outputs": [],
      "stateMutability": "nonpayable"
    },
    {
      "type": "function",
      "name": "required",
      "inputs": [],
      "outputs": [
        {
          "name": "out_",
          "type": "uint256",
          "internalType": "ProtocolVersion"
        }
      ],
      "stateMutability": "view"
    },
    {
      "type": "function",
      "name": "setRecommended",
      "inputs": [
        {
          "name": "_recommended",
          "type": "uint256",
          "internalType": "ProtocolVersion"
        }
      ],
      "outputs": [],
      "stateMutability": "nonpayable"
    },
    {
      "type": "function",
      "name": "setRequired",
      "inputs": [
        {
          "name": "_required",
          "type": "uint256",
          "internalType": "ProtocolVersion"
        }
      ],
      "outputs": [],
      "stateMutability": "nonpayable"
    },
    {
      "type": "function",
      "name": "transferOwnership",
      "inputs": [
        {
          "name": "newOwner",
          "type": "address",
          "internalType": "address"
        }
      ],
      "outputs": [],
      "stateMutability": "nonpayable"
    },
    {
      "type": "function",
      "name": "version",
      "inputs": [],
      "outputs": [
        {
          "name": "",
          "type": "string",
          "internalType": "string"
        }
      ],
      "stateMutability": "view"
    },
    {
      "type": "event",
      "name": "ConfigUpdate",
      "inputs": [
        {
          "name": "version",
          "type": "uint256",
          "indexed": true,
          "internalType": "uint256"
        },
        {
          "name": "updateType",
          "type": "uint8",
          "indexed": true,
          "internalType": "enum ProtocolVersions.UpdateType"
        },
        {
          "name": "data",
          "type": "bytes",
          "indexed": false,
          "internalType": "bytes"
        }
      ],
      "anonymous": false
    },
    {
      "type": "event",
      "name": "Initialized",
      "inputs": [
        {
          "name": "version",
          "type": "uint8",
          "indexed": false,
          "internalType": "uint8"
        }
      ],
      "anonymous": false
    },
    {
      "type": "event",
      "name": "OwnershipTransferred",
      "inputs": [
        {
          "name": "previousOwner",
          "type": "address",
          "indexed": true,
          "internalType": "address"
        },
        {
          "name": "newOwner",
          "type": "address",
          "indexed": true,
          "internalType": "address"
        }
      ],
      "anonymous": false
    }
  ],
  "transactionHash": "0xb4a74707a2cfcbebc75a7f5719f2ecaf5c7b94d9e2a1a30b0aa099d3abbfba7e",
  "args": [],
  "numDeployments": 1,
  "bytecode": "0x60806040523480156200001157600080fd5b506200002261dead60008062000028565b6200051c565b600054610100900460ff1615808015620000495750600054600160ff909116105b8062000079575062000066306200017e60201b6200053f1760201c565b15801562000079575060005460ff166001145b620000e25760405162461bcd60e51b815260206004820152602e60248201527f496e697469616c697a61626c653a20636f6e747261637420697320616c72656160448201526d191e481a5b9a5d1a585b1a5e995960921b60648201526084015b60405180910390fd5b6000805460ff19166001179055801562000106576000805461ff0019166101001790555b620001106200018d565b6200011b84620001f5565b620001268362000274565b620001318262000324565b801562000178576000805461ff0019169055604051600181527f7f26b83ff96e1f2b6a682f133852f6798a09c465da95921460cefb38474024989060200160405180910390a15b50505050565b6001600160a01b03163b151590565b600054610100900460ff16620001e95760405162461bcd60e51b815260206004820152602b602482015260008051602062000f4f83398151915260448201526a6e697469616c697a696e6760a81b6064820152608401620000d9565b620001f362000385565b565b620001ff620003ec565b6001600160a01b038116620002665760405162461bcd60e51b815260206004820152602660248201527f4f776e61626c653a206e6577206f776e657220697320746865207a65726f206160448201526564647265737360d01b6064820152608401620000d9565b620002718162000448565b50565b620002ba620002a560017f4aaefe95bd84fd3f32700cf3b7566bc944b73138e41958b5785826df2aecace16200049e565b60001b826200049a60201b6200055b1760201c565b600081604051602001620002d091815260200190565b60408051601f19818403018152919052905060005b60007f1d2b0bda21d56b8bd12d4f94ebacffdfb35f5e226f84b461103bb8beab6353be83604051620003189190620004c4565b60405180910390a35050565b62000355620002a560017fe314dfc40f0025322aacc0ba8ef420b62fb3b702cf01e0cdf3d829117ac2ff1b6200049e565b6000816040516020016200036b91815260200190565b60408051601f1981840301815291905290506001620002e5565b600054610100900460ff16620003e15760405162461bcd60e51b815260206004820152602b602482015260008051602062000f4f83398151915260448201526a6e697469616c697a696e6760a81b6064820152608401620000d9565b620001f33362000448565b6033546001600160a01b03163314620001f35760405162461bcd60e51b815260206004820181905260248201527f4f776e61626c653a2063616c6c6572206973206e6f7420746865206f776e65726044820152606401620000d9565b603380546001600160a01b038381166001600160a01b0319831681179093556040519116919082907f8be0079c531659141344cd1fd0a4f28419497f9722a3daafe3b4186f6b6457e090600090a35050565b9055565b600082821015620004bf57634e487b7160e01b600052601160045260246000fd5b500390565b600060208083528351808285015260005b81811015620004f357858101830151858201604001528201620004d5565b8181111562000506576000604083870101525b50601f01601f1916929092016040019392505050565b610a23806200052c6000396000f3fe608060405234801561001057600080fd5b50600436106100d45760003560e01c80638da5cb5b11610081578063f2fde38b1161005b578063f2fde38b146101b8578063f7d12760146101cb578063ffa1ad74146101d357600080fd5b80638da5cb5b14610180578063d798b1ac146101a8578063dc8452cd146101b057600080fd5b80635fd579af116100b25780635fd579af14610152578063715018a6146101655780637a1ac61e1461016d57600080fd5b80630457d6f2146100d9578063206a8300146100ee57806354fd4d5014610109575b600080fd5b6100ec6100e73660046108c3565b6101db565b005b6100f66101ef565b6040519081526020015b60405180910390f35b6101456040518060400160405280600581526020017f312e302e3000000000000000000000000000000000000000000000000000000081525081565b6040516101009190610947565b6100ec6101603660046108c3565b61021d565b6100ec61022e565b6100ec61017b36600461098a565b610242565b60335460405173ffffffffffffffffffffffffffffffffffffffff9091168152602001610100565b6100f66103f7565b6100f6610430565b6100ec6101c63660046109bd565b610460565b6100f6610514565b6100f6600081565b6101e361055f565b6101ec816105e0565b50565b61021a60017f4aaefe95bd84fd3f32700cf3b7566bc944b73138e41958b5785826df2aecace16109d8565b81565b61022561055f565b6101ec81610698565b61023661055f565b6102406000610712565b565b600054610100900460ff16158080156102625750600054600160ff909116105b8061027c5750303b15801561027c575060005460ff166001145b61030d576040517f08c379a000000000000000000000000000000000000000000000000000000000815260206004820152602e60248201527f496e697469616c697a61626c653a20636f6e747261637420697320616c72656160448201527f647920696e697469616c697a656400000000000000000000000000000000000060648201526084015b60405180910390fd5b600080547fffffffffffffffffffffffffffffffffffffffffffffffffffffffffffffff00166001179055801561036b57600080547fffffffffffffffffffffffffffffffffffffffffffffffffffffffffffff00ff166101001790555b610373610789565b61037c84610460565b610385836105e0565b61038e82610698565b80156103f157600080547fffffffffffffffffffffffffffffffffffffffffffffffffffffffffffff00ff169055604051600181527f7f26b83ff96e1f2b6a682f133852f6798a09c465da95921460cefb38474024989060200160405180910390a15b50505050565b600061042b61042760017fe314dfc40f0025322aacc0ba8ef420b62fb3b702cf01e0cdf3d829117ac2ff1b6109d8565b5490565b905090565b600061042b61042760017f4aaefe95bd84fd3f32700cf3b7566bc944b73138e41958b5785826df2aecace16109d8565b61046861055f565b73ffffffffffffffffffffffffffffffffffffffff811661050b576040517f08c379a000000000000000000000000000000000000000000000000000000000815260206004820152602660248201527f4f776e61626c653a206e6577206f776e657220697320746865207a65726f206160448201527f64647265737300000000000000000000000000000000000000000000000000006064820152608401610304565b6101ec81610712565b61021a60017fe314dfc40f0025322aacc0ba8ef420b62fb3b702cf01e0cdf3d829117ac2ff1b6109d8565b73ffffffffffffffffffffffffffffffffffffffff163b151590565b9055565b60335473ffffffffffffffffffffffffffffffffffffffff163314610240576040517f08c379a000000000000000000000000000000000000000000000000000000000815260206004820181905260248201527f4f776e61626c653a2063616c6c6572206973206e6f7420746865206f776e65726044820152606401610304565b61061361060e60017f4aaefe95bd84fd3f32700cf3b7566bc944b73138e41958b5785826df2aecace16109d8565b829055565b60008160405160200161062891815260200190565b604080517fffffffffffffffffffffffffffffffffffffffffffffffffffffffffffffffe0818403018152919052905060005b60007f1d2b0bda21d56b8bd12d4f94ebacffdfb35f5e226f84b461103bb8beab6353be8360405161068c9190610947565b60405180910390a35050565b6106c661060e60017fe314dfc40f0025322aacc0ba8ef420b62fb3b702cf01e0cdf3d829117ac2ff1b6109d8565b6000816040516020016106db91815260200190565b604080517fffffffffffffffffffffffffffffffffffffffffffffffffffffffffffffffe08184030181529190529050600161065b565b6033805473ffffffffffffffffffffffffffffffffffffffff8381167fffffffffffffffffffffffff0000000000000000000000000000000000000000831681179093556040519116919082907f8be0079c531659141344cd1fd0a4f28419497f9722a3daafe3b4186f6b6457e090600090a35050565b600054610100900460ff16610820576040517f08c379a000000000000000000000000000000000000000000000000000000000815260206004820152602b60248201527f496e697469616c697a61626c653a20636f6e7472616374206973206e6f74206960448201527f6e697469616c697a696e670000000000000000000000000000000000000000006064820152608401610304565b610240600054610100900460ff166108ba576040517f08c379a000000000000000000000000000000000000000000000000000000000815260206004820152602b60248201527f496e697469616c697a61626c653a20636f6e7472616374206973206e6f74206960448201527f6e697469616c697a696e670000000000000000000000000000000000000000006064820152608401610304565b61024033610712565b6000602082840312156108d557600080fd5b5035919050565b6000815180845260005b81811015610902576020818501810151868301820152016108e6565b81811115610914576000602083870101525b50601f017fffffffffffffffffffffffffffffffffffffffffffffffffffffffffffffffe0169290920160200192915050565b60208152600061095a60208301846108dc565b9392505050565b803573ffffffffffffffffffffffffffffffffffffffff8116811461098557600080fd5b919050565b60008060006060848603121561099f57600080fd5b6109a884610961565b95602085013595506040909401359392505050565b6000602082840312156109cf57600080fd5b61095a82610961565b600082821015610a11577f4e487b7100000000000000000000000000000000000000000000000000000000600052601160045260246000fd5b50039056fea164736f6c634300080f000a496e697469616c697a61626c653a20636f6e7472616374206973206e6f742069"
}