{
  "address": "0x5535f151A009ABb518E54B86E204880800D4b5fe",
  "abi": [
    {
      "type": "constructor",
      "inputs": [],
      "stateMutability": "nonpayable"
    },
    {
      "type": "function",
      "name": "EXIT_1_NO_RETURN_STEP",
      "inputs": [],
      "outputs": [
        {
          "name": "",
          "type": "uint8",
          "internalType": "uint8"
        }
      ],
      "stateMutability": "view"
    },
    {
      "type": "function",
      "name": "PROXY_TRANSFER_STEP",
      "inputs": [],
      "outputs": [
        {
          "name": "",
          "type": "uint8",
          "internalType": "uint8"
        }
      ],
      "stateMutability": "view"
    },
    {
      "type": "function",
      "name": "config",
      "inputs": [],
      "outputs": [
        {
          "name": "globalConfig",
          "type": "tuple",
          "internalType": "struct SystemDictator.GlobalConfig",
          "components": [
            {
              "name": "addressManager",
              "type": "address",
              "internalType": "contract AddressManager"
            },
            {
              "name": "proxyAdmin",
              "type": "address",
              "internalType": "contract ProxyAdmin"
            },
            {
              "name": "controller",
              "type": "address",
              "internalType": "address"
            },
            {
              "name": "finalOwner",
              "type": "address",
              "internalType": "address"
            }
          ]
        },
        {
          "name": "proxyAddressConfig",
          "type": "tuple",
          "internalType": "struct SystemDictator.ProxyAddressConfig",
          "components": [
            {
              "name": "l2OutputOracleProxy",
              "type": "address",
              "internalType": "address"
            },
            {
              "name": "optimismPortalProxy",
              "type": "address",
              "internalType": "address"
            },
            {
              "name": "l1CrossDomainMessengerProxy",
              "type": "address",
              "internalType": "address"
            },
            {
              "name": "l1StandardBridgeProxy",
              "type": "address",
              "internalType": "address"
            },
            {
              "name": "optimismMintableERC20FactoryProxy",
              "type": "address",
              "internalType": "address"
            },
            {
              "name": "l1ERC721BridgeProxy",
              "type": "address",
              "internalType": "address"
            },
            {
              "name": "systemConfigProxy",
              "type": "address",
              "internalType": "address"
            },
            {
              "name": "protocolVersionsProxy",
              "type": "address",
              "internalType": "address"
            },
            {
              "name": "superchainConfigProxy",
              "type": "address",
              "internalType": "address"
            }
          ]
        },
        {
          "name": "implementationAddressConfig",
          "type": "tuple",
          "internalType": "struct SystemDictator.ImplementationAddressConfig",
          "components": [
            {
              "name": "l2OutputOracleImpl",
              "type": "address",
              "internalType": "contract L2OutputOracle"
            },
            {
              "name": "optimismPortalImpl",
              "type": "address",
              "internalType": "contract OptimismPortal"
            },
            {
              "name": "l1CrossDomainMessengerImpl",
              "type": "address",
              "internalType": "contract L1CrossDomainMessenger"
            },
            {
              "name": "l1StandardBridgeImpl",
              "type": "address",
              "internalType": "contract L1StandardBridge"
            },
            {
              "name": "optimismMintableERC20FactoryImpl",
              "type": "address",
              "internalType": "contract OptimismMintableERC20Factory"
            },
            {
              "name": "l1ERC721BridgeImpl",
              "type": "address",
              "internalType": "contract L1ERC721Bridge"
            },
            {
              "name": "portalSenderImpl",
              "type": "address",
              "internalType": "contract PortalSender"
            },
            {
              "name": "addressDeprecatorImpl",
              "type": "address",
              "internalType": "contract AddressDeprecator"
            },
            {
              "name": "systemConfigImpl",
              "type": "address",
              "internalType": "contract SystemConfig"
            },
            {
              "name": "protocolVersionsImpl",
              "type": "address",
              "internalType": "contract ProtocolVersions"
            },
            {
              "name": "superchainConfigImpl",
              "type": "address",
              "internalType": "contract SuperchainConfig"
            }
          ]
        },
        {
          "name": "systemConfigConfig",
          "type": "tuple",
          "internalType": "struct SystemDictator.SystemConfigConfig",
          "components": [
            {
              "name": "owner",
              "type": "address",
              "internalType": "address"
            },
            {
              "name": "overhead",
              "type": "uint256",
              "internalType": "uint256"
            },
            {
              "name": "scalar",
              "type": "uint256",
              "internalType": "uint256"
            },
            {
              "name": "batcherHash",
              "type": "bytes32",
              "internalType": "bytes32"
            },
            {
              "name": "gasLimit",
              "type": "uint64",
              "internalType": "uint64"
            },
            {
              "name": "unsafeBlockSigner",
              "type": "address",
              "internalType": "address"
            },
            {
              "name": "resourceConfig",
              "type": "tuple",
              "internalType": "struct ResourceMetering.ResourceConfig",
              "components": [
                {
                  "name": "maxResourceLimit",
                  "type": "uint32",
                  "internalType": "uint32"
                },
                {
                  "name": "elasticityMultiplier",
                  "type": "uint8",
                  "internalType": "uint8"
                },
                {
                  "name": "baseFeeMaxChangeDenominator",
                  "type": "uint8",
                  "internalType": "uint8"
                },
                {
                  "name": "minimumBaseFee",
                  "type": "uint32",
                  "internalType": "uint32"
                },
                {
                  "name": "systemTxMaxGas",
                  "type": "uint32",
                  "internalType": "uint32"
                },
                {
                  "name": "maximumBaseFee",
                  "type": "uint128",
                  "internalType": "uint128"
                }
              ]
            },
            {
              "name": "opnodeStartBlock",
              "type": "uint256",
              "internalType": "uint256"
            },
            {
              "name": "batchInbox",
              "type": "address",
              "internalType": "address"
            },
            {
              "name": "systemConfigAddressConfig",
              "type": "tuple",
              "internalType": "struct SystemConfig.Addresses",
              "components": [
                {
                  "name": "l1CrossDomainMessenger",
                  "type": "address",
                  "internalType": "address"
                },
                {
                  "name": "l1ERC721Bridge",
                  "type": "address",
                  "internalType": "address"
                },
                {
                  "name": "l1StandardBridge",
                  "type": "address",
                  "internalType": "address"
                },
                {
                  "name": "disputeGameFactory",
                  "type": "address",
                  "internalType": "address"
                },
                {
                  "name": "optimismPortal",
                  "type": "address",
                  "internalType": "address"
                },
                {
                  "name": "optimismMintableERC20Factory",
                  "type": "address",
                  "internalType": "address"
                },
                {
                  "name": "gasPayingToken",
                  "type": "address",
                  "internalType": "address"
                },
                {
                  "name": "l2ETHToken",
                  "type": "address",
                  "internalType": "address"
                }
              ]
            }
          ]
        },
        {
          "name": "protocolVersionConfig",
          "type": "tuple",
          "internalType": "struct SystemDictator.ProtocolVersionConfig",
          "components": [
            {
              "name": "requiredProtocolVersion",
              "type": "uint256",
              "internalType": "ProtocolVersion"
            },
            {
              "name": "recommendedProtocolVersion",
              "type": "uint256",
              "internalType": "ProtocolVersion"
            }
          ]
        }
      ],
      "stateMutability": "view"
    },
    {
      "type": "function",
      "name": "currentStep",
      "inputs": [],
      "outputs": [
        {
          "name": "",
          "type": "uint8",
          "internalType": "uint8"
        }
      ],
      "stateMutability": "view"
    },
    {
      "type": "function",
      "name": "dynamicConfigSet",
      "inputs": [],
      "outputs": [
        {
          "name": "",
          "type": "bool",
          "internalType": "bool"
        }
      ],
      "stateMutability": "view"
    },
    {
      "type": "function",
      "name": "exit1",
      "inputs": [],
      "outputs": [],
      "stateMutability": "nonpayable"
    },
    {
      "type": "function",
      "name": "exited",
      "inputs": [],
      "outputs": [
        {
          "name": "",
          "type": "bool",
          "internalType": "bool"
        }
      ],
      "stateMutability": "view"
    },
    {
      "type": "function",
      "name": "finalize",
      "inputs": [],
      "outputs": [],
      "stateMutability": "nonpayable"
    },
    {
      "type": "function",
      "name": "finalized",
      "inputs": [],
      "outputs": [
        {
          "name": "",
          "type": "bool",
          "internalType": "bool"
        }
      ],
      "stateMutability": "view"
    },
    {
      "type": "function",
      "name": "initialize",
      "inputs": [
        {
          "name": "_config",
          "type": "tuple",
          "internalType": "struct SystemDictator.DeployConfig",
          "components": [
            {
              "name": "globalConfig",
              "type": "tuple",
              "internalType": "struct SystemDictator.GlobalConfig",
              "components": [
                {
                  "name": "addressManager",
                  "type": "address",
                  "internalType": "contract AddressManager"
                },
                {
                  "name": "proxyAdmin",
                  "type": "address",
                  "internalType": "contract ProxyAdmin"
                },
                {
                  "name": "controller",
                  "type": "address",
                  "internalType": "address"
                },
                {
                  "name": "finalOwner",
                  "type": "address",
                  "internalType": "address"
                }
              ]
            },
            {
              "name": "proxyAddressConfig",
              "type": "tuple",
              "internalType": "struct SystemDictator.ProxyAddressConfig",
              "components": [
                {
                  "name": "l2OutputOracleProxy",
                  "type": "address",
                  "internalType": "address"
                },
                {
                  "name": "optimismPortalProxy",
                  "type": "address",
                  "internalType": "address"
                },
                {
                  "name": "l1CrossDomainMessengerProxy",
                  "type": "address",
                  "internalType": "address"
                },
                {
                  "name": "l1StandardBridgeProxy",
                  "type": "address",
                  "internalType": "address"
                },
                {
                  "name": "optimismMintableERC20FactoryProxy",
                  "type": "address",
                  "internalType": "address"
                },
                {
                  "name": "l1ERC721BridgeProxy",
                  "type": "address",
                  "internalType": "address"
                },
                {
                  "name": "systemConfigProxy",
                  "type": "address",
                  "internalType": "address"
                },
                {
                  "name": "protocolVersionsProxy",
                  "type": "address",
                  "internalType": "address"
                },
                {
                  "name": "superchainConfigProxy",
                  "type": "address",
                  "internalType": "address"
                }
              ]
            },
            {
              "name": "implementationAddressConfig",
              "type": "tuple",
              "internalType": "struct SystemDictator.ImplementationAddressConfig",
              "components": [
                {
                  "name": "l2OutputOracleImpl",
                  "type": "address",
                  "internalType": "contract L2OutputOracle"
                },
                {
                  "name": "optimismPortalImpl",
                  "type": "address",
                  "internalType": "contract OptimismPortal"
                },
                {
                  "name": "l1CrossDomainMessengerImpl",
                  "type": "address",
                  "internalType": "contract L1CrossDomainMessenger"
                },
                {
                  "name": "l1StandardBridgeImpl",
                  "type": "address",
                  "internalType": "contract L1StandardBridge"
                },
                {
                  "name": "optimismMintableERC20FactoryImpl",
                  "type": "address",
                  "internalType": "contract OptimismMintableERC20Factory"
                },
                {
                  "name": "l1ERC721BridgeImpl",
                  "type": "address",
                  "internalType": "contract L1ERC721Bridge"
                },
                {
                  "name": "portalSenderImpl",
                  "type": "address",
                  "internalType": "contract PortalSender"
                },
                {
                  "name": "addressDeprecatorImpl",
                  "type": "address",
                  "internalType": "contract AddressDeprecator"
                },
                {
                  "name": "systemConfigImpl",
                  "type": "address",
                  "internalType": "contract SystemConfig"
                },
                {
                  "name": "protocolVersionsImpl",
                  "type": "address",
                  "internalType": "contract ProtocolVersions"
                },
                {
                  "name": "superchainConfigImpl",
                  "type": "address",
                  "internalType": "contract SuperchainConfig"
                }
              ]
            },
            {
              "name": "systemConfigConfig",
              "type": "tuple",
              "internalType": "struct SystemDictator.SystemConfigConfig",
              "components": [
                {
                  "name": "owner",
                  "type": "address",
                  "internalType": "address"
                },
                {
                  "name": "overhead",
                  "type": "uint256",
                  "internalType": "uint256"
                },
                {
                  "name": "scalar",
                  "type": "uint256",
                  "internalType": "uint256"
                },
                {
                  "name": "batcherHash",
                  "type": "bytes32",
                  "internalType": "bytes32"
                },
                {
                  "name": "gasLimit",
                  "type": "uint64",
                  "internalType": "uint64"
                },
                {
                  "name": "unsafeBlockSigner",
                  "type": "address",
                  "internalType": "address"
                },
                {
                  "name": "resourceConfig",
                  "type": "tuple",
                  "internalType": "struct ResourceMetering.ResourceConfig",
                  "components": [
                    {
                      "name": "maxResourceLimit",
                      "type": "uint32",
                      "internalType": "uint32"
                    },
                    {
                      "name": "elasticityMultiplier",
                      "type": "uint8",
                      "internalType": "uint8"
                    },
                    {
                      "name": "baseFeeMaxChangeDenominator",
                      "type": "uint8",
                      "internalType": "uint8"
                    },
                    {
                      "name": "minimumBaseFee",
                      "type": "uint32",
                      "internalType": "uint32"
                    },
                    {
                      "name": "systemTxMaxGas",
                      "type": "uint32",
                      "internalType": "uint32"
                    },
                    {
                      "name": "maximumBaseFee",
                      "type": "uint128",
                      "internalType": "uint128"
                    }
                  ]
                },
                {
                  "name": "opnodeStartBlock",
                  "type": "uint256",
                  "internalType": "uint256"
                },
                {
                  "name": "batchInbox",
                  "type": "address",
                  "internalType": "address"
                },
                {
                  "name": "systemConfigAddressConfig",
                  "type": "tuple",
                  "internalType": "struct SystemConfig.Addresses",
                  "components": [
                    {
                      "name": "l1CrossDomainMessenger",
                      "type": "address",
                      "internalType": "address"
                    },
                    {
                      "name": "l1ERC721Bridge",
                      "type": "address",
                      "internalType": "address"
                    },
                    {
                      "name": "l1StandardBridge",
                      "type": "address",
                      "internalType": "address"
                    },
                    {
                      "name": "disputeGameFactory",
                      "type": "address",
                      "internalType": "address"
                    },
                    {
                      "name": "optimismPortal",
                      "type": "address",
                      "internalType": "address"
                    },
                    {
                      "name": "optimismMintableERC20Factory",
                      "type": "address",
                      "internalType": "address"
                    },
                    {
                      "name": "gasPayingToken",
                      "type": "address",
                      "internalType": "address"
                    },
                    {
                      "name": "l2ETHToken",
                      "type": "address",
                      "internalType": "address"
                    }
                  ]
                }
              ]
            },
            {
              "name": "protocolVersionConfig",
              "type": "tuple",
              "internalType": "struct SystemDictator.ProtocolVersionConfig",
              "components": [
                {
                  "name": "requiredProtocolVersion",
                  "type": "uint256",
                  "internalType": "ProtocolVersion"
                },
                {
                  "name": "recommendedProtocolVersion",
                  "type": "uint256",
                  "internalType": "ProtocolVersion"
                }
              ]
            }
          ]
        }
      ],
      "outputs": [],
      "stateMutability": "nonpayable"
    },
    {
      "type": "function",
      "name": "l2OutputOracleDynamicConfig",
      "inputs": [],
      "outputs": [
        {
          "name": "l2OutputOracleSubmissionInterval",
          "type": "uint256",
          "internalType": "uint256"
        },
        {
          "name": "l2BlockTime",
          "type": "uint256",
          "internalType": "uint256"
        },
        {
          "name": "l2OutputOracleStartingBlockNumber",
          "type": "uint256",
          "internalType": "uint256"
        },
        {
          "name": "l2OutputOracleStartingTimestamp",
          "type": "uint256",
          "internalType": "uint256"
        },
        {
          "name": "l2OutputOracleProposer",
          "type": "address",
          "internalType": "address"
        },
        {
          "name": "l2OutputOracleChallenger",
          "type": "address",
          "internalType": "address"
        },
        {
          "name": "finalizationPeriodSeconds",
          "type": "uint256",
          "internalType": "uint256"
        }
      ],
      "stateMutability": "view"
    },
    {
      "type": "function",
      "name": "oldL1CrossDomainMessenger",
      "inputs": [],
      "outputs": [
        {
          "name": "",
          "type": "address",
          "internalType": "address"
        }
      ],
      "stateMutability": "view"
    },
    {
      "type": "function",
      "name": "optimismPortalDynamicConfig",
      "inputs": [],
      "outputs": [
        {
          "name": "portalGuardian",
          "type": "address",
          "internalType": "address"
        }
      ],
      "stateMutability": "view"
    },
    {
      "type": "function",
      "name": "owner",
      "inputs": [],
      "outputs": [
        {
          "name": "",
          "type": "address",
          "internalType": "address"
        }
      ],
      "stateMutability": "view"
    },
    {
      "type": "function",
      "name": "phase1",
      "inputs": [],
      "outputs": [],
      "stateMutability": "nonpayable"
    },
    {
      "type": "function",
      "name": "phase2",
      "inputs": [],
      "outputs": [],
      "stateMutability": "nonpayable"
    },
    {
      "type": "function",
      "name": "renounceOwnership",
      "inputs": [],
      "outputs": [],
      "stateMutability": "nonpayable"
    },
    {
      "type": "function",
      "name": "step1",
      "inputs": [],
      "outputs": [],
      "stateMutability": "nonpayable"
    },
    {
      "type": "function",
      "name": "step2",
      "inputs": [],
      "outputs": [],
      "stateMutability": "nonpayable"
    },
    {
      "type": "function",
      "name": "step3",
      "inputs": [],
      "outputs": [],
      "stateMutability": "nonpayable"
    },
    {
      "type": "function",
      "name": "step4",
      "inputs": [],
      "outputs": [],
      "stateMutability": "nonpayable"
    },
    {
      "type": "function",
      "name": "step5",
      "inputs": [],
      "outputs": [],
      "stateMutability": "nonpayable"
    },
    {
      "type": "function",
      "name": "transferOwnership",
      "inputs": [
        {
          "name": "newOwner",
          "type": "address",
          "internalType": "address"
        }
      ],
      "outputs": [],
      "stateMutability": "nonpayable"
    },
    {
      "type": "function",
      "name": "updateDynamicConfig",
      "inputs": [
        {
          "name": "_l2OutputOracleDynamicConfig",
          "type": "tuple",
          "internalType": "struct SystemDictator.L2OutputOracleDynamicConfig",
          "components": [
            {
              "name": "l2OutputOracleSubmissionInterval",
              "type": "uint256",
              "internalType": "uint256"
            },
            {
              "name": "l2BlockTime",
              "type": "uint256",
              "internalType": "uint256"
            },
            {
              "name": "l2OutputOracleStartingBlockNumber",
              "type": "uint256",
              "internalType": "uint256"
            },
            {
              "name": "l2OutputOracleStartingTimestamp",
              "type": "uint256",
              "internalType": "uint256"
            },
            {
              "name": "l2OutputOracleProposer",
              "type": "address",
              "internalType": "address"
            },
            {
              "name": "l2OutputOracleChallenger",
              "type": "address",
              "internalType": "address"
            },
            {
              "name": "finalizationPeriodSeconds",
              "type": "uint256",
              "internalType": "uint256"
            }
          ]
        },
        {
          "name": "_optimismPortalDynamicConfig",
          "type": "tuple",
          "internalType": "struct SystemDictator.OptimismPortalDynamicConfig",
          "components": [
            {
              "name": "portalGuardian",
              "type": "address",
              "internalType": "address"
            }
          ]
        }
      ],
      "outputs": [],
      "stateMutability": "nonpayable"
    },
    {
      "type": "event",
      "name": "Initialized",
      "inputs": [
        {
          "name": "version",
          "type": "uint8",
          "indexed": false,
          "internalType": "uint8"
        }
      ],
      "anonymous": false
    },
    {
      "type": "event",
      "name": "OwnershipTransferred",
      "inputs": [
        {
          "name": "previousOwner",
          "type": "address",
          "indexed": true,
          "internalType": "address"
        },
        {
          "name": "newOwner",
          "type": "address",
          "indexed": true,
          "internalType": "address"
        }
      ],
      "anonymous": false
    }
  ],
  "transactionHash": "0x366265edcf663d9755b185f36fe0041d0d9ead92c9928c102a32448ddcb006a8",
  "args": [],
  "numDeployments": 1,
  "bytecode": "0x60806040523480156200001157600080fd5b506000620000296200019e60201b620047221760201c565b604080516101208082018352600060a080840182815260c080860184905260e0808701859052610100808801869052928752875180870189528581526020818101879052818a0187905260608083018890526080838101899052838801899052838601899052838501899052838701899052828b01939093528a5161016081018c52888152808301899052808c01899052808201899052808401899052808801899052808601899052808501899052808701899052808a018990526101408082018a90528b8d01919091528b519081018c52888152808301899052808c018990528082018990528084018990528088018990528086018d9052600019818601528087018990528b519687018c52888752868301899052868c0189905286820189905286840189905296860188905293850187905291840186905295840192909252850191909152845180860190955281855284018190529082019290925291925090620001969062000215565b505062000c7e565b6040805160c081018252600080825260208201819052918101829052606081018290526080810182905260a0810191909152506040805160c0810182526301312d008152600a6020820152600891810191909152633b9aca006060820152620f424060808201526001600160801b0360a082015290565b600054610100900460ff1615808015620002365750600054600160ff909116105b80620002665750620002533062000b4e60201b620047a21760201c565b15801562000266575060005460ff166001145b620002cf5760405162461bcd60e51b815260206004820152602e60248201527f496e697469616c697a61626c653a20636f6e747261637420697320616c72656160448201526d191e481a5b9a5d1a585b1a5e995960921b60648201526084015b60405180910390fd5b6000805460ff191660011790558015620002f3576000805461ff0019166101001790555b81606560008201518160000160008201518160000160006101000a8154816001600160a01b0302191690836001600160a01b0316021790555060208201518160010160006101000a8154816001600160a01b0302191690836001600160a01b0316021790555060408201518160020160006101000a8154816001600160a01b0302191690836001600160a01b0316021790555060608201518160030160006101000a8154816001600160a01b0302191690836001600160a01b03160217905550505060208201518160040160008201518160000160006101000a8154816001600160a01b0302191690836001600160a01b0316021790555060208201518160010160006101000a8154816001600160a01b0302191690836001600160a01b0316021790555060408201518160020160006101000a8154816001600160a01b0302191690836001600160a01b0316021790555060608201518160030160006101000a8154816001600160a01b0302191690836001600160a01b0316021790555060808201518160040160006101000a8154816001600160a01b0302191690836001600160a01b0316021790555060a08201518160050160006101000a8154816001600160a01b0302191690836001600160a01b0316021790555060c08201518160060160006101000a8154816001600160a01b0302191690836001600160a01b0316021790555060e08201518160070160006101000a8154816001600160a01b0302191690836001600160a01b031602179055506101008201518160080160006101000a8154816001600160a01b0302191690836001600160a01b031602179055505050604082015181600d0160008201518160000160006101000a8154816001600160a01b0302191690836001600160a01b0316021790555060208201518160010160006101000a8154816001600160a01b0302191690836001600160a01b0316021790555060408201518160020160006101000a8154816001600160a01b0302191690836001600160a01b0316021790555060608201518160030160006101000a8154816001600160a01b0302191690836001600160a01b0316021790555060808201518160040160006101000a8154816001600160a01b0302191690836001600160a01b0316021790555060a08201518160050160006101000a8154816001600160a01b0302191690836001600160a01b0316021790555060c08201518160060160006101000a8154816001600160a01b0302191690836001600160a01b0316021790555060e08201518160070160006101000a8154816001600160a01b0302191690836001600160a01b031602179055506101008201518160080160006101000a8154816001600160a01b0302191690836001600160a01b031602179055506101208201518160090160006101000a8154816001600160a01b0302191690836001600160a01b0316021790555061014082015181600a0160006101000a8154816001600160a01b0302191690836001600160a01b03160217905550505060608201518160180160008201518160000160006101000a8154816001600160a01b0302191690836001600160a01b0316021790555060208201518160010155604082015181600201556060820151816003015560808201518160040160006101000a8154816001600160401b0302191690836001600160401b0316021790555060a08201518160040160086101000a8154816001600160a01b0302191690836001600160a01b0316021790555060c08201518160050160008201518160000160006101000a81548163ffffffff021916908363ffffffff16021790555060208201518160000160046101000a81548160ff021916908360ff16021790555060408201518160000160056101000a81548160ff021916908360ff16021790555060608201518160000160066101000a81548163ffffffff021916908363ffffffff160217905550608082015181600001600a6101000a81548163ffffffff021916908363ffffffff16021790555060a082015181600001600e6101000a8154816001600160801b0302191690836001600160801b03160217905550505060e082015181600601556101008201518160070160006101000a8154816001600160a01b0302191690836001600160a01b031602179055506101208201518160080160008201518160000160006101000a8154816001600160a01b0302191690836001600160a01b0316021790555060208201518160010160006101000a8154816001600160a01b0302191690836001600160a01b0316021790555060408201518160020160006101000a8154816001600160a01b0302191690836001600160a01b0316021790555060608201518160030160006101000a8154816001600160a01b0302191690836001600160a01b0316021790555060808201518160040160006101000a8154816001600160a01b0302191690836001600160a01b0316021790555060a08201518160050160006101000a8154816001600160a01b0302191690836001600160a01b0316021790555060c08201518160060160006101000a8154816001600160a01b0302191690836001600160a01b0316021790555060e08201518160070160006101000a8154816001600160a01b0302191690836001600160a01b0316021790555050505050608082015181602801600082015181600001556020820151816001015550509050506001609760006101000a81548160ff021916908360ff16021790555062000aec62000b5d60201b60201c565b60675462000b03906001600160a01b031662000bc5565b801562000b4a576000805461ff0019169055604051600181527f7f26b83ff96e1f2b6a682f133852f6798a09c465da95921460cefb38474024989060200160405180910390a15b5050565b6001600160a01b03163b151590565b600054610100900460ff1662000bb95760405162461bcd60e51b815260206004820152602b602482015260008051602062006aa083398151915260448201526a6e697469616c697a696e6760a81b6064820152608401620002c6565b62000bc362000c17565b565b603380546001600160a01b038381166001600160a01b0319831681179093556040519116919082907f8be0079c531659141344cd1fd0a4f28419497f9722a3daafe3b4186f6b6457e090600090a35050565b600054610100900460ff1662000c735760405162461bcd60e51b815260206004820152602b602482015260008051602062006aa083398151915260448201526a6e697469616c697a696e6760a81b6064820152608401620002c6565b62000bc33362000bc5565b615e128062000c8e6000396000f3fe608060405234801561001057600080fd5b50600436106101985760003560e01c80638f4ed333116100e3578063df4ec2491161008c578063f2fde38b11610066578063f2fde38b1461114e578063fb5d737614611161578063fe6b1ddf1461116957600080fd5b8063df4ec2491461112b578063e10ad86314611133578063e7c562291461114657600080fd5b8063d40a71fb116100bd578063d40a71fb146110fb578063d4deb3b614611103578063d7efbb301461110b57600080fd5b80638f4ed333146110b8578063b3f05b97146110c0578063cf03c22d146110d357600080fd5b8063715018a6116101455780637d1d95a61161011f5780637d1d95a61461105f57806389cb7343146110675780638da5cb5b1461107957600080fd5b8063715018a6146102885780637708f2671461029057806379502c55146102a357600080fd5b80634fb4bcec116101765780634fb4bcec1461024f5780635bc34f71146102575780635ce6c3271461026457600080fd5b8063204c881c1461019d578063289c6af71461022b5780634bb278f314610245575b600080fd5b608f546090546091546092546093546094546095546101d8969594939273ffffffffffffffffffffffffffffffffffffffff90811692169087565b60408051978852602088019690965294860193909352606085019190915273ffffffffffffffffffffffffffffffffffffffff90811660808501521660a083015260c082015260e0015b60405180910390f35b610233600381565b60405160ff9091168152602001610222565b61024d611171565b005b61024d6113d6565b6097546102339060ff1681565b609754610278906301000000900460ff1681565b6040519015158152602001610222565b61024d612b14565b61024d61029e366004615113565b612b28565b61104e6065806000016040518060800160405290816000820160009054906101000a900473ffffffffffffffffffffffffffffffffffffffff1673ffffffffffffffffffffffffffffffffffffffff1673ffffffffffffffffffffffffffffffffffffffff1681526020016001820160009054906101000a900473ffffffffffffffffffffffffffffffffffffffff1673ffffffffffffffffffffffffffffffffffffffff1673ffffffffffffffffffffffffffffffffffffffff1681526020016002820160009054906101000a900473ffffffffffffffffffffffffffffffffffffffff1673ffffffffffffffffffffffffffffffffffffffff1673ffffffffffffffffffffffffffffffffffffffff1681526020016003820160009054906101000a900473ffffffffffffffffffffffffffffffffffffffff1673ffffffffffffffffffffffffffffffffffffffff1673ffffffffffffffffffffffffffffffffffffffff16815250509080600401604051806101200160405290816000820160009054906101000a900473ffffffffffffffffffffffffffffffffffffffff1673ffffffffffffffffffffffffffffffffffffffff1673ffffffffffffffffffffffffffffffffffffffff1681526020016001820160009054906101000a900473ffffffffffffffffffffffffffffffffffffffff1673ffffffffffffffffffffffffffffffffffffffff1673ffffffffffffffffffffffffffffffffffffffff1681526020016002820160009054906101000a900473ffffffffffffffffffffffffffffffffffffffff1673ffffffffffffffffffffffffffffffffffffffff1673ffffffffffffffffffffffffffffffffffffffff1681526020016003820160009054906101000a900473ffffffffffffffffffffffffffffffffffffffff1673ffffffffffffffffffffffffffffffffffffffff1673ffffffffffffffffffffffffffffffffffffffff1681526020016004820160009054906101000a900473ffffffffffffffffffffffffffffffffffffffff1673ffffffffffffffffffffffffffffffffffffffff1673ffffffffffffffffffffffffffffffffffffffff1681526020016005820160009054906101000a900473ffffffffffffffffffffffffffffffffffffffff1673ffffffffffffffffffffffffffffffffffffffff1673ffffffffffffffffffffffffffffffffffffffff1681526020016006820160009054906101000a900473ffffffffffffffffffffffffffffffffffffffff1673ffffffffffffffffffffffffffffffffffffffff1673ffffffffffffffffffffffffffffffffffffffff1681526020016007820160009054906101000a900473ffffffffffffffffffffffffffffffffffffffff1673ffffffffffffffffffffffffffffffffffffffff1673ffffffffffffffffffffffffffffffffffffffff1681526020016008820160009054906101000a900473ffffffffffffffffffffffffffffffffffffffff1673ffffffffffffffffffffffffffffffffffffffff1673ffffffffffffffffffffffffffffffffffffffff16815250509080600d01604051806101600160405290816000820160009054906101000a900473ffffffffffffffffffffffffffffffffffffffff1673ffffffffffffffffffffffffffffffffffffffff1673ffffffffffffffffffffffffffffffffffffffff1681526020016001820160009054906101000a900473ffffffffffffffffffffffffffffffffffffffff1673ffffffffffffffffffffffffffffffffffffffff1673ffffffffffffffffffffffffffffffffffffffff1681526020016002820160009054906101000a900473ffffffffffffffffffffffffffffffffffffffff1673ffffffffffffffffffffffffffffffffffffffff1673ffffffffffffffffffffffffffffffffffffffff1681526020016003820160009054906101000a900473ffffffffffffffffffffffffffffffffffffffff1673ffffffffffffffffffffffffffffffffffffffff1673ffffffffffffffffffffffffffffffffffffffff1681526020016004820160009054906101000a900473ffffffffffffffffffffffffffffffffffffffff1673ffffffffffffffffffffffffffffffffffffffff1673ffffffffffffffffffffffffffffffffffffffff1681526020016005820160009054906101000a900473ffffffffffffffffffffffffffffffffffffffff1673ffffffffffffffffffffffffffffffffffffffff1673ffffffffffffffffffffffffffffffffffffffff1681526020016006820160009054906101000a900473ffffffffffffffffffffffffffffffffffffffff1673ffffffffffffffffffffffffffffffffffffffff1673ffffffffffffffffffffffffffffffffffffffff1681526020016007820160009054906101000a900473ffffffffffffffffffffffffffffffffffffffff1673ffffffffffffffffffffffffffffffffffffffff1673ffffffffffffffffffffffffffffffffffffffff1681526020016008820160009054906101000a900473ffffffffffffffffffffffffffffffffffffffff1673ffffffffffffffffffffffffffffffffffffffff1673ffffffffffffffffffffffffffffffffffffffff1681526020016009820160009054906101000a900473ffffffffffffffffffffffffffffffffffffffff1673ffffffffffffffffffffffffffffffffffffffff1673ffffffffffffffffffffffffffffffffffffffff168152602001600a820160009054906101000a900473ffffffffffffffffffffffffffffffffffffffff1673ffffffffffffffffffffffffffffffffffffffff1673ffffffffffffffffffffffffffffffffffffffff16815250509080601801604051806101400160405290816000820160009054906101000a900473ffffffffffffffffffffffffffffffffffffffff1673ffffffffffffffffffffffffffffffffffffffff1673ffffffffffffffffffffffffffffffffffffffff1681526020016001820154815260200160028201548152602001600382015481526020016004820160009054906101000a900467ffffffffffffffff1667ffffffffffffffff1667ffffffffffffffff1681526020016004820160089054906101000a900473ffffffffffffffffffffffffffffffffffffffff1673ffffffffffffffffffffffffffffffffffffffff1673ffffffffffffffffffffffffffffffffffffffff168152602001600582016040518060c00160405290816000820160009054906101000a900463ffffffff1663ffffffff1663ffffffff1681526020016000820160049054906101000a900460ff1660ff1660ff1681526020016000820160059054906101000a900460ff1660ff1660ff1681526020016000820160069054906101000a900463ffffffff1663ffffffff1663ffffffff16815260200160008201600a9054906101000a900463ffffffff1663ffffffff1663ffffffff16815260200160008201600e9054906101000a90046fffffffffffffffffffffffffffffffff166fffffffffffffffffffffffffffffffff166fffffffffffffffffffffffffffffffff16815250508152602001600682015481526020016007820160009054906101000a900473ffffffffffffffffffffffffffffffffffffffff1673ffffffffffffffffffffffffffffffffffffffff1673ffffffffffffffffffffffffffffffffffffffff16815260200160088201604051806101000160405290816000820160009054906101000a900473ffffffffffffffffffffffffffffffffffffffff1673ffffffffffffffffffffffffffffffffffffffff1673ffffffffffffffffffffffffffffffffffffffff1681526020016001820160009054906101000a900473ffffffffffffffffffffffffffffffffffffffff1673ffffffffffffffffffffffffffffffffffffffff1673ffffffffffffffffffffffffffffffffffffffff1681526020016002820160009054906101000a900473ffffffffffffffffffffffffffffffffffffffff1673ffffffffffffffffffffffffffffffffffffffff1673ffffffffffffffffffffffffffffffffffffffff1681526020016003820160009054906101000a900473ffffffffffffffffffffffffffffffffffffffff1673ffffffffffffffffffffffffffffffffffffffff1673ffffffffffffffffffffffffffffffffffffffff1681526020016004820160009054906101000a900473ffffffffffffffffffffffffffffffffffffffff1673ffffffffffffffffffffffffffffffffffffffff1673ffffffffffffffffffffffffffffffffffffffff1681526020016005820160009054906101000a900473ffffffffffffffffffffffffffffffffffffffff1673ffffffffffffffffffffffffffffffffffffffff1673ffffffffffffffffffffffffffffffffffffffff1681526020016006820160009054906101000a900473ffffffffffffffffffffffffffffffffffffffff1673ffffffffffffffffffffffffffffffffffffffff1673ffffffffffffffffffffffffffffffffffffffff1681526020016007820160009054906101000a900473ffffffffffffffffffffffffffffffffffffffff1673ffffffffffffffffffffffffffffffffffffffff1673ffffffffffffffffffffffffffffffffffffffff168152505081525050908060280160405180604001604052908160008201548152602001600182015481525050905085565b604051610222959493929190615511565b610233600481565b60975461027890610100900460ff1681565b60335473ffffffffffffffffffffffffffffffffffffffff165b60405173ffffffffffffffffffffffffffffffffffffffff9091168152602001610222565b61024d613868565b6097546102789062010000900460ff1681565b60975461109390640100000000900473ffffffffffffffffffffffffffffffffffffffff1681565b61024d613beb565b61024d613f50565b6096546110939073ffffffffffffffffffffffffffffffffffffffff1681565b61024d613f78565b61024d6111413660046156b9565b614218565b61024d6142e1565b61024d61115c366004615753565b6142f9565b61024d6143b0565b61024d61467b565b6111796147be565b6066546068546040517ff2fde38b00000000000000000000000000000000000000000000000000000000815273ffffffffffffffffffffffffffffffffffffffff918216600482015291169063f2fde38b90602401600060405180830381600087803b1580156111e857600080fd5b505af11580156111fc573d6000803e3d6000fd5b5050609754600460ff9091161191506113a79050576065546068546040517ff2fde38b00000000000000000000000000000000000000000000000000000000815273ffffffffffffffffffffffffffffffffffffffff918216600482015291169063f2fde38b90602401600060405180830381600087803b15801561128057600080fd5b505af1158015611294573d6000803e3d6000fd5b5050606c546068546040517f13af403500000000000000000000000000000000000000000000000000000000815273ffffffffffffffffffffffffffffffffffffffff9182166004820152911692506313af40359150602401600060405180830381600087803b15801561130757600080fd5b505af115801561131b573d6000803e3d6000fd5b5050606e546068546040517f8f28397000000000000000000000000000000000000000000000000000000000815273ffffffffffffffffffffffffffffffffffffffff918216600482015291169250638f2839709150602401600060405180830381600087803b15801561138e57600080fd5b505af11580156113a2573d6000803e3d6000fd5b505050505b609780547fffffffffffffffffffffffffffffffffffffffffffffffffffffffffff00ffff1662010000179055565b6113de6147be565b60975460059062010000900460ff1615611459576040517f08c379a000000000000000000000000000000000000000000000000000000000815260206004820152601160248201527f416c72656164792066696e616c697a656400000000000000000000000000000060448201526064015b60405180910390fd5b6097546301000000900460ff16156114cd576040517f08c379a000000000000000000000000000000000000000000000000000000000815260206004820152600e60248201527f416c7265616479206578697465640000000000000000000000000000000000006044820152606401611450565b60975460ff82811691161461153e576040517f08c379a000000000000000000000000000000000000000000000000000000000815260206004820152600e60248201527f496e636f727265637420737465700000000000000000000000000000000000006044820152606401611450565b609754610100900460ff166115af576040517f08c379a000000000000000000000000000000000000000000000000000000000815260206004820152601560248201527f4443206973206e6f7420696e697469616c697a656400000000000000000000006044820152606401611450565b606654606954607254608f54609054609154609254609354609454609554604051602481019790975260448701959095526064860193909352608485019190915273ffffffffffffffffffffffffffffffffffffffff90811660a485015290811660c484015260e483019190915293841693639623609d93811692169061010401604080517fffffffffffffffffffffffffffffffffffffffffffffffffffffffffffffffe08184030181529181526020820180517bffffffffffffffffffffffffffffffffffffffffffffffffffffffff167f1c89c97d00000000000000000000000000000000000000000000000000000000179052517fffffffff0000000000000000000000000000000000000000000000000000000060e086901b1681526116df939291906004016157ed565b600060405180830381600087803b1580156116f957600080fd5b505af115801561170d573d6000803e3d6000fd5b5050606654606a54607354606954606f5460715460405173ffffffffffffffffffffffffffffffffffffffff93841660248201529183166044830152821660648201529381169550639623609d945091821692911690608401604080517fffffffffffffffffffffffffffffffffffffffffffffffffffffffffffffffe08184030181529181526020820180517bffffffffffffffffffffffffffffffffffffffffffffffffffffffff167fc0c53b8b00000000000000000000000000000000000000000000000000000000179052517fffffffff0000000000000000000000000000000000000000000000000000000060e086901b168152611815939291906004016157ed565b600060405180830381600087803b15801561182f57600080fd5b505af1158015611843573d6000803e3d6000fd5b5050606654606f54607a54607d54607e54607f5460805460815473ffffffffffffffffffffffffffffffffffffffff9788169950639623609d985095871696948516959385169492939192909167ffffffffffffffff811691680100000000000000009091041661192d6040805160c081018252600080825260208201819052918101829052606081018290526080810182905260a0810191909152506040805160c0810182526301312d008152600a6020820152600891810191909152633b9aca006060820152620f424060808201526fffffffffffffffffffffffffffffffff60a082015290565b608454604051611960989796959493929173ffffffffffffffffffffffffffffffffffffffff169060859060240161582f565b604080517fffffffffffffffffffffffffffffffffffffffffffffffffffffffffffffffe08184030181529181526020820180517bffffffffffffffffffffffffffffffffffffffffffffffffffffffff167f0220e34f00000000000000000000000000000000000000000000000000000000179052517fffffffff0000000000000000000000000000000000000000000000000000000060e086901b168152611a0f939291906004016157ed565b600060405180830381600087803b158015611a2957600080fd5b505af1158015611a3d573d6000803e3d6000fd5b5050606654606b546074546040517f99a88ec400000000000000000000000000000000000000000000000000000000815273ffffffffffffffffffffffffffffffffffffffff92831660048201529082166024820152911692506399a88ec49150604401600060405180830381600087803b158015611abb57600080fd5b505af1158015611acf573d6000803e3d6000fd5b5050606b54607154606a54606f546040517fc0c53b8b00000000000000000000000000000000000000000000000000000000815273ffffffffffffffffffffffffffffffffffffffff93841660048201529183166024830152821660448201529116925063c0c53b8b9150606401600060405180830381600087803b158015611b5757600080fd5b505af1925050508015611b68575060015b611c9f57611b74615988565b806308c379a003611c3b5750611b886159a4565b80611b935750611c3d565b7f7a2a4e26842155ea933fe6eb6e3137eb5a296dcdf55721c552be7b4c3cc2375981604051602001611bc59190615a4c565b604051602081830303815290604052805190602001201481604051602001611bed9190615a68565b60405160208183030381529060405290611c34576040517f08c379a00000000000000000000000000000000000000000000000000000000081526004016114509190615aad565b5050611c9f565b505b6040517f08c379a000000000000000000000000000000000000000000000000000000000815260206004820152600b60248201527f4572726f72204c3158444d0000000000000000000000000000000000000000006044820152606401611450565b606654606c546078546040805160048082526024820183526020820180517bffffffffffffffffffffffffffffffffffffffffffffffffffffffff167fed88c68e0000000000000000000000000000000000000000000000000000000017905291517f9623609d00000000000000000000000000000000000000000000000000000000815273ffffffffffffffffffffffffffffffffffffffff95861695639623609d95611d55959082169491169291016157ed565b600060405180830381600087803b158015611d6f57600080fd5b505af1158015611d83573d6000803e3d6000fd5b5050606654606c546075546040517f99a88ec400000000000000000000000000000000000000000000000000000000815273ffffffffffffffffffffffffffffffffffffffff92831660048201529082166024820152911692506399a88ec49150604401600060405180830381600087803b158015611e0157600080fd5b505af1158015611e15573d6000803e3d6000fd5b5050606654606d546076546040517f99a88ec400000000000000000000000000000000000000000000000000000000815273ffffffffffffffffffffffffffffffffffffffff92831660048201529082166024820152911692506399a88ec49150604401600060405180830381600087803b158015611e9357600080fd5b505af1158015611ea7573d6000803e3d6000fd5b5050606654606e546077546040517f99a88ec400000000000000000000000000000000000000000000000000000000815273ffffffffffffffffffffffffffffffffffffffff92831660048201529082166024820152911692506399a88ec49150604401600060405180830381600087803b158015611f2557600080fd5b505af1158015611f39573d6000803e3d6000fd5b5050606654607054607b546040517f99a88ec400000000000000000000000000000000000000000000000000000000815273ffffffffffffffffffffffffffffffffffffffff92831660048201529082166024820152911692506399a88ec49150604401600060405180830381600087803b158015611fb757600080fd5b505af1158015611fcb573d6000803e3d6000fd5b5050606654607154607c546040517f99a88ec400000000000000000000000000000000000000000000000000000000815273ffffffffffffffffffffffffffffffffffffffff92831660048201529082166024820152911692506399a88ec49150604401600060405180830381600087803b15801561204957600080fd5b505af115801561205d573d6000803e3d6000fd5b5050606c54606b54607154606f546040517fc0c53b8b00000000000000000000000000000000000000000000000000000000815273ffffffffffffffffffffffffffffffffffffffff93841660048201529183166024830152821660448201529116925063c0c53b8b9150606401600060405180830381600087803b1580156120e557600080fd5b505af19250505080156120f6575060015b61222d57612102615988565b806308c379a0036121c957506121166159a4565b8061212157506121cb565b7f7a2a4e26842155ea933fe6eb6e3137eb5a296dcdf55721c552be7b4c3cc23759816040516020016121539190615a4c565b60405160208183030381529060405280519060200120148160405160200161217b9190615ac0565b604051602081830303815290604052906121c2576040517f08c379a00000000000000000000000000000000000000000000000000000000081526004016114509190615aad565b505061222d565b505b6040517f08c379a000000000000000000000000000000000000000000000000000000000815260206004820152600a60248201527f4572726f72204c315342000000000000000000000000000000000000000000006044820152606401611450565b606c546071546040517fe23754da00000000000000000000000000000000000000000000000000000000815273ffffffffffffffffffffffffffffffffffffffff918216600482015291169063e23754da90602401600060405180830381600087803b15801561229c57600080fd5b505af19250505080156122ad575060015b6123e4576122b9615988565b806308c379a00361238057506122cd6159a4565b806122d85750612382565b7f4fbaa7e98e32928bd420bc39465f06e05abac62baa90bf4053a4ef877dfdd9018160405160200161230a9190615a4c565b6040516020818303038152906040528051906020012014816040516020016123329190615b05565b60405160208183030381529060405290612379576040517f08c379a00000000000000000000000000000000000000000000000000000000081526004016114509190615aad565b50506123e4565b505b6040517f08c379a000000000000000000000000000000000000000000000000000000000815260206004820152601b60248201527f4572726f72205375706572636861696e436f6e666967204c31534200000000006044820152606401611450565b606e54606b546071546040517f485cc95500000000000000000000000000000000000000000000000000000000815273ffffffffffffffffffffffffffffffffffffffff9283166004820152908216602482015291169063485cc95590604401600060405180830381600087803b15801561245e57600080fd5b505af192505050801561246f575060015b6125a65761247b615988565b806308c379a003612542575061248f6159a4565b8061249a5750612544565b7f7a2a4e26842155ea933fe6eb6e3137eb5a296dcdf55721c552be7b4c3cc23759816040516020016124cc9190615a4c565b6040516020818303038152906040528051906020012014816040516020016124f49190615b4a565b6040516020818303038152906040529061253b576040517f08c379a00000000000000000000000000000000000000000000000000000000081526004016114509190615aad565b50506125a6565b505b6040517f08c379a000000000000000000000000000000000000000000000000000000000815260206004820152601460248201527f4572726f72204c314552433732314272696467650000000000000000000000006044820152606401611450565b606d54606c546040517fc4d66de800000000000000000000000000000000000000000000000000000000815273ffffffffffffffffffffffffffffffffffffffff918216600482015291169063c4d66de890602401600060405180830381600087803b15801561261557600080fd5b505af1925050508015612626575060015b61275d57612632615988565b806308c379a0036126f957506126466159a4565b8061265157506126fb565b7f7a2a4e26842155ea933fe6eb6e3137eb5a296dcdf55721c552be7b4c3cc23759816040516020016126839190615a4c565b6040516020818303038152906040528051906020012014816040516020016126ab9190615b8f565b604051602081830303815290604052906126f2576040517f08c379a00000000000000000000000000000000000000000000000000000000081526004016114509190615aad565b505061275d565b505b6040517f08c379a000000000000000000000000000000000000000000000000000000000815260206004820152601460248201527f4572726f72204c314552433230466163746f72790000000000000000000000006044820152606401611450565b607054606654608d54608e546040517f7a1ac61e00000000000000000000000000000000000000000000000000000000815273ffffffffffffffffffffffffffffffffffffffff938416600482015260248101929092526044820152911690637a1ac61e90606401600060405180830381600087803b1580156127df57600080fd5b505af19250505080156127f0575060015b612927576127fc615988565b806308c379a0036128c357506128106159a4565b8061281b57506128c5565b7f7a2a4e26842155ea933fe6eb6e3137eb5a296dcdf55721c552be7b4c3cc237598160405160200161284d9190615a4c565b6040516020818303038152906040528051906020012014816040516020016128759190615bc7565b604051602081830303815290604052906128bc576040517f08c379a00000000000000000000000000000000000000000000000000000000081526004016114509190615aad565b5050612927565b505b6040517f08c379a000000000000000000000000000000000000000000000000000000000815260206004820152601660248201527f4572726f722050726f746f636f6c56657273696f6e73000000000000000000006044820152606401611450565b6071546096546040517f400ada7500000000000000000000000000000000000000000000000000000000815273ffffffffffffffffffffffffffffffffffffffff91821660048201526000602482015291169063400ada7590604401600060405180830381600087803b15801561299d57600080fd5b505af19250505080156129ae575060015b612ae5576129ba615988565b806308c379a003612a8157506129ce6159a4565b806129d95750612a83565b7f7a2a4e26842155ea933fe6eb6e3137eb5a296dcdf55721c552be7b4c3cc2375981604051602001612a0b9190615a4c565b604051602081830303815290604052805190602001201481604051602001612a339190615c0c565b60405160208183030381529060405290612a7a576040517f08c379a00000000000000000000000000000000000000000000000000000000081526004016114509190615aad565b5050612ae5565b505b6040517f08c379a000000000000000000000000000000000000000000000000000000000815260206004820152601760248201527f204572726f72205375706572636861696e436f6e6669670000000000000000006044820152606401611450565b6097805460ff16906000612af883615c44565b91906101000a81548160ff021916908360ff1602179055505050565b612b1c6147be565b612b26600061483f565b565b600054610100900460ff1615808015612b485750600054600160ff909116105b80612b625750303b158015612b62575060005460ff166001145b612bee576040517f08c379a000000000000000000000000000000000000000000000000000000000815260206004820152602e60248201527f496e697469616c697a61626c653a20636f6e747261637420697320616c72656160448201527f647920696e697469616c697a65640000000000000000000000000000000000006064820152608401611450565b600080547fffffffffffffffffffffffffffffffffffffffffffffffffffffffffffffff001660011790558015612c4c57600080547fffffffffffffffffffffffffffffffffffffffffffffffffffffffffffff00ff166101001790555b81606560008201518160000160008201518160000160006101000a81548173ffffffffffffffffffffffffffffffffffffffff021916908373ffffffffffffffffffffffffffffffffffffffff16021790555060208201518160010160006101000a81548173ffffffffffffffffffffffffffffffffffffffff021916908373ffffffffffffffffffffffffffffffffffffffff16021790555060408201518160020160006101000a81548173ffffffffffffffffffffffffffffffffffffffff021916908373ffffffffffffffffffffffffffffffffffffffff16021790555060608201518160030160006101000a81548173ffffffffffffffffffffffffffffffffffffffff021916908373ffffffffffffffffffffffffffffffffffffffff160217905550505060208201518160040160008201518160000160006101000a81548173ffffffffffffffffffffffffffffffffffffffff021916908373ffffffffffffffffffffffffffffffffffffffff16021790555060208201518160010160006101000a81548173ffffffffffffffffffffffffffffffffffffffff021916908373ffffffffffffffffffffffffffffffffffffffff16021790555060408201518160020160006101000a81548173ffffffffffffffffffffffffffffffffffffffff021916908373ffffffffffffffffffffffffffffffffffffffff16021790555060608201518160030160006101000a81548173ffffffffffffffffffffffffffffffffffffffff021916908373ffffffffffffffffffffffffffffffffffffffff16021790555060808201518160040160006101000a81548173ffffffffffffffffffffffffffffffffffffffff021916908373ffffffffffffffffffffffffffffffffffffffff16021790555060a08201518160050160006101000a81548173ffffffffffffffffffffffffffffffffffffffff021916908373ffffffffffffffffffffffffffffffffffffffff16021790555060c08201518160060160006101000a81548173ffffffffffffffffffffffffffffffffffffffff021916908373ffffffffffffffffffffffffffffffffffffffff16021790555060e08201518160070160006101000a81548173ffffffffffffffffffffffffffffffffffffffff021916908373ffffffffffffffffffffffffffffffffffffffff1602179055506101008201518160080160006101000a81548173ffffffffffffffffffffffffffffffffffffffff021916908373ffffffffffffffffffffffffffffffffffffffff1602179055505050604082015181600d0160008201518160000160006101000a81548173ffffffffffffffffffffffffffffffffffffffff021916908373ffffffffffffffffffffffffffffffffffffffff16021790555060208201518160010160006101000a81548173ffffffffffffffffffffffffffffffffffffffff021916908373ffffffffffffffffffffffffffffffffffffffff16021790555060408201518160020160006101000a81548173ffffffffffffffffffffffffffffffffffffffff021916908373ffffffffffffffffffffffffffffffffffffffff16021790555060608201518160030160006101000a81548173ffffffffffffffffffffffffffffffffffffffff021916908373ffffffffffffffffffffffffffffffffffffffff16021790555060808201518160040160006101000a81548173ffffffffffffffffffffffffffffffffffffffff021916908373ffffffffffffffffffffffffffffffffffffffff16021790555060a08201518160050160006101000a81548173ffffffffffffffffffffffffffffffffffffffff021916908373ffffffffffffffffffffffffffffffffffffffff16021790555060c08201518160060160006101000a81548173ffffffffffffffffffffffffffffffffffffffff021916908373ffffffffffffffffffffffffffffffffffffffff16021790555060e08201518160070160006101000a81548173ffffffffffffffffffffffffffffffffffffffff021916908373ffffffffffffffffffffffffffffffffffffffff1602179055506101008201518160080160006101000a81548173ffffffffffffffffffffffffffffffffffffffff021916908373ffffffffffffffffffffffffffffffffffffffff1602179055506101208201518160090160006101000a81548173ffffffffffffffffffffffffffffffffffffffff021916908373ffffffffffffffffffffffffffffffffffffffff16021790555061014082015181600a0160006101000a81548173ffffffffffffffffffffffffffffffffffffffff021916908373ffffffffffffffffffffffffffffffffffffffff160217905550505060608201518160180160008201518160000160006101000a81548173ffffffffffffffffffffffffffffffffffffffff021916908373ffffffffffffffffffffffffffffffffffffffff16021790555060208201518160010155604082015181600201556060820151816003015560808201518160040160006101000a81548167ffffffffffffffff021916908367ffffffffffffffff16021790555060a08201518160040160086101000a81548173ffffffffffffffffffffffffffffffffffffffff021916908373ffffffffffffffffffffffffffffffffffffffff16021790555060c08201518160050160008201518160000160006101000a81548163ffffffff021916908363ffffffff16021790555060208201518160000160046101000a81548160ff021916908360ff16021790555060408201518160000160056101000a81548160ff021916908360ff16021790555060608201518160000160066101000a81548163ffffffff021916908363ffffffff160217905550608082015181600001600a6101000a81548163ffffffff021916908363ffffffff16021790555060a082015181600001600e6101000a8154816fffffffffffffffffffffffffffffffff02191690836fffffffffffffffffffffffffffffffff160217905550505060e082015181600601556101008201518160070160006101000a81548173ffffffffffffffffffffffffffffffffffffffff021916908373ffffffffffffffffffffffffffffffffffffffff1602179055506101208201518160080160008201518160000160006101000a81548173ffffffffffffffffffffffffffffffffffffffff021916908373ffffffffffffffffffffffffffffffffffffffff16021790555060208201518160010160006101000a81548173ffffffffffffffffffffffffffffffffffffffff021916908373ffffffffffffffffffffffffffffffffffffffff16021790555060408201518160020160006101000a81548173ffffffffffffffffffffffffffffffffffffffff021916908373ffffffffffffffffffffffffffffffffffffffff16021790555060608201518160030160006101000a81548173ffffffffffffffffffffffffffffffffffffffff021916908373ffffffffffffffffffffffffffffffffffffffff16021790555060808201518160040160006101000a81548173ffffffffffffffffffffffffffffffffffffffff021916908373ffffffffffffffffffffffffffffffffffffffff16021790555060a08201518160050160006101000a81548173ffffffffffffffffffffffffffffffffffffffff021916908373ffffffffffffffffffffffffffffffffffffffff16021790555060c08201518160060160006101000a81548173ffffffffffffffffffffffffffffffffffffffff021916908373ffffffffffffffffffffffffffffffffffffffff16021790555060e08201518160070160006101000a81548173ffffffffffffffffffffffffffffffffffffffff021916908373ffffffffffffffffffffffffffffffffffffffff16021790555050505050608082015181602801600082015181600001556020820151816001015550509050506001609760006101000a81548160ff021916908360ff1602179055506137df6148b6565b6067546138019073ffffffffffffffffffffffffffffffffffffffff1661483f565b801561386457600080547fffffffffffffffffffffffffffffffffffffffffffffffffffffffffffff00ff169055604051600181527f7f26b83ff96e1f2b6a682f133852f6798a09c465da95921460cefb38474024989060200160405180910390a15b5050565b6138706147be565b60975460029062010000900460ff16156138e6576040517f08c379a000000000000000000000000000000000000000000000000000000000815260206004820152601160248201527f416c72656164792066696e616c697a65640000000000000000000000000000006044820152606401611450565b6097546301000000900460ff161561395a576040517f08c379a000000000000000000000000000000000000000000000000000000000815260206004820152600e60248201527f416c7265616479206578697465640000000000000000000000000000000000006044820152606401611450565b60975460ff8281169116146139cb576040517f08c379a000000000000000000000000000000000000000000000000000000000815260206004820152600e60248201527f496e636f727265637420737465700000000000000000000000000000000000006044820152606401611450565b6065546040517fbf40fac100000000000000000000000000000000000000000000000000000000815273ffffffffffffffffffffffffffffffffffffffff9091169063bf40fac190613a1f90600401615c8a565b602060405180830381865afa158015613a3c573d6000803e3d6000fd5b505050506040513d601f19601f82011682018060405250810190613a609190615ccd565b609780547fffffffffffffffff0000000000000000000000000000000000000000ffffffff1664010000000073ffffffffffffffffffffffffffffffffffffffff938416021790556065546040517f9b2ea4bd000000000000000000000000000000000000000000000000000000008152911690639b2ea4bd90613ae990600090600401615cea565b600060405180830381600087803b158015613b0357600080fd5b505af1158015613b17573d6000803e3d6000fd5b5050606554604080517f9b2ea4bd0000000000000000000000000000000000000000000000000000000081526004810191909152601160448201527f44544c5f534855544f46465f424c4f434b000000000000000000000000000000606482015273ffffffffffffffffffffffffffffffffffffffff43811660248301529091169250639b2ea4bd91506084015b600060405180830381600087803b158015613bbf57600080fd5b505af1158015613bd3573d6000803e3d6000fd5b50506097805460ff16925090506000612af883615c44565b613bf36147be565b60975460019062010000900460ff1615613c69576040517f08c379a000000000000000000000000000000000000000000000000000000000815260206004820152601160248201527f416c72656164792066696e616c697a65640000000000000000000000000000006044820152606401611450565b6097546301000000900460ff1615613cdd576040517f08c379a000000000000000000000000000000000000000000000000000000000815260206004820152600e60248201527f416c7265616479206578697465640000000000000000000000000000000000006044820152606401611450565b60975460ff828116911614613d4e576040517f08c379a000000000000000000000000000000000000000000000000000000000815260206004820152600e60248201527f496e636f727265637420737465700000000000000000000000000000000000006044820152606401611450565b6066546065546040517f0652b57a00000000000000000000000000000000000000000000000000000000815273ffffffffffffffffffffffffffffffffffffffff9182166004820152911690630652b57a90602401600060405180830381600087803b158015613dbd57600080fd5b505af1158015613dd1573d6000803e3d6000fd5b5050606654606b546040517f8d52d4a000000000000000000000000000000000000000000000000000000000815273ffffffffffffffffffffffffffffffffffffffff9283169450638d52d4a09350613e339290911690600290600401615d4b565b600060405180830381600087803b158015613e4d57600080fd5b505af1158015613e61573d6000803e3d6000fd5b5050606654606b546040517f860f7cda00000000000000000000000000000000000000000000000000000000815273ffffffffffffffffffffffffffffffffffffffff928316945063860f7cda9350613ec09290911690600401615dac565b600060405180830381600087803b158015613eda57600080fd5b505af1158015613eee573d6000803e3d6000fd5b5050606654606c546040517f8d52d4a000000000000000000000000000000000000000000000000000000000815273ffffffffffffffffffffffffffffffffffffffff9283169450638d52d4a09350613ba59290911690600190600401615d4b565b613f586147be565b613f60613f78565b613f686143b0565b613f706113d6565b612b26611171565b613f806147be565b60975460039062010000900460ff1615613ff6576040517f08c379a000000000000000000000000000000000000000000000000000000000815260206004820152601160248201527f416c72656164792066696e616c697a65640000000000000000000000000000006044820152606401611450565b6097546301000000900460ff161561406a576040517f08c379a000000000000000000000000000000000000000000000000000000000815260206004820152600e60248201527f416c7265616479206578697465640000000000000000000000000000000000006044820152606401611450565b60975460ff8281169116146140db576040517f08c379a000000000000000000000000000000000000000000000000000000000815260206004820152600e60248201527f496e636f727265637420737465700000000000000000000000000000000000006044820152606401611450565b60795460408051600481526024810182526020810180517bffffffffffffffffffffffffffffffffffffffffffffffffffffffff167fe873233c00000000000000000000000000000000000000000000000000000000179052905160009273ffffffffffffffffffffffffffffffffffffffff169161415991615a4c565b600060405180830381855af49150503d8060008114614194576040519150601f19603f3d011682016040523d82523d6000602084013e614199565b606091505b5050905080614204576040517f08c379a000000000000000000000000000000000000000000000000000000000815260206004820152601b60248201527f4572726f72206465707265636174696e672061646472657373657300000000006044820152606401611450565b506097805460ff16906000612af883615c44565b6142206147be565b8151608f556020820151609055604082015160915560608201516092556080820151609380547fffffffffffffffffffffffff000000000000000000000000000000000000000090811673ffffffffffffffffffffffffffffffffffffffff9384161790915560a084015160948054831691841691909117905560c0909301516095559051609680549093169116179055609780546101007fffffffffffffffffffffffffffffffffffffffffffffffffffffffffffff00ff909116179055565b6142e96147be565b6142f1613beb565b612b26613868565b6143016147be565b73ffffffffffffffffffffffffffffffffffffffff81166143a4576040517f08c379a000000000000000000000000000000000000000000000000000000000815260206004820152602660248201527f4f776e61626c653a206e6577206f776e657220697320746865207a65726f206160448201527f64647265737300000000000000000000000000000000000000000000000000006064820152608401611450565b6143ad8161483f565b50565b6143b86147be565b60975460049062010000900460ff161561442e576040517f08c379a000000000000000000000000000000000000000000000000000000000815260206004820152601160248201527f416c72656164792066696e616c697a65640000000000000000000000000000006044820152606401611450565b6097546301000000900460ff16156144a2576040517f08c379a000000000000000000000000000000000000000000000000000000000815260206004820152600e60248201527f416c7265616479206578697465640000000000000000000000000000000000006044820152606401611450565b60975460ff828116911614614513576040517f08c379a000000000000000000000000000000000000000000000000000000000815260206004820152600e60248201527f496e636f727265637420737465700000000000000000000000000000000000006044820152606401611450565b6065546066546040517ff2fde38b00000000000000000000000000000000000000000000000000000000815273ffffffffffffffffffffffffffffffffffffffff918216600482015291169063f2fde38b90602401600060405180830381600087803b15801561458257600080fd5b505af1158015614596573d6000803e3d6000fd5b5050606c546066546040517f13af403500000000000000000000000000000000000000000000000000000000815273ffffffffffffffffffffffffffffffffffffffff9182166004820152911692506313af40359150602401600060405180830381600087803b15801561460957600080fd5b505af115801561461d573d6000803e3d6000fd5b5050606e546066546040517f8f28397000000000000000000000000000000000000000000000000000000000815273ffffffffffffffffffffffffffffffffffffffff918216600482015291169250638f2839709150602401613ba5565b6146836147be565b60975460ff166003146146f2576040517f08c379a000000000000000000000000000000000000000000000000000000000815260206004820152601860248201527f4578697431206f6e6c79206265666f72652073746570203300000000000000006044820152606401611450565b609780547fffffffffffffffffffffffffffffffffffffffffffffffffffffffff00ffffff166301000000179055565b6040805160c081018252600080825260208201819052918101829052606081018290526080810182905260a0810191909152506040805160c0810182526301312d008152600a6020820152600891810191909152633b9aca006060820152620f424060808201526fffffffffffffffffffffffffffffffff60a082015290565b73ffffffffffffffffffffffffffffffffffffffff163b151590565b60335473ffffffffffffffffffffffffffffffffffffffff163314612b26576040517f08c379a000000000000000000000000000000000000000000000000000000000815260206004820181905260248201527f4f776e61626c653a2063616c6c6572206973206e6f7420746865206f776e65726044820152606401611450565b6033805473ffffffffffffffffffffffffffffffffffffffff8381167fffffffffffffffffffffffff0000000000000000000000000000000000000000831681179093556040519116919082907f8be0079c531659141344cd1fd0a4f28419497f9722a3daafe3b4186f6b6457e090600090a35050565b600054610100900460ff1661494d576040517f08c379a000000000000000000000000000000000000000000000000000000000815260206004820152602b60248201527f496e697469616c697a61626c653a20636f6e7472616374206973206e6f74206960448201527f6e697469616c697a696e670000000000000000000000000000000000000000006064820152608401611450565b612b26600054610100900460ff166149e7576040517f08c379a000000000000000000000000000000000000000000000000000000000815260206004820152602b60248201527f496e697469616c697a61626c653a20636f6e7472616374206973206e6f74206960448201527f6e697469616c697a696e670000000000000000000000000000000000000000006064820152608401611450565b612b263361483f565b60a0810181811067ffffffffffffffff82111715614a37577f4e487b7100000000000000000000000000000000000000000000000000000000600052604160045260246000fd5b60405250565b6080810181811067ffffffffffffffff82111715614a37577f4e487b7100000000000000000000000000000000000000000000000000000000600052604160045260246000fd5b60e0810181811067ffffffffffffffff82111715614a37577f4e487b7100000000000000000000000000000000000000000000000000000000600052604160045260246000fd5b7fffffffffffffffffffffffffffffffffffffffffffffffffffffffffffffffe0601f830116810181811067ffffffffffffffff82111715614b36577f4e487b7100000000000000000000000000000000000000000000000000000000600052604160045260246000fd5b6040525050565b604051610120810167ffffffffffffffff81118282101715614b88577f4e487b7100000000000000000000000000000000000000000000000000000000600052604160045260246000fd5b60405290565b604051610160810167ffffffffffffffff81118282101715614b88577f4e487b7100000000000000000000000000000000000000000000000000000000600052604160045260246000fd5b604051610140810167ffffffffffffffff81118282101715614b88577f4e487b7100000000000000000000000000000000000000000000000000000000600052604160045260246000fd5b73ffffffffffffffffffffffffffffffffffffffff811681146143ad57600080fd5b8035614c5181614c24565b919050565b60006101208284031215614c6957600080fd5b614c71614b3d565b9050614c7c82614c46565b8152614c8a60208301614c46565b6020820152614c9b60408301614c46565b6040820152614cac60608301614c46565b6060820152614cbd60808301614c46565b6080820152614cce60a08301614c46565b60a0820152614cdf60c08301614c46565b60c0820152614cf060e08301614c46565b60e0820152610100614d03818401614c46565b9082015292915050565b60006101608284031215614d2057600080fd5b614d28614b8e565b9050614d3382614c46565b8152614d4160208301614c46565b6020820152614d5260408301614c46565b6040820152614d6360608301614c46565b6060820152614d7460808301614c46565b6080820152614d8560a08301614c46565b60a0820152614d9660c08301614c46565b60c0820152614da760e08301614c46565b60e0820152610100614dba818401614c46565b90820152610120614dcc838201614c46565b90820152610140614d03838201614c46565b803567ffffffffffffffff81168114614c5157600080fd5b803563ffffffff81168114614c5157600080fd5b803560ff81168114614c5157600080fd5b600060c08284031215614e2d57600080fd5b60405160c0810181811067ffffffffffffffff82111715614e77577f4e487b7100000000000000000000000000000000000000000000000000000000600052604160045260246000fd5b604052905080614e8683614df6565b8152614e9460208401614e0a565b6020820152614ea560408401614e0a565b6040820152614eb660608401614df6565b6060820152614ec760808401614df6565b608082015260a08301356fffffffffffffffffffffffffffffffff81168114614eef57600080fd5b60a0919091015292915050565b6000610100808385031215614f1057600080fd5b6040519081019067ffffffffffffffff82118183101715614f5a577f4e487b7100000000000000000000000000000000000000000000000000000000600052604160045260246000fd5b81604052809250614f6a84614c46565b8152614f7860208501614c46565b6020820152614f8960408501614c46565b6040820152614f9a60608501614c46565b6060820152614fab60808501614c46565b6080820152614fbc60a08501614c46565b60a0820152614fcd60c08501614c46565b60c0820152614fde60e08501614c46565b60e0820152505092915050565b60006102c08284031215614ffe57600080fd5b615006614bd9565b905061501182614c46565b815260208201356020820152604082013560408201526060820135606082015261503d60808301614dde565b608082015261504e60a08301614c46565b60a08201526150608360c08401614e1b565b60c082015261018082013560e082015261507d6101a08301614c46565b610100820152615091836101c08401614efc565b61012082015292915050565b6000604082840312156150af57600080fd5b6040516040810181811067ffffffffffffffff821117156150f9577f4e487b7100000000000000000000000000000000000000000000000000000000600052604160045260246000fd5b604052823581526020928301359281019290925250919050565b600081830361060081121561512757600080fd5b604051615133816149f0565b608082121561514157600080fd5b604051915061514f82614a3d565b833561515a81614c24565b8252602084013561516a81614c24565b6020830152604084013561517d81614c24565b6040830152606084013561519081614c24565b60608301528181526151a58560808601614c56565b60208201526151b8856101a08601614d0d565b60408201526151cb856103008601614feb565b60608201526151de856105c0860161509d565b6080820152949350505050565b805173ffffffffffffffffffffffffffffffffffffffff168252602081015161522c602084018273ffffffffffffffffffffffffffffffffffffffff169052565b506040810151615254604084018273ffffffffffffffffffffffffffffffffffffffff169052565b50606081015161527c606084018273ffffffffffffffffffffffffffffffffffffffff169052565b5060808101516152a4608084018273ffffffffffffffffffffffffffffffffffffffff169052565b5060a08101516152cc60a084018273ffffffffffffffffffffffffffffffffffffffff169052565b5060c08101516152f460c084018273ffffffffffffffffffffffffffffffffffffffff169052565b5060e081015161531c60e084018273ffffffffffffffffffffffffffffffffffffffff169052565b506101008181015173ffffffffffffffffffffffffffffffffffffffff81168483015250506101208181015173ffffffffffffffffffffffffffffffffffffffff81168483015250506101408181015173ffffffffffffffffffffffffffffffffffffffff8116848301525b50505050565b805173ffffffffffffffffffffffffffffffffffffffff16825260208101516020830152604081015160408301526060810151606083015260808101516153e1608084018267ffffffffffffffff169052565b5060a081015161540960a084018273ffffffffffffffffffffffffffffffffffffffff169052565b5060c081015161547560c084018263ffffffff80825116835260ff602083015116602084015260ff6040830151166040840152806060830151166060840152806080830151166080840152506fffffffffffffffffffffffffffffffff60a08201511660a08301525050565b5060e08181015161018084015261010082015173ffffffffffffffffffffffffffffffffffffffff9081166101a085015261012090920151805183166101c0850152602081015183166101e085015260408101518316610200850152606081015183166102208501526080810151831661024085015260a0810151831661026085015260c081015183166102808501520151166102a090910152565b855173ffffffffffffffffffffffffffffffffffffffff90811682526020808801518216818401526040808901518316818501526060808a015184169085015287518316608085015290870151821660a084015286015190811660c083015261060082019050606086015173ffffffffffffffffffffffffffffffffffffffff811660e08401525060808601516101006155c28185018373ffffffffffffffffffffffffffffffffffffffff169052565b60a088015173ffffffffffffffffffffffffffffffffffffffff90811661012086015260c0890151811661014086015260e089015181166101608601529088015116610180840152506156196101a08301866151eb565b61562761030083018561538e565b82516105c083015260208301516105e08301529695505050505050565b60006020828403121561565657600080fd5b6040516020810181811067ffffffffffffffff821117156156a0577f4e487b7100000000000000000000000000000000000000000000000000000000600052604160045260246000fd5b60405290508082356156b181614c24565b905292915050565b6000808284036101008112156156ce57600080fd5b60e08112156156dc57600080fd5b506040516156e981614a84565b83358152602084013560208201526040840135604082015260608401356060820152608084013561571981614c24565b608082015260a084013561572c81614c24565b60a082015260c08481013590820152915061574a8460e08501615644565b90509250929050565b60006020828403121561576557600080fd5b813561577081614c24565b9392505050565b60005b8381101561579257818101518382015260200161577a565b838111156153885750506000910152565b600081518084526157bb816020860160208601615777565b601f017fffffffffffffffffffffffffffffffffffffffffffffffffffffffffffffffe0169290920160200192915050565b600073ffffffffffffffffffffffffffffffffffffffff80861683528085166020840152506060604083015261582660608301846157a3565b95945050505050565b60006102a08201905073ffffffffffffffffffffffffffffffffffffffff808c1683528a602084015289604084015288606084015267ffffffffffffffff8816608084015280871660a08401526158e260c084018763ffffffff80825116835260ff602083015116602084015260ff6040830151166040840152806060830151166060840152806080830151166080840152506fffffffffffffffffffffffffffffffff60a08201511660a08301525050565b8416610180830152825473ffffffffffffffffffffffffffffffffffffffff166101a0830152600183015473ffffffffffffffffffffffffffffffffffffffff9081166101c0840152600284015481166101e0840152600384015481166102008401526004840154811661022084015260058401548116610240840152600684015481166102608401526007909301549092166102809091015298975050505050505050565b600060033d11156159a15760046000803e5060005160e01c5b90565b600060443d10156159b25790565b6040517ffffffffffffffffffffffffffffffffffffffffffffffffffffffffffffffffc803d016004833e81513d67ffffffffffffffff8160248401118184111715615a0057505050505090565b8285019150815181811115615a185750505050505090565b843d8701016020828501011115615a325750505050505090565b615a4160208286010187614acb565b509095945050505050565b60008251615a5e818460208701615777565b9190910192915050565b7f4572726f72204c3158444d3a2000000000000000000000000000000000000000815260008251615aa081600d850160208701615777565b91909101600d0192915050565b60208152600061577060208301846157a3565b7f4572726f72204c3153423a200000000000000000000000000000000000000000815260008251615af881600c850160208701615777565b91909101600c0192915050565b7f4572726f72205375706572636861696e436f6e666967204c3153423a20000000815260008251615b3d81601d850160208701615777565b91909101601d0192915050565b7f4572726f72204c314552433732314272696467653a2000000000000000000000815260008251615b82816016850160208701615777565b9190910160160192915050565b7f4572726f72204c314552433230466163746f72793a2000000000000000000000815260008251615b82816016850160208701615777565b7f4572726f722050726f746f636f6c56657273696f6e733a200000000000000000815260008251615bff816018850160208701615777565b9190910160180192915050565b7f4572726f72205375706572636861696e436f6e6669673a200000000000000000815260008251615bff816018850160208701615777565b600060ff821660ff8103615c81577f4e487b7100000000000000000000000000000000000000000000000000000000600052601160045260246000fd5b60010192915050565b602081526000615cc760208301601a81527f4f564d5f4c3143726f7373446f6d61696e4d657373656e676572000000000000602082015260400190565b92915050565b600060208284031215615cdf57600080fd5b815161577081614c24565b604081526000615d2760408301601a81527f4f564d5f4c3143726f7373446f6d61696e4d657373656e676572000000000000602082015260400190565b905073ffffffffffffffffffffffffffffffffffffffff8316602083015292915050565b73ffffffffffffffffffffffffffffffffffffffff831681526040810160038310615d9f577f4e487b7100000000000000000000000000000000000000000000000000000000600052602160045260246000fd5b8260208301529392505050565b73ffffffffffffffffffffffffffffffffffffffff8216815260406020820152600061577060408301601a81527f4f564d5f4c3143726f7373446f6d61696e4d657373656e67657200000000000060208201526040019056fea164736f6c634300080f000a496e697469616c697a61626c653a20636f6e7472616374206973206e6f742069"
}