{
  "abi": [
    {
      "inputs": [
        {
          "internalType": "uint256",
          "name": "_submissionInterval",
          "type": "uint256"
        },
        {
          "internalType": "uint256",
          "name": "_l2BlockTime",
          "type": "uint256"
        },
        {
          "internalType": "bytes32",
          "name": "_genesisL2Output",
          "type": "bytes32"
        },
        {
          "internalType": "uint256",
          "name": "_historicalTotalBlocks",
          "type": "uint256"
        },
        {
          "internalType": "uint256",
          "name": "_startingBlockTimestamp",
          "type": "uint256"
        },
        {
          "internalType": "address",
          "name": "sequencer",
          "type": "address"
        }
      ],
      "stateMutability": "nonpayable",
      "type": "constructor"
    },
    {
      "anonymous": false,
      "inputs": [
        {
          "indexed": true,
          "internalType": "address",
          "name": "previousOwner",
          "type": "address"
        },
        {
          "indexed": true,
          "internalType": "address",
          "name": "newOwner",
          "type": "address"
        }
      ],
      "name": "OwnershipTransferred",
      "type": "event"
    },
    {
      "anonymous": false,
      "inputs": [
        {
          "indexed": true,
          "internalType": "bytes32",
          "name": "_l2Output",
          "type": "bytes32"
        },
        {
          "indexed": true,
          "internalType": "uint256",
          "name": "_l1Timestamp",
          "type": "uint256"
        },
        {
          "indexed": true,
          "internalType": "uint256",
          "name": "_l2timestamp",
          "type": "uint256"
        }
      ],
      "name": "l2OutputAppended",
      "type": "event"
    },
    {
      "anonymous": false,
      "inputs": [
        {
          "indexed": true,
          "internalType": "bytes32",
          "name": "_l2Output",
          "type": "bytes32"
        },
        {
          "indexed": true,
          "internalType": "uint256",
          "name": "_l1Timestamp",
          "type": "uint256"
        },
        {
          "indexed": true,
          "internalType": "uint256",
          "name": "_l2timestamp",
          "type": "uint256"
        }
      ],
      "name": "l2OutputDeleted",
      "type": "event"
    },
    {
      "inputs": [],
      "name": "HISTORICAL_TOTAL_BLOCKS",
      "outputs": [
        {
          "internalType": "uint256",
          "name": "",
          "type": "uint256"
        }
      ],
      "stateMutability": "view",
      "type": "function"
    },
    {
      "inputs": [],
      "name": "L2_BLOCK_TIME",
      "outputs": [
        {
          "internalType": "uint256",
          "name": "",
          "type": "uint256"
        }
      ],
      "stateMutability": "view",
      "type": "function"
    },
    {
      "inputs": [],
      "name": "STARTING_BLOCK_TIMESTAMP",
      "outputs": [
        {
          "internalType": "uint256",
          "name": "",
          "type": "uint256"
        }
      ],
      "stateMutability": "view",
      "type": "function"
    },
    {
      "inputs": [],
      "name": "SUBMISSION_INTERVAL",
      "outputs": [
        {
          "internalType": "uint256",
          "name": "",
          "type": "uint256"
        }
      ],
      "stateMutability": "view",
      "type": "function"
    },
    {
      "inputs": [
        {
          "internalType": "bytes32",
          "name": "_l2Output",
          "type": "bytes32"
        },
        {
          "internalType": "uint256",
          "name": "_l2timestamp",
          "type": "uint256"
        },
        {
          "internalType": "bytes32",
          "name": "_l1Blockhash",
          "type": "bytes32"
        },
        {
          "internalType": "uint256",
          "name": "_l1Blocknumber",
          "type": "uint256"
        }
      ],
      "name": "appendL2Output",
      "outputs": [],
      "stateMutability": "payable",
      "type": "function"
    },
    {
      "inputs": [
        {
          "internalType": "uint256",
          "name": "_l2timestamp",
          "type": "uint256"
        }
      ],
      "name": "computeL2BlockNumber",
      "outputs": [
        {
          "internalType": "uint256",
          "name": "",
          "type": "uint256"
        }
      ],
      "stateMutability": "view",
      "type": "function"
    },
    {
      "inputs": [
        {
          "components": [
            {
              "internalType": "bytes32",
              "name": "outputRoot",
              "type": "bytes32"
            },
            {
              "internalType": "uint256",
              "name": "timestamp",
              "type": "uint256"
            }
          ],
          "internalType": "struct L2OutputOracle.OutputProposal",
          "name": "_proposal",
          "type": "tuple"
        }
      ],
      "name": "deleteL2Output",
      "outputs": [],
      "stateMutability": "nonpayable",
      "type": "function"
    },
    {
      "inputs": [
        {
          "internalType": "uint256",
          "name": "_l2Timestamp",
          "type": "uint256"
        }
      ],
      "name": "getL2Output",
      "outputs": [
        {
          "components": [
            {
              "internalType": "bytes32",
              "name": "outputRoot",
              "type": "bytes32"
            },
            {
              "internalType": "uint256",
              "name": "timestamp",
              "type": "uint256"
            }
          ],
          "internalType": "struct L2OutputOracle.OutputProposal",
          "name": "",
          "type": "tuple"
        }
      ],
      "stateMutability": "view",
      "type": "function"
    },
    {
      "inputs": [],
      "name": "latestBlockTimestamp",
      "outputs": [
        {
          "internalType": "uint256",
          "name": "",
          "type": "uint256"
        }
      ],
      "stateMutability": "view",
      "type": "function"
    },
    {
      "inputs": [],
      "name": "nextTimestamp",
      "outputs": [
        {
          "internalType": "uint256",
          "name": "",
          "type": "uint256"
        }
      ],
      "stateMutability": "view",
      "type": "function"
    },
    {
      "inputs": [],
      "name": "owner",
      "outputs": [
        {
          "internalType": "address",
          "name": "",
          "type": "address"
        }
      ],
      "stateMutability": "view",
      "type": "function"
    },
    {
      "inputs": [],
      "name": "renounceOwnership",
      "outputs": [],
      "stateMutability": "nonpayable",
      "type": "function"
    },
    {
      "inputs": [
        {
          "internalType": "address",
          "name": "newOwner",
          "type": "address"
        }
      ],
      "name": "transferOwnership",
      "outputs": [],
      "stateMutability": "nonpayable",
      "type": "function"
    }
  ],
  "bytecode": {
    "object": "0x61010060405234801561001157600080fd5b50604051610f9e380380610f9e83398101604081905261003091610164565b61003933610114565b61004385876101c8565b156100ba5760405162461bcd60e51b815260206004820152603760248201527f5375626d697373696f6e20496e74657276616c206d7573742062652061206d7560448201527f6c7469706c65206f66204c3220426c6f636b2054696d65000000000000000000606482015260840160405180910390fd5b608086905260a0859052604080518082018252858152426020808301918252600086815260029091529290922090518155905160019182015560c084905282905560e082905261010981610114565b5050505050506101ea565b600080546001600160a01b038381166001600160a01b0319831681178455604051919092169283917f8be0079c531659141344cd1fd0a4f28419497f9722a3daafe3b4186f6b6457e09190a35050565b60008060008060008060c0878903121561017d57600080fd5b86516020880151604089015160608a015160808b015160a08c0151949a50929850909650945092506001600160a01b03811681146101ba57600080fd5b809150509295509295509295565b6000826101e557634e487b7160e01b600052601260045260246000fd5b500690565b60805160a05160c05160e051610d5261024c600039600081816101af0152818161031b01526103f10152600081816102d5015261042201526000818160e801526103d00152600081816101e30152818161062201526109570152610d526000f3fe6080604052600436106100d15760003560e01c806341840fa61161007f5780638da5cb5b116100595780638da5cb5b1461021a578063a25ae5571461024f578063a4771aad146102c3578063f2fde38b146102f757600080fd5b806341840fa61461019d578063529933df146101d1578063715018a61461020557600080fd5b80630c1952d3116100b05780630c1952d31461015f5780632518810414610175578063357e951f1461018857600080fd5b80622134cc146100d657806302e513451461011d578063093b3d901461013d575b600080fd5b3480156100e257600080fd5b5061010a7f000000000000000000000000000000000000000000000000000000000000000081565b6040519081526020015b60405180910390f35b34801561012957600080fd5b5061010a610138366004610bba565b610317565b34801561014957600080fd5b5061015d610158366004610bd3565b610449565b005b34801561016b57600080fd5b5061010a60015481565b61015d610183366004610c49565b61064e565b34801561019457600080fd5b5061010a610953565b3480156101a957600080fd5b5061010a7f000000000000000000000000000000000000000000000000000000000000000081565b3480156101dd57600080fd5b5061010a7f000000000000000000000000000000000000000000000000000000000000000081565b34801561021157600080fd5b5061015d610988565b34801561022657600080fd5b5060005460405173ffffffffffffffffffffffffffffffffffffffff9091168152602001610114565b34801561025b57600080fd5b506102a861026a366004610bba565b604080518082019091526000808252602082015250600090815260026020908152604091829020825180840190935280548352600101549082015290565b60408051825181526020928301519281019290925201610114565b3480156102cf57600080fd5b5061010a7f000000000000000000000000000000000000000000000000000000000000000081565b34801561030357600080fd5b5061015d610312366004610c7b565b610a15565b60007f00000000000000000000000000000000000000000000000000000000000000008210156103ce576040517f08c379a000000000000000000000000000000000000000000000000000000000815260206004820152602960248201527f54696d657374616d70207072696f7220746f207374617274696e67426c6f636b60448201527f54696d657374616d70000000000000000000000000000000000000000000000060648201526084015b60405180910390fd5b7f00000000000000000000000000000000000000000000000000000000000000007f000000000000000000000000000000000000000000000000000000000000000083038161041f5761041f610cb8565b047f0000000000000000000000000000000000000000000000000000000000000000019050919050565b60005473ffffffffffffffffffffffffffffffffffffffff1633146104ca576040517f08c379a000000000000000000000000000000000000000000000000000000000815260206004820181905260248201527f4f776e61626c653a2063616c6c6572206973206e6f7420746865206f776e657260448201526064016103c5565b6001805460009081526002602090815260409182902082518084019093528054808452930154908201528251909114610585576040517f08c379a000000000000000000000000000000000000000000000000000000000815260206004820152602760248201527f43616e206f6e6c792064656c65746520746865206d6f737420726563656e742060448201527f6f75747075742e0000000000000000000000000000000000000000000000000060648201526084016103c5565b80602001518260200151146105d0576040517f08c379a000000000000000000000000000000000000000000000000000000000815260206004820152600060248201526044016103c5565b600154602082015182516040517f6897e92e2fea3b89bf0d45ed867487716da71bfa624c6878569d227d736c700990600090a460018054600090815260026020526040812081815582015554610647907f000000000000000000000000000000000000000000000000000000000000000090610d16565b6001555050565b60005473ffffffffffffffffffffffffffffffffffffffff1633146106cf576040517f08c379a000000000000000000000000000000000000000000000000000000000815260206004820181905260248201527f4f776e61626c653a2063616c6c6572206973206e6f7420746865206f776e657260448201526064016103c5565b42831061075e576040517f08c379a000000000000000000000000000000000000000000000000000000000815260206004820152602160248201527f43616e6e6f7420617070656e64204c32206f757470757420696e20667574757260448201527f650000000000000000000000000000000000000000000000000000000000000060648201526084016103c5565b610766610953565b83146107f4576040517f08c379a000000000000000000000000000000000000000000000000000000000815260206004820152602e60248201527f54696d657374616d70206e6f7420657175616c20746f206e657874206578706560448201527f637465642074696d657374616d7000000000000000000000000000000000000060648201526084016103c5565b8361085b576040517f08c379a000000000000000000000000000000000000000000000000000000000815260206004820152601d60248201527f43616e6e6f74207375626d697420656d707479204c32206f757470757400000060448201526064016103c5565b81156108f157818140146108f1576040517f08c379a000000000000000000000000000000000000000000000000000000000815260206004820152603960248201527f426c6f636b6861736820646f6573206e6f74206d61746368207468652068617360448201527f6820617420746865206578706563746564206865696768742e0000000000000060648201526084016103c5565b60408051808201825285815242602080830182815260008881526002909252848220935184555160019384015591869055915185929187917f54fbf9b58db0b6543a3a0cb9fbd4e98a7c7b88878978fa125b84a2c7f51d34ba9190a450505050565b60007f00000000000000000000000000000000000000000000000000000000000000006001546109839190610d2d565b905090565b60005473ffffffffffffffffffffffffffffffffffffffff163314610a09576040517f08c379a000000000000000000000000000000000000000000000000000000000815260206004820181905260248201527f4f776e61626c653a2063616c6c6572206973206e6f7420746865206f776e657260448201526064016103c5565b610a136000610b45565b565b60005473ffffffffffffffffffffffffffffffffffffffff163314610a96576040517f08c379a000000000000000000000000000000000000000000000000000000000815260206004820181905260248201527f4f776e61626c653a2063616c6c6572206973206e6f7420746865206f776e657260448201526064016103c5565b73ffffffffffffffffffffffffffffffffffffffff8116610b39576040517f08c379a000000000000000000000000000000000000000000000000000000000815260206004820152602660248201527f4f776e61626c653a206e6577206f776e657220697320746865207a65726f206160448201527f646472657373000000000000000000000000000000000000000000000000000060648201526084016103c5565b610b4281610b45565b50565b6000805473ffffffffffffffffffffffffffffffffffffffff8381167fffffffffffffffffffffffff0000000000000000000000000000000000000000831681178455604051919092169283917f8be0079c531659141344cd1fd0a4f28419497f9722a3daafe3b4186f6b6457e09190a35050565b600060208284031215610bcc57600080fd5b5035919050565b600060408284031215610be557600080fd5b6040516040810181811067ffffffffffffffff82111715610c2f577f4e487b7100000000000000000000000000000000000000000000000000000000600052604160045260246000fd5b604052823581526020928301359281019290925250919050565b60008060008060808587031215610c5f57600080fd5b5050823594602084013594506040840135936060013592509050565b600060208284031215610c8d57600080fd5b813573ffffffffffffffffffffffffffffffffffffffff81168114610cb157600080fd5b9392505050565b7f4e487b7100000000000000000000000000000000000000000000000000000000600052601260045260246000fd5b7f4e487b7100000000000000000000000000000000000000000000000000000000600052601160045260246000fd5b600082821015610d2857610d28610ce7565b500390565b60008219821115610d4057610d40610ce7565b50019056fea164736f6c634300080a000a",
    "linkReferences": {}
  },
  "methodIdentifiers": {
    "HISTORICAL_TOTAL_BLOCKS()": "a4771aad",
    "L2_BLOCK_TIME()": "002134cc",
    "STARTING_BLOCK_TIMESTAMP()": "41840fa6",
    "SUBMISSION_INTERVAL()": "529933df",
    "appendL2Output(bytes32,uint256,bytes32,uint256)": "25188104",
    "computeL2BlockNumber(uint256)": "02e51345",
    "deleteL2Output((bytes32,uint256))": "093b3d90",
    "getL2Output(uint256)": "a25ae557",
    "latestBlockTimestamp()": "0c1952d3",
    "nextTimestamp()": "357e951f",
    "owner()": "8da5cb5b",
    "renounceOwnership()": "715018a6",
    "transferOwnership(address)": "f2fde38b"
  }
}