{
  "address": "0xFeaA012193bf4198Df4be85c20a830CC12fe8F1E",
  "abi": [
    {
      "inputs": [
        {
          "internalType": "contract L2OutputOracle",
          "name": "_l2Oracle",
          "type": "address"
        },
        {
          "internalType": "uint256",
          "name": "_finalizationPeriodSeconds",
          "type": "uint256"
        }
      ],
      "stateMutability": "nonpayable",
      "type": "constructor"
    },
    {
      "anonymous": false,
      "inputs": [
        {
          "indexed": false,
          "internalType": "uint8",
          "name": "version",
          "type": "uint8"
        }
      ],
      "name": "Initialized",
      "type": "event"
    },
    {
      "anonymous": false,
      "inputs": [
        {
          "indexed": true,
          "internalType": "address",
          "name": "from",
          "type": "address"
        },
        {
          "indexed": true,
          "internalType": "address",
          "name": "to",
          "type": "address"
        },
        {
          "indexed": true,
          "internalType": "uint256",
          "name": "version",
          "type": "uint256"
        },
        {
          "indexed": false,
          "internalType": "bytes",
          "name": "opaqueData",
          "type": "bytes"
        }
      ],
      "name": "TransactionDeposited",
      "type": "event"
    },
    {
      "anonymous": false,
      "inputs": [
        {
          "indexed": true,
          "internalType": "bytes32",
          "name": "withdrawalHash",
          "type": "bytes32"
        },
        {
          "indexed": false,
          "internalType": "bool",
          "name": "success",
          "type": "bool"
        }
      ],
      "name": "WithdrawalFinalized",
      "type": "event"
    },
    {
      "anonymous": false,
      "inputs": [
        {
          "indexed": true,
          "internalType": "bytes32",
          "name": "withdrawalHash",
          "type": "bytes32"
        },
        {
          "indexed": true,
          "internalType": "address",
          "name": "from",
          "type": "address"
        },
        {
          "indexed": true,
          "internalType": "address",
          "name": "to",
          "type": "address"
        }
      ],
      "name": "WithdrawalProven",
      "type": "event"
    },
    {
      "inputs": [],
      "name": "BASE_FEE_MAX_CHANGE_DENOMINATOR",
      "outputs": [
        {
          "internalType": "int256",
          "name": "",
          "type": "int256"
        }
      ],
      "stateMutability": "view",
      "type": "function"
    },
    {
      "inputs": [],
      "name": "ELASTICITY_MULTIPLIER",
      "outputs": [
        {
          "internalType": "int256",
          "name": "",
          "type": "int256"
        }
      ],
      "stateMutability": "view",
      "type": "function"
    },
    {
      "inputs": [],
      "name": "FINALIZATION_PERIOD_SECONDS",
      "outputs": [
        {
          "internalType": "uint256",
          "name": "",
          "type": "uint256"
        }
      ],
      "stateMutability": "view",
      "type": "function"
    },
    {
      "inputs": [],
      "name": "INITIAL_BASE_FEE",
      "outputs": [
        {
          "internalType": "uint128",
          "name": "",
          "type": "uint128"
        }
      ],
      "stateMutability": "view",
      "type": "function"
    },
    {
      "inputs": [],
      "name": "L2_ORACLE",
      "outputs": [
        {
          "internalType": "contract L2OutputOracle",
          "name": "",
          "type": "address"
        }
      ],
      "stateMutability": "view",
      "type": "function"
    },
    {
      "inputs": [],
      "name": "MAXIMUM_BASE_FEE",
      "outputs": [
        {
          "internalType": "int256",
          "name": "",
          "type": "int256"
        }
      ],
      "stateMutability": "view",
      "type": "function"
    },
    {
      "inputs": [],
      "name": "MAX_RESOURCE_LIMIT",
      "outputs": [
        {
          "internalType": "int256",
          "name": "",
          "type": "int256"
        }
      ],
      "stateMutability": "view",
      "type": "function"
    },
    {
      "inputs": [],
      "name": "MINIMUM_BASE_FEE",
      "outputs": [
        {
          "internalType": "int256",
          "name": "",
          "type": "int256"
        }
      ],
      "stateMutability": "view",
      "type": "function"
    },
    {
      "inputs": [],
      "name": "TARGET_RESOURCE_LIMIT",
      "outputs": [
        {
          "internalType": "int256",
          "name": "",
          "type": "int256"
        }
      ],
      "stateMutability": "view",
      "type": "function"
    },
    {
      "inputs": [
        {
          "internalType": "address",
          "name": "_to",
          "type": "address"
        },
        {
          "internalType": "uint256",
          "name": "_value",
          "type": "uint256"
        },
        {
          "internalType": "uint64",
          "name": "_gasLimit",
          "type": "uint64"
        },
        {
          "internalType": "bool",
          "name": "_isCreation",
          "type": "bool"
        },
        {
          "internalType": "bytes",
          "name": "_data",
          "type": "bytes"
        }
      ],
      "name": "depositTransaction",
      "outputs": [],
      "stateMutability": "payable",
      "type": "function"
    },
    {
      "inputs": [],
      "name": "donateETH",
      "outputs": [],
      "stateMutability": "payable",
      "type": "function"
    },
    {
      "inputs": [
        {
          "components": [
            {
              "internalType": "uint256",
              "name": "nonce",
              "type": "uint256"
            },
            {
              "internalType": "address",
              "name": "sender",
              "type": "address"
            },
            {
              "internalType": "address",
              "name": "target",
              "type": "address"
            },
            {
              "internalType": "uint256",
              "name": "value",
              "type": "uint256"
            },
            {
              "internalType": "uint256",
              "name": "gasLimit",
              "type": "uint256"
            },
            {
              "internalType": "bytes",
              "name": "data",
              "type": "bytes"
            }
          ],
          "internalType": "struct Types.WithdrawalTransaction",
          "name": "_tx",
          "type": "tuple"
        }
      ],
      "name": "finalizeWithdrawalTransaction",
      "outputs": [],
      "stateMutability": "nonpayable",
      "type": "function"
    },
    {
      "inputs": [
        {
          "internalType": "bytes32",
          "name": "",
          "type": "bytes32"
        }
      ],
      "name": "finalizedWithdrawals",
      "outputs": [
        {
          "internalType": "bool",
          "name": "",
          "type": "bool"
        }
      ],
      "stateMutability": "view",
      "type": "function"
    },
    {
      "inputs": [],
      "name": "initialize",
      "outputs": [],
      "stateMutability": "nonpayable",
      "type": "function"
    },
    {
      "inputs": [
        {
          "internalType": "uint256",
          "name": "_l2OutputIndex",
          "type": "uint256"
        }
      ],
      "name": "isOutputFinalized",
      "outputs": [
        {
          "internalType": "bool",
          "name": "",
          "type": "bool"
        }
      ],
      "stateMutability": "view",
      "type": "function"
    },
    {
      "inputs": [],
      "name": "l2Sender",
      "outputs": [
        {
          "internalType": "address",
          "name": "",
          "type": "address"
        }
      ],
      "stateMutability": "view",
      "type": "function"
    },
    {
      "inputs": [],
      "name": "params",
      "outputs": [
        {
          "internalType": "uint128",
          "name": "prevBaseFee",
          "type": "uint128"
        },
        {
          "internalType": "uint64",
          "name": "prevBoughtGas",
          "type": "uint64"
        },
        {
          "internalType": "uint64",
          "name": "prevBlockNum",
          "type": "uint64"
        }
      ],
      "stateMutability": "view",
      "type": "function"
    },
    {
      "inputs": [
        {
          "components": [
            {
              "internalType": "uint256",
              "name": "nonce",
              "type": "uint256"
            },
            {
              "internalType": "address",
              "name": "sender",
              "type": "address"
            },
            {
              "internalType": "address",
              "name": "target",
              "type": "address"
            },
            {
              "internalType": "uint256",
              "name": "value",
              "type": "uint256"
            },
            {
              "internalType": "uint256",
              "name": "gasLimit",
              "type": "uint256"
            },
            {
              "internalType": "bytes",
              "name": "data",
              "type": "bytes"
            }
          ],
          "internalType": "struct Types.WithdrawalTransaction",
          "name": "_tx",
          "type": "tuple"
        },
        {
          "internalType": "uint256",
          "name": "_l2OutputIndex",
          "type": "uint256"
        },
        {
          "components": [
            {
              "internalType": "bytes32",
              "name": "version",
              "type": "bytes32"
            },
            {
              "internalType": "bytes32",
              "name": "stateRoot",
              "type": "bytes32"
            },
            {
              "internalType": "bytes32",
              "name": "messagePasserStorageRoot",
              "type": "bytes32"
            },
            {
              "internalType": "bytes32",
              "name": "latestBlockhash",
              "type": "bytes32"
            }
          ],
          "internalType": "struct Types.OutputRootProof",
          "name": "_outputRootProof",
          "type": "tuple"
        },
        {
          "internalType": "bytes[]",
          "name": "_withdrawalProof",
          "type": "bytes[]"
        }
      ],
      "name": "proveWithdrawalTransaction",
      "outputs": [],
      "stateMutability": "nonpayable",
      "type": "function"
    },
    {
      "inputs": [
        {
          "internalType": "bytes32",
          "name": "",
          "type": "bytes32"
        }
      ],
      "name": "provenWithdrawals",
      "outputs": [
        {
          "internalType": "bytes32",
          "name": "outputRoot",
          "type": "bytes32"
        },
        {
          "internalType": "uint128",
          "name": "timestamp",
          "type": "uint128"
        },
        {
          "internalType": "uint128",
          "name": "l2OutputIndex",
          "type": "uint128"
        }
      ],
      "stateMutability": "view",
      "type": "function"
    },
    {
      "inputs": [],
      "name": "version",
      "outputs": [
        {
          "internalType": "string",
          "name": "",
          "type": "string"
        }
      ],
      "stateMutability": "view",
      "type": "function"
    },
    {
      "stateMutability": "payable",
      "type": "receive"
    }
  ],
  "transactionHash": "0x626d7713a74f114c0f6a95ac8f1f6dea87251654024f781487696eaca711682b",
  "args": [
    "0x817a9f8F18eea0953Af755CfcDb13b397161Af4C",
    2
  ],
  "numDeployments": 1,
  "solcInputHash": "ae6f534a2ad75b1ba1d307e731c3d987",
  "bytecode": "0x6101206040523480156200001257600080fd5b506040516200538738038062005387833981016040819052620000359162000261565b6001608052600060a081905260c0526001600160a01b0382166101005260e08190526200006162000069565b50506200029d565b600054610100900460ff16158080156200008a5750600054600160ff909116105b80620000ba5750620000a730620001af60201b62001b661760201c565b158015620000ba575060005460ff166001145b620001235760405162461bcd60e51b815260206004820152602e60248201527f496e697469616c697a61626c653a20636f6e747261637420697320616c72656160448201526d191e481a5b9a5d1a585b1a5e995960921b60648201526084015b60405180910390fd5b6000805460ff19166001179055801562000147576000805461ff0019166101001790555b603280546001600160a01b03191661dead17905562000165620001be565b8015620001ac576000805461ff0019169055604051600181527f7f26b83ff96e1f2b6a682f133852f6798a09c465da95921460cefb38474024989060200160405180910390a15b50565b6001600160a01b03163b151590565b600054610100900460ff166200022b5760405162461bcd60e51b815260206004820152602b60248201527f496e697469616c697a61626c653a20636f6e7472616374206973206e6f74206960448201526a6e697469616c697a696e6760a81b60648201526084016200011a565b60408051606081018252633b9aca0080825260006020830152436001600160401b031691909201819052600160c01b0217600155565b600080604083850312156200027557600080fd5b82516001600160a01b03811681146200028d57600080fd5b6020939093015192949293505050565b60805160a05160c05160e0516101005161508262000305600039600081816101a001528181610aa501528181610ff5015281816113e001526116520152600081816105190152611e2f01526000610f6001526000610f3701526000610f0e01526150826000f3fe6080604052600436106101625760003560e01c80638b4c40b0116100c0578063cd7c978911610074578063e965084c11610059578063e965084c14610468578063e9e05c42146104f4578063f4daa2911461050757600080fd5b8063cd7c9789146103b2578063cff0ab96146103c757600080fd5b80639bf62d82116100a55780639bf62d8214610340578063a14238e71461036d578063ca3e99ba1461039d57600080fd5b80638b4c40b0146101875780638c3152e91461032057600080fd5b806364b79208116101175780636dbffb78116100fc5780636dbffb78146102c55780638129fc1c146102f5578063867ead131461030a57600080fd5b806364b79208146102995780636bb0291e146102b057600080fd5b80634870496f116101485780634870496f1461022557806354fd4d50146102455780635c1f28271461026757600080fd5b80621c2ff61461018e57806313620abd146101ec57600080fd5b36610189576101873334620186a060006040518060200160405280600081525061053b565b005b600080fd5b34801561019a57600080fd5b506101c27f000000000000000000000000000000000000000000000000000000000000000081565b60405173ffffffffffffffffffffffffffffffffffffffff90911681526020015b60405180910390f35b3480156101f857600080fd5b50610204633b9aca0081565b6040516fffffffffffffffffffffffffffffffff90911681526020016101e3565b34801561023157600080fd5b5061018761024036600461473a565b6109b4565b34801561025157600080fd5b5061025a610f07565b6040516101e39190614890565b34801561027357600080fd5b5061028b6fffffffffffffffffffffffffffffffff81565b6040519081526020016101e3565b3480156102a557600080fd5b5061028b627a120081565b3480156102bc57600080fd5b5061028b600481565b3480156102d157600080fd5b506102e56102e03660046148a3565b610faa565b60405190151581526020016101e3565b34801561030157600080fd5b50610187611081565b34801561031657600080fd5b5061028b61271081565b34801561032c57600080fd5b5061018761033b3660046148bc565b61123f565b34801561034c57600080fd5b506032546101c29073ffffffffffffffffffffffffffffffffffffffff1681565b34801561037957600080fd5b506102e56103883660046148a3565b60336020526000908152604090205460ff1681565b3480156103a957600080fd5b5061028b611b55565b3480156103be57600080fd5b5061028b600881565b3480156103d357600080fd5b5060015461042f906fffffffffffffffffffffffffffffffff81169067ffffffffffffffff7001000000000000000000000000000000008204811691780100000000000000000000000000000000000000000000000090041683565b604080516fffffffffffffffffffffffffffffffff909416845267ffffffffffffffff92831660208501529116908201526060016101e3565b34801561047457600080fd5b506104c66104833660046148a3565b603460205260009081526040902080546001909101546fffffffffffffffffffffffffffffffff8082169170010000000000000000000000000000000090041683565b604080519384526fffffffffffffffffffffffffffffffff92831660208501529116908201526060016101e3565b6101876105023660046148f1565b61053b565b34801561051357600080fd5b5061028b7f000000000000000000000000000000000000000000000000000000000000000081565b8260005a905083156105f25773ffffffffffffffffffffffffffffffffffffffff8716156105f257604080517f08c379a00000000000000000000000000000000000000000000000000000000081526020600482015260248101919091527f4f7074696d69736d506f7274616c3a206d7573742073656e6420746f2061646460448201527f72657373283029207768656e206372656174696e67206120636f6e747261637460648201526084015b60405180910390fd5b33328114610613575033731111000000000000000000000000000000001111015b6000348888888860405160200161062e95949392919061497e565b604051602081830303815290604052905060008973ffffffffffffffffffffffffffffffffffffffff168373ffffffffffffffffffffffffffffffffffffffff167fb3813568d9991fc951961fcb4c784893574240a28925604d09fc577c55bb7c328460405161069e9190614890565b60405180910390a450506001546000906106de907801000000000000000000000000000000000000000000000000900467ffffffffffffffff1643614a12565b905080156108125760006106f66004627a1200614a58565b6001546107219190700100000000000000000000000000000000900467ffffffffffffffff16614ac0565b9050600060086107356004627a1200614a58565b6001546107559085906fffffffffffffffffffffffffffffffff16614b34565b61075f9190614a58565b6107699190614a58565b6001549091506000906107ac906107939084906fffffffffffffffffffffffffffffffff16614bf0565b6127106fffffffffffffffffffffffffffffffff611b82565b905060018411156107d3576107d06107938260086107cb600189614a12565b611ba1565b90505b6fffffffffffffffffffffffffffffffff16780100000000000000000000000000000000000000000000000067ffffffffffffffff4316021760015550505b60018054849190601090610845908490700100000000000000000000000000000000900467ffffffffffffffff16614c64565b92506101000a81548167ffffffffffffffff021916908367ffffffffffffffff160217905550627a1200600160000160109054906101000a900467ffffffffffffffff1667ffffffffffffffff161315610921576040517f08c379a000000000000000000000000000000000000000000000000000000000815260206004820152603e60248201527f5265736f757263654d65746572696e673a2063616e6e6f7420627579206d6f7260448201527f6520676173207468616e20617661696c61626c6520676173206c696d6974000060648201526084016105e9565b60015460009061094d906fffffffffffffffffffffffffffffffff1667ffffffffffffffff8616614c90565b6fffffffffffffffffffffffffffffffff16905060006109726000633b9aca00611bf6565b61097c9083614cc8565b905060005a61098b9086614a12565b9050808211156109a7576109a76109a28284614a12565b611c0d565b5050505050505050505050565b3073ffffffffffffffffffffffffffffffffffffffff16856040015173ffffffffffffffffffffffffffffffffffffffff1603610a73576040517f08c379a000000000000000000000000000000000000000000000000000000000815260206004820152603f60248201527f4f7074696d69736d506f7274616c3a20796f752063616e6e6f742073656e642060448201527f6d6573736167657320746f2074686520706f7274616c20636f6e74726163740060648201526084016105e9565b6040517fa25ae557000000000000000000000000000000000000000000000000000000008152600481018590526000907f000000000000000000000000000000000000000000000000000000000000000073ffffffffffffffffffffffffffffffffffffffff169063a25ae55790602401606060405180830381865afa158015610b01573d6000803e3d6000fd5b505050506040513d601f19601f82011682018060405250810190610b259190614cfc565b519050610b3f610b3a36869003860186614d61565b611c3b565b8114610bcd576040517f08c379a000000000000000000000000000000000000000000000000000000000815260206004820152602960248201527f4f7074696d69736d506f7274616c3a20696e76616c6964206f7574707574207260448201527f6f6f742070726f6f66000000000000000000000000000000000000000000000060648201526084016105e9565b6000610bd887611c97565b6000818152603460209081526040918290208251606081018452815481526001909101546fffffffffffffffffffffffffffffffff8082169383018490527001000000000000000000000000000000009091041692810192909252919250901580610c64575080604001516fffffffffffffffffffffffffffffffff1687148015610c64575080518314155b610cf0576040517f08c379a000000000000000000000000000000000000000000000000000000000815260206004820152603760248201527f4f7074696d69736d506f7274616c3a207769746864726177616c20686173682060448201527f68617320616c7265616479206265656e2070726f76656e00000000000000000060648201526084016105e9565b60408051602081018490526000918101829052606001604080517fffffffffffffffffffffffffffffffffffffffffffffffffffffffffffffffe081840301815282825280516020918201209083018190529250610db99101604080517fffffffffffffffffffffffffffffffffffffffffffffffffffffffffffffffe0818403018152828201909152600182527f0100000000000000000000000000000000000000000000000000000000000000602083015290610daf888a614dc7565b8a60400135611cc7565b610e45576040517f08c379a000000000000000000000000000000000000000000000000000000000815260206004820152603260248201527f4f7074696d69736d506f7274616c3a20696e76616c696420776974686472617760448201527f616c20696e636c7573696f6e2070726f6f66000000000000000000000000000060648201526084016105e9565b604080516060810182528581526fffffffffffffffffffffffffffffffff42811660208084019182528c831684860190815260008981526034835286812095518655925190518416700100000000000000000000000000000000029316929092176001909301929092558b830151908c0151925173ffffffffffffffffffffffffffffffffffffffff918216939091169186917f67a6208cfcc0801d50f6cbe764733f4fddf66ac0b04442061a8a8c0cb6b63f629190a4505050505050505050565b6060610f327f0000000000000000000000000000000000000000000000000000000000000000611ceb565b610f5b7f0000000000000000000000000000000000000000000000000000000000000000611ceb565b610f847f0000000000000000000000000000000000000000000000000000000000000000611ceb565b604051602001610f9693929190614e4b565b604051602081830303815290604052905090565b6040517fa25ae5570000000000000000000000000000000000000000000000000000000081526004810182905260009061107b9073ffffffffffffffffffffffffffffffffffffffff7f0000000000000000000000000000000000000000000000000000000000000000169063a25ae55790602401606060405180830381865afa15801561103c573d6000803e3d6000fd5b505050506040513d601f19601f820116820180604052508101906110609190614cfc565b602001516fffffffffffffffffffffffffffffffff16611e28565b92915050565b600054610100900460ff16158080156110a15750600054600160ff909116105b806110bb5750303b1580156110bb575060005460ff166001145b611147576040517f08c379a000000000000000000000000000000000000000000000000000000000815260206004820152602e60248201527f496e697469616c697a61626c653a20636f6e747261637420697320616c72656160448201527f647920696e697469616c697a656400000000000000000000000000000000000060648201526084016105e9565b600080547fffffffffffffffffffffffffffffffffffffffffffffffffffffffffffffff0016600117905580156111a557600080547fffffffffffffffffffffffffffffffffffffffffffffffffffffffffffff00ff166101001790555b603280547fffffffffffffffffffffffff00000000000000000000000000000000000000001661dead1790556111d9611e5c565b801561123c57600080547fffffffffffffffffffffffffffffffffffffffffffffffffffffffffffff00ff169055604051600181527f7f26b83ff96e1f2b6a682f133852f6798a09c465da95921460cefb38474024989060200160405180910390a15b50565b60325473ffffffffffffffffffffffffffffffffffffffff1661dead146112e8576040517f08c379a000000000000000000000000000000000000000000000000000000000815260206004820152603f60248201527f4f7074696d69736d506f7274616c3a2063616e206f6e6c79207472696767657260448201527f206f6e65207769746864726177616c20706572207472616e73616374696f6e0060648201526084016105e9565b60006112f382611c97565b60008181526034602090815260408083208151606081018352815481526001909101546fffffffffffffffffffffffffffffffff808216948301859052700100000000000000000000000000000000909104169181019190915292935090036113de576040517f08c379a000000000000000000000000000000000000000000000000000000000815260206004820152603260248201527f4f7074696d69736d506f7274616c3a207769746864726177616c20686173206e60448201527f6f74206265656e2070726f76656e20796574000000000000000000000000000060648201526084016105e9565b7f000000000000000000000000000000000000000000000000000000000000000073ffffffffffffffffffffffffffffffffffffffff1663887862726040518163ffffffff1660e01b8152600401602060405180830381865afa158015611449573d6000803e3d6000fd5b505050506040513d601f19601f8201168201806040525081019061146d9190614ec1565b81602001516fffffffffffffffffffffffffffffffff161015611538576040517f08c379a000000000000000000000000000000000000000000000000000000000815260206004820152604b60248201527f4f7074696d69736d506f7274616c3a207769746864726177616c2074696d657360448201527f74616d70206c657373207468616e204c32204f7261636c65207374617274696e60648201527f672074696d657374616d70000000000000000000000000000000000000000000608482015260a4016105e9565b61155781602001516fffffffffffffffffffffffffffffffff16611e28565b611609576040517f08c379a000000000000000000000000000000000000000000000000000000000815260206004820152604560248201527f4f7074696d69736d506f7274616c3a2070726f76656e2077697468647261776160448201527f6c2066696e616c697a6174696f6e20706572696f6420686173206e6f7420656c60648201527f6170736564000000000000000000000000000000000000000000000000000000608482015260a4016105e9565b60408181015190517fa25ae5570000000000000000000000000000000000000000000000000000000081526fffffffffffffffffffffffffffffffff90911660048201526000907f000000000000000000000000000000000000000000000000000000000000000073ffffffffffffffffffffffffffffffffffffffff169063a25ae55790602401606060405180830381865afa1580156116ae573d6000803e3d6000fd5b505050506040513d601f19601f820116820180604052508101906116d29190614cfc565b825181519192501461178c576040517f08c379a000000000000000000000000000000000000000000000000000000000815260206004820152604960248201527f4f7074696d69736d506f7274616c3a206f757470757420726f6f742070726f7660448201527f656e206973206e6f74207468652073616d652061732063757272656e74206f7560648201527f7470757420726f6f740000000000000000000000000000000000000000000000608482015260a4016105e9565b6117ab81602001516fffffffffffffffffffffffffffffffff16611e28565b61185d576040517f08c379a000000000000000000000000000000000000000000000000000000000815260206004820152604360248201527f4f7074696d69736d506f7274616c3a206f75747075742070726f706f73616c2060448201527f66696e616c697a6174696f6e20706572696f6420686173206e6f7420656c617060648201527f7365640000000000000000000000000000000000000000000000000000000000608482015260a4016105e9565b60008381526033602052604090205460ff16156118fc576040517f08c379a000000000000000000000000000000000000000000000000000000000815260206004820152603560248201527f4f7074696d69736d506f7274616c3a207769746864726177616c20686173206160448201527f6c7265616479206265656e2066696e616c697a6564000000000000000000000060648201526084016105e9565b600083815260336020526040902080547fffffffffffffffffffffffffffffffffffffffffffffffffffffffffffffff00166001179055608084015161194590614e2090614eda565b5a10156119d4576040517f08c379a000000000000000000000000000000000000000000000000000000000815260206004820152603760248201527f4f7074696d69736d506f7274616c3a20696e73756666696369656e742067617360448201527f20746f2066696e616c697a65207769746864726177616c00000000000000000060648201526084016105e9565b6020840151603280547fffffffffffffffffffffffff00000000000000000000000000000000000000001673ffffffffffffffffffffffffffffffffffffffff9092169190911790556040840151600090611a4690614e205a611a379190614a12565b87606001518860a00151611f3f565b603280547fffffffffffffffffffffffff00000000000000000000000000000000000000001661dead17905560405190915084907fdb5c7652857aa163daadd670e116628fb42e869d8ac4251ef8971d9e5727df1b90611aab90841515815260200190565b60405180910390a280158015611ac15750326001145b15611b4e576040517f08c379a000000000000000000000000000000000000000000000000000000000815260206004820152602160248201527f4f7074696d69736d506f7274616c3a207769746864726177616c206661696c6560448201527f640000000000000000000000000000000000000000000000000000000000000060648201526084016105e9565b5050505050565b611b636004627a1200614a58565b81565b73ffffffffffffffffffffffffffffffffffffffff163b151590565b6000611b97611b918585611f59565b83611f69565b90505b9392505050565b6000670de0b6b3a7640000611be2611bb98583614a58565b611bcb90670de0b6b3a7640000614ac0565b611bdd85670de0b6b3a7640000614b34565b611f78565b611bec9086614b34565b611b979190614a58565b600081831015611c065781611b9a565b5090919050565b6000805a90505b825a611c209083614a12565b1015611c3657611c2f82614ef2565b9150611c14565b505050565b60008160000151826020015183604001518460600151604051602001611c7a949392919093845260208401929092526040830152606082015260800190565b604051602081830303815290604052805190602001209050919050565b80516020808301516040808501516060860151608087015160a08801519351600097611c7a979096959101614f2a565b600080611cd386611fa9565b9050611ce181868686611fdb565b9695505050505050565b606081600003611d2e57505060408051808201909152600181527f3000000000000000000000000000000000000000000000000000000000000000602082015290565b8160005b8115611d585780611d4281614ef2565b9150611d519050600a83614cc8565b9150611d32565b60008167ffffffffffffffff811115611d7357611d73614560565b6040519080825280601f01601f191660200182016040528015611d9d576020820181803683370190505b5090505b8415611e2057611db2600183614a12565b9150611dbf600a86614f81565b611dca906030614eda565b60f81b818381518110611ddf57611ddf614f95565b60200101907effffffffffffffffffffffffffffffffffffffffffffffffffffffffffffff1916908160001a905350611e19600a86614cc8565b9450611da1565b949350505050565b6000611e547f000000000000000000000000000000000000000000000000000000000000000083614eda565b421192915050565b600054610100900460ff16611ef3576040517f08c379a000000000000000000000000000000000000000000000000000000000815260206004820152602b60248201527f496e697469616c697a61626c653a20636f6e7472616374206973206e6f74206960448201527f6e697469616c697a696e6700000000000000000000000000000000000000000060648201526084016105e9565b60408051606081018252633b9aca00808252600060208301524367ffffffffffffffff169190920181905278010000000000000000000000000000000000000000000000000217600155565b600080600080845160208601878a8af19695505050505050565b600081831215611c065781611b9a565b6000818312611c065781611b9a565b6000611b9a670de0b6b3a764000083611f908661200b565b611f9a9190614b34565b611fa49190614a58565b61224f565b60608180519060200120604051602001611fc591815260200190565b6040516020818303038152906040529050919050565b600061200284611fec87868661248e565b8051602091820120825192909101919091201490565b95945050505050565b6000808213612076576040517f08c379a000000000000000000000000000000000000000000000000000000000815260206004820152600960248201527f554e444546494e4544000000000000000000000000000000000000000000000060448201526064016105e9565b6000606061208384612f16565b03609f8181039490941b90931c6c465772b2bbbb5f824b15207a3081018102606090811d6d0388eaa27412d5aca026815d636e018202811d6d0df99ac502031bf953eff472fdcc018202811d6d13cdffb29d51d99322bdff5f2211018202811d6d0a0f742023def783a307a986912e018202811d6d01920d8043ca89b5239253284e42018202811d6c0b7a86d7375468fac667a0a527016c29508e458543d8aa4df2abee7883018302821d6d0139601a2efabe717e604cbb4894018302821d6d02247f7a7b6594320649aa03aba1018302821d7fffffffffffffffffffffffffffffffffffffff73c0c716a594e00d54e3c4cbc9018302821d7ffffffffffffffffffffffffffffffffffffffdc7b88c420e53a9890533129f6f01830290911d7fffffffffffffffffffffffffffffffffffffff465fda27eb4d63ded474e5f832019091027ffffffffffffffff5f6af8f7b3396644f18e157960000000000000000000000000105711340daa0d5f769dba1915cef59f0815a5506027d0267a36c0c95b3975ab3ee5b203a7614a3f75373f047d803ae7b6687f2b393909302929092017d57115e47018c7177eebf7cd370a3356a1b7863008a5ae8028c72b88642840160ae1d92915050565b60007ffffffffffffffffffffffffffffffffffffffffffffffffdb731c958f34d94c1821361228057506000919050565b680755bf798b4a1bf1e582126122f2576040517f08c379a000000000000000000000000000000000000000000000000000000000815260206004820152600c60248201527f4558505f4f564552464c4f57000000000000000000000000000000000000000060448201526064016105e9565b6503782dace9d9604e83901b059150600060606bb17217f7d1cf79abc9e3b39884821b056b80000000000000000000000001901d6bb17217f7d1cf79abc9e3b39881029093037fffffffffffffffffffffffffffffffffffffffdbf3ccf1604d263450f02a550481018102606090811d6d0277594991cfc85f6e2461837cd9018202811d7fffffffffffffffffffffffffffffffffffffe5adedaa1cb095af9e4da10e363c018202811d6db1bbb201f443cf962f1a1d3db4a5018202811d7ffffffffffffffffffffffffffffffffffffd38dc772608b0ae56cce01296c0eb018202811d6e05180bb14799ab47a8a8cb2a527d57016d02d16720577bd19bf614176fe9ea6c10fe68e7fd37d0007b713f765084018402831d9081019084017ffffffffffffffffffffffffffffffffffffffe2c69812cf03b0763fd454a8f7e010290911d6e0587f503bb6ea29d25fcb7401964500190910279d835ebba824c98fb31b83b2ca45c000000000000000000000000010574029d9dc38563c32e5c2f6dc192ee70ef65f9978af30260c3939093039290921c92915050565b606060008451116124fb576040517f08c379a000000000000000000000000000000000000000000000000000000000815260206004820152601560248201527f4d65726b6c65547269653a20656d707479206b6579000000000000000000000060448201526064016105e9565b600061250684612fec565b90506000612513866130db565b905060008460405160200161252a91815260200190565b60405160208183030381529060405290506000805b8451811015612e8d57600085828151811061255c5761255c614f95565b6020026020010151905084518311156125f7576040517f08c379a000000000000000000000000000000000000000000000000000000000815260206004820152602e60248201527f4d65726b6c65547269653a206b657920696e646578206578636565647320746f60448201527f74616c206b6579206c656e67746800000000000000000000000000000000000060648201526084016105e9565b826000036126b057805180516020918201206040516126459261261f92910190815260200190565b604051602081830303815290604052858051602091820120825192909101919091201490565b6126ab576040517f08c379a000000000000000000000000000000000000000000000000000000000815260206004820152601d60248201527f4d65726b6c65547269653a20696e76616c696420726f6f74206861736800000060448201526064016105e9565b612807565b80515160201161276657805180516020918201206040516126da9261261f92910190815260200190565b6126ab576040517f08c379a000000000000000000000000000000000000000000000000000000000815260206004820152602760248201527f4d65726b6c65547269653a20696e76616c6964206c6172676520696e7465726e60448201527f616c20686173680000000000000000000000000000000000000000000000000060648201526084016105e9565b805184516020808701919091208251919092012014612807576040517f08c379a000000000000000000000000000000000000000000000000000000000815260206004820152602660248201527f4d65726b6c65547269653a20696e76616c696420696e7465726e616c206e6f6460448201527f652068617368000000000000000000000000000000000000000000000000000060648201526084016105e9565b61281360106001614eda565b816020015151036129f4578451830361298c57600061284f826020015160108151811061284257612842614f95565b6020026020010151613276565b905060008151116128e2576040517f08c379a000000000000000000000000000000000000000000000000000000000815260206004820152603b60248201527f4d65726b6c65547269653a2076616c7565206c656e677468206d75737420626560448201527f2067726561746572207468616e207a65726f20286272616e636829000000000060648201526084016105e9565b600187516128f09190614a12565b831461297e576040517f08c379a000000000000000000000000000000000000000000000000000000000815260206004820152603a60248201527f4d65726b6c65547269653a2076616c7565206e6f6465206d757374206265206c60448201527f617374206e6f646520696e2070726f6f6620286272616e63682900000000000060648201526084016105e9565b9650611b9a95505050505050565b60008584815181106129a0576129a0614f95565b602001015160f81c60f81b60f81c9050600082602001518260ff16815181106129cb576129cb614f95565b602002602001015190506129de816133d6565b95506129eb600186614eda565b94505050612e7a565b600281602001515103612df2576000612a0c826133fb565b9050600081600081518110612a2357612a23614f95565b016020015160f81c90506000612a3a600283614fc4565b612a45906002614fe6565b90506000612a56848360ff1661341f565b90506000612a648a8961341f565b90506000612a728383613455565b905080835114612b04576040517f08c379a000000000000000000000000000000000000000000000000000000000815260206004820152603a60248201527f4d65726b6c65547269653a20706174682072656d61696e646572206d7573742060448201527f736861726520616c6c206e6962626c65732077697468206b657900000000000060648201526084016105e9565b60ff851660021480612b19575060ff85166003145b15612d0d5780825114612bae576040517f08c379a000000000000000000000000000000000000000000000000000000000815260206004820152603d60248201527f4d65726b6c65547269653a206b65792072656d61696e646572206d757374206260448201527f65206964656e746963616c20746f20706174682072656d61696e64657200000060648201526084016105e9565b6000612bca886020015160018151811061284257612842614f95565b90506000815111612c5d576040517f08c379a000000000000000000000000000000000000000000000000000000000815260206004820152603960248201527f4d65726b6c65547269653a2076616c7565206c656e677468206d75737420626560448201527f2067726561746572207468616e207a65726f20286c656166290000000000000060648201526084016105e9565b60018d51612c6b9190614a12565b8914612cf9576040517f08c379a000000000000000000000000000000000000000000000000000000000815260206004820152603860248201527f4d65726b6c65547269653a2076616c7565206e6f6465206d757374206265206c60448201527f617374206e6f646520696e2070726f6f6620286c65616629000000000000000060648201526084016105e9565b9c50611b9a9b505050505050505050505050565b60ff85161580612d20575060ff85166001145b15612d5f57612d4c8760200151600181518110612d3f57612d3f614f95565b60200260200101516133d6565b9950612d58818a614eda565b9850612de7565b6040517f08c379a000000000000000000000000000000000000000000000000000000000815260206004820152603260248201527f4d65726b6c65547269653a2072656365697665642061206e6f6465207769746860448201527f20616e20756e6b6e6f776e20707265666978000000000000000000000000000060648201526084016105e9565b505050505050612e7a565b6040517f08c379a000000000000000000000000000000000000000000000000000000000815260206004820152602860248201527f4d65726b6c65547269653a20726563656976656420616e20756e70617273656160448201527f626c65206e6f646500000000000000000000000000000000000000000000000060648201526084016105e9565b5080612e8581614ef2565b91505061253f565b506040517f08c379a000000000000000000000000000000000000000000000000000000000815260206004820152602560248201527f4d65726b6c65547269653a2072616e206f7574206f662070726f6f6620656c6560448201527f6d656e747300000000000000000000000000000000000000000000000000000060648201526084016105e9565b6000808211612f81576040517f08c379a000000000000000000000000000000000000000000000000000000000815260206004820152600960248201527f554e444546494e4544000000000000000000000000000000000000000000000060448201526064016105e9565b5060016fffffffffffffffffffffffffffffffff821160071b82811c67ffffffffffffffff1060061b1782811c63ffffffff1060051b1782811c61ffff1060041b1782811c60ff10600390811b90911783811c600f1060021b1783811c909110821b1791821c111790565b805160609060008167ffffffffffffffff81111561300c5761300c614560565b60405190808252806020026020018201604052801561305157816020015b604080518082019091526060808252602082015281526020019060019003908161302a5790505b50905060005b828110156130d357604051806040016040528086838151811061307c5761307c614f95565b602002602001015181526020016130ab87848151811061309e5761309e614f95565b6020026020010151613504565b8152508282815181106130c0576130c0614f95565b6020908102919091010152600101613057565b509392505050565b805160609060006130ed826002615009565b67ffffffffffffffff81111561310557613105614560565b6040519080825280601f01601f19166020018201604052801561312f576020820181803683370190505b5090506000805b8381101561326c5785818151811061315057613150614f95565b6020910101517fff000000000000000000000000000000000000000000000000000000000000008116925060041c7f0ff000000000000000000000000000000000000000000000000000000000000016836131ac836002615009565b815181106131bc576131bc614f95565b60200101907effffffffffffffffffffffffffffffffffffffffffffffffffffffffffffff1916908160001a9053507f0f0000000000000000000000000000000000000000000000000000000000000082168361321a836002615009565b613225906001614eda565b8151811061323557613235614f95565b60200101907effffffffffffffffffffffffffffffffffffffffffffffffffffffffffffff1916908160001a905350600101613136565b5090949350505050565b6060600080600061328685613517565b9194509250905060008160018111156132a1576132a1615046565b1461332e576040517f08c379a000000000000000000000000000000000000000000000000000000000815260206004820152603960248201527f524c505265616465723a206465636f646564206974656d207479706520666f7260448201527f206279746573206973206e6f7420612064617461206974656d0000000000000060648201526084016105e9565b6133388284614eda565b8551146133c7576040517f08c379a000000000000000000000000000000000000000000000000000000000815260206004820152603460248201527f524c505265616465723a2062797465732076616c756520636f6e7461696e732060448201527f616e20696e76616c69642072656d61696e64657200000000000000000000000060648201526084016105e9565b61200285602001518484613f84565b606060208260000151106133f2576133ed82613276565b61107b565b61107b82614025565b606061107b61341a836020015160008151811061284257612842614f95565b6130db565b60608251821061343e575060408051602081019091526000815261107b565b611b9a83838486516134509190614a12565b61403b565b6000806000835185511061346a57835161346d565b84515b90505b80821080156134f4575083828151811061348c5761348c614f95565b602001015160f81c60f81b7effffffffffffffffffffffffffffffffffffffffffffffffffffffffffffff19168583815181106134cb576134cb614f95565b01602001517fff0000000000000000000000000000000000000000000000000000000000000016145b156130d357816001019150613470565b606061107b61351283614213565b6142fc565b6000806000808460000151116135d5576040517f08c379a000000000000000000000000000000000000000000000000000000000815260206004820152604a60248201527f524c505265616465723a206c656e677468206f6620616e20524c50206974656d60448201527f206d7573742062652067726561746572207468616e207a65726f20746f20626560648201527f206465636f6461626c6500000000000000000000000000000000000000000000608482015260a4016105e9565b6020840151805160001a607f81116135fa576000600160009450945094505050613f7d565b60b7811161380857600061360f608083614a12565b9050808760000151116136ca576040517f08c379a000000000000000000000000000000000000000000000000000000000815260206004820152604e60248201527f524c505265616465723a206c656e677468206f6620636f6e74656e74206d757360448201527f742062652067726561746572207468616e20737472696e67206c656e6774682060648201527f2873686f727420737472696e6729000000000000000000000000000000000000608482015260a4016105e9565b6001838101517fff0000000000000000000000000000000000000000000000000000000000000016908214158061374357507f80000000000000000000000000000000000000000000000000000000000000007fff00000000000000000000000000000000000000000000000000000000000000821610155b6137f5576040517f08c379a000000000000000000000000000000000000000000000000000000000815260206004820152604d60248201527f524c505265616465723a20696e76616c6964207072656669782c2073696e676c60448201527f652062797465203c203078383020617265206e6f74207072656669786564202860648201527f73686f727420737472696e672900000000000000000000000000000000000000608482015260a4016105e9565b5060019550935060009250613f7d915050565b60bf8111613b5657600061381d60b783614a12565b9050808760000151116138d8576040517f08c379a000000000000000000000000000000000000000000000000000000000815260206004820152605160248201527f524c505265616465723a206c656e677468206f6620636f6e74656e74206d757360448201527f74206265203e207468616e206c656e677468206f6620737472696e67206c656e60648201527f67746820286c6f6e6720737472696e6729000000000000000000000000000000608482015260a4016105e9565b60018301517fff000000000000000000000000000000000000000000000000000000000000001660008190036139b6576040517f08c379a000000000000000000000000000000000000000000000000000000000815260206004820152604a60248201527f524c505265616465723a206c656e677468206f6620636f6e74656e74206d757360448201527f74206e6f74206861766520616e79206c656164696e67207a65726f7320286c6f60648201527f6e6720737472696e672900000000000000000000000000000000000000000000608482015260a4016105e9565b600184015160088302610100031c60378111613a7a576040517f08c379a000000000000000000000000000000000000000000000000000000000815260206004820152604860248201527f524c505265616465723a206c656e677468206f6620636f6e74656e74206d757360448201527f742062652067726561746572207468616e20353520627974657320286c6f6e6760648201527f20737472696e6729000000000000000000000000000000000000000000000000608482015260a4016105e9565b613a848184614eda565b895111613b39576040517f08c379a000000000000000000000000000000000000000000000000000000000815260206004820152604c60248201527f524c505265616465723a206c656e677468206f6620636f6e74656e74206d757360448201527f742062652067726561746572207468616e20746f74616c206c656e677468202860648201527f6c6f6e6720737472696e67290000000000000000000000000000000000000000608482015260a4016105e9565b613b44836001614eda565b9750955060009450613f7d9350505050565b60f78111613c37576000613b6b60c083614a12565b905080876000015111613c26576040517f08c379a000000000000000000000000000000000000000000000000000000000815260206004820152604a60248201527f524c505265616465723a206c656e677468206f6620636f6e74656e74206d757360448201527f742062652067726561746572207468616e206c697374206c656e67746820287360648201527f686f7274206c6973742900000000000000000000000000000000000000000000608482015260a4016105e9565b600195509350849250613f7d915050565b6000613c4460f783614a12565b905080876000015111613cff576040517f08c379a000000000000000000000000000000000000000000000000000000000815260206004820152604d60248201527f524c505265616465723a206c656e677468206f6620636f6e74656e74206d757360448201527f74206265203e207468616e206c656e677468206f66206c697374206c656e677460648201527f6820286c6f6e67206c6973742900000000000000000000000000000000000000608482015260a4016105e9565b60018301517fff00000000000000000000000000000000000000000000000000000000000000166000819003613ddd576040517f08c379a000000000000000000000000000000000000000000000000000000000815260206004820152604860248201527f524c505265616465723a206c656e677468206f6620636f6e74656e74206d757360448201527f74206e6f74206861766520616e79206c656164696e67207a65726f7320286c6f60648201527f6e67206c69737429000000000000000000000000000000000000000000000000608482015260a4016105e9565b600184015160088302610100031c60378111613ea1576040517f08c379a000000000000000000000000000000000000000000000000000000000815260206004820152604660248201527f524c505265616465723a206c656e677468206f6620636f6e74656e74206d757360448201527f742062652067726561746572207468616e20353520627974657320286c6f6e6760648201527f206c697374290000000000000000000000000000000000000000000000000000608482015260a4016105e9565b613eab8184614eda565b895111613f60576040517f08c379a000000000000000000000000000000000000000000000000000000000815260206004820152604a60248201527f524c505265616465723a206c656e677468206f6620636f6e74656e74206d757360448201527f742062652067726561746572207468616e20746f74616c206c656e677468202860648201527f6c6f6e67206c6973742900000000000000000000000000000000000000000000608482015260a4016105e9565b613f6b836001614eda565b9750955060019450613f7d9350505050565b9193909250565b606060008267ffffffffffffffff811115613fa157613fa1614560565b6040519080825280601f01601f191660200182016040528015613fcb576020820181803683370190505b50905082600003613fdd579050611b9a565b6000613fe98587614eda565b90506020820160005b8581101561400a578281015182820152602001613ff2565b85811115614019576000868301525b50919695505050505050565b606061107b826020015160008460000151613f84565b60608182601f0110156140aa576040517f08c379a000000000000000000000000000000000000000000000000000000000815260206004820152600e60248201527f736c6963655f6f766572666c6f7700000000000000000000000000000000000060448201526064016105e9565b828284011015614116576040517f08c379a000000000000000000000000000000000000000000000000000000000815260206004820152600e60248201527f736c6963655f6f766572666c6f7700000000000000000000000000000000000060448201526064016105e9565b81830184511015614183576040517f08c379a000000000000000000000000000000000000000000000000000000000815260206004820152601160248201527f736c6963655f6f75744f66426f756e647300000000000000000000000000000060448201526064016105e9565b6060821580156141a2576040519150600082526020820160405261420a565b6040519150601f8416801560200281840101858101878315602002848b0101015b818310156141db5780518352602092830192016141c3565b5050858452601f017fffffffffffffffffffffffffffffffffffffffffffffffffffffffffffffffe016604052505b50949350505050565b604080518082019091526000808252602082015260008251116142de576040517f08c379a000000000000000000000000000000000000000000000000000000000815260206004820152604a60248201527f524c505265616465723a206c656e677468206f6620616e20524c50206974656d60448201527f206d7573742062652067726561746572207468616e207a65726f20746f20626560648201527f206465636f6461626c6500000000000000000000000000000000000000000000608482015260a4016105e9565b50604080518082019091528151815260209182019181019190915290565b6060600080600061430c85613517565b91945092509050600181600181111561432757614327615046565b146143b4576040517f08c379a000000000000000000000000000000000000000000000000000000000815260206004820152603860248201527f524c505265616465723a206465636f646564206974656d207479706520666f7260448201527f206c697374206973206e6f742061206c697374206974656d000000000000000060648201526084016105e9565b84516143c08385614eda565b1461444d576040517f08c379a000000000000000000000000000000000000000000000000000000000815260206004820152603260248201527f524c505265616465723a206c697374206974656d2068617320616e20696e766160448201527f6c696420646174612072656d61696e646572000000000000000000000000000060648201526084016105e9565b6040805160208082526104208201909252600091816020015b60408051808201909152600080825260208201528152602001906001900390816144665790505090506000845b8751811015614554576000806144d96040518060400160405280858d600001516144bd9190614a12565b8152602001858d602001516144d29190614eda565b9052613517565b5091509150604051806040016040528083836144f59190614eda565b8152602001848c6020015161450a9190614eda565b81525085858151811061451f5761451f614f95565b6020908102919091010152614535600185614eda565b93506145418183614eda565b61454b9084614eda565b92505050614493565b50815295945050505050565b7f4e487b7100000000000000000000000000000000000000000000000000000000600052604160045260246000fd5b604051601f82017fffffffffffffffffffffffffffffffffffffffffffffffffffffffffffffffe016810167ffffffffffffffff811182821017156145d6576145d6614560565b604052919050565b803573ffffffffffffffffffffffffffffffffffffffff8116811461460257600080fd5b919050565b600082601f83011261461857600080fd5b813567ffffffffffffffff81111561463257614632614560565b61466360207fffffffffffffffffffffffffffffffffffffffffffffffffffffffffffffffe0601f8401160161458f565b81815284602083860101111561467857600080fd5b816020850160208301376000918101602001919091529392505050565b600060c082840312156146a757600080fd5b60405160c0810167ffffffffffffffff82821081831117156146cb576146cb614560565b81604052829350843583526146e2602086016145de565b60208401526146f3604086016145de565b6040840152606085013560608401526080850135608084015260a085013591508082111561472057600080fd5b5061472d85828601614607565b60a0830152505092915050565b600080600080600085870360e081121561475357600080fd5b863567ffffffffffffffff8082111561476b57600080fd5b6147778a838b01614695565b97506020890135965060807fffffffffffffffffffffffffffffffffffffffffffffffffffffffffffffffc0840112156147b057600080fd5b60408901955060c08901359250808311156147ca57600080fd5b828901925089601f8401126147de57600080fd5b82359150808211156147ef57600080fd5b508860208260051b840101111561480557600080fd5b959894975092955050506020019190565b60005b83811015614831578181015183820152602001614819565b83811115614840576000848401525b50505050565b6000815180845261485e816020860160208601614816565b601f017fffffffffffffffffffffffffffffffffffffffffffffffffffffffffffffffe0169290920160200192915050565b602081526000611b9a6020830184614846565b6000602082840312156148b557600080fd5b5035919050565b6000602082840312156148ce57600080fd5b813567ffffffffffffffff8111156148e557600080fd5b611e2084828501614695565b600080600080600060a0868803121561490957600080fd5b614912866145de565b945060208601359350604086013567ffffffffffffffff808216821461493757600080fd5b909350606087013590811515821461494e57600080fd5b9092506080870135908082111561496457600080fd5b5061497188828901614607565b9150509295509295909350565b8581528460208201527fffffffffffffffff0000000000000000000000000000000000000000000000008460c01b16604082015282151560f81b6048820152600082516149d2816049850160208701614816565b919091016049019695505050505050565b7f4e487b7100000000000000000000000000000000000000000000000000000000600052601160045260246000fd5b600082821015614a2457614a246149e3565b500390565b7f4e487b7100000000000000000000000000000000000000000000000000000000600052601260045260246000fd5b600082614a6757614a67614a29565b7fffffffffffffffffffffffffffffffffffffffffffffffffffffffffffffffff83147f800000000000000000000000000000000000000000000000000000000000000083141615614abb57614abb6149e3565b500590565b6000808312837f800000000000000000000000000000000000000000000000000000000000000001831281151615614afa57614afa6149e3565b837f7fffffffffffffffffffffffffffffffffffffffffffffffffffffffffffffff018313811615614b2e57614b2e6149e3565b50500390565b60007f7fffffffffffffffffffffffffffffffffffffffffffffffffffffffffffffff600084136000841385830485118282161615614b7557614b756149e3565b7f80000000000000000000000000000000000000000000000000000000000000006000871286820588128184161615614bb057614bb06149e3565b60008712925087820587128484161615614bcc57614bcc6149e3565b87850587128184161615614be257614be26149e3565b505050929093029392505050565b6000808212827f7fffffffffffffffffffffffffffffffffffffffffffffffffffffffffffffff03841381151615614c2a57614c2a6149e3565b827f8000000000000000000000000000000000000000000000000000000000000000038412811615614c5e57614c5e6149e3565b50500190565b600067ffffffffffffffff808316818516808303821115614c8757614c876149e3565b01949350505050565b60006fffffffffffffffffffffffffffffffff80831681851681830481118215151615614cbf57614cbf6149e3565b02949350505050565b600082614cd757614cd7614a29565b500490565b80516fffffffffffffffffffffffffffffffff8116811461460257600080fd5b600060608284031215614d0e57600080fd5b6040516060810181811067ffffffffffffffff82111715614d3157614d31614560565b60405282518152614d4460208401614cdc565b6020820152614d5560408401614cdc565b60408201529392505050565b600060808284031215614d7357600080fd5b6040516080810181811067ffffffffffffffff82111715614d9657614d96614560565b8060405250823581526020830135602082015260408301356040820152606083013560608201528091505092915050565b600067ffffffffffffffff80841115614de257614de2614560565b8360051b6020614df381830161458f565b868152918501918181019036841115614e0b57600080fd5b865b84811015614e3f57803586811115614e255760008081fd5b614e3136828b01614607565b845250918301918301614e0d565b50979650505050505050565b60008451614e5d818460208901614816565b80830190507f2e000000000000000000000000000000000000000000000000000000000000008082528551614e99816001850160208a01614816565b60019201918201528351614eb4816002840160208801614816565b0160020195945050505050565b600060208284031215614ed357600080fd5b5051919050565b60008219821115614eed57614eed6149e3565b500190565b60007fffffffffffffffffffffffffffffffffffffffffffffffffffffffffffffffff8203614f2357614f236149e3565b5060010190565b868152600073ffffffffffffffffffffffffffffffffffffffff808816602084015280871660408401525084606083015283608083015260c060a0830152614f7560c0830184614846565b98975050505050505050565b600082614f9057614f90614a29565b500690565b7f4e487b7100000000000000000000000000000000000000000000000000000000600052603260045260246000fd5b600060ff831680614fd757614fd7614a29565b8060ff84160691505092915050565b600060ff821660ff841680821015615000576150006149e3565b90039392505050565b6000817fffffffffffffffffffffffffffffffffffffffffffffffffffffffffffffffff0483118215151615615041576150416149e3565b500290565b7f4e487b7100000000000000000000000000000000000000000000000000000000600052602160045260246000fdfea164736f6c634300080f000a",
  "devdoc": {
    "version": 1,
    "kind": "dev",
    "methods": {
      "constructor": {
        "params": {
          "_finalizationPeriodSeconds": "Output finalization time in seconds.",
          "_l2Oracle": "Address of the L2OutputOracle contract."
        }
      },
      "depositTransaction(address,uint256,uint64,bool,bytes)": {
        "params": {
          "_data": "Data to trigger the recipient with.",
          "_gasLimit": "Minimum L2 gas limit (can be greater than or equal to this value).",
          "_isCreation": "Whether or not the transaction is a contract creation.",
          "_to": "Target address on L2.",
          "_value": "ETH value to send to the recipient."
        }
      },
      "finalizeWithdrawalTransaction((uint256,address,address,uint256,uint256,bytes))": {
        "params": {
          "_tx": "Withdrawal transaction to finalize."
        }
      },
      "isOutputFinalized(uint256)": {
        "params": {
          "_l2OutputIndex": "Index of the L2 output to check."
        },
        "returns": {
          "_0": "Whether or not the output is finalized."
        }
      },
      "proveWithdrawalTransaction((uint256,address,address,uint256,uint256,bytes),uint256,(bytes32,bytes32,bytes32,bytes32),bytes[])": {
        "params": {
          "_l2OutputIndex": "L2 output index to prove against.",
          "_outputRootProof": "Inclusion proof of the L2ToL1MessagePasser contract's storage root.",
          "_tx": "Withdrawal transaction to finalize.",
          "_withdrawalProof": "Inclusion proof of the withdrawal in L2ToL1MessagePasser contract."
        }
      },
      "version()": {
        "returns": {
          "_0": "Semver contract version as a string."
        }
      }
    },
    "events": {
      "TransactionDeposited(address,address,uint256,bytes)": {
        "params": {
          "from": "Address that triggered the deposit transaction.",
          "opaqueData": "ABI encoded deposit data to be parsed off-chain.",
          "to": "Address that the deposit transaction is directed to.",
          "version": "Version of this deposit transaction event."
        }
      },
      "WithdrawalFinalized(bytes32,bool)": {
        "params": {
          "success": "Whether the withdrawal transaction was successful.",
          "withdrawalHash": "Hash of the withdrawal transaction."
        }
      },
      "WithdrawalProven(bytes32,address,address)": {
        "params": {
          "withdrawalHash": "Hash of the withdrawal transaction."
        }
      }
    }
  },
  "userdoc": {
    "version": 1,
    "kind": "user",
    "methods": {
      "BASE_FEE_MAX_CHANGE_DENOMINATOR()": {
        "notice": "Denominator that determines max change on fee per block."
      },
      "ELASTICITY_MULTIPLIER()": {
        "notice": "Along with the resource limit, determines the target resource limit."
      },
      "FINALIZATION_PERIOD_SECONDS()": {
        "notice": "Minimum time (in seconds) that must elapse before a withdrawal can be finalized."
      },
      "INITIAL_BASE_FEE()": {
        "notice": "Initial base fee value."
      },
      "L2_ORACLE()": {
        "notice": "Address of the L2OutputOracle."
      },
      "MAXIMUM_BASE_FEE()": {
        "notice": "Maximum base fee value, cannot go higher than this."
      },
      "MAX_RESOURCE_LIMIT()": {
        "notice": "Maximum amount of the resource that can be used within this block."
      },
      "MINIMUM_BASE_FEE()": {
        "notice": "Minimum base fee value, cannot go lower than this."
      },
      "TARGET_RESOURCE_LIMIT()": {
        "notice": "Target amount of the resource that should be used within this block."
      },
      "depositTransaction(address,uint256,uint64,bool,bytes)": {
        "notice": "Accepts deposits of ETH and data, and emits a TransactionDeposited event for use in         deriving deposit transactions. Note that if a deposit is made by a contract, its         address will be aliased when retrieved using `tx.origin` or `msg.sender`. Consider         using the CrossDomainMessenger contracts for a simpler developer experience."
      },
      "donateETH()": {
        "notice": "Accepts ETH value without triggering a deposit to L2. This function mainly exists         for the sake of the migration between the legacy Optimism system and Bedrock."
      },
      "finalizeWithdrawalTransaction((uint256,address,address,uint256,uint256,bytes))": {
        "notice": "Finalizes a withdrawal transaction."
      },
      "finalizedWithdrawals(bytes32)": {
        "notice": "A list of withdrawal hashes which have been successfully finalized."
      },
      "initialize()": {
        "notice": "Initializer."
      },
      "isOutputFinalized(uint256)": {
        "notice": "Determine if a given output is finalized. Reverts if the call to         L2_ORACLE.getL2Output reverts. Returns a boolean otherwise."
      },
      "l2Sender()": {
        "notice": "Address of the L2 account which initiated a withdrawal in this transaction. If the         of this variable is the default L2 sender address, then we are NOT inside of a call         to finalizeWithdrawalTransaction."
      },
      "params()": {
        "notice": "EIP-1559 style gas parameters."
      },
      "proveWithdrawalTransaction((uint256,address,address,uint256,uint256,bytes),uint256,(bytes32,bytes32,bytes32,bytes32),bytes[])": {
        "notice": "Proves a withdrawal transaction."
      },
      "provenWithdrawals(bytes32)": {
        "notice": "A mapping of withdrawal hashes to `ProvenWithdrawal` data."
      },
      "version()": {
        "notice": "Returns the full semver contract version."
      }
    },
    "events": {
      "TransactionDeposited(address,address,uint256,bytes)": {
        "notice": "Emitted when a transaction is deposited from L1 to L2. The parameters of this event         are read by the rollup node and used to derive deposit transactions on L2."
      },
      "WithdrawalFinalized(bytes32,bool)": {
        "notice": "Emitted when a withdrawal transaction is finalized."
      },
      "WithdrawalProven(bytes32,address,address)": {
        "notice": "Emitted when a withdrawal transaction is proven."
      }
    },
    "notice": "The OptimismPortal is a low-level contract responsible for passing messages between L1         and L2. Messages sent directly to the OptimismPortal have no form of replayability.         Users are encouraged to use the L1CrossDomainMessenger for a higher-level interface."
  },
  "storageLayout": {
    "storage": [
      {
        "astId": 40183,
        "contract": "contracts/L1/OptimismPortal.sol:OptimismPortal",
        "label": "_initialized",
        "offset": 0,
        "slot": "0",
        "type": "t_uint8"
      },
      {
        "astId": 40186,
        "contract": "contracts/L1/OptimismPortal.sol:OptimismPortal",
        "label": "_initializing",
        "offset": 1,
        "slot": "0",
        "type": "t_bool"
      },
      {
        "astId": 1826,
        "contract": "contracts/L1/OptimismPortal.sol:OptimismPortal",
        "label": "params",
        "offset": 0,
        "slot": "1",
        "type": "t_struct(ResourceParams)1782_storage"
      },
      {
        "astId": 1831,
        "contract": "contracts/L1/OptimismPortal.sol:OptimismPortal",
        "label": "__gap",
        "offset": 0,
        "slot": "2",
        "type": "t_array(t_uint256)48_storage"
      },
      {
        "astId": 1269,
        "contract": "contracts/L1/OptimismPortal.sol:OptimismPortal",
        "label": "l2Sender",
        "offset": 0,
        "slot": "50",
        "type": "t_address"
      },
      {
        "astId": 1274,
        "contract": "contracts/L1/OptimismPortal.sol:OptimismPortal",
        "label": "finalizedWithdrawals",
        "offset": 0,
        "slot": "51",
        "type": "t_mapping(t_bytes32,t_bool)"
      },
      {
        "astId": 1280,
        "contract": "contracts/L1/OptimismPortal.sol:OptimismPortal",
        "label": "provenWithdrawals",
        "offset": 0,
        "slot": "52",
        "type": "t_mapping(t_bytes32,t_struct(ProvenWithdrawal)1247_storage)"
      }
    ],
    "types": {
      "t_address": {
        "encoding": "inplace",
        "label": "address",
        "numberOfBytes": "20"
      },
      "t_array(t_uint256)48_storage": {
        "encoding": "inplace",
        "label": "uint256[48]",
        "numberOfBytes": "1536",
        "base": "t_uint256"
      },
      "t_bool": {
        "encoding": "inplace",
        "label": "bool",
        "numberOfBytes": "1"
      },
      "t_bytes32": {
        "encoding": "inplace",
        "label": "bytes32",
        "numberOfBytes": "32"
      },
      "t_mapping(t_bytes32,t_bool)": {
        "encoding": "mapping",
        "key": "t_bytes32",
        "label": "mapping(bytes32 => bool)",
        "numberOfBytes": "32",
        "value": "t_bool"
      },
      "t_mapping(t_bytes32,t_struct(ProvenWithdrawal)1247_storage)": {
        "encoding": "mapping",
        "key": "t_bytes32",
        "label": "mapping(bytes32 => struct OptimismPortal.ProvenWithdrawal)",
        "numberOfBytes": "32",
        "value": "t_struct(ProvenWithdrawal)1247_storage"
      },
      "t_struct(ProvenWithdrawal)1247_storage": {
        "encoding": "inplace",
        "label": "struct OptimismPortal.ProvenWithdrawal",
        "numberOfBytes": "64",
        "members": [
          {
            "astId": 1242,
            "contract": "contracts/L1/OptimismPortal.sol:OptimismPortal",
            "label": "outputRoot",
            "offset": 0,
            "slot": "0",
            "type": "t_bytes32"
          },
          {
            "astId": 1244,
            "contract": "contracts/L1/OptimismPortal.sol:OptimismPortal",
            "label": "timestamp",
            "offset": 0,
            "slot": "1",
            "type": "t_uint128"
          },
          {
            "astId": 1246,
            "contract": "contracts/L1/OptimismPortal.sol:OptimismPortal",
            "label": "l2OutputIndex",
            "offset": 16,
            "slot": "1",
            "type": "t_uint128"
          }
        ]
      },
      "t_struct(ResourceParams)1782_storage": {
        "encoding": "inplace",
        "label": "struct ResourceMetering.ResourceParams",
        "numberOfBytes": "32",
        "members": [
          {
            "astId": 1777,
            "contract": "contracts/L1/OptimismPortal.sol:OptimismPortal",
            "label": "prevBaseFee",
            "offset": 0,
            "slot": "0",
            "type": "t_uint128"
          },
          {
            "astId": 1779,
            "contract": "contracts/L1/OptimismPortal.sol:OptimismPortal",
            "label": "prevBoughtGas",
            "offset": 16,
            "slot": "0",
            "type": "t_uint64"
          },
          {
            "astId": 1781,
            "contract": "contracts/L1/OptimismPortal.sol:OptimismPortal",
            "label": "prevBlockNum",
            "offset": 24,
            "slot": "0",
            "type": "t_uint64"
          }
        ]
      },
      "t_uint128": {
        "encoding": "inplace",
        "label": "uint128",
        "numberOfBytes": "16"
      },
      "t_uint256": {
        "encoding": "inplace",
        "label": "uint256",
        "numberOfBytes": "32"
      },
      "t_uint64": {
        "encoding": "inplace",
        "label": "uint64",
        "numberOfBytes": "8"
      },
      "t_uint8": {
        "encoding": "inplace",
        "label": "uint8",
        "numberOfBytes": "1"
      }
    }
  }
}