{
  "_format": "hh-sol-artifact-1",
  "contractName": "Helper_GasMeasurer",
  "sourceName": "contracts/test-helpers/Helper_GasMeasurer.sol",
  "abi": [
    {
      "inputs": [
        {
          "internalType": "address",
          "name": "_target",
          "type": "address"
        },
        {
          "internalType": "bytes",
          "name": "_data",
          "type": "bytes"
        }
      ],
      "name": "measureCallGas",
      "outputs": [
        {
          "internalType": "uint256",
          "name": "",
          "type": "uint256"
        }
      ],
      "stateMutability": "nonpayable",
      "type": "function"
    }
  ],
  "bytecode": "0x60806040523480156100195760008061001661001f565b50505b5061008a565b632a2a7adb598160e01b8152600481016020815285602082015260005b8681101561005757808601518282016040015260200161003c565b506020828760640184336000905af158600e01573d6000803e3d6000fd5b3d6001141558600a015760016000f35b505050565b610346806100996000396000f3fe6080604052348015610019576000806100166101ae565b50505b50600436106100345760003560e01c8063df0495a114610042575b60008061003f6101ae565b50505b61011b600480360360408110156100615760008061005e6101ae565b50505b6001600160a01b038235169190810190604081016020820135640100000000811115610095576000806100926101ae565b50505b8201836020820111156100b0576000806100ad6101ae565b50505b803590602001918460018302840111640100000000831117156100db576000806100d86101ae565b50505b91908080601f016020809104026020016040519081016040528181529291906020840183838082843760009201919091525092955061012d945050505050565b60405190815260200160405180910390f35b6000808060208401818551905060005a9450600080838560008c5a610150610219565b50505050505090505a9350806101a05760405162461bcd60e51b8152600401808060200182810382526041815260200180610305604191396060019150506040518091039061019d6101ae565b50505b505050900390505b92915050565b632a2a7adb598160e01b8152600481016020815285602082015260005b868110156101e65780860151828201604001526020016101cb565b506020828760640184336000905af158600e01573d6000803e3d6000fd5b3d6001141558600a015760016000f35b505050565b6385979f76598160e01b815261024a565b80808311156101a8575090919050565b80808310156101a8575090919050565b836004820152846024820152606060448201528760648201526084810160005b8981101561028257808901518282015260200161026a565b506060828a60a40184336000905af158600e01573d6000803e3d6000fd5b3d6001141558600a015760016000f35b815160408301513d6000853e8c8c82606087013350600060045af150596102d78e3d61023a565b8d016102e3818761022a565b5b828110156102f857600081526020016102e4565b50929d5050505050505056fe43616c6c206661696c65642c206275742063616c6c732077652077616e7420746f206d6561737572652067617320666f722073686f756c64207375636365656421",
  "linkReferences": {},
  "deployedLinkReferences": {}
}