{
  "abi": [
    {
      "anonymous": false,
      "inputs": [
        {
          "components": [
            {
              "internalType": "address",
              "name": "target",
              "type": "address"
            },
            {
              "internalType": "uint256",
              "name": "threshold",
              "type": "uint256"
            }
          ],
          "indexed": false,
          "internalType": "struct CheckBalanceLow.Params",
          "name": "params",
          "type": "tuple"
        }
      ],
      "name": "_EventToExposeStructInABI__Params",
      "type": "event"
    },
    {
      "inputs": [
        {
          "internalType": "bytes",
          "name": "_params",
          "type": "bytes"
        }
      ],
      "name": "check",
      "outputs": [
        {
          "internalType": "bool",
          "name": "",
          "type": "bool"
        }
      ],
      "stateMutability": "view",
      "type": "function"
    }
  ],
  "bytecode": {
    "object": "0x608060405234801561001057600080fd5b506101bf806100206000396000f3fe608060405234801561001057600080fd5b506004361061002b5760003560e01c8063c64b3bb514610030575b600080fd5b61004361003e36600461009d565b610057565b604051901515815260200160405180910390f35b6000808280602001905181019061006e919061014e565b602081015190516001600160a01b031631109392505050565b634e487b7160e01b600052604160045260246000fd5b6000602082840312156100af57600080fd5b813567ffffffffffffffff808211156100c757600080fd5b818401915084601f8301126100db57600080fd5b8135818111156100ed576100ed610087565b604051601f8201601f19908116603f0116810190838211818310171561011557610115610087565b8160405282815287602084870101111561012e57600080fd5b826020860160208301376000928101602001929092525095945050505050565b60006040828403121561016057600080fd5b6040516040810181811067ffffffffffffffff8211171561018357610183610087565b60405282516001600160a01b038116811461019d57600080fd5b8152602092830151928101929092525091905056fea164736f6c6343000810000a",
    "linkReferences": {}
  },
  "methodIdentifiers": {
    "check(bytes)": "c64b3bb5"
  },
  "id": 26
}