{
  "_format": "hh-sol-artifact-1",
  "contractName": "TestLib_OVMCodec",
  "sourceName": "contracts/test-libraries/codec/TestLib_OVMCodec.sol",
  "abi": [
    {
      "inputs": [
        {
          "internalType": "bytes",
          "name": "_transaction",
          "type": "bytes"
        },
        {
          "internalType": "bool",
          "name": "_isEthSignedMessage",
          "type": "bool"
        }
      ],
      "name": "decodeEIP155Transaction",
      "outputs": [
        {
          "components": [
            {
              "internalType": "uint256",
              "name": "nonce",
              "type": "uint256"
            },
            {
              "internalType": "uint256",
              "name": "gasPrice",
              "type": "uint256"
            },
            {
              "internalType": "uint256",
              "name": "gasLimit",
              "type": "uint256"
            },
            {
              "internalType": "address",
              "name": "to",
              "type": "address"
            },
            {
              "internalType": "uint256",
              "name": "value",
              "type": "uint256"
            },
            {
              "internalType": "bytes",
              "name": "data",
              "type": "bytes"
            },
            {
              "internalType": "uint256",
              "name": "chainId",
              "type": "uint256"
            }
          ],
          "internalType": "struct Lib_OVMCodec.EIP155Transaction",
          "name": "_decoded",
          "type": "tuple"
        }
      ],
      "stateMutability": "pure",
      "type": "function"
    },
    {
      "inputs": [
        {
          "internalType": "bytes",
          "name": "_transaction",
          "type": "bytes"
        },
        {
          "internalType": "uint256",
          "name": "_chainId",
          "type": "uint256"
        }
      ],
      "name": "decompressEIP155Transaction",
      "outputs": [
        {
          "components": [
            {
              "internalType": "uint256",
              "name": "nonce",
              "type": "uint256"
            },
            {
              "internalType": "uint256",
              "name": "gasPrice",
              "type": "uint256"
            },
            {
              "internalType": "uint256",
              "name": "gasLimit",
              "type": "uint256"
            },
            {
              "internalType": "address",
              "name": "to",
              "type": "address"
            },
            {
              "internalType": "uint256",
              "name": "value",
              "type": "uint256"
            },
            {
              "internalType": "bytes",
              "name": "data",
              "type": "bytes"
            },
            {
              "internalType": "uint256",
              "name": "chainId",
              "type": "uint256"
            }
          ],
          "internalType": "struct Lib_OVMCodec.EIP155Transaction",
          "name": "_decompressed",
          "type": "tuple"
        }
      ],
      "stateMutability": "nonpayable",
      "type": "function"
    },
    {
      "inputs": [
        {
          "components": [
            {
              "internalType": "uint256",
              "name": "timestamp",
              "type": "uint256"
            },
            {
              "internalType": "uint256",
              "name": "blockNumber",
              "type": "uint256"
            },
            {
              "internalType": "enum Lib_OVMCodec.QueueOrigin",
              "name": "l1QueueOrigin",
              "type": "uint8"
            },
            {
              "internalType": "address",
              "name": "l1TxOrigin",
              "type": "address"
            },
            {
              "internalType": "address",
              "name": "entrypoint",
              "type": "address"
            },
            {
              "internalType": "uint256",
              "name": "gasLimit",
              "type": "uint256"
            },
            {
              "internalType": "bytes",
              "name": "data",
              "type": "bytes"
            }
          ],
          "internalType": "struct Lib_OVMCodec.Transaction",
          "name": "_transaction",
          "type": "tuple"
        }
      ],
      "name": "encodeTransaction",
      "outputs": [
        {
          "internalType": "bytes",
          "name": "_encoded",
          "type": "bytes"
        }
      ],
      "stateMutability": "pure",
      "type": "function"
    },
    {
      "inputs": [
        {
          "components": [
            {
              "internalType": "uint256",
              "name": "timestamp",
              "type": "uint256"
            },
            {
              "internalType": "uint256",
              "name": "blockNumber",
              "type": "uint256"
            },
            {
              "internalType": "enum Lib_OVMCodec.QueueOrigin",
              "name": "l1QueueOrigin",
              "type": "uint8"
            },
            {
              "internalType": "address",
              "name": "l1TxOrigin",
              "type": "address"
            },
            {
              "internalType": "address",
              "name": "entrypoint",
              "type": "address"
            },
            {
              "internalType": "uint256",
              "name": "gasLimit",
              "type": "uint256"
            },
            {
              "internalType": "bytes",
              "name": "data",
              "type": "bytes"
            }
          ],
          "internalType": "struct Lib_OVMCodec.Transaction",
          "name": "_transaction",
          "type": "tuple"
        }
      ],
      "name": "hashTransaction",
      "outputs": [
        {
          "internalType": "bytes32",
          "name": "_hash",
          "type": "bytes32"
        }
      ],
      "stateMutability": "pure",
      "type": "function"
    }
  ],
  "bytecode": "0x60806040523480156100195760008061001661001f565b50505b5061008a565b632a2a7adb598160e01b8152600481016020815285602082015260005b8681101561005757808601518282016040015260200161003c565b506020828760640184336000905af158600e01573d6000803e3d6000fd5b3d6001141558600a015760016000f35b505050565b61144e806100996000396000f3fe608060405234801561001957600080610016610e9d565b50505b50600436106100555760003560e01c80633170de2a1461006357806369a956521461008c57806375973062146100ac578063a3e6d2fc146100bf575b600080610060610e9d565b50505b6100766100713660046110b3565b6100df565b60405161008391906112ff565b60405180910390f35b61009f61009a36600461105e565b6100f2565b604051610083919061131b565b61009f6100ba366004610fef565b61010d565b6100d26100cd3660046110b3565b61011f565b6040516100839190611308565b60006100ea8261012a565b90505b919050565b6100fa610f08565b6101048383610142565b90505b92915050565b610115610f08565b61010483836101d3565b60606100ea82610332565b600061013582610332565b8051906020012092915050565b61014a610f08565b6040518060e00160405280610160856006610380565b62ffffff168152602001610175856003610380565b62ffffff16620f424002815260200161018f856000610380565b62ffffff1681526020016101a485600961043f565b6001600160a01b03168152602001600081526020016101c485601d610506565b81526020019290925250919050565b6101db610f08565b811561025157600080808080806020890189518101906101fb9190611193565b9550955095509550955095506040518060e00160405280878152602001858152602001868152602001836001600160a01b0316815260200160008152602001828152602001848152509650505050505050610107565b600061025c84610533565b90506040518060e001604052806102868360008151811061027957fe5b6020026020010151610546565b815260200161029b8360018151811061027957fe5b81526020016102b08360028151811061027957fe5b81526020016102d2836003815181106102c557fe5b6020026020010151610551565b6001600160a01b031681526020016102f08360048151811061027957fe5b81526020016103128360058151811061030557fe5b60200260200101516105cc565b81526020016103278360068151811061027957fe5b815250915050610107565b6060815182602001518360400151846060015185608001518660a001518760c0015160405160200161036a9796959493929190611290565b6040516020818303038152906040529050919050565b6000818260030110156103d65760405162461bcd60e51b8152602060048201526011602482015270746f55696e7432345f6f766572666c6f7760781b6044820152606401604051809103906103d3610e9d565b50505b816003018351101561042e5760405162461bcd60e51b8152602060048201526014602482015273746f55696e7432345f6f75744f66426f756e647360601b60448201526064016040518091039061042b610e9d565b50505b600082600385010151949350505050565b6000818260140110156104965760405162461bcd60e51b8152602060048201526012602482015271746f416464726573735f6f766572666c6f7760701b604482015260640160405180910390610493610e9d565b50505b81601401835110156104ef5760405162461bcd60e51b8152602060048201526015602482015274746f416464726573735f6f75744f66426f756e647360581b6044820152606401604051809103906104ec610e9d565b50505b6000600160601b8360208601015104949350505050565b6060818351036105255760405160208101604052600081529050610107565b610104838384865103610663565b60606100ea610541836107ce565b6107f6565b60006100ea82610982565b6000815160011415610565575060006100ed565b81516015146105c35760405162461bcd60e51b815260206004820152601a60248201527f496e76616c696420524c5020616464726573732076616c75652e0000000000006044820152606401604051809103906105c0610e9d565b50505b6100ea82610546565b606060008060006105dc85610a90565b9194509250905060008160018111156105f157fe5b1461064b5760405162461bcd60e51b815260206004820152601860248201527f496e76616c696420524c502062797465732076616c75652e0000000000000000604482015260640160405180910390610648610e9d565b50505b61065a85602001518484610deb565b95945050505050565b60608182601f0110156106b65760405162461bcd60e51b815260206004820152600e60248201526d736c6963655f6f766572666c6f7760901b6044820152606401604051809103906106b3610e9d565b50505b8282840110156107065760405162461bcd60e51b815260206004820152600e60248201526d736c6963655f6f766572666c6f7760901b604482015260640160405180910390610703610e9d565b50505b8183018451101561075a5760405162461bcd60e51b8152602060048201526011602482015270736c6963655f6f75744f66426f756e647360781b604482015260640160405180910390610757610e9d565b50505b60608215801561077957604051915060008252602082016040526107c3565b6040519150601f8416801560200281840101858101878315602002848b0101015b818310156107b257805183526020928301920161079a565b5050858452601f01601f1916604052505b5090505b9392505050565b6107d6610f4e565b602082016040518060400160405280845181526020019190915292915050565b606060008061080484610a90565b9193509091506001905081600181111561081a57fe5b146108745760405162461bcd60e51b815260206004820152601760248201527f496e76616c696420524c50206c6973742076616c75652e000000000000000000604482015260640160405180910390610871610e9d565b50505b600060206040519080825280602002602001820160405280156108b157816020015b61089e610f4e565b8152602001906001900390816108965790505b5090506000835b865181101561097757602082106109095760405162461bcd60e51b815260040180806020018281038252602a815260200180611424602a913960400191505060405180910390610906610e9d565b50505b6000806109316040516040808201905280858c51038152602001858c60200151019052610a90565b509150915060405180604001604052808383018152602001848b6020015101905285858151811061095e57fe5b60209081029190910101526001939093019201016108b8565b508152949350505050565b60006021825111156109e35760405162461bcd60e51b815260206004820152601a60248201527f496e76616c696420524c5020627974657333322076616c75652e0000000000006044820152606401604051809103906109e0610e9d565b50505b60008060006109f185610a90565b919450925090506000816001811115610a0657fe5b14610a605760405162461bcd60e51b815260206004820152601a60248201527f496e76616c696420524c5020627974657333322076616c75652e000000000000604482015260640160405180910390610a5d610e9d565b50505b60008386602001510190506000815190506020841015610a865760208490036101000a90045b9695505050505050565b6000808080845111610af15760405162461bcd60e51b815260206004820152601860248201527f524c50206974656d2063616e6e6f74206265206e756c6c2e0000000000000000604482015260640160405180910390610aee610e9d565b50505b6000846020015190506000815160001a9050607f8111610b1e576000600160009450945094505050610de4565b60b78111610b9a57607f19810180875111610b885760405162461bcd60e51b815260206004820152601960248201527f496e76616c696420524c502073686f727420737472696e672e00000000000000604482015260640160405180910390610b85610e9d565b50505b60019550935060009250610de4915050565b60bf8111610c8a5760b619810180875111610c045760405162461bcd60e51b815260206004820152601f60248201527f496e76616c696420524c50206c6f6e6720737472696e67206c656e6774682e00604482015260640160405180910390610c01610e9d565b50505b6000816020036101000a6001850151049050818101885111610c755760405162461bcd60e51b815260206004820152601860248201527f496e76616c696420524c50206c6f6e6720737472696e672e0000000000000000604482015260640160405180910390610c72610e9d565b50505b60019091019550935060009250610de4915050565b60f78111610d055760bf19810180875111610cf45760405162461bcd60e51b815260206004820152601760248201527f496e76616c696420524c502073686f7274206c6973742e000000000000000000604482015260640160405180910390610cf1610e9d565b50505b600195509350849250610de4915050565b60f619810180875111610d675760405162461bcd60e51b815260206004820152601d60248201527f496e76616c696420524c50206c6f6e67206c697374206c656e6774682e000000604482015260640160405180910390610d64610e9d565b50505b6000816020036101000a6001850151049050818101885111610dd15760405162461bcd60e51b815260206004820152601660248201527524b73b30b634b210292628103637b733903634b9ba1760511b604482015260640160405180910390610dce610e9d565b50505b6001918201965094509250610de4915050565b9193909250565b606060008267ffffffffffffffff81118015610e0f57600080610e0c610e9d565b50505b50604051818152601f19601f8301168101602001604052908015610e3a576020820181803683370190505b5090508051610e4a5790506107c7565b8484016020820160005b60208604811015610e75578251825260209283019290910190600101610e54565b50600019601f86166020036101000a0180825116811984511617909152509095945050505050565b632a2a7adb598160e01b8152600481016020815285602082015260005b86811015610ed5578086015182820160400152602001610eba565b506020828760640184336000905af158600e01573d6000803e3d6000fd5b3d6001141558600a015760016000f35b505050565b6040518060e0016040528060008152602001600081526020016000815260200160006001600160a01b031681526020016000815260200160608152602001600081525090565b604051604080820190526000808252602082015290565b80356100ed81611402565b600082601f830112610f89578081610f86610e9d565b50505b8135610f9c610f97826113b0565b611388565b818152846020838601011115610fb9578283610fb6610e9d565b50505b816020850160208301379081016020019190915292915050565b8035600281106100ed57600080610fe8610e9d565b5050919050565b6000806040838503121561100a578182611007610e9d565b50505b823567ffffffffffffffff811115611029578283611026610e9d565b50505b61103585828601610f70565b92505060208301358015158114611053578182611050610e9d565b50505b809150509250929050565b60008060408385031215611079578182611076610e9d565b50505b823567ffffffffffffffff811115611098578283611095610e9d565b50505b6110a485828601610f70565b95602094909401359450505050565b6000602082840312156110cd5780816110ca610e9d565b50505b813567ffffffffffffffff808211156110ed5782836110ea610e9d565b50505b9083019060e08286031215611109578283611106610e9d565b50505b61111360e0611388565b823581526020830135602082015261112d60408401610fd3565b604082015261113e60608401610f65565b606082015261114f60808401610f65565b608082015260a083013560a082015260c083013582811115611178578485611175610e9d565b50505b61118487828601610f70565b60c08301525095945050505050565b60008060008060008060c087890312156111b45781826111b1610e9d565b50505b8651955060208701519450604087015193506060870151925060808701516111db81611402565b915060a087015167ffffffffffffffff8111156111ff5781826111fc610e9d565b50505b8701601f81018913611218578182611215610e9d565b50505b8051611226610f97826113b0565b8181528a6020838501011115611243578384611240610e9d565b50505b6112548260208301602086016113d2565b8093505050509295509295509295565b6000815180845261127c8160208601602086016113d2565b601f01601f19169290920160200192915050565b6000888252876020830152600287106112a557fe5b8660f81b60408301526bffffffffffffffffffffffff19808760601b166041840152808660601b1660558401525083606983015282516112ec8160898501602087016113d2565b9190910160890198975050505050505050565b90815260200190565b6000602082526101046020830184611264565b60006020825282516020830152602083015160408301526040830151606083015260018060a01b036060840151166080830152608083015160a083015260a083015160e060c0840152611372610100840182611264565b905060c084015160e08401528091505092915050565b6000604051905081810181811067ffffffffffffffff821117156113a857fe5b604052919050565b600067ffffffffffffffff8211156113c457fe5b50601f01601f191660200190565b60005b838110156113ed5780820151838201526020016113d5565b838111156113fc576000848401525b50505050565b6001600160a01b03811681146114205760008061141d610e9d565b50505b5056fe50726f766964656420524c50206c6973742065786365656473206d6178206c697374206c656e6774682e",
  "linkReferences": {},
  "deployedLinkReferences": {}
}