{
  "_format": "hh-sol-artifact-1",
  "contractName": "OVM_FastCrossDomainEnabled",
  "sourceName": "contracts/libraries/OVM_FastCrossDomainEnabled.sol",
  "abi": [
    {
      "inputs": [
        {
          "internalType": "address",
          "name": "_senderMessenger",
          "type": "address"
        },
        {
          "internalType": "address",
          "name": "_relayerMessenger",
          "type": "address"
        }
      ],
      "stateMutability": "nonpayable",
      "type": "constructor"
    },
    {
      "inputs": [],
      "name": "relayerMessenger",
      "outputs": [
        {
          "internalType": "address",
          "name": "",
          "type": "address"
        }
      ],
      "stateMutability": "view",
      "type": "function"
    },
    {
      "inputs": [],
      "name": "senderMessenger",
      "outputs": [
        {
          "internalType": "address",
          "name": "",
          "type": "address"
        }
      ],
      "stateMutability": "view",
      "type": "function"
    }
  ],
  "bytecode": "0x608060405234801561001957600080610016610108565b50505b5060405161042b38038061042b8339818101604052604081101561004557600080610042610108565b50505b810190808051906020019092919080519060200190929190505050816000806101000a81610071610176565b8173ffffffffffffffffffffffffffffffffffffffff021916908373ffffffffffffffffffffffffffffffffffffffff160217906100ad6101d9565b50505080600160006101000a816100c2610176565b8173ffffffffffffffffffffffffffffffffffffffff021916908373ffffffffffffffffffffffffffffffffffffffff160217906100fe6101d9565b505050505061023e565b632a2a7adb598160e01b8152600481016020815285602082015260005b86811015610143578086015181604084010152602081019050610125565b506020828760640184336000905af158600e01573d6000803e3d6000fd5b3d6001141558600a015760016000f35b505050565b6303daa959598160e01b8152836004820152602081602483336000905af158600e01573d6000803e3d6000fd5b3d6001141558600a015760016000f35b8051935060005b60408110156101d4576000818301526020810190506101ba565b505050565b6322bd64c0598160e01b8152836004820152846024820152600081604483336000905af158600e01573d6000803e3d6000fd5b3d6001141558600a015760016000f35b60005b60408110156102395760008183015260208101905061021f565b505050565b6101de8061024d6000396000f3fe60806040523480156100195760008061001661010d565b50505b506004361061003f5760003560e01c8063508e01c41461004d578063818c021e14610081575b60008061004a61010d565b50505b6100556100b5565b604051808273ffffffffffffffffffffffffffffffffffffffff16815260200191505060405180910390f35b6100896100e0565b604051808273ffffffffffffffffffffffffffffffffffffffff16815260200191505060405180910390f35b6000806100c061017b565b906101000a900473ffffffffffffffffffffffffffffffffffffffff1681565b60016000906100ed61017b565b906101000a900473ffffffffffffffffffffffffffffffffffffffff1681565b632a2a7adb598160e01b8152600481016020815285602082015260005b8681101561014857808601518160408401015260208101905061012a565b506020828760640184336000905af158600e01573d6000803e3d6000fd5b3d6001141558600a015760016000f35b505050565b6303daa959598160e01b8152836004820152602081602483336000905af158600e01573d6000803e3d6000fd5b3d6001141558600a015760016000f35b8051935060005b60408110156101d9576000818301526020810190506101bf565b50505056",
  "linkReferences": {},
  "deployedLinkReferences": {}
}