{
  "_format": "hh-sol-artifact-1",
  "contractName": "AtomicSwap",
  "sourceName": "contracts/AtomicSwap.sol",
  "abi": [
    {
      "anonymous": false,
      "inputs": [
        {
          "indexed": false,
          "internalType": "bytes32",
          "name": "_swapID",
          "type": "bytes32"
        }
      ],
      "name": "Close",
      "type": "event"
    },
    {
      "anonymous": false,
      "inputs": [
        {
          "indexed": false,
          "internalType": "bytes32",
          "name": "_swapID",
          "type": "bytes32"
        }
      ],
      "name": "Expire",
      "type": "event"
    },
    {
      "anonymous": false,
      "inputs": [
        {
          "indexed": false,
          "internalType": "bytes32",
          "name": "_swapID",
          "type": "bytes32"
        },
        {
          "indexed": false,
          "internalType": "address",
          "name": "_closeTrader",
          "type": "address"
        }
      ],
      "name": "Open",
      "type": "event"
    },
    {
      "inputs": [
        {
          "internalType": "bytes32",
          "name": "_swapID",
          "type": "bytes32"
        }
      ],
      "name": "check",
      "outputs": [
        {
          "internalType": "uint256",
          "name": "openValue",
          "type": "uint256"
        },
        {
          "internalType": "address",
          "name": "openContractAddress",
          "type": "address"
        },
        {
          "internalType": "uint256",
          "name": "closeValue",
          "type": "uint256"
        },
        {
          "internalType": "address",
          "name": "closeTrader",
          "type": "address"
        },
        {
          "internalType": "address",
          "name": "closeContractAddress",
          "type": "address"
        }
      ],
      "stateMutability": "view",
      "type": "function"
    },
    {
      "inputs": [
        {
          "internalType": "bytes32",
          "name": "_swapID",
          "type": "bytes32"
        }
      ],
      "name": "close",
      "outputs": [],
      "stateMutability": "nonpayable",
      "type": "function"
    },
    {
      "inputs": [
        {
          "internalType": "bytes32",
          "name": "_swapID",
          "type": "bytes32"
        }
      ],
      "name": "expire",
      "outputs": [],
      "stateMutability": "nonpayable",
      "type": "function"
    },
    {
      "inputs": [
        {
          "internalType": "bytes32",
          "name": "_swapID",
          "type": "bytes32"
        },
        {
          "internalType": "uint256",
          "name": "_openValue",
          "type": "uint256"
        },
        {
          "internalType": "address",
          "name": "_openContractAddress",
          "type": "address"
        },
        {
          "internalType": "uint256",
          "name": "_closeValue",
          "type": "uint256"
        },
        {
          "internalType": "address",
          "name": "_closeTrader",
          "type": "address"
        },
        {
          "internalType": "address",
          "name": "_closeContractAddress",
          "type": "address"
        }
      ],
      "name": "open",
      "outputs": [],
      "stateMutability": "nonpayable",
      "type": "function"
    }
  ],
  "bytecode": "0x60806040523480156100195760008061001661001f565b50505b5061008d565b632a2a7adb598160e01b8152600481016020815285602082015260005b8681101561005a57808601518160408401015260208101905061003c565b506020828760640184336000905af158600e01573d6000803e3d6000fd5b3d6001141558600a015760016000f35b505050565b6116b28061009c6000396000f3fe608060405234801561001957600080610016611391565b50505b50600436106100555760003560e01c8063399e07921461006357806339c79e0c1461010c5780635454a43814610143578063c6441798146101ee575b600080610060611391565b50505b610098600480360360208110156100825760008061007f611391565b50505b8101908080359060200190929190505050610225565b604051808681526020018573ffffffffffffffffffffffffffffffffffffffff1681526020018481526020018373ffffffffffffffffffffffffffffffffffffffff1681526020018273ffffffffffffffffffffffffffffffffffffffff1681526020019550505050505060405180910390f35b6101416004803603602081101561012b57600080610128611391565b50505b8101908080359060200190929190505050610410565b005b6101ec600480360360c08110156101625760008061015f611391565b50505b810190808035906020019092919080359060200190929190803573ffffffffffffffffffffffffffffffffffffffff16906020019092919080359060200190929190803573ffffffffffffffffffffffffffffffffffffffff169060200190929190803573ffffffffffffffffffffffffffffffffffffffff16906020019092919050505061091d565b005b6102236004803603602081101561020d5760008061020a611391565b50505b8101908080359060200190929190505050610c37565b005b6000806000806000806000808881526020019081526020016000206040518060c0016040529081600082016102586113ff565b81526020016001820160009061026c6113ff565b906101000a900473ffffffffffffffffffffffffffffffffffffffff1673ffffffffffffffffffffffffffffffffffffffff1673ffffffffffffffffffffffffffffffffffffffff168152602001600282016000906102c96113ff565b906101000a900473ffffffffffffffffffffffffffffffffffffffff1673ffffffffffffffffffffffffffffffffffffffff1673ffffffffffffffffffffffffffffffffffffffff168152602001600382016103236113ff565b8152602001600482016000906103376113ff565b906101000a900473ffffffffffffffffffffffffffffffffffffffff1673ffffffffffffffffffffffffffffffffffffffff1673ffffffffffffffffffffffffffffffffffffffff168152602001600582016000906103946113ff565b906101000a900473ffffffffffffffffffffffffffffffffffffffff1673ffffffffffffffffffffffffffffffffffffffff1673ffffffffffffffffffffffffffffffffffffffff1681525050905080600001518160400151826060015183608001518460a00151955095509550955095505091939590929450565b806001600381111561041e57fe5b6001600083815260200190815260200160002060009061043c6113ff565b906101000a900460ff16600381111561045157fe5b1461046457600080610461611391565b50505b8160008060008381526020019081526020016000206040518060c0016040529081600082016104916113ff565b8152602001600182016000906104a56113ff565b906101000a900473ffffffffffffffffffffffffffffffffffffffff1673ffffffffffffffffffffffffffffffffffffffff1673ffffffffffffffffffffffffffffffffffffffff168152602001600282016000906105026113ff565b906101000a900473ffffffffffffffffffffffffffffffffffffffff1673ffffffffffffffffffffffffffffffffffffffff1673ffffffffffffffffffffffffffffffffffffffff1681526020016003820161055c6113ff565b8152602001600482016000906105706113ff565b906101000a900473ffffffffffffffffffffffffffffffffffffffff1673ffffffffffffffffffffffffffffffffffffffff1673ffffffffffffffffffffffffffffffffffffffff168152602001600582016000906105cd6113ff565b906101000a900473ffffffffffffffffffffffffffffffffffffffff1673ffffffffffffffffffffffffffffffffffffffff1673ffffffffffffffffffffffffffffffffffffffff16815250509050806080015173ffffffffffffffffffffffffffffffffffffffff165a610640611462565b73ffffffffffffffffffffffffffffffffffffffff161461066957600080610666611391565b50505b60008060008681526020019081526020016000206040518060c0016040529081600082016106956113ff565b8152602001600182016000906106a96113ff565b906101000a900473ffffffffffffffffffffffffffffffffffffffff1673ffffffffffffffffffffffffffffffffffffffff1673ffffffffffffffffffffffffffffffffffffffff168152602001600282016000906107066113ff565b906101000a900473ffffffffffffffffffffffffffffffffffffffff1673ffffffffffffffffffffffffffffffffffffffff1673ffffffffffffffffffffffffffffffffffffffff168152602001600382016107606113ff565b8152602001600482016000906107746113ff565b906101000a900473ffffffffffffffffffffffffffffffffffffffff1673ffffffffffffffffffffffffffffffffffffffff1673ffffffffffffffffffffffffffffffffffffffff168152602001600582016000906107d16113ff565b906101000a900473ffffffffffffffffffffffffffffffffffffffff1673ffffffffffffffffffffffffffffffffffffffff1673ffffffffffffffffffffffffffffffffffffffff1681525050905061085d8160800151826020015183606001518460a0015173ffffffffffffffffffffffffffffffffffffffff16610f54909392919063ffffffff16565b61089a816020015182608001518360000151846040015173ffffffffffffffffffffffffffffffffffffffff16610f54909392919063ffffffff16565b60026001600087815260200190815260200160002060006101000a816108be6113ff565b8160ff021916908360038111156108d157fe5b0217906108dc6114bf565b5050507fc9d8209586aca26a4f59cc70108e4cf2f637da8cb4133c78a3946bc50581ea28856040518082815260200191505060405180910390a15050505050565b856000600381111561092b57fe5b600160008381526020019081526020016000206000906109496113ff565b906101000a900460ff16600381111561095e57fe5b146109715760008061096e611391565b50505b6040518060c001604052808781526020015a61098b611462565b73ffffffffffffffffffffffffffffffffffffffff1681526020018673ffffffffffffffffffffffffffffffffffffffff1681526020018581526020018473ffffffffffffffffffffffffffffffffffffffff1681526020018373ffffffffffffffffffffffffffffffffffffffff16815250600080898152602001908152602001600020600082015181600001610a216114bf565b505060208201518160010160006101000a81610a3b6113ff565b8173ffffffffffffffffffffffffffffffffffffffff021916908373ffffffffffffffffffffffffffffffffffffffff16021790610a776114bf565b50505060408201518160020160006101000a81610a926113ff565b8173ffffffffffffffffffffffffffffffffffffffff021916908373ffffffffffffffffffffffffffffffffffffffff16021790610ace6114bf565b505050606082015181600301610ae26114bf565b505060808201518160040160006101000a81610afc6113ff565b8173ffffffffffffffffffffffffffffffffffffffff021916908373ffffffffffffffffffffffffffffffffffffffff16021790610b386114bf565b50505060a08201518160050160006101000a81610b536113ff565b8173ffffffffffffffffffffffffffffffffffffffff021916908373ffffffffffffffffffffffffffffffffffffffff16021790610b8f6114bf565b505050905050600180600089815260200190815260200160002060006101000a81610bb86113ff565b8160ff02191690836003811115610bcb57fe5b021790610bd66114bf565b5050507fb5894ff5a344c5160302de0b2027c5b55f4914e9d8e8c11b377b559e5ec789eb8784604051808381526020018273ffffffffffffffffffffffffffffffffffffffff1681526020019250505060405180910390a150505050505050565b8060016003811115610c4557fe5b60016000838152602001908152602001600020600090610c636113ff565b906101000a900460ff166003811115610c7857fe5b14610c8b57600080610c88611391565b50505b8160008060008381526020019081526020016000206040518060c001604052908160008201610cb86113ff565b815260200160018201600090610ccc6113ff565b906101000a900473ffffffffffffffffffffffffffffffffffffffff1673ffffffffffffffffffffffffffffffffffffffff1673ffffffffffffffffffffffffffffffffffffffff16815260200160028201600090610d296113ff565b906101000a900473ffffffffffffffffffffffffffffffffffffffff1673ffffffffffffffffffffffffffffffffffffffff1673ffffffffffffffffffffffffffffffffffffffff16815260200160038201610d836113ff565b815260200160048201600090610d976113ff565b906101000a900473ffffffffffffffffffffffffffffffffffffffff1673ffffffffffffffffffffffffffffffffffffffff1673ffffffffffffffffffffffffffffffffffffffff16815260200160058201600090610df46113ff565b906101000a900473ffffffffffffffffffffffffffffffffffffffff1673ffffffffffffffffffffffffffffffffffffffff1673ffffffffffffffffffffffffffffffffffffffff16815250509050806020015173ffffffffffffffffffffffffffffffffffffffff165a610e67611462565b73ffffffffffffffffffffffffffffffffffffffff161480610ec05750806080015173ffffffffffffffffffffffffffffffffffffffff165a610ea8611462565b73ffffffffffffffffffffffffffffffffffffffff16145b610ed257600080610ecf611391565b50505b60036001600086815260200190815260200160002060006101000a81610ef66113ff565b8160ff02191690836003811115610f0957fe5b021790610f146114bf565b5050507fbddd9b693ea862fad6ecf78fd51c065be26fda94d1f3cad3a7d691453a38a735846040518082815260200191505060405180910390a150505050565b61100f846323b872dd60e01b858585604051602401808473ffffffffffffffffffffffffffffffffffffffff1681526020018373ffffffffffffffffffffffffffffffffffffffff1681526020018281526020019350505050604051602081830303815290604052907bffffffffffffffffffffffffffffffffffffffffffffffffffffffff19166020820180517bffffffffffffffffffffffffffffffffffffffffffffffffffffffff8381831617835250505050611015565b50505050565b6000611077826040518060400160405280602081526020017f5361666545524332303a206c6f772d6c6576656c2063616c6c206661696c65648152508573ffffffffffffffffffffffffffffffffffffffff166111169092919063ffffffff16565b9050600081511115611111578080602001905160208110156110a15760008061109e611391565b50505b8101908080519060200190929190505050611110576040517f08c379a000000000000000000000000000000000000000000000000000000000815260040180806020018281038252602a815260200180611688602a91396040019150506040518091039061110d611391565b50505b5b505050565b6060611125848460008561112e565b90509392505050565b606061113985611293565b6111b4576040517f08c379a000000000000000000000000000000000000000000000000000000000815260040180806020018281038252601d8152602001807f416464726573733a2063616c6c20746f206e6f6e2d636f6e7472616374000000815250602001915050604051809103906111b1611391565b50505b6000808673ffffffffffffffffffffffffffffffffffffffff1685876040518082805190602001908083835b6020831061120357805182526020820191506020810190506020830392506111e0565b6001836020036101000a03801982511681845116808217855250505050505090500191505060006040518083038185875a61123c611524565b505050505050925050503d8060008114611272576040519150601f19603f3d011682016040523d82523d6000602084013e611277565b606091505b50915091506112878282866112ad565b92505050949350505050565b6000808261129f611624565b905060008111915050919050565b606083156112bd5782905061138a565b6000835111156112de57825180846020016112d6611391565b505050611389565b816040517f08c379a00000000000000000000000000000000000000000000000000000000081526004018080602001828103825283818151815260200191508051906020019080838360005b8381101561134557808201518184015260208101905061132a565b50505050905090810190601f1680156113725780820380516001836020036101000a031916815260200191505b509250505060405180910390611386611391565b50505b5b9392505050565b632a2a7adb598160e01b8152600481016020815285602082015260005b868110156113cc5780860151816040840101526020810190506113ae565b506020828760640184336000905af158600e01573d6000803e3d6000fd5b3d6001141558600a015760016000f35b505050565b6303daa959598160e01b8152836004820152602081602483336000905af158600e01573d6000803e3d6000fd5b3d6001141558600a015760016000f35b8051935060005b604081101561145d57600081830152602081019050611443565b505050565b6373509064598160e01b8152602081600483336000905af158600e01573d6000803e3d6000fd5b3d6001141558600a015760016000f35b8051935060005b60408110156114ba576000818301526020810190506114a0565b505050565b6322bd64c0598160e01b8152836004820152846024820152600081604483336000905af158600e01573d6000803e3d6000fd5b3d6001141558600a015760016000f35b60005b604081101561151f57600081830152602081019050611505565b505050565b6385979f76598160e01b8152611563565b600081905081831115611546578290505b92915050565b60008190508183101561155d578290505b92915050565b836004820152846024820152606060448201528760648201526084810160005b8981101561159e578089015181830152602081019050611583565b506060828a60a40184336000905af158600e01573d6000803e3d6000fd5b3d6001141558600a015760016000f35b815160408301513d6000853e8c8c82606087013350600060045af150596115f38e3d61154c565b8d016115ff8187611535565b5b828110156116175760008152602081019050611600565b50839e5050505050505050565b638435035b598160e01b8152836004820152602081602483336000905af158600e01573d6000803e3d6000fd5b3d6001141558600a015760016000f35b8051935060005b604081101561168257600081830152602081019050611668565b50505056fe5361666545524332303a204552433230206f7065726174696f6e20646964206e6f742073756363656564",
  "linkReferences": {},
  "deployedLinkReferences": {}
}