{
  "address": "0x100Dd3b414Df5BbA2B542864fF94aF8024aFdf3a",
  "abi": [
    {
      "anonymous": false,
      "inputs": [
        {
          "indexed": true,
          "internalType": "string",
          "name": "_name",
          "type": "string"
        },
        {
          "indexed": false,
          "internalType": "address",
          "name": "_newAddress",
          "type": "address"
        },
        {
          "indexed": false,
          "internalType": "address",
          "name": "_oldAddress",
          "type": "address"
        }
      ],
      "name": "AddressSet",
      "type": "event"
    },
    {
      "anonymous": false,
      "inputs": [
        {
          "indexed": true,
          "internalType": "address",
          "name": "previousOwner",
          "type": "address"
        },
        {
          "indexed": true,
          "internalType": "address",
          "name": "newOwner",
          "type": "address"
        }
      ],
      "name": "OwnershipTransferred",
      "type": "event"
    },
    {
      "inputs": [
        {
          "internalType": "string",
          "name": "_name",
          "type": "string"
        }
      ],
      "name": "getAddress",
      "outputs": [
        {
          "internalType": "address",
          "name": "",
          "type": "address"
        }
      ],
      "stateMutability": "view",
      "type": "function"
    },
    {
      "inputs": [],
      "name": "owner",
      "outputs": [
        {
          "internalType": "address",
          "name": "",
          "type": "address"
        }
      ],
      "stateMutability": "view",
      "type": "function"
    },
    {
      "inputs": [],
      "name": "renounceOwnership",
      "outputs": [],
      "stateMutability": "nonpayable",
      "type": "function"
    },
    {
      "inputs": [
        {
          "internalType": "string",
          "name": "_name",
          "type": "string"
        },
        {
          "internalType": "address",
          "name": "_address",
          "type": "address"
        }
      ],
      "name": "setAddress",
      "outputs": [],
      "stateMutability": "nonpayable",
      "type": "function"
    },
    {
      "inputs": [
        {
          "internalType": "address",
          "name": "newOwner",
          "type": "address"
        }
      ],
      "name": "transferOwnership",
      "outputs": [],
      "stateMutability": "nonpayable",
      "type": "function"
    }
  ],
  "transactionHash": "0xbbd41dab9d866d6f6dd54bdcb8fa1f3d9f30f90b8a4dd3d7a787f3d7e2153c2f",
  "args": [],
  "solcInputHash": "ef3f334bac4d7e77d91b457a0d89ab0a",
  "bytecode": "0x608060405234801561001057600080fd5b50600061001b61006a565b600080546001600160a01b0319166001600160a01b0383169081178255604051929350917f8be0079c531659141344cd1fd0a4f28419497f9722a3daafe3b4186f6b6457e0908290a35061006e565b3390565b6106478061007d6000396000f3fe608060405234801561001057600080fd5b50600436106100575760003560e01c8063715018a61461005c5780638da5cb5b146100665780639b2ea4bd1461008a578063bf40fac11461013b578063f2fde38b146101e1575b600080fd5b610064610207565b005b61006e6102c5565b604080516001600160a01b039092168252519081900360200190f35b610064600480360360408110156100a057600080fd5b8101906020810181356401000000008111156100bb57600080fd5b8201836020820111156100cd57600080fd5b803590602001918460018302840111640100000000831117156100ef57600080fd5b91908080601f016020809104026020016040519081016040528093929190818152602001838380828437600092019190915250929550505090356001600160a01b031691506102d49050565b61006e6004803603602081101561015157600080fd5b81019060208101813564010000000081111561016c57600080fd5b82018360208201111561017e57600080fd5b803590602001918460018302840111640100000000831117156101a057600080fd5b91908080601f01602080910402602001604051908101604052809392919081815260200183838082843760009201919091525092955061042d945050505050565b610064600480360360208110156101f757600080fd5b50356001600160a01b031661045c565b61020f610570565b6001600160a01b03166102206102c5565b6001600160a01b03161461027b576040805162461bcd60e51b815260206004820181905260248201527f4f776e61626c653a2063616c6c6572206973206e6f7420746865206f776e6572604482015290519081900360640190fd5b600080546040516001600160a01b03909116907f8be0079c531659141344cd1fd0a4f28419497f9722a3daafe3b4186f6b6457e0908390a3600080546001600160a01b0319169055565b6000546001600160a01b031690565b6102dc610570565b6001600160a01b03166102ed6102c5565b6001600160a01b031614610348576040805162461bcd60e51b815260206004820181905260248201527f4f776e61626c653a2063616c6c6572206973206e6f7420746865206f776e6572604482015290519081900360640190fd5b600061035383610574565b60008181526001602090815260409182902080546001600160a01b038781166001600160a01b0319831617909255925187519495509216928692918291908401908083835b602083106103b75780518252601f199092019160209182019101610398565b51815160001960209485036101000a01908116901991909116179052604080519490920184900384206001600160a01b03808b16865288169185019190915281519095507f9416a153a346f93d95f94b064ae3f148b6460473c6e82b3f9fc2521b873fcd6c94509283900301919050a250505050565b60006001600061043c84610574565b81526020810191909152604001600020546001600160a01b031692915050565b610464610570565b6001600160a01b03166104756102c5565b6001600160a01b0316146104d0576040805162461bcd60e51b815260206004820181905260248201527f4f776e61626c653a2063616c6c6572206973206e6f7420746865206f776e6572604482015290519081900360640190fd5b6001600160a01b0381166105155760405162461bcd60e51b81526004018080602001828103825260268152602001806105ec6026913960400191505060405180910390fd5b600080546040516001600160a01b03808516939216917f8be0079c531659141344cd1fd0a4f28419497f9722a3daafe3b4186f6b6457e091a3600080546001600160a01b0319166001600160a01b0392909216919091179055565b3390565b6000816040516020018082805190602001908083835b602083106105a95780518252601f19909201916020918201910161058a565b6001836020036101000a03801982511681845116808217855250505050505090500191505060405160208183030381529060405280519060200120905091905056fe4f776e61626c653a206e6577206f776e657220697320746865207a65726f2061646472657373a2646970667358221220b47b03a0c984a0faed73425d34ee172acb8f5010c64751f78c7f645cf8dc2aad64736f6c63430007060033",
  "devdoc": {
    "kind": "dev",
    "methods": {
      "getAddress(string)": {
        "params": {
          "_name": "Name to retrieve an address for."
        },
        "returns": {
          "_0": "Address associated with the given name."
        }
      },
      "owner()": {
        "details": "Returns the address of the current owner."
      },
      "renounceOwnership()": {
        "details": "Leaves the contract without owner. It will not be possible to call `onlyOwner` functions anymore. Can only be called by the current owner. NOTE: Renouncing ownership will leave the contract without an owner, thereby removing any functionality that is only available to the owner."
      },
      "setAddress(string,address)": {
        "params": {
          "_address": "Address to associate with the name.",
          "_name": "String name to associate an address with."
        }
      },
      "transferOwnership(address)": {
        "details": "Transfers ownership of the contract to a new account (`newOwner`). Can only be called by the current owner."
      }
    },
    "title": "Lib_AddressManager",
    "version": 1
  },
  "userdoc": {
    "kind": "user",
    "methods": {
      "getAddress(string)": {
        "notice": "Retrieves the address associated with a given name."
      },
      "setAddress(string,address)": {
        "notice": "Changes the address associated with a particular name."
      }
    },
    "version": 1
  },
  "storageLayout": {
    "storage": [
      {
        "astId": 664,
        "contract": "contracts/optimistic-ethereum/libraries/resolver/Lib_AddressManager.sol:Lib_AddressManager",
        "label": "_owner",
        "offset": 0,
        "slot": "0",
        "type": "t_address"
      },
      {
        "astId": 15229,
        "contract": "contracts/optimistic-ethereum/libraries/resolver/Lib_AddressManager.sol:Lib_AddressManager",
        "label": "addresses",
        "offset": 0,
        "slot": "1",
        "type": "t_mapping(t_bytes32,t_address)"
      }
    ],
    "types": {
      "t_address": {
        "encoding": "inplace",
        "label": "address",
        "numberOfBytes": "20"
      },
      "t_bytes32": {
        "encoding": "inplace",
        "label": "bytes32",
        "numberOfBytes": "32"
      },
      "t_mapping(t_bytes32,t_address)": {
        "encoding": "mapping",
        "key": "t_bytes32",
        "label": "mapping(bytes32 => address)",
        "numberOfBytes": "32",
        "value": "t_address"
      }
    }
  }
}