{
  "address": "0x25bb69ee5665536Ce6aeb51094F0bed9e4DACc30",
  "abi": [
    {
      "inputs": [],
      "stateMutability": "nonpayable",
      "type": "constructor"
    },
    {
      "anonymous": false,
      "inputs": [
        {
          "indexed": true,
          "internalType": "address",
          "name": "_from",
          "type": "address"
        },
        {
          "indexed": false,
          "internalType": "address",
          "name": "_to",
          "type": "address"
        },
        {
          "indexed": false,
          "internalType": "uint256",
          "name": "_amount",
          "type": "uint256"
        }
      ],
      "name": "DepositInitiated",
      "type": "event"
    },
    {
      "anonymous": false,
      "inputs": [
        {
          "indexed": true,
          "internalType": "address",
          "name": "_to",
          "type": "address"
        },
        {
          "indexed": false,
          "internalType": "uint256",
          "name": "_amount",
          "type": "uint256"
        }
      ],
      "name": "WithdrawalFinalized",
      "type": "event"
    },
    {
      "inputs": [],
      "name": "deposit",
      "outputs": [],
      "stateMutability": "payable",
      "type": "function"
    },
    {
      "inputs": [
        {
          "internalType": "address",
          "name": "_to",
          "type": "address"
        }
      ],
      "name": "depositTo",
      "outputs": [],
      "stateMutability": "payable",
      "type": "function"
    },
    {
      "inputs": [
        {
          "internalType": "address",
          "name": "_to",
          "type": "address"
        },
        {
          "internalType": "uint256",
          "name": "_amount",
          "type": "uint256"
        }
      ],
      "name": "finalizeWithdrawal",
      "outputs": [],
      "stateMutability": "nonpayable",
      "type": "function"
    },
    {
      "inputs": [],
      "name": "getFinalizeDepositL2Gas",
      "outputs": [
        {
          "internalType": "uint32",
          "name": "",
          "type": "uint32"
        }
      ],
      "stateMutability": "view",
      "type": "function"
    },
    {
      "inputs": [
        {
          "internalType": "address",
          "name": "_libAddressManager",
          "type": "address"
        },
        {
          "internalType": "address",
          "name": "_ovmEth",
          "type": "address"
        }
      ],
      "name": "initialize",
      "outputs": [],
      "stateMutability": "nonpayable",
      "type": "function"
    },
    {
      "inputs": [],
      "name": "libAddressManager",
      "outputs": [
        {
          "internalType": "contract Lib_AddressManager",
          "name": "",
          "type": "address"
        }
      ],
      "stateMutability": "view",
      "type": "function"
    },
    {
      "inputs": [],
      "name": "messenger",
      "outputs": [
        {
          "internalType": "address",
          "name": "",
          "type": "address"
        }
      ],
      "stateMutability": "view",
      "type": "function"
    },
    {
      "inputs": [],
      "name": "ovmEth",
      "outputs": [
        {
          "internalType": "address",
          "name": "",
          "type": "address"
        }
      ],
      "stateMutability": "view",
      "type": "function"
    },
    {
      "inputs": [
        {
          "internalType": "string",
          "name": "_name",
          "type": "string"
        }
      ],
      "name": "resolve",
      "outputs": [
        {
          "internalType": "address",
          "name": "",
          "type": "address"
        }
      ],
      "stateMutability": "view",
      "type": "function"
    },
    {
      "stateMutability": "payable",
      "type": "receive"
    }
  ],
  "transactionHash": "0xdee55e4f063e0e623d64d84766a08cdff904d121126b845ebc3e565fad826f6b",
  "args": [],
  "solcInputHash": "5ee8e508e2c54cb5ac6783b4855b1558",
  "bytecode": "0x608060405234801561001057600080fd5b50600080546001600160a01b03199081169091556001805490911690556109fb8061003c6000396000f3fe60806040526004361061008a5760003560e01c8063485cc95511610059578063485cc95514610122578063490b5b7814610142578063b760faf914610157578063d0e30db01461016a578063f4f7b41a146101725761009b565b80631273a090146100a0578063299ca478146100cb5780633cb747bf146100ed578063461a4478146101025761009b565b3661009b576100993333610192565b005b600080fd5b3480156100ac57600080fd5b506100b5610246565b6040516100c29190610935565b60405180910390f35b3480156100d757600080fd5b506100e061024d565b6040516100c29190610865565b3480156100f957600080fd5b506100e061025c565b34801561010e57600080fd5b506100e061011d366004610797565b61026b565b34801561012e57600080fd5b5061009961013d36600461073c565b610347565b34801561014e57600080fd5b506100e06103ef565b61009961016536600461071b565b6103fe565b61009961040b565b34801561017e57600080fd5b5061009961018d36600461076e565b610417565b6000638d6e9a5b60e01b82346040516024016101af929190610879565b60408051601f198184030181529190526020810180516001600160e01b03166001600160e01b0319909316929092179091526002549091506101fe906001600160a01b03168262124f80610578565b826001600160a01b03167ff531653a5819e21265de50358610d55dbe6594c61605b209dfa4280d277938c18334604051610239929190610879565b60405180910390a2505050565b62124f8081565b6001546001600160a01b031681565b6000546001600160a01b031681565b60015460405163bf40fac160e01b81526020600482018181528451602484015284516000946001600160a01b03169363bf40fac1938793928392604401918501908083838b5b838110156102c95781810151838201526020016102b1565b50505050905090810190601f1680156102f65780820380516001836020036101000a031916815260200191505b509250505060206040518083038186803b15801561031357600080fd5b505afa158015610327573d6000803e3d6000fd5b505050506040513d602081101561033d57600080fd5b505190505b919050565b6001546001600160a01b0316156103795760405162461bcd60e51b8152600401610370906108e6565b60405180910390fd5b600180546001600160a01b038085166001600160a01b0319928316179092556002805492841692909116919091179055604080516060810190915260218082526103cb91906109a5602083013961026b565b600080546001600160a01b0319166001600160a01b03929092169190911790555050565b6002546001600160a01b031681565b6104083382610192565b50565b6104153333610192565b565b6002546001600160a01b031661042b610663565b6001600160a01b0316336001600160a01b03161461047a5760405162461bcd60e51b815260040180806020018281038252602e815260200180610947602e913960400191505060405180910390fd5b806001600160a01b031661048c610663565b6001600160a01b0316636e296e456040518163ffffffff1660e01b815260040160206040518083038186803b1580156104c457600080fd5b505afa1580156104d8573d6000803e3d6000fd5b505050506040513d60208110156104ee57600080fd5b50516001600160a01b0316146105355760405162461bcd60e51b81526004018080602001828103825260308152602001806109756030913960400191505060405180910390fd5b61053f8383610672565b826001600160a01b03167f9e5c4f9f4e46b8629d3dda85f43a69194f50254404a72dc62b9e932d9c94eda883604051610239919061092c565b610580610663565b6001600160a01b0316633dbb202b8484846040518463ffffffff1660e01b815260040180846001600160a01b03168152602001806020018363ffffffff168152602001828103825284818151815260200191508051906020019080838360005b838110156105f85781810151838201526020016105e0565b50505050905090810190601f1680156106255780820380516001836020036101000a031916815260200191505b50945050505050600060405180830381600087803b15801561064657600080fd5b505af115801561065a573d6000803e3d6000fd5b50505050505050565b6000546001600160a01b031690565b604080516000808252602082019092526001600160a01b03841690839060405161069c919061082c565b60006040518083038185875af1925050503d80600081146106d9576040519150601f19603f3d011682016040523d82523d6000602084013e6106de565b606091505b50509050806106ff5760405162461bcd60e51b815260040161037090610892565b505050565b80356001600160a01b038116811461034257600080fd5b60006020828403121561072c578081fd5b61073582610704565b9392505050565b6000806040838503121561074e578081fd5b61075783610704565b915061076560208401610704565b90509250929050565b60008060408385031215610780578182fd5b61078983610704565b946020939093013593505050565b600060208083850312156107a9578182fd5b823567ffffffffffffffff808211156107c0578384fd5b818501915085601f8301126107d3578384fd5b8135818111156107df57fe5b604051601f8201601f19168101850183811182821017156107fc57fe5b6040528181528382018501881015610812578586fd5b818585018683013790810190930193909352509392505050565b60008251815b8181101561084c5760208186018101518583015201610832565b8181111561085a5782828501525b509190910192915050565b6001600160a01b0391909116815260200190565b6001600160a01b03929092168252602082015260400190565b60208082526034908201527f5472616e7366657248656c7065723a3a736166655472616e736665724554483a60408201527308115512081d1c985b9cd9995c8819985a5b195960621b606082015260800190565b60208082526026908201527f436f6e74726163742068617320616c7265616479206265656e20696e697469616040820152653634bd32b21760d11b606082015260800190565b90815260200190565b63ffffffff9190911681526020019056fe4f564d5f58434841494e3a206d657373656e67657220636f6e747261637420756e61757468656e746963617465644f564d5f58434841494e3a2077726f6e672073656e646572206f662063726f73732d646f6d61696e206d65737361676550726f78795f5f4f564d5f4c3143726f7373446f6d61696e4d657373656e676572a2646970667358221220d8a6002280930d6eb8035b95d663889b1a8e3dbd1b07997ca03239bd5372e85b64736f6c63430007060033",
  "devdoc": {
    "details": "The L1 ETH Gateway is a contract which stores deposited ETH that is in use on L2. Compiler used: solc Runtime target: EVM",
    "kind": "dev",
    "methods": {
      "deposit()": {
        "details": "deposit an amount of the ETH to the caller's balance on L2"
      },
      "depositTo(address)": {
        "details": "deposit an amount of ETH to a recipients's balance on L2",
        "params": {
          "_to": "L2 address to credit the withdrawal to"
        }
      },
      "finalizeWithdrawal(address,uint256)": {
        "details": "Complete a withdrawal from L2 to L1, and credit funds to the recipient's balance of the L1 ETH token. Since only the xDomainMessenger can call this function, it will never be called before the withdrawal is finalized.",
        "params": {
          "_amount": "Amount of the ETH to withdraw",
          "_to": "L1 address to credit the withdrawal to"
        }
      },
      "initialize(address,address)": {
        "params": {
          "_libAddressManager": "Address manager for this OE deployment",
          "_ovmEth": "L2 OVM_ETH implementation of iOVM_DepositedToken"
        }
      },
      "resolve(string)": {
        "params": {
          "_name": "Name to resolve an address for."
        },
        "returns": {
          "_0": "Address associated with the given name."
        }
      }
    },
    "title": "OVM_L1ETHGateway",
    "version": 1
  },
  "userdoc": {
    "kind": "user",
    "methods": {
      "resolve(string)": {
        "notice": "Resolves the address associated with a given name."
      }
    },
    "version": 1
  },
  "storageLayout": {
    "storage": [
      {
        "astId": 11988,
        "contract": "contracts/optimistic-ethereum/OVM/bridge/tokens/OVM_L1ETHGateway.sol:OVM_L1ETHGateway",
        "label": "messenger",
        "offset": 0,
        "slot": "0",
        "type": "t_address"
      },
      {
        "astId": 12800,
        "contract": "contracts/optimistic-ethereum/OVM/bridge/tokens/OVM_L1ETHGateway.sol:OVM_L1ETHGateway",
        "label": "libAddressManager",
        "offset": 0,
        "slot": "1",
        "type": "t_contract(Lib_AddressManager)12793"
      },
      {
        "astId": 2661,
        "contract": "contracts/optimistic-ethereum/OVM/bridge/tokens/OVM_L1ETHGateway.sol:OVM_L1ETHGateway",
        "label": "ovmEth",
        "offset": 0,
        "slot": "2",
        "type": "t_address"
      }
    ],
    "types": {
      "t_address": {
        "encoding": "inplace",
        "label": "address",
        "numberOfBytes": "20"
      },
      "t_contract(Lib_AddressManager)12793": {
        "encoding": "inplace",
        "label": "contract Lib_AddressManager",
        "numberOfBytes": "20"
      }
    }
  }
}