{
  "address": "0xa172330C2E6Ec2bF04662Bb9b67ae857910b7f7f",
  "abi": [
    {
      "inputs": [],
      "stateMutability": "nonpayable",
      "type": "constructor"
    },
    {
      "anonymous": false,
      "inputs": [
        {
          "indexed": false,
          "internalType": "bytes32",
          "name": "msgHash",
          "type": "bytes32"
        }
      ],
      "name": "FailedRelayedMessage",
      "type": "event"
    },
    {
      "anonymous": false,
      "inputs": [
        {
          "indexed": true,
          "internalType": "bytes32",
          "name": "_xDomainCalldataHash",
          "type": "bytes32"
        }
      ],
      "name": "MessageAllowed",
      "type": "event"
    },
    {
      "anonymous": false,
      "inputs": [
        {
          "indexed": true,
          "internalType": "bytes32",
          "name": "_xDomainCalldataHash",
          "type": "bytes32"
        }
      ],
      "name": "MessageBlocked",
      "type": "event"
    },
    {
      "anonymous": false,
      "inputs": [
        {
          "indexed": true,
          "internalType": "address",
          "name": "previousOwner",
          "type": "address"
        },
        {
          "indexed": true,
          "internalType": "address",
          "name": "newOwner",
          "type": "address"
        }
      ],
      "name": "OwnershipTransferred",
      "type": "event"
    },
    {
      "anonymous": false,
      "inputs": [
        {
          "indexed": false,
          "internalType": "address",
          "name": "account",
          "type": "address"
        }
      ],
      "name": "Paused",
      "type": "event"
    },
    {
      "anonymous": false,
      "inputs": [
        {
          "indexed": false,
          "internalType": "bytes32",
          "name": "msgHash",
          "type": "bytes32"
        }
      ],
      "name": "RelayedMessage",
      "type": "event"
    },
    {
      "anonymous": false,
      "inputs": [
        {
          "indexed": false,
          "internalType": "bytes",
          "name": "message",
          "type": "bytes"
        }
      ],
      "name": "SentMessage",
      "type": "event"
    },
    {
      "anonymous": false,
      "inputs": [
        {
          "indexed": false,
          "internalType": "address",
          "name": "account",
          "type": "address"
        }
      ],
      "name": "Unpaused",
      "type": "event"
    },
    {
      "inputs": [
        {
          "internalType": "bytes32",
          "name": "_xDomainCalldataHash",
          "type": "bytes32"
        }
      ],
      "name": "allowMessage",
      "outputs": [],
      "stateMutability": "nonpayable",
      "type": "function"
    },
    {
      "inputs": [
        {
          "internalType": "bytes32",
          "name": "_xDomainCalldataHash",
          "type": "bytes32"
        }
      ],
      "name": "blockMessage",
      "outputs": [],
      "stateMutability": "nonpayable",
      "type": "function"
    },
    {
      "inputs": [
        {
          "internalType": "bytes32",
          "name": "",
          "type": "bytes32"
        }
      ],
      "name": "blockedMessages",
      "outputs": [
        {
          "internalType": "bool",
          "name": "",
          "type": "bool"
        }
      ],
      "stateMutability": "view",
      "type": "function"
    },
    {
      "inputs": [
        {
          "internalType": "address",
          "name": "_libAddressManager",
          "type": "address"
        }
      ],
      "name": "initialize",
      "outputs": [],
      "stateMutability": "nonpayable",
      "type": "function"
    },
    {
      "inputs": [],
      "name": "libAddressManager",
      "outputs": [
        {
          "internalType": "contract Lib_AddressManager",
          "name": "",
          "type": "address"
        }
      ],
      "stateMutability": "view",
      "type": "function"
    },
    {
      "inputs": [],
      "name": "owner",
      "outputs": [
        {
          "internalType": "address",
          "name": "",
          "type": "address"
        }
      ],
      "stateMutability": "view",
      "type": "function"
    },
    {
      "inputs": [],
      "name": "pause",
      "outputs": [],
      "stateMutability": "nonpayable",
      "type": "function"
    },
    {
      "inputs": [],
      "name": "paused",
      "outputs": [
        {
          "internalType": "bool",
          "name": "",
          "type": "bool"
        }
      ],
      "stateMutability": "view",
      "type": "function"
    },
    {
      "inputs": [
        {
          "internalType": "address",
          "name": "_target",
          "type": "address"
        },
        {
          "internalType": "address",
          "name": "_sender",
          "type": "address"
        },
        {
          "internalType": "bytes",
          "name": "_message",
          "type": "bytes"
        },
        {
          "internalType": "uint256",
          "name": "_messageNonce",
          "type": "uint256"
        },
        {
          "components": [
            {
              "internalType": "bytes32",
              "name": "stateRoot",
              "type": "bytes32"
            },
            {
              "components": [
                {
                  "internalType": "uint256",
                  "name": "batchIndex",
                  "type": "uint256"
                },
                {
                  "internalType": "bytes32",
                  "name": "batchRoot",
                  "type": "bytes32"
                },
                {
                  "internalType": "uint256",
                  "name": "batchSize",
                  "type": "uint256"
                },
                {
                  "internalType": "uint256",
                  "name": "prevTotalElements",
                  "type": "uint256"
                },
                {
                  "internalType": "bytes",
                  "name": "extraData",
                  "type": "bytes"
                }
              ],
              "internalType": "struct Lib_OVMCodec.ChainBatchHeader",
              "name": "stateRootBatchHeader",
              "type": "tuple"
            },
            {
              "components": [
                {
                  "internalType": "uint256",
                  "name": "index",
                  "type": "uint256"
                },
                {
                  "internalType": "bytes32[]",
                  "name": "siblings",
                  "type": "bytes32[]"
                }
              ],
              "internalType": "struct Lib_OVMCodec.ChainInclusionProof",
              "name": "stateRootProof",
              "type": "tuple"
            },
            {
              "internalType": "bytes",
              "name": "stateTrieWitness",
              "type": "bytes"
            },
            {
              "internalType": "bytes",
              "name": "storageTrieWitness",
              "type": "bytes"
            }
          ],
          "internalType": "struct iOVM_L1CrossDomainMessenger.L2MessageInclusionProof",
          "name": "_proof",
          "type": "tuple"
        }
      ],
      "name": "relayMessage",
      "outputs": [],
      "stateMutability": "nonpayable",
      "type": "function"
    },
    {
      "inputs": [
        {
          "internalType": "bytes32",
          "name": "",
          "type": "bytes32"
        }
      ],
      "name": "relayedMessages",
      "outputs": [
        {
          "internalType": "bool",
          "name": "",
          "type": "bool"
        }
      ],
      "stateMutability": "view",
      "type": "function"
    },
    {
      "inputs": [],
      "name": "renounceOwnership",
      "outputs": [],
      "stateMutability": "nonpayable",
      "type": "function"
    },
    {
      "inputs": [
        {
          "internalType": "address",
          "name": "_target",
          "type": "address"
        },
        {
          "internalType": "address",
          "name": "_sender",
          "type": "address"
        },
        {
          "internalType": "bytes",
          "name": "_message",
          "type": "bytes"
        },
        {
          "internalType": "uint256",
          "name": "_queueIndex",
          "type": "uint256"
        },
        {
          "internalType": "uint32",
          "name": "_gasLimit",
          "type": "uint32"
        }
      ],
      "name": "replayMessage",
      "outputs": [],
      "stateMutability": "nonpayable",
      "type": "function"
    },
    {
      "inputs": [
        {
          "internalType": "string",
          "name": "_name",
          "type": "string"
        }
      ],
      "name": "resolve",
      "outputs": [
        {
          "internalType": "address",
          "name": "",
          "type": "address"
        }
      ],
      "stateMutability": "view",
      "type": "function"
    },
    {
      "inputs": [
        {
          "internalType": "address",
          "name": "_target",
          "type": "address"
        },
        {
          "internalType": "bytes",
          "name": "_message",
          "type": "bytes"
        },
        {
          "internalType": "uint32",
          "name": "_gasLimit",
          "type": "uint32"
        }
      ],
      "name": "sendMessage",
      "outputs": [],
      "stateMutability": "nonpayable",
      "type": "function"
    },
    {
      "inputs": [
        {
          "internalType": "bytes32",
          "name": "",
          "type": "bytes32"
        }
      ],
      "name": "successfulMessages",
      "outputs": [
        {
          "internalType": "bool",
          "name": "",
          "type": "bool"
        }
      ],
      "stateMutability": "view",
      "type": "function"
    },
    {
      "inputs": [
        {
          "internalType": "address",
          "name": "newOwner",
          "type": "address"
        }
      ],
      "name": "transferOwnership",
      "outputs": [],
      "stateMutability": "nonpayable",
      "type": "function"
    },
    {
      "inputs": [],
      "name": "xDomainMessageSender",
      "outputs": [
        {
          "internalType": "address",
          "name": "",
          "type": "address"
        }
      ],
      "stateMutability": "view",
      "type": "function"
    }
  ],
  "transactionHash": "0x5f3b206cb31d6360fb14f166531c43a98f97620cd75521ee2721bba9e39ea036",
  "args": [],
  "solcInputHash": "ef3f334bac4d7e77d91b457a0d89ab0a",
  "bytecode": "0x608060405260cc80546001600160a01b03191661dead17905534801561002457600080fd5b50600080546001600160a01b0319169055613310806100446000396000f3fe608060405234801561001057600080fd5b506004361061010b5760003560e01c8063715018a6116100a2578063b1b1b20911610071578063b1b1b209146101d7578063c4d66de8146101ea578063c6b94ab0146101fd578063d7fd19dd14610210578063f2fde38b146102235761010b565b8063715018a6146101ac57806381ada46c146101b45780638456cb59146101c75780638da5cb5b146101cf5761010b565b8063461a4478116100de578063461a4478146101765780635c975abb146101895780636e296e4514610191578063706ceab6146101995761010b565b80630ecf2eea1461011057806321d800ec14610125578063299ca4781461014e5780633dbb202b14610163575b600080fd5b61012361011e366004612bef565b610236565b005b610138610133366004612bef565b6102db565b6040516101459190612eb5565b60405180910390f35b6101566102f0565b6040516101459190612e05565b610123610171366004612b73565b6102ff565b610156610184366004612c07565b61045e565b61013861053c565b610156610545565b6101236101a7366004612afc565b61058e565b610123610711565b6101236101c2366004612bef565b6107bd565b61012361085f565b6101566108cb565b6101386101e5366004612bef565b6108da565b6101236101f83660046129b3565b6108ef565b61013861020b366004612bef565b610a1d565b61012361021e3660046129cd565b610a32565b6101236102313660046129b3565b610d70565b61023e610e73565b6001600160a01b031661024f6108cb565b6001600160a01b031614610298576040805162461bcd60e51b815260206004820181905260248201526000805160206132bb833981519152604482015290519081900360640190fd5b600081815260c96020526040808220805460ff191660011790555182917ff52508d5339edf0d7e5060a416df98db067af561bdc60872d29c0439eaa13a0291a250565b60ca6020526000908152604090205460ff1681565b6000546001600160a01b031681565b600061033f6040518060400160405280601d81526020017f4f564d5f43616e6f6e6963616c5472616e73616374696f6e436861696e00000081525061045e565b90506000816001600160a01b031663b8f770056040518163ffffffff1660e01b815260040160206040518083038186803b15801561037c57600080fd5b505afa158015610390573d6000803e3d6000fd5b505050506040513d601f19601f820116820180604052508101906103b49190612cb3565b905060006103cb8633878564ffffffffff16610e77565b9050600061040a6040518060400160405280601a81526020017927ab26afa61921b937b9b9a237b6b0b4b726b2b9b9b2b733b2b960311b81525061045e565b905061041e8482848863ffffffff16610ec4565b7f0ee9ffdb2334d78de97ffb066b23a352a4d35180cefb36589d663fbb1eb6f3268260405161044d9190612f37565b60405180910390a150505050505050565b6000805460405163bf40fac160e01b81526020600482018181528551602484015285516001600160a01b039094169363bf40fac19387938392604490920191908501908083838b5b838110156104be5781810151838201526020016104a6565b50505050905090810190601f1680156104eb5780820380516001836020036101000a031916815260200191505b509250505060206040518083038186803b15801561050857600080fd5b505afa15801561051c573d6000803e3d6000fd5b505050506040513d602081101561053257600080fd5b505190505b919050565b60655460ff1690565b60cc546000906001600160a01b031661dead141561057e5760405162461bcd60e51b815260040161057590612f4a565b60405180910390fd5b5060cc546001600160a01b031690565b60006105ce6040518060400160405280601d81526020017f4f564d5f43616e6f6e6963616c5472616e73616374696f6e436861696e00000081525061045e565b90506000816001600160a01b0316632a7f18be856040518263ffffffff1660e01b81526004016105fe9190612d4e565b60606040518083038186803b15801561061657600080fd5b505afa15801561062a573d6000803e3d6000fd5b505050506040513d601f19601f8201168201806040525081019061064e9190612c55565b9050600061068d6040518060400160405280601a81526020017927ab26afa61921b937b9b9a237b6b0b4b726b2b9b9b2b733b2b960311b81525061045e565b90506000308286896040516020016106a89493929190612e56565b604051602081830303815290604052805190602001209050826000015181146106e35760405162461bcd60e51b815260040161057590613168565b60006106f18a8a8a8a610e77565b90506107058584838963ffffffff16610ec4565b50505050505050505050565b610719610e73565b6001600160a01b031661072a6108cb565b6001600160a01b031614610773576040805162461bcd60e51b815260206004820181905260248201526000805160206132bb833981519152604482015290519081900360640190fd5b6033546040516000916001600160a01b0316907f8be0079c531659141344cd1fd0a4f28419497f9722a3daafe3b4186f6b6457e0908390a3603380546001600160a01b0319169055565b6107c5610e73565b6001600160a01b03166107d66108cb565b6001600160a01b03161461081f576040805162461bcd60e51b815260206004820181905260248201526000805160206132bb833981519152604482015290519081900360640190fd5b600081815260c96020526040808220805460ff191690555182917f52c8a2680a9f4cc0ad0bf88f32096eadbebf0646ea611d93a0ce6a29a024040591a250565b610867610e73565b6001600160a01b03166108786108cb565b6001600160a01b0316146108c1576040805162461bcd60e51b815260206004820181905260248201526000805160206132bb833981519152604482015290519081900360640190fd5b6108c9610f2c565b565b6033546001600160a01b031690565b60cb6020526000908152604090205460ff1681565b600054600160a81b900460ff168061090a575061090a610fcc565b8061091f5750600054600160a01b900460ff16155b61095a5760405162461bcd60e51b815260040180806020018281038252602e815260200180613267602e913960400191505060405180910390fd5b600054600160a81b900460ff16158015610991576000805460ff60a01b1960ff60a81b19909116600160a81b1716600160a01b1790555b6000546001600160a01b0316156109ba5760405162461bcd60e51b81526004016105759061311e565b600080546001600160a01b0384166001600160a01b03199182161790915560cc805490911661dead1790556109ed610fdd565b6109f5611096565b6109fd6111a6565b610a05611268565b8015610a19576000805460ff60a81b191690555b5050565b60c96020526000908152604090205460ff1681565b60026097541415610a8a576040805162461bcd60e51b815260206004820152601f60248201527f5265656e7472616e637947756172643a207265656e7472616e742063616c6c00604482015290519081900360640190fd5b600260975560408051808201909152601481527327ab26afa61926b2b9b9b0b3b2a932b630bcb2b960611b6020820152600090610ac69061045e565b90506001600160a01b03811615610aff57336001600160a01b03821614610aff5760405162461bcd60e51b815260040161057590613081565b610b0761053c565b15610b4c576040805162461bcd60e51b815260206004820152601060248201526f14185d5cd8589b194e881c185d5cd95960821b604482015290519081900360640190fd5b6000610b5a87878787610e77565b9050610b668184611325565b1515600114610b875760405162461bcd60e51b8152600401610575906130d7565b8051602080830191909120600081815260cb90925260409091205460ff1615610bc25760405162461bcd60e51b815260040161057590612f81565b600081815260c9602052604090205460ff1615610bf15760405162461bcd60e51b81526004016105759061303f565b60cc80546001600160a01b0319166001600160a01b03898116919091179091556040516000918a1690610c25908990612d65565b6000604051808303816000865af19150503d8060008114610c62576040519150601f19603f3d011682016040523d82523d6000602084013e610c67565b606091505b505060cc80546001600160a01b03191661dead179055905080151560011415610ce057600082815260cb602052604090819020805460ff19166001179055517f4641df4a962071e12719d8c8c8e5ac7fc4d97b927346a3d7a335b1f7517e133c90610cd3908490612d4e565b60405180910390a1610d18565b7f99d0e048484baa1b1540b1367cb128acd7ab2946d1ed91ec10e3c85e4bf51b8f82604051610d0f9190612d4e565b60405180910390a15b6000833343604051602001610d2f93929190612db3565b60408051601f198184030181529181528151602092830120600090815260ca9092529020805460ff1916600190811790915560975550505050505050505050565b610d78610e73565b6001600160a01b0316610d896108cb565b6001600160a01b031614610dd2576040805162461bcd60e51b815260206004820181905260248201526000805160206132bb833981519152604482015290519081900360640190fd5b6001600160a01b038116610e175760405162461bcd60e51b81526004018080602001828103825260268152602001806132176026913960400191505060405180910390fd5b6033546040516001600160a01b038084169216907f8be0079c531659141344cd1fd0a4f28419497f9722a3daafe3b4186f6b6457e090600090a3603380546001600160a01b0319166001600160a01b0392909216919091179055565b3390565b606084848484604051602401610e909493929190612e19565b60408051601f198184030181529190526020810180516001600160e01b031663cbd4ece960e01b1790529050949350505050565b60405163037f703f60e51b81526001600160a01b03851690636fee07e090610ef490869085908790600401612e8e565b600060405180830381600087803b158015610f0e57600080fd5b505af1158015610f22573d6000803e3d6000fd5b5050505050505050565b610f3461053c565b15610f79576040805162461bcd60e51b815260206004820152601060248201526f14185d5cd8589b194e881c185d5cd95960821b604482015290519081900360640190fd5b6065805460ff191660011790557f62e78cea01bee320cd4e420270b5ea74000d11b0c9f74754ebdbfc544b05a258610faf610e73565b604080516001600160a01b039092168252519081900360200190a1565b6000610fd73061134a565b15905090565b600054600160a81b900460ff1680610ff85750610ff8610fcc565b8061100d5750600054600160a01b900460ff16155b6110485760405162461bcd60e51b815260040180806020018281038252602e815260200180613267602e913960400191505060405180910390fd5b600054600160a81b900460ff1615801561107f576000805460ff60a01b1960ff60a81b19909116600160a81b1716600160a01b1790555b8015611093576000805460ff60a81b191690555b50565b600054600160a81b900460ff16806110b157506110b1610fcc565b806110c65750600054600160a01b900460ff16155b6111015760405162461bcd60e51b815260040180806020018281038252602e815260200180613267602e913960400191505060405180910390fd5b600054600160a81b900460ff16158015611138576000805460ff60a01b1960ff60a81b19909116600160a81b1716600160a01b1790555b6000611142610e73565b603380546001600160a01b0319166001600160a01b038316908117909155604051919250906000907f8be0079c531659141344cd1fd0a4f28419497f9722a3daafe3b4186f6b6457e0908290a3508015611093576000805460ff60a81b1916905550565b600054600160a81b900460ff16806111c157506111c1610fcc565b806111d65750600054600160a01b900460ff16155b6112115760405162461bcd60e51b815260040180806020018281038252602e815260200180613267602e913960400191505060405180910390fd5b600054600160a81b900460ff16158015611248576000805460ff60a01b1960ff60a81b19909116600160a81b1716600160a01b1790555b6065805460ff191690558015611093576000805460ff60a81b1916905550565b600054600160a81b900460ff16806112835750611283610fcc565b806112985750600054600160a01b900460ff16155b6112d35760405162461bcd60e51b815260040180806020018281038252602e815260200180613267602e913960400191505060405180910390fd5b600054600160a81b900460ff1615801561130a576000805460ff60a01b1960ff60a81b19909116600160a81b1716600160a01b1790555b60016097558015611093576000805460ff60a81b1916905550565b600061133082611350565b8015611341575061134183836114ad565b90505b92915050565b3b151590565b6000806113916040518060400160405280601881526020017f4f564d5f5374617465436f6d6d69746d656e74436861696e000000000000000081525061045e565b6020840151604051639418bddd60e01b81529192506001600160a01b03831691639418bddd916113c3916004016131af565b60206040518083038186803b1580156113db57600080fd5b505afa1580156113ef573d6000803e3d6000fd5b505050506040513d601f19601f820116820180604052508101906114139190612bcf565b1580156114a65750825160208401516040808601519051634d69ee5760e01b81526001600160a01b03851693634d69ee5793611456939192909190600401612ec0565b60206040518083038186803b15801561146e57600080fd5b505afa158015611482573d6000803e3d6000fd5b505050506040513d601f19601f820116820180604052508101906114a69190612bcf565b9392505050565b600080836114ec6040518060400160405280601a81526020017927ab26afa61921b937b9b9a237b6b0b4b726b2b9b9b2b733b2b960311b81525061045e565b6040516020016114fd929190612d81565b604051602081830303815290604052805190602001206000604051602001611526929190612d57565b604051602081830303815290604052805190602001209050600080611575602160991b6040516020016115599190612d36565b60408051601f1981840301815291905260608701518751611607565b909250905060018215151461159c5760405162461bcd60e51b815260040161057590612fcc565b60006115a782611630565b90506115fc846040516020016115bd9190612d4e565b60405160208183030381529060405260016040516020016115de9190612ded565b604051602081830303815290604052886080015184604001516116c2565b979650505050505050565b600060606000611616866116e6565b9050611623818686611716565b9250925050935093915050565b611638612754565b6000611643836117e9565b9050604051806080016040528061166d8360008151811061166057fe5b60200260200101516117fc565b81526020016116828360018151811061166057fe5b81526020016116a48360028151811061169757fe5b6020026020010151611803565b81526020016116b98360038151811061169757fe5b90529392505050565b6000806116ce866116e6565b90506116dc818686866118fc565b9695505050505050565b606081805190602001206040516020016117009190612d4e565b6040516020818303038152906040529050919050565b60006060600061172585611922565b90506000806000611737848a896119f9565b8151929550909350915015808061174b5750815b61179c576040805162461bcd60e51b815260206004820152601a60248201527f50726f76696465642070726f6f6620697320696e76616c69642e000000000000604482015290519081900360640190fd5b6000816117b857604051806020016040528060008152506117d7565b6117d78660018703815181106117ca57fe5b6020026020010151611d9f565b919b919a509098505050505050505050565b60606113446117f783611dbb565b611de0565b6000611344825b600060218260000151111561185f576040805162461bcd60e51b815260206004820152601a60248201527f496e76616c696420524c5020627974657333322076616c75652e000000000000604482015290519081900360640190fd5b600080600061186d85611f56565b91945092509050600081600181111561188257fe5b146118d4576040805162461bcd60e51b815260206004820152601a60248201527f496e76616c696420524c5020627974657333322076616c75652e000000000000604482015290519081900360640190fd5b6020808601518401805190918410156116dc5760208490036101000a90049695505050505050565b600080600061190c878686611716565b915091508180156115fc57506115fc868261227f565b6060600061192f836117e9565b90506000815167ffffffffffffffff8111801561194b57600080fd5b5060405190808252806020026020018201604052801561198557816020015b61197261277b565b81526020019060019003908161196a5790505b50905060005b82518110156119f15760006119b28483815181106119a557fe5b6020026020010151612295565b905060405180604001604052808281526020016119ce836117e9565b8152508383815181106119dd57fe5b60209081029190910101525060010161198b565b509392505050565b60006060818080611a0987612324565b905085600080611a1761277b565b60005b8c51811015611d77578c8181518110611a2f57fe5b6020026020010151915082840193506001870196508360001415611aa357815180516020909101208514611a9e576040805162461bcd60e51b8152602060048201526011602482015270092dcecc2d8d2c840e4dedee840d0c2e6d607b1b604482015290519081900360640190fd5b611b6a565b815151602011611b0a57815180516020909101208514611a9e576040805162461bcd60e51b815260206004820152601b60248201527f496e76616c6964206c6172676520696e7465726e616c20686173680000000000604482015290519081900360640190fd5b84611b188360000151612421565b14611b6a576040805162461bcd60e51b815260206004820152601a60248201527f496e76616c696420696e7465726e616c206e6f64652068617368000000000000604482015290519081900360640190fd5b60208201515160111415611bd9578551841415611b8657611d77565b6000868581518110611b9457fe5b602001015160f81c60f81b60f81c9050600083602001518260ff1681518110611bb957fe5b60200260200101519050611bcc8161244d565b9650600194505050611d6f565b60028260200151511415611d22576000611bf283612483565b9050600081600081518110611c0357fe5b016020015160f81c9050600181166002036000611c238460ff84166124a1565b90506000611c318b8a6124a1565b90506000611c3f83836124ce565b905060ff851660021480611c56575060ff85166003145b15611c8857808351148015611c6b5750808251145b15611c7557988901985b50600160ff1b9950611d77945050505050565b60ff85161580611c9b575060ff85166001145b15611ceb5782518114611cbb5750600160ff1b9950611d77945050505050565b611cdc8860200151600181518110611ccf57fe5b602002602001015161244d565b9a509750611d6f945050505050565b60405162461bcd60e51b81526004018080602001828103825260268152602001806132956026913960400191505060405180910390fd5b6040805162461bcd60e51b815260206004820152601d60248201527f526563656976656420616e20756e706172736561626c65206e6f64652e000000604482015290519081900360640190fd5b600101611a1a565b50600160ff1b841486611d8a87866124a1565b909e909d50909b509950505050505050505050565b602081015180516060916113449160001981019081106119a557fe5b611dc3612795565b506040805180820190915281518152602082810190820152919050565b6060600080611dee84611f56565b91935090915060019050816001811115611e0457fe5b14611e56576040805162461bcd60e51b815260206004820152601760248201527f496e76616c696420524c50206c6973742076616c75652e000000000000000000604482015290519081900360640190fd5b6040805160208082526104208201909252600091816020015b611e77612795565b815260200190600190039081611e6f5790505090506000835b8651811015611f4b5760208210611ed85760405162461bcd60e51b815260040180806020018281038252602a81526020018061323d602a913960400191505060405180910390fd5b600080611f046040518060400160405280858c60000151038152602001858c6020015101815250611f56565b509150915060405180604001604052808383018152602001848b6020015101815250858581518110611f3257fe5b6020908102919091010152600193909301920101611e90565b508152949350505050565b600080600080846000015111611fb3576040805162461bcd60e51b815260206004820152601860248201527f524c50206974656d2063616e6e6f74206265206e756c6c2e0000000000000000604482015290519081900360640190fd5b6020840151805160001a607f8111611fd8576000600160009450945094505050612278565b60b7811161204d578551607f19820190811061203b576040805162461bcd60e51b815260206004820152601960248201527f496e76616c696420524c502073686f727420737472696e672e00000000000000604482015290519081900360640190fd5b60019550935060009250612278915050565b60bf811161213157855160b61982019081106120b0576040805162461bcd60e51b815260206004820152601f60248201527f496e76616c696420524c50206c6f6e6720737472696e67206c656e6774682e00604482015290519081900360640190fd5b6000816020036101000a600185015104905080820188600001511161211c576040805162461bcd60e51b815260206004820152601860248201527f496e76616c696420524c50206c6f6e6720737472696e672e0000000000000000604482015290519081900360640190fd5b60019091019550935060009250612278915050565b60f781116121a557855160bf198201908110612194576040805162461bcd60e51b815260206004820152601760248201527f496e76616c696420524c502073686f7274206c6973742e000000000000000000604482015290519081900360640190fd5b600195509350849250612278915050565b855160f6198201908110612200576040805162461bcd60e51b815260206004820152601d60248201527f496e76616c696420524c50206c6f6e67206c697374206c656e6774682e000000604482015290519081900360640190fd5b6000816020036101000a6001850151049050808201886000015111612265576040805162461bcd60e51b815260206004820152601660248201527524b73b30b634b210292628103637b733903634b9ba1760511b604482015290519081900360640190fd5b6001918201965094509250612278915050565b9193909250565b8051602091820120825192909101919091201490565b606060008060006122a585611f56565b9194509250905060008160018111156122ba57fe5b1461230c576040805162461bcd60e51b815260206004820152601860248201527f496e76616c696420524c502062797465732076616c75652e0000000000000000604482015290519081900360640190fd5b61231b85602001518484612534565b95945050505050565b60606000825160020267ffffffffffffffff8111801561234357600080fd5b506040519080825280601f01601f19166020018201604052801561236e576020820181803683370190505b50905060005b835181101561241a57600484828151811061238b57fe5b602001015160f81c60f81b6001600160f81b031916901c8282600202815181106123b157fe5b60200101906001600160f81b031916908160001a90535060108482815181106123d657fe5b016020015160f81c816123e557fe5b0660f81b8282600202600101815181106123fb57fe5b60200101906001600160f81b031916908160001a905350600101612374565b5092915050565b600060208251101561243857506020810151610537565b81806020019051602081101561053257600080fd5b6000606060208360000151101561246e57612467836125e2565b905061247a565b61247783612295565b90505b6114a681612421565b606061134461249c83602001516000815181106119a557fe5b612324565b6060825182106124c05750604080516020810190915260008152611344565b6113418383848651036125ed565b6000805b8084511180156124e25750808351115b801561252757508281815181106124f557fe5b602001015160f81c60f81b6001600160f81b03191684828151811061251657fe5b01602001516001600160f81b031916145b15611341576001016124d2565b606060008267ffffffffffffffff8111801561254f57600080fd5b506040519080825280601f01601f19166020018201604052801561257a576020820181803683370190505b50905080516000141561258e5790506114a6565b8484016020820160005b602086048110156125b9578251825260209283019290910190600101612598565b5080519151601f959095166020036101000a600019019182169119909416179092525092915050565b60606113448261273e565b60608182601f011015612638576040805162461bcd60e51b815260206004820152600e60248201526d736c6963655f6f766572666c6f7760901b604482015290519081900360640190fd5b828284011015612680576040805162461bcd60e51b815260206004820152600e60248201526d736c6963655f6f766572666c6f7760901b604482015290519081900360640190fd5b818301845110156126cc576040805162461bcd60e51b8152602060048201526011602482015270736c6963655f6f75744f66426f756e647360781b604482015290519081900360640190fd5b6060821580156126eb5760405191506000825260208201604052612735565b6040519150601f8416801560200281840101858101878315602002848b0101015b8183101561272457805183526020928301920161270c565b5050858452601f01601f1916604052505b50949350505050565b6060611344826020015160008460000151612534565b60408051608081018252600080825260208201819052918101829052606081019190915290565b604051806040016040528060608152602001606081525090565b604051806040016040528060008152602001600081525090565b600067ffffffffffffffff8311156127c357fe5b6127d6601f8401601f19166020016131c2565b90508281528383830111156127ea57600080fd5b828260208301376000602084830101529392505050565b80356001600160a01b038116811461053757600080fd5b600082601f830112612828578081fd5b611341838335602085016127af565b600060a08284031215612848578081fd5b60405160a0810167ffffffffffffffff828210818311171561286657fe5b816040528293508435835260208501356020840152604085013560408401526060850135606084015260808501359150808211156128a357600080fd5b506128b085828601612818565b6080830152505092915050565b6000604082840312156128ce578081fd5b6040516040810167ffffffffffffffff82821081831117156128ec57fe5b816040528293508435835260209150818501358181111561290c57600080fd5b8501601f8101871361291d57600080fd5b80358281111561292957fe5b83810292506129398484016131c2565b8181528481019083860185850187018b101561295457600080fd5b600095505b83861015612977578035835260019590950194918601918601612959565b5080868801525050505050505092915050565b803563ffffffff8116811461053757600080fd5b805164ffffffffff8116811461053757600080fd5b6000602082840312156129c4578081fd5b61134182612801565b600080600080600060a086880312156129e4578081fd5b6129ed86612801565b94506129fb60208701612801565b9350604086013567ffffffffffffffff80821115612a17578283fd5b612a2389838a01612818565b9450606088013593506080880135915080821115612a3f578283fd5b9087019060a0828a031215612a52578283fd5b612a5c60a06131c2565b82358152602083013582811115612a71578485fd5b612a7d8b828601612837565b602083015250604083013582811115612a94578485fd5b612aa08b8286016128bd565b604083015250606083013582811115612ab7578485fd5b612ac38b828601612818565b606083015250608083013582811115612ada578485fd5b612ae68b828601612818565b6080830152508093505050509295509295909350565b600080600080600060a08688031215612b13578081fd5b612b1c86612801565b9450612b2a60208701612801565b9350604086013567ffffffffffffffff811115612b45578182fd5b612b5188828901612818565b93505060608601359150612b676080870161298a565b90509295509295909350565b600080600060608486031215612b87578283fd5b612b9084612801565b9250602084013567ffffffffffffffff811115612bab578283fd5b612bb786828701612818565b925050612bc66040850161298a565b90509250925092565b600060208284031215612be0578081fd5b81518015158114611341578182fd5b600060208284031215612c00578081fd5b5035919050565b600060208284031215612c18578081fd5b813567ffffffffffffffff811115612c2e578182fd5b8201601f81018413612c3e578182fd5b612c4d848235602084016127af565b949350505050565b600060608284031215612c66578081fd5b6040516060810181811067ffffffffffffffff82111715612c8357fe5b60405282518152612c966020840161299e565b6020820152612ca76040840161299e565b60408201529392505050565b600060208284031215612cc4578081fd5b6113418261299e565b60008151808452612ce58160208601602086016131e6565b601f01601f19169290920160200192915050565b600081518352602082015160208401526040820151604084015260608201516060840152608082015160a06080850152612c4d60a0850182612ccd565b60609190911b6001600160601b031916815260140190565b90815260200190565b918252602082015260400190565b60008251612d778184602087016131e6565b9190910192915050565b60008351612d938184602088016131e6565b60609390931b6001600160601b0319169190920190815260140192915050565b60008451612dc58184602089016131e6565b60609490941b6001600160601b03191691909301908152601481019190915260340192915050565b60f89190911b6001600160f81b031916815260010190565b6001600160a01b0391909116815260200190565b6001600160a01b03858116825284166020820152608060408201819052600090612e4590830185612ccd565b905082606083015295945050505050565b6001600160a01b0385811682528416602082015263ffffffff831660408201526080606082018190526000906116dc90830184612ccd565b600060018060a01b03851682528360208301526060604083015261231b6060830184612ccd565b901515815260200190565b60008482526020606081840152612eda6060840186612cf9565b838103604085015260408101855182528286015160408484015281815180845260608501915085830194508693505b80841015612f295784518252938501936001939093019290850190612f09565b509998505050505050505050565b6000602082526113416020830184612ccd565b6020808252601f908201527f78446f6d61696e4d65737361676553656e646572206973206e6f742073657400604082015260600190565b6020808252602b908201527f50726f7669646564206d6573736167652068617320616c72656164792062656560408201526a37103932b1b2b4bb32b21760a91b606082015260800190565b6020808252604d908201527f4d6573736167652070617373696e67207072656465706c6f7920686173206e6f60408201527f74206265656e20696e697469616c697a6564206f7220696e76616c696420707260608201526c37b7b310383937bb34b232b21760991b608082015260a00190565b60208082526022908201527f50726f7669646564206d65737361676520686173206265656e20626c6f636b65604082015261321760f11b606082015260800190565b60208082526036908201527f4f6e6c79204f564d5f4c324d65737361676552656c617965722063616e2072656040820152753630bc90261916ba3796a6189036b2b9b9b0b3b2b99760511b606082015260800190565b60208082526027908201527f50726f7669646564206d65737361676520636f756c64206e6f742062652076656040820152663934b334b2b21760c91b606082015260800190565b6020808252602a908201527f4c3143726f7373446f6d61696e4d657373656e67657220616c72656164792069604082015269373a34b0b634bd32b21760b11b606082015260800190565b60208082526027908201527f50726f7669646564206d65737361676520686173206e6f74206265656e20656e60408201526638bab2bab2b21760c91b606082015260800190565b6000602082526113416020830184612cf9565b60405181810167ffffffffffffffff811182821017156131de57fe5b604052919050565b60005b838110156132015781810151838201526020016131e9565b83811115613210576000848401525b5050505056fe4f776e61626c653a206e6577206f776e657220697320746865207a65726f206164647265737350726f766964656420524c50206c6973742065786365656473206d6178206c697374206c656e6774682e496e697469616c697a61626c653a20636f6e747261637420697320616c726561647920696e697469616c697a656452656365697665642061206e6f6465207769746820616e20756e6b6e6f776e207072656669784f776e61626c653a2063616c6c6572206973206e6f7420746865206f776e6572a26469706673582212203a1cd12f46684c95bb11e17fac1702e7dc0fea4c9f70f060e2b6070b1731d33764736f6c63430007060033",
  "devdoc": {
    "details": "The L1 Cross Domain Messenger contract sends messages from L1 to L2, and relays messages from L2 onto L1. In the event that a message sent from L1 to L2 is rejected for exceeding the L2 epoch gas limit, it can be resubmitted via this contract's replay function. Compiler used: solc Runtime target: EVM",
    "kind": "dev",
    "methods": {
      "allowMessage(bytes32)": {
        "params": {
          "_xDomainCalldataHash": "Hash of the message to block."
        }
      },
      "blockMessage(bytes32)": {
        "params": {
          "_xDomainCalldataHash": "Hash of the message to block."
        }
      },
      "initialize(address)": {
        "params": {
          "_libAddressManager": "Address of the Address Manager."
        }
      },
      "owner()": {
        "details": "Returns the address of the current owner."
      },
      "paused()": {
        "details": "Returns true if the contract is paused, and false otherwise."
      },
      "relayMessage(address,address,bytes,uint256,(bytes32,(uint256,bytes32,uint256,uint256,bytes),(uint256,bytes32[]),bytes,bytes))": {
        "params": {
          "_message": "Message to send to the target.",
          "_messageNonce": "Nonce for the provided message.",
          "_proof": "Inclusion proof for the given message.",
          "_sender": "Message sender address.",
          "_target": "Target contract address."
        }
      },
      "renounceOwnership()": {
        "details": "Leaves the contract without owner. It will not be possible to call `onlyOwner` functions anymore. Can only be called by the current owner. NOTE: Renouncing ownership will leave the contract without an owner, thereby removing any functionality that is only available to the owner."
      },
      "replayMessage(address,address,bytes,uint256,uint32)": {
        "params": {
          "_gasLimit": "Gas limit for the provided message.",
          "_message": "Message to send to the target.",
          "_queueIndex": "CTC Queue index for the message to replay.",
          "_sender": "Original sender address.",
          "_target": "Target contract address."
        }
      },
      "resolve(string)": {
        "params": {
          "_name": "Name to resolve an address for."
        },
        "returns": {
          "_0": "Address associated with the given name."
        }
      },
      "sendMessage(address,bytes,uint32)": {
        "params": {
          "_gasLimit": "Gas limit for the provided message.",
          "_message": "Message to send to the target.",
          "_target": "Target contract address."
        }
      },
      "transferOwnership(address)": {
        "details": "Transfers ownership of the contract to a new account (`newOwner`). Can only be called by the current owner."
      }
    },
    "title": "OVM_L1CrossDomainMessenger",
    "version": 1
  },
  "userdoc": {
    "kind": "user",
    "methods": {
      "allowMessage(bytes32)": {
        "notice": "Allow a message."
      },
      "blockMessage(bytes32)": {
        "notice": "Block a message."
      },
      "constructor": {
        "notice": "This contract is intended to be behind a delegate proxy. We pass the zero address to the address resolver just to satisfy the constructor. We still need to set this value in initialize()."
      },
      "pause()": {
        "notice": "Pause relaying."
      },
      "relayMessage(address,address,bytes,uint256,(bytes32,(uint256,bytes32,uint256,uint256,bytes),(uint256,bytes32[]),bytes,bytes))": {
        "notice": "Relays a cross domain message to a contract."
      },
      "replayMessage(address,address,bytes,uint256,uint32)": {
        "notice": "Replays a cross domain message to the target messenger."
      },
      "resolve(string)": {
        "notice": "Resolves the address associated with a given name."
      },
      "sendMessage(address,bytes,uint32)": {
        "notice": "Sends a cross domain message to the target messenger."
      }
    },
    "version": 1
  },
  "storageLayout": {
    "storage": [
      {
        "astId": 15303,
        "contract": "contracts/optimistic-ethereum/OVM/bridge/messaging/OVM_L1CrossDomainMessenger.sol:OVM_L1CrossDomainMessenger",
        "label": "libAddressManager",
        "offset": 0,
        "slot": "0",
        "type": "t_contract(Lib_AddressManager)15296"
      },
      {
        "astId": 137,
        "contract": "contracts/optimistic-ethereum/OVM/bridge/messaging/OVM_L1CrossDomainMessenger.sol:OVM_L1CrossDomainMessenger",
        "label": "_initialized",
        "offset": 20,
        "slot": "0",
        "type": "t_bool"
      },
      {
        "astId": 140,
        "contract": "contracts/optimistic-ethereum/OVM/bridge/messaging/OVM_L1CrossDomainMessenger.sol:OVM_L1CrossDomainMessenger",
        "label": "_initializing",
        "offset": 21,
        "slot": "0",
        "type": "t_bool"
      },
      {
        "astId": 484,
        "contract": "contracts/optimistic-ethereum/OVM/bridge/messaging/OVM_L1CrossDomainMessenger.sol:OVM_L1CrossDomainMessenger",
        "label": "__gap",
        "offset": 0,
        "slot": "1",
        "type": "t_array(t_uint256)50_storage"
      },
      {
        "astId": 10,
        "contract": "contracts/optimistic-ethereum/OVM/bridge/messaging/OVM_L1CrossDomainMessenger.sol:OVM_L1CrossDomainMessenger",
        "label": "_owner",
        "offset": 0,
        "slot": "51",
        "type": "t_address"
      },
      {
        "astId": 129,
        "contract": "contracts/optimistic-ethereum/OVM/bridge/messaging/OVM_L1CrossDomainMessenger.sol:OVM_L1CrossDomainMessenger",
        "label": "__gap",
        "offset": 0,
        "slot": "52",
        "type": "t_array(t_uint256)49_storage"
      },
      {
        "astId": 506,
        "contract": "contracts/optimistic-ethereum/OVM/bridge/messaging/OVM_L1CrossDomainMessenger.sol:OVM_L1CrossDomainMessenger",
        "label": "_paused",
        "offset": 0,
        "slot": "101",
        "type": "t_bool"
      },
      {
        "astId": 597,
        "contract": "contracts/optimistic-ethereum/OVM/bridge/messaging/OVM_L1CrossDomainMessenger.sol:OVM_L1CrossDomainMessenger",
        "label": "__gap",
        "offset": 0,
        "slot": "102",
        "type": "t_array(t_uint256)49_storage"
      },
      {
        "astId": 612,
        "contract": "contracts/optimistic-ethereum/OVM/bridge/messaging/OVM_L1CrossDomainMessenger.sol:OVM_L1CrossDomainMessenger",
        "label": "_status",
        "offset": 0,
        "slot": "151",
        "type": "t_uint256"
      },
      {
        "astId": 655,
        "contract": "contracts/optimistic-ethereum/OVM/bridge/messaging/OVM_L1CrossDomainMessenger.sol:OVM_L1CrossDomainMessenger",
        "label": "__gap",
        "offset": 0,
        "slot": "152",
        "type": "t_array(t_uint256)49_storage"
      },
      {
        "astId": 2756,
        "contract": "contracts/optimistic-ethereum/OVM/bridge/messaging/OVM_L1CrossDomainMessenger.sol:OVM_L1CrossDomainMessenger",
        "label": "blockedMessages",
        "offset": 0,
        "slot": "201",
        "type": "t_mapping(t_bytes32,t_bool)"
      },
      {
        "astId": 2760,
        "contract": "contracts/optimistic-ethereum/OVM/bridge/messaging/OVM_L1CrossDomainMessenger.sol:OVM_L1CrossDomainMessenger",
        "label": "relayedMessages",
        "offset": 0,
        "slot": "202",
        "type": "t_mapping(t_bytes32,t_bool)"
      },
      {
        "astId": 2764,
        "contract": "contracts/optimistic-ethereum/OVM/bridge/messaging/OVM_L1CrossDomainMessenger.sol:OVM_L1CrossDomainMessenger",
        "label": "successfulMessages",
        "offset": 0,
        "slot": "203",
        "type": "t_mapping(t_bytes32,t_bool)"
      },
      {
        "astId": 2767,
        "contract": "contracts/optimistic-ethereum/OVM/bridge/messaging/OVM_L1CrossDomainMessenger.sol:OVM_L1CrossDomainMessenger",
        "label": "xDomainMsgSender",
        "offset": 0,
        "slot": "204",
        "type": "t_address"
      }
    ],
    "types": {
      "t_address": {
        "encoding": "inplace",
        "label": "address",
        "numberOfBytes": "20"
      },
      "t_array(t_uint256)49_storage": {
        "base": "t_uint256",
        "encoding": "inplace",
        "label": "uint256[49]",
        "numberOfBytes": "1568"
      },
      "t_array(t_uint256)50_storage": {
        "base": "t_uint256",
        "encoding": "inplace",
        "label": "uint256[50]",
        "numberOfBytes": "1600"
      },
      "t_bool": {
        "encoding": "inplace",
        "label": "bool",
        "numberOfBytes": "1"
      },
      "t_bytes32": {
        "encoding": "inplace",
        "label": "bytes32",
        "numberOfBytes": "32"
      },
      "t_contract(Lib_AddressManager)15296": {
        "encoding": "inplace",
        "label": "contract Lib_AddressManager",
        "numberOfBytes": "20"
      },
      "t_mapping(t_bytes32,t_bool)": {
        "encoding": "mapping",
        "key": "t_bytes32",
        "label": "mapping(bytes32 => bool)",
        "numberOfBytes": "32",
        "value": "t_bool"
      },
      "t_uint256": {
        "encoding": "inplace",
        "label": "uint256",
        "numberOfBytes": "32"
      }
    }
  }
}