{
  "address": "0x22F24361D548e5FaAfb36d1437839f080363982B",
  "abi": [
    {
      "inputs": [
        {
          "internalType": "address",
          "name": "_owner",
          "type": "address"
        }
      ],
      "stateMutability": "nonpayable",
      "type": "constructor"
    },
    {
      "stateMutability": "payable",
      "type": "fallback"
    },
    {
      "inputs": [],
      "name": "getImplementation",
      "outputs": [
        {
          "internalType": "address",
          "name": "",
          "type": "address"
        }
      ],
      "stateMutability": "nonpayable",
      "type": "function"
    },
    {
      "inputs": [],
      "name": "getOwner",
      "outputs": [
        {
          "internalType": "address",
          "name": "",
          "type": "address"
        }
      ],
      "stateMutability": "nonpayable",
      "type": "function"
    },
    {
      "inputs": [
        {
          "internalType": "bytes",
          "name": "_code",
          "type": "bytes"
        }
      ],
      "name": "setCode",
      "outputs": [],
      "stateMutability": "nonpayable",
      "type": "function"
    },
    {
      "inputs": [
        {
          "internalType": "address",
          "name": "_owner",
          "type": "address"
        }
      ],
      "name": "setOwner",
      "outputs": [],
      "stateMutability": "nonpayable",
      "type": "function"
    },
    {
      "inputs": [
        {
          "internalType": "bytes32",
          "name": "_key",
          "type": "bytes32"
        },
        {
          "internalType": "bytes32",
          "name": "_value",
          "type": "bytes32"
        }
      ],
      "name": "setStorage",
      "outputs": [],
      "stateMutability": "nonpayable",
      "type": "function"
    }
  ],
  "transactionHash": "0xbc755a0fb1b6966919cd926d8f497002a6538daaaac16ab117f41cdd5ef315d4",
  "args": [
    "0x18394B52d3Cb931dfA76F63251919D051953413d"
  ],
  "solcInputHash": "7531d7762a77038a37e7490a7b4b176f",
  "bytecode": "0x608060405234801561001057600080fd5b506040516107983803806107988339818101604052602081101561003357600080fd5b505161003e81610044565b50610068565b7fb53127684a568b3173ae13b9f8a6016e243e63b6e8ee1178d6a717850b5d610355565b610721806100776000396000f3fe60806040526004361061004a5760003560e01c806313af4035146100545780636c5d4ad014610087578063893d20e81461013a5780639b0b0fda1461016b578063aaf10f421461019b575b6100526101b0565b005b34801561006057600080fd5b506100526004803603602081101561007757600080fd5b50356001600160a01b031661036c565b34801561009357600080fd5b50610052600480360360208110156100aa57600080fd5b8101906020810181356401000000008111156100c557600080fd5b8201836020820111156100d757600080fd5b803590602001918460018302840111640100000000831117156100f957600080fd5b91908080601f0160208091040260200160405190810160405280939291908181526020018383808284376000920191909152509295506103af945050505050565b34801561014657600080fd5b5061014f610505565b604080516001600160a01b039092168252519081900360200190f35b34801561017757600080fd5b506100526004803603604081101561018e57600080fd5b508035906020013561054b565b3480156101a757600080fd5b5061014f610589565b60006101ba6105bd565b60408051600481526024810182526020810180516001600160e01b0316635bca393160e11b1781529151815193945060009384936001600160a01b0387169392918291908083835b602083106102215780518252601f199092019160209182019101610202565b6001836020036101000a038019825116818451168082178552505050505050905001915050600060405180830381855afa9150503d8060008114610281576040519150601f19603f3d011682016040523d82523d6000602084013e610286565b606091505b5091509150818015610299575080516020145b156102f85760008180602001905160208110156102b557600080fd5b5051905080156102f65760405162461bcd60e51b81526004018080602001828103825260358152602001806106b76035913960400191505060405180910390fd5b505b60006103026105e2565b90506001600160a01b0381166103495760405162461bcd60e51b81526004018080602001828103825260308152602001806106546030913960400191505060405180910390fd5b3660008037600080366000845af43d6000803e80610366573d6000fd5b503d6000f35b6103746105bd565b6001600160a01b0316336001600160a01b03161480610391575033155b156103a45761039f81610607565b6103ac565b6103ac6101b0565b50565b6103b76105bd565b6001600160a01b0316336001600160a01b031614806103d4575033155b156103a45760006103e36105e2565b90506103ee8161062b565b825160208401201415610401575061039f565b60006c600d380380600d6000396000f360981b83604051602001808372ffffffffffffffffffffffffffffffffffffff19168152600d0182805190602001908083835b602083106104635780518252601f199092019160209182019101610444565b6001836020036101000a03801982511681845116808217855250505050505090500192505050604051602081830303815290604052905060008151602083016000f0905083805190602001206104b88261062b565b146104f45760405162461bcd60e51b81526004018080602001828103825260338152602001806106846033913960400191505060405180910390fd5b6104fd8161062f565b5050506103ac565b600061050f6105bd565b6001600160a01b0316336001600160a01b0316148061052c575033155b15610540576105396105bd565b9050610548565b6105486101b0565b90565b6105536105bd565b6001600160a01b0316336001600160a01b03161480610570575033155b1561057d57808255610585565b6105856101b0565b5050565b60006105936105bd565b6001600160a01b0316336001600160a01b031614806105b0575033155b15610540576105396105e2565b7fb53127684a568b3173ae13b9f8a6016e243e63b6e8ee1178d6a717850b5d61035490565b7f360894a13ba1a3210667c828492db98dca3e2076cc3735a920a3ca505d382bbc5490565b7fb53127684a568b3173ae13b9f8a6016e243e63b6e8ee1178d6a717850b5d610355565b3f90565b7f360894a13ba1a3210667c828492db98dca3e2076cc3735a920a3ca505d382bbc5556fe4c314368756753706c61736850726f78793a20696d706c656d656e746174696f6e206973206e6f7420736574207965744c314368756753706c61736850726f78793a20636f646520776173206e6f7420636f72726563746c79206465706c6f7965642e4c314368756753706c61736850726f78793a2073797374656d2069732063757272656e746c79206265696e67207570677261646564a26469706673582212202e20c1d0062b5a698d49624edce72a713b117e88f4cd70877869b53519c1d1f964736f6c63430007060033",
  "devdoc": {
    "details": "Basic ChugSplash proxy contract for L1. Very close to being a normal proxy but has added functions `setCode` and `setStorage` for changing the code or storage of the contract. Nifty! Note for future developers: do NOT make anything in this contract 'public' unless you know what you're doing. Anything public can potentially have a function signature that conflicts with a signature attached to the implementation contract. Public functions SHOULD always have the 'proxyCallIfNotOwner' modifier unless there's some *really* good reason not to have that modifier. And there almost certainly is not a good reason to not have that modifier. Beware!",
    "kind": "dev",
    "methods": {
      "constructor": {
        "params": {
          "_owner": "Address of the initial contract owner."
        }
      },
      "getImplementation()": {
        "returns": {
          "_0": "Implementation address."
        }
      },
      "getOwner()": {
        "returns": {
          "_0": "Owner address."
        }
      },
      "setCode(bytes)": {
        "params": {
          "_code": "New contract code to run inside this contract."
        }
      },
      "setOwner(address)": {
        "params": {
          "_owner": "New owner of the proxy contract."
        }
      },
      "setStorage(bytes32,bytes32)": {
        "params": {
          "_key": "Storage key to modify.",
          "_value": "New value for the storage key."
        }
      }
    },
    "title": "L1ChugSplashProxy",
    "version": 1
  },
  "userdoc": {
    "kind": "user",
    "methods": {
      "getImplementation()": {
        "notice": "Queries the implementation address. Can only be called by the owner OR by making an eth_call and setting the \"from\" address to address(0)."
      },
      "getOwner()": {
        "notice": "Queries the owner of the proxy contract. Can only be called by the owner OR by making an eth_call and setting the \"from\" address to address(0)."
      },
      "setCode(bytes)": {
        "notice": "Sets the code that should be running behind this proxy. Note that this scheme is a bit different from the standard proxy scheme where one would typically deploy the code separately and then set the implementation address. We're doing it this way because it gives us a lot more freedom on the client side. Can only be triggered by the contract owner."
      },
      "setOwner(address)": {
        "notice": "Changes the owner of the proxy contract. Only callable by the owner."
      },
      "setStorage(bytes32,bytes32)": {
        "notice": "Modifies some storage slot within the proxy contract. Gives us a lot of power to perform upgrades in a more transparent way. Only callable by the owner."
      }
    },
    "version": 1
  },
  "storageLayout": {
    "storage": [],
    "types": null
  }
}