{
  "abi": [
    {
      "inputs": [
        {
          "internalType": "address",
          "name": "_owner",
          "type": "address"
        }
      ],
      "stateMutability": "nonpayable",
      "type": "constructor"
    },
    {
      "anonymous": false,
      "inputs": [
        {
          "indexed": true,
          "internalType": "string",
          "name": "nameref",
          "type": "string"
        },
        {
          "indexed": false,
          "internalType": "string",
          "name": "name",
          "type": "string"
        },
        {
          "components": [
            {
              "internalType": "bool",
              "name": "reentrant",
              "type": "bool"
            },
            {
              "internalType": "uint256",
              "name": "interval",
              "type": "uint256"
            },
            {
              "internalType": "contract IDripCheck",
              "name": "dripcheck",
              "type": "address"
            },
            {
              "internalType": "bytes",
              "name": "checkparams",
              "type": "bytes"
            },
            {
              "components": [
                {
                  "internalType": "address payable",
                  "name": "target",
                  "type": "address"
                },
                {
                  "internalType": "bytes",
                  "name": "data",
                  "type": "bytes"
                },
                {
                  "internalType": "uint256",
                  "name": "value",
                  "type": "uint256"
                }
              ],
              "internalType": "struct Drippie.DripAction[]",
              "name": "actions",
              "type": "tuple[]"
            }
          ],
          "indexed": false,
          "internalType": "struct Drippie.DripConfig",
          "name": "config",
          "type": "tuple"
        }
      ],
      "name": "DripCreated",
      "type": "event"
    },
    {
      "anonymous": false,
      "inputs": [
        {
          "indexed": true,
          "internalType": "string",
          "name": "nameref",
          "type": "string"
        },
        {
          "indexed": false,
          "internalType": "string",
          "name": "name",
          "type": "string"
        },
        {
          "indexed": false,
          "internalType": "address",
          "name": "executor",
          "type": "address"
        },
        {
          "indexed": false,
          "internalType": "uint256",
          "name": "timestamp",
          "type": "uint256"
        }
      ],
      "name": "DripExecuted",
      "type": "event"
    },
    {
      "anonymous": false,
      "inputs": [
        {
          "indexed": true,
          "internalType": "string",
          "name": "nameref",
          "type": "string"
        },
        {
          "indexed": false,
          "internalType": "string",
          "name": "name",
          "type": "string"
        },
        {
          "indexed": false,
          "internalType": "enum Drippie.DripStatus",
          "name": "status",
          "type": "uint8"
        }
      ],
      "name": "DripStatusUpdated",
      "type": "event"
    },
    {
      "anonymous": false,
      "inputs": [
        {
          "indexed": true,
          "internalType": "address",
          "name": "user",
          "type": "address"
        },
        {
          "indexed": true,
          "internalType": "address",
          "name": "newOwner",
          "type": "address"
        }
      ],
      "name": "OwnerUpdated",
      "type": "event"
    },
    {
      "anonymous": false,
      "inputs": [
        {
          "indexed": true,
          "internalType": "address",
          "name": "from",
          "type": "address"
        },
        {
          "indexed": false,
          "internalType": "uint256",
          "name": "amount",
          "type": "uint256"
        }
      ],
      "name": "ReceivedETH",
      "type": "event"
    },
    {
      "anonymous": false,
      "inputs": [
        {
          "indexed": true,
          "internalType": "address",
          "name": "withdrawer",
          "type": "address"
        },
        {
          "indexed": true,
          "internalType": "address",
          "name": "recipient",
          "type": "address"
        },
        {
          "indexed": true,
          "internalType": "address",
          "name": "asset",
          "type": "address"
        },
        {
          "indexed": false,
          "internalType": "uint256",
          "name": "amount",
          "type": "uint256"
        }
      ],
      "name": "WithdrewERC20",
      "type": "event"
    },
    {
      "anonymous": false,
      "inputs": [
        {
          "indexed": true,
          "internalType": "address",
          "name": "withdrawer",
          "type": "address"
        },
        {
          "indexed": true,
          "internalType": "address",
          "name": "recipient",
          "type": "address"
        },
        {
          "indexed": true,
          "internalType": "address",
          "name": "asset",
          "type": "address"
        },
        {
          "indexed": false,
          "internalType": "uint256",
          "name": "id",
          "type": "uint256"
        }
      ],
      "name": "WithdrewERC721",
      "type": "event"
    },
    {
      "anonymous": false,
      "inputs": [
        {
          "indexed": true,
          "internalType": "address",
          "name": "withdrawer",
          "type": "address"
        },
        {
          "indexed": true,
          "internalType": "address",
          "name": "recipient",
          "type": "address"
        },
        {
          "indexed": false,
          "internalType": "uint256",
          "name": "amount",
          "type": "uint256"
        }
      ],
      "name": "WithdrewETH",
      "type": "event"
    },
    {
      "inputs": [
        {
          "internalType": "address",
          "name": "_target",
          "type": "address"
        },
        {
          "internalType": "bytes",
          "name": "_data",
          "type": "bytes"
        },
        {
          "internalType": "uint256",
          "name": "_value",
          "type": "uint256"
        }
      ],
      "name": "CALL",
      "outputs": [
        {
          "internalType": "bool",
          "name": "",
          "type": "bool"
        },
        {
          "internalType": "bytes",
          "name": "",
          "type": "bytes"
        }
      ],
      "stateMutability": "payable",
      "type": "function"
    },
    {
      "inputs": [
        {
          "internalType": "address",
          "name": "_target",
          "type": "address"
        },
        {
          "internalType": "bytes",
          "name": "_data",
          "type": "bytes"
        }
      ],
      "name": "DELEGATECALL",
      "outputs": [
        {
          "internalType": "bool",
          "name": "",
          "type": "bool"
        },
        {
          "internalType": "bytes",
          "name": "",
          "type": "bytes"
        }
      ],
      "stateMutability": "payable",
      "type": "function"
    },
    {
      "inputs": [
        {
          "internalType": "string",
          "name": "_name",
          "type": "string"
        },
        {
          "components": [
            {
              "internalType": "bool",
              "name": "reentrant",
              "type": "bool"
            },
            {
              "internalType": "uint256",
              "name": "interval",
              "type": "uint256"
            },
            {
              "internalType": "contract IDripCheck",
              "name": "dripcheck",
              "type": "address"
            },
            {
              "internalType": "bytes",
              "name": "checkparams",
              "type": "bytes"
            },
            {
              "components": [
                {
                  "internalType": "address payable",
                  "name": "target",
                  "type": "address"
                },
                {
                  "internalType": "bytes",
                  "name": "data",
                  "type": "bytes"
                },
                {
                  "internalType": "uint256",
                  "name": "value",
                  "type": "uint256"
                }
              ],
              "internalType": "struct Drippie.DripAction[]",
              "name": "actions",
              "type": "tuple[]"
            }
          ],
          "internalType": "struct Drippie.DripConfig",
          "name": "_config",
          "type": "tuple"
        }
      ],
      "name": "create",
      "outputs": [],
      "stateMutability": "nonpayable",
      "type": "function"
    },
    {
      "inputs": [
        {
          "internalType": "string",
          "name": "_name",
          "type": "string"
        }
      ],
      "name": "drip",
      "outputs": [],
      "stateMutability": "nonpayable",
      "type": "function"
    },
    {
      "inputs": [
        {
          "internalType": "string",
          "name": "",
          "type": "string"
        }
      ],
      "name": "drips",
      "outputs": [
        {
          "internalType": "enum Drippie.DripStatus",
          "name": "status",
          "type": "uint8"
        },
        {
          "components": [
            {
              "internalType": "bool",
              "name": "reentrant",
              "type": "bool"
            },
            {
              "internalType": "uint256",
              "name": "interval",
              "type": "uint256"
            },
            {
              "internalType": "contract IDripCheck",
              "name": "dripcheck",
              "type": "address"
            },
            {
              "internalType": "bytes",
              "name": "checkparams",
              "type": "bytes"
            },
            {
              "components": [
                {
                  "internalType": "address payable",
                  "name": "target",
                  "type": "address"
                },
                {
                  "internalType": "bytes",
                  "name": "data",
                  "type": "bytes"
                },
                {
                  "internalType": "uint256",
                  "name": "value",
                  "type": "uint256"
                }
              ],
              "internalType": "struct Drippie.DripAction[]",
              "name": "actions",
              "type": "tuple[]"
            }
          ],
          "internalType": "struct Drippie.DripConfig",
          "name": "config",
          "type": "tuple"
        },
        {
          "internalType": "uint256",
          "name": "last",
          "type": "uint256"
        },
        {
          "internalType": "uint256",
          "name": "count",
          "type": "uint256"
        }
      ],
      "stateMutability": "view",
      "type": "function"
    },
    {
      "inputs": [
        {
          "internalType": "string",
          "name": "_name",
          "type": "string"
        }
      ],
      "name": "executable",
      "outputs": [
        {
          "internalType": "bool",
          "name": "",
          "type": "bool"
        }
      ],
      "stateMutability": "view",
      "type": "function"
    },
    {
      "inputs": [],
      "name": "owner",
      "outputs": [
        {
          "internalType": "address",
          "name": "",
          "type": "address"
        }
      ],
      "stateMutability": "view",
      "type": "function"
    },
    {
      "inputs": [
        {
          "internalType": "address",
          "name": "newOwner",
          "type": "address"
        }
      ],
      "name": "setOwner",
      "outputs": [],
      "stateMutability": "nonpayable",
      "type": "function"
    },
    {
      "inputs": [
        {
          "internalType": "string",
          "name": "_name",
          "type": "string"
        },
        {
          "internalType": "enum Drippie.DripStatus",
          "name": "_status",
          "type": "uint8"
        }
      ],
      "name": "status",
      "outputs": [],
      "stateMutability": "nonpayable",
      "type": "function"
    },
    {
      "inputs": [
        {
          "internalType": "contract ERC20",
          "name": "_asset",
          "type": "address"
        },
        {
          "internalType": "address",
          "name": "_to",
          "type": "address"
        },
        {
          "internalType": "uint256",
          "name": "_amount",
          "type": "uint256"
        }
      ],
      "name": "withdrawERC20",
      "outputs": [],
      "stateMutability": "nonpayable",
      "type": "function"
    },
    {
      "inputs": [
        {
          "internalType": "contract ERC20",
          "name": "_asset",
          "type": "address"
        },
        {
          "internalType": "address",
          "name": "_to",
          "type": "address"
        }
      ],
      "name": "withdrawERC20",
      "outputs": [],
      "stateMutability": "nonpayable",
      "type": "function"
    },
    {
      "inputs": [
        {
          "internalType": "contract ERC721",
          "name": "_asset",
          "type": "address"
        },
        {
          "internalType": "address",
          "name": "_to",
          "type": "address"
        },
        {
          "internalType": "uint256",
          "name": "_id",
          "type": "uint256"
        }
      ],
      "name": "withdrawERC721",
      "outputs": [],
      "stateMutability": "nonpayable",
      "type": "function"
    },
    {
      "inputs": [
        {
          "internalType": "address payable",
          "name": "_to",
          "type": "address"
        },
        {
          "internalType": "uint256",
          "name": "_amount",
          "type": "uint256"
        }
      ],
      "name": "withdrawETH",
      "outputs": [],
      "stateMutability": "nonpayable",
      "type": "function"
    },
    {
      "inputs": [
        {
          "internalType": "address payable",
          "name": "_to",
          "type": "address"
        }
      ],
      "name": "withdrawETH",
      "outputs": [],
      "stateMutability": "nonpayable",
      "type": "function"
    },
    {
      "stateMutability": "payable",
      "type": "receive"
    }
  ],
  "bytecode": {
    "object": "0x608060405234801561001057600080fd5b506040516200232c3803806200232c83398101604081905261003191610088565b600080546001600160a01b0319166001600160a01b03831690811782556040518392839283929091907f8292fce18fa69edf4db7b94ea2e58241df0ae57f97e0a6c9b29067028bf92d76908290a3505050506100b8565b60006020828403121561009a57600080fd5b81516001600160a01b03811681146100b157600080fd5b9392505050565b61226480620000c86000396000f3fe6080604052600436106100e15760003560e01c80636e2d44ae1161007f5780639bc94d01116100595780639bc94d0114610296578063e551cdaa146102b6578063edee6239146102d6578063fc3e3eba146102e957600080fd5b80636e2d44ae1461021d5780638da5cb5b1461023e5780639456fbcc1461027657600080fd5b80634782f779116100bb5780634782f779146101845780634d7fba6e146101a457806367148cd2146101dd578063690d8320146101fd57600080fd5b806313af4035146101225780634025feb21461014457806344004cc11461016457600080fd5b3661011d5760405134815233907f4103257eaac983ca79a70d28f90dfc4fa16b619bb0c17ee7cab0d4034c2796249060200160405180910390a2005b600080fd5b34801561012e57600080fd5b5061014261013d3660046115be565b610319565b005b34801561015057600080fd5b5061014261015f3660046115e2565b610397565b34801561017057600080fd5b5061014261017f3660046115e2565b610485565b34801561019057600080fd5b5061014261019f366004611623565b610572565b3480156101b057600080fd5b506101c46101bf3660046116da565b610644565b6040516101d494939291906117b2565b60405180910390f35b3480156101e957600080fd5b506101426101f83660046118df565b61085c565b34801561020957600080fd5b506101426102183660046115be565b610a47565b61023061022b366004611940565b610a7e565b6040516101d4929190611998565b34801561024a57600080fd5b5060005461025e906001600160a01b031681565b6040516001600160a01b0390911681526020016101d4565b34801561028257600080fd5b506101426102913660046119b3565b610b14565b3480156102a257600080fd5b506101426102b13660046119ec565b610bb2565b3480156102c257600080fd5b506101426102d1366004611a46565b610f90565b6102306102e4366004611aaa565b6112e3565b3480156102f557600080fd5b506103096103043660046118df565b611376565b60405190151581526020016101d4565b6000546001600160a01b0316331461034c5760405162461bcd60e51b815260040161034390611af9565b60405180910390fd5b600080546001600160a01b0319166001600160a01b0383169081178255604051909133917f8292fce18fa69edf4db7b94ea2e58241df0ae57f97e0a6c9b29067028bf92d769190a350565b6000546001600160a01b031633146103c15760405162461bcd60e51b815260040161034390611af9565b6040516323b872dd60e01b81523060048201526001600160a01b038381166024830152604482018390528416906323b872dd90606401600060405180830381600087803b15801561041157600080fd5b505af1158015610425573d6000803e3d6000fd5b50505050826001600160a01b0316826001600160a01b0316336001600160a01b03167f30b478a5e196e55886228aa87ba74a7dfeba655e0a4d7ba275eabfc22aabb7a88460405161047891815260200190565b60405180910390a4505050565b6000546001600160a01b031633146104af5760405162461bcd60e51b815260040161034390611af9565b60405163a9059cbb60e01b81526001600160a01b0383811660048301526024820183905284169063a9059cbb906044016020604051808303816000875af11580156104fe573d6000803e3d6000fd5b505050506040513d601f19601f820116820180604052508101906105229190611b2d565b50826001600160a01b0316826001600160a01b0316336001600160a01b03167f6b00f1c7883f053ba83e907fd1965b22fffe3c4111383e725f04638a566cdbfa8460405161047891815260200190565b6000546001600160a01b0316331461059c5760405162461bcd60e51b815260040161034390611af9565b6000826001600160a01b03168260405160006040518083038185875af1925050503d80600081146105e9576040519150601f19603f3d011682016040523d82523d6000602084013e6105ee565b606091505b50509050826001600160a01b0316336001600160a01b03167f1f12aa8b6d492dd9b98e2b00b0b20830c2a7ded65afac13b60d169a034ae90bc8460405161063791815260200190565b60405180910390a3505050565b805160208183018101805160018083529383019483019490942093905282546040805160a081018252938501805460ff9081161515865260028701549486019490945260038601546001600160a01b03169185019190915260048501805493909216949392909160608401916106b990611b4a565b80601f01602080910402602001604051908101604052809291908181526020018280546106e590611b4a565b80156107325780601f1061070757610100808354040283529160200191610732565b820191906000526020600020905b81548152906001019060200180831161071557829003601f168201915b5050505050815260200160048201805480602002602001604051908101604052809291908181526020016000905b8282101561084457600084815260209081902060408051606081019091526003850290910180546001600160a01b0316825260018101805492939192918401916107a990611b4a565b80601f01602080910402602001604051908101604052809291908181526020018280546107d590611b4a565b80156108225780601f106107f757610100808354040283529160200191610822565b820191906000526020600020905b81548152906001019060200180831161080557829003601f168201915b5050505050815260200160028201548152505081526020019060010190610760565b50505091525050600682015460079092015490919084565b600060018383604051610870929190611b84565b9081526020016040518091039020905061088a8383611376565b504260068201556007810180549060006108a383611baa565b9091555050600581015460005b818110156109eb5760008360010160040182815481106108d2576108d2611bc3565b600091825260208220600390910201805460028201546040519294506001600160a01b0390911691610908906001860190611bd9565b60006040518083038185875af1925050503d8060008114610945576040519150601f19603f3d011682016040523d82523d6000602084013e61094a565b606091505b50509050806109d65760405162461bcd60e51b815260206004820152604c60248201527f447269707069653a20647269702077617320756e7375636365737366756c2c2060448201527f706c6561736520636865636b20796f757220636f6e66696775726174696f6e2060648201526b666f72206d697374616b657360a01b608482015260a401610343565b505080806109e390611baa565b9150506108b0565b5083836040516109fc929190611b84565b60405180910390207fea21435419aad9c54a9d90e2522b6f60bd566401f36fcef661f5f5a28cc0d2c685853342604051610a399493929190611c78565b60405180910390a250505050565b6000546001600160a01b03163314610a715760405162461bcd60e51b815260040161034390611af9565b610a7b8147610572565b50565b600080546060906001600160a01b03163314610aac5760405162461bcd60e51b815260040161034390611af9565b846001600160a01b03168385604051610ac59190611ca8565b60006040518083038185875af1925050503d8060008114610b02576040519150601f19603f3d011682016040523d82523d6000602084013e610b07565b606091505b5091509150935093915050565b6000546001600160a01b03163314610b3e5760405162461bcd60e51b815260040161034390611af9565b6040516370a0823160e01b8152306004820152610bae90839083906001600160a01b038316906370a0823190602401602060405180830381865afa158015610b8a573d6000803e3d6000fd5b505050506040513d601f19601f8201168201806040525081019061017f9190611cc4565b5050565b6000546001600160a01b03163314610bdc5760405162461bcd60e51b815260040161034390611af9565b6000816003811115610bf057610bf061172a565b03610c6d5760405162461bcd60e51b815260206004820152604160248201527f447269707069653a2064726970207374617475732063616e206e65766572206260448201527f6520736574206261636b20746f204e4f4e45206166746572206372656174696f6064820152603760f91b608482015260a401610343565b600060018484604051610c81929190611b84565b9081526040519081900360200190205460ff1690506000816003811115610caa57610caa61172a565b03610d275760405162461bcd60e51b815260206004820152604160248201527f447269707069653a206472697020776974682074686174206e616d6520646f6560448201527f73206e6f7420657869737420616e642063616e6e6f74206265207570646174656064820152601960fa1b608482015260a401610343565b6003816003811115610d3b57610d3b61172a565b03610dbc5760405162461bcd60e51b8152602060048201526044602482018190527f447269707069653a206472697020776974682074686174206e616d6520686173908201527f206265656e20617263686976656420616e642063616e6e6f7420626520757064606482015263185d195960e21b608482015260a401610343565b816003811115610dce57610dce61172a565b816003811115610de057610de061172a565b03610e645760405162461bcd60e51b815260206004820152604860248201527f447269707069653a2063616e6e6f74207365742064726970207374617475732060448201527f746f207468652073616d6520737461747573206173206974732063757272656e606482015267742073746174757360c01b608482015260a401610343565b6003826003811115610e7857610e7861172a565b03610f04576001816003811115610e9157610e9161172a565b14610f045760405162461bcd60e51b815260206004820152603860248201527f447269707069653a2064726970206d757374206669727374206265207061757360448201527f6564206265666f7265206265696e6720617263686976656400000000000000006064820152608401610343565b8160018585604051610f17929190611b84565b908152604051908190036020019020805460ff19166001836003811115610f4057610f4061172a565b02179055508383604051610f55929190611b84565b60405180910390207f407cb3ad05e60ec498fb39417c7a4f6b82d5ba80f82fe512a37b02c93181a2a1858585604051610a3993929190611cdd565b6000546001600160a01b03163314610fba5760405162461bcd60e51b815260040161034390611af9565b600060018484604051610fce929190611b84565b9081526040519081900360200190205460ff166003811115610ff257610ff261172a565b146110535760405162461bcd60e51b815260206004820152602b60248201527f447269707069653a206472697020776974682074686174206e616d6520616c7260448201526a656164792065786973747360a81b6064820152608401610343565b6110606020820182611d00565b156110e2576020810135156110dd5760405162461bcd60e51b815260206004820152603e60248201527f447269707069653a20696620616c6c6f77696e67207265656e7472616e74206460448201527f7269702c206d7573742073657420696e74657276616c20746f207a65726f00006064820152608401610343565b61116a565b600081602001351161116a5760405162461bcd60e51b8152602060048201526044602482018190527f447269707069653a20696e74657276616c206d75737420626520677265617465908201527f72207468616e207a65726f2069662064726970206973206e6f74207265656e746064820152631c985b9d60e21b608482015260a401610343565b60006001848460405161117e929190611b84565b90815260405160209181900382019020805460ff1916600117815591506111a790830183611d00565b60018201805460ff1916911515919091179055602082013560028201556111d460608301604084016115be565b6003820180546001600160a01b0319166001600160a01b03929092169190911790556112036060830183611d1d565b6004830191611213919083611db2565b5060005b6112246080840184611e72565b9050811015611297576005820161123e6080850185611e72565b8381811061124e5761124e611bc3565b90506020028101906112609190611ebb565b8154600181018355600092835260209092209091600302016112828282611ed1565b5050808061128f90611baa565b915050611217565b5083836040516112a8929190611b84565b60405180910390207fe38d8d98e6cc66f6f520d483c6c5a89289681f897799c4c29d767cf57e76d9a6858585604051610a39939291906120de565b600080546060906001600160a01b031633146113115760405162461bcd60e51b815260040161034390611af9565b836001600160a01b0316836040516113299190611ca8565b600060405180830381855af49150503d8060008114611364576040519150601f19603f3d011682016040523d82523d6000602084013e611369565b606091505b50915091505b9250929050565b6000806001848460405161138b929190611b84565b90815260405190819003602001902090506002815460ff1660038111156113b4576113b461172a565b14611429576040805162461bcd60e51b81526020600482015260248101919091527f447269707069653a2073656c6563746564206472697020646f6573206e6f742060448201527f6578697374206f72206973206e6f742063757272656e746c79206163746976656064820152608401610343565b60028101546006820154429161143e916121b9565b11156114ab5760405162461bcd60e51b815260206004820152603660248201527f447269707069653a206472697020696e74657276616c20686173206e6f74206560448201527506c61707365642073696e6365206c61737420647269760541b6064820152608401610343565b600381015460405163c64b3bb560e01b81526001600160a01b039091169063c64b3bb5906114df90600480860191016121cc565b602060405180830381865afa1580156114fc573d6000803e3d6000fd5b505050506040513d601f19601f820116820180604052508101906115209190611b2d565b61159d5760405162461bcd60e51b815260206004820152604260248201527f447269707069653a2064726970636865636b206661696c656420736f2064726960448201527f70206973206e6f742079657420726561647920746f2062652074726967676572606482015261195960f21b608482015260a401610343565b60019150505b92915050565b6001600160a01b0381168114610a7b57600080fd5b6000602082840312156115d057600080fd5b81356115db816115a9565b9392505050565b6000806000606084860312156115f757600080fd5b8335611602816115a9565b92506020840135611612816115a9565b929592945050506040919091013590565b6000806040838503121561163657600080fd5b8235611641816115a9565b946020939093013593505050565b634e487b7160e01b600052604160045260246000fd5b60006001600160401b038084111561167f5761167f61164f565b604051601f8501601f19908116603f011681019082821181831017156116a7576116a761164f565b816040528093508581528686860111156116c057600080fd5b858560208301376000602087830101525050509392505050565b6000602082840312156116ec57600080fd5b81356001600160401b0381111561170257600080fd5b8201601f8101841361171357600080fd5b61172284823560208401611665565b949350505050565b634e487b7160e01b600052602160045260246000fd5b6004811061175e57634e487b7160e01b600052602160045260246000fd5b9052565b60005b8381101561177d578181015183820152602001611765565b50506000910152565b6000815180845261179e816020860160208601611762565b601f01601f19169290920160200192915050565b6117bc8186611740565b600060206080818401528551151560808401528086015160a084015260408087015160018060a01b0380821660c0870152606091508189015160a060e088015261180a610120880182611786565b60808b0151888203607f19016101008a0152805180835291925086019086830190600581901b8401880160005b8281101561188257601f1986830301845284518781511683528a810151898c8501526118658a850182611786565b918b0151938b0193909352948a0194938a01939150600101611837565b50968a019b909b52505050509093019390935250949350505050565b60008083601f8401126118b057600080fd5b5081356001600160401b038111156118c757600080fd5b60208301915083602082850101111561136f57600080fd5b600080602083850312156118f257600080fd5b82356001600160401b0381111561190857600080fd5b6119148582860161189e565b90969095509350505050565b600082601f83011261193157600080fd5b6115db83833560208501611665565b60008060006060848603121561195557600080fd5b8335611960816115a9565b925060208401356001600160401b0381111561197b57600080fd5b61198786828701611920565b925050604084013590509250925092565b82151581526040602082015260006117226040830184611786565b600080604083850312156119c657600080fd5b82356119d1816115a9565b915060208301356119e1816115a9565b809150509250929050565b600080600060408486031215611a0157600080fd5b83356001600160401b03811115611a1757600080fd5b611a238682870161189e565b909450925050602084013560048110611a3b57600080fd5b809150509250925092565b600080600060408486031215611a5b57600080fd5b83356001600160401b0380821115611a7257600080fd5b611a7e8783880161189e565b90955093506020860135915080821115611a9757600080fd5b50840160a08187031215611a3b57600080fd5b60008060408385031215611abd57600080fd5b8235611ac8816115a9565b915060208301356001600160401b03811115611ae357600080fd5b611aef85828601611920565b9150509250929050565b6020808252600c908201526b15539055551213d49256915160a21b604082015260600190565b8015158114610a7b57600080fd5b600060208284031215611b3f57600080fd5b81516115db81611b1f565b600181811c90821680611b5e57607f821691505b602082108103611b7e57634e487b7160e01b600052602260045260246000fd5b50919050565b8183823760009101908152919050565b634e487b7160e01b600052601160045260246000fd5b600060018201611bbc57611bbc611b94565b5060010190565b634e487b7160e01b600052603260045260246000fd5b6000808354611be781611b4a565b60018281168015611bff5760018114611c1457611c43565b60ff1984168752821515830287019450611c43565b8760005260208060002060005b85811015611c3a5781548a820152908401908201611c21565b50505082870194505b50929695505050505050565b81835281816020850137506000828201602090810191909152601f909101601f19169091010190565b606081526000611c8c606083018688611c4f565b6001600160a01b03949094166020830152506040015292915050565b60008251611cba818460208701611762565b9190910192915050565b600060208284031215611cd657600080fd5b5051919050565b604081526000611cf1604083018587611c4f565b90506117226020830184611740565b600060208284031215611d1257600080fd5b81356115db81611b1f565b6000808335601e19843603018112611d3457600080fd5b8301803591506001600160401b03821115611d4e57600080fd5b60200191503681900382131561136f57600080fd5b601f821115611dad57600081815260208120601f850160051c81016020861015611d8a5750805b601f850160051c820191505b81811015611da957828155600101611d96565b5050505b505050565b6001600160401b03831115611dc957611dc961164f565b611ddd83611dd78354611b4a565b83611d63565b6000601f841160018114611e115760008515611df95750838201355b600019600387901b1c1916600186901b178355611e6b565b600083815260209020601f19861690835b82811015611e425786850135825560209485019460019092019101611e22565b5086821015611e5f5760001960f88860031b161c19848701351681555b505060018560011b0183555b5050505050565b6000808335601e19843603018112611e8957600080fd5b8301803591506001600160401b03821115611ea357600080fd5b6020019150600581901b360382131561136f57600080fd5b60008235605e19833603018112611cba57600080fd5b8135611edc816115a9565b81546001600160a01b0319166001600160a01b0391909116178155600181810160208481013536869003601e19018112611f1557600080fd5b850180356001600160401b03811115611f2d57600080fd5b8036038383011315611f3e57600080fd5b611f5281611f4c8654611b4a565b86611d63565b6000601f821160018114611f885760008315611f7057508382018501355b600019600385901b1c1916600184901b178655611fe1565b600086815260209020601f19841690835b82811015611fb857868501880135825593870193908901908701611f99565b5084821015611fd75760001960f88660031b161c198785880101351681555b50508683881b0186555b50505050505050604082013560028201555050565b6000808335601e1984360301811261200d57600080fd5b83016020810192503590506001600160401b0381111561202c57600080fd5b80360382131561136f57600080fd5b81835260006020808501808196508560051b81019150846000805b888110156120d0578385038a528235605e19893603018112612076578283fd5b880160608135612085816115a9565b6001600160a01b0316875261209c82890183611ff6565b828a8a01526120ae838a018284611c4f565b6040948501359990940198909852505099860199945091850191600101612056565b509298975050505050505050565b6040815260006120f2604083018587611c4f565b8281036020840152833561210581611b1f565b15158152602084810135908201526040840135612121816115a9565b6001600160a01b0316604082015261213c6060850185611ff6565b60a0606084015261215160a084018284611c4f565b9150506080850135601e1986360301811261216b57600080fd5b85016020810190356001600160401b0381111561218757600080fd5b8060051b360382131561219957600080fd5b83830360808501526121ac83828461203b565b9998505050505050505050565b808201808211156115a3576115a3611b94565b60006020808352600084546121e081611b4a565b80848701526040600180841660008114612201576001811461221b57612249565b60ff1985168984015283151560051b890183019550612249565b896000528660002060005b858110156122415781548b8201860152908301908801612226565b8a0184019650505b50939897505050505050505056fea164736f6c6343000810000a",
    "linkReferences": {}
  },
  "methodIdentifiers": {
    "CALL(address,bytes,uint256)": "6e2d44ae",
    "DELEGATECALL(address,bytes)": "edee6239",
    "create(string,(bool,uint256,address,bytes,(address,bytes,uint256)[]))": "e551cdaa",
    "drip(string)": "67148cd2",
    "drips(string)": "4d7fba6e",
    "executable(string)": "fc3e3eba",
    "owner()": "8da5cb5b",
    "setOwner(address)": "13af4035",
    "status(string,uint8)": "9bc94d01",
    "withdrawERC20(address,address)": "9456fbcc",
    "withdrawERC20(address,address,uint256)": "44004cc1",
    "withdrawERC721(address,address,uint256)": "4025feb2",
    "withdrawETH(address)": "690d8320",
    "withdrawETH(address,uint256)": "4782f779"
  },
  "id": 23
}