{
  "address": "0xb033Cf21Fd26C81482eAF6e84D6afC7cF1791648",
  "abi": [
    {
      "inputs": [
        {
          "internalType": "address",
          "name": "_who",
          "type": "address"
        }
      ],
      "name": "balance",
      "outputs": [
        {
          "internalType": "uint256",
          "name": "",
          "type": "uint256"
        }
      ],
      "stateMutability": "view",
      "type": "function"
    }
  ],
  "transactionHash": "0xa07c58a59b1425bc6fab1e2ca592e403064c78f283d1b4222122824652d33823",
  "args": [],
  "numDeployments": 1,
  "solcInputHash": "cfa9b099eedc25fb15822786e7f06fd8",
  "bytecode": "0x608060405234801561001057600080fd5b5060d58061001f6000396000f3fe6080604052348015600f57600080fd5b506004361060285760003560e01c8063e3d670d714602d575b600080fd5b605260383660046064565b73ffffffffffffffffffffffffffffffffffffffff163190565b60405190815260200160405180910390f35b600060208284031215607557600080fd5b813573ffffffffffffffffffffffffffffffffffffffff81168114609857600080fd5b939250505056fea26469706673582212207b6c0794ee7b5b64159cc1359737a3c3b60f580a7ee23538dcb7f88e6da3614264736f6c634300080f0033",
  "devdoc": {
    "kind": "dev",
    "methods": {},
    "version": 1
  },
  "userdoc": {
    "kind": "user",
    "methods": {},
    "version": 1
  },
  "storageLayout": {
    "storage": [],
    "types": null
  }
}