{
  "address": "0xB3660bf4762aF84CAB4a40E7dD6e07312a29AEf4",
  "abi": [
    {
      "inputs": [
        {
          "internalType": "address",
          "name": "_bridge",
          "type": "address"
        }
      ],
      "stateMutability": "nonpayable",
      "type": "constructor"
    },
    {
      "anonymous": false,
      "inputs": [
        {
          "indexed": false,
          "internalType": "uint8",
          "name": "version",
          "type": "uint8"
        }
      ],
      "name": "Initialized",
      "type": "event"
    },
    {
      "anonymous": false,
      "inputs": [
        {
          "indexed": true,
          "internalType": "address",
          "name": "remoteToken",
          "type": "address"
        },
        {
          "indexed": true,
          "internalType": "address",
          "name": "localToken",
          "type": "address"
        }
      ],
      "name": "OptimismMintableERC721Created",
      "type": "event"
    },
    {
      "anonymous": false,
      "inputs": [
        {
          "indexed": true,
          "internalType": "address",
          "name": "previousOwner",
          "type": "address"
        },
        {
          "indexed": true,
          "internalType": "address",
          "name": "newOwner",
          "type": "address"
        }
      ],
      "name": "OwnershipTransferred",
      "type": "event"
    },
    {
      "inputs": [],
      "name": "VERSION",
      "outputs": [
        {
          "internalType": "uint8",
          "name": "",
          "type": "uint8"
        }
      ],
      "stateMutability": "view",
      "type": "function"
    },
    {
      "inputs": [],
      "name": "bridge",
      "outputs": [
        {
          "internalType": "address",
          "name": "",
          "type": "address"
        }
      ],
      "stateMutability": "view",
      "type": "function"
    },
    {
      "inputs": [
        {
          "internalType": "address",
          "name": "_remoteToken",
          "type": "address"
        },
        {
          "internalType": "string",
          "name": "_name",
          "type": "string"
        },
        {
          "internalType": "string",
          "name": "_symbol",
          "type": "string"
        }
      ],
      "name": "createStandardOptimismMintableERC721",
      "outputs": [],
      "stateMutability": "nonpayable",
      "type": "function"
    },
    {
      "inputs": [
        {
          "internalType": "address",
          "name": "_bridge",
          "type": "address"
        }
      ],
      "name": "initialize",
      "outputs": [],
      "stateMutability": "nonpayable",
      "type": "function"
    },
    {
      "inputs": [
        {
          "internalType": "address",
          "name": "",
          "type": "address"
        }
      ],
      "name": "isStandardOptimismMintableERC721",
      "outputs": [
        {
          "internalType": "bool",
          "name": "",
          "type": "bool"
        }
      ],
      "stateMutability": "view",
      "type": "function"
    },
    {
      "inputs": [],
      "name": "owner",
      "outputs": [
        {
          "internalType": "address",
          "name": "",
          "type": "address"
        }
      ],
      "stateMutability": "view",
      "type": "function"
    },
    {
      "inputs": [],
      "name": "renounceOwnership",
      "outputs": [],
      "stateMutability": "nonpayable",
      "type": "function"
    },
    {
      "inputs": [
        {
          "internalType": "address",
          "name": "newOwner",
          "type": "address"
        }
      ],
      "name": "transferOwnership",
      "outputs": [],
      "stateMutability": "nonpayable",
      "type": "function"
    }
  ],
  "transactionHash": "0xa11944038e72766d7cefce9a7ecd2561fc4163082b46f498a4a1077db354a6ca",
  "args": [
    "0x0000000000000000000000000000000000000000"
  ],
  "numDeployments": 2,
  "solcInputHash": "0938c383fb4942a90694b5a8af642a7f",
  "bytecode": "0x60806040523480156200001157600080fd5b50604051620039cc380380620039cc83398101604081905262000034916200031d565b6200003f8162000046565b506200034f565b600160006200005582620000e1565b905080156200006e576000805461ff0019166101001790555b606580546001600160a01b0319166001600160a01b03851617905562000093620001f3565b8015620000dc576000805461ff001916905560405160ff831681527f7f26b83ff96e1f2b6a682f133852f6798a09c465da95921460cefb38474024989060200160405180910390a15b505050565b60008054610100900460ff16156200017a578160ff1660011480156200011a575062000118306200025b60201b620006e11760201c565b155b620001725760405162461bcd60e51b815260206004820152602e60248201526000805160206200398c83398151915260448201526d191e481a5b9a5d1a585b1a5e995960921b60648201526084015b60405180910390fd5b506000919050565b60005460ff808416911610620001d95760405162461bcd60e51b815260206004820152602e60248201526000805160206200398c83398151915260448201526d191e481a5b9a5d1a585b1a5e995960921b606482015260840162000169565b506000805460ff191660ff92909216919091179055600190565b600054610100900460ff166200024f5760405162461bcd60e51b815260206004820152602b6024820152600080516020620039ac83398151915260448201526a6e697469616c697a696e6760a81b606482015260840162000169565b620002596200026a565b565b6001600160a01b03163b151590565b600054610100900460ff16620002c65760405162461bcd60e51b815260206004820152602b6024820152600080516020620039ac83398151915260448201526a6e697469616c697a696e6760a81b606482015260840162000169565b6200025933603380546001600160a01b038381166001600160a01b0319831681179093556040519116919082907f8be0079c531659141344cd1fd0a4f28419497f9722a3daafe3b4186f6b6457e090600090a35050565b6000602082840312156200033057600080fd5b81516001600160a01b03811681146200034857600080fd5b9392505050565b61362d806200035f6000396000f3fe60806040523480156200001157600080fd5b5060043610620000935760003560e01c8063c4d66de81162000062578063c4d66de81462000136578063e78cea92146200014d578063f2fde38b146200016e578063ffa1ad74146200018557600080fd5b8063715018a614620000985780637aaa038e14620000a45780638cf80c2414620000bb5780638da5cb5b14620000f6575b600080fd5b620000a2620001a1565b005b620000a2620000b536600462000b5b565b62000236565b620000e1620000cc36600462000bd8565b60666020526000908152604090205460ff1681565b60405190151581526020015b60405180910390f35b60335473ffffffffffffffffffffffffffffffffffffffff165b60405173ffffffffffffffffffffffffffffffffffffffff9091168152602001620000ed565b620000a26200014736600462000bd8565b620004b1565b606554620001109073ffffffffffffffffffffffffffffffffffffffff1681565b620000a26200017f36600462000bd8565b620005ab565b6200018e600181565b60405160ff9091168152602001620000ed565b60335473ffffffffffffffffffffffffffffffffffffffff16331462000228576040517f08c379a000000000000000000000000000000000000000000000000000000000815260206004820181905260248201527f4f776e61626c653a2063616c6c6572206973206e6f7420746865206f776e657260448201526064015b60405180910390fd5b620002346000620006fd565b565b73ffffffffffffffffffffffffffffffffffffffff831662000302576040517f08c379a0000000000000000000000000000000000000000000000000000000008152602060048201526044602482018190527f4f7074696d69736d4d696e7461626c65455243373231466163746f72793a204c908201527f3120746f6b656e20616464726573732063616e6e6f742062652061646472657360648201527f7328302900000000000000000000000000000000000000000000000000000000608482015260a4016200021f565b60655473ffffffffffffffffffffffffffffffffffffffff16620003cf576040517f08c379a000000000000000000000000000000000000000000000000000000000815260206004820152604160248201527f4f7074696d69736d4d696e7461626c65455243373231466163746f72793a206260448201527f72696467652061646472657373206d75737420626520696e697469616c697a6560648201527f6400000000000000000000000000000000000000000000000000000000000000608482015260a4016200021f565b60655460405160009173ffffffffffffffffffffffffffffffffffffffff1690859085908590620004009062000a46565b6200040f949392919062000c6b565b604051809103906000f0801580156200042c573d6000803e3d6000fd5b5073ffffffffffffffffffffffffffffffffffffffff80821660008181526066602052604080822080547fffffffffffffffffffffffffffffffffffffffffffffffffffffffffffffff00166001179055519394509092918716917fe6575823a81be7bedfd159bbb82da5f9efee2a8bdfcd2c50f959d6b0670ea6a89190a350505050565b60016000620004c08262000774565b90508015620004f657600080547fffffffffffffffffffffffffffffffffffffffffffffffffffffffffffff00ff166101001790555b606580547fffffffffffffffffffffffff00000000000000000000000000000000000000001673ffffffffffffffffffffffffffffffffffffffff85161790556200054062000905565b8015620005a657600080547fffffffffffffffffffffffffffffffffffffffffffffffffffffffffffff00ff16905560405160ff831681527f7f26b83ff96e1f2b6a682f133852f6798a09c465da95921460cefb38474024989060200160405180910390a15b505050565b60335473ffffffffffffffffffffffffffffffffffffffff1633146200062e576040517f08c379a000000000000000000000000000000000000000000000000000000000815260206004820181905260248201527f4f776e61626c653a2063616c6c6572206973206e6f7420746865206f776e657260448201526064016200021f565b73ffffffffffffffffffffffffffffffffffffffff8116620006d3576040517f08c379a000000000000000000000000000000000000000000000000000000000815260206004820152602660248201527f4f776e61626c653a206e6577206f776e657220697320746865207a65726f206160448201527f646472657373000000000000000000000000000000000000000000000000000060648201526084016200021f565b620006de81620006fd565b50565b73ffffffffffffffffffffffffffffffffffffffff163b151590565b6033805473ffffffffffffffffffffffffffffffffffffffff8381167fffffffffffffffffffffffff0000000000000000000000000000000000000000831681179093556040519116919082907f8be0079c531659141344cd1fd0a4f28419497f9722a3daafe3b4186f6b6457e090600090a35050565b60008054610100900460ff16156200082f578160ff166001148015620007995750303b155b62000827576040517f08c379a000000000000000000000000000000000000000000000000000000000815260206004820152602e60248201527f496e697469616c697a61626c653a20636f6e747261637420697320616c72656160448201527f647920696e697469616c697a656400000000000000000000000000000000000060648201526084016200021f565b506000919050565b60005460ff808416911610620008c8576040517f08c379a000000000000000000000000000000000000000000000000000000000815260206004820152602e60248201527f496e697469616c697a61626c653a20636f6e747261637420697320616c72656160448201527f647920696e697469616c697a656400000000000000000000000000000000000060648201526084016200021f565b50600080547fffffffffffffffffffffffffffffffffffffffffffffffffffffffffffffff001660ff92909216919091179055600190565b919050565b600054610100900460ff166200099e576040517f08c379a000000000000000000000000000000000000000000000000000000000815260206004820152602b60248201527f496e697469616c697a61626c653a20636f6e7472616374206973206e6f74206960448201527f6e697469616c697a696e6700000000000000000000000000000000000000000060648201526084016200021f565b62000234600054610100900460ff1662000a3b576040517f08c379a000000000000000000000000000000000000000000000000000000000815260206004820152602b60248201527f496e697469616c697a61626c653a20636f6e7472616374206973206e6f74206960448201527f6e697469616c697a696e6700000000000000000000000000000000000000000060648201526084016200021f565b6200023433620006fd565b6129328062000cc683390190565b803573ffffffffffffffffffffffffffffffffffffffff811681146200090057600080fd5b7f4e487b7100000000000000000000000000000000000000000000000000000000600052604160045260246000fd5b600082601f83011262000aba57600080fd5b813567ffffffffffffffff8082111562000ad85762000ad862000a79565b604051601f83017fffffffffffffffffffffffffffffffffffffffffffffffffffffffffffffffe0908116603f0116810190828211818310171562000b215762000b2162000a79565b8160405283815286602085880101111562000b3b57600080fd5b836020870160208301376000602085830101528094505050505092915050565b60008060006060848603121562000b7157600080fd5b62000b7c8462000a54565b9250602084013567ffffffffffffffff8082111562000b9a57600080fd5b62000ba88783880162000aa8565b9350604086013591508082111562000bbf57600080fd5b5062000bce8682870162000aa8565b9150509250925092565b60006020828403121562000beb57600080fd5b62000bf68262000a54565b9392505050565b6000815180845260005b8181101562000c255760208185018101518683018201520162000c07565b8181111562000c38576000602083870101525b50601f017fffffffffffffffffffffffffffffffffffffffffffffffffffffffffffffffe0169290920160200192915050565b600073ffffffffffffffffffffffffffffffffffffffff80871683528086166020840152506080604083015262000ca6608083018562000bfd565b828103606084015262000cba818562000bfd565b97965050505050505056fe60806040523480156200001157600080fd5b5060405162002932380380620029328339810160408190526200003491620005e0565b8151829082906200004d90600090602085019062000443565b5080516200006390600190602084019062000443565b5050600680546001600160a01b038087166001600160a01b031992831681179093556007805491891691909216179055620000ae915062000c6362000108602090811b91909117901c565b620000c4466200016b60201b62000cd01760201c565b604051602001620000d792919062000670565b60405160208183030381529060405260089080519060200190620000fd92919062000443565b505050505062000820565b606081620001305750506040805180820190915260048152630307830360e41b602082015290565b8160005b81156200015757806200014781620006fa565b915050600882901c915062000134565b62000163848262000280565b949350505050565b606081620001905750506040805180820190915260018152600360fc1b602082015290565b8160005b8115620001c05780620001a781620006fa565b9150620001b89050600a836200072e565b915062000194565b6000816001600160401b03811115620001dd57620001dd62000506565b6040519080825280601f01601f19166020018201604052801562000208576020820181803683370190505b5090505b841562000163576200022060018362000745565b91506200022f600a866200075f565b6200023c90603062000776565b60f81b81838151811062000254576200025462000791565b60200101906001600160f81b031916908160001a90535062000278600a866200072e565b94506200020c565b6060600062000291836002620007a7565b6200029e90600262000776565b6001600160401b03811115620002b857620002b862000506565b6040519080825280601f01601f191660200182016040528015620002e3576020820181803683370190505b509050600360fc1b8160008151811062000301576200030162000791565b60200101906001600160f81b031916908160001a905350600f60fb1b8160018151811062000333576200033362000791565b60200101906001600160f81b031916908160001a905350600062000359846002620007a7565b6200036690600162000776565b90505b6001811115620003e8576f181899199a1a9b1b9c1cb0b131b232b360811b85600f16601081106200039e576200039e62000791565b1a60f81b828281518110620003b757620003b762000791565b60200101906001600160f81b031916908160001a90535060049490941c93620003e081620007c9565b905062000369565b5083156200043c5760405162461bcd60e51b815260206004820181905260248201527f537472696e67733a20686578206c656e67746820696e73756666696369656e74604482015260640160405180910390fd5b9392505050565b8280546200045190620007e3565b90600052602060002090601f016020900481019282620004755760008555620004c0565b82601f106200049057805160ff1916838001178555620004c0565b82800160010185558215620004c0579182015b82811115620004c0578251825591602001919060010190620004a3565b50620004ce929150620004d2565b5090565b5b80821115620004ce5760008155600101620004d3565b80516001600160a01b03811681146200050157600080fd5b919050565b634e487b7160e01b600052604160045260246000fd5b60005b83811015620005395781810151838201526020016200051f565b8381111562000549576000848401525b50505050565b600082601f8301126200056157600080fd5b81516001600160401b03808211156200057e576200057e62000506565b604051601f8301601f19908116603f01168101908282118183101715620005a957620005a962000506565b81604052838152866020858801011115620005c357600080fd5b620005d68460208301602089016200051c565b9695505050505050565b60008060008060808587031215620005f757600080fd5b6200060285620004e9565b93506200061260208601620004e9565b60408601519093506001600160401b03808211156200063057600080fd5b6200063e888389016200054f565b935060608701519150808211156200065557600080fd5b5062000664878288016200054f565b91505092959194509250565b6832ba3432b932bab69d60b91b815260008351620006968160098501602088016200051c565b600160fe1b6009918401918201528351620006b981600a8401602088016200051c565b712f746f6b656e5552493f75696e743235363d60701b600a9290910191820152601c01949350505050565b634e487b7160e01b600052601160045260246000fd5b6000600019821415620007115762000711620006e4565b5060010190565b634e487b7160e01b600052601260045260246000fd5b60008262000740576200074062000718565b500490565b6000828210156200075a576200075a620006e4565b500390565b60008262000771576200077162000718565b500690565b600082198211156200078c576200078c620006e4565b500190565b634e487b7160e01b600052603260045260246000fd5b6000816000190483118215151615620007c457620007c4620006e4565b500290565b600081620007db57620007db620006e4565b506000190190565b600181811c90821680620007f857607f821691505b602082108114156200081a57634e487b7160e01b600052602260045260246000fd5b50919050565b61210280620008306000396000f3fe608060405234801561001057600080fd5b50600436106101365760003560e01c806395d89b41116100b2578063c87b56dd11610081578063d6c0b2c411610066578063d6c0b2c41461028e578063e78cea92146102ae578063e985e9c5146102ce57600080fd5b8063c87b56dd14610273578063d547cfb71461028657600080fd5b806395d89b41146102325780639dc29fac1461023a578063a22cb4651461024d578063b88d4fde1461026057600080fd5b806323b872dd1161010957806342842e0e116100ee57806342842e0e146101eb5780636352211e146101fe57806370a082311461021157600080fd5b806323b872dd146101c557806340c10f19146101d857600080fd5b806301ffc9a71461013b57806306fdde0314610163578063081812fc14610178578063095ea7b3146101b0575b600080fd5b61014e610149366004611b53565b610317565b60405190151581526020015b60405180910390f35b61016b6103c6565b60405161015a9190611be6565b61018b610186366004611bf9565b610458565b60405173ffffffffffffffffffffffffffffffffffffffff909116815260200161015a565b6101c36101be366004611c3b565b61051d565b005b6101c36101d3366004611c65565b610676565b6101c36101e6366004611c3b565b6106fd565b6101c36101f9366004611c65565b6107e8565b61018b61020c366004611bf9565b610803565b61022461021f366004611ca1565b6108a1565b60405190815260200161015a565b61016b610955565b6101c3610248366004611c3b565b610964565b6101c361025b366004611cbc565b610a42565b6101c361026e366004611d27565b610a51565b61016b610281366004611bf9565b610adf565b61016b610bd5565b60065461018b9073ffffffffffffffffffffffffffffffffffffffff1681565b60075461018b9073ffffffffffffffffffffffffffffffffffffffff1681565b61014e6102dc366004611e21565b73ffffffffffffffffffffffffffffffffffffffff918216600090815260056020908152604080832093909416825291909152205460ff1690565b60007f01ffc9a7000000000000000000000000000000000000000000000000000000007fec4fc8e3000000000000000000000000000000000000000000000000000000007fffffffff0000000000000000000000000000000000000000000000000000000084168214806103af57507fffffffff00000000000000000000000000000000000000000000000000000000848116908216145b806103be57506103be84610e02565b949350505050565b6060600080546103d590611e54565b80601f016020809104026020016040519081016040528092919081815260200182805461040190611e54565b801561044e5780601f106104235761010080835404028352916020019161044e565b820191906000526020600020905b81548152906001019060200180831161043157829003601f168201915b5050505050905090565b60008181526002602052604081205473ffffffffffffffffffffffffffffffffffffffff166104f45760405162461bcd60e51b815260206004820152602c60248201527f4552433732313a20617070726f76656420717565727920666f72206e6f6e657860448201527f697374656e7420746f6b656e000000000000000000000000000000000000000060648201526084015b60405180910390fd5b5060009081526004602052604090205473ffffffffffffffffffffffffffffffffffffffff1690565b600061052882610803565b90508073ffffffffffffffffffffffffffffffffffffffff168373ffffffffffffffffffffffffffffffffffffffff1614156105cc5760405162461bcd60e51b815260206004820152602160248201527f4552433732313a20617070726f76616c20746f2063757272656e74206f776e6560448201527f720000000000000000000000000000000000000000000000000000000000000060648201526084016104eb565b3373ffffffffffffffffffffffffffffffffffffffff821614806105f557506105f581336102dc565b6106675760405162461bcd60e51b815260206004820152603860248201527f4552433732313a20617070726f76652063616c6c6572206973206e6f74206f7760448201527f6e6572206e6f7220617070726f76656420666f7220616c6c000000000000000060648201526084016104eb565b6106718383610ee5565b505050565b6106803382610f85565b6106f25760405162461bcd60e51b815260206004820152603160248201527f4552433732313a207472616e736665722063616c6c6572206973206e6f74206f60448201527f776e6572206e6f7220617070726f76656400000000000000000000000000000060648201526084016104eb565b6106718383836110da565b60075473ffffffffffffffffffffffffffffffffffffffff16331461078a5760405162461bcd60e51b815260206004820152603a60248201527f4f7074696d69736d4d696e7461626c654552433732313a206f6e6c792062726960448201527f6467652063616e2063616c6c20746869732066756e6374696f6e00000000000060648201526084016104eb565b610794828261130d565b8173ffffffffffffffffffffffffffffffffffffffff167f0f6798a560793a54c3bcfe86a93cde1e73087d944c0ea20544137d4121396885826040516107dc91815260200190565b60405180910390a25050565b61067183838360405180602001604052806000815250610a51565b60008181526002602052604081205473ffffffffffffffffffffffffffffffffffffffff168061089b5760405162461bcd60e51b815260206004820152602960248201527f4552433732313a206f776e657220717565727920666f72206e6f6e657869737460448201527f656e7420746f6b656e000000000000000000000000000000000000000000000060648201526084016104eb565b92915050565b600073ffffffffffffffffffffffffffffffffffffffff821661092c5760405162461bcd60e51b815260206004820152602a60248201527f4552433732313a2062616c616e636520717565727920666f7220746865207a6560448201527f726f20616464726573730000000000000000000000000000000000000000000060648201526084016104eb565b5073ffffffffffffffffffffffffffffffffffffffff1660009081526003602052604090205490565b6060600180546103d590611e54565b60075473ffffffffffffffffffffffffffffffffffffffff1633146109f15760405162461bcd60e51b815260206004820152603a60248201527f4f7074696d69736d4d696e7461626c654552433732313a206f6e6c792062726960448201527f6467652063616e2063616c6c20746869732066756e6374696f6e00000000000060648201526084016104eb565b6109fa8161149b565b8173ffffffffffffffffffffffffffffffffffffffff167fcc16f5dbb4873280815c1ee09dbd06736cffcc184412cf7a71a0fdb75d397ca5826040516107dc91815260200190565b610a4d338383611568565b5050565b610a5b3383610f85565b610acd5760405162461bcd60e51b815260206004820152603160248201527f4552433732313a207472616e736665722063616c6c6572206973206e6f74206f60448201527f776e6572206e6f7220617070726f76656400000000000000000000000000000060648201526084016104eb565b610ad98484848461167c565b50505050565b60008181526002602052604090205460609073ffffffffffffffffffffffffffffffffffffffff16610b795760405162461bcd60e51b815260206004820152602f60248201527f4552433732314d657461646174613a2055524920717565727920666f72206e6f60448201527f6e6578697374656e7420746f6b656e000000000000000000000000000000000060648201526084016104eb565b6000610b83611705565b90506000815111610ba35760405180602001604052806000815250610bce565b80610bad84610cd0565b604051602001610bbe929190611ea8565b6040516020818303038152906040525b9392505050565b60088054610be290611e54565b80601f0160208091040260200160405190810160405280929190818152602001828054610c0e90611e54565b8015610c5b5780601f10610c3057610100808354040283529160200191610c5b565b820191906000526020600020905b815481529060010190602001808311610c3e57829003601f168201915b505050505081565b606081610ca357505060408051808201909152600481527f3078303000000000000000000000000000000000000000000000000000000000602082015290565b8160005b8115610cc65780610cb781611f06565b915050600882901c9150610ca7565b6103be8482611714565b606081610d1057505060408051808201909152600181527f3000000000000000000000000000000000000000000000000000000000000000602082015290565b8160005b8115610d3a5780610d2481611f06565b9150610d339050600a83611f6e565b9150610d14565b60008167ffffffffffffffff811115610d5557610d55611cf8565b6040519080825280601f01601f191660200182016040528015610d7f576020820181803683370190505b5090505b84156103be57610d94600183611f82565b9150610da1600a86611f99565b610dac906030611fad565b60f81b818381518110610dc157610dc1611fc5565b60200101907effffffffffffffffffffffffffffffffffffffffffffffffffffffffffffff1916908160001a905350610dfb600a86611f6e565b9450610d83565b60007fffffffff0000000000000000000000000000000000000000000000000000000082167f80ac58cd000000000000000000000000000000000000000000000000000000001480610e9557507fffffffff0000000000000000000000000000000000000000000000000000000082167f5b5e139f00000000000000000000000000000000000000000000000000000000145b8061089b57507f01ffc9a7000000000000000000000000000000000000000000000000000000007fffffffff0000000000000000000000000000000000000000000000000000000083161461089b565b600081815260046020526040902080547fffffffffffffffffffffffff00000000000000000000000000000000000000001673ffffffffffffffffffffffffffffffffffffffff84169081179091558190610f3f82610803565b73ffffffffffffffffffffffffffffffffffffffff167f8c5be1e5ebec7d5bd14f71427d1e84f3dd0314c0f7b2291e5b200ac8c7c3b92560405160405180910390a45050565b60008181526002602052604081205473ffffffffffffffffffffffffffffffffffffffff1661101c5760405162461bcd60e51b815260206004820152602c60248201527f4552433732313a206f70657261746f7220717565727920666f72206e6f6e657860448201527f697374656e7420746f6b656e000000000000000000000000000000000000000060648201526084016104eb565b600061102783610803565b90508073ffffffffffffffffffffffffffffffffffffffff168473ffffffffffffffffffffffffffffffffffffffff161480611095575073ffffffffffffffffffffffffffffffffffffffff80821660009081526005602090815260408083209388168352929052205460ff165b806103be57508373ffffffffffffffffffffffffffffffffffffffff166110bb84610458565b73ffffffffffffffffffffffffffffffffffffffff1614949350505050565b8273ffffffffffffffffffffffffffffffffffffffff166110fa82610803565b73ffffffffffffffffffffffffffffffffffffffff16146111835760405162461bcd60e51b815260206004820152602560248201527f4552433732313a207472616e736665722066726f6d20696e636f72726563742060448201527f6f776e657200000000000000000000000000000000000000000000000000000060648201526084016104eb565b73ffffffffffffffffffffffffffffffffffffffff821661120b5760405162461bcd60e51b8152602060048201526024808201527f4552433732313a207472616e7366657220746f20746865207a65726f2061646460448201527f726573730000000000000000000000000000000000000000000000000000000060648201526084016104eb565b611216600082610ee5565b73ffffffffffffffffffffffffffffffffffffffff8316600090815260036020526040812080546001929061124c908490611f82565b909155505073ffffffffffffffffffffffffffffffffffffffff82166000908152600360205260408120805460019290611287908490611fad565b909155505060008181526002602052604080822080547fffffffffffffffffffffffff00000000000000000000000000000000000000001673ffffffffffffffffffffffffffffffffffffffff86811691821790925591518493918716917fddf252ad1be2c89b69c2b068fc378daa952ba7f163c4a11628f55a4df523b3ef91a4505050565b73ffffffffffffffffffffffffffffffffffffffff82166113705760405162461bcd60e51b815260206004820181905260248201527f4552433732313a206d696e7420746f20746865207a65726f206164647265737360448201526064016104eb565b60008181526002602052604090205473ffffffffffffffffffffffffffffffffffffffff16156113e25760405162461bcd60e51b815260206004820152601c60248201527f4552433732313a20746f6b656e20616c7265616479206d696e7465640000000060448201526064016104eb565b73ffffffffffffffffffffffffffffffffffffffff82166000908152600360205260408120805460019290611418908490611fad565b909155505060008181526002602052604080822080547fffffffffffffffffffffffff00000000000000000000000000000000000000001673ffffffffffffffffffffffffffffffffffffffff861690811790915590518392907fddf252ad1be2c89b69c2b068fc378daa952ba7f163c4a11628f55a4df523b3ef908290a45050565b60006114a682610803565b90506114b3600083610ee5565b73ffffffffffffffffffffffffffffffffffffffff811660009081526003602052604081208054600192906114e9908490611f82565b909155505060008281526002602052604080822080547fffffffffffffffffffffffff00000000000000000000000000000000000000001690555183919073ffffffffffffffffffffffffffffffffffffffff8416907fddf252ad1be2c89b69c2b068fc378daa952ba7f163c4a11628f55a4df523b3ef908390a45050565b8173ffffffffffffffffffffffffffffffffffffffff168373ffffffffffffffffffffffffffffffffffffffff1614156115e45760405162461bcd60e51b815260206004820152601960248201527f4552433732313a20617070726f766520746f2063616c6c65720000000000000060448201526064016104eb565b73ffffffffffffffffffffffffffffffffffffffff83811660008181526005602090815260408083209487168084529482529182902080547fffffffffffffffffffffffffffffffffffffffffffffffffffffffffffffff001686151590811790915591519182527f17307eab39ab6107e8899845ad3d59bd9653f200f220920489ca2b5937696c31910160405180910390a3505050565b6116878484846110da565b6116938484848461193d565b610ad95760405162461bcd60e51b815260206004820152603260248201527f4552433732313a207472616e7366657220746f206e6f6e20455243373231526560448201527f63656976657220696d706c656d656e746572000000000000000000000000000060648201526084016104eb565b6060600880546103d590611e54565b60606000611723836002611ff4565b61172e906002611fad565b67ffffffffffffffff81111561174657611746611cf8565b6040519080825280601f01601f191660200182016040528015611770576020820181803683370190505b5090507f3000000000000000000000000000000000000000000000000000000000000000816000815181106117a7576117a7611fc5565b60200101907effffffffffffffffffffffffffffffffffffffffffffffffffffffffffffff1916908160001a9053507f78000000000000000000000000000000000000000000000000000000000000008160018151811061180a5761180a611fc5565b60200101907effffffffffffffffffffffffffffffffffffffffffffffffffffffffffffff1916908160001a9053506000611846846002611ff4565b611851906001611fad565b90505b60018111156118ee577f303132333435363738396162636465660000000000000000000000000000000085600f166010811061189257611892611fc5565b1a60f81b8282815181106118a8576118a8611fc5565b60200101907effffffffffffffffffffffffffffffffffffffffffffffffffffffffffffff1916908160001a90535060049490941c936118e781612031565b9050611854565b508315610bce5760405162461bcd60e51b815260206004820181905260248201527f537472696e67733a20686578206c656e67746820696e73756666696369656e7460448201526064016104eb565b600073ffffffffffffffffffffffffffffffffffffffff84163b15611b17576040517f150b7a0200000000000000000000000000000000000000000000000000000000815273ffffffffffffffffffffffffffffffffffffffff85169063150b7a02906119b4903390899088908890600401612066565b602060405180830381600087803b1580156119ce57600080fd5b505af1925050508015611a1c575060408051601f3d9081017fffffffffffffffffffffffffffffffffffffffffffffffffffffffffffffffe0168201909252611a19918101906120af565b60015b611acc573d808015611a4a576040519150601f19603f3d011682016040523d82523d6000602084013e611a4f565b606091505b508051611ac45760405162461bcd60e51b815260206004820152603260248201527f4552433732313a207472616e7366657220746f206e6f6e20455243373231526560448201527f63656976657220696d706c656d656e746572000000000000000000000000000060648201526084016104eb565b805181602001fd5b7fffffffff00000000000000000000000000000000000000000000000000000000167f150b7a02000000000000000000000000000000000000000000000000000000001490506103be565b506001949350505050565b7fffffffff0000000000000000000000000000000000000000000000000000000081168114611b5057600080fd5b50565b600060208284031215611b6557600080fd5b8135610bce81611b22565b60005b83811015611b8b578181015183820152602001611b73565b83811115610ad95750506000910152565b60008151808452611bb4816020860160208601611b70565b601f017fffffffffffffffffffffffffffffffffffffffffffffffffffffffffffffffe0169290920160200192915050565b602081526000610bce6020830184611b9c565b600060208284031215611c0b57600080fd5b5035919050565b803573ffffffffffffffffffffffffffffffffffffffff81168114611c3657600080fd5b919050565b60008060408385031215611c4e57600080fd5b611c5783611c12565b946020939093013593505050565b600080600060608486031215611c7a57600080fd5b611c8384611c12565b9250611c9160208501611c12565b9150604084013590509250925092565b600060208284031215611cb357600080fd5b610bce82611c12565b60008060408385031215611ccf57600080fd5b611cd883611c12565b915060208301358015158114611ced57600080fd5b809150509250929050565b7f4e487b7100000000000000000000000000000000000000000000000000000000600052604160045260246000fd5b60008060008060808587031215611d3d57600080fd5b611d4685611c12565b9350611d5460208601611c12565b925060408501359150606085013567ffffffffffffffff80821115611d7857600080fd5b818701915087601f830112611d8c57600080fd5b813581811115611d9e57611d9e611cf8565b604051601f82017fffffffffffffffffffffffffffffffffffffffffffffffffffffffffffffffe0908116603f01168101908382118183101715611de457611de4611cf8565b816040528281528a6020848701011115611dfd57600080fd5b82602086016020830137600060208483010152809550505050505092959194509250565b60008060408385031215611e3457600080fd5b611e3d83611c12565b9150611e4b60208401611c12565b90509250929050565b600181811c90821680611e6857607f821691505b60208210811415611ea2577f4e487b7100000000000000000000000000000000000000000000000000000000600052602260045260246000fd5b50919050565b60008351611eba818460208801611b70565b835190830190611ece818360208801611b70565b01949350505050565b7f4e487b7100000000000000000000000000000000000000000000000000000000600052601160045260246000fd5b60007fffffffffffffffffffffffffffffffffffffffffffffffffffffffffffffffff821415611f3857611f38611ed7565b5060010190565b7f4e487b7100000000000000000000000000000000000000000000000000000000600052601260045260246000fd5b600082611f7d57611f7d611f3f565b500490565b600082821015611f9457611f94611ed7565b500390565b600082611fa857611fa8611f3f565b500690565b60008219821115611fc057611fc0611ed7565b500190565b7f4e487b7100000000000000000000000000000000000000000000000000000000600052603260045260246000fd5b6000817fffffffffffffffffffffffffffffffffffffffffffffffffffffffffffffffff048311821515161561202c5761202c611ed7565b500290565b60008161204057612040611ed7565b507fffffffffffffffffffffffffffffffffffffffffffffffffffffffffffffffff0190565b600073ffffffffffffffffffffffffffffffffffffffff8087168352808616602084015250836040830152608060608301526120a56080830184611b9c565b9695505050505050565b6000602082840312156120c157600080fd5b8151610bce81611b2256fea26469706673582212203fd8a750b6599cf1df96fb6b08b878c83aff0e047ef319f697f9a19e14dbacfb64736f6c63430008090033a264697066735822122091f11d8c91214047610ba89184d51342ae174fb4e4d5dc42e8ff6fea98cbd66a64736f6c63430008090033496e697469616c697a61626c653a20636f6e747261637420697320616c726561496e697469616c697a61626c653a20636f6e7472616374206973206e6f742069",
  "devdoc": {
    "events": {
      "OptimismMintableERC721Created(address,address)": {
        "params": {
          "localToken": "Address of the token on the this domain.",
          "remoteToken": "Address of the token on the remote domain."
        }
      }
    },
    "kind": "dev",
    "methods": {
      "constructor": {
        "params": {
          "_bridge": "Address of the ERC721 bridge on this network."
        }
      },
      "createStandardOptimismMintableERC721(address,string,string)": {
        "params": {
          "_name": "ERC721 name.",
          "_remoteToken": "Address of the corresponding token on the other domain.",
          "_symbol": "ERC721 symbol."
        }
      },
      "initialize(address)": {
        "params": {
          "_bridge": "Address of the ERC721 bridge on this network."
        }
      },
      "owner()": {
        "details": "Returns the address of the current owner."
      },
      "renounceOwnership()": {
        "details": "Leaves the contract without owner. It will not be possible to call `onlyOwner` functions anymore. Can only be called by the current owner. NOTE: Renouncing ownership will leave the contract without an owner, thereby removing any functionality that is only available to the owner."
      },
      "transferOwnership(address)": {
        "details": "Transfers ownership of the contract to a new account (`newOwner`). Can only be called by the current owner."
      }
    },
    "title": "OptimismMintableERC721Factory",
    "version": 1
  },
  "userdoc": {
    "events": {
      "OptimismMintableERC721Created(address,address)": {
        "notice": "Emitted whenever a new OptimismMintableERC721 contract is created."
      }
    },
    "kind": "user",
    "methods": {
      "VERSION()": {
        "notice": "Contract version number."
      },
      "bridge()": {
        "notice": "Address of the ERC721 bridge on this network."
      },
      "createStandardOptimismMintableERC721(address,string,string)": {
        "notice": "Creates an instance of the standard ERC721."
      },
      "initialize(address)": {
        "notice": "Initializes the factory."
      },
      "isStandardOptimismMintableERC721(address)": {
        "notice": "Tracks addresses created by this factory."
      }
    },
    "notice": "Factory contract for creating OptimismMintableERC721 contracts.",
    "version": 1
  },
  "storageLayout": {
    "storage": [
      {
        "astId": 1436,
        "contract": "contracts/universal/op-erc721/OptimismMintableERC721Factory.sol:OptimismMintableERC721Factory",
        "label": "_initialized",
        "offset": 0,
        "slot": "0",
        "type": "t_uint8"
      },
      {
        "astId": 1439,
        "contract": "contracts/universal/op-erc721/OptimismMintableERC721Factory.sol:OptimismMintableERC721Factory",
        "label": "_initializing",
        "offset": 1,
        "slot": "0",
        "type": "t_bool"
      },
      {
        "astId": 1855,
        "contract": "contracts/universal/op-erc721/OptimismMintableERC721Factory.sol:OptimismMintableERC721Factory",
        "label": "__gap",
        "offset": 0,
        "slot": "1",
        "type": "t_array(t_uint256)50_storage"
      },
      {
        "astId": 1316,
        "contract": "contracts/universal/op-erc721/OptimismMintableERC721Factory.sol:OptimismMintableERC721Factory",
        "label": "_owner",
        "offset": 0,
        "slot": "51",
        "type": "t_address"
      },
      {
        "astId": 1428,
        "contract": "contracts/universal/op-erc721/OptimismMintableERC721Factory.sol:OptimismMintableERC721Factory",
        "label": "__gap",
        "offset": 0,
        "slot": "52",
        "type": "t_array(t_uint256)49_storage"
      },
      {
        "astId": 7383,
        "contract": "contracts/universal/op-erc721/OptimismMintableERC721Factory.sol:OptimismMintableERC721Factory",
        "label": "bridge",
        "offset": 0,
        "slot": "101",
        "type": "t_address"
      },
      {
        "astId": 7388,
        "contract": "contracts/universal/op-erc721/OptimismMintableERC721Factory.sol:OptimismMintableERC721Factory",
        "label": "isStandardOptimismMintableERC721",
        "offset": 0,
        "slot": "102",
        "type": "t_mapping(t_address,t_bool)"
      }
    ],
    "types": {
      "t_address": {
        "encoding": "inplace",
        "label": "address",
        "numberOfBytes": "20"
      },
      "t_array(t_uint256)49_storage": {
        "base": "t_uint256",
        "encoding": "inplace",
        "label": "uint256[49]",
        "numberOfBytes": "1568"
      },
      "t_array(t_uint256)50_storage": {
        "base": "t_uint256",
        "encoding": "inplace",
        "label": "uint256[50]",
        "numberOfBytes": "1600"
      },
      "t_bool": {
        "encoding": "inplace",
        "label": "bool",
        "numberOfBytes": "1"
      },
      "t_mapping(t_address,t_bool)": {
        "encoding": "mapping",
        "key": "t_address",
        "label": "mapping(address => bool)",
        "numberOfBytes": "32",
        "value": "t_bool"
      },
      "t_uint256": {
        "encoding": "inplace",
        "label": "uint256",
        "numberOfBytes": "32"
      },
      "t_uint8": {
        "encoding": "inplace",
        "label": "uint8",
        "numberOfBytes": "1"
      }
    }
  }
}