{
  "abi": [
    {
      "inputs": [],
      "name": "OnlyDepositor",
      "type": "error"
    },
    {
      "inputs": [],
      "name": "DEPOSITOR_ACCOUNT",
      "outputs": [
        {
          "internalType": "address",
          "name": "",
          "type": "address"
        }
      ],
      "stateMutability": "view",
      "type": "function"
    },
    {
      "inputs": [],
      "name": "basefee",
      "outputs": [
        {
          "internalType": "uint256",
          "name": "",
          "type": "uint256"
        }
      ],
      "stateMutability": "view",
      "type": "function"
    },
    {
      "inputs": [],
      "name": "hash",
      "outputs": [
        {
          "internalType": "bytes32",
          "name": "",
          "type": "bytes32"
        }
      ],
      "stateMutability": "view",
      "type": "function"
    },
    {
      "inputs": [],
      "name": "number",
      "outputs": [
        {
          "internalType": "uint64",
          "name": "",
          "type": "uint64"
        }
      ],
      "stateMutability": "view",
      "type": "function"
    },
    {
      "inputs": [],
      "name": "sequenceNumber",
      "outputs": [
        {
          "internalType": "uint64",
          "name": "",
          "type": "uint64"
        }
      ],
      "stateMutability": "view",
      "type": "function"
    },
    {
      "inputs": [
        {
          "internalType": "uint64",
          "name": "_number",
          "type": "uint64"
        },
        {
          "internalType": "uint64",
          "name": "_timestamp",
          "type": "uint64"
        },
        {
          "internalType": "uint256",
          "name": "_basefee",
          "type": "uint256"
        },
        {
          "internalType": "bytes32",
          "name": "_hash",
          "type": "bytes32"
        },
        {
          "internalType": "uint64",
          "name": "_sequenceNumber",
          "type": "uint64"
        }
      ],
      "name": "setL1BlockValues",
      "outputs": [],
      "stateMutability": "nonpayable",
      "type": "function"
    },
    {
      "inputs": [],
      "name": "timestamp",
      "outputs": [
        {
          "internalType": "uint64",
          "name": "",
          "type": "uint64"
        }
      ],
      "stateMutability": "view",
      "type": "function"
    }
  ],
  "bytecode": {
    "object": "0x608060405234801561001057600080fd5b506102b0806100206000396000f3fe608060405234801561001057600080fd5b506004361061007d5760003560e01c806364ca23ef1161005b57806364ca23ef146100bc5780638381f58a146100e9578063b80777ea146100fd578063e591b2821461011d57600080fd5b8063042c2f571461008257806309bd5a60146100975780635cf24969146100b3575b600080fd5b61009561009036600461024c565b61015d565b005b6100a060025481565b6040519081526020015b60405180910390f35b6100a060015481565b6003546100d09067ffffffffffffffff1681565b60405167ffffffffffffffff90911681526020016100aa565b6000546100d09067ffffffffffffffff1681565b6000546100d09068010000000000000000900467ffffffffffffffff1681565b61013873deaddeaddeaddeaddeaddeaddeaddeaddead000181565b60405173ffffffffffffffffffffffffffffffffffffffff90911681526020016100aa565b3373deaddeaddeaddeaddeaddeaddeaddeaddead0001146101aa576040517fce8c104800000000000000000000000000000000000000000000000000000000815260040160405180910390fd5b6000805467ffffffffffffffff9687167fffffffffffffffffffffffffffffffff0000000000000000000000000000000090911617680100000000000000009587169590950294909417909355600191909155600255600380547fffffffffffffffffffffffffffffffffffffffffffffffff00000000000000001691909216179055565b803567ffffffffffffffff8116811461024757600080fd5b919050565b600080600080600060a0868803121561026457600080fd5b61026d8661022f565b945061027b6020870161022f565b935060408601359250606086013591506102976080870161022f565b9050929550929590935056fea164736f6c634300080a000a",
    "linkReferences": {}
  },
  "methodIdentifiers": {
    "DEPOSITOR_ACCOUNT()": "e591b282",
    "basefee()": "5cf24969",
    "hash()": "09bd5a60",
    "number()": "8381f58a",
    "sequenceNumber()": "64ca23ef",
    "setL1BlockValues(uint64,uint64,uint256,bytes32,uint64)": "042c2f57",
    "timestamp()": "b80777ea"
  }
}