{
    "_format": "hh-sol-artifact-1",
    "contractName": "L1LiquidityPool",
    "sourceName": "contracts/LP/L1LiquidityPool.sol",
    "abi": [
        {
            "inputs": [
                {
                    "internalType": "address",
                    "name": "_l1CrossDomainMessenger",
                    "type": "address"
                },
                {
                    "internalType": "address",
                    "name": "_l1CrossDomainMessengerFast",
                    "type": "address"
                }
            ],
            "stateMutability": "nonpayable",
            "type": "constructor"
        },
        {
            "anonymous": false,
            "inputs": [
                {
                    "indexed": false,
                    "internalType": "address",
                    "name": "sender",
                    "type": "address"
                },
                {
                    "indexed": false,
                    "internalType": "uint256",
                    "name": "amount",
                    "type": "uint256"
                },
                {
                    "indexed": false,
                    "internalType": "address",
                    "name": "tokenAddress",
                    "type": "address"
                }
            ],
            "name": "AddLiquidity",
            "type": "event"
        },
        {
            "anonymous": false,
            "inputs": [
                {
                    "indexed": false,
                    "internalType": "address",
                    "name": "sender",
                    "type": "address"
                },
                {
                    "indexed": false,
                    "internalType": "uint256",
                    "name": "receivedAmount",
                    "type": "uint256"
                },
                {
                    "indexed": false,
                    "internalType": "address",
                    "name": "tokenAddress",
                    "type": "address"
                }
            ],
            "name": "ClientDepositL1",
            "type": "event"
        },
        {
            "anonymous": false,
            "inputs": [
                {
                    "indexed": false,
                    "internalType": "address",
                    "name": "sender",
                    "type": "address"
                },
                {
                    "indexed": false,
                    "internalType": "uint256",
                    "name": "amount",
                    "type": "uint256"
                },
                {
                    "indexed": false,
                    "internalType": "uint256",
                    "name": "userRewardFee",
                    "type": "uint256"
                },
                {
                    "indexed": false,
                    "internalType": "uint256",
                    "name": "ownerRewardFee",
                    "type": "uint256"
                },
                {
                    "indexed": false,
                    "internalType": "uint256",
                    "name": "totalFee",
                    "type": "uint256"
                },
                {
                    "indexed": false,
                    "internalType": "address",
                    "name": "tokenAddress",
                    "type": "address"
                }
            ],
            "name": "ClientPayL1",
            "type": "event"
        },
        {
            "anonymous": false,
            "inputs": [
                {
                    "indexed": false,
                    "internalType": "address",
                    "name": "sender",
                    "type": "address"
                },
                {
                    "indexed": false,
                    "internalType": "address",
                    "name": "receiver",
                    "type": "address"
                },
                {
                    "indexed": false,
                    "internalType": "uint256",
                    "name": "amount",
                    "type": "uint256"
                },
                {
                    "indexed": false,
                    "internalType": "address",
                    "name": "tokenAddress",
                    "type": "address"
                }
            ],
            "name": "OwnerRecoverFee",
            "type": "event"
        },
        {
            "anonymous": false,
            "inputs": [
                {
                    "indexed": true,
                    "internalType": "address",
                    "name": "previousOwner",
                    "type": "address"
                },
                {
                    "indexed": true,
                    "internalType": "address",
                    "name": "newOwner",
                    "type": "address"
                }
            ],
            "name": "OwnershipTransferred",
            "type": "event"
        },
        {
            "anonymous": false,
            "inputs": [
                {
                    "indexed": false,
                    "internalType": "address",
                    "name": "sender",
                    "type": "address"
                },
                {
                    "indexed": false,
                    "internalType": "address",
                    "name": "receiver",
                    "type": "address"
                },
                {
                    "indexed": false,
                    "internalType": "uint256",
                    "name": "amount",
                    "type": "uint256"
                },
                {
                    "indexed": false,
                    "internalType": "address",
                    "name": "tokenAddress",
                    "type": "address"
                }
            ],
            "name": "WithdrawLiquidity",
            "type": "event"
        },
        {
            "anonymous": false,
            "inputs": [
                {
                    "indexed": false,
                    "internalType": "address",
                    "name": "sender",
                    "type": "address"
                },
                {
                    "indexed": false,
                    "internalType": "address",
                    "name": "receiver",
                    "type": "address"
                },
                {
                    "indexed": false,
                    "internalType": "uint256",
                    "name": "amount",
                    "type": "uint256"
                },
                {
                    "indexed": false,
                    "internalType": "address",
                    "name": "tokenAddress",
                    "type": "address"
                }
            ],
            "name": "WithdrawReward",
            "type": "event"
        },
        {
            "inputs": [],
            "name": "DEFAULT_FINALIZE_DEPOSIT_L2_GAS",
            "outputs": [
                {
                    "internalType": "uint32",
                    "name": "",
                    "type": "uint32"
                }
            ],
            "stateMutability": "view",
            "type": "function"
        },
        {
            "inputs": [
                {
                    "internalType": "uint256",
                    "name": "_amount",
                    "type": "uint256"
                },
                {
                    "internalType": "address",
                    "name": "_tokenAddress",
                    "type": "address"
                }
            ],
            "name": "addLiquidity",
            "outputs": [],
            "stateMutability": "payable",
            "type": "function"
        },
        {
            "inputs": [
                {
                    "internalType": "uint256",
                    "name": "_amount",
                    "type": "uint256"
                },
                {
                    "internalType": "address",
                    "name": "_tokenAddress",
                    "type": "address"
                }
            ],
            "name": "clientDepositL1",
            "outputs": [],
            "stateMutability": "payable",
            "type": "function"
        },
        {
            "inputs": [
                {
                    "internalType": "address payable",
                    "name": "_to",
                    "type": "address"
                },
                {
                    "internalType": "uint256",
                    "name": "_amount",
                    "type": "uint256"
                },
                {
                    "internalType": "address",
                    "name": "_tokenAddress",
                    "type": "address"
                }
            ],
            "name": "clientPayL1",
            "outputs": [],
            "stateMutability": "nonpayable",
            "type": "function"
        },
        {
            "inputs": [
                {
                    "internalType": "uint256",
                    "name": "_userRewardFeeRate",
                    "type": "uint256"
                },
                {
                    "internalType": "uint256",
                    "name": "_ownerRewardFeeRate",
                    "type": "uint256"
                },
                {
                    "internalType": "address",
                    "name": "_L2LiquidityPoolAddress",
                    "type": "address"
                }
            ],
            "name": "init",
            "outputs": [],
            "stateMutability": "nonpayable",
            "type": "function"
        },
        {
            "inputs": [],
            "name": "owner",
            "outputs": [
                {
                    "internalType": "address",
                    "name": "",
                    "type": "address"
                }
            ],
            "stateMutability": "view",
            "type": "function"
        },
        {
            "inputs": [
                {
                    "internalType": "uint256",
                    "name": "_amount",
                    "type": "uint256"
                },
                {
                    "internalType": "address",
                    "name": "_tokenAddress",
                    "type": "address"
                },
                {
                    "internalType": "address",
                    "name": "_to",
                    "type": "address"
                }
            ],
            "name": "ownerRecoverFee",
            "outputs": [],
            "stateMutability": "nonpayable",
            "type": "function"
        },
        {
            "inputs": [],
            "name": "ownerRewardFeeRate",
            "outputs": [
                {
                    "internalType": "uint256",
                    "name": "",
                    "type": "uint256"
                }
            ],
            "stateMutability": "view",
            "type": "function"
        },
        {
            "inputs": [
                {
                    "internalType": "address",
                    "name": "",
                    "type": "address"
                }
            ],
            "name": "poolInfo",
            "outputs": [
                {
                    "internalType": "address",
                    "name": "l1TokenAddress",
                    "type": "address"
                },
                {
                    "internalType": "address",
                    "name": "l2TokenAddress",
                    "type": "address"
                },
                {
                    "internalType": "uint256",
                    "name": "userDepositAmount",
                    "type": "uint256"
                },
                {
                    "internalType": "uint256",
                    "name": "lastAccUserReward",
                    "type": "uint256"
                },
                {
                    "internalType": "uint256",
                    "name": "accUserReward",
                    "type": "uint256"
                },
                {
                    "internalType": "uint256",
                    "name": "accUserRewardPerShare",
                    "type": "uint256"
                },
                {
                    "internalType": "uint256",
                    "name": "accOwnerReward",
                    "type": "uint256"
                },
                {
                    "internalType": "uint256",
                    "name": "startTime",
                    "type": "uint256"
                }
            ],
            "stateMutability": "view",
            "type": "function"
        },
        {
            "inputs": [
                {
                    "internalType": "address",
                    "name": "_l1TokenAddress",
                    "type": "address"
                },
                {
                    "internalType": "address",
                    "name": "_l2TokenAddress",
                    "type": "address"
                }
            ],
            "name": "registerPool",
            "outputs": [],
            "stateMutability": "nonpayable",
            "type": "function"
        },
        {
            "inputs": [],
            "name": "relayerMessenger",
            "outputs": [
                {
                    "internalType": "address",
                    "name": "",
                    "type": "address"
                }
            ],
            "stateMutability": "view",
            "type": "function"
        },
        {
            "inputs": [],
            "name": "renounceOwnership",
            "outputs": [],
            "stateMutability": "nonpayable",
            "type": "function"
        },
        {
            "inputs": [],
            "name": "senderMessenger",
            "outputs": [
                {
                    "internalType": "address",
                    "name": "",
                    "type": "address"
                }
            ],
            "stateMutability": "view",
            "type": "function"
        },
        {
            "inputs": [],
            "name": "totalFeeRate",
            "outputs": [
                {
                    "internalType": "uint256",
                    "name": "",
                    "type": "uint256"
                }
            ],
            "stateMutability": "view",
            "type": "function"
        },
        {
            "inputs": [
                {
                    "internalType": "address",
                    "name": "newOwner",
                    "type": "address"
                }
            ],
            "name": "transferOwnership",
            "outputs": [],
            "stateMutability": "nonpayable",
            "type": "function"
        },
        {
            "inputs": [
                {
                    "internalType": "address",
                    "name": "_tokenAddress",
                    "type": "address"
                }
            ],
            "name": "updateUserRewardPerShare",
            "outputs": [],
            "stateMutability": "nonpayable",
            "type": "function"
        },
        {
            "inputs": [
                {
                    "internalType": "address",
                    "name": "",
                    "type": "address"
                },
                {
                    "internalType": "address",
                    "name": "",
                    "type": "address"
                }
            ],
            "name": "userInfo",
            "outputs": [
                {
                    "internalType": "uint256",
                    "name": "amount",
                    "type": "uint256"
                },
                {
                    "internalType": "uint256",
                    "name": "rewardDebt",
                    "type": "uint256"
                },
                {
                    "internalType": "uint256",
                    "name": "pendingReward",
                    "type": "uint256"
                }
            ],
            "stateMutability": "view",
            "type": "function"
        },
        {
            "inputs": [],
            "name": "userRewardFeeRate",
            "outputs": [
                {
                    "internalType": "uint256",
                    "name": "",
                    "type": "uint256"
                }
            ],
            "stateMutability": "view",
            "type": "function"
        },
        {
            "inputs": [
                {
                    "internalType": "uint256",
                    "name": "_amount",
                    "type": "uint256"
                },
                {
                    "internalType": "address",
                    "name": "_tokenAddress",
                    "type": "address"
                },
                {
                    "internalType": "address payable",
                    "name": "_to",
                    "type": "address"
                }
            ],
            "name": "withdrawLiquidity",
            "outputs": [],
            "stateMutability": "nonpayable",
            "type": "function"
        },
        {
            "inputs": [
                {
                    "internalType": "uint256",
                    "name": "_amount",
                    "type": "uint256"
                },
                {
                    "internalType": "address",
                    "name": "_tokenAddress",
                    "type": "address"
                },
                {
                    "internalType": "address",
                    "name": "_to",
                    "type": "address"
                }
            ],
            "name": "withdrawReward",
            "outputs": [],
            "stateMutability": "nonpayable",
            "type": "function"
        }
    ],
    "bytecode": "0x608060405262124f80600960006101000a81548163ffffffff021916908363ffffffff1602179055503480156200003557600080fd5b50604051620039653803806200396583398181016040528101906200005b9190620001b8565b8181816000806101000a81548173ffffffffffffffffffffffffffffffffffffffff021916908373ffffffffffffffffffffffffffffffffffffffff16021790555080600160006101000a81548173ffffffffffffffffffffffffffffffffffffffff021916908373ffffffffffffffffffffffffffffffffffffffff16021790555050506000620000f26200019960201b60201c565b905080600260006101000a81548173ffffffffffffffffffffffffffffffffffffffff021916908373ffffffffffffffffffffffffffffffffffffffff1602179055508073ffffffffffffffffffffffffffffffffffffffff16600073ffffffffffffffffffffffffffffffffffffffff167f8be0079c531659141344cd1fd0a4f28419497f9722a3daafe3b4186f6b6457e060405160405180910390a350505062000247565b600033905090565b600081519050620001b2816200022d565b92915050565b60008060408385031215620001cc57600080fd5b6000620001dc85828601620001a1565b9250506020620001ef85828601620001a1565b9150509250929050565b600062000206826200020d565b9050919050565b600073ffffffffffffffffffffffffffffffffffffffff82169050919050565b6200023881620001f9565b81146200024457600080fd5b50565b61370e80620002576000396000f3fe60806040526004361061011f5760003560e01c8063818c021e116100a0578063c95f9d0e11610064578063c95f9d0e146103b8578063cf26fb1b146103d4578063f2fde38b146103fd578063f3251e1e14610426578063f64b5f441461044f5761011f565b8063818c021e146102ca57806381e6bdac146102f55780638da5cb5b1461031e5780639423169b146103495780639a7b5f11146103745761011f565b8063502a2189116100e7578063502a21891461020b578063508e01c41461023657806368be42ca14610261578063715018a61461028a5780637286e5e5146102a15761011f565b80630f208beb1461012457806312f54c1a14610163578063358fc07e1461018c578063435fd571146101b757806349561dc4146101e2575b600080fd5b34801561013057600080fd5b5061014b60048036038101906101469190612e6d565b61046b565b60405161015a939291906134c2565b60405180910390f35b34801561016f57600080fd5b5061018a60048036038101906101859190612df5565b6104a2565b005b34801561019857600080fd5b506101a1610580565b6040516101ae91906134a7565b60405180910390f35b3480156101c357600080fd5b506101cc610586565b6040516101d991906134a7565b60405180910390f35b3480156101ee57600080fd5b5061020960048036038101906102049190612f0e565b61058c565b005b34801561021757600080fd5b506102206109e7565b60405161022d91906134a7565b60405180910390f35b34801561024257600080fd5b5061024b6109ed565b60405161025891906131f5565b60405180910390f35b34801561026d57600080fd5b5061028860048036038101906102839190612f5d565b610a11565b005b34801561029657600080fd5b5061029f610df0565b005b3480156102ad57600080fd5b506102c860048036038101906102c39190612e6d565b610f60565b005b3480156102d657600080fd5b506102df611261565b6040516102ec91906131f5565b60405180910390f35b34801561030157600080fd5b5061031c60048036038101906103179190612f0e565b611287565b005b34801561032a57600080fd5b506103336115cc565b60405161034091906131f5565b60405180910390f35b34801561035557600080fd5b5061035e6115f6565b60405161036b91906134f9565b60405180910390f35b34801561038057600080fd5b5061039b60048036038101906103969190612df5565b61160c565b6040516103af989796959493929190613369565b60405180910390f35b6103d260048036038101906103cd9190612ed2565b611694565b005b3480156103e057600080fd5b506103fb60048036038101906103f69190612e1e565b6119e0565b005b34801561040957600080fd5b50610424600480360381019061041f9190612df5565b612011565b005b34801561043257600080fd5b5061044d60048036038101906104489190612fac565b612206565b005b61046960048036038101906104649190612ed2565b612312565b005b6004602052816000526040600020602052806000526040600020600091509150508060000154908060010154908060020154905083565b6000600360008373ffffffffffffffffffffffffffffffffffffffff1673ffffffffffffffffffffffffffffffffffffffff168152602001908152602001600020905080600401548160030154101561057c5760006105128260030154836004015461257290919063ffffffff16565b9050600082600201541461056d57610564610551836002015461054364e8d4a51000856125f590919063ffffffff16565b61267b90919063ffffffff16565b836005015461270490919063ffffffff16565b82600501819055505b81600401548260030181905550505b5050565b60085481565b60075481565b61059461278c565b73ffffffffffffffffffffffffffffffffffffffff166105b26115cc565b73ffffffffffffffffffffffffffffffffffffffff161461063b576040517f08c379a00000000000000000000000000000000000000000000000000000000081526004018080602001828103825260208152602001807f4f776e61626c653a2063616c6c6572206973206e6f7420746865206f776e657281525060200191505060405180910390fd5b6000600360008473ffffffffffffffffffffffffffffffffffffffff1673ffffffffffffffffffffffffffffffffffffffff16815260200190815260200160002090506000600460008573ffffffffffffffffffffffffffffffffffffffff1673ffffffffffffffffffffffffffffffffffffffff16815260200190815260200160002060003373ffffffffffffffffffffffffffffffffffffffff1673ffffffffffffffffffffffffffffffffffffffff1681526020019081526020016000209050600073ffffffffffffffffffffffffffffffffffffffff168260010160009054906101000a900473ffffffffffffffffffffffffffffffffffffffff1673ffffffffffffffffffffffffffffffffffffffff161415610792576040517f08c379a000000000000000000000000000000000000000000000000000000000815260040161078990613427565b60405180910390fd5b60006107f26107df83600101546107d164e8d4a510006107c3886005015488600001546125f590919063ffffffff16565b61267b90919063ffffffff16565b61257290919063ffffffff16565b836002015461270490919063ffffffff16565b905085811015610837576040517f08c379a000000000000000000000000000000000000000000000000000000000815260040161082e90613467565b60405180910390fd5b61084a868261257290919063ffffffff16565b826002018190555061088464e8d4a51000610876856005015485600001546125f590919063ffffffff16565b61267b90919063ffffffff16565b8260010181905550600073ffffffffffffffffffffffffffffffffffffffff168573ffffffffffffffffffffffffffffffffffffffff16146108f0576108eb84878773ffffffffffffffffffffffffffffffffffffffff166127949092919063ffffffff16565b6109a2565b60008473ffffffffffffffffffffffffffffffffffffffff166108fc88604051610919906131e0565b600060405180830381858888f193505050503d8060008114610957576040519150601f19603f3d011682016040523d82523d6000602084013e61095c565b606091505b50509050806109a0576040517f08c379a000000000000000000000000000000000000000000000000000000000815260040161099790613447565b60405180910390fd5b505b7f3cb7cb475a33eda02ee6e719b6c2fc0c899157cfc6f098daf545354dbbce41ec338588886040516109d79493929190613255565b60405180910390a1505050505050565b60065481565b60008054906101000a900473ffffffffffffffffffffffffffffffffffffffff1681565b6000600360008473ffffffffffffffffffffffffffffffffffffffff1673ffffffffffffffffffffffffffffffffffffffff16815260200190815260200160002090506000600460008573ffffffffffffffffffffffffffffffffffffffff1673ffffffffffffffffffffffffffffffffffffffff16815260200190815260200160002060003373ffffffffffffffffffffffffffffffffffffffff1673ffffffffffffffffffffffffffffffffffffffff1681526020019081526020016000209050600073ffffffffffffffffffffffffffffffffffffffff168260010160009054906101000a900473ffffffffffffffffffffffffffffffffffffffff1673ffffffffffffffffffffffffffffffffffffffff161415610b68576040517f08c379a0000000000000000000000000000000000000000000000000000000008152600401610b5f90613427565b60405180910390fd5b8481600001541015610baf576040517f08c379a0000000000000000000000000000000000000000000000000000000008152600401610ba690613407565b60405180910390fd5b610bb8846104a2565b610c16610c038260010154610bf564e8d4a51000610be7876005015487600001546125f590919063ffffffff16565b61267b90919063ffffffff16565b61257290919063ffffffff16565b826002015461270490919063ffffffff16565b8160020181905550610c3585826000015461257290919063ffffffff16565b8160000181905550610c6f64e8d4a51000610c61846005015484600001546125f590919063ffffffff16565b61267b90919063ffffffff16565b8160010181905550610c8e85836002015461257290919063ffffffff16565b8260020181905550600073ffffffffffffffffffffffffffffffffffffffff168473ffffffffffffffffffffffffffffffffffffffff1614610cfa57610cf583868673ffffffffffffffffffffffffffffffffffffffff166127949092919063ffffffff16565b610dac565b60008373ffffffffffffffffffffffffffffffffffffffff166108fc87604051610d23906131e0565b600060405180830381858888f193505050503d8060008114610d61576040519150601f19603f3d011682016040523d82523d6000602084013e610d66565b606091505b5050905080610daa576040517f08c379a0000000000000000000000000000000000000000000000000000000008152600401610da190613447565b60405180910390fd5b505b7ffa2e8fcf14fd6ea11b6ebe7caf7de210198b8fe1eaf0e06d19f8d87c73860c4633848787604051610de19493929190613210565b60405180910390a15050505050565b610df861278c565b73ffffffffffffffffffffffffffffffffffffffff16610e166115cc565b73ffffffffffffffffffffffffffffffffffffffff1614610e9f576040517f08c379a00000000000000000000000000000000000000000000000000000000081526004018080602001828103825260208152602001807f4f776e61626c653a2063616c6c6572206973206e6f7420746865206f776e657281525060200191505060405180910390fd5b600073ffffffffffffffffffffffffffffffffffffffff16600260009054906101000a900473ffffffffffffffffffffffffffffffffffffffff1673ffffffffffffffffffffffffffffffffffffffff167f8be0079c531659141344cd1fd0a4f28419497f9722a3daafe3b4186f6b6457e060405160405180910390a36000600260006101000a81548173ffffffffffffffffffffffffffffffffffffffff021916908373ffffffffffffffffffffffffffffffffffffffff160217905550565b610f6861278c565b73ffffffffffffffffffffffffffffffffffffffff16610f866115cc565b73ffffffffffffffffffffffffffffffffffffffff161461100f576040517f08c379a00000000000000000000000000000000000000000000000000000000081526004018080602001828103825260208152602001807f4f776e61626c653a2063616c6c6572206973206e6f7420746865206f776e657281525060200191505060405180910390fd5b6000600360008473ffffffffffffffffffffffffffffffffffffffff1673ffffffffffffffffffffffffffffffffffffffff1681526020019081526020016000209050600073ffffffffffffffffffffffffffffffffffffffff168160010160009054906101000a900473ffffffffffffffffffffffffffffffffffffffff1673ffffffffffffffffffffffffffffffffffffffff16146110e5576040517f08c379a00000000000000000000000000000000000000000000000000000000081526004016110dc90613487565b60405180910390fd5b6040518061010001604052808473ffffffffffffffffffffffffffffffffffffffff1681526020018373ffffffffffffffffffffffffffffffffffffffff168152602001600081526020016000815260200160008152602001600081526020016000815260200142815250600360008573ffffffffffffffffffffffffffffffffffffffff1673ffffffffffffffffffffffffffffffffffffffff16815260200190815260200160002060008201518160000160006101000a81548173ffffffffffffffffffffffffffffffffffffffff021916908373ffffffffffffffffffffffffffffffffffffffff16021790555060208201518160010160006101000a81548173ffffffffffffffffffffffffffffffffffffffff021916908373ffffffffffffffffffffffffffffffffffffffff16021790555060408201518160020155606082015181600301556080820151816004015560a0820151816005015560c0820151816006015560e08201518160070155905050505050565b600160009054906101000a900473ffffffffffffffffffffffffffffffffffffffff1681565b61128f61278c565b73ffffffffffffffffffffffffffffffffffffffff166112ad6115cc565b73ffffffffffffffffffffffffffffffffffffffff1614611336576040517f08c379a00000000000000000000000000000000000000000000000000000000081526004018080602001828103825260208152602001807f4f776e61626c653a2063616c6c6572206973206e6f7420746865206f776e657281525060200191505060405180910390fd5b6000600360008473ffffffffffffffffffffffffffffffffffffffff1673ffffffffffffffffffffffffffffffffffffffff1681526020019081526020016000209050600073ffffffffffffffffffffffffffffffffffffffff168160010160009054906101000a900473ffffffffffffffffffffffffffffffffffffffff1673ffffffffffffffffffffffffffffffffffffffff16141561140d576040517f08c379a000000000000000000000000000000000000000000000000000000000815260040161140490613427565b60405180910390fd5b8381600601541015611454576040517f08c379a000000000000000000000000000000000000000000000000000000000815260040161144b906133e7565b60405180910390fd5b600073ffffffffffffffffffffffffffffffffffffffff168373ffffffffffffffffffffffffffffffffffffffff16146114b8576114b382858573ffffffffffffffffffffffffffffffffffffffff166127949092919063ffffffff16565b61156a565b60008273ffffffffffffffffffffffffffffffffffffffff166108fc866040516114e1906131e0565b600060405180830381858888f193505050503d806000811461151f576040519150601f19603f3d011682016040523d82523d6000602084013e611524565b606091505b5050905080611568576040517f08c379a000000000000000000000000000000000000000000000000000000000815260040161155f90613447565b60405180910390fd5b505b61158184826006015461257290919063ffffffff16565b81600601819055507f3cb71b9a1fb601579f96812b9f86ab5e914fc3e54c98d5f84d95581b2b9884f3338386866040516115be9493929190613255565b60405180910390a150505050565b6000600260009054906101000a900473ffffffffffffffffffffffffffffffffffffffff16905090565b600960009054906101000a900463ffffffff1681565b60036020528060005260406000206000915090508060000160009054906101000a900473ffffffffffffffffffffffffffffffffffffffff16908060010160009054906101000a900473ffffffffffffffffffffffffffffffffffffffff16908060020154908060030154908060040154908060050154908060060154908060070154905088565b600034146116a457349150600090505b6000600360008373ffffffffffffffffffffffffffffffffffffffff1673ffffffffffffffffffffffffffffffffffffffff16815260200190815260200160002090506000600460008473ffffffffffffffffffffffffffffffffffffffff1673ffffffffffffffffffffffffffffffffffffffff16815260200190815260200160002060003373ffffffffffffffffffffffffffffffffffffffff1673ffffffffffffffffffffffffffffffffffffffff1681526020019081526020016000209050600073ffffffffffffffffffffffffffffffffffffffff168260010160009054906101000a900473ffffffffffffffffffffffffffffffffffffffff1673ffffffffffffffffffffffffffffffffffffffff1614156117fb576040517f08c379a00000000000000000000000000000000000000000000000000000000081526004016117f290613427565b60405180910390fd5b611804836104a2565b6000816000015411156118c85761186f61185c826001015461184e64e8d4a51000611840876005015487600001546125f590919063ffffffff16565b61267b90919063ffffffff16565b61257290919063ffffffff16565b826002015461270490919063ffffffff16565b81600201819055506118bb64e8d4a510006118ad846005015461189f88866000015461270490919063ffffffff16565b6125f590919063ffffffff16565b61267b90919063ffffffff16565b81600101819055506118ff565b6118f664e8d4a510006118e88460050154876125f590919063ffffffff16565b61267b90919063ffffffff16565b81600101819055505b600073ffffffffffffffffffffffffffffffffffffffff168373ffffffffffffffffffffffffffffffffffffffff1614611961576119603330868673ffffffffffffffffffffffffffffffffffffffff16612836909392919063ffffffff16565b5b61197884826000015461270490919063ffffffff16565b816000018190555061199784836002015461270490919063ffffffff16565b82600201819055507f5852d1d46e583f7e92c2a572221de0e681d82ef71f489847e056b9445c0147363385856040516119d2939291906132d1565b60405180910390a150505050565b600560009054906101000a900473ffffffffffffffffffffffffffffffffffffffff16611a0b6128f7565b73ffffffffffffffffffffffffffffffffffffffff163373ffffffffffffffffffffffffffffffffffffffff1614611a8e576040517f08c379a000000000000000000000000000000000000000000000000000000000815260040180806020018281038252602e815260200180613630602e913960400191505060405180910390fd5b8073ffffffffffffffffffffffffffffffffffffffff16611aad6128f7565b73ffffffffffffffffffffffffffffffffffffffff16636e296e456040518163ffffffff1660e01b815260040160206040518083038186803b158015611af257600080fd5b505afa158015611b06573d6000803e3d6000fd5b505050506040513d6020811015611b1c57600080fd5b810190808051906020019092919050505073ffffffffffffffffffffffffffffffffffffffff1614611b99576040517f08c379a000000000000000000000000000000000000000000000000000000000815260040180806020018281038252603081526020018061367f6030913960400191505060405180910390fd5b600080600360008573ffffffffffffffffffffffffffffffffffffffff1673ffffffffffffffffffffffffffffffffffffffff16815260200190815260200160002090506000611c086103e8611bfa600754896125f590919063ffffffff16565b61267b90919063ffffffff16565b90506000611c356103e8611c276008548a6125f590919063ffffffff16565b61267b90919063ffffffff16565b90506000611c4c828461270490919063ffffffff16565b90506000611c63828a61257290919063ffffffff16565b9050600073ffffffffffffffffffffffffffffffffffffffff168873ffffffffffffffffffffffffffffffffffffffff1614611da1578773ffffffffffffffffffffffffffffffffffffffff166370a08231306040518263ffffffff1660e01b8152600401611cd291906131f5565b60206040518083038186803b158015611cea57600080fd5b505afa158015611cfe573d6000803e3d6000fd5b505050506040513d601f19601f82011682018060405250810190611d229190612ea9565b811115611d325760019550611d9c565b611d4984866004015461270490919063ffffffff16565b8560040181905550611d6883866006015461270490919063ffffffff16565b8560060181905550611d9b8a828a73ffffffffffffffffffffffffffffffffffffffff166127949092919063ffffffff16565b5b611ea3565b47811115611db25760019550611ea2565b611dc984866004015461270490919063ffffffff16565b8560040181905550611de883866006015461270490919063ffffffff16565b856006018190555060008a73ffffffffffffffffffffffffffffffffffffffff166108fc83604051611e19906131e0565b600060405180830381858888f193505050503d8060008114611e57576040519150601f19603f3d011682016040523d82523d6000602084013e611e5c565b606091505b5050905080611ea0576040517f08c379a0000000000000000000000000000000000000000000000000000000008152600401611e9790613447565b60405180910390fd5b505b5b8515611fc357600063bd2d1cab60e01b8b8b600360008d73ffffffffffffffffffffffffffffffffffffffff1673ffffffffffffffffffffffffffffffffffffffff16815260200190815260200160002060010160009054906101000a900473ffffffffffffffffffffffffffffffffffffffff16604051602401611f2a9392919061329a565b604051602081830303815290604052907bffffffffffffffffffffffffffffffffffffffffffffffffffffffff19166020820180517bffffffffffffffffffffffffffffffffffffffffffffffffffffffff83818316178352505050509050611fbd600560009054906101000a900473ffffffffffffffffffffffffffffffffffffffff16611fb7612921565b8361293b565b50612005565b7ffe1f8646fcb202e48551fbfd19085116c64b291c60cede7dce3665a57c05e3818a828686868d604051611ffc96959493929190613308565b60405180910390a15b50505050505050505050565b61201961278c565b73ffffffffffffffffffffffffffffffffffffffff166120376115cc565b73ffffffffffffffffffffffffffffffffffffffff16146120c0576040517f08c379a00000000000000000000000000000000000000000000000000000000081526004018080602001828103825260208152602001807f4f776e61626c653a2063616c6c6572206973206e6f7420746865206f776e657281525060200191505060405180910390fd5b600073ffffffffffffffffffffffffffffffffffffffff168173ffffffffffffffffffffffffffffffffffffffff161415612146576040517f08c379a000000000000000000000000000000000000000000000000000000000815260040180806020018281038252602681526020018061360a6026913960400191505060405180910390fd5b8073ffffffffffffffffffffffffffffffffffffffff16600260009054906101000a900473ffffffffffffffffffffffffffffffffffffffff1673ffffffffffffffffffffffffffffffffffffffff167f8be0079c531659141344cd1fd0a4f28419497f9722a3daafe3b4186f6b6457e060405160405180910390a380600260006101000a81548173ffffffffffffffffffffffffffffffffffffffff021916908373ffffffffffffffffffffffffffffffffffffffff16021790555050565b61220e61278c565b73ffffffffffffffffffffffffffffffffffffffff1661222c6115cc565b73ffffffffffffffffffffffffffffffffffffffff16146122b5576040517f08c379a00000000000000000000000000000000000000000000000000000000081526004018080602001828103825260208152602001807f4f776e61626c653a2063616c6c6572206973206e6f7420746865206f776e657281525060200191505060405180910390fd5b818301600681905550826007819055508160088190555080600560006101000a81548173ffffffffffffffffffffffffffffffffffffffff021916908373ffffffffffffffffffffffffffffffffffffffff160217905550505050565b6000341461232257349150600090505b6000600360008373ffffffffffffffffffffffffffffffffffffffff1673ffffffffffffffffffffffffffffffffffffffff1681526020019081526020016000209050600073ffffffffffffffffffffffffffffffffffffffff168160010160009054906101000a900473ffffffffffffffffffffffffffffffffffffffff1673ffffffffffffffffffffffffffffffffffffffff1614156123f9576040517f08c379a00000000000000000000000000000000000000000000000000000000081526004016123f090613427565b60405180910390fd5b600073ffffffffffffffffffffffffffffffffffffffff168273ffffffffffffffffffffffffffffffffffffffff161461245b5761245a3330858573ffffffffffffffffffffffffffffffffffffffff16612836909392919063ffffffff16565b5b600063bd2d1cab60e01b33858460010160009054906101000a900473ffffffffffffffffffffffffffffffffffffffff1660405160240161249e9392919061329a565b604051602081830303815290604052907bffffffffffffffffffffffffffffffffffffffffffffffffffffffff19166020820180517bffffffffffffffffffffffffffffffffffffffffffffffffffffffff83818316178352505050509050612531600560009054906101000a900473ffffffffffffffffffffffffffffffffffffffff1661252b612921565b8361293b565b7f860e25c3d48fb81f0b272550dd125a5a6ab20ee7511dd3e250d04964bd37a7a9338585604051612564939291906132d1565b60405180910390a150505050565b6000828211156125ea576040517f08c379a000000000000000000000000000000000000000000000000000000000815260040180806020018281038252601e8152602001807f536166654d6174683a207375627472616374696f6e206f766572666c6f77000081525060200191505060405180910390fd5b818303905092915050565b6000808314156126085760009050612675565b600082840290508284828161261957fe5b0414612670576040517f08c379a000000000000000000000000000000000000000000000000000000000815260040180806020018281038252602181526020018061365e6021913960400191505060405180910390fd5b809150505b92915050565b60008082116126f2576040517f08c379a000000000000000000000000000000000000000000000000000000000815260040180806020018281038252601a8152602001807f536166654d6174683a206469766973696f6e206279207a65726f00000000000081525060200191505060405180910390fd5b8183816126fb57fe5b04905092915050565b600080828401905083811015612782576040517f08c379a000000000000000000000000000000000000000000000000000000000815260040180806020018281038252601b8152602001807f536166654d6174683a206164646974696f6e206f766572666c6f77000000000081525060200191505060405180910390fd5b8091505092915050565b600033905090565b6128318363a9059cbb60e01b8484604051602401808373ffffffffffffffffffffffffffffffffffffffff16815260200182815260200192505050604051602081830303815290604052907bffffffffffffffffffffffffffffffffffffffffffffffffffffffff19166020820180517bffffffffffffffffffffffffffffffffffffffffffffffffffffffff8381831617835250505050612a43565b505050565b6128f1846323b872dd60e01b858585604051602401808473ffffffffffffffffffffffffffffffffffffffff1681526020018373ffffffffffffffffffffffffffffffffffffffff1681526020018281526020019350505050604051602081830303815290604052907bffffffffffffffffffffffffffffffffffffffffffffffffffffffff19166020820180517bffffffffffffffffffffffffffffffffffffffffffffffffffffffff8381831617835250505050612a43565b50505050565b6000600160009054906101000a900473ffffffffffffffffffffffffffffffffffffffff16905090565b6000600960009054906101000a900463ffffffff16905090565b612943612b32565b73ffffffffffffffffffffffffffffffffffffffff16633dbb202b8483856040518463ffffffff1660e01b8152600401808473ffffffffffffffffffffffffffffffffffffffff168152602001806020018363ffffffff168152602001828103825284818151815260200191508051906020019080838360005b838110156129d85780820151818401526020810190506129bd565b50505050905090810190601f168015612a055780820380516001836020036101000a031916815260200191505b50945050505050600060405180830381600087803b158015612a2657600080fd5b505af1158015612a3a573d6000803e3d6000fd5b50505050505050565b6000612aa5826040518060400160405280602081526020017f5361666545524332303a206c6f772d6c6576656c2063616c6c206661696c65648152508573ffffffffffffffffffffffffffffffffffffffff16612b5b9092919063ffffffff16565b9050600081511115612b2d57808060200190516020811015612ac657600080fd5b8101908080519060200190929190505050612b2c576040517f08c379a000000000000000000000000000000000000000000000000000000000815260040180806020018281038252602a8152602001806136af602a913960400191505060405180910390fd5b5b505050565b60008060009054906101000a900473ffffffffffffffffffffffffffffffffffffffff16905090565b6060612b6a8484600085612b73565b90509392505050565b6060612b7e85612cc2565b612bf0576040517f08c379a000000000000000000000000000000000000000000000000000000000815260040180806020018281038252601d8152602001807f416464726573733a2063616c6c20746f206e6f6e2d636f6e747261637400000081525060200191505060405180910390fd5b6000808673ffffffffffffffffffffffffffffffffffffffff1685876040518082805190602001908083835b60208310612c3f5780518252602082019150602081019050602083039250612c1c565b6001836020036101000a03801982511681845116808217855250505050505090500191505060006040518083038185875af1925050503d8060008114612ca1576040519150601f19603f3d011682016040523d82523d6000602084013e612ca6565b606091505b5091509150612cb6828286612cd5565b92505050949350505050565b600080823b905060008111915050919050565b60608315612ce557829050612d9a565b600083511115612cf85782518084602001fd5b816040517f08c379a00000000000000000000000000000000000000000000000000000000081526004018080602001828103825283818151815260200191508051906020019080838360005b83811015612d5f578082015181840152602081019050612d44565b50505050905090810190601f168015612d8c5780820380516001836020036101000a031916815260200191505b509250505060405180910390fd5b9392505050565b600081359050612db0816135c4565b92915050565b600081359050612dc5816135db565b92915050565b600081359050612dda816135f2565b92915050565b600081519050612def816135f2565b92915050565b600060208284031215612e0757600080fd5b6000612e1584828501612da1565b91505092915050565b600080600060608486031215612e3357600080fd5b6000612e4186828701612db6565b9350506020612e5286828701612dcb565b9250506040612e6386828701612da1565b9150509250925092565b60008060408385031215612e8057600080fd5b6000612e8e85828601612da1565b9250506020612e9f85828601612da1565b9150509250929050565b600060208284031215612ebb57600080fd5b6000612ec984828501612de0565b91505092915050565b60008060408385031215612ee557600080fd5b6000612ef385828601612dcb565b9250506020612f0485828601612da1565b9150509250929050565b600080600060608486031215612f2357600080fd5b6000612f3186828701612dcb565b9350506020612f4286828701612da1565b9250506040612f5386828701612da1565b9150509250925092565b600080600060608486031215612f7257600080fd5b6000612f8086828701612dcb565b9350506020612f9186828701612da1565b9250506040612fa286828701612db6565b9150509250925092565b600080600060608486031215612fc157600080fd5b6000612fcf86828701612dcb565b9350506020612fe086828701612dcb565b9250506040612ff186828701612da1565b9150509250925092565b6130048161358e565b82525050565b61301381613542565b82525050565b61302281613530565b82525050565b6000613035601b8361351f565b91507f4f776e657220526577617264205769746864726177204572726f7200000000006000830152602082019050919050565b6000613075600e8361351f565b91507f5769746864726177204572726f720000000000000000000000000000000000006000830152602082019050919050565b60006130b5601a8361351f565b91507f546f6b656e2041646472657373204e6f742052656769737465720000000000006000830152602082019050919050565b60006130f560148361351f565b91507f4661696c656420746f2073656e642045746865720000000000000000000000006000830152602082019050919050565b600061313560158361351f565b91507f576974686472617720526577617264204572726f7200000000000000000000006000830152602082019050919050565b6000613175600083613514565b9150600082019050919050565b600061318f60208361351f565b91507f546f6b656e204164647265737320416c726561647920526567697374657265646000830152602082019050919050565b6131cb81613574565b82525050565b6131da8161357e565b82525050565b60006131eb82613168565b9150819050919050565b600060208201905061320a6000830184613019565b92915050565b60006080820190506132256000830187612ffb565b6132326020830186612ffb565b61323f60408301856131c2565b61324c6060830184613019565b95945050505050565b600060808201905061326a6000830187612ffb565b6132776020830186613019565b61328460408301856131c2565b6132916060830184613019565b95945050505050565b60006060820190506132af600083018661300a565b6132bc60208301856131c2565b6132c96040830184613019565b949350505050565b60006060820190506132e66000830186612ffb565b6132f360208301856131c2565b6133006040830184613019565b949350505050565b600060c08201905061331d6000830189612ffb565b61332a60208301886131c2565b61333760408301876131c2565b61334460608301866131c2565b61335160808301856131c2565b61335e60a0830184613019565b979650505050505050565b60006101008201905061337f600083018b613019565b61338c602083018a613019565b61339960408301896131c2565b6133a660608301886131c2565b6133b360808301876131c2565b6133c060a08301866131c2565b6133cd60c08301856131c2565b6133da60e08301846131c2565b9998505050505050505050565b6000602082019050818103600083015261340081613028565b9050919050565b6000602082019050818103600083015261342081613068565b9050919050565b60006020820190508181036000830152613440816130a8565b9050919050565b60006020820190508181036000830152613460816130e8565b9050919050565b6000602082019050818103600083015261348081613128565b9050919050565b600060208201905081810360008301526134a081613182565b9050919050565b60006020820190506134bc60008301846131c2565b92915050565b60006060820190506134d760008301866131c2565b6134e460208301856131c2565b6134f160408301846131c2565b949350505050565b600060208201905061350e60008301846131d1565b92915050565b600081905092915050565b600082825260208201905092915050565b600061353b82613554565b9050919050565b600061354d82613554565b9050919050565b600073ffffffffffffffffffffffffffffffffffffffff82169050919050565b6000819050919050565b600063ffffffff82169050919050565b6000613599826135a0565b9050919050565b60006135ab826135b2565b9050919050565b60006135bd82613554565b9050919050565b6135cd81613530565b81146135d857600080fd5b50565b6135e481613542565b81146135ef57600080fd5b50565b6135fb81613574565b811461360657600080fd5b5056fe4f776e61626c653a206e6577206f776e657220697320746865207a65726f20616464726573734f564d5f58434841494e3a206d657373656e67657220636f6e747261637420756e61757468656e74696361746564536166654d6174683a206d756c7469706c69636174696f6e206f766572666c6f774f564d5f58434841494e3a2077726f6e672073656e646572206f662063726f73732d646f6d61696e206d6573736167655361666545524332303a204552433230206f7065726174696f6e20646964206e6f742073756363656564a264697066735822122068a8b767bf3b45486e2f330a06e279a24b8f49fdac59f5f22cd09a77e86b7a6a64736f6c63430007060033",
    "linkReferences": {},
    "deployedLinkReferences": {}
}