{
  "_format": "hh-sol-artifact-1",
  "contractName": "L1LiquidityPool",
  "sourceName": "contracts/LP/L1LiquidityPool.sol",
  "abi": [
    {
      "inputs": [
        {
          "internalType": "address",
          "name": "_l1CrossDomainMessenger",
          "type": "address"
        },
        {
          "internalType": "address",
          "name": "_l1CrossDomainMessengerFast",
          "type": "address"
        }
      ],
      "stateMutability": "nonpayable",
      "type": "constructor"
    },
    {
      "anonymous": false,
      "inputs": [
        {
          "indexed": false,
          "internalType": "address",
          "name": "sender",
          "type": "address"
        },
        {
          "indexed": false,
          "internalType": "uint256",
          "name": "amount",
          "type": "uint256"
        },
        {
          "indexed": false,
          "internalType": "address",
          "name": "tokenAddress",
          "type": "address"
        }
      ],
      "name": "AddLiquidity",
      "type": "event"
    },
    {
      "anonymous": false,
      "inputs": [
        {
          "indexed": false,
          "internalType": "address",
          "name": "sender",
          "type": "address"
        },
        {
          "indexed": false,
          "internalType": "uint256",
          "name": "receivedAmount",
          "type": "uint256"
        },
        {
          "indexed": false,
          "internalType": "address",
          "name": "tokenAddress",
          "type": "address"
        }
      ],
      "name": "ClientDepositL1",
      "type": "event"
    },
    {
      "anonymous": false,
      "inputs": [
        {
          "indexed": false,
          "internalType": "address",
          "name": "sender",
          "type": "address"
        },
        {
          "indexed": false,
          "internalType": "uint256",
          "name": "amount",
          "type": "uint256"
        },
        {
          "indexed": false,
          "internalType": "uint256",
          "name": "userRewardFee",
          "type": "uint256"
        },
        {
          "indexed": false,
          "internalType": "uint256",
          "name": "ownerRewardFee",
          "type": "uint256"
        },
        {
          "indexed": false,
          "internalType": "uint256",
          "name": "totalFee",
          "type": "uint256"
        },
        {
          "indexed": false,
          "internalType": "address",
          "name": "tokenAddress",
          "type": "address"
        }
      ],
      "name": "ClientPayL1",
      "type": "event"
    },
    {
      "anonymous": false,
      "inputs": [
        {
          "indexed": false,
          "internalType": "address",
          "name": "sender",
          "type": "address"
        },
        {
          "indexed": false,
          "internalType": "uint256",
          "name": "amount",
          "type": "uint256"
        },
        {
          "indexed": false,
          "internalType": "uint256",
          "name": "userRewardFee",
          "type": "uint256"
        },
        {
          "indexed": false,
          "internalType": "uint256",
          "name": "ownerRewardFee",
          "type": "uint256"
        },
        {
          "indexed": false,
          "internalType": "uint256",
          "name": "totalFee",
          "type": "uint256"
        },
        {
          "indexed": false,
          "internalType": "address",
          "name": "tokenAddress",
          "type": "address"
        }
      ],
      "name": "ClientPayL1Settlement",
      "type": "event"
    },
    {
      "anonymous": false,
      "inputs": [
        {
          "indexed": false,
          "internalType": "address",
          "name": "sender",
          "type": "address"
        },
        {
          "indexed": false,
          "internalType": "address",
          "name": "receiver",
          "type": "address"
        },
        {
          "indexed": false,
          "internalType": "uint256",
          "name": "amount",
          "type": "uint256"
        },
        {
          "indexed": false,
          "internalType": "address",
          "name": "tokenAddress",
          "type": "address"
        }
      ],
      "name": "OwnerRecoverFee",
      "type": "event"
    },
    {
      "anonymous": false,
      "inputs": [
        {
          "indexed": true,
          "internalType": "address",
          "name": "previousOwner",
          "type": "address"
        },
        {
          "indexed": true,
          "internalType": "address",
          "name": "newOwner",
          "type": "address"
        }
      ],
      "name": "OwnershipTransferred",
      "type": "event"
    },
    {
      "anonymous": false,
      "inputs": [
        {
          "indexed": false,
          "internalType": "address",
          "name": "sender",
          "type": "address"
        },
        {
          "indexed": false,
          "internalType": "address",
          "name": "receiver",
          "type": "address"
        },
        {
          "indexed": false,
          "internalType": "uint256",
          "name": "amount",
          "type": "uint256"
        },
        {
          "indexed": false,
          "internalType": "address",
          "name": "tokenAddress",
          "type": "address"
        }
      ],
      "name": "WithdrawLiquidity",
      "type": "event"
    },
    {
      "anonymous": false,
      "inputs": [
        {
          "indexed": false,
          "internalType": "address",
          "name": "sender",
          "type": "address"
        },
        {
          "indexed": false,
          "internalType": "address",
          "name": "receiver",
          "type": "address"
        },
        {
          "indexed": false,
          "internalType": "uint256",
          "name": "amount",
          "type": "uint256"
        },
        {
          "indexed": false,
          "internalType": "address",
          "name": "tokenAddress",
          "type": "address"
        }
      ],
      "name": "WithdrawReward",
      "type": "event"
    },
    {
      "inputs": [],
      "name": "DEFAULT_FINALIZE_DEPOSIT_L2_GAS",
      "outputs": [
        {
          "internalType": "uint32",
          "name": "",
          "type": "uint32"
        }
      ],
      "stateMutability": "view",
      "type": "function"
    },
    {
      "inputs": [],
      "name": "SETTLEMENT_L2_GAS",
      "outputs": [
        {
          "internalType": "uint32",
          "name": "",
          "type": "uint32"
        }
      ],
      "stateMutability": "view",
      "type": "function"
    },
    {
      "inputs": [
        {
          "internalType": "uint256",
          "name": "_amount",
          "type": "uint256"
        },
        {
          "internalType": "address",
          "name": "_tokenAddress",
          "type": "address"
        }
      ],
      "name": "addLiquidity",
      "outputs": [],
      "stateMutability": "payable",
      "type": "function"
    },
    {
      "inputs": [
        {
          "internalType": "uint256",
          "name": "_amount",
          "type": "uint256"
        },
        {
          "internalType": "address",
          "name": "_tokenAddress",
          "type": "address"
        }
      ],
      "name": "clientDepositL1",
      "outputs": [],
      "stateMutability": "payable",
      "type": "function"
    },
    {
      "inputs": [
        {
          "internalType": "address payable",
          "name": "_to",
          "type": "address"
        },
        {
          "internalType": "uint256",
          "name": "_amount",
          "type": "uint256"
        },
        {
          "internalType": "address",
          "name": "_tokenAddress",
          "type": "address"
        }
      ],
      "name": "clientPayL1",
      "outputs": [],
      "stateMutability": "nonpayable",
      "type": "function"
    },
    {
      "inputs": [
        {
          "internalType": "address payable",
          "name": "_to",
          "type": "address"
        },
        {
          "internalType": "uint256",
          "name": "_amount",
          "type": "uint256"
        },
        {
          "internalType": "address",
          "name": "_tokenAddress",
          "type": "address"
        }
      ],
      "name": "clientPayL1Settlement",
      "outputs": [],
      "stateMutability": "nonpayable",
      "type": "function"
    },
    {
      "inputs": [
        {
          "internalType": "uint256",
          "name": "_userRewardFeeRate",
          "type": "uint256"
        },
        {
          "internalType": "uint256",
          "name": "_ownerRewardFeeRate",
          "type": "uint256"
        },
        {
          "internalType": "address",
          "name": "_L2LiquidityPoolAddress",
          "type": "address"
        }
      ],
      "name": "init",
      "outputs": [],
      "stateMutability": "nonpayable",
      "type": "function"
    },
    {
      "inputs": [],
      "name": "owner",
      "outputs": [
        {
          "internalType": "address",
          "name": "",
          "type": "address"
        }
      ],
      "stateMutability": "view",
      "type": "function"
    },
    {
      "inputs": [
        {
          "internalType": "uint256",
          "name": "_amount",
          "type": "uint256"
        },
        {
          "internalType": "address",
          "name": "_tokenAddress",
          "type": "address"
        },
        {
          "internalType": "address",
          "name": "_to",
          "type": "address"
        }
      ],
      "name": "ownerRecoverFee",
      "outputs": [],
      "stateMutability": "nonpayable",
      "type": "function"
    },
    {
      "inputs": [],
      "name": "ownerRewardFeeRate",
      "outputs": [
        {
          "internalType": "uint256",
          "name": "",
          "type": "uint256"
        }
      ],
      "stateMutability": "view",
      "type": "function"
    },
    {
      "inputs": [
        {
          "internalType": "address",
          "name": "",
          "type": "address"
        }
      ],
      "name": "poolInfo",
      "outputs": [
        {
          "internalType": "address",
          "name": "l1TokenAddress",
          "type": "address"
        },
        {
          "internalType": "address",
          "name": "l2TokenAddress",
          "type": "address"
        },
        {
          "internalType": "uint256",
          "name": "userDepositAmount",
          "type": "uint256"
        },
        {
          "internalType": "uint256",
          "name": "lastAccUserReward",
          "type": "uint256"
        },
        {
          "internalType": "uint256",
          "name": "accUserReward",
          "type": "uint256"
        },
        {
          "internalType": "uint256",
          "name": "accUserRewardPerShare",
          "type": "uint256"
        },
        {
          "internalType": "uint256",
          "name": "accOwnerReward",
          "type": "uint256"
        },
        {
          "internalType": "uint256",
          "name": "startTime",
          "type": "uint256"
        }
      ],
      "stateMutability": "view",
      "type": "function"
    },
    {
      "inputs": [
        {
          "internalType": "address",
          "name": "_l1TokenAddress",
          "type": "address"
        },
        {
          "internalType": "address",
          "name": "_l2TokenAddress",
          "type": "address"
        }
      ],
      "name": "registerPool",
      "outputs": [],
      "stateMutability": "nonpayable",
      "type": "function"
    },
    {
      "inputs": [],
      "name": "relayerMessenger",
      "outputs": [
        {
          "internalType": "address",
          "name": "",
          "type": "address"
        }
      ],
      "stateMutability": "view",
      "type": "function"
    },
    {
      "inputs": [],
      "name": "renounceOwnership",
      "outputs": [],
      "stateMutability": "nonpayable",
      "type": "function"
    },
    {
      "inputs": [],
      "name": "senderMessenger",
      "outputs": [
        {
          "internalType": "address",
          "name": "",
          "type": "address"
        }
      ],
      "stateMutability": "view",
      "type": "function"
    },
    {
      "inputs": [],
      "name": "totalFeeRate",
      "outputs": [
        {
          "internalType": "uint256",
          "name": "",
          "type": "uint256"
        }
      ],
      "stateMutability": "view",
      "type": "function"
    },
    {
      "inputs": [
        {
          "internalType": "address",
          "name": "newOwner",
          "type": "address"
        }
      ],
      "name": "transferOwnership",
      "outputs": [],
      "stateMutability": "nonpayable",
      "type": "function"
    },
    {
      "inputs": [
        {
          "internalType": "address",
          "name": "_tokenAddress",
          "type": "address"
        }
      ],
      "name": "updateUserRewardPerShare",
      "outputs": [],
      "stateMutability": "nonpayable",
      "type": "function"
    },
    {
      "inputs": [
        {
          "internalType": "address",
          "name": "",
          "type": "address"
        },
        {
          "internalType": "address",
          "name": "",
          "type": "address"
        }
      ],
      "name": "userInfo",
      "outputs": [
        {
          "internalType": "uint256",
          "name": "amount",
          "type": "uint256"
        },
        {
          "internalType": "uint256",
          "name": "rewardDebt",
          "type": "uint256"
        },
        {
          "internalType": "uint256",
          "name": "pendingReward",
          "type": "uint256"
        }
      ],
      "stateMutability": "view",
      "type": "function"
    },
    {
      "inputs": [],
      "name": "userRewardFeeRate",
      "outputs": [
        {
          "internalType": "uint256",
          "name": "",
          "type": "uint256"
        }
      ],
      "stateMutability": "view",
      "type": "function"
    },
    {
      "inputs": [
        {
          "internalType": "uint256",
          "name": "_amount",
          "type": "uint256"
        },
        {
          "internalType": "address",
          "name": "_tokenAddress",
          "type": "address"
        },
        {
          "internalType": "address payable",
          "name": "_to",
          "type": "address"
        }
      ],
      "name": "withdrawLiquidity",
      "outputs": [],
      "stateMutability": "nonpayable",
      "type": "function"
    },
    {
      "inputs": [
        {
          "internalType": "uint256",
          "name": "_amount",
          "type": "uint256"
        },
        {
          "internalType": "address",
          "name": "_tokenAddress",
          "type": "address"
        },
        {
          "internalType": "address",
          "name": "_to",
          "type": "address"
        }
      ],
      "name": "withdrawReward",
      "outputs": [],
      "stateMutability": "nonpayable",
      "type": "function"
    }
  ],
  "bytecode": "0x608060405262124f80600960006101000a81548163ffffffff021916908363ffffffff16021790555062155cc0600960046101000a81548163ffffffff021916908363ffffffff1602179055503480156200005957600080fd5b5060405162003deb38038062003deb83398181016040528101906200007f9190620001dc565b8181816000806101000a81548173ffffffffffffffffffffffffffffffffffffffff021916908373ffffffffffffffffffffffffffffffffffffffff16021790555080600160006101000a81548173ffffffffffffffffffffffffffffffffffffffff021916908373ffffffffffffffffffffffffffffffffffffffff1602179055505050600062000116620001bd60201b60201c565b905080600260006101000a81548173ffffffffffffffffffffffffffffffffffffffff021916908373ffffffffffffffffffffffffffffffffffffffff1602179055508073ffffffffffffffffffffffffffffffffffffffff16600073ffffffffffffffffffffffffffffffffffffffff167f8be0079c531659141344cd1fd0a4f28419497f9722a3daafe3b4186f6b6457e060405160405180910390a35050506200026b565b600033905090565b600081519050620001d68162000251565b92915050565b60008060408385031215620001f057600080fd5b60006200020085828601620001c5565b92505060206200021385828601620001c5565b9150509250929050565b60006200022a8262000231565b9050919050565b600073ffffffffffffffffffffffffffffffffffffffff82169050919050565b6200025c816200021d565b81146200026857600080fd5b50565b613b70806200027b6000396000f3fe6080604052600436106101355760003560e01c8063818c021e116100ab578063c95f9d0e1161006f578063c95f9d0e146103f7578063cf26fb1b14610413578063d04a966a1461043c578063f2fde38b14610467578063f3251e1e14610490578063f64b5f44146104b957610135565b8063818c021e1461030957806381e6bdac146103345780638da5cb5b1461035d5780639423169b146103885780639a7b5f11146103b357610135565b8063502a2189116100fd578063502a218914610221578063508e01c41461024c57806353174cc11461027757806368be42ca146102a0578063715018a6146102c95780637286e5e5146102e057610135565b80630f208beb1461013a57806312f54c1a14610179578063358fc07e146101a2578063435fd571146101cd57806349561dc4146101f8575b600080fd5b34801561014657600080fd5b50610161600480360381019061015c91906132cf565b6104d5565b60405161017093929190613924565b60405180910390f35b34801561018557600080fd5b506101a0600480360381019061019b9190613257565b61050c565b005b3480156101ae57600080fd5b506101b76105ea565b6040516101c49190613909565b60405180910390f35b3480156101d957600080fd5b506101e26105f0565b6040516101ef9190613909565b60405180910390f35b34801561020457600080fd5b5061021f600480360381019061021a9190613370565b6105f6565b005b34801561022d57600080fd5b50610236610a51565b6040516102439190613909565b60405180910390f35b34801561025857600080fd5b50610261610a57565b60405161026e9190613657565b60405180910390f35b34801561028357600080fd5b5061029e60048036038101906102999190613280565b610a7b565b005b3480156102ac57600080fd5b506102c760048036038101906102c291906133bf565b610e9f565b005b3480156102d557600080fd5b506102de61127e565b005b3480156102ec57600080fd5b50610307600480360381019061030291906132cf565b6113ee565b005b34801561031557600080fd5b5061031e6116ef565b60405161032b9190613657565b60405180910390f35b34801561034057600080fd5b5061035b60048036038101906103569190613370565b611715565b005b34801561036957600080fd5b50610372611a5a565b60405161037f9190613657565b60405180910390f35b34801561039457600080fd5b5061039d611a84565b6040516103aa919061395b565b60405180910390f35b3480156103bf57600080fd5b506103da60048036038101906103d59190613257565b611a9a565b6040516103ee9897969594939291906137cb565b60405180910390f35b610411600480360381019061040c9190613334565b611b22565b005b34801561041f57600080fd5b5061043a60048036038101906104359190613280565b611e6e565b005b34801561044857600080fd5b5061045161246c565b60405161045e919061395b565b60405180910390f35b34801561047357600080fd5b5061048e60048036038101906104899190613257565b612482565b005b34801561049c57600080fd5b506104b760048036038101906104b2919061340e565b612677565b005b6104d360048036038101906104ce9190613334565b612783565b005b6004602052816000526040600020602052806000526040600020600091509150508060000154908060010154908060020154905083565b6000600360008373ffffffffffffffffffffffffffffffffffffffff1673ffffffffffffffffffffffffffffffffffffffff16815260200190815260200160002090508060040154816003015410156105e657600061057c826003015483600401546129ee90919063ffffffff16565b905060008260020154146105d7576105ce6105bb83600201546105ad64e8d4a5100085612a7190919063ffffffff16565b612af790919063ffffffff16565b8360050154612b8090919063ffffffff16565b82600501819055505b81600401548260030181905550505b5050565b60085481565b60075481565b6105fe612c08565b73ffffffffffffffffffffffffffffffffffffffff1661061c611a5a565b73ffffffffffffffffffffffffffffffffffffffff16146106a5576040517f08c379a00000000000000000000000000000000000000000000000000000000081526004018080602001828103825260208152602001807f4f776e61626c653a2063616c6c6572206973206e6f7420746865206f776e657281525060200191505060405180910390fd5b6000600360008473ffffffffffffffffffffffffffffffffffffffff1673ffffffffffffffffffffffffffffffffffffffff16815260200190815260200160002090506000600460008573ffffffffffffffffffffffffffffffffffffffff1673ffffffffffffffffffffffffffffffffffffffff16815260200190815260200160002060003373ffffffffffffffffffffffffffffffffffffffff1673ffffffffffffffffffffffffffffffffffffffff1681526020019081526020016000209050600073ffffffffffffffffffffffffffffffffffffffff168260010160009054906101000a900473ffffffffffffffffffffffffffffffffffffffff1673ffffffffffffffffffffffffffffffffffffffff1614156107fc576040517f08c379a00000000000000000000000000000000000000000000000000000000081526004016107f390613889565b60405180910390fd5b600061085c610849836001015461083b64e8d4a5100061082d88600501548860000154612a7190919063ffffffff16565b612af790919063ffffffff16565b6129ee90919063ffffffff16565b8360020154612b8090919063ffffffff16565b9050858110156108a1576040517f08c379a0000000000000000000000000000000000000000000000000000000008152600401610898906138c9565b60405180910390fd5b6108b486826129ee90919063ffffffff16565b82600201819055506108ee64e8d4a510006108e085600501548560000154612a7190919063ffffffff16565b612af790919063ffffffff16565b8260010181905550600073ffffffffffffffffffffffffffffffffffffffff168573ffffffffffffffffffffffffffffffffffffffff161461095a5761095584878773ffffffffffffffffffffffffffffffffffffffff16612c109092919063ffffffff16565b610a0c565b60008473ffffffffffffffffffffffffffffffffffffffff166108fc8860405161098390613642565b600060405180830381858888f193505050503d80600081146109c1576040519150601f19603f3d011682016040523d82523d6000602084013e6109c6565b606091505b5050905080610a0a576040517f08c379a0000000000000000000000000000000000000000000000000000000008152600401610a01906138a9565b60405180910390fd5b505b7f3cb7cb475a33eda02ee6e719b6c2fc0c899157cfc6f098daf545354dbbce41ec33858888604051610a4194939291906136b7565b60405180910390a1505050505050565b60065481565b60008054906101000a900473ffffffffffffffffffffffffffffffffffffffff1681565b600560009054906101000a900473ffffffffffffffffffffffffffffffffffffffff16610aa6612cb2565b73ffffffffffffffffffffffffffffffffffffffff163373ffffffffffffffffffffffffffffffffffffffff1614610b29576040517f08c379a000000000000000000000000000000000000000000000000000000000815260040180806020018281038252602e815260200180613a92602e913960400191505060405180910390fd5b8073ffffffffffffffffffffffffffffffffffffffff16610b48612cb2565b73ffffffffffffffffffffffffffffffffffffffff16636e296e456040518163ffffffff1660e01b815260040160206040518083038186803b158015610b8d57600080fd5b505afa158015610ba1573d6000803e3d6000fd5b505050506040513d6020811015610bb757600080fd5b810190808051906020019092919050505073ffffffffffffffffffffffffffffffffffffffff1614610c34576040517f08c379a0000000000000000000000000000000000000000000000000000000008152600401808060200182810382526030815260200180613ae16030913960400191505060405180910390fd5b6000600360008473ffffffffffffffffffffffffffffffffffffffff1673ffffffffffffffffffffffffffffffffffffffff16815260200190815260200160002090506000610ca26103e8610c9460075488612a7190919063ffffffff16565b612af790919063ffffffff16565b90506000610ccf6103e8610cc160085489612a7190919063ffffffff16565b612af790919063ffffffff16565b90506000610ce68284612b8090919063ffffffff16565b90506000610cfd82896129ee90919063ffffffff16565b9050610d16848660040154612b8090919063ffffffff16565b8560040181905550610d35838660060154612b8090919063ffffffff16565b8560060181905550600073ffffffffffffffffffffffffffffffffffffffff168773ffffffffffffffffffffffffffffffffffffffff1614610da157610d9c89828973ffffffffffffffffffffffffffffffffffffffff16612c109092919063ffffffff16565b610e53565b60008973ffffffffffffffffffffffffffffffffffffffff166108fc83604051610dca90613642565b600060405180830381858888f193505050503d8060008114610e08576040519150601f19603f3d011682016040523d82523d6000602084013e610e0d565b606091505b5050905080610e51576040517f08c379a0000000000000000000000000000000000000000000000000000000008152600401610e48906138a9565b60405180910390fd5b505b7fe42a885e97ef72aed483b57141e41f9d64499b43411f58b60a0e07fcdb6e824a89828686868c604051610e8c9695949392919061376a565b60405180910390a1505050505050505050565b6000600360008473ffffffffffffffffffffffffffffffffffffffff1673ffffffffffffffffffffffffffffffffffffffff16815260200190815260200160002090506000600460008573ffffffffffffffffffffffffffffffffffffffff1673ffffffffffffffffffffffffffffffffffffffff16815260200190815260200160002060003373ffffffffffffffffffffffffffffffffffffffff1673ffffffffffffffffffffffffffffffffffffffff1681526020019081526020016000209050600073ffffffffffffffffffffffffffffffffffffffff168260010160009054906101000a900473ffffffffffffffffffffffffffffffffffffffff1673ffffffffffffffffffffffffffffffffffffffff161415610ff6576040517f08c379a0000000000000000000000000000000000000000000000000000000008152600401610fed90613889565b60405180910390fd5b848160000154101561103d576040517f08c379a000000000000000000000000000000000000000000000000000000000815260040161103490613869565b60405180910390fd5b6110468461050c565b6110a4611091826001015461108364e8d4a5100061107587600501548760000154612a7190919063ffffffff16565b612af790919063ffffffff16565b6129ee90919063ffffffff16565b8260020154612b8090919063ffffffff16565b81600201819055506110c38582600001546129ee90919063ffffffff16565b81600001819055506110fd64e8d4a510006110ef84600501548460000154612a7190919063ffffffff16565b612af790919063ffffffff16565b816001018190555061111c8583600201546129ee90919063ffffffff16565b8260020181905550600073ffffffffffffffffffffffffffffffffffffffff168473ffffffffffffffffffffffffffffffffffffffff16146111885761118383868673ffffffffffffffffffffffffffffffffffffffff16612c109092919063ffffffff16565b61123a565b60008373ffffffffffffffffffffffffffffffffffffffff166108fc876040516111b190613642565b600060405180830381858888f193505050503d80600081146111ef576040519150601f19603f3d011682016040523d82523d6000602084013e6111f4565b606091505b5050905080611238576040517f08c379a000000000000000000000000000000000000000000000000000000000815260040161122f906138a9565b60405180910390fd5b505b7ffa2e8fcf14fd6ea11b6ebe7caf7de210198b8fe1eaf0e06d19f8d87c73860c463384878760405161126f9493929190613672565b60405180910390a15050505050565b611286612c08565b73ffffffffffffffffffffffffffffffffffffffff166112a4611a5a565b73ffffffffffffffffffffffffffffffffffffffff161461132d576040517f08c379a00000000000000000000000000000000000000000000000000000000081526004018080602001828103825260208152602001807f4f776e61626c653a2063616c6c6572206973206e6f7420746865206f776e657281525060200191505060405180910390fd5b600073ffffffffffffffffffffffffffffffffffffffff16600260009054906101000a900473ffffffffffffffffffffffffffffffffffffffff1673ffffffffffffffffffffffffffffffffffffffff167f8be0079c531659141344cd1fd0a4f28419497f9722a3daafe3b4186f6b6457e060405160405180910390a36000600260006101000a81548173ffffffffffffffffffffffffffffffffffffffff021916908373ffffffffffffffffffffffffffffffffffffffff160217905550565b6113f6612c08565b73ffffffffffffffffffffffffffffffffffffffff16611414611a5a565b73ffffffffffffffffffffffffffffffffffffffff161461149d576040517f08c379a00000000000000000000000000000000000000000000000000000000081526004018080602001828103825260208152602001807f4f776e61626c653a2063616c6c6572206973206e6f7420746865206f776e657281525060200191505060405180910390fd5b6000600360008473ffffffffffffffffffffffffffffffffffffffff1673ffffffffffffffffffffffffffffffffffffffff1681526020019081526020016000209050600073ffffffffffffffffffffffffffffffffffffffff168160010160009054906101000a900473ffffffffffffffffffffffffffffffffffffffff1673ffffffffffffffffffffffffffffffffffffffff1614611573576040517f08c379a000000000000000000000000000000000000000000000000000000000815260040161156a906138e9565b60405180910390fd5b6040518061010001604052808473ffffffffffffffffffffffffffffffffffffffff1681526020018373ffffffffffffffffffffffffffffffffffffffff168152602001600081526020016000815260200160008152602001600081526020016000815260200142815250600360008573ffffffffffffffffffffffffffffffffffffffff1673ffffffffffffffffffffffffffffffffffffffff16815260200190815260200160002060008201518160000160006101000a81548173ffffffffffffffffffffffffffffffffffffffff021916908373ffffffffffffffffffffffffffffffffffffffff16021790555060208201518160010160006101000a81548173ffffffffffffffffffffffffffffffffffffffff021916908373ffffffffffffffffffffffffffffffffffffffff16021790555060408201518160020155606082015181600301556080820151816004015560a0820151816005015560c0820151816006015560e08201518160070155905050505050565b600160009054906101000a900473ffffffffffffffffffffffffffffffffffffffff1681565b61171d612c08565b73ffffffffffffffffffffffffffffffffffffffff1661173b611a5a565b73ffffffffffffffffffffffffffffffffffffffff16146117c4576040517f08c379a00000000000000000000000000000000000000000000000000000000081526004018080602001828103825260208152602001807f4f776e61626c653a2063616c6c6572206973206e6f7420746865206f776e657281525060200191505060405180910390fd5b6000600360008473ffffffffffffffffffffffffffffffffffffffff1673ffffffffffffffffffffffffffffffffffffffff1681526020019081526020016000209050600073ffffffffffffffffffffffffffffffffffffffff168160010160009054906101000a900473ffffffffffffffffffffffffffffffffffffffff1673ffffffffffffffffffffffffffffffffffffffff16141561189b576040517f08c379a000000000000000000000000000000000000000000000000000000000815260040161189290613889565b60405180910390fd5b83816006015410156118e2576040517f08c379a00000000000000000000000000000000000000000000000000000000081526004016118d990613849565b60405180910390fd5b600073ffffffffffffffffffffffffffffffffffffffff168373ffffffffffffffffffffffffffffffffffffffff16146119465761194182858573ffffffffffffffffffffffffffffffffffffffff16612c109092919063ffffffff16565b6119f8565b60008273ffffffffffffffffffffffffffffffffffffffff166108fc8660405161196f90613642565b600060405180830381858888f193505050503d80600081146119ad576040519150601f19603f3d011682016040523d82523d6000602084013e6119b2565b606091505b50509050806119f6576040517f08c379a00000000000000000000000000000000000000000000000000000000081526004016119ed906138a9565b60405180910390fd5b505b611a0f8482600601546129ee90919063ffffffff16565b81600601819055507f3cb71b9a1fb601579f96812b9f86ab5e914fc3e54c98d5f84d95581b2b9884f333838686604051611a4c94939291906136b7565b60405180910390a150505050565b6000600260009054906101000a900473ffffffffffffffffffffffffffffffffffffffff16905090565b600960009054906101000a900463ffffffff1681565b60036020528060005260406000206000915090508060000160009054906101000a900473ffffffffffffffffffffffffffffffffffffffff16908060010160009054906101000a900473ffffffffffffffffffffffffffffffffffffffff16908060020154908060030154908060040154908060050154908060060154908060070154905088565b60003414611b3257349150600090505b6000600360008373ffffffffffffffffffffffffffffffffffffffff1673ffffffffffffffffffffffffffffffffffffffff16815260200190815260200160002090506000600460008473ffffffffffffffffffffffffffffffffffffffff1673ffffffffffffffffffffffffffffffffffffffff16815260200190815260200160002060003373ffffffffffffffffffffffffffffffffffffffff1673ffffffffffffffffffffffffffffffffffffffff1681526020019081526020016000209050600073ffffffffffffffffffffffffffffffffffffffff168260010160009054906101000a900473ffffffffffffffffffffffffffffffffffffffff1673ffffffffffffffffffffffffffffffffffffffff161415611c89576040517f08c379a0000000000000000000000000000000000000000000000000000000008152600401611c8090613889565b60405180910390fd5b611c928361050c565b600081600001541115611d5657611cfd611cea8260010154611cdc64e8d4a51000611cce87600501548760000154612a7190919063ffffffff16565b612af790919063ffffffff16565b6129ee90919063ffffffff16565b8260020154612b8090919063ffffffff16565b8160020181905550611d4964e8d4a51000611d3b8460050154611d2d888660000154612b8090919063ffffffff16565b612a7190919063ffffffff16565b612af790919063ffffffff16565b8160010181905550611d8d565b611d8464e8d4a51000611d76846005015487612a7190919063ffffffff16565b612af790919063ffffffff16565b81600101819055505b600073ffffffffffffffffffffffffffffffffffffffff168373ffffffffffffffffffffffffffffffffffffffff1614611def57611dee3330868673ffffffffffffffffffffffffffffffffffffffff16612cdc909392919063ffffffff16565b5b611e06848260000154612b8090919063ffffffff16565b8160000181905550611e25848360020154612b8090919063ffffffff16565b82600201819055507f5852d1d46e583f7e92c2a572221de0e681d82ef71f489847e056b9445c014736338585604051611e6093929190613733565b60405180910390a150505050565b600560009054906101000a900473ffffffffffffffffffffffffffffffffffffffff16611e99612cb2565b73ffffffffffffffffffffffffffffffffffffffff163373ffffffffffffffffffffffffffffffffffffffff1614611f1c576040517f08c379a000000000000000000000000000000000000000000000000000000000815260040180806020018281038252602e815260200180613a92602e913960400191505060405180910390fd5b8073ffffffffffffffffffffffffffffffffffffffff16611f3b612cb2565b73ffffffffffffffffffffffffffffffffffffffff16636e296e456040518163ffffffff1660e01b815260040160206040518083038186803b158015611f8057600080fd5b505afa158015611f94573d6000803e3d6000fd5b505050506040513d6020811015611faa57600080fd5b810190808051906020019092919050505073ffffffffffffffffffffffffffffffffffffffff1614612027576040517f08c379a0000000000000000000000000000000000000000000000000000000008152600401808060200182810382526030815260200180613ae16030913960400191505060405180910390fd5b600080600360008573ffffffffffffffffffffffffffffffffffffffff1673ffffffffffffffffffffffffffffffffffffffff168152602001908152602001600020905060006120966103e861208860075489612a7190919063ffffffff16565b612af790919063ffffffff16565b905060006120c36103e86120b56008548a612a7190919063ffffffff16565b612af790919063ffffffff16565b905060006120da8284612b8090919063ffffffff16565b905060006120f1828a6129ee90919063ffffffff16565b9050600073ffffffffffffffffffffffffffffffffffffffff168873ffffffffffffffffffffffffffffffffffffffff161461222f578773ffffffffffffffffffffffffffffffffffffffff166370a08231306040518263ffffffff1660e01b81526004016121609190613657565b60206040518083038186803b15801561217857600080fd5b505afa15801561218c573d6000803e3d6000fd5b505050506040513d601f19601f820116820180604052508101906121b0919061330b565b8111156121c0576001955061222a565b6121d7848660040154612b8090919063ffffffff16565b85600401819055506121f6838660060154612b8090919063ffffffff16565b85600601819055506122298a828a73ffffffffffffffffffffffffffffffffffffffff16612c109092919063ffffffff16565b5b612331565b478111156122405760019550612330565b612257848660040154612b8090919063ffffffff16565b8560040181905550612276838660060154612b8090919063ffffffff16565b856006018190555060008a73ffffffffffffffffffffffffffffffffffffffff166108fc836040516122a790613642565b600060405180830381858888f193505050503d80600081146122e5576040519150601f19603f3d011682016040523d82523d6000602084013e6122ea565b606091505b505090508061232e576040517f08c379a0000000000000000000000000000000000000000000000000000000008152600401612325906138a9565b60405180910390fd5b505b5b851561241e57600063650a767b60e01b8b8b8860010160009054906101000a900473ffffffffffffffffffffffffffffffffffffffff1660405160240161237a939291906136fc565b604051602081830303815290604052907bffffffffffffffffffffffffffffffffffffffffffffffffffffffff19166020820180517bffffffffffffffffffffffffffffffffffffffffffffffffffffffff83818316178352505050509050612418600560009054906101000a900473ffffffffffffffffffffffffffffffffffffffff16600960009054906101000a900463ffffffff1683612d9d565b50612460565b7ffe1f8646fcb202e48551fbfd19085116c64b291c60cede7dce3665a57c05e3818a828686868d6040516124579695949392919061376a565b60405180910390a15b50505050505050505050565b600960049054906101000a900463ffffffff1681565b61248a612c08565b73ffffffffffffffffffffffffffffffffffffffff166124a8611a5a565b73ffffffffffffffffffffffffffffffffffffffff1614612531576040517f08c379a00000000000000000000000000000000000000000000000000000000081526004018080602001828103825260208152602001807f4f776e61626c653a2063616c6c6572206973206e6f7420746865206f776e657281525060200191505060405180910390fd5b600073ffffffffffffffffffffffffffffffffffffffff168173ffffffffffffffffffffffffffffffffffffffff1614156125b7576040517f08c379a0000000000000000000000000000000000000000000000000000000008152600401808060200182810382526026815260200180613a6c6026913960400191505060405180910390fd5b8073ffffffffffffffffffffffffffffffffffffffff16600260009054906101000a900473ffffffffffffffffffffffffffffffffffffffff1673ffffffffffffffffffffffffffffffffffffffff167f8be0079c531659141344cd1fd0a4f28419497f9722a3daafe3b4186f6b6457e060405160405180910390a380600260006101000a81548173ffffffffffffffffffffffffffffffffffffffff021916908373ffffffffffffffffffffffffffffffffffffffff16021790555050565b61267f612c08565b73ffffffffffffffffffffffffffffffffffffffff1661269d611a5a565b73ffffffffffffffffffffffffffffffffffffffff1614612726576040517f08c379a00000000000000000000000000000000000000000000000000000000081526004018080602001828103825260208152602001807f4f776e61626c653a2063616c6c6572206973206e6f7420746865206f776e657281525060200191505060405180910390fd5b818301600681905550826007819055508160088190555080600560006101000a81548173ffffffffffffffffffffffffffffffffffffffff021916908373ffffffffffffffffffffffffffffffffffffffff160217905550505050565b6000341461279357349150600090505b6000600360008373ffffffffffffffffffffffffffffffffffffffff1673ffffffffffffffffffffffffffffffffffffffff1681526020019081526020016000209050600073ffffffffffffffffffffffffffffffffffffffff168160010160009054906101000a900473ffffffffffffffffffffffffffffffffffffffff1673ffffffffffffffffffffffffffffffffffffffff16141561286a576040517f08c379a000000000000000000000000000000000000000000000000000000000815260040161286190613889565b60405180910390fd5b600073ffffffffffffffffffffffffffffffffffffffff168273ffffffffffffffffffffffffffffffffffffffff16146128cc576128cb3330858573ffffffffffffffffffffffffffffffffffffffff16612cdc909392919063ffffffff16565b5b600063bd2d1cab60e01b33858460010160009054906101000a900473ffffffffffffffffffffffffffffffffffffffff1660405160240161290f939291906136fc565b604051602081830303815290604052907bffffffffffffffffffffffffffffffffffffffffffffffffffffffff19166020820180517bffffffffffffffffffffffffffffffffffffffffffffffffffffffff838183161783525050505090506129ad600560009054906101000a900473ffffffffffffffffffffffffffffffffffffffff16600960049054906101000a900463ffffffff1683612d9d565b7f860e25c3d48fb81f0b272550dd125a5a6ab20ee7511dd3e250d04964bd37a7a93385856040516129e093929190613733565b60405180910390a150505050565b600082821115612a66576040517f08c379a000000000000000000000000000000000000000000000000000000000815260040180806020018281038252601e8152602001807f536166654d6174683a207375627472616374696f6e206f766572666c6f77000081525060200191505060405180910390fd5b818303905092915050565b600080831415612a845760009050612af1565b6000828402905082848281612a9557fe5b0414612aec576040517f08c379a0000000000000000000000000000000000000000000000000000000008152600401808060200182810382526021815260200180613ac06021913960400191505060405180910390fd5b809150505b92915050565b6000808211612b6e576040517f08c379a000000000000000000000000000000000000000000000000000000000815260040180806020018281038252601a8152602001807f536166654d6174683a206469766973696f6e206279207a65726f00000000000081525060200191505060405180910390fd5b818381612b7757fe5b04905092915050565b600080828401905083811015612bfe576040517f08c379a000000000000000000000000000000000000000000000000000000000815260040180806020018281038252601b8152602001807f536166654d6174683a206164646974696f6e206f766572666c6f77000000000081525060200191505060405180910390fd5b8091505092915050565b600033905090565b612cad8363a9059cbb60e01b8484604051602401808373ffffffffffffffffffffffffffffffffffffffff16815260200182815260200192505050604051602081830303815290604052907bffffffffffffffffffffffffffffffffffffffffffffffffffffffff19166020820180517bffffffffffffffffffffffffffffffffffffffffffffffffffffffff8381831617835250505050612ea5565b505050565b6000600160009054906101000a900473ffffffffffffffffffffffffffffffffffffffff16905090565b612d97846323b872dd60e01b858585604051602401808473ffffffffffffffffffffffffffffffffffffffff1681526020018373ffffffffffffffffffffffffffffffffffffffff1681526020018281526020019350505050604051602081830303815290604052907bffffffffffffffffffffffffffffffffffffffffffffffffffffffff19166020820180517bffffffffffffffffffffffffffffffffffffffffffffffffffffffff8381831617835250505050612ea5565b50505050565b612da5612f94565b73ffffffffffffffffffffffffffffffffffffffff16633dbb202b8483856040518463ffffffff1660e01b8152600401808473ffffffffffffffffffffffffffffffffffffffff168152602001806020018363ffffffff168152602001828103825284818151815260200191508051906020019080838360005b83811015612e3a578082015181840152602081019050612e1f565b50505050905090810190601f168015612e675780820380516001836020036101000a031916815260200191505b50945050505050600060405180830381600087803b158015612e8857600080fd5b505af1158015612e9c573d6000803e3d6000fd5b50505050505050565b6000612f07826040518060400160405280602081526020017f5361666545524332303a206c6f772d6c6576656c2063616c6c206661696c65648152508573ffffffffffffffffffffffffffffffffffffffff16612fbd9092919063ffffffff16565b9050600081511115612f8f57808060200190516020811015612f2857600080fd5b8101908080519060200190929190505050612f8e576040517f08c379a000000000000000000000000000000000000000000000000000000000815260040180806020018281038252602a815260200180613b11602a913960400191505060405180910390fd5b5b505050565b60008060009054906101000a900473ffffffffffffffffffffffffffffffffffffffff16905090565b6060612fcc8484600085612fd5565b90509392505050565b6060612fe085613124565b613052576040517f08c379a000000000000000000000000000000000000000000000000000000000815260040180806020018281038252601d8152602001807f416464726573733a2063616c6c20746f206e6f6e2d636f6e747261637400000081525060200191505060405180910390fd5b6000808673ffffffffffffffffffffffffffffffffffffffff1685876040518082805190602001908083835b602083106130a1578051825260208201915060208101905060208303925061307e565b6001836020036101000a03801982511681845116808217855250505050505090500191505060006040518083038185875af1925050503d8060008114613103576040519150601f19603f3d011682016040523d82523d6000602084013e613108565b606091505b5091509150613118828286613137565b92505050949350505050565b600080823b905060008111915050919050565b60608315613147578290506131fc565b60008351111561315a5782518084602001fd5b816040517f08c379a00000000000000000000000000000000000000000000000000000000081526004018080602001828103825283818151815260200191508051906020019080838360005b838110156131c15780820151818401526020810190506131a6565b50505050905090810190601f1680156131ee5780820380516001836020036101000a031916815260200191505b509250505060405180910390fd5b9392505050565b60008135905061321281613a26565b92915050565b60008135905061322781613a3d565b92915050565b60008135905061323c81613a54565b92915050565b60008151905061325181613a54565b92915050565b60006020828403121561326957600080fd5b600061327784828501613203565b91505092915050565b60008060006060848603121561329557600080fd5b60006132a386828701613218565b93505060206132b48682870161322d565b92505060406132c586828701613203565b9150509250925092565b600080604083850312156132e257600080fd5b60006132f085828601613203565b925050602061330185828601613203565b9150509250929050565b60006020828403121561331d57600080fd5b600061332b84828501613242565b91505092915050565b6000806040838503121561334757600080fd5b60006133558582860161322d565b925050602061336685828601613203565b9150509250929050565b60008060006060848603121561338557600080fd5b60006133938682870161322d565b93505060206133a486828701613203565b92505060406133b586828701613203565b9150509250925092565b6000806000606084860312156133d457600080fd5b60006133e28682870161322d565b93505060206133f386828701613203565b925050604061340486828701613218565b9150509250925092565b60008060006060848603121561342357600080fd5b60006134318682870161322d565b93505060206134428682870161322d565b925050604061345386828701613203565b9150509250925092565b613466816139f0565b82525050565b613475816139a4565b82525050565b61348481613992565b82525050565b6000613497601b83613981565b91507f4f776e657220526577617264205769746864726177204572726f7200000000006000830152602082019050919050565b60006134d7600e83613981565b91507f5769746864726177204572726f720000000000000000000000000000000000006000830152602082019050919050565b6000613517601a83613981565b91507f546f6b656e2041646472657373204e6f742052656769737465720000000000006000830152602082019050919050565b6000613557601483613981565b91507f4661696c656420746f2073656e642045746865720000000000000000000000006000830152602082019050919050565b6000613597601583613981565b91507f576974686472617720526577617264204572726f7200000000000000000000006000830152602082019050919050565b60006135d7600083613976565b9150600082019050919050565b60006135f1602083613981565b91507f546f6b656e204164647265737320416c726561647920526567697374657265646000830152602082019050919050565b61362d816139d6565b82525050565b61363c816139e0565b82525050565b600061364d826135ca565b9150819050919050565b600060208201905061366c600083018461347b565b92915050565b6000608082019050613687600083018761345d565b613694602083018661345d565b6136a16040830185613624565b6136ae606083018461347b565b95945050505050565b60006080820190506136cc600083018761345d565b6136d9602083018661347b565b6136e66040830185613624565b6136f3606083018461347b565b95945050505050565b6000606082019050613711600083018661346c565b61371e6020830185613624565b61372b604083018461347b565b949350505050565b6000606082019050613748600083018661345d565b6137556020830185613624565b613762604083018461347b565b949350505050565b600060c08201905061377f600083018961345d565b61378c6020830188613624565b6137996040830187613624565b6137a66060830186613624565b6137b36080830185613624565b6137c060a083018461347b565b979650505050505050565b6000610100820190506137e1600083018b61347b565b6137ee602083018a61347b565b6137fb6040830189613624565b6138086060830188613624565b6138156080830187613624565b61382260a0830186613624565b61382f60c0830185613624565b61383c60e0830184613624565b9998505050505050505050565b600060208201905081810360008301526138628161348a565b9050919050565b60006020820190508181036000830152613882816134ca565b9050919050565b600060208201905081810360008301526138a28161350a565b9050919050565b600060208201905081810360008301526138c28161354a565b9050919050565b600060208201905081810360008301526138e28161358a565b9050919050565b60006020820190508181036000830152613902816135e4565b9050919050565b600060208201905061391e6000830184613624565b92915050565b60006060820190506139396000830186613624565b6139466020830185613624565b6139536040830184613624565b949350505050565b60006020820190506139706000830184613633565b92915050565b600081905092915050565b600082825260208201905092915050565b600061399d826139b6565b9050919050565b60006139af826139b6565b9050919050565b600073ffffffffffffffffffffffffffffffffffffffff82169050919050565b6000819050919050565b600063ffffffff82169050919050565b60006139fb82613a02565b9050919050565b6000613a0d82613a14565b9050919050565b6000613a1f826139b6565b9050919050565b613a2f81613992565b8114613a3a57600080fd5b50565b613a46816139a4565b8114613a5157600080fd5b50565b613a5d816139d6565b8114613a6857600080fd5b5056fe4f776e61626c653a206e6577206f776e657220697320746865207a65726f20616464726573734f564d5f58434841494e3a206d657373656e67657220636f6e747261637420756e61757468656e74696361746564536166654d6174683a206d756c7469706c69636174696f6e206f766572666c6f774f564d5f58434841494e3a2077726f6e672073656e646572206f662063726f73732d646f6d61696e206d6573736167655361666545524332303a204552433230206f7065726174696f6e20646964206e6f742073756363656564a264697066735822122098e556465b28d07eead7a411a23cfa0b51ee40726c43703913aa16772338e5be64736f6c63430007060033",
  "linkReferences": {},
  "deployedLinkReferences": {}
}