{
  "_format": "hh-sol-artifact-1",
  "contractName": "L2LiquidityPool",
  "sourceName": "contracts/LP/L2LiquidityPool.sol",
  "abi": [
    {
      "inputs": [],
      "stateMutability": "nonpayable",
      "type": "constructor"
    },
    {
      "anonymous": false,
      "inputs": [
        {
          "indexed": false,
          "internalType": "address",
          "name": "sender",
          "type": "address"
        },
        {
          "indexed": false,
          "internalType": "uint256",
          "name": "amount",
          "type": "uint256"
        },
        {
          "indexed": false,
          "internalType": "address",
          "name": "tokenAddress",
          "type": "address"
        }
      ],
      "name": "AddLiquidity",
      "type": "event"
    },
    {
      "anonymous": false,
      "inputs": [
        {
          "indexed": false,
          "internalType": "address",
          "name": "sender",
          "type": "address"
        },
        {
          "indexed": false,
          "internalType": "uint256",
          "name": "receivedAmount",
          "type": "uint256"
        },
        {
          "indexed": false,
          "internalType": "address",
          "name": "tokenAddress",
          "type": "address"
        }
      ],
      "name": "ClientDepositL2",
      "type": "event"
    },
    {
      "anonymous": false,
      "inputs": [
        {
          "indexed": false,
          "internalType": "address",
          "name": "sender",
          "type": "address"
        },
        {
          "indexed": false,
          "internalType": "uint256",
          "name": "amount",
          "type": "uint256"
        },
        {
          "indexed": false,
          "internalType": "uint256",
          "name": "userRewardFee",
          "type": "uint256"
        },
        {
          "indexed": false,
          "internalType": "uint256",
          "name": "ownerRewardFee",
          "type": "uint256"
        },
        {
          "indexed": false,
          "internalType": "uint256",
          "name": "totalFee",
          "type": "uint256"
        },
        {
          "indexed": false,
          "internalType": "address",
          "name": "tokenAddress",
          "type": "address"
        }
      ],
      "name": "ClientPayL2",
      "type": "event"
    },
    {
      "anonymous": false,
      "inputs": [
        {
          "indexed": false,
          "internalType": "address",
          "name": "sender",
          "type": "address"
        },
        {
          "indexed": false,
          "internalType": "uint256",
          "name": "amount",
          "type": "uint256"
        },
        {
          "indexed": false,
          "internalType": "uint256",
          "name": "userRewardFee",
          "type": "uint256"
        },
        {
          "indexed": false,
          "internalType": "uint256",
          "name": "ownerRewardFee",
          "type": "uint256"
        },
        {
          "indexed": false,
          "internalType": "uint256",
          "name": "totalFee",
          "type": "uint256"
        },
        {
          "indexed": false,
          "internalType": "address",
          "name": "tokenAddress",
          "type": "address"
        }
      ],
      "name": "ClientPayL2Settlement",
      "type": "event"
    },
    {
      "anonymous": false,
      "inputs": [
        {
          "indexed": false,
          "internalType": "address",
          "name": "sender",
          "type": "address"
        },
        {
          "indexed": false,
          "internalType": "address",
          "name": "receiver",
          "type": "address"
        },
        {
          "indexed": false,
          "internalType": "uint256",
          "name": "amount",
          "type": "uint256"
        },
        {
          "indexed": false,
          "internalType": "address",
          "name": "tokenAddress",
          "type": "address"
        }
      ],
      "name": "OwnerRecoverFee",
      "type": "event"
    },
    {
      "anonymous": false,
      "inputs": [
        {
          "indexed": false,
          "internalType": "address",
          "name": "account",
          "type": "address"
        }
      ],
      "name": "Paused",
      "type": "event"
    },
    {
      "anonymous": false,
      "inputs": [
        {
          "indexed": false,
          "internalType": "address",
          "name": "account",
          "type": "address"
        }
      ],
      "name": "Unpaused",
      "type": "event"
    },
    {
      "anonymous": false,
      "inputs": [
        {
          "indexed": false,
          "internalType": "address",
          "name": "sender",
          "type": "address"
        },
        {
          "indexed": false,
          "internalType": "address",
          "name": "receiver",
          "type": "address"
        },
        {
          "indexed": false,
          "internalType": "uint256",
          "name": "amount",
          "type": "uint256"
        },
        {
          "indexed": false,
          "internalType": "address",
          "name": "tokenAddress",
          "type": "address"
        }
      ],
      "name": "WithdrawLiquidity",
      "type": "event"
    },
    {
      "anonymous": false,
      "inputs": [
        {
          "indexed": false,
          "internalType": "address",
          "name": "sender",
          "type": "address"
        },
        {
          "indexed": false,
          "internalType": "address",
          "name": "receiver",
          "type": "address"
        },
        {
          "indexed": false,
          "internalType": "uint256",
          "name": "amount",
          "type": "uint256"
        },
        {
          "indexed": false,
          "internalType": "address",
          "name": "tokenAddress",
          "type": "address"
        }
      ],
      "name": "WithdrawReward",
      "type": "event"
    },
    {
      "inputs": [],
      "name": "DEFAULT_FINALIZE_WITHDRAWAL_L1_GAS",
      "outputs": [
        {
          "internalType": "uint32",
          "name": "",
          "type": "uint32"
        }
      ],
      "stateMutability": "view",
      "type": "function"
    },
    {
      "inputs": [],
      "name": "L1LiquidityPoolAddress",
      "outputs": [
        {
          "internalType": "address",
          "name": "",
          "type": "address"
        }
      ],
      "stateMutability": "view",
      "type": "function"
    },
    {
      "inputs": [
        {
          "internalType": "uint256",
          "name": "_amount",
          "type": "uint256"
        },
        {
          "internalType": "address",
          "name": "_tokenAddress",
          "type": "address"
        }
      ],
      "name": "addLiquidity",
      "outputs": [],
      "stateMutability": "nonpayable",
      "type": "function"
    },
    {
      "inputs": [
        {
          "internalType": "uint256",
          "name": "_amount",
          "type": "uint256"
        },
        {
          "internalType": "address",
          "name": "_tokenAddress",
          "type": "address"
        }
      ],
      "name": "clientDepositL2",
      "outputs": [],
      "stateMutability": "nonpayable",
      "type": "function"
    },
    {
      "inputs": [
        {
          "internalType": "address",
          "name": "_to",
          "type": "address"
        },
        {
          "internalType": "uint256",
          "name": "_amount",
          "type": "uint256"
        },
        {
          "internalType": "address",
          "name": "_tokenAddress",
          "type": "address"
        }
      ],
      "name": "clientPayL2",
      "outputs": [],
      "stateMutability": "nonpayable",
      "type": "function"
    },
    {
      "inputs": [
        {
          "internalType": "address",
          "name": "_to",
          "type": "address"
        },
        {
          "internalType": "uint256",
          "name": "_amount",
          "type": "uint256"
        },
        {
          "internalType": "address",
          "name": "_tokenAddress",
          "type": "address"
        }
      ],
      "name": "clientPayL2Settlement",
      "outputs": [],
      "stateMutability": "nonpayable",
      "type": "function"
    },
    {
      "inputs": [
        {
          "internalType": "uint256",
          "name": "_userRewardFeeRate",
          "type": "uint256"
        },
        {
          "internalType": "uint256",
          "name": "_ownerRewardFeeRate",
          "type": "uint256"
        }
      ],
      "name": "configureFee",
      "outputs": [],
      "stateMutability": "nonpayable",
      "type": "function"
    },
    {
      "inputs": [
        {
          "internalType": "uint32",
          "name": "_l1GasFee",
          "type": "uint32"
        }
      ],
      "name": "configureGas",
      "outputs": [],
      "stateMutability": "nonpayable",
      "type": "function"
    },
    {
      "inputs": [],
      "name": "getFinalizeDepositL1Gas",
      "outputs": [
        {
          "internalType": "uint32",
          "name": "",
          "type": "uint32"
        }
      ],
      "stateMutability": "view",
      "type": "function"
    },
    {
      "inputs": [
        {
          "internalType": "address",
          "name": "_l2CrossDomainMessenger",
          "type": "address"
        },
        {
          "internalType": "address",
          "name": "_L1LiquidityPoolAddress",
          "type": "address"
        }
      ],
      "name": "initialize",
      "outputs": [],
      "stateMutability": "nonpayable",
      "type": "function"
    },
    {
      "inputs": [],
      "name": "messenger",
      "outputs": [
        {
          "internalType": "address",
          "name": "",
          "type": "address"
        }
      ],
      "stateMutability": "view",
      "type": "function"
    },
    {
      "inputs": [],
      "name": "owner",
      "outputs": [
        {
          "internalType": "address",
          "name": "",
          "type": "address"
        }
      ],
      "stateMutability": "view",
      "type": "function"
    },
    {
      "inputs": [
        {
          "internalType": "uint256",
          "name": "_amount",
          "type": "uint256"
        },
        {
          "internalType": "address",
          "name": "_tokenAddress",
          "type": "address"
        },
        {
          "internalType": "address",
          "name": "_to",
          "type": "address"
        }
      ],
      "name": "ownerRecoverFee",
      "outputs": [],
      "stateMutability": "nonpayable",
      "type": "function"
    },
    {
      "inputs": [],
      "name": "ownerRewardFeeRate",
      "outputs": [
        {
          "internalType": "uint256",
          "name": "",
          "type": "uint256"
        }
      ],
      "stateMutability": "view",
      "type": "function"
    },
    {
      "inputs": [],
      "name": "pause",
      "outputs": [],
      "stateMutability": "nonpayable",
      "type": "function"
    },
    {
      "inputs": [],
      "name": "paused",
      "outputs": [
        {
          "internalType": "bool",
          "name": "",
          "type": "bool"
        }
      ],
      "stateMutability": "view",
      "type": "function"
    },
    {
      "inputs": [
        {
          "internalType": "address",
          "name": "",
          "type": "address"
        }
      ],
      "name": "poolInfo",
      "outputs": [
        {
          "internalType": "address",
          "name": "l1TokenAddress",
          "type": "address"
        },
        {
          "internalType": "address",
          "name": "l2TokenAddress",
          "type": "address"
        },
        {
          "internalType": "uint256",
          "name": "userDepositAmount",
          "type": "uint256"
        },
        {
          "internalType": "uint256",
          "name": "lastAccUserReward",
          "type": "uint256"
        },
        {
          "internalType": "uint256",
          "name": "accUserReward",
          "type": "uint256"
        },
        {
          "internalType": "uint256",
          "name": "accUserRewardPerShare",
          "type": "uint256"
        },
        {
          "internalType": "uint256",
          "name": "accOwnerReward",
          "type": "uint256"
        },
        {
          "internalType": "uint256",
          "name": "startTime",
          "type": "uint256"
        }
      ],
      "stateMutability": "view",
      "type": "function"
    },
    {
      "inputs": [
        {
          "internalType": "address",
          "name": "_l1TokenAddress",
          "type": "address"
        },
        {
          "internalType": "address",
          "name": "_l2TokenAddress",
          "type": "address"
        }
      ],
      "name": "registerPool",
      "outputs": [],
      "stateMutability": "nonpayable",
      "type": "function"
    },
    {
      "inputs": [
        {
          "internalType": "address",
          "name": "_newOwner",
          "type": "address"
        }
      ],
      "name": "transferOwnership",
      "outputs": [],
      "stateMutability": "nonpayable",
      "type": "function"
    },
    {
      "inputs": [],
      "name": "unpause",
      "outputs": [],
      "stateMutability": "nonpayable",
      "type": "function"
    },
    {
      "inputs": [
        {
          "internalType": "address",
          "name": "_tokenAddress",
          "type": "address"
        }
      ],
      "name": "updateUserRewardPerShare",
      "outputs": [],
      "stateMutability": "nonpayable",
      "type": "function"
    },
    {
      "inputs": [
        {
          "internalType": "address",
          "name": "",
          "type": "address"
        },
        {
          "internalType": "address",
          "name": "",
          "type": "address"
        }
      ],
      "name": "userInfo",
      "outputs": [
        {
          "internalType": "uint256",
          "name": "amount",
          "type": "uint256"
        },
        {
          "internalType": "uint256",
          "name": "rewardDebt",
          "type": "uint256"
        },
        {
          "internalType": "uint256",
          "name": "pendingReward",
          "type": "uint256"
        }
      ],
      "stateMutability": "view",
      "type": "function"
    },
    {
      "inputs": [],
      "name": "userRewardFeeRate",
      "outputs": [
        {
          "internalType": "uint256",
          "name": "",
          "type": "uint256"
        }
      ],
      "stateMutability": "view",
      "type": "function"
    },
    {
      "inputs": [
        {
          "internalType": "uint256",
          "name": "_amount",
          "type": "uint256"
        },
        {
          "internalType": "address",
          "name": "_tokenAddress",
          "type": "address"
        },
        {
          "internalType": "address payable",
          "name": "_to",
          "type": "address"
        }
      ],
      "name": "withdrawLiquidity",
      "outputs": [],
      "stateMutability": "nonpayable",
      "type": "function"
    },
    {
      "inputs": [
        {
          "internalType": "uint256",
          "name": "_amount",
          "type": "uint256"
        },
        {
          "internalType": "address",
          "name": "_tokenAddress",
          "type": "address"
        },
        {
          "internalType": "address",
          "name": "_to",
          "type": "address"
        }
      ],
      "name": "withdrawReward",
      "outputs": [],
      "stateMutability": "nonpayable",
      "type": "function"
    }
  ],
  "bytecode": "0x60806040523480156200001c57600080620000196200007a565b50505b506000806000806101000a8162000032620000ea565b8173ffffffffffffffffffffffffffffffffffffffff021916908373ffffffffffffffffffffffffffffffffffffffff16021790620000706200014f565b50505050620001b6565b632a2a7adb598160e01b8152600481016020815285602082015260005b86811015620000b757808601518160408401015260208101905062000097565b506020828760640184336000905af158600e01573d6000803e3d6000fd5b3d6001141558600a015760016000f35b505050565b6303daa959598160e01b8152836004820152602081602483336000905af158600e01573d6000803e3d6000fd5b3d6001141558600a015760016000f35b8051935060005b60408110156200014a576000818301526020810190506200012e565b505050565b6322bd64c0598160e01b8152836004820152846024820152600081604483336000905af158600e01573d6000803e3d6000fd5b3d6001141558600a015760016000f35b60005b6040811015620001b15760008183015260208101905062000195565b505050565b61540380620001c66000396000f3fe608060405234801561001957600080610016614e8b565b50505b506004361061017c5760003560e01c8063650a767b116100e75780638da5cb5b116100a0578063bd2d1cab1161007a578063bd2d1cab146107c2578063c95f9d0e14610839578063d1dd871a14610890578063f2fde38b146108d15761017c565b80638da5cb5b146106ac578063997d73df146106e05780639a7b5f11146107045761017c565b8063650a767b146104ac5780636854e22b1461052357806368be42ca146105475780637286e5e5146105be57806381e6bdac1461062b5780638456cb59146106a25761017c565b80633cb747bf116101395780633cb747bf1461034c5780633f4ba83a14610380578063435fd5711461038a578063485cc955146103a857806349561dc4146104155780635c975abb1461048c5761017c565b80630f208beb1461018a57806312f54c1a1461021957806316a8dda7146102665780631d00a7711461029a57806334636648146102f1578063358fc07e1461032e575b600080610187614e8b565b50505b6101f5600480360360408110156101a9576000806101a6614e8b565b50505b81019080803573ffffffffffffffffffffffffffffffffffffffff169060200190929190803573ffffffffffffffffffffffffffffffffffffffff16906020019092919050505061091e565b60405180848152602001838152602001828152602001935050505060405180910390f35b6102646004803603602081101561023857600080610235614e8b565b50505b81019080803573ffffffffffffffffffffffffffffffffffffffff16906020019092919050505061096a565b005b61026e610a92565b604051808273ffffffffffffffffffffffffffffffffffffffff16815260200191505060405180910390f35b6102ef600480360360408110156102b9576000806102b6614e8b565b50505b8101908080359060200190929190803573ffffffffffffffffffffffffffffffffffffffff169060200190929190505050610abf565b005b61032c600480360360208110156103105760008061030d614e8b565b50505b81019080803563ffffffff169060200190929190505050610e92565b005b6103366110b9565b6040518082815260200191505060405180910390f35b6103546110c6565b604051808273ffffffffffffffffffffffffffffffffffffffff16815260200191505060405180910390f35b6103886110f1565b005b610392611236565b6040518082815260200191505060405180910390f35b610413600480360360408110156103c7576000806103c4614e8b565b50505b81019080803573ffffffffffffffffffffffffffffffffffffffff169060200190929190803573ffffffffffffffffffffffffffffffffffffffff169060200190929190505050611243565b005b61048a6004803603606081101561043457600080610431614e8b565b50505b8101908080359060200190929190803573ffffffffffffffffffffffffffffffffffffffff169060200190929190803573ffffffffffffffffffffffffffffffffffffffff169060200190929190505050611580565b005b6104946119e4565b60405180821515815260200191505060405180910390f35b610521600480360360608110156104cb576000806104c8614e8b565b50505b81019080803573ffffffffffffffffffffffffffffffffffffffff16906020019092919080359060200190929190803573ffffffffffffffffffffffffffffffffffffffff169060200190929190505050611a02565b005b61052b611f3e565b604051808263ffffffff16815260200191505060405180910390f35b6105bc6004803603606081101561056657600080610563614e8b565b50505b8101908080359060200190929190803573ffffffffffffffffffffffffffffffffffffffff169060200190929190803573ffffffffffffffffffffffffffffffffffffffff169060200190929190505050611f5b565b005b610629600480360360408110156105dd576000806105da614e8b565b50505b81019080803573ffffffffffffffffffffffffffffffffffffffff169060200190929190803573ffffffffffffffffffffffffffffffffffffffff169060200190929190505050612395565b005b6106a06004803603606081101561064a57600080610647614e8b565b50505b8101908080359060200190929190803573ffffffffffffffffffffffffffffffffffffffff169060200190929190803573ffffffffffffffffffffffffffffffffffffffff169060200190929190505050612851565b005b6106aa612c29565b005b6106b4612d6e565b604051808273ffffffffffffffffffffffffffffffffffffffff16815260200191505060405180910390f35b6106e8612d9b565b604051808263ffffffff16815260200191505060405180910390f35b61074f6004803603602081101561072357600080610720614e8b565b50505b81019080803573ffffffffffffffffffffffffffffffffffffffff169060200190929190505050612dbc565b604051808973ffffffffffffffffffffffffffffffffffffffff1681526020018873ffffffffffffffffffffffffffffffffffffffff1681526020018781526020018681526020018581526020018481526020018381526020018281526020019850505050505050505060405180910390f35b610837600480360360608110156107e1576000806107de614e8b565b50505b81019080803573ffffffffffffffffffffffffffffffffffffffff16906020019092919080359060200190929190803573ffffffffffffffffffffffffffffffffffffffff169060200190929190505050612e7c565b005b61088e6004803603604081101561085857600080610855614e8b565b50505b8101908080359060200190929190803573ffffffffffffffffffffffffffffffffffffffff16906020019092919050505061360d565b005b6108cf600480360360408110156108af576000806108ac614e8b565b50505b810190808035906020019092919080359060200190929190505050613ba3565b005b61091c600480360360208110156108f0576000806108ed614e8b565b50505b81019080803573ffffffffffffffffffffffffffffffffffffffff169060200190929190505050613dba565b005b6098602052816000526040600020602052806000526040600020600091509150508060000161094b614ef9565b9080600101610958614ef9565b9080600201610965614ef9565b905083565b6000609760008373ffffffffffffffffffffffffffffffffffffffff1673ffffffffffffffffffffffffffffffffffffffff1681526020019081526020016000209050806004016109b9614ef9565b816003016109c5614ef9565b1015610a8e5760006109f6826003016109dc614ef9565b836004016109e8614ef9565b613f4990919063ffffffff16565b9050600082600201610a06614ef9565b14610a6f57610a5d610a4383600201610a1d614ef9565b610a3564e8d4a5100085613fd590919063ffffffff16565b61406490919063ffffffff16565b83600501610a4f614ef9565b6140f690919063ffffffff16565b826005018190610a6b614f5c565b5050505b81600401610a7b614ef9565b826003018190610a89614f5c565b505050505b5050565b609a600090610a9f614ef9565b906101000a900473ffffffffffffffffffffffffffffffffffffffff1681565b610ac76119e4565b15610b43576040517f08c379a00000000000000000000000000000000000000000000000000000000081526004018080602001828103825260108152602001807f5061757361626c653a207061757365640000000000000000000000000000000081525060200191505060405180910390610b40614e8b565b50505b6000609760008373ffffffffffffffffffffffffffffffffffffffff1673ffffffffffffffffffffffffffffffffffffffff1681526020019081526020016000209050600073ffffffffffffffffffffffffffffffffffffffff1681600101600090610bad614ef9565b906101000a900473ffffffffffffffffffffffffffffffffffffffff1673ffffffffffffffffffffffffffffffffffffffff161415610c5d576040517f08c379a000000000000000000000000000000000000000000000000000000000815260040180806020018281038252601c8152602001807f546f6b656e2041646472657373204e6f7420526567697374657265640000000081525060200191505060405180910390610c5a614e8b565b50505b610ced5a610c69614fc1565b5a63996d79a5598160e01b8152602081600483336000905af158600e01573d6000803e3d6000fd5b3d6001141558600a015760016000f35b8051925060005b6040811015610cc257600081830152602081019050610ca8565b505050858573ffffffffffffffffffffffffffffffffffffffff16614187909392919063ffffffff16565b600063cf26fb1b60e01b5a610d00614fc1565b8584600001600090610d10614ef9565b906101000a900473ffffffffffffffffffffffffffffffffffffffff16604051602401808473ffffffffffffffffffffffffffffffffffffffff1681526020018381526020018273ffffffffffffffffffffffffffffffffffffffff1681526020019350505050604051602081830303815290604052907bffffffffffffffffffffffffffffffffffffffffffffffffffffffff19166020820180517bffffffffffffffffffffffffffffffffffffffffffffffffffffffff83818316178352505050509050610e11609a600090610de6614ef9565b906101000a900473ffffffffffffffffffffffffffffffffffffffff16610e0b612d9b565b83614248565b7fe57500de6b6dcf76b201fef514aca6501809e3b700c9fbd5e803567c66edf54c5a610e3b614fc1565b8585604051808473ffffffffffffffffffffffffffffffffffffffff1681526020018381526020018273ffffffffffffffffffffffffffffffffffffffff168152602001935050505060405180910390a150505050565b6099600090610e9f614ef9565b906101000a900473ffffffffffffffffffffffffffffffffffffffff1673ffffffffffffffffffffffffffffffffffffffff165a610edb614fc1565b73ffffffffffffffffffffffffffffffffffffffff161480610f525750600073ffffffffffffffffffffffffffffffffffffffff166099600090610f1d614ef9565b906101000a900473ffffffffffffffffffffffffffffffffffffffff1673ffffffffffffffffffffffffffffffffffffffff16145b610fcd576040517f08c379a00000000000000000000000000000000000000000000000000000000081526004018080602001828103825260178152602001807f63616c6c6572206973206e6f7420746865206f776e657200000000000000000081525060200191505060405180910390610fca614e8b565b50505b600073ffffffffffffffffffffffffffffffffffffffff16609a600090610ff2614ef9565b906101000a900473ffffffffffffffffffffffffffffffffffffffff1673ffffffffffffffffffffffffffffffffffffffff161415611085576040517f08c379a000000000000000000000000000000000000000000000000000000000815260040180806020018281038252602581526020018061530d6025913960400191505060405180910390611082614e8b565b50505b80609d60006101000a81611097614ef9565b8163ffffffff021916908363ffffffff160217906110b3614f5c565b50505050565b609c6110c3614ef9565b81565b6000806110d1614ef9565b906101000a900473ffffffffffffffffffffffffffffffffffffffff1681565b60996000906110fe614ef9565b906101000a900473ffffffffffffffffffffffffffffffffffffffff1673ffffffffffffffffffffffffffffffffffffffff165a61113a614fc1565b73ffffffffffffffffffffffffffffffffffffffff1614806111b15750600073ffffffffffffffffffffffffffffffffffffffff16609960009061117c614ef9565b906101000a900473ffffffffffffffffffffffffffffffffffffffff1673ffffffffffffffffffffffffffffffffffffffff16145b61122c576040517f08c379a00000000000000000000000000000000000000000000000000000000081526004018080602001828103825260178152602001807f63616c6c6572206973206e6f7420746865206f776e657200000000000000000081525060200191505060405180910390611229614e8b565b50505b611234614376565b565b609b611240614ef9565b81565b6099600090611250614ef9565b906101000a900473ffffffffffffffffffffffffffffffffffffffff1673ffffffffffffffffffffffffffffffffffffffff165a61128c614fc1565b73ffffffffffffffffffffffffffffffffffffffff1614806113035750600073ffffffffffffffffffffffffffffffffffffffff1660996000906112ce614ef9565b906101000a900473ffffffffffffffffffffffffffffffffffffffff1673ffffffffffffffffffffffffffffffffffffffff16145b61137e576040517f08c379a00000000000000000000000000000000000000000000000000000000081526004018080602001828103825260178152602001807f63616c6c6572206973206e6f7420746865206f776e65720000000000000000008152506020019150506040518091039061137b614e8b565b50505b600073ffffffffffffffffffffffffffffffffffffffff16609a6000906113a3614ef9565b906101000a900473ffffffffffffffffffffffffffffffffffffffff1673ffffffffffffffffffffffffffffffffffffffff1614611452576040517f08c379a000000000000000000000000000000000000000000000000000000000815260040180806020018281038252601d8152602001807f436f6e747261637420686173206265656e20696e697469616c697a65640000008152506020019150506040518091039061144f614e8b565b50505b816000806101000a81611463614ef9565b8173ffffffffffffffffffffffffffffffffffffffff021916908373ffffffffffffffffffffffffffffffffffffffff1602179061149f614f5c565b50505080609a60006101000a816114b4614ef9565b8173ffffffffffffffffffffffffffffffffffffffff021916908373ffffffffffffffffffffffffffffffffffffffff160217906114f0614f5c565b5050505a6114fc614fc1565b609960006101000a8161150d614ef9565b8173ffffffffffffffffffffffffffffffffffffffff021916908373ffffffffffffffffffffffffffffffffffffffff16021790611549614f5c565b5050506115586023600f613ba3565b611564620186a0610e92565b61156c61447a565b6115746145c9565b61157c614743565b5050565b6115886119e4565b15611604576040517f08c379a00000000000000000000000000000000000000000000000000000000081526004018080602001828103825260108152602001807f5061757361626c653a207061757365640000000000000000000000000000000081525060200191505060405180910390611601614e8b565b50505b6000609760008473ffffffffffffffffffffffffffffffffffffffff1673ffffffffffffffffffffffffffffffffffffffff16815260200190815260200160002090506000609860008573ffffffffffffffffffffffffffffffffffffffff1673ffffffffffffffffffffffffffffffffffffffff16815260200190815260200160002060005a611693614fc1565b73ffffffffffffffffffffffffffffffffffffffff1673ffffffffffffffffffffffffffffffffffffffff1681526020019081526020016000209050600073ffffffffffffffffffffffffffffffffffffffff16826001016000906116f6614ef9565b906101000a900473ffffffffffffffffffffffffffffffffffffffff1673ffffffffffffffffffffffffffffffffffffffff1614156117a6576040517f08c379a000000000000000000000000000000000000000000000000000000000815260040180806020018281038252601c8152602001807f546f6b656e2041646472657373204e6f74205265676973746572656400000000815250602001915050604051809103906117a3614e8b565b50505b6000611822611808836001016117ba614ef9565b6117fa64e8d4a510006117ec886005016117d2614ef9565b886000016117de614ef9565b613fd590919063ffffffff16565b61406490919063ffffffff16565b613f4990919063ffffffff16565b83600201611814614ef9565b6140f690919063ffffffff16565b9050858110156118a3576040517f08c379a00000000000000000000000000000000000000000000000000000000081526004018080602001828103825260158152602001807f576974686472617720526577617264204572726f720000000000000000000000815250602001915050604051809103906118a0614e8b565b50505b6118b68682613f4990919063ffffffff16565b8260020181906118c4614f5c565b50505061190764e8d4a510006118f9856005016118df614ef9565b856000016118eb614ef9565b613fd590919063ffffffff16565b61406490919063ffffffff16565b826001018190611915614f5c565b50505061194384878773ffffffffffffffffffffffffffffffffffffffff166148a29092919063ffffffff16565b7f3cb7cb475a33eda02ee6e719b6c2fc0c899157cfc6f098daf545354dbbce41ec5a61196d614fc1565b858888604051808573ffffffffffffffffffffffffffffffffffffffff1681526020018473ffffffffffffffffffffffffffffffffffffffff1681526020018381526020018273ffffffffffffffffffffffffffffffffffffffff16815260200194505050505060405180910390a1505050505050565b600060656000906119f3614ef9565b906101000a900460ff16905090565b600073ffffffffffffffffffffffffffffffffffffffff16609a600090611a27614ef9565b906101000a900473ffffffffffffffffffffffffffffffffffffffff1673ffffffffffffffffffffffffffffffffffffffff161415611aba576040517f08c379a000000000000000000000000000000000000000000000000000000000815260040180806020018281038252602581526020018061530d6025913960400191505060405180910390611ab7614e8b565b50505b609a600090611ac7614ef9565b906101000a900473ffffffffffffffffffffffffffffffffffffffff16611aec614944565b73ffffffffffffffffffffffffffffffffffffffff165a611b0b614fc1565b73ffffffffffffffffffffffffffffffffffffffff1614611b80576040517f08c379a000000000000000000000000000000000000000000000000000000000815260040180806020018281038252602e8152602001806152df602e913960400191505060405180910390611b7d614e8b565b50505b8073ffffffffffffffffffffffffffffffffffffffff16611b9f614944565b73ffffffffffffffffffffffffffffffffffffffff16636e296e456040518163ffffffff1660e01b81526004016020604051808303818680611bdf61501e565b158015611bf457600080611bf1614e8b565b50505b505a611bfe615081565b5050505050158015611c1d573d6000803e3d6000611c1a614e8b565b50505b505050506040513d6020811015611c3c57600080611c39614e8b565b50505b810190808051906020019092919050505073ffffffffffffffffffffffffffffffffffffffff1614611cc2576040517f08c379a00000000000000000000000000000000000000000000000000000000081526004018080602001828103825260308152602001806153816030913960400191505060405180910390611cbf614e8b565b50505b611cca6119e4565b15611d46576040517f08c379a00000000000000000000000000000000000000000000000000000000081526004018080602001828103825260108152602001807f5061757361626c653a207061757365640000000000000000000000000000000081525060200191505060405180910390611d43614e8b565b50505b6000609760008473ffffffffffffffffffffffffffffffffffffffff1673ffffffffffffffffffffffffffffffffffffffff16815260200190815260200160002090506000611dbb6103e8611dad609b611d9e614ef9565b88613fd590919063ffffffff16565b61406490919063ffffffff16565b90506000611def6103e8611de1609c611dd2614ef9565b89613fd590919063ffffffff16565b61406490919063ffffffff16565b90506000611e0682846140f690919063ffffffff16565b90506000611e1d8289613f4990919063ffffffff16565b9050611e3d8486600401611e2f614ef9565b6140f690919063ffffffff16565b856004018190611e4b614f5c565b505050611e6c8386600601611e5e614ef9565b6140f690919063ffffffff16565b856006018190611e7a614f5c565b505050611ea889828973ffffffffffffffffffffffffffffffffffffffff166148a29092919063ffffffff16565b7ff1068421680e00dfc2c4f3fc20c7f565bf1ec365420e7544365bae13d5cbc8c889828686868c604051808773ffffffffffffffffffffffffffffffffffffffff1681526020018681526020018581526020018481526020018381526020018273ffffffffffffffffffffffffffffffffffffffff168152602001965050505050505060405180910390a1505050505050505050565b609d600090611f4b614ef9565b906101000a900463ffffffff1681565b6000609760008473ffffffffffffffffffffffffffffffffffffffff1673ffffffffffffffffffffffffffffffffffffffff16815260200190815260200160002090506000609860008573ffffffffffffffffffffffffffffffffffffffff1673ffffffffffffffffffffffffffffffffffffffff16815260200190815260200160002060005a611fea614fc1565b73ffffffffffffffffffffffffffffffffffffffff1673ffffffffffffffffffffffffffffffffffffffff1681526020019081526020016000209050600073ffffffffffffffffffffffffffffffffffffffff168260010160009061204d614ef9565b906101000a900473ffffffffffffffffffffffffffffffffffffffff1673ffffffffffffffffffffffffffffffffffffffff1614156120fd576040517f08c379a000000000000000000000000000000000000000000000000000000000815260040180806020018281038252601c8152602001807f546f6b656e2041646472657373204e6f74205265676973746572656400000000815250602001915050604051809103906120fa614e8b565b50505b848160000161210a614ef9565b1015612187576040517f08c379a000000000000000000000000000000000000000000000000000000000815260040180806020018281038252600e8152602001807f5769746864726177204572726f7200000000000000000000000000000000000081525060200191505060405180910390612184614e8b565b50505b6121908461096a565b61220a6121f0826001016121a2614ef9565b6121e264e8d4a510006121d4876005016121ba614ef9565b876000016121c6614ef9565b613fd590919063ffffffff16565b61406490919063ffffffff16565b613f4990919063ffffffff16565b826002016121fc614ef9565b6140f690919063ffffffff16565b816002018190612218614f5c565b505050612239858260000161222b614ef9565b613f4990919063ffffffff16565b816000018190612247614f5c565b50505061228a64e8d4a5100061227c84600501612262614ef9565b8460000161226e614ef9565b613fd590919063ffffffff16565b61406490919063ffffffff16565b816001018190612298614f5c565b5050506122b985836002016122ab614ef9565b613f4990919063ffffffff16565b8260020181906122c7614f5c565b5050506122f583868673ffffffffffffffffffffffffffffffffffffffff166148a29092919063ffffffff16565b7ffa2e8fcf14fd6ea11b6ebe7caf7de210198b8fe1eaf0e06d19f8d87c73860c465a61231f614fc1565b848787604051808573ffffffffffffffffffffffffffffffffffffffff1681526020018473ffffffffffffffffffffffffffffffffffffffff1681526020018381526020018273ffffffffffffffffffffffffffffffffffffffff16815260200194505050505060405180910390a15050505050565b60996000906123a2614ef9565b906101000a900473ffffffffffffffffffffffffffffffffffffffff1673ffffffffffffffffffffffffffffffffffffffff165a6123de614fc1565b73ffffffffffffffffffffffffffffffffffffffff1614806124555750600073ffffffffffffffffffffffffffffffffffffffff166099600090612420614ef9565b906101000a900473ffffffffffffffffffffffffffffffffffffffff1673ffffffffffffffffffffffffffffffffffffffff16145b6124d0576040517f08c379a00000000000000000000000000000000000000000000000000000000081526004018080602001828103825260178152602001807f63616c6c6572206973206e6f7420746865206f776e6572000000000000000000815250602001915050604051809103906124cd614e8b565b50505b8073ffffffffffffffffffffffffffffffffffffffff168273ffffffffffffffffffffffffffffffffffffffff16141561255e576040517f08c379a00000000000000000000000000000000000000000000000000000000081526004018080602001828103825260288152602001806153db602891396040019150506040518091039061255b614e8b565b50505b6000609760008373ffffffffffffffffffffffffffffffffffffffff1673ffffffffffffffffffffffffffffffffffffffff1681526020019081526020016000209050600073ffffffffffffffffffffffffffffffffffffffff16816001016000906125c8614ef9565b906101000a900473ffffffffffffffffffffffffffffffffffffffff1673ffffffffffffffffffffffffffffffffffffffff1614612677576040517f08c379a000000000000000000000000000000000000000000000000000000000815260040180806020018281038252601f8152602001807f546f6b656e204164647265737320416c7265616479205265676973746572640081525060200191505060405180910390612674614e8b565b50505b6040518061010001604052808473ffffffffffffffffffffffffffffffffffffffff1681526020018373ffffffffffffffffffffffffffffffffffffffff16815260200160008152602001600081526020016000815260200160008152602001600081526020015a6126e7615181565b815250609760008473ffffffffffffffffffffffffffffffffffffffff1673ffffffffffffffffffffffffffffffffffffffff16815260200190815260200160002060008201518160000160006101000a81612741614ef9565b8173ffffffffffffffffffffffffffffffffffffffff021916908373ffffffffffffffffffffffffffffffffffffffff1602179061277d614f5c565b50505060208201518160010160006101000a81612798614ef9565b8173ffffffffffffffffffffffffffffffffffffffff021916908373ffffffffffffffffffffffffffffffffffffffff160217906127d4614f5c565b5050506040820151816002016127e8614f5c565b50506060820151816003016127fb614f5c565b505060808201518160040161280e614f5c565b505060a082015181600501612821614f5c565b505060c082015181600601612834614f5c565b505060e082015181600701612847614f5c565b5050905050505050565b609960009061285e614ef9565b906101000a900473ffffffffffffffffffffffffffffffffffffffff1673ffffffffffffffffffffffffffffffffffffffff165a61289a614fc1565b73ffffffffffffffffffffffffffffffffffffffff1614806129115750600073ffffffffffffffffffffffffffffffffffffffff1660996000906128dc614ef9565b906101000a900473ffffffffffffffffffffffffffffffffffffffff1673ffffffffffffffffffffffffffffffffffffffff16145b61298c576040517f08c379a00000000000000000000000000000000000000000000000000000000081526004018080602001828103825260178152602001807f63616c6c6572206973206e6f7420746865206f776e657200000000000000000081525060200191505060405180910390612989614e8b565b50505b6000609760008473ffffffffffffffffffffffffffffffffffffffff1673ffffffffffffffffffffffffffffffffffffffff1681526020019081526020016000209050600073ffffffffffffffffffffffffffffffffffffffff16816001016000906129f6614ef9565b906101000a900473ffffffffffffffffffffffffffffffffffffffff1673ffffffffffffffffffffffffffffffffffffffff161415612aa6576040517f08c379a000000000000000000000000000000000000000000000000000000000815260040180806020018281038252601a8152602001807f546f6b656e2041646472657373204e6f7420526567697374657200000000000081525060200191505060405180910390612aa3614e8b565b50505b8381600601612ab3614ef9565b1015612b30576040517f08c379a000000000000000000000000000000000000000000000000000000000815260040180806020018281038252601b8152602001807f4f776e657220526577617264205769746864726177204572726f72000000000081525060200191505060405180910390612b2d614e8b565b50505b612b4e8482600601612b40614ef9565b613f4990919063ffffffff16565b816006018190612b5c614f5c565b505050612b8a82858573ffffffffffffffffffffffffffffffffffffffff166148a29092919063ffffffff16565b7f3cb71b9a1fb601579f96812b9f86ab5e914fc3e54c98d5f84d95581b2b9884f35a612bb4614fc1565b838686604051808573ffffffffffffffffffffffffffffffffffffffff1681526020018473ffffffffffffffffffffffffffffffffffffffff1681526020018381526020018273ffffffffffffffffffffffffffffffffffffffff16815260200194505050505060405180910390a150505050565b6099600090612c36614ef9565b906101000a900473ffffffffffffffffffffffffffffffffffffffff1673ffffffffffffffffffffffffffffffffffffffff165a612c72614fc1565b73ffffffffffffffffffffffffffffffffffffffff161480612ce95750600073ffffffffffffffffffffffffffffffffffffffff166099600090612cb4614ef9565b906101000a900473ffffffffffffffffffffffffffffffffffffffff1673ffffffffffffffffffffffffffffffffffffffff16145b612d64576040517f08c379a00000000000000000000000000000000000000000000000000000000081526004018080602001828103825260178152602001807f63616c6c6572206973206e6f7420746865206f776e657200000000000000000081525060200191505060405180910390612d61614e8b565b50505b612d6c614974565b565b6099600090612d7b614ef9565b906101000a900473ffffffffffffffffffffffffffffffffffffffff1681565b6000609d600090612daa614ef9565b906101000a900463ffffffff16905090565b609760205280600052604060002060009150905080600001600090612ddf614ef9565b906101000a900473ffffffffffffffffffffffffffffffffffffffff169080600101600090612e0c614ef9565b906101000a900473ffffffffffffffffffffffffffffffffffffffff169080600201612e36614ef9565b9080600301612e43614ef9565b9080600401612e50614ef9565b9080600501612e5d614ef9565b9080600601612e6a614ef9565b9080600701612e77614ef9565b905088565b600073ffffffffffffffffffffffffffffffffffffffff16609a600090612ea1614ef9565b906101000a900473ffffffffffffffffffffffffffffffffffffffff1673ffffffffffffffffffffffffffffffffffffffff161415612f34576040517f08c379a000000000000000000000000000000000000000000000000000000000815260040180806020018281038252602581526020018061530d6025913960400191505060405180910390612f31614e8b565b50505b609a600090612f41614ef9565b906101000a900473ffffffffffffffffffffffffffffffffffffffff16612f66614944565b73ffffffffffffffffffffffffffffffffffffffff165a612f85614fc1565b73ffffffffffffffffffffffffffffffffffffffff1614612ffa576040517f08c379a000000000000000000000000000000000000000000000000000000000815260040180806020018281038252602e8152602001806152df602e913960400191505060405180910390612ff7614e8b565b50505b8073ffffffffffffffffffffffffffffffffffffffff16613019614944565b73ffffffffffffffffffffffffffffffffffffffff16636e296e456040518163ffffffff1660e01b8152600401602060405180830381868061305961501e565b15801561306e5760008061306b614e8b565b50505b505a613078615081565b5050505050158015613097573d6000803e3d6000613094614e8b565b50505b505050506040513d60208110156130b6576000806130b3614e8b565b50505b810190808051906020019092919050505073ffffffffffffffffffffffffffffffffffffffff161461313c576040517f08c379a00000000000000000000000000000000000000000000000000000000081526004018080602001828103825260308152602001806153816030913960400191505060405180910390613139614e8b565b50505b6131446119e4565b156131c0576040517f08c379a00000000000000000000000000000000000000000000000000000000081526004018080602001828103825260108152602001807f5061757361626c653a2070617573656400000000000000000000000000000000815250602001915050604051809103906131bd614e8b565b50505b6000609760008473ffffffffffffffffffffffffffffffffffffffff1673ffffffffffffffffffffffffffffffffffffffff168152602001908152602001600020905060006132356103e8613227609b613218614ef9565b88613fd590919063ffffffff16565b61406490919063ffffffff16565b905060006132696103e861325b609c61324c614ef9565b89613fd590919063ffffffff16565b61406490919063ffffffff16565b9050600061328082846140f690919063ffffffff16565b905060006132978289613f4990919063ffffffff16565b90508673ffffffffffffffffffffffffffffffffffffffff166370a082315a63996d79a5598160e01b8152602081600483336000905af158600e01573d6000803e3d6000fd5b3d6001141558600a015760016000f35b8051925060005b604081101561330e576000818301526020810190506132f4565b5050506040518263ffffffff1660e01b8152600401808273ffffffffffffffffffffffffffffffffffffffff168152602001915050602060405180830381868061335661501e565b15801561336b57600080613368614e8b565b50505b505a613375615081565b5050505050158015613394573d6000803e3d6000613391614e8b565b50505b505050506040513d60208110156133b3576000806133b0614e8b565b50505b81019080805190602001909291905050508111156134ed5760006353174cc160e01b8a8a886000016000906133e6614ef9565b906101000a900473ffffffffffffffffffffffffffffffffffffffff16604051602401808473ffffffffffffffffffffffffffffffffffffffff1681526020018381526020018273ffffffffffffffffffffffffffffffffffffffff1681526020019350505050604051602081830303815290604052907bffffffffffffffffffffffffffffffffffffffffffffffffffffffff19166020820180517bffffffffffffffffffffffffffffffffffffffffffffffffffffffff838183161783525050505090506134e7609a6000906134bc614ef9565b906101000a900473ffffffffffffffffffffffffffffffffffffffff166134e1612d9b565b83614248565b50613602565b61350b84866004016134fd614ef9565b6140f690919063ffffffff16565b856004018190613519614f5c565b50505061353a838660060161352c614ef9565b6140f690919063ffffffff16565b856006018190613548614f5c565b50505061357689828973ffffffffffffffffffffffffffffffffffffffff166148a29092919063ffffffff16565b7fedb4d3b4b55168608412f15db11c00859915842963c31b1f08d910a38e1d6aa489828686868c604051808773ffffffffffffffffffffffffffffffffffffffff1681526020018681526020018581526020018481526020018381526020018273ffffffffffffffffffffffffffffffffffffffff168152602001965050505050505060405180910390a15b505050505050505050565b60026001613619614ef9565b1415613696576040517f08c379a000000000000000000000000000000000000000000000000000000000815260040180806020018281038252601f8152602001807f5265656e7472616e637947756172643a207265656e7472616e742063616c6c0081525060200191505060405180910390613693614e8b565b50505b6002600181906136a4614f5c565b5050506136af6119e4565b1561372b576040517f08c379a00000000000000000000000000000000000000000000000000000000081526004018080602001828103825260108152602001807f5061757361626c653a207061757365640000000000000000000000000000000081525060200191505060405180910390613728614e8b565b50505b6000609760008373ffffffffffffffffffffffffffffffffffffffff1673ffffffffffffffffffffffffffffffffffffffff16815260200190815260200160002090506000609860008473ffffffffffffffffffffffffffffffffffffffff1673ffffffffffffffffffffffffffffffffffffffff16815260200190815260200160002060005a6137ba614fc1565b73ffffffffffffffffffffffffffffffffffffffff1673ffffffffffffffffffffffffffffffffffffffff1681526020019081526020016000209050600073ffffffffffffffffffffffffffffffffffffffff168260010160009061381d614ef9565b906101000a900473ffffffffffffffffffffffffffffffffffffffff1673ffffffffffffffffffffffffffffffffffffffff1614156138cd576040517f08c379a000000000000000000000000000000000000000000000000000000000815260040180806020018281038252601c8152602001807f546f6b656e2041646472657373204e6f74205265676973746572656400000000815250602001915050604051809103906138ca614e8b565b50505b6138d68361096a565b6000816000016138e4614ef9565b11156139dd5761396461394a826001016138fc614ef9565b61393c64e8d4a5100061392e87600501613914614ef9565b87600001613920614ef9565b613fd590919063ffffffff16565b61406490919063ffffffff16565b613f4990919063ffffffff16565b82600201613956614ef9565b6140f690919063ffffffff16565b816002018190613972614f5c565b5050506139c764e8d4a510006139b98460050161398d614ef9565b6139ab888660000161399d614ef9565b6140f690919063ffffffff16565b613fd590919063ffffffff16565b61406490919063ffffffff16565b8160010181906139d5614f5c565b505050613a24565b613a1264e8d4a51000613a04846005016139f5614ef9565b87613fd590919063ffffffff16565b61406490919063ffffffff16565b816001018190613a20614f5c565b5050505b613ab45a613a30614fc1565b5a63996d79a5598160e01b8152602081600483336000905af158600e01573d6000803e3d6000fd5b3d6001141558600a015760016000f35b8051925060005b6040811015613a8957600081830152602081019050613a6f565b505050868673ffffffffffffffffffffffffffffffffffffffff16614187909392919063ffffffff16565b613ad28482600001613ac4614ef9565b6140f690919063ffffffff16565b816000018190613ae0614f5c565b505050613b018483600201613af3614ef9565b6140f690919063ffffffff16565b826002018190613b0f614f5c565b5050507f5852d1d46e583f7e92c2a572221de0e681d82ef71f489847e056b9445c0147365a613b3c614fc1565b8585604051808473ffffffffffffffffffffffffffffffffffffffff1681526020018381526020018273ffffffffffffffffffffffffffffffffffffffff168152602001935050505060405180910390a150506001808190613b9c614f5c565b5050505050565b6099600090613bb0614ef9565b906101000a900473ffffffffffffffffffffffffffffffffffffffff1673ffffffffffffffffffffffffffffffffffffffff165a613bec614fc1565b73ffffffffffffffffffffffffffffffffffffffff161480613c635750600073ffffffffffffffffffffffffffffffffffffffff166099600090613c2e614ef9565b906101000a900473ffffffffffffffffffffffffffffffffffffffff1673ffffffffffffffffffffffffffffffffffffffff16145b613cde576040517f08c379a00000000000000000000000000000000000000000000000000000000081526004018080602001828103825260178152602001807f63616c6c6572206973206e6f7420746865206f776e657200000000000000000081525060200191505060405180910390613cdb614e8b565b50505b600073ffffffffffffffffffffffffffffffffffffffff16609a600090613d03614ef9565b906101000a900473ffffffffffffffffffffffffffffffffffffffff1673ffffffffffffffffffffffffffffffffffffffff161415613d96576040517f08c379a000000000000000000000000000000000000000000000000000000000815260040180806020018281038252602581526020018061530d6025913960400191505060405180910390613d93614e8b565b50505b81609b8190613da3614f5c565b50505080609c8190613db3614f5c565b5050505050565b6099600090613dc7614ef9565b906101000a900473ffffffffffffffffffffffffffffffffffffffff1673ffffffffffffffffffffffffffffffffffffffff165a613e03614fc1565b73ffffffffffffffffffffffffffffffffffffffff161480613e7a5750600073ffffffffffffffffffffffffffffffffffffffff166099600090613e45614ef9565b906101000a900473ffffffffffffffffffffffffffffffffffffffff1673ffffffffffffffffffffffffffffffffffffffff16145b613ef5576040517f08c379a00000000000000000000000000000000000000000000000000000000081526004018080602001828103825260178152602001807f63616c6c6572206973206e6f7420746865206f776e657200000000000000000081525060200191505060405180910390613ef2614e8b565b50505b80609960006101000a81613f07614ef9565b8173ffffffffffffffffffffffffffffffffffffffff021916908373ffffffffffffffffffffffffffffffffffffffff16021790613f43614f5c565b50505050565b600082821115613fca576040517f08c379a000000000000000000000000000000000000000000000000000000000815260040180806020018281038252601e8152602001807f536166654d6174683a207375627472616374696f6e206f766572666c6f77000081525060200191505060405180910390613fc7614e8b565b50505b818303905092915050565b600080831415613fe8576000905061405e565b6000828402905082848281613ff957fe5b0414614059576040517f08c379a00000000000000000000000000000000000000000000000000000000081526004018080602001828103825260218152602001806153606021913960400191505060405180910390614056614e8b565b50505b809150505b92915050565b60008082116140e4576040517f08c379a000000000000000000000000000000000000000000000000000000000815260040180806020018281038252601a8152602001807f536166654d6174683a206469766973696f6e206279207a65726f000000000000815250602001915050604051809103906140e1614e8b565b50505b8183816140ed57fe5b04905092915050565b60008082840190508381101561417d576040517f08c379a000000000000000000000000000000000000000000000000000000000815260040180806020018281038252601b8152602001807f536166654d6174683a206164646974696f6e206f766572666c6f7700000000008152506020019150506040518091039061417a614e8b565b50505b8091505092915050565b614242846323b872dd60e01b858585604051602401808473ffffffffffffffffffffffffffffffffffffffff1681526020018373ffffffffffffffffffffffffffffffffffffffff1681526020018281526020019350505050604051602081830303815290604052907bffffffffffffffffffffffffffffffffffffffffffffffffffffffff19166020820180517bffffffffffffffffffffffffffffffffffffffffffffffffffffffff8381831617835250505050614a79565b50505050565b614250614944565b73ffffffffffffffffffffffffffffffffffffffff16633dbb202b8483856040518463ffffffff1660e01b8152600401808473ffffffffffffffffffffffffffffffffffffffff168152602001806020018363ffffffff168152602001828103825284818151815260200191508051906020019080838360005b838110156142e55780820151818401526020810190506142ca565b50505050905090810190601f1680156143125780820380516001836020036101000a031916815260200191505b509450505050506000604051808303816000878061432e61501e565b15801561434357600080614340614e8b565b50505b505a61434d6151de565b50505050505015801561436d573d6000803e3d600061436a614e8b565b50505b50505050505050565b61437e6119e4565b6143f9576040517f08c379a00000000000000000000000000000000000000000000000000000000081526004018080602001828103825260148152602001807f5061757361626c653a206e6f7420706175736564000000000000000000000000815250602001915050604051809103906143f6614e8b565b50505b6000606560006101000a8161440c614ef9565b8160ff02191690831515021790614421614f5c565b5050507f5db9ee0a495bf2e6ff9c91a7834c1ba4fdd244a5e8aa4e537bd38aeae4b073aa61444d614b7a565b604051808273ffffffffffffffffffffffffffffffffffffffff16815260200191505060405180910390a1565b6000601590614487614ef9565b906101000a900460ff16806144a0575061449f614b8a565b5b806144bf575060006014906144b3614ef9565b906101000a900460ff16155b61451d576040517f08c379a000000000000000000000000000000000000000000000000000000000815260040180806020018281038252602e815260200180615332602e91396040019150506040518091039061451a614e8b565b50505b60008060159061452b614ef9565b906101000a900460ff161590508015614595576001600060156101000a81614551614ef9565b8160ff02191690831515021790614566614f5c565b5050506001600060146101000a8161457c614ef9565b8160ff02191690831515021790614591614f5c565b5050505b80156145c65760008060156101000a816145ad614ef9565b8160ff021916908315150217906145c2614f5c565b5050505b50565b60006015906145d6614ef9565b906101000a900460ff16806145ef57506145ee614b8a565b5b8061460e57506000601490614602614ef9565b906101000a900460ff16155b61466c576040517f08c379a000000000000000000000000000000000000000000000000000000000815260040180806020018281038252602e815260200180615332602e913960400191505060405180910390614669614e8b565b50505b60008060159061467a614ef9565b906101000a900460ff1615905080156146e4576001600060156101000a816146a0614ef9565b8160ff021916908315150217906146b5614f5c565b5050506001600060146101000a816146cb614ef9565b8160ff021916908315150217906146e0614f5c565b5050505b6000606560006101000a816146f7614ef9565b8160ff0219169083151502179061470c614f5c565b50505080156147405760008060156101000a81614727614ef9565b8160ff0219169083151502179061473c614f5c565b5050505b50565b6000601590614750614ef9565b906101000a900460ff16806147695750614768614b8a565b5b806147885750600060149061477c614ef9565b906101000a900460ff16155b6147e6576040517f08c379a000000000000000000000000000000000000000000000000000000000815260040180806020018281038252602e815260200180615332602e9139604001915050604051809103906147e3614e8b565b50505b6000806015906147f4614ef9565b906101000a900460ff16159050801561485e576001600060156101000a8161481a614ef9565b8160ff0219169083151502179061482f614f5c565b5050506001600060146101000a81614845614ef9565b8160ff0219169083151502179061485a614f5c565b5050505b600180819061486b614f5c565b505050801561489f5760008060156101000a81614886614ef9565b8160ff0219169083151502179061489b614f5c565b5050505b50565b61493f8363a9059cbb60e01b8484604051602401808373ffffffffffffffffffffffffffffffffffffffff16815260200182815260200192505050604051602081830303815290604052907bffffffffffffffffffffffffffffffffffffffffffffffffffffffff19166020820180517bffffffffffffffffffffffffffffffffffffffffffffffffffffffff8381831617835250505050614a79565b505050565b600080600090614952614ef9565b906101000a900473ffffffffffffffffffffffffffffffffffffffff16905090565b61497c6119e4565b156149f8576040517f08c379a00000000000000000000000000000000000000000000000000000000081526004018080602001828103825260108152602001807f5061757361626c653a2070617573656400000000000000000000000000000000815250602001915050604051809103906149f5614e8b565b50505b6001606560006101000a81614a0b614ef9565b8160ff02191690831515021790614a20614f5c565b5050507f62e78cea01bee320cd4e420270b5ea74000d11b0c9f74754ebdbfc544b05a258614a4c614b7a565b604051808273ffffffffffffffffffffffffffffffffffffffff16815260200191505060405180910390a1565b6000614adb826040518060400160405280602081526020017f5361666545524332303a206c6f772d6c6576656c2063616c6c206661696c65648152508573ffffffffffffffffffffffffffffffffffffffff16614bf69092919063ffffffff16565b9050600081511115614b7557808060200190516020811015614b0557600080614b02614e8b565b50505b8101908080519060200190929190505050614b74576040517f08c379a000000000000000000000000000000000000000000000000000000000815260040180806020018281038252602a8152602001806153b1602a913960400191505060405180910390614b71614e8b565b50505b5b505050565b60005a614b85614fc1565b905090565b6000614bf05a63996d79a5598160e01b8152602081600483336000905af158600e01573d6000803e3d6000fd5b3d6001141558600a015760016000f35b8051925060005b6040811015614be857600081830152602081019050614bce565b505050614c0e565b15905090565b6060614c058484600085614c28565b90509392505050565b60008082614c1a61501e565b905060008111915050919050565b6060614c3385614d8d565b614cae576040517f08c379a000000000000000000000000000000000000000000000000000000000815260040180806020018281038252601d8152602001807f416464726573733a2063616c6c20746f206e6f6e2d636f6e747261637400000081525060200191505060405180910390614cab614e8b565b50505b6000808673ffffffffffffffffffffffffffffffffffffffff1685876040518082805190602001908083835b60208310614cfd5780518252602082019150602081019050602083039250614cda565b6001836020036101000a03801982511681845116808217855250505050505090500191505060006040518083038185875a614d366151de565b505050505050925050503d8060008114614d6c576040519150601f19603f3d011682016040523d82523d6000602084013e614d71565b606091505b5091509150614d81828286614da7565b92505050949350505050565b60008082614d9961501e565b905060008111915050919050565b60608315614db757829050614e84565b600083511115614dd85782518084602001614dd0614e8b565b505050614e83565b816040517f08c379a00000000000000000000000000000000000000000000000000000000081526004018080602001828103825283818151815260200191508051906020019080838360005b83811015614e3f578082015181840152602081019050614e24565b50505050905090810190601f168015614e6c5780820380516001836020036101000a031916815260200191505b509250505060405180910390614e80614e8b565b50505b5b9392505050565b632a2a7adb598160e01b8152600481016020815285602082015260005b86811015614ec6578086015181604084010152602081019050614ea8565b506020828760640184336000905af158600e01573d6000803e3d6000fd5b3d6001141558600a015760016000f35b505050565b6303daa959598160e01b8152836004820152602081602483336000905af158600e01573d6000803e3d6000fd5b3d6001141558600a015760016000f35b8051935060005b6040811015614f5757600081830152602081019050614f3d565b505050565b6322bd64c0598160e01b8152836004820152846024820152600081604483336000905af158600e01573d6000803e3d6000fd5b3d6001141558600a015760016000f35b60005b6040811015614fbc57600081830152602081019050614fa2565b505050565b6373509064598160e01b8152602081600483336000905af158600e01573d6000803e3d6000fd5b3d6001141558600a015760016000f35b8051935060005b604081101561501957600081830152602081019050614fff565b505050565b638435035b598160e01b8152836004820152602081602483336000905af158600e01573d6000803e3d6000fd5b3d6001141558600a015760016000f35b8051935060005b604081101561507c57600081830152602081019050615062565b505050565b638540661f598160e01b81526150c0565b6000819050818311156150a3578290505b92915050565b6000819050818310156150ba578290505b92915050565b836004820152846024820152606060448201528660648201526084810160005b888110156150fb5780880151818301526020810190506150e0565b506060828960a40184336000905af158600e01573d6000803e3d6000fd5b3d6001141558600a015760016000f35b815160408301513d6000853e8b8b82606087013350600060045af150596151508d3d6150a9565b8c0161515c8187615092565b5b82811015615174576000815260208101905061515d565b50839d5050505050505050565b63bdbf8c36598160e01b8152602081600483336000905af158600e01573d6000803e3d6000fd5b3d6001141558600a015760016000f35b8051935060005b60408110156151d9576000818301526020810190506151bf565b505050565b6385979f76598160e01b815261521d565b600081905081831115615200578290505b92915050565b600081905081831015615217578290505b92915050565b836004820152846024820152606060448201528760648201526084810160005b8981101561525857808901518183015260208101905061523d565b506060828a60a40184336000905af158600e01573d6000803e3d6000fd5b3d6001141558600a015760016000f35b815160408301513d6000853e8c8c82606087013350600060045af150596152ad8e3d615206565b8d016152b981876151ef565b5b828110156152d157600081526020810190506152ba565b50839e505050505050505056fe4f564d5f58434841494e3a206d657373656e67657220636f6e747261637420756e61757468656e74696361746564436f6e747261637420686173206e6f7420796574206265656e20696e697469616c697a6564496e697469616c697a61626c653a20636f6e747261637420697320616c726561647920696e697469616c697a6564536166654d6174683a206d756c7469706c69636174696f6e206f766572666c6f774f564d5f58434841494e3a2077726f6e672073656e646572206f662063726f73732d646f6d61696e206d6573736167655361666545524332303a204552433230206f7065726174696f6e20646964206e6f7420737563636565646c3120616e64206c3220746f6b656e206164647265737365732063616e6e6f742062652073616d65",
  "linkReferences": {},
  "deployedLinkReferences": {}
}