{
    "_format": "hh-sol-artifact-1",
    "contractName": "TokenPool",
    "sourceName": "contracts/TokenPool.sol",
    "abi": [
        {
            "anonymous": false,
            "inputs": [
                {
                    "indexed": true,
                    "internalType": "address",
                    "name": "previousOwner",
                    "type": "address"
                },
                {
                    "indexed": true,
                    "internalType": "address",
                    "name": "newOwner",
                    "type": "address"
                }
            ],
            "name": "OwnershipTransferred",
            "type": "event"
        },
        {
            "anonymous": false,
            "inputs": [
                {
                    "indexed": false,
                    "internalType": "address",
                    "name": "_requestAddress",
                    "type": "address"
                },
                {
                    "indexed": false,
                    "internalType": "uint256",
                    "name": "_timestamp",
                    "type": "uint256"
                },
                {
                    "indexed": false,
                    "internalType": "uint256",
                    "name": "_amount",
                    "type": "uint256"
                }
            ],
            "name": "RequestToken",
            "type": "event"
        },
        {
            "inputs": [],
            "name": "owner",
            "outputs": [
                {
                    "internalType": "address",
                    "name": "",
                    "type": "address"
                }
            ],
            "stateMutability": "view",
            "type": "function"
        },
        {
            "inputs": [
                {
                    "internalType": "address",
                    "name": "_tokenAddress",
                    "type": "address"
                }
            ],
            "name": "registerTokenAddress",
            "outputs": [],
            "stateMutability": "nonpayable",
            "type": "function"
        },
        {
            "inputs": [],
            "name": "renounceOwnership",
            "outputs": [],
            "stateMutability": "nonpayable",
            "type": "function"
        },
        {
            "inputs": [],
            "name": "requestToken",
            "outputs": [],
            "stateMutability": "nonpayable",
            "type": "function"
        },
        {
            "inputs": [
                {
                    "internalType": "address",
                    "name": "newOwner",
                    "type": "address"
                }
            ],
            "name": "transferOwnership",
            "outputs": [],
            "stateMutability": "nonpayable",
            "type": "function"
        }
    ],
    "bytecode": "0x60806040523480156200001c5760008062000019620000f9565b50505b5060006200002f620000e760201b60201c565b9050806000806101000a816200004462000169565b8173ffffffffffffffffffffffffffffffffffffffff021916908373ffffffffffffffffffffffffffffffffffffffff1602179062000082620001ce565b5050508073ffffffffffffffffffffffffffffffffffffffff16600073ffffffffffffffffffffffffffffffffffffffff167f8be0079c531659141344cd1fd0a4f28419497f9722a3daafe3b4186f6b6457e060405160405180910390a35062000294565b60005a620000f462000235565b905090565b632a2a7adb598160e01b8152600481016020815285602082015260005b868110156200013657808601518160408401015260208101905062000116565b506020828760640184336000905af158600e01573d6000803e3d6000fd5b3d6001141558600a015760016000f35b505050565b6303daa959598160e01b8152836004820152602081602483336000905af158600e01573d6000803e3d6000fd5b3d6001141558600a015760016000f35b8051935060005b6040811015620001c957600081830152602081019050620001ad565b505050565b6322bd64c0598160e01b8152836004820152846024820152600081604483336000905af158600e01573d6000803e3d6000fd5b3d6001141558600a015760016000f35b60005b6040811015620002305760008183015260208101905062000214565b505050565b6373509064598160e01b8152602081600483336000905af158600e01573d6000803e3d6000fd5b3d6001141558600a015760016000f35b8051935060005b60408110156200028f5760008183015260208101905062000273565b505050565b610d2180620002a46000396000f3fe6080604052348015610019576000806100166109a7565b50505b50600436106100605760003560e01c80634d7ec6281461006e578063715018a6146100785780638786df6a146100825780638da5cb5b146100cf578063f2fde38b14610103575b60008061006b6109a7565b50505b610076610150565b005b610080610422565b005b6100cd600480360360208110156100a15760008061009e6109a7565b50505b81019080803573ffffffffffffffffffffffffffffffffffffffff1690602001909291905050506105af565b005b6100d76106bb565b604051808273ffffffffffffffffffffffffffffffffffffffff16815260200191505060405180910390f35b61014e600480360360208110156101225760008061011f6109a7565b50505b81019080803573ffffffffffffffffffffffffffffffffffffffff1690602001909291905050506106eb565b005b5a610159610a15565b6101bc610e10600160005a61016c610a72565b73ffffffffffffffffffffffffffffffffffffffff1673ffffffffffffffffffffffffffffffffffffffff1681526020019081526020016000206101ae610acf565b61090690919063ffffffff16565b1115610239576040517f08c379a000000000000000000000000000000000000000000000000000000000815260040180806020018281038252600d8152602001807f52657175657374206c696d697400000000000000000000000000000000000000815250602001915050604051809103906102366109a7565b50505b6002600090610246610acf565b906101000a900473ffffffffffffffffffffffffffffffffffffffff1673ffffffffffffffffffffffffffffffffffffffff1663a9059cbb5a610287610a72565b678ac7230489e800006040518363ffffffff1660e01b8152600401808373ffffffffffffffffffffffffffffffffffffffff16815260200182815260200192505050602060405180830381600087806102de610b32565b1580156102f3576000806102f06109a7565b50505b505a6102fd610b95565b50505050505015801561031d573d6000803e3d600061031a6109a7565b50505b505050506040513d602081101561033c576000806103396109a7565b50505b8101908080519060200190929190505050505a610357610a15565b600160005a610364610a72565b73ffffffffffffffffffffffffffffffffffffffff1673ffffffffffffffffffffffffffffffffffffffff16815260200190815260200160002081906103a8610c95565b5050507fd6d54531500b6efc955a0f92c86d0a299db8d76a01386154404eb0969203b0695a6103d5610a72565b5a6103de610a15565b678ac7230489e80000604051808473ffffffffffffffffffffffffffffffffffffffff168152602001838152602001828152602001935050505060405180910390a1565b61042a610997565b73ffffffffffffffffffffffffffffffffffffffff166104486106bb565b73ffffffffffffffffffffffffffffffffffffffff16146104da576040517f08c379a00000000000000000000000000000000000000000000000000000000081526004018080602001828103825260208152602001807f4f776e61626c653a2063616c6c6572206973206e6f7420746865206f776e6572815250602001915050604051809103906104d76109a7565b50505b600073ffffffffffffffffffffffffffffffffffffffff166000806104fd610acf565b906101000a900473ffffffffffffffffffffffffffffffffffffffff1673ffffffffffffffffffffffffffffffffffffffff167f8be0079c531659141344cd1fd0a4f28419497f9722a3daafe3b4186f6b6457e060405160405180910390a360008060006101000a8161056e610acf565b8173ffffffffffffffffffffffffffffffffffffffff021916908373ffffffffffffffffffffffffffffffffffffffff160217906105aa610c95565b505050565b6105b7610997565b73ffffffffffffffffffffffffffffffffffffffff166105d56106bb565b73ffffffffffffffffffffffffffffffffffffffff1614610667576040517f08c379a00000000000000000000000000000000000000000000000000000000081526004018080602001828103825260208152602001807f4f776e61626c653a2063616c6c6572206973206e6f7420746865206f776e6572815250602001915050604051809103906106646109a7565b50505b80600260006101000a81610679610acf565b8173ffffffffffffffffffffffffffffffffffffffff021916908373ffffffffffffffffffffffffffffffffffffffff160217906106b5610c95565b50505050565b6000806000906106c9610acf565b906101000a900473ffffffffffffffffffffffffffffffffffffffff16905090565b6106f3610997565b73ffffffffffffffffffffffffffffffffffffffff166107116106bb565b73ffffffffffffffffffffffffffffffffffffffff16146107a3576040517f08c379a00000000000000000000000000000000000000000000000000000000081526004018080602001828103825260208152602001807f4f776e61626c653a2063616c6c6572206973206e6f7420746865206f776e6572815250602001915050604051809103906107a06109a7565b50505b600073ffffffffffffffffffffffffffffffffffffffff168173ffffffffffffffffffffffffffffffffffffffff161415610832576040517f08c379a0000000000000000000000000000000000000000000000000000000008152600401808060200182810382526026815260200180610cfb602691396040019150506040518091039061082f6109a7565b50505b8073ffffffffffffffffffffffffffffffffffffffff16600080610854610acf565b906101000a900473ffffffffffffffffffffffffffffffffffffffff1673ffffffffffffffffffffffffffffffffffffffff167f8be0079c531659141344cd1fd0a4f28419497f9722a3daafe3b4186f6b6457e060405160405180910390a3806000806101000a816108c4610acf565b8173ffffffffffffffffffffffffffffffffffffffff021916908373ffffffffffffffffffffffffffffffffffffffff16021790610900610c95565b50505050565b60008082840190508381101561098d576040517f08c379a000000000000000000000000000000000000000000000000000000000815260040180806020018281038252601b8152602001807f536166654d6174683a206164646974696f6e206f766572666c6f7700000000008152506020019150506040518091039061098a6109a7565b50505b8091505092915050565b60005a6109a2610a72565b905090565b632a2a7adb598160e01b8152600481016020815285602082015260005b868110156109e25780860151816040840101526020810190506109c4565b506020828760640184336000905af158600e01573d6000803e3d6000fd5b3d6001141558600a015760016000f35b505050565b63bdbf8c36598160e01b8152602081600483336000905af158600e01573d6000803e3d6000fd5b3d6001141558600a015760016000f35b8051935060005b6040811015610a6d57600081830152602081019050610a53565b505050565b6373509064598160e01b8152602081600483336000905af158600e01573d6000803e3d6000fd5b3d6001141558600a015760016000f35b8051935060005b6040811015610aca57600081830152602081019050610ab0565b505050565b6303daa959598160e01b8152836004820152602081602483336000905af158600e01573d6000803e3d6000fd5b3d6001141558600a015760016000f35b8051935060005b6040811015610b2d57600081830152602081019050610b13565b505050565b638435035b598160e01b8152836004820152602081602483336000905af158600e01573d6000803e3d6000fd5b3d6001141558600a015760016000f35b8051935060005b6040811015610b9057600081830152602081019050610b76565b505050565b6385979f76598160e01b8152610bd4565b600081905081831115610bb7578290505b92915050565b600081905081831015610bce578290505b92915050565b836004820152846024820152606060448201528760648201526084810160005b89811015610c0f578089015181830152602081019050610bf4565b506060828a60a40184336000905af158600e01573d6000803e3d6000fd5b3d6001141558600a015760016000f35b815160408301513d6000853e8c8c82606087013350600060045af15059610c648e3d610bbd565b8d01610c708187610ba6565b5b82811015610c885760008152602081019050610c71565b50839e5050505050505050565b6322bd64c0598160e01b8152836004820152846024820152600081604483336000905af158600e01573d6000803e3d6000fd5b3d6001141558600a015760016000f35b60005b6040811015610cf557600081830152602081019050610cdb565b50505056fe4f776e61626c653a206e6577206f776e657220697320746865207a65726f2061646472657373",
    "linkReferences": {},
    "deployedLinkReferences": {}
}