{
  "abi": [
    {
      "inputs": [],
      "name": "EIP712_DOMAIN_TYPEHASH",
      "outputs": [
        {
          "internalType": "bytes32",
          "name": "",
          "type": "bytes32"
        }
      ],
      "stateMutability": "view",
      "type": "function"
    },
    {
      "inputs": [],
      "name": "PROOF_TYPEHASH",
      "outputs": [
        {
          "internalType": "bytes32",
          "name": "",
          "type": "bytes32"
        }
      ],
      "stateMutability": "view",
      "type": "function"
    },
    {
      "inputs": [],
      "name": "consumeNonce",
      "outputs": [
        {
          "internalType": "bytes32",
          "name": "",
          "type": "bytes32"
        }
      ],
      "stateMutability": "nonpayable",
      "type": "function"
    },
    {
      "inputs": [],
      "name": "currentNonce",
      "outputs": [
        {
          "internalType": "uint256",
          "name": "",
          "type": "uint256"
        }
      ],
      "stateMutability": "view",
      "type": "function"
    },
    {
      "inputs": [
        {
          "components": [
            {
              "internalType": "address",
              "name": "recipient",
              "type": "address"
            },
            {
              "internalType": "bytes32",
              "name": "nonce",
              "type": "bytes32"
            },
            {
              "internalType": "bytes32",
              "name": "id",
              "type": "bytes32"
            }
          ],
          "internalType": "struct AdminFaucetAuthModule.Proof",
          "name": "_proof",
          "type": "tuple"
        },
        {
          "internalType": "bytes",
          "name": "_name",
          "type": "bytes"
        },
        {
          "internalType": "bytes",
          "name": "_version",
          "type": "bytes"
        },
        {
          "internalType": "uint256",
          "name": "_chainid",
          "type": "uint256"
        },
        {
          "internalType": "address",
          "name": "_verifyingContract",
          "type": "address"
        }
      ],
      "name": "getDigestWithEIP712Domain",
      "outputs": [
        {
          "internalType": "bytes32",
          "name": "",
          "type": "bytes32"
        }
      ],
      "stateMutability": "pure",
      "type": "function"
    },
    {
      "inputs": [
        {
          "components": [
            {
              "internalType": "address",
              "name": "recipient",
              "type": "address"
            },
            {
              "internalType": "bytes32",
              "name": "nonce",
              "type": "bytes32"
            },
            {
              "internalType": "bytes32",
              "name": "id",
              "type": "bytes32"
            }
          ],
          "internalType": "struct AdminFaucetAuthModule.Proof",
          "name": "_proof",
          "type": "tuple"
        }
      ],
      "name": "getProofStructHash",
      "outputs": [
        {
          "internalType": "bytes32",
          "name": "",
          "type": "bytes32"
        }
      ],
      "stateMutability": "pure",
      "type": "function"
    }
  ],
  "bytecode": {
    "object": "0x608060405234801561001057600080fd5b5061048a806100206000396000f3fe608060405234801561001057600080fd5b50600436106100625760003560e01c806334b1511814610067578063796dfbfa146100815780638b3e3bf614610094578063adb610a3146100bb578063b163a6b8146100c4578063c7977be7146100d7575b600080fd5b61006f6100fe565b60405190815260200160405180910390f35b61006f61008f366004610316565b61013e565b61006f7fd4283507dc7a8282faa6b4c8c18bacbb74dbbab5467342e6f581656f3577236e81565b61006f60005481565b61006f6100d23660046103c6565b6101ad565b61006f7f8b73c3c69bb8fe3d512ecc4cf759cc79239f7b179b0ffacaa9a75d522b39400f81565b60008054818061010d83610456565b9190505560405160200161012391815260200190565b60405160208183030381529060405280519060200120905090565b805160208083015160409384015184517fd4283507dc7a8282faa6b4c8c18bacbb74dbbab5467342e6f581656f3577236e818501526001600160a01b039094168486015260608401919091526080808401919091528351808403909101815260a0909201909252805191012090565b8351602080860191909120845185830120604080517f8b73c3c69bb8fe3d512ecc4cf759cc79239f7b179b0ffacaa9a75d522b39400f948101949094528301919091526060820152608081018390526001600160a01b03821660a0820152600090819060c001604051602081830303815290604052805190602001209050610278816102388961013e565b60405161190160f01b6020820152602281018390526042810182905260009060620160405160208183030381529060405280519060200120905092915050565b979650505050505050565b634e487b7160e01b600052604160045260246000fd5b80356001600160a01b03811681146102b057600080fd5b919050565b6000606082840312156102c757600080fd5b6040516060810181811067ffffffffffffffff821117156102ea576102ea610283565b6040529050806102f983610299565b815260208301356020820152604083013560408201525092915050565b60006060828403121561032857600080fd5b61033283836102b5565b9392505050565b600082601f83011261034a57600080fd5b813567ffffffffffffffff8082111561036557610365610283565b604051601f8301601f19908116603f0116810190828211818310171561038d5761038d610283565b816040528381528660208588010111156103a657600080fd5b836020870160208301376000602085830101528094505050505092915050565b600080600080600060e086880312156103de57600080fd5b6103e887876102b5565b9450606086013567ffffffffffffffff8082111561040557600080fd5b61041189838a01610339565b9550608088013591508082111561042757600080fd5b5061043488828901610339565b93505060a0860135915061044a60c08701610299565b90509295509295909350565b60006001820161047657634e487b7160e01b600052601160045260246000fd5b506001019056fea164736f6c634300080f000a",
    "linkReferences": {}
  },
  "methodIdentifiers": {
    "EIP712_DOMAIN_TYPEHASH()": "c7977be7",
    "PROOF_TYPEHASH()": "8b3e3bf6",
    "consumeNonce()": "34b15118",
    "currentNonce()": "adb610a3",
    "getDigestWithEIP712Domain((address,bytes32,bytes32),bytes,bytes,uint256,address)": "b163a6b8",
    "getProofStructHash((address,bytes32,bytes32))": "796dfbfa"
  },
  "id": 41
}