{
  "abi": [
    {
      "anonymous": false,
      "inputs": [
        {
          "indexed": true,
          "internalType": "uint256",
          "name": "nonce",
          "type": "uint256"
        },
        {
          "indexed": true,
          "internalType": "address",
          "name": "sender",
          "type": "address"
        },
        {
          "indexed": true,
          "internalType": "address",
          "name": "target",
          "type": "address"
        },
        {
          "indexed": false,
          "internalType": "uint256",
          "name": "value",
          "type": "uint256"
        },
        {
          "indexed": false,
          "internalType": "uint256",
          "name": "gasLimit",
          "type": "uint256"
        },
        {
          "indexed": false,
          "internalType": "bytes",
          "name": "data",
          "type": "bytes"
        }
      ],
      "name": "WithdrawalInitiated",
      "type": "event"
    },
    {
      "anonymous": false,
      "inputs": [
        {
          "indexed": true,
          "internalType": "uint256",
          "name": "amount",
          "type": "uint256"
        }
      ],
      "name": "WithdrawerBalanceBurnt",
      "type": "event"
    },
    {
      "inputs": [],
      "name": "burn",
      "outputs": [],
      "stateMutability": "nonpayable",
      "type": "function"
    },
    {
      "inputs": [
        {
          "internalType": "address",
          "name": "_target",
          "type": "address"
        },
        {
          "internalType": "uint256",
          "name": "_gasLimit",
          "type": "uint256"
        },
        {
          "internalType": "bytes",
          "name": "_data",
          "type": "bytes"
        }
      ],
      "name": "initiateWithdrawal",
      "outputs": [],
      "stateMutability": "payable",
      "type": "function"
    },
    {
      "inputs": [],
      "name": "nonce",
      "outputs": [
        {
          "internalType": "uint256",
          "name": "",
          "type": "uint256"
        }
      ],
      "stateMutability": "view",
      "type": "function"
    },
    {
      "inputs": [
        {
          "internalType": "bytes32",
          "name": "",
          "type": "bytes32"
        }
      ],
      "name": "sentMessages",
      "outputs": [
        {
          "internalType": "bool",
          "name": "",
          "type": "bool"
        }
      ],
      "stateMutability": "view",
      "type": "function"
    },
    {
      "stateMutability": "payable",
      "type": "receive"
    }
  ],
  "bytecode": {
    "object": "0x608060405234801561001057600080fd5b506104a1806100206000396000f3fe6080604052600436106100435760003560e01c806344df8e701461006c57806382e3702d14610081578063affed0e0146100c6578063c2b3e5ac146100ea57600080fd5b366100675761006533620186a0604051806020016040528060008152506100f8565b005b600080fd5b34801561007857600080fd5b506100656101ae565b34801561008d57600080fd5b506100b161009c366004610256565b60006020819052908152604090205460ff1681565b60405190151581526020015b60405180910390f35b3480156100d257600080fd5b506100dc60015481565b6040519081526020016100bd565b6100656100f836600461029e565b600061010a600154338634878761020b565b6000818152602081905260409081902080547fffffffffffffffffffffffffffffffffffffffffffffffffffffffffffffff0016600190811790915554905191925073ffffffffffffffffffffffffffffffffffffffff8616913391907f87bf7b546c8de873abb0db5b579ec131f8d0cf5b14f39933551cf9ced23a6136906101989034908990899061040d565b60405180910390a4505060018054810190555050565b604051479081906101be9061024a565b6040518091039082f09050801580156101db573d6000803e3d6000fd5b505060405181907f7967de617a5ac1cc7eba2d6f37570a0135afa950d8bb77cdd35f0d0b4e85a16f90600090a250565b600086868686868660405160200161022896959493929190610435565b6040516020818303038152906040528051906020012090509695505050505050565b60088061048d83390190565b60006020828403121561026857600080fd5b5035919050565b7f4e487b7100000000000000000000000000000000000000000000000000000000600052604160045260246000fd5b6000806000606084860312156102b357600080fd5b833573ffffffffffffffffffffffffffffffffffffffff811681146102d757600080fd5b925060208401359150604084013567ffffffffffffffff808211156102fb57600080fd5b818601915086601f83011261030f57600080fd5b8135818111156103215761032161026f565b604051601f82017fffffffffffffffffffffffffffffffffffffffffffffffffffffffffffffffe0908116603f011681019083821181831017156103675761036761026f565b8160405282815289602084870101111561038057600080fd5b8260208601602083013760006020848301015280955050505050509250925092565b6000815180845260005b818110156103c8576020818501810151868301820152016103ac565b818111156103da576000602083870101525b50601f017fffffffffffffffffffffffffffffffffffffffffffffffffffffffffffffffe0169290920160200192915050565b83815282602082015260606040820152600061042c60608301846103a2565b95945050505050565b868152600073ffffffffffffffffffffffffffffffffffffffff808816602084015280871660408401525084606083015283608083015260c060a083015261048060c08301846103a2565b9897505050505050505056fe608060405230fffea164736f6c634300080a000a",
    "linkReferences": {}
  },
  "methodIdentifiers": {
    "burn()": "44df8e70",
    "initiateWithdrawal(address,uint256,bytes)": "c2b3e5ac",
    "nonce()": "affed0e0",
    "sentMessages(bytes32)": "82e3702d"
  }
}