{
  "_format": "hh-sol-artifact-1",
  "contractName": "TestLib_SecureMerkleTrie",
  "sourceName": "contracts/test-libraries/trie/TestLib_SecureMerkleTrie.sol",
  "abi": [
    {
      "inputs": [
        {
          "internalType": "bytes",
          "name": "_key",
          "type": "bytes"
        },
        {
          "internalType": "bytes",
          "name": "_proof",
          "type": "bytes"
        },
        {
          "internalType": "bytes32",
          "name": "_root",
          "type": "bytes32"
        }
      ],
      "name": "get",
      "outputs": [
        {
          "internalType": "bool",
          "name": "",
          "type": "bool"
        },
        {
          "internalType": "bytes",
          "name": "",
          "type": "bytes"
        }
      ],
      "stateMutability": "pure",
      "type": "function"
    },
    {
      "inputs": [
        {
          "internalType": "bytes",
          "name": "_key",
          "type": "bytes"
        },
        {
          "internalType": "bytes",
          "name": "_value",
          "type": "bytes"
        }
      ],
      "name": "getSingleNodeRootHash",
      "outputs": [
        {
          "internalType": "bytes32",
          "name": "",
          "type": "bytes32"
        }
      ],
      "stateMutability": "pure",
      "type": "function"
    },
    {
      "inputs": [
        {
          "internalType": "bytes",
          "name": "_key",
          "type": "bytes"
        },
        {
          "internalType": "bytes",
          "name": "_value",
          "type": "bytes"
        },
        {
          "internalType": "bytes",
          "name": "_proof",
          "type": "bytes"
        },
        {
          "internalType": "bytes32",
          "name": "_root",
          "type": "bytes32"
        }
      ],
      "name": "update",
      "outputs": [
        {
          "internalType": "bytes32",
          "name": "",
          "type": "bytes32"
        }
      ],
      "stateMutability": "pure",
      "type": "function"
    },
    {
      "inputs": [
        {
          "internalType": "bytes",
          "name": "_key",
          "type": "bytes"
        },
        {
          "internalType": "bytes",
          "name": "_proof",
          "type": "bytes"
        },
        {
          "internalType": "bytes32",
          "name": "_root",
          "type": "bytes32"
        }
      ],
      "name": "verifyExclusionProof",
      "outputs": [
        {
          "internalType": "bool",
          "name": "",
          "type": "bool"
        }
      ],
      "stateMutability": "pure",
      "type": "function"
    },
    {
      "inputs": [
        {
          "internalType": "bytes",
          "name": "_key",
          "type": "bytes"
        },
        {
          "internalType": "bytes",
          "name": "_value",
          "type": "bytes"
        },
        {
          "internalType": "bytes",
          "name": "_proof",
          "type": "bytes"
        },
        {
          "internalType": "bytes32",
          "name": "_root",
          "type": "bytes32"
        }
      ],
      "name": "verifyInclusionProof",
      "outputs": [
        {
          "internalType": "bool",
          "name": "",
          "type": "bool"
        }
      ],
      "stateMutability": "pure",
      "type": "function"
    }
  ],
  "bytecode": "0x60806040523480156200001c576000806200001962000023565b50505b5062000090565b632a2a7adb598160e01b8152600481016020815285602082015260005b868110156200005d57808601518282016040015260200162000040565b506020828760640184336000905af158600e01573d6000803e3d6000fd5b3d6001141558600a015760016000f35b505050565b61265780620000a06000396000f3fe60806040523480156100195760008061001661228c565b50505b50600436106100605760003560e01c806304bc7eec1461006e578063120c4a221461009757806349fba193146100b8578063cd4a7695146100d8578063e8e72100146100eb575b60008061006b61228c565b50505b61008161007c366004612426565b6100fe565b60405161008e919061258f565b60405180910390f35b6100aa6100a5366004612426565b610115565b60405161008e92919061259a565b6100cb6100c63660046123ab565b610130565b60405161008e9190612559565b6100cb6100e63660046124aa565b610145565b6100816100f93660046124aa565b61015e565b600061010b84848461016c565b90505b9392505050565b6000606061012485858561018e565b91509150935093915050565b600061013c83836101b7565b90505b92915050565b6000610153858585856101cf565b90505b949350505050565b6000610153858585856101f3565b6000806101788561020d565b905061018581858561023e565b95945050505050565b60006060600061019d8661020d565b90506101aa818686610257565b9250925050935093915050565b6000806101c38461020d565b90506101568184610332565b6000806101db8661020d565b90506101e981868686610355565b9695505050505050565b6000806101ff8661020d565b90506101e9818686866103d5565b606081805190602001206040516020016102279190612559565b60405160208183030381529060405290505b919050565b60008061024c858585610257565b501595945050505050565b60006060600061026685610406565b90506000806000610278848a896104e4565b92509250925060008251159050808061028e5750815b6102e75760405162461bcd60e51b815260206004820152601a60248201527f50726f76696465642070726f6f6620697320696e76616c69642e0000000000006044820152606401604051809103906102e461228c565b50505b600081610301576040516020810160405260008152610320565b61032086600187038151811061031357fe5b60200260200101516108a8565b919b919a509098505050505050505050565b6000610346610340846108c5565b836109c4565b51805190602001209392505050565b60006040516040808201905260018152600160ff1b60208201528051906020012082141561038e576103878585610332565b9050610156565b600061039984610406565b90506000806103a98389876104e4565b509150915060006103bc8484848b610a68565b90506103c8818a610d7d565b9998505050505050505050565b60008060006103e5878686610257565b915091508180156103fb57506103fb8682610ed6565b979650505050505050565b6060600061041383610ef0565b9050600081516001600160401b03811180156104375760008061043461228c565b50505b5060405190808252806020026020018201604052801561047157816020015b61045e6122f7565b8152602001906001900390816104565790505b50905060005b82518110156104dc57600061049e84838151811061049157fe5b6020026020010151610f03565b905060405180604001604052808281526020016104ba83610ef0565b90528383815181106104c857fe5b602090810291909101015250600101610477565b509392505050565b600060608180806104f4876108c5565b9050856000806105026122f7565b60005b8c51811015610880578c818151811061051a57fe5b6020026020010151600197909701969383019391508361059157848251805190602001201461058c5760405162461bcd60e51b8152602060048201526011602482015270092dcecc2d8d2c840e4dedee840d0c2e6d607b1b60448201526064016040518091039061058961228c565b50505b610661565b6020825151106105fc57848251805190602001201461058c5760405162461bcd60e51b815260206004820152601b60248201527f496e76616c6964206c6172676520696e7465726e616c2068617368000000000060448201526064016040518091039061058961228c565b846106078351610f91565b146106615760405162461bcd60e51b815260206004820152601a60248201527f496e76616c696420696e7465726e616c206e6f6465206861736800000000000060448201526064016040518091039061065e61228c565b50505b601160208301515114156106ca57855184141561067d57610880565b600086858151811061068b57fe5b602001015160f81c9050600060208401518260ff16815181106106aa57fe5b602002602001015190506106bd81610fd9565b9650600194505050610878565b600282602001515114156108235760006106e38361100c565b90506000816000815181106106f457fe5b602001015160f81c90506001811660020360006107148460ff841661102a565b905060006107228b8a61102a565b905060006107308383611057565b905060ff851660021480610747575060ff85166003145b156107795780835114801561075c5750808251145b1561076657988901985b50600160ff1b9950610880945050505050565b60ff8516158061078c575060ff85166001145b156107d957806107a95750600160ff1b9950610880945050505050565b6107ca88602001516001815181106107bd57fe5b6020026020010151610fd9565b9a509750610878945050505050565b60405162461bcd60e51b8152600401808060200182810382526026815260200180612631602691396040019150506040518091039061081661228c565b5050505050505050610878565b60405162461bcd60e51b815260206004820152601d60248201527f526563656976656420616e20756e706172736561626c65206e6f64652e00000060448201526064016040518091039061087561228c565b50505b600101610505565b50600160ff1b841486610893878661102a565b909e909d50909b509950505050505050505050565b606061013f82602001516001846020015151038151811061049157fe5b6060600082516002026001600160401b03811180156108ec576000806108e961228c565b50505b50604051818152601f19601f8301168101602001604052908015610917576020820181803683370190505b50905060005b83518110156109bd57600484828151811061093457fe5b60200101516001600160f81b031916901c82600283028151811061095457fe5b60200101906001600160f81b031916908160001a905350601084828151811061097957fe5b602001015160f81c8161098857fe5b0660f81b82826002026001018151811061099e57fe5b60200101906001600160f81b031916908160001a90535060010161091d565b5092915050565b6109cc6122f7565b60006002604051908082528060200260200182016040528015610a0357816020015b60608152602001906001900390816109ee5790505b5090506000610a138560016110b7565b9050610a26610a218261121a565b6112f1565b82600081518110610a3357fe5b6020026020010181905250610a47846112f1565b82600181518110610a5457fe5b60200260200101819052506101858261135a565b606082600086600019870181518110610a7d57fe5b602002602001015190506000610a9282611392565b905060006003604051908082528060200260200182016040528015610ad157816020015b610abe6122f7565b815260200190600190039081610ab65790505b50905060008451158015610af057506002836002811115610aee57fe5b145b15610b2657610b07610b0185611473565b886109c4565b828281518110610b1357fe5b6020908102919091010152600101610d60565b6000836002811115610b3457fe5b1415610b9a578451610b6957610b4a8488611486565b828281518110610b5657fe5b6020908102919091010152600101610b95565b83828281518110610b7657fe5b6020026020010181905250600181019050610b07610b0186600161102a565b610d60565b6000610ba585611473565b90506000610bb38288611057565b90508015610c14576000610bc9836000846114d4565b9050610bdd81610bd88c61163d565b61167e565b858581518110610be957fe5b6020026020010181905250600184019350610c04838361102a565b9250610c10888361102a565b9750505b6000610c1e6116cd565b90508251610c3f57610c3881610c33896108a8565b611486565b9050610cd4565b600083600081518110610c4e57fe5b602001015160f81c9050610c6384600161102a565b93506002876002811115610c7357fe5b1415610cab576000610c8d85610c888b6108a8565b6109c4565b9050610ca38383610c9e845161163d565b611762565b925050610cd2565b835115610cc1576000610c8d85610bd88b6108a8565b610ccf8282610c9e8b6108a8565b91505b505b8751610d0957610ce4818b611486565b905080858581518110610cf357fe5b6020026020010181905250600184019350610d5c565b610d1488600161102a565b975080858581518110610d2357fe5b6020026020010181905250600184019350610d3e888b6109c4565b858581518110610d4a57fe5b60200260200101819052506001840193505b5050505b610d6f8a60018b0384846117bb565b9a9950505050505050505050565b600080610d89836108c5565b9050610d936122f7565b600060606000875190505b8015610ec157876001820381518110610db357fe5b60200260200101519350610dc684611392565b92506002836002811115610dd657fe5b1415610e01576000610de785611473565b9050610df986600083518951036114d4565b955050610eac565b6001836002811115610e0f57fe5b1415610e51576000610e2085611473565b9050610e3286600083518951036114d4565b9550600083511115610e4b57610e48818461167e565b94505b50610eac565b6000836002811115610e5f57fe5b1415610eac57600082511115610eac57600085600187510381518110610e8157fe5b602001015160f81c9050610e9b86600060018251036114d4565b9550610ea8858285611762565b9450505b610eb6845161163d565b915060001901610d9e565b50825180519060200120979650505050505050565b600081805190602001208380519060200120149392505050565b606061013f610efe836118a6565b6118ce565b60606000806000610f1385611a5a565b919450925090506000816001811115610f2857fe5b14610f825760405162461bcd60e51b815260206004820152601860248201527f496e76616c696420524c502062797465732076616c75652e0000000000000000604482015260640160405180910390610f7f61228c565b50505b61018585602001518484611db5565b6000602082511015610fad576000602083015191506102399050565b6020820182516020811015610fca57600080610fc761228c565b50505b81019080805195945050505050565b60006060602083511015610ff757610ff083611e66565b9050611003565b61100083610f03565b90505b61010e81610f91565b606061013f611025836020015160008151811061049157fe5b6108c5565b606081835103611049576040516020810160405260008152905061013f565b61013c8383848651036114d4565b6000805b80845111801561106b5750808351115b80156110aa575082818151811061107e57fe5b60200101516001600160f81b03191684828151811061109957fe5b60200101516001600160f81b031916145b1561013c5760010161105b565b60606000826110c75760006110ca565b60025b9050600060028551816110d957fe5b06905060008160020360ff166001600160401b03811180156111035760008061110061228c565b50505b50604051818152601f19601f830116810160200160405290801561112e576020820181803683370190505b50905081830160f81b8160008151811061114457fe5b60200101906001600160f81b031916908160001a90535080866040516020018083805190602001908083835b6020831061118f5780518252601f199092019160209182019101611170565b6001836020036101000a038019825116818451161790925250505091909101905082805190602001908083835b602083106111db5780518252601f1990920191602091820191016111bc565b6001836020036101000a038019825116818451161790925250505091909101935060409250505051602081830303815290604052935050505092915050565b60606000600283518161122957fe5b046001600160401b03811180156112485760008061124561228c565b50505b50604051818152601f19601f8301168101602001604052908015611273576020820181803683370190505b50905060005b81518110156109bd5783816002026001018151811061129457fe5b60200101516001600160f81b03191660048560028402815181106112b457fe5b60200101516001600160f81b031916901b178282815181106112d257fe5b60200101906001600160f81b031916908160001a905350600101611279565b60608082516001148015611319575060808360008151811061130f57fe5b602001015160f81c105b1561132557508161013f565b61133183516080611e71565b83604051602001611343929190612562565b604051602081830303815290604052905092915050565b6113626122f7565b600061136d83611fda565b9050604051806040016040528082815260200161138983610ef0565b90529392505050565b6000601160208301515114156113aa57506000610239565b600282602001515114156114265760006113c38361100c565b90506000816000815181106113d457fe5b602001015160f81c905060028114806113f0575060ff81166003145b1561140057600292505050610239565b60ff81161580611413575060ff81166001145b1561142357600192505050610239565b50505b60405162461bcd60e51b8152602060048201526011602482015270496e76616c6964206e6f6465207479706560781b60448201526064016040518091039061146c61228c565b5050919050565b606061013f6114818361100c565b61201e565b61148e6122f7565b6000611499836112f1565b90506114a4816118a6565b8460200151600186602001515103815181106114bc57fe5b60200260200101819052506101568460200151612067565b60608182601f0110156115275760405162461bcd60e51b815260206004820152600e60248201526d736c6963655f6f766572666c6f7760901b60448201526064016040518091039061152461228c565b50505b8282840110156115775760405162461bcd60e51b815260206004820152600e60248201526d736c6963655f6f766572666c6f7760901b60448201526064016040518091039061157461228c565b50505b818301845110156115cb5760405162461bcd60e51b8152602060048201526011602482015270736c6963655f6f75744f66426f756e647360781b6044820152606401604051809103906115c861228c565b50505b6060821580156115ea5760405191506000825260208201604052611634565b6040519150601f8416801560200281840101858101878315602002848b0101015b8183101561162357805183526020928301920161160b565b5050858452601f01601f1916604052505b50949350505050565b6060602082511015611650575080610239565b8180519060200120604051602001808281526020019150506040516020818303038152906040529050610239565b6116866122f7565b600060026040519080825280602002602001820160405280156116bd57816020015b60608152602001906001900390816116a85790505b5090506000610a138560006110b7565b6116d56122f7565b6000601160405190808252806020026020018201604052801561170c57816020015b60608152602001906001900390816116f75790505b50905060005b8151811015611752576040516040808201905260018152600160ff1b602082015282828151811061173f57fe5b6020908102919091010152600101611712565b5061175c8161135a565b91505090565b61176a6122f7565b600060208351106117835761177e836112f1565b611785565b825b9050611790816118a6565b85602001518560ff16815181106117a357fe5b60200260200101819052506101858560200151612067565b606060008285016001600160401b03811180156117e0576000806117dd61228c565b50505b5060405190808252806020026020018201604052801561181a57816020015b6118076122f7565b8152602001906001900390816117ff5790505b50905060005b8581101561185b5786818151811061183457fe5b602002602001015182828151811061184857fe5b6020908102919091010152600101611820565b5060005b8381101561189c5784818151811061187357fe5b6020026020010151828783018151811061188957fe5b602090810291909101015260010161185f565b5095945050505050565b6118ae61230e565b602082016040518060400160405280845181526020019190915292915050565b60606000806118dc84611a5a565b919350909150600190508160018111156118f257fe5b1461194c5760405162461bcd60e51b815260206004820152601760248201527f496e76616c696420524c50206c6973742076616c75652e00000000000000000060448201526064016040518091039061194961228c565b50505b6000602060405190808252806020026020018201604052801561198957816020015b61197661230e565b81526020019060019003908161196e5790505b5090506000835b8651811015611a4f57602082106119e15760405162461bcd60e51b815260040180806020018281038252602a815260200180612607602a9139604001915050604051809103906119de61228c565b50505b600080611a096040516040808201905280858c51038152602001858c60200151019052611a5a565b509150915060405180604001604052808383018152602001848b60200151019052858581518110611a3657fe5b6020908102919091010152600193909301920101611990565b508152949350505050565b6000808080845111611abb5760405162461bcd60e51b815260206004820152601860248201527f524c50206974656d2063616e6e6f74206265206e756c6c2e0000000000000000604482015260640160405180910390611ab861228c565b50505b6000846020015190506000815160001a9050607f8111611ae8576000600160009450945094505050611dae565b60b78111611b6457607f19810180875111611b525760405162461bcd60e51b815260206004820152601960248201527f496e76616c696420524c502073686f727420737472696e672e00000000000000604482015260640160405180910390611b4f61228c565b50505b60019550935060009250611dae915050565b60bf8111611c545760b619810180875111611bce5760405162461bcd60e51b815260206004820152601f60248201527f496e76616c696420524c50206c6f6e6720737472696e67206c656e6774682e00604482015260640160405180910390611bcb61228c565b50505b6000816020036101000a6001850151049050818101885111611c3f5760405162461bcd60e51b815260206004820152601860248201527f496e76616c696420524c50206c6f6e6720737472696e672e0000000000000000604482015260640160405180910390611c3c61228c565b50505b60019091019550935060009250611dae915050565b60f78111611ccf5760bf19810180875111611cbe5760405162461bcd60e51b815260206004820152601760248201527f496e76616c696420524c502073686f7274206c6973742e000000000000000000604482015260640160405180910390611cbb61228c565b50505b600195509350849250611dae915050565b60f619810180875111611d315760405162461bcd60e51b815260206004820152601d60248201527f496e76616c696420524c50206c6f6e67206c697374206c656e6774682e000000604482015260640160405180910390611d2e61228c565b50505b6000816020036101000a6001850151049050818101885111611d9b5760405162461bcd60e51b815260206004820152601660248201527524b73b30b634b210292628103637b733903634b9ba1760511b604482015260640160405180910390611d9861228c565b50505b6001918201965094509250611dae915050565b9193909250565b60606000826001600160401b0381118015611dd857600080611dd561228c565b50505b50604051818152601f19601f8301168101602001604052908015611e03576020820181803683370190505b5090508051611e1357905061010e565b8484016020820160005b60208604811015611e3e578251825260209283019290910190600101611e1d565b50600019601f86166020036101000a0180825116811984511617909152509095945050505050565b606061013f82612119565b6060806038841015611edb576001604051818152601f19601f8301168101602001604052908015611ea9576020820181803683370190505b50905082840160f81b81600081518110611ebf57fe5b60200101906001600160f81b031916908160001a90535061013c565b600060015b808681611ee957fe5b0415611efe5760019091019061010002611ee0565b816001016001600160401b0381118015611f2057600080611f1d61228c565b50505b50604051818152601f19601f8301168101602001604052908015611f4b576020820181803683370190505b50925084820160370160f81b83600081518110611f6457fe5b60200101906001600160f81b031916908160001a905350600190505b818111611fd0576101008183036101000a8781611f9957fe5b0481611fa157fe5b0660f81b838281518110611fb157fe5b60200101906001600160f81b031916908160001a905350600101611f80565b5050905092915050565b60606000611fe78361212c565b9050611ff5815160c0611e71565b81604051602001612007929190612562565b604051602081830303815290604052915050919050565b606060028260008151811061202f57fe5b602001015160f81c8161203e57fe5b0660ff166000141561205c5761205582600261102a565b9050610239565b61205582600161102a565b61206f6122f7565b600082516001600160401b03811180156120915760008061208e61228c565b50505b506040519080825280602002602001820160405280156120c557816020015b60608152602001906001900390816120b05790505b50905060005b835181101561210f576120f08482815181106120e357fe5b6020026020010151611e66565b8282815181106120fc57fe5b60209081029190910101526001016120cb565b5061010e8161135a565b606061013f826020015160008451611db5565b60608151612168576000604051818152601f19601f8301168101602001604052908015612160576020820181803683370190505b509050610239565b6000805b83518110156121965783818151811061218157fe5b6020026020010151519091019060010161216c565b6000826001600160401b03811180156121b7576000806121b461228c565b50505b50604051818152601f19601f83011681016020016040529080156121e2576020820181803683370190505b50600092509050602081015b855183101561163457600086848151811061220557fe5b602002602001015190506020810161221f83828451612246565b87858151811061222b57fe5b60200260200101515160019095019490920191506121ee9050565b8282825b6020811061226a57815183526020928301929190910190601f190161224a565b60001960208290036101000a0180198351168185511617909352505050505050565b632a2a7adb598160e01b8152600481016020815285602082015260005b868110156122c45780860151828201604001526020016122a9565b506020828760640184336000905af158600e01573d6000803e3d6000fd5b3d6001141558600a015760016000f35b505050565b604051604080820190526060808252602082015290565b604051604080820190526000808252602082015290565b600082601f83011261233e57808161233b61228c565b50505b81356001600160401b038082111561235257fe5b604051601f8301601f19168101602001828111828210171561237057fe5b60405282815284830160200186101561239057838461238d61228c565b50505b82602086016020830137918201602001929092529392505050565b600080604083850312156123c65781826123c361228c565b50505b82356001600160401b03808211156123e55783846123e261228c565b50505b6123f186838701612325565b9350602085013591508082111561240f57828361240c61228c565b50505b5061241c85828601612325565b9150509250929050565b60008060006060848603121561244357808161244061228c565b50505b83356001600160401b038082111561246257828361245f61228c565b50505b61246e87838801612325565b9450602086013591508082111561248c57828361248961228c565b50505b5061249986828701612325565b925050604084013590509250925092565b600080600080608085870312156124c85780816124c561228c565b50505b84356001600160401b03808211156124e75782836124e461228c565b50505b6124f388838901612325565b9550602087013591508082111561251157828361250e61228c565b50505b61251d88838901612325565b9450604087013591508082111561253b57828361253861228c565b50505b5061254887828801612325565b949793965093946060013593505050565b90815260200190565b600083516125748184602088016125d6565b820183516125868183602088016125d6565b01949350505050565b901515815260200190565b600083151582526040602083015282518060408401526125c18160608501602087016125d6565b601f01601f1916919091016060019392505050565b60005b838110156125f15780820151838201526020016125d9565b83811115612600576000848401525b5050505056fe50726f766964656420524c50206c6973742065786365656473206d6178206c697374206c656e6774682e52656365697665642061206e6f6465207769746820616e20756e6b6e6f776e20707265666978",
  "linkReferences": {},
  "deployedLinkReferences": {}
}