{
  "address": "0x6ef8CeBBd20848cbe8896c6d739eA5655856CB91",
  "abi": [
    {
      "type": "constructor",
      "inputs": [
        {
          "name": "_addressManager",
          "type": "address",
          "internalType": "contract AddressManager"
        }
      ],
      "stateMutability": "nonpayable"
    },
    {
      "type": "function",
      "name": "ADDRESS_MANAGER",
      "inputs": [],
      "outputs": [
        {
          "name": "",
          "type": "address",
          "internalType": "contract AddressManager"
        }
      ],
      "stateMutability": "view"
    },
    {
      "type": "function",
      "name": "deprecateAddresses",
      "inputs": [],
      "outputs": [],
      "stateMutability": "nonpayable"
    }
  ],
  "transactionHash": "0xa8ea4c87095a32f415f7a01418c2d6e638e965eb8516a062ccd6aa0939a546f5",
  "args": [
    "0x53fa8017686758B67370fd4F61F20b4763595DC9"
  ],
  "numDeployments": 1,
  "bytecode": "0x60a060405234801561001057600080fd5b506040516106f83803806106f883398101604081905261002f91610040565b6001600160a01b0316608052610070565b60006020828403121561005257600080fd5b81516001600160a01b038116811461006957600080fd5b9392505050565b608051610667610091600039600081816040015261041801526106676000f3fe608060405234801561001057600080fd5b50600436106100365760003560e01c80634a1509951461003b578063e873233c1461008b575b600080fd5b6100627f000000000000000000000000000000000000000000000000000000000000000081565b60405173ffffffffffffffffffffffffffffffffffffffff909116815260200160405180910390f35b610093610095565b005b60006040518061022001604052806040518060400160405280601d81526020017f4f564d5f43616e6f6e6963616c5472616e73616374696f6e436861696e00000081525081526020016040518060400160405280601a81526020017f4f564d5f4c3243726f7373446f6d61696e4d657373656e67657200000000000081525081526020016040518060600160405280602281526020016105f16022913981526020016040518060400160405280600d81526020017f4f564d5f53657175656e6365720000000000000000000000000000000000000081525081526020016040518060400160405280600c81526020017f4f564d5f50726f706f73657200000000000000000000000000000000000000008152508152602001604051806060016040528060258152602001610613602591398152602001604051806060016040528060238152602001610638602391398152604080518082018252601d81527f4f564d5f43616e6f6e6963616c5472616e73616374696f6e436861696e0000006020828101919091528084019190915281518083018352601881527f4f564d5f5374617465436f6d6d69746d656e74436861696e0000000000000000818301528284015281518083018352600f81527f4f564d5f426f6e644d616e61676572000000000000000000000000000000000081830152606084015281518083018352601481527f4f564d5f457865637574696f6e4d616e616765720000000000000000000000008183015260808401528151808301835260118082527f4f564d5f467261756456657269666965720000000000000000000000000000008284015260a085019190915282518084018452601781527f4f564d5f53746174654d616e61676572466163746f72790000000000000000008184015260c085015282518084018452601c81527f4f564d5f53746174655472616e736974696f6e6572466163746f7279000000008184015260e0850152825180840184529081527f4f564d5f536166657479436865636b65720000000000000000000000000000008183015261010084015281518083018352601981527f4f564d5f4c314d756c74694d65737361676552656c6179657200000000000000818301526101208401528151808301909252600b82527f426f6e644d616e616765720000000000000000000000000000000000000000009082015261014090910152905060005b60118110156104cd577f000000000000000000000000000000000000000000000000000000000000000073ffffffffffffffffffffffffffffffffffffffff16639b2ea4bd838360118110610464576104646104d1565b602002015160006040518363ffffffff1660e01b8152600401610488929190610500565b600060405180830381600087803b1580156104a257600080fd5b505af11580156104b6573d6000803e3d6000fd5b5050505080806104c590610591565b91505061040d565b5050565b7f4e487b7100000000000000000000000000000000000000000000000000000000600052603260045260246000fd5b604081526000835180604084015260005b8181101561052e5760208187018101516060868401015201610511565b81811115610540576000606083860101525b5073ffffffffffffffffffffffffffffffffffffffff93909316602083015250601f919091017fffffffffffffffffffffffffffffffffffffffffffffffffffffffffffffffe01601606001919050565b60007fffffffffffffffffffffffffffffffffffffffffffffffffffffffffffffffff82036105e9577f4e487b7100000000000000000000000000000000000000000000000000000000600052601160045260246000fd5b506001019056fe4f564d5f4465636f6d7072657373696f6e507265636f6d70696c65416464726573734f564d5f436861696e53746f72616765436f6e7461696e65722d4354432d626174636865734f564d5f436861696e53746f72616765436f6e7461696e65722d4354432d7175657565a164736f6c634300080f000a"
}