{
  "address": "0x7B780B64B8A8446D6F06469925233f5f6761ae43",
  "abi": [
    {
      "type": "constructor",
      "inputs": [
        {
          "name": "_portal",
          "type": "address",
          "internalType": "contract OptimismPortal"
        }
      ],
      "stateMutability": "nonpayable"
    },
    {
      "type": "function",
      "name": "PORTAL",
      "inputs": [],
      "outputs": [
        {
          "name": "",
          "type": "address",
          "internalType": "contract OptimismPortal"
        }
      ],
      "stateMutability": "view"
    },
    {
      "type": "function",
      "name": "donate",
      "inputs": [],
      "outputs": [],
      "stateMutability": "nonpayable"
    }
  ],
  "transactionHash": "0xfd7bf5976bde9cf0d5b268c98041f70ba03b5ae339514bf3a92c7415c6e71218",
  "args": [
    "0xA8e2397c2228d3178183563bFe71d8eb8A4Ec2e4"
  ],
  "numDeployments": 1,
  "bytecode": "0x60a060405234801561001057600080fd5b506040516101b53803806101b583398101604081905261002f91610040565b6001600160a01b0316608052610070565b60006020828403121561005257600080fd5b81516001600160a01b038116811461006957600080fd5b9392505050565b6080516101256100906000396000818160400152609701526101256000f3fe608060405234801561001057600080fd5b50600436106100365760003560e01c80630ff754ea1461003b578063ed88c68e1461008b575b600080fd5b6100627f000000000000000000000000000000000000000000000000000000000000000081565b60405173ffffffffffffffffffffffffffffffffffffffff909116815260200160405180910390f35b610093610095565b005b7f000000000000000000000000000000000000000000000000000000000000000073ffffffffffffffffffffffffffffffffffffffff16638b4c40b0476040518263ffffffff1660e01b81526004016000604051808303818588803b1580156100fd57600080fd5b505af1158015610111573d6000803e3d6000fd5b505050505056fea164736f6c634300080f000a"
}