{
  "contractName": "ERC20",
  "abi": [
    {
      "inputs": [
        {
          "internalType": "uint256",
          "name": "_initialAmount",
          "type": "uint256"
        },
        {
          "internalType": "string",
          "name": "_tokenName",
          "type": "string"
        },
        {
          "internalType": "uint8",
          "name": "_decimalUnits",
          "type": "uint8"
        },
        {
          "internalType": "string",
          "name": "_tokenSymbol",
          "type": "string"
        }
      ],
      "stateMutability": "nonpayable",
      "type": "constructor"
    },
    {
      "anonymous": false,
      "inputs": [
        {
          "indexed": true,
          "internalType": "address",
          "name": "_owner",
          "type": "address"
        },
        {
          "indexed": true,
          "internalType": "address",
          "name": "_spender",
          "type": "address"
        },
        {
          "indexed": false,
          "internalType": "uint256",
          "name": "_value",
          "type": "uint256"
        }
      ],
      "name": "Approval",
      "type": "event"
    },
    {
      "anonymous": false,
      "inputs": [
        {
          "indexed": true,
          "internalType": "address",
          "name": "_from",
          "type": "address"
        },
        {
          "indexed": true,
          "internalType": "address",
          "name": "_to",
          "type": "address"
        },
        {
          "indexed": false,
          "internalType": "uint256",
          "name": "_value",
          "type": "uint256"
        }
      ],
      "name": "Transfer",
      "type": "event"
    },
    {
      "inputs": [
        {
          "internalType": "address",
          "name": "",
          "type": "address"
        },
        {
          "internalType": "address",
          "name": "",
          "type": "address"
        }
      ],
      "name": "allowed",
      "outputs": [
        {
          "internalType": "uint256",
          "name": "",
          "type": "uint256"
        }
      ],
      "stateMutability": "view",
      "type": "function",
      "constant": true
    },
    {
      "inputs": [
        {
          "internalType": "address",
          "name": "",
          "type": "address"
        }
      ],
      "name": "balances",
      "outputs": [
        {
          "internalType": "uint256",
          "name": "",
          "type": "uint256"
        }
      ],
      "stateMutability": "view",
      "type": "function",
      "constant": true
    },
    {
      "inputs": [],
      "name": "decimals",
      "outputs": [
        {
          "internalType": "uint8",
          "name": "",
          "type": "uint8"
        }
      ],
      "stateMutability": "view",
      "type": "function",
      "constant": true
    },
    {
      "inputs": [],
      "name": "name",
      "outputs": [
        {
          "internalType": "string",
          "name": "",
          "type": "string"
        }
      ],
      "stateMutability": "view",
      "type": "function",
      "constant": true
    },
    {
      "inputs": [],
      "name": "symbol",
      "outputs": [
        {
          "internalType": "string",
          "name": "",
          "type": "string"
        }
      ],
      "stateMutability": "view",
      "type": "function",
      "constant": true
    },
    {
      "inputs": [],
      "name": "totalSupply",
      "outputs": [
        {
          "internalType": "uint256",
          "name": "",
          "type": "uint256"
        }
      ],
      "stateMutability": "view",
      "type": "function",
      "constant": true
    },
    {
      "inputs": [
        {
          "internalType": "address",
          "name": "_to",
          "type": "address"
        },
        {
          "internalType": "uint256",
          "name": "_value",
          "type": "uint256"
        }
      ],
      "name": "transfer",
      "outputs": [
        {
          "internalType": "bool",
          "name": "success",
          "type": "bool"
        }
      ],
      "stateMutability": "nonpayable",
      "type": "function"
    },
    {
      "inputs": [
        {
          "internalType": "address",
          "name": "_from",
          "type": "address"
        },
        {
          "internalType": "address",
          "name": "_to",
          "type": "address"
        },
        {
          "internalType": "uint256",
          "name": "_value",
          "type": "uint256"
        }
      ],
      "name": "transferFrom",
      "outputs": [
        {
          "internalType": "bool",
          "name": "success",
          "type": "bool"
        }
      ],
      "stateMutability": "nonpayable",
      "type": "function"
    },
    {
      "inputs": [
        {
          "internalType": "address",
          "name": "_owner",
          "type": "address"
        }
      ],
      "name": "balanceOf",
      "outputs": [
        {
          "internalType": "uint256",
          "name": "balance",
          "type": "uint256"
        }
      ],
      "stateMutability": "view",
      "type": "function",
      "constant": true
    },
    {
      "inputs": [
        {
          "internalType": "address",
          "name": "_spender",
          "type": "address"
        },
        {
          "internalType": "uint256",
          "name": "_value",
          "type": "uint256"
        }
      ],
      "name": "approve",
      "outputs": [
        {
          "internalType": "bool",
          "name": "success",
          "type": "bool"
        }
      ],
      "stateMutability": "nonpayable",
      "type": "function"
    },
    {
      "inputs": [
        {
          "internalType": "address",
          "name": "_owner",
          "type": "address"
        },
        {
          "internalType": "address",
          "name": "_spender",
          "type": "address"
        }
      ],
      "name": "allowance",
      "outputs": [
        {
          "internalType": "uint256",
          "name": "remaining",
          "type": "uint256"
        }
      ],
      "stateMutability": "view",
      "type": "function",
      "constant": true
    }
  ],
  "bytecode": "0x60806040523480156200001c5760008062000019620002b8565b50505b5060405162000f1b38038062000f1b833981810160405260808110156200004d576000806200004a620002b8565b50505b8101908080519291906020018051604051939291908464010000000082111562000081576000806200007e620002b8565b50505b908301906020820185811115620000a2576000806200009f620002b8565b50505b8251640100000000811182820188101715620000c857600080620000c5620002b8565b50505b825250602001908051906020019080838360005b83811015620000f6578082015183820152602001620000dc565b50505050905090810190601f168015620001245780820380516001836020036101000a031916815260200191505b506040526020018051929190602001805160405193929190846401000000008211156200015b5760008062000158620002b8565b50505b9083019060208201858111156200017c5760008062000179620002b8565b50505b8251640100000000811182820188101715620001a2576000806200019f620002b8565b50505b825250602001908051906020019080838360005b83811015620001d0578082015183820152602001620001b6565b50505050905090810190601f168015620001fe5780820380516001836020036101000a031916815260200191505b50604052505050836000805a6200021462000325565b6001600160a01b03166001600160a01b0316815260200190815260200160002081906200024062000381565b50505083600581906200025262000381565b5050508260029080516200026b929160200190620003d0565b508160036001816200027c62000492565b8160ff021916908360ff160217906200029462000381565b505050806004908051620002ad929160200190620003d0565b505050505062000502565b632a2a7adb598160e01b8152600481016020815285602082015260005b86811015620002f2578086015182820160400152602001620002d5565b506020828760640184336000905af158600e01573d6000803e3d6000fd5b3d6001141558600a015760016000f35b505050565b6373509064598160e01b8152602081600483336000905af158600e01573d6000803e3d6000fd5b3d6001141558600a015760016000f35b8051935060005b60408110156200037c5760008282015260200162000363565b505050565b6322bd64c0598160e01b8152836004820152846024820152600081604483336000905af158600e01573d6000803e3d6000fd5b3d6001141558600a015760016000f35b60008152602062000363565b8280620003dc62000492565b600181600116156101000203166002900490600052602060002090601f0160209004810192826200041c576000856200041462000381565b505062000480565b82601f106200043a57805160ff191683800117856200041462000381565b828001600101856200044b62000381565b5050821562000480579182015b8281111562000480578251826200046e62000381565b50509160200191906001019062000458565b506200048e929150620004df565b5090565b6303daa959598160e01b8152836004820152602081602483336000905af158600e01573d6000803e3d6000fd5b3d6001141558600a015760016000f35b8051600082529350602062000363565b808211156200048e5760008082620004f662000381565b505050600101620004df565b610a0980620005126000396000f3fe608060405234801561001957600080610016610889565b50505b50600436106100a25760003560e01c806306fdde03146100b0578063095ea7b31461012f57806318160ddd1461017857806323b872dd1461019257806327e235e3146101d1578063313ce567146102005780635c6581651461021e57806370a082311461025557806395d89b4114610284578063a9059cbb1461028c578063dd62ed3e146102c1575b6000806100ad610889565b50505b6100b86102f8565b60405160208082528190810183818151815260200191508051906020019080838360005b838110156100f45780820151838201526020016100dc565b50505050905090810190601f1680156101215780820380516001836020036101000a031916815260200191505b509250505060405180910390f35b6101646004803603604081101561014e5760008061014b610889565b50505b506001600160a01b0381351690602001356103b1565b604051901515815260200160405180910390f35b61018061045f565b60405190815260200160405180910390f35b610164600480360360608110156101b1576000806101ae610889565b50505b506001600160a01b0381358116916020810135909116906040013561046c565b610180600480360360208110156101f0576000806101ed610889565b50505b50356001600160a01b0316610618565b610208610630565b60405160ff909116815260200160405180910390f35b6101806004803603604081101561023d5760008061023a610889565b50505b506001600160a01b0381358116916020013516610649565b6101806004803603602081101561027457600080610271610889565b50505b50356001600160a01b031661066f565b6100b8610695565b610164600480360360408110156102ab576000806102a8610889565b50505b506001600160a01b038135169060200135610737565b610180600480360360408110156102e0576000806102dd610889565b50505b506001600160a01b0381358116916020013516610849565b6002806103036108f4565b600181600116156101000203166002900480601f01602080910402602001604051908101604052818152919060208301828061033d6108f4565b600181600116156101000203166002900480156103a95780601f106103775761010080836103696108f4565b0402835291602001916103a9565b820191906000526020600020905b8161038e6108f4565b8152906001019060200180831161038557829003601f168201915b505050505081565b600081600160005a6103c1610954565b6001600160a01b03166001600160a01b031681526020019081526020016000206001600160a01b038516600090815260209190915260409020819061040461099a565b505050826001600160a01b03165a61041a610954565b6001600160a01b03167f8c5be1e5ebec7d5bd14f71427d1e84f3dd0314c0f7b2291e5b200ac8c7c3b9258460405190815260200160405180910390a350600192915050565b60056104696108f4565b81565b6001600160a01b03831660009081526001602052806040812060005a610490610954565b6001600160a01b03166001600160a01b031681526020019081526020016000206104b86108f4565b6001600160a01b038616600090815260208190529091508390604090206104dd6108f4565b101580156104eb5750828110155b6104fd576000806104fa610889565b50505b6001600160a01b03841660009081526020819052839060409020600082826105236108f4565b01925050819061053161099a565b5050506001600160a01b038516600090815260208190528390604090206000828261055a6108f4565b03925050819061056861099a565b5050506000198110156105d8576001600160a01b0385166000908152600160205283906040902060005a61059a610954565b6001600160a01b03166001600160a01b03168152602001908152602001600020600082826105c66108f4565b0392505081906105d461099a565b5050505b836001600160a01b0316856001600160a01b03166000805160206109e98339815191528560405190815260200160405180910390a3506001949350505050565b600060205280600052604060002090506104696108f4565b6000600361063c6108f4565b906101000a900460ff1681565b6001602052816000526040600020602052806000526040600020915061046990506108f4565b6001600160a01b038116600090815260208190526040812061068f6108f4565b92915050565b6004806106a06108f4565b600181600116156101000203166002900480601f0160208091040260200160405190810160405281815291906020830182806106da6108f4565b600181600116156101000203166002900480156103a95780601f106107065761010080836103696108f4565b820191906000526020600020905b8161071d6108f4565b815290600101906020018083116107145750859350505050565b6000816000805a610746610954565b6001600160a01b03166001600160a01b0316815260200190815260200160002061076e6108f4565b10156107825760008061077f610889565b50505b816000805a61078f610954565b6001600160a01b03166001600160a01b03168152602001908152602001600020600082826107bb6108f4565b0392505081906107c961099a565b5050506001600160a01b03831660009081526020819052829060409020600082826107f26108f4565b01925050819061080061099a565b505050826001600160a01b03165a610816610954565b6001600160a01b03166000805160206109e98339815191528460405190815260200160405180910390a350600192915050565b6001600160a01b03821660009081526001602052604081206001600160a01b0383166000908152602091909152604090206108826108f4565b9392505050565b632a2a7adb598160e01b8152600481016020815285602082015260005b868110156108c15780860151828201604001526020016108a6565b506020828760640184336000905af158600e01573d6000803e3d6000fd5b3d6001141558600a015760016000f35b505050565b6303daa959598160e01b8152836004820152602081602483336000905af158600e01573d6000803e3d6000fd5b3d6001141558600a015760016000f35b8051935060005b604081101561094f57600082820152602001610938565b505050565b6373509064598160e01b8152602081600483336000905af158600e01573d6000803e3d6000fd5b3d6001141558600a015760016000f35b80516000825293506020610938565b6322bd64c0598160e01b8152836004820152846024820152600081604483336000905af158600e01573d6000803e3d6000fd5b3d6001141558600a015760016000f35b60008152602061093856feddf252ad1be2c89b69c2b068fc378daa952ba7f163c4a11628f55a4df523b3ef",
  "immutableReferences": {},
  "source": "// SPDX-License-Identifier: MIT LICENSE\n/* Implements ERC20 token standard: https://github.com/ethereum/EIPs/blob/master/EIPS/eip-20.md */\npragma solidity ^0.7.6;\n\nimport \"./IERC20.sol\";\n\ncontract ERC20 is IERC20 {\n    uint256 private constant MAX_UINT256 = 2**256 - 1;\n    mapping(address => uint256) public balances;\n    mapping(address => mapping(address => uint256)) public allowed;\n    /*\n    NOTE:\n    The following variables are OPTIONAL vanities. One does not have to include them.\n    They allow one to customise the token contract & in no way influences the core functionality.\n    Some wallets/interfaces might not even bother to look at this information.\n    */\n    string public name;\n    uint8 public decimals;\n    string public symbol;\n    uint256 public totalSupply;\n\n    constructor(\n        uint256 _initialAmount,\n        string memory _tokenName,\n        uint8 _decimalUnits,\n        string memory _tokenSymbol\n    ) {\n        balances[msg.sender] = _initialAmount; // Give the creator all initial tokens\n        totalSupply = _initialAmount; // Update total supply\n        name = _tokenName; // Set the name for display purposes\n        decimals = _decimalUnits; // Amount of decimals for display purposes\n        symbol = _tokenSymbol; // Set the symbol for display purposes\n    }\n\n    function transfer(address _to, uint256 _value)\n        public\n        override\n        returns (bool success)\n    {\n        require(balances[msg.sender] >= _value);\n        balances[msg.sender] -= _value;\n        balances[_to] += _value;\n        emit Transfer(msg.sender, _to, _value); //solhint-disable-line indent, no-unused-vars\n        return true;\n    }\n\n    function transferFrom(\n        address _from,\n        address _to,\n        uint256 _value\n    ) public override returns (bool success) {\n        uint256 allowance_ = allowed[_from][msg.sender];\n        require(balances[_from] >= _value && allowance_ >= _value);\n        balances[_to] += _value;\n        balances[_from] -= _value;\n        if (allowance_ < MAX_UINT256) {\n            allowed[_from][msg.sender] -= _value;\n        }\n        emit Transfer(_from, _to, _value); //solhint-disable-line indent, no-unused-vars\n        return true;\n    }\n\n    function balanceOf(address _owner)\n        public\n        view\n        override\n        returns (uint256 balance)\n    {\n        return balances[_owner];\n    }\n\n    function approve(address _spender, uint256 _value)\n        public\n        override\n        returns (bool success)\n    {\n        allowed[msg.sender][_spender] = _value;\n        emit Approval(msg.sender, _spender, _value); //solhint-disable-line indent, no-unused-vars\n        return true;\n    }\n\n    function allowance(address _owner, address _spender)\n        public\n        view\n        override\n        returns (uint256 remaining)\n    {\n        return allowed[_owner][_spender];\n    }\n}\n",
  "sourcePath": "/Users/jesusmeza/Developer/omgx/optimism/omgx_examples/truffle/contracts/ERC20.sol",
  "compiler": {
    "name": "solc",
    "version": "0.7.6"
  },
  "schemaVersion": "3.4.1",
  "updatedAt": "2021-06-23T19:29:53.721Z",
  "networkType": "ethereum",
  "devdoc": {
    "kind": "dev",
    "methods": {
      "allowance(address,address)": {
        "params": {
          "_owner": "The address of the account owning tokens",
          "_spender": "The address of the account able to transfer the tokens"
        },
        "returns": {
          "remaining": "Amount of remaining tokens allowed to spent"
        }
      },
      "approve(address,uint256)": {
        "params": {
          "_spender": "The address of the account able to transfer the tokens",
          "_value": "The amount of tokens to be approved for transfer"
        },
        "returns": {
          "success": "Whether the approval was successful or not"
        }
      },
      "balanceOf(address)": {
        "params": {
          "_owner": "The address from which the balance will be retrieved"
        },
        "returns": {
          "balance": "The balance"
        }
      },
      "transfer(address,uint256)": {
        "params": {
          "_to": "The address of the recipient",
          "_value": "The amount of token to be transferred"
        },
        "returns": {
          "success": "Whether the transfer was successful or not"
        }
      },
      "transferFrom(address,address,uint256)": {
        "params": {
          "_from": "The address of the sender",
          "_to": "The address of the recipient",
          "_value": "The amount of token to be transferred"
        },
        "returns": {
          "success": "Whether the transfer was successful or not"
        }
      }
    },
    "version": 1
  },
  "userdoc": {
    "kind": "user",
    "methods": {
      "approve(address,uint256)": {
        "notice": "`msg.sender` approves `_spender` to spend `_value` tokens"
      },
      "transfer(address,uint256)": {
        "notice": "send `_value` token to `_to` from `msg.sender`"
      },
      "transferFrom(address,address,uint256)": {
        "notice": "send `_value` token to `_to` from `_from` on the condition it is approved by `_from`"
      }
    },
    "version": 1
  }
}