{
  "_format": "hh-sol-artifact-1",
  "contractName": "Mock_FraudVerifier",
  "sourceName": "contracts/test-helpers/Mock_FraudVerifier.sol",
  "abi": [
    {
      "inputs": [
        {
          "internalType": "bytes32",
          "name": "_preStateRoot",
          "type": "bytes32"
        },
        {
          "internalType": "address",
          "name": "publisher",
          "type": "address"
        },
        {
          "internalType": "uint256",
          "name": "timestamp",
          "type": "uint256"
        }
      ],
      "name": "finalize",
      "outputs": [],
      "stateMutability": "nonpayable",
      "type": "function"
    },
    {
      "inputs": [
        {
          "internalType": "bytes32",
          "name": "_preStateRoot",
          "type": "bytes32"
        },
        {
          "internalType": "bytes32",
          "name": "_txHash",
          "type": "bytes32"
        }
      ],
      "name": "getStateTransitioner",
      "outputs": [
        {
          "internalType": "address",
          "name": "",
          "type": "address"
        }
      ],
      "stateMutability": "view",
      "type": "function"
    },
    {
      "inputs": [
        {
          "internalType": "contract OVM_BondManager",
          "name": "_bondManager",
          "type": "address"
        }
      ],
      "name": "setBondManager",
      "outputs": [],
      "stateMutability": "nonpayable",
      "type": "function"
    },
    {
      "inputs": [
        {
          "internalType": "bytes32",
          "name": "preStateRoot",
          "type": "bytes32"
        },
        {
          "internalType": "bytes32",
          "name": "txHash",
          "type": "bytes32"
        },
        {
          "internalType": "address",
          "name": "addr",
          "type": "address"
        }
      ],
      "name": "setStateTransitioner",
      "outputs": [],
      "stateMutability": "nonpayable",
      "type": "function"
    }
  ],
  "bytecode": "0x60806040523480156100195760008061001661001f565b50505b5061008a565b632a2a7adb598160e01b8152600481016020815285602082015260005b8681101561005757808601518282016040015260200161003c565b506020828760640184336000905af158600e01573d6000803e3d6000fd5b3d6001141558600a015760016000f35b505050565b610573806100996000396000f3fe608060405234801561001957600080610016610323565b50505b50600436106100555760003560e01c806348d3fed314610063578063abfbbe1314610094578063b48ec820146100cf578063d0ca0a9b14610117575b600080610060610323565b50505b610092600480360360208110156100825760008061007f610323565b50505b50356001600160a01b0316610152565b005b610092600480360360608110156100b3576000806100b0610323565b50505b508035906001600160a01b036020820135169060400135610188565b6100fb600480360360408110156100ee576000806100eb610323565b50505b5080359060200135610245565b6040516001600160a01b03909116815260200160405180910390f35b6100926004803603606081101561013657600080610133610323565b50505b50803590602081013590604001356001600160a01b03166102ac565b80600060018161016061038e565b816001600160a01b0302191690836001600160a01b03160217906101826103ee565b50505050565b60008061019361038e565b906101000a90046001600160a01b03166001600160a01b031663abfbbe138484846040516001600160e01b031960e086901b16815260048101939093526001600160a01b0390911660248301526044820152606401600060405180830381600087806101fd61043c565b1580156102125760008061020f610323565b50505b505a61021c610488565b50505050505015801561023c573d6000803e3d6000610239610323565b50505b50505050505050565b6000600160008484604051602001808381526020018281526020019250505060405160208183030381529060405280519060200120815260200190815260200160002060009061029361038e565b906101000a90046001600160a01b031690505b92915050565b8060016000858560405160200180838152602001828152602001925050506040516020818303038152906040528051906020012081526020019081526020016000206001816102f961038e565b816001600160a01b0302191690836001600160a01b031602179061031b6103ee565b505050505050565b632a2a7adb598160e01b8152600481016020815285602082015260005b8681101561035b578086015182820160400152602001610340565b506020828760640184336000905af158600e01573d6000803e3d6000fd5b3d6001141558600a015760016000f35b505050565b6303daa959598160e01b8152836004820152602081602483336000905af158600e01573d6000803e3d6000fd5b3d6001141558600a015760016000f35b8051935060005b60408110156103e9576000828201526020016103d2565b505050565b6322bd64c0598160e01b8152836004820152846024820152600081604483336000905af158600e01573d6000803e3d6000fd5b3d6001141558600a015760016000f35b6000815260206103d2565b638435035b598160e01b8152836004820152602081602483336000905af158600e01573d6000803e3d6000fd5b3d6001141558600a015760016000f35b805160008252935060206103d2565b6385979f76598160e01b81526104b9565b80808311156102a6575090919050565b80808310156102a6575090919050565b836004820152846024820152606060448201528760648201526084810160005b898110156104f15780890151828201526020016104d9565b506060828a60a40184336000905af158600e01573d6000803e3d6000fd5b3d6001141558600a015760016000f35b815160408301513d6000853e8c8c82606087013350600060045af150596105468e3d6104a9565b8d016105528187610499565b5b828110156105675760008152602001610553565b50929d5050505050505056",
  "linkReferences": {},
  "deployedLinkReferences": {}
}