{
  "contracts/HelloWorld.sol": {
    "HelloWorld": {
      "abi": [
        {
          "inputs": [],
          "stateMutability": "nonpayable",
          "type": "constructor"
        },
        {
          "inputs": [],
          "name": "addr",
          "outputs": [
            {
              "internalType": "address",
              "name": "",
              "type": "address"
            }
          ],
          "stateMutability": "view",
          "type": "function"
        },
        {
          "inputs": [
            {
              "internalType": "uint256",
              "name": "",
              "type": "uint256"
            }
          ],
          "name": "addresses",
          "outputs": [
            {
              "internalType": "address",
              "name": "",
              "type": "address"
            }
          ],
          "stateMutability": "view",
          "type": "function"
        },
        {
          "inputs": [],
          "name": "boolean",
          "outputs": [
            {
              "internalType": "bool",
              "name": "",
              "type": "bool"
            }
          ],
          "stateMutability": "view",
          "type": "function"
        },
        {
          "inputs": [],
          "name": "gm",
          "outputs": [
            {
              "internalType": "uint256",
              "name": "",
              "type": "uint256"
            }
          ],
          "stateMutability": "nonpayable",
          "type": "function"
        },
        {
          "inputs": [],
          "name": "small",
          "outputs": [
            {
              "internalType": "uint8",
              "name": "",
              "type": "uint8"
            }
          ],
          "stateMutability": "view",
          "type": "function"
        },
        {
          "inputs": [],
          "name": "time",
          "outputs": [
            {
              "internalType": "uint256",
              "name": "",
              "type": "uint256"
            }
          ],
          "stateMutability": "view",
          "type": "function"
        }
      ],
      "devdoc": {
        "kind": "dev",
        "methods": {},
        "version": 1
      },
      "evm": {
        "assembly": "    /* \"contracts/HelloWorld.sol\":57:425  contract HelloWorld {... */\n  mstore(0x40, 0x80)\n    /* \"contracts/HelloWorld.sol\":234:287  constructor() {... */\n  callvalue\n  dup1\n  iszero\n  tag_1\n  jumpi\n  0x00\n  dup1\n  revert\ntag_1:\n  pop\n    /* \"contracts/HelloWorld.sol\":265:280  block.timestamp */\n  timestamp\n    /* \"contracts/HelloWorld.sol\":258:262  time */\n  0x00\n    /* \"contracts/HelloWorld.sol\":258:280  time = block.timestamp */\n  sstore\n    /* \"contracts/HelloWorld.sol\":57:425  contract HelloWorld {... */\n  dataSize(sub_0)\n  dup1\n  dataOffset(sub_0)\n  0x00\n  codecopy\n  0x00\n  return\nstop\n\nsub_0: assembly {\n        /* \"contracts/HelloWorld.sol\":57:425  contract HelloWorld {... */\n      mstore(0x40, 0x80)\n      callvalue\n      dup1\n      iszero\n      tag_1\n      jumpi\n      0x00\n      dup1\n      revert\n    tag_1:\n      pop\n      jumpi(tag_2, lt(calldatasize, 0x04))\n      shr(0xe0, calldataload(0x00))\n      dup1\n      0x16ada547\n      eq\n      tag_3\n      jumpi\n      dup1\n      0x6cf3c25e\n      eq\n      tag_4\n      jumpi\n      dup1\n      0x767800de\n      eq\n      tag_5\n      jumpi\n      dup1\n      0xc0129d43\n      eq\n      tag_6\n      jumpi\n      dup1\n      0xc5b57bdb\n      eq\n      tag_7\n      jumpi\n      dup1\n      0xedf26d9b\n      eq\n      tag_8\n      jumpi\n    tag_2:\n      0x00\n      dup1\n      revert\n        /* \"contracts/HelloWorld.sol\":83:102  uint256 public time */\n    tag_3:\n      tag_9\n      sload(0x00)\n      dup2\n      jump\n    tag_9:\n      mload(0x40)\n        /* \"#utility.yul\":160:185   */\n      swap1\n      dup2\n      mstore\n        /* \"#utility.yul\":148:150   */\n      0x20\n        /* \"#utility.yul\":133:151   */\n      add\n        /* \"contracts/HelloWorld.sol\":83:102  uint256 public time */\n    tag_11:\n      mload(0x40)\n      dup1\n      swap2\n      sub\n      swap1\n      return\n        /* \"contracts/HelloWorld.sol\":209:227  uint8 public small */\n    tag_4:\n      sload(0x03)\n      tag_13\n      swap1\n      0xff\n      and\n      dup2\n      jump\n    tag_13:\n      mload(0x40)\n        /* \"#utility.yul\":368:372   */\n      0xff\n        /* \"#utility.yul\":356:373   */\n      swap1\n      swap2\n      and\n        /* \"#utility.yul\":338:374   */\n      dup2\n      mstore\n        /* \"#utility.yul\":326:328   */\n      0x20\n        /* \"#utility.yul\":311:329   */\n      add\n        /* \"contracts/HelloWorld.sol\":209:227  uint8 public small */\n      tag_11\n        /* \"#utility.yul\":196:380   */\n      jump\n        /* \"contracts/HelloWorld.sol\":108:127  address public addr */\n    tag_5:\n      sload(0x01)\n      tag_17\n      swap1\n      sub(shl(0xa0, 0x01), 0x01)\n      and\n      dup2\n      jump\n    tag_17:\n      mload(0x40)\n      sub(shl(0xa0, 0x01), 0x01)\n        /* \"#utility.yul\":549:581   */\n      swap1\n      swap2\n      and\n        /* \"#utility.yul\":531:582   */\n      dup2\n      mstore\n        /* \"#utility.yul\":519:521   */\n      0x20\n        /* \"#utility.yul\":504:522   */\n      add\n        /* \"contracts/HelloWorld.sol\":108:127  address public addr */\n      tag_11\n        /* \"#utility.yul\":385:588   */\n      jump\n        /* \"contracts/HelloWorld.sol\":293:423  function gm() external returns (uint256) {... */\n    tag_6:\n        /* \"contracts/HelloWorld.sol\":325:332  uint256 */\n      0x00\n        /* \"contracts/HelloWorld.sol\":359:363  time */\n      dup1\n      sload\n        /* \"contracts/HelloWorld.sol\":380:395  block.timestamp */\n      timestamp\n        /* \"contracts/HelloWorld.sol\":373:395  time = block.timestamp */\n      swap1\n      swap2\n      sstore\n        /* \"contracts/HelloWorld.sol\":293:423  function gm() external returns (uint256) {... */\n      jump(tag_9)\n        /* \"contracts/HelloWorld.sol\":133:152  bool public boolean */\n    tag_7:\n      sload(0x01)\n      tag_24\n      swap1\n      shl(0xa0, 0x01)\n      swap1\n      div\n      0xff\n      and\n      dup2\n      jump\n    tag_24:\n      mload(0x40)\n        /* \"#utility.yul\":758:772   */\n      swap1\n      iszero\n        /* \"#utility.yul\":751:773   */\n      iszero\n        /* \"#utility.yul\":733:774   */\n      dup2\n      mstore\n        /* \"#utility.yul\":721:723   */\n      0x20\n        /* \"#utility.yul\":706:724   */\n      add\n        /* \"contracts/HelloWorld.sol\":133:152  bool public boolean */\n      tag_11\n        /* \"#utility.yul\":593:780   */\n      jump\n        /* \"contracts/HelloWorld.sol\":158:202  mapping(uint256 => address) public addresses */\n    tag_8:\n      tag_17\n      tag_29\n      calldatasize\n      0x04\n      tag_30\n      jump\t// in\n    tag_29:\n      mstore(0x20, 0x02)\n      0x00\n      swap1\n      dup2\n      mstore\n      0x40\n      swap1\n      keccak256\n      sload\n      sub(shl(0xa0, 0x01), 0x01)\n      and\n      dup2\n      jump\n        /* \"#utility.yul\":785:965   */\n    tag_30:\n        /* \"#utility.yul\":844:850   */\n      0x00\n        /* \"#utility.yul\":897:899   */\n      0x20\n        /* \"#utility.yul\":885:894   */\n      dup3\n        /* \"#utility.yul\":876:883   */\n      dup5\n        /* \"#utility.yul\":872:895   */\n      sub\n        /* \"#utility.yul\":868:900   */\n      slt\n        /* \"#utility.yul\":865:917   */\n      iszero\n      tag_40\n      jumpi\n        /* \"#utility.yul\":913:914   */\n      0x00\n        /* \"#utility.yul\":910:911   */\n      dup1\n        /* \"#utility.yul\":903:915   */\n      revert\n        /* \"#utility.yul\":865:917   */\n    tag_40:\n      pop\n        /* \"#utility.yul\":936:959   */\n      calldataload\n      swap2\n        /* \"#utility.yul\":785:965   */\n      swap1\n      pop\n      jump\t// out\n\n    auxdata: 0xa164736f6c634300080f000a\n}\n",
        "bytecode": {
          "linkReferences": {},
          "object": "608060405234801561001057600080fd5b504260005561014d806100246000396000f3fe608060405234801561001057600080fd5b50600436106100625760003560e01c806316ada547146100675780636cf3c25e14610083578063767800de146100a2578063c0129d43146100cd578063c5b57bdb146100da578063edf26d9b146100fe575b600080fd5b61007060005481565b6040519081526020015b60405180910390f35b6003546100909060ff1681565b60405160ff909116815260200161007a565b6001546100b5906001600160a01b031681565b6040516001600160a01b03909116815260200161007a565b6000805442909155610070565b6001546100ee90600160a01b900460ff1681565b604051901515815260200161007a565b6100b561010c366004610127565b6002602052600090815260409020546001600160a01b031681565b60006020828403121561013957600080fd5b503591905056fea164736f6c634300080f000a",
          "opcodes": "PUSH1 0x80 PUSH1 0x40 MSTORE CALLVALUE DUP1 ISZERO PUSH2 0x10 JUMPI PUSH1 0x0 DUP1 REVERT JUMPDEST POP TIMESTAMP PUSH1 0x0 SSTORE PUSH2 0x14D DUP1 PUSH2 0x24 PUSH1 0x0 CODECOPY PUSH1 0x0 RETURN INVALID PUSH1 0x80 PUSH1 0x40 MSTORE CALLVALUE DUP1 ISZERO PUSH2 0x10 JUMPI PUSH1 0x0 DUP1 REVERT JUMPDEST POP PUSH1 0x4 CALLDATASIZE LT PUSH2 0x62 JUMPI PUSH1 0x0 CALLDATALOAD PUSH1 0xE0 SHR DUP1 PUSH4 0x16ADA547 EQ PUSH2 0x67 JUMPI DUP1 PUSH4 0x6CF3C25E EQ PUSH2 0x83 JUMPI DUP1 PUSH4 0x767800DE EQ PUSH2 0xA2 JUMPI DUP1 PUSH4 0xC0129D43 EQ PUSH2 0xCD JUMPI DUP1 PUSH4 0xC5B57BDB EQ PUSH2 0xDA JUMPI DUP1 PUSH4 0xEDF26D9B EQ PUSH2 0xFE JUMPI JUMPDEST PUSH1 0x0 DUP1 REVERT JUMPDEST PUSH2 0x70 PUSH1 0x0 SLOAD DUP2 JUMP JUMPDEST PUSH1 0x40 MLOAD SWAP1 DUP2 MSTORE PUSH1 0x20 ADD JUMPDEST PUSH1 0x40 MLOAD DUP1 SWAP2 SUB SWAP1 RETURN JUMPDEST PUSH1 0x3 SLOAD PUSH2 0x90 SWAP1 PUSH1 0xFF AND DUP2 JUMP JUMPDEST PUSH1 0x40 MLOAD PUSH1 0xFF SWAP1 SWAP2 AND DUP2 MSTORE PUSH1 0x20 ADD PUSH2 0x7A JUMP JUMPDEST PUSH1 0x1 SLOAD PUSH2 0xB5 SWAP1 PUSH1 0x1 PUSH1 0x1 PUSH1 0xA0 SHL SUB AND DUP2 JUMP JUMPDEST PUSH1 0x40 MLOAD PUSH1 0x1 PUSH1 0x1 PUSH1 0xA0 SHL SUB SWAP1 SWAP2 AND DUP2 MSTORE PUSH1 0x20 ADD PUSH2 0x7A JUMP JUMPDEST PUSH1 0x0 DUP1 SLOAD TIMESTAMP SWAP1 SWAP2 SSTORE PUSH2 0x70 JUMP JUMPDEST PUSH1 0x1 SLOAD PUSH2 0xEE SWAP1 PUSH1 0x1 PUSH1 0xA0 SHL SWAP1 DIV PUSH1 0xFF AND DUP2 JUMP JUMPDEST PUSH1 0x40 MLOAD SWAP1 ISZERO ISZERO DUP2 MSTORE PUSH1 0x20 ADD PUSH2 0x7A JUMP JUMPDEST PUSH2 0xB5 PUSH2 0x10C CALLDATASIZE PUSH1 0x4 PUSH2 0x127 JUMP JUMPDEST PUSH1 0x2 PUSH1 0x20 MSTORE PUSH1 0x0 SWAP1 DUP2 MSTORE PUSH1 0x40 SWAP1 KECCAK256 SLOAD PUSH1 0x1 PUSH1 0x1 PUSH1 0xA0 SHL SUB AND DUP2 JUMP JUMPDEST PUSH1 0x0 PUSH1 0x20 DUP3 DUP5 SUB SLT ISZERO PUSH2 0x139 JUMPI PUSH1 0x0 DUP1 REVERT JUMPDEST POP CALLDATALOAD SWAP2 SWAP1 POP JUMP INVALID LOG1 PUSH5 0x736F6C6343 STOP ADDMOD 0xF STOP EXP "
        },
        "gasEstimates": {
          "creation": {
            "codeDepositCost": "66600",
            "executionCost": "22222",
            "totalCost": "88822"
          },
          "external": {
            "addr()": "2359",
            "addresses(uint256)": "2565",
            "boolean()": "2393",
            "gm()": "24436",
            "small()": "2313",
            "time()": "2262"
          }
        },
        "methodIdentifiers": {
          "addr()": "767800de",
          "addresses(uint256)": "edf26d9b",
          "boolean()": "c5b57bdb",
          "gm()": "c0129d43",
          "small()": "6cf3c25e",
          "time()": "16ada547"
        }
      },
      "storageLayout": {
        "storage": [
          {
            "astId": 3,
            "contract": "contracts/HelloWorld.sol:HelloWorld",
            "label": "time",
            "offset": 0,
            "slot": "0",
            "type": "t_uint256"
          },
          {
            "astId": 5,
            "contract": "contracts/HelloWorld.sol:HelloWorld",
            "label": "addr",
            "offset": 0,
            "slot": "1",
            "type": "t_address"
          },
          {
            "astId": 7,
            "contract": "contracts/HelloWorld.sol:HelloWorld",
            "label": "boolean",
            "offset": 20,
            "slot": "1",
            "type": "t_bool"
          },
          {
            "astId": 11,
            "contract": "contracts/HelloWorld.sol:HelloWorld",
            "label": "addresses",
            "offset": 0,
            "slot": "2",
            "type": "t_mapping(t_uint256,t_address)"
          },
          {
            "astId": 13,
            "contract": "contracts/HelloWorld.sol:HelloWorld",
            "label": "small",
            "offset": 0,
            "slot": "3",
            "type": "t_uint8"
          }
        ],
        "types": {
          "t_address": {
            "encoding": "inplace",
            "label": "address",
            "numberOfBytes": "20"
          },
          "t_bool": {
            "encoding": "inplace",
            "label": "bool",
            "numberOfBytes": "1"
          },
          "t_mapping(t_uint256,t_address)": {
            "encoding": "mapping",
            "key": "t_uint256",
            "label": "mapping(uint256 => address)",
            "numberOfBytes": "32",
            "value": "t_address"
          },
          "t_uint256": {
            "encoding": "inplace",
            "label": "uint256",
            "numberOfBytes": "32"
          },
          "t_uint8": {
            "encoding": "inplace",
            "label": "uint8",
            "numberOfBytes": "1"
          }
        }
      },
      "userdoc": {
        "kind": "user",
        "methods": {},
        "version": 1
      }
    }
  }
}