{
  "address": "0x9fE46736679d2D9a65F0992F2272dE9f3c7fa6e0",
  "abi": [
    {
      "anonymous": false,
      "inputs": [
        {
          "indexed": true,
          "internalType": "bytes32",
          "name": "msgHash",
          "type": "bytes32"
        }
      ],
      "name": "FailedRelayedMessage",
      "type": "event"
    },
    {
      "anonymous": false,
      "inputs": [
        {
          "indexed": true,
          "internalType": "address",
          "name": "previousOwner",
          "type": "address"
        },
        {
          "indexed": true,
          "internalType": "address",
          "name": "newOwner",
          "type": "address"
        }
      ],
      "name": "OwnershipTransferred",
      "type": "event"
    },
    {
      "anonymous": false,
      "inputs": [
        {
          "indexed": false,
          "internalType": "address",
          "name": "account",
          "type": "address"
        }
      ],
      "name": "Paused",
      "type": "event"
    },
    {
      "anonymous": false,
      "inputs": [
        {
          "indexed": true,
          "internalType": "bytes32",
          "name": "msgHash",
          "type": "bytes32"
        }
      ],
      "name": "RelayedMessage",
      "type": "event"
    },
    {
      "anonymous": false,
      "inputs": [
        {
          "indexed": true,
          "internalType": "address",
          "name": "target",
          "type": "address"
        },
        {
          "indexed": false,
          "internalType": "address",
          "name": "sender",
          "type": "address"
        },
        {
          "indexed": false,
          "internalType": "bytes",
          "name": "message",
          "type": "bytes"
        },
        {
          "indexed": false,
          "internalType": "uint256",
          "name": "messageNonce",
          "type": "uint256"
        },
        {
          "indexed": false,
          "internalType": "uint256",
          "name": "gasLimit",
          "type": "uint256"
        }
      ],
      "name": "SentMessage",
      "type": "event"
    },
    {
      "anonymous": false,
      "inputs": [
        {
          "indexed": false,
          "internalType": "address",
          "name": "account",
          "type": "address"
        }
      ],
      "name": "Unpaused",
      "type": "event"
    },
    {
      "inputs": [],
      "name": "MESSAGE_VERSION",
      "outputs": [
        {
          "internalType": "uint16",
          "name": "",
          "type": "uint16"
        }
      ],
      "stateMutability": "view",
      "type": "function"
    },
    {
      "inputs": [],
      "name": "MIN_GAS_CONSTANT_OVERHEAD",
      "outputs": [
        {
          "internalType": "uint32",
          "name": "",
          "type": "uint32"
        }
      ],
      "stateMutability": "view",
      "type": "function"
    },
    {
      "inputs": [],
      "name": "MIN_GAS_DYNAMIC_OVERHEAD",
      "outputs": [
        {
          "internalType": "uint32",
          "name": "",
          "type": "uint32"
        }
      ],
      "stateMutability": "view",
      "type": "function"
    },
    {
      "inputs": [
        {
          "internalType": "bytes",
          "name": "_message",
          "type": "bytes"
        }
      ],
      "name": "baseGas",
      "outputs": [
        {
          "internalType": "uint32",
          "name": "",
          "type": "uint32"
        }
      ],
      "stateMutability": "pure",
      "type": "function"
    },
    {
      "inputs": [
        {
          "internalType": "address",
          "name": "",
          "type": "address"
        }
      ],
      "name": "blockedSystemAddresses",
      "outputs": [
        {
          "internalType": "bool",
          "name": "",
          "type": "bool"
        }
      ],
      "stateMutability": "view",
      "type": "function"
    },
    {
      "inputs": [
        {
          "internalType": "contract OptimismPortal",
          "name": "_portal",
          "type": "address"
        }
      ],
      "name": "initialize",
      "outputs": [],
      "stateMutability": "nonpayable",
      "type": "function"
    },
    {
      "inputs": [],
      "name": "messageNonce",
      "outputs": [
        {
          "internalType": "uint256",
          "name": "",
          "type": "uint256"
        }
      ],
      "stateMutability": "view",
      "type": "function"
    },
    {
      "inputs": [],
      "name": "otherMessenger",
      "outputs": [
        {
          "internalType": "address",
          "name": "",
          "type": "address"
        }
      ],
      "stateMutability": "view",
      "type": "function"
    },
    {
      "inputs": [],
      "name": "owner",
      "outputs": [
        {
          "internalType": "address",
          "name": "",
          "type": "address"
        }
      ],
      "stateMutability": "view",
      "type": "function"
    },
    {
      "inputs": [],
      "name": "pause",
      "outputs": [],
      "stateMutability": "nonpayable",
      "type": "function"
    },
    {
      "inputs": [],
      "name": "paused",
      "outputs": [
        {
          "internalType": "bool",
          "name": "",
          "type": "bool"
        }
      ],
      "stateMutability": "view",
      "type": "function"
    },
    {
      "inputs": [],
      "name": "portal",
      "outputs": [
        {
          "internalType": "contract OptimismPortal",
          "name": "",
          "type": "address"
        }
      ],
      "stateMutability": "view",
      "type": "function"
    },
    {
      "inputs": [
        {
          "internalType": "bytes32",
          "name": "",
          "type": "bytes32"
        }
      ],
      "name": "receivedMessages",
      "outputs": [
        {
          "internalType": "bool",
          "name": "",
          "type": "bool"
        }
      ],
      "stateMutability": "view",
      "type": "function"
    },
    {
      "inputs": [
        {
          "internalType": "uint256",
          "name": "_nonce",
          "type": "uint256"
        },
        {
          "internalType": "address",
          "name": "_sender",
          "type": "address"
        },
        {
          "internalType": "address",
          "name": "_target",
          "type": "address"
        },
        {
          "internalType": "uint256",
          "name": "_value",
          "type": "uint256"
        },
        {
          "internalType": "uint256",
          "name": "_minGasLimit",
          "type": "uint256"
        },
        {
          "internalType": "bytes",
          "name": "_message",
          "type": "bytes"
        }
      ],
      "name": "relayMessage",
      "outputs": [],
      "stateMutability": "payable",
      "type": "function"
    },
    {
      "inputs": [],
      "name": "renounceOwnership",
      "outputs": [],
      "stateMutability": "nonpayable",
      "type": "function"
    },
    {
      "inputs": [
        {
          "internalType": "address",
          "name": "_target",
          "type": "address"
        },
        {
          "internalType": "bytes",
          "name": "_message",
          "type": "bytes"
        },
        {
          "internalType": "uint32",
          "name": "_minGasLimit",
          "type": "uint32"
        }
      ],
      "name": "sendMessage",
      "outputs": [],
      "stateMutability": "payable",
      "type": "function"
    },
    {
      "inputs": [
        {
          "internalType": "bytes32",
          "name": "",
          "type": "bytes32"
        }
      ],
      "name": "successfulMessages",
      "outputs": [
        {
          "internalType": "bool",
          "name": "",
          "type": "bool"
        }
      ],
      "stateMutability": "view",
      "type": "function"
    },
    {
      "inputs": [
        {
          "internalType": "address",
          "name": "newOwner",
          "type": "address"
        }
      ],
      "name": "transferOwnership",
      "outputs": [],
      "stateMutability": "nonpayable",
      "type": "function"
    },
    {
      "inputs": [],
      "name": "xDomainMessageSender",
      "outputs": [
        {
          "internalType": "address",
          "name": "",
          "type": "address"
        }
      ],
      "stateMutability": "view",
      "type": "function"
    }
  ],
  "transactionHash": "0x11e0768f9d5de29656e27bb1fdafbea7d22f800879a633fa02af329cf594c761",
  "args": [],
  "numDeployments": 1,
  "solcInputHash": "6f1b19ba097550efb2ca70fb1ff05547",
  "bytecode": "0x608060405234801561001057600080fd5b50611db5806100206000396000f3fe6080604052600436106101445760003560e01c80638da5cb5b116100c0578063db505d8011610074578063f2fde38b11610059578063f2fde38b146103af578063f691f6c2146103cf578063f69f8151146103ef57600080fd5b8063db505d8014610343578063ecc704281461037057600080fd5b8063c4d66de8116100a5578063c4d66de8146102fb578063c6da1f9e1461031b578063d764ad0b1461033057600080fd5b80638da5cb5b146102a0578063b1b1b209146102cb57600080fd5b80636425666b11610117578063715018a6116100fc578063715018a61461024a5780637dea7cc31461025f5780638456cb591461028b57600080fd5b80636425666b146101e35780636e296e451461023557600080fd5b80633dbb202b146101495780633f827a5a1461015e5780634b134ce71461018b5780635c975abb146101cb575b600080fd5b61015c610157366004611816565b61041f565b005b34801561016a57600080fd5b50610173600181565b60405161ffff90911681526020015b60405180910390f35b34801561019757600080fd5b506101bb6101a6366004611887565b60d06020526000908152604090205460ff1681565b6040519015158152602001610182565b3480156101d757600080fd5b5060655460ff166101bb565b3480156101ef57600080fd5b5060d1546102109073ffffffffffffffffffffffffffffffffffffffff1681565b60405173ffffffffffffffffffffffffffffffffffffffff9091168152602001610182565b34801561024157600080fd5b506102106105e5565b34801561025657600080fd5b5061015c610674565b34801561026b57600080fd5b50610276620186a081565b60405163ffffffff9091168152602001610182565b34801561029757600080fd5b5061015c6106e7565b3480156102ac57600080fd5b5060335473ffffffffffffffffffffffffffffffffffffffff16610210565b3480156102d757600080fd5b506101bb6102e63660046118ab565b60cb6020526000908152604090205460ff1681565b34801561030757600080fd5b5061015c610316366004611887565b610756565b34801561032757600080fd5b50610276600181565b61015c61033e3660046118c4565b610828565b34801561034f57600080fd5b5060ce546102109073ffffffffffffffffffffffffffffffffffffffff1681565b34801561037c57600080fd5b5060cd547e0100000000000000000000000000000000000000000000000000000000000017604051908152602001610182565b3480156103bb57600080fd5b5061015c6103ca366004611887565b610d20565b3480156103db57600080fd5b506102766103ea366004611979565b610e1c565b3480156103fb57600080fd5b506101bb61040a3660046118ab565b60cf6020526000908152604090205460ff1681565b60ce54604080516020601f86018190048102820181019092528481526105579273ffffffffffffffffffffffffffffffffffffffff169161047b91908790879081908401838280828437600092019190915250610e1c92505050565b6104859084611a59565b63ffffffff16347fd764ad0b000000000000000000000000000000000000000000000000000000006104d760cd547e010000000000000000000000000000000000000000000000000000000000001790565b338a34898c8c6040516024016104f39796959493929190611aac565b60408051601f198184030181529190526020810180517bffffffffffffffffffffffffffffffffffffffffffffffffffffffff167fffffffff0000000000000000000000000000000000000000000000000000000090931692909217909152610e40565b8373ffffffffffffffffffffffffffffffffffffffff167fcb0f7ffd78f9aee47a248fae8db181db6eee833039123e026dcbff529522e52a3385856105bc60cd547e010000000000000000000000000000000000000000000000000000000000001790565b866040516105ce959493929190611b0b565b60405180910390a2505060cd805460010190555050565b60cc5460009073ffffffffffffffffffffffffffffffffffffffff1661dead14156106575760405162461bcd60e51b815260206004820152601f60248201527f78446f6d61696e4d65737361676553656e646572206973206e6f74207365740060448201526064015b60405180910390fd5b5060cc5473ffffffffffffffffffffffffffffffffffffffff1690565b60335473ffffffffffffffffffffffffffffffffffffffff1633146106db5760405162461bcd60e51b815260206004820181905260248201527f4f776e61626c653a2063616c6c6572206973206e6f7420746865206f776e6572604482015260640161064e565b6106e56000610ed9565b565b60335473ffffffffffffffffffffffffffffffffffffffff16331461074e5760405162461bcd60e51b815260206004820181905260248201527f4f776e61626c653a2063616c6c6572206973206e6f7420746865206f776e6572604482015260640161064e565b6106e5610f50565b60d180547fffffffffffffffffffffffff00000000000000000000000000000000000000001673ffffffffffffffffffffffffffffffffffffffff83161790556040805160018082528183019092526000916020808301908036833701905050905030816000815181106107cc576107cc611b59565b602002602001019073ffffffffffffffffffffffffffffffffffffffff16908173ffffffffffffffffffffffffffffffffffffffff168152505061082473420000000000000000000000000000000000000782611020565b5050565b6002609754141561087b5760405162461bcd60e51b815260206004820152601f60248201527f5265656e7472616e637947756172643a207265656e7472616e742063616c6c00604482015260640161064e565b600260975560655460ff16156108d35760405162461bcd60e51b815260206004820152601060248201527f5061757361626c653a2070617573656400000000000000000000000000000000604482015260640161064e565b6000610919888888888888888080601f01602080910402602001604051908101604052809392919081815260200183838082843760009201919091525061122892505050565b90506109236112c1565b1561097c578434146109775760405162461bcd60e51b815260206004820152601960248201527f4d69736d617463686564206d6573736167652076616c75652e00000000000000604482015260640161064e565b6109da565b600081815260cf602052604090205460ff166109da5760405162461bcd60e51b815260206004820152601b60248201527f4d6573736167652063616e6e6f74206265207265706c617965642e0000000000604482015260640161064e565b73ffffffffffffffffffffffffffffffffffffffff8616600090815260d0602052604090205460ff1615610a765760405162461bcd60e51b815260206004820152602e60248201527f43616e6e6f742073656e64206d65737361676520746f20626c6f636b6564207360448201527f797374656d20616464726573732e000000000000000000000000000000000000606482015260840161064e565b600081815260cb602052604090205460ff1615610afb5760405162461bcd60e51b815260206004820152602160248201527f4d6573736167652068617320616c7265616479206265656e2072656c6179656460448201527f2e00000000000000000000000000000000000000000000000000000000000000606482015260840161064e565b610b078461afc8611b88565b5a1015610b7c5760405162461bcd60e51b815260206004820152602260248201527f496e73756666696369656e742067617320746f2072656c6179206d657373616760448201527f652e000000000000000000000000000000000000000000000000000000000000606482015260840161064e565b60cc80547fffffffffffffffffffffffff00000000000000000000000000000000000000001673ffffffffffffffffffffffffffffffffffffffff89161790556000610c0f87619c405a610bd09190611ba0565b88600088888080601f01602080910402602001604051908101604052809392919081815260200183838082843760009201919091525061139d92505050565b5060cc80547fffffffffffffffffffffffff00000000000000000000000000000000000000001661dead179055905080151560011415610cac57600082815260cb602052604080822080547fffffffffffffffffffffffffffffffffffffffffffffffffffffffffffffff001660011790555183917f4641df4a962071e12719d8c8c8e5ac7fc4d97b927346a3d7a335b1f7517e133c91a2610d0b565b600082815260cf602052604080822080547fffffffffffffffffffffffffffffffffffffffffffffffffffffffffffffff001660011790555183917f99d0e048484baa1b1540b1367cb128acd7ab2946d1ed91ec10e3c85e4bf51b8f91a25b5050600160975550505050505050565b905090565b60335473ffffffffffffffffffffffffffffffffffffffff163314610d875760405162461bcd60e51b815260206004820181905260248201527f4f776e61626c653a2063616c6c6572206973206e6f7420746865206f776e6572604482015260640161064e565b73ffffffffffffffffffffffffffffffffffffffff8116610e105760405162461bcd60e51b815260206004820152602660248201527f4f776e61626c653a206e6577206f776e657220697320746865207a65726f206160448201527f6464726573730000000000000000000000000000000000000000000000000000606482015260840161064e565b610e1981610ed9565b50565b6000620186a060018351610e309190611bb7565b610e3a9190611a59565b92915050565b60d1546040517fe9e05c4200000000000000000000000000000000000000000000000000000000815273ffffffffffffffffffffffffffffffffffffffff9091169063e9e05c42908490610ea1908890839089906000908990600401611c30565b6000604051808303818588803b158015610eba57600080fd5b505af1158015610ece573d6000803e3d6000fd5b505050505050505050565b6033805473ffffffffffffffffffffffffffffffffffffffff8381167fffffffffffffffffffffffff0000000000000000000000000000000000000000831681179093556040519116919082907f8be0079c531659141344cd1fd0a4f28419497f9722a3daafe3b4186f6b6457e090600090a35050565b60655460ff1615610fa35760405162461bcd60e51b815260206004820152601060248201527f5061757361626c653a2070617573656400000000000000000000000000000000604482015260640161064e565b606580547fffffffffffffffffffffffffffffffffffffffffffffffffffffffffffffff001660011790557f62e78cea01bee320cd4e420270b5ea74000d11b0c9f74754ebdbfc544b05a258610ff63390565b60405173ffffffffffffffffffffffffffffffffffffffff909116815260200160405180910390a1565b600054610100900460ff1661103b5760005460ff161561103f565b303b155b6110b15760405162461bcd60e51b815260206004820152602e60248201527f496e697469616c697a61626c653a20636f6e747261637420697320616c72656160448201527f647920696e697469616c697a6564000000000000000000000000000000000000606482015260840161064e565b600054610100900460ff161580156110f057600080547fffffffffffffffffffffffffffffffffffffffffffffffffffffffffffff0000166101011790555b60cc805461dead7fffffffffffffffffffffffff00000000000000000000000000000000000000009182161790915560ce805490911673ffffffffffffffffffffffffffffffffffffffff851617905560005b82518110156111d357600160d0600085848151811061116457611164611b59565b60209081029190910181015173ffffffffffffffffffffffffffffffffffffffff16825281019190915260400160002080547fffffffffffffffffffffffffffffffffffffffffffffffffffffffffffffff0016911515919091179055806111cb81611c88565b915050611143565b506111dc611428565b6111e46114a5565b6111ec61152b565b6111f46115d2565b801561122357600080547fffffffffffffffffffffffffffffffffffffffffffffffffffffffffffff00ff1690555b505050565b6000806112358860f01c90565b905061ffff81166112545761124c8688858b611656565b9150506112b7565b8061ffff166001141561126f5761124c888888888888611675565b60405162461bcd60e51b815260206004820152601060248201527f556e6b6e6f776e2076657273696f6e2e00000000000000000000000000000000604482015260640161064e565b9695505050505050565b60d15460009073ffffffffffffffffffffffffffffffffffffffff1633148015610d1b575060ce5460d154604080517f9bf62d82000000000000000000000000000000000000000000000000000000008152905173ffffffffffffffffffffffffffffffffffffffff9384169390921691639bf62d82916004808201926020929091908290030181865afa15801561135d573d6000803e3d6000fd5b505050506040513d601f19601f820116820180604052508101906113819190611cc1565b73ffffffffffffffffffffffffffffffffffffffff1614905090565b6000606060008060008661ffff1667ffffffffffffffff8111156113c3576113c361194a565b6040519080825280601f01601f1916602001820160405280156113ed576020820181803683370190505b5090506000808751602089018b8e8ef191503d92508683111561140e578692505b828152826000602083013e90999098509650505050505050565b600054610100900460ff166106e55760405162461bcd60e51b815260206004820152602b60248201527f496e697469616c697a61626c653a20636f6e7472616374206973206e6f74206960448201527f6e697469616c697a696e67000000000000000000000000000000000000000000606482015260840161064e565b600054610100900460ff166115225760405162461bcd60e51b815260206004820152602b60248201527f496e697469616c697a61626c653a20636f6e7472616374206973206e6f74206960448201527f6e697469616c697a696e67000000000000000000000000000000000000000000606482015260840161064e565b6106e533610ed9565b600054610100900460ff166115a85760405162461bcd60e51b815260206004820152602b60248201527f496e697469616c697a61626c653a20636f6e7472616374206973206e6f74206960448201527f6e697469616c697a696e67000000000000000000000000000000000000000000606482015260840161064e565b606580547fffffffffffffffffffffffffffffffffffffffffffffffffffffffffffffff00169055565b600054610100900460ff1661164f5760405162461bcd60e51b815260206004820152602b60248201527f496e697469616c697a61626c653a20636f6e7472616374206973206e6f74206960448201527f6e697469616c697a696e67000000000000000000000000000000000000000000606482015260840161064e565b6001609755565b600061166485858585611698565b805190602001209050949350505050565b60006116858787878787876116af565b8051906020012090509695505050505050565b60606116a685858585611730565b95945050505050565b60608686868686866040516024016116cc96959493929190611cde565b60408051601f198184030181529190526020810180517bffffffffffffffffffffffffffffffffffffffffffffffffffffffff167fd764ad0b0000000000000000000000000000000000000000000000000000000017905290509695505050505050565b6060848484846040516024016117499493929190611d35565b60408051601f198184030181529190526020810180517bffffffffffffffffffffffffffffffffffffffffffffffffffffffff167fcbd4ece9000000000000000000000000000000000000000000000000000000001790529050949350505050565b73ffffffffffffffffffffffffffffffffffffffff81168114610e1957600080fd5b60008083601f8401126117df57600080fd5b50813567ffffffffffffffff8111156117f757600080fd5b60208301915083602082850101111561180f57600080fd5b9250929050565b6000806000806060858703121561182c57600080fd5b8435611837816117ab565b9350602085013567ffffffffffffffff81111561185357600080fd5b61185f878288016117cd565b909450925050604085013563ffffffff8116811461187c57600080fd5b939692955090935050565b60006020828403121561189957600080fd5b81356118a4816117ab565b9392505050565b6000602082840312156118bd57600080fd5b5035919050565b600080600080600080600060c0888a0312156118df57600080fd5b8735965060208801356118f1816117ab565b95506040880135611901816117ab565b9450606088013593506080880135925060a088013567ffffffffffffffff81111561192b57600080fd5b6119378a828b016117cd565b989b979a50959850939692959293505050565b7f4e487b7100000000000000000000000000000000000000000000000000000000600052604160045260246000fd5b60006020828403121561198b57600080fd5b813567ffffffffffffffff808211156119a357600080fd5b818401915084601f8301126119b757600080fd5b8135818111156119c9576119c961194a565b604051601f8201601f19908116603f011681019083821181831017156119f1576119f161194a565b81604052828152876020848701011115611a0a57600080fd5b826020860160208301376000928101602001929092525095945050505050565b7f4e487b7100000000000000000000000000000000000000000000000000000000600052601160045260246000fd5b600063ffffffff808316818516808303821115611a7857611a78611a2a565b01949350505050565b818352818160208501375060006020828401015260006020601f19601f840116840101905092915050565b878152600073ffffffffffffffffffffffffffffffffffffffff808916602084015280881660408401525085606083015263ffffffff8516608083015260c060a0830152611afe60c083018486611a81565b9998505050505050505050565b73ffffffffffffffffffffffffffffffffffffffff86168152608060208201526000611b3b608083018688611a81565b905083604083015263ffffffff831660608301529695505050505050565b7f4e487b7100000000000000000000000000000000000000000000000000000000600052603260045260246000fd5b60008219821115611b9b57611b9b611a2a565b500190565b600082821015611bb257611bb2611a2a565b500390565b600063ffffffff80831681851681830481118215151615611bda57611bda611a2a565b02949350505050565b6000815180845260005b81811015611c0957602081850181015186830182015201611bed565b81811115611c1b576000602083870101525b50601f01601f19169290920160200192915050565b73ffffffffffffffffffffffffffffffffffffffff8616815284602082015267ffffffffffffffff84166040820152821515606082015260a060808201526000611c7d60a0830184611be3565b979650505050505050565b60007fffffffffffffffffffffffffffffffffffffffffffffffffffffffffffffffff821415611cba57611cba611a2a565b5060010190565b600060208284031215611cd357600080fd5b81516118a4816117ab565b868152600073ffffffffffffffffffffffffffffffffffffffff808816602084015280871660408401525084606083015283608083015260c060a0830152611d2960c0830184611be3565b98975050505050505050565b600073ffffffffffffffffffffffffffffffffffffffff808716835280861660208401525060806040830152611d6e6080830185611be3565b90508260608301529594505050505056fea26469706673582212209f6f78cff3b03d0b5659d49043d1ce43f79684e26183b9247d6ea9426ff1626064736f6c634300080a0033",
  "devdoc": {
    "details": "The L1 Cross Domain Messenger contract sends messages from L1 to L2, and relays messages from L2 onto L1. This contract should be deployed behind an upgradable proxy",
    "kind": "dev",
    "methods": {
      "baseGas(bytes)": {
        "params": {
          "_message": "Message to compute base gas for."
        },
        "returns": {
          "_0": "Base gas required for message."
        }
      },
      "initialize(address)": {
        "params": {
          "_portal": "The OptimismPortal"
        }
      },
      "messageNonce()": {
        "returns": {
          "_0": "Next message nonce with added hash version."
        }
      },
      "owner()": {
        "details": "Returns the address of the current owner."
      },
      "paused()": {
        "details": "Returns true if the contract is paused, and false otherwise."
      },
      "renounceOwnership()": {
        "details": "Leaves the contract without owner. It will not be possible to call `onlyOwner` functions anymore. Can only be called by the current owner. NOTE: Renouncing ownership will leave the contract without an owner, thereby removing any functionality that is only available to the owner."
      },
      "sendMessage(address,bytes,uint32)": {
        "params": {
          "_message": "Message to send to the target.",
          "_minGasLimit": "Gas limit for the provided message.",
          "_target": "Target contract address."
        }
      },
      "transferOwnership(address)": {
        "details": "Transfers ownership of the contract to a new account (`newOwner`). Can only be called by the current owner."
      },
      "xDomainMessageSender()": {
        "returns": {
          "_0": "Address of the x-domain message sender."
        }
      }
    },
    "title": "L1CrossDomainMessenger",
    "version": 1
  },
  "userdoc": {
    "kind": "user",
    "methods": {
      "baseGas(bytes)": {
        "notice": "Base amount of gas required to make sure that the message will be received without running out of gas. Amount of gas provided to the L2 call will be the gas requested by the user PLUS this gas value so that if the message is not successful, it can always be replayed on the other end."
      },
      "blockedSystemAddresses(address)": {
        "notice": "Blocked system addresses that cannot be called (for security reasons)."
      },
      "initialize(address)": {
        "notice": "Initialize the L1CrossDomainMessenger"
      },
      "messageNonce()": {
        "notice": "Retrieves the next message nonce. Adds the hash version to the nonce."
      },
      "otherMessenger()": {
        "notice": "Address of the CrossDomainMessenger on the other chain."
      },
      "pause()": {
        "notice": "Pause relaying."
      },
      "portal()": {
        "notice": "Address of the OptimismPortal."
      },
      "receivedMessages(bytes32)": {
        "notice": "Mapping of message hash to boolean receipt value."
      },
      "successfulMessages(bytes32)": {
        "notice": "Mapping of message hash to boolean success value."
      },
      "xDomainMessageSender()": {
        "notice": "Retrieves the address of the x-domain message sender. Will throw an error if the sender is not currently set (equal to the default sender). This function is meant to be called on the remote side of a cross domain message so that the account that initiated the call can be known."
      }
    },
    "version": 1
  },
  "storageLayout": {
    "storage": [
      {
        "astId": 2499,
        "contract": "contracts/L1/L1CrossDomainMessenger.sol:L1CrossDomainMessenger",
        "label": "_initialized",
        "offset": 0,
        "slot": "0",
        "type": "t_bool"
      },
      {
        "astId": 2502,
        "contract": "contracts/L1/L1CrossDomainMessenger.sol:L1CrossDomainMessenger",
        "label": "_initializing",
        "offset": 1,
        "slot": "0",
        "type": "t_bool"
      },
      {
        "astId": 3020,
        "contract": "contracts/L1/L1CrossDomainMessenger.sol:L1CrossDomainMessenger",
        "label": "__gap",
        "offset": 0,
        "slot": "1",
        "type": "t_array(t_uint256)50_storage"
      },
      {
        "astId": 2379,
        "contract": "contracts/L1/L1CrossDomainMessenger.sol:L1CrossDomainMessenger",
        "label": "_owner",
        "offset": 0,
        "slot": "51",
        "type": "t_address"
      },
      {
        "astId": 2491,
        "contract": "contracts/L1/L1CrossDomainMessenger.sol:L1CrossDomainMessenger",
        "label": "__gap",
        "offset": 0,
        "slot": "52",
        "type": "t_array(t_uint256)49_storage"
      },
      {
        "astId": 2587,
        "contract": "contracts/L1/L1CrossDomainMessenger.sol:L1CrossDomainMessenger",
        "label": "_paused",
        "offset": 0,
        "slot": "101",
        "type": "t_bool"
      },
      {
        "astId": 2676,
        "contract": "contracts/L1/L1CrossDomainMessenger.sol:L1CrossDomainMessenger",
        "label": "__gap",
        "offset": 0,
        "slot": "102",
        "type": "t_array(t_uint256)49_storage"
      },
      {
        "astId": 2691,
        "contract": "contracts/L1/L1CrossDomainMessenger.sol:L1CrossDomainMessenger",
        "label": "_status",
        "offset": 0,
        "slot": "151",
        "type": "t_uint256"
      },
      {
        "astId": 2735,
        "contract": "contracts/L1/L1CrossDomainMessenger.sol:L1CrossDomainMessenger",
        "label": "__gap",
        "offset": 0,
        "slot": "152",
        "type": "t_array(t_uint256)49_storage"
      },
      {
        "astId": 7295,
        "contract": "contracts/L1/L1CrossDomainMessenger.sol:L1CrossDomainMessenger",
        "label": "REMOVED_VARIABLE_SPACER_1",
        "offset": 0,
        "slot": "201",
        "type": "t_bytes32"
      },
      {
        "astId": 7297,
        "contract": "contracts/L1/L1CrossDomainMessenger.sol:L1CrossDomainMessenger",
        "label": "REMOVED_VARIABLE_SPACER_2",
        "offset": 0,
        "slot": "202",
        "type": "t_bytes32"
      },
      {
        "astId": 7302,
        "contract": "contracts/L1/L1CrossDomainMessenger.sol:L1CrossDomainMessenger",
        "label": "successfulMessages",
        "offset": 0,
        "slot": "203",
        "type": "t_mapping(t_bytes32,t_bool)"
      },
      {
        "astId": 7305,
        "contract": "contracts/L1/L1CrossDomainMessenger.sol:L1CrossDomainMessenger",
        "label": "xDomainMsgSender",
        "offset": 0,
        "slot": "204",
        "type": "t_address"
      },
      {
        "astId": 7308,
        "contract": "contracts/L1/L1CrossDomainMessenger.sol:L1CrossDomainMessenger",
        "label": "msgNonce",
        "offset": 0,
        "slot": "205",
        "type": "t_uint256"
      },
      {
        "astId": 7311,
        "contract": "contracts/L1/L1CrossDomainMessenger.sol:L1CrossDomainMessenger",
        "label": "otherMessenger",
        "offset": 0,
        "slot": "206",
        "type": "t_address"
      },
      {
        "astId": 7316,
        "contract": "contracts/L1/L1CrossDomainMessenger.sol:L1CrossDomainMessenger",
        "label": "receivedMessages",
        "offset": 0,
        "slot": "207",
        "type": "t_mapping(t_bytes32,t_bool)"
      },
      {
        "astId": 7321,
        "contract": "contracts/L1/L1CrossDomainMessenger.sol:L1CrossDomainMessenger",
        "label": "blockedSystemAddresses",
        "offset": 0,
        "slot": "208",
        "type": "t_mapping(t_address,t_bool)"
      },
      {
        "astId": 4587,
        "contract": "contracts/L1/L1CrossDomainMessenger.sol:L1CrossDomainMessenger",
        "label": "portal",
        "offset": 0,
        "slot": "209",
        "type": "t_contract(OptimismPortal)5589"
      }
    ],
    "types": {
      "t_address": {
        "encoding": "inplace",
        "label": "address",
        "numberOfBytes": "20"
      },
      "t_array(t_uint256)49_storage": {
        "base": "t_uint256",
        "encoding": "inplace",
        "label": "uint256[49]",
        "numberOfBytes": "1568"
      },
      "t_array(t_uint256)50_storage": {
        "base": "t_uint256",
        "encoding": "inplace",
        "label": "uint256[50]",
        "numberOfBytes": "1600"
      },
      "t_bool": {
        "encoding": "inplace",
        "label": "bool",
        "numberOfBytes": "1"
      },
      "t_bytes32": {
        "encoding": "inplace",
        "label": "bytes32",
        "numberOfBytes": "32"
      },
      "t_contract(OptimismPortal)5589": {
        "encoding": "inplace",
        "label": "contract OptimismPortal",
        "numberOfBytes": "20"
      },
      "t_mapping(t_address,t_bool)": {
        "encoding": "mapping",
        "key": "t_address",
        "label": "mapping(address => bool)",
        "numberOfBytes": "32",
        "value": "t_bool"
      },
      "t_mapping(t_bytes32,t_bool)": {
        "encoding": "mapping",
        "key": "t_bytes32",
        "label": "mapping(bytes32 => bool)",
        "numberOfBytes": "32",
        "value": "t_bool"
      },
      "t_uint256": {
        "encoding": "inplace",
        "label": "uint256",
        "numberOfBytes": "32"
      }
    }
  }
}