{
  "address": "0xDc64a140Aa3E981100a9becA4E685f962f0cF6C9",
  "abi": [
    {
      "anonymous": false,
      "inputs": [
        {
          "indexed": true,
          "internalType": "address",
          "name": "_localToken",
          "type": "address"
        },
        {
          "indexed": true,
          "internalType": "address",
          "name": "_remoteToken",
          "type": "address"
        },
        {
          "indexed": true,
          "internalType": "address",
          "name": "_from",
          "type": "address"
        },
        {
          "indexed": false,
          "internalType": "address",
          "name": "_to",
          "type": "address"
        },
        {
          "indexed": false,
          "internalType": "uint256",
          "name": "_amount",
          "type": "uint256"
        },
        {
          "indexed": false,
          "internalType": "bytes",
          "name": "_data",
          "type": "bytes"
        }
      ],
      "name": "ERC20BridgeFailed",
      "type": "event"
    },
    {
      "anonymous": false,
      "inputs": [
        {
          "indexed": true,
          "internalType": "address",
          "name": "_localToken",
          "type": "address"
        },
        {
          "indexed": true,
          "internalType": "address",
          "name": "_remoteToken",
          "type": "address"
        },
        {
          "indexed": true,
          "internalType": "address",
          "name": "_from",
          "type": "address"
        },
        {
          "indexed": false,
          "internalType": "address",
          "name": "_to",
          "type": "address"
        },
        {
          "indexed": false,
          "internalType": "uint256",
          "name": "_amount",
          "type": "uint256"
        },
        {
          "indexed": false,
          "internalType": "bytes",
          "name": "_data",
          "type": "bytes"
        }
      ],
      "name": "ERC20BridgeFinalized",
      "type": "event"
    },
    {
      "anonymous": false,
      "inputs": [
        {
          "indexed": true,
          "internalType": "address",
          "name": "_localToken",
          "type": "address"
        },
        {
          "indexed": true,
          "internalType": "address",
          "name": "_remoteToken",
          "type": "address"
        },
        {
          "indexed": true,
          "internalType": "address",
          "name": "_from",
          "type": "address"
        },
        {
          "indexed": false,
          "internalType": "address",
          "name": "_to",
          "type": "address"
        },
        {
          "indexed": false,
          "internalType": "uint256",
          "name": "_amount",
          "type": "uint256"
        },
        {
          "indexed": false,
          "internalType": "bytes",
          "name": "_data",
          "type": "bytes"
        }
      ],
      "name": "ERC20BridgeInitiated",
      "type": "event"
    },
    {
      "anonymous": false,
      "inputs": [
        {
          "indexed": true,
          "internalType": "address",
          "name": "_l1Token",
          "type": "address"
        },
        {
          "indexed": true,
          "internalType": "address",
          "name": "_l2Token",
          "type": "address"
        },
        {
          "indexed": true,
          "internalType": "address",
          "name": "_from",
          "type": "address"
        },
        {
          "indexed": false,
          "internalType": "address",
          "name": "_to",
          "type": "address"
        },
        {
          "indexed": false,
          "internalType": "uint256",
          "name": "_amount",
          "type": "uint256"
        },
        {
          "indexed": false,
          "internalType": "bytes",
          "name": "_data",
          "type": "bytes"
        }
      ],
      "name": "ERC20DepositInitiated",
      "type": "event"
    },
    {
      "anonymous": false,
      "inputs": [
        {
          "indexed": true,
          "internalType": "address",
          "name": "_l1Token",
          "type": "address"
        },
        {
          "indexed": true,
          "internalType": "address",
          "name": "_l2Token",
          "type": "address"
        },
        {
          "indexed": true,
          "internalType": "address",
          "name": "_from",
          "type": "address"
        },
        {
          "indexed": false,
          "internalType": "address",
          "name": "_to",
          "type": "address"
        },
        {
          "indexed": false,
          "internalType": "uint256",
          "name": "_amount",
          "type": "uint256"
        },
        {
          "indexed": false,
          "internalType": "bytes",
          "name": "_data",
          "type": "bytes"
        }
      ],
      "name": "ERC20WithdrawalFinalized",
      "type": "event"
    },
    {
      "anonymous": false,
      "inputs": [
        {
          "indexed": true,
          "internalType": "address",
          "name": "_from",
          "type": "address"
        },
        {
          "indexed": true,
          "internalType": "address",
          "name": "_to",
          "type": "address"
        },
        {
          "indexed": false,
          "internalType": "uint256",
          "name": "_amount",
          "type": "uint256"
        },
        {
          "indexed": false,
          "internalType": "bytes",
          "name": "_data",
          "type": "bytes"
        }
      ],
      "name": "ETHBridgeFinalized",
      "type": "event"
    },
    {
      "anonymous": false,
      "inputs": [
        {
          "indexed": true,
          "internalType": "address",
          "name": "_from",
          "type": "address"
        },
        {
          "indexed": true,
          "internalType": "address",
          "name": "_to",
          "type": "address"
        },
        {
          "indexed": false,
          "internalType": "uint256",
          "name": "_amount",
          "type": "uint256"
        },
        {
          "indexed": false,
          "internalType": "bytes",
          "name": "_data",
          "type": "bytes"
        }
      ],
      "name": "ETHBridgeInitiated",
      "type": "event"
    },
    {
      "anonymous": false,
      "inputs": [
        {
          "indexed": true,
          "internalType": "address",
          "name": "_from",
          "type": "address"
        },
        {
          "indexed": true,
          "internalType": "address",
          "name": "_to",
          "type": "address"
        },
        {
          "indexed": false,
          "internalType": "uint256",
          "name": "_amount",
          "type": "uint256"
        },
        {
          "indexed": false,
          "internalType": "bytes",
          "name": "_data",
          "type": "bytes"
        }
      ],
      "name": "ETHDepositInitiated",
      "type": "event"
    },
    {
      "anonymous": false,
      "inputs": [
        {
          "indexed": true,
          "internalType": "address",
          "name": "_from",
          "type": "address"
        },
        {
          "indexed": true,
          "internalType": "address",
          "name": "_to",
          "type": "address"
        },
        {
          "indexed": false,
          "internalType": "uint256",
          "name": "_amount",
          "type": "uint256"
        },
        {
          "indexed": false,
          "internalType": "bytes",
          "name": "_data",
          "type": "bytes"
        }
      ],
      "name": "ETHWithdrawalFinalized",
      "type": "event"
    },
    {
      "inputs": [
        {
          "internalType": "address",
          "name": "_localToken",
          "type": "address"
        },
        {
          "internalType": "address",
          "name": "_remoteToken",
          "type": "address"
        },
        {
          "internalType": "uint256",
          "name": "_amount",
          "type": "uint256"
        },
        {
          "internalType": "uint32",
          "name": "_minGasLimit",
          "type": "uint32"
        },
        {
          "internalType": "bytes",
          "name": "_data",
          "type": "bytes"
        }
      ],
      "name": "bridgeERC20",
      "outputs": [],
      "stateMutability": "nonpayable",
      "type": "function"
    },
    {
      "inputs": [
        {
          "internalType": "address",
          "name": "_localToken",
          "type": "address"
        },
        {
          "internalType": "address",
          "name": "_remoteToken",
          "type": "address"
        },
        {
          "internalType": "address",
          "name": "_to",
          "type": "address"
        },
        {
          "internalType": "uint256",
          "name": "_amount",
          "type": "uint256"
        },
        {
          "internalType": "uint32",
          "name": "_minGasLimit",
          "type": "uint32"
        },
        {
          "internalType": "bytes",
          "name": "_data",
          "type": "bytes"
        }
      ],
      "name": "bridgeERC20To",
      "outputs": [],
      "stateMutability": "nonpayable",
      "type": "function"
    },
    {
      "inputs": [
        {
          "internalType": "uint32",
          "name": "_minGasLimit",
          "type": "uint32"
        },
        {
          "internalType": "bytes",
          "name": "_data",
          "type": "bytes"
        }
      ],
      "name": "bridgeETH",
      "outputs": [],
      "stateMutability": "payable",
      "type": "function"
    },
    {
      "inputs": [
        {
          "internalType": "address",
          "name": "_to",
          "type": "address"
        },
        {
          "internalType": "uint32",
          "name": "_minGasLimit",
          "type": "uint32"
        },
        {
          "internalType": "bytes",
          "name": "_data",
          "type": "bytes"
        }
      ],
      "name": "bridgeETHTo",
      "outputs": [],
      "stateMutability": "payable",
      "type": "function"
    },
    {
      "inputs": [
        {
          "internalType": "address",
          "name": "_localToken",
          "type": "address"
        },
        {
          "internalType": "address",
          "name": "_remoteToken",
          "type": "address"
        },
        {
          "internalType": "address",
          "name": "_to",
          "type": "address"
        },
        {
          "internalType": "uint256",
          "name": "_amount",
          "type": "uint256"
        }
      ],
      "name": "completeOutboundTransfer",
      "outputs": [],
      "stateMutability": "nonpayable",
      "type": "function"
    },
    {
      "inputs": [
        {
          "internalType": "address",
          "name": "_l1Token",
          "type": "address"
        },
        {
          "internalType": "address",
          "name": "_l2Token",
          "type": "address"
        },
        {
          "internalType": "uint256",
          "name": "_amount",
          "type": "uint256"
        },
        {
          "internalType": "uint32",
          "name": "_minGasLimit",
          "type": "uint32"
        },
        {
          "internalType": "bytes",
          "name": "_data",
          "type": "bytes"
        }
      ],
      "name": "depositERC20",
      "outputs": [],
      "stateMutability": "nonpayable",
      "type": "function"
    },
    {
      "inputs": [
        {
          "internalType": "address",
          "name": "_l1Token",
          "type": "address"
        },
        {
          "internalType": "address",
          "name": "_l2Token",
          "type": "address"
        },
        {
          "internalType": "address",
          "name": "_to",
          "type": "address"
        },
        {
          "internalType": "uint256",
          "name": "_amount",
          "type": "uint256"
        },
        {
          "internalType": "uint32",
          "name": "_minGasLimit",
          "type": "uint32"
        },
        {
          "internalType": "bytes",
          "name": "_data",
          "type": "bytes"
        }
      ],
      "name": "depositERC20To",
      "outputs": [],
      "stateMutability": "nonpayable",
      "type": "function"
    },
    {
      "inputs": [
        {
          "internalType": "uint32",
          "name": "_minGasLimit",
          "type": "uint32"
        },
        {
          "internalType": "bytes",
          "name": "_data",
          "type": "bytes"
        }
      ],
      "name": "depositETH",
      "outputs": [],
      "stateMutability": "payable",
      "type": "function"
    },
    {
      "inputs": [
        {
          "internalType": "address",
          "name": "_to",
          "type": "address"
        },
        {
          "internalType": "uint32",
          "name": "_minGasLimit",
          "type": "uint32"
        },
        {
          "internalType": "bytes",
          "name": "_data",
          "type": "bytes"
        }
      ],
      "name": "depositETHTo",
      "outputs": [],
      "stateMutability": "payable",
      "type": "function"
    },
    {
      "inputs": [
        {
          "internalType": "address",
          "name": "",
          "type": "address"
        },
        {
          "internalType": "address",
          "name": "",
          "type": "address"
        }
      ],
      "name": "deposits",
      "outputs": [
        {
          "internalType": "uint256",
          "name": "",
          "type": "uint256"
        }
      ],
      "stateMutability": "view",
      "type": "function"
    },
    {
      "inputs": [],
      "name": "donateETH",
      "outputs": [],
      "stateMutability": "payable",
      "type": "function"
    },
    {
      "inputs": [
        {
          "internalType": "address",
          "name": "_localToken",
          "type": "address"
        },
        {
          "internalType": "address",
          "name": "_remoteToken",
          "type": "address"
        },
        {
          "internalType": "address",
          "name": "_from",
          "type": "address"
        },
        {
          "internalType": "address",
          "name": "_to",
          "type": "address"
        },
        {
          "internalType": "uint256",
          "name": "_amount",
          "type": "uint256"
        },
        {
          "internalType": "bytes",
          "name": "_data",
          "type": "bytes"
        }
      ],
      "name": "finalizeBridgeERC20",
      "outputs": [],
      "stateMutability": "nonpayable",
      "type": "function"
    },
    {
      "inputs": [
        {
          "internalType": "address",
          "name": "_from",
          "type": "address"
        },
        {
          "internalType": "address",
          "name": "_to",
          "type": "address"
        },
        {
          "internalType": "uint256",
          "name": "_amount",
          "type": "uint256"
        },
        {
          "internalType": "bytes",
          "name": "_data",
          "type": "bytes"
        }
      ],
      "name": "finalizeBridgeETH",
      "outputs": [],
      "stateMutability": "payable",
      "type": "function"
    },
    {
      "inputs": [
        {
          "internalType": "address",
          "name": "_l1Token",
          "type": "address"
        },
        {
          "internalType": "address",
          "name": "_l2Token",
          "type": "address"
        },
        {
          "internalType": "address",
          "name": "_from",
          "type": "address"
        },
        {
          "internalType": "address",
          "name": "_to",
          "type": "address"
        },
        {
          "internalType": "uint256",
          "name": "_amount",
          "type": "uint256"
        },
        {
          "internalType": "bytes",
          "name": "_data",
          "type": "bytes"
        }
      ],
      "name": "finalizeERC20Withdrawal",
      "outputs": [],
      "stateMutability": "nonpayable",
      "type": "function"
    },
    {
      "inputs": [
        {
          "internalType": "address",
          "name": "_from",
          "type": "address"
        },
        {
          "internalType": "address",
          "name": "_to",
          "type": "address"
        },
        {
          "internalType": "uint256",
          "name": "_amount",
          "type": "uint256"
        },
        {
          "internalType": "bytes",
          "name": "_data",
          "type": "bytes"
        }
      ],
      "name": "finalizeETHWithdrawal",
      "outputs": [],
      "stateMutability": "payable",
      "type": "function"
    },
    {
      "inputs": [
        {
          "internalType": "address payable",
          "name": "_messenger",
          "type": "address"
        }
      ],
      "name": "initialize",
      "outputs": [],
      "stateMutability": "nonpayable",
      "type": "function"
    },
    {
      "inputs": [],
      "name": "l2TokenBridge",
      "outputs": [
        {
          "internalType": "address",
          "name": "",
          "type": "address"
        }
      ],
      "stateMutability": "nonpayable",
      "type": "function"
    },
    {
      "inputs": [],
      "name": "messenger",
      "outputs": [
        {
          "internalType": "contract CrossDomainMessenger",
          "name": "",
          "type": "address"
        }
      ],
      "stateMutability": "view",
      "type": "function"
    },
    {
      "inputs": [],
      "name": "otherBridge",
      "outputs": [
        {
          "internalType": "contract StandardBridge",
          "name": "",
          "type": "address"
        }
      ],
      "stateMutability": "view",
      "type": "function"
    },
    {
      "stateMutability": "payable",
      "type": "receive"
    }
  ],
  "transactionHash": "0x5bc083191c2494dd80a60979cec714b2964ef05ad7de209e5dd8e32567426e11",
  "args": [],
  "numDeployments": 1,
  "solcInputHash": "6f1b19ba097550efb2ca70fb1ff05547",
  "bytecode": "0x608060405234801561001057600080fd5b506124b6806100206000396000f3fe6080604052600436106101485760003560e01c80638b4c40b0116100c0578063af565a1311610074578063c4d66de811610059578063c4d66de8146103a7578063c89701a2146103c7578063e11013dd146103e757600080fd5b8063af565a1314610374578063b1a1a8821461039457600080fd5b806391c49bf8116100a557806391c49bf8146103235780639a2ac6d514610341578063a9f9e6751461035457600080fd5b80638b4c40b0146101c05780638f601f66146102dd57600080fd5b80633cb747bf1161011757806358a997f6116100fc57806358a997f61461027d578063838b25201461029d57806387087623146102bd57600080fd5b80633cb747bf14610220578063540abf731461025d57600080fd5b80630166a07a146101c757806309fc8843146101e75780631532ec34146101fa5780631635f5fd1461020d57600080fd5b366101c257333b156101a15760405162461bcd60e51b815260206004820152600f60248201527f4163636f756e74206e6f7420454f41000000000000000000000000000000000060448201526064015b60405180910390fd5b6101c033333462030d40604051806020016040528060008152506103fa565b005b600080fd5b3480156101d357600080fd5b506101c06101e2366004611e5b565b610569565b6101c06101f5366004611f0c565b6107e5565b6101c0610208366004611f5f565b61087c565b6101c061021b366004611f5f565b6109ff565b34801561022c57600080fd5b50600054610240906001600160a01b031681565b6040516001600160a01b0390911681526020015b60405180910390f35b34801561026957600080fd5b506101c0610278366004611fd2565b610d27565b34801561028957600080fd5b506101c0610298366004612049565b610d37565b3480156102a957600080fd5b506101c06102b8366004611fd2565b610d96565b3480156102c957600080fd5b506101c06102d8366004612049565b610da6565b3480156102e957600080fd5b506103156102f83660046120cc565b600260209081526000928352604080842090915290825290205481565b604051908152602001610254565b34801561032f57600080fd5b506001546001600160a01b0316610240565b6101c061034f366004612105565b610e05565b34801561036057600080fd5b506101c061036f366004611e5b565b610e4d565b34801561038057600080fd5b506101c061038f366004612168565b610fd7565b6101c06103a2366004611f0c565b611216565b3480156103b357600080fd5b506101c06103c23660046121b9565b6112a7565b3480156103d357600080fd5b50600154610240906001600160a01b031681565b6101c06103f5366004612105565b6112c8565b836001600160a01b0316856001600160a01b03167f2849b43074093a05396b6f2a937dee8565b15a48a7b3d4bffb732a5017380af5858460405161043f92919061224c565b60405180910390a36000546001546040516001600160a01b0392831692633dbb202b9287929116907f1635f5fd000000000000000000000000000000000000000000000000000000009061049d908b908b9086908a90602401612265565b604080517fffffffffffffffffffffffffffffffffffffffffffffffffffffffffffffffe08184030181529181526020820180517bffffffffffffffffffffffffffffffffffffffffffffffffffffffff167fffffffff000000000000000000000000000000000000000000000000000000009485161790525160e086901b909216825261053092918890600401612297565b6000604051808303818588803b15801561054957600080fd5b505af115801561055d573d6000803e3d6000fd5b50505050505050505050565b6000546001600160a01b0316331480156106175750600154600054604080517f6e296e4500000000000000000000000000000000000000000000000000000000815290516001600160a01b039384169390921691636e296e45916004808201926020929091908290030181865afa1580156105e8573d6000803e3d6000fd5b505050506040513d601f19601f8201168201806040525081019061060c91906122cf565b6001600160a01b0316145b6106895760405162461bcd60e51b815260206004820152602660248201527f436f756c64206e6f742061757468656e74696361746520627269646765206d6560448201527f73736167652e00000000000000000000000000000000000000000000000000006064820152608401610198565b6040517faf565a130000000000000000000000000000000000000000000000000000000081526001600160a01b03808916600483015280881660248301528516604482015260648101849052309063af565a1390608401600060405180830381600087803b1580156106fa57600080fd5b505af192505050801561070b575060015b6107805761072086888787876000888861130b565b846001600160a01b0316866001600160a01b0316886001600160a01b03167f2755817676249910615f0a6a240ad225abe5343df8d527f7294c4af36a92009a878787876040516107739493929190612335565b60405180910390a46107dc565b846001600160a01b0316866001600160a01b0316886001600160a01b03167fd59c65b35445225835c83f50b6ede06a7be047d22e357073e250d9af537518cd878787876040516107d39493929190612335565b60405180910390a45b50505050505050565b333b156108345760405162461bcd60e51b815260206004820152600f60248201527f4163636f756e74206e6f7420454f4100000000000000000000000000000000006044820152606401610198565b6108773333348686868080601f0160208091040260200160405190810160405280939291908181526020018383808284376000920191909152506103fa92505050565b505050565b6000546001600160a01b03163314801561092a5750600154600054604080517f6e296e4500000000000000000000000000000000000000000000000000000000815290516001600160a01b039384169390921691636e296e45916004808201926020929091908290030181865afa1580156108fb573d6000803e3d6000fd5b505050506040513d601f19601f8201168201806040525081019061091f91906122cf565b6001600160a01b0316145b61099c5760405162461bcd60e51b815260206004820152602660248201527f436f756c64206e6f742061757468656e74696361746520627269646765206d6560448201527f73736167652e00000000000000000000000000000000000000000000000000006064820152608401610198565b836001600160a01b0316856001600160a01b03167f2ac69ee804d9a7a0984249f508dfab7cb2534b465b6ce1580f99a38ba9c5e6318585856040516109e39392919061235e565b60405180910390a36109f885858585856109ff565b5050505050565b6000546001600160a01b031633148015610aad5750600154600054604080517f6e296e4500000000000000000000000000000000000000000000000000000000815290516001600160a01b039384169390921691636e296e45916004808201926020929091908290030181865afa158015610a7e573d6000803e3d6000fd5b505050506040513d601f19601f82011682018060405250810190610aa291906122cf565b6001600160a01b0316145b610b1f5760405162461bcd60e51b815260206004820152602660248201527f436f756c64206e6f742061757468656e74696361746520627269646765206d6560448201527f73736167652e00000000000000000000000000000000000000000000000000006064820152608401610198565b823414610b945760405162461bcd60e51b815260206004820152602b60248201527f416d6f756e742073656e7420646f6573206e6f74206d6174636820616d6f756e60448201527f742072657175697265642e0000000000000000000000000000000000000000006064820152608401610198565b6001600160a01b038416301415610bed5760405162461bcd60e51b815260206004820152601460248201527f43616e6e6f742073656e6420746f2073656c662e0000000000000000000000006044820152606401610198565b836001600160a01b0316856001600160a01b03167f31b2166ff604fc5672ea5df08a78081d2bc6d746cadce880747f3643d819e83d858585604051610c349392919061235e565b60405180910390a3604080516000808252602082019092526001600160a01b038616908590604051610c669190612381565b60006040518083038185875af1925050503d8060008114610ca3576040519150601f19603f3d011682016040523d82523d6000602084013e610ca8565b606091505b5050905080610d1f5760405162461bcd60e51b815260206004820152603460248201527f5472616e7366657248656c7065723a3a736166655472616e736665724554483a60448201527f20455448207472616e73666572206661696c65640000000000000000000000006064820152608401610198565b505050505050565b6107dc878733888888888861148e565b333b15610d865760405162461bcd60e51b815260206004820152600f60248201527f4163636f756e74206e6f7420454f4100000000000000000000000000000000006044820152606401610198565b610d1f8686333388888888611676565b6107dc8787338888888888611676565b333b15610df55760405162461bcd60e51b815260206004820152600f60248201527f4163636f756e74206e6f7420454f4100000000000000000000000000000000006044820152606401610198565b610d1f868633338888888861148e565b610e4733858585858080601f0160208091040260200160405190810160405280939291908181526020018383808284376000920191909152506116e192505050565b50505050565b6000546001600160a01b031633148015610efb5750600154600054604080517f6e296e4500000000000000000000000000000000000000000000000000000000815290516001600160a01b039384169390921691636e296e45916004808201926020929091908290030181865afa158015610ecc573d6000803e3d6000fd5b505050506040513d601f19601f82011682018060405250810190610ef091906122cf565b6001600160a01b0316145b610f6d5760405162461bcd60e51b815260206004820152602660248201527f436f756c64206e6f742061757468656e74696361746520627269646765206d6560448201527f73736167652e00000000000000000000000000000000000000000000000000006064820152608401610198565b846001600160a01b0316866001600160a01b0316886001600160a01b03167f3ceee06c1e37648fcbb6ed52e17b3e1f275a1f8c7b22a84b2b84732431e046b387878787604051610fc09493929190612335565b60405180910390a46107dc87878787878787610569565b33301461104b5760405162461bcd60e51b8152602060048201526024808201527f46756e6374696f6e2063616e206f6e6c792062652063616c6c6564206279207360448201527f656c662e000000000000000000000000000000000000000000000000000000006064820152608401610198565b6001600160a01b0384163014156110a45760405162461bcd60e51b815260206004820152601a60248201527f4c6f63616c20746f6b656e2063616e6e6f742062652073656c660000000000006044820152606401610198565b6110ad8461173b565b156111ae576110bc848461176d565b61112e5760405162461bcd60e51b815260206004820152603a60248201527f57726f6e672072656d6f746520746f6b656e20666f72204f7074696d69736d2060448201527f4d696e7461626c65204552433230206c6f63616c20746f6b656e0000000000006064820152608401610198565b6040517f40c10f190000000000000000000000000000000000000000000000000000000081526001600160a01b038381166004830152602482018390528516906340c10f1990604401600060405180830381600087803b15801561119157600080fd5b505af11580156111a5573d6000803e3d6000fd5b50505050610e47565b6001600160a01b038085166000908152600260209081526040808320938716835292905220546111df9082906123cc565b6001600160a01b03808616600081815260026020908152604080832094891683529390529190912091909155610e479083836117ed565b333b156112655760405162461bcd60e51b815260206004820152600f60248201527f4163636f756e74206e6f7420454f4100000000000000000000000000000000006044820152606401610198565b61087733338585858080601f0160208091040260200160405190810160405280939291908181526020018383808284376000920191909152506116e192505050565b6112c5817342000000000000000000000000000000000000106118b4565b50565b610e473385348686868080601f0160208091040260200160405190810160405280939291908181526020018383808284376000920191909152506103fa92505050565b6000546001546040516001600160a01b0392831692633dbb202b9216907f0166a07a0000000000000000000000000000000000000000000000000000000090611364908c908e908d908d908d908c908c906024016123e3565b604080517fffffffffffffffffffffffffffffffffffffffffffffffffffffffffffffffe08184030181529181526020820180517bffffffffffffffffffffffffffffffffffffffffffffffffffffffff167fffffffff000000000000000000000000000000000000000000000000000000009485161790525160e085901b90921682526113f792918890600401612297565b600060405180830381600087803b15801561141157600080fd5b505af1158015611425573d6000803e3d6000fd5b50505050856001600160a01b0316876001600160a01b0316896001600160a01b03167f7ff126db8024424bbfd9826e8ab82ff59136289ea440b04b39a0df1b03b9cabf8888878760405161147c9493929190612335565b60405180910390a45050505050505050565b6001600160a01b0388163014156114e75760405162461bcd60e51b815260206004820152601a60248201527f4c6f63616c20746f6b656e2063616e6e6f742062652073656c660000000000006044820152606401610198565b6114f08861173b565b156115ef576114ff888861176d565b6115715760405162461bcd60e51b815260206004820152603a60248201527f57726f6e672072656d6f746520746f6b656e20666f72204f7074696d69736d2060448201527f4d696e7461626c65204552433230206c6f63616c20746f6b656e0000000000006064820152608401610198565b6040517f9dc29fac000000000000000000000000000000000000000000000000000000008152336004820152602481018590526001600160a01b03891690639dc29fac90604401600060405180830381600087803b1580156115d257600080fd5b505af11580156115e6573d6000803e3d6000fd5b5050505061165c565b6116046001600160a01b038916873087611979565b6001600160a01b038089166000908152600260209081526040808320938b1683529290522054611635908590612433565b6001600160a01b03808a166000908152600260209081526040808320938c16835292905220555b61166c888888888888888861130b565b5050505050505050565b856001600160a01b0316876001600160a01b0316896001600160a01b03167f718594027abd4eaed59f95162563e0cc6d0e8d5b86b1c7be8b1b0ac3343d0396888887876040516116c99493929190612335565b60405180910390a461166c888888888888888861148e565b826001600160a01b0316846001600160a01b03167f35d79ab81f2b2017e19afb5c5571778877782d7a8786f5907f93b0f4702f4f23348460405161172692919061224c565b60405180910390a3610e4784843485856103fa565b6000611767827f1d1d8b63000000000000000000000000000000000000000000000000000000006119ca565b92915050565b6000826001600160a01b031663c01e1bd66040518163ffffffff1660e01b8152600401602060405180830381865afa1580156117ad573d6000803e3d6000fd5b505050506040513d601f19601f820116820180604052508101906117d191906122cf565b6001600160a01b0316826001600160a01b031614905092915050565b6040516001600160a01b0383166024820152604481018290526108779084907fa9059cbb00000000000000000000000000000000000000000000000000000000906064015b604080517fffffffffffffffffffffffffffffffffffffffffffffffffffffffffffffffe08184030181529190526020810180517bffffffffffffffffffffffffffffffffffffffffffffffffffffffff167fffffffff00000000000000000000000000000000000000000000000000000000909316929092179091526119ed565b6000546001600160a01b0316156119335760405162461bcd60e51b815260206004820152602660248201527f436f6e74726163742068617320616c7265616479206265656e20696e6974696160448201527f6c697a65642e00000000000000000000000000000000000000000000000000006064820152608401610198565b600080546001600160a01b039384167fffffffffffffffffffffffff00000000000000000000000000000000000000009182161790915560018054929093169116179055565b6040516001600160a01b0380851660248301528316604482015260648101829052610e479085907f23b872dd0000000000000000000000000000000000000000000000000000000090608401611832565b60006119d583611ad2565b80156119e657506119e68383611b36565b9392505050565b6000611a42826040518060400160405280602081526020017f5361666545524332303a206c6f772d6c6576656c2063616c6c206661696c6564815250856001600160a01b0316611c659092919063ffffffff16565b8051909150156108775780806020019051810190611a60919061244b565b6108775760405162461bcd60e51b815260206004820152602a60248201527f5361666545524332303a204552433230206f7065726174696f6e20646964206e60448201527f6f742073756363656564000000000000000000000000000000000000000000006064820152608401610198565b6000611afe827f01ffc9a700000000000000000000000000000000000000000000000000000000611b36565b80156117675750611b2f827fffffffff00000000000000000000000000000000000000000000000000000000611b36565b1592915050565b604080517fffffffff00000000000000000000000000000000000000000000000000000000831660248083019190915282518083039091018152604490910182526020810180517bffffffffffffffffffffffffffffffffffffffffffffffffffffffff167f01ffc9a700000000000000000000000000000000000000000000000000000000179052905160009190829081906001600160a01b0387169061753090611be3908690612381565b6000604051808303818686fa925050503d8060008114611c1f576040519150601f19603f3d011682016040523d82523d6000602084013e611c24565b606091505b5091509150602081511015611c3f5760009350505050611767565b818015611c5b575080806020019051810190611c5b919061244b565b9695505050505050565b6060611c748484600085611c7c565b949350505050565b606082471015611cf45760405162461bcd60e51b815260206004820152602660248201527f416464726573733a20696e73756666696369656e742062616c616e636520666f60448201527f722063616c6c00000000000000000000000000000000000000000000000000006064820152608401610198565b6001600160a01b0385163b611d4b5760405162461bcd60e51b815260206004820152601d60248201527f416464726573733a2063616c6c20746f206e6f6e2d636f6e74726163740000006044820152606401610198565b600080866001600160a01b03168587604051611d679190612381565b60006040518083038185875af1925050503d8060008114611da4576040519150601f19603f3d011682016040523d82523d6000602084013e611da9565b606091505b5091509150611db9828286611dc4565b979650505050505050565b60608315611dd35750816119e6565b825115611de35782518084602001fd5b8160405162461bcd60e51b8152600401610198919061246d565b6001600160a01b03811681146112c557600080fd5b60008083601f840112611e2457600080fd5b50813567ffffffffffffffff811115611e3c57600080fd5b602083019150836020828501011115611e5457600080fd5b9250929050565b600080600080600080600060c0888a031215611e7657600080fd5b8735611e8181611dfd565b96506020880135611e9181611dfd565b95506040880135611ea181611dfd565b94506060880135611eb181611dfd565b93506080880135925060a088013567ffffffffffffffff811115611ed457600080fd5b611ee08a828b01611e12565b989b979a50959850939692959293505050565b803563ffffffff81168114611f0757600080fd5b919050565b600080600060408486031215611f2157600080fd5b611f2a84611ef3565b9250602084013567ffffffffffffffff811115611f4657600080fd5b611f5286828701611e12565b9497909650939450505050565b600080600080600060808688031215611f7757600080fd5b8535611f8281611dfd565b94506020860135611f9281611dfd565b935060408601359250606086013567ffffffffffffffff811115611fb557600080fd5b611fc188828901611e12565b969995985093965092949392505050565b600080600080600080600060c0888a031215611fed57600080fd5b8735611ff881611dfd565b9650602088013561200881611dfd565b9550604088013561201881611dfd565b94506060880135935061202d60808901611ef3565b925060a088013567ffffffffffffffff811115611ed457600080fd5b60008060008060008060a0878903121561206257600080fd5b863561206d81611dfd565b9550602087013561207d81611dfd565b94506040870135935061209260608801611ef3565b9250608087013567ffffffffffffffff8111156120ae57600080fd5b6120ba89828a01611e12565b979a9699509497509295939492505050565b600080604083850312156120df57600080fd5b82356120ea81611dfd565b915060208301356120fa81611dfd565b809150509250929050565b6000806000806060858703121561211b57600080fd5b843561212681611dfd565b935061213460208601611ef3565b9250604085013567ffffffffffffffff81111561215057600080fd5b61215c87828801611e12565b95989497509550505050565b6000806000806080858703121561217e57600080fd5b843561218981611dfd565b9350602085013561219981611dfd565b925060408501356121a981611dfd565b9396929550929360600135925050565b6000602082840312156121cb57600080fd5b81356119e681611dfd565b60005b838110156121f15781810151838201526020016121d9565b83811115610e475750506000910152565b6000815180845261221a8160208601602086016121d6565b601f017fffffffffffffffffffffffffffffffffffffffffffffffffffffffffffffffe0169290920160200192915050565b828152604060208201526000611c746040830184612202565b60006001600160a01b03808716835280861660208401525083604083015260806060830152611c5b6080830184612202565b6001600160a01b03841681526060602082015260006122b96060830185612202565b905063ffffffff83166040830152949350505050565b6000602082840312156122e157600080fd5b81516119e681611dfd565b8183528181602085013750600060208284010152600060207fffffffffffffffffffffffffffffffffffffffffffffffffffffffffffffffe0601f840116840101905092915050565b6001600160a01b0385168152836020820152606060408201526000611c5b6060830184866122ec565b8381526040602082015260006123786040830184866122ec565b95945050505050565b600082516123938184602087016121d6565b9190910192915050565b7f4e487b7100000000000000000000000000000000000000000000000000000000600052601160045260246000fd5b6000828210156123de576123de61239d565b500390565b60006001600160a01b03808a1683528089166020840152808816604084015280871660608401525084608083015260c060a083015261242660c0830184866122ec565b9998505050505050505050565b600082198211156124465761244661239d565b500190565b60006020828403121561245d57600080fd5b815180151581146119e657600080fd5b6020815260006119e6602083018461220256fea26469706673582212207297adc2a5d47fe01fe056e34e2333c254b9403e49380282bd570affa005125964736f6c634300080a0033",
  "devdoc": {
    "details": "The L1 ETH and ERC20 Bridge is a contract which stores deposited L1 funds and standard tokens that are in use on L2. It synchronizes a corresponding L2 Bridge, informing it of deposits and listening to it for newly finalized withdrawals.",
    "kind": "dev",
    "methods": {
      "depositERC20(address,address,uint256,uint32,bytes)": {
        "details": "deposit an amount of the ERC20 to the caller's balance on L2.",
        "params": {
          "_amount": "Amount of the ERC20 to deposit",
          "_data": "Optional data to forward to L2. This data is provided        solely as a convenience for external contracts. Aside from enforcing a maximum        length, these contracts provide no guarantees about its content.",
          "_l1Token": "Address of the L1 ERC20 we are depositing",
          "_l2Token": "Address of the L1 respective L2 ERC20",
          "_minGasLimit": "limit required to complete the deposit on L2."
        }
      },
      "depositERC20To(address,address,address,uint256,uint32,bytes)": {
        "details": "deposit an amount of ERC20 to a recipient's balance on L2.",
        "params": {
          "_amount": "Amount of the ERC20 to deposit.",
          "_data": "Optional data to forward to L2. This data is provided        solely as a convenience for external contracts. Aside from enforcing a maximum        length, these contracts provide no guarantees about its content.",
          "_l1Token": "Address of the L1 ERC20 we are depositing",
          "_l2Token": "Address of the L1 respective L2 ERC20",
          "_minGasLimit": "Gas limit required to complete the deposit on L2.",
          "_to": "L2 address to credit the withdrawal to."
        }
      },
      "depositETH(uint32,bytes)": {
        "details": "Deposit an amount of the ETH to the caller's balance on L2.",
        "params": {
          "_data": "Optional data to forward to L2. This data is provided        solely as a convenience for external contracts. Aside from enforcing a maximum        length, these contracts provide no guarantees about its content.",
          "_minGasLimit": "limit required to complete the deposit on L2."
        }
      },
      "depositETHTo(address,uint32,bytes)": {
        "details": "Deposit an amount of ETH to a recipient's balance on L2.",
        "params": {
          "_data": "Optional data to forward to L2. This data is provided        solely as a convenience for external contracts. Aside from enforcing a maximum        length, these contracts provide no guarantees about its content.",
          "_minGasLimit": "Gas limit required to complete the deposit on L2.",
          "_to": "L2 address to credit the withdrawal to."
        }
      },
      "finalizeERC20Withdrawal(address,address,address,address,uint256,bytes)": {
        "details": "Complete a withdrawal from L2 to L1, and credit funds to the recipient's balance of the L1 ERC20 token. This call will fail if the initialized withdrawal from L2 has not been finalized.",
        "params": {
          "_amount": "Amount of the ERC20 to deposit.",
          "_data": "Data provided by the sender on L2. This data is provided   solely as a convenience for external contracts. Aside from enforcing a maximum   length, these contracts provide no guarantees about its content.",
          "_from": "L2 address initiating the transfer.",
          "_l1Token": "Address of L1 token to finalizeWithdrawal for.",
          "_l2Token": "Address of L2 token where withdrawal was initiated.",
          "_to": "L1 address to credit the withdrawal to."
        }
      },
      "initialize(address)": {
        "details": "initialize the L1StandardBridge with the address of the      messenger in the same domain"
      },
      "l2TokenBridge()": {
        "details": "Get the address of the corresponding L2 bridge contract.      This is a legacy getter, provided for backwards compatibility.",
        "returns": {
          "_0": "Address of the corresponding L2 bridge contract."
        }
      }
    },
    "title": "L1StandardBridge",
    "version": 1
  },
  "userdoc": {
    "kind": "user",
    "methods": {
      "bridgeERC20(address,address,uint256,uint32,bytes)": {
        "notice": "Send an ERC20 to the message sender on the remote domain"
      },
      "bridgeERC20To(address,address,address,uint256,uint32,bytes)": {
        "notice": "Send an ERC20 to a specified account on the remote domain"
      },
      "bridgeETH(uint32,bytes)": {
        "notice": "Send ETH to the message sender on the remote domain"
      },
      "bridgeETHTo(address,uint32,bytes)": {
        "notice": "Send ETH to a specified account on the remote domain"
      },
      "donateETH()": {
        "notice": "Send ETH to this contract. This is used during upgrades"
      },
      "finalizeBridgeERC20(address,address,address,address,uint256,bytes)": {
        "notice": "Finalize an ERC20 sending transaction sent from a remote domain"
      },
      "finalizeBridgeETH(address,address,uint256,bytes)": {
        "notice": "Finalize an ETH sending transaction sent from a remote domain"
      },
      "messenger()": {
        "notice": "The messenger contract on the same domain"
      },
      "otherBridge()": {
        "notice": "The corresponding bridge on the other domain"
      }
    },
    "version": 1
  },
  "storageLayout": {
    "storage": [
      {
        "astId": 8012,
        "contract": "contracts/L1/L1StandardBridge.sol:L1StandardBridge",
        "label": "messenger",
        "offset": 0,
        "slot": "0",
        "type": "t_contract(CrossDomainMessenger)7632"
      },
      {
        "astId": 8016,
        "contract": "contracts/L1/L1StandardBridge.sol:L1StandardBridge",
        "label": "otherBridge",
        "offset": 0,
        "slot": "1",
        "type": "t_contract(StandardBridge)8638"
      },
      {
        "astId": 8022,
        "contract": "contracts/L1/L1StandardBridge.sol:L1StandardBridge",
        "label": "deposits",
        "offset": 0,
        "slot": "2",
        "type": "t_mapping(t_address,t_mapping(t_address,t_uint256))"
      }
    ],
    "types": {
      "t_address": {
        "encoding": "inplace",
        "label": "address",
        "numberOfBytes": "20"
      },
      "t_contract(CrossDomainMessenger)7632": {
        "encoding": "inplace",
        "label": "contract CrossDomainMessenger",
        "numberOfBytes": "20"
      },
      "t_contract(StandardBridge)8638": {
        "encoding": "inplace",
        "label": "contract StandardBridge",
        "numberOfBytes": "20"
      },
      "t_mapping(t_address,t_mapping(t_address,t_uint256))": {
        "encoding": "mapping",
        "key": "t_address",
        "label": "mapping(address => mapping(address => uint256))",
        "numberOfBytes": "32",
        "value": "t_mapping(t_address,t_uint256)"
      },
      "t_mapping(t_address,t_uint256)": {
        "encoding": "mapping",
        "key": "t_address",
        "label": "mapping(address => uint256)",
        "numberOfBytes": "32",
        "value": "t_uint256"
      },
      "t_uint256": {
        "encoding": "inplace",
        "label": "uint256",
        "numberOfBytes": "32"
      }
    }
  }
}