{
  "address": "0x5FbDB2315678afecb367f032d93F642f64180aa3",
  "abi": [
    {
      "inputs": [
        {
          "internalType": "uint256",
          "name": "_submissionInterval",
          "type": "uint256"
        },
        {
          "internalType": "uint256",
          "name": "_l2BlockTime",
          "type": "uint256"
        },
        {
          "internalType": "bytes32",
          "name": "_genesisL2Output",
          "type": "bytes32"
        },
        {
          "internalType": "uint256",
          "name": "_historicalTotalBlocks",
          "type": "uint256"
        },
        {
          "internalType": "uint256",
          "name": "_startingBlockTimestamp",
          "type": "uint256"
        },
        {
          "internalType": "address",
          "name": "sequencer",
          "type": "address"
        }
      ],
      "stateMutability": "nonpayable",
      "type": "constructor"
    },
    {
      "anonymous": false,
      "inputs": [
        {
          "indexed": true,
          "internalType": "address",
          "name": "previousOwner",
          "type": "address"
        },
        {
          "indexed": true,
          "internalType": "address",
          "name": "newOwner",
          "type": "address"
        }
      ],
      "name": "OwnershipTransferred",
      "type": "event"
    },
    {
      "anonymous": false,
      "inputs": [
        {
          "indexed": true,
          "internalType": "bytes32",
          "name": "_l2Output",
          "type": "bytes32"
        },
        {
          "indexed": true,
          "internalType": "uint256",
          "name": "_l1Timestamp",
          "type": "uint256"
        },
        {
          "indexed": true,
          "internalType": "uint256",
          "name": "_l2timestamp",
          "type": "uint256"
        }
      ],
      "name": "l2OutputAppended",
      "type": "event"
    },
    {
      "anonymous": false,
      "inputs": [
        {
          "indexed": true,
          "internalType": "bytes32",
          "name": "_l2Output",
          "type": "bytes32"
        },
        {
          "indexed": true,
          "internalType": "uint256",
          "name": "_l1Timestamp",
          "type": "uint256"
        },
        {
          "indexed": true,
          "internalType": "uint256",
          "name": "_l2timestamp",
          "type": "uint256"
        }
      ],
      "name": "l2OutputDeleted",
      "type": "event"
    },
    {
      "inputs": [],
      "name": "HISTORICAL_TOTAL_BLOCKS",
      "outputs": [
        {
          "internalType": "uint256",
          "name": "",
          "type": "uint256"
        }
      ],
      "stateMutability": "view",
      "type": "function"
    },
    {
      "inputs": [],
      "name": "L2_BLOCK_TIME",
      "outputs": [
        {
          "internalType": "uint256",
          "name": "",
          "type": "uint256"
        }
      ],
      "stateMutability": "view",
      "type": "function"
    },
    {
      "inputs": [],
      "name": "STARTING_BLOCK_TIMESTAMP",
      "outputs": [
        {
          "internalType": "uint256",
          "name": "",
          "type": "uint256"
        }
      ],
      "stateMutability": "view",
      "type": "function"
    },
    {
      "inputs": [],
      "name": "SUBMISSION_INTERVAL",
      "outputs": [
        {
          "internalType": "uint256",
          "name": "",
          "type": "uint256"
        }
      ],
      "stateMutability": "view",
      "type": "function"
    },
    {
      "inputs": [
        {
          "internalType": "bytes32",
          "name": "_l2Output",
          "type": "bytes32"
        },
        {
          "internalType": "uint256",
          "name": "_l2timestamp",
          "type": "uint256"
        },
        {
          "internalType": "bytes32",
          "name": "_l1Blockhash",
          "type": "bytes32"
        },
        {
          "internalType": "uint256",
          "name": "_l1Blocknumber",
          "type": "uint256"
        }
      ],
      "name": "appendL2Output",
      "outputs": [],
      "stateMutability": "payable",
      "type": "function"
    },
    {
      "inputs": [
        {
          "internalType": "uint256",
          "name": "_l2timestamp",
          "type": "uint256"
        }
      ],
      "name": "computeL2BlockNumber",
      "outputs": [
        {
          "internalType": "uint256",
          "name": "",
          "type": "uint256"
        }
      ],
      "stateMutability": "view",
      "type": "function"
    },
    {
      "inputs": [
        {
          "components": [
            {
              "internalType": "bytes32",
              "name": "outputRoot",
              "type": "bytes32"
            },
            {
              "internalType": "uint256",
              "name": "timestamp",
              "type": "uint256"
            }
          ],
          "internalType": "struct L2OutputOracle.OutputProposal",
          "name": "_proposal",
          "type": "tuple"
        }
      ],
      "name": "deleteL2Output",
      "outputs": [],
      "stateMutability": "nonpayable",
      "type": "function"
    },
    {
      "inputs": [
        {
          "internalType": "uint256",
          "name": "_l2Timestamp",
          "type": "uint256"
        }
      ],
      "name": "getL2Output",
      "outputs": [
        {
          "components": [
            {
              "internalType": "bytes32",
              "name": "outputRoot",
              "type": "bytes32"
            },
            {
              "internalType": "uint256",
              "name": "timestamp",
              "type": "uint256"
            }
          ],
          "internalType": "struct L2OutputOracle.OutputProposal",
          "name": "",
          "type": "tuple"
        }
      ],
      "stateMutability": "view",
      "type": "function"
    },
    {
      "inputs": [],
      "name": "latestBlockTimestamp",
      "outputs": [
        {
          "internalType": "uint256",
          "name": "",
          "type": "uint256"
        }
      ],
      "stateMutability": "view",
      "type": "function"
    },
    {
      "inputs": [],
      "name": "nextTimestamp",
      "outputs": [
        {
          "internalType": "uint256",
          "name": "",
          "type": "uint256"
        }
      ],
      "stateMutability": "view",
      "type": "function"
    },
    {
      "inputs": [],
      "name": "owner",
      "outputs": [
        {
          "internalType": "address",
          "name": "",
          "type": "address"
        }
      ],
      "stateMutability": "view",
      "type": "function"
    },
    {
      "inputs": [],
      "name": "renounceOwnership",
      "outputs": [],
      "stateMutability": "nonpayable",
      "type": "function"
    },
    {
      "inputs": [
        {
          "internalType": "address",
          "name": "newOwner",
          "type": "address"
        }
      ],
      "name": "transferOwnership",
      "outputs": [],
      "stateMutability": "nonpayable",
      "type": "function"
    }
  ],
  "transactionHash": "0xafa2619a7e1093f3027a1bdaeac77609154fbbf3b1d6557dc23244e6f82de6a7",
  "args": [
    6,
    2,
    "0x0000000000000000000000000000000000000000000000000000000000000000",
    0,
    "0x628bd878",
    "0x70997970C51812dc3A010C7d01b50e0d17dc79C8"
  ],
  "numDeployments": 1,
  "solcInputHash": "6f1b19ba097550efb2ca70fb1ff05547",
  "bytecode": "0x61010060405234801561001157600080fd5b50604051610e8f380380610e8f83398101604081905261003091610164565b61003933610114565b61004385876101c8565b156100ba5760405162461bcd60e51b815260206004820152603760248201527f5375626d697373696f6e20496e74657276616c206d7573742062652061206d7560448201527f6c7469706c65206f66204c3220426c6f636b2054696d65000000000000000000606482015260840160405180910390fd5b608086905260a0859052604080518082018252858152426020808301918252600086815260029091529290922090518155905160019182015560c084905282905560e082905261010981610114565b5050505050506101ea565b600080546001600160a01b038381166001600160a01b0319831681178455604051919092169283917f8be0079c531659141344cd1fd0a4f28419497f9722a3daafe3b4186f6b6457e09190a35050565b60008060008060008060c0878903121561017d57600080fd5b86516020880151604089015160608a015160808b015160a08c0151949a50929850909650945092506001600160a01b03811681146101ba57600080fd5b809150509295509295509295565b6000826101e557634e487b7160e01b600052601260045260246000fd5b500690565b60805160a05160c05160e051610c4361024c600039600081816101af0152818161031b01526103d70152600081816102d5015261040801526000818160e801526103b60152600081816101e3015281816105ba015261086d0152610c436000f3fe6080604052600436106100d15760003560e01c806341840fa61161007f5780638da5cb5b116100595780638da5cb5b1461021a578063a25ae5571461024f578063a4771aad146102c3578063f2fde38b146102f757600080fd5b806341840fa61461019d578063529933df146101d1578063715018a61461020557600080fd5b80630c1952d3116100b05780630c1952d31461015f5780632518810414610175578063357e951f1461018857600080fd5b80622134cc146100d657806302e513451461011d578063093b3d901461013d575b600080fd5b3480156100e257600080fd5b5061010a7f000000000000000000000000000000000000000000000000000000000000000081565b6040519081526020015b60405180910390f35b34801561012957600080fd5b5061010a610138366004610a82565b610317565b34801561014957600080fd5b5061015d610158366004610a9b565b61042f565b005b34801561016b57600080fd5b5061010a60015481565b61015d610183366004610b11565b6105e6565b34801561019457600080fd5b5061010a610869565b3480156101a957600080fd5b5061010a7f000000000000000000000000000000000000000000000000000000000000000081565b3480156101dd57600080fd5b5061010a7f000000000000000000000000000000000000000000000000000000000000000081565b34801561021157600080fd5b5061015d61089e565b34801561022657600080fd5b5060005460405173ffffffffffffffffffffffffffffffffffffffff9091168152602001610114565b34801561025b57600080fd5b506102a861026a366004610a82565b604080518082019091526000808252602082015250600090815260026020908152604091829020825180840190935280548352600101549082015290565b60408051825181526020928301519281019290925201610114565b3480156102cf57600080fd5b5061010a7f000000000000000000000000000000000000000000000000000000000000000081565b34801561030357600080fd5b5061015d610312366004610b43565b610911565b60007f00000000000000000000000000000000000000000000000000000000000000008210156103b45760405162461bcd60e51b815260206004820152602960248201527f54696d657374616d70207072696f7220746f207374617274696e67426c6f636b60448201527f54696d657374616d70000000000000000000000000000000000000000000000060648201526084015b60405180910390fd5b7f00000000000000000000000000000000000000000000000000000000000000007f000000000000000000000000000000000000000000000000000000000000000083038161040557610405610b80565b047f0000000000000000000000000000000000000000000000000000000000000000019050919050565b60005473ffffffffffffffffffffffffffffffffffffffff1633146104965760405162461bcd60e51b815260206004820181905260248201527f4f776e61626c653a2063616c6c6572206973206e6f7420746865206f776e657260448201526064016103ab565b60018054600090815260026020908152604091829020825180840190935280548084529301549082015282519091146105375760405162461bcd60e51b815260206004820152602760248201527f43616e206f6e6c792064656c65746520746865206d6f737420726563656e742060448201527f6f75747075742e0000000000000000000000000000000000000000000000000060648201526084016103ab565b80602001518260200151146105685760405162461bcd60e51b815260206004820152600060248201526044016103ab565b600154602082015182516040517f6897e92e2fea3b89bf0d45ed867487716da71bfa624c6878569d227d736c700990600090a4600180546000908152600260205260408120818155820155546105df907f000000000000000000000000000000000000000000000000000000000000000090610bde565b6001555050565b60005473ffffffffffffffffffffffffffffffffffffffff16331461064d5760405162461bcd60e51b815260206004820181905260248201527f4f776e61626c653a2063616c6c6572206973206e6f7420746865206f776e657260448201526064016103ab565b4283106106c25760405162461bcd60e51b815260206004820152602160248201527f43616e6e6f7420617070656e64204c32206f757470757420696e20667574757260448201527f650000000000000000000000000000000000000000000000000000000000000060648201526084016103ab565b6106ca610869565b831461073e5760405162461bcd60e51b815260206004820152602e60248201527f54696d657374616d70206e6f7420657175616c20746f206e657874206578706560448201527f637465642074696d657374616d7000000000000000000000000000000000000060648201526084016103ab565b8361078b5760405162461bcd60e51b815260206004820152601d60248201527f43616e6e6f74207375626d697420656d707479204c32206f757470757400000060448201526064016103ab565b811561080757818140146108075760405162461bcd60e51b815260206004820152603960248201527f426c6f636b6861736820646f6573206e6f74206d61746368207468652068617360448201527f6820617420746865206578706563746564206865696768742e0000000000000060648201526084016103ab565b60408051808201825285815242602080830182815260008881526002909252848220935184555160019384015591869055915185929187917f54fbf9b58db0b6543a3a0cb9fbd4e98a7c7b88878978fa125b84a2c7f51d34ba9190a450505050565b60007f00000000000000000000000000000000000000000000000000000000000000006001546108999190610bf5565b905090565b60005473ffffffffffffffffffffffffffffffffffffffff1633146109055760405162461bcd60e51b815260206004820181905260248201527f4f776e61626c653a2063616c6c6572206973206e6f7420746865206f776e657260448201526064016103ab565b61090f6000610a0d565b565b60005473ffffffffffffffffffffffffffffffffffffffff1633146109785760405162461bcd60e51b815260206004820181905260248201527f4f776e61626c653a2063616c6c6572206973206e6f7420746865206f776e657260448201526064016103ab565b73ffffffffffffffffffffffffffffffffffffffff8116610a015760405162461bcd60e51b815260206004820152602660248201527f4f776e61626c653a206e6577206f776e657220697320746865207a65726f206160448201527f646472657373000000000000000000000000000000000000000000000000000060648201526084016103ab565b610a0a81610a0d565b50565b6000805473ffffffffffffffffffffffffffffffffffffffff8381167fffffffffffffffffffffffff0000000000000000000000000000000000000000831681178455604051919092169283917f8be0079c531659141344cd1fd0a4f28419497f9722a3daafe3b4186f6b6457e09190a35050565b600060208284031215610a9457600080fd5b5035919050565b600060408284031215610aad57600080fd5b6040516040810181811067ffffffffffffffff82111715610af7577f4e487b7100000000000000000000000000000000000000000000000000000000600052604160045260246000fd5b604052823581526020928301359281019290925250919050565b60008060008060808587031215610b2757600080fd5b5050823594602084013594506040840135936060013592509050565b600060208284031215610b5557600080fd5b813573ffffffffffffffffffffffffffffffffffffffff81168114610b7957600080fd5b9392505050565b7f4e487b7100000000000000000000000000000000000000000000000000000000600052601260045260246000fd5b7f4e487b7100000000000000000000000000000000000000000000000000000000600052601160045260246000fd5b600082821015610bf057610bf0610baf565b500390565b60008219821115610c0857610c08610baf565b50019056fea2646970667358221220734bbd44aa805eb92f55255740088454b3a6d4ef0d1557341a65f6b222aa25bc64736f6c634300080a0033",
  "devdoc": {
    "kind": "dev",
    "methods": {
      "appendL2Output(bytes32,uint256,bytes32,uint256)": {
        "params": {
          "_l1Blockhash": "A block hash which must be included in the current chain.",
          "_l1Blocknumber": "The block number with the specified block hash.",
          "_l2Output": "The L2 output of the checkpoint block.",
          "_l2timestamp": "The L2 block timestamp that resulted in _l2Output."
        }
      },
      "computeL2BlockNumber(uint256)": {
        "params": {
          "_l2timestamp": "The L2 block timestamp of the target block."
        }
      },
      "constructor": {
        "params": {
          "_genesisL2Output": "The initial L2 output of the L2 chain.",
          "_historicalTotalBlocks": "The number of blocks that preceding the        initialization of the L2 chain.",
          "_l2BlockTime": "The desired L2 inter-block time in seconds.",
          "_startingBlockTimestamp": "The timestamp to start L2 block at.",
          "_submissionInterval": "The desired interval in seconds at which        checkpoints must be submitted."
        }
      },
      "deleteL2Output((bytes32,uint256))": {
        "params": {
          "_proposal": "Represents the output proposal to delete"
        }
      },
      "getL2Output(uint256)": {
        "params": {
          "_l2Timestamp": "The L2 block timestamp of the target block."
        }
      },
      "owner()": {
        "details": "Returns the address of the current owner."
      },
      "renounceOwnership()": {
        "details": "Leaves the contract without owner. It will not be possible to call `onlyOwner` functions anymore. Can only be called by the current owner. NOTE: Renouncing ownership will leave the contract without an owner, thereby removing any functionality that is only available to the owner."
      },
      "transferOwnership(address)": {
        "details": "Transfers ownership of the contract to a new account (`newOwner`). Can only be called by the current owner."
      }
    },
    "title": "L2OutputOracle",
    "version": 1
  },
  "userdoc": {
    "events": {
      "l2OutputAppended(bytes32,uint256,uint256)": {
        "notice": "Emitted when an output is appended."
      },
      "l2OutputDeleted(bytes32,uint256,uint256)": {
        "notice": "Emitted when an output is deleted."
      }
    },
    "kind": "user",
    "methods": {
      "HISTORICAL_TOTAL_BLOCKS()": {
        "notice": "The number of blocks in the chain before the first block in this contract."
      },
      "L2_BLOCK_TIME()": {
        "notice": "The time between blocks on L2."
      },
      "STARTING_BLOCK_TIMESTAMP()": {
        "notice": "The timestamp of the first L2 block recorded in this contract."
      },
      "SUBMISSION_INTERVAL()": {
        "notice": "The interval in seconds at which checkpoints must be submitted."
      },
      "appendL2Output(bytes32,uint256,bytes32,uint256)": {
        "notice": "Accepts an L2 outputRoot and the timestamp of the corresponding L2 block. The timestamp must be equal to the current value returned by `nextTimestamp()` in order to be accepted. This function may only be called by the Sequencer."
      },
      "computeL2BlockNumber(uint256)": {
        "notice": "Computes the L2 block number given a target L2 block timestamp."
      },
      "constructor": {
        "notice": "Initialize the L2OutputOracle contract."
      },
      "deleteL2Output((bytes32,uint256))": {
        "notice": "Deletes the most recent output."
      },
      "getL2Output(uint256)": {
        "notice": "Returns the L2 output proposal given a target L2 block timestamp. Returns a null output proposal if none is found."
      },
      "latestBlockTimestamp()": {
        "notice": "The timestamp of the most recent L2 block recorded in this contract."
      },
      "nextTimestamp()": {
        "notice": "Computes the timestamp of the next L2 block that needs to be checkpointed."
      }
    },
    "notice": "The L2 state is committed to in this contract The payable keyword is used on appendL2Output to save gas on the msg.value check. This contract should be deployed behind an upgradable proxy",
    "version": 1
  },
  "storageLayout": {
    "storage": [
      {
        "astId": 3029,
        "contract": "contracts/L1/L2OutputOracle.sol:L2OutputOracle",
        "label": "_owner",
        "offset": 0,
        "slot": "0",
        "type": "t_address"
      },
      {
        "astId": 5027,
        "contract": "contracts/L1/L2OutputOracle.sol:L2OutputOracle",
        "label": "latestBlockTimestamp",
        "offset": 0,
        "slot": "1",
        "type": "t_uint256"
      },
      {
        "astId": 5033,
        "contract": "contracts/L1/L2OutputOracle.sol:L2OutputOracle",
        "label": "l2Outputs",
        "offset": 0,
        "slot": "2",
        "type": "t_mapping(t_uint256,t_struct(OutputProposal)5038_storage)"
      }
    ],
    "types": {
      "t_address": {
        "encoding": "inplace",
        "label": "address",
        "numberOfBytes": "20"
      },
      "t_bytes32": {
        "encoding": "inplace",
        "label": "bytes32",
        "numberOfBytes": "32"
      },
      "t_mapping(t_uint256,t_struct(OutputProposal)5038_storage)": {
        "encoding": "mapping",
        "key": "t_uint256",
        "label": "mapping(uint256 => struct L2OutputOracle.OutputProposal)",
        "numberOfBytes": "32",
        "value": "t_struct(OutputProposal)5038_storage"
      },
      "t_struct(OutputProposal)5038_storage": {
        "encoding": "inplace",
        "label": "struct L2OutputOracle.OutputProposal",
        "members": [
          {
            "astId": 5035,
            "contract": "contracts/L1/L2OutputOracle.sol:L2OutputOracle",
            "label": "outputRoot",
            "offset": 0,
            "slot": "0",
            "type": "t_bytes32"
          },
          {
            "astId": 5037,
            "contract": "contracts/L1/L2OutputOracle.sol:L2OutputOracle",
            "label": "timestamp",
            "offset": 0,
            "slot": "1",
            "type": "t_uint256"
          }
        ],
        "numberOfBytes": "64"
      },
      "t_uint256": {
        "encoding": "inplace",
        "label": "uint256",
        "numberOfBytes": "32"
      }
    }
  }
}