{
  "address": "0x038a8825A3C3B0c08d52Cc76E5E361953Cf6Dc76",
  "abi": [
    {
      "inputs": [
        {
          "internalType": "address",
          "name": "_upgrader",
          "type": "address"
        },
        {
          "internalType": "address",
          "name": "_governanceToken",
          "type": "address"
        }
      ],
      "stateMutability": "nonpayable",
      "type": "constructor"
    },
    {
      "anonymous": false,
      "inputs": [
        {
          "indexed": true,
          "internalType": "address",
          "name": "previousOwner",
          "type": "address"
        },
        {
          "indexed": true,
          "internalType": "address",
          "name": "newOwner",
          "type": "address"
        }
      ],
      "name": "OwnershipTransferred",
      "type": "event"
    },
    {
      "inputs": [],
      "name": "DENOMINATOR",
      "outputs": [
        {
          "internalType": "uint256",
          "name": "",
          "type": "uint256"
        }
      ],
      "stateMutability": "view",
      "type": "function"
    },
    {
      "inputs": [],
      "name": "MINT_CAP",
      "outputs": [
        {
          "internalType": "uint256",
          "name": "",
          "type": "uint256"
        }
      ],
      "stateMutability": "view",
      "type": "function"
    },
    {
      "inputs": [],
      "name": "MINT_PERIOD",
      "outputs": [
        {
          "internalType": "uint256",
          "name": "",
          "type": "uint256"
        }
      ],
      "stateMutability": "view",
      "type": "function"
    },
    {
      "inputs": [],
      "name": "governanceToken",
      "outputs": [
        {
          "internalType": "contract GovernanceToken",
          "name": "",
          "type": "address"
        }
      ],
      "stateMutability": "view",
      "type": "function"
    },
    {
      "inputs": [
        {
          "internalType": "address",
          "name": "_account",
          "type": "address"
        },
        {
          "internalType": "uint256",
          "name": "_amount",
          "type": "uint256"
        }
      ],
      "name": "mint",
      "outputs": [],
      "stateMutability": "nonpayable",
      "type": "function"
    },
    {
      "inputs": [],
      "name": "mintPermittedAfter",
      "outputs": [
        {
          "internalType": "uint256",
          "name": "",
          "type": "uint256"
        }
      ],
      "stateMutability": "view",
      "type": "function"
    },
    {
      "inputs": [],
      "name": "owner",
      "outputs": [
        {
          "internalType": "address",
          "name": "",
          "type": "address"
        }
      ],
      "stateMutability": "view",
      "type": "function"
    },
    {
      "inputs": [],
      "name": "renounceOwnership",
      "outputs": [],
      "stateMutability": "nonpayable",
      "type": "function"
    },
    {
      "inputs": [
        {
          "internalType": "address",
          "name": "newOwner",
          "type": "address"
        }
      ],
      "name": "transferOwnership",
      "outputs": [],
      "stateMutability": "nonpayable",
      "type": "function"
    },
    {
      "inputs": [
        {
          "internalType": "address",
          "name": "_newMintManager",
          "type": "address"
        }
      ],
      "name": "upgrade",
      "outputs": [],
      "stateMutability": "nonpayable",
      "type": "function"
    }
  ],
  "transactionHash": "0xef34b41d22d24351e6ff22ffc48345eb42218c6c6403c950724a98ded6427c89",
  "args": [
    "0xC30276833798867C1dBC5c468bf51cA900b44E4c",
    "0x4200000000000000000000000000000000000042"
  ],
  "numDeployments": 1,
  "solcInputHash": "b1df373a9ed51b3903b61f56faa9a78f",
  "bytecode": "0x60a06040523480156200001157600080fd5b50604051620012f1380380620012f1833981810160405281019062000037919062000319565b620000576200004b620000a460201b60201c565b620000ac60201b60201c565b62000068826200017060201b60201c565b8073ffffffffffffffffffffffffffffffffffffffff1660808173ffffffffffffffffffffffffffffffffffffffff168152505050506200047b565b600033905090565b60008060009054906101000a900473ffffffffffffffffffffffffffffffffffffffff169050816000806101000a81548173ffffffffffffffffffffffffffffffffffffffff021916908373ffffffffffffffffffffffffffffffffffffffff1602179055508173ffffffffffffffffffffffffffffffffffffffff168173ffffffffffffffffffffffffffffffffffffffff167f8be0079c531659141344cd1fd0a4f28419497f9722a3daafe3b4186f6b6457e060405160405180910390a35050565b62000180620000a460201b60201c565b73ffffffffffffffffffffffffffffffffffffffff16620001a66200028660201b60201c565b73ffffffffffffffffffffffffffffffffffffffff1614620001ff576040517f08c379a0000000000000000000000000000000000000000000000000000000008152600401620001f690620003c1565b60405180910390fd5b600073ffffffffffffffffffffffffffffffffffffffff168173ffffffffffffffffffffffffffffffffffffffff16141562000272576040517f08c379a0000000000000000000000000000000000000000000000000000000008152600401620002699062000459565b60405180910390fd5b6200028381620000ac60201b60201c565b50565b60008060009054906101000a900473ffffffffffffffffffffffffffffffffffffffff16905090565b600080fd5b600073ffffffffffffffffffffffffffffffffffffffff82169050919050565b6000620002e182620002b4565b9050919050565b620002f381620002d4565b8114620002ff57600080fd5b50565b6000815190506200031381620002e8565b92915050565b60008060408385031215620003335762000332620002af565b5b6000620003438582860162000302565b9250506020620003568582860162000302565b9150509250929050565b600082825260208201905092915050565b7f4f776e61626c653a2063616c6c6572206973206e6f7420746865206f776e6572600082015250565b6000620003a960208362000360565b9150620003b68262000371565b602082019050919050565b60006020820190508181036000830152620003dc816200039a565b9050919050565b7f4f776e61626c653a206e6577206f776e657220697320746865207a65726f206160008201527f6464726573730000000000000000000000000000000000000000000000000000602082015250565b60006200044160268362000360565b91506200044e82620003e3565b604082019050919050565b60006020820190508181036000830152620004748162000432565b9050919050565b608051610e45620004ac600039600081816102a8015281816104070152818161050301526107500152610e456000f3fe608060405234801561001057600080fd5b506004361061009d5760003560e01c80638da5cb5b116100665780638da5cb5b14610120578063918f86741461013e57806398f1312e1461015c578063f2fde38b1461017a578063f96dae0a146101965761009d565b8062f8900c146100a25780630900f010146100c057806340c10f19146100dc578063715018a6146100f857806383ea6e9714610102575b600080fd5b6100aa6101b4565b6040516100b79190610857565b60405180910390f35b6100da60048036038101906100d591906108d5565b6101ba565b005b6100f660048036038101906100f1919061092e565b610334565b005b610100610592565b005b61010a61061a565b6040516101179190610857565b60405180910390f35b610128610622565b604051610135919061097d565b60405180910390f35b61014661064b565b6040516101539190610857565b60405180910390f35b610164610651565b6040516101719190610857565b60405180910390f35b610194600480360381019061018f91906108d5565b610656565b005b61019e61074e565b6040516101ab91906109f7565b60405180910390f35b60015481565b6101c2610772565b73ffffffffffffffffffffffffffffffffffffffff166101e0610622565b73ffffffffffffffffffffffffffffffffffffffff1614610236576040517f08c379a000000000000000000000000000000000000000000000000000000000815260040161022d90610a6f565b60405180910390fd5b600073ffffffffffffffffffffffffffffffffffffffff168173ffffffffffffffffffffffffffffffffffffffff1614156102a6576040517f08c379a000000000000000000000000000000000000000000000000000000000815260040161029d90610adb565b60405180910390fd5b7f000000000000000000000000000000000000000000000000000000000000000073ffffffffffffffffffffffffffffffffffffffff1663f2fde38b826040518263ffffffff1660e01b81526004016102ff919061097d565b600060405180830381600087803b15801561031957600080fd5b505af115801561032d573d6000803e3d6000fd5b5050505050565b61033c610772565b73ffffffffffffffffffffffffffffffffffffffff1661035a610622565b73ffffffffffffffffffffffffffffffffffffffff16146103b0576040517f08c379a00000000000000000000000000000000000000000000000000000000081526004016103a790610a6f565b60405180910390fd5b600060015411156104eb57426001541115610400576040517f08c379a00000000000000000000000000000000000000000000000000000000081526004016103f790610b47565b60405180910390fd5b6103e860147f000000000000000000000000000000000000000000000000000000000000000073ffffffffffffffffffffffffffffffffffffffff166318160ddd6040518163ffffffff1660e01b8152600401602060405180830381865afa158015610470573d6000803e3d6000fd5b505050506040513d601f19601f820116820180604052508101906104949190610b7c565b61049e9190610bd8565b6104a89190610c61565b8111156104ea576040517f08c379a00000000000000000000000000000000000000000000000000000000081526004016104e190610cde565b60405180910390fd5b5b6301e13380426104fb9190610cfe565b6001819055507f000000000000000000000000000000000000000000000000000000000000000073ffffffffffffffffffffffffffffffffffffffff166340c10f1983836040518363ffffffff1660e01b815260040161055c929190610d54565b600060405180830381600087803b15801561057657600080fd5b505af115801561058a573d6000803e3d6000fd5b505050505050565b61059a610772565b73ffffffffffffffffffffffffffffffffffffffff166105b8610622565b73ffffffffffffffffffffffffffffffffffffffff161461060e576040517f08c379a000000000000000000000000000000000000000000000000000000000815260040161060590610a6f565b60405180910390fd5b610618600061077a565b565b6301e1338081565b60008060009054906101000a900473ffffffffffffffffffffffffffffffffffffffff16905090565b6103e881565b601481565b61065e610772565b73ffffffffffffffffffffffffffffffffffffffff1661067c610622565b73ffffffffffffffffffffffffffffffffffffffff16146106d2576040517f08c379a00000000000000000000000000000000000000000000000000000000081526004016106c990610a6f565b60405180910390fd5b600073ffffffffffffffffffffffffffffffffffffffff168173ffffffffffffffffffffffffffffffffffffffff161415610742576040517f08c379a000000000000000000000000000000000000000000000000000000000815260040161073990610def565b60405180910390fd5b61074b8161077a565b50565b7f000000000000000000000000000000000000000000000000000000000000000081565b600033905090565b60008060009054906101000a900473ffffffffffffffffffffffffffffffffffffffff169050816000806101000a81548173ffffffffffffffffffffffffffffffffffffffff021916908373ffffffffffffffffffffffffffffffffffffffff1602179055508173ffffffffffffffffffffffffffffffffffffffff168173ffffffffffffffffffffffffffffffffffffffff167f8be0079c531659141344cd1fd0a4f28419497f9722a3daafe3b4186f6b6457e060405160405180910390a35050565b6000819050919050565b6108518161083e565b82525050565b600060208201905061086c6000830184610848565b92915050565b600080fd5b600073ffffffffffffffffffffffffffffffffffffffff82169050919050565b60006108a282610877565b9050919050565b6108b281610897565b81146108bd57600080fd5b50565b6000813590506108cf816108a9565b92915050565b6000602082840312156108eb576108ea610872565b5b60006108f9848285016108c0565b91505092915050565b61090b8161083e565b811461091657600080fd5b50565b60008135905061092881610902565b92915050565b6000806040838503121561094557610944610872565b5b6000610953858286016108c0565b925050602061096485828601610919565b9150509250929050565b61097781610897565b82525050565b6000602082019050610992600083018461096e565b92915050565b6000819050919050565b60006109bd6109b86109b384610877565b610998565b610877565b9050919050565b60006109cf826109a2565b9050919050565b60006109e1826109c4565b9050919050565b6109f1816109d6565b82525050565b6000602082019050610a0c60008301846109e8565b92915050565b600082825260208201905092915050565b7f4f776e61626c653a2063616c6c6572206973206e6f7420746865206f776e6572600082015250565b6000610a59602083610a12565b9150610a6482610a23565b602082019050919050565b60006020820190508181036000830152610a8881610a4c565b9050919050565b7f4f503a204d696e74206d616e616765722063616e6e6f7420626520656d707479600082015250565b6000610ac5602083610a12565b9150610ad082610a8f565b602082019050919050565b60006020820190508181036000830152610af481610ab8565b9050919050565b7f4f503a206d696e74696e67206e6f74207065726d697474656420796574000000600082015250565b6000610b31601d83610a12565b9150610b3c82610afb565b602082019050919050565b60006020820190508181036000830152610b6081610b24565b9050919050565b600081519050610b7681610902565b92915050565b600060208284031215610b9257610b91610872565b5b6000610ba084828501610b67565b91505092915050565b7f4e487b7100000000000000000000000000000000000000000000000000000000600052601160045260246000fd5b6000610be38261083e565b9150610bee8361083e565b9250817fffffffffffffffffffffffffffffffffffffffffffffffffffffffffffffffff0483118215151615610c2757610c26610ba9565b5b828202905092915050565b7f4e487b7100000000000000000000000000000000000000000000000000000000600052601260045260246000fd5b6000610c6c8261083e565b9150610c778361083e565b925082610c8757610c86610c32565b5b828204905092915050565b7f4f503a206d696e7420616d6f756e742065786365656473206361700000000000600082015250565b6000610cc8601b83610a12565b9150610cd382610c92565b602082019050919050565b60006020820190508181036000830152610cf781610cbb565b9050919050565b6000610d098261083e565b9150610d148361083e565b9250827fffffffffffffffffffffffffffffffffffffffffffffffffffffffffffffffff03821115610d4957610d48610ba9565b5b828201905092915050565b6000604082019050610d69600083018561096e565b610d766020830184610848565b9392505050565b7f4f776e61626c653a206e6577206f776e657220697320746865207a65726f206160008201527f6464726573730000000000000000000000000000000000000000000000000000602082015250565b6000610dd9602683610a12565b9150610de482610d7d565b604082019050919050565b60006020820190508181036000830152610e0881610dcc565b905091905056fea2646970667358221220d6ef0f15f2581f08c298ff8c67408d75a27f67742459525e88193c029a7a0bcf64736f6c634300080c0033",
  "devdoc": {
    "kind": "dev",
    "methods": {
      "constructor": {
        "params": {
          "_governanceToken": "The governance token this contract can mint                         tokens of",
          "_upgrader": "The owner of this contract"
        }
      },
      "mint(address,uint256)": {
        "params": {
          "_account": "Address to mint new tokens to.",
          "_amount": "Amount of tokens to be minted."
        }
      },
      "owner()": {
        "details": "Returns the address of the current owner."
      },
      "renounceOwnership()": {
        "details": "Leaves the contract without owner. It will not be possible to call `onlyOwner` functions anymore. Can only be called by the current owner. NOTE: Renouncing ownership will leave the contract without an owner, thereby removing any functionality that is only available to the owner."
      },
      "transferOwnership(address)": {
        "details": "Transfers ownership of the contract to a new account (`newOwner`). Can only be called by the current owner."
      },
      "upgrade(address)": {
        "params": {
          "_newMintManager": "The MintManager to upgrade to"
        }
      }
    },
    "title": "MintManager",
    "version": 1
  },
  "userdoc": {
    "kind": "user",
    "methods": {
      "DENOMINATOR()": {
        "notice": "The number of decimals for the MINT_CAP."
      },
      "MINT_CAP()": {
        "notice": "The amount of tokens that can be minted per year. The value is a fixed          point number with 4 decimals."
      },
      "MINT_PERIOD()": {
        "notice": "The amount of time that must pass before the MINT_CAP number of tokens can         be minted again."
      },
      "governanceToken()": {
        "notice": "The GovernanceToken that the MintManager can mint tokens"
      },
      "mint(address,uint256)": {
        "notice": "Only the token owner is allowed to mint a certain amount of OP per year."
      },
      "mintPermittedAfter()": {
        "notice": "Tracks the time of last mint"
      },
      "upgrade(address)": {
        "notice": "Upgrade the owner of the governance token to a new MintManager."
      }
    },
    "notice": "Set as `owner` of the OP token and responsible for the token inflation schedule.         Contract acts as the token \"mint manager\" with permission to the `mint` function only.         Currently permitted to mint once per year of up to 2% of the total token supply.         Upgradable to allow changes in the inflation schedule.",
    "version": 1
  },
  "storageLayout": {
    "storage": [
      {
        "astId": 7,
        "contract": "contracts/MintManager.sol:MintManager",
        "label": "_owner",
        "offset": 0,
        "slot": "0",
        "type": "t_address"
      },
      {
        "astId": 3573,
        "contract": "contracts/MintManager.sol:MintManager",
        "label": "mintPermittedAfter",
        "offset": 0,
        "slot": "1",
        "type": "t_uint256"
      }
    ],
    "types": {
      "t_address": {
        "encoding": "inplace",
        "label": "address",
        "numberOfBytes": "20"
      },
      "t_uint256": {
        "encoding": "inplace",
        "label": "uint256",
        "numberOfBytes": "32"
      }
    }
  }
}